
Source Code


000002:                                                                                                  ## Copyright:   Public domain.
000003:                                                                                                  ## Filename:    INTERPRETIVE_CONSTANTS.agc
000004:                                                                                                  ## Purpose:     A section of Luminary revision 97.
000005:                                                                                                  ##              It is part of the reconstructed source code for the
000006:                                                                                                  ##              second release of the flight software for the Lunar
000007:                                                                                                  ##              Module's (LM) Apollo Guidance Computer (AGC) for Apollo 11.
000008:                                                                                                  ##              It was created to fix two incorrect ephemeris constants in
000009:                                                                                                  ##              Luminary 96, as described by anomaly report LNY-59.
000010:                                                                                                  ##              The code has been recreated from a copy of Luminary 99
000011:                                                                                                  ##              revision 001, using asterisks indicating changed lines in
000012:                                                                                                  ##              the listing and Luminary Memos #83 and #85, which list
000013:                                                                                                  ##              changes between Luminary 97 and 98, and 98 and 99. The
000014:                                                                                                  ##              code has been adapted such that the resulting bugger words
000015:                                                                                                  ##              exactly match those specified for Luminary 97 in NASA drawing
000016:                                                                                                  ##              2021152D, which gives relatively high confidence that the
000017:                                                                                                  ##              reconstruction is correct.
000018:                                                                                                  ## Reference:   pp. 1100-1101
000019:                                                                                                  ## Assembler:   yaYUL
000020:                                                                                                  ## Contact:     Ron Burkey <info@sandroid.org>.
000021:                                                                                                  ## Website:     www.ibiblio.org/apollo/index.html
000022:                                                                                                  ## Mod history: 2019-07-28 MAS  Created from Luminary 99.
000023:                                                                                                  ##              2021-05-30 ABS  DFC-6 -> DEC-6, DFC-12 -> DEC-12
000024:


000026: 23,2000                                           SETLOC   INTPRET1
000027: 23,2000                                           BANK
000028:
000029: 23,2511                                           COUNT*   $$/ICONS
000030: 23,2511           10000 00000  DP1/4TH            2DEC     .25
000031:
000032: 23,2513           00000 00000  UNITZ              2DEC     0          B-28
000033:
000034: 23,2515           00000 00000  UNITY              2DEC     0          B-28
000035:
000036: 23,2517           20000 00000  UNITX              2DEC     .5
000037:
000038: 23,2521           00000 00000  ZEROVECS           2DEC     0          B-28
000039:
000040: 23,2523           00000 00000                     2DEC     0          B-28
000041:
000042: 23,2525           00000 00000                     2DEC     0          B-28
000043:
000044: 23,2527  23,2517               DPHALF             =        UNITX
000045: 23,2527           37777        DPPOSMAX           OCT      37777
000046: 23,2530           37777                           OCT      37777
000047:


000049:                                                                                                  #  INTERPRETIVE CONSTANTS IN THE OTHER HALF-MEMORY
000050:
000051: 12,2000                                           SETLOC   INTPRET2
000052: 12,2000                                           BANK
000053:
000054: 12,2000                                           COUNT*   $$/ICONS
000055: 12,2000           00000 00000  ZUNIT              2DEC     0          B-28
000056:
000057: 12,2002           00000 00000  YUNIT              2DEC     0          B-28
000058:
000059: 12,2004           20000 00000  XUNIT              2DEC     .5
000060:
000061: 12,2006           00000 00000  ZEROVEC            2DEC     0          B-28
000062:
000063: 12,2010           00000 00000                     2DEC     0          B-28
000064:
000065: 12,2012           00000 00000                     2DEC     0          B-28
000066:
000067: 12,2014           77777                           OCT      77777                                 #  -0, -6, -12 MUST REMAIN IN THIS ORDER
000068: 12,2015           77771        DEC-6              DEC      -6         B-14
000069: 12,2016           77763        DEC-12             DEC      -12        B-14
000070: 12,2017           37777 37777  LODPMAX            2OCT     3777737777                            #  THESE TWO CONSTANTS MUST REMAIN
000071:
000072: 12,2021           37777 37777  LODPMAX1           2OCT     3777737777                            #  ADJACENT AND THE SAME FOR INTEGRATION
000073:
000074: 12,2023  12,2006               ZERODP             =        ZEROVEC
000075: 12,2023  12,2004               HALFDP             =        XUNIT
000076:
000077:

End of include-file INTERPRETIVE_CONSTANTS.agc.  Parent file is MAIN.agc


