
Source Code


000002:                                                                                                  ## Copyright:   Public domain.
000003:                                                                                                  ## Filename:    INTERRUPT_LEAD_INS.agc
000004:                                                                                                  ## Purpose:     A section of Luminary revision 97.
000005:                                                                                                  ##              It is part of the reconstructed source code for the
000006:                                                                                                  ##              second release of the flight software for the Lunar
000007:                                                                                                  ##              Module's (LM) Apollo Guidance Computer (AGC) for Apollo 11.
000008:                                                                                                  ##              It was created to fix two incorrect ephemeris constants in
000009:                                                                                                  ##              Luminary 96, as described by anomaly report LNY-59.
000010:                                                                                                  ##              The code has been recreated from a copy of Luminary 99
000011:                                                                                                  ##              revision 001, using asterisks indicating changed lines in
000012:                                                                                                  ##              the listing and Luminary Memos #83 and #85, which list
000013:                                                                                                  ##              changes between Luminary 97 and 98, and 98 and 99. The
000014:                                                                                                  ##              code has been adapted such that the resulting bugger words
000015:                                                                                                  ##              exactly match those specified for Luminary 97 in NASA drawing
000016:                                                                                                  ##              2021152D, which gives relatively high confidence that the
000017:                                                                                                  ##              reconstruction is correct.
000018:                                                                                                  ## Reference:   pp. 153-154
000019:                                                                                                  ## Assembler:   yaYUL
000020:                                                                                                  ## Contact:     Ron Burkey <info@sandroid.org>.
000021:                                                                                                  ## Website:     www.ibiblio.org/apollo/index.html
000022:                                                                                                  ## Mod history: 2019-07-28 MAS  Created from Luminary 99.
000023:


000025:    4000                                           SETLOC   4000
000026:
000027:    4000                                           COUNT*   $$/RUPTS                              #  FIX-FIX LEAD INS
000028:    4000           00004                           INHINT                                         #  GO
000029:    4001           34054                           CAF      GOBB
000030:    4002           56006                           XCH      BBANK
000031:    4003           12667                           TCF      GOPROG
000032:
000033:    4004           52011                           DXCH     ARUPT                                 #  T6RUPT
000034:    4005           00006                           EXTEND
000035:    4006           34056                           DCA      T6ADR
000036:    4007           52006                           DTCB
000037:
000038:    4010           52011                           DXCH     ARUPT                                 #  T5RUPT - AUTOPILOT
000039:    4011           00006                           EXTEND
000040:    4012           31275                           DCA      T5ADR
000041:    4013           52006                           DTCB
000042:
000043:    4014           52011                           DXCH     ARUPT                                 #  T3RUPT
000044:    4015           34057                           CAF      T3RPTBB
000045:    4016           56006                           XCH      BBANK
000046:    4017           13407                           TCF      T3RUPT
000047:
000048:    4020           52011                           DXCH     ARUPT                                 #  T4RUPT
000049:    4021           34064                           CAF      T4RPTBB
000050:    4022           56006                           XCH      BBANK
000051:    4023           12000                           TCF      T4RUPT
000052:
000053:    4024           52011                           DXCH     ARUPT                                 #  KEYRUPT1
000054:    4025           34060                           CAF      KEYRPTBB
000055:    4026           56006                           XCH      BBANK
000056:    4027           13274                           TCF      KEYRUPT1
000057:
000058:    4030           52011                           DXCH     ARUPT                                 #  KEYRUPT2
000059:    4031           34061                           CAF      MKRUPTBB
000060:    4032           56006                           XCH      BBANK
000061:    4033           12332                           TCF      MARKRUPT
000062:
000063:    4034           52011                           DXCH     ARUPT                                 #  UPRUPT
000064:    4035           34060                           CAF      UPRPTBB
000065:    4036           56006                           XCH      BBANK
000066:    4037           13317                           TCF      UPRUPT
000067:
000068:    4040           52011                           DXCH     ARUPT                                 #  DOWNRUPT
000069:    4041           34062                           CAF      DWNRPTBB
000070:    4042           56006                           XCH      BBANK
000071:    4043           13506                           TCF      DODOWNTM
000072:
000073:    4044           52011                           DXCH     ARUPT                                 #  RADAR RUPT
000074:    4045           34063                           CAF      RDRPTBB


000076:    4046           56006                           XCH      BBANK
000077:    4047           13150                           TCF      RADAREAD
000078:
000079:    4050           52011                           DXCH     ARUPT                                 #  RUPT10 IS USED ONLY BY LANDING GUIDANCE
000080:    4051           34065                           CA       RUPT10BB
000081:    4052           56006                           XCH      BBANK
000082:    4053           12275                           TCF      PITFALL
000083:
000084:
000085:    4054  E3,1400                                  EBANK=   LST1                                  #  RESTART USES E0, E3
000086:    4054           12103        GOBB               BBCON    GOPROG
000087:
000088:    4055  E6,1464                                  EBANK=   PERROR
000089:    4055           02065 36106  T6ADR              2CADR    DOT6RUPT
000090:
000091:    4057  E3,1400                                  EBANK=   LST1
000092:    4057           02103        T3RPTBB            BBCON    T3RUPT
000093:
000094:    4060     0073                                  EBANK=   KEYTEMP1
000095:    4060           10100        KEYRPTBB           BBCON    KEYRUPT1
000096:
000097:    4061  E7,1404                                  EBANK=   AOTAZ
000098:    4061           16107        MKRUPTBB           BBCON    MARKRUPT
000099:
000100:    4062     4060               UPRPTBB            =        KEYRPTBB
000101:
000102:    4062     0340                                  EBANK=   DNTMBUFF
000103:    4062           12100        DWNRPTBB           BBCON    DODOWNTM
000104:
000105:    4063     0110                                  EBANK=   RADMODES
000106:    4063           52100        RDRPTBB            BBCON    RADAREAD
000107:
000108:    4064  E6,1414                                  EBANK=   M11
000109:    4064           14106        T4RPTBB            BBCON    T4RUPT
000110:
000111:    4065  E7,1647                                  EBANK=   ELVIRA
000112:    4065           22107        RUPT10BB           BBCON    PITFALL
000113:

End of include-file INTERRUPT_LEAD_INS.agc.  Parent file is MAIN.agc


