
Source Code


000002:                                                                                                  ## Copyright:   Public domain.
000003:                                                                                                  ## Filename:    KALMAN_FILTER.agc
000004:                                                                                                  ## Purpose:     A section of Luminary revision 97.
000005:                                                                                                  ##              It is part of the reconstructed source code for the
000006:                                                                                                  ##              original release of the flight software for the Lunar
000007:                                                                                                  ##              Module's (LM) Apollo Guidance Computer (AGC) for Apollo 11.
000008:                                                                                                  ##              The code has been recreated from a copy of Luminary 99
000009:                                                                                                  ##              revision 001, using asterisks indicating changed lines in
000010:                                                                                                  ##              the listing and Luminary Memos #83 and #85, which list
000011:                                                                                                  ##              changes between Luminary 97 and 98, and 98 and 99. The
000012:                                                                                                  ##              code has been adapted such that the resulting bugger words
000013:                                                                                                  ##              exactly match those specified for Luminary 97 in NASA drawing
000014:                                                                                                  ##              2021152D, which gives relatively high confidence that the
000015:                                                                                                  ##              reconstruction is correct.
000016:                                                                                                  ## Reference:   pp. 1470-1471
000017:                                                                                                  ## Assembler:   yaYUL
000018:                                                                                                  ## Contact:     Ron Burkey <info@sandroid.org>.
000019:                                                                                                  ## Website:     www.ibiblio.org/apollo/index.html
000020:                                                                                                  ## Mod history: 2019-07-28 MAS  Created from Luminary 99.
000021:


000023: 17,3744  E6,1522                                  EBANK=   NO.UJETS
000024: 16,3641                                           BANK     16
000025: 16,2000                                           SETLOC   DAPS1
000026: 16,2000                                           BANK
000027:
000028: 16,3641                                           COUNT*   $$/DAP
000029:
000030: 16,3641           34752        RATELOOP           CA       TWO
000031: 16,3642           55744                           TS       DAPTEMP6
000032: 16,3643           60000                           DOUBLE
000033: 16,3644           54002                           TS       Q
000034: 16,3645           51744                           INDEX    DAPTEMP6
000035: 16,3646           11524                           CCS      TJP
000036: 16,3647           13651                           TCF      +2
000037: 16,3650           13670                           TCF      LOOPRATE
000038: 16,3651           63731                           AD       -100MST6
000039: 16,3652           00006                           EXTEND
000040: 16,3653           63707                           BZMF     SMALLTJU
000041: 16,3654           51744                           INDEX    DAPTEMP6
000042: 16,3655           11524                           CCS      TJP
000043: 16,3656           33731                           CA       -100MST6
000044: 16,3657           13661                           TCF      +2
000045: 16,3660           43731                           CS       -100MST6
000046: 16,3661           51744                           INDEX    DAPTEMP6
000047: 16,3662           27524                           ADS      TJP
000048: 16,3663           51744                           INDEX    DAPTEMP6
000049: 16,3664           11524                           CCS      TJP
000050: 16,3665           43615                           CS       -100MS                                #  0.1 AT 1
000051: 16,3666           13670                           TCF      +2
000052: 16,3667           33615                           CA       -100MS
000053: 16,3670           00006        LOOPRATE           EXTEND
000054: 16,3671           51744                           INDEX    DAPTEMP6
000055: 16,3672           71521                           MP       NO.PJETS
000056: 16,3673           30001                           CA       L
000057: 16,3674           51744                           INDEX    DAPTEMP6
000058: 16,3675           55737                           TS       DAPTEMP1                              #  SIGNED TORQUE AT 1 JET-SEC FOR FILTER
000059: 16,3676           00006                           EXTEND
000060: 16,3677           74742                           MP       BIT10                                 #  RESCALE TO 32; ONE BIT ABOUT 2 JET-MSEC
000061: 16,3700           00006                           EXTEND
000062: 16,3701           63732                           BZMF     NEGTORK
000063: 16,3702           50002        STORTORK           INDEX    Q                                     #  INCREMENT DOWNLIST REGISTER.
000064: 16,3703           27513                           ADS      DOWNTORK                              #        NOTE:  NOT INITIALIZED; OVERFLOWS.
000065:
000066: 16,3704           11744                           CCS      DAPTEMP6
000067: 16,3705           13642                           TCF      RATELOOP   +1
000068: 16,3706           13716                           TCF      ROTORQUE
000069: 16,3707           34755        SMALLTJU           CA       ZERO
000070: 16,3710           51744                           INDEX    DAPTEMP6
000071: 16,3711           57524                           XCH      TJP
000072: 16,3712           00006                           EXTEND


000074: 16,3713           74760                           MP       ELEVEN                                #  10.24 PLUS
000075: 16,3714           30001                           CA       L
000076: 16,3715           13670                           TCF      LOOPRATE
000077: 16,3716           31740        ROTORQUE           CA       DAPTEMP2
000078: 16,3717           61741                           AD       DAPTEMP3
000079: 16,3720           00006                           EXTEND
000080: 16,3721           71532                           MP       1JACCR
000081: 16,3722           55747                           TS       JETRATER
000082: 16,3723           41741                           CS       DAPTEMP3
000083: 16,3724           61740                           AD       DAPTEMP2
000084: 16,3725           00006                           EXTEND
000085: 16,3726           71531                           MP       1JACCQ
000086: 16,3727           55746                           TS       JETRATEQ
000087: 16,3730           12316                           TCF      BACKP
000088: 16,3731           77537        -100MST6           DEC      -160       B-14
000089:
000090: 16,3732           40000        NEGTORK            COM
000091: 16,3733           24002                           INCR     Q
000092: 16,3734           13702                           TCF      STORTORK
000093:
000094:

End of include-file KALMAN_FILTER.agc.  Parent file is MAIN.agc


