
Source Code


000002:                                                                                                  ## Copyright:   Public domain.
000003:                                                                                                  ## Filename:    LAMBERT_AIMPOINT_GUIDANCE.agc
000004:                                                                                                  ## Purpose:     A section of Luminary revision 97.
000005:                                                                                                  ##              It is part of the reconstructed source code for the
000006:                                                                                                  ##              original release of the flight software for the Lunar
000007:                                                                                                  ##              Module's (LM) Apollo Guidance Computer (AGC) for Apollo 11.
000008:                                                                                                  ##              The code has been recreated from a copy of Luminary 99
000009:                                                                                                  ##              revision 001, using asterisks indicating changed lines in
000010:                                                                                                  ##              the listing and Luminary Memos #83 and #85, which list
000011:                                                                                                  ##              changes between Luminary 97 and 98, and 98 and 99. The
000012:                                                                                                  ##              code has been adapted such that the resulting bugger words
000013:                                                                                                  ##              exactly match those specified for Luminary 97 in NASA drawing
000014:                                                                                                  ##              2021152D, which gives relatively high confidence that the
000015:                                                                                                  ##              reconstruction is correct.
000016:                                                                                                  ## Reference:   pp. 651-653
000017:                                                                                                  ## Assembler:   yaYUL
000018:                                                                                                  ## Contact:     Ron Burkey <info@sandroid.org>.
000019:                                                                                                  ## Website:     www.ibiblio.org/apollo/index.html
000020:                                                                                                  ## Mod history: 2019-07-28 MAS  Created from Luminary 99.
000021:


000023:
000024:                                                                                                  #  GENERAL LAMBERT AIMPOINT GUIDANCE **
000025:                                                                                                  #  WRITTEN BY RAMA M AIYAWAR
000026:
000027:                                                                                                  #  PROGRAM P-31 DESCRIPTION **
000028:
000029:                                                                                                  #  1.    TO ACCEPT TARGETING PARAMETERS OBTAINED FROM A SOURCE EXTERNAL
000030:                                                                                                  #        TO THE LEM AND COMPUTE THERE FROM THE REQUIRED-VELOCITY AND
000031:                                                                                                  #        OTHER INITIAL CONDITIONS REQUIRED BY LM FOR DESIRED MANEUVER.
000032:                                                                                                  #        THE TARGETING PARAMETERS ARE TIG (TIME OF IGNITION), TARGET
000033:                                                                                                  #        VECTOR (RTARG), AND THE TIME FROM TIG UNTIL THE TARGET IS
000034:                                                                                                  #        REACHED (DELLT4), DESIRED TIME OF FLIGHT FROM RINIT TO RTARG..
000035:
000036:                                                                                                  #  ASSUMPTIONS **
000037:
000038:                                                                                                  #  1.    THE TARGET PARAMETERS MAY HAVE BEEN LOADED PRIOR TO THE
000039:                                                                                                  #        EXECUTION OF THIS PROGRAM.
000040:                                                                                                  #  2.    THIS PROGRAM IS APPLICABLE IN EITHER EARTH OR LUNAR ORBIT.
000041:                                                                                                  #  3.    THIS PROGRAM IS DESIGNED FOR ONE-MAN OPERATION, AND SHOULD
000042:                                                                                                  #        BE SELECTED BY THE ASTRONAUT BY DSKY ENTRY V37 E31.
000043:
000044:                                                                                                  #  SUBROUTINES USED **
000045:                                                                                                  #
000046:                                                                                                  #  MANUPARM, TTG/N35, R02BOTH, MIDGIM, DISPMGA, FLAGDOWN, BANKCALL,
000047:                                                                                                  #  GOTOPOOH, ENDOFJOB, PHASCHNG, GOFLASHR, GOFLASH.
000048:
000049:                                                                                                  #  MANUPARM      CALCULATES APOGEE, PERIGEE ALTITUDES AND DELTAV DESIRED
000050:                                                                                                  #                FOR THE MANEUVER.
000051:
000052:                                                                                                  #  TTG/N35       CLOCKTASK - UPDATES CLOCK.
000053:
000054:                                                                                                  #  MIDGIM        CALCULATES MIDDLE GIMBAL ANGLE FOR DISPLAY.
000055:
000056:                                                                                                  #  R02BOTH       IMU - STATUS CHECK ROUTINE.
000057:
000058:                                                                                                  #  DISPLAYS USED IN P-31LM **
000059:
000060:                                                                                                  #  V06N33        DISPLAY SOTRED TIG (IN HRS. MINS. SECS)
000061:                                                                                                  #  V06N42        DISPLAY APOGEE, PERIGEE, DELTAV.
000062:                                                                                                  #  V16N35        DISPLAY TIME FROM TIG.
000063:                                                                                                  #  V06N45        TIME FROM IGNITION AND MIDDLE GIMBAL ANGLE.
000064:
000065:                                                                                                  #  ERASABLE INITIALIZATION REQUIRED **
000066:
000067:                                                                                                  #  TIG           TIME OF IGNITION                DP      (B+28) CS.
000068:
000069:                                                                                                  #  DELLT4        DESIRED TIME OF FLIGHT          DP      (B+28) CS
000070:                                                                                                  #                FROM RINIT TO RTARG.
000071:
000072:                                                                                                  #  RTARG         RADIUS VECTOR OF TARGET POSITION VECTOR
000073:                                                                                                  #                RADIUS VECTOR SCALED TO (B+29)METERS IF EARTH ORBIT


000075:                                                                                                  #                RADIUS VECTOR SCALED TO (B+27)METERS IF MOON ORBIT
000076:
000077:                                                                                                  #  OUTPUT **
000078:
000079:                                                                                                  #  HAPO          APOGEE ALTITUDE
000080:                                                                                                  #  HPER          PERIGEE ALTITUDE
000081:                                                                                                  #  VGDISP        MAG. OF DELTAV FOR DISPLAY, SCALING     B+7 M/CS EARTH
000082:                                                                                                  #                MAG. OF DELTAV FOR DISPLAY, SCALING     B+5 M/CS MOON
000083:                                                                                                  #  MIDGIM        MIDDLE GIMBAL ANGLE
000084:                                                                                                  #  XDELVFLG      RESETS XDELVFLG FOR LAMBERT VG COMPUTATIONS
000085:
000086:                                                                                                  #  ALARMS OR ABORTS      NONE **
000087:
000088:                                                                                                  #  RESTARTS ARE VIA GROUP 4 **
000089:
000090: 35,2000                                           SETLOC   GLM
000091: 35,2000                                           BANK
000092:
000093: 35,2450  E7,1470                                  EBANK=   SUBEXIT
000094:
000095: 35,2450                                           COUNT*   $$/P31
000096: 35,2450           02361        P31                TC       P20FLGON
000097: 35,2451           32025                           CAF      V06N33                                #  TIG
000098: 35,2452           03712                           TC       VNPOOH
000099: 35,2453           06037                           TC       INTPRET
000100: 35,2454           71214                           CLEAR    DLOAD
000101: 35,2455           00670                                    UPDATFLG
000102: 35,2456           03442                                    TIG
000103: 35,2457           34041                           STCALL   TDEC1                                 #  INTEGRATE STATE VECTORS TO TIG
000104: 35,2460           27057                                    LEMPREC
000105: 35,2461           40375                           VLOAD    SETPD
000106: 35,2462           00001                                    RATT
000107: 35,2463           00001                                    0D
000108: 35,2464           03642                           STORE    RTIG
000109: 35,2465           26323                           STOVL    RINIT
000110: 35,2466           00007                                    VATT
000111: 35,2467           03650                           STORE    VTIG
000112: 35,2470           16331                           STODL    VINIT
000113: 35,2471           32420                                    P30ZERO
000114: 35,2472           65206                           PUSH     PDDL                                  #  E4 AND NUMIT = 0
000115: 35,2473           03452                                    DELLT4
000116: 35,2474           66015                           DAD      SXA,1
000117: 35,2475           03442                                    TIG
000118: 35,2476           02776                                    RTX1
000119: 35,2477           03631                           STORE    TPASS4
000120: 35,2500           45134                           SXA,2    CALL
000121: 35,2501           02777                                    RTX2
000122: 35,2502           22000                                    INITVEL
000123: 35,2503           41575                           VLOAD    PUSH


000125: 35,2504           02366                                    DELVEET3
000126: 35,2505           03656                           STORE    DELVSIN
000127: 35,2506           43046                           ABVAL    CLEAR
000128: 35,2507           01267                                    XDELVFLG
000129: 35,2510           37664                           STCALL   VGDISP
000130: 35,2511           15733                                    GET.LVC
000131: 35,2512           63375                           VLOAD    PDVL
000132: 35,2513           03642                                    RTIG
000133: 35,2514           02337                                    VIPRIME
000134: 35,2515           77624                           CALL
000135: 35,2516           46316                                    PERIAPO1
000136: 35,2517           77624                           CALL
000137: 35,2520           46426                                    SHIFTR1
000138: 35,2521           77624                           CALL                                           #  LIMIT DISPLAY TO 9999.9 N. MI.
000139: 35,2522           45636                                    MAXCHK
000140: 35,2523           16321                           STODL    HPER
000141: 35,2524           00005                                    4D
000142: 35,2525           77624                           CALL
000143: 35,2526           46426                                    SHIFTR1
000144: 35,2527           77624                           CALL                                           #  LIMIT DISPLAY TO 9999.9 N. MI.
000145: 35,2530           45636                                    MAXCHK
000146: 35,2531           02317                           STORE    HAPO
000147: 35,2532           77776                           EXIT
000148: 35,2533           33727                           CAF      V06N81                                #  DELVLVC
000149: 35,2534           03712                           TC       VNPOOH
000150: 35,2535           32026                           CAF      V06N42                                #  HAPO, HPER, VGDISP
000151: 35,2536           03712                           TC       VNPOOH
000152: 35,2537           06037                           TC       INTPRET
000153: 35,2540           45014        REVN1645           SET      CALL                                  #  TRKMKCNT, TTOGO, +MGA
000154: 35,2541           01071                                    FINALFLG
000155: 35,2542           73606                                    VN1645
000156: 35,2543           77650                           GOTO
000157: 35,2544           72540                                    REVN1645
000158:

End of include-file LAMBERT_AIMPOINT_GUIDANCE.agc.  Parent file is MAIN.agc


