
Source Code


000002:                                                                                                  ## Copyright:   Public domain.
000003:                                                                                                  ## Filename:    LUNAR_AND_SOLAR_EPHEMERIDES_SUBROUTINES.agc
000004:                                                                                                  ## Purpose:     A section of Luminary revision 97.
000005:                                                                                                  ##              It is part of the reconstructed source code for the
000006:                                                                                                  ##              original release of the flight software for the Lunar
000007:                                                                                                  ##              Module's (LM) Apollo Guidance Computer (AGC) for Apollo 11.
000008:                                                                                                  ##              The code has been recreated from a copy of Luminary 99
000009:                                                                                                  ##              revision 001, using asterisks indicating changed lines in
000010:                                                                                                  ##              the listing and Luminary Memos #83 and #85, which list
000011:                                                                                                  ##              changes between Luminary 97 and 98, and 98 and 99. The
000012:                                                                                                  ##              code has been adapted such that the resulting bugger words
000013:                                                                                                  ##              exactly match those specified for Luminary 97 in NASA drawing
000014:                                                                                                  ##              2021152D, which gives relatively high confidence that the
000015:                                                                                                  ##              reconstruction is correct.
000016:                                                                                                  ## Reference:   pp. 984-987
000017:                                                                                                  ## Assembler:   yaYUL
000018:                                                                                                  ## Contact:     Ron Burkey <info@sandroid.org>.
000019:                                                                                                  ## Website:     www.ibiblio.org/apollo/index.html
000020:                                                                                                  ## Mod history: 2019-07-28 MAS  Created from Luminary 99.
000021:


000023:                                                                                                  #  NAME - LSPOS - LOCATE SUN AND MOON                    DATE - 25 OCT 67
000024:                                                                                                  #  MOD NO. 1
000025:                                                                                                  #  MOD BY NEVILLE                                        ASSEMBLY SUNDANCE
000026:
000027:                                                                                                  #  FUNCTIONAL DESCRIPTION
000028:
000029:                                                                                                  #         COMPUTES UNIT POSITION VECTOR OF THE SUN AND MOON IN THE BASIC REFERENCE SYSTEM. THE SUN VECTOR S IS
000030:                                                                                                  #  LOCATED VIA TWO ANGLES. THE FIRST ANGLE(OBLIQUITY) IS THE ANGLE BETWEEN THE EARTH EQUATOR AND THE ECLIPTIC. THE
000031:                                                                                                  #  SECOND ANGLE IS THE LONGITUDE OF THE SUN MEASURED IN THE ECLIPTIC.
000032:                                                                                                  #  THE POSITION VECTOR OF THE SUN IS
000033:                                                                                                  #        -
000034:                                                                                                  #        S = (COS(LOS), COS(OBL)*SIN(LOS), SIN(OBL)*SIN(LOS)), WHERE
000035:
000036:                                                                                                  #        LOS = LOS +LOS *T-(C *SIN(2PI*T)/365.24 +C *COS(2PI*T)/365.24)
000037:                                                                                                  #                 0    R     0                     1
000038:                                                                                                  #        LOS  (RAD) IS THE LONGITUDE OF THE SUN FOR MIDNIGHT JUNE 30TH OF THE PARTICULAR YEAR.
000039:                                                                                                  #           0
000040:                                                                                                  #        LOS  (RAD/DAY) IS THE MEAN RATE FOR THE PARTICULAR YEAR.
000041:                                                                                                  #           R
000042:
000043:                                                                                                  #  LOS  AND LOS  ARE STORED AS LOSC AND LOSR IN RATESP.
000044:                                                                                                  #     0        R
000045:                                                                                                  #  COS(OBL) AND SIN(OBL) ARE STORED IN THE MATRIX KONMAT.
000046:
000047:                                                                                                  #  T, TIME MEASURED IN DAYS (24 HOURS), IS STORED IN TIMEP.
000048:
000049:                                                                                                  #  C  AND C  ARE FUDGE FACTORS TO MINIMIZE THE DEVIATION.  THEY ARE STORED AS ONE CONSTANT (CMOD), SINCE
000050:                                                                                                  #   0      1                               2  2 1/2
000051:                                                                                                  #  C *SIN(X)+C *COS(X) CAN BE WRITTEN AS (C +C )   *SIN(X+PHI), WHERE PHI=ARCTAN(C /C ).
000052:                                                                                                  #   0         1                            0  1                                   1  0
000053:
000054:                                                                                                  #  THE MOON IS LOCATED VIA FOUR ANGLES. THE FIRST IS THE OBLIQUITY. THE SECOND IS THE MEAN LONGITUDE OF THE MOON,
000055:                                                                                                  #  MEASURED IN THE ECLIPTIC FROM THE MEAN EQUINOX TO THE MEAN ASCENDING NODE OF THE LUNAR ORBIT, AND THEN ALONG THE
000056:                                                                                                  #  ORBIT.  THE THIRD ANGLE IS THE ANGLE BETWEEN THE ECLIPTIC AND THE LUNAR ORBIT.  THE FOURTH ANGLE IS THE LONGITUDE
000057:                                                                                                  #  OF THE NODE OF THE MOON, MEASURED IN THE LUNAR ORBIT.  LET THESE ANGLES BE OBL,LOM,IM, AND LON RESPECTIVELY.
000058:
000059:                                                                                                  #  THE SIMPLIFIED POSITION VECTOR OF THE MOON IS
000060:                                                                                                  #        -
000061:                                                                                                  #        M=(COS(LOM), COS(OBL)*SIN(LOM)-SIN(OBL)*SIN(IM)*SIN(LOM-LON), SIN(OBL)*SIN(LOM)+COS(OBL)*SIN(IM)*SIN(LOM-LON))
000062:
000063:                                                                                                  #  WHERE
000064:                                                                                                  #        LOM=LOM +LOM *T-(A *SIN 2PI*T/27.5545+A *COS(2PI*T/27.5545)+B *SIN 2PI*T/32+B *COS(2PI*T/32)), AND
000065:                                                                                                  #               0    R     0                    1                     0               1
000066:                                                                                                  #        LON=LON +LON
000067:                                                                                                  #               0    R
000068:                                                                                                  #  A , A , B  AND B  ARE STORED AS AMOD AND BMOD (SEE DESCRIPTION OF CMOD, ABOVE).  COS(OBL), SIN(OBL)*SIN(IM),
000069:                                                                                                  #   0   1   0      1
000070:                                                                                                  #  SIN(OBL), AND COS(OBL)*SIN(IM) ARE STORED IN KONMAT AS K1, K2, K3 AND K4, RESPECTIVELY.  LOM , LOM , LON , LON
000071:                                                                                                  #  ARE STORED AS LOMO, LOMR, LONO, AND LONR IN RATESP.                                         0     R     0     R
000072:                                                                                                  #  THE THREE PHIS ARE STORED AS AARG, BARG, AND CARG(SUN).  ALL CONSTANTS ARE UPDATED BY YEAR.
000073:
000074:                                                                                                  #  CALLING SEQUENCE


000076:                                                                                                  #        CALL LSPOS.  RETURN IS VIA CPRET.
000077:
000078:                                                                                                  #  ALARMS OR ABORTS
000079:                                                                                                  #        NONE
000080:
000081:                                                                                                  #  ERASABLE INITIALIZATION REQUIRED
000082:                                                                                                  #        TEPHEM - TIME FROM MIDNIGHT 1 JULY PRECEDING THE LAUNCH TO THE TIME OF THE LAUNCH (WHEN THE AGC CLOCK WENT
000083:                                                                                                  #        TO ZERO).  TEPHEM IS TP WITH UNITS OF CENTI-SECONDS.
000084:
000085:                                                                                                  #        TIME2 AND TIME1 ARE IN MPAC AND MPAC +1 WHEN PROGRAM IS CALLED.
000086:
000087:                                                                                                  #  OUTPUT
000088:                                                                                                  #        UNIT POSITIONAL VECTOR OF SUN IN VSUN.  (SCALED B-1)
000089:                                                                                                  #        UNIT POSITIONAL VECTOR OF MOON IN VMOON.  (SCALED B-1)
000090:
000091:                                                                                                  #  SUBROUTINES USED
000092:                                                                                                  #        NONE
000093:
000094:                                                                                                  #  DEBRIS
000095:                                                                                                  #        CURRENT CORE SET, WORK AREA AND FREEFLAG
000096:
000097: 04,3027                                           BANK     04
000098: 15,2000                                           SETLOC   EPHEM
000099: 15,2000                                           BANK
000100:
000101: 15,3664  E5,1714                                  EBANK=   VSUN
000102: 15,3664                                           COUNT*   $$/EPHEM
000103: 15,3664  15,3664               LUNPOS             EQUALS   LSPOS
000104:
000105: 15,3664           54201        LSPOS              SETPD    SR
000106: 15,3665           00001                                    0
000107: 15,3666           20617                                    14D                                   #  TP
000108: 15,3667           56371                           TAD      DDV


000110: 15,3670           01707                                    TEPHEM                                #  TIME OF LAUNCH
000111: 15,3671           12024                                    CSTODAY                               #  24 HOURS-8640000 CENTI-SECS/DAY B-33


000113: 15,3672           00031                           STORE    TIMEP                                 #  T IN DAYS


000115: 15,3673           77170                           AXT,1    AXT,2
000116: 15,3674           00000                                    0
000117: 15,3675           00000                                    0
000118: 15,3676           77614                           CLEAR
000119: 15,3677           00274                                    FREEFLAG                              #  SWITCH BIT
000120: 15,3700           77745        POSITA             DLOAD
000121: 15,3701           12004                                    KONMAT     +2                         #  ZEROS
000122: 15,3702           00027                           STORE    GTMP
000123: 15,3703           40745        POSITB             DLOAD    DMP*
000124: 15,3704           00031                                    TIMEP                                 #  T
000125: 15,3705           12050                                    VAL67      +4,1                       #  1/27 OR 1/32 OR 1/365


000127: 15,3706           42661                           SL       DAD*
000128: 15,3707           20211                                    8D
000129: 15,3710           12046                                    VAL67      +2,1                       #  AARG
000130: 15,3711           40756                           SIN      DMP*                                  #  SIN(T/27+PHI) OR T/32 OR T/365
000131: 15,3712           12044                                    VAL67,1                               #  (A0**2+A1**2)**1/2 SIN(X+PHIA)
000132: 15,3713           62015                           DAD      INCR,1                                #  PLUS
000133: 15,3714           00027                                    GTMP                                  #  (B0**2+B1**2)**1/2 SIN(X+PHIB)
000134: 15,3715           77771                           DEC      -6         B-14
000135: 15,3716           00027                           STORE    GTMP                                  #  OR (C0**2+C1**2)**1/2 SIN(X+PHIC)
000136: 15,3717           77614                           BOFSET
000137: 15,3720           00054                                    FREEFLAG
000138: 15,3721           33703                                    POSITB
000139: 15,3722           40745        POSITD             DLOAD    DMP*
000140: 15,3723           00031                                    TIMEP                                 #  T
000141: 15,3724           65747                                    RATESP,2                              #  LOMR,LOSR,LONR
000142: 15,3725           42661                           SL       DAD*
000143: 15,3726           20206                                    5D
000144: 15,3727           65741                                    RATESP     +6,2                       #  LOMO,LOSO,LONO
000145: 15,3730           77625                           DSU
000146: 15,3731           00027                                    GTMP
000147: 15,3732           10021                           STORE    STMP,2                                #  LOM,LOS,LON
000148: 15,3733           63135                           SLOAD    INCR,2
000149: 15,3734           00050                                    X2
000150: 15,3735           77775                           DEC      -2         B-14
000151: 15,3736           53015                           DAD      BZE
000152: 15,3737           12026                                    RCB-13                                #  PLUS 2
000153: 15,3740           33770                                    POSITE                                #  2ND
000154: 15,3741           77644                           BPL
000155: 15,3742           33700                                    POSITA                                #  1ST
000156: 15,3743           45345        POSITF             DLOAD    DSU                                   #  3RD
000157: 15,3744           00021                                    STMP                                  #  LOM
000158: 15,3745           00025                                    STMP       +4                         #  LON
000159: 15,3746           65356                           SIN      PDDL                                  #  SIN(LOM-LON)
000160: 15,3747           00021                                    STMP
000161: 15,3750           65356                           SIN      PDDL                                  #  SIN LOM
000162: 15,3751           00021                                    STMP
000163: 15,3752           55546                           COS      VDEF                                  #  COS LOM
000164: 15,3753           53521                           MXV      UNIT
000165: 15,3754           12002                                    KONMAT                                #  K1,K2,K3,K4,
000166: 15,3755           02723                           STORE    VMOON
000167: 15,3756           65345                           DLOAD    PDDL
000168: 15,3757           12004                                    KONMAT     +2                         #  ZERO
000169: 15,3760           00023                                    STMP       +2
000170: 15,3761           65356                           SIN      PDDL                                  #  SIN LOS
000171: 15,3762           00023                                    STMP       +2
000172: 15,3763           55546                           COS      VDEF                                  #  COS LOS
000173: 15,3764           53521                           MXV      UNIT
000174: 15,3765           12002                                    KONMAT
000175: 15,3766           02715                           STORE    VSUN
000176: 15,3767           77616                           RVQ


000178: 15,3770           77745        POSITE             DLOAD
000179: 15,3771           12004                                    KONMAT     +2                         #  ZEROS
000180: 15,3772           00027                           STORE    GTMP
000181: 15,3773           77650                           GOTO
000182: 15,3774           33722                                    POSITD
000183: 15,3775           77616        LUNVEL             RVQ                                            #         TO FOOL INTEGRATION
000184: 05,2000                                           SETLOC   EPHEM1
000185: 05,2000                                           BANK
000186:
000187: 05,3506                                           COUNT*   $$/EPHEM
000188: 05,3506                        STMP               EQUALS   16D
000189: 05,3506                        GTMP               EQUALS   22D
000190: 05,3506                        TIMEP              EQUALS   24D
000191:

End of include-file LUNAR_AND_SOLAR_EPHEMERIDES_SUBROUTINES.agc.  Parent file is MAIN.agc


