
Source Code


000002:                                                                                                  ## Copyright:   Public domain.
000003:                                                                                                  ## Filename:    P30,P37.agc
000004:                                                                                                  ## Purpose:     A section of Luminary revision 97.
000005:                                                                                                  ##              It is part of the reconstructed source code for the
000006:                                                                                                  ##              second release of the flight software for the Lunar
000007:                                                                                                  ##              Module's (LM) Apollo Guidance Computer (AGC) for Apollo 11.
000008:                                                                                                  ##              It was created to fix two incorrect ephemeris constants in
000009:                                                                                                  ##              Luminary 96, as described by anomaly report LNY-59.
000010:                                                                                                  ##              The code has been recreated from a copy of Luminary 99
000011:                                                                                                  ##              revision 001, using asterisks indicating changed lines in
000012:                                                                                                  ##              the listing and Luminary Memos #83 and #85, which list
000013:                                                                                                  ##              changes between Luminary 97 and 98, and 98 and 99. The
000014:                                                                                                  ##              code has been adapted such that the resulting bugger words
000015:                                                                                                  ##              exactly match those specified for Luminary 97 in NASA drawing
000016:                                                                                                  ##              2021152D, which gives relatively high confidence that the
000017:                                                                                                  ##              reconstruction is correct.
000018:                                                                                                  ## Reference:   pp. 614-617
000019:                                                                                                  ## Assembler:   yaYUL
000020:                                                                                                  ## Contact:     Ron Burkey <info@sandroid.org>.
000021:                                                                                                  ## Website:     www.ibiblio.org/apollo/index.html
000022:                                                                                                  ## Mod history: 2019-07-28 MAS  Created from Luminary 99.
000023:


000025:                                                                                                  #  PROGRAM DESCRIPTION P30       DATE 3-6-67
000026:
000027:                                                                                                  #  MOD.1 BY RAMA AIYAWAR
000028:
000029:                                                                                                  #  FUNCTIONAL DESCRIPTION
000030:                                                                                                  #        ACCEPT ASTRONAUT INPUTS OF TIG,DELV(LV)
000031:                                                                                                  #        CALL IMU STATUS CHECK ROUTINE (R02)
000032:                                                                                                  #        DISPLAY TIME TO GO, APOGEE, PERIGEE, DELV(MAG), MGA AT IGN
000033:                                                                                                  #        REQUEST BURN PROGRAM
000034:
000035:                                                                                                  #  CALLING SEQUENCE VIA JOB FROM V37
000036:
000037:                                                                                                  #  EXIT VIA V37 CALL OR TO GOTOPOOH (V34E)
000038:
000039:                                                                                                  #  SUBROUTINE CALLS -    FLAGUP, PHASCHNG, BANKCALL, ENDOFJOB, GOFLASH, GOFLASHR
000040:                                                                                                  #                        GOPERF3R, INTPRET, BLANKET, GOTOPOOH, R02BOTH, S30.1,
000041:                                                                                                  #                        TTG/N35, MIDGIM, DISPMGA
000042:
000043:                                                                                                  #  ERASABLE INITIALIZATION - STATE VECTOR
000044:
000045:                                                                                                  #  OUTPUT -      RINIT, VINIT, +MGA, VTIG, RTIG, DELVSIN, DELVSAB, DELVSLV, HAPO,
000046:                                                                                                  #                HPER, TTOGO
000047:
000048:                                                                                                  #  DEBRIS - A, L, MPAC, PUSHLIST
000049:
000050: 32,2776                                           BANK     32
000051: 35,2000                                           SETLOC   P30S
000052: 35,2000                                           BANK
000053: 35,2000  E4,1652                                  EBANK=   +MGA
000054: 35,2000                                           COUNT*   $$/P30
000055: 35,2000           05504        P30                TC       UPFLAG                                #  SET UPDATE FLAG
000056: 35,2001           00027                           ADRES    UPDATFLG
000057: 35,2002           05504                           TC       UPFLAG                                #  SET TRACK FLAG
000058: 35,2003           00031                           ADRES    TRACKFLG
000059:
000060: 35,2004           32025        P30N33             CAF      V06N33                                #  T OF IGN
000061: 35,2005           03712                           TC       VNPOOH                                #  RETURNS ON PROCEED, POOH ON TERMINATE
000062:
000063: 35,2006           33727                           CAF      V06N81                                #  DISPLAY DELTA V (LV)
000064: 35,2007           03712                           TC       VNPOOH                                #        REDISPLAY ON RECYCLE
000065:
000066: 35,2010           05516                           TC       DOWNFLAG                              #  RESET UPDATE FLAG
000067: 35,2011           00027                           ADRES    UPDATFLG
000068: 35,2012           06037                           TC       INTPRET
000069: 35,2013           77624                           CALL
000070: 35,2014           70000                                    S30.1
000071: 35,2015           77414                           SET      EXIT
000072: 35,2016           00470                                    UPDATFLG
000073: 35,2017           32026        PARAM30            CAF      V06N42                                #  DISPLAY APOGEE,PERIGEE,DELTA V
000074: 35,2020           03712                           TC       VNPOOH


000076:
000077: 35,2021           06037                           TC       INTPRET
000078: 35,2022           77614                           SETGO
000079: 35,2023           01027                                    XDELVFLG                              #  FOR P40'S: EXTERNAL DELTA-V GUIDANCE.
000080: 35,2024           72540                                    REVN1645                              #  TRKMKCNT, TGO, +MGA  DISPLAY
000081:
000082: 35,2025           01441        V06N33             VN       0633
000083: 35,2026           01452        V06N42             VN       0642
000084:


000086:                                                                                                  #  PROGRAM DESCRIPTION S30.1     DATE 9NOV66
000087:                                                                                                  #  MOD NO 1                      LOG SECTION P30,P37
000088:                                                                                                  #  MOD BY RAMA AIYAWAR **
000089:
000090:                                                                                                  #  FUNCTIONAL DESCRIPTION
000091:                                                                                                  #        BASED ON STORED TARGET PARAMETERS (R OF IGNITION (RTIG), V OF
000092:                                                                                                  #        IGNITION (VTIG), TIME OF IGNITION (TIG)), COMPUTE PERIGEE ALTITUDE
000093:                                                                                                  #        APOGEE ALTITUDE AND DELTAV REQUIRED (DELVSIN).
000094:
000095:                                                                                                  #  CALLING SEQUENCE
000096:                                                                                                  #        L       CALL
000097:                                                                                                  #        L+1             S30.1
000098:
000099:                                                                                                  #  NORMAL EXIT MODE
000100:                                                                                                  #        AT L+2 OR CALLING SEQUENCE (GOTO L+2)
000101:
000102:                                                                                                  #  SUBROUTINES CALLED
000103:                                                                                                  #        LEMPREC
000104:                                                                                                  #        PERIAPO
000105:
000106:                                                                                                  #  ALARM OR ABORT EXIT MODES
000107:                                                                                                  #        NONE
000108:
000109:                                                                                                  #  ERASABLE INITIALIZATION REQUIRED
000110:                                                                                                  #        TIG             TIME OF IGNITION        DP B28CS
000111:                                                                                                  #        DELVSLV         SPECIFIED DELTA-V IN LOCAL VERT.
000112:                                                                                                  #                        COORDS. OF ACTIVE VEHICLE AT
000113:                                                                                                  #                        TIME OF IGNITION        VECTOR B+7 METERS/CS
000114:
000115:                                                                                                  #  OUTPUT
000116:                                                                                                  #        RTIG            POSITION AT TIG         VECTOR B+29 METERS
000117:                                                                                                  #        VTIG            VELOCITY AT TIG         VECTOR B+29 METERS/CS
000118:                                                                                                  #        PDL 4D          APOGEE ALTITUDE         DP B+29 M, B+27 METERS.
000119:                                                                                                  #        HAPO            APOGEE ALTITUDE         DP B+29 METERS
000120:                                                                                                  #        PDL 8D          PERIGEE ALTITUDE        DP B+29 M, B+27 METERS.
000121:                                                                                                  #        HPER            PERIGEE ALTITUDE        DP B+29 METERS
000122:                                                                                                  #        DELVSIN         SPECIFIED DELTA-V IN INERTIAL
000123:                                                                                                  #                        COORD. OF ACTIVE VEHICLE AT
000124:                                                                                                  #                        TIME OF IGNITION        VECTOR B+7 METERS/CS
000125:                                                                                                  #        DELVSAB         MAG. OF DELVSIN         VECTOR B+7 METERS/CS
000126:
000127:                                                                                                  #  DEBRIS        QTEMP   TEMP.ERASABLE
000128:                                                                                                  #                QPRET, MPAC
000129:                                                                                                  #                PUSHLIST
000130:
000131: 34,2000                                           SETLOC   P30S1
000132: 34,2000                                           BANK
000133:
000134: 34,2000                                           COUNT*   $$/S30S
000135:
000136: 34,2000           71220        S30.1              STQ      DLOAD
000137: 34,2001           03632                                    QTEMP
000138: 34,2002           03442                                    TIG                                   #  TIME IGNITION SCALED AT 2(+28)CS
000139: 34,2003           34041                           STCALL   TDEC1
000140: 34,2004           27057                                    LEMPREC                               #  ENCKE ROUTINE FOR LEM
000141:
000142: 34,2005           67175                           VLOAD    SXA,2


000144: 34,2006           00001                                    RATT
000145: 34,2007           02777                                    RTX2
000146: 34,2010           03642                           STORE    RTIG                                  #  RADIUS VECTOR AT IGNITION TIME
000147: 34,2011           57456                           UNIT     VCOMP
000148: 34,2012           27656                           STOVL    DELVSIN                               #  ZRF/LV IN DELVSIN SCALED AT 2
000149: 34,2013           00007                                    VATT                                  #  VELOCITY VECTOR AT TIG, SCALED 2(7) M/CS
000150: 34,2014           03650                           STORE    VTIG
000151: 34,2015           53435                           VXV      UNIT
000152: 34,2016           03642                                    RTIG
000153: 34,2017           66001                           SETPD    SXA,1
000154: 34,2020           00001                                    0
000155: 34,2021           02776                                    RTX1
000156: 34,2022           47206                           PUSH     VXV                                   #  YRF/LV PDL 0 SCALED AT 2
000157: 34,2023           03656                                    DELVSIN
000158: 34,2024           63372                           VSL1     PDVL
000159: 34,2025           63315                           PDVL     PDVL                                  #  YRF/LV PDL 6 SCALED AT 2
000160: 34,2026           03656                                    DELVSIN                               #  ZRF/LV PDL 12D SCALED AT 2
000161: 34,2027           03434                                    DELVSLV
000162: 34,2030           76505                           VXM      VSL1
000163: 34,2031           00001                                    0
000164: 34,2032           03656                           STORE    DELVSIN                               #  DELTAV IN INERT. COOR. SCALED TO B+7M/CS
000165: 34,2033           77646                           ABVAL
000166: 34,2034           27664                           STOVL    DELVSAB                               #  DELTA V MAG.
000167: 34,2035           03642                                    RTIG                                  #  (FOR PERIAPO)
000168: 34,2036           53315                           PDVL     VAD                                   #  VREQUIRED = VTIG + DELVSIN (FOR PERIAPO)
000169: 34,2037           03650                                    VTIG
000170: 34,2040           03656                                    DELVSIN
000171: 34,2041           77624                           CALL
000172: 34,2042           46316                                    PERIAPO1
000173: 34,2043           77624                           CALL
000174: 34,2044           46426                                    SHIFTR1                               #  RESCALE IF NEEDED
000175: 34,2045           77624                           CALL                                           #  LIMIT DISPLAY TO 9999.9 N. MI.
000176: 34,2046           45636                                    MAXCHK
000177: 34,2047           16321                           STODL    HPER                                  #  PERIGEE ALT 2(29) METERS, FOR DISPLAY
000178: 34,2050           00005                                    4D
000179: 34,2051           77624                           CALL
000180: 34,2052           46426                                    SHIFTR1                               #  RESCALE IF NEEDED
000181: 34,2053           77624                           CALL                                           #  LIMIT DISPLAY TO 9999.9 N. MI.
000182: 34,2054           45636                                    MAXCHK
000183: 34,2055           36317                           STCALL   HAPO                                  #  APOGEE ALT 2(29) METERS, FOR DISPLAY
000184: 34,2056           03632                                    QTEMP
000185:
000186:

End of include-file P30,P37.agc.  Parent file is MAIN.agc


