
Source Code


000002:                                                                                                  ## Copyright:   Public domain.
000003:                                                                                                  ## Filename:    P34-P35,_P74-P75.agc
000004:                                                                                                  ## Purpose:     A section of Luminary revision 97.
000005:                                                                                                  ##              It is part of the reconstructed source code for the
000006:                                                                                                  ##              original release of the flight software for the Lunar
000007:                                                                                                  ##              Module's (LM) Apollo Guidance Computer (AGC) for Apollo 11.
000008:                                                                                                  ##              The code has been recreated from a copy of Luminary 99
000009:                                                                                                  ##              revision 001, using asterisks indicating changed lines in
000010:                                                                                                  ##              the listing and Luminary Memos #83 and #85, which list
000011:                                                                                                  ##              changes between Luminary 97 and 98, and 98 and 99. The
000012:                                                                                                  ##              code has been adapted such that the resulting bugger words
000013:                                                                                                  ##              exactly match those specified for Luminary 97 in NASA drawing
000014:                                                                                                  ##              2021152D, which gives relatively high confidence that the
000015:                                                                                                  ##              reconstruction is correct.
000016:                                                                                                  ## Reference:   pp. 658-702
000017:                                                                                                  ## Assembler:   yaYUL
000018:                                                                                                  ## Contact:     Ron Burkey <info@sandroid.org>.
000019:                                                                                                  ## Website:     www.ibiblio.org/apollo/index.html
000020:                                                                                                  ## Mod history: 2019-07-28 MAS  Created from Luminary 99. Replaced the call
000021:                                                                                                  ##                              to SETITCTR with LAMBERT to undo the fix
000022:                                                                                                  ##                              for anomaly 65 made in Luminary 98.
000023:


000025:                                                                                                  #  TRANSFER PHASE INITIATION (TPI) PROGRAMS (P34 AND P74)
000026:
000027:                                                                                                  #  MOD NO -1                     LOG SECTION - P32-P35, P72-P75
000028:                                                                                                  #  MOD BY WHITE.P                DATE  1JUNE67
000029:
000030:                                                                                                  #  PURPOSE
000031:
000032:                                                                                                  #        (1)     TO CALCULATE THE REQUIRED DELTA V AND OTHER INITIAL CONDITIONS
000033:                                                                                                  #                REQUIRED BY THE ACTIVE VEHICLE FOR EXECUTION OF THE TRANSFER
000034:                                                                                                  #                PHASE INITIATION (TPI) MANEUVER, GIVEN -
000035:
000036:                                                                                                  #                (A)     TIME OF IGNITION TIG (TPI) OR THE ELEVATION ANGLE (E) OF
000037:                                                                                                  #                        THE ACTIVE/PASSIVE VEHICLE LOS AT TIG (TPI).
000038:
000039:                                                                                                  #                (B)     CENTRAL ANGLE OF TRANSFER (CENTANG) FROM TIG (TPI) TO
000040:                                                                                                  #                        INTERCEPT TIME (TIG (TPF)).
000041:
000042:                                                                                                  #        (2)     TO CALCULATE TIG (TPI) GIVEN E OR E GIVEN TIG (TPI).
000043:
000044:                                                                                                  #        (3)     TO CALCULATE THESE PARAMETERS BASED UPON MANEUVER DATA
000045:                                                                                                  #                APPROVED AND KEYED INTO THE DSKY BY THE ASTRONAUT.
000046:
000047:                                                                                                  #        (4)     TO DISPLAY TO THE ASTRONAUT AND THE GROUND CERTAIN DEPENDENT
000048:                                                                                                  #                VARIABLES ASSOCIATED WITH THE MANEUVER FOR APPROVAL BY THE
000049:                                                                                                  #                ASTRONAUT/GROUND.
000050:
000051:                                                                                                  #        (5)     TO STORE THE TPI TARGET PARAMETERS FOR USE BY THE DESIRED
000052:                                                                                                  #                THRUSTING PROGRAM.
000053:
000054:                                                                                                  #  ASSUMPTIONS
000055:
000056:                                                                                                  #        (1)     LM ONLY - THIS PROGRAM IS BASED UPON PREVIOUS COMPLETION OF
000057:                                                                                                  #                THE CONSTANT DELTA ALTITUDE (CDH) PROGRAM (P33/P73).
000058:                                                                                                  #                THEREFORE -
000059:
000060:                                                                                                  #                (A)     AT A SELECTED TPI TIME (NOW IN STORAGE) THE LINE OF SIGHT
000061:                                                                                                  #                        BETWEEN THE ACTIVE AND PASSIVE VEHICLES WAS SELECTED TO BE
000062:                                                                                                  #                        A PRESCRIBED ANGLE (E) (NOW IN STORAGE) FROM THE
000063:                                                                                                  #                        HORIZONTAL PLANE DEFINED BY THE ACTIVE VEHICLE POSITION.
000064:
000065:                                                                                                  #                (B)     THE TIME BETWEEN CDH IGNITION AND TPI IGNITION WAS
000066:                                                                                                  #                        COMPUTED TO BE GREATER THAN 10 MINUTES.
000067:
000068:                                                                                                  #                (C)     THE VARIATION OF THE ALTITUDE DIFFERENCE BETWEEN THE
000069:                                                                                                  #                        ORBITS WAS MINIMIZED.
000070:
000071:                                                                                                  #                (D)     THE PERICENTER ALTITUDES OF ORBITS FOLLOWING CSI AND
000072:                                                                                                  #                        CDH WERE COMPUTED TO BE GREATER THAN 35,000 FT FOR LUNAR


000074:                                                                                                  #                        ORBIT OR 85 NM FOR EARTH ORBIT.
000075:
000076:                                                                                                  #                (E)     THE CSI AND CDH MANEUVERS WERE ASSUMED TO BE PARALLEL TO
000077:                                                                                                  #                        THE PLANE OF THE PASSIVE VEHICLE ORBIT.  HOWEVER, CREW
000078:                                                                                                  #                        MODIFICATION OF DELTA V (LV) COMPONENTS MAY HAVE RESULTED
000079:                                                                                                  #                        IN AN OUT-OF-PLANE MANEUVER.
000080:
000081:                                                                                                  #        (2)     STATE VECTOR UPDATED BY P27 ARE DISALLOWED DURING AUTOMATIC
000082:                                                                                                  #                STATE VECTOR UPDATING INITIATED BY P20 (SEE ASSUMPTION (4)).
000083:
000084:                                                                                                  #        (3)     THIS PROGRAM MUST BE DONE OVER A TRACKING STATION FOR REAL
000085:                                                                                                  #                TIME GROUND PARTICIPATION IN DATA INPUT AND OUTPUT.  COMPUTED
000086:                                                                                                  #                VARIABLES MAY BE STORED FOR LATER VERIFICATION BY THE GROUND.
000087:                                                                                                  #                THESE STORAGE CAPABILITIES ARE LIMITED ONLY TO THE PARAMETERS
000088:                                                                                                  #                FOR ONE THRUSTING MANEUVER AT A TIME EXCEPT FOR CONCENTRIC
000089:                                                                                                  #                FLIGHT PLAN MANEUVER SEQUENCES.
000090:
000091:                                                                                                  #        (4)     THE RENDEZVOUS RADAR MAY OR MAY NOT BE USED TO UPDATE THE LM
000092:                                                                                                  #                OR CSM STATE VECTORS FOR THIS PROGRAM.  IF RADAR USE IS
000093:                                                                                                  #                DESIRED THE RADAR WAS TURNED ON AND LOCKED ON THE CSM BY
000094:                                                                                                  #                PREVIOUS SELECTION OF P20.  RADAR SIGHTING MARKS WILL BE MADE
000095:                                                                                                  #                AUTOMATICALLY APPROXIMATELY ONCE A MINUTE WHEN ENABLED BY THE
000096:                                                                                                  #                TRACK AND UPDATE FLAGS (SEE P20).  THE RENDEZVOUS TRACKING
000097:                                                                                                  #                MARK COUNTER IS ZEROED BY THE SELECTION OF P20 AND AFTER EACH
000098:                                                                                                  #                THRUSTING MANEUVER.
000099:
000100:                                                                                                  #        (5)     THE ISS NEED NOT BE ON TO COMPLETE THIS PROGRAM.
000101:
000102:                                                                                                  #        (6)     THE OPERATION OF THE PROGRAM UTILIZES THE FOLLOWING FLAGS -
000103:
000104:                                                                                                  #                        ACTIVE VEHICLE FLAG - DESIGNATES THE VEHICLE WHICH IS
000105:                                                                                                  #                        DOING RENDEZVOUS THRUSTING MANEUVERS TO THE PROGRAM WHICH
000106:                                                                                                  #                        CALCULATES THE MANEUVER PARAMETERS.  SET AT THE START OF
000107:                                                                                                  #                        EACH RENDEZVOUS PRE-THRUSTING PROGRAM.
000108:
000109:                                                                                                  #                        FINAL FLAG - SELECTS FINAL PROGRAM DISPLAYS AFTER CREW HAS
000110:                                                                                                  #                        SELECTED THE FINAL MANEUVER COMPUTATION CYCLE.
000111:
000112:                                                                                                  #                        EXTERNAL DELTA V FLAG - DESIGNATES THE TYPE OF STEERING
000113:                                                                                                  #                        REQUIRED FOR EXECUTION OF THIS MANEUVER BY THE THRUSTING
000114:                                                                                                  #                        PROGRAM SELECTED AFTER COMPLETION OF THIS PROGRAM.
000115:
000116:                                                                                                  #        (7)     ONCE THE PARAMETWRS REQUIRED FOR COMPUTION OF THE MANEUVER
000117:                                                                                                  #                HAVE BEEN COMPLETELY SPECIFIED, THE VALUE OF THE ACTIVE
000118:                                                                                                  #                VEHICLE CENTRAL ANGLE OF TRANSFER IS COMPUTED AND STORED.
000119:                                                                                                  #                THIS NUMBER WILL BE AVAILABLE FOR DISPLAY TO THE ASTRONAUT
000120:                                                                                                  #                THROUGH THE USE OF V06N52.
000121:
000122:                                                                                                  #                THE ASTRONAUT WILL CALL THIS DISPLAY TO VERIFY THAT THE
000123:                                                                                                  #                CENTRAL ANGLE OF TRANSFER OF THE ACTIVE VEHICLE IS NOT WITHIN


000125:                                                                                                  #                170 TO 190 DEGREES.  IF THE ANGLE IS WITHIN THIS ZONE THE
000126:                                                                                                  #                ASTRONAUT SHOULD REASSESS THE INPUT TARGETING PARAMETERS BASED
000127:                                                                                                  #                UPON DELTA V AND EXPECTED MANEUVER TIME.
000128:
000129:                                                                                                  #        (8)     THIS PROGRAM IS SELECTED BY THE ASTRONAUT BY DSKY ENTRY -
000130:
000131:                                                                                                  #                        P34 IF THIS VEHICLE IS ACTIVE VEHICLE.
000132:
000133:                                                                                                  #                        P74 IF THIS VEHICLE IS PASSIVE VEHICLE.
000134:
000135:                                                                                                  #  INPUT
000136:
000137:                                                                                                  #        (1)     TTPI    TIME OF THE TPI MANEUVER
000138:                                                                                                  #        (2)     ELEV    DESIRED LOS ANGLE AT TPI
000139:                                                                                                  #        (3)     CENTANG ORBITAL CENTRAL ANGLE OF THE PASSIVE VEHICLE DURING
000140:                                                                                                  #                        TRANSFER FROM TPI TO TIME OF INTERCEPT
000141:
000142:                                                                                                  #  OUTPUT
000143:
000144:                                                                                                  #        (1)     TRKMKCNT        NUMBER OF MARKS
000145:                                                                                                  #        (2)     TTOGO           TIME TO GO
000146:                                                                                                  #        (3)     +MGA            MIDDLE GIMBAL ANGLE
000147:                                                                                                  #        (4)     TTPI            COMPUTED TIME OF TPI MANEUVER
000148:                                                                                                  #                 OR
000149:                                                                                                  #                ELEV            COMPUTED LOS ANGLE AT TPI
000150:                                                                                                  #        (5)     POSTTPI         PERIGEE ALTITUDE AFTER THE TPI MANEUVER
000151:                                                                                                  #        (6)     DELVTPI         MAGNITUDE OF DELTA V AT TPI
000152:                                                                                                  #        (7)     DELVTPF         MAGNITUDE OF DELTA V AT INTERCEPT
000153:                                                                                                  #        (8)     DVLOS           DELTA VELOCITY AT TPI - LINE OF SIGHT
000154:                                                                                                  #        (9)     DELVLVC         DELTA VELOCITY AT TPI - LOCAL VERTICAL COORDINATES
000155:
000156:                                                                                                  #  DOWNLINK
000157:
000158:                                                                                                  #        (1)     TTPI            TIME OF THE TPI MANEUVER
000159:                                                                                                  #        (2)     TIG             TIME OF THE TPI MANEUVER
000160:                                                                                                  #        (3)     ELEV            DESIRED LOS ANGLE AT TPI
000161:                                                                                                  #        (4)     CENTANG         ORBITAL CENTRAL ANGLE OF THE PASSIVE VEHICLE DURING
000162:                                                                                                  #                                TRANSFER FROM TPI TO TIME OF INTERCEPT
000163:                                                                                                  #        (5)     DELVEET3        DELTA VELOCITY AT TPI - REFERENCE COORDINATES
000164:                                                                                                  #        (6)     TPASS4          TIME OF INTERCEPT
000165:
000166:                                                                                                  #  COMMUNICATION TO THRUSTING PROGRAMS
000167:
000168:                                                                                                  #        (1)     TIG             TIME OF THE TPI MANEUVER
000169:                                                                                                  #        (2)     RTARG           OFFSET TARGET POSITION
000170:                                                                                                  #        (3)     TPASS4          TIME OF INTERCEPT
000171:                                                                                                  #        (4)     XDELVFLG        RESET TO INDICATE LAMBERT (AIMPOINT) VG COMPUTATION
000172:
000173:                                                                                                  #  SUBROUTINES USED
000174:
000175:                                                                                                  #        AVFLAGA


000177:                                                                                                  #        AVFLAGP
000178:                                                                                                  #        VNPOOH
000179:                                                                                                  #        DISPLAYE
000180:                                                                                                  #        SELECTMU
000181:                                                                                                  #        PRECSET
000182:                                                                                                  #        S33/34.1
000183:                                                                                                  #        ALARM
000184:                                                                                                  #        BANKCALL
000185:                                                                                                  #        GOFLASH
000186:                                                                                                  #        GOTOPOOH
000187:                                                                                                  #        TIMETHET
000188:                                                                                                  #        S34/35.2
000189:                                                                                                  #        PERIAPO1
000190:                                                                                                  #        SHIFTR1
000191:                                                                                                  #        S34/35.5
000192:                                                                                                  #        VN1645
000193:
000194: 35,2000                                           SETLOC   CSI/CDH
000195: 35,2000                                           BANK
000196: 35,2545  E7,1470                                  EBANK=   SUBEXIT
000197: 35,2545                                           COUNT*   $$/P3474
000198: 35,2545           02347        P34                TC       AVFLAGA
000199: 35,2546           02550                           TC       P34/P74A
000200: 35,2547           02354        P74                TC       AVFLAGP
000201: 35,2550           02361        P34/P74A           TC       P20FLGON                              #  SET UPDATFLG, TRACKFLG
000202: 35,2551           33723                           CAF      V06N37                                #  TTPI
000203: 35,2552           03712                           TC       VNPOOH
000204: 35,2553           00006                           EXTEND
000205: 35,2554           33746                           DCA      130DEG
000206: 35,2555           53621                           DXCH     CENTANG
000207: 35,2556           32417                           CAF      P30ZERO
000208: 35,2557           55466                           TS       NN
000209: 35,2560           03674                           TC       DISPLAYE                              #  ELEV AND CENTANG
000210: 35,2561           06037                           TC       INTPRET
000211: 35,2562           71214                           CLEAR    DLOAD
000212: 35,2563           01270                                    ETPIFLAG
000213: 35,2564           03636                                    TTPI
000214: 35,2565           17442                           STODL    TIG
000215: 35,2566           02257                                    ELEV
000216: 35,2567           43054                           BZE      SET
000217: 35,2570           72572                                    P34/P74B
000218: 35,2571           01070                                    ETPIFLAG
000219: 35,2572           77624        P34/P74B           CALL
000220: 35,2573           20000                                    SELECTMU
000221: 35,2574                        DELELO             EQUALS   26D
000222: 35,2574           43145        P34/P74C           DLOAD    SET
000223: 35,2575           06522                                    ZEROVECS
000224: 35,2576           03460                                    ITSWICH
000225: 35,2577           43014                           BON      CLEAR
000226: 35,2600           01310                                    ETPIFLAG


000228: 35,2601           72603                                    SWCHSET
000229: 35,2602           03660                                    ITSWICH
000230: 35,2603           02317        SWCHSET            STORE    NOMTPI
000231: 35,2604           43345        INTLOOP            DLOAD    DAD
000232: 35,2605           03636                                    TTPI
000233: 35,2606           02317                                    NOMTPI
000234: 35,2607           34041                           STCALL   TDEC1
000235: 35,2610           46360                                    PRECSET
000236: 35,2611           77624                           CALL
000237: 35,2612           72764                                    S33/34.1
000238: 35,2613           77454                           BZE      EXIT
000239: 35,2614           72625                                    SWCHCLR
000240: 35,2615           05567                           TC       ALARM
000241: 35,2616           00611                           OCT      611
000242: 35,2617           35006                           CAF      V05N09
000243: 35,2620           04616                           TC       BANKCALL
000244: 35,2621           20476                           CADR     GOFLASH
000245: 35,2622           06001                           TC       GOTOPOOH
000246: 35,2623           02550                           TC       P34/P74A                              #  PROCEED
000247: 35,2624           02615                           TC       -7                                    #  V32
000248:
000249: 35,2625           43014        SWCHCLR            BONCLR   BON
000250: 35,2626           03600                                    ITSWICH
000251: 35,2627           72604                                    INTLOOP
000252: 35,2630           01310                                    ETPIFLAG
000253: 35,2631           72635                                    P34/P74D                              #  DISPLAY TTPI
000254: 35,2632           77776                           EXIT
000255: 35,2633           03674                           TC       DISPLAYE                              #  DISPLAY ELEV AND CENTANG
000256: 35,2634           02640                           TC       P34/P74E
000257: 35,2635           77776        P34/P74D           EXIT
000258: 35,2636           33723                           CAF      V06N37                                #  TTPI
000259: 35,2637           03712                           TC       VNPOOH
000260: 35,2640           06037        P34/P74E           TC       INTPRET
000261: 35,2641           71201                           SETPD    DLOAD
000262: 35,2642           00001                                    0D
000263: 35,2643           02777                                    RTX1
000264: 35,2644           14047                           STODL    X1
000265: 35,2645           03621                                    CENTANG
000266: 35,2646           71406                           PUSH     COS
000267: 35,2647           16732                           STODL    CSTH
000268: 35,2650           77756                           SIN
000269: 35,2651           26730                           STOVL    SNTH
000270: 35,2652           03552                                    RPASS3
000271: 35,2653           77657                           VSR*
000272: 35,2654           57176                                    0,2
000273: 35,2655           26655                           STOVL    RVEC
000274: 35,2656           03560                                    VPASS3
000275: 35,2657           43057                           VSR*     SET
000276: 35,2660           57176                                    0,2
000277: 35,2661           03466                                    RVSW


000279: 35,2662           36744                           STCALL   VVEC
000280: 35,2663           24732                                    TIMETHET
000281: 35,2664           77745                           DLOAD
000282: 35,2665           03636                                    TTPI
000283: 35,2666           03610                           STORE    INTIME                                #  FOR INITVEL
000284: 35,2667           77615                           DAD
000285: 35,2670           00037                                    T                                     #  RENDEZVOUS TIME
000286: 35,2671           37631                           STCALL   TPASS4                                #  FOR INITVEL
000287: 35,2672           73306                                    S34/35.2
000288: 35,2673           51575                           VLOAD    ABVAL
000289: 35,2674           02366                                    DELVEET3
000290: 35,2675           27576                           STOVL    DELVTPI
000291: 35,2676           03506                                    VPASS4
000292: 35,2677           51451                           VSU      ABVAL
000293: 35,2700           03566                                    VTPRIME
000294: 35,2701           26350                           STOVL    DELVTPF
000295: 35,2702           03536                                    RACT3
000296: 35,2703           45115                           PDVL     CALL
000297: 35,2704           02337                                    VIPRIME
000298: 35,2705           46316                                    PERIAPO1
000299: 35,2706           77624                           CALL
000300: 35,2707           46426                                    SHIFTR1
000301: 35,2710           17606                           STODL    POSTTPI
000302: 35,2711           03636                                    TTPI
000303: 35,2712           03442                           STORE    TIG
000304: 35,2713           77776                           EXIT
000305: 35,2714           33725                           CAF      V06N58
000306: 35,2715           03712                           TC       VNPOOH
000307: 35,2716           06037                           TC       INTPRET
000308: 35,2717           77624                           CALL
000309: 35,2720           73522                                    S34/35.5
000310: 35,2721           77624                           CALL
000311: 35,2722           73606                                    VN1645
000312: 35,2723           77650                           GOTO
000313: 35,2724           72574                                    P34/P74C


000315:                                                                                                  #  RENDEZVOUS MID-COURSE MANEUVER PROGRAMS (P35 AND P75)
000316:
000317:                                                                                                  #  MOD NO -1                     LOG SECTION - P32-P35, P72-P75
000318:                                                                                                  #  MOD BY WHITE.P                DATE  1JUNE67
000319:
000320:                                                                                                  #  PURPOSE
000321:
000322:                                                                                                  #        (1)     TO CALCULATE THE REQUIRED DELTA V AND OTHER INITIAL CONDITIONS
000323:                                                                                                  #                REQUIRED BY THE ACTIVE VEHICLE FOR EXECUTION OF THE NEXT
000324:                                                                                                  #                MIDCOURSE CORRECTION OF THE TRANSFER PHASE OF AN ACTIVE
000325:                                                                                                  #                VEHICLE RENDEZVOUS.
000326:
000327:                                                                                                  #        (2)     TO DISPLAY TO THE ASTRONAUT AND THE GROUND CERTAIN DEPENDENT
000328:                                                                                                  #                VARIABLES ASSOCIATED WITH THE MANEUVER FOR APPROVAL BY THE
000329:                                                                                                  #                ASTRONAUT/GROUND.
000330:
000331:                                                                                                  #        (3)     TO STORE THE TPM TARGET PARAMETERS FOR USE BY THE DESIRED
000332:                                                                                                  #                THRUSTING PROGRAM.
000333:
000334:                                                                                                  #  ASSUMPTIONS
000335:
000336:                                                                                                  #        (1)     THE ISS NEED NOT BE ON TO COMPLETE THIS PROGRAM.
000337:
000338:                                                                                                  #        (2)     STATE VECTOR UPDATES BY P27 ARE DISALLOWED DURING AUTOMATIC
000339:                                                                                                  #                STATE VECTOR UPDATING INITIATED BY P20 (SEE ASSUMPTION (3)).
000340:
000341:                                                                                                  #        (3)     THE RENDEZVOUS RADAR IS ON AND IS LOCKED ON THE CSM.  THIS WAS
000342:                                                                                                  #                DONE DURING PREVIOUS SELECTION OF P20.  RADAR SIGHTING MARKS
000343:                                                                                                  #                WILL BE MADE AUTOMATICALLY APPROXIMATELY ONCE A MINUTE WHEN
000344:                                                                                                  #                ENABLED BY THE TRACK AND UPDATE FLAGS (SEE P20).  THE
000345:                                                                                                  #                RENDEZVOUS TRACKING MARK COUNTER IS ZEROED BY THE SELECTION OF
000346:                                                                                                  #                P20 AND AFTER EACH THRUSTING MANEUVER.
000347:
000348:                                                                                                  #        (4)     THE OPERATION OF THE PROGRAM UTILIZES THE FOLLOWING FLAGS -
000349:
000350:                                                                                                  #                        ACTIVE VEHICLE FLAG - DESIGNATES THE VEHICLE WHICH IS
000351:                                                                                                  #                        DOING RENDEZVOUS THRUSTING MANEUVERS TO THE PROGRAM WHICH
000352:                                                                                                  #                        CALCULATES THE MANEUVER PARAMETERS.  SET AT THE START OF
000353:                                                                                                  #                        EACH RENDEZVOUS PRE-THRUSTING PROGRAM.
000354:
000355:                                                                                                  #                        FINAL FLAG - SELECTS FINAL PROGRAM DISPLAYS AFTER CREW HAS
000356:                                                                                                  #                        SELECTED THE FINAL MANEUVER COMPUTATION CYCLE.
000357:
000358:                                                                                                  #                        EXTERNAL DELTA V FLAG - DESIGNATES THE TYPE OF STEERING
000359:                                                                                                  #                        REQUIRED FOR EXECUTION OF THIS MANEUVER BY THE THRUSTING
000360:                                                                                                  #                        PROGRAM SELECTED AFTER COMPLETION OF THIS PROGRAM.
000361:
000362:                                                                                                  #        (5)     THE TIME OF INTERCEPT (T(INT)) WAS DEFINED BY PREVIOUS
000363:                                                                                                  #                COMPLETION OF THE TRANSFER PHASE INITIATION (TPI) PROGRAM
000364:                                                                                                  #                (P34/P74) AND IS PRESENTLY AVAILABLE IN STORAGE.
000365:


000367:                                                                                                  #        (6)     ONCE THE PARAMETERS REQUIRED FOR COMPUTION OF THE MANEUVER
000368:                                                                                                  #                HAVE BEEN COMPLETELY SPECIFIED, THE VALUE OF THE ACTIVE
000369:                                                                                                  #                VEHICLE CENTRAL ANGLE OF TRANSFER IS COMPUTED AND STORED.
000370:                                                                                                  #                THIS NUMBER WILL BE AVAILABLE FOR DISPLAY TO THE ASTRONAUT
000371:                                                                                                  #                THROUGH THE USE OF V06N52.
000372:
000373:                                                                                                  #                THE ASTRONAUT WILL CALL THIS DISPLAY TO VERIFY THAT THE
000374:                                                                                                  #                CENTRAL ANGLE OF TRANSFER OF THE ACTIVE VEHICLE IS NOT WITHIN
000375:                                                                                                  #                170 TO 190 DEGREES.  IF THE ANGLE IS WITHIN THIS ZONE THE
000376:                                                                                                  #                ASTRONAUT SHOULD REASSESS THE INPUT TARGETING PARAMETERS BASED
000377:                                                                                                  #                UPON DELTA V AND EXPECTED MANEUVER TIME.
000378:
000379:                                                                                                  #        (7)     THIS PROGRAM IS SELECTED BY THE ASTRONAUT BY DSKY ENTRY -
000380:
000381:                                                                                                  #                        P35 IF THIS VEHICLE IS ACTIVE VEHICLE.
000382:
000383:                                                                                                  #                        P75 IF THIS VEHICLE IS PASSIVE VEHICLE.
000384:
000385:                                                                                                  #  INPUT
000386:
000387:                                                                                                  #        (1)     TPASS4          TIME OF INTERCEPT - SAVED FROM P34/P74
000388:
000389:                                                                                                  #  OUTPUT
000390:
000391:                                                                                                  #        (1)     TRKMKCNT        NUMBER OF MARKS
000392:                                                                                                  #        (2)     TTOGO           TIME TO GO
000393:                                                                                                  #        (3)     +MGA            MIDDLE GIMBAL ANGLE
000394:                                                                                                  #        (4)     DVLOS           DELTA VELOCITY AT MID - LINE OF SIGHT
000395:                                                                                                  #        (5)     DELVLVC         DELTA VELOCITY AT MID - LOCAL VERTICAL COORDINATES
000396:
000397:                                                                                                  #  DOWNLINK
000398:
000399:                                                                                                  #        (1)     TIG             TIME OF THE TPM MANEUVER
000400:                                                                                                  #        (2)     DELVEET3        DELTA VELOCITY AT TPM - REFERENCE COORDINATES
000401:                                                                                                  #        (3)     TPASS4          TIME OF INTERCEPT
000402:
000403:                                                                                                  #  COMMUNICATION TO THRUSTING PROGRAMS
000404:
000405:                                                                                                  #        (1)     TIG             TIME OF THE TPM MANEUVER
000406:                                                                                                  #        (2)     RTARG           OFFSET TARGET POSITION
000407:                                                                                                  #        (3)     TPASS4          TIME OF INTERCEPT
000408:                                                                                                  #        (4)     XDELVFLG        RESET TO INDICATE LAMBERT (AIMPOINT) VG COMPUTATION
000409:
000410:                                                                                                  #  SUBROUTINES USED
000411:
000412:                                                                                                  #        AVFLAGA
000413:                                                                                                  #        AVFLAGP
000414:                                                                                                  #        LOADTIME
000415:                                                                                                  #        SELECTMU
000416:                                                                                                  #        PRECSET
000417:                                                                                                  #        S34/35.1
000418:                                                                                                  #        S34/35.2


000420:                                                                                                  #        S34/35.5
000421:                                                                                                  #        VN1645
000422:
000423: 35,2725                                           COUNT*   $$/P3575
000424: 35,2725  E7,1575                                  EBANK=   KT
000425:
000426: 35,2725           02347        P35                TC       AVFLAGA
000427: 35,2726           00006                           EXTEND
000428: 35,2727           31401                           DCA      ATIGINC
000429: 35,2730           02734                           TC       P35/P75A
000430: 35,2731           02354        P75                TC       AVFLAGP
000431: 35,2732           00006                           EXTEND
000432: 35,2733           31403                           DCA      PTIGINC
000433: 35,2734           53576        P35/P75A           DXCH     KT
000434: 35,2735           02361                           TC       P20FLGON                              #  SET UPDATFLG, TRACKFLG
000435: 35,2736           06037                           TC       INTPRET
000436: 35,2737           77624                           CALL
000437: 35,2740           20000                                    SELECTMU
000438: 35,2741           77634        P35/P75B           RTB
000439: 35,2742           21573                                    LOADTIME
000440: 35,2743           03612                           STORE    TSTRT
000441: 35,2744           77615                           DAD
000442: 35,2745           03576                                    KT
000443: 35,2746           03442                           STORE    TIG
000444: 35,2747           03610                           STORE    INTIME                                #  FOR INITVEL
000445: 35,2750           34041                           STCALL   TDEC1
000446: 35,2751           46360                                    PRECSET                               #  ADVANCE BOTH VEHICLES
000447: 35,2752           77624                           CALL
000448: 35,2753           73274                                    S34/35.1                              #  GET NORM AND LOS FOR TRANSFORM
000449: 35,2754           77624                           CALL
000450: 35,2755           73306                                    S34/35.2                              #  GET DELTA V(LV)
000451: 35,2756           77624                           CALL
000452: 35,2757           73522                                    S34/35.5
000453: 35,2760           77624                           CALL
000454: 35,2761           73606                                    VN1645
000455: 35,2762           77650                           GOTO
000456: 35,2763           72741                                    P35/P75B


000458:                                                                                                  #  ..... S33/34.1 .....
000459:
000460: 35,2764           66220        S33/34.1           STQ      SSP
000461: 35,2765           03463                                    NORMEX
000462: 35,2766           03614                                    TITER
000463: 35,2767           40000                           OCT      40000
000464: 35,2770           40345                           DLOAD    SETPD
000465: 35,2771           33734                                    MAX250
000466: 35,2772           00001                                    0D
000467: 35,2773           27574                           STOVL    SECMAX
000468: 35,2774           03536                                    RACT3
000469: 35,2775           27500                           STOVL    RAPREC
000470: 35,2776           03544                                    VACT3
000471: 35,2777           27506                           STOVL    VAPREC
000472: 35,3000           03552                                    RPASS3
000473: 35,3001           27522                           STOVL    RPPREC
000474: 35,3002           03560                                    VPASS3
000475: 35,3003           03530                           STORE    VPPREC
000476: 35,3004           77624        ELCALC             CALL
000477: 35,3005           73274                                    S34/35.1                              #  NORMAL AND LOS
000478: 35,3006           63235                           VXV      PDVL
000479: 35,3007           03536                                    RACT3                                 #  (RA*VA)*RA 0D
000480: 35,3010           53515                           PDVL     UNIT                                  #  ULOS AT 6D
000481: 35,3011           03536                                    RACT3
000482: 35,3012           46315                           PDVL     VPROJ                                 #  XCHNJ AND UP
000483: 35,3013           51352                           VSL2     BVSU
000484: 35,3014           02311                                    ULOS
000485: 35,3015           63256                           UNIT     PDVL                                  #  UP AT 0D
000486: 35,3016           63241                           DOT      PDVL                                  #  UP.UN*RA AT 0D
000487: 35,3017           00001                                    0D                                    #  UP IN MPAC
000488: 35,3020           75241                           DOT      SIGN
000489: 35,3021           02311                                    ULOS
000490: 35,3022           65552                           SL1      ACOS
000491: 35,3023           50315                           PDVL     DOT                                   #  EA AT 0D
000492: 35,3024           02311                                    ULOS
000493: 35,3025           03536                                    RACT3
000494: 35,3026           71244                           BPL      DLOAD
000495: 35,3027           73032                                    TESTY
000496: 35,3030           06530                                    DPPOSMAX
000497: 35,3031           41425                           DSU      PUSH
000498: 35,3032           71214        TESTY              BOFF     DLOAD
000499: 35,3033           03740                                    ITSWICH
000500: 35,3034           73261                                    ELEX
000501: 35,3035           03576                                    DELEL
000502: 35,3036           14033                           STODL    DELELO
000503: 35,3037           77625                           DSU
000504: 35,3040           02257                                    ELEV
000505: 35,3041           03576                           STORE    DELEL
000506: 35,3042           45246                           ABS      DSU
000507: 35,3043           33740                                    ELEPS


000509: 35,3044           77640                           BMN
000510: 35,3045           73271                                    TIMEX                                 #  COMMERCIALS EVERYWHERE
000511: 35,3046           70535        FIGTIME            SLOAD    SR1
000512: 35,3047           03614                                    TITER
000513: 35,3050           72030                           BHIZ     LXA,1
000514: 35,3051           03463                                    NORMEX                                #  TOO MANY ITERATIONS
000515: 35,3052           00154                                    MPAC
000516: 35,3053           77330                           SXA,1    VLOAD
000517: 35,3054           03613                                    TITER
000518: 35,3055           03552                                    RPASS3
000519: 35,3056           65256                           UNIT     PDDL
000520: 35,3057           00045                                    36D
000521: 35,3060           53515                           PDVL     UNIT
000522: 35,3061           03536                                    RACT3
000523: 35,3062           77725                           PDDL
000524: 35,3063           41525                           PDDL     PUSH
000525: 35,3064           00045                                    36D
000526: 35,3065           77621                           BDSU
000527: 35,3066           00015                                    12D
000528: 35,3067           14037                           STODL    30D                                   #  RP - RA MAGNITUDES
000529: 35,3070           06520                                    DPHALF
000530: 35,3071           41425                           DSU      PUSH
000531: 35,3072           02257                                    ELEV
000532: 35,3073           50165                           SIGN     BMN
000533: 35,3074           00037                                    30D
000534: 35,3075           03463                                    NORMEX
000535: 35,3076           71545                           DLOAD    COS
000536: 35,3077           56205                           DMP      DDV
000537: 35,3100           00017                                    14D
000538: 35,3101           00015                                    12D
000539: 35,3102           77676                           DCOMP                                          #  SINCE COS(180-A)=-COS A
000540: 35,3103           00035                           STORE    28D
000541: 35,3104           44246                           ABS      BDSU
000542: 35,3105           06520                                    DPHALF
000543: 35,3106           77240                           BMN      VLOAD
000544: 35,3107           03463                                    NORMEX
000545: 35,3110           02261                                    UNRM
000546: 35,3111           53435                           VXV      UNIT
000547: 35,3112           00007                                    6D                                    #  UN*RA
000548: 35,3113           41241                           DOT      DMP
000549: 35,3114           03544                                    VACT3
000550: 35,3115           00015                                    12D
000551: 35,3116           47315                           PDVL     VXV
000552: 35,3117           00001                                    0D
000553: 35,3120           03560                                    VPASS3
000554: 35,3121           53435                           VXV      UNIT
000555: 35,3122           00001                                    0D                                    #  (RP*VP)*RP
000556: 35,3123           41241                           DOT      DMP
000557: 35,3124           03560                                    VPASS3
000558: 35,3125           00017                                    14D


000560: 35,3126           77621                           BDSU
000561: 35,3127           63301                           NORM     PDVL                                  #  NORMALIZED WA - WP 12D
000562: 35,3130           00047                                    X1
000563: 35,3131           00007                                    6D
000564: 35,3132           50235                           VXV      DOT
000565: 35,3133           00001                                    0D
000566: 35,3134           02261                                    UNRM                                  #  RA*RP.UN 14D
000567: 35,3135           50315                           PDVL     DOT
000568: 35,3136           00001                                    0D
000569: 35,3137           00007                                    6D
000570: 35,3140           65552                           SL1      ACOS
000571: 35,3141           77765                           SIGN
000572: 35,3142           43225                           DSU      DAD                                   #  ALPHA PI
000573: 35,3143           06520                                    DPHALF
000574: 35,3144           02257                                    ELEV
000575: 35,3145           65525                           PDDL     ACOS
000576: 35,3146           00035                                    28D
000577: 35,3147           75221                           BDSU     SIGN
000578: 35,3150           06520                                    DPHALF
000579: 35,3151           00037                                    30D                                   #  CONTAINS RP-RA
000580: 35,3152           77615                           DAD
000581: 35,3153           56205                           DMP      DDV
000582: 35,3154           33732                                    TWOPI
000583: 35,3155           77605                           DMP
000584: 35,3156           41257                           SL*      DMP
000585: 35,3157           20176                                    0          -3,1
000586: 35,3160           51406                           PUSH     ABS
000587: 35,3161           50025                           DSU      BMN
000588: 35,3162           03574                                    SECMAX
000589: 35,3163           73167                                    OKMAX
000590: 35,3164           75345                           DLOAD    SIGN                                  #  REPLACE TIME WITH MAX TIME SIGNED
000591: 35,3165           03574                                    SECMAX
000592: 35,3166           77606                           PUSH
000593: 35,3167           51135        OKMAX              SLOAD    BPL                                   #  TEST FIRST ITERATION
000594: 35,3170           03614                                    TITER
000595: 35,3171           73177                                    REPETE
000596: 35,3172           71331                           SSP      DLOAD
000597: 35,3173           03614                                    TITER
000598: 35,3174           37777                           OCT      37777
000599: 35,3175           77650                           GOTO
000600: 35,3176           73235                                    STORDELT
000601: 35,3177           41345        REPETE             DLOAD    DMP
000602: 35,3200           03576                                    DELEL
000603: 35,3201           00033                                    DELELO
000604: 35,3202           71244                           BPL      DLOAD
000605: 35,3203           73213                                    NEXTES
000606: 35,3204           03574                                    SECMAX
000607: 35,3205           77605                           DMP
000608: 35,3206           33736                                    THIRD
000609: 35,3207           17574                           STODL    SECMAX


000611: 35,3210           70446                           ABS      SR1                                   #  CROSSED OVER SOLUTION
000612: 35,3211           52076                           DCOMP    GOTO                                  #  DT=(-SIGN(DTO)//DT//)/2
000613: 35,3212           73223                                    RESIGN
000614: 35,3213           51545        NEXTES             DLOAD    ABS
000615: 35,3214           03576                                    DELEL
000616: 35,3215           51525                           PDDL     ABS
000617: 35,3216           00033                                    DELELO
000618: 35,3217           77625                           DSU
000619: 35,3220           71240                           BMN      DLOAD
000620: 35,3221           73226                                    REVERS                                #  WRONG DIRECTION
000621: 35,3222           77646                           ABS
000622: 35,3223           52165        RESIGN             SIGN     GOTO
000623: 35,3224           03606                                    DELTEEO
000624: 35,3225           73235                                    STORDELT
000625: 35,3226           57545        REVERS             DLOAD    DCOMP
000626: 35,3227           03606                                    DELTEEO
000627: 35,3230           70406                           PUSH     SR1
000628: 35,3231           03606                           STORE    DELTEEO
000629: 35,3232           77615                           DAD
000630: 35,3233           77650                           GOTO
000631: 35,3234           73236                                    ADTIME
000632: 35,3235           03606        STORDELT           STORE    DELTEEO
000633: 35,3236           77615        ADTIME             DAD
000634: 35,3237           02317                                    NOMTPI                                #  SUM OF DELTA T:S
000635: 35,3240           02317                           STORE    NOMTPI
000636: 35,3241           63375                           VLOAD    PDVL
000637: 35,3242           03506                                    VAPREC
000638: 35,3243           03500                                    RAPREC
000639: 35,3244           77624                           CALL
000640: 35,3245           73462                                    GOINT
000641: 35,3246           77624                           CALL
000642: 35,3247           46402                                    ACTIVE                                #  STORE NEW RACT3 VACT3
000643: 35,3250           63375                           VLOAD    PDVL
000644: 35,3251           03530                                    VPPREC
000645: 35,3252           03522                                    RPPREC
000646: 35,3253           77624                           CALL
000647: 35,3254           73462                                    GOINT
000648: 35,3255           77624                           CALL
000649: 35,3256           46412                                    PASSIVE                               #  STORE NEW RPASS3 VPASS3
000650: 35,3257           77650                           GOTO
000651: 35,3260           73004                                    ELCALC
000652: 35,3261           43345        ELEX               DLOAD    DAD
000653: 35,3262           03636                                    TTPI
000654: 35,3263           02317                                    NOMTPI
000655: 35,3264           17636                           STODL    TTPI
000656: 35,3265           77614                           BON
000657: 35,3266           01310                                    ETPIFLAG
000658: 35,3267           73271                                    TIMEX
000659: 35,3270           02257                           STORE    ELEV
000660: 35,3271           52145        TIMEX              DLOAD    GOTO


000662: 35,3272           06522                                    ZEROVECS
000663: 35,3273           03463                                    NORMEX
000664:


000666:                                                                                                  #  ..... S34/35.1 .....
000667:
000668:                                                                                                  #  COMPUTE UNIT NORMAL AND LINE OF SIGHT VECTORS GIVEN THE ACTIVE AND
000669:                                                                                                  #  PASSIVE POS AND VEL AT TIME T3
000670:
000671: 35,3274           52375        S34/35.1           VLOAD    VSU
000672: 35,3275           03552                                    RPASS3
000673: 35,3276           03536                                    RACT3
000674: 35,3277           41456                           UNIT     PUSH
000675: 35,3300           26311                           STOVL    ULOS
000676: 35,3301           03536                                    RACT3
000677: 35,3302           53435                           VXV      UNIT
000678: 35,3303           03544                                    VACT3
000679: 35,3304           02261                           STORE    UNRM
000680: 35,3305           77616                           RVQ
000681:


000683:                                                                                                  #  ..... S34/35.2 .....
000684:
000685:                                                                                                  #  ADVANCE PASSIVE VEH TO RENDEZVOUS TIME AND GET REQ VEL FROM LAMBERT
000686:
000687: 35,3306           77220        S34/35.2           STQ      VLOAD
000688: 35,3307           03470                                    SUBEXIT
000689: 35,3310           03560                                    VPASS3
000690: 35,3311           65315                           PDVL     PDDL
000691: 35,3312           03552                                    RPASS3
000692: 35,3313           03610                                    INTIME
000693: 35,3314           65325                           PDDL     PDDL
000694: 35,3315           03631                                    TPASS4
000695: 35,3316           33732                                    TWOPI                                 #  CONIC
000696: 35,3317           46125                           PDDL     BHIZ
000697: 35,3320           03467                                    NN
000698: 35,3321           73325                                    S3435.23
000699: 35,3322           77745                           DLOAD
000700: 35,3323           41545                           DLOAD    PUSH
000701: 35,3324           06522                                    ZEROVECS                              #  PRECISION
000702: 35,3325           77624        S3435.23           CALL
000703: 35,3326           73466                                    INTINT                                #  GET TARGET VECTOR
000704: 35,3327           27444        S3435.25           STOVL    RTARG
000705: 35,3330           00007                                    VATT
000706: 35,3331           27506                           STOVL    VPASS4
000707: 35,3332           03444                                    RTARG
000708:                                                                                                  #  COMPUTE PHI = PI + (ACOS(UNIT RA.UNIT RP) - PI)SIGN(RA*RP.U)
000709: 35,3333           63256                           UNIT     PDVL                                  #  UNIT RP
000710: 35,3334           03536                                    RACT3
000711: 35,3335           41456                           UNIT     PUSH                                  #  UNIT RA
000712: 35,3336           50235                           VXV      DOT
000713: 35,3337           00001                                    0D
000714: 35,3340           02261                                    UNRM                                  #  RA*RP.U
000715: 35,3341           77715                           PDVL
000716: 35,3342           72441                           DOT      SL1                                   #  UNIT RA.UNIT RP
000717: 35,3343           00001                                    0D
000718: 35,3344           75326                           ACOS     SIGN
000719: 35,3345           43244                           BPL      DAD
000720: 35,3346           73350                                    NOPIE
000721: 35,3347           06530                                    DPPOSMAX                              #  REASONABLE TWO PI
000722: 35,3350           15756        NOPIE              STODL    ACTCENT
000723: 35,3351           03631                                    TPASS4
000724: 35,3352           77625                           DSU
000725: 35,3353           03610                                    INTIME
000726: 35,3354           03452                           STORE    DELLT4
000727: 35,3355           40335                           SLOAD    SETPD
000728: 35,3356           03467                                    NN                                    #  NUMBER OF OFFSETS
000729: 35,3357           00001                                    0D
000730: 35,3360           63325                           PDDL     PDVL
000731: 35,3361           33744                                    EPSFOUR
000732: 35,3362           03536                                    RACT3
000733: 35,3363           26323                           STOVL    RINIT


000735: 35,3364           03544                                    VACT3
000736: 35,3365           36331                           STCALL   VINIT
000737: 35,3366           22000                                    INITVEL
000738: 35,3367           77624                           CALL
000739: 35,3370           73447                                    LOMAT
000740: 35,3371           64375                           VLOAD    MXV
000741: 35,3372           02366                                    DELVEET3
000742: 35,3373           00001                                    0D
000743: 35,3374           77772                           VSL1
000744: 35,3375           37434                           STCALL   DELVLVC
000745: 35,3376           03470                                    SUBEXIT
000746:


000748:                                                                                                  #  ..... S34/35.3 .....
000749:
000750: 35,3377           45020        S34/35.3           STQ      CALL
000751: 35,3400           03463                                    NORMEX
000752: 35,3401           73447                                    LOMAT                                 #  GET MATRIX IN PUSH LIST
000753: 35,3402           61375                           VLOAD    VXM
000754: 35,3403           03434                                    DELVLVC                               #  NEW DEL V TPI
000755: 35,3404           00001                                    0D
000756: 35,3405           77772                           VSL1
000757: 35,3406           02366                           STORE    DELVEET3                              #  SAVE FOR TRANSFORM
000758: 35,3407           63255                           VAD      PDVL
000759: 35,3410           03544                                    VACT3                                 #  NEW V REQ
000760: 35,3411           03536                                    RACT3
000761: 35,3412           65325                           PDDL     PDDL
000762: 35,3413           03442                                    TIG
000763: 35,3414           03631                                    TPASS4
000764: 35,3415           41525                           PDDL     PUSH
000765: 35,3416           06530                                    DPPOSMAX
000766: 35,3417           77624                           CALL                                           #  INTEG. FOR NEW TARGET VEC
000767: 35,3420           73466                                    INTINT
000768: 35,3421           77775                           VLOAD
000769: 35,3422           00001                                    RATT
000770: 35,3423           03444                           STORE    RTARG
000771: 35,3424           41575        NOVRWRT            VLOAD    PUSH
000772: 35,3425           02311                                    ULOS
000773: 35,3426           57435                           VXV      VCOMP
000774: 35,3427           02261                                    UNRM
000775: 35,3430           41456                           UNIT     PUSH
000776: 35,3431           76435                           VXV      VSL1
000777: 35,3432           02311                                    ULOS
000778: 35,3433           77715                           PDVL
000779: 35,3434           64315                           PDVL     MXV
000780: 35,3435           02366                                    DELVEET3
000781: 35,3436           00001                                    0D
000782: 35,3437           77772                           VSL1
000783: 35,3440           36303                           STCALL   DVLOS
000784: 35,3441           03463                                    NORMEX
000785:


000787:                                                                                                  #  ..... S34/35.4 .....
000788:
000789: 35,3442           40220        S34/35.4           STQ      SETPD                                 #  NO ASTRONAUT OVERWRITE
000790: 35,3443           03463                                    NORMEX
000791: 35,3444           00001                                    0D
000792: 35,3445           77650                           GOTO
000793: 35,3446           73424                                    NOVRWRT
000794:


000796:                                                                                                  #  ..... LOMAT .....
000797:
000798: 35,3447           57575        LOMAT              VLOAD    VCOMP
000799: 35,3450           02261                                    UNRM
000800: 35,3451           24007                           STOVL    6D                                    #  Y
000801: 35,3452           03536                                    RACT3
000802: 35,3453           57456                           UNIT     VCOMP
000803: 35,3454           00015                           STORE    12D
000804: 35,3455           76435                           VXV      VSL1
000805: 35,3456           02261                                    UNRM                                  #  Z*-Y
000806: 35,3457           00001                           STORE    0D
000807: 35,3460           43401                           SETPD    RVQ
000808: 35,3461           00023                                    18D
000809: 35,3462           65325        GOINT              PDDL     PDDL                                  #  DO
000810: 35,3463           06522                                    ZEROVECS                              #        NOT
000811: 35,3464           02317                                    NOMTPI
000812: 35,3465           41406                           PUSH     PUSH                                  #                ORDER OR INSERT BEFORE INTINT
000813: 35,3466           45020        INTINT             STQ      CALL
000814: 35,3467           03465                                    RTRN
000815: 35,3470           27414                                    INTSTALL
000816: 35,3471           71214                           CLEAR    DLOAD
000817: 35,3472           01673                                    INTYPFLG
000818: 35,3473           43054                           BZE      SET
000819: 35,3474           73476                                    +2
000820: 35,3475           01473                                    INTYPFLG
000821: 35,3476           45545                           DLOAD    STADR
000822: 35,3477           63736                           STODL    TDEC1
000823: 35,3500           73014                           SET      LXA,2
000824: 35,3501           00063                                    MOONFLAG
000825: 35,3502           02777                                    RTX2
000826: 35,3503           43014                           BON      CLEAR
000827: 35,3504           04303                                    CMOONFLG
000828: 35,3505           73507                                    ALLSET
000829: 35,3506           00263                                    MOONFLAG
000830: 35,3507           25517        ALLSET             STOVL    TET
000831: 35,3510           77657                           VSR*
000832: 35,3511           57176                                    0,2
000833: 35,3512           25535                           STOVL    RCV
000834: 35,3513           77657                           VSR*
000835: 35,3514           57176                                    0,2
000836: 35,3515           35543                           STCALL   VCV
000837: 35,3516           27107                                    INTEGRVS
000838: 35,3517           52175                           VLOAD    GOTO
000839: 35,3520           00001                                    RATT
000840: 35,3521           03465                                    RTRN
000841:


000843:                                                                                                  #  ..... S34/35.5 .....
000844:                                                                                                  #  SUBROUTINES USED
000845:                                                                                                  #        BANKCALL
000846:                                                                                                  #        GOFLASH
000847:                                                                                                  #        GOTOPOOH
000848:                                                                                                  #        S34/35.3
000849:                                                                                                  #        S34/35.4
000850:                                                                                                  #        VNPOOH
000851:
000852: 35,3522           43020        S34/35.5           STQ      BON
000853: 35,3523           03470                                    SUBEXIT
000854: 35,3524           01311                                    FINALFLG
000855: 35,3525           73531                                    FLAGON
000856: 35,3526           52014                           SET      GOTO
000857: 35,3527           00470                                    UPDATFLG
000858: 35,3530           73576                                    FLAGOFF
000859: 35,3531           77214        FLAGON             CLEAR    VLOAD
000860: 35,3532           03274                                    NTARGFLG
000861: 35,3533           03434                                    DELVLVC
000862: 35,3534           01237                           STORE    GDT/2
000863: 35,3535           77776                           EXIT
000864: 35,3536           33727                 +5        CAF      V06N81
000865: 35,3537           04616                           TC       BANKCALL
000866: 35,3540           20476                           CADR     GOFLASH
000867: 35,3541           06001                           TC       GOTOPOOH
000868: 35,3542           03544                           TC       +2                                    #  PRO
000869: 35,3543           03536                           TC       FLAGON     +5                         #  LOAD
000870: 35,3544           35016                 +2        CA       EBANK7
000871: 35,3545           54003                           TS       EBANK                                 #  TO BE SURE
000872:
000873: 35,3546           22007                           ZL
000874: 35,3547           34756                           CA       FIVE
000875: 35,3550           54002        NTARGCHK           TS       Q
000876: 35,3551           50002                           INDEX    Q
000877: 35,3552           41433                           CS       DELVLVC
000878: 35,3553           50002                           INDEX    Q
000879: 35,3554           61236                           AD       GDT/2
000880: 35,3555           26001                           ADS      L
000881: 35,3556           10002                           CCS      Q
000882: 35,3557           13550                           TCF      NTARGCHK
000883: 35,3560           22000                           LXCH     A
000884: 35,3561           00006                           EXTEND
000885: 35,3562           13565                           BZF      +3
000886: 35,3563           05504                           TC       UPFLAG
000887: 35,3564           00146                           ADRES    NTARGFLG
000888:
000889: 35,3565           06037                           TC       INTPRET
000890: 35,3566           45014                           BOFF     CALL
000891: 35,3567           03354                                    NTARGFLG


000893: 35,3570           73572                                    NOCHG
000894: 35,3571           73377                                    S34/35.3
000895: 35,3572           77214        NOCHG              CLEAR    VLOAD
000896: 35,3573           01267                                    XDELVFLG
000897: 35,3574           02366                                    DELVEET3
000898: 35,3575           03656                           STORE    DELVSIN
000899: 35,3576           77624        FLAGOFF            CALL
000900: 35,3577           73442                                    S34/35.4
000901: 35,3600           77776                           EXIT
000902: 35,3601           33726                           CAF      V06N59
000903: 35,3602           03712                           TC       VNPOOH
000904: 35,3603           06037                           TC       INTPRET
000905: 35,3604           77650                           GOTO
000906: 35,3605           03470                                    SUBEXIT
000907:


000909:                                                                                                  #  ..... VN1645 .....
000910:
000911:                                                                                                  #  SUBROUTINES USED
000912:                                                                                                  #        P3XORP7X
000913:                                                                                                  #        GET+MGA
000914:                                                                                                  #        BANKCALL
000915:                                                                                                  #        DELAYJOB
000916:                                                                                                  #        COMPTGO
000917:                                                                                                  #        GOFLASHR
000918:                                                                                                  #        GOTOPOOH
000919:                                                                                                  #        FLAGUP
000920:
000921: 35,3606           71220        VN1645             STQ      DLOAD
000922: 35,3607           03470                                    SUBEXIT
000923: 35,3610           33742                                    DP-.01
000924: 35,3611           02253                           STORE    +MGA                                  #  MGA = -.01
000925: 35,3612           71214                           BOFF     DLOAD
000926: 35,3613           01351                                    FINALFLG
000927: 35,3614           73634                                    GET45
000928: 35,3615           33742                                    DP-.01
000929: 35,3616           77615                           DAD
000930: 35,3617           33742                                    DP-.01
000931: 35,3620           02253                           STORE    +MGA                                  #  MGA = -.02
000932: 35,3621           77414                           BOFF     EXIT
000933: 35,3622           01742                                    REFSMFLG
000934: 35,3623           73634                                    GET45
000935: 35,3624           03704                           TC       P3XORP7X
000936: 35,3625           03627                           TC       +2                                    #  P3X
000937: 35,3626           03635                           TC       GET45      +1                         #  P7X
000938: 35,3627           06037                           TC       INTPRET
000939: 35,3630           41575                           VLOAD    PUSH
000940: 35,3631           03656                                    DELVSIN
000941: 35,3632           77624                           CALL                                           #  COMPUTE MGA
000942: 35,3633           15717                                    GET+MGA
000943: 35,3634           77776        GET45              EXIT
000944: 35,3635           02432                           TC       COMPTGO                               #  INITIATE TASK TO UPDATE TTOGO
000945: 35,3636           31470                           CA       SUBEXIT
000946: 35,3637           55464                           TS       QSAVED
000947: 35,3640           34777                           CAF      1SEC
000948: 35,3641           04616                           TC       BANKCALL
000949: 35,3642           01735                           CADR     DELAYJOB
000950: 35,3643           33730                           CAF      V16N45                                #  TRKMKCNT, TTOGO, +MGA
000951: 35,3644           04616                           TC       BANKCALL
000952: 35,3645           20476                           CADR     GOFLASH
000953: 35,3646           03651                           TC       KILCLOCK                              #  TERMINATE
000954: 35,3647           03654                           TC       N45PROC                               #  PROCEED
000955: 35,3650           03664                           TC       CLUPDATE                              #  RECYCLE - RETURN FOR INITIAL COMPUTATION
000956: 35,3651           30005        KILCLOCK           CA       Z
000957: 35,3652           55163                           TS       DISPDEX


000959: 35,3653           06001                           TC       GOTOPOOH
000960: 35,3654           40076        N45PROC            CS       FLAGWRD2
000961: 35,3655           74746                           MASK     BIT6
000962: 35,3656           00006                           EXTEND
000963: 35,3657           13651                           BZF      KILCLOCK                              #  FINALFLG IS SET - FLASH V37 - AWAIT NEW PGM
000964: 35,3660           05353                           TC       PHASCHNG
000965: 35,3661           04024                           OCT      04024
000966: 35,3662           05504                           TC       UPFLAG                                #  SET
000967: 35,3663           00047                           ADRES    FINALFLG                              #  FINALFLG
000968: 35,3664           30005        CLUPDATE           CA       Z
000969: 35,3665           55163                           TS       DISPDEX
000970: 35,3666           05353                           TC       PHASCHNG
000971: 35,3667           04024                           OCT      04024
000972: 35,3670           06037                           TC       INTPRET
000973: 35,3671           52014                           CLEAR    GOTO
000974: 35,3672           00670                                    UPDATFLG
000975: 35,3673           03464                                    QSAVED
000976:


000978:                                                                                                  #  ..... DISPLAYE .....
000979:
000980:                                                                                                  #  SUBROUTINES USED
000981:                                                                                                  #        BANKCALL
000982:                                                                                                  #        GOFLASHR
000983:                                                                                                  #        GOTOPOOH
000984:                                                                                                  #        BLANKET
000985:                                                                                                  #        ENDOFJOB
000986:
000987: 35,3674           00006        DISPLAYE           EXTEND
000988: 35,3675           23463                           QXCH     NORMEX
000989: 35,3676           33724                           CAF      V06N55
000990: 35,3677           04616                           TCR      BANKCALL
000991: 35,3700           20476                           CADR     GOFLASH
000992: 35,3701           16001                           TCF      GOTOPOOH
000993: 35,3702           01463                           TC       NORMEX
000994: 35,3703           13676                           TCF      -5
000995:


000997:                                                                                                  #  ..... P3XORP7X .....
000998:
000999: 35,3704           37744        P3XORP7X           CAF      HIGH9
001000: 35,3705           71011                           MASK     MODREG
001001: 35,3706           00006                           EXTEND
001002: 35,3707           13711                           BZF      +2
001003: 35,3710           24002                           INCR     Q
001004: 35,3711           00002                           RETURN
001005:
001006:                                                                                                  #  ..... VNPOOH .....
001007:
001008:                                                                                                  #  SUBROUTINES USED
001009:                                                                                                  #        BANKCALL
001010:                                                                                                  #        GOFLASH
001011:                                                                                                  #        GOTOPOOH
001012:
001013: 35,3712           00006        VNPOOH             EXTEND
001014: 35,3713           23465                           QXCH     RTRN
001015: 35,3714           55615                           TS       VERBNOUN
001016: 35,3715           31615                           CA       VERBNOUN
001017: 35,3716           04616                           TCR      BANKCALL
001018: 35,3717           20476                           CADR     GOFLASH
001019: 35,3720           16001                           TCF      GOTOPOOH
001020: 35,3721           01465                           TC       RTRN
001021: 35,3722           13715                           TCF      -5
001022:


001024:                                                                                                  #  ..... CONSTANTS .....
001025:
001026: 35,3723           01445        V06N37             VN       0637
001027: 35,3724           01467        V06N55             VN       0655
001028: 35,3725           01472        V06N58             VN       0658
001029: 35,3726           01473        V06N59             VN       0659
001030: 35,3727           01521        V06N81             VN       0681
001031: 35,3730           04055        V16N45             VN       1645
001032: 35,3731           14441 37325  TWOPI              2DEC     6.283185307 B-4
001033:
001034: 35,3733           00001 20650  MAX250             2DEC     25         E3
001035:
001036: 35,3735           12525 12525  THIRD              2DEC     .333333333
001037:
001038: 35,3737           00004 21505  ELEPS              2DEC     .27777777  E-3
001039:
001040: 35,3741           77777        DP-.01             OCT      77777                                 #  CONSTANTS
001041: 35,3742           61337                           OCT      61337                                 #  ADJACENT      -.01 FOR MGA DSP
001042: 35,3743           01252 25253  EPSFOUR            2DEC     .0416666666
001043:
001044: 35,3745           13434 16162  130DEG             2DEC     .3611111111
001045:


001047:                                                                                                  #  ..... INITVEL .....
001048:
001049:                                                                                                  #  MOD NO -1                     LOG SECTION - P34-P35, P74-P75
001050:                                                                                                  #  MOD BY WHITE.P                DATE  21NOV67
001051:
001052:                                                                                                  #  FUNCTIONAL DESCRIPTION
001053:
001054:                                                                                                  #        THIS SUBROUTINE COMPUTES THE REQUIRED INITIAL VELOCITY VECTOR FOR
001055:                                                                                                  #        A TRAJECTORY OF SPECIFIED TRANSFER TIME BETWEEN SPECIFIED INITIAL
001056:                                                                                                  #        AND TARGET POSITIONS.  THE TRAJECTORY MAY BE EITHER CONIC OR
001057:                                                                                                  #        PRECISION DEPENDING ON AN INPUT PARAMETER (NAMELY, NUMBER OF
001058:                                                                                                  #        OFFSETS).  IN ADDITION, IN THE PRECISION TRAJECTORY CASE, THE
001059:                                                                                                  #        SUBROUTINE ALSO COMPUTES AN OFFSET TARGET VECTOR, TO BE USED
001060:                                                                                                  #        DURING PURE-CONIC CROSS-PRODUCT STEERING.  THE OFFSET TARGET
001061:                                                                                                  #        VECTOR IS THE TERMINAL POSITION VECTOR OF A CONIC TRAJECTORY WHICH
001062:                                                                                                  #        HAS THE SAME INITIAL STATE AS A PRECISION TRAJECTORY WHOSE
001063:                                                                                                  #        TERMINAL POSITION VECTOR IS THE SPECIFIED TARGET VECTOR.
001064:
001065:                                                                                                  #        IN ORDER TO AVOID THE INHERENT SINGULARITIES IN THE 180 DEGREE
001066:                                                                                                  #        TRANSFER CASE WHEN THE (TRUE OR OFFSET) TARGET VECTOR MAY BE
001067:                                                                                                  #        SLIGHTLY OUT OF THE ORBITAL PLANE, THIS SUBROUTINE ROTATES THIS
001068:                                                                                                  #        VECTOR INTO A PLANE DEFINED BY THE INPUT INITIAL POSITION VECTOR
001069:                                                                                                  #        AND ANOTHER INPUT VECTOR (USUALLY THE INITIAL VELOCITY VECTOR),
001070:                                                                                                  #        WHENEVER THE INPUT TARGET VECTOR LIES INSIDE A CONE WHOSE VERTEX
001071:                                                                                                  #        IS THE ORIGIN OF COORDINATES, WHOSE AXIS IS THE 180 DEGREE
001072:                                                                                                  #        TRANSFER DIRECTION, AND WHOSE CONE ANGLE IS SPECIFIED BY THE USER.
001073:
001074:                                                                                                  #        THE LAMBERT SUBROUTINE IS UTILIZED FOR THE CONIC COMPUTATIONS AND
001075:                                                                                                  #        THE COASTING INTEGRATION SUBROUTINE IS UTILIZED FOR THE PRECISION
001076:                                                                                                  #        TRAJECTORY COMPUTATIONS.
001077:
001078:                                                                                                  #  CALLING SEQUENCE
001079:
001080:                                                                                                  #        L       CALL
001081:                                                                                                  #        L+1             INITVEL
001082:                                                                                                  #        L+2     (RETURN - ALWAYS)
001083:
001084:                                                                                                  #  INPUT
001085:
001086:                                                                                                  #        (1)     RINIT           INITIAL POSITION RADIUS VECTOR
001087:                                                                                                  #        (2)     VINIT           INITIAL POSITION VELOCITY VECTOR
001088:                                                                                                  #        (3)     RTARG           TARGET POSITION RADIUS VECTOR
001089:                                                                                                  #        (4)     DELLT4          DESIRED TIME OF FLIGHT FROM RINIT TO RTARG
001090:                                                                                                  #        (5)     INTIME          TIME OF RINIT
001091:                                                                                                  #        (6)     0D              NUMBER OF ITERATIONS OF LAMBERT/INTEGRVS
001092:                                                                                                  #        (7)     2D              ANGLE TO 180 DEGREES WHEN ROTATION STARTS
001093:                                                                                                  #        (8)     RTX1            -2 FOR EARTH, -10D FOR LUNAR
001094:                                                                                                  #        (9)     RTX2            COORDINATE SYSTEM ORIGIN - 0 FOR EARTH, 2 FOR LUNAR
001095:                                                                                                  #        PUSHLOC SET AT 4D
001096:


001098:                                                                                                  #  OUTPUT
001099:
001100:                                                                                                  #        (1)     RTARG           OFFSET TARGET POSITION VECTOR
001101:                                                                                                  #        (2)     VIPRIME         MANEUVER VELOCITY REQUIRED
001102:                                                                                                  #        (3)     VTPRIME         VELOCITY AT TARGET AFTER MANEUVER
001103:                                                                                                  #        (4)     DELVEET3        DELTA VELOCITY REQUIRED FOR MANEUVER
001104:
001105:                                                                                                  #  SUBROUTINES USED
001106:
001107:                                                                                                  #        LAMBERT
001108:                                                                                                  #        INTSTALL
001109:                                                                                                  #        INTEGRVS
001110:
001111: 11,2000                                           SETLOC   INTVEL
001112: 11,2000                                           BANK
001113:
001114: 11,2000                                           COUNT*   $$/INITV
001115: 11,2000           77614        INITVEL            SET                                            #  COGA GUESS NOT AVAILABLE
001116: 11,2001           00475                                    GUESSW
001117: 11,2002           44175        HAVEGUES           VLOAD    STQ
001118: 11,2003           03444                                    RTARG
001119: 11,2004           03463                                    NORMEX
001120: 11,2005           03472                           STORE    RTARG1
001121: 11,2006           77646                           ABVAL
001122: 11,2007           03723                           STORE    RTMAG
001123: 11,2010           46135                           SLOAD    BHIZ
001124: 11,2011           03000                                    RTX2
001125: 11,2012           22026                                    INITVEL1
001126: 11,2013           72575                           VLOAD    VSL2
001127: 11,2014           02323                                    RINIT                                 #  B29
001128: 11,2015           26323                           STOVL    RINIT                                 #  B27
001129: 11,2016           02331                                    VINIT                                 #  B7
001130: 11,2017           77752                           VSL2
001131: 11,2020           26331                           STOVL    VINIT                                 #  B5
001132: 11,2021           03472                                    RTARG1
001133: 11,2022           77752                           VSL2
001134: 11,2023           03472                           STORE    RTARG1
001135: 11,2024           77646                           ABVAL
001136: 11,2025           03723                           STORE    RTMAG
001137:
001138:                                                                                                  #  INITIALIZATION
001139:
001140: 11,2026           71331        INITVEL1           SSP      DLOAD                                 #  SET ITCTR TO -1,LOAD MPAC WITH E4 (PL 2D)
001141: 11,2027           03617                                    ITCTR
001142: 11,2030           77776                                    0          -1
001143: 11,2031           70546                           COSINE   SR1                                   #  CALCULATE COSINE (E4) (+2)
001144: 11,2032           17667                           STODL    COZY4                                 #  SET COZY4 TO COSINE (E4)          (PL 0D)
001145: 11,2033           67154                           LXA,2    SXA,2
001146: 11,2034           00154                                    MPAC
001147: 11,2035           02701                                    VTARGTAG                              #  SET VTARGTAG TO 0D (SP)
001148: 11,2036           77775                           VLOAD


001150: 11,2037           02323                                    RINIT
001151: 11,2040           26655                           STOVL    R1VEC                                 #  R1VEC EQ RINIT
001152: 11,2041           03472                                    RTARG1
001153: 11,2042           16663                           STODL    R2VEC                                 #  R2VEC EQ RTARG
001154: 11,2043           03452                                    DELLT4
001155: 11,2044           02671                           STORE    TDESIRED                              #  TDESIRED EQ DELLT4
001156: 11,2045           77201                           SETPD    VLOAD
001157: 11,2046           00001                                    0D                                    #  INITIALIZE PL TO 0D
001158: 11,2047           02323                                    RINIT                                 #  MPAC EQ RINIT (+29)
001159: 11,2050           41456                           UNIT     PUSH                                  #  UNIT(RI) (+1)                     (PL 6D)
001160: 11,2051           53435                           VXV      UNIT
001161: 11,2052           02331                                    VINIT                                 #  MPAC EQ UNIT(RI) X VI (+8)
001162: 11,2053           26674                           STOVL    UN
001163: 11,2054           03472                                    RTARG1
001164: 11,2055           50256                           UNIT     DOT                                   #  TEMP=URT.URI (+2)                 (PL 0D)
001165: 11,2056           43015                           DAD      CLEAR
001166: 11,2057           03667                                    COZY4
001167: 11,2060           03665                                    NORMSW
001168: 11,2061           03667                           STORE    COZY4
001169: 11,2062           43044        INITVEL2           BPL      SET
001170: 11,2063           22105                                    INITVEL3                              #  UN CALCULATED IN LAMBERT
001171: 11,2064           03465                                    NORMSW
001172:
001173:                                                                                                  #  ROTATE RC INTO YC PLANE - SET UNIT NORMAL TO YC
001174:
001175: 11,2065           41575                           VLOAD    PUSH                                  #                                    (PL 6D)
001176: 11,2066           02663                                    R2VEC                                 #  RC TO 6D (+29)
001177: 11,2067           63246                           ABVAL    PDVL                                  #  RC TO MPAC, ABVAL(RC) (+29) TO OD (PL 2D)
001178: 11,2070           46206                           PUSH     VPROJ                                 #                                    (PL 8D)
001179: 11,2071           02674                                    UN
001180: 11,2072           51352                           VSL2     BVSU
001181: 11,2073           74256                           UNIT     VXSC                                  #                                    (PL 0D)
001182: 11,2074           77772                           VSL1
001183: 11,2075           02663                           STORE    R2VEC
001184: 11,2076           67351                           TLOAD    SLOAD
001185: 11,2077           24007                                    ZEROVEC
001186: 11,2100           03617                                    ITCTR
001187: 11,2101           77244                           BPL      VLOAD
001188: 11,2102           22105                                    INITVEL3
001189: 11,2103           02663                                    R2VEC
001190: 11,2104           03472                           STORE    RTARG1
001191: 11,2105           63345        INITVEL3           DLOAD    PDVL                                  #                                    (PL 2D)
001192: 11,2106           26007                                    MUEARTH                               #  POSITIVE VALUE
001193: 11,2107           02663                                    R2VEC
001194: 11,2110           63256                           UNIT     PDVL                                  #  2D = UNIT(R2VEC)                  (PL 8D)
001195: 11,2111           02655                                    R1VEC
001196: 11,2112           41456                           UNIT     PUSH                                  #  8D = UNIT(R1VEC)                 (PL 14D)
001197: 11,2113           57435                           VXV      VCOMP                                 #  -N = UNIT(R2VEC) X UNIT(R1VEC)
001198: 11,2114           00003                                    2D
001199: 11,2115           77606                           PUSH                                           #                                   (PL 20D)
001200: 11,2116           71350                           LXA,1    DLOAD


001202: 11,2117           02776                                    RTX1
001203: 11,2120           00023                                    18D
001204: 11,2121           62040                           BMN      INCR,1
001205: 11,2122           22124                                    +2
001206: 11,2123           77767                           DEC      -8         B-14
001207: 11,2124           67310                           INCR,1   SLOAD
001208: 11,2125           00012                                    10D
001209: 11,2126           00047                                    X1
001210: 11,2127           77230                           BHIZ     VLOAD                                 #                                   (PL 14D)
001211: 11,2130           22132                                    +2
001212: 11,2131           41476                           VCOMP    PUSH                                  #                                   (PL 20D)
001213: 11,2132           77775                           VLOAD                                          #                                   (PL 14D)
001214: 11,2133           50235                           VXV      DOT                                   #                                    (PL 2D)
001215: 11,2134           71244                           BPL      DLOAD                                 #                                    (PL 0D)
001216: 11,2135           22137                                    INITVEL4
001217: 11,2136           41476                           DCOMP    PUSH                                  #                                    (PL 2D)
001218: 11,2137           67154        INITVEL4           LXA,2    SXA,2
001219: 11,2140           00000                                    0D
001220: 11,2141           02672                                    GEOMSGN
001221:
001222:                                                                                                  #  SET INPUTS UP FOR LAMBERT
001223:
001224: 11,2142           45150                           LXA,1    CALL
001225: 11,2143           02776                                    RTX1
001226:
001227:                                                                                                  #   OPERATE THE LAMBERT CONIC ROUTINE (COASTFLT SUBROUTINE)
001228:


001231: 11,2144           25212                                    LAMBERT
001232:
001233:                                                                                                  #  ARRIVED AT SOLUTION IS GOOD ENOUGH ACCORDING TO SLIGHTLY WIDER BOUNDS.
001234:
001235: 11,2145           77214                           CLEAR    VLOAD
001236: 11,2146           00675                                    GUESSW
001237: 11,2147           02744                                    VVEC
001238:
001239:                                                                                                  #  STORE CALCULATED INITIAL VELOCITY REQUIRED IN VIPRIME
001240:
001241: 11,2150           16337                           STODL    VIPRIME                               #  INITIAL VELOCITY REQUIRED (+7)
001242:
001243:                                                                                                  #  IF NUMIT IS ZERO, CONTINUE AT INITVELB, OTHERWISE
001244:                                                                                                  #  SET UP INPUTS FOR ENCKE INTEGRATION (INTEGRVS).
001245:
001246: 11,2151           02702                                    VTARGTAG
001247: 11,2152           45030                           BHIZ     CALL
001248: 11,2153           22230                                    INITVEL7
001249: 11,2154           27414                                    INTSTALL
001250: 11,2155           43135                           SLOAD    CLEAR
001251: 11,2156           03000                                    RTX2
001252: 11,2157           00263                                    MOONFLAG
001253: 11,2160           43030                           BHIZ     SET
001254: 11,2161           22163                                    INITVEL5


001256: 11,2162           00063                                    MOONFLAG
001257: 11,2163           77775        INITVEL5           VLOAD
001258: 11,2164           02323                                    RINIT
001259: 11,2165           02655                           STORE    R1VEC
001260: 11,2166           25535                           STOVL    RCV
001261: 11,2167           02337                                    VIPRIME
001262: 11,2170           15543                           STODL    VCV
001263: 11,2171           03610                                    INTIME
001264: 11,2172           01517                           STORE    TET
001265: 11,2173           43015                           DAD      CLEAR
001266: 11,2174           03452                                    DELLT4
001267: 11,2175           01673                                    INTYPFLG
001268: 11,2176           34041                           STCALL   TDEC1
001269: 11,2177           27107                                    INTEGRVS
001270: 11,2200           77775                           VLOAD
001271: 11,2201           00025                                    VATT1
001272: 11,2202           02703                           STORE    VTARGET
001273:
001274:                                                                                                  #  IF ITERATION COUNTER (ITCTR) EQ NO. ITERATIONS (NUMIT), CONTINUE AT
001275:                                                                                                  #  INITVELC, OTHERWISE REITERATE LAMBERT AND ENCKE
001276:
001277: 11,2203           63154                           LXA,2    INCR,2
001278: 11,2204           03616                                    ITCTR
001279: 11,2205           00001                                    1D                                    #  INCREMENT ITCTR
001280: 11,2206           55134                           SXA,2    XSU,2
001281: 11,2207           03616                                    ITCTR
001282: 11,2210           02701                                    VTARGTAG
001283: 11,2211           46135                           SLOAD    BHIZ                                  #  IF SP(MPAC) EQ 0, CONTINUE AT INITVELC
001284: 11,2212           00050                                    X2
001285: 11,2213           22225                                    INITVEL6
001286:
001287:                                                                                                  #  OFFSET CONIC TARGET VECTOR
001288:
001289: 11,2214           52375                           VLOAD    VSU
001290: 11,2215           03472                                    RTARG1
001291: 11,2216           00017                                    RATT1
001292: 11,2217           77655                           VAD
001293: 11,2220           02663                                    R2VEC
001294: 11,2221           16663                           STODL    R2VEC
001295: 11,2222           03667                                    COZY4
001296: 11,2223           77650                           GOTO
001297: 11,2224           22062                                    INITVEL2                              #  CONTINUE ITERATING AT INITVEL2
001298:
001299:                                                                                                  #  COMPUTE THE DELTA VELOCITY
001300:
001301: 11,2225           77775        INITVEL6           VLOAD
001302: 11,2226           02663                                    R2VEC
001303: 11,2227           03472                           STORE    RTARG1
001304: 11,2230           52375        INITVEL7           VLOAD    VSU
001305: 11,2231           02337                                    VIPRIME
001306: 11,2232           02331                                    VINIT
001307: 11,2233           26366                           STOVL    DELVEET3                              #  DELVEET3 = VIPRIME-VINIT (+7)


001309: 11,2234           02703                                    VTARGET
001310: 11,2235           03566                           STORE    VTPRIME
001311: 11,2236           46135                           SLOAD    BHIZ
001312: 11,2237           03000                                    RTX2
001313: 11,2240           22255                                    INITVELX
001314: 11,2241           70575                           VLOAD    VSR2
001315: 11,2242           03566                                    VTPRIME
001316: 11,2243           27566                           STOVL    VTPRIME
001317: 11,2244           02337                                    VIPRIME
001318: 11,2245           77742                           VSR2
001319: 11,2246           26337                           STOVL    VIPRIME
001320: 11,2247           03472                                    RTARG1
001321: 11,2250           77742                           VSR2
001322: 11,2251           27472                           STOVL    RTARG1
001323: 11,2252           02366                                    DELVEET3
001324: 11,2253           77742                           VSR2
001325: 11,2254           02366                           STORE    DELVEET3
001326: 11,2255           70750        INITVELX           LXA,1    DLOAD*
001327: 11,2256           02776                                    RTX1
001328: 11,2257           10003                                    MUTABLE    -2,1
001329: 11,2260           41206                           PUSH     DMP
001330: 11,2261           02742                                    R1A
001331: 11,2262           56342                           SR1      DDV
001332: 11,2263           00041                                    R1
001333: 11,2264           17721                           STODL    MU/A
001334: 11,2265           77661                           SR
001335: 11,2266           20607                                    6
001336: 11,2267           03717                           STORE    MUASTEER
001337: 11,2270           77201                           SETPD    VLOAD
001338: 11,2271           00001                                    0D
001339: 11,2272           03472                                    RTARG1
001340: 11,2273           37444                           STCALL   RTARG
001341: 11,2274           03463                                    NORMEX
001342:
001343:                                                                                                  #  ..... END OF INITVEL ROUTINE .....
001344:


001346:                                                                                                  #  ..... MIDGIM .....
001347:
001348:                                                                                                  #  MOD NO. 0, BY WILLMAN, SUBROUTINE RENDGUID, LOG P34-P35, P74-P75
001349:                                                                                                  #  REVISION 03, 17 FEB 67
001350:
001351:                                                                                                  #  IF THE ACTIVE VEHICLE IS DOING THE COMPUTATION, MIDGIM COMPUTES
001352:                                                                                                  #  THE POSITIVE MIDDLE GIMBAL ANGLE OF THE ACTIVE VEHICLE TO THE INPUT
001353:                                                                                                  #  DELTA VELOCITY VECTOR (0D IN PUSH LIST), OTHERWISE
001354:                                                                                                  #  MIDGIM CONVERTS THE INPUT DELTA VELOCITY VECTOR FROM INERTIAL COORDIN-
001355:                                                                                                  #  ATES TO LOCAL VERTICAL COORDINATES OF THE ACTIVE VEHICLE.
001356:
001357:                                                                                                  #  .. INPUTS ..
001358:
001359:                                                                                                  #        NAME    MEANING                                         UNITS/SCALING/MODE
001360:
001361:                                                                                                  #        AVFLAG  INT FLAG - 0 IS CSM ACTIVE, 1 IS LEM ACTIVE                     BIT
001362:                                                                                                  #        RINIT   ACTIVE VEHICLE RADIUS VECTOR                    METERS/CSEC (+7) VT
001363:                                                                                                  #        VINIT   ACTIVE VEHICLE VELOCITY VECTOR                  METERS/CSEC (+7) VT
001364:                                                                                                  #        0D(PL)  ACTIVE VEHICLE DELTA VELOCITY VECTOR            METERS/CSEC (+7) VT
001365:
001366:                                                                                                  #  .. OUTPUTS ..
001367:
001368:                                                                                                  #     NAME       MEANING                                         UNITS/SCALING/MODE
001369:
001370:                                                                                                  #     +MGA       + MIDDLE GIMBAL ANGLE                           REVOLUTIONS (+0) DP
001371:                                                                                                  #     DELVLVC    DELTA VELOCITY VECTOR IN LV COORD.              METERS/CSEC (+7) VT
001372:                                                                                                  #     MGLVFLAG   INT FLAG - 0 IS +MGA COMPUTED, 1 IS DELVLVC COMP.       -       BIT
001373:
001374:                                                                                                  #  .. CALLING SEQUENCE ..
001375:
001376:                                                                                                  #        L       CALL
001377:                                                                                                  #        L+1             MIDGIM
001378:                                                                                                  #        L+2     (RETURN - ALWAYS)
001379:
001380:                                                                                                  #  .. NO SUBROUTINES CALLED ..
001381:
001382:                                                                                                  #  .. DEBRIS - ERASEABLE TEMPORARY USAGE
001383:
001384:                                                                                                  #        A,Q,L, PUSH LIST, MPAC.
001385:
001386:                                                                                                  #  .. ALARMS - NONE ..
001387:


001389:                                                                                                  #  MIDDLE GIMBAL ANGLE COMPUTATION.
001390:
001391: 06,2000                                           SETLOC   MIDDGIM
001392: 06,2000                                           BANK
001393:
001394: 06,3715                                           COUNT*   $$/MIDG
001395:
001396: 06,3715           20000 00000  HALFREV            2DEC     1          B-1
001397:
001398: 06,3717           53575        GET+MGA            VLOAD    UNIT                                  #  (PL 0D) V (+7) TO MPAC, UNITIZE UV (+1)
001399: 06,3720           77656                           UNIT
001400: 06,3721           72441                           DOT      SL1                                   #  DOT UV WITH Y(STABLE MEMBER) AND RESCALE
001401: 06,3722           01742                                    REFSMMAT   +6                         #  FROM +2 TO +1 FOR ASIN ROUTINE
001402: 06,3723           51136                           ARCSIN   BPL
001403: 06,3724           15730                                    SETMGA
001404: 06,3725           43215                           DAD      DAD                                   #  CONVERT -MGA TO +MGA BY
001405: 06,3726           15716                                    HALFREV                               #  ADDING ONE REVOLUTION
001406: 06,3727           15716                                    HALFREV
001407: 06,3730           02253        SETMGA             STORE    +MGA
001408: 06,3731           43414                           CLR      RVQ                                   #  CLEAR MGLVFLAG TO INDICATE +MGA CALC
001409: 06,3732           02675                                    MGLVFLAG                              #  AND EXIT
001410: 06,3733           53575        GET.LVC            VLOAD    UNIT                                  #  (PL 6D) R (+29) IN MPAC, UNITIZE UR
001411: 06,3734           02323                                    RINIT
001412: 06,3735           77676                           VCOMP                                          #  U(-R)
001413: 06,3736           00023                           STORE    18D                                   #  U(-R) TO 18D
001414: 06,3737           53435                           VXV      UNIT                                  #  U(-R)*V EQ V*U(R), U(V*R)
001415: 06,3740           02331                                    VINIT
001416: 06,3741           00015                           STORE    12D                                   #  U(V*R) TO 12D
001417: 06,3742           53435                           VXV      UNIT                                  #  U(V*R)*U(-R), U((V*R)*(-R))
001418: 06,3743           00023                                    18D
001419: 06,3744           24007                           STOVL    6D                                    #  TRANSFORMATION MATRIX IS IN 6D (+1)
001420: 06,3745           00001                                    0D                                    #  DELTA V (+7) IN 0D
001421: 06,3746           76521                           MXV      VSL1                                  #  CONVERT FROM INER COOR TO LV COOR (+8)
001422: 06,3747           00007                                    6D                                    #  AND SCALE +7 IN MPAC
001423: 06,3750           03434                           STORE    DELVLVC                               #  STORE IN DELVLVC (+7)
001424: 06,3751           43414                           SET      RVQ                                   #  SET MGLVFLAG TO INDICATE LVC CALC
001425: 06,3752           02475                                    MGLVFLAG                              #  AND EXIT
001426:
001427:                                                                                                  #  ..... END OF MIDGIM ROUTINE .....
001428:


001430: 10,2000                                           BANK     10
001431: 10,2000                                           SETLOC   SLCTMU
001432: 10,2000                                           BANK
001433: 10,2000                                           COUNT*   $$/MIDG
001434:
001435: 10,2000           77160        SELECTMU           AXC,1    AXT,2
001436: 10,2001           00002                                    2D
001437: 10,2002           00000                                    0D
001438: 10,2003           77614                           BOFF
001439: 10,2004           04343                                    CMOONFLG
001440: 10,2005           20011                                    SETMUER
001441: 10,2006           77160                           AXC,1    AXT,2
001442: 10,2007           00012                                    10D
001443: 10,2010           00002                                    2D
001444: 10,2011           66143        SETMUER            DLOAD*   SXA,1
001445: 10,2012           10011                                    MUTABLE    +4,1
001446: 10,2013           02776                                    RTX1
001447: 10,2014           22317                           STODL*   RTSR1/MU
001448: 10,2015           10003                                    MUTABLE    -2,1
001449: 10,2016           54214                           BOFF     SR
001450: 10,2017           04343                                    CMOONFLG
001451: 10,2020           20022                                    RTRNMU
001452: 10,2021           20607                                    6D
001453: 10,2022           02321        RTRNMU             STORE    RTMU
001454: 10,2023           43134                           SXA,2    CLEAR
001455: 10,2024           02777                                    RTX2
001456: 10,2025           01271                                    FINALFLG
001457: 10,2026           77650                           GOTO
001458: 10,2027           73606                                    VN1645
001459:


001461:                                                                                                  #  ..... PERIAPO .....
001462:
001463:                                                                                                  #  MOD NO -1                     LOG SECTION - P34-P35, P74-P75
001464:                                                                                                  #  MOD BY WHITE.P                DATE 18JAN68
001465:
001466:                                                                                                  #  FUNCTIONAL DESCRIPTION
001467:
001468:                                                                                                  #        THIS SUBROUTINE COMPUTES THE TWO BODY APOCENTER AND PERICENTER
001469:                                                                                                  #        ALTITUDES GIVEN THE POSITION AND VELOCITY VECTORS FOR A POINT ON
001470:                                                                                                  #        THE TRAJECTORY AND THE PRIMARY BODY.
001471:
001472:                                                                                                  #        SETRAD IS CALLED TO DETERMINE THE RADIUS OF THE PRIMARY BODY.
001473:
001474:                                                                                                  #        APSIDES IS CALLED TO SOLVE FOR THE TWO BODY RADII OF APOCENTER AND
001475:                                                                                                  #        PERICENTER AND THE ECCENTRICITY OF THE TRAJECTORY.
001476:
001477:                                                                                                  #  CALLING SEQUENCE
001478:
001479:                                                                                                  #        L       CALL
001480:                                                                                                  #        L+1             PERIAPO
001481:                                                                                                  #        L+2     (RETURN - ALWAYS)
001482:
001483:                                                                                                  #  INPUT
001484:
001485:                                                                                                  #        (1)     RVEC    POSITION VECTOR IN METERS
001486:                                                                                                  #                        SCALE FACTOR - EARTH +29, MOON +27
001487:                                                                                                  #        (2)     VVEC    VELOCITY VECTOR IN METERS/CENTISECOND
001488:                                                                                                  #                        SCALE FACTOR - EARTH +7, MOON +5
001489:                                                                                                  #        (3)     X1      PRIMARY BODY INDICATOR
001490:                                                                                                  #                        EARTH -2, MOON -10
001491:
001492:                                                                                                  #  OUTPUT
001493:
001494:                                                                                                  #        (1)     2D      APOCENTER RADIUS IN METERS
001495:                                                                                                  #                        SCALE FACTOR - EARTH +29, MOON +27
001496:                                                                                                  #        (2)     4D      APOCENTER ALTITUDE IN METERS
001497:                                                                                                  #                        SCALE FACTOR - EARTH +29, MOON P27
001498:                                                                                                  #        (3)     6D      PERICENTER RADIUS IN METERS
001499:                                                                                                  #                        SCALE FACTOR - EARTH +29, MOON +27
001500:                                                                                                  #        (4)     8D      PERICENTER ALTITUDE IN METERS
001501:                                                                                                  #                        SCALE FACTOR - EARTH +29, MOON +27
001502:                                                                                                  #        (5)     ECC     ECCENTRICITY OF CONIC TRAJECTORY
001503:                                                                                                  #                        SCALE FACTOR - +3
001504:                                                                                                  #        (6)     XXXALT  RADIUS OF THE PRIMARY BODY IN METERS
001505:                                                                                                  #                        SCALE FACTOR - EARTH +29, MOON +27
001506:                                                                                                  #        (7)     PUSHLOC EQUALS 10D
001507:
001508:                                                                                                  #  SUBROUTINES USED
001509:
001510:                                                                                                  #        SETRAD


001512:                                                                                                  #        APSIDES
001513:
001514: 23,2000                                           SETLOC   APOPERI
001515: 23,2000                                           BANK
001516:
001517: 23,2314                                           COUNT*   $$/PERAP
001518:
001519: 23,2314           00302 17755  RPAD               2DEC     6373338    B-29                       #  STANDARD RADIUS OF PAD 37-B.
001520:                                                                                                  #  = 20 909 901.57 FT
001521:
001522: 23,2316           53754        PERIAPO1           LXA,2    VSR*
001523: 23,2317           02777                                    RTX2
001524: 23,2320           57176                                    0,2
001525: 23,2321           26744                           STOVL    VVEC
001526: 23,2322           53750                           LXA,1    VSR*
001527: 23,2323           02776                                    RTX1
001528: 23,2324           57176                                    0,2
001529: 23,2325           02655                           STORE    RVEC
001530: 23,2326           45020        PERIAPO            STQ      CALL
001531: 23,2327           03463                                    NORMEX
001532: 23,2330           46344                                    SETRAD
001533: 23,2331           37671                           STCALL   XXXALT
001534: 23,2332           25674                                    APSIDES
001535: 23,2333           41401                           SETPD    PUSH                                  #  2D = APOCENTER RADIUS         B29 OR B27
001536: 23,2334           00003                                    2D
001537: 23,2335           65225                           DSU      PDDL                                  #  4D = APOGEE ALTITUDE          B29 OR B27
001538: 23,2336           03671                                    XXXALT
001539: 23,2337           00001                                    0D
001540: 23,2340           45206                           PUSH     DSU                                   #  6D = PERICENTER RADIUS        B29 OR B27
001541: 23,2341           03671                                    XXXALT
001542: 23,2342           52006                           PUSH     GOTO                                  #  8D = PERIGEE ALTITUDE         B29 OR B27
001543: 23,2343           03463                                    NORMEX
001544:


001546:                                                                                                  #  SETRAD
001547:
001548: 23,2344           41545        SETRAD             DLOAD    PUSH
001549: 23,2345           06315                                    RPAD
001550: 23,2346           63130                           SXA,1    INCR,2
001551: 23,2347           00047                                    X2
001552: 23,2350           00002                                    2D
001553: 23,2351           46135                           SLOAD    BHIZ
001554: 23,2352           00050                                    X2
001555: 23,2353           46357                                    SETRADX
001556: 23,2354           51575                           VLOAD    ABVAL
001557: 23,2355           02023                                    RLS
001558: 23,2356           77725                           PDDL
001559: 23,2357           43545        SETRADX            DLOAD    RVQ
001560:


001562:                                                                                                  #  PRECSET
001563:
001564: 23,2360           77620        PRECSET            STQ
001565: 23,2361           03463                                    NORMEX
001566: 23,2362           37574                           STCALL   TDEC2
001567: 23,2363           27057                                    LEMPREC
001568: 23,2364           77624                           CALL
001569: 23,2365           46376                                    LEMSTORE
001570: 23,2366           77745                           DLOAD
001571: 23,2367           03574                                    TDEC2
001572: 23,2370           34041                           STCALL   TDEC1
001573: 23,2371           27043                                    CSMPREC
001574: 23,2372           77624                           CALL
001575: 23,2373           46406                                    CSMSTORE
001576: 23,2374           77650                           GOTO
001577: 23,2375           03463                                    NORMEX
001578: 23,2376           43175        LEMSTORE           VLOAD    BOFF
001579: 23,2377           00001                                    RATT
001580: 23,2400           01352                                    AVFLAG
001581: 23,2401           46412                                    PASSIVE
001582: 23,2402           27536        ACTIVE             STOVL    RACT3
001583: 23,2403           00007                                    VATT
001584: 23,2404           03544                           STORE    VACT3
001585: 23,2405           77616                           RVQ
001586: 23,2406           43175        CSMSTORE           VLOAD    BOFF
001587: 23,2407           00001                                    RATT
001588: 23,2410           01352                                    AVFLAG
001589: 23,2411           46402                                    ACTIVE
001590: 23,2412           27552        PASSIVE            STOVL    RPASS3
001591: 23,2413           00007                                    VATT
001592: 23,2414           03560                           STORE    VPASS3
001593: 23,2415           77616                           RVQ
001594:


001596:                                                                                                  #  VECSHIFT
001597:
001598: 23,2416           53754        VECSHIFT           LXA,2    VSR*
001599: 23,2417           02777                                    RTX2
001600: 23,2420           57176                                    0,2
001601: 23,2421           63350                           LXA,1    PDVL
001602: 23,2422           02776                                    RTX1
001603: 23,2423           63257                           VSR*     PDVL
001604: 23,2424           57176                                    0,2
001605: 23,2425           77616                           RVQ
001606:


001608:                                                                                                  #  SHIFTR1
001609:
001610: 23,2426           53754        SHIFTR1            LXA,2    SL*
001611: 23,2427           02777                                    RTX2
001612: 23,2430           57576                                    0,2
001613: 23,2431           77616                           RVQ
001614:


001616:                                                                                                  #  PROGRAM DESCRIPTION
001617:                                                                                                  #  SUBROUTINE NAME       R36     OUT-OF-PLANE RENDEZVOUS ROUTINE
001618:                                                                                                  #  MOD NO. 0             DATE    22 DECEMBER 67
001619:                                                                                                  #  MOD BY N.M.NEVILLE    LOG SECTION EXTENDED VERBS
001620:                                                                                                  #  FUNCTIONAL DESCRIPTION
001621:
001622:                                                                                                  #  TO DISPLAY AT ASTRONAUT REQUEST LGC CALCULATED RENDEZVOUS
001623:                                                                                                  #  OUT-OF-PLANE PARAMETERS (Y, YDOT, PSI).  (REQUESTED BY DSKY).
001624:
001625:                                                                                                  #  CALLING SEQUENCE
001626:
001627:                                                                                                  #        ASTRONAUT REQUEST THROUGH DSKY V 90 E
001628:
001629:                                                                                                  #  SUBROUTINES CALLED
001630:
001631:                                                                                                  #        EXDSPRET
001632:                                                                                                  #        GOMARKF
001633:                                                                                                  #        CSMPREC
001634:                                                                                                  #        LEMPREC
001635:                                                                                                  #        SGNAGREE
001636:                                                                                                  #        LOADTIME
001637:
001638:                                                                                                  #  NORMAL EXIT MODES
001639:
001640:                                                                                                  #        ASTRONAUT REQUEST THROUGH DSKY TO TERMINATE PROGRAM V 34 E
001641:
001642:                                                                                                  #  ALARM OR ABORT EXIT MODES
001643:
001644:                                                                                                  #        NONE
001645:
001646:                                                                                                  #  OUTPUT
001647:
001648:                                                                                                  #        DECIMAL DISPLAY OF TIME, Y, YDOT AND PSI
001649:
001650:                                                                                                  #        DISPLAYED VALUES Y, YDOT, AND PSI, ARE STORED IN ERASABLE
001651:                                                                                                  #        REGISTERS RANGE, RRATE AND RTHETA RESPECTIVELY.
001652:
001653:                                                                                                  #  ERASABLE INITIALIZATION REQUIRED
001654:
001655:                                                                                                  #        CSM AND LEM STATE VECTORS
001656:
001657:                                                                                                  #  DEBRIS
001658:
001659:                                                                                                  #        CENTRALS A,Q,L
001660:                                                                                                  #        OTHER THOSE USED BY THE ABOVE LISTED SUBROUTINES
001661:
001662: 20,2115                                           BANK     20
001663: 04,2000                                           SETLOC   R36LM
001664: 04,2000                                           BANK


001666: 04,2656  E4,1606                                  EBANK=   RPASS36
001667:
001668: 04,2656                                           COUNT*   $$/R36
001669:
001670: 04,2656           22007        R36                ZL
001671: 04,2657           34755                           CAF      ZERO                                  #  SET TIME OF EVENT TO ZERO FOR FIRST
001672: 04,2660           53052                           DXCH     DSPTEMX                               #  DISPLAY
001673: 04,2661           33011                           CAF      V06N16N
001674: 04,2662           04616                           TC       BANKCALL
001675: 04,2663           20334                           CADR     GOMARKF
001676: 04,2664           15472                           TCF      ENDEXT                                #  TERMINATE
001677: 04,2665           12667                           TCF      +2                                    #  PROCEED
001678: 04,2666           12661                           TCF      -5                                    #  RECYCLE FOR ASTRONAUT INPUT TIME
001679: 04,2667           53052                           DXCH     DSPTEMX
001680: 04,2670           00006                           EXTEND
001681: 04,2671           13000                           BZF      LREGCHK                               #  A-REG ZERO GOTO CHECK L-REG FOR ZERO
001682: 04,2672           52155        ASTROTIM           DXCH     MPAC                                  #  A-REG NON-ZERO, TIME = ASTRO INPUT TIME
001683: 04,2673           06037                           TC       INTPRET
001684: 04,2674           77634                           RTB
001685: 04,2675           21716                                    DPMODE
001686: 04,2676           34041        R36INT             STCALL   TDEC1
001687: 04,2677           27043                                    OTHPREC
001688: 04,2700           63375                           VLOAD    PDVL
001689: 04,2701           00007                                    VATT
001690: 04,2702           00001                                    RATT                                  #  -
001691: 04,2703           02207                           STORE    RPASS36                               #  R
001692: 04,2704           63256                           UNIT     PDVL                                  #   P
001693: 04,2705           53435                           VXV      UNIT
001694: 04,2706           77626                           STADR                                          #  -
001695: 04,2707           61562                           STODL    UNP36                                 #  U
001696: 04,2710           00015                                    TAT
001697: 04,2711           34041                           STCALL   TDEC1
001698: 04,2712           27057                                    THISPREC
001699: 04,2713           63375                           VLOAD    PDVL                                  #                  -
001700: 04,2714           00007                                    VATT                                  #  VELOCITY VECTOR V             00D
001701: 04,2715           00001                                    RATT                                  #                   A
001702: 04,2716           77725                           PDDL
001703: 04,2717           00015                                    TAT                                   #  SAVE TIME IN LOCATION 30D FOR REDISPLAY
001704: 04,2720           24037                           STOVL    30D                                   #                  -
001705: 04,2721           41406                           PUSH     PUSH                                  #  POSITION VECTOR R  IN 06D AND 12D
001706: 04,2722           63245                           BVSU     PDVL                                  #                   A   -   -
001707: 04,2723           02207                                    RPASS36                               #  LINE OF SIGHT VECTOR R - R    12D
001708: 04,2724           72441                           DOT      SL1                                   #                        P   A
001709: 04,2725           02215                                    UNP36                                 #      -   -
001710: 04,2726           26201                           STOVL    RANGE                                 #  Y = U . R
001711: 04,2727           00001                                    00D                                   #           A
001712: 04,2730           72441                           DOT      SL1
001713: 04,2731           02215                                    UNP36                                 #  .   -   -
001714: 04,2732           26203                           STOVL    RRATE                                 #  Y = U . V
001715: 04,2733           00007                                    06D                                   #  -        A  -


001717: 04,2734           41456                           UNIT     PUSH                                  #  U  = UNIT ( R  )              18D
001718: 04,2735           47235                           VXV      VXV                                   #   RA          A
001719: 04,2736           00001                                    00D                                   #   -    -     -     -
001720: 04,2737           00023                                    18D                                   #  (U  X V ) X U   = U
001721: 04,2740           53552                           VSL2     UNIT                                  #    RA   A     RA    A
001722: 04,2741           77656                           UNIT
001723: 04,2742           24001                           STOVL    00D                                   #  UNIT HORIZONTAL IN FORWARD DIR. 00D
001724: 04,2743           00023                                    18D
001725: 04,2744           74241                           DOT      VXSC                                  #  -
001726: 04,2745           00015                                    12D                                   #  U
001727: 04,2746           77752                           VSL2                                           #   L
001728: 04,2747           53445                           BVSU     UNIT
001729: 04,2750           77656                           UNIT
001730: 04,2751           50206                           PUSH     DOT                                   #  LOS PROJECTED INTO HORIZONTAL  12D
001731: 04,2752           00001                                    00D                                   #  PLANE
001732: 04,2753           65552                           SL1      ARCCOS                                #               -   -
001733: 04,2754           26205                           STOVL    RTHETA                                #  PSI = ARCCOS(U . U )
001734: 04,2755           50235                           VXV      DOT                                   #                A   L
001735: 04,2756           00001                                    00D
001736: 04,2757           71244                           BPL      DLOAD
001737: 04,2760           10765                                    R36TAG2
001738: 04,2761           24020                                    LODPMAX
001739: 04,2762           77625                           DSU
001740: 04,2763           02205                                    RTHETA
001741: 04,2764           02205                           STORE    RTHETA
001742: 04,2765           47145        R36TAG2            DLOAD    RTB
001743: 04,2766           00037                                    30D
001744: 04,2767           21612                                    SGNAGREE
001745: 04,2770           01052                           STORE    DSPTEMX
001746: 04,2771           77776                           EXIT
001747: 04,2772           33012                           CAF      V06N90N                               #  DISPLAY Y, YDOT, AND PSI
001748: 04,2773           04616                           TC       BANKCALL
001749: 04,2774           20334                           CADR     GOMARKF
001750: 04,2775           15472                           TCF      ENDEXT                                #  TERMINATE
001751: 04,2776           15472                           TCF      ENDEXT                                #  PROCEED, END OF PROGRAM
001752: 04,2777           12661                           TCF      R36        +3                         #  REDISPLAY OUTPUT
001753: 04,3000           56001        LREGCHK            XCH      L
001754: 04,3001           00006                           EXTEND
001755: 04,3002           13005                           BZF      ENTTIM2                               #  L-REG ZERO, SET TIME = PRESENT TIME
001756: 04,3003           56001                           XCH      L                                     #  L-REG NON ZERO, TIME = ASTRO INPUT TIME
001757: 04,3004           12672                           TCF      ASTROTIM
001758: 04,3005           06037        ENTTIM2            TC       INTPRET
001759: 04,3006           52034                           RTB      GOTO
001760: 04,3007           21573                                    LOADTIME
001761: 04,3010           10676                                    R36INT
001762: 04,3011           01420        V06N16N            VN       00616
001763: 04,3012           01532        V06N90N            VN       00690

End of include-file P34-P35,_P74-P75.agc.  Parent file is MAIN.agc


