
Source Code


000002:                                                                                                  ## Copyright:   Public domain.
000003:                                                                                                  ## Filename:    P70-P71.agc
000004:                                                                                                  ## Purpose:     A section of Luminary revision 97.
000005:                                                                                                  ##              It is part of the reconstructed source code for the
000006:                                                                                                  ##              original release of the flight software for the Lunar
000007:                                                                                                  ##              Module's (LM) Apollo Guidance Computer (AGC) for Apollo 11.
000008:                                                                                                  ##              The code has been recreated from a copy of Luminary 99
000009:                                                                                                  ##              revision 001, using asterisks indicating changed lines in
000010:                                                                                                  ##              the listing and Luminary Memos #83 and #85, which list
000011:                                                                                                  ##              changes between Luminary 97 and 98, and 98 and 99. The
000012:                                                                                                  ##              code has been adapted such that the resulting bugger words
000013:                                                                                                  ##              exactly match those specified for Luminary 97 in NASA drawing
000014:                                                                                                  ##              2021152D, which gives relatively high confidence that the
000015:                                                                                                  ##              reconstruction is correct.
000016:                                                                                                  ## Reference:   pp. 829-837
000017:                                                                                                  ## Assembler:   yaYUL
000018:                                                                                                  ## Contact:     Ron Burkey <info@sandroid.org>.
000019:                                                                                                  ## Website:     www.ibiblio.org/apollo/index.html
000020:                                                                                                  ## Mod history: 2019-07-28 MAS  Created from Luminary 99.
000021:


000023: 21,2006                                           BANK     21
000024: 21,2000                                           SETLOC   R11
000025: 21,2000                                           BANK
000026:
000027: 21,2006  E7,1515                                  EBANK=   DVCNTR
000028: 21,2006                                           COUNT*   $$/R11
000029:
000030: 21,2006           40103        R10,R11            CS       FLAGWRD7                              #  IS SERVICER STILL RUNNING?
000031: 21,2007           74747                           MASK     AVEGFBIT
000032: 21,2010           10000                           CCS      A
000033: 21,2011           15261                           TCF      TASKOVER                              #  LET AVGEND TAKE CARE OF GROUP 2.
000034: 21,2012           11056                           CCS      PIPCTR
000035: 21,2013           12015                           TCF      +2
000036: 21,2014           12130                           TCF      LRHTASK                               #  LAST PASS. CALL LRHTASK.
000037: 21,2015           55714                 +2        TS       PIPCTR1
000038:
000039: 21,2016  E7,1714               PIPCTR1            =        LADQSAVE
000040: 21,2016     1056               PIPCTR             =        PHSPRDT2
000041: 21,2016           36010                           CAF      OCT31
000042: 21,2017           05173                           TC       TWIDDLE
000043: 21,2020           02006                           ADRES    R10,R11
000044: 21,2021           41303        R10,R11A           CS       IMODES33                              #  IF LAMP TEST, DO NOT CHANGE LR LITES.
000045: 21,2022           74753                           MASK     BIT1
000046: 21,2023           00006                           EXTEND
000047: 21,2024           12042                           BZF      10,11
000048:
000049: 21,2025           70107        FLASHH?            MASK     FLGWRD11                              #  C(A) = 1 = HFLASH BIT
000050: 21,2026           00006                           EXTEND
000051: 21,2027           12033                           BZF      FLASHV?                               #  H FLASH OFF, SO LEAVE ALONE
000052:
000053: 21,2030           34747                           CA       HLITE
000054: 21,2031           54001                           TS       L
000055: 21,2032           04606                           TC       FLIP                                  #  FLIP H LITE
000056:
000057: 21,2033           34752        FLASHV?            CA       VFLSHBIT                              #  VFLASHBIT MUST BE BIT 2.
000058: 21,2034           70107                           MASK     FLGWRD11
000059: 21,2035           00006                           EXTEND
000060: 21,2036           12042                           BZF      10,11                                 #  V FLASH OFF
000061:
000062: 21,2037           34751                           CA       VLITE
000063: 21,2040           54001                           TS       L
000064: 21,2041           04606                           TC       FLIP                                  #  FLIP V LITE
000065:
000066: 21,2042           30105        10,11              CA       FLAGWRD9                              #  IS THE LETABORT FLAG SET ?
000067: 21,2043           74743                           MASK     LETABBIT
000068: 21,2044           00006                           EXTEND
000069: 21,2045           12154                           BZF      LANDISP                               #  NO. PROCEED TO R10.
000070:
000071: 21,2046           41011        P71NOW?            CS       MODREG                                #  YES.  ARE WE IN P71 NOW?


000073: 21,2047           62107                           AD       1DEC71
000074: 21,2050           00006                           EXTEND
000075: 21,2051           12154                           BZF      LANDISP                               #  YES.  PROCEED TO R10.
000076:
000077: 21,2052           00006                           EXTEND                                         #  NO. IS AN ABORT STAGE COMMANDED?
000078: 21,2053           00030                           READ     CHAN30
000079: 21,2054           40000                           COM
000080: 21,2055           54001                           TS       L
000081: 21,2056           74750                           MASK     BIT4
000082: 21,2057           10000                           CCS      A
000083: 21,2060           12076                           TCF      P71A                                  #  YES.
000084:
000085: 21,2061           41011        P70NOW?            CS       MODREG                                #  NO. ARE WE IN P70 NOW?
000086: 21,2062           62106                           AD       1DEC70
000087: 21,2063           00006                           EXTEND
000088: 21,2064           12154                           BZF      LANDISP                               #  YES.  PROCEED TO R10.
000089:
000090: 21,2065           30001                           CA       L                                     #  NO.  IS AN ABORT COMMANDED?
000091: 21,2066           74753                           MASK     BIT1
000092: 21,2067           10000                           CCS      A
000093: 21,2070           12073                           TCF      P70A                                  #  YES.
000094: 21,2071           12154                           TCF      LANDISP                               #  NO.  PROCEED TO R10.
000095:
000096: 21,2072                                           COUNT*   $$/P70
000097:
000098: 21,2072           02110        P70                TC       LEGAL?
000099: 21,2073           44755        P70A               CS       ZERO
000100: 21,2074           12077                           TCF      +3
000101: 21,2075           02110        P71                TC       LEGAL?
000102: 21,2076           34752        P71A               CAF      TWO
000103: 21,2077           54002                 +3        TS       Q
000104: 21,2100           00004                           INHINT
000105: 21,2101           00006                           EXTEND
000106: 21,2102           32105                           DCA      CNTABTAD
000107: 21,2103           52006                           DTCB
000108:
000109: 21,2104  E7,1515                                  EBANK=   DVCNTR
000110: 21,2104           03402 12067  CNTABTAD           2CADR    CONTABRT
000111:
000112: 21,2106           00106        1DEC70             DEC      70         B-14
000113: 21,2107           00107        1DEC71             DEC      71         B-14
000114:
000115: 05,3402                                           BANK     05
000116: 05,2000                                           SETLOC   ABORTS1
000117: 05,2000                                           BANK
000118: 05,3402                                           COUNT*   $$/P70
000119:
000120: 05,3402           33405        CONTABRT           CAF      ABRTJADR
000121: 05,3403           54017                           TS       BRUPT
000122: 05,3404           50017                           RESUME


000124:
000125: 05,3405           13406        ABRTJADR           TCF      ABRTJASK
000126:
000127: 05,3406           33477        ABRTJASK           CAF      OCTAL27
000128: 05,3407           60002                           AD       Q
000129: 05,3410           54001                           TS       L
000130: 05,3411           40000                           COM
000131: 05,3412           52761                           DXCH     -PHASE4
000132: 05,3413           50002                           INDEX    Q
000133: 05,3414           33476                           CAF      MODE70
000134: 05,3415           55011                           TS       MODREG
000135:
000136: 05,3416           55163                           TS       DISPDEX                               #  INSURE DISPDEX IS POSITIVE.
000137:
000138: 05,3417           10002                           CCS      Q                                     #  SET APSFLAG IF P71.
000139: 05,3420           40106                           CS       FLGWRD10                              #  SET APSFLAG PRIOR TO THE ENEMA.
000140: 05,3421           74737                           MASK     APSFLBIT
000141: 05,3422           26106                           ADS      FLGWRD10
000142: 05,3423           43501                           CS       DAPBITS                               #  DAPBITS = OCT 640 = BITS 6, 8, 9
000143: 05,3424           70111                           MASK     DAPBOOLS                              #  (TURN OFF: ULLAGE, DRIFT, AND XOVINHIB )
000144: 05,3425           54111                           TS       DAPBOOLS
000145:
000146: 05,3426           40101                           CS       FLAGWRD5                              #  SET ENGONFLG.
000147: 05,3427           74745                           MASK     ENGONBIT
000148: 05,3430           26101                           ADS      FLAGWRD5
000149:
000150: 05,3431           44355                           CS       PRIO30                                #  INSURE THAT THE ENGINE IS ON, IF ARMED.
000151: 05,3432           00006                           EXTEND
000152: 05,3433           02011                           RAND     DSALMOUT
000153: 05,3434           64737                           AD       BIT13
000154: 05,3435           00006                           EXTEND
000155: 05,3436           01011                           WRITE    DSALMOUT
000156:
000157: 05,3437           34735                           CAF      LRBYBIT                               #  TERMINATE R12.
000158: 05,3440           54107                           TS       FLGWRD11
000159:
000160: 05,3441           40074                           CS       FLAGWRD0                              #  SET R10FLAG TO SUPPRESS OUTPUTS TO THE
000161: 05,3442           74752                           MASK     R10FLBIT                              #  CROSS-POINTER DISPLAY.
000162: 05,3443           26074                           ADS      FLAGWRD0                              #  THE FOLLOWING ENEMA WILL REMOVE THE
000163:                                                                                                  #  DISPLAY INERTIAL DATA OUTBIT.
000164: 05,3444           06011                           TC       CLRADMOD                              #  INSURE RADMODES PROPERLY SET FOR R29.
000165:
000166: 05,3445           00006                           EXTEND                                         #  LOAD TEVENT FOR THE DOWNLINK.
000167: 05,3446           30025                           DCA      TIME2
000168: 05,3447           53345                           DXCH     TEVENT
000169:
000170: 05,3450           00006                           EXTEND
000171: 05,3451           33475                           DCA      SVEXITAD
000172: 05,3452           53253                           DXCH     AVGEXIT
000173:


000175: 05,3453           00006                           EXTEND
000176: 05,3454           34755                           DCA      NEG0
000177: 05,3455           52753                           DXCH     -PHASE1
000178:
000179: 05,3456           00006                           EXTEND
000180: 05,3457           34755                           DCA      NEG0
000181: 05,3460           52757                           DXCH     -PHASE3
000182:
000183: 05,3461           00006                           EXTEND
000184: 05,3462           34755                           DCA      NEG0
000185: 05,3463           52765                           DXCH     -PHASE6
000186:
000187: 05,3464           36245                           CAF      THREE                                 #  SET UP 4.3SPOT FOR GOABORT
000188: 05,3465           54001                           TS       L
000189: 05,3466           40000                           COM
000190: 05,3467           52761                           DXCH     -PHASE4
000191:
000192: 05,3470           37730                           CAF      OCT37774                              #  SET T5RUPT TO CALL DAPIDLER IN
000193: 05,3471           54030                           TS       TIME5                                 #  40 MILLISECONDS.
000194:
000195: 05,3472           04635                           TC       POSTJUMP
000196: 05,3473           12765                           CADR     ENEMA
000197:
000198: 05,3474  E7,1515                                  EBANK=   DVCNTR
000199: 05,3474           03770 64067  SVEXITAD           2CADR    SERVEXIT
000200:
000201: 05,3476           00106        MODE70             DEC      70         B-14
000202: 05,3477           00027        OCTAL27            OCT      27
000203: 05,3500           00107        MODE71             DEC      71         B-14
000204:
000205: 05,3501           00640        DAPBITS            OCT      00640
000206:
000207: 32,3540                                           BANK     32
000208: 32,2000                                           SETLOC   ABORTS
000209: 32,2000                                           BANK
000210:
000211: 32,3540                                           COUNT*   $$/P70
000212:
000213: 32,3540           06037        GOABORT            TC       INTPRET
000214: 32,3541           77624                           CALL
000215: 32,3542           61104                                    INITCDUW
000216: 32,3543           77776                           EXIT
000217: 32,3544           34751                           CAF      FOUR
000218: 32,3545           55515                           TS       DVCNTR
000219:
000220: 32,3546           33764                           CAF      WHICHADR
000221: 32,3547           55455                           TS       WHICH
000222:
000223: 32,3550           05516                           TC       DOWNFLAG
000224: 32,3551           00214                           ADRES    FLRCS


000226: 32,3552           05516                           TC       DOWNFLAG
000227: 32,3553           00175                           ADRES    FLUNDISP
000228:
000229: 32,3554           05516                           TC       DOWNFLAG
000230: 32,3555           00161                           ADRES    IDLEFLAG
000231:
000232: 32,3556           05504                           TC       UPFLAG                                #  INSURE 4-JET TRANSLATION CAPABILITY.
000233: 32,3557           00307                           ADRES    ACC4-2FL
000234:
000235: 32,3560           05321                           TC       CHECKMM
000236: 32,3561           00106        70DEC              DEC      70         B-14
000237: 32,3562           13707                           TCF      P71RET
000238:
000239: 32,3563           06037        P70INIT            TC       INTPRET
000240: 32,3564           77624                           CALL
000241: 32,3565           65737                                    TGOCOMP
000242: 32,3566           54345                           DLOAD    SL
000243: 32,3567           34003                                    MDOTDPS
000244: 32,3570           20205                                    4D
000245: 32,3571           77665                           BDDV
000246: 32,3572           01245                                    MASS
000247: 32,3573           16271                           STODL    TBUP
000248: 32,3574           01245                                    MASS
000249: 32,3575           70471                           DDV      SR1
000250: 32,3576           16015                                    K(1/DV)
000251: 32,3577           03635                           STORE    1/DV1
000252: 32,3600           03637                           STORE    1/DV2
000253: 32,3601           03641                           STORE    1/DV3
000254: 32,3602           77665                           BDDV
000255: 32,3603           25763                                    K(AT)
000256: 32,3604           16263                           STODL    AT
000257: 32,3605           34005                                    DTDECAY
000258: 32,3606           54276                           DCOMP    SL
000259: 32,3607           20214                                    11D
000260: 32,3610           02267                           STORE    TTO
000261: 32,3611           57535                           SLOAD    DCOMP
000262: 32,3612           26002                                    DPSVEX
000263: 32,3613           77702                           SR2
000264: 32,3614           02265                           STORE    VE                                    #  INITIALIZE DPS EXHAUST VELOCITY
000265: 32,3615           45014                           SET      CALL
000266: 32,3616           04467                                    FLAP
000267: 32,3617           60300                                    COMMINIT
000268: 32,3620           52160                           AXC,1    GOTO                                  #  RETURN HERE IN P70, SE X1 FOR DPS COEFF.
000269: 32,3621           00000                                    0D
000270: 32,3622           65625                                    BOTHPOLY
000271: 32,3623           77760        INJTARG            AXC,1                                          #  RETURN HERE IN P71, SET X1 FOR APS COEFF
000272: 32,3624           00010                                    8D
000273: 32,3625           41343        BOTHPOLY           DLOAD*   DMP                                   #  TGO D
000274: 32,3626           02551                                    ABTCOF,1
000275: 32,3627           03517                                    TGO


000277: 32,3630           41213                           DAD*     DMP
000278: 32,3631           02553                                    ABTCOF     +2,1                       #  TGO(C+TGO D)
000279: 32,3632           03517                                    TGO
000280: 32,3633           41213                           DAD*     DMP
000281: 32,3634           02555                                    ABTCOF     +4,1                       #  TGO(B+TGO(C + TGO D))
000282: 32,3635           03517                                    TGO
000283: 32,3636           77613                           DAD*
000284: 32,3637           02557                                    ABTCOF     +6,1                       #  A+TGO(B+TGO(C+TGO D))
000285: 32,3640           02277                           STORE    ZDOTD                                 #  STORE TENTATIVELY IN ZDOTD
000286: 32,3641           51025                           DSU      BPL                                   #  CHECK AGAINST MINIMUM
000287: 32,3642           02571                                    VMIN
000288: 32,3643           65647                                    UPRATE                                #  IF BIG ENOUGH, LEAVE ZDOTD AS IS .
000289: 32,3644           77745                           DLOAD
000290: 32,3645           02571                                    VMIN
000291: 32,3646           02277                           STORE    ZDOTD                                 #  IF TOO SMALL, REPLACE WITH MINIMUM.
000292: 32,3647           77745        UPRATE             DLOAD
000293: 32,3650           02575                                    ABTRDOT
000294: 32,3651           36273                           STCALL   RDOTD                                 #  INITIALIZE RDOTD.
000295: 32,3652           57312                                    YCOMP                                 #  COMPUTE Y
000296: 32,3653           45246                           ABS      DSU
000297: 32,3654           02573                                    YLIM                                  #  /Y/-DYMAX
000298: 32,3655           75240                           BMN      SIGN                                  #  IF <0, XR<.5DEG, LEAVE YCO AT 0
000299: 32,3656           65661                                    YOK                                   #  IF >0, FIX SIGN OF DEFICIT, THIS IS YCO.
000300: 32,3657           02335                                    Y
000301: 32,3660           03633                           STORE    YCO
000302: 32,3661           45345        YOK                DLOAD    DSU
000303: 32,3662           03633                                    YCO
000304: 32,3663           02335                                    Y                                     #  COMPUTE XRANGE IN CASE ASTRONAUT WANTS
000305: 32,3664           77661                           SR
000306: 32,3665           20606                                    5D
000307: 32,3666           03643                           STORE    XRANGE                                #  TO LOOK.
000308: 32,3667           77414        UPTHROT            SET      EXIT
000309: 32,3670           04461                                    FLVR
000310:
000311: 32,3671           05504                           TC       UPFLAG                                #  SET ROTFLAG
000312: 32,3672           00220                           ADRES    ROTFLAG
000313:
000314: 32,3673           03746                           TC       THROTUP
000315:
000316: 32,3674           05353                           TC       PHASCHNG
000317: 32,3675           04024                           OCT      04024
000318:
000319: 32,3676           04616                 -3        TC       BANKCALL                              #  VERIFY THAT THE PANEL SWITCHES
000320: 32,3677           73747                           CADR     P40AUTO                               #  ARE PROPERLY SET.
000321:
000322: 32,3700           03746                           TC       THROTUP
000323:
000324: 32,3701           00006        UPTHROT1           EXTEND                                         #  SET SERVICER TO CALL ASCENT GUIDANCE.
000325: 32,3702           33766                           DCA      ATMAGAD
000326: 32,3703           53253                           DXCH     AVGEXIT


000328: 32,3704           05353        GRP4OFF            TC       PHASCHNG                              #  TERMINATE USE OF GROUP 4.
000329: 32,3705           00004                           OCT      00004
000330:
000331: 32,3706           15155                           TCF      ENDOFJOB
000332:
000333: 32,3707           05516        P71RET             TC       DOWNFLAG
000334: 32,3710           00215                           ADRES    LETABORT
000335:
000336: 32,3711           36000                           CAF      THRESH2                               #  SET DVMON THRESHOLD TO THE ASCENT VALUE.
000337: 32,3712           55251                           TS       DVTHRUSH
000338:
000339: 32,3713           06037                           TC       INTPRET
000340: 32,3714           45014                           BON      CALL
000341: 32,3715           04707                                    FLAP
000342: 32,3716           65724                                    OLDTIME
000343: 32,3717           65737                                    TGOCOMP                               #  IF FLAP=0, TGO=T-TIG
000344: 32,3720           52131                           SSP      GOTO
000345: 32,3721           00053                                    QPRET
000346: 32,3722           65623                           CADR     INJTARG
000347: 32,3723           60254                                    P12INIT                               #  WILL EXIT P12INIT TO INJTARG
000348: 32,3724           72545        OLDTIME            DLOAD    SL1                                   #  IF FLAP=1,TGO=2 TGO
000349: 32,3725           03517                                    TGO
000350: 32,3726           37502                           STCALL   TGO1
000351: 32,3727           60254                                    P12INIT
000352: 32,3730           77776                           EXIT
000353: 32,3731           05353                           TC       PHASCHNG
000354: 32,3732           04024                           OCT      04024
000355:
000356: 32,3733           00006                           EXTEND
000357: 32,3734           31502                           DCA      TGO1
000358: 32,3735           53517                           DXCH     TGO
000359: 32,3736           13676                           TCF      UPTHROT1   -3
000360:
000361: 32,3737  E7,1501               TGO1               =        VGBODY
000362:                                                                                                  #  ************************************************************************
000363:
000364: 21,2110                                           BANK     21
000365: 21,2000                                           SETLOC   R11
000366: 21,2000                                           BANK
000367: 21,2110                                           COUNT*   $$/P70
000368:
000369: 21,2110           40775        LEGAL?             CS       MMNUMBER                              #  IS THE DESIRED PGM ALREADY IN PROGRESS?
000370: 21,2111           61011                           AD       MODREG
000371: 21,2112           00006                           EXTEND
000372: 21,2113           12124                           BZF      ABORTALM
000373:
000374: 21,2114           40105                           CS       FLAGWRD9                              #  ARE THE ABORTS ENABLED?
000375: 21,2115           74743                           MASK     LETABBIT
000376: 21,2116           10000                           CCS      A


000378: 21,2117           12124                           TCF      ABORTALM
000379:
000380: 21,2120           30103                           CA       FLAGWRD7                              #  IS SERVICER ON THE AIR?
000381: 21,2121           74747                           MASK     AVEGFBIT
000382: 21,2122           10000                           CCS      A
000383: 21,2123           00002                           TC       Q                                     #  YES. ALL IS WELL.
000384: 21,2124           04364        ABORTALM           TC       FALTON
000385: 21,2125           04457                           TC       RELDSP
000386: 21,2126           04635                           TC       POSTJUMP
000387: 21,2127           21050                           CADR     PINBRNCH
000388:
000389: 32,3737                                           BANK     32
000390: 32,2000                                           SETLOC   ABORTS
000391: 32,2000                                           BANK
000392:
000393: 32,3737                                           COUNT*   $$/P70
000394:
000395:                                                                                                  #  ************************************************************************
000396:
000397: 32,3737           45234        TGOCOMP            RTB      DSU
000398: 32,3740           21573                                    LOADTIME
000399: 32,3741           03442                                    TIG
000400: 32,3742           77661                           SL
000401: 32,3743           20214                                    11D
000402: 32,3744           03517                           STORE    TGO
000403: 32,3745           77616                           RVQ
000404:
000405:                                                                                                  #  ************************************************************************
000406:
000407: 32,3746           34737        THROTUP            CAF      BIT13
000408: 32,3747           54055                           TS       THRUST
000409: 32,3750           34750                           CAF      BIT4
000410: 32,3751           00006                           EXTEND
000411: 32,3752           05014                           WOR      CHAN14
000412: 32,3753           00002                           TC       Q
000413:
000414:                                                                                                  #  ************************************************************************
000415:
000416: 32,3754           00000 01750  10SECS             2DEC     1000       B-28
000417: 32,3756           00021 33400  HINJECT            2DEC     18288      B-24                       #  60,000 FEET EXPRESSED IN METERS.
000418: 32,3760           11021 00000  (TGO)A             2DEC     37000      B-17
000419: 32,3762           00507 25605  K(AT)              2DEC     .02                                   #  SCALING CONSTANT
000420: 32,3764           02112        WHICHADR           REMADR   ABRTABLE
000421:
000422:                                                                                                  #  ************************************************************************


000424: 32,3765  E7,1515                                  EBANK=   DVCNTR
000425: 32,3765           03642 70067  ATMAGAD            2CADR    ATMAG
000426: 32,3767           00003        ORBMANAD           ADRES    ORBMANUV
000427:

End of include-file P70-P71.agc.  Parent file is MAIN.agc


