
Source Code


000002:                                                                                                  ## Copyright:   Public domain.
000003:                                                                                                  ## Filename:    P76.agc
000004:                                                                                                  ## Purpose:     A section of Luminary revision 97.
000005:                                                                                                  ##              It is part of the reconstructed source code for the
000006:                                                                                                  ##              second release of the flight software for the Lunar
000007:                                                                                                  ##              Module's (LM) Apollo Guidance Computer (AGC) for Apollo 11.
000008:                                                                                                  ##              It was created to fix two incorrect ephemeris constants in
000009:                                                                                                  ##              Luminary 96, as described by anomaly report LNY-59.
000010:                                                                                                  ##              The code has been recreated from a copy of Luminary 99
000011:                                                                                                  ##              revision 001, using asterisks indicating changed lines in
000012:                                                                                                  ##              the listing and Luminary Memos #83 and #85, which list
000013:                                                                                                  ##              changes between Luminary 97 and 98, and 98 and 99. The
000014:                                                                                                  ##              code has been adapted such that the resulting bugger words
000015:                                                                                                  ##              exactly match those specified for Luminary 97 in NASA drawing
000016:                                                                                                  ##              2021152D, which gives relatively high confidence that the
000017:                                                                                                  ##              reconstruction is correct.
000018:                                                                                                  ## Reference:   pp. 709-711
000019:                                                                                                  ## Assembler:   yaYUL
000020:                                                                                                  ## Contact:     Ron Burkey <info@sandroid.org>.
000021:                                                                                                  ## Website:     www.ibiblio.org/apollo/index.html
000022:                                                                                                  ## Mod history: 2019-07-28 MAS  Created from Luminary 99.
000023:


000025:                                                                                                  #  1)    PROGRAM NAME - TARGET DELTA V PROGRAM (P76).
000026:                                                                                                  #  2)    FUNCTIONAL DESCRIPTION - UPON ENTRY BY ASTRONAUT ACTION, P76 FLASHES DSKY REQUESTS TO THE ASTRONAUT
000027:                                                                                                  #        TO PROVIDE VIA DSKY (1) THE DELTA V TO BE APPLIED TO THE OTHER VEHICLE STATE VECTOR AND (2) THE
000028:                                                                                                  #        TIME (TIG) AT WHICH THE OTHER VEHICLE VELOCITY WAS CHANGED BY EXECUTION OF A THRUSTING MANEUVER. THE
000029:                                                                                                  #        OTHER VEHICLE STATE VECTOR IS INTEGRATED TO TIG AND UPDATED BY THE ADDITION OF DELTA V (DELTA V HAVING
000030:                                                                                                  #        BEEN TRANSFORMED FROM LV TO REF COSYS).  USING INTEGRVS, THE PROGRAM THEN INTEGRATES THE OTHER
000031:                                                                                                  #        VEHICLE STATE VECTOR TO THE STATE VECTOR OF THIS VEHICLE, THUS INSURING THAT THE W-MATRIX AND BOTH VEHICLE
000032:                                                                                                  #        STATES CORRESPOND TO THE SAME TIME.
000033:                                                                                                  #  3)    ERASABLE INITIALIZATION REQUIRED - NONE.
000034:                                                                                                  #  4)    CALLING SEQUENCES AND EXIT MODES - CALLED BY ASTRONAUT REQUEST THRU DSKY V 37 E 76E.
000035:                                                                                                  #        EXITS BY TCF ENDOFJOB.
000036:                                                                                                  #  5)    OUTPUT - OTHER VEHICLE STATE VECTOR INTEGRATED TO TIG AND INCREMENTED BY DELTA V IN REF COSYS.
000037:                                                                                                  #        THE PUSHLIST CONTAINS THE MATRIX BY WHICH THE INPUT DELTA V MUST BE POST-MULTIPLIED TO CONVERT FROM LV
000038:                                                                                                  #        TO REF COSYS.
000039:                                                                                                  #  6)    DEBRIS - OTHER VEHICLE STATE VECTOR.
000040:                                                                                                  #  7)    SUBROUTINES CALLED - BANKCALL, GOXDSPF, CSMPREC (OR LEMPREC), ATOPCSM (OR ATOPLEM), INTSTALL, INTWAKE, PHASCHNG
000041:                                                                                                  #        INTPRET, INTEGRVS, AND MINIRECT.
000042:                                                                                                  #  8)    FLAG USE - MOONFLAG, CMOONFLAG, INTYPFLG, RASFLAG, AND MARKCTR.
000043:
000044: 30,2061                                           BANK     30
000045: 13,2000                                           SETLOC   P76LOC
000046: 13,2000                                           BANK
000047:
000048: 13,2207                                           COUNT*   $$/P76
000049:
000050: 13,2207  E7,1441                                  EBANK=   TIG
000051:
000052: 13,2207           05504        P76                TC       UPFLAG
000053: 13,2210           00031                           ADRES    TRACKFLG
000054:
000055: 13,2211           06037                           TC       INTPRET
000056: 13,2212           77775                           VLOAD
000057: 13,2213           03434                                    DELVLVC
000058: 13,2214           02223                           STORE    DELVOV
000059: 13,2215           77776                           EXIT
000060:
000061: 13,2216           32336                           CAF      V06N84                                #  FLASH LAST DELTA V,
000062: 13,2217           04616                           TC       BANKCALL                              #  AND WAIT FOR KEYBOARD ACTION.
000063: 13,2220           20476                           CADR     GOFLASH
000064: 13,2221           12333                           TCF      ENDP76
000065: 13,2222           02224                           TC       +2                                    #  PROCEED
000066: 13,2223           02216                           TC       -5                                    #  STORE DATA AND REPEAT FLASHING
000067: 13,2224           32337                           CAF      V06N84     +1                         #  FLASH VERB 06 NOUN 33, DISPLAY LAST TIG,
000068: 13,2225           04616                           TC       BANKCALL                              #  AND WAIT FOR KEYBOARD ACTION.
000069: 13,2226           20476                           CADR     GOFLASH
000070: 13,2227           12333                           TCF      ENDP76
000071: 13,2230           02232                           TC       +2
000072: 13,2231           02224                           TC       -5
000073: 13,2232           06037                           TC       INTPRET                               #  RETURN TO INTERPRETIVE CODE


000075: 13,2233           77745                           DLOAD                                          #  SET D(MPAC)=TIG IN CSEC B28
000076: 13,2234           03442                                    TIG
000077: 13,2235           34041                           STCALL   TDEC1                                 #  SET TDEC1=TIG FOR ORBITAL INTEGRATION
000078: 13,2236           27043                                    OTHPREC
000079: 13,2237           53575        COMPMAT            VLOAD    UNIT
000080: 13,2240           00001                                    RATT
000081: 13,2241           77676                           VCOMP                                          #  U(-R)
000082: 13,2242           00031                           STORE    24D                                   #  U(-R) TO 24D
000083: 13,2243           53435                           VXV      UNIT                                  #  U(-R) X V = U(V X R)
000084: 13,2244           00007                                    VATT
000085: 13,2245           00023                           STORE    18D
000086: 13,2246           53435                           VXV      UNIT                                  #  U(V X R) X U(-R) = U((R X V) X R)
000087: 13,2247           00031                                    24D
000088: 13,2250           24015                           STOVL    12D
000089: 13,2251           02223                                    DELVOV
000090: 13,2252           76505                           VXM      VSL1                                  #  V(MPAC)=DELTA V IN REFCOSYS
000091: 13,2253           00015                                    12D
000092: 13,2254           77655                           VAD
000093: 13,2255           00007                                    VATT
000094: 13,2256           00007                           STORE    6                                     #  V(PD6)=VATT + DELTA V
000095: 13,2257           77624                           CALL                                           #  PREVENT WOULD-BE USER OF ORBITAL
000096: 13,2260           27414                                    INTSTALL                              #  INTEG FROM INTERFERING WITH UPDATING
000097: 13,2261           77624                           CALL
000098: 13,2262           26340                                    P76SUB1
000099: 13,2263           53775                           VLOAD    VSR*
000100: 13,2264           00007                                    6
000101: 13,2265           57176                                    0,2
000102: 13,2266           25543                           STOVL    VCV
000103: 13,2267           00001                                    RATT
000104: 13,2270           77657                           VSR*
000105: 13,2271           57176                                    0,2
000106: 13,2272           15535                           STODL    RCV
000107: 13,2273           03442                                    TIG
000108: 13,2274           01517                           STORE    TET
000109: 13,2275           71214                           CLEAR    DLOAD
000110: 13,2276           01673                                    INTYPFLG
000111: 13,2277           01643                                    TETTHIS
000112: 13,2300           34041        INTOTHIS           STCALL   TDEC1
000113: 13,2301           27107                                    INTEGRVS
000114: 13,2302           77624                           CALL
000115: 13,2303           27414                                    INTSTALL
000116: 13,2304           77775                           VLOAD
000117: 13,2305           00017                                    RATT1
000118: 13,2306           01503                           STORE    RRECT
000119: 13,2307           15535                           STODL    RCV
000120: 13,2310           00015                                    TAT
000121: 13,2311           25517                           STOVL    TET
000122: 13,2312           00025                                    VATT1
000123: 13,2313           77624                           CALL
000124: 13,2314           23455                                    MINIRECT


000126: 13,2315           77776                           EXIT
000127: 13,2316           05353                           TC       PHASCHNG
000128: 13,2317           04024                           OCT      04024
000129:
000130: 13,2320           05504                           TC       UPFLAG
000131: 13,2321           00236                           ADRES    REINTFLG
000132:
000133: 13,2322           06037                           TC       INTPRET
000134: 13,2323           77624                           CALL
000135: 13,2324           26661                                    ATOPOTH
000136: 13,2325           77531                           SSP      EXIT
000137: 13,2326           00053                                    QPRET
000138: 13,2327           26332                                    OUT
000139: 13,2330           04616                           TC       BANKCALL                              #  PERMIT USE OF ORBITAL INTEGRATION
000140: 13,2331           27445                           CADR     INTWAKE1
000141: 13,2332           77776        OUT                EXIT
000142: 13,2333           34755        ENDP76             CAF      ZERO
000143: 13,2334           55462                           TS       MARKCTR                               #  CLEAR RR TRACKING MARK COUNTER
000144: 13,2335           16001                           TCF      GOTOPOOH
000145:
000146: 13,2336           01524        V06N84             NV       0684
000147: 13,2337           01441                           NV       0633
000148: 13,2340           43174        P76SUB1            AXT,2    SET
000149: 13,2341           00002                                    2
000150: 13,2342           00063                                    MOONFLAG                              #  SET MEANS MOON IS SPHERE OF INFLUENCE.
000151: 13,2343           77014                           BON      AXT,2
000152: 13,2344           04303                                    CMOONFLG                              #  SET MEANS PERM CM STATE IN LUNAR SPHERE.
000153: 13,2345           00052                                    QPRET
000154: 13,2346           00000                                    0
000155: 13,2347           43414                           CLEAR    RVQ
000156: 13,2350           00263                                    MOONFLAG
000157:
000158:
000159:

End of include-file P76.agc.  Parent file is MAIN.agc


