
Source Code


000002:                                                                                                  ## Copyright:   Public domain.
000003:                                                                                                  ## Filename:    PHASE_TABLE_MAINTENANCE.agc
000004:                                                                                                  ## Purpose:     A section of Luminary revision 97.
000005:                                                                                                  ##              It is part of the reconstructed source code for the
000006:                                                                                                  ##              original release of the flight software for the Lunar
000007:                                                                                                  ##              Module's (LM) Apollo Guidance Computer (AGC) for Apollo 11.
000008:                                                                                                  ##              The code has been recreated from a copy of Luminary 99
000009:                                                                                                  ##              revision 001, using asterisks indicating changed lines in
000010:                                                                                                  ##              the listing and Luminary Memos #83 and #85, which list
000011:                                                                                                  ##              changes between Luminary 97 and 98, and 98 and 99. The
000012:                                                                                                  ##              code has been adapted such that the resulting bugger words
000013:                                                                                                  ##              exactly match those specified for Luminary 97 in NASA drawing
000014:                                                                                                  ##              2021152D, which gives relatively high confidence that the
000015:                                                                                                  ##              reconstruction is correct.
000016:                                                                                                  ## Reference:   pp. 1294-1302
000017:                                                                                                  ## Assembler:   yaYUL
000018:                                                                                                  ## Contact:     Ron Burkey <info@sandroid.org>.
000019:                                                                                                  ## Website:     www.ibiblio.org/apollo/index.html
000020:                                                                                                  ## Mod history: 2019-07-28 MAS  Created from Luminary 99.
000021:


000023:                                                                                                  #  SUBROUTINE TO UPDATE THE PROGRAM NUMBER DISPLAY ON THE DSKY.
000024:
000025: 43,3724                                           COUNT*   $$/PHASE
000026:    5311                                           BLOCK    02
000027:    4000                                           SETLOC   FFTAG1
000028:    4000                                           BANK
000029:
000030:    5311           50002        NEWMODEX           INDEX    Q                                     #  UPDATE MODREG.  ENTRY FOR MODE IN FIXED.
000031:    5312           30000                           CAF      0
000032:    5313           24002                           INCR     Q
000033:
000034:    5314           55011        NEWMODEA           TS       MODREG                                #  ENTRY FOR MODE IN A.
000035:    5315           35320        MMDSPLAY           CAF      +3                                    #  DISPLAY MAJOR MODE.
000036:    5316           22006        PREBJUMP           LXCH     BBANK                                 #  PUTS BBANK IN L
000037:    5317           14640                           TCF      BANKJUMP                              #  PUTS Q INTO A
000038:    5320           20213                           CADR     SETUPDSP
000039:
000040:                                                                                                  #  RETURN TO CALLER +3 IF MODE = THAT AT CALLER +1.  OTHERWISE RETURN TO CALLER +2.
000041:
000042:    5321           50002        CHECKMM            INDEX    Q
000043:    5322           40000                           CS       0
000044:    5323           61011                           AD       MODREG
000045:    5324           00006                           EXTEND
000046:    5325           16741                           BZF      Q+2
000047:    5326           16737                           TCF      Q+1                                   #  NO MATCH
000048:
000049:    5327     6742               TCQ                =        Q+2        +1
000050:
000051: 14,3774                                           BANK     14
000052: 10,2000                                           SETLOC   PHASETAB
000053: 10,2000                                           BANK
000054:
000055: 10,2213                                           COUNT*   $$/PHASE
000056: 10,2213           00004        SETUPDSP           INHINT
000057: 10,2214           52071                           DXCH     RUPTREG1                              #  SAVE CALLER-S RETURN 2CADR
000058: 10,2215           34355                           CAF      PRIO30                                #        EITHER A TASK OR JOB CAN COME TO
000059: 10,2216           05072                           TC       NOVAC                                 #        NEWMODE X
000060: 10,2217     1011                                  EBANK=   MODREG
000061: 10,2217           03534 60102                     2CADR    DSPMMJOB
000062:
000063: 10,2221           52071                           DXCH     RUPTREG1
000064: 10,2222           00003                           RELINT
000065: 10,2223           52006                           DXCH     Z                                     #  RETURN
000066:
000067: 10,2224  40,3534               DSPMMJOB           EQUALS   DSPMMJB
000068:
000069:    5327                                           BLOCK    02
000070:    4000                                           SETLOC   FFTAG1
000071:    4000                                           BANK
000072:


000074:                                                                                                  #  PHASCHNG IS THE MAIN WAY OF MAKING PHASE CHANGES FOR RESTARTS.  THERE ARE THREE FORMS OF PHASCHNG, KNOWN AS TYPE
000075:                                                                                                  #  A, TYPE B, AND TYPE C.  THEY ARE ALL CALLED AS FOLLOWS, WHERE OCT XXXXX CONTAINS THE PHASE INFORMATION,
000076:                                                                                                  #                TC      PHASCHNG
000077:                                                                                                  #                OCT     XXXXX
000078:                                                                                                  #  TYPE A IS CONCERNED WITH FIXED PHASE CHANGES, THAT IS, PHASE INFORMATION THAT IS STORED PERMANENTLY.  THESE
000079:                                                                                                  #  OPTIONS ARE, WHERE G STANDS FOR A GROUP AND .X FOR THE PHASE,
000080:                                                                                                  #        G.0             INACTIVE, WILL NOT PERMIT A GROUP G RESTART
000081:                                                                                                  #        G.1             WILL CAUSE THE LAST DISPLAY TO BE REACTIVATED, USED MAINLY IN MANNED FLIGHTS
000082:                                                                                                  #        G.EVEN          A DOUBLE TABLE RESTART, CAN CAUSE ANY COMBINATION OF TWO JOBS, TASKS, AND/OR
000083:                                                                                                  #                        LONGCALL TO BE RESTARTED.
000084:                                                                                                  #        G.ODD NOT .1    A SINGLE TABLE RESTART, CAN CAUSE EITHER A JOB, TASK, OR LONGCALL RESTART
000085:
000086:                                                                                                  #  THIS INFORMATION IS PUT INTO THE OCTAL WORD AFTER TC PHASCHNG AS FOLLOWS
000087:                                                                                                  #        TL0 00P PPP PPP GGG                                               ,
000088:                                                                                                  #  WHERE EACH LETTER OR NUMBER STANDS FOR A BIT.  THE G:S STAND FOR THE GROUP, OCTAL 1-7, THE P:S FOR THE PHASE,
000089:                                                                                                  #  OCTAL 0 - 127.  0:S MUST BE 0.  IF ONE WISHES TO HAVE THE TBASE OF GROUP G TO BE SET AT THIS TIME,
000090:                                                                                                  #  T IS SET TO 1, OTHERWISE IT IS SET TO 0.  SIMIARLY IF ONE WISHES TO SET LONGBASE, THEN L IS SET TO 1, OTHERWISE
000091:                                                                                                  #  IT IS SET TO 0.  SOME EXAMPLES,
000092:                                                                                                  #                TC      PHASCHNG        THIS WILL CAUSE GROUP 3 TO BE SET TO 0,
000093:                                                                                                  #                OCT     00003           MAKING GROUP 3 INACTIVE
000094:
000095:                                                                                                  #                TC      PHASCHNG        IF A RESTART OCCURS THIS WOULD CAUSE
000096:                                                                                                  #                OCT     00012           GROUP 2 TO RESTART THE LAST DISPLAY
000097:
000098:                                                                                                  #                TC      PHASCHNG        THIS SETS THE TBASE OF GROUP 4 AND IN
000099:                                                                                                  #                OCT     40064           CASE OF A RESTART WOULD START UP THE TWO
000100:                                                                                                  #                                        THINGS LOCATED IN THE DOUBLE 4.6 RESTART
000101:                                                                                                  #                                        LOCATION
000102:
000103:                                                                                                  #                TC      PHASCHNG        THIS SETS LONGBASE AND UPON A RESTART
000104:                                                                                                  #                OCT     20135           CAUSES 5.13 TO BE RESTARTED (SINCE
000105:                                                                                                  #                                        LONGBASE WAS SET THIS SINGLE ENTRY
000106:                                                                                                  #                                        SHOULD BE A LONGCALL)
000107:
000108:                                                                                                  #                TC      PHASCHNG        SINCE BOTH TBASE4 AND LONGBASE ARE SET,
000109:                                                                                                  #                OCT     60124           4.12 SHOULD CONTAIN BOTH A TASK AND A
000110:                                                                                                  #                                        LONGCALL TO BE RESTARTED
000111:
000112:                                                                                                  #  TYPE C PHASCHNG CONTAINS THE VARIABLE TYPE OF PHASCHNG INFORMATION.  INSTEAD OF THE INFORMATION BEING IN A
000113:                                                                                                  #  PERMANENT FORM, ONE STORES THE DESIRED RESTART INFORMATION IN A VARIABKE LOCATION.  THE BITS ARE AS FOLLOWS,
000114:                                                                                                  #        TL0 1AD XXX CJW GGG
000115:                                                                                                  #  WHERE EACH LETTER OR NUMBER STANDS FOR A BIT.  THE G:S STAND FOR THE GROUP, OCTAL 1 - 7.  IF THE RESTART IS TO
000116:                                                                                                  #  BE BY WAITLIST, W IS SET TO 1, IF IT IS A JOB, J IS SET TO 1, IF IT IS A LONGCALL, C IS SET TO 1.  ONLY ONE OF
000117:                                                                                                  #  THESE THREE BITS MAY BE SET.  X:S ARE IGNORED  1 MUST BE 1, AND 0 MUST BE 0.  AGAIN T STANDS FOR THE TBASE,


000119:                                                                                                  #  AND L FOR LONGBASE.  THE BITS A AND D ARE CONCERNED WITH THE VARIABLE INFORMATION.  IF D IS SET TO 1, A PRIORITY
000120:                                                                                                  #  OR DELTA TIME WILL BE READ FROM THE NEXT LOCATION AFTER THE OCTAL INFORMATION, IF THIS IS TO BE INDIRECT, THAT
000121:                                                                                                  #  IS, THE NAME OF A LOCATION COMT+INING THE INFORMATION (DELTA TIME ONLY), THEN THIS IS GIVEN AS THE -GENADR OF
000122:                                                                                                  #  THAT LOCATION WHICH CONTAINS THE DELTA TIME.  IF THE OLD PRIORITY OR DELTA TIME IS TO BE USED, THAT WHICH IS
000123:                                                                                                  #  ALREADY IN THE VARIABLE STORAGE, THEN D IS SET TO 0.  NEXT THE A BIT IS USED.  IF IT IS SET TO 0, THE ADDRESS
000124:                                                                                                  #  THAT WOULD BE RESTARTED DURING A RESTART IS THE NEXT LOCATION AFTER THE PHASE INFORMATION, THAT IS, EITHER
000125:                                                                                                  #  (TC PHASCHNG) +2 OR +3, DEPENDING ON WHETHER D HAD BEEN SET OR NOT.  IF A IS SET TO 1, THEN THE ADDRESS THAT
000126:                                                                                                  #  WOULD BE RESTARTED IS THE 2CADR THAT IS READ FROM THE NEXT TWO LOCATIONS.  EXAMPLES,
000127:                                                                                                  #        AD      TC      PHASCHNG        THIS WOULD CAUSE LOCATION AD +3 TO BE
000128:                                                                                                  #        AD+1    OCT     05023           RESTARTED BY GROUP THREE WITH A PRIORITY
000129:                                                                                                  #        AD+2    OCT     23000           OF 23.  NOTE UPON RETURNING IT WOULD
000130:                                                                                                  #        AD+3                            ALSO GO TO AD+3
000131:
000132:                                                                                                  #        AD      TC      PHASCHNG        GROUP 1 WOULD CAUSE CAUSE CALLCALL TO
000133:                                                                                                  #        AD+1    OCT     27441           BE STARTED AS A LONGCALL FROM THE TIME
000134:                                                                                                  #        AD+2    -GENADR DELTIME         STORED IN LONGBASE (LONGBASE WAS SET) BY
000135:                                                                                                  #        AD+3    2CADR   CALLCALL        A DELTA TIME STORED IN DELTIME.  THE
000136:                                                                                                  #        AD+4                            BBCON OF THE 2CADR SHOULD CONTAIN THE E
000137:                                                                                                  #        AD+5                            BANK OF DELTIME.  PHASCHNG RETURNS TO
000138:                                                                                                  #                                        LOCATION AD+5
000139:
000140:                                                                                                  #  NOTE THAT IF A VARIABLE PRIORITY IS GIVEN FOR A JOB, THE JOB WILL BE RESTARTED AS A NOVAC IF THE PRIORITY IS
000141:                                                                                                  #  NEGATIVE, AS A FINDVAC IF THE PRIORITY IS POSITIVE.
000142:
000143:                                                                                                  #  TYPE B PHASCHNG IS A COMBINATION OF VARIABLE AND FIXED PHASE CHANGES.  IT WILL START UP A JOB AS INDICATED
000144:                                                                                                  #  BELOW AND ALSO START UP ONE FIXED RESTART, THAT IS EITHER AN G.1 OR A G.ODD OR THE FIRST ENTRY OF G.EVEN
000145:                                                                                                  #  DOUBLE ENTRY.  THE BIT INFORMATION IS AS FOLLOWS,
000146:                                                                                                  #        TL1 DAP PPP PPP GGG
000147:                                                                                                  #  WHERE EACH LETTER OR NUMBER STANDS FOR A BIT.  THE G:S STAND FOR THE GROUP, OCTAL 1 - 7. THE P:S FOR THE FIXED
000148:                                                                                                  #  PHASE INFORMATION, OCTAL 0 - 127.  1 MUST BE 1.  AND AGAIN T STANDS FOR THE TBASE AND L FOR LONGBASE.  D THIS
000149:                                                                                                  #  TIME STANDS ONLY FOR PRIORITY SINCE THIS WILL BE CONSIDERED A JOB, AND IT MUST BE GIVEN DIRECTLY IF GIVEN.
000150:                                                                                                  #  AGAIN A STANDS FOR THE ADDRESS OF THE LOCATION TO BE RESTARTED, 1 IF THE 2CADR IS GIVEN, OR 0 IF IT IS TO BE
000151:                                                                                                  #  THE NEXT LOCATION.  (THE RETURN LOCATION OF PHASCHNG) EXAMPLES,
000152:                                                                                                  #        AD      TC      PHASCHNG        TBASE IS SET AND A RESTART CAUSE GROUP 3
000153:                                                                                                  #        AD+1    OCT     56043           TO START THE JOB AJOBAJOB WITH PRIORITY
000154:                                                                                                  #        AD+2    OCT     31000           31 AND THE FIRST ENTRY OF 3.4SPOT (WE CAN
000155:                                                                                                  #        AD+3    2CADR   AJOBAJOB        ASSUME IT IS A TASK SINCE WE SET TBASE3)
000156:                                                                                                  #        AD+4                            UPON RETURN FROM PHASCHNG CONTROL WOULD
000157:                                                                                                  #        AD+5                            GO TO AD+5
000158:
000159:                                                                                                  #        AD      TC      PHASCHNG        UPON A RESTART THE LAST DISPLAY WOULD BE
000160:                                                                                                  #        AD+1    OCT     10015           RESTARTED AND A JOB WITH THE PREVIOUSLY
000161:                                                                                                  #        AD+2                            STORED PRIORITY WOULD BE BEGUN AT AD+2
000162:                                                                                                  #                                        BY MEANS OF GROUP 5


000164:                                                                                                  #  THE NOVAC-FINDVAC CHOICE FOR JOBS HOLDS HERE ALSO - NEGATIVE PRIORITY CAUSES A NOVAC CALL, POSITIVE A FINDVAC.
000165:
000166:                                                                                                  #  SUMMARY OF BITS
000167:                                                                                                  #        TYPE A          TL0 00P PPP PPP GGG
000168:                                                                                                  #        TYPE B          TL1 DAP PPP PPP GGG
000169:                                                                                                  #        TYPE C          TL0 1AD XXX CJW GGG
000170:


000172:                                                                                                  #  2PHSCHNG IS USED WHEN ONE WISHES TO START UP A GROUP OR CHANGE A GROUP WHILE UNDER THE CONTROL OF A DIFFERENT
000173:                                                                                                  #  GROUP.  FOR EXAMPLE, CHANGE THE PHASE OF GROUP 3 WHILE THE PORTION OF THE PROGRAM IS UNDER GROUP 5.  ALL 2PHSCHNG
000174:                                                                                                  #  CALLS ARE MADE IN THE FOLLOWING MANNER,
000175:                                                                                                  #                TC      2PHSCHNG
000176:                                                                                                  #                OCT     XXXXX
000177:                                                                                                  #                OCT     YYYYY
000178:                                                                                                  #  WHERE OCT XXXXX MUST BE OF TYPE A AND OCT YYYYY MAY BE OF EITHER TYPE A OR TYPE B OR TYPE C.  THERE IS ONE
000179:                                                                                                  #  DIFFERENCE --- NOTE- IF LONGBASE IS TO BE SET THIS INFORMATION IS GIVEN IN THE OCT YYYYY INFORMATION, IT WILL
000180:                                                                                                  #  BE DISREGARDED IF GIVEN WITH THE OCT XXXXX INFORMATION.  A COUPLE OF EXAMPLES MAY HELP,
000181:                                                                                                  #        AD      TC      2PHSCHNG        SET TBASE3 AND IF A RESTART OCCURS START
000182:                                                                                                  #        AD+1    OCT     40083           THE TWO ENTRIES IN 3.8 TABLE LOCATION
000183:                                                                                                  #        AD+2    OCT     05025           THIS IS OF TYPE C, SET THE JOB TO BE
000184:                                                                                                  #        AD+3    OCT     18000           TO BE LOCATION AD+4, WITH A PRIORITY 18,
000185:                                                                                                  #        AD+4                            FOR GROUP 5 PHASE INFORMATION
000186:
000187:    5327                                           COUNT*   $$/PHASE
000188:    5327           00004        2PHSCHNG           INHINT                                         #  THE ENTRY FOR A DOUBLE PHASE CHANGE
000189:    5330           50002                           NDX      Q
000190:    5331           30000                           CA       0
000191:    5332           24002                           INCR     Q
000192:    5333           54072                           TS       TEMPP2
000193:
000194:    5334           74757                           MASK     OCT7
000195:    5335           60000                           DOUBLE
000196:    5336           54071                           TS       TEMPG2
000197:
000198:    5337           30072                           CA       TEMPP2
000199:    5340           75030                           MASK     OCT17770                              #  NEED ONLY 1770, BUT WHY GET A NEW CONST.
000200:    5341           00006                           EXTEND
000201:    5342           74740                           MP       BIT12
000202:    5343           56072                           XCH      TEMPP2
000203:
000204:    5344           74735                           MASK     BIT15
000205:    5345           54066                           TS       TEMPSW2                               #  INDICATES WHETHER TO SET TBASE OR NOT
000206:
000207:    5346           50002                           INDEX    Q
000208:    5347           30000                           CA       0
000209:    5350           24002                           INCR     Q
000210:    5351           54065                           TS       TEMPSW
000211:
000212:    5352           15363                           TCF      PHASJUMP
000213:
000214:    5353           00004        PHASCHNG           INHINT                                         #  NORMAL PHASCHNG ENTRY POINT.
000215:    5354           50002                           INDEX    Q
000216:    5355           30000                           CA       0
000217:    5356           24002                           INCR     Q
000218:    5357           00004        PHSCHNGA           INHINT                                         #  FIRST OCTAL PARAMETER IN A.


000220:    5360           54065                           TS       TEMPSW
000221:    5361           34753                           CA       ONE
000222:    5362           54066                           TS       TEMPSW2
000223:    5363           00006        PHASJUMP           EXTEND
000224:    5364           35367                           DCA      ADRPCHN2                              #  OFF TO SWITCHED BANK
000225:    5365           52006                           DTCB
000226:
000227:    5366  E3,1400                                  EBANK=   LST1
000228:    5366           02224 20103  ADRPCHN2           2CADR    PHSCHNG2
000229:
000230:    5370           22073        ONEORTWO           LXCH     TEMPBBCN
000231:    5371           22006                           LXCH     BBANK
000232:    5372           22073                           LXCH     TEMPBBCN
000233:
000234:    5373           75024                           MASK     OCT14000                              #  SEE WHAT KIND OF PHASE CHANGE IT IS
000235:    5374           10000                           CCS      A
000236:    5375           17750                           TCF      CHECKB                                #  IT IS OF TYPE :B:
000237:
000238:    5376           30062                           CA       TEMPP
000239:    5377           74745                           MASK     BIT7
000240:    5400           10000                           CCS      A                                     #  SHALL WE USE THE OLD PRIORITY
000241:    5401           15423                           TCF      GETPRIO                               #  NO GET A NEW PRIORITY (OR DELTA T)
000242:
000243:    5402           50061        OLDPRIO            NDX      TEMPG                                 #  USE THE OLD PRIORITY (OR DELTA T)
000244:    5403           31052                           CA       PHSPRDT1   -2
000245:    5404           54070                           TS       TEMPPR
000246:
000247:    5405           30062        CON1               CA       TEMPP                                 #  SEE IF A 2CADR IS GIVEN
000248:    5406           74744                           MASK     BIT8
000249:    5407           10000                           CCS      A
000250:    5410           15427                           TCF      GETNEWNM
000251:
000252:    5411           30002                           CA       Q
000253:    5412           54063                           TS       TEMPNM
000254:    5413           30006                           CA       BB
000255:    5414           00006                           EXTEND                                         #  PICK UP USERS SUPERBANK
000256:    5415           04007                           ROR      SUPERBNK
000257:    5416           54064                           TS       TEMPBB
000258:
000259:    5417           35422        TOCON2             CA       CON2ADR                               #  BACK TO SWITCHED BANK
000260:    5420           22073                           LXCH     TEMPBBCN
000261:    5421           52006                           DTCB
000262:
000263:    5422           02312        CON2ADR            GENADR   CON2
000264:
000265:    5423           50002        GETPRIO            NDX      Q                                     #  DON:T CARE IF DIRECT OR INDIRECT
000266:    5424           30000                           CA       0                                     #  LEAVE THAT DECISION TO RESTARTS
000267:    5425           24002                           INCR     Q                                     #  OBTAIN RETURN ADDRESS


000269:    5426           15404                           TCF      CON1       -1
000270:
000271:    5427           00006        GETNEWNM           EXTEND
000272:    5430           50002                           INDEX    Q
000273:    5431           30001                           DCA      0
000274:    5432           52064                           DXCH     TEMPNM
000275:    5433           34752                           CA       TWO
000276:    5434           26002                           ADS      Q                                     #  OBTAIN RETURN ADDRESS
000277:
000278:    5435           15417                           TCF      TOCON2
000279:
000280:    5436     5024               OCT14000           EQUALS   PRIO14
000281:    5436     0061               TEMPG              EQUALS   ITEMP1
000282:    5436     0062               TEMPP              EQUALS   ITEMP2
000283:    5436     0063               TEMPNM             EQUALS   ITEMP3
000284:    5436     0064               TEMPBB             EQUALS   ITEMP4
000285:    5436     0065               TEMPSW             EQUALS   ITEMP5
000286:    5436     0066               TEMPSW2            EQUALS   ITEMP6
000287:    5436     0070               TEMPPR             EQUALS   RUPTREG1
000288:    5436     0071               TEMPG2             EQUALS   RUPTREG2
000289:    5436     0072               TEMPP2             EQUALS   RUPTREG3
000290:
000291:    5436     0073               TEMPBBCN           EQUALS   RUPTREG4
000292:    5436  0000006               BB                 EQUALS   BBANK
000293:
000294: 14,3774                                           BANK     14
000295: 10,2000                                           SETLOC   PHASETAB
000296: 10,2000                                           BANK
000297:
000298: 10,2224  E3,1436                                  EBANK=   PHSNAME1
000299: 10,2224                                           COUNT*   $$/PHASE
000300: 10,2224           22073        PHSCHNG2           LXCH     TEMPBBCN
000301: 10,2225           30065                           CA       TEMPSW
000302: 10,2226           74757                           MASK     OCT7
000303: 10,2227           60000                           DOUBLE
000304: 10,2230           54061                           TS       TEMPG
000305:
000306: 10,2231           30065                           CA       TEMPSW
000307: 10,2232           75030                           MASK     OCT17770
000308: 10,2233           00006                           EXTEND
000309: 10,2234           74740                           MP       BIT12
000310: 10,2235           54062                           TS       TEMPP
000311:
000312: 10,2236           30065                           CA       TEMPSW
000313: 10,2237           74101                           MASK     OCT60000
000314: 10,2240           56065                           XCH      TEMPSW
000315: 10,2241           75024                           MASK     OCT14000
000316: 10,2242           10000                           CCS      A


000318: 10,2243           15370                           TCF      ONEORTWO
000319:
000320: 10,2244           30062                           CA       TEMPP                                 #  START STORING THE PHASE INFORMATION
000321: 10,2245           50061                           NDX      TEMPG
000322: 10,2246           54751                           TS       PHASE1     -2
000323:
000324: 10,2247           10066        BELOW1             CCS      TEMPSW2                               #  IS IT A PHASCHNG OR A 2PHSCHNG
000325: 10,2250           12264                           TCF      BELOW2                                #  IT:S A PHASCHNG
000326:
000327: 10,2251           12252                           TCF      +1                                    #  IT:S A 2PHSCHNG
000328: 10,2252           40072                           CS       TEMPP2
000329: 10,2253           22072                           LXCH     TEMPP2
000330: 10,2254           50071                           NDX      TEMPG2
000331: 10,2255           52751                           DXCH     -PHASE1    -2
000332:
000333: 10,2256           10066                           CCS      TEMPSW2
000334: 10,2257           12260                           NOOP                                           #  CAN:T GET HERE
000335: 10,2260           12264                           TCF      BELOW2
000336:
000337: 10,2261           40025                           CS       TIME1
000338: 10,2262           50071                           NDX      TEMPG2
000339: 10,2263           55051                           TS       TBASE1     -2
000340:
000341: 10,2264           10065        BELOW2             CCS      TEMPSW                                #  SEE IF WE SHOULD SET TBASE OR LONGBASE
000342: 10,2265           12300                           TCF      BELOW3                                #  SET LONGBASE ONLY
000343: 10,2266           12303                           TCF      BELOW4                                #  SET NEITHER
000344:
000345: 10,2267           40025                           CS       TIME1                                 #  SET TBASE TO BEGIN WITH
000346: 10,2270           50061                           NDX      TEMPG
000347: 10,2271           55051                           TS       TBASE1     -2
000348:
000349: 10,2272           30065                           CA       TEMPSW                                #  SHALL WE NOW SET LONGBASE
000350: 10,2273           62276                           AD       BIT14COM
000351: 10,2274           10000                           CCS      A
000352: 10,2275           12276                           NOOP                                           #  ***** CANT GET HERE *****
000353: 10,2276           17777        BIT14COM           OCT      17777                                 #  ***** CANT GET HERE *****
000354: 10,2277           12303                           TCF      BELOW4                                #  NO WE NEED ONLY SET TBASE
000355:
000356: 10,2300           00006        BELOW3             EXTEND                                         #  SET LONGBASE
000357: 10,2301           30025                           DCA      TIME2
000358: 10,2302           53152                           DXCH     LONGBASE
000359:
000360: 10,2303           40062        BELOW4             CS       TEMPP                                 #  AND STORE THE FINAL PART OF THE PHASE
000361: 10,2304           50061                           NDX      TEMPG
000362: 10,2305           54750                           TS       -PHASE1    -2
000363:
000364: 10,2306           30002                           CA       Q
000365: 10,2307           22073                           LXCH     TEMPBBCN
000366: 10,2310           00003                           RELINT
000367: 10,2311           52006                           DTCB


000369: 10,2312           22073        CON2               LXCH     TEMPBBCN
000370:
000371: 10,2313           30062                           CA       TEMPP
000372: 10,2314           50061                           NDX      TEMPG
000373: 10,2315           54751                           TS       PHASE1     -2
000374:
000375: 10,2316           30070                           CA       TEMPPR
000376: 10,2317           50061                           NDX      TEMPG
000377: 10,2320           55052                           TS       PHSPRDT1   -2
000378:
000379: 10,2321           00006                           EXTEND
000380: 10,2322           30064                           DCA      TEMPNM
000381: 10,2323           50061                           NDX      TEMPG
000382: 10,2324           53435                           DXCH     PHSNAME1   -2
000383:
000384: 10,2325           12247                           TCF      BELOW1
000385:
000386:    7750                                           BLOCK    03
000387:    6000                                           SETLOC   FFTAG6
000388:    6000                                           BANK
000389:
000390:    7750                                           COUNT*   $$/PHASE
000391:    7750           74740        CHECKB             MASK     BIT12                                 #  SINCE THIS IS OF TYPE B, THIS BIT SHOULD
000392:    7751           10000                           CCS      A                                     #  BE HERE IF WE ARE TO GET A NEW PRIORITY
000393:    7752           15423                           TCF      GETPRIO                               #  IT IS, SO GET NEW PRIORITY
000394:
000395:    7753           15402                           TCF      OLDPRIO                               #  IT ISN:T, USE THE OLD PRIORITY
000396:
000397:

End of include-file PHASE_TABLE_MAINTENANCE.agc.  Parent file is MAIN.agc


