
Source Code


000002:                                                                                                  ## Copyright:   Public domain.
000003:                                                                                                  ## Filename:    Q,R-AXES_RCS_AUTOPILOT.agc
000004:                                                                                                  ## Purpose:     A section of Luminary revision 97.
000005:                                                                                                  ##              It is part of the reconstructed source code for the
000006:                                                                                                  ##              second release of the flight software for the Lunar
000007:                                                                                                  ##              Module's (LM) Apollo Guidance Computer (AGC) for Apollo 11.
000008:                                                                                                  ##              It was created to fix two incorrect ephemeris constants in
000009:                                                                                                  ##              Luminary 96, as described by anomaly report LNY-59.
000010:                                                                                                  ##              The code has been recreated from a copy of Luminary 99
000011:                                                                                                  ##              revision 001, using asterisks indicating changed lines in
000012:                                                                                                  ##              the listing and Luminary Memos #83 and #85, which list
000013:                                                                                                  ##              changes between Luminary 97 and 98, and 98 and 99. The
000014:                                                                                                  ##              code has been adapted such that the resulting bugger words
000015:                                                                                                  ##              exactly match those specified for Luminary 97 in NASA drawing
000016:                                                                                                  ##              2021152D, which gives relatively high confidence that the
000017:                                                                                                  ##              reconstruction is correct.
000018:                                                                                                  ## Reference:   pp. 1442-1459
000019:                                                                                                  ## Assembler:   yaYUL
000020:                                                                                                  ## Contact:     Ron Burkey <info@sandroid.org>.
000021:                                                                                                  ## Website:     www.ibiblio.org/apollo/index.html
000022:                                                                                                  ## Mod history: 2019-07-28 MAS  Created from Luminary 99.
000023:


000025: 17,2072                                           BANK     17
000026: 17,2000                                           SETLOC   DAPS2
000027: 17,2000                                           BANK
000028:
000029: 17,2072  E6,1635                                  EBANK=   CDUXD
000030:
000031: 17,2072                                           COUNT*   $$/DAPQR
000032:
000033: 17,2072           34737        CALLQERR           CA       BIT13                                 #  CALCULATE Q,R ERRORS UNLESS THESE AXES
000034: 17,2073           00006                           EXTEND                                         #  ARE IN MANUAL RATE COMMAND.
000035: 17,2074           02031                           RAND     CHAN31
000036: 17,2075           10000                           CCS      A
000037: 17,2076           12103                           TCF      +5                                    #  IN AUTO COMPUTE Q,R ERRORS
000038: 17,2077           40111                           CS       DAPBOOLS                              #  IN MANUAL RATE COMMAND?
000039: 17,2100           74740                           MASK     OURRCBIT
000040: 17,2101           00006                           EXTEND
000041: 17,2102           12104                           BZF      Q,RORGTS                              #  IF SO BYPASS CALCULATION OF ERRORS.
000042: 17,2103           02626                           TC       QERRCALC
000043:
000044: 17,2104           11631        Q,RORGTS           CCS      COTROLER                              #  CHOOSE CONTROL SYSTEM FOR THIS DAP PASS:
000045: 17,2105           12607                           TCF      GOTOGTS                               #        GTS (ALTERNATES WITH RCS WHEN DOCKED)
000046: 17,2106           12574                           TCF      TRYGTS                                #        GTS IF ALLOWED, OTHERWISE RCS
000047: 17,2107           34755        RCS                CAF      ZERO                                  #        RCS (TRYGTS MAY BRANCH TO HERE)
000048: 17,2110           55631                           TS       COTROLER
000049:
000050: 17,2111           53437                           DXCH     EDOTQ
000051: 17,2112           03146                           TC       ROT-TOUV
000052: 17,2113           53427                           DXCH     OMEGAU
000053:
000054:                                                                                                  #  X - TRANSLATION:
000055:
000056:                                                                                                  #  INPUT:        BITS 7,8 OF CH31 (TRANSLATION CONTROLLER)
000057:                                                                                                  #                ULLAGER
000058:                                                                                                  #                APSFLAG, DRIFTBIT
000059:                                                                                                  #                ACC40R2X, ACRBTRAN
000060:
000061:                                                                                                  #  OUTPUT:       NEXTU, NEXTV    CODES OF TRANSLATION FOR AFTER ROTATION
000062:                                                                                                  #                SENSETYP        TELL ROTATION DIRECTION AND DESIRE
000063:
000064:                                                                                                  #  X-TRANS POLICIES ARE EITHER 4 JETS OR A DIAGONAL PAIR.  IN 2-JET TRANSLATION THE SYSTEM IS SPECIFIED.  A FAILURE
000065:                                                                                                  #  WILL OVERRIDE THIS SPECIFICATION.  AN ALARM RESULTS WHEN NO POLICY IS AVAILABLE BECAUSE OF FAILURES.
000066:
000067: 17,2114           34745        SENSEGET           CA       BIT7                                  #  INPUT BITS OVERRIDE THE INTERNAL BITS
000068: 17,2115           00006                           EXTEND                                         #  SENSETYP WILL NOT OPPOSE ANYTRANS
000069: 17,2116           02031                           RAND     CHAN31
000070: 17,2117           00006                           EXTEND
000071: 17,2120           12146                           BZF      +XORULGE


000073: 17,2121           34744                           CA       BIT8
000074: 17,2122           00006                           EXTEND
000075: 17,2123           02031                           RAND     CHAN31
000076: 17,2124           00006                           EXTEND
000077: 17,2125           12147                           BZF      -XTRANS
000078:
000079: 17,2126           34746                           CA       ULLAGER
000080: 17,2127           70111                           MASK     DAPBOOLS
000081: 17,2130           10000                           CCS      A
000082: 17,2131           12146                           TCF      +XORULGE
000083:
000084: 17,2132           55473                           TS       NEXTU                                 #  STORE NULL TRANSLATION POLICIES
000085: 17,2133           55474                           TS       NEXTV
000086: 17,2134           40111                           CS       DAPBOOLS                              #  BURNING OR DRIFTING?
000087: 17,2135           74744                           MASK     DRIFTBIT
000088: 17,2136           00006                           EXTEND
000089: 17,2137           12144                           BZF      TSENSE
000090: 17,2140           30106                           CA       FLGWRD10                              #  DPS (INCLUDING DOCKED) OR APS?
000091: 17,2141           74737                           MASK     APSFLBIT
000092: 17,2142           10000                           CCS      A
000093: 17,2143           34752                           CAF      TWO                                   #  FAVOR +X JETS DURING AN APS BURN.
000094: 17,2144           55500        TSENSE             TS       SENSETYP
000095: 17,2145           12200                           TCF      QRCONTRL
000096:
000097: 17,2146           34753        +XORULGE           CAF      ONE
000098: 17,2147           64751        -XTRANS            AD       FOUR
000099: 17,2150           55744                           TS       ROTINDEX
000100: 17,2151           67745                           AD       NEG3
000101: 17,2152           55500                           TS       SENSETYP                              #  FAVOR APPROPRIATE JETS DURING TRANS.
000102: 17,2153           30111                           CA       DAPBOOLS
000103: 17,2154           74741                           MASK     ACC4OR2X
000104: 17,2155           10000                           CCS      A
000105: 17,2156           12321                           TCF      TRANS4
000106:
000107: 17,2157           30111                           CA       DAPBOOLS
000108: 17,2160           74742                           MASK     AORBTRAN
000109: 17,2161           10000                           CCS      A
000110: 17,2162           34753                           CA       ONE                                   #  THREE FOR B
000111: 17,2163           64752                           AD       TWO                                   #  TWO FOR A SYSTEM 2 JET X TRANS
000112: 17,2164           55743        TSNUMBRT           TS       NUMBERT
000113:
000114: 17,2165           03173                           TC       SELCTSUB
000115:
000116: 17,2166           11741                           CCS      POLYTEMP
000117: 17,2167           12172                           TCF      +3
000118: 17,2170           05567                           TC       ALARM
000119: 17,2171           02002                           OCT      02002
000120: 17,2172           35774                           CA       00314OCT
000121: 17,2173           71741                           MASK     POLYTEMP
000122: 17,2174           55473        TSNEXTS            TS       NEXTU


000124: 17,2175           45774                           CS       00314OCT
000125: 17,2176           71741                           MASK     POLYTEMP
000126: 17,2177           55474                           TS       NEXTV
000127:
000128:                                                                                                  #  Q,R-AXES RCS CONTROL MODE SELECTION
000129:                                                                                                  #        SWITCHES        INDICATION WHEN SET
000130:                                                                                                  #        BIT13/CHAN31    AUTO, GO TO ATTSTEER
000131:                                                                                                  #        PULSES          MINIMUM IMPULSE MODE
000132:                                                                                                  #        (OTHERWISE)     RATE COMMAND/ATTITUDE HOLD MODE
000133:
000134: 17,2200           34737        QRCONTRL           CA       BIT13                                 #  CHECK MODE SELECT SWITCH.
000135: 17,2201           00006                           EXTEND
000136: 17,2202           02031                           RAND     CHAN31                                #  BITS INVERTED
000137: 17,2203           10000                           CCS      A
000138: 17,2204           12661                           TCF      ATTSTEER
000139: 17,2205           34735        CHKBIT10           CAF      PULSES                                #  PULSES = 1 FOR MIN IMP USE OF RHC
000140: 17,2206           70111                           MASK     DAPBOOLS
000141: 17,2207           00006                           EXTEND
000142: 17,2210           12323                           BZF      CHEKSTIK                              #  IN ATT-HOLD/RATE-COMMAND IF BIT10=0
000143:
000144:                                                                                                  #  MINIMUM IMPULSE MODE
000145:
000146: 17,2211           00004                           INHINT
000147: 17,2212           04674                           TC       IBNKCALL
000148: 17,2213           40153                           CADR     ZATTEROR
000149: 17,2214           34755                           CA       ZERO
000150: 17,2215           55450                           TS       QERROR
000151: 17,2216           55452                           TS       RERROR                                #  FOR DISPLAYS
000152: 17,2217           00003                           RELINT
000153:
000154: 17,2220           00006                           EXTEND
000155: 17,2221           00031                           READ     CHAN31
000156: 17,2222           55737                           TS       TEMP31                                #  IS EQUAL TO DAPTEMP1
000157: 17,2223           11461                           CCS      OLDQRMIN
000158: 17,2224           12246                           TCF      CHECKIN
000159:
000160: 17,2225           31737        FIREQR             CA       TEMP31
000161: 17,2226           74753                           MASK     BIT1
000162: 17,2227           00006                           EXTEND
000163: 17,2230           12252                           BZF      +QMIN
000164:
000165: 17,2231           31737                           CA       TEMP31
000166: 17,2232           74752                           MASK     BIT2
000167: 17,2233           00006                           EXTEND
000168: 17,2234           12256                           BZF      -QMIN
000169:
000170: 17,2235           31737                           CA       TEMP31
000171: 17,2236           74747                           MASK     BIT5


000173: 17,2237           00006                           EXTEND
000174: 17,2240           12262                           BZF      +RMIN
000175:
000176: 17,2241           31737                           CA       TEMP31
000177: 17,2242           74746                           MASK     BIT6
000178: 17,2243           00006                           EXTEND
000179: 17,2244           12264                           BZF      -RMIN
000180:
000181: 17,2245           13063                           TCF      XTRANS
000182:
000183: 17,2246           41737        CHECKIN            CS       TEMP31
000184: 17,2247           72320                           MASK     OCT63
000185: 17,2250           55461                           TS       OLDQRMIN
000186: 17,2251           13063                           TCF      XTRANS
000187:
000188: 17,2252           33107        +QMIN              CA       14MS
000189: 17,2253           55525                           TS       TJU
000190: 17,2254           43107                           CS       14MS
000191: 17,2255           12266                           TCF      MINQR
000192: 17,2256           43107        -QMIN              CS       14MS
000193: 17,2257           55525                           TS       TJU
000194: 17,2260           33107                           CA       14MS
000195: 17,2261           12266                           TCF      MINQR
000196: 17,2262           33107        +RMIN              CA       14MS
000197: 17,2263           12265                           TCF      +2
000198: 17,2264           43107        -RMIN              CS       14MS
000199: 17,2265           55525                           TS       TJU
000200: 17,2266           55526        MINQR              TS       TJV
000201: 17,2267           32317                           CA       MINADR
000202: 17,2270           55477                           TS       RETJADR
000203: 17,2271           34753                           CA       ONE
000204: 17,2272           55461                           TS       OLDQRMIN
000205: 17,2273           55505        MINRTN             TS       AXISCTR
000206: 17,2274           30111                           CA       DAPBOOLS
000207: 17,2275           74737                           MASK     CSMDOCKD
000208: 17,2276           00006                           EXTEND
000209: 17,2277           12307                           BZF      MIMRET
000210: 17,2300           51505                           INDEX    AXISCTR                               #  IF DOCKED, USE 60MS MINIMUM IMPULSE
000211: 17,2301           11525                           CCS      TJU
000212: 17,2302           32316                           CA       60MS
000213: 17,2303           12305                           TCF      +2
000214: 17,2304           42316                           CS       60MS
000215: 17,2305           51505                           INDEX    AXISCTR
000216: 17,2306           55525                           TS       TJU
000217: 17,2307           30111        MIMRET             CA       DAPBOOLS
000218: 17,2310           74742                           MASK     AORBTRAN
000219: 17,2311           10000                           CCS      A
000220: 17,2312           34753                           CA       ONE
000221: 17,2313           64752                           AD       TWO
000222: 17,2314           55743                           TS       NUMBERT


000224: 17,2315           12727                           TCF      AFTERTJ
000225:
000226: 17,2316           00140        60MS               DEC      96.0
000227: 17,2317           02273        MINADR             GENADR   MINRTN
000228: 17,2320           00063        OCT63              OCT      63
000229: 17,2321  17,3107               14MS               =        +TJMINT6
000230:
000231: 17,2321           34751        TRANS4             CA       FOUR
000232: 17,2322           12164                           TCF      TSNUMBRT
000233:
000234:                                                                                                  #  RATE COMMAND MODE:
000235:
000236:                                                                                                  #  DESCRIPTION (SAME AS P-AXIS)
000237:
000238: 17,2323           55633        CHEKSTIK           TS       INGTS                                 #  NOT IN GTS WHEN IN ATT HOLD
000239: 17,2324           44753                           CS       ONE                                   #  1/ACCS WILL DO THE NULLING DRIVES
000240: 17,2325           55631                           TS       COTROLER                              #  COME BACK TO RCS NEXT TIME
000241: 17,2326           34735                           CA       BIT15
000242: 17,2327           71443                           MASK     CH31TEMP
000243: 17,2330           00006                           EXTEND
000244: 17,2331           12350                           BZF      RHCACTIV                              #  BRANCH IF OUT OF DETENT.
000245: 17,2332           34740                           CA       OURRCBIT                              #  ***********
000246: 17,2333           70111                           MASK     DAPBOOLS                              #  *IN DETENT*   CHECK FOR MANUAL CONTROL
000247: 17,2334           00006                           EXTEND                                         #  ***********   LAST TIME.
000248: 17,2335           12661                           BZF      STILLRCS
000249: 17,2336           44743                           CS       BIT9
000250: 17,2337           71273                           MASK     RCSFLAGS
000251: 17,2340           55273                           TS       RCSFLAGS                              #  BIT 9 IS 0.
000252: 17,2341           12345                           TCF      DAMPING
000253: 17,2342           00050        40CYCL             OCT      50
000254: 17,2343           00001        1/10S              OCT      1
000255: 17,2344           00056        LINRAT             DEC      46         B-14
000256:
000257:                                                                                                  #  ================================
000258:
000259: 17,2345           34755        DAMPING            CA       ZERO
000260: 17,2346           55462                           TS       SAVEHAND
000261: 17,2347           55463                           TS       SAVEHAND   +1
000262: 17,2350           11462        RHCACTIV           CCS      SAVEHAND                              #  *******************
000263: 17,2351           12354                           TCF      +3                                    #  Q,R MANUAL CONTROL    WC = A*(B+|D|)*D
000264: 17,2352           12354                           TCF      +2                                    #  *******************
000265: 17,2353           12354                           TCF      +1
000266: 17,2354           60000                           DOUBLE                                         #  WHERE
000267: 17,2355           60000                           DOUBLE
000268: 17,2356           62344                           AD       LINRAT                                #        WC  = COMMANDED ROTATIONAL RATE
000269: 17,2357           00006                           EXTEND                                         #        A   = QUADRATIC SENSITIVITY FACTOR
000270: 17,2360           71462                           MP       SAVEHAND                              #        B   = LINEAR/QUADRATIC SENSITIVITY
000271: 17,2361           30001                           CA       L                                     #        |D| = ABS. VALUE OF DEFLECTION
000272: 17,2362           00006                           EXTEND                                         #        D   = HAND CONTROLLER DEFLECTION
000273: 17,2363           71444                           MP       STIKSENS
000274: 17,2364           57455                           XCH      QLAST                                 #  COMMAND Q RATE     SCALED 45 DEG/SEC
000275: 17,2365           40000                           COM


000277: 17,2366           61455                           AD       QLAST
000278: 17,2367           55741                           TS       DAPTEMP3
000279: 17,2370           11463                           CCS      SAVEHAND   +1
000280: 17,2371           12374                           TCF      +3
000281: 17,2372           12374                           TCF      +2
000282: 17,2373           12374                           TCF      +1
000283: 17,2374           60000                           DOUBLE
000284: 17,2375           60000                           DOUBLE
000285: 17,2376           62344                           AD       LINRAT
000286: 17,2377           00006                           EXTEND
000287: 17,2400           71463                           MP       SAVEHAND   +1
000288: 17,2401           30001                           CA       L
000289: 17,2402           00006                           EXTEND
000290: 17,2403           71444                           MP       STIKSENS
000291: 17,2404           57456                           XCH      RLAST
000292: 17,2405           40000                           COM
000293: 17,2406           61456                           AD       RLAST
000294: 17,2407           55742                           TS       DAPTEMP4
000295: 17,2410           41455                           CS       QLAST                                 #  INTERVAL.
000296: 17,2411           61422                           AD       OMEGAQ
000297: 17,2412           55436                           TS       QRATEDIF
000298: 17,2413           41456                           CS       RLAST
000299: 17,2414           61423                           AD       OMEGAR
000300: 17,2415           55437                           TS       RRATEDIF
000301: 17,2416           53437        ENTERQR            DXCH     QRATEDIF                              #  TRANSFORM RATES FROM Q,R TO U,V AXES
000302: 17,2417           03146                           TC       ROT-TOUV
000303: 17,2420           53427                           DXCH     URATEDIF
000304: 17,2421           11741                           CCS      DAPTEMP3                              #  CHECK IF Q COMMAND CHANGE EXCEEDS
000305: 17,2422           02425                           TC       +3                                    #  BREAKOUT LEVEL.  IF NOT, CHECK R.
000306: 17,2423           02425                           TC       +2
000307: 17,2424           02425                           TC       +1
000308: 17,2425           61476                           AD       -RATEDB
000309: 17,2426           00006                           EXTEND
000310: 17,2427           62431                           BZMF     +2
000311: 17,2430           12447                           TCF      ENTERUV    -2                         #  BREAKOUT LEVEL EXCEEDED.  DIRECT RATE.
000312: 17,2431           11742                           CCS      DAPTEMP4                              #  R COMMAND BREAKOUT CHECK.
000313: 17,2432           02435                           TC       +3
000314: 17,2433           02435                           TC       +2
000315: 17,2434           02435                           TC       +1
000316: 17,2435           61476                           AD       -RATEDB
000317: 17,2436           00006                           EXTEND
000318: 17,2437           62441                           BZMF     +2
000319: 17,2440           12447                           TCF      ENTERUV    -2                         #  BREAKOUT LEVEL EXCEEDED.  DIRECT RATE.
000320: 17,2441           31273                           CA       RCSFLAGS                              #  BREAKOUT LEVEL NOT EXCEEDED.  CHECK FOR
000321: 17,2442           74741                           MASK     QRBIT                                 #  DIRECT RATE CONTROL LAST TIME.
000322: 17,2443           00006                           EXTEND
000323: 17,2444           12446                           BZF      +2
000324: 17,2445           12451                           TCF      ENTERUV                               #  CONTINUE DIRECT RATE CONTROL.
000325: 17,2446           12661                           TCF      STILLRCS                              #  PSEUDO-AUTO CONTROL.
000326: 17,2447           32342                           CA       40CYCL


000328: 17,2450           55457                           TS       TCQR
000329: 17,2451           00004        ENTERUV            INHINT                                         #  DIRECT RATE CONTROL.
000330: 17,2452           04674                           TC       IBNKCALL
000331: 17,2453           40153                           FCADR    ZATTEROR
000332: 17,2454           00003                           RELINT
000333: 17,2455           34755                           CA       ZERO
000334: 17,2456           55450                           TS       DYERROR
000335: 17,2457           55451                           TS       DYERROR    +1
000336: 17,2460           55452                           TS       DZERROR
000337: 17,2461           55453                           TS       DZERROR    +1
000338: 17,2462           11426                           CCS      URATEDIF
000339: 17,2463           12466                           TCF      +3
000340: 17,2464           12466                           TCF      +2
000341: 17,2465           12466                           TCF      +1
000342: 17,2466           61476                           AD       TARGETDB                              #  IF TARGET DB IS EXCEEDED, CONTINUE
000343: 17,2467           00006                           EXTEND                                         #  DIRECT RATE CONTROL.
000344: 17,2470           62504                           BZMF     VDB
000345: 17,2471           11427                           CCS      VRATEDIF
000346: 17,2472           12475                           TCF      +3
000347: 17,2473           12475                           TCF      +2
000348: 17,2474           12475                           TCF      +1
000349: 17,2475           61476                           AD       TARGETDB
000350: 17,2476           00006                           EXTEND
000351: 17,2477           62501                           BZMF     +2
000352: 17,2500           12515                           TCF      QRTIME
000353: 17,2501           34755                           CA       ZERO
000354: 17,2502           55427                           TS       VRATEDIF
000355: 17,2503           12515                           TCF      QRTIME
000356: 17,2504           11427        VDB                CCS      VRATEDIF
000357: 17,2505           02510                           TC       +3
000358: 17,2506           02510                           TC       +2
000359: 17,2507           02510                           TC       +1
000360: 17,2510           61476                           AD       TARGETDB                              #  IF TARGET DB IS EXCEEDED, CONTINUE
000361: 17,2511           00006                           EXTEND                                         #  DIRECT RATE CONTROL.  IF NOT, FIRE AND
000362: 17,2512           62524                           BZMF     TOPSEUDO                              #  SWITCH TO PSEUDO-AUTO CONTROL ON NEXT
000363: 17,2513           34755                           CA       ZERO                                  #  PASS.
000364: 17,2514           55426                           TS       URATEDIF
000365: 17,2515           31457        QRTIME             CA       TCQR                                  #  DIRECT RATE TIME CHECK.
000366: 17,2516           00006                           EXTEND
000367: 17,2517           62524                           BZMF     +5                                    #  BRANCH IF TIME EXCEEDS 4 SEC.
000368: 17,2520           41273                           CS       RCSFLAGS
000369: 17,2521           74741                           MASK     QRBIT
000370: 17,2522           27273                           ADS      RCSFLAGS                              #  BIT 11 IS 1.
000371: 17,2523           02527                           TC       +4
000372: 17,2524           44741        TOPSEUDO           CS       QRBIT
000373: 17,2525           71273                           MASK     RCSFLAGS
000374: 17,2526           55273                           TS       RCSFLAGS                              #  BIT 11 IS 0.
000375: 17,2527           32573                           CA       HANDADR
000376: 17,2530           55477                           TS       RETJADR
000377: 17,2531           34753                           CA       ONE
000378:


000380: 17,2532           55505        BACKHAND           TS       AXISCTR
000381:
000382: 17,2533           34751                           CA       FOUR
000383: 17,2534           55743                           TS       NUMBERT
000384:
000385: 17,2535           51505                           INDEX    AXISCTR
000386: 17,2536           51535                           INDEX    SKIPU
000387: 17,2537           12540                           TCF      +1
000388: 17,2540           34751                           CA       FOUR
000389: 17,2541           51505                           INDEX    AXISCTR
000390: 17,2542           55535                           TS       SKIPU
000391: 17,2543           13005                           TCF      LOOPER
000392:
000393: 17,2544           51505                           INDEX    AXISCTR
000394: 17,2545           11426                           CCS      URATEDIF                              #        INDEX   AXIS    QUANITY
000395: 17,2546           34755                           CA       ZERO                                  #        0       -U      1/JETACC-AOSU
000396: 17,2547           12551                           TCF      +2                                    #        1       +U      1/JETACC+AOSU
000397: 17,2550           34753                           CA       ONE                                   #        16      -V      1/JETACC-AOSV
000398: 17,2551           51505                           INDEX    AXISCTR                               #        17      +V      1/JETACC+AOSV
000399: 17,2552           63722                           AD       AXISDIFF                              #  JETACC = 2 JET ACCELERATION (1 FOR FAIL)
000400:
000401: 17,2553           50000                           INDEX    A
000402: 17,2554           41571                           CS       1/ANET2    +1
000403: 17,2555           00006                           EXTEND
000404: 17,2556           51505                           INDEX    AXISCTR                               #  URATEDIF IS SCALED AT PI/4 RAD/SEC
000405: 17,2557           71426                           MP       URATEDIF                              #  JET TIME IN A       SCALED 32 SEC
000406: 17,2560           54002                           TS       Q
000407: 17,2561           20001                           DAS      A
000408: 17,2562           60002                           AD       Q
000409: 17,2563           54000                           TS       A                                     #  OVERFLOW SKIP
000410: 17,2564           12566                           TCF      +2
000411: 17,2565           30002                           CA       Q                                     #  RIGHT SIGN AND BIGGER THAN 150MS
000412: 17,2566           51505        SETTIME            INDEX    AXISCTR
000413: 17,2567           55525                           TS       TJU                                   #  SCALED AT 10.67 WHICH IS CLOSE TO 10.24
000414: 17,2570           12727                           TCF      AFTERTJ
000415:
000416: 17,2571           34755        ZEROTJ             CA       ZERO
000417: 17,2572           12566                           TCF      SETTIME
000418:
000419: 17,2573           02532        HANDADR            GENADR   BACKHAND
000420:
000421:                                                                                                  #  GTS WILL BE TRIED IF
000422:                                                                                                  #        1. USEQRJTS = 0,
000423:                                                                                                  #        2. ALLOWGTS POS,
000424:                                                                                                  #        3. JETS ARE OFF (Q,R-AXES)
000425:
000426: 17,2574           34736        TRYGTS             CAF      USEQRJTS                              #  IS JET USE MANDATORY.         (AS LONG AS
000427: 17,2575           70111                           MASK     DAPBOOLS                              #  USEQRJTS BIT IS NOT BIT 15, CCS IS SAFE)
000428: 17,2576           10000                           CCS      A
000429: 17,2577           12107                           TCF      RCS
000430: 17,2600           11502                           CCS      ALLOWGTS                              #  NO.  DOES AOSTASK OK CONTROL FOR GTS?


000432: 17,2601           12603                           TCF      +2
000433: 17,2602           12107                           TCF      RCS
000434: 17,2603           00006                           EXTEND
000435: 17,2604           00005                           READ     CHAN5
000436: 17,2605           10000                           CCS      A
000437: 17,2606           12612                           TCF      CHKINGTS
000438: 17,2607           00006        GOTOGTS            EXTEND
000439: 17,2610           32625                           DCA      GTSCADR
000440: 17,2611           52006                           DTCB
000441:
000442: 17,2612           11633        CHKINGTS           CCS      INGTS                                 #  WAS THE TRIM GIMBAL CONTROLLING
000443: 17,2613           12615                           TCF      +2                                    #        YES.  SET UP A DAMPED NULLING DRIVE.
000444: 17,2614           12107                           TCF      RCS                                   #        NO.  NULLING WAS SET UP BEFORE.  DO RCS
000445: 17,2615           00004                           INHINT
000446: 17,2616           04674                           TC       IBNKCALL
000447: 17,2617           43330                           CADR     TIMEGMBL
000448: 17,2620           00003                           RELINT
000449: 17,2621           34755                           CAF      ZERO
000450: 17,2622           55633                           TS       INGTS
000451: 17,2623           12107                           TCF      RCS
000452:
000453: 17,2624  E6,1635                                  EBANK=   CDUXD
000454: 17,2624           03077 42106  GTSCADR            2CADR    GTS
000455:


000457:                                                                                                  #  SUBROUTINE TO COMPUTE Q,R-AXES ATTITUDE ERRORS FOR USE IN THE RCS AND GTS CONTROL LAWS AND THE DISPLAYS.
000458:
000459: 17,2626           30033        QERRCALC           CAE      CDUY                                  #  Q-ERROR CALCULATION
000460: 17,2627           00006                           EXTEND
000461: 17,2630           21636                           MSU      CDUYD                                 #  CDU ANGLE - ANGLE DESIRED (Y-AXIS)
000462: 17,2631           55737                           TS       DAPTEMP1                              #  SAVE FOR RERRCALC
000463: 17,2632           00006                           EXTEND
000464: 17,2633           71415                           MP       M21                                   #  (CDUY-CDUYD)*M21 SCALED AT PI RADIANS
000465: 17,2634           55752                           TS       E
000466: 17,2635           30034                           CAE      CDUZ                                  #  SECOND TERM CALCULATION:
000467: 17,2636           00006                           EXTEND
000468: 17,2637           21637                           MSU      CDUZD                                 #  CDU ANGLE -ANGLE DESIRED (Z-AXIS)
000469: 17,2640           55740                           TS       DAPTEMP2                              #  SAVE FOR RERRCALC
000470: 17,2641           00006                           EXTEND
000471: 17,2642           71417                           MP       M22                                   #  (CDUZ-CDUZD)*M22 SCALED AT PI RADIANS
000472: 17,2643           61300                           AD       DELQEROR                              #  KALCMANU INERFACE ERROR
000473: 17,2644           61752                           AD       E
000474: 17,2645           57450                           XCH      QERROR                                #  SAVE Q-ERROR FOR EIGHT-BALL DISPLAY.
000475:
000476: 17,2646           31737        RERRCALC           CAE      DAPTEMP1                              #  R-ERROR CALCULATION:
000477: 17,2647           00006                           EXTEND                                         #  CDU ANGLE -ANGLE DESIRED (Y-AXIS)
000478: 17,2650           71416                           MP       M31                                   #  (CDUY-CDUYD)*M31 SCALED AT PI RADIANS
000479: 17,2651           55752                           TS       E
000480: 17,2652           31740                           CAE      DAPTEMP2                              #  SECOND TERM CALCULATION:
000481: 17,2653           00006                           EXTEND                                         #  CDU ANGLE -ANGLE DESIRED (Z-AXIS)
000482: 17,2654           71420                           MP       M32                                   #  (CDUZ-CDUZD)*M32 SCALED AT PI RADIANS
000483: 17,2655           61301                           AD       DELREROR                              #  KALCMANU INERFACE ERROR
000484: 17,2656           61752                           AD       E
000485: 17,2657           57452                           XCH      RERROR                                #  SAVE R-ERROR FOR EIGHT-BALL DISPLAY.
000486: 17,2660           00002                           TC       Q
000487:


000489:                                                                                                  #  "ATTSTEER" IS THE ENTRY POINT FOR Q,R-AXES (U,V-AXES) ATTITUDE CONTROL USING THE REACTION CONTROL SYSTEM
000490:
000491: 17,2661  17,2661               ATTSTEER           EQUALS   STILLRCS                              #  "STILLRCS" IS THE RCS EXIT FROM TRYGTS.
000492:
000493: 17,2661           31452        STILLRCS           CA       RERROR
000494: 17,2662           22000                           LXCH     A
000495: 17,2663           31450                           CA       QERROR
000496: 17,2664           03146                           TC       ROT-TOUV
000497: 17,2665           53752                           DXCH     UERROR
000498:
000499:                                                                                                  #  PREPARES CALL TO TJETLAW (OR SPSRCS(DOCKED))
000500:                                                                                                  #  PREFORMS SKIP LOGIC ON U OR Y AXIS IF NEEDED.
000501:
000502: 17,2666           33113        TJLAW              CA       TJLAWADR
000503: 17,2667           55477                           TS       RETJADR
000504: 17,2670           34753                           CA       ONE
000505: 17,2671           55505                           TS       AXISCTR
000506: 17,2672           51505                           INDEX    AXISCTR
000507: 17,2673           51535                           INDEX    SKIPU
000508: 17,2674           12675                           TCF      +1
000509: 17,2675           34751                           CA       FOUR
000510: 17,2676           51505                           INDEX    AXISCTR
000511: 17,2677           55535                           TS       SKIPU
000512: 17,2700           13005                           TCF      LOOPER
000513: 17,2701           51505                           INDEX    AXISCTR
000514: 17,2702           31751                           CA       UERROR
000515: 17,2703           55752                           TS       E
000516: 17,2704           51505                           INDEX    AXISCTR
000517: 17,2705           31426                           CA       OMEGAU
000518: 17,2706           55427                           TS       EDOT
000519: 17,2707           30111                           CA       DAPBOOLS
000520: 17,2710           74737                           MASK     CSMDOCKD
000521: 17,2711           10000                           CCS      A
000522: 17,2712           12715                           TCF      +3
000523: 17,2713           03252                           TC       TJETLAW
000524: 17,2714           12727                           TCF      AFTERTJ
000525: 17,2715           40111                 +3        CS       DAPBOOLS                              #  DOCKED.  IF GIMBAL USABLE DO GTS CONTROL
000526: 17,2716           74736                           MASK     USEQRJTS                              #        ON THE NEXT PASS.
000527: 17,2717           10000                           CCS      A                                     #  USEQRJTS BIT MUST NOT BE BIT 15.
000528: 17,2720           55631                           TS       COTROLER                              #  GIMBAL USABLE.  STORE POSITIVE VALUE.
000529: 17,2721           00004                           INHINT
000530: 17,2722           04674                           TC       IBNKCALL
000531: 17,2723           43727                           CADR     SPSRCS                                #  DETERMINE RCS CONTROL
000532: 17,2724           00003                           RELINT
000533: 17,2725           34751                           CAF      FOUR                                  #  ALWAYS CALL FOR 2-JET CONTROL ABOUT U,V.
000534: 17,2726           55743                           TS       NUMBERT                               #  FALL THROUGH TO JET SELECTION, ETC.
000535:
000536:                                                                                                  #  Q,R-JET-SELECTION-LOGIC
000537:
000538:                                                                                                  #  INPUT:        AXISCTR         0,1 FOR U,V
000539:                                                                                                  #                SNUFFBIT        ZERO TJETU,V AND TRANS. ONLY IF SET IN A DPS BURN


000541:                                                                                                  #                TJU,TJV         JET TIME SCALED 10.24 SEC.
000542:                                                                                                  #                NUMBERT         INDICATES NUMBER OF JETS AND TYPE OF POLICY
000543:                                                                                                  #                RETJADR         WHERE TO RETURN TO
000544:
000545:                                                                                                  #  OUTPUT:       NO.U(V)JETS     RATE DERIVATION FEEDBACK
000546:                                                                                                  #                CHANNEL 5
000547:                                                                                                  #                SKIPU,SKIRV     FOR LESS THAN 150MS FIRING
000548:
000549:                                                                                                  #  NOTES:        IN CASE OF FAILURE IN DESIRED ROTATION POLICY, "ALL" UNFAILED
000550:                                                                                                  #                JETS OF THE DESIRED POLICY ARE SELECTED.  SINCE THERE ARE ONLY
000551:                                                                                                  #                TWO JETS, THIS MEANS THE OTHER ONE OR NONE.  THE ALARM IS SENT
000552:                                                                                                  #                IF NONE CAN BE FOUND.
000553:
000554:                                                                                                  #                TIMES LESS THAN 14 MSEC ARE TAKEN TO CALL FOR A SINGLE-JET
000555:                                                                                                  #                MINIMUM IMPULSE, WITH THE JET CHOSEN SEMI-RANDOMLY.
000556:
000557: 17,2727           30101        AFTERTJ            CA       FLAGWRD5                              #  IF SNUFFBIT SET DURING A DPS BURN GO TO
000558: 17,2730           74737                           MASK     SNUFFBIT                              #  XTRANS; THAT IS, INHIBIT CONTROL.
000559: 17,2731           00006                           EXTEND
000560: 17,2732           12743                           BZF      DOROTAT
000561: 17,2733           40106                           CS       FLGWRD10
000562: 17,2734           74737                           MASK     APSFLBIT
000563: 17,2735           00006                           EXTEND
000564: 17,2736           12743                           BZF      DOROTAT
000565: 17,2737           30111                           CA       DAPBOOLS
000566: 17,2740           74744                           MASK     DRIFTBIT
000567: 17,2741           00006                           EXTEND
000568: 17,2742           13063                           BZF      XTRANS
000569:
000570: 17,2743           34752        DOROTAT            CAF      TWO
000571: 17,2744           54001                           TS       L
000572: 17,2745           51505                           INDEX    AXISCTR
000573: 17,2746           11525                           CCS      TJU
000574: 17,2747           12754                           TCF      +5
000575: 17,2750           12777                           TCF      NOROTAT
000576: 17,2751           12753                           TCF      +2
000577: 17,2752           12777                           TCF      NOROTAT
000578: 17,2753           22007                           ZL
000579: 17,2754           64753                           AD       ONE
000580: 17,2755           55737                           TS       ABSTJ
000581:
000582: 17,2756           31505                           CA       AXISCTR
000583: 17,2757           60001                           AD       L
000584: 17,2760           55744                           TS       ROTINDEX                              #  0 1 2 3 = -U -V -+U +V
000585:
000586: 17,2761           31737                           CA       ABSTJ
000587: 17,2762           63110                           AD       -150MS
000588: 17,2763           00006                           EXTEND
000589: 17,2764           63010                           BZMF     DOSKIP


000591: 17,2765           03173                           TC       SELCTSUB
000592:
000593: 17,2766           51505                           INDEX    AXISCTR
000594: 17,2767           33105                           CA       INDEXES
000595: 17,2770           54001                           TS       L
000596:
000597: 17,2771           31741                           CA       POLYTEMP
000598: 17,2772           00004                           INHINT
000599: 17,2773           50001                           INDEX    L
000600: 17,2774           05754                           TC       WRITEP
000601:
000602: 17,2775           00003                           RELINT
000603: 17,2776           13051                           TCF      FEEDBACK
000604:
000605: 17,2777           51505        NOROTAT            INDEX    AXISCTR
000606: 17,3000           33105                           CA       INDEXES
000607: 17,3001           00004                           INHINT
000608: 17,3002           50000                           INDEX    A
000609: 17,3003           05753                           TC       WRITEP     -1
000610:
000611: 17,3004           00003                           RELINT
000612: 17,3005           11505        LOOPER             CCS      AXISCTR
000613: 17,3006           01477                           TC       RETJADR
000614: 17,3007           13236                           TCF      CLOSEOUT
000615: 17,3010           41737        DOSKIP             CS       ABSTJ
000616: 17,3011           63107                           AD       +TJMINT6                              #  14MS
000617: 17,3012           00006                           EXTEND
000618: 17,3013           63032                           BZMF     NOTMIN
000619:
000620: 17,3014           27737                           ADS      ABSTJ
000621: 17,3015           51505                           INDEX    AXISCTR
000622: 17,3016           11525                           CCS      TJU
000623: 17,3017           33107                           CA       +TJMINT6
000624: 17,3020           13022                           TCF      +2
000625: 17,3021           43107                           CS       +TJMINT6
000626: 17,3022           51505                           INDEX    AXISCTR
000627: 17,3023           55525                           TS       TJU
000628:
000629: 17,3024           11500                           CCS      SENSETYP                              #  ENSURE MIN-IMPULSE NOT AGAINST TRANS
000630: 17,3025           13031                           TCF      NOTMIN     -1
000631: 17,3026           00006                           EXTEND
000632: 17,3027           00004                           READ     LOSCALAR
000633: 17,3030           74753                           MASK     ONE
000634: 17,3031           55743                           TS       NUMBERT
000635:
000636: 17,3032           03173        NOTMIN             TC       SELCTSUB
000637:
000638: 17,3033           51505                           INDEX    AXISCTR
000639: 17,3034           33105                           CA       INDEXES
000640: 17,3035           00004                           INHINT


000642: 17,3036           55471                           TS       T6FURTHA   +1
000643: 17,3037           31741                           CA       POLYTEMP
000644: 17,3040           51471                           INDEX    T6FURTHA   +1
000645: 17,3041           05754                           TC       WRITEP
000646:
000647: 17,3042           31737                           CA       ABSTJ
000648: 17,3043           55470                           TS       T6FURTHA
000649: 17,3044           03114                           TC       JTLST                                 #  IN QR BANK BY NOW
000650:
000651: 17,3045           00003                           RELINT
000652:
000653: 17,3046           34755                           CA       ZERO
000654: 17,3047           51505                           INDEX    AXISCTR
000655: 17,3050           55535                           TS       SKIPU
000656:
000657: 17,3051           46245        FEEDBACK           CS       THREE
000658: 17,3052           61743                           AD       NUMBERT
000659: 17,3053           00006                           EXTEND
000660: 17,3054           63057                           BZMF     +3
000661:
000662: 17,3055           34752                           CA       TWO
000663: 17,3056           13060                           TCF      +2
000664: 17,3057           34753                           CA       ONE
000665: 17,3060           51505                           INDEX    AXISCTR
000666: 17,3061           55522                           TS       NO.UJETS
000667: 17,3062           13005                           TCF      LOOPER
000668:
000669: 17,3063           34755        XTRANS             CA       ZERO
000670: 17,3064           55525                           TS       TJU
000671: 17,3065           55526                           TS       TJV
000672: 17,3066           34751                           CA       FOUR
000673: 17,3067           00004                           INHINT
000674: 17,3070           57535                           XCH      SKIPU
000675: 17,3071           00006                           EXTEND
000676: 17,3072           13074                           BZF      +2
000677: 17,3073           05757                           TC       WRITEU     -1
000678: 17,3074           34751                           CA       FOUR
000679: 17,3075           57536                           XCH      SKIPV
000680: 17,3076           00003                           RELINT
000681:
000682: 17,3077           00006                           EXTEND
000683: 17,3100           13236                           BZF      CLOSEOUT
000684: 17,3101           00004                           INHINT
000685: 17,3102           05770                           TC       WRITEV     -1
000686: 17,3103           00003                           RELINT
000687:
000688: 17,3104           13236                           TCF      CLOSEOUT
000689: 17,3105           00004        INDEXES            DEC      4          B-14
000690: 17,3106           00015                           DEC      13         B-14
000691: 17,3107           00026        +TJMINT6           DEC      22         B-14


000693: 17,3110           77417        -150MS             DEC      -240       B-14
000694: 17,3111           00600        BIT8,9             OCT      00600
000695: 17,3112           00266        SCLNORM            OCT      266
000696: 17,3113           02671        TJLAWADR           GENADR   TJLAW      +3                         #  RETURN ADDRESS FOR RCS ATTITUDE CONTROL
000697:
000698:                                                                                                  #  THE JET LIST:
000699:                                                                                                  #  THIS IS A WAITLIST FOR T6RUPTS.
000700:
000701:                                                                                                  #  CALLED BY:
000702:                                                                                                  #                CA      TJ              TIME WHEN NEXT JETS WILL BE WRITTEN
000703:                                                                                                  #                TS      T6FURTHA
000704:                                                                                                  #                CA      INDEX           AXIS TO BE WIRTTEN AT TJ (FROM NOW)
000705:                                                                                                  #                TS      T6FURTHA +1
000706:                                                                                                  #                TC      JTLST
000707:
000708:                                                                                                  #  EXAMPLE - U-AXIS AUTOPILOT WILL WRITE ITS ROTATION CODE OF
000709:                                                                                                  #  JETS INTO CHANNEL 5.  IF IT DESIRES TO TURN OFF THIS POLICY WITHIN
000710:                                                                                                  #  150MS AND THEN FIRE NEXTU, A CALL TO JTLST IS MADE WITH T6FURTHA
000711:                                                                                                  #  CONTAINING THE TIME TO TURN OFF THE POLICY, T6FURTHA +1 THE INDEX
000712:                                                                                                  #  OF THE U-AXIS(4), AND NEXTU WILL CONTAIN THE "U-TRANS" POLICY OR ZERO.
000713:
000714:                                                                                                  #  THE LIST IS EXACTLY 3 LONG.  (THIS LEADS TO SKIP LOGIC AND 150MS LIMIT)
000715:                                                                                                  #  THE INPUT IS THE LAST MEMBER OF THE LIST
000716:
000717:                                                                                                  #  RETURNS BY:
000718:                                                                                                  #        +       TC      Q
000719:
000720:                                                                                                  #  DEFINITIONS:  (OUTPUT)
000721:                                                                                                  #        TIME6           TIME OF NEXT RUPT
000722:                                                                                                  #        T6NEXT          DELTA TIME TO NEXT RUPT
000723:                                                                                                  #        T6FURTHA        DELTA TIME FROM 2ND TO LAST RUPT
000724:                                                                                                  #        NXT6ADR         AXIS INDEX       Q - P-AXIS
000725:                                                                                                  #        T6NEXT +1       AXIS INDEX       4 - U-AXIS
000726:                                                                                                  #        T6FURTHA +1     AXIS INDEX      13 - V-AXIS
000727:
000728: 17,3114           41470        JTLST              CS       T6FURTHA
000729: 17,3115           60031                           AD       TIME6
000730: 17,3116           00006                           EXTEND
000731: 17,3117           63131                           BZMF     MIDORLST                              #  TIME6 - T IS IN A
000732:
000733: 17,3120           23465                           LXCH     NXT6ADR
000734: 17,3121           53467                           DXCH     T6NEXT
000735: 17,3122           53471                           DXCH     T6FURTHA
000736: 17,3123           54031                           TS       TIME6
000737: 17,3124           23465                           LXCH     NXT6ADR
000738:
000739: 17,3125           34735        TURNON             CA       BIT15
000740: 17,3126           00006                           EXTEND
000741: 17,3127           05013                           WOR      CHAN13
000742: 17,3130           00002                           TC       Q
000743:


000745: 17,3131           61466        MIDORLST           AD       T6NEXT
000746: 17,3132           00006                           EXTEND
000747: 17,3133           63142                           BZMF     LASTCHG                               #  TIME6 + T6NEXT - T IS IN A
000748:
000749: 17,3134           23467                           LXCH     T6NEXT     +1
000750: 17,3135           53471                           DXCH     T6FURTHA
000751: 17,3136           00006                           EXTEND
000752: 17,3137           60031                           SU       TIME6
000753: 17,3140           53467                           DXCH     T6NEXT
000754:
000755: 17,3141           00002                           TC       Q
000756:
000757: 17,3142           40000        LASTCHG            CS       A
000758: 17,3143           64754                           AD       NEG0
000759: 17,3144           55470                           TS       T6FURTHA
000760:
000761: 17,3145           00002                           TC       Q
000762:
000763:                                                                                                  #  ROT-TOUV IS ENTERED WITH THE Q-COMPONENT OF THE QUANTITY TO BE TRANSFORMED IN A AND THE R-COMPONENT IN L.
000764:                                                                                                  #  ROT-TOUV TRANSFORMS THE QUANTITY INTO THE NON-ORTHOGONAL U-V AXIS SYSTEM.  IN THE U-V SYSTEM NO CROSS-COUPLING IS
000765:                                                                                                  #  PRODUCED FROM RCS JET FIRINGS.  AT THE COMPLETION OF ROT-TOUV, THE U-COMPONENT OF THE TRANSFORMED QUANTITY IS IN
000766:                                                                                                  #  A AND THE V-COMPONENT IS IN L.
000767:
000768: 17,3146           23740        ROT-TOUV           LXCH     ROTEMP2                               #  (R) IS PUT INTO ROTEMP2
000769: 17,3147           00006                           EXTEND
000770: 17,3150           71627                           MP       COEFFQ
000771: 17,3151           57740                           XCH      ROTEMP2                               #  (R) GOES TO A AND COEFFQ.(Q) TO ROTEMP2
000772: 17,3152           00006                           EXTEND
000773: 17,3153           71630                           MP       COEFFR
000774: 17,3154           54001                           TS       L                                     #  COEFFR.(R) IS PUT INTO L
000775: 17,3155           61740                           AD       ROTEMP2
000776: 17,3156           55737                           TS       ROTEMP1                               #  COEFFQ.(Q)+COEFFR.(R) IS PUT IN ROTEMP1
000777: 17,3157           13163                           TCF      +4
000778: 17,3160           50000                           INDEX    A                                     #  COEFFQ.(Q) + COEFFR.(R) HAS OVERFLOWED
000779: 17,3161           44734                           CS       LIMITS                                #  AND IS LIMITED TO POSMAX OR NEGMAX
000780: 17,3162           55737                           TS       ROTEMP1
000781: 17,3163           41740                           CS       ROTEMP2
000782: 17,3164           60001                           AD       L                                     #  -COEFFQ.(Q) + COEFFR.(R) IS NOW IN A
000783: 17,3165           54007                           TS       7
000784: 17,3166           13171                           TCF      +3
000785: 17,3167           50000                           INDEX    A                                     #  -COEFFQ.(Q) + COEFFR.(R) HAS OVERFLOWED
000786: 17,3170           44734                           CS       LIMITS                                #  AND IS LIMITED TO POSMAX OR NEGMAX
000787: 17,3171           23737                           LXCH     ROTEMP1                               #  COEFFQ.(Q) + COEFFR.(R) IS PUT INTO L
000788: 17,3172           00002                           TC       Q
000789: 17,3173           51744        SELCTSUB           INDEX    ROTINDEX
000790: 17,3174           33225                           CA       ALLJETS
000791: 17,3175           51743                           INDEX    NUMBERT
000792: 17,3176           73231                           MASK     TYPEPOLY
000793: 17,3177           55741                           TS       POLYTEMP


000795: 17,3200           71262                           MASK     CH5MASK
000796: 17,3201           10000                           CCS      A
000797: 17,3202           13204                           TCF      +2
000798:
000799: 17,3203           00002                           TC       Q
000800:
000801: 17,3204           36245                           CA       THREE
000802: 17,3205           55743        FAILOOP            TS       NUMBERT
000803: 17,3206           51744                           INDEX    ROTINDEX
000804: 17,3207           33225                           CA       ALLJETS
000805: 17,3210           51743                           INDEX    NUMBERT
000806: 17,3211           73231                           MASK     TYPEPOLY
000807: 17,3212           55741                           TS       POLYTEMP
000808: 17,3213           71262                           MASK     CH5MASK
000809: 17,3214           00006                           EXTEND
000810: 17,3215           13203                           BZF      FAILOOP    -2
000811: 17,3216           11743                           CCS      NUMBERT
000812: 17,3217           13205                           TCF      FAILOOP
000813: 17,3220           51505                           INDEX    AXISCTR
000814: 17,3221           55525                           TS       TJU
000815: 17,3222           05567                           TC       ALARM
000816: 17,3223           02004                           OCT      02004
000817: 17,3224           12777                           TCF      NOROTAT
000818: 17,3225           00110        ALLJETS            OCT      00110                                 #        -U      6 13
000819: 17,3226           00022                           OCT      00022                                 #        -V      2 9
000820: 17,3227           00204                           OCT      00204                                 #        +U      5 14
000821: 17,3230           00041                           OCT      00041                                 #        +V      1 10
000822: 17,3231           00125        TYPEPOLY           OCT      00125                                 #        -X      1 5 9 13
000823: 17,3232           00252                           OCT      00252                                 #        +X      2 6 10 14
000824: 17,3233           00146                           OCT      00146                                 #        A       2 5 10 13
000825: 17,3234           00231                           OCT      00231                                 #        B       1 6 9 14
000826: 17,3235           00377                           OCT      00377                                 #        ALL     1 2 5 6 9 10 13 14
000827:
000828:                                                                                                  #  THE FOLLOWING SETS THE INTERRUPT FLIP-FLOP AS SOON AS POSSIBLE, WHICH PERMITS A RETURN TO THE INTERRUPTED JOB.
000829:
000830: 17,3236           33240        CLOSEOUT           CA       ADRRUPT
000831: 17,3237           07754                           TC       MAKERUPT
000832:
000833: 17,3240           03241        ADRRUPT            ADRES    ENDJASK
000834:
000835: 17,3241           53754        ENDJASK            DXCH     DAPARUPT
000836: 17,3242           52011                           DXCH     ARUPT
000837: 17,3243           53756                           DXCH     DAPBQRPT
000838: 17,3244           56017                           XCH      BRUPT
000839: 17,3245           22002                           LXCH     Q
000840: 17,3246           34735                           CAF      NEGMAX                                #  NEGATIVE DAPZRUPT SIGNALS JASK IS OVER.
000841: 17,3247           53760                           DXCH     DAPZRUPT
000842: 17,3250           52016                           DXCH     ZRUPT
000843: 17,3251           15272                           TCF      NOQRSM


000845:    7754                                           BLOCK    3
000846:    6000                                           SETLOC   FFTAG6
000847:    6000                                           BANK
000848:
000849:    7754                                           COUNT*   $$/DAP
000850:
000851:    7754           00006        MAKERUPT           EXTEND
000852:    7755           07754                           EDRUPT   MAKERUPT
000853:

End of include-file Q,R-AXES_RCS_AUTOPILOT.agc.  Parent file is MAIN.agc


