
Source Code


000002:                                                                                                  ## Copyright:   Public domain.
000003:                                                                                                  ## Filename:    R63.agc
000004:                                                                                                  ## Purpose:     A section of Luminary revision 97.
000005:                                                                                                  ##              It is part of the reconstructed source code for the
000006:                                                                                                  ##              original release of the flight software for the Lunar
000007:                                                                                                  ##              Module's (LM) Apollo Guidance Computer (AGC) for Apollo 11.
000008:                                                                                                  ##              The code has been recreated from a copy of Luminary 99
000009:                                                                                                  ##              revision 001, using asterisks indicating changed lines in
000010:                                                                                                  ##              the listing and Luminary Memos #83 and #85, which list
000011:                                                                                                  ##              changes between Luminary 97 and 98, and 98 and 99. The
000012:                                                                                                  ##              code has been adapted such that the resulting bugger words
000013:                                                                                                  ##              exactly match those specified for Luminary 97 in NASA drawing
000014:                                                                                                  ##              2021152D, which gives relatively high confidence that the
000015:                                                                                                  ##              reconstruction is correct.
000016:                                                                                                  ## Reference:   pp. 338-341
000017:                                                                                                  ## Assembler:   yaYUL
000018:                                                                                                  ## Contact:     Ron Burkey <info@sandroid.org>.
000019:                                                                                                  ## Website:     www.ibiblio.org/apollo/index.html
000020:                                                                                                  ## Mod history: 2019-07-28 MAS  Created from Luminary 99.
000021:


000023:                                                                                                  #  SUBROUTINE NAME:      V89CALL
000024:                                                                                                  #  MOD NO:       0                       DATE:           9 JAN 1968
000025:                                                                                                  #  MOD BY:       DIGITAL DEVEL GROUP     LOG SECTION:    R63
000026:
000027:                                                                                                  #  FUNCTIONAL DESCRIPTION:
000028:
000029:                                                                                                  #  CALLED BY VERB 89 ENTER DURING P00.  PRIO 10 USED.  CALCULATES AND
000030:                                                                                                  #  DISPLAYS FINAL FDAI BALL ANGLES TO POINT LM +X OR +Z AXIS AT CSM.
000031:
000032:                                                                                                  #  1. KEY IN V 89 E ONLY IF IN PROG 00.  IF NOT IN P00, OPERATOR ERROR AND
000033:                                                                                                  #  EXIT R63, OTHERWISE CONTINUE.
000034:
000035:                                                                                                  #  2. IF IN P00, DO IMU STATUS CHECK ROUTINE (R02BOTH).  IF IMU ON AND ITS
000036:                                                                                                  #  ORIENTATION KNOWN TO LGC, CONTINUE.
000037:
000038:                                                                                                  #  3. FLASH DISPLAY V 04 N 06.  R2 INDICATES WHICH SPACECRAFT AXIS IS TO
000039:                                                                                                  #  BE POINTED AT CSM.  INITIAL CHOICE IS PREFERRED (+Z) AXIS (R2=1).
000040:                                                                                                  #  ASTRONAUT CAN CHANGE TO (+X) AXIS (R2 NOT =1) BY V 22 E 2 E.  CONTINUE
000041:                                                                                                  #  AFTER KEYING IN PROCEED.
000042:
000043:                                                                                                  #  4. BOTH VEHICLE STATE VECTORS UPDATED BY CONIC EQS.
000044:
000045:                                                                                                  #  5. HALF MAGNITUDE UNIT LOS VECTOR (IN STABLE MEMBER COORDINATES) AND
000046:                                                                                                  #  HALF MAGNITUDE UNIT SPACECRAFT AXIS VECTOR (IN BODY COORDINATES)
000047:                                                                                                  #  PREPARED FOR VECPOINT.
000048:
000049:                                                                                                  #  6. GIMBAL ANGLES FROM VECPOINT TRANSFORMED INTO FDAI BALL ANGLES BY
000050:                                                                                                  #  BALLANGS.  FLASH DISPLAY V 06 N 18 AND AWAIT RESPONSE.
000051:
000052:                                                                                                  #  7.    RECYCLE - RETURN TO STEP 4.
000053:                                                                                                  #        TERMINATE - EXIT R63.
000054:                                                                                                  #        PROCEED - RESET 3AXISFLG AND CALL R60LEM FOR ATTITUDE MANEUVER.
000055:
000056:                                                                                                  #  CALLING SEQUENCE:     V 89 E.
000057:
000058:                                                                                                  #  SUBROUTINES CALLED:   CHKPOOH, R02BOTH, GOXDSPF, CSMCONIC, LEMCONIC,
000059:                                                                                                  #                        VECPOINT, BALLANGS, R60LEM.
000060:
000061:                                                                                                  #  NORMAL EXIT MODES:    TC ENDEXT
000062:
000063:                                                                                                  #  ALARMS:       1. OPERATOR ERROR IF NOT IN P00.
000064:                                                                                                  #                2. PROGRAM ALARM IF IMU IS OFF.
000065:                                                                                                  #                3. PROGRAM ALARM IF IMU ORIENTATION IS UNKNOWN.
000066:
000067:                                                                                                  #  OUTPUT:       NONE
000068:
000069:                                                                                                  #  ERASABLE INITIALIZATION REQUIRED:  NONE
000070:
000071:                                                                                                  #  DEBRIS:       OPTION1, +1, TDEC1, POINTVSM, SCAXIS, CPHI, CTHETA, CPSI,


000073:                                                                                                  #                3AXISFLG.
000074:
000075: 06,3715  E4,1606                                  EBANK=   RONE
000076: 32,2217                                           BANK     32
000077: 26,2000                                           SETLOC   BAWLANGS
000078: 26,2000                                           BANK
000079:
000080: 26,2022                                           COUNT*   $$/R63
000081: 26,2022           04616        V89CALL            TC       BANKCALL                              #  IMU STATUS CHECK.  RETURNS IF ORIENTATION
000082: 26,2023           11254                           CADR     R02BOTH                               #  KNOWN.  ALARMS IF NOT.
000083: 26,2024           36245                           CAF      THREE                                 #  ALLOW ASTRONAUT TO SELECT DESIRED
000084: 26,2025           55051                           TS       OPTIONX                               #  TRACKING ATTITUDE AXIS.
000085: 26,2026           34753                           CAF      ONE
000086: 26,2027           55052                           TS       OPTIONX    +1
000087: 26,2030           32117                           CAF      VB04N12                               #  V 04 N 12
000088: 26,2031           04616                           TC       BANKCALL
000089: 26,2032           20476                           CADR     GOFLASH
000090: 26,2033           05472                           TC       ENDEXT                                #  TERMINATE
000091: 26,2034           02036                           TC       +2                                    #  PROCEED
000092: 26,2035           02030                           TC       -5                                    #  DATA IN. OPTION1+1 = 1 FOR Z AXIS
000093: 26,2036           06037        V89RECL            TC       INTPRET                               #                    = 2 FOR X AXIS
000094: 26,2037           43234                           RTB      DAD
000095: 26,2040           21573                                    LOADTIME                              #  READ PRESENT TIME
000096: 26,2041           14122                                    DP1MIN
000097: 26,2042           02205                           STORE    TSTART82                              #  SAVE TIME FOR LEMCONIC CALL
000098: 26,2043           34041                           STCALL   TDEC1                                 #  STORE TIME FOR CSMCONIC CALL
000099: 26,2044           27066                                    CSMCONIC                              #  CSM STATE VECTOR UPDATE
000100: 26,2045           77775                           VLOAD                                          #  CSMCONIC LEFT R VECTOR IN RATT
000101: 26,2046           00001                                    RATT
000102: 26,2047           16207                           STODL    RONE                                  #  SAVE FOR LINE OF SIGHT (LOS) COMPUTATION
000103: 26,2050           02205                                    TSTART82
000104: 26,2051           34041                           STCALL   TDEC1                                 #  STORE TIME FOR LEMCONIC CALL
000105: 26,2052           27100                                    LEMCONIC                              #  LEM STATE VECTOR UPDATE
000106: 26,2053           52375                           VLOAD    VSU                                   #  CSM POSITION - LEM POSITION = LOS
000107: 26,2054           02207                                    RONE                                  #  LOS VECTOR LEFT IN MPAC
000108: 26,2055           00001                                    RATT
000109: 26,2056           47121                           MXV      RTB                                   #  (REFSMMAT X LOS).  TRANSFORMS LOS FROM
000110: 26,2057           01734                                    REFSMMAT                              #  REFERENCE COORD TO STAB MEMB COORD.
000111: 26,2060           21726                                    NORMUNIT
000112: 26,2061           03773                           STORE    POINTVSM                              #  STORE LOS FOR VECPOINT CALL
000113: 26,2062           77776                           EXIT
000114: 26,2063           41052                           CS       OPTIONX    +1                         #  1 FOR Z AXIS.  2 FOR X AXIS.
000115: 26,2064           64753                           AD       ONE
000116: 26,2065           00006                           EXTEND
000117: 26,2066           12113                           BZF      ALINEZ
000118: 26,2067           06037        ALINEX             TC       INTPRET                               #  X AXIS ALIGNMENT
000119: 26,2070           77775                           VLOAD
000120: 26,2071           06520                                    UNITX                                 #  READ (.5, 0, 0)


000122: 26,2072           37765        V89CALL1           STCALL   SCAXIS                                #  STORE SELECTED ALIGNMENT AXIS
000123: 26,2073           56040                                    VECPOINT                              #  PUTS DESIRED GIM ANG (OG,IG,MG) IN TMPAC
000124: 26,2074           00322                           STORE    CPHI                                  #  STORE GIMBAL ANGLES FOR BALLANGS CALL.
000125: 26,2075           77776                           EXIT
000126: 26,2076           04616                           TC       BANKCALL
000127: 26,2077           54266                           CADR     BALLANGS                              #  PUTS DESIRED BALL ANGLES IN FDAIX,Y,Z
000128: 26,2100           32120                           CAF      VB06N18                               #  V 06 N 18
000129: 26,2101           04616                           TC       BANKCALL                              #  NOUN 18 REFERS TO FDAIX,Y,Z
000130: 26,2102           20476                           CADR     GOFLASH
000131: 26,2103           05472                           TC       ENDEXT                                #  TERMINATE
000132: 26,2104           02106                           TC       +2                                    #  PROCEED
000133: 26,2105           02036                           TC       V89RECL                               #  RECYCLE
000134: 26,2106           05516                           TC       DOWNFLAG                              #  RESET 3 AXIS FLAG
000135: 26,2107           00124                           ADRES    3AXISFLG                              #  RESET BIT6 FLAG WORD 5
000136: 26,2110           04616                           TC       BANKCALL                              #  PERFORMS LEM MANEUVER TO ALIGN SELECTED
000137: 26,2111           54123                           CADR     R60LEM                                #  SPACECRAFT AXIS TO CSM.
000138: 26,2112           15472                           TCF      ENDEXT                                #  TERMINATE R63
000139:
000140: 26,2113           06037        ALINEZ             TC       INTPRET                               #  Z AXIS ALIGNMENT
000141: 26,2114           52175                           VLOAD    GOTO
000142: 26,2115           06514                                    UNITZ                                 #  READ (0, 0, .5)
000143: 26,2116           54072                                    V89CALL1
000144:
000145: 26,2117           01014        VB04N12            VN       412
000146: 26,2120           01422        VB06N18            VN       0618


000148: 26,2121           00000 13560  DP1MIN             2DEC     6000       B-28
000149:

End of include-file R63.agc.  Parent file is MAIN.agc


