
Source Code


000002:                                                                                                  ## Copyright:   Public domain.
000003:                                                                                                  ## Filename:    RADAR_LEADIN_ROUTINES.agc
000004:                                                                                                  ## Purpose:     A section of Luminary revision 97.
000005:                                                                                                  ##              It is part of the reconstructed source code for the
000006:                                                                                                  ##              second release of the flight software for the Lunar
000007:                                                                                                  ##              Module's (LM) Apollo Guidance Computer (AGC) for Apollo 11.
000008:                                                                                                  ##              It was created to fix two incorrect ephemeris constants in
000009:                                                                                                  ##              Luminary 96, as described by anomaly report LNY-59.
000010:                                                                                                  ##              The code has been recreated from a copy of Luminary 99
000011:                                                                                                  ##              revision 001, using asterisks indicating changed lines in
000012:                                                                                                  ##              the listing and Luminary Memos #83 and #85, which list
000013:                                                                                                  ##              changes between Luminary 97 and 98, and 98 and 99. The
000014:                                                                                                  ##              code has been adapted such that the resulting bugger words
000015:                                                                                                  ##              exactly match those specified for Luminary 97 in NASA drawing
000016:                                                                                                  ##              2021152D, which gives relatively high confidence that the
000017:                                                                                                  ##              reconstruction is correct.
000018:                                                                                                  ## Reference:   pp. 490-491
000019:                                                                                                  ## Assembler:   yaYUL
000020:                                                                                                  ## Contact:     Ron Burkey <info@sandroid.org>.
000021:                                                                                                  ## Website:     www.ibiblio.org/apollo/index.html
000022:                                                                                                  ## Mod history: 2019-07-28 MAS  Created from Luminary 99.
000023:


000025: 25,2003                                           BANK     25
000026: 25,2000                                           SETLOC   RRLEADIN
000027: 25,2000                                           BANK
000028:
000029: 25,2003  E4,1600                                  EBANK=   RSTACK
000030:
000031:                                                                                                  #  RADAR SAMPLING LOOP.
000032:
000033: 25,2003                                           COUNT*   $$/RLEAD
000034: 25,2003           11755        RADSAMP            CCS      RSAMPDT                               #  TIMES NORMAL ONCE-PER-SECOND SAMPLING.
000035: 25,2004           12006                           TCF      +2
000036: 25,2005           15261                           TCF      TASKOVER                              #  +0 INSERTED MANUALLY TERMINATES TEST.
000037:
000038: 25,2006           05203                           TC       WAITLIST
000039: 25,2007  E4,1600                                  EBANK=   RSTACK
000040: 25,2007           02003 52064                     2CADR    RADSAMP
000041:
000042: 25,2011           37713                           CAF      PRIO25
000043: 25,2012           05072                           TC       NOVAC
000044: 25,2013  E4,1600                                  EBANK=   RSTACK
000045: 25,2013           02023 52064                     2CADR    DORSAMP
000046:
000047: 25,2015           34736                           CAF      BIT14                                 #  FOR CYCLIC SAMPLING, RTSTDEX=
000048: 25,2016           00006                           EXTEND                                         #  RTSTLOC/2 + RTSTBASE
000049: 25,2017           71754                           MP       RTSTLOC
000050: 25,2020           61753                           AD       RTSTBASE                              #  0 FOR RR, 2 FOR LR.
000051: 25,2021           55751                           TS       RTSTDEX
000052: 25,2022           15261                           TCF      TASKOVER
000053:
000054:                                                                                                  #  DO THE ACTUAL RADAR SAMPLE.
000055:
000056: 25,2023           02047        DORSAMP            TC       VARADAR                               #  SELECTS VARIABLE RADAR CHANNEL.
000057: 25,2024           04616                           TC       BANKCALL
000058: 25,2025           17714                           CADR     RADSTALL
000059:
000060: 25,2026           25756                           INCR     RFAILCNT                              #  ADVANCE FAIL COUNTER BUT ACCEPT BAD DATA
000061:
000062: 25,2027           00004        DORSAMP2           INHINT
000063: 25,2030           30101                           CA       FLAGWRD5                              #  DON'T UPDATE RSTACK IF IN R77.
000064: 25,2031           74741                           MASK     R77FLBIT
000065: 25,2032           10000                           CCS      A
000066: 25,2033           12037                           TCF      +4
000067:
000068: 25,2034           53102                           DXCH     SAMPLSUM
000069: 25,2035           51754                           INDEX    RTSTLOC
000070: 25,2036           53601                           DXCH     RSTACK
000071:
000072: 25,2037           41754                           CS       RTSTLOC                               #  CYCLE RTSTLOC.
000073: 25,2040           61752                           AD       RTSTMAX
000074: 25,2041           00006                           EXTEND
000075:


000077: 25,2042           12045                           BZF      +3
000078: 25,2043           31754                           CA       RTSTLOC
000079: 25,2044           64752                           AD       TWO                                   #  STORAGE IS DP
000080: 25,2045           55754                           TS       RTSTLOC
000081: 25,2046           15155                           TCF      ENDOFJOB                              #  CONTINUOUS SAMPLING AND 2N TRIES - GONE.
000082:
000083:                                                                                                  #  VARIABLE RADAR DATA CALLER FOR ONE MEASUREMENT ONLY.
000084:
000085: 25,2047           34753        VARADAR            CAF      ONE                                   #  WILL BE SENT TO RADAR ROUTINE IN A BY
000086: 25,2050           54133                           TS       BUF2                                  #  SWCALL.
000087: 25,2051           51751                           INDEX    RTSTDEX
000088: 25,2052           32054                           CAF      RDRLOCS
000089: 25,2053           14622                           TCF      SWCALL                                #  NOT TOUCHING Q.
000090:
000091: 25,2054           53105        RDRLOCS            CADR     RRRANGE                               #  = 0
000092: 25,2055           53103                           CADR     RRRDOT                                #  = 1
000093: 25,2056           53101                           CADR     LRVELX                                #  = 2
000094: 25,2057           53077                           CADR     LRVELY                                #  = 3
000095: 25,2060           53075                           CADR     LRVELZ                                #  = 4
000096: 25,2061           53073                           CADR     LRALT                                 #  = 5
000097:
000098:

End of include-file RADAR_LEADIN_ROUTINES.agc.  Parent file is MAIN.agc


