
Source Code


000002:                                                                                                  ## Copyright:   Public domain.
000003:                                                                                                  ## Filename:    RESTART_TABLES.agc
000004:                                                                                                  ## Purpose:     A section of Luminary revision 97.
000005:                                                                                                  ##              It is part of the reconstructed source code for the
000006:                                                                                                  ##              original release of the flight software for the Lunar
000007:                                                                                                  ##              Module's (LM) Apollo Guidance Computer (AGC) for Apollo 11.
000008:                                                                                                  ##              The code has been recreated from a copy of Luminary 99
000009:                                                                                                  ##              revision 001, using asterisks indicating changed lines in
000010:                                                                                                  ##              the listing and Luminary Memos #83 and #85, which list
000011:                                                                                                  ##              changes between Luminary 97 and 98, and 98 and 99. The
000012:                                                                                                  ##              code has been adapted such that the resulting bugger words
000013:                                                                                                  ##              exactly match those specified for Luminary 97 in NASA drawing
000014:                                                                                                  ##              2021152D, which gives relatively high confidence that the
000015:                                                                                                  ##              reconstruction is correct.
000016:                                                                                                  ## Reference:   pp. 238-243
000017:                                                                                                  ## Assembler:   yaYUL
000018:                                                                                                  ## Contact:     Ron Burkey <info@sandroid.org>.
000019:                                                                                                  ## Website:     www.ibiblio.org/apollo/index.html
000020:                                                                                                  ## Mod history: 2019-07-28 MAS  Created from Luminary 99.
000021:


000023:                                                                                                  #  RESTART TABLES
000024:                                                                                                  #  ------------------
000025:
000026:                                                                                                  #  THERE ARE TWO FORMS OF RESTART TABLES FOR EACH GROUP.  THEY ARE KNOWN AS THE EVEN RESTART TABLES AND THE ODD
000027:                                                                                                  #  RESTART TABLES.  THE ODD TABLES HAVE ONLY ONE ENTRY OF THREE LOCATIONS WHILE THE EVEN TABLES HAVE TWO ENTRIES
000028:                                                                                                  #  EACH USING THREE LOCATIONS.  THE INFORMATION AS TO WHETHER IT IS A JOB, WAITLIST, OR A LONGCALL IS GIVEN BY THE
000029:                                                                                                  #  WAY THINGS ARE PUT IN TO THE TABLES.
000030:
000031:                                                                                                  #       A JOB HAS ITS PRIORITY STORED IN PRDTTAB OF THE CORRECT PHASE SPOT - A POSITIVE PRIORITY INDICATES A
000032:                                                                                                  #  FINDVAC JOB, A NEGATIVE PRIORITY A NOVAC.  THE 2CADR OF THE JOB IS STORED IN THE CADRTAB.
000033:                                                                                                  #  FOR EXAMPLE,
000034:
000035:                                                                                                  #                5.7SPOT         OCT     23000
000036:                                                                                                  #                                2CADR   SOMEJOB
000037:
000038:                                                                                                  #  A RESTART OF GROUP 5 WITH PHASE SEVEN WOULD THEN CAUSE SOMEJOB TO BE RESTARTED AS A FINDVAC WITH PRIORITY 23.
000039:
000040:                                                                                                  #                5.5SPOT         OCT     -23000
000041:                                                                                                  #                                2CADR   ANYJOB
000042:
000043:                                                                                                  #  HERE A RESTART OF GROUP 5 WITH PHASE 7 WOULD CAUSE ANYJOB TO BE RESTARTED AS A NOVAC WITH PRIORITY 23.
000044:                                                                                                  #  A LONGCALL HAS ITS GENADR OF ITS 2CADR STORED NEGATIVELY AND ITS BBCON STORED POSITIVELY.  IN ITS PRDTTAB IS
000045:                                                                                                  #  PLACED THE LOCATION OF A DP REGISTER THAT CONTAINS THE DELTA TIME THAT LONGCALL HAD BEEN ORIGINALLY STARTED
000046:                                                                                                  #  WITH.  EXAMPLE,
000047:
000048:                                                                                                  #                3.6SPOT         GENADR  DELTAT
000049:                                                                                                  #                                -GENADR LONGTASK
000050:                                                                                                  #                                BBCON   LONGTASK
000051:                                                                                                  #                                OCT     31000
000052:                                                                                                  #                                2CADR   JOBAGAIN
000053:
000054:                                                                                                  #  THIS WOULD START UP LONGTASK AT THE APPROPRIATE TIME, OR IMMEDIATELY IF THE TIME HAD ALREADY PASSED.  IT SHOULD
000055:                                                                                                  #  BE NOTED THAT IF DELTAT IS IN A SWITCHED E BANK, THIS INFORMATOIN SHOULD BE IN THE BBCON OF THE 2CADR OF THE
000056:                                                                                                  #  TASK.  FROM ABOVE, WE SEE THAT THE SECOND PART OF THIS PHASE WOULD BE STARTED AS A JOB WITH A PRIORITY OF 31.
000057:
000058:                                                                                                  #  WAITLIST CALLS ARE IDENTIFIED BY THE FACT THAT THEIR 2CADR IS STORED NEGATIVELY.  IF PRDTTAB OF THE PHASE SPOT
000059:                                                                                                  #  IS POSITIVE, THEN IT CONTAINS THE DELTA TIME, IF PRDTTAB IS NEGATIVE THEN IT IS THE -GENADR OF AN ERASABLE
000060:                                                                                                  #  LOCATION CONTAINING THE DELTA TIME, THAT IS, THE TIME IS STORED INDIRECTLY.  IT SHOULD BE NOTED AS ABOVE, THAT
000061:                                                                                                  #  IF THE TIME IS STORED INDIRECTLY, THE BBCON MUST CONTAIN THE NECESSARY E BANK INFORMATION IF APPLICABLE.  WITH
000062:                                                                                                  #  WAITLIST WE HAVE ONE FURTHER OPTION, IF -0 IS STORED IN PRDTTAB, IT WILL CAUSE AN IMMEDIATE RESTART OF THE
000063:                                                                                                  #  TASK.  EXAMPLES,
000064:
000065:                                                                                                  #                                OCT     77777           THIS WILL CAUSE AN IMMEDIATE RESTART
000066:                                                                                                  #                                -2CADR  ATASK           OF THE TASK :ATASK:
000067:                                                                                                  #
000068:                                                                                                  #                                DEC     200             IF THE TIME OF THE 2 SECONDS SINCE DUMMY
000069:                                                                                                  #                                -2CADR  DUMMY           WAS PUT ON WAITLIST IS UP, IT WILL BEGIN
000070:                                                                                                  #                                                        IN 10 MS, OTHERWISE IT WILL BEGIN WHEN
000071:                                                                                                  #                                                        IT NORMALLY WOULD HAVE BEGUN.


000073:                                                                                                  #                                -GENADR DTIME           WHERE DTIME CONTAINS THE DELTA TIME
000074:                                                                                                  #                                -2CADR  TASKTASK        OTHERWISE THIS IS AS ABOVE
000075:
000076:                                                                                                  #  ***** NOW THE TABLES THEMSELVES *****
000077:
000078: 01,2002                                           BANK     01
000079: 01,2000                                           SETLOC   RESTART
000080: 01,2000                                           BANK
000081:
000082: 01,2002                        PRDTTAB            EQUALS   12000                                 #  USED TO FIND THE PRIORITY OR DELTATIME
000083: 01,2002                        CADRTAB            EQUALS   12001                                 #  THIS AND THE NEXT RELATIVE LOC CONTAIN
000084:                                                                                                  #  RESTART 2CADR
000085:
000086: 01,2002                                           COUNT*   $$/RSTAB                              #  TABLES IN BANK 1.
000087: 01,2002           00010        SIZETAB            TC       1.2SPOT    -12006
000088: 01,2003           00020                           TC       1.3SPOT    -12004
000089: 01,2004           00010                           TC       2.2SPOT    -12006
000090: 01,2005           00023                           TC       2.3SPOT    -12004
000091: 01,2006           00010                           TC       3.2SPOT    -12006
000092: 01,2007           00053                           TC       3.3SPOT    -12004
000093: 01,2010           00057                           TC       4.2SPOT    -12006
000094: 01,2011           00067                           TC       4.3SPOT    -12004
000095: 01,2012           00142                           TC       5.2SPOT    -12006
000096: 01,2013           00160                           TC       5.3SPOT    -12004
000097: 01,2014           00010                           TC       6.2SPOT    -12006
000098: 01,2015           00171                           TC       6.3SPOT    -12004
000099: 01,2016           21000        1.2SPOT            OCT      21000                                 #  A DUMMY EXAMPLE TO BE REPLACED AS SOON
000100: 01,2017     0074                                  EBANK=   STATE
000101: 01,2017           05155 04060                     2CADR    ENDOFJOB                              #  AS THERE IS A LEGITIMATE 1.2SPOT
000102:
000103: 01,2021           00144                           DEC      100        B-14
000104: 01,2022     0074                                  EBANK=   STATE
000105: 01,2022           05261 04060                     2CADR    TASKOVER
000106:
000107:                                                                                                  #  ANY MORE GROUP 1.EVEN RESTART VALUES SHOULD GO HERE
000108:
000109: 01,2024           76300        1.3SPOT            -GENADR  SAVET-30
000110: 01,2025  E7,1515                                  EBANK=   DVCNTR
000111: 01,2025           75431 03710                     -2CADR   ULLGTASK
000112:
000113:                                                                                                  #  ANY MORE GROUP 1.ODD RESTART VALUES SHOULD GO HERE
000114:
000115: 01,2027  01,2016               2.2SPOT            EQUALS   1.2SPOT
000116:
000117:                                                                                                  #  ANY MORE GROUP 2.EVEN RESTART VALUES SHOULD GO HERE
000118:
000119: 01,2027           02630        2.3SPOT            GENADR   600SECS
000120:
000121: 01,2030           75173                           -GENADR  STATEINT
000122: 01,2031  E3,1554                                  EBANK=   RRECTCSM
000123: 01,2031           26063                           BBCON    STATEINT
000124:


000126: 01,2032           05000        2.5SPOT            OCT      05000
000127: 01,2033  E3,1554                                  EBANK=   RRECTCSM
000128: 01,2033           02613 26063                     2CADR    STATINT1
000129:
000130: 01,2035           02734        2.7SPOT            DEC      1500       B-14
000131: 01,2036  E7,1456                                  EBANK=   LOSCOUNT
000132: 01,2036           75533 27710                     -2CADR   P20LEMC1
000133:
000134: 01,2040           14000        2.11SPOT           OCT      14000
000135: 01,2041  E7,1762                                  EBANK=   P21TIME
000136: 01,2041           02416 50067                     2CADR    P25LEM1
000137:
000138: 01,2043           10000        2.13SPOT           OCT      10000
000139: 01,2044  E7,1456                                  EBANK=   LOSCOUNT
000140: 01,2044           02217 54067                     2CADR    RELINUS
000141:
000142: 01,2046           26000        2.15SPOT           OCT      26000
000143: 01,2047  E7,1456                                  EBANK=   LOSCOUNT
000144: 01,2047           02653 50067                     2CADR    R22RSTRT
000145:
000146: 01,2051           77777        2.17SPOT           OCT      77777
000147: 01,2052  E7,1700                                  EBANK=   VGPREV
000148: 01,2052           75440 03710                     -2CADR   REDO2.17
000149:
000150: 01,2054           00031        2.21SPOT           DEC      25         B-14
000151: 01,2055  E7,1515                                  EBANK=   DVCNTR
000152: 01,2055           75771 35710                     -2CADR   R10,R11
000153:
000154:                                                                                                  #  ANY MORE GROUP 2.ODD RESTART VALUES SHOULD GO HERE.
000155:
000156: 01,2057  01,2016               3.2SPOT            EQUALS   1.2SPOT
000157:
000158:                                                                                                  #  ANY MORE GROUP 3.EVEN RESTART VALUES SHOULD GO HERE
000159:
000160: 01,2057           76355        3.3SPOT            -GENADR  ZOOMTIME
000161: 01,2060  E7,1515                                  EBANK=   DVCNTR
000162: 01,2060           75755 41710                     -2CADR   ZOOM
000163:
000164: 01,2062           20000        3.5SPOT            OCT      20000
000165: 01,2063  E7,1453                                  EBANK=   TTOGO
000166: 01,2063           02540 56067                     2CADR    S40.13
000167:
000168:                                                                                                  #  ANY MORE GROUP 3.ODD RESTART VALUES SHOULD GO HERE
000169:
000170: 01,2065           04704        4.2SPOT            DEC      2500       B-14
000171: 01,2066  E7,1453                                  EBANK=   TTOGO
000172:
000173: 01,2066           75425 03710                     -2CADR   TIG-5
000174:
000175: 01,2070           77777                           OCT      77777
000176: 01,2071  E7,1453                                  EBANK=   TTOGO


000178: 01,2071           75435 03710                     -2CADR   REDO4.2
000179:
000180:                                                                                                  #  ANY MORE GROUP 4.EVEN RESTART VALUES SHOULD GO HERE
000181:
000182: 01,2073           25000        4.3SPOT            OCT      25000
000183: 01,2074  E7,1515                                  EBANK=   DVCNTR
000184: 01,2074           03540 64067                     2CADR    GOABORT
000185:
000186: 01,2076           00062        4.5SPOT            DEC      50         B-14
000187: 01,2077  E7,1453                                  EBANK=   TTOGO
000188: 01,2077           75215 03710                     -2CADR   ULLAGOFF
000189:
000190: 01,2101           00764        4.7SPOT            DEC      500        B-14
000191: 01,2102  E7,1515                                  EBANK=   DVCNTR
000192: 01,2102           75374 03710                     -2CADR   TIG-0
000193:
000194: 01,2104           76260        4.11SPOT           -GENADR  TGO        +1
000195: 01,2105  E7,1515                                  EBANK=   DVCNTR
000196: 01,2105           74235 03710                     -2CADR   ENGOFTSK
000197:
000198: 01,2107           12000        4.13SPOT           OCT      12000
000199: 01,2110  E7,1462                                  EBANK=   TRKMKCNT
000200: 01,2110           03223 74067                     2CADR    POSTBURN
000201:
000202: 01,2112           00764        4.15SPOT           DEC      500        B-14
000203: 01,2113  E7,1453                                  EBANK=   TTOGO
000204: 01,2113           75501 03710                     -2CADR   TIG-30
000205:
000206: 01,2115           77777        4.17SPOT           OCT      77777
000207: 01,2116  E7,1515                                  EBANK=   DVCNTR
000208: 01,2116           75425 03710                     -2CADR   TIG-5
000209:
000210: 01,2120           13000        4.21SPOT           OCT      13000
000211: 01,2121  E5,1730                                  EBANK=   STAR
000212: 01,2121           03020 30065                     2CADR    R51.1      +1
000213:
000214: 01,2123           77777        4.23SPOT           OCT      77777
000215: 01,2124  E7,1515                                  EBANK=   DVCNTR
000216: 01,2124           75351 03710                     -2CADR   IGNITION
000217:
000218: 01,2126           01477        4.25SPOT           GENADR   SAVET-30
000219: 01,2127           75537                           -GENADR  TIG-35
000220: 01,2130  E7,1477                                  EBANK=   SAVET-30
000221: 01,2130           74067                           BBCON    TIG-35
000222:
000223:
000224: 01,2131           52777        4.27SPOT           OCT      52777
000225: 01,2132  E7,1515                                  EBANK=   DVCNTR
000226: 01,2132           02073 42067                     2CADR    P70A


000228: 01,2134           52777        4.31SPOT           OCT      52777
000229: 01,2135  E7,1515                                  EBANK=   DVCNTR
000230: 01,2135           02076 42067                     2CADR    P71A
000231:
000232: 01,2137           46777        4.33SPOT           OCT      46777
000233: 01,2140  E7,1515                                  EBANK=   DVCNTR
000234: 01,2140           02024 10067                     2CADR    GOPOOFIX
000235:
000236: 01,2142           46777        4.35SPOT           OCT      46777
000237: 01,2143  E7,1515                                  EBANK=   DVCNTR
000238: 01,2143           05665 04067                     2CADR    GOPOODOO
000239:
000240: 01,2145           52777        4.37SPOT           OCT      52777
000241: 01,2146  E7,1455                                  EBANK=   WHICH
000242: 01,2146           02571 74067                     2CADR    COMFAIL
000243:
000244:                                                                                                  #  ANY MORE 4.ODD RESTART VALUES SHOULD GO HERE.
000245: 01,2150           22000        5.2SPOT            OCT      22000
000246: 01,2151  E7,1515                                  EBANK=   DVCNTR
000247: 01,2151           02461 46067                     2CADR    NORMLIZE
000248:
000249: 01,2153           00310                           DEC      200        B-14
000250: 01,2154  E7,1515                                  EBANK=   DVCNTR
000251: 01,2154           74163 01710                     -2CADR   REREADAC
000252:
000253: 01,2156           00310        5.4SPOT            DEC      200        B-14
000254: 01,2157  E7,1515                                  EBANK=   DVCNTR
000255: 01,2157           74163 01710                     -2CADR   REREADAC
000256:
000257: 01,2161           20000                           OCT      20000
000258: 01,2162  E7,1515                                  EBANK=   DVCNTR
000259: 01,2162           02206 66067                     2CADR    SERVICER
000260:
000261:                                                                                                  #  ANY MORE GROUP 5.EVEN RESTART VALUES SHOULD GO HERE
000262:
000263: 01,2164           00310        5.3SPOT            DEC      200        B-14
000264: 01,2165  E7,1515                                  EBANK=   DVCNTR
000265: 01,2165           74163 01710                     -2CADR   REREADAC
000266:
000267: 01,2167           77777        5.5SPOT            OCT      77777
000268: 01,2170  E7,1515                                  EBANK=   DVCNTR
000269: 01,2170           74324 01710                     -2CADR   REDO5.5
000270:
000271: 01,2172           77777        5.7SPOT            OCT      77777
000272: 01,2173  E7,1515                                  EBANK=   DVCNTR


000274: 01,2173           74361 01710                     -2CADR   BIBIBIAS
000275:
000276:                                                                                                  #  ANY MORE GROUP 5.ODD RESTART VALUES SHOULD GO HERE
000277:
000278: 01,2175  01,2016               6.2SPOT            EQUALS   1.2SPOT
000279: 01,2175           00144        6.3SPOT            DEC      100        B-14
000280: 01,2176  E7,1441                                  EBANK=   TIG
000281: 01,2176           75060 03710                     -2CADR   CLOKTASK
000282:
000283: 01,2200           30000        6.5SPOT            OCT      30000                                 #  PROTECT INCREMENTING OF TIME2,TIME1 BY
000284: 01,2201  E3,1706                                  EBANK=   TEPHEM                                #  P27(UPDATE PROGRAM) VIA V70 OR V73.
000285: 01,2201           03601 10063                     2CADR    TIMEDIDR
000286:
000287: 01,2203           17000        6.7SPOT            OCT      17000
000288: 01,2204  E7,1700                                  EBANK=   VGPREV
000289: 01,2204           03350 74067                     2CADR    REDO6.7
000290:
000291:

End of include-file RESTART_TABLES.agc.  Parent file is MAIN.agc


