
Source Code


000002:                                                                                                  ## Copyright:   Public domain.
000003:                                                                                                  ## Filename:    RTB_OP_CODES.agc
000004:                                                                                                  ## Purpose:     A section of Luminary revision 97.
000005:                                                                                                  ##              It is part of the reconstructed source code for the
000006:                                                                                                  ##              second release of the flight software for the Lunar
000007:                                                                                                  ##              Module's (LM) Apollo Guidance Computer (AGC) for Apollo 11.
000008:                                                                                                  ##              It was created to fix two incorrect ephemeris constants in
000009:                                                                                                  ##              Luminary 96, as described by anomaly report LNY-59.
000010:                                                                                                  ##              The code has been recreated from a copy of Luminary 99
000011:                                                                                                  ##              revision 001, using asterisks indicating changed lines in
000012:                                                                                                  ##              the listing and Luminary Memos #83 and #85, which list
000013:                                                                                                  ##              changes between Luminary 97 and 98, and 98 and 99. The
000014:                                                                                                  ##              code has been adapted such that the resulting bugger words
000015:                                                                                                  ##              exactly match those specified for Luminary 97 in NASA drawing
000016:                                                                                                  ##              2021152D, which gives relatively high confidence that the
000017:                                                                                                  ##              reconstruction is correct.
000018:                                                                                                  ## Reference:   pp. 1397-1402
000019:                                                                                                  ## Assembler:   yaYUL
000020:                                                                                                  ## Contact:     Ron Burkey <info@sandroid.org>.
000021:                                                                                                  ## Website:     www.ibiblio.org/apollo/index.html
000022:                                                                                                  ## Mod history: 2019-07-28 MAS  Created from Luminary 99.
000023:


000025: 22,3773                                           BANK     22
000026: 10,2000                                           SETLOC   RTBCODES
000027: 10,2000                                           BANK
000028:
000029: 10,3573  E5,1664                                  EBANK=   XNB
000030: 10,3573                                           COUNT*   $$/RTB
000031:
000032:                                                                                                  #  LOAD TIME2, TIME1 INTO MPAC:
000033:
000034: 10,3573           00006        LOADTIME           EXTEND
000035: 10,3574           30025                           DCA      TIME2
000036: 10,3575           16055                           TCF      SLOAD2
000037:
000038:                                                                                                  #  CONVERT THE SINGLE PRECISION 2'S COMPLEMENT NUMBER ARRIVING IN MPAC (SCALED IN HALF-REVOLUTIONS) TO A
000039:                                                                                                  #  DP 1'S COMPLEMENT NUMBER SCALED IN REVOLUTIONS.
000040:
000041: 10,3576           10154        CDULOGIC           CCS      MPAC
000042: 10,3577           34755                           CAF      ZERO
000043: 10,3600           13603                           TCF      +3
000044: 10,3601           13602                           NOOP
000045: 10,3602           44736                           CS       HALF
000046:
000047: 10,3603           54155                           TS       MPAC       +1
000048: 10,3604           34755                           CAF      ZERO
000049: 10,3605           56154                           XCH      MPAC
000050: 10,3606           00006                           EXTEND
000051: 10,3607           74736                           MP       HALF
000052: 10,3610           20155                           DAS      MPAC
000053: 10,3611           16061                           TCF      DANZIG                                #  MODE IS ALREADY AT DOUBLE-PRECISION
000054:
000055:                                                                                                  #  FORCE TP SIGN AGREEMENT IN MPAC:
000056:
000057: 10,3612           07257        SGNAGREE           TC       TPAGREE
000058: 10,3613           16061                           TCF      DANZIG
000059:
000060:                                                                                                  #  CONVERT THE DP 1'S COMPLEMENT ANGLE SCALED IN REVOLUTIONS TO A SINGLE PRECISION 2'S COMPLEMENT ANGLE
000061:                                                                                                  #  SCALED IN HALF-REVOLUTIONS.
000062:
000063: 10,3614           03644        1STO2S             TC       1TO2SUB
000064: 10,3615           34755                           CAF      ZERO
000065: 10,3616           54155                           TS       MPAC       +1
000066: 10,3617           16060                           TCF      NEWMODE
000067:
000068:                                                                                                  #  DO 1STO2S ON A VECTOR OF ANGLES:
000069:
000070: 10,3620           03644        V1STO2S            TC       1TO2SUB                               #  ANSWER ARRIVES IN A AND MPAC.
000071:
000072: 10,3621           52162                           DXCH     MPAC       +5
000073: 10,3622           52155                           DXCH     MPAC
000074: 10,3623           03644                           TC       1TO2SUB


000076: 10,3624           54156                           TS       MPAC       +2
000077:
000078: 10,3625           52160                           DXCH     MPAC       +3
000079: 10,3626           52155                           DXCH     MPAC
000080: 10,3627           03644                           TC       1TO2SUB
000081: 10,3630           54155                           TS       MPAC       +1
000082:
000083: 10,3631           30161                           CA       MPAC       +5
000084: 10,3632           54154                           TS       MPAC
000085:
000086: 10,3633           34753        TPMODE             CAF      ONE                                   #  MODE IS TP.
000087: 10,3634           16060                           TCF      NEWMODE
000088:
000089:                                                                                                  #  V1STO2S FOR 2 COMPONENT VECTOR. USED BY RR.
000090:
000091: 10,3635           03644        2V1STO2S           TC       1TO2SUB
000092: 10,3636           52160                           DXCH     MPAC       +3
000093: 10,3637           52155                           DXCH     MPAC
000094: 10,3640           03644                           TC       1TO2SUB
000095: 10,3641           54001                           TS       L
000096: 10,3642           30157                           CA       MPAC       +3
000097: 10,3643           16055                           TCF      SLOAD2
000098:
000099:                                                                                                  #  SUBROUTINE TO DO DOUBLING AND 1'S TO 2'S CONVERSION:
000100:
000101: 10,3644           52155        1TO2SUB            DXCH     MPAC                                  #  FINAL MPAC +1 UNSPECIFIED.
000102: 10,3645           20001                           DDOUBL
000103: 10,3646           10000                           CCS      A
000104: 10,3647           64753                           AD       ONE
000105: 10,3650           13652                           TCF      +2
000106: 10,3651           40000                           COM                                            #  THIS WAS REVERSE OF MSU.
000107:
000108: 10,3652           54154                           TS       MPAC                                  #  AND SKIP ON OVERFLOW.
000109: 10,3653           00002                           TC       Q
000110:
000111: 10,3654           50000                           INDEX    A                                     #  OVERFLOW UNCORRECT AND IN MSU.
000112: 10,3655           34734                           CAF      LIMITS
000113: 10,3656           26154                           ADS      MPAC
000114: 10,3657           00002                           TC       Q
000115:
000116:                                                                                                  #  THE FOLLOWING ROUTINE INCREMENTS IN 2S COMPLEMENT THE REGISTER WHOSE ADDRESS IS IN BUF BY THE 1S COMPL.
000117:                                                                                                  #  QUANTITY FOUND IN TEM2.  THIS MAY BE USED TO INCREMENT DESIRED IMU AND OPTICS CDU ANGLES OR ANY OTHER 2S COMPL.
000118:                                                                                                  #  (+0 UNEQUAL TO -0) QUANTITY.  MAY BE CALLED BY BANKCALL/SWCALL.
000119:
000120: 10,3660           54142        CDUINC             TS       TEM2                                  #  1S COMPL.QUANT. ARRIVES IN ACC.  STORE IT
000121: 10,3661           50130                           INDEX    BUF
000122: 10,3662           10000                           CCS      0                                     #  CHANGE 2S COMPL. ANGLE(IN BUF)INTO 1S
000123: 10,3663           64753                           AD       ONE
000124: 10,3664           13670                           TCF      +4
000125: 10,3665           64753                           AD       ONE


000127: 10,3666           64753                           AD       ONE                                   #  OVERFLOW HERE IF 2S COMPL. IS 180 DEG.
000128: 10,3667           40000                           COM
000129:
000130: 10,3670           60142                           AD       TEM2                                  #  SULT MOVES FROM 2ND TO 3D QUAD. (OR BACK)
000131: 10,3671           10000                           CCS      A                                     #  BACK TO 2S COMPL.
000132: 10,3672           64753                           AD       ONE
000133: 10,3673           13675                           TCF      +2
000134: 10,3674           40000                           COM
000135: 10,3675           54142                           TS       TEM2                                  #  STORE 14BIT QUANTITY WITH PRESENT SIGN
000136: 10,3676           13702                           TCF      +4
000137: 10,3677           50000                           INDEX    A                                     #  SIGN.
000138: 10,3700           34734                           CAF      LIMITS                                #  FIX IT, BY ADDING IN 37777 OR 40000
000139: 10,3701           60142                           AD       TEM2
000140:
000141: 10,3702           50130                           INDEX    BUF
000142: 10,3703           54000                           TS       0                                     #  STORE NEW ANGLE IN 2S COMPLEMENT.
000143: 10,3704           00002                           TC       Q
000144:


000146:                                                                                                  #  RTB TO TORQUE GYROS, EXCEPT FOR THE CALL TO IMUSTALL.  ECADR OF COMMANDS ARRIVES IN X1.
000147:
000148: 10,3705           50120        PULSEIMU           INDEX    FIXLOC                                #  ADDRESS OF GYRO COMMANDS SHOULD BE IN X1
000149: 10,3706           30046                           CA       X1
000150: 10,3707           04616                           TC       BANKCALL
000151: 10,3710           17323                           CADR     IMUPULSE
000152: 10,3711           16061                           TCF      DANZIG
000153:


000155:                                                                                                  #  THE SUBROUTINE SIGNMPAC SETS C(MPAC, MPAC +1) TO SIGN(MPAC).
000156:                                                                                                  #  FOR THIS, ONLY THE CONTENTS OF MPAC ARE EXAMINED.  ALSO +0 YIELDS POSMAX AND -0 YIELDS NEGMAX.
000157:
000158:                                                                                                  #  ENTRY MAY BE BY EITHER OF THE FOLLOWING:
000159:                                                                                                  #        1.      LIMIT THE SIZE OF MPAC ON INTERPRETIVE OVERFLOW:
000160:                                                                                                  #                ENTRY:          BOVB
000161:                                                                                                  #                                        SIGNMPAC
000162:                                                                                                  #        2.      GENERATE IN MPAC THE SIGNUM FUNCTION OF MPAC:
000163:                                                                                                  #                ENTRY:          RTB
000164:                                                                                                  #                                        SIGNMPAC
000165:                                                                                                  #  IN EITHER CASE, RETURN IS TO THE NEXT INTERPRETIVE INSTRUCTION IN THE CALLING SEQUENCE.
000166:
000167: 10,3712           00006        SIGNMPAC           EXTEND
000168: 10,3713           34733                           DCA      DPOSMAX
000169: 10,3714           52155                           DXCH     MPAC
000170: 10,3715           10000                           CCS      A
000171: 10,3716           34755        DPMODE             CAF      ZERO                                  #  SETS MPAC +2 TO ZERO IN THE PROCESS
000172: 10,3717           16057                           TCF      SLOAD2     +2
000173: 10,3720           13721                           TCF      +1
000174: 10,3721           00006                           EXTEND
000175: 10,3722           44733                           DCS      DPOSMAX
000176: 10,3723           16055                           TCF      SLOAD2
000177:
000178:                                                                                                  #  RTB OP CODE NORMUNIT IS LIKE INTERPRETIVE INSTRUCTION UNIT, EXCEPT THAT IT CAN BE DEPENDED ON NOT TO BLOW
000179:                                                                                                  #  UP WHEN THE VECTOR BEING UNITIZED IS VERY SMALL -- IT WILL BLOW UP WHEN ALL COMPONENTS ARE ZERO.  IF NORMUNIT
000180:                                                                                                  #  IS USED AND THE UPPER ORDER HALVES OF ALL COMPONENTS ARE ZERO, THE MAGNITUDE RETURNED IN 36D WILL BE TOO LARGE
000181:                                                                                                  #  BY A FACTOR OF 2(13) AND THE SQUARED MAGNITUDE RETURNED AT 34D WILL BE TOO BIG BY A FACTOR OF 2(26).
000182:
000183: 10,3724           34753        NORMUNX1           CAF      ONE
000184: 10,3725           13727                           TCF      NORMUNIT   +1
000185: 10,3726           34755        NORMUNIT           CAF      ZERO
000186: 10,3727           60120                           AD       FIXLOC
000187: 10,3730           54156                           TS       MPAC       +2
000188: 10,3731           04616                           TC       BANKCALL                              #  GET SIGN AGREEMENT IN ALL COMPONENTS
000189: 10,3732           01010                           CADR     VECAGREE
000190: 10,3733           10154                           CCS      MPAC
000191: 10,3734           13770                           TCF      NOSHIFT
000192: 10,3735           13737                           TCF      +2
000193: 10,3736           13770                           TCF      NOSHIFT
000194: 10,3737           10157                           CCS      MPAC       +3
000195: 10,3740           13770                           TCF      NOSHIFT
000196: 10,3741           13743                           TCF      +2
000197: 10,3742           13770                           TCF      NOSHIFT
000198: 10,3743           10161                           CCS      MPAC       +5
000199: 10,3744           13770                           TCF      NOSHIFT
000200: 10,3745           13747                           TCF      +2
000201: 10,3746           13770                           TCF      NOSHIFT


000203: 10,3747           30155                           CA       MPAC       +1                         #  SHIFT ALL COMPONENTS LEFT 13
000204: 10,3750           00006                           EXTEND
000205: 10,3751           74736                           MP       BIT14
000206: 10,3752           20155                           DAS      MPAC                                  #  DAS GAINS A LITTLE ACCURACY
000207: 10,3753           30160                           CA       MPAC       +4
000208: 10,3754           00006                           EXTEND
000209: 10,3755           74736                           MP       BIT14
000210: 10,3756           20160                           DAS      MPAC       +3
000211: 10,3757           30162                           CA       MPAC       +6
000212: 10,3760           00006                           EXTEND
000213: 10,3761           74736                           MP       BIT14
000214: 10,3762           20162                           DAS      MPAC       +5
000215: 10,3763           34761                           CAF      THIRTEEN
000216: 10,3764           50156                           INDEX    MPAC       +2
000217: 10,3765           54045                           TS       37D
000218: 10,3766           04635        OFFTUNIT           TC       POSTJUMP
000219: 10,3767           01024                           CADR     UNIT       +1                         #  SKIP THE "TC VECAGREE" DONE AT UNIT
000220:
000221: 10,3770           34755        NOSHIFT            CAF      ZERO
000222: 10,3771           13764                           TCF      OFFTUNIT   -2
000223:
000224:                                                                                                  #  RTB VECSGNAG ... FORCES SIGN AGREEMENT OF VECTOR IN MPAC.
000225:
000226: 10,3772           04616        VECSGNAG           TC       BANKCALL
000227: 10,3773           01010                           CADR     VECAGREE
000228: 10,3774           06061                           TC       DANZIG
000229:
000230:

End of include-file RTB_OP_CODES.agc.  Parent file is MAIN.agc


