
Source Code


000002:                                                                                                  ## Copyright:   Public domain.
000003:                                                                                                  ## Filename:    RTB_OP_CODES.agc
000004:                                                                                                  ## Purpose:     A section of Luminary revision 97.
000005:                                                                                                  ##              It is part of the reconstructed source code for the
000006:                                                                                                  ##              original release of the flight software for the Lunar
000007:                                                                                                  ##              Module's (LM) Apollo Guidance Computer (AGC) for Apollo 11.
000008:                                                                                                  ##              The code has been recreated from a copy of Luminary 99
000009:                                                                                                  ##              revision 001, using asterisks indicating changed lines in
000010:                                                                                                  ##              the listing and Luminary Memos #83 and #85, which list
000011:                                                                                                  ##              changes between Luminary 97 and 98, and 98 and 99. The
000012:                                                                                                  ##              code has been adapted such that the resulting bugger words
000013:                                                                                                  ##              exactly match those specified for Luminary 97 in NASA drawing
000014:                                                                                                  ##              2021152D, which gives relatively high confidence that the
000015:                                                                                                  ##              reconstruction is correct.
000016:                                                                                                  ## Reference:   pp. 1397-1402
000017:                                                                                                  ## Assembler:   yaYUL
000018:                                                                                                  ## Contact:     Ron Burkey <info@sandroid.org>.
000019:                                                                                                  ## Website:     www.ibiblio.org/apollo/index.html
000020:                                                                                                  ## Mod history: 2019-07-28 MAS  Created from Luminary 99.
000021:


000023: 22,3773                                           BANK     22
000024: 10,2000                                           SETLOC   RTBCODES
000025: 10,2000                                           BANK
000026:
000027: 10,3573  E5,1664                                  EBANK=   XNB
000028: 10,3573                                           COUNT*   $$/RTB
000029:
000030:                                                                                                  #  LOAD TIME2, TIME1 INTO MPAC:
000031:
000032: 10,3573           00006        LOADTIME           EXTEND
000033: 10,3574           30025                           DCA      TIME2
000034: 10,3575           16055                           TCF      SLOAD2
000035:
000036:                                                                                                  #  CONVERT THE SINGLE PRECISION 2'S COMPLEMENT NUMBER ARRIVING IN MPAC (SCALED IN HALF-REVOLUTIONS) TO A
000037:                                                                                                  #  DP 1'S COMPLEMENT NUMBER SCALED IN REVOLUTIONS.
000038:
000039: 10,3576           10154        CDULOGIC           CCS      MPAC
000040: 10,3577           34755                           CAF      ZERO
000041: 10,3600           13603                           TCF      +3
000042: 10,3601           13602                           NOOP
000043: 10,3602           44736                           CS       HALF
000044:
000045: 10,3603           54155                           TS       MPAC       +1
000046: 10,3604           34755                           CAF      ZERO
000047: 10,3605           56154                           XCH      MPAC
000048: 10,3606           00006                           EXTEND
000049: 10,3607           74736                           MP       HALF
000050: 10,3610           20155                           DAS      MPAC
000051: 10,3611           16061                           TCF      DANZIG                                #  MODE IS ALREADY AT DOUBLE-PRECISION
000052:
000053:                                                                                                  #  FORCE TP SIGN AGREEMENT IN MPAC:
000054:
000055: 10,3612           07257        SGNAGREE           TC       TPAGREE
000056: 10,3613           16061                           TCF      DANZIG
000057:
000058:                                                                                                  #  CONVERT THE DP 1'S COMPLEMENT ANGLE SCALED IN REVOLUTIONS TO A SINGLE PRECISION 2'S COMPLEMENT ANGLE
000059:                                                                                                  #  SCALED IN HALF-REVOLUTIONS.
000060:
000061: 10,3614           03644        1STO2S             TC       1TO2SUB
000062: 10,3615           34755                           CAF      ZERO
000063: 10,3616           54155                           TS       MPAC       +1
000064: 10,3617           16060                           TCF      NEWMODE
000065:
000066:                                                                                                  #  DO 1STO2S ON A VECTOR OF ANGLES:
000067:
000068: 10,3620           03644        V1STO2S            TC       1TO2SUB                               #  ANSWER ARRIVES IN A AND MPAC.
000069:
000070: 10,3621           52162                           DXCH     MPAC       +5
000071: 10,3622           52155                           DXCH     MPAC
000072: 10,3623           03644                           TC       1TO2SUB


000074: 10,3624           54156                           TS       MPAC       +2
000075:
000076: 10,3625           52160                           DXCH     MPAC       +3
000077: 10,3626           52155                           DXCH     MPAC
000078: 10,3627           03644                           TC       1TO2SUB
000079: 10,3630           54155                           TS       MPAC       +1
000080:
000081: 10,3631           30161                           CA       MPAC       +5
000082: 10,3632           54154                           TS       MPAC
000083:
000084: 10,3633           34753        TPMODE             CAF      ONE                                   #  MODE IS TP.
000085: 10,3634           16060                           TCF      NEWMODE
000086:
000087:                                                                                                  #  V1STO2S FOR 2 COMPONENT VECTOR. USED BY RR.
000088:
000089: 10,3635           03644        2V1STO2S           TC       1TO2SUB
000090: 10,3636           52160                           DXCH     MPAC       +3
000091: 10,3637           52155                           DXCH     MPAC
000092: 10,3640           03644                           TC       1TO2SUB
000093: 10,3641           54001                           TS       L
000094: 10,3642           30157                           CA       MPAC       +3
000095: 10,3643           16055                           TCF      SLOAD2
000096:
000097:                                                                                                  #  SUBROUTINE TO DO DOUBLING AND 1'S TO 2'S CONVERSION:
000098:
000099: 10,3644           52155        1TO2SUB            DXCH     MPAC                                  #  FINAL MPAC +1 UNSPECIFIED.
000100: 10,3645           20001                           DDOUBL
000101: 10,3646           10000                           CCS      A
000102: 10,3647           64753                           AD       ONE
000103: 10,3650           13652                           TCF      +2
000104: 10,3651           40000                           COM                                            #  THIS WAS REVERSE OF MSU.
000105:
000106: 10,3652           54154                           TS       MPAC                                  #  AND SKIP ON OVERFLOW.
000107: 10,3653           00002                           TC       Q
000108:
000109: 10,3654           50000                           INDEX    A                                     #  OVERFLOW UNCORRECT AND IN MSU.
000110: 10,3655           34734                           CAF      LIMITS
000111: 10,3656           26154                           ADS      MPAC
000112: 10,3657           00002                           TC       Q
000113:
000114:                                                                                                  #  THE FOLLOWING ROUTINE INCREMENTS IN 2S COMPLEMENT THE REGISTER WHOSE ADDRESS IS IN BUF BY THE 1S COMPL.
000115:                                                                                                  #  QUANTITY FOUND IN TEM2.  THIS MAY BE USED TO INCREMENT DESIRED IMU AND OPTICS CDU ANGLES OR ANY OTHER 2S COMPL.
000116:                                                                                                  #  (+0 UNEQUAL TO -0) QUANTITY.  MAY BE CALLED BY BANKCALL/SWCALL.
000117:
000118: 10,3660           54142        CDUINC             TS       TEM2                                  #  1S COMPL.QUANT. ARRIVES IN ACC.  STORE IT
000119: 10,3661           50130                           INDEX    BUF
000120: 10,3662           10000                           CCS      0                                     #  CHANGE 2S COMPL. ANGLE(IN BUF)INTO 1S
000121: 10,3663           64753                           AD       ONE
000122: 10,3664           13670                           TCF      +4
000123: 10,3665           64753                           AD       ONE


000125: 10,3666           64753                           AD       ONE                                   #  OVERFLOW HERE IF 2S COMPL. IS 180 DEG.
000126: 10,3667           40000                           COM
000127:
000128: 10,3670           60142                           AD       TEM2                                  #  SULT MOVES FROM 2ND TO 3D QUAD. (OR BACK)
000129: 10,3671           10000                           CCS      A                                     #  BACK TO 2S COMPL.
000130: 10,3672           64753                           AD       ONE
000131: 10,3673           13675                           TCF      +2
000132: 10,3674           40000                           COM
000133: 10,3675           54142                           TS       TEM2                                  #  STORE 14BIT QUANTITY WITH PRESENT SIGN
000134: 10,3676           13702                           TCF      +4
000135: 10,3677           50000                           INDEX    A                                     #  SIGN.
000136: 10,3700           34734                           CAF      LIMITS                                #  FIX IT, BY ADDING IN 37777 OR 40000
000137: 10,3701           60142                           AD       TEM2
000138:
000139: 10,3702           50130                           INDEX    BUF
000140: 10,3703           54000                           TS       0                                     #  STORE NEW ANGLE IN 2S COMPLEMENT.
000141: 10,3704           00002                           TC       Q
000142:


000144:                                                                                                  #  RTB TO TORQUE GYROS, EXCEPT FOR THE CALL TO IMUSTALL.  ECADR OF COMMANDS ARRIVES IN X1.
000145:
000146: 10,3705           50120        PULSEIMU           INDEX    FIXLOC                                #  ADDRESS OF GYRO COMMANDS SHOULD BE IN X1
000147: 10,3706           30046                           CA       X1
000148: 10,3707           04616                           TC       BANKCALL
000149: 10,3710           17323                           CADR     IMUPULSE
000150: 10,3711           16061                           TCF      DANZIG
000151:


000153:                                                                                                  #  THE SUBROUTINE SIGNMPAC SETS C(MPAC, MPAC +1) TO SIGN(MPAC).
000154:                                                                                                  #  FOR THIS, ONLY THE CONTENTS OF MPAC ARE EXAMINED.  ALSO +0 YIELDS POSMAX AND -0 YIELDS NEGMAX.
000155:
000156:                                                                                                  #  ENTRY MAY BE BY EITHER OF THE FOLLOWING:
000157:                                                                                                  #        1.      LIMIT THE SIZE OF MPAC ON INTERPRETIVE OVERFLOW:
000158:                                                                                                  #                ENTRY:          BOVB
000159:                                                                                                  #                                        SIGNMPAC
000160:                                                                                                  #        2.      GENERATE IN MPAC THE SIGNUM FUNCTION OF MPAC:
000161:                                                                                                  #                ENTRY:          RTB
000162:                                                                                                  #                                        SIGNMPAC
000163:                                                                                                  #  IN EITHER CASE, RETURN IS TO THE NEXT INTERPRETIVE INSTRUCTION IN THE CALLING SEQUENCE.
000164:
000165: 10,3712           00006        SIGNMPAC           EXTEND
000166: 10,3713           34733                           DCA      DPOSMAX
000167: 10,3714           52155                           DXCH     MPAC
000168: 10,3715           10000                           CCS      A
000169: 10,3716           34755        DPMODE             CAF      ZERO                                  #  SETS MPAC +2 TO ZERO IN THE PROCESS
000170: 10,3717           16057                           TCF      SLOAD2     +2
000171: 10,3720           13721                           TCF      +1
000172: 10,3721           00006                           EXTEND
000173: 10,3722           44733                           DCS      DPOSMAX
000174: 10,3723           16055                           TCF      SLOAD2
000175:
000176:                                                                                                  #  RTB OP CODE NORMUNIT IS LIKE INTERPRETIVE INSTRUCTION UNIT, EXCEPT THAT IT CAN BE DEPENDED ON NOT TO BLOW
000177:                                                                                                  #  UP WHEN THE VECTOR BEING UNITIZED IS VERY SMALL -- IT WILL BLOW UP WHEN ALL COMPONENTS ARE ZERO.  IF NORMUNIT
000178:                                                                                                  #  IS USED AND THE UPPER ORDER HALVES OF ALL COMPONENTS ARE ZERO, THE MAGNITUDE RETURNED IN 36D WILL BE TOO LARGE
000179:                                                                                                  #  BY A FACTOR OF 2(13) AND THE SQUARED MAGNITUDE RETURNED AT 34D WILL BE TOO BIG BY A FACTOR OF 2(26).
000180:
000181: 10,3724           34753        NORMUNX1           CAF      ONE
000182: 10,3725           13727                           TCF      NORMUNIT   +1
000183: 10,3726           34755        NORMUNIT           CAF      ZERO
000184: 10,3727           60120                           AD       FIXLOC
000185: 10,3730           54156                           TS       MPAC       +2
000186: 10,3731           04616                           TC       BANKCALL                              #  GET SIGN AGREEMENT IN ALL COMPONENTS
000187: 10,3732           01010                           CADR     VECAGREE
000188: 10,3733           10154                           CCS      MPAC
000189: 10,3734           13770                           TCF      NOSHIFT
000190: 10,3735           13737                           TCF      +2
000191: 10,3736           13770                           TCF      NOSHIFT
000192: 10,3737           10157                           CCS      MPAC       +3
000193: 10,3740           13770                           TCF      NOSHIFT
000194: 10,3741           13743                           TCF      +2
000195: 10,3742           13770                           TCF      NOSHIFT
000196: 10,3743           10161                           CCS      MPAC       +5
000197: 10,3744           13770                           TCF      NOSHIFT
000198: 10,3745           13747                           TCF      +2
000199: 10,3746           13770                           TCF      NOSHIFT


000201: 10,3747           30155                           CA       MPAC       +1                         #  SHIFT ALL COMPONENTS LEFT 13
000202: 10,3750           00006                           EXTEND
000203: 10,3751           74736                           MP       BIT14
000204: 10,3752           20155                           DAS      MPAC                                  #  DAS GAINS A LITTLE ACCURACY
000205: 10,3753           30160                           CA       MPAC       +4
000206: 10,3754           00006                           EXTEND
000207: 10,3755           74736                           MP       BIT14
000208: 10,3756           20160                           DAS      MPAC       +3
000209: 10,3757           30162                           CA       MPAC       +6
000210: 10,3760           00006                           EXTEND
000211: 10,3761           74736                           MP       BIT14
000212: 10,3762           20162                           DAS      MPAC       +5
000213: 10,3763           34761                           CAF      THIRTEEN
000214: 10,3764           50156                           INDEX    MPAC       +2
000215: 10,3765           54045                           TS       37D
000216: 10,3766           04635        OFFTUNIT           TC       POSTJUMP
000217: 10,3767           01024                           CADR     UNIT       +1                         #  SKIP THE "TC VECAGREE" DONE AT UNIT
000218:
000219: 10,3770           34755        NOSHIFT            CAF      ZERO
000220: 10,3771           13764                           TCF      OFFTUNIT   -2
000221:
000222:                                                                                                  #  RTB VECSGNAG ... FORCES SIGN AGREEMENT OF VECTOR IN MPAC.
000223:
000224: 10,3772           04616        VECSGNAG           TC       BANKCALL
000225: 10,3773           01010                           CADR     VECAGREE
000226: 10,3774           06061                           TC       DANZIG
000227:
000228:

End of include-file RTB_OP_CODES.agc.  Parent file is MAIN.agc


