
Source Code


000002:                                                                                                  ## Copyright:   Public domain.
000003:                                                                                                  ## Filename:    SERVICE_ROUTINES.agc
000004:                                                                                                  ## Purpose:     A section of Luminary revision 97.
000005:                                                                                                  ##              It is part of the reconstructed source code for the
000006:                                                                                                  ##              second release of the flight software for the Lunar
000007:                                                                                                  ##              Module's (LM) Apollo Guidance Computer (AGC) for Apollo 11.
000008:                                                                                                  ##              It was created to fix two incorrect ephemeris constants in
000009:                                                                                                  ##              Luminary 96, as described by anomaly report LNY-59.
000010:                                                                                                  ##              The code has been recreated from a copy of Luminary 99
000011:                                                                                                  ##              revision 001, using asterisks indicating changed lines in
000012:                                                                                                  ##              the listing and Luminary Memos #83 and #85, which list
000013:                                                                                                  ##              changes between Luminary 97 and 98, and 98 and 99. The
000014:                                                                                                  ##              code has been adapted such that the resulting bugger words
000015:                                                                                                  ##              exactly match those specified for Luminary 97 in NASA drawing
000016:                                                                                                  ##              2021152D, which gives relatively high confidence that the
000017:                                                                                                  ##              reconstruction is correct.
000018:                                                                                                  ## Reference:   pp. 1374-1380
000019:                                                                                                  ## Assembler:   yaYUL
000020:                                                                                                  ## Contact:     Ron Burkey <info@sandroid.org>.
000021:                                                                                                  ## Website:     www.ibiblio.org/apollo/index.html
000022:                                                                                                  ## Mod history: 2019-07-28 MAS  Created from Luminary 99.
000023:


000025: 10,3544                                           BANK     10
000026: 10,2000                                           SETLOC   DISPLAYS
000027: 10,2000                                           BANK
000028: 10,3544                                           COUNT*   $$/DSPLA
000029:
000030: 10,3544           00004        UPENT2             INHINT
000031: 10,3545           75660                           MASK     OCT77770
000032: 10,3546           54001                           TS       L
000033: 10,3547           40100                           CS       FLAGWRD4
000034: 10,3550           70001                           MASK     L
000035: 10,3551           26100                           ADS      FLAGWRD4
000036: 10,3552           00003        JOIN               RELINT
000037: 10,3553           16737                           TCF      Q+1
000038:
000039: 10,3554           00004        DOWNENT2           INHINT
000040: 10,3555           75660                           MASK     OCT77770
000041: 10,3556           40000                           COM
000042: 10,3557           70100                           MASK     FLAGWRD4
000043: 10,3560           54100                           TS       FLAGWRD4
000044: 10,3561           13552                           TCF      JOIN
000045:
000046: 10,3562     4757               OCT7               EQUALS   SEVEN
000047:


000049:                                                                                                  #  UPFLAG AND DOWNFLAG ARE ENTIRELY GENERAL FLAG SETTING AND CLEARING SUBROUTINES.  USING THEM, WHETHER OR
000050:                                                                                                  #  NOT IN INTERRUPT, ONE MAY SET OR CLEAR ANY SINGLE, NAMED BIT IN ANY ERASABLE REGISTER, SUBJECT OF COURSE TO
000051:                                                                                                  #  EBANK SETTING.  A "NAMED" BIT, AS THE WORD IS USED HERE, IS ANY BIT WITH A NAME FORMALLY ASSIGNED BY THE YUL
000052:                                                                                                  #  ASSEMBLER.
000053:
000054:                                                                                                  #  AT PRESENT THE ONLY NAMED BITS ARE THOSE IN THE FLAGWORDS.  ASSEMBLER CHANGES WILL MAKE IT POSSIBLE TO
000055:                                                                                                  #  NAME ANY BIT IN ERASABLE MEMORY.
000056:
000057:                                                                                                  #  CALLING SEQUENCES ARE AS FOLLOWS :-
000058:                                                                                                  #                TC      UPFLAG                  TC      DOWNFLAG
000059:                                                                                                  #                ADRES   NAME OF FLAG            ADRES   NAME OF FLAG
000060:
000061:                                                                                                  #  RETURN IS TO THE LOCATION FOLLOWING THE "ADRES" ABOUT .58 MS AFTER THE "TC".
000062:                                                                                                  #  UPON RETURN A CONTAINS THE CURRENT FLAGWRD SETTING.
000063:
000064:    5504                                           BLOCK    02
000065:    4000                                           SETLOC   FFTAG1
000066:    4000                                           BANK
000067:    5504                                           COUNT*   $$/FLAG
000068:
000069:    5504           30002        UPFLAG             CA       Q
000070:    5505           05522                           TC       DEBIT
000071:    5506           40000                           COM                                            #  +(15 - BIT)
000072:    5507           00006                           EXTEND
000073:    5510           04001                           ROR      LCHAN                                 #  SET BIT
000074:    5511           50061        COMFLAG            INDEX    ITEMP1
000075:    5512           54074                           TS       FLAGWRD0
000076:    5513           22063                           LXCH     ITEMP3
000077:    5514           00003                           RELINT
000078:    5515           00001                           TC       L
000079:
000080:    5516           30002        DOWNFLAG           CA       Q
000081:    5517           05522                           TC       DEBIT
000082:    5520           70001                           MASK     L                                     #  RESET BIT
000083:    5521           15511                           TCF      COMFLAG
000084:
000085:    5522           64753        DEBIT              AD       ONE                                   #  GET DE BITS
000086:    5523           00004                           INHINT
000087:    5524           54063                           TS       ITEMP3
000088:    5525           34762                           CA       LOW4                                  #  DEC15
000089:    5526           54061                           TS       ITEMP1
000090:    5527           50063                           INDEX    ITEMP3
000091:    5530           27777                           CA       0          -1                         #  ADRES
000092:    5531           54001                           TS       L
000093:    5532           34755                           CA       ZERO


000095:    5533           00006                           EXTEND
000096:    5534           10061                           DV       ITEMP1                                #  A = FLAGWRD, L = (15 - BIT)
000097:    5535           52062                           DXCH     ITEMP1
000098:    5536           50061                           INDEX    ITEMP1
000099:    5537           30074                           CA       FLAGWRD0
000100:    5540           54001                           TS       L                                     #  CURRENT STATE
000101:    5541           50062                           INDEX    ITEMP2
000102:    5542           44735                           CS       BIT15                                 #  -(15 - BIT)
000103:    5543           00002                           TC       Q
000104:


000106:                                                                                                  #  DELAYJOB - A GENERAL ROUTINE TO DELAY A JOB A SPECIFIC AMOUNT OF TIME BEFORE PICKING UP AGAIN.
000107:
000108:                                                                                                  #  ENTRANCE REQUIREMENTS ...
000109:                                                                                                  #                CAF     DT              DELAY JOB FOR DT CENTISECS
000110:                                                                                                  #                TC      BANKCALL
000111:                                                                                                  #                CADR    DELAYJOB
000112:
000113: 06,3764                                           BANK     06
000114: 00,2000                                           SETLOC   DLAYJOB
000115: 00,2000                                           BANK
000116:
000117:                                                                                                  #  THIS MUST REMAIN IN BANK 0 *****************************************
000118:
000119: 00,3735                                           COUNT*   $$/DELAY
000120: 00,3735           00004        DELAYJOB           INHINT
000121: 00,3736           54002                           TS       Q                                     #  STORE DELAY DT IN Q FOR DLY -1 IN
000122: 00,3737           34752                           CAF      DELAYNUM                              #  WAITLIST
000123: 00,3740           54070        DELLOOP            TS       RUPTREG1
000124: 00,3741           50000                           INDEX    A
000125: 00,3742           31326                           CA       DELAYLOC                              #  IS THIS DELAYLOC AVAILABLE
000126: 00,3743           00006                           EXTEND
000127: 00,3744           13752                           BZF      OK2DELAY                              #  YES
000128:
000129: 00,3745           10070                           CCS      RUPTREG1                              #  NO, TRY NEXT DELAYLOC
000130: 00,3746           13740                           TCF      DELLOOP
000131:
000132: 00,3747           52134                           DXCH     BUF2
000133: 00,3750           05716                           TC       BAILOUT1                              #  NO AVAILABLE LOCS.
000134: 00,3751           01104                           OCT      1104
000135:
000136: 00,3752           33772        OK2DELAY           CA       TCSLEEP                               #  SET WAITLIST IMMEDIATE RETURN
000137: 00,3753           54061                           TS       WAITEXIT
000138:
000139: 00,3754           30004                           CA       FBANK
000140: 00,3755           60070                           AD       RUPTREG1                              #  STORE BBANK FOR TASK CALL
000141: 00,3756           54001                           TS       L
000142:
000143: 00,3757           33773                           CAF      WAKECAD                               #  STORE CADR FOR TASK CALL
000144: 00,3760           15211                           TCF      DLY2       -1                         #  DLY IS IN WAITLIST ROUTINE
000145:
000146: 00,3761           04645        TCGETCAD           TC       MAKECADR                              #  GET CALLERS FCADR
000147:
000148: 00,3762           50070                           INDEX    RUPTREG1
000149: 00,3763           55326                           TS       DELAYLOC                              #  SAVE DELAY CADRS
000150:
000151: 00,3764           05133                           TC       JOBSLEEP
000152:
000153: 00,3765           34755        WAKER              CAF      ZERO
000154: 00,3766           50006                           INDEX    BBANK
000155: 00,3767           57326                           XCH      DELAYLOC                              #  MAKE DELAYLOC AVAILABLE


000157: 00,3770           05137                           TC       JOBWAKE
000158:
000159: 00,3771           05261                           TC       TASKOVER
000160:
000161: 00,3772           03757        TCSLEEP            GENADR   TCGETCAD   -2
000162: 00,3773           03765        WAKECAD            GENADR   WAKER
000163:


000165:                                                                                                  #  GENTRAN, A BLOCK TRANSFER ROUTINE.
000166:                                                                                                  #  WRITTEN BY D. EYLES
000167:                                                                                                  #  MOD 1 BY KERNAN                               UTILITYM REV 17 11/18/67
000168:                                                                                                  #  MOD 2 BY SCHULENBERG (REMOVE RELINT) SKIPPER REV 4 2/28/68
000169:
000170:                                                                                                  #  THIS ROUTINE IS USEFULL FOR TRANSFERING N CONSECUTIVE ERASABLE OR FIXED QUANTITIES TO SOME OTHER N
000171:                                                                                                  #  CONSECUTIVE ERASABLE LOCATIONS.  IF BOTH BLOCKS OF DATA ARE IN SWITCHABLE EBANKS, THEY MUST BE IN THE SAME ONE.
000172:
000173:                                                                                                  #  GENTRAN IS CALLABLE IN A JOB AS WELL AS A RUPT.  THE CALLING SEQUENCE IS:
000174:                                                                                                  #        I       CA      N-1             # OF QUANTITIES MINUS ONE.
000175:                                                                                                  #        I +1    TC      GENTRAN         IN FIXED-FIXED.
000176:                                                                                                  #        I +2    ADRES   L               STARTING ADRES OF DATA TO BE MOVED.
000177:                                                                                                  #        I +3    ADRES   M               STARTING ADRES OF DUPLICATION BLOCK.
000178:                                                                                                  #        I +4                            RETURNS HERE.
000179:
000180:                                                                                                  #  GENTRAN TAKES 25 MCT'S (300 MICROSECONDS) PER ITEM + 5 MCT'S (60 MICS) FOR ENTERING AND EXITING.
000181:                                                                                                  #  A, L AND ITEMP1 ARE NOT PRESERVED.
000182:
000183:    5544                                           BLOCK    02
000184:    4000                                           SETLOC   FFTAG4
000185:    4000                                           BANK
000186:
000187:    5544     0061                                  EBANK=   ITEMP1
000188:
000189:    5544                                           COUNT*   $$/TRAN
000190:
000191:    5544           00004        GENTRAN            INHINT
000192:    5545           54061                           TS       ITEMP1                                #  SAVE N-1.
000193:    5546           50002                           INDEX    Q                                     #  C(Q) = ADRES L.
000194:    5547           60000                           AD       0                                     #  ADRES (L + N - 1).
000195:    5550           50000                           INDEX    A
000196:    5551           30000                           CA       0                                     #  C(ABOVE).
000197:    5552           54001                           TS       L                                     #  SAVE DATA.
000198:    5553           30061                           CA       ITEMP1
000199:    5554           50002                           INDEX    Q
000200:    5555           60001                           AD       1                                     #  ADRES (M + N - 1).
000201:    5556           50000                           INDEX    A
000202:    5557           22000                           LXCH     0                                     #  STUFF IT.
000203:    5560           10061                           CCS      ITEMP1                                #  LOOP UNTIL N-1 = 0.
000204:    5561           15545                           TCF      GENTRAN    +1
000205:    5562           16741                           TCF      Q+2                                   #  RETURN TO CALLER.
000206:


000208:                                                                                                  #  B5OFF         ZERO BIT 5 OF EXTVBACT, WHICH IS SET BY TESTXACT.
000209:                                                                                                  #  MAY BE USED AS NEEDED BY ANY EXTENDED VERB WHICH HAS DONE TESTXACT
000210:
000211:    5563                                           COUNT*   $$/EXTVB
000212:
000213:    5563           44747        B5OFF              CS       BIT5
000214:    5564           71044                           MASK     EXTVBACT
000215:    5565           55044                           TS       EXTVBACT
000216:    5566           05155                           TC       ENDOFJOB
000217:
000218:
000219:

End of include-file SERVICE_ROUTINES.agc.  Parent file is MAIN.agc


