
Source Code


000002:                                                                                                  ## Copyright:   Public domain.
000003:                                                                                                  ## Filename:    SINGLE_PRECISION_SUBROUTINES.agc
000004:                                                                                                  ## Purpose:     A section of Luminary revision 97.
000005:                                                                                                  ##              It is part of the reconstructed source code for the
000006:                                                                                                  ##              original release of the flight software for the Lunar
000007:                                                                                                  ##              Module's (LM) Apollo Guidance Computer (AGC) for Apollo 11.
000008:                                                                                                  ##              The code has been recreated from a copy of Luminary 99
000009:                                                                                                  ##              revision 001, using asterisks indicating changed lines in
000010:                                                                                                  ##              the listing and Luminary Memos #83 and #85, which list
000011:                                                                                                  ##              changes between Luminary 97 and 98, and 98 and 99. The
000012:                                                                                                  ##              code has been adapted such that the resulting bugger words
000013:                                                                                                  ##              exactly match those specified for Luminary 97 in NASA drawing
000014:                                                                                                  ##              2021152D, which gives relatively high confidence that the
000015:                                                                                                  ##              reconstruction is correct.
000016:                                                                                                  ## Reference:   p.  1102
000017:                                                                                                  ## Assembler:   yaYUL
000018:                                                                                                  ## Contact:     Ron Burkey <info@sandroid.org>.
000019:                                                                                                  ## Website:     www.ibiblio.org/apollo/index.html
000020:                                                                                                  ## Mod history: 2019-07-28 MAS  Created from Luminary 99.
000021:


000023:    5032                                           BLOCK    02
000024:
000025:                                                                                                  #  SINGLE PRECISION SINE AND COSINE
000026:
000027:    5032                                           COUNT*   $$/INTER
000028:    5032           64736        SPCOS              AD       HALF                                  #  ARGUMENTS SCALED AT PI
000029:    5033           55076        SPSIN              TS       TEMK
000030:    5034           15036                           TCF      SPT
000031:    5035           41076                           CS       TEMK
000032:    5036           60000        SPT                DOUBLE
000033:    5037           55076                           TS       TEMK
000034:    5040           15051                           TCF      POLLEY
000035:    5041           57076                           XCH      TEMK
000036:    5042           51076                           INDEX    TEMK
000037:    5043           64734                           AD       LIMITS
000038:    5044           40000                           COM
000039:    5045           61076                           AD       TEMK
000040:    5046           55076                           TS       TEMK
000041:    5047           15051                           TCF      POLLEY
000042:    5050           15067                           TCF      ARG90
000043:    5051           00006        POLLEY             EXTEND
000044:    5052           71076                           MP       TEMK
000045:    5053           55077                           TS       SQ
000046:    5054           00006                           EXTEND
000047:    5055           75005                           MP       C5/2
000048:    5056           67737                           AD       C3/2
000049:    5057           00006                           EXTEND
000050:    5060           71077                           MP       SQ
000051:    5061           67717                           AD       C1/2
000052:    5062           00006                           EXTEND
000053:    5063           71076                           MP       TEMK
000054:    5064           20001                           DDOUBL
000055:    5065           55076                           TS       TEMK
000056:    5066           00002                           TC       Q
000057:    5067           50000        ARG90              INDEX    A
000058:    5070           44734                           CS       LIMITS
000059:    5071           00002                           TC       Q                                     #  RESULT SCALED AT 1
000060:
000061:

End of include-file SINGLE_PRECISION_SUBROUTINES.agc.  Parent file is MAIN.agc


