
Source Code


000002:                                                                                                  ## Copyright:   Public domain.
000003:                                                                                                  ## Filename:    SINGLE_PRECISION_SUBROUTINES.agc
000004:                                                                                                  ## Purpose:     A section of Luminary revision 97.
000005:                                                                                                  ##              It is part of the reconstructed source code for the
000006:                                                                                                  ##              second release of the flight software for the Lunar
000007:                                                                                                  ##              Module's (LM) Apollo Guidance Computer (AGC) for Apollo 11.
000008:                                                                                                  ##              It was created to fix two incorrect ephemeris constants in
000009:                                                                                                  ##              Luminary 96, as described by anomaly report LNY-59.
000010:                                                                                                  ##              The code has been recreated from a copy of Luminary 99
000011:                                                                                                  ##              revision 001, using asterisks indicating changed lines in
000012:                                                                                                  ##              the listing and Luminary Memos #83 and #85, which list
000013:                                                                                                  ##              changes between Luminary 97 and 98, and 98 and 99. The
000014:                                                                                                  ##              code has been adapted such that the resulting bugger words
000015:                                                                                                  ##              exactly match those specified for Luminary 97 in NASA drawing
000016:                                                                                                  ##              2021152D, which gives relatively high confidence that the
000017:                                                                                                  ##              reconstruction is correct.
000018:                                                                                                  ## Reference:   p.  1102
000019:                                                                                                  ## Assembler:   yaYUL
000020:                                                                                                  ## Contact:     Ron Burkey <info@sandroid.org>.
000021:                                                                                                  ## Website:     www.ibiblio.org/apollo/index.html
000022:                                                                                                  ## Mod history: 2019-07-28 MAS  Created from Luminary 99.
000023:


000025:    5032                                           BLOCK    02
000026:
000027:                                                                                                  #  SINGLE PRECISION SINE AND COSINE
000028:
000029:    5032                                           COUNT*   $$/INTER
000030:    5032           64736        SPCOS              AD       HALF                                  #  ARGUMENTS SCALED AT PI
000031:    5033           55076        SPSIN              TS       TEMK
000032:    5034           15036                           TCF      SPT
000033:    5035           41076                           CS       TEMK
000034:    5036           60000        SPT                DOUBLE
000035:    5037           55076                           TS       TEMK
000036:    5040           15051                           TCF      POLLEY
000037:    5041           57076                           XCH      TEMK
000038:    5042           51076                           INDEX    TEMK
000039:    5043           64734                           AD       LIMITS
000040:    5044           40000                           COM
000041:    5045           61076                           AD       TEMK
000042:    5046           55076                           TS       TEMK
000043:    5047           15051                           TCF      POLLEY
000044:    5050           15067                           TCF      ARG90
000045:    5051           00006        POLLEY             EXTEND
000046:    5052           71076                           MP       TEMK
000047:    5053           55077                           TS       SQ
000048:    5054           00006                           EXTEND
000049:    5055           75005                           MP       C5/2
000050:    5056           67737                           AD       C3/2
000051:    5057           00006                           EXTEND
000052:    5060           71077                           MP       SQ
000053:    5061           67717                           AD       C1/2
000054:    5062           00006                           EXTEND
000055:    5063           71076                           MP       TEMK
000056:    5064           20001                           DDOUBL
000057:    5065           55076                           TS       TEMK
000058:    5066           00002                           TC       Q
000059:    5067           50000        ARG90              INDEX    A
000060:    5070           44734                           CS       LIMITS
000061:    5071           00002                           TC       Q                                     #  RESULT SCALED AT 1
000062:
000063:

End of include-file SINGLE_PRECISION_SUBROUTINES.agc.  Parent file is MAIN.agc


