
Source Code


000002:                                                                                                  ## Copyright:   Public domain.
000003:                                                                                                  ## Filename:    SPS_BACK-UP_RCS_CONTROL.agc
000004:                                                                                                  ## Purpose:     A section of Luminary revision 97.
000005:                                                                                                  ##              It is part of the reconstructed source code for the
000006:                                                                                                  ##              second release of the flight software for the Lunar
000007:                                                                                                  ##              Module's (LM) Apollo Guidance Computer (AGC) for Apollo 11.
000008:                                                                                                  ##              It was created to fix two incorrect ephemeris constants in
000009:                                                                                                  ##              Luminary 96, as described by anomaly report LNY-59.
000010:                                                                                                  ##              The code has been recreated from a copy of Luminary 99
000011:                                                                                                  ##              revision 001, using asterisks indicating changed lines in
000012:                                                                                                  ##              the listing and Luminary Memos #83 and #85, which list
000013:                                                                                                  ##              changes between Luminary 97 and 98, and 98 and 99. The
000014:                                                                                                  ##              code has been adapted such that the resulting bugger words
000015:                                                                                                  ##              exactly match those specified for Luminary 97 in NASA drawing
000016:                                                                                                  ##              2021152D, which gives relatively high confidence that the
000017:                                                                                                  ##              reconstruction is correct.
000018:                                                                                                  ## Reference:   pp. 1507-1510
000019:                                                                                                  ## Assembler:   yaYUL
000020:                                                                                                  ## Contact:     Ron Burkey <info@sandroid.org>.
000021:                                                                                                  ## Website:     www.ibiblio.org/apollo/index.html
000022:                                                                                                  ## Mod history: 2019-07-28 MAS  Created from Luminary 99.
000023:


000025:                                                                                                  #  PROGRAM NAME:         SPSRCS
000026:                                                                                                  #  AUTHOR:               EDGAR M. OSHIKA (AC ELECTRONICS)
000027:                                                                                                  #  MODIFIED:             TO RETURN TO ALL AXES VIA Q BY P. S. WEISSMAN, OCT 7, 1968
000028:                                                                                                  #  MODIFIED TO IMPROVE BENDING STABILITY BY G. KALAN, FEB. 14, 1969
000029:
000030:                                                                                                  #  FUNCTIONAL DESCRIPTION:
000031:                                                                                                  #        THIS PROGRAM CONTROLS THE FIRING OF ALL RCS JETS IN THE DOCKED CONFIGURATION ACCORDING TO THE FOLLOWING PHASE
000032:                                                                                                  #        PLANE LOGIC.
000033:
000034:                                                                                                  #        1. JET SENSE TEST (SPSRCS)
000035:                                                                                                  #                IF JETS ARE FIRING NEGATIVELY, SET OLDSENSE NEGATIVE AND CONTINUE
000036:                                                                                                  #                IF JETS ARE FIRING POSITIVELY, SET OLDSENSE POSITIVE AND CONTINUE
000037:                                                                                                  #                IF JETS ARE NOT FIRING, SET OLDSENSE TO ZERO AND GO TO OUTER RATE LIMIT TEST
000038:
000039:                                                                                                  #        2. RATE DEAD BAND TEST
000040:                                                                                                  #                IF JETS ARE FIRING NEGATIVELY AND RATE IS GREATER THAN TARGET RATE, LEAVE
000041:                                                                                                  #                        JETS ON AND GO TO INHIBITION LOGIC.  OTHERWISE, CONTINUE.
000042:                                                                                                  #                IF JETS ARE FIRING POSITIVELY AND RATE IS   LESS  THAN TARGET RATE, LEAVE
000043:                                                                                                  #                        JETS ON AND GO TO INHIBITION LOGIC.  OTHERWISE, CONTINUE.
000044:
000045:                                                                                                  #        3. OUTER RATE LIMIT TEST (SPSSTART)
000046:                                                                                                  #                IF MAGNITUDE OF EDOT IS GREATER THAN 1.73 DEG/SEC SET JET FIRING TIME
000047:                                                                                                  #                        TO REDUCE RATE AND GO TO INHIBITION LOGIC.  OTHERWISE, CONTINUE.
000048:
000049:                                                                                                  #        4. COAST ZONE TEST
000050:                                                                                                  #                IF STATE (E,EDOT) IS BELOW LINE E + 4 X EDOT > -1.4 DEG AND EDOT IS LESS THAN 1.30 DEG/SEC SET JET TIME POSI-
000051:                                                                                                  #                        TIVE AND CONTINUE.  OTHERWISE, SET JET FIRING TIME TO ZERO AND CONTINUE.
000052:                                                                                                  #                IF STATE IS ABOVE LINE E + 4 X EDOT > +1.4 DEG AND EDOT IS GREATER THAN -1.30 DEG/SEC, SET JET TIME NEGATIVE
000053:                                                                                                  #                        AND CONTINUE.  OTHERWISE, SET JET FIRING TIME TO ZERO AND CONTINUE.
000054:
000055:                                                                                                  #        5. INHIBITION LOGIC
000056:                                                                                                  #                IF OLDSENSE IS NON-ZERO:
000057:                                                                                                  #                        A) RETURN IF JET TIME HAS SAME SIGN AS OLDSENSE
000058:                                                                                                  #                        B) SET INHIBITION COUNTER* AND RETURN IF JET TIME IS ZERO
000059:                                                                                                  #                        C) SET INHIBITION COUNTER,* SET JET TIME TO ZERO AND RETURN IF SIGN
000060:                                                                                                  #                           OF JET TIME IS OPPOSITE TO THAT OF OLDSENSE
000061:                                                                                                  #                IF OLDSENSE IS ZERO:
000062:                                                                                                  #                        A) RETURN IF INHIBITION COUNTER IS NOT POSITIVE
000063:                                                                                                  #                        B) SET JET TIME TO ZERO AND RETURN IF INHIBITION COUNTER IS POSITIVE
000064:                                                                                                  #                *NOTE: INHIBITION COUNTERS CAN BE SET TO 4 OR 10 FOR THE P, AND UV AXES,
000065:                                                                                                  #                RESPECTIVELY, IN SPSRCS.  THEY ARE DECREMENTED BY ONE AT THE BEGINNING OF


000067:                                                                                                  #                EACH DAP PASS.
000068:
000069:                                                                                                  #        THE MINIMUM PULSE WIDTH OF THIS CONTROLLER IS DETERMINED BY THE REPETITION RATE AT WHICH THIS ROUTINE IS CALLED
000070:                                                                                                  #        AND IS NOMINALLY 100 MS FOR ALL AXES IN DRIFTING FLIGHT.  DURING POWERED FLIGHT THE MINIMUM IS 100 MS FOR THE
000071:                                                                                                  #        P AXIS AND 200 MS FOR THE CONTROL OF THE U AND V AXES.
000072:
000073:                                                                                                  #  CALLING SEQUENCE:
000074:                                                                                                  #                INHINT
000075:                                                                                                  #                TC      IBNKCALL
000076:                                                                                                  #                CADR    SPSRCS
000077:
000078:                                                                                                  #  EXIT:
000079:                                                                                                  #                TC      Q
000080:
000081:                                                                                                  #  ALARM/ABORT MODE:     NONE
000082:
000083:                                                                                                  #  SUBROUTINES CALLED:   NONE
000084:
000085:                                                                                                  #  INPUT:                E, EDOT
000086:                                                                                                  #                        TJP, TJV, TJU           TJ MUST NOT BE NEGATIVE ZERO
000087:
000088:                                                                                                  #  OUTPUT:               TJP, TJV, TJU
000089:
000090: 21,3646                                           BANK     21
000091: 21,2000                                           SETLOC   DAPS4
000092: 21,2000                                           BANK
000093:
000094: 21,3646                                           COUNT*   $$/DAPBU
000095:
000096: 21,3646  E6,1525                                  EBANK=   TJU
000097: 21,3646           00632        RATELIM2           OCT      00632                                 #  1.125 DEG/SEC
000098: 21,3647           34736        POSTHRST           CA       HALF
000099:
000100: 21,3650           51505                           NDX      AXISCTR
000101: 21,3651           55525                           TS       TJU
000102: 21,3652           11745                           CCS      OLDSENSE
000103: 21,3653           13673                           TCF      POSCHECK                              #  JETS FIRING POSITIVELY
000104: 21,3654           13676                           TCF      CTRCHECK                              #  JETS OFF.  CHECK INHIBITION CTR
000105: 21,3655           51505        NEGCHECK           INDEX    AXISCTR                               #  JETS FIRING NEGATIVELY
000106: 21,3656           41525                           CS       TJU
000107: 21,3657           10000                           CCS      A
000108: 21,3660           00002                           TC       Q                                     #  RETURN
000109: 21,3661           13663                           TCF      +2
000110: 21,3662           13663                           TCF      +1                                    #  JETS COMMANDED OFF.  SET CTR AND RETURN
000111: 21,3663           51505        SETCTR             INDEX    AXISCTR                               #  JET FIRING REVERSAL COMMANDED.  SET CTR,
000112: 21,3664           33705                           CA       UTIME                                 #  SET JET TIME TO ZERO, AND RETURN


000114: 21,3665           51505                           INDEX    AXISCTR
000115: 21,3666           55770                           TS       UJETCTR
000116: 21,3667           34755        ZAPTJ              CA       ZERO
000117: 21,3670           51505                           INDEX    AXISCTR
000118: 21,3671           55525                           TS       TJU
000119: 21,3672           00002                           TC       Q
000120: 21,3673           51505        POSCHECK           INDEX    AXISCTR
000121: 21,3674           31525                           CA       TJU
000122: 21,3675           13657                           TCF      NEGCHECK   +2
000123: 21,3676           51505        CTRCHECK           INDEX    AXISCTR                               #  CHECK JET INHIBITION COUNTER
000124: 21,3677           11770                           CCS      UJETCTR
000125: 21,3700           13702                           TCF      +2
000126: 21,3701           00002                           TC       Q                                     #  CTR IS NOT POSITIVE.  RETURN
000127: 21,3702           13667                           TCF      ZAPTJ                                 #  CTR IS POSITIVE.  INHIBIT FIRINGS
000128: 21,3703           00002                           TC       Q                                     #  CTR IS NOT POSITIVE.  RETURN
000129: 21,3704           00004                           OCT      00004
000130: 21,3705           00012        UTIME              OCT      00012
000131: 21,3706           00012                           OCT      00012
000132: 21,3707  E6,1745               OLDSENSE           EQUALS   DAPTREG1
000133: 21,3707           44753        NEGFIRE            CS       ONE                                   #  JETS FIRING NEGATIVELY
000134: 21,3710           55745                           TS       OLDSENSE
000135: 21,3711           31427                           CA       EDOT
000136: 21,3712           13716                           TCF      +4
000137: 21,3713           34753        PLUSFIRE           CA       ONE
000138: 21,3714           55745                           TS       OLDSENSE
000139: 21,3715           41427                           CS       EDOT                                  #  RATE DEAD BAND TEST
000140: 21,3716           22000                           LXCH     A
000141: 21,3717           40111                           CS       DAPBOOLS                              #  IF DRIFTBIT = 1, USE ZERO TARGET RATE
000142: 21,3720           74744                           MASK     DRIFTBIT                              #  IF DRIFTBIT = 0, USE 0.10 RATE TARGET
000143: 21,3721           10000                           CCS      A
000144: 21,3722           34767                           CA       RATEDB1
000145: 21,3723           60001                           AD       L
000146: 21,3724           00006                           EXTEND
000147: 21,3725           63735                           BZMF     SPSSTART
000148: 21,3726           13652                           TCF      POSTHRST   +3
000149:
000150: 21,3727           51505        SPSRCS             INDEX    AXISCTR                               #  JET SENSE TEST
000151: 21,3730           11525                           CCS      TJU
000152: 21,3731           13713                           TCF      PLUSFIRE                              #  JETS FIRING POSITIVELY
000153: 21,3732           13734                           TCF      +2
000154: 21,3733           13707                           TCF      NEGFIRE                               #  JETS FIRING NEGATIVELY
000155: 21,3734           55745                           TS       OLDSENSE                              #  JETS OFF
000156: 21,3735           31427        SPSSTART           CA       EDOT                                  #  OUTER RATE LIMIT TEST
000157: 21,3736           00006                           EXTEND
000158: 21,3737           74766                           MP       RATELIM1
000159: 21,3740           10000                           CCS      A
000160: 21,3741           13760                           TCF      NEGTHRST                              #  OUTER RATE LIMIT EXCEEDED
000161: 21,3742           13744                           TCF      +2
000162: 21,3743           13647                           TCF      POSTHRST                              #  OUTER RATE LIMIT EXCEEDED
000163: 21,3744           31427                           CA       EDOT                                  #  COAST ZONE TEST


000165: 21,3745           61752                           AD       E
000166: 21,3746           00006                           EXTEND
000167: 21,3747           71411                           MP       DKDB                                  #  PAD LOADED DEADBAND.  FRESHSTART: 1.4 DEG
000168: 21,3750           00006                           EXTEND
000169: 21,3751           13766                           BZF      TJZERO
000170:
000171: 21,3752           00006                           EXTEND
000172: 21,3753           63762                           BZMF     +7
000173: 21,3754           31427                           CA       EDOT
000174: 21,3755           63646                           AD       RATELIM2
000175: 21,3756           00006                           EXTEND
000176: 21,3757           63766                           BZMF     TJZERO
000177: 21,3760           44736        NEGTHRST           CS       HALF
000178: 21,3761           13650                           TCF      POSTHRST   +1
000179: 21,3762           43646                 +7        CS       RATELIM2
000180: 21,3763           61427                           AD       EDOT
000181: 21,3764           00006                           EXTEND
000182: 21,3765           63647                           BZMF     POSTHRST
000183: 21,3766           34755        TJZERO             CA       ZERO
000184: 21,3767           13650                           TCF      POSTHRST   +1
000185:
000186: 21,3770     4766               RATELIM1           =        CALLCODE                              #  = 00032, CORRESPONDING TO 1.73 DEG/SEC
000187: 21,3770     4767               RATEDB1            =        TBUILDFX                              #  = 00045, CORRESPONDS TO 0.101 DEG/SEC
000188:

End of include-file SPS_BACK-UP_RCS_CONTROL.agc.  Parent file is MAIN.agc


