
Source Code


000002:                                                                                                  ## Copyright:   Public domain.
000003:                                                                                                  ## Filename:    STABLE_ORBIT_-_P38-P39.agc
000004:                                                                                                  ## Purpose:     A section of Luminary revision 97.
000005:                                                                                                  ##              It is part of the reconstructed source code for the
000006:                                                                                                  ##              second release of the flight software for the Lunar
000007:                                                                                                  ##              Module's (LM) Apollo Guidance Computer (AGC) for Apollo 11.
000008:                                                                                                  ##              It was created to fix two incorrect ephemeris constants in
000009:                                                                                                  ##              Luminary 96, as described by anomaly report LNY-59.
000010:                                                                                                  ##              The code has been recreated from a copy of Luminary 99
000011:                                                                                                  ##              revision 001, using asterisks indicating changed lines in
000012:                                                                                                  ##              the listing and Luminary Memos #83 and #85, which list
000013:                                                                                                  ##              changes between Luminary 97 and 98, and 98 and 99. The
000014:                                                                                                  ##              code has been adapted such that the resulting bugger words
000015:                                                                                                  ##              exactly match those specified for Luminary 97 in NASA drawing
000016:                                                                                                  ##              2021152D, which gives relatively high confidence that the
000017:                                                                                                  ##              reconstruction is correct.
000018:                                                                                                  ## Reference:   pp. 723-730
000019:                                                                                                  ## Assembler:   yaYUL
000020:                                                                                                  ## Contact:     Ron Burkey <info@sandroid.org>.
000021:                                                                                                  ## Website:     www.ibiblio.org/apollo/index.html
000022:                                                                                                  ## Mod history: 2019-07-28 MAS  Created from Luminary 99.
000023:


000025:                                                                                                  #  STABLE ORBIT RENDEZVOUS PROGRAMS (P38 AND P78)
000026:
000027:                                                                                                  #  MOD NO -1             LOG SECTION - STABLE ORBIT - P38-P39
000028:                                                                                                  #  MOD BY RUDNICKI.S     DATE 25JAN68
000029:
000030:                                                                                                  #  FUNCTIONAL DESCRIPTION
000031:
000032:                                                                                                  #        P38 AND P78 CALCULATE THE REQUIRED DELTA V AND OTHER INITIAL
000033:                                                                                                  #        CONDITIONS REQUIRED BY THE AGC TO (1) PUT THE ACTIVE VEHICLE
000034:                                                                                                  #        ON A TRANSFER TRAJECTORY THAT INTERCEPTS THE PASSIVE VEHICLE
000035:                                                                                                  #        ORBIT A GIVEN DISTANCE, DELTA R, EITHER AHEAD OF OR BEHIND THE
000036:                                                                                                  #        PASSIVE VEHICLE AND (2) ACTUALLY PLACE THE ACTIVE VEHICLE IN THE
000037:                                                                                                  #        PASSIVE VEHICLE ORBIT WITH A DELTA R SEPARATION BETWEEN THE TWO
000038:                                                                                                  #        VEHICLES
000039:
000040:                                                                                                  #  CALLING SEQUENCE
000041:
000042:                                                                                                  #        ASTRONAUT REQUEST THRU DSKY
000043:
000044:                                                                                                  #        V37E38E         IF THIS VEHICLE IS ACTIVE VEHICLE
000045:                                                                                                  #        V37E78E         IF OTHER VEHICLE IS ACTIVE VEHICLE
000046:
000047:                                                                                                  #  INPUT
000048:
000049:                                                                                                  #        (1)     SOI MANEUVER
000050:
000051:                                                                                                  #                (A)  TIG        TIME OF SOI MANEUVER
000052:                                                                                                  #                (B)  CENTANG    ORBITAL CENTRAL ANGLE OF THE PASSIVE VEHICLE
000053:                                                                                                  #                                DURING TRANSFER FROM TIG TO TIME OF INTERCEPT
000054:                                                                                                  #                (C)  DELTAR     THE DESIRED SEPARATION OF THE TWO VEHICLES
000055:                                                                                                  #                                SPECIFIED AS A DISTANCE ALONG THE PASSIVE VEHICLE
000056:                                                                                                  #                                ORBIT
000057:                                                                                                  #                (D)  OPTION     EQUALS 1 FOR SOI
000058:
000059:                                                                                                  #        (2)     SOR MANEUVER
000060:
000061:                                                                                                  #                (A)  TIG        TIME OF SOR MANEUVER
000062:                                                                                                  #                (B)  CENTANG    AN OPTIONAL RESPECIFICATION OF 1 (B) ABOVE
000063:                                                                                                  #                (C)  OPTION     EQUALS 2 FOR SOR
000064:                                                                                                  #                (D)  DELTTIME   THE TIME REQUIRED TO TRAVERSE DELTA R WHEN
000065:                                                                                                  #                                TRAVELING AT A VELOCITY EQUAL TO THE HORIZONTAL
000066:                                                                                                  #                                VELOCITY OF THE PASSIVE VEHICLE - SAVED FROM
000067:                                                                                                  #                                SOI PHASE
000068:                                                                                                  #                (E)  TINT       TIME OF INTERCEPT (SOI) - SAVED FROM SOI PHASE
000069:
000070:                                                                                                  #  OUTPUT
000071:
000072:                                                                                                  #        (1)  TRKMKCNT   NUMBER OF MARKS
000073:                                                                                                  #        (2)  TTOGO      TIME TO GO
000074:                                                                                                  #        (3)  +MGA       MIDDLE GIMBAL ANGLE


000076:                                                                                                  #        (4)  DSPTEM1    TIME OF INTERCEPT OF PASSIVE VEHICLE ORBIT
000077:                                                                                                  #                        (FOR SOI ONLY)
000078:                                                                                                  #        (5)  POSTTPI    PERIGEE ALTITUDE OF ACTIVE VEHICLE ORBIT AFTER
000079:                                                                                                  #                        THE SOI (SOR) MANEUVER
000080:                                                                                                  #        (6)  DELVTPI    MAGNITUDE OF DELTA V AT SOI (SOR) TIME
000081:                                                                                                  #        (7)  DELVTPF    MAGNITUDE OF DELTA V AT INTERCEPT TIME
000082:                                                                                                  #        (8)  DELVLVC    DELTA VELOCITY AT SOI (AND SOR) - LOCAL VERTICAL
000083:                                                                                                  #                        COORDINATES
000084:
000085:                                                                                                  #  SUBROUTINES USED
000086:
000087:                                                                                                  #        AVFLAGA
000088:                                                                                                  #        AVFLAGP
000089:                                                                                                  #        VNDSPLY
000090:                                                                                                  #        BANKCALL
000091:                                                                                                  #        GOFLASHR
000092:                                                                                                  #        GOTOPOOH
000093:                                                                                                  #        BLANKET
000094:                                                                                                  #        ENDOFJOB
000095:                                                                                                  #        PREC/TT
000096:                                                                                                  #        SELECTMU
000097:                                                                                                  #        INTRPVP
000098:                                                                                                  #        MAINRTNE
000099:
000100: 04,3013                                           BANK     04
000101: 34,2000                                           SETLOC   STBLEORB
000102: 34,2000                                           BANK
000103:
000104: 34,3271  E7,1470                                  EBANK=   SUBEXIT
000105: 34,3271                                           COUNT*   $$/P3879
000106:
000107: 34,3271           04616        P38                TC       BANKCALL
000108: 34,3272           72347                           CADR     AVFLAGA                               #  THIS VEHICLE ACTIVE
000109: 34,3273           03276                           TC       +3
000110: 34,3274           04616        P78                TC       BANKCALL
000111: 34,3275           72354                           CADR     AVFLAGP                               #  OTHER VEHICLE ACTIVE
000112: 34,3276           04616                           TC       BANKCALL
000113: 34,3277           72361                           CADR     P20FLGON                              #  SET UPDATFLG, TRACKFLG
000114: 34,3300           33641                           CAF      DECTWO
000115: 34,3301           55466                           TS       NN
000116: 34,3302           33632                           CAF      V06N33SR                              #  DISPLAY TIG
000117: 34,3303           03621                           TC       VNDSPLY
000118: 34,3304           33633                           CAF      V06N55SR                              #  DISPLAY CENTANG
000119: 34,3305           04616                           TCR      BANKCALL
000120: 34,3306           20635                           CADR     GOFLASHR
000121: 34,3307           16001                           TCF      GOTOPOOH                              #  TERMINATE
000122: 34,3310           13315                           TCF      +5                                    #  PROCEED
000123: 34,3311           13304                           TCF      -5                                    #  RECYCLE
000124: 34,3312           36245                           CAF      THREE                                 #  IMMEDIATE RETURN - BLANK R1, R2
000125: 34,3313           05464                           TCR      BLANKET


000127: 34,3314           15155                           TCF      ENDOFJOB
000128: 34,3315           34756                           CAF      FIVE
000129: 34,3316           55144                           TS       OPTION1
000130: 34,3317           34753                           CAF      ONE
000131: 34,3320           55145                           TS       OPTION2                               #  OPTION CODE IS SET TO 1
000132: 34,3321           33634                           CAF      V04N06SR                              #  DISPLAY OPTION CODE - 1 = SOI, 2 = SOR
000133: 34,3322           04616                           TCR      BANKCALL
000134: 34,3323           20635                           CADR     GOFLASHR
000135: 34,3324           16001                           TCF      GOTOPOOH                              #  TERMINATE
000136: 34,3325           13332                           TCF      +5                                    #  PROCEED
000137: 34,3326           13321                           TCF      -5                                    #  RECYCLE
000138: 34,3327           34751                           CAF      BIT3                                  #  IMMEDIATE RETURN - BLANK R3
000139: 34,3330           05464                           TCR      BLANKET
000140: 34,3331           15155                           TCF      ENDOFJOB
000141: 34,3332           06037                           TC       INTPRET
000142: 34,3333           70535                           SLOAD    SR1
000143: 34,3334           01146                                    OPTION2
000144: 34,3335           71230                           BHIZ     DLOAD
000145: 34,3336           71344                                    OPTN1
000146: 34,3337           03631                                    TINT
000147: 34,3340           02303                           STORE    TINTSOI                               #  STORE FOR SOR PHASE
000148: 34,3341           77614                           CLRGO
000149: 34,3342           01230                                    OPTNSW                                #  OPTNSW; ON = SOI, OFF = SOR
000150: 34,3343           71375                                    JUNCTN1
000151: 34,3344           43014        OPTN1              SET      CLEAR                                 #  SOI
000152: 34,3345           01070                                    OPTNSW
000153: 34,3346           00670                                    UPDATFLG
000154: 34,3347           77624                           CALL
000155: 34,3350           71554                                    PREC/TT
000156: 34,3351           43015                           DAD      SET
000157: 34,3352           03442                                    TIG
000158: 34,3353           00470                                    UPDATFLG
000159: 34,3354           03631                           STORE    TINT                                  #  TI = TIG + TF
000160: 34,3355           77776                           EXIT
000161: 34,3356           33635                           CAF      V06N57SR                              #  DISPLAY DELTA R
000162: 34,3357           04616                           TCR      BANKCALL
000163: 34,3360           20635                           CADR     GOFLASHR
000164: 34,3361           16001                           TCF      GOTOPOOH                              #  TERMINATE
000165: 34,3362           13367                           TCF      +5                                    #  PROCEED
000166: 34,3363           13356                           TCF      -5                                    #  RECYCLE
000167: 34,3364           36242                           CAF      SIX                                   #  IMMEDIATE RETURN - BLANK R2, R3
000168: 34,3365           05464                           TCR      BLANKET
000169: 34,3366           15155                           TCF      ENDOFJOB
000170: 34,3367           00006                 +5        EXTEND
000171: 34,3370           31631                           DCA      TINT
000172: 34,3371           53046                           DXCH     DSPTEM1                               #  FOR DISPLAY
000173: 34,3372           33636                           CAF      V06N34SR                              #  DISPLAY TIME OF INTERCEPT
000174: 34,3373           03621                           TC       VNDSPLY
000175: 34,3374           06037                           TC       INTPRET
000176: 34,3375           45014        JUNCTN1            CLEAR    CALL


000178: 34,3376           04266                                    P39/79SW
000179: 34,3377           20000                                    SELECTMU                              #  SELECT MU, CLEAR FINALFLG, GO TO VN1645
000180: 34,3400           77624        RECYCLE            CALL
000181: 34,3401           71554                                    PREC/TT
000182: 34,3402           71214                           BOFF     DLOAD
000183: 34,3403           01350                                    OPTNSW
000184: 34,3404           71424                                    OPTN2
000185: 34,3405           03631                                    TINT
000186: 34,3406           34041                           STCALL   TDEC1                                 #  PRECISION UPDATE PASSIVE VEHICLE TO
000187: 34,3407           71605                                    INTRPVP                               #        INTERCEPT TIME
000188: 34,3410           53575                           VLOAD    UNIT
000189: 34,3411           00001                                    RATT                                  #  RP/(RP)
000190: 34,3412           47315                           PDVL     VXV
000191: 34,3413           00007                                    VATT
000192: 34,3414           60246                           ABVAL    NORM                                  #  (VP X RP/(RP))
000193: 34,3415           00047                                    X1
000194: 34,3416           56325                           PDDL     DDV
000195: 34,3417           02303                                    DELTAR
000196: 34,3420           77657                           SL*                                            #  DELTA R / (VP X RP/RP)
000197: 34,3421           20172                                    0          -7,1
000198: 34,3422           36305                           STCALL   DELTTIME                              #  DELTA T = (RP) DELTA R / (VP X RP)
000199: 34,3423           71430                                    JUNCTN2
000200: 34,3424           43345        OPTN2              DLOAD    DAD
000201: 34,3425           02303                                    TINTSOI
000202: 34,3426           00037                                    T
000203: 34,3427           03631                           STORE    TINT                                  #  TI = TI + TF
000204: 34,3430           45345        JUNCTN2            DLOAD    DSU
000205: 34,3431           03631                                    TINT
000206: 34,3432           02305                                    DELTTIME
000207: 34,3433           02307                           STORE    TARGTIME                              #  TT = TI - DELTA T
000208:
000209:                                                                                                  #  .... MAINRTNE ....
000210:
000211:                                                                                                  #  SUBROUTINES USED
000212:
000213:                                                                                                  #        S3435.25
000214:                                                                                                  #        PERIAPO1
000215:                                                                                                  #        SHIFTR1
000216:                                                                                                  #        VNDSPLY
000217:                                                                                                  #        BANKCALL
000218:                                                                                                  #        GOFLASH
000219:                                                                                                  #        GOTOPOOH
000220:                                                                                                  #        VN1645
000221:
000222: 34,3434           34041        MAINRTNE           STCALL   TDEC1                                 #  PRECISION UPDATE PASSIVE VEHICLE TO
000223: 34,3435           71605                                    INTRPVP                               #        TARGET TIME
000224: 34,3436           77745                           DLOAD
000225: 34,3437           03442                                    TIG
000226: 34,3440           03610                           STORE    INTIME
000227: 34,3441           77331                           SSP      VLOAD
000228: 34,3442           03471                                    SUBEXIT
000229: 34,3443           71447                                    TEST3979


000231: 34,3444           00001                                    RATT
000232: 34,3445           77624                           CALL
000233: 34,3446           73327                                    S3435.25
000234: 34,3447           43014        TEST3979           BOFF     BON
000235: 34,3450           04346                                    P39/79SW
000236: 34,3451           71460                                    MAINRTN1
000237: 34,3452           01311                                    FINALFLG
000238: 34,3453           71456                                    P39P79
000239: 34,3454           77614                           SET
000240: 34,3455           00470                                    UPDATFLG
000241: 34,3456           77776        P39P79             EXIT
000242: 34,3457           03505                           TC       DSPLY81                               #  FOR P39 AND P79
000243: 34,3460           51575        MAINRTN1           VLOAD    ABVAL
000244: 34,3461           02366                                    DELVEET3
000245: 34,3462           27576                           STOVL    DELVTPI                               #  DELTA V
000246: 34,3463           03506                                    VPASS4
000247: 34,3464           51451                           VSU      ABVAL
000248: 34,3465           03566                                    VTPRIME
000249: 34,3466           26350                           STOVL    DELVTPF                               #  DELTA V (FINAL) = V'T - VT
000250: 34,3467           03536                                    RACT3
000251: 34,3470           45115                           PDVL     CALL
000252: 34,3471           02337                                    VIPRIME
000253: 34,3472           46316                                    PERIAPO1                              #  GET PERIGEE ALTITUDE
000254: 34,3473           77624                           CALL
000255: 34,3474           46426                                    SHIFTR1
000256: 34,3475           03606                           STORE    POSTTPI
000257: 34,3476           43014                           BON      SET
000258: 34,3477           01311                                    FINALFLG
000259: 34,3500           71502                                    DSPLY58
000260: 34,3501           00470                                    UPDATFLG
000261: 34,3502           77776        DSPLY58            EXIT
000262: 34,3503           33637                           CAF      V06N58SR                              #  DISPLAY HP, DELTA V, DELTA V (FINAL)
000263: 34,3504           03621                           TC       VNDSPLY
000264: 34,3505           33640        DSPLY81            CAF      V06N81SR                              #  DISPLAY DELTA V (LV)
000265: 34,3506           03621                           TC       VNDSPLY
000266: 34,3507           06037                           TC       INTPRET
000267: 34,3510           77214                           CLEAR    VLOAD
000268: 34,3511           01267                                    XDELVFLG
000269: 34,3512           02366                                    DELVEET3
000270: 34,3513           37656                           STCALL   DELVSIN
000271: 34,3514           73606                                    VN1645                                #  DISPLAY TRKMKCNT, TTOGO, +MGA
000272: 34,3515           52014                           BON      GOTO
000273: 34,3516           04306                                    P39/79SW
000274: 34,3517           71541                                    P39/P79B
000275: 34,3520           71400                                    RECYCLE
000276:
000277:                                                                                                  #  STABLE ORBIT MIDCOURSE PROGRAM (P39 AND P79)
000278:
000279:                                                                                                  #  MOD NO -1             LOG SECTION - STABLE ORBIT - P38-P39
000280:                                                                                                  #  MOD BY RUDNICKI.S     DATE 25JAN68
000281:


000283:                                                                                                  #  FUNCTIONAL DESCRIPTION
000284:
000285:                                                                                                  #        P39 AND P79 CALCULATE THE REQUIRED DELTA V AND OTHER INITIAL
000286:                                                                                                  #        CONDITIONS REQUIRED BY THE AGC TO MAKE A MIDCOURSE CORRECTION
000287:                                                                                                  #        MANEUVER AFTER COMPLETING THE SOI MANEUVER BUT BEFORE MAKING
000288:                                                                                                  #        THE SOR MANEUVER
000289:
000290:                                                                                                  #  CALLING SEQUENCE
000291:
000292:                                                                                                  #        ASTRONAUT REQUEST THRU DSKY
000293:
000294:                                                                                                  #        V37E39E         IF THIS VEHICLE IS ACTIVE VEHICLE
000295:                                                                                                  #        V37E79E         IF OTHER VEHICLE IS ACTIVE VEHICLE
000296:
000297:                                                                                                  #  INPUT
000298:
000299:                                                                                                  #        (1)  TPASS4     TIME OF INTERCEPT - SAVED FROM P38/P78
000300:                                                                                                  #        (2)  TARGTIME   TIME THAT PASSIVE VEHICLE IS AT INTERCEPT POINT -
000301:                                                                                                  #                        SAVED FROM P38/P78
000302:
000303:                                                                                                  #  OUTPUT
000304:
000305:                                                                                                  #        (1)  TRKMKCNT   NUMBER OF MARKS
000306:                                                                                                  #        (2)  TTOGO      TIME TO GO
000307:                                                                                                  #        (3)  +MGA       MIDDLE GIMBAL ANGLE
000308:                                                                                                  #        (4)  DELVLVC    DELTA VELOCITY AT MID - LOCAL VERTICAL COORDINATES
000309:
000310:                                                                                                  #  SUBROUTINES USED
000311:
000312:                                                                                                  #        AVFLAGA
000313:                                                                                                  #        AVFLAGP
000314:                                                                                                  #        LOADTIME
000315:                                                                                                  #        SELECTMU
000316:                                                                                                  #        PRECSET
000317:                                                                                                  #        S34/35.1
000318:                                                                                                  #        MAINRTNE
000319:
000320: 34,3521           04616        P39                TC       BANKCALL
000321: 34,3522           72347                           CADR     AVFLAGA                               #  THIS VEHICLE ACTIVE
000322: 34,3523           00006                           EXTEND
000323: 34,3524           31401                           DCA      ATIGINC
000324: 34,3525           03532                           TC       P39/P79A
000325: 34,3526           04616        P79                TC       BANKCALL
000326: 34,3527           72354                           CADR     AVFLAGP                               #  OTHER VEHICLE ACTIVE
000327: 34,3530           00006                           EXTEND
000328: 34,3531           31403                           DCA      PTIGINC
000329: 34,3532           53576        P39/P79A           DXCH     KT                                    #  TIME TO PREPARE FOR BURN
000330: 34,3533           04616                           TC       BANKCALL
000331: 34,3534           72361                           CADR     P20FLGON                              #  SET UPDATFLG, TRACKFLG
000332: 34,3535           06037                           TC       INTPRET


000334: 34,3536           45014                           SET      CALL
000335: 34,3537           04066                                    P39/79SW
000336: 34,3540           20000                                    SELECTMU                              #  SELECT MU, CLEAR FINALFLG, GO TO VN1645
000337: 34,3541           43234        P39/P79B           RTB      DAD
000338: 34,3542           21573                                    LOADTIME
000339: 34,3543           03576                                    KT
000340: 34,3544           03442                           STORE    TIG                                   #  TIG = T (PRESENT) + PREPARATION TIME
000341: 34,3545           34041                           STCALL   TDEC1                                 #  PRECISION UPDATE ACTIVE AND PASSIVE
000342: 34,3546           46360                                    PRECSET                               #        VEHICLES TO TIG
000343: 34,3547           77624                           CALL
000344: 34,3550           73274                                    S34/35.1                              #  GET UNIT NORMAL
000345: 34,3551           52145                           DLOAD    GOTO
000346: 34,3552           02307                                    TARGTIME
000347: 34,3553           71434                                    MAINRTNE                              #  CALCULATE DELTA V AND DELTA V (LV)
000348:
000349:                                                                                                  #  .... PREC/TT ....
000350:
000351:                                                                                                  #  SUBROUTINES USED
000352:
000353:                                                                                                  #        PRECSET
000354:                                                                                                  #        TIMETHET
000355:                                                                                                  #        S34/35.1
000356:
000357: 34,3554           71220        PREC/TT            STQ      DLOAD
000358: 34,3555           03465                                    RTRN
000359: 34,3556           03442                                    TIG
000360: 34,3557           34041                           STCALL   TDEC1                                 #  PRECISION UPDATE ACTIVE AND PASSIVE
000361: 34,3560           46360                                    PRECSET                               #        VEHICLES TO TIG
000362: 34,3561           53775                           VLOAD    VSR*
000363: 34,3562           03552                                    RPASS3
000364: 34,3563           57176                                    0,2
000365: 34,3564           16655                           STODL    RVEC
000366: 34,3565           03621                                    CENTANG
000367: 34,3566           71406                           PUSH     COS
000368: 34,3567           16732                           STODL    CSTH
000369: 34,3570           43156                           SIN      SET
000370: 34,3571           03466                                    RVSW
000371: 34,3572           26730                           STOVL    SNTH
000372: 34,3573           03560                                    VPASS3
000373: 34,3574           77657                           VSR*
000374: 34,3575           57176                                    0,2
000375: 34,3576           36744                           STCALL   VVEC                                  #  GET TRANSFER TIME BASED ON CENTANG OF
000376: 34,3577           24732                                    TIMETHET                              #        PASSIVE VEHICLE
000377: 34,3600           77624                           CALL
000378: 34,3601           73274                                    S34/35.1                              #  GET UNIT NORMAL
000379: 34,3602           52145                           DLOAD    GOTO
000380: 34,3603           00037                                    T
000381: 34,3604           03465                                    RTRN
000382:
000383:                                                                                                  #  .... INTRPVP ....
000384:
000385:                                                                                                  #  SUBROUTINES USED
000386:
000387:                                                                                                  #        CSMPREC


000389:                                                                                                  #        LEMPREC
000390:
000391: 34,3605           43020        INTRPVP            STQ      BOFF                                  #  PRECISION UPDATE PASSIVE VEHICLE TO
000392: 34,3606           03465                                    RTRN                                  #        TDEC1
000393: 34,3607           01352                                    AVFLAG
000394: 34,3610           71615                                    OTHERV
000395: 34,3611           77624                           CALL
000396: 34,3612           27043                                    CSMPREC
000397: 34,3613           77650                           GOTO
000398: 34,3614           03465                                    RTRN
000399: 34,3615           77624        OTHERV             CALL
000400: 34,3616           27057                                    LEMPREC
000401: 34,3617           77650                           GOTO
000402: 34,3620           03465                                    RTRN
000403:
000404:                                                                                                  #  .... VNDSPLY ....
000405:
000406:                                                                                                  #  SUBROUTINES USED
000407:
000408:                                                                                                  #        BANKCALL
000409:                                                                                                  #        GOFLASH
000410:                                                                                                  #        GOTOPOOH
000411:
000412: 34,3621           00006        VNDSPLY            EXTEND                                         #  FLASH DISPLAY
000413: 34,3622           23465                           QXCH     RTRN
000414: 34,3623           55615                           TS       VERBNOUN
000415: 34,3624           31615                           CA       VERBNOUN
000416: 34,3625           04616                           TCR      BANKCALL
000417: 34,3626           20476                           CADR     GOFLASH
000418: 34,3627           16001                           TCF      GOTOPOOH                              #  TERMINATE
000419: 34,3630           01465                           TC       RTRN                                  #  PROCEED
000420: 34,3631           13624                           TCF      -5                                    #  RECYCLE
000421: 34,3632           01441        V06N33SR           VN       0633
000422: 34,3633           01467        V06N55SR           VN       0655
000423: 34,3634           01006        V04N06SR           VN       0406
000424: 34,3635           01471        V06N57SR           VN       0657
000425: 34,3636           01442        V06N34SR           VN       0634
000426: 34,3637           01472        V06N58SR           VN       0658
000427: 34,3640           01521        V06N81SR           VN       0681
000428: 34,3641           00002        DECTWO             OCT      2
000429:
000430:
000431:
000432:
000433:

End of include-file STABLE_ORBIT_-_P38-P39.agc.  Parent file is MAIN.agc


