
Source Code


000002:                                                                                                  ## Copyright:   Public domain.
000003:                                                                                                  ## Filename:    STABLE_ORBIT_-_P38-P39.agc
000004:                                                                                                  ## Purpose:     A section of Luminary revision 97.
000005:                                                                                                  ##              It is part of the reconstructed source code for the
000006:                                                                                                  ##              original release of the flight software for the Lunar
000007:                                                                                                  ##              Module's (LM) Apollo Guidance Computer (AGC) for Apollo 11.
000008:                                                                                                  ##              The code has been recreated from a copy of Luminary 99
000009:                                                                                                  ##              revision 001, using asterisks indicating changed lines in
000010:                                                                                                  ##              the listing and Luminary Memos #83 and #85, which list
000011:                                                                                                  ##              changes between Luminary 97 and 98, and 98 and 99. The
000012:                                                                                                  ##              code has been adapted such that the resulting bugger words
000013:                                                                                                  ##              exactly match those specified for Luminary 97 in NASA drawing
000014:                                                                                                  ##              2021152D, which gives relatively high confidence that the
000015:                                                                                                  ##              reconstruction is correct.
000016:                                                                                                  ## Reference:   pp. 723-730
000017:                                                                                                  ## Assembler:   yaYUL
000018:                                                                                                  ## Contact:     Ron Burkey <info@sandroid.org>.
000019:                                                                                                  ## Website:     www.ibiblio.org/apollo/index.html
000020:                                                                                                  ## Mod history: 2019-07-28 MAS  Created from Luminary 99.
000021:


000023:                                                                                                  #  STABLE ORBIT RENDEZVOUS PROGRAMS (P38 AND P78)
000024:
000025:                                                                                                  #  MOD NO -1             LOG SECTION - STABLE ORBIT - P38-P39
000026:                                                                                                  #  MOD BY RUDNICKI.S     DATE 25JAN68
000027:
000028:                                                                                                  #  FUNCTIONAL DESCRIPTION
000029:
000030:                                                                                                  #        P38 AND P78 CALCULATE THE REQUIRED DELTA V AND OTHER INITIAL
000031:                                                                                                  #        CONDITIONS REQUIRED BY THE AGC TO (1) PUT THE ACTIVE VEHICLE
000032:                                                                                                  #        ON A TRANSFER TRAJECTORY THAT INTERCEPTS THE PASSIVE VEHICLE
000033:                                                                                                  #        ORBIT A GIVEN DISTANCE, DELTA R, EITHER AHEAD OF OR BEHIND THE
000034:                                                                                                  #        PASSIVE VEHICLE AND (2) ACTUALLY PLACE THE ACTIVE VEHICLE IN THE
000035:                                                                                                  #        PASSIVE VEHICLE ORBIT WITH A DELTA R SEPARATION BETWEEN THE TWO
000036:                                                                                                  #        VEHICLES
000037:
000038:                                                                                                  #  CALLING SEQUENCE
000039:
000040:                                                                                                  #        ASTRONAUT REQUEST THRU DSKY
000041:
000042:                                                                                                  #        V37E38E         IF THIS VEHICLE IS ACTIVE VEHICLE
000043:                                                                                                  #        V37E78E         IF OTHER VEHICLE IS ACTIVE VEHICLE
000044:
000045:                                                                                                  #  INPUT
000046:
000047:                                                                                                  #        (1)     SOI MANEUVER
000048:
000049:                                                                                                  #                (A)  TIG        TIME OF SOI MANEUVER
000050:                                                                                                  #                (B)  CENTANG    ORBITAL CENTRAL ANGLE OF THE PASSIVE VEHICLE
000051:                                                                                                  #                                DURING TRANSFER FROM TIG TO TIME OF INTERCEPT
000052:                                                                                                  #                (C)  DELTAR     THE DESIRED SEPARATION OF THE TWO VEHICLES
000053:                                                                                                  #                                SPECIFIED AS A DISTANCE ALONG THE PASSIVE VEHICLE
000054:                                                                                                  #                                ORBIT
000055:                                                                                                  #                (D)  OPTION     EQUALS 1 FOR SOI
000056:
000057:                                                                                                  #        (2)     SOR MANEUVER
000058:
000059:                                                                                                  #                (A)  TIG        TIME OF SOR MANEUVER
000060:                                                                                                  #                (B)  CENTANG    AN OPTIONAL RESPECIFICATION OF 1 (B) ABOVE
000061:                                                                                                  #                (C)  OPTION     EQUALS 2 FOR SOR
000062:                                                                                                  #                (D)  DELTTIME   THE TIME REQUIRED TO TRAVERSE DELTA R WHEN
000063:                                                                                                  #                                TRAVELING AT A VELOCITY EQUAL TO THE HORIZONTAL
000064:                                                                                                  #                                VELOCITY OF THE PASSIVE VEHICLE - SAVED FROM
000065:                                                                                                  #                                SOI PHASE
000066:                                                                                                  #                (E)  TINT       TIME OF INTERCEPT (SOI) - SAVED FROM SOI PHASE
000067:
000068:                                                                                                  #  OUTPUT
000069:
000070:                                                                                                  #        (1)  TRKMKCNT   NUMBER OF MARKS
000071:                                                                                                  #        (2)  TTOGO      TIME TO GO
000072:                                                                                                  #        (3)  +MGA       MIDDLE GIMBAL ANGLE


000074:                                                                                                  #        (4)  DSPTEM1    TIME OF INTERCEPT OF PASSIVE VEHICLE ORBIT
000075:                                                                                                  #                        (FOR SOI ONLY)
000076:                                                                                                  #        (5)  POSTTPI    PERIGEE ALTITUDE OF ACTIVE VEHICLE ORBIT AFTER
000077:                                                                                                  #                        THE SOI (SOR) MANEUVER
000078:                                                                                                  #        (6)  DELVTPI    MAGNITUDE OF DELTA V AT SOI (SOR) TIME
000079:                                                                                                  #        (7)  DELVTPF    MAGNITUDE OF DELTA V AT INTERCEPT TIME
000080:                                                                                                  #        (8)  DELVLVC    DELTA VELOCITY AT SOI (AND SOR) - LOCAL VERTICAL
000081:                                                                                                  #                        COORDINATES
000082:
000083:                                                                                                  #  SUBROUTINES USED
000084:
000085:                                                                                                  #        AVFLAGA
000086:                                                                                                  #        AVFLAGP
000087:                                                                                                  #        VNDSPLY
000088:                                                                                                  #        BANKCALL
000089:                                                                                                  #        GOFLASHR
000090:                                                                                                  #        GOTOPOOH
000091:                                                                                                  #        BLANKET
000092:                                                                                                  #        ENDOFJOB
000093:                                                                                                  #        PREC/TT
000094:                                                                                                  #        SELECTMU
000095:                                                                                                  #        INTRPVP
000096:                                                                                                  #        MAINRTNE
000097:
000098: 04,3013                                           BANK     04
000099: 34,2000                                           SETLOC   STBLEORB
000100: 34,2000                                           BANK
000101:
000102: 34,3271  E7,1470                                  EBANK=   SUBEXIT
000103: 34,3271                                           COUNT*   $$/P3879
000104:
000105: 34,3271           04616        P38                TC       BANKCALL
000106: 34,3272           72347                           CADR     AVFLAGA                               #  THIS VEHICLE ACTIVE
000107: 34,3273           03276                           TC       +3
000108: 34,3274           04616        P78                TC       BANKCALL
000109: 34,3275           72354                           CADR     AVFLAGP                               #  OTHER VEHICLE ACTIVE
000110: 34,3276           04616                           TC       BANKCALL
000111: 34,3277           72361                           CADR     P20FLGON                              #  SET UPDATFLG, TRACKFLG
000112: 34,3300           33641                           CAF      DECTWO
000113: 34,3301           55466                           TS       NN
000114: 34,3302           33632                           CAF      V06N33SR                              #  DISPLAY TIG
000115: 34,3303           03621                           TC       VNDSPLY
000116: 34,3304           33633                           CAF      V06N55SR                              #  DISPLAY CENTANG
000117: 34,3305           04616                           TCR      BANKCALL
000118: 34,3306           20635                           CADR     GOFLASHR
000119: 34,3307           16001                           TCF      GOTOPOOH                              #  TERMINATE
000120: 34,3310           13315                           TCF      +5                                    #  PROCEED
000121: 34,3311           13304                           TCF      -5                                    #  RECYCLE
000122: 34,3312           36245                           CAF      THREE                                 #  IMMEDIATE RETURN - BLANK R1, R2
000123: 34,3313           05464                           TCR      BLANKET


000125: 34,3314           15155                           TCF      ENDOFJOB
000126: 34,3315           34756                           CAF      FIVE
000127: 34,3316           55144                           TS       OPTION1
000128: 34,3317           34753                           CAF      ONE
000129: 34,3320           55145                           TS       OPTION2                               #  OPTION CODE IS SET TO 1
000130: 34,3321           33634                           CAF      V04N06SR                              #  DISPLAY OPTION CODE - 1 = SOI, 2 = SOR
000131: 34,3322           04616                           TCR      BANKCALL
000132: 34,3323           20635                           CADR     GOFLASHR
000133: 34,3324           16001                           TCF      GOTOPOOH                              #  TERMINATE
000134: 34,3325           13332                           TCF      +5                                    #  PROCEED
000135: 34,3326           13321                           TCF      -5                                    #  RECYCLE
000136: 34,3327           34751                           CAF      BIT3                                  #  IMMEDIATE RETURN - BLANK R3
000137: 34,3330           05464                           TCR      BLANKET
000138: 34,3331           15155                           TCF      ENDOFJOB
000139: 34,3332           06037                           TC       INTPRET
000140: 34,3333           70535                           SLOAD    SR1
000141: 34,3334           01146                                    OPTION2
000142: 34,3335           71230                           BHIZ     DLOAD
000143: 34,3336           71344                                    OPTN1
000144: 34,3337           03631                                    TINT
000145: 34,3340           02303                           STORE    TINTSOI                               #  STORE FOR SOR PHASE
000146: 34,3341           77614                           CLRGO
000147: 34,3342           01230                                    OPTNSW                                #  OPTNSW; ON = SOI, OFF = SOR
000148: 34,3343           71375                                    JUNCTN1
000149: 34,3344           43014        OPTN1              SET      CLEAR                                 #  SOI
000150: 34,3345           01070                                    OPTNSW
000151: 34,3346           00670                                    UPDATFLG
000152: 34,3347           77624                           CALL
000153: 34,3350           71554                                    PREC/TT
000154: 34,3351           43015                           DAD      SET
000155: 34,3352           03442                                    TIG
000156: 34,3353           00470                                    UPDATFLG
000157: 34,3354           03631                           STORE    TINT                                  #  TI = TIG + TF
000158: 34,3355           77776                           EXIT
000159: 34,3356           33635                           CAF      V06N57SR                              #  DISPLAY DELTA R
000160: 34,3357           04616                           TCR      BANKCALL
000161: 34,3360           20635                           CADR     GOFLASHR
000162: 34,3361           16001                           TCF      GOTOPOOH                              #  TERMINATE
000163: 34,3362           13367                           TCF      +5                                    #  PROCEED
000164: 34,3363           13356                           TCF      -5                                    #  RECYCLE
000165: 34,3364           36242                           CAF      SIX                                   #  IMMEDIATE RETURN - BLANK R2, R3
000166: 34,3365           05464                           TCR      BLANKET
000167: 34,3366           15155                           TCF      ENDOFJOB
000168: 34,3367           00006                 +5        EXTEND
000169: 34,3370           31631                           DCA      TINT
000170: 34,3371           53046                           DXCH     DSPTEM1                               #  FOR DISPLAY
000171: 34,3372           33636                           CAF      V06N34SR                              #  DISPLAY TIME OF INTERCEPT
000172: 34,3373           03621                           TC       VNDSPLY
000173: 34,3374           06037                           TC       INTPRET
000174: 34,3375           45014        JUNCTN1            CLEAR    CALL


000176: 34,3376           04266                                    P39/79SW
000177: 34,3377           20000                                    SELECTMU                              #  SELECT MU, CLEAR FINALFLG, GO TO VN1645
000178: 34,3400           77624        RECYCLE            CALL
000179: 34,3401           71554                                    PREC/TT
000180: 34,3402           71214                           BOFF     DLOAD
000181: 34,3403           01350                                    OPTNSW
000182: 34,3404           71424                                    OPTN2
000183: 34,3405           03631                                    TINT
000184: 34,3406           34041                           STCALL   TDEC1                                 #  PRECISION UPDATE PASSIVE VEHICLE TO
000185: 34,3407           71605                                    INTRPVP                               #        INTERCEPT TIME
000186: 34,3410           53575                           VLOAD    UNIT
000187: 34,3411           00001                                    RATT                                  #  RP/(RP)
000188: 34,3412           47315                           PDVL     VXV
000189: 34,3413           00007                                    VATT
000190: 34,3414           60246                           ABVAL    NORM                                  #  (VP X RP/(RP))
000191: 34,3415           00047                                    X1
000192: 34,3416           56325                           PDDL     DDV
000193: 34,3417           02303                                    DELTAR
000194: 34,3420           77657                           SL*                                            #  DELTA R / (VP X RP/RP)
000195: 34,3421           20172                                    0          -7,1
000196: 34,3422           36305                           STCALL   DELTTIME                              #  DELTA T = (RP) DELTA R / (VP X RP)
000197: 34,3423           71430                                    JUNCTN2
000198: 34,3424           43345        OPTN2              DLOAD    DAD
000199: 34,3425           02303                                    TINTSOI
000200: 34,3426           00037                                    T
000201: 34,3427           03631                           STORE    TINT                                  #  TI = TI + TF
000202: 34,3430           45345        JUNCTN2            DLOAD    DSU
000203: 34,3431           03631                                    TINT
000204: 34,3432           02305                                    DELTTIME
000205: 34,3433           02307                           STORE    TARGTIME                              #  TT = TI - DELTA T
000206:
000207:                                                                                                  #  .... MAINRTNE ....
000208:
000209:                                                                                                  #  SUBROUTINES USED
000210:
000211:                                                                                                  #        S3435.25
000212:                                                                                                  #        PERIAPO1
000213:                                                                                                  #        SHIFTR1
000214:                                                                                                  #        VNDSPLY
000215:                                                                                                  #        BANKCALL
000216:                                                                                                  #        GOFLASH
000217:                                                                                                  #        GOTOPOOH
000218:                                                                                                  #        VN1645
000219:
000220: 34,3434           34041        MAINRTNE           STCALL   TDEC1                                 #  PRECISION UPDATE PASSIVE VEHICLE TO
000221: 34,3435           71605                                    INTRPVP                               #        TARGET TIME
000222: 34,3436           77745                           DLOAD
000223: 34,3437           03442                                    TIG
000224: 34,3440           03610                           STORE    INTIME
000225: 34,3441           77331                           SSP      VLOAD
000226: 34,3442           03471                                    SUBEXIT
000227: 34,3443           71447                                    TEST3979


000229: 34,3444           00001                                    RATT
000230: 34,3445           77624                           CALL
000231: 34,3446           73327                                    S3435.25
000232: 34,3447           43014        TEST3979           BOFF     BON
000233: 34,3450           04346                                    P39/79SW
000234: 34,3451           71460                                    MAINRTN1
000235: 34,3452           01311                                    FINALFLG
000236: 34,3453           71456                                    P39P79
000237: 34,3454           77614                           SET
000238: 34,3455           00470                                    UPDATFLG
000239: 34,3456           77776        P39P79             EXIT
000240: 34,3457           03505                           TC       DSPLY81                               #  FOR P39 AND P79
000241: 34,3460           51575        MAINRTN1           VLOAD    ABVAL
000242: 34,3461           02366                                    DELVEET3
000243: 34,3462           27576                           STOVL    DELVTPI                               #  DELTA V
000244: 34,3463           03506                                    VPASS4
000245: 34,3464           51451                           VSU      ABVAL
000246: 34,3465           03566                                    VTPRIME
000247: 34,3466           26350                           STOVL    DELVTPF                               #  DELTA V (FINAL) = V'T - VT
000248: 34,3467           03536                                    RACT3
000249: 34,3470           45115                           PDVL     CALL
000250: 34,3471           02337                                    VIPRIME
000251: 34,3472           46316                                    PERIAPO1                              #  GET PERIGEE ALTITUDE
000252: 34,3473           77624                           CALL
000253: 34,3474           46426                                    SHIFTR1
000254: 34,3475           03606                           STORE    POSTTPI
000255: 34,3476           43014                           BON      SET
000256: 34,3477           01311                                    FINALFLG
000257: 34,3500           71502                                    DSPLY58
000258: 34,3501           00470                                    UPDATFLG
000259: 34,3502           77776        DSPLY58            EXIT
000260: 34,3503           33637                           CAF      V06N58SR                              #  DISPLAY HP, DELTA V, DELTA V (FINAL)
000261: 34,3504           03621                           TC       VNDSPLY
000262: 34,3505           33640        DSPLY81            CAF      V06N81SR                              #  DISPLAY DELTA V (LV)
000263: 34,3506           03621                           TC       VNDSPLY
000264: 34,3507           06037                           TC       INTPRET
000265: 34,3510           77214                           CLEAR    VLOAD
000266: 34,3511           01267                                    XDELVFLG
000267: 34,3512           02366                                    DELVEET3
000268: 34,3513           37656                           STCALL   DELVSIN
000269: 34,3514           73606                                    VN1645                                #  DISPLAY TRKMKCNT, TTOGO, +MGA
000270: 34,3515           52014                           BON      GOTO
000271: 34,3516           04306                                    P39/79SW
000272: 34,3517           71541                                    P39/P79B
000273: 34,3520           71400                                    RECYCLE
000274:
000275:                                                                                                  #  STABLE ORBIT MIDCOURSE PROGRAM (P39 AND P79)
000276:
000277:                                                                                                  #  MOD NO -1             LOG SECTION - STABLE ORBIT - P38-P39
000278:                                                                                                  #  MOD BY RUDNICKI.S     DATE 25JAN68
000279:


000281:                                                                                                  #  FUNCTIONAL DESCRIPTION
000282:
000283:                                                                                                  #        P39 AND P79 CALCULATE THE REQUIRED DELTA V AND OTHER INITIAL
000284:                                                                                                  #        CONDITIONS REQUIRED BY THE AGC TO MAKE A MIDCOURSE CORRECTION
000285:                                                                                                  #        MANEUVER AFTER COMPLETING THE SOI MANEUVER BUT BEFORE MAKING
000286:                                                                                                  #        THE SOR MANEUVER
000287:
000288:                                                                                                  #  CALLING SEQUENCE
000289:
000290:                                                                                                  #        ASTRONAUT REQUEST THRU DSKY
000291:
000292:                                                                                                  #        V37E39E         IF THIS VEHICLE IS ACTIVE VEHICLE
000293:                                                                                                  #        V37E79E         IF OTHER VEHICLE IS ACTIVE VEHICLE
000294:
000295:                                                                                                  #  INPUT
000296:
000297:                                                                                                  #        (1)  TPASS4     TIME OF INTERCEPT - SAVED FROM P38/P78
000298:                                                                                                  #        (2)  TARGTIME   TIME THAT PASSIVE VEHICLE IS AT INTERCEPT POINT -
000299:                                                                                                  #                        SAVED FROM P38/P78
000300:
000301:                                                                                                  #  OUTPUT
000302:
000303:                                                                                                  #        (1)  TRKMKCNT   NUMBER OF MARKS
000304:                                                                                                  #        (2)  TTOGO      TIME TO GO
000305:                                                                                                  #        (3)  +MGA       MIDDLE GIMBAL ANGLE
000306:                                                                                                  #        (4)  DELVLVC    DELTA VELOCITY AT MID - LOCAL VERTICAL COORDINATES
000307:
000308:                                                                                                  #  SUBROUTINES USED
000309:
000310:                                                                                                  #        AVFLAGA
000311:                                                                                                  #        AVFLAGP
000312:                                                                                                  #        LOADTIME
000313:                                                                                                  #        SELECTMU
000314:                                                                                                  #        PRECSET
000315:                                                                                                  #        S34/35.1
000316:                                                                                                  #        MAINRTNE
000317:
000318: 34,3521           04616        P39                TC       BANKCALL
000319: 34,3522           72347                           CADR     AVFLAGA                               #  THIS VEHICLE ACTIVE
000320: 34,3523           00006                           EXTEND
000321: 34,3524           31401                           DCA      ATIGINC
000322: 34,3525           03532                           TC       P39/P79A
000323: 34,3526           04616        P79                TC       BANKCALL
000324: 34,3527           72354                           CADR     AVFLAGP                               #  OTHER VEHICLE ACTIVE
000325: 34,3530           00006                           EXTEND
000326: 34,3531           31403                           DCA      PTIGINC
000327: 34,3532           53576        P39/P79A           DXCH     KT                                    #  TIME TO PREPARE FOR BURN
000328: 34,3533           04616                           TC       BANKCALL
000329: 34,3534           72361                           CADR     P20FLGON                              #  SET UPDATFLG, TRACKFLG
000330: 34,3535           06037                           TC       INTPRET


000332: 34,3536           45014                           SET      CALL
000333: 34,3537           04066                                    P39/79SW
000334: 34,3540           20000                                    SELECTMU                              #  SELECT MU, CLEAR FINALFLG, GO TO VN1645
000335: 34,3541           43234        P39/P79B           RTB      DAD
000336: 34,3542           21573                                    LOADTIME
000337: 34,3543           03576                                    KT
000338: 34,3544           03442                           STORE    TIG                                   #  TIG = T (PRESENT) + PREPARATION TIME
000339: 34,3545           34041                           STCALL   TDEC1                                 #  PRECISION UPDATE ACTIVE AND PASSIVE
000340: 34,3546           46360                                    PRECSET                               #        VEHICLES TO TIG
000341: 34,3547           77624                           CALL
000342: 34,3550           73274                                    S34/35.1                              #  GET UNIT NORMAL
000343: 34,3551           52145                           DLOAD    GOTO
000344: 34,3552           02307                                    TARGTIME
000345: 34,3553           71434                                    MAINRTNE                              #  CALCULATE DELTA V AND DELTA V (LV)
000346:
000347:                                                                                                  #  .... PREC/TT ....
000348:
000349:                                                                                                  #  SUBROUTINES USED
000350:
000351:                                                                                                  #        PRECSET
000352:                                                                                                  #        TIMETHET
000353:                                                                                                  #        S34/35.1
000354:
000355: 34,3554           71220        PREC/TT            STQ      DLOAD
000356: 34,3555           03465                                    RTRN
000357: 34,3556           03442                                    TIG
000358: 34,3557           34041                           STCALL   TDEC1                                 #  PRECISION UPDATE ACTIVE AND PASSIVE
000359: 34,3560           46360                                    PRECSET                               #        VEHICLES TO TIG
000360: 34,3561           53775                           VLOAD    VSR*
000361: 34,3562           03552                                    RPASS3
000362: 34,3563           57176                                    0,2
000363: 34,3564           16655                           STODL    RVEC
000364: 34,3565           03621                                    CENTANG
000365: 34,3566           71406                           PUSH     COS
000366: 34,3567           16732                           STODL    CSTH
000367: 34,3570           43156                           SIN      SET
000368: 34,3571           03466                                    RVSW
000369: 34,3572           26730                           STOVL    SNTH
000370: 34,3573           03560                                    VPASS3
000371: 34,3574           77657                           VSR*
000372: 34,3575           57176                                    0,2
000373: 34,3576           36744                           STCALL   VVEC                                  #  GET TRANSFER TIME BASED ON CENTANG OF
000374: 34,3577           24732                                    TIMETHET                              #        PASSIVE VEHICLE
000375: 34,3600           77624                           CALL
000376: 34,3601           73274                                    S34/35.1                              #  GET UNIT NORMAL
000377: 34,3602           52145                           DLOAD    GOTO
000378: 34,3603           00037                                    T
000379: 34,3604           03465                                    RTRN
000380:
000381:                                                                                                  #  .... INTRPVP ....
000382:
000383:                                                                                                  #  SUBROUTINES USED
000384:
000385:                                                                                                  #        CSMPREC


000387:                                                                                                  #        LEMPREC
000388:
000389: 34,3605           43020        INTRPVP            STQ      BOFF                                  #  PRECISION UPDATE PASSIVE VEHICLE TO
000390: 34,3606           03465                                    RTRN                                  #        TDEC1
000391: 34,3607           01352                                    AVFLAG
000392: 34,3610           71615                                    OTHERV
000393: 34,3611           77624                           CALL
000394: 34,3612           27043                                    CSMPREC
000395: 34,3613           77650                           GOTO
000396: 34,3614           03465                                    RTRN
000397: 34,3615           77624        OTHERV             CALL
000398: 34,3616           27057                                    LEMPREC
000399: 34,3617           77650                           GOTO
000400: 34,3620           03465                                    RTRN
000401:
000402:                                                                                                  #  .... VNDSPLY ....
000403:
000404:                                                                                                  #  SUBROUTINES USED
000405:
000406:                                                                                                  #        BANKCALL
000407:                                                                                                  #        GOFLASH
000408:                                                                                                  #        GOTOPOOH
000409:
000410: 34,3621           00006        VNDSPLY            EXTEND                                         #  FLASH DISPLAY
000411: 34,3622           23465                           QXCH     RTRN
000412: 34,3623           55615                           TS       VERBNOUN
000413: 34,3624           31615                           CA       VERBNOUN
000414: 34,3625           04616                           TCR      BANKCALL
000415: 34,3626           20476                           CADR     GOFLASH
000416: 34,3627           16001                           TCF      GOTOPOOH                              #  TERMINATE
000417: 34,3630           01465                           TC       RTRN                                  #  PROCEED
000418: 34,3631           13624                           TCF      -5                                    #  RECYCLE
000419: 34,3632           01441        V06N33SR           VN       0633
000420: 34,3633           01467        V06N55SR           VN       0655
000421: 34,3634           01006        V04N06SR           VN       0406
000422: 34,3635           01471        V06N57SR           VN       0657
000423: 34,3636           01442        V06N34SR           VN       0634
000424: 34,3637           01472        V06N58SR           VN       0658
000425: 34,3640           01521        V06N81SR           VN       0681
000426: 34,3641           00002        DECTWO             OCT      2
000427:
000428:
000429:
000430:
000431:

End of include-file STABLE_ORBIT_-_P38-P39.agc.  Parent file is MAIN.agc


