
Source Code


000002:                                                                                                  ## Copyright:   Public domain.
000003:                                                                                                  ## Filename:    T6-RUPT_PROGRAMS.agc
000004:                                                                                                  ## Purpose:     A section of Luminary revision 97.
000005:                                                                                                  ##              It is part of the reconstructed source code for the
000006:                                                                                                  ##              original release of the flight software for the Lunar
000007:                                                                                                  ##              Module's (LM) Apollo Guidance Computer (AGC) for Apollo 11.
000008:                                                                                                  ##              The code has been recreated from a copy of Luminary 99
000009:                                                                                                  ##              revision 001, using asterisks indicating changed lines in
000010:                                                                                                  ##              the listing and Luminary Memos #83 and #85, which list
000011:                                                                                                  ##              changes between Luminary 97 and 98, and 98 and 99. The
000012:                                                                                                  ##              code has been adapted such that the resulting bugger words
000013:                                                                                                  ##              exactly match those specified for Luminary 97 in NASA drawing
000014:                                                                                                  ##              2021152D, which gives relatively high confidence that the
000015:                                                                                                  ##              reconstruction is correct.
000016:                                                                                                  ## Reference:   pp. 1403-1405
000017:                                                                                                  ## Assembler:   yaYUL
000018:                                                                                                  ## Contact:     Ron Burkey <info@sandroid.org>.
000019:                                                                                                  ## Website:     www.ibiblio.org/apollo/index.html
000020:                                                                                                  ## Mod history: 2019-07-28 MAS  Created from Luminary 99.
000021:


000023:                                                                                                  #  PROGRAM NAMES:        (1) T6JOBCHK    MOD. NO. 5      OCTOBER 2, 1967
000024:                                                                                                  #                        (2) DOT6RUPT
000025:                                                                                                  #  MODIFICATION BY:      LOWELL G HULL (A.C.ELECTRONICS)
000026:
000027:                                                                                                  #  THESE PROGRAMS ENABLE THE LM DAP TO CONTROL THE THRUST TIMES OF THE REACTION CONTROL SYSTEM JETS BY USING TIME6.
000028:                                                                                                  #  SINCE THE LM DAP MAINTAINS EXCLUSIVE CONTROL OVER TIME6 AND ITS INTERRUPTS, THE FOLLOWING CONVENTIONS HAVE BEEN
000029:                                                                                                  #  ESTABLISHED AND MUST NOT BE TAMPERED WITH:
000030:                                                                                                  #        1.      NO NUMBER IS EVER PLACED INTO TIME6 EXCEPT BY LM DAP.
000031:                                                                                                  #        2.      NO PROGRAM OTHER THAN LM DAP ENABLES THE TIME6 COUNTER.
000032:                                                                                                  #        3.      TO USE TIME6, THE FOLLOWING SEQUENCE IS ALWAYS EMPLOYED:
000033:                                                                                                  #                A.      A POSITIVE (NON-ZERO) NUMBER IS STORED IN TIME6.
000034:                                                                                                  #                B.      THE TIME6 CLOCK IS ENABLED.
000035:                                                                                                  #                C.      TIME6 IS INTERROGATED AND IS:
000036:                                                                                                  #                        I.      NEVER FOUND NEGATIVE (NON-ZERO) OR +0.
000037:                                                                                                  #                        II.     SOMETIMES FOUND POSITIVE (BETWEEN 1 AND 240D) INDICATING THAT IT IS ACTIVE.
000038:                                                                                                  #                        III.    SOMETIMES FOUND POSMAX INDICATING THAT IT IS INACTIVE AND NOT ENABLED.
000039:                                                                                                  #                        IV.     SOMETIMES FOUND NEGATIVE ZERO INDICATING THAT:
000040:                                                                                                  #                                A.      A T6RUPT IS ABOUT TO OCCUR AT THE NEXT DINC, OR
000041:                                                                                                  #                                B.      A T6RUPT IS WAITING IN THE PRIORITY CHAIN, OR
000042:                                                                                                  #                                C.      A T6RUPT IS IN PROCESS NOW.
000043:                                                                                                  #        4)      ALL PROGRAMS WHICH OPERATE IN EITHER INTERRUPT MODE OR WITH INTERRUPT INHIBITED MUST CALL T6JOBCHK
000044:                                                                                                  #                EVERY 5 MILLISECONDS TO PROCESS A POSSIBLE WAITING T6RUPT BEFORE IT CAN BE HONORED BY THE HARDWARE.
000045:                                                                                                  #       (5.      PROGRAM JTLST, IN Q,R-AXES, HANDLES THE INPUT LIST.)
000046:
000047:                                                                                                  #  T6JOBCHK CALLING SEQUENCE:
000048:                                                                                                  #                L       TC      T6JOBCHK
000049:                                                                                                  #                L+1     (RETURN)
000050:
000051:                                                                                                  #  DOT6RUPT CALLING SEQUENCE:
000052:                                                                                                  #                        DXCH    ARUPT           T6RUPT LEAD IN AT LOCATION 4004.
000053:                                                                                                  #                        EXTEND
000054:                                                                                                  #                        DCA     T6ADR
000055:                                                                                                  #                        DTCB
000056:
000057:                                                                                                  #  SUBROUTINES CALLED:   DOT6RUPT CALLS T6JOBCHK.
000058:
000059:                                                                                                  #  NORMAL EXIT MODES:    T6JOBCHK RETURNS TO L +1.
000060:                                                                                                  #                        DOT6RUPT TRANSFERS CONTROL TO RESUME.
000061:
000062:                                                                                                  #  ALARM/ABORT MODES:    NONE.
000063:
000064:                                                                                                  #  INPUT:        TIME6           NXT6ADR         OUTPUT:         TIME6           NXT6ADR         CHANNEL 5
000065:                                                                                                  #                T6NEXT          T6NEXT +1                       T6NEXT          T6NEXT +1       CHANNEL 6
000066:                                                                                                  #                T6FURTHA        T6FURTHA +1                     T6FURTHA        T6FURTHA +1     BIT15/CH13
000067:
000068:                                                                                                  #  DEBRIS:       T6JOBCHK CLOBBERS A.  DOT6RUPT CLOBBERS NOTHING.
000069:
000070:    5753                                           BLOCK    02


000072: 17,2027                                           BANK     17
000073: 17,2000                                           SETLOC   DAPS2
000074: 17,2000                                           BANK
000075: 17,2027  E6,1466                                  EBANK=   T6NEXT
000076: 17,2027                                           COUNT*   $$/DAPT6
000077:
000078: 17,2027           10031        T6JOBCHK           CCS      TIME6                                 #  CHECK TIME6 FOR WAITING T6RUPT:
000079: 17,2030           00002                           TC       Q                                     #  NONE: CLOCK COUTING DOWN.
000080: 17,2031           05705                           TC       CCSHOLE
000081: 17,2032           02032                           TC       T6JOBCHK   +3
000082:
000083:                                                                                                  #  CONTROL PASSES TO T6JOB ONLY WHEN C(TIME6) = -0 (I.E. WHEN A T6RUPT MUST BE PROCESSED).
000084:
000085: 17,2033           34733        T6JOB              CAF      POSMAX                                #  DISABLE CLOCK: NEEDED SINCE RUPT OCCURS
000086: 17,2034           00006                           EXTEND                                         #  1 DINC AFTER T6 = 77777. FOR 625 MUSECS
000087: 17,2035           03013                           WAND     CHAN13                                #  MUST NOT HAVE T6 = +0 WITH ENABLE SET
000088:
000089: 17,2036           34733                           CA       POSMAX
000090: 17,2037           22007                           ZL
000091: 17,2040           53471                           DXCH     T6FURTHA
000092: 17,2041           53467                           DXCH     T6NEXT
000093: 17,2042           23465                           LXCH     NXT6ADR
000094: 17,2043           54031                           TS       TIME6
000095:
000096: 17,2044           67725                           AD       PRIO37
000097: 17,2045           54000                           TS       A
000098: 17,2046           12052                           TCF      ENABLET6
000099: 17,2047           34733                           CA       POSMAX
000100: 17,2050           54031                           TS       TIME6
000101: 17,2051           12063                           TCF      GOCH56
000102: 17,2052           34735        ENABLET6           CA       BIT15
000103: 17,2053           00006                           EXTEND
000104: 17,2054           05013                           WOR      CHAN13
000105: 17,2055           31466                           CA       T6NEXT
000106: 17,2056           67725                           AD       PRIO37
000107: 17,2057           54000                           TS       A
000108: 17,2060           12063                           TCF      GOCH56
000109: 17,2061           34733                           CA       POSMAX
000110: 17,2062           55466                           TS       T6NEXT
000111: 17,2063           50001        GOCH56             INDEX    L
000112: 17,2064           15753                           TCF      WRITEP     -1
000113:
000114:    5753                                           BLOCK    02
000115:    4000                                           SETLOC   FFTAG9
000116:    4000                                           BANK
000117:    5753  E6,1635                                  EBANK=   CDUXD
000118:    5753                                           COUNT*   $$/DAPT6
000119:
000120:    5753           31472                           CA       NEXTP
000121:    5754           00006        WRITEP             EXTEND
000122:    5755           01006                           WRITE    CHAN6


000124:    5756           00002                           TC       Q
000125:
000126:    5757           31473                           CA       NEXTU
000127:    5760           54001        WRITEU             TS       L
000128:    5761           45774                           CS       00314OCT
000129:    5762           00006                           EXTEND
000130:    5763           02005                           RAND     CHAN5
000131:    5764           60001                           AD       L
000132:    5765           00006                           EXTEND
000133:    5766           01005                           WRITE    CHAN5
000134:    5767           00002                           TC       Q
000135:
000136:    5770           31474                           CA       NEXTV
000137:    5771           54001        WRITEV             TS       L
000138:    5772           35774                           CA       00314OCT
000139:    5773           15762                           TCF      -9D
000140:    5774           00314        00314OCT           OCT      00314
000141:
000142: 17,2065                                           BANK     17
000143: 17,2000                                           SETLOC   DAPS2
000144: 17,2000                                           BANK
000145:
000146: 17,2065  E6,1466                                  EBANK=   T6NEXT
000147: 17,2065                                           COUNT*   $$/DAPT6
000148:
000149: 17,2065           22016        DOT6RUPT           LXCH     BANKRUPT                              #  (INTERRUPT LEAD INS CONTINUED)
000150: 17,2066           00006                           EXTEND
000151: 17,2067           22012                           QXCH     QRUPT
000152:
000153: 17,2070           02027                           TC       T6JOBCHK                              #  CALL T6JOBCHK.
000154:
000155: 17,2071           15270                           TCF      RESUME                                #  END TIME6 INTERRUPT PROCESSOR.
000156:

End of include-file T6-RUPT_PROGRAMS.agc.  Parent file is MAIN.agc


