
Source Code


000002:                                                                                                  ## Copyright:   Public domain.
000003:                                                                                                  ## Filename:    TAGS_FOR_RELATIVE_SETLOC_AND_BLANK_BANK_CARDS.agc
000004:                                                                                                  ## Purpose:     A section of Luminary revision 97.
000005:                                                                                                  ##              It is part of the reconstructed source code for the
000006:                                                                                                  ##              original release of the flight software for the Lunar
000007:                                                                                                  ##              Module's (LM) Apollo Guidance Computer (AGC) for Apollo 11.
000008:                                                                                                  ##              The code has been recreated from a copy of Luminary 99
000009:                                                                                                  ##              revision 001, using asterisks indicating changed lines in
000010:                                                                                                  ##              the listing and Luminary Memos #83 and #85, which list
000011:                                                                                                  ##              changes between Luminary 97 and 98, and 98 and 99. The
000012:                                                                                                  ##              code has been adapted such that the resulting bugger words
000013:                                                                                                  ##              exactly match those specified for Luminary 97 in NASA drawing
000014:                                                                                                  ##              2021152D, which gives relatively high confidence that the
000015:                                                                                                  ##              reconstruction is correct.
000016:                                                                                                  ## Reference:   pp. 28-37
000017:                                                                                                  ## Assembler:   yaYUL
000018:                                                                                                  ## Contact:     Ron Burkey <info@sandroid.org>.
000019:                                                                                                  ## Website:     www.ibiblio.org/apollo/index.html
000020:                                                                                                  ## Mod history: 2019-07-28 MAS  Created from Luminary 99.
000021:


000023: ???????                                           COUNT    BANKSUM
000024:
000025:                                                                                                  #  MODULE 1 CONTAINS BANKS 0 THROUGH 5
000026:
000027:    4000                                           BLOCK    02
000028:    4000                        RADARFF            EQUALS
000029:    4000                        FFTAG1             EQUALS
000030:    4000                        FFTAG2             EQUALS
000031:    4000                        FFTAG3             EQUALS
000032:    4000                        FFTAG4             EQUALS
000033:    4000                        FFTAG7             EQUALS
000034:    4000                        FFTAG8             EQUALS
000035:    4000                        FFTAG9             EQUALS
000036:    4000                        FFTAG10            EQUALS
000037:    4000                        FFTAG11            EQUALS
000038:    4000                        FFTAG12            EQUALS
000039:    4000                        FFTAG13            EQUALS
000040:    4000                                           BNKSUM   02
000041:
000042:    6000                                           BLOCK    03
000043:    6000                        FFTAG5             EQUALS
000044:    6000                        FFTAG6             EQUALS
000045:    6000                                           BNKSUM   03
000046:
000047: 00,2000                                           BANK     00
000048: 00,2000                        DLAYJOB            EQUALS
000049: 00,2000                                           BNKSUM   00
000050:
000051: 01,2000                                           BANK     01
000052: 01,2000                        RESTART            EQUALS
000053: 01,2000                        LOADDAP1           EQUALS
000054: 01,2000                                           BNKSUM   01
000055:
000056: 04,2000                                           BANK     04
000057: 04,2000                        R02                EQUALS
000058: 04,2000                        VERB37             EQUALS
000059: 04,2000                        PINBALL4           EQUALS
000060: 04,2000                        CONICS1            EQUALS
000061: 04,2000                        KEYRUPT            EQUALS
000062: 04,2000                        R36LM              EQUALS
000063: 04,2000                        UPDATE2            EQUALS
000064: 04,2000                        E/PROG             EQUALS
000065: 04,2000                        AOTMARK2           EQUALS
000066: 04,2000                                           BNKSUM   04
000067:


000069: 05,2000                                           BANK     05
000070: 05,2000                        FRANDRES           EQUALS
000071: 05,2000                        DOWNTELM           EQUALS
000072: 05,2000                        ABORTS1            EQUALS
000073: 05,2000                        EPHEM1             EQUALS
000074: 05,2000                        ASENT3             EQUALS
000075: 05,2000                                           BNKSUM   05
000076:
000077:                                                                                                  #  MODULE 2 CONTAINS BANKS 6 THROUGH 13
000078:
000079: 06,2000                                           BANK     06
000080: 06,2000                        IMUCOMP            EQUALS
000081: 06,2000                        T4RUP              EQUALS
000082: 06,2000                        RCSMONT            EQUALS
000083: 06,2000                        MIDDGIM            EQUALS
000084: 06,2000                        EARTHLOC           EQUALS
000085: 06,2000                                           BNKSUM   06
000086:
000087: 07,2000                                           BANK     07
000088: 07,2000                        AOTMARK1           EQUALS
000089: 07,2000                        MODESW             EQUALS
000090: 07,2000                        ASENT2             EQUALS
000091: 07,2000                                           BNKSUM   07
000092:
000093: 10,2000                                           BANK     10
000094: 10,2000                        RTBCODES           EQUALS
000095: 10,2000                        DISPLAYS           EQUALS
000096: 10,2000                        PHASETAB           EQUALS
000097: 10,2000                        FLESHLOC           EQUALS
000098: 10,2000                        SLCTMU             EQUALS
000099: 10,2000                                           BNKSUM   10
000100:
000101: 11,2000                                           BANK     11
000102: 11,2000                        ORBITAL            EQUALS
000103: 11,2000                        F2DPS*11           EQUALS
000104: 11,2000                        INTVEL             EQUALS
000105: 11,2000                                           BNKSUM   11
000106:
000107: 12,2000                                           BANK     12
000108: 12,2000                        CONICS             EQUALS
000109: 12,2000                        ORBITAL1           EQUALS


000111: 12,2000                        INTPRET2           EQUALS
000112: 12,2000                                           BNKSUM   12
000113:
000114: 13,2000                                           BANK     13
000115: 13,2000                        LATLONG            EQUALS
000116: 13,2000                        INTINIT            EQUALS
000117: 13,2000                        LEMGEOM            EQUALS
000118: 13,2000                        P76LOC             EQUALS
000119: 13,2000                        ORBITAL2           EQUALS
000120: 13,2000                        ABTFLGS            EQUALS
000121: 13,2000                                           BNKSUM   13
000122:


000124:                                                                                                  #  MODULE 3 CONTAINS BANKS 14 THROUGH 21
000125:
000126: 14,2000                                           BANK     14
000127: 14,2000                        P50S1              EQUALS
000128: 14,2000                        STARTAB            EQUALS
000129: 14,2000                        ASENT4             EQUALS
000130: 14,2000                                           BNKSUM   14
000131:
000132: 15,2000                                           BANK     15
000133: 15,2000                        P50S               EQUALS
000134: 15,2000                        EPHEM              EQUALS
000135: 15,2000                                           BNKSUM   15
000136:
000137: 16,2000                                           BANK     16
000138: 16,2000                        DAPS1              EQUALS
000139: 16,2000                                           BNKSUM   16
000140:
000141: 17,2000                                           BANK     17
000142: 17,2000                        DAPS2              EQUALS
000143: 17,2000                        P40S3              EQUALS
000144: 17,2000                                           BNKSUM   17
000145:
000146: 20,2000                                           BANK     20
000147: 20,2000                        DAPS3              EQUALS
000148: 20,2000                        LOADDAP            EQUALS
000149: 20,2000                        RODTRAP            EQUALS
000150: 20,2000                                           BNKSUM   20
000151:
000152: 21,2000                                           BANK     21
000153: 21,2000                        DAPS4              EQUALS
000154: 21,2000                        R10                EQUALS
000155: 21,2000                        R11                EQUALS
000156: 21,2000                                           BNKSUM   21


000158:
000159:                                                                                                  #  MODULE 4 CONTAINS BANKS 22 THROUGH 27
000160:
000161: 22,2000                                           BANK     22
000162: 22,2000                        KALCMON1           EQUALS
000163: 22,2000                        KALCMON2           EQUALS
000164: 22,2000                        R30LOC             EQUALS
000165: 22,2000                        RENDEZ             EQUALS
000166: 22,2000                        SERV2              EQUALS
000167: 22,2000                        LANDCNST           EQUALS
000168: 22,2000                                           BNKSUM   22
000169:
000170: 23,2000                                           BANK     23
000171: 23,2000                        POWFLITE           EQUALS
000172: 23,2000                        POWFLIT1           EQUALS
000173: 23,2000                        INFLIGHT           EQUALS
000174: 23,2000                        APOPERI            EQUALS
000175: 23,2000                        R61                EQUALS
000176: 23,2000                        R62                EQUALS
000177: 23,2000                        INTPRET1           EQUALS
000178: 23,2000                        MEASINC            EQUALS
000179: 23,2000                        MEASINC1           EQUALS
000180: 23,2000                        EXTVB1             EQUALS
000181: 23,2000                        P12A               EQUALS
000182: 23,2000                        NORMLIZ            EQUALS
000183: 23,2000                        ASENT7             EQUALS
000184: 23,2000                                           BNKSUM   23
000185:
000186: 24,2000                                           BANK     24
000187: 24,2000                        PLANTIN            EQUALS
000188: 24,2000                        P20S               EQUALS
000189: 24,2000                                           BNKSUM   24
000190:
000191: 25,2000                                           BANK     25
000192: 25,2000                        P20S1              EQUALS
000193: 25,2000                        P20S2              EQUALS
000194: 25,2000                        RADARUPT           EQUALS
000195: 25,2000                        RRLEADIN           EQUALS
000196: 25,2000                        R29S1              EQUALS
000197: 25,2000                        PLANTIN3           EQUALS
000198: 25,2000                                           BNKSUM   25
000199:
000200: 26,2000                                           BANK     26


000202: 26,2000                        P20S3              EQUALS
000203: 26,2000                        BAWLANGS           EQUALS
000204: 26,2000                        MANUVER            EQUALS
000205: 26,2000                        MANUVER1           EQUALS
000206: 26,2000                        PLANTIN1           EQUALS
000207: 26,2000                        PLANTIN2           EQUALS
000208: 26,2000                                           BNKSUM   26
000209:
000210: 27,2000                                           BANK     27
000211: 27,2000                        TOF-FF             EQUALS
000212: 27,2000                        TOF-FF1            EQUALS
000213: 27,2000                        P40S1              EQUALS
000214: 27,2000                        VECPT              EQUALS
000215: 27,2000                        ASENT1             EQUALS
000216: 27,2000                        SERV3              EQUALS
000217: 27,2000                                           BNKSUM   27
000218:


000220:                                                                                                  #  MODULE 5 CONTAINS BANKS 30 THROUGH 35
000221:
000222: 30,2000                                           BANK     30
000223: 30,2000                        LOWSUPER           EQUALS
000224: 30,2000                        P12                EQUALS
000225: 30,2000                        ASENT              EQUALS
000226: 30,2000                        FCDUW              EQUALS
000227: 30,2000                        FLOGSUB            EQUALS
000228: 30,2000                        VB67A              EQUALS
000229: 30,2000                        ASENT5             EQUALS
000230: 30,2000                                           BNKSUM   30
000231:
000232: 31,2000                                           BANK     31
000233: 31,2000                        FTHROT             EQUALS
000234: 31,2000                        F2DPS*31           EQUALS
000235: 31,2000                        VB67               EQUALS
000236: 31,2000                                           BNKSUM   31
000237:
000238: 32,2000                                           BANK     32
000239: 32,2000                        P20S4              EQUALS
000240: 32,2000                        F2DPS*32           EQUALS
000241: 32,2000                        ABORTS             EQUALS
000242: 32,2000                        LRS22              EQUALS
000243: 32,2000                        P66LOC             EQUALS
000244: 32,2000                        R47                EQUALS
000245: 32,2000                        SERV               EQUALS
000246: 32,2000                                           BNKSUM   32
000247:
000248: 33,2000                                           BANK     33
000249: 33,2000                        SERVICES           EQUALS
000250: 33,2000                        R29/SERV           EQUALS
000251: 33,2000                        ASENT6             EQUALS
000252: 33,2000                                           BNKSUM   33
000253:
000254: 34,2000                                           BANK     34
000255: 34,2000                        STBLEORB           EQUALS
000256: 34,2000                        P30S1              EQUALS
000257: 34,2000                        CSI/CDH1           EQUALS
000258: 34,2000                        ASCFILT            EQUALS
000259: 34,2000                        R12STUFF           EQUALS
000260: 34,2000                        SERV4              EQUALS
000261: 34,2000                                           BNKSUM   34
000262:


000264: 35,2000                                           BANK     35
000265: 35,2000                        CSI/CDH            EQUALS
000266: 35,2000                        P30S               EQUALS
000267: 35,2000                        GLM                EQUALS
000268: 35,2000                        P40S2              EQUALS
000269: 35,2000                                           BNKSUM   35
000270:


000272:                                                                                                  #  MODULE 6 CONTAINS BANKS 36 THROUGH 43
000273:
000274: 36,2000                                           BANK     36
000275: 36,2000                        P40S               EQUALS
000276: 36,2000                                           BNKSUM   36
000277:
000278: 37,2000                                           BANK     37
000279: 37,2000                        P05P06             EQUALS
000280: 37,2000                        IMU2               EQUALS
000281: 37,2000                        IMU4               EQUALS
000282: 37,2000                        R31                EQUALS
000283: 37,2000                        IMUSUPER           EQUALS
000284: 37,2000                        SERV1              EQUALS
000285: 37,2000                                           BNKSUM   37
000286:
000287: 40,2000                                           BANK     40
000288: 40,2000                        PINBALL1           EQUALS
000289: 40,2000                        SELFSUPR           EQUALS
000290: 40,2000                        PINSUPER           EQUALS
000291: 40,2000                        R31LOC             EQUALS
000292: 40,2000                                           BNKSUM   40
000293:
000294: 41,2000                                           BANK     41
000295: 41,2000                        PINBALL2           EQUALS
000296: 41,2000                                           BNKSUM   41
000297:
000298: 42,2000                                           BANK     42
000299: 42,2000                        SBAND              EQUALS
000300: 42,2000                        PINBALL3           EQUALS
000301: 42,2000                                           BNKSUM   42
000302:
000303: 43,2000                                           BANK     43
000304: 43,2000                        EXTVERBS           EQUALS
000305: 43,2000                        SELFCHEC           EQUALS
000306: 43,2000                                           BNKSUM   43
000307:


000309:
000310: 43,2000  23,2521               HI6ZEROS           EQUALS   ZEROVECS                              #  ZERO VECTOR ALWAYS IN HIGH MEMORY
000311: 43,2000  12,2006               LO6ZEROS           EQUALS   ZEROVEC                               #  ZERO VECTOR ALWAYS IN LOW MEMORY
000312: 43,2000  23,2517               HIDPHALF           EQUALS   UNITX
000313: 43,2000  12,2004               LODPHALF           EQUALS   XUNIT
000314: 43,2000  23,2511               HIDP1/4            EQUALS   DP1/4TH
000315: 43,2000  04,3036               LODP1/4            EQUALS   D1/4                                  #  2DEC .25
000316: 43,2000  23,2517               HIUNITX            EQUALS   UNITX
000317: 43,2000  23,2515               HIUNITY            EQUALS   UNITY
000318: 43,2000  23,2513               HIUNITZ            EQUALS   UNITZ
000319: 43,2000  12,2004               LOUNITX            EQUALS   XUNIT                                 #  2DEC .5
000320: 43,2000  12,2002               LOUNITY            EQUALS   YUNIT                                 #  2DEC 0
000321: 43,2000  12,2000               LOUNITZ            EQUALS   ZUNIT                                 #  2DEC 0
000322:
000323: 43,2000  22,3541               DELRSPL            EQUALS   SPLRET                                #  COL PGM, ALSO CALLED BY R30 IN LUMINARY
000324:
000325:                                                                                                  #  ROPE-SPECIFIC ASSIGNS OBVIATING NEED TO CHECK COMPUTER FLAG IN DETERMINING INTEGRATION AREA ENTRIES.
000326:
000327: 43,2000  13,2734               ATOPTHIS           EQUALS   ATOPLEM
000328: 43,2000  13,2661               ATOPOTH            EQUALS   ATOPCSM
000329: 43,2000  13,3043               OTHPREC            EQUALS   CSMPREC
000330: 43,2000  0000174               MOONTHIS           EQUALS   LMOONFLG
000331: 43,2000  0000173               MOONOTH            EQUALS   CMOONFLG
000332: 43,2000  13,2747               MOVATHIS           EQUALS   MOVEALEM
000333: 43,2000  12,2017               RMM                =        LODPMAX
000334: 43,2000  12,2021               RME                =        LODPMAX1
000335: 43,2000  13,3057               THISPREC           EQUALS   LEMPREC
000336: 43,2000  23,2513               THISAXIS           =        UNITZ
000337: 43,2000  23,2513               NB1NB2             EQUALS   THISAXIS                              #  FOR R31
000338: 43,2000     5011               ERASID             EQUALS   BITS2-10                              #  DOWNLINK ERASABLE DUMP ID
000339: 43,2000     4752               DELAYNUM           EQUALS   TWO
000340:

End of include-file TAGS_FOR_RELATIVE_SETLOC_AND_BLANK_BANK_CARDS.agc.  Parent file is MAIN.agc


