
Source Code


000002:                                                                                                  ## Copyright:   Public domain.
000003:                                                                                                  ## Filename:    THE_LUNAR_LANDING.agc
000004:                                                                                                  ## Purpose:     A section of Luminary revision 97.
000005:                                                                                                  ##              It is part of the reconstructed source code for the
000006:                                                                                                  ##              original release of the flight software for the Lunar
000007:                                                                                                  ##              Module's (LM) Apollo Guidance Computer (AGC) for Apollo 11.
000008:                                                                                                  ##              The code has been recreated from a copy of Luminary 99
000009:                                                                                                  ##              revision 001, using asterisks indicating changed lines in
000010:                                                                                                  ##              the listing and Luminary Memos #83 and #85, which list
000011:                                                                                                  ##              changes between Luminary 97 and 98, and 98 and 99. The
000012:                                                                                                  ##              code has been adapted such that the resulting bugger words
000013:                                                                                                  ##              exactly match those specified for Luminary 97 in NASA drawing
000014:                                                                                                  ##              2021152D, which gives relatively high confidence that the
000015:                                                                                                  ##              reconstruction is correct.
000016:                                                                                                  ## Reference:   pp. 785-792
000017:                                                                                                  ## Assembler:   yaYUL
000018:                                                                                                  ## Contact:     Ron Burkey <info@sandroid.org>.
000019:                                                                                                  ## Website:     www.ibiblio.org/apollo/index.html
000020:                                                                                                  ## Mod history: 2019-07-28 MAS  Created from Luminary 99.
000021:


000023: 32,2776                                           BANK     32
000024: 32,2000                                           SETLOC   F2DPS*32
000025: 32,2000                                           BANK
000026:
000027: 32,2776  E7,1621                                  EBANK=   E2DPS
000028:
000029:                                                                                                  #        ****************************************
000030:                                                                                                  #        P63: THE LUNAR LANDING, BRAKING PHASE
000031:                                                                                                  #        ****************************************
000032:
000033: 32,2776                                           COUNT*   $$/P63
000034:
000035: 32,2776           05353        P63LM              TC       PHASCHNG
000036: 32,2777           04024                           OCT      04024
000037:
000038: 32,3000           04616                           TC       BANKCALL                              #  DO IMU STATUS CHECK ROUTINE R02
000039: 32,3001           11254                           CADR     R02BOTH
000040:
000041: 32,3002           33253                           CAF      P63ADRES                              #  INITIALIZE WHICH FOR BURNBABY
000042: 32,3003           55455                           TS       WHICH
000043:
000044: 32,3004           32000                           CAF      DPSTHRSH                              #  INITIALIZE DVMON
000045: 32,3005           55251                           TS       DVTHRUSH
000046: 32,3006           34751                           CAF      FOUR
000047: 32,3007           55515                           TS       DVCNTR
000048:
000049: 32,3010           44753                           CS       ONE                                   #  INITIALIZE WCHPHASE AND FLPASSO
000050: 32,3011           55351                           TS       WCHPHASE
000051:
000052: 32,3012           34755                           CA       ZERO
000053: 32,3013           55623                           TS       FLPASS0
000054:
000055: 32,3014           44736                           CS       BIT14
000056: 32,3015           00006                           EXTEND
000057: 32,3016           03012                           WAND     CHAN12                                #  REMOVE TRACK-ENABLE DISCRETE.
000058:
000059: 32,3017           06037        FLAGORGY           TC       INTPRET                               #  DIONYSIAN FLAG WAVING
000060: 32,3020           43014                           CLEAR    CLEAR
000061: 32,3021           02663                                    NOTHROTL
000062: 32,3022           03271                                    REDFLAG
000063: 32,3023           43014                           CLEAR    SET
000064: 32,3024           05660                                    LRBYPASS
000065: 32,3025           03067                                    MUNFLAG
000066: 32,3026           43014                           CLEAR    CLEAR
000067: 32,3027           00266                                    P25FLAG                               #  TERMINATE P25 IF IT IS RUNNING.
000068: 32,3030           00270                                    RNDVZFLG                              #  TERMINATE P20 IF IT IS RUNNING
000069:
000070:                                                                                                  #  ****************************************
000071:
000072: 32,3031           77201        IGNALG             SETPD    VLOAD                                 #  FIRST SET UP INPUTS FOR RP-TO-R:-


000074: 32,3032           00001                                    0                                     #        AT 0D LANDING SITE IN MOON FIXED FRAME
000075: 32,3033           02023                                    RLS                                   #        AT 6D ESTIMATED TIME OF LANDING
000076: 32,3034           41525                           PDDL     PUSH                                  #        MPAC NON-ZERO TO INDICATE LUNAR CASE
000077: 32,3035           02401                                    TLAND
000078: 32,3036           37625                           STCALL   TPIP                                  #  ALSO SET TPIP FOR FIRST GUIDANCE PASS
000079: 32,3037           55716                                    RP-TO-R
000080: 32,3040           64312                           VSL4     MXV
000081: 32,3041           01734                                    REFSMMAT
000082: 32,3042           37635                           STCALL   LAND
000083: 32,3043           46432                                    GUIDINIT                              #  GUIDINIT INITIALIZES WM AND /LAND/
000084: 32,3044           45345                           DLOAD    DSU
000085: 32,3045           02401                                    TLAND
000086: 32,3046           25260                                    GUIDDURN
000087: 32,3047           34041                           STCALL   TDEC1                                 #  INTEGRATE STATE FORWARD TO THAT TIME
000088: 32,3050           27057                                    LEMPREC
000089: 32,3051           77331                           SSP      VLOAD
000090: 32,3052           03647                                    NIGNLOOP
000091: 32,3053           00050                                    40D
000092: 32,3054           06520                                    UNITX
000093: 32,3055           26603                           STOVL    CG
000094: 32,3056           06516                                    UNITY
000095: 32,3057           26611                           STOVL    CG         +6
000096: 32,3060           06514                                    UNITZ
000097: 32,3061           16617                           STODL    CG         +14
000098: 32,3062           25256                                    99999CON
000099: 32,3063           27665                           STOVL    DELTAH                                #  INITIALIZE DELTAH FOR V16N68 DISPLAY
000100: 32,3064           06522                                    ZEROVECS
000101: 32,3065           17254                           STODL    UNFC/2                                #  INITIALIZE TRIM VELOCITY CORRECTION TERM
000102: 32,3066           06522                                    HI6ZEROS
000103: 32,3067           03643                           STORE    TTF/8
000104:
000105: 32,3070           77745        IGNALOOP           DLOAD
000106: 32,3071           00015                                    TAT
000107: 32,3072           27561                           STOVL    PIPTIME1
000108: 32,3073           00017                                    RATT1
000109: 32,3074           64312                           VSL4     MXV
000110: 32,3075           01734                                    REFSMMAT
000111: 32,3076           37521                           STCALL   R
000112: 32,3077           67130                                    MUNGRAV
000113: 32,3100           35237                           STCALL   GDT/2
000114: 32,3101           62454                                    ?GUIDSUB                              #  WHICH DELIVERS N PASSES OF GUIDANCE
000115:
000116:                                                                                                  #  DDUMCALC IS PROGRAMMED AS FOLLOWS:-
000117:                                                                                                  #                                          2                                           -
000118:                                                                                                  #               (RIGNZ - RGU )/16 + 16(RGU  )KIGNY/B8 + (RGU - RIGNX)KIGNX/B4 + (ABVAL(VGU) - VIGN)KIGNV/B4
000119:                                                                                                  #                           2             1                 0
000120:                                                                                                  #        DDUM = -------------------------------------------------------------------------------------------
000121:                                                                                                  #                                                 10
000122:                                                                                                  #                                                2   (VGU - 16 VGU KIGNX/B4)


000124:                                                                                                  #                                                        2        0
000125:                                                                                                  #  THE NUMERATOR IS SCALED IN METERS AT 2(28).  THE DENOMINATOR IS A VELOCITY IN UNITS OF 2(10) M/CS.
000126:                                                                                                  #  THE QUOTIENT IS THUS A TIME IN UNITS OF 2(18) CENTISECONDS.  THE FINAL SHIFT RESCALES TO UNITS OF 2(28) CS.
000127:                                                                                                  #  THERE IS NO DAMPING FACTOR.  THE CONSTANTS KIGNX/B4, KIGNY/B8 AND KIGNV/B4 ARE ALL NEGATIVE IN SIGN.
000128:
000129: 32,3102           55646        DDUMCALC           TS       NIGNLOOP
000130: 32,3103           06037                           TC       INTPRET
000131: 32,3104           57345                           DLOAD    DMPR                                  #  FORM DENOMINATOR FIRST
000132: 32,3105           03627                                    VGU
000133: 32,3106           02501                                    KIGNX/B4
000134: 32,3107           44232                           SL4R     BDSU
000135: 32,3110           03633                                    VGU        +4
000136: 32,3111           45325                           PDDL     DSU
000137: 32,3112           02477                                    RIGNZ
000138: 32,3113           02643                                    RGU        +4
000139: 32,3114           65222                           SR4R     PDDL
000140: 32,3115           02641                                    RGU        +2
000141: 32,3116           57316                           DSQ      DMPR
000142: 32,3117           02503                                    KIGNY/B8
000143: 32,3120           65232                           SL4R     PDDL
000144: 32,3121           02637                                    RGU
000145: 32,3122           57225                           DSU      DMPR
000146: 32,3123           02475                                    RIGNX
000147: 32,3124           02501                                    KIGNX/B4
000148: 32,3125           51515                           PDVL     ABVAL
000149: 32,3126           03627                                    VGU
000150: 32,3127           57225                           DSU      DMPR
000151: 32,3130           02473                                    VIGN
000152: 32,3131           02505                                    KIGNV/B4
000153: 32,3132           43215                           DAD      DAD
000154: 32,3133           56215                           DAD      DDV
000155: 32,3134           77661                           SRR
000156: 32,3135           21613                                    10D
000157:
000158: 32,3136           43206                           PUSH     DAD
000159: 32,3137           03561                                    PIPTIME1
000160: 32,3140           14041                           STODL    TDEC1                                 #  STORE NEW GUESS FOR NEXT INTEGRATION
000161: 32,3141           45246                           ABS      DSU
000162: 32,3142           25262                                    DDUMCRIT
000163: 32,3143           45040                           BMN      CALL
000164: 32,3144           65163                                    DDUMGOOD
000165: 32,3145           27414                                    INTSTALL
000166: 32,3146           43014                           SET      SET
000167: 32,3147           01473                                    INTYPFLG
000168: 32,3150           00063                                    MOONFLAG
000169: 32,3151           77745                           DLOAD
000170: 32,3152           03561                                    PIPTIME1
000171: 32,3153           25517                           STOVL    TET                                   #  HOPEFULLY ?GUIDSUB DID NOT
000172: 32,3154           00017                                    RATT1                                 #        CLOBBER RATT1 AND VATT1


000174: 32,3155           25535                           STOVL    RCV
000175: 32,3156           00025                                    VATT1
000176: 32,3157           35543                           STCALL   VCV
000177: 32,3160           27107                                    INTEGRVS
000178: 32,3161           77650                           GOTO
000179: 32,3162           65070                                    IGNALOOP
000180:
000181: 32,3163           54335        DDUMGOOD           SLOAD    SR
000182: 32,3164           03423                                    ZOOMTIME
000183: 32,3165           20617                                    14D
000184: 32,3166           77621                           BDSU
000185: 32,3167           00041                                    TDEC1
000186: 32,3170           27442                           STOVL    TIG                                   #  COMPUTE DISTANCE LANDING SITE WILL BE
000187: 32,3171           03527                                    V                                     #        OUT OF LM'S ORBITAL PLANE AT IGNITION:
000188: 32,3172           53435                           VXV      UNIT                                  #        SIGN IS + IF LANDING SITE IS TO THE
000189: 32,3173           03521                                    R                                     #        RIGHT, NORTH; - IF TO THE LEFT, SOUTH.
000190: 32,3174           72441                           DOT      SL1
000191: 32,3175           03635                                    LAND
000192: 32,3176           26627        R60INIT            STOVL    OUTOFPLN                              #  INITIALIZATION FOR CALCMANU
000193: 32,3177           03254                                    UNFC/2
000194: 32,3200           02631                           STORE    R60VSAVE                              #  STORE UNFC/2 TEMPORARILY IN R60SAVE
000195: 32,3201           77776                           EXIT
000196:                                                                                                  #  ****************************************
000197:
000198: 32,3202           05353        IGNALGRT           TC       PHASCHNG                              #  PREVENT REPEATING IGNALG
000199: 32,3203           04024                           OCT      04024
000200:
000201: 32,3204           44362        ASTNCLOK           CS       ASTNDEX
000202: 32,3205           04616                           TC       BANKCALL
000203: 32,3206           74664                           CADR     STCLOK2
000204: 32,3207           15155                           TCF      ENDOFJOB                              #  RETURN IN NEW JOB AND IN EBANK FIVE
000205:
000206: 32,3210           06037        ASTNRET            TC       INTPRET
000207: 32,3211           47131                           SSP      RTB                                   #  GO PICK UP DISPLAY AT END OF R51:
000208: 32,3212           02747                                    QMAJ                                  #        "PROCEED" WILL DO A FINE ALIGNMENT
000209: 32,3213           65215                           FCADR    P63SPOT2                              #        "ENTER" WILL RETURN TO P63SPOT2
000210: 32,3214           31135                                    R51P63
000211: 32,3215           53575        P63SPOT2           VLOAD    UNIT                                  #  INITIALIZE KALCMANU FOR BURN ATTITUDE
000212: 32,3216           02631                                    R60VSAVE
000213: 32,3217           27773                           STOVL    POINTVSM
000214: 32,3220           06520                                    UNITX
000215: 32,3221           03765                           STORE    SCAXIS
000216: 32,3222           77776                           EXIT
000217:
000218: 32,3223           35016                           CAF      EBANK7
000219: 32,3224           54003                           TS       EBANK
000220:
000221: 32,3225           00004                           INHINT
000222: 32,3226           04674                           TC       IBNKCALL
000223: 32,3227           40142                           CADR     PFLITEDB


000225: 32,3230           00003                           RELINT
000226:
000227: 32,3231           04616                           TC       BANKCALL
000228: 32,3232           54123                           CADR     R60LEM
000229:
000230: 32,3233           05353                           TC       PHASCHNG                              #  PREVENT RECALLING R60
000231: 32,3234           04024                           OCT      04024
000232:
000233: 32,3235           34746        P63SPOT3           CA       BIT6                                  #  IS THE LR ANTENNA IN POSITION 1 YET
000234: 32,3236           00006                           EXTEND
000235: 32,3237           02033                           RAND     CHAN33
000236: 32,3240           00006                           EXTEND
000237: 32,3241           13247                           BZF      P63SPOT4                              #  BRANCH IF ANTENNA ALREADY IN POSITION 1
000238:
000239: 32,3242           33254                           CAF      CODE500                               #  ASTRONAUT:    PLEASE CRANK THE
000240: 32,3243           04616                           TC       BANKCALL                              #                SILLY THING AROUND
000241: 32,3244           20623                           CADR     GOPERF1
000242: 32,3245           16001                           TCF      GOTOPOOH                              #  TERMINATE
000243: 32,3246           13235                           TCF      P63SPOT3                              #  PROCEED       SEE IF HE'S LYING
000244:
000245: 32,3247           04616        P63SPOT4           TC       BANKCALL                              #  ENTER         INITIALIZE LANDING RADAR
000246: 32,3250           67701                           CADR     SETPOS1
000247:
000248: 32,3251           04635                           TC       POSTJUMP                              #  OFF TO SEE THE WIZARD ...
000249: 32,3252           74126                           CADR     BURNBABY
000250:
000251:                                                                                                  #        ----------------------------------------
000252:
000253:                                                                                                  #  CONSTANTS FOR P63LM AND IGNALG
000254:
000255: 32,3253           02076        P63ADRES           GENADR   P63TABLE
000256:
000257: 32,3254     4362               ASTNDEX            =        MD1                                   #  OCT 25; INDEX FOR CLOKTASK
000258:
000259: 32,3254           00500        CODE500            OCT      00500
000260:
000261: 32,3255           00035 30373  99999CON           2DEC     30479.7    B-24
000262:
000263: 32,3257           00004 01610  GUIDDURN           2DEC     +66440     B-28                       #  GUIDDURN +6.64400314 E+2
000264: 32,3261           00000 00010  DDUMCRIT           2DEC     +8         B-28                       #  CRITERION FOR IGNALG CONVERGENCE
000265:


000267:                                                                                                  #        ----------------------------------------
000268:


000270:                                                                                                  #        ****************************************
000271:                                                                                                  #        P68: LANDING CONFIRMATION
000272:                                                                                                  #        ****************************************
000273:
000274: 31,2144                                           BANK     31
000275: 31,2000                                           SETLOC   F2DPS*31
000276: 31,2000                                           BANK
000277:
000278: 31,2144                                           COUNT*   $$/P6567
000279:
000280: 31,2144           05353        LANDJUNK           TC       PHASCHNG
000281: 31,2145           04024                           OCT      04024
000282:
000283: 31,2146           00004                           INHINT
000284: 31,2147           04616                           TC       BANKCALL                              #  ZERO ATTITUDE ERROR
000285: 31,2150           40153                           CADR     ZATTEROR
000286:
000287: 31,2151           04616                           TC       BANKCALL                              #  SET 5 DEGREE DEADBAND
000288: 31,2152           40127                           CADR     SETMAXDB
000289:
000290: 31,2153           06037                           TC       INTPRET                               #  TO INTERPRETIVE AS TIME IS NOT CRITICAL
000291: 31,2154           43014                           SET      CLEAR
000292: 31,2155           04067                                    SURFFLAG
000293: 31,2156           04666                                    LETABORT
000294: 31,2157           77214                           SET      VLOAD
000295: 31,2160           05062                                    APSFLAG
000296: 31,2161           01221                                    RN
000297: 31,2162           16032                           STODL    ALPHAV
000298: 31,2163           01235                                    PIPTIME
000299: 31,2164           45014                           SET      CALL
000300: 31,2165           01463                                    LUNAFLAG
000301: 31,2166           26351                                    LAT-LONG
000302: 31,2167           77201                           SETPD    VLOAD                                 #  COMPUTE RLS AND STORE IT AWAY
000303: 31,2170           00001                                    0
000304: 31,2171           01221                                    RN
000305: 31,2172           65352                           VSL2     PDDL
000306: 31,2173           01235                                    PIPTIME
000307: 31,2174           45006                           PUSH     CALL
000308: 31,2175           51670                                    R-TO-RP
000309: 31,2176           02023                           STORE    RLS
000310: 31,2177           77776                           EXIT
000311: 31,2200           32215                           CAF      V06N43*                               #  ASTRONAUT:  NOW LOOK WHERE YOU ENDED UP
000312: 31,2201           04616                           TC       BANKCALL
000313: 31,2202           20476                           CADR     GOFLASH
000314: 31,2203           16001                           TCF      GOTOPOOH                              #  TERMINATE
000315: 31,2204           12206                           TCF      +2                                    #  PROCEED
000316: 31,2205           12200                           TCF      -5                                    #  RECYCLE
000317:
000318: 31,2206           06037                           TC       INTPRET


000320: 31,2207           77775                           VLOAD                                          #  INITIALIZE GSAV AND (USING REFMF)
000321: 31,2210           06520                                    UNITX                                 #  YNBSAV, ZNBSAV AND ATTFLAG FOR P57
000322: 31,2211           36231                           STCALL   GSAV
000323: 31,2212           33506                                    REFMF
000324: 31,2213           77776                           EXIT
000325:
000326: 31,2214           16001                           TCF      GOTOPOOH                              #  ASTRONAUT:  PLEASE SELECT P57
000327:
000328: 31,2215           01453        V06N43*            VN       0643
000329:

End of include-file THE_LUNAR_LANDING.agc.  Parent file is MAIN.agc


