
Source Code


000002:                                                                                                  ## Copyright:   Public domain.
000003:                                                                                                  ## Filename:    UPDATE_PROGRAM.agc
000004:                                                                                                  ## Purpose:     A section of Luminary revision 97.
000005:                                                                                                  ##              It is part of the reconstructed source code for the
000006:                                                                                                  ##              original release of the flight software for the Lunar
000007:                                                                                                  ##              Module's (LM) Apollo Guidance Computer (AGC) for Apollo 11.
000008:                                                                                                  ##              The code has been recreated from a copy of Luminary 99
000009:                                                                                                  ##              revision 001, using asterisks indicating changed lines in
000010:                                                                                                  ##              the listing and Luminary Memos #83 and #85, which list
000011:                                                                                                  ##              changes between Luminary 97 and 98, and 98 and 99. The
000012:                                                                                                  ##              code has been adapted such that the resulting bugger words
000013:                                                                                                  ##              exactly match those specified for Luminary 97 in NASA drawing
000014:                                                                                                  ##              2021152D, which gives relatively high confidence that the
000015:                                                                                                  ##              reconstruction is correct.
000016:                                                                                                  ## Reference:   pp. 1386-1396
000017:                                                                                                  ## Assembler:   yaYUL
000018:                                                                                                  ## Contact:     Ron Burkey <info@sandroid.org>.
000019:                                                                                                  ## Website:     www.ibiblio.org/apollo/index.html
000020:                                                                                                  ## Mod history: 2019-07-28 MAS  Created from Luminary 99.
000021:                                                                                                  ##              2021-05-30 ABS  DELTAOK -> DELTATOK
000022:


000024:                                                                                                  #  PROGRAM NAME:         P27
000025:                                                                                                  #  WRITTEN BY:           KILROY/ DE WOLF
000026:
000027:                                                                                                  #  MOD NO:               6
000028:                                                                                                  #  MOD BY:               KILROY
000029:                                                                                                  #  DATE:                 01DEC67
000030:
000031:                                                                                                  #  LOG SECTION:          UPDATE PROGRAM.
000032:
000033:                                                                                                  #  FUNCT. DESCR:         P27 (THE UPDATE PROGRAM) PROCESSES COMMANDS AND DATA
000034:                                                                                                  #                        INSERTIONS REQUESTED BY THE GROUND VIA UPLINK.
000035:                                                                                                  #                        THE P27 PROGRAM WILL ACCEPT UPDATES
000036:                                                                                                  #                        ONLY DURING P00 FOR THE LM, AND ONLY DURING P00,
000037:                                                                                                  #                        P02, AND FRESH START FOR THE CSM
000038:
000039:                                                                                                  #  CALLING SEQ:          PROGRAM IS INITIATED BY UPLINK ENTRY OF VERBS 70, 71, 72 AND 73.
000040:
000041:                                                                                                  #  SUBROUTINES:          TESTXACT, NEWMODEX, NEWMODEX +3, GOXDSPF, BANKCALL, FINDVAC, INTPRET, INTSTALL, TPAGREE,
000042:                                                                                                  #                        INTWAKEU, ENDEXT, POSTJUMP, FALTON, NEWPHASE, PHASCHNG
000043:
000044:                                                                                                  #  NORMAL EXIT:          TC ENDEXT
000045:
000046:                                                                                                  #  ALARM/ABORT:          TC FALTON FOLLOWED BY TC ENDEXT
000047:
000048:                                                                                                  #  RESTARTS:             P27 IS RESTART PROTECTED IN TWO WAYS ...
000049:                                                                                                  #                        1.      PRIOR TO VERIFLAG INVERSION (WHICH IS CAUSED BY THE GROUND/ASTRONAUT'S VERIFICATION OF UPDATE
000050:                                                                                                  #                                DATA BY SENDING A V33E WHEN V21N02 IS FLASHING)---
000051:                                                                                                  #                                NO PROTECTION EXCEPT PRE-P27 MODE IS RESTORED, COAST + ALIGN DOWNLIST IS SELECTED AND UPLINK
000052:                                                                                                  #                                ACTIVITY LIGHT IS TURNED OFF.  (JUST AS IF A V34E WAS SENT DURING P27 DATA LOADS).
000053:                                                                                                  #                                V70,V71,V72 OR V73 WILL HAVE TO BE COMPLETELY RESENT BY USER.
000054:                                                                                                  #                        2.      AFTER VERIFLAG INVERSION (WHEN UPDATE OF THE SPECIFIED ERASABLES IS BEING PERFORMED)---
000055:                                                                                                  #                                PROTECTED AGAINST RESTARTS.
000056:
000057:                                                                                                  #  DEBRIS:               UPBUFF  (20D)   TEMP STORAGE FOR ADDRESSES AND CONTENTS.
000058:                                                                                                  #                        UPVERB  (1)     VERB NUMBER MINUS 70D (E.G. FOR V72, UPVERB = 72D - 70D = 2)
000059:                                                                                                  #                        UPOLDMOD(1)     FOR MAJOR MODE INTERRUPTED BY P27.
000060:                                                                                                  #                        COMPNUMB(1)     TOTAL NUMBER OF COMPONENTS TO BE TRANSMITTED.
000061:                                                                                                  #                        UPCOUNT (1)     ACTUAL NUMBER OF COMPONENTS RECEIVED.
000062:                                                                                                  #                        UPTEMP  (1)     SCRATCH, BUT USUALLY CONTAINS COMPONENT NUMBER TO BE CHANGED DURING VERIFY CYCLE
000063:
000064:                                                                                                  #  INPUT:
000065:
000066:                                                                                                  #        ENTRY:                  DESCRIPTION
000067:                                                                                                  #        V70EXXXXXEXXXXXE        (LIFTOFF TIME INCREMENT) DOUBLE PRECISION OCTAL TIME INCREMENT, XXXXX XXXXX,
000068:                                                                                                  #                                IS ADDED TO TEPHEM, SUBTRACTED FROM AGC CLOCK(TIME2,TIME1), SUBTRACTED FROM CSM STATE
000069:                                                                                                  #                                VECTOR TIME(TETCSM) AND SUBTRACTED FROM LEM STATE VECTOR TIME(TETLEM).
000070:                                                                                                  #                                THE DP OCTAL TIME INCREMENT IS SCALED AT 2(28).


000072:                                                                                                  #        V71EIIEAAAAE            (CONTIGUOUS BLOCK UPDATE) II-2 OCTAL COMPONENTS, XXXXX,
000073:                                                                                                  #        XXXXXE                  ARE LOADED INTO ERASABLE STARTING AT ECADR, AAAA.
000074:                                                                                                  #        XXXXXE                  IT IS .GE. 3 .AND. .LE. 20D.,
000075:                                                                                                  #                                AND (AAAA + II -3) DOES NOT PRODUCE AN ADDRESS IN THE
000076:                                                                                                  #        9 NEXT BANK
000077:                                                                                                  #          .                     SCALING IS SAME AS INTERNAL REGISTERS.
000078:                                                                                                  #        V72EIIE                 (SCATTER UPDATE) (II-1)/2 OCTAL COMPONENTS, XXXXX, ARE
000079:                                                                                                  #        AAAAEXXXXXE             LOADED INTO ERASABLE LOCATIONS, AAAA.
000080:                                                                                                  #        AAAAEXXXXXE             II IS .GE. 3 .AND. .LE. 19D, AND MUST BE ODD.
000081:                                                                                                  #          .                     SCALING IS SAME AS INTERNAL REGISTERS.
000082:
000083:                                                                                                  #        V73EXXXXXEXXXXXE        (OCTAL CLOCK INCREMENT) DOUBLE PRECISION OCTAL TIME
000084:                                                                                                  #                                INCREMENT XXXXX XXXXX, IS ADDED TO THE AGC CLOCK, IN
000085:                                                                                                  #                                CENTISECONDS SCALED AT (2)28.
000086:                                                                                                  #                                THIS LOAD IS THE OCTAL EQUIVALENT OF V55.
000087:
000088:                                                                                                  #  OUTPUT:               IN ADDITION TO THE ABOVE REGISTER LOADS, ALL UPDATES
000089:                                                                                                  #                        COMPLEMENT BIT3 OF FLAGWORD7.
000090:
000091:                                                                                                  #  ADDITIONAL NOTES:     VERB 71, JUST DEFINED ABOVE WILL BE USED TO PERFORM BUT NOT LIMITED TO THE FOLLOWING UPDATES --
000092:                                                                                                  #                        1.  CSM/LM STATE VECTOR UPDATE
000093:                                                                                                  #                        2.  REFSMMAT UPDATE
000094:
000095:                                                                                                  #        THE FOLLOWING COMMENTS DELINEATE EACH SPECIAL UPDATE ----
000096:
000097:                                                                                                  #        1.  CSM/LM STATE VECTOR UPDATE (ALL DATA ENTRIES IN OCTAL)
000098:                                                                                                  #                ENTRIES:        DATA DEFINITION:                                SCALE FACTORS:
000099:                                                                                                  #                V71E            CONTIGUOUS BLOCK UPDATE VERB
000100:                                                                                                  #                   21E          NUMBER OF COMPONENTS FOR STATE VECTOR UPDATE
000101:                                                                                                  #                 AAAAE          ECADR OF 'UPSVFLAG'
000102:                                                                                                  #                XXXXXE          STATE VECTOR IDENTIFIER: 00001 FOR CSM, 77776 FOR LEM - EARTH SPHERE OF INFLUENCE SCALING
000103:                                                                                                  #                                                         00002 FOR CSM, 77775 FOR LEM - LUNAR SPHERE OF INFLUENCE SCALING
000104:                                                                                                  #                XXXXXEXXXXXE    X POSITION
000105:                                                                                                  #                XXXXXEXXXXXE    Y POSITION
000106:                                                                                                  #                XXXXXEXXXXXE    Z POSITION
000107:                                                                                                  #                XXXXXEXXXXXE    X VELOCITY
000108:                                                                                                  #                XXXXXEXXXXXE    Y VELOCITY
000109:                                                                                                  #                XXXXXEXXXXXE    Z VELOCITY
000110:                                                                                                  #                XXXXXEXXXXXE    TIME FROM AGC CLOCK ZERO
000111:                                                                                                  #                V33E            VERB 33 TO SIGNAL THAT THE STATE VECTOR IS READY TO BE STORED.
000112:
000113:                                                                                                  #        2.  REFSMMAT (ALL DATA ENTRIES IN OCTAL)
000114:                                                                                                  #                ENTRIES:        DATA DEFINITIONS:                               SCALE FACTORS:


000116:                                                                                                  #                V71E            CONTIGUOUS BLOCK UPDATE VERB
000117:                                                                                                  #                   24E          NUMBER OF COMPONENTS FOR REFSMMAT UPDATE
000118:                                                                                                  #                 AAAAE          ECADR OF 'REFSMMAT'
000119:                                                                                                  #                XXXXXEXXXXXE    ROW 1 COLUMN 1                                  2(-1)
000120:                                                                                                  #                XXXXXEXXXXXE    ROW 1 COLUMN 2                                  2(-1)
000121:                                                                                                  #                XXXXXEXXXXXE    ROW 1 COLUMN 3                                  2(-1)
000122:                                                                                                  #                XXXXXEXXXXXE    ROW 2 COLUMN 1                                  2(-1)
000123:                                                                                                  #                XXXXXEXXXXXE    ROW 2 COLUMN 2                                  2(-1)
000124:                                                                                                  #                XXXXXEXXXXXE    ROW 2 COLUMN 3                                  2(-1)
000125:                                                                                                  #                XXXXXEXXXXXE    ROW 3 COLUMN 1                                  2(-1)
000126:                                                                                                  #                XXXXXEXXXXXE    ROW 3 COLUMN 2                                  2(-1)
000127:                                                                                                  #                XXXXXEXXXXXE    ROW 3 COLUMN 3                                  2(-1)
000128:                                                                                                  #                V33E            VERB 33 TO SIGNAL THAT REFSMMAT IS READY TO BE STORED.
000129:
000130:
000131:
000132: 07,3773                                           BANK     07
000133: 43,2000                                           SETLOC   EXTVERBS
000134: 43,2000                                           BANK
000135:
000136: 43,3724  E3,1706                                  EBANK=   TEPHEM
000137:
000138: 43,3724                                           COUNT*   $$/P27
000139: 43,3724           34755        V70UPDAT           CAF      UP70                                  #  COMES HERE ON V70E
000140: 43,3725           13733                           TCF      V73UPDAT   +1
000141:
000142: 43,3726           34753        V71UPDAT           CAF      UP71                                  #  COMES HERE ON V71E
000143: 43,3727           13733                           TCF      V73UPDAT   +1
000144:
000145: 43,3730           34752        V72UPDAT           CAF      UP72                                  #  COMES HERE ON V72E
000146: 43,3731           13733                           TCF      V73UPDAT   +1
000147:
000148: 43,3732           36245        V73UPDAT           CAF      UP73                                  #  COMES HERE ON V73E
000149:
000150: 43,3733           55166                 +1        TS       UPVERBSV                              #  SAVE UPVERB UNTIL IT'S OK TO ENTER P27
000151:
000152: 43,3734           02076                           TC       TESTXACT                              #  GRAB DISPLAY IF AVAILABLE, OTHERWISE
000153:                                                                                                  #  TURN*OPERATOR ERROR* ON AND TERMINATEJOB
000154:
000155: 43,3735           31011                           CA       MODREG                                #  CHECK IF UPDATE ALLOWED
000156: 43,3736           00006                           EXTEND                                         #  FIRST CHECK FOR MODREG = +0, -0
000157: 43,3737           13742                           BZF      +3                                    #  (+0 = P00, -0 = FRESHSTART)
000158: 43,3740           04635        UPERROR            TC       POSTJUMP                              #  TURN ON 'OPERATOR ERROR' LIGHT
000159: 43,3741           11762                           CADR     UPERROUT   +2                         #  GO TO COMMON UPDATE PROGRAM EXIT
000160:
000161: 43,3742           31011                           CAE      MODREG                                #  UPDATE ALLOWED.
000162: 43,3743  43,3740               CKMDMORE           =        UPERROR
000163: 43,3743           55171                           TS       UPOLDMOD                              #  SAVE CURRENT MAJOR MODE


000165: 43,3744           31166                           CAE      UPVERBSV                              #  SET UPVERB TO INDICATE TO P27
000166:
000167: 43,3745           55172                           TS       UPVERB                                #  WHICH EXTENDED VERB CALLED IT.
000168:
000169: 43,3746           34753                           CAF      ONE
000170: 43,3747           55173                           TS       UPCOUNT                               #  INITIALIZE UPCOUNT TO 1
000171:
000172: 43,3750           04635                           TC       POSTJUMP                              #  LEAVE EXTENDED VERB BANK AND
000173: 43,3751           11401                           CADR     UPPART2                               #  GO TO UPDATE PROGRAM (P27) BANK.
000174:
000175: 43,3752     4755               UP70               EQUALS   ZERO
000176: 43,3752     4753               UP71               EQUALS   ONE
000177: 43,3752     4752               UP72               EQUALS   TWO
000178: 43,3752     6245               UP73               EQUALS   THREE
000179:
000180: 04,3401                                           BANK     04
000181: 04,2000                                           SETLOC   UPDATE2
000182: 04,2000                                           BANK
000183:
000184: 04,3401                                           COUNT*   $$/P27
000185:
000186: 04,3401                        UPPART2            EQUALS                                         #  UPDATE PROGRAM - PART 2
000187:
000188: 04,3401           05353                           TC       PHASCHNG                              #  SET RESTART GROUP 6 TO RESTORE OLD MODE
000189: 04,3402           07026                           OCT      07026                                 #  AND DOWNLIST AND EXIT IF RESTART OCCURS.
000190: 04,3403           30000                           OCT      30000                                 #  PRIORITY SAME AS CHRPRIO
000191: 04,3404     1174                                  EBANK=   UPBUFF
000192: 04,3404           03712 10102                     2CADR    UPOUT      +1
000193:
000194: 04,3406           34753                           CAF      ONE
000195: 04,3407           54332                           TS       DNLSTCOD                              #  DOWNLIST
000196:
000197: 04,3410           05311                           TC       NEWMODEX                              #  SET MAJOR MODE = 27
000198: 04,3411           00033                           DEC      27         B-14
000199:
000200: 04,3412           51172                           INDEX    UPVERB                                #  BRANCH DEPENDING ON WHETHER THE UPDATE
000201: 04,3413           13414                           TCF      +1                                    #  VERB REQUIRES A FIXED OR VARIABLE NUMBER
000202: 04,3414           13417                           TCF      +3                                    #  V70 FIXED.               (OF COMPONENTS.
000203: 04,3415           13422                           TCF      OHWELL1                               #  V71 VARIABLE - GO GET NO. OF COMPONENTS
000204: 04,3416           13422                           TCF      OHWELL1                               #  V72 VARIABLE - GO GET NO. OF COMPONENTS
000205: 04,3417           34752                           CA       TWO                                   #  V73 (AND V70) FIXED
000206: 04,3420           55170                           TS       COMPNUMB                              #  SET NUMBER OF COMPONENTS TO 2.
000207: 04,3421           13445                           TCF      OHWELL2                               #  GO GET THE TWO UPDATE COMPONENTS
000208:
000209: 04,3422           33515        OHWELL1            CAF      ADUPBUFF                              #  * REQUEST USER TO SEND NUMBER *
000210: 04,3423           54156                           TS       MPAC       +2                         #  * OF COMPONENTS PARAMETER(II).*
000211: 04,3424           33516                 +2        CAF      UPLOADNV                              #  (CK4V32 RETURNS HERE IF V32 ENCOUNTERED)
000212: 04,3425           04616                           TC       BANKCALL                              #  DISPLAY A FLASHING V21N01


000214: 04,3426           20334                           CADR     GOXDSPF                               #  TO REQUEST II.
000215:
000216: 04,3427           13712                           TCF      UPOUT4                                #  V34 TERMINATE UPDATE (P27) RETURN
000217: 04,3430           13424                           TCF      OHWELL1    +2
000218: 04,3431           03506                           TC       CK4V32                                #  DATA OR V32 RETURN
000219: 04,3432           44752                           CS       BIT2
000220: 04,3433           61174                           AD       UPBUFF                                #  IS II (NUMBER OF COMPONENTS PARAMETER)
000221: 04,3434           00006                           EXTEND                                         #  .GE. 3 AND .LE. 20D.
000222: 04,3435           63424                           BZMF     OHWELL1    +2
000223: 04,3436           41174                           CS       UPBUFF
000224: 04,3437           64362                           AD       UP21
000225: 04,3440           00006                           EXTEND
000226: 04,3441           63424                           BZMF     OHWELL1    +2
000227: 04,3442           31174                           CAE      UPBUFF
000228: 04,3443           55170                           TS       COMPNUMB                              #  SAVE II IN COMPNUMB
000229:
000230:                                                                                                  #  UPBUFF LOADING SEQUENCE
000231:
000232: 04,3444           25173                           INCR     UPCOUNT                               #  INCREMENT COUNT OF COMPONENTS RECEIVED.
000233: 04,3445           33662        OHWELL2            CAF      ADUPBFM1                              #  CALCULATE LOCATION (ECADR) IN UPBUFF
000234: 04,3446           61173                           AD       UPCOUNT                               #  WHERE NEXT COMPONENT SHOULD BE STORED.
000235: 04,3447           54156                 +2        TS       MPAC       +2                         #  PLACE ECADR INTO R3.
000236: 04,3450           33516                 +3        CAF      UPLOADNV                              #  (CK4V32 RETURNS HERE IF V32 ENCOUNTERED)
000237: 04,3451           04616                           TC       BANKCALL                              #  DISPLAY A FLASHING V21N01
000238: 04,3452           20334                           CADR     GOXDSPF                               #  TO REQUEST DATA.
000239: 04,3453           13712                           TCF      UPOUT4                                #  V34 TERMINATE UPDATE (P27) RETURN.
000240: 04,3454           13450                           TCF      OHWELL2    +3                         #  V33 PROCEED RETURN
000241: 04,3455           03506                           TC       CK4V32                                #  DATA OR V32 RETURN
000242: 04,3456           41173                           CS       UPCOUNT                               #  HAVE WE FINISHED RECEIVING ALL
000243: 04,3457           61170                           AD       COMPNUMB                              #  THE DATA WE EXPECTED.
000244: 04,3460           00006                           EXTEND
000245: 04,3461           63463                           BZMF     UPVERIFY                              #  YES - GO TO VERIFICATION SEQUENCE
000246: 04,3462           13444                           TCF      OHWELL2    -1                         #  NO - REQUEST ADDITIONAL DATA.
000247:
000248:                                                                                                  #  VERIFY SEQUENCE
000249:
000250: 04,3463           33514        UPVERIFY           CAF      ADUPTEMP                              #  PLACE ECADR WHERE COMPONENT NO. INDEX
000251: 04,3464           54156                           TS       MPAC       +2                         #  IS TO BE STORED INTO R3.
000252: 04,3465           33517                           CAF      UPVRFYNV                              #  (CK4V32 RETURNS HERE IF V32 ENCOUNTERED)
000253: 04,3466           04616                           TC       BANKCALL                              #  DISPLAY A FLASHING V21N02 TO REQUEST
000254: 04,3467           20334                           CADR     GOXDSPF                               #  DATA CORRECTION OR VERIFICATION.
000255: 04,3470           13712                           TCF      UPOUT4                                #  V34 TERMINATE UPDATE (P27) RETURN
000256: 04,3471           13520                           TCF      UPSTORE                               #  V33 DATA SENT IS GOOD.  GO STORE IT.
000257: 04,3472           03506                           TC       CK4V32                                #  COMPONENT NO. INDEX OR V32 RETURN
000258: 04,3473           31167                           CA       UPTEMP                                #  DOES THE COMPONENT NO. INDEX JUST SENT
000259: 04,3474           00006                           EXTEND                                         #  SPECIFY A LEGAL COMPONENT NUMBER?
000260: 04,3475           63463                           BZMF     UPVERIFY                              #  NO, IT IS NOT POSITIVE NONZERO
000261: 04,3476           41167                           CS       UPTEMP
000262: 04,3477           61170                           AD       COMPNUMB


000264: 04,3500           64753                           AD       BIT1
000265: 04,3501           00006                           EXTEND
000266: 04,3502           63463                           BZMF     UPVERIFY                              #  NO
000267: 04,3503           33662                           CAF      ADUPBFM1                              #  YES - BASED ON THE COMPONENT NO. INDEX
000268: 04,3504           61167                           AD       UPTEMP                                #  CALCULATE THE ECADR OF LOCATION IN
000269: 04,3505           13447                           TCF      OHWELL2    +2                         #  UPBUFF WHICH USER WANTS TO CHANGE.
000270:
000271: 04,3506  04,3712               UPOUT4             EQUALS   UPOUT      +1                         #  COMES HERE ON V34 TO TERMINATE UPDATE
000272:
000273:                                                                                                  #  CHECK FOR VERB 32 SEQUENCE
000274:
000275: 04,3506           40154        CK4V32             CS       MPAC                                  #  ON DATA RETURN FROM 'GOXDSPF'
000276: 04,3507           74746                           MASK     BIT6                                  #  ON DATA RETURN FROM "GOXDSP" & THE CON-
000277: 04,3510           10000                           CCS      A                                     #  TENTS OF MPAC = VERB.  SO TEST FOR V32.
000278: 04,3511           00002                           TC       Q                                     #  IT'S NOT A V32, IT'S DATA.  PROCEED.
000279: 04,3512           50002                           INDEX    Q
000280: 04,3513           77771                           TC       0          -6                         #  V32 ENCOUNTERED - GO BACK AND GET DATA
000281:
000282: 04,3514           01167        ADUPTEMP           ADRES    UPTEMP                                #  ADDRESS OF TEMP STORAGE FOR CORRECTIONS
000283: 04,3515           01174        ADUPBUFF           ADRES    UPBUFF                                #  ADDRESS OF UPDATE DATA STORAGE BUFFER
000284: 04,3516           05201        UPLOADNV           VN       2101                                  #  VERB 21 NOUN 01
000285: 04,3517           05202        UPVRFYNV           VN       2102                                  #  VERB 21 NOUN 02
000286: 04,3520     4362               UP21               =        MD1                                   #  DEC 21 = MAX NO OF COMPONENTS +1
000287: 04,3520     4756               UPDTPHAS           EQUALS   FIVE
000288:
000289:                                                                                                  #  PRE-STORE AND FAN TO APPROPRIATE BRANCH SEQUENCE
000290:
000291: 04,3520                        UPSTORE            EQUALS                                         #  GROUND HAS VERIFIED UPDATE.  STORE DATA.
000292:
000293: 04,3520           00004                           INHINT
000294:
000295: 04,3521           30103                           CAE      FLAGWRD7                              #  INVERT VERIFLAG (BIT 3 OF FLAGWRD7) TO
000296: 04,3522           56001                           XCH      L                                     #  INDICATE TO THE GROUND (VIA DOWNLINK)
000297: 04,3523           34751                           CAF      VERIFBIT                              #  THAT THE V33 (WHICH THE GROUND SENT TO
000298: 04,3524           00006                           EXTEND                                         #  VERIFY THE UPDATE) HAS BEEN SUCCESSFULLY
000299: 04,3525           06001                           RXOR     LCHAN                                 #  RECEIVED BY THE UPDATE PROGRAM
000300: 04,3526           54103                           TS       FLAGWRD7
000301:
000302: 04,3527           05353                           TC       PHASCHNG                              #  SET RESTART GROUP 6 TO REDO THE UPDATE
000303: 04,3530           04026                           OCT      04026                                 #  DATA STORE IF A RESTART OCCURS.
000304: 04,3531           00004                           INHINT                                         #  (BECAUSE PHASCHNG DID A RELINT)
000305:
000306: 04,3532           44752                           CS       TWO                                   #  GO TO UPFNDVAC IF INSTALL IS REQUIRED,
000307: 04,3533           61172                           AD       UPVERB                                #  THAT IS, IF IT'S A V70 - V72.
000308: 04,3534           00006                           EXTEND                                         #  GO TO UPEND73 IF IT'S A V73.
000309: 04,3535           63544                           BZMF     UPFNDVAC
000310:
000311:                                                                                                  #  VERB 73 BRANCH


000313: 04,3536           00006        UPEND73            EXTEND                                         #  V73 - PERFORM DP OCTAL AGC CLOCK INCREMENT
000314:
000315: 04,3537           31175                           DCA      UPBUFF
000316: 04,3540           53205                           DXCH     UPBUFF     +8D
000317: 04,3541           03567                           TC       TIMEDIDL
000318: 04,3542           04364                           TC       FALTON                                #  ERROR - TURN ON *OPERATOR ERROR* LIGHT
000319: 04,3543           03712                           TC       UPOUT      +1                         #  GO TO COMMON UPDATE PROGRAM EXIT
000320:
000321: 04,3544           34355        UPFNDVAC           CAF      CHRPRIO                               #  (USE EXTENDED VERB PRIORITY)
000322: 04,3545           05105                           TC       FINDVAC                               #  GET VAC AREA FOR 'CALL INTSTALL'
000323: 04,3546  E3,1706                                  EBANK=   TEPHEM
000324: 04,3546           03551 10103                     2CADR    UPJOB                                 #  (NOTE:  THIS WILL ALSO SET EBANK FOR
000325: 04,3550           05155                           TC       ENDOFJOB                              #  'TEPHEM' UPDATE BY V70)
000326:
000327: 04,3551           06037        UPJOB              TC       INTPRET                               #  THIS COULD BE A STATE VECTOR UPDATE -- SO
000328: 04,3552           77624                           CALL                                           #  WAIT (PUT JOB TO SLEEP) IF ORBIT INT(OI)
000329: 04,3553           27414                                    INTSTALL                              #  IS IN PROGRESS -- OR -- GRAB OI AND RETURN
000330:                                                                                                  #  TO UPWAKE IF OI IS NOT IN PROGRESS.
000331:
000332: 04,3554           77776        UPWAKE             EXIT
000333:
000334: 04,3555           05353                           TC       PHASCHNG                              #  RESTART PROTECT (GROUP 6)
000335: 04,3556           04026                           OCT      04026
000336:
000337: 04,3557           05504                           TC       UPFLAG                                #  SET INTEGRATION RESTART BIT
000338: 04,3560           00236                           ADRES    REINTFLG
000339: 04,3561           00004                           INHINT
000340: 04,3562                        UPPART3            EQUALS
000341:
000342: 04,3562           51172                           INDEX    UPVERB                                #  BRANCH TO THE APPROPRIATE UPDATE VERB
000343: 04,3563           13564                           TCF      +1                                    #  ROUTINE TO ACTUALLY PERFORM THE UPDATE
000344: 04,3564           13723                           TCF      UPEND70                               #  V70
000345: 04,3565           13632                           TCF      UPEND71                               #  V71
000346: 04,3566           13664                           TCF      UPEND72                               #  V72
000347:
000348:                                                                                                  #  ROUTINE TO INCREMENT CLOCK (TIME2,TIME1) WITH CONTENTS OF DP WORD AT UPBUFF.
000349:
000350: 04,3567           00006        TIMEDIDL           EXTEND
000351: 04,3570           23167                           QXCH     UPTEMP                                #  SAVE Q FOR RETURN
000352: 04,3571           34755                           CAF      ZERO                                  #  ZERO AND SAVE TIME2,TIME1
000353: 04,3572           22007                           ZL
000354: 04,3573           52025                           DXCH     TIME2
000355: 04,3574           53217                           DXCH     UPBUFF     +18D                       #  STORE IN CASE OF OVERFLOW
000356:
000357: 04,3575           34756                           CAF      UPDTPHAS                              #  DO
000358: 04,3576           54001                           TS       L                                     #  A
000359: 04,3577           40000                           COM                                            #  QUICK
000360: 04,3600           52765                           DXCH     -PHASE6                               #  PHASCHNG


000362: 04,3601           00004        TIMEDIDR           INHINT
000363:
000364: 04,3602           34755                           CAF      ZERO
000365: 04,3603           22007                           ZL                                             #  PICK UP INCREMENTER(AND ZERO
000366: 04,3604           54156                           TS       MPAC       +2                         #  IT IN CASE OF RESTARTS) AND
000367: 04,3605           53205                           DXCH     UPBUFF     +8D                        #  STORE IT
000368: 04,3606           52155                           DXCH     MPAC                                  #  INTO MPAC FOR TPAGREE.
000369:
000370: 04,3607           00006                           EXTEND
000371: 04,3610           31217                           DCA      UPBUFF     +18D
000372: 04,3611           20155                           DAS      MPAC                                  #  FORM SUM IN MPAC
000373: 04,3612           00006                           EXTEND
000374: 04,3613           13622                           BZF      DELTATOK                              #  TEST FOR OVERFLOW
000375: 04,3614           34755                           CAF      ZERO
000376: 04,3615           53217                           DXCH     UPBUFF     +18D                       #  OVERFLOW, RESTORE OLD VALUE OF CLOCK
000377: 04,3616           20025                           DAS      TIME2                                 #  AND TURN ON OPERATOR ERROR
000378:
000379: 04,3617           05353                           TC       PHASCHNG                              #  RESTART PROTECT (GROUP 6)
000380: 04,3620           04026                           OCT      04026
000381:
000382: 04,3621           01167                           TC       UPTEMP                                #  GO TO ERROR EXIT
000383:
000384: 04,3622           07257        DELTATOK           TC       TPAGREE                               #  FORCE SIGN AGREEMENT
000385: 04,3623           52155                           DXCH     MPAC
000386: 04,3624           20025                           DAS      TIME2                                 #  INCREMENT TIME2,TIME1
000387:
000388: 04,3625           05353                           TC       PHASCHNG                              #  RESTART PROTECT (GROUP 6)
000389: 04,3626           04026                           OCT      04026
000390:
000391: 04,3627           00004                           INHINT
000392: 04,3630           51167                           INDEX    UPTEMP                                #  (CODED THIS WAY FOR RESTART PROTECTION)
000393: 04,3631           00001                           TC       1                                     #  NORMAL RETURN
000394:
000395:                                                                                                  #  VERB 71 BRANCH
000396:
000397: 04,3632           31175        UPEND71            CAE      UPBUFF     +1                         #  SET EBANK
000398: 04,3633           54003                           TS       EBANK                                 #        AND
000399: 04,3634           74357                           MASK     LOW8                                  #  CALCULATE
000400: 04,3635           55167                           TS       UPTEMP                                #  S-REG VALUE OF RECEIVING AREA
000401:
000402: 04,3636           67745                           AD       NEG3                                  #  IN THE PROCESS OF
000403: 04,3637           61170                           AD       COMPNUMB                              #  PERFORMING
000404: 04,3640           00006                           EXTEND                                         #  THIS UPDATE
000405: 04,3641           13647                           BZF      STORLP71                              #  WILL WE
000406: 04,3642           74743                           MASK     BIT9                                  #  OVERFLOW
000407: 04,3643           10000                           CCS      A                                     #  INTO THE NEXT EBANK....
000408: 04,3644           13760                           TCF      UPERROUT                              #  YES
000409:
000410: 04,3645           37745                           CA       NEG3                                  #  NO - CALCULATE NUMBER OF
000411: 04,3646           61170                           AD       COMPNUMB                              #  WORDS TO BE STORED MINUS ONE
000412: 04,3647           54154        STORLP71           TS       MPAC                                  #  SAVE NO. OF WORDS REMAINING MINUS ONE


000414: 04,3650           50000                           INDEX    A                                     #  TAKE NEXT UPDATE WORD FROM
000415: 04,3651           31176                           CA       UPBUFF     +2                         #  UPBUFF AND
000416:
000417: 04,3652           54001                           TS       L                                     #  SAVE IT IN L
000418: 04,3653           30154                           CA       MPAC                                  #  CALCULATE NEXT
000419: 04,3654           61167                           AD       UPTEMP                                #  RECEIVING ADDRESS
000420: 04,3655           50000                           INDEX    A
000421: 04,3656  E3,1400                                  EBANK=   1400
000422: 04,3656           23400                           LXCH     1400                                  #  UPDATE THE REGISTER BY CONTENTS OF L
000423: 04,3657  E3,1706                                  EBANK=   TEPHEM
000424: 04,3657           10154                           CCS      MPAC                                  #  ARE THERE ANY WORDS LEFT TO BE STORED
000425: 04,3660           13647                           TCF      STORLP71                              #  YES
000426: 04,3661           13711                           TCF      UPOUT                                 #  NO - THEN EXIT UPDATE PROGRAM
000427: 04,3662           01173        ADUPBFM1           ADRES    UPBUFF     -1                         #  SAME AS ADUPBUFF BUT LESS 1 (DON'T MOVE)
000428: 04,3663           13711                           TCF      UPOUT                                 #  NO - EXIT UPDATE (HERE WHEN COMPNUMB = 3)
000429:
000430:                                                                                                  #  VERB 72 BRANCH
000431:
000432: 04,3664           34753        UPEND72            CAF      BIT1                                  #  HAVE AN ODD NO. OF COMPONENTS
000433: 04,3665           71170                           MASK     COMPNUMB                              #  BEEN SENT FOR A V72 UPDATE ...
000434: 04,3666           10000                           CCS      A
000435: 04,3667           13671                           TCF      +2                                    #  YES
000436: 04,3670           13760                           TCF      UPERROUT                              #  ERROR - SHOULD BE ODD NO. OF COMPONENTS
000437: 04,3671           44752                           CS       BIT2
000438: 04,3672           61170                           AD       COMPNUMB
000439: 04,3673           54154        LDLOOP72           TS       MPAC                                  #  NOW PERFORM THE UPDATE
000440: 04,3674           50000                           INDEX    A
000441: 04,3675           31175                           CAE      UPBUFF     +1                         #  PICK UP NEXT UPDATE WORD
000442: 04,3676           22000                           LXCH     A
000443: 04,3677           10154                           CCS      MPAC                                  #  SET POINTER TO ECADR (MUST BE CCS)
000444: 04,3700           54154                           TS       MPAC
000445: 04,3701           50000                           INDEX    A
000446: 04,3702           31175                           CAE      UPBUFF     +1                         #  PICK UP NEXT ECADR OF REG TO BE UPDATED
000447: 04,3703           54003                           TS       EBANK                                 #  SET EBANK
000448: 04,3704           74357                           MASK     LOW8                                  #  ISOLATE RELATIVE ADDRESS
000449: 04,3705           50000                           INDEX    A
000450: 04,3706  E3,1400                                  EBANK=   1400
000451: 04,3706           23400                           LXCH     1400                                  #  UPDATE THE REGISTER BY CONTENTS OF L
000452: 04,3707  E3,1706                                  EBANK=   TEPHEM
000453: 04,3707           10154                           CCS      MPAC                                  #  ARE WE THROUGH THE V72 UPDATE...
000454: 04,3710           13673                           TCF      LDLOOP72                              #  NO
000455:
000456:                                                                                                  #  NORMAL FINISH OF P27
000457:
000458: 04,3711                        UPOUT              EQUALS
000459: 04,3711           03165                           TC       INTWAKEU                              #  RELEASE GRAB OF ORBITAL INTEGRATION
000460: 04,3712           31171                 +1        CAE      UPOLDMOD                              #  RESTORE PRIOR P27 MODE
000461: 04,3713           05314                           TC       NEWMODEX   +3
000462: 04,3714           34755                           CAF      ZERO


000464: 04,3715           54332                           TS       DNLSTCOD
000465: 04,3716           03765                           TC       UPACTOFF                              #  TURN OFF 'UPLINK ACTIVITY' LIGHT
000466:
000467: 04,3717           00006                           EXTEND                                         #  KILL GROUP 6.
000468: 04,3720           34755                           DCA      NEG0
000469: 04,3721           52765                           DXCH     -PHASE6
000470:
000471: 04,3722           05472                           TC       ENDEXT                                #  EXTENDED VERB EXIT
000472:
000473:                                                                                                  #  VERB 70 BRANCH
000474:
000475: 04,3723           00006        UPEND70            EXTEND                                         #  V70 DOES THE FOLLOWING WITH DP DELTA
000476: 04,3724           41175                           DCS      UPBUFF                                #  TIME IN UPBUFF
000477: 04,3725           53205                           DXCH     UPBUFF     +8D
000478: 04,3726           03567                           TC       TIMEDIDL                              #  DECREMENT AGC CLOCK
000479:
000480: 04,3727           03760                           TC       UPERROUT                              #  ERROR WHILE DECREMENTING CLOCK -- EXIT
000481:
000482: 04,3730  E3,1706                                  EBANK=   TEPHEM
000483: 04,3730           00006                           EXTEND
000484: 04,3731           41175                           DCS      UPBUFF                                #  COPY DECREMENTERS FOR
000485: 04,3732           53207                           DXCH     UPBUFF     +10D                       #  RESTART PROTECTION
000486: 04,3733           00006                           EXTEND
000487: 04,3734           41175                           DCS      UPBUFF
000488: 04,3735           53211                           DXCH     UPBUFF     +12D
000489:
000490: 04,3736           05353                           TC       PHASCHNG                              #  RESTART PROTECT (GROUP 6)
000491: 04,3737           04026                           OCT      04026
000492:
000493: 04,3740           34755                           CAF      ZERO
000494: 04,3741           22007                           ZL
000495: 04,3742           53207                           DXCH     UPBUFF     +10D                       #  DECREMENT CSM STATE VECTOR TIME
000496: 04,3743           21571                           DAS      TETCSM
000497:
000498: 04,3744           34755                           CAF      ZERO
000499: 04,3745           22007                           ZL
000500: 04,3746           53211                           DXCH     UPBUFF     +12D                       #  DECREMENT LEM STATE VECTOR TIME
000501: 04,3747           21643                           DAS      TETLEM
000502:
000503: 04,3750           34755                           CAF      ZERO
000504: 04,3751           22007                           ZL
000505: 04,3752           53175                           DXCH     UPBUFF
000506: 04,3753           21710                           DAS      TEPHEM     +1                         #  INCREMENT TP TEPHEM
000507: 04,3754           27706                           ADS      TEPHEM
000508:
000509: 04,3755           05353                           TC       PHASCHNG                              #  RESTART PROTECT (GROUP 6)
000510: 04,3756           04026                           OCT      04026
000511:
000512: 04,3757     1174                                  EBANK=   UPBUFF


000514: 04,3757           03711                           TC       UPOUT                                 #  GO TO STANDARD UPDATE PROGRAM EXIT
000515:
000516:
000517:                                                                                                  #  ERROR SEQUENCE
000518:
000519: 04,3760           04364        UPERROUT           TC       FALTON                                #  TURN ON *OPERATOR ERROR* LIGHT
000520: 04,3761           13711                           TCF      UPOUT                                 #  GO TO COMMON UPDATE PROGRAM EXIT
000521:
000522: 04,3762           04364                 +2        TC       FALTON                                #  TURN ON 'OPERATOR ERROR' LIGHT
000523: 04,3763           03765                           TC       UPACTOFF                              #  TURN OFF 'UPLINK ACTIVITY' LIGHT
000524: 04,3764           05472                           TC       ENDEXT                                #  EXTENDED VERB EXIT
000525:                                                                                                  #  (THE PURPOSE OF UPERROUT +2 EXIT IS
000526:                                                                                                  #  TO PROVIDE AN ERROR EXIT WHICH DOES NOT
000527:                                                                                                  #  RESET ANY RESTART GROUPS)
000528:
000529:                                                                                                  #  :UPACTOFF: IS A ROUTINE TO TURN OFF UPLINK ACTIVITY LIGHT ON ALL EXITS FROM UPDATE PROGRAM (P27).
000530:
000531: 04,3765           44751        UPACTOFF           CS       BIT3
000532: 04,3766           00006                           EXTEND                                         #  TURN OFF UPLINK ACTIVITY LIGHT
000533: 04,3767           03011                           WAND     DSALMOUT                              #  (BIT 3 OF CHANNEL 11)
000534: 04,3770           00002                           TC       Q
000535:

End of include-file UPDATE_PROGRAM.agc.  Parent file is MAIN.agc


