
Source Code


000002:                                                                                                  ## Copyright:   Public domain.
000003:                                                                                                  ## Filename:    WAITLIST.agc
000004:                                                                                                  ## Purpose:     A section of Luminary revision 97.
000005:                                                                                                  ##              It is part of the reconstructed source code for the
000006:                                                                                                  ##              original release of the flight software for the Lunar
000007:                                                                                                  ##              Module's (LM) Apollo Guidance Computer (AGC) for Apollo 11.
000008:                                                                                                  ##              The code has been recreated from a copy of Luminary 99
000009:                                                                                                  ##              revision 001, using asterisks indicating changed lines in
000010:                                                                                                  ##              the listing and Luminary Memos #83 and #85, which list
000011:                                                                                                  ##              changes between Luminary 97 and 98, and 98 and 99. The
000012:                                                                                                  ##              code has been adapted such that the resulting bugger words
000013:                                                                                                  ##              exactly match those specified for Luminary 97 in NASA drawing
000014:                                                                                                  ##              2021152D, which gives relatively high confidence that the
000015:                                                                                                  ##              reconstruction is correct.
000016:                                                                                                  ## Reference:   pp. 1117-1132
000017:                                                                                                  ## Assembler:   yaYUL
000018:                                                                                                  ## Contact:     Ron Burkey <info@sandroid.org>.
000019:                                                                                                  ## Website:     www.ibiblio.org/apollo/index.html
000020:                                                                                                  ## Mod history: 2019-07-28 MAS  Created from Luminary 99.
000021:


000023:                                                                                                  #  PROGRAM DESCRIPTION                                                           DATE - 10 OCTOBER 1966
000024:                                                                                                  #  MOD NO - 2                                                                    LOG SECTION - WAITLIST
000025:                                                                                                  #  MOD BY - MILLER       (DTMAX INCREASED TO 162.5 SEC)                          ASSEMBLY SUNBURST REV 5
000026:                                                                                                  #  MOD 3 BY KERNAN       (INHINT INSERTED AT WAITLIST) 2/28/68 SKIPPER REV 4
000027:                                                                                                  #  MOD 4 BY KERNAN       (TWIDDLE IN 54) 3/28/68 SKIPPER REV 13.
000028:
000029:                                                                                                  #  FUNCTIONAL DESCRIPTION -
000030:                                                                                                  #        PART OF A SECTION OF PROGRAMS,- WAITLIST, TASKOVER, T3RUPT, USED TO CALL A PROGRAM, (CALLED A TASK),
000031:                                                                                                  #        WHICH IS TO BEGIN IN C(A) CENTISECONDS.  WAITLIST UPDATES TIME3, LST1 AND LST2.  THE MEANING OF THESE LISTS
000032:                                                                                                  #        FOLLOW.
000033:
000034:                                                                                                  #                C(TIME3) = 16384 -(T1-T) CENTISECONDS, (T=PRESENT TIME, T1-TIME FOR TASK1)
000035:
000036:                                                                                                  #                        C(LST1)         =       -(T2-T1)+1
000037:                                                                                                  #                        C(LST1 +1)      =       -(T3-T2)+1
000038:                                                                                                  #                        C(LST1 +2)      =       -(T4-T3)+1
000039:                                                                                                  #                                        .
000040:                                                                                                  #                                        .
000041:                                                                                                  #                        C(LST1 +6)      =       -(T8-T7)+1
000042:                                                                                                  #                        C(LST1 +7)      =       -(T9-T8)+1
000043:
000044:                                                                                                  #                        C(LST2)         =       2CADR OF TASK1
000045:                                                                                                  #                        C(LST2 +2)      =       2CADR OF TASK2
000046:                                                                                                  #                                        .
000047:                                                                                                  #                                        .
000048:                                                                                                  #                        C(LST2 +14)     =       2CADR OF TASK8
000049:                                                                                                  #                        C(LST2 +16)     =       2CADR OF TASK9
000050:
000051:                                                                                                  #  WARNINGS -
000052:                                                                                                  #  --------
000053:                                                                                                  #        1)      1 <= C(A) <= 16250D (1 CENTISECOND TO 162.5 SEC)
000054:                                                                                                  #        2)      9 TASKS MAXIMUM
000055:                                                                                                  #        3)      TASKS CALLED UNDER INTERRUPT INHIBITED
000056:                                                                                                  #        4)      TASKS END BY TC TASKOVER
000057:
000058:                                                                                                  #  CALLING SEQUENCE -
000059:                                                                                                  #        L-1     CA      DELTAT  (TIME IN CENTISECONDS TO TASK START)
000060:                                                                                                  #        L       TC      WAITLIST
000061:                                                                                                  #        L+1     2CADR   DESIRED TASK
000062:                                                                                                  #        L+2     (MINOR OF 2CADR)
000063:                                                                                                  #        L+3     RELINT          (RETURNS HERE)
000064:
000065:                                                                                                  #  TWIDDLE -
000066:                                                                                                  #  -------
000067:                                                                                                  #        TWIDDLE IS FOR USE WHEN THE TASK BEING SET UP IS IN THE SAME EBANK AND FBANK AS THE USER.  IN
000068:                                                                                                  #        SUCH CASES, IT IMPROVES UPON WAITLIST BY ELIMINATING THE NEED FOR THE BBCON HALF OF THE 2CADR,


000070:                                                                                                  #        SAVING A WORD.  TWIDDLE IS LIKE WAITLIST IN EVERY RESPECT EXCEPT CALLING SEQUENCE, TO WIT-
000071:                                                                                                  #                L-1     CA      DELTAT
000072:                                                                                                  #                L       TC      TWIDDLE
000073:                                                                                                  #                L+1     ADRES   DESIRED TASK
000074:                                                                                                  #                L+2     RELINT          (RETURNS HERE)
000075:
000076:                                                                                                  #  NORMAL EXIT MODES -
000077:                                                                                                  #        AT L+3 OF CALLING SEQUENCE
000078:
000079:                                                                                                  #  ALARM OR ABORT EXIT MODES -
000080:                                                                                                  #        TC      ABORT
000081:                                                                                                  #        OCT     1203    (WAITLIST OVERFLOW - TOO MANY TASKS)
000082:
000083:                                                                                                  #  ERASABLE INITIALIZATION REQUIRED -
000084:                                                                                                  #        ACCOMPLISHED BY FRESH START,--  LST2, ..., LST2 +16 = ENDTASK
000085:                                                                                                  #                                        LST1, ..., LST1 +7  = NEG1/2
000086:
000087:                                                                                                  #  OUTPUT --
000088:                                                                                                  #        LST1 AND LST2 UPDATED WITH NEW TASK AND ASSOCIATED TIME.
000089:
000090:                                                                                                  #  DEBRIS -
000091:                                                                                                  #        CENTRALS - A,Q,L
000092:                                                                                                  #        OTHER    - WAITEXIT, WAITADR, WAITTEMP, WAITBANK
000093:
000094:                                                                                                  #  DETAILED ANALYSIS OF TIMING -
000095:                                                                                                  #        CONTROL WILL NOT BE RETURNED TO THE SPECIFIED ADDRESS (2CADR) IN EXACTLY DELTA T CENTISECONDS.
000096:                                                                                                  #        THE APPROXIMATE TIME MAY BE CALCULATED AS FOLLOWS
000097:                                                                                                  #                LET TO = THE TIME OF THE TC WAITLIST
000098:                                                                                                  #                LET TS = TO +147U + COUNTER INCREMENTS (SET UP TIME)
000099:                                                                                                  #                LET X  = TS -(100TS)/100  (VARIANCE FROM COUNTERS)
000100:                                                                                                  #                LET Y  = LENGTH OF TIME OF INHIBIT INTERRUPT AFTER T3RUPT
000101:                                                                                                  #                LET Z  = LENGTH OF TIME TO PROCESS TASKS WHICH ARE DUE THIS T3RUPT BUT DISPATCHED EARLIER.
000102:                                                                                                  #                         (Z=0, USUALLY)
000103:                                                                                                  #                LET DELTD  = THE ACTUAL TIME TAKEN TO GIVE CONTROL TO 2CADR
000104:                                                                                                  #                THEN DELTD = TS+DELTA T -X +Y +Z +1.05MS* +COUNTERS*
000105:                                                                                                  #                *-THE TIME TAKEN BY WAITLIST ITSELF AND THE COUNTER TICKING DURING THIS WAITLIST TIME.
000106:                                                                                                  #        IN SHORT, THE ACTUAL TIME TO RETURN CONTROL TO A 2CADR IS AUGMENTED BY THE TIME TO SET UP THE TASK:S
000107:                                                                                                  #        INTERRUPT, ALL COUNTERS TICKING, THE T3RUPT PROCESSING TIME, THE WAITLIST PROCESSING TIME AND THE POSSIBILITY
000108:                                                                                                  #        OF OTHER TASKS INHIBITING THE INTERRUPT.
000109:
000110:    5173                                           BLOCK    02


000112:    5173  E3,1400                                  EBANK=   LST1                                  #  TASK LISTS IN SWITCHED E BANK.
000113:
000114:    5173                                           COUNT*   $$/WAIT
000115:    5173           00004        TWIDDLE            INHINT
000116:    5174           54001                           TS       L                                     #  SAVE DELAY TIME IN L
000117:    5175           34733                           CA       POSMAX
000118:    5176           26002                           ADS      Q                                     #  CREATING OVERFLOW AND Q-1 IN Q
000119:    5177           30006                           CA       BBANK
000120:    5200           00006                           EXTEND
000121:    5201           04007                           ROR      SUPERBNK
000122:    5202           56001                           XCH      L
000123:
000124:    5203           00004        WAITLIST           INHINT
000125:    5204           56002                           XCH      Q                                     #  SAVE DELTA T IN Q AND RETURN IN
000126:    5205           54061                           TS       WAITEXIT                              #  WAITEXIT.
000127:    5206           00006                           EXTEND
000128:    5207           50061                           INDEX    WAITEXIT                              #  IF TWIDDLING, THE TS SKIPS TO HERE
000129:    5210           30001                           DCA      0                                     #  PICK UP 2CADR OF TASK.
000130:    5211           54063                 -1        TS       WAITADR                               #  BBCON WILL REMAIN IN L
000131:    5212           35220        DLY2               CAF      WAITBB                                #  ENTRY FROM FIXDELAY AND VARDELAY.
000132:    5213           56006                           XCH      BBANK
000133:    5214           13231                           TCF      WAIT2
000134:
000135:                                                                                                  #  RETURN TO CALLER AFTER TASK INSERTION:
000136:
000137:    5215           52062        LVWTLIST           DXCH     WAITEXIT
000138:    5216           64752                           AD       TWO
000139:    5217           52006                           DTCB
000140:
000141:    5220  E3,1400                                  EBANK=   LST1
000142:    5220           02063        WAITBB             BBCON    WAIT2
000143:
000144:                                                                                                  #  RETURN TO CALLER +2 AFTER WAITING DT SPECIFIED AT CALLER +1.
000145:
000146:    5221           50002        FIXDELAY           INDEX    Q                                     #  BOTH ROUTINES MUST BE CALLED UNDER
000147:    5222           30000                           CAF      0                                     #  WAITLIST CONTROL AND TERMINATE THE TASK
000148:    5223           24002                           INCR     Q                                     #  IN WHICH THEY WERE CALLED.
000149:
000150:                                                                                                  #  RETURN TO CALLER +1 AFTER WAITING THE DT AS ARRIVING IN A.
000151:
000152:    5224           56002        VARDELAY           XCH      Q                                     #  DT TO Q.  TASK ADRES TO WAITADR.
000153:    5225           54063                           TS       WAITADR
000154:    5226           30006                           CA       BBANK                                 #  BBANK IS SAVED DURING DELAY.
000155:    5227           00006                           EXTEND
000156:    5230           04007                           ROR      SUPERBNK                              #  ADD SBANK TO BBCON.
000157:    5231           54001                           TS       L
000158:    5232           35235                           CAF      DELAYEX
000159:    5233           54061                           TS       WAITEXIT                              #  GO TO TASKOVER AFTER TASK ENTRY.
000160:    5234           15212                           TCF      DLY2
000161:


000163:    5235           15257        DELAYEX            TCF      TASKOVER   -2                         #  RETURNS TO TASKOVER
000164:


000166:                                                                                                  #  ENDTASK MUST BE ENTERED IN FIXED-FIXED SO IT IS DISTINGUISHABLE BY ITS ADRES ALONE.
000167:
000168:    5236  E3,1400                                  EBANK=   LST1
000169:    5236           72537 73714  ENDTASK            -2CADR   SVCT3
000170:
000171:    5240           10076        SVCT3              CCS      FLAGWRD2                              #  DRIFT FLAG
000172:    5241           15261                           TCF      TASKOVER
000173:    5242           15261                           TCF      TASKOVER
000174:    5243           15244                           TCF      +1
000175:
000176:    5244           11304        CKIMUSE            CCS      IMUCADR                               #  DON'T DO NBDONLY IF SOMEONE ELSE IS IN
000177:    5245           15256                           TCF      SVCT3X                                #  IMUSTALL.
000178:    5246           15251                           TCF      +3
000179:    5247           15256                           TCF      SVCT3X
000180:    5250           15256                           TCF      SVCT3X
000181:
000182:    5251           37723                 +3        CAF      PRIO35                                #  COMPENSATE FOR NBD COEFFICIENTS ONLY.
000183:    5252           05072                           TC       NOVAC                                 #        ENABLE EVERY 81.93 SECONDS
000184:    5253  E3,1460                                  EBANK=   NBDX
000185:    5253           03555 14063                     2CADR    NBDONLY
000186:
000187:    5255           15261                           TCF      TASKOVER
000188:
000189:    5256           05221        SVCT3X             TC       FIXDELAY                              #  DELAY MAX OF 2 TIMES FOR IMUZERO.
000190:    5257           00764                           DEC      500        B-14
000191:    5260           05240                           TC       SVCT3                                 #  CHECK DRIFT FLAG AGAIN.
000192:


000194:                                                                                                  #  BEGIN TASK INSERTION.
000195:
000196: 01,3231                                           BANK     01
000197: 01,3231                                           COUNT*   $$/WAIT
000198: 01,3231           54062        WAIT2              TS       WAITBANK                              #  BBANK OF CALLING PROGRAM.
000199: 01,3232           30002                           CA       Q
000200: 01,3233           00006                           EXTEND
000201: 01,3234           63523                           BZMF     WAITPOOH
000202:
000203: 01,3235           40026                           CS       TIME3
000204: 01,3236           64744                           AD       BIT8                                  #  BIT 8 = OCT 200
000205: 01,3237           10000                           CCS      A                                     #  TEST 200 - C(TIME3).  IF POSITIVE,
000206:                                                                                                  #  IT MEANS THAT TIME3 OVERFLOW HAS OCCURRED PRIOR TO CS TIME3 AND THAT
000207:                                                                                                  #  C(TIME3) = T - T1, INSTEAD OF 1.0 - (T1 - T).  THE FOLLOWING FOUR
000208:                                                                                                  #  ORDERS SET C(A) = TD - T1 + 1 IN EITHER CASE.
000209:
000210: 01,3240           66107                           AD       OCT40001                              #  OVERFLOW HAS OCCURRED.  SET C(A) =
000211: 01,3241           40000                           CS       A                                     #  T - T1 + 1.0 - 201
000212:
000213:                                                                                                  #  NORMAL CASE (C(A) NNZ) YIELDS SAME C(A):  -( -(1.0-(T1-T)) + 200) - 1
000214:
000215: 01,3242           63370                           AD       OCT40201
000216: 01,3243           60002                           AD       Q                                     #  RESULT = TD - T1 + 1.
000217:
000218: 01,3244           10000                           CCS      A                                     #  TEST TD - T1 + 1
000219:
000220: 01,3245           61400                           AD       LST1                                  #  IF TD - T1 POS, GO TO WTLST5 WITH
000221: 01,3246           13310                           TCF      WTLST5                                #  C(A) = (TD - T1) + C(LST1) = TD-T2+1
000222:
000223: 01,3247           13250                           NOOP
000224: 01,3250           40002                           CS       Q
000225:
000226:                                                                                                  #  NOTE THAT THIS PROGRAM SECTION IS NEVER ENTERED WHEN T-T1 G/E -1,
000227:                                                                                                  #  SINCE TD-T1+1 = (TD-T) + (T-T1+1), AND DELTA T = TD-T G/E +1.  (G/E
000228:                                                                                                  #  SYMBOL MEANS GREATER THAN OR EQUAL TO).  THUS THERE NEED BE NO CON-
000229:                                                                                                  #  CERN OVER A PREVIOUS OR IMMINENT OVERFLOW OF TIME3 HERE.
000230:
000231: 01,3251           64736                           AD       POS1/2                                #  WHEN TD IS NEXT, FORM QUANTITY
000232: 01,3252           64736                           AD       POS1/2                                #        1.0 - DELTA T = 1.0 - (TD - T)
000233: 01,3253           56026                           XCH      TIME3
000234: 01,3254           64735                           AD       NEGMAX
000235: 01,3255           60002                           AD       Q                                     #  1.0 - DELTAT T NOW COMPLETE.
000236: 01,3256           00006                           EXTEND                                         #  ZERO INDEX Q.
000237: 01,3257           22007                           QXCH     7                                     #  (ZQ)
000238:


000240: 01,3260           57400        WTLST4             XCH      LST1
000241: 01,3261           57401                           XCH      LST1       +1
000242: 01,3262           57402                           XCH      LST1       +2
000243: 01,3263           57403                           XCH      LST1       +3
000244: 01,3264           57404                           XCH      LST1       +4
000245: 01,3265           57405                           XCH      LST1       +5
000246: 01,3266           57406                           XCH      LST1       +6
000247: 01,3267           57407                           XCH      LST1       +7
000248:
000249: 01,3270           30063                           CA       WAITADR                               #  (MINOR PART OF TASK CADR HAS BEEN IN L.)
000250: 01,3271           50002                           INDEX    Q
000251: 01,3272           13273                           TCF      +1
000252:
000253: 01,3273           53411                           DXCH     LST2
000254: 01,3274           53413                           DXCH     LST2       +2
000255: 01,3275           53415                           DXCH     LST2       +4
000256: 01,3276           53417                           DXCH     LST2       +6
000257: 01,3277           53421                           DXCH     LST2       +8D
000258: 01,3300           53423                           DXCH     LST2       +10D                       #  AT END, CHECK THAT C(LST2 +10) IS STD
000259: 01,3301           53425                           DXCH     LST2       +12D
000260: 01,3302           53427                           DXCH     LST2       +14D
000261: 01,3303           53431                           DXCH     LST2       +16D
000262: 01,3304           65236                           AD       ENDTASK                               #  END ITEM, AS CHECK FOR EXCEEDING
000263:                                                                                                  #  THE LENGTH OF THE LIST.
000264: 01,3305           00006                           EXTEND                                         #  DUMMY TASK ADRES SHOULD BE IN FIXED-
000265: 01,3306           15215                           BZF      LVWTLIST                              #  FIXED SO ITS ADRES ALONE DISTINGUISHES
000266: 01,3307           13363                           TCF      WTABORT                               #  IT.
000267:


000269: 01,3310           10000        WTLST5             CCS      A                                     #  TEST TD - T2 + 1
000270: 01,3311           61401                           AD       LST1       +1
000271: 01,3312           13316                           TCF      +4
000272: 01,3313           64753                           AD       ONE
000273: 01,3314           03374                           TC       WTLST2
000274: 01,3315           00001                           OCT      1
000275:
000276: 01,3316           10000                 +4        CCS      A                                     #  TEST TD - T3 + 1
000277: 01,3317           61402                           AD       LST1       +2
000278: 01,3320           13324                           TCF      +4
000279: 01,3321           64753                           AD       ONE
000280: 01,3322           03374                           TC       WTLST2
000281: 01,3323           00002                           OCT      2
000282:
000283: 01,3324           10000                 +4        CCS      A                                     #  TEST TD - T4 + 1
000284: 01,3325           61403                           AD       LST1       +3
000285: 01,3326           13332                           TCF      +4
000286: 01,3327           64753                           AD       ONE
000287: 01,3330           03374                           TC       WTLST2
000288: 01,3331           00003                           OCT      3
000289:
000290: 01,3332           10000                 +4        CCS      A                                     #  TEST TD - T5 + 1
000291: 01,3333           61404                           AD       LST1       +4
000292: 01,3334           13340                           TCF      +4
000293: 01,3335           64753                           AD       ONE
000294: 01,3336           03374                           TC       WTLST2
000295: 01,3337           00004                           OCT      4
000296:
000297: 01,3340           10000                 +4        CCS      A                                     #  TEST TD - T6 + 1
000298: 01,3341           61405                           AD       LST1       +5
000299: 01,3342           13346                           TCF      +4
000300: 01,3343           64753                           AD       ONE
000301: 01,3344           03374                           TC       WTLST2
000302: 01,3345           00005                           OCT      5
000303:
000304: 01,3346           10000                 +4        CCS      A                                     #  TEST TD - T7 + 1
000305: 01,3347           61406                           AD       LST1       +6
000306: 01,3350           13354                           TCF      +4
000307: 01,3351           64753                           AD       ONE
000308: 01,3352           03374                           TC       WTLST2
000309: 01,3353           00006                           OCT      6
000310:


000312: 01,3354           10000                 +4        CCS      A
000313: 01,3355           61407                           AD       LST1       +7
000314: 01,3356           13362                           TCF      +4
000315: 01,3357           64753                           AD       ONE
000316: 01,3360           03374                           TC       WTLST2
000317: 01,3361           00007                           OCT      7
000318:
000319: 01,3362           10000                 +4        CCS      A
000320: 01,3363           03371        WTABORT            TC       FILLED
000321: 01,3364           13365                           NOOP                                           #  CAN'T GET HERE
000322: 01,3365           64753                           AD       ONE
000323: 01,3366           03374                           TC       WTLST2
000324: 01,3367           00010                           OCT      10
000325:
000326: 01,3370           40201        OCT40201           OCT      40201
000327:


000329: 01,3371           52062        FILLED             DXCH     WAITEXIT
000330: 01,3372           05716                           TC       BAILOUT1                              #  NO ROOM IN THE INN
000331: 01,3373           01203                           OCT      01203
000332:


000334:                                                                                                  #  THE ENTRY TO WTLST2 JUST PRECEDING OCT N IS FOR T  LE TD LE T   -1.
000335:                                                                                                  #                                                   N           N+1
000336:                                                                                                  #  (LE MEANS LESS THAN OR EQUAL TO).  AT ENTRY, C(A) = -(TD - T   + 1)
000337:                                                                                                  #                                                              N+1
000338:                                                                                                  #  THE LST1 ENTRY -(T   -T +1) IS TO BE REPLACED BY -(TD - T  + 1), AND
000339:                                                                                                  #                    N+1  N                                 N
000340:                                                                                                  #  THE ENTRY -(T   - TD + 1) IS TO BE INSERTED IMMEDIATELY FOLLOWING.
000341:                                                                                                  #               N+1
000342:
000343: 01,3374           54064        WTLST2             TS       WAITTEMP                              #  C(A) = -(TD - T + 1)
000344: 01,3375           50002                           INDEX    Q
000345: 01,3376           30000                           CAF      0
000346: 01,3377           54002                           TS       Q                                     #  INDEX VALUE INTO Q.
000347:
000348: 01,3400           34753                           CAF      ONE
000349: 01,3401           60064                           AD       WAITTEMP
000350: 01,3402           50002                           INDEX    Q                                     #  C(A) = -(TD - T ) + 1.
000351: 01,3403           27377                           ADS      LST1       -1                         #                 N
000352:
000353: 01,3404           40064                           CS       WAITTEMP
000354: 01,3405           50002                           INDEX    Q
000355: 01,3406           13260                           TCF      WTLST4
000356:
000357:                                                                                                  #        C(TIME3)        =       1.0 - (T1 - T)
000358:
000359:                                                                                                  #        C(LST1)         =       - (T2 - T1) + 1
000360:                                                                                                  #        C(LST1+1)       =       - (T3 - T2) + 1
000361:                                                                                                  #        C(LST1+2)       =       - (T4 - T3) + 1
000362:                                                                                                  #        C(LST1+3)       =       - (T5 - T4) + 1
000363:                                                                                                  #        C(LST1+4)       =       - (T6 - T5) + 1
000364:
000365:                                                                                                  #        C(LST2)         =       2CADR TASK1
000366:                                                                                                  #        C(LST2+2)       =       2CADR TASK2
000367:                                                                                                  #        C(LST2+4)       =       2CADR TASK3
000368:                                                                                                  #        C(LST2+6)       =       2CADR TASK4
000369:                                                                                                  #        C(LST2+8)       =       2CADR TASK5
000370:                                                                                                  #        C(LST2+10)      =       2CADR TASK6
000371:


000373:                                                                                                  #  ENTERS HERE ON T3 RUPT TO DISPATCH WAITLISTED TASK.
000374:
000375: 01,3407           00006        T3RUPT             EXTEND
000376: 01,3410           04007                           ROR      SUPERBNK                              #  READ CURRENT SUPERBANK VALUE AND
000377: 01,3411           54016                           TS       BANKRUPT                              #  SAVE WITH E AND F BANK VALUES.
000378: 01,3412           00006                           EXTEND
000379: 01,3413           22012                           QXCH     QRUPT
000380:
000381: 01,3414           34734        T3RUPT2            CAF      NEG1/2                                #  DISPATCH WAITLIST TASK.
000382: 01,3415           57407                           XCH      LST1       +7
000383: 01,3416           57406                           XCH      LST1       +6
000384: 01,3417           57405                           XCH      LST1       +5
000385: 01,3420           57404                           XCH      LST1       +4                         #  1. MOVE UP LST1 CONTENTS, ENTERING
000386: 01,3421           57403                           XCH      LST1       +3                         #     A VALUE OF 1/2 +1 AT THE BOTTOM
000387: 01,3422           57402                           XCH      LST1       +2                         #     FOR T6-T5, CORRESPONDING TO THE
000388: 01,3423           57401                           XCH      LST1       +1                         #     INTERVAL 81.91 SEC FOR ENDTASK.
000389: 01,3424           57400                           XCH      LST1
000390: 01,3425           64733                           AD       POSMAX                                #  2. SET T3 = 1.0 - T2 - T USING LIST 1.
000391: 01,3426           26026                           ADS      TIME3                                 #  SO T3 WONT TICK DURING UPDATE.
000392: 01,3427           54734                           TS       RUPTAGN
000393: 01,3430           44755                           CS       ZERO
000394: 01,3431           54734                           TS       RUPTAGN                               #  SETS RUPTAGN TO +1 ON OVERFLOW.
000395:
000396: 01,3432           00006                           EXTEND                                         #  DISPATCH TASK.
000397: 01,3433           45237                           DCS      ENDTASK
000398: 01,3434           53431                           DXCH     LST2       +16D
000399: 01,3435           53427                           DXCH     LST2       +14D
000400: 01,3436           53425                           DXCH     LST2       +12D
000401: 01,3437           53423                           DXCH     LST2       +10D
000402: 01,3440           53421                           DXCH     LST2       +8D
000403: 01,3441           53417                           DXCH     LST2       +6
000404: 01,3442           53415                           DXCH     LST2       +4
000405: 01,3443           53413                           DXCH     LST2       +2
000406: 01,3444           53411                           DXCH     LST2
000407:
000408: 01,3445           56001                           XCH      L
000409: 01,3446           00006                           EXTEND
000410: 01,3447           01007                           WRITE    SUPERBNK                              #  SET SUPERBANK FROM BBCON OF 2CADR
000411: 01,3450           56001                           XCH      L                                     #  RESTORE TO L FOR DXCH Z.
000412: 01,3451           52006                           DTCB
000413:


000415:                                                                                                  #  RETURN, AFTER EXECUTION OF T3 OVERFLOW TASK:
000416:
000417:    5261                                           BLOCK    02
000418:    5261                                           COUNT*   $$/WAIT
000419:    5261           10734        TASKOVER           CCS      RUPTAGN                               #  IF +1 RETURN TO T3RUPT, IF -0 RESUME.
000420:    5262           35220                           CAF      WAITBB
000421:    5263           54006                           TS       BBANK
000422:    5264           13414                           TCF      T3RUPT2                               #  DISPATCH NEXT TASK IF IT WAS DUE.
000423:
000424:    5265           30016                           CA       BANKRUPT
000425:    5266           00006                           EXTEND
000426:    5267           01007                           WRITE    SUPERBNK                              #  RESTORE SUPERBANK BEFORE RESUME IS DONE
000427:
000428:    5270           00006        RESUME             EXTEND
000429:    5271           22012                           QXCH     QRUPT
000430:    5272           30016        NOQRSM             CA       BANKRUPT
000431:    5273           56006                           XCH      BBANK
000432:    5274           52011        NOQBRSM            DXCH     ARUPT
000433:    5275           00003                           RELINT
000434:    5276           50017                           RESUME
000435:


000437:                                                                                                  #  LONGCALL
000438:                                                                                                  #  PROGRAM DESCRIPTION                           DATE - 17 MARCH 1967
000439:                                                                                                  #  PROGRAM WRITTEN BY W.H.VANDEVER               LOG SECTION WAITLIST
000440:                                                                                                  #  MOD BY - R. MELANSON TO ADD DOCUMENTATION     ASSEMBLY SUNDISK REV. 100
000441:
000442:                                                                                                  #  FUNCTIONAL DESCRIPTION -
000443:                                                                                                  #        LONGCALL IS CALLED WITH THE DELTA TIME ARRIVING IN A,L SCALED AS TIME2,TIME1 WITH THE 2CADR OF THE TASK
000444:                                                                                                  #        IMMEDIATELY FOLLOWING THE TC LONGCALL.  FOR EXAMPLE, IT MIGHT BE DONE AS FOLLOWS WHERE TIMELOC IS THE NAME OF
000445:                                                                                                  #        A DP REGISTER CONTAINING A DELTA TIME AND WHERE TASKTODO IS THE NAME OF THE LOCATION AT WHICH LONGCALL IS TO
000446:                                                                                                  #        START
000447:                                                                                                  #  CALLING SEQUENCE -
000448:                                                                                                  #                EXTEND
000449:                                                                                                  #                DCA     TIMELOC
000450:                                                                                                  #                TC      LONGCALL
000451:                                                                                                  #                2CADR   TASKTODO
000452:                                                                                                  #  NORMAL EXIT MODE -
000453:                                                                                                  #        1).     TC      WAITLIST
000454:                                                                                                  #        2).     DTCB    (TO L+3 OF CALLING ROUTINE 1ST PASS THRU LONGCYCL)
000455:                                                                                                  #        3).     DTCB    (TO TASKOVER ON SUBSEQUENT PASSES THRU LONGCYCL)
000456:                                                                                                  #  ALARM OR ABORT EXIT MODE -
000457:                                                                                                  #        NONE
000458:                                                                                                  #  OUTPUT -
000459:                                                                                                  #        LONGTIME AND LONGTIME+1 = DELTA TIME
000460:                                                                                                  #        LONGEXIT AND LONGEXIT+1 = RETURN 2CADR
000461:                                                                                                  #        LONGCADR AND LONGCADR+1 = TASK 2CADR
000462:                                                                                                  #        A = SINGLE PRECISION TIME FOR WAITLIST
000463:                                                                                                  #  ERASABLE INITIALIZATION -
000464:                                                                                                  #        A = MOST SIGNIFICANT PART OF DELTA TIME
000465:                                                                                                  #        L = LEAST SIGNIFICANT PART OF DELTA TIME
000466:                                                                                                  #        Q = ADDRESS OF 2CADR TASK VALUE
000467:                                                                                                  #  DEBRIS -
000468:                                                                                                  #        A,Q,L
000469:                                                                                                  #        LONGCADR AND LONGCADR+1
000470:                                                                                                  #        LONGEXIT AND LONGEXIT+1
000471:                                                                                                  #        LONGTIME AND LONGTIME+1
000472:                                                                                                  #  *** THE FOLLOWING IS TO BE IN FIXED-FIXED AND UNSWITCHED ERRASIBLE ***
000473:
000474:    5277                                           BLOCK    02
000475:    5277  E3,1400                                  EBANK=   LST1
000476:    5277           53154        LONGCALL           DXCH     LONGTIME                              #  OBTAIN THE DELTA TIME
000477:
000478:    5300           00006                           EXTEND                                         #  OBTAIN THE 2CADR


000480:    5301           50002                           NDX      Q
000481:    5302           30001                           DCA      0
000482:    5303           53150                           DXCH     LONGCADR
000483:
000484:    5304           00006                           EXTEND                                         #  NOW GO TO THE APPROPRIATE SWITCHED BANK
000485:    5305           35310                           DCA      LGCL2CDR                              #  FOR THE REST OF LONGCALL
000486:    5306           52006                           DTCB
000487:
000488:    5307  E3,1400                                  EBANK=   LST1
000489:    5307           03452 02063  LGCL2CDR           2CADR    LNGCALL2
000490:
000491:                                                                                                  #  *** THE FOLLOWING MAY BE IN A SWITCHED BANK, INCLUDING ITS ERASABLE ***
000492:
000493: 01,3452                                           BANK     01
000494: 01,3452                                           COUNT*   $$/WAIT
000495: 01,3452           23435        LNGCALL2           LXCH     LONGEXIT   +1                         #  SAVE THE CORRECT BB FOR RETURN
000496: 01,3453           34752                           CA       TWO                                   #  OBTAIN THE RETURN ADDRESS
000497: 01,3454           26002                           ADS      Q
000498: 01,3455           55434                           TS       LONGEXIT
000499:
000500: 01,3456           31153                           CA       LONGTIME                              #  CHECK FOR LEGITIMATE DELTA-TIME
000501: 01,3457           10000                           CCS      A
000502: 01,3460           13466                           TCF      LONGCYCL                              #  HI-ORDER OK --> ALL IS OK.
000503: 01,3461           13463                           TCF      +2                                    #  HI-ORDER ZERO --> CHECK LO-ORDER.
000504: 01,3462           13521                           TCF      LONGPOOH                              #  HI-ORDER NEG. --> NEG. DT
000505: 01,3463           31154                 +2        CA       LONGTIME   +1                         #  CHECK LO-ORDER FOR ZERO OR NEGATIVE.
000506: 01,3464           00006                           EXTEND
000507: 01,3465           63521                           BZMF     LONGPOOH                              #  BAD DELTA-TIME.  ABORT
000508:
000509:                                                                                                  #  *** WAITLIST TASK LONGCYCL ***
000510:
000511: 01,3466           00006        LONGCYCL           EXTEND                                         #  CAN WE SUCCESFULLY TAKE ABOUT 1.25
000512: 01,3467           43500                           DCS      DPBIT14                               #  MINUTES OFF OF LONGTIME
000513: 01,3470           21154                           DAS      LONGTIME
000514:
000515: 01,3471           11154                           CCS      LONGTIME   +1                         #  THE REASONIBG BEHIND THIS PART IS
000516: 01,3472           13511                           TCF      MUCHTIME                              #  INVOLVED, TAKING INTO ACCOUNT THAT THE
000517:                                                                                                  #  WORDS MAY NOT BE SIGNED CORRECTED (DP
000518:                                                                                                  #  BASIC INSTRUCTIONS
000519:                                                                                                  #  DO NOT SIGN CORRECT) AND THAT WE SUBTRAC
000520:                                                                                                  #  TED BIT14 (1 OVER HALF THE POS. VALUE
000521:                                                                                                  #  REPRESENTIBLE IN SINGLE WORD)
000522: 01,3473           13474                           NOOP                                           #  CAN:T GET HERE **********
000523: 01,3474           13475                           TCF      +1
000524: 01,3475           11153                           CCS      LONGTIME
000525: 01,3476           13511                           TCF      MUCHTIME
000526: 01,3477           00000        DPBIT14            OCT      00000
000527: 01,3500           20000                           OCT      20000
000528:
000529:                                                                                                  #  LONGCALL


000531: 01,3501           34736        LASTTIME           CA       BIT14                                 #  GET BACK THE CORRECT DELTA T FOR WAITLIST
000532: 01,3502           27154                           ADS      LONGTIME   +1
000533: 01,3503           05203                           TC       WAITLIST
000534: 01,3504  E3,1400                                  EBANK=   LST1
000535: 01,3504           03516 02063                     2CADR    GETCADR                               #  THE ENTRY TO OUR LONGCADR
000536:
000537: 01,3506           33520        LONGRTRN           CA       TSKOVCDR                              #  SET IT UP SO THAT ONLY THE FIRST EXIT IS
000538: 01,3507           53435                           DXCH     LONGEXIT                              #  TO THE CALLER OF LONGCALL
000539: 01,3510           52006                           DTCB                                           #  THE REST ARE TO TASKOVER
000540:
000541: 01,3511           34736        MUCHTIME           CA       BIT14                                 #  WE HAVE OVER OUR ABOUT 1.25 MINUTES
000542: 01,3512           05203                           TC       WAITLIST                              #  SO SET UP FOR ANOTHER CYCLE THROUGH HERE
000543: 01,3513  E3,1400                                  EBANK=   LST1
000544: 01,3513           03466 02063                     2CADR    LONGCYCL
000545:
000546: 01,3515           13506                           TCF      LONGRTRN                              #  NOW EXIT PROPERLY
000547:
000548:                                                                                                  #  *** WAITLIST TASK GETCADR ***
000549:
000550: 01,3516           53150        GETCADR            DXCH     LONGCADR                              #  GET THE LONGCALL THAT WE WISHED TO START
000551: 01,3517           52006                           DTCB                                           #  AND TRANSFER CONTROL TO IT
000552:
000553: 01,3520           05261        TSKOVCDR           GENADR   TASKOVER
000554: 01,3521           53435        LONGPOOH           DXCH     LONGEXIT
000555: 01,3522           13524                           TCF      +2
000556: 01,3523           52062        WAITPOOH           DXCH     WAITEXIT
000557: 01,3524           05726                 +2        TC       POODOO1
000558: 01,3525           01204                           OCT      01204
000559:

End of include-file WAITLIST.agc.  Parent file is MAIN.agc


