
Source Code


000002:                                                                                                  ## Copyright:   Public domain.
000003:                                                                                                  ## Filename:    AGS_INITIALIZATION.agc
000004:                                                                                                  ## Purpose:     A section of Luminary revision 210.
000005:                                                                                                  ##              It is part of the source code for the Lunar Module's (LM)
000006:                                                                                                  ##              Apollo Guidance Computer (AGC) for Apollo 15-17.
000007:                                                                                                  ##              This file is intended to be a faithful transcription, except
000008:                                                                                                  ##              that the code format has been changed to conform to the
000009:                                                                                                  ##              requirements of the yaYUL assembler rather than the
000010:                                                                                                  ##              original YUL assembler.
000011:                                                                                                  ## Reference:   pp. 218-221
000012:                                                                                                  ## Assembler:   yaYUL
000013:                                                                                                  ## Contact:     Ron Burkey <info@sandroid.org>.
000014:                                                                                                  ## Website:     www.ibiblio.org/apollo/index.html
000015:                                                                                                  ## Mod history: 2016-11-17 JL   Created from Luminary131 version.
000016:                                                                                                  ##              2016-11-22 HG   Transcribed
000017:                                                                                                  ##              2016-12-23 RSB  Proofed comment text with octopus/ProoferComments
000018:                                                                                                  ##                              and fixed all errors found.
000019:


000021:
000022:                                                                                                  #  PROGRAM NAME:   AGS INITIALIZATION (R47)
000023:
000024:                                                                                                  #  WRITTEN BY  :   RHODE/KILROY/FOLLETT
000025:
000026:                                                                                                  #  MOD NO. :       0
000027:                                                                                                  #  DATE    :       23 MARCH 1967
000028:                                                                                                  #  MOD BY  :       KILROY
000029:
000030:                                                                                                  #  MOD NO. :       1
000031:                                                                                                  #  DATE    :       28 OCTOBER 1967
000032:                                                                                                  #  MOD BY  :       FOLLETT
000033:
000034:                                                                                                  #  FUNCT. DESC.:   (1) TO PROVIDE THE AGS ABORT ELECTRONICS ASSEMBLY(AEA) WITH THE LEM AND CSM STATE VECTORS
000035:                                                                                                  #                  (POSITION,VELOCITY,TIME) IN LEM IMU COORDINATES BY MEANS OF THE LGC DIGITAL DOWNLINK.
000036:
000037:                                                                                                  #                  (2) TO ZERO THE ICDU, LGC AND AEA GIMBAL ANGLE COUNTERS SIMULTANEOUSLY IN ORDER TO ESTABLISH A
000038:                                                                                                  #                  COMMON ZERO REFERENCE FOR THE MEASUREMENT OF GIMBAL(EULER) ANGLES WHICH DEFINE LEM ATTITUDE
000039:                                                                                                  #                  (3) TO ESTABLISH THE GROUND ELAPSED TIME OF AEA CLOCK ZERO.(IF AN AEA CLOCK ZERO IS
000040:                                                                                                  #                  REQUESTED DURING THIS PROGRAM
000041:
000042:                                                                                                  #  LOG SECTION :   AGS INITIALIZATION
000043:
000044:                                                                                                  #  CALLING SEQ :   PROGRAM IS ENTERED WHEN ASTRONAUT KEYS V47E ON DSKY.
000045:                                                                                                  #                  R47 MAY BE CALLED AT ANY TIME EXCEPT WHEN ANOTHER EXTENDED VERB IS IN PROGRESS
000046:
000047:                                                                                                  #  SUBROUTINES
000048:                                                                                                  #  CALLED      :
000049:
000050:                                                                                                  #  NORMAL EXIT :  ENDEXT
000051:
000052:                                                                                                  #  ALARM/ABORT :  ALARM - BAD REFSMMAT - CODE:220
000053:                                                                                                  #                 OPERATOR ERROR IF V47 SELECTED DURING ANOTHER EXTENDED VERB.
000054:
000055:                                                                                                  #  ERASABLES
000056:                                                                                                  #  USED        :  SAMPTIME    (2) TIME OF :ENTER: KEYSTROKE
000057:                                                                                                  #                 AGSK        (2) GROUND ELAPSED TIME OF THE AEA CLOCK :ZERO:
000058:                                                                                                  #                 AGSBUFF   (140) CONTAINS AGS INITIALIZATION DATA (SEE :OUTPUT: BELOW)
000059:                                                                                                  #                 AGSWORD     (1) PREVIOUS DOWNLIST SAVED HERE
000060:
000061: 05,2454  E6,1771                                  EBANK=   AGSK
000062: 40,2000                                           BANK     40
000063: 32,2000                                           SETLOC   R47
000064: 32,2000                                           BANK
000065:
000066: 32,2005                                           COUNT*   $$/R47
000067:
000068: 32,2005           34730        AGSINIT            CAF      REFSMBIT
000069: 32,2006           70077                           MASK     FLAGWRD3                              #  CHECK REFSMFLG.
000070: 32,2007           10000                           CCS      A
000071: 32,2010           02017                           TC       REDSPTEM                              #  REFSMMAT IS OK
000072:


000074:
000075: 32,2011           05571                           TC       ALARM                                 #  REFSMMAT IS BAD
000076: 32,2012           00220                           OCT      220
000077: 32,2013           05474                           TC       ENDEXT
000078:
000079: 32,2014           00006        NEWAGS             EXTEND
000080: 32,2015           30014                           DCA      SAMPTIME                              #  TIME OF THE :ENTER: KEYSTROKE
000081: 32,2016           53772                           DXCH     AGSK                                  #  BECOMES NEW AEA CLOCK :ZERO:
000082:
000083: 32,2017           00006        REDSPTEM           EXTEND
000084: 32,2020           31772                           DCA      AGSK
000085: 32,2021           53051                           DXCH     DSPTEMX
000086: 32,2022           32166        AGSDISPK           CAF      V06N16
000087: 32,2023           04607                           TC       BANKCALL                              #  R1 = 00XXX. HRS., R2 = 000XX MIN.,
000088: 32,2024           20323                           CADR     GOMARKF                               #  R3 = 0XX.XX SEC.
000089: 32,2025           05474                           TC       ENDEXT                                #  TERMINATE RETURN
000090: 32,2026           02036                           TC       AGSVCALC                              #  PROCEED RETURN
000091: 32,2027           44737                           CS       BIT6                                  #  IS ENTER VIA A V32
000092: 32,2030           60154                           AD       MPAC
000093: 32,2031           00006                           EXTEND
000094: 32,2032           12014                           BZF      NEWAGS                                #  YES, USE KEYSTROKE TIME FOR NEW AGSK
000095:
000096: 32,2033           00006                           EXTEND                                         #  NO, NEW AGSK LOADED VIA V25
000097: 32,2034           31051                           DCA      DSPTEMX                               #  LOADED INTO DSPTEMX BY KEYING
000098: 32,2035           02016                           TC       REDSPTEM   -1                         #  V25E FOLLOWED BY HRS.,MINS.,SECS.
000099:                                                                                                  #  DISPLAY THE NEW K
000100:
000101: 32,2036           06060        AGSVCALC           TC       INTPRET
000102: 32,2037           77414                           SET      EXIT
000103: 32,2040           02076                                    XDSPFLAG
000104:
000105: 32,2041           32166                           CAF      V06N16
000106: 32,2042           04607                           TC       BANKCALL
000107: 32,2043           20632                           CADR     EXDSPRET
000108:
000109: 32,2044           06060                           TC       INTPRET                               #  EXTRAPOLATE LEM AND CSM STATE VECTORS
000110: 32,2045           77634                           RTB                                            #  TO THE PRESENT TIME
000111: 32,2046           21603                                    LOADTIME                              #  LOAD MPAC WITH TIME2,TIME1
000112: 32,2047           34041                           STCALL   TDEC1                                 #  CALCULATE LEM STATE VECTOR
000113: 32,2050           27115                                    LEMPREC
000114: 32,2051           77624                           CALL                                           #  CALL ROUTINE TO CONVERT TO SM COORDS AND
000115: 32,2052           64126                                    SCALEVEC                              #  PROVIDE PROPER SCALING
000116: 32,2053           16172                           STODL    AGSBUFF                               #  (LEMPREC AND CSMPREC LEAVE TDEC1 IN TAT)
000117: 32,2054           00015                                    TAT                                   #  TAT = TIME TO WHICH RATT1 AND VATT1 ARE
000118: 32,2055           34041                           STCALL   TDEC1                                 #  COMPUTED(CSEC SINCE CLOCK START B-28).
000119: 32,2056           27101                                    CSMPREC                               #  CALCULATE CSM STATE VECTOR FOR SAME TIME
000120: 32,2057           77624                           CALL
000121: 32,2060           64126                                    SCALEVEC
000122: 32,2061           16200                           STODL    AGSBUFF    +6
000123: 32,2062           00015                                    TAT
000124: 32,2063           56225                           DSU      DDV                                   #  CALCULATE AND STORE THE TIME
000125:


000127: 32,2064           03372                                    AGSK
000128: 32,2065           24171                                    TSCALE
000129: 32,2066           02206                           STORE    AGSBUFF    +12D
000130: 32,2067           77776                           EXIT
000131:
000132: 32,2070           34744                           CAF      LAGSLIST
000133: 32,2071           54333                           TS       DNLSTCOD
000134:
000135: 32,2072           32172                           CAF      20SEC                                 #  DELAY FOR 20 SEC WHILE THE AGS
000136: 32,2073           04607                           TC       BANKCALL                              #  DOWNLIST IS TRANSMITTED
000137: 32,2074           01736                           CADR     DELAYJOB
000138:
000139: 32,2075           31321                           CA       AGSWORD
000140: 32,2076           54333                           TS       DNLSTCOD                              #  RETURN TO THE OLD DOWNLIST
000141: 32,2077           34735                           CAF      IMUSEBIT
000142: 32,2100           70074                           MASK     FLAGWRD0                              #  CHECK IMUSE FLAG.
000143: 32,2101           10000                           CCS      A
000144: 32,2102           02120                           TC       AGSEND                                #  IMU IS BEING USED - DO NOT ZERO
000145: 32,2103           11301        CKSTALL            CCS      IMUCADR                               #  CHECK FOR IMU USAGE WHICH AVOIDS THE
000146: 32,2104           12107                           TCF      +3                                    #  IMUSE BIT:  I.E., IMU COMPENSATION.
000147: 32,2105           12113                           TCF      +6                                    #  FREE.  GO AHEAD WITH THE IMU ZERO.
000148: 32,2106           12107                           TCF      +1
000149: 32,2107           34354                 +3        CAF      TEN                                   #  WAIT .1 SEC AND TRY AGAIN.
000150: 32,2110           04607                           TC       BANKCALL
000151: 32,2111           01736                           CADR     DELAYJOB
000152: 32,2112           12103                           TCF      CKSTALL
000153:
000154: 32,2113           04607                 +6        TC       BANKCALL                              #  IMU IS NOT IN USE
000155: 32,2114           16701                           CADR     IMUZERO                               #  SET IMU ZERO DISCRETE FOR 320 MSECS
000156: 32,2115           04607                           TC       BANKCALL                              #  WAIT 3 SEC FOR COUNTERS TO INCREMENT
000157: 32,2116           17735                           CADR     IMUSTALL
000158: 32,2117           02120                           TC       AGSEND
000159: 32,2120           32167        AGSEND             CAF      V50N16
000160: 32,2121           04607                           TC       BANKCALL
000161: 32,2122           20334                           CADR     GOMARK3
000162: 32,2123           15474                           TCF      ENDEXT
000163: 32,2124           15474                           TCF      ENDEXT
000164: 32,2125           05474                           TC       ENDEXT
000165:
000166: 32,2126           64375        SCALEVEC           VLOAD    MXV
000167: 32,2127           00025                                    VATT1
000168: 32,2130           01732                                    REFSMMAT
000169: 32,2131           72561                           VXSC     VSL2
000170: 32,2132           24176                                    VSCALE
000171: 32,2133           53255                           VAD      VAD                                   #  THIS SECTION ROUNDS THE VECTOR, AND
000172: 32,2134           24200                                    AGSRND1                               #  CORRECTS FOR THE FACT THAT THE AGS
000173: 32,2135           24206                                    AGSRND2                               #  IS A 2 S COMPLIMENT MACHINE WHILE THE
000174: 32,2136           77634                           RTB                                            #  LGC IS A 1 S COMPLIMENT MACHINE.
000175: 32,2137           21770                                    VECSGNAG
000176: 32,2140           24025                           STOVL    VATT1
000177:


000179: 32,2141           00017                                    RATT1
000180: 32,2142           74321                           MXV      VXSC
000181: 32,2143           01732                                    REFSMMAT
000182: 32,2144           24174                                    RSCALE
000183: 32,2145           53212                           VSL8     VAD                                   #  AGAIN THIS SECTION ROUNDS.  TWO VECTORS
000184: 32,2146           24200                                    AGSRND1                               #  ARE ADDED TO DEFEAT ALSIGNAG IN THE
000185: 32,2147           47055                           VAD      RTB                                   #  CASE OF A HIGH-ORDER ZERO COUPLED WITH
000186: 32,2150           24206                                    AGSRND2                               #  A LOW ORDER NEGATIVE PART.
000187: 32,2151           21770                                    VECSGNAG
000188: 32,2152           77750                           LXA,1
000189: 32,2153           00024                                    VATT1
000190: 32,2154           72130                           SXA,1    LXA,1
000191: 32,2155           00155                                    MPAC       +1
000192: 32,2156           00026                                    VATT1      +2
000193: 32,2157           72130                           SXA,1    LXA,1
000194: 32,2160           00160                                    MPAC       +4
000195: 32,2161           00030                                    VATT1      +4
000196: 32,2162           43530                           SXA,1    RVQ
000197: 32,2163           00162                                    MPAC       +6
000198:
000199: 32,2164     4744               LAGSLIST           =        ONE
000200: 32,2164           00216        V01N14             VN       0114
000201: 32,2165           14400        V50N00A            VN       5000
000202: 32,2166     6010               V00N25             EQUALS   OCT31
000203: 32,2166           01420        V06N16             VN       0616
000204: 32,2167     4233               V00N34             EQUALS   34DEC
000205: 32,2167           14420        V50N16             VN       5016
000206: 32,2170           03100 00000  TSCALE             2DEC     100        B-10                       #  CSEC TO SEC SCALE FACTOR
000207: 32,2172           03720        20SEC              DEC      2000       B-14
000208: 32,2173           15077 05041  RSCALE             2DEC     3.280839   B-3                        #  METERS TO FEET SCALE FACTOR
000209: 32,2175           24402 25724  VSCALE             2DEC     3.280839   E2         B-9             #  METERS/CS TO FEET/SEC SCALE FACTOR
000210: 32,2177           00000 60000  AGSRND1            2OCT     0000060000
000211: 32,2201           00000 60000                     2OCT     0000060000
000212: 32,2203           00000 60000                     2OCT     0000060000
000213: 32,2205           00000 37777  AGSRND2            2OCT     0000037777
000214: 32,2207           00000 37777                     2OCT     0000037777
000215: 32,2211           00000 37777                     2OCT     0000037777
000216: 32,2213  30,2000                                  SBANK=   LOWSUPER                              #  FOR SUBSEQUENT LOW 2CADRS.

End of include-file AGS_INITIALIZATION.agc.  Parent file is MAIN.agc


