
Source Code


000002:                                                                                                  ## Copyright:   Public domain.
000003:                                                                                                  ## Filename:    ALARM_AND_ABORT.agc
000004:                                                                                                  ## Purpose:     A section of Luminary revision 210.
000005:                                                                                                  ##              It is part of the source code for the Lunar Module's (LM)
000006:                                                                                                  ##              Apollo Guidance Computer (AGC) for Apollo 15-17.
000007:                                                                                                  ##              This file is intended to be a faithful transcription, except
000008:                                                                                                  ##              that the code format has been changed to conform to the
000009:                                                                                                  ##              requirements of the yaYUL assembler rather than the
000010:                                                                                                  ##              original YUL assembler.
000011:                                                                                                  ## Reference:   pp. 1378-1382
000012:                                                                                                  ## Assembler:   yaYUL
000013:                                                                                                  ## Contact:     Ron Burkey <info@sandroid.org>.
000014:                                                                                                  ## Website:     www.ibiblio.org/apollo/index.html
000015:                                                                                                  ## Mod history: 2016-11-17 JL   Created from Luminary131 version.
000016:                                                                                                  ##              2016-11-29 TB   Transcribed
000017:                                                                                                  ##              2016-12-07 HG   Fix P00 -> POO
000018:                                                                                                  ##              2016-12-11 HG   add missing opertaion MASK FLGWRD10
000019:                                                                                                  ##              2016-12-12 HG   add [WORKAROUND] using SBANK=
000020:


000022:                                                                                                  #  THE FOLLOWING SUBROUTINE MAY BE CALLED TO DISPLAY A NON-ABORTIVE ALARM CONDITION.  IT MAY BE CALLED
000023:                                                                                                  #  EITHER IN INTERRUPT OR UNDER EXECUTIVE CONTROL.
000024:
000025:                                                                                                  #  CALLING SEQUENCE IS AS FOLLOWS:
000026:                                                                                                  #                TC      ALARM
000027:                                                                                                  #                OCT     AAANN           # ALARM NO. NN IN GENERAL AREA AAA.
000028:                                                                                                  #                                        # (RETURNS HERE)
000029:
000030:    5571                                           BLOCK    02
000031:    4000                                           SETLOC   FFTAG7
000032:    4000                                           BANK
000033:
000034:    5571     0375                                  EBANK=   FAILREG
000035:
000036:    5571                                           COUNT*   $$/ALARM
000037:                                                                                                  #  ALARM TURNS ON THE PROGRAM ALARM LIGHT, BUT DOES NOT DISPLAY.
000038:
000039:    5571           00004        ALARM              INHINT
000040:
000041:    5572           30002                           CA       Q
000042:    5573           55363        ALARM2             TS       ALMCADR
000043:    5574           50002                           INDEX    Q
000044:    5575           30000                           CA       0
000045:    5576           54001        BORTENT            TS       L
000046:
000047:    5577           30006        PRIOENT            CA       BBANK
000048:    5600           00006                 +1        EXTEND
000049:    5601           04007                           ROR      SUPERBNK                              #  ADD SUPER BITS.
000050:    5602           55364                           TS       ALMCADR    +1
000051:
000052:    5603           30002        LARMENT            CA       Q                                     #  STORE RETURN FOR ALARM
000053:    5604           54061                           TS       ITEMP1
000054:
000055:    5605           10375        CHKFAIL1           CCS      FAILREG                               #  IS ANYTHING IN FAILREG
000056:    5606           15612                           TCF      CHKFAIL2                              #  YES TRY NEXT REG
000057:    5607           30001                           CA       L
000058:    5610           54375                           TS       FAILREG
000059:    5611           15616                           TCF      PROGLARM                              #  TURN ALARM LIGHT ON FOR FIRST ALARM
000060:
000061:    5612           10376        CHKFAIL2           CCS      FAILREG    +1
000062:    5613           15616                           TCF      PROGLARM
000063:    5614           30001                           CA       L
000064:    5615           54376                           TS       FAILREG    +1
000065:
000066:    5616           22377        PROGLARM           LXCH     FAILREG    +2                         #  STORE AS "MOST RECENT" ALARM CODE
000067:
000068:    5617           41035                           CS       DSPTAB     +11D                       #  TURN ON PROGRAM ALARM IF OFF
000069:    5620           75634                           MASK     OCT40400
000070:    5621           27035                           ADS      DSPTAB     +11D
000071:


000073:    5622           56061        MULTEXIT           XCH      ITEMP1                                #  OBTAIN RETURN ADDRESS IN A
000074:    5623           00003                           RELINT
000075:    5624           50000                           INDEX    A
000076:    5625           00001                           TC       1
000077:
000078:                                                                                                  #  PRIOLARM DISPLAYS V05N09 VIA PRIODSPR WITH 3 RETURNS TO THE USER FROM THE ASTRONAUT AT CALL LOC +1,+2,+3 AND
000079:                                                                                                  #  AN IMMEDIATE RETURN TO THE USER AT CALL LOC +4.  EXAMPLE FOLLOWS,
000080:                                                                                                  #                CAF     OCTXX           # ALARM CODE
000081:                                                                                                  #                TC      BANKCALL
000082:                                                                                                  #                CADR    PRIOLARM
000083:                                                                                                  #                ...     ...
000084:                                                                                                  #                ...     ...
000085:                                                                                                  #                ...     ...             # ASTRONAUT RETURN
000086:                                                                                                  #                TC      PHASCHNG        # IMMEDIATE RETURN TO USER. RESTART
000087:                                                                                                  #                OCT     X.1             # PHASE CHANGE FOR PRIO DISPLAY
000088:
000089: 10,3572                                           BANK     10
000090: 10,2000                                           SETLOC   DISPLAYS
000091: 10,2000                                           BANK
000092:
000093: 10,3572                                           COUNT*   $$/DSPLA
000094: 10,3572           00004        PRIOLARM           INHINT                                         #  * * * KEEP IN DISPLAY ROUTINES BANK
000095: 10,3573           54001                           TS       L                                     #  SAVE ALARM CODE
000096:
000097: 10,3574           30133                           CA       BUF2                                  #  2 CADR OF PRIOLARM USER
000098: 10,3575           55363                           TS       ALMCADR
000099: 10,3576           30134                           CA       BUF2       +1
000100: 10,3577           05600                           TC       PRIOENT    +1                         #  * LEAVE L ALONE
000101: 10,3600           77467        -2SEC              DEC      -200       B-14                       #  *** DON'T MOVE
000102: 10,3601           34777                           CAF      V05N09
000103: 10,3602           12477                           TCF      PRIODSPR
000104:
000105:    5626                                           BLOCK    02
000106:    4000                                           SETLOC   FFTAG7
000107:    4000                                           BANK
000108:
000109:    5626                                           COUNT*   $$/ALARM
000110:    5626           00004        BAILOUT            INHINT
000111:    5627           30002                           CA       Q
000112:    5630           55363                           TS       ALMCADR
000113:
000114:    5631           50002                           INDEX    Q
000115:    5632           30000                           CAF      0
000116:    5633           05576                           TC       BORTENT
000117:    5634           40400        OCT40400           OCT      40400
000118:
000119:    5635           00004                           INHINT
000120:    5636           34743        WHIMPER            CA       TWO
000121:    5637           60005                           AD       Z


000123:    5640           54017                           TS       BRUPT
000124:    5641           50017                           RESUME
000125:    5642           04626                           TC       POSTJUMP                              #  RESUME SENDS CONTROL HERE
000126:    5643           12767                           CADR     ENEMA
000127:    5644           00004        POODOO             INHINT
000128:    5645           30002                           CA       Q
000129:    5646           55363        ABORT2             TS       ALMCADR
000130:    5647           50002                           INDEX    Q
000131:    5650           30000                           CAF      0
000132:    5651           05576                           TC       BORTENT
000133:    5652           77770        OCT77770           OCT      77770                                 #  DON'T MOVE
000134:
000135:    5653           11043                           CCS      EXTVBACT                              #  DO BAILOUT NOT POODOO IF EXT. VB. ACTIVE
000136:    5654           15635                           TCF      WHIMPER    -1
000137:
000138:    5655           34756                           CAF      OCT35                                 #  4.35SPOT FOR GOPOODOO
000139:    5656           54001                           TS       L
000140:    5657           40000                           COM
000141:    5660           52760                           DXCH     -PHASE4
000142:    5661           00004        GOPOODOO           INHINT
000143:    5662           04607                           TC       BANKCALL                              #  RESET STATEFLG, REINTFLG, AND NODOFLAG.
000144:                                                                                                  #    ALSO RNDVZFLG, P25FLAG AND TRACKFLG
000145:    5663           43007                           CADR     FLAGS
000146:    5664           30103                           CA       FLAGWRD7                              #  IS SERVICER CURRENTLY IN OPERATION?
000147:    5665           74737                           MASK     V37FLBIT
000148:    5666           10000                           CCS      A
000149:    5667           15675                           TCF      STRTIDLE
000150:    5670           04607                           TC       BANKCALL                              #  TERMINATE GRPS 1, 3, 5, AND 6
000151:    5671           12654                           CADR     V37KLEAN
000152:    5672           04607                           TC       BANKCALL                              #  TERMINATE GRPS 2, 4, 1, 3, 5, AND 6
000153:    5673           12645                           CADR     MR.KLEAN                              #        (I.E., GRP 4 LAST)
000154:    5674           15636                           TCF      WHIMPER
000155:    5675           35737        STRTIDLE           CAF      BBSERVDL
000156:    5676           04720                           TC       SUPERSW
000157:    5677           04607                           TC       BANKCALL                              #  PUT SERVICER INTO ITS "GROUND" STATE
000158:    5700           57324                           CADR     SERVIDLE                              #  AND PROCED TO GOTOPOOH.
000159:    5701           00004        CCSHOLE            INHINT
000160:    5702           30002                           CA       Q
000161:    5703           05646                           TC       ABORT2
000162:    5704           21103        OCT21103           OCT      21103
000163:    5705           00004        CURTAINS           INHINT
000164:    5706           30002                           CA       Q
000165:    5707           05573                           TC       ALARM2
000166:    5710           00217        OCT217             OCT      00217
000167:    5711           01363                           TC       ALMCADR                               #  RETURN TO USER
000168:
000169:    5712           00004        BAILOUT1           INHINT
000170:    5713           53364                           DXCH     ALMCADR
000171:    5714           35736                           CAF      ADR40400
000172:    5715           54061        BOTHABRT           TS       ITEMP1
000173:


000175:    5716           50002                           INDEX    Q
000176:    5717           30000                           CAF      0
000177:    5720           54001                           TS       L
000178:    5721           15605                           TCF      CHKFAIL1
000179:
000180:    5722           00004        POODOO1            INHINT
000181:    5723           53364                           DXCH     ALMCADR
000182:    5724           35735                           CAF      ADR77770
000183:    5725           15715                           TCF      BOTHABRT
000184:
000185:    5726           00004        ALARM1             INHINT
000186:    5727           53364                           DXCH     ALMCADR
000187:    5730           00004        ALMNCADR           INHINT
000188:    5731           50002                           INDEX    Q
000189:    5732           30000                           CA       0
000190:    5733           54001                           TS       L
000191:    5734           15603                           TCF      LARMENT
000192:
000193:    5735           15652        ADR77770           TCF      OCT77770
000194:    5736           15634        ADR40400           TCF      OCT40400


000196:    5737  30,2000                                  SBANK=   LOWSUPER                              #  To adjust subsequent BBCON


000198:    5737     5146               DOALARM            EQUALS   ENDOFJOB
000199:    5737  E7,1515                                  EBANK=   DVCNTR
000200:    5737           56067        BBSERVDL           BBCON    SERVIDLE
000201:
000202:                                                                                                  #  CALLING SEQUENCE FOR VARALARM
000203:                                                                                                  #                CAF     (ALARM)
000204:                                                                                                  #                TC      VARALARM
000205:
000206:                                                                                                  #  VARALARM TURNS ON PROGRAM ALARM LIGHT BUT DOES NOT DISPLAY
000207:
000208:    5740           00004        VARALARM           INHINT
000209:
000210:    5741           54001                           TS       L                                     #  SAVE USERS ALARM CODE
000211:
000212:    5742           30002                           CA       Q                                     #  SAVE USERS Q
000213:    5743           55363                           TS       ALMCADR
000214:
000215:    5744           05577                           TC       PRIOENT
000216:    5745           00014        OCT14              OCT      14                                    #  DONT MOVE
000217:
000218:    5746           01363                           TC       ALMCADR                               #  RETURN TO USER
000219:
000220:    5747     5636               ABORT              EQUALS   WHIMPER
000221: 21,2000                                           SETLOC   ABTFLGS
000222: 21,2000                                           BANK
000223: 21,3007                                           COUNT*   $$/ALARM
000224:
000225: 21,3007           44740        FLAGS              CS       STATEBIT
000226: 21,3010           70077                           MASK     FLAGWRD3
000227: 21,3011           54077                           TS       FLAGWRD3
000228: 21,3012           44736                           CS       REINTBIT
000229: 21,3013           70106                           MASK     FLGWRD10
000230:


000232: 21,3014           54106                           TS       FLGWRD10
000233: 21,3015           44744                           CS       NODOBIT
000234: 21,3016           70076                           MASK     FLAGWRD2
000235: 21,3017           54076                           TS       FLAGWRD2
000236: 21,3020           46017                           CS       BITS9+7
000237: 21,3021  0000010               FLAGREF1           EQUALS   RNDVZFLG
000238: 21,3021  0000006               FLAGREF2           EQUALS   P25FLAG
000239: 21,3021           70074                           MASK     FLAGWRD0
000240: 21,3022           54074                           TS       FLAGWRD0
000241: 21,3023           40031                           CS       TRACKFLG
000242: 21,3024           70075                           MASK     FLAGWRD1
000243: 21,3025           54075                           TS       FLAGWRD1
000244: 21,3026           00002                           TC       Q
000245:
000246:

End of include-file ALARM_AND_ABORT.agc.  Parent file is MAIN.agc


