
Source Code


000002:                                                                                                  ## Copyright:   Public domain.
000003:                                                                                                  ## Filename:    ALARM_AND_ABORT.agc
000004:                                                                                                  ## Purpose:     A section of Luminary revision 210.
000005:                                                                                                  ##              It is part of the source code for the Lunar Module's (LM)
000006:                                                                                                  ##              Apollo Guidance Computer (AGC) for Apollo 15-17.
000007:                                                                                                  ##              This file is intended to be a faithful transcription, except
000008:                                                                                                  ##              that the code format has been changed to conform to the
000009:                                                                                                  ##              requirements of the yaYUL assembler rather than the
000010:                                                                                                  ##              original YUL assembler.
000011:                                                                                                  ## Reference:   pp. 1378-1382
000012:                                                                                                  ## Assembler:   yaYUL
000013:                                                                                                  ## Contact:     Ron Burkey <info@sandroid.org>.
000014:                                                                                                  ## Website:     www.ibiblio.org/apollo/index.html
000015:                                                                                                  ## Mod history: 2016-11-17 JL   Created from Luminary131 version.
000016:                                                                                                  ##              2016-11-29 TB   Transcribed
000017:                                                                                                  ##              2016-12-07 HG   Fix P00 -> POO
000018:                                                                                                  ##              2016-12-11 HG   add missing operation MASK FLGWRD10
000019:                                                                                                  ##              2016-12-12 HG   add [WORKAROUND] using SBANK=
000020:                                                                                                  ##              2016-12-26 RSB  Comment-text proofed using ProoferComments
000021:                                                                                                  ##                              and corrected errors found.
000022:                                                                                                  ##              2017-06-17 MAS  Globally removed all SBANK= workarounds.
000023:


000025:                                                                                                  #  THE FOLLOWING SUBROUTINE MAY BE CALLED TO DISPLAY A NON-ABORTIVE ALARM CONDITION.  IT MAY BE CALLED
000026:                                                                                                  #  EITHER IN INTERRUPT OR UNDER EXECUTIVE CONTROL.
000027:
000028:                                                                                                  #  CALLING SEQUENCE IS AS FOLLOWS:
000029:                                                                                                  #                TC      ALARM
000030:                                                                                                  #                OCT     AAANN           ALARM NO. NN IN GENERAL AREA AAA.
000031:                                                                                                  #                                        (RETURNS HERE)
000032:
000033:    5571                                           BLOCK    02
000034:    4000                                           SETLOC   FFTAG7
000035:    4000                                           BANK
000036:
000037:    5571     0375                                  EBANK=   FAILREG
000038:
000039:    5571                                           COUNT*   $$/ALARM
000040:                                                                                                  #  ALARM TURNS ON THE PROGRAM ALARM LIGHT, BUT DOES NOT DISPLAY.
000041:
000042:    5571           00004        ALARM              INHINT
000043:
000044:    5572           30002                           CA       Q
000045:    5573           55363        ALARM2             TS       ALMCADR
000046:    5574           50002                           INDEX    Q
000047:    5575           30000                           CA       0
000048:    5576           54001        BORTENT            TS       L
000049:
000050:    5577           30006        PRIOENT            CA       BBANK
000051:    5600           00006                 +1        EXTEND
000052:    5601           04007                           ROR      SUPERBNK                              #  ADD SUPER BITS.
000053:    5602           55364                           TS       ALMCADR    +1
000054:
000055:    5603           30002        LARMENT            CA       Q                                     #  STORE RETURN FOR ALARM
000056:    5604           54061                           TS       ITEMP1
000057:
000058:    5605           10375        CHKFAIL1           CCS      FAILREG                               #  IS ANYTHING IN FAILREG
000059:    5606           15612                           TCF      CHKFAIL2                              #  YES TRY NEXT REG
000060:    5607           30001                           CA       L
000061:    5610           54375                           TS       FAILREG
000062:    5611           15616                           TCF      PROGLARM                              #  TURN ALARM LIGHT ON FOR FIRST ALARM
000063:
000064:    5612           10376        CHKFAIL2           CCS      FAILREG    +1
000065:    5613           15616                           TCF      PROGLARM
000066:    5614           30001                           CA       L
000067:    5615           54376                           TS       FAILREG    +1
000068:
000069:    5616           22377        PROGLARM           LXCH     FAILREG    +2                         #  STORE AS "MOST RECENT" ALARM CODE
000070:
000071:    5617           41035                           CS       DSPTAB     +11D                       #  TURN ON PROGRAM ALARM IF OFF
000072:    5620           75634                           MASK     OCT40400
000073:    5621           27035                           ADS      DSPTAB     +11D
000074:


000076:    5622           56061        MULTEXIT           XCH      ITEMP1                                #  OBTAIN RETURN ADDRESS IN A
000077:    5623           00003                           RELINT
000078:    5624           50000                           INDEX    A
000079:    5625           00001                           TC       1
000080:
000081:                                                                                                  #  PRIOLARM DISPLAYS V05N09 VIA PRIODSPR WITH 3 RETURNS TO THE USER FROM THE ASTRONAUT AT CALL LOC +1,+2,+3 AND
000082:                                                                                                  #  AN IMMEDIATE RETURN TO THE USER AT CALL LOC +4.  EXAMPLE FOLLOWS,
000083:                                                                                                  #                CAF     OCTXX           ALARM CODE
000084:                                                                                                  #                TC      BANKCALL
000085:                                                                                                  #                CADR    PRIOLARM
000086:                                                                                                  #                ...     ...
000087:                                                                                                  #                ...     ...
000088:                                                                                                  #                ...     ...             ASTRONAUT RETURN
000089:                                                                                                  #                TC      PHASCHNG        IMMEDIATE RETURN TO USER. RESTART
000090:                                                                                                  #                OCT     X.1             PHASE CHANGE FOR PRIO DISPLAY
000091:
000092: 10,3572                                           BANK     10
000093: 10,2000                                           SETLOC   DISPLAYS
000094: 10,2000                                           BANK
000095:
000096: 10,3572                                           COUNT*   $$/DSPLA
000097: 10,3572           00004        PRIOLARM           INHINT                                         #  * * * KEEP IN DISPLAY ROUTINES BANK
000098: 10,3573           54001                           TS       L                                     #  SAVE ALARM CODE
000099:
000100: 10,3574           30133                           CA       BUF2                                  #  2 CADR OF PRIOLARM USER
000101: 10,3575           55363                           TS       ALMCADR
000102: 10,3576           30134                           CA       BUF2       +1
000103: 10,3577           05600                           TC       PRIOENT    +1                         #  * LEAVE L ALONE
000104: 10,3600           77467        -2SEC              DEC      -200       B-14                       #  *** DONT MOVE
000105: 10,3601           34777                           CAF      V05N09
000106: 10,3602           12477                           TCF      PRIODSPR
000107:
000108:    5626                                           BLOCK    02
000109:    4000                                           SETLOC   FFTAG7
000110:    4000                                           BANK
000111:
000112:    5626                                           COUNT*   $$/ALARM
000113:    5626           00004        BAILOUT            INHINT
000114:    5627           30002                           CA       Q
000115:    5630           55363                           TS       ALMCADR
000116:
000117:    5631           50002                           INDEX    Q
000118:    5632           30000                           CAF      0
000119:    5633           05576                           TC       BORTENT
000120:    5634           40400        OCT40400           OCT      40400
000121:
000122:    5635           00004                           INHINT
000123:    5636           34743        WHIMPER            CA       TWO
000124:    5637           60005                           AD       Z


000126:    5640           54017                           TS       BRUPT
000127:    5641           50017                           RESUME
000128:    5642           04626                           TC       POSTJUMP                              #  RESUME SENDS CONTROL HERE
000129:    5643           12767                           CADR     ENEMA
000130:    5644           00004        POODOO             INHINT
000131:    5645           30002                           CA       Q
000132:    5646           55363        ABORT2             TS       ALMCADR
000133:    5647           50002                           INDEX    Q
000134:    5650           30000                           CAF      0
000135:    5651           05576                           TC       BORTENT
000136:    5652           77770        OCT77770           OCT      77770                                 #  DON'T MOVE
000137:
000138:    5653           11043                           CCS      EXTVBACT                              #  DO BAILOUT NOT POODOO IF EXT. VB. ACTIVE
000139:    5654           15635                           TCF      WHIMPER    -1
000140:
000141:    5655           34756                           CAF      OCT35                                 #  4.35SPOT FOR GOPOODOO
000142:    5656           54001                           TS       L
000143:    5657           40000                           COM
000144:    5660           52760                           DXCH     -PHASE4
000145:    5661           00004        GOPOODOO           INHINT
000146:    5662           04607                           TC       BANKCALL                              #  RESET STATEFLG, REINTFLG, AND NODOFLAG.
000147:                                                                                                  #    ALSO RNDVZFLG, P25FLAG AND TRACKFLG
000148:    5663           43007                           CADR     FLAGS
000149:    5664           30103                           CA       FLAGWRD7                              #  IS SERVICER CURRENTLY IN OPERATION?
000150:    5665           74737                           MASK     V37FLBIT
000151:    5666           10000                           CCS      A
000152:    5667           15675                           TCF      STRTIDLE
000153:    5670           04607                           TC       BANKCALL                              #  TERMINATE GRPS 1, 3, 5, AND 6
000154:    5671           12654                           CADR     V37KLEAN
000155:    5672           04607                           TC       BANKCALL                              #  TERMINATE GRPS 2, 4, 1, 3, 5, AND 6
000156:    5673           12645                           CADR     MR.KLEAN                              #        (I.E., GRP 4 LAST)
000157:    5674           15636                           TCF      WHIMPER
000158:    5675           35737        STRTIDLE           CAF      BBSERVDL
000159:    5676           04720                           TC       SUPERSW
000160:    5677           04607                           TC       BANKCALL                              #  PUT SERVICER INTO ITS "GROUND" STATE
000161:    5700           57324                           CADR     SERVIDLE                              #  AND PROCEED TO GOTOPOOH.
000162:    5701           00004        CCSHOLE            INHINT
000163:    5702           30002                           CA       Q
000164:    5703           05646                           TC       ABORT2
000165:    5704           21103        OCT21103           OCT      21103
000166:    5705           00004        CURTAINS           INHINT
000167:    5706           30002                           CA       Q
000168:    5707           05573                           TC       ALARM2
000169:    5710           00217        OCT217             OCT      00217
000170:    5711           01363                           TC       ALMCADR                               #  RETURN TO USER
000171:
000172:    5712           00004        BAILOUT1           INHINT
000173:    5713           53364                           DXCH     ALMCADR
000174:    5714           35736                           CAF      ADR40400
000175:    5715           54061        BOTHABRT           TS       ITEMP1
000176:


000178:    5716           50002                           INDEX    Q
000179:    5717           30000                           CAF      0
000180:    5720           54001                           TS       L
000181:    5721           15605                           TCF      CHKFAIL1
000182:
000183:    5722           00004        POODOO1            INHINT
000184:    5723           53364                           DXCH     ALMCADR
000185:    5724           35735                           CAF      ADR77770
000186:    5725           15715                           TCF      BOTHABRT
000187:
000188:    5726           00004        ALARM1             INHINT
000189:    5727           53364                           DXCH     ALMCADR
000190:    5730           00004        ALMNCADR           INHINT
000191:    5731           50002                           INDEX    Q
000192:    5732           30000                           CA       0
000193:    5733           54001                           TS       L
000194:    5734           15603                           TCF      LARMENT
000195:
000196:    5735           15652        ADR77770           TCF      OCT77770
000197:    5736           15634        ADR40400           TCF      OCT40400
000198:    5737     5146               DOALARM            EQUALS   ENDOFJOB
000199:    5737  E7,1515                                  EBANK=   DVCNTR
000200:    5737           56067        BBSERVDL           BBCON    SERVIDLE
000201:
000202:                                                                                                  #  CALLING SEQUENCE FOR VARALARM
000203:                                                                                                  #                CAF     (ALARM)
000204:                                                                                                  #                TC      VARALARM
000205:
000206:                                                                                                  #  VARALARM TURNS ON PROGRAM ALARM LIGHT BUT DOES NOT DISPLAY
000207:
000208:    5740           00004        VARALARM           INHINT
000209:
000210:    5741           54001                           TS       L                                     #  SAVE USERS ALARM CODE
000211:
000212:    5742           30002                           CA       Q                                     #  SAVE USERS Q
000213:    5743           55363                           TS       ALMCADR
000214:
000215:    5744           05577                           TC       PRIOENT
000216:    5745           00014        OCT14              OCT      14                                    #  DONT MOVE
000217:
000218:    5746           01363                           TC       ALMCADR                               #  RETURN TO USER
000219:
000220:    5747     5636               ABORT              EQUALS   WHIMPER
000221: 21,2000                                           SETLOC   ABTFLGS
000222: 21,2000                                           BANK
000223: 21,3007                                           COUNT*   $$/ALARM
000224:
000225: 21,3007           44740        FLAGS              CS       STATEBIT
000226: 21,3010           70077                           MASK     FLAGWRD3
000227: 21,3011           54077                           TS       FLAGWRD3
000228: 21,3012           44736                           CS       REINTBIT
000229: 21,3013           70106                           MASK     FLGWRD10
000230:


000232: 21,3014           54106                           TS       FLGWRD10
000233: 21,3015           44744                           CS       NODOBIT
000234: 21,3016           70076                           MASK     FLAGWRD2
000235: 21,3017           54076                           TS       FLAGWRD2
000236: 21,3020           46017                           CS       BITS9+7
000237: 21,3021  0000010               FLAGREF1           EQUALS   RNDVZFLG
000238: 21,3021  0000006               FLAGREF2           EQUALS   P25FLAG
000239: 21,3021           70074                           MASK     FLAGWRD0
000240: 21,3022           54074                           TS       FLAGWRD0
000241: 21,3023           40031                           CS       TRACKFLG
000242: 21,3024           70075                           MASK     FLAGWRD1
000243: 21,3025           54075                           TS       FLAGWRD1
000244: 21,3026           00002                           TC       Q
000245:
000246:

End of include-file ALARM_AND_ABORT.agc.  Parent file is MAIN.agc


