
Source Code


000002:                                                                                                  ## Copyright:   Public domain.
000003:                                                                                                  ## Filename:    ASCENT_GUIDANCE.agc
000004:                                                                                                  ## Purpose:     A section of Luminary revision 210.
000005:                                                                                                  ##              It is part of the source code for the Lunar Module's (LM)
000006:                                                                                                  ##              Apollo Guidance Computer (AGC) for Apollo 15-17.
000007:                                                                                                  ##              This file is intended to be a faithful transcription, except
000008:                                                                                                  ##              that the code format has been changed to conform to the
000009:                                                                                                  ##              requirements of the yaYUL assembler rather than the
000010:                                                                                                  ##              original YUL assembler.
000011:                                                                                                  ## Reference:   pp. 844-859
000012:                                                                                                  ## Assembler:   yaYUL
000013:                                                                                                  ## Contact:     Ron Burkey <info@sandroid.org>.
000014:                                                                                                  ## Website:     www.ibiblio.org/apollo/index.html
000015:                                                                                                  ## Mod history: 2016-11-17 JL   Created from Luminary131 version.
000016:                                                                                                  ##              2016-12-01 RSB  Completed the transcription.
000017:                                                                                                  ##              2016-12-08 HG   Fix operand V16N63 -> V16N94
000018:                                                                                                  ##              2016-12-10 HG   remove BANK 7 operation
000019:                                                                                                  ##                                     SETLOC ASENT2 -> SETLOC ASENT7
000020:                                                                                                  ##              2016-12-12 HG   remove superfluous interpretive operator BON
000021:                                                                                                  ##              2016-12-25 RSB  Comment-text proofed using ProoferComments
000022:                                                                                                  ##                              and corrected errors found.
000023:


000025: 34,3375                                           BANK     34
000026: 34,2000                                           SETLOC   ASCFILT
000027: 34,2000                                           BANK
000028:
000029: 34,3375  E7,1515                                  EBANK=   DVCNTR
000030:
000031: 34,3375                                           COUNT*   $$/ASENT
000032:
000033: 34,3375           05355        ATMAG              TC       PHASCHNG
000034: 34,3376           00035                           OCT      00035
000035: 34,3377           06060                           TC       INTPRET
000036: 34,3400           77614                           BON
000037: 34,3401           04705                                    FLRCS
000038: 34,3402           60307                                    ASCENT
000039: 34,3403           45345                           DLOAD    DSU
000040: 34,3404           03514                                    ABDVCONV
000041: 34,3405           26116                                    MINABDV
000042: 34,3406           43040                           BMN      CLEAR
000043: 34,3407           60750                                    ASCTERM4
000044: 34,3410           04267                                    SURFFLAG
000045: 34,3411           67214                           CLEAR    SLOAD
000046: 34,3412           02676                                    RENDWFLG
000047: 34,3413           31451                                    BIT3H
000048: 34,3414           77471                           DDV      EXIT
000049: 34,3415           03514                                    ABDVCONV
000050: 34,3416           52155                           DXCH     MPAC
000051: 34,3417           53641                           DXCH     1/DV3
000052: 34,3420           53637                           DXCH     1/DV2
000053: 34,3421           53635                           DXCH     1/DV1
000054: 34,3422           53571                           DXCH     1/DV0
000055: 34,3423           06060                           TC       INTPRET
000056: 34,3424           43345                           DLOAD    DAD
000057: 34,3425           03571                                    1/DV0
000058: 34,3426           03635                                    1/DV1
000059: 34,3427           43215                           DAD      DAD
000060: 34,3430           03637                                    1/DV2
000061: 34,3431           03641                                    1/DV3
000062: 34,3432           41205                           DMP      DMP
000063: 34,3433           02256                                    VE
000064: 34,3434           21011                                    2SEC(9)
000065: 34,3435           65252                           SL3      PDDL
000066: 34,3436           02262                                    TBUP
000067: 34,3437           43342                           SR1      DAD
000068: 34,3440           77625                           DSU
000069: 34,3441           21006                                    6SEC(18)
000070: 34,3442           16262                           STODL    TBUP
000071: 34,3443           02256                                    VE
000072: 34,3444           56342                           SR1      DDV
000073: 34,3445           02262                                    TBUP
000074: 34,3446           36254                           STCALL   AT


000076: 34,3447           60307                                    ASCENT
000077: 34,3450           00004        BIT3H              OCT      4
000078:


000080: 30,2307                                           BANK     30
000081: 30,2000                                           SETLOC   ASENT
000082: 30,2000                                           BANK
000083: 30,2307                                           COUNT*   $$/ASENT
000084:
000085: 30,2307           51575        ASCENT             VLOAD    ABVAL
000086: 30,2310           03521                                    R
000087: 30,2311           26272                           STOVL    /R/MAG
000088: 30,2312           03537                                    UNIT/R/
000089: 30,2313           53435                           VXV      UNIT
000090: 30,2314           02600                                    QAXIS
000091: 30,2315           02606                           STORE    ZAXIS1
000092: 30,2316           72441                           DOT      SL1
000093: 30,2317           03527                                    V                                     #  Z.V = ZDOT*2(-8).
000094: 30,2320           26304                           STOVL    ZDOT                                  #  ZDOT*2(-7)
000095: 30,2321           02606                                    ZAXIS1
000096: 30,2322           76435                           VXV      VSL1
000097: 30,2323           03537                                    UNIT/R/                               #  Z X UR = LAXIS*2(-2)
000098: 30,2324           02274                           STORE    LAXIS                                 #  LAXIS*2(-1)
000099: 30,2325           72441                           DOT      SL1
000100: 30,2326           03527                                    V                                     #  L.V = YDOT*2(-8).
000101: 30,2327           36302                           STCALL   YDOT                                  #  YDOT * 2(-7)
000102: 30,2330           57315                                    YCOMP
000103: 30,2331           77775                           VLOAD
000104: 30,2332           03563                                    GDT1/2                                #  LOAD GDT1/2*2(-7)M/CS.
000105: 30,2333           50341                           V/SC     DOT
000106: 30,2334           27053                                    2SEC(18)
000107: 30,2335           03537                                    UNIT/R/                               #  G.UR*2(9) = GR*2(9).
000108: 30,2336           47315                           PDVL     VXV                                   #  STORE IN PDL(0)                     (2)
000109: 30,2337           03537                                    UNIT/R/                               #  LOAD UNIT/R/ *2(-1).
000110: 30,2340           03527                                    V                                     #  UR*2(-1) X V*2(-7) = H/R*2(-8).
000111: 30,2341           56236                           VSQ      DDV                                   #  H(2)/R(2)*2(-16).
000112: 30,2342           02272                                    /R/MAG                                #  H(2)/R(3)*2(9).
000113: 30,2343           43352                           SL1      DAD
000114: 30,2344           77626                           STADR
000115: 30,2345           75471                           STORE    GEFF                                  #  GEFF*2(10)M/CS/CS
000116: 30,2346           45014                           BOFF     CALL                                  #  IF P7071FLG = 1 (I.E. P70 OR P71)
000117: 30,2347           04742                                    P7071FLG                              #      CALL ZDOTDCMP TO UPDATE ZDOTD
000118: 30,2350           60352                                    +2                                    #      ON THE BASIS OF THE LAST RP.
000119: 30,2351           71620                                    ZDOTDCMP
000120: 30,2352           45345                 +2        DLOAD    DSU
000121: 30,2353           02270                                    ZDOTD
000122: 30,2354           02304                                    ZDOT
000123: 30,2355           02334                           STORE    DZDOT                                 #  DZDOT = (ZDOTD - ZDOT)*2(7)M/CS.
000124: 30,2356           65361                           VXSC     PDDL
000125: 30,2357           02606                                    ZAXIS1


000127: 30,2360           02266                                    YDOTD
000128: 30,2361           77625                           DSU
000129: 30,2362           02302                                    YDOT
000130: 30,2363           02332                           STORE    DYDOT                                 #  DYDOT = (YDOTD - YDOT)*2(7)M/CS.
000131: 30,2364           65361                           VXSC     PDDL
000132: 30,2365           02274                                    LAXIS
000133: 30,2366           02264                                    RDOTD
000134: 30,2367           77625                           DSU
000135: 30,2370           03474                                    RDOT
000136: 30,2371           02330                           STORE    DRDOT                                 #  DRDOT = (RDOTD - RDOT)*2(7)M/CS.
000137: 30,2372           53361                           VXSC     VAD
000138: 30,2373           03537                                    UNIT/R/
000139: 30,2374           76455                           VAD      VSL1
000140: 30,2375           77626                           STADR
000141: 30,2376           74131                           STORE    VGVECT                                #  VG = (DRDOT)R + (DYDOT)L + (DZDOT)Z.
000142: 30,2377           41345                           DLOAD    DMP                                   #  LOAD TGO
000143: 30,2400           03517                                    TGO                                   #  TGO GEFF
000144: 30,2401           02306                                    GEFF
000145: 30,2402           76561                           VXSC     VSL1
000146: 30,2403           03537                                    UNIT/R/                               #  TGO GEFF UR
000147: 30,2404           77645                           BVSU
000148: 30,2405           03646                                    VGVECT                                #  COMPENSATED FOR GEFF
000149: 30,2406           03646                           STORE    VGVECT                                #  STORE FOR DOWNLINK
000150: 30,2407           76521                           MXV      VSL1                                  #  GET VGBODY FOR N85 DISPLAY
000151: 30,2410           02137                                    XNBPIP
000152: 30,2411           27502                           STOVL    VGBODY
000153: 30,2412           03646                                    VGVECT
000154: 30,2413           43046                           ABVAL    BOFF                                  #  MAGNITUDE OF VGVECT
000155: 30,2414           04745                                    FLRCS                                 #  IF FLRCS=0,DO NORMAL GUIDANCE
000156: 30,2415           60424                                    MAINENG
000157: 30,2416           77671                           DDV                                            #  USE TGO=VG/AT WITH RCS
000158: 30,2417           20001                                    AT/RCS
000159: 30,2420           37517                           STCALL   TGO                                   #  THIS WILL BE USED ON NEXT CYCLE
000160: 30,2421           71571                                    RPCOMP1                               #  COMPUTE NEW RP FOR NEXT CYCLE.
000161: 30,2422           77650                           GOTO
000162: 30,2423           60746                                    ASCTERM2
000163: 30,2424           41471        MAINENG            DDV      PUSH                                  #  VG/VE IN PDL(0)                    (2)
000164: 30,2425           02256                                    VE
000165: 30,2426           44342                           SR1      BDSU                                  #  1 - VG / 2 VE
000166: 30,2427           17774                                    NEARONE
000167: 30,2430           41205                           DMP      DMP                                   #  TBUP VG(1-KT VG/VE)/VE             (0)
000168: 30,2431           02262                                    TBUP                                  #   = TGO
000169: 30,2432           77625                           DSU                                            #  COMPENSATE FOR TAILOFF
000170: 30,2433           02260                                    TTO
000171: 30,2434           03517                           STORE    TGO
000172: 30,2435           57461                           SR       DCOMP
000173: 30,2436           20614                                    11D
000174: 30,2437           17454                           STODL    TTOGO                                 #  TGO*2(-28)CS
000175: 30,2440           03517                                    TGO
000176: 30,2441           45214                           BON      DSU


000178: 30,2442           03710                                    IDLEFLAG
000179: 30,2443           60447                                    T2TEST
000180: 30,2444           21000                                    4SEC(17)                              #  ( TGO - 4 )*2(-17)CS.
000181: 30,2445           77640                           BMN
000182: 30,2446           71457                                    ENGOFF
000183: 30,2447           77745        T2TEST             DLOAD
000184: 30,2450           03517                                    TGO
000185: 30,2451           50025                           DSU      BMN                                   #  IF TGO - T2 NEG., GO TO CMPONENT
000186: 30,2452           21002                                    T2A
000187: 30,2453           60607                                    CMPONENT
000188: 30,2454           45345                           DLOAD    DSU
000189: 30,2455           02262                                    TBUP
000190: 30,2456           03517                                    TGO
000191: 30,2457           45071                           DDV      CALL                                  #  1-TGO/TBUP
000192: 30,2460           02262                                    TBUP
000193: 30,2461           61015                                    LOGSUB
000194: 30,2462           41461                           SL       PUSH                                  #  -L IN PDL(0)                        (2)
000195: 30,2463           20206                                    5
000196: 30,2464           44265                           BDDV     BDSU                                  #  -TGO/L*2(-17)
000197: 30,2465           03517                                    TGO
000198: 30,2466           02262                                    TBUP                                  #  TBUP + TGO/L = D12*2(-17)
000199: 30,2467           43006                           PUSH     BON                                   #  STORE IN PDL(2)                      (4)
000200: 30,2470           04703                                    FLPC                                  #  IF FLPC = 1, GO TO CONST
000201: 30,2471           60500                                    NORATES
000202: 30,2472           45345                           DLOAD    DSU
000203: 30,2473           03517                                    TGO
000204: 30,2474           21004                                    T3
000205: 30,2475           43044                           BPL      SET                                   #  FLPC=1
000206: 30,2476           60505                                    RATES
000207: 30,2477           04463                                    FLPC
000208: 30,2500           77745        NORATES            DLOAD
000209: 30,2501           06505                                    HI6ZEROS
000210: 30,2502           02342                           STORE    PRATE                                 #  B = 0
000211: 30,2503           36344                           STCALL   YRATE                                 #  D = 0
000212: 30,2504           60567                                    CONST                                 #  GO TO CONST
000213: 30,2505           45345        RATES              DLOAD    DSU
000214: 30,2506           03517                                    TGO
000215: 30,2507           00003                                    02D                                   #  TGO - D12 = D21*2(-17)
000216: 30,2510           72406                           PUSH     SL1                                   #  IN PDL(4)                            (6)
000217: 30,2511           52421                           BDSU     SL3                                   #  (1/2TGO - D21)*2(-13) = E * 2(-13)
000218: 30,2512           03517                                    TGO                                   #                                       (8)
000219: 30,2513           41325                           PDDL     DMP                                   #  IN PDL(6)
000220: 30,2514           03517                                    TGO
000221: 30,2515           03474                                    RDOT                                  #  RDOT TGO * 2(-24)
000222: 30,2516           45215                           DAD      DSU                                   #  R + RDOT TGO
000223: 30,2517           02272                                    /R/MAG                                #  R + RDOT TGO - RCO
000224: 30,2520           03631                                    RCO                                   #  MPAC = - DR*2(-24).
000225: 30,2521           41325                           PDDL     DMP                                   #  -DR IN PDL(8)                       (10)
000226: 30,2522           02330                                    DRDOT
000227: 30,2523           00005                                    04D                                   #  D21 DRDOT*2(-24)


000229: 30,2524           62415                           DAD      SL2                                   #  (D21 DRDOT-DR)*2(-22)                (8)
000230: 30,2525           56271                           DDV      DDV
000231: 30,2526           00007                                    06D                                   #  (D21 DRDOT-DR)/E*2(-9)
000232: 30,2527           03517                                    TGO
000233: 30,2530           02342                           STORE    PRATE                                 #  B * 2(8)
000234: 30,2531           71240                           BMN      DLOAD                                 #  B>0 NOT PERMITTED
000235: 30,2532           60536                                    CHKBMAG
000236: 30,2533           06505                                    HI6ZEROS
000237: 30,2534           36342                           STCALL   PRATE
000238: 30,2535           60550                                    PROK
000239: 30,2536           56202        CHKBMAG            SR4      DDV                                   #  B*2(4)
000240: 30,2537           02262                                    TBUP                                  #  (B / TAU) * 2(21)
000241: 30,2540           51025                           DSU      BPL
000242: 30,2541           26114                                    PRLIMIT                               #  ( B/ TAU ) * 2(21) MAX.
000243: 30,2542           60550                                    PROK
000244: 30,2543           41345                           DLOAD    DMP
000245: 30,2544           26114                                    PRLIMIT
000246: 30,2545           02262                                    TBUP                                  #  B MAX. * 2(4)
000247: 30,2546           77612                           SL4                                            #  BMAX*2(8)
000248: 30,2547           02342                           STORE    PRATE
000249: 30,2550           77745        PROK               DLOAD
000250: 30,2551           03517                                    TGO
000251: 30,2552           43205                           DMP      DAD                                   #  YDOT TGO
000252: 30,2553           02302                                    YDOT
000253: 30,2554           02326                                    Y                                     #  Y + YDOT TGO
000254: 30,2555           65225                           DSU      PDDL                                  #  Y + YDOT TGO - YCO
000255: 30,2556           03633                                    YCO                                   #  MPAC = - DY*2(-24.) IN PDL(8)       (10)
000256: 30,2557           02332                                    DYDOT
000257: 30,2560           43205                           DMP      DAD                                   #  D21 DYDOT - DY                      (8)
000258: 30,2561           00005                                    04D
000259: 30,2562           56312                           SL2      DDV                                   #  (D21 DYDOT - DY)/E*2(-9)
000260: 30,2563           40271                           DDV      SETPD                                 #  (D21 DYDOT - DY)/E TGO*2(8)
000261: 30,2564           03517                                    TGO                                   #    = D*2(8)
000262: 30,2565           00005                                    04
000263: 30,2566           02344                           STORE    YRATE
000264: 30,2567           41345        CONST              DLOAD    DMP                                   #  LOAD B*2(8)
000265: 30,2570           02342                                    PRATE                                 #  B D12*2(-9)
000266: 30,2571           00003                                    02D
000267: 30,2572           56325                           PDDL     DDV                                   #  D12 B IN PDL(4)                     (6)
000268: 30,2573           02330                                    DRDOT                                 #  LOAD DRDOT*2(-7)
000269: 30,2574           00001                                    00D                                   #  -DRDOT/L*2(-7)
000270: 30,2575           45302                           SR2      DSU                                   #  (-DRDOT/L-D12 B)=A*2(-9)             (4)
000271: 30,2576           77626                           STADR
000272: 30,2577           61441                           STODL    PCONS
000273: 30,2600           02344                                    YRATE                                 #  D*2(8)
000274: 30,2601           65205                           DMP      PDDL                                  #  D12 D,EXCH WITH -L IN PDL(0)       (2,2)
000275: 30,2602           60465                           BDDV     SR2                                   #  -DYDOT/L*2(-9)
000276: 30,2603           02332                                    DYDOT
000277: 30,2604           77625                           DSU                                            #  (-DYDOT/L-D12 D)=C*2(-9)
000278: 30,2605           00001                                    00D


000280: 30,2606           02340                           STORE    YCONS
000281: 30,2607           43001        CMPONENT           SETPD    BOFF
000282: 30,2610           00001                                    00D
000283: 30,2611           04742                                    P7071FLG
000284: 30,2612           60615                                    +3                                    #  IF P7071FLG = 1 (I.E. P70 OR P71)
000285: 30,2613           77624                           CALL                                           #      COMPUTE NEW RP FOR NEXT CYCLE.
000286: 30,2614           71575                                    RPCOMP2
000287: 30,2615           41345                 +3        DLOAD    DMP
000288: 30,2616           27053                                    100CS
000289: 30,2617           02342                                    PRATE                                 #  B(T-T0)*2(-9)
000290: 30,2620           56215                           DAD      DDV                                   #  (A+B(T-T0))*2(-9)
000291: 30,2621           02336                                    PCONS                                 #  (A+B(T-T0))/TBUP*2(8)
000292: 30,2622           02262                                    TBUP
000293: 30,2623           45352                           SL1      DSU
000294: 30,2624           02306                                    GEFF                                  #  ATR*2(9)
000295: 30,2625           16350                           STODL    ATR
000296: 30,2626           27053                                    100CS
000297: 30,2627           43205                           DMP      DAD
000298: 30,2630           02344                                    YRATE
000299: 30,2631           02340                                    YCONS                                 #  (C+D(T-T0))*2(-9)
000300: 30,2632           72471                           DDV      SL1
000301: 30,2633           02262                                    TBUP
000302: 30,2634           02346                           STORE    ATY                                   #  ATY*2(9)
000303: 30,2635           65361                           VXSC     PDDL                                  #  ATY UY*2(8)                         (6)
000304: 30,2636           02274                                    LAXIS
000305: 30,2637           02350                                    ATR
000306: 30,2640           53361                           VXSC     VAD                                   #                                      (0)
000307: 30,2641           03537                                    UNIT/R/
000308: 30,2642           41572                           VSL1     PUSH                                  #  AH*2(9) IN PDL(0)                   (6)
000309: 30,2643           65246                           ABVAL    PDDL                                  #  AH(2) IN PDL(34)
000310: 30,2644           02254                                    AT                                    #  AHMAG IN PDL(6)                     (8)
000311: 30,2645           45316                           DSQ      DSU                                   #  (AT(2)-AH(2))*2(18)
000312: 30,2646           00043                                    34D                                   #  =ATP2*2(18)
000313: 30,2647           41525                           PDDL     PUSH                                  #                                      (12)
000314: 30,2650           02254                                    AT
000315: 30,2651           45316                           DSQ      DSU                                   #  (AT(2)KR(2)-AH(2))*2(18)            (10)
000316: 30,2652           00043                                    34D                                   #  =ATP3*2(18)
000317: 30,2653           71240                           BMN      DLOAD                                 #  IF ATP3 NEG,GO TO NO-ATP
000318: 30,2654           60660                                    NO-ATP                                #  LOAD ATP2,IF ATP3 POS
000319: 30,2655           00011                                    8D
000320: 30,2656           52166                           SQRT     GOTO                                  #  ATP*2(9)
000321: 30,2657           60666                                    AIMER
000322: 30,2660           55345        NO-ATP             DLOAD    BDDV                                  #  KR AT/AH = KH                       (8)
000323: 30,2661           00007                                    6D
000324: 30,2662           77761                           VXSC                                           #  KH AH*2(9)
000325: 30,2663           00001                                    00D
000326: 30,2664           14001                           STODL    00D                                   #  STORE NEW AH IN PDL(0)
000327: 30,2665           06505                                    HI6ZEROS
000328: 30,2666           77765        AIMER              SIGN
000329: 30,2667           02334                                    DZDOT


000331: 30,2670           02352                           STORE    ATP
000332: 30,2671           77761                           VXSC
000333: 30,2672           02606                                    ZAXIS1                                #  ATP ZAXIS *2(8).
000334: 30,2673           53372                           VSL1     VAD                                   #  AT*2(9)
000335: 30,2674           00001                                    00D
000336: 30,2675           03252                           STORE    UNFC/2                                #  WILL BE OVERWRITTEN IF IN VERT. RISE.
000337: 30,2676           43001                           SETPD    BON
000338: 30,2677           00001                                    00D
000339: 30,2700           04704                                    FLPI
000340: 30,2701           60210                                    P12RET
000341: 30,2702           77614                           BON
000342: 30,2703           04701                                    FLVR
000343: 30,2704           60755                                    CHECKALT
000344: 30,2705           57575        MAINLINE           VLOAD    VCOMP
000345: 30,2706           03537                                    UNIT/R/
000346: 30,2707           17260                           STODL    UNWC/2
000347: 30,2710           03654                                    TXO
000348: 30,2711           51025                           DSU      BPL
000349: 30,2712           01234                                    PIPTIME
000350: 30,2713           60721                                    ASCTERM
000351: 30,2714           77614                           BON
000352: 30,2715           04711                                    ROTFLAG
000353: 30,2716           57275                                    ANG1CHEK
000354: 30,2717           77614        CLRXFLAG           CLEAR
000355: 30,2720           06666                                    XOVINFLG                              #    (XOVINFLG)
000356: 30,2721           77776        ASCTERM            EXIT
000357: 30,2722           30105                           CA       FLAGWRD9
000358: 30,2723           74733                           MASK     FLRCSBIT
000359: 30,2724           10000                           CCS      A
000360: 30,2725           12747                           TCF      ASCTERM3
000361: 30,2726           06060                           TC       INTPRET
000362: 30,2727           77624                           CALL
000363: 30,2730           61072                                    FINDCDUW   -2
000364: 30,2731           77776        ASCTERM1           EXIT
000365: 30,2732           30105                 +1        CA       FLAGWRD9                              #  INSURE THAT THE NOUN 63 DISPLAY IS
000366: 30,2733           74733                           MASK     FLRCSBIT                              #  BYPASSED IF WE ARE IN THE RCS TRIMMING
000367: 30,2734           10000                           CCS      A                                     #  MODE OF OPERATION
000368: 30,2735           12747                           TCF      ASCTERM3
000369: 30,2736           30104                           CA       FLAGWRD8                              #  BYPASS DISPLAYS IF ENGINE FAILURE IS
000370: 30,2737           74733                           MASK     FLUNDBIT                              #  INDICATED.
000371: 30,2740           10000                           CCS      A
000372: 30,2741           12747                           TCF      ASCTERM3
000373: 30,2742           05156                           TC       VACRLEAS
000374: 30,2743           33012                           CAF      V06N94
000375: 30,2744           04607                           TC       BANKCALL
000376: 30,2745           20436                           CADR     GODSP
000377: 30,2746           77776        ASCTERM2           EXIT
000378: 30,2747           15146        ASCTERM3           TCF      ENDOFJOB
000379: 30,2750           77776        ASCTERM4           EXIT
000380: 30,2751           00004                           INHINT


000382: 30,2752           04665                           TC       IBNKCALL                              #  NO GUIDANCE THIS CYCLE -- HENCE ZERO
000383: 30,2753           40166                           CADR     STOPRATE                              #  THE DAP COMMANDED RATES.
000384: 30,2754           12732                           TCF      ASCTERM1   +1
000385:
000386: 30,2755           45345        CHECKALT           DLOAD    DSU
000387: 30,2756           02272                                    /R/MAG
000388: 30,2757           02324                                    /LAND/
000389: 30,2760           50025                           DSU      BMN                                   #  IF H LT 25K CHECK Z AXIS ORIENTATION.
000390: 30,2761           26120                                    25KFT
000391: 30,2762           46453                                    CHECKYAW
000392: 30,2763           43014        EXITVR             CLEAR    BON
000393: 30,2764           04661                                    FLVR
000394: 30,2765           04711                                    ROTFLAG
000395: 30,2766           60705                                    MAINLINE
000396: 30,2767           43345                           DLOAD    DAD
000397: 30,2770           01234                                    PIPTIME
000398: 30,2771           25644                                    10SECS
000399: 30,2772           37654                           STCALL   TXO
000400: 30,2773           60705                                    MAINLINE
000401: 30,2774           77614        EXITVR1            CLRGO
000402: 30,2775           04631                                    ROTFLAG
000403: 30,2776           60763                                    EXITVR
000404:
000405: 27,2000                                           SETLOC   ASENT1
000406: 27,2000                                           BANK
000407: 27,3275                                           COUNT*   $$/ASENT
000408:
000409: 27,3275           53575        ANG1CHEK           VLOAD    UNIT
000410: 27,3276           03252                                    UNFC/2
000411: 27,3277           77641                           DOT
000412: 27,3300           02137                                    XNBPIP
000413: 27,3301           51025                           DSU      BPL
000414: 27,3302           02566                                    COSTHET1
000415: 27,3303           57312                                    OFFROT
000416: 27,3304           50375                           VLOAD    DOT
000417: 27,3305           02137                                    XNBPIP
000418: 27,3306           03537                                    UNIT/R/
000419: 27,3307           50025                           DSU      BMN
000420: 27,3310           02570                                    COSTHET2
000421: 27,3311           71453                                    KEEPVR1
000422: 27,3312           77614        OFFROT             CLRGO
000423: 27,3313           04631                                    ROTFLAG
000424: 27,3314           60717                                    CLRXFLAG
000425:
000426: 23,2000                                           SETLOC   ASENT7
000427: 23,2000                                           BANK
000428: 23,2453                                           COUNT*   $$/ASENT
000429:
000430: 23,2453  23,2453               SETXFLAG           =        CHECKYAW
000431:


000433: 23,2453           77614        CHECKYAW           SET
000434: 23,2454           06466                                    XOVINFLG                              #  PROHIBIT X-AXIS OVERRIDE
000435: 23,2455           74345                           DLOAD    VXSC
000436: 23,2456           02346                                    ATY
000437: 23,2457           02274                                    LAXIS
000438: 23,2460           74325                           PDDL     VXSC
000439: 23,2461           02352                                    ATP
000440: 23,2462           02606                                    ZAXIS1
000441: 23,2463           53455                           VAD      UNIT
000442: 23,2464           45325                           PDDL     DSU
000443: 23,2465           03474                                    RDOT
000444: 23,2466           06473                                    40FPS
000445: 23,2467           52044                           BPL      GOTO
000446: 23,2470           60774                                    EXITVR1
000447: 23,2471           71451                                    KEEPVR
000448:
000449: 23,2472           00017 23305  40FPS              2DEC     0.12192    B-7
000450:
000451: 34,3451                                           BANK     34
000452: 34,2000                                           SETLOC   ASENT8
000453: 34,2000                                           BANK
000454: 34,3451                                           COUNT*   $$/ASENT
000455:
000456: 34,3451           45575        KEEPVR             VLOAD    STADR                                 #  RECALL LOSVEC FROM PUSHLIST
000457: 34,3452           74517                           STORE    UNWC/2
000458: 34,3453           77775        KEEPVR1            VLOAD
000459: 34,3454           03537                                    UNIT/R/
000460: 34,3455           37252                           STCALL   UNFC/2
000461: 34,3456           60721                                    ASCTERM
000462:
000463:
000464: 34,3457           77634        ENGOFF             RTB
000465: 34,3460           21603                                    LOADTIME
000466: 34,3461           43225                           DSU      DAD
000467: 34,3462           01234                                    PIPTIME
000468: 34,3463           03454                                    TTOGO
000469: 34,3464           77476                           DCOMP    EXIT
000470: 34,3465           07300                           TC       TPAGREE                               #  FORCE SIGN AGREEMENT ON MPAC, MPAC +1.
000471: 34,3466           35007                           CAF      EBANK7
000472: 34,3467           54003                           TS       EBANK
000473: 34,3470  E7,1516                                  EBANK=   TGO
000474: 34,3470           00004                           INHINT
000475: 34,3471           10155                           CCS      MPAC       +1
000476: 34,3472           13475                           TCF      +3                                    #  C(A) = DT - 1 BIT
000477: 34,3473           13475                           TCF      +2                                    #  C(A) = 0
000478: 34,3474           34746                           CAF      ZERO                                  #  C(A) = 0
000479: 34,3475           64744                           AD       BIT1                                  #  C(A) = 1 BIT OR DT.
000480: 34,3476           55644                           TS       ENGOFFDT
000481: 34,3477           05175                           TC       TWIDDLE
000482: 34,3500           03512                           ADRES    ENGOFF1


000484: 34,3501           05355                           TC       PHASCHNG
000485: 34,3502           47014                           OCT      47014
000486: 34,3503           76133                           -GENADR  ENGOFFDT
000487: 34,3504  E7,1516                                  EBANK=   TGO
000488: 34,3504           03512 70067                     2CADR    ENGOFF1
000489:
000490: 34,3506           06060                           TC       INTPRET
000491: 34,3507           52014                           SET      GOTO
000492: 34,3510           03470                                    IDLEFLAG                              #  DISABLE DELTA-V MONITOR
000493: 34,3511           60447                                    T2TEST
000494:
000495: 34,3512           04665        ENGOFF1            TC       IBNKCALL                              #  SHUT OFF THE ENGINE.
000496: 34,3513           75552                           CADR     ENGINOF2
000497:
000498: 34,3514           35020                           CAF      PRIO17                                #  SET UP A JOB FOR THE ASCENT GUIDANCE
000499: 34,3515           05063                           TC       NOVAC
000500: 34,3516  E7,1455                                  EBANK=   WHICH
000501: 34,3516           03526 70067                     2CADR    CUTOFF
000502:
000503: 34,3520           05355                           TC       PHASCHNG
000504: 34,3521           07024                           OCT      07024
000505: 34,3522           17000                           OCT      17000
000506: 34,3523  E7,1516                                  EBANK=   TGO
000507: 34,3523           03526 70067                     2CADR    CUTOFF
000508:
000509: 34,3525           15263                           TCF      TASKOVER
000510:
000511: 34,3526           05506        CUTOFF             TC       UPFLAG                                #  SET FLRCS FLAG.
000512: 34,3527           00214                           ADRES    FLRCS
000513:
000514: 34,3530           33547                 -5        CAF      V16N94
000515: 34,3531           04607                           TC       BANKCALL
000516: 34,3532           20471                           CADR     GOFLASH
000517: 34,3533           13536                           TCF      +3
000518: 34,3534           13540                           TCF      CUTOFF1
000519: 34,3535           13530                           TCF      -5
000520:
000521: 34,3536           04626                 +3        TC       POSTJUMP
000522: 34,3537           71560                           CADR     TERMASC
000523:
000524: 34,3540           00004        CUTOFF1            INHINT
000525: 34,3541           04665                           TC       IBNKCALL                              #  ZERO ATTITUDE ERRORS BEFORE REDUCING DB.
000526: 34,3542           40154                           CADR     ZATTEROR
000527: 34,3543           04665                           TC       IBNKCALL
000528: 34,3544           40141                           CADR     SETMINDB
000529: 34,3545           04626                           TC       POSTJUMP
000530: 34,3546           71550                           CADR     CUTOFF2
000531:
000532: 34,3547           04136        V16N94             VN       1694
000533: 34,3550           05355        CUTOFF2            TC       PHASCHNG


000535: 34,3551           04024                           OCT      04024
000536:
000537: 34,3552           33570                           CAF      V16N85C
000538: 34,3553           04607                           TC       BANKCALL
000539: 34,3554           20471                           CADR     GOFLASH
000540: 34,3555           13560                           TCF      TERMASC
000541: 34,3556           13560                           TCF      +2                                    #  PROCEED
000542: 34,3557           13550                           TCF      CUTOFF2
000543:
000544: 34,3560           05355        TERMASC            TC       PHASCHNG
000545: 34,3561           04024                           OCT      04024
000546:
000547: 34,3562           00004                           INHINT                                         #  RESTORE DEADBAND DESIRED BY ASTRONAUT.
000548: 34,3563           04665                           TC       IBNKCALL
000549: 34,3564           40115                           CADR     RESTORDB
000550: 34,3565           05520                           TC       DOWNFLAG                              #  DISALLOW ABORTS AT THIS TIME.
000551: 34,3566           00215                           ADRES    LETABORT
000552: 34,3567           16001                           TCF      GOTOPOOH
000553:
000554: 34,3570           04125        V16N85C            VN       1685
000555:
000556: 34,3571           77745        RPCOMP1            DLOAD                                          #  FLRCS = 1 (TRIM MODE)
000557: 34,3572           06505                                    HI6ZEROS
000558: 34,3573           02336                           STORE    PCONS                                 #  SET PCONS = PRATE = 0 SO THAT
000559: 34,3574           02342                           STORE    PRATE                                 #      RP = R + RDOT TGO
000560: 34,3575           41345        RPCOMP2            DLOAD    DMP                                   #  FLRCS = 0 (GUIDANCE MODE)
000561: 34,3576           02342                                    PRATE                                 #  LEAVE PCONS AND PRATE ALONE SO THAT
000562: 34,3577           03517                                    TGO                                   #      RP = R + RDOT TGO + (PCONS*TGO**2)/
000563: 34,3600           43205                           DMP      DAD                                   #      (2 TBUP) + (PRATE*TGO**3)/(6 TBUP)
000564: 34,3601           33646                                    THIRD
000565: 34,3602           02336                                    PCONS
000566: 34,3603           41205                           DMP      DMP
000567: 34,3604           03517                                    TGO
000568: 34,3605           03517                                    TGO
000569: 34,3606           72471                           DDV      SL1
000570: 34,3607           02262                                    TBUP
000571: 34,3610           65215                           DAD      PDDL
000572: 34,3611           02272                                    /R/MAG
000573: 34,3612           03474                                    RDOT
000574: 34,3613           43205                           DMP      DAD
000575: 34,3614           03517                                    TGO
000576: 34,3615           77626                           STADR
000577: 34,3616           75201                           STORE    RP
000578: 34,3617           77616                           RVQ
000579:
000580: 34,3620           45020        ZDOTDCMP           STQ      CALL                                  #  COMPUTE CENTRAL ANGLE                (0)
000581: 34,3621           02637                                    ASCSAVE
000582: 34,3622           71650                                    THETCOMP
000583: 34,3623           43205                           DMP      DAD                                   #  CENTRAL ANGLE IN MPAC
000584: 34,3624           02574                                    KPARM


000586: 34,3625           02572                                    JPARM
000587: 34,3626           41425                           DSU      PUSH                                  #  RA IN MPAC AND IN PUSHLIST          (2)
000588: 34,3627           02576                                    RP
000589: 34,3630           51025                           DSU      BPL
000590: 34,3631           02560                                    RAMIN
000591: 34,3632           71635                                    +3
000592: 34,3633           65345                           DLOAD    PDDL                                  #  RA < RAMIN.  SET RA = RAMIN.        (2)
000593: 34,3634           02560                                    RAMIN
000594: 34,3635           41345                 +3        DLOAD    DMP
000595: 34,3636           00001                                    0D
000596: 34,3637           16025                                    MUM(-37)
000597: 34,3640           77725                           PDDL
000598: 34,3641           41215                           DAD      DMP
000599: 34,3642           02576                                    RP
000600: 34,3643           02576                                    RP
000601: 34,3644           75465                           BDDV     SQRT                                  #                                      (0)
000602: 34,3645           77626                           STADR
000603: 34,3646           41507                           STCALL   ZDOTD                                 #  UPDATE ZDOTD FOR GUIDANCE AND DOWNLINK.
000604: 34,3647           02637                                    ASCSAVE
000605:
000606: 34,3650           53575        THETCOMP           VLOAD    UNIT
000607: 34,3651           03521                                    R
000608: 34,3652           53515                           PDVL     UNIT                                  #                                      (6)
000609: 34,3653           01716                                    R(CSM)
000610: 34,3654           47206                           PUSH     VXV                                   #                                      (12)
000611: 34,3655           00001                                    0D
000612: 34,3656           77641                           DOT
000613: 34,3657           02316                                    WM
000614: 34,3660           24037                           STOVL    30D                                   #                                      (6)
000615: 34,3661           72441                           DOT      SL1                                   #                                      (0)
000616: 34,3662           75326                           ARCCOS   SIGN
000617: 34,3663           00037                                    30D
000618: 34,3664           77616                           RVQ
000619:
000620: 27,3315                                           BANK     27
000621: 27,2000                                           SETLOC   ASENT1
000622: 27,2000                                           BANK
000623: 27,3315                                           COUNT*   $$/ASENT
000624:
000625: 27,3315           50375        YCOMP              VLOAD    DOT
000626: 27,3316           03537                                    UNIT/R/
000627: 27,3317           02600                                    QAXIS
000628: 27,3320           41312                           SL2      DMP
000629: 27,3321           03631                                    RCO
000630: 27,3322           02326                           STORE    Y
000631: 27,3323           77616                           RVQ
000632:
000633: 30,2777                                           BANK     30
000634: 30,2000                                           SETLOC   ASENT


000636: 30,2000                                           BANK
000637:


000639:                                                                                                  #  ASCENT GUIDANCE CONSTANTS
000640:
000641: 30,2777  33,3052               100CS              EQUALS   2SEC(18)
000642: 30,2777  30,3001               T2A                EQUALS   2SEC(17)
000643: 30,2777           00062 00000  4SEC(17)           2DEC     400        B-17
000644:
000645: 30,3001           00031 00000  2SEC(17)           2DEC     200        B-17
000646:
000647: 30,3003           00175 00000  T3                 2DEC     1000       B-17
000648:
000649: 30,3005           00045 20000  6SEC(18)           2DEC     600        B-18
000650:
000651: 30,3007           00010        BIT4H              OCT      10
000652:
000653: 30,3010           14400 00000  2SEC(9)            2DEC     200        B-9
000654:
000655: 30,3012           01536        V06N94             VN       0694
000656: 30,3013           01514        V06N76             VN       0676
000657: 30,3014           01441        V06N33A            VN       0633
000658:
000659: 33,2113                                           BANK     33
000660: 33,2000                                           SETLOC   ASENT6
000661: 33,2000                                           BANK
000662: 33,2113                                           COUNT*   $$/ASENT
000663:
000664: 33,2113           75751 41775  PRLIMIT            2DEC     -.0639                                #  (B/TBUP)MIN=-.1FT.SEC(-3)
000665:
000666: 33,2115           00022 07212  MINABDV            2DEC     .0356      B-5                        #  10 PERCENT BIGGER THAN GRAVITY
000667:
000668: 33,2117           00007 16100  25KFT              2DEC     7620       B-24
000669:


000671:                                                                                                  #  THE LOGARITHM SUBROUTINE
000672:
000673: 24,3644                                           BANK     24
000674: 30,2000                                           SETLOC   FLOGSUB
000675: 30,2000                                           BANK
000676:
000677:                                                                                                  #  INPUT ..... X IN MPAC
000678:                                                                                                  #  OUTPUT ..... -LOG(X) IN MPAC
000679:
000680: 30,3015           44301        LOGSUB             NORM     BDSU
000681: 30,3016           00163                                    MPAC       +6
000682: 30,3017           17774                                    NEARONE
000683: 30,3020           77776                           EXIT
000684: 30,3021           07243                           TC       POLY
000685: 30,3022           00006                           DEC      6          B-14
000686: 30,3023           00000 00002                     2DEC     .0000000060
000687:
000688: 30,3025           76777 77175                     2DEC     -.0312514377
000689:
000690: 30,3027           77400 75416                     2DEC     -.0155686771
000691:
000692: 30,3031           77507 65515                     2DEC     -.0112502068
000693:
000694: 30,3033           77741 63547                     2DEC     -.0018545108
000695:
000696: 30,3035           77052 55373                     2DEC     -.0286607906
000697:
000698: 30,3037           01167 30361                     2DEC     .0385598563
000699:
000700: 30,3041           76520 75267                     2DEC     -.0419361902
000701:
000702: 30,3043           34746                           CAF      ZERO
000703: 30,3044           54156                           TS       MPAC       +2
000704: 30,3045           00006                           EXTEND
000705: 30,3046           33062                           DCA      CLOG2/32
000706: 30,3047           52155                           DXCH     MPAC
000707: 30,3050           52132                           DXCH     BUF        +1
000708: 30,3051           30162                           CA       MPAC       +6
000709: 30,3052           07330                           TC       SHORTMP
000710: 30,3053           52156                           DXCH     MPAC       +1
000711: 30,3054           52155                           DXCH     MPAC
000712: 30,3055           52132                           DXCH     BUF        +1
000713: 30,3056           20155                           DAS      MPAC
000714: 30,3057           06060                           TC       INTPRET
000715: 30,3060           43476                           DCOMP    RVQ
000716:
000717: 30,3061           00542 34414  CLOG2/32           2DEC     .0216608494
000718:

End of include-file ASCENT_GUIDANCE.agc.  Parent file is MAIN.agc


