
Source Code


000002:                                                                                                  ## Copyright:   Public domain.
000003:                                                                                                  ## Filename:    BURN,_BABY,_BURN_--_MASTER_IGNITION_ROUTINE.agc
000004:                                                                                                  ## Purpose:     A section of Luminary revision 210.
000005:                                                                                                  ##              It is part of the source code for the Lunar Module's (LM)
000006:                                                                                                  ##              Apollo Guidance Computer (AGC) for Apollo 15-17.
000007:                                                                                                  ##              This file is intended to be a faithful transcription, except
000008:                                                                                                  ##              that the code format has been changed to conform to the
000009:                                                                                                  ##              requirements of the yaYUL assembler rather than the
000010:                                                                                                  ##              original YUL assembler.
000011:                                                                                                  ## Reference:   pp. 726-746
000012:                                                                                                  ## Assembler:   yaYUL
000013:                                                                                                  ## Contact:     Ron Burkey <info@sandroid.org>.
000014:                                                                                                  ## Website:     www.ibiblio.org/apollo/index.html
000015:                                                                                                  ## Mod history: 2016-11-17 JL   Created from Luminary131 version.
000016:                                                                                                  ##              2016-01-12 HG   Transcribed
000017:                                                                                                  ##              2016-12-07 HG   fix P00 -> POO
000018:                                                                                                  ##                              Change POO -> P00 in some comments
000019:                                                                                                  ##              2016-12-12 HG   Fix constant value (P42TABLE)   2640 -> 2390
000020:                                                                                                  ##                                  operator TCF, BZF -> TC
000021:                                                                                                  ##              2016-12-25 RSB  Comment-text proofed using ProoferComments
000022:                                                                                                  ##                              and corrected errors found.
000023:                                                                                                  ##              2017-03-09 RSB  Comment-text fixes noted in proofing Luminary 116.
000024:                                                                                                  ##              2017-03-15 RSB  Comment-text proofing using 5-way side-by-side diff
000025:                                                                                                  ##                              of Luminary 69/99/116/131/210.
000026:


000028:
000029: 36,2024                                           BANK     36
000030: 36,2000                                           SETLOC   P40S
000031: 36,2000                                           BANK
000032: 36,2024  E7,1455                                  EBANK=   WHICH
000033: 36,2024                                           COUNT*   $$/P40
000034:                                                                                                  #      THE MASTER IGNITION ROUTINE IS DESIGNED FOR USE BY THE FOLLOWING LEM PROGRAMS:  P12, P40, P42, P61, P63.
000035:                                                                                                  #  IT PERFORMS ALL FUNCTIONS IMMEDIATELY ASSOCIATED WITH APS OR DPS IGNITION:  IN PARTICULAR, EVERYTHING LYING
000036:                                                                                                  #  BETWEEN THE PRE-IGNITION TIME CHECK -- ARE WE WITHIN 45 SECONDS OF TIG? -- AND TIG + 26 SECONDS, WHEN DPS
000037:                                                                                                  #  PROGRAMS THROTTLE UP.
000038:
000039:                                                                                                  #      VARIATIONS AMONG PROGRAMS ARE ACCOMODATED BY MEANS OF TABLES CONTAINING CONSTANTS (FOR AVEGEXIT, FOR
000040:                                                                                                  #  WAITLIST, FOR PINBALL) AND TCF INSTRUCTIONS.   USERS PLACE THE ADRES OF THE HEAD OF THE APPROPRIATE TABLE
000041:                                                                                                  #  (OF P61TABLE FOR P61LM, FOR EXAMPLE) IN ERASABLE REGISTER 'WHICH' (E4).   THE IGNITION ROUTINE THEN INDEXES BY
000042:                                                                                                  #  WHICH TO OBTAIN OR EXECUTE THE PROPER TABLE ENTRY.   THE IGNITION ROUTINE IS INITIATED BY A TCF BURNBABY,
000043:                                                                                                  #  THROUGH BANKJUMP IF NECESSARY.   THERE IS NO RETURN.
000044:
000045:                                                                                                  #      THE MASTER IGNITION ROUTINE WAS CONCEIVED AND EXECUTED, AND (NOTA BENE) IS MAINTAINED BY ADLER AND EYLES.
000046:
000047:
000048:                                                                                                  #                                         HONI SOIT QUI MAL Y PENSE
000049:
000050:
000051:                                                                                                  #                                  ****************************************
000052:                                                                                                  #                                  TABLES FOR THE IGNITION ROUTINE
000053:                                                                                                  #                                  ****************************************
000054:
000055:                                                                                                  #                                              NOLI SE TANGERE
000056:
000057: 36,2024           01512        P12TABLE           VN       0674                                  #  (0)
000058: 36,2025           12327                           TCF      ULLGNOT                               #  (1)
000059: 36,2026           12611                           TCF      COMFAIL3                              #  (2)
000060: 36,2027           13061                           TCF      GOCUTOFF                              #  (3)
000061: 36,2030           15263                           TCF      TASKOVER                              #  (4)
000062: 36,2031           12150                           TCF      P12SPOT                               #  (5)
000063: 36,2032           00000                           DEC      0          B-14                       #  (6)       NO ULLAGE
000064: 36,2033  E7,1455                                  EBANK=   WHICH
000065: 36,2033           03656 64067                     2CADR    SERVEXIT                              #  (7)
000066:
000067: 36,2035           12402                           TCF      DISPCHNG                              #  (11)
000068: 36,2036           12562                           TCF      WAITABIT                              #  (12)
000069: 36,2037           12523                           TCF      P12IGN                                #  (13)
000070:
000071:
000072:
000073: 36,2040           01450        P40TABLE           VN       0640                                  #  (0)
000074: 36,2041           12327                           TCF      ULLGNOT                               #  (1)
000075: 36,2042           12613                           TCF      COMFAIL4                              #  (2)
000076: 36,2043           13046                           TCF      GOPOST                                #  (3)
000077: 36,2044           15263                           TCF      TASKOVER                              #  (4)
000078: 36,2045           12150                           TCF      P40SPOT                               #  (5)
000079:


000081: 36,2046           04300                           DEC      2240       B-14                       #  (6)
000082: 36,2047  E6,1422                                  EBANK=   OMEGAQ
000083: 36,2047           03667 74066                     2CADR    STEERING                              #  (7)
000084: 36,2051           12372                           TCF      P40SJUNK                              #  (11)
000085: 36,2052           12562                           TCF      WAITABIT                              #  (12)
000086: 36,2053           12506                           TCF      P40IGN                                #  (13)
000087: 36,2054           13122                           TCF      REP40ALM                              #  (14)
000088:
000089:
000090:
000091: 36,2055           12153        P41TABLE           TCF      P41SPOT                               #  (5)
000092: 36,2056           77776                           DEC      -1         B-14                       #  (6)
000093: 36,2057  E6,1422                                  EBANK=   OMEGAQ
000094: 36,2057           02570 64066                     2CADR    CALCN85                               #  (7)
000095:
000096: 36,2061           12404                           TCF      COMMON                                #  (11)
000097: 36,2062           12566                           TCF      TIGTASK                               #  (12)
000098:
000099:
000100:
000101: 36,2063           01450        P42TABLE           VN       0640                                  #  (0)
000102: 36,2064           12324                           TCF      WANTAPS                               #  (1)
000103: 36,2065           12613                           TCF      COMFAIL4                              #  (2)
000104: 36,2066           13046                           TCF      GOPOST                                #  (3)
000105: 36,2067           15263                           TCF      TASKOVER                              #  (4)
000106: 36,2070           12150                           TCF      P42SPOT                               #  (5)
000107: 36,2071           04526                           DEC      2390       B-14                       #  (6) ULLAGE ON AT TIG-6 SECS.
000108: 36,2072  E6,1422                                  EBANK=   OMEGAQ
000109: 36,2072           03667 74066                     2CADR    STEERING                              #  (7)
000110: 36,2074           12372                           TCF      P40SJUNK                              #  (11)
000111: 36,2075           12562                           TCF      WAITABIT                              #  (12)
000112: 36,2076           12540                           TCF      P42IGN                                #  (13)
000113: 36,2077           13421                           TCF      P42STAGE                              #  (14)
000114:
000115:
000116:
000117: 36,2100           01476        P63TABLE           VN       0662                                  #  (0)
000118: 36,2101           12327                           TCF      ULLGNOT                               #  (1)
000119: 36,2102           12611                           TCF      COMFAIL3                              #  (2)
000120: 36,2103           12776                           TCF      V99RECYC                              #  (3)
000121: 36,2104           15263                           TCF      TASKOVER                              #  (4)
000122: 36,2105           12153                           TCF      P63SPOT                               #  (5)
000123: 36,2106           04300                           DEC      2240       B-14                       #  (6)
000124: 36,2107  E7,1455                                  EBANK=   WHICH
000125: 36,2107           03656 64067                     2CADR    SERVEXIT                              #  (7)
000126: 36,2111           12402                           TCF      DISPCHNG                              #  (11)
000127: 36,2112           12562                           TCF      WAITABIT                              #  (12)
000128:


000130: 36,2113           12465                           TCF      P63IGN                                #  (13)
000131:
000132:
000133:
000134: 36,2114           01477        ABRTABLE           VN       0663                                  #  (0)
000135: 36,2115           12327                           TCF      ULLGNOT                               #  (1)
000136: 36,2116           12611                           TCF      COMFAIL3                              #  (2)
000137: 36,2117           13061                           TCF      GOCUTOFF                              #  (3)
000138: 36,2120           15263                           TCF      TASKOVER                              #  (4)
000139: 36,2121           12122                           NOOP                                           #  (5)
000140: 36,2122           12123                           NOOP                                           #  (6)
000141: 36,2123           12124                           NOOP                                           #  (7)
000142: 36,2124           12125                           NOOP
000143: 36,2125           12402                           TCF      DISPCHNG                              #  (11)
000144: 36,2126           12562                           TCF      WAITABIT                              #  (12)
000145: 36,2127           12533                           TCF      ABRTIGN                               #  (13)
000146:
000147:
000148:
000149:                                                                                                  #                ****************************************
000150:                                                                                                  #                GENERAL PURPOSE IGNITION ROUTINES
000151:                                                                                                  #                ****************************************
000152:
000153: 36,2130           05355        BURNBABY           TC       PHASCHNG                              #  GROUP 4 RESTARTS HERE
000154: 36,2131           04024                           OCT      04024
000155:
000156: 36,2132           34746                           CAF      ZERO                                  #  EXTIRPATE JUNK LEFT IN DVTOTAL
000157: 36,2133           55507                           TS       DVTOTAL
000158: 36,2134           55510                           TS       DVTOTAL    +1
000159:
000160: 36,2135           04607                           TC       BANKCALL                              #  P40AUTO MUST BE BANKCALLED EVEN FROM ITS
000161: 36,2136           73710                           CADR     P40AUTO                               #    OWN BANK TO SET UP RETURN PROPERLY
000162:
000163: 36,2137           00006        B*RNB*B*           EXTEND
000164: 36,2140           31442                           DCA      TIG                                   #  STORE NOMINAL TIG FOR OBLATENESS COMP.
000165: 36,2141           53512                           DXCH     GOBLTIME                              #  AND FOR P70 OR P71.
000166:
000167: 36,2142           00004                           INHINT
000168: 36,2143           04665                           TC       IBNKCALL
000169: 36,2144           75565                           CADR     ENGINOF3
000170: 36,2145           00003                           RELINT
000171:
000172: 36,2146           51455                           INDEX    WHICH
000173: 36,2147           00005                           TC       5
000174:
000175: 36,2150  36,2150               P42SPOT            =        P40SPOT                               #  (5)
000176: 36,2150  36,2150               P12SPOT            =        P40SPOT                               #  (5)
000177: 36,2150  36,2153               P63SPOT            =        P41SPOT                               #  (5)      IN P63 CLOKTASK ALREADY GOING
000178: 36,2150           44753        P40SPOT            CS       CNTDNDEX                              #  (5)
000179: 36,2151           04607                           TC       BANKCALL                              #  MUST BE BANKCALLED FOR GENERALIZED
000180:


000182: 36,2152           74663                           CADR     STCLOK2                               #  RETURN
000183: 36,2153           06060        P41SPOT            TC       INTPRET                               #  (5)
000184: 36,2154           45345                           DLOAD    DSU
000185: 36,2155           03442                                    TIG
000186: 36,2156           35142                                    D29.9SEC
000187: 36,2157           34041                           STCALL   TDEC1
000188: 36,2160           61063                                    INITCDUW
000189: 36,2161           45014                           BOFF     CALL
000190: 36,2162           03347                                    MUNFLAG
000191: 36,2163           74202                                    GOMIDAV
000192: 36,2164           27101                                    CSMPREC
000193: 36,2165           64375                           VLOAD    MXV
000194: 36,2166           00025                                    VATT1
000195: 36,2167           01732                                    REFSMMAT
000196: 36,2170           77762                           VSR1
000197: 36,2171           25724                           STOVL    V(CSM)                                #  CSM VELOCITY - M/CS*2(7)
000198: 36,2172           00017                                    RATT1
000199: 36,2173           64312                           VSL4     MXV
000200: 36,2174           01732                                    REFSMMAT
000201: 36,2175           35716                           STCALL   R(CSM)                                #  CSM POSITION - M*2(24)
000202: 36,2176           67037                                    MUNGRAV
000203: 36,2177           16310                           STODL    G(CSM)                                #  CSM GRAVITY VEC. - M/CS*2(7)
000204: 36,2200           00015                                    TAT
000205: 36,2201           00041                           STORE    TDEC1                                 #  RELOAD TDEC1 FOR MIDTOAV.
000206: 36,2202           77624        GOMIDAV            CALRB
000207: 36,2203           27606                                    MIDTOAV1
000208: 36,2204           12213                           TCF      CALLT-35                              #  MADE IT IN TIME.
000209:
000210: 36,2205           00006                           EXTEND                                         #  TIG WAS SLIPPED, SO RESET TIG TO 29.9
000211: 36,2206           31561                           DCA      PIPTIME1                              #  SECONDS AFTER THE TIME TO WHICH WE DID
000212: 36,2207           53442                           DXCH     TIG                                   #  INTEGRATE.
000213: 36,2210           00006                           EXTEND
000214: 36,2211           33142                           DCA      D29.9SEC
000215: 36,2212           21442                           DAS      TIG
000216:
000217: 36,2213           52155        CALLT-35           DXCH     MPAC
000218: 36,2214           53500                           DXCH     SAVET-30                              #  DELTA-T UNTIL TIG-30
000219: 36,2215           00006                           EXTEND
000220: 36,2216           43751                           DCS      5SECDP
000221: 36,2217           21500                           DAS      SAVET-30                              #  DELTA-T UNTIL TIG-35
000222: 36,2220           00006                           EXTEND
000223: 36,2221           31500                           DCA      SAVET-30
000224: 36,2222           05301                           TC       LONGCALL
000225: 36,2223  E7,1453                                  EBANK=   TTOGO
000226: 36,2223           02242 74067                     2CADR    TIG-35
000227: 36,2225           05355                           TC       PHASCHNG
000228: 36,2226           20254                           OCT      20254                                 #  4.25SPOT FOR TIG-35 RESTART.
000229: 36,2227           05323                           TC       CHECKMM
000230:


000232: 36,2230           00077                           DEC      63         B-14
000233: 36,2231           15146                           TCF      ENDOFJOB                              #  NOT P63
000234: 36,2232           44753                           CS       CNTDNDEX                              #  P63 CAN START DISPLAYING NOW.
000235: 36,2233           55162                           TS       DISPDEX
000236: 36,2234           06060                           TC       INTPRET
000237: 36,2235           51575                           VLOAD    ABVAL
000238: 36,2236           03553                                    VN1
000239: 36,2237           03472                           STORE    ABVEL                                 #  INITIALIZE ABVEL FOR P63 DISPLAY
000240: 36,2240           77776                           EXIT
000241: 36,2241           15146                           TCF      ENDOFJOB
000242:
000243:                                                                                                  #        ****************************************
000244:
000245: 36,2242           33751        TIG-35             CAF      5SEC
000246: 36,2243           05175                           TC       TWIDDLE
000247: 36,2244           02300                           ADRES    TIG-30
000248:
000249: 36,2245           05355                           TC       PHASCHNG
000250: 36,2246           40154                           OCT      40154                                 #  4.15SPOT FOR TIG-30 RESTART
000251:
000252: 36,2247           44743                           CS       BLANKDEX                              #  BLANK DSKY FOR 5 SECONDS
000253: 36,2250           55162                           TS       DISPDEX
000254:
000255: 36,2251           51455                           INDEX    WHICH
000256: 36,2252           40006                           CS       6                                     #  CHECK ULLAGE TIME.
000257: 36,2253           00006                           EXTEND
000258: 36,2254           65263                           BZMF     TASKOVER
000259: 36,2255           33144                           CAF      4.9SEC                                #  SET UP TASK TO RESTORE DISPLAY AT TIG-30
000260: 36,2256           05175                           TC       TWIDDLE
000261: 36,2257           02270                           ADRES    TIG-30.1
000262:
000263: 36,2260           35020                           CAF      PRIO17                                #  A NEGATIVE ULLAGE TIME INDICATES P41, IN
000264: 36,2261           05063                           TC       NOVAC                                 #  WHICH CASE WE HAVE TO SET UP A JOB TO
000265: 36,2262  E7,1453                                  EBANK=   TTOGO                                 #  BLANK THE DSKY FOR FIVE SECONDS, SINCE
000266: 36,2262           02265 74067                     2CADR    P41BLANK                              #  CLOKJOB IS NOT RUNNING DURING P41.
000267:
000268: 36,2264           15263                           TCF      TASKOVER
000269:
000270: 36,2265           04607        P41BLANK           TC       BANKCALL                              #  BLANK DSKY.
000271: 36,2266           20451                           CADR     CLEANDSP
000272: 36,2267           15146                           TCF      ENDOFJOB
000273:
000274: 36,2270           35020        TIG-30.1           CAF      PRIO17                                #  SET UP JOB TO RESTORE DISPLAY AT TIG-30
000275: 36,2271           05063                           TC       NOVAC
000276: 36,2272  E7,1453                                  EBANK=   TTOGO
000277: 36,2272           02275 74067                     2CADR    TIG-30A
000278:
000279: 36,2274           15263                           TCF      TASKOVER
000280:


000282: 36,2275           33753        TIG-30A            CAF      V16N85B
000283: 36,2276           04607                           TC       BANKCALL                              #  RESTORE DISPLAY.
000284: 36,2277           20460                           CADR     REGODSP                               #  REGODSP DOES A TCF ENDOFJOB
000285:
000286:                                                                                                  #        *****************************************
000287:
000288: 36,2300           33143        TIG-30             CAF      S24.9SEC
000289: 36,2301           05175                           TC       TWIDDLE
000290: 36,2302           02354                           ADRES    TIG-5
000291:
000292: 36,2303           44753                           CS       CNTDNDEX                              #  START UP CLOKTASK AGAIN
000293: 36,2304           55162                           TS       DISPDEX
000294:
000295: 36,2305           51455                           INDEX    WHICH                                 #  PICK UP APPROPRIATE ULLAGE-ON TIME
000296: 36,2306           30006                           CAF      6
000297: 36,2307           00006                           EXTEND
000298: 36,2310           62327                           BZMF     ULLGNOT                               #  DON'T SET UP ULLAGE IF DT IS NEG OR ZERO
000299: 36,2311           55477                           TS       SAVET-30                              #  SAVE DELTA-T FOR RESTART
000300: 36,2312           05175                           TC       TWIDDLE
000301: 36,2313           02350                           ADRES    ULLGTASK
000302:
000303: 36,2314           36266                           CA       THREE                                 #  RESTART PROTECT ULLGTASK (1.3SPOT)
000304: 36,2315           54001                           TS       L
000305: 36,2316           46266                           CS       THREE
000306: 36,2317           52752                           DXCH     -PHASE1
000307: 36,2320           40025                           CS       TIME1
000308: 36,2321           55052                           TS       TBASE1
000309:
000310: 36,2322           51455                           INDEX    WHICH
000311: 36,2323           00001                           TC       1
000312:
000313: 36,2324           40106        WANTAPS            CS       FLGWRD10                              #  (1) FOR P42 ENSURE APSFLAG IS SET. IF IT
000314: 36,2325           74730                           MASK     APSFLBIT                              #  WASN'T SET, DAP WILL BE INITIALIZED TO
000315: 36,2326           26106                           ADS      FLGWRD10                              #  ASCENT VALUES BY 1/ACCS IN 2 SECONDS.
000316:
000317: 36,2327           00006        ULLGNOT            EXTEND                                         #  (1)
000318: 36,2330           51455                           INDEX    WHICH
000319: 36,2331           30010                           DCA      7                                     #  LOAD AVEGEXIT WITH APPROPRIATE 2CADR
000320: 36,2332           53252                           DXCH     AVEGEXIT
000321:
000322: 36,2333           34743                           CAF      TWO                                   #  4.2SPOT RESTARTS IMMEDIATELY AT REDO4.2
000323: 36,2334           54001                           TS       L
000324: 36,2335           44743                           CS       TWO                                   #  AND ALSO AT TIG-5 AT THE CORRECT TIME.
000325: 36,2336           52760                           DXCH     -PHASE4
000326:
000327: 36,2337           40025                           CS       TIME1
000328: 36,2340           55060                           TS       TBASE4                                #  SET TBASE4 FOR TIG-5 RESTART
000329:
000330: 36,2341           00006        REDO2.17           EXTEND
000331:


000333: 36,2342           34746                           DCA      NEG0                                  #  CLEAR OUT GROUP 2 SO LAMBERT CAN START
000334: 36,2343           52754                           DXCH     -PHASE2                               #        IF NEEDED.
000335:
000336: 36,2344           10762        REDO4.2            CCS      PHASE5                                #  IS SERVICER GOING?
000337: 36,2345           15263                           TCF      TASKOVER                              #  YES, DON'T START IT UP AGAIN.
000338:
000339: 36,2346           04626                           TC       POSTJUMP
000340: 36,2347           77401                           CADR     PREREAD                               #  PREREAD ENDS THIS TASK
000341:
000342:
000343:                                                                                                  #        ****************************************
000344:
000345: 36,2350           02656        ULLGTASK           TC       ONULLAGE                              #  THIS COMES AT TIG-7.5 OR TIG-3.5
000346: 36,2351           05355                           TC       PHASCHNG
000347: 36,2352           00001                           OCT      1
000348: 36,2353           15263                           TCF      TASKOVER
000349:
000350:
000351:                                                                                                  #        ****************************************
000352:
000353: 36,2354           00006        TIG-5              EXTEND
000354: 36,2355           34746                           DCA      NEG0                                  #  INSURE THAT GROUP 3 IS INACTIVE.
000355: 36,2356           52756                           DXCH     -PHASE3
000356:
000357: 36,2357           33751                           CAF      5SEC
000358: 36,2360           05175                           TC       TWIDDLE
000359: 36,2361           02407                           ADRES    TIG-0
000360:
000361: 36,2362           05520                           TC       DOWNFLAG                              #  RESET IGNFLAG AND ASTNFLAG
000362: 36,2363           00153                           ADRES    IGNFLAG                               #    FOR LIGHT-UP LOGIC
000363: 36,2364           05520                           TC       DOWNFLAG
000364: 36,2365           00154                           ADRES    ASTNFLAG
000365: 36,2366           05520                           TC       DOWNFLAG
000366: 36,2367           00122                           ADRES    ZOOMFLAG
000367:
000368: 36,2370           51455                           INDEX    WHICH
000369: 36,2371           00011                           TC       11
000370:
000371: 36,2372           10756        P40SJUNK           CCS      PHASE3                                #  (11) P40 AND P42.  S40.13 IN PROGRESS?
000372: 36,2373           12402                           TCF      DISPCHNG                              #  YES
000373:
000374: 36,2374           34727                           CAF      PRIO20
000375: 36,2375           05076                           TC       FINDVAC
000376: 36,2376  E7,1453                                  EBANK=   TTOGO
000377: 36,2376           02536 56067                     2CADR    S40.13
000378:
000379: 36,2400           05355                           TC       PHASCHNG                              #  3.5SPOT FOR S40.13
000380: 36,2401           00053                           OCT      00053
000381:


000383: 36,2402           44751        DISPCHNG           CS       VB99DEX                               #  (11)
000384: 36,2403           55162                           TS       DISPDEX
000385: 36,2404           05355        COMMON             TC       PHASCHNG                              #  RESTART TIG-0 (4.7SPOT)
000386: 36,2405           40074                           OCT      40074
000387: 36,2406           15263                           TCF      TASKOVER
000388:
000389:
000390:                                                                                                  #        ****************************************
000391:
000392: 36,2407           40103        TIG-0              CS       FLAGWRD7                              #  SET IGNFLAG SINCE TIG HAS ARRIVED
000393: 36,2410           74730                           MASK     IGNFLBIT
000394: 36,2411           26103                           ADS      FLAGWRD7
000395:
000396: 36,2412           05323                           TC       CHECKMM                               #  IN P63 CASE, THROTTLE-UP IS ZOOMTIME
000397: 36,2413           00077                           DEC      63         B-14                       #    AFTER NOMINAL IGNITION, NOT ACTUAL
000398: 36,2414           12425                           TCF      IGNYET?
000399: 36,2415           31422                           CA       ZOOMTIME
000400: 36,2416           05205                           TC       WAITLIST
000401: 36,2417  E7,1515                                  EBANK=   DVCNTR
000402: 36,2417           03670 72067                     2CADR    ZOOM
000403: 36,2421           05331                           TC       2PHSCHNG
000404: 36,2422           40033                           OCT      40033
000405:
000406: 36,2423           05014                           OCT      05014
000407: 36,2424           77777                           OCT      77777
000408:
000409: 36,2425           34731        IGNYET?            CAF      ASTNBIT                               #  CHECK ASTNFLAG:  HAS ASTRONAUT RESPONDED
000410: 36,2426           70103                           MASK     FLAGWRD7                              #    TO OUR ENGINE ENABLE REQUEST?
000411: 36,2427           10000                           CCS      A
000412: 36,2430           12433                           TCF      IGNITION
000413: 36,2431           51455                           INDEX    WHICH
000414: 36,2432           00012                           TC       12
000415:
000416: 36,2433           40101        IGNITION           CS       FLAGWRD5                              #  INSURE ENGONFLG IS SET.
000417: 36,2434           74736                           MASK     ENGONBIT
000418: 36,2435           26101                           ADS      FLAGWRD5
000419: 36,2436           44346                           CS       PRIO30                                #  TURN ON THE ENGINE.
000420: 36,2437           00006                           EXTEND
000421: 36,2440           02011                           RAND     DSALMOUT
000422: 36,2441           64730                           AD       BIT13
000423: 36,2442           00006                           EXTEND
000424: 36,2443           01011                           WRITE    DSALMOUT
000425: 36,2444           00006                           EXTEND                                         #  SET TEVENT FOR DOWNLINK
000426: 36,2445           30025                           DCA      TIME2
000427: 36,2446           53342                           DXCH     TEVENT
000428:
000429: 36,2447           44726                           CS       PULSES                                #  MAKE SURE THAT DAP IS NOT IN MINIMUM
000430: 36,2450           70111                           MASK     DAPBOOLS                              #  IMPULSE MODE IN P12,P40,P42,AND P63
000431: 36,2451           54111                           TS       DAPBOOLS
000432:


000434: 36,2452           00006                           EXTEND                                         #  UPDATE TIG USING TGO FROM S40.13
000435: 36,2453           31517                           DCA      TGO
000436: 36,2454           53442                           DXCH     TIG
000437: 36,2455           00006                           EXTEND
000438: 36,2456           30025                           DCA      TIME2
000439: 36,2457           21442                           DAS      TIG
000440:
000441: 36,2460           44733                           CS       FLUNDBIT                              #  PERMIT GUIDANCE LOOP DISPLAYS
000442: 36,2461           70104                           MASK     FLAGWRD8
000443: 36,2462           54104                           TS       FLAGWRD8
000444:
000445: 36,2463           51455                           INDEX    WHICH
000446: 36,2464           00013                           TC       13
000447:
000448: 36,2465           00006        P63IGN             EXTEND                                         #  (13)  INITIATE BURN DISPLAYS
000449: 36,2466           33136                           DCA      LUNLANAD
000450: 36,2467           53252                           DXCH     AVGEXIT
000451:
000452: 36,2470           30005                           CA       Z                                     #  ASSASSINATE CLOKTASK
000453: 36,2471           55162                           TS       DISPDEX
000454:
000455: 36,2472           40105                           CS       FLAGWRD9                              #  SET FLAG FOR P70-P71
000456: 36,2473           74734                           MASK     LETABBIT
000457: 36,2474           26105                           ADS      FLAGWRD9
000458:
000459: 36,2475           00006                           EXTEND                                         #  INITIALIZE TIG FOR P70 AND P71.
000460: 36,2476           30025                           DCA      TIME2
000461: 36,2477           53442                           DXCH     TIG
000462:
000463: 36,2500           34746                           CAF      ZERO                                  #  INITIALIZE WCHPHASE AND FLPASSO
000464: 36,2501           55346                           TS       WCHPHASE
000465: 36,2502           55621                           TS       WCHPHOLD                              #  ALSO WHCPHOLD
000466: 36,2503           34743                           CA       TWO
000467: 36,2504           55623                           TS       FLPASS0
000468:
000469: 36,2505           12540                           TCF      P42IGN
000470: 36,2506           40101        P40IGN             CS       FLAGWRD5                              #  (13)
000471: 36,2507           74731                           MASK     NOTHRBIT
000472: 36,2510           00006                           EXTEND
000473: 36,2511           12540                           BZF      P42IGN
000474: 36,2512           31422                           CA       ZOOMTIME
000475: 36,2513           05205                           TC       WAITLIST
000476: 36,2514  E7,1515                                  EBANK=   DVCNTR
000477: 36,2514           03670 72067                     2CADR    ZOOM
000478: 36,2516           05331        P63IGN1            TC       2PHSCHNG
000479: 36,2517           40033                           OCT      40033                                 #  3.3SPOT FOR ZOOM RESTART.
000480: 36,2520           05014                           OCT      05014                                 #  TYPE C RESTARTS HERE IMMEDIATELY
000481: 36,2521           77777                           OCT      77777
000482:


000484:
000485: 36,2522           12540                           TCF      P42IGN
000486: 36,2523           35006        P12IGN             CAF      EBANK6
000487: 36,2524           54003                           TS       EBANK
000488: 36,2525  E6,1536                                  EBANK=   AOSQ
000489:
000490: 36,2525           31412                           CA       IGNAOSQ                               #  INITIALIZE DAP BIAS ACCELERATION
000491: 36,2526           55536                           TS       AOSQ                                  #       ESTIMATES AT P12 IGNITION.
000492: 36,2527           31413                           CA       IGNAOSR
000493: 36,2530           55540                           TS       AOSR
000494:
000495: 36,2531           35007                           CAF      EBANK7
000496: 36,2532           54003                           TS       EBANK
000497: 36,2533  E7,1515                                  EBANK=   DVCNTR
000498:
000499: 36,2533           30005        ABRTIGN            CA       Z                                     #  (13) KILL CLOKTASK
000500: 36,2534           55162                           TS       DISPDEX
000501:
000502: 36,2535           00006                           EXTEND                                         #  CONNECT ASCENT GYIDANCE TO SERVICER.
000503: 36,2536           33140                           DCA      ATMAGADR
000504: 36,2537           53252                           DXCH     AVGEXIT
000505:
000506: 36,2540           44735        P42IGN             CS       DRIFTBIT                              #  ENSURE THAT POWERED-FLIGHT SWITCHING
000507: 36,2541           70111                           MASK     DAPBOOLS                              #    CURVES ARE USED.
000508: 36,2542           54111                           TS       DAPBOOLS


000511: 36,2543           34734                           CAF      IMPULBIT                              #  EXAMINE IMPULSE SWITCH
000512: 36,2544           70076                           MASK     FLAGWRD2
000513: 36,2545           10000                           CCS      A
000514: 36,2546           13523                           TCF      IMPLBURN
000515:
000516: 36,2547           05520        DVMONCON           TC       DOWNFLAG
000517: 36,2550           00153                           ADRES    IGNFLAG                               #  CONNECT DVMON
000518: 36,2551           05520                           TC       DOWNFLAG
000519: 36,2552           00154                           ADRES    ASTNFLAG
000520: 36,2553           05520                           TC       DOWNFLAG
000521: 36,2554           00161                           ADRES    IDLEFLAG
000522:
000523: 36,2555           05355                           TC       PHASCHNG
000524: 36,2556           40054                           OCT      40054
000525:
000526: 36,2557           05223                           TC       FIXDELAY                              #  TURN ULLAGE OFF HALF A SECOND AFTER
000527: 36,2560           00062                           DEC      50         B-14                       #  LIGHT UP.
000528:
000529: 36,2561           02652        ULLAGOFF           TC       NOULLAGE
000530:
000531: 36,2562           00006        WAITABIT           EXTEND                                         #  KILL GROUP 4
000532: 36,2563           34746                           DCA      NEG0
000533: 36,2564           52760                           DXCH     -PHASE4
000534:
000535: 36,2565           15263                           TCF      TASKOVER
000536:


000538: 36,2566           04626        TIGTASK            TC       POSTJUMP                              #  (12)
000539: 36,2567           73657                           CADR     TIGTASK1
000540:
000541:                                                                                                  #        ****************************************
000542:
000543: 31,2144                                           BANK     31
000544: 35,2000                                           SETLOC   P40S3
000545: 35,2000                                           BANK
000546: 35,3657                                           COUNT*   $$/P40
000547:
000548: 35,3657           35017        TIGTASK1           CAF      PRIO16
000549: 35,3660           05063                           TC       NOVAC
000550: 35,3661  E7,1462                                  EBANK=   TRKMKCNT
000551: 35,3661           03240 74067                     2CADR    TIGNOW
000552:
000553: 35,3663           05520                           TC       DOWNFLAG
000554: 35,3664           00303                           ADRES    PULSEFLG
000555:
000556: 35,3665           05355                           TC       PHASCHNG
000557: 35,3666           00006                           OCT      6                                     #  KILL GROUP 6.
000558:
000559: 35,3667           15263                           TCF      TASKOVER
000560:
000561:
000562:                                                                                                  #        ****************************************
000563:
000564: 35,3670           05323        ZOOM               TC       CHECKMM                               #  P40 OR P63?
000565: 35,3671           00077                           DEC      63         B-14
000566: 35,3672           13700                           TCF      P40ZOOM
000567:
000568: 35,3673           05506        P63ZOOM            TC       UPFLAG                                #  INDICATE THAT THROTTLE-UP HAS COME
000569: 35,3674           00122                           ADRES    ZOOMFLAG
000570:
000571: 35,3675           04665                           TC       IBNKCALL
000572: 35,3676           62334                           CADR     FLATOUT
000573: 35,3677           13705                           TCF      P40ZOOMA
000574:
000575: 35,3700           34730        P40ZOOM            CAF      BIT13
000576: 35,3701           54055                           TS       THRUST
000577: 35,3702           34741                           CAF      BIT4
000578:
000579: 35,3703           00006                           EXTEND
000580: 35,3704           05014                           WOR      CHAN14
000581:
000582: 35,3705           05355        P40ZOOMA           TC       PHASCHNG
000583: 35,3706           00003                           OCT      3
000584: 35,3707           15263                           TCF      TASKOVER
000585:
000586:
000587: 36,2570                                           BANK     36
000588:


000590: 36,2000                                           SETLOC   P40S
000591: 36,2000                                           BANK
000592: 36,2570                                           COUNT*   $$/P40
000593:
000594:                                                                                                  #        ****************************************
000595:
000596: 36,2570           05506        COMFAIL            TC       UPFLAG                                #  (15)
000597: 36,2571           00161                           ADRES    IDLEFLAG
000598: 36,2572           05506                           TC       UPFLAG                                #  SET FLAG TO SUPPRESS CONFLICTING DISPLAY
000599: 36,2573           00175                           ADRES    FLUNDISP
000600: 36,2574           34742                           CAF      FOUR                                  #  RESET DVMON
000601: 36,2575           55515                           TS       DVCNTR
000602: 36,2576           10764                           CCS      PHASE6                                #  CLOCKTASK ACTIVE?
000603: 36,2577           12602                           TCF      +3                                    #  YES
000604: 36,2600           04607                           TC       BANKCALL                              #  OTHERWISE, START IT UP
000605: 36,2601           74662                           CADR     STCLOK1
000606: 36,2602           44756                 +3        CS       VB97DEX
000607: 36,2603           55162                           TS       DISPDEX
000608: 36,2604           05355                           TC       PHASCHNG                              #  TURN OFF GROUP 4.
000609: 36,2605           00004                           OCT      00004
000610: 36,2606           15146                           TCF      ENDOFJOB
000611:
000612: 36,2607           51455        COMFAIL1           INDEX    WHICH
000613: 36,2610           00002                           TC       2
000614:
000615: 36,2611           30005        COMFAIL3           CA       Z                                     #  (15)       KILL CLOKTASK USING Z
000616: 36,2612           12614                           TCF      +2
000617:
000618: 36,2613           44753        COMFAIL4           CS       CNTDNDEX
000619: 36,2614           55162                           TS       DISPDEX
000620:
000621: 36,2615           05520                           TC       DOWNFLAG                              #  RECONNECT DV MONITOR
000622: 36,2616           00161                           ADRES    IDLEFLAG
000623: 36,2617           05520                           TC       DOWNFLAG                              #  PERMIT GUIDANCE LOOP DISPLAYS
000624: 36,2620           00175                           ADRES    FLUNDISP
000625: 36,2621           15146                           TCF      ENDOFJOB
000626:
000627: 36,2622           05355        COMFAIL2           TC       PHASCHNG                              #  KILL ZOOM RESTART PROTECTION
000628: 36,2623           00003                           OCT      00003
000629:
000630: 36,2624           00004                           INHINT
000631: 36,2625           06050                           TC       KILLTASK                              #  KILL ZOOM, IN CASE IT'S STILL TO COME
000632: 36,2626           73670                           CADR     ZOOM
000633: 36,2627           04665                           TC       IBNKCALL                              #  COMMAND ENGINE OFF
000634: 36,2630           75562                           CADR     ENGINOF4
000635: 36,2631           05506                           TC       UPFLAG                                #  SET THE DRIFT BIT FOR THE DAP.
000636: 36,2632           00312                           ADRES    DRIFTDFL


000638: 36,2633           02644                           TC       INVFLAG                               #  USE OTHER RCS SYSTEM
000639: 36,2634           00310                           ADRES    AORBTFLG
000640:


000642: 36,2635           05506                           TC       UPFLAG                                #  TURN ON ULLAGE
000643: 36,2636           00314                           ADRES    ULLAGFLG
000644: 36,2637           34744                           CAF      BIT1
000645: 36,2640           00004                           INHINT
000646: 36,2641           05175                           TC       TWIDDLE
000647: 36,2642           02354                           ADRES    TIG-5
000648: 36,2643           15146                           TCF      ENDOFJOB
000649:
000650:
000651:                                                                                                  #        ****************************************
000652:                                                                                                  #        SUBROUTINES OF THE IGNITION ROUTINE
000653:                                                                                                  #        ****************************************
000654:
000655: 36,2644           30002        INVFLAG            CA       Q
000656: 36,2645           05524                           TC       DEBIT
000657: 36,2646           40000                           COM
000658: 36,2647           00006                           EXTEND
000659: 36,2650           06001                           RXOR     LCHAN
000660: 36,2651           15513                           TCF      COMFLAG
000661:
000662:
000663:                                                                                                  #        ****************************************
000664:
000665: 36,2652           44737        NOULLAGE           CS       ULLAGER                               #  MUST BE CALLED IN A TASK OR UNDER INHINT
000666: 36,2653           70111                           MASK     DAPBOOLS
000667: 36,2654           54111                           TS       DAPBOOLS
000668: 36,2655           00002                           TC       Q
000669:
000670:
000671:                                                                                                  #        ****************************************
000672:
000673: 36,2656           40111        ONULLAGE           CS       DAPBOOLS                              #  TURN ON ULLAGE.  MUST BE CALLED IN
000674: 36,2657           74737                           MASK     ULLAGER                               #  A TASK OR WHILE INHINTED.
000675: 36,2660           26111                           ADS      DAPBOOLS
000676: 36,2661           00002                           TC       Q
000677:
000678:
000679:                                                                                                  #        ****************************************
000680:
000681: 36,2662           34746        STCLOK1            CA       ZERO                                  #  THIS ROUTINE STARTS THE COUNT-DOWN
000682: 36,2663           55162        STCLOK2            TS       DISPDEX                               #  (CLOKTASK AND CLOKJOB).     SETTING
000683: 36,2664           04636        STCLOK3            TC       MAKECADR                              #  SETTING DISPDEX POSITIVE KILLS IT.
000684: 36,2665           55060                           TS       TBASE4                                #  RETURN SAVE (NOT FOR RESTARTS)
000685: 36,2666           00006                           EXTEND
000686: 36,2667           31442                           DCA      TIG
000687: 36,2670           52155                           DXCH     MPAC
000688: 36,2671           00006                           EXTEND
000689: 36,2672           40025                           DCS      TIME2
000690: 36,2673           20155                           DAS      MPAC                                  #  HAVE TIG - TIME2, UNDOUBTEDLY A + NUMBER
000691: 36,2674           07300                           TC       TPAGREE                               #  POSITIVE, SINCE WE PASSED THE
000692:


000694: 36,2675           34770                           CAF      1SEC                                  #    45 SECOND CHECK
000695: 36,2676           54002                           TS       Q
000696: 36,2677           52155                           DXCH     MPAC
000697: 36,2700           74337                           MASK     LOW5                                  #  RESTRICT MAGNITUDE OF NUMBER IN A
000698: 36,2701           00006                           EXTEND
000699: 36,2702           10002                           DV       Q
000700: 36,2703           30001                           CA       L                                     #  GET REMAINDER
000701: 36,2704           64743                           AD       TWO
000702: 36,2705           00004                           INHINT
000703: 36,2706           05175                           TC       TWIDDLE
000704: 36,2707           02716                           ADRES    CLOKTASK
000705: 36,2710           05331                           TC       2PHSCHNG
000706: 36,2711           40036                           OCT      40036                                 #  6.3SPOT FOR CLOKTASK
000707: 36,2712           05024                           OCT      05024
000708: 36,2713           13000                           OCT      13000
000709:
000710: 36,2714           31060                           CA       TBASE4
000711: 36,2715           04631                           TC       BANKJUMP
000712:
000713: 36,2716           40025        CLOKTASK           CS       TIME1                                 #  SET TBASE6 FOR GROUP 6 RESTART
000714: 36,2717           55064                           TS       TBASE6
000715:
000716: 36,2720           11162                           CCS      DISPDEX
000717: 36,2721           12732                           TCF      KILLCLOK
000718: 36,2722           12723                           NOOP
000719: 36,2723           37736                           CAF      PRIO27
000720: 36,2724           05063                           TC       NOVAC
000721: 36,2725  E7,1453                                  EBANK=   TTOGO
000722: 36,2725           02736 74067                     2CADR    CLOKJOB
000723:
000724:
000725: 36,2727           05223                           TC       FIXDELAY                              #  WAIT A SECOND BEFORE STARTING OVER
000726: 36,2730           00144                           DEC      100        B-14
000727: 36,2731           12716                           TCF      CLOKTASK
000728:
000729:
000730: 36,2732           00006        KILLCLOK           EXTEND                                         #  KILL RESTART
000731: 36,2733           34746                           DCA      NEG0
000732: 36,2734           52764                           DXCH     -PHASE6
000733: 36,2735           15263                           TCF      TASKOVER
000734:
000735:
000736: 36,2736           00006        CLOKJOB            EXTEND
000737: 36,2737           41442                           DCS      TIG
000738: 36,2740           53454                           DXCH     TTOGO
000739: 36,2741           00006                           EXTEND
000740: 36,2742           30025                           DCA      TIME2
000741: 36,2743           21454                           DAS      TTOGO
000742:


000744: 36,2744           00004                           INHINT
000745: 36,2745           11162                           CCS      DISPDEX                               #  IF DISPDEX HAS BEEN SET POSITIVE BY A
000746: 36,2746           15146                           TCF      ENDOFJOB                              #  TASK OR A HIGHER PRIORITY JOB SINCE THE
000747: 36,2747           15146                           TCF      ENDOFJOB                              #  LAST CLOKTASK, AVOID USING IT AS AN
000748: 36,2750           40000                           COM                                            #  INDEX.
000749: 36,2751           00003                           RELINT                                         #  ***** DISPDEX MUST NEVER BE -0 *****
000750: 36,2752           50000                           INDEX    A
000751: 36,2753           13010                           TCF      DISPNOT    -1                         #  (-1 DUE TO EFFECT OF CCS)
000752:
000753: 36,2754     4756               VB97DEX            =        OCT35                                 #  NEGATIVE OF THIS IS PROPER FOR DISPDEX
000754:
000755: 36,2754           44746                 -35       CS       ZERO                                  #  INDICATE VERB 97 PASTE
000756: 36,2755           55066                           TS       NVWORD1
000757: 36,2756           30370                           CA       NVWORD     +2                         #  NVWROD+2 CONTAINS V06 & APPROPRIATE NOUN
000758: 36,2757           04607                           TC       BANKCALL
000759: 36,2760           20466                           CADR     CLOCPLAY
000760: 36,2761           13012                           TCF      STOPCLOK                              #  TERMINATE CLOKTASK ON THE WAY TO P00H
000761: 36,2762           12607                           TCF      COMFAIL1
000762: 36,2763           12622                           TCF      COMFAIL2
000763:
000764:                                                                                                  #  THIS DISPLAY IS CALLED VIA ASTNCLOK
000765: 36,2764           33145                 -25       CAF      V06N61                                #  IT IS PRIMARILY USED BY THE CREW IN P63
000766: 36,2765           04607                           TC       BANKCALL                              #  TO RESET HIS EVENT TIMER TO AGREE WITH
000767: 36,2766           20452                           CADR     REFLASH                               #  TIG.
000768: 36,2767           13012                           TCF      STOPCLOK
000769: 36,2770           13027                           TCF      ASTNRETN
000770: 36,2771           12764                           TCF      -5
000771:
000772: 36,2772     4753               CNTDNDEX           =        LOW4                                  #  OCT17: NEGATIVE PROPER FOR DISPDEX
000773:
000774: 36,2772           51455                 -17       INDEX    WHICH                                 #  THIS DISPLAY COMES UP AT ONE SECOND
000775: 36,2773           30000                           CAF      0                                     #  INTERVALS. IT IS NORMALLY OPERATED
000776: 36,2774           04607                           TC       BANKCALL                              #  BETWEEN TIG-30 SECONDS AND TIG-5 SECONDS
000777: 36,2775           20460                           CADR     REGODSP                               #  REGODSP DOES ITS OWN TCF ENDOFJOB
000778:
000779: 36,2776     4751               VB99DEX            =        ELEVEN                                #  OCT13: NEGATIVE PROPER FOR DISPDEX
000780:
000781: 36,2776                        V99RECYC           EQUALS
000782:
000783: 36,2776           44734                 -13       CS       BIT9                                  #  INDICATE VERB 99 PASTE
000784: 36,2777           55066                           TS       NVWORD1
000785: 36,3000           51455                           INDEX    WHICH                                 #  THIS IS THE "PLEASE ENABLE ENGINE"
000786: 36,3001           30000                           CAF      0                                     #  DISPLAY; IT IS INITIATED AT TIG-5 SEC.
000787: 36,3002           04607                           TC       BANKCALL                              #  THE DISPLAY IS A V99NXX, WHERE XX IS THE
000788: 36,3003           20466                           CADR     CLOCPLAY                              #  NOUN THAT HAD PREVIOUSLY BEEN DISPLAYED
000789: 36,3004           13012                           TCF      STOPCLOK                              #  TERMINATE GOTOPOOH TURNS OFF ULLAGE.
000790: 36,3005           13040                           TCF      *PROCEED
000791: 36,3006           13043                           TCF      *ENTER
000792:
000793: 36,3007     4743               BLANKDEX           =        TWO                                   #  NEGATIVE OF THIS IS PROPER FOR DISPDEX
000794:


000796:
000797: 36,3007           04607                 -2        TC       BANKCALL                              #  BLANK DSKY.  THE DSKY IS BLANKED FOR
000798: 36,3010           20451                           CADR     CLEANDSP                              #  5 SECONDS AT TIG-35 TO INDICATE THAT
000799: 36,3011           15146        DISPNOT            TCF      ENDOFJOB                              #  AVERAGE G IS STARTING.
000800:
000801:
000802: 36,3012           03014        STOPCLOK           TC       NULLCLOK                              #  STOP CLOKTASK & TURN OFF ULLAGE ON THE
000803: 36,3013           16001                           TCF      GOTOPOOH                              #      WAY TO P00  (GOTOPOOH RELINTS)
000804:
000805: 36,3014           00004        NULLCLOK           INHINT
000806: 36,3015           00006                           EXTEND
000807: 36,3016           23141                           QXCH     P40/RET
000808: 36,3017           02652                           TC       NOULLAGE                              #  TURN OFF ULLAGE...
000809: 36,3020           06050                           TC       KILLTASK                              #       DON'T LET IT COME ON, EITHER...
000810: 36,3021           74350                           CADR     ULLGTASK
000811: 36,3022           05355                           TC       PHASCHNG                              #             NOT EVEN IF THERE'S A RESTART.
000812: 36,3023           00001                           OCT      1
000813: 36,3024           30005                           CA       Z                                     #  KILL CLOKTASK
000814: 36,3025           55162                           TS       DISPDEX
000815: 36,3026           01141                           TC       P40/RET
000816:
000817:
000818: 36,3027           05355        ASTNRETN           TC       PHASCHNG
000819: 36,3030           04024                           OCT      04024
000820: 36,3031           34746                           CAF      ZERO                                  #  STOP DISPLAYING BUT KEEP RUNNING.
000821: 36,3032           55162                           TS       DISPDEX
000822: 36,3033           35014                           CAF      PRIO13
000823: 36,3034           05076                           TC       FINDVAC
000824: 36,3035  E5,1757                                  EBANK=   STARIND
000825: 36,3035           03022 64065                     2CADR    ASTNRET
000826:
000827: 36,3037           15146                           TCF      ENDOFJOB
000828:
000829:
000830: 36,3040           05506        *PROCEED           TC       UPFLAG
000831: 36,3041           00154                           ADRES    ASTNFLAG
000832:
000833: 36,3042           13101                           TCF      IGNITE
000834:
000835:
000836: 36,3043           00004        *ENTER             INHINT
000837: 36,3044           51455                           INDEX    WHICH
000838: 36,3045           00003                           TC       3
000839:
000840: 36,3046           34635        GOPOST             CAF      PRIO12                                #  (3) MUST BE LOWER PRIORITY THAN CLOKJOB
000841: 36,3047           05076                           TC       FINDVAC
000842: 36,3050  E7,1453                                  EBANK=   TTOGO
000843: 36,3050           03222 74067                     2CADR    POSTBURN
000844: 36,3052           00004                           INHINT                                         #  SET UP THE DAP FOR COASTING FLIGHT.
000845: 36,3053           04665                           TC       IBNKCALL
000846:


000848: 36,3054           40205                           CADR     ALLCOAST
000849: 36,3055           03014                           TC       NULLCLOK
000850: 36,3056           05355                           TC       PHASCHNG                              #  4.13 RESTART FOR POSTBURN
000851: 36,3057           00134                           OCT      00134
000852:
000853: 36,3060           15146                           TCF      ENDOFJOB
000854:
000855:
000856: 36,3061           35020        GOCUTOFF           CAF      PRIO17                                #  (3)
000857: 36,3062           05076                           TC       FINDVAC
000858: 36,3063  E7,1516                                  EBANK=   TGO
000859: 36,3063           03526 70067                     2CADR    CUTOFF
000860:
000861: 36,3065           05520                           TC       DOWNFLAG
000862: 36,3066           00175                           ADRES    FLUNDISP
000863:
000864: 36,3067           00004                           INHINT                                         #  SET UP THE DAP FOR COASTING FLIGHT.
000865: 36,3070           04665                           TC       IBNKCALL
000866: 36,3071           40205                           CADR     ALLCOAST
000867: 36,3072           03014                           TC       NULLCLOK
000868: 36,3073           05355                           TC       PHASCHNG
000869: 36,3074           07024                           OCT      07024
000870: 36,3075           17000                           OCT      17000
000871: 36,3076  E7,1516                                  EBANK=   TGO
000872: 36,3076           03526 70067                     2CADR    CUTOFF
000873:
000874: 36,3100           15146                           TCF      ENDOFJOB
000875:
000876:
000877: 36,3101           40103        IGNITE             CS       FLAGWRD7                              #  (2)
000878: 36,3102           74730                           MASK     IGNFLBIT
000879: 36,3103           10000                           CCS      A
000880: 36,3104           13115                           TCF      IGNITE1
000881: 36,3105           34744                           CAF      BIT1
000882: 36,3106           00004                           INHINT
000883: 36,3107           05175                           TC       TWIDDLE
000884: 36,3110           02433                           ADRES    IGNITION
000885:
000886: 36,3111           34351                           CAF      OCT23                                 #  IMMEDIATE RESTART AT IGNITION.
000887: 36,3112           54001                           TS       L
000888: 36,3113           40000                           COM
000889: 36,3114           52760                           DXCH     -PHASE4
000890:
000891: 36,3115           44753        IGNITE1            CS       CNTDNDEX                              #  RESTORE OLD DISPLAY.
000892: 36,3116           55162                           TS       DISPDEX
000893:
000894: 36,3117           15146                           TCF      ENDOFJOB
000895:
000896:                                                                                                  #        ****************************************
000897:


000899:
000900: 36,3120           05571        P40ALM             TC       ALARM                                 #  PROGRAM SELECTION NOT CONSISTENT WITH
000901: 36,3121           01706                           OCT      1706                                  #  VEHICLE CONFIGURATION
000902:
000903: 36,3122           34777        REP40ALM           CAF      V05N09                                #  (14)
000904: 36,3123           04607                           TC       BANKCALL
000905: 36,3124           20471                           CADR     GOFLASH
000906:
000907: 36,3125           16001                           TCF      GOTOPOOH                              #  V34E  TERMINATE
000908: 36,3126           13130                           TCF      +2                                    #  PROCEED  CHECK FOR P42
000909: 36,3127           13122                           TCF      REP40ALM                              #  V32E  REDISPLAY ALARM
000910:
000911: 36,3130           51455                           INDEX    WHICH                                 #  FOR P42, ALLOW CREW TO PROCEED EVEN
000912: 36,3131           00014                           TC       14                                    #  THOUGH VEHICLE IS UNSTAGED.
000913:
000914:                                                                                                  #        ****************************************
000915:
000916:
000917: 31,2144                                           BANK     31
000918: 35,2000                                           SETLOC   P40S2
000919: 35,2000                                           BANK
000920:
000921: 35,3710                                           COUNT*   $$/P40
000922:
000923: 35,3710           04636        P40AUTO            TC       MAKECADR                              #  HELLO THERE.
000924: 35,3711           55163                           TS       TEMPR60                               #  FOR GENERALIZED RETURN TO OTHER BANKS.
000925: 35,3712           04607        P40A/P             TC       BANKCALL                              #  SUBROUTINE TO CHECK PGNCS CONTROL
000926: 35,3713           54267                           CADR     G+N,AUTO                              #  AND AUTO STABILIZATION MODES
000927: 35,3714           10000                           CCS      A                                     #  +0 INDICATES IN PGNCS, IN AUTO
000928: 35,3715           13733                           TCF      TURNITON                              #  + INDICATES NOT IN PGNCS AND/OR AUTO
000929: 35,3716           34730                           CAF      APSFLBIT                              #  ARE WE ON THE DESCENT STAGE?
000930: 35,3717           70106                           MASK     FLGWRD10
000931: 35,3720           10000                           CCS      A
000932: 35,3721           13740                           TCF      GOBACK                                #  RETURN
000933: 35,3722           34741                           CAF      BIT4
000934: 35,3723           70374                           MASK     CHANBKUP
000935: 35,3724           10000                           CCS      A
000936: 35,3725           13740                           TCF      GOBACK                                #  IGN6RE CHAN 30 BIT 5.  ASSUME AUTO THROT
000937:
000938: 35,3726           34740                           CAF      BIT5                                  #  YES, CHECK FOR AUTOTHROTTLE MODE
000939: 35,3727           00006                           EXTEND
000940: 35,3730           02030                           RAND     CHAN30
000941: 35,3731           00006                           EXTEND
000942: 35,3732           13740                           BZF      GOBACK                                #  IN AUTOTHROTTLE MODE -- RETURN
000943: 35,3733           33742        TURNITON           CAF      P40A/PMD                              #  DISPLAY V50N25 R1=203  PLEASE PERFORM
000944: 35,3734           04607                           TC       BANKCALL                              #  CHECKLIST 203 TURN ON PGNCS ETC.
000945: 35,3735           20635                           CADR     GOPERF1
000946: 35,3736           16001                           TCF      GOTOPOOH                              #  V34E TERMINATE
000947: 35,3737           13712                           TCF      P40A/P                                #  RECYCLE
000948: 35,3740           31163        GOBACK             CA       TEMPR60
000949: 35,3741           04631                           TC       BANKJUMP                              #  GOODBYE.  COME AGAIN SOON.
000950:


000952:
000953: 35,3742           00203        P40A/PMD           OCT      00203
000954:
000955: 36,3132                                           BANK     36
000956: 36,2000                                           SETLOC   P40S
000957: 36,2000                                           BANK
000958:
000959: 36,3132                                           COUNT*   $$/P40
000960:
000961:                                                                                                  #        ****************************************
000962:                                                                                                  #        CONSTANTS FOR THE IGNITION ROUTINE
000963:                                                                                                  #        ****************************************
000964:
000965: 36,3132  36,2107               SERVCADR           =        P63TABLE   +7
000966:
000967: 36,3132           02040        P40ADRES           ADRES    P40TABLE
000968:
000969: 36,3133           02050        P41ADRES           ADRES    P41TABLE   -5
000970:
000971: 36,3134           02063        P42ADRES           ADRES    P42TABLE
000972:
000973: 36,3135  E7,1515                                  EBANK=   DVCNTR
000974: 36,3135           02425 62067  LUNLANAD           2CADR    LUNLAND
000975:
000976:
000977:
000978: 36,3137  E7,1515                                  EBANK=   DVCNTR
000979: 36,3137           03375 70067  ATMAGADR           2CADR    ATMAG
000980:
000981: 36,3141     6001               ?                  =        GOTOPOOH
000982:
000983: 36,3141           00000 05656  D29.9SEC           2DEC     2990       B-28
000984:
000985: 36,3143           04672        S24.9SEC           DEC      2490       B-14
000986:
000987: 36,3144           00752        4.9SEC             DEC      490        B-14
000988:
000989: 36,3145     4740               OCT20              =        BIT5
000990:
000991: 36,3145           01475        V06N61             VN       0661
000992:


000994:                                                                                                  #           KILLTASK
000995:                                                                                                  #  MOD NO: NEW PROGRAM
000996:                                                                                                  #  MOD BY: COVELLI
000997:
000998:                                                                                                  #  FUNCTIONAL DESCRIPTION:
000999:
001000:                                                                                                  #     KILLTASK IS USED TO REMOVE A TASK FROM THE WAITLIST BY SUBSTITUTING ANULL TASK CALLED 'NULLTASK' (OF COURSE),
001001:                                                                                                  #  WHICH MERELY DOES A TC TASKOVER. IF THE SAME TASK IS SCHEDULED MORE THAN ONCE, ONLY THE ONE WHICH WILL OCCUR
001002:                                                                                                  #  FIRST IS REMOVED. IF THE TASK IS NOT SCHEDULED, KILLTASK TAKES NO ACTION AND RETURNS WITH NO ALARM. KILLTASK
001003:                                                                                                  #  LEAVES INTERRUPTS INHIBITED SO CALLER MUST RELINT
001004:
001005:                                                                                                  #  CALLING SEQUENCE:
001006:                                                                                                  #                                          L         TC     KILLTASK       IN FIXED-FIXED
001007:                                                                                                  #                                          L+1       CADR   ????????       CADR (NOT 2CADR) OF TASK TO BE REMOVED.
001008:                                                                                                  #                                          L+2       (RELINT)              RETURN
001009:
001010:                                                                                                  #  EXIT MODE:  AT L+2 OF CALLING SEQUENCE.
001011:
001012:                                                                                                  #  ERASABLE INITIALIZATION=  NONE.
001013:
001014:                                                                                                  #  OUTPUT:  2CADR OF NULLTASK IN LST2
001015:
001016:                                                                                                  #  DEBRIS:  ITEMP1 - ITEMP4, A,L,Q.
001017:
001018: 36,3146  E3,1410                                  EBANK=   LST2
001019:    6050                                           BLOCK    3                                     #  KILLTASK MUST BE IN FIXED-FIXED.
001020:    6000                                           SETLOC   FFTAG6
001021:    6000                                           BANK
001022:    6050                                           COUNT*   $$/KILL
001023:    6050           36057        KILLTASK           CA       KILLBB
001024:    6051           00004                           INHINT
001025:    6052           22000                           LXCH     A
001026:    6053           50002                           INDEX    Q
001027:    6054           30000                           CA       0                                     #  GET CADR.
001028:    6055           22006                           LXCH     BBANK
001029:    6056           12200                           TCF      KILLTSK2                              #  CONTINUE IN SWITCHED FIXED
001030:
001031:    6057  E3,1410                                  EBANK=   LST2
001032:    6057           56063        KILLBB             BBCON    KILLTSK2
001033:
001034: 27,2200                                           BANK     27
001035:
001036: 27,2000                                           SETLOC   P40S1
001037: 27,2000                                           BANK
001038: 27,2200                                           COUNT*   $$/KILL
001039:
001040: 27,2200           22062        KILLTSK2           LXCH     ITEMP2                                #  SAVE CALLER'S BBANK
001041:


001043: 27,2201           24002                           INCR     Q
001044: 27,2202           00006                           EXTEND
001045: 27,2203           22061                           QXCH     ITEMP1                                #  RETURN 2CADR IN ITEMP1,ITEMP2
001046:
001047: 27,2204           54063                           TS       ITEMP3                                #  CADR IS IN A
001048: 27,2205           75003                           MASK     LOW10
001049: 27,2206           64732                           AD       BIT11
001050: 27,2207           54064                           TS       ITEMP4                                #  GENADR OF TASK
001051:
001052: 27,2210           45003                           CS       LOW10
001053: 27,2211           70063                           MASK     ITEMP3
001054: 27,2212           54063                           TS       ITEMP3                                #  FBANK OF TASK
001055:
001056: 27,2213           22007                           ZL
001057: 27,2214           50001        ADRSCAN            INDEX    L
001058: 27,2215           41410                           CS       LST2
001059: 27,2216           60064                           AD       ITEMP4                                #  COMPARE GENADRS
001060: 27,2217           00006                           EXTEND
001061: 27,2220           12232                           BZF      TSTFBANK                              #  IF THEY MATCH, COMPARE FBANKS
001062: 27,2221           44740        LETITLIV           CS       LSTLIM
001063: 27,2222           60001                           AD       L
001064: 27,2223           00006                           EXTEND                                         #  ARE WE DONE?
001065: 27,2224           12230                           BZF      DEAD                                  #  YES - DONE, SO RETURN
001066: 27,2225           24001                           INCR     L
001067: 27,2226           24001                           INCR     L
001068: 27,2227           12214                           TCF      ADRSCAN                               #  CONTINUE LOOP.
001069:
001070: 27,2230           52062        DEAD               DXCH     ITEMP1
001071: 27,2231           52006                           DTCB
001072:
001073: 27,2232           45003        TSTFBANK           CS       LOW10
001074: 27,2233           50001                           INDEX    L
001075: 27,2234           71411                           MASK     LST2       +1                         #  COMPARE FBANKS ONLY.
001076: 27,2235           00006                           EXTEND
001077: 27,2236           60063                           SU       ITEMP3
001078: 27,2237           00006                           EXTEND
001079: 27,2240           12242                           BZF      KILLDEAD                              #  MATCH - KILL IT.
001080: 27,2241           12221                           TCF      LETITLIV                              #  NO MATCH - CONTINUE.
001081:
001082: 27,2242           34344        KILLDEAD           CA       TCTSKOVR
001083: 27,2243           50001                           INDEX    L
001084: 27,2244           55410                           TS       LST2                                  #  REMOVE TASK BY INSERTING TASKOVER
001085: 27,2245           12230                           TCF      DEAD
001086:
001087: 27,2246     4740               LSTLIM             EQUALS   BIT5                                  #  DEC 16

End of include-file BURN,_BABY,_BURN_--_MASTER_IGNITION_ROUTINE.agc.  Parent file is MAIN.agc


