
Source Code


000002:                                                                                                  ## Copyright:   Public domain.
000003:                                                                                                  ## Filename:    BURN,_BABY,_BURN_--_MASTER_IGNITION_ROUTINE.agc
000004:                                                                                                  ## Purpose:     A section of Luminary revision 210.
000005:                                                                                                  ##              It is part of the source code for the Lunar Module's (LM)
000006:                                                                                                  ##              Apollo Guidance Computer (AGC) for Apollo 15-17.
000007:                                                                                                  ##              This file is intended to be a faithful transcription, except
000008:                                                                                                  ##              that the code format has been changed to conform to the
000009:                                                                                                  ##              requirements of the yaYUL assembler rather than the
000010:                                                                                                  ##              original YUL assembler.
000011:                                                                                                  ## Reference:   pp. 726-746
000012:                                                                                                  ## Assembler:   yaYUL
000013:                                                                                                  ## Contact:     Ron Burkey <info@sandroid.org>.
000014:                                                                                                  ## Website:     www.ibiblio.org/apollo/index.html
000015:                                                                                                  ## Mod history: 2016-11-17 JL   Created from Luminary131 version.
000016:                                                                                                  ##              2016-01-12 HG   Transcribed
000017:                                                                                                  ##              2016-12-07 HG   fix P00 -> POO
000018:                                                                                                  ##                              Change POO -> P00 in some comments
000019:                                                                                                  ##              2016-12-12 HG   Fix constant value (P42TABLE)   2640 -> 2390
000020:                                                                                                  ##                                  operator TCF, BZF -> TC
000021:                                                                                                  ##              2016-12-25 RSB  Comment-text proofed using ProoferComments
000022:                                                                                                  ##                              and corrected errors found.
000023:


000025:
000026: 36,2024                                           BANK     36
000027: 36,2000                                           SETLOC   P40S
000028: 36,2000                                           BANK
000029: 36,2024  E7,1455                                  EBANK=   WHICH
000030: 36,2024                                           COUNT*   $$/P40
000031:                                                                                                  #      THE MASTER IGNITION ROUTINE IS DESIGNED FOR USE BY THE FOLLOWING LEM PROGRAMS:  P12, P40, P42, P61, P63.
000032:                                                                                                  #  IT PERFORMS ALL FUNCTIONS IMMEDIATELY ASSOCIATED WITH APS OR DPS IGNITION:  IN PARTICULAR, EVERYTHING LYING
000033:                                                                                                  #  BETWEEN THE PRE-IGNITION TIME CHECK -- ARE WE WITHIN 45 SECONDS OF TIG? -- AND TIG + 26 SECONDS, WHEN DPS
000034:                                                                                                  #  PROGRAMS THROTTLE UP.
000035:
000036:                                                                                                  #      VARIATIONS AMONG PROGRAMS ARE ACCOMODATED BY MEANS OF TABLES CONTAINING CONSTANTS (FOR AVEGEXIT, FOR
000037:                                                                                                  #  WAITLIST, FOR PINBALL) AND TCF INSTRUCTIONS.   USERS PLACE THE ADRES OF THE HEAD OF THE APPROPRIATE TABLE
000038:                                                                                                  #  (OF P61TABLE FOR P61LM, FOR EXAMPLE) IN ERASABLE REGISTER 'WHICH' (E4).   THE IGNITION ROUTINE THEN INDEXES BY
000039:                                                                                                  #  WHICH TO OBTAIN OR EXECUTE THE PROPER TABLE ENTRY.   THE IGNITION ROUTINE IS INITIATED BY A TCF BURNBABY,
000040:                                                                                                  #  THROUGH BANKJUMP IF NECESSARY.   THERE IS NO RETURN.
000041:
000042:                                                                                                  #      THE MASTER IGNITION ROUTINE WAS CONCEIVED AND EXECUTED, AND (NOTA BENE) IS MAINTAINED BY ADLER AND EYLES.
000043:
000044:
000045:                                                                                                  #                                         HONI SOIT QUI MAL Y PENSE
000046:
000047:
000048:                                                                                                  #                                  ****************************************
000049:                                                                                                  #                                  TABLES FOR THE IGNITION ROUTINE
000050:                                                                                                  #                                  ****************************************
000051:
000052:                                                                                                  #                                              NOLI SE TANGERE
000053:
000054: 36,2024           01512        P12TABLE           VN       0674                                  #  (0)
000055: 36,2025           12327                           TCF      ULLGNOT                               #  (1)
000056: 36,2026           12611                           TCF      COMFAIL3                              #  (2)
000057: 36,2027           13061                           TCF      GOCUTOFF                              #  (3)
000058: 36,2030           15263                           TCF      TASKOVER                              #  (4)
000059: 36,2031           12150                           TCF      P12SPOT                               #  (5)
000060: 36,2032           00000                           DEC      0          B-14                       #  (6)       NO ULLAGE
000061: 36,2033  E7,1455                                  EBANK=   WHICH
000062: 36,2033           03656 64067                     2CADR    SERVEXIT                              #  (7)
000063:
000064: 36,2035           12402                           TCF      DISPCHNG                              #  (11)
000065: 36,2036           12562                           TCF      WAITABIT                              #  (12)
000066: 36,2037           12523                           TCF      P12IGN                                #  (13)
000067:
000068:
000069:
000070: 36,2040           01450        P40TABLE           VN       0640                                  #  (0)
000071: 36,2041           12327                           TCF      ULLGNOT                               #  (1)
000072: 36,2042           12613                           TCF      COMFAIL4                              #  (2)
000073: 36,2043           13046                           TCF      GOPOST                                #  (3)
000074: 36,2044           15263                           TCF      TASKOVER                              #  (4)
000075: 36,2045           12150                           TCF      P40SPOT                               #  (5)
000076:


000078: 36,2046           04300                           DEC      2240       B-14                       #  (6)
000079: 36,2047  E6,1422                                  EBANK=   OMEGAQ
000080: 36,2047           03667 74066                     2CADR    STEERING                              #  (7)
000081: 36,2051           12372                           TCF      P40SJUNK                              #  (11)
000082: 36,2052           12562                           TCF      WAITABIT                              #  (12)
000083: 36,2053           12506                           TCF      P40IGN                                #  (13)
000084: 36,2054           13122                           TCF      REP40ALM                              #  (14)
000085:
000086:
000087:
000088: 36,2055           12153        P41TABLE           TCF      P41SPOT                               #  (5)
000089: 36,2056           77776                           DEC      -1         B-14                       #  (6)
000090: 36,2057  E6,1422                                  EBANK=   OMEGAQ
000091: 36,2057           02570 64066                     2CADR    CALCN85                               #  (7)
000092:
000093: 36,2061           12404                           TCF      COMMON                                #  (11)
000094: 36,2062           12566                           TCF      TIGTASK                               #  (12)
000095:
000096:
000097:
000098: 36,2063           01450        P42TABLE           VN       0640                                  #  (0)
000099: 36,2064           12324                           TCF      WANTAPS                               #  (1)
000100: 36,2065           12613                           TCF      COMFAIL4                              #  (2)
000101: 36,2066           13046                           TCF      GOPOST                                #  (3)
000102: 36,2067           15263                           TCF      TASKOVER                              #  (4)
000103: 36,2070           12150                           TCF      P42SPOT                               #  (5)
000104: 36,2071           04526                           DEC      2390       B-14                       #  (6) ULLAGE ON AT TIG-6 SECS.
000105: 36,2072  E6,1422                                  EBANK=   OMEGAQ
000106: 36,2072           03667 74066                     2CADR    STEERING                              #  (7)
000107: 36,2074           12372                           TCF      P40SJUNK                              #  (11)
000108: 36,2075           12562                           TCF      WAITABIT                              #  (12)
000109: 36,2076           12540                           TCF      P42IGN                                #  (13)
000110: 36,2077           13421                           TCF      P42STAGE                              #  (14)
000111:
000112:
000113:
000114: 36,2100           01476        P63TABLE           VN       0662                                  #  (0)
000115: 36,2101           12327                           TCF      ULLGNOT                               #  (1)
000116: 36,2102           12611                           TCF      COMFAIL3                              #  (2)
000117: 36,2103           12776                           TCF      V99RECYC                              #  (3)
000118: 36,2104           15263                           TCF      TASKOVER                              #  (4)
000119: 36,2105           12153                           TCF      P63SPOT                               #  (5)
000120: 36,2106           04300                           DEC      2240       B-14                       #  (6)
000121: 36,2107  E7,1455                                  EBANK=   WHICH
000122: 36,2107           03656 64067                     2CADR    SERVEXIT                              #  (7)
000123: 36,2111           12402                           TCF      DISPCHNG                              #  (11)
000124: 36,2112           12562                           TCF      WAITABIT                              #  (12)
000125:


000127: 36,2113           12465                           TCF      P63IGN                                #  (13)
000128:
000129:
000130:
000131: 36,2114           01477        ABRTABLE           VN       0663                                  #  (0)
000132: 36,2115           12327                           TCF      ULLGNOT                               #  (1)
000133: 36,2116           12611                           TCF      COMFAIL3                              #  (2)
000134: 36,2117           13061                           TCF      GOCUTOFF                              #  (3)
000135: 36,2120           15263                           TCF      TASKOVER                              #  (4)
000136: 36,2121           12122                           NOOP                                           #  (5)
000137: 36,2122           12123                           NOOP                                           #  (6)
000138: 36,2123           12124                           NOOP                                           #  (7)
000139: 36,2124           12125                           NOOP
000140: 36,2125           12402                           TCF      DISPCHNG                              #  (11)
000141: 36,2126           12562                           TCF      WAITABIT                              #  (12)
000142: 36,2127           12533                           TCF      ABRTIGN                               #  (13)
000143:
000144:
000145:
000146:                                                                                                  #                ****************************************
000147:                                                                                                  #                GENERAL PURPOSE IGNITION ROUTINES
000148:                                                                                                  #                ****************************************
000149:
000150: 36,2130           05355        BURNBABY           TC       PHASCHNG                              #  GROUP 4 RESTARTS HERE
000151: 36,2131           04024                           OCT      04024
000152:
000153: 36,2132           34746                           CAF      ZERO                                  #  EXTIRPATE JUNK LEFT IN DVTOTAL
000154: 36,2133           55507                           TS       DVTOTAL
000155: 36,2134           55510                           TS       DVTOTAL    +1
000156:
000157: 36,2135           04607                           TC       BANKCALL                              #  P40AUTO MUST BE BANKCALLED EVEN FROM ITS
000158: 36,2136           73710                           CADR     P40AUTO                               #    OWN BANK TO SET UP RETURN PROPERLY
000159:
000160: 36,2137           00006        B*RNB*B*           EXTEND
000161: 36,2140           31442                           DCA      TIG                                   #  STORE NOMINAL TIG FOR OBLATENESS COMP.
000162: 36,2141           53512                           DXCH     GOBLTIME                              #  AND FOR P70 OR P71.
000163:
000164: 36,2142           00004                           INHINT
000165: 36,2143           04665                           TC       IBNKCALL
000166: 36,2144           75565                           CADR     ENGINOF3
000167: 36,2145           00003                           RELINT
000168:
000169: 36,2146           51455                           INDEX    WHICH
000170: 36,2147           00005                           TC       5
000171:
000172: 36,2150  36,2150               P42SPOT            =        P40SPOT                               #  (5)
000173: 36,2150  36,2150               P12SPOT            =        P40SPOT                               #  (5)
000174: 36,2150  36,2153               P63SPOT            =        P41SPOT                               #  (5)      IN P63 CLOKTASK ALREADY GOING
000175: 36,2150           44753        P40SPOT            CS       CNTDNDEX                              #  (5)
000176: 36,2151           04607                           TC       BANKCALL                              #  MUST BE BANKCALLED FOR GENERALIZED
000177:


000179: 36,2152           74663                           CADR     STCLOK2                               #  RETURN
000180: 36,2153           06060        P41SPOT            TC       INTPRET                               #  (5)
000181: 36,2154           45345                           DLOAD    DSU
000182: 36,2155           03442                                    TIG
000183: 36,2156           35142                                    D29.9SEC
000184: 36,2157           34041                           STCALL   TDEC1
000185: 36,2160           61063                                    INITCDUW
000186: 36,2161           45014                           BOFF     CALL
000187: 36,2162           03347                                    MUNFLAG
000188: 36,2163           74202                                    GOMIDAV
000189: 36,2164           27101                                    CSMPREC
000190: 36,2165           64375                           VLOAD    MXV
000191: 36,2166           00025                                    VATT1
000192: 36,2167           01732                                    REFSMMAT
000193: 36,2170           77762                           VSR1
000194: 36,2171           25724                           STOVL    V(CSM)                                #  CSM VELOCITY - M/CS*2(7)
000195: 36,2172           00017                                    RATT1
000196: 36,2173           64312                           VSL4     MXV
000197: 36,2174           01732                                    REFSMMAT
000198: 36,2175           35716                           STCALL   R(CSM)                                #  CSM POSITION - M*2(24)
000199: 36,2176           67037                                    MUNGRAV
000200: 36,2177           16310                           STODL    G(CSM)                                #  CSM GRAVITY VEC. - M/CS*2(7)
000201: 36,2200           00015                                    TAT
000202: 36,2201           00041                           STORE    TDEC1                                 #  RELOAD TDEC1 FOR MIDTOAV.
000203: 36,2202           77624        GOMIDAV            CALRB
000204: 36,2203           27606                                    MIDTOAV1
000205: 36,2204           12213                           TCF      CALLT-35                              #  MADE IT IN TIME.
000206:
000207: 36,2205           00006                           EXTEND                                         #  TIG WAS SLIPPED, SO RESET TIG TO 29.9
000208: 36,2206           31561                           DCA      PIPTIME1                              #  SECONDS AFTER THE TIME TO WHICH WE DID
000209: 36,2207           53442                           DXCH     TIG                                   #  INTEGRATE.
000210: 36,2210           00006                           EXTEND
000211: 36,2211           33142                           DCA      D29.9SEC
000212: 36,2212           21442                           DAS      TIG
000213:
000214: 36,2213           52155        CALLT-35           DXCH     MPAC
000215: 36,2214           53500                           DXCH     SAVET-30                              #  DELTA-T UNTIL TIG-30
000216: 36,2215           00006                           EXTEND
000217: 36,2216           43751                           DCS      5SECDP
000218: 36,2217           21500                           DAS      SAVET-30                              #  DELTA-T UNTIL TIG-35
000219: 36,2220           00006                           EXTEND
000220: 36,2221           31500                           DCA      SAVET-30
000221: 36,2222           05301                           TC       LONGCALL
000222: 36,2223  E7,1453                                  EBANK=   TTOGO
000223: 36,2223           02242 74067                     2CADR    TIG-35
000224: 36,2225           05355                           TC       PHASCHNG
000225: 36,2226           20254                           OCT      20254                                 #  4.25SPOT FOR TIG-35 RESTART.
000226: 36,2227           05323                           TC       CHECKMM
000227:


000229: 36,2230           00077                           DEC      63         B-14
000230: 36,2231           15146                           TCF      ENDOFJOB                              #  NOT P63
000231: 36,2232           44753                           CS       CNTDNDEX                              #  P63 CAN START DISPLAYING NOW.
000232: 36,2233           55162                           TS       DISPDEX
000233: 36,2234           06060                           TC       INTPRET
000234: 36,2235           51575                           VLOAD    ABVAL
000235: 36,2236           03553                                    VN1
000236: 36,2237           03472                           STORE    ABVEL                                 #  INITIALIZE ABVEL FOR P63 DISPLAY
000237: 36,2240           77776                           EXIT
000238: 36,2241           15146                           TCF      ENDOFJOB
000239:
000240:                                                                                                  #        ****************************************
000241:
000242: 36,2242           33751        TIG-35             CAF      5SEC
000243: 36,2243           05175                           TC       TWIDDLE
000244: 36,2244           02300                           ADRES    TIG-30
000245:
000246: 36,2245           05355                           TC       PHASCHNG
000247: 36,2246           40154                           OCT      40154                                 #  4.15SPOT FOR TIG-30 RESTART
000248:
000249: 36,2247           44743                           CS       BLANKDEX                              #  BLANK DSKY FOR 5 SECONDS
000250: 36,2250           55162                           TS       DISPDEX
000251:
000252: 36,2251           51455                           INDEX    WHICH
000253: 36,2252           40006                           CS       6                                     #  CHECK ULLAGE TIME.
000254: 36,2253           00006                           EXTEND
000255: 36,2254           65263                           BZMF     TASKOVER
000256: 36,2255           33144                           CAF      4.9SEC                                #  SET UP TASK TO RESTORE DISPLAY AT TIG-30
000257: 36,2256           05175                           TC       TWIDDLE
000258: 36,2257           02270                           ADRES    TIG-30.1
000259:
000260: 36,2260           35020                           CAF      PRIO17                                #  A NEGATIVE ULLAGE TIME INDICATES P41, IN
000261: 36,2261           05063                           TC       NOVAC                                 #  WHICH CASE WE HAVE TO SET UP A JOB TO
000262: 36,2262  E7,1453                                  EBANK=   TTOGO                                 #  BLANK THE DSKY FOR FIVE SECONDS, SINCE
000263: 36,2262           02265 74067                     2CADR    P41BLANK                              #  CLOKJOB IS NOT RUNNING DURING P41.
000264:
000265: 36,2264           15263                           TCF      TASKOVER
000266:
000267: 36,2265           04607        P41BLANK           TC       BANKCALL                              #  BLANK DSKY.
000268: 36,2266           20451                           CADR     CLEANDSP
000269: 36,2267           15146                           TCF      ENDOFJOB
000270:
000271: 36,2270           35020        TIG-30.1           CAF      PRIO17                                #  SET UP JOB TO RESTORE DISPLAY AT TIG-30
000272: 36,2271           05063                           TC       NOVAC
000273: 36,2272  E7,1453                                  EBANK=   TTOGO
000274: 36,2272           02275 74067                     2CADR    TIG-30A
000275:
000276: 36,2274           15263                           TCF      TASKOVER
000277:


000279: 36,2275           33753        TIG-30A            CAF      V16N85B
000280: 36,2276           04607                           TC       BANKCALL                              #  RESTORE DISPLAY.
000281: 36,2277           20460                           CADR     REGODSP                               #  REGODSP DOES A TCF ENDOFJOB
000282:
000283:                                                                                                  #        *****************************************
000284:
000285: 36,2300           33143        TIG-30             CAF      S24.9SEC
000286: 36,2301           05175                           TC       TWIDDLE
000287: 36,2302           02354                           ADRES    TIG-5
000288:
000289: 36,2303           44753                           CS       CNTDNDEX                              #  START UP CLOKTASK AGAIN
000290: 36,2304           55162                           TS       DISPDEX
000291:
000292: 36,2305           51455                           INDEX    WHICH                                 #  PICK UP APPROPRIATE ULLAGE-ON TIME
000293: 36,2306           30006                           CAF      6
000294: 36,2307           00006                           EXTEND
000295: 36,2310           62327                           BZMF     ULLGNOT                               #  DON'T SET UP ULLAGE IF DT IS NEG OR ZERO
000296: 36,2311           55477                           TS       SAVET-30                              #  SAVE DELTA-T FOR RESTART
000297: 36,2312           05175                           TC       TWIDDLE
000298: 36,2313           02350                           ADRES    ULLGTASK
000299:
000300: 36,2314           36266                           CA       THREE                                 #  RESTART PROTECT ULLGTASK (1.3SPOT)
000301: 36,2315           54001                           TS       L
000302: 36,2316           46266                           CS       THREE
000303: 36,2317           52752                           DXCH     -PHASE1
000304: 36,2320           40025                           CS       TIME1
000305: 36,2321           55052                           TS       TBASE1
000306:
000307: 36,2322           51455                           INDEX    WHICH
000308: 36,2323           00001                           TC       1
000309:
000310: 36,2324           40106        WANTAPS            CS       FLGWRD10                              #  (1) FOR P42 ENSURE APSFLAG IS SET. IF IT
000311: 36,2325           74730                           MASK     APSFLBIT                              #  WASN'T SET, DAP WILL BE INITIALIZED TO
000312: 36,2326           26106                           ADS      FLGWRD10                              #  ASCENT VALUES BY 1/ACCS IN 2 SECONDS.
000313:
000314: 36,2327           00006        ULLGNOT            EXTEND                                         #  (1)
000315: 36,2330           51455                           INDEX    WHICH
000316: 36,2331           30010                           DCA      7                                     #  LOAD AVEGEXIT WITH APPROPRIATE 2CADR
000317: 36,2332           53252                           DXCH     AVEGEXIT
000318:
000319: 36,2333           34743                           CAF      TWO                                   #  4.2SPOT RESTARTS IMMEDIATELY AT REDO4.2
000320: 36,2334           54001                           TS       L
000321: 36,2335           44743                           CS       TWO                                   #  AND ALSO AT TIG-5 AT THE CORRECT TIME.
000322: 36,2336           52760                           DXCH     -PHASE4
000323:
000324: 36,2337           40025                           CS       TIME1
000325: 36,2340           55060                           TS       TBASE4                                #  SET TBASE4 FOR TIG-5 RESTART
000326:
000327: 36,2341           00006        REDO2.17           EXTEND
000328:


000330: 36,2342           34746                           DCA      NEG0                                  #  CLEAR OUT GROUP 2 SO LAMBERT CAN START
000331: 36,2343           52754                           DXCH     -PHASE2                               #        IF NEEDED.
000332:
000333: 36,2344           10762        REDO4.2            CCS      PHASE5                                #  IS SERVICER GOING?
000334: 36,2345           15263                           TCF      TASKOVER                              #  YES, DON'T START IT UP AGAIN.
000335:
000336: 36,2346           04626                           TC       POSTJUMP
000337: 36,2347           77401                           CADR     PREREAD                               #  PREREAD ENDS THIS TASK
000338:
000339:
000340:                                                                                                  #        ****************************************
000341:
000342: 36,2350           02656        ULLGTASK           TC       ONULLAGE                              #  THIS COMES AT TIG-7.5 OR TIG-3.5
000343: 36,2351           05355                           TC       PHASCHNG
000344: 36,2352           00001                           OCT      1
000345: 36,2353           15263                           TCF      TASKOVER
000346:
000347:
000348:                                                                                                  #        ****************************************
000349:
000350: 36,2354           00006        TIG-5              EXTEND
000351: 36,2355           34746                           DCA      NEG0                                  #  INSURE THAT GROUP 3 IS INACTIVE.
000352: 36,2356           52756                           DXCH     -PHASE3
000353:
000354: 36,2357           33751                           CAF      5SEC
000355: 36,2360           05175                           TC       TWIDDLE
000356: 36,2361           02407                           ADRES    TIG-0
000357:
000358: 36,2362           05520                           TC       DOWNFLAG                              #  RESET IGNFLAG AND ASINFLAG
000359: 36,2363           00153                           ADRES    IGNFLAG                               #    FOR LIGHT-UP LOGIC
000360: 36,2364           05520                           TC       DOWNFLAG
000361: 36,2365           00154                           ADRES    ASTNFLAG
000362: 36,2366           05520                           TC       DOWNFLAG
000363: 36,2367           00122                           ADRES    ZOOMFLAG
000364:
000365: 36,2370           51455                           INDEX    WHICH
000366: 36,2371           00011                           TC       11
000367:
000368: 36,2372           10756        P40SJUNK           CCS      PHASE3                                #  (11) P40 AND P42.  S40.13 IN PROGRESS?
000369: 36,2373           12402                           TCF      DISPCHNG                              #  YES
000370:
000371: 36,2374           34727                           CAF      PRIO20
000372: 36,2375           05076                           TC       FINDVAC
000373: 36,2376  E7,1453                                  EBANK=   TTOGO
000374: 36,2376           02536 56067                     2CADR    S40.13
000375:
000376: 36,2400           05355                           TC       PHASCHNG                              #  3.5SPOT FOR S40.13
000377: 36,2401           00053                           OCT      00053
000378:


000380: 36,2402           44751        DISPCHNG           CS       VB99DEX                               #  (11)
000381: 36,2403           55162                           TS       DISPDEX
000382: 36,2404           05355        COMMON             TC       PHASCHNG                              #  RESTART TIG-0 (4.7SPOT)
000383: 36,2405           40074                           OCT      40074
000384: 36,2406           15263                           TCF      TASKOVER
000385:
000386:
000387:                                                                                                  #        ****************************************
000388:
000389: 36,2407           40103        TIG-0              CS       FLAGWRD7                              #  SET IGNFLAG SINCE TIG HAS ARRIVED
000390: 36,2410           74730                           MASK     IGNFLBIT
000391: 36,2411           26103                           ADS      FLAGWRD7
000392:
000393: 36,2412           05323                           TC       CHECKMM                               #  IN P63 CASE, THROTTLE-UP IS ZOOMTIME
000394: 36,2413           00077                           DEC      63         B-14                       #    AFTER NOMINAL IGNITION, NOT ACTUAL
000395: 36,2414           12425                           TCF      IGNYET?
000396: 36,2415           31422                           CA       ZOOMTIME
000397: 36,2416           05205                           TC       WAITLIST
000398: 36,2417  E7,1515                                  EBANK=   DVCNTR
000399: 36,2417           03670 72067                     2CADR    ZOOM
000400: 36,2421           05331                           TC       2PHSCHNG
000401: 36,2422           40033                           OCT      40033
000402:
000403: 36,2423           05014                           OCT      05014
000404: 36,2424           77777                           OCT      77777
000405:
000406: 36,2425           34731        IGNYET?            CAF      ASTNBIT                               #  CHECK ASTNFLAG:  HAS ASTRONAUT RESPONDED
000407: 36,2426           70103                           MASK     FLAGWRD7                              #    TO OUR ENGINE ENABLE REQUEST?
000408: 36,2427           10000                           CCS      A
000409: 36,2430           12433                           TCF      IGNITION
000410: 36,2431           51455                           INDEX    WHICH
000411: 36,2432           00012                           TC       12
000412:
000413: 36,2433           40101        IGNITION           CS       FLAGWRD5                              #  INSURE ENGONFLG IS SET.
000414: 36,2434           74736                           MASK     ENGONBIT
000415: 36,2435           26101                           ADS      FLAGWRD5
000416: 36,2436           44346                           CS       PRIO30                                #  TURN ON THE ENGINE.
000417: 36,2437           00006                           EXTEND
000418: 36,2440           02011                           RAND     DSALMOUT
000419: 36,2441           64730                           AD       BIT13
000420: 36,2442           00006                           EXTEND
000421: 36,2443           01011                           WRITE    DSALMOUT
000422: 36,2444           00006                           EXTEND                                         #  SET TEVENT FOR DOWNLINK
000423: 36,2445           30025                           DCA      TIME2
000424: 36,2446           53342                           DXCH     TEVENT
000425:
000426: 36,2447           44726                           CS       PULSES                                #  MAKE SURE THAT DAP IS NOT IN MINIMUM
000427: 36,2450           70111                           MASK     DAPBOOLS                              #  IMPULSE MODE IN P12,P40,P42,AND P63
000428: 36,2451           54111                           TS       DAPBOOLS
000429:


000431: 36,2452           00006                           EXTEND                                         #  UPDATE TIG USING TGO FROM S40.13
000432: 36,2453           31517                           DCA      TGO
000433: 36,2454           53442                           DXCH     TIG
000434: 36,2455           00006                           EXTEND
000435: 36,2456           30025                           DCA      TIME2
000436: 36,2457           21442                           DAS      TIG
000437:
000438: 36,2460           44733                           CS       FLUNDBIT                              #  PERMIT GUIDANCE LOOP DISPLAYS
000439: 36,2461           70104                           MASK     FLAGWRD8
000440: 36,2462           54104                           TS       FLAGWRD8
000441:
000442: 36,2463           51455                           INDEX    WHICH
000443: 36,2464           00013                           TC       13
000444:
000445: 36,2465           00006        P63IGN             EXTEND                                         #  (13)  INITIATE BURN DISPLAYS
000446: 36,2466           33136                           DCA      LUNLANAD
000447: 36,2467           53252                           DXCH     AVGEXIT
000448:
000449: 36,2470           30005                           CA       Z                                     #  ASSASSINATE CLOKTASK
000450: 36,2471           55162                           TS       DISPDEX
000451:
000452: 36,2472           40105                           CS       FLAGWRD9                              #  SET FLAG FOR P70-P71
000453: 36,2473           74734                           MASK     LETABBIT
000454: 36,2474           26105                           ADS      FLAGWRD9
000455:
000456: 36,2475           00006                           EXTEND                                         #  INITIALIZE TIG FOR P70 AND P71.
000457: 36,2476           30025                           DCA      TIME2
000458: 36,2477           53442                           DXCH     TIG
000459:
000460: 36,2500           34746                           CAF      ZERO                                  #  INITIALIZE WCHPHASE AND FLPASS0
000461: 36,2501           55346                           TS       WCHPHASE
000462: 36,2502           55621                           TS       WCHPHOLD                              #  ALSO WHCPHOLD
000463: 36,2503           34743                           CA       TWO
000464: 36,2504           55623                           TS       FLPASS0
000465:
000466: 36,2505           12540                           TCF      P42IGN
000467: 36,2506           40101        P40IGN             CS       FLAGWRD5                              #  (13)
000468: 36,2507           74731                           MASK     NOTHRBIT
000469: 36,2510           00006                           EXTEND
000470: 36,2511           12540                           BZF      P42IGN
000471: 36,2512           31422                           CA       ZOOMTIME
000472: 36,2513           05205                           TC       WAITLIST
000473: 36,2514  E7,1515                                  EBANK=   DVCNTR
000474: 36,2514           03670 72067                     2CADR    ZOOM
000475: 36,2516           05331        P63IGN1            TC       2PHSCHNG
000476: 36,2517           40033                           OCT      40033                                 #  3.3SPOT FOR ZOOM RESTART.
000477: 36,2520           05014                           OCT      05014                                 #  TYPE C RESTARTS HERE IMMEDIATELY
000478: 36,2521           77777                           OCT      77777
000479:


000481:
000482: 36,2522           12540                           TCF      P42IGN
000483: 36,2523           35006        P12IGN             CAF      EBANK6
000484: 36,2524           54003                           TS       EBANK
000485: 36,2525  E6,1536                                  EBANK=   AOSQ
000486:
000487: 36,2525           31412                           CA       IGNAOSQ                               #  INITIALIZE DAP BIAS ACCELERATION
000488: 36,2526           55536                           TS       AOSQ                                  #       ESTIMATES AT P12 IGNITION.
000489: 36,2527           31413                           CA       IGNAOSR
000490: 36,2530           55540                           TS       AOSR
000491:
000492: 36,2531           35007                           CAF      EBANK7
000493: 36,2532           54003                           TS       EBANK
000494: 36,2533  E7,1515                                  EBANK=   DVCNTR
000495:
000496: 36,2533           30005        ABRTIGN            CA       Z                                     #  (13) KILL CLOKTASK
000497: 36,2534           55162                           TS       DISPDEX
000498:
000499: 36,2535           00006                           EXTEND                                         #  CONNECT ASCENT GYIDANCE TO SERVICER.
000500: 36,2536           33140                           DCA      ATMAGADR
000501: 36,2537           53252                           DXCH     AVGEXIT
000502:
000503: 36,2540           44735        P42IGN             CS       DRIFTBIT                              #  ENSURE THAT POWERED-FLIGHT SWITCHING
000504: 36,2541           70111                           MASK     DAPBOOLS                              #    CURVES ARE USED.
000505: 36,2542           54111                           TS       DAPBOOLS


000508: 36,2543           34734                           CAF      IMPULBIT                              #  EXAMINE IMPULSE SWITCH
000509: 36,2544           70076                           MASK     FLAGWRD2
000510: 36,2545           10000                           CCS      A
000511: 36,2546           13523                           TCF      IMPLBURN
000512:
000513: 36,2547           05520        DVMONCON           TC       DOWNFLAG
000514: 36,2550           00153                           ADRES    IGNFLAG                               #  CONNECT DVMON
000515: 36,2551           05520                           TC       DOWNFLAG
000516: 36,2552           00154                           ADRES    ASTNFLAG
000517: 36,2553           05520                           TC       DOWNFLAG
000518: 36,2554           00161                           ADRES    IDLEFLAG
000519:
000520: 36,2555           05355                           TC       PHASCHNG
000521: 36,2556           40054                           OCT      40054
000522:
000523: 36,2557           05223                           TC       FIXDELAY                              #  TURN ULLAGE OFF HALF A SECOND AFTER
000524: 36,2560           00062                           DEC      50         B-14                       #  LIGHT UP.
000525:
000526: 36,2561           02652        ULLAGOFF           TC       NOULLAGE
000527:
000528: 36,2562           00006        WAITABIT           EXTEND                                         #  KILL GROUP 4
000529: 36,2563           34746                           DCA      NEG0
000530: 36,2564           52760                           DXCH     -PHASE4
000531:
000532: 36,2565           15263                           TCF      TASKOVER
000533:


000535: 36,2566           04626        TIGTASK            TC       POSTJUMP                              #  (12)
000536: 36,2567           73657                           CADR     TIGTASK1
000537:
000538:                                                                                                  #        ****************************************
000539:
000540: 31,2144                                           BANK     31
000541: 35,2000                                           SETLOC   P40S3
000542: 35,2000                                           BANK
000543: 35,3657                                           COUNT*   $$/P40
000544:
000545: 35,3657           35017        TIGTASK1           CAF      PRIO16
000546: 35,3660           05063                           TC       NOVAC
000547: 35,3661  E7,1462                                  EBANK=   TRKMKCNT
000548: 35,3661           03240 74067                     2CADR    TIGNOW
000549:
000550: 35,3663           05520                           TC       DOWNFLAG
000551: 35,3664           00303                           ADRES    PULSEFLG
000552:
000553: 35,3665           05355                           TC       PHASCHNG
000554: 35,3666           00006                           OCT      6                                     #  KILL GROUP 6.
000555:
000556: 35,3667           15263                           TCF      TASKOVER
000557:
000558:
000559:                                                                                                  #        ****************************************
000560:
000561: 35,3670           05323        ZOOM               TC       CHECKMM                               #  P40 OR P63?
000562: 35,3671           00077                           DEC      63         B-14
000563: 35,3672           13700                           TCF      P40ZOOM
000564:
000565: 35,3673           05506        P63ZOOM            TC       UPFLAG                                #  INDICATE THAT THROTTLE-UP HAS COME
000566: 35,3674           00122                           ADRES    ZOOMFLAG
000567:
000568: 35,3675           04665                           TC       IBNKCALL
000569: 35,3676           62334                           CADR     FLATOUT
000570: 35,3677           13705                           TCF      P40ZOOMA
000571:
000572: 35,3700           34730        P40ZOOM            CAF      BIT13
000573: 35,3701           54055                           TS       THRUST
000574: 35,3702           34741                           CAF      BIT4
000575:
000576: 35,3703           00006                           EXTEND
000577: 35,3704           05014                           WOR      CHAN14
000578:
000579: 35,3705           05355        P40ZOOMA           TC       PHASCHNG
000580: 35,3706           00003                           OCT      3
000581: 35,3707           15263                           TCF      TASKOVER
000582:
000583:
000584: 36,2570                                           BANK     36
000585:


000587: 36,2000                                           SETLOC   P40S
000588: 36,2000                                           BANK
000589: 36,2570                                           COUNT*   $$/P40
000590:
000591:                                                                                                  #        ****************************************
000592:
000593: 36,2570           05506        COMFAIL            TC       UPFLAG                                #  (15)
000594: 36,2571           00161                           ADRES    IDLEFLAG
000595: 36,2572           05506                           TC       UPFLAG                                #  SET FLAG TO SUPPRESS CONFLICTING DISPLAY
000596: 36,2573           00175                           ADRES    FLUNDISP
000597: 36,2574           34742                           CAF      FOUR                                  #  RESET DVMON
000598: 36,2575           55515                           TS       DVCNTR
000599: 36,2576           10764                           CCS      PHASE6                                #  CLOCKTASK ACTIVE?
000600: 36,2577           12602                           TCF      +3                                    #  YES
000601: 36,2600           04607                           TC       BANKCALL                              #  OTHERWISE, START IT UP
000602: 36,2601           74662                           CADR     STCLOK1
000603: 36,2602           44756                 +3        CS       VB97DEX
000604: 36,2603           55162                           TS       DISPDEX
000605: 36,2604           05355                           TC       PHASCHNG                              #  TURN OFF GROUP 4.
000606: 36,2605           00004                           OCT      00004
000607: 36,2606           15146                           TCF      ENDOFJOB
000608:
000609: 36,2607           51455        COMFAIL1           INDEX    WHICH
000610: 36,2610           00002                           TC       2
000611:
000612: 36,2611           30005        COMFAIL3           CA       Z                                     #  (15)       KILL CLOKTASK USING Z
000613: 36,2612           12614                           TCF      +2
000614:
000615: 36,2613           44753        COMFAIL4           CS       CNTDNDEX
000616: 36,2614           55162                           TS       DISPDEX
000617:
000618: 36,2615           05520                           TC       DOWNFLAG                              #  RECONNECT DV MONITOR
000619: 36,2616           00161                           ADRES    IDLEFLAG
000620: 36,2617           05520                           TC       DOWNFLAG                              #  PERMIT GUIDANCE LOOP DISPLAYS
000621: 36,2620           00175                           ADRES    FLUNDISP
000622: 36,2621           15146                           TCF      ENDOFJOB
000623:
000624: 36,2622           05355        COMFAIL2           TC       PHASCHNG                              #  KILL ZOOM RESTART PROTECTION
000625: 36,2623           00003                           OCT      00003
000626:
000627: 36,2624           00004                           INHINT
000628: 36,2625           06050                           TC       KILLTASK                              #  KILL ZOOM, IN CASE IT'S STILL TO COME
000629: 36,2626           73670                           CADR     ZOOM
000630: 36,2627           04665                           TC       IBNKCALL                              #  COMMAND ENGINE OFF
000631: 36,2630           75562                           CADR     ENGINOF4
000632: 36,2631           05506                           TC       UPFLAG                                #  SET THE DRIFT BIT FOR THE DAP.
000633: 36,2632           00312                           ADRES    DRIFTDFL


000635: 36,2633           02644                           TC       INVFLAG                               #  USE OTHER RCS SYSTEM
000636: 36,2634           00310                           ADRES    AORBTFLG
000637:


000639: 36,2635           05506                           TC       UPFLAG                                #  TURN ON ULLAGE
000640: 36,2636           00314                           ADRES    ULLAGFLG
000641: 36,2637           34744                           CAF      BIT1
000642: 36,2640           00004                           INHINT
000643: 36,2641           05175                           TC       TWIDDLE
000644: 36,2642           02354                           ADRES    TIG-5
000645: 36,2643           15146                           TCF      ENDOFJOB
000646:
000647:
000648:                                                                                                  #        ****************************************
000649:                                                                                                  #        SUBROUTINES OF THE IGNITION ROUTINE
000650:                                                                                                  #        ****************************************
000651:
000652: 36,2644           30002        INVFLAG            CA       Q
000653: 36,2645           05524                           TC       DEBIT
000654: 36,2646           40000                           COM
000655: 36,2647           00006                           EXTEND
000656: 36,2650           06001                           RXOR     LCHAN
000657: 36,2651           15513                           TCF      COMFLAG
000658:
000659:
000660:                                                                                                  #        ****************************************
000661:
000662: 36,2652           44737        NOULLAGE           CS       ULLAGER                               #  MUST BE CALLED IN A TASK OR UNDER INHINT
000663: 36,2653           70111                           MASK     DAPBOOLS
000664: 36,2654           54111                           TS       DAPBOOLS
000665: 36,2655           00002                           TC       Q
000666:
000667:
000668:                                                                                                  #        ****************************************
000669:
000670: 36,2656           40111        ONULLAGE           CS       DAPBOOLS                              #  TURN ON ULLAGE.  MUST BE CALLED IN
000671: 36,2657           74737                           MASK     ULLAGER                               #  A TASK OR WHILE INHINTED.
000672: 36,2660           26111                           ADS      DAPBOOLS
000673: 36,2661           00002                           TC       Q
000674:
000675:
000676:                                                                                                  #        ****************************************
000677:
000678: 36,2662           34746        STCLOK1            CA       ZERO                                  #  THIS ROUTINE STARTS THE COUNT-DOWN
000679: 36,2663           55162        STCLOK2            TS       DISPDEX                               #  (CLOKTASK AND CLOKJOB).     SETTING
000680: 36,2664           04636        STCLOK3            TC       MAKECADR                              #  SETTING DISPDEX POSITIVE KILLS IT.
000681: 36,2665           55060                           TS       TBASE4                                #  RETURN SAVE (NOT FOR RESTARTS)
000682: 36,2666           00006                           EXTEND
000683: 36,2667           31442                           DCA      TIG
000684: 36,2670           52155                           DXCH     MPAC
000685: 36,2671           00006                           EXTEND
000686: 36,2672           40025                           DCS      TIME2
000687: 36,2673           20155                           DAS      MPAC                                  #  HAVE TIG - TIME2, UNDOUBTEDLY A + NUMBER
000688: 36,2674           07300                           TC       TPAGREE                               #  POSITIVE, SINCE WE PASSED THE
000689:


000691: 36,2675           34770                           CAF      1SEC                                  #    45 SECOND CHECK
000692: 36,2676           54002                           TS       Q
000693: 36,2677           52155                           DXCH     MPAC
000694: 36,2700           74337                           MASK     LOW5                                  #  RESTRICT MAGNITUDE OF NUMBER IN A
000695: 36,2701           00006                           EXTEND
000696: 36,2702           10002                           DV       Q
000697: 36,2703           30001                           CA       L                                     #  GET REMAINDER
000698: 36,2704           64743                           AD       TWO
000699: 36,2705           00004                           INHINT
000700: 36,2706           05175                           TC       TWIDDLE
000701: 36,2707           02716                           ADRES    CLOKTASK
000702: 36,2710           05331                           TC       2PHSCHNG
000703: 36,2711           40036                           OCT      40036                                 #  6.3SPOT FOR CLOKTASK
000704: 36,2712           05024                           OCT      05024
000705: 36,2713           13000                           OCT      13000
000706:
000707: 36,2714           31060                           CA       TBASE4
000708: 36,2715           04631                           TC       BANKJUMP
000709:
000710: 36,2716           40025        CLOKTASK           CS       TIME1                                 #  SET TBASE6 FOR GROUP 6 RESTART
000711: 36,2717           55064                           TS       TBASE6
000712:
000713: 36,2720           11162                           CCS      DISPDEX
000714: 36,2721           12732                           TCF      KILLCLOK
000715: 36,2722           12723                           NOOP
000716: 36,2723           37736                           CAF      PRIO27
000717: 36,2724           05063                           TC       NOVAC
000718: 36,2725  E7,1453                                  EBANK=   TTOGO
000719: 36,2725           02736 74067                     2CADR    CLOKJOB
000720:
000721:
000722: 36,2727           05223                           TC       FIXDELAY                              #  WAIT A SECOND BEFORE STARTING OVER
000723: 36,2730           00144                           DEC      100        B-14
000724: 36,2731           12716                           TCF      CLOKTASK
000725:
000726:
000727: 36,2732           00006        KILLCLOK           EXTEND                                         #  KILL RESTART
000728: 36,2733           34746                           DCA      NEG0
000729: 36,2734           52764                           DXCH     -PHASE6
000730: 36,2735           15263                           TCF      TASKOVER
000731:
000732:
000733: 36,2736           00006        CLOKJOB            EXTEND
000734: 36,2737           41442                           DCS      TIG
000735: 36,2740           53454                           DXCH     TTOGO
000736: 36,2741           00006                           EXTEND
000737: 36,2742           30025                           DCA      TIME2
000738: 36,2743           21454                           DAS      TTOGO
000739:


000741: 36,2744           00004                           INHINT
000742: 36,2745           11162                           CCS      DISPDEX                               #  IF DISPDEX HAS BEEN SET POSITIVE BY A
000743: 36,2746           15146                           TCF      ENDOFJOB                              #  TASK OR A HIGHER PRIORITY JOB SINCE THE
000744: 36,2747           15146                           TCF      ENDOFJOB                              #  LAST CLOKTASK, AVOID USING IT AS AN
000745: 36,2750           40000                           COM                                            #  INDEX.
000746: 36,2751           00003                           RELINT                                         #  ***** DISPDEX MUST NEVER BE -0 *****
000747: 36,2752           50000                           INDEX    A
000748: 36,2753           13010                           TCF      DISPNOT    -1                         #  (-1 DUE TO EFFECT OF CCS)
000749:
000750: 36,2754     4756               VB97DEX            =        OCT35                                 #  NEGATIVE OF THIS IS PROPER FOR DISPDEX
000751:
000752: 36,2754           44746                 -35       CS       ZERO                                  #  INDICATE VERB 97 PASTE
000753: 36,2755           55066                           TS       NVWORD1
000754: 36,2756           30370                           CA       NVWORD     +2                         #  NVWROD+2 CONTAINS V06 & APPROPRIATE NOUN
000755: 36,2757           04607                           TC       BANKCALL
000756: 36,2760           20466                           CADR     CLOCPLAY
000757: 36,2761           13012                           TCF      STOPCLOK                              #  TERMINATE CLOKTASK ON THE WAY TO P00H
000758: 36,2762           12607                           TCF      COMFAIL1
000759: 36,2763           12622                           TCF      COMFAIL2
000760:
000761:                                                                                                  #  THIS DISPLAY IS CALLED VIA ASTNCLOK
000762: 36,2764           33145                 -25       CAF      V06N61                                #  IT IS PRIMARILY USED BY THE CREW IN P63
000763: 36,2765           04607                           TC       BANKCALL                              #  TO RESET HIS EVENT TIMER TO AGREE WITH
000764: 36,2766           20452                           CADR     REFLASH                               #  TIG.
000765: 36,2767           13012                           TCF      STOPCLOK
000766: 36,2770           13027                           TCF      ASTNRETN
000767: 36,2771           12764                           TCF      -5
000768:
000769: 36,2772     4753               CNTDNDEX           =        LOW4                                  #  OCT17: NEGATIVE PROPER FOR DISPDEX
000770:
000771: 36,2772           51455                 -17       INDEX    WHICH                                 #  THIS DISPLAY COMES UP AT ONE SECOND
000772: 36,2773           30000                           CAF      0                                     #  INTERVALS. IT IS NORMALLY OPERATED
000773: 36,2774           04607                           TC       BANKCALL                              #  BETWEEN TIG-30 SECONDS AND TIG-5 SECONDS
000774: 36,2775           20460                           CADR     REGODSP                               #  REGODSP DOES ITS OWN TCF ENDOFJOB
000775:
000776: 36,2776     4751               VB99DEX            =        ELEVEN                                #  OCT13: NEGATIVE PROPER FOR DISPDEX
000777:
000778: 36,2776                        V99RECYC           EQUALS
000779:
000780: 36,2776           44734                 -13       CS       BIT9                                  #  INDICATE VERB 99 PASTE
000781: 36,2777           55066                           TS       NVWORD1
000782: 36,3000           51455                           INDEX    WHICH                                 #  THIS IS THE "PLEASE ENABLE ENGINE"
000783: 36,3001           30000                           CAF      0                                     #  DISPLAY; IT IS INITIATED AT TIG-5 SEC.
000784: 36,3002           04607                           TC       BANKCALL                              #  THE DISPLAY IS A V99NXX, WHERE XX IS THE
000785: 36,3003           20466                           CADR     CLOCPLAY                              #  NOUN THAT HAD PREVIOUSLY BEEN DISPLAYED
000786: 36,3004           13012                           TCF      STOPCLOK                              #  TERMINATE GOTOPOOH TURNS OFF ULLAGE.
000787: 36,3005           13040                           TCF      *PROCEED
000788: 36,3006           13043                           TCF      *ENTER
000789:
000790: 36,3007     4743               BLANKDEX           =        TWO                                   #  NEGATIVE OF THIS IS PROPER FOR DISPDEX
000791:


000793:
000794: 36,3007           04607                 -2        TC       BANKCALL                              #  BLANK DSKY.  THE DSKY IS BLANKED FOR
000795: 36,3010           20451                           CADR     CLEANDSP                              #  5 SECONDS AT TIG-35 TO INDICATE THAT
000796: 36,3011           15146        DISPNOT            TCF      ENDOFJOB                              #  AVERAGE G IS STARTING.
000797:
000798:
000799: 36,3012           03014        STOPCLOK           TC       NULLCLOK                              #  STOP CLOKTASK & TURN OFF ULLAGE ON THE
000800: 36,3013           16001                           TCF      GOTOPOOH                              #      WAY TO P00  (GOTOPOOH RELINTS)
000801:
000802: 36,3014           00004        NULLCLOK           INHINT
000803: 36,3015           00006                           EXTEND
000804: 36,3016           23141                           QXCH     P40/RET
000805: 36,3017           02652                           TC       NOULLAGE                              #  TURN OFF ULLAGE...
000806: 36,3020           06050                           TC       KILLTASK                              #       DON'T LET IT COME ON, EITHER...
000807: 36,3021           74350                           CADR     ULLGTASK
000808: 36,3022           05355                           TC       PHASCHNG                              #             NOT EVEN IF THERE'S A RESTART.
000809: 36,3023           00001                           OCT      1
000810: 36,3024           30005                           CA       Z                                     #  KILL CLOKTASK
000811: 36,3025           55162                           TS       DISPDEX
000812: 36,3026           01141                           TC       P40/RET
000813:
000814:
000815: 36,3027           05355        ASTNRETN           TC       PHASCHNG
000816: 36,3030           04024                           OCT      04024
000817: 36,3031           34746                           CAF      ZERO                                  #  STOP DISPLAYING BUT KEEP RUNNING.
000818: 36,3032           55162                           TS       DISPDEX
000819: 36,3033           35014                           CAF      PRIO13
000820: 36,3034           05076                           TC       FINDVAC
000821: 36,3035  E5,1757                                  EBANK=   STARIND
000822: 36,3035           03022 64065                     2CADR    ASTNRET
000823:
000824: 36,3037           15146                           TCF      ENDOFJOB
000825:
000826:
000827: 36,3040           05506        *PROCEED           TC       UPFLAG
000828: 36,3041           00154                           ADRES    ASTNFLAG
000829:
000830: 36,3042           13101                           TCF      IGNITE
000831:
000832:
000833: 36,3043           00004        *ENTER             INHINT
000834: 36,3044           51455                           INDEX    WHICH
000835: 36,3045           00003                           TC       3
000836:
000837: 36,3046           34635        GOPOST             CAF      PRIO12                                #  (3) MUST BE LOWER PRIORITY THAN CLOKJOB
000838: 36,3047           05076                           TC       FINDVAC
000839: 36,3050  E7,1453                                  EBANK=   TTOGO
000840: 36,3050           03222 74067                     2CADR    POSTBURN
000841: 36,3052           00004                           INHINT                                         #  SET UP THE DAP FOR COASTING FLIGHT.
000842: 36,3053           04665                           TC       IBNKCALL
000843:


000845: 36,3054           40205                           CADR     ALLCOAST
000846: 36,3055           03014                           TC       NULLCLOK
000847: 36,3056           05355                           TC       PHASCHNG                              #  4.13 RESTART FOR POSTBURN
000848: 36,3057           00134                           OCT      00134
000849:
000850: 36,3060           15146                           TCF      ENDOFJOB
000851:
000852:
000853: 36,3061           35020        GOCUTOFF           CAF      PRIO17                                #  (3)
000854: 36,3062           05076                           TC       FINDVAC
000855: 36,3063  E7,1516                                  EBANK=   TGO
000856: 36,3063           03526 70067                     2CADR    CUTOFF
000857:
000858: 36,3065           05520                           TC       DOWNFLAG
000859: 36,3066           00175                           ADRES    FLUNDISP
000860:
000861: 36,3067           00004                           INHINT                                         #  SET UP THE DAP FOR COASTING FLIGHT.
000862: 36,3070           04665                           TC       IBNKCALL
000863: 36,3071           40205                           CADR     ALLCOAST
000864: 36,3072           03014                           TC       NULLCLOK
000865: 36,3073           05355                           TC       PHASCHNG
000866: 36,3074           07024                           OCT      07024
000867: 36,3075           17000                           OCT      17000
000868: 36,3076  E7,1516                                  EBANK=   TGO
000869: 36,3076           03526 70067                     2CADR    CUTOFF
000870:
000871: 36,3100           15146                           TCF      ENDOFJOB
000872:
000873:
000874: 36,3101           40103        IGNITE             CS       FLAGWRD7                              #  (2)
000875: 36,3102           74730                           MASK     IGNFLBIT
000876: 36,3103           10000                           CCS      A
000877: 36,3104           13115                           TCF      IGNITE1
000878: 36,3105           34744                           CAF      BIT1
000879: 36,3106           00004                           INHINT
000880: 36,3107           05175                           TC       TWIDDLE
000881: 36,3110           02433                           ADRES    IGNITION
000882:
000883: 36,3111           34351                           CAF      OCT23                                 #  IMMEDIATE RESTART AT IGNITION.
000884: 36,3112           54001                           TS       L
000885: 36,3113           40000                           COM
000886: 36,3114           52760                           DXCH     -PHASE4
000887:
000888: 36,3115           44753        IGNITE1            CS       CNTDNDEX                              #  RESTORE OLD DISPLAY.
000889: 36,3116           55162                           TS       DISPDEX
000890:
000891: 36,3117           15146                           TCF      ENDOFJOB
000892:
000893:                                                                                                  #        ****************************************
000894:


000896:
000897: 36,3120           05571        P40ALM             TC       ALARM                                 #  PROGRAM SELECTION NOT CONSISTENT WITH
000898: 36,3121           01706                           OCT      1706                                  #  VEHICLE CONFIGURATION
000899:
000900: 36,3122           34777        REP40ALM           CAF      V05N09                                #  (14)
000901: 36,3123           04607                           TC       BANKCALL
000902: 36,3124           20471                           CADR     GOFLASH
000903:
000904: 36,3125           16001                           TCF      GOTOPOOH                              #  V34E  TERMINATE
000905: 36,3126           13130                           TCF      +2                                    #  PROCEED  CHECK FOR P42
000906: 36,3127           13122                           TCF      REP40ALM                              #  V32E  REDISPLAY ALARM
000907:
000908: 36,3130           51455                           INDEX    WHICH                                 #  FOR P42, ALLOW CREW TO PROCEED EVEN
000909: 36,3131           00014                           TC       14                                    #  THOUGH VEHICLE IS UNSTAGED.
000910:
000911:                                                                                                  #        ****************************************
000912:
000913:
000914: 31,2144                                           BANK     31
000915: 35,2000                                           SETLOC   P40S2
000916: 35,2000                                           BANK
000917:
000918: 35,3710                                           COUNT*   $$/P40
000919:
000920: 35,3710           04636        P40AUTO            TC       MAKECADR                              #  HELLO THERE.
000921: 35,3711           55163                           TS       TEMPR60                               #  FOR GENERALIZED RETURN TO OTHER BANKS.
000922: 35,3712           04607        P40A/P             TC       BANKCALL                              #  SUBROUTINE TO CHECK PGNCS CONTROL
000923: 35,3713           54267                           CADR     G+N,AUTO                              #  AND AUTO STABILIZATION MODES
000924: 35,3714           10000                           CCS      A                                     #  +0 INDICATES IN PGNCS, IN AUTO
000925: 35,3715           13733                           TCF      TURNITON                              #  + INDICATES NOT IN PGNCS AND/OR AUTO
000926: 35,3716           34730                           CAF      APSFLBIT                              #  ARE WE ON THE DESCENT STAGE?
000927: 35,3717           70106                           MASK     FLGWRD10
000928: 35,3720           10000                           CCS      A
000929: 35,3721           13740                           TCF      GOBACK                                #  RETURN
000930: 35,3722           34741                           CAF      BIT4
000931: 35,3723           70374                           MASK     CHANBKUP
000932: 35,3724           10000                           CCS      A
000933: 35,3725           13740                           TCF      GOBACK                                #  IGN6RE CHAN 30 BIT 5.  ASSUME AUTO THROT
000934:
000935: 35,3726           34740                           CAF      BIT5                                  #  YES, CHECK FOR AUTOTHROTTLE MODE
000936: 35,3727           00006                           EXTEND
000937: 35,3730           02030                           RAND     CHAN30
000938: 35,3731           00006                           EXTEND
000939: 35,3732           13740                           BZF      GOBACK                                #  IN AUTOTHROTTLE MODE -- RETURN
000940: 35,3733           33742        TURNITON           CAF      P40A/PMD                              #  DISPLAY V50N25 R1=203  PLEASE PERFORM
000941: 35,3734           04607                           TC       BANKCALL                              #  CHECKLIST 203 TURN ON PGNCS ETC.
000942: 35,3735           20635                           CADR     GOPERF1
000943: 35,3736           16001                           TCF      GOTOPOOH                              #  V34E TERMINATE
000944: 35,3737           13712                           TCF      P40A/P                                #  RECYCLE
000945: 35,3740           31163        GOBACK             CA       TEMPR60
000946: 35,3741           04631                           TC       BANKJUMP                              #  GOODBYE.  COME AGAIN SOON.
000947:


000949:
000950: 35,3742           00203        P40A/PMD           OCT      00203
000951:
000952: 36,3132                                           BANK     36
000953: 36,2000                                           SETLOC   P40S
000954: 36,2000                                           BANK
000955:
000956: 36,3132                                           COUNT*   $$/P40
000957:
000958:                                                                                                  #        ****************************************
000959:                                                                                                  #        CONSTANTS FOR THE IGNITION ROUTINE
000960:                                                                                                  #        ****************************************
000961:
000962: 36,3132  36,2107               SERVCADR           =        P63TABLE   +7
000963:
000964: 36,3132           02040        P40ADRES           ADRES    P40TABLE
000965:
000966: 36,3133           02050        P41ADRES           ADRES    P41TABLE   -5
000967:
000968: 36,3134           02063        P42ADRES           ADRES    P42TABLE
000969:
000970: 36,3135  E7,1515                                  EBANK=   DVCNTR
000971: 36,3135           02425 62067  LUNLANAD           2CADR    LUNLAND
000972:
000973:
000974:
000975: 36,3137  E7,1515                                  EBANK=   DVCNTR
000976: 36,3137           03375 70067  ATMAGADR           2CADR    ATMAG
000977:
000978: 36,3141     6001               ?                  =        GOTOPOOH
000979:
000980: 36,3141           00000 05656  D29.9SEC           2DEC     2990       B-28
000981:
000982: 36,3143           04672        S24.9SEC           DEC      2490       B-14
000983:
000984: 36,3144           00752        4.9SEC             DEC      490        B-14
000985:
000986: 36,3145     4740               OCT20              =        BIT5
000987:
000988: 36,3145           01475        V06N61             VN       0661
000989:


000991:                                                                                                  #           KILLTASK
000992:                                                                                                  #  MOD NO: NEW PROGRAM
000993:                                                                                                  #  MOD BY: COVELLI
000994:
000995:                                                                                                  #  FUNCTIONAL DESCRIPTION:
000996:
000997:                                                                                                  #     KILLTASK IS USED TO REMOVE A TASK FROM THE WAITLIST BY SUBSTITUTING ANULL TASK CALLED 'NULLTASK' (OF COURSE),
000998:                                                                                                  #  WHICH MERELY DOES A TC TASKOVER. IF THE SAME TASK IS SCHEDULED MORE THAN ONCE, ONLY THE ONE WHICH WILL OCCUR
000999:                                                                                                  #  FIRST IS REMOVED. IF THE TASK IS NOT SCHEDULED, KILLTASK TAKES NO ACTION AND RETURNS WITH NO ALARM. KILLTASK
001000:                                                                                                  #  LEAVES INTERRUPTS INHIBITED SO CALLER MUST RELINT
001001:
001002:                                                                                                  #  CALLING SEQUENCE:
001003:                                                                                                  #                                          L         TC     KILLTASK       IN FIXED-FIXED
001004:                                                                                                  #                                          L+1       CADR   ????????       CADR (NOT 2CADR) OF TASK TO BE REMOVED.
001005:                                                                                                  #                                          L+2       (RELINT)              RETURN
001006:
001007:                                                                                                  #  EXIT MODE:  AT L+2 OF CALLING SEQUENCE.
001008:
001009:                                                                                                  #  ERASABLE INITIALIZATION=  NONE.
001010:
001011:                                                                                                  #  OUTPUT:  2CADR OF NULLTASK IN LST2
001012:
001013:                                                                                                  #  DEBRIS:  ITEMP1 - ITEMP4, A,L,Q.
001014:
001015: 36,3146  E3,1410                                  EBANK=   LST2
001016:    6050                                           BLOCK    3                                     #  KILLTASK MUST BE IN FIXED-FIXED.
001017:    6000                                           SETLOC   FFTAG6
001018:    6000                                           BANK
001019:    6050                                           COUNT*   $$/KILL
001020:    6050           36057        KILLTASK           CA       KILLBB
001021:    6051           00004                           INHINT
001022:    6052           22000                           LXCH     A
001023:    6053           50002                           INDEX    Q
001024:    6054           30000                           CA       0                                     #  GET CADR.
001025:    6055           22006                           LXCH     BBANK
001026:    6056           12200                           TCF      KILLTSK2                              #  CONTINUE IN SWITCHED FIXED
001027:
001028:    6057  E3,1410                                  EBANK=   LST2
001029:    6057           56063        KILLBB             BBCON    KILLTSK2
001030:
001031: 27,2200                                           BANK     27
001032:
001033: 27,2000                                           SETLOC   P40S1
001034: 27,2000                                           BANK
001035: 27,2200                                           COUNT*   $$/KILL
001036:
001037: 27,2200           22062        KILLTSK2           LXCH     ITEMP2                                #  SAVE CALLER'S BBANK
001038:


001040: 27,2201           24002                           INCR     Q
001041: 27,2202           00006                           EXTEND
001042: 27,2203           22061                           QXCH     ITEMP1                                #  RETURN 2CADR IN ITEMP1,ITEMP2
001043:
001044: 27,2204           54063                           TS       ITEMP3                                #  CADR IS IN A
001045: 27,2205           75003                           MASK     LOW10
001046: 27,2206           64732                           AD       BIT11
001047: 27,2207           54064                           TS       ITEMP4                                #  GENADR OF TASK
001048:
001049: 27,2210           45003                           CS       LOW10
001050: 27,2211           70063                           MASK     ITEMP3
001051: 27,2212           54063                           TS       ITEMP3                                #  FBANK OF TASK
001052:
001053: 27,2213           22007                           ZL
001054: 27,2214           50001        ADRSCAN            INDEX    L
001055: 27,2215           41410                           CS       LST2
001056: 27,2216           60064                           AD       ITEMP4                                #  COMPARE GENADRS
001057: 27,2217           00006                           EXTEND
001058: 27,2220           12232                           BZF      TSTFBANK                              #  IF THEY MATCH, COMPARE FBANKS
001059: 27,2221           44740        LETITLIV           CS       LSTLIM
001060: 27,2222           60001                           AD       L
001061: 27,2223           00006                           EXTEND                                         #  ARE WE DONE?
001062: 27,2224           12230                           BZF      DEAD                                  #  YES - DONE, SO RETURN
001063: 27,2225           24001                           INCR     L
001064: 27,2226           24001                           INCR     L
001065: 27,2227           12214                           TCF      ADRSCAN                               #  CONTINUE LOOP.
001066:
001067: 27,2230           52062        DEAD               DXCH     ITEMP1
001068: 27,2231           52006                           DTCB
001069:
001070: 27,2232           45003        TSTFBANK           CS       LOW10
001071: 27,2233           50001                           INDEX    L
001072: 27,2234           71411                           MASK     LST2       +1                         #  COMPARE FBANKS ONLY.
001073: 27,2235           00006                           EXTEND
001074: 27,2236           60063                           SU       ITEMP3
001075: 27,2237           00006                           EXTEND
001076: 27,2240           12242                           BZF      KILLDEAD                              #  MATCH - KILL IT.
001077: 27,2241           12221                           TCF      LETITLIV                              #  NO MATCH - CONTINUE.
001078:
001079: 27,2242           34344        KILLDEAD           CA       TCTSKOVR
001080: 27,2243           50001                           INDEX    L
001081: 27,2244           55410                           TS       LST2                                  #  REMOVE TASK BY INSERTING TASKOVER
001082: 27,2245           12230                           TCF      DEAD
001083:
001084: 27,2246     4740               LSTLIM             EQUALS   BIT5                                  #  DEC 16

End of include-file BURN,_BABY,_BURN_--_MASTER_IGNITION_ROUTINE.agc.  Parent file is MAIN.agc


