
Source Code


000002:                                                                                                  ## Copyright:   Public domain.
000003:                                                                                                  ## Filename:    CONIC_SUBROUTINES.agc
000004:                                                                                                  ## Purpose:     A section of Luminary revision 210.
000005:                                                                                                  ##              It is part of the source code for the Lunar Module's (LM)
000006:                                                                                                  ##              Apollo Guidance Computer (AGC) for Apollo 15-17.
000007:                                                                                                  ##              This file is intended to be a faithful transcription, except
000008:                                                                                                  ##              that the code format has been changed to conform to the
000009:                                                                                                  ##              requirements of the yaYUL assembler rather than the
000010:                                                                                                  ##              original YUL assembler.
000011:                                                                                                  ## Reference:   pp. 1157-1201
000012:                                                                                                  ## Assembler:   yaYUL
000013:                                                                                                  ## Contact:     Ron Burkey <info@sandroid.org>.
000014:                                                                                                  ## Website:     www.ibiblio.org/apollo/index.html
000015:                                                                                                  ## Mod history: 2016-11-17 JL   Created from Luminary131 version.
000016:                                                                                                  ##              2016-12-09 MAS  Began updating for Luminary 210.
000017:                                                                                                  ##              2016-12-10 MAS  Completed updates (almost entirely comment formatting)
000018:                                                                                                  ##              2016-12-26 RSB  Comment-text proofed using ProoferComments
000019:                                                                                                  ##                              and corrected errors found.
000020:                                                                                                  ##              2017-01-28 RSB  WTIH -> WITH and WHCIH -> WHICH.
000021:                                                                                                  ##              2017-03-14 RSB  Comment-text fixes noted in proofing Luminary 116. (One
000022:                                                                                                  ##                              of the WHCIH's last time really was a WHCIH!)
000023:                                                                                                  ##              2017-03-15 RSB  Comment-text fixes identified in 5-way
000024:                                                                                                  ##                              side-by-side diff of Luminary 69/99/116/131/210.
000025:                                                                                                  ##              2017-03-17 RSB  Comment-text fixes identified in diff'ing
000026:                                                                                                  ##                              Luminary 99 vs Comanche 55.
000027:


000029:                                                                                                  #  PROGRAM DESCRIPTION - ENTIRE CONIC SUBROUTINE LOG SECTION                       DATE - 1 SEPTEMBER 1967
000030:                                                                                                  #  MOD NO. - 0                                                                     LOG SECTION - CONIC SUBROUTINES
000031:                                                                                                  #  MOD BY KRAUSE                                                                   ASSEMBLY - COLOSSUS REVISION 88
000032:
000033:
000034:


000037:                                                                                                  #  FUNCTIONAL DESCRIPTION -
000038:
000039:                                                                                                  #       THE FOLLOWING SET OF SUBROUTINES SOLVE VARIOUS PROBLEMS INVOLVING THE TRAJECTORY PRODUCED BY A CENTRAL
000040:                                                                                                  #  INVERSE-SQUARE FORCE ACTING ON A POINT MASS, AS OUTLINED IN THE CMC AND LGC LUNAR LANDING MISSION GSOP, SECTION
000041:                                                                                                  #  5.5.1.2.  A GENERAL USAGE POINT-OF-VIEW WAS TAKEN IN FORMULATING, MECHANIZING, AND SCALING THE SUBROUTINES,
000042:                                                                                                  #  RATHER THAN OPTIMIZING EACH FOR A PARTICULAR USE.  THEREFORE, MULTIPLE USAGE CAN BE MADE OF THE SUBROUTINES
000043:                                                                                                  #  INVOLVING ANY REALISTIC SET OF CONSTRAINTS.  IT SHOULD BE NOTED THAT ONLY ONE SET OF CODING IS USED, WHETHER THE
000044:                                                                                                  #  EARTH, MOON, OR ANY OTHER CELESTIAL BODY IS SPECIFIED AS THE CENTRAL BODY OF THE PROBLEM, PROVIDED ONE OBSERVES
000045:                                                                                                  #  THE INHERENT SCALE CHANGE REQUIRED IN POSITION, VELOCITY, MU, AND TIME, AS OUTLINED IN MISSION PROGRAMMING
000046:                                                                                                  #  DEFINITION MEMO NO. 10.  THIS CAN BE ACCOMPLISHED BY SIMPLY ADDING TO THE MUTABLE AND INITIALIZING THE SUBROU-
000047:                                                                                                  #  TINES APPROPRIATELY.
000048:                                                                                                  #       DUE TO THE UNIFORMITY OF THE EQUATIONS INVOLVED, CODING WAS MINIMIZED BY TREATING INDIVIDUAL EQUATIONS AND
000049:                                                                                                  #  BLOCKS OF EQUATIONS AS SUBROUTINES OF LOWER RANK WHENEVER POSSIBLE.  AS A RESULT, THREE BY-PRODUCTS SUBROUTINES,
000050:                                                                                                  #  DIRECTLY USABLE AS INDEPENDENT SUBROUTINES, WERE GENERATED.
000051:
000052:
000053:                                                                                                  #  RESTRICTIONS -
000054:
000055:                                                                                                  #       THE ONLY LIMITATION IN THE SCOPE OF PROBLEM WHICH CAN BE SOLVED BY A PARTICULAR SUBROUTINE IS THE SCALING
000056:                                                                                                  #  LIMIT OF EACH PARAMETER AS SPECIFIED IN THE GSOP.  THESE SCALING LIMITS WERE CHOSEN SO THAT ALL FEASIBLE TRAJEC-
000057:                                                                                                  #  TORIES COULD BE HANDLED.
000058:                                                                                                  #       SINCE THE SUBROUTINES (EXCEPT KEPLER) USE COMMON SUBROUTINES OF LOWER RANK WHICH USE ERASABLE OTHER THAN
000059:                                                                                                  #  THE PUSHLIST (DUE TO ITS LIMITED SIZE) AND COMMON INTERPRETIVE SWITCHES, THE CONIC SUBROUTINES CANNOT BE ALLOWED
000060:                                                                                                  #  TO INTERRUPT EACH OTHER.  IT IS UP TO THE USER TO GUARANTEE THIS CONDITION.
000061:


000063:                                                                                                  #  PROGRAM DESCRIPTION - KEPLER SUBROUTINE                                 DATE - 11 OCTOBER 1967
000064:                                                                                                  #  MOD NO. -1                                                                       LOG SECTION - CONIC SUBROUTINES
000065:                                                                                                  #  MOD BY KRAUSE                                                           ASSEMBLY - COLOSSUS 103 AND SUNDANCE 222
000066:                                                                                                  #  MOD NO. - 2  (AUGUST 1968) BY ROBERTSON: TO PERMIT BACKDATING BY MORE THAN ONE ORBITAL PERIOD.
000067:
000068:
000069:                                                                                                  #  MOD NO. - 3  (DEC 1968) BY ROBERTSON: SUPPRESSION OF X-MODULO-ING
000070:
000071:
000072:                                                                                                  #  MOD. NO. - 4   (JAN 1969) BY ROBERTSON: CLEAR OVFIND AT KEPLER ENTRY
000073:
000074:
000075:                                                                                                  #  FUNCTIONAL DESCRIPTION -
000076:                                                                                                  #       THIS SUBROUTINE, GIVEN AN INITIAL STATE VECTOR AND THE DESIRED TRANSFER TIME THROUGH WHICH THE STATE IS TO
000077:                                                                                                  #  BE UPDATED ALONG A CONIC TRAJECTORY, COMPUTES THE NEW, UPDATED STATE VECTOR.  THE TRAJECTORY MAY BE ANY CONIC
000078:                                                                                                  #  SECTION - CIRCULAR, ELLIPTIC, PARABOLIC, HYPERBOLIC, OR RECTILINEAR WITH RESPECT TO THE EARTH OR THE MOON.  THE
000079:                                                                                                  #  USE OF THE SUBROUTINE CAN BE EXTENDED USING OTHER PRIMARY BODIES BY SIMPLE ADDITIONS TO THE MUTABLE WITHOUT
000080:                                                                                                  #  INTRODUCING ANY CODING CHANGES, ACCEPTING THE INHERENT SCALE FACTOR CHANGES IN POSITION AND VELOCITY.  AN ITERA-
000081:                                                                                                  #  TION TECHNIQUE IS UTILIZED IN THE COMPUTATION.
000082:                                                                                                  #       IF A NEGATIVE TIME-OF-FLIGHT IS INPUT, THE PROGRAM WILL SOLVE FOR THE STATE WHICH WOULD BE PRODUCED BY
000083:                                                                                                  #  EXTRAPOLATING THE POSITION BACKWARD IN TIME.
000084:                                                                                                  #       IF THE ABSOLUTE VALUE OF THE DESIRED TRANSFER TIME EXCEEDS THE ORBITAL PERIOD, THE SUBROUTINE, THROUGH A
000085:                                                                                                  #  MODULAR TECHNIQUE, WILL COMPUTE THE STATE CORRESPONDING TO THE DESIRED TIME (WHETHER POSITIVE OR NEGATIVE).
000086:
000087:
000088:                                                                                                  #  THE RESTRICTIONS ARE -
000089:                                                                                                  #       1. (PREVIOUS RESTRICTION ON THE NEGATIVE DESIRED TRANSFER TIME IS NOW DELETED.)
000090:                                                                                                  #       2.  THE PARAMETERS IN THE PROBLEM CANNOT EXCEED THEIR SCALING LIMITS AS SPECIFIED IN THE GSOP.  IF
000091:                                                                                                  #  ANY OF THESE LIMITS ARE EXCEEDED, THE RESULTING SOLUTION WILL BE MEANINGLESS.
000092:
000093:
000094:                                                                                                  #       THE NUMBER OF ITERATIONS AND, THEREFORE, THE COMPUTATION SPEED IS DEPENDENT ON THE ACCURACY OF THE
000095:                                                                                                  #  GUESS, XKFPNEW.  THE AGC COMPUTATION TIME IS APPROXIMATELY .061 SECONDS FOR INITIALIZATION, .065 SECONDS FOR THE
000096:                                                                                                  #  FINAL COMPUTATIONS, PLUS .083 SECONDS FOR EACH ITERATION.
000097:
000098:
000099:
000100:                                                                                                  #  REFERENCES -
000101:                                                                                                  #       R-479, MISSION PROGRAMMING DEFINITION MEMO NO. 10, LUNAR LANDING MISSION GSOP, SECTION 5.5, SGA
000102:                                                                                                  #  MEMO 67-4.
000103:
000104:
000105:
000106:                                                                                                  #  INPUT - ERASABLE INITIALIZATION REQUIRED
000107:
000108:                                                                                                  #          * SCALE FACTOR *
000109:                                                                                                  #  VARIABLE*IN POWERS OF 2*                         DESCRIPTION AND REMARKS
000110:                                                                                                  #  --------*--------------*                         -----------------------
000111:                                                                                                  #  RRECT   * +29 FOR EARTH*DP INITIAL POSITION VECTOR IN METERS
000112:                                                                                                  #          * +27 FOR MOON *


000114:                                                                                                  #  VRECT   * +7 FOR EARTH *DP INITIAL VELOCITY VECTOR IN METERS/CENTISECOND
000115:                                                                                                  #          * +5 FOR MOON  *
000116:                                                                                                  #  X1 (38D)* NONE         *INDEX REGISTER SET TO -2D OR -10D ACCORDING TO WHETHER THE EARTH OR MOON,
000117:                                                                                                  #          *              *RESPECTIVELY, IS THE CENTRAL BODY
000118:                                                                                                  #  TAU.    * +28          *DESIRED TRANSFER TIME IN CENTISECONDS (DP)
000119:                                                                                                  #          *              *    MAY BE POS OR NEG AND ABSOLUTE VALUE MAY BE GREATER OR LESS THAN ONE ORBITAL PERIOD.
000120:                                                                                                  #  XKEPNEW * +17 FOR EARTH*DP GUESS OF ROOT X OF KEPLERS EQN IN SQRT(METERS). SIGN SHOULD AGREE WITH THAT OF TAU.
000121:                                                                                                  #          * +16 FOR MOON *    AND ABS VALUE SHOULD BE LESS THAN THAT CORRESPONDING TO A PERIOD,VIZ, 2PI SQRT(SEMI-
000122:                                                                                                  #          *              *    MAJOR AXIS),FOR SPEED OF CONVERGENCE,BUT IF EITHER CONDITION FAILS, XKEPNEW IS RESET
000123:                                                                                                  #          *              *    BY KEPLER TO A POOR BUT VALID GUESS.
000124:                                                                                                  #  TC      * +28          *DP PREV. VALUE OF TIME IN CENTISECS.  MUST BE LESS THAN ONE ORBITAL PERIOD.
000125:                                                                                                  #  XPREV   * +17 FOR EARTH*DP PREV. VALUE OF X IN SQRT(METERS).  MUST BE LESS THAN AN X CORRESPONDING TO ONE
000126:                                                                                                  #          * +16 FOR MOON *    ORBITAL PERIOD,VIZ,2PI SQRT(SEMI-MAJOR AXIS)
000127:
000128:
000129:
000130:                                                                                                  #  SUBROUTINES CALLED -
000131:                                                                                                  #       DELTIME
000132:
000133:
000134:
000135:                                                                                                  #  CALLING SEQUENCE AND NORMAL EXIT MODES -
000136:
000137:                                                                                                  #  KEPRTN-2 GOTO                   MUST BE IN INTERPRETIVE MODE BUT OVFIND ARBITRARY.
000138:                                                                                                  #  KEPRTN-1        KEPLER          RETURNS WITH XPREV IN MPAC. PL IS AT 0.
000139:                                                                                                  #  KEPRTN   ...                    CONTINUE
000140:
000141:                                                                                                  #  KEPLER MUST NOT BE CALLED DIRECTLY SINCE AN INTERRUPTION OF IT WOULD DESTROY THE ERASABLES IT NEEDS TO COMPLETE
000142:                                                                                                  #  THE INTERRUPTED JOB.  THEREFORE THE USER MUST CALL CSMCONIC OR LEMCONIC WHICH GUARANTEES NO INTERRUPTS AND WHICH
000143:                                                                                                  #  ALSO CALLS KEPPREP TO COMPUTE A GUESS OF XKEPNEW.
000144:
000145:
000146:
000147:                                                                                                  #  ABORT EXIT MODES -
000148:                                                                                                  #       NONE
000149:
000150:
000151:
000152:                                                                                                  #  OUTPUT -
000153:
000154:                                                                                                  #          * SCALE FACTOR *
000155:                                                                                                  #  VARIABLE*IN POWERS OF 2*                         DESCRIPTION AND REMARKS
000156:                                                                                                  #  --------*--------------*                         -----------------------
000157:                                                                                                  #  RCV     * +29 FOR EARTH*DP TERMINAL POSITION VECTOR IN METERS
000158:                                                                                                  #          * +27 FOR MOON *
000159:                                                                                                  #  VCV     * +7 FOR EARTH *DP TERMINAL VELOCITY VECTOR IN METERS/CENTISEC
000160:                                                                                                  #          * +5 FOR MOON  *
000161:                                                                                                  #  TC      * +28          *DP TRANSFER TIME IN CENTISECS TO WHICH KEPLER CONVERGED. ALWAYS LESS THAN ONE PERIOD.
000162:                                                                                                  #  XPREV   * +17 FOR EARTH*DP VALUE OF X IN SQRT(METERS) TO WHCIH KEPLER CONVERGED. ALWAYS LESS THAN THE X
000163:                                                                                                  #          * +16 FOR MOON *    CORRESPONDING TO ONE PERIOD.


000165:                                                                                                  #  FOR OTHER OUTPUT WHICH MAY BE OF USE, SEE DEBRIS.
000166:
000167:
000168:
000169:                                                                                                  #  DEBRIS -
000170:
000171:                                                                                                  #       PARAMETERS WHICH MAY BE OF USE -
000172:
000173:                                                                                                  #          * SCALE FACTOR *
000174:                                                                                                  #  VARIABLE*IN POWERS OF 2*                         DESCRIPTION AND REMARKS
000175:                                                                                                  #  --------*--------------*                         -----------------------
000176:                                                                                                  #  URRECT  * +1           *DP UNIT VECTOR OF INITIAL POSITION
000177:                                                                                                  #  R1      * +29 FOR EARTH*DP MAGNITUDE OF INITIAL POSITION IN METERS
000178:                                                                                                  #          * +27 FOR MOON *
000179:                                                                                                  #  ALPHA   * -22 FOR EARTH*DP INVERSE OF SEMIMAJOR AXIS IN 1/METERS
000180:                                                                                                  #          * -20 FOR MOON *
000181:                                                                                                  #  TMODULO * +28          *DP INTEGRAL NUMBER OF PERIODS IN  CENTISECS. WHICH WAS SUBTRACTED FROM TAU. TO PRODUCE A
000182:                                                                                                  #          *              *TAU. OF LESS THAN ONE PERIOD.
000183:
000184:                                                                                                  #       PARAMETERS OF NO USE -
000185:                                                                                                  #  DP PARAMETERS - EPSILONT, DELX, DELT, RCNORM, XMODULO, PLUS PUSHLIST REGISTERS 0 THROUGH 39D.
000186:
000187:


000189:                                                                                                  #  PROGRAM DESCRIPTION - LAMBERT SUBROUTINE                                        DATE - 1 SEPTEMBER 1967
000190:                                                                                                  #  MOD NO. - 0                                                                     LOG SECTION - CONIC SUBROUTINES
000191:                                                                                                  #  MOD BY KRAUSE                                                                   ASSEMBLY - COLOSSUS REVISION 88
000192:
000193:
000194:
000195:                                                                                                  #  FUNCTIONAL DESCRIPTION -
000196:
000197:                                                                                                  #       THIS SUBROUTINE CALCULATES THE INITIAL VELOCITY REQUIRED TO TRANSFER A POINT-MASS ALONG A CONIC TRAJECTORY
000198:                                                                                                  #  FROM AN INITIAL POSITION TO A TERMINAL POSITION IN A PRESCRIBED TIME INTERVAL.  THE RESULTING TRAJECTORY MAY BE
000199:                                                                                                  #  A SECTION OF A CIRCLE, ELLIPSE, PARABOLA, OR HYPERBOLA WITH RESPECT TO THE EARTH OR THE MOON.  THE USE OF THE
000200:                                                                                                  #  SUBROUTINE CAN BE EXTENDED USING OTHER PRIMARY BODIES BY SIMPLE ADDITIONS TO THE MUTABLE WITHOUT INTRODUCING ANY
000201:                                                                                                  #  CODING CHANGES, ACCEPTING THE INHERENT SCALE FACTOR CHANGES IN POSITION AND VELOCITY.  AN ITERATION TECHNIQUE IS
000202:                                                                                                  #  UTILIZED IN THE COMPUTATION.
000203:
000204:
000205:                                                                                                  #  THE RESTRICTIONS ARE -
000206:                                                                                                  #       1. RECTILINEAR TRAJECTORIES CANNOT BE COMPUTED.
000207:                                                                                                  #       2. AN ACCURACY DEGRADATION OCCURS AS THE COSINE OF THE TRUE ANOMALY DIFFERENCE APPROACHES +1.0.
000208:                                                                                                  #       3. THE ANGLE BETWEEN ANY POSITION VECTOR AND ITS VELOCITY VECTOR MUST BE GREATER THAN 1 DEGREE 47.5 MINUTES
000209:                                                                                                  #  AND LESS THAN 178 DEGREES 12.5 MINUTES.
000210:                                                                                                  #       4. NEGATIVE TRANSFER TIME IS AMBIGUOUS AND WILL RESULT IN NO SOLUTION.
000211:                                                                                                  #       5. THE PARAMETERS IN THE PROBLEM MUST NOT EXCEED THEIR SCALING LIMITS SPECIFIED IN THE GSOP.  IF THE
000212:                                                                                                  #  LIMITS ARE EXCEEDED, THE RESULTING SOLUTION WILL BE MEANINGLESS.
000213:                                                                                                  #       THE NUMBER OF ITERATIONS AND, THEREFORE, THE COMPUTATIONS SPEED IS DEPENDENT ON THE ACCURACY OF THE FIRST
000214:                                                                                                  #  GUESS OF THE INDEPENDENT VARIABLE, COGA.                                THE AGC COMPUTATION TIME IS APPROXIMATE-
000215:                                                                                                  #  LY .105 SECONDS FOR INITIALIZATION, .069 SECONDS FOR FINAL COMPUTATIONS, PLUS .205 SECONDS FOR EACH ITERATION.
000216:
000217:
000218:
000219:                                                                                                  #  REFERENCES -
000220:                                                                                                  #       R-479, MISSION PROGRAMMING DEFINITION MEMO NO. 10, LUNAR LANDING MISSION GSOP-SECTION 5.5, SGA MEMO 67-8,
000221:                                                                                                  #  SGA MEMO 67-4.
000222:
000223:
000224:
000225:                                                                                                  #  INPUT - ERASABLE INITIALIZATION REQUIRED
000226:
000227:                                                                                                  #          * SCALE FACTOR *
000228:                                                                                                  #  VARIABLE*IN POWERS OF 2*                         DESCRIPTION AND REMARKS
000229:                                                                                                  #  --------*--------------*                         -----------------------
000230:                                                                                                  #  R1VEC   * +29 FOR EARTH*DP INITIAL POSITION VECTOR IN METERS
000231:                                                                                                  #          * +27 FOR MOON *
000232:                                                                                                  #  R2VEC   * +29 FOR EARTH*DP TARGET OR TERMINAL POSITION VECTOR IN METERS
000233:                                                                                                  #          * +27 FOR MOON *
000234:                                                                                                  #  TDESIRED* +28          *DP DESIRED TRANSFER TIME IN CENTISECONDS
000235:                                                                                                  #  X1 (38D)* NONE         *INDEX REGISTER SET TO -2D OR -10D ACCORDING TO WHETHER THE EARTH OR MOON,
000236:                                                                                                  #          *              *RESPECTIVELY, IS THE CENTRAL BODY
000237:                                                                                                  #  GEOMSGN * NONE         *SP +.5 IF DESIRED TRANSFER ANGLE IS LESS THAN 180 DEGREES, -.5 IF GREATER THAN 180 DEG.
000238:                                                                                                  #  GUESSW  * NONE         *AN INTERPRETER SWITCH TO BE SET IF NO GUESS OF COGA IS AVAILABLE, CLEAR IF A GUESS OF


000240:                                                                                                  #          *              *COGA IS TO BE USED BY LAMBERT
000241:                                                                                                  #  COGA    * +5           *DP GUESS OF COTANGNT OF FLIGHT PATH ANGLE (MEASURED FROM VERTICAL).  THIS WILL BE
000242:                                                                                                  #                         *IGNORED IF GUESSW IS SET.
000243:                                                                                                  #  NORMSW  * NONE         *AN INTERPRETER SWITCH TO BE SET IF UN IS TO BE AN INPUT TO THE SUBROUTINE, CLEAR IF
000244:                                                                                                  #          *              *LAMBERT IS TO COMPUTE ITS OWN NORMAL (UN).
000245:                                                                                                  #  UN      * +1           *DP UNIT  NORMAL TO THE DESIRED ORBIT PLANE IN THE DIRECTION OF THE RESULTING ANGULAR
000246:                                                                                                  #          *              *MOMENTUM VECTOR.  THIS WILL BE IGNORED IF NORMSW IS CLEAR.
000247:                                                                                                  #  VTARGTAG* NONE         *A S.P. TAG TO BE SET TO ZERO IF LAMBERT IS TO COMPUTE THE VELOCITY AT R2VEC AS WELL AS
000248:                                                                                                  #          *              *AT R1VEC.
000249:                                                                                                  #  ITERCTR * NONE         *A S.P. COUNTER WHICH SPECIFIES THE MAXIMUM NUMBER OF ITERATIONS ALLOWABLE.
000250:                                                                                                  #          *              *(AN ITERATION MEANS A PASS THRU KEPLER EQN (DELTIME). AT LEAST ONE OF THESE MUST
000251:                                                                                                  #          *              *ALWAYS OCCUR, EVEN IF COGA CORRESPONDING TO SOLUTION WERE INPUT AS A GUESS.)
000252:                                                                                                  #          *              *TWENTY ITERATIONS ARE SUFFICIENT TO SOLVE ALL PROBLEMS INCLUDING THOSE WITHOUT GUESS.
000253:
000254:
000255:                                                                                                  #  SUBROUTINES CALLED -
000256:                                                                                                  #       GEOM, GETX, DELTIME, ITERATOR, LAMENTER (PART OF NEWSTATE)
000257:
000258:
000259:
000260:                                                                                                  #  CALLING SEQUENCE AND NORMAL EXIT MODES -
000261:
000262:                                                                                                  #  L        CALL                   MUST BE IN INTERPRETIVE MODE BUT OVFIND ARBITRARY.
000263:                                                                                                  #  L+1             LAMBERT         RETURNS WITH PL AT 0 AND WITH VVEC IN MPAC IF VTARGTAG WAS NON-ZERO OR VTARGET
000264:                                                                                                  #                                  IN MPAC IF VTARGTAG WAS ZERO
000265:                                                                                                  #  L+2      BON                    CONTINUE IF SOLNSW CLEAR SINCE SOLUTION IS ACCEPTABLE
000266:                                                                                                  #  L+3             SOLNSW
000267:                                                                                                  #  L+4             LAMABORT
000268:                                                                                                  #       IF A LAMBERT RESULT IS TO BE A FIRST GUESS FOR THE NEXT LAMBERT CALCULATION, COGA MUST BE PRESERVED AND
000269:                                                                                                  #  GUESSW MUST BE CLEAR FOR EACH SUCCEEDING LAMBERT CALL.
000270:
000271:
000272:
000273:                                                                                                  #  ABORT EXIT MODES -
000274:                                                                                                  #       IF SOLNSW WAS SET UPON EXITING, EITHER LAMBERT WAS ASKED TO COMPUTE A TRANSFER TOO NEAR 0 OR 360 DEG, OR T
000275:                                                                                                  #  WAS TOO SMALL TO PRODUCE A REALISTIC TRANSFER BETWEEN R1VEC AND R2VEC.  IN EITHER CASE THE FIX MUST BE MADE
000276:                                                                                                  #  ACCORDING TO THE NEEDS OF THE PARTICULAR USER.  THE ABORT EXIT MODE MAY BE CODED AS ...
000277:                                                                                                  #  LAMABORT DLOAD    ABS                   A MEASURE OF PROXIMITY TO 0 OR
000278:                                                                                                  #                    1-CSTH                360 DEGREES.
000279:                                                                                                  #           DSU      BMN
000280:                                                                                                  #                    ONEBIT
000281:                                                                                                  #                    CHANGER2              CHANGE R2VEC DIRECTION SLIGHTLY.
000282:                                                                                                  #           DLOAD    DAD
000283:                                                                                                  #                    TDESIRED
000284:                                                                                                  #                    SOMETIME
000285:                                                                                                  #           STCALL   TDESIRED              INCREASE TDESIRED
000286:                                                                                                  #                    LAMBERT
000287:
000288:


000290:                                                                                                  #  OUTPUT -
000291:                                                                                                  #          * SCALE FACTOR *
000292:                                                                                                  #  VARIABLE*IN POWERS OF 2*                         DESCRIPTION AND REMARKS
000293:                                                                                                  #  --------*--------------*                         -----------------------
000294:                                                                                                  #  VVEC    * +7 FOR EARTH *DP INITIAL VELOCITY VECTOR IN METERS/CENTISECOND REQUIRED TO SATISFY THE BOUNDARY VALUE
000295:                                                                                                  #          * +5 FOR MOON  *PROBLEM.
000296:                                                                                                  #  VTARGET * +7 FOR EARTH *DP RESULTANT VELOCITY VECTOR AT R2VEC IN METERS/CENTISECOND.
000297:                                                                                                  #          * +5 FOR MOON  *
000298:                                                                                                  #  SOLNSW  * NONE         *INTERPRETER SWITCH WHICH IS SET IF THE SUBROUTINE CANNOT SOLVE THE PROBLEM, CLEAR IF THE
000299:                                                                                                  #          *              *SOLUTION EXISTS.
000300:                                                                                                  #  FOR OTHER OUTPUT WHICH MAY BE OF USE, SEE DEBRIS.
000301:
000302:
000303:
000304:                                                                                                  #  DEBRIS -
000305:                                                                                                  #       PARAMETERS WHICH MAY BE OF USE -
000306:
000307:                                                                                                  #          * SCALE FACTOR *
000308:                                                                                                  #  VARIABLE*IN POWERS OF 2*                         DESCRIPTION AND REMARKS
000309:                                                                                                  #  --------*--------------*                         -----------------------
000310:                                                                                                  #  SNTH    * +1           *DP SIN OF ANGLE BETWEEN R1VEC AND R2VEC
000311:                                                                                                  #  CSTH    * +1           *DP COSINE OF ANGLE
000312:                                                                                                  #  1-CSTH  * +2           *DP 1-CSTH
000313:                                                                                                  #  COGA    * +5           *DP COTAN OF INITIAL REQUIRED FLIGHT PATH ANGLE MEASURED FROM VERTICAL
000314:                                                                                                  #  P       * +4           *DP RATIO  OF SEMILATUS RECTUM TO INITIAL RADIUS
000315:                                                                                                  #  R1A     * +6           *DP RATIO OF INITIAL RADIUS TO SEMIMAJOR AXIS
000316:                                                                                                  #  R1 (32D)* +29 FOR EARTH*DP INITIAL RADIUS IN METERS
000317:                                                                                                  #          * +27 FOR MOON *
000318:                                                                                                  #  UR1     * +1           *DP UNIT VECTOR OF R1VEC
000319:                                                                                                  #  U2      * +1           *DP UNIT VECTOR OF R2VEC
000320:
000321:                                                                                                  #       PARAMETERS OF NO USE
000322:                                                                                                  #  DP PARAMETERS - EPSILONL, CSTH-RHO, TPREV, TERRLAMB, R2, RTNLAMB (SP), PLUS PUSHLIST REGISTER 0 THROUGH 41D
000323:                                                                                                  #  ADDITIONAL INTERPRETIVE SWITCHES USED - INFINFLG, 360SW, SLOPESW, ORDERSW
000324:
000325:


000327:                                                                                                  #  PROGRAM DESCRIPTION - TIME-THETA SUBROUTINE                                     DATE - 1 SEPTEMBER 1967
000328:                                                                                                  #  MOD NO. - 0                                                                     LOG SECTION - CONIC SUBROUTINES
000329:                                                                                                  #  MOD BY KRAUSE                                                                   ASSEMBLY - COLOSSUS REVISION 88
000330:
000331:
000332:
000333:                                                                                                  #  FUNCTIONAL DESCRIPTION -
000334:
000335:                                                                                                  #       THIS SUBROUTINE, GIVEN AN INITIAL STATE VECTOR AND A DESIRED TRUE-ANOMALY-DIFFERENCE THROUGH WHICH THE
000336:                                                                                                  #  STATE IS TO BE UPDATED ALONG A CONIC TRAJECTORY, CALCULATES THE CORRESPONDING TIME-OF-FLIGHT AND, IN ADDITION,
000337:                                                                                                  #  PROVIDES THE OPTION OF COMPUTING THE NEW UPDATED STATE VECTOR.  THE RESULTING TRAJECTORY MAY BE A SECTION OF A
000338:                                                                                                  #  CIRCLE, ELLIPSE, PARABOLA, OR HYPERBOLA WITH RESPECT TO THE EARTH OR THE MOON.  THE USE OF THE SUBROUTINE CAN BE
000339:                                                                                                  #  EXTENDED USING OTHER PRIMARY BODIES BY SIMPLE ADDITIONS TO THE MUTABLE WITHOUT INTRODUCING ANY CODING CHANGES,
000340:                                                                                                  #  ACCEPTING THE INHERENT SCALE FACTOR CHANGES IN POSITION AND VELOCITY.
000341:
000342:
000343:                                                                                                  #  THE RESTRICTIONS ARE -
000344:                                                                                                  #       1. THE ANGLE BETWEEN ANY POSITION VECTOR AND ITS VELOCITY VECTOR MUST BE GREATER THAN 1 DEGREE 47.5 MINUTES
000345:                                                                                                  #  AND LESS THAN 178 DEGREES 12.5 MINUTES.
000346:                                                                                                  #       2. THE PARAMETERS IN THE PROBLEM MUST NOT EXCEED THEIR SCALING LIMITS SPECIFIED IN THE GSOP.  IF THE LIMITS
000347:                                                                                                  #  ARE EXCEEDED, THE RESULTING SOLUTION WILL BE MEANINGLESS.
000348:
000349:                                                                                                  #       THE AGC COMPUTATION TIME IS APPROXIMATELY .292 SECONDS.
000350:
000351:
000352:
000353:                                                                                                  #  REFERENCES -
000354:                                                                                                  #       R-479, MISSION PROGRAMMING DEFINITION MEMO NO. 10, LUNAR LANDING MISSION GSOP-SECTION 5.5, SGA MEMO 67-8.
000355:
000356:
000357:
000358:                                                                                                  #  INPUT - ERASABLE INITIALIZATION REQUIRED
000359:
000360:                                                                                                  #          * SCALE FACTOR *
000361:                                                                                                  #  VARIABLE*IN POWERS OF 2*                         DESCRIPTION AND REMARKS
000362:                                                                                                  #  --------*--------------*                         -----------------------
000363:                                                                                                  #  RVEC    * +29 FOR EARTH*DP INITIAL POSITION VECTOR IN METERS
000364:                                                                                                  #          * +27 FOR MOON *
000365:                                                                                                  #  VVEC    * +7 FOR EARTH *DP INITIAL VELOCITY VECTOR IN METERS/CENTISECOND
000366:                                                                                                  #          * +5 FOR MOON  *
000367:                                                                                                  #  SNTH    * +1           *DP SINE OF TRUE-ANOMALY-DIFFERENCE THROUGH WHICH THE STATE IS TO BE UPDATED
000368:                                                                                                  #  CSTH    * +1           *DP COSINE OF THE ANGLE
000369:                                                                                                  #  RVSW    * NONE         *AN INTERPRETIVE SWITCH TO BE SET IF ONLY TIME IS TO BE AN OUTPUT, CLEAR IF THE NEW STATE
000370:                                                                                                  #          *              *IS TO BE COMPUTED ALSO.
000371:                                                                                                  #  X1 (38D)* NONE         *INDEX REGISTER TO BE SET TO -2D OR -10D ACCORDING TO WHETHER THE EARTH OR MOON,
000372:                                                                                                  #          *              *RESPECTIVELY, IS THE CENTRAL BODY.
000373:
000374:
000375:
000376:                                                                                                  #  SUBROUTINES CALLED -


000378:                                                                                                  #       PARAM, GEOM, GETX, DELTIME, NEWSTATE
000379:
000380:
000381:
000382:                                                                                                  #  CALLING SEQUENCE AND NORMAL EXIT MODES -
000383:
000384:                                                                                                  #     IF ONLY TIME IS DESIRED AS OUTPUT -
000385:                                                                                                  #  L        SET    CALL            MUST BE IN INTERPRETIVE MODE BUT OVFIND ARBITRARY.
000386:                                                                                                  #  L+1             RVSW
000387:                                                                                                  #  L+2             TIMETHET        RETURN WITH PL AT 0 AND T IN MPAC
000388:                                                                                                  #  L+3      ...                    CONTINUE
000389:
000390:
000391:                                                                                                  #     IF THE UPDATE STATE VECTOR IS DESIRED AS WELL -
000392:                                                                                                  #  L        CLEAR  CALL            MUST BE IN INTERPRETIVE MODE BUT OVFIND ARBITRARY.
000393:                                                                                                  #  L+1             RVSW
000394:                                                                                                  #  L+2             TIMETHET        RETURNS WITH PL AT 6.  THE INITIAL POSITION VECTOR IS IN 0D OF THE PUSHLIST AND
000395:                                                                                                  #                                  THE INITIAL VELOCITY VECTOR IN MPAC.
000396:                                                                                                  #  L+3      STOVL  NEWVVEC
000397:                                                                                                  #  L+4      STADR
000398:                                                                                                  #  L+5      STORE  NEWRVEC                 NEWVVEC AND NEWRVEC ARE SYMBOLIC REPRESENTATIONS OF THE USERS LOCATIONS.
000399:                                                                                                  #  L+6      ...                            CONTINUE
000400:
000401:
000402:
000403:                                                                                                  #  ABORT EXIT MODES -
000404:                                                                                                  #           IF COGAFLAG AND/OR INFINFLG IS SET AT THE EXIT TO TIME-THETA, TIME-THETA WILL TRANSFER TO POODOO WITH
000405:                                                                                                  #           AN ALARM CODE (ORIGINALLY 00607), AND NOT RETURN TO THE CALLING PROGRAM. (PCR 692 AND 721).
000406:
000407:
000408:
000409:                                                                                                  #  OUTPUT -
000410:                                                                                                  #          * SCALE FACTOR *
000411:                                                                                                  #  VARIABLE*IN POWERS OF 2*                         DESCRIPTION AND REMARKS
000412:                                                                                                  #  --------*--------------*                         -----------------------
000413:                                                                                                  #  T (30D) * +28          *DP TRANSFER TIME IN CENTISECONDS
000414:                                                                                                  #  INFINFLG* NONE         *AN INTERPRETIVE SWITCH WHICH IS SET IF THE TRANSFER ANGLE REQUIRES CLOSURE THROUGH
000415:                                                                                                  #          *              *INFINITY (NO SOLUTION), CLEAR IF A PHYSICAL SOLUTION IS POSSIBLE.
000416:                                                                                                  #  COGAFLAG* NONE         *AN INTERPRETIVE SWITCH WHICH IS SET IF RESTRICTION 1 HAS BEEN VIOLATED (NO SOLUTION),
000417:                                                                                                  #          *              *CLEAR IF NOT.
000418:
000419:                                                                                                  #  IN ADDITION, IF RVSW IS CLEAR, THE FOLLOWING ARE OUTPUT-
000420:
000421:                                                                                                  #  MPAC -  * +7 FOR EARTH *DP TERMINAL VELOCITY VECTOR IN METERS/CENTISEC.
000422:                                                                                                  #   MPAC +5* +5 FOR MOON  *
000423:                                                                                                  #  0D - 5D * +29 FOR EARTH*DP TERMINAL POSITION VECTOR IN METERS (PL AT 6D)
000424:                                                                                                  #          * +27 FOR MOON *
000425:
000426:                                                                                                  #  FOR OTHER OUTPUT WHICH MAY BE OF USE, SEE DEBRIS.
000427:
000428:


000430:                                                                                                  #  DEBRIS -
000431:
000432:                                                                                                  #       PARAMETERS WHICH MAY BE OF USE -
000433:
000434:                                                                                                  #          * SCALE FACTOR *
000435:                                                                                                  #  VARIABLE*IN POWERS OF 2*                         DESCRIPTION AND REMARKS
000436:                                                                                                  #  --------*--------------*                         -----------------------
000437:                                                                                                  #  R1 (32D)* +29 FOR EARTH*DP MAGNITUDE OF INITIAL POSITION VECTOR, RVEC, IN METERS
000438:                                                                                                  #          * +27 FOR MOON *
000439:                                                                                                  #  R1A     * +6           *DP RATIO OF R1 TO SEMIMAJOR AXIS (NEG. FOR HYPERBOLIC TRAJECTORIES)
000440:                                                                                                  #  P       * +4           *DP RATIO OF SEMILATUS RECTUM TO R1
000441:                                                                                                  #  COGA    * +5           *DP COTAN OF ANGLE BETWEEN RVEC AND VVEC
000442:                                                                                                  #  UR1     * +1           *DP UNIT VECTOR OF RVEC
000443:                                                                                                  #  U2      * +1           *DP UNIT VECTOR OF VVEC
000444:                                                                                                  #  UN      * +1           *DP UNIT VECTOR OF UR1*U2
000445:
000446:
000447:                                                                                                  #       PARAMETERS OF NO USE -
000448:                                                                                                  #  SP PARAMETERS -  RTNTT, GEOMSGN, RTNPRM, MAGVEC2=R2 (DP), PLUS PUSHLIST LOCATIONS 0-11D, 14D-21D, 24D-39D, 41D
000449:                                                                                                  #  ADDITIONAL INTERPRETIVE SWITCHES USED - NORMSW, 360SW
000450:
000451:


000453:                                                                                                  #  PROGRAM DESCRIPTION - TIME-RADIUS SUBROUTINE                            DATE - 11 OCTOBER 1967
000454:                                                                                                  #  MOD NO. -1                                                                      LOG SECTION - CONIC SUBROUTINES
000455:                                                                                                  #  MOD BY KRAUSE                                                                   ASSEMBLY - COLOSSUS REVISION 88
000456:
000457:
000458:
000459:                                                                                                  #  FUNCTIONAL DESCRIPTION -
000460:
000461:                                                                                                  #       THIS SUBROUTINE, GIVEN AN INITIAL STATE VECTOR AND A DESIRED RADIUS TO WHICH THE
000462:                                                                                                  #  STATE IS TO BE UPDATED ALONG A CONIC TRAJECTORY, CALCULATES THE CORRESPONDING TIME-OF-FLIGHT AND, IN ADDITION,
000463:                                                                                                  #  PROVIDES THE OPTION OF COMPUTING THE NEW UPDATED STATE VECTOR.  THE RESULTING TRAJECTORY MAY BE A SECTION OF A
000464:                                                                                                  #  CIRCLE, ELLIPSE, PARABOLA, OR HYPERBOLA WITH RESPECT TO THE EARTH OR THE MOON.  THE USE OF THE SUBROUTINE CAN BE
000465:                                                                                                  #  EXTENDED USING OTHER PRIMARY BODIES BY SIMPLE ADDITIONS TO THE MUTABLE WITHOUT INTRODUCING ANY CODING CHANGES,
000466:                                                                                                  #  ACCEPTING THE INHERENT SCALE FACTOR CHANGES IN POSITION AND VELOCITY.
000467:                                                                                                  #       IF THE DESIRED RADIUS IS BEYOND THE RADIUS OF APOCENTER OF THE CONIC OR BELOW THE RADIUS OF PERICENTER,
000468:                                                                                                  #  APSESW WILL BE SET AND THE SUBROUTINE WILL RETURN THE APOCENTER OR PERICENTER SOLUTION, RESPECTIVELY.
000469:
000470:
000471:                                                                                                  #  THE RESTRICTIONS ARE -
000472:                                                                                                  #       1. THE ANGLE BETWEEN ANY POSITION VECTOR AND ITS VELOCITY VECTOR MUST BE GREATER THAN 1 DEGREE 47.5 MINUTES
000473:                                                                                                  #  AND LESS THAN 178 DEGREES 12.5 MINUTES.
000474:                                                                                                  #       2. THE PARAMETERS IN THE PROBLEM MUST NOT EXCEED THEIR SCALING LIMITS SPECIFIED IN THE GSOP.  IF THE LIMITS
000475:                                                                                                  #  ARE EXCEEDED, THE RESULTING SOLUTION WILL BE MEANINGLESS.
000476:                                                                                                  #       3. AN ACCURACY DEGRADATION OCCURS AS THE SENSITIVITIES OF TIME AND UPDATED STATE VECTOR TO CHANGES IN
000477:                                                                                                  #  RDESIRED INCREASE.  THIS WILL OCCUR NEAR EITHER APSIS OF THE CONIC AND WHEN THE CONIC IS NEARLY CIRCULAR.  IN
000478:                                                                                                  #  PARTICULAR, IF THE CONIC IS AN EXACT CIRCLE, THE PROBLEM IS UNDEFINED AND THE SUBROUTINE WILL ABORT.
000479:
000480:
000481:                                                                                                  #       THE AGC COMPUTATION TIME IS APPROXIMATELY .363 SECONDS
000482:
000483:
000484:
000485:                                                                                                  #  REFERENCES -
000486:                                                                                                  #       R-479, MISSION PROGRAMMING DEFINITION MEMO NO. 10, LUNAR LANDING MISSION GSOP-SECTION 5.5, SGA MEMO 67-8.
000487:
000488:
000489:
000490:                                                                                                  #  INPUT - ERASABLE INITIALIZATION REQUIRED
000491:                                                                                                  #          * SCALE FACTOR *
000492:                                                                                                  #  VARIABLE*IN POWERS OF 2*                         DESCRIPTION AND REMARKS
000493:                                                                                                  #  --------*--------------*                         -----------------------
000494:                                                                                                  #  RVEC    * +29 FOR EARTH*DP INITIAL POSITION VECTOR IN METERS
000495:                                                                                                  #          * +27 FOR MOON *
000496:                                                                                                  #  VVEC    * +7 FOR EARTH *DP INITIAL VELOCITY VECTOR IN METERS/CENTISECOND
000497:                                                                                                  #          * +5 FOR MOON  *
000498:                                                                                                  #  RDESIRED* +29 FOR EARTH*DP TERMINAL RADIAL DISTANCE ON CONIC TRAJECTORY FOR WHICH TRANSFER TIME IS TO BE
000499:                                                                                                  #          * +27 FOR MOON *COMPUTED.
000500:                                                                                                  #  SGNRDOT * NONE         *SP TAG SET TO +.5 OR -.5 ACCORDING TO WHETHER THE RADIAL VELOCITY AT RDESIRED IS TO BE
000501:                                                                                                  #          *              *POSITIVE OR NEGATIVE, RESPECTIVELY.  THIS TAG REDUCES THE DOUBLE-VALUED PROBLEM TO A


000503:                                                                                                  #          *              *SINGLE-VALUED PROBLEM.
000504:                                                                                                  #  X1 (38D)* NONE         *INDEX REGISTER TO BE SET TO -2D OR -10D ACCORDING TO WHETHER THE EARTH OR MOON,
000505:                                                                                                  #          *              *RESPECTIVELY, IS THE CENTRAL BODY.
000506:                                                                                                  #  RVSW    * NONE         *AN INTERPRETIVE SWITCH TO BE SET IF ONLY TIME IS TO BE AN OUTPUT, CLEAR IF THE NEW STATE
000507:                                                                                                  #          *              *IS TO BE COMPUTED ALSO.
000508:
000509:
000510:
000511:                                                                                                  #  SUBROUTINES CALLED -
000512:                                                                                                  #       PARAM, GEOM, GETX, DELTIME, NEWSTATE
000513:
000514:
000515:
000516:                                                                                                  #  CALLING SEQUENCE AND NORMAL EXIT MODES -
000517:
000518:                                                                                                  #     IF ONLY TIME IS DESIRED AS OUTPUT -
000519:                                                                                                  #  L        SET    CALL            MUST BE IN INTERPRETIVE MODE BUT OVFIND ARBITRARY.
000520:                                                                                                  #  L+1             RVSW
000521:                                                                                                  #  L+2             TIMERAD         RETURN WITH PL AT 0 AND T IN MPAC
000522:                                                                                                  #  L+3      ...                    CONTINUE
000523:
000524:
000525:                                                                                                  #     IF THE UPDATE STATE VECTOR IS DESIRED AS WELL -
000526:                                                                                                  #  L        CLEAR  CALL            MUST BE IN INTERPRETIVE MODE BUT OVFIND ARBITRARY.
000527:                                                                                                  #  L+1             RVSW
000528:                                                                                                  #  L+2             TIMERAD         RETURNS WITH PL AT 6.  THE INITIAL POSITION VECTOR IS IN 0D OF THE PUSHLIST AND
000529:                                                                                                  #                                  THE INITIAL VELOCITY VECTOR IN MPAC.
000530:                                                                                                  #  L+3      STOVL  NEWVVEC
000531:                                                                                                  #  L+4      STADR
000532:                                                                                                  #  L+5      STORE  NEWRVEC                 NEWVVEC AND NEWRVEC ARE SYMBOLIC REPRESENTATIONS OF THE USERS LOCATIONS.
000533:                                                                                                  #  L+6      ...                            CONTINUE
000534:
000535:
000536:
000537:                                                                                                  #  ABORT EXIT MODES -
000538:                                                                                                  #           IF SOLNSW AND/OR COGAFLAG AND/OR INFINFLG IS SET AT THE EXIT TO TIME-RADIUS, TIME-RADIUS WILL TRANSFER
000539:                                                                                                  #           TO POODOO WITH AN ALARM CODE (ORIGINALLY 00607), AND NOT RETURN TO THE CALLING PROGRAM. (PCR 692 & 721)
000540:
000541:
000542:
000543:                                                                                                  #  OUTPUT -
000544:                                                                                                  #          * SCALE FACTOR *
000545:                                                                                                  #  VARIABLE*IN POWERS OF 2*                         DESCRIPTION AND REMARKS
000546:                                                                                                  #  --------*--------------*                         -----------------------
000547:                                                                                                  #  T (30D) * +28          *DP TRANSFER TIME IN CENTISECONDS
000548:                                                                                                  #  INFINFLG* NONE         *AN INTERPRETIVE SWITCH WHICH IS SET IF RDESIRED AND SGNRDOT REQUIRE CLOSURE THROUGH
000549:                                                                                                  #          *              *INFINITY (NO SOLUTION), CLEAR IF A PHYSICAL SOLUTION IS POSSIBLE.
000550:                                                                                                  #  COGAFLAG* NONE         *AN INTERPRETIVE SWITCH WHICH IS SET IF RESTRICTION 1 HAS BEEN VIOLATED (NO SOLUTION),
000551:                                                                                                  #          *              *CLEAR IF NOT.
000552:                                                                                                  #  APSESW  * NONE         *AN INTERPRETIVE SWITCH WHICH IS SET IF RDESIRED WAS GREATER THAN RADIUS OF APOCENTER OR


000554:                                                                                                  #          *              *LESS THAN RADIUS OF PERICENTER.  THE APOCENTER OR PERICENTER SOLUTION, RESPECTIVELY,
000555:                                                                                                  #          *              *WILL THEN BE RETURNED.  THE SWITCH IS CLEAR IF RDESIRED WAS BETWEEN PERICENTER AND
000556:                                                                                                  #          *              *APOCENTER.
000557:                                                                                                  #  SOLNSW  * NONE         *AN INTERPRETIVE SWITCH WHICH IS SET IF THE CONIC IS SO CLOSE TO A CIRCLE THAT THE TERMIN
000558:                                                                                                  #                         *POINT IS AMBIGUOUS, VIOLATING RESTRICTION 3.  IF ECCENTRICITY IS GREATER THAN 2-TO-THE-
000559:                                                                                                  #                         *MINUS-18, THE SWITCH IS CLEAR.
000560:
000561:
000562:                                                                                                  #  IN ADDITION, IF RVSW IS CLEAR, THE FOLLOWING ARE OUTPUT-
000563:
000564:                                                                                                  #  MPAC -  * +7 FOR EARTH *DP TERMINAL VELOCITY VECTOR IN METERS/CENTISEC.
000565:                                                                                                  #   MPAC +5* +5 FOR MOON  *
000566:                                                                                                  #  0D - 5D * +29 FOR EARTH*DP TERMINAL POSITION VECTOR IN METERS (PL AT 6D)
000567:                                                                                                  #          * +27 FOR MOON *
000568:
000569:                                                                                                  #  FOR OTHER OUTPUT WHICH MAY BE OF USE, SEE DEBRIS.
000570:
000571:
000572:
000573:                                                                                                  #  DEBRIS -
000574:
000575:                                                                                                  #       PARAMETERS WHICH MAY BE OF USE -
000576:
000577:                                                                                                  #          * SCALE FACTOR *
000578:                                                                                                  #  VARIABLE*IN POWERS OF 2*                         DESCRIPTION AND REMARKS
000579:                                                                                                  #  --------*--------------*                         -----------------------
000580:                                                                                                  #  R1 (32D)* +29 FOR EARTH*DP MAGNITUDE OF INITIAL POSITION VECTOR, RVEC, IN METERS
000581:                                                                                                  #          * +27 FOR MOON *
000582:                                                                                                  #  R1A     * +6           *DP RATIO OF R1 TO SEMIMAJOR AXIS (NEG. FOR HYPERBOLIC TRAJECTORIES)
000583:                                                                                                  #  P       * +4           *DP RATIO OF SEMILATUS RECTUM TO R1
000584:                                                                                                  #  COGA    * +5           *DP COTAN OF ANGLE BETWEEN RVEC AND VVEC
000585:                                                                                                  #  UR1     * +1           *DP UNIT VECTOR OF RVEC
000586:                                                                                                  #  U2      * +1           *DP UNIT VECTOR OF VVEC
000587:                                                                                                  #  UN      * +1           *DP UNIT VECTOR OF UR1*U2
000588:                                                                                                  #  CSTH    * +1           *DP COSINE OF TRUE ANOMALY DIFFERENCE BETWEEN RVEC AND RDESIRED.
000589:                                                                                                  #  SNTH    * +1           *DP SINE OF TRUE ANOMALY DIFFERENCE.
000590:
000591:
000592:                                                                                                  #       PARAMETERS OF NO USE -
000593:                                                                                                  #  SP PARAMETERS -  RTNTT, GEOMSGN, RTNPRM, MAGVEC2=R2 (DP), PLUS PUSHLIST LOCATIONS 0-11D, 14D-21D, 24D-39D, 41D
000594:                                                                                                  #  ADDITIONAL INTERPRETIVE SWITCHES USED - NORMSW, 360SW
000595:
000596:


000598:                                                                                                  #  PROGRAM DESCRIPTION - APSIDES SUBROUTINE                                        DATE - 1 SEPTEMBER 1967
000599:                                                                                                  #  MOD NO. - 0                                                                     LOG SECTION - CONIC SUBROUTINES
000600:                                                                                                  #  MOD BY KRAUSE                                                                   ASSEMBLY - COLOSSUS REVISION 88
000601:
000602:
000603:
000604:                                                                                                  #  FUNCTIONAL DESCRIPTION -
000605:
000606:                                                                                                  #       THIS SUBROUTINE, GIVEN AN INITIAL STATE VECTOR CALCULATES THE RADIUS OF PERICENTER AND OF APOCENTER AND THE
000607:                                                                                                  #  ECCENTRICITY OF THE RESULTING CONIC TRAJECTORY, WHICH MAY BE A STRAIGHT LINE,
000608:                                                                                                  #  CIRCLE, ELLIPSE, PARABOLA, OR HYPERBOLA WITH RESPECT TO THE EARTH OR THE MOON.  THE USE OF THE SUBROUTINE CAN BE
000609:                                                                                                  #  EXTENDED USING OTHER PRIMARY BODIES BY SIMPLE ADDITIONS TO THE MUTABLE WITHOUT INTRODUCING ANY CODING CHANGES,
000610:                                                                                                  #  ACCEPTING THE INHERENT SCALE FACTOR CHANGES IN POSITION AND VELOCITY.
000611:
000612:
000613:                                                                                                  #  THE RESTRICTIONS ARE -
000614:                                                                                                  #       1.  IF APOCENTER IS BEYOND THE SCALING OF POSITION, THE SCALE FACTOR LIMIT (536,870,910 METERS WITH RESPECT
000615:                                                                                                  #  TO THE EARTH OR 134,217,727.5 METERS WITH RESPECT TO THE MOON) WILL BE RETURNED.
000616:                                                                                                  #       2. THE PARAMETERS IN THE PROBLEM MUST NOT EXCEED THEIR SCALING LIMITS SPECIFIED IN THE GSOP.  IF THE LIMITS
000617:                                                                                                  #  ARE EXCEEDED, THE RESULTING SOLUTION WILL BE MEANINGLESS.
000618:
000619:                                                                                                  #       THE AGC COMPUTATION TIME IS APPROXIMATELY .103 SECONDS.
000620:
000621:
000622:
000623:                                                                                                  #  REFERENCES -
000624:                                                                                                  #       MISSION PROGRAMMING DEFINITION MEMO NO. 10, LUNAR LANDING MISSION GSOP-SECTION 5.5
000625:
000626:
000627:
000628:                                                                                                  #  INPUT - ERASABLE INITIALIZATION REQUIRED
000629:
000630:                                                                                                  #          * SCALE FACTOR *
000631:                                                                                                  #  VARIABLE*IN POWERS OF 2*                         DESCRIPTION AND REMARKS
000632:                                                                                                  #  --------*--------------*                         -----------------------
000633:                                                                                                  #  RVEC    * +29 FOR EARTH*DP INITIAL POSITION VECTOR IN METERS
000634:                                                                                                  #          * +27 FOR MOON *
000635:                                                                                                  #  VVEC    * +7 FOR EARTH *DP INITIAL VELOCITY VECTOR IN METERS/CENTISECOND
000636:                                                                                                  #          * +5 FOR MOON  *
000637:                                                                                                  #  X1 (38D)*NONE          *INDEX REGISTER TO BE SET TO -2D OR -10D ACCORDING TO WHETHER THE EARTH OR MOON,
000638:                                                                                                  #          *              *RESPECTIVELY, IS THE CENTRAL BODY.
000639:
000640:
000641:
000642:                                                                                                  #  SUBROUTINES CALLED -
000643:                                                                                                  #       PARAM, GEOM
000644:
000645:
000646:
000647:                                                                                                  #  CALLING SEQUENCE AND NORMAL EXIT MODES -


000649:                                                                                                  #     IF ONLY TIME IS DESIRED AS OUTPUT -
000650:                                                                                                  #  L        CALL                   MUST BE IN INTERPRETIVE MODE BUT OVFIND ARBITRARY.
000651:                                                                                                  #  L+1             APSIDES         RETURNS WITH PL AT 0, RADIUS OF APOCENTER IN MPAC AND RADIUS OF PERICENTER IN 0D
000652:                                                                                                  #  L+2      STODL  APOAPSE
000653:                                                                                                  #  L+3             0D
000654:                                                                                                  #  L+4      STORE  PERIAPSE                APOAPSE AND PERIAPSE ARE SYMBOLIC REPRESENTATIONS OF THE USERS LOCATIONS
000655:                                                                                                  #  L+5      ...                    CONTINUE
000656:
000657:
000658:
000659:                                                                                                  #  OUTPUT -
000660:                                                                                                  #          * SCALE FACTOR *
000661:                                                                                                  #  VARIABLE*IN POWERS OF 2*                         DESCRIPTION AND REMARKS
000662:                                                                                                  #  --------*--------------*                         -----------------------
000663:                                                                                                  #  MPAC    * +29 FOR EARTH*DP RADIUS OF APOCENTER IN METERS
000664:                                                                                                  #          * +27 FOR MOON *
000665:                                                                                                  #  0D-1D   * +29 FOR EARTH*DP RADIUS OF PERICENTER IN METERS
000666:                                                                                                  #          * +27 FOR MOON *
000667:                                                                                                  #  ECC     * +3           *DP ECCENTRICITY OF CONIC TRAJECTORY.
000668:
000669:                                                                                                  #  FOR OTHER OUTPUT WHICH MAY BE OF USE, SEE DEBRIS.
000670:
000671:
000672:
000673:                                                                                                  #  DEBRIS -
000674:
000675:                                                                                                  #       PARAMETERS WHICH MAY BE OF USE -
000676:
000677:                                                                                                  #          * SCALE FACTOR *
000678:                                                                                                  #  VARIABLE*IN POWERS OF 2*                         DESCRIPTION AND REMARKS
000679:                                                                                                  #  --------*--------------*                         -----------------------
000680:                                                                                                  #  R1 (32D)* +29 FOR EARTH*DP MAGNITUDE OF INITIAL POSITION VECTOR, RVEC, IN METERS
000681:                                                                                                  #          * +27 FOR MOON *
000682:                                                                                                  #  R1A     * +6           *DP RATIO OF R1 TO SEMIMAJOR AXIS (NEG. FOR HYPERBOLIC TRAJECTORIES)
000683:                                                                                                  #  P       * +4           *DP RATIO OF SEMILATUS RECTUM TO R1
000684:                                                                                                  #  COGA    * +5           *DP COTAN OF ANGLE BETWEEN RVEC AND VVEC
000685:                                                                                                  #  UR1     * +1           *DP UNIT VECTOR OF RVEC
000686:                                                                                                  #  U2      * +1           *DP UNIT VECTOR OF VVEC
000687:                                                                                                  #  UN      * +1           *DP UNIT VECTOR OF UR1*U2
000688:                                                                                                  #  MAGVEC2 * +7 FOR EARTH *DP MAGNITUDE OF VVEC
000689:                                                                                                  #          * +5 FOR MOON  *
000690:
000691:
000692:                                                                                                  #       PARAMETERS OF NO USE -
000693:                                                                                                  #  SP PARAMETERS - RTNAPSE, GEOMSGN, RTNPRM, PLUS PUSHLIST LOCATIONS 0-5,10D-11D, 14D-21D, 31D-38D.
000694:                                                                                                  #  ADDITIONAL INTERPRETIVE SWITCHES USED - NORMSW
000695:
000696:
000697:
000698: 12,2000                                           SETLOC   CONICS


000700: 12,2000                                           BANK
000701:
000702: 12,2023                                           COUNT*   $$/CONIC
000703: 12,2023  E5,1721                                  EBANK=   UR1
000704: 12,2023           40001        KEPLERN            SETPD    BOV
000705: 12,2024           00001                                    0
000706: 12,2025           24026                                    +1
000707: 12,2026           77773                           VLOAD*
000708: 12,2027           10005                                    MUTABLE,1
000709: 12,2030           24017                           STOVL    14D
000710: 12,2031           01503                                    RRECT
000711: 12,2032           66256                           UNIT     SSP
000712: 12,2033           00027                                    ITERCTR
000713: 12,2034           00024                                    20D
000714: 12,2035           16647                           STODL    URRECT
000715: 12,2036           00045                                    36D
000716: 12,2037           24041                           STOVL    R1
000717: 12,2040           01503                                    RRECT
000718: 12,2041           76441                           DOT      SL1R
000719: 12,2042           01511                                    VRECT
000720: 12,2043           76405                           DMP      SL1R
000721: 12,2044           00023                                    1/ROOTMU                              #  1/ROOTMU (-17 OR -14)
000722: 12,2045           24043                           STOVL    KEPC1                                 #  C1=R.V/ROOTMU (+17 OR +16)
000723:
000724: 12,2046           01511                                    VRECT
000725: 12,2047           57236                           VSQ      DMPR
000726: 12,2050           00017                                    1/MU                                  #  1/MU (-34 OR -28)
000727: 12,2051           52405                           DMP      SL3
000728: 12,2052           00041                                    R1
000729: 12,2053           61425                           DSU      ROUND
000730: 12,2054           11036                                    D1/64
000731: 12,2055           00045                           STORE    KEPC2                                 #  C2=RV.V/MU -1 (+6)
000732:
000733: 12,2056           74421                           BDSU     SR1R
000734: 12,2057           11036                                    D1/64
000735: 12,2060           77671                           DDV
000736: 12,2061           00041                                    R1
000737: 12,2062           00011                           STORE    ALPHA                                 #  ALPHA=(1-C2)/R1 (-22 OR -20)
000738:
000739:
000740: 12,2063           71244                           BPL      DLOAD                                 #  MAXIMUM X DEPENDS ON TYPE OF CONIC
000741: 12,2064           24073                                    1REV
000742: 12,2065           11054                                    -50SC                                 #  -50SC (+12)
000743: 12,2066           40071                           DDV      BOV
000744: 12,2067           00011                                    ALPHA
000745: 12,2070           24077                                    STOREMAX
000746: 12,2071           52166                           SQRT     GOTO
000747: 12,2072           24077                                    STOREMAX
000748:
000749: 12,2073           55366        1REV               SQRT     BDDV


000751: 12,2074           11056                                    2PISC                                 #  2PISC (+6)
000752: 12,2075           77600                           BOV
000753: 12,2076           24077                                    STOREMAX
000754: 12,2077           00013        STOREMAX           STORE    XMAX
000755: 12,2100           65205                           DMP      PDDL
000756: 12,2101           00023                                    1/ROOTMU
000757: 12,2102           00011                                    ALPHA
000758: 12,2103           65301                           NORM     PDDL
000759: 12,2104           00047                                    X1
000760: 12,2105           56257                           SL*      DDV
000761: 12,2106           20173                                    0          -6,1
000762: 12,2107           50000                           BOV      BMN
000763: 12,2110           24124                                    MODDONE
000764: 12,2111           24124                                    MODDONE                               #  MPAC=PERIOD
000765: 12,2112           51525        PERIODCH           PDDL     ABS                                   #  0D=PERIOD
000766: 12,2113           02074                                    TAU.
000767: 12,2114           50025                           DSU      BMN
000768: 12,2115           00001                                    0D
000769: 12,2116           24124                                    MODDONE
000770: 12,2117           77765                           SIGN
000771: 12,2120           02074                                    TAU.
000772: 12,2121           16074                           STODL    TAU.
000773: 12,2122           77650                           GOTO
000774: 12,2123           24112                                    PERIODCH
000775: 12,2124           71201        MODDONE            SETPD    DLOAD
000776: 12,2125           00001                                    0
000777: 12,2126           02121                                    XKEPNEW
000778: 12,2127           00025                           STORE    X
000779: 12,2130           53165                           SIGN     BZE
000780: 12,2131           02074                                    TAU.
000781: 12,2132           24302                                    BADX
000782: 12,2133           51440                           BMN      ABS
000783: 12,2134           24302                                    BADX
000784: 12,2135           51025                           DSU      BPL
000785: 12,2136           00013                                    XMAX
000786: 12,2137           24302                                    BADX
000787: 12,2140           51145        STORBNDS           DLOAD    BPL
000788: 12,2141           02074                                    TAU.
000789: 12,2142           24152                                    STOREMIN
000790: 12,2143           57545                           DLOAD    DCOMP
000791: 12,2144           00013                                    XMAX
000792: 12,2145           14015                           STODL    XMIN
000793: 12,2146           24007                                    KEPZERO
000794: 12,2147           00013                           STORE    XMAX
000795: 12,2150           77650                           GOTO
000796: 12,2151           24155                                    DXCOMP
000797: 12,2152           77745        STOREMIN           DLOAD
000798: 12,2153           24007                                    KEPZERO
000799: 12,2154           00015                           STORE    XMIN
000800: 12,2155           57345        DXCOMP             DLOAD    DMPR


000802: 12,2156           02074                                    TAU.
000803: 12,2157           11047                                    BEE22
000804: 12,2160           77646                           ABS
000805: 12,2161           16170                           STODL    EPSILONT
000806: 12,2162           01553                                    XPREV
000807: 12,2163           77621        XDIFF              BDSU
000808: 12,2164           00025                                    X
000809: 12,2165           02643                           STORE    DELX
000810:
000811:
000812: 12,2166           63545        KEPLOOP            DLOAD    DSQ
000813: 12,2167           00025                                    X                                     #  X=XKEP
000814: 12,2170           41501                           NORM     PUSH                                  #  0D=XSQ (+34 OR +32 -N1)      PL AT 2
000815: 12,2171           00047                                    X1
000816: 12,2172           53605                           DMP      SRR*
000817: 12,2173           00011                                    ALPHA
000818: 12,2174           21573                                    0          -6,1
000819: 12,2175           34031                           STCALL   XI                                    #  XI=ALPHA XSQ (+6)
000820: 12,2176           24421                                    DELTIME
000821: 12,2177           44200                           BOV      BDSU
000822: 12,2200           24311                                    TIMEOVFL                              #  UNLIKELY
000823: 12,2201           02074                                    TAU.
000824: 12,2202           02645                           STORE    DELT                                  #  DELT=DELINDEP
000825: 12,2203           44246                           ABS      BDSU
000826: 12,2204           02170                                    EPSILONT
000827: 12,2205           71244                           BPL      DLOAD
000828: 12,2206           24333                                    KEPCONVG
000829: 12,2207           00037                                    T
000830: 12,2210           60225                           DSU      NORM
000831: 12,2211           01551                                    TC
000832: 12,2212           00047                                    X1
000833: 12,2213           60325                           PDDL     NORM
000834: 12,2214           02643                                    DELX
000835: 12,2215           00050                                    X2
000836: 12,2216           41260                           XSU,1    DMP
000837: 12,2217           00047                                    X2
000838: 12,2220           02645                                    DELT
000839: 12,2221           56257                           SLR*     DDV
000840: 12,2222           21202                                    1,1
000841: 12,2223           41542                           SR1      PUSH                                  #  0D=TRIAL DELX                PL AT 2
000842: 12,2224           71244                           BPL      DLOAD
000843: 12,2225           24246                                    POSDELX
000844: 12,2226           00025                                    X
000845: 12,2227           00013                           STORE    XMAX                                  #  MOVE MAX BOUND IN
000846: 12,2230           45221                           BDSU     DSU                                   #                               PL AT 0
000847: 12,2231           00015                                    XMIN
000848: 12,2232           51000                           BOV      BPL
000849: 12,2233           24240                                    NDXCHNGE
000850: 12,2234           24240                                    NDXCHNGE
000851: 12,2235           52145                           DLOAD    GOTO


000853: 12,2236           00001                                    0D
000854: 12,2237           24260                                    NEWDELX
000855:
000856:
000857: 12,2240           45345        NDXCHNGE           DLOAD    DSU
000858: 12,2241           00015                                    XMIN
000859: 12,2242           00025                                    X
000860: 12,2243           52075                           DMPR     GOTO                                  #  TO FORCE MPAC +2 TO ZERO
000861: 12,2244           11052                                    DP9/10
000862: 12,2245           24260                                    NEWDELX
000863:
000864:
000865: 12,2246           77745        POSDELX            DLOAD
000866: 12,2247           00025                                    X
000867: 12,2250           00015                           STORE    XMIN                                  #  MOVE MIN BOUND IN
000868: 12,2251           45221                           BDSU     DSU                                   #                               PL AT 0
000869: 12,2252           00013                                    XMAX
000870: 12,2253           50000                           BOV      BMN
000871: 12,2254           24274                                    PDXCHNGE
000872: 12,2255           24274                                    PDXCHNGE
000873: 12,2256           77745                           DLOAD
000874: 12,2257           00001                                    0D
000875: 12,2260           02643        NEWDELX            STORE    DELX
000876: 12,2261           43254                           BZE      DAD
000877: 12,2262           24333                                    KEPCONVG
000878: 12,2263           00025                                    X
000879: 12,2264           14025                           STODL    X
000880: 12,2265           00037                                    T
000881: 12,2266           01551                           STORE    TC
000882: 12,2267           46034        BRNCHCTR           RTB      BHIZ
000883: 12,2270           24644                                    CHECKCTR
000884: 12,2271           24333                                    KEPCONVG
000885: 12,2272           77650                           GOTO
000886: 12,2273           24166                                    KEPLOOP                               #  ITERATE
000887:
000888:
000889: 12,2274           45345        PDXCHNGE           DLOAD    DSU
000890: 12,2275           00013                                    XMAX
000891: 12,2276           00025                                    X
000892: 12,2277           52075                           DMPR     GOTO                                  #  TO FORCE MPAC +2 TO ZERO
000893: 12,2300           11052                                    DP9/10
000894: 12,2301           24260                                    NEWDELX
000895:
000896:
000897: 12,2302           70545        BADX               DLOAD    SR1
000898: 12,2303           00013                                    XMAX
000899: 12,2304           77765                           SIGN
000900: 12,2305           02074                                    TAU.
000901: 12,2306           00025                           STORE    X
000902: 12,2307           77650                           GOTO


000904: 12,2310           24140                                    STORBNDS
000905: 12,2311           50145        TIMEOVFL           DLOAD    BMN                                   #  X WAS TOO BIG
000906: 12,2312           00025                                    X
000907: 12,2313           24330                                    NEGTOVFL
000908: 12,2314           00013                           STORE    XMAX
000909: 12,2315           70545        CMNTOVFL           DLOAD    SR1
000910: 12,2316           02643                                    DELX
000911: 12,2317           02643                           STORE    DELX
000912: 12,2320           44254                           BZE      BDSU
000913: 12,2321           02111                                    KEPRTN
000914: 12,2322           00025                                    X
000915: 12,2323           14025                           STODL    X
000916: 12,2324           01551                                    TC
000917: 12,2325           00037                           STORE    T
000918: 12,2326           77650                           GOTO
000919: 12,2327           24267                                    BRNCHCTR
000920: 12,2330           00015        NEGTOVFL           STORE    XMIN
000921: 12,2331           77650                           GOTO
000922: 12,2332           24315                                    CMNTOVFL
000923: 12,2333           44545        KEPCONVG           DLOAD    SR4R
000924: 12,2334           00041                                    R1
000925: 12,2335           74225                           DSU      VXSC
000926: 12,2336           00035                                    XSQC(XI)
000927: 12,2337           02647                                    URRECT
000928: 12,2340           65372                           VSL1     PDDL                                  #  0D=(R1-XSQC(XI))URRECT (+33 OR +31)
000929: 12,2341           00025                                    X
000930: 12,2342           60316                           DSQ      NORM
000931: 12,2343           00047                                    X1
000932: 12,2344           57275                           DMPR     DMPR
000933: 12,2345           00023                                    1/ROOTMU
000934: 12,2346           00025                                    X
000935: 12,2347           53605                           DMP      SRR*
000936: 12,2350           00033                                    S(XI)
000937: 12,2351           21572                                    0          -7,1
000938: 12,2352           77621                           BDSU
000939: 12,2353           00037                                    T
000940: 12,2354           74352                           SL1      VXSC
000941: 12,2355           01511                                    VRECT
000942: 12,2356           53372                           VSL1     VAD                                   #                               PL AT 0
000943: 12,2357           77712                           VSL4
000944: 12,2360           01535                           STORE    RCV                                   #  RCV (+29 OR +27)
000945:
000946:
000947: 12,2361           60246                           ABVAL    NORM
000948: 12,2362           00050                                    X2
000949: 12,2363           14043                           STODL    RCNORM
000950: 12,2364           00031                                    XI
000951: 12,2365           45275                           DMPR     DSU
000952: 12,2366           00033                                    S(XI)
000953: 12,2367           11034                                    D1/128


000955: 12,2370           76405                           DMP      SL1R
000956: 12,2371           00021                                    ROOTMU
000957: 12,2372           53605                           DMP      SLR*
000958: 12,2373           00025                                    X
000959: 12,2374           56601                                    0          -3,2
000960: 12,2375           74271                           DDV      VXSC
000961: 12,2376           00043                                    RCNORM
000962: 12,2377           02647                                    URRECT
000963: 12,2400           65372                           VSL1     PDDL                                  #  0D=URRECT(XI S(XI)-1)X ROOTMU/RCV (+15
000964: 12,2401           00035                                    XSQC(XI)                              #  OR +13)                        PL AT 6
000965: 12,2402           56257                           SLR*     DDV
000966: 12,2403           56602                                    0          -4,2
000967: 12,2404           00043                                    RCNORM
000968: 12,2405           74221                           BDSU     VXSC
000969: 12,2406           11050                                    D1/256
000970: 12,2407           01511                                    VRECT
000971: 12,2410           42455                           VAD      VSL8                                  #                               PL AT 0
000972: 12,2411           77626                           STADR
000973: 12,2412           62234                           STODL    VCV                                   #  VCV (+7 OR +5)
000974: 12,2413           00037                                    T
000975: 12,2414           15551                           STODL    TC
000976: 12,2415           00025                                    X
000977: 12,2416           01553                           STORE    XPREV
000978: 12,2417           77650                           GOTO
000979: 12,2420           02111                                    KEPRTN
000980:


000982: 12,2421           77776        DELTIME            EXIT                                           #  MPAC=XI (+6), 0D=XSQ (+34 OR +32 -N1)
000983: 12,2422           07243                           TC       POLY
000984: 12,2423           00010                           DEC      8          B-14
000985: 12,2424           02525 12526                     2DEC     .083333334
000986:
000987: 12,2426           67356 75666                     2DEC     -.266666684
000988:
000989: 12,2430           15001 23771                     2DEC     .406349155
000990:
000991: 12,2432           64342 43674                     2DEC     -.361198675
000992:
000993: 12,2434           06563 04645                     2DEC     .210153242
000994:
000995: 12,2436           75173 52672                     2DEC     -.086221951
000996:
000997: 12,2440           00656 14331                     2DEC     .026268812
000998:
000999: 12,2442           77633 40512                     2DEC     -.006163316
001000:
001001: 12,2444           00023 11210                     2DEC     .001177342
001002:
001003: 12,2446           77774 67506                     2DEC     -.000199055
001004:
001005: 12,2450           06060                           TC       INTPRET
001006: 12,2451           14033                           STODL    S(XI)
001007: 12,2452           00031                                    XI
001008: 12,2453           77776                           EXIT
001009: 12,2454           07243                           TC       POLY
001010: 12,2455           00010                           DEC      8          B-14
001011: 12,2456           01000 00000                     2DEC     .031250001
001012:
001013: 12,2460           72525 52506                     2DEC     -.166666719
001014:
001015: 12,2462           13301 15337                     2DEC     .355555413
001016:
001017: 12,2464           62776 54733                     2DEC     -.406347410
001018:
001019: 12,2466           11176 13267                     2DEC     .288962094
001020:
001021: 12,2470           73410 51674                     2DEC     -.140117894
001022:
001023: 12,2472           01446 33641                     2DEC     .049247387
001024:
001025: 12,2474           77451 65233                     2DEC     -.013081923
001026:
001027: 12,2476           00055 37266                     2DEC     .002806389
001028:
001029: 12,2500           77767 52336                     2DEC     -.000529414
001030:
001031: 12,2502           06060                           TC       INTPRET


001033: 12,2503           53605                           DMP      SRR*                                  #                               PL AT 0
001034: 12,2504           00001                                    0D
001035: 12,2505           21574                                    0          -5,1
001036: 12,2506           00035                           STORE    XSQC(XI)                              #  XSQC(XI) (+33 OR +31)
001037: 12,2507           72405                           DMP      SL1
001038: 12,2510           00043                                    KEPC1
001039: 12,2511           65234                           RTB      PDDL                                  #  XCH WITH PL. 0D=C1 XSQ C(XI) (+49 OR +46
001040: 12,2512           21643                                    TPMODE                                #                               PL AT 0,3
001041: 12,2513           53605                           DMP      SRR*
001042: 12,2514           00033                                    S(XI)
001043: 12,2515           21574                                    0          -5,1
001044: 12,2516           72405                           DMP      SL1
001045: 12,2517           00045                                    KEPC2
001046: 12,2520           65234                           RTB      PDDL                                  #  3D=C2 XSQ S(XI) (+35 OR +33)  PL AT 6
001047: 12,2521           21643                                    TPMODE
001048: 12,2522           00041                                    R1
001049: 12,2523           76261                           SR       TAD                                   #                               PL AT 3
001050: 12,2524           20607                                    6
001051: 12,2525           41301                           NORM     DMP                                   #  TO PRESERVE SIGNIF.
001052: 12,2526           00047                                    X1
001053: 12,2527           00025                                    X
001054: 12,2530           76257                           SR*      TAD                                   #  X(C2 XSQ S(XI) +R1) (+49 OR +46) PL AT 0
001055: 12,2531           20576                                    0          -3,1
001056: 12,2532           57232                           SL4R     DMPR
001057: 12,2533           00023                                    1/ROOTMU
001058: 12,2534           00037                           STORE    T
001059: 12,2535           77616                           RVQ
001060:


001062: 12,2536           71214        ITERATOR           BONCLR   DLOAD
001063: 12,2537           00614                                    SLOPESW
001064: 12,2540           24606                                    FIRSTIME
001065: 12,2541           00037                                    DEP
001066: 12,2542           60225                           DSU      NORM
001067: 12,2543           02762                                    DEPREV
001068: 12,2544           00047                                    X1
001069: 12,2545           60325                           PDDL     NORM
001070: 12,2546           00015                                    DELINDEP
001071: 12,2547           00050                                    X2
001072: 12,2550           41260                           XSU,1    DMP
001073: 12,2551           00047                                    X2
001074: 12,2552           02760                                    DELDEP
001075: 12,2553           56257                           SLR*     DDV                                   #                               PL UP 2
001076: 12,2554           21202                                    1,1
001077: 12,2555           43142                           SR1      BOFF
001078: 12,2556           04351                                    ORDERSW
001079: 12,2557           24562                                    SGNCHECK
001080: 12,2560           75246                           ABS      SIGN                                  #  IN CASE 2ND DERIV. CHANGED SIGN, MUST
001081: 12,2561           02760                                    DELDEP                                #  DISREGARD IT TO FIND MIN.
001082:
001083: 12,2562           51006        SGNCHECK           PUSH     BPL                                   #  TRIAL DELINDEP               PL DOWN 2
001084: 12,2563           24620                                    POSDEL
001085: 12,2564           43145                           DLOAD    BON
001086: 12,2565           02766                                    INDEP
001087: 12,2566           04311                                    ORDERSW
001088: 12,2567           24571                                    MINCHECK
001089: 12,2570           00017                           STORE    MAX                                   #  IF NOT 2ND ORDER, CAN MOVE MAX BOUND IN.
001090:
001091: 12,2571           45221        MINCHECK           BDSU     DSU
001092: 12,2572           00011                                    MIN
001093: 12,2573           51000                           BOV      BPL
001094: 12,2574           24600                                    MODNGDEL
001095: 12,2575           24600                                    MODNGDEL
001096: 12,2576           77650                           GOTO
001097: 12,2577           24632                                    DELOK
001098:
001099:
001100: 12,2600           45345        MODNGDEL           DLOAD    DSU                                   #  TRIAL DELINDEP WOULD EXCEED MIN BOUND
001101: 12,2601           00011                                    MIN
001102: 12,2602           02766                                    INDEP
001103: 12,2603           52005                           DMP      GOTO
001104: 12,2604           11052                                    DP9/10
001105: 12,2605           24634                                    NEWDEL
001106:
001107:
001108: 12,2606           41345        FIRSTIME           DLOAD    DMP
001109: 12,2607           00011                                    MIN
001110: 12,2610           00051                                    TWEEKIT                               #  DLOAD TWEEKIT(40D) SENSITIVE TO CHANGE.
001111: 12,2611           41325                           PDDL     DMP                                   #  S2(41D) SHOULDNT CONTAIN HI ORDER ONES


001113: 12,2612           00017                                    MAX
001114: 12,2613           00051                                    TWEEKIT
001115: 12,2614           77625                           DSU
001116: 12,2615           52165                           SIGN     GOTO
001117: 12,2616           02760                                    DELDEP
001118: 12,2617           24562                                    SGNCHECK
001119:
001120:
001121: 12,2620           43145        POSDEL             DLOAD    BON
001122: 12,2621           02766                                    INDEP
001123: 12,2622           04311                                    ORDERSW
001124: 12,2623           24625                                    MAXCHECK
001125: 12,2624           00011                           STORE    MIN                                   #  IF NOT 2ND ORDER, CAN MOVE MIN BOUND IN.
001126:
001127: 12,2625           45221        MAXCHECK           BDSU     DSU
001128: 12,2626           00017                                    MAX
001129: 12,2627           50000                           BOV      BMN
001130: 12,2630           24636                                    MODPSDEL
001131: 12,2631           24636                                    MODPSDEL
001132: 12,2632           77745        DELOK              DLOAD
001133: 12,2633           00001                                    0D
001134: 12,2634           00015        NEWDEL             STORE    DELINDEP
001135: 12,2635           77616                           RVQ
001136:
001137:
001138: 12,2636           45345        MODPSDEL           DLOAD    DSU
001139: 12,2637           00017                                    MAX
001140: 12,2640           02766                                    INDEP
001141: 12,2641           52005                           DMP      GOTO
001142: 12,2642           11052                                    DP9/10
001143: 12,2643           24634                                    NEWDEL
001144:
001145:
001146: 12,2644           44744        CHECKCTR           CS       ONE
001147: 12,2645           50120                           INDEX    FIXLOC
001148: 12,2646           60026                           AD       ITERCTR
001149: 12,2647           50120                           INDEX    FIXLOC
001150: 12,2650           54026                           TS       ITERCTR
001151: 12,2651           54154                           TS       MPAC
001152: 12,2652           06102                           TC       DANZIG
001153:


001155: 12,2653           44545        NEWSTATE           DLOAD    SR4R
001156: 12,2654           00041                                    R1
001157: 12,2655           74225                           DSU      VXSC
001158: 12,2656           00035                                    XSQC(XI)
001159: 12,2657           02722                                    UR1
001160: 12,2660           65372                           VSL1     PDDL                                  #  0D=(R1-XSQC(XI))UR1 (+33 OR 31) PL AT 6
001161: 12,2661           00025                                    X
001162: 12,2662           60316                           DSQ      NORM
001163: 12,2663           00047                                    X1
001164: 12,2664           57275                           DMPR     DMPR
001165: 12,2665           00023                                    1/ROOTMU
001166: 12,2666           00025                                    X
001167: 12,2667           53605                           DMP      SRR*
001168: 12,2670           00033                                    S(XI)
001169: 12,2671           21572                                    0          -7,1
001170: 12,2672           77621                           BDSU
001171: 12,2673           00037                                    T
001172: 12,2674           74352                           SL1      VXSC
001173: 12,2675           02744                                    VVEC
001174: 12,2676           53372                           VSL1     VAD                                   #                               PL AT 0
001175: 12,2677           41512                           VSL4     PUSH
001176: 12,2700           77646                           ABVAL
001177: 12,2701           77701        LAMENTER           NORM
001178: 12,2702           00047                                    X1
001179: 12,2703           16720                           STODL    R2
001180: 12,2704           00031                                    XI
001181: 12,2705           45205                           DMP      DSU
001182: 12,2706           00033                                    S(XI)
001183: 12,2707           11034                                    D1/128
001184: 12,2710           76405                           DMP      SL1R
001185: 12,2711           00021                                    ROOTMU
001186: 12,2712           53605                           DMP      SLR*
001187: 12,2713           00025                                    X
001188: 12,2714           21176                                    0          -3,1
001189: 12,2715           74271                           DDV      VXSC
001190: 12,2716           02720                                    R2
001191: 12,2717           02722                                    UR1
001192: 12,2720           65372                           VSL1     PDDL                                  #  6D=V2VEC PART (+15 OR 13)       PL AT 12
001193: 12,2721           00035                                    XSQC(XI)
001194: 12,2722           56257                           SLR*     DDV
001195: 12,2723           21175                                    0          -4,1
001196: 12,2724           02720                                    R2
001197: 12,2725           77621                           BDSU
001198: 12,2726           11050                                    D1/256
001199: 12,2727           53361                           VXSC     VAD
001200: 12,2730           02744                                    VVEC                                  #                               PL AT 6
001201: 12,2731           43412                           VSL8     RVQ
001202:


001204: 04,2000                                           SETLOC   CONICS1
001205: 04,2000                                           BANK
001206:
001207: 04,3030                                           COUNT*   $$/CONIC
001208:                                                                                                  #  DO NOT DISTURB THE ORDER OF THESE CDS, OVERLAYS HAVE BEEN MADE.
001209: 04,3030           00000        BEE17              DEC      0          B-14                       #  KEEP WITH D1/8 2DEC 1.0B-17 (0000004000)
001210: 04,3031           04000 00000  D1/8               2DEC     1.0        B-3
001211:
001212: 04,3033           00200 00000  D1/128             2DEC     1.0        B-7
001213:
001214: 04,3035           00400 00000  D1/64              2DEC     1.0        B-6
001215:
001216: 04,3037           10000 00000  D1/4               2DEC     1.0        B-2
001217:
001218: 04,3041           02000 00000  D1/16              2DEC     1.0        B-4
001219:
001220: 04,3043           01000 00000  D1/32              2DEC     1.0        B-5
001221:
001222: 04,3045           00020 00000  D1/1024            2DEC     1.0        B-10
001223:
001224: 04,3047           00100 00000  D1/256             2DEC     1.0        B-8
001225:
001226: 04,3051           34631 23146  DP9/10             2DEC     .9
001227:
001228: 04,3053  12,2006               KEPZERO            EQUALS   LO6ZEROS
001229: 04,3053           77467 77777  -50SC              2DEC     -50.0      B-12
001230:
001231: 04,3055           03110 17665  2PISC              2DEC     6.28318530 B-6
001232:
001233: 04,3057  04,3042               BEE19              EQUALS   D1/32      -1                         #  2DEC 1.0 B-19 (00000 01000)
001234: 04,3057  04,3046               BEE22              EQUALS   D1/256     -1                         #  2DEC 1.0 B-22 (00000 00100)
001235: 04,3057           00000 00001  ONEBIT             2DEC     1.0        B-28
001236:
001237: 04,3061           37767 37737  COGUPLIM           2DEC     .999511597
001238:
001239: 04,3063           40010 40040  COGLOLIM           2DEC     -.999511597
001240:
001241:


001243: 12,2000                                           SETLOC   CONICS
001244: 12,2000                                           BANK
001245:
001246: 12,2732                                           COUNT*   $$/CONIC
001247: 12,2732           40220        TIMETHET           STQ      SETPD                                 #                               PL AT 0
001248: 12,2733           02710                                    RTNTT
001249: 12,2734           00001                                    0
001250: 12,2735           77600                           BOV
001251: 12,2736           24737                                    +1
001252: 12,2737           63375                           VLOAD    PDVL                                  #  SETUP FOR PARAM CALL         PL AT 6
001253: 12,2740           02655                                    RVEC
001254: 12,2741           02744                                    VVEC
001255: 12,2742           77624                           CALL
001256: 12,2743           11065                                    PARAM
001257: 12,2744           45000                           BOV      CALL
001258: 12,2745           24764                                    COGAOVFL                              #                               PL AT 0
001259: 12,2746           24767                                    GETX
001260: 12,2747           43145        COMMNOUT           DLOAD    BON
001261: 12,2750           00031                                    XI
001262: 12,2751           04310                                    INFINFLG
001263: 12,2752           25752                                    ABTCONIC
001264: 12,2753           45014                           CLEAR    CALL
001265: 12,2754           04273                                    COGAFLAG
001266: 12,2755           24421                                    DELTIME
001267: 12,2756           45014                           BON      CALL
001268: 12,2757           03706                                    RVSW
001269: 12,2760           02710                                    RTNTT
001270: 12,2761           24653                                    NEWSTATE
001271: 12,2762           77650                           GOTO
001272: 12,2763           02710                                    RTNTT
001273:
001274:
001275: 12,2764           77614        COGAOVFL           SETGO
001276: 12,2765           04033                                    COGAFLAG
001277: 12,2766           25752                                    ABTCONIC
001278: 04,3065                                           BANK     4
001279: 04,2000                                           SETLOC   CONICS1
001280: 04,2000                                           BANK
001281: 04,3065                                           COUNT*   $$/CONIC
001282: 04,3065           43020        PARAM              STQ      CLEAR                                 #  MPAC=V1VEC, 0D=R1VEC         PL AT 6
001283: 04,3066           02753                                    RTNPRM
001284: 04,3067           03665                                    NORMSW
001285: 04,3070           77614                           CLEAR
001286: 04,3071           04273                                    COGAFLAG
001287: 04,3072           45131                           SSP      CALL
001288: 04,3073           02673                                    GEOMSGN
001289: 04,3074           27777                                    37777                                 #  GAMMA ALWAYS LESS THAN 180DEG
001290: 04,3075           11131                                    GEOM                                  #  MPAC=SNGA (+1), 0D=CSGA (+1) PL AT 2
001291: 04,3076           14045                           STODL    36D                                   #  36D=SIN GAMMA (+1)           PL AT 0
001292: 04,3077           56261                           SR       DDV


001294: 04,3100           20606                                    5
001295:
001296: 04,3101           00045                                    36D
001297: 04,3102           32766                           STOVL*   COGA
001298: 04,3103           10005                                    MUTABLE,1
001299: 04,3104           14017                           STODL    1/MU
001300: 04,3105           02720                                    MAGVEC2
001301: 04,3106           60316                           DSQ      NORM
001302: 04,3107           00047                                    X1
001303: 04,3110           41275                           DMPR     DMP
001304: 04,3111           00017                                    1/MU
001305: 04,3112           00041                                    R1
001306: 04,3113           77657                           SRR*
001307: 04,3114           21576                                    0          -3,1
001308: 04,3115           44206                           PUSH     BDSU                                  #  0D=R1 V1SQ/MU (+6)           PL AT 2
001309: 04,3116           11044                                    D1/32
001310: 04,3117           16742                           STODL    R1A                                   #  R1A (+6)                     PL AT 0
001311:
001312: 04,3120           60205                           DMP      NORM
001313: 04,3121           00045                                    36D
001314: 04,3122           00047                                    X1
001315: 04,3123           53605                           DMP      SR*
001316: 04,3124           00045                                    36D
001317: 04,3125           20575                                    0          -4,1
001318: 04,3126           02740                           STORE    P                                     #  P (+4)
001319: 04,3127           77650                           GOTO
001320: 04,3130           02753                                    RTNPRM
001321:


001323: 04,3131           77656        GEOM               UNIT                                           #  MPAC=V2VEC, 0D=R1VEC         PL AT 6
001324: 04,3132           16712                           STODL    U2                                    #  U2 (+1)
001325: 04,3133           00045                                    36D
001326: 04,3134           26720                           STOVL    MAGVEC2                               #                               PL AT 0
001327: 04,3135           77656                           UNIT
001328: 04,3136           02722                           STORE    UR1                                   #  UR1 (+1)
001329: 04,3137           72441                           DOT      SL1
001330: 04,3140           02712                                    U2
001331: 04,3141           77725                           PDDL                                           #  OD=CSTH (+1)                 PL AT 2
001332: 04,3142           00045                                    36D
001333: 04,3143           24041                           STOVL    R1                                    #  R1 (+29 OR +27)
001334: 04,3144           02722                                    UR1
001335: 04,3145           76435                           VXV      VSL1
001336: 04,3146           02712                                    U2
001337: 04,3147           75214                           BON      SIGN
001338: 04,3150           03705                                    NORMSW
001339: 04,3151           11163                                    HAVENORM
001340: 04,3152           02673                                    GEOMSGN
001341: 04,3153           40056                           UNIT     BOV
001342: 04,3154           11161                                    COLINEAR
001343: 04,3155           16674        UNITNORM           STODL    UN                                    #  UN (+1)
001344: 04,3156           00045                                    36D
001345: 04,3157           43565                           SIGN     RVQ                                   #  MPAC=SNTH (+1), 34D=SNTH.SNTH (+2)
001346: 04,3160           02673                                    GEOMSGN
001347:
001348:
001349: 04,3161           52162        COLINEAR           VSR1     GOTO
001350: 04,3162           11155                                    UNITNORM
001351:
001352:
001353: 04,3163           75246        HAVENORM           ABVAL    SIGN
001354: 04,3164           02673                                    GEOMSGN
001355: 04,3165           77616                           RVQ                                            #  MPAC=SNTH (+1), 34D=SNTH.SNTH (+2)
001356:


001358: 12,2767                                           BANK     12
001359: 12,2000                                           SETLOC   CONICS
001360: 12,2000                                           BANK
001361:
001362: 12,2767                                           COUNT*   $$/CONIC
001363: 12,2767           66374        GETX               AXT,2    SSP                                   #  ASSUMES P (+4) IN MPAC
001364: 12,2770           00003                                    3
001365: 12,2771           00052                                    S2
001366: 12,2772           00001                                    1
001367: 12,2773           77614                           CLEAR
001368: 12,2774           04276                                    360SW
001369: 12,2775           65366                           SQRT     PDDL                                  #  0D=SQRT(P)                       PL AT 2
001370: 12,2776           02732                                    CSTH
001371: 12,2777           44342                           SR1      BDSU
001372: 12,3000           11040                                    D1/4
001373: 12,3001           54325                           PDDL     SRR                                   #                               PL AT 4D
001374: 12,3002           02730                                    SNTH
001375: 12,3003           21607                                    6
001376: 12,3004           77671                           DDV                                            #                               PL AT 2
001377: 12,3005           77600                           BOV
001378: 12,3006           25122                                    360CHECK
001379: 12,3007           41225                           DSU      DMP
001380: 12,3010           02766                                    COGA                                  #                                   PL AT 0
001381: 12,3011           40132                           SL2R     BOV
001382: 12,3012           25122                                    360CHECK
001383: 12,3013           63406        WLOOP              PUSH     DSQ                                   #  0D=W (+5)                        PL AT 2
001384: 12,3014           65351                           TLOAD    PDDL                                  #  2D=WSQ (+10)                     PL AT 5
001385: 12,3015           00155                                    MPAC
001386: 12,3016           02742                                    R1A
001387: 12,3017           76202                           SR4      TAD                                   #                               PL AT 2
001388: 12,3020           75440                           BMN      SQRT
001389: 12,3021           25205                                    INFINITY
001390: 12,3022           43306                           ROUND    DAD                                   #                               PL AT 0D
001391: 12,3023           61000                           BOV      TIX,2
001392: 12,3024           25120                                    RESETX2
001393: 12,3025           25013                                    WLOOP
001394:
001395:
001396: 12,3026           40065                           BDDV     BOV
001397: 12,3027           11034                                    D1/128
001398: 12,3030           25205                                    INFINITY
001399: 12,3031           41440        POLYCOEF           BMN      PUSH                                  #  0D=1/W (+2) OR 16/W (+6)     PL AT 2
001400: 12,3032           25205                                    INFINITY
001401: 12,3033           77716                           DSQ
001402: 12,3034           41301                           NORM     DMP
001403: 12,3035           00047                                    X1
001404: 12,3036           02742                                    R1A
001405: 12,3037           77457                           SRR*     EXIT
001406: 12,3040           21567                                    0          -10D,1
001407: 12,3041           07243                           TC       POLY


001409: 12,3042           00005                           DEC      5          B-14
001410: 12,3043           20000 00000                     2DEC     .5
001411:
001412: 12,3045           72525 52471                     2DEC     -.166666770
001413:
001414: 12,3047           03146 15003                     2DEC     .100000392
001415:
001416: 12,3051           75556 45210                     2DEC     -.071401086
001417:
001418: 12,3053           01615 13553                     2DEC     .055503292
001419:
001420: 12,3055           76371 63777                     2DEC     -.047264098
001421:
001422: 12,3057           01232 27367                     2DEC     .040694204
001423:
001424: 12,3061           06060                           TC       INTPRET
001425: 12,3062           76405                           DMP      SL1R                                  #                               PL AT 0D
001426: 12,3063           43006                           PUSH     BON
001427: 12,3064           04316                                    360SW
001428: 12,3065           25172                                    TRUE360X
001429: 12,3066           60316        XCOMMON            DSQ      NORM
001430: 12,3067           00047                                    X1
001431: 12,3070           53605                           DMP      SRR*
001432: 12,3071           02742                                    R1A
001433: 12,3072           21565                                    0          -12D,1
001434: 12,3073           14031                           STODL    XI                                    #  XI (+6)
001435:
001436:
001437: 12,3074           00041                                    R1
001438: 12,3075           75542                           SR1      SQRT
001439: 12,3076           41306                           ROUND    DMP
001440: 12,3077           77632                           SL4R                                           #                               PL AT 0
001441: 12,3100           00025                           STORE    X                                     #  X (+17 OR +16)
001442:
001443:
001444:
001445: 12,3101           60316                           DSQ      NORM
001446: 12,3102           00047                                    X1
001447: 12,3103           41325                           PDDL     DMP                                   #  0D=XSQ (+34 OR +32 -N1)      PL AT 2
001448: 12,3104           02740                                    P
001449: 12,3105           00041                                    R1
001450: 12,3106           75452                           SL3      SQRT
001451: 12,3107           56405                           DMP      SL3R
001452: 12,3110           02766                                    COGA
001453: 12,3111           14043                           STODL    KEPC1
001454: 12,3112           02742                                    R1A
001455: 12,3113           43021                           BDSU     CLEAR
001456: 12,3114           11036                                    D1/64
001457: 12,3115           04270                                    INFINFLG
001458: 12,3116           00045                           STORE    KEPC2
001459: 12,3117           77616                           RVQ
001460:


001462: 12,3120           77774        RESETX2            AXT,2
001463: 12,3121           00003                                    3
001464:
001465: 12,3122           51001        360CHECK           SETPD    BPL
001466: 12,3123           00001                                    0D
001467: 12,3124           25127                                    INVRSEQN
001468: 12,3125           77614                           SET
001469: 12,3126           04076                                    360SW
001470:
001471:
001472: 12,3127           75545        INVRSEQN           DLOAD    SQRT
001473: 12,3130           02740                                    P
001474: 12,3131           41325                           PDDL     DMP                                   #  0D=SQRT(P) (+2)                  PL AT 2
001475: 12,3132           02730                                    SNTH
001476: 12,3133           02766                                    COGA
001477: 12,3134           65352                           SL1      PDDL                                  #  2D=SNTH COGA (+5)                PL AT 4
001478: 12,3135           02732                                    CSTH
001479: 12,3136           43202                           SR4      DAD
001480: 12,3137           11044                                    D1/32
001481: 12,3140           41225                           DSU      DMP                                   #                               PL AT 2,0
001482: 12,3141           55301                           NORM     BDDV
001483: 12,3142           00047                                    X1
001484: 12,3143           02730                                    SNTH
001485: 12,3144           51457                           SLR*     ABS                                   #  NOTE: NEAR 360 CASE TREATED DIFFERENTLY
001486: 12,3145           21174                                    0          -5,1
001487: 12,3146           63406                           PUSH     DSQ                                   #  0D=1/W (-1)                  PL AT 2
001488: 12,3147           14043                           STODL    34D
001489: 12,3150           11042                                    D1/16
001490: 12,3151           63406        1/WLOOP            PUSH     DSQ                                   #  2D=G (+4)                        PL AT 4
001491: 12,3152           65234                           RTB      PDDL                                  #                               PL AT 7
001492: 12,3153           21643                                    TPMODE
001493: 12,3154           02742                                    R1A
001494: 12,3155           40405                           DMP      SR4
001495: 12,3156           00043                                    34D
001496: 12,3157           77771                           TAD
001497: 12,3160           75440                           BMN      SQRT                                  #                                   PL AT 4
001498: 12,3161           25205                                    INFINITY
001499: 12,3162           77615                           DAD                                            #                               PL AT 2
001500: 12,3163           60304                           TIX,2    NORM
001501: 12,3164           25151                                    1/WLOOP
001502: 12,3165           00047                                    X1
001503: 12,3166           77665                           BDDV
001504: 12,3167           52057                           SLR*     GOTO                                  #                                   PL AT 0
001505: 12,3170           21172                                    0          -7,1
001506: 12,3171           25031                                    POLYCOEF
001507:
001508:
001509: 12,3172           50145        TRUE360X           DLOAD    BMN
001510: 12,3173           02742                                    R1A


001512: 12,3174           25205                                    INFINITY
001513: 12,3175           60366                           SQRT     NORM
001514: 12,3176           00047                                    X1
001515: 12,3177           53665                           BDDV     SL*
001516: 12,3200           11056                                    2PISC
001517: 12,3201           20176                                    0          -3,1
001518: 12,3202           41425                           DSU      PUSH                                  #  0D=2PI/SQRT(R1A) -X          PL AT 0,2
001519: 12,3203           77650                           GOTO
001520: 12,3204           25066                                    XCOMMON
001521: 12,3205           40001        INFINITY           SETPD    BOV                                   #  NO SOLUTION EXISTS SINCE CLOSURE THROUGH
001522: 12,3206           00001                                    0                                     #  INFINITY IS REQUIRED
001523: 12,3207           25210                                    OVFLCLR
001524: 12,3210           43414        OVFLCLR            SET      RVQ
001525: 12,3211           04070                                    INFINFLG
001526:


001528: 12,3212           40220        LAMBERT            STQ      SETPD
001529: 12,3213           02710                                    RTNLAMB
001530: 12,3214           00001                                    0D
001531: 12,3215           77600                           BOV
001532: 12,3216           25217                                    +1
001533: 12,3217           76614                           CLEAR    VLOAD*
001534: 12,3220           02674                                    SOLNSW
001535: 12,3221           10005                                    MUTABLE,1
001536: 12,3222           14017                           STODL    1/MU
001537: 12,3223           02671                                    TDESIRED
001538: 12,3224           77675                           DMPR
001539: 12,3225           11043                                    BEE19
001540: 12,3226           02764                           STORE    EPSILONL
001541: 12,3227           77214                           SET      VLOAD
001542: 12,3230           00474                                    SLOPESW
001543: 12,3231           02655                                    R1VEC
001544: 12,3232           45115                           PDVL     CALL                                  #  0D=R1VEC (+29 OR +27)        PL AT 6
001545: 12,3233           02663                                    R2VEC                                 #  MPAC=R2VEC (+29 OR +27)
001546: 12,3234           11131                                    GEOM
001547: 12,3235           16730                           STODL    SNTH                                  #  0D=CSTH (+1)                 PL AT 2
001548: 12,3236           02720                                    MAGVEC2
001549: 12,3237           65301                           NORM     PDDL                                  #                               PL AT 4
001550: 12,3240           00047                                    X1
001551: 12,3241           00041                                    R1
001552: 12,3242           56342                           SR1      DDV                                   #                               PL AT 2
001553: 12,3243           65257                           SL*      PDDL                                  #  DXCH WITH 0D, 0D=R1/R2 (+7)  PL AT 0,2
001554: 12,3244           20173                                    0          -6,1
001555: 12,3245           77626                           STADR
001556: 12,3246           75045                           STORE    CSTH                                  #  CSTH (+1)
001557: 12,3247           44342                           SR1      BDSU
001558: 12,3250           11040                                    D1/4
001559: 12,3251           02734                           STORE    1-CSTH                                #  1-CSTH (+2)
001560:
001561: 12,3252           53106                           ROUND    BZE
001562: 12,3253           25473                                    360LAMB
001563: 12,3254           65301                           NORM     PDDL                                  #                               PL AT 4
001564: 12,3255           00047                                    X1
001565: 12,3256           00001                                    0D
001566: 12,3257           56342                           SR1      DDV                                   #                               PL AT 2
001567: 12,3260           75457                           SL*      SQRT
001568: 12,3261           20176                                    0          -3,1
001569: 12,3262           54325                           PDDL     SR                                    #  2D=SQRT(2R1/R2(1-CSTH)) (+5) PL AT 4
001570: 12,3263           02730                                    SNTH
001571: 12,3264           20607                                    6
001572: 12,3265           43271                           DDV      DAD                                   #                               PL AT 2
001573: 12,3266           02734                                    1-CSTH
001574: 12,3267           77626                           STADR
001575: 12,3270           77760                           STORE    COGAMAX
001576: 12,3271           50000                           BOV      BMN                                   #  IF OVFL, COGAMAX=COGUPLIM
001577: 12,3272           25277                                    UPLIM                                 #  IF NEG, USE EVEN IF LT COGLOLIM, SINCE


001579: 12,3273           25302                                    MAXCOGA                               #    THIS WOULD BE RESET IN LAMBLOOP
001580: 12,3274           50025                           DSU      BMN                                   #  IF COGAMAX GT COGUPLIM, COGAMAX=COGUPLIM
001581: 12,3275           11062                                    COGUPLIM
001582: 12,3276           25302                                    MAXCOGA                               #  OTHERWISE OK, SO GO TO MAXCOGA
001583: 12,3277           77745        UPLIM              DLOAD
001584: 12,3300           11062                                    COGUPLIM                              #  COGUPLIM=.999511597 = MAX VALUE OF COGA
001585: 12,3301           00017                           STORE    COGAMAX                               #    NOT CAUSING OVFL IN R1A CALCULATION
001586: 12,3302           77745        MAXCOGA            DLOAD
001587: 12,3303           02732                                    CSTH
001588: 12,3304           45261                           SR       DSU                                   #                               PL AT 0
001589: 12,3305           20607                                    6
001590: 12,3306           77626                           STADR
001591: 12,3307           61041                           STODL    CSTH-RHO
001592: 12,3310           02673                                    GEOMSGN
001593: 12,3311           71240                           BMN      DLOAD
001594: 12,3312           25513                                    LOLIM
001595: 12,3313           02736                                    CSTH-RHO
001596: 12,3314           56352                           SL1      DDV
001597: 12,3315           02730                                    SNTH
001598: 12,3316           77600                           BOV
001599: 12,3317           25513                                    LOLIM
001600: 12,3320           00011        MINCOGA            STORE    COGAMIN                               #  COGAMIN (+5)
001601: 12,3321           66214                           BON      SSP
001602: 12,3322           00715                                    GUESSW
001603: 12,3323           25477                                    NOGUESS
001604: 12,3324           00051                                    TWEEKIT
001605: 12,3325           00001                                    00001
001606: 12,3326           77745                           DLOAD
001607: 12,3327           02766                                    COGA
001608:
001609:
001610: 12,3330           77605        LAMBLOOP           DMP
001611: 12,3331           02730                                    SNTH
001612: 12,3332           45342                           SR1      DSU
001613: 12,3333           02736                                    CSTH-RHO
001614: 12,3334           65301                           NORM     PDDL                                  #  0D=SNTH COGA-(CSTH-RHO) (+7+C(X1)) PL=2
001615: 12,3335           00047                                    X1
001616: 12,3336           02734                                    1-CSTH
001617: 12,3337           56257                           SL*      DDV                                   #  1-CSTH  (+2)                 PL AT 0
001618: 12,3340           20170                                    0          -9D,1
001619: 12,3341           53040                           BMN      BZE
001620: 12,3342           25427                                    NEGP
001621: 12,3343           25427                                    NEGP
001622: 12,3344           16740                           STODL    P                                     #  P=(1-CSTH)/(SNTH COGA-(CSTH-RHO)) (+4)
001623: 12,3345           02766                                    COGA
001624: 12,3346           43316                           DSQ      DAD
001625: 12,3347           11046                                    D1/1024
001626: 12,3350           41301                           NORM     DMP
001627: 12,3351           00047                                    X1
001628: 12,3352           02740                                    P


001630: 12,3353           44257                           SR*      BDSU
001631: 12,3354           20571                                    0          -8D,1
001632: 12,3355           11044                                    D1/32
001633: 12,3356           16742                           STODL    R1A                                   #  R1A=2-P(1+COGA COGA) (+6)
001634:
001635: 12,3357           02740                                    P
001636: 12,3360           45000                           BOV      CALL
001637: 12,3361           25432                                    HIENERGY
001638: 12,3362           24767                                    GETX
001639: 12,3363           77745                           DLOAD
001640: 12,3364           00037                                    T
001641: 12,3365           16762                           STODL    TPREV
001642: 12,3366           00031                                    XI
001643: 12,3367           45014                           BON      CALL
001644: 12,3370           04310                                    INFINFLG
001645: 12,3371           25427                                    NEGP                                  #  HAVE EXCEEDED THEORETICAL BOUNDS
001646: 12,3372           24421                                    DELTIME
001647: 12,3373           44200                           BOV      BDSU
001648: 12,3374           25447                                    BIGTIME
001649: 12,3375           02671                                    TDESIRED
001650: 12,3376           02760                           STORE    TERRLAMB
001651: 12,3377           44246                           ABS      BDSU
001652: 12,3400           02764                                    EPSILONL
001653: 12,3401           47044                           BPL      RTB
001654: 12,3402           25516                                    INITV
001655: 12,3403           24644                                    CHECKCTR
001656: 12,3404           43030                           BHIZ     BON
001657: 12,3405           25460                                    SUFFCHEK
001658: 12,3406           00714                                    SLOPESW
001659: 12,3407           25415                                    GOITER
001660: 12,3410           45345                           DLOAD    DSU
001661: 12,3411           00037                                    T
001662: 12,3412           02762                                    TPREV
001663: 12,3413           77654                           BZE
001664: 12,3414           25460                                    SUFFCHEK
001665: 12,3415           77624        GOITER             CALL
001666: 12,3416           24536                                    ITERATOR
001667: 12,3417           53145                           DLOAD    BZE
001668: 12,3420           00155                                    MPAC
001669: 12,3421           25460                                    SUFFCHEK
001670: 12,3422           77615                           DAD
001671: 12,3423           02766                                    COGA
001672: 12,3424           02766                           STORE    COGA
001673: 12,3425           77650                           GOTO
001674: 12,3426           25330                                    LAMBLOOP
001675:
001676:
001677: 12,3427           51145        NEGP               DLOAD    BPL                                   #  IMPOSSIBLE TRAJECTORY DUE TO INACCURATE
001678: 12,3430           00015                                    DCOGA                                 #  BOUND CALCULATION. TRY NEW COGA.
001679: 12,3431           25452                                    LOENERGY
001680:


001682: 12,3432           71201        HIENERGY           SETPD    DLOAD                                 #  HIGH ENERGY TRAJECTORY RESULTED
001683: 12,3433           00001                                    0
001684: 12,3434           02766                                    COGA                                  #  IN OVFL OF P OR R1A, OR XI EXCEEDING 50.
001685: 12,3435           00011                           STORE    COGAMIN                               #  THIS IS THE NEW BOUND.
001686: 12,3436           70545        COMMONLM           DLOAD    SR1
001687: 12,3437           00015                                    DCOGA
001688: 12,3440           00015                           STORE    DCOGA                                 #  USE DCOGA/2 AS DECREMENT
001689: 12,3441           44254                           BZE      BDSU
001690: 12,3442           25460                                    SUFFCHEK
001691: 12,3443           02766                                    COGA
001692: 12,3444           02766                           STORE    COGA
001693: 12,3445           77650                           GOTO                                           #  RESTART THIS LOOP
001694: 12,3446           25330                                    LAMBLOOP
001695:
001696:
001697: 12,3447           77745        BIGTIME            DLOAD
001698: 12,3450           02762                                    TPREV
001699: 12,3451           00037                           STORE    T
001700:
001701:
001702: 12,3452           71201        LOENERGY           SETPD    DLOAD                                 #  LOW ENERGY TRAJECTORY RESULTED
001703: 12,3453           00001                                    0
001704: 12,3454           02766                                    COGA                                  #  IN OVERFLOW OF TIME.
001705: 12,3455           00017                           STORE    COGAMAX                               #  THIS IS THE NEW BOUND.
001706: 12,3456           77650                           GOTO
001707: 12,3457           25436                                    COMMONLM
001708:
001709:
001710: 12,3460           51545        SUFFCHEK           DLOAD    ABS
001711: 12,3461           02760                                    TERRLAMB
001712: 12,3462           41325                           PDDL     DMP
001713: 12,3463           02671                                    TDESIRED                              #                               PL AT 2D
001714: 12,3464           11031                                    BEE17
001715: 12,3465           45215                           DAD      DSU                                   #                               PL AT 0D
001716: 12,3466           11060                                    ONEBIT
001717: 12,3467           43044                           BPL      SETGO
001718: 12,3470           25516                                    INITV
001719: 12,3471           02434                                    SOLNSW
001720: 12,3472           25516                                    INITV
001721: 12,3473           43001        360LAMB            SETPD    SETGO                                 #  LAMBERT CANNOT HANDLE CSTH=1
001722: 12,3474           00001                                    0
001723: 12,3475           02434                                    SOLNSW
001724: 12,3476           02710                                    RTNLAMB
001725:
001726:
001727: 12,3477           71331        NOGUESS            SSP      DLOAD
001728: 12,3500           00051                                    TWEEKIT
001729: 12,3501           10000                                    20000
001730: 12,3502           00011                                    COGAMIN                               #                               PL AT 2
001731: 12,3503           65342                           SR1      PDDL


001733: 12,3504           00017                                    COGAMAX
001734: 12,3505           43342                           SR1      DAD
001735: 12,3506           77626                           STADR                                          #                               PL AT 0
001736: 12,3507           75011                           STORE    COGA
001737: 12,3510           00015                           STORE    DCOGA
001738: 12,3511           77650                           GOTO
001739: 12,3512           25330                                    LAMBLOOP
001740:
001741:
001742: 12,3513           52145        LOLIM              DLOAD    GOTO
001743: 12,3514           11064                                    COGLOLIM                              #  COGLOLIM=-.999511597
001744: 12,3515           25320                                    MINCOGA
001745:
001746:
001747: 12,3516           60345        INITV              DLOAD    NORM
001748: 12,3517           00041                                    R1
001749: 12,3520           00047                                    X1
001750: 12,3521           70525                           PDDL     SR1                                   #                               PL AT 2
001751: 12,3522           02740                                    P
001752: 12,3523           77671                           DDV                                            #                               PL AT 0
001753: 12,3524           75457                           SL*      SQRT
001754: 12,3525           20175                                    0          -4,1
001755: 12,3526           72405                           DMP      SL1
001756: 12,3527           00021                                    ROOTMU
001757: 12,3530           41206                           PUSH     DMP                                   #  0D=VTAN (+7)                 PL AT 2
001758: 12,3531           02766                                    COGA
001759: 12,3532           74261                           SL       VXSC
001760: 12,3533           20206                                    5
001761: 12,3534           02722                                    UR1
001762: 12,3535           77725                           PDDL                                           #  XCH WITH 0D                  PL AT 0,6
001763: 12,3536           76561                           VXSC     VSL1
001764: 12,3537           02674                                    UN
001765: 12,3540           53235                           VXV      VAD
001766: 12,3541           02722                                    UR1                                   #                               PL AT 0
001767: 12,3542           77772                           VSL1
001768: 12,3543           02744                           STORE    VVEC
001769: 12,3544           53135                           SLOAD    BZE
001770: 12,3545           02702                                    VTARGTAG
001771: 12,3546           25551                                    TARGETV
001772: 12,3547           77650                           GOTO
001773: 12,3550           02710                                    RTNLAMB
001774:
001775:
001776: 12,3551           45145        TARGETV            DLOAD    CALL
001777: 12,3552           02720                                    MAGVEC2
001778: 12,3553           24701                                    LAMENTER
001779: 12,3554           02703                           STORE    VTARGET
001780: 12,3555           77650                           GOTO
001781: 12,3556           02710                                    RTNLAMB
001782:


001784: 12,3557           40220        TIMERAD            STQ      SETPD                                 #                                  PL AT 0
001785: 12,3560           02710                                    RTNTR
001786: 12,3561           00001                                    0
001787: 12,3562           77600                           BOV
001788: 12,3563           25564                                    +1
001789: 12,3564           63375                           VLOAD    PDVL                                  #                                  PL AT 6
001790: 12,3565           02655                                    RVEC
001791: 12,3566           02744                                    VVEC
001792: 12,3567           77624                           CALL
001793: 12,3570           11065                                    PARAM
001794: 12,3571           71200                           BOV      DLOAD                                 #                                  PL AT 0
001795: 12,3572           24764                                    COGAOVFL
001796: 12,3573           11044                                    D1/32
001797: 12,3574           41225                           DSU      DMP
001798: 12,3575           02742                                    R1A
001799: 12,3576           02740                                    P
001800: 12,3577           41366                           SQRT     DMP
001801: 12,3600           02766                                    COGA
001802: 12,3601           74212                           SL4      VXSC
001803: 12,3602           02712                                    U2
001804: 12,3603           45325                           PDDL     DSU                                   #                                  PL AT 6
001805: 12,3604           11036                                    D1/64
001806: 12,3605           02742                                    R1A
001807: 12,3606           52361                           VXSC     VSU                                   #                                  PL AT 0
001808: 12,3607           02722                                    UR1
001809: 12,3610           53512                           VSL4     UNIT
001810: 12,3611           77600                           BOV
001811: 12,3612           25670                                    CIRCULAR
001812: 12,3613           60325                           PDDL     NORM                                  #  0D=UNIT(ECC) (+3)               PL AT 6
001813: 12,3614           02756                                    RDESIRED                              #  36D=ECC (+3)
001814: 12,3615           00047                                    X1
001815: 12,3616           41325                           PDDL     DMP                                   #                               PL AT 8
001816: 12,3617           00041                                    R1
001817: 12,3620           02740                                    P
001818: 12,3621           56257                           SL*      DDV                                   #                               PL AT 6
001819: 12,3622           20201                                    0,1
001820: 12,3623           56225                           DSU      DDV
001821: 12,3624           11042                                    D1/16
001822: 12,3625           00045                                    36D                                   #  36D=ECC (+3)
001823: 12,3626           00031                           STORE    COSF
001824: 12,3627           63400                           BOV      DSQ
001825: 12,3630           25674                                    BADR2
001826: 12,3631           50021                           BDSU     BMN
001827: 12,3632           11040                                    D1/4
001828: 12,3633           25674                                    BADR2
001829: 12,3634           75366                           SQRT     SIGN
001830: 12,3635           02755                                    SGNRDOT
001831: 12,3636           77614                           CLEAR
001832: 12,3637           04272                                    APSESW


001834: 12,3640           76561        TERMNVEC           VXSC     VSL1
001835: 12,3641           02674                                    UN
001836: 12,3642           63235                           VXV      PDVL                                  #  VXCH WITH 0D                 PL AT 0,6
001837: 12,3643           00001                                    0D
001838: 12,3644           53361                           VXSC     VAD                                   #                               PL AT 0
001839: 12,3645           00031                                    COSF
001840: 12,3646           41572                           VSL1     PUSH                                  #  0D=U2                        PL AT 6
001841:
001842: 12,3647           56241                           DOT      DDV                                   #  LIMITS RESULT TO POSMAX OR NEGMAX
001843: 12,3650           02722                                    UR1
001844: 12,3651           25766                                    DP1/4
001845: 12,3652           40142                           SR1      BOV                                   #  SCALE BACK DOWN TO NORMAL
001846: 12,3653           25654                                    +1                                    #  CLEAR OVFIND IF SET
001847: 12,3654           26732                           STOVL    CSTH                                  #  CSTH (+1)
001848: 12,3655           02722                                    UR1
001849: 12,3656           76435                           VXV      VSL1
001850: 12,3657           72441                           DOT      SL1
001851: 12,3660           02674                                    UN
001852: 12,3661           16730                           STODL    SNTH                                  #  SNTH (+1)
001853: 12,3662           02740                                    P
001854: 12,3663           77624                           CALL
001855: 12,3664           24767                                    GETX
001856: 12,3665           77614                           CLRGO
001857: 12,3666           02634                                    SOLNSW
001858: 12,3667           24747                                    COMMNOUT
001859:
001860:
001861: 12,3670           43001        CIRCULAR           SETPD    SETGO
001862: 12,3671           00001                                    0
001863: 12,3672           02434                                    SOLNSW
001864: 12,3673           25752                                    ABTCONIC
001865:
001866:
001867: 12,3674           75345        BADR2              DLOAD    SIGN
001868: 12,3675           24005                                    LODPHALF
001869: 12,3676           00031                                    COSF
001870: 12,3677           14031                           STODL    COSF
001871: 12,3700           24007                                    KEPZERO
001872: 12,3701           77614                           SETGO
001873: 12,3702           04032                                    APSESW
001874: 12,3703           25640                                    TERMNVEC
001875:


001877: 12,3704           40220        APSIDES            STQ      SETPD                                 #                                  PL AT  0
001878: 12,3705           02710                                    RTNAPSE
001879: 12,3706           00001                                    0D
001880: 12,3707           77600                           BOV
001881: 12,3710           25711                                    +1
001882: 12,3711           63375                           VLOAD    PDVL                                  #                                  PL AT  6
001883: 12,3712           02655                                    RVEC
001884: 12,3713           02744                                    VVEC
001885: 12,3714           77624                           CALL
001886: 12,3715           11065                                    PARAM
001887: 12,3716           77600                           BOV                                            #                                  PL AT  0
001888: 12,3717           25720                                    GETECC
001889: 12,3720           42405        GETECC             DMP      SL4
001890: 12,3721           02742                                    R1A
001891: 12,3722           75421                           BDSU     SQRT
001892: 12,3723           11036                                    D1/64
001893: 12,3724           02752                           STORE    ECC
001894: 12,3725           65215                           DAD      PDDL                                  #                                  PL AT  2
001895: 12,3726           11032                                    D1/8
001896: 12,3727           00041                                    R1
001897: 12,3730           72405                           DMP      SL1
001898: 12,3731           02740                                    P
001899: 12,3732           77671                           DDV                                            #                                  PL AT  0
001900: 12,3733           60325                           PDDL     NORM                                  #  0D=RP (+29 OR +27)              PL AT  2
001901: 12,3734           02742                                    R1A
001902: 12,3735           00047                                    X1
001903: 12,3736           53725                           PDDL     SL*                                   #                                  PL AT  4
001904: 12,3737           00041                                    R1
001905: 12,3740           20174                                    0          -5,1
001906: 12,3741           45271                           DDV      DSU                                   #                                  PL AT 2,0
001907: 12,3742           50000                           BOV      BMN
001908: 12,3743           25747                                    INFINAPO
001909: 12,3744           25747                                    INFINAPO
001910: 12,3745           77650                           GOTO
001911: 12,3746           02710                                    RTNAPSE
001912: 12,3747           52145        INFINAPO           DLOAD    GOTO                                  #  RETURNS WITH APOAPSIS IN MPAC, PERIAPSIS
001913: 12,3750           24020                                    LDPOSMAX
001914: 12,3751           02710                                    RTNAPSE                               #  THAT PL IS AT 0.
001915:


001917: 12,3752           77776        ABTCONIC           EXIT
001918: 12,3753           05644                           TC       POODOO
001919: 12,3754           20607                           OCT      20607
001920:
001921: 12,3755  12,2017               LDPOSMAX           EQUALS   LODPMAX                               #  DPPOSMAX IN LOW MEMORY.
001922:
001923:                                                                                                  #  ERASABLE ASSIGNMENTS
001924:
001925:
001926:                                                                                                  #  KEPLER SUBROUTINE
001927:
001928:                                                                                                  #     INPUT -
001929:                                                                                                  #  RRECT    ERASE  +5
001930:                                                                                                  #  VRECT    ERASE  +5
001931:                                                                                                  #  TAU.     ERASE  +1
001932:                                                                                                  #  XKEP     ERASE  +1
001933:                                                                                                  #  TC       ERASE  +1
001934:                                                                                                  #  XPREV    ERASE  +1
001935: 12,3755                        1/MU               EQUALS   14D
001936: 12,3755                        ROOTMU             EQUALS   16D
001937: 12,3755                        1/ROOTMU           EQUALS   18D
001938:                                                                                                  #     OUTPUT -
001939:                                                                                                  #  RCV      ERASE  +5
001940:                                                                                                  #  VCV      ERASE  +5
001941:                                                                                                  #  RC       ERASE  +1
001942:                                                                                                  #  XPREV    ERASE  +1
001943:
001944:                                                                                                  #  DEBRIS -
001945: 12,3755                        ALPHA              EQUALS   8D
001946: 12,3755                        XMAX               EQUALS   10D
001947: 12,3755                        XMIN               EQUALS   12D
001948: 12,3755                        X                  EQUALS   20D
001949: 12,3755                        XI                 EQUALS   24D
001950: 12,3755                        S(XI)              EQUALS   26D
001951: 12,3755                        XSQC(XI)           EQUALS   28D
001952: 12,3755                        T                  EQUALS   30D
001953: 12,3755                        R1                 EQUALS   32D
001954: 12,3755                        KEPC1              EQUALS   34D
001955: 12,3755                        KEPC2              EQUALS   36D
001956:                                                                                                  #  DELX     ERASE  +1
001957:                                                                                                  #  DELT     ERASE  +1
001958:                                                                                                  #  URRECT   ERASE  +5
001959:                                                                                                  #  RCNORM   ERASE  +1
001960:                                                                                                  #  XPREV    EQUALS XKEP
001961:
001962:
001963:                                                                                                  #  LAMBERT SUBROUTINE
001964:
001965:                                                                                                  #     INPUT-
001966:                                                                                                  #  R1VEC    ERASE  +5


001968:                                                                                                  #  R2VEC    ERASE  +5
001969:                                                                                                  #  TDESIRED ERASE  +1
001970:                                                                                                  #  GEOMSGN  ERASE  +0
001971:                                                                                                  #  GUESSW                          0 IF COGA GUESS AVAILABLE, 1 IF NOT
001972:                                                                                                  #  COGA     ERASE  +1              INPUT ONLY IF GUESSW IS ZERO.
001973:                                                                                                  #  NORMSW                          0 IF UN TO BE COMPUTED, 1 IF UN INPUT
001974:                                                                                                  #  UN       ERASE  +5              ONLY USED IF NORMSW IS 1
001975:                                                                                                  #  VTARGTAG ERASE  +0
001976:                                                                                                  #  TWEEKIT  EQUALS 40D             ONLY USED IF GUESSW IS 0
001977:
001978:                                                                                                  #     OUTPUT -
001979:                                                                                                  #  VTARGET  ERASE  +5              AVAILABLE ONLY IF VTARGTAG IS ZERO.
001980:                                                                                                  #  V1VEC    EQUALS MPAC
001981:
001982:                                                                                                  #     DEBRIS -
001983:                                                                                                  #  RTNLAMB  ERASE  +0
001984:                                                                                                  #  U2       ERASE  +5
001985:                                                                                                  #  MAGVEC2  ERASE  +1
001986:                                                                                                  #  UR1      ERASE  +5
001987:                                                                                                  #  R1       EQUALS 31D
001988:                                                                                                  #  UN       ERASE  +5
001989:                                                                                                  #  SNTH     ERASE  +1
001990:                                                                                                  #  CSTH     ERASE  +1
001991:                                                                                                  #  1-CSTH   ERASE  +1
001992:                                                                                                  #  CSTH-RHO ERASE  +1
001993: 12,3755                        COGAMAX            EQUALS   14D                                   #  CLOBBERS 1/MU
001994: 12,3755                        COGAMIN            EQUALS   8D
001995: 12,3755                        DCOGA              EQUALS   12D
001996:                                                                                                  #  TWEEKIT  EQUALS 40D
001997:                                                                                                  #  P        ERASE  +1
001998:                                                                                                  #  COGA     ERASE  +1
001999:                                                                                                  #  R1A      ERASE  +1
002000:                                                                                                  #  X        EQUALS 20D
002001:                                                                                                  #  XSQ      EQUALS 22D
002002:                                                                                                  #  XI       EQUALS 24D
002003:                                                                                                  #  S(XI)    EQUALS 26D
002004:                                                                                                  #  XSQC(XI) EQUALS 28D
002005:                                                                                                  #  T        EQUALS 30D
002006:                                                                                                  #  KEPC1    EQUALS 34D
002007:                                                                                                  #  KEPC2    EQUALS 36D
002008:                                                                                                  #  SLOPESW
002009:                                                                                                  #  SOLNSW
002010:                                                                                                  #  OTHERS -
002011:
002012:                                                                                                  #  RVEC     EQUALS R1VEC
002013:                                                                                                  #  VVEC     ERASE  +5
002014:                                                                                                  #  COGAFLAG
002015:                                                                                                  #  RVSW
002016:                                                                                                  #  INFINFLG
002017:                                                                                                  #  APSESW


002019:                                                                                                  #  360SW
002020:                                                                                                  #  RTNTT    EQUALS RTNLAMB
002021:                                                                                                  #  ECC      ERASE  +1
002022:                                                                                                  #  RTNTR    EQUALS RTNLAMB
002023:                                                                                                  #  RTNAPSE  EQUALS RTNLAMB
002024:                                                                                                  #  R2       EQUALS MAGVEC2
002025: 12,3755                        COSF               EQUALS   24D
002026:                                                                                                  #  RTNPRM   ERASE  +0
002027:                                                                                                  #  SGNRDOT  ERASE  +0
002028:                                                                                                  #  RDESIRED ERASE  +1
002029:
002030:
002031:                                                                                                  #  ITERATOR SUBROUTINE
002032:
002033:                                                                                                  #  ORDERSW
002034: 12,3755                        MAX                EQUALS   14D                                   #  CLOBBERS 1/MU
002035: 12,3755                        MIN                EQUALS   8D
002036:                                                                                                  #  INDEP    ERASE  +1
002037: 12,3755                        DELINDEP           EQUALS   12D
002038: 12,3755                        ITERCTR            EQUALS   22D
002039: 12,3755                        DEP                EQUALS   30D
002040:                                                                                                  #  DELDEP   ERASE  +1
002041:                                                                                                  #  DEPREV   ERASE  +1
002042: 12,3755                        TWEEKIT            EQUALS   40D
002043:
002044:
002045:                                                                                                  #  MORE KEPLER
002046:
002047:                                                                                                  #  EPSILONT ERASE  +1
002048:
002049:
002050:                                                                                                  #  MORE LAMBERT
002051:
002052:                                                                                                  #  TERRLAMB EQUALS DELDEP
002053:                                                                                                  #  TPREV    EQUALS DEPREV
002054:
002055:                                                                                                  #  EPSILONL EQUALS EPSILONT +2     DOUBLE PRECISION WORD

End of include-file CONIC_SUBROUTINES.agc.  Parent file is MAIN.agc


