
Source Code


000002:                                                                                                  ## Copyright:   Public domain.
000003:                                                                                                  ## Filename:    CONIC_SUBROUTINES.agc
000004:                                                                                                  ## Purpose:     A section of Luminary revision 210.
000005:                                                                                                  ##              It is part of the source code for the Lunar Module's (LM)
000006:                                                                                                  ##              Apollo Guidance Computer (AGC) for Apollo 15-17.
000007:                                                                                                  ##              This file is intended to be a faithful transcription, except
000008:                                                                                                  ##              that the code format has been changed to conform to the
000009:                                                                                                  ##              requirements of the yaYUL assembler rather than the
000010:                                                                                                  ##              original YUL assembler.
000011:                                                                                                  ## Reference:   pp. 1157-1201
000012:                                                                                                  ## Assembler:   yaYUL
000013:                                                                                                  ## Contact:     Ron Burkey <info@sandroid.org>.
000014:                                                                                                  ## Website:     www.ibiblio.org/apollo/index.html
000015:                                                                                                  ## Mod history: 2016-11-17 JL   Created from Luminary131 version.
000016:                                                                                                  ##              2016-12-09 MAS  Began updating for Luminary 210.
000017:                                                                                                  ##              2016-12-10 MAS  Completed updates (almost entirely comment formatting)
000018:                                                                                                  ##              2016-12-26 RSB  Comment-text proofed using ProoferComments
000019:                                                                                                  ##                              and corrected errors found.
000020:                                                                                                  ##              2017-01-28 RSB  WTIH -> WITH and WHCIH -> WHICH.
000021:


000023:                                                                                                  #  PROGRAM DESCRIPTION - ENTIRE CONIC SUBROUTINE LOG SECTION                       DATE - 1 SEPTEMBER 1967
000024:                                                                                                  #  MOD NO. - 0                                                                     LOG SECTION - CONIC SUBROUTINES
000025:                                                                                                  #  MOD BY KRAUSE                                                                   ASSEMBLY - COLOSSUS REVISION 88
000026:
000027:
000028:


000031:                                                                                                  #  FUNCTIONAL DESCRIPTION -
000032:
000033:                                                                                                  #       THE FOLLOWING SET OF SUBROUTINES SOLVE VARIOUS PROBLEMS INVOLVING THE TRAJECTORY PRODUCED BY A CENTRAL
000034:                                                                                                  #  INVERSE-SQUARE FORCE ACTING ON A POINT MASS, AS OUTLINED IN THE CMC AND LGC LUNAR LANDING MISSION GSOP, SECTION
000035:                                                                                                  #  5.5.1.2.  A GENERAL USAGE POINT-OF-VIEW WAS TAKEN IN FORMULATING, MECHANIZING, AND SCALING THE SUBROUTINES,
000036:                                                                                                  #  RATHER THAN OPTIMIZING EACH FOR A PARTICULAR USE.  THEREFORE, MULTIPLE USAGE CAN BE MADE OF THE SUBROUTINES
000037:                                                                                                  #  INVOLVING ANY REALISTIC SET OF CONSTRAINTS.  IT SHOULD BE NOTED THAT ONLY ONE SET OF CODING IS USED, WHETHER THE
000038:                                                                                                  #  EARTH, MOON, OR ANY OTHER CELESTIAL BODY IS SPECIFIED AS THE CENTRAL BODY OF THE PROBLEM, PROVIDED ONE OBSERVES
000039:                                                                                                  #  THE INHERENT SCALE CHANGE REQUIRED IN POSITION, VELOCITY, MU, AND TIME, AS OUTLINED IN MISSION PROGRAMMING
000040:                                                                                                  #  DEFINITION MEMO NO. 10.  THIS CAN BE ACCOMPLISHED BY SIMPLY ADDING TO THE MUTABLE AND INITIALIZING THE SUBROU-
000041:                                                                                                  #  TINES APPROPRIATELY.
000042:                                                                                                  #       DUE TO THE UNIFORMITY OF THE EQUATIONS INVOLVED, CODING WAS MINIMIZED BY TREATING INDIVIDUAL EQUATIONS AND
000043:                                                                                                  #  BLOCKS OF EQUATIONS AS SUBROUTINES OF LOWER RANK WHENEVER POSSIBLE.  AS A RESULT, THREE BY-PRODUCTS SUBROUTINES,
000044:                                                                                                  #  DIRECTLY USABLE AS INDEPENDENT SUBROUTINES, WERE GENERATED.
000045:
000046:
000047:                                                                                                  #  RESTRICTIONS -
000048:
000049:                                                                                                  #       THE ONLY LIMITATION IN THE SCOPE OF PROBLEM WHICH CAN BE SOLVED BY A PARTICULAR SUBROUTINE IS THE SCALING
000050:                                                                                                  #  LIMIT OF EACH PARAMETER AS SPECIFIED IN THE GSOP.  THESE SCALING LIMITS WERE CHOSEN SO THAT ALL FEASIBLE TRAJEC-
000051:                                                                                                  #  TORIES COULD BE HANDLED.
000052:                                                                                                  #       SINCE THE SUBROUTINES (EXCEPT KEPLER) USE COMMON SUBROUTINES OF LOWER RANK WHICH USE ERASABLE OTHER THAN
000053:                                                                                                  #  THE PUSHLIST (DUE TO ITS LIMITED SIZE) AND COMMON INTERPRETIVE SWITCHES, THE CONIC SUBROUTINES CANNOT BE ALLOWED
000054:                                                                                                  #  TO INTERRUPT EACH OTHER.  IT IS UP TO THE USER TO GUARANTEE THIS CONDITION.
000055:


000057:                                                                                                  #  PROGRAM DESCRIPTION - KEPLER SUBROUTINE                                 DATE - 11 OCTOBER 1967
000058:                                                                                                  #  MOD NO. -1                                                                       LOG SECTION - CONIC SUBROUTINES
000059:                                                                                                  #  MOD BY KRAUSE                                                           ASSEMBLY - COLOSSUS 103 AND SUNDANCE 222
000060:                                                                                                  #  MOD NO. - 2  (AUGUST 1968) BY ROBERTSON: TO PERMIT BACKDATING BY MORE THAN ONE ORBITAL PERIOD.
000061:
000062:
000063:                                                                                                  #  MOD NO. - 3  (DEC 1968) BY ROBERTSON: SUPPRESSION OF X-MODULO-ING
000064:
000065:
000066:                                                                                                  #  MOD. NO. - 4   (JAN 1969) BY ROBERTSON: CLEAR OVFIND AT KEPLER ENTRY
000067:
000068:
000069:                                                                                                  #  FUNCTIONAL DESCRIPTION -
000070:                                                                                                  #       THIS SUBROUTINE, GIVEN AN INITIAL STATE VECTOR AND THE DESIRED TRANSFER TIME THROUGH WHICH THE STATE IS TO
000071:                                                                                                  #  BE UPDATED ALONG A CONIC TRAJECTORY, COMPUTES THE NEW, UPDATED STATE VECTOR.  THE TRAJECTORY MAY BE ANY CONIC
000072:                                                                                                  #  SECTION - CIRCULAR, ELLIPTIC, PARABOLIC, HYPERPOLIC, OR RECTILINEAR WITH RESPECT TO THE EARTH OR THE MOON.  THE
000073:                                                                                                  #  USE OF THE SUBROUTINE CAN BE EXTENDED USING OTHER PRIMARY BODIES BY SIMPLE ADDITIONS TO THE MUTABLE WITHOUT
000074:                                                                                                  #  INTRODUCING ANY CODING CHANGES, ACCEPTING THE INHERENT SCALE FACTOR CHANGES IN POSITION AND VELOCITY.  AN ITERA-
000075:                                                                                                  #  TION TECHNIQUE IS UTILIZED IN THE COMPUTATION.
000076:                                                                                                  #       IF A NEGATIVE TIME-OF-FLIGHT IS INPUT, THE PROGRAM WILL SOLVE FOR THE STATE WHICH WOULD BE PRODUCED BY
000077:                                                                                                  #  EXTRAPOLATING THE POSITION BACKWARD IN TIME.
000078:                                                                                                  #       IF THE ABSOLUTE VALUE OF THE DESIRED TRANSFER TIME EXCEEDS THE ORBITAL PERIOD, THE SUBROUTINE, THROUGH A
000079:                                                                                                  #  MODULAR TECHNIQUE, WILL COMPUTE THE STATE CORRESPONDING TO THE DESIRED TIME (WHETHER POSITIVE OR NEGATIVE).
000080:
000081:
000082:                                                                                                  #  THE RESTRICTIONS ARE -
000083:                                                                                                  #       1. (PREVIOUS RESTRICTION ON THE NEGATIVE DESIRED TRANSFER TIME IS NOW DELETED.)
000084:                                                                                                  #       2.  THE PARAMETERS IN THE PROBLEM CANNOT EXCEED THEIR SCALING LIMITS AS SPECIFIED IN THE GSOP.  IF
000085:                                                                                                  #  ANY OF THESE LIMITS ARE EXCEEDED, THE RESULTING SOLUTION WILL BE MEANINGLESS.
000086:
000087:
000088:                                                                                                  #       THE NUMBER OF ITERATIONS AND, THEREFORE, THE COMPUTATION SPEED IS DEPENDENT ON THE ACCURACY OF THE
000089:                                                                                                  #  GUESS, XKFPNEW.  THE AGC COMPUTATION TIME IS APPROXIMATELY .061 SECONDS FOR INITIALIZATION, .065 SECONDS FOR THE
000090:                                                                                                  #  FINAL COMPUTATIONS, PLUS .083 SECONDS FOR EACH ITERATION.
000091:
000092:
000093:
000094:                                                                                                  #  REFERENCES -
000095:                                                                                                  #       R-479, MISSION PROGRAMMING DEFINITION MEMO NO. 10, LUNAR LANDING MISSION GSOP, SECTION 5.5, SGA
000096:                                                                                                  #  MEMO 67-4.
000097:
000098:
000099:
000100:                                                                                                  #  INPUT - ERASABLE INITIALIZATION REQUIRED
000101:
000102:                                                                                                  #          * SCALE FACTOR *
000103:                                                                                                  #  VARIABLE*IN POWERS OF 2*                         DESCRIPTION AND REMARKS
000104:                                                                                                  #  --------*--------------*                         -----------------------
000105:                                                                                                  #  RRECT   * +29 FOR EARTH*DP INITIAL POSITION VECTOR IN METERS
000106:                                                                                                  #          * +27 FOR MOON *


000108:                                                                                                  #  VRECT   * +7 FOR EARTH *DP INITIAL VELOCITY VECTOR IN METERS/CENTISECOND
000109:                                                                                                  #          * +5 FOR MOON  *
000110:                                                                                                  #  X1 (38D)* NONE         *INDEX REGISTER SET TO -2D OR -10D ACCORDING TO WHETHER THE EARTH OR MOON,
000111:                                                                                                  #          *              *RESPECTIVELY, IS THE CENTRAL BODY
000112:                                                                                                  #  TAU.    * +28          *DESIRED TRANSFER TIME IN CENTISECONDS (DP)
000113:                                                                                                  #          *              *    MAY BE POS OR NEG AND ABSOLUTE VALUE MAY BE GREATER OR LESS THAN ONE ORBITAL PERIOD.
000114:                                                                                                  #  XKEPNEW * +17 FOR EARTH*DP GUESS OF ROOT X OF KEPLERS EQN IN SQRT(METERS). SIGN SHOULD AGREE WITH THAT OF TAU.
000115:                                                                                                  #          * +16 FOR MOON *    AND ABS VALUE SHOULD BE LESS THAN THAT CORRESPONDING TO A PERIOD,VIZ, 2PI SQRT(SEMI-
000116:                                                                                                  #          *              *    MAJOR AXIS),FOR SPEED OF CONVERGENCE,BUT IF EITHER CONDITION FAILS, XKEPNEW IS RESET
000117:                                                                                                  #          *              *    BY KEPLER TO A POOR BUT VALID GUESS.
000118:                                                                                                  #  TC      * +28          *DP PREV. VALUE OF TIME IN CENTISECS.  MUST BE LESS THAN ONE ORBITAL PERIOD.
000119:                                                                                                  #  XPREV   * +17 FOR EARTH*DP PREV. VALUE OF X IN SQRT(METERS).  MUST BE LESS THAN AN X CORRESPONDING TO ONE
000120:                                                                                                  #          * +16 FOR MOON *    ORBITAL PERIOD,VIZ,2PI SQRT(SEMI-MAJOR AXIS)
000121:
000122:
000123:
000124:                                                                                                  #  SUBROUTINES CALLED -
000125:                                                                                                  #       DELTIME
000126:
000127:
000128:
000129:                                                                                                  #  CALLING SEQUENCE AND NORMAL EXIT MODES -
000130:
000131:                                                                                                  #  KEPRTN-2 GOTO                   MUST BE IN INTERPRETIVE MODE BUT OVFIND ARBITRARY.
000132:                                                                                                  #  KEPRTN-1        KEPLER          RETURNS WITH XPREV IN MPAC. PL IS AT 0.
000133:                                                                                                  #  KEPRTN   ...                    CONTINUE
000134:
000135:                                                                                                  #  KEPLER MUST NOT BE CALLED DIRECTLY SINCE AN INTERRUPTION OF IT WOULD DESTROY THE ERASABLES IT NEEDS TO COMPLETE
000136:                                                                                                  #  THE INTERRUPTED JOB.  THEREFORE THE USER MUST CALL CSMCONIC OR LEMCONIC WHICH GUARANTEES NO INTERRUPTS AND WHICH
000137:                                                                                                  #  ALSO CALLS KEPPREP TO COMPUTE A GUESS OF XKEPNEW.
000138:
000139:
000140:
000141:                                                                                                  #  ABORT EXIT MODES -
000142:                                                                                                  #       NONE
000143:
000144:
000145:
000146:                                                                                                  #  OUTPUT -
000147:
000148:                                                                                                  #          * SCALE FACTOR *
000149:                                                                                                  #  VARIABLE*IN POWERS OF 2*                         DESCRIPTION AND REMARKS
000150:                                                                                                  #  --------*--------------*                         -----------------------
000151:                                                                                                  #  RCV     * +29 FOR EARTH*DP TERMINAL POSITION VECTOR IN METERS
000152:                                                                                                  #          * +27 FOR MOON *
000153:                                                                                                  #  VCV     * +7 FOR EARTH *DP TERMINAL VELOCITY VECTOR IN METERS/CENTISEC
000154:                                                                                                  #          * +5 FOR MOON  *
000155:                                                                                                  #  TC      * +28          *DP TRANSFER TIME IN CENTISECS TO WHICH KEPLER CONVERGED. ALWAYS LESS THAN ONE PERIOD.
000156:                                                                                                  #  XPREV   * +17 FOR EARTH*DP VALUE OF X IN SQRT(METERS) TO WHICH KEPLER CONVERGED. ALWAYS LESS THAN THE X
000157:                                                                                                  #          * +16 FOR MOON *    CORRESPONDING TO ONE PERIOD.


000159:                                                                                                  #  FOR OTHER OUTPUT WHICH MAY BE OF USE, SEE DEBRIS.
000160:
000161:
000162:
000163:                                                                                                  #  DEBRIS -
000164:
000165:                                                                                                  #       PARAMETERS WHICH MAY BE OF USE -
000166:
000167:                                                                                                  #          * SCALE FACTOR *
000168:                                                                                                  #  VARIABLE*IN POWERS OF 2*                         DESCRIPTION AND REMARKS
000169:                                                                                                  #  --------*--------------*                         -----------------------
000170:                                                                                                  #  URRECT  * +1           *DP UNIT VECTOR OF INITIAL POSITION
000171:                                                                                                  #  R1      * +29 FOR EARTH*DP MAGNITUDE OF INITIAL POSITION IN METERS
000172:                                                                                                  #          * +27 FOR MOON *
000173:                                                                                                  #  ALPHA   * -22 FOR EARTH*DP INVERSE OF SEMIMAJOR AXIS IN 1/METERS
000174:                                                                                                  #          * -20 FOR MOON *
000175:                                                                                                  #  TMODULO * +28          *DP INTEGRAL NUMBER OF PERIODS IN  CENTISECS. WHICH WAS SUBTRACTED FROM TAU. TO PRODUCE A
000176:                                                                                                  #          *              *TAU. OF LESS THAN ONE PERIOD.
000177:
000178:                                                                                                  #       PARAMETERS OF NO USE -
000179:                                                                                                  #  DP PARAMETERS - EPSILONT, DELX, DELT, RCNORM, XMODULO, PLUS PUSHLIST REGISTERS 0 THROUGH 39D.
000180:
000181:


000183:                                                                                                  #  PROGRAM DESCRIPTION - LAMBERT SUBROUTINE                                        DATE - 1 SEPTEMBER 1967
000184:                                                                                                  #  MOD NO. - 0                                                                     LOG SECTION - CONIC SUBROUTINES
000185:                                                                                                  #  MOD BY KRAUSE                                                                   ASSEMBLY - COLOSSUS REVISION 88
000186:
000187:
000188:
000189:                                                                                                  #  FUNCTIONAL DESCRIPTION -
000190:
000191:                                                                                                  #       THIS SUBROUTINE CALCULATES THE INITIAL VELOCITY REQUIRED TO TRANSFER A POINT-MASS ALONG A CONIC TRAJECTORY
000192:                                                                                                  #  FROM AN INITIAL POSITION TO A TERMINAL POSITION IN A PRESCRIBED TIME INTERVAL.  THE RESULTING TRAJECTORY MAY BE
000193:                                                                                                  #  A SECTION OF A CIRCLE, ELLIPSE, PARABOLA, OR HYPERBOLA WITH RESPECT TO THE EARTH OR THE MOON.  THE USE OF THE
000194:                                                                                                  #  SUBROUTINE CAN BE EXTENDED USING OTHER PRIMARY BODIES BY SIMPLE ADDITIONS TO THE MUTABLE WITHOUT INTRODUCING ANY
000195:                                                                                                  #  CODING CHANGES, ACCEPTING THE INHERENT SCALE FACTOR CHANGES IN POSITION AND VELOCITY.  AN ITERATION TECHNIQUE IS
000196:                                                                                                  #  UTILIZED IN THE COMPUTATION.
000197:
000198:
000199:                                                                                                  #  THE RESTRICTIONS ARE -
000200:                                                                                                  #       1. RECTILINEAR TRAJECTORIES CANNOT BE COMPUTED.
000201:                                                                                                  #       2. AN ACCURACY DEGRADATION OCCURS AS THE COSINE OF THE TRUE ANOMALY DIFFERENCE APPROACHES +1.0.
000202:                                                                                                  #       3. THE ANGLE BETWEEN ANY POSITION VECTOR AND ITS VELOCITY VECTOR MUST BE GREATER THAN 1 DEGREE 47.5 MINUTES
000203:                                                                                                  #  AND LESS THAN 178 DEGREES 12.5 MINUTES.
000204:                                                                                                  #       4. NEGATIVE TRANSFER TIME IS AMBIGUOUS AND WILL RESULT IN NO SOLUTION.
000205:                                                                                                  #       5. THE PARAMETERS IN THE PROBLEM MUST NOT EXCEED THEIR SCALING LIMITS SPECIFIED IN THE GSOP.  IF THE
000206:                                                                                                  #  LIMITS ARE EXCEEDED, THE RESULTING SOLUTION WILL BE MEANINGLESS.
000207:                                                                                                  #       THE NUMBER OF ITERATIONS AND, THEREFORE, THE COMPUTATIONS SPEED IS DEPENDENT ON THE ACCURACY OF THE FIRST
000208:                                                                                                  #  GUESS OF THE INDEPENDENT VARIABLE, COGA.                                THE AGC COMPUTATION TIME IS APPROXIMATE-
000209:                                                                                                  #  LY .105 SECONDS FOR INITIALIZATION, .069 SECONDS FOR FINAL COMPUTATIONS, PLUS .205 SECONDS FOR EACH ITERATION.
000210:
000211:
000212:
000213:                                                                                                  #  REFERENCES -
000214:                                                                                                  #       R-479, MISSION PROGRAMMING DEFINITION MEMO NO. 10, LUNAR LANDING MISSION GSOP-SECTION 5.5, SGA MEMO 67-8,
000215:                                                                                                  #  SGA MEMO 67-4.
000216:
000217:
000218:
000219:                                                                                                  #  INPUT - ERASABLE INITIALIZATION REQUIRED
000220:
000221:                                                                                                  #          * SCALE FACTOR *
000222:                                                                                                  #  VARIABLE*IN POWERS OF 2*                         DESCRIPTION AND REMARKS
000223:                                                                                                  #  --------*--------------*                         -----------------------
000224:                                                                                                  #  R1VEC   * +29 FOR EARTH*DP INITIAL POSITION VECTOR IN METERS
000225:                                                                                                  #          * +27 FOR MOON *
000226:                                                                                                  #  R2VEC   * +29 FOR EARTH*DP TARGET OR TERMINAL POSITION VECTOR IN METERS
000227:                                                                                                  #          * +27 FOR MOON *
000228:                                                                                                  #  TDESIRED* +28          *DP DESIRED TRANSFER TIME IN CENTISECONDS
000229:                                                                                                  #  X1 (38D)* NONE         *INDEX REGISTER SET TO -2D OR -10D ACCORDING TO WHETHER THE EARTH OR MOON,
000230:                                                                                                  #          *              *RESPECTIVELY, IS THE CENTRAL BODY
000231:                                                                                                  #  GEOMSGN * NONE         *SP +.5 IF DESIRED TRANSFER ANGLE IS LESS THAN 180 DEGREES, -.5 IF GREATER THAN 180 DEG.
000232:                                                                                                  #  GUESSW  * NONE         *AN INTERPRETER SWITCH TO BE SET IF NO GUESS OF COGA IS AVAILABLE, CLEAR IF A GUESS OF


000234:                                                                                                  #          *              *COGA IS TO BE USED BY LAMBERT
000235:                                                                                                  #  COGA    * +5           *DP GUESS OF COTANGNT OF FLIGHT PATH ANGLE (MEASURED FROM VERTICAL).  THIS WILL BE
000236:                                                                                                  #                         *IGNORED IF GUESSW IS SET.
000237:                                                                                                  #  NORMSW  * NONE         *AN INTERPRETER SWITCH TO BE SET IF UN IS TO BE AN INPUT TO THE SUBROUTINE, CLEAR IF
000238:                                                                                                  #          *              *LAMBERT IS TO COMPUTE ITS OWN NORMAL (UN).
000239:                                                                                                  #  UN      * +1           *DP UNIT  NORMAL TO THE DESIRED ORBIT PLANE IN THE DIRECTION OF THE RESULTING ANGULAR
000240:                                                                                                  #          *              *MOMENTUM VECTOR.  THIS WILL BE IGNORED IF NORMSW IS CLEAR.
000241:                                                                                                  #  VTARGTAG* NONE         *A S.P. TAG TO BE SET TO ZERO IF LAMBERT IS TO COMPUTE THE VELOCITY AT R2VEC AS WELL AS
000242:                                                                                                  #          *              *AT R1VEC.
000243:                                                                                                  #  ITERCTR * NONE         *A S.P. COUNTER WHICH SPECIFIES THE MAXIMUM NUMBER OF ITERATIONS ALLOWABLE.
000244:                                                                                                  #          *              *(AN ITERATION MEANS A PASS THRU KEPLER EQN (DELTIME). AT LEAST ONE OF THESE MUST
000245:                                                                                                  #          *              *ALWAYS OCCUR, EVEN IF COGA CORRESPONDING TO SOLUTION WERE INPUT AS A GUESS.)
000246:                                                                                                  #          *              *TWENTY ITERATIONS ARE SUFFICIENT TO SOLVE ALL PROBLEMS INCLUDING THOSE WITHOUT GUESS.
000247:
000248:
000249:                                                                                                  #  SUBROUTINES CALLED -
000250:                                                                                                  #       GEOM, GETX, DELTIME, ITERATOR, LAMENTER (PART OF NEWSTATE)
000251:
000252:
000253:
000254:                                                                                                  #  CALLING SEQUENCE AND NORMAL EXIT MODES -
000255:
000256:                                                                                                  #  L        CALL                   MUST BE IN INTERPRETIVE MODE BUT OVFIND ARBITRARY.
000257:                                                                                                  #  L+1             LAMBERT         RETURNS WITH PL AT 0 AND WITH VVEC IN MPAC IF VTARGTAG WAS NON-ZERO OR VTARGET
000258:                                                                                                  #                                  IN MPAC IF VTARGTAG WAS ZERO
000259:                                                                                                  #  L+2      BON                    CONTINUE IF SOLNSW CLEAR SINCE SOLUTION IS ACCEPTABLE
000260:                                                                                                  #  L+3             SOLNSW
000261:                                                                                                  #  L+4             LAMABORT
000262:                                                                                                  #       IF A LAMBERT RESULT IS TO BE A FIRST GUESS FOR THE NEXT LAMBERT CALCULATION, COGA MUST BE PRESERVED AND
000263:                                                                                                  #  GUESSW MUST BE CLEAR FOR EACH SUCCEEDING LAMBERT CALL.
000264:
000265:
000266:
000267:                                                                                                  #  ABORT EXIT MODES -
000268:                                                                                                  #       IF SOLNSW WAS SET UPON EXITING, EITHER LAMBERT WAS ASKED TO COMPUTE A TRANSFER TOO NEAR 0 OR 360 DEG, OR T
000269:                                                                                                  #  WAS TOO SMALL TO PRODUCE A REALISTIC TRANSFER BETWEEN R1VEC AND R2VEC.  IN EITHER CASE THE FIX MUST BE MADE
000270:                                                                                                  #  ACCORDING TO THE NEEDS OF THE PARTICULAR USER.  THE ABORT EXIT MODE MAY BE CODED AS ...
000271:                                                                                                  #  LAMABORT DLOAD    ABS                   A MEASURE OF PROXIMITY TO 0 OR
000272:                                                                                                  #                    1-CSTH                360 DEGREES.
000273:                                                                                                  #           DSU      BMM
000274:                                                                                                  #                    ONEBIT
000275:                                                                                                  #                    CHANGER2              CHANGE R2VEC DIRECTION SLIGHTLY.
000276:                                                                                                  #           DLOAD    DAD
000277:                                                                                                  #                    TDESIRED
000278:                                                                                                  #                    SOMETIME
000279:                                                                                                  #           STCALL   TDESIRED              INCREASE TDESIRED
000280:                                                                                                  #                    LAMBERT
000281:
000282:


000284:                                                                                                  #  OUTPUT -
000285:                                                                                                  #          * SCALE FACTOR *
000286:                                                                                                  #  VARIABLE*IN POWERS OF 2*                         DESCRIPTION AND REMARKS
000287:                                                                                                  #  --------*--------------*                         -----------------------
000288:                                                                                                  #  VVEC    * +7 FOR EARTH *DP INITIAL VELOCITY VECTOR IN METERS/CENTISECOND REQUIRED TO SATISFY THE BOUNDARY VALUE
000289:                                                                                                  #          * +5 FOR MOON  *PROBLEM.
000290:                                                                                                  #  VTARGET * +7 FOR EARTH *DP RESULTANT VELOCITY VECTOR AT R2VEC IN METERS/CENTISECOND.
000291:                                                                                                  #          * +5 FOR MOON  *
000292:                                                                                                  #  SOLNSW  * NONE         *INTERPRETER SWITCH WHICH IS SET IF THE SUBROUTINE CANNOT SOLVE THE PROBLEM, CLEAR IF THE
000293:                                                                                                  #          *              *SOLUTION EXISTS.
000294:                                                                                                  #  FOR OTHER OUTPUT WHICH MAY BE OF USE, SEE DEBRIS.
000295:
000296:
000297:
000298:                                                                                                  #  DEBRIS -
000299:                                                                                                  #       PARAMETERS WHICH MAY BE OF USE -
000300:
000301:                                                                                                  #          * SCALE FACTOR *
000302:                                                                                                  #  VARIABLE*IN POWERS OF 2*                         DESCRIPTION AND REMARKS
000303:                                                                                                  #  --------*--------------*                         -----------------------
000304:                                                                                                  #  SNTH    * +1           *DP SIN OF ANGLE BETWEEN R1VEC AND R2VEC
000305:                                                                                                  #  CSTH    * +1           *DP COSINE OF ANGLE
000306:                                                                                                  #  1-CSTH  * +2           *DP 1-CSTH
000307:                                                                                                  #  COGA    * +5           *DP COTAN OF INITIAL REQUIRED FLIGHT PATH ANGLE MEASURED FROM VERTICAL
000308:                                                                                                  #  P       * +4           *DP RATIO  OF SEMILATUS RECTUM TO INITIAL RADIUS
000309:                                                                                                  #  R1A     * +6           *DP RATIO OF INITIAL RADIUS TO SEMIMAJOR AXIS
000310:                                                                                                  #  R1 (32D)* +29 FOR EARTH*DP INITIAL RADIUS IN METERS
000311:                                                                                                  #          * +27 FOR MOON *
000312:                                                                                                  #  UR1     * +1           *DP UNIT VECTOR OF R1VEC
000313:                                                                                                  #  U2      * +1           *DP UNIT VECTOR OF R2VEC
000314:
000315:                                                                                                  #       PARAMETERS OF NO USE
000316:                                                                                                  #  DP PARAMETERS - EPSILONL, CSTH-RHO, TPREV, TERRLAMB, R2, RTNLAMB (SP), PLUS PUSHLIST REGISTER 0 THROUGH 41D
000317:                                                                                                  #  ADDITIONAL INTERPRETIVE SWITCHES USED - INFINFLG, 360SW, SLOPESW, ORDERSW
000318:
000319:


000321:                                                                                                  #  PROGRAM DESCRIPTION - TIME-THETA SUBROUTINE                                     DATE - 1 SEPTEMBER 1967
000322:                                                                                                  #  MOD NO. - 0                                                                     LOG SECTION - CONIC SUBROUTINES
000323:                                                                                                  #  MOD BY KRAUSE                                                                   ASSEMBLY - COLOSSUS REVISION 88
000324:
000325:
000326:
000327:                                                                                                  #  FUNCTIONAL DESCRIPTION -
000328:
000329:                                                                                                  #       THIS SUBROUTINE, GIVEN AN INITIAL STATE VECTOR AND A DESIRED TRUE-ANOMALY-DIFFERENCE THROUGH WHICH THE
000330:                                                                                                  #  STATE IS TO BE UPDATED ALONG A CONIC TRAJECTORY, CALCULATES THE CORRESPONDING TIME-OF-FLIGHT AND, IN ADDITION,
000331:                                                                                                  #  PROVIDES THE OPTION OF COMPUTING THE NEW UPDATED STATE VECTOR.  THE RESULTING TRAJECTORY MAY BE A SECTION OF A
000332:                                                                                                  #  CIRCLE, ELLIPSE, PARABOLA, OR HYPERBOLA WITH RESPECT TO THE EARTH OR THE MOON.  THE USE OF THE SUBROUTINE CAN BE
000333:                                                                                                  #  EXTENDED USING OTHER PRIMARY BODIES BY SIMPLE ADDITIONS TO THE MUTABLE WITHOUT INTRODUCING ANY CODING CHANGES,
000334:                                                                                                  #  ACCEPTING THE INHERENT SCALE FACTOR CHANGES IN POSITION AND VELOCITY.
000335:
000336:
000337:                                                                                                  #  THE RESTRICTIONS ARE -
000338:                                                                                                  #       1. THE ANGLE BETWEEN ANY POSITION VECTOR AND ITS VELOCITY VECTOR MUST BE GREATER THAN 1 DEGREE 47.5 MINUTES
000339:                                                                                                  #  AND LESS THAN 178 DEGREES 12.5 MINUTES.
000340:                                                                                                  #       2. THE PARAMETERS IN THE PROBLEM MUST NOT EXCEED THEIR SCALING LIMITS SPECIFIED IN THE GSCP.  IF THE LIMITS
000341:                                                                                                  #  ARE EXCEEDED, THE RESULTING SOLUTION WILL BE MEANINGLESS.
000342:
000343:                                                                                                  #       THE AGC COMPUTATION TIME IS APPROXIMATELY .292 SECONDS.
000344:
000345:
000346:
000347:                                                                                                  #  REFERENCES -
000348:                                                                                                  #       R-479, MISSION PROGRAMMING DEFINITION MEMO NO. 10, LUNAR LANDING MISSION GSOP-SECTION 5.5, SGA MEMO 67-8.
000349:
000350:
000351:
000352:                                                                                                  #  INPUT - ERASABLE INITIALIZATION REQUIRED
000353:
000354:                                                                                                  #          * SCALE FACTOR *
000355:                                                                                                  #  VARIABLE*IN POWERS OF 2*                         DESCRIPTION AND REMARKS
000356:                                                                                                  #  --------*--------------*                         -----------------------
000357:                                                                                                  #  RVEC    * +29 FOR EARTH*DP INITIAL POSITION VECTOR IN METERS
000358:                                                                                                  #          * +27 FOR MOON *
000359:                                                                                                  #  VVEC    * +7 FOR EARTH *DP INITIAL VELOCITY VECTOR IN METERS/CENTISECOND
000360:                                                                                                  #          * +5 FOR MOON  *
000361:                                                                                                  #  SNTH    * +1           *DP SINE OF TRUE-ANOMALY-DIFFERENCE THROUGH WHICH THE STATE IS TO BE UPDATED
000362:                                                                                                  #  CSTH    * +1           *DP COSINE OF THE ANGLE
000363:                                                                                                  #  RVSW    * NONE         *AN INTERPRETIVE SWITCH TO BE SET IF ONLY TIME IS TO BE AN OUTPUT, CLEAR IF THE NEW STATE
000364:                                                                                                  #          *              *IS TO BE COMPUTED ALSO.
000365:                                                                                                  #  X1 (38D)* NONE         *INDEX REGISTER TO BE SET TO -2D OR -10D ACCORDING TO WHETHER THE EARTH OR MOON,
000366:                                                                                                  #          *              *RESPECTIVELY, IS THE CENTRAL BODY.
000367:
000368:
000369:
000370:                                                                                                  #  SUBROUTINES CALLED -


000372:                                                                                                  #       PARAM, GEOM, GETX, DELTIME, NEWSTATE
000373:
000374:
000375:
000376:                                                                                                  #  CALLING SEQUENCE AND NORMAL EXIT MODES -
000377:
000378:                                                                                                  #     IF ONLY TIME IS DESIRED AS OUTPUT -
000379:                                                                                                  #  L        SET    CALL            MUST BE IN INTERPRETIVE MODE BUT OVFIND ARBITRARY.
000380:                                                                                                  #  L+1             RVSW
000381:                                                                                                  #  L+2             TIMETHET        RETURN WITH PL AT 0 AND T IN MPAC
000382:                                                                                                  #  L+3      ...                    CONTINUE
000383:
000384:
000385:                                                                                                  #     IF THE UPDATE STATE VECTOR IS DESIRED AS WELL -
000386:                                                                                                  #  L        CLEAR  CALL            MUST BE IN INTERPRETIVE MODE BUT OVFIND ARBITRARY.
000387:                                                                                                  #  L+1             RVSW
000388:                                                                                                  #  L+2             TIMETHET        RETURNS WITH PL AT 6.  THE INITIAL POSITION VECTOR IS IN 0D OF THE PUSHLIST AND
000389:                                                                                                  #                                  THE INITIAL VELOCITY VECTOR IN MPAC.
000390:                                                                                                  #  L+3      STOVL  NEWVVEC
000391:                                                                                                  #  L+4      STADR
000392:                                                                                                  #  L+5      STORE  NEWRVEC                 NEWVVEC AND NEWRVEC ARE SYMBOLIC REPRESENTATIONS OF THE USERS LOCATIONS.
000393:                                                                                                  #  L+6      ...                            CONTINUE
000394:
000395:
000396:
000397:                                                                                                  #  ABORT EXIT MODES -
000398:                                                                                                  #           IF COGAFLAG AND/OR INFINFLG IS SET AT THE EXIT TO TIME-THETA, TIME-THETA WILL TRANSFER TO POODOO WITH
000399:                                                                                                  #           AN ALARM CODE (ORIGINALLY 00607), AND NOT RETURN TO THE CALLING PROGRAM. (PCR 692 AND 721).
000400:
000401:
000402:
000403:                                                                                                  #  OUTPUT -
000404:                                                                                                  #          * SCALE FACTOR *
000405:                                                                                                  #  VARIABLE*IN POWERS OF 2*                         DESCRIPTION AND REMARKS
000406:                                                                                                  #  --------*--------------*                         -----------------------
000407:                                                                                                  #  T (30D) * +28          *DP TRANSFER TIME IN CENTISECONDS
000408:                                                                                                  #  INFINFLG* NONE         *AN INTERPRETIVE SWITCH WHICH IS SET IF THE TRANSFER ANGLE REQUIRES CLOSURE THROUGH
000409:                                                                                                  #          *              *INFINITY (NO SOLUTION), CLEAR IF A PHYSICAL SOLUTION IS POSSIBLE.
000410:                                                                                                  #  COGAFLAG* NONE         *AN INTERPRETIVE SWITCH WHICH IS SET IF RESTRICTION 1 HAS BEEN VIOLATED (NO SOLUTION),
000411:                                                                                                  #          *              *CLEAR IF NOT.
000412:
000413:                                                                                                  #  IN ADDITION, IF RVSW IS CLEAR, THE FOLLOWING ARE OUTPUT-
000414:
000415:                                                                                                  #  MPAC -  * +7 FOR EARTH *DP TERMINAL VELOCITY VECTOR IN METERS/CENTISEC.
000416:                                                                                                  #   MPAC +5* +5 FOR MOON  *
000417:                                                                                                  #  0D - 5D * +29 FOR EARTH*DP TERMINAL POSITION VECTOR IN METERS (PL AT 6D)
000418:                                                                                                  #          * +27 FOR MOON *
000419:
000420:                                                                                                  #  FOR OTHER OUTPUT WHICH MAY BE OF USE, SEE DEBRIS.
000421:
000422:


000424:                                                                                                  #  DEBRIS -
000425:
000426:                                                                                                  #       PARAMETERS WHICH MAY BE OF USE -
000427:
000428:                                                                                                  #          * SCALE FACTOR *
000429:                                                                                                  #  VARIABLE*IN POWERS OF 2*                         DESCRIPTION AND REMARKS
000430:                                                                                                  #  --------*--------------*                         -----------------------
000431:                                                                                                  #  R1 (32D)* +29 FOR EARTH*DP MAGNITUDE OF INITIAL POSITION VECTOR, RVEC, IN METERS
000432:                                                                                                  #          * +27 FOR MOON *
000433:                                                                                                  #  R1A     * +6           *DP RATIO OF R1 TO SEMIMAJOR AXIS (NEG. FOR HYPERBOLIC TRAJECTORIES)
000434:                                                                                                  #  P       * +4           *DP RATIO OF SEMILATUS RECTUM TO R1
000435:                                                                                                  #  COGA    * +5           *DP COTAN OF ANGLE BETWEEN RVEC AND VVEC
000436:                                                                                                  #  UR1     * +1           *DP UNIT VECTOR OF RVEC
000437:                                                                                                  #  U2      * +1           *DP UNIT VECTOR OF VVEC
000438:                                                                                                  #  UN      * +1           *DP UNIT VECTOR OF UR1*U2
000439:
000440:
000441:                                                                                                  #       PARAMETERS OF NO USE -
000442:                                                                                                  #  SP PARAMETERS -  RTNTT, GEOMSGN, RTNPRM, MAGVEC2=R2 (DP), PLUS PUSHLIST LOCATIONS 0-11D, 14D-21D, 24D-39D, 41D
000443:                                                                                                  #  ADDITIONAL INTERPRETIVE SWITCHES USED - NORMSW, 360SW
000444:
000445:


000447:                                                                                                  #  PROGRAM DESCRIPTION - TIME-RADIUS SUBROUTINE                            DATE - 11 OCTOBER 1967
000448:                                                                                                  #  MOD NO. -1                                                                      LOG SECTION - CONIC SUBROUTINES
000449:                                                                                                  #  MOD BY KRAUSE                                                                   ASSEMBLY - COLOSSUS REVISION 88
000450:
000451:
000452:
000453:                                                                                                  #  FUNCTIONAL DESCRIPTION -
000454:
000455:                                                                                                  #       THIS SUBROUTINE, GIVEN AN INITIAL STATE VECTOR AND A DESIRED RADIUS TO WHICH THE
000456:                                                                                                  #  STATE IS TO BE UPDATED ALONG A CONIC TRAJECTORY, CALCULATES THE CORRESPONDING TIME-OF-FLIGHT AND, IN ADDITION,
000457:                                                                                                  #  PROVIDES THE OPTION OF COMPUTING THE NEW UPDATED STATE VECTOR.  THE RESULTING TRAJECTORY MAY BE A SECTION OF A
000458:                                                                                                  #  CIRCLE, ELLIPSE, PARABOLA, OR HYPERBOLA WITH RESPECT TO THE EARTH OR THE MOON.  THE USE OF THE SUBROUTINE CAN BE
000459:                                                                                                  #  EXTENDED USING OTHER PRIMARY BODIES BY SIMPLE ADDITIONS TO THE MUTABLE WITHOUT INTRODUCING ANY CODING CHANGES,
000460:                                                                                                  #  ACCEPTING THE INHERENT SCALE FACTOR CHANGES IN POSITION AND VELOCITY.
000461:                                                                                                  #       IF THE DESIRED RADIUS IS BEYOND THE RADIUS OF APOCENTER OF THE CONIC OR BELOW THE RADIUS OF PERICENTER,
000462:                                                                                                  #  APSESW WILL BE SET AND THE SUBROUTINE WILL RETURN THE APOCENTER OR PERICENTER SOLUTION, RESPECTIVELY.
000463:
000464:
000465:                                                                                                  #  THE RESTRICTIONS ARE -
000466:                                                                                                  #       1. THE ANGLE BETWEEN ANY POSITION VECTOR AND ITS VELOCITY VECTOR MUST BE GREATER THAN 1 DEGREE 47.5 MINUTES
000467:                                                                                                  #  AND LESS THAN 178 DEGREES 12.5 MINUTES.
000468:                                                                                                  #       2. THE PARAMETERS IN THE PROBLEM MUST NOT EXCEED THEIR SCALING LIMITS SPECIFIED IN THE GSOP.  IF THE LIMITS
000469:                                                                                                  #  ARE EXCEEDED, THE RESULTING SOLUTION WILL BE MEANINGLESS.
000470:                                                                                                  #       3. AN ACCURACY DEGRADATION OCCURS AS THE SENSITIVITIES OF TIME AND UPDATED STATE VECTOR TO CHANGES IN
000471:                                                                                                  #  RDESIRED INCREASE.  THIS WILL OCCUR NEAR EITHER APSIS OF THE CONIC AND WHEN THE CONIC IS NEARLY CIRCULAR.  IN
000472:                                                                                                  #  PARTICULAR, IF THE CONIC IS AN EXACT CIRCLE, THE PROBLEM IS UNDEFINED AND THE SUBROUTINE WILL ABORT.
000473:
000474:
000475:                                                                                                  #       THE AGC COMPUTATION TIME IS APPROXIMATELY .363 SECONDS
000476:
000477:
000478:
000479:                                                                                                  #  REFERENCES -
000480:                                                                                                  #       R-479, MISSION PROGRAMMING DEFINITION MEMO NO. 10, LUNAR LANDING MISSION GSOP-SECTION 5.5, SGA MEMO 67-8.
000481:
000482:
000483:
000484:                                                                                                  #  INPUT - ERASABLE INITIALIZATION REQUIRED
000485:                                                                                                  #          * SCALE FACTOR *
000486:                                                                                                  #  VARIABLE*IN POWERS OF 2*                         DESCRIPTION AND REMARKS
000487:                                                                                                  #  --------*--------------*                         -----------------------
000488:                                                                                                  #  RVEC    * +29 FOR EARTH*DP INITIAL POSITION VECTOR IN METERS
000489:                                                                                                  #          * +27 FOR MOON *
000490:                                                                                                  #  VVEC    * +7 FOR EARTH *DP INITIAL VELOCITY VECTOR IN METERS/CENTISECOND
000491:                                                                                                  #          * +5 FOR MOON  *
000492:                                                                                                  #  RDESIRED* +29 FOR EARTH*DP TERMINAL RADIAL DISTANCE ON CONIC TRAJECTORY FOR WHICH TRANSFER TIME IS TO BE
000493:                                                                                                  #          * +27 FOR MOON *COMPUTED.
000494:                                                                                                  #  SGNRDOT * NONE         *SP TAG SET TO +.5 OR -.5 ACCORDING TO WHETHER THE RADIAL VELOCITY AT RDESIRED IS TO BE
000495:                                                                                                  #          *              *POSITIVE OR NEGATIVE, RESPECTIVELY.  THIS TAG REDUCES THE DOUBLE-VALUED PROBLEM TO A


000497:                                                                                                  #          *              *SINGLE-VALUED PROBLEM.
000498:                                                                                                  #  X1 (38D)* NONE         *INDEX REGISTER TO BE SET TO -2D OR -10D ACCORDING TO WHETHER THE EARTH OR MOON,
000499:                                                                                                  #          *              *RESPECTIVELY, IS THE CENTRAL BODY.
000500:                                                                                                  #  RVSW    * NONE         *AN INTERPRETIVE SWITCH TO BE SET IF ONLY TIME IS TO BE AN OUTPUT, CLEAR IF THE NEW STATE
000501:                                                                                                  #          *              *IS TO BE COMPUTED ALSO.
000502:
000503:
000504:
000505:                                                                                                  #  SUBROUTINES CALLED -
000506:                                                                                                  #       PARAM, GEOM, GETX, DELTIME, NEWSTATE
000507:
000508:
000509:
000510:                                                                                                  #  CALLING SEQUENCE AND NORMAL EXIT MODES -
000511:
000512:                                                                                                  #     IF ONLY TIME IS DESIRED AS OUTPUT -
000513:                                                                                                  #  L        SET    CALL            MUST BE IN INTERPRETIVE MODE BUT OVFIND ARBITRARY.
000514:                                                                                                  #  L+1             RVSW
000515:                                                                                                  #  L+2             TIMERAD         RETURN WITH PL AT 0 AND T IN MPAC
000516:                                                                                                  #  L+3      ...                    CONTINUE
000517:
000518:
000519:                                                                                                  #     IF THE UPDATE STATE VECTOR IS DESIRED AS WELL -
000520:                                                                                                  #  L        CLEAR  CALL            MUST BE IN INTERPRETIVE MODE BUT OVFIND ARBITRARY.
000521:                                                                                                  #  L+1             RVSW
000522:                                                                                                  #  L+2             TIMERAD         RETURNS WITH PL AT 6.  THE INITIAL POSITION VECTOR IS IN 0D OF THE PUSHLIST AND
000523:                                                                                                  #                                  THE INITIAL VELOCITY VECTOR IN MPAC.
000524:                                                                                                  #  L+3      STOVL  NEWVVEC
000525:                                                                                                  #  L+4      STADR
000526:                                                                                                  #  L+5      STORE  NEWRVEC                 NEWVVEC AND NEWRVEC ARE SYMBOLIC REPRESENTATIONS OF THE USERS LOCATIONS.
000527:                                                                                                  #  L+6      ...                            CONTINUE
000528:
000529:
000530:
000531:                                                                                                  #  ABORT EXIT MODES -
000532:                                                                                                  #           IF SOLNSW AND/OR COGAFLAG AND/OR INFINFLG IS SET AT THE EXIT TO TIME-RADIUS, TIME-RADIUS WILL TRANSFER
000533:                                                                                                  #           TO POODOO WITH AN ALARM CODE (ORIGINALLY 00607), AND NOT RETURN TO THE CALLING PROGRAM. (PCR 692 & 721)
000534:
000535:
000536:
000537:                                                                                                  #  OUTPUT -
000538:                                                                                                  #          * SCALE FACTOR *
000539:                                                                                                  #  VARIABLE*IN POWERS OF 2*                         DESCRIPTION AND REMARKS
000540:                                                                                                  #  --------*--------------*                         -----------------------
000541:                                                                                                  #  T (30D) * +28          *DP TRANSFER TIME IN CENTISECONDS
000542:                                                                                                  #  INFINFLG* NONE         *AN INTERPRETIVE SWITCH WHICH IS SET IF RDESIRED AND SGNRDOT REQUIRE CLOSURE THROUGH
000543:                                                                                                  #          *              *INFINITY (NO SOLUTION), CLEAR IF A PHYSICAL SOLUTION IS POSSIBLE.
000544:                                                                                                  #  COGAFLAG* NONE         *AN INTERPRETIVE SWITCH WHICH IS SET IF RESTRICTION 1 HAS BEEN VIOLATED (NO SOLUTION),
000545:                                                                                                  #          *              *CLEAR IF NOT.
000546:                                                                                                  #  APSESW  * NONE         *AN INTERPRETIVE SWITCH WHICH IS SET IF RDESIRED WAS GREATER THAN RADIUS OF APOCENTER OR


000548:                                                                                                  #          *              *LESS THAN RADIUS OF PERICENTER.  THE APOCENTER OR PERICENTER SOLUTION, RESPECTIVELY,
000549:                                                                                                  #          *              *WILL THEN BE RETURNED.  THE SWITCH IS CLEAR IF RDESIRED WAS BETWEEN PERICENTER AND
000550:                                                                                                  #          *              *APOCENTER.
000551:                                                                                                  #  SOLNSW  * NONE         *AN INTERPRETIVE SWITCH WHICH IS SET IF THE CONIC IS SO CLOSE TO A CIRCLE THAT THE TERMIN
000552:                                                                                                  #                         *POINT IS AMBIGUOUS, VIOLATING RESTRICTION 3.  IF ECCENTRICITY IS GREATER THAN 2-TO-THE-
000553:                                                                                                  #                         *MINUS-18, THE SWITCH IS CLEAR.
000554:
000555:
000556:                                                                                                  #  IN ADDITION, IF RVSW IS CLEAR, THE FOLLOWING ARE OUTPUT-
000557:
000558:                                                                                                  #  MPAC -  * +7 FOR EARTH *DP TERMINAL VELOCITY VECTOR IN METERS/CENTISEC.
000559:                                                                                                  #   MPAC +5* +5 FOR MOON  *
000560:                                                                                                  #  0D - 5D * +29 FOR EARTH*DP TERMINAL POSITION VECTOR IN METERS (PL AT 6D)
000561:                                                                                                  #          * +27 FOR MOON *
000562:
000563:                                                                                                  #  FOR OTHER OUTPUT WHICH MAY BE OF USE, SEE DEBRIS.
000564:
000565:
000566:
000567:                                                                                                  #  DEBRIS -
000568:
000569:                                                                                                  #       PARAMETERS WHICH MAY BE OF USE -
000570:
000571:                                                                                                  #          * SCALE FACTOR *
000572:                                                                                                  #  VARIABLE*IN POWERS OF 2*                         DESCRIPTION AND REMARKS
000573:                                                                                                  #  --------*--------------*                         -----------------------
000574:                                                                                                  #  R1 (32D)* +29 FOR EARTH*DP MAGNITUDE OF INITIAL POSITION VECTOR, RVEC, IN METERS
000575:                                                                                                  #          * +27 FOR MOON *
000576:                                                                                                  #  R1A     * +6           *DP RATIO OF R1 TO SEMIMAJOR AXIS (NEG. FOR HYPERBOLIC TRAJECTORIES)
000577:                                                                                                  #  P       * +4           *DP RATIO OF SEMILATUS RECTUM TO R1
000578:                                                                                                  #  COGA    * +5           *DP COTAN OF ANGLE BETWEEN RVEC AND VVEC
000579:                                                                                                  #  UR1     * +1           *DP UNIT VECTOR OF RVEC
000580:                                                                                                  #  U2      * +1           *DP UNIT VECTOR OF VVEC
000581:                                                                                                  #  UN      * +1           *DP UNIT VECTOR OF UR1*U2
000582:                                                                                                  #  CSTH    * +1           *DP COSINE OF TRUE ANOMALY DIFFERENCE BETWEEN RVEC AND RDESIRED.
000583:                                                                                                  #  SNTH    * +1           *DP SINE OF TRUE ANOMALY DIFFERENCE.
000584:
000585:
000586:                                                                                                  #       PARAMETERS OF NO USE -
000587:                                                                                                  #  SP PARAMETERS -  RTNTT, GEOMSGN, RTNPRM, MAGVEC2=R2 (DP), PLUS PUSHLIST LOCATIONS 0-11D, 14D-21D, 24D-39D, 41D
000588:                                                                                                  #  ADDITIONAL INTERPRETIVE SWITCHES USED - NORMSW, 360SW
000589:
000590:


000592:                                                                                                  #  PROGRAM DESCRIPTION - APSIDES SUBROUTINE                                        DATE - 1 SEPTEMBER 1967
000593:                                                                                                  #  MOD NO. - 0                                                                     LOG SECTION - CONIC SUBROUTINES
000594:                                                                                                  #  MOD BY KRAUSE                                                                   ASSEMBLY - COLOSSUS REVISION 88
000595:
000596:
000597:
000598:                                                                                                  #  FUNCTIONAL DESCRIPTION -
000599:
000600:                                                                                                  #       THIS SUBROUTINE, GIVEN AN INITIAL STATE VECTOR CALCULATES THE RADIUS OF PERICENTER AND OF APOCENTER AND THE
000601:                                                                                                  #  ECCENTRICITY OF THE RESULTING CONIC TRAJECTORY, WHICH MAY BE A STRAIGHT LINE,
000602:                                                                                                  #  CIRCLE, ELLIPSE, PARABOLA, OR HYPERBOLA WITH RESPECT TO THE EARTH OR THE MOON.  THE USE OF THE SUBROUTINE CAN BE
000603:                                                                                                  #  EXTENDED USING OTHER PRIMARY BODIES BY SIMPLE ADDITIONS TO THE MUTABLE WITHOUT INTRODUCING ANY CODING CHANGES,
000604:                                                                                                  #  ACCEPTING THE INHERENT SCALE FACTOR CHANGES IN POSITION AND VELOCITY.
000605:
000606:
000607:                                                                                                  #  THE RESTRICTIONS ARE -
000608:                                                                                                  #       1.  IF APOCENTER IS BEYOND THE SCALING OF POSITION, THE SCALE FACTOR LIMIT (536,870,910 METERS WITH RESPECT
000609:                                                                                                  #  TO THE EARTH OR 134,217,727.5 METERS WITH RESPECT TO THE MOON) WILL BE RETURNED.
000610:                                                                                                  #       2. THE PARAMETERS IN THE PROBLEM MUST NOT EXCEED THEIR SCALING LIMITS SPECIFIED IN THE GSOP.  IF THE LIMITS
000611:                                                                                                  #  ARE EXCEEDED, THE RESULTING SOLUTION WILL BE MEANINGLESS.
000612:
000613:                                                                                                  #       THE AGC COMPUTATION TIME IS APPROXIMATELY .103 SECONDS.
000614:
000615:
000616:
000617:                                                                                                  #  REFERENCES -
000618:                                                                                                  #       MISSION PROGRAMMING DEFINITION MEMO NO. 10, LUNAR LANDING MISSION GSOP-SECTION 5.5
000619:
000620:
000621:
000622:                                                                                                  #  INPUT - ERASABLE INITIALIZATION REQUIRED
000623:
000624:                                                                                                  #          * SCALE FACTOR *
000625:                                                                                                  #  VARIABLE*IN POWERS OF 2*                         DESCRIPTION AND REMARKS
000626:                                                                                                  #  --------*--------------*                         -----------------------
000627:                                                                                                  #  RVEC    * +29 FOR EARTH*DP INITIAL POSITION VECTOR IN METERS
000628:                                                                                                  #          * +27 FOR MOON *
000629:                                                                                                  #  VVEC    * +7 FOR EARTH *DP INITIAL VELOCITY VECTOR IN METERS/CENTISECOND
000630:                                                                                                  #          * +5 FOR MOON  *
000631:                                                                                                  #  X1 (38D)*NONE          *INDEX REGISTER TO BE SET TO -2D OR -10D ACCORDING TO WHETHER THE EARTH OR MOON,
000632:                                                                                                  #          *              *RESPECTIVELY, IS THE CENTRAL BODY.
000633:
000634:
000635:
000636:                                                                                                  #  SUBROUTINES CALLED -
000637:                                                                                                  #       PARAM, GEOM
000638:
000639:
000640:
000641:                                                                                                  #  CALLING SEQUENCE AND NORMAL EXIT MODES -


000643:                                                                                                  #     IF ONLY TIME IS DESIRED AS OUTPUT -
000644:                                                                                                  #  L        CALL                   MUST BE IN INTERPRETIVE MODE BUT OVFIND ARBITRARY.
000645:                                                                                                  #  L+1             APSIDES         RETURNS WITH PL AT 0, RADIUS OF APOCENTER IN MPAC AND RADIUS OF PERICENTER IN 0D
000646:                                                                                                  #  L+2      STODL  APOAPSE
000647:                                                                                                  #  L+3             0D
000648:                                                                                                  #  L+4      STORE  PERIAPSE                APOAPSE AND PERIAPSE ARE SYMBOLIC REPRESENTATIONS OF THE USERS LOCATIONS
000649:                                                                                                  #  L+5      ...                    CONTINUE
000650:
000651:
000652:
000653:                                                                                                  #  OUTPUT -
000654:                                                                                                  #          * SCALE FACTOR *
000655:                                                                                                  #  VARIABLE*IN POWERS OF 2*                         DESCRIPTION AND REMARKS
000656:                                                                                                  #  --------*--------------*                         -----------------------
000657:                                                                                                  #  MPAC    * +29 FOR EARTH*DP RADIUS OF APOCENTER IN METERS
000658:                                                                                                  #          * +27 FOR MOON *
000659:                                                                                                  #  0D-1D   * +29 FOR EARTH*DP RADIUS OF PERICENTER IN METERS
000660:                                                                                                  #          * +27 FOR MOON *
000661:                                                                                                  #  ECC     * +3           *DP ECCENTRICITY OF CONIC TRAJECTORY.
000662:
000663:                                                                                                  #  FOR OTHER OUTPUT WHICH MAY BE OF USE, SEE DEBRIS.
000664:
000665:
000666:
000667:                                                                                                  #  DEBRIS -
000668:
000669:                                                                                                  #       PARAMETERS WHICH MAY BE OF USE -
000670:
000671:                                                                                                  #          * SCALE FACTOR *
000672:                                                                                                  #  VARIABLE*IN POWERS OF 2*                         DESCRIPTION AND REMARKS
000673:                                                                                                  #  --------*--------------*                         -----------------------
000674:                                                                                                  #  R1 (32D)* +29 FOR EARTH*DP MAGNITUDE OF INITIAL POSITION VECTOR, RVEC, IN METERS
000675:                                                                                                  #          * +27 FOR MOON *
000676:                                                                                                  #  R1A     * +6           *DP RATIO OF R1 TO SEMIMAJOR AXIS (NEG. FOR HYPERBOLIC TRAJECTORIES)
000677:                                                                                                  #  P       * +4           *DP RATIO OF SEMILATUS RECTUM TO R1
000678:                                                                                                  #  COGA    * +5           *DP COTAN OF ANGLE BETWEEN RVEC AND VVEC
000679:                                                                                                  #  UR1     * +1           *DP UNIT VECTOR OF RVEC
000680:                                                                                                  #  U2      * +1           *DP UNIT VECTOR OF VVEC
000681:                                                                                                  #  UN      * +1           *DP UNIT VECTOR OF UR1*U2
000682:                                                                                                  #  MAGVEC2 * +7 FOR EARTH *DP MAGNITUDE OF VVEC
000683:                                                                                                  #          * +5 FOR MOON  *
000684:
000685:
000686:                                                                                                  #       PARAMETERS OF NO USE -
000687:                                                                                                  #  SP PARAMETERS - RTNAPSE, GEOMSGN, RTNPRM, PLUS PUSHLIST LOCATIONS 0-5,10D-11D, 14D-21D, 31D-38D.
000688:                                                                                                  #  ADDITIONAL INTERPRETIVE SWITCHES USED - NORMSW
000689:
000690:
000691:
000692: 12,2000                                           SETLOC   CONICS


000694: 12,2000                                           BANK
000695:
000696: 12,2023                                           COUNT*   $$/CONIC
000697: 12,2023  E5,1721                                  EBANK=   UR1
000698: 12,2023           40001        KEPLERN            SETPD    BOV
000699: 12,2024           00001                                    0
000700: 12,2025           24026                                    +1
000701: 12,2026           77773                           VLOAD*
000702: 12,2027           10005                                    MUTABLE,1
000703: 12,2030           24017                           STOVL    14D
000704: 12,2031           01503                                    RRECT
000705: 12,2032           66256                           UNIT     SSP
000706: 12,2033           00027                                    ITERCTR
000707: 12,2034           00024                                    20D
000708: 12,2035           16647                           STODL    URRECT
000709: 12,2036           00045                                    36D
000710: 12,2037           24041                           STOVL    R1
000711: 12,2040           01503                                    RRECT
000712: 12,2041           76441                           DOT      SL1R
000713: 12,2042           01511                                    VRECT
000714: 12,2043           76405                           DMP      SL1R
000715: 12,2044           00023                                    1/ROOTMU                              #  1/ROOTMU (-17 OR -14)
000716: 12,2045           24043                           STOVL    KEPC1                                 #  C1=R.V/ROOTMU (+17 OR +16)
000717:
000718: 12,2046           01511                                    VRECT
000719: 12,2047           57236                           VSQ      DMPR
000720: 12,2050           00017                                    1/MU                                  #  1/MU (-34 OR -28)
000721: 12,2051           52405                           DMP      SL3
000722: 12,2052           00041                                    R1
000723: 12,2053           61425                           DSU      ROUND
000724: 12,2054           11036                                    D1/64
000725: 12,2055           00045                           STORE    KEPC2                                 #  C2=RV.V/MU -1 (+6)
000726:
000727: 12,2056           74421                           BDSU     SR1R
000728: 12,2057           11036                                    D1/64
000729: 12,2060           77671                           DDV
000730: 12,2061           00041                                    R1
000731: 12,2062           00011                           STORE    ALPHA                                 #  ALPHA=(1-C2)/R1 (-22 OR -20)
000732:
000733:
000734: 12,2063           71244                           BPL      DLOAD                                 #  MAXIMUM X DEPENDS ON TYPE OF CONIC
000735: 12,2064           24073                                    1REV
000736: 12,2065           11054                                    -50SC                                 #  -50SC (+12)
000737: 12,2066           40071                           DDV      BOV
000738: 12,2067           00011                                    ALPHA
000739: 12,2070           24077                                    STOREMAX
000740: 12,2071           52166                           SQRT     GOTO
000741: 12,2072           24077                                    STOREMAX
000742:
000743: 12,2073           55366        1REV               SQRT     BDDV


000745: 12,2074           11056                                    2PISC                                 #  2PISC (+6)
000746: 12,2075           77600                           BOV
000747: 12,2076           24077                                    STOREMAX
000748: 12,2077           00013        STOREMAX           STORE    XMAX
000749: 12,2100           65205                           DMP      PDDL
000750: 12,2101           00023                                    1/ROOTMU
000751: 12,2102           00011                                    ALPHA
000752: 12,2103           65301                           NORM     PDDL
000753: 12,2104           00047                                    X1
000754: 12,2105           56257                           SL*      DDV
000755: 12,2106           20173                                    0          -6,1
000756: 12,2107           50000                           BOV      BMN
000757: 12,2110           24124                                    MODDONE
000758: 12,2111           24124                                    MODDONE                               #  MPAC=PERIOD
000759: 12,2112           51525        PERIODCH           PDDL     ABS                                   #  0D=PERIOD
000760: 12,2113           02074                                    TAU.
000761: 12,2114           50025                           DSU      BMN
000762: 12,2115           00001                                    0D
000763: 12,2116           24124                                    MODDONE
000764: 12,2117           77765                           SIGN
000765: 12,2120           02074                                    TAU.
000766: 12,2121           16074                           STODL    TAU.
000767: 12,2122           77650                           GOTO
000768: 12,2123           24112                                    PERIODCH
000769: 12,2124           71201        MODDONE            SETPD    DLOAD
000770: 12,2125           00001                                    0
000771: 12,2126           02121                                    XKEPNEW
000772: 12,2127           00025                           STORE    X
000773: 12,2130           53165                           SIGN     BZE
000774: 12,2131           02074                                    TAU.
000775: 12,2132           24302                                    BADX
000776: 12,2133           51440                           BMN      ABS
000777: 12,2134           24302                                    BADX
000778: 12,2135           51025                           DSU      BPL
000779: 12,2136           00013                                    XMAX
000780: 12,2137           24302                                    BADX
000781: 12,2140           51145        STORBNDS           DLOAD    BPL
000782: 12,2141           02074                                    TAU.
000783: 12,2142           24152                                    STOREMIN
000784: 12,2143           57545                           DLOAD    DCOMP
000785: 12,2144           00013                                    XMAX
000786: 12,2145           14015                           STODL    XMIN
000787: 12,2146           24007                                    KEPZERO
000788: 12,2147           00013                           STORE    XMAX
000789: 12,2150           77650                           GOTO
000790: 12,2151           24155                                    DXCOMP
000791: 12,2152           77745        STOREMIN           DLOAD
000792: 12,2153           24007                                    KEPZERO
000793: 12,2154           00015                           STORE    XMIN
000794: 12,2155           57345        DXCOMP             DLOAD    DMPR


000796: 12,2156           02074                                    TAU.
000797: 12,2157           11047                                    BEE22
000798: 12,2160           77646                           ABS
000799: 12,2161           16170                           STODL    EPSILONT
000800: 12,2162           01553                                    XPREV
000801: 12,2163           77621        XDIFF              BDSU
000802: 12,2164           00025                                    X
000803: 12,2165           02643                           STORE    DELX
000804:
000805:
000806: 12,2166           63545        KEPLOOP            DLOAD    DSQ
000807: 12,2167           00025                                    X                                     #  X=XKEP
000808: 12,2170           41501                           NORM     PUSH                                  #  0D=XSQ (+34 OR +32 -N1)      PL AT 2
000809: 12,2171           00047                                    X1
000810: 12,2172           53605                           DMP      SRR*
000811: 12,2173           00011                                    ALPHA
000812: 12,2174           21573                                    0          -6,1
000813: 12,2175           34031                           STCALL   XI                                    #  XI=ALPHA XSQ (+6)
000814: 12,2176           24421                                    DELTIME
000815: 12,2177           44200                           BOV      BDSU
000816: 12,2200           24311                                    TIMEOVFL                              #  UNLIKELY
000817: 12,2201           02074                                    TAU.
000818: 12,2202           02645                           STORE    DELT                                  #  DELT=DELINDEP
000819: 12,2203           44246                           ABS      BDSU
000820: 12,2204           02170                                    EPSILONT
000821: 12,2205           71244                           BPL      DLOAD
000822: 12,2206           24333                                    KEPCONVG
000823: 12,2207           00037                                    T
000824: 12,2210           60225                           DSU      NORM
000825: 12,2211           01551                                    TC
000826: 12,2212           00047                                    X1
000827: 12,2213           60325                           PDDL     NORM
000828: 12,2214           02643                                    DELX
000829: 12,2215           00050                                    X2
000830: 12,2216           41260                           XSU,1    DMP
000831: 12,2217           00047                                    X2
000832: 12,2220           02645                                    DELT
000833: 12,2221           56257                           SLR*     DDV
000834: 12,2222           21202                                    1,1
000835: 12,2223           41542                           SR1      PUSH                                  #  0D=TRIAL DELX                PL AT 2
000836: 12,2224           71244                           BPL      DLOAD
000837: 12,2225           24246                                    POSDELX
000838: 12,2226           00025                                    X
000839: 12,2227           00013                           STORE    XMAX                                  #  MOVE MAX BOUND IN
000840: 12,2230           45221                           BDSU     DSU                                   #                               PL AT 0
000841: 12,2231           00015                                    XMIN                                  #    ,
000842: 12,2232           51000                           BOV      BPL
000843: 12,2233           24240                                    NDXCHNGE
000844: 12,2234           24240                                    NDXCHNGE
000845: 12,2235           52145                           DLOAD    GOTO


000847: 12,2236           00001                                    0D
000848: 12,2237           24260                                    NEWDELX
000849:
000850:
000851: 12,2240           45345        NDXCHNGE           DLOAD    DSU
000852: 12,2241           00015                                    XMIN
000853: 12,2242           00025                                    X
000854: 12,2243           52075                           DMPR     GOTO                                  #  TO FORCE MPAC +2 TO ZERO
000855: 12,2244           11052                                    DP9/10
000856: 12,2245           24260                                    NEWDELX
000857:
000858:
000859: 12,2246           77745        POSDELX            DLOAD
000860: 12,2247           00025                                    X
000861: 12,2250           00015                           STORE    XMIN                                  #  MOVE MIN BOUND IN
000862: 12,2251           45221                           BDSU     DSU                                   #                               PL AT 0
000863: 12,2252           00013                                    XMAX
000864: 12,2253           50000                           BOV      BMN
000865: 12,2254           24274                                    PDXCHNGE
000866: 12,2255           24274                                    PDXCHNGE
000867: 12,2256           77745                           DLOAD
000868: 12,2257           00001                                    0D
000869: 12,2260           02643        NEWDELX            STORE    DELX
000870: 12,2261           43254                           BZE      DAD
000871: 12,2262           24333                                    KEPCONVG
000872: 12,2263           00025                                    X
000873: 12,2264           14025                           STODL    X
000874: 12,2265           00037                                    T
000875: 12,2266           01551                           STORE    TC
000876: 12,2267           46034        BRNCHCTR           RTB      BHIZ
000877: 12,2270           24644                                    CHECKCTR
000878: 12,2271           24333                                    KEPCONVG
000879: 12,2272           77650                           GOTO
000880: 12,2273           24166                                    KEPLOOP                               #  ITERATE
000881:
000882:
000883: 12,2274           45345        PDXCHNGE           DLOAD    DSU
000884: 12,2275           00013                                    XMAX
000885: 12,2276           00025                                    X
000886: 12,2277           52075                           DMPR     GOTO                                  #  TO FORCE MPAC +2 TO ZERO
000887: 12,2300           11052                                    DP9/10
000888: 12,2301           24260                                    NEWDELX
000889:
000890:
000891: 12,2302           70545        BADX               DLOAD    SR1
000892: 12,2303           00013                                    XMAX
000893: 12,2304           77765                           SIGN
000894: 12,2305           02074                                    TAU.
000895: 12,2306           00025                           STORE    X
000896: 12,2307           77650                           GOTO


000898: 12,2310           24140                                    STORBNDS
000899: 12,2311           50145        TIMEOVFL           DLOAD    BMN                                   #  X WAS TOO BIG
000900: 12,2312           00025                                    X
000901: 12,2313           24330                                    NEGTOVFL
000902: 12,2314           00013                           STORE    XMAX
000903: 12,2315           70545        CMNTOVFL           DLOAD    SR1
000904: 12,2316           02643                                    DELX
000905: 12,2317           02643                           STORE    DELX
000906: 12,2320           44254                           BZE      BDSU
000907: 12,2321           02111                                    KEPRTN
000908: 12,2322           00025                                    X
000909: 12,2323           14025                           STODL    X
000910: 12,2324           01551                                    TC
000911: 12,2325           00037                           STORE    T
000912: 12,2326           77650                           GOTO
000913: 12,2327           24267                                    BRNCHCTR
000914: 12,2330           00015        NEGTOVFL           STORE    XMIN
000915: 12,2331           77650                           GOTO
000916: 12,2332           24315                                    CMNTOVFL
000917: 12,2333           44545        KEPCONVG           DLOAD    SR4R
000918: 12,2334           00041                                    R1
000919: 12,2335           74225                           DSU      VXSC
000920: 12,2336           00035                                    XSQC(XI)
000921: 12,2337           02647                                    URRECT
000922: 12,2340           65372                           VSL1     PDDL                                  #  0D=(R1-XSQC(XI))URRECT (+33 OR +31)
000923: 12,2341           00025                                    X
000924: 12,2342           60316                           DSQ      NORM
000925: 12,2343           00047                                    X1
000926: 12,2344           57275                           DMPR     DMPR
000927: 12,2345           00023                                    1/ROOTMU
000928: 12,2346           00025                                    X
000929: 12,2347           53605                           DMP      SRR*
000930: 12,2350           00033                                    S(XI)
000931: 12,2351           21572                                    0          -7,1
000932: 12,2352           77621                           BDSU
000933: 12,2353           00037                                    T
000934: 12,2354           74352                           SL1      VXSC
000935: 12,2355           01511                                    VRECT
000936: 12,2356           53372                           VSL1     VAD                                   #                               PL AT 0
000937: 12,2357           77712                           VSL4
000938: 12,2360           01535                           STORE    RCV                                   #  RCV (+29 OR +27)
000939:
000940:
000941: 12,2361           60246                           ABVAL    NORM
000942: 12,2362           00050                                    X2
000943: 12,2363           14043                           STODL    RCNORM
000944: 12,2364           00031                                    XI
000945: 12,2365           45275                           DMPR     DSU
000946: 12,2366           00033                                    S(XI)
000947: 12,2367           11034                                    D1/128


000949: 12,2370           76405                           DMP      SL1R
000950: 12,2371           00021                                    ROOTMU
000951: 12,2372           53605                           DMP      SLR*
000952: 12,2373           00025                                    X
000953: 12,2374           56601                                    0          -3,2
000954: 12,2375           74271                           DDV      VXSC
000955: 12,2376           00043                                    RCNORM
000956: 12,2377           02647                                    URRECT
000957: 12,2400           65372                           VSL1     PDDL                                  #  0D=URRECT(XI S(XI)-1)X ROOTMU/RCV (+15
000958: 12,2401           00035                                    XSQC(XI)                              #  OR +13)                        PL AT 6
000959: 12,2402           56257                           SLR*     DDV
000960: 12,2403           56602                                    0          -4,2
000961: 12,2404           00043                                    RCNORM
000962: 12,2405           74221                           BDSU     VXSC
000963: 12,2406           11050                                    D1/256
000964: 12,2407           01511                                    VRECT
000965: 12,2410           42455                           VAD      VSL8                                  #                               PL AT 0
000966: 12,2411           77626                           STADR
000967: 12,2412           62234                           STODL    VCV                                   #  VCV (+7 OR +5)
000968: 12,2413           00037                                    T
000969: 12,2414           15551                           STODL    TC
000970: 12,2415           00025                                    X
000971: 12,2416           01553                           STORE    XPREV
000972: 12,2417           77650                           GOTO
000973: 12,2420           02111                                    KEPRTN
000974:


000976: 12,2421           77776        DELTIME            EXIT                                           #  MPAC=XI (+6), 0D=XSQ (+34 OR +32 -N1)
000977: 12,2422           07243                           TC       POLY
000978: 12,2423           00010                           DEC      8          B-14
000979: 12,2424           02525 12526                     2DEC     .083333334
000980:
000981: 12,2426           67356 75666                     2DEC     -.266666684
000982:
000983: 12,2430           15001 23771                     2DEC     .406349155
000984:
000985: 12,2432           64342 43674                     2DEC     -.361198675
000986:
000987: 12,2434           06563 04645                     2DEC     .210153242
000988:
000989: 12,2436           75173 52672                     2DEC     -.086221951
000990:
000991: 12,2440           00656 14331                     2DEC     .026268812
000992:
000993: 12,2442           77633 40512                     2DEC     -.006163316
000994:
000995: 12,2444           00023 11210                     2DEC     .001177342
000996:
000997: 12,2446           77774 67506                     2DEC     -.000199055
000998:
000999: 12,2450           06060                           TC       INTPRET
001000: 12,2451           14033                           STODL    S(XI)
001001: 12,2452           00031                                    XI
001002: 12,2453           77776                           EXIT
001003: 12,2454           07243                           TC       POLY
001004: 12,2455           00010                           DEC      8          B-14
001005: 12,2456           01000 00000                     2DEC     .031250001
001006:
001007: 12,2460           72525 52506                     2DEC     -.166666719
001008:
001009: 12,2462           13301 15337                     2DEC     .355555413
001010:
001011: 12,2464           62776 54733                     2DEC     -.406347410
001012:
001013: 12,2466           11176 13267                     2DEC     .288962094
001014:
001015: 12,2470           73410 51674                     2DEC     -.140117894
001016:
001017: 12,2472           01446 33641                     2DEC     .049247387
001018:
001019: 12,2474           77451 65233                     2DEC     -.013081923
001020:
001021: 12,2476           00055 37266                     2DEC     .002806389
001022:
001023: 12,2500           77767 52336                     2DEC     -.000529414
001024:
001025: 12,2502           06060                           TC       INTPRET


001027: 12,2503           53605                           DMP      SRR*                                  #                               PL AT 0
001028: 12,2504           00001                                    0D
001029: 12,2505           21574                                    0          -5,1
001030: 12,2506           00035                           STORE    XSQC(XI)                              #  XSQC(XI) (+33 OR +31)
001031: 12,2507           72405                           DMP      SL1
001032: 12,2510           00043                                    KEPC1
001033: 12,2511           65234                           RTB      PDDL                                  #  XCH WITH PL. 0D=C1 XSQ C(XI) (+49 OR +46
001034: 12,2512           21643                                    TPMODE                                #                               PL AT 0,3
001035: 12,2513           53605                           DMP      SRR*
001036: 12,2514           00033                                    S(XI)
001037: 12,2515           21574                                    0          -5,1
001038: 12,2516           72405                           DMP      SL1
001039: 12,2517           00045                                    KEPC2
001040: 12,2520           65234                           RTB      PDDL                                  #  3D=C2 XSQ S(XI) (+35 OR +33)  PL AT 6
001041: 12,2521           21643                                    TPMODE
001042: 12,2522           00041                                    R1
001043: 12,2523           76261                           SR       TAD                                   #                               PL AT 3
001044: 12,2524           20607                                    6
001045: 12,2525           41301                           NORM     DMP                                   #  TO PRESERVE SIGNIF.
001046: 12,2526           00047                                    X1
001047: 12,2527           00025                                    X
001048: 12,2530           76257                           SR*      TAD                                   #  X(C2 XSQ S(XI) +R1) (+49 OR +46) PL AT 0
001049: 12,2531           20576                                    0          -3,1
001050: 12,2532           57232                           SL4R     DMPR
001051: 12,2533           00023                                    1/ROOTMU
001052: 12,2534           00037                           STORE    T
001053: 12,2535           77616                           RVQ
001054:


001056: 12,2536           71214        ITERATOR           BONCLR   DLOAD
001057: 12,2537           00614                                    SLOPESW
001058: 12,2540           24606                                    FIRSTIME
001059: 12,2541           00037                                    DEP
001060: 12,2542           60225                           DSU      NORM
001061: 12,2543           02762                                    DEPREV
001062: 12,2544           00047                                    X1
001063: 12,2545           60325                           PDDL     NORM
001064: 12,2546           00015                                    DELINDEP
001065: 12,2547           00050                                    X2
001066: 12,2550           41260                           XSU,1    DMP
001067: 12,2551           00047                                    X2
001068: 12,2552           02760                                    DELDEP
001069: 12,2553           56257                           SLR*     DDV                                   #                               PL UP 2
001070: 12,2554           21202                                    1,1
001071: 12,2555           43142                           SR1      BOFF
001072: 12,2556           04351                                    ORDERSW
001073: 12,2557           24562                                    SGNCHECK
001074: 12,2560           75246                           ABS      SIGN                                  #  IN CASE 2ND DERIV. CHANGED SIGN, MUST
001075: 12,2561           02760                                    DELDEP                                #  DISREGARD IT TO FIND MIN.
001076:
001077: 12,2562           51006        SGNCHECK           PUSH     BPL                                   #  TRIAL DELINDEP               PL DOWN 2
001078: 12,2563           24620                                    POSDEL
001079: 12,2564           43145                           DLOAD    BON
001080: 12,2565           02766                                    INDEP
001081: 12,2566           04311                                    ORDERSW
001082: 12,2567           24571                                    MINCHECK
001083: 12,2570           00017                           STORE    MAX                                   #  IF NOT 2ND ORDER, CAN MOVE MAX BOUND IN.
001084:
001085: 12,2571           45221        MINCHECK           BDSU     DSU
001086: 12,2572           00011                                    MIN
001087: 12,2573           51000                           BOV      BPL
001088: 12,2574           24600                                    MODNGDEL
001089: 12,2575           24600                                    MODNGDEL
001090: 12,2576           77650                           GOTO
001091: 12,2577           24632                                    DELOK
001092:
001093:
001094: 12,2600           45345        MODNGDEL           DLOAD    DSU                                   #  TRIAL DELINDEP WOULD EXCEED MIN BOUND
001095: 12,2601           00011                                    MIN
001096: 12,2602           02766                                    INDEP
001097: 12,2603           52005                           DMP      GOTO
001098: 12,2604           11052                                    DP9/10
001099: 12,2605           24634                                    NEWDEL
001100:
001101:
001102: 12,2606           41345        FIRSTIME           DLOAD    DMP
001103: 12,2607           00011                                    MIN
001104: 12,2610           00051                                    TWEEKIT                               #  DLOAD TWEEKIT(40D) SENSITIVE TO CHANGE.
001105: 12,2611           41325                           PDDL     DMP                                   #  S2(41D) SHOULDNT CONTAIN HI ORDER ONES


001107: 12,2612           00017                                    MAX
001108: 12,2613           00051                                    TWEEKIT
001109: 12,2614           77625                           DSU
001110: 12,2615           52165                           SIGN     GOTO
001111: 12,2616           02760                                    DELDEP
001112: 12,2617           24562                                    SGNCHECK
001113:
001114:
001115: 12,2620           43145        POSDEL             DLOAD    BON
001116: 12,2621           02766                                    INDEP
001117: 12,2622           04311                                    ORDERSW
001118: 12,2623           24625                                    MAXCHECK
001119: 12,2624           00011                           STORE    MIN                                   #  IF NOT 2ND ORDER, CAN MOVE MIN BOUND IN.
001120:
001121: 12,2625           45221        MAXCHECK           BDSU     DSU
001122: 12,2626           00017                                    MAX
001123: 12,2627           50000                           BOV      BMN
001124: 12,2630           24636                                    MODPSDEL
001125: 12,2631           24636                                    MODPSDEL
001126: 12,2632           77745        DELOK              DLOAD
001127: 12,2633           00001                                    0D
001128: 12,2634           00015        NEWDEL             STORE    DELINDEP
001129: 12,2635           77616                           RVQ
001130:
001131:
001132: 12,2636           45345        MODPSDEL           DLOAD    DSU
001133: 12,2637           00017                                    MAX
001134: 12,2640           02766                                    INDEP
001135: 12,2641           52005                           DMP      GOTO
001136: 12,2642           11052                                    DP9/10
001137: 12,2643           24634                                    NEWDEL
001138:
001139:
001140: 12,2644           44744        CHECKCTR           CS       ONE
001141: 12,2645           50120                           INDEX    FIXLOC
001142: 12,2646           60026                           AD       ITERCTR
001143: 12,2647           50120                           INDEX    FIXLOC
001144: 12,2650           54026                           TS       ITERCTR
001145: 12,2651           54154                           TS       MPAC
001146: 12,2652           06102                           TC       DANZIG
001147:


001149: 12,2653           44545        NEWSTATE           DLOAD    SR4R
001150: 12,2654           00041                                    R1
001151: 12,2655           74225                           DSU      VXSC
001152: 12,2656           00035                                    XSQC(XI)
001153: 12,2657           02722                                    UR1
001154: 12,2660           65372                           VSL1     PDDL                                  #  0D=(R1-XSQC(XI))UR1 (+33 OR 31) PL AT 6
001155: 12,2661           00025                                    X
001156: 12,2662           60316                           DSQ      NORM
001157: 12,2663           00047                                    X1
001158: 12,2664           57275                           DMPR     DMPR
001159: 12,2665           00023                                    1/ROOTMU
001160: 12,2666           00025                                    X
001161: 12,2667           53605                           DMP      SRR*
001162: 12,2670           00033                                    S(XI)
001163: 12,2671           21572                                    0          -7,1
001164: 12,2672           77621                           BDSU
001165: 12,2673           00037                                    T
001166: 12,2674           74352                           SL1      VXSC
001167: 12,2675           02744                                    VVEC
001168: 12,2676           53372                           VSL1     VAD                                   #                               PL AT 0
001169: 12,2677           41512                           VSL4     PUSH
001170: 12,2700           77646                           ABVAL
001171: 12,2701           77701        LAMENTER           NORM
001172: 12,2702           00047                                    X1
001173: 12,2703           16720                           STODL    R2
001174: 12,2704           00031                                    XI
001175: 12,2705           45205                           DMP      DSU
001176: 12,2706           00033                                    S(XI)
001177: 12,2707           11034                                    D1/128
001178: 12,2710           76405                           DMP      SL1R
001179: 12,2711           00021                                    ROOTMU
001180: 12,2712           53605                           DMP      SLR*
001181: 12,2713           00025                                    X
001182: 12,2714           21176                                    0          -3,1
001183: 12,2715           74271                           DDV      VXSC
001184: 12,2716           02720                                    R2
001185: 12,2717           02722                                    UR1
001186: 12,2720           65372                           VSL1     PDDL                                  #  6D=V2VEC PART (+15 OR 13)       PL AT 12
001187: 12,2721           00035                                    XSQC(XI)
001188: 12,2722           56257                           SLR*     DDV
001189: 12,2723           21175                                    0          -4,1
001190: 12,2724           02720                                    R2
001191: 12,2725           77621                           BDSU
001192: 12,2726           11050                                    D1/256
001193: 12,2727           53361                           VXSC     VAD
001194: 12,2730           02744                                    VVEC                                  #                               PL AT 6
001195: 12,2731           43412                           VSL8     RVQ
001196:


001198: 04,2000                                           SETLOC   CONICS1
001199: 04,2000                                           BANK
001200:
001201: 04,3030                                           COUNT*   $$/CONIC
001202:                                                                                                  #  DO NOT DISTURB THE ORDER OF THESE CDS, OVERLAYS HAVE BEEN MADE.
001203: 04,3030           00000        BEE17              DEC      0          B-14                       #  KEEP WITH D1/8 2DEC 1.0B-17 (0000004000)
001204: 04,3031           04000 00000  D1/8               2DEC     1.0        B-3
001205:
001206: 04,3033           00200 00000  D1/128             2DEC     1.0        B-7
001207:
001208: 04,3035           00400 00000  D1/64              2DEC     1.0        B-6
001209:
001210: 04,3037           10000 00000  D1/4               2DEC     1.0        B-2
001211:
001212: 04,3041           02000 00000  D1/16              2DEC     1.0        B-4
001213:
001214: 04,3043           01000 00000  D1/32              2DEC     1.0        B-5
001215:
001216: 04,3045           00020 00000  D1/1024            2DEC     1.0        B-10
001217:
001218: 04,3047           00100 00000  D1/256             2DEC     1.0        B-8
001219:
001220: 04,3051           34631 23146  DP9/10             2DEC     .9
001221:
001222: 04,3053  12,2006               KEPZERO            EQUALS   LO6ZEROS
001223: 04,3053           77467 77777  -50SC              2DEC     -50.0      B-12
001224:
001225: 04,3055           03110 17665  2PISC              2DEC     6.28318530 B-6
001226:
001227: 04,3057  04,3042               BEE19              EQUALS   D1/32      -1                         #  2DEC 1.0 B-19 (00000 01000)
001228: 04,3057  04,3046               BEE22              EQUALS   D1/256     -1                         #  2DEC 1.0 B-22 (00000 00100)
001229: 04,3057           00000 00001  ONEBIT             2DEC     1.0        B-28
001230:
001231: 04,3061           37767 37737  COGUPLIM           2DEC     .999511597
001232:
001233: 04,3063           40010 40040  COGLOLIM           2DEC     -.999511597
001234:
001235:


001237: 12,2000                                           SETLOC   CONICS
001238: 12,2000                                           BANK
001239:
001240: 12,2732                                           COUNT*   $$/CONIC
001241: 12,2732           40220        TIMETHET           STQ      SETPD                                 #                               PL AT 0
001242: 12,2733           02710                                    RTNTT
001243: 12,2734           00001                                    0
001244: 12,2735           77600                           BOV
001245: 12,2736           24737                                    +1
001246: 12,2737           63375                           VLOAD    PDVL                                  #  SETUP FOR PARAM CALL         PL AT 6
001247: 12,2740           02655                                    RVEC
001248: 12,2741           02744                                    VVEC
001249: 12,2742           77624                           CALL
001250: 12,2743           11065                                    PARAM
001251: 12,2744           45000                           BOV      CALL
001252: 12,2745           24764                                    COGAOVFL                              #                               PL AT 0
001253: 12,2746           24767                                    GETX
001254: 12,2747           43145        COMMNOUT           DLOAD    BON
001255: 12,2750           00031                                    XI
001256: 12,2751           04310                                    INFINFLG
001257: 12,2752           25752                                    ABTCONIC
001258: 12,2753           45014                           CLEAR    CALL
001259: 12,2754           04273                                    COGAFLAG
001260: 12,2755           24421                                    DELTIME
001261: 12,2756           45014                           BON      CALL
001262: 12,2757           03706                                    RVSW
001263: 12,2760           02710                                    RTNTT
001264: 12,2761           24653                                    NEWSTATE
001265: 12,2762           77650                           GOTO
001266: 12,2763           02710                                    RTNTT
001267:
001268:
001269: 12,2764           77614        COGAOVFL           SETGO
001270: 12,2765           04033                                    COGAFLAG
001271: 12,2766           25752                                    ABTCONIC
001272: 04,3065                                           BANK     4
001273: 04,2000                                           SETLOC   CONICS1
001274: 04,2000                                           BANK
001275: 04,3065                                           COUNT*   $$/CONIC
001276: 04,3065           43020        PARAM              STQ      CLEAR                                 #  MPAC=V1VEC, 0D=R1VEC         PL AT 6
001277: 04,3066           02753                                    RTNPRM
001278: 04,3067           03665                                    NORMSW
001279: 04,3070           77614                           CLEAR
001280: 04,3071           04273                                    COGAFLAG
001281: 04,3072           45131                           SSP      CALL
001282: 04,3073           02673                                    GEOMSGN
001283: 04,3074           27777                                    37777                                 #  GAMMA ALWAYS LESS THAN 180DEG
001284: 04,3075           11131                                    GEOM                                  #  MPAC=SNGA (+1), 0D=CSGA (+1) PL AT 2
001285: 04,3076           14045                           STODL    36D                                   #  36D=SIN GAMMA (+1)           PL AT 0
001286: 04,3077           56261                           SR       DDV


001288: 04,3100           20606                                    5
001289:
001290: 04,3101           00045                                    36D
001291: 04,3102           32766                           STOVL*   COGA
001292: 04,3103           10005                                    MUTABLE,1
001293: 04,3104           14017                           STODL    1/MU
001294: 04,3105           02720                                    MAGVEC2
001295: 04,3106           60316                           DSQ      NORM
001296: 04,3107           00047                                    X1
001297: 04,3110           41275                           DMPR     DMP
001298: 04,3111           00017                                    1/MU
001299: 04,3112           00041                                    R1
001300: 04,3113           77657                           SRR*
001301: 04,3114           21576                                    0          -3,1
001302: 04,3115           44206                           PUSH     BDSU                                  #  0D=R1 V1SQ/MU (+6)           PL AT 2
001303: 04,3116           11044                                    D1/32
001304: 04,3117           16742                           STODL    R1A                                   #  R1A (+6)                     PL AT 0
001305:
001306: 04,3120           60205                           DMP      NORM
001307: 04,3121           00045                                    36D
001308: 04,3122           00047                                    X1
001309: 04,3123           53605                           DMP      SR*
001310: 04,3124           00045                                    36D
001311: 04,3125           20575                                    0          -4,1
001312: 04,3126           02740                           STORE    P                                     #  P (+4)
001313: 04,3127           77650                           GOTO
001314: 04,3130           02753                                    RTNPRM
001315:


001317: 04,3131           77656        GEOM               UNIT                                           #  MPAC=V2VEC, 0D=R1VEC         PL AT 6
001318: 04,3132           16712                           STODL    U2                                    #  U2 (+1)
001319: 04,3133           00045                                    36D
001320: 04,3134           26720                           STOVL    MAGVEC2                               #                               PL AT 0
001321: 04,3135           77656                           UNIT
001322: 04,3136           02722                           STORE    UR1                                   #  UR1 (+1)
001323: 04,3137           72441                           DOT      SL1
001324: 04,3140           02712                                    U2
001325: 04,3141           77725                           PDDL                                           #  OD=CSTH (+1)                 PL AT 2
001326: 04,3142           00045                                    36D
001327: 04,3143           24041                           STOVL    R1                                    #  R1 (+29 OR +27)
001328: 04,3144           02722                                    UR1
001329: 04,3145           76435                           VXV      VSL1
001330: 04,3146           02712                                    U2
001331: 04,3147           75214                           BON      SIGN
001332: 04,3150           03705                                    NORMSW
001333: 04,3151           11163                                    HAVENORM
001334: 04,3152           02673                                    GEOMSGN
001335: 04,3153           40056                           UNIT     BOV
001336: 04,3154           11161                                    COLINEAR
001337: 04,3155           16674        UNITNORM           STODL    UN                                    #  UN (+1)
001338: 04,3156           00045                                    36D
001339: 04,3157           43565                           SIGN     RVQ                                   #  MPAC=SNTH (+1), 34D=SNTH.SNTH (+2)
001340: 04,3160           02673                                    GEOMSGN
001341:
001342:
001343: 04,3161           52162        COLINEAR           VSR1     GOTO
001344: 04,3162           11155                                    UNITNORM
001345:
001346:
001347: 04,3163           75246        HAVENORM           ABVAL    SIGN
001348: 04,3164           02673                                    GEOMSGN
001349: 04,3165           77616                           RVQ                                            #  MPAC=SNTH (+1), 34D=SNTH.SNTH (+2)
001350:


001352: 12,2767                                           BANK     12
001353: 12,2000                                           SETLOC   CONICS
001354: 12,2000                                           BANK
001355:
001356: 12,2767                                           COUNT*   $$/CONIC
001357: 12,2767           66374        GETX               AXT,2    SSP                                   #  ASSUMES P (+4) IN MPAC
001358: 12,2770           00003                                    3
001359: 12,2771           00052                                    S2
001360: 12,2772           00001                                    1
001361: 12,2773           77614                           CLEAR
001362: 12,2774           04276                                    360SW
001363: 12,2775           65366                           SQRT     PDDL                                  #  0D=SQRT(P)                       PL AT 2
001364: 12,2776           02732                                    CSTH
001365: 12,2777           44342                           SR1      BDSU
001366: 12,3000           11040                                    D1/4
001367: 12,3001           54325                           PDDL     SRR                                   #                               PL AT 4D
001368: 12,3002           02730                                    SNTH
001369: 12,3003           21607                                    6
001370: 12,3004           77671                           DDV                                            #                               PL AT 2
001371: 12,3005           77600                           BOV
001372: 12,3006           25122                                    360CHECK
001373: 12,3007           41225                           DSU      DMP
001374: 12,3010           02766                                    COGA                                  #                                   PL AT 0
001375: 12,3011           40132                           SL2R     BOV
001376: 12,3012           25122                                    360CHECK
001377: 12,3013           63406        WLOOP              PUSH     DSQ                                   #  0D=W (+5)                        PL AT 2
001378: 12,3014           65351                           TLOAD    PDDL                                  #  2D=WSQ (+10)                     PL AT 5
001379: 12,3015           00155                                    MPAC
001380: 12,3016           02742                                    R1A
001381: 12,3017           76202                           SR4      TAD                                   #                               PL AT 2
001382: 12,3020           75440                           BMN      SQRT
001383: 12,3021           25205                                    INFINITY
001384: 12,3022           43306                           ROUND    DAD                                   #                               PL AT 0D
001385: 12,3023           61000                           BOV      TIX,2
001386: 12,3024           25120                                    RESETX2
001387: 12,3025           25013                                    WLOOP
001388:
001389:
001390: 12,3026           40065                           BDDV     BOV
001391: 12,3027           11034                                    D1/128
001392: 12,3030           25205                                    INFINITY
001393: 12,3031           41440        POLYCOEF           BMN      PUSH                                  #  0D=1/W (+2) OR 16/W (+6)     PL AT 2
001394: 12,3032           25205                                    INFINITY
001395: 12,3033           77716                           DSQ
001396: 12,3034           41301                           NORM     DMP
001397: 12,3035           00047                                    X1
001398: 12,3036           02742                                    R1A
001399: 12,3037           77457                           SRR*     EXIT
001400: 12,3040           21567                                    0          -10D,1
001401: 12,3041           07243                           TC       POLY


001403: 12,3042           00005                           DEC      5          B-14
001404: 12,3043           20000 00000                     2DEC     .5
001405:
001406: 12,3045           72525 52471                     2DEC     -.166666770
001407:
001408: 12,3047           03146 15003                     2DEC     .100000392
001409:
001410: 12,3051           75556 45210                     2DEC     -.071401086
001411:
001412: 12,3053           01615 13553                     2DEC     .055503292
001413:
001414: 12,3055           76371 63777                     2DEC     -.047264098
001415:
001416: 12,3057           01232 27367                     2DEC     .040694204
001417:
001418: 12,3061           06060                           TC       INTPRET
001419: 12,3062           76405                           DMP      SL1R                                  #                               PL AT 0D
001420: 12,3063           43006                           PUSH     BON
001421: 12,3064           04316                                    360SW
001422: 12,3065           25172                                    TRUE360X
001423: 12,3066           60316        XCOMMON            DSQ      NORM
001424: 12,3067           00047                                    X1
001425: 12,3070           53605                           DMP      SRR*
001426: 12,3071           02742                                    R1A
001427: 12,3072           21565                                    0          -12D,1
001428: 12,3073           14031                           STODL    XI                                    #  XI (+6)
001429:
001430:
001431: 12,3074           00041                                    R1
001432: 12,3075           75542                           SR1      SQRT
001433: 12,3076           41306                           ROUND    DMP
001434: 12,3077           77632                           SL4R                                           #                               PL AT 0
001435: 12,3100           00025                           STORE    X                                     #  X (+17 OR +16)
001436:
001437:
001438:
001439: 12,3101           60316                           DSQ      NORM
001440: 12,3102           00047                                    X1
001441: 12,3103           41325                           PDDL     DMP                                   #  0D=XSQ (+34 OR +32 -N1)      PL AT 2
001442: 12,3104           02740                                    P
001443: 12,3105           00041                                    R1
001444: 12,3106           75452                           SL3      SQRT
001445: 12,3107           56405                           DMP      SL3R
001446: 12,3110           02766                                    COGA
001447: 12,3111           14043                           STODL    KEPC1
001448: 12,3112           02742                                    R1A
001449: 12,3113           43021                           BDSU     CLEAR
001450: 12,3114           11036                                    D1/64
001451: 12,3115           04270                                    INFINFLG
001452: 12,3116           00045                           STORE    KEPC2
001453: 12,3117           77616                           RVQ
001454:


001456: 12,3120           77774        RESETX2            AXT,2
001457: 12,3121           00003                                    3
001458:
001459: 12,3122           51001        360CHECK           SETPD    BPL
001460: 12,3123           00001                                    0D
001461: 12,3124           25127                                    INVRSEQN
001462: 12,3125           77614                           SET
001463: 12,3126           04076                                    360SW
001464:
001465:
001466: 12,3127           75545        INVRSEQN           DLOAD    SQRT
001467: 12,3130           02740                                    P
001468: 12,3131           41325                           PDDL     DMP                                   #  0D=SQRT(P) (+2)                  PL AT 2
001469: 12,3132           02730                                    SNTH
001470: 12,3133           02766                                    COGA
001471: 12,3134           65352                           SL1      PDDL                                  #  2D=SNTH COGA (+5)                PL AT 4
001472: 12,3135           02732                                    CSTH
001473: 12,3136           43202                           SR4      DAD
001474: 12,3137           11044                                    D1/32
001475: 12,3140           41225                           DSU      DMP                                   #                               PL AT 2,0
001476: 12,3141           55301                           NORM     BDDV
001477: 12,3142           00047                                    X1
001478: 12,3143           02730                                    SNTH
001479: 12,3144           51457                           SLR*     ABS                                   #  NOTE: NEAR 360 CASE TREATED DIFFERENTLY
001480: 12,3145           21174                                    0          -5,1
001481: 12,3146           63406                           PUSH     DSQ                                   #  0D=1/W (-1)                  PL AT 2
001482: 12,3147           14043                           STODL    34D
001483: 12,3150           11042                                    D1/16
001484: 12,3151           63406        1/WLOOP            PUSH     DSQ                                   #  2D=G (+4)                        PL AT 4
001485: 12,3152           65234                           RTB      PDDL                                  #                               PL AT 7
001486: 12,3153           21643                                    TPMODE
001487: 12,3154           02742                                    R1A
001488: 12,3155           40405                           DMP      SR4
001489: 12,3156           00043                                    34D
001490: 12,3157           77771                           TAD
001491: 12,3160           75440                           BMN      SQRT                                  #                                   PL AT 4
001492: 12,3161           25205                                    INFINITY
001493: 12,3162           77615                           DAD                                            #                               PL AT 2
001494: 12,3163           60304                           TIX,2    NORM
001495: 12,3164           25151                                    1/WLOOP
001496: 12,3165           00047                                    X1
001497: 12,3166           77665                           BDDV
001498: 12,3167           52057                           SLR*     GOTO                                  #                                   PL AT 0
001499: 12,3170           21172                                    0          -7,1
001500: 12,3171           25031                                    POLYCOEF
001501:
001502:
001503: 12,3172           50145        TRUE360X           DLOAD    BMN
001504: 12,3173           02742                                    R1A


001506: 12,3174           25205                                    INFINITY
001507: 12,3175           60366                           SQRT     NORM
001508: 12,3176           00047                                    X1
001509: 12,3177           53665                           BDDV     SL*
001510: 12,3200           11056                                    2PISC
001511: 12,3201           20176                                    0          -3,1
001512: 12,3202           41425                           DSU      PUSH                                  #  0D=2PI/SQRT(R1A) -X          PL AT 0,2
001513: 12,3203           77650                           GOTO
001514: 12,3204           25066                                    XCOMMON
001515: 12,3205           40001        INFINITY           SETPD    BOV                                   #  NO SOLUTION EXISTS SINCE CLOSURE THROUGH
001516: 12,3206           00001                                    0                                     #  INFINITY IS REQUIRED
001517: 12,3207           25210                                    OVFLCLR
001518: 12,3210           43414        OVFLCLR            SET      RVQ
001519: 12,3211           04070                                    INFINFLG
001520:


001522: 12,3212           40220        LAMBERT            STQ      SETPD
001523: 12,3213           02710                                    RTNLAMB
001524: 12,3214           00001                                    0D
001525: 12,3215           77600                           BOV
001526: 12,3216           25217                                    +1
001527: 12,3217           76614                           CLEAR    VLOAD*
001528: 12,3220           02674                                    SOLNSW
001529: 12,3221           10005                                    MUTABLE,1
001530: 12,3222           14017                           STODL    1/MU
001531: 12,3223           02671                                    TDESIRED
001532: 12,3224           77675                           DMPR
001533: 12,3225           11043                                    BEE19
001534: 12,3226           02764                           STORE    EPSILONL
001535: 12,3227           77214                           SET      VLOAD
001536: 12,3230           00474                                    SLOPESW
001537: 12,3231           02655                                    R1VEC
001538: 12,3232           45115                           PDVL     CALL                                  #  0D=R1VEC (+29 OR +27)        PL AT 6
001539: 12,3233           02663                                    R2VEC                                 #  MPAC=R2VEC (+29 OR +27)
001540: 12,3234           11131                                    GEOM
001541: 12,3235           16730                           STODL    SNTH                                  #  0D=CSTH (+1)                 PL AT 2
001542: 12,3236           02720                                    MAGVEC2
001543: 12,3237           65301                           NORM     PDDL                                  #                               PL AT 4
001544: 12,3240           00047                                    X1
001545: 12,3241           00041                                    R1
001546: 12,3242           56342                           SR1      DDV                                   #                               PL AT 2
001547: 12,3243           65257                           SL*      PDDL                                  #  DXCH WITH 0D, 0D=R1/R2 (+7)  PL AT 0,2
001548: 12,3244           20173                                    0          -6,1
001549: 12,3245           77626                           STADR
001550: 12,3246           75045                           STORE    CSTH                                  #  CSTH (+1)
001551: 12,3247           44342                           SR1      BDSU
001552: 12,3250           11040                                    D1/4
001553: 12,3251           02734                           STORE    1-CSTH                                #  1-CSTH (+2)
001554:
001555: 12,3252           53106                           ROUND    BZE
001556: 12,3253           25473                                    360LAMB
001557: 12,3254           65301                           NORM     PDDL                                  #                               PL AT 4
001558: 12,3255           00047                                    X1
001559: 12,3256           00001                                    0D
001560: 12,3257           56342                           SR1      DDV                                   #                               PL AT 2
001561: 12,3260           75457                           SL*      SQRT
001562: 12,3261           20176                                    0          -3,1
001563: 12,3262           54325                           PDDL     SR                                    #  2D=SQRT(2R1/R2(1-CSTH)) (+5) PL AT 4
001564: 12,3263           02730                                    SNTH
001565: 12,3264           20607                                    6
001566: 12,3265           43271                           DDV      DAD                                   #                               PL AT 2
001567: 12,3266           02734                                    1-CSTH
001568: 12,3267           77626                           STADR
001569: 12,3270           77760                           STORE    COGAMAX
001570: 12,3271           50000                           BOV      BMN                                   #  IF OVFL, COGAMAX=COGUPLIM
001571: 12,3272           25277                                    UPLIM                                 #  IF NEG, USE EVEN IF LT COGLOLIM, SINCE


001573: 12,3273           25302                                    MAXCOGA                               #    THIS WOULD BE RESET IN LAMBLOOP
001574: 12,3274           50025                           DSU      BMN                                   #  IF COGAMAX GT COGUPLIM, COGAMAX=COGUPLIM
001575: 12,3275           11062                                    COGUPLIM
001576: 12,3276           25302                                    MAXCOGA                               #  OTHERWISE OK, SO GO TO MAXCOGA
001577: 12,3277           77745        UPLIM              DLOAD
001578: 12,3300           11062                                    COGUPLIM                              #  COGUPLIM=.999511597 = MAX VALUE OF COGA
001579: 12,3301           00017                           STORE    COGAMAX                               #    NOT CAUSING OVFL IN R1A CALCULATION
001580: 12,3302           77745        MAXCOGA            DLOAD
001581: 12,3303           02732                                    CSTH
001582: 12,3304           45261                           SR       DSU                                   #                               PL AT 0
001583: 12,3305           20607                                    6
001584: 12,3306           77626                           STADR
001585: 12,3307           61041                           STODL    CSTH-RHO
001586: 12,3310           02673                                    GEOMSGN
001587: 12,3311           71240                           BMN      DLOAD
001588: 12,3312           25513                                    LOLIM
001589: 12,3313           02736                                    CSTH-RHO
001590: 12,3314           56352                           SL1      DDV
001591: 12,3315           02730                                    SNTH
001592: 12,3316           77600                           BOV
001593: 12,3317           25513                                    LOLIM
001594: 12,3320           00011        MINCOGA            STORE    COGAMIN                               #  COGAMIN (+5)
001595: 12,3321           66214                           BON      SSP
001596: 12,3322           00715                                    GUESSW
001597: 12,3323           25477                                    NOGUESS
001598: 12,3324           00051                                    TWEEKIT
001599: 12,3325           00001                                    00001
001600: 12,3326           77745                           DLOAD
001601: 12,3327           02766                                    COGA
001602:
001603:
001604: 12,3330           77605        LAMBLOOP           DMP
001605: 12,3331           02730                                    SNTH
001606: 12,3332           45342                           SR1      DSU
001607: 12,3333           02736                                    CSTH-RHO
001608: 12,3334           65301                           NORM     PDDL                                  #  0D=SNTH COGA-(CSTH-RHO) (+7+C(XI)) PL=2
001609: 12,3335           00047                                    X1
001610: 12,3336           02734                                    1-CSTH
001611: 12,3337           56257                           SL*      DDV                                   #  1-CSTH  (+2)                 PL AT 0
001612: 12,3340           20170                                    0          -9D,1
001613: 12,3341           53040                           BMN      BZE
001614: 12,3342           25427                                    NEGP
001615: 12,3343           25427                                    NEGP
001616: 12,3344           16740                           STODL    P                                     #  P=(1-CSTH)/(SNTH COGA-(CSTH-RHO)) (+4)
001617: 12,3345           02766                                    COGA
001618: 12,3346           43316                           DSQ      DAD
001619: 12,3347           11046                                    D1/1024
001620: 12,3350           41301                           NORM     DMP
001621: 12,3351           00047                                    X1
001622: 12,3352           02740                                    P


001624: 12,3353           44257                           SR*      BDSU
001625: 12,3354           20571                                    0          -8D,1
001626: 12,3355           11044                                    D1/32
001627: 12,3356           16742                           STODL    R1A                                   #  R1A=2-P(1+COGA COGA) (+6)
001628:
001629: 12,3357           02740                                    P
001630: 12,3360           45000                           BOV      CALL
001631: 12,3361           25432                                    HIENERGY
001632: 12,3362           24767                                    GETX
001633: 12,3363           77745                           DLOAD
001634: 12,3364           00037                                    T
001635: 12,3365           16762                           STODL    TPREV
001636: 12,3366           00031                                    XI
001637: 12,3367           45014                           BON      CALL
001638: 12,3370           04310                                    INFINFLG
001639: 12,3371           25427                                    NEGP                                  #  HAVE EXCEEDED THEORETICAL BOUNDS
001640: 12,3372           24421                                    DELTIME
001641: 12,3373           44200                           BOV      BDSU
001642: 12,3374           25447                                    BIGTIME
001643: 12,3375           02671                                    TDESIRED
001644: 12,3376           02760                           STORE    TERRLAMB
001645: 12,3377           44246                           ABS      BDSU
001646: 12,3400           02764                                    EPSILONL
001647: 12,3401           47044                           BPL      RTB
001648: 12,3402           25516                                    INITV
001649: 12,3403           24644                                    CHECKCTR
001650: 12,3404           43030                           BHIZ     BON
001651: 12,3405           25460                                    SUFFCHEK
001652: 12,3406           00714                                    SLOPESW
001653: 12,3407           25415                                    GOITER
001654: 12,3410           45345                           DLOAD    DSU
001655: 12,3411           00037                                    T
001656: 12,3412           02762                                    TPREV
001657: 12,3413           77654                           BZE
001658: 12,3414           25460                                    SUFFCHEK
001659: 12,3415           77624        GOITER             CALL
001660: 12,3416           24536                                    ITERATOR
001661: 12,3417           53145                           DLOAD    BZE
001662: 12,3420           00155                                    MPAC
001663: 12,3421           25460                                    SUFFCHEK
001664: 12,3422           77615                           DAD
001665: 12,3423           02766                                    COGA
001666: 12,3424           02766                           STORE    COGA
001667: 12,3425           77650                           GOTO
001668: 12,3426           25330                                    LAMBLOOP
001669:
001670:
001671: 12,3427           51145        NEGP               DLOAD    BPL                                   #  IMPOSSIBLE TRAJECTORY DUE TO INACCURATE
001672: 12,3430           00015                                    DCOGA                                 #  BOUND CALCULATION. TRY NEW COGA.
001673: 12,3431           25452                                    LOENERGY
001674:


001676: 12,3432           71201        HIENERGY           SETPD    DLOAD                                 #  HIGH ENERGY TRAJECTORY RESULTED
001677: 12,3433           00001                                    0
001678: 12,3434           02766                                    COGA                                  #  IN OVFL OF P OR R1A, OR XI EXCEEDING 50.
001679: 12,3435           00011                           STORE    COGAMIN                               #  THIS IS THE NEW BOUND.
001680: 12,3436           70545        COMMONLM           DLOAD    SR1
001681: 12,3437           00015                                    DCOGA
001682: 12,3440           00015                           STORE    DCOGA                                 #  USE DCOGA/2 AS DECREMENT
001683: 12,3441           44254                           BZE      BDSU
001684: 12,3442           25460                                    SUFFCHEK
001685: 12,3443           02766                                    COGA
001686: 12,3444           02766                           STORE    COGA
001687: 12,3445           77650                           GOTO                                           #  RESTART THIS LOOP
001688: 12,3446           25330                                    LAMBLOOP
001689:
001690:
001691: 12,3447           77745        BIGTIME            DLOAD
001692: 12,3450           02762                                    TPREV
001693: 12,3451           00037                           STORE    T
001694:
001695:
001696: 12,3452           71201        LOENERGY           SETPD    DLOAD                                 #  LOW ENERGY TRAJECTORY RESULTED
001697: 12,3453           00001                                    0
001698: 12,3454           02766                                    COGA                                  #  IN OVERFLOW OF TIME.
001699: 12,3455           00017                           STORE    COGAMAX                               #  THIS IS THE NEW BOUND.
001700: 12,3456           77650                           GOTO
001701: 12,3457           25436                                    COMMONLM
001702:
001703:
001704: 12,3460           51545        SUFFCHEK           DLOAD    ABS
001705: 12,3461           02760                                    TERRLAMB
001706: 12,3462           41325                           PDDL     DMP
001707: 12,3463           02671                                    TDESIRED                              #                               PL AT 2D
001708: 12,3464           11031                                    BEE17
001709: 12,3465           45215                           DAD      DSU                                   #                               PL AT 0D
001710: 12,3466           11060                                    ONEBIT
001711: 12,3467           43044                           BPL      SETGO
001712: 12,3470           25516                                    INITV
001713: 12,3471           02434                                    SOLNSW
001714: 12,3472           25516                                    INITV
001715: 12,3473           43001        360LAMB            SETPD    SETGO                                 #  LAMBERT CANNOT HANDLE CSTH=1
001716: 12,3474           00001                                    0
001717: 12,3475           02434                                    SOLNSW
001718: 12,3476           02710                                    RTNLAMB
001719:
001720:
001721: 12,3477           71331        NOGUESS            SSP      DLOAD
001722: 12,3500           00051                                    TWEEKIT
001723: 12,3501           10000                                    20000
001724: 12,3502           00011                                    COGAMIN                               #                               PL AT 2
001725: 12,3503           65342                           SR1      PDDL


001727: 12,3504           00017                                    COGAMAX
001728: 12,3505           43342                           SR1      DAD
001729: 12,3506           77626                           STADR                                          #                               PL AT 0
001730: 12,3507           75011                           STORE    COGA
001731: 12,3510           00015                           STORE    DCOGA
001732: 12,3511           77650                           GOTO
001733: 12,3512           25330                                    LAMBLOOP
001734:
001735:
001736: 12,3513           52145        LOLIM              DLOAD    GOTO
001737: 12,3514           11064                                    COGLOLIM                              #  COGLOLIM=-.999511597
001738: 12,3515           25320                                    MINCOGA
001739:
001740:
001741: 12,3516           60345        INITV              DLOAD    NORM
001742: 12,3517           00041                                    R1
001743: 12,3520           00047                                    X1
001744: 12,3521           70525                           PDDL     SR1                                   #                               PL AT 2
001745: 12,3522           02740                                    P
001746: 12,3523           77671                           DDV                                            #                               PL AT 0
001747: 12,3524           75457                           SL*      SQRT
001748: 12,3525           20175                                    0          -4,1
001749: 12,3526           72405                           DMP      SL1
001750: 12,3527           00021                                    ROOTMU
001751: 12,3530           41206                           PUSH     DMP                                   #  0D=VTAN (+7)                 PL AT 2
001752: 12,3531           02766                                    COGA
001753: 12,3532           74261                           SL       VXSC
001754: 12,3533           20206                                    5
001755: 12,3534           02722                                    UR1
001756: 12,3535           77725                           PDDL                                           #  XCH WITH 0D                  PL AT 0,6
001757: 12,3536           76561                           VXSC     VSL1
001758: 12,3537           02674                                    UN
001759: 12,3540           53235                           VXV      VAD
001760: 12,3541           02722                                    UR1                                   #                               PL AT 0
001761: 12,3542           77772                           VSL1
001762: 12,3543           02744                           STORE    VVEC
001763: 12,3544           53135                           SLOAD    BZE
001764: 12,3545           02702                                    VTARGTAG
001765: 12,3546           25551                                    TARGETV
001766: 12,3547           77650                           GOTO
001767: 12,3550           02710                                    RTNLAMB
001768:
001769:
001770: 12,3551           45145        TARGETV            DLOAD    CALL
001771: 12,3552           02720                                    MAGVEC2
001772: 12,3553           24701                                    LAMENTER
001773: 12,3554           02703                           STORE    VTARGET
001774: 12,3555           77650                           GOTO
001775: 12,3556           02710                                    RTNLAMB
001776:


001778: 12,3557           40220        TIMERAD            STQ      SETPD                                 #                                  PL AT 0
001779: 12,3560           02710                                    RTNTR
001780: 12,3561           00001                                    0
001781: 12,3562           77600                           BOV
001782: 12,3563           25564                                    +1
001783: 12,3564           63375                           VLOAD    PDVL                                  #                                  PL AT 6
001784: 12,3565           02655                                    RVEC
001785: 12,3566           02744                                    VVEC
001786: 12,3567           77624                           CALL
001787: 12,3570           11065                                    PARAM
001788: 12,3571           71200                           BOV      DLOAD                                 #                                  PL AT 0
001789: 12,3572           24764                                    COGAOVFL
001790: 12,3573           11044                                    D1/32
001791: 12,3574           41225                           DSU      DMP
001792: 12,3575           02742                                    R1A
001793: 12,3576           02740                                    P
001794: 12,3577           41366                           SQRT     DMP
001795: 12,3600           02766                                    COGA
001796: 12,3601           74212                           SL4      VXSC
001797: 12,3602           02712                                    U2
001798: 12,3603           45325                           PDDL     DSU                                   #                                  PL AT 6
001799: 12,3604           11036                                    D1/64
001800: 12,3605           02742                                    R1A
001801: 12,3606           52361                           VXSC     VSU                                   #                                  PL AT 0
001802: 12,3607           02722                                    UR1
001803: 12,3610           53512                           VSL4     UNIT
001804: 12,3611           77600                           BOV
001805: 12,3612           25670                                    CIRCULAR
001806: 12,3613           60325                           PDDL     NORM                                  #  0D=UNIT(ECC) (+3)               PL AT 6
001807: 12,3614           02756                                    RDESIRED                              #  36D=ECC (+3)
001808: 12,3615           00047                                    X1
001809: 12,3616           41325                           PDDL     DMP                                   #                               PL AT 8
001810: 12,3617           00041                                    R1
001811: 12,3620           02740                                    P
001812: 12,3621           56257                           SL*      DDV                                   #                               PL AT 6
001813: 12,3622           20201                                    0,1
001814: 12,3623           56225                           DSU      DDV
001815: 12,3624           11042                                    D1/16
001816: 12,3625           00045                                    36D                                   #  36D=ECC (+3)
001817: 12,3626           00031                           STORE    COSF
001818: 12,3627           63400                           BOV      DSQ
001819: 12,3630           25674                                    BADR2
001820: 12,3631           50021                           BDSU     BMN
001821: 12,3632           11040                                    D1/4
001822: 12,3633           25674                                    BADR2
001823: 12,3634           75366                           SQRT     SIGN
001824: 12,3635           02755                                    SGNRDOT
001825: 12,3636           77614                           CLEAR
001826: 12,3637           04272                                    APSESW


001828: 12,3640           76561        TERMNVEC           VXSC     VSL1
001829: 12,3641           02674                                    UN
001830: 12,3642           63235                           VXV      PDVL                                  #  VXCH WITH 0D                 PL AT 0,6
001831: 12,3643           00001                                    0D
001832: 12,3644           53361                           VXSC     VAD                                   #                               PL AT 0
001833: 12,3645           00031                                    COSF
001834: 12,3646           41572                           VSL1     PUSH                                  #  0D=U2                        PL AT 6
001835:
001836: 12,3647           56241                           DOT      DDV                                   #  LIMITS RESULT TO POSMAX OR NEGMAX
001837: 12,3650           02722                                    UR1
001838: 12,3651           25766                                    DP1/4
001839: 12,3652           40142                           SR1      BOV                                   #  SCALE BACK DOWN TO NORMAL
001840: 12,3653           25654                                    +1                                    #  CLEAR OVFIND IF SET
001841: 12,3654           26732                           STOVL    CSTH                                  #  CSTH (+1)
001842: 12,3655           02722                                    UR1
001843: 12,3656           76435                           VXV      VSL1
001844: 12,3657           72441                           DOT      SL1
001845: 12,3660           02674                                    UN
001846: 12,3661           16730                           STODL    SNTH                                  #  SNTH (+1)
001847: 12,3662           02740                                    P
001848: 12,3663           77624                           CALL
001849: 12,3664           24767                                    GETX
001850: 12,3665           77614                           CLRGO
001851: 12,3666           02634                                    SOLNSW
001852: 12,3667           24747                                    COMMNOUT
001853:
001854:
001855: 12,3670           43001        CIRCULAR           SETPD    SETGO
001856: 12,3671           00001                                    0
001857: 12,3672           02434                                    SOLNSW
001858: 12,3673           25752                                    ABTCONIC
001859:
001860:
001861: 12,3674           75345        BADR2              DLOAD    SIGN
001862: 12,3675           24005                                    LODPHALF
001863: 12,3676           00031                                    COSF
001864: 12,3677           14031                           STODL    COSF
001865: 12,3700           24007                                    KEPZERO
001866: 12,3701           77614                           SETGO
001867: 12,3702           04032                                    APSESW
001868: 12,3703           25640                                    TERMNVEC
001869:


001871: 12,3704           40220        APSIDES            STQ      SETPD                                 #                                  PL AT  0
001872: 12,3705           02710                                    RTNAPSE
001873: 12,3706           00001                                    0D
001874: 12,3707           77600                           BOV
001875: 12,3710           25711                                    +1
001876: 12,3711           63375                           VLOAD    PDVL                                  #                                  PL AT  6
001877: 12,3712           02655                                    RVEC
001878: 12,3713           02744                                    VVEC
001879: 12,3714           77624                           CALL
001880: 12,3715           11065                                    PARAM
001881: 12,3716           77600                           BOV                                            #                                  PL AT  0
001882: 12,3717           25720                                    GETECC
001883: 12,3720           42405        GETECC             DMP      SL4
001884: 12,3721           02742                                    R1A
001885: 12,3722           75421                           BDSU     SQRT
001886: 12,3723           11036                                    D1/64
001887: 12,3724           02752                           STORE    ECC
001888: 12,3725           65215                           DAD      PDDL                                  #                                  PL AT  2
001889: 12,3726           11032                                    D1/8
001890: 12,3727           00041                                    R1
001891: 12,3730           72405                           DMP      SL1
001892: 12,3731           02740                                    P
001893: 12,3732           77671                           DDV                                            #                                  PL AT  0
001894: 12,3733           60325                           PDDL     NORM                                  #  0D=RP (+29 OR +27)              PL AT  2
001895: 12,3734           02742                                    R1A
001896: 12,3735           00047                                    X1
001897: 12,3736           53725                           PDDL     SL*                                   #                                  PL AT  4
001898: 12,3737           00041                                    R1
001899: 12,3740           20174                                    0          -5,1
001900: 12,3741           45271                           DDV      DSU                                   #                                  PL AT 2,0
001901: 12,3742           50000                           BOV      BMN
001902: 12,3743           25747                                    INFINAPO
001903: 12,3744           25747                                    INFINAPO
001904: 12,3745           77650                           GOTO
001905: 12,3746           02710                                    RTNAPSE
001906: 12,3747           52145        INFINAPO           DLOAD    GOTO                                  #  RETURNS WITH APOAPSIS IN MPAC, PERIAPSIS
001907: 12,3750           24020                                    LDPOSMAX
001908: 12,3751           02710                                    RTNAPSE                               #  THAT PL IS AT 0.
001909:


001911: 12,3752           77776        ABTCONIC           EXIT
001912: 12,3753           05644                           TC       POODOO
001913: 12,3754           20607                           OCT      20607
001914:
001915: 12,3755  12,2017               LDPOSMAX           EQUALS   LODPMAX                               #  DPPOSMAX IN LOW MEMORY.
001916:
001917:                                                                                                  #  ERASABLE ASSIGNMENTS
001918:
001919:
001920:                                                                                                  #  KEPLER SUBROUTINE
001921:
001922:                                                                                                  #     INPUT -
001923:                                                                                                  #  RRECT    ERASE  +5
001924:                                                                                                  #  VRECT    ERASE  +5
001925:                                                                                                  #  TAU.     ERASE  +1
001926:                                                                                                  #  XKEP     ERASE  +1
001927:                                                                                                  #  TC       ERASE  +1
001928:                                                                                                  #  XPREV    ERASE  +1
001929: 12,3755                        1/MU               EQUALS   14D
001930: 12,3755                        ROOTMU             EQUALS   16D
001931: 12,3755                        1/ROOTMU           EQUALS   18D
001932:                                                                                                  #     OUTPUT -
001933:                                                                                                  #  RCV      ERASE  +5
001934:                                                                                                  #  VCV      ERASE  +5
001935:                                                                                                  #  RC       ERASE  +1
001936:                                                                                                  #  XPREV    ERASE  +1
001937:
001938:                                                                                                  #  DEBRIS -
001939: 12,3755                        ALPHA              EQUALS   8D
001940: 12,3755                        XMAX               EQUALS   10D
001941: 12,3755                        XMIN               EQUALS   12D
001942: 12,3755                        X                  EQUALS   20D
001943: 12,3755                        XI                 EQUALS   24D
001944: 12,3755                        S(XI)              EQUALS   26D
001945: 12,3755                        XSQC(XI)           EQUALS   28D
001946: 12,3755                        T                  EQUALS   30D
001947: 12,3755                        R1                 EQUALS   32D
001948: 12,3755                        KEPC1              EQUALS   34D
001949: 12,3755                        KEPC2              EQUALS   36D
001950:                                                                                                  #  DELX     ERASE  +1
001951:                                                                                                  #  DELT     ERASE  +1
001952:                                                                                                  #  URRECT   ERASE  +5
001953:                                                                                                  #  RCNORM   ERASE  +1
001954:                                                                                                  #  XPREV    EQUALS XKEP
001955:
001956:
001957:                                                                                                  #  LAMBERT SUBROUTINE
001958:
001959:                                                                                                  #     INPUT-
001960:                                                                                                  #  R1VEC    ERASE  +5


001962:                                                                                                  #  R2VEC    ERASE  +5
001963:                                                                                                  #  TDESIRED ERASE  +1
001964:                                                                                                  #  GEOMSGN  ERASE  +0
001965:                                                                                                  #  GUESSW                          0 IF COGA GUESS AVAILABLE, 1 IF NOT
001966:                                                                                                  #  COGA     ERASE  +1              INPUT ONLY IF GUESSW IS ZERO.
001967:                                                                                                  #  NORMSW                          0 IF UN TO BE COMPUTED, 1 IF UN INPUT
001968:                                                                                                  #  UN       ERASE  +5              ONLY USEC IF NORMSW IS 1
001969:                                                                                                  #  VTARGTAG ERASE  +0
001970:                                                                                                  #  TWEEKIT  EQUALS 40D             ONLY USED IF GUESSW IS 0
001971:
001972:                                                                                                  #     OUTPUT -
001973:                                                                                                  #  VTARGET  ERASE  +5              AVAILABLE ONLY IF VTARGTAG IS ZERO.
001974:                                                                                                  #  V1VEC    EQUALS MPAC
001975:
001976:                                                                                                  #     DEBRIS -
001977:                                                                                                  #  RTNLAMB  ERASE  +0
001978:                                                                                                  #  U2       ERASE  +5
001979:                                                                                                  #  MAGVEC2  ERASE  +1
001980:                                                                                                  #  UR1      ERASE  +5
001981:                                                                                                  #  R1       EQUALS 31D
001982:                                                                                                  #  UN       ERASE  +5
001983:                                                                                                  #  SNTH     ERASE  +1
001984:                                                                                                  #  CSTH     ERASE  +1
001985:                                                                                                  #  1-CSTH   ERASE  +1
001986:                                                                                                  #  CSTH-RHO ERASE  +1
001987: 12,3755                        COGAMAX            EQUALS   14D                                   #  CLOBBERS 1/MU
001988: 12,3755                        COGAMIN            EQUALS   8D
001989: 12,3755                        DCOGA              EQUALS   12D
001990:                                                                                                  #  TWEEKIT  EQUALS 40D
001991:                                                                                                  #  P        ERASE  +1
001992:                                                                                                  #  COGA     ERASE  +1
001993:                                                                                                  #  R1A      ERASE  +1
001994:                                                                                                  #  X        EQUALS 20D
001995:                                                                                                  #  XSQ      EQUALS 22D
001996:                                                                                                  #  XI       EQUALS 24D
001997:                                                                                                  #  S(XI)    EQUALS 26D
001998:                                                                                                  #  XSQC(XI) EQUALS 28D
001999:                                                                                                  #  T        EQUALS 30D
002000:                                                                                                  #  KEPC1    EQUALS 34D
002001:                                                                                                  #  KEPC2    EQUALS 36D
002002:                                                                                                  #  SLOPESW
002003:                                                                                                  #  SOLNSW
002004:                                                                                                  #  OTHERS -
002005:
002006:                                                                                                  #  RVEC     EQUALS R1VEC
002007:                                                                                                  #  VVEC     ERASE  +5
002008:                                                                                                  #  COGAFLAG
002009:                                                                                                  #  RVSW
002010:                                                                                                  #  INFINFLG
002011:                                                                                                  #  APSESW


002013:                                                                                                  #  360SW
002014:                                                                                                  #  RTNTT    EQUALS RTNLAMB
002015:                                                                                                  #  ECC      ERASE  +1
002016:                                                                                                  #  RTNTR    EQUALS RTNLAMB
002017:                                                                                                  #  RTNAPSE  EQUALS RTNLAMB
002018:                                                                                                  #  R2       EQUALS MAGVEC2
002019: 12,3755                        COSF               EQUALS   24D
002020:                                                                                                  #  RTNPRM   ERASE  +0
002021:                                                                                                  #  SGNRDOT  ERASE  +0
002022:                                                                                                  #  RDESIRED ERASE  +1
002023:
002024:
002025:                                                                                                  #  ITERATOR SUBROUTINE
002026:
002027:                                                                                                  #  ORDERSW
002028: 12,3755                        MAX                EQUALS   14D                                   #  CLOBBERS 1/MU
002029: 12,3755                        MIN                EQUALS   8D
002030:                                                                                                  #  INDEP    ERASE  +1
002031: 12,3755                        DELINDEP           EQUALS   12D
002032: 12,3755                        ITERCTR            EQUALS   22D
002033: 12,3755                        DEP                EQUALS   30D
002034:                                                                                                  #  DELDEP   ERASE  +1
002035:                                                                                                  #  DEPREV   ERASE  +1
002036: 12,3755                        TWEEKIT            EQUALS   40D
002037:
002038:
002039:                                                                                                  #  MORE KEPLER
002040:
002041:                                                                                                  #  EPSILONT ERASE  +1
002042:
002043:
002044:                                                                                                  #  MORE LAMBERT
002045:
002046:                                                                                                  #  TERRLAMB EQUALS DELDEP
002047:                                                                                                  #  TPREV    EQUALS DEPREV
002048:
002049:                                                                                                  #  EPSILONL EQUALS EPSILONT +2     DOUBLE PRECISION WORD

End of include-file CONIC_SUBROUTINES.agc.  Parent file is MAIN.agc


