
Source Code


000002:                                                                                                  ## Copyright:   Public domain.
000003:                                                                                                  ## Filename:    CONIC_SUBROUTINES.agc
000004:                                                                                                  ## Purpose:     A section of Luminary revision 210.
000005:                                                                                                  ##              It is part of the source code for the Lunar Module's (LM)
000006:                                                                                                  ##              Apollo Guidance Computer (AGC) for Apollo 15-17.
000007:                                                                                                  ##              This file is intended to be a faithful transcription, except
000008:                                                                                                  ##              that the code format has been changed to conform to the
000009:                                                                                                  ##              requirements of the yaYUL assembler rather than the
000010:                                                                                                  ##              original YUL assembler.
000011:                                                                                                  ## Reference:   pp. 1157-1201
000012:                                                                                                  ## Assembler:   yaYUL
000013:                                                                                                  ## Contact:     Ron Burkey <info@sandroid.org>.
000014:                                                                                                  ## Website:     www.ibiblio.org/apollo/index.html
000015:                                                                                                  ## Mod history: 2016-11-17 JL   Created from Luminary131 version.
000016:                                                                                                  ##              2016-12-09 MAS  Began updating for Luminary 210.
000017:                                                                                                  ##              2016-12-10 MAS  Completed updates (almost entirely comment formatting)
000018:


000020:                                                                                                  #  PROGRAM DESCRIPTION - ENTIRE CONIC SUBROUTINE LOG SECTION                       DATE - 1 SEPTEMBER 1967
000021:                                                                                                  #  MOD NO. - 0                                                                     LOG SECTION - CONIC SUBROUTINES
000022:                                                                                                  #  MOD BY KRAUSE                                                                   ASSEMBLY - COLOSSUS REVISION 88
000023:
000024:
000025:


000028:                                                                                                  #  FUNCTIONAL DESCRIPTION -
000029:
000030:                                                                                                  #       THE FOLLOWING SET OF SUBROUTINES SOLVE VARIOUS PROBLEMS INVOLVING THE TRAJECTORY PRODUCED BY A CENTRAL
000031:                                                                                                  #  INVERSE-SQUARE FORCE ACTING ON A POINT MASS, AS OUTLINED IN THE CMC AND LGC LUNAR LANDING MISSION GSOP, SECTION
000032:                                                                                                  #  5.5.1.2.  A GENERAL USAGE POINT-OF-VIEW WAS TAKEN IN FORMULATING, MECHANIZING, AND SCALING THE SUBROUTINES,
000033:                                                                                                  #  RATHER THAN OPTIMIZING EACH FOR A PARTICULAR USE.  THEREFORE, MULTIPLE USAGE CAN BE MADE OF THE SUBROUTINES
000034:                                                                                                  #  INVOLVING ANY REALISTIC SET OF CONSTRAINTS.  IT SHOULD BE NOTED THAT ONLY ONE SET OF CODING IS USED, WHETHER THE
000035:                                                                                                  #  EARTH, MOON, OR ANY OTHER CELESTIAL BODY IS SPECIFIED AS THE CENTRAL BODY OF THE PROBLEM, PROVIDED ONE OBSERVES
000036:                                                                                                  #  THE INHERENT SCALE CHANGE REQUIRED IN POSITION, VELOCITY, MU, AND TIME, AS OUTLINES IN MISSION PROGRAMMING
000037:                                                                                                  #  DEFINITION MEMO NO. 10.  THIS CAN BE ACCOMPLISHED BY SIMPLY ADDING TO THE MUTABLE AND INITIALIZING THE SUBROU-
000038:                                                                                                  #  TINES APPROPRIATELY.
000039:                                                                                                  #       DUE TO THE UNIFORMITY OF THE EQUATIONS INVOLVED, CODING WAS MINIMIZED BY TREATING INDIVIDUAL EQUATIONS AND
000040:                                                                                                  #  BLOCKS OF EQUATIONS AS SUBROUTINES OF LOWER RANK WHENEVER POSSIBLE.  AS A RESULT, THREE BY-PRODUCTS SUBROUTINES,
000041:                                                                                                  #  DIRECTLY USABLE AS INDEPENDENT SUBROUTINES, WERE GENERATED.
000042:
000043:
000044:                                                                                                  #  RESTRICTIONS -
000045:
000046:                                                                                                  #       THE ONLY LIMITATION IN THE SCOPE OF PROBLEM WHICH CAN BE SOLVED BY A PARTICULAR SUBROUTINE IS THE SCALING
000047:                                                                                                  #  LIMIT OF EACH PARAMETER AS SPECIFIED IN THE GSOP.  THESE SCALING LIMITS WERE CHOSEN SO THAT ALL FEASIBLE TRAJEC-
000048:                                                                                                  #  TORIES COULD BE HANDLED.
000049:                                                                                                  #       SINCE THE SUBROUTINES (EXCEPT KEPLER) USE COMMON SUBROUTINES OF LOWER RANK WHICH USE ERASABLE OTHER THAN
000050:                                                                                                  #  THE PUSHLIST (DUE TO ITS LIMITED SIZE) AND COMMON INTERPRETIVE SWITCHES, THE CONIC SUBROUTINES CANNOT BE ALLOWED
000051:                                                                                                  #  TO INTERRUPT EACH OTHER.  IT IS UP TO THE USER TO GUARANTEE THIS CONDITION.
000052:


000054:                                                                                                  #  PROGRAM DESCRIPTION - KEPLER SUBROUTINE                                 DATE - 11 OCTOBER 1967
000055:                                                                                                  #  MOD NO. -1                                                                       LOG SECTION - CONIC SUBROUTINES
000056:                                                                                                  #  MOD BY KRAUSE                                                           ASSEMBLY - COLOSSUS 103 AND SUNDANCE 222
000057:                                                                                                  #  MOD NO. - 2  (AUGUST 1968) BY ROBERTSON: TO PERMIT BACKDATING BY MORE THAN ONE ORBITAL PERIOD.
000058:
000059:
000060:                                                                                                  #  MOD NO. - 3  (DEC 1968) BY ROBERTSON: SUPPRESSION OF X-MODULO-ING
000061:
000062:
000063:                                                                                                  #  MOD NO. - 4   (JAN 1969) BY ROBERTSON: CLEAR OVFIND AT KEPLER ENTRY
000064:
000065:
000066:                                                                                                  #  FUNCTIONAL DESCRIPTION -
000067:                                                                                                  #       THIS SUBROUTINE, GIVEN AN INITIAL STATE VECTOR AND THE DESIRED TRANSFER TIME THROUGH WHICH THE STATE IS TO
000068:                                                                                                  #  BE UPDATED ALONG A CONIC TRAJECTORY, COMPUTES THE NEW, UPDATED STATE VECTOR.  THE TRAJECTORY MAY BE ANY CONIC
000069:                                                                                                  #  SECTION - CIRCULAR, ELLIPTIC, PARABOLIC, HYPERPOLIC, OR RECTILINEAR WITH RESPECT TO THE EARTH OR THE MOON.  THE
000070:                                                                                                  #  USE OF THE SUBROUTINE CAN BE EXTENDED USING OTHER PRIMARY BODIES BY SIMPLE ADDITIONS TO THE MUTABLE WITHOUT
000071:                                                                                                  #  INTRODUCING ANY CODING CHANGES, ACCEPTING THE INHERENT SCALE FACTOR CHANGES IN POSITION AND VELOCITY.  AN ITERA-
000072:                                                                                                  #  TION TECHNIQUE IS UTILIZED IN THE COMPUTATION.
000073:                                                                                                  #       IF A NEGATIVE TIME-OF-FLIGHT IS INPUT, THE PROGRAM WILL SOLVE FOR THE STATE WHICH WOULD BE PRODUCED BY
000074:                                                                                                  #  EXTRAPOLATING THE POSITION BACKWARD IN TIME.
000075:                                                                                                  #       IF THE ABSOLUTE VALUE OF THE DESIRED TRANSFER TIME EXCEEDS THE ORBITAL PERIOD, THE SUBROUTINE, THROUGH A
000076:                                                                                                  #  MODULAR TECHNIQUE, WILL COMPUTE THE STATE CORRESPONDING TO THE DESIRED TIME (WHETHER POSITIVE OR NEGATIVE).
000077:
000078:
000079:                                                                                                  #  THE RESTRICTIONS ARE -
000080:                                                                                                  #       1. (PREVIOUS RESTRICTION ON THE NEGATIVE DESIRED TRANSFER TIME IS NOW DELETED.)
000081:                                                                                                  #       2.  THE PARAMETERS IN THE PROBLEM CANNOT EXCEED THEIR SCALING LIMITS AS SPECIFIED IN THE GSOP.  IF
000082:                                                                                                  #  ANY OF THESE LIMITS ARE EXCEEDED, THE RESULTING SOLUTION WILL BE MEANINGLESS.
000083:
000084:
000085:                                                                                                  #       THE NUMBER OF ITERATIONS AND, THEREFORE, THE COMPUTATION SPEED IS DEPENDENT ON THE ACCURACY OF THE
000086:                                                                                                  #  GUESS, XKFPNEW.  THE AGC COMPUTATION TIME IS APPROXIMATELY .061 SECONDS FOR INITIALIZATION, .065 SECONDS FOR THE
000087:                                                                                                  #  FINAL COMPUTATIONS, PLUS .083 SECONDS FOR EACH ITERATION.
000088:
000089:
000090:
000091:                                                                                                  #  REFERENCES -
000092:                                                                                                  #       R-479, MISSION PROGRAMMING DEFINITION MEMO NO. 10, LUNAR LANDING MISSION GSOP, SECTION 5.5, SGA
000093:                                                                                                  #  MEMO 67-4.
000094:
000095:
000096:
000097:                                                                                                  #  INPUT - ERASABLE INITIALIZATION REQUIRED
000098:
000099:                                                                                                  #          * SCALE FACTOR *
000100:                                                                                                  #  VARIABLE*IN POWERS OF 2*                         DESCRIPTION AND REMARKS
000101:                                                                                                  #  --------*--------------*                         -----------------------
000102:                                                                                                  #  RRECT   * +29 FOR EARTH*DP INITIAL POSITION VECTOR IN METERS
000103:                                                                                                  #          * +27 FOR MOON *


000105:                                                                                                  #  VRECT   * +7 FOR EARTH *DP INITIAL VELOCITY VECTOR IN METERS/CENTISECOND
000106:                                                                                                  #          * +5 FOR MOON  *
000107:                                                                                                  #  X1 (38D)* NONE         *INDEX REGISTER SET TO -2D OR -10D ACCORDING TO WHETHER THE EARTH OR MOON,
000108:                                                                                                  #          *              *RESPECTIVELY, IS THE CENTRAL BODY
000109:                                                                                                  #  TAU     * +28          *DESIRED TRANSFER TIME IN CENTISECONDS (DP)
000110:                                                                                                  #          *              *    MAY BE POS OR NEG AND ABSOLUTE VALUE MAY BE GREATER OR LESS THAN ONE ORBITAL PERIOD.
000111:                                                                                                  #  XKEPNEW * +17 FOR EARTH*DP GUESS OF ROOT X OF KEPLERS EQN IN SQRT(METERS). SIGN SHOULD AGREE WITH THAT OF TAU.
000112:                                                                                                  #          * +16 FOR MOON *    AND ABS VALUE SHOULD BE LESS THAN THAT CORRESPONDING TO A PERIOD,VIZ, 2PI SQRT(SEMI-
000113:                                                                                                  #                         *    MAJOR AXIS),FOR SPEED OF CONVERGENCE,BUT IF EITHER CONDITION FAILS, XKEPNEW IS RESET
000114:                                                                                                  #                         *    BY KEPLER TO A POOR BUT VALID GUESS.
000115:                                                                                                  #  TC      * +28          *DP PREV. VALUE OF TIME IN CENTISECS.  MUST BE LESS THAN ONE ORBITAL PERIOD.
000116:                                                                                                  #  XPREV   * +17 FOR EARTH*DP PREV. VALUE OF X IN SQRT(METERS).  MUST BE LESS THAN AN X CORRESPONDING TO ONE
000117:                                                                                                  #          * +16 FOR MOON *    ORBITAL PERIOD,VIZ,2PI SQRT(SEMI-MAJOR AXIS)
000118:
000119:
000120:
000121:                                                                                                  #  SUBROUTINES CALLED -
000122:                                                                                                  #       DELTIME
000123:
000124:
000125:
000126:                                                                                                  #  CALLING SEQUENCE AND NORMAL EXIT MODES -
000127:
000128:                                                                                                  #  KEPRTN-2 GOTO                   MUST BE IN INTERPRETIVE MODE BUT OVFIND ARBITRARY.
000129:                                                                                                  #  KEPRTN-1        KEPLER          RETURNS WITH XPREV IN MPAC. PL IS AT 0.
000130:                                                                                                  #  KEPRTN   ...                    CONTINUE
000131:
000132:                                                                                                  #  KEPLER MUST NOT BE CALLED DIRECTLY SINCE AN INTERRUPTION OF IT WOULD DESTROY THE ERASABLES IT NEEDS TO COMPLETE
000133:                                                                                                  #  THE INTERRUPTED JOB.  THEREFORE THE USER MUST CALL CSMCONIC OR LEMCONIC WHICH GUARANTEES NO INTERRUPTS AND WHICH
000134:                                                                                                  #  ALSO CALLS KEPPREP TO COMPUTE A GUESS OF XKEPNEW.
000135:
000136:
000137:
000138:                                                                                                  #  ABORT EXIT MODE -
000139:                                                                                                  #       NONE
000140:
000141:
000142:
000143:                                                                                                  #  OUTPUT -
000144:
000145:                                                                                                  #          * SCALE FACTOR *
000146:                                                                                                  #  VARIABLE*IN POWERS OF 2*                         DESCRIPTION AND REMARKS
000147:                                                                                                  #  --------*--------------*                         -----------------------
000148:                                                                                                  #  RCV     * +29 FOR EARTH*DP TERMINAL POSITION VECTOR IN METERS
000149:                                                                                                  #          * +27 FOR MOON *
000150:                                                                                                  #  VCV     * +7 FOR EARTH *DP TERMINAL VELOCITY VECTOR IN METERS/CENTISEC
000151:                                                                                                  #          * +5 FOR MOON  *
000152:                                                                                                  #  TC      * +28          *DP TRANSFER TIME IN CENTISECS TO WHICH KEPLER CONVERGED. ALWAYS LESS THAN ONE PERIOD.
000153:                                                                                                  #  XPREV   * +17 FOR EARTH*DP VALUE OF X IN SQRT(METERS) TO WHICH KEPLER CONVERGED. ALWAYS LESS THAN THE X
000154:                                                                                                  #          * +16 FOR MOON *    CORRESPONDING TO ONE PERIOD.


000156:                                                                                                  #  FOR OTHER OUTPUT WHICH MAY BE OF USE, SEE DEBRIS.
000157:
000158:
000159:
000160:                                                                                                  #  DEBRIS -
000161:
000162:                                                                                                  #       PARAMETERS WHICH MAY BE OF USE -
000163:
000164:                                                                                                  #          * SCALE FACTOR *
000165:                                                                                                  #  VARIABLE*IN POWERS OF 2*                         DESCRIPTION AND REMARKS
000166:                                                                                                  #  --------*--------------*                         -----------------------
000167:                                                                                                  #  URRECT  * +1           *DP UNIT VECTOR OF INITIAL POSITION
000168:                                                                                                  #  R1      * +29 FOR EARTH*DP MAGNITUDE OF INITIAL POSITION IN METERS
000169:                                                                                                  #          * +27 FOR MOON *
000170:                                                                                                  #  ALPHA   * -22 FOR EARTH*DP INVERSE OF SEMIMAJOR AXIS IN 1/METERS
000171:                                                                                                  #          * -20 FOR MOON *
000172:                                                                                                  #  TMODULO * +28          *DP INTEGRAL NUMBER OF PERIODS IN  CENTISECS. WHICH WAS SUBTRACTED FROM TAU. TO PRODUCE A
000173:                                                                                                  #                         *TAU. OF LESS THAN ONE PERIOD.
000174:
000175:                                                                                                  #       PARAMETERS OF NO USE -
000176:                                                                                                  #  DP PARAMETERS - EPSILONT, DELX, DELT, RCNORM, XMODULO, PLUS PUSHLIST REGISTERS 0 THROUGH 39D.
000177:
000178:


000180:                                                                                                  #  PROGRAM DESCRIPTION - LAMBERT SUBROUTINE                                        DATE - 1 SEPTEMBER 1967
000181:                                                                                                  #  MOD NO. - 0                                                                     LOG SECTION - CONIC SUBROUTINES
000182:                                                                                                  #  MOD BY KRAUSE                                                                   ASSEMBLY - COLOSSUS REVISION 88
000183:
000184:
000185:
000186:                                                                                                  #  FUNCTIONAL DESCRIPTION -
000187:
000188:                                                                                                  #       THIS SUBROUTINE CALCULATES THE INITIAL VELOCITY REQUIRED TO TRANSFER A POINT-MASS ALONG A CONIC TRAJECTORY
000189:                                                                                                  #  FROM AN INITIAL POSITION TO A TERMINAL POSITION IN A PRESCRIBED TIME INTERVAL.  THE RESULTING TRAJECTORY MAY BE
000190:                                                                                                  #  A SECTION OF A CIRCLE, ELLIPSE, PARABOLA, OR HYPERBOLA WITH RESPECT TO THE EARTH OR THE MOON.  THE USE OF THE
000191:                                                                                                  #  SUBROUTINE CAN BE EXTENDED USING OTHER PRIMARY BODIES BY SIMPLE ADDITIONS TO THE MUTABLE WITHOUT INTRODUCING ANY
000192:                                                                                                  #  CODING CHANGES, ACCEPTING THE INHERENT SCALE FACTOR CHANGES IN POSITION AND VELOCITY.  AN ITERATION TECHNIQUE IS
000193:                                                                                                  #  UTILIZED IN THE COMPUTATION.
000194:
000195:
000196:                                                                                                  #  THE RESTRICTIONS ARE -
000197:                                                                                                  #       1. RECTILINEAR TRAJECTORIES CANNOT BE COMPUTED.
000198:                                                                                                  #       2. AN ACCURACY DEGRADATION OCCURS AS THE COSINE OF THE TRUE ANOMALY DIFFERENCE APPROACHES +1.0.
000199:                                                                                                  #       3. THE ANGLE BETWEEN ANY POSITION VECTOR AND ITS VELOCITY VECTOR MUST BE GREATER THAN 1 DEGREE 47.5 MINUTES
000200:                                                                                                  #  AND LESS THAN 178 DEGREES 12.5 MINUTES.
000201:                                                                                                  #       4. NEGATIVE TRANSFER TIME IS AMBUGUOUS AND WILL RESULT IN NO SOLUTION.
000202:                                                                                                  #       5. THE PARAMETERS IN THE PROBLEM MUST NOT EXCEED THEIR SCALING LIMITS SPECIFIED IN THE GSOP.  IF THE
000203:                                                                                                  #  LIMITS ARE EXCEEDED, THE RESULTING SOLUTION WILL BE MEANINGLESS.
000204:                                                                                                  #       THE NUMBER OF ITERATIONS AND, THEREFORE, THE COMPUTATIONS SPEED IS DEPENDENT ON THE ACCURACY OF THE FIRST
000205:                                                                                                  #  GUESS OF THE INDEPENDENT VARIABLE, COGA.                                THE AGC COMPUTATION TIME IS APPROXIMATE-# LY .105 SECONDS FOR INITIALIZATION, .069 SECONDS FOR FINAL COMPUTATIONS, PLUS .205 SECONDS FOR EACH ITERATION.
000206:
000207:
000208:
000209:                                                                                                  #  REFERENCES -
000210:                                                                                                  #       R-479, MISSION PROGRAMMING DEFINITION MEMO NO. 10, LUNAR LANDING MISSION GSOP-SECTION 5.5, SGA MEMO 67-8,
000211:                                                                                                  #  SGA MEMO 67-4.
000212:
000213:
000214:
000215:                                                                                                  #  INPUT - ERASABLE INITIALIZATION REQUIRED
000216:
000217:                                                                                                  #          * SCALE FACTOR *
000218:                                                                                                  #  VARIABLE*IN POWERS OF 2*                         DESCRIPTION AND REMARKS
000219:                                                                                                  #  --------*--------------*                         -----------------------
000220:                                                                                                  #  R1VEC   * +29 FOR EARTH*DP INITIAL POSITION VECTOR IN METERS
000221:                                                                                                  #          * +27 FOR MOON *
000222:                                                                                                  #  R2VEC   * +29 FOR EARTH*DP TARGET OR TERMINAL POSITION VECTOR IN METERS
000223:                                                                                                  #          * +27 FOR MOON *
000224:                                                                                                  #  TDESIRED* +28          *DP DESIRED TRANSFER TIME IN CENTISECONDS
000225:                                                                                                  #  X1 (38D)* NONE         *INDEX REGISTER SET TO -2D OR -10D ACCORDING TO WHETHER THE EARTH OR MOON,
000226:                                                                                                  #          *              *RESPECTIVELY, IS THE CENTRAL BODY
000227:                                                                                                  #  GEOMSGN * NONE         *SP +.5 IF DESIRED TRANSFER ANGLE IS LESS THAN 180 DEGREES, -.5 IF GREATER THAN 180 DEG.
000228:                                                                                                  #  GUESSW  * NONE         *AN INTERPRETER SWITCH TO BE SET IF NO GUESS OF COGA IS AVAILABLE, CLEAR IF A GUESS OF


000230:                                                                                                  #          *              *COGA IS TO BE USED BY LAMBERT
000231:                                                                                                  #  COGA    * +5           *DP GUESS OF COTANGNT OF FLIGHT PATH ANGLE (MEASURED FROM VERTICAL).  THIS WILL BE
000232:                                                                                                  #                         *IGNORED IF GUESSW IS SET.
000233:                                                                                                  #  NORMSW  * NONE         *AN INTERPRETER SWITCH TO BE SET IF UN IS TO BE AN INPUT TO THE SUBROUTINE, CLEAR IF
000234:                                                                                                  #          *              *LAMBERT IS TO COMPUTE ITS OWN NORMAL (UN).
000235:                                                                                                  #  UN      * +1           *DP UNIT  NORMAL TO THE DESIRED ORBIT PLANE IN THE DIRECTION OF THE RESULTING ANGULAR
000236:                                                                                                  #          *              *MOMENTUM VECTOR.  THIS WILL BE IGNORED IF NORMSW IS CLEAR.
000237:                                                                                                  #  VTARGTAG* NONE         *A S.P. TAG TO BE SET TO ZERO IF LAMBERT IS TO COMPUTE THE VELOCITY OF R2VEC AS WELL AS
000238:                                                                                                  #          *              *AT R1VEC.
000239:                                                                                                  #  ITERCTR * NONE         *A S.P. COUNTER WHICH SPECIFIES THE MAXIMUM NUMBER OF ITERATIONS ALLOWABLE.
000240:                                                                                                  #          *              *(AN ITERATION MEANS A PASS THRU KEPLER EQN (DELTIME). AT LEAST ONE OF THESE MUST
000241:                                                                                                  #          *              *ALWAYS OCCUR, EVEN IF COGA CORRESPONDING TO SOLUTION WERE INPUT AS A GUESS.)
000242:                                                                                                  #          *              *TWENTY ITERATIONS ARE SUFFICIENT TO SOLVE ALL PROBLEMS INCLUDING THOSE WITHOUT GUESS.
000243:
000244:
000245:                                                                                                  #  SUBROUTINES CALLED -
000246:                                                                                                  #       GEOM, GETX, DELTIME, ITERATOR, LAMENTER (PART OF NEWSTATE)
000247:
000248:
000249:
000250:                                                                                                  #  CALLING SEQUENCE AND NORMAL EXIT MODES -
000251:
000252:                                                                                                  #  L        CALL                   MUST BE IN INTERPRETIVE MODE BUT OVFIND ARBITRARY.
000253:                                                                                                  #  L+1             LAMBERT         RETURNS WITH PL AT 0 AND WITH VVEC IN MPAC IF VTARGTAG WAS NON-ZERO OR VTARGET
000254:                                                                                                  #                                  IN MPAC IF VTARGTAG WAS ZERO
000255:                                                                                                  #  L+2      BON                    CONTINUE IF SOLNSW CLEAR SINCE SOLUTION IS ACCEPTABLE
000256:                                                                                                  #  L+3             SOLNSW
000257:                                                                                                  #  L+4             LAMABORT
000258:                                                                                                  #       IF A LAMBERT RESULT IS TO BE A FIRST GUESS FOR THE NEXT LAMBERT CALCULATION, COGA MUST BE PRESERVED AND
000259:                                                                                                  #  GUESSW MUST BE CLEAR FOR EACH SUCCEEDING LAMBERT CALL.
000260:
000261:
000262:
000263:                                                                                                  #  ABORT EXIT MODES -
000264:                                                                                                  #       IF SOLNSW WAS SET UPON EXITING, EITHER LAMBERT WAS ASKED TO COMPUTE A TRANSFER TOO NEAR 0 OR 360 DEG, OR T
000265:                                                                                                  #  WAS TOO SMALL TO PRODUCE A REALISTIC TRANSFER BETWEEN R1VEC AND R2VEC.  IN EITHER CASE THE FIX MUST BE MADE
000266:                                                                                                  #  ACCORDING TO THE NEEDS OF THE PARTICULAR USER.  THE ABORT EXIT MODE MAY BE CODED AS ...
000267:                                                                                                  #  LAMABORT DLOAD    ABS                   A MEASURE OF PROXIMITY TO 0 OR
000268:                                                                                                  #                    1-CHTH                360 DEGREES.
000269:                                                                                                  #           DSU      BWM
000270:                                                                                                  #                    ONEBIT
000271:                                                                                                  #                    CHANGER2              CHANGE R2VEC DIRECTION SLIGHTLY.
000272:                                                                                                  #           DLOAD    DAD
000273:                                                                                                  #                    TDESIRED
000274:                                                                                                  #                    SOMETIME
000275:                                                                                                  #           STCALL   TDESIRED              INCRESE TDESIRED
000276:                                                                                                  #                    LAMBERT
000277:
000278:


000280:                                                                                                  #  OUTPUT -
000281:                                                                                                  #          * SCALE FACTOR *
000282:                                                                                                  #  VARIABLE*IN POWERS OF 2*                         DESCRIPTION AND REMARKS
000283:                                                                                                  #  --------*--------------*                         -----------------------
000284:                                                                                                  #  VVEC    * +7 FOR EARTH *DP INITIAL VELOCITY VECTOR IN METERS/CENTISECOND REQUIRED TO SATISFY THE BOUNDARY VALUE
000285:                                                                                                  #          * +5 FOR MOON  *PROBLEM.
000286:                                                                                                  #  VTARGET * +7 FOR EARTH *DP RESULTANT VELOCITY VECTOR AT R2VEC IN METERS/CENTISECOND.
000287:                                                                                                  #          * +5 FOR MOON  *
000288:                                                                                                  #  SOLNSW  * NONE         *INTERPRETER SWITCH WHICH IS SET IF THE SUBROUTINE CANNOT SOLVE THE PROBLEM, CLEAR IF THE
000289:                                                                                                  #          *              *SOLUTION EXISTS.
000290:                                                                                                  #  FOR OTHER OUTPUT WHICH MAY BE OF USE, SEE DEBRIS.
000291:
000292:
000293:
000294:                                                                                                  #  DEBRIS -
000295:                                                                                                  #       PARAMETERS WHICH MAY BE OF USE -
000296:
000297:                                                                                                  #          * SCALE FACTOR *
000298:                                                                                                  #  VARIABLE*IN POWERS OF 2*                         DESCRIPTION AND REMARKS
000299:                                                                                                  #  --------*--------------*                         -----------------------
000300:                                                                                                  #  SNTH    * +1           *DP SIN OF ANGLE BETWEEN R1VEC AND R2VEC
000301:                                                                                                  #  CSTH    * +1           *DP COSINE OF ANGLE
000302:                                                                                                  #  1-CSTH  * +2           *DP 1-CSTH
000303:                                                                                                  #  COGA    * +5           *DP COTAN OF INITIAL REQUIRED FLIGHT PATH ANGLE MEASURED FROM VERTICAL
000304:                                                                                                  #  P       * +4           *DP RATIO  OF SEMILATUS RECTUM TO INITIAL RADIUS
000305:                                                                                                  #  R1A     * +6           *DP RATIO OF INITIAL RADIUS TO SEMIMAJOR AXIS
000306:                                                                                                  #  R1 (32D)* +29 FOR EARTH*DP INITIAL RADIUS IN METERS
000307:                                                                                                  #          * +27 FOR MOON *
000308:                                                                                                  #  UR1     * +1           *DP UNIT VECTOR OF R1VEC
000309:                                                                                                  #  U2      * +1           *DP UNIT VECTOR OF R2VEC
000310:
000311:                                                                                                  #       PARAMETERS OF NO USE
000312:                                                                                                  #  DP PARAMETERS - EPSILONL, CSTH-RHO, TPREV, TERRLAMB, R2, RTNLAMB (SP), PLUS PUSHLIST REGISTER 0 THROUGH 41D
000313:                                                                                                  #  ADDITIONAL INTERPRETIVE SWITCHES USED - INFINFLG, 360SW, SLOPESW, ORDERSW
000314:
000315:


000317:                                                                                                  #  PROGRAM DESCRIPTION - TIME-THETA SUBROUTINE                                     DATE - 1 SEPTEMBER 1967
000318:                                                                                                  #  MOD NO. - 0                                                                     LOG SECTION - CONIC SUBROUTINES
000319:                                                                                                  #  MOD BY KRAUSE                                                                   ASSEMBLY - COLOSSUS REVISION 88
000320:
000321:
000322:
000323:                                                                                                  #  FUNCTIONAL DESCRIPTION -
000324:
000325:                                                                                                  #       THIS SUBROUTINE, GIVEN AN INITIAL STATE VECTOR AND A DESIRED TRUE-ANOMALY-DIFFERENCE THROUGH WHICH THE
000326:                                                                                                  #  STATE IS TO BE UPDATED ALONG A CONIC TRAJECTORY, CALCULATES THE CORRESPONDING TIME-OF-FLIGHT AND, IN ADDITION,
000327:                                                                                                  #  PROVIDES THE OPTION OF COMPUTING THE NEW UPDATED STATE VECTOR.  THE RESULTING TRAJECTORY MAY BE A SECTION OF A
000328:                                                                                                  #  CIRCLE, ELLIPSE, PARABOLA, OR HYPERBOLA WITH RESPECT TO THE EARTH OR THE MOON.  THE USE OF THE SUBROUTINE CAN BE
000329:                                                                                                  #  EXTENDED USING OTHER PRIMARY BODIES BY SIMPLE ADDITIONS TO THE MUTABLE WTIHOUT INTRODUCING ANY CODING CHANGES,
000330:                                                                                                  #  ACCEPTING THE INHERENT SCALE FACTOR CHANGES IN POSITION AND VELOCITY.
000331:
000332:
000333:                                                                                                  #  THE RESTRICTIONS ARE -
000334:                                                                                                  #       1. THE ANGLE BETWEEN ANY POSITION VECTOR AND ITS VELOCITY VECTOR MUST BE GREATER THAN 1 DEGREE 47.5 MINUTES
000335:                                                                                                  #  AND LESS THAN 178 DEGREES 12.5 MINUTES.
000336:                                                                                                  #       2. THE PARAMETERS IN THE PROBLEM MUST NOT EXCEED THEIR SCALING LIMITS SPECIFIED IN THE GSCP.  IF THE LIMITS
000337:                                                                                                  #  ARE EXCEEDED, THE RESULTING SOLUTION WILL BE MEANINGLESS.
000338:
000339:                                                                                                  #       THE AGC COMPUTATION TIME IS APPROXIMATELY .292 SECONDS.
000340:
000341:
000342:
000343:                                                                                                  #  REFERENCES -
000344:                                                                                                  #       R-479, MISSION PROGRAMMING DEFINITION MEMO NO. 10, LUNAR LANDING MISSION GSOP-SECTION 5.5, SGA MEMO 67-8.
000345:
000346:
000347:
000348:                                                                                                  #  INPUT - ERASABLE INITIALIZATION REQUIRED
000349:
000350:                                                                                                  #          * SCALE FACTOR *
000351:                                                                                                  #  VARIABLE*IN POWERS OF 2*                         DESCRIPTION AND REMARKS
000352:                                                                                                  #  --------*--------------*                         -----------------------
000353:                                                                                                  #  RVEC    * +29 FOR EARTH*DP INITIAL POSITION VECTOR IN METERS
000354:                                                                                                  #          * +27 FOR MOON *
000355:                                                                                                  #  VVEC    * +7 FOR EARTH *DP INITIAL VELOCITY VECTOR IN METERS/CENTISECOND
000356:                                                                                                  #          * +5 FOR MOON  *
000357:                                                                                                  #  SNTH    * +1           *DP SINE OF TRUE-ANOMALY-DIFFERENCE THROUGH WHICH THE STATE IS TO BE UPDATED
000358:                                                                                                  #  CSTH    * +1           *DP COSINE OF THE ANGLE
000359:                                                                                                  #  RVSW    * NONE         *AN INTERPRETIVE SWITCH TO BE SET IF ONLY TIME IS TO BE AN OUTPUT, CLEAR IF THE NEW STATE
000360:                                                                                                  #          *              *IS TO BE COMPUTED ALSO.
000361:                                                                                                  #  X1 (38D)* NONE         *INDEX REGISTER TO BE SET TO -2D OR -10D ACCORDING TO WHETHER THE EARTH OR MOON,
000362:                                                                                                  #          *              *RESPECTIVELY, IS THE CENTRAL BODY.
000363:
000364:
000365:
000366:                                                                                                  #  SUBROUTINES CALLED -


000368:                                                                                                  #       PARAM, GEOM, GETX, DELTIME, NEWSTATE
000369:
000370:
000371:
000372:                                                                                                  #  CALLING SEQUENCE AND NORMAL EXIT MODES -
000373:
000374:                                                                                                  #     IF ONLY TIME IS DESIRED AS OUTPUT -
000375:                                                                                                  #  L        SET    CALL            MUST BE IN INTERPRETIVE MODE BUT OVFIND ARBITRARY.
000376:                                                                                                  #  L+1             RVSW
000377:                                                                                                  #  L+2             TIMETHET        RETURN WITH PL AT 0 AND T IN MPAC
000378:                                                                                                  #  L+3      ...                    CONTINUE
000379:
000380:
000381:                                                                                                  #     IF THE UPDATE STATE VECTOR IS DESIRED AS WELL -
000382:                                                                                                  #  L        CLEAR  CALL            MUST BE IN INTERPRETIVE MODE BUT OVFIND ARBITRARY.
000383:                                                                                                  #  L+1             RVSW
000384:                                                                                                  #  L+2             TIMETHET        RETURNS WITH PL AT 6.  THE INITIAL POSITION VECTOR IS IN 0D OF THE PUSHLIST AND
000385:                                                                                                  #                                  THE INITIAL VELOCITY VECTOR IN MPAC.
000386:                                                                                                  #  L+3      STOVL  NEWVVEC
000387:                                                                                                  #  L+4      STADR
000388:                                                                                                  #  L+5      STORE  NEWRVEC                 NEWVVEC AND NEWRVEC ARE SYMBOLIC REPRESENTATIONS OF THE USERS LOCATIONS.
000389:                                                                                                  #  L+6      ...                            CONTINUE
000390:
000391:
000392:
000393:                                                                                                  #  ABORT EXIT MODES -
000394:                                                                                                  #           IF COGAFLAG AND/OR INFINFLG IS SET AT THE EXIT TO TIME-THETA, TIME-THETA WILL TRANSFER TO POODOO WITH
000395:                                                                                                  #           AN ALARM CODE (ORIGINALLY 00607), AND NOT RETURN TO THE CALLING PROGRAM. (PCR 692 AND 721).
000396:
000397:
000398:
000399:                                                                                                  #  OUTPUT -
000400:                                                                                                  #          * SCALE FACTOR *
000401:                                                                                                  #  VARIABLE*IN POWERS OF 2*                         DESCRIPTION AND REMARKS
000402:                                                                                                  #  --------*--------------*                         -----------------------
000403:                                                                                                  #  T (30D) * +28          *DP TRANSFER TIME IN CENTISECONDS
000404:                                                                                                  #  INFINFLG* NONE         *AN INTERPRETIVE SWITCH WHICH IS SET IF THE TRANSFER ANGLE REQUIRES CLOSURE THROUGH
000405:                                                                                                  #          *              *INFINITY (NO SOLUTION), CLEAR IF A PHYSICAL SOLUTION IS POSSIBLE.
000406:                                                                                                  #  COGAFLAG* NONE         *AN INTERPRETIVE SWITCH WHICH IS SET IF RESTRICTION 1 HAS BEEN VIOLATED (NO SOLUTION),
000407:                                                                                                  #          *              *CLEAR IF NOT.
000408:
000409:                                                                                                  #  IN ADDITION, IF RVSW IS CLEAR, THE FOLLOWING ARE OUTPUT-
000410:
000411:                                                                                                  #  MPAC -  * +7 FOR EARTH *DP TERMINAL VELOCITY VECTOR IN METERS/CENTISEC.
000412:                                                                                                  #   MPAC +5* +5 FOR MOON  *
000413:                                                                                                  #  0D - 5D * +29 FOR EARTH*DP TERMINAL POSITION VECTOR IN METERS (PL AT 6D)
000414:                                                                                                  #          * +27 FOR MOON *
000415:
000416:                                                                                                  #  FOR OTHER OUTPUT WHICH MAY BE OF USE, SEE DEBRIS.
000417:
000418:


000420:                                                                                                  #  DEBRIS -
000421:
000422:                                                                                                  #       PARAMETERS WHICH MAY BE OF USE -
000423:
000424:                                                                                                  #          * SCALE FACTOR *
000425:                                                                                                  #  VARIABLE*IN POWERS OF 2*                         DESCRIPTION AND REMARKS
000426:                                                                                                  #  --------*--------------*                         -----------------------
000427:                                                                                                  #  R1 (32D)* +29 FOR EARTH*DP MAGNITUDE OF INITIAL POSITION VECTOR, RVEC, IN METERS
000428:                                                                                                  #          * +27 FOR MOON *
000429:                                                                                                  #  R1A     * +6           *DP RATIO OF R1 TO SEMIMAJOR AXIS (NEG. FOR HYPERBOLIC TRAJECTORIES)
000430:                                                                                                  #  P       * +4           *DP RATIO OF SEMILATUS RECTUM TO R1
000431:                                                                                                  #  COGA    * +5           *DP COTAN OF ANGLE BETWEEN RVEC AND VVEC
000432:                                                                                                  #  UR1     * +1           *DP UNIT VECTOR OF RVEC
000433:                                                                                                  #  U2      * +1           *DP UNIT VECTOR OF VVEC
000434:                                                                                                  #  UN      * +1           *DP UNIT VECTOR OF UR1*U2
000435:
000436:
000437:                                                                                                  #       PARAMETERS OF NO USE -
000438:                                                                                                  #  SP PARAMETERS -  RTNTT, GEOMSGN, RTNPRM, MAGVEC2=R2 (DP), PLUS PUSHLIST LOCATIONS 0-11D, 14D-21D, 24D-39D, 41D
000439:                                                                                                  #  ADDITIONAL INTERPRETIVE SWITCHES USED - NORMSW, 360SW
000440:
000441:


000443:                                                                                                  #  PROGRAM DESCRIPTION - TIME-RADIUS SUBROUTINE                            DATE - 11 OCTOBER 1967
000444:                                                                                                  #  MOD NO. -1                                                                      LOG SECTION - CONIC SUBROUTINES
000445:                                                                                                  #  MOD BY KRAUSE                                                                   ASSEMBLY - COLOSSUS REVISION 88
000446:
000447:
000448:
000449:                                                                                                  #  FUNCTIONAL DESCRIPTION -
000450:
000451:                                                                                                  #       THIS SUBROUTINE, GIVEN AN INITIAL STATE VECTOR AND A DESIRED RADIUS TO WHICH THE
000452:                                                                                                  #  STATE IS TO BE UPDATED ALONG A CONIC TRAJECTORY, CALCULATES THE CORRESPONDING TIME-OF-FLIGHT AND, IN ADDITION,
000453:                                                                                                  #  PROVIDES THE OPTION OF COMPUTING THE NEW UPDATED STATE VECTOR.  THE RESULTING TRAJECTORY MAY BE A SECTION OF A
000454:                                                                                                  #  CIRCLE, ELLIPSE, PARABOLA, OR HYPERBOLA WITH RESPECT TO THE EARTH OR THE MOON.  THE USE OF THE SUBROUTINE CAN BE
000455:                                                                                                  #  EXTENDED USING OTHER PRIMARY BODIES BY SIMMPE ADDITIONS TO THE MUTABLE WITHOUT INTRODUCING ANY CODING CHANGES,
000456:                                                                                                  #  ACCEPTING THE INHERENT SCALE FACTOR CHANGES IN POSITION AND VELOCITY.
000457:                                                                                                  #       IF THE DESIRED RADIUS IS BEYOND THE RADIUS OF APOCENTER OF THE CONIC OR BELOW THE RADIUS OF PERICENTER,
000458:                                                                                                  #  APSESW WILL BE SET AND THE SUBROUTINE WILL RETURN THE APOCENTER OR PERICENTER SOLUTION, RESPECTIVELY.
000459:
000460:
000461:                                                                                                  #  THE RESTRICTIONS ARE -
000462:                                                                                                  #       1. THE ANGLE BETWEEN ANY POSITION VECTOR AND ITS VELOCITY VECTOR MUST BE GREATER THAN 1 DEGREE 47.5 MINUTES
000463:                                                                                                  #  AND LESS THAN 178 DEGREES 12.5 MINUTES.
000464:                                                                                                  #       2. THE PARAMETERS IN THE PROBLEM MUST NOT EXCEED THEIR SCALING LIMITS SPECIFIED IN TEH GSOP.  IF THE LIMITS
000465:                                                                                                  #  ARE EXCEEDED, THE RESULTING SOLUTION WILL BE MEANINGLESS.
000466:                                                                                                  #       3. AN ACCURACY DEGRADATION OCCURS AS THE SENSITIVITIES OF TIME AND UPDATED STATE VECTOR TO CHANGES IN
000467:                                                                                                  #  RDESIRED INCREASE.  THIS WILL OCCUR NEAR EITHER APSIS OF THE CONIC AND WHEN THE CONIC IS NEARLY CIRCULAR.  IN
000468:                                                                                                  #  PARTICULAR, IF THE CONIC IS AN EXACT CIRCLE, THE PROBLEM IS UNDEFINED AND THE SUBROUTINE WILL ABORT.
000469:
000470:
000471:                                                                                                  #       THE AGC COMPUTATION TIME IS APPROXIMATELY .363 SECONDS
000472:
000473:
000474:
000475:                                                                                                  #  REFERENCES -
000476:                                                                                                  #       R-479, MISSION PROGRAMMING DEFINITION MEMO NO. 10, LUNAR LANDING MISSION GSOP-SECTION 5.5, SGA MEMO 67-8.
000477:
000478:
000479:
000480:                                                                                                  #  INPUT - ERASABLE INITIALIZATION REQUIRED
000481:                                                                                                  #          * SCALE FACTOR *
000482:                                                                                                  #  VARIABLE*IN POWERS OF 2*                         DESCRIPTION AND REMARKS
000483:                                                                                                  #  --------*--------------*                         -----------------------
000484:                                                                                                  #  RVEC    * +29 FOR EARTH*DP INITIAL POSITION VECTOR IN METERS
000485:                                                                                                  #          * +27 FOR MOON *
000486:                                                                                                  #  VVEC    * +7 FOR EARTH *DP INITIAL VELOCITY VECTOR IN METERS/CENTISECOND
000487:                                                                                                  #          * +5 FOR MOON  *
000488:                                                                                                  #  RDESIRED* +29 FOR EARTH*DP TERMINAL RADIAL DISTANCE ON CONIC TRAJECTORY FOR WHICH TRANSFER TIME IS TO BE
000489:                                                                                                  #          * +27 FOR MOON *COMPUTED.
000490:                                                                                                  #  SGNRDOT * NONE         *SP TAG SET TO +.5 OR -.5 ACCORDING TO WHETHER THE RADIAL VELOCITY AT RDESIRED IS TO BE
000491:                                                                                                  #          *              *POSITIVE OR NEGATIVE, RESPECTIVELY.  THIS TAG REDUCES THE DOUBLE-VALUED PROBLEM TO A


000493:                                                                                                  #          *              *SINGLE-VALUED PROBLEM.
000494:                                                                                                  #  X1 (38D)* NONE         *INDEX REGISTER TO BE SET TO -2D OR -10D ACCORDING TO WHETHER THE EARTH OR MOON,
000495:                                                                                                  #          *              *RESPECTIVELY, IS THE CENTRAL BODY.
000496:                                                                                                  #  RVSW    * NONE         *AN INTERPRETIVE SWITCH TO BE SET IF ONLY TIME IS TO BE AN OUTPUT, CLEAR IF THE NEW STATE
000497:                                                                                                  #          *              *IS TO BE COMPUTED ALSO.
000498:
000499:
000500:
000501:                                                                                                  #  SUBROUTINES CALLED -
000502:                                                                                                  #       PARAM, GEOM, GETX, DELTIME, NEWSTATE
000503:
000504:
000505:
000506:                                                                                                  #  CALLING SEQUENCE AND NORMAL EXIT MODES -
000507:
000508:                                                                                                  #     IF ONLY TIME IS DESIRED AS OUTPUT -
000509:                                                                                                  #  L        SET    CALL            MUST BE IN INTERPRETIVE MODE BUT OVFIND ARBITRARY.
000510:                                                                                                  #  L+1             RVSW
000511:                                                                                                  #  L+2             TIMERAD         RETURN WITH PL AT 0 AND T IN MPAC
000512:                                                                                                  #  L+3      ...                    CONTINUE
000513:
000514:
000515:                                                                                                  #     IF THE UPDATE STATE VECTOR IS DESIRED AS WELL -
000516:                                                                                                  #  L        CLEAR  CALL            MUST BE IN INTERPRETIVE MODE BUT OVFIND ARBITRARY.
000517:                                                                                                  #  L+1             RVSW
000518:                                                                                                  #  L+2             TIMERAD         RETURNS WITH PL AT 6.  THE INITIAL POSITION VECTOR IS IN 0D OF THE PUSHLIST AND
000519:                                                                                                  #                                  THE INITIAL VELOCITY VECTOR IN MPAC.
000520:                                                                                                  #  L+3      STOVL  NEWVVEC
000521:                                                                                                  #  L+4      STADR
000522:                                                                                                  #  L+5      STORE  NEWRVEC                 NEWVVEC AND NEWRVEC ARE SYMBOLIC REPRESENTATIONS OF THE USERS LOCATIONS.
000523:                                                                                                  #           ...                            CONTINUE
000524:
000525:
000526:
000527:                                                                                                  #  ABORT EXIT MODES -
000528:                                                                                                  #           IF SOLNSW AND/OR COGAFLAG AND/OR INFINFLG IS SET AT THE EXIT TO TIME-RADIUS, TIME-RADIUS WILL TRANSFER
000529:                                                                                                  #           TO POODOO WITH AN ALARM CODE (ORIGINALLY 00607), AND NOT RETURN TO THE CALLING PROGRAM. (PCR 692 & 721)
000530:
000531:
000532:
000533:                                                                                                  #  OUTPUT -
000534:                                                                                                  #          * SCALE FACTOR *
000535:                                                                                                  #  VARIABLE*IN POWERS OF 2*                         DESCRIPTION AND REMARKS
000536:                                                                                                  #  --------*--------------*                         -----------------------
000537:                                                                                                  #  T (30D) * +28          *DP TRANSFER TIME IN CENTISECONDS
000538:                                                                                                  #  INFINFLG* NONE         *AN INTERPRETIVE SWITCH WHICH IS SET IF RDESIRED AND SGNRDOT REQUIRE CLOSURE THROUGH
000539:                                                                                                  #          *              *INFINITY (NO SOLUTION), CLEAR IF A PHYSICAL SOLUTION IS POSSIBLE.
000540:                                                                                                  #  COGAFLAG* NONE         *AN INTERPRETIVE SWITCH WHICH IS SET IF RESTRICTION 1 HAS BEEN VIOLATED (NO SOLUTION),
000541:                                                                                                  #          *              *CLEAR IF NOT.
000542:                                                                                                  #  APSESW  * NONE         *AN INTERPRETIVE SWITCH WHICH IS SET IF RDESIRED WAS GREATER THAN RADIUS OF APOCENTER OR


000544:                                                                                                  #          *              *LESS THAN RADIUS OF PERICENTER.  THE APOCENTER OR PERICENTER SOLUTION, RESPECTIVELY,
000545:                                                                                                  #          *              *WILL THEN BE RETURNED.  THE SWITCH IS CLEAR IF RDESIRED WAS BETWEEN PERICENTER AND
000546:                                                                                                  #          *              *APOCENTER.
000547:                                                                                                  #  SOLNSW  * NONE         *AN INTERPRETIVE SWITCH WHICH IS SET IF THE CONIC IS SO CLOSE TO A CIRCLE THAT THE TERMIN
000548:                                                                                                  #                         *POINT IS AMBIGUOUS, VIOLATING RESTRICTION 3.  IF ECCENTRICITY IS GREATER THAN 2-TO-THE-
000549:                                                                                                  #                         *MINUS-18, THE SWITCH IS CLEAR.
000550:
000551:
000552:                                                                                                  #  IN ADDITION, IF RVSW IS CLEAR, THE FOLLOWING ARE OUTPUT-
000553:
000554:                                                                                                  #  MPAC -  * +7 FOR EARTH *DP TERMINAL VELOCITY VECTOR IN METERS/CENTISEC.
000555:                                                                                                  #   MPAC +5* +5 FOR MOON  *
000556:                                                                                                  #  0D - 5D * +29 FOR EARTH*DP TERMINAL POSITION VECTOR IN METERS (PL AT 6D)
000557:                                                                                                  #          * +27 FOR MOON *
000558:
000559:                                                                                                  #  FOR OTHER OUTPUT WHICH MAY BE OF USE, SEE DEBRIS.
000560:
000561:
000562:
000563:                                                                                                  #  DEBRIS -
000564:
000565:                                                                                                  #       PARAMETERS WHICH MAY BE OF USE -
000566:
000567:                                                                                                  #          * SCALE FACTOR *
000568:                                                                                                  #  VARIABLE*IN POWERS OF 2*                         DESCRIPTION AND REMARKS
000569:                                                                                                  #  --------*--------------*                         -----------------------
000570:                                                                                                  #  R1 (32D)* +29 FOR EARTH*DP MAGNITUDE OF INITIAL POSITION VECTOR, RVEC, IN METERS
000571:                                                                                                  #          * +27 FOR MOON *
000572:                                                                                                  #  R1A     * +6           *DP RATIO OF R1 TO SEMIMAJOR AXIS (NEG. FOR HYPERBOLIC TRAJECTORIES)
000573:                                                                                                  #  P       * +4           *DP RATIO OF SEMILATUS RECTUM TO R1
000574:                                                                                                  #  COGA    * +5           *DP COTAN OF ANGLE BETWEEN RVEC AND VVEC
000575:                                                                                                  #  UR1     * +1           *DP UNIT VECTOR OF RVEC
000576:                                                                                                  #  U2      * +1           *DP UNIT VECTOR OF VVEC
000577:                                                                                                  #  UN      * +1           *DP UNIT VECTOR OF UR1*U2
000578:                                                                                                  #  CSTH    * +1           *DP COSINE OF TRUE ANOMALY DIFFERENCE BETWEEN RVEC AND RDESIRED.
000579:                                                                                                  #  SNTH    * +1           *DP SINE OF TRUE ANOMALY DIFFERENCE.
000580:
000581:
000582:                                                                                                  #       PARAMETERS OF NO USE -
000583:                                                                                                  #  SP PARAMETERS -  RTNTT, GEOMSGN, RTNPRM, MAGVEC2=R2 (DP), PLUS PUSHLIST LOCATIONS 0-11D, 14D-21D, 24D-39D, 41D
000584:                                                                                                  #  ADDITIONAL INTERPRETIVE SWITCHES USED - NORMSW, 360SW
000585:
000586:


000588:                                                                                                  #  PROGRAM DESCRIPTION - APSIDES SUBROUTINE                                        DATE - 1 SEPTEMBER 1967
000589:                                                                                                  #  MOD NO. - 0                                                                     LOG SECTION - CONIC SUBROUTINES
000590:                                                                                                  #  MOD BY KRAUSE                                                                   ASSEMBLY - COLOSSUS REVISION 88
000591:
000592:
000593:
000594:                                                                                                  #  FUNCTIONAL DESCRIPTION -
000595:
000596:                                                                                                  #       THIS SUBROUTINE, GIVEN AN INITIAL STATE VECTOR CALCULATES THE RADIUS OF PERICENTER AND OF APOCENTER AND THE
000597:                                                                                                  #  ECCENTRICITY OF THE RESULTING CONIC TRAJECTORY, WHICH MAY BE A STRAIGHT LINE,
000598:                                                                                                  #  CIRCLE, ELLIPSE, PARABOLA, OR HYPERBOLA WITH RESPECT TO THE EARTH OR THE MOON.  THE USE OF THE SUBROUTINE CAN BE
000599:                                                                                                  #  EXTENDED USING OTHER PRIMARY BODIES BY SIMPLE ADDITIONS TO THE MUTABLE WITHOUT INTRODUCING ANY CODING CHANGES,
000600:                                                                                                  #  ACCEPTING THE INHERENT SCALE FACTOR CHANGES IN POSITION AND VELOCITY.
000601:
000602:
000603:                                                                                                  #  THE RESTRICTIONS ARE -
000604:                                                                                                  #       1.  IF APOCENTER IS BEYOND THE SCALING OF POSITION, THE SCALE FACTOR LIMIT (536,870,910 METERS WITH RESPECT
000605:                                                                                                  #  TO THE EARTH OR 134,217,727.5 METERS WITH RESPECT TO THE MOON) WILL BE RETURNED.
000606:                                                                                                  #       2. THE PARAMETERS IN THE PROBLEM MUST NOT EXCEED THEIR SCALING LIMITS SPECIFIED IN THE GSOP.  IF THE LIMITS
000607:                                                                                                  #  ARE EXCEEDED, THE RESULTING SOLUTION WILL BE MEANINGLESS.
000608:
000609:                                                                                                  #       THE AGC COMPUTATION TIME IS APPROXIMATELY .103 SECONDS.
000610:
000611:
000612:
000613:                                                                                                  #  REFERENCES -
000614:                                                                                                  #       MISSION PROGRAMMING DEFINITION MEMO NO. 10, LUNAR LANDING MISSION GSOP-SECTION 5.5
000615:
000616:
000617:
000618:                                                                                                  #  INPUT - ERASABLE INITIALIZATION REQUIRED
000619:
000620:                                                                                                  #          * SCALE FACTOR *
000621:                                                                                                  #  VARIABLE*IN POWERS OF 2*                         DESCRIPTION AND REMARKS
000622:                                                                                                  #  --------*--------------*                         -----------------------
000623:                                                                                                  #  RVEC    * +29 FOR EARTH*DP INITIAL POSITION VECTOR IN METERS
000624:                                                                                                  #          * +27 FOR MOON *
000625:                                                                                                  #  VVEC    * +7 FOR EARTH *DP INITIAL VELOCITY VECTOR IN METERS/CENTISECOND
000626:                                                                                                  #          * +5 FOR MOON  *
000627:                                                                                                  #  X1 (38D)*NONE          *INDEX REGISTER TO BE SET TO -2D OR -10D ACCORDING TO WHETHER THE EARTH OR MOON,
000628:                                                                                                  #          *              *RESPECTIVELY, IS THE CENTRAL BODY.
000629:
000630:
000631:
000632:                                                                                                  #  SUBROUTINES CALLED -
000633:                                                                                                  #       PARAM, GEOM
000634:
000635:
000636:
000637:                                                                                                  #  CALLING SEQUENCE AND NORMAL EXIT MODES -


000639:                                                                                                  #     IF ONLY TIME IS DESIRED AS OUTPUT -
000640:                                                                                                  #  L        CALL                   MUST BE IN INTERPRETIVE MODE BUT OVFIND ARBITRARY.
000641:                                                                                                  #  L+1             APSIDES         RETURNS WITH PL AT 0, RADIUS OF APOCENTER IN MPAC AND RADIUS OF PERICENTER IN 0D
000642:                                                                                                  #  L+2      STODL  APOAPSE
000643:                                                                                                  #  L+3             0D
000644:                                                                                                  #  L+4      STORE  PERIAPSE                APOAPSE AND PERIAPSE ARE SYMBOLIC REPRESENTATIONS OF THE USERS LOCATIONS
000645:                                                                                                  #  L+5      ...                    CONTINUE
000646:
000647:
000648:
000649:                                                                                                  #  OUTPUT -
000650:                                                                                                  #          * SCALE FACTOR *
000651:                                                                                                  #  VARIABLE*IN POWERS OF 2*                         DESCRIPTION AND REMARKS
000652:                                                                                                  #  --------*--------------*                         -----------------------
000653:                                                                                                  #  MPAC    * +29 FOR EARTH*DP RADIUS OF APOCENTER IN METERS
000654:                                                                                                  #          * +27 FOR MOON *
000655:                                                                                                  #  0D-1D   * +29 FOR EARTH*DP RADIUS OF PERICENTER IN METERS
000656:                                                                                                  #          * +27 FOR MOON *
000657:                                                                                                  #  ECC     * +3           *DP ECCENTRICITY OF CONIC TRAJECTORY.
000658:
000659:                                                                                                  #  FOR OTHER OUTPUT WHICH MAY BE OF USE, SEE DEBRIS.
000660:
000661:
000662:
000663:                                                                                                  #  DEBRIS -
000664:
000665:                                                                                                  #       PARAMETERS WHICH MAY BE OF USE -
000666:
000667:                                                                                                  #          * SCALE FACTOR *
000668:                                                                                                  #  VARIABLE*IN POWERS OF 2*                         DESCRIPTION AND REMARKS
000669:                                                                                                  #  --------*--------------*                         -----------------------
000670:                                                                                                  #  R1 (32D)* +29 FOR EARTH*DP MAGNITUDE OF INITIAL POSITION VECTOR, RVEC, IN METERS
000671:                                                                                                  #          * +27 FOR MOON *
000672:                                                                                                  #  R1A     * +6           *DP RATIO OF R1 TO SEMIMAJOR AXIS (NEG. FOR HYPERBOLIC TRAJECTORIES)
000673:                                                                                                  #  P       * +4           *DP RATIO OF SEMILATUS RECTUM TO R1
000674:                                                                                                  #  COGA    * +5           *DP COTAN OF ANGLE BETWEEN RVEC AND VVEC
000675:                                                                                                  #  UR1     * +1           *DP UNIT VECTOR OF RVEC
000676:                                                                                                  #  U2      * +1           *DP UNIT VECTOR OF VVEC
000677:                                                                                                  #  UN      * +1           *DP UNIT VECTOR OF UR1*U2
000678:                                                                                                  #  MAGVEC2 * +7 FOR EARTH *DP MAGNITUDE OF VVEC
000679:                                                                                                  #          * +5 FOR MOON  *
000680:
000681:
000682:                                                                                                  #       PARAMETERS OF NO USE -
000683:                                                                                                  #  SP PARAMETERS - RTNAPSE, GEOMSGN, RTNPRM, PLUS PUSHLIST LOCATIONS 0-5,10D-11D, 14D-21D, 31D-38D.
000684:                                                                                                  #  ADDITIONAL INTERPRETIVE SWITCHES USED - NORMSW
000685:
000686:
000687:
000688: 12,2000                                           SETLOC   CONICS


000690: 12,2000                                           BANK
000691:
000692: 12,2023                                           COUNT*   $$/CONIC
000693: 12,2023  E5,1721                                  EBANK=   UR1
000694: 12,2023           40001        KEPLERN            SETPD    BOV
000695: 12,2024           00001                                    0
000696: 12,2025           24026                                    +1
000697: 12,2026           77773                           VLOAD*
000698: 12,2027           10005                                    MUTABLE,1
000699: 12,2030           24017                           STOVL    14D
000700: 12,2031           01503                                    RRECT
000701: 12,2032           66256                           UNIT     SSP
000702: 12,2033           00027                                    ITERCTR
000703: 12,2034           00024                                    20D
000704: 12,2035           16647                           STODL    URRECT
000705: 12,2036           00045                                    36D
000706: 12,2037           24041                           STOVL    R1
000707: 12,2040           01503                                    RRECT
000708: 12,2041           76441                           DOT      SL1R
000709: 12,2042           01511                                    VRECT
000710: 12,2043           76405                           DMP      SL1R
000711: 12,2044           00023                                    1/ROOTMU                              #  1/ROOTMU (-17 OR -14)
000712: 12,2045           24043                           STOVL    KEPC1                                 #  C1=R.V/ROOTMU (+17 OR +16)
000713:
000714: 12,2046           01511                                    VRECT
000715: 12,2047           57236                           VSQ      DMPR
000716: 12,2050           00017                                    1/MU                                  #  1/MU (-34 OR -28)
000717: 12,2051           52405                           DMP      SL3
000718: 12,2052           00041                                    R1
000719: 12,2053           61425                           DSU      ROUND
000720: 12,2054           11036                                    D1/64
000721: 12,2055           00045                           STORE    KEPC2                                 #  C2=RV.V/MU -1 (+6)
000722:
000723: 12,2056           74421                           BDSU     SR1R
000724: 12,2057           11036                                    D1/64
000725: 12,2060           77671                           DDV
000726: 12,2061           00041                                    R1
000727: 12,2062           00011                           STORE    ALPHA                                 #  ALPHA=(1-C2)/R1 (-22 OR -20)
000728:
000729:
000730: 12,2063           71244                           BPL      DLOAD                                 #  MAXIMUM X DEPENDS ON TYPE OF CONIC
000731: 12,2064           24073                                    1REV
000732: 12,2065           11054                                    -50SC                                 #  -50SC (+12)
000733: 12,2066           40071                           DDV      BOV
000734: 12,2067           00011                                    ALPHA
000735: 12,2070           24077                                    STOREMAX
000736: 12,2071           52166                           SQRT     GOTO
000737: 12,2072           24077                                    STOREMAX
000738:
000739: 12,2073           55366        1REV               SQRT     BDDV


000741: 12,2074           11056                                    2PISC                                 #  2PISC (+6)
000742: 12,2075           77600                           BOV
000743: 12,2076           24077                                    STOREMAX
000744: 12,2077           00013        STOREMAX           STORE    XMAX
000745: 12,2100           65205                           DMP      PDDL
000746: 12,2101           00023                                    1/ROOTMU
000747: 12,2102           00011                                    ALPHA
000748: 12,2103           65301                           NORM     PDDL
000749: 12,2104           00047                                    X1
000750: 12,2105           56257                           SL*      DDV
000751: 12,2106           20173                                    0          -6,1
000752: 12,2107           50000                           BOV      BMN
000753: 12,2110           24124                                    MODDONE
000754: 12,2111           24124                                    MODDONE                               #  MPAC=PERIOD
000755: 12,2112           51525        PERIODCH           PDDL     ABS                                   #  0D=PERIOD
000756: 12,2113           02074                                    TAU.
000757: 12,2114           50025                           DSU      BMN
000758: 12,2115           00001                                    0D
000759: 12,2116           24124                                    MODDONE
000760: 12,2117           77765                           SIGN
000761: 12,2120           02074                                    TAU.
000762: 12,2121           16074                           STODL    TAU.
000763: 12,2122           77650                           GOTO
000764: 12,2123           24112                                    PERIODCH
000765: 12,2124           71201        MODDONE            SETPD    DLOAD
000766: 12,2125           00001                                    0
000767: 12,2126           02121                                    XKEPNEW
000768: 12,2127           00025                           STORE    X
000769: 12,2130           53165                           SIGN     BZE
000770: 12,2131           02074                                    TAU.
000771: 12,2132           24302                                    BADX
000772: 12,2133           51440                           BMN      ABS
000773: 12,2134           24302                                    BADX
000774: 12,2135           51025                           DSU      BPL
000775: 12,2136           00013                                    XMAX
000776: 12,2137           24302                                    BADX
000777: 12,2140           51145        STORBNDS           DLOAD    BPL
000778: 12,2141           02074                                    TAU.
000779: 12,2142           24152                                    STOREMIN
000780: 12,2143           57545                           DLOAD    DCOMP
000781: 12,2144           00013                                    XMAX
000782: 12,2145           14015                           STODL    XMIN
000783: 12,2146           24007                                    KEPZERO
000784: 12,2147           00013                           STORE    XMAX
000785: 12,2150           77650                           GOTO
000786: 12,2151           24155                                    DXCOMP
000787: 12,2152           77745        STOREMIN           DLOAD
000788: 12,2153           24007                                    KEPZERO
000789: 12,2154           00015                           STORE    XMIN
000790: 12,2155           57345        DXCOMP             DLOAD    DMPR


000792: 12,2156           02074                                    TAU.
000793: 12,2157           11047                                    BEE22
000794: 12,2160           77646                           ABS
000795: 12,2161           16170                           STODL    EPSILONT
000796: 12,2162           01553                                    XPREV
000797: 12,2163           77621        XDIFF              BDSU
000798: 12,2164           00025                                    X
000799: 12,2165           02643                           STORE    DELX
000800:
000801:
000802: 12,2166           63545        KEPLOOP            DLOAD    DSQ
000803: 12,2167           00025                                    X                                     #  X=XKEP
000804: 12,2170           41501                           NORM     PUSH                                  #  0D=XSQ (+34 OR +32 -N1)      PL AT 2
000805: 12,2171           00047                                    X1
000806: 12,2172           53605                           DMP      SRR*
000807: 12,2173           00011                                    ALPHA
000808: 12,2174           21573                                    0          -6,1
000809: 12,2175           34031                           STCALL   XI                                    #  XI=ALPHA XSQ (+6)
000810: 12,2176           24421                                    DELTIME
000811: 12,2177           44200                           BOV      BDSU
000812: 12,2200           24311                                    TIMEOVFL                              #  UNLIKELY
000813: 12,2201           02074                                    TAU.
000814: 12,2202           02645                           STORE    DELT                                  #  DELT=DELINDEP
000815: 12,2203           44246                           ABS      BDSU
000816: 12,2204           02170                                    EPSILONT
000817: 12,2205           71244                           BPL      DLOAD
000818: 12,2206           24333                                    KEPCONVG
000819: 12,2207           00037                                    T
000820: 12,2210           60225                           DSU      NORM
000821: 12,2211           01551                                    TC
000822: 12,2212           00047                                    X1
000823: 12,2213           60325                           PDDL     NORM
000824: 12,2214           02643                                    DELX
000825: 12,2215           00050                                    X2
000826: 12,2216           41260                           XSU,1    DMP
000827: 12,2217           00047                                    X2
000828: 12,2220           02645                                    DELT
000829: 12,2221           56257                           SLR*     DDV
000830: 12,2222           21202                                    1,1
000831: 12,2223           41542                           SR1      PUSH                                  #  0D=TRIAL DELX                PL AT 2
000832: 12,2224           71244                           BPL      DLOAD
000833: 12,2225           24246                                    POSDELX
000834: 12,2226           00025                                    X
000835: 12,2227           00013                           STORE    XMAX                                  #  MOVE MAX BOUND IN
000836: 12,2230           45221                           BDSU     DSU                                   #                               PL AT 0
000837: 12,2231           00015                                    XMIN                                  #    ,
000838: 12,2232           51000                           BOV      BPL
000839: 12,2233           24240                                    NDXCHNGE
000840: 12,2234           24240                                    NDXCHNGE
000841: 12,2235           52145                           DLOAD    GOTO


000843: 12,2236           00001                                    0D
000844: 12,2237           24260                                    NEWDELX
000845:
000846:
000847: 12,2240           45345        NDXCHNGE           DLOAD    DSU
000848: 12,2241           00015                                    XMIN
000849: 12,2242           00025                                    X
000850: 12,2243           52075                           DMPR     GOTO                                  #  TO FORCE MPAC +2 TO ZERO
000851: 12,2244           11052                                    DP9/10
000852: 12,2245           24260                                    NEWDELX
000853:
000854:
000855: 12,2246           77745        POSDELX            DLOAD
000856: 12,2247           00025                                    X
000857: 12,2250           00015                           STORE    XMIN                                  #  MOVE MIN BOUND IN
000858: 12,2251           45221                           BDSU     DSU                                   #                               PL AT 0
000859: 12,2252           00013                                    XMAX
000860: 12,2253           50000                           BOV      BMN
000861: 12,2254           24274                                    PDXCHNGE
000862: 12,2255           24274                                    PDXCHNGE
000863: 12,2256           77745                           DLOAD
000864: 12,2257           00001                                    0D
000865: 12,2260           02643        NEWDELX            STORE    DELX
000866: 12,2261           43254                           BZE      DAD
000867: 12,2262           24333                                    KEPCONVG
000868: 12,2263           00025                                    X
000869: 12,2264           14025                           STODL    X
000870: 12,2265           00037                                    T
000871: 12,2266           01551                           STORE    TC
000872: 12,2267           46034        BRNCHCTR           RTB      BHIZ
000873: 12,2270           24644                                    CHECKCTR
000874: 12,2271           24333                                    KEPCONVG
000875: 12,2272           77650                           GOTO
000876: 12,2273           24166                                    KEPLOOP                               #  ITERATE
000877:
000878:
000879: 12,2274           45345        PDXCHNGE           DLOAD    DSU
000880: 12,2275           00013                                    XMAX
000881: 12,2276           00025                                    X
000882: 12,2277           52075                           DMPR     GOTO                                  #  TO FORCE MPAC +2 TO ZERO
000883: 12,2300           11052                                    DP9/10
000884: 12,2301           24260                                    NEWDELX
000885:
000886:
000887: 12,2302           70545        BADX               DLOAD    SR1
000888: 12,2303           00013                                    XMAX
000889: 12,2304           77765                           SIGN
000890: 12,2305           02074                                    TAU.
000891: 12,2306           00025                           STORE    X
000892: 12,2307           77650                           GOTO


000894: 12,2310           24140                                    STORBNDS
000895: 12,2311           50145        TIMEOVFL           DLOAD    BMN                                   #  X WAS TOO BIG
000896: 12,2312           00025                                    X
000897: 12,2313           24330                                    NEGTOVFL
000898: 12,2314           00013                           STORE    XMAX
000899: 12,2315           70545        CMNTOVFL           DLOAD    SR1
000900: 12,2316           02643                                    DELX
000901: 12,2317           02643                           STORE    DELX
000902: 12,2320           44254                           BZE      BDSU
000903: 12,2321           02111                                    KEPRTN
000904: 12,2322           00025                                    X
000905: 12,2323           14025                           STODL    X
000906: 12,2324           01551                                    TC
000907: 12,2325           00037                           STORE    T
000908: 12,2326           77650                           GOTO
000909: 12,2327           24267                                    BRNCHCTR
000910: 12,2330           00015        NEGTOVFL           STORE    XMIN
000911: 12,2331           77650                           GOTO
000912: 12,2332           24315                                    CMNTOVFL
000913: 12,2333           44545        KEPCONVG           DLOAD    SR4R
000914: 12,2334           00041                                    R1
000915: 12,2335           74225                           DSU      VXSC
000916: 12,2336           00035                                    XSQC(XI)
000917: 12,2337           02647                                    URRECT
000918: 12,2340           65372                           VSL1     PDDL                                  #  0D=(R1-XSQC(XI))URRECT (+33 OR +31)
000919: 12,2341           00025                                    X
000920: 12,2342           60316                           DSQ      NORM
000921: 12,2343           00047                                    X1
000922: 12,2344           57275                           DMPR     DMPR
000923: 12,2345           00023                                    1/ROOTMU
000924: 12,2346           00025                                    X
000925: 12,2347           53605                           DMP      SRR*
000926: 12,2350           00033                                    S(XI)
000927: 12,2351           21572                                    0          -7,1
000928: 12,2352           77621                           BDSU
000929: 12,2353           00037                                    T
000930: 12,2354           74352                           SL1      VXSC
000931: 12,2355           01511                                    VRECT
000932: 12,2356           53372                           VSL1     VAD                                   #                               PL AT 0
000933: 12,2357           77712                           VSL4
000934: 12,2360           01535                           STORE    RCV                                   #  RCV (+29 OR +27)
000935:
000936:
000937: 12,2361           60246                           ABVAL    NORM
000938: 12,2362           00050                                    X2
000939: 12,2363           14043                           STODL    RCNORM
000940: 12,2364           00031                                    XI
000941: 12,2365           45275                           DMPR     DSU
000942: 12,2366           00033                                    S(XI)
000943: 12,2367           11034                                    D1/128


000945: 12,2370           76405                           DMP      SL1R
000946: 12,2371           00021                                    ROOTMU
000947: 12,2372           53605                           DMP      SLR*
000948: 12,2373           00025                                    X
000949: 12,2374           56601                                    0          -3,2
000950: 12,2375           74271                           DDV      VXSC
000951: 12,2376           00043                                    RCNORM
000952: 12,2377           02647                                    URRECT
000953: 12,2400           65372                           VSL1     PDDL                                  #  0D=URRECT(XI S(XI)-1)X ROOTMU/RCV (+15
000954: 12,2401           00035                                    XSQC(XI)                              #  OR +13)                        PL AT 6
000955: 12,2402           56257                           SLR*     DDV
000956: 12,2403           56602                                    0          -4,2
000957: 12,2404           00043                                    RCNORM
000958: 12,2405           74221                           BDSU     VXSC
000959: 12,2406           11050                                    D1/256
000960: 12,2407           01511                                    VRECT
000961: 12,2410           42455                           VAD      VSL8                                  #                               PL AT 0
000962: 12,2411           77626                           STADR
000963: 12,2412           62234                           STODL    VCV                                   #  VCV (+7 OR +5)
000964: 12,2413           00037                                    T
000965: 12,2414           15551                           STODL    TC
000966: 12,2415           00025                                    X
000967: 12,2416           01553                           STORE    XPREV
000968: 12,2417           77650                           GOTO
000969: 12,2420           02111                                    KEPRTN
000970:


000972: 12,2421           77776        DELTIME            EXIT                                           #  MPAC=XI (+6), 0D=XSQ (+34 OR +32 -N1)
000973: 12,2422           07243                           TC       POLY
000974: 12,2423           00010                           DEC      8          B-14
000975: 12,2424           02525 12526                     2DEC     .083333334
000976:
000977: 12,2426           67356 75666                     2DEC     -.266666684
000978:
000979: 12,2430           15001 23771                     2DEC     .406349155
000980:
000981: 12,2432           64342 43674                     2DEC     -.361198675
000982:
000983: 12,2434           06563 04645                     2DEC     .210153242
000984:
000985: 12,2436           75173 52672                     2DEC     -.086221951
000986:
000987: 12,2440           00656 14331                     2DEC     .026268812
000988:
000989: 12,2442           77633 40512                     2DEC     -.006163316
000990:
000991: 12,2444           00023 11210                     2DEC     .001177342
000992:
000993: 12,2446           77774 67506                     2DEC     -.000199055
000994:
000995: 12,2450           06060                           TC       INTPRET
000996: 12,2451           14033                           STODL    S(XI)
000997: 12,2452           00031                                    XI
000998: 12,2453           77776                           EXIT
000999: 12,2454           07243                           TC       POLY
001000: 12,2455           00010                           DEC      8          B-14
001001: 12,2456           01000 00000                     2DEC     .031250001
001002:
001003: 12,2460           72525 52506                     2DEC     -.166666719
001004:
001005: 12,2462           13301 15337                     2DEC     .355555413
001006:
001007: 12,2464           62776 54733                     2DEC     -.406347410
001008:
001009: 12,2466           11176 13267                     2DEC     .288962094
001010:
001011: 12,2470           73410 51674                     2DEC     -.140117894
001012:
001013: 12,2472           01446 33641                     2DEC     .049247387
001014:
001015: 12,2474           77451 65233                     2DEC     -.013081923
001016:
001017: 12,2476           00055 37266                     2DEC     .002806389
001018:
001019: 12,2500           77767 52336                     2DEC     -.000529414
001020:
001021: 12,2502           06060                           TC       INTPRET


001023: 12,2503           53605                           DMP      SRR*                                  #                               PL AT 0
001024: 12,2504           00001                                    0D
001025: 12,2505           21574                                    0          -5,1
001026: 12,2506           00035                           STORE    XSQC(XI)                              #  XSQC(XI) (+33 OR +31)
001027: 12,2507           72405                           DMP      SL1
001028: 12,2510           00043                                    KEPC1
001029: 12,2511           65234                           RTB      PDDL                                  #  XCH WITH PL. 0D=C1 XSQ C(XI) (+49 OR +46
001030: 12,2512           21643                                    TPMODE                                #                               PL AT 0,3
001031: 12,2513           53605                           DMP      SRR*
001032: 12,2514           00033                                    S(XI)
001033: 12,2515           21574                                    0          -5,1
001034: 12,2516           72405                           DMP      SL1
001035: 12,2517           00045                                    KEPC2
001036: 12,2520           65234                           RTB      PDDL                                  #  3D=C2 XSQ S(XI) (+35 OR +33)  PL AT 6
001037: 12,2521           21643                                    TPMODE
001038: 12,2522           00041                                    R1
001039: 12,2523           76261                           SR       TAD                                   #                               PL AT 3
001040: 12,2524           20607                                    6
001041: 12,2525           41301                           NORM     DMP                                   #  TO PRESERVE SIGNIF.
001042: 12,2526           00047                                    X1
001043: 12,2527           00025                                    X
001044: 12,2530           76257                           SR*      TAD                                   #  X(C2 XSQ S(XI) +R1) (+49 OR +46) PL AT 0
001045: 12,2531           20576                                    0          -3,1
001046: 12,2532           57232                           SL4R     DMPR
001047: 12,2533           00023                                    1/ROOTMU
001048: 12,2534           00037                           STORE    T
001049: 12,2535           77616                           RVQ
001050:


001052: 12,2536           71214        ITERATOR           BONCLR   DLOAD
001053: 12,2537           00614                                    SLOPESW
001054: 12,2540           24606                                    FIRSTIME
001055: 12,2541           00037                                    DEP
001056: 12,2542           60225                           DSU      NORM
001057: 12,2543           02762                                    DEPREV
001058: 12,2544           00047                                    X1
001059: 12,2545           60325                           PDDL     NORM
001060: 12,2546           00015                                    DELINDEP
001061: 12,2547           00050                                    X2
001062: 12,2550           41260                           XSU,1    DMP
001063: 12,2551           00047                                    X2
001064: 12,2552           02760                                    DELDEP
001065: 12,2553           56257                           SLR*     DDV                                   #                               PL UP 2
001066: 12,2554           21202                                    1,1
001067: 12,2555           43142                           SR1      BOFF
001068: 12,2556           04351                                    ORDERSW
001069: 12,2557           24562                                    SGNCHECK
001070: 12,2560           75246                           ABS      SIGN                                  #  IN CASE 2ND DERIV. CHANGED SIGN, MUST
001071: 12,2561           02760                                    DELDEP                                #  DISREGARD IT TO FIND MIN.
001072:
001073: 12,2562           51006        SGNCHECK           PUSH     BPL                                   #  TRIAL DELINDEP               PL DOWN 2
001074: 12,2563           24620                                    POSDEL
001075: 12,2564           43145                           DLOAD    BON
001076: 12,2565           02766                                    INDEP
001077: 12,2566           04311                                    ORDERSW
001078: 12,2567           24571                                    MINCHECK
001079: 12,2570           00017                           STORE    MAX                                   #  IF NOT 2ND ORDER, CAN MOVE MAX BOUND IN.
001080:
001081: 12,2571           45221        MINCHECK           BDSU     DSU
001082: 12,2572           00011                                    MIN
001083: 12,2573           51000                           BOV      BPL
001084: 12,2574           24600                                    MODNGDEL
001085: 12,2575           24600                                    MODNGDEL
001086: 12,2576           77650                           GOTO
001087: 12,2577           24632                                    DELOK
001088:
001089:
001090: 12,2600           45345        MODNGDEL           DLOAD    DSU                                   #  TRIAL DELINDEP WOULD EXCEED MIN BOUND
001091: 12,2601           00011                                    MIN
001092: 12,2602           02766                                    INDEP
001093: 12,2603           52005                           DMP      GOTO
001094: 12,2604           11052                                    DP9/10
001095: 12,2605           24634                                    NEWDEL
001096:
001097:
001098: 12,2606           41345        FIRSTIME           DLOAD    DMP
001099: 12,2607           00011                                    MIN
001100: 12,2610           00051                                    TWEEKIT                               #  DLOAD TWEEKIT(40D) SENSITIVE TO CHANGE.
001101: 12,2611           41325                           PDDL     DMP                                   #  S2(41D) SHOULDNT CONTAIN HI ORDER ONES


001103: 12,2612           00017                                    MAX
001104: 12,2613           00051                                    TWEEKIT
001105: 12,2614           77625                           DSU
001106: 12,2615           52165                           SIGN     GOTO
001107: 12,2616           02760                                    DELDEP
001108: 12,2617           24562                                    SGNCHECK
001109:
001110:
001111: 12,2620           43145        POSDEL             DLOAD    BON
001112: 12,2621           02766                                    INDEP
001113: 12,2622           04311                                    ORDERSW
001114: 12,2623           24625                                    MAXCHECK
001115: 12,2624           00011                           STORE    MIN                                   #  IF NOT 2ND ORDER, CAN MOVE MIN BOUND IN.
001116:
001117: 12,2625           45221        MAXCHECK           BDSU     DSU
001118: 12,2626           00017                                    MAX
001119: 12,2627           50000                           BOV      BMN
001120: 12,2630           24636                                    MODPSDEL
001121: 12,2631           24636                                    MODPSDEL
001122: 12,2632           77745        DELOK              DLOAD
001123: 12,2633           00001                                    0D
001124: 12,2634           00015        NEWDEL             STORE    DELINDEP
001125: 12,2635           77616                           RVQ
001126:
001127:
001128: 12,2636           45345        MODPSDEL           DLOAD    DSU
001129: 12,2637           00017                                    MAX
001130: 12,2640           02766                                    INDEP
001131: 12,2641           52005                           DMP      GOTO
001132: 12,2642           11052                                    DP9/10
001133: 12,2643           24634                                    NEWDEL
001134:
001135:
001136: 12,2644           44744        CHECKCTR           CS       ONE
001137: 12,2645           50120                           INDEX    FIXLOC
001138: 12,2646           60026                           AD       ITERCTR
001139: 12,2647           50120                           INDEX    FIXLOC
001140: 12,2650           54026                           TS       ITERCTR
001141: 12,2651           54154                           TS       MPAC
001142: 12,2652           06102                           TC       DANZIG
001143:


001145: 12,2653           44545        NEWSTATE           DLOAD    SR4R
001146: 12,2654           00041                                    R1
001147: 12,2655           74225                           DSU      VXSC
001148: 12,2656           00035                                    XSQC(XI)
001149: 12,2657           02722                                    UR1
001150: 12,2660           65372                           VSL1     PDDL                                  #  0D=(R1-XSQC(XI))UR1 (+33 OR 31) PL AT 6
001151: 12,2661           00025                                    X
001152: 12,2662           60316                           DSQ      NORM
001153: 12,2663           00047                                    X1
001154: 12,2664           57275                           DMPR     DMPR
001155: 12,2665           00023                                    1/ROOTMU
001156: 12,2666           00025                                    X
001157: 12,2667           53605                           DMP      SRR*
001158: 12,2670           00033                                    S(XI)
001159: 12,2671           21572                                    0          -7,1
001160: 12,2672           77621                           BDSU
001161: 12,2673           00037                                    T
001162: 12,2674           74352                           SL1      VXSC
001163: 12,2675           02744                                    VVEC
001164: 12,2676           53372                           VSL1     VAD                                   #                               PL AT 0
001165: 12,2677           41512                           VSL4     PUSH
001166: 12,2700           77646                           ABVAL
001167: 12,2701           77701        LAMENTER           NORM
001168: 12,2702           00047                                    X1
001169: 12,2703           16720                           STODL    R2
001170: 12,2704           00031                                    XI
001171: 12,2705           45205                           DMP      DSU
001172: 12,2706           00033                                    S(XI)
001173: 12,2707           11034                                    D1/128
001174: 12,2710           76405                           DMP      SL1R
001175: 12,2711           00021                                    ROOTMU
001176: 12,2712           53605                           DMP      SLR*
001177: 12,2713           00025                                    X
001178: 12,2714           21176                                    0          -3,1
001179: 12,2715           74271                           DDV      VXSC
001180: 12,2716           02720                                    R2
001181: 12,2717           02722                                    UR1
001182: 12,2720           65372                           VSL1     PDDL                                  #  6D=V2VEC PART (+15 OR 13)       PL AT 12
001183: 12,2721           00035                                    XSQC(XI)
001184: 12,2722           56257                           SLR*     DDV
001185: 12,2723           21175                                    0          -4,1
001186: 12,2724           02720                                    R2
001187: 12,2725           77621                           BDSU
001188: 12,2726           11050                                    D1/256
001189: 12,2727           53361                           VXSC     VAD
001190: 12,2730           02744                                    VVEC                                  #                               PL AT 6
001191: 12,2731           43412                           VSL8     RVQ
001192:


001194: 04,2000                                           SETLOC   CONICS1
001195: 04,2000                                           BANK
001196:
001197: 04,3030                                           COUNT*   $$/CONIC
001198:                                                                                                  #  DO NOT DISTURB THE ORDER OF THESE CDS, OVERLAYS HAVE BEEN MADE.
001199: 04,3030           00000        BEE17              DEC      0          B-14                       #  KEEP WITH D1/8 2DEC 1.0B-17 (0000004000)
001200: 04,3031           04000 00000  D1/8               2DEC     1.0        B-3
001201:
001202: 04,3033           00200 00000  D1/128             2DEC     1.0        B-7
001203:
001204: 04,3035           00400 00000  D1/64              2DEC     1.0        B-6
001205:
001206: 04,3037           10000 00000  D1/4               2DEC     1.0        B-2
001207:
001208: 04,3041           02000 00000  D1/16              2DEC     1.0        B-4
001209:
001210: 04,3043           01000 00000  D1/32              2DEC     1.0        B-5
001211:
001212: 04,3045           00020 00000  D1/1024            2DEC     1.0        B-10
001213:
001214: 04,3047           00100 00000  D1/256             2DEC     1.0        B-8
001215:
001216: 04,3051           34631 23146  DP9/10             2DEC     .9
001217:
001218: 04,3053  12,2006               KEPZERO            EQUALS   LO6ZEROS
001219: 04,3053           77467 77777  -50SC              2DEC     -50.0      B-12
001220:
001221: 04,3055           03110 17665  2PISC              2DEC     6.28318530 B-6
001222:
001223: 04,3057  04,3042               BEE19              EQUALS   D1/32      -1                         #  2DEC 1.0 B-19 (00000 01000)
001224: 04,3057  04,3046               BEE22              EQUALS   D1/256     -1                         #  2DEC 1.0 B-22 (00000 00100)
001225: 04,3057           00000 00001  ONEBIT             2DEC     1.0        B-28
001226:
001227: 04,3061           37767 37737  COGUPLIM           2DEC     .999511597
001228:
001229: 04,3063           40010 40040  COGLOLIM           2DEC     -.999511597
001230:
001231:


001233: 12,2000                                           SETLOC   CONICS
001234: 12,2000                                           BANK
001235:
001236: 12,2732                                           COUNT*   $$/CONIC
001237: 12,2732           40220        TIMETHET           STQ      SETPD                                 #                               PL AT 0
001238: 12,2733           02710                                    RTNTT
001239: 12,2734           00001                                    0
001240: 12,2735           77600                           BOV
001241: 12,2736           24737                                    +1
001242: 12,2737           63375                           VLOAD    PDVL                                  #  SETUP FOR PARAM CALL         PL AT 6
001243: 12,2740           02655                                    RVEC
001244: 12,2741           02744                                    VVEC
001245: 12,2742           77624                           CALL
001246: 12,2743           11065                                    PARAM
001247: 12,2744           45000                           BOV      CALL
001248: 12,2745           24764                                    COGAOVFL                              #                               PL AT 0
001249: 12,2746           24767                                    GETX
001250: 12,2747           43145        COMMNOUT           DLOAD    BON
001251: 12,2750           00031                                    XI
001252: 12,2751           04310                                    INFINFLG
001253: 12,2752           25752                                    ABTCONIC
001254: 12,2753           45014                           CLEAR    CALL
001255: 12,2754           04273                                    COGAFLAG
001256: 12,2755           24421                                    DELTIME
001257: 12,2756           45014                           BON      CALL
001258: 12,2757           03706                                    RVSW
001259: 12,2760           02710                                    RTNTT
001260: 12,2761           24653                                    NEWSTATE
001261: 12,2762           77650                           GOTO
001262: 12,2763           02710                                    RTNTT
001263:
001264:
001265: 12,2764           77614        COGAOVFL           SETGO
001266: 12,2765           04033                                    COGAFLAG
001267: 12,2766           25752                                    ABTCONIC
001268: 04,3065                                           BANK     4
001269: 04,2000                                           SETLOC   CONICS1
001270: 04,2000                                           BANK
001271: 04,3065                                           COUNT*   $$/CONIC
001272: 04,3065           43020        PARAM              STQ      CLEAR                                 #  MPAC=V1VEC, 0D=R1VEC         PL AT 6
001273: 04,3066           02753                                    RTNPRM
001274: 04,3067           03665                                    NORMSW
001275: 04,3070           77614                           CLEAR
001276: 04,3071           04273                                    COGAFLAG
001277: 04,3072           45131                           SSP      CALL
001278: 04,3073           02673                                    GEOMSGN
001279: 04,3074           27777                                    37777                                 #  GAMMA ALWAYS LESS THAN 180DEG
001280: 04,3075           11131                                    GEOM                                  #  MPAC=SNGA (+1), 0D=CSGA (+1) PL AT 2
001281: 04,3076           14045                           STODL    36D                                   #  36D=SIN GAMMA (+1)           PL AT 0
001282: 04,3077           56261                           SR       DDV


001284: 04,3100           20606                                    5
001285:
001286: 04,3101           00045                                    36D
001287: 04,3102           32766                           STOVL*   COGA
001288: 04,3103           10005                                    MUTABLE,1
001289: 04,3104           14017                           STODL    1/MU
001290: 04,3105           02720                                    MAGVEC2
001291: 04,3106           60316                           DSQ      NORM
001292: 04,3107           00047                                    X1
001293: 04,3110           41275                           DMPR     DMP
001294: 04,3111           00017                                    1/MU
001295: 04,3112           00041                                    R1
001296: 04,3113           77657                           SRR*
001297: 04,3114           21576                                    0          -3,1
001298: 04,3115           44206                           PUSH     BDSU                                  #  0D=R1 V1SQ/MU (+6)           PL AT 2
001299: 04,3116           11044                                    D1/32
001300: 04,3117           16742                           STODL    R1A                                   #  R1A (+6)                     PL AT 0
001301:
001302: 04,3120           60205                           DMP      NORM
001303: 04,3121           00045                                    36D
001304: 04,3122           00047                                    X1
001305: 04,3123           53605                           DMP      SR*
001306: 04,3124           00045                                    36D
001307: 04,3125           20575                                    0          -4,1
001308: 04,3126           02740                           STORE    P                                     #  P (+4)
001309: 04,3127           77650                           GOTO
001310: 04,3130           02753                                    RTNPRM
001311:


001313: 04,3131           77656        GEOM               UNIT                                           #  MPAC=V2VEC, 0D=R1VEC         PL AT 6
001314: 04,3132           16712                           STODL    U2                                    #  U2 (+1)
001315: 04,3133           00045                                    36D
001316: 04,3134           26720                           STOVL    MAGVEC2                               #                               PL AT 0
001317: 04,3135           77656                           UNIT
001318: 04,3136           02722                           STORE    UR1                                   #  UR1 (+1)
001319: 04,3137           72441                           DOT      SL1
001320: 04,3140           02712                                    U2
001321: 04,3141           77725                           PDDL                                           #  OD=CSTH (+1)                 PL AT 2
001322: 04,3142           00045                                    36D
001323: 04,3143           24041                           STOVL    R1                                    #  R1 (+29 OR +27)
001324: 04,3144           02722                                    UR1
001325: 04,3145           76435                           VXV      VSL1
001326: 04,3146           02712                                    U2
001327: 04,3147           75214                           BON      SIGN
001328: 04,3150           03705                                    NORMSW
001329: 04,3151           11163                                    HAVENORM
001330: 04,3152           02673                                    GEOMSGN
001331: 04,3153           40056                           UNIT     BOV
001332: 04,3154           11161                                    COLINEAR
001333: 04,3155           16674        UNITNORM           STODL    UN                                    #  UN (+1)
001334: 04,3156           00045                                    36D
001335: 04,3157           43565                           SIGN     RVQ                                   #  MPAC=SNTH (+1), 34D=SNTH.SNTH (+2)
001336: 04,3160           02673                                    GEOMSGN
001337:
001338:
001339: 04,3161           52162        COLINEAR           VSR1     GOTO
001340: 04,3162           11155                                    UNITNORM
001341:
001342:
001343: 04,3163           75246        HAVENORM           ABVAL    SIGN
001344: 04,3164           02673                                    GEOMSGN
001345: 04,3165           77616                           RVQ                                            #  MPAC=SNTH (+1), 34D=SNTH.SNTH (+2)
001346:


001348: 12,2767                                           BANK     12
001349: 12,2000                                           SETLOC   CONICS
001350: 12,2000                                           BANK
001351:
001352: 12,2767                                           COUNT*   $$/CONIC
001353: 12,2767           66374        GETX               AXT,2    SSP                                   #  ASSUMES P (+4) IN MPAC
001354: 12,2770           00003                                    3
001355: 12,2771           00052                                    S2
001356: 12,2772           00001                                    1
001357: 12,2773           77614                           CLEAR
001358: 12,2774           04276                                    360SW
001359: 12,2775           65366                           SQRT     PDDL                                  #  0D=SQRT(P)                       PL AT 2
001360: 12,2776           02732                                    CSTH
001361: 12,2777           44342                           SR1      BDSU
001362: 12,3000           11040                                    D1/4
001363: 12,3001           54325                           PDDL     SRR                                   #                               PL AT 4D
001364: 12,3002           02730                                    SNTH
001365: 12,3003           21607                                    6
001366: 12,3004           77671                           DDV                                            #                               PL AT 2
001367: 12,3005           77600                           BOV
001368: 12,3006           25122                                    360CHECK
001369: 12,3007           41225                           DSU      DMP
001370: 12,3010           02766                                    COGA                                  #                                   PL AT 0
001371: 12,3011           40132                           SL2R     BOV
001372: 12,3012           25122                                    360CHECK
001373: 12,3013           63406        WLOOP              PUSH     DSQ                                   #  0D=W (+5)                        PL AT 2
001374: 12,3014           65351                           TLOAD    PDDL                                  #  2D=WSQ (+10)                     PL AT 5
001375: 12,3015           00155                                    MPAC
001376: 12,3016           02742                                    R1A
001377: 12,3017           76202                           SR4      TAD                                   #                               PL AT 2
001378: 12,3020           75440                           BMN      SQRT
001379: 12,3021           25205                                    INFINITY
001380: 12,3022           43306                           ROUND    DAD                                   #                               PL AT 0D
001381: 12,3023           61000                           BOV      TIX,2
001382: 12,3024           25120                                    RESETX2
001383: 12,3025           25013                                    WLOOP
001384:
001385:
001386: 12,3026           40065                           BDDV     BOV
001387: 12,3027           11034                                    D1/128
001388: 12,3030           25205                                    INFINITY
001389: 12,3031           41440        POLYCOEF           BMN      PUSH                                  #  0D=1/W (+2) OR 16/W (+6)     PL AT 2
001390: 12,3032           25205                                    INFINITY
001391: 12,3033           77716                           DSQ
001392: 12,3034           41301                           NORM     DMP
001393: 12,3035           00047                                    X1
001394: 12,3036           02742                                    R1A
001395: 12,3037           77457                           SRR*     EXIT
001396: 12,3040           21567                                    0          -10D,1
001397: 12,3041           07243                           TC       POLY


001399: 12,3042           00005                           DEC      5          B-14
001400: 12,3043           20000 00000                     2DEC     .5
001401:
001402: 12,3045           72525 52471                     2DEC     -.166666770
001403:
001404: 12,3047           03146 15003                     2DEC     .100000392
001405:
001406: 12,3051           75556 45210                     2DEC     -.071401086
001407:
001408: 12,3053           01615 13553                     2DEC     .055503292
001409:
001410: 12,3055           76371 63777                     2DEC     -.047264098
001411:
001412: 12,3057           01232 27367                     2DEC     .040694204
001413:
001414: 12,3061           06060                           TC       INTPRET
001415: 12,3062           76405                           DMP      SL1R                                  #                               PL AT 0D
001416: 12,3063           43006                           PUSH     BON
001417: 12,3064           04316                                    360SW
001418: 12,3065           25172                                    TRUE360X
001419: 12,3066           60316        XCOMMON            DSQ      NORM
001420: 12,3067           00047                                    X1
001421: 12,3070           53605                           DMP      SRR*
001422: 12,3071           02742                                    R1A
001423: 12,3072           21565                                    0          -12D,1
001424: 12,3073           14031                           STODL    XI                                    #  XI (+6)
001425:
001426:
001427: 12,3074           00041                                    R1
001428: 12,3075           75542                           SR1      SQRT
001429: 12,3076           41306                           ROUND    DMP
001430: 12,3077           77632                           SL4R                                           #                               PL AT 0
001431: 12,3100           00025                           STORE    X                                     #  X (+17 OR +16)
001432:
001433:
001434:
001435: 12,3101           60316                           DSQ      NORM
001436: 12,3102           00047                                    X1
001437: 12,3103           41325                           PDDL     DMP                                   #  0D=XSQ (+34 OR +32 -N1)      PL AT 2
001438: 12,3104           02740                                    P
001439: 12,3105           00041                                    R1
001440: 12,3106           75452                           SL3      SQRT
001441: 12,3107           56405                           DMP      SL3R
001442: 12,3110           02766                                    COGA
001443: 12,3111           14043                           STODL    KEPC1
001444: 12,3112           02742                                    R1A
001445: 12,3113           43021                           BDSU     CLEAR
001446: 12,3114           11036                                    D1/64
001447: 12,3115           04270                                    INFINFLG
001448: 12,3116           00045                           STORE    KEPC2
001449: 12,3117           77616                           RVQ
001450:


001452: 12,3120           77774        RESETX2            AXT,2
001453: 12,3121           00003                                    3
001454:
001455: 12,3122           51001        360CHECK           SETPD    BPL
001456: 12,3123           00001                                    0D
001457: 12,3124           25127                                    INVRSEQN
001458: 12,3125           77614                           SET
001459: 12,3126           04076                                    360SW
001460:
001461:
001462: 12,3127           75545        INVRSEQN           DLOAD    SQRT
001463: 12,3130           02740                                    P
001464: 12,3131           41325                           PDDL     DMP                                   #  0D=SQRT(P) (+2)                  PL AT 2
001465: 12,3132           02730                                    SNTH
001466: 12,3133           02766                                    COGA
001467: 12,3134           65352                           SL1      PDDL                                  #  2D=SNTH COGA (+5)                PL AT 4
001468: 12,3135           02732                                    CSTH
001469: 12,3136           43202                           SR4      DAD
001470: 12,3137           11044                                    D1/32
001471: 12,3140           41225                           DSU      DMP                                   #                               PL AT 2,0
001472: 12,3141           55301                           NORM     BDDV
001473: 12,3142           00047                                    X1
001474: 12,3143           02730                                    SNTH
001475: 12,3144           51457                           SLR*     ABS                                   #  NOTE: NEAR 360 CASE TREATED DIFFERENTLY
001476: 12,3145           21174                                    0          -5,1
001477: 12,3146           63406                           PUSH     DSQ                                   #  0D=1/W (-1)                  PL AT 2
001478: 12,3147           14043                           STODL    34D
001479: 12,3150           11042                                    D1/16
001480: 12,3151           63406        1/WLOOP            PUSH     DSQ                                   #  2D=G (+4)                        PL AT 4
001481: 12,3152           65234                           RTB      PDDL                                  #                               PL AT 7
001482: 12,3153           21643                                    TPMODE
001483: 12,3154           02742                                    R1A
001484: 12,3155           40405                           DMP      SR4
001485: 12,3156           00043                                    34D
001486: 12,3157           77771                           TAD
001487: 12,3160           75440                           BMN      SQRT                                  #                                   PL AT 4
001488: 12,3161           25205                                    INFINITY
001489: 12,3162           77615                           DAD                                            #                               PL AT 2
001490: 12,3163           60304                           TIX,2    NORM
001491: 12,3164           25151                                    1/WLOOP
001492: 12,3165           00047                                    X1
001493: 12,3166           77665                           BDDV
001494: 12,3167           52057                           SLR*     GOTO                                  #                                   PL AT 0
001495: 12,3170           21172                                    0          -7,1
001496: 12,3171           25031                                    POLYCOEF
001497:
001498:
001499: 12,3172           50145        TRUE360X           DLOAD    BMN
001500: 12,3173           02742                                    R1A


001502: 12,3174           25205                                    INFINITY
001503: 12,3175           60366                           SQRT     NORM
001504: 12,3176           00047                                    X1
001505: 12,3177           53665                           BDDV     SL*
001506: 12,3200           11056                                    2PISC
001507: 12,3201           20176                                    0          -3,1
001508: 12,3202           41425                           DSU      PUSH                                  #  0D=2PI/SQRT(R1A) -X          PL AT 0,2
001509: 12,3203           77650                           GOTO
001510: 12,3204           25066                                    XCOMMON
001511: 12,3205           40001        INFINITY           SETPD    BOV                                   #  NO SOLUTION EXISTS SINCE CLOSURE THROUGH
001512: 12,3206           00001                                    0                                     #  INFINITY IS REQUIRED
001513: 12,3207           25210                                    OVFLCLR
001514: 12,3210           43414        OVFLCLR            SET      RVQ
001515: 12,3211           04070                                    INFINFLG
001516:


001518: 12,3212           40220        LAMBERT            STQ      SETPD
001519: 12,3213           02710                                    RTNLAMB
001520: 12,3214           00001                                    0D
001521: 12,3215           77600                           BOV
001522: 12,3216           25217                                    +1
001523: 12,3217           76614                           CLEAR    VLOAD*
001524: 12,3220           02674                                    SOLNSW
001525: 12,3221           10005                                    MUTABLE,1
001526: 12,3222           14017                           STODL    1/MU
001527: 12,3223           02671                                    TDESIRED
001528: 12,3224           77675                           DMPR
001529: 12,3225           11043                                    BEE19
001530: 12,3226           02764                           STORE    EPSILONL
001531: 12,3227           77214                           SET      VLOAD
001532: 12,3230           00474                                    SLOPESW
001533: 12,3231           02655                                    R1VEC
001534: 12,3232           45115                           PDVL     CALL                                  #  0D=R1VEC (+29 OR +27)        PL AT 6
001535: 12,3233           02663                                    R2VEC                                 #  MPAC=R2VEC (+29 OR +27)
001536: 12,3234           11131                                    GEOM
001537: 12,3235           16730                           STODL    SNTH                                  #  0D=CSTH (+1)                 PL AT 2
001538: 12,3236           02720                                    MAGVEC2
001539: 12,3237           65301                           NORM     PDDL                                  #                               PL AT 4
001540: 12,3240           00047                                    X1
001541: 12,3241           00041                                    R1
001542: 12,3242           56342                           SR1      DDV                                   #                               PL AT 2
001543: 12,3243           65257                           SL*      PDDL                                  #  DXCH WITH 0D, 0D=R1/R2 (+7)  PL AT 0,2
001544: 12,3244           20173                                    0          -6,1
001545: 12,3245           77626                           STADR
001546: 12,3246           75045                           STORE    CSTH                                  #  CSTH (+1)
001547: 12,3247           44342                           SR1      BDSU
001548: 12,3250           11040                                    D1/4
001549: 12,3251           02734                           STORE    1-CSTH                                #  1-CSTH (+2)
001550:
001551: 12,3252           53106                           ROUND    BZE
001552: 12,3253           25473                                    360LAMB
001553: 12,3254           65301                           NORM     PDDL                                  #                               PL AT 4
001554: 12,3255           00047                                    X1
001555: 12,3256           00001                                    0D
001556: 12,3257           56342                           SR1      DDV                                   #                               PL AT 2
001557: 12,3260           75457                           SL*      SQRT
001558: 12,3261           20176                                    0          -3,1
001559: 12,3262           54325                           PDDL     SR                                    #  2D=SQRT(2R1/R2(1-CSTH)) (+5) PL AT 4
001560: 12,3263           02730                                    SNTH
001561: 12,3264           20607                                    6
001562: 12,3265           43271                           DDV      DAD                                   #                               PL AT 2
001563: 12,3266           02734                                    1-CSTH
001564: 12,3267           77626                           STADR
001565: 12,3270           77760                           STORE    COGAMAX
001566: 12,3271           50000                           BOV      BMN                                   #  IF OVFL, COGAMAX=COGUPLIM
001567: 12,3272           25277                                    UPLIM                                 #  IF NEG, USE EVEN IF LT COGLOLIM, SINCE


001569: 12,3273           25302                                    MAXCOGA                               #    THIS WOULD BE RESET IN LAMBLOOP
001570: 12,3274           50025                           DSU      BMN                                   #  IF COGAMAX GT COGUPLIM, COGAMAX=COGUPLIM
001571: 12,3275           11062                                    COGUPLIM
001572: 12,3276           25302                                    MAXCOGA                               #  OTHERWISE OK, SO GO TO MAXCOGA
001573: 12,3277           77745        UPLIM              DLOAD
001574: 12,3300           11062                                    COGUPLIM                              #  COGUPLIM=.999511597 = MAX VALUE OF COGA
001575: 12,3301           00017                           STORE    COGAMAX                               #    NOT CAUSING OVFL IN R1A CALCULATION
001576: 12,3302           77745        MAXCOGA            DLOAD
001577: 12,3303           02732                                    CSTH
001578: 12,3304           45261                           SR       DSU                                   #                               PL AT 0
001579: 12,3305           20607                                    6
001580: 12,3306           77626                           STADR
001581: 12,3307           61041                           STODL    CSTH-RHO
001582: 12,3310           02673                                    GEOMSGN
001583: 12,3311           71240                           BMN      DLOAD
001584: 12,3312           25513                                    LOLIM
001585: 12,3313           02736                                    CSTH-RHO
001586: 12,3314           56352                           SL1      DDV
001587: 12,3315           02730                                    SNTH
001588: 12,3316           77600                           BOV
001589: 12,3317           25513                                    LOLIM
001590: 12,3320           00011        MINCOGA            STORE    COGAMIN                               #  COGAMIN (+5)
001591: 12,3321           66214                           BON      SSP
001592: 12,3322           00715                                    GUESSW
001593: 12,3323           25477                                    NOGUESS
001594: 12,3324           00051                                    TWEEKIT
001595: 12,3325           00001                                    00001
001596: 12,3326           77745                           DLOAD
001597: 12,3327           02766                                    COGA
001598:
001599:
001600: 12,3330           77605        LAMBLOOP           DMP
001601: 12,3331           02730                                    SNTH
001602: 12,3332           45342                           SR1      DSU
001603: 12,3333           02736                                    CSTH-RHO
001604: 12,3334           65301                           NORM     PDDL                                  #  0D=SNTH COGA-(CSTH-RHO) (+7+C(XI)) PL=2
001605: 12,3335           00047                                    X1
001606: 12,3336           02734                                    1-CSTH
001607: 12,3337           56257                           SL*      DDV                                   #  1-CSTH  (+2)                 PL AT 0
001608: 12,3340           20170                                    0          -9D,1
001609: 12,3341           53040                           BMN      BZE
001610: 12,3342           25427                                    NEGP
001611: 12,3343           25427                                    NEGP
001612: 12,3344           16740                           STODL    P                                     #  P=(1-CSTH)/(SNTH COGA-(CSTH-RHO)) (+4)
001613: 12,3345           02766                                    COGA
001614: 12,3346           43316                           DSQ      DAD
001615: 12,3347           11046                                    D1/1024
001616: 12,3350           41301                           NORM     DMP
001617: 12,3351           00047                                    X1
001618: 12,3352           02740                                    P


001620: 12,3353           44257                           SR*      BDSU
001621: 12,3354           20571                                    0          -8D,1
001622: 12,3355           11044                                    D1/32
001623: 12,3356           16742                           STODL    R1A                                   #  R1A=2-P(1+COGA COGA) (+6)
001624:
001625: 12,3357           02740                                    P
001626: 12,3360           45000                           BOV      CALL
001627: 12,3361           25432                                    HIENERGY
001628: 12,3362           24767                                    GETX
001629: 12,3363           77745                           DLOAD
001630: 12,3364           00037                                    T
001631: 12,3365           16762                           STODL    TPREV
001632: 12,3366           00031                                    XI
001633: 12,3367           45014                           BON      CALL
001634: 12,3370           04310                                    INFINFLG
001635: 12,3371           25427                                    NEGP                                  #  HAVE EXCEEDED THEORETICAL BOUNDS
001636: 12,3372           24421                                    DELTIME
001637: 12,3373           44200                           BOV      BDSU
001638: 12,3374           25447                                    BIGTIME
001639: 12,3375           02671                                    TDESIRED
001640: 12,3376           02760                           STORE    TERRLAMB
001641: 12,3377           44246                           ABS      BDSU
001642: 12,3400           02764                                    EPSILONL
001643: 12,3401           47044                           BPL      RTB
001644: 12,3402           25516                                    INITV
001645: 12,3403           24644                                    CHECKCTR
001646: 12,3404           43030                           BHIZ     BON
001647: 12,3405           25460                                    SUFFCHEK
001648: 12,3406           00714                                    SLOPESW
001649: 12,3407           25415                                    GOITER
001650: 12,3410           45345                           DLOAD    DSU
001651: 12,3411           00037                                    T
001652: 12,3412           02762                                    TPREV
001653: 12,3413           77654                           BZE
001654: 12,3414           25460                                    SUFFCHEK
001655: 12,3415           77624        GOITER             CALL
001656: 12,3416           24536                                    ITERATOR
001657: 12,3417           53145                           DLOAD    BZE
001658: 12,3420           00155                                    MPAC
001659: 12,3421           25460                                    SUFFCHEK
001660: 12,3422           77615                           DAD
001661: 12,3423           02766                                    COGA
001662: 12,3424           02766                           STORE    COGA
001663: 12,3425           77650                           GOTO
001664: 12,3426           25330                                    LAMBLOOP
001665:
001666:
001667: 12,3427           51145        NEGP               DLOAD    BPL                                   #  IMPOSSIBLE TRAJECTORY DUE TO INACCURATE
001668: 12,3430           00015                                    DCOGA                                 #  BOUND CALCULATION. TRY NEW COGA.
001669: 12,3431           25452                                    LOENERGY
001670:


001672: 12,3432           71201        HIENERGY           SETPD    DLOAD                                 #  HIGH ENERGY TRAJECTORY RESULTED
001673: 12,3433           00001                                    0
001674: 12,3434           02766                                    COGA                                  #  IN OVFL OF P OR R1A, OR XI EXCEEDING 50.
001675: 12,3435           00011                           STORE    COGAMIN                               #  THIS IS THE NEW BOUND.
001676: 12,3436           70545        COMMONLM           DLOAD    SR1
001677: 12,3437           00015                                    DCOGA
001678: 12,3440           00015                           STORE    DCOGA                                 #  USE DCOGA/2 AS DECREMENT
001679: 12,3441           44254                           BZE      BDSU
001680: 12,3442           25460                                    SUFFCHEK
001681: 12,3443           02766                                    COGA
001682: 12,3444           02766                           STORE    COGA
001683: 12,3445           77650                           GOTO                                           #  RESTART THIS LOOP
001684: 12,3446           25330                                    LAMBLOOP
001685:
001686:
001687: 12,3447           77745        BIGTIME            DLOAD
001688: 12,3450           02762                                    TPREV
001689: 12,3451           00037                           STORE    T
001690:
001691:
001692: 12,3452           71201        LOENERGY           SETPD    DLOAD                                 #  LOW ENERGY TRAJECTORY RESULTED
001693: 12,3453           00001                                    0
001694: 12,3454           02766                                    COGA                                  #  IN OVERFLOW OF TIME.
001695: 12,3455           00017                           STORE    COGAMAX                               #  THIS IS THE NEW BOUND.
001696: 12,3456           77650                           GOTO
001697: 12,3457           25436                                    COMMONLM
001698:
001699:
001700: 12,3460           51545        SUFFCHEK           DLOAD    ABS
001701: 12,3461           02760                                    TERRLAMB
001702: 12,3462           41325                           PDDL     DMP
001703: 12,3463           02671                                    TDESIRED                              #                               PL AT 2D
001704: 12,3464           11031                                    BEE17
001705: 12,3465           45215                           DAD      DSU                                   #                               PL AT 0D
001706: 12,3466           11060                                    ONEBIT
001707: 12,3467           43044                           BPL      SETGO
001708: 12,3470           25516                                    INITV
001709: 12,3471           02434                                    SOLNSW
001710: 12,3472           25516                                    INITV
001711: 12,3473           43001        360LAMB            SETPD    SETGO                                 #  LAMBERT CANNOT HANDLE CSTH=1
001712: 12,3474           00001                                    0
001713: 12,3475           02434                                    SOLNSW
001714: 12,3476           02710                                    RTNLAMB
001715:
001716:
001717: 12,3477           71331        NOGUESS            SSP      DLOAD
001718: 12,3500           00051                                    TWEEKIT
001719: 12,3501           10000                                    20000
001720: 12,3502           00011                                    COGAMIN                               #                               PL AT 2
001721: 12,3503           65342                           SR1      PDDL


001723: 12,3504           00017                                    COGAMAX
001724: 12,3505           43342                           SR1      DAD
001725: 12,3506           77626                           STADR                                          #                               PL AT 0
001726: 12,3507           75011                           STORE    COGA
001727: 12,3510           00015                           STORE    DCOGA
001728: 12,3511           77650                           GOTO
001729: 12,3512           25330                                    LAMBLOOP
001730:
001731:
001732: 12,3513           52145        LOLIM              DLOAD    GOTO
001733: 12,3514           11064                                    COGLOLIM                              #  COGLOLIM=-.999511597
001734: 12,3515           25320                                    MINCOGA
001735:
001736:
001737: 12,3516           60345        INITV              DLOAD    NORM
001738: 12,3517           00041                                    R1
001739: 12,3520           00047                                    X1
001740: 12,3521           70525                           PDDL     SR1                                   #                               PL AT 2
001741: 12,3522           02740                                    P
001742: 12,3523           77671                           DDV                                            #                               PL AT 0
001743: 12,3524           75457                           SL*      SQRT
001744: 12,3525           20175                                    0          -4,1
001745: 12,3526           72405                           DMP      SL1
001746: 12,3527           00021                                    ROOTMU
001747: 12,3530           41206                           PUSH     DMP                                   #  0D=VTAN (+7)                 PL AT 2
001748: 12,3531           02766                                    COGA
001749: 12,3532           74261                           SL       VXSC
001750: 12,3533           20206                                    5
001751: 12,3534           02722                                    UR1
001752: 12,3535           77725                           PDDL                                           #  XCH WITH 0D                  PL AT 0,6
001753: 12,3536           76561                           VXSC     VSL1
001754: 12,3537           02674                                    UN
001755: 12,3540           53235                           VXV      VAD
001756: 12,3541           02722                                    UR1                                   #                               PL AT 0
001757: 12,3542           77772                           VSL1
001758: 12,3543           02744                           STORE    VVEC
001759: 12,3544           53135                           SLOAD    BZE
001760: 12,3545           02702                                    VTARGTAG
001761: 12,3546           25551                                    TARGETV
001762: 12,3547           77650                           GOTO
001763: 12,3550           02710                                    RTNLAMB
001764:
001765:
001766: 12,3551           45145        TARGETV            DLOAD    CALL
001767: 12,3552           02720                                    MAGVEC2
001768: 12,3553           24701                                    LAMENTER
001769: 12,3554           02703                           STORE    VTARGET
001770: 12,3555           77650                           GOTO
001771: 12,3556           02710                                    RTNLAMB
001772:


001774: 12,3557           40220        TIMERAD            STQ      SETPD                                 #                                  PL AT 0
001775: 12,3560           02710                                    RTNTR
001776: 12,3561           00001                                    0
001777: 12,3562           77600                           BOV
001778: 12,3563           25564                                    +1
001779: 12,3564           63375                           VLOAD    PDVL                                  #                                  PL AT 6
001780: 12,3565           02655                                    RVEC
001781: 12,3566           02744                                    VVEC
001782: 12,3567           77624                           CALL
001783: 12,3570           11065                                    PARAM
001784: 12,3571           71200                           BOV      DLOAD                                 #                                  PL AT 0
001785: 12,3572           24764                                    COGAOVFL
001786: 12,3573           11044                                    D1/32
001787: 12,3574           41225                           DSU      DMP
001788: 12,3575           02742                                    R1A
001789: 12,3576           02740                                    P
001790: 12,3577           41366                           SQRT     DMP
001791: 12,3600           02766                                    COGA
001792: 12,3601           74212                           SL4      VXSC
001793: 12,3602           02712                                    U2
001794: 12,3603           45325                           PDDL     DSU                                   #                                  PL AT 6
001795: 12,3604           11036                                    D1/64
001796: 12,3605           02742                                    R1A
001797: 12,3606           52361                           VXSC     VSU                                   #                                  PL AT 0
001798: 12,3607           02722                                    UR1
001799: 12,3610           53512                           VSL4     UNIT
001800: 12,3611           77600                           BOV
001801: 12,3612           25670                                    CIRCULAR
001802: 12,3613           60325                           PDDL     NORM                                  #  0D=UNIT(ECC) (+3)               PL AT 6
001803: 12,3614           02756                                    RDESIRED                              #  35D=ECC (+3)
001804: 12,3615           00047                                    X1
001805: 12,3616           41325                           PDDL     DMP                                   #                               PL AT 8
001806: 12,3617           00041                                    R1
001807: 12,3620           02740                                    P
001808: 12,3621           56257                           SL*      DDV                                   #                               PL AT 6
001809: 12,3622           20201                                    0,1
001810: 12,3623           56225                           DSU      DDV
001811: 12,3624           11042                                    D1/16
001812: 12,3625           00045                                    36D                                   #  36D=ECC (+3)
001813: 12,3626           00031                           STORE    COSF
001814: 12,3627           63400                           BOV      DSQ
001815: 12,3630           25674                                    BADR2
001816: 12,3631           50021                           BDSU     BMN
001817: 12,3632           11040                                    D1/4
001818: 12,3633           25674                                    BADR2
001819: 12,3634           75366                           SQRT     SIGN
001820: 12,3635           02755                                    SGNRDOT
001821: 12,3636           77614                           CLEAR
001822: 12,3637           04272                                    APSESW


001824: 12,3640           76561        TERMNVEC           VXSC     VSL1
001825: 12,3641           02674                                    UN
001826: 12,3642           63235                           VXV      PDVL                                  #  VXCH WITH 0D                 PL AT 0,6
001827: 12,3643           00001                                    0D
001828: 12,3644           53361                           VXSC     VAD                                   #                               PL AT 0
001829: 12,3645           00031                                    COSF
001830: 12,3646           41572                           VSL1     PUSH                                  #  0D=U2                        PL AT 6
001831:
001832: 12,3647           56241                           DOT      DDV                                   #  LIMITS RESULT TO POSMAX OR NEGMAX
001833: 12,3650           02722                                    UR1
001834: 12,3651           25766                                    DP1/4
001835: 12,3652           40142                           SR1      BOV                                   #  SCALE BACK DOWN TO NORMAL
001836: 12,3653           25654                                    +1                                    #  CLEAR OVFIND IF SET
001837: 12,3654           26732                           STOVL    CSTH                                  #  CSTH (+1)
001838: 12,3655           02722                                    UR1
001839: 12,3656           76435                           VXV      VSL1
001840: 12,3657           72441                           DOT      SL1
001841: 12,3660           02674                                    UN
001842: 12,3661           16730                           STODL    SNTH                                  #  SNTH (+1)
001843: 12,3662           02740                                    P
001844: 12,3663           77624                           CALL
001845: 12,3664           24767                                    GETX
001846: 12,3665           77614                           CLRGO
001847: 12,3666           02634                                    SOLNSW
001848: 12,3667           24747                                    COMMNOUT
001849:
001850:
001851: 12,3670           43001        CIRCULAR           SETPD    SETGO
001852: 12,3671           00001                                    0
001853: 12,3672           02434                                    SOLNSW
001854: 12,3673           25752                                    ABTCONIC
001855:
001856:
001857: 12,3674           75345        BADR2              DLOAD    SIGN
001858: 12,3675           24005                                    LODPHALF
001859: 12,3676           00031                                    COSF
001860: 12,3677           14031                           STODL    COSF
001861: 12,3700           24007                                    KEPZERO
001862: 12,3701           77614                           SETGO
001863: 12,3702           04032                                    APSESW
001864: 12,3703           25640                                    TERMNVEC
001865:


001867: 12,3704           40220        APSIDES            STQ      SETPD                                 #                                  PL AT  0
001868: 12,3705           02710                                    RTNAPSE
001869: 12,3706           00001                                    0D
001870: 12,3707           77600                           BOV
001871: 12,3710           25711                                    +1
001872: 12,3711           63375                           VLOAD    PDVL                                  #                                  PL AT  6
001873: 12,3712           02655                                    RVEC
001874: 12,3713           02744                                    VVEC
001875: 12,3714           77624                           CALL
001876: 12,3715           11065                                    PARAM
001877: 12,3716           77600                           BOV                                            #                                  PL AT  0
001878: 12,3717           25720                                    GETECC
001879: 12,3720           42405        GETECC             DMP      SL4
001880: 12,3721           02742                                    R1A
001881: 12,3722           75421                           BDSU     SQRT
001882: 12,3723           11036                                    D1/64
001883: 12,3724           02752                           STORE    ECC
001884: 12,3725           65215                           DAD      PDDL                                  #                                  PL AT  2
001885: 12,3726           11032                                    D1/8
001886: 12,3727           00041                                    R1
001887: 12,3730           72405                           DMP      SL1
001888: 12,3731           02740                                    P
001889: 12,3732           77671                           DDV                                            #                                  PL AT  0
001890: 12,3733           60325                           PDDL     NORM                                  #  0D=RP (+29 OR +27)              PL AT  2
001891: 12,3734           02742                                    R1A
001892: 12,3735           00047                                    X1
001893: 12,3736           53725                           PDDL     SL*                                   #                                  PL AT  4
001894: 12,3737           00041                                    R1
001895: 12,3740           20174                                    0          -5,1
001896: 12,3741           45271                           DDV      DSU                                   #                                  PL AT 2,0
001897: 12,3742           50000                           BOV      BMN
001898: 12,3743           25747                                    INFINAPO
001899: 12,3744           25747                                    INFINAPO
001900: 12,3745           77650                           GOTO
001901: 12,3746           02710                                    RTNAPSE
001902: 12,3747           52145        INFINAPO           DLOAD    GOTO                                  #  RETURNS WITH APOAPSIS IN MPAC, PERIAPSIS
001903: 12,3750           24020                                    LDPOSMAX
001904: 12,3751           02710                                    RTNAPSE                               #  THAT PL IS AT 0.
001905:


001907: 12,3752           77776        ABTCONIC           EXIT
001908: 12,3753           05644                           TC       POODOO
001909: 12,3754           20607                           OCT      20607
001910:
001911: 12,3755  12,2017               LDPOSMAX           EQUALS   LODPMAX                               #  DPPOSMAX IN LOW MEMORY.
001912:
001913:                                                                                                  #  ERASABLE ASSIGNEMENTS
001914:
001915:
001916:                                                                                                  #  KEPLER SUBROUTINE
001917:
001918:                                                                                                  #     INPUT -
001919:                                                                                                  #  RRECT    ERASE  +5
001920:                                                                                                  #  VRECT    ERASE  +5
001921:                                                                                                  #  TAU.     ERASE  +1
001922:                                                                                                  #  XKEP     ERASE  +1
001923:                                                                                                  #  TC       ERASE  +1
001924:                                                                                                  #  XPREV    ERASE  +1
001925: 12,3755                        1/MU               EQUALS   14D
001926: 12,3755                        ROOTMU             EQUALS   16D
001927: 12,3755                        1/ROOTMU           EQUALS   18D
001928:                                                                                                  #     OUTPUT -
001929:                                                                                                  #  RCV      ERASE  +5
001930:                                                                                                  #  VCV      ERASE  +5
001931:                                                                                                  #  RC       ERASE  +1
001932:                                                                                                  #  XPREV    ERASE  +1
001933:
001934:                                                                                                  #  DEBRIS -
001935: 12,3755                        ALPHA              EQUALS   8D
001936: 12,3755                        XMAX               EQUALS   10D
001937: 12,3755                        XMIN               EQUALS   12D
001938: 12,3755                        X                  EQUALS   20D
001939: 12,3755                        XI                 EQUALS   24D
001940: 12,3755                        S(XI)              EQUALS   26D
001941: 12,3755                        XSQC(XI)           EQUALS   28D
001942: 12,3755                        T                  EQUALS   30D
001943: 12,3755                        R1                 EQUALS   32D
001944: 12,3755                        KEPC1              EQUALS   34D
001945: 12,3755                        KEPC2              EQUALS   36D
001946:                                                                                                  #  DELX     ERASE  +1
001947:                                                                                                  #  DELT     ERASE  +1
001948:                                                                                                  #  URRECT   ERASE  +5
001949:                                                                                                  #  RCNORM   ERASE  +1
001950:                                                                                                  #  XPREV    EQUALS XKEP
001951:
001952:
001953:                                                                                                  #  LAMBERT SUBROUTINE
001954:
001955:                                                                                                  #     INPUT-
001956:                                                                                                  #  R1VEC    ERASE  +5


001958:                                                                                                  #  R2VEC    ERASE  +5
001959:                                                                                                  #  TDESIRED ERASE  +1
001960:                                                                                                  #  GEOMSGN  ERASE  +0
001961:                                                                                                  #  GUESSW                          0 IF COGA GUESS AVAILABLE, 1 IF NOT
001962:                                                                                                  #  COGA     ERASE  +1              INPUT ONLY IF GUESSW IS ZERO.
001963:                                                                                                  #  NORMSW                          0 IF UN TO BE COMPUTED, 1 IF UN INPUT
001964:                                                                                                  #  UN       ERASE  +5              ONLY USEC IF NORMSE IS 1
001965:                                                                                                  #  VTARGTAG ERASE  +0
001966:                                                                                                  #  TWEEKIT  EQUALS 40D             ONLY USED IF GUESSW IS 0
001967:
001968:                                                                                                  #     OUTPUT -
001969:                                                                                                  #  VTARGET  ERASE  +5              AVAILABLE ONLY IF VTARGTAG IS ZERO.
001970:                                                                                                  #  V1VEC    EQUALS MPAC
001971:
001972:                                                                                                  #     DEBRIS -
001973:                                                                                                  #  RTNLAMB  ERASE  +0
001974:                                                                                                  #  U2       ERASE  +5
001975:                                                                                                  #  MAGVEC2  ERASE  +1
001976:                                                                                                  #  UR1      ERASE  +5
001977:                                                                                                  #  R1       EQUALS 31D
001978:                                                                                                  #  UN       ERASE  +5
001979:                                                                                                  #  SNTH     ERASE  +1
001980:                                                                                                  #  CSTH     ERASE  +1
001981:                                                                                                  #  1-CSTH   ERASE  +1
001982:                                                                                                  #  CSTH-RHO ERASE  +1
001983: 12,3755                        COGAMAX            EQUALS   14D                                   #  CLOBBERS 1/MU
001984: 12,3755                        COGAMIN            EQUALS   8D
001985: 12,3755                        DCOGA              EQUALS   12D
001986:                                                                                                  #  TWEEKIT  EQUALS 40D
001987:                                                                                                  #  P        ERASE  +1
001988:                                                                                                  #  COGA     ERASE  +1
001989:                                                                                                  #  R1A      ERASE  +1
001990:                                                                                                  #  X        EQUALS 20D
001991:                                                                                                  #  XSQ      EQUALS 22D
001992:                                                                                                  #  XI       EQUALS 24D
001993:                                                                                                  #  S(XI)    EQUALS 26D
001994:                                                                                                  #  XSQC(XI) EQUALS 28D
001995:                                                                                                  #  T        EQUALS 30D
001996:                                                                                                  #  KEPC1    EQUALS 34D
001997:                                                                                                  #  KEPC2    EQUALS 36D
001998:                                                                                                  #  SLOPSW
001999:                                                                                                  #  SOLNSW
002000:                                                                                                  #  OTHERS -
002001:
002002:                                                                                                  #  RVEC     EQUALS R1VEC
002003:                                                                                                  #  VVEC     ERASE  +5
002004:                                                                                                  #  COGAFLAG
002005:                                                                                                  #  RVSW
002006:                                                                                                  #  INFINFLG
002007:                                                                                                  #  APSESW


002009:                                                                                                  #  360SW
002010:                                                                                                  #  RTNTT    EQUALS RTNLAMB
002011:                                                                                                  #  ECC      ERASE  +1
002012:                                                                                                  #  RTNTR    EQUALS RTNLAMB
002013:                                                                                                  #  RTNAPSE  EQUALS RTNLAMB
002014:                                                                                                  #  R2       EQUALS MAGVEC2
002015: 12,3755                        COSF               EQUALS   24D
002016:                                                                                                  #  RTNPRM   ERASE  +0
002017:                                                                                                  #  SGNRDOT  ERASE  +0
002018:                                                                                                  #  RDESIRED ERASE  +1
002019:
002020:
002021:                                                                                                  #  ITERATOR SUBROUTINE
002022:
002023:                                                                                                  #  ORDERSW
002024: 12,3755                        MAX                EQUALS   14D                                   #  CLOBBERS 1/MU
002025: 12,3755                        MIN                EQUALS   8D
002026:                                                                                                  #  INDEP    ERASE  +1
002027: 12,3755                        DELINDEP           EQUALS   12D
002028: 12,3755                        ITERCTR            EQUALS   22D
002029: 12,3755                        DEP                EQUALS   30D
002030:                                                                                                  #  DELDEP   ERASE  +1
002031:                                                                                                  #  DEPREV   ERASE  +1
002032: 12,3755                        TWEEKIT            EQUALS   40D
002033:
002034:
002035:                                                                                                  #  MORE KEPLER
002036:
002037:                                                                                                  #  EPSILONT ERASE  +1
002038:
002039:
002040:                                                                                                  #  MORE LAMBERT
002041:
002042:                                                                                                  #  TERRLAMB EQUALS DELDEP
002043:                                                                                                  #  TPREV    EQUALS DEPREV
002044:
002045:                                                                                                  #  EPSILONL EQUALS EPSILONT +2     DOUBLE PRECISION WORD

End of include-file CONIC_SUBROUTINES.agc.  Parent file is MAIN.agc


