
Source Code


000002:                                                                                                  ## Copyright:   Public domain.
000003:                                                                                                  ## Filename:    CONTROLLED_CONSTANTS.agc
000004:                                                                                                  ## Purpose:     A section of Luminary revision 210.
000005:                                                                                                  ##              It is part of the source code for the Lunar Module's (LM)
000006:                                                                                                  ##              Apollo Guidance Computer (AGC) for Apollo 15-17.
000007:                                                                                                  ##              This file is intended to be a faithful transcription, except
000008:                                                                                                  ##              that the code format has been changed to conform to the
000009:                                                                                                  ##              requirements of the yaYUL assembler rather than the
000010:                                                                                                  ##              original YUL assembler.
000011:                                                                                                  ## Reference:   pp. 39-55
000012:                                                                                                  ## Assembler:   yaYUL
000013:                                                                                                  ## Contact:     Ron Burkey <info@sandroid.org>.
000014:                                                                                                  ## Website:     www.ibiblio.org/apollo/index.html
000015:                                                                                                  ## Mod history: 2016-11-17 JL   Created from Luminary131 version.
000016:                                                                                                  ##              2016-11-17 HG   Transcribed
000017:                                                                                                  ##              2016-12-08 HG   Fix label  HBEAMANB  -> HBEAMNB
000018:                                                                                                  ##              2016-12-11 HG   fix value for STAR 22 Z
000019:                                                                                                  ##                                            BSUBO
000020:                                                                                                  ##              2016-12-12 HG   fix value for HBEAMNB
000021:                                                                                                  ##              2016-12-12 MAS  Split up some Exx Bxx scalers.
000022:                                                                                                  ##              2016-12-15 RSB  Proofed comment text with octopus/ProoferComments,
000023:                                                                                                  ##                              and corrected the errors found.
000024:
000025:


000027:                                                                                                  #  DPS AND APS ENGINE PARAMETERS
000028:
000029: 36,2000                                           SETLOC   P40S
000030: 36,2000                                           BANK
000031: 36,2000                                           COUNT*   $$/P40
000032:
000033:                                                                                                  #  *** THE ORDER OF THE FOLLOWING SIX CONSTANTS MUST NOT BE CHANGED ***
000034:
000035: 36,2000           01056 37167  FDPS               2DEC     4.3670     B-7                        #  9817.5 LBS FORCE IN NEWTONS
000036: 36,2002           00457 03250  MDOTDPS            2DEC     0.1480     B-3                        #  32.62 LBS/SEC IN KGS/CS.
000037: 36,2004           77777 77731  DTDECAY            2DEC     -38        B-28                       #  40 PERCENT FTP-DPS TAILOFF FOR P40
000038: 36,2006           00307 11040  FAPS               2DEC     1.5569     B-7                        #  3500 LBS FORCE IN NEWTONS
000039: 36,2010           00151 05214  MDOTAPS            2DEC     0.05135    B-3                        #  11.32 LBS/SEC IN KGS/CS
000040: 36,2012           77777 77755  ATDECAY            2DEC     -18        B-28                       #  618 LB-SEC TAILOFF FOR APS
000041:
000042:                                                                                                  #  ************************************************************************
000043:
000044: 36,2014           00003 00000  100PCTTO           2DEC     24         B-17                       #  100 PERCENT FTP-OPS TAILOFF FOR P70
000045:
000046:                                                                                                  #  ************************************************************************
000047:
000048: 36,2016           00026 30605  FRCS4              2DEC     0.17792    B-7                        #  400 LBS FORCE IN NEWTONS
000049: 36,2020           00013 14303  FRCS2              2DEC     0.08896    B-7                        #  200 LBS FORCE IN NEWTONS
000050: 27,2000                                           SETLOC   P40S1
000051: 27,2000                                           BANK
000052: 27,2000                                           COUNT*   $$/P40
000053:
000054:                                                                                                  #  *** APS IMPULSE DATA FOR P42 *******************************************
000055:
000056: 27,2000           00000 10604  K1VAL              2DEC     140.12     B-23                       #  3150 LB.SEC APS IMPULSE (WET)
000057: 27,2002           00000 00762  K2VAL              2DEC     31.138     B-24                       #  700  LB-SEC
000058: 27,2004           00030 35104  K3VAL              2DEC     1.5569     B-10                       #  FAPS ( 3500 LBS THRUST)
000059:                                                                                                  #  ************************************************************************
000060:
000061: 27,2006           00016 36237  S40.136            2DEC     .4671      B-9                        #  .4671 M NEWTONS (DPS)
000062: 27,2010           35711 35663  S40.136_           2DEC     .4671      B+1                        #  S40.136 SHIFTED LEFT 10.
000063:
000064: 27,2000                                           SETLOC   ASENT1


000066: 27,2000                                           BANK
000067: 27,2012                                           COUNT*   $$/P70
000068:
000069: 27,2012           03631 23146  (1/DV)A            2DEC     15.20      B-7                        #  2 SECONDS WORTH OF INITIAL ASCENT
000070:
000071:                                                                                                  #  STAGE ACCELERATION -- INVERTED (M/CS)
000072:                                                                                                  #  1) PREDICATED ON A LIFTOFF MASS OF
000073:                                                                                                  #     4869.9 KG (SNA-8-D-027 7/11/68)
000074:                                                                                                  #  2) PREDICATED ON A CONTRIBUTION TO VEH-
000075:                                                                                                  #     ICLE ACCELERATION FROM RCS THRUSTERS
000076:                                                                                                  #     EQUIV. TO 1 JET ON CONTINUOUSLY.
000077: 27,2014           33226 14632  K(1/DV)            2DEC     436.70     B-9                        #  DPS ENGINE THRUST IN NEWTONS / 100 CS.
000078: 27,2016           05306 15503  (AT)A              2DEC     3.2883     E-4        B9              #  INITIAL ASC. STG. ACCELERATION ** M/CS.
000079:                                                                                                  #  ASSUMPTIONS SAME AS FOR (1/DV)A.
000080: 27,2020           26337 30000  (TBUP)A            2DEC     91902      B-17                       #  ESTIMATED BURN-UP TIME OF THE ASCENT STG
000081:                                                                                                  #  ASSUMPTIONS SAME AS FOR (1/DV)A WITH THE
000082:                                                                                                  #  ADDITIONAL ASSUMPTION THAT NET MASS-FLOW
000083:                                                                                                  #  RATE = 5.299 KG/SEC = 5.135 (APS) +
000084:                                                                                                  #  .164 (1 RCS JET).
000085: 30,2000                                           SETLOC   ASENT
000086: 30,2000                                           BANK
000087: 30,2000                                           COUNT*   $$/ASENT
000088: 30,2000           02445 00274  AT/RCS             2DEC     .0000785   B+10                       #  4 JETS IN A DRY LEM
000089:
000090: 33,2000                                           SETLOC   SERVICES
000091: 33,2000                                           BANK
000092: 33,2000                                           COUNT*   $$/SERV
000093:
000094:                                                                                                  #  *** THE ORDER OF THE FOLLOWING TWO CONSTANTS MUST NOT BE CHANGED *******
000095:
000096: 33,2000           41545        APSVEX             DEC      -3030      E-2        B-5             #  9942 FT/SEC IN M/CS.
000097: 33,2001           42341        DPSVEX             DEC*     -2.95588868 E+1        B-05*           #          VE (DPS) +2.95588868E+ 3
000098:                                                                                                  #  ************************************************************************
000099:
000100: 31,2000                                           SETLOC   F2DPS*31
000101: 31,2000                                           BANK
000102: 31,2000                                           COUNT*   $$/F2DPS
000103:
000104: 31,2000           00222 33316  TRIMACCL           2DEC*    +3.50132708 E-5        B+08*           #          A (T)    +3.50132708E- 1
000105:


000107:                                                                                                  #  THROTTLING AND THRUST DETECTION PARAMETERS
000108:
000109: 36,2000                                           SETLOC   P40S
000110: 36,2000                                           BANK
000111: 36,2022                                           COUNT*   $$/P40
000112:
000113: 36,2022           00030        THRESH1            DEC      24         B-14
000114:
000115: 36,2023           00014        THRESH3            DEC      12         B-14
000116:
000117: 36,2024     4730               HIRTHROT           =        BIT13
000118:
000119:    6000                                           SETLOC   FFTAG5
000120:    6000                                           BANK
000121:    6000                                           COUNT*   $$/P40
000122:
000123:    6000           00464        THRESH2            DEC      308        B-14
000124:
000125: 31,2000                                           SETLOC   FTHROT
000126: 31,2000                                           BANK
000127: 31,2002                                           COUNT*   $$/THROT
000128:
000129: 31,2002           07401        FMAXODD            DEC      +3841      B-14                       #  FSAT          +4.81454413 E+ 4
000130: 31,2003           06613        FMAXPOS            DEC      +3467      B-14                       #  FMAX          +4.34546769 E+ 4
000131: 31,2004           00010        THROTLAG           DEC      +8         B-14                       #  TAU (TH)       +0.08 SECONDS
000132: 31,2005           00307 17534  SCALEFAC           2DEC*    +7.97959872 E+2        B-16*           #  BITPERF       +7.97959872 E- 2
000133:
000134: 32,2000                                           SETLOC   F2DPS*32
000135: 32,2000                                           BANK
000136: 32,2000                                           COUNT*   $$/F2DPS
000137:
000138: 32,2000           00044        DPSTHRSH           DEC      36         B-14                       #  (THRESH1 + THRESH3 FOR P63)
000139:


000141:                                                                                                  #  LM HARDWARE-RELATED PARAMETERS
000142:
000143: 25,2000                                           SETLOC   RADARUPT
000144: 25,2000                                           BANK
000145: 25,2000                                           COUNT*   $$/RRUPT
000146:
000147: 25,2000           47777        LVELBIAS           DEC      -12288     B-14                       #  LANDING RADAR BIAS FOR 153.6 KC.
000148: 25,2001           00001 01150  RDOTBIAS           2DEC     17000      B-28                       #  BIAS COUNT FOR RR RANGE RATE.
000149: 32,2000                                           SETLOC   LRS22
000150: 32,2000                                           BANK
000151: 32,2001                                           COUNT*   $$/LRS22
000152:
000153: 32,2001           70123 40702  RDOTCONV           2DEC     -.0019135344 B7                         #  CONVERTS RR RDOT READING TO M/CS AT 2(7)
000154: 32,2003           13337 10776  RANGCONV           2DEC     2.859024   B-3                        #  CONVERTS RR RANGE READING TO M. AT 2(-29
000155: 33,2000                                           SETLOC   SERVICES
000156: 33,2000                                           BANK
000157: 33,2002                                           COUNT*   $$/SERV
000158:
000159: 33,2002           51102 42414  HBEAMNB            2DEC     -0.7147168647                            #  POS 1 ALT BEAM IN NAV BASE COORDINATES
000160: 33,2004           75522 46002                     2DEC     -0.0731086602
000161: 33,2006           51573 62362                     2DEC     -0.6955824372
000162:
000163: 33,2010           62770 40667  VZBEAMNB           2DEC     -0.4067366430                            #  POS 1 VZ  BEAM
000164: 33,2012           03034 21031                     2DEC     +0.0954915028
000165: 33,2014           35045 21077                     2DEC     +0.9085409600
000166:
000167: 33,2016           00000 00000  VYBEAMNB           2DEC     +0.0                                  #  POS 1 VY  BEAM
000168: 33,2020           37646 07712                     2DEC     +0.9945218954
000169: 33,2022           74517 54765                     2DEC     -0.1045284632
000170:
000171: 33,2024           35167 20727  VXBEAMNB           2DEC     +0.9135454576                            #  POS 1 VX  BEAM
000172: 33,2026           01270 22313                     2DEC     +0.0425155563
000173: 33,2030           14743 16747                     2DEC     +0.4045084971
000174:


000176: 33,2032           42001 62422                     2DEC     -0.9374036070                            #  POS 2 ALT BEAM
000177: 33,2034           76653 63102                     2DEC     -0.0364014993
000178: 33,2036           64725 63461                     2DEC     -0.3463371311
000179:
000180: 33,2040           00000 00000                     2DEC     +0.0                                  #  POS 2 VZ  BEAM
000181: 33,2042           03260 23012                     2DEC     +0.1045284632
000182: 33,2044           37646 07712                     2DEC     +0.9945218954
000183:
000184: 33,2046           00000 00000                     2DEC     +0.0                                  #  POS 2 VY  BEAM
000185: 33,2050           37646 07712                     2DEC     +0.9945218954
000186: 33,2052           74517 54765                     2DEC     -0.1045284632
000187:
000188: 33,2054           37777 37777                     2DEC     +0.9999999999                            #  POS 2 VX  BEAM
000189: 33,2056           00000 00000                     2DEC     +0.0
000190: 33,2060           00000 00000                     2DEC     +0.0
000191:
000192:
000193: 33,2062           65363 64451  HSCAL              2DEC     -.3288792                             #  SCALES 1.079 FT/BIT TO 2(22)M.
000194:
000195:                                                                                                  #  ***** THE SEQUENCE OF THE FOLLOWING CONSTANTS MUST BE PRESERVED ********
000196:
000197: 33,2064           21241 03216  VZSCAL             2DEC     +.5410829105                            #  SCALES .8668 FT/SEC/BIT TO 2(18) M/CS.
000198: 33,2066           30153 23101  VYSCAL             2DEC     +.7565672446                            #  SCALES 1.212 FT/SEC/BIT TO 2(18) M/CS.
000199: 33,2070           63105 61733  VXSCAL             2DEC     -.4020043770                            #  SCALES -.644 FT/SEC/BIT TO 2(18) M/CS.
000200:                                                                                                  #  ************************************************************************
000201:
000202: 33,2072           01507        KPIP               DEC      .0512                                 #  SCALES DELV TO UNITS OF 2(5) M/CS.
000203: 33,2073           00321 26706  KPIP1              2DEC     .0128                                 #  SCALES DELV TO UNITS OF 2(7) M/CS.
000204: 33,2075           00150 33343  KPIP2              2DEC     .0064                                 #  SCALES DELV TO UNITS OF 2(8) M/CS.
000205: 21,2000                                           SETLOC   R10
000206:


000208: 21,2000                                           BANK
000209: 21,2000                                           COUNT*   $$/R10
000210:
000211: 21,2000           01507        LANAKPIP           DEC      .0512                                 #  SCALES PIPAS TO UNITS OF 2(5) M/CS
000212: 21,2001           00466        MAXVEL             OCT      00466                                 #  198.645 F/S IN UNITS OF 2(5) M/CS
000213: 21,2002           01034        MAXDBITS           OCT      01034                                 #  ABOUT 300 F/S
000214: 21,2003           01115        VELCONV            DEC      .03594                                #  SCALES VFL AT ONE M/CS TO .5571 F/S/BIT
000215: 21,2004           05101        ALTRCONV           DEC      .16020                                #  SCALES ALTR AT 2(2) M/CS TO .5 F/S/BIT
000216: 21,2005           26305        ALTCONV            DEC      .69954                                #  SCALES ALTITUDE AT 2(15) M TO 9.38 F/BIT
000217:
000218: 20,2000                                           SETLOC   DAPS3
000219: 20,2000                                           BANK
000220: 20,2000                                           COUNT*   $$/DAPAO
000221:
000222: 20,2000           01150        TORKJET1           DEC      .03757                                #  550 / .2 SCALED AT (+16) 64 / 180
000223:


000225:                                                                                                  #  PARAMETERS RELATING TO MASS, INERTIA, AND VEHICLE DIMENSTIONS
000226:
000227: 05,2000                                           SETLOC   FRANDRES
000228: 05,2000                                           BANK
000229: 05,2000                                           COUNT*   $$/START
000230:
000231: 05,2000           02357        FULLAPS            DEC      5050       B-16                       #  NOMINAL FULL ASCENT MASS -- 2(16) KG.
000232:
000233: 01,2000                                           SETLOC   LOADDAP1
000234: 01,2000                                           BANK
000235: 01,2000                                           COUNT*   $$/R03
000236:
000237: 01,2000           75675        MINLMD             DEC      -4360      B-16                       #  MIN. UNSTAGED MASS (6560 KG) - MINMINLM
000238:                                                                                                  #    2(16) KG.
000239: 01,2001           76731        MINMINLM           DEC      -2200      B-16                       #  MIN ASCENT STAGE MASS -- 2(16) KG.
000240: 01,2002     4732               MINCSM             =        BIT11                                 #  MIN CSM MASS (OK FOR 1/AGCS) = 9050 LBS
000241:
000242: 20,2000                                           SETLOC   DAPS3
000243: 20,2000                                           BANK
000244: 20,2001                                           COUNT*   $$/DAPAO
000245:
000246: 20,2001           01046        LOASCENT           DEC      2200       B-16                       #  MIN ASCENT LEM MASS -- 2(16) KG.
000247: 20,2002           10117        HIDESCNT           DEC      16700      B-16                       #  MAX DESCENT LEM MASS -- 2(16) KG.
000248: 20,2003           01174        LODESCNT           DEC      2542       B-16                       #  MIN DESCENT STAGE (ALONE) -- 2(16) KG
000249:


000251:                                                                                                  #  PHYSICAL CONSTANTS ( TIME - INVARIANT )
000252:
000253: 37,2000                                           SETLOC   IMU2
000254: 37,2000                                           BANK
000255: 37,2000                                           COUNT*   $$/P07
000256:
000257: 37,2000           07623 26552  OMEG/MS            2DEC     .24339048
000258:
000259: 22,2000                                           SETLOC   R30LOC
000260: 22,2000                                           BANK
000261: 22,2000                                           COUNT*   $$/R30
000262:
000263:                                                                                                  #  *** THE ORDER OF THE FOLLOWING TWO CONSTANTS MUST BE PRESERVED *********
000264:
000265: 22,2000           27533 07571  1/RTMUM            2DEC*    .45162595  E-4        B14*
000266: 22,2002           25004 06702  1/RTMUE            2DEC*    .50087529  E-5        B17*
000267:                                                                                                  #  ************************************************************************
000268:
000269: 27,2000                                           SETLOC   P40S1
000270: 27,2000                                           BANK
000271: 27,2022                                           COUNT*   $$/S40.9
000272:
000273: 27,2022           55340 61710  EARTHMU            2DEC*    -3.986032  E10        B-36*           #  M(3)/CS(2)
000274:
000275: 27,2000                                           SETLOC   ASENT1
000276: 27,2000                                           BANK
000277: 27,2024                                           COUNT*   $$/P12
000278:
000279: 27,2024           00072 16206  MUM(-37)           2DEC*    4.9027780  E8         B-37*
000280: 27,2026           00344 24331  MOONRATE           2DEC*    .26616994890062991 E-7        B+19*           #  RAD/CS.
000281:
000282: 33,2000                                           SETLOC   SERVICES
000283: 33,2000                                           BANK
000284: 33,2077                                           COUNT*   $$/SERV
000285:
000286:                                                                                                  #  *** THE ORDER OF THE FOLLOWING TWO CONSTANTS MUST BE PRESERVED *********
000287:
000288: 33,2077           61377 55754  -MUDT              2DEC*    -7.9720645 E+12       B-44*
000289: 33,2101           77644 65556  -MUDT1             2DEC*    -9.8055560 E+10       B-44*
000290:                                                                                                  #  ************************************************************************
000291:
000292: 33,2103           64453 55670  -MUDTMUN           2DEC*    -9.8055560 E+10       B-38*
000293: 33,2105           00002 11777  RESQ               2DEC*    40.6809913 E12        B-58*
000294:


000296: 33,2107           01023 37155  20J                2DEC     3.24692010 E-2
000297: 33,2111           00065 06244  2J                 2DEC     3.24692010 E-3
000298:
000299: 14,2000                                           SETLOC   P50S1
000300: 14,2000                                           BANK
000301: 14,2000                                           COUNT*   $$/LOSAM
000302:
000303: 14,2000           26723 00450  RSUBEM             2DEC     384402000  B-29
000304: 14,2002           00065 01265  RSUBM              2DEC     1738090    B-29
000305: 14,2004           00302 24533  RSUBE              2DEC     6378166    B-29
000306: 14,2006           00052 04047  ROE                2DEC     .00257125
000307:
000308: 04,2000                                           SETLOC   CONICS1
000309: 04,2000                                           BANK
000310: 04,2000                                           COUNT*   $$/LT-LG
000311:
000312: 04,2000           00302 17755  ERAD               2DEC     6373338    B-29                       #  PAD RADIUS
000313: 04,2002           00065 01265  504RM              2DEC     1738090    B-29                       #  METERS B-29 (EQUATORIAL MOON RADIUS)
000314:
000315: 04,2000                                           SETLOC   CONICS1
000316: 04,2000                                           BANK
000317: 04,2004                                           COUNT*   $$/CONIC
000318:
000319:                                                                                                  #  *** THE ORDER OF THE FOLLOWING CONSTANTS MUST BE PRESERVED *************
000320:
000321: 04,2004           22437 16067  MUTABLE            2DEC*    3.986032   E10        B-36*           #  MUE
000322: 04,2006           15625 21042                     2DEC*    .25087606  E-10       B+34*           #  1/MUE
000323: 04,2010           30276 04773                     2DEC*    1.99650495 E5         B-18*           #  SQRT(MUE)
000324: 04,2012           25004 06702                     2DEC*    .50087529  E-5        B+17*           #  1/SQRT(MUE)
000325:
000326:
000327: 04,2014           16471 01352                     2DEC*    4.902778   E8         B-30*           #  MUM
000328: 04,2016           21412 20500                     2DEC*    .203966    E-8        B+28*           #  1/MUM
000329: 04,2020           25477 03367                     2DEC*    2.21422176 E4         B-15*           #  SQRT(MUM)
000330: 04,2022           27533 07571                     2DEC*    .45162595  E-4        B+14*           #  1/SQRT(MUM)
000331:
000332:                                                                                                  #  ************************************************************************


000334: 13,2000                                           SETLOC   INTINIT
000335: 13,2000                                           BANK
000336: 13,2000                                           COUNT*   $$/INTIN
000337:
000338: 13,2000           07112 06620  OMEGMOON           2DEC*    2.66169947 E-8        B+23*
000339:
000340: 13,2000                                           SETLOC   ORBITAL2
000341: 13,2000                                           BANK
000342: 13,2002                                           COUNT*   $$/ORBIT
000343:
000344:                                                                                                  #  *** THE ORDER OF THE FOLLOWING CONSTANTS MUST NOT BE CHANGED ***********
000345:
000346: 13,2002           27446 14620                     2DEC*    1.32715445 E16        B-54*           #  S
000347: 13,2004           16471 01352  MUM                2DEC*    4.9027780  E8         B-30*           #  M
000348: 13,2006           22437 16067  MUEARTH            2DEC*    3.986032   E10        B-36*
000349: 13,2010           00000 00000                     2DEC     0          B-28
000350: 13,2012           02302 24736  J4REQ/J3           2DEC*    .4991607391 E7         B-26*
000351: 13,2014           77651 76237                     2DEC     -176236.02 B-25
000352: 13,2016           77776 53032  2J3RE/J2           2DEC*    -.1355426363 E5         B-27*
000353: 13,2020           10407 05344                     2DEC*    .3067493316 E18        B-60*
000354: 13,2022           13710 35320  J2REQSQ            2DEC*    1.75501139 E21        B-72*
000355: 13,2024           12160 12124  3J22R2MU           2DEC*    9.20479048 E16        B-58*
000356:                                                                                                  #  ************************************************************************
000357:
000358: 27,2000                                           SETLOC   TOF-FF1
000359: 27,2000                                           BANK
000360: 27,2030                                           COUNT*   $$/TFF
000361:
000362: 27,2030           24775 30424  1/RTMU             2DEC*    .5005750271 E-5        B17*            #  MODIFIED EARTH MU
000363:
000364: 42,2000                                           SETLOC   SBAND
000365: 42,2000                                           BANK
000366: 42,2000                                           COUNT*   $$/R05
000367:
000368: 42,2000           26723 00450  REMDIST            2DEC     384402000  B-29                       #  MEAN DISTANCE BETWEEN EARTH AND MOON.
000369:


000371:                                                                                                  #  PHYSICAL CONSTANTS (TIME - VARIANT)
000372:
000373: 14,2000                                           SETLOC   STARTAB
000374: 14,2000                                           BANK
000375: 14,2010                                           COUNT*   $$/STARS
000376:
000377: 14,2010           15264 07253                     2DEC     +.8345006310 B-1                        #  STAR 37       X
000378: 14,2012           74133 45130                     2DEC     -.2388718657 B-1                        #  STAR 37       Y
000379: 14,2014           70034 53644                     2DEC     -.4965369357 B-1                        #  STAR 37       Z
000380:
000381: 14,2016           15015 35262                     2DEC     +.8141988673 B-1                        #  STAR 36       X
000382: 14,2020           67072 57521                     2DEC     -.5553601830 B-1                        #  STAR 36       Y
000383: 14,2022           02552 27310                     2DEC     +.1692786800 B-1                        #  STAR 36       Z
000384:
000385: 14,2024           07210 34714                     2DEC     +.4542117996 B-1                        #  STAR 35       X
000386: 14,2026           67300 47414                     2DEC     -.5390337930 B-1                        #  STAR 35       Y
000387: 14,2030           13262 27671                     2DEC     +.7093195408 B-1                        #  STAR 35       Z
000388:
000389: 14,2032           05101 34175                     2DEC     +.3205423120 B-1                        #  STAR 34       X
000390: 14,2034           70717 46031                     2DEC     -.4434583652 B-1                        #  STAR 34       Y
000391: 14,2036           62467 45023                     2DEC     -.8370169081 B-1                        #  STAR 34       Z
000392:
000393: 14,2040           10655 16340                     2DEC     +.5524232365 B-1                        #  STAR 33       X
000394: 14,2042           63237 45012                     2DEC     -.7930716636 B-1                        #  STAR 33       Y
000395: 14,2044           73711 62337                     2DEC     -.2566435348 B-1                        #  STAR 33       Z
000396:
000397: 14,2046           07207 34100                     2DEC     +.4540867784 B-1                        #  STAR 32       X
000398: 14,2050           61751 60311                     2DEC     -.8777450759 B-1                        #  STAR 32       Y
000399: 14,2052           02344 11437                     2DEC     +.1528685033 B-1                        #  STAR 32       Z
000400:
000401: 14,2054           03243 10132                     2DEC     +.2074286490 B-1                        #  STAR 31       X
000402: 14,2056           62031 55616                     2DEC     -.8718956797 B-1                        #  STAR 31       Y
000403: 14,2060           70716 43617                     2DEC     -.4435890882 B-1                        #  STAR 31       Z
000404:
000405: 14,2062           01747 01335                     2DEC     +.1219537054 B-1                        #  STAR 30       X
000406: 14,2064           63532 54217                     2DEC     -.7702168243 B-1                        #  STAR 30       Y
000407:


000409: 14,2066           12010 11614                     2DEC     +.6260138474 B-1                        #  STAR 30       Z
000410:
000411: 14,2070           76152 45651                     2DEC     -.1120382967 B-1                        #  STAR 29       X
000412: 14,2072           60371 57632                     2DEC     -.9695442116 B-1                        #  STAR 29       Y
000413: 14,2074           03370 03556                     2DEC     +.2177876068 B-1                        #  STAR 29       Z
000414:
000415: 14,2076           76127 67425                     2DEC     -.1142900725 B-1                        #  STAR 28       X
000416: 14,2100           72436 61577                     2DEC     -.3400201762 B-1                        #  STAR 28       Y
000417: 14,2102           61041 46271                     2DEC     -.9334474056 B-1                        #  STAR 28       Z
000418:
000419: 14,2104           72303 40213                     2DEC     -.3511952476 B-1                        #  STAR 27       X
000420: 14,2106           62637 74356                     2DEC     -.8242322268 B-1                        #  STAR 27       Y
000421: 14,2110           70711 46567                     2DEC     -.4441881743 B-1                        #  STAR 27       Z
000422:
000423: 14,2112           67366 44175                     2DEC     -.5324545035 B-1                        #  STAR 26       X
000424: 14,2114           64424 41241                     2DEC     -.7163035719 B-1                        #  STAR 26       Y
000425: 14,2116           07156 23036                     2DEC     +.4510004372 B-1                        #  STAR 26       Z
000426:
000427: 14,2120           63330 75735                     2DEC     -.7860186221 B-1                        #  STAR 25       X
000428: 14,2122           67512 62476                     2DEC     -.5221457573 B-1                        #  STAR 25       Y
000429: 14,2124           05227 10611                     2DEC     +.3309660611 B-1                        #  STAR 25       Z
000430:
000431: 14,2126           64757 51701                     2DEC     -.6895375091 B-1                        #  STAR 24       X
000432: 14,2130           71233 53334                     2DEC     -.4185354938 B-1                        #  STAR 24       Y
000433: 14,2132           66425 76017                     2DEC     -.5910719617 B-1                        #  STAR 24       Z
000434:
000435: 14,2134           66546 64151                     2DEC     -.5812217481 B-1                        #  STAR 23       X
000436: 14,2136           73256 65757                     2DEC     -.2911759648 B-1                        #  STAR 23       Y
000437: 14,2140           14120 32444                     2DEC     +.7598669864 B-1                        #  STAR 23       Z
000438:
000439: 14,2142           61251 56124                     2DEC     -.9168160791 B-1                        #  STAR 22       X
000440: 14,2144           72307 65764                     2DEC     -.3506241694 B-1                        #  STAR 22       Y
000441: 14,2146           74742 65735                     2DEC     -.1910784362 B-1                        #  STAR 22       Z
000442:


000444: 14,2150           70607 77742                     2DEC     -.4521486548 B-1                        #  STAR 21       X
000445: 14,2152           77151 74615                     2DEC     -.0495728431 B-1                        #  STAR 21       Y
000446: 14,2154           61600 60003                     2DEC     -.8905639377 B-1                        #  STAR 21       Z
000447:
000448: 14,2156           60605 64345                     2DEC     -.9524366380 B-1                        #  STAR 20       X
000449: 14,2160           77026 54200                     2DEC     -.0597677121 B-1                        #  STAR 20       Y
000450: 14,2162           73160 42475                     2DEC     -.2988181236 B-1                        #  STAR 20       Z
000451:
000452: 14,2164           60430 66614                     2DEC     -.9657334280 B-1                        #  STAR 19       X
000453: 14,2166           00653 13072                     2DEC     +.0521664164 B-1                        #  STAR 19       Y
000454: 14,2170           04042 27232                     2DEC     +.2542392790 B-1                        #  STAR 19       Z
000455:
000456: 14,2172           62162 44274                     2DEC     -.8610673209 B-1                        #  STAR 18       X
000457: 14,2174           07322 33165                     2DEC     +.4632386329 B-1                        #  STAR 18       Y
000458: 14,2176           03265 32741                     2DEC     +.2096974909 B-1                        #  STAR 18       Z
000459:
000460: 14,2200           63467 50064                     2DEC     -.7745052221 B-1                        #  STAR 17       X
000461: 14,2202           11655 11373                     2DEC     +.6149043688 B-1                        #  STAR 17       Y
000462: 14,2204           75477 77366                     2DEC     -.1484394758 B-1                        #  STAR 17       Z
000463:
000464: 14,2206           70425 51217                     2DEC     -.4661511162 B-1                        #  STAR 16       X
000465: 14,2210           07505 32504                     2DEC     +.4772744503 B-1                        #  STAR 16       Y
000466: 14,2212           13726 15341                     2DEC     +.7449243154 B-1                        #  STAR 16       Z
000467:
000468: 14,2214           72157 66255                     2DEC     -.3613649782 B-1                        #  STAR 15       X
000469: 14,2216           11142 32737                     2DEC     +.5745656444 B-1                        #  STAR 15       Y
000470: 14,2220           64200 43016                     2DEC     -.7343634472 B-1                        #  STAR 15       Z
000471:
000472: 14,2222           71316 64201                     2DEC     -.4122762536 B-1                        #  STAR 14       X
000473: 14,2224           16400 36737                     2DEC     +.9063680102 B-1                        #  STAR 14       Y
000474: 14,2226           01364 14350                     2DEC     +.0923326629 B-1                        #  STAR 14       Z
000475:
000476: 14,2230           75051 60001                     2DEC     -.1824340636 B-1                        #  STAR 13       X
000477:


000479: 14,2232           17027 31661                     2DEC     +.9404062129 B-1                        #  STAR 13       Y
000480: 14,2234           73321 43422                     2DEC     -.2869738089 B-1                        #  STAR 13       Z
000481:
000482: 14,2236           77007 51442                     2DEC     -.0616090080 B-1                        #  STAR 12       X
000483: 14,2240           11514 32502                     2DEC     +.6031289258 B-1                        #  STAR 12       Y
000484: 14,2242           63215 47106                     2DEC     -.7952608559 B-1                        #  STAR 12       Z
000485:
000486: 14,2244           02140 02335                     2DEC     +.1367280274 B-1                        #  STAR 11       X
000487: 14,2246           12716 12356                     2DEC     +.6814364033 B-1                        #  STAR 11       Y
000488: 14,2250           13401 37404                     2DEC     +.7189922632 B-1                        #  STAR 11       Z
000489:
000490: 14,2252           03154 15267                     2DEC     +.2007345455 B-1                        #  STAR 10       X
000491: 14,2254           17403 01743                     2DEC     +.9691236271 B-1                        #  STAR 10       Y
000492: 14,2256           75552 76050                     2DEC     -.1431958012 B-1                        #  STAR 10       Z
000493:
000494: 14,2260           05465 17001                     2DEC     +.3502769546 B-1                        #  STAR 9        X
000495: 14,2262           16221 27572                     2DEC     +.8927907521 B-1                        #  STAR 9        Y
000496: 14,2264           04420 14273                     2DEC     +.2832502918 B-1                        #  STAR 9        Z
000497:
000498: 14,2266           06440 11323                     2DEC     +.4101921571 B-1                        #  STAR 8        X
000499: 14,2270           07767 30366                     2DEC     +.4989947555 B-1                        #  STAR 8        Y
000500: 14,2272           14155 23047                     2DEC     +.7633784305 B-1                        #  STAR 8        Z
000501:
000502: 14,2274           13176 03307                     2DEC     +.7028937840 B-1                        #  STAR 7        X
000503: 14,2276           13247 03342                     2DEC     +.7078988678 B-1                        #  STAR 7        Y
000504: 14,2300           01070 26607                     2DEC     +.0694227718 B-1                        #  STAR 7        Z
000505:
000506: 14,2302           10557 32115                     2DEC     +.5448995598 B-1                        #  STAR 6        X
000507: 14,2304           10404 00124                     2DEC     +.5317389073 B-1                        #  STAR 6        Y
000508: 14,2306           65500 72703                     2DEC     -.6483349473 B-1                        #  STAR 6        Z
000509:
000510: 14,2310           00151 25431                     2DEC     +.0128995818 B-1                        #  STAR 5        X
000511: 14,2312           00077 37176                     2DEC     +.0078096205 B-1                        #  STAR 5        Y
000512:


000514: 14,2314           17777 02143                     2DEC     +.9998862988 B-1                        #  STAR 5        Z
000515:
000516: 14,2316           07675 02702                     2DEC     +.4918322686 B-1                        #  STAR 4        X
000517: 14,2320           03420 01470                     2DEC     +.2207092653 B-1                        #  STAR 4        Y
000518: 14,2322           62414 50541                     2DEC     -.8422520048 B-1                        #  STAR 4        Z
000519:
000520: 14,2324           07506 14361                     2DEC     +.4773424940 B-1                        #  STAR 3        X
000521: 14,2326           01674 36075                     2DEC     +.1168141178 B-1                        #  STAR 3        Y
000522: 14,2330           15736 21775                     2DEC     +.8709182540 B-1                        #  STAR 3        Z
000523:
000524: 14,2332           16745 13112                     2DEC     +.9342466124 B-1                        #  STAR 2        X
000525: 14,2334           02620 31757                     2DEC     +.1739271769 B-1                        #  STAR 2        Y
000526: 14,2336           73011 60052                     2DEC     -.3113400137 B-1                        #  STAR 2        Z
000527:
000528: 14,2340           15776 01237                     2DEC     +.8747608555 B-1                        #  STAR 1        X
000529: 14,2342           00330 35521                     2DEC     +.0264803244 B-1                        #  STAR 1        Y
000530: 14,2344           07573 21256                     2DEC     +.4838307948 B-1                        #  STAR 1        Z
000531:
000532: 14,2346           16004        CATLOG             DEC      7172       B-14
000533:                                                                                                  #  ************************************************************************
000534:
000535: 05,2000                                           SETLOC   EPHEM1
000536: 05,2000                                           BANK
000537: 05,2001                                           COUNT*   $$/EPHEM
000538:
000539: 05,2001           20000 00000  KONMAT             2DEC     1.0        B-1                        #        *************
000540: 05,2003           00000 00000                     2DEC     0          B-28                       #                    *
000541: 05,2005           00000 00000                     2DEC     0          B-28                       #                    *
000542: 05,2007           00000 00000                     2DEC     0          B-28                       #                    *
000543: 05,2011           16533 31537                     2DEC     .917456380 B-1*                       #  K1 = COS(OBL)
000544: 05,2013           77333 66677                     2DEC     -.035679339 B-1*                       #  K2 = SIN (OBL) SIN (IM) (-1)
000545: 05,2015           00000 00000                     2DEC     0          B-28                       #                    *
000546: 05,2017           06273 02330                     2DEC     .397836387 B-1*                       #  K3 = SIN (OBL)
000547:


000549: 05,2021           01242 01302                     2DEC*    .082280652 B-1*                       #  K4 = COS (OBL) SIN (IM)
000550: 15,2000                                           SETLOC   EPHEM
000551: 15,2000                                           BANK
000552: 15,2000           00040 36540  CSTODAY            2DEC     8640000    B-32                       #                * NOTE           *
000553: 15,2002           00002        RCB-13             OCT      00002                                 #                * TABLES CONTAIN *
000554: 15,2003           00000                           OCT      00000                                 #                * CONSTANTS FOR  *
000555: 04,2000                                           SETLOC   EPHEM2
000556: 04,2000                                           BANK
000557: 04,2024           22572 27325  RATESP             2DEC*    .036600997 B+4*                       #  LOMR
000558: 04,2026           01315 26266                     2DEC*    .002737803 B+4*                       #  LOSR
000559: 04,2030           77731 55144                     2DEC*    -.00014720 B+4*                       #  LONR
000560: 04,2032           21056 30515                     2DEC     .534104635                            #  LOMO
000561: 04,2034           10576 10326                     2DEC     .273331484                            #  LOSO
000562: 04,2036           34076 30363                     2DEC     .878830860                            #  LONO
000563: 05,2000                                           SETLOC   EPHEM1
000564: 05,2000                                           BANK
000565: 05,2023           01076 02200  VAL67              2DEC*    .017519236 B+1*                       #  AMOD
000566: 05,2025           00621 31256                     2DEC     .024523430                            #  AARG
000567: 05,2027           02245 06475                     2DEC*    .036291713 B+1*                       #  1/27
000568: 05,2031           00161 32301                     2DEC*    .003473642 B+1*                       #  BMOD
000569: 05,2033           21230 23473                     2DEC     .540564756                            #  BARG
000570: 05,2035           02000 00000                     2DEC*    .031250000 B+1*                       #  1/32
000571: 05,2037           00256 13014                     2DEC*    .005320572 B+1*                       #  CMOD
000572: 05,2041           77500 46146                     2DEC     -.011706923                            #  CARG
000573: 05,2043           00131 26730                     2DEC*    .002737925 B+1*                       #  1/365
000574:                                                                                                  #  ************************************************************************
000575:
000576:
000577: 26,2000                                           SETLOC   PLANTIN2
000578: 26,2000                                           BANK
000579: 26,2000                                           COUNT*   $$/LUROT
000580:
000581: 26,2000           17775 02052  COSI               2DEC*    9.996417320 E-1        B-1*            #  COS (5521.5 SEC.)
000582:


000584: 26,2002           00333 10374  SINI               2DEC*    2.676579050 E-2        B-1*            #  SIN (5521.5 SEC.)
000585: 26,2004           77665 42175  NODDOT             2DEC*    -1.703706128 E-11       B28*            #  REV/CSEC
000586: 26,2006           22211 00636  FDOT               2DEC*    4.253263471 E-9        B27*            #     REV/CSEC
000587: 26,2010           77777 77767  BDOT               2DEC*    -1.145529390 E-16       B28*            #  REV/CSEC
000588: 26,2012           34076 30363  NODIO              2DEC*    8.788308600 E-1        B               #   REV
000589: 26,2014           24760 00133  FSUBO              2DEC*    6.552737750 E-1        B               #   REV
000590: 26,2016           02052 35250  BSUBO              2DEC*    6.511941688 E-2        B               #   REV
000591: 26,2020           37116 32631  WEARTH             2DEC*    1.160576171 E-7        B23*            #     REV/CSEC
000592: 26,2022           30576 10326  AZO                2DEC*    7.733314844 E-1        B               #  REVS
000593:

End of include-file CONTROLLED_CONSTANTS.agc.  Parent file is MAIN.agc


