
Source Code


000002:                                                                                                  ## Copyright:   Public domain.
000003:                                                                                                  ## Filename:    DAPIDLER_PROGRAM.agc
000004:                                                                                                  ## Purpose:     A section of Luminary revision 210.
000005:                                                                                                  ##              It is part of the source code for the Lunar Module's (LM)
000006:                                                                                                  ##              Apollo Guidance Computer (AGC) for Apollo 15-17.
000007:                                                                                                  ##              This file is intended to be a faithful transcription, except
000008:                                                                                                  ##              that the code format has been changed to conform to the
000009:                                                                                                  ##              requirements of the yaYUL assembler rather than the
000010:                                                                                                  ##              original YUL assembler.
000011:                                                                                                  ## Reference:   pp. 1407-1418
000012:                                                                                                  ## Assembler:   yaYUL
000013:                                                                                                  ## Contact:     Ron Burkey <info@sandroid.org>.
000014:                                                                                                  ## Website:     www.ibiblio.org/apollo/index.html
000015:                                                                                                  ## Mod history: 2016-11-17 JL   Created from Luminary131 version.
000016:                                                                                                  ##              2016-12-07 RRB  Transcribed from Luminary210.
000017:                                                                                                  ##              2016-12-08 HG   Fix operand AGCINDIC -> AGSINDIC
000018:                                                                                                  ##              2016-12-11 HG   fix operand MOREIDLE -> NONEEDLE
000019:
000020:


000022:                                                                                                  #  THE DAPIDLER PROGRAM IS STARTED BY FRESH START AND RESTART.  THE DAPIDLER PROGRAM IS DONE 10 TIMES
000023:                                                                                                  #  PER SECOND UNTIL THE ASTRONAUT DESIRES THE DAP TO WAKE UP, AND THE IMU AND CDUS ARE READY FOR USE BY THE DAP.
000024:                                                                                                  #  THE NECESSARY INITIALIZATION OF THE DAP IS DONE BY THE DAPIDLER PROGRAM.
000025:
000026: 16,2000                                           BANK     16
000027: 16,2000                                           SETLOC   DAPS1
000028: 16,2000                                           BANK
000029:
000030: 16,2000  E6,1536                                  EBANK=   AOSQ
000031:
000032: 16,2000                                           COUNT*   $$/DAPID
000033:                                                                                                  #        CHECKBITS IS CALLED EVERY 0.1 SEC AT THE BEGINNING OF THE DAP PASS, WHETHER THE AUTOPILOT IS ACTIVE OR IDLING.
000034:                                                                                                  #  IT CHECKS FOR THE FOLLOWING
000035:                                                                                                  #                A. IS THE PGNCS MODE SELECT SWITCH TURNED TO "OFF"?
000036:                                                                                                  #                B. IS THE IMU UNAVAILABLE AS AN ATTITUDE REFERENCE?
000037:                                                                                                  #                C. HAS THE INDICATION GONE FROM AGS TO PGNCS SINCE LAST CHECKED
000038:                                                                                                  #        IF EITHER A OR B HOLD, THE FDAI ERROR NEEDLES MUST NOT BE UPDATED (TOAVOID CONFLICT OVER USE OF THE DACS WITH
000039:                                                                                                  #  V43 OR COARSE ALIGN) AND THE DAP MUST IDLE.  A BIT IS SET TO CAUSE  NEEDLER TO INITIALIZE ITSELF WHEN IT IS NEXT
000040:                                                                                                  #  CALLED AND CONTROL IS TRANSFERRED TO A SHORT IDLING ROUTINE.  OTHERWISE, THE NEEDLES ARE UPDATED AND CONDITION
000041:                                                                                                  #  "C" IS TESTED.
000042:
000043:                                                                                                  #        IF C HOLDS, THE DAP IS REINITIALIZED.  OTHERWISE, THE DAP SHOULD BE ACTIVE AND CONTROL IS TRANSFERRED BACK TO
000044:                                                                                                  #  THE CALLER OF CHECKBITS.
000045:
000046: 16,2000           00006        CHEKBITS           EXTEND
000047: 16,2001           00031                           READ     CHAN31                                #  IF BOTH BIT13 AND BIT14 ARE ONE, THEN
000048: 16,2002           40000                           COM                                            #  THE MODE SELECT SWITCH IS IN THE OFF
000049: 16,2003           74346                           MASK     BIT13-14                              #  POSITION, AND SO THE DAP SHOULD BE OFF,
000050: 16,2004           00006                           EXTEND                                         #  WITH NO ATTITUDE ERROR DISPLAY.
000051: 16,2005           12012                           BZF      NONEEDLE
000052:
000053: 16,2006           41300                           CS       IMODES33                              #  IF IMU NOT USABLE, DAP SHOULD IDLE WITH
000054: 16,2007           74737                           MASK     BIT6                                  #   NO FDAI DISPLAY.
000055: 16,2010           10000                           CCS      A
000056: 16,2011           12212                           TCF      JUMPDSP
000057: 16,2012           41774        NONEEDLE           CS       RCSFLAGS                              #  SET FLAG TO INITIALIZE NEEDLE DISPLAY.
000058: 16,2013           74742                           MASK     BIT3
000059: 16,2014           27774                           ADS      RCSFLAGS
000060: 16,2015           12164                           TCF      SHUTDOWN
000061:
000062: 16,2016           34733        CHEKMORE           CAF      BIT10                                 #  BIT 10 OF 30 IS PGNCS CONTROL OF S/C
000063: 16,2017           00006                           EXTEND
000064: 16,2020           02030                           RAND     CHAN30                                #  BITS IN 30 ARE INVERTED
000065: 16,2021           10000                           CCS      A
000066: 16,2022           12033                           TCF      AGSINDIC                              #  AGS: GO SET NPGNCSFL BUT CONTROL ANYHOW.
000067: 16,2023           40106                           CS       FLGWRD10
000068: 16,2024           74744                           MASK     NPGNCSBT
000069: 16,2025           10000                           CCS      A
000070: 16,2026           00002                           RETURN                                         #  PGNCS BOTH LAST TIME & THIS: GO CONTROL.
000071:


000073: 16,2027           44744                           CS       NPGNCSBT                              #  PGNCS THIS TIME BUT AGS LAST: CLEAR
000074: 16,2030           70106                           MASK     FLGWRD10                              #    NPGNCSFL AND GO INITIALIZE DAP.
000075: 16,2031           54106                           TS       FLGWRD10
000076: 16,2032           12043                           TCF      STARTDP1
000077:
000078: 16,2033           40106        AGSINDIC           CS       FLGWRD10
000079: 16,2034           74744                           MASK     NPGNCSBT
000080: 16,2035           26106                           ADS      FLGWRD10
000081: 16,2036           00002                           RETURN
000082:


000084:
000085:                                                                                                  #  DAPIDLER ENTRY.
000086:
000087: 16,2037           22016        DAPIDLER           LXCH     BANKRUPT                              #  INTERRUPT LEAD INS (CONTINUED)
000088: 16,2040           00006                           EXTEND
000089: 16,2041           22012                           QXCH     QRUPT
000090:
000091: 16,2042           02000        CHECKUP            TC       CHEKBITS                              #  CHECK TO SEE IF LM DAP IS TO GO ON AND
000092:                                                                                                  #        DO ERROR DISPLAY.
000093:
000094: 16,2043           30111        STARTDP1           CAE      DAPBOOLS                              #  IF 1/ACCS HAS NOT BEEN COMPLETED, IDLE.
000095: 16,2044           74742                           MASK     ACCSOKAY                              #        NOTE:   ONLY FRESH START AND RESTART
000096: 16,2045           00006                           EXTEND                                         #                KNOCK THIS BIT DOWN.
000097: 16,2046           12160                           BZF      MOREIDLE
000098:
000099: 16,2047           04665        STARTDAP           TC       IBNKCALL                              #  ZERO ATTITUDE ERROR AND DESIRED RATES.
000100: 16,2050           40154                           FCADR    ZATTEROR
000101: 16,2051           34746                           CAF      ZERO                                  #  ************ INITIALIZE: *************
000102: 16,2052           55524                           TS       TJP
000103: 16,2053           55525                           TS       TJU
000104: 16,2054           55526                           TS       TJV
000105: 16,2055           55421                           TS       OMEGAP                                #  RATES IN BODY (PILOT) COORDINATES.
000106: 16,2056           55422                           TS       OMEGAQ
000107: 16,2057           55423                           TS       OMEGAR
000108: 16,2060           55430                           TS       TRAPEDP
000109: 16,2061           55431                           TS       TRAPEDQ
000110: 16,2062           55432                           TS       TRAPEDR
000111: 16,2063           55536                           TS       AOSQ                                  #  OFFSET ACCELERATION ESTIMATES.
000112: 16,2064           55537                           TS       AOSQ       +1
000113: 16,2065           55540                           TS       AOSR
000114: 16,2066           55541                           TS       AOSR       +1
000115: 16,2067           55424                           TS       ALPHAQ                                #  COPIES OF OFFSET ESTIMATES FOR DOWNLIST.
000116: 16,2070           55425                           TS       ALPHAR
000117: 16,2071           55501                           TS       NEGUQ
000118: 16,2072           55503                           TS       NEGUR
000119: 16,2073           55544                           TS       AOSQTERM                              #  QRAXIS RATE DERIVATION TERMS AND KALMAN
000120: 16,2074           55545                           TS       AOSRTERM                              #  FILTER INITIALIZATION TERMS.
000121: 16,2075           55510                           TS       QACCDOT                               #  DESCENT ACCELERATION DERIVATIVE EST.
000122: 16,2076           55512                           TS       RACCDOT
000123: 16,2077           55502                           TS       ALLOWGTS                              #  AOSTASK FLAG FOR QRAXIS RCS CONTROL USE.
000124: 16,2100           55630                           TS       COTROLER                              #  DO TRYGTS ON FIRST PASS (WILL GO TO RCS)
000125: 16,2101           55632                           TS       INGTS                                 #  RECOGNIZE FIRST GTS PASS AS SUCH.
000126: 16,2102           55631                           TS       QGIMTIMR                              #  STOP GIMBAL DRIVES.  (PROBABLY WOULD BE
000127: 16,2103           55633                           TS       RGIMTIMR                              #        GOOD ENOUGH JUST TO INACTIVATE TIMERS)
000128: 16,2104           55460                           TS       OLDPMIN                               #  MINIMUM IMPULSE MODE ERASABLES
000129: 16,2105           55461                           TS       OLDQRMIN
000130: 16,2106           55766                           TS       PJETCTR                               #  INITIALIZE DOCKED JET INHIBITION
000131: 16,2107           55767                           TS       UJETCTR                               #  COUNTERS
000132: 16,2110           55770                           TS       VJETCTR
000133: 16,2111     4740               CALLGMBL           EQUALS   BIT5                                  #  RCSFLAGS INITIALIZATION.
000134: 16,2111           42206                           CS       MANFLAG


000136: 16,2112           71774                           MASK     RCSFLAGS                              #  NEGUQ(R) HAVE BEEN GENERATED.
000137: 16,2113           55774                           TS       RCSFLAGS
000138:
000139:                                                                                                  #  SET UP "OLD" MEASURED CDU ANGLES:
000140:
000141: 16,2114           00006                           EXTEND
000142: 16,2115           30033                           DCA      CDUX                                  #  OLDXFORP AND OLDYFORP
000143: 16,2116           53441                           DXCH     OLDXFORP
000144: 16,2117           30034                           CA       CDUZ
000145: 16,2120           55442                           TS       OLDZFORQ
000146: 16,2121           41774                           CS       RCSFLAGS
000147: 16,2122           74731                           MASK     BIT12
000148: 16,2123           27774                           ADS      RCSFLAGS                              #  BIT 12 SET TO 1.
000149: 16,2124           34742                           CA       FOUR
000150: 16,2125           55534                           TS       SKIPU
000151: 16,2126           55535                           TS       SKIPV
000152: 16,2127           34724                           CA       POSMAX
000153: 16,2130           54031                           TS       TIME6
000154: 16,2131           55466                           TS       T6NEXT
000155: 16,2132           55470                           TS       T6FURTHA
000156: 16,2133           34746                           CA       ZERO
000157: 16,2134           55467                           TS       T6NEXT     +1
000158: 16,2135           55471                           TS       T6FURTHA   +1
000159: 16,2136           55465                           TS       NXT6ADR
000160: 16,2137           55472                           TS       NEXTP
000161: 16,2140           55473                           TS       NEXTU
000162: 16,2141           55474                           TS       NEXTV
000163: 16,2142           44354                           CS       TEN
000164: 16,2143           55756                           TS       DAPZRUPT                              #  JASK NOT IN PROGRESS, INITIALIZE NEG.
000165: 16,2144           34743                           CA       TWO
000166: 16,2145           55433                           TS       NPTRAPS
000167: 16,2146           55434                           TS       NQTRAPS
000168: 16,2147           55435                           TS       NRTRAPS
000169: 16,2150           00006                           EXTEND
000170: 16,2151           32211                           DCA      PAXADIDL
000171: 16,2152           53263                           DXCH     T5ADR
000172: 16,2153           37750        SETTIME5           CAF      MS100
000173: 16,2154           54030                           TS       TIME5
000174: 16,2155           15272                           TCF      RESUME
000175: 16,2156  E6,1536                                  EBANK=   AOSQ
000176: 16,2156           02037 34106  IDLERADR           2CADR    DAPIDLER
000177:
000178: 16,2160           04665        MOREIDLE           TC       IBNKCALL                              #  CALCULATE Q,R-AXES ATTITUDE ERRORS.
000179: 16,2161           36655                           CADR     QERRCALC
000180:
000181: 16,2162           04665                           TC       IBNKCALL
000182: 16,2163           35447                           CADR     CALCPERR                              #  CALCULATE P AXIS ATTITUDE ERRORS.
000183:
000184: 16,2164           00006        SHUTDOWN           EXTEND
000185: 16,2165           32157                           DCA      IDLERADR


000187: 16,2166           53263                           DXCH     T5ADR
000188:
000189: 16,2167           34746                           CAF      ZERO                                  #  KILL ANY POSSIBLE JET REQUESTS
000190: 16,2170           55472                           TS       NEXTP
000191: 16,2171           55473                           TS       NEXTU
000192: 16,2172           55474                           TS       NEXTV
000193: 16,2173           00006                           EXTEND                                         #  COMMAND JETS OFF.
000194: 16,2174           01005                           WRITE    CHAN5
000195: 16,2175           00006                           EXTEND
000196: 16,2176           01006                           WRITE    CHAN6
000197: 16,2177           42207                           CS       BGIM23                                #  TURN TRIM GIMBAL OFF
000198: 16,2200           00006                           EXTEND
000199: 16,2201           03012                           WAND     CHAN12
000200: 16,2202           44743                           CS       CONTRLBT
000201: 16,2203           70106                           MASK     FLGWRD10                              #  CLEAR FLAG TO CAUSE THE NO CONTROL DSKY
000202: 16,2204           54106                           TS       FLGWRD10                              #   LIGHT TO BE LIT BY T4RUPT.
000203: 16,2205           12153                           TCF      SETTIME5                              #  RETURN IN 100 MSEC.
000204:
000205: 16,2206           03021        MANFLAG            OCT      03021
000206: 16,2207           07400        BGIM23             OCTAL    07400
000207: 16,2210  E6,1421                                  EBANK=   OMEGAP
000208: 16,2210           02217 34106  PAXADIDL           2CADR    PAXIS
000209:
000210: 16,2212     7750               MS100              =        OCT37766
000211: 16,2212     0061               COSMG              =        ITEMP1
000212: 16,2212           00006        JUMPDSP            EXTEND                                         #  TRANSFER TO BANK 20
000213: 16,2213           32216                           DCA      DSPCADR                               #  FOR ATTITUDE ERROR DISPLAYS
000214: 16,2214           52006                           DTCB
000215:
000216: 16,2215  E6,1760                                  EBANK=   AK
000217: 16,2215           02227 40106  DSPCADR            2CADR    ALTDSPLY
000218:


000220: 20,2227                                           BANK     20
000221: 20,2000                                           SETLOC   DAPS3
000222: 20,2000                                           BANK
000223: 20,2227                                           COUNT*   $$/NEEDL
000224:
000225:                                                                                                  #  PROGRAM:      ALTDSPLY
000226:                                                                                                  #  MOD 0.        6 DEC 1967
000227:                                                                                                  #  AUTHOR:       CRAIG WORK, DON KEENE, MIT IL
000228:                                                                                                  #  MOD 3 BY DON KEENE AUG 1, 1968 -- MOVED PROGRAM TO BANK 20
000229:
000230:                                                                                                  #  PROGRAM DESCRIPTION:
000231:                                                                                                  #  ALTDSPLY REVERSES THE DSPLYALT BIT OF RCSFLAGS EACH TIME IT IS CALLED, WHICH IS PRESUMABLY EVERY 100 MS.
000232:                                                                                                  #  IF THE REVERSED BIT IS ONE, NEEDLER IS CALLED TO DISPLAY ATTITUDE ERRORS.  IF THE BIT IS ZERO, THE ATTITUDE ERR-
000233:                                                                                                  #  ORS ARE CALCULATED AS 1) ESTIMATED RATES (FOLLOWING) IF NEED2FLG = 1, OTHERWISE AS 2) DAP FOLLOWING ERRORS FOR
000234:                                                                                                  #  NEEDLFLG = 0 AND 3) TOTAL ATTITUDE ERRORS FOR NEEDLFLG = 1.
000235:
000236:                                                                                                  #  WARNING:      ALTDSPLY MAY ONLY BE CALLED WITH INTERRUPT INHIBITED
000237:
000238:                                                                                                  #  WARNING:      EBANK MUST BE SET TO 6 WHEN USING THIS ROUTINE.
000239:
000240:                                                                                                  #  INPUT:        RCSFLAGS AND    1) IF NEEDLFLG = 0, INPUT PERROR, QERROR, RERROR.
000241:                                                                                                  #                                2) IF NEEDLFLG = 1, INPUT CPHI,CTHETA,CPSI,CDUX,CDUY,CDUZ,M11,M21,M32,M22,M32.  (GPMATRIX)
000242:                                                                                                  #                        3) IF NEED2FLG = 1, INPUT OMEGAP, OMEGAQ, AND OMEGAR
000243:
000244:                                                                                                  #  OUTPUTS:      RCSFLAGS WITH DSPLYALT REVERSED,AK,AK1,AK2,+ NEEDLER OUTPUTS.
000245:
000246:                                                                                                  #  ENTRY:        TCF     ALTDSPLY
000247:
000248:                                                                                                  #  EXIT:         TCF     CHEKMORE
000249:
000250:                                                                                                  #  ALARM OR ABORT EXITS:  NONE
000251:
000252:                                                                                                  #  SUBPROGRAMS CALLED:  NEEDLER, OVERSUB2
000253:
000254:                                                                                                  #  DEBRIS:       A, L, AND NEEDLER DEBRIS.
000255:
000256: 20,2227           31774        ALTDSPLY           CA       RCSFLAGS                              #  INVERT THE DISPLAY ALTERNATION BIT.
000257: 20,2230           54001                           TS       L
000258: 20,2231           34741                           CA       DSPLYALT
000259: 20,2232           00006                           EXTEND
000260: 20,2233           06001                           RXOR     LCHAN
000261: 20,2234           55774                           TS       RCSFLAGS
000262:
000263: 20,2235           74741                           MASK     DSPLYALT
000264: 20,2236           10000                           CCS      A                                     #  IS ALTERNATION FLAG ZERO?


000266: 20,2237           12336                           TCF      NEEDLER
000267:
000268: 20,2240           40074                           CS       FLAGWRD0                              #  CHECK FOR RATE DISPLAY TO ERROR NEEDLES
000269: 20,2241           74726                           MASK     NEED2BIT                              #  VIA EXTENDED VERB 60
000270: 20,2242           00006                           EXTEND
000271: 20,2243           12257                           BZF      DISPRATE
000272:
000273: 20,2244           30074                           CAE      FLAGWRD0                              #  NEEDFLG WILL INDICATE TOTAL OR DAP AT-
000274: 20,2245           74741                           MASK     NEEDLBIT                              #  TITUDE ERROR DISPLAY REQUEST.
000275: 20,2246           10000                           CCS      A
000276: 20,2247           12266                           TCF      DSPLYTOT                              #  TOTAL ERROR IS NEEDED IN AK,AK +1,AK +2
000277:
000278: 20,2250           41450                           CS       QERROR                                #  YES. DISPLAY ATT ERRORS ON THE ,-BALL.
000279: 20,2251           55761                           TS       AK         +1                         #  ERROR COMPLEMENTS ARE INPUT TO NEEDLER.
000280: 20,2252           41452                           CS       RERROR
000281: 20,2253           55762                           TS       AK         +2
000282: 20,2254           41464                           CS       PERROR
000283: 20,2255           57760                           XCH      AK
000284:
000285: 20,2256           12456                           TCF      RETNMORE                              #  DISPLAY THESE THE NEXT TIME THROUGH
000286:
000287: 20,2257           41422        DISPRATE           CS       OMEGAQ                                #  LOAD ESTIMATED RATES (FOLLOWING)
000288: 20,2260           55761                           TS       AK         +1
000289: 20,2261           41423                           CS       OMEGAR
000290: 20,2262           55762                           TS       AK         +2
000291: 20,2263           41421                           CS       OMEGAP
000292: 20,2264           57760                           XCH      AK
000293: 20,2265           12456                           TCF      RETNMORE
000294:
000295:                                                                                                  #  CALCULATE GIMBAL ANGLE TOTAL ERRORS, RESOLVE INTO PILOT AXES, STORE TOTAL ERRORS FOR NEEDLER.  Q-AXIS FIRST.
000296:
000297: 20,2266           00006        DSPLYTOT           EXTEND
000298: 20,2267           22061                           QXCH     ITEMP1                                #  SAVE Q FOR CHEKBITS RETURN.
000299:
000300: 20,2270           30322                           CA       CTHETA                                #  DESIRED ATTITUDE, Y-AXIS, 2'S COMP.
000301: 20,2271           00006                           EXTEND                                         #  SUBTRACT CURRENT ATTITUDE.
000302: 20,2272           20033                           MSU      CDUY                                  #  DIFFERENCE SCALED AT PI, 1'S COMP.
000303: 20,2273           55760                           TS       AK                                    #  SAVE FOR R-ERROR CALCULATION.
000304: 20,2274           00006                           EXTEND
000305: 20,2275           71415                           MP       M21                                   #  (CTHETA-CDUY)*M21 SCALED AT PI RADIANS.
000306: 20,2276           57761                           XCH      AK         +1                         #  STORE FIRST TERM OF Q ERROR.
000307: 20,2277           30323                           CA       CPSI                                  #  DESIRED ATTITUDE, Z-AXIS, 2'S COMP.
000308: 20,2300           00006                           EXTEND                                         #  SUBTRACT CURRENT ATTITUDE.
000309: 20,2301           20034                           MSU      CDUZ                                  #  DIFFERENCE SCALED AT PI, 1'S COMP.
000310: 20,2302           55762                           TS       AK         +2                         #  SAVE Z-AXIS TERM FOR R ERROR CALCULATION
000311: 20,2303           00006                           EXTEND
000312: 20,2304           71417                           MP       M22                                   #  (CPSI-CDUZ)*M22, SCALED AT PI RADIANS.
000313: 20,2305           61761                           AD       AK         +1                         #  Q ERROR COMPLETE         , AT PI RAD.
000314: 20,2306           02451                           TC       OVERSUB2                              #  PIN NEEDLES IN CASE OF OVERFLOW
000315: 20,2307           55761                           TS       AK         +1
000316:


000318:                                                                                                  #  R ERROR CALCULATION NEXT.
000319:
000320: 20,2310           31760                           CA       AK                                    #  Y-AXIS DIFFERENCE STORED BY Q-AXIS CALC.
000321: 20,2311           00006                           EXTEND
000322: 20,2312           71416                           MP       M31                                   #  (CTHETA-CDUY)*M31, SCALED AT PI RADIANS.
000323: 20,2313           57762                           XCH      AK         +2                         #  FIRST TERM OF R ERROR.
000324:                                                                                                  #  Z-AXIS DIFFERENCE, STORED BY A CALC. IS
000325: 20,2314           00006                           EXTEND                                         #  RECOVERED BY THE EXCHANGE.
000326: 20,2315           71420                           MP       M32                                   #  (CPSI-CDUZ)*M32, SCALED AT PI RADIANS.
000327: 20,2316           61762                           AD       AK         +2                         #  R ERROR COMPLETE         , AT PI RAD.
000328: 20,2317           02451                           TC       OVERSUB2                              #  PIN NEEDLES IN CASE OF OVERFLOW.
000329: 20,2320           55762                           TS       AK         +2
000330:
000331:                                                                                                  #  NOW CALCULATE P ERROR.  (NOTE THAT M13 = 1, SCALED AT 1, SO THE MULTIPLICATION IS BY-PASSED.)
000332:
000333: 20,2321           31760                           CA       AK                                    #  Y-AXIS DIFFERENCE STORED BY Q AXIS CALC.
000334: 20,2322           00006                           EXTEND
000335: 20,2323           71414                           MP       M11                                   #  (CTHETA-CDUY)*M11 SCALED AT PI RADIANS.
000336: 20,2324           57760                           XCH      AK                                    #  FIRST TERM OF P ERROR IN AK, AT PI RAD.
000337: 20,2325           30321                           CAE      CPHI                                  #  DESIRED ATTITUDE, X-AXIS, 2'S COMP.
000338: 20,2326           00006                           EXTEND                                         #  SUBTRACT CURRENT X ATTITUDE
000339: 20,2327           20032                           MSU      CDUX                                  #  X-AXIS DIFFERENCE, 1'S COMP, AT PI RAD.
000340:
000341:                                                                                                  #  M13 = 1, SO BYPASS THE MULTIPLICATION.
000342:                                                                                                  #                EXTEND
000343:                                                                                                  #                MP      M13             # (CPHI-CDUX)*M13 SCALED AT PI RADIANS.
000344:
000345: 20,2330           61760                           AD       AK                                    #  P ERROR COMPLETE      , SCALED AT PI RAD
000346: 20,2331           02451                           TC       OVERSUB2                              #  PIN NEEDLES IN CASE OF OVERFLOW.
000347: 20,2332           55760                           TS       AK
000348:
000349: 20,2333           00006                           EXTEND
000350: 20,2334           22061                           QXCH     ITEMP1                                #  RESTORE Q FOR CHEKBITS RETURN.
000351:
000352: 20,2335           12456                           TCF      RETNMORE                              #  DISPLAY THESE THE NEXT TIME THROUGH
000353:


000355:                                                                                                  #  FDAI ATTITUDE ERROR DISPLAY SUBROUTINE
000356:
000357:                                                                                                  #  PROGRAM DESCRIPTION:          D. KEENE        5/24/67
000358:                                                                                                  #  MOD 1 BY CRAIG WORK, 12 DEC 67
000359:                                                                                                  #  MOD 2 BY CRAIG WORK, 6 APRIL 68, CONVERTS ATTITUDE ERROR DISPLAY SCALING FROM 16 7/8 DEG. TO 42 3/16 DEGREES.
000360:
000361:                                                                                                  #        THIS SUBROUTINE IS USED TO DISPLAY ATTITUDE ERRORS ON THE FDAI VIA THE DIGITAL TO ANALOG CONVERTERS (DACS)
000362:                                                                                                  #  IN THE CDUS.  CARE IS TAKEN TO METER OUT THE APPROPRIATE NUMBER OF PULSES TO THE IMU ERROR COUNTERS AND PREVENT
000363:                                                                                                  #  OVERFLOW, TO CONTROL THE RELAY SEQUENCING, AND TO AVOID INTERFERENCE WITH THE COARSE ALIGN LOOP WHICH ALSO USES
000364:                                                                                                  #  THE DACS.
000365:
000366:                                                                                                  #  CALLING SEQUENCE:
000367:                                                                                                  #        DURING THE INITIALIZATION SECTION OF THE USER'S PROGRAM, BIT3 OF RCSFLAGS SHOULD BE SET TO INITIATE THE
000368:                                                                                                  #  TURN-ON SEQUENCE WITHIN THE NEEDLES PROGRAM:
000369:                                                                                                  #                CS      RCSFLAGS        # IN EBANK6
000370:                                                                                                  #                MASK    BIT3
000371:                                                                                                  #                ADS     RCSFLAGS
000372:                                                                                                  #  THEREAFTER, THE ATTITUDE ERRORS GENERATED BY THE USER SHOULD BE TRANSFERRED TO THE FOLLOWING LOCATIONS IN EBANK6:
000373:                                                                                                  #                AK      SCALED 180 DEGREES      NOTE:   THESE LOCATIONS ARE SUBJECT
000374:                                                                                                  #                AK1     SCALED 180 DEGREES              TO CHANGE
000375:                                                                                                  #                AK2     SCALED 180 DEGREES
000376:                                                                                                  #  FULL SCALED DEFLECTION OF THE NEEDLES CORRESPONDS TO 5 1/16 DEGREES, WHILE 384 BITS IN THE IMU ERROR COUNTER
000377:                                                                                                  #  CORRESPONDS TO 42 3/16 DEGREES.  (DAC MAXIMUM CAPACITY IS 384 BITS.)  46 BITS EFFECTIVELY PIN THE NEEDLES.
000378:
000379:                                                                                                  #  FOR A RATE DISPLAY, FULL SCALE NEEDLE DEFLECTION IS 1 17/64 DEG/SEC, AND A FULL COUNTER IS ABOUT 10.5 DEG/SEC.
000380:                                                                                                  #  A CALL TO NEEDLER WILL THE UPDATE THE DISPLAY:
000381:                                                                                                  #                INHINT
000382:                                                                                                  #                TC      IBNKCALL        # NOTE:  EBANK SHOULD BE SET TO E6
000383:                                                                                                  #                CADR    NEEDLER
000384:                                                                                                  #                RELINT
000385:                                                                                                  #        THIS PROCESS SHOULD BE REPEATED EACH TIME THE ERRORS ARE UPDATED.  AT LEAST 3 PASSES THRU THE PROGRAM ARE
000386:                                                                                                  #  REQUIRED BEFORE ANYTHING IS ACTUALLY DISPLAYED ON THE ERROR METERS.
000387:                                                                                                  #  NOTE:  EACH CALL TO NEEDLER MUST BE SEPARATED BY AT LEAST 50 MS. TO ASSURE PROPER RELAY SEQUENCING.
000388:
000389:                                                                                                  #  ERASABLE USED:
000390:                                                                                                  #                                AK              CDUXCMD
000391:                                                                                                  #                                AK1             CDUYCMD
000392:                                                                                                  #                                AK2             CDUZCMD
000393:                                                                                                  #                                EDRIVEX         A,L,Q
000394:                                                                                                  #                                EDRIVEY         T5TEMP


000396:                                                                                                  #                                EDRIVEZ         DINDX
000397:
000398:                                                                                                  #  SWITCHES:                     RCSFLAGS  BITS 3,2
000399:
000400:                                                                                                  #  I/O CHANNELS:                 CHAN12  BIT 4 (COARSE ALIGN -- READ ONLY)
000401:                                                                                                  #                                CHAN12  BIT 6 (IMU ERROR COUNTER ENABLE)
000402:                                                                                                  #                                CHAN14  BIT 13,14,15 (DAC ACTIVITY)
000403:
000404:                                                                                                  #  SIGN CONVENTION<      AK = THETAC - THETA
000405:                                                                                                  #                WHERE   THETAC = COMMAND ANGLE
000406:                                                                                                  #                        THETA = PRESENT ANGLE
000407:
000408: 20,2336           31774        NEEDLER            CA       RCSFLAGS
000409: 20,2337           76263                           MASK     SIX
000410: 20,2340           00006                           EXTEND
000411: 20,2341           12376                           BZF      NEEDLES3
000412: 20,2342           74742                           MASK     BIT3
000413: 20,2343           00006                           EXTEND
000414: 20,2344           12367                           BZF      NEEDLER2                              #  BIT3 = 0, BIT2 = 1
000415:
000416: 20,2345           44737                           CS       BIT6                                  #  FIRST PASS BIT3 = 1
000417: 20,2346           00006                           EXTEND                                         #  DISABLE IMU ERROR COUNTER TO ZERO DACS
000418: 20,2347           03012                           WAND     CHAN12                                #  MUST WAIT AT LEAST 60 MS BEFORE
000419: 20,2350           44746        NEEDLE11           CS       ZERO                                  #  ENABLING COUNTERS.
000420: 20,2351           55760                           TS       AK                                    #  ZERO THE INPUTS ON FIRST PASS
000421: 20,2352           55761                           TS       AK1
000422: 20,2353           55762                           TS       AK2
000423: 20,2354           55763                           TS       EDRIVEX                               #  ZERO THE DISPLAY REGISTERS
000424: 20,2355           55764                           TS       EDRIVEY
000425: 20,2356           55765                           TS       EDRIVEZ
000426: 20,2357           54050                           TS       CDUXCMD                               #  ZERO THE OUT COUNTERS
000427: 20,2360           54051                           TS       CDUYCMD
000428: 20,2361           54052                           TS       CDUZCMD
000429: 20,2362           46263                           CS       SIX                                   #  RESET RCSFLAGS FOR PASS2
000430: 20,2363           71774                           MASK     RCSFLAGS
000431: 20,2364           64743                           AD       BIT2
000432: 20,2365           55774                           TS       RCSFLAGS
000433: 20,2366           12456                           TCF      RETNMORE
000434:
000435: 20,2367           34737        NEEDLER2           CAF      BIT6                                  #  ENABLE IMU ERROR COUNTERS
000436: 20,2370           00006                           EXTEND
000437: 20,2371           05012                           WOR      CHAN12
000438: 20,2372           46263                           CS       SIX                                   #  RESET RCSFLAGS TO DISPLAY ATTITUDE
000439: 20,2373           71774                           MASK     RCSFLAGS                              #  ERRORS    WAIT AT LEAST 4 MS FOR
000440: 20,2374           55774                           TS       RCSFLAGS                              #  RELAY CLOSURE.
000441: 20,2375           12456                           TCF      RETNMORE
000442:
000443: 20,2376           34737        NEEDLES3           CAF      BIT6                                  #  CHECK TO SEE IF IMU ERROR COUNTER


000445: 20,2377           00006                           EXTEND                                         #  IS ENABLED
000446: 20,2400           02012                           RAND     CHAN12
000447: 20,2401           10000                           CCS      A                                     #  IF NOT, RE-INITIALIZE NEEDLER.
000448: 20,2402           12407                           TCF      NEEDLES
000449:
000450: 20,2403           41774                           CS       RCSFLAGS                              #  SET UP INITIALIZATION FLAG IN RCSFLAGS.
000451: 20,2404           74742                           MASK     BIT3
000452: 20,2405           27774                           ADS      RCSFLAGS
000453: 20,2406           12456                           TCF      RETNMORE
000454:
000455: 20,2407           34743        NEEDLES            CAF      TWO
000456: 20,2410           54063        DACLOOP            TS       DINDX
000457: 20,2411           42450                           CS       ONETENTH                              #  RESCALE OUTPUTS TO + OR - 1800 DEGREES.
000458: 20,2412           00006                           EXTEND
000459: 20,2413           50063                           INDEX    DINDX
000460: 20,2414           71760                           MP       AK
000461: 20,2415           54001                           TS       L
000462: 20,2416           10000                           CCS      A
000463: 20,2417           32446                           CA       DACLIMIT
000464: 20,2420           12422                           TCF      +2
000465: 20,2421           42446                           CS       DACLIMIT
000466: 20,2422           60001                           AD       L
000467: 20,2423           54061                           TS       T5TEMP                                #  OVFLO CHK
000468: 20,2424           12430                           TCF      +4
000469: 20,2425           50000                           INDEX    A                                     #  ON OVERFLOW LIMIT OUTPUT TO +-384
000470: 20,2426           32446                           CAF      DACLIMIT
000471: 20,2427           54001                           TS       L
000472: 20,2430           50063                           INDEX    DINDX
000473: 20,2431           41763                           CS       EDRIVEX                               #  CURRENT VALUE OF DAC
000474: 20,2432           60001                           AD       L
000475: 20,2433           50063                           INDEX    DINDX
000476: 20,2434           26050                           ADS      CDUXCMD
000477: 20,2435           50063                           INDEX    DINDX
000478: 20,2436           23763                           LXCH     EDRIVEX
000479: 20,2437           10063                           CCS      DINDX
000480: 20,2440           12410                           TCF      DACLOOP
000481: 20,2441           37761                           CAF      13,14,15
000482: 20,2442           00006                           EXTEND
000483: 20,2443           05014                           WOR      CHAN14                                #  SET DAC ACTIVITY BITS
000484: 20,2444           12456                           TCF      RETNMORE
000485:
000486: 20,2445           77177                           DEC      -384       B-14
000487: 20,2446           37200        DACLIMIT           DEC      16000      B-14
000488: 20,2447           00600                           DEC      384        B-14
000489:
000490: 20,2450           03146        ONETENTH           OCT      03146                                 #  DECIMAL +0.1, SCALED AT 1.
000491: 20,2451     4741               DSPLYALT           EQUALS   BIT4                                  #  100 MS ALTERNATION BIT IN RCSFLAGS
000492:
000493: 20,2451           54007        OVERSUB2           TS       7                                     #  RETURNS A UNCHANGED OR LIMITED TO


000495: 20,2452           00002                           TC       Q                                     #  POSMAX OR NEGMAX IF A HAS OVERFLOW
000496: 20,2453           50000                           INDEX    A
000497: 20,2454           44725                           CS       LIMITS                                #  DUPLICATE CODING IN BANK A
000498: 20,2455           00002                           TC       Q
000499:
000500: 20,2456           00006        RETNMORE           EXTEND                                         #  RETURN TO CHEKMORE
000501: 20,2457           32462                           DCA      MORECADR
000502: 20,2460           52006                           DTCB
000503:
000504: 20,2461  E6,1536                                  EBANK=   AOSQ
000505: 20,2461           02016 34106  MORECADR           2CADR    CHEKMORE
000506:
000507:
000508:
000509:

End of include-file DAPIDLER_PROGRAM.agc.  Parent file is MAIN.agc


