
Source Code


### FILE="DISPLAY_INTERFACE_ROUTINES.agc"
## Copyright:   Public domain.
## Filename:    DISPLAY_INTERFACE_ROUTINES.agc
## Purpose:     A section of Luminary revision 210.
##              It is part of the source code for the Lunar Module's (LM)
##              Apollo Guidance Computer (AGC) for Apollo 15-17.
##              This file is intended to be a faithful transcription, except
##              that the code format has been changed to conform to the
##              requirements of the yaYUL assembler rather than the
##              original YUL assembler.
## Reference:   pp. 1338-1370
## Assembler:   yaYUL
## Contact:     Ron Burkey .
## Website:     www.ibiblio.org/apollo/index.html
## Mod history: 2016-11-17 JL   Created from Luminary131 version.
##		2016-12-08 JS   Compared to Luminary210 images. Updated where needed.
##              2016-12-10 HG   Add missing operator ZL (label NVDSP)
##              2016-12-11 HG   fix operand NVDISP -> NVDSP
##              2016-12-12 HG   add [WORKAROUND] with SBANK=
##              2016-12-12 MAS  "PRIOSAVE EQUALS R1SAVE" is sneakily a comment.
##		2016-12-26 RSB	Comment-text proofed using ProoferComments
##				and corrected errors found.

## Page 1338
# DISPLAYS CAN BE CLASSIFIED INTO THE FOLLOWING CATEGORIES-
#	1.  PRIORITY DISPLAYS- DISPLAYS WHICH TAKE PRIORITY OVER ALL OTHER DISPLAYS.  USUALLY THESE DISPLAYS ARE SENT
#	    OUT UNDER CRITICAL ALARM CONDITIONS.
#	2.  EXTENDED VERB DISPLAYS- ALL EXTENDED VERBS AND MARK ROUTINES SHOULD USE EXTENDED VERB (MARK) DISPLAYS.
#	3.  NORMAL DISPLAYS- ALL MISSION PROGRAM DISPLAYS WHICH INTERFACE WITH THE ASTRONAUT DURING THE NORMAL
#	    SEQUENCE OF EVENTS.
#	4.  MISC. DISPLAYS- ALL DISPLAYS NOT HANDLED BY THE DISPLAY INTERFACEROUTINES. THESE INCLUDE SUCH DISPLAYS AS
#	    MM DISPLAYS AND SPECIAL PURPOSE DISPLAYS HANDLED BY PINBALL.
#	5.  ASTRONAUT INITIATED DISPLAYS- ALL DISPLAYS INITIATED EXTERNALLY.
#
# THE FOLLOWING TERMS ARE USED TO DESCRIBE THE STATUS OF DISPLAYS-
#	1.  ACTIVE-THE DISPLAY WHICH IS (1) BEING DISPLAYED TO THE ASTRONAUT AND WAITING FOR A RESPONSE OR
#	    (2) WAITING FIRST IN LINE FOR THE ASTRONAUT TO FINISH USING THE DSKY OR (3) BEING DISPLAYED ON THE DSKY
#	    BUT NOT WAITING FOR A RESPONSE.
#	2.  INACTIVE -A DISPLAY WHICH HAS (1) BEEN ACTIVE BUT WAS INTERRUPTEDBY A DISPLAY OF HIGHER PRIORITY,
#	    (2) BEEN PUT INTO THE WAITING LIST AT TIME IT WAS REQUESTED DUE TO THE FACT A HIGHER PRIORITY DISPLAY
#	    WAS ALREADY GOING, (3) BEEN INTERRUPTED BY THE ASTRONAUT (CALLED A PINBRANCH CONDITION, SINCE THIS TYPE
#	    OF INACTIVE DISPLAY IS USUALLY REACTIVATED ONLY BY PINBALL) OR (4) A DISPLAY WHICH HAS FINISHED BUT STILL
#	    HAS INFO SAVED FOR RESTART PURPOSES.
#
# DISPLAY PRIORITIES WORK AS FOLLOWS-
#	INTERRUPTS-
#		1.  THE ASTRONAUT CAN INTERRUPT ANY DISPLAY WITH AN EXTERNAL DISPLAY REQUEST.
#		2.  INTERNAL DISPLAYS CAN NOT BE SENT OUT WHEN THE ASTRONAUT IS USING THE DSKY.
#		3.  PRIORITY DISPLAYS INTERRUPT ALL OTHER TYPES OF INTERNAL DISPLAYS. A PRIORITY DISPLAY INTERRUPTING ANOTHER
#		    PRIORITY DISPLAY WILL CAUSE AN ABORT UNLESS BIT14 IS SET FOR THE LINUS ROUTINE.
#		4.  A MARK DISPLAY INTERRUPTS ANY NORMAL DISPLAY.
#		5.  A MARK THAT INTERRUPTS A MARK COMPLETELY REPLACES IT.
#
# 	ORDER OF WAITING DISPLAYS-
#		1.  ASTRONAUT EXTERNAL USE
#		2.  PRIORITY
#		3.  INTERRUPTED MARK
#		4.  INTERRUPTED NORMAL
#		5.  MARK TO BE REQUESTED (SEE DESCRIPTION OF ENDMARK)
#		6.  MARK WAITING
#		7.  NORMAL WAITING

## Page 1339
# THE DISPLAY ROUTINES ARE INTENDED TO SERVE AS AN INTERFACE BETWEEN THE USER AND PINBALL.  THE
# FOLLOWING STATEMENTS CAN BE MADE ABOUT NORMAL DISPLAYS AND PRIORITY DISPLAYS (A DESCRIPTION OF MARK ROUTINES
# WILL FOLLOW LATER):
#	1.  ALL ROUTINES THAT END IN R HAVE AN IMMEDIATE RETURN TO THE USER.  FOR ALL FLASHING DISPLAYS THIS RETURN
#	    IS TO THE USERS CALL CADR +4.  FOR THE ONLY NON FLASHING IMMEDIATE RETURN DISPLAY (GODSPR) THIS RETURN
#	    IS TO THE USERS CALLING LOC +1.
#	2.  ALL ROUTINES NOT ENDING IN R DO NOT DO AN IMMEDIATE RETURN TO THE USER.
#	3.  ALL ROUTINES THAT END IN R START A SEPARATE JOB (MAKEPLAY) WITH USERS JOB PRIORITY.
#	4.  ALL ROUTINES NOT ENDING IN R BRANCH DIRECTLY TO MAKEPLAY WHICH MAKES THESE DISPLAYS A PART OF THE
#	    USERS JOB.
#	5.  ALL DISPLAY ROUTINES ARE CALLED VIA BANKCALL.
#	6.  TO RESTART A DISPLAY THE USER WILL GENERALLY USE A PHASE OF ONE WITH DESIRED RESTART GROUP (SEE
#	    DESCRIPTION OF RESTARTS).
#	7.  ALL FLASHING DISPLAYS HAVE 3 RETURNS TO THE USER FROM ASTRONAUT RESPONSES.  A TERMINATE (V34) BRANCHES
#	    TO THE USERS CALL CADR +1.  A PROCEED (V33) BRANCHES TO THE USERS CALL CADR +2.  AN ENTER OR RECYCLE
#	    (V32) BRANCHES TO THE USERS CALL CADR +3.
#	8.  ALL ROUTINES MUST BE USED UNDER EXECUTIVE CONTROL.
#
# A DESCRIPTION OF EACH ROUTINE WITH AN EXAMPLE FOLLOWS:
#	GODSP IS USED TO DISPLAY A VERB NOUN ARRIVING IN A.  NO RETURN IS MADE TO THE USER.
#		1.  GODSP IS NOT RESTARTABLE
#		2.  A VERB PASTE WITH GODSP ALWAYS TURNS ON THE FLASH.
#				CAF	VXXNYY
#				TC	BANKCALL
#				CADR	GODSP
#			VXXNYY	OCT	OXXYY
#	GODSPR IS THE SAME AS GODSP ONLY RETURN IS TO THE USER.
#				CAF	VXXNYY
#				TC	BANKCALL
#				CADR	GODSPR
#				...	...		IMMEDIATE RETURN OF GODSPR
#	GOFLASH DISPLAYS A FLASHING VERB NOUN WITH NO IMMEDIATE RETURN TO THE USER.  3 RETURNS ARE POSSIBLE FROM
#	THE ASTRONAUT (SEE NO. 7 ABOVE).
#				CAF	VXXNYY		VXX NYY WILL BE A FLASHING VERB NOUN.
#				TC	BANKCALL
#				CADR	GOFLASH
#				...	...		TERMINATE RETURN
#				...	...		PROCEED RETURN
#				...	...		ENTER OR RECYCLE RETURN
#	GOPERF1 IS ENTERED WITH DESIRED CHECKLIST VALUE IN A.  GOPERF1 WILL DISPLAY THIS VALUE IN R1 BY MEANS OF A

## Page 1340
# 	V01 N25.A FLASHING PLEASE PERFORM ON CHECKLIST ( V50 N25) IS THEN DISPLAYED.  NO IMMEDIATE RETURN IS MADE TO
# 	USER (SEE NO. 7 ABOVE).
#	GOPERF1 BLANKS REGISTERS R2 AND R3
#				CAF	OCTXX		CODE FOR CHECKLIST VALUE XX
#				TC	BANKCALL
#				CADR	GOPERF1
#				...	...		TERMINATE RETURN
#				...	...		PROCEED RETURN
#				...	...		ENTER RETURN
#	GOPERF2 IS ENTERED WITH A VARIABLE NOUN AND V01 ( V00 FOR N10 OR N11) IN A.  GOPERF2 WILL FIRST DISPLAY THE
# 	REQUESTED NOUN BY MEANS OF A V01NYY OR A V00NYY. PLEASE PERFORM ON NOUN (V50 NYY) THEN BECOMES A FLASHING
#	DISPLAY.  NO IMMEDIATE RETURN IS MADE TO THE USER (SEE NO. 7 ABOVE).
#	GOPERF2 DOES NOT BLANK ANY REGISTERS
#				CAF	VXXNYY		VARIABLE NOUN YY. XX=00 OR 01.
#				TC	BANKCALL
#				CADR	GOPERF2
#				...	...		TERMINATE RETURN
#				...	...		PROCEED RETURN
#				...	...		ENTER RETURN
#	GOPERF3 IS USED FOR A PLEASE PERFORM ON A PROGRAM NUMBER.  THE DESIRED PROGRAM NO. IS ENTERED IN A.  GOPERF3
#	DISPLAYS THE NO. BY MEANS OF A V06 N07 FOLLOWED BY A FLASHING V50 N07 FOR A PLEASE PERFORM. NO IMMEDIATE RETURN
#	IS MADE TO THE USER (SEE NO. 7 ABOVE).
#	GOPERF3 BLANKS REGISTERS R2 AND R3
#				CAF	DECXX		REQUEST PERFORM ON PXX
#				TC	BANKCALL
#				CADR	GOPERF3
#				...	...		TERMINATE RETURN
#				...	...		PROCEED RETURN
#				...	...		ENTER RETURN
#	GOPERF4 IS USED FOR A PLEASE PERFORM ON AN OPTION. THE DESIRED OPTION ISENTERED IN A AND STORED IN OPTION1.
#	GOPERF4 DISPLAYS R1 AND R2 BY MEANS OF A V04N06 FOLLOWED BY A FLASHING  V50N06 FOR A PLEASE PERFORM. NO
#	IMMEDIATE RETURN IS MADE TO THE USER (SEE NO. 7 ABOVE).
#				CAF	OCTXX		REQUEST PERFORM ON OPTION XX
#				TC	BANKCALL
#				CADR	GOPERF4
#				...	...		TERMINATE RETURN
#				...	...		PROCEED RETURN
#				...	...		ENTER RETURN
#	GOPERF4 BLANKS REGISTER R3

## Page 1341
#	GODSPRET IS USED TO DISPLAY A VERB NOUN ARRIVING IN A WITH A RETURN TO THE USER AFTER THE DISPLAY HAS BEEN SENT
#	OUT.
#				CAF	VXXNYY
#				TC	BANKCALL
#				CADR	GODSPRET
#				...	...		RETURN TO USER
#	REGODSP IS USED TO DISPLAY A VERB NOUN ARRIVING IN A.  REGODSP IS THE SAME AS GODSP ONLY REGODSP REPLACES ANY
#	ACTIVE NORMAL DISPLAY IF ONE WAS ACTIVE.
#				CAF	VXXNYY
#				TC	BANKCALL
#				CADR	REGODSP
#	REFLASH IS THE SAME AS GOFLASH ONLY REFLASH REPLACES ANY ACTIVE NORMAL DISPLAY IF ONE WAS ACTIVE.
#				CAF	VXXNYY		VXX NYY WILL BE A FLASHING VERB NOUN
#				TC	BANKCALL
#				CADR	REFLASH
#				...	...		TERMINATE RETURN
#				...	...		PROCEED RETURN
#				...	...		ENTER RETURN
#	GOFLASHR IS SAME AS GOFLASH ONLY AN IMMEDIATE RETURN IS MADE TO THE USERS CALL CADR +4.
#				CAF	VXXNYY
#				TC	BANKCALL
#				CADR	GOFLASHR
#				...	...		TERMINATE RETURN
#				...	...		PROCEED RETURN
#				...	...		ENTER OR RECYCLE RETURN
#				...	...		IMMEDIATE RETURN FROM GOFLASHR
#	GOPERF1R IS THE SAME AS GOPERF1 ONLY GOPERF1R HAS AN IMMEDIATE RETURN TO USERS CALL CADR +4.
#	GOPERF1R BLANKS REGISTERS R2 AND R3
#				CAF	OCTXX		CODE FOR CHECKLIST VALUE XX.
#				TC	BANKCALL
#				CADR	GOPERF1R
#				...	...		TERMINATE RETURN
#				...	...		PROCEED RETURN
#				...	...		ENTER RETURN
#				...	...		IMMEDIATE RETURN FROM GOPERF1R
#	GOPERF2R IS THE SAME AS GOPERF2 ONLY AN IMMEDIATE RETURN IS MADE TO USERS CALL CADR +4.

## Page 1342
#	GOPERF2R DOES NOT BLANK ANY REGISTERS
#				CAF	VXXNYY		VARIABLE NOUN YY REQUESTED.  XX=00 OR 01
#				TC	BANKCALL
#				CADR	GOPERF2R
#				...	...		TERMINATE RETURN
#				...	...		PROCEED RETURN
#				...	...		ENTER RETURN
#				...	...		IMMEDIATE RETURN HERE FROM GOPERF2R
# 	GOPERF3R IS THE SAME AS GOPERF3 ONLY AN IMMEDIATE RETURN IS MADE TO USERS CALL CADR +4.
#	GOPERF3R BLANKS REGISTERS R2 AND R3
#				CAF	PROGXX		PERFORM PROGRAM XX
#				TC	BANKCALL
#				CADR	GOPERF3R
#				...	...		TERMINATE RETURN
#				...	...		PROCEED RETURN
#				...	...		ENTER RETURN
#				...	...		GOPERF3R IMMEDIATELY RETURNS HERE
#	GOPERF4R IS THE SAME AS GOPERF4 ONLY AN IMMEDIATE RETURN IS MADE TO USERS CALL CADR +4.
#				CAF	OCTXX		REQUEST PERFORM ON OPTIONXX
#				TC	BANKCALL
#				CADR	GOPERF4R
#				...	...		TERMINATE RETURN
#				...	...		PROCEED RETURN
#				...	...		ENTER RETURN
#				...	...		IMMEDIATE RETURN TO USER
#	GOPERF4R BLANKS REGISTER R3
#	REFLASHR IS THE SAME AS REFLASH ONLY AN IMMEDIATE RETURN IS MADE TO THE USERS CALL CADR +4.
#				CAF	VXXNYY		VXX NYY WILL BE A FLASHING VERB NOUN
#				TC	BANKCALL
#				CADR	REFLASHR
#				...	...		TERMINATE RETURN
#				...	...		PROCEED RETURN
#				...	...		ENTER RETURN
#				...	...		IMMEDIATE RETURN TO USER
#	REGODSPR IS THE SAME AS REGODSP ONLY A RETURN (IMMEDIATE) IS MADE TO THE USER.

## Page 1343
#				CAF	VXXNYY
#				TC	BANKCALL
#				CADR	REGODSPR
#				...	...		IMMEDIATE RETURN TO USER

## Page 1344
#	GOMARK IS USED TO DISPLAY A MARK VERB NOUN ARRIVING IN A. NO RETURN IS MADE TO THE USER.
#	GOXDSP = GOMARK
#				CAF	VXXNYY		VXXNYY CONTAINS VERB AND NOUN
#				TC	BANKCALL
#				CADR	GOMARK		OTHER EXTENDED VERBS USE CADR GOXDSP
#	GOMARKR IS THE SAME AS GOMARK ONLY RETURN IS TO THE USER.
#	GOXDSPR = GOMARKR
#				CAF	VXXNYY
#				TC	BANKCALL
#				CADR	GOMARKR		OTHER EXTENDED VERBS USE CADR GOXDSPR
#				...	...		IMMEDIATE RETURN OF GOMARKR
#	GOMARKF DISPLAYS A FLASHING MARK VERB NOUN WITH NO IMMEDIATE RETURN TO THE USER. 3 RETURNS ARE POSSIBLE FROM
#	THE ASTRONAUT (SEE NO. 7 ABOVE).
#	GOXDSPF = GOMARKF
#				CAF	VXXNYY		VXXNYY WILL BE A FLASHING MARK VERB NOUN
#				TC	BANKCALL
#				CADR	GOMARKF		OTHER EXTENDED VERBS USE CADR GOXDSPF
#				...	...		TERMINATE RETURN
#				...	...		PROCEED RETURN
#				...	...		ENTER OR RECYCLE RETURN
#	GOMARKFR IS THE SAME AS GOMARKF ONLY AN  IMMEDIATE RETURN IS MADE TO THE USER CALL CADR +4.
#	GOXDSPFR = GOMARKFR
#				CAF	VXXNYY		FLASHING MARK VERB NOUN
#				TC	BANKCALL
#				CADR	GOMARKFR	OTHER EXTENDED VERBS USE CADR GOXDSPFR
#				...	...		TERMINATE RETURN
#				...	...		PROCEED RETURN
#				...	...		ENTER OR RECYCLE RETURN
#				...	...		IMMEDIATE RETURN TO THE USER
#	GOMARK1 IS USED FOR A PLEASE PERFORM ON A MARK REQUEST WITH ONLY 1 ASTRONAUT RETURN TO THE USER. NO IMMEDIATE
#	RETURN IS MADE. THE DESIRED MARK PLEASE PERFORM VERB AND DESIRED NOUN ISENTERED IN A. GOMARK1 DISPLAYS R1, R2, R
#	MEANS OF A V05NYY FOLLOWED BY A FLASHING V5XNYY FOR A PLEASE PERFORM. THE ASTRONAUT WILL RESPOND WITH A MARK
#	OR MARK REJECT OR AN ENTER. THE ENTER IS THE ONLY ASTRONAUT RESPONSE THAT WILL COME BACK TO THE USER.
#				CAF	V5XNYY		X=1,2,3,4	Y= NOUN
#				TC	BANKCALL

## Page 1345
#				CADR	GOMARK1
#				...	...		ENTER RETURN
#	*** IF BLANKING DESIRED ON NON R ROUTINES, NOTIFY DISPLAYER.
#
#	GOMARK1R IS THE SAME AS A GOMARK1 ONLY AN IMMEDIATE RETURN IS MADE TO THE USERS CALL CADR +2.
#				CAF	V5XNYY		X=1,2,3,4	YY = NOUN
#				TC	BANKCALL
#				CADR	GOMARK1R
#				...	...		ASTRONAUT ENTER RETURN
#				...	...		IMMEDIATE RETURN TO USER
#	GOMARK2 IS THE SAME AS GOMARK1 ONLY 3 RETURNS ARE MADE TO THE USER FROM THE ASTRONAUT.
#				CAF	V5XNYY		X=1,2,3,4	YY=NOUN
#				TC	BANKCALL
#				CADR	GOMARK2
#				...	...		TERMINATE RETURN
#				...	...		PROCEED RETURN
#				...	...		ENTER RETURN
#	GOMARK2R IS THE SAME AS GOMARK1R ONLY 3 ASTRONAUT RETURNS ARE MADE TO THE USER.
#				CAF	V5XNYY		X=0,1,2,3,4	YY=NOUN
#				TC	BANKCALL
#				CADR	GOMARK2R
#				...	...		TERMINATE RETURN
#				...	...		PROCEED RETURN
#				...	...		ENTER RETURN
#				...	...		IMMEDIATE RETURN TO THE USER
#	GOMARK3 IS USED FOR A PLEASE PERFORM ON A MARK REQUEST WITH A 3 COMP. DEC DISPLAY. THE DESIRED MARK PLEASE
#	PERFORM VERB AND NOUN ARE ENTERED IN A. GOMARK3 DISPLAYS R1, R2, R3 BY MEANS OF A V06NYY FOLLOWED BY A FLASHING
#	V5XNYY FOR A PLEASE PERFORM. GOMARK3 HAS 3 ASTRONAUT RETURNS TO THE USER WITH NO IMMEDIATE RETURN.
#				CAF	V5XNYY		X=1, 2,3,4 YY=NOUN
#				TC	BANKCALL
#				CADR	GOMARK3
#				...	...		TERMINATE RETURN
#				...	...		PROCEED RETURN
#				...	...		ENTER RETURN
#	GOMARK4 IS THE SAME AS GOMARK3 ONLY R2 AND R3 ARE BLANKED AND R1 IS DISPLAYED IN OCTAL.
#				CAF	V5XNYY		X=1,2,3,4 YY=NOUN
#				TC	BANKCALL
#				CADR	GOMARK4
#				...	...		TERMINATE RETURN
#				...	...		PROCEED RETURN

## Page 1346
#				...	...		ENTER RETURN
#	EXDSPRET IS USED TO DISPLAY A VERB NOUN ARRIVING IN A WITH A RETURN MADE TO THE USER AFTER THE DISPLAY HAS BEEN
#	SENT OUT.
#				CAF	VXXNYY
#				TC	BANKCALL
#				CADR	EXDSPRET
#				...	...		RETURN TO USER
#	KLEENEX CLEANS OUT ALL MARK DISPLAYS (ACTIVE AND INACTIVE). A RETURN IS MADE TO THE USER AFTER THE MARK DISPLAYS
#	HAVE BEEN CLEANED OUT.
#				TC	BANKCALL
#				CADR	KLEENEX
#				...	...		RETURN TO USER
#	MARKBRAN IS A SPECIAL PURPOSE ROUTINE USED FOR SAVING JOB VAC AREAS (SEE DESCRIPTION OF MARKBRAN BELOW).
#				TC	BANKCALL
#				CADR	MARKBRAN
#				...	...		BAD RETURN IF MARK DISPLAY NOT ACTIVE
#							(GOOD RETURN TO IMMEDIATE RETURN LOC OF
#							LAST FLASHING MARK R ROUTINE)
#	PINBRNCH REESTABLISHES THE LAST ACTIVE FLASHING DISPLAY.  IF THERE IS NO ACTIVE FLASHING DISPLAY, THE DSKY IS
#	BLANKED AND CONTROL IS SENT TO ENDOFJOB.
#				TC	POSTJUMP
#				CADR	PINBRNCH
#	PRIODSP IS USED AS A PRIORITY DISPLAY.  IT WILL DISPLAY A GOFLASH TYPE DISPLAY WITH THREE POSSIBLE RETURNS FROM
#	THE ASTRONAUT (SEE NO.7 ABOVE).
#		THE MAIN PURPOSE OF PRIODSP IS TO REPLACE THE PRESENT DISPLAY WITH A DISPLAY OF HIGHER PRIORITY AND TO
#	PROVIDE A MEANS FOR RESTORING THE OLD DISPLAY WHEN THE PRIORITY DISPLAY
# 	IS RESPONDED TO BY THE ASTRONAUT.
#		THE FORMER DISPLAY IS RESTORED BY AN AUTOMATIC BRANCH TO WAKE UP THE DISPLAY THAT WAS INTERRUPTED BY THE
#	PRIO DISPLAY.
#				CAF	VXXNYY		VXXNYY WILL BE A FLASHING VERB NOUN
#				TC	BANKCALL
#				CADR	PRIODSP
#				...	...		TERMINATE RETURN
#				...	...		PROCEED RETURN

## Page 1347
#				...	...		ENTER OR RECYCLE RETURN
#	PRIODSPR IS THE SAME AS PRIODSPONLY AN IMMEDIATE RETURN IS MADE TO THE USERS CALL CADR +4.
#				CAF	VXXNYY		VXXNYY WILL BE A FLASHING VERB NOUN
#				TC	BANKCALL
#				CADR	PRIODSPR
#				...	...		TERMINATE RETURN
#				...	...		PROCEED RETURN
#				...	...		ENTER OR RECYCLE RETURN
#				...	...		IMMEDIATE RETURN
#	PRIOLARM DOES A V05N09 PRIODSPR.
#
#	CLEANDSP CLEANS OUT ALL NORMAL DISPLAYS (ACTIVE AND INACTIVE).  A RETURN IS MADE TO THE USER AFTER NORMAL
#	DISPLAYS ARE CLEANED OUT.
#				TC	BANKCALL
#				CADR	CLEANDSP
#				...	...		RETURN TO USER

## Page 1348
#
# GENERAL INFORMATION
# -------------------
#
# ALARM OR ABORT EXIT MODES--
#	PRIOBORT	TC	ABORT
#			OCT	1502
#
#	PRIOBORT IS BRANCED TO WHEN (1)  A NORMAL DISPLAY IS REQUESTED AND  ANOTHER NORMAL DISPLAY IS ALREADY ACTIVE
#	(REFLASH AND REGODSP ARE EXCEPTIONS) OR (2) A PRIORITY DISPLAY IS REQUESTED WHEN ANOTHER PRIORITY DISPLAY IS
#	ALREADY ACTIVE (A PRIORITY WITH LINUS BIT14 IS AN EXCEPTION).
#
# ERASABLE INITIALIZATION REQUIRED--
#	ACCOMPLISHED BY FRESH START-	1.  FLAGWRD4 (USED EXCLUSIVELY BY DISPLAY INTERFACE ROUTINES)
#					2.  NVSAVE = NORMAL VERB AND NOUN REGISTER.
#					3.  EBANKTEM = NORMAL INACTIVE FLAGWORD(ALSO CONTAINS NORMALS EBANK).
#					5.  R1SAVE = MARKBRAN CONTROL WORD
#					4.  RESTREG = PRIORITY 30 AND SUPERBANK 3.
#
# OUTPUT--
#	NVWORD = PRIO VERB AND NOUN
#	NVWORD +1(MARKNV) = MARK VERB AND NOUN
#	NVWORD +2(NVSAVE) = NORMAL VERB AND NOUN
#	DSPFLG(EBANKSAV) = PRIO FLAGWORD (INCLUDING EBANK)
#	DSPFLG +1(MARKEBAN) = MARK FLAGWORD (INCLUDING EBANK)
#	DSPFLG +2(EBANKTEM) = NORMAL FLAGWORD (INCLUDIG EBANK)
#	CADRFLSH = PRIO USERS CALL CADR +1 LOCATION
#	CADRFLSH +1(MARKFLSH) = MARK USERS CALL CADR +1 LOCATION
#	CADRFLSH +2(TEMPFLSH) = NORMAL USERS CALL CADR +1 LOCATION
#	PRIOTIME = TIME EACH PRIO REQUEST FIRST SENT OUT
#	OPTION1 = DESIRED OPTION FROM GOPERF4
#	FLAGWRD4 = BIT INFO FOR CONTROL OF ALL DISPLAY ROUTINES
#	DSPTEM1 = R1 INFO FOR ASTRONAUT FROM PERFORM DISPLAYS(NORMAL)
#
# SUBROUTINES USED-- NVSUB, FLAGUP, FLAGDOWN, ENDOFJOB, BLANKSUB, ABORT, JOBWAKE, JOBSLEEP, FINDVAC, PRIOCHNG,
#	JAMTERM, NVSUBUSY, FLASHON, ENDIDLE, CHANG1, BANKJUMP, MAKECADR, NOVAC,
#	DEBRIS-- (STORED INTO)
#	TEMPORARY TEMPORARIES- A, Q, L, MPAC +2, MPAC +3, MPAC +4, MPAC +5, MPAC +6, RUPTREG2, RUPTREG3, CYL,
#		EBANK, RUPTREG4, LOC, BANKSET, MODE, MPAC, MPAC +1	   4,FACEREG
#	ERASABES(SHARED AND USED WITH OTHER PROGRAMS) CADRSTOR, DSPLIST, LOC, DSPTEM1, OPTION1
#	ERASABLES(USED ONLY BY DISPLAY ROUTINES)- NVWORD,+1,+2, DSPFLG,+1,+2, CADRFLSH,+1,+2, PRIOTIME, FLAGWRD4,

## Page 1349
#	R1SAVE, MARK2PAC,
#	DEBRIS-- (USED BUT NOT STORED INTO)- NOUNREG, VERBREG, LOCCTR, MONSAVE1
#
# FLAGWORD DESCRIPTIONS--
#	FLAGWRD4- SEE DESCRIPTION UNDER LOG SECTION ERASABLE ASSIGNMENTS
#
#	DSPFLG, DSPFLG+1, DSPFLG +2-
#	----------------------------
#	BITS 1	BLANK R1
#	     2	BLANK R2
#	     3	BLANK R3
#	     4	FLASHING DISPLAY REQUESTED
#	     5	PERFORM DISPLAY REQUESTED
#	     6	-----			EXDSPRET		GODSPRET
#	     7	PRIO DISPLAY		-----			 -----
#	     8	MONITOR-PASTE		DEC PERFORM		-----
#	     9	EBANK
#	    10	EBANK
#	    11	EBANK
#	    12	-----			-----			V99PASTE
#	    13	2ND PART OF PERFORM
#	    14	REFLASH OR REDO		-----			REFLASH OR REDO
#	    15	-----			MARK REQUEST		-----
#
# RESTARTING DISPLAYS--
#
# RULES FOR THE DSKY OPERATOR--
#	1.  PROCEED AND TERMINATE SERVE AS RESPONSES TO REQUESTS FOR OPERATOR RESPONSE (FLASHING V/N).  AS LONG
#	    AS THERE IS ANY REQUEST AWAITING OPERATOR RESPONSE, ANY USE OF PROCEED OR TERMINATE WILL SERVE AS
#	    RESPONSES TO THAT REQUEST.  CARE SHOULD BE EXERCISED IN ATTEMPTING TO KILL AN OPERATOR INITIATED MONITOR
#	    WITH PROCEED AND TERMINATE FOR THIS REASON.
#	2.  THE ASTRONAUT MUST RESPOND TO A PRIORITY DISPLAY NO SOONER THAN 2 SECONDS FROM THE TIME THE
#	    PROGRAM SENT OUT THE REQUEST FOR OPERATOR RESPONSE (THE ASTRONAUT WOULD SEE THIS DISPLAY FOR LESS TIME
#	    DUE TO TIME IT TAKES TO GET DISPLAY SENT OUT.) IF THE ASTRONAUT RESPONDS TOO SOON, THE PRIORITY DISPLAY
#	    IS SENT OUT AGAIN -- AND AGAIN UNTIL AN ACCUMULATED 2 SECS FROM THE TIME THE FIRST PRIORITY DISPLAY
#	    OUT. THE SAME 2 SEC. DELAY WILL OCCUR AT 163.84 SECS OR IN ANY MULTIPLE OF THAT TIME DUE TO PROGRAM
#	    CONSIDERATION.
#	3.  KEY RELEASE BUTTON-
#	    A)  IF THE KEY RELEASE LIGHT IS ON, IT SIMPLY RELEASES THE KEYBOARD AND DISPLAY FOR INTERNAL USE.
#	    B)  IF THE KEY RELEASE LIGHT IS OFF, AND IF SOME REQUEST FOR OPERATOR RESPONSE (FLASHING V/N) IS STILL
#	        AWAITING RESPONSE THEN IT RE-ESTABLISHES THE DISPLAYS THAT ORIGINALLY REQUESTED RESPONSE.
#	    IF AN OPERATOR WANTS THEREFORE TO RE-ESTABLISH BUT CONDITION (A) IS ENCOUNTERED, A SECOND DEPRESSION OF
#	    KEY RELEASE BUTTON MAY BE NECESSARY.
#	4.  IT IS IMPORTANT TO ANSWER ALL REQUESTS FOR OPERATOR RESPONSE.
#	5.  IT IS ALWAYS GOOD PRACTICE TO TERMINATE AN EXTENDED VERB BEFORE ASKING FOR ANOTHER ONE OR THE SAME ONE
#	    OVER AGAIN.
#
# SPECIAL CONSIDERATIONS--

## Page 1350
#	1.  MPAC +2  SAVED ONLY IN MARK DISPLAYS
#	2.  GODSP(R),REGODSP(R),GOMARK(R) ALWAYS TURN ON THE FLASH IF ENTERED WITH A PASTE VERB REQUEST.
#	3.  ALL NORMAL DISPLAYS ARE RESTARTABLE EXCEPT GODSP(R), REGODSP(R)
#	4.  ALL EXTENDED VERBS WITH DISPLAYS SHOULD START WITH A TC TESTXACT AND FINISH WITH A TC ENDEXT.
#	5.  GODSP(R) AND REGODSP(R) MUST BE IN THE SAME EBANK AND SUPERBANK AS THE LAST NORMAL DISPLAY RESTARTED
#	    BY A .1 RESTART PHASE CHANGE.
#	6.  IN ORDER TO SET UP A NON DISPLAY .1 RESTART POINT, THE USER MUST MAKE CERTAIN THAT RESTREG CONTAINS THE
#	    CORRECT PRIORITY AND SUPERBANK AND THAT EBANKTEM CONTAINS THE CO
#	7.  IF CLEANDSP IS RESTARTED VIA A .1 PHASE CHANGE, CAF ZERO SHOULD BE EXECUTED BEFORE THE TC BANKCALL.

## Page 1351
# CALLING SEQUENCE FOR BLANKING
#		CAF	BITX		X=1,2,3 BLANK R1,R2,R3 RESPECTIVELY
#		TC	BLANKET
#		...	...		RETURN TO USER HERE
# IN ORDER TO USE BLANKET CORRECTLY THE USER MUST USE A DISPLAY ROUTINE THAT ENDS IN R FIRST FOLLOWED BY THE CALL
# TO BLANKET AT THE IMMEDIATE RETURN LOC.
		BLOCK	02
		SETLOC	FFTAG4
		BANK

		COUNT*	$$/DSPLA
BLANKET		TS	MPAC +6
		CS	PLAYTEM4
		MASK	MPAC +6
		INDEX	MPAC +5
		ADS	PLAYTEM4

		TC	Q

ENDMARK		TC	POSTJUMP
		CADR	MARKEND

CLEARMRK	CAF	ZERO
		TS	EXTVBACT

 +2		INHINT
		CS	XDSPBIT
		MASK	FLAGWRD4
		TS	FLAGWRD4

		RELINT
		TC	Q

# ***ALL EXTENDED VERB ROUTINES THAT HAVE AT LEAST ONE FLASHING DISPLAY MUST TCF ENDMARK OR TCF ENDEXT WHEN
# FINISHED.

		BANK	10
		SETLOC	DISPLAYS
		BANK

		COUNT*	$$/DSPLA

# NTERONLY IS USED TO DIFFERENTIATE THE MARK ROUTINE WITH ONLY ONE RETURN TO THE USER FROM THE MARKING ROUTINE WIT
# 3 RETURNS TO THE USER.  THIS ROUTINE IS ONLY USED BY GOMARK1 AND GOMARK1R.

MARKEND		TC	CLEARMRK
		TCF	MARKOVER

GOMARK		TS	PLAYTEM1	# ENTRANCE FOR MARK GODSP

## Page 1352
GOMARS		CAF	BIT15		# BIT15 SET FOR ALL MARK REQUESTS
		TCF	GOFLASH2

KLEENEX		CAF	ZERO		# CLEAN OUT EXTENDED VERBS
GOMARKF		TS	PLAYTEM1	# ENTRANCE FOR MARK GOFLASH

		CAF	MARKFMSK	# MARK,FLASH
		TCF	GOFLASH2

PRIOMONR	TS	PLAYTEM1
		CAF	PRIMNMSK	# PRIORITY,MONITOR,FLASHING DISPLAY
		TCF	GOFLASH2

GOMARK2		TS	PLAYTEM1	# MARK GOPERFS-3 AST. RETURNS
MARKFORM	CAF	MPERFMSK	# MARK, PERFORM, FLASH
		TCF	GOFLASH2
GOMARK3		TS	PLAYTEM1	# USED FOR 3COMP DECIMAL PERFORM
		CAF	MARK3MSK
		TCF	GOFLASH2

GOMARK4		TS	PLAYTEM1
		CAF	MARK4MSK	# MARK,PERFORM,FLASH,BLANK
		TCF	GOFLASH2

GOMARKR		TS	PLAYTEM1	# ENTRANCE FOR MARK GODSPR

		CAF	BIT15
		TCF	GODSPR2

GOMARKFR	TS	PLAYTEM1	# ENTRANCE FOR MARK GOFLASHR

		CAF	MARKFMSK
		TCF	GODSPRS

GOMARK2R	TS	PLAYTEM1	# MARK GOPERFS-3 AST. RETS+ IMMEDIATE RET.
		CAF	MPERFMSK	# MARK, PERFORM, FLASH
		TCF	GODSPRS
 -1		AD	PRIO13
GOMARK3R	TS	PLAYTEM1
		CAF	MARK3MSK
		TCF	GODSPRS

MAKEMARK	CAF	ONE
		TC	COPIES

		CA	FLAGWRD4	# IS NORM OR PRIO BUSY OR WAITING
		MASK	OCT34300
		CCS	A
		TCF	CHKPRIO

## Page 1353
		CA	FLAGWRD4	# IS MARK SLEEPING DUE TO ASTRO BUSY
		MASK	MRKNVBIT
		EXTEND
		BZF	MARKPLAY	# NO

		TCF	ENDOFJOB

MARKPLAY	INHINT
		CS	FIVE		# RESET MARK OVER NORM, SET MARK
		MASK	FLAGWRD4
		AD	ONE
		TS	FLAGWRD4
		RELINT

GOGOMARK	CS	MARKFLAG	# PERFORM
		MASK	BIT5
		CCS	A
		TCF	MARKCOP
		CS	MARKNV
		TS	MARKNV

MARKCOP		CAF	ONE		# MARK INDEX
		TCF	PRIOPLAY

COPYTOGO	CA	MPAC2SAV
		TS	MPAC +2

COPYPACS	INDEX	COPINDEX
		CAF	PRIOOCT
		TS	GENMASK

		INDEX	COPINDEX
		CAF	EBANKSAV
		TS	TEMPOR2		# ACTIVE EBANK AND FLAG

		TS	EBANK

		TC	Q

# PINCHEK CHECKS TO SEE IF THE CURRENT MARK REQUEST IS MADE BY THE ASTRONAUT WHILE INTERRUPTING A GOPLAY DISPLAY
# (A NORMAL OR A PRIO). IF THE ASTRONAUT TRIES TO MARK DURING A PRIO, THE CHECK FAIL LIGHT GOES ON AND THE MARK
# REQUEST IS ENDED. IF HE TRIES TO MARK DURING A NORM, THE MARK IS ALLOWED. IN THIS CASE THE NORM IS PUT TO SLEEP
# UNTIL ALL MARKING IS FINISHED.
#
# IF THE MARK REQUEST COMES FROM THE PROGRAM DURING A TIME THE ASTRONAUT IS NOT INTERRUPTING A NORMAL OR A
# PRIO, THE MARK REQUEST IS PUT TO SLEEP UNTIL THE +RESENT ACTIVE DISPLAY IS RESPONDED TO BY THE ASTRONAUT.

CHKPRIO		CA	FLAGWRD4	# MARK ATTEMPT DURING PRIO
		MASK	OCT24100
		CCS	A

## Page 1354
		TCF	MARSLEEP

		CS	FLAGWRD4
		MASK	MKOVBIT		# SET MARK OVER NORM
		INHINT
		ADS	FLAGWRD4

		TCF	SETNORM

MARKPERF	CA	MARKNV
		MASK	VERBMASK
		TCF	NV50DSP

GODSP		TS	PLAYTEM1

GODSP2		CAF	ZERO
		TCF	GOFLASH2

GODSPRET	TS	PLAYTEM1	# ENTRANCE FOR A GODSP WITH A PASTE

		CAF	BIT6		# SET BIT6 TO GO BACK TO USER AFTER NVSUB
		TCF	GOFLASH2

GODSPR		TS	PLAYTEM1

GODSPR1		CAF	ZERO
GODSPR2		TS	PLAYTEM4

		CAF	ZERO		# * DONT MOVE
		TCF	GODSPRS1

# CLEANDSP IS USED FOR CLEARING OUT A NORMAL DISPLAY THAT IS PRESENTLY ACTIVE OR A NORMAL DISPLAY THAT IS
# SET UP TO BE STARTED OR RESTARTED.
#
# NORMALLY THE USER WILL NOT NEED TO USE THIS ROUTINE SINCE A NEW NORMAL DISPLAY AUTOMATICALLY CLEARS OUT AN
# OLD DISPLAY.
#
# CALLING SEQUENCE FOR CLEANDSP-
#
#		TC	BANKCALL
#		CADR	CLEANDSP

CLEANDSP	CAF	ZERO
REFLASH		TS	PLAYTEM1

		CAF	REDOMASK	# FLASH AND PERMIT
		TCF	GOFLASH2

REFLASHR	TS	PLAYTEM1

## Page 1355
		CAF	REDOMASK	# FLASH AND PERMIT
		TCF	GODSPRS

REGODSP		TS	PLAYTEM1

		CAF	BIT14
		TCF	GOFLASH2

REGODSPR	TS	PLAYTEM1

		CAF	BIT14
		TCF	GODSPR2

CLOCPLAY	TS	PLAYTEM1
		CAF	CLOCKCON
		TCF	GOFLASH2

GOFLASH		TS	PLAYTEM1

		CAF	BIT4		# LEAVE ONLY FLASH BIT SET
GOFLASH2	TS	PLAYTEM4

		TC	SAVELOCS

		RELINT

		TCF	MAKEPLAY	# BRANCH DIRECT WITH NO SEPARATE JOB CALL

PRIODSPR	TS	PLAYTEM1

		CAF	BITS7+4
		TCF	GODSPRS

PRIODSP		TS	PLAYTEM1

SETPRIO		CAF	BITS7+4
		TCF	GOFLASH2

MAKEPRIO	CAF	ZERO
		TS	COPINDEX

		TC	LINUSCHR
		TCF	HIPRIO		# LINUS RETURN
		CA	FLAGWRD4
		MASK	OCT20100	# IS PRIO IN ENDIDLE OR BUSY
		CCS	A
		TCF	PRIOBORT	# YES, ABORT

HIPRIO		INHINT
		CS	DSPTAB +11D	# SET BITS 15 AND 1

## Page 1356
		MASK	OCT40001	# (WHATEVER THEIR PREVIOUS STATE)
		ADS	DSPTAB +11D	#   TO TURN ON SUPER-KEYRELEASE LIGHT

		RELINT
		CA	FLAGWRD4	# MARK ACTIVE
		MASK	OCT40400
		EXTEND
		BZF	ASKIFNRM	# NO

SETMARK		CAF	ZERO
		TCF	JOBXCHS

ASKIFNRM	CA	FLAGWRD4	# NORMAL ACTIVE
		MASK	OCT10200	# BITS 13+8
		EXTEND
		BZF	OKTOCOPY	# NO

SETNORM		CAF	ONE
		TCF	JOBXCHS

OKTOCOPY	TC	COPYNORM
		TC	WITCHONE

		TC	JOBWAKE

		TC	XCHTOEND

REDOPRIO	CA	TIME1		# SAVE TIME PRIODSP SENT OUT
		TS	PRIOTIME

KEEPPRIO	CAF	ZERO		# START UP PRIO DISPLAY
		TS	COPINDEX
		CS	DSPFLG
		MASK	BIT8
		CCS	A
		TCF	NVDSP
		CA	NVWORD
		MASK	MID7
		TS	L
		CS	NVWORD
		TS	NVWORD
		TCF	NVDSP   +1

MAKEPLAY	CA	PRIORITY	# SAVE USERS PRIORITY
		MASK	PRIO37
		TS	USERPRIO

		CAF	PRIO33		# RAISE PRIORITY FOR FAST JOBS AFTER WAKE
		TC	PRIOCHNG

## Page 1357
		CA	PLAYTEM4	# IS IT MARK OR PRIO OR NORM
		MASK	BITS15+7
		CCS	A
		TCF	MAKEPRIO	# ITS PRIO
		TCF	IFLEGAL
		TCF	MAKEMARK	# ITS MARK

IFLEGAL		CAF	TWO
		TS	COPINDEX

		TC	LINUSCHR

		TCF	OKTOPLAY	# LINUS RETURN
		CS	EBANKTEM
		MASK	BIT4
		CCS	A
		TCF	OKTOPLAY	# NO

		CA	FLAGWRD4	# WAS NORM ASLEEP
		MASK	NBUSMASK	# ARE ANY NORMS ASLEEP
		EXTEND
		BZF	OKTOPLAY	# NO

PRIOBORT	TC	BAILOUT
		OCT	31502

OKTOPLAY	TC	COPIES2

		CA	USERPRIO
		EXTEND
		ROR	SUPERBNK
		TS	RESTREG

		CA	FLAGWRD4	# PRIO OR MARK GOING
		MASK	PMMASK
		CCS	A
		TCF	GOSLEEPS	# YES

		TCF	+2
		TCF	GOSLEEPS	# MARK GOING

# COULD PUT NORM BUSY CHECK HERE TO SAVE TIME
		TC	WITCHONE	# IS IT NVSUB BUSY, ENDIDLE OR NOONE
		TC	JOBWAKE

		TC	XCHTOEND

PLAYJUM1	CAF	TWO
PRIOPLAY	TS	COPINDEX

## Page 1358
		TCF	GOPLAY

EXDSPRET	TS	PLAYTEM1

		CAF	BIT15+6
		TCF	GOFLASH2

GOPERF1		TS	NORMTEM1	# STORE DESIRED CHECKLIST VALUE
		CAF	V01N25		# USED TO DISPLAY CHECKLIST VALUE IN R1

GOPERFS		TS	PLAYTEM1

		CAF	PERFMASK	# LEAVE ONLY FLASH, PERFORM, BLANKING
		TCF	GOFLASH2

GOPERF2		TS	PLAYTEM1	# DESIRED VERB-NOUN TO DISPLAY R1,R2,R3

		CAF	PERF2MSK
		TCF	GOFLASH2

GOPERF4		TC	PURRS4

		TCF	GOFLASH2

GOFLASHR	TS	PLAYTEM1

		CAF	BIT4		# LEAVE ONLY FLASH BIT SET
GODSPRS		TS	PLAYTEM4

		CAF	THREE

GODSPRS1	INHINT			# IMMEDIATE RETURN IS CALL CADR +4
		TS	RUPTREG3

		CA	PRIORITY	# MAKE DISPLAY ONE HIGHER THAN USER
		MASK	PRIO37
		TS	NEWPRIO

		CA	PLAYTEM4	# IS THIS A FLASHING R DISPLAY
		MASK	BIT4
		CCS	A
		TCF	VACDSP		# YES, MAKE DSPLAY JOB A VAC
		CA	NEWPRIO		# NO, MAKE DSPLAY JOB A NOVAC
		TC	NOVAC
## [WORKAROUND] Not in original; to adjust subsequent 2CADR.
                SBANK=  LOWSUPER
		EBANK=	WHOCARES
		2CADR	MAKEPLAY

		TCF	BOTHJOBS

VACDSP		CA	BBANK

## Page 1359
		EXTEND
		ROR	SUPERBNK
		TS	L
		CAF	MAKEGEN
		TC	SPVAC

BOTHJOBS	TC	SAVELOCS	# COPY TEMPS INTO PERMANENT REGISTERS

		EXTEND			# SAVE NVWORD AND USERS MPAC +2
		DCA	MPAC +1
		INDEX	LOCCTR
		DXCH	MPAC +1

		EXTEND			# SAVE USERS CADR, FLAGS AND EBANK
		DCA	MPAC +3
		INDEX 	LOCCTR
		DXCH	MPAC +3

		CA	LOCCTR
		TS	MPAC +5

		TC	SAVELOCR
		RELINT

		TCF	BANKJUMP	# CALL CADR +4

GOPERF1R	TS	NORMTEM1	# DESIRED CHECKLIST VALUE

		CAF	V01N25		# DISPLAYS CHECKLIST VALUE IN R1

GOPERFRS	TS	PLAYTEM1

		CAF	PERFMASK	# LEAVE ONLY FLASH, PERFORM, BLANKING
		TCF	GODSPRS

GOPERF2R	TS	PLAYTEM1	# DESIRED VERB-NOUN TO DISPLAY R1,R2,R3

		CAF	PERF2MSK
		TCF	GODSPRS

GOPERF4R	TC	PURRS4

		TCF	GODSPRS

PURRS4		TS	OPTION1		# DESIRED OPTION CODE

		CAF	V04N06
		TS	PLAYTEM1

		CAF	PERF4MSK	# FLASH,PERFORM AND BLANK R3

## Page 1360
		TC	Q

SAVELOCS	INHINT

		CS	OCT3400		# EBANK BITS
		MASK	PLAYTEM4
		AD	EBANK
		TS	PLAYTEM4

SAVELOCR	LXCH	Q

		TC	MAKECADR
		TS	PLAYTEM3

		AD	RUPTREG3	# NOT USED FOR NON R ROUTINES
		TC	L

COPYNORM	CAF	ZERO
COPIES		TS	COPINDEX
COPIES2		INHINT
		CA	PLAYTEM4	# FLAGWORD
		INDEX	COPINDEX
		TS	EBANKSAV	# EQUIV TO DSPFLG

		MASK	CADRMASK	# FLASH AND GODSPRET
		EXTEND
		BZF	SKIPADD

		CA	PLAYTEM3
		INDEX	COPINDEX
		TS	CADRFLSH

SKIPADD		CA	PLAYTEM1	# VERB NOUN
		INDEX	COPINDEX
		TS	NVWORD

		TCF	RELINTQ

GOSLEEPS	INDEX	COPINDEX
		CA	PRIOOCT
		MASK	WAITMASK
		TC	UPENT2
WAITMASK	OCT	3004
		CS	ONE
		AD	COPINDEX
		TS	FACEREG

XCHSLEEP	INDEX	FACEREG
		CAF	WAKECADR
		INHINT

## Page 1361
		TC	JOBWAKE		# FIND CADR IN JOB AREA

		TC	XCHTOEND	# CAUSES AWAKENED JOB TO GO TO ENDOFJOB

		INDEX	FACEREG		# REPLACE SAME CADR BUT NEW JOB AREA
		CAF	WAKECADR
		TCF	JOBSLEEP

JOBXCHS		TS	FACEREG		# CONTROLS TYPE OF DISPLAY PUT TO SLEEP
		TC	WITCHONE
		TC	JOBWAKE
		CA	FACEREG
		INDEX	LOCCTR
		TS	FACEREG

		CAF	XCHQADD
		TC	XCHNYLOC

		INDEX	FACEREG
		CA	MARKOCT
		MASK	IDLESLEP
		TC	DOWNENT2
IDLEMASK	OCT	74004		# * DONT MOVE

		INDEX	FACEREG		# BIT SHOWS PRIO INTERRUPTED NORM OR MARK
		CA	BIT5		# BIT5 FOR MARK, BIT4 FOR NORMAL
		AD	FOUR
		TC	UPENT2		# FLAG ROUTINE DOES RELINT
XCHQADD		GENADR	XCHSLEEP	# * DONT MOVE
		CA	FLAGWRD4
		MASK	MKOVBIT		# MARK OVER NORM ?
		CCS	A
GENMARK		TC	MARKPLAY	# USED AS GENADR FOR JOBWAKE
		TCF	OKTOCOPY

MARKWAKE	CAF	ZERO
WAKEPLAY	TS	TEMPOR2

		INDEX	TEMPOR2
		CA	BITS5+11
		AD	FOUR
		TC	DOWNENT2
MARKFMSK	OCT	40010		# ***DONT MOVE

		INDEX	TEMPOR2
		CAF	WAKECADR
		INHINT
		TC	JOBWAKE

		TCF	ENDRET

## Page 1362
#	ALL .1 RESTARTS BRANCH DIRECTLY TO INITDSP. NORMAL DISPLAYS ARE THEONLY DISPLAYS ALLOWED TO USE .1 RESTARTS
# INITDSP FIRST RESTORES THE EBANK AND THE SUPERBANK TO THE MOST RECENT NORMAL EBANK AND SUPERBANK.
#
#	IF THE MOST RECENT NORMAL DISPLAY REQUEST WAS NOT FINISHED, CONTROLIS SENT BACK TO THE LAST NORMAL USER.
# OTHERWISE THE NORMAL DISPLAY SET UP IN THE NORMAL DISPLAY REGS IS STARTED UP IMMEDIATELY.

INITDSP		CA	EBANKTEM	# RESTORE MOST RECECT NORMAL EBANK
		TS	EBANK

		CA	RESTREG		# SUPERBANK AND JOB PRIORITY
		TC	SUPERSW		# RESTORE SUPERBANK

		MASK	PRIO37
		TC	PRIOCHNG

		CS	THREE
		AD	TEMPFLSH
		TCF	BANKJUMP

PINBRNCH	RELINT			# FOR GOPIN USERS
		CA	MARK2PAC	# NEEDED TO SAVE MPAC +2 FOR MARK USERS
		TS	MPAC +2		# ONLY

		CA	FLAGWRD4	# PINBRANCH CONDITION
		MASK	PINMASK
		CCS	A
		TCF	+3
		TCF	ERASER		# ** NOTHING IN ENDIDLE
		TCF	MARKPLAY

NORMBNCH	TC	UPFLAG		# SET PINBRANCH BIT
		ADRES	PINBRFLG

		CAF	PRIODBIT	# PRIO INTERRUPTED
		MASK	FLAGWRD4
		CCS	A
		TCF	KEEPPRIO

		TCF	PLAYJUM1

NVDSP           ZL
		TC	COPYPACS

		CA	TEMPOR2		# SET UP BLANK BITS FOR NVMONOPT IN CASE
		MASK	SEVEN		# USER REQUESTS BLANKING MONITOR
		ADS	L

		CS	BIT13
		INDEX	COPINDEX
		MASK	DSPFLG
		INDEX	COPINDEX

## Page 1363
		TS	DSPFLG

		MASK	BIT8		# BIT 8 SET IF PRIO MONITOR OR DEC MARK
		INDEX	COPINDEX
		TCF	+1
		CA	OCT2600		# CAUSES V16 TO BE IN A AT NVMONOPT
		TS	TEM1		# SET, BIT 8 IN TEM1 IF DEC MARK
		CA	MPAC +2
		TS	MPAC2SAV

		TS	MARK2PAC	# * FOR DISK ONLY *
		INDEX	COPINDEX
		CCS	NVWORD
		TCF	NVDSP1
		TCF	CLEANEND
		INDEX	COPINDEX
		CS	NVWORD
		INDEX	COPINDEX
		TS	NVWORD
		MASK	LOW7
		AD	V05N00M1
		AD	TEM1
NVDSP1		AD	ONE
NV50DSP		TC	NVMONOPT
		TCF	REST		# IF BUSY
		TC	FLASHOFF	# IN CASE OF EXTENDED VERB NON FLASH

		TC	COPYTOGO	# MPACS DESTROYED BY NVSUB
		TC	DOWNFLAG	# UNSET SLEEPING BITS
		ADRES	MRKNVFLG
		TC	DOWNFLAG
		ADRES	NRMNVFLG
		TC	DOWNFLAG
		ADRES	PRONVFLG
BLANKCHK	CA	TEMPOR2		# BLANK BITS 1,2,3 IF SET
		TC	BLANKSUB
		TCF	NVDSP
PERFCHEK	CAF	BIT5		# BIT5 FOR PERFORM
		MASK	TEMPOR2
		CCS	A		# IS THIS A GOPERF DISPLAY
		TCF	1STOR2ND	# YES

GOANIDLE	CAF	BIT4
		MASK	TEMPOR2
		CCS	A
		TCF	FLASHSUB	# IT IS

		CS	TEMPOR2		# IS THIS A GODSPRET
		MASK	BIT6
		CCS	A

## Page 1364
		TCF	ISITN00

		INDEX	COPINDEX
		CA	CADRFLSH
		TS	MPAC +3
		TCF	ENDIT

ISITN00		INDEX	COPINDEX	# IS THIS A PASTE
		CA	NVWORD
		MASK	LOW7		# CHECK MADE FOR PINBRNCH AND PRIO ON MARK
		EXTEND
		BZF	FLASHSUB	# YES, ASSUME PASTE ALWAYS ON FLASH

		TCF	ENDOFJOB	# NOT FLASH, NOT GOPERF, THERFORE EXIT

1STOR2ND	CA	TEMPOR2
		MASK	BIT13
		CCS	A
		TCF	GOANIDLE	# SECOND

		CA	BIT13
		INDEX	COPINDEX
		ADS	DSPFLG

		ZL
		EXTEND			# IS IT MARK
		BZMF	MARKPERF	# YES

		MASK	BIT12
		EXTEND
		BZF	V50PASTE
		CS	NVWORD1		# NVOWRD1= -0 IS V97.  NVWORD1= -400 IS V99
		AD	V97N00
		TCF	NV50DSP
V50PASTE	CAF	V50N00
		TCF	NV50DSP		# DISPLAY SECOND PART OF GOPERF

WITCHONE	CS	BIT5		# TURN OFF KEY RELEASE LIGHT
		EXTEND
		WAND	DSALMOUT

		CA	FLAGWRD4
		MASK	NVBUSMSK	# IS IT NVSUB ASLEEP
		CCS	A
		CAF	ONE
		TS	L
		CAF	ZERO
		INDEX	L
		XCH	CADRSTOR

## Page 1365
		INHINT
		TC	Q

XCHTOEND	CAF	ENDINST		# TC ENDOFJOB REPLACES GENADR IN LOC FOR
XCHNYLOC	XCH	LOCCTR		# WAS THIS ADDRESS SLEEPING
		EXTEND
		BZMF	RELINTQ		# NO
		XCH	LOCCTR		# YES
		INDEX	LOCCTR
		TS	LOC

RELINTQ		RELINT
		TC	Q		# BACK TO USER

CLEANEND	CAF	PRIO32		# ONE LOWER THAN DISPLAYS SLEEPING
		TC	FINDVAC
		EBANK=	NVSAVE
		2CADR	JAMTERM

		TCF	FLASHSUB +1

ISITPRIO	CA	FLAGWRD4
		MASK	ITISMASK	# IS PINBRFLG, MARKIDFLG SET
		EXTEND
		BZF	PRIOBORT
		TCF	ENDOFJOB

REST		CCS	CADRSTOR	# IS SOMEONE IN ENDIDLE
		TCF	ENDOFJOB	# YES
		TCF	RESTSLEP

		TCF	ENDOFJOB

RESTSLEP	CA	GENMASK		# SET NVSLEEP BITS
		MASK	ASTROMSK
		TC	UPENT2
OCT24100	OCT	24100		# *** DONT MOVE

		INDEX	COPINDEX
		CAF	NVCADR
		TC	NVSUBUSY	# BUSY OR ABORT IF ILLEGAL

FLASHSUB	TC	FLASHON

		CA	COPINDEX	# COPINDEX DESTROYED BY ENDIDLE
		TS	COPMPAC

		CA	GENMASK
		MASK	IDLEMASK

## Page 1366
		TC	UPENT2
ITISMASK	OCT	40040		# *** ENDIDLE ALLOW *** DONT MOVE

		CCS	CADRSTOR	# SEE IF SOMEONE ALREADY IN ENDIDLE
		TCF	ISITPRIO
		TCF	+2
		TCF	ISITPRIO

		TC	ENDIDLE
IDLERET1	TCF	TERMATE

		TCF	PROCEED		# ENDIDLE RETURNS HERE ON PROCEED

		CS	LOWLOAD
		AD	MPAC		# VERBREG
		EXTEND
		DIM	A
		EXTEND
		BZF	LOADITIS	# V21 OR V22 OR V23 ON DSKY
OKTOENT		CAF	TWO
ENDOUT		TS	OUTHERE

		CA	FLAGWRD4	# CHECK NATURE OF ENDIDLE RETURN
		MASK	OCT60000
		CCS	A
		TCF	TIMECHEK	# PRIO ENDIDLE RETURN
		TCF	NORMRET		# NORMAL ENDIDLE RETURN
		TCF	MARKRET		# MARK ENDIDLE RETURN

TIMECHEK	CS	TIME1
		AD	PRIOTIME
		CCS	A
		COM
		AD	OCT37776
		AD	ONE
		AD	-2SEC
		EXTEND
		BZMF	KEEPPRIO

		INHINT
		CS	OCT40001	# TURN OFF SUPER-KEYRELEASE LIGHT
		MASK	DSPTAB +11D
		AD	BIT15
		TS	DSPTAB +11D

		TCF	NORMRET

NORMWAKE	CAF	ONE
		TCF	WAKEPLAY

## Page 1367
ENDRET		CCS	OUTHERE
		AD	ONE
		TCF	+2		# NORMAL ENDIDLE EXIT
		TCF	ENDOFJOB
		INDEX	COPMPAC
		AD	CADRFLSH
		TS	MPAC +3

		CA	GENMASK		# REMOVE ENDIDLE AND PINBRANCH BITS
		MASK	PINIDMSK
		TC	DOWNENT2
PINIDMSK	OCT	74044		# *** DONT MOVE

		CS	THREE		# BLANK EVERYTHING EXCEPT MM
		TC	NVSUB
		TCF	+1

ENDIT		CA	USERPRIO	# RETURN TO USERS PRIORITY
		MASK	PRIO37
		TC	PRIOCHNG
		CA	MPAC +3
		TCF	BANKJUMP

TERMATE		CAF	ZERO		# ASTRONAUT TERMINATE (V34) RETURNS TO
		TCF	ENDOUT

LINUSCHR	CS	PLAYTEM4	# IS THIS A LINUS
		MASK	BIT14
		CCS	A
		TCF	Q+1		# NO
		CS	PLAYTEM3	# YES, IS IT ALREADY IN ENDIDLE
		INDEX	COPINDEX
		AD	CADRFLSH
		EXTEND
		BZF	+2		# YES

		TC	Q		# NO
		CCS	DSPLOCK		# IS THE ASTRONAUT BUSY
		TC	ENDOFJOB	# END THE NEW DISPLAY, ITS ALREADY ACTIVE
		TC	Q

# MORE LOGIC COULD BE INCORPORATED HERE TO MAKE SURE A RECYCLE IS A RECYCLAND CONVERSLY THAT A LOAD IS A LOAD.

PROCEED		CAF	ONE		# ASTRONAUT PROCEED (V33) RETURNS
		TCF	ENDOUT

#	LASTPLAY CHECKS TO SEE IF (1) THE LAST NORMAL DISPLAY WAS EITHER INTERRUPTED BY A PRIO OR A MARK (MARK
# COULD ONLY HAPPEN DURING PINBRANCH) OR IF (2) THE LAST NORMAL DISPLAY WAS REQUESTED WHILE A HIGHER PRIORITY
# DISPLAY WAS GOING RESULTING IN THE NORMAL BEING PUT TO SLEEP.
#
#	IF EITHER OF THE ABOVE 2 CONDITIONS EXISTS , THE NORMAL DISPLAY IS AWAKENED TO GO TO PLAYJUM1 WHICH STARTS

## Page 1368
# UP THE MOST RECENT VALID NORMAL DISPLAY. IF THESE 2 CONDITIONS DO NOT EXIST, CONTROL GOES TO PLAYJUM1 WHICH IS
# STARTED IMMEDIATELY WITH THE ASSUMPTION THAT THE MOST RECENT NORMAL DISPLAY IS ALREADY IN-ENDIDLE(DURING A
# PINBRANCH) OR THAT A RESTART HAS OCCURRED AND THE DISPLAY CAN BE STARTED AS A .1 RESTART.

MARKRET		CS	SIX
		MASK	FLAGWRD4
		INHINT			# *** MAY MOVE DISPLAY FLAGWORD OUT OF
		TS	FLAGWRD4

		RELINT			# INHINT REALM
		TCF	ENDRET

MARKOVER	CAF	MINUS1		# RUPTREG2 IS - MEANS ENDOFJOB TO ENDRET
		TS	OUTHERE

		CA	FLAGWRD4	# IS ENDIDFLG SET
		MASK	PRIO30		# IS NORMAL OR PRIO IN ENDIDLE
		CCS	A
		TCF	NORMBNCH

NORMRET		CA	FLAGWRD4	# IS MARK SLEEPING
		MASK	BITS5+11	# OR WAITING
		CCS	A
		TCF	MARKWAKE

		CA	FLAGWRD4	# NO
		MASK	BITS4+10	# IS NORMAL INTERRUPTED OR WAITING
		CCS	A
		TCF	NORMWAKE	# YES

		CA	EBANKTEM	# NO, WAS IT A FLASH REQUEST
		MASK	OCT50		# OR A GODSPRET
		CCS	A
		TCF	ENDRET		# YES
		CA	NVSAVE
		EXTEND
		BZF	ENDRET

		CAF	PRIO15
		INHINT
		TC	NOVAC
		EBANK=	NVWORD
		2CADR	PLAYJUM1

		TCF	ENDRET

MARSLEEP	CA	FLAGWRD4	# IS MARK ALREADY IN
		MASK	BITS5+11
		CCS	A

## Page 1369
		TCF	ENDOFJOB	# YES
		TCF	GOSLEEPS

LOADITIS	INDEX	COPMPAC
		CA	NVWORD
		MASK	LOW7
		COM
		AD	MPAC +1		# NOUNREG
		EXTEND
		BZF	OKTOENT		# NO, THEN LOAD IS VALID
		TCF	PINBRNCH	# YES, ACCEPT LOAD BUT ASK FOR LAST AGAIN

ERASER		CS	THREE		# BLANK EVERYTHING EXCEPT MM
		TC	NVSUB
		TCF	ENDOFJOB
		TCF	ENDOFJOB

PERFMASK	OCT	0036		# FLASH,PERFORM,BLANK R2 AND R3
V01N25		VN	00125
V06N07		VN	00607		# GOPERF3 VN DISPLAY BEFORE V50
V50N00		VN	5000
PERF2MSK	OCT	00030		# FLASH, PERFORM
V04N06		VN	00406
PERF4MSK	OCT	14		# FLASH, BLANK R3
GOAGIN		EQUALS	PINBRNCH
REDOMASK	OCT	20010		# BITS 4 AND 14
MARK3MSK	OCT	40230		# MARK,DECIMAL NOUN, PERFORM,FLASH
MARK4MSK	OCT	40036		# MARK,PERFORM,FLASH,BLANK 2 AND 3
NVCADR		CADR	REDOPRIO
WAKECADR	CADR	MARKPLAY
		CADR	PLAYJUM1

OCT3400		OCT	3400		# EBANK MASK
NBUSMASK	OCT	11210
PMMASK		OCT	66521
VERBMASK	=	MID7		# (OCT 37600)
V05N00M1	OCT	1177		# V05 MINUS ONE
GOXDSP		EQUALS	GOMARK
GOXDSPR		EQUALS	GOMARKR
GOXDSPF		EQUALS	GOMARKF
GOXDSPFR	EQUALS	GOMARKFR
ENDEXT		EQUALS	ENDMARK
MPAC2SAV	EQUALS	BANKSET
NVBUSMSK	OCT	700
ASTROMSK	OCT	704
MPERFMSK	OCT	40030		# BIT 15,5,4 FOR MARK,PERFORM,FLASH
OCT34300	OCT	34300
BITS15+7	OCT	40100
BITS7+4		OCT	110
BITS5+11	OCT	2020		# * DONT MOVE

## Page 1370
BITS4+10	OCT	1010		# * DONT MOVE
LOWLOAD		DEC	22
BUSYMASK	OCT	77730
CADRMASK	OCT	50
PINMASK		EQUALS	13,14,15
GOPLAY		EQUALS	NVDSP
#PRIOSAVE	EQUALS	R1SAVE
COPMPAC		EQUALS	MPAC +3
TEMPOR2		EQUALS	MPAC +4
OUTHERE		EQUALS	MPAC +5
COPINDEX	EQUALS	LOC
USERPRIO	EQUALS	MODE
GENMASK		EQUALS	MPAC +6
PRIOOCT		OCT	20144		# PRIO
MARKOCT		OCT	42424		# MARK
		OCT	11254		# NORM

IDLESLEP	OCT	74704
OCT67777	OCT	67777
LINUS		EQUALS	BLANKET
FACEREG		EQUALS	MPAC
PLAYTEM1	EQUALS	MPAC +1
PLAYTEM3	EQUALS	MPAC +3
PLAYTEM4	EQUALS	MPAC +4
OCT40420	OCT	40420
MAKEGEN		GENADR	MAKEPLAY
OCT10200	OCT	10200
V97N00		VN	09700		# PASTE FOR V97 OR V99
OCT20100	OCT	20100
CLOCKCON	OCT	24030		# FLASH, PERFORM, V99 OR V97 PASTE,REFLASH
OCT2600		OCT	02600
PRIMNMSK	OCT	00310		# MONITOR PASTE, PRIO, FLASH


000002:                                                                                                  ## Copyright:   Public domain.
000003:                                                                                                  ## Filename:    DISPLAY_INTERFACE_ROUTINES.agc
000004:                                                                                                  ## Purpose:     A section of Luminary revision 210.
000005:                                                                                                  ##              It is part of the source code for the Lunar Module's (LM)
000006:                                                                                                  ##              Apollo Guidance Computer (AGC) for Apollo 15-17.
000007:                                                                                                  ##              This file is intended to be a faithful transcription, except
000008:                                                                                                  ##              that the code format has been changed to conform to the
000009:                                                                                                  ##              requirements of the yaYUL assembler rather than the
000010:                                                                                                  ##              original YUL assembler.
000011:                                                                                                  ## Reference:   pp. 1338-1370
000012:                                                                                                  ## Assembler:   yaYUL
000013:                                                                                                  ## Contact:     Ron Burkey <info@sandroid.org>.
000014:                                                                                                  ## Website:     www.ibiblio.org/apollo/index.html
000015:                                                                                                  ## Mod history: 2016-11-17 JL   Created from Luminary131 version.
000016:                                                                                                  ##              2016-12-08 JS   Compared to Luminary210 images. Updated where needed.
000017:                                                                                                  ##              2016-12-10 HG   Add missing operator ZL (label NVDSP)
000018:                                                                                                  ##              2016-12-11 HG   fix operand NVDISP -> NVDSP
000019:                                                                                                  ##              2016-12-12 HG   add [WORKAROUND] with SBANK=
000020:                                                                                                  ##              2016-12-12 MAS  "PRIOSAVE EQUALS R1SAVE" is sneakily a comment.
000021:                                                                                                  ##              2016-12-26 RSB  Comment-text proofed using ProoferComments
000022:                                                                                                  ##                              and corrected errors found.
000023:


000025:                                                                                                  #  DISPLAYS CAN BE CLASSIFIED INTO THE FOLLOWING CATEGORIES-
000026:                                                                                                  #        1.  PRIORITY DISPLAYS- DISPLAYS WHICH TAKE PRIORITY OVER ALL OTHER DISPLAYS.  USUALLY THESE DISPLAYS ARE SENT
000027:                                                                                                  #            OUT UNDER CRITICAL ALARM CONDITIONS.
000028:                                                                                                  #        2.  EXTENDED VERB DISPLAYS- ALL EXTENDED VERBS AND MARK ROUTINES SHOULD USE EXTENDED VERB (MARK) DISPLAYS.
000029:                                                                                                  #        3.  NORMAL DISPLAYS- ALL MISSION PROGRAM DISPLAYS WHICH INTERFACE WITH THE ASTRONAUT DURING THE NORMAL
000030:                                                                                                  #            SEQUENCE OF EVENTS.
000031:                                                                                                  #        4.  MISC. DISPLAYS- ALL DISPLAYS NOT HANDLED BY THE DISPLAY INTERFACEROUTINES. THESE INCLUDE SUCH DISPLAYS AS
000032:                                                                                                  #            MM DISPLAYS AND SPECIAL PURPOSE DISPLAYS HANDLED BY PINBALL.
000033:                                                                                                  #        5.  ASTRONAUT INITIATED DISPLAYS- ALL DISPLAYS INITIATED EXTERNALLY.
000034:
000035:                                                                                                  #  THE FOLLOWING TERMS ARE USED TO DESCRIBE THE STATUS OF DISPLAYS-
000036:                                                                                                  #        1.  ACTIVE-THE DISPLAY WHICH IS (1) BEING DISPLAYED TO THE ASTRONAUT AND WAITING FOR A RESPONSE OR
000037:                                                                                                  #            (2) WAITING FIRST IN LINE FOR THE ASTRONAUT TO FINISH USING THE DSKY OR (3) BEING DISPLAYED ON THE DSKY
000038:                                                                                                  #            BUT NOT WAITING FOR A RESPONSE.
000039:                                                                                                  #        2.  INACTIVE -A DISPLAY WHICH HAS (1) BEEN ACTIVE BUT WAS INTERRUPTEDBY A DISPLAY OF HIGHER PRIORITY,
000040:                                                                                                  #            (2) BEEN PUT INTO THE WAITING LIST AT TIME IT WAS REQUESTED DUE TO THE FACT A HIGHER PRIORITY DISPLAY
000041:                                                                                                  #            WAS ALREADY GOING, (3) BEEN INTERRUPTED BY THE ASTRONAUT (CALLED A PINBRANCH CONDITION, SINCE THIS TYPE
000042:                                                                                                  #            OF INACTIVE DISPLAY IS USUALLY REACTIVATED ONLY BY PINBALL) OR (4) A DISPLAY WHICH HAS FINISHED BUT STILL
000043:                                                                                                  #            HAS INFO SAVED FOR RESTART PURPOSES.
000044:
000045:                                                                                                  #  DISPLAY PRIORITIES WORK AS FOLLOWS-
000046:                                                                                                  #        INTERRUPTS-
000047:                                                                                                  #                1.  THE ASTRONAUT CAN INTERRUPT ANY DISPLAY WITH AN EXTERNAL DISPLAY REQUEST.
000048:                                                                                                  #                2.  INTERNAL DISPLAYS CAN NOT BE SENT OUT WHEN THE ASTRONAUT IS USING THE DSKY.
000049:                                                                                                  #                3.  PRIORITY DISPLAYS INTERRUPT ALL OTHER TYPES OF INTERNAL DISPLAYS. A PRIORITY DISPLAY INTERRUPTING ANOTHER
000050:                                                                                                  #                    PRIORITY DISPLAY WILL CAUSE AN ABORT UNLESS BIT14 IS SET FOR THE LINUS ROUTINE.
000051:                                                                                                  #                4.  A MARK DISPLAY INTERRUPTS ANY NORMAL DISPLAY.
000052:                                                                                                  #                5.  A MARK THAT INTERRUPTS A MARK COMPLETELY REPLACES IT.
000053:
000054:                                                                                                  #        ORDER OF WAITING DISPLAYS-
000055:                                                                                                  #                1.  ASTRONAUT EXTERNAL USE
000056:                                                                                                  #                2.  PRIORITY
000057:                                                                                                  #                3.  INTERRUPTED MARK
000058:                                                                                                  #                4.  INTERRUPTED NORMAL
000059:                                                                                                  #                5.  MARK TO BE REQUESTED (SEE DESCRIPTION OF ENDMARK)
000060:                                                                                                  #                6.  MARK WAITING
000061:                                                                                                  #                7.  NORMAL WAITING
000062:


000064:                                                                                                  #  THE DISPLAY ROUTINES ARE INTENDED TO SERVE AS AN INTERFACE BETWEEN THE USER AND PINBALL.  THE
000065:                                                                                                  #  FOLLOWING STATEMENTS CAN BE MADE ABOUT NORMAL DISPLAYS AND PRIORITY DISPLAYS (A DESCRIPTION OF MARK ROUTINES
000066:                                                                                                  #  WILL FOLLOW LATER):
000067:                                                                                                  #        1.  ALL ROUTINES THAT END IN R HAVE AN IMMEDIATE RETURN TO THE USER.  FOR ALL FLASHING DISPLAYS THIS RETURN
000068:                                                                                                  #            IS TO THE USERS CALL CADR +4.  FOR THE ONLY NON FLASHING IMMEDIATE RETURN DISPLAY (GODSPR) THIS RETURN
000069:                                                                                                  #            IS TO THE USERS CALLING LOC +1.
000070:                                                                                                  #        2.  ALL ROUTINES NOT ENDING IN R DO NOT DO AN IMMEDIATE RETURN TO THE USER.
000071:                                                                                                  #        3.  ALL ROUTINES THAT END IN R START A SEPARATE JOB (MAKEPLAY) WITH USERS JOB PRIORITY.
000072:                                                                                                  #        4.  ALL ROUTINES NOT ENDING IN R BRANCH DIRECTLY TO MAKEPLAY WHICH MAKES THESE DISPLAYS A PART OF THE
000073:                                                                                                  #            USERS JOB.
000074:                                                                                                  #        5.  ALL DISPLAY ROUTINES ARE CALLED VIA BANKCALL.
000075:                                                                                                  #        6.  TO RESTART A DISPLAY THE USER WILL GENERALLY USE A PHASE OF ONE WITH DESIRED RESTART GROUP (SEE
000076:                                                                                                  #            DESCRIPTION OF RESTARTS).
000077:                                                                                                  #        7.  ALL FLASHING DISPLAYS HAVE 3 RETURNS TO THE USER FROM ASTRONAUT RESPONSES.  A TERMINATE (V34) BRANCHES
000078:                                                                                                  #            TO THE USERS CALL CADR +1.  A PROCEED (V33) BRANCHES TO THE USERS CALL CADR +2.  AN ENTER OR RECYCLE
000079:                                                                                                  #            (V32) BRANCHES TO THE USERS CALL CADR +3.
000080:                                                                                                  #        8.  ALL ROUTINES MUST BE USED UNDER EXECUTIVE CONTROL.
000081:
000082:                                                                                                  #  A DESCRIPTION OF EACH ROUTINE WITH AN EXAMPLE FOLLOWS:
000083:                                                                                                  #        GODSP IS USED TO DISPLAY A VERB NOUN ARRIVING IN A.  NO RETURN IS MADE TO THE USER.
000084:                                                                                                  #                1.  GODSP IS NOT RESTARTABLE
000085:                                                                                                  #                2.  A VERB PASTE WITH GODSP ALWAYS TURNS ON THE FLASH.
000086:                                                                                                  #                                CAF     VXXNYY
000087:                                                                                                  #                                TC      BANKCALL
000088:                                                                                                  #                                CADR    GODSP
000089:                                                                                                  #                        VXXNYY  OCT     OXXYY
000090:                                                                                                  #        GODSPR IS THE SAME AS GODSP ONLY RETURN IS TO THE USER.
000091:                                                                                                  #                                CAF     VXXNYY
000092:                                                                                                  #                                TC      BANKCALL
000093:                                                                                                  #                                CADR    GODSPR
000094:                                                                                                  #                                ...     ...             IMMEDIATE RETURN OF GODSPR
000095:                                                                                                  #        GOFLASH DISPLAYS A FLASHING VERB NOUN WITH NO IMMEDIATE RETURN TO THE USER.  3 RETURNS ARE POSSIBLE FROM
000096:                                                                                                  #        THE ASTRONAUT (SEE NO. 7 ABOVE).
000097:                                                                                                  #                                CAF     VXXNYY          VXX NYY WILL BE A FLASHING VERB NOUN.
000098:                                                                                                  #                                TC      BANKCALL
000099:                                                                                                  #                                CADR    GOFLASH
000100:                                                                                                  #                                ...     ...             TERMINATE RETURN
000101:                                                                                                  #                                ...     ...             PROCEED RETURN
000102:                                                                                                  #                                ...     ...             ENTER OR RECYCLE RETURN
000103:                                                                                                  #        GOPERF1 IS ENTERED WITH DESIRED CHECKLIST VALUE IN A.  GOPERF1 WILL DISPLAY THIS VALUE IN R1 BY MEANS OF A
000104:


000106:                                                                                                  #        V01 N25.A FLASHING PLEASE PERFORM ON CHECKLIST ( V50 N25) IS THEN DISPLAYED.  NO IMMEDIATE RETURN IS MADE TO
000107:                                                                                                  #        USER (SEE NO. 7 ABOVE).
000108:                                                                                                  #        GOPERF1 BLANKS REGISTERS R2 AND R3
000109:                                                                                                  #                                CAF     OCTXX           CODE FOR CHECKLIST VALUE XX
000110:                                                                                                  #                                TC      BANKCALL
000111:                                                                                                  #                                CADR    GOPERF1
000112:                                                                                                  #                                ...     ...             TERMINATE RETURN
000113:                                                                                                  #                                ...     ...             PROCEED RETURN
000114:                                                                                                  #                                ...     ...             ENTER RETURN
000115:                                                                                                  #        GOPERF2 IS ENTERED WITH A VARIABLE NOUN AND V01 ( V00 FOR N10 OR N11) IN A.  GOPERF2 WILL FIRST DISPLAY THE
000116:                                                                                                  #        REQUESTED NOUN BY MEANS OF A V01NYY OR A V00NYY. PLEASE PERFORM ON NOUN (V50 NYY) THEN BECOMES A FLASHING
000117:                                                                                                  #        DISPLAY.  NO IMMEDIATE RETURN IS MADE TO THE USER (SEE NO. 7 ABOVE).
000118:                                                                                                  #        GOPERF2 DOES NOT BLANK ANY REGISTERS
000119:                                                                                                  #                                CAF     VXXNYY          VARIABLE NOUN YY. XX=00 OR 01.
000120:                                                                                                  #                                TC      BANKCALL
000121:                                                                                                  #                                CADR    GOPERF2
000122:                                                                                                  #                                ...     ...             TERMINATE RETURN
000123:                                                                                                  #                                ...     ...             PROCEED RETURN
000124:                                                                                                  #                                ...     ...             ENTER RETURN
000125:                                                                                                  #        GOPERF3 IS USED FOR A PLEASE PERFORM ON A PROGRAM NUMBER.  THE DESIRED PROGRAM NO. IS ENTERED IN A.  GOPERF3
000126:                                                                                                  #        DISPLAYS THE NO. BY MEANS OF A V06 N07 FOLLOWED BY A FLASHING V50 N07 FOR A PLEASE PERFORM. NO IMMEDIATE RETURN
000127:                                                                                                  #        IS MADE TO THE USER (SEE NO. 7 ABOVE).
000128:                                                                                                  #        GOPERF3 BLANKS REGISTERS R2 AND R3
000129:                                                                                                  #                                CAF     DECXX           REQUEST PERFORM ON PXX
000130:                                                                                                  #                                TC      BANKCALL
000131:                                                                                                  #                                CADR    GOPERF3
000132:                                                                                                  #                                ...     ...             TERMINATE RETURN
000133:                                                                                                  #                                ...     ...             PROCEED RETURN
000134:                                                                                                  #                                ...     ...             ENTER RETURN
000135:                                                                                                  #        GOPERF4 IS USED FOR A PLEASE PERFORM ON AN OPTION. THE DESIRED OPTION ISENTERED IN A AND STORED IN OPTION1.
000136:                                                                                                  #        GOPERF4 DISPLAYS R1 AND R2 BY MEANS OF A V04N06 FOLLOWED BY A FLASHING  V50N06 FOR A PLEASE PERFORM. NO
000137:                                                                                                  #        IMMEDIATE RETURN IS MADE TO THE USER (SEE NO. 7 ABOVE).
000138:                                                                                                  #                                CAF     OCTXX           REQUEST PERFORM ON OPTION XX
000139:                                                                                                  #                                TC      BANKCALL
000140:                                                                                                  #                                CADR    GOPERF4
000141:                                                                                                  #                                ...     ...             TERMINATE RETURN
000142:                                                                                                  #                                ...     ...             PROCEED RETURN
000143:                                                                                                  #                                ...     ...             ENTER RETURN
000144:                                                                                                  #        GOPERF4 BLANKS REGISTER R3
000145:


000147:                                                                                                  #        GODSPRET IS USED TO DISPLAY A VERB NOUN ARRIVING IN A WITH A RETURN TO THE USER AFTER THE DISPLAY HAS BEEN SENT
000148:                                                                                                  #        OUT.
000149:                                                                                                  #                                CAF     VXXNYY
000150:                                                                                                  #                                TC      BANKCALL
000151:                                                                                                  #                                CADR    GODSPRET
000152:                                                                                                  #                                ...     ...             RETURN TO USER
000153:                                                                                                  #        REGODSP IS USED TO DISPLAY A VERB NOUN ARRIVING IN A.  REGODSP IS THE SAME AS GODSP ONLY REGODSP REPLACES ANY
000154:                                                                                                  #        ACTIVE NORMAL DISPLAY IF ONE WAS ACTIVE.
000155:                                                                                                  #                                CAF     VXXNYY
000156:                                                                                                  #                                TC      BANKCALL
000157:                                                                                                  #                                CADR    REGODSP
000158:                                                                                                  #        REFLASH IS THE SAME AS GOFLASH ONLY REFLASH REPLACES ANY ACTIVE NORMAL DISPLAY IF ONE WAS ACTIVE.
000159:                                                                                                  #                                CAF     VXXNYY          VXX NYY WILL BE A FLASHING VERB NOUN
000160:                                                                                                  #                                TC      BANKCALL
000161:                                                                                                  #                                CADR    REFLASH
000162:                                                                                                  #                                ...     ...             TERMINATE RETURN
000163:                                                                                                  #                                ...     ...             PROCEED RETURN
000164:                                                                                                  #                                ...     ...             ENTER RETURN
000165:                                                                                                  #        GOFLASHR IS SAME AS GOFLASH ONLY AN IMMEDIATE RETURN IS MADE TO THE USERS CALL CADR +4.
000166:                                                                                                  #                                CAF     VXXNYY
000167:                                                                                                  #                                TC      BANKCALL
000168:                                                                                                  #                                CADR    GOFLASHR
000169:                                                                                                  #                                ...     ...             TERMINATE RETURN
000170:                                                                                                  #                                ...     ...             PROCEED RETURN
000171:                                                                                                  #                                ...     ...             ENTER OR RECYCLE RETURN
000172:                                                                                                  #                                ...     ...             IMMEDIATE RETURN FROM GOFLASHR
000173:                                                                                                  #        GOPERF1R IS THE SAME AS GOPERF1 ONLY GOPERF1R HAS AN IMMEDIATE RETURN TO USERS CALL CADR +4.
000174:                                                                                                  #        GOPERF1R BLANKS REGISTERS R2 AND R3
000175:                                                                                                  #                                CAF     OCTXX           CODE FOR CHECKLIST VALUE XX.
000176:                                                                                                  #                                TC      BANKCALL
000177:                                                                                                  #                                CADR    GOPERF1R
000178:                                                                                                  #                                ...     ...             TERMINATE RETURN
000179:                                                                                                  #                                ...     ...             PROCEED RETURN
000180:                                                                                                  #                                ...     ...             ENTER RETURN
000181:                                                                                                  #                                ...     ...             IMMEDIATE RETURN FROM GOPERF1R
000182:                                                                                                  #        GOPERF2R IS THE SAME AS GOPERF2 ONLY AN IMMEDIATE RETURN IS MADE TO USERS CALL CADR +4.
000183:


000185:                                                                                                  #        GOPERF2R DOES NOT BLANK ANY REGISTERS
000186:                                                                                                  #                                CAF     VXXNYY          VARIABLE NOUN YY REQUESTED.  XX=00 OR 01
000187:                                                                                                  #                                TC      BANKCALL
000188:                                                                                                  #                                CADR    GOPERF2R
000189:                                                                                                  #                                ...     ...             TERMINATE RETURN
000190:                                                                                                  #                                ...     ...             PROCEED RETURN
000191:                                                                                                  #                                ...     ...             ENTER RETURN
000192:                                                                                                  #                                ...     ...             IMMEDIATE RETURN HERE FROM GOPERF2R
000193:                                                                                                  #        GOPERF3R IS THE SAME AS GOPERF3 ONLY AN IMMEDIATE RETURN IS MADE TO USERS CALL CADR +4.
000194:                                                                                                  #        GOPERF3R BLANKS REGISTERS R2 AND R3
000195:                                                                                                  #                                CAF     PROGXX          PERFORM PROGRAM XX
000196:                                                                                                  #                                TC      BANKCALL
000197:                                                                                                  #                                CADR    GOPERF3R
000198:                                                                                                  #                                ...     ...             TERMINATE RETURN
000199:                                                                                                  #                                ...     ...             PROCEED RETURN
000200:                                                                                                  #                                ...     ...             ENTER RETURN
000201:                                                                                                  #                                ...     ...             GOPERF3R IMMEDIATELY RETURNS HERE
000202:                                                                                                  #        GOPERF4R IS THE SAME AS GOPERF4 ONLY AN IMMEDIATE RETURN IS MADE TO USERS CALL CADR +4.
000203:                                                                                                  #                                CAF     OCTXX           REQUEST PERFORM ON OPTIONXX
000204:                                                                                                  #                                TC      BANKCALL
000205:                                                                                                  #                                CADR    GOPERF4R
000206:                                                                                                  #                                ...     ...             TERMINATE RETURN
000207:                                                                                                  #                                ...     ...             PROCEED RETURN
000208:                                                                                                  #                                ...     ...             ENTER RETURN
000209:                                                                                                  #                                ...     ...             IMMEDIATE RETURN TO USER
000210:                                                                                                  #        GOPERF4R BLANKS REGISTER R3
000211:                                                                                                  #        REFLASHR IS THE SAME AS REFLASH ONLY AN IMMEDIATE RETURN IS MADE TO THE USERS CALL CADR +4.
000212:                                                                                                  #                                CAF     VXXNYY          VXX NYY WILL BE A FLASHING VERB NOUN
000213:                                                                                                  #                                TC      BANKCALL
000214:                                                                                                  #                                CADR    REFLASHR
000215:                                                                                                  #                                ...     ...             TERMINATE RETURN
000216:                                                                                                  #                                ...     ...             PROCEED RETURN
000217:                                                                                                  #                                ...     ...             ENTER RETURN
000218:                                                                                                  #                                ...     ...             IMMEDIATE RETURN TO USER
000219:                                                                                                  #        REGODSPR IS THE SAME AS REGODSP ONLY A RETURN (IMMEDIATE) IS MADE TO THE USER.
000220:


000222:                                                                                                  #                                CAF     VXXNYY
000223:                                                                                                  #                                TC      BANKCALL
000224:                                                                                                  #                                CADR    REGODSPR
000225:                                                                                                  #                                ...     ...             IMMEDIATE RETURN TO USER
000226:


000228:                                                                                                  #        GOMARK IS USED TO DISPLAY A MARK VERB NOUN ARRIVING IN A. NO RETURN IS MADE TO THE USER.
000229:                                                                                                  #        GOXDSP = GOMARK
000230:                                                                                                  #                                CAF     VXXNYY          VXXNYY CONTAINS VERB AND NOUN
000231:                                                                                                  #                                TC      BANKCALL
000232:                                                                                                  #                                CADR    GOMARK          OTHER EXTENDED VERBS USE CADR GOXDSP
000233:                                                                                                  #        GOMARKR IS THE SAME AS GOMARK ONLY RETURN IS TO THE USER.
000234:                                                                                                  #        GOXDSPR = GOMARKR
000235:                                                                                                  #                                CAF     VXXNYY
000236:                                                                                                  #                                TC      BANKCALL
000237:                                                                                                  #                                CADR    GOMARKR         OTHER EXTENDED VERBS USE CADR GOXDSPR
000238:                                                                                                  #                                ...     ...             IMMEDIATE RETURN OF GOMARKR
000239:                                                                                                  #        GOMARKF DISPLAYS A FLASHING MARK VERB NOUN WITH NO IMMEDIATE RETURN TO THE USER. 3 RETURNS ARE POSSIBLE FROM
000240:                                                                                                  #        THE ASTRONAUT (SEE NO. 7 ABOVE).
000241:                                                                                                  #        GOXDSPF = GOMARKF
000242:                                                                                                  #                                CAF     VXXNYY          VXXNYY WILL BE A FLASHING MARK VERB NOUN
000243:                                                                                                  #                                TC      BANKCALL
000244:                                                                                                  #                                CADR    GOMARKF         OTHER EXTENDED VERBS USE CADR GOXDSPF
000245:                                                                                                  #                                ...     ...             TERMINATE RETURN
000246:                                                                                                  #                                ...     ...             PROCEED RETURN
000247:                                                                                                  #                                ...     ...             ENTER OR RECYCLE RETURN
000248:                                                                                                  #        GOMARKFR IS THE SAME AS GOMARKF ONLY AN  IMMEDIATE RETURN IS MADE TO THE USER CALL CADR +4.
000249:                                                                                                  #        GOXDSPFR = GOMARKFR
000250:                                                                                                  #                                CAF     VXXNYY          FLASHING MARK VERB NOUN
000251:                                                                                                  #                                TC      BANKCALL
000252:                                                                                                  #                                CADR    GOMARKFR        OTHER EXTENDED VERBS USE CADR GOXDSPFR
000253:                                                                                                  #                                ...     ...             TERMINATE RETURN
000254:                                                                                                  #                                ...     ...             PROCEED RETURN
000255:                                                                                                  #                                ...     ...             ENTER OR RECYCLE RETURN
000256:                                                                                                  #                                ...     ...             IMMEDIATE RETURN TO THE USER
000257:                                                                                                  #        GOMARK1 IS USED FOR A PLEASE PERFORM ON A MARK REQUEST WITH ONLY 1 ASTRONAUT RETURN TO THE USER. NO IMMEDIATE
000258:                                                                                                  #        RETURN IS MADE. THE DESIRED MARK PLEASE PERFORM VERB AND DESIRED NOUN ISENTERED IN A. GOMARK1 DISPLAYS R1, R2, R
000259:                                                                                                  #        MEANS OF A V05NYY FOLLOWED BY A FLASHING V5XNYY FOR A PLEASE PERFORM. THE ASTRONAUT WILL RESPOND WITH A MARK
000260:                                                                                                  #        OR MARK REJECT OR AN ENTER. THE ENTER IS THE ONLY ASTRONAUT RESPONSE THAT WILL COME BACK TO THE USER.
000261:                                                                                                  #                                CAF     V5XNYY          X=1,2,3,4       Y= NOUN
000262:                                                                                                  #                                TC      BANKCALL
000263:


000265:                                                                                                  #                                CADR    GOMARK1
000266:                                                                                                  #                                ...     ...             ENTER RETURN
000267:                                                                                                  #        *** IF BLANKING DESIRED ON NON R ROUTINES, NOTIFY DISPLAYER.
000268:
000269:                                                                                                  #        GOMARK1R IS THE SAME AS A GOMARK1 ONLY AN IMMEDIATE RETURN IS MADE TO THE USERS CALL CADR +2.
000270:                                                                                                  #                                CAF     V5XNYY          X=1,2,3,4       YY = NOUN
000271:                                                                                                  #                                TC      BANKCALL
000272:                                                                                                  #                                CADR    GOMARK1R
000273:                                                                                                  #                                ...     ...             ASTRONAUT ENTER RETURN
000274:                                                                                                  #                                ...     ...             IMMEDIATE RETURN TO USER
000275:                                                                                                  #        GOMARK2 IS THE SAME AS GOMARK1 ONLY 3 RETURNS ARE MADE TO THE USER FROM THE ASTRONAUT.
000276:                                                                                                  #                                CAF     V5XNYY          X=1,2,3,4       YY=NOUN
000277:                                                                                                  #                                TC      BANKCALL
000278:                                                                                                  #                                CADR    GOMARK2
000279:                                                                                                  #                                ...     ...             TERMINATE RETURN
000280:                                                                                                  #                                ...     ...             PROCEED RETURN
000281:                                                                                                  #                                ...     ...             ENTER RETURN
000282:                                                                                                  #        GOMARK2R IS THE SAME AS GOMARK1R ONLY 3 ASTRONAUT RETURNS ARE MADE TO THE USER.
000283:                                                                                                  #                                CAF     V5XNYY          X=0,1,2,3,4     YY=NOUN
000284:                                                                                                  #                                TC      BANKCALL
000285:                                                                                                  #                                CADR    GOMARK2R
000286:                                                                                                  #                                ...     ...             TERMINATE RETURN
000287:                                                                                                  #                                ...     ...             PROCEED RETURN
000288:                                                                                                  #                                ...     ...             ENTER RETURN
000289:                                                                                                  #                                ...     ...             IMMEDIATE RETURN TO THE USER
000290:                                                                                                  #        GOMARK3 IS USED FOR A PLEASE PERFORM ON A MARK REQUEST WITH A 3 COMP. DEC DISPLAY. THE DESIRED MARK PLEASE
000291:                                                                                                  #        PERFORM VERB AND NOUN ARE ENTERED IN A. GOMARK3 DISPLAYS R1, R2, R3 BY MEANS OF A V06NYY FOLLOWED BY A FLASHING
000292:                                                                                                  #        V5XNYY FOR A PLEASE PERFORM. GOMARK3 HAS 3 ASTRONAUT RETURNS TO THE USER WITH NO IMMEDIATE RETURN.
000293:                                                                                                  #                                CAF     V5XNYY          X=1, 2,3,4 YY=NOUN
000294:                                                                                                  #                                TC      BANKCALL
000295:                                                                                                  #                                CADR    GOMARK3
000296:                                                                                                  #                                ...     ...             TERMINATE RETURN
000297:                                                                                                  #                                ...     ...             PROCEED RETURN
000298:                                                                                                  #                                ...     ...             ENTER RETURN
000299:                                                                                                  #        GOMARK4 IS THE SAME AS GOMARK3 ONLY R2 AND R3 ARE BLANKED AND R1 IS DISPLAYED IN OCTAL.
000300:                                                                                                  #                                CAF     V5XNYY          X=1,2,3,4 YY=NOUN
000301:                                                                                                  #                                TC      BANKCALL
000302:                                                                                                  #                                CADR    GOMARK4
000303:                                                                                                  #                                ...     ...             TERMINATE RETURN
000304:                                                                                                  #                                ...     ...             PROCEED RETURN
000305:


000307:                                                                                                  #                                ...     ...             ENTER RETURN
000308:                                                                                                  #        EXDSPRET IS USED TO DISPLAY A VERB NOUN ARRIVING IN A WITH A RETURN MADE TO THE USER AFTER THE DISPLAY HAS BEEN
000309:                                                                                                  #        SENT OUT.
000310:                                                                                                  #                                CAF     VXXNYY
000311:                                                                                                  #                                TC      BANKCALL
000312:                                                                                                  #                                CADR    EXDSPRET
000313:                                                                                                  #                                ...     ...             RETURN TO USER
000314:                                                                                                  #        KLEENEX CLEANS OUT ALL MARK DISPLAYS (ACTIVE AND INACTIVE). A RETURN IS MADE TO THE USER AFTER THE MARK DISPLAYS
000315:                                                                                                  #        HAVE BEEN CLEANED OUT.
000316:                                                                                                  #                                TC      BANKCALL
000317:                                                                                                  #                                CADR    KLEENEX
000318:                                                                                                  #                                ...     ...             RETURN TO USER
000319:                                                                                                  #        MARKBRAN IS A SPECIAL PURPOSE ROUTINE USED FOR SAVING JOB VAC AREAS (SEE DESCRIPTION OF MARKBRAN BELOW).
000320:                                                                                                  #                                TC      BANKCALL
000321:                                                                                                  #                                CADR    MARKBRAN
000322:                                                                                                  #                                ...     ...             BAD RETURN IF MARK DISPLAY NOT ACTIVE
000323:                                                                                                  #                                                        (GOOD RETURN TO IMMEDIATE RETURN LOC OF
000324:                                                                                                  #                                                        LAST FLASHING MARK R ROUTINE)
000325:                                                                                                  #        PINBRNCH REESTABLISHES THE LAST ACTIVE FLASHING DISPLAY.  IF THERE IS NO ACTIVE FLASHING DISPLAY, THE DSKY IS
000326:                                                                                                  #        BLANKED AND CONTROL IS SENT TO ENDOFJOB.
000327:                                                                                                  #                                TC      POSTJUMP
000328:                                                                                                  #                                CADR    PINBRNCH
000329:                                                                                                  #        PRIODSP IS USED AS A PRIORITY DISPLAY.  IT WILL DISPLAY A GOFLASH TYPE DISPLAY WITH THREE POSSIBLE RETURNS FROM
000330:                                                                                                  #        THE ASTRONAUT (SEE NO.7 ABOVE).
000331:                                                                                                  #                THE MAIN PURPOSE OF PRIODSP IS TO REPLACE THE PRESENT DISPLAY WITH A DISPLAY OF HIGHER PRIORITY AND TO
000332:                                                                                                  #        PROVIDE A MEANS FOR RESTORING THE OLD DISPLAY WHEN THE PRIORITY DISPLAY
000333:                                                                                                  #        IS RESPONDED TO BY THE ASTRONAUT.
000334:                                                                                                  #                THE FORMER DISPLAY IS RESTORED BY AN AUTOMATIC BRANCH TO WAKE UP THE DISPLAY THAT WAS INTERRUPTED BY THE
000335:                                                                                                  #        PRIO DISPLAY.
000336:                                                                                                  #                                CAF     VXXNYY          VXXNYY WILL BE A FLASHING VERB NOUN
000337:                                                                                                  #                                TC      BANKCALL
000338:                                                                                                  #                                CADR    PRIODSP
000339:                                                                                                  #                                ...     ...             TERMINATE RETURN
000340:                                                                                                  #                                ...     ...             PROCEED RETURN
000341:


000343:                                                                                                  #                                ...     ...             ENTER OR RECYCLE RETURN
000344:                                                                                                  #        PRIODSPR IS THE SAME AS PRIODSPONLY AN IMMEDIATE RETURN IS MADE TO THE USERS CALL CADR +4.
000345:                                                                                                  #                                CAF     VXXNYY          VXXNYY WILL BE A FLASHING VERB NOUN
000346:                                                                                                  #                                TC      BANKCALL
000347:                                                                                                  #                                CADR    PRIODSPR
000348:                                                                                                  #                                ...     ...             TERMINATE RETURN
000349:                                                                                                  #                                ...     ...             PROCEED RETURN
000350:                                                                                                  #                                ...     ...             ENTER OR RECYCLE RETURN
000351:                                                                                                  #                                ...     ...             IMMEDIATE RETURN
000352:                                                                                                  #        PRIOLARM DOES A V05N09 PRIODSPR.
000353:
000354:                                                                                                  #        CLEANDSP CLEANS OUT ALL NORMAL DISPLAYS (ACTIVE AND INACTIVE).  A RETURN IS MADE TO THE USER AFTER NORMAL
000355:                                                                                                  #        DISPLAYS ARE CLEANED OUT.
000356:                                                                                                  #                                TC      BANKCALL
000357:                                                                                                  #                                CADR    CLEANDSP
000358:                                                                                                  #                                ...     ...             RETURN TO USER
000359:


000361:
000362:                                                                                                  #  GENERAL INFORMATION
000363:                                                                                                  #  -------------------
000364:
000365:                                                                                                  #  ALARM OR ABORT EXIT MODES--
000366:                                                                                                  #        PRIOBORT        TC      ABORT
000367:                                                                                                  #                        OCT     1502
000368:
000369:                                                                                                  #        PRIOBORT IS BRANCED TO WHEN (1)  A NORMAL DISPLAY IS REQUESTED AND  ANOTHER NORMAL DISPLAY IS ALREADY ACTIVE
000370:                                                                                                  #        (REFLASH AND REGODSP ARE EXCEPTIONS) OR (2) A PRIORITY DISPLAY IS REQUESTED WHEN ANOTHER PRIORITY DISPLAY IS
000371:                                                                                                  #        ALREADY ACTIVE (A PRIORITY WITH LINUS BIT14 IS AN EXCEPTION).
000372:
000373:                                                                                                  #  ERASABLE INITIALIZATION REQUIRED--
000374:                                                                                                  #        ACCOMPLISHED BY FRESH START-    1.  FLAGWRD4 (USED EXCLUSIVELY BY DISPLAY INTERFACE ROUTINES)
000375:                                                                                                  #                                        2.  NVSAVE = NORMAL VERB AND NOUN REGISTER.
000376:                                                                                                  #                                        3.  EBANKTEM = NORMAL INACTIVE FLAGWORD(ALSO CONTAINS NORMALS EBANK).
000377:                                                                                                  #                                        5.  R1SAVE = MARKBRAN CONTROL WORD
000378:                                                                                                  #                                        4.  RESTREG = PRIORITY 30 AND SUPERBANK 3.
000379:
000380:                                                                                                  #  OUTPUT--
000381:                                                                                                  #        NVWORD = PRIO VERB AND NOUN
000382:                                                                                                  #        NVWORD +1(MARKNV) = MARK VERB AND NOUN
000383:                                                                                                  #        NVWORD +2(NVSAVE) = NORMAL VERB AND NOUN
000384:                                                                                                  #        DSPFLG(EBANKSAV) = PRIO FLAGWORD (INCLUDING EBANK)
000385:                                                                                                  #        DSPFLG +1(MARKEBAN) = MARK FLAGWORD (INCLUDING EBANK)
000386:                                                                                                  #        DSPFLG +2(EBANKTEM) = NORMAL FLAGWORD (INCLUDIG EBANK)
000387:                                                                                                  #        CADRFLSH = PRIO USERS CALL CADR +1 LOCATION
000388:                                                                                                  #        CADRFLSH +1(MARKFLSH) = MARK USERS CALL CADR +1 LOCATION
000389:                                                                                                  #        CADRFLSH +2(TEMPFLSH) = NORMAL USERS CALL CADR +1 LOCATION
000390:                                                                                                  #        PRIOTIME = TIME EACH PRIO REQUEST FIRST SENT OUT
000391:                                                                                                  #        OPTION1 = DESIRED OPTION FROM GOPERF4
000392:                                                                                                  #        FLAGWRD4 = BIT INFO FOR CONTROL OF ALL DISPLAY ROUTINES
000393:                                                                                                  #        DSPTEM1 = R1 INFO FOR ASTRONAUT FROM PERFORM DISPLAYS(NORMAL)
000394:
000395:                                                                                                  #  SUBROUTINES USED-- NVSUB, FLAGUP, FLAGDOWN, ENDOFJOB, BLANKSUB, ABORT, JOBWAKE, JOBSLEEP, FINDVAC, PRIOCHNG,
000396:                                                                                                  #        JAMTERM, NVSUBUSY, FLASHON, ENDIDLE, CHANG1, BANKJUMP, MAKECADR, NOVAC,
000397:                                                                                                  #        DEBRIS-- (STORED INTO)
000398:                                                                                                  #        TEMPORARY TEMPORARIES- A, Q, L, MPAC +2, MPAC +3, MPAC +4, MPAC +5, MPAC +6, RUPTREG2, RUPTREG3, CYL,
000399:                                                                                                  #                EBANK, RUPTREG4, LOC, BANKSET, MODE, MPAC, MPAC +1         4,FACEREG
000400:                                                                                                  #        ERASABES(SHARED AND USED WITH OTHER PROGRAMS) CADRSTOR, DSPLIST, LOC, DSPTEM1, OPTION1
000401:                                                                                                  #        ERASABLES(USED ONLY BY DISPLAY ROUTINES)- NVWORD,+1,+2, DSPFLG,+1,+2, CADRFLSH,+1,+2, PRIOTIME, FLAGWRD4,
000402:


000404:                                                                                                  #        R1SAVE, MARK2PAC,
000405:                                                                                                  #        DEBRIS-- (USED BUT NOT STORED INTO)- NOUNREG, VERBREG, LOCCTR, MONSAVE1
000406:
000407:                                                                                                  #  FLAGWORD DESCRIPTIONS--
000408:                                                                                                  #        FLAGWRD4- SEE DESCRIPTION UNDER LOG SECTION ERASABLE ASSIGNMENTS
000409:
000410:                                                                                                  #        DSPFLG, DSPFLG+1, DSPFLG +2-
000411:                                                                                                  #        ----------------------------
000412:                                                                                                  #        BITS 1  BLANK R1
000413:                                                                                                  #             2  BLANK R2
000414:                                                                                                  #             3  BLANK R3
000415:                                                                                                  #             4  FLASHING DISPLAY REQUESTED
000416:                                                                                                  #             5  PERFORM DISPLAY REQUESTED
000417:                                                                                                  #             6  -----                   EXDSPRET                GODSPRET
000418:                                                                                                  #             7  PRIO DISPLAY            -----                    -----
000419:                                                                                                  #             8  MONITOR-PASTE           DEC PERFORM             -----
000420:                                                                                                  #             9  EBANK
000421:                                                                                                  #            10  EBANK
000422:                                                                                                  #            11  EBANK
000423:                                                                                                  #            12  -----                   -----                   V99PASTE
000424:                                                                                                  #            13  2ND PART OF PERFORM
000425:                                                                                                  #            14  REFLASH OR REDO         -----                   REFLASH OR REDO
000426:                                                                                                  #            15  -----                   MARK REQUEST            -----
000427:
000428:                                                                                                  #  RESTARTING DISPLAYS--
000429:
000430:                                                                                                  #  RULES FOR THE DSKY OPERATOR--
000431:                                                                                                  #        1.  PROCEED AND TERMINATE SERVE AS RESPONSES TO REQUESTS FOR OPERATOR RESPONSE (FLASHING V/N).  AS LONG
000432:                                                                                                  #            AS THERE IS ANY REQUEST AWAITING OPERATOR RESPONSE, ANY USE OF PROCEED OR TERMINATE WILL SERVE AS
000433:                                                                                                  #            RESPONSES TO THAT REQUEST.  CARE SHOULD BE EXERCISED IN ATTEMPTING TO KILL AN OPERATOR INITIATED MONITOR
000434:                                                                                                  #            WITH PROCEED AND TERMINATE FOR THIS REASON.
000435:                                                                                                  #        2.  THE ASTRONAUT MUST RESPOND TO A PRIORITY DISPLAY NO SOONER THAN 2 SECONDS FROM THE TIME THE
000436:                                                                                                  #            PROGRAM SENT OUT THE REQUEST FOR OPERATOR RESPONSE (THE ASTRONAUT WOULD SEE THIS DISPLAY FOR LESS TIME
000437:                                                                                                  #            DUE TO TIME IT TAKES TO GET DISPLAY SENT OUT.) IF THE ASTRONAUT RESPONDS TOO SOON, THE PRIORITY DISPLAY
000438:                                                                                                  #            IS SENT OUT AGAIN -- AND AGAIN UNTIL AN ACCUMULATED 2 SECS FROM THE TIME THE FIRST PRIORITY DISPLAY
000439:                                                                                                  #            OUT. THE SAME 2 SEC. DELAY WILL OCCUR AT 163.84 SECS OR IN ANY MULTIPLE OF THAT TIME DUE TO PROGRAM
000440:                                                                                                  #            CONSIDERATION.
000441:                                                                                                  #        3.  KEY RELEASE BUTTON-
000442:                                                                                                  #            A)  IF THE KEY RELEASE LIGHT IS ON, IT SIMPLY RELEASES THE KEYBOARD AND DISPLAY FOR INTERNAL USE.
000443:                                                                                                  #            B)  IF THE KEY RELEASE LIGHT IS OFF, AND IF SOME REQUEST FOR OPERATOR RESPONSE (FLASHING V/N) IS STILL
000444:                                                                                                  #                AWAITING RESPONSE THEN IT RE-ESTABLISHES THE DISPLAYS THAT ORIGINALLY REQUESTED RESPONSE.
000445:                                                                                                  #            IF AN OPERATOR WANTS THEREFORE TO RE-ESTABLISH BUT CONDITION (A) IS ENCOUNTERED, A SECOND DEPRESSION OF
000446:                                                                                                  #            KEY RELEASE BUTTON MAY BE NECESSARY.
000447:                                                                                                  #        4.  IT IS IMPORTANT TO ANSWER ALL REQUESTS FOR OPERATOR RESPONSE.
000448:                                                                                                  #        5.  IT IS ALWAYS GOOD PRACTICE TO TERMINATE AN EXTENDED VERB BEFORE ASKING FOR ANOTHER ONE OR THE SAME ONE
000449:                                                                                                  #            OVER AGAIN.
000450:
000451:                                                                                                  #  SPECIAL CONSIDERATIONS--
000452:


000454:                                                                                                  #        1.  MPAC +2  SAVED ONLY IN MARK DISPLAYS
000455:                                                                                                  #        2.  GODSP(R),REGODSP(R),GOMARK(R) ALWAYS TURN ON THE FLASH IF ENTERED WITH A PASTE VERB REQUEST.
000456:                                                                                                  #        3.  ALL NORMAL DISPLAYS ARE RESTARTABLE EXCEPT GODSP(R), REGODSP(R)
000457:                                                                                                  #        4.  ALL EXTENDED VERBS WITH DISPLAYS SHOULD START WITH A TC TESTXACT AND FINISH WITH A TC ENDEXT.
000458:                                                                                                  #        5.  GODSP(R) AND REGODSP(R) MUST BE IN THE SAME EBANK AND SUPERBANK AS THE LAST NORMAL DISPLAY RESTARTED
000459:                                                                                                  #            BY A .1 RESTART PHASE CHANGE.
000460:                                                                                                  #        6.  IN ORDER TO SET UP A NON DISPLAY .1 RESTART POINT, THE USER MUST MAKE CERTAIN THAT RESTREG CONTAINS THE
000461:                                                                                                  #            CORRECT PRIORITY AND SUPERBANK AND THAT EBANKTEM CONTAINS THE CO
000462:                                                                                                  #        7.  IF CLEANDSP IS RESTARTED VIA A .1 PHASE CHANGE, CAF ZERO SHOULD BE EXECUTED BEFORE THE TC BANKCALL.
000463:


000465:                                                                                                  #  CALLING SEQUENCE FOR BLANKING
000466:                                                                                                  #                CAF     BITX            X=1,2,3 BLANK R1,R2,R3 RESPECTIVELY
000467:                                                                                                  #                TC      BLANKET
000468:                                                                                                  #                ...     ...             RETURN TO USER HERE
000469:                                                                                                  #  IN ORDER TO USE BLANKET CORRECTLY THE USER MUST USE A DISPLAY ROUTINE THAT ENDS IN R FIRST FOLLOWED BY THE CALL
000470:                                                                                                  #  TO BLANKET AT THE IMMEDIATE RETURN LOC.
000471:    5466                                           BLOCK    02
000472:    4000                                           SETLOC   FFTAG4
000473:    4000                                           BANK
000474:
000475:    5466                                           COUNT*   $$/DSPLA
000476:    5466           54162        BLANKET            TS       MPAC       +6
000477:    5467           40160                           CS       PLAYTEM4
000478:    5470           70162                           MASK     MPAC       +6
000479:    5471           50161                           INDEX    MPAC       +5
000480:    5472           26160                           ADS      PLAYTEM4
000481:
000482:    5473           00002                           TC       Q
000483:
000484:    5474           04626        ENDMARK            TC       POSTJUMP
000485:    5475           20315                           CADR     MARKEND
000486:
000487:    5476           34746        CLEARMRK           CAF      ZERO
000488:    5477           55043                           TS       EXTVBACT
000489:
000490:    5500           00004                 +2        INHINT
000491:    5501           44744                           CS       XDSPBIT
000492:    5502           70100                           MASK     FLAGWRD4
000493:    5503           54100                           TS       FLAGWRD4
000494:
000495:    5504           00003                           RELINT
000496:    5505           00002                           TC       Q
000497:
000498:                                                                                                  #  ***ALL EXTENDED VERB ROUTINES THAT HAVE AT LEAST ONE FLASHING DISPLAY MUST TCF ENDMARK OR TCF ENDEXT WHEN
000499:                                                                                                  #  FINISHED.
000500:
000501: 10,2315                                           BANK     10
000502: 10,2000                                           SETLOC   DISPLAYS
000503: 10,2000                                           BANK
000504:
000505: 10,2315                                           COUNT*   $$/DSPLA
000506:
000507:                                                                                                  #  NTERONLY IS USED TO DIFFERENTIATE THE MARK ROUTINE WITH ONLY ONE RETURN TO THE USER FROM THE MARKING ROUTINE WIT
000508:                                                                                                  #  3 RETURNS TO THE USER.  THIS ROUTINE IS ONLY USED BY GOMARK1 AND GOMARK1R.
000509:
000510: 10,2315           05476        MARKEND            TC       CLEARMRK
000511: 10,2316           13427                           TCF      MARKOVER
000512:
000513: 10,2317           54155        GOMARK             TS       PLAYTEM1                              #  ENTRANCE FOR MARK GODSP
000514:


000516: 10,2320           34726        GOMARS             CAF      BIT15                                 #  BIT15 SET FOR ALL MARK REQUESTS
000517: 10,2321           12473                           TCF      GOFLASH2
000518:
000519: 10,2322           34746        KLEENEX            CAF      ZERO                                  #  CLEAN OUT EXTENDED VERBS
000520: 10,2323           54155        GOMARKF            TS       PLAYTEM1                              #  ENTRANCE FOR MARK GOFLASH
000521:
000522: 10,2324           33043                           CAF      MARKFMSK                              #  MARK,FLASH
000523: 10,2325           12473                           TCF      GOFLASH2
000524:
000525: 10,2326           54155        PRIOMONR           TS       PLAYTEM1
000526: 10,2327           33553                           CAF      PRIMNMSK                              #  PRIORITY,MONITOR,FLASHING DISPLAY
000527: 10,2330           12473                           TCF      GOFLASH2
000528:
000529: 10,2331           54155        GOMARK2            TS       PLAYTEM1                              #  MARK GOPERFS-3 AST. RETURNS
000530: 10,2332           33526        MARKFORM           CAF      MPERFMSK                              #  MARK, PERFORM, FLASH
000531: 10,2333           12473                           TCF      GOFLASH2
000532: 10,2334           54155        GOMARK3            TS       PLAYTEM1                              #  USED FOR 3COMP DECIMAL PERFORM
000533: 10,2335           33513                           CAF      MARK3MSK
000534: 10,2336           12473                           TCF      GOFLASH2
000535:
000536: 10,2337           54155        GOMARK4            TS       PLAYTEM1
000537: 10,2340           33514                           CAF      MARK4MSK                              #  MARK,PERFORM,FLASH,BLANK
000538: 10,2341           12473                           TCF      GOFLASH2
000539:
000540: 10,2342           54155        GOMARKR            TS       PLAYTEM1                              #  ENTRANCE FOR MARK GODSPR
000541:
000542: 10,2343           34726                           CAF      BIT15
000543: 10,2344           12446                           TCF      GODSPR2
000544:
000545: 10,2345           54155        GOMARKFR           TS       PLAYTEM1                              #  ENTRANCE FOR MARK GOFLASHR
000546:
000547: 10,2346           33043                           CAF      MARKFMSK
000548: 10,2347           12651                           TCF      GODSPRS
000549:
000550: 10,2350           54155        GOMARK2R           TS       PLAYTEM1                              #  MARK GOPERFS-3 AST. RETS+ IMMEDIATE RET.
000551: 10,2351           33526                           CAF      MPERFMSK                              #  MARK, PERFORM, FLASH
000552: 10,2352           12651                           TCF      GODSPRS
000553: 10,2353           65014                 -1        AD       PRIO13
000554: 10,2354           54155        GOMARK3R           TS       PLAYTEM1
000555: 10,2355           33513                           CAF      MARK3MSK
000556: 10,2356           12651                           TCF      GODSPRS
000557:
000558: 10,2357           34744        MAKEMARK           CAF      ONE
000559: 10,2360           02747                           TC       COPIES
000560:
000561: 10,2361           30100                           CA       FLAGWRD4                              #  IS NORM OR PRIO BUSY OR WAITING
000562: 10,2362           73527                           MASK     OCT34300
000563: 10,2363           10000                           CCS      A
000564: 10,2364           12422                           TCF      CHKPRIO
000565:


000567: 10,2365           30100                           CA       FLAGWRD4                              #  IS MARK SLEEPING DUE TO ASTRO BUSY
000568: 10,2366           74734                           MASK     MRKNVBIT
000569: 10,2367           00006                           EXTEND
000570: 10,2370           12372                           BZF      MARKPLAY                              #  NO
000571:
000572: 10,2371           15146                           TCF      ENDOFJOB
000573:
000574: 10,2372           00004        MARKPLAY           INHINT
000575: 10,2373           44747                           CS       FIVE                                  #  RESET MARK OVER NORM, SET MARK
000576: 10,2374           70100                           MASK     FLAGWRD4
000577: 10,2375           64744                           AD       ONE
000578: 10,2376           54100                           TS       FLAGWRD4
000579: 10,2377           00003                           RELINT
000580:
000581: 10,2400           41070        GOGOMARK           CS       MARKFLAG                              #  PERFORM
000582: 10,2401           74740                           MASK     BIT5
000583: 10,2402           10000                           CCS      A
000584: 10,2403           12406                           TCF      MARKCOP
000585: 10,2404           40367                           CS       MARKNV
000586: 10,2405           54367                           TS       MARKNV
000587:
000588: 10,2406           34744        MARKCOP            CAF      ONE                                   #  MARK INDEX
000589: 10,2407           12630                           TCF      PRIOPLAY
000590:
000591: 10,2410           30165        COPYTOGO           CA       MPAC2SAV
000592: 10,2411           54156                           TS       MPAC       +2
000593:
000594: 10,2412           50164        COPYPACS           INDEX    COPINDEX
000595: 10,2413           33537                           CAF      PRIOOCT
000596: 10,2414           54162                           TS       GENMASK
000597:
000598: 10,2415           50164                           INDEX    COPINDEX
000599: 10,2416           31067                           CAF      EBANKSAV
000600: 10,2417           54160                           TS       TEMPOR2                               #  ACTIVE EBANK AND FLAG
000601:
000602: 10,2420           54003                           TS       EBANK
000603:
000604: 10,2421           00002                           TC       Q
000605:
000606:                                                                                                  #  PINCHEK CHECKS TO SEE IF THE CURRENT MARK REQUEST IS MADE BY THE ASTRONAUT WHILE INTERRUPTING A GOPLAY DISPLAY
000607:                                                                                                  #  (A NORMAL OR A PRIO). IF THE ASTRONAUT TRIES TO MARK DURING A PRIO, THE CHECK FAIL LIGHT GOES ON AND THE MARK
000608:                                                                                                  #  REQUEST IS ENDED. IF HE TRIES TO MARK DURING A NORM, THE MARK IS ALLOWED. IN THIS CASE THE NORM IS PUT TO SLEEP
000609:                                                                                                  #  UNTIL ALL MARKING IS FINISHED.
000610:
000611:                                                                                                  #  IF THE MARK REQUEST COMES FROM THE PROGRAM DURING A TIME THE ASTRONAUT IS NOT INTERRUPTING A NORMAL OR A
000612:                                                                                                  #  PRIO, THE MARK REQUEST IS PUT TO SLEEP UNTIL THE +RESENT ACTIVE DISPLAY IS RESPONDED TO BY THE ASTRONAUT.
000613:
000614: 10,2422           30100        CHKPRIO            CA       FLAGWRD4                              #  MARK ATTEMPT DURING PRIO
000615: 10,2423           73274                           MASK     OCT24100
000616: 10,2424           10000                           CCS      A
000617:


000619: 10,2425           13462                           TCF      MARSLEEP
000620:
000621: 10,2426           40100                           CS       FLAGWRD4
000622: 10,2427           74742                           MASK     MKOVBIT                               #  SET MARK OVER NORM
000623: 10,2430           00004                           INHINT
000624: 10,2431           26100                           ADS      FLAGWRD4
000625:
000626: 10,2432           12534                           TCF      SETNORM
000627:
000628: 10,2433           30367        MARKPERF           CA       MARKNV
000629: 10,2434           74144                           MASK     VERBMASK
000630: 10,2435           13140                           TCF      NV50DSP
000631:
000632: 10,2436           54155        GODSP              TS       PLAYTEM1
000633:
000634: 10,2437           34746        GODSP2             CAF      ZERO
000635: 10,2440           12473                           TCF      GOFLASH2
000636:
000637: 10,2441           54155        GODSPRET           TS       PLAYTEM1                              #  ENTRANCE FOR A GODSP WITH A PASTE
000638:
000639: 10,2442           34737                           CAF      BIT6                                  #  SET BIT6 TO GO BACK TO USER AFTER NVSUB
000640: 10,2443           12473                           TCF      GOFLASH2
000641:
000642: 10,2444           54155        GODSPR             TS       PLAYTEM1
000643:
000644: 10,2445           34746        GODSPR1            CAF      ZERO
000645: 10,2446           54160        GODSPR2            TS       PLAYTEM4
000646:
000647: 10,2447           34746                           CAF      ZERO                                  #  * DONT MOVE
000648: 10,2450           12653                           TCF      GODSPRS1
000649:
000650:                                                                                                  #  CLEANDSP IS USED FOR CLEARING OUT A NORMAL DISPLAY THAT IS PRESENTLY ACTIVE OR A NORMAL DISPLAY THAT IS
000651:                                                                                                  #  SET UP TO BE STARTED OR RESTARTED.
000652:
000653:                                                                                                  #  NORMALLY THE USER WILL NOT NEED TO USE THIS ROUTINE SINCE A NEW NORMAL DISPLAY AUTOMATICALLY CLEARS OUT AN
000654:                                                                                                  #  OLD DISPLAY.
000655:
000656:                                                                                                  #  CALLING SEQUENCE FOR CLEANDSP-
000657:
000658:                                                                                                  #                TC      BANKCALL
000659:                                                                                                  #                CADR    CLEANDSP
000660:
000661: 10,2451           34746        CLEANDSP           CAF      ZERO
000662: 10,2452           54155        REFLASH            TS       PLAYTEM1
000663:
000664: 10,2453           33512                           CAF      REDOMASK                              #  FLASH AND PERMIT
000665: 10,2454           12473                           TCF      GOFLASH2
000666:
000667: 10,2455           54155        REFLASHR           TS       PLAYTEM1
000668:


000670: 10,2456           33512                           CAF      REDOMASK                              #  FLASH AND PERMIT
000671: 10,2457           12651                           TCF      GODSPRS
000672:
000673: 10,2460           54155        REGODSP            TS       PLAYTEM1
000674:
000675: 10,2461           34727                           CAF      BIT14
000676: 10,2462           12473                           TCF      GOFLASH2
000677:
000678: 10,2463           54155        REGODSPR           TS       PLAYTEM1
000679:
000680: 10,2464           34727                           CAF      BIT14
000681: 10,2465           12446                           TCF      GODSPR2
000682:
000683: 10,2466           54155        CLOCPLAY           TS       PLAYTEM1
000684: 10,2467           33551                           CAF      CLOCKCON
000685: 10,2470           12473                           TCF      GOFLASH2
000686:
000687: 10,2471           54155        GOFLASH            TS       PLAYTEM1
000688:
000689: 10,2472           34741                           CAF      BIT4                                  #  LEAVE ONLY FLASH BIT SET
000690: 10,2473           54160        GOFLASH2           TS       PLAYTEM4
000691:
000692: 10,2474           02734                           TC       SAVELOCS
000693:
000694: 10,2475           00003                           RELINT
000695:
000696: 10,2476           12560                           TCF      MAKEPLAY                              #  BRANCH DIRECT WITH NO SEPARATE JOB CALL
000697:
000698: 10,2477           54155        PRIODSPR           TS       PLAYTEM1
000699:
000700: 10,2500           33531                           CAF      BITS7+4
000701: 10,2501           12651                           TCF      GODSPRS
000702:
000703: 10,2502           54155        PRIODSP            TS       PLAYTEM1
000704:
000705: 10,2503           33531        SETPRIO            CAF      BITS7+4
000706: 10,2504           12473                           TCF      GOFLASH2
000707:
000708: 10,2505           34746        MAKEPRIO           CAF      ZERO
000709: 10,2506           54164                           TS       COPINDEX
000710:
000711: 10,2507           03402                           TC       LINUSCHR
000712: 10,2510           12515                           TCF      HIPRIO                                #  LINUS RETURN
000713: 10,2511           30100                           CA       FLAGWRD4
000714: 10,2512           73550                           MASK     OCT20100                              #  IS PRIO IN ENDIDLE OR BUSY
000715: 10,2513           10000                           CCS      A
000716: 10,2514           12607                           TCF      PRIOBORT                              #  YES, ABORT
000717:
000718: 10,2515           00004        HIPRIO             INHINT
000719: 10,2516           41035                           CS       DSPTAB     +11D                       #  SET BITS 15 AND 1
000720:


000722: 10,2517           76130                           MASK     OCT40001                              #  (WHATEVER THEIR PREVIOUS STATE)
000723: 10,2520           27035                           ADS      DSPTAB     +11D                       #    TO TURN ON SUPER-KEYRELEASE LIGHT
000724:
000725: 10,2521           00003                           RELINT
000726: 10,2522           30100                           CA       FLAGWRD4                              #  MARK ACTIVE
000727: 10,2523           75634                           MASK     OCT40400
000728: 10,2524           00006                           EXTEND
000729: 10,2525           12530                           BZF      ASKIFNRM                              #  NO
000730:
000731: 10,2526           34746        SETMARK            CAF      ZERO
000732: 10,2527           13006                           TCF      JOBXCHS
000733:
000734: 10,2530           30100        ASKIFNRM           CA       FLAGWRD4                              #  NORMAL ACTIVE
000735: 10,2531           73546                           MASK     OCT10200                              #  BITS 13+8
000736: 10,2532           00006                           EXTEND
000737: 10,2533           12536                           BZF      OKTOCOPY                              #  NO
000738:
000739: 10,2534           34744        SETNORM            CAF      ONE
000740: 10,2535           13006                           TCF      JOBXCHS
000741:
000742: 10,2536           02746        OKTOCOPY           TC       COPYNORM
000743: 10,2537           03225                           TC       WITCHONE
000744:
000745: 10,2540           05130                           TC       JOBWAKE
000746:
000747: 10,2541           03242                           TC       XCHTOEND
000748:
000749: 10,2542           30025        REDOPRIO           CA       TIME1                                 #  SAVE TIME PRIODSP SENT OUT
000750: 10,2543           55164                           TS       PRIOTIME
000751:
000752: 10,2544           34746        KEEPPRIO           CAF      ZERO                                  #  START UP PRIO DISPLAY
000753: 10,2545           54164                           TS       COPINDEX
000754: 10,2546           41067                           CS       DSPFLG
000755: 10,2547           74735                           MASK     BIT8
000756: 10,2550           10000                           CCS      A
000757: 10,2551           13102                           TCF      NVDSP
000758: 10,2552           30366                           CA       NVWORD
000759: 10,2553           74144                           MASK     MID7
000760: 10,2554           54001                           TS       L
000761: 10,2555           40366                           CS       NVWORD
000762: 10,2556           54366                           TS       NVWORD
000763: 10,2557           13103                           TCF      NVDSP      +1
000764:
000765: 10,2560           30167        MAKEPLAY           CA       PRIORITY                              #  SAVE USERS PRIORITY
000766: 10,2561           77746                           MASK     PRIO37
000767: 10,2562           54163                           TS       USERPRIO
000768:
000769: 10,2563           37742                           CAF      PRIO33                                #  RAISE PRIORITY FOR FAST JOBS AFTER WAKE
000770: 10,2564           05137                           TC       PRIOCHNG
000771:


000773: 10,2565           30160                           CA       PLAYTEM4                              #  IS IT MARK OR PRIO OR NORM
000774: 10,2566           73530                           MASK     BITS15+7
000775: 10,2567           10000                           CCS      A
000776: 10,2570           12505                           TCF      MAKEPRIO                              #  ITS PRIO
000777: 10,2571           12573                           TCF      IFLEGAL
000778: 10,2572           12357                           TCF      MAKEMARK                              #  ITS MARK
000779:
000780: 10,2573           34743        IFLEGAL            CAF      TWO
000781: 10,2574           54164                           TS       COPINDEX
000782:
000783: 10,2575           03402                           TC       LINUSCHR
000784:
000785: 10,2576           12611                           TCF      OKTOPLAY                              #  LINUS RETURN
000786: 10,2577           41071                           CS       EBANKTEM
000787: 10,2600           74741                           MASK     BIT4
000788: 10,2601           10000                           CCS      A
000789: 10,2602           12611                           TCF      OKTOPLAY                              #  NO
000790:
000791: 10,2603           30100                           CA       FLAGWRD4                              #  WAS NORM ASLEEP
000792: 10,2604           73521                           MASK     NBUSMASK                              #  ARE ANY NORMS ASLEEP
000793: 10,2605           00006                           EXTEND
000794: 10,2606           12611                           BZF      OKTOPLAY                              #  NO
000795:
000796: 10,2607           05626        PRIOBORT           TC       BAILOUT
000797: 10,2610           31502                           OCT      31502
000798:
000799: 10,2611           02750        OKTOPLAY           TC       COPIES2
000800:
000801: 10,2612           30163                           CA       USERPRIO
000802: 10,2613           00006                           EXTEND
000803: 10,2614           04007                           ROR      SUPERBNK
000804: 10,2615           55264                           TS       RESTREG
000805:
000806: 10,2616           30100                           CA       FLAGWRD4                              #  PRIO OR MARK GOING
000807: 10,2617           73522                           MASK     PMMASK
000808: 10,2620           10000                           CCS      A
000809: 10,2621           12766                           TCF      GOSLEEPS                              #  YES
000810:
000811: 10,2622           12624                           TCF      +2
000812: 10,2623           12766                           TCF      GOSLEEPS                              #  MARK GOING
000813:
000814:                                                                                                  #  COULD PUT NORM BUSY CHECK HERE TO SAVE TIME
000815: 10,2624           03225                           TC       WITCHONE                              #  IS IT NVSUB BUSY, ENDIDLE OR NOONE
000816: 10,2625           05130                           TC       JOBWAKE
000817:
000818: 10,2626           03242                           TC       XCHTOEND
000819:
000820: 10,2627           34743        PLAYJUM1           CAF      TWO
000821: 10,2630           54164        PRIOPLAY           TS       COPINDEX
000822:


000824: 10,2631           13102                           TCF      GOPLAY
000825:
000826: 10,2632           54155        EXDSPRET           TS       PLAYTEM1
000827:
000828: 10,2633           37755                           CAF      BIT15+6
000829: 10,2634           12473                           TCF      GOFLASH2
000830:
000831: 10,2635           55044        GOPERF1            TS       NORMTEM1                              #  STORE DESIRED CHECKLIST VALUE
000832: 10,2636           33504                           CAF      V01N25                                #  USED TO DISPLAY CHECKLIST VALUE IN R1
000833:
000834: 10,2637           54155        GOPERFS            TS       PLAYTEM1
000835:
000836: 10,2640           33503                           CAF      PERFMASK                              #  LEAVE ONLY FLASH, PERFORM, BLANKING
000837: 10,2641           12473                           TCF      GOFLASH2
000838:
000839: 10,2642           54155        GOPERF2            TS       PLAYTEM1                              #  DESIRED VERB-NOUN TO DISPLAY R1,R2,R3
000840:
000841: 10,2643           33507                           CAF      PERF2MSK
000842: 10,2644           12473                           TCF      GOFLASH2
000843:
000844: 10,2645           02727        GOPERF4            TC       PURRS4
000845:
000846: 10,2646           12473                           TCF      GOFLASH2
000847:
000848: 10,2647           54155        GOFLASHR           TS       PLAYTEM1
000849:
000850: 10,2650           34741                           CAF      BIT4                                  #  LEAVE ONLY FLASH BIT SET
000851: 10,2651           54160        GODSPRS            TS       PLAYTEM4
000852:
000853: 10,2652           36266                           CAF      THREE
000854:
000855: 10,2653           00004        GODSPRS1           INHINT                                         #  IMMEDIATE RETURN IS CALL CADR +4
000856: 10,2654           54072                           TS       RUPTREG3
000857:
000858: 10,2655           30167                           CA       PRIORITY                              #  MAKE DISPLAY ONE HIGHER THAN USER
000859: 10,2656           77746                           MASK     PRIO37
000860: 10,2657           54063                           TS       NEWPRIO
000861:
000862: 10,2660           30160                           CA       PLAYTEM4                              #  IS THIS A FLASHING R DISPLAY
000863: 10,2661           74741                           MASK     BIT4
000864: 10,2662           10000                           CCS      A
000865: 10,2663           12671                           TCF      VACDSP                                #  YES, MAKE DSPLAY JOB A VAC
000866: 10,2664           30063                           CA       NEWPRIO                               #  NO, MAKE DSPLAY JOB A NOVAC
000867: 10,2665           05063                           TC       NOVAC


000869: 10,2666  30,2000                                  SBANK=   LOWSUPER
000870: 10,2666  E7,1471                                  EBANK=   WHOCARES
000871: 10,2666           02560 20067                     2CADR    MAKEPLAY
000872:
000873: 10,2670           12677                           TCF      BOTHJOBS
000874:
000875: 10,2671           30006        VACDSP             CA       BBANK
000876:


000878: 10,2672           00006                           EXTEND
000879: 10,2673           04007                           ROR      SUPERBNK
000880: 10,2674           54001                           TS       L
000881: 10,2675           33545                           CAF      MAKEGEN
000882: 10,2676           05107                           TC       SPVAC
000883:
000884: 10,2677           02734        BOTHJOBS           TC       SAVELOCS                              #  COPY TEMPS INTO PERMANENT REGISTERS
000885:
000886: 10,2700           00006                           EXTEND                                         #  SAVE NVWORD AND USERS MPAC +2
000887: 10,2701           30156                           DCA      MPAC       +1
000888: 10,2702           50064                           INDEX    LOCCTR
000889: 10,2703           52156                           DXCH     MPAC       +1
000890:
000891: 10,2704           00006                           EXTEND                                         #  SAVE USERS CADR, FLAGS AND EBANK
000892: 10,2705           30160                           DCA      MPAC       +3
000893: 10,2706           50064                           INDEX    LOCCTR
000894: 10,2707           52160                           DXCH     MPAC       +3
000895:
000896: 10,2710           30064                           CA       LOCCTR
000897: 10,2711           54161                           TS       MPAC       +5
000898:
000899: 10,2712           02741                           TC       SAVELOCR
000900: 10,2713           00003                           RELINT
000901:
000902: 10,2714           14631                           TCF      BANKJUMP                              #  CALL CADR +4
000903:
000904: 10,2715           55044        GOPERF1R           TS       NORMTEM1                              #  DESIRED CHECKLIST VALUE
000905:
000906: 10,2716           33504                           CAF      V01N25                                #  DISPLAYS CHECKLIST VALUE IN R1
000907:
000908: 10,2717           54155        GOPERFRS           TS       PLAYTEM1
000909:
000910: 10,2720           33503                           CAF      PERFMASK                              #  LEAVE ONLY FLASH, PERFORM, BLANKING
000911: 10,2721           12651                           TCF      GODSPRS
000912:
000913: 10,2722           54155        GOPERF2R           TS       PLAYTEM1                              #  DESIRED VERB-NOUN TO DISPLAY R1,R2,R3
000914:
000915: 10,2723           33507                           CAF      PERF2MSK
000916: 10,2724           12651                           TCF      GODSPRS
000917:
000918: 10,2725           02727        GOPERF4R           TC       PURRS4
000919:
000920: 10,2726           12651                           TCF      GODSPRS
000921:
000922: 10,2727           55143        PURRS4             TS       OPTION1                               #  DESIRED OPTION CODE
000923:
000924: 10,2730           33510                           CAF      V04N06
000925: 10,2731           54155                           TS       PLAYTEM1
000926:
000927: 10,2732           33511                           CAF      PERF4MSK                              #  FLASH,PERFORM AND BLANK R3
000928:


000930: 10,2733           00002                           TC       Q
000931:
000932: 10,2734           00004        SAVELOCS           INHINT
000933:
000934: 10,2735           43520                           CS       OCT3400                               #  EBANK BITS
000935: 10,2736           70160                           MASK     PLAYTEM4
000936: 10,2737           60003                           AD       EBANK
000937: 10,2740           54160                           TS       PLAYTEM4
000938:
000939: 10,2741           22002        SAVELOCR           LXCH     Q
000940:
000941: 10,2742           04636                           TC       MAKECADR
000942: 10,2743           54157                           TS       PLAYTEM3
000943:
000944: 10,2744           60072                           AD       RUPTREG3                              #  NOT USED FOR NON R ROUTINES
000945: 10,2745           00001                           TC       L
000946:
000947: 10,2746           34746        COPYNORM           CAF      ZERO
000948: 10,2747           54164        COPIES             TS       COPINDEX
000949: 10,2750           00004        COPIES2            INHINT
000950: 10,2751           30160                           CA       PLAYTEM4                              #  FLAGWORD
000951: 10,2752           50164                           INDEX    COPINDEX
000952: 10,2753           55067                           TS       EBANKSAV                              #  EQUIV TO DSPFLG
000953:
000954: 10,2754           73536                           MASK     CADRMASK                              #  FLASH AND GODSPRET
000955: 10,2755           00006                           EXTEND
000956: 10,2756           12762                           BZF      SKIPADD
000957:
000958: 10,2757           30157                           CA       PLAYTEM3
000959: 10,2760           50164                           INDEX    COPINDEX
000960: 10,2761           54371                           TS       CADRFLSH
000961:
000962: 10,2762           30155        SKIPADD            CA       PLAYTEM1                              #  VERB NOUN
000963: 10,2763           50164                           INDEX    COPINDEX
000964: 10,2764           54366                           TS       NVWORD
000965:
000966: 10,2765           13251                           TCF      RELINTQ
000967:
000968: 10,2766           50164        GOSLEEPS           INDEX    COPINDEX
000969: 10,2767           33537                           CA       PRIOOCT
000970: 10,2770           72772                           MASK     WAITMASK
000971: 10,2771           03554                           TC       UPENT2
000972: 10,2772           03004        WAITMASK           OCT      3004
000973: 10,2773           44744                           CS       ONE
000974: 10,2774           60164                           AD       COPINDEX
000975: 10,2775           54154                           TS       FACEREG
000976:
000977: 10,2776           50154        XCHSLEEP           INDEX    FACEREG
000978: 10,2777           33516                           CAF      WAKECADR
000979: 10,3000           00004                           INHINT
000980:


000982: 10,3001           05130                           TC       JOBWAKE                               #  FIND CADR IN JOB AREA
000983:
000984: 10,3002           03242                           TC       XCHTOEND                              #  CAUSES AWAKENED JOB TO GO TO ENDOFJOB
000985:
000986: 10,3003           50154                           INDEX    FACEREG                               #  REPLACE SAME CADR BUT NEW JOB AREA
000987: 10,3004           33516                           CAF      WAKECADR
000988: 10,3005           15124                           TCF      JOBSLEEP
000989:
000990: 10,3006           54154        JOBXCHS            TS       FACEREG                               #  CONTROLS TYPE OF DISPLAY PUT TO SLEEP
000991: 10,3007           03225                           TC       WITCHONE
000992: 10,3010           05130                           TC       JOBWAKE
000993: 10,3011           30154                           CA       FACEREG
000994: 10,3012           50064                           INDEX    LOCCTR
000995: 10,3013           54154                           TS       FACEREG
000996:
000997: 10,3014           33027                           CAF      XCHQADD
000998: 10,3015           03243                           TC       XCHNYLOC
000999:
001000: 10,3016           50154                           INDEX    FACEREG
001001: 10,3017           33540                           CA       MARKOCT
001002: 10,3020           73542                           MASK     IDLESLEP
001003: 10,3021           03564                           TC       DOWNENT2
001004: 10,3022           74004        IDLEMASK           OCT      74004                                 #  * DONT MOVE
001005:
001006: 10,3023           50154                           INDEX    FACEREG                               #  BIT SHOWS PRIO INTERRUPTED NORM OR MARK
001007: 10,3024           34740                           CA       BIT5                                  #  BIT5 FOR MARK, BIT4 FOR NORMAL
001008: 10,3025           64742                           AD       FOUR
001009: 10,3026           03554                           TC       UPENT2                                #  FLAG ROUTINE DOES RELINT
001010: 10,3027           02776        XCHQADD            GENADR   XCHSLEEP                              #  * DONT MOVE
001011: 10,3030           30100                           CA       FLAGWRD4
001012: 10,3031           74742                           MASK     MKOVBIT                               #  MARK OVER NORM ?
001013: 10,3032           10000                           CCS      A
001014: 10,3033           02372        GENMARK            TC       MARKPLAY                              #  USED AS GENADR FOR JOBWAKE
001015: 10,3034           12536                           TCF      OKTOCOPY
001016:
001017: 10,3035           34746        MARKWAKE           CAF      ZERO
001018: 10,3036           54160        WAKEPLAY           TS       TEMPOR2
001019:
001020: 10,3037           50160                           INDEX    TEMPOR2
001021: 10,3040           33532                           CA       BITS5+11
001022: 10,3041           64742                           AD       FOUR
001023: 10,3042           03564                           TC       DOWNENT2
001024: 10,3043           40010        MARKFMSK           OCT      40010                                 #  ***DONT MOVE
001025:
001026: 10,3044           50160                           INDEX    TEMPOR2
001027: 10,3045           33516                           CAF      WAKECADR
001028: 10,3046           00004                           INHINT
001029: 10,3047           05130                           TC       JOBWAKE
001030:
001031: 10,3050           13355                           TCF      ENDRET
001032:


001034:                                                                                                  #        ALL .1 RESTARTS BRANCH DIRECTLY TO INITDSP. NORMAL DISPLAYS ARE THEONLY DISPLAYS ALLOWED TO USE .1 RESTARTS
001035:                                                                                                  #  INITDSP FIRST RESTORES THE EBANK AND THE SUPERBANK TO THE MOST RECENT NORMAL EBANK AND SUPERBANK.
001036:
001037:                                                                                                  #        IF THE MOST RECENT NORMAL DISPLAY REQUEST WAS NOT FINISHED, CONTROLIS SENT BACK TO THE LAST NORMAL USER.
001038:                                                                                                  #  OTHERWISE THE NORMAL DISPLAY SET UP IN THE NORMAL DISPLAY REGS IS STARTED UP IMMEDIATELY.
001039:
001040: 10,3051           31071        INITDSP            CA       EBANKTEM                              #  RESTORE MOST RECECT NORMAL EBANK
001041: 10,3052           54003                           TS       EBANK
001042:
001043: 10,3053           31264                           CA       RESTREG                               #  SUPERBANK AND JOB PRIORITY
001044: 10,3054           04720                           TC       SUPERSW                               #  RESTORE SUPERBANK
001045:
001046: 10,3055           77746                           MASK     PRIO37
001047: 10,3056           05137                           TC       PRIOCHNG
001048:
001049: 10,3057           46266                           CS       THREE
001050: 10,3060           60373                           AD       TEMPFLSH
001051: 10,3061           14631                           TCF      BANKJUMP
001052:
001053: 10,3062           00003        PINBRNCH           RELINT                                         #  FOR GOPIN USERS
001054: 10,3063           31072                           CA       MARK2PAC                              #  NEEDED TO SAVE MPAC +2 FOR MARK USERS
001055: 10,3064           54156                           TS       MPAC       +2                         #  ONLY
001056:
001057: 10,3065           30100                           CA       FLAGWRD4                              #  PINBRANCH CONDITION
001058: 10,3066           77761                           MASK     PINMASK
001059: 10,3067           10000                           CCS      A
001060: 10,3070           13073                           TCF      +3
001061: 10,3071           13477                           TCF      ERASER                                #  ** NOTHING IN ENDIDLE
001062: 10,3072           12372                           TCF      MARKPLAY
001063:
001064: 10,3073           05506        NORMBNCH           TC       UPFLAG                                #  SET PINBRANCH BIT
001065: 10,3074           00105                           ADRES    PINBRFLG
001066:
001067: 10,3075           34727                           CAF      PRIODBIT                              #  PRIO INTERRUPTED
001068: 10,3076           70100                           MASK     FLAGWRD4
001069: 10,3077           10000                           CCS      A
001070: 10,3100           12544                           TCF      KEEPPRIO
001071:
001072: 10,3101           12627                           TCF      PLAYJUM1
001073:
001074: 10,3102           22007        NVDSP              ZL
001075: 10,3103           02412                           TC       COPYPACS
001076:
001077: 10,3104           30160                           CA       TEMPOR2                               #  SET UP BLANK BITS FOR NVMONOPT IN CASE
001078: 10,3105           74750                           MASK     SEVEN                                 #  USER REQUESTS BLANKING MONITOR
001079: 10,3106           26001                           ADS      L
001080:
001081: 10,3107           44730                           CS       BIT13
001082: 10,3110           50164                           INDEX    COPINDEX
001083: 10,3111           71067                           MASK     DSPFLG
001084: 10,3112           50164                           INDEX    COPINDEX
001085:


001087: 10,3113           55067                           TS       DSPFLG
001088:
001089: 10,3114           74735                           MASK     BIT8                                  #  BIT 8 SET IF PRIO MONITOR OR DEC MARK
001090: 10,3115           50164                           INDEX    COPINDEX
001091: 10,3116           13117                           TCF      +1
001092: 10,3117           33552                           CA       OCT2600                               #  CAUSES V16 TO BE IN A AT NVMONOPT
001093: 10,3120           54141                           TS       TEM1                                  #  SET, BIT 8 IN TEM1 IF DEC MARK
001094: 10,3121           30156                           CA       MPAC       +2
001095: 10,3122           54165                           TS       MPAC2SAV
001096:
001097: 10,3123           55072                           TS       MARK2PAC                              #  * FOR DISK ONLY *
001098: 10,3124           50164                           INDEX    COPINDEX
001099: 10,3125           10366                           CCS      NVWORD
001100: 10,3126           13137                           TCF      NVDSP1
001101: 10,3127           13253                           TCF      CLEANEND
001102: 10,3130           50164                           INDEX    COPINDEX
001103: 10,3131           40366                           CS       NVWORD
001104: 10,3132           50164                           INDEX    COPINDEX
001105: 10,3133           54366                           TS       NVWORD
001106: 10,3134           76115                           MASK     LOW7
001107: 10,3135           63523                           AD       V05N00M1
001108: 10,3136           60141                           AD       TEM1
001109: 10,3137           64744        NVDSP1             AD       ONE
001110: 10,3140           04146        NV50DSP            TC       NVMONOPT
001111: 10,3141           13265                           TCF      REST                                  #  IF BUSY
001112: 10,3142           04424                           TC       FLASHOFF                              #  IN CASE OF EXTENDED VERB NON FLASH
001113:
001114: 10,3143           02410                           TC       COPYTOGO                              #  MPACS DESTROYED BY NVSUB
001115: 10,3144           05520                           TC       DOWNFLAG                              #  UNSET SLEEPING BITS
001116: 10,3145           00102                           ADRES    MRKNVFLG
001117: 10,3146           05520                           TC       DOWNFLAG
001118: 10,3147           00103                           ADRES    NRMNVFLG
001119: 10,3150           05520                           TC       DOWNFLAG
001120: 10,3151           00104                           ADRES    PRONVFLG
001121: 10,3152           30160        BLANKCHK           CA       TEMPOR2                               #  BLANK BITS 1,2,3 IF SET
001122: 10,3153           04246                           TC       BLANKSUB
001123: 10,3154           13102                           TCF      NVDSP
001124: 10,3155           34740        PERFCHEK           CAF      BIT5                                  #  BIT5 FOR PERFORM
001125: 10,3156           70160                           MASK     TEMPOR2
001126: 10,3157           10000                           CCS      A                                     #  IS THIS A GOPERF DISPLAY
001127: 10,3160           13203                           TCF      1STOR2ND                              #  YES
001128:
001129: 10,3161           34741        GOANIDLE           CAF      BIT4
001130: 10,3162           70160                           MASK     TEMPOR2
001131: 10,3163           10000                           CCS      A
001132: 10,3164           13300                           TCF      FLASHSUB                              #  IT IS
001133:
001134: 10,3165           40160                           CS       TEMPOR2                               #  IS THIS A GODSPRET
001135: 10,3166           74737                           MASK     BIT6
001136: 10,3167           10000                           CCS      A
001137:


001139: 10,3170           13175                           TCF      ISITN00
001140:
001141: 10,3171           50164                           INDEX    COPINDEX
001142: 10,3172           30371                           CA       CADRFLSH
001143: 10,3173           54157                           TS       MPAC       +3
001144: 10,3174           13373                           TCF      ENDIT
001145:
001146: 10,3175           50164        ISITN00            INDEX    COPINDEX                              #  IS THIS A PASTE
001147: 10,3176           30366                           CA       NVWORD
001148: 10,3177           76115                           MASK     LOW7                                  #  CHECK MADE FOR PINBRNCH AND PRIO ON MARK
001149: 10,3200           00006                           EXTEND
001150: 10,3201           13300                           BZF      FLASHSUB                              #  YES, ASSUME PASTE ALWAYS ON FLASH
001151:
001152: 10,3202           15146                           TCF      ENDOFJOB                              #  NOT FLASH, NOT GOPERF, THERFORE EXIT
001153:
001154: 10,3203           30160        1STOR2ND           CA       TEMPOR2
001155: 10,3204           74730                           MASK     BIT13
001156: 10,3205           10000                           CCS      A
001157: 10,3206           13161                           TCF      GOANIDLE                              #  SECOND
001158:
001159: 10,3207           34730                           CA       BIT13
001160: 10,3210           50164                           INDEX    COPINDEX
001161: 10,3211           27067                           ADS      DSPFLG
001162:
001163: 10,3212           22007                           ZL
001164: 10,3213           00006                           EXTEND                                         #  IS IT MARK
001165: 10,3214           62433                           BZMF     MARKPERF                              #  YES
001166:
001167: 10,3215           74731                           MASK     BIT12
001168: 10,3216           00006                           EXTEND
001169: 10,3217           13223                           BZF      V50PASTE
001170: 10,3220           41066                           CS       NVWORD1                               #  NVOWRD1= -0 IS V97.  NVWORD1= -400 IS V99
001171: 10,3221           63547                           AD       V97N00
001172: 10,3222           13140                           TCF      NV50DSP
001173: 10,3223           33506        V50PASTE           CAF      V50N00
001174: 10,3224           13140                           TCF      NV50DSP                               #  DISPLAY SECOND PART OF GOPERF
001175:
001176: 10,3225           44740        WITCHONE           CS       BIT5                                  #  TURN OFF KEY RELEASE LIGHT
001177: 10,3226           00006                           EXTEND
001178: 10,3227           03011                           WAND     DSALMOUT
001179:
001180: 10,3230           30100                           CA       FLAGWRD4
001181: 10,3231           73524                           MASK     NVBUSMSK                              #  IS IT NVSUB ASLEEP
001182: 10,3232           10000                           CCS      A
001183: 10,3233           34744                           CAF      ONE
001184: 10,3234           54001                           TS       L
001185: 10,3235           34746                           CAF      ZERO
001186: 10,3236           50001                           INDEX    L
001187: 10,3237           57041                           XCH      CADRSTOR
001188:


001190: 10,3240           00004                           INHINT
001191: 10,3241           00002                           TC       Q
001192:
001193: 10,3242           34210        XCHTOEND           CAF      ENDINST                               #  TC ENDOFJOB REPLACES GENADR IN LOC FOR
001194: 10,3243           56064        XCHNYLOC           XCH      LOCCTR                                #  WAS THIS ADDRESS SLEEPING
001195: 10,3244           00006                           EXTEND
001196: 10,3245           63251                           BZMF     RELINTQ                               #  NO
001197: 10,3246           56064                           XCH      LOCCTR                                #  YES
001198: 10,3247           50064                           INDEX    LOCCTR
001199: 10,3250           54164                           TS       LOC
001200:
001201: 10,3251           00003        RELINTQ            RELINT
001202: 10,3252           00002                           TC       Q                                     #  BACK TO USER
001203:
001204: 10,3253           37741        CLEANEND           CAF      PRIO32                                #  ONE LOWER THAN DISPLAYS SLEEPING
001205: 10,3254           05076                           TC       FINDVAC
001206: 10,3255     0370                                  EBANK=   NVSAVE
001207: 10,3255           04222 04060                     2CADR    JAMTERM
001208:
001209: 10,3257           13301                           TCF      FLASHSUB   +1
001210:
001211: 10,3260           30100        ISITPRIO           CA       FLAGWRD4
001212: 10,3261           73306                           MASK     ITISMASK                              #  IS PINBRFLG, MARKIDFLG SET
001213: 10,3262           00006                           EXTEND
001214: 10,3263           12607                           BZF      PRIOBORT
001215: 10,3264           15146                           TCF      ENDOFJOB
001216:
001217: 10,3265           11041        REST               CCS      CADRSTOR                              #  IS SOMEONE IN ENDIDLE
001218: 10,3266           15146                           TCF      ENDOFJOB                              #  YES
001219: 10,3267           13271                           TCF      RESTSLEP
001220:
001221: 10,3270           15146                           TCF      ENDOFJOB
001222:
001223: 10,3271           30162        RESTSLEP           CA       GENMASK                               #  SET NVSLEEP BITS
001224: 10,3272           73525                           MASK     ASTROMSK
001225: 10,3273           03554                           TC       UPENT2
001226: 10,3274           24100        OCT24100           OCT      24100                                 #  *** DONT MOVE
001227:
001228: 10,3275           50164                           INDEX    COPINDEX
001229: 10,3276           33515                           CAF      NVCADR
001230: 10,3277           04433                           TC       NVSUBUSY                              #  BUSY OR ABORT IF ILLEGAL
001231:
001232: 10,3300           04420        FLASHSUB           TC       FLASHON
001233:
001234: 10,3301           30164                           CA       COPINDEX                              #  COPINDEX DESTROYED BY ENDIDLE
001235: 10,3302           54157                           TS       COPMPAC
001236:
001237: 10,3303           30162                           CA       GENMASK
001238: 10,3304           73022                           MASK     IDLEMASK
001239:


001241: 10,3305           03554                           TC       UPENT2
001242: 10,3306           40040        ITISMASK           OCT      40040                                 #  *** ENDIDLE ALLOW *** DONT MOVE
001243:
001244: 10,3307           11041                           CCS      CADRSTOR                              #  SEE IF SOMEONE ALREADY IN ENDIDLE
001245: 10,3310           13260                           TCF      ISITPRIO
001246: 10,3311           13313                           TCF      +2
001247: 10,3312           13260                           TCF      ISITPRIO
001248:
001249: 10,3313           04200                           TC       ENDIDLE
001250: 10,3314           13400        IDLERET1           TCF      TERMATE
001251:
001252: 10,3315           13417                           TCF      PROCEED                               #  ENDIDLE RETURNS HERE ON PROCEED
001253:
001254: 10,3316           43534                           CS       LOWLOAD
001255: 10,3317           60154                           AD       MPAC                                  #  VERBREG
001256: 10,3320           00006                           EXTEND
001257: 10,3321           26000                           DIM      A
001258: 10,3322           00006                           EXTEND
001259: 10,3323           13467                           BZF      LOADITIS                              #  V21 OR V22 OR V23 ON DSKY
001260: 10,3324           34743        OKTOENT            CAF      TWO
001261: 10,3325           54161        ENDOUT             TS       OUTHERE
001262:
001263: 10,3326           30100                           CA       FLAGWRD4                              #  CHECK NATURE OF ENDIDLE RETURN
001264: 10,3327           74101                           MASK     OCT60000
001265: 10,3330           10000                           CCS      A
001266: 10,3331           13334                           TCF      TIMECHEK                              #  PRIO ENDIDLE RETURN
001267: 10,3332           13435                           TCF      NORMRET                               #  NORMAL ENDIDLE RETURN
001268: 10,3333           13421                           TCF      MARKRET                               #  MARK ENDIDLE RETURN
001269:
001270: 10,3334           40025        TIMECHEK           CS       TIME1
001271: 10,3335           61164                           AD       PRIOTIME
001272: 10,3336           10000                           CCS      A
001273: 10,3337           40000                           COM
001274: 10,3340           67752                           AD       OCT37776
001275: 10,3341           64744                           AD       ONE
001276: 10,3342           63600                           AD       -2SEC
001277: 10,3343           00006                           EXTEND
001278: 10,3344           62544                           BZMF     KEEPPRIO
001279:
001280: 10,3345           00004                           INHINT
001281: 10,3346           46130                           CS       OCT40001                              #  TURN OFF SUPER-KEYRELEASE LIGHT
001282: 10,3347           71035                           MASK     DSPTAB     +11D
001283: 10,3350           64726                           AD       BIT15
001284: 10,3351           55035                           TS       DSPTAB     +11D
001285:
001286: 10,3352           13435                           TCF      NORMRET
001287:
001288: 10,3353           34744        NORMWAKE           CAF      ONE
001289: 10,3354           13036                           TCF      WAKEPLAY
001290:


001292: 10,3355           10161        ENDRET             CCS      OUTHERE
001293: 10,3356           64744                           AD       ONE
001294: 10,3357           13361                           TCF      +2                                    #  NORMAL ENDIDLE EXIT
001295: 10,3360           15146                           TCF      ENDOFJOB
001296: 10,3361           50157                           INDEX    COPMPAC
001297: 10,3362           60371                           AD       CADRFLSH
001298: 10,3363           54157                           TS       MPAC       +3
001299:
001300: 10,3364           30162                           CA       GENMASK                               #  REMOVE ENDIDLE AND PINBRANCH BITS
001301: 10,3365           73367                           MASK     PINIDMSK
001302: 10,3366           03564                           TC       DOWNENT2
001303: 10,3367           74044        PINIDMSK           OCT      74044                                 #  *** DONT MOVE
001304:
001305: 10,3370           46266                           CS       THREE                                 #  BLANK EVERYTHING EXCEPT MM
001306: 10,3371           04145                           TC       NVSUB
001307: 10,3372           13373                           TCF      +1
001308:
001309: 10,3373           30163        ENDIT              CA       USERPRIO                              #  RETURN TO USERS PRIORITY
001310: 10,3374           77746                           MASK     PRIO37
001311: 10,3375           05137                           TC       PRIOCHNG
001312: 10,3376           30157                           CA       MPAC       +3
001313: 10,3377           14631                           TCF      BANKJUMP
001314:
001315: 10,3400           34746        TERMATE            CAF      ZERO                                  #  ASTRONAUT TERMINATE (V34) RETURNS TO
001316: 10,3401           13325                           TCF      ENDOUT
001317:
001318: 10,3402           40160        LINUSCHR           CS       PLAYTEM4                              #  IS THIS A LINUS
001319: 10,3403           74727                           MASK     BIT14
001320: 10,3404           10000                           CCS      A
001321: 10,3405           16760                           TCF      Q+1                                   #  NO
001322: 10,3406           40157                           CS       PLAYTEM3                              #  YES, IS IT ALREADY IN ENDIDLE
001323: 10,3407           50164                           INDEX    COPINDEX
001324: 10,3410           60371                           AD       CADRFLSH
001325: 10,3411           00006                           EXTEND
001326: 10,3412           13414                           BZF      +2                                    #  YES
001327:
001328: 10,3413           00002                           TC       Q                                     #  NO
001329: 10,3414           11011                           CCS      DSPLOCK                               #  IS THE ASTRONAUT BUSY
001330: 10,3415           05146                           TC       ENDOFJOB                              #  END THE NEW DISPLAY, ITS ALREADY ACTIVE
001331: 10,3416           00002                           TC       Q
001332:
001333:                                                                                                  #  MORE LOGIC COULD BE INCORPORATED HERE TO MAKE SURE A RECYCLE IS A RECYCLAND CONVERSLY THAT A LOAD IS A LOAD.
001334:
001335: 10,3417           34744        PROCEED            CAF      ONE                                   #  ASTRONAUT PROCEED (V33) RETURNS
001336: 10,3420           13325                           TCF      ENDOUT
001337:
001338:                                                                                                  #        LASTPLAY CHECKS TO SEE IF (1) THE LAST NORMAL DISPLAY WAS EITHER INTERRUPTED BY A PRIO OR A MARK (MARK
001339:                                                                                                  #  COULD ONLY HAPPEN DURING PINBRANCH) OR IF (2) THE LAST NORMAL DISPLAY WAS REQUESTED WHILE A HIGHER PRIORITY
001340:                                                                                                  #  DISPLAY WAS GOING RESULTING IN THE NORMAL BEING PUT TO SLEEP.
001341:
001342:                                                                                                  #        IF EITHER OF THE ABOVE 2 CONDITIONS EXISTS , THE NORMAL DISPLAY IS AWAKENED TO GO TO PLAYJUM1 WHICH STARTS
001343:


001345:                                                                                                  #  UP THE MOST RECENT VALID NORMAL DISPLAY. IF THESE 2 CONDITIONS DO NOT EXIST, CONTROL GOES TO PLAYJUM1 WHICH IS
001346:                                                                                                  #  STARTED IMMEDIATELY WITH THE ASSUMPTION THAT THE MOST RECENT NORMAL DISPLAY IS ALREADY IN-ENDIDLE(DURING A
001347:                                                                                                  #  PINBRANCH) OR THAT A RESTART HAS OCCURRED AND THE DISPLAY CAN BE STARTED AS A .1 RESTART.
001348:
001349: 10,3421           46263        MARKRET            CS       SIX
001350: 10,3422           70100                           MASK     FLAGWRD4
001351: 10,3423           00004                           INHINT                                         #  *** MAY MOVE DISPLAY FLAGWORD OUT OF
001352: 10,3424           54100                           TS       FLAGWRD4
001353:
001354: 10,3425           00003                           RELINT                                         #  INHINT REALM
001355: 10,3426           13355                           TCF      ENDRET
001356:
001357: 10,3427           37770        MARKOVER           CAF      MINUS1                                #  RUPTREG2 IS - MEANS ENDOFJOB TO ENDRET
001358: 10,3430           54161                           TS       OUTHERE
001359:
001360: 10,3431           30100                           CA       FLAGWRD4                              #  IS ENDIDFLG SET
001361: 10,3432           74346                           MASK     PRIO30                                #  IS NORMAL OR PRIO IN ENDIDLE
001362: 10,3433           10000                           CCS      A
001363: 10,3434           13073                           TCF      NORMBNCH
001364:
001365: 10,3435           30100        NORMRET            CA       FLAGWRD4                              #  IS MARK SLEEPING
001366: 10,3436           73532                           MASK     BITS5+11                              #  OR WAITING
001367: 10,3437           10000                           CCS      A
001368: 10,3440           13035                           TCF      MARKWAKE
001369:
001370: 10,3441           30100                           CA       FLAGWRD4                              #  NO
001371: 10,3442           73533                           MASK     BITS4+10                              #  IS NORMAL INTERRUPTED OR WAITING
001372: 10,3443           10000                           CCS      A
001373: 10,3444           13353                           TCF      NORMWAKE                              #  YES
001374:
001375: 10,3445           31071                           CA       EBANKTEM                              #  NO, WAS IT A FLASH REQUEST
001376: 10,3446           74762                           MASK     OCT50                                 #  OR A GODSPRET
001377: 10,3447           10000                           CCS      A
001378: 10,3450           13355                           TCF      ENDRET                                #  YES
001379: 10,3451           30370                           CA       NVSAVE
001380: 10,3452           00006                           EXTEND
001381: 10,3453           13355                           BZF      ENDRET
001382:
001383: 10,3454           35016                           CAF      PRIO15
001384: 10,3455           00004                           INHINT
001385: 10,3456           05063                           TC       NOVAC
001386: 10,3457     0366                                  EBANK=   NVWORD
001387: 10,3457           02627 20060                     2CADR    PLAYJUM1
001388:
001389: 10,3461           13355                           TCF      ENDRET
001390:
001391: 10,3462           30100        MARSLEEP           CA       FLAGWRD4                              #  IS MARK ALREADY IN
001392: 10,3463           73532                           MASK     BITS5+11
001393: 10,3464           10000                           CCS      A
001394:


001396: 10,3465           15146                           TCF      ENDOFJOB                              #  YES
001397: 10,3466           12766                           TCF      GOSLEEPS
001398:
001399: 10,3467           50157        LOADITIS           INDEX    COPMPAC
001400: 10,3470           30366                           CA       NVWORD
001401: 10,3471           76115                           MASK     LOW7
001402: 10,3472           40000                           COM
001403: 10,3473           60155                           AD       MPAC       +1                         #  NOUNREG
001404: 10,3474           00006                           EXTEND
001405: 10,3475           13324                           BZF      OKTOENT                               #  NO, THEN LOAD IS VALID
001406: 10,3476           13062                           TCF      PINBRNCH                              #  YES, ACCEPT LOAD BUT ASK FOR LAST AGAIN
001407:
001408: 10,3477           46266        ERASER             CS       THREE                                 #  BLANK EVERYTHING EXCEPT MM
001409: 10,3500           04145                           TC       NVSUB
001410: 10,3501           15146                           TCF      ENDOFJOB
001411: 10,3502           15146                           TCF      ENDOFJOB
001412:
001413: 10,3503           00036        PERFMASK           OCT      0036                                  #  FLASH,PERFORM,BLANK R2 AND R3
001414: 10,3504           00231        V01N25             VN       00125
001415: 10,3505           01407        V06N07             VN       00607                                 #  GOPERF3 VN DISPLAY BEFORE V50
001416: 10,3506           14400        V50N00             VN       5000
001417: 10,3507           00030        PERF2MSK           OCT      00030                                 #  FLASH, PERFORM
001418: 10,3510           01006        V04N06             VN       00406
001419: 10,3511           00014        PERF4MSK           OCT      14                                    #  FLASH, BLANK R3
001420: 10,3512  10,3062               GOAGIN             EQUALS   PINBRNCH
001421: 10,3512           20010        REDOMASK           OCT      20010                                 #  BITS 4 AND 14
001422: 10,3513           40230        MARK3MSK           OCT      40230                                 #  MARK,DECIMAL NOUN, PERFORM,FLASH
001423: 10,3514           40036        MARK4MSK           OCT      40036                                 #  MARK,PERFORM,FLASH,BLANK 2 AND 3
001424: 10,3515           20542        NVCADR             CADR     REDOPRIO
001425: 10,3516           20372        WAKECADR           CADR     MARKPLAY
001426: 10,3517           20627                           CADR     PLAYJUM1
001427:
001428: 10,3520           03400        OCT3400            OCT      3400                                  #  EBANK MASK
001429: 10,3521           11210        NBUSMASK           OCT      11210
001430: 10,3522           66521        PMMASK             OCT      66521
001431: 10,3523     4144               VERBMASK           =        MID7                                  #  (OCT 37600)
001432: 10,3523           01177        V05N00M1           OCT      1177                                  #  V05 MINUS ONE
001433: 10,3524  10,2317               GOXDSP             EQUALS   GOMARK
001434: 10,3524  10,2342               GOXDSPR            EQUALS   GOMARKR
001435: 10,3524  10,2323               GOXDSPF            EQUALS   GOMARKF
001436: 10,3524  10,2345               GOXDSPFR           EQUALS   GOMARKFR
001437: 10,3524     5474               ENDEXT             EQUALS   ENDMARK
001438: 10,3524     0165               MPAC2SAV           EQUALS   BANKSET
001439: 10,3524           00700        NVBUSMSK           OCT      700
001440: 10,3525           00704        ASTROMSK           OCT      704
001441: 10,3526           40030        MPERFMSK           OCT      40030                                 #  BIT 15,5,4 FOR MARK,PERFORM,FLASH
001442: 10,3527           34300        OCT34300           OCT      34300
001443: 10,3530           40100        BITS15+7           OCT      40100
001444: 10,3531           00110        BITS7+4            OCT      110
001445: 10,3532           02020        BITS5+11           OCT      2020                                  #  * DONT MOVE
001446:


001448: 10,3533           01010        BITS4+10           OCT      1010                                  #  * DONT MOVE
001449: 10,3534           00026        LOWLOAD            DEC      22         B-14
001450: 10,3535           77730        BUSYMASK           OCT      77730
001451: 10,3536           00050        CADRMASK           OCT      50
001452: 10,3537     7761               PINMASK            EQUALS   13,14,15
001453: 10,3537  10,3102               GOPLAY             EQUALS   NVDSP
001454:                                                                                                  # PRIOSAVE       EQUALS  R1SAVE
001455: 10,3537     0157               COPMPAC            EQUALS   MPAC       +3
001456: 10,3537     0160               TEMPOR2            EQUALS   MPAC       +4
001457: 10,3537     0161               OUTHERE            EQUALS   MPAC       +5
001458: 10,3537     0164               COPINDEX           EQUALS   LOC
001459: 10,3537     0163               USERPRIO           EQUALS   MODE
001460: 10,3537     0162               GENMASK            EQUALS   MPAC       +6
001461: 10,3537           20144        PRIOOCT            OCT      20144                                 #  PRIO
001462: 10,3540           42424        MARKOCT            OCT      42424                                 #  MARK
001463: 10,3541           11254                           OCT      11254                                 #  NORM
001464:
001465: 10,3542           74704        IDLESLEP           OCT      74704
001466: 10,3543           67777        OCT67777           OCT      67777
001467: 10,3544     5466               LINUS              EQUALS   BLANKET
001468: 10,3544     0154               FACEREG            EQUALS   MPAC
001469: 10,3544     0155               PLAYTEM1           EQUALS   MPAC       +1
001470: 10,3544     0157               PLAYTEM3           EQUALS   MPAC       +3
001471: 10,3544     0160               PLAYTEM4           EQUALS   MPAC       +4
001472: 10,3544           40420        OCT40420           OCT      40420
001473: 10,3545           02560        MAKEGEN            GENADR   MAKEPLAY
001474: 10,3546           10200        OCT10200           OCT      10200
001475: 10,3547           30200        V97N00             VN       09700                                 #  PASTE FOR V97 OR V99
001476: 10,3550           20100        OCT20100           OCT      20100
001477: 10,3551           24030        CLOCKCON           OCT      24030                                 #  FLASH, PERFORM, V99 OR V97 PASTE,REFLASH
001478: 10,3552           02600        OCT2600            OCT      02600
001479: 10,3553           00310        PRIMNMSK           OCT      00310                                 #  MONITOR PASTE, PRIO, FLASH

End of include-file DISPLAY_INTERFACE_ROUTINES.agc.  Parent file is MAIN.agc


