
Source Code


### FILE="DOWN-TELEMETRY_PROGRAM.agc"
## Copyright:   Public domain.
## Filename:    DOWN-TELEMETRY_PROGRAM.agc
## Purpose:     A section of Luminary revision 210.
##              It is part of the source code for the Lunar Module's (LM)
##              Apollo Guidance Computer (AGC) for Apollo 15-17.
##              This file is intended to be a faithful transcription, except
##              that the code format has been changed to conform to the
##              requirements of the yaYUL assembler rather than the
##              original YUL assembler.
## Reference:   pp. 986-995
## Assembler:   yaYUL
## Contact:     Ron Burkey .
## Website:     www.ibiblio.org/apollo/index.html
## Mod history: 2016-11-17 JL   Created from Luminary131 version.
##		2016-12-07 JS   Compared to Luminary210 images. Updated where needed.

## Page 986
# PROGRAM NAME- DOWN TELEMETRY PROGRAM
# MOD NO.- 0		TO COMPLETELY REWRITE THE DOWN TELEMETRY PROGRAM AND DOWNLINK ERASABLE DUMP PROGRAM FOR THE
#			PURPOSE OF SAVING APPROXIMATELY 150 WORDS OF CORE STORAGE.
#			THIS CHANGE REQUIRES AN ENTIRELY NEW METHOD OF SPECIFYING DOWNLINK LISTS.REFER TO DOWNLINK
#			LISTS LOG SECTION FOR MORE DETAILS. HOWEVER THIS CHANGES WILL NOT AFFECT THE GROUND PROCESSING
#			OF DOWN TELEMETRY DATA.
# MOD BY- KILROY, SMITH, DEWITT
# DATE- 02 OCT 67
# AUTHORS- KILROY, SMITH, DEWITT, DEWOLF, FAGIN
# LOG SECTION- DOWN-TELEMETRY PROGRAM
#
# FUNCTIONAL DESCRIPTION- THIS ROUTINE IS INITIATED BY TELEMETRY END
#	PULSE FROM THE DOWNLINK TELEMETRY CONVERTER. THIS PULSE OCCURS
#	AT 50 TIMES PER SEC(EVERY 20 MS) THEREFORE DODOWNTM IS
#	EXECUTED AT THESE RATES. THIS ROUTINE SELECTS THE APPROPRIATE
#	AGC DATA TO BE TRANSMITTED DOWNLINK AND LOADS IT INTO OUTPUT
#	CHANNELS 34 AND 35. THE INFORMATION IS THEN GATED OUT FROM THE
#	LGC IN SERIAL FASHION.
#	THIS PROGRAM IS CODED FOR A 2 SECOND DOWNLIST. SINCE DOWNRUPTS
#	OCCUR EVERY 20 MS AND 2 AGC COMPUTER WORDS CAN BE PLACED IN
#	CHANNELS 34 AND 35 DURING EACH DOWNRUPT THE PROGRAM IS CAPABLE
# 	OF SENDING 200 AGC WORDS EVERY 2 SECONDS.
# CALLING SEQUENCE- NONE
#	PROGRAM IS ENTERED VIA TCF DODOWNTM WHICH IS EXECUTED AS A
#	RESULT OF A DOWNRUPT.  CONTROL IS RETURNED VIA TCF RESUME WHICH
#	IN EFFECT IS A RESUME.
# SUBROUTINES CALLED- NONE
# NORMAL EXIT MODE- TCF RESUME
# ALARM OR ABORT EXIT MODE- NONE
# RESTART PROTECTION:
#	ON A FRESH START AND RESTART THE 'STARTSUB' SUBROUTINE WILL INITIALIZE THE DOWNLIST POINTER(ACTUALLY
#	DNTMGOTO) TO THE BEGINNING OF THE CURRENT DOWNLIST(I.E. CURRENT CONTENTS OF DNLSTADR). THIS HAS THE
#	EFFECT OF IGNORING THE REMAINDER OF THE DOWNLIST WHICH THE DOWN-TELEMETRY PROGRAM WAS WORKING ON WHEN
#	THE RESTART(OR FRESH START) OCCURRED AND RESUME DOWN TELEMETRY FROM THE BEGINNING OF THE CURRENT
#	DOWNLIST.
#	ALSO OF INTEREST IS THE FACT THAT ON A RESTART THE AGC WILL ZERO DOWNLINK CHANNELS 13, 34 AND 35.
# DOWNLINK LIST SELECTION:
#	THE APPROPRIATE DOWNLINK LISTS ARE SELECTED BY THE FOLLOWING:
#	1. FRESH START
#	2. V37EXXE WHERE XX = THE MAJOR MODE BEING SELECTED.
#	3. UPDATE PROGRAM(P27)
#	4.	NON-V37 SELECTABLE TYPE PROGRAMS(E.G. AGS INITIALIZATION(SUNDANCE,LUMINARY) AND P61-P62
#		TRANSITIONS(COLOSSUS) ETC.).
# DOWNLINK LIST RULES AND LIMITATIONS:
#	READ SECTION(S) WHICH FOLLOW 'DEBRIS' WRITEUP.
# OUTPUT- EVERY 2 SECONDS 100 DOUBLE PRECISION WORDS(I.E. 200 LGC
#	COMPUTER WORDS) ARE TRANSMITTED VIA DOWNLINK.
# ERASABLE INITIALIZATION REQUIRED- NONE
#	'DNTMGOTO' AND 'DNLSTADR' ARE INITIALIZED BY THE FRESH START PROGRAM.
# DEBRIS(ERASABLE LOCATIONS DESTROYED BY THIS PROGRAM)-
#	LDATALST,DNTMBUFF TO DNTMBUFF +21D,TMINDEX,DNQ.

## Page 987
# (No source on this page of the original assembly listing.)

## Page 988
# DODOWNTM IS ENTERED EVERY 20 MS BY AN INTERRUPT TRIGGERED BY THE
# RECEIPT OF AN ENDPULSE FROM THE SPACECRAFT TELEMETRY PROGRAMMER.
#
# NOTES REGARDING DOWNLINK LISTS ASSOCIATED WITH THIS PROGRAM:
# 1.	DOWNLISTS. - DOWNLISTS MUST BE COMPILED IN THE SAME BANK AS THE
#	DOWN-TELEMETRY PROGRAM. THIS IS DONE FOR EASE OF CODING, FASTER
#	EXECUTION.
# 2.	EACH DOWNLINK LIST CONSISTES OF A CONTROL LIST AND A NUMBER OF
#	SUBLISTS.
# 3.	A SUBLIST REFERS TO A SNAPSHOT OR DATA COMMON TO THE SAME OR OTHER
#	DOWNLINK LISTS.  ANY SUBLIST CONTAINING COMMON DATA NEEDS TO BE
#	CODED ONLY ONCE FOR THE APPLICABLE DOWNLINK LISTS.
# 4.	SNAPSHOT SUBLISTS REFER SPECIFICALLY TO HOMOGENEOUS DATA WHICH MUST BE
#	SAVED IN A BUFFER DURING ONE DOWNRUPT.
# 5.	THE 1DNADR FOR THE 1ST WORD OF SNAPSHOT DATA IS FOUND AT THE END
#	OF EACH SNAPSHOT SUBLIST, SINCE THE PROGRAM CODING SENDS THIS DP WORD
#	IMMEDIATELY AFTER STORING THE OTHERS IN THE SNAPSHOT BUFFER.
# 6.	ALL LISTS ARE COMBINATIONS OF CODED ERASABLE ADDRESS CONSTANTS
#	CREATED FOR THE DOWNLIST PROGRAM.
#	A.	1DNADR			1-WORD DOWNLIST ADDRESS.
#		SAME AS ECADR, BUT USED WHEN THE WORD ADDRESSED IS THE LEFT
#		HALF OF A DOUBLE-PRECISION WORD FOR DOWN TELEMETRY.
#	B.	2DNADR - 6DNADR		N-WORD DOWNLIST ADDRESS, N = 2 - 6.
#		SAME AS 1DNADR, BUT WTIH THE 4 UNUSED BITS OF THE ECADR FORMAT
#		FILLED IN WITH 0001-0101.  USED TO POINT TO A LIST OF N DOUBLE-
#		PRECISION WORDS, STORED CONSECUTIVELY, FOR DOWN TELEMETRY.
#	C.	DNCHAN			DOWNLIST CHANNEL ADDRESS.
#		SAME AS 1DNADR, BUT WITH PREFIX BITS 0111.  USED TO POINT TO
#		A PAIR OF CHANNELS FOR DOWN TELEMETRY.
#	D.	DNPTR			DOWN-TELEMETRY SUBLIST POINTER.
#		SAME AS CAF BUT TAGGES AS A CONSTANT. USED IN CONTROL LIST TO POINT TO A SUBLIST.
#		CAUTION--- A DNPTR CANNOT BE USED IN A SUBLIST.
# 7.	THE WORD ORDER CODE IS SET TO ZERO AT THE BEGINNING OF EACH DOWNLIST (I.E. CONTROL LIST) AND WHEN
#	A '1DNADR TIME2' IS DETECTED IN THE CONTROL LIST(ONLY).
# 8.	IN THE SNAPSHOT SUBLIST ONLY, THE DNADR'S CANNOT POINT TO THE FIRST WORD OF ANY EBANK.
#
# DOWNLIST LIST RESTRICTIONS:
# (THE FOLLOWING POINTS MAY BE LISTED ELSEWHERE BUT ARE LISTED HERE SO IT IS CLEAR THAT THESE THINGS CANNOT BE
# DONE)
# 1.	SNAPSHOT DOWNLIST:
#	(A) CANNOT CONTAIN THE FOLLOWING ECADRS (I.E., 1DNADR'S): Q, 400, 1000, 1400, 2000, 2400, 3000, 3400.
#	(B) CAN CONTAIN ONLY 1DNADR'S
# 2.	ALL DOWNLINKED DATA(EXCEPT CHANNELS) IS PICKED UP BY A DCA SO DOWNLINK LISTS CANNOT CONTAIN THE
#	EQUIVALENT OF THE FOLLOWING ECADRS(I.E. IDNADRS): 377, 777, 1377, 1777, 2377, 2777, 3377, 3777.
# 	(NOTE: THE TERM 'EQUIVALENT' MEANT THAT THE IDNADR  TO 6DNADR  WILL BE PROCESSED LIKE 1 TO 6 ECADRS)
# 3.	CONTROL LISTS AND SUBLISTS CANNOT HAVE ENTRIES = OCTAL 00000 OR OCTAL 77777

## Page 989
# 4.	THE '1DNADR TIME2' WHICH WILL CAUSE THE DOWNLINT PROGRAM TO SET THE WORDER CODE TO 3 MUST APPEAR IN THE
#	CONTROL SECTION OF THE DOWNLIST.
# 5.	'DNCHAN 0' CANNOT BE USED.
# 6.	'DNPTR 0' CANNOT BE USED.
# 7.	DNPTR CANNOT APPEAR IN A SUBLIST.
#
# EBANK SETTINGS
#	IN THE PROCESS OF SETTING THE EBANK(WHEN PICKING UP DOWNLINK DATA) THE DOWN TELEMETRY PROGRAM PUTS
#	'GARBAGE' INTO BITS15-12 OF EBANK. HUGH BLAIR-SMITH WARNS US THAT BITS15-12 OF EBANK MAY BECOME
#	SIGNIFICANT SOMEDAY IN THE FUTURE. IF/WHEN THAT HAPPENS, THE PROGRAM SHOULD INSURE(BY MASKING ETC.)
#	THAT BITS 15-12 OF EBANK ARE ZERO.
#
# INITIALIZATION REQUIRED- TO INTERRUPT CURRENT LIST AND START A NEW ONE..
#	1. ADRES OF DOWNLINK LIST INTO DNLSTADR
#	2. NEGONE INTO SUBLIST
#	3. NEGONE INTO DNECADR

		BANK	22
		SETLOC	DOWNTELM
		BANK

		EBANK=	DNTMBUFF

		COUNT*	$$/DPROG
DODOWNTM	TS	BANKRUPT
		EXTEND
		QXCH	QRUPT		# SAVE Q
		CA	BIT7		# AT THE BEGINNING OF THE LIST THE WORD
		EXTEND			# ORDER BIT WILL BE SET BACK TO ZERO.
		RAND	CHAN13
		CCS	A
		TC	DNTMGOTO
		TC	C13STALL
		CA	BIT7
		EXTEND			# SET WORD ORDER BIT TO 1 ONLY IF IT
		WOR	CHAN13		# ALREADY ISN'T
		TC	DNTMGOTO	# GOTO APPROPRIATE PHASE OF PROGRAM

		SETLOC	DOWNTELM
		BANK

DNPHASE1	CA	NEGONE		# INITIALIZE ALL CONTROL WORDS
		TS	SUBLIST		# WORDS TO MINUS ONE
		TS	DNECADR
		CA	LDNPHAS2	# SET DNTMGOTO =0 ALL SUSEQUENT DOWRUPTS

## Page 990
		TS	DNTMGOTO	# GO TO DNPHASE2
		TCF	NEWLIST
DNPHASE2	CCS	DNECADR		# SENDING OF DATA IN PROGRESS
DODNADR		TC	FETCH2WD	# YES - THEN FETCH THE NEXT 2 SP WORDS
MINTIME2	-1DNADR	TIME2		# NEGATIVE OF TIME2 1DNADR
		TCF	+1		# (ECADR OF  3776 + 74001 = 77777)

		CCS	SUBLIST		# IS THE SUBLIST IN CONTROL
		TCF	NEXTINSL	# YES
DNADRDCR	OCT	74001		# DNADR COUNT AND ECADR DECREMENTER

CHKLIST		CA	CTLIST
		EXTEND
		BZMF	NEWLIST		# IT WILL BE NEGATIVE AT END OF LIST
		TCF	NEXTINCL
NEWLIST		INDEX	DNLSTCOD
		CA	DNTABLE		# INITIALIZE CTLIST WITH
		TS	CTLIST		#	STARTING ADDRESS OF NEW LIST
		CS	DNLSTCOD
		TCF	SENDID +3
NEXTINCL	INDEX	CTLIST
		CA	0
		CCS	A
		INCR	CTLIST		# SET POINTER TO PICK UP NEXT CTLIST WORD
		TCF	+4		# ON NEXT ENTRY TO PROG. (A SHOULD NOT =0)
		XCH	CTLIST		# SET CTLIST TO NEGATIVE AND PLACE(CODING)
		COM			# UNCOMPLEMENTED DNADR INTO A.    (FOR LA)
		XCH	CTLIST		#                                 (ST IN )
 +4		INCR	A		#                                 (CTLIST)
 		TS	DNECADR		# SAVE DNADR
		AD	MINTIME2	# TEST FOR TIME2 (NEG. OF ECADR)
		CCS	A
		TCF	SETWO +1	# DON'T SET WORD ORDER CODE
MINB1314	OCT	47777		# MINUS BIT 13 AND 14  (CAN'T GET HERE)
		TCF	SETWO +1	# DON'T SET WORD ORDER CODE
SETWO		TC	WOZERO		# GO SET WORD ORDER CODE TO ZERO.
 +1		CA	DNECADR		# RELOAD A WITH THE DNADR.
 +2		AD	MINB1314	# IS THIS A REGULAR DNADR?
 		EXTEND
		BZMF	FETCH2WD	# YES. (A MUST NEVER BE ZERO)
		AD	MINB12		# NO- IS IT A POINTER (DNPTR) OR A
		EXTEND			#	CHANNEL(DNCHAN)
		BZMF	DODNPTR		# IT'S A POINTER. (A MUST NEVER BE ZERO)

DODNCHAN	TC	6		# (EXECUTED AS EXTEND) IT S A CHANNEL
		INDEX	DNECADR
		INDEX	0 -4000		# (EXECUTED AS READ)
		TS	L
		TC	6		# (EXECUTED AS EXTEND)
		INDEX	DNECADR

## Page 991
		INDEX	0 -4001		# (EXECUTED AS READ)
		TS	DNECADR		# SET DNECADR
		CA	NEGONE		#	TO MINUS
		XCH	DNECADR		#		WHILE PRESERVING A.
		TCF	DNTMEXIT	# GO SEND CHANNELS

WOZERO		EXTEND
		QXCH	C13QSAV
		LXCH	RUPTREG1
		TC	C13STALL

		LXCH	RUPTREG1
		CS	BIT7
		EXTEND
		WAND	CHAN13		# SET WORD ORDER CODE TO ZERO
		TC	C13QSAV

DODNPTR		INDEX	DNECADR		# DNECADR CONTAINS ADRES OF SUBLIST
		0	0		# CLEAR AND ADD LIST ENTRY INTO A.
		CCS	A		# IS THIS A SNAPSHOT SUBLIST
		CA	DNECADR		# NO, IT IS A REGULAR SUBLIST.
		TCF	DOSUBLST	# A MUST NOT BE ZERO.

		XCH	DNECADR		# YES, IT IS A SNAPSHOT SUBLIST.
		TS	SUBLIST		# C(DNECADR) INTO SUBLIST
		CAF	ZERO		#	A    INTO     A
		XCH	TMINDEX		# (NOTE.. TMINDEX = DNECADR)

# THE FOLLOWING CODING (FROM SNAPLOOP TO SNAPEND)IS FOR THE PURPOSE OF TAKING A SNAPSHOT OF 12 DP REGISTERS.
# THIS IS DONE BY SAVING 11 DP REGISTERS IN DNTMBUFF AND SENDING THE FIRST DP WORD IMMEDIATELY.
# THE SNAPSHOT PROCESSING IS THE MOST TIME CONSUMING AND THEREFORE THE CODING AND LIST STRUCTURE WERE DESIGNED
# TO MINIMIZE TIME. THE TIME OPTIMIZATION RESULTS IN RULES UNIQUE TO THE SNAPSHOT PORTION OF THE DOWNLIST.
# THESE RULES ARE......
#	1.	ONLY 1DNADR'S CAN APPEAR IN THE SNAPSHOT SUBLIST
#	2.	THE 1DNADR'S CANNOT REFER TO THE FIRST LOCATION IN ANY BANK.

SNAPLOOP	TS	EBANK		# SET EBANK
		MASK	LOW8		# ISOLATE RELATIVE ADDRESS
		EXTEND
		INDEX	A
		EBANK=	1401
		DCA	1401		# PICK UP 2 SNAPSHOT WORDS.
		EBANK=	DNTMBUFF
		INDEX	TMINDEX
		DXCH	DNTMBUFF	# STORE 2 SNAPSHOT WORDS IN BUFFER
		INCR	TMINDEX		# SET BUFFER INDEX FOR NEXT 2 WORDS.
		INCR	TMINDEX
SNAPAGN		INCR	SUBLIST		# SET POINTER TO NEXT 2 WORDS OF SNAPSHOT

## Page 992
		INDEX	SUBLIST
		0	0		# = CA SSSS (SSSS = NEXT ENTRY IN SUBLIST)
		CCS	A		# TEST FOR LAST TWO WORDS OF SNAPSHOT.
		TCF	SNAPLOOP	# NOT LAST TWO.
LDNPHAS2	GENADR	DNPHASE2
		TS	SUBLIST		# YES, LAST.  SAVE A.
		CA	NEGONE		# SET DNECADR AND
		TS	DNECADR		#	SUBLIST POINTERS
		XCH	SUBLIST		#		TO NEGATIVE VALUES
		TS	EBANK
		MASK	LOW8
		EXTEND
		INDEX	A
		EBANK=	1401
		DCA	1401		# PICK UP FIRST 2 WORDS OF SNAPSHOT.
		EBANK=	DNTMBUFF
SNAPEND		TCF	DNTMEXIT	# NOW TO SEND THEM.

FETCH2WD	CA	DNECADR
		TS	EBANK		# SET EBANK
		MASK	LOW8		# ISOLATE RELATIVE ADDRESS
		TS	L
		CA	DNADRDCR	# DECREMENT COUNT AND ECADR
		ADS	DNECADR
		EXTEND
		INDEX	L
		EBANK=	1400
		DCA	1400		# PICK UP 2 DATA WORDS
		EBANK=	DNTMBUFF
		TCF	DNTMEXIT	# 	NOW GO SEND THEM.

DOSUBLST	TS	SUBLIST		# SET SUBLIST POINTER
NEXTINSL	INDEX	SUBLIST
		0	0		# = CA SSSS (SSSS = NEXT ENTRY IN SUBLIST)
		CCS	A		# IS IT THE END OF THE SUBLIST
		INCR	SUBLIST		# NO-
		TCF	+4
		TS	SUBLIST		# SAVE A.
		CA	NEGONE		# SET SUBLIST TO MINUS
		XCH	SUBLIST		# RETRIEVE A.
 +4		INCR	A
 		TS	DNECADR		# SAVE DNADR
		TCF	SETWO +2	# GO USE COMMON CODING(PROLEMS WOULD
					# OCCUR IF THE PROGRAM ENCOUNTERED A
					# DNPTR NOW)

DNTMEXIT	EXTEND			# DOWN-TELEMETRY EXIT
		WRITE	DNTM1		# TO SEND A + L TO CHANNELS 34 + 35
		CA	L		# RESPECTIVELY
TMEXITL		EXTEND

## Page 993
		WRITE	DNTM2
TMRESUME	TCF	RESUME		# EXIT TELEMTRY PROGRAM VIA RESUME.

MINB12		EQUALS	-1/8

## Page 994
# SUBROUTINE NAME- DNDUMP
#
# FUNCTIONAL DESCRIPTION - TO SEND (DUMP) ALL 8 BANKS OF ERASABLE STORAGE TWICE.  BANKS ARE SENT ONE AT A TIME
#	EACH BANK IS PRECEEDED BY AN ID WORD, SYNCH BITS, ECADR AND TIME1 FOLLOWED BY THE 256D WORDS OF EACH
#	EBANK. EBANKS ARE DUMPED IN ORDER(I.E. EBANK 0 FIRST, THEN EBANK1 ETC.)
#
# CALLING SEQUENCE- THE GROUND OR ASTRONAUT BY KEYING V74E CAN INITIALIZE THE DUMP.
#	AFTER KEYING IN V74E THE CURRENT DOWNLIST WILL BE IMMEDIATELY TERMINATED AND THE DOWNLINK ERASABLE DUMP
#	WILL BEGIN.
#	ONCE INITIATED THE DOWNLINK ERASABLE DUMP CAN BE TERMINATED (AND INTERRUPTED DOWNLIST REINSTATED) ONLY
#	BY THE FOLLOWING:
#	1.	A FRESH START
#	2.	COMPLETION OF BOTH COMPLETE DUMPS
#	3.	AND INVOLUNTARILY BY A RESTART.
# NORMAL EXIT MODE- TCF DNPHASE1
# ALARM OR ABORT MODE- NONE
# *SUBROUTINES CALLED- NONE.
# ERASABLE INITIALIZATION REQUIRED-
#	NONE
# DEBRIS- DUMPLOC, DUMPSW, DNTMGOTO, EBANK, AND CENTRAL REGISTERS
# TIMING-	TIME(IN SECS) = ((NO.DUMPS)*(NO.EBANKS)*(WDSPEREBANK + NO.IDWDS)) / NO.WDSPERSEC
#		TIME(IN SECS) =  (   4    )*(    8    )*(    256     +     4   )  /     100
#	   THUS TIME(IN SECS TO SEND DUMP OF ERASABLE 4 TIMES VIA DOWNLINK) = 83.2 SECONDS
#
# STRUCTURE OF ONE EBANK AS IT IS SENT BY DOWNLINK PROGRAM-
#	(REMINDER-THIS ONLY DESCRIBES ONE OF THE 8 EBANKS X 4 (DUMPS) = 32 EBANKS WHICH WILL BE SENT BY DNDUMP)
#	DOWNLIST				W
#	  WORD	TAKEN FROM CONTENTS OF	EXAMPLE	O	COMMENTS
#	    1	ERASID			 0177X	0	DOWNLIST I.D. FOR DOWNLINK ERASABLE DUMP (X=7 CSM, 6 LM)
#	    2	LOWIDCOD		 77340 	1	DOWNLINK SYNCH BITS.(SAME ONE USED IN ALL OTHER DOWNLISTS)
#	    3	DUMPLOC			 13400	1	(SEE NOTES ON DUMPLOC)1= 3RD ERAS DUMP, 3400=ECADR OF 5TH WD
#	    4	TIME1			 14120	1	TIME IN CENTISECONDS
#	    5	FIRST WORD OF EBANK X	 03400	1	IN THIS EXAMPLE THIS WORD = CONTENTS OF E7,1400 (ECADR 3400)
#	    6	2ND   WORD OF EBANK X	 00142	1	IN THIS EXAMPLE THIS WORD = CONTENTS OF E7,1401 (ECADR 3401)
#	    7   3RD   WORD OF EBANK X	 00142	1	IN THIS EXAMPLE THIS WORD = CONTENTS OF E7,1402 (ECADR 3402)
#	    .					1
#	    .					1
#	    .					1
#	 260D	256TH WORD OF EBANK X	 03777	1	IN THIS EXAMPLE THIS WORD = CONTENTS OF E7,1777 (ECADR 3777)
#
# NOTE-	DUMPLOC CONTAINS THE COUNTER AND ECADR FOR EACH WORD BEING SENT.
#	THE BIT STRUCTURE OF DUMPLOC IS FOLLOWS---
#					X = NOT USED
#	   X ABC EEE RRRRRRRR	      ABC = ERASABLE DUMP COUNTER(I.E. ABC = 0,1,2 OR 3 WHICH MEANS THAT
#					    COMPLETE ERASABLE DUMP NUMBER 1,2,3 OR 4 RESPECTIVELY IS IN PROGRESS)
#				      EEE = EBANK BITS
#				 RRRRRRRR = RELATIVE ADDRESS WITHIN AN EBANK

DNDUMPI		CA	ZERO		# INITIALIZE DOWNLINK
		TS	DUMPLOC		# ERASABLE DUMP
 +2		TC	SENDID		# GO SEND ID AND SYNCH BITS

## Page 995
		CA	LDNDUMP1	# SET DNTMGOTO
		TS	DNTMGOTO	# TO LOCATION FOR NEXT PASS
		CA	TIME1		# PLACE TIME1
		XCH	L		# INTO L
		CA	DUMPLOC		# AND ECADR OF THIS EBANK INTO A
		TCF	DNTMEXIT	# SEND DUMPLOC AND TIME1

LDNDUMP		ADRES	DNDUMP
LDNDUMP1	ADRES	DNDUMP1

DNDUMP		CA	TWO		# INCREMENT ECADR IN DUMPLOC
		ADS	DUMPLOC		# TO NEXT DP WORD TO BE
		MASK	LOW8		# DUMPED AND SAVE IT.
		CCS	A		# IS THIS THE BEGINNING OF A NEW EBANK
		TCF	DNDUMP2		# NO- THEN CONTINUE DUMPING
		CA	DUMPLOC		# YES- IS THIS THE END OF THE
		MASK	BIT13		# SECOND COMPLETE ERASABLE DUMP?
		EXTEND
		BZF	DNDUMPI +2	# NO - GO BACK AND INITIALIZE NEXT BANK
		TCF	DNPHASE1	# YES - SEND DOWNLIST AGAIN
DNDUMP1		CA	LDNDUMP		# SET DNTMGOTO
		TS	DNTMGOTO	# FOR WORDS 3 TO 256D OF CURRENT EBANK

DNDUMP2		CA	DUMPLOC
		TS	EBANK		# SET EBANK
		MASK	LOW8		# ISOLATE RELATIVE ADDRESS.
		TS	Q		# (NOTE: MASK INSTRUCTION IS USED TO PICK
		CA	NEG0		# UP ERASABLE REGISTERS TO THAT EDITING
		TS	L		# REGISTERS 20-23 WILL NOT BE ALTERED.)
		INDEX	Q
		EBANK=	1400		# PICK UP LOW ORDER REGISTER OF PAIR
		MASK	1401		# OF ERASABLE REGISTERS.
		XCH	L
		INDEX	Q		# PICK UP HIGH ORDER REGISTER OF PAIR
		MASK	1400		# OF ERASABLE REGISTERS.
		EBANK=	DNTMBUFF
		TCF	DNTMEXIT	# GO SEND THEM

SENDID		EXTEND			# **ENTRANCE USED BY ERASABLE DUMP PROG.**
		QXCH	DNTMGOTO	# SET DNTMGOTO SO NEXT TIME PROG WILL GO
		CAF	ERASID		# TO LOCATION FOLLOWING :TC SENDID:

		TS	L		# **ENTRANCE USED BY REGULAR DOWNLINK PG**
		TC	WOZERO		# GO SET WORD ORDER CODE TO ZERO
		CAF	LOWIDCOD	# PLACE SPECIAL ID CODE INTO L
		XCH	L		# AND ID BACK INTO A
		TCF	DNTMEXIT	# SEND DOWNLIST ID CODE(S).


000002:                                                                                                  ## Copyright:   Public domain.
000003:                                                                                                  ## Filename:    DOWN-TELEMETRY_PROGRAM.agc
000004:                                                                                                  ## Purpose:     A section of Luminary revision 210.
000005:                                                                                                  ##              It is part of the source code for the Lunar Module's (LM)
000006:                                                                                                  ##              Apollo Guidance Computer (AGC) for Apollo 15-17.
000007:                                                                                                  ##              This file is intended to be a faithful transcription, except
000008:                                                                                                  ##              that the code format has been changed to conform to the
000009:                                                                                                  ##              requirements of the yaYUL assembler rather than the
000010:                                                                                                  ##              original YUL assembler.
000011:                                                                                                  ## Reference:   pp. 986-995
000012:                                                                                                  ## Assembler:   yaYUL
000013:                                                                                                  ## Contact:     Ron Burkey <info@sandroid.org>.
000014:                                                                                                  ## Website:     www.ibiblio.org/apollo/index.html
000015:                                                                                                  ## Mod history: 2016-11-17 JL   Created from Luminary131 version.
000016:                                                                                                  ##              2016-12-07 JS   Compared to Luminary210 images. Updated where needed.
000017:


000019:                                                                                                  #  PROGRAM NAME- DOWN TELEMETRY PROGRAM
000020:                                                                                                  #  MOD NO.- 0            TO COMPLETELY REWRITE THE DOWN TELEMETRY PROGRAM AND DOWNLINK ERASABLE DUMP PROGRAM FOR THE
000021:                                                                                                  #                        PURPOSE OF SAVING APPROXIMATELY 150 WORDS OF CORE STORAGE.
000022:                                                                                                  #                        THIS CHANGE REQUIRES AN ENTIRELY NEW METHOD OF SPECIFYING DOWNLINK LISTS.REFER TO DOWNLINK
000023:                                                                                                  #                        LISTS LOG SECTION FOR MORE DETAILS. HOWEVER THIS CHANGES WILL NOT AFFECT THE GROUND PROCESSING
000024:                                                                                                  #                        OF DOWN TELEMETRY DATA.
000025:                                                                                                  #  MOD BY- KILROY, SMITH, DEWITT
000026:                                                                                                  #  DATE- 02 OCT 67
000027:                                                                                                  #  AUTHORS- KILROY, SMITH, DEWITT, DEWOLF, FAGIN
000028:                                                                                                  #  LOG SECTION- DOWN-TELEMETRY PROGRAM
000029:
000030:                                                                                                  #  FUNCTIONAL DESCRIPTION- THIS ROUTINE IS INITIATED BY TELEMETRY END
000031:                                                                                                  #        PULSE FROM THE DOWNLINK TELEMETRY CONVERTER. THIS PULSE OCCURS
000032:                                                                                                  #        AT 50 TIMES PER SEC(EVERY 20 MS) THEREFORE DODOWNTM IS
000033:                                                                                                  #        EXECUTED AT THESE RATES. THIS ROUTINE SELECTS THE APPROPRIATE
000034:                                                                                                  #        AGC DATA TO BE TRANSMITTED DOWNLINK AND LOADS IT INTO OUTPUT
000035:                                                                                                  #        CHANNELS 34 AND 35. THE INFORMATION IS THEN GATED OUT FROM THE
000036:                                                                                                  #        LGC IN SERIAL FASHION.
000037:                                                                                                  #        THIS PROGRAM IS CODED FOR A 2 SECOND DOWNLIST. SINCE DOWNRUPTS
000038:                                                                                                  #        OCCUR EVERY 20 MS AND 2 AGC COMPUTER WORDS CAN BE PLACED IN
000039:                                                                                                  #        CHANNELS 34 AND 35 DURING EACH DOWNRUPT THE PROGRAM IS CAPABLE
000040:                                                                                                  #        OF SENDING 200 AGC WORDS EVERY 2 SECONDS.
000041:                                                                                                  #  CALLING SEQUENCE- NONE
000042:                                                                                                  #        PROGRAM IS ENTERED VIA TCF DODOWNTM WHICH IS EXECUTED AS A
000043:                                                                                                  #        RESULT OF A DOWNRUPT.  CONTROL IS RETURNED VIA TCF RESUME WHICH
000044:                                                                                                  #        IN EFFECT IS A RESUME.
000045:                                                                                                  #  SUBROUTINES CALLED- NONE
000046:                                                                                                  #  NORMAL EXIT MODE- TCF RESUME
000047:                                                                                                  #  ALARM OR ABORT EXIT MODE- NONE
000048:                                                                                                  #  RESTART PROTECTION:
000049:                                                                                                  #        ON A FRESH START AND RESTART THE 'STARTSUB' SUBROUTINE WILL INITIALIZE THE DOWNLIST POINTER(ACTUALLY
000050:                                                                                                  #        DNTMGOTO) TO THE BEGINNING OF THE CURRENT DOWNLIST(I.E. CURRENT CONTENTS OF DNLSTADR). THIS HAS THE
000051:                                                                                                  #        EFFECT OF IGNORING THE REMAINDER OF THE DOWNLIST WHICH THE DOWN-TELEMETRY PROGRAM WAS WORKING ON WHEN
000052:                                                                                                  #        THE RESTART(OR FRESH START) OCCURRED AND RESUME DOWN TELEMETRY FROM THE BEGINNING OF THE CURRENT
000053:                                                                                                  #        DOWNLIST.
000054:                                                                                                  #        ALSO OF INTEREST IS THE FACT THAT ON A RESTART THE AGC WILL ZERO DOWNLINK CHANNELS 13, 34 AND 35.
000055:                                                                                                  #  DOWNLINK LIST SELECTION:
000056:                                                                                                  #        THE APPROPRIATE DOWNLINK LISTS ARE SELECTED BY THE FOLLOWING:
000057:                                                                                                  #        1. FRESH START
000058:                                                                                                  #        2. V37EXXE WHERE XX = THE MAJOR MODE BEING SELECTED.
000059:                                                                                                  #        3. UPDATE PROGRAM(P27)
000060:                                                                                                  #        4.      NON-V37 SELECTABLE TYPE PROGRAMS(E.G. AGS INITIALIZATION(SUNDANCE,LUMINARY) AND P61-P62
000061:                                                                                                  #                TRANSITIONS(COLOSSUS) ETC.).
000062:                                                                                                  #  DOWNLINK LIST RULES AND LIMITATIONS:
000063:                                                                                                  #        READ SECTION(S) WHICH FOLLOW 'DEBRIS' WRITEUP.
000064:                                                                                                  #  OUTPUT- EVERY 2 SECONDS 100 DOUBLE PRECISION WORDS(I.E. 200 LGC
000065:                                                                                                  #        COMPUTER WORDS) ARE TRANSMITTED VIA DOWNLINK.
000066:                                                                                                  #  ERASABLE INITIALIZATION REQUIRED- NONE
000067:                                                                                                  #        'DNTMGOTO' AND 'DNLSTADR' ARE INITIALIZED BY THE FRESH START PROGRAM.
000068:                                                                                                  #  DEBRIS(ERASABLE LOCATIONS DESTROYED BY THIS PROGRAM)-
000069:                                                                                                  #        LDATALST,DNTMBUFF TO DNTMBUFF +21D,TMINDEX,DNQ.
000070:


000072:                                                                                                  #  (No source on this page of the original assembly listing.)
000073:


000075:                                                                                                  #  DODOWNTM IS ENTERED EVERY 20 MS BY AN INTERRUPT TRIGGERED BY THE
000076:                                                                                                  #  RECEIPT OF AN ENDPULSE FROM THE SPACECRAFT TELEMETRY PROGRAMMER.
000077:
000078:                                                                                                  #  NOTES REGARDING DOWNLINK LISTS ASSOCIATED WITH THIS PROGRAM:
000079:                                                                                                  #  1.    DOWNLISTS. - DOWNLISTS MUST BE COMPILED IN THE SAME BANK AS THE
000080:                                                                                                  #        DOWN-TELEMETRY PROGRAM. THIS IS DONE FOR EASE OF CODING, FASTER
000081:                                                                                                  #        EXECUTION.
000082:                                                                                                  #  2.    EACH DOWNLINK LIST CONSISTES OF A CONTROL LIST AND A NUMBER OF
000083:                                                                                                  #        SUBLISTS.
000084:                                                                                                  #  3.    A SUBLIST REFERS TO A SNAPSHOT OR DATA COMMON TO THE SAME OR OTHER
000085:                                                                                                  #        DOWNLINK LISTS.  ANY SUBLIST CONTAINING COMMON DATA NEEDS TO BE
000086:                                                                                                  #        CODED ONLY ONCE FOR THE APPLICABLE DOWNLINK LISTS.
000087:                                                                                                  #  4.    SNAPSHOT SUBLISTS REFER SPECIFICALLY TO HOMOGENEOUS DATA WHICH MUST BE
000088:                                                                                                  #        SAVED IN A BUFFER DURING ONE DOWNRUPT.
000089:                                                                                                  #  5.    THE 1DNADR FOR THE 1ST WORD OF SNAPSHOT DATA IS FOUND AT THE END
000090:                                                                                                  #        OF EACH SNAPSHOT SUBLIST, SINCE THE PROGRAM CODING SENDS THIS DP WORD
000091:                                                                                                  #        IMMEDIATELY AFTER STORING THE OTHERS IN THE SNAPSHOT BUFFER.
000092:                                                                                                  #  6.    ALL LISTS ARE COMBINATIONS OF CODED ERASABLE ADDRESS CONSTANTS
000093:                                                                                                  #        CREATED FOR THE DOWNLIST PROGRAM.
000094:                                                                                                  #        A.      1DNADR                  1-WORD DOWNLIST ADDRESS.
000095:                                                                                                  #                SAME AS ECADR, BUT USED WHEN THE WORD ADDRESSED IS THE LEFT
000096:                                                                                                  #                HALF OF A DOUBLE-PRECISION WORD FOR DOWN TELEMETRY.
000097:                                                                                                  #        B.      2DNADR - 6DNADR         N-WORD DOWNLIST ADDRESS, N = 2 - 6.
000098:                                                                                                  #                SAME AS 1DNADR, BUT WTIH THE 4 UNUSED BITS OF THE ECADR FORMAT
000099:                                                                                                  #                FILLED IN WITH 0001-0101.  USED TO POINT TO A LIST OF N DOUBLE-
000100:                                                                                                  #                PRECISION WORDS, STORED CONSECUTIVELY, FOR DOWN TELEMETRY.
000101:                                                                                                  #        C.      DNCHAN                  DOWNLIST CHANNEL ADDRESS.
000102:                                                                                                  #                SAME AS 1DNADR, BUT WITH PREFIX BITS 0111.  USED TO POINT TO
000103:                                                                                                  #                A PAIR OF CHANNELS FOR DOWN TELEMETRY.
000104:                                                                                                  #        D.      DNPTR                   DOWN-TELEMETRY SUBLIST POINTER.
000105:                                                                                                  #                SAME AS CAF BUT TAGGES AS A CONSTANT. USED IN CONTROL LIST TO POINT TO A SUBLIST.
000106:                                                                                                  #                CAUTION--- A DNPTR CANNOT BE USED IN A SUBLIST.
000107:                                                                                                  #  7.    THE WORD ORDER CODE IS SET TO ZERO AT THE BEGINNING OF EACH DOWNLIST (I.E. CONTROL LIST) AND WHEN
000108:                                                                                                  #        A '1DNADR TIME2' IS DETECTED IN THE CONTROL LIST(ONLY).
000109:                                                                                                  #  8.    IN THE SNAPSHOT SUBLIST ONLY, THE DNADR'S CANNOT POINT TO THE FIRST WORD OF ANY EBANK.
000110:
000111:                                                                                                  #  DOWNLIST LIST RESTRICTIONS:
000112:                                                                                                  #  (THE FOLLOWING POINTS MAY BE LISTED ELSEWHERE BUT ARE LISTED HERE SO IT IS CLEAR THAT THESE THINGS CANNOT BE
000113:                                                                                                  #  DONE)
000114:                                                                                                  #  1.    SNAPSHOT DOWNLIST:
000115:                                                                                                  #        (A) CANNOT CONTAIN THE FOLLOWING ECADRS (I.E., 1DNADR'S): Q, 400, 1000, 1400, 2000, 2400, 3000, 3400.
000116:                                                                                                  #        (B) CAN CONTAIN ONLY 1DNADR'S
000117:                                                                                                  #  2.    ALL DOWNLINKED DATA(EXCEPT CHANNELS) IS PICKED UP BY A DCA SO DOWNLINK LISTS CANNOT CONTAIN THE
000118:                                                                                                  #        EQUIVALENT OF THE FOLLOWING ECADRS(I.E. IDNADRS): 377, 777, 1377, 1777, 2377, 2777, 3377, 3777.
000119:                                                                                                  #        (NOTE: THE TERM 'EQUIVALENT' MEANT THAT THE IDNADR  TO 6DNADR  WILL BE PROCESSED LIKE 1 TO 6 ECADRS)
000120:                                                                                                  #  3.    CONTROL LISTS AND SUBLISTS CANNOT HAVE ENTRIES = OCTAL 00000 OR OCTAL 77777
000121:


000123:                                                                                                  #  4.    THE '1DNADR TIME2' WHICH WILL CAUSE THE DOWNLINT PROGRAM TO SET THE WORDER CODE TO 3 MUST APPEAR IN THE
000124:                                                                                                  #        CONTROL SECTION OF THE DOWNLIST.
000125:                                                                                                  #  5.    'DNCHAN 0' CANNOT BE USED.
000126:                                                                                                  #  6.    'DNPTR 0' CANNOT BE USED.
000127:                                                                                                  #  7.    DNPTR CANNOT APPEAR IN A SUBLIST.
000128:
000129:                                                                                                  #  EBANK SETTINGS
000130:                                                                                                  #        IN THE PROCESS OF SETTING THE EBANK(WHEN PICKING UP DOWNLINK DATA) THE DOWN TELEMETRY PROGRAM PUTS
000131:                                                                                                  #        'GARBAGE' INTO BITS15-12 OF EBANK. HUGH BLAIR-SMITH WARNS US THAT BITS15-12 OF EBANK MAY BECOME
000132:                                                                                                  #        SIGNIFICANT SOMEDAY IN THE FUTURE. IF/WHEN THAT HAPPENS, THE PROGRAM SHOULD INSURE(BY MASKING ETC.)
000133:                                                                                                  #        THAT BITS 15-12 OF EBANK ARE ZERO.
000134:
000135:                                                                                                  #  INITIALIZATION REQUIRED- TO INTERRUPT CURRENT LIST AND START A NEW ONE..
000136:                                                                                                  #        1. ADRES OF DOWNLINK LIST INTO DNLSTADR
000137:                                                                                                  #        2. NEGONE INTO SUBLIST
000138:                                                                                                  #        3. NEGONE INTO DNECADR
000139:
000140: 22,3712                                           BANK     22
000141: 05,2000                                           SETLOC   DOWNTELM
000142: 05,2000                                           BANK
000143:
000144: 05,3507     0340                                  EBANK=   DNTMBUFF
000145:
000146: 05,3507                                           COUNT*   $$/DPROG
000147: 05,3507           54016        DODOWNTM           TS       BANKRUPT
000148: 05,3510           00006                           EXTEND
000149: 05,3511           22012                           QXCH     QRUPT                                 #  SAVE Q
000150: 05,3512           34736                           CA       BIT7                                  #  AT THE BEGINNING OF THE LIST THE WORD
000151: 05,3513           00006                           EXTEND                                         #  ORDER BIT WILL BE SET BACK TO ZERO.
000152: 05,3514           02013                           RAND     CHAN13
000153: 05,3515           10000                           CCS      A
000154: 05,3516           00335                           TC       DNTMGOTO
000155: 05,3517           06040                           TC       C13STALL
000156: 05,3520           34736                           CA       BIT7
000157: 05,3521           00006                           EXTEND                                         #  SET WORD ORDER BIT TO 1 ONLY IF IT
000158: 05,3522           05013                           WOR      CHAN13                                #  ALREADY ISN'T
000159: 05,3523           00335                           TC       DNTMGOTO                              #  GOTO APPROPRIATE PHASE OF PROGRAM
000160:
000161: 05,2000                                           SETLOC   DOWNTELM
000162: 05,2000                                           BANK
000163:
000164: 05,3524           37770        DNPHASE1           CA       NEGONE                                #  INITIALIZE ALL CONTROL WORDS
000165: 05,3525           54337                           TS       SUBLIST                               #  WORDS TO MINUS ONE
000166: 05,3526           54336                           TS       DNECADR
000167: 05,3527           33654                           CA       LDNPHAS2                              #  SET DNTMGOTO =0 ALL SUSEQUENT DOWRUPTS
000168:


000170: 05,3530           54335                           TS       DNTMGOTO                              #  GO TO DNPHASE2
000171: 05,3531           13545                           TCF      NEWLIST
000172: 05,3532           10336        DNPHASE2           CCS      DNECADR                               #  SENDING OF DATA IN PROGRESS
000173: 05,3533           03667        DODNADR            TC       FETCH2WD                              #  YES - THEN FETCH THE NEXT 2 SP WORDS
000174: 05,3534           77753        MINTIME2           -1DNADR  TIME2                                 #  NEGATIVE OF TIME2 1DNADR
000175: 05,3535           13536                           TCF      +1                                    #  (ECADR OF  3776 + 74001 = 77777)
000176:
000177: 05,3536           10337                           CCS      SUBLIST                               #  IS THE SUBLIST IN CONTROL
000178: 05,3537           13702                           TCF      NEXTINSL                              #  YES
000179: 05,3540           74001        DNADRDCR           OCT      74001                                 #  DNADR COUNT AND ECADR DECREMENTER
000180:
000181: 05,3541           30334        CHKLIST            CA       CTLIST
000182: 05,3542           00006                           EXTEND
000183: 05,3543           63545                           BZMF     NEWLIST                               #  IT WILL BE NEGATIVE AT END OF LIST
000184: 05,3544           13552                           TCF      NEXTINCL
000185: 05,3545           50333        NEWLIST            INDEX    DNLSTCOD
000186: 05,3546           32446                           CA       DNTABLE                               #  INITIALIZE CTLIST WITH
000187: 05,3547           54334                           TS       CTLIST                                #        STARTING ADDRESS OF NEW LIST
000188: 05,3550           40333                           CS       DNLSTCOD
000189: 05,3551           13771                           TCF      SENDID     +3
000190: 05,3552           50334        NEXTINCL           INDEX    CTLIST
000191: 05,3553           30000                           CA       0
000192: 05,3554           10000                           CCS      A
000193: 05,3555           24334                           INCR     CTLIST                                #  SET POINTER TO PICK UP NEXT CTLIST WORD
000194: 05,3556           13562                           TCF      +4                                    #  ON NEXT ENTRY TO PROG. (A SHOULD NOT =0)
000195: 05,3557           56334                           XCH      CTLIST                                #  SET CTLIST TO NEGATIVE AND PLACE(CODING)
000196: 05,3560           40000                           COM                                            #  UNCOMPLEMENTED DNADR INTO A.    (FOR LA)
000197: 05,3561           56334                           XCH      CTLIST                                #                                  (ST IN )
000198: 05,3562           24000                 +4        INCR     A                                     #                                  (CTLIST)
000199: 05,3563           54336                           TS       DNECADR                               #  SAVE DNADR
000200: 05,3564           63534                           AD       MINTIME2                              #  TEST FOR TIME2 (NEG. OF ECADR)
000201: 05,3565           10000                           CCS      A
000202: 05,3566           13572                           TCF      SETWO      +1                         #  DON'T SET WORD ORDER CODE
000203: 05,3567           47777        MINB1314           OCT      47777                                 #  MINUS BIT 13 AND 14  (CAN'T GET HERE)
000204: 05,3570           13572                           TCF      SETWO      +1                         #  DON'T SET WORD ORDER CODE
000205: 05,3571           03614        SETWO              TC       WOZERO                                #  GO SET WORD ORDER CODE TO ZERO.
000206: 05,3572           30336                 +1        CA       DNECADR                               #  RELOAD A WITH THE DNADR.
000207: 05,3573           63567                 +2        AD       MINB1314                              #  IS THIS A REGULAR DNADR?
000208: 05,3574           00006                           EXTEND
000209: 05,3575           63667                           BZMF     FETCH2WD                              #  YES. (A MUST NEVER BE ZERO)
000210: 05,3576           67762                           AD       MINB12                                #  NO- IS IT A POINTER (DNPTR) OR A
000211: 05,3577           00006                           EXTEND                                         #        CHANNEL(DNCHAN)
000212: 05,3600           63625                           BZMF     DODNPTR                               #  IT'S A POINTER. (A MUST NEVER BE ZERO)
000213:
000214: 05,3601           00006        DODNCHAN           TC       6                                     #  (EXECUTED AS EXTEND) IT S A CHANNEL
000215: 05,3602           50336                           INDEX    DNECADR
000216: 05,3603           44000                           INDEX    0          -4000                      #  (EXECUTED AS READ)
000217: 05,3604           54001                           TS       L
000218: 05,3605           00006                           TC       6                                     #  (EXECUTED AS EXTEND)
000219: 05,3606           50336                           INDEX    DNECADR
000220:


000222: 05,3607           43777                           INDEX    0          -4001                      #  (EXECUTED AS READ)
000223: 05,3610           54336                           TS       DNECADR                               #  SET DNECADR
000224: 05,3611           37770                           CA       NEGONE                                #        TO MINUS
000225: 05,3612           56336                           XCH      DNECADR                               #                WHILE PRESERVING A.
000226: 05,3613           13715                           TCF      DNTMEXIT                              #  GO SEND CHANNELS
000227:
000228: 05,3614           00006        WOZERO             EXTEND
000229: 05,3615           23265                           QXCH     C13QSAV
000230: 05,3616           22070                           LXCH     RUPTREG1
000231: 05,3617           06040                           TC       C13STALL
000232:
000233: 05,3620           22070                           LXCH     RUPTREG1
000234: 05,3621           44736                           CS       BIT7
000235: 05,3622           00006                           EXTEND
000236: 05,3623           03013                           WAND     CHAN13                                #  SET WORD ORDER CODE TO ZERO
000237: 05,3624           01265                           TC       C13QSAV
000238:
000239: 05,3625           50336        DODNPTR            INDEX    DNECADR                               #  DNECADR CONTAINS ADRES OF SUBLIST
000240: 05,3626           00000                           0        0                                     #  CLEAR AND ADD LIST ENTRY INTO A.
000241: 05,3627           10000                           CCS      A                                     #  IS THIS A SNAPSHOT SUBLIST
000242: 05,3630           30336                           CA       DNECADR                               #  NO, IT IS A REGULAR SUBLIST.
000243: 05,3631           13701                           TCF      DOSUBLST                              #  A MUST NOT BE ZERO.
000244:
000245: 05,3632           56336                           XCH      DNECADR                               #  YES, IT IS A SNAPSHOT SUBLIST.
000246: 05,3633           54337                           TS       SUBLIST                               #  C(DNECADR) INTO SUBLIST
000247: 05,3634           34746                           CAF      ZERO                                  #        A    INTO     A
000248: 05,3635           56336                           XCH      TMINDEX                               #  (NOTE.. TMINDEX = DNECADR)
000249:
000250:                                                                                                  #  THE FOLLOWING CODING (FROM SNAPLOOP TO SNAPEND)IS FOR THE PURPOSE OF TAKING A SNAPSHOT OF 12 DP REGISTERS.
000251:                                                                                                  #  THIS IS DONE BY SAVING 11 DP REGISTERS IN DNTMBUFF AND SENDING THE FIRST DP WORD IMMEDIATELY.
000252:                                                                                                  #  THE SNAPSHOT PROCESSING IS THE MOST TIME CONSUMING AND THEREFORE THE CODING AND LIST STRUCTURE WERE DESIGNED
000253:                                                                                                  #  TO MINIMIZE TIME. THE TIME OPTIMIZATION RESULTS IN RULES UNIQUE TO THE SNAPSHOT PORTION OF THE DOWNLIST.
000254:                                                                                                  #  THESE RULES ARE......
000255:                                                                                                  #        1.      ONLY 1DNADR'S CAN APPEAR IN THE SNAPSHOT SUBLIST
000256:                                                                                                  #        2.      THE 1DNADR'S CANNOT REFER TO THE FIRST LOCATION IN ANY BANK.
000257:
000258: 05,3636           54003        SNAPLOOP           TS       EBANK                                 #  SET EBANK
000259: 05,3637           74350                           MASK     LOW8                                  #  ISOLATE RELATIVE ADDRESS
000260: 05,3640           00006                           EXTEND
000261: 05,3641           50000                           INDEX    A
000262: 05,3642  E3,1401                                  EBANK=   1401
000263: 05,3642           31402                           DCA      1401                                  #  PICK UP 2 SNAPSHOT WORDS.
000264: 05,3643     0340                                  EBANK=   DNTMBUFF
000265: 05,3643           50336                           INDEX    TMINDEX
000266: 05,3644           52341                           DXCH     DNTMBUFF                              #  STORE 2 SNAPSHOT WORDS IN BUFFER
000267: 05,3645           24336                           INCR     TMINDEX                               #  SET BUFFER INDEX FOR NEXT 2 WORDS.
000268: 05,3646           24336                           INCR     TMINDEX
000269: 05,3647           24337        SNAPAGN            INCR     SUBLIST                               #  SET POINTER TO NEXT 2 WORDS OF SNAPSHOT
000270:


000272: 05,3650           50337                           INDEX    SUBLIST
000273: 05,3651           00000                           0        0                                     #  = CA SSSS (SSSS = NEXT ENTRY IN SUBLIST)
000274: 05,3652           10000                           CCS      A                                     #  TEST FOR LAST TWO WORDS OF SNAPSHOT.
000275: 05,3653           13636                           TCF      SNAPLOOP                              #  NOT LAST TWO.
000276: 05,3654           03532        LDNPHAS2           GENADR   DNPHASE2
000277: 05,3655           54337                           TS       SUBLIST                               #  YES, LAST.  SAVE A.
000278: 05,3656           37770                           CA       NEGONE                                #  SET DNECADR AND
000279: 05,3657           54336                           TS       DNECADR                               #        SUBLIST POINTERS
000280: 05,3660           56337                           XCH      SUBLIST                               #                TO NEGATIVE VALUES
000281: 05,3661           54003                           TS       EBANK
000282: 05,3662           74350                           MASK     LOW8
000283: 05,3663           00006                           EXTEND
000284: 05,3664           50000                           INDEX    A
000285: 05,3665  E3,1401                                  EBANK=   1401
000286: 05,3665           31402                           DCA      1401                                  #  PICK UP FIRST 2 WORDS OF SNAPSHOT.
000287: 05,3666     0340                                  EBANK=   DNTMBUFF
000288: 05,3666           13715        SNAPEND            TCF      DNTMEXIT                              #  NOW TO SEND THEM.
000289:
000290: 05,3667           30336        FETCH2WD           CA       DNECADR
000291: 05,3670           54003                           TS       EBANK                                 #  SET EBANK
000292: 05,3671           74350                           MASK     LOW8                                  #  ISOLATE RELATIVE ADDRESS
000293: 05,3672           54001                           TS       L
000294: 05,3673           33540                           CA       DNADRDCR                              #  DECREMENT COUNT AND ECADR
000295: 05,3674           26336                           ADS      DNECADR
000296: 05,3675           00006                           EXTEND
000297: 05,3676           50001                           INDEX    L
000298: 05,3677  E3,1400                                  EBANK=   1400
000299: 05,3677           31401                           DCA      1400                                  #  PICK UP 2 DATA WORDS
000300: 05,3700     0340                                  EBANK=   DNTMBUFF
000301: 05,3700           13715                           TCF      DNTMEXIT                              #        NOW GO SEND THEM.
000302:
000303: 05,3701           54337        DOSUBLST           TS       SUBLIST                               #  SET SUBLIST POINTER
000304: 05,3702           50337        NEXTINSL           INDEX    SUBLIST
000305: 05,3703           00000                           0        0                                     #  = CA SSSS (SSSS = NEXT ENTRY IN SUBLIST)
000306: 05,3704           10000                           CCS      A                                     #  IS IT THE END OF THE SUBLIST
000307: 05,3705           24337                           INCR     SUBLIST                               #  NO-
000308: 05,3706           13712                           TCF      +4
000309: 05,3707           54337                           TS       SUBLIST                               #  SAVE A.
000310: 05,3710           37770                           CA       NEGONE                                #  SET SUBLIST TO MINUS
000311: 05,3711           56337                           XCH      SUBLIST                               #  RETRIEVE A.
000312: 05,3712           24000                 +4        INCR     A
000313: 05,3713           54336                           TS       DNECADR                               #  SAVE DNADR
000314: 05,3714           13573                           TCF      SETWO      +2                         #  GO USE COMMON CODING(PROLEMS WOULD
000315:                                                                                                  #  OCCUR IF THE PROGRAM ENCOUNTERED A
000316:                                                                                                  #  DNPTR NOW)
000317:
000318: 05,3715           00006        DNTMEXIT           EXTEND                                         #  DOWN-TELEMETRY EXIT
000319: 05,3716           01034                           WRITE    DNTM1                                 #  TO SEND A + L TO CHANNELS 34 + 35
000320: 05,3717           30001                           CA       L                                     #  RESPECTIVELY
000321: 05,3720           00006        TMEXITL            EXTEND
000322:


000324: 05,3721           01035                           WRITE    DNTM2
000325: 05,3722           15272        TMRESUME           TCF      RESUME                                #  EXIT TELEMTRY PROGRAM VIA RESUME.
000326:
000327: 05,3723     7762               MINB12             EQUALS   -1/8
000328:


000330:                                                                                                  #  SUBROUTINE NAME- DNDUMP
000331:
000332:                                                                                                  #  FUNCTIONAL DESCRIPTION - TO SEND (DUMP) ALL 8 BANKS OF ERASABLE STORAGE TWICE.  BANKS ARE SENT ONE AT A TIME
000333:                                                                                                  #        EACH BANK IS PRECEEDED BY AN ID WORD, SYNCH BITS, ECADR AND TIME1 FOLLOWED BY THE 256D WORDS OF EACH
000334:                                                                                                  #        EBANK. EBANKS ARE DUMPED IN ORDER(I.E. EBANK 0 FIRST, THEN EBANK1 ETC.)
000335:
000336:                                                                                                  #  CALLING SEQUENCE- THE GROUND OR ASTRONAUT BY KEYING V74E CAN INITIALIZE THE DUMP.
000337:                                                                                                  #        AFTER KEYING IN V74E THE CURRENT DOWNLIST WILL BE IMMEDIATELY TERMINATED AND THE DOWNLINK ERASABLE DUMP
000338:                                                                                                  #        WILL BEGIN.
000339:                                                                                                  #        ONCE INITIATED THE DOWNLINK ERASABLE DUMP CAN BE TERMINATED (AND INTERRUPTED DOWNLIST REINSTATED) ONLY
000340:                                                                                                  #        BY THE FOLLOWING:
000341:                                                                                                  #        1.      A FRESH START
000342:                                                                                                  #        2.      COMPLETION OF BOTH COMPLETE DUMPS
000343:                                                                                                  #        3.      AND INVOLUNTARILY BY A RESTART.
000344:                                                                                                  #  NORMAL EXIT MODE- TCF DNPHASE1
000345:                                                                                                  #  ALARM OR ABORT MODE- NONE
000346:                                                                                                  #  *SUBROUTINES CALLED- NONE.
000347:                                                                                                  #  ERASABLE INITIALIZATION REQUIRED-
000348:                                                                                                  #        NONE
000349:                                                                                                  #  DEBRIS- DUMPLOC, DUMPSW, DNTMGOTO, EBANK, AND CENTRAL REGISTERS
000350:                                                                                                  #  TIMING-       TIME(IN SECS) = ((NO.DUMPS)*(NO.EBANKS)*(WDSPEREBANK + NO.IDWDS)) / NO.WDSPERSEC
000351:                                                                                                  #                TIME(IN SECS) =  (   4    )*(    8    )*(    256     +     4   )  /     100
000352:                                                                                                  #           THUS TIME(IN SECS TO SEND DUMP OF ERASABLE 4 TIMES VIA DOWNLINK) = 83.2 SECONDS
000353:
000354:                                                                                                  #  STRUCTURE OF ONE EBANK AS IT IS SENT BY DOWNLINK PROGRAM-
000355:                                                                                                  #        (REMINDER-THIS ONLY DESCRIBES ONE OF THE 8 EBANKS X 4 (DUMPS) = 32 EBANKS WHICH WILL BE SENT BY DNDUMP)
000356:                                                                                                  #        DOWNLIST                                W
000357:                                                                                                  #          WORD  TAKEN FROM CONTENTS OF  EXAMPLE O       COMMENTS
000358:                                                                                                  #            1   ERASID                   0177X  0       DOWNLIST I.D. FOR DOWNLINK ERASABLE DUMP (X=7 CSM, 6 LM)
000359:                                                                                                  #            2   LOWIDCOD                 77340  1       DOWNLINK SYNCH BITS.(SAME ONE USED IN ALL OTHER DOWNLISTS)
000360:                                                                                                  #            3   DUMPLOC                  13400  1       (SEE NOTES ON DUMPLOC)1= 3RD ERAS DUMP, 3400=ECADR OF 5TH WD
000361:                                                                                                  #            4   TIME1                    14120  1       TIME IN CENTISECONDS
000362:                                                                                                  #            5   FIRST WORD OF EBANK X    03400  1       IN THIS EXAMPLE THIS WORD = CONTENTS OF E7,1400 (ECADR 3400)
000363:                                                                                                  #            6   2ND   WORD OF EBANK X    00142  1       IN THIS EXAMPLE THIS WORD = CONTENTS OF E7,1401 (ECADR 3401)
000364:                                                                                                  #            7   3RD   WORD OF EBANK X    00142  1       IN THIS EXAMPLE THIS WORD = CONTENTS OF E7,1402 (ECADR 3402)
000365:                                                                                                  #            .                                   1
000366:                                                                                                  #            .                                   1
000367:                                                                                                  #            .                                   1
000368:                                                                                                  #         260D   256TH WORD OF EBANK X    03777  1       IN THIS EXAMPLE THIS WORD = CONTENTS OF E7,1777 (ECADR 3777)
000369:
000370:                                                                                                  #  NOTE- DUMPLOC CONTAINS THE COUNTER AND ECADR FOR EACH WORD BEING SENT.
000371:                                                                                                  #        THE BIT STRUCTURE OF DUMPLOC IS FOLLOWS---
000372:                                                                                                  #                                        X = NOT USED
000373:                                                                                                  #           X ABC EEE RRRRRRRR         ABC = ERASABLE DUMP COUNTER(I.E. ABC = 0,1,2 OR 3 WHICH MEANS THAT
000374:                                                                                                  #                                            COMPLETE ERASABLE DUMP NUMBER 1,2,3 OR 4 RESPECTIVELY IS IN PROGRESS)
000375:                                                                                                  #                                      EEE = EBANK BITS
000376:                                                                                                  #                                 RRRRRRRR = RELATIVE ADDRESS WITHIN AN EBANK
000377:
000378: 05,3723           34746        DNDUMPI            CA       ZERO                                  #  INITIALIZE DOWNLINK
000379: 05,3724           54336                           TS       DUMPLOC                               #  ERASABLE DUMP
000380: 05,3725           03766                 +2        TC       SENDID                                #  GO SEND ID AND SYNCH BITS
000381:


000383: 05,3726           33735                           CA       LDNDUMP1                              #  SET DNTMGOTO
000384: 05,3727           54335                           TS       DNTMGOTO                              #  TO LOCATION FOR NEXT PASS
000385: 05,3730           30025                           CA       TIME1                                 #  PLACE TIME1
000386: 05,3731           56001                           XCH      L                                     #  INTO L
000387: 05,3732           30336                           CA       DUMPLOC                               #  AND ECADR OF THIS EBANK INTO A
000388: 05,3733           13715                           TCF      DNTMEXIT                              #  SEND DUMPLOC AND TIME1
000389:
000390: 05,3734           03736        LDNDUMP            ADRES    DNDUMP
000391: 05,3735           03750        LDNDUMP1           ADRES    DNDUMP1
000392:
000393: 05,3736           34743        DNDUMP             CA       TWO                                   #  INCREMENT ECADR IN DUMPLOC
000394: 05,3737           26336                           ADS      DUMPLOC                               #  TO NEXT DP WORD TO BE
000395: 05,3740           74350                           MASK     LOW8                                  #  DUMPED AND SAVE IT.
000396: 05,3741           10000                           CCS      A                                     #  IS THIS THE BEGINNING OF A NEW EBANK
000397: 05,3742           13752                           TCF      DNDUMP2                               #  NO- THEN CONTINUE DUMPING
000398: 05,3743           30336                           CA       DUMPLOC                               #  YES- IS THIS THE END OF THE
000399: 05,3744           74730                           MASK     BIT13                                 #  SECOND COMPLETE ERASABLE DUMP?
000400: 05,3745           00006                           EXTEND
000401: 05,3746           13725                           BZF      DNDUMPI    +2                         #  NO - GO BACK AND INITIALIZE NEXT BANK
000402: 05,3747           13524                           TCF      DNPHASE1                              #  YES - SEND DOWNLIST AGAIN
000403: 05,3750           33734        DNDUMP1            CA       LDNDUMP                               #  SET DNTMGOTO
000404: 05,3751           54335                           TS       DNTMGOTO                              #  FOR WORDS 3 TO 256D OF CURRENT EBANK
000405:
000406: 05,3752           30336        DNDUMP2            CA       DUMPLOC
000407: 05,3753           54003                           TS       EBANK                                 #  SET EBANK
000408: 05,3754           74350                           MASK     LOW8                                  #  ISOLATE RELATIVE ADDRESS.
000409: 05,3755           54002                           TS       Q                                     #  (NOTE: MASK INSTRUCTION IS USED TO PICK
000410: 05,3756           34745                           CA       NEG0                                  #  UP ERASABLE REGISTERS TO THAT EDITING
000411: 05,3757           54001                           TS       L                                     #  REGISTERS 20-23 WILL NOT BE ALTERED.)
000412: 05,3760           50002                           INDEX    Q
000413: 05,3761  E3,1400                                  EBANK=   1400                                  #  PICK UP LOW ORDER REGISTER OF PAIR
000414: 05,3761           71401                           MASK     1401                                  #  OF ERASABLE REGISTERS.
000415: 05,3762           56001                           XCH      L
000416: 05,3763           50002                           INDEX    Q                                     #  PICK UP HIGH ORDER REGISTER OF PAIR
000417: 05,3764           71400                           MASK     1400                                  #  OF ERASABLE REGISTERS.
000418: 05,3765     0340                                  EBANK=   DNTMBUFF
000419: 05,3765           13715                           TCF      DNTMEXIT                              #  GO SEND THEM
000420:
000421: 05,3766           00006        SENDID             EXTEND                                         #  **ENTRANCE USED BY ERASABLE DUMP PROG.**
000422: 05,3767           22335                           QXCH     DNTMGOTO                              #  SET DNTMGOTO SO NEXT TIME PROG WILL GO
000423: 05,3770           35002                           CAF      ERASID                                #  TO LOCATION FOLLOWING :TC SENDID:
000424:
000425: 05,3771           54001                           TS       L                                     #  **ENTRANCE USED BY REGULAR DOWNLINK PG**
000426: 05,3772           03614                           TC       WOZERO                                #  GO SET WORD ORDER CODE TO ZERO
000427: 05,3773           32045                           CAF      LOWIDCOD                              #  PLACE SPECIAL ID CODE INTO L
000428: 05,3774           56001                           XCH      L                                     #  AND ID BACK INTO A
000429: 05,3775           13715                           TCF      DNTMEXIT                              #  SEND DOWNLIST ID CODE(S).
000430:

End of include-file DOWN-TELEMETRY_PROGRAM.agc.  Parent file is MAIN.agc


