
Source Code


000002:                                                                                                  ## Copyright:   Public domain.
000003:                                                                                                  ## Filename:    DOWNLINK_LISTS.agc
000004:                                                                                                  ## Purpose:     A section of Luminary revision 210.
000005:                                                                                                  ##              It is part of the source code for the Lunar Module's (LM)
000006:                                                                                                  ##              Apollo Guidance Computer (AGC) for Apollo 15-17.
000007:                                                                                                  ##              This file is intended to be a faithful transcription, except
000008:                                                                                                  ##              that the code format has been changed to conform to the
000009:                                                                                                  ##              requirements of the yaYUL assembler rather than the
000010:                                                                                                  ##              original YUL assembler.
000011:                                                                                                  ## Reference:   pp. 204-217
000012:                                                                                                  ## Assembler:   yaYUL
000013:                                                                                                  ## Contact:     Ron Burkey <info@sandroid.org>.
000014:                                                                                                  ## Website:     www.ibiblio.org/apollo/index.html
000015:                                                                                                  ## Mod history: 2016-11-17 JL   Created from Luminary131 version.
000016:                                                                                                  ##              2016-11-22 HG   Transcribed
000017:                                                                                                  ##              2016-12-11 HG   fix operand LMORBM05 -> LMCSTA05
000018:                                                                                                  ##                                          LMLSAL09 -> LMLSAL08
000019:                                                                                                  ##                                          LMLSAL05 -> LMSAL05
000020:                                                                                                  ##              2016-12-12 MAS  Fixed a couple more typos.


000022: 22,2004                                           BANK     22
000023: 05,2000                                           SETLOC   DOWNTELM
000024: 05,2000                                           BANK
000025:
000026: 05,2045     0340                                  EBANK=   DNTMBUFF
000027:
000028:                                                                                                  #  SPECIAL DOWNLINK OP CODES
000029:                                                                                                  #        OP CODE ADDRESS(EXAMPLE) SENDS..     BIT 15  BITS 14-12 BITS 11-0
000030:                                                                                                  #        ------- ---------      --------      ------  ---------- ---------
000031:                                                                                                  #        1DNADR  TIME2          (2 AGC WDS)     0            0   ECADR
000032:                                                                                                  #        2DNADR  TEPHEM         (4 AGC WDS)     0            1   ECADR
000033:                                                                                                  #        3DNADR  VGBODY         (6 AGC WDS)     0            2   ECADR
000034:                                                                                                  #        4DNADR  STATE          (8 AGC WDS)     0            3   ECADR
000035:                                                                                                  #        5DNADR  UPBUFF         (10 AGC WDS)    0            4   ECADR
000036:                                                                                                  #        6DNADR  DSPTAB         (12 AGC WDS)    0            5   ECADR
000037:                                                                                                  #        DNCHAN  30             CHANNELS        0            7   CHANNEL
000038:                                                                                                  #                                                                ADDRESS
000039:                                                                                                  #        DNPTR   NEXTLIST       POINTS TO NEXT  0            6   ADRES
000040:                                                                                                  #                                LIST.
000041:
000042:                                                                                                  #  DOWNLIST FORMAT DEFINITIONS AND RULES --
000043:                                                                                                  #  1. END OF A LIST = -XDNADR (X = 1 TO 6), -DNPTR, OR -DNCHAN.
000044:                                                                                                  #  2. SNAPSHOT SUBLIST = LIST WHICH STARTS WITH A -1DNADR.
000045:                                                                                                  #  3. SNAPSHOT SUBLIST CAN ONLY CONTAIN 1DNADRS.
000046:                                                                                                  #  4. TIME2 1DNADR MUST BE LOCATED IN THE CONTROL LIST OF A DOWNLIST.
000047:                                                                                                  #  5. ERASABLE DOWN TELEMETRY WORDS SHOULD BE GROUPED IN SEQUENTIAL
000048:                                                                                                  #     LOCATIONS AS MUCH AS POSSIBLE TO SAVE STORAGE USED BY DOWNLINK LISTS.
000049:
000050: 05,2045                                           COUNT*   $$/DLIST
000051: 05,2045                        ERASZERO           EQUALS   7
000052: 05,2045  0000007               UNKNOWN            EQUALS   ERASZERO
000053: 05,2045  0000007               SPARE              EQUALS   ERASZERO                              #  USE SPARE TO INDICATE AVAILABLE SPACE
000054: 05,2045           77340        LOWIDCOD           OCT      77340                                 #  LOW ID CODE
000055:
000056:
000057: 05,2046  05,2153               NOMDNLST           EQUALS   COSTALIN                              #  FRESH START AND POST P27 DOWNLIST
000058: 05,2046  05,2414               AGSLIST            EQUALS   AGSI/UPD
000059: 05,2046  05,2414               UPDNLIST           EQUALS   AGSI/UPD                              #  UPDATE PROGRAM (P27) DOWNLIST
000060:


000062:                                                                                                  #  LM ORBITAL MANEUVERS LIST
000063:
000064:                                                                                                  #      --------------------- CONTROL LIST -------------------------
000065:
000066: 05,2046                        ORBMANUV           EQUALS                                         #  SEND ID BY SPECIAL CODING
000067: 05,2046           32107                           DNPTR    LMORBM01                              #  COLLECT SNAPSHOT
000068: 05,2047           24340                           6DNADR   DNTMBUFF                              #  SEND SNAPSHOT
000069: 05,2050           03451                           1DNADR   DELLT4                                #  DELLT4,+1
000070: 05,2051           13443                           3DNADR   RTARG                                 #  RTARG,+1...+5
000071: 05,2052           02247                           1DNADR   ELEV                                  #  ELEV,+1
000072: 05,2053           01341                           1DNADR   TEVENT                                #  TEVENT,+1
000073: 05,2054           25731                           6DNADR   REFSMMAT                              #  REFSMMAT+0...+11D
000074: 05,2055           03633                           1DNADR   TCSI                                  #  TCSI,+1
000075: 05,2056           12257                           3DNADR   DELVEET1                              #  DELVEET1+0...+5
000076: 05,2057           13700                           3DNADR   VGTIG                                 #  VGTIG+0...+5
000077: 05,2060           01335                           1DNADR   DNLRVELZ                              #  DNLRVELZ,DNLRALT
000078: 05,2061           03630                           1DNADR   TPASS4                                #  TPASS4,+1
000079: 05,2062           32116                           DNPTR    LMORBM02                              #  COMMON DATA
000080: 05,2063           00024                           1DNADR   TIME2                                 #  TIME2/1
000081: 05,2064           32125                           DNPTR    LMORBM03                              #  COLLECT SNAPSHOT
000082: 05,2065           24340                           6DNADR   DNTMBUFF                              #  SEND SNAPSHOT
000083: 05,2066           32134                           DNPTR    LMORBM04                              #  COMMON DATA
000084: 05,2067           07115                           2DNADR   POSTORKU                              #  POSTORKU,NEGTORKU,POSTORKV,NEGTORKV
000085: 05,2070           01355                           1DNADR   SERVDURN                              #  SERVDURN,DUMLOOPS
000086: 05,2071           01774                           1DNADR   TCDH                                  #  TCDH,+1
000087: 05,2072           12265                           3DNADR   DELVEET2                              #  DELVEET2+0...+5
000088: 05,2073           03635                           1DNADR   TTPI                                  #  TTPI,+1
000089: 05,2074           12356                           3DNADR   DELVEET3                              #  DELVEET3+0...+5
000090: 05,2075           01330                           1DNADR   DNRRANGE                              #  DNRRANGE,DNRRDOT
000091: 05,2076           05333                           2DNADR   DNLRVELX                              #  DNLRVELX,DNLRVELY,DNLRVELZ,DNLRALT
000092: 05,2077           03577                           1DNADR   DIFFALT                               #  DIFFALT,+1
000093: 05,2100           01326                           1DNADR   LEMMASS                               #  LEMMASS,CSMMASS
000094: 05,2101           01277                           1DNADR   IMODES30                              #  IMODES30,IMODES33
000095: 05,2102           03441                           1DNADR   TIG                                   #  TIG,+1
000096: 05,2103           32140                           DNPTR    LMORBM05                              #  COMMON DATA
000097: 05,2104           32151                           DNPTR    LMORBM06                              #  COMMON DATA
000098: 05,2105           01363                           1DNADR   ALMCADR                               #  ALMCADR,+1
000099: 05,2106           74261                           -1DNADR  TGO                                   #  TGO,+1
000100:
000101:                                                                                                  #  --------------------- SUB-LISTS ---------------------------
000102:
000103: 05,2107           76060        LMORBM01           -1DNADR  R-OTHER    +2                         #  R-OTHER+2,+3           SNAPSHOT
000104: 05,2110           01721                           1DNADR   R-OTHER    +4                         #  R-OTHER+4,+5
000105: 05,2111           01723                           1DNADR   V-OTHER                               #  V-OTHER,+1
000106: 05,2112           01725                           1DNADR   V-OTHER    +2                         #  V-OTHER+2,+3
000107: 05,2113           01727                           1DNADR   V-OTHER    +4                         #  V-OTHER+4,+5
000108: 05,2114           01570                           1DNADR   T-OTHER                               #  T-OTHER,+1
000109: 05,2115           76062                           -1DNADR  R-OTHER                               #  R-OTHER+0,+1
000110:
000111: 05,2116           04320        LMORBM02           2DNADR   REDOCTR                               #  REDOCTR,THETAD,+1,+2  COMMON DATA
000112:


000114: 05,2117           01432                           1DNADR   RSBBQ                                 #  RSBBQ,+1
000115: 05,2120           07021                           2DNADR   OMEGAP                                #  OMEGAP,OMEGAQ,OMEGAR,GARBAGE
000116: 05,2121           07234                           2DNADR   CDUXD                                 #  CDUXD,CDUYD,CDUZD,GARBAGE
000117: 05,2122           04032                           2DNADR   CDUX                                  #  CDUX,CDUY,CDUZ,CDUT
000118: 05,2123           24074                           6DNADR   STATE                                 #  STATE+0...+11D (FLAGWORDS)
000119: 05,2124           52755                           -6DNADR  DSPTAB                                #  DSPTAB TABLES
000120:
000121: 05,2125           76556        LMORBM03           -1DNADR  RN         +2                         #  RN +2,+3                 SNAPSHOT
000122: 05,2126           01223                           1DNADR   RN         +4                         #  RN +4,+5
000123: 05,2127           01225                           1DNADR   VN                                    #  VN,+1
000124: 05,2130           01227                           1DNADR   VN         +2                         #  VN +2,+3
000125: 05,2131           01231                           1DNADR   VN         +4                         #  VN +4,+5
000126: 05,2132           01233                           1DNADR   PIPTIME                               #  PIPTIME,+1
000127: 05,2133           76560                           -1DNADR  RN                                    #  RN,+1
000128:
000129: 05,2134           07242        LMORBM04           2DNADR   OMEGAPD                               #  OMEGAPD,OMEGAQD,OMEGARD,GARBAGE
000130: 05,2135           34076                           DNCHAN   76                                    #  GRABAGE,CHANNEL77
000131: 05,2136           04374                           2DNADR   CHANBKUP
000132: 05,2137           77667                           -1DNADR  RADMODES                              #  RADMODES,DAPBOOLS        COMMON DATA
000133:
000134: 05,2140           07021        LMORBM05           2DNADR   OMEGAP                                #  OMEGAP,OMEGAQ,OMEGAR,GARBAGE
000135: 05,2141           07234                           2DNADR   CDUXD                                 #  CDUXD,CDUYD,CDUZD,GARBAGE
000136: 05,2142           04032                           2DNADR   CDUX                                  #  CDUX,CDUY,CDUZ,CDUT
000137: 05,2143           03024                           1DNADR   ALPHAQ                                #  ALPHAQ,ALPHAR            COMMON DATA
000138: 05,2144           03113        LMORB10            1DNADR   POSTORKP                              #  POSTORKP,NEGTORKP
000139: 05,2145           34011        LMORBM09           DNCHAN   11                                    #  CHANNELS11,12
000140: 05,2146           34013                           DNCHAN   13                                    #  CHANNELS13,14
000141: 05,2147           34030                           DNCHAN   30                                    #  CHANNELS30,31
000142: 05,2150           43745                           -DNCHAN  32                                    #  CHANNELS32,33
000143:
000144: 05,2151           03560        LMORBM06           1DNADR   PIPTIME1                              #  PIPTIME,+1               COMMON DATA
000145: 05,2152           67453                           -3DNADR  DELV                                  #  DELV+0...+5
000146:
000147:                                                                                                  #      --------------------------------------------------------
000148:                                                                                                  #  *** THE FOLLOWING IS ALIST OF LOCATIONS IN DOWNLINK LISTS
000149:                                                                                                  #  *** BUT NOT REFERENCED IN THE DIRECTORY BECAUSE THEY ARE NOT
000150:                                                                                                  #  *** THE FIRST LOCATION REFEENCED IN AN INSTRUCTION
000151:                                                                                                  #  *** THIS LIST SHOULD BE UPDATED WHEN ANY CHANGES ARE MADE TO LISTS.
000152:                                                                                                  #  --------------------------------------------------------------------
000153:
000154:                                                                                                  #                                LOCATON         LIST NAME
000155: 05,2153     1336               DL101              =        DNLRALT                               #  ORBMANUV
000156: 05,2153  0000025               DL102              =        TIME1
000157: 05,2153  E6,1516               DL1O3              =        NEGTORKU
000158: 05,2153  E6,1517               DL104              =        POSTORKV
000159: 05,2153  E6,1520               DL105              =        NEGTORKV
000160: 05,2153     1356               DL106              =        DUMLOOPS
000161: 05,2153     1331               DL107              =        DNRRDOT
000162: 05,2153     1334               DL108              =        DNLRVELY
000163:


000165: 05,2153     1335               DL109              =        DNLRVELZ
000166: 05,2153     1336               DL110              =        DNLRALT
000167: 05,2153     1327               DL111              =        CSMMASS
000168: 05,2153     1300               DL112              =        IMODES33
000169: 05,2153     0321               DL113              =        THETAD                                #  LMORBM02
000170: 05,2153  E6,1422               DL114              =        OMEGAQ
000171: 05,2153  E6,1423               DL115              =        OMEGAR
000172: 05,2153  E6,1635               DL116              =        CDUYD
000173: 05,2153  E6,1636               DL117              =        CDUZD
000174: 05,2153  0000033               DL118              =        CDUY
000175: 05,2153  0000034               DL119              =        CDUZ
000176: 05,2153  0000035               DL120              =        CDUT
000177: 05,2153  E6,1643               DL121              =        OMEGAQD                               #  LMORBM04
000178: 05,2153  E6,1644               DL122              =        OMEGARD
000179: 05,2153     0375               DL123              =        FAILREG
000180: 05,2153     0111               DL124              =        DAPBOOLS
000181: 05,2153  E6,1422               DL125              =        OMEGAQ                                #  LMORBM05
000182: 05,2153  E6,1423               DL126              =        OMEGAR
000183: 05,2153  E6,1635               DL127              =        CDUYD
000184: 05,2153  E6,1636               DL128              =        CDUZD
000185: 05,2153  0000033               DL129              =        CDUY
000186: 05,2153  0000034               DL130              =        CDUZ
000187: 05,2153  0000035               DL131              =        CDUT
000188: 05,2153  E6,1425               DL132              =        ALPHAR
000189: 05,2153  E6,1514               DL133              =        NEGTORKP
000190:


000192:                                                                                                  #  LM COAST AND ALIGNMENT DOWNLIST
000193:
000194:                                                                                                  #      -----------------  CONTROL LIST  --------------------------------
000195:
000196: 05,2153                        COSTALIN           EQUALS                                         #  SEND ID BY SPECIAL CODING
000197: 05,2153           32107                           DNPTR    LMCSTA01                              #  COLLECT SNAPSHOT
000198: 05,2154           24340                           6DNADR   DNTMBUFF                              #  SEND SNAPSHOT
000199: 05,2155           03371                           1DNADR   AGSK                                  #  AGSK,+1
000200: 05,2156           02774                           1DNADR   TALIGN                                #  TALIGN,+1
000201: 05,2157           07115                           2DNADR   POSTORKU                              #  POSTORKU,NEGTORKU,POSTORKV,NEGTORKV
000202: 05,2160           01330                           1DNADR   DNRRANGE                              #  DNRRANGE,DNRRDOT
000203: 05,2161           01341                           1DNADR   TEVENT                                #  TEVENT,+1
000204: 05,2162           25731                           6DNADR   REFSMMAT                              #  REFSMMAT+0...+11D
000205: 05,2163           01235                           1DNADR   AOTCODE                               #  AOTCODE,GARBAGE
000206: 05,2164           12020                           3DNADR   RLS                                   #  RLS+0...+5
000207: 05,2165           05333                           2DNADR   DNLRVELX                              #  DNLRVELX,DNLRVELY,DNLRVELZ,DNLRALT
000208: 05,2166           13700                           3DNADR   VGTIG                                 #  VGTIGX,Y,Z
000209: 05,2167           32116                           DNPTR    LMCSTA02                              #  COMMON DATA
000210: 05,2170           00024                           1DNADR   TIME2                                 #  TIME2/1
000211: 05,2171           32125                           DNPTR    LMCSTA03                              #  COLLECT SNAPSHOT
000212: 05,2172           24340                           6DNADR   DNTMBUFF                              #  SEND SNAPSHOT
000213: 05,2173           32134                           DNPTR    LMCSTA04                              #  COMMON DATA
000214: 05,2174           32215                           DNPTR    LMCSTA07                              #  COMMON DATA
000215: 05,2175           01355                           1DNADR   SERVDURN                              #  SERVDURN,DUMLOOPS
000216: 05,2176           01516                           1DNADR   TET                                   #  TEST,+1
000217: 05,2177           04036                           2DNADR   CDUS                                  #  CDUS,PIPAX,PIPAY,PIPAZ
000218: 05,2200           00112                           1DNADR   LASTYCMD                              #  LASTYCMD,LASTXCMD
000219: 05,2201           01326                           1DNADR   LEMMASS                               #  LEMMASS,CSMMASS
000220: 05,2202           01277                           1DNADR   IMODES30                              #  IMODES30,IMODES33
000221: 05,2203           03441                           1DNADR   TIG                                   #  TIG,+1
000222: 05,2204           32207                           DNPTR    LMCSTA05                              #  COMMON DATA
000223: 05,2205           32144                           DNPTR    LMCSTA10                              #  COMMON DATA
000224: 05,2206           52755                           -6DNADR  DSPTAB                                #  DSPTAB+0...+11D TABLE
000225:
000226:                                                                                                  #      -----------------  SUB-LISTS  --------------------------
000227:
000228: 05,2207  05,2107               LMCSTA01           EQUALS   LMORBM01                              #  COMMON DOWNLIST DATA
000229:
000230: 05,2207  05,2116               LMCSTA02           EQUALS   LMORBM02                              #  COMMON DOWNLIST DATA
000231:
000232: 05,2207  05,2125               LMCSTA03           EQUALS   LMORBM03                              #  COMMON DOWNLIST DATA
000233:
000234: 05,2207  05,2134               LMCSTA04           EQUALS   LMORBM04                              #  COMMON DOWNLIST DATA
000235:
000236: 05,2207           07021        LMCSTA05           2DNADR   OMEGAP                                #  OMEGAP,OMEGAQ,OMEGAR,GARBAGE
000237: 05,2210           07234                           2DNADR   CDUXD                                 #  CDUXD,CDUYD,CDUZD,GARBAGE
000238: 05,2211           04032                           2DNADR   CDUX                                  #  CDUX,CDUY,CDUZ,CDUT
000239: 05,2212           76520                           -1DNADR  CH5MASK                               #  CH5MASK,CH6MASK        COMMON DATA
000240:
000241: 05,2213           05700        LMCSTA06           2DNADR   X789                                  #  X789+0...+3              COMMON DATA
000242:


000244: 05,2214           77665                           -1DNADR  LASTYCMD                              #  LASTYCMD,LASTXCMD
000245:
000246: 05,2215           12737        LMCSTA07           3DNADR   OGC                                   #  OGC,+1,IGC,+1,MGC,+1     COMMON DATA
000247: 05,2216           02755                           1DNADR   BESTI                                 #  BESTI,BESTJ
000248: 05,2217           12760                           3DNADR   STARSAV1                              #  STARSAV1+0...+5
000249: 05,2220           65011                           -3DNADR  STARSAV2                              #  STARSAV2+0...+5
000250:
000251: 05,2221  05,2144               LMCSTA10           EQUALS   LMORB10                               #  COMMON DOWNLIST DATA
000252:
000253:                                                                                                  #      ---------------------------------------------------------
000254:                                                                                                  #  *** UNREFERENCED LOCATIONS USED IN LIST 2
000255:                                                                                                  #  *** UPDATE THIS LIST WHEN ANY CHANGES ARE MADE TO DOWNLINK LISTS.
000256:
000257:                                                                                                  #                                LOCATON         LIST NAME
000258: 05,2221  E6,1516               DL201              =        NEGTORKU                              #  COSTALIN
000259: 05,2221  E6,1517               DL202              =        POSTORKV
000260: 05,2221  E6,1520               DL203              =        NEGTORKV
000261: 05,2221     1331               DL204              =        DNRRDOT
000262: 05,2221     1334               DL205              =        DNLRVELY
000263: 05,2221     1335               DL206              =        DNLRVELZ
000264: 05,2221     1336               DL207              =        DNLRALT
000265: 05,2221  0000025               DL208              =        TIME1
000266: 05,2221     1356               DL209              =        DUMLOOPS
000267: 05,2221  0000037               DL210              =        PIPAX
000268: 05,2221  0000040               DL211              =        PIPAY
000269: 05,2221  0000041               DL212              =        PIPAZ
000270: 05,2221     0113               DL213              =        LASTXCMD
000271: 05,2221     1327               DL214              =        CSMMASS
000272: 05,2221     1300               DL215              =        IMODES33
000273: 05,2221     0113               DL216              =        LASTXCMD                              #  LMCSTA06
000274: 05,2221  E5,1741               DL217              =        IGC                                   #  LMCSTA07
000275: 05,2221  E5,1743               DL218              =        MGC
000276: 05,2221  E5,1756               DL219              =        BESTJ
000277: 05,2221     1260               DL220              =        CH6MASK
000278:


000280:                                                                                                  #  LM RENDEZVOUS AND PRE-THRUST DOWNLIST
000281:
000282:                                                                                                  #      -----------------  CONTROL LIST  ------------------------
000283:
000284: 05,2221                        RENDEZVU           EQUALS                                         #  SEND ID BY SPECIAL CODING
000285: 05,2221           32107                           DNPTR    LMREND01                              #  COLLECT SNAPSHOT
000286: 05,2222           24340                           6DNADR   DNTMBUFF                              #  SEND SNAPSHOT
000287: 05,2223           32265                           DNPTR    LMREND07                              #  COLLECT SNAPSHOT
000288: 05,2224           32275                           DNPTR    LMREND08                              #  SEND    SNAPSHOT
000289: 05,2225           03451                           1DNADR   DELLT4                                #  DELLT4,+1
000290: 05,2226           13433                           3DNADR   DELVSLV                               #  DELVSLV+0...+5
000291: 05,2227           03633                           1DNADR   TCSI                                  #  TCSI,+1
000292: 05,2230           12257                           3DNADR   DELVEET1                              #  DELVEET 0...+5
000293: 05,2231           01355                           1DNADR   SERVDURN                              #  SERVDURN,DUMLOOPS
000294: 05,2232           03630                           1DNADR   TPASS4                                #  TPASS4,+1
000295: 05,2233           32213                           DNPTR    LMREND06                              #  COMMON DATA
000296: 05,2234           32116                           DNPTR    LMREND02                              #  COMMON DATA
000297: 05,2235           00024                           1DNADR   TIME2                                 #  TIME2/1
000298: 05,2236           32125                           DNPTR    LMREND03                              #  COLLECT SNAPSHOT
000299: 05,2237           24340                           6DNADR   DNTMBUFF                              #  SEND SNAPSHOT
000300: 05,2240           32134                           DNPTR    LMREND04                              #  COMMON DATA
000301: 05,2241           07115                           2DNADR   POSTORKU                              #  POSTORKU,NEGTORKU,POSTORKV,NEGTORKV
000302: 05,2242           01363                           1DNADR   ALMCADR                               #  ALMCADR,+1
000303: 05,2243           01774                           1DNADR   TCDH                                  #  TCDH,+1
000304: 05,2244           12265                           3DNADR   DELVEET2                              #  DELVEET2+0...+5
000305: 05,2245           03635                           1DNADR   TTPI                                  #  TTPI,+1
000306: 05,2246           12356                           3DNADR   DELVEET3                              #  DELVEET3+0...+5
000307: 05,2247           02247                           1DNADR   ELEV                                  #  ELEV,+1
000308: 05,2250           04036                           2DNADR   CDUS                                  #  CDUS,PIPAX,PIPAY,PIPAZ
000309: 05,2251           00112                           1DNADR   LASTYCMD                              #  LASTYCMD,LASTXCMD
000310: 05,2252           01326                           1DNADR   LEMMASS                               #  LEMMASS,CSMMASS
000311: 05,2253           01277                           1DNADR   IMODES30                              #  IMODES30,IMODES33
000312: 05,2254           03441                           1DNADR   TIG                                   #  TIG,+1
000313: 05,2255           32207                           DNPTR    LMREND05                              #  COMMON DATA
000314: 05,2256           32144                           DNPTR    LMREND10                              #  COMMON DATA
000315: 05,2257           01516                           1DNADR   TET                                   #  TET,+1
000316: 05,2260           03620                           1DNADR   CENTANG                               #  CENTANG,+1
000317: 05,2261           03466                           1DNADR   NN                                    #  NN,+1
000318: 05,2262           03577                           1DNADR   DIFFALT                               #  DIFFALT,+1
000319: 05,2263           02340                           1DNADR   DELVTPF                               #  DELVTPF,+1
000320: 05,2264           77770                           -1DNADR  SPARE
000321:
000322:                                                                                                  #     -------------------  SUB-LISTS  --------------------------
000323:
000324: 05,2265  05,2107               LMREND01           EQUALS   LMORBM01                              #  COMMON DOWNLIST DATA
000325:
000326: 05,2265  05,2116               LMREND02           EQUALS   LMORBM02                              #  COMMON DOWNLIST DATA
000327:
000328: 05,2265  05,2125               LMREND03           EQUALS   LMORBM03                              #  COMMON DOWNLIST DATA
000329:


000331: 05,2265  05,2134               LMREND04           EQUALS   LMORBM04                              #  COMMON DOWNLIST DATA
000332:
000333: 05,2265  05,2207               LMREND05           EQUALS   LMCSTA05                              #  COMMON DOWNLIST DATA
000334:
000335: 05,2265  05,2213               LMREND06           EQUALS   LMCSTA06                              #  COMMON DOWNLIST DATA
000336:
000337: 05,2265           74320        LMREND07           -1DNADR  AIG                                   #  AIG,AMG       SNAPSHOT
000338: 05,2266           03461                           1DNADR   AOG                                   #  AOG,TRKMKCNT
000339: 05,2267           03752                           1DNADR   TANGNB                                #  TANGNB,+1
000340: 05,2270           03753                           1DNADR   TANGNB     +1                         #  TANGNB+1,GARBAGE
000341: 05,2271           03760                           1DNADR   RANGRDOT                              #  RANGRDOT, +1
000342: 05,2272           03761                           1DNADR   RANGRDOT   +1                         #  RANGERDOT +1,GARBAGE
000343: 05,2273           01073                           1DNADR   AGSCODE                               #  AGSCODE,GARBAGE
000344: 05,2274           74023                           -1DNADR  MKTIME                                #  MKTIME,+1
000345: 05,2275           24340        LMREND08           6DNADR   DNTMBUFF                              #  SEND SNAPSHOT
000346: 05,2276           77423                           -1DNADR  DNTMBUFF   +12D                       #  SEND SNAPSHOT
000347: 05,2277  05,2144               LMREND10           EQUALS   LMORB10                               #  COMMON DATA
000348:
000349:                                                                                                  #      -----------------------------------------------------------
000350:                                                                                                  #  *** UNREFERENCED LOCATIONS USED IN LIST 3
000351:                                                                                                  #                                                         LOCATON         LIST NAME
000352:
000353:                                                                                                  #  *** UPDATE THIS LIST WHEN ANY CHANGES ARE MADE TO DOWNLINK LISTS.
000354:
000355:
000356: 05,2277     1356               DL301              =        DUMLOOPS                              #  RENDEZVU
000357: 05,2277  0000025               DL302              =        TIME1
000358: 05,2277  E6,1516               DL303              =        NEGTORKU
000359: 05,2277  E6,1517               DL304              =        POSTORKV
000360: 05,2277  E6,1520               DL305              =        NEGTORKV
000361: 05,2277  0000037               DL306              =        PIPAX
000362: 05,2277  0000040               DL307              =        PIPAY
000363: 05,2277  0000041               DL308              =        PIPAZ
000364: 05,2277     0113               DL309              =        LASTXCMD
000365: 05,2277     1327               DL310              =        CSMMASS
000366: 05,2277     1300               DL311              =        IMODES33
000367: 05,2277  E7,1460               DL312              =        AMG                                   #  LMREND07
000368: 05,2277  E7,1462               DL313              =        TRKMKCNT
000369: 05,2277     1331               DL314              =        DNRRDOT
000370:


000372:                                                                                                  #  LM DESCENT AND ASCENT DOWNLIST
000373:
000374:                                                                                                  #      -----------------  CONTROL LIST  ------------------------
000375:
000376: 05,2277                        DESC/ASC           EQUALS                                         #  SEND ID BY SPECIAL CODING
000377: 05,2277           01363                           1DNADR   ALMCADR                               #  ALMCADR,+1
000378: 05,2300           32347                           DNPTR    LMDSAS08                              #  COLLECT SNAPSHOT
000379: 05,2301           10340                           3DNADR   DNTMBUFF                              #  SNED SNAPSHOT
000380: 05,2302           32340                           DNPTR    LMDSAS07                              #  COLLECT SNAPSHOT
000381: 05,2303           24340                           6DNADR   DNTMBUFF                              #  SEND SNAPSHOT
000382: 05,2304           01341                           1DNADR   TEVENT                                #  TEVENT,+1
000383: 05,2305           13251                           3DNADR   UNFC/2                                #  UNFC/2+0...+5
000384: 05,2306           13645                           3DNADR   VGVECT                                #  VGVECT+0...+5
000385: 05,2307           03642                           1DNADR   TTF/8                                 #  TTF/8,+1
000386: 05,2310           00007                           1DNADR   SPARE
000387: 05,2311           12020                           3DNADR   RLS                                   #  RLS+0...+5
000388: 05,2312           02267                           1DNADR   ZDOTD                                 #  ZDOTD,+1
000389: 05,2313           32213                           DNPTR    LMDSAS09                              #  COMMON DATA
000390: 05,2314           32116                           DNPTR    LMDSAS02                              #  COMMON DATA
000391: 05,2315           00024                           1DNADR   TIME2                                 #  TIME2/1
000392: 05,2316           32125                           DNPTR    LMDSAS03                              #  COLLECT SNAPSHOT
000393: 05,2317           24340                           6DNADR   DNTMBUFF                              #  SEND SNAPSHOT
000394: 05,2320           32134                           DNPTR    LMDSAS04                              #  COMMON DATA
000395: 05,2321           07115                           2DNADR   POSTORKU                              #  POSTORKU,NEGTORKU,POSTORKV,NEGTORKV
000396: 05,2322           12623                           3DNADR   RGU                                   #  RGU+0...+5
000397: 05,2323           13626                           3DNADR   VGU                                   #  VGU+0...+5
000398: 05,2324           13634                           3DNADR   LAND                                  #  LAND+0...+5
000399: 05,2325           02253                           1DNADR   AT                                    #  AT,+1
000400: 05,2326           02026                           1DNADR   TLAND                                 #  TLAND,+1
000401: 05,2327           03507                           1DNADR   DVTOTAL                               #  DVTOTA;,+1
000402: 05,2330           00112                           1DNADR   LASTYCMD                              #  LASTYCMD,LASTXCMD
000403: 05,2331           01326                           1DNADR   LEMMASS                               #  LEMMASS,CSMMASS
000404: 05,2332           01277                           1DNADR   IMODES30                              #  IMODES30,IMODES33
000405: 05,2333           03441                           1DNADR   TIG                                   #  TIG,+1
000406: 05,2334           32140                           DNPTR    LMDSAS05                              #  COMMON DATA
000407: 05,2335           32151                           DNPTR    LMDSAS06                              #  COMMON DATA


000410:                                                                                                  ##


000413:                                                                                                  ##
000414: 05,2336           03614                           1DNADR   PSEUDO55                              #  PSEUDO55,GARBAGE
000415: 05,2337           74324                           -1DNADR  TTOGO                                 #  TTOGO,+1
000416:                                                                                                  #     --------------------  SUB-LISTS  ------------------------
000417:
000418: 05,2340  05,2116               LMDSAS02           EQUALS   LMORBM02                              #  COMMON DOWNLIST DATA
000419:
000420: 05,2340  05,2125               LMDSAS03           EQUALS   LMORBM03                              #  COMMON DOWNLIST DATA
000421:
000422: 05,2340  05,2134               LMDSAS04           EQUALS   LMORBM04                              #  COMMON DOWNLIST DATA
000423:
000424: 05,2340  05,2140               LMDSAS05           EQUALS   LMORBM05                              #  COMMON DOWNLIST DATA
000425:
000426: 05,2340  05,2151               LMDSAS06           EQUALS   LMORBM06                              #  COMMON DOWNLIST DATA


000429:


000431: 05,2340           74001        LMDSAS07           -1DNADR  HMEASDL                               #  HMEASDL,+1
000432: 05,2341           03652                           1DNADR   VMEAS                                 #  VMEAS,+1
000433: 05,2342           03457                           1DNADR   AIG                                   #  AIG,AMG
000434: 05,2343           03461                           1DNADR   AOG                                   #  AOG,VSELECT
000435: 05,2344           03732                           1DNADR   LATVMETR                              #  LATVMETR,FORVMETR
000436: 05,2345           01355                           1DNADR   SERVDURN                              #  SERVDURN,DUMLOOPS
000437: 05,2346           74023                           -1DNADR  MKTIME                                #  MKTIME,+1
000438:
000439: 05,2347           74113        LMDSAS08           -1DNADR  DELTAH                                #  DELTAH,+1
000440: 05,2350           03615                           1DNADR   FC                                    #  FC,+1
000441: 05,2351           03752                           1DNADR   GTCTIME                               #  GTCTIME,+1
000442: 05,2352           74041                           -1DNADR  TRUDELH                               #  TRUDELH,+1
000443:
000444: 05,2353  05,2213               LMDSAS09           EQUALS   LMCSTA06                              #  COMMON DOWNLIST DATA
000445:
000446:                                                                                                  #      --------------------------------------------------------
000447:
000448:                                                                                                  #  *** UNREFERENCED LOCATIONS USED IN LIST 4
000449:                                                                                                  #  *** UPDATE THIS LIST WHEN ANY CHANGES ARE MADE TO DOWNLINK LISTS.
000450:
000451:
000452:                                                                                                  #                                                          LOCATION          LIST NAME
000453:
000454: 05,2353  0000025               DL401              =        TIME1                                 #  DESC/ASC
000455: 05,2353  E6,1516               DL402              =        NEGTORKU
000456: 05,2353  E6,1517               DL403              =        POSTORKV
000457: 05,2353  E6,1520               DL404              =        NEGTORKV
000458: 05,2353     0113               DL405              =        LASTXCMD
000459: 05,2353     1327               DL406              =        CSMMASS
000460: 05,2353     1300               DL407              =        IMODES33
000461: 05,2353  E7,1460               DL408              =        AMG                                   #  LMDSAS07
000462: 05,2353  E7,1462               DL409              =        VSELECT
000463: 05,2353  E7,1733               DL410              =        FORVMETR
000464: 05,2353     1356               DL411              =        DUMLOOPS
000465:


000467:                                                                                                  #  LM LUNAR SURFACE ALIGN DOWNLIST
000468:
000469:                                                                                                  #      -----------------  CONTROL LIST  ---------------------
000470:
000471: 05,2353                        SURFALIN           EQUALS                                         #  SEND ID BY SPECIAL CODING
000472: 05,2353           32107                           DNPTR    LMLSAL01                              #  COLLECT SNAPSHOT
000473: 05,2354           24340                           6DNADR   DNTMBUFF                              #  SEND SNAPSHOT
000474: 05,2355           32407                           DNPTR    LMLSAL07                              #  COLLECT SNAPSHOT
000475: 05,2356           14340                           4DNADR   DNTMBUFF                              #  SEND SHAPSHOT
000476: 05,2357           02774                           1DNADR   TALIGN                                #  TALIGN,+1
000477: 05,2360           25731                           6DNADR   REFSMMAT                              #  REFSMMAT+0...+11D
000478: 05,2361           26227                           6DNADR   YNBSAV                                #  YNBSAV+0...+5,SNBSAV+0...+5
000479: 05,2362           01700                           1DNADR   X789                                  #  X789,+1
000480: 05,2363           01516                           1DNADR   TET                                   #  TET,+1
000481: 05,2364           00112                           1DNADR   LASTYCMD                              #  LASTYCMD,LASTXCMD
000482: 05,2365           32116                           DNPTR    LMLSAL02                              #  COMMON DATA
000483: 05,2366           00024                           1DNADR   TIME2                                 #  TIME/1
000484: 05,2367           32125                           DNPTR    LMLSAL03                              #  COLLECT SNAPSHOT
000485: 05,2370           24340                           6DNADR   DNTMBUFF                              #  SEND SHAPSHOT
000486: 05,2371           32134                           DNPTR    LMLSAL04                              #  COMMON DATA
000487: 05,2372           32215                           DNPTR    LMLSAL08                              #  COMMON DATA
000488: 05,2373           12221                           3DNADR   GSAV                                  #  GSAV +0...+5
000489: 05,2374           03371                           1DNADR   AGSK                                  #  AGSK,+1
000490: 05,2375           00112                           1DNADR   LASTYCMD                              #  LASTYCMD,LASTXCMD
000491: 05,2376           01326                           1DNADR   LEMMASS                               #  LEMMASS,CSMMASS
000492: 05,2377           01277                           1DNADR   IMODES30                              #  IMODES30,IMODES33
000493: 05,2400           03441                           1DNADR   TIG                                   #  TIG,+1
000494: 05,2401           32207                           DNPTR    LMSAL05                               #  COMMON DATA
000495: 05,2402           01235                           1DNADR   AOTCODE                               #  AOTCODE,GARBAGE
000496: 05,2403           32145                           DNPTR    LMLSAL09                              #  COMMON DATA
000497: 05,2404           32151                           DNPTR    LMLSAL06                              #  COMMON DATA
000498: 05,2405           03561                           1DNADR   TSIGHT                                #  TSIGHT,TSIGHT +1
000499: 05,2406           76537                           -1DNADR  CURSOR                                #  AOT CURSOR,SPIRAL
000500:                                                                                                  #      -----------------  SUB-LISTS  ----------------------
000501:
000502: 05,2407  05,2107               LMLSAL01           EQUALS   LMORBM01                              #  COMMON DOWNLIST DATA
000503:
000504: 05,2407  05,2116               LMLSAL02           EQUALS   LMORBM02                              #  COMMON DOWNLIST DATA
000505:
000506: 05,2407  05,2125               LMLSAL03           EQUALS   LMORBM03                              #  COMMON DOWNLIST DATA
000507:
000508: 05,2407  05,2134               LMLSAL04           EQUALS   LMORBM04                              #  COMMON DOWNLIST DATA
000509:
000510: 05,2407  05,2207               LMSAL05            EQUALS   LMCSTA05                              #  COMMON DOWNLIST DATA
000511:
000512: 05,2407  05,2151               LMLSAL06           EQUALS   LMORBM06                              #  COMMON DOWNLIST DATA
000513:
000514: 05,2407           74320        LMLSAL07           -1DNADR  AIG                                   #  AIG,AMG              SNAPSHOT
000515: 05,2410           03461                           1DNADR   AOG                                   #  AOG,TRKMKCNT
000516: 05,2411           03752                           1DNADR   TANGNB                                #  TANGNB,+1
000517:


000519: 05,2412           03754                           1DNADR   MKTIME                                #  MKTIME,+1
000520: 05,2413           74017                           -1DNADR  RANGRDOT                              #  DNRRANGE,DNRRDOT
000521:
000522: 05,2414  05,2215               LMLSAL08           EQUALS   LMCSTA07                              #  COMMON DOWNLIST DATA
000523: 05,2414  05,2145               LMLSAL09           EQUALS   LMORBM09                              #  COMMON DOWNLIST DATA
000524:                                                                                                  #      --------------------------------------------------------
000525:                                                                                                  #  *** UNREFERENCED LOCATIONS USED IN LIST 5
000526:                                                                                                  #  *** UPDATE THIS LIST WHEN ANY CHANGES ARE MADE TO DOWNLINK LISTS.
000527:
000528:
000529:                                                                                                  #                                                          LOCATION           LIST NAME
000530:
000531: 05,2414  E4,1635               DL501              =        ZNBSAV                                #  SURFALIN
000532: 05,2414     0113               DL502              =        LASTXCMD
000533: 05,2414  0000025               DL503              =        TIME1
000534: 05,2414     0113               DL504              =        LASTXCMD
000535: 05,2414     1327               DL505              =        CSMMASS
000536: 05,2414     1300               DL506              =        IMODES33
000537: 05,2414  E6,1422               DL507              =        OMEGAQ
000538: 05,2414  E6,1423               DL508              =        OMEGAR
000539: 05,2414  E6,1635               DL509              =        CDUYD
000540: 05,2414  E6,1636               DL510              =        CDUZD
000541: 05,2414  0000033               DL511              =        CDUY
000542: 05,2414  0000034               DL512              =        CDUZ
000543: 05,2414  0000035               DL513              =        CDUT


000546:                                                                                                  ##
000547: 05,2414  E6,1425               DL514              =        ALPHAR
000548: 05,2414     1241               DL515              =        SPIRAL
000549: 05,2414  E7,1460               DL516              =        AMG                                   #  LMSAL07
000550: 05,2414  E7,1462               DL517              =        TRKMKCNT
000551: 05,2414     1331               DL518              =        DNRRDOT
000552:


000554:                                                                                                  #  LM AGS INITIALIZATION AND UPDATE DOWNLIST
000555:
000556:                                                                                                  #      -----------------  CONTROL LIST  --------------------
000557:
000558: 05,2414                        AGSI/UPD           EQUALS                                         #  SEND IO BY SPECIAL CODING
000559: 05,2414           12171                           3DNADR   AGSBUFF    +0                         #  AGSBUFF+0...+5
000560: 05,2415           02205                           1DNADR   AGSBUFF    +12D                       #  AGSBUFF+12D,GARBAGE
000561: 05,2416           12172                           3DNADR   AGSBUFF    +1                         #  AGSBUFF+1...+6
000562: 05,2417           02206                           1DNADR   AGSBUFF    +13D                       #  AGSBUFF+13D, GARBAGE
000563: 05,2420           12177                           3DNADR   AGSBUFF    +6                         #  AGSBUFF+6...+11
000564: 05,2421           02205                           1DNADR   AGSBUFF    +12D                       #  AGSBUFF+12D,GARBAGE
000565: 05,2422           12200                           3DNADR   AGSBUFF    +7                         #  AGSBUFF+7...+12D
000566: 05,2423           02206                           1DNADR   AGSBUFF    +13D                       #  AGSBUFF+13D,GARBAGE
000567: 05,2424           25167                           6DNADR   COMPNUMB                              #  COMPNUMB,UPOLDMOD,UPVERB,UPCOUNT,
000568:                                                                                                  #  UPBUFF+0...+7
000569: 05,2425           25203                           6DNADR   UPBUFF     +8D                        #  UPBUFF +8D...+19D
000570: 05,2426           32116                           DNPTR    LMAGSI02                              #  COMMON DATA
000571: 05,2427           00024                           1DNADR   TIME2                                 #  TIME2/1
000572: 05,2430           32125                           DNPTR    LMAGSI03                              #  COLLECT SNAPSHOT
000573: 05,2431           24340                           6DNADR   DNTMBUFF                              #  SEND SNAPSHOT
000574: 05,2432           32134                           DNPTR    LMAGSI04                              #  COMMON DATA
000575: 05,2433           07115                           2DNADR   POSTORKU                              #  POSTORKU,NEGTORKU,POSTORKV,NEGTORKV
000576: 05,2434           01355                           1DNADR   SERVDURN                              #  SERVDURN.DUMLOOPS
000577: 05,2435           01363                           1DNADR   ALMCADR                               #  ALMCADR,+1
000578: 05,2436           03371                           1DNADR   AGSK                                  #  AGSK,+1
000579: 05,2437           25173                           6DNADR   UPBUFF                                #  UPBUFF+0...+11D
000580: 05,2440           15207                           4DNADR   UPBUFF     +12D                       #  UPBUFF+12D...+19D
000581: 05,2441           01326                           1DNADR   LEMMASS                               #  LEMMASS,CSMMASS
000582: 05,2442           01277                           1DNADR   IMODES30                              #  IMODES30,IMODES33
000583: 05,2443           00007                           1DNADR   SPARE
000584: 05,2444           32140                           DNPTR    LMAGSI05                              #  COMMON DATA
000585: 05,2445           52755                           -6DNADR  DSPTAB                                #  DSPTAB+0...+11D
000586:
000587:                                                                                                  #     ------------------  SUB-LISTS  ---------------------
000588:
000589: 05,2446  05,2116               LMAGSI02           EQUALS   LMORBM02                              #  COMMON DOWNLIST DATA
000590:
000591: 05,2446  05,2125               LMAGSI03           EQUALS   LMORBM03                              #  COMMON DOWNLIST DATA
000592:
000593: 05,2446  05,2134               LMAGSI04           EQUALS   LMORBM04                              #  COMMON DOWNLIST DATA
000594:
000595: 05,2446  05,2140               LMAGSI05           EQUALS   LMORBM05                              #  COMMON DOWNLIST DATA
000596:
000597:                                                                                                  #     ------------------------------------------------------
000598:
000599:                                                                                                  #  *** UNREFERENCED LOCATIONS USED IN LIST 6
000600:                                                                                                  #  *** UPDATE THIS LIST AHEN ANY CHANGES ARE MADE TO DOWNLINK LISTS.
000601:
000602:                                                                                                  #                                                          LOCATION           LIST
000603:


000605: 05,2446     1170               DL601              =        UPOLDMOD                              #  AGSI/UPD
000606: 05,2446     1171               DL602              =        UPVERB
000607: 05,2446     1172               DL603              =        UPCOUNT
000608: 05,2446     1173               DL604              =        UPBUFF
000609: 05,2446  0000025               DL605              =        TIME1
000610: 05,2446  E6,1516               DL606              =        NEGTORKU
000611: 05,2446  E6,1517               DL607              =        POSTORKV
000612: 05,2446  E6,1520               DL608              =        NEGTORKV
000613: 05,2446     1356               DL609              =        DUMLOOPS
000614: 05,2446     1327               DL610              =        CSMMASS
000615: 05,2446     1300               DL611              =        IMODES33
000616:                                                                                                  # ---------------------------------------------------------
000617: 05,2446           02153        DNTABLE            GENADR   COSTALIN                              #  LM COAST AND ALIGN DOWNLIST
000618: 05,2447           02414                           GENADR   AGSI/UPD                              #  LM AGS INITIALIZATION/UPDATE DOWNLIST
000619: 05,2450           02221                           GENADR   RENDEZVU                              #  LM RENDEZVOUS AND PRETHRUST DOWNLIST
000620: 05,2451           02046                           GENADR   ORBMANUV                              #  LM ORBITAL MANEUVERS DOWNLIST
000621: 05,2452           02277                           GENADR   DESC/ASC                              #  LM DESCENT AND ASCENT DOWNLIST
000622: 05,2453           02353                           GENADR   SURFALIN                              #  LM LUNAR SURFACE ALIGN DOWNLIST
000623:                                                                                                  #  -------------------------------------------------
000624:
000625:

End of include-file DOWNLINK_LISTS.agc.  Parent file is MAIN.agc


