
Source Code


000002:                                                                                                  ## Copyright:   Public domain.
000003:                                                                                                  ## Filename:    ERASABLE_ASSIGNMENTS.agc
000004:                                                                                                  ## Purpose:     A section of Luminary revision 210.
000005:                                                                                                  ##              It is part of the source code for the Lunar Module's (LM)
000006:                                                                                                  ##              Apollo Guidance Computer (AGC) for Apollo 15-17.
000007:                                                                                                  ##              This file is intended to be a faithful transcription, except
000008:                                                                                                  ##              that the code format has been changed to conform to the
000009:                                                                                                  ##              requirements of the yaYUL assembler rather than the
000010:                                                                                                  ##              original YUL assembler.
000011:                                                                                                  ## Reference:   pp. 92-160
000012:                                                                                                  ## Assembler:   yaYUL
000013:                                                                                                  ## Contact:     Ron Burkey <info@sandroid.org>.
000014:                                                                                                  ## Website:     www.ibiblio.org/apollo/index.html
000015:                                                                                                  ## Mod history: 2016-11-17 JL   Created from Luminary131 version.
000016:                                                                                                  ##              2016-11-19 HG   Transcribed
000017:                                                                                                  ##              2016-11-25 HG   Fix operand MARKCNTR -> WHATMARK
000018:                                                                                                  ##                                          ASBC0    -> ABSC0
000019:                                                                                                  ##                                          ARPFGZ   -> ABRFGZ
000020:                                                                                                  ##                                  label   HCASCLAD -> HCALCLAD
000021:                                                                                                  ##                                          NETTOTKP -> NEGTORKP
000022:                                                                                                  ##                                          RBRRGZ   -> RBRFGZ
000023:                                                                                                  ##              2016-11-26 HG   Fix label   REULTCT  -> RESULTCT
000024:                                                                                                  ##              2016-11-28 HG   Fix operand SAMPLIN  -> SAMPLIM
000025:                                                                                                  ##              2016-11-29 HG   fix label   DVCNTRL  -> DVCNTR1
000026:                                                                                                  ##              2016-12-02 HG   fix operand FLPASSO  -> FLPASS0
000027:                                                                                                  ##              2016-12-07 HG   fix operand QAXIZ    -> QAXIS  adn mofidier +2 -> +6, fixes ZAXIS1
000028:                                                                                                  ##                                  label   1/DVO    -> 1/DV0
000029:                                                                                                  ##                                          ACSAVE   -> ASCSAVE
000030:                                                                                                  ##                                          DSPFLAG  -> DSPLG
000031:                                                                                                  ##                              add missing definition for label ZV
000032:                                                                                                  ##              2016-12-11 HG   Fix operand modification VVECT(X,Y,Z) + 1 -> VVECT(X,Y,Z)+ 2
000033:                                                                                                  ##              2016-12-22 RSB  Proofed comment text with octopus/ProoferComments
000034:                                                                                                  ##                              and fixed all errors found.
000035:                                                                                                  ##              2017-03-11 MAS  Corrected errors found during transcription of Luminary 116.
000036:                                                                                                  ##              2017-03-13 RSB  Comment-text fixes noted in proofing Luminary 116.
000037:                                                                                                  ##              2017-03-15 RSB  Comment-text fixes identified in 5-way
000038:                                                                                                  ##                              side-by-side diff of Luminary 69/99/116/131/210.
000039:


000041:                                                                                                  #  CONVENTIONS AND NOTATIONS UTILIZED FOR ERASABLE ASSIGNMENTS.
000042:
000043:                                                                                                  #           EQUALS IS USED IN TWO WAYS.  IT IS OFTEN USED TO CHAIN A GROUP
000044:                                                                                                  #                  OF ASSIGNMENTS SO THAT THE GROUP MAY BE MOVED WITH THE
000045:                                                                                                  #                  CHANGING OF ONLY ONE CARD.  EXAMPLE.
000046:
000047:                                                                                                  #                                          X        EQUALS  START
000048:                                                                                                  #                                          Y        EQUALS  X       +SIZE.X
000049:                                                                                                  #                                          Z        EQUALS  Y       +SIZE.Y
000050:
000051:                                                                                                  #                  (X, Y, AND Z ARE CONSECUTIVE AND BEGIN AT START.        )
000052:                                                                                                  #                  (SIZE.X AND SIZE.Y ARE THE RESPECTIVE SIZES OF X AND Y,
000053:                                                                                                  #                   USUALLY NUMERIC,  IE. 1, 2, 6, 18D ETC.               )
000054:
000055:                                                                                                  #           EQUALS  OFTEN IMPLIES THE SHARING OF REGISTERS (DIFFERENT NAMES
000056:                                                                                                  #                   AND DIFFERENT DATA).  EXAMPLE.
000057:
000058:                                                                                                  #                                           X       EQUALS  Y
000059:
000060:
000061:                                                                                                  #           = MEANS THAT MULTIPLE NAMES HAVE BEEN GIVEN TO THE SAME DATA.
000062:                                                                                                  #                  (THIS IS LOGICAL EQUIVALENCE, NOT SHARING)  EXAMPLE.
000063:
000064:                                                                                                  #                                           X       =       Y
000065:
000066:                                                                                                  #           THE SIZE AND UTILIZATION OF AN ERASABLE ARE OFTEN INCLUDED IN
000067:                                                                                                  #           THE COMMENTS IN THE FOLLOWING FORM.  M(SIZE)N.
000068:
000069:                                                                                                  #                  M  REFERS TO THE MOBILITY OF THE ASSIGNMENT.
000070:                                                                                                  #                        B       MEANS THAT THE SYMBOL IS REFERENCED BY BASIC
000071:                                                                                                  #                                INSTRUCTIONS AND THUS IS E-BANK SENSITIVE.
000072:                                                                                                  #                        I       MEANS THAT THE SYMBOL IS REFERENCED ONLY BY
000073:                                                                                                  #                                INTERPRETIVE INSTRUCTIONS, AND IS THUS E-BANK
000074:                                                                                                  #                                INSENSITIVE AND MAY APPEAR IN ANY E-BANK.
000075:
000076:                                                                                                  #                  SIZE    IS THE NUMBER OF REGISTERS INCLUDED BY THE SYMBOL.
000077:
000078:                                                                                                  #                  N INDICATES THE NATURE OF PERMANENCE OF THE CONTENTS.
000079:                                                                                                  #                       PL  MEANS THAT THE CONTENTS ARE PAD LOADED.
000080:                                                                                                  #                       DSP MEANS THAT THE REGISTER IS USED FOR A DISPLAY.
000081:                                                                                                  #                       PRM MEANS THAT THE REGISTER IS PERMANENT, IE. IT
000082:                                                                                                  #                           IS USED DURING THE ENTIRE MISSION FOR ONE
000083:                                                                                                  #                           PURPOSE AND CANNOT BE SHARED.
000084:                                                                                                  #                       TMP MEANS THAT THE REGISTER IS USED TEMPORARILY OR
000085:                                                                                                  #                           IS A SCRATCH REGISTER FOR THE ROUTINE TO WHICH
000086:                                                                                                  #                           IT IS ASSIGNED.  THAT IS, IT NEED NOT BE SET
000087:                                                                                                  #                           PRIOR TO INVOCATION OF THE ROUTINE NOR DOES IT
000088:                                                                                                  #                           CONTAIN USEFUL OUTPUT TO ANOTHER ROUTINE.  THUS
000089:


000091:                                                                                                  #                           IT MAY BE SHARED WITHANY OTHER ROUTINE WHICH
000092:                                                                                                  #                           IS NOT ACTIVE IN PARALLEL.
000093:                                                                                                  #                       IN  MEANS INPUT TO THE ROUTINE AND IT IS PROBABLY
000094:                                                                                                  #                           TEMPORARY FOR A HIGHER-LEVEL ROUTINE/PROGRAM.
000095:                                                                                                  #                       OUT MEANS OUTPUT FROM THE ROUTINE, PROBABLY
000096:                                                                                                  #                           TEMPORARY FOR A HIGHER-LEVEL ROUTINE/PROGRAM.
000097:


000099:                                                                                                  #           SPECIAL REGISTERS.
000100:
000101: 26,2024                        A                  EQUALS   0
000102: 26,2024                        L                  EQUALS   1                                     #  L AND Q ARE BOTH CHANNELS AND REGISTERS.
000103: 26,2024                        Q                  EQUALS   2
000104: 26,2024                        EBANK              EQUALS   3
000105: 26,2024                        FBANK              EQUALS   4
000106: 26,2024                        Z                  EQUALS   5                                     #  ADJACENT TO FBANK AND BBANK FOR DXCH Z
000107: 26,2024                        BBANK              EQUALS   6                                     #  (DTCB) AND DXCH FBANK (DTCF).
000108:                                                                                                  #  REGISTER 7 IS A ZERO-SOURCE, USED BY ZL.
000109:
000110: 26,2024                        ARUPT              EQUALS   10                                    #  INTERRUPT STORAGE.
000111: 26,2024                        LRUPT              EQUALS   11
000112: 26,2024                        QRUPT              EQUALS   12
000113: 26,2024                        SAMPTIME           EQUALS   13                                    #  SAMPLED TIME 1 & 2.
000114: 26,2024                        ZRUPT              EQUALS   15                                    #  (13 AND 14 ARE SPARES.)
000115: 26,2024                        BANKRUPT           EQUALS   16                                    #  USUALLY HOLDS FBANK OR BBANK.
000116: 26,2024                        BRUPT              EQUALS   17                                    #  RESUME ADDRESS AS WELL.
000117:
000118: 26,2024                        CYR                EQUALS   20
000119: 26,2024                        SR                 EQUALS   21
000120: 26,2024                        CYL                EQUALS   22
000121: 26,2024                        EDOP               EQUALS   23                                    #  EDITS INTERPRETIVE OPERATION CODE PAIRS.
000122:
000123: 26,2024                        TIME2              EQUALS   24
000124: 26,2024                        TIME1              EQUALS   25
000125: 26,2024                        TIME3              EQUALS   26
000126: 26,2024                        TIME4              EQUALS   27
000127: 26,2024                        TIME5              EQUALS   30
000128: 26,2024                        TIME6              EQUALS   31
000129: 26,2024                        CDUX               EQUALS   32
000130: 26,2024                        CDUY               EQUALS   33
000131: 26,2024                        CDUZ               EQUALS   34
000132: 26,2024                        CDUT               EQUALS   35                                    #  REND RADAR TRUNNION CDU
000133: 26,2024                        CDUS               EQUALS   36                                    #  REND RADAR SHAFT CDU
000134: 26,2024                        PIPAX              EQUALS   37
000135: 26,2024                        PIPAY              EQUALS   40
000136: 26,2024                        PIPAZ              EQUALS   41
000137: 26,2024                        Q-RHCCTR           EQUALS   42                                    #  RHC COUNTER REGISTERS
000138: 26,2024                        P-RHCCTR           EQUALS   43
000139: 26,2024                        R-RHCCTR           EQUALS   44
000140: 26,2024                        INLINK             EQUALS   45
000141: 26,2024                        RNRAD              EQUALS   46
000142: 26,2024                        GYROCMD            EQUALS   47
000143: 26,2024                        CDUXCMD            EQUALS   50
000144: 26,2024                        CDUYCMD            EQUALS   51
000145: 26,2024                        CDUZCMD            EQUALS   52
000146: 26,2024                        CDUTCMD            EQUALS   53                                    #  RADAR TRUNNION COMMAND
000147: 26,2024                        CDUSCMD            EQUALS   54                                    #  RADAR SHAFT COMMAND
000148:


000150: 26,2024                        THRUST             EQUALS   55
000151: 26,2024                        LEMONM             EQUALS   56
000152: 26,2024                        OUTLINK            EQUALS   57
000153: 26,2024                        ALTM               EQUALS   60
000154:
000155:                                                                                                  #           INTERPRETIVE REGISTERS ADDRESSED RELATIVE TO VAC AREA.
000156:
000157: 26,2024                        LVSQUARE           EQUALS   34D                                   #  SQUARE OF VECTOR INPUT TO ABVAL AND UNIT
000158: 26,2024                        LV                 EQUALS   36D                                   #  LENGTH OF VECTOR INPUT TO UNIT.
000159: 26,2024                        X1                 EQUALS   38D                                   #  INTERPRETIVE SPECIAL REGISTERS RELATIVE
000160: 26,2024                        X2                 EQUALS   39D                                   #  TO THE WORK AREA.
000161: 26,2024                        S1                 EQUALS   40D
000162: 26,2024                        S2                 EQUALS   41D
000163: 26,2024                        QPRET              EQUALS   42D
000164:
000165:                                                                                                  #  INPUT/OUTPUT CHANNELS
000166:
000167:                                                                                                  #                                *** CHANNEL ZERO IS TO BE USED IN AN INDEXED OPERATION ONLY. ***
000168: 26,2024  0000001               LCHAN              EQUALS   L
000169: 26,2024  0000002               QCHAN              EQUALS   Q
000170: 26,2024                        HISCALAR           EQUALS   3
000171: 26,2024                        LOSCALAR           EQUALS   4
000172: 26,2024                        CHAN5              EQUALS   5
000173: 26,2024                        CHAN6              EQUALS   6
000174: 26,2024                        SUPERBNK           EQUALS   7                                     #  SUPER-BANK.
000175: 26,2024                        OUT0               EQUALS   10
000176: 26,2024                        DSALMOUT           EQUALS   11
000177: 26,2024                        CHAN12             EQUALS   12
000178: 26,2024                        CHAN13             EQUALS   13
000179: 26,2024                        CHAN14             EQUALS   14
000180: 26,2024                        MNKEYIN            EQUALS   15
000181: 26,2024                        NAVKEYIN           EQUALS   16
000182: 26,2024                        CHAN30             EQUALS   30
000183: 26,2024                        CHAN31             EQUALS   31
000184: 26,2024                        CHAN32             EQUALS   32
000185: 26,2024                        CHAN33             EQUALS   33
000186: 26,2024                        DNTM1              EQUALS   34
000187: 26,2024                        DNTM2              EQUALS   35
000188: 26,2024                        CHAN76             EQUALS   76
000189: 26,2024                        CHAN77             EQUALS   77
000190:                                                                                                  #  END OF CHANNEL ASSIGNMENTS
000191:


000193:                                                                                                  #  INTERPRETIVE SWITCH BIT ASSIGNMENTS
000194:
000195:                                                                                                  #              **  FLAGWORDS AND BITS NOW ASSIGNED AND DEFINED IN THEIR OWN LOG SECTION.  **
000196:


000198:                                                                                                  #  GENERAL ERASABLE ASSIGNMENTS.
000199:
000200:    0061                                           SETLOC   61
000201:                                                                                                  #           INTERRUPT TEMPORARY STORAGE POOL.                         (11D)
000202:
000203:                                                                                                  #             (ITEMP1 THROUGH RUPTREG4)
000204:
000205:                                                                                                  #           ANY OF THESE MAY BE USED AS TEMPORARIES DURING INTERRUPT OR WITH INTERRUPT INHIBITED. THE ITEMP SERIES
000206:                                                                                                  #  IS USED DURING CALLS TO THE EXECUTIVE AND WAITLIST - THE RUPTREGS ARE NOT.
000207:
000208:    0061                        ITEMP1             ERASE
000209:    0062     0061               WAITEXIT           EQUALS   ITEMP1
000210:    0062     0061               EXECTEM1           EQUALS   ITEMP1
000211:
000212:    0062                        ITEMP2             ERASE
000213:    0063     0062               WAITBANK           EQUALS   ITEMP2
000214:    0063     0062               EXECTEM2           EQUALS   ITEMP2
000215:
000216:    0063                        ITEMP3             ERASE
000217:    0064     0063               RUPTSTOR           EQUALS   ITEMP3
000218:    0064     0063               WAITADR            EQUALS   ITEMP3
000219:    0064     0063               NEWPRIO            EQUALS   ITEMP3
000220:
000221:    0064                        ITEMP4             ERASE
000222:    0065     0064               LOCCTR             EQUALS   ITEMP4
000223:    0065     0064               WAITTEMP           EQUALS   ITEMP4
000224:
000225:    0065                        ITEMP5             ERASE
000226:    0066     0065               NEWLOC             EQUALS   ITEMP5
000227:
000228:    0066                        ITEMP6             ERASE
000229:                                                                                                  # NEWLOC+1        EQUALS          ITEMP6                  DP ADDRESS.
000230:
000231:    0067                                           SETLOC   67
000232:    0067                        NEWJOB             ERASE                                          #  MUST BE AT LOC 67 DUE TO WIRING.
000233:
000234:
000235:    0070                        RUPTREG1           ERASE
000236:    0071                        RUPTREG2           ERASE
000237:    0072                        RUPTREG3           ERASE
000238:    0073                        RUPTREG4           ERASE
000239:    0074     0073               KEYTEMP1           EQUALS   RUPTREG4
000240:    0074     0073               DSRUPTEM           EQUALS   RUPTREG4
000241:
000242:                                                                                                  #  FLAGWORD RESERVATIONS.                                           (16D)
000243:
000244:    0074                        STATE              ERASE    +15D                                  #  FLAGWORD REGISTERS.
000245:
000246:                                                                                                  #  P25 RADAR STORAGE.  (MAY BE UNSHARED IN E7)  (TEMP OVERLAY)  (2D)  OVERLAYS FLGWRD 14 & 15
000247:


000249:    0114     0112               LASTYCMD           EQUALS   STATE      +14D                       #  B(1)PRM       THESE ARE CALLED BY T4RUPT
000250:    0114     0113               LASTXCMD           EQUALS   LASTYCMD   +1                         #  B(1)PRM       THEY MUST BE CONTIGUOUS, Y FIRST
000251:
000252:
000253:
000254:                                                                                                  #  EXEC TEMPORARIES WHICH MAY BE USED BETWEEN CCS NEWJOBS.  (32D) (INTB15+ THROUGH RUPTMXTM)
000255:    0114                        INTB15+            ERASE                                          #  REFLECTS 15TH BIT OF INDEXABLE ADDRESSES
000256:    0115     0114               DSEXIT             =        INTB15+                               #  RETURN FOR DSPIN
000257:    0115     0114               EXITEM             =        INTB15+                               #  RETURN FOR SCALE FACTOR ROUTINE SELECT
000258:    0115                        INTBIT15           ERASE                                          #  SIMILAR TO ABOVE.
000259:    0116     0115               WDRET              =        INTBIT15                              #  RETURN FOR DSPWD
000260:    0116     0115               DECRET             =        INTBIT15                              #  RETURN FOR PUTCOM(DEC LOAD)
000261:    0116     0115               21/22REG           =        INTBIT15                              #  TEMP FOR CHARIN
000262:
000263:                                                                                                  #  THE REGISTERS BETWEEN ADDRWD AND PRIORITY MUST STAY IN THE FOLLOWING ORDER FOR INTERPRETIVE TRACE.
000264:
000265:    0116                        ADDRWD             ERASE                                          #  12 BIT INTERPRETIVE OPERAND SUB-ADDRESS.
000266:    0117                        POLISH             ERASE                                          #  HOLDS CADR MADE FROM POLISH ADDRESS.
000267:    0120     0117               UPDATRET           =        POLISH                                #  RETURN FOR UPDATNN, UPDATVB
000268:    0120     0117               CHAR               =        POLISH                                #  TEMP FOR CHARIN
000269:    0120     0117               ERCNT              =        POLISH                                #  COUNTER FOR ERROR LIGHT RESET
000270:    0120     0117               DECOUNT            =        POLISH                                #  COUNTER FOR SCALING AND DISPLAY (DEC)
000271:
000272:    0120                        FIXLOC             ERASE                                          #  WORK AREA ADDRESS.
000273:    0121                        OVFIND             ERASE                                          #  SET NON-ZERO ON OVERFLOW.
000274:
000275:    0122                        VBUF               ERASE    +5                                    #  TEMPORARY STORAGE USED FOR VECTORS.
000276:    0130     0122               SGNON              =        VBUF                                  #  TEMP FOR +,- ON
000277:    0130     0122               NOUNTEM            =        VBUF                                  #  COUNTER FOR MIXNOUN FETCH
000278:    0130     0122               DISTEM             =        VBUF                                  #  COUNTER FOR OCTAL DISPLAY VERBS
000279:    0130     0122               DECTEM             =        VBUF                                  #  COUNTER FOR FETCH (DEC DISPLAY VERBS)
000280:
000281:    0130     0123               SGNOFF             =        VBUF       +1                         #  TEMP FOR +,- ON
000282:    0130     0123               NVTEMP             =        VBUF       +1                         #  TEMP FOR NVSUB
000283:    0130     0123               SFTEMP1            =        VBUF       +1                         #  STORAGE FOR SF CONST HI PART(=SFTEMP2-1)
000284:    0130     0123               HITEMIN            =        VBUF       +1                         #  TEMP FOR LOAD OF HRS, MIN, SEC
000285:                                                                                                  #           MUST = LOTEMIN-1.
000286:    0130     0124               CODE               =        VBUF       +2                         #  FOR DSPIN
000287:    0130     0124               SFTEMP2            =        VBUF       +2                         #  STORAGE FOR SF CONST LO PART(=SFTEMP1+1)
000288:    0130     0124               LOTEMIN            =        VBUF       +2                         #  TEMP FOR LOAD OF HRS, MIN, SEC
000289:                                                                                                  #           MUST = HITEMIN+1.
000290:    0130     0125               MIXTEMP            =        VBUF       +3                         #  FOR MIXNOUN DATA
000291:                                                                                                  #  ALSO MIXTEMP+1 = VBUF+4, MIXTEMP+2 = VBUF+5.
000292:
000293:    0130                        BUF                ERASE    +2                                    #  TEMPORARY SCALAR STORAGE.
000294:    0133                        BUF2               ERASE    +1
000295:    0135     0130               INDEXLOC           EQUALS   BUF                                   #  CONTAINS ADDRESS OF SPECIFIED INDEX.
000296:    0135     0130               SWWORD             EQUALS   BUF                                   #  ADDRESS OF SWITCH WORD.
000297:    0135     0131               SWBIT              EQUALS   BUF        +1                         #  SWITCH BIT WITHIN SWITCH WORD.
000298:    0135                        MPTEMP             ERASE                                          #  TEMPORARY USED IN MULTIPLY AND SHIFT.
000299:


000301:    0136     0135               DMPNTEMP           =        MPTEMP                                #  DMPSUB TEMPORARY
000302:    0136                        DOTINC             ERASE                                          #  COMPONENT INCREMENT FOR DOT SUBROUTINE.
000303:    0137     0136               DVSIGN             EQUALS   DOTINC                                #  DETERMINES SIGN OF DDV RESULT.
000304:    0137     0136               ESCAPE             EQUALS   DOTINC                                #  USED IN ARCSIN/ARCCOS.
000305:    0137     0136               ENTRET             =        DOTINC                                #  EXIT FROM ENTER
000306:
000307:    0137                        DOTRET             ERASE                                          #  RETURN FROM DOT SUBROUTINE.
000308:    0140     0137               DVNORMCT           EQUALS   DOTRET                                #  DIVIDEND NORMALIZATION COUNT IN DDV.
000309:    0140     0137               ESCAPE2            EQUALS   DOTRET                                #  ALTERNATE ARCSIN/ARCCOS SWITCH.
000310:    0140     0137               WDCNT              =        DOTRET                                #  CHAR COUNTER FOR DSPWD
000311:    0140     0137               INREL              =        DOTRET                                #  INPUT BUFFER SELECTOR ( X,Y,Z, REG )
000312:
000313:    0140                        MATINC             ERASE                                          #  VECTOR INCREMENT IN MXV AND VXM.
000314:    0141     0140               MAXDVSW            EQUALS   MATINC                                #  +0 IF DP QUOTIENT IS NEAR ONE - ELSE -1.
000315:    0141     0140               POLYCNT            EQUALS   MATINC                                #  POLYNOMIAL LOOP COUNTER
000316:    0141     0140               DSPMMTEM           =        MATINC                                #  DSPCOUNT SAVE FOR DSPMM
000317:    0141     0140               MIXBR              =        MATINC                                #  INDICATOR FOR MIXED OR NORMAL NOUN
000318:
000319:    0141                        TEM1               ERASE                                          #  EXEC TEMP
000320:    0142     0141               POLYRET            =        TEM1
000321:    0142     0141               DSREL              =        TEM1                                  #  REL ADDRESS FOR DSPIN
000322:
000323:    0142                        TEM2               ERASE                                          #  EXEC TEMP
000324:    0143     0142               DSMAG              =        TEM2                                  #  MAGNITUDE STORE FOR DSPIN
000325:    0143                        TEM3               ERASE                                          #  EXEC TEMP
000326:    0144     0143               COUNT              =        TEM3                                  #  FOR DSPIN
000327:
000328:    0144                        TEM4               ERASE                                          #  EXEC TEMP
000329:    0145     0144               RELRET             =        TEM4                                  #  RETURN FOR RELDSP
000330:    0145     0144               DSPWDRET           =        TEM4                                  #  RETURN FOR DSPSIGN
000331:    0145     0144               SEPSCRET           =        TEM4                                  #  RETURN FOR SEPSEC
000332:    0145     0144               SEPMNRET           =        TEM4                                  #  RETURN FOR SEPMIN
000333:
000334:    0145                        TEM5               ERASE                                          #  EXEC TEMP
000335:    0146     0145               NOUNADD            =        TEM5                                  #  TEMP STORAGE FOR NOUN ADDRESS
000336:
000337:    0146                        NNADTEM            ERASE                                          #  TEMP FOR NOUN ADDRESS TABLE ENTRY
000338:    0147                        NNTYPTEM           ERASE                                          #  TEMP FOR NOUN TYPE TABLE ENTRY
000339:    0150                        IDAD1TEM           ERASE                                          #  TEMP FOR INDIR ADRESS TABLE ENTRY(MIXNN)
000340:                                                                                                  #  MUST = IDAD2TEM-1, = IDAD3TEM-2.
000341:    0151                        IDAD2TEM           ERASE                                          #  TEMP FOR INDIR ADRESS TABLE ENTRY(MIXNN)
000342:                                                                                                  #  MUST = IDAD1TEM+1, = IDAD3TEM-1.
000343:    0152                        IDAD3TEM           ERASE                                          #  TEMP FOR INDIR ADRESS TABLE ENTRY(MIXNN)
000344:                                                                                                  #  MUST = IDAD1TEM+2, = IDAD2TEM+1.
000345:    0153                        RUTMXTEM           ERASE                                          #  TEMP FOR SF ROUT TABLE ENTRY(MIXNN ONLY)
000346:
000347:                                                                                                  #  AX*SR*T STORAGE.                                      (6D)
000348:
000349:    0154     0142               DEXDEX             EQUALS   TEM2                                  #  B(1)TMP
000350:    0154     0143               DEX1               EQUALS   TEM3                                  #  B(1)TMP
000351:


000353:    0154     0144               DEX2               EQUALS   TEM4                                  #  B(1)TMP
000354:    0154     0145               RTNSAVER           EQUALS   TEM5                                  #  B(1)TMP
000355:    0154     0157               TERM1TMP           EQUALS   MPAC       +3                         #  B(2)TMP
000356:
000357:    0154     0143               DEXI               =        DEX1
000358:
000359:                                                                                                  #           THE FOLLOWING 10 REGISTERS ARE USED FOR TEMPORARY STORAGE OF THE DERIVATIVE COEFFICIENT TABLE OF
000360:                                                                                                  #  SUBROUTINE ROOTPSRS.   THEY MUST REMAIN WITHOUT INTERFERENCE WITH ITS SUBROUTINES WHICH ARE POWRSERS (POLY),
000361:                                                                                                  #  DMPSUB, DMPNSUB, SHORTMP, DDV/BDDV, ABS, AND USPRCADR.
000362:
000363:    0154     0142               DERCOF-8           =        MPAC       -12                        #  ROOTPSRS DER COF N-4 HI ORDER
000364:    0154     0143               DERCOF-7           =        MPAC       -11                        #  ROOTPSRS DER COF N-4 LO ORDER
000365:    0154     0144               DERCOF-6           =        MPAC       -10                        #  ROOTPSRS DER COF N-3 HI ORDER
000366:    0154     0145               DERCOF-5           =        MPAC       -7                         #  ROOTPSRS DER COF N-3 LO ORDER
000367:    0154     0146               DERCOF-4           =        MPAC       -6                         #  ROOTPSRS DER COF N-2 HI ORDER
000368:    0154     0147               DERCOF-3           =        MPAC       -5                         #  ROOTPSRS DER COF N-2 LO ORDER
000369:    0154     0150               DERCOF-2           =        MPAC       -4                         #  ROOTPSRS DER COF N-1 HI ORDER
000370:    0154     0151               DERCOF-1           =        MPAC       -3                         #  ROOTPSRS DER COF N-1 LO ORDER
000371:    0154     0152               DERCOFN            =        MPAC       -2                         #  ROOTPSRS DER COF N HI ORDER
000372:    0154     0153               DERCOF+1           =        MPAC       -1                         #  ROOTPSRS DER COF N LO ORDER
000373:
000374:    0154     0117               PWRPTR             =        POLISH                                #  ROOTPSRS POWER TABLE POINTER
000375:    0154     0124               DXCRIT             =        VBUF       +2                         #  ROOTPSRS CRITERION FOR ENDING ITERS HI
000376:    0154     0125               DXCRIT+1           =        VBUF       +3                         #  ROOTPSRS CRITERION FOR ENDING ITERS LO
000377:    0154     0126               ROOTPS             =        VBUF       +4                         #  ROOTPSRS ROOT HI ORDER
000378:    0154     0127               ROOTPS+1           =        VBUF       +5                         #  ROOTPSRS ROOT LO ORDER
000379:    0154     0132               RETROOT            =        BUF        +2                         #  ROOTPSRS RETURN ADDRESS OF USER
000380:    0154     0140               PWRCNT             =        MATINC                                #  ROOTPSRS DER TABLE LOOP COUNTER
000381:    0154     0141               DERPTR             =        TEM1                                  #  ROOTPSRS DER TABLE POINTER
000382:


000384:                                                                                                  #  DYNAMICALLY ALLOCATED CORE SETS FOR JOBS.             (84D)
000385:
000386:    0154                        MPAC               ERASE    +6                                    #  MULTI-PURPOSE ACCUMULATOR.
000387:    0163                        MODE               ERASE                                          #  +1 FOR TP, +0 FOR DP, OR -1 FOR VECTOR.
000388:    0164                        LOC                ERASE                                          #  LOCATION ASSOCIATED WITH JOB.
000389:    0165                        BANKSET            ERASE                                          #  USUALLY CONTAINS BBANK SETTING.
000390:    0166                        PUSHLOC            ERASE                                          #  WORD OF PACKED INTERPRETIVE PARAMETERS.
000391:    0167                        PRIORITY           ERASE                                          #  PRIORITY OF PRESENT JOB AND WORK AREA.
000392:
000393:    0170                                           ERASE    +83D                                  #  EIGHT SETS OF 12 REGISTERS EACH
000394:
000395:                                                                                                  #  INCORP STORAGE:  R22 (N29)    (SHARES WITH FOLLOWING SECTION)         (4D)
000396:
000397:    0314     0314               R22DISP            EQUALS   TIME2SAV                              #  I(4) N49 DISPLAY OF DELTA R AND DELTA V
000398:
000399:                                                                                                  #  STANDBY VERB ERASABLES                                                (4D)
000400:
000401:    0314                        TIME2SAV           ERASE    +1
000402:    0316                        SCALSAVE           ERASE    +1
000403:
000404:                                                                                                  #           HARDWARE RESTART COUNTER                                 (1D)
000405:
000406:    0320                        REDOCTR            ERASE                                          #  CONTAINS NUMBER OF RESTARTS
000407:
000408:                                                                                                  #   UNSHARED STORAGE FOR DESIRED GIMBAL ANGLES                       (3D)
000409:
000410:    0321                        THETAD             ERASE    +2
000411:    0324     0321               CPHI               =        THETAD                                #  O     DESIRED GIMBAL ANGLES
000412:    0324     0322               CTHETA             =        THETAD     +1                         #  I     FOR
000413:    0324     0323               CPSI               =        THETAD     +2                         #  M     MANEUVER.
000414:
000415:                                                                                                  #   STORAGE FOR DELTAV/S                                              (6D)
000416:
000417:    0324                        DELV               ERASE    +5
000418:    0332     0324               DELVX              =        DELV
000419:    0332     0326               DELVY              =        DELV       +2
000420:    0332     0330               DELVZ              =        DELV       +4
000421:
000422:                                                                                                  #  WAITLIST REPEAT FLAG                          (1D)
000423:
000424:    0332                        RUPTAGN            ERASE
000425:    0333     0332               KEYTEMP2           =        RUPTAGN                               #  TEMP FOR KEYRUPT, UPRUPT
000426:
000427:                                                                                                  #  DOWNLINK STORAGE.                             (27D)
000428:


000430:    0333                        DNTMERAS           ERASE    +26D                                  #  B(27D)PRM ERASABLES USED BY DOWN-
000431:                                                                                                  #   TELEMETRY PROGRAM -- CANNOT BE SHARED.
000432:
000433:    0366     0333               DNLSTCOD           EQUALS   DNTMERAS                              #  B(1)PRM  CODE SPECIFYING WHICH DOWNLIST
000434:                                                                                                  #         WILL BE SELECTED FOR TRANSMISSION
000435:    0366     0334               CTLIST             EQUALS   DNLSTCOD   +1                         #  B(1)PRM  POINTER TO CURRENT LOCATION OF
000436:                                                                                                  #           THE CONTROL LIST.
000437:    0366     0335               DNTMGOTO           EQUALS   CTLIST     +1                         #  B(1)PRM  POINTER TO LOCATION WHERE DNTM
000438:                                                                                                  #   PROCESSING WILL RESUME NEXT DOWNRUPT.
000439:    0366     0336               DNECADR            EQUALS   DNTMGOTO   +1                         #  B(1)PRM  HOLDS CONTENTS OF CURRENT
000440:                                                                                                  #        CONTROL LIST LOCATION.
000441:    0366     0336               TMINDEX            EQUALS   DNECADR                               #  B(1)  INDEX FOR LOADING SNAPSHOT BUFFER.
000442:    0366     0336               DUMPLOC            EQUALS   DNECADR                               #  B(1)  BITS 1-11 CONTAIN ECADR OF AGC DP
000443:                                                                                                  #   WORD BEING DUMPED BY V74 ERASABLE DUMP.
000444:                                                                                                  #        BITS 12-15 CONTAIN COUNT OF
000445:                                                                                                  #   COMPLETE DUMPS ALREADY SENT.
000446:    0366     0337               SUBLIST            EQUALS   DNECADR    +1                         #  B(1)PRM  POINTER TO CURRENT SUBLIST LOC.
000447:    0366     0340               DNTMBUFF           EQUALS   SUBLIST    +1                         #  B(22)PRM DOWNLINK SNAPSHOT BUFFER
000448:
000449:
000450:                                                                                                  #           UNSWITCHED FOR DISPLAY INTERFACE ROUTINES.    (6D)
000451:
000452:    0366                        NVWORD             ERASE
000453:    0367                        MARKNV             ERASE
000454:    0370                        NVSAVE             ERASE                                          #  PURPOSES)
000455:    0371                        CADRFLSH           ERASE
000456:    0372                        CADRMARK           ERASE
000457:    0373                        TEMPFLSH           ERASE
000458:
000459:
000460:                                                                                                  #           CHANNEL BIT FAILURE PROTECTION WORD - PAD LOADED AS ZERO    (1D)
000461:
000462:    0374                        CHANBKUP           ERASE                                          #  B(1)PRM
000463:
000464:
000465:                                                                                                  #           ALARM CODE REGISTERS                                        (3D)
000466:
000467:    0375                        FAILREG            ERASE    +2                                    #  B(3)PRM  3  ALARM CODE REGISTERS
000468:
000469:                                                                                                  #           VAC AREAS. -BE CAREFUL OF PLACEMENT-          (220D)
000470:
000471:    0400                        VAC1USE            ERASE
000472:    0401                        VAC1               ERASE    +42D
000473:    0454                        VAC2USE            ERASE
000474:    0455                        VAC2               ERASE    +42D
000475:    0530                        VAC3USE            ERASE
000476:    0531                        VAC3               ERASE    +42D
000477:    0604                        VAC4USE            ERASE
000478:    0605                        VAC4               ERASE    +42D
000479:


000481:    0660                        VAC5USE            ERASE
000482:    0661                        VAC5               ERASE    +42D
000483:
000484:
000485:                                                                                                  #           TEMPORARIES USED BY RESTARTS ROUTINE
000486:
000487:    0734     0705               GOLOC              EQUALS   VAC5       +20D                       #  B(4)
000488:
000489:
000490:                                                                                                  #           R59 - STAR ACQUISITION ROUTINE                (1D)
000491:
000492:    0734                        POSCODE            ERASE                                          #  B(1)TMP DETENT POSITION CNTR IN R59
000493:
000494:                                                                                                  #           CALCSMSC                                     (12D)
000495:
000496:    0735                        STARALGN           ERASE    +11D
000497:    0751     0735               SINCDU             =        STARALGN
000498:    0751     0743               COSCDU             =        STARALGN   +6
000499:
000500:    0751     0741               SINCDUX            =        SINCDU     +4
000501:    0751     0735               SINCDUY            =        SINCDU
000502:    0751     0737               SINCDUZ            =        SINCDU     +2
000503:    0751     0747               COSCDUX            =        COSCDU     +4
000504:    0751     0743               COSCDUY            =        COSCDU
000505:    0751     0745               COSCDUZ            =        COSCDU     +2
000506:
000507:
000508:                                                                                                  #           PHASE TABLE AND RESTART COUNTERS.              (12D)
000509:
000510:    0751                        -PHASE1            ERASE
000511:    0752                        PHASE1             ERASE
000512:    0753                        -PHASE2            ERASE
000513:    0754                        PHASE2             ERASE
000514:    0755                        -PHASE3            ERASE
000515:    0756                        PHASE3             ERASE
000516:    0757                        -PHASE4            ERASE
000517:    0760                        PHASE4             ERASE
000518:    0761                        -PHASE5            ERASE
000519:    0762                        PHASE5             ERASE
000520:    0763                        -PHASE6            ERASE
000521:    0764                        PHASE6             ERASE
000522:
000523:                                                                                                  #           A**SR*T STORAGE.                              (6D)
000524:
000525:    0765                        CDUSPOT            ERASE    +5                                    #  B(6)
000526:
000527:    0773     0765               CDUSPOTY           =        CDUSPOT
000528:    0773     0767               CDUSPOTZ           =        CDUSPOT    +2
000529:


000531:    0773     0771               CDUSPOTX           =        CDUSPOT    +4
000532:
000533:
000534:                                                                                                  #           VERB 37 STORAGE.                              (2D)
000535:
000536:    0773                        MINDEX             ERASE                                          #  B(1)TMP INDEX FOR MAJOR MODE
000537:    0774                        MMNUMBER           ERASE                                          #  B(1)TMP MAJOR MODE REQUESTED BY V37
000538:
000539:
000540:                                                                                                  #           PINBALL INTERRUPT ACTION.                     (1D)
000541:
000542:    0775                        DSPCNT             ERASE                                          #  B(1)PRM COUNTER FOR DSPOUT.
000543:
000544:
000545:                                                                                                  #           PINBALL EXECUTIVE ACTION                      (44D)
000546:
000547:    0776                        DSPCOUNT           ERASE                                          #  DISPLAY POSITION INDICATOR.
000548:    0777                        DECBRNCH           ERASE                                          #  +DEC, - DEC, OCT INDICATOR
000549:    1000                        VERBREG            ERASE                                          #  VERB CODE
000550:    1001                        NOUNREG            ERASE                                          #  NOUN CODE
000551:    1002                        XREG               ERASE                                          #  R1 INPUT BUFFER
000552:    1003                        YREG               ERASE                                          #  R2 INPUT BUFFER
000553:    1004                        ZREG               ERASE                                          #  R3 INPUT BUFFER
000554:    1005                        XREGLP             ERASE                                          #  LO PART OF XREG (FOR DEC CONV ONLY)
000555:    1006                        YREGLP             ERASE                                          #  LO PART OF YREG (FOR DEC CONV ONLY)
000556:    1007     1006               HITEMOUT           =        YREGLP                                #  TEMP FOR DISPLAY OF HRS, MIN, SEC
000557:                                                                                                  #           MUST = LOTEMOUT-1.
000558:    1007                        ZREGLP             ERASE                                          #  LO PART OF ZREG (FOR DEC CONV ONLY)
000559:    1010     1007               LOTEMOUT           =        ZREGLP                                #  TEMP FOR DISPLAY OF HRS, MIN, SEC
000560:                                                                                                  #           MUST = HITEMOUT+1.
000561:    1010                        MODREG             ERASE                                          #  MODE CODE
000562:    1011                        DSPLOCK            ERASE                                          #  KEYBOARD/SUBROUTINE CALL INTERLOCK
000563:    1012                        REQRET             ERASE                                          #  RETURN REGISTER FOR LOAD
000564:    1013                        LOADSTAT           ERASE                                          #  STATUS INDICATOR FOR LOADTST
000565:    1014                        CLPASS             ERASE                                          #  PASS INDICATOR CLEAR
000566:    1015                        NOUT               ERASE                                          #  ACTIVITY COUNTER FOR DSPTAB
000567:    1016                        NOUNCADR           ERASE                                          #  MACHINE CADR FOR NOUN
000568:    1017                        MONSAVE            ERASE                                          #  N/V CODE FOR MONITOR. (= MONSAVE1-1)
000569:    1020                        MONSAVE1           ERASE                                          #  NOUNCADR FOR MONITOR(MATBS) =MONSAVE+1
000570:    1021                        MONSAVE2           ERASE                                          #  NVMONOPT OPTIONS
000571:    1022                        DSPTAB             ERASE    +11D                                  #  0-10D, DISPLAY PANEL BUFF. 11D, C/S LTS.
000572:    1036                        NVQTEM             ERASE                                          #  NVSUB STORAGE FOR CALLING ADDRESS
000573:                                                                                                  #  MUST = NVBNKTEM-1
000574:    1037                        NVBNKTEM           ERASE                                          #  NVSUB STORAGE FOR CALLING BANK
000575:                                                                                                  #  MUST = NVQTEM+1
000576:    1040                        VERBSAVE           ERASE                                          #  NEEDED FOR RECYCLE
000577:    1041                        CADRSTOR           ERASE                                          #  ENDIDLE STORAGE
000578:    1042                        DSPLIST            ERASE                                          #  WAITING REG FOR DSP SYST INTERNAL USE
000579:    1043                        EXTVBACT           ERASE                                          #  EXTENDED VERB ACTIVITY INTERLOCK
000580:    1044                        DSPTEM1            ERASE    +2                                    #  BUFFER STORAGE AREA 1 (MOSTLY FOR TIME)
000581:


000583:    1047                        DSPTEM2            ERASE    +2                                    #  BUFFER STORAGE AREA 2 (MOSTLY FOR DEG)
000584:
000585:    1052     1050               DSPTEMX            EQUALS   DSPTEM2    +1                         #  B(2) S-S DISPLAY BUFFER FOR EXT. VERBS
000586:    1052     1044               NORMTEM1           EQUALS   DSPTEM1                               #  B(3)DSP NORMAL DISPLAY REGISTERS.
000587:
000588:
000589:
000590:                                                                                                  #           DISPLAY FOR EXTENDED VERBS (V82, R04(V62), V41(N72) )       (2D)
000591:
000592:    1052     1050               OPTIONX            EQUALS   DSPTEMX                               #  (2) EXTENDED VERB OPTION CODE
000593:
000594:                                                                                                  #           TBASES AND PHSPRDT S.                         (12D)
000595:
000596:    1052                        TBASE1             ERASE
000597:    1053                        PHSPRDT1           ERASE
000598:    1054                        TBASE2             ERASE
000599:    1055                        PHSPRDT2           ERASE
000600:    1056                        TBASE3             ERASE
000601:    1057                        PHSPRDT3           ERASE
000602:    1060                        TBASE4             ERASE
000603:    1061                        PHSPRDT4           ERASE
000604:    1062                        TBASE5             ERASE
000605:    1063                        PHSPRDT5           ERASE
000606:    1064                        TBASE6             ERASE
000607:    1065                        PHSPRDT6           ERASE
000608:
000609:
000610:    1066     1055               PIPCTR             =        PHSPRDT2                              #  USED TO COUNT DOWN R10 CYLCES.  USED IN
000611:                                                                                                  #  CONJUNCTION WITH TBASE2, SO THIS
000612:                                                                                                  #  LOCATION IS FUNCTIONALLY =.  SEE R10,R11
000613:
000614:
000615:                                                                                                  #           UNSWITCHED FOR DISPLAY INTERFACE ROUTINES.    (5D)
000616:
000617:    1066                        NVWORD1            ERASE                                          #  B(1) * USED DURING POWERED FLIGHT ONLY *
000618:
000619:    1067                        EBANKSAV           ERASE
000620:    1070     1067               DSPFLG             =        EBANKSAV
000621:    1070                        MARKFLAG           ERASE
000622:    1071                        EBANKTEM           ERASE
000623:    1072                        MARK2PAC           ERASE
000624:
000625:
000626:
000627:                                                                                                  #           CODE WORD FOR AGS RENDEZVOUS DOWNLIST XFER OF RADAR DATA      (1D)
000628:
000629:    1073                        AGSCODE            ERASE                                          #  B(1) DO NOT SHARE.
000630:


000632:                                                                                                  #           IMU COMPENSATION UNSWITCHED ERASABLE.         (1D)
000633:
000634:    1074                        1/PIPADT           ERASE
000635:
000636:                                                                                                  #           TEMPORARIES FOR SPCOS AND SPSIN               (2D)
000637:
000638:    1075                        TEMK               ERASE                                          #  (1)
000639:    1076                        SQ                 ERASE                                          #  (1)
000640:
000641:
000642:                                                                                                  #      **** RADAR ****                                   (13D)
000643:
000644:    1077                        SAMPLIM            ERASE                                          #  B(1)      LR    R12,P60S,R04,R77
000645:    1100     1077               RADUSE             EQUALS   SAMPLIM                               #  B(1)PRM   BOTH  P20,P22,R12,R04
000646:    1100                        SAMPLSUM           ERASE    +3                                    #  B(2),I(2) BOTH
000647:    1104     1100               RRTARGET           EQUALS   SAMPLSUM                              #  I(6)      RR  P20,P22,R04,V41
000648:
000649:    1104                        TIMEHOLD           ERASE    +1                                    #  B(2)      BOTH
000650:    1106                        TANG               ERASE    +1                                    #  B(2),I    RR
000651:    1110     1106               MODEA              EQUALS   TANG                                  #  B(2),I    RR
000652:
000653:    1110                        MODEB              ERASE    +1                                    #  B(2),I    RR
000654:    1112     1110               NSAMP              EQUALS   MODEB                                 #  B(1)      BOTH
000655:
000656:    1112                        DESRET             ERASE                                          #  B(1),I    RR
000657:    1113     1112               OLDATAGD           EQUALS   DESRET                                #  B(1)      BOTH
000658:
000659:    1113                        DESCOUNT           ERASE                                          #  B(1)      RR
000660:
000661:
000662:
000663:                                                                                                  #           ******   P22  ******                         (6D)
000664:
000665:    1114     1100               RSUBC              EQUALS   RRTARGET                              #  I(6)S-S  CSM POSITION VECTOR
000666:


000668:                                                                                                  #           UNSWITCHED FOR ORBIT INTEGRATION.             (21D)
000669:
000670:    1114                        TDEC               ERASE    +20D                                  #  I(2)
000671:    1141     1116               COLREG             EQUALS   TDEC       +2                         #  I(1)
000672:    1141     1117               LAT                EQUALS   COLREG     +1                         #  I(2)
000673:    1141     1121               LONG               EQUALS   LAT        +2                         #  I(2)
000674:    1141     1123               ALT                EQUALS   LONG       +2                         #  I(2)
000675:    1141     1125               YV                 EQUALS   ALT        +2                         #  I(6)
000676:    1141     1133               ZV                 EQUALS   YV         +6                         #  I(6)
000677:
000678:
000679:                                                                                                  #           MISCELLANEOUS UNSWITCHED.                     (20D)
000680:
000681:    1141                        P40/RET            ERASE                                          #  (WILL BE PUT IN E6 WHEN THERE IS ROOM)
000682:    1142                        GENRET             ERASE                                          #  B(1)  R61 RETURN CADR.
000683:    1143                        OPTION1            ERASE                                          #  B(1)   NOUN 06 USES THIS
000684:    1144                        OPTION2            ERASE                                          #  B(1)   NOUN 06 USES THIS
000685:    1145                        OPTION3            ERASE                                          #  B(1)  NOUN 06 USES THIS
000686:    1146                        LONGCADR           ERASE    +1                                    #  B(2)  LONGCALL REGISTER
000687:    1150                        LONGBASE           ERASE    +1
000688:    1152                        LONGTIME           ERASE    +1                                    #  B(2)    LONGCALL REGISTER
000689:    1154                        CDUTEMPX           ERASE                                          #  B(1)TMP
000690:    1155                        CDUTEMPY           ERASE                                          #  B(1)TMP
000691:    1156                        CDUTEMPZ           ERASE                                          #  B(1)TMP
000692:    1157                        PIPATMPX           ERASE                                          #  B(1)TMP
000693:    1160                        PIPATMPY           ERASE                                          #  B(1)TMP
000694:    1161                        PIPATMPZ           ERASE                                          #  B(1)TMP
000695:
000696:    1162                        DISPDEX            ERASE                                          #  B(1)
000697:    1163                        TEMPR60            ERASE                                          #  B(1)
000698:    1164                        PRIOTIME           ERASE                                          #  B(1)
000699:
000700:                                                                                                  #           P27 (UPDATE PROGRAM ) STORAGE.                (26D)
000701:
000702:    1165                        UPVERBSV           ERASE                                          #  B(1) UPDATE VERB ATTEMPTED.
000703:    1166                        UPTEMP             ERASE    +24D                                  #  B(1)TMP SCRATCH
000704:                                                                                                  #  RETAIN THE ORDER OF COMPNUMB THRU UPBUFF +19D FOR DOWNLINK PURPOSES.
000705:    1217     1167               COMPNUMB           EQUALS   UPTEMP     +1                         #  B(1)TMP NUMBER OF ITEMS TO BE UPLINKED
000706:    1217     1170               UPOLDMOD           EQUALS   COMPNUMB   +1                         #  B(1)TMP INTERRUPTED PROGRAM MM
000707:    1217     1171               UPVERB             EQUALS   UPOLDMOD   +1                         #  B(1)TMP VERB NUMBER
000708:    1217     1172               UPCOUNT            EQUALS   UPVERB     +1                         #  B(1)TMP UPBUFF INDEX
000709:    1217     1173               UPBUFF             EQUALS   UPCOUNT    +1                         #  B(20D)
000710:
000711:
000712:
000713:                                                                                                  #           TEMPORARY FOR RESTART PROTECTION IN SERVICER  (2D)
000714:
000715:    1217     1173               DVTEMP             EQUALS   UPBUFF                                #  B(2) TEMP. SAVE DVTOTAL FOR RESTARTS.
000716:


000718:                                                                                                  #  SPECIAL DEFINITION FOR SYSTEM TEST ERASABLE PGMS.     (2D)
000719:
000720:    1217     1166               EBUF2              EQUALS   UPTEMP                                #  B(2) FOR EXCLUSIVE USE OF SYSTEM TEST
000721:
000722:
000723:                                                                                                  #           PERM STATE VECTORS FOR BOOST AND DOWNLINK-WHOLE MISSION- (14D)
000724:
000725:    1217                        RN                 ERASE    +5                                    #  B(6)PRM
000726:    1225                        VN                 ERASE    +5                                    #  B(6)PRM
000727:    1233                        PIPTIME            ERASE    +1                                    #  B(2)PRM  (MUST BE FOLLOWED BY GDT/2)
000728:
000729:
000730:                                                                                                  #           SERVICER   -MUST FOLLOW PIPTIME-             (18D)
000731:
000732:    1235                        GDT/2              ERASE    +17D                                  #  B(6)TMP  ** MUST FOLLOW PIPTIME **
000733:    1257     1243               MASS               EQUALS   GDT/2      +6                         #  B(2)
000734:    1257     1243               WEIGHT/G           =        MASS
000735:    1257     1245               ABDELV             EQUALS   MASS       +2                         #  (1)
000736:    1257     1246               PGUIDE             EQUALS   ABDELV     +1                         #  (2)
000737:    1257     1250               DVTHRUSH           EQUALS   PGUIDE     +2                         #  (1)
000738:    1257     1251               AVEGEXIT           EQUALS   DVTHRUSH   +1                         #   (2)
000739:    1257     1251               AVGEXIT            =        AVEGEXIT
000740:    1257     1253               TEMX               EQUALS   AVEGEXIT   +2                         #   (1)
000741:    1257     1254               TEMY               EQUALS   TEMX       +1                         #   (1)
000742:    1257     1255               TEMZ               EQUALS   TEMY       +1                         #   (1)
000743:    1257     1256               PIPAGE             EQUALS   TEMZ       +1                         #  B(1)
000744:
000745:
000746:
000747:
000748:                                                                                                  #           ALIGNMENT                                    (7D)
000749:
000750:    1257     1235               AOTCODE            EQUALS   GDT/2                                 #  B(1)TMP DOWNLINKED -- STAR CODE
000751:    1257     1235               STARCODE           =        AOTCODE                               #  B(1)TMP DSP N70,N71
000752:    1257     1236               XCOUNT             =        AOTCODE    +1                         #  B(1)TMP DSP N70,N71   X MARK COUNTER
000753:    1257     1237               YCOUNT             =        AOTCODE    +2                         #  B(1)TMP DSP N70,N71   Y MARK COUNTER
000754:
000755:    1257     1240               CURSOR             EQUALS   AOTCODE    +3                         #  B(1)TMP DOWNLNK -- STAR MEASUREMENT QTY
000756:    1257     1241               SPIRAL             EQUALS   CURSOR     +1                         #  B(1)TMP DOWNLNK -- STAR MEASUREMENT QTY
000757:    1257     1241               SITIME             EQUALS   SPIRAL                                #  B(2)TMP TIME USED IN LANDING SITE COMP
000758:
000759:
000760:                                                                                                  #           S34/35.5  TEMPORARY     (2)
000761:
000762:    1257     1235               TMPDV              EQUALS   GDT/2                                 #  B(2) TMP SAVE FOR DVLVC
000763:
000764:
000765:                                                                                                  #           USED FOR SUMMATION OF UPRUPT DURING PRELAUNCH & SYS TEST LEADIN(3D)
000766:
000767:    1257     1245               UPSUM              EQUALS   ABDELV                                #  (3)
000768:


000770:                                                                                                  #            P 76  DISPLAY     N84                        (6D)
000771:    1257     1250               DELVOV             EQUALS   UPSUM      +3                         #  I(6)
000772:
000773:
000774:                                                                                                  #           P76 - P77 STORAGE                              (1D)
000775:
000776:    1257     1235               OPTFLAG            EQUALS   GDT/2                                 #  B(1)TMP  FLAG FOR P76 OR P77
000777:
000778:
000779:                                                                                                  #           PERMANENT LEM DAP STORAGE.                     (5D)
000780:
000781:    1257                        CH5MASK            ERASE                                          #  B(1)PRM
000782:    1260                        CH6MASK            ERASE                                          #  B(1)PRM JET FAILURE MASK.
000783:    1261                        SPNDX              ERASE                                          #  B(1)
000784:    1262                        T5ADR              ERASE    +1                                    #  GENADR OF NEXT LM DAP T5RUPT. * 2CADR *
000785:                                                                                                  #  BBCON  OF NEXT LM DAP T5RUPT.   2CADR
000786:
000787:                                                                                                  #           DISPLAY INTERFACE RESTART PROTECTION STORAGE   (1D)
000788:
000789:    1264                        RESTREG            ERASE                                          #  B(1)PRM
000790:
000791:
000792:                                                                                                  #           ERASABLES FOR RADAR READ PROTECTION (C13STALL)        (4D)
000793:
000794:    1265                        C13QSAV            ERASE                                          #  B(1) QSAVE FOR C13STALL USERS.
000795:    1266                        C13FSAV            ERASE                                          #  B(1) FBANK SAVE FOR C13STALL.
000796:    1267                        RADTIME            ERASE                                          #  B(1) NEG. TIME OF SCALAR READ.
000797:    1270                        RADDEL             ERASE                                          #  B(1) DELTA TIME FROM SCALAR READ TO T5.
000798:
000799:
000800:                                                                                                  #           RADAREAD STORAGE                             (2D)
000801:
000802:    1271                        TTOTIG             ERASE    +1                                    #  B(2) LATEST ESTIMATE OF TIME TO IGNITION
000803:
000804:                                                                                                  #           RCS FAILURE MONITOR STORAGE                   (1)
000805:    1273                        PVALVEST           ERASE                                          #  B(1)PRM
000806:
000807:
000808:                                                                                                  #           KALCMANU/DAP INTERFACE.                       (3D)
000809:
000810:    1274                        DELPEROR           ERASE                                          #  B(1)PRM COMMAND LAGS.
000811:    1275                        DELQEROR           ERASE                                          #  B(1)PRM
000812:    1276                        DELREROR           ERASE                                          #  B(1)PRM
000813:
000814:                                                                                                  #           MODE SWITCHING ERASABLE.                      (9D)
000815:


000817:                                                                                                  #     RETAIN THE ORDER OF IMODES30 AND IMODES33 FOR DOWNLINK PURPOSES.
000818:    1277                        IMODES30           ERASE                                          #  B(1)
000819:    1300                        IMODES33           ERASE
000820:    1301                        MODECADR           ERASE    +2                                    #  B(3)PRM
000821:    1304     1301               IMUCADR            EQUALS   MODECADR
000822:    1304     1302               OPTCADR            EQUALS   MODECADR   +1
000823:    1304     1303               RADCADR            EQUALS   MODECADR   +2
000824:    1304                        ATTCADR            ERASE    +2                                    #  B(3)PRM
000825:    1307     1306               ATTPRIO            =        ATTCADR    +2
000826:    1307                        MARKSTAT           ERASE
000827:
000828:                                                                                                  #           T4RUPT ERASABLE.                              (2D)
000829:
000830:    1310                        DSRUPTSW           ERASE
000831:    1311                        LGYRO              ERASE                                          #  (1)
000832:
000833:                                                                                                  #           RENDEZVOUS RADAR TASK STORAGE                  (3D)
000834:
000835:    1312                        RRRET              ERASE    +2D                                   #  B(1)TMP       P20'S, PERHAPS R29 & R12
000836:    1315     1313               RDES               EQUALS   RRRET      +1                         #  B(1)TMP
000837:    1315     1314               RRINDEX            EQUALS   RDES       +1                         #  B(1)TMP
000838:
000839:
000840:
000841:
000842:                                                                                                  #           MEASUREMENT INCORPORATION                     (4D)
000843:
000844:    1315                        WIXA               ERASE                                          #  B(1)
000845:    1316                        WIXB               ERASE                                          #  B(1)
000846:    1317                        ZIXA               ERASE                                          #  B(1)
000847:    1320                        ZIXB               ERASE                                          #  B(1)
000848:
000849:                                                                                                  #           LANDING RADAR PADLOAD                          (1D)
000850:
000851:    1321     1315               LRWH1              EQUALS   WIXA                                  #  B(1) P.L.  P64 LR WEIGHTING FUNCTION
000852:
000853:
000854:
000855:
000856:                                                                                                  #           AGS DOWNLINK ID CODE FOR RESTART PURPOSES      (1D)
000857:
000858:    1321                        AGSWORD            ERASE
000859:
000860:                                                                                                  #           SOME MISCELLANEOUS UNSWITCHED.                 (6D)
000861:
000862:    1322                        RATEINDX           ERASE                                          #  (1) USED BY KALCMANU
000863:    1323                        DELAYLOC           ERASE    +2
000864:    1326                        LEMMASS            ERASE                                          #  KEEP CONTIGUOUS W. CSMMASS  (1) EACH
000865:    1327                        CSMMASS            ERASE
000866:
000867:                                                                                                  #           LESS IS MORE.
000868:


000870:
000871:                                                                                                  #           RENDEZVOUS AND LANDING RADAR DOWNLINK STORAGE.     (7D)
000872:
000873:                                                                                                  #                  (NORMALLY USED DURING P20, BUT MAY ALSO)
000874:                                                                                                  #                  (BE REQUIRED FOR THE V62 SPURIOUS TEST.)
000875:
000876:                                                                                                  #                     (PLEASE KEEP IN THIS ORDER)
000877:
000878:    1330                        DNRRANGE           ERASE    +6                                    #  B(1) TMP
000879:    1337     1331               DNRRDOT            EQUALS   DNRRANGE   +1                         #  B(1)TMP
000880:    1337     1332               DNINDEX            EQUALS   DNRRDOT    +1                         #  B(1)TMP
000881:    1337     1333               DNLRVELX           EQUALS   DNINDEX    +1                         #  B(1)TMP
000882:    1337     1334               DNLRVELY           EQUALS   DNLRVELX   +1                         #  B(1)TMP
000883:    1337     1335               DNLRVELZ           EQUALS   DNLRVELY   +1                         #  B(1)TMP
000884:    1337     1336               DNLRALT            EQUALS   DNLRVELZ   +1                         #  B(1) TMP
000885:
000886:                                                                                                  #           RADAR -- RR AND LR                             (1D)
000887:
000888:    1337     1332               RADBITS            EQUALS   DNINDEX                               #  B(1)PRM   SHOWS TYPE OF RADAR READ
000889:
000890:
000891:                                                                                                  #           INCORPORATION UNSWITCHED.                      (2D)
000892:
000893:    1337     1256               W.IND              EQUALS   PIPAGE                                #  B(1) TMP -- INDEX IN CLOSED LOOP
000894:
000895:
000896:                                                                                                  #           SUBROUTINE BALLANGS OF R60.                    (1D)
000897:
000898:    1337                        BALLEXIT           ERASE                                          #  B(1) SAVE LOCATION FOR BALLINGS SUBR EXIT
000899:
000900:
000901:                                                                                                  #           SOME LEM DAP STORAGE.                         (4D)
000902:
000903:    1340                        DAPDATR1           ERASE                                          #  B(1)DSP DAP CONFIG.
000904:    1341                        TEVENT             ERASE    +1                                    #  B(2)DSP
000905:    1343                        DB                 ERASE                                          #  B(1) PRM DEAD BAND
000906:    1344     1343               DBVAL1             =        DB                                    #  B(1) PRM
000907:
000908:
000909:
000910:                                                                                                  #       NOUN 87 USED IN R52 AUTO OPTICS                    (2D)
000911:
000912:    1344                        AZ                 ERASE    +1D                                   #  B(1) AZ AND EL MUST BE CONTIGUOUS
000913:    1346     1345               EL                 EQUALS   AZ         +1D                        #  B(1)
000914:
000915:
000916:                                                                                                  #           P63, P64, P65, P66, AND P67.                  (1D)
000917:
000918:    1346                        WCHPHASE           ERASE                                          #  B(1)
000919:


000921:
000922:                                                                                                  #           PADLOADS FOR R2 LUNAR POTENTIAL MODEL.        (2D)
000923:
000924:    1347                        E3J22R2M           ERASE                                          #  I(1)
000925:    1350                        E32C31RM           ERASE                                          #  I(1)
000926:
000927:
000928:
000929:
000930:                                                                                                  #           ERASABLES FOR TRUNNION AND SHAFT COMMANDS     (2D)
000931:
000932:    1351                        TRUNNCMD           ERASE                                          #  *** THESE TWO ERASABLES ***
000933:    1352                        SHAFTCMD           ERASE                                          #  *** MUST BE IN ORDER ***
000934:
000935:
000936:                                                                                                  #           R22 OF P20                                    (1D)
000937:    1353                        WHCHREAD           ERASE                                          #  B(1)TMP MEASUREMENT BEING PROCESSED.
000938:
000939:                                                                                                  #           LANDING PADLOAD                               (1D)
000940:
000941:    1354     1353               ELBIAS             EQUALS   WHCHREAD                              #  B(1) PL LPD ELEVATION BIAS. PI RADIANS.
000942:
000943:                                                                                                  #           P66 PADLOAD                                    (1D)
000944:
000945:    1354                        TOOFEW             ERASE                                          #  B(1) TOO FEW THROTTLINGS PER OMISSION:
000946:                                                                                                  #   ONE LESS THAN NO. THROTTLES REQUIRED
000947:                                                                                                  #    BETWEEN SKIPPED THROTTLES
000948:                                                                                                  #      1466 ALARM IF THROTTLINGS <= TOOFEW
000949:                                                                                                  #           TLOSS INDICATORS FOR DOWNLINK                 (2D)
000950:
000951:    1355                        SERVDURN           ERASE                                          #  B(1)  AT SERVOUT: TIME1 - PIPTIME +1
000952:    1356                        DUMLOOPS           ERASE                                          #  B(1)  LOOP COUNTER IN DUMMYJOB AT ADVAN
000953:
000954:
000955:                                                                                                  #          SELF-CHECK ASSIGNMENTS.                       (17D)
000956:
000957:                                                                                                  #                                  (DO NOT MOVE, S-C IS ADDRESS SENSITIVE)
000958:
000959:    1357                        SELFERAS           ERASE    1357       -          1377            #  *** MUST NOT BE MOVED ***
000960:    1357     1357               SFAIL              EQUALS   SELFERAS                              #  B(1)
000961:    1357     1360               ERESTORE           EQUALS   SFAIL      +1                         #  B(1)
000962:    1357     1361               SELFRET            EQUALS   ERESTORE   +1                         #  B(1)    RETURN
000963:    1357     1362               SMODE              EQUALS   SELFRET    +1                         #  B(1)
000964:    1357     1363               ALMCADR            EQUALS   SMODE      +1                         #  B(2)   ALARM-ABORT USER'S 2CADR
000965:    1357     1365               ERCOUNT            EQUALS   ALMCADR    +2                         #  B(1)
000966:    1357     1366               SCOUNT             EQUALS   ERCOUNT    +1                         #  B(3)
000967:    1357     1371               SKEEP1             EQUALS   SCOUNT     +3                         #  B(1)
000968:    1357     1372               SKEEP2             EQUALS   SKEEP1     +1                         #  B(1)
000969:    1357     1373               SKEEP3             EQUALS   SKEEP2     +1                         #  B(1)
000970:    1357     1374               SKEEP4             EQUALS   SKEEP3     +1                         #  B(1)
000971:


000973:    1357     1375               SKEEP5             EQUALS   SKEEP4     +1                         #  B(1)
000974:    1357     1376               SKEEP6             EQUALS   SKEEP5     +1                         #  B(1)
000975:    1357     1377               SKEEP7             EQUALS   SKEEP6     +1                         #  B(1)
000976:


000978:                                                                                                  #           EBANK-3 ASSIGNMENTS
000979:
000980: E3,1400                                           SETLOC   1400
000981:
000982:                                                                                                  #           WAITLIST TASK LISTS.                          (26D)
000983:
000984: E3,1400                        LST1               ERASE    +7                                    #  B(8D)PRM  DELTA T S.
000985: E3,1410                        LST2               ERASE    +17D                                  #  B(18D)PRM TASK 2CADR ADDRESSES.
000986:
000987:                                                                                                  #           RESTART STORAGE.                              (2D)
000988:
000989: E3,1432                        RSBBQ              ERASE    +1                                    #  B(2)PRM SAVE BB AND Q FOR RESTARTS.
000990:
000991:
000992:                                                                                                  #           MORE LONGCALL STORAGE.(MUST BE IN LST1 S BANK.      (2D)
000993:
000994: E3,1434                        LONGEXIT           ERASE    +1                                    #  B(2)TMP MAY BE SELDOM OVERLAYED.
000995:
000996:
000997:                                                                                                  #           PHASE-CHANGE LISTS PART II.                   (12D)
000998:
000999: E3,1436                        PHSNAME1           ERASE                                          #  B(1)PRM
001000: E3,1437                        PHSBB1             ERASE                                          #  B(1)PRM
001001: E3,1440                        PHSNAME2           ERASE                                          #  B(1)PRM
001002: E3,1441                        PHSBB2             ERASE                                          #  B(1)PRM
001003: E3,1442                        PHSNAME3           ERASE                                          #  B(1)PRM
001004: E3,1443                        PHSBB3             ERASE                                          #  B(1)PRM
001005: E3,1444                        PHSNAME4           ERASE                                          #  B(1)PRM
001006: E3,1445                        PHSBB4             ERASE                                          #  B(1)PRM
001007: E3,1446                        PHSNAME5           ERASE                                          #  B(1)PRM
001008: E3,1447                        PHSBB5             ERASE                                          #  B(1)PRM
001009: E3,1450                        PHSNAME6           ERASE                                          #  B(1)PRM
001010: E3,1451                        PHSBB6             ERASE                                          #  B(1)PRM
001011:
001012:                                                                                                  #           IMU COMPENSATION PARAMETERS.                  (22D)
001013:
001014: E3,1452                        PBIASX             ERASE                                          #  B(1) PIPA BIAS, PIPA SCALE FACTR TERMS
001015: E3,1453  E3,1452               PIPABIAS           =        PBIASX                                #  INTERMIXED.
001016: E3,1453                        PIPASCFX           ERASE
001017: E3,1454  E3,1453               PIPASCF            =        PIPASCFX
001018: E3,1454                        PBIASY             ERASE
001019: E3,1455                        PIPASCFY           ERASE
001020: E3,1456                        PBIASZ             ERASE
001021: E3,1457                        PIPASCFZ           ERASE
001022:
001023: E3,1460                        NBDX               ERASE                                          #  GYRO BIAS DRIFTS
001024: E3,1461                        NBDY               ERASE
001025: E3,1462                        NBDZ               ERASE
001026:


001028: E3,1463                        ADIAX              ERASE                                          #  ACCELERATION SENSITIVE DRIFT ALONG THE
001029: E3,1464                        ADIAY              ERASE                                          #      INPUT AXIS
001030: E3,1465                        ADIAZ              ERASE
001031:
001032: E3,1466                        ADSRAX             ERASE                                          #  ACCELERATION SENSITIVE DRIFT ALONG THE
001033: E3,1467                        ADSRAY             ERASE                                          #      SPIN REFERENCE AXIS
001034: E3,1470                        ADSRAZ             ERASE
001035:
001036: E3,1471                        GCOMP              ERASE    +5                                    #  CONTAINS COMPENSATING TORQUES
001037:
001038: E3,1477  E3,1471               COMMAND            EQUALS   GCOMP
001039: E3,1477  E3,1474               CDUIND             EQUALS   GCOMP      +3
001040:
001041: E3,1477                        GCOMPSW            ERASE
001042:
001043:
001044:
001045:                                                                                                  #           STATE VECTORS FOR ORBIT INTEGRATION.          (44D)
001046:
001047:                                                                                                  #                                  (DIFEQCNT THRU XKEP MUST BE IN SAME
001048:                                                                                                  #                                    EBANK AS RRECTCSM, RRECTLEM ETC
001049:                                                                                                  #                                    BECAUSE THE COPY-CYCLES (ATOPCSM,
001050:                                                                                                  #                                    PTOACSM ETC) ARE EXECUTED IN BASIC.
001051:                                                                                                  #                                      ALL OTHER REFERENCES TO THIS GROUP
001052:                                                                                                  #                                    ARE BY INTERPRETIVE INSTRUCTIONS.)
001053:
001054:
001055: E3,1500                        DIFEQCNT           ERASE    +43D                                  #  B(1)
001056:                                                                                                  #                (UPSVFLAG...XKEP MUST BE KEPT IN ORDER)
001057:
001058: E3,1554  E3,1501               UPSVFLAG           EQUALS   DIFEQCNT   +1                         #  B(1)
001059: E3,1554  E3,1502               RRECT              EQUALS   UPSVFLAG   +1                         #  B(6)
001060: E3,1554  E3,1510               VRECT              EQUALS   RRECT      +6                         #  B(6)
001061: E3,1554  E3,1516               TET                EQUALS   VRECT      +6                         #  B(2)
001062: E3,1554  E3,1520               TDELTAV            EQUALS   TET        +2                         #  B(6)
001063: E3,1554  E3,1526               TNUV               EQUALS   TDELTAV    +6                         #  B(6)
001064: E3,1554  E3,1534               RCV                EQUALS   TNUV       +6                         #  B(6)
001065: E3,1554  E3,1542               VCV                EQUALS   RCV        +6                         #  B(6)
001066: E3,1554  E3,1550               TC                 EQUALS   VCV        +6                         #  B(2)
001067: E3,1554  E3,1552               XKEP               EQUALS   TC         +2                         #  B(2)
001068:
001069:                                                                                                  #           CONIC ROUTINES STORAGE                         (2D)
001070:
001071: E3,1554  E3,1552               XPREV              EQUALS   XKEP                                  #  I(2)TMP
001072:
001073:
001074:                                                                                                  #           PERMANENT STATE VECTORS AND TIMES.            (97D)
001075:
001076:                                                                                                  #           (DO NOT OVERLAY WITH ANYTHING AFTER BOOST)
001077:


001079:                                                                                                  #           (RRECTCSM ...XKEPCSM MUST BE KEPT IN THIS ORDER)
001080:
001081: E3,1554                        RRECTCSM           ERASE    +5                                    #  B(6)PRM CSM VARIABLES.
001082: E3,1562  E3,1554               RRECTOTH           =        RRECTCSM
001083: E3,1562                        VRECTCSM           ERASE    +5                                    #  B(6)PRM
001084: E3,1570                        TETCSM             ERASE    +1                                    #  B(2)PRM
001085: E3,1572  E3,1570               TETOTHER           =        TETCSM
001086: E3,1572                        DELTACSM           ERASE    +5                                    #  B(6)PRM
001087: E3,1600                        NUVCSM             ERASE    +5                                    #  B(6)PRM
001088: E3,1606                        RCVCSM             ERASE    +5                                    #  B(6)PRM
001089: E3,1614                        VCVCSM             ERASE    +5                                    #  B(6)PRM
001090: E3,1622                        TCCSM              ERASE    +1                                    #  B(2)PRM
001091: E3,1624                        XKEPCSM            ERASE    +1                                    #  B(2)PRM
001092:
001093:                                                                                                  #           (RRECTLEM ...XKEPLEM MUST BE KEPT IN THIS ORDER)
001094:
001095: E3,1626                        RRECTLEM           ERASE    +5                                    #  B(6)PRM LEM VARIABLES
001096: E3,1634  E3,1626               RRECTHIS           =        RRECTLEM
001097: E3,1634                        VRECTLEM           ERASE    +5                                    #  B(6)PRM
001098: E3,1642                        TETLEM             ERASE    +1                                    #  B(2)PRM
001099: E3,1644  E3,1642               TETTHIS            =        TETLEM
001100: E3,1644                        DELTALEM           ERASE    +5                                    #  B(6)PRM
001101: E3,1652                        NUVLEM             ERASE    +5                                    #  B(6)PRM
001102: E3,1660                        RCVLEM             ERASE    +5                                    #  B(6)PRM
001103: E3,1666                        VCVLEM             ERASE    +5                                    #  B(6)PRM
001104: E3,1674                        TCLEM              ERASE    +1                                    #  B(2)PRM
001105: E3,1676                        XKEPLEM            ERASE    +1                                    #  B(2)PRM
001106:
001107: E3,1700                        X789               ERASE    +5
001108: E3,1706                        TEPHEM             ERASE    +2
001109: E3,1711                        -AYO               ERASE    +1
001110: E3,1713                        AXO                ERASE    +1
001111:
001112:
001113:                                                                                                  #           STATE VECTORS FOR DOWNLINK.                   (12D)
001114:
001115: E3,1715                        R-OTHER            ERASE    +5                                    #  B(6)PRM POS VECT (OTHER VECH) FOR DNLINK
001116: E3,1723                        V-OTHER            ERASE    +5                                    #  B(6)PRM VEL VECT (OTHER VECH) FOR DNLINK
001117:
001118: E3,1731  E3,1570               T-OTHER            =        TETCSM                                #              TIME (OTHER VECH) FOR DNLINK
001119:
001120:
001121:                                                                                                  #           SERVICER FOR LUNAR ASCENT AND DESCENT         (12D)
001122:
001123: E3,1731  E3,1715               R(CSM)             EQUALS   R-OTHER                               #  I(6) FOR UPDATE OF CM STATE VECS BY LM.
001124: E3,1731  E3,1723               V(CSM)             EQUALS   V-OTHER                               #  I(6)
001125:
001126:
001127:                                                                                                  #           REFSMMAT.                                     (18D)
001128:


001130: E3,1731                        REFSMMAT           ERASE    +17D                                  #  I(18D)PRM
001131:
001132:                                                                                                  #           ACTIVE VEHICLE CENTANG.  MUST BE DISPLAYED ANYTIME (ALMOST.)  (2D)
001133:
001134: E3,1753                        ACTCENT            ERASE    +1                                    #  I(2) S-S CENTRAL ANGLE BETWEEN ACTIVE
001135:                                                                                                  #   VEHICLE AT TPI TIG AND TARGET VECTOR.
001136:
001137:                                                                                                  #        **** USED IN CONICSEX (PLAN INERT ORIENT) ****
001138:
001139: E3,1755  E3,1706               TIMSUBO            EQUALS   TEPHEM                                #  CSEC B-42 (TRIPLE PRECISION)
001140:
001141:
001142:                                                                                                  #           LPS20.1 STORAGE     -ALL ARE PRM-             (9D)
001143:
001144: E3,1755                        LS21X              ERASE                                          #  I(1)
001145: E3,1756                        LOSVEL             ERASE    +5                                    #  I(6)
001146: E3,1764                        MLOSV              ERASE    +1                                    #  I(2) MAGNITUDE OF LOS, METERS B-29
001147:
001148:
001149:                                                                                                  #       ***** P22  *****  (OVERLAYS LPS 20.1 STORAGE)     (6D)
001150: E3,1766  E3,1756               VSUBC              EQUALS   LOSVEL                                #  I(6)S-S  CSM VELOCITY VECTOR
001151:
001152:                                                                                                  #           PADLOADED ERASABLES FOR P20/P22               (6D)
001153:
001154: E3,1766                        RANGEVAR           ERASE    +1                                    #  I(2) RR RANGE ERROR VARIANCE
001155: E3,1770                        RATEVAR            ERASE    +1                                    #  I(2) RR RANGE-RATE ERROR VARIANCE
001156: E3,1772                        RVARMIN            ERASE                                          #  I(1) MINIMUM RANGE ERROR VARIANCE
001157: E3,1773                        VVARMIN            ERASE                                          #  I(1) MINIMUM RANGE-RATE ERROR VARIANCE
001158:
001159:
001160:                                                                                                  #           P32-P33 STORAGE                               (2D)
001161:
001162: E3,1774                        TCDH               ERASE    +1                                    #  I(2) T2 CDH TIME IN CS. (ALSO DOWNLINKED
001163:
001164:                                                                                                  #           TIME SAVE FOR P20 AGS DOWNLIST                (2D)
001165:
Warning:  May overflow memory bank.
001166: E3,1776                        OLDAGS             ERASE    +1                                    #  I(2)
001167:


001169:                                                                                                  #           EBANK-4 ASSIGNMENTS
001170:
001171: E4,1400                                           SETLOC   2000
001172:
001173:                                                                                                  #  E4 IS, FOR THE MOST PART RESERVED FOR PAD LOADED AND UNSHARABLE ERASE.
001174:
001175:                                                                                                  #           P20 STORAGE. -PAD LOADED-                     (6D)
001176:
001177: E4,1400                        WRENDPOS           ERASE                                          #  B(1)PL                            KM*2(-7)
001178: E4,1401                        WRENDVEL           ERASE                                          #  B(1)PL                      KM(-1/2)*2(11)
001179: E4,1402                        WSHAFT             ERASE                                          #  B(1)PL                            KM*2(-7)
001180: E4,1403                        WTRUN              ERASE                                          #  B(1)PL                            KM*2(-7)
001181: E4,1404                        RMAX               ERASE                                          #  B(1)PL                       METERS*2(-19)
001182: E4,1405                        VMAX               ERASE                                          #  B(1)PL                        M/CSEC*2(-7)
001183:
001184:                                                                                                  #           LUNAR SURFACE NAVIGATION -- PAD LOADED --      (2D)
001185:
001186: E4,1406                        WSURFPOS           ERASE                                          #  B(1)PL
001187: E4,1407                        WSURFVEL           ERASE                                          #  B(1)PL
001188:
001189:
001190:                                                                                                  #           P22 STORAGE. -PAD LOADED-                      (2D)
001191:
001192: E4,1410                        SHAFTVAR           ERASE                                          #  B(1)PL                        RAD SQ*2(12)
001193: E4,1411                        TRUNVAR            ERASE                                          #  B(1)PL                        RAD SQ*2(10)
001194:
001195:                                                                                                  #           CONISEX STORAGE.-PAD LOADED-                   (6D)
001196:
001197: E4,1412                        504LM              ERASE    +5                                    #  I(6)MOON LIBRATION VECTOR
001198:
001199:
001200:                                                                                                  #  STORAGE FOR RLS AND TLAND - PAD LOADS - ORDER IS RETAINED FOR UPLINK. (8D)
001201:
001202: E4,1420                        RLS                ERASE    +5                                    #  I(6) LANDING SITE VECTOR - MOON REF.
001203: E4,1426                        TLAND              ERASE    +1                                    #  B(2) NOMINAL LANDING TIME.
001204:
001205:                                                                                                  #           INTEGRATION STORAGE.                          (94D)
001206:
001207: E4,1430                        PBODY              ERASE    +93D                                  #  I(1)
001208: E4,1566  E4,1431               ALPHAV             EQUALS   PBODY      +1                         #  I(6)
001209: E4,1566  E4,1437               BETAV              EQUALS   ALPHAV     +6                         #  I(6)
001210: E4,1566  E4,1445               PHIV               EQUALS   BETAV      +6                         #  I(6)
001211: E4,1566  E4,1453               PSIV               EQUALS   PHIV       +6                         #  I(6)
001212: E4,1566  E4,1461               FV                 EQUALS   PSIV       +6                         #  I(6)    PERTURBING ACCELERATIONS
001213: E4,1566  E4,1467               ALPHAM             EQUALS   FV         +6                         #  I(2)
001214: E4,1566  E4,1471               BETAM              EQUALS   ALPHAM     +2                         #  I(2)
001215: E4,1566  E4,1473               TAU.               EQUALS   BETAM      +2                         #  I(2)
001216:


001218: E4,1566  E4,1475               DT/2               EQUALS   TAU.       +2                         #  I(2)
001219: E4,1566  E4,1477               H                  EQUALS   DT/2       +2                         #  I(2)
001220: E4,1566  E4,1501               IRETURN            EQUALS   H          +2                         #  I(1)
001221: E4,1566  E4,1502               NORMGAM            EQUALS   IRETURN    +1                         #  I(1)
001222: E4,1566  E4,1503               RPQV               EQUALS   NORMGAM    +1
001223: E4,1566  E4,1511               ORIGEX             EQUALS   RPQV       +6                         #  I(1)
001224: E4,1566  E4,1511               KEPRTN             EQUALS   ORIGEX                                #  I(1)
001225: E4,1566  E4,1512               RPSV               EQUALS   ORIGEX     +1                         #  I(6)
001226: E4,1566  E4,1520               XKEPNEW            EQUALS   RPSV       +6                         #  I(2)
001227: E4,1566  E4,1522               VECTAB             EQUALS   XKEPNEW    +2                         #  I(36D)
001228:
001229:
001230:                                                                                                  #           R04 - R77 FAIL COUNTER                        (1D)
001231:
001232: E4,1566                        RFAILCNT           ERASE                                          #  B(1)
001233:
001234:
001235:                                                                                                  #           SERVICER STORAGE   (USED BY ALL POWERED FLIGHT PROGS.)  (18D)
001236:
001237: E4,1567  E4,1536               XNBPIP             EQUALS   VECTAB     +12D                       #  I(6)
001238: E4,1567  E4,1544               YNBPIP             EQUALS   XNBPIP     +6                         #  I(6)
001239: E4,1567  E4,1552               ZNBPIP             EQUALS   YNBPIP     +6                         #  I(6)
001240:
001241:
001242:                                                                                                  #           SOME VERB 82 STORAGE                          (4D)
001243:
001244: E4,1567  E4,1512               HAPOX              EQUALS   RPSV                                  #  I(2)
001245: E4,1567  E4,1514               HPERX              EQUALS   HAPOX      +2                         #  I(2)
001246:
001247:                                                                                                  #           V82 STORAGE                                   (6D)
001248:
001249: E4,1567  E4,1560               VONE'              EQUALS   VECTAB     +30D                       #  I(6)TMP  NORMAL VELOCITY VONE /SQRT. MU
001250:
001251:
001252:                                                                                                  #          R31 (V83) STORAGE. -SHARES WITH INTEGRATION STORAGE-      (26D)
001253:
001254: E4,1567  E4,1503               BASETHV            EQUALS   RPQV                                  #  I(6)     BASE VEL VECTOR THIS VEH
001255:
001256:
001257: E4,1567  E4,1512               BASETIME           EQUALS   RPSV                                  #  I(2)   TIME ASSOC WITH BASE VECTORS
001258: E4,1567  E4,1571               BASEOTV            EQUALS   YLEM                                  #  I(6)    BASE VELOC VECTOR OTHER VEH
001259:
001260:
001261: E4,1567  E4,1530               BASEOTP            EQUALS   VECTAB     +6                         #  I(6)     BASE POS VECTOR OTHER VEH
001262:
001263: E4,1567  E4,1560               BASETHP            EQUALS   VECTAB     +30D                       #  I(6)     BASE POS VECTOR THIS VEH
001264:


001266:                                                                                                  #           KEPLER STORAGE. (KEPLER IS CALLED BY PRECISION INTEGRATION AND (2D)
001267:                                                                                                  #           CONICS)
001268:
001269: E4,1567                        EPSILONT           ERASE    +1                                    #  I(2)
001270:
001271:
001272:                                                                                                  #           R36 STORAGE  (N90)                             (6D)
001273: E4,1571                        YLEM               ERASE    +5                                    #  I(2)
001274: E4,1577  E4,1573               YDOTLEM            EQUALS   YLEM       +2                         #  I(2)
001275: E4,1577  E4,1575               PHILEM             EQUALS   YDOTLEM    +2                         #  I(2)
001276:
001277:
001278:                                                                                                  #           VERB 83 STORAGE.                              (18D)
001279:
001280: E4,1577                        RONE               ERASE    +17D                                  #  I(6)
001281: E4,1621  E4,1605               VONE               EQUALS   RONE       +6                         #  I(6)TMP VECTOR STORAGE.  (SCRATCH)
001282:
001283:
001284: E4,1621  E4,1613               RANGE              EQUALS   VONE       +6                         #  I(2)
001285: E4,1621  E4,1615               RRATE              EQUALS   RANGE      +2                         #  I(2)
001286: E4,1621  E4,1617               RTHETA             EQUALS   RRATE      +2                         #  I(2)
001287:
001288:
001289:                                                                                                  #           VERB 67 STORAGE                               (6D)
001290:
001291: E4,1621  E4,1571               WWPOS              EQUALS   YLEM                                  #  B(2)   NOUN 99  (V67)
001292: E4,1621  E4,1573               WWVEL              EQUALS   WWPOS      +2                         #  B(2)   NOUN 99  (V67)
001293: E4,1621  E4,1575               WWBIAS             EQUALS   WWVEL      +2                         #  B(2)   NOUN 99  (V67)
001294:
001295:
001296:
001297:
001298:                                                                                                  #           V82 STORAGE. (CANNOT OVERLAY RONE OR VONE)    (5D)
001299:
001300: E4,1621  E4,1530               V82FLAGS           EQUALS   VECTAB     +6                         #   (1) FOR V82 BITS.
001301: E4,1621  E4,1531               TFF                EQUALS   V82FLAGS   +1                         #  I(2)
001302: E4,1621  E4,1533               -TPER              EQUALS   TFF        +2                         #  I(2)
001303:
001304:                                                                                                  #           MORE V82 STORAGE.  (CANNOT OVERLAY RONE OR VONE) (6D)
001305:
001306: E4,1621  E4,1571               HPERMIN            EQUALS   YLEM                                  #  I(2)   SET TO 300K FT OR 35K FT SR30.1
001307: E4,1621  E4,1573               RPADTEM            EQUALS   HPERMIN    +2                         #  I(2) PAD OR LANDING RADIUS FOR SR30.1
001308: E4,1621  E4,1575               TSTART82           EQUALS   RPADTEM    +2                         #  I(2) TEMP TIME STORAGE FOR V82.
001309:
001310:
001311:                                                                                                  #           ALIGNMENT PLANETARY-INERTIAL TRANSFORMATION STORAGE.       (18D)
001312:


001314:                                                                                                  #                UNSHARED WHILE LM ON LUNAR SURFACE.
001315:
001316: E4,1621                        GSAV               ERASE    +17D                                  #  I(6)
001317: E4,1643  E4,1627               YNBSAV             EQUALS   GSAV       +6                         #  I(6)
001318: E4,1643  E4,1635               ZNBSAV             EQUALS   YNBSAV     +6                         #  I(6)
001319:
001320:
001321:                                                                                                  #           KALCMANU STORAGE. CAN OVERLAY GSAV.           (18D)
001322:
001323: E4,1643  E4,1621               MFS                EQUALS   GSAV                                  #  I(18)
001324: E4,1643  E4,1621               MFI                EQUALS   MFS                                   #  I
001325: E4,1643  E4,1621               KEL                EQUALS   MFS                                   #  I(18)
001326:
001327:                                                                                                  #           P32-P35, P72-P75 STORAGE.                     (40D)
001328:
001329: E4,1643                        T1TOT2             ERASE    +1                                    #   (2)     TIME FROM CSI TO CDH
001330: E4,1645                        T2TOT3             ERASE    +1                                    #   (2)
001331: E4,1647                        ELEV               ERASE    +1                                    #   (2)
001332: E4,1651                        UP1                ERASE    +5                                    #   (6)
001333: E4,1657                        DELVEET1           ERASE    +5                                    #  I(6)     DV CSI IN REF
001334: E4,1665                        DELVEET2           ERASE    +5                                    #  I(6)     DV CSH IN REF
001335: E4,1673                        RACT1              ERASE    +5                                    #   (6)     POS VEC OF ACTIVE AT CSI TIME
001336: E4,1701                        RACT2              ERASE    +5                                    #   (6)     POS VEC OF ACTIVE AT CDH TIME
001337: E4,1707                        RTSR1/MU           ERASE    +1                                    #   (2)     SQ ROOT 1/MU STORAGE
001338: E4,1711                        RTMU               ERASE    +1                                    #   (2)     MU STORAGE
001339:
001340:
001341:                                                                                                  #           (THE FOLLOWING ERASABLES OVERLAY PORTIONS OF THE PREVIOUS SECTION)
001342:
001343: E4,1713  E4,1643               +MGA               EQUALS   T1TOT2                                #   (2) S-S + MID GIM ANGL TO DELVEET3
001344:
001345:
001346: E4,1713  E4,1651               UNRM               EQUALS   UP1                                   #  I(6) S-S
001347:
001348:
001349: E4,1713  E4,1673               DVLOS              EQUALS   RACT1                                 #  I(6) S-S DELTA VELOCITY,LOS COORD-DISPLA
001350: E4,1713  E4,1701               ULOS               EQUALS   RACT2                                 #  I(6) S-S UNIT LINE OF SIGHT VECTOR
001351:
001352:
001353: E4,1713  E4,1707               NOMTPI             EQUALS   RTSR1/MU                              #  (2) S-S NOMINAL TPI TIME FOR RECYCLE
001354:
001355:
001356:                                                                                                  #           SOME P30 STORAGE.                             (4D)
001357:
001358: E4,1713  E4,1707               HAPO               EQUALS   RTSR1/MU                              #  I(2)
001359: E4,1713  E4,1711               HPER               EQUALS   HAPO       +2                         #  I(2)
001360:


001362:                                                                                                  #           THE FOLLOWING ARE ERASABLE LOADS DURING A PERFORMANCE TEST.
001363:
001364: E4,1713  E4,1400               TRANSM1            EQUALS   WRENDPOS                              #  E4,1400
001365: E4,1713  E4,1422               ALFDK              EQUALS   TRANSM1    +18D
001366:
001367:
001368:                                                                                                  #  ******* THE FOLLOWING SECTIONS OVERLAY V83 AND DISPLAY STORAGE *******
001369:
001370:
001371:                                                                                                  #           V47(R47)AGS INITIALIZATION PROGRAM STORAGE.  (OVERLAYS V83) (14D)
001372:
001373: E4,1713  E4,1571               AGSBUFF            EQUALS   YLEM                                  #  B(14)
001374: E4,1713  E4,1606               AGSBUFFE           EQUALS   AGSBUFF    +13D                       #  ENDMARK
001375:
001376:
001377:                                                                                                  #           R36 OUT-OF-PLANE RENDEZVOUS DISPLAY STORAGE.  (OVERLAYS V83)  (12D)
001378:
001379: E4,1713  E4,1577               RPASS36            EQUALS   RONE                                  #  I(6) S-S
001380: E4,1713  E4,1605               UNP36              EQUALS   RPASS36    +6                         #  I(6) S-S
001381:
001382:
001383:                                                                                                  #           S-BAND ANTENNA GIMBAL ANGLES. DISPLAYED BY R05(V64). (OVERLAYS V83)        (10D)
001384:
001385:
001386: E4,1713  E4,1571               ALPHASB            EQUALS   YLEM                                  #  B(2)  DSP NOUN 51 PITCH ANGLE
001387: E4,1713  E4,1573               BETASB             EQUALS   ALPHASB    +2                         #  B(2)DSP NOUN 51. YAW ANGLE.
001388: E4,1713  E4,1575               RLM                EQUALS   BETASB     +2                         #  I(6)S    S/C POSITION VECTOR.
001389:
001390:                                                                                                  #           **** USED IN S-BAND ANTENNA FOR LM ****        (4D)
001391:
001392: E4,1713  E4,1571               PITCHANG           EQUALS   ALPHASB                               #  I(2) PITCH/ANTENNA GIMBAL ANGLE REQUIRED
001393: E4,1713  E4,1573               YAWANG             EQUALS   BETASB                                #  I(2) YAW  /TO POINT LM STEERABLE ANTENNA
001394:                                                                                                  #            /TOWARD CENTER OF EARTH
001395:                                                                                                  #           NOUN 56 DATA - COMPUTED AND DISPLAYED BY VERB 85. (4)
001396:
001397: E4,1713  E4,1571               RR-AZ              EQUALS   PITCHANG                              #  I(2) ANGLE BETWEEN LOS AND X-Z PLANE.
001398: E4,1713  E4,1573               RR-ELEV            EQUALS   RR-AZ      +2                         #  I(2) ANGLE BETWEEN LOS AND Y-Z PLANE.
001399:
001400:                                                                                                  #           R04(V62) RADAR TEST STORAGE.                  (8D)
001401:
001402:
001403: E4,1713  E4,1571               RSTACK             EQUALS   YLEM                                  #  B(8) BUFFER FOR R04 NOUNS
001404:
001405:
001406:
001407:                                                                                                  #           INITVEL STORAGE.  ALSO USED BY P31,P34,P35,P74,P75,P10,P11,MIDGIM,S40.1 AND S40.9. (18D)
001408:
001409:                                                                                                  #                   (POSSIBLY RINIT & VINIT CAN OVERLAY DELVEET1 & 2 ABOVE)
001410: E4,1713                        RINIT              ERASE    +5                                    #  I(6) ACTIVE VEHICLE POSITION
001411: E4,1721                        VINIT              ERASE    +5                                    #  I(6) ACTIVE VEHICLE VELOCITY
001412:


001414: E4,1727                        VIPRIME            ERASE    +5                                    #  I(6) NEW VEL REQUIRED AT INITIAL RADIUS.
001415:
001416:                                                                                                  #   BALLANGS-AUTOMATIC MANEUVER -- R60,(N18              (3D)
001417:
001418: E4,1735                        FDAIX              ERASE                                          #  I(1)
001419: E4,1736                        FDAIY              ERASE                                          #  I(1)
001420: E4,1737                        FDAIZ              ERASE                                          #  I(1)
001421:
001422:
001423:                                                                                                  #           P34-P35 STORAGE.  DOWNLINKED.                 (2D)
001424:
001425: E4,1740                        DELVTPF            ERASE    +1                                    #  I(2) DELTA V FOR TPF
001426:
001427:
001428:                                                                                                  #           LPS20.1 STORAGE.  CALLED BY R65.              (12D)
001429:
001430: E4,1742                        LMPOS              ERASE    +5                                    #  I(6)TEMP. STORAGE FOR LM POS. VECTOR.
001431: E4,1750                        LMVEL              ERASE    +5                                    #  I(6)TEMP. STORAGE FOR LM VEL. VECTOR.
001432:
001433:                                                                                                  #  INITVEL STORAGE.  ALSO USED BY P31,34,35,74,75,S40.1 AND DOWNLINKED.  (6D)
001434:
001435: E4,1756                        DELVEET3           ERASE    +5                                    #  I(6) DELTA V IN INERTIAL COORDINATES.
001436:
001437:
001438:                                                                                                  #           SOME R04(V63)-R77 STORAGE.                    (5D)
001439:
001440: E4,1764                        RTSTDEX            ERASE                                          #  B(1)
001441: E4,1765                        RTSTMAX            ERASE                                          #  B(1)
001442: E4,1766                        RTSTBASE           ERASE                                          #  B(1)
001443: E4,1767                        RTSTLOC            ERASE                                          #  B(1)
001444: E4,1770                        RSAMPDT            ERASE                                          #  B(1)
001445:
001446:
001447:                                                                                                  #           SECOND DPS GUIDANCE  (LUNAR LANDING) (OVERLAYS KALCMANU & P57) (6D)
001448:
001449: E4,1771  E4,1621               ANGTERM            =        GSAV                                  #  I(6)     GUIDANCE
001450:
001451:
001452:
001453:
001454:                                                                                                  #           ASCENT GUIDANCE FOR LUNAR LANDING             (54D)
001455:
001456: E4,1771  E4,1653               AT                 EQUALS   UP1        +2                         #  I(2)TMP ENGINE DATA -- THRUST ACC*2 (9)
001457: E4,1771  E4,1655               VE                 EQUALS   AT         +2                         #  I(2)TMP  EXHAUST VELOCITY * 2(7)M/CS.
001458: E4,1771  E4,1657               TTO                EQUALS   VE         +2                         #  I(2)TMP  TAILOFF TIME * 2(17)CS.
001459: E4,1771  E4,1661               TBUP               EQUALS   TTO        +2                         #  I(2)TMP  (M/MDOT) * 2(17)CS.
001460: E4,1771  E4,1663               RDOTD              EQUALS   TBUP       +2                         #  I(2)TMP  TARGET VELOCITY COMPONENTS
001461: E4,1771  E4,1665               YDOTD              EQUALS   RDOTD      +2                         #  I(2)TMP SCALING IS 2(7)M/CS.
001462: E4,1771  E4,1667               ZDOTD              EQUALS   YDOTD      +2                         #  I(2)TMP
001463:


001465: E4,1771  E4,1671               /R/MAG             EQUALS   ZDOTD      +2                         #  I(2)TMP
001466: E4,1771  E4,1673               LAXIS              EQUALS   /R/MAG     +2                         #  I(6)TMP
001467:
001468:
001469: E4,1771  E4,1701               YDOT               =        LAXIS      +6                         #  I(2)TMP VEL. NORMAL TO REF. PLANE*2(-7)
001470: E4,1771  E4,1703               ZDOT               EQUALS   YDOT       +2                         #  I(2)TMP  DOWN RANGE VEL *2(-7).
001471: E4,1771  E4,1705               GEFF               EQUALS   ZDOT       +2                         #  I(2)TMP  EFFECTIVE GRAVITY
001472:
001473:                                                                                                  #     THESE TWO GROUPS OF ASCENT GUIDANCE ARE SPLIT BY THE ASCENT-DESCENT SERVICER SECTION FOLLOWING THIS SECTION
001474:
001475: E4,1771  E4,1725               Y                  EQUALS   /LAND/     +2                         #  I(2)TMP  OUT-OF-PLANE DIST *2(24)M
001476: E4,1771  E4,1727               DRDOT              EQUALS   Y          +2                         #  I(2)TMP  RDOTD - RDOT
001477: E4,1771  E4,1731               DYDOT              EQUALS   DRDOT      +2                         #  I(2)TMP  YDOTD - YDOT
001478: E4,1771  E4,1733               DZDOT              EQUALS   DYDOT      +2                         #  I(2)TMP  ZDOTD - ZDOT
001479: E4,1771  E4,1735               PCONS              EQUALS   DZDOT      +2                         #  I(2)TMP  CONSTANT IN ATR EQUATION
001480: E4,1771  E4,1737               YCONS              EQUALS   PCONS      +2                         #  I(2)TMP  CONSTANT IN ATY EQUATION
001481: E4,1771  E4,1741               PRATE              EQUALS   YCONS      +2                         #  I(2)TMP  RATE COEFF. IN ATR EQUATION
001482: E4,1771  E4,1743               YRATE              EQUALS   PRATE      +2                         #  I(2)TMP  RATE COEFF. IN ATY EQUATION
001483: E4,1771  E4,1745               ATY                EQUALS   YRATE      +2                         #  I(2)TMP  OUT-OF-PLANE THRUST COMP.*2(9)
001484: E4,1771  E4,1747               ATR                EQUALS   ATY        +2                         #  I(2)TMP  RADIAL THRUST COMP.* 2(9)
001485: E4,1771  E4,1751               ATP                EQUALS   ATR        +2                         #  I(2)TMP  DOWN-RANGE THRUST COMP
001486: E4,1771  E4,1753               YAW                EQUALS   ATP        +2                         #  I(2)TMP
001487: E4,1771  E4,1755               PITCH              EQUALS   YAW        +2                         #  I(2)RMP
001488:
001489:
001490:                                                                                                  #           SERVICER FOR LUNAR ASCENT AND DESCENT         (14D)
001491:
001492: E4,1771  E4,1707               G(CSM)             EQUALS   GEFF       +2                         #  I(6) FOR UPDATE OF COMMAND MODULE STATE
001493:                                                                                                  # R(CSM)          EQUALS          R-OTHER                      VECTORS BY LEM; ANALOGS OF GDT/2,
001494:                                                                                                  # V(CSM)          EQUALS          V-OTHER                      R, AND V, RESPECTIVELY OF THE CSM
001495: E4,1771  E4,1715               WM                 EQUALS   G(CSM)     +6                         #  I(6) TMP - LUNAR ROTATION VECTOR (SM)
001496: E4,1771  E4,1723               /LAND/             EQUALS   WM         +6                         #  B(2) LUNAR RADIUS AT LANDING SITE
001497:
001498:
001499:                                                                                                  #           NOTE:  R(CSM) AND V(CSM) DEFINED IN E3.
001500:                                                                                                  #           NOUN 26 ERASABLES      (UNSHARED)             (3D)
001501:
001502: E4,1771  E4,1771               N26/PRI            EQUALS   RSAMPDT    +1                         #  B(1)  PRIO/DELAY
001503: E4,1771  E4,1772               N26/2CAD           EQUALS   N26/PRI    +1                         #  B(1)  JOB/TASK 2CADR
001504:


001506:                                                                                                  #           EBANK-5 ASSIGNMENTS
001507:
001508: E5,1400                                           SETLOC   2400
001509:
001510:                                                                                                  #           W-MATRIX. ESSENTIALLY UNSHARABLE.            (162D)
001511:
001512: E5,1400                        W                  ERASE    +161D
001513: E5,1642  E5,1642               ENDW               EQUALS   W          +162D
001514:
001515:
001516:
001517:                                                                                                  #  ******* OVERLAY NUMBER 1 IN EBANK 5 *******
001518:
001519:
001520:                                                                                                  #          W-MATRIX OVERLAY: PADLOADS -- LANDING, ABORTS               (122D)
001521: E5,1642  E5,1400               VELBIAS            EQUALS   W                                     #  I(2) PL BIAS VALUE FOR VELOCITY.
001522:                                                                                                  #  REASONABILITY TEST, 2(6) M/CS
001523:                                                                                                  #  PLEASE PRESERVE THE ORDER OF RBRFGX THROUGH TCGIAPPR.
001524: E5,1642  E5,1402               RBRFGX             EQUALS   VELBIAS    +2                         #  I(2)  POSITION TARGETS
001525: E5,1642  E5,1404               RAPFGX             EQUALS   RBRFGX     +2                         #  I(2)
001526: E5,1642  E5,1406               RBRFGZ             EQUALS   RAPFGX     +2                         #  I(2)
001527: E5,1642  E5,1410               RAPFGZ             EQUALS   RBRFGZ     +2                         #  I(2)
001528: E5,1642  E5,1412               VBRFGX             EQUALS   RAPFGZ     +2                         #  I(2)  VELOCITY TARGETS
001529: E5,1642  E5,1414               VAPFGX             EQUALS   VBRFGX     +2                         #  I(2)
001530: E5,1642  E5,1416               VBRFGZ             EQUALS   VAPFGX     +2                         #  I(2)
001531: E5,1642  E5,1420               VAPFGZ             EQUALS   VBRFGZ     +2                         #  I(2)
001532: E5,1642  E5,1422               ABRFGX             EQUALS   VAPFGZ     +2                         #  I(2)  ACCELERATION TARGETS
001533: E5,1642  E5,1424               AAPFGX             EQUALS   ABRFGX     +2                         #  I(2)
001534: E5,1642  E5,1426               ABRFGZ             EQUALS   AAPFGX     +2                         #  I(2)
001535: E5,1642  E5,1430               AAPFGZ             EQUALS   ABRFGZ     +2                         #  I(2)
001536: E5,1642  E5,1432               VBRFG*             EQUALS   AAPFGZ     +2                         #  I(2)  SCALED TARGETS FOR TTF/8CL
001537: E5,1642  E5,1434               VAPFG*             EQUALS   VBRFG*     +2                         #  I(2)
001538: E5,1642  E5,1436               ABRFG*             EQUALS   VAPFG*     +2                         #  I(2)
001539: E5,1642  E5,1440               AAPFG*             EQUALS   ABRFG*     +2                         #  I(2)
001540: E5,1642  E5,1442               JBRFG*             EQUALS   AAPFG*     +2                         #  I(2)
001541: E5,1642  E5,1444               JAPFG*             EQUALS   JBRFG*     +2                         #  I(2)
001542:                                                                                                  #                      * SEE PARAMETER TABLE IN LUNAR LANDING GUIDANCE EQUATIONS FOR
001543:                                                                                                  #                                    INDIRECT ADDRESSING INTO ABOVE AREA.
001544:
001545: E5,1642  E5,1446               GAINBRAK           EQUALS   JAPFG*     +2                         #  I(2)  GAINS FOR GUIDANCE FRAME ERECTION
001546: E5,1642  E5,1450               GAINAPPR           EQUALS   GAINBRAK   +2                         #  I(2)
001547: E5,1642  E5,1452               TCGFBRAK           EQUALS   GAINAPPR   +2                         #  I(2)  TIME CRITERIA FOR GUIDANCE FRAME
001548: E5,1642  E5,1453               TCGIBRAK           EQUALS   TCGFBRAK   +1                         #  I(1)
001549: E5,1642  E5,1454               TCGFAPPR           EQUALS   TCGIBRAK   +1                         #  I(1)
001550: E5,1642  E5,1455               TCGIAPPR           EQUALS   TCGFAPPR   +1                         #  I(1)
001551: E5,1642  E5,1456               VIGN               EQUALS   TCGIAPPR   +1                         #  I(2)  DESIRED SPEED FOR PDI
001552: E5,1642  E5,1460               RIGNX              EQUALS   VIGN       +2                         #  I(2)  DESIRED 'ALTITUDE' FOR IGNITION
001553: E5,1642  E5,1462               RIGNZ              EQUALS   RIGNX      +2                         #  I(2)  DESIRED GROUND RANGE FOR IGNITION
001554: E5,1642  E5,1464               KIGNX/B4           EQUALS   RIGNZ      +2                         #  I(2)
001555:


001557: E5,1642  E5,1466               KIGNY/B8           EQUALS   KIGNX/B4   +2                         #  I(2)
001558: E5,1642  E5,1470               KIGNV/B4           EQUALS   KIGNY/B8   +2                         #  I(2)
001559: E5,1642  E5,1472               LOWCRIT            EQUALS   KIGNV/B4   +2                         #  B(1) (HIGHCRIT MUST FOLLOW LOWCRIT)
001560: E5,1642  E5,1473               HIGHCRIT           EQUALS   LOWCRIT    +1                         #  B(1)
001561: E5,1642  E5,1474               TAUHZ              EQUALS   HIGHCRIT   +1                         #  P66 HORIZONTAL
001562: E5,1642  E5,1475               QHZ                EQUALS   TAUHZ      +1                         #      VELOCITY NULLING
001563: E5,1642  E5,1476               AHZLIM             EQUALS   QHZ        +1                         #        CONSTANTS
001564: E5,1642  E5,1477               2LATE466           EQUALS   AHZLIM     +1                         #  I(2) MIN ELAPSED TIME SINCE PIPTIME ERE
001565:                                                                                                  #  A P66(2 R/D) WILL BE OMITTED
001566: E5,1642  E5,1503               DELQFIX            EQUALS   2LATE466   +4                         #  I(2)  LR ALT. DATA REASONABILITY PARAM
001567:
001568:                                                                                                  #                ** NOTE: 6 ERASABLES HERE IN THIS "LANDING/ABORTS" OVERLAY ARE FREE
001569:                                                                                                  #                         THEY SHARE ONLY WITH W-MATRIX AND SYSTEM TEST ERASABLES    **
001570:
001571: E5,1642  E5,1511               LRVMAX             EQUALS   DELQFIX    +6                         #  B(1)   LR VEL WEIGHTING FUNCTIONS
001572: E5,1642  E5,1512               LRVF               EQUALS   LRVMAX     +1                         #  B(1)   LR VEL WEIGHTING FUNCTIONS
001573: E5,1642  E5,1513               LRWVZ              EQUALS   LRVF       +1                         #  B(1)   LR VEL WEIGH ING FUNCTIONS
001574: E5,1642  E5,1514               LRWVY              EQUALS   LRWVZ      +1                         #  B(1)   LR VEL WEIGH ING FUNCTIONS
001575: E5,1642  E5,1515               LRWVX              EQUALS   LRWVY      +1                         #  B(1)   LR VEL WEIGH ING FUNCTIONS
001576: E5,1642  E5,1516               LRWVFZ             EQUALS   LRWVX      +1                         #  B(1)   LR VEL WEIGH ING FUNCTIONS
001577: E5,1642  E5,1517               LRWVFY             EQUALS   LRWVFZ     +1                         #  B(1)   LR VEL WEIG  ING FUNC IONS
001578: E5,1642  E5,1520               LRWVFX             EQUALS   LRWVFY     +1                         #  B(1)   LR VEL WEIG  ING FUNC IONS
001579: E5,1642  E5,1521               LRWVFF             EQUALS   LRWVFX     +1                         #  B(1)   LR VEL WEIG  ING FUNC IONS
001580:
001581: E5,1642  E5,1522               ABSC0              EQUALS   LRWVFF     +1                         #  B(1)  ABSCISSAE DEFINING TERRAIN MODEL
001582: E5,1642  E5,1523               ABSC1              EQUALS   ABSC0      +1                         #  B(1)
001583: E5,1642  E5,1524               ABSC2              EQUALS   ABSC1      +1                         #  B(1)
001584: E5,1642  E5,1525               ABSC3              EQUALS   ABSC2      +1                         #  B(1)
001585: E5,1642  E5,1526               ABSC4              EQUALS   ABSC3      +1                         #  B(1)
001586: E5,1642  E5,1527               SLOPE0             EQUALS   ABSC4      +1                         #  B(1)  SLOPES DEFINING TERRAIN MODEL
001587: E5,1642  E5,1530               SLOPE1             EQUALS   SLOPE0     +1                         #  B(1)
001588: E5,1642  E5,1531               SLOPE2             EQUALS   SLOPE1     +1                         #  B(1)
001589: E5,1642  E5,1532               SLOPE3             EQUALS   SLOPE2     +1                         #  B(1)
001590: E5,1642  E5,1533               SLOPE4             EQUALS   SLOPE3     +1                         #  B(1)
001591:
001592: E5,1642     0130               ABVEL*             EQUALS   BUF                                   #  B(1)   LR TEMP
001593: E5,1642     0131               VSELECT*           EQUALS   BUF        +1                         #  B(1)   LR TEMP
001594:
001595: E5,1642  E5,1534               RODSCALE           EQUALS   SLOPE4     +1                         #  I(2) CLICK SCALE FACTOR FOR R.O.D.
001596: E5,1642  E5,1535               TAUROD             EQUALS   RODSCALE   +1                         #  I(2) TIME CONSTANT FOR R.O.D.
001597: E5,1642  E5,1537               LAG/TAU            EQUALS   TAUROD     +2                         #  I(2) LAG TIME DIVIDED BY TAUROD (P66)
001598: E5,1642  E5,1541               MINFORCE           EQUALS   LAG/TAU    +2                         #  I(2) MINIMUM FORCE P66 WILL COMMAND.
001599: E5,1642  E5,1543               MAXFORCE           EQUALS   MINFORCE   +2                         #  I(2) MAXIMUM FORCE P66 WILL COMMAND.
001600: E5,1642  E5,1545               J1PARM             EQUALS   MAXFORCE   +2                         #  I(2) PARAMETER SET # 1:
001601: E5,1642  E5,1547               K1PARM             EQUALS   J1PARM     +2                         #  I(2)    ABORT ORBIT SEMI-MAJOR AXIS COMP
001602: E5,1642  E5,1551               J2PARM             EQUALS   K1PARM     +2                         #  I(2) PARAMETER SET # 2:
001603: E5,1642  E5,1553               K2PARM             EQUALS   J2PARM     +2                         #  I(2)    ABORT ORBIT SEMI-MAJOR AXIS COMP
001604: E5,1642  E5,1555               THETCRIT           EQUALS   K2PARM     +2                         #  I(2) CENTRAL ANGLE SWITCHING CRITERION.
001605: E5,1642  E5,1557               RAMIN              EQUALS   THETCRIT   +2                         #  I(2) MINIMUM ALLOWABLE APOLUNE.
001606: E5,1642  E5,1561               YLIM               EQUALS   RAMIN      +2                         #  I(2) MAXIMUM CROSS-RANGE DIST. IN ABORTS
001607:


001609: E5,1642  E5,1563               ABTRDOT            EQUALS   YLIM       +2                         #  I(2) DESIRED RADIAL VEL. FOR ABORTS.
001610: E5,1642  E5,1565               COSTHET1           EQUALS   ABTRDOT    +2                         #  I(2) COS OF CONE 1 ANGLE FOR ABORTS
001611: E5,1642  E5,1567               COSTHET2           EQUALS   COSTHET1   +2                         #  I(2) COS OF CONE 2 ANGLE FOR ABORTS.
001612:
001613:
001614:                                                                                                  #           SOME VARIABLES FOR SECOND DPS GUIDANCE       (38D)
001615:
001616: E5,1642  E5,1571               CG                 EQUALS   COSTHET2   +2                         #  I(18D) GUIDANCE
001617: E5,1642  E5,1613               RANGEDSP           EQUALS   CG         +18D                       #  B(2) DISPLAY
001618: E5,1642  E5,1613               OUTOFPLN           EQUALS   RANGEDSP                              #  *** OUTOFPLN CAN OVERLAY RANGEDSP ***
001619: E5,1642  E5,1615               VBIAS              EQUALS   OUTOFPLN   +2                         #  I(6) PIPA BIAS EQUIV VELOCITY VECTOR
001620: E5,1642  E5,1623               RGU                EQUALS   VBIAS      +6                         #  I(6) UNSHARED POSITION, GUIDANCE COORDS
001621: E5,1642  E5,1631               DLAND              EQUALS   RGU        +6                         #  B(6) PL LANDING SITE CORRECTION,SM FRAME
001622: E5,1642  E5,1631               DLANDX             EQUALS   DLAND
001623: E5,1642  E5,1633               DLANDY             EQUALS   DLAND      +2
001624: E5,1642  E5,1635               DLANDZ             EQUALS   DLAND      +4
001625:
001626:                                                                                                  #                OVERLAYS OF THE BLOCK ABOVE (ASCENT AND DESCENT)
001627:
001628: E5,1642  E5,1571               JPARM              EQUALS   CG                                    #  I(2) JPARM WILL EQUAL J1PARM OR J2PARM
001629: E5,1642  E5,1573               KPARM              EQUALS   JPARM      +2                         #  I(2) KPARM WILL EQUAL K1PARM OR K2PARM
001630: E5,1642  E5,1575               RP                 EQUALS   KPARM      +2                         #  I(2) PREDICTED BURNOUT RADIUS-M*2(-24)
001631: E5,1642  E5,1577               QAXIS              EQUALS   RP         +2                         #  I(6) ASCENT CROSSRANGE HALF-UNIT VECTOR
001632: E5,1642  E5,1605               ZAXIS1             EQUALS   QAXIS      +6                         #  I(6) ASCENT DOWNRANGE HALF-UNIT VECTOR
001633: E5,1642     0130               L*WCR*T            =        BUF
001634: E5,1642     0131               H*GHCR*T           =        BUF        +1
001635:
001636:
001637:                                                                                                  #           Q-SAVE REGISTER FOR ASCENT                    (1D)
001638:
001639: E5,1642  E5,1637               ASCSAVE            EQUALS   DLAND      +6                         #  I(1)TMP ASCENT Q-SAVE
001640:
001641:
001642:                                                                                                  #           ALIGNMENT/SYSTEST/CALCSMSC COMMON STORAGE.    (36D)
001643:
001644: E5,1642  E5,1642               XSM                EQUALS   ENDW                                  #  B(6)
001645: E5,1642  E5,1650               YSM                EQUALS   XSM        +6                         #  B(6)
001646: E5,1642  E5,1656               ZSM                EQUALS   YSM        +6                         #  B(6)
001647:
001648: E5,1642  E5,1664               XDC                EQUALS   ZSM        +6                         #  B(6)
001649: E5,1642  E5,1672               YDC                EQUALS   XDC        +6                         #  B(6)
001650: E5,1642  E5,1700               ZDC                EQUALS   YDC        +6                         #  B(6)
001651:
001652: E5,1642  E5,1664               XNB                =        XDC
001653: E5,1642  E5,1672               YNB                =        YDC
001654: E5,1642  E5,1700               ZNB                =        ZDC
001655:
001656:                                                                                                  #           MORE OVERLAYS TO ALIGNMENT/SYSTEST (THESE ARE P52)    (6D)
001657:


001659:
001660: E5,1642  E5,1706               LANDLAT            EQUALS   STARAD                                #  (2) LATITUDE, LONGITUDE
001661: E5,1642  E5,1710               LANDLONG           EQUALS   LANDLAT    +2                         #  (2)     AND ALTITUDE
001662: E5,1642  E5,1712               LANDALT            EQUALS   LANDLONG   +2                         #  (2)     OF LANDING SITE
001663:
001664:
001665:                                                                                                  #           ALIGNMENT/SYSTEST COMMON STORAGE.             (31D)
001666:
001667: E5,1642  E5,1706               STARAD             EQUALS   ZDC        +6                         #  I(18D)TMP
001668: E5,1642  E5,1730               STAR               EQUALS   STARAD     +18D                       #  I(6)
001669: E5,1642  E5,1736               GCTR               EQUALS   STAR       +6                         #  B(1)
001670: E5,1642  E5,1737               OGC                EQUALS   GCTR       +1                         #  I(2)
001671: E5,1642  E5,1741               IGC                EQUALS   OGC        +2                         #  I(2)
001672: E5,1642  E5,1743               MGC                EQUALS   IGC        +2                         #  I(2)
001673:
001674:                                                                                                  #           P57 ALIGNMENT (OVERLAY OF ALIGNMENT/SYSTEST COMMON STORAGE)   (12D)
001675:
001676: E5,1642  E5,1706               GACC               =        STARAD                                #  (6) SS
001677: E5,1642  E5,1714               GOUT               =        STARAD     +6                         #  (6) SS
001678:
001679:
001680:                                                                                                  #           OVERLAYS WITHIN ALIGNMENT/SYSTEST COMMON STORAGE      (24D)
001681:
001682: E5,1642  E5,1706               VEARTH             EQUALS   STARAD                                #  (6)TMP
001683: E5,1642  E5,1714               VSUN               EQUALS   VEARTH     +6                         #  (6)TMP
001684: E5,1642  E5,1722               VMOON              EQUALS   VSUN       +6                         #  (6)TMP
001685: E5,1642  E5,1730               SAX                EQUALS   VMOON      +6                         #  (6)TMP
001686:
001687:
001688:                                                                                                  #           P50'S,R50'S Q STORES.                         (2D)
001689:
001690: E5,1642  E5,1745               QMIN               EQUALS   MGC        +2                         #  B(1)TMP
001691: E5,1642  E5,1746               QMAJ               EQUALS   QMIN       +1                         #  B(1)TMP
001692:
001693:
001694:                                                                                                  #        **** USED IN P50S **** (SCATTERED OVERLAYS)      (18D)
001695: E5,1642  E5,1706               CULTRIX            EQUALS   VEARTH                                #  VEARTH, VSUN, VMOON
001696:
001697:
001698:                                                                                                  #           ALIGNMENT STORAGE.                            (23D)
001699:
001700: E5,1642  E5,1747               OGCT               EQUALS   QMAJ       +1                         #  I(6)
001701: E5,1642  E5,1755               BESTI              EQUALS   OGCT       +6                         #  I(1)
001702: E5,1642  E5,1756               BESTJ              EQUALS   BESTI      +1
001703: E5,1642  E5,1757               STARIND            EQUALS   BESTJ      +1
001704:                                                                                                  #  RETAIN THE ORDER OF STARSAV1 TO STARSAV2 +5 FOR DOWNLINK PURPOSES.
001705: E5,1642  E5,1760               STARSAV1           EQUALS   STARIND    +1                         #  I(6)
001706: E5,1642  E5,1766               STARSAV2           EQUALS   STARSAV1   +6                         #  I(6)
001707: E5,1642  E5,1774               TALIGN             EQUALS   STARSAV2   +6                         #  B(2) TIME OF IMU ALIGNMENT  (DOWNLINKED)
001708:


001710:                                                                                                  #           P32-35 + SERVICER                             (2D)
001711:
001712: E5,1642  E5,1776               RTX1               EQUALS   TALIGN     +2                         #  I(1) X1  -2 EARTH, -10 MOON
001713: E5,1642  E5,1777               RTX2               EQUALS   RTX1       +1                         #  I(1) X2  0 EARTH, 2 MOON
001714:
001715: E5,1642                        ZPRIME             =        22D
001716: E5,1642                        COSTH              =        16D
001717: E5,1642                        SINTH              =        18D
001718: E5,1642                        THETA              =        20D
001719:


001721:                                                                                                  #  ******* OVERLAY NUMBER 2 IN EBANK 5 *******
001722:
001723:                                                                                                  #          CONICS ROUTINE STORAGE.                       (85D)
001724:
001725: E5,1642  E5,1642               DELX               EQUALS   ENDW                                  #  I(2)TMP
001726: E5,1642  E5,1644               DELT               EQUALS   DELX       +2                         #  I(2)TMP
001727: E5,1642  E5,1646               URRECT             EQUALS   DELT       +2                         #  I(6)TMP
001728: E5,1642                        RCNORM             EQUALS   34D                                   #  I(2) TMP
001729:                                                                                                  #          NOTE: RCNORM (ABOVE) IS DEFINED IN VAC AREA
001730:
001731: E5,1642  E5,1654               R1VEC              EQUALS   URRECT     +6                         #  I(6) TMP
001732: E5,1642  E5,1662               R2VEC              EQUALS   R1VEC      +6                         #  I(6)TMP
001733: E5,1642  E5,1670               TDESIRED           EQUALS   R2VEC      +6                         #  I(2)TMP
001734: E5,1642  E5,1672               GEOMSGN            EQUALS   TDESIRED   +2                         #  I(1)TMP
001735: E5,1642  E5,1673               UN                 EQUALS   GEOMSGN    +1                         #  I(6)TMP
001736: E5,1642  E5,1701               VTARGTAG           EQUALS   UN         +6                         #  I(1)TMP
001737: E5,1642  E5,1702               VTARGET            EQUALS   VTARGTAG   +1                         #  I(6)TMP
001738: E5,1642  E5,1710               RTNLAMB            EQUALS   VTARGET    +6                         #  I(1)TMP
001739: E5,1642  E5,1711               U2                 EQUALS   RTNLAMB    +1                         #  I(6)TMP
001740: E5,1642  E5,1717               MAGVEC2            EQUALS   U2         +6                         #  I(2)TMP
001741: E5,1642  E5,1721               UR1                EQUALS   MAGVEC2    +2                         #  I(6)TMP
001742: E5,1642  E5,1727               SNTH               EQUALS   UR1        +6                         #  I(2)TMP
001743: E5,1642  E5,1731               CSTH               EQUALS   SNTH       +2                         #  I(2)TMP
001744: E5,1642  E5,1733               1-CSTH             EQUALS   CSTH       +2                         #  I(2)TMP
001745: E5,1642  E5,1735               CSTH-RHO           EQUALS   1-CSTH     +2                         #  I(2)TMP
001746: E5,1642  E5,1737               P                  EQUALS   CSTH-RHO   +2                         #  I(2)TMP
001747: E5,1642  E5,1741               R1A                EQUALS   P          +2                         #  I(2)TMP
001748: E5,1642  E5,1654               RVEC               EQUALS   R1VEC                                 #  I(6)TMP
001749: E5,1642  E5,1743               VVEC               EQUALS   R1A        +2                         #  I(6)TMP
001750: E5,1642  E5,1710               RTNTT              EQUALS   RTNLAMB                               #  I(1)TMP
001751: E5,1642  E5,1751               ECC                EQUALS   VVEC       +6                         #  I(2)TMP
001752: E5,1642  E5,1710               RTNTR              EQUALS   RTNLAMB                               #  I(1)TMP
001753: E5,1642  E5,1710               RTNAPSE            EQUALS   RTNLAMB                               #  I(1)TMP
001754: E5,1642  E5,1717               R2                 EQUALS   MAGVEC2                               #  I(2)TMP
001755: E5,1642  E5,1753               RTNPRM             EQUALS   ECC        +2                         #  I(1)TMP
001756: E5,1642  E5,1754               SGNRDOT            EQUALS   RTNPRM     +1                         #  I(1)TMP
001757: E5,1642  E5,1755               RDESIRED           EQUALS   SGNRDOT    +1                         #  I(2)TMP
001758: E5,1642  E5,1757               DELDEP             EQUALS   RDESIRED   +2                         #  I(2)TMP
001759: E5,1642  E5,1761               DEPREV             EQUALS   DELDEP     +2                         #  I(2)TMP
001760: E5,1642  E5,1757               TERRLAMB           EQUALS   DELDEP                                #  I(2)TMP
001761: E5,1642  E5,1761               TPREV              EQUALS   DEPREV                                #  I(2)TMP
001762: E5,1642  E5,1763               EPSILONL           EQUALS   DEPREV     +2                         #  I(2)TMP
001763: E5,1642  E5,1765               COGA               EQUALS   EPSILONL   +2                         #  I(2)  COTAN OF INITIAL FLIGHT PATH ANGLE.
001764: E5,1642  E5,1765               INDEP              EQUALS   COGA                                  #        USED BY SUBROUTINE'ITERATOR'.
001765:


001767:                                                                                                  #  ******* OVERLAY NUMBER 3 IN EBANK 5 *******
001768:
001769:
001770:                                                                                                  #          INCORP STORAGE.                               (18D)
001771:
001772: E5,1642  E5,1642               ZI                 EQUALS   ENDW                                  #  I(18)TMP
001773:
001774:                                                                                                  #          INCORP/L SR22.3 STORAGE.                      (21D)
001775:
001776: E5,1642  E5,1664               DELTAX             EQUALS   ZI         +18D                       #  I(18)
001777: E5,1642  E5,1706               VARIANCE           EQUALS   DELTAX     +18D                       #  I(3)
001778:
001779:                                                                                                  #          MEASUREMENT INCORPORATION -R22- STORAGE.      (49D)
001780:
001781: E5,1642  E5,1711               GRP2SVQ            EQUALS   VARIANCE   +3                         #  I(1)TMP QSAVE FOR RESTARTS
001782: E5,1642  E5,1712               OMEGAM1            EQUALS   GRP2SVQ    +1                         #  I(6)
001783: E5,1642  E5,1720               OMEGAM2            EQUALS   OMEGAM1    +6                         #  I(6)
001784: E5,1642  E5,1726               OMEGAM3            EQUALS   OMEGAM2    +6                         #  I(6)
001785: E5,1642  E5,1734               HOLDW              EQUALS   OMEGAM3    +6                         #  I(18)
001786:
001787: E5,1642  E5,1664               TRIPA              EQUALS   DELTAX                                #  I(3)TMP
001788: E5,1642  E5,1667               TEMPVAR            EQUALS   TRIPA      +3                         #  I(3)TMP
001789:
001790:
001791:
001792:                                                                                                  #  INCORPORATION/INTEGRATION Q STORAGE.          (1D)
001793:
001794: E5,1642  E5,1767               EGRESS             EQUALS   COGA       +2                         #  I(1)
001795:


001797:                                                                                                  #          SYSTEM TEST ERASABLES.  CAN OVERLAY W MATRIX. (127D)
001798:
001799:                                                                                                  #  ******* OVERLAY NUMBER 0 IN EBANK 5 *******
001800:
001801: E5,1642  E5,1400               AZIMUTH            EQUALS   W                                     #  2
001802: E5,1642  E5,1402               LATITUDE           EQUALS   AZIMUTH    +2                         #  2
001803: E5,1642  E5,1404               ERVECTOR           EQUALS   LATITUDE   +2                         #  6
001804: E5,1642  E5,1412               LENGTHOT           EQUALS   ERVECTOR   +6                         #  1
001805: E5,1642  E5,1413               LOSVEC             EQUALS   LENGTHOT   +1                         #  6
001806: E5,1642  E5,1414               NDXCTR             EQUALS   LOSVEC     +1                         #  1
001807: E5,1642  E5,1415               PIPINDEX           EQUALS   NDXCTR     +1                         #  1
001808: E5,1642  E5,1416               POSITON            EQUALS   PIPINDEX   +1                         #  1
001809: E5,1642  E5,1417               QPLACE             EQUALS   POSITON    +1                         #  1
001810: E5,1642  E5,1420               QPLACES            EQUALS   QPLACE     +1                         #  1
001811: E5,1642  E5,1421               SOUTHDR            EQUALS   QPLACES    +1                         #  7
001812: E5,1642  E5,1430               TEMPTIME           EQUALS   SOUTHDR    +7                         #  2
001813: E5,1642  E5,1432               TMARK              EQUALS   TEMPTIME   +2                         #  2
001814: E5,1642  E5,1434               GENPL              EQUALS   TMARK      +2
001815: E5,1642  E5,1440               TEMPADD            =        GENPL      +4
001816: E5,1642  E5,1441               TEMP               =        GENPL      +5
001817: E5,1642  E5,1442               NOBITS             =        GENPL      +6
001818: E5,1642  E5,1443               CHAN               =        GENPL      +7
001819:
001820: E5,1642  E5,1444               LOS1               =        GENPL      +8D
001821: E5,1642  E5,1452               LOS2               =        GENPL      +14D
001822:
001823: E5,1642  E5,1472               DATAPL             EQUALS   GENPL      +30D
001824: E5,1642  E5,1537               RESULTCT           EQUALS   GENPL      +67D
001825: E5,1642  E5,1434               AINLA              =        GENPL                                 #  110 DE  OR 156 OCT LOCATIONS
001826:
001827: E5,1642  E5,1434               WANGO              EQUALS   AINLA                                 #  VERT E ATE
001828: E5,1642  E5,1436               WANGI              EQUALS   AINLA      +2D                        #  HORIZO TAL ERATE
001829: E5,1642  E5,1440               WANGT              EQUALS   AINLA      +4D                        #  T
001830: E5,1642  E5,1440               TORQNDX            =        WANGT
001831: E5,1642  E5,1442               DRIFTT             EQUALS   AINLA      +6D
001832: E5,1642  E5,1444               ALX1S              EQUALS   AINLA      +8D
001833: E5,1642  E5,1445               CMPX1              EQUALS   AINLA      +9D                        #  IND
001834: E5,1642  E5,1446               ALK                EQUALS   AINLA      +10D                       #  GAINS
001835: E5,1642  E5,1462               VLAUNS             EQUALS   AINLA      +22D
001836: E5,1642  E5,1464               WPLATO             EQUALS   AINLA      +24D
001837: E5,1642  E5,1470               INTY               EQUALS   AINLA      +28D                       #  SOUTH  IP INTE
001838: E5,1642  E5,1472               ANGZ               EQUALS   AINLA      +30D                       #  EAST A IS
001839: E5,1642  E5,1474               INTZ               EQUALS   AINLA      +32D                       #  EAST P P I
001840: E5,1642  E5,1476               ANGY               EQUALS   AINLA      +34D                       #  SOUTH
001841: E5,1642  E5,1500               ANGX               EQUALS   AINLA      +36D                       #  VE
001842: E5,1642  E5,1502               DRIFTO             EQUALS   AINLA      +38D                       #  VERT
001843: E5,1642  E5,1504               DRIFTI             EQUALS   AINLA      +40D                       #  SOU
001844: E5,1642  E5,1510               VLAUN              EQUALS   AINLA      +44D
001845: E5,1642  E5,1512               ACCWD              EQUALS   AINLA      +46D
001846:


001848: E5,1642  E5,1520               POSNV              EQUALS   AINLA      +52D
001849: E5,1642  E5,1522               DPIPAY             EQUALS   AINLA      +54D                       #  SOUTH
001850: E5,1642  E5,1526               DPIPAZ             EQUALS   AINLA      +58D                       #  NORTH  IP INCREMENT
001851: E5,1642  E5,1530               ALTIM              EQUALS   AINLA      +60D
001852: E5,1642  E5,1531               ALTIMS             EQUALS   AINLA      +61D                       #   INDEX
001853: E5,1642  E5,1532               ALDK               EQUALS   AINLA      +62D                       #   TIME  ONSTAN
001854: E5,1642  E5,1550               DELM               EQUALS   AINLA      +76D
001855: E5,1642  E5,1560               WPLATI             EQUALS   AINLA      +84D
001856: E5,1642  E5,1562               GEOCOMPS           EQUALS   AINLA      +86D
001857: E5,1642  E5,1563               ERCOMP             EQUALS   AINLA      +87D
001858: E5,1642  E5,1571               ZERONDX            EQUALS   AINLA      +93D
001859:
001860: E5,1642  E5,1452               THETAN             =        ALK        +4
001861: E5,1642  E5,1460               FILDELV            EQUALS   THETAN     +6                         #   AGS ALIGNMENT STORAGE
001862: E5,1642  E5,1462               INTVEC             EQUALS   FILDELV    +2
001863: E5,1642  E5,1572               1SECXT             =        AINLA      +94D
001864: E5,1642  E5,1573               ASECXT             =        AINLA      +95D
001865: E5,1642  E5,1574               PERFDLAY           EQUALS   AINLA      +96D                       #  B(2) DELAY TIME BEF. START DRIFT MEASURE
001866: E5,1642  E5,1576               OVFLOWCK           EQUALS   AINLA      +98D                       #  (1) SET MEANS OVERFLOW IN IMU PERF TEST
001867:                                                                                                  #      AND CAUSES TERMINATION
001868:
001869:
001870: E5,1642                        END-E5             EQUALS   2777                                  #  END OF EBANK 5
001871:


001873:                                                                                                  #           EBANK-6 ASSIGNMENTS.
001874:
001875: E6,1400                                           SETLOC   3000
001876:
001877:                                                                                                  #           DAP PAD-LOADED DATA.                          (10D)
001878:
001879:                                                                                                  #    ALL OF THE FOLLOWING EXCEPT PITTIME AND ROLLTIME ARE INITIALIZED IN FRESH START TO PERMIT IMMEDIATE USE OF DAP
001880:
001881: E6,1400                        HIASCENT           ERASE                                          #  (1) MASS AFTER STAGING, SCALE AT B16 KG.
001882: E6,1401                        ROLLTIME           ERASE                                          #  (1) TIME TO TRIM Z GIMBAL IN R03, CSEC.
001883: E6,1402                        PITTIME            ERASE                                          #  (1) TIME TO TRIM Y GIMBAL IN R03, CSEC.
001884: E6,1403                        DKTRAP             ERASE                                          #  (1) DAP STATE            (POSSIBLE 77001
001885: E6,1404                        DKOMEGAN           ERASE                                          #  (1)   ESTIMATOR PARA-      (VALUES 00012
001886: E6,1405                        DKKAOSN            ERASE                                          #  (1)      METERS FOR THE           00074
001887: E6,1406                        LMTRAP             ERASE                                          #  (1)         DOCKED AND            77001
001888: E6,1407                        LMOMEGAN           ERASE                                          #  (1)            LEM-ALONE CASES    00000
001889: E6,1410                        LMKAOSN            ERASE                                          #  (1)               RESPECTIVELY    00074
001890: E6,1411                        DKDB               ERASE                                          #  (1) WIDTH OF DEADBAND FOR DOCKED RCS
001891:                                                                                                  #      AUTOPILOT (DB=1.4DEG IN FRESH START)
001892:                                                                                                  #      DEADBAND = PI/DKDB RAD.
001893:
001894:                                                                                                  #   PADLOADS FOR INITIALIZATION OF DAP BIAS ACCELERATION (AT P12 IGNITION)   (2D)
001895:
001896: E6,1412                        IGNAOSQ            ERASE                                          #  B(1)PL
001897: E6,1413                        IGNAOSR            ERASE                                          #  B(1)PL
001898:
001899:
001900:                                                                                                  #   AXIS TRANSFORMATION MATRIX - GIMBAL TO PILOT AXES:    (5D)
001901:
001902: E6,1414                        M11                ERASE                                          #  SCALED AT 1
001903: E6,1415                        M21                ERASE                                          #  SCALED AT 1
001904: E6,1416                        M31                ERASE
001905: E6,1417                        M22                ERASE                                          #  SCALED AT 1.
001906: E6,1420                        M32                ERASE                                          #  SCALED AT 1.
001907:
001908:                                                                                                  #   ANGLE MEASUREMENTS.                                    (31D)
001909:
001910: E6,1421                        OMEGAP             ERASE    +4                                    #  BODY-AXIS ROT. RATES SCALED AT PI/4 AND
001911: E6,1426  E6,1422               OMEGAQ             EQUALS   OMEGAP     +1                         #  BODY-AXIS ACCELERATIONS SCALED AT PI/8
001912: E6,1426  E6,1423               OMEGAR             EQUALS   OMEGAP     +2
001913:                                                                                                  #      RETAIN THE ORDER OF ALPHAQ AND ALPHAR FOR DOWNLINK PURPOSES.
001914: E6,1426  E6,1424               ALPHAQ             EQUALS   OMEGAP     +3
001915: E6,1426  E6,1425               ALPHAR             EQUALS   OMEGAP     +4
001916: E6,1426                        OMEGAU             ERASE    +1
001917: E6,1430  E6,1427               OMEGAV             =        OMEGAU     +1
001918:
001919: E6,1430                        TRAPEDP            ERASE    +5
001920: E6,1436  E6,1431               TRAPEDQ            =        TRAPEDP    +1
001921: E6,1436  E6,1432               TRAPEDR            =        TRAPEDP    +2
001922: E6,1436  E6,1433               NPTRAPS            =        TRAPEDP    +3
001923:


001925: E6,1436  E6,1434               NQTRAPS            =        TRAPEDP    +4
001926: E6,1436  E6,1435               NRTRAPS            =        TRAPEDP    +5
001927: E6,1436  E6,1427               EDOTP              =        EDOT
001928: E6,1436                        EDOTQ              ERASE    +1
001929: E6,1440  E6,1437               EDOTR              =        EDOTQ      +1                         #   MANY SHARING NAMES
001930: E6,1440  E6,1436               QRATEDIF           EQUALS   EDOTQ                                 #  ALTERNATIVE NAMES:
001931: E6,1440  E6,1437               RRATEDIF           EQUALS   EDOTR                                 #  DELETE WHEN NO. OF REFERENCES = 0
001932:
001933: E6,1440  E6,1426               URATEDIF           EQUALS   OMEGAU
001934: E6,1440  E6,1427               VRATEDIF           EQUALS   OMEGAV
001935: E6,1440                        OLDXFORP           ERASE    +2                                    #  STORED CDU READINGS FOR STATE
001936: E6,1443  E6,1441               OLDYFORP           EQUALS   OLDXFORP   +1                         #  DERIVATIONS: SCALED AT PI RADIANS (2'S)
001937: E6,1443  E6,1442               OLDZFORQ           EQUALS   OLDXFORP   +2
001938:                                                                                                  #  RATE-COMMAND AND MINIMUM IMPULSE MODES
001939:
001940: E6,1443                        CH31TEMP           ERASE
001941: E6,1444                        STIKSENS           ERASE
001942: E6,1445                        TCP                ERASE
001943: E6,1446                        DXERROR            ERASE    +5
001944: E6,1454  E6,1450               DYERROR            EQUALS   DXERROR    +2
001945: E6,1454  E6,1452               DZERROR            EQUALS   DXERROR    +4
001946: E6,1454                        PLAST              ERASE
001947: E6,1455                        QLAST              ERASE
001948: E6,1456                        RLAST              ERASE
001949: E6,1457                        TCQR               ERASE
001950:
001951:                                                                                                  #  OTHER VARIABLES.                              (5D)
001952:
001953: E6,1460                        OLDPMIN            ERASE                                          #  THESE THREE USED IN MIN IMPULSE MODE.
001954: E6,1461                        OLDQRMIN           ERASE
001955: E6,1462  E6,1736               TEMP31             EQUALS   DAPTEMP1
001956:
001957: E6,1462                        SAVEHAND           ERASE    +1
001958: E6,1464                        PERROR             ERASE
001959: E6,1465  E6,1450               QERROR             EQUALS   DYERROR
001960: E6,1465  E6,1452               RERROR             EQUALS   DZERROR
001961:
001962:                                                                                                  #  JET STATE CHANGE VARIABLES- TIME (TOFJTCHG),JET BITS WRITTEN NOW   (10D)
001963:                                                                                                  #    (JTSONNOW), AND JET BITS WRITTEN AT T6 RUPT (JTSATCHG).
001964:
001965: E6,1465                        NXT6ADR            ERASE
001966: E6,1466                        T6NEXT             ERASE    +1
001967: E6,1470                        T6FURTHA           ERASE    +1
001968: E6,1472                        NEXTP              ERASE    +2
001969: E6,1475  E6,1473               NEXTU              =        NEXTP      +1
001970: E6,1475  E6,1474               NEXTV              =        NEXTP      +2
001971: E6,1475                        -2JETLIM           ERASE    +1                                    #  RATE COMMAND 4-JET RATE DIFFERENCE LIMIT
001972: E6,1477  E6,1476               -RATEDB            EQUALS   -2JETLIM   +1                         #  AND RATE DEADBAND FOR ASCENT OR DESCENT
001973:
001974: E6,1477  E6,1476               TARGETDB           EQUALS   -RATEDB                               #  MAN. CONTROL TARGET DB COMPLEMENT.
001975:
001976:                                                                                                  #        *** Q,R AXIS ERASABLES ***                        (3)
001977:


001979: E6,1477     4733               PBIT               EQUALS   BIT10
001980: E6,1477     4732               QRBIT              EQUALS   BIT11
001981: E6,1477  E6,1750               UERROR             EQUALS   DAPTREG5                              #  U,V-AXES ATT ERROR FOR RCS CONTROL LAWS
001982: E6,1477  E6,1751               VERROR             =        UERROR     +1
001983: E6,1477                        RETJADR            ERASE
001984: E6,1500  E6,1741               TEMPNUM            EQUALS   DAPTEMP4
001985: E6,1500  E6,1742               NUMBERT            EQUALS   DAPTEMP5
001986: E6,1500  E6,1743               ROTINDEX           EQUALS   DAPTEMP6
001987: E6,1500  E6,1736               ROTEMP1            EQUALS   DAPTEMP1
001988: E6,1500  E6,1737               ROTEMP2            EQUALS   DAPTEMP2
001989: E6,1500  E6,1740               POLYTEMP           EQUALS   DAPTEMP3
001990: E6,1500                        SENSETYP           ERASE
001991: E6,1501  E6,1736               ABSTJ              EQUALS   DAPTEMP1                              #  ABS VALUE OF JET-FIRING TIME
001992: E6,1501  E6,1736               ABSEDOTP           EQUALS   DAPTEMP1
001993:


001995:                                                                                                  #  TRIM GIMBAL CONTROL LAW ERASABLES:                     (11D)
001996:
001997: E6,1501  E6,1736               GTSTEMPS           EQUALS   DAPTEMP1                              #  GTS IS PART OF THE JASK.
001998: E6,1501  E6,1740               SHFTFLAG           EQUALS   GTSTEMPS   +2                         #  COUNT BITS FOR GTSQRT SHIFTING.
001999: E6,1501  E6,1743               ININDEX            EQUALS   GTSTEMPS   +5                         #  INDEX FOR SHIFT LOOP IN GTSQRT.
002000:
002001: E6,1501  E6,1505               SAVESR             EQUALS   AXISCTR                               #  CANNOT BE A DAPTEMP - GTS USES THEM ALL.
002002:
002003: E6,1501  E6,1745               SCRATCH            EQUALS   GTSTEMPS   +7                         #  ROOTCYCL ERASABLE
002004: E6,1501  E6,1746               HALFARG            EQUALS   GTSTEMPS   +8D                        #  ROOTCYCL ERASABLE.
002005:
002006: E6,1501  E6,1736               K2THETA            EQUALS   GTSTEMPS                              #  D.P., K*ERROR,  NEGUSUM
002007: E6,1501  E6,1740               KCENTRAL           EQUALS   GTSTEMPS   +2                         #  S.P., K FROM KQ OR KRDAP, AT PI/2(8)
002008: E6,1501  E6,1741               K2CNTRAL           EQUALS   GTSTEMPS   +3                         #  D.P., GTS SCRATCH CELLS.
002009: E6,1501  E6,1742               WCENTRAL           EQUALS   GTSTEMPS   +4                         #  S.P., OMEGA, AT PI/4 RAD/SEC
002010: E6,1501  E6,1743               ACENTRAL           EQUALS   GTSTEMPS   +5                         #  S.P., ALPHA, AT PI/4 RAD/SEC(2)
002011: E6,1501  E6,1744               DEL                EQUALS   GTSTEMPS   +6                         #  S.P., SGN FUNCTION VALUE.
002012: E6,1501  E6,1745               A2CNTRAL           EQUALS   GTSTEMPS   +7                         #  D.P., GTS SCRATCH CELLS.
002013: E6,1501  E6,1747               QRCNTR             EQUALS   GTSTEMPS   +9D                        #  S.P.,INDEX FOR GTS LOOP THROUGH Q,R AXES
002014: E6,1501  E6,1750               FUNCTION           EQUALS   GTSTEMPS   +10D                       #  D.P.,ARGUMENT FOR GRSQRT,SCRATCH FOR GTS
002015:
002016: E6,1501                        NEGUQ              ERASE    +2                                    #  NEGATIVE OF Q-AXIS GIMBAL DRIVE
002017:                                                                                                  #                                NEGUQ           +1          DEFINED AND USED ELSEWHERE
002018: E6,1504  E6,1503               NEGUR              EQUALS   NEGUQ      +2                         #  NEGATIVE OF R-AXIS GIMBAL DRIVE
002019:
002020: E6,1504                        KQ                 ERASE    +2                                    #  S.P.,JERK TERM FOR GTS, AT PI/2(8)
002021: E6,1507  E6,1505               AXISCTR            EQUALS   KQ         +1
002022: E6,1507  E6,1506               KRDAP              EQUALS   KQ         +2                         #  .3 ACCDOTR SCALED AT PI/2(8)
002023:
002024: E6,1507                        ACCDOTQ            ERASE    +3                                    #  Q-JERK SCALED AT PI/2(7) UNSIGNED
002025: E6,1513  E6,1510               QACCDOT            EQUALS   ACCDOTQ    +1                         #  Q-JERK SCALED AT PI/2(7) SIGNED
002026: E6,1513  E6,1511               ACCDOTR            EQUALS   ACCDOTQ    +2                         #  R-JERK SCALED AT PI/2(7) UNSIGNED
002027: E6,1513  E6,1512               RACCDOT            EQUALS   ACCDOTQ    +3                         #  R-JERK SCALED AT PI/2(7) SIGNED
002028:
002029: E6,1513  E6,1450               QDIFF              EQUALS   QERROR                                #  ATTITUDE ERRORS:
002030: E6,1513  E6,1452               RDIFF              EQUALS   RERROR                                #  SCALED AT PI RADIANS
002031:
002032:
002033:
002034:
002035:                                                                                                  #  TORQUE VECTOR RECONSTRUCTION VARIABLES:       (17D)
002036:
002037: E6,1513  E6,1744               JETRATE            EQUALS   DAPTREG1
002038: E6,1513  E6,1745               JETRATEQ           EQUALS   JETRATE    +1                         #  THE LAST CONTROL SAMPLE PERIOD OF 100 MS
002039: E6,1513  E6,1746               JETRATER           EQUALS   JETRATE    +2                         #  SCALED AT PI/4 RADIANS/SECOND
002040:
002041: E6,1513                        DOWNTORK           ERASE    +5                                    #  ACCUMULATED JET TORQUE COMMANDED ABOUT
002042: E6,1521  E6,1513               POSTORKP           EQUALS   DOWNTORK                              #    +,-P, +,-U, +,-V RESPECTIVELY.
002043: E6,1521  E6,1514               NEGTORKP           EQUALS   DOWNTORK   +1
002044: E6,1521  E6,1515               POSTORKU           EQUALS   DOWNTORK   +2                         #    NOT INITIALIZED; PERMITTED TO OVERFLOW
002045:


002047: E6,1521  E6,1516               NEGTORKU           EQUALS   DOWNTORK   +3                         #  SCALED AT 32 JET-SEC, OR ABOUT 2.0 JET-
002048: E6,1521  E6,1517               POSTORKV           EQUALS   DOWNTORK   +4                         #      MSEC PER BIT.
002049: E6,1521  E6,1520               NEGTORKV           EQUALS   DOWNTORK   +5
002050:
002051: E6,1521                        NO.PJETS           ERASE    +2
002052: E6,1524  E6,1522               NO.UJETS           =        NO.PJETS   +1
002053: E6,1524  E6,1523               NO.VJETS           =        NO.UJETS   +1
002054: E6,1524                        TJP                ERASE    +2
002055: E6,1527  E6,1525               TJU                =        TJP        +1
002056: E6,1527  E6,1526               TJV                =        TJP        +2
002057:
002058: E6,1527                        L,PVT-CG           ERASE
002059: E6,1530                        1JACC              ERASE    +3
002060: E6,1534  E6,1531               1JACCQ             EQUALS   1JACC      +1                         #  SCALED AT PI/4 RADIANS/SECOND
002061: E6,1534  E6,1532               1JACCR             EQUALS   1JACC      +2
002062: E6,1534  E6,1533               1JACCU             EQUALS   1JACC      +3                         #  FOR U,V-AXES THE SCALE FACTOR IS  DIFF:
002063:                                                                                                  #  SCALED AT PI/2 RADIANS/SECOND (FOR ASC)
002064:                                                                                                  #  ASCENT VARIABLES:                                       (10D)
002065:
002066:
002067: E6,1534                        SKIPU              ERASE    +1
002068: E6,1536  E6,1535               SKIPV              =        SKIPU      +1
002069:                                                                                                  #  THE FOLLOWING LM DAP ERASABLES ARE ZEROED IN THE STARTDAP SECTION OF THE DAPIDLER PROGRAM AND THE COASTASC
002070:                                                                                                  #  SECTION OF THE AOSTASK.  THE ORDER MUST BE PRESERVED FOR THE INDEXING METHODS WHICH ARE EMPLOYED IN THOSE
002071:                                                                                                  #  SECTIONS AND ELSEWHERE.
002072:
002073: E6,1536                        AOSQ               ERASE    +5                                    #  OFFSET ACC. ESTIMATES, UPDATED IN D.P.,
002074: E6,1544  E6,1540               AOSR               EQUALS   AOSQ       +2                         #  AND SCALED AT PI/2.
002075: E6,1544  E6,1542               AOSU               EQUALS   AOSQ       +4                         #  UV-AXES OFFSET ACC. FROMED BY VECTOR
002076: E6,1544  E6,1543               AOSV               EQUALS   AOSQ       +5                         #  ADDITION OF Q,R.  AT PI/2 RAD/SEC(2).
002077:
002078: E6,1544                        AOSQTERM           ERASE    +1                                    #  (.1-.05K)AOS
002079: E6,1546  E6,1545               AOSRTERM           EQUALS   AOSQTERM   +1                         #  SCALED AT PI/4 RADIANS/SECOND.
002080:
002081:                                                                                                  #  FOR TJET LAW SUBROUTINE:                              (TEMPS ONLY)
002082:
002083:                                                                                                  # NUMBERT        EQUALS          DAPTEMP5                DEFINED IN QRAXIS.
002084: E6,1546  E6,1736               EDOTSQ             EQUALS   DAPTEMP1
002085: E6,1546  E6,1737               ROTSENSE           EQUALS   DAPTEMP2
002086: E6,1546  E6,1740               FIREFCT            EQUALS   DAPTEMP3                              #  LOOKED AT BY PAXIS.
002087: E6,1546  E6,1741               TTOAXIS            EQUALS   DAPTEMP4
002088: E6,1546  E6,1743               ADRSDIF2           EQUALS   DAPTEMP6
002089: E6,1546  E6,1744               HOLDQ              EQUALS   DAPTREG1
002090: E6,1546  E6,1745               ADRSDIF1           EQUALS   DAPTREG2
002091: E6,1546  E6,1746               HH                 EQUALS   DAPTREG3                              #  DOUBLE PRECISION
002092:                                                                                                  #  HH +1         EQUALS          DAPTREG4
002093: E6,1546  E6,1751               E                  EQUALS   DAPTREG6                              #  TIME SHARE WITH VERROR
002094: E6,1546  E6,1427               EDOT               EQUALS   OMEGAV
002095:
002096:                                                                                                  #  INPUT TO TJET LAW (PERMANENT ERASABLES).              (48D)
002097:


002099: E6,1546  E6,1525               TJETU              =        TJU                                   #  EQUATE NAMES.  INDEXED BY -1, 0, +1.
002100: E6,1546                        BLOCKTOP           ERASE    +47D
002101:                                                                                                  #                * SEE AOSTASK AND AOSJOB LOG SECTION FOR ERASABLE DEFINITIONS
002102:                                                                                                  #                                         IN THIS AREA.
002103:
002104: E6,1626  E6,1566               1/ANET1            =        BLOCKTOP   +16D                       #  THESE 8 PARAMETERS ARE SET UP BY 1/ACCS
002105: E6,1626  E6,1567               1/ANET2            =        1/ANET1    +1                         #  FOR MINIMUM JETS ABOUT THE U-AXIS WHEN
002106: E6,1626  E6,1572               1/ACOAST           =        1/ANET1    +4                         #  EDOT IS POSITIVE.  TJETLAW INDEXES BY
002107: E6,1626  E6,1574               ACCFCTZ1           =        1/ANET1    +6                         #  ADRSDIFF FROM THESE REGISTERS TO PICK UP
002108: E6,1626  E6,1575               ACCFCTZ5           =        1/ANET1    +7                         #  PARAMETERS FOR THE PROPER AXIS, NUMBER
002109: E6,1626  E6,1600               FIREDB             =        1/ANET1    +10D                       #  OF JETS AND SIGN OF EDOT.  THERE ARE 48
002110: E6,1626  E6,1602               COASTDB            =        1/ANET1    +12D                       #  REGISTERS IN ALL IN THIS BLOCK.
002111: E6,1626  E6,1604               AXISDIST           =        1/ANET1    +14D                       #  FOUR NOT REFERENCED (P-AXIS) ARE FILLED
002112:                                                                                                  #    IN BY THE FOLLOWING:
002113: E6,1626  E6,1546               ACCSWU             =        BLOCKTOP                              #  SET BY 1/ACCS TO SHOW WHETHER MAXIMUM
002114: E6,1626  E6,1547               ACCSWV             =        ACCSWU     +1                         #  JETS ARE REQUIRED BECAUSE OF AOS.
002115: E6,1626  E6,1554               FLAT               =        BLOCKTOP   +6                         #  WIDTH OF MINIMUM IMPULSE ZONE.
002116: E6,1626  E6,1555               ZONE3LIM           =        BLOCKTOP   +7                         #  HEIGHT OF MINIMUM IMPULSE ZONE (AT 4 SEC)
002117:
002118: E6,1626                        COEFFQ             ERASE    +1                                    #  COEFFQ AND COEFFR ARE USED IN ROT-TOUV
002119: E6,1630  E6,1627               COEFFR             EQUALS   COEFFQ     +1                         #  TO RESOLVE Q,R COMPONENTS INTO U,V COMP.
002120:
002121:                                                                                                  #  VARIABLES FOR GTS-QRAXIS CONTROL EXCHANGE.              (4)
002122:
002123: E6,1630  E6,1502               ALLOWGTS           EQUALS   NEGUQ      +1                         #  INSERT INTO UNUSED LOCATION
002124: E6,1630                        COTROLER           ERASE                                          #  INDICATES WHICH CONTROL SYSTEM TO USE.
002125: E6,1631                        QGIMTIMR           ERASE    +2                                    #  Q-GIMBAL DRIVE ITMER, DECISECONDS.
002126: E6,1634  E6,1632               INGTS              EQUALS   QGIMTIMR   +1                         #  INDICATOR OF CURRENT GTS CONTROL.
002127: E6,1634  E6,1633               RGIMTIMR           EQUALS   QGIMTIMR   +2                         #  R-GIMBAL DRIVE TIMER, DECISECONDS.
002128:
002129:                                                                                                  #  PLEASE RETAIN THE ORDER OF CDUXD THRU CDUZD FOR DOWNLINK PURPOSES.
002130:
002131:                                                                                                  #           KALCMANU:DAP INTERFACE.                        (9D)
002132:
002133: E6,1634                        CDUXD              ERASE    +2                                    #  CDU DESIRED REGISTERS:
002134: E6,1637  E6,1635               CDUYD              EQUALS   CDUXD      +1                         #  SCALED AT PI RADIANS (180 DEGREES)
002135: E6,1637  E6,1636               CDUZD              EQUALS   CDUXD      +2                         #  (STORE IN 2S COMPLEMENT)
002136:
002137: E6,1637                        DELCDUX            ERASE    +2                                    #  NEGATIVE OF DESIRED 100MS CDU INCREMENT:
002138: E6,1642  E6,1640               DELCDUY            EQUALS   DELCDUX    +1                         #  SCALED AT PI RADIANS (180 DEGREES)
002139: E6,1642  E6,1641               DELCDUZ            EQUALS   DELCDUX    +2                         #  (STORE IN 2S COMPLEMENT)
002140:
002141:                                                                                                  #     RETAIN THE ORDER OF OMEGAPD TO OMEGARD FOR DOWNLINK PURPOSES.
002142:
002143: E6,1642                        OMEGAPD            ERASE    +2                                    #  ATTITUDE MANEUVER DESIRED RATES:
002144: E6,1645  E6,1643               OMEGAQD            EQUALS   OMEGAPD    +1                         #  (NOT EXPLICITLY REFERENCED IN GTS CNTRL)
002145: E6,1645  E6,1644               OMEGARD            EQUALS   OMEGAPD    +2                         #  SCALED AT PI/4 RADIANS/SECOND
002146:
002147:                                                                                                  #  KALCMANU STORAGE.                             (24D)
002148:


002150: E6,1645                        MIS                ERASE    +23D                                  #  I(18D)
002151: E6,1675  E6,1667               COF                EQUALS   MIS        +18D                       #  I(6)
002152:
002153:
002154:                                                                                                  #  KALCMANU STORAGE.                                     (33D)
002155:
002156: E6,1675                        BCDU               ERASE    +30D                                  #  B(3)
002157: E6,1734  E6,1700               KSPNDX             EQUALS   BCDU       +3                         #  B(1)
002158: E6,1734  E6,1701               KDPNDX             EQUALS   KSPNDX     +1                         #  B(1)
002159:
002160: E6,1734  E6,1702               TMIS               EQUALS   KDPNDX     +1                         #  I(18) MUST BE IN SAME BANK AS RCS DAP
002161: E6,1734  E6,1724               COFSKEW            EQUALS   TMIS       +18D                       #  I(6)  MUST BE IN SAME BANK AS RCS DAP
002162: E6,1734  E6,1732               CAM                EQUALS   COFSKEW    +6                         #  I(2)  MUST BE IN SAME BANK AS RCS DAP
002163:
002164: E6,1734                        AM                 ERASE    +1                                    #  I(2) THIS WAS ONCE IN E5 OVERLAYING OGC
002165:
002166:                                                                                                  #  FIRST-ORDER OVERLAYS IN KALCMANU                      (25D)
002167:
002168: E6,1736  E6,1702               MFISYM             EQUALS   TMIS                                  #  I
002169: E6,1736  E6,1702               TMFI               EQUALS   TMIS                                  #  I
002170: E6,1736  E6,1702               NCDU               EQUALS   TMIS                                  #  B
002171: E6,1736  E6,1705               NEXTIME            EQUALS   TMIS       +3                         #  B
002172: E6,1736  E6,1706               TTEMP              EQUALS   TMIS       +4                         #  B
002173: E6,1736  E6,1724               BRATE              EQUALS   COFSKEW                               #  B
002174: E6,1736  E6,1732               TM                 EQUALS   CAM                                   #  B
002175:
002176:                                                                                                  #  SECOND-ORDER OVERLAYS IN KALCMANU             (?)
002177:
002178: E6,1736  E6,1724               VECQTEMP           =        COFSKEW
002179:
002180: E6,1736  E6,1634               DCDU               =        CDUXD
002181: E6,1736  E6,1637               DELDCDU            =        DELCDUX
002182: E6,1736  E6,1640               DELDCDU1           =        DELCDUY
002183: E6,1736  E6,1641               DELDCDU2           =        DELCDUZ
002184:
002185:
002186:                                                                                                  #  *  *  *  *  *  *  *  *  *  *  *  *  *  *  *  *  *  *  *  *  *  *  *  *
002187:
002188:                                                                                                  #  STORAGE FOR FINDCDUW
002189:
002190:                                                                                                  #           OVERLAYING KALCMANU STORAGE:                  (26D)
002191:
002192: E6,1736  E6,1645               ECDUW              EQUALS   MIS
002193: E6,1736  E6,1645               ECDUWUSR           EQUALS   ECDUW                                 #  B(1)TMP
002194: E6,1736  E6,1646               QCDUWUSR           EQUALS   ECDUWUSR   +1                         #  I(1)TMP
002195: E6,1736  E6,1647               NDXCDUW            EQUALS   QCDUWUSR   +1                         #  B(1)TMP
002196: E6,1736  E6,1650               FLAGOODW           EQUALS   NDXCDUW    +1                         #  B(1)TMP
002197: E6,1736  E6,1651               UNFC/2             EQUALS   FLAGOODW   +1                         #  I(6)IN
002198:


002200: E6,1736  E6,1657               UNWC/2             EQUALS   UNFC/2     +6                         #  I(6)IN
002201: E6,1736  E6,1665               UNFV/2             EQUALS   UNWC/2     +6                         #  I(6) S-S
002202: E6,1736  E6,1665               UNFVX/2            =        UNFV/2
002203: E6,1736  E6,1667               UNFVY/2            =        UNFV/2     +2
002204: E6,1736  E6,1671               UNFVZ/2            =        UNFV/2     +4
002205: E6,1736  E6,1673               -DELGMB            EQUALS   UNFV/2     +6                         #  B(3)TMP
002206: E6,1736  E6,1676               OGABIAS            EQUALS   -DELGMB    +3                         #  B(1)IN
002207:
002208:                                                                                                  #           DEFINED IN THE WORK AREA:                     (18D)
002209:
002210: E6,1736                        UNX/2              =        0
002211: E6,1736                        UNY/2              =        6
002212: E6,1736                        UNZ/2              =        14
002213:
002214:                                                                                                  #  END OF FINDCDUW ERASABLES
002215:
002216:                                                                                                  #  *  *  *  *  *  *  *  *  *  *  *  *  *  *  *  *  *  *  *  *  *  *  *  *
002217:
002218:                                                                                                  #  * * * * * * * * * * * * * * * * * * * * * * * * * * * * * * * * * * * *
002219:
002220:                                                                                                  #  STORAGE FOR P57
002221:
002222:                                                                                                  #           OVERLAYING KALCMANU AND FINDCDUW STORAGE:     (12D)
002223:
002224: E6,1736  E6,1645               VEC1               EQUALS   MIS                                   #  I(6)TMP
002225: E6,1736  E6,1653               VEC2               EQUALS   VEC1       +6                         #  I(6)TMP
002226:
002227:                                                                                                  #  END OF P57 ERASABLES
002228:
002229:                                                                                                  #  * * * * * * * * * * * * * * * * * * * * * * * * * * * * * * * * * * * *
002230:
002231:                                                                                                  #  THE FOLLOWING ARE THE DAP REPLACEMENTS FOR THE ITEMPS AND RUPTREGS,NEEDED BECAUSE DAP IS NOW A TOB,JASK,JAB,TOSK
002232:                                                                                                  #  ... ANYWAY, THE DAP CAN NOW BE INTERRUPTED.                              (18D)
002233:
002234: E6,1736                        DAPTEMP1           ERASE    +17D
002235: E6,1760  E6,1737               DAPTEMP2           EQUALS   DAPTEMP1   +1
002236: E6,1760  E6,1740               DAPTEMP3           EQUALS   DAPTEMP1   +2
002237: E6,1760  E6,1741               DAPTEMP4           EQUALS   DAPTEMP1   +3
002238: E6,1760  E6,1742               DAPTEMP5           EQUALS   DAPTEMP1   +4
002239: E6,1760  E6,1743               DAPTEMP6           EQUALS   DAPTEMP1   +5
002240: E6,1760  E6,1744               DAPTREG1           EQUALS   DAPTEMP1   +6
002241: E6,1760  E6,1744               OLDSENSE           EQUALS   DAPTREG1                              #  B(1)TMP RCS JET CONTROL
002242: E6,1760  E6,1745               DAPTREG2           EQUALS   DAPTEMP1   +7
002243: E6,1760  E6,1746               DAPTREG3           EQUALS   DAPTEMP1   +8D
002244: E6,1760  E6,1747               DAPTREG4           EQUALS   DAPTEMP1   +9D
002245: E6,1760  E6,1750               DAPTREG5           EQUALS   DAPTEMP1   +10D
002246: E6,1760  E6,1751               DAPTREG6           EQUALS   DAPTEMP1   +11D
002247:
002248: E6,1760  E6,1752               DAPARUPT           EQUALS   DAPTEMP1   +12D
002249: E6,1760  E6,1753               DAPLRUPT           EQUALS   DAPARUPT   +1
002250:


002252: E6,1760  E6,1754               DAPBQRPT           EQUALS   DAPARUPT   +2
002253: E6,1760  E6,1756               DAPZRUPT           EQUALS   DAPARUPT   +4
002254:
002255:                                                                                                  #  (DAPZRUPT IS ALSO JASK-IN-PROGRESS FLAG)
002256:
002257:
002258:                                                                                                  #           NEEDLER(ATTITUDE ERROR EIGHT BALL DISPLAY) STORAGE.   (6D)
002259:
002260: E6,1760     0061               T5TEMP             EQUALS   ITEMP1
002261: E6,1760     0063               DINDX              EQUALS   ITEMP3
002262: E6,1760                        AK                 ERASE    +2                                    #  NEEDLER ATTITUDE INPUTS, SCALED AT 180
002263: E6,1763  E6,1761               AK1                EQUALS   AK         +1                         #  DEGREES.  P,Q,R AXES IN AK,AK1,AK2.
002264: E6,1763  E6,1762               AK2                EQUALS   AK         +2
002265:
002266: E6,1763                        EDRIVEX            ERASE    +2                                    #  NEEDLER DISPLAY REGS AT 1800 DEGREES.
002267: E6,1766  E6,1764               EDRIVEY            EQUALS   EDRIVEX    +1                         #  SO THAT 384 BITS REPRESENT 42 3/16 DEG.
002268: E6,1766  E6,1765               EDRIVEZ            EQUALS   EDRIVEX    +2
002269:
002270:                                                                                                  #           DOCKED JET INHIBITION COUNTERS                (3D)
002271:
002272: E6,1766                        PJETCTR            ERASE    +2
002273: E6,1771  E6,1767               UJETCTR            EQUALS   PJETCTR    +1
002274: E6,1771  E6,1770               VJETCTR            EQUALS   PJETCTR    +2
002275:
002276:                                                                                                  #  V47 (R47) AGS INITIALIZATION STORAGE -PAD LOADED.      (2D)
002277:
002278: E6,1771                        AGSK               ERASE    +1                                    #  I(2) PL
002279:
002280:                                                                                                  #  WINDOW BIAS PADLOAD                                    (1D)
002281:
002282: E6,1773                        AZBIAS             ERASE                                          #  B(1) PL LPD AZIMUTH BIAS, UNITS - PI RAD
002283:
002284:                                                                                                  #           DAP PERMANENT STORAGE                         (1D)
002285:
002286: E6,1774                        RCSFLAGS           ERASE                                          #  AUTOPILOT FLAG WORD
002287:                                                                                                  #  BIT ASSIGNMENTS:
002288:                                                                                                  #   1) ALTERYZ SWITCH (ZEROOR1)
002289:                                                                                                  #   2) NEEDLER SWITCH
002290:                                                                                                  #   3) NEEDLER SWITCH
002291:                                                                                                  #   4) NEEDLER SWITCH
002292:                                                                                                  #   5) NEEDLER SWITCH
002293:                                                                                                  #   9) JUST-IN-DETENT SWITCH
002294:                                                                                                  #  10) PBIT - MANUAL CONTROL SWITCH
002295:                                                                                                  #  11) QRBIT- MANUAL CONTROL SWITCH
002296:                                                                                                  #  12) PSKIP CONTROL (PJUMPADR)
002297:                                                                                                  #  13) 1/ACCJOB CONTROL (ACCSET)
002298:


002300: E6,1775  E6,1774               END-E6             EQUALS   AZBIAS     +1                         #  NEXT AVAILABLE LOC IN E6.
002301:


002303:                                                                                                  #                  EBANK-7 ASSIGNMENTS
002304:
002305: E7,1400                                           SETLOC   3400
002306:
002307:                                                                                                  #           P35 CONSTANTS.        - PAD LOADED -        (4D)
002308:
002309: E7,1400                        ATIGINC            ERASE    +1                                    #  B(2)PL        *MUST BE AT 1400 FOR SYSTEMSTEST
002310: E7,1402                        PTIGINC            ERASE    +1                                    #  B(2)PL
002311:
002312:
002313:                                                                                                  #           AOTMARK STORAGE.      - PAD LOADED -        (12D)
002314:
002315: E7,1404                        AOTAZ              ERASE    +5                                    #  B(6)PL
002316: E7,1412                        AOTEL              ERASE    +5                                    #  B(6)PL
002317:
002318:                                                                                                  #           LANDING RADAR.        - PAD LOADED -        (3D)
002319:
002320: E7,1420                        LRHMAX             ERASE                                          #  B(1)
002321: E7,1421                        LRWH               ERASE                                          #  B(1)
002322:
002323:
002324:                                                                                                  #           THROTTLE STORAGE.     - PAD LOADED -        (1D)
002325:
002326: E7,1422                        ZOOMTIME           ERASE                                          #  B(1)PL TIME OF DPS THROTTLE-UP COMMAND
002327:
002328:                                                                                                  #           P63 AND P64 CONSTANTS. - PAD LOADED -       (4D)
002329:
002330: E7,1423                        TENDBRAK           ERASE                                          #  B(1) LANDING PHASE SWITCHING CRITERION
002331: E7,1424                        TENDAPPR           ERASE                                          #  B(1) LANDING PHASE SWITCHING CRITERION
002332: E7,1425                        DELTTFAP           ERASE                                          #  B(1) INCREMENT ADDED TO TTF/8 WHEN
002333:                                                                                                  #        SWITCHING FROM P63 TO P64
002334: E7,1426                        LEADTIME           ERASE                                          #  B(1) TIME INCREMENT SPECIFYING HOW MUCH
002335:                                                                                                  #        GUIDANCE IS PROJECTED FORWARD.
002336:
002337:                                                                                                  #           LANDING RADAR         - PAD LOADED -        (2D)
002338:
002339: E7,1427                        RPCRTIME           ERASE                                          #  B(1) REPOSITIONING CRITERION  (TIME)
002340: E7,1430                        RPCRTQSW           ERASE                                          #  B(1) REPOSITIONING CRITERION (ANGLE)
002341:
002342:                                                                                                  #           ASTEER                - PAD LOADED -        (2D)
002343:
002344: E7,1431                        TNEWA              ERASE    +1                                    #  I(2)PL LAMBERT CYCLE PERIOD
002345:
002346:                                                                                                  #           P22 STORAGE - OVERLAYS LANDING PADLOADS -   (5D)
002347:


002349: E7,1433  E7,1423               REPOSCNT           EQUALS   TENDBRAK                              #  B(1)TMP  COUNTS NUMBER OF PASSES THROUGH
002350:                                                                                                  #           REPOSITION ROUTINE.
002351: E7,1433  E7,1424               REPOSTM            EQUALS   REPOSCNT   +1                         #  I(2)TMP  PRESENT TIME PLUS INCREMENTS OF
002352:                                                                                                  #           TEN SECONDS.
002353: E7,1433  E7,1426               DELTATM            EQUALS   REPOSTM    +2                         #  I(2)TMP  TIME INTERVAL FOR RUNNING
002354:                                                                                                  #           DESIGNATE TASK.
002355:
002356:                                                                                                  #  *** RETAIN THE ORDER OF DELVSLV, TIG, RTARG, DELLT4 FOR UPDATE. ***
002357:
002358:
002359:                                                                                                  #           P40S, P32-P35 P72-P75 STORAGE                 (6D)
002360:
002361: E7,1433                        DELVLVC            ERASE    +5                                    #  I(6) DELTA VELOCITY - LOCAL VERTICAL COO
002362: E7,1441  E7,1433               DELVSLV            =        DELVLVC                               #  (TEMP STORAGE OF SAME VECTOR)   -RDINATE
002363:
002364:
002365:
002366:                                                                                                  #           P30-P40 INTERFACE UNSHARED.                   (2D)
002367:
002368:                                                                                                  #  ******* NOTE:  TIG IS USED BY ALL POWERED FLIGHT PROGRAMS        *******
002369:                                                                                                  #  *******              INCLUDING P12, ABORTS, AND LUNAR LANDING.  ********
002370:
002371: E7,1441                        TIG                ERASE    +1                                    #  B(2)
002372:
002373:
002374:                                                                                                  #           INITVEL STORAGE:  USED BY P34,35,74,75, P40-42  (8D)
002375:
002376: E7,1443                        RTARG              ERASE    +5                                    #  I(6) TARGET VECTOR
002377: E7,1451                        DELLT4             ERASE    +1                                    #  I(2) TIME DIFFERENCE
002378:
002379:
002380:                                                                                                  #           LANDING RADAR - R12   (OVERLAY)               (2D)
002381:
002382: E7,1453  E7,1451               HLROFF             EQUALS   DELLT4                                #  B(1),I(2) TMP  NO LANDING RADAR UPDATES
002383:                                                                                                  #                  BELOW THIS ALTITUDE.
002384:
002385:
002386:                                                                                                  #           CLOKTASK, BURNBABY                            (3D)
002387:
002388: E7,1453                        TTOGO              ERASE    +1                                    #  B(2)
002389: E7,1455                        WHICH              ERASE                                          #  B(1)
002390:
002391:
002392:                                                                                                  #           *** R21 ***                                   (1D)
002393:
002394: E7,1456                        LOSCOUNT           ERASE                                          #  B(1)
002395:
002396:                                                                                                  #           L SR22.3 (RNDEZVOUS NAVIGATION) AND
002397:


002399:                                                                                                  #           LANDING RADAR -- VELUPDAT (SERVICER), P63, AND R12.   (4D)
002400:
002401:                                                                                                  #  ***** NOTE: AOG, AMG, AND AIG ARE USED BY LANDING RADAR AS WELL AS RR.
002402:                                                                                                  #  *****       R12DL STORES CDUS THERE FOR DOWNLINKING ON DESCENT/ASCENT DL
002403:                                                                                                  #  *****       MOREOVER, TRKMKCNT SHARES WITH VSELECT, ALSO SET UP BY R12DL
002404:                                                                                                  #  *****           (DOWNLINKED ON THE DESCENT/ASCENT LIST AS THE
002405:                                                                                                  #  *****             LOW ORDER PART OF AOG TELEMETRY WORD)
002406:                                                                                                  #  *****                AND USED IN SERVICER, P63 RESTART, AND R12READ.
002407:
002408:                                                                                                  #     RETAIN THE ORDER OF AIG TO TRKMKCNT FOR DOWNLINK PURPOSES.
002409:
002410: E7,1457                        AIG                ERASE                                          #  B(1)OUT  GIMGAL ANGLES
002411: E7,1460                        AMG                ERASE                                          #  B(1)OUT  (MUST BE
002412: E7,1461                        AOG                ERASE                                          #  B(1)OUT   CONSECUTIVE)
002413:
002414: E7,1462                        TRKMKCNT           ERASE                                          #  B(1)TMP  TEMPORARY MARK STORAGE.
002415: E7,1463  E7,1462               MARKCTR            =        TRKMKCNT
002416:
002417:
002418: E7,1463  E7,1462               VSELECT            EQUALS   TRKMKCNT                              #  B(1)  X,Y OR Z LR BEAM ASSOC WITH VMEAS.
002419:
002420:
002421:                                                                                                  #           P32-P35, P72-P75 STORAGE.  -PERMANENT-         (6)
002422:
002423: E7,1463                        NORMEX             ERASE                                          #  B(1) PRM SAVE FOR Q
002424: E7,1464                        QSAVED             ERASE                                          #  B(1) PRM SAVE FOR Q
002425: E7,1465                        RTRN               ERASE                                          #  B(1) PRM SAVE FOR Q
002426: E7,1466                        NN                 ERASE    +1                                    #  B(2)
002427: E7,1470                        SUBEXIT            ERASE                                          #  B(1) PRM SAVE Q
002428:
002429:
002430: E7,1471                        E7OVERLA           EQUALS                                         #  START OF E7 OVERLAYS.
002431: E7,1471  E7,1471               WHOCARES           EQUALS   E7OVERLA                              #  DUMMY FOR EBANK INSENSITIVE 2CADRS
002432:
002433:                                                                                                  #           LUNAR LANDING OVERLAYS                        (6D)
002434:
002435: E7,1471  E7,1463               /AFC/              EQUALS   NORMEX                                #  B(2)TMP    THROTTLE
002436: E7,1471  E7,1465               FCODD              EQUALS   /AFC/      +2                         #  B(2)TMP    THROTTLE
002437: E7,1471  E7,1467               FP                 EQUALS   FCODD      +2                         #  B(2)TMP    THROTTLE
002438:


002440:                                                                                                  #  *******  OVERLAY NUMBER 0 IN EBANK 7  *******
002441:
002442:
002443:                                                                                                  #  RENDEZVOUS GUIDANCE STORAGE -P32....P35-             (89D)
002444:
002445: E7,1471  E7,1611               TSTRT              EQUALS   DELDV                                 #  MIDCOURSE START TIME
002446: E7,1471  E7,1573               TDEC2              EQUALS   DELVCSI                               #  TEMP STORAGE FOR INTEGRATION TIME INPUT
002447: E7,1471  E7,1575               KT                 EQUALS   DELVTPI                               #  TEMP STORAGE FOR MIDCOURSE DELTA TIME
002448: E7,1471                        VACT1              ERASE    +5D                                   #  VELOCITY VECTOR OF ACTIVE  AT CSI TIME
002449: E7,1477                        RPASS1             ERASE    +5D                                   #  POSITION VECTOR OF PASSIVE AT CSI TIME
002450: E7,1505                        VPASS1             ERASE    +5D                                   #  VELOCITY VECTOR OF PASSIVE AT CSI TIME
002451: E7,1513                        VACT2              ERASE    +5D                                   #  VELOCITY VECTOR OF ACTIVE  AT CDH TIME
002452: E7,1521                        RPASS2             ERASE    +5D                                   #  POSITION VECTOR OF PASSIVE AT CDH TIME
002453: E7,1527                        VPASS2             ERASE    +5D                                   #  VELOCITY VECTOR OF PASSIVE AT CDH TIME
002454: E7,1535                        RACT3              ERASE    +5D                                   #  POSITION VECTOR OF ACTIVE  AT TPI TIME
002455: E7,1543                        VACT3              ERASE    +5D                                   #  VELOCITY VECTOR OF ACTIVE  AT TPI TIME
002456: E7,1551                        RPASS3             ERASE    +5D                                   #  POSITION VECTOR OF PASSIVE AT TPI TIME
002457: E7,1557                        VPASS3             ERASE    +5D                                   #  VELOCITY VECTOR OF PASSIVE AT TPI TIME
002458: E7,1565                        VACT4              ERASE    +5D                                   #  VELOCITY VECTOR OF ACTIVE  AT INTERCEPT
002459: E7,1573  E7,1543               UNVEC              EQUALS   VACT3                                 #  CDHMVR UNIT VECTOR TEMP STORAGE.
002460: E7,1573                        DELVCSI            ERASE    +1D                                   #  THRUST VALUE AT CSI
002461: E7,1575                        DELVTPI            ERASE    +1D                                   #  THRUST VALUE AT TPI OR MID
002462: E7,1577                        DIFFALT            ERASE    +1D                                   #  ALT DIFFERENCE AT CDH
002463: E7,1601                        POSTCSI            ERASE    +1                                    #  PERIGEE ALTITUDE AFTER CSI MANEUVER
002464: E7,1603                        POSTCDH            ERASE    +1                                    #  PERIGEE ALTITUDE AFTER CDH MANEUVER
002465: E7,1605                        POSTTPI            ERASE    +1                                    #  PERIGEE ALTITUDE AFTER TPI MANEUVER
002466: E7,1607  E7,1605               LOOPCT             EQUALS   POSTTPI                               #  CSI NEWTON ITERATION COUNTER
002467: E7,1607  E7,1603               HAFPA1             EQUALS   POSTCDH                               #  HALF PERIOD
002468: E7,1607                        GAMPREV            ERASE    +1                                    #  PREVIOUS GAMMA
002469: E7,1611  E7,1575               DVPREV             EQUALS   DELVTPI                               #  PREVIOUS DELVCSI
002470: E7,1611                        DELDV              ERASE    +1D
002471: E7,1613                        CSIALRM            ERASE    +1                                    #  FIRST SOLUTION ALARM
002472: E7,1615                        VERBNOUN           ERASE
002473: E7,1616  E7,1613               TITER              EQUALS   CSIALRM                               #  ITERATION COUNTER
002474: E7,1616                        RDOTV              ERASE    +1
002475: E7,1620  E7,1505               VAPREC             EQUALS   VPASS1                                #  I(6) S-S PREC VEC FOR NOM TPI TIME(ACT V
002476: E7,1620  E7,1477               RAPREC             EQUALS   RPASS1                                #  I(6) S-S PREC VEC FOR NOM TPI TIME(ACT V
002477: E7,1620  E7,1527               VPPREC             EQUALS   VPASS2                                #  I(6) S-S PREC VEC FOR NOM TPI TIME(PASS
002478: E7,1620  E7,1521               RPPREC             EQUALS   RPASS2                                #  I(6) S-S PREC VEC FOR NOM TPI TIME(PASS
002479: E7,1620  E7,1575               DELEL              EQUALS   DELVTPI                               #  I(2) S-S
002480: E7,1620  E7,1573               SECMAX             EQUALS   DELVCSI                               #  I(2) S-S MAX STOP SIZE FOR ROUTINE
002481: E7,1620  E7,1605               DELTEEO            EQUALS   POSTTPI                               #  I(2) S-S BACK VALUES OF DELTA TIME
002482: E7,1620                        CENTANG            ERASE    +1                                    #  I(2) S-S CENTRAL ANGLE COVERED (TPI-TPF)
002483:
002484:
002485:
002486:                                                                                                  #           SOME P47 STORAGE                              (6D)
002487:


002489: E7,1622                        DELVIMU            ERASE    +5                                    #  I(6)DSP N83 FOR P47 DELTA V IN BODY COOR
002490:
002491:
002492:                                                                                                  #           P34-35-40-41-42 INTERFACE                     (2D)
002493:
002494: E7,1630                        TPASS4             ERASE    +1                                    #  INTERCEPT TIME
002495:
002496:
002497:                                                                                                  #           P30-P40-41-42 COMMON STORAGE                  (1D)
002498:
002499: E7,1632                        QTEMP              ERASE                                          #  I(1)TMP COMMON RETURN SAVE REGISTER.
002500:
002501:
002502:
002503:                                                                                                  #           P32,33,34 STORAGE.                            (6D)
002504:
002505: E7,1633                        TCSI               ERASE    +1                                    #  B(2)TMP CSI TIME IN CENTISECONDS
002506: E7,1635                        TTPI               ERASE    +1                                    #  B(2)TMP TPI TIME IN CENTISECONDS
002507: E7,1637                        TTPIO              ERASE    +1                                    #  B(2)TMP TTPI STORAGE FOR RECYCLE
002508:
002509:
002510:                                                                                                  #           P30,P40 INTERFACE.                            (20D)
002511:
002512: E7,1641                        RTIG               ERASE    +19D                                  #  I(6)TMP
002513: E7,1665  E7,1647               VTIG               EQUALS   RTIG       +6                         #  I(6)TMP
002514: E7,1665  E7,1655               DELVSIN            EQUALS   VTIG       +6                         #  I(6)TMP
002515: E7,1665  E7,1663               DELVSAB            EQUALS   DELVSIN    +6                         #  I(2)TMP
002516: E7,1665  E7,1663               VGDISP             =        DELVSAB
002517:
002518:
002519:                                                                                                  #           P40-P42 TEMPORARY                              (1D)
002520:
002521: E7,1665                        QTEMP1             ERASE                                          #  I(1)TMP HOLDS RETURN.
002522:
002523:
002524:
002525:                                                                                                  #           R52 TEMPORARY                                  (1D)
002526:
002527: E7,1666  E7,1665               SAVQR52            EQUALS   QTEMP1
002528:
002529:
002530:                                                                                                  #           INITVEL STORAGE.  (IN OVERLAY 0 AND OVERLAY 1.        (2D)
002531:                                                                                                  #                  (CALLS LAMBERT, CONIC SUBROUTINES)
002532:
002533: E7,1666  E7,1565               VTPRIME            EQUALS   VACT4                                 #  TOTAL VELOCITY AT DESIRED RADIUS
002534: E7,1666  E7,1616               ITCTR              EQUALS   RDOTV                                 #  ITERATION COUNTER
002535: E7,1666                        COZY4              ERASE    +1                                    #  COS OF ANGLE WHEN ROTATION STARTS
002536: E7,1670  E7,1607               INTIME             EQUALS   GAMPREV                               #  TIME OF RINIT
002537:


002539:                                                                                                  #           PERIAPO STORAGE. (2D)                        (2D)
002540:
002541: E7,1670                        XXXALT             ERASE    +1                                    #  RADIUS TO LAUNCH PAD OR LANDING SIGHT
002542:
002543:                                                                                                  #           S40.1 STORAGE.                                (12D)
002544:
002545: E7,1672                        UT                 ERASE    +11D                                  #  I(6) THRUST DIRECTION
002546: E7,1706  E7,1700               VGTIG              EQUALS   UT         +6                         #  I(6)OUT
002547: E7,1706  E7,1700               VGPREV             =        VGTIG
002548:                                                                                                  #  ASTEER STORAGE.                               (22D)
002549:
002550: E7,1706                        VG                 ERASE    +21D                                  #  I(6)
002551: E7,1734  E7,1714               RMAG               EQUALS   VG         +6                         #  I(2)
002552: E7,1734  E7,1716               MUASTEER           EQUALS   RMAG       +2                         #  I(2)
002553: E7,1734  E7,1720               MU/A               EQUALS   MUASTEER   +2                         #  I(2)
002554: E7,1734  E7,1722               RTMAG              EQUALS   MU/A       +2                         #  I(2)
002555: E7,1734  E7,1724               R1C                EQUALS   RTMAG      +2                         #  I(6)
002556: E7,1734  E7,1732               SS                 EQUALS   R1C        +6                         #  I(2)
002557:
002558:                                                                                                  #           ASTEER                                         (11D)
002559:
002560: E7,1734  E7,1655               IC                 =        DELVSIN                               #  I(6) CHORD VECTOR:  RTARG VEC - POS VEC
002561: E7,1734  E7,1762               TIGSAVE            =        P21TIME                               #  I(2) USED TO DETERMINE WHEN YOU
002562: E7,1734  E7,1764               TIGSAVEP           =        SCAXIS                                #  I(2)  WANT TO DO ASTEER NEXT
002563: E7,1734  E7,1766               MUSCALE            =        SCAXIS     +2                         #  I(1) HOLDS INDEX VALUE
002564:
002565:
002566:                                                                                                  #           P40 STORAGE.                                  (8D)
002567:
002568:                                                                                                  #                F, MDOT, AND TDECAY MUST BE CONTIGUOUS FOR VLOAD.
002569: E7,1734                        F                  ERASE    +5                                    #  I(2)TMP THRUST MAG 10**4 NEWTONS (B-7)
002570: E7,1742  E7,1736               MDOT               EQUALS   F          +2                         #  I(2)TMP MASS CHNG RATE, KG/CS AT 2**3.
002571: E7,1742  E7,1740               TDECAY             EQUALS   MDOT       +2                         #  I(2)IN  DELTA-T TAILOFF, (2**28)CS.
002572: E7,1742                        VEX                ERASE    +1                                    #  I(2) EXHAUST VELOCITY FOR TGO COMPUTAT'N
002573:
002574:
002575:                                                                                                  #          MIDTOAV1(2) STORAGE.  (CALLED BY P40,P41,P42)         (1D)
002576:
002577: E7,1744                        IRETURN1           ERASE                                          #  B(1)     RETURN FROM MIDTOAV1 AND 2
002578:


002580:                                                                                                  #  ******* OVERLAY NUMBER 1 IN EBANK 7  *******
002581:
002582:
002583:                                                                                                  #          INITVEL (CALLED BY P34,35,38,39,10,11,S40.9,S40.1)    (6D)
002584:
002585: E7,1745  E7,1471               RTARG1             EQUALS   VACT1                                 #  I(6)S TEMP STORAGE OF RTARG
002586:
002587:
002588:                                                                                                  #          P35-P40 INTERFACE.                              (6D)
002589:
002590: E7,1745  E7,1505               VPASS4             EQUALS   VPASS1                                #  I(6)TMP VELOCITY OF PASSIVE AT INTERCEPT
002591:
002592:
002593:                                                                                                  #           LAT-LONG TEMPORARIES.  CAN OVERLAY WITH S40.1         (3D)
002594:
002595: E7,1745  E7,1672               ERADM              EQUALS   UT                                    #  I(2)
002596: E7,1745  E7,1674               INCORPEX           EQUALS   ERADM      +2                         #  I(1)
002597:
002598:                                                                                                  #           LRS24.1 STORAGE.  (CAN SHARE WITH P30'S)      (40D)
002599:
002600: E7,1745  E7,1675               RLMSRCH            EQUALS   INCORPEX   +1                         #  I(6) TMP LM POSITION VECTOR
002601: E7,1745  E7,1703               VXRCM              EQUALS   RLMSRCH    +6                         #  I(6)    CM V X R VECTOR
002602: E7,1745  E7,1711               LOSDESRD           EQUALS   VXRCM      +6                         #  I(6)    DESIRED LOS VECTOR
002603: E7,1745  E7,1717               UXVECT             EQUALS   LOSDESRD   +6                         #  I(6)    X-AXIS SRCH PATTERN COORDS
002604: E7,1745  E7,1725               UYVECT             EQUALS   UXVECT     +6                         #  I(6)    Y-AXIS SRCH PATTERN COORDS
002605: E7,1745  E7,1733               DATAGOOD           EQUALS   UYVECT     +6                         #  B(1)DSP FOR R1 - ALL 1-S WHEN LOCKON
002606: E7,1745  E7,1734               OMEGDISP           EQUALS   DATAGOOD   +1                         #  B(2)    ANGLE OMEGA DISPLAYED IN R2
002607: E7,1745  E7,1734               OMEGAD             =        OMEGDISP                              #          PINBALL DEFINITION.
002608: E7,1745  E7,1736               NSRCHPNT           EQUALS   OMEGDISP   +2                         #  B(1)TMP SEARCH PATTERN POINT COUNTER.
002609: E7,1745  E7,1737               SAVLEMV            EQUALS   NSRCHPNT   +1                         #  I(6) S-S SAVES LOSVEL
002610:


002612:                                                                                                  #  ******* OVERLAY NUMBER 2 IN EBANK 7 *******
002613:
002614:
002615:
002616:                                                                                                  #           INCORP STORAGE IN E7.                         (47D)
002617:
002618: E7,1745  E7,1471               TX789              EQUALS   E7OVERLA                              #  I(6)
002619: E7,1745  E7,1477               GAMMA              EQUALS   TX789      +6                         #  I(3)
002620: E7,1745  E7,1502               OMEGA              EQUALS   GAMMA      +3                         #  I(18)
002621: E7,1745  E7,1524               BVECTOR            EQUALS   OMEGA      +18D                       #  I(18)
002622: E7,1745  E7,1546               DELTAQ             EQUALS   BVECTOR    +18D                       #  I(2)
002623:                                                                                                  #           AOTMARK STORAGE                               (3D)
002624:
002625: E7,1745  E7,1550               WHATMARK           EQUALS   DELTAQ     +2                         #  B(1)TMP  SIGHTING TECHNIQUE DETERMINATOR
002626: E7,1745  E7,1551               XYMARK             EQUALS   WHATMARK   +1                         #  B(1)TMP  MARK IDENTIFICATION REGISTER
002627: E7,1745  E7,1552               MKDEX              EQUALS   XYMARK     +1                         #  B(1)TMP INDEX FOR AOTMARK
002628:
002629:
002630:                                                                                                  #           P50S. AOTMARK                                  (14D)
002631:
002632: E7,1745  E7,1524               XPLANE             EQUALS   BVECTOR                               #  I(6)TMP MARK PLANE
002633: E7,1745  E7,1532               YPLANE             EQUALS   XPLANE     +6                         #  I(6)TMP MARK PLANE
002634: E7,1745  E7,1762               XMKCNTR            EQUALS   P21TIME                               #  B(1)  X SIGHTING MK CNTR
002635: E7,1745  E7,1763               YMKCNTR            EQUALS   P21TIME    +1                         #  B(1)  Y SIGHTING MK CNTR
002636:
002637:
002638:                                                                                                  #          PLANET STORAGE.                               (8D)
002639:
002640: E7,1745  E7,1553               PLANVEC            EQUALS   MKDEX      +1                         #  (6) REFER VECTOR OF PLANET
002641: E7,1745  E7,1561               TSIGHT             EQUALS   PLANVEC    +6                         #  (2) TIME OF MARK OR EST TIME OF MARK
002642:
002643:
002644:
002645:                                                                                                  #           AOTMARK STORAGE                               (15D)
002646:
002647: E7,1745  E7,1563               THETEST            EQUALS   TSIGHT     +2                         #  I(2)TMP  STAR VECTOR COMPUTATION TMP
002648: E7,1745  E7,1565               ESTER1             EQUALS   THETEST    +2                         #  I(2)TMP  STAR VECTOR COMPUTATION TMP
002649: E7,1745  E7,1567               ESTER2             EQUALS   ESTER1     +2                         #  I(2)TMP  STAR VECTOR COMPUTATION TMP
002650: E7,1745  E7,1571               DELTHET            EQUALS   ESTER2     +2                         #  I(2)TMP  STAR VECTOR COMPUTATION TMP
002651: E7,1745  E7,1573               NOMKCNT            EQUALS   DELTHET    +2                         #  B(1)TMP  MARK SET REJECT CTR
002652: E7,1745  E7,1574               BODY               EQUALS   NOMKCNT    +1                         #  I(6)TMP STAR VEC IN NAV BASE COOR
002653:                                                                                                  #           LRS22.3 STORAGE. (CAN SHARE WITH P30'S AND OVERLAY LRS24.1  (30D).
002654:
002655: E7,1745  E7,1675               LGRET              EQUALS   RLMSRCH                               #  I(1)TMP
002656: E7,1745  E7,1675               RDRET              EQUALS   LGRET                                 #  B(1) TEMP RETURN.
002657: E7,1745  E7,1675               IGRET              EQUALS   LGRET                                 #  B(1) TEMP RETURN.
002658: E7,1745  E7,1676               MX                 EQUALS   RDRET      +1                         #  I(6)
002659: E7,1745  E7,1704               MY                 EQUALS   MX         +6                         #  I(6)
002660: E7,1745  E7,1712               MZ                 EQUALS   MY         +6                         #  I(6)
002661: E7,1745  E7,1720               SCALSHFT           EQUALS   MZ         +6                         #  B(1) SCALE SHIFT FOR EARTH/MOON
002662:


002664: E7,1745  E7,1721               RXZ                EQUALS   SCALSHFT   +1                         #  I(2)
002665: E7,1745  E7,1723               ULC                EQUALS   RXZ        +2                         #  I(6)
002666: E7,1745  E7,1731               SINTHETA           EQUALS   ULC        +6                         #  I(2)
002667:
002668:                                                                                                  #  ***** IN OVERLAY ONE *****
002669:
002670:                                                                                                  #      R22 / NOUN 49 DISPLAY
002671:
002672: E7,1745  E7,1746               N49FLAG            EQUALS   RDOTMSAV                              #  B(1)S    FLAG INDICATING V0649 RESPONSE
002673:
002674:
002675:                                                                                                  #      LRS22.1 STORAGE.  (MUST NOT SHARE WITH P30'S)         (13D)
002676:
002677:                                                                                                  #      (OUTPUTS ARE TO LRS22.3)
002678:
002679: E7,1745  E7,1733               RRTRUN             EQUALS   SINTHETA   +2                         #  B(2)OUT  RR TRUNION ANGLE
002680: E7,1745  E7,1735               RRSHAFT            EQUALS   RRTRUN     +2                         #  B(2)OUT RR SHAFT ANGLE
002681: E7,1745  E7,1737               LRS22.1X           EQUALS   RRSHAFT    +2                         #  B(1)TMP
002682: E7,1745  E7,1740               RRBORSIT           EQUALS   LRS22.1X   +1                         #  I(6) TMP RADAR BORESIGHT VECTOR.
002683: E7,1745  E7,1746               RDOTMSAV           EQUALS   RRBORSIT   +6                         #  B(2) S    RR RANGE-RATE(FPS)
002684:
002685:
002686:                                                                                                  #      LRS22.1 (SAME AS PREVIOUS SECTION) ALSO DOWNLINK FOR RR (R29)(10D) CANNOT SHARE WITH L.A.D.
002687:
002688:                                                                                                  #      NOTE: MKTIME IS USED BY LANDING AS WELL AS REND RADAR.
002689:
002690: E7,1745  E7,1750               RDOTM              EQUALS   RDOTMSAV   +2                         #  B(2)OUT  RANGE-RATE READING
002691: E7,1745  E7,1752               TANGNB             EQUALS   RDOTM      +2                         #  B(2)TMP  RR GIMBAL ANGLES
002692:                                                                                                  #      RETAIN THE ORDER OF MKTIME TO RM FOR DOWNLINK PURPOSES
002693: E7,1745  E7,1754               MKTIME             EQUALS   TANGNB     +2                         #  B(2) TIME OF RADAR READING (RR AND LR)
002694: E7,1745  E7,1756               RM                 EQUALS   MKTIME     +2                         #  I(2)OUT RANGE READING
002695: E7,1745  E7,1760               RANGRDOT           EQUALS   RM         +2                         #  B(2) DOWNLINKED RAW RANGE AND RRATE
002696:
002697:                                                                                                  #      LANDING OVERLAY                               (1D)
002698:
002699: E7,1745  E7,1750               THRDISP            EQUALS   RDOTM                                 #  B(1) PERCENT OF FTP I 10,500 LBS.
002700:
002701:
002702: E7,1745  E7,1752               GTCTIME            EQUALS   TANGNB                                #  B(2)  STATE VECTOR TIME CORRESPONDING
002703:                                                                                                  #    TO FP -- GUIDANCE THRUST COMMAND
002704:
002705:                                                                                                  #      R61LEM - PREFERRED TRACKING ATTITUDE ROUTINE  **IN OVERLAY ONE*
002706:                                                                                                  #               (CALLED BY P20,R22LEM,LSR22.3)            (1D)
002707:
002708: E7,1745  E7,1745               R65CNTR            EQUALS   RRBORSIT   +5                         #  B(1)SS  COUNT NUMBER OF TIMES PREFERRED
002709:                                                                                                  #          TRACKING ROUTINE IS TO CYCLE
002710:
002711:                                                                                                  #      P21 STORAGE                                   (2D)
002712:


002714: E7,1745  E7,1762               P21TIME            EQUALS   RANGRDOT   +2                         #  I(2)TMP
002715:
002716:
002717:                                                                                                  #      INPUTS TO VECPOINT. CALLED BY R60-65 (ATTITUDE MANEUVERS)         (12D)
002718: E7,1745  E7,1764               SCAXIS             EQUALS   P21TIME    +2                         #  I(6)
002719: E7,1745  E7,1772               POINTVSM           EQUALS   SCAXIS     +6                         #  I(6)
002720:


002722:
002723:                                                                                                  #  *******  OVERLAY NUMBER 3 IN EBANK 7  *******
002724:
002725:
002726:
002727:                                                                                                  #           SERVICER STORAGE                              (6D)
002728:
002729: E7,1745  E7,1471               ABVEL              EQUALS   E7OVERLA                              #  B(2) DISPLAY
002730: E7,1745  E7,1473               HDOTDISP           EQUALS   ABVEL      +2                         #  B(2) DISPLAY
002731: E7,1745  E7,1475               TTFDISP            EQUALS   HDOTDISP   +2                         #  B(2) DISPLAY
002732:
002733:
002734:                                                                                                  #           ASCENT GUIDANCE FOR LUNAR LANDING             (2D)
002735:
002736: E7,1745  E7,1473               RDOT               EQUALS   HDOTDISP                              #  I(2)
002737:
002738:
002739:                                                                                                  #           BURN PROG STORAGE.                            (2D)
002740:
002741: E7,1745  E7,1477               SAVET-30           EQUALS   TTFDISP    +2                         #  B(2)TMP TIG-30 RESTART
002742:
002743:
002744:                                                                                                  #           SERVICER STORAGE.                             (69D)
002745:
002746: E7,1745  E7,1501               VGBODY             EQUALS   SAVET-30   +2                         #  B(6)OUT SET.BY S41.1 VG LEM, SC.COORDS
002747: E7,1745  E7,1501               DELVCTL            =        VGBODY
002748: E7,1745  E7,1507               DVTOTAL            EQUALS   VGBODY     +6                         #  B(2) DISPLAY NOUN
002749: E7,1745  E7,1511               GOBLTIME           EQUALS   DVTOTAL    +2                         #  B(2) NOMINAL TIG FOR CALC. OF GOBLATE.
002750: E7,1745  E7,1513               ABDVCONV           EQUALS   GOBLTIME   +2                         #  I(2)
002751: E7,1745  E7,1515               DVCNTR             EQUALS   ABDVCONV   +2                         #  B(1)
002752: E7,1745  E7,1516               TGO                EQUALS   DVCNTR     +1                         #  B(2)
002753: E7,1745  E7,1520               R                  EQUALS   TGO        +2                         #  I(6)
002754: E7,1745  E7,1520               UNITGOBL           EQUALS   R                                     #  I(6)
002755: E7,1745  E7,1526               V                  EQUALS   R          +6
002756: E7,1745  E7,1526               DELVREF            EQUALS   V                                     #  I(6)
002757: E7,1745  E7,1534               HCALC              EQUALS   DELVREF    +6                         #  B(2)    LR
002758: E7,1745  E7,1536               UNIT/R/            EQUALS   HCALC      +2                         #  I(6)
002759:                                                                                                  #           (THE FOLLOWING SERVICER ERASABLES CAN BE SHARED WITH SECOND DPS GUIDANCE STORAGE)
002760:
002761: E7,1745  E7,1544               RN1                EQUALS   UNIT/R/    +6                         #  B(6)
002762: E7,1745  E7,1552               VN1                EQUALS   RN1        +6                         #  I(6)                      ( IN ORDER )
002763: E7,1745  E7,1560               PIPTIME1           EQUALS   VN1        +6                         #  B(2)                      (    FOR   )
002764: E7,1745  E7,1562               GDT1/2             EQUALS   PIPTIME1   +2                         #  I(6)                      (   COPY   )
002765: E7,1745  E7,1570               MASS1              EQUALS   GDT1/2     +6                         #  I(2)                      (   CYCLE  )
002766: E7,1745  E7,1570               DVCNTR1            EQUALS   MASS1                                 #  B(1)TMP  RESTART REG FOR DVCNTR
002767: E7,1745  E7,1572               R1S                EQUALS   MASS1      +2                         #  I(6)
002768: E7,1745  E7,1600               V1S                EQUALS   R1S        +6                         #  I(6)
002769:
002770:
002771:                                                                                                  #           P71 RESTART PROTECTION                        (2D)
002772:


002774: E7,1745  E7,1501               TGO1               EQUALS   VGBODY                                #  B(2)TMP
002775:
002776:
002777:                                                                                                  #           ALIGNMENT/S40.2.3 COMMON STORAGE.             (18D)
002778:
002779: E7,1745  E7,1606               XSMD               EQUALS   V1S        +6                         #  I(6)
002780: E7,1745  E7,1614               YSMD               EQUALS   XSMD       +6                         #  I(6)
002781: E7,1745  E7,1622               ZSMD               EQUALS   YSMD       +6                         #  I(6)
002782:
002783: E7,1745  E7,1606               XSCREF             =        XSMD
002784: E7,1745  E7,1614               YSCREF             =        YSMD
002785: E7,1745  E7,1622               ZSCREF             =        ZSMD
002786:
002787: E7,1745  E7,1630               END-ALIG           EQUALS   ZSMD       +6                         #  NEXT AVAIL ERASABLE AFTER ALIGN/S40.2,3
002788:
002789:
002790:                                                                                                  #           **** P22 ****                                (34D)
002791:
002792: E7,1745  E7,1630               RSUBL              EQUALS   END-ALIG                              #  I(6)S-S  LM POSITION VECTOR
002793: E7,1745  E7,1636               UCSM               EQUALS   RSUBL      +6                         #  I(6)S-S  VECTOR U
002794: E7,1745  E7,1644               NEWVEL             EQUALS   UCSM       +6                         #  I(6)S-S  TERMINAL VELOCITY VECTOR
002795: E7,1745  E7,1652               NEWPOS             EQUALS   NEWVEL     +6                         #  I(6)S-S  TERMINAL POSITION VECTOR
002796: E7,1745  E7,1660               LNCHTM             EQUALS   NEWPOS     +6                         #  I(2)S-S  EST. LAUNCH TIME FOR LEM
002797: E7,1745  E7,1662               TRANSTM            EQUALS   LNCHTM     +2                         #  I(2)S-S TRANSFER TIME
002798: E7,1745  E7,1664               NCSMVEL            EQUALS   TRANSTM    +2                         #  I(6)S-S NEW CSM VELOCITY
002799:
002800:
002801:                                                                                                  #           ***** P21 *****                              (18D)
002802:
002803: E7,1745     1162               P21ORIG            =        DISPDEX
002804: E7,1745  E7,1675               P21BASER           EQUALS   RLMSRCH                               #  I(6)TMP
002805: E7,1745  E7,1703               P21BASEV           EQUALS   P21BASER   +6                         #  I(6)TMP
002806: E7,1745  E7,1711               P21VEL             EQUALS   P21BASEV   +6                         #  I(2)TMP  *** NOUN 91 ***
002807: E7,1745  E7,1713               P21GAM             EQUALS   P21VEL     +2                         #  I(2)TMP  *** NOUN 91 ***
002808: E7,1745  E7,1715               P21ALT             EQUALS   P21GAM     +2                         #  I(2)TMP  *** NOUN 91 ***
002809:


002811:                                                                                                  #  *******  OVERLAY NUMBER 4 IN EBANK 7  *******
002812:
002813:
002814:                                                                                                  #  VARIABLES FOR SECOND DPS GUIDANCE (THE LUNAR LANDING)         (80D)
002815:
002816:                                                                                                  #  THESE ERASABLES MAY BE SHARED WITH CARE
002817:
002818: E7,1745  E7,1544               OURTEMPS           =        RN1                                   #  OVERLAY LAST PART OF SERVICER
002819: E7,1745  E7,1544               LANDTEMP           =        OURTEMPS                              #  B(6)     GUIDANCE
002820: E7,1745  E7,1552               TTF/8TMP           =        LANDTEMP   +6                         #  B(2)    GUIDANCE
002821: E7,1745  E7,1554               ELINCR             =        TTF/8TMP   +2                         #  B(2)    GUIDANCE
002822: E7,1745  E7,1556               AZINCR             =        ELINCR     +2                         #  B(2)    GUIDANCE
002823: E7,1745  E7,1560               KEEP-2             =        AZINCR     +2                         #  B(2)    TO PREVENT PIPTIME1 OVERLAY
002824: E7,1745  E7,1562               TABLTTF            =        KEEP-2     +2                         #  B(2)    GUIDANCE
002825: E7,1745  E7,1573               TPIPOLD            =        TABLTTF    +9D                        #  B(2)    GUIDANCE
002826: E7,1745  E7,1621               E2DPS              EQUALS   OURPERMS
002827:
002828:
002829:
002830:                                                                                                  #  THESE ERASABLES MUST NOT OVERLAY GOBLTIME OR SERVICER
002831:
002832: E7,1745  E7,1606               PIFPSET            =        XSMD                                  #  B(1)    THROTTLE
002833: E7,1745  E7,1607               RTNHOLD            =        PIFPSET    +1                         #  B(1)    THROTTLE
002834: E7,1745  E7,1610               FWEIGHT            =        RTNHOLD    +1                         #  B(2)    THROTTLE
002835: E7,1745  E7,1612               PIF                =        FWEIGHT    +2                         #  B(2)   THROTTLE
002836: E7,1745  E7,1614               PSEUDO55           =        PIF        +2                         #  B(1)   THROTTLE DOWNLINK
002837: E7,1745  E7,1615               FC                 =        PSEUDO55   +1                         #  B(2)    THROTTLE
002838: E7,1745  E7,1617               TTHROT             =        FC         +2                         #  B(1)    THROTTLE
002839: E7,1745  E7,1620               FCOLD              =        TTHROT     +1                         #  B(1)    THROTTLE
002840:
002841:
002842:
002843:                                                                                                  #  THESE ERASABLES SHOULD NOT BE SHARED DURING P63, P64, P65, P66, P67
002844:
002845: E7,1745  E7,1621               OURPERMS           =        FCOLD      +1                         #  MUSTN'T OVERLAY OURTEMPS OR SERVICER
002846: E7,1745  E7,1621               WCHPHOLD           =        OURPERMS                              #  B(1)    GUIDANCE
002847: E7,1745  E7,1622               511CTR             =        WCHPHOLD   +1                         #  B(1) R12 - CONTROLS 511 ALARM
002848: E7,1745  E7,1623               FLPASS0            =        511CTR     +1                         #  B(1) GUIDANCE
002849: E7,1745  E7,1623               CNTTHROT           EQUALS   FLPASS0                               #  B(1) CNT THROTS BETWEEN OMISSIONS OF P66
002850: E7,1745  E7,1624               TPIP               =        FLPASS0    +1                         #  B(2)
002851: E7,1745  E7,1626               VGU                =        TPIP       +2                         #  B(6)    GUIDANCE
002852: E7,1745  E7,1634               LAND               =        VGU        +6                         #  B(6)    GUIDANCE    CONTIGUOUS
002853: E7,1745  E7,1642               TTF/8              =        LAND       +6                         #  B(2)    GUIDANCE    CONTIGUOUS
002854: E7,1745  E7,1644               AZINCR1            =        TTF/8      +2                         #  B(1)    REDESIGNATOR
002855: E7,1745  E7,1645               ELINCR1            =        AZINCR1    +1                         #  B(1)    REDESIGNATOR
002856: E7,1745  E7,1646               ZERLINA            =        ELINCR1    +1                         #  B(1)    REDESIGNATOR
002857: E7,1745  E7,1647               ELVIRA             =        ZERLINA    +1                         #  B(1)    REDESIGNATOR
002858: E7,1745  E7,1650               LRPOS              =        ELVIRA     +1                         #  B(1)    LAST LR ANTENNA POSITION
002859:
002860:                                                                                                  #                                ** NOTE: GAP OF 1 SP LOCATION HERE IN THIS P63 THRU P66 OVERLAY **
002861:


002863: E7,1745  E7,1652               VMEAS              =        LRPOS      +2                         #  B(2) LR VELOCITY READ BY BEAM X, Y OR Z.
002864: E7,1745  E7,1654               HMEAS              =        VMEAS      +2                         #  B(2)    LR
002865: E7,1745  E7,1656               VN2                =        HMEAS      +2                         #  B(6)    LR
002866: E7,1745  E7,1656               GNUR               =        VN2                                   #  B(6)     LR
002867: E7,1745  E7,1656               GNUV               =        VN2                                   #  B(6)     LR
002868: E7,1745  E7,1664               DELTAH             =        VN2        +6                         #  B(2)    DISPLAY
002869: E7,1745  E7,1666               FUNNYDSP           =        DELTAH     +2                         #  B(2)    DISPLAY
002870: E7,1745  E7,1670               EOURPERM           EQUALS   FUNNYDSP   +2                         #  NEXT AVAILABLE ERASABLE AFTER OURPERMS
002871: E7,1745  E7,1456               OVFRET             EQUALS   LOSCOUNT                              #  B(1) RETURN FROM DESCENT OVERFLOW SUBRO
002872:
002873:
002874:
002875:                                                                                                  #  (ERASABLES WHICH OVERLAY THE ABOVE BLOCK)
002876:
002877: E7,1745  E7,1644               VDGVERT            =        AZINCR1                               #  B(2)  DESIRED VERTICAL VELOCITY - P66
002878: E7,1745  E7,1646               NIGNLOOP           =        ZERLINA                               #  B(1)   IGNALG
002879: E7,1745  E7,1647               NGUIDSUB           =        ELVIRA                                #  B(1)   IGNALG
002880: E7,1745  E7,1666               TREDES             =        FUNNYDSP                              #  B(1)    DISPLAY
002881: E7,1745  E7,1667               LOOKANGL           =        FUNNYDSP   +1                         #  B(1)    DISPLAY
002882:
002883:
002884:                                                                                                  #  THE END OF THE LUNAR LANDING ERASABLES
002885:
002886:
002887:
002888:                                                                                                  #           R12 (FOR LUNAR LANDING)                       (6D)
002889:
002890: E7,1745  E7,1670               LRLCTR             EQUALS   EOURPERM                              #  B(1) LR DATA TEST
002891: E7,1745  E7,1671               LRRCTR             EQUALS   LRLCTR     +1                         #  B(1)
002892: E7,1745  E7,1672               LRMCTR             EQUALS   LRRCTR     +1                         #  B(1)
002893: E7,1745  E7,1673               LRSCTR             EQUALS   LRMCTR     +1                         #  B(1)
002894: E7,1745  E7,1674               STILBADH           EQUALS   LRSCTR     +1                         #  B(1)
002895: E7,1745  E7,1675               STILBADV           EQUALS   STILBADH   +1                         #  B(1)
002896:
002897:
002898:
002899:                                                                                                  #           LANDING ANALOGS DISPLAY STORAGE.              (32D)
002900:
002901: E7,1745  E7,1676               G-VBIASX           =        STILBADV   +1                         #  B(1)    ACC DUE TO GRAVITY AND PIPA BIAS
002902: E7,1745  E7,1677               G-VBIASY           =        G-VBIASX   +1                         #  B(1)    ACC DUE TO GRAVITY AND PIPA BIAS
002903: E7,1745  E7,1700               G-VBIASZ           =        G-VBIASY   +1                         #  B(1)    ACC DUE TO GRAVITY AND PIPA BIAS
002904: E7,1745  E7,1701               VSURFACE           =        G-VBIASZ   +1                         #  B(6)    LUNAR SURFACE VELOCITY
002905: E7,1745  E7,1707               HCALCLAD           =        VSURFACE   +6                         #  B(2)    ALTITUDE IN UNITS OF 2(15) M
002906: E7,1745  E7,1711               HDOTLAD            =        HCALCLAD   +2                         #  B(2)    ALTRATE IN UNITS OF 2(5) M/CS
002907: E7,1745  E7,1713               DALTRATE           =        HDOTLAD    +2                         #  B(1)    DALTRATE UNITS OF 2(-9) M/CS/CS
002908: E7,1745  E7,1714               RUNITX             =        DALTRATE   +1                         #  B(1)    X-COMPONENT OF UNIT/R/ FULL-SIZE
002909: E7,1745  E7,1715               RUNITY             =        RUNITX     +1                         #  B(1)    Y-COMPONENT OF UNIT/R/ FULL-SIZE
002910: E7,1745  E7,1716               RUNITZ             =        RUNITY     +1                         #  B(1)    Z-COMPONENT OF UNIT/R/ FULL-SIZE
002911: E7,1745  E7,1717               DT                 =        RUNITZ     +1                         #  B(1)    TIME SINCE LAST PIPTIME
002912: E7,1745  E7,1720               VVECTX             =        DT         +1                         #  B(2)    X-COMPONENT OF SM REL. VELOCITY
002913:


002915: E7,1745  E7,1722               VVECTY             =        VVECTX     +2                         #  B(2)    Y-COMPONENT OF SM REL. VELOCITY
002916: E7,1745  E7,1724               VVECTZ             =        VVECTY     +2                         #  B(2)    Z-COMPONENT OF SM REL. VELOCITY
002917: E7,1745  E7,1726               ALTRATE            =        VVECTZ     +2                         #  B(2)    ALTRATE IN UNITS OF 2(5) M/CS
002918: E7,1745  E7,1730               ALTITUDE           =        ALTRATE    +2                         #  B(2)    ALTITUDE IN UNITS OF 2(15) M
002919: E7,1745  E7,1732               LATVMETR           =        ALTITUDE   +2                         #  B(1)    LATERAL VELOCITY METER INDICATOR
002920: E7,1745  E7,1733               FORVMETR           =        LATVMETR   +1                         #  B(1)    FORWARD VELOCITY METER INDICATOR
002921: E7,1745  E7,1734               FORVEL             =        FORVMETR   +1                         #  B(2)    FORWARD VELOCITY FOR DSKY (N60)
002922: E7,1745  E7,1722               PIPCTR1            =        VVECTY                                #  B(1)    TEMPORARY FOR PIPCTR
002923:
002924:
002925: E7,1745     0063               ALTRTEMP           =        ITEMP3                                #  B(2)    ALTITUDE-RATE TEMPORARY
002926: E7,1745     0063               ALTTEMP            =        ITEMP3                                #  B(2)    ALTITUDE TEMPORARY
002927: E7,1745     0063               VHY                =        ITEMP3                                #  B(2)    VELOCITY ALONG UHYP (I.E. SM-Y)
002928: E7,1745     0065               VHZ                =        ITEMP5                                #  B(2)    VELOCITY ALONG UHZP
002929: E7,1745     0070               FORVTEMP           =        RUPTREG1                              #  B(2)    FORWARD VELOCITY TEMPORARY
002930: E7,1745     0072               LATVEL             =        RUPTREG3                              #  B(2)    LATERAL VELOCITY TEMPORARY
002931:
002932:
002933:
002934:                                                                                                  #           DOWNLINK QTY -- GOOD THROUGHOUT LANDING -- LOADED IN SERVICER (2D)
002935:
002936: E7,1745  E7,1736               TRUDELH            EQUALS   FORVEL     +2                         #  I(2)DNLK  TRUE DELTA H FOR DOWNLINK,
002937:                                                                                                  #      LOADED BEFORE ENTERING TERRAIN MODEL
002938:
002939:
002940:                                                                                                  #  P66 ERASABLES (HORIZONTAL VELOCITY NULLING GUIDANCE)
002941: E7,1745  E7,1433               VHZC               EQUALS   DELVLVC                               #  B(6) VELOCITY HORIZONTAL COMMAND
002942:
002943:
002944:
002945:                                                                                                  #           P66 ERASABLES (R.O.D.)                         (1D)
002946:
002947: E7,1745  E7,1746               RODCOUNT           EQUALS   R65CNTR    +1                         #  B(1)    ROD CLICK COUNTER
002948:
002949:
002950:                                                                                                  #           P66 ERASABLES (R.O.D.)                        (14D)
002951:
002952:                                                                                                  #  **** NOTE: OLDPIPAX,Y,Z AND DELVROD MUST BE KEPT ADJACENT AND IN THAT ORDER FOR P66 INITIALIZATIONS ****
002953:
002954: E7,1745  E7,1756               RODSCAL1           EQUALS   RM                                    #  B(1)
002955: E7,1745  E7,1757               LASTTPIP           EQUALS   RODSCAL1   +1                         #  I(2)
002956: E7,1745  E7,1761               THISTPIP           EQUALS   LASTTPIP   +2                         #  B(2)
002957: E7,1745  E7,1763               OLDPIPAX           EQUALS   THISTPIP   +2                         #  B(1)
002958: E7,1745  E7,1764               OLDPIPAY           EQUALS   OLDPIPAX   +1                         #  B(1)
002959: E7,1745  E7,1765               OLDPIPAZ           EQUALS   OLDPIPAY   +1                         #  B(1)
002960: E7,1745  E7,1766               DELVROD            EQUALS   OLDPIPAZ   +1                         #  B(6)
002961:
002962:
002963:
002964:                                                                                                  #           TERRAIN MODEL TEMPORARY -- LOADED IN SERVICER        (2D)
002965:


002967: E7,1745  E7,1766               TEMDELH            EQUALS   DELVROD                               #  I(2)TMP  STORES TRUE DELTAH IN TER. MOD.
002968:
002969:
002970:                                                                                                  #  NOUN 63 COMPONENT                             (2D)
002971: E7,1745  E7,1774               HCALC1             EQUALS   DELVROD    +6                         #  I(2)
002972:
002973:
002974:                                                                                                  #  LANDING RADAR DOWNLINK                                (2D)
002975: E7,1745  E7,1776               HMEASDL            EQUALS   HCALC1     +2                         #  B(2)
002976:
002977:


002979:                                                                                                  #  *******  OVERLAY NUMBER 5 IN EBANK 7  *******
002980:
002981:
002982:
002983:
002984:                                                                                                  #           ASCENT GUIDANCE ERASABLES.                    (21D)
002985:
002986: E7,1745  E7,1630               RCO                EQUALS   END-ALIG                              #  I(2)TMP TARGET RADIUS AND OUT-OF-PLANE
002987: E7,1745  E7,1632               YCO                EQUALS   RCO        +2                         #  I(2)TMP DISTANCE, SCALED AT 2(24).
002988: E7,1745  E7,1634               1/DV1              EQUALS   YCO        +2                         #  B(2)TMP ATMAG
002989: E7,1745  E7,1636               1/DV2              EQUALS   1/DV1      +2                         #  B(2)TMP ATMAG
002990: E7,1745  E7,1640               1/DV3              EQUALS   1/DV2      +2                         #  B(2)TMP ATMAG
002991: E7,1745  E7,1642               XRANGE             EQUALS   1/DV3      +2                         #  B(2)TMP
002992: E7,1745  E7,1644               ENGOFFDT           EQUALS   XRANGE     +2                         #  B(1)TMP
002993: E7,1745  E7,1645               VGVECT             EQUALS   ENGOFFDT   +1                         #  I(6)OUT VELOCITY-TO-BE-GAINED
002994: E7,1745  E7,1653               TXO                EQUALS   VGVECT     +6                         #  I(2)TMP TIME AT WHICH X-AXIS OVERRIDE
002995:                                                                                                  #  IS ALLOWED.
002996:
002997: E7,1745  E7,1570               1/DV0              EQUALS   MASS1                                 #  B(2)TMP  ATMAG TEMPORARY
002998:
002999:
003000:                                                                                                  #  END OF THE ASCENT GUIDANCE ERASABLES.
003001:
003002: E7,1745                        END-E7             EQUALS   3777                                  #  ** LAST LOCATION USED IN E7 **

End of include-file ERASABLE_ASSIGNMENTS.agc.  Parent file is MAIN.agc


