
Source Code


000002:                                                                                                  ## Copyright:   Public domain.
000003:                                                                                                  ## Filename:    ERASABLE_ASSIGNMENTS.agc
000004:                                                                                                  ## Purpose:     A section of Luminary revision 210.
000005:                                                                                                  ##              It is part of the source code for the Lunar Module's (LM)
000006:                                                                                                  ##              Apollo Guidance Computer (AGC) for Apollo 15-17.
000007:                                                                                                  ##              This file is intended to be a faithful transcription, except
000008:                                                                                                  ##              that the code format has been changed to conform to the
000009:                                                                                                  ##              requirements of the yaYUL assembler rather than the
000010:                                                                                                  ##              original YUL assembler.
000011:                                                                                                  ## Reference:   pp. 92-160
000012:                                                                                                  ## Assembler:   yaYUL
000013:                                                                                                  ## Contact:     Ron Burkey <info@sandroid.org>.
000014:                                                                                                  ## Website:     www.ibiblio.org/apollo/index.html
000015:                                                                                                  ## Mod history: 2016-11-17 JL   Created from Luminary131 version.
000016:                                                                                                  ##              2016-11-19 HG   Transcribed
000017:                                                                                                  ##              2016-11-25 HG   Fix operand MARKCNTR -> WHATMARK
000018:                                                                                                  ##                                          ASBC0    -> ABSC0
000019:                                                                                                  ##                                          ARPFGZ   -> ABRFGZ
000020:                                                                                                  ##                                  label   HCASCLAD -> HCALCLAD
000021:                                                                                                  ##                                          NETTOTKP -> NEGTORKP
000022:                                                                                                  ##                                          RBRRGZ   -> RBRFGZ
000023:                                                                                                  ##              2016-11-26 HG   Fix label   REULTCT  -> RESULTCT
000024:                                                                                                  ##              2016-11-28 HG   Fix operand SAMPLIN  -> SAMPLIM
000025:                                                                                                  ##              2016-11-29 HG   fix label   DVCNTRL  -> DVCNTR1
000026:                                                                                                  ##              2016-12-02 HG   fix operand FLPASSO  -> FLPASS0
000027:                                                                                                  ##              2016-12-07 HG   fix operand QAXIZ    -> QAXIS  adn mofidier +2 -> +6, fixes ZAXIS1
000028:                                                                                                  ##                                  label   1/DVO    -> 1/DV0
000029:                                                                                                  ##                                          ACSAVE   -> ASCSAVE
000030:                                                                                                  ##                                          DSPFLAG  -> DSPLG
000031:                                                                                                  ##                              add missing definition for label ZV
000032:                                                                                                  ##              2016-12-11 HG   Fix operand modification VVECT(X,Y,Z) + 1 -> VVECT(X,Y,Z)+ 2
000033:                                                                                                  ##              2016-12-22 RSB  Proofed comment text with octopus/ProoferComments
000034:                                                                                                  ##                              and fixed all errors found.
000035:


000037:                                                                                                  #  CONVENTIONS AND NOTATIONS UTILIZED FOR ERASABLE ASSIGNMENTS.
000038:
000039:                                                                                                  #           EQUALS IS USED IN TWO WAYS.  IT IS OFTEN USED TO CHAIN A GROUP
000040:                                                                                                  #                  OF ASSIGNMENTS SO THAT THE GROUP MAY BE MOVED WITH THE
000041:                                                                                                  #                  CHANGING OF ONLY ONE CARD.  EXAMPLE.
000042:
000043:                                                                                                  #                                          X        EQUALS  START
000044:                                                                                                  #                                          Y        EQUALS  X       +SIZE.X
000045:                                                                                                  #                                          Z        EQUALS  Y       +SIZE.Y
000046:
000047:                                                                                                  #                  (X, Y, AND Z ARE CONSECUTIVE AND BEGIN AT START.        )
000048:                                                                                                  #                  (SIZE.X AND SIZE.Y ARE THE RESPECTIVE SIZES OF X AND Y,
000049:                                                                                                  #                   USUALLY NUMERIC,  IE. 1, 2, 6, 18D ETC.               )
000050:
000051:                                                                                                  #           EQUALS  OFTEN IMPLIES THE SHARING OF REGISTERS (DIFFERENT NAMES
000052:                                                                                                  #                   AND DIFFERENT DATA).  EXAMPLE.
000053:
000054:                                                                                                  #                                           X       EQUALS  Y
000055:
000056:
000057:                                                                                                  #           = MEANS THAT MULTIPLE NAMES HAVE BEEN GIVEN TO THE SAME DATA.
000058:                                                                                                  #                  (THIS IS LOGICAL EQUIVALENCE, NOT SHARING)  EXAMPLE.
000059:
000060:                                                                                                  #                                           X       =       Y
000061:
000062:                                                                                                  #           THE SIZE AND UTILIZATION OF AN ERASABLE ARE OFTEN INCLUDED IN
000063:                                                                                                  #           THE COMMENTS IN THE FOLLOWING FORM.  M(SIZE)N.
000064:
000065:                                                                                                  #                  M  REFERS TO THE MOBILITY OF THE ASSIGNMENT.
000066:                                                                                                  #                        B       MEANS THAT THE SYMBOL IS REFERENCED BY BASIC
000067:                                                                                                  #                                INSTRUCTIONS AND THUS IS E-BANK SENSITIVE.
000068:                                                                                                  #                        I       MEANS THAT THE SYMBOL IS REFERENCED ONLY BY
000069:                                                                                                  #                                INTERPRETIVE INSTRUCTIONS, AND IS THUS E-BANK
000070:                                                                                                  #                                INSENSITIVE AND MAY APPEAR IN ANY E-BANK.
000071:
000072:                                                                                                  #                  SIZE    IS THE NUMBER OF REGISTERS INCLUDED BY THE SYMBOL.
000073:
000074:                                                                                                  #                  N INDICATES THE NATURE OF PERMANENCE OF THE CONTENTS.
000075:                                                                                                  #                       PL  MEANS THAT THE CONTENTS ARE PAD LOADED.
000076:                                                                                                  #                       DSP MEANS THAT THE REGISTER IS USED FOR A DISPLAY.
000077:                                                                                                  #                       PRM MEANS THAT THE REGISTER IS PERMANENT. IE. IT
000078:                                                                                                  #                           IS USED DURING THE ENTIRE MISSION FOR ONE
000079:                                                                                                  #                           PURPOSE AND CANNOT BE SHARED.
000080:                                                                                                  #                       TMP MEANS THAT THE REGISTER IS USED TEMPORARILY OR
000081:                                                                                                  #                           IS A SCRATCH REGISTER FOR THE ROUTINE TO WHICH
000082:                                                                                                  #                           IT IS ASSIGNED.  THAT IS, IT NEED NOT BE SET
000083:                                                                                                  #                           PRIOR TO INVOCATION OF THE ROUTINE NOR DOES IT
000084:                                                                                                  #                           CONTAIN USEFUL OUTPUT TO ANOTHER ROUTINE.  THUS
000085:


000087:                                                                                                  #                           IT MAY BE SHARED WITHANY OTHER ROUTINE WHICH
000088:                                                                                                  #                           IS NOT ACTIVE IN PARALLEL.
000089:                                                                                                  #                       IN  MEANS INPUT TO THE ROUTINE AND IT IS PROBABLY
000090:                                                                                                  #                           TEMPORARY FOR A HIGHER-LEVEL ROUTINE/PROGRAM.
000091:                                                                                                  #                       OUT MEANS OUTPUT FROM THE ROUTINE, PROBABLY
000092:                                                                                                  #                           TEMPORARY FOR A HIGHER-LEVEL ROUTINE/PROGRAM.
000093:


000095:                                                                                                  #           SPECIAL REGISTERS.
000096:
000097: 26,2024                        A                  EQUALS   0
000098: 26,2024                        L                  EQUALS   1                                     #  L AND Q ARE BOTH CHANNELS AND REGISTERS.
000099: 26,2024                        Q                  EQUALS   2
000100: 26,2024                        EBANK              EQUALS   3
000101: 26,2024                        FBANK              EQUALS   4
000102: 26,2024                        Z                  EQUALS   5                                     #  ADJACENT TO FBANK AND BBANK FOR DXCH Z
000103: 26,2024                        BBANK              EQUALS   6                                     #  (DTCB) AND DXCH FBANK (DTCF).
000104:                                                                                                  #  REGISTER 7 IS A ZERO-SOURCE, USED BY ZL.
000105:
000106: 26,2024                        ARUPT              EQUALS   10                                    #  INTERRUPT STORAGE.
000107: 26,2024                        LRUPT              EQUALS   11
000108: 26,2024                        QRUPT              EQUALS   12
000109: 26,2024                        SAMPTIME           EQUALS   13                                    #  SAMPLED TIME 1 & 2.
000110: 26,2024                        ZRUPT              EQUALS   15                                    #  (13 AND 14 ARE SPARES.)
000111: 26,2024                        BANKRUPT           EQUALS   16                                    #  USUALLY HOLDS FBANK OR BBANK.
000112: 26,2024                        BRUPT              EQUALS   17                                    #  RESUME ADDRESS AS WELL.
000113:
000114: 26,2024                        CYR                EQUALS   20
000115: 26,2024                        SR                 EQUALS   21
000116: 26,2024                        CYL                EQUALS   22
000117: 26,2024                        EDOP               EQUALS   23                                    #  EDITS INTERPRETIVE OPERATION CODE PAIRS.
000118:
000119: 26,2024                        TIME2              EQUALS   24
000120: 26,2024                        TIME1              EQUALS   25
000121: 26,2024                        TIME3              EQUALS   26
000122: 26,2024                        TIME4              EQUALS   27
000123: 26,2024                        TIME5              EQUALS   30
000124: 26,2024                        TIME6              EQUALS   31
000125: 26,2024                        CDUX               EQUALS   32
000126: 26,2024                        CDUY               EQUALS   33
000127: 26,2024                        CDUZ               EQUALS   34
000128: 26,2024                        CDUT               EQUALS   35                                    #  REND RADAR TRUNNION CDU
000129: 26,2024                        CDUS               EQUALS   36                                    #  REND RADAR SHAFT CDU
000130: 26,2024                        PIPAX              EQUALS   37
000131: 26,2024                        PIPAY              EQUALS   40
000132: 26,2024                        PIPAZ              EQUALS   41
000133: 26,2024                        Q-RHCCTR           EQUALS   42                                    #  RHC COUNTER REGISTERS
000134: 26,2024                        P-RHCCTR           EQUALS   43
000135: 26,2024                        R-RHCCTR           EQUALS   44
000136: 26,2024                        INLINK             EQUALS   45
000137: 26,2024                        RNRAD              EQUALS   46
000138: 26,2024                        GYROCMD            EQUALS   47
000139: 26,2024                        CDUXCMD            EQUALS   50
000140: 26,2024                        CDUYCMD            EQUALS   51
000141: 26,2024                        CDUZCMD            EQUALS   52
000142: 26,2024                        CDUTCMD            EQUALS   53                                    #  RADAR TRUNNION COMMAND
000143: 26,2024                        CDUSCMD            EQUALS   54                                    #  RADAR SHAFT COMMAND
000144:


000146: 26,2024                        THRUST             EQUALS   55
000147: 26,2024                        LEMONM             EQUALS   56
000148: 26,2024                        OUTLINK            EQUALS   57
000149: 26,2024                        ALTM               EQUALS   60
000150:
000151:                                                                                                  #           INTERPRETIVE REGISTERS ADDRESSED RELATIVE TO VAC AREA.
000152:
000153: 26,2024                        LVSQUARE           EQUALS   34D                                   #  SQUARE OF VECTOR INPUT TO ABVAL AND UNIT
000154: 26,2024                        LV                 EQUALS   36D                                   #  LENGTH OF VECTOR INPUT TO UNIT.
000155: 26,2024                        X1                 EQUALS   38D                                   #  INTERPRETIVE SPECIAL REGISTERS RELATIVE
000156: 26,2024                        X2                 EQUALS   39D                                   #  TO THE WORK AREA.
000157: 26,2024                        S1                 EQUALS   40D
000158: 26,2024                        S2                 EQUALS   41D
000159: 26,2024                        QPRET              EQUALS   42D
000160:
000161:                                                                                                  #  INPUT/OUTPUT CHANNELS
000162:
000163:                                                                                                  #                                *** CHANNEL ZERO IS TO BE USED IN AN INDEXED OPERATION ONLY. ***
000164: 26,2024  0000001               LCHAN              EQUALS   L
000165: 26,2024  0000002               QCHAN              EQUALS   Q
000166: 26,2024                        HISCALAR           EQUALS   3
000167: 26,2024                        LOSCALAR           EQUALS   4
000168: 26,2024                        CHAN5              EQUALS   5
000169: 26,2024                        CHAN6              EQUALS   6
000170: 26,2024                        SUPERBNK           EQUALS   7                                     #  SUPER-BANK.
000171: 26,2024                        OUT0               EQUALS   10
000172: 26,2024                        DSALMOUT           EQUALS   11
000173: 26,2024                        CHAN12             EQUALS   12
000174: 26,2024                        CHAN13             EQUALS   13
000175: 26,2024                        CHAN14             EQUALS   14
000176: 26,2024                        MNKEYIN            EQUALS   15
000177: 26,2024                        NAVKEYIN           EQUALS   16
000178: 26,2024                        CHAN30             EQUALS   30
000179: 26,2024                        CHAN31             EQUALS   31
000180: 26,2024                        CHAN32             EQUALS   32
000181: 26,2024                        CHAN33             EQUALS   33
000182: 26,2024                        DNTM1              EQUALS   34
000183: 26,2024                        DNTM2              EQUALS   35
000184: 26,2024                        CHAN76             EQUALS   76
000185: 26,2024                        CHAN77             EQUALS   77
000186:                                                                                                  #  END OF CHANNEL ASSIGNMENTS
000187:


000189:                                                                                                  #  INTERPRETIVE SWITCH BIT ASSIGNMENTS
000190:
000191:                                                                                                  #              **  FLAGWORDS AND BITS NOW ASSIGNED AND DEFINED IN THEIR OWN LOG SECTION.  **
000192:


000194:                                                                                                  #  GENERAL ERASABLE ASSIGNMENTS.
000195:
000196:    0061                                           SETLOC   61
000197:                                                                                                  #           INTERRUPT TEMPORARY STORAGE POOL.                         (11D)
000198:
000199:                                                                                                  #             (ITEMP1 THROUGH RUPTREG4)
000200:
000201:                                                                                                  #           ANY OF THESE MAY BE USED AS TEMPORARIES DURING INTERRUPT OR WITH INTERRUPT INHIBITED. THE ITEMP SERIES
000202:                                                                                                  #  IS USED DURING CALLS TO THE EXECUTIVE AND WAITLIST - THE RUPTREGS ARE NOT.
000203:
000204:    0061                        ITEMP1             ERASE
000205:    0062     0061               WAITEXIT           EQUALS   ITEMP1
000206:    0062     0061               EXECTEM1           EQUALS   ITEMP1
000207:
000208:    0062                        ITEMP2             ERASE
000209:    0063     0062               WAITBANK           EQUALS   ITEMP2
000210:    0063     0062               EXECTEM2           EQUALS   ITEMP2
000211:
000212:    0063                        ITEMP3             ERASE
000213:    0064     0063               RUPTSTOR           EQUALS   ITEMP3
000214:    0064     0063               WAITADR            EQUALS   ITEMP3
000215:    0064     0063               NEWPRIO            EQUALS   ITEMP3
000216:
000217:    0064                        ITEMP4             ERASE
000218:    0065     0064               LOCCTR             EQUALS   ITEMP4
000219:    0065     0064               WAITTEMP           EQUALS   ITEMP4
000220:
000221:    0065                        ITEMP5             ERASE
000222:    0066     0065               NEWLOC             EQUALS   ITEMP5
000223:
000224:    0066                        ITEMP6             ERASE
000225:                                                                                                  # NEWLOC+1        EQUALS          ITEMP6                  DP ADDRESS.
000226:
000227:    0067                                           SETLOC   67
000228:    0067                        NEWJOB             ERASE                                          #  MUST BE AT LOC 67 DUE TO WIRING.
000229:
000230:
000231:    0070                        RUPTREG1           ERASE
000232:    0071                        RUPTREG2           ERASE
000233:    0072                        RUPTREG3           ERASE
000234:    0073                        RUPTREG4           ERASE
000235:    0074     0073               KEYTEMP1           EQUALS   RUPTREG4
000236:    0074     0073               DSRUPTEM           EQUALS   RUPTREG4
000237:
000238:                                                                                                  #  FLAGWORD RESERVATIONS.                                           (16D)
000239:
000240:    0074                        STATE              ERASE    +15D                                  #  FLAGWORD REGISTERS.
000241:
000242:                                                                                                  #  P25 RADAR STORAGE.  (MAY BE UNSHARED IN E7)  (TEMP OVERLAY)  (2D)  OVERLAYS FLGWRD 14 & 15
000243:


000245:    0114     0112               LASTYCMD           EQUALS   STATE      +14D                       #  B(1)PRM       THESE ARE CALLED BY T4RUPT
000246:    0114     0113               LASTXCMD           EQUALS   LASTYCMD   +1                         #  B(1)PRM       THEY MUST BE CONTIGUOUS, Y FIRST
000247:
000248:
000249:
000250:                                                                                                  #  EXEC TEMPORARIES WHICH MAY BE USED BETWEEN CCS NEWJOBS.  (32D) (INTB15+ THROUGH RUPTMXTM)
000251:    0114                        INTB15+            ERASE                                          #  REFLECTS 15TH BIT OF INDEXABLE ADDRESSES
000252:    0115     0114               DSEXIT             =        INTB15+                               #  RETURN FOR DSPIN
000253:    0115     0114               EXITEM             =        INTB15+                               #  RETURN FOR SCALE FACTOR ROUTINE SELECT
000254:    0115                        INTBIT15           ERASE                                          #  SIMILAR TO ABOVE.
000255:    0116     0115               WDRET              =        INTBIT15                              #  RETURN FOR DSPWD
000256:    0116     0115               DECRET             =        INTBIT15                              #  RETURN FOR PUTCOM(DEC LOAD)
000257:    0116     0115               21/22REG           =        INTBIT15                              #  TEMP FOR CHARIN
000258:
000259:                                                                                                  #  THE REGISTERS BETWEEN ADDRWD AND PRIORITY MUST STAY IN THE FOLLOWING ORDER FOR INTERPRETIVE TRACE.
000260:
000261:    0116                        ADDRWD             ERASE                                          #  12 BIT INTERPRETIVE OPERAND SUB-ADDRESS.
000262:    0117                        POLISH             ERASE                                          #  HOLDS CADR MADE FROM POLISH ADDRESS.
000263:    0120     0117               UPDATRET           =        POLISH                                #  RETURN FOR UPDATNN, UPDATVB
000264:    0120     0117               CHAR               =        POLISH                                #  TEMP FOR CHARIN
000265:    0120     0117               ERCNT              =        POLISH                                #  COUNTER FOR ERROR LIGHT RESET
000266:    0120     0117               DECOUNT            =        POLISH                                #  COUNTER FOR SCALING AND DISPLAY (DEC)
000267:
000268:    0120                        FIXLOC             ERASE                                          #  WORK AREA ADDRESS.
000269:    0121                        OVFIND             ERASE                                          #  SET NON-ZERO ON OVERFLOW.
000270:
000271:    0122                        VBUF               ERASE    +5                                    #  TEMPORARY STORAGE USED FOR VECTORS.
000272:    0130     0122               SGNON              =        VBUF                                  #  TEMP FOR +,- ON
000273:    0130     0122               NOUNTEM            =        VBUF                                  #  COUNTER FOR MIXNOUN FETCH
000274:    0130     0122               DISTEM             =        VBUF                                  #  COUNTER FOR OCTAL DISPLAY VERBS
000275:    0130     0122               DECTEM             =        VBUF                                  #  COUNTER FOR FETCH (DEC DISPLAY VERBS)
000276:
000277:    0130     0123               SGNOFF             =        VBUF       +1                         #  TEMP FOR +,- ON
000278:    0130     0123               NVTEMP             =        VBUF       +1                         #  TEMP FOR NVSUB
000279:    0130     0123               SFTEMP1            =        VBUF       +1                         #  STORAGE FOR SF CONST HI PART(=SFTEMP2-1)
000280:    0130     0123               HITEMIN            =        VBUF       +1                         #  TEMP FOR LOAD OF HRS, MIN, SEC
000281:                                                                                                  #           MUST = LOTEMIN-1.
000282:    0130     0124               CODE               =        VBUF       +2                         #  FOR DSPIN
000283:    0130     0124               SFTEMP2            =        VBUF       +2                         #  STORAGE FOR SF CONST LO PART(=SFTEMP1+1)
000284:    0130     0124               LOTEMIN            =        VBUF       +2                         #  TEMP FOR LOAD OF HRS, MIN, SEC
000285:                                                                                                  #           MUST = HITEMIN+1.
000286:    0130     0125               MIXTEMP            =        VBUF       +3                         #  FOR MIXNOUN DATA
000287:                                                                                                  #  ALSO MIXTEMP+1 = VBUF+4, MIXTEMP+2 = VBUF+5.
000288:
000289:    0130                        BUF                ERASE    +2                                    #  TEMPORARY SCALAR STORAGE.
000290:    0133                        BUF2               ERASE    +1
000291:    0135     0130               INDEXLOC           EQUALS   BUF                                   #  CONTAINS ADDRESS OF SPECIFIED INDEX.
000292:    0135     0130               SWWORD             EQUALS   BUF                                   #  ADDRESS OF SWITCH WORD.
000293:    0135     0131               SWBIT              EQUALS   BUF        +1                         #  SWITCH BIT WITHIN SWITCH WORD.
000294:    0135                        MPTEMP             ERASE                                          #  TEMPORARY USED IN MULTIPLY AND SHIFT.
000295:


000297:    0136     0135               DMPNTEMP           =        MPTEMP                                #  DMPSUB TEMPORARY
000298:    0136                        DOTINC             ERASE                                          #  COMPONENT INCREMENT FOR DOT SUBROUTINE.
000299:    0137     0136               DVSIGN             EQUALS   DOTINC                                #  DETERMINES SIGN OF DDV RESULT.
000300:    0137     0136               ESCAPE             EQUALS   DOTINC                                #  USED IN ARCSIN/ARCCOS.
000301:    0137     0136               ENTRET             =        DOTINC                                #  EXIT FROM ENTER
000302:
000303:    0137                        DOTRET             ERASE                                          #  RETURN FROM DOT SUBROUTINE.
000304:    0140     0137               DVNORMCT           EQUALS   DOTRET                                #  DIVIDEND NORMALIZATION COUNT IN DDV.
000305:    0140     0137               ESCAPE2            EQUALS   DOTRET                                #  ALTERNATE ARCSIN/ARCCOS SWITCH.
000306:    0140     0137               WDCNT              =        DOTRET                                #  CHAR COUNTER FOR DSPWD
000307:    0140     0137               INREL              =        DOTRET                                #  INPUT BUFFER SELECTOR ( X,Y,Z, REG )
000308:
000309:    0140                        MATINC             ERASE                                          #  VECTOR INCREMENT IN MXV AND VXM.
000310:    0141     0140               MAXDVSW            EQUALS   MATINC                                #  +0 IF DP QUOTIENT IS NEAR ONE - ELSE -1.
000311:    0141     0140               POLYCNT            EQUALS   MATINC                                #  POLYNOMIAL LOOP COUNTER
000312:    0141     0140               DSPMMTEM           =        MATINC                                #  DSPCOUNT SAVE FOR DSPMM
000313:    0141     0140               MIXBR              =        MATINC                                #  INDICATOR FOR MIXED OR NORMAL NOUN
000314:
000315:    0141                        TEM1               ERASE                                          #  EXEC TEMP
000316:    0142     0141               POLYRET            =        TEM1
000317:    0142     0141               DSREL              =        TEM1                                  #  REL ADDRESS FOR DSPIN
000318:
000319:    0142                        TEM2               ERASE                                          #  EXEC TEMP
000320:    0143     0142               DSMAG              =        TEM2                                  #  MAGNITUDE STORE FOR DSPIN
000321:    0143                        TEM3               ERASE                                          #  EXEC TEMP
000322:    0144     0143               COUNT              =        TEM3                                  #  FOR DSPIN
000323:
000324:    0144                        TEM4               ERASE                                          #  EXEC TEMP
000325:    0145     0144               RELRET             =        TEM4                                  #  RETURN FOR RELDSP
000326:    0145     0144               DSPWDRET           =        TEM4                                  #  RETURN FOR DSPSIGN
000327:    0145     0144               SEPSCRET           =        TEM4                                  #  RETURN FOR SEPSEC
000328:    0145     0144               SEPMNRET           =        TEM4                                  #  RETURN FOR SEPMIN
000329:
000330:    0145                        TEM5               ERASE                                          #  EXEC TEMP
000331:    0146     0145               NOUNADD            =        TEM5                                  #  TEMP STORAGE FOR NOUN ADDRESS
000332:
000333:    0146                        NNADTEM            ERASE                                          #  TEMP FOR NOUN ADDRESS TABLE ENTRY
000334:    0147                        NNTYPTEM           ERASE                                          #  TEMP FOR NOUN TYPE TABLE ENTRY
000335:    0150                        IDAD1TEM           ERASE                                          #  TEMP FOR INDIR ADRESS TABLE ENTRY(MIXNN)
000336:                                                                                                  #  MUST = IDAD2TEM-1, = IDAD3TEM-2.
000337:    0151                        IDAD2TEM           ERASE                                          #  TEMP FOR INDIR ADRESS TABLE ENTRY(MIXNN)
000338:                                                                                                  #  MUST = IDAD1TEM+1, = IDAD3TEM-1.
000339:    0152                        IDAD3TEM           ERASE                                          #  TEMP FOR INDIR ADRESS TABLE ENTRY(MIXNN)
000340:                                                                                                  #  MUST = IDAD1TEM+2, = IDAD2TEM+1.
000341:    0153                        RUTMXTEM           ERASE                                          #  TEMP FOR SF ROUT TABLE ENTRY(MIXNN ONLY)
000342:
000343:                                                                                                  #  AX*SR*T STORAGE.                                      (6D)
000344:
000345:    0154     0142               DEXDEX             EQUALS   TEM2                                  #  B(1)TMP
000346:    0154     0143               DEX1               EQUALS   TEM3                                  #  B(1)TMP
000347:


000349:    0154     0144               DEX2               EQUALS   TEM4                                  #  B(1)TMP
000350:    0154     0145               RTNSAVER           EQUALS   TEM5                                  #  B(1)TMP
000351:    0154     0157               TERM1TMP           EQUALS   MPAC       +3                         #  B(2)TMP
000352:
000353:    0154     0143               DEXI               =        DEX1
000354:
000355:                                                                                                  #           THE FOLLOWING 10 REGISTERS ARE USED FOR TEMPORARY STORAGE OF THE DERIVATIVE COEFFICIENT TABLE OF
000356:                                                                                                  #  SUBROUTINE ROOTPSRS.   THEY MUST REMAIN WITHOUT INTERFERENCE WITH ITS SUBROUTINES WHICH ARE POWRSERS (POLY).
000357:                                                                                                  #  DMPSUB, DMPNSUB, SHORTMP, DDV/BDDV, ABS, AND USPRCADR.
000358:
000359:    0154     0142               DERCOF-8           =        MPAC       -12                        #  ROOTPSRS DER COF N-4 HI ORDER
000360:    0154     0143               DERCOF-7           =        MPAC       -11                        #  ROOTPSRS DER COF N-4 LO ORDER
000361:    0154     0144               DERCOF-6           =        MPAC       -10                        #  ROOTPSRS DER COF N-3 HI ORDER
000362:    0154     0145               DERCOF-5           =        MPAC       -7                         #  ROOTPSRS DER COF N-3 LO ORDER
000363:    0154     0146               DERCOF-4           =        MPAC       -6                         #  ROOTPSRS DER COF N-2 HI ORDER
000364:    0154     0147               DERCOF-3           =        MPAC       -5                         #  ROOTPSRS DER COF N-2 LO ORDER
000365:    0154     0150               DERCOF-2           =        MPAC       -4                         #  ROOTPSRS DER COF N-1 HI ORDER
000366:    0154     0151               DERCOF-1           =        MPAC       -3                         #  ROOTPSRS DER COF N-1 LO ORDER
000367:    0154     0152               DERCOFN            =        MPAC       -2                         #  ROOTPSRS DER COF N HI ORDER
000368:    0154     0153               DERCOF+1           =        MPAC       -1                         #  ROOTPSRS DER COF N LO ORDER
000369:
000370:    0154     0117               PWRPTR             =        POLISH                                #  ROOTPSRS POWER TABLE POINTER
000371:    0154     0124               DXCRIT             =        VBUF       +2                         #  ROOTPSRS CRITERION FOR ENDING ITERS HI
000372:    0154     0125               DXCRIT+1           =        VBUF       +3                         #  ROOTPSRS CRITERION FOR ENDING ITERS LO
000373:    0154     0126               ROOTPS             =        VBUF       +4                         #  ROOTPSRS ROOT HI ORDER
000374:    0154     0127               ROOTPS+1           =        VBUF       +5                         #  ROOTPSRS ROOT LO ORDER
000375:    0154     0132               RETROOT            =        BUF        +2                         #  ROOTPSRS RETURN ADDRESS OF USER
000376:    0154     0140               PWRCNT             =        MATINC                                #  ROOTPSRS DER TABLE LOOP COUNTER
000377:    0154     0141               DERPTR             =        TEM1                                  #  ROOTPSRS DER TABLE POINTER
000378:


000380:                                                                                                  #  DYNAMICALLY ALLOCATED CORE SETS FOR JOBS.             (84D)
000381:
000382:    0154                        MPAC               ERASE    +6                                    #  MULTI-PURPOSE ACCUMULATOR.
000383:    0163                        MODE               ERASE                                          #  +1 FOR TP, +0 FOR DP, OR -1 FOR VECTOR.
000384:    0164                        LOC                ERASE                                          #  LOCATION ASSOCIATED WITH JOB.
000385:    0165                        BANKSET            ERASE                                          #  USUALLY CONTAINS BBANK SETTING.
000386:    0166                        PUSHLOC            ERASE                                          #  WORD OF PACKED INTERPRETIVE PARAMETERS.
000387:    0167                        PRIORITY           ERASE                                          #  PRIORITY OF PRESENT JOB AND WORK AREA.
000388:
000389:    0170                                           ERASE    +83D                                  #  EIGHT SETS OF 12 REGISTERS EACH
000390:
000391:                                                                                                  #  INCORP STORAGE:  R22 (N29)    (SHARES WITH FOLLOWING SECTION)         (4D)
000392:
000393:    0314     0314               R22DISP            EQUALS   TIME2SAV                              #  I(4) N49 DISPLAY OF DELTA R AND DELTA V
000394:
000395:                                                                                                  #  STANDBY VERB ERASABLES                                                (4D)
000396:
000397:    0314                        TIME2SAV           ERASE    +1
000398:    0316                        SCALSAVE           ERASE    +1
000399:
000400:                                                                                                  #           HARDWARE RESTART COUNTER                                 (1D)
000401:
000402:    0320                        REDOCTR            ERASE                                          #  CONTAINS NUMBER OF RESTARTS
000403:
000404:                                                                                                  #   UNSHARED STORAGE FOR DESIRED GIMBAL ANGLES                       (3D)
000405:
000406:    0321                        THETAD             ERASE    +2
000407:    0324     0321               CPHI               =        THETAD                                #  O     DESIRED GIMBAL ANGLES
000408:    0324     0322               CTHETA             =        THETAD     +1                         #  I     FOR
000409:    0324     0323               CPSI               =        THETAD     +2                         #  M     MANEUVER.
000410:
000411:                                                                                                  #   STORAGE FOR DELTAV/S                                              (6D)
000412:
000413:    0324                        DELV               ERASE    +5
000414:    0332     0324               DELVX              =        DELV
000415:    0332     0326               DELVY              =        DELV       +2
000416:    0332     0330               DELVZ              =        DELV       +4
000417:
000418:                                                                                                  #  WAITLIST REPEAT FLAG                          (1D)
000419:
000420:    0332                        RUPTAGN            ERASE
000421:    0333     0332               KEYTEMP2           =        RUPTAGN                               #  TEMP FOR KEYRUPT, UPRUPT
000422:
000423:                                                                                                  #  DOWNLINK STORAGE.                             (27D)
000424:


000426:    0333                        DNTMERAS           ERASE    +26D                                  #  B(27D)PRM ERASABLES USED BY DOWN-
000427:                                                                                                  #   TELEMETRY PROGRAM -- CANNOT BE SHARED.
000428:
000429:    0366     0333               DNLSTCOD           EQUALS   DNTMERAS                              #  B(1)PRM  CODE SPECIFYING WHICH DOWNLIST
000430:                                                                                                  #         WILL BE SELECTED FOR TRANSMISSION
000431:    0366     0334               CTLIST             EQUALS   DNLSTCOD   +1                         #  B(1)PRM  POINTER TO CURRENT LOCATION OF
000432:                                                                                                  #           THE CONTROL LIST.
000433:    0366     0335               DNTMGOTO           EQUALS   CTLIST     +1                         #  B(1)PRM  POINTER TO LOCATION WHERE DNTM
000434:                                                                                                  #   PROCESSING WILL RESUME NEXT DOWNRUPT.
000435:    0366     0336               DNECADR            EQUALS   DNTMGOTO   +1                         #  B(1)PRM  HOLDS CONTENTS OF CURRENT
000436:                                                                                                  #        CONTROL LIST LOCATION.
000437:    0366     0336               TMINDEX            EQUALS   DNECADR                               #  B(1)  INDEX FOR LOADING SNAPSHOT BUFFER.
000438:    0366     0336               DUMPLOC            EQUALS   DNECADR                               #  B(1)  BITS 1-11 CONTAIN ECADR OF AGC DP
000439:                                                                                                  #   WORD BEING DUMPED BY V74 ERASABLE DUMP.
000440:                                                                                                  #        BITS 12-15 CONTAIN COUNT OF
000441:                                                                                                  #   COMPLETE DUMPS ALREADY SENT.
000442:    0366     0337               SUBLIST            EQUALS   DNECADR    +1                         #  B(1)PRM  POINTER TO CURRENT SUBLIST LOC.
000443:    0366     0340               DNTMBUFF           EQUALS   SUBLIST    +1                         #  B(22)PRM DOWNLINK SNAPSHOT BUFFER
000444:
000445:
000446:                                                                                                  #           UNSWITCHED FOR DISPLAY INTERFACE ROUTINES.    (6D)
000447:
000448:    0366                        NVWORD             ERASE
000449:    0367                        MARKNV             ERASE
000450:    0370                        NVSAVE             ERASE                                          #  PURPOSES)
000451:    0371                        CADRFLSH           ERASE
000452:    0372                        CADRMARK           ERASE
000453:    0373                        TEMPFLSH           ERASE
000454:
000455:
000456:                                                                                                  #           CHANNEL BIT FAILURE PROTECTION WORD - PAD LOADED AS ZERO    (1D)
000457:
000458:    0374                        CHANBKUP           ERASE                                          #  B(1)PRM
000459:
000460:
000461:                                                                                                  #           ALARM CODE REGISTERS                                        (3D)
000462:
000463:    0375                        FAILREG            ERASE    +2                                    #  B(3)PRM  3  ALARM CODE REGISTERS
000464:
000465:                                                                                                  #           VAC AREAS. -BE CAREFUL OF PLACEMENT-          (220D)
000466:
000467:    0400                        VAC1USE            ERASE
000468:    0401                        VAC1               ERASE    +42D
000469:    0454                        VAC2USE            ERASE
000470:    0455                        VAC2               ERASE    +42D
000471:    0530                        VAC3USE            ERASE
000472:    0531                        VAC3               ERASE    +42D
000473:    0604                        VAC4USE            ERASE
000474:    0605                        VAC4               ERASE    +42D
000475:


000477:    0660                        VAC5USE            ERASE
000478:    0661                        VAC5               ERASE    +42D
000479:
000480:
000481:                                                                                                  #           TEMPORARIES USED BY RESTARTS ROUTINE
000482:
000483:    0734     0705               GOLOC              EQUALS   VAC5       +20D                       #  B(4)
000484:
000485:
000486:                                                                                                  #           R59 - STAR ACQUISITION ROUTINE                (1D)
000487:
000488:    0734                        POSCODE            ERASE                                          #  B(1)TMP DETENT POSITION CNTR IN R59
000489:
000490:                                                                                                  #           CALCSMSC                                     (12D)
000491:
000492:    0735                        STARALGN           ERASE    +11D
000493:    0751     0735               SINCDU             =        STARALGN
000494:    0751     0743               COSCDU             =        STARALGN   +6
000495:
000496:    0751     0741               SINCDUX            =        SINCDU     +4
000497:    0751     0735               SINCDUY            =        SINCDU
000498:    0751     0737               SINCDUZ            =        SINCDU     +2
000499:    0751     0747               COSCDUX            =        COSCDU     +4
000500:    0751     0743               COSCDUY            =        COSCDU
000501:    0751     0745               COSCDUZ            =        COSCDU     +2
000502:
000503:
000504:                                                                                                  #           PHASE TABLE AND RESTART COUNTERS.              (12D)
000505:
000506:    0751                        -PHASE1            ERASE
000507:    0752                        PHASE1             ERASE
000508:    0753                        -PHASE2            ERASE
000509:    0754                        PHASE2             ERASE
000510:    0755                        -PHASE3            ERASE
000511:    0756                        PHASE3             ERASE
000512:    0757                        -PHASE4            ERASE
000513:    0760                        PHASE4             ERASE
000514:    0761                        -PHASE5            ERASE
000515:    0762                        PHASE5             ERASE
000516:    0763                        -PHASE6            ERASE
000517:    0764                        PHASE6             ERASE
000518:
000519:                                                                                                  #           A**SR*T STORAGE.                              (6D)
000520:
000521:    0765                        CDUSPOT            ERASE    +5                                    #  B(6)
000522:
000523:    0773     0765               CDUSPOTY           =        CDUSPOT
000524:    0773     0767               CDUSPOTZ           =        CDUSPOT    +2
000525:


000527:    0773     0771               CDUSPOTX           =        CDUSPOT    +4
000528:
000529:
000530:                                                                                                  #           VERB 37 STORAGE.                              (2D)
000531:
000532:    0773                        MINDEX             ERASE                                          #  B(1)TMP INDEX FOR MAJOR MODE
000533:    0774                        MMNUMBER           ERASE                                          #  B(1)TMP MAJOR MODE REQUESTED BY V37
000534:
000535:
000536:                                                                                                  #           PINBALL INTERRUPT ACTION.                     (1D)
000537:
000538:    0775                        DSPCNT             ERASE                                          #  B(1)PRM COUNTER FOR DSPOUT.
000539:
000540:
000541:                                                                                                  #           PINBALL EXECUTIVE ACTION                      (44D)
000542:
000543:    0776                        DSPCOUNT           ERASE                                          #  DISPLAY POSITION INDICATOR.
000544:    0777                        DECBRNCH           ERASE                                          #  +DEC, - DEC, OCT INDICATOR
000545:    1000                        VERBREG            ERASE                                          #  VERB CODE
000546:    1001                        NOUNREG            ERASE                                          #  NOUN CODE
000547:    1002                        XREG               ERASE                                          #  R1 INPUT BUFFER
000548:    1003                        YREG               ERASE                                          #  R2 INPUT BUFFER
000549:    1004                        ZREG               ERASE                                          #  R3 INPUT BUFFER
000550:    1005                        XREGLP             ERASE                                          #  LO PART OF XREG (FOR DEC CONV ONLY)
000551:    1006                        YREGLP             ERASE                                          #  LO PART OF YREG (FOR DEC CONV ONLY)
000552:    1007     1006               HITEMOUT           =        YREGLP                                #  TEMP FOR DISPLAY OF HRS, MIN, SEC
000553:                                                                                                  #           MUST = LOTEMOUT-1.
000554:    1007                        ZREGLP             ERASE                                          #  LO PART OF ZREG (FOR DEC CONV ONLY)
000555:    1010     1007               LOTEMOUT           =        ZREGLP                                #  TEMP FOR DISPLAY OF HRS, MIN, SEC
000556:                                                                                                  #           MUST = HITEMOUT+1.
000557:    1010                        MODREG             ERASE                                          #  MODE CODE
000558:    1011                        DSPLOCK            ERASE                                          #  KEYBOARD/SUBROUTINE CALL INTERLOCK
000559:    1012                        REQRET             ERASE                                          #  RETURN REGISTER FOR LOAD
000560:    1013                        LOADSTAT           ERASE                                          #  STATUS INDICATOR FOR LOADTST
000561:    1014                        CLPASS             ERASE                                          #  PASS INDICATOR CLEAR
000562:    1015                        NOUT               ERASE                                          #  ACTIVITY COUNTER FOR DSPTAB
000563:    1016                        NOUNCADR           ERASE                                          #  MACHINE CADR FOR NOUN
000564:    1017                        MONSAVE            ERASE                                          #  N/V CODE FOR MONITOR. (= MONSAVE1-1)
000565:    1020                        MONSAVE1           ERASE                                          #  NOUNCADR FOR MONITOR(MATBS) =MONSAVE+1
000566:    1021                        MONSAVE2           ERASE                                          #  NVMONOPT OPTIONS
000567:    1022                        DSPTAB             ERASE    +11D                                  #  0-100, DISPLAY PANEL BUFF. 11D, C/S LTS.
000568:    1036                        NVQTEM             ERASE                                          #  NVSUB STORAGE FOR CALLING ADDRESS
000569:                                                                                                  #  MUST = NVBNKTEM-1
000570:    1037                        NVBNKTEM           ERASE                                          #  NVSUB STORAGE FOR CALLING BANK
000571:                                                                                                  #  MUST = NVQTEM+1
000572:    1040                        VERBSAVE           ERASE                                          #  NEEDED FOR RECYCLE
000573:    1041                        CADRSTOR           ERASE                                          #  ENDIDLE STORAGE
000574:    1042                        DSPLIST            ERASE                                          #  WAITING REG FOR DSP SYST INTERNAL USE
000575:    1043                        EXTVBACT           ERASE                                          #  EXTENDED VERB ACTIVITY INTERLOCK
000576:    1044                        DSPTEM1            ERASE    +2                                    #  BUFFER STORAGE AREA 1 (MOSTLY FOR TIME)
000577:


000579:    1047                        DSPTEM2            ERASE    +2                                    #  BUFFER STORAGE AREA 2 (MOSTLY FOR DEG)
000580:
000581:    1052     1050               DSPTEMX            EQUALS   DSPTEM2    +1                         #  B(2) S-S DISPLAY BUFFER FOR EXT. VERBS
000582:    1052     1044               NORMTEM1           EQUALS   DSPTEM1                               #  B(3)DSP NORMAL DISPLAY REGISTERS.
000583:
000584:
000585:
000586:                                                                                                  #           DISPLAY FOR EXTENDED VERBS (V82, R04(V62), V41(N72) )       (2D)
000587:
000588:    1052     1050               OPTIONX            EQUALS   DSPTEMX                               #  (2) EXTENDED VERB OPTION CODE
000589:
000590:                                                                                                  #           TBASES AND PHSPRDT S.                         (12D)
000591:
000592:    1052                        TBASE1             ERASE
000593:    1053                        PHSPRDT1           ERASE
000594:    1054                        TBASE2             ERASE
000595:    1055                        PHSPRDT2           ERASE
000596:    1056                        TBASE3             ERASE
000597:    1057                        PHSPRDT3           ERASE
000598:    1060                        TBASE4             ERASE
000599:    1061                        PHSPRDT4           ERASE
000600:    1062                        TBASE5             ERASE
000601:    1063                        PHSPRDT5           ERASE
000602:    1064                        TBASE6             ERASE
000603:    1065                        PHSPRDT6           ERASE
000604:
000605:
000606:    1066     1055               PIPCTR             =        PHSPRDT2                              #  USED TO COUNT DOWN R10 CYLCES.  USED IN
000607:                                                                                                  #  CONJUNCTION WITH TBASE2, SO THIS
000608:                                                                                                  #  LOCATION IS FUNCTIONALLY =.  SEE R10,R11
000609:
000610:
000611:                                                                                                  #           UNSWITCHED FOR DISPLAY INTERFACE ROUTINES.    (5D)
000612:
000613:    1066                        NVWORD1            ERASE                                          #  B(1) * USED DURING POWERED FLIGHT ONLY *
000614:
000615:    1067                        EBANKSAV           ERASE
000616:    1070     1067               DSPFLG             =        EBANKSAV
000617:    1070                        MARKFLAG           ERASE
000618:    1071                        EBANKTEM           ERASE
000619:    1072                        MARK2PAC           ERASE
000620:
000621:
000622:
000623:                                                                                                  #           CODE WORD FOR AGS RENDEZVOUS DOWNLIST XFER OF RADAR DATA      (1D)
000624:
000625:    1073                        AGSCODE            ERASE                                          #  B(1) DO NOT SHARE.
000626:


000628:                                                                                                  #           IMU COMPENSATION UNSWITCHED ERASABLE.         (1D)
000629:
000630:    1074                        1/PIPADT           ERASE
000631:
000632:                                                                                                  #           TEMPORARIES FOR SPCOS AND SPSIN               (2D)
000633:
000634:    1075                        TEMK               ERASE                                          #  (1)
000635:    1076                        SQ                 ERASE                                          #  (1)
000636:
000637:
000638:                                                                                                  #      **** RADAR ****                                   (13D)
000639:
000640:    1077                        SAMPLIM            ERASE                                          #  B(1)      LR    R12,P60S,R04,R77
000641:    1100     1077               RADUSE             EQUALS   SAMPLIM                               #  B(1)PRM   BOTH  P20,P22,R12,R04
000642:    1100                        SAMPLSUM           ERASE    +3                                    #  B(2),I(2) BOTH
000643:    1104     1100               RRTARGET           EQUALS   SAMPLSUM                              #  I(6)      RR  P20,P22,R04,V41
000644:
000645:    1104                        TIMEHOLD           ERASE    +1                                    #  B(2)      BOTH
000646:    1106                        TANG               ERASE    +1                                    #  B(2),I    RR
000647:    1110     1106               MODEA              EQUALS   TANG                                  #  B(2),I    RR
000648:
000649:    1110                        MODEB              ERASE    +1                                    #  B(2),I    RR
000650:    1112     1110               NSAMP              EQUALS   MODEB                                 #  B(1)      BOTH
000651:
000652:    1112                        DESRET             ERASE                                          #  B(1),I    RR
000653:    1113     1112               OLDATAGD           EQUALS   DESRET                                #  B(1)      BOTH
000654:
000655:    1113                        DESCOUNT           ERASE                                          #  B(1)      RR
000656:
000657:
000658:
000659:                                                                                                  #           ******   P22  ******                         (6D)
000660:
000661:    1114     1100               RSUBC              EQUALS   RRTARGET                              #  I(6)S-S  CSM POSITION VECTOR
000662:


000664:                                                                                                  #           UNSWITCHED FOR ORBIT INTEGRATION.             (21D)
000665:
000666:    1114                        TDEC               ERASE    +20D                                  #  I(2)
000667:    1141     1116               COLREG             EQUALS   TDEC       +2                         #  I(1)
000668:    1141     1117               LAT                EQUALS   COLREG     +1                         #  I(2)
000669:    1141     1121               LONG               EQUALS   LAT        +2                         #  I(2)
000670:    1141     1123               ALT                EQUALS   LONG       +2                         #  I(2)
000671:    1141     1125               YV                 EQUALS   ALT        +2                         #  I(6)
000672:    1141     1133               ZV                 EQUALS   YV         +6                         #  I(6)
000673:
000674:
000675:                                                                                                  #           MISCELLANEOUS UNSWITCHED.                     (20D)
000676:
000677:    1141                        P40/RET            ERASE                                          #  (WILL BE PUT IN E6 WHEN THERE IS ROOM)
000678:    1142                        GENRET             ERASE                                          #  B(1)  R61 RETURN CADR.
000679:    1143                        OPTION1            ERASE                                          #  B(1)   NOUN 06 USES THIS
000680:    1144                        OPTION2            ERASE                                          #  B(1)   NOUN 06 USES THIS
000681:    1145                        OPTION3            ERASE                                          #  B(1)  NOUN 06 USES THIS
000682:    1146                        LONGCADR           ERASE    +1                                    #  B(2)  LONGCALL REGISTER
000683:    1150                        LONGBASE           ERASE    +1
000684:    1152                        LONGTIME           ERASE    +1                                    #  B(2)    LONGCALL REGISTER
000685:    1154                        CDUTEMPX           ERASE                                          #  B(1)TMP
000686:    1155                        CDUTEMPY           ERASE                                          #  B(1)TMP
000687:    1156                        CDUTEMPZ           ERASE                                          #  B(1)TMP
000688:    1157                        PIPATMPX           ERASE                                          #  B(1)TMP
000689:    1160                        PIPATMPY           ERASE                                          #  B(1)TMP
000690:    1161                        PIPATMPZ           ERASE                                          #  B(1)TMP
000691:
000692:    1162                        DISPDEX            ERASE                                          #  B(1)
000693:    1163                        TEMPR60            ERASE                                          #  B(1)
000694:    1164                        PRIOTIME           ERASE                                          #  B(1)
000695:
000696:                                                                                                  #           P27 (UPDATE PROGRAM ) STORAGE.                (26D)
000697:
000698:    1165                        UPVERBSV           ERASE                                          #  B(1) UPDATE VERB ATTEMPTED.
000699:    1166                        UPTEMP             ERASE    +24D                                  #  B(1)TMP SCRATCH
000700:                                                                                                  #  RETAIN THE ORDER OF COMPNUMB THRU UPBUFF +19D FOR DOWNLINK PURPOSES.
000701:    1217     1167               COMPNUMB           EQUALS   UPTEMP     +1                         #  B(1)TMP NUMBER OF ITEMS TO BE UPLINKED
000702:    1217     1170               UPOLDMOD           EQUALS   COMPNUMB   +1                         #  B(1)TMP INTERRUPTED PROGRAM MM
000703:    1217     1171               UPVERB             EQUALS   UPOLDMOD   +1                         #  B(1)TMP VERB NUMBER
000704:    1217     1172               UPCOUNT            EQUALS   UPVERB     +1                         #  B(1)TMP UPBUFF INDEX
000705:    1217     1173               UPBUFF             EQUALS   UPCOUNT    +1                         #  B(20D)
000706:
000707:
000708:
000709:                                                                                                  #           TEMPORARY FOR RESTART PROTECTION IN SERVICER  (2D)
000710:
000711:    1217     1173               DVTEMP             EQUALS   UPBUFF                                #  B(2) TEMP. SAVE DVTOTAL FOR RESTARTS.
000712:


000714:                                                                                                  #  SPECIAL DEFINITION FOR SYSTEM TEST ERASABLE PGMS.     (2D)
000715:
000716:    1217     1166               EBUF2              EQUALS   UPTEMP                                #  B(2) FOR EXCLUSIVE USE OF SYSTEM TEST
000717:
000718:
000719:                                                                                                  #           PERM STATE VECTORS FOR BOOST AND DOWNLINK-WHOLE MISSION- (14D)
000720:
000721:    1217                        RN                 ERASE    +5                                    #  B(6)PRM
000722:    1225                        VN                 ERASE    +5                                    #  B(6)PRM
000723:    1233                        PIPTIME            ERASE    +1                                    #  B(2)PRM  (MUST BE FOLLOWED BY GDT/2)
000724:
000725:
000726:                                                                                                  #           SERVICER   -MUST FOLLOW PIPTIME-             (18D)
000727:
000728:    1235                        GDT/2              ERASE    +17D                                  #  B(6)TMP  ** MUST FOLLOW PIPTIME **
000729:    1257     1243               MASS               EQUALS   GDT/2      +6                         #  B(2)
000730:    1257     1243               WEIGHT/G           =        MASS
000731:    1257     1245               ABDELV             EQUALS   MASS       +2                         #  (1)
000732:    1257     1246               PGUIDE             EQUALS   ABDELV     +1                         #  (2)
000733:    1257     1250               DVTHRUSH           EQUALS   PGUIDE     +2                         #  (1)
000734:    1257     1251               AVEGEXIT           EQUALS   DVTHRUSH   +1                         #   (2)
000735:    1257     1251               AVGEXIT            =        AVEGEXIT
000736:    1257     1253               TEMX               EQUALS   AVEGEXIT   +2                         #   (1)
000737:    1257     1254               TEMY               EQUALS   TEMX       +1                         #   (1)
000738:    1257     1255               TEMZ               EQUALS   TEMY       +1                         #   (1)
000739:    1257     1256               PIPAGE             EQUALS   TEMZ       +1                         #  B(1)
000740:
000741:
000742:
000743:
000744:                                                                                                  #           ALIGNMENT                                    (7D)
000745:
000746:    1257     1235               AOTCODE            EQUALS   GDT/2                                 #  B(1)TMP DOWNLINKED -- STAR CODE
000747:    1257     1235               STARCODE           =        AOTCODE                               #  B(1)TMP DSP N70,N71
000748:    1257     1236               XCOUNT             =        AOTCODE    +1                         #  B(1)TMP DSP N70,N71   X MARK COUNTER
000749:    1257     1237               YCOUNT             =        AOTCODE    +2                         #  B(1)TMP DSP N70,N71   Y MARK COUNTER
000750:
000751:    1257     1240               CURSOR             EQUALS   AOTCODE    +3                         #  B(1)TMP DOWNLNK -- STAR MEASUREMENT QTY
000752:    1257     1241               SPIRAL             EQUALS   CURSOR     +1                         #  B(1)TMP DOWNLNK -- STAR MEASUREMENT QTY
000753:    1257     1241               SITIME             EQUALS   SPIRAL                                #  B(2)TMP TIME USED IN LANDING SITE COMP
000754:
000755:
000756:                                                                                                  #           S34/35.5  TEMPORARY     (2)
000757:
000758:    1257     1235               TMPDV              EQUALS   GDT/2                                 #  B(2) TMP SAVE FOR DVLVC
000759:
000760:
000761:                                                                                                  #           USED FOR SUMMATION OF UPRUPT DURING PRELAUNCH & SYS TEST LEADIN(3D)
000762:
000763:    1257     1245               UPSUM              EQUALS   ABDELV                                #  (3)
000764:


000766:                                                                                                  #            P 76  DISPLAY     N84                        (6D)
000767:    1257     1250               DELVOV             EQUALS   UPSUM      +3                         #  I(6)
000768:
000769:
000770:                                                                                                  #           P76 - P77 STORAGE                              (1D)
000771:
000772:    1257     1235               OPTFLAG            EQUALS   GDT/2                                 #  B(1)TMP  FLAG FOR P76 OR P77
000773:
000774:
000775:                                                                                                  #           PERMANENT LEM DAP STORAGE.                     (5D)
000776:
000777:    1257                        CH5MASK            ERASE                                          #  B(1)PRM
000778:    1260                        CH6MASK            ERASE                                          #  B(1)PRM JET FAILURE MASK.
000779:    1261                        SPNDX              ERASE                                          #  B(1)
000780:    1262                        T5ADR              ERASE    +1                                    #  GENADR OF NEXT LM DAP T5RUPT. * 2CADR *
000781:                                                                                                  #  BBCON  OF NEXT LM DAP T5RUPT.   2CADR
000782:
000783:                                                                                                  #           DISPLAY INTERFACE RESTART PROTECTION STORAGE   (1D)
000784:
000785:    1264                        RESTREG            ERASE                                          #  B(1)PRM
000786:
000787:
000788:                                                                                                  #           ERASABLES FOR RADAR READ PROTECTION (C13STALL)        (4D)
000789:
000790:    1265                        C13QSAV            ERASE                                          #  B(1) QSAVE FOR C13STALL USERS.
000791:    1266                        C13FSAV            ERASE                                          #  B(1) FBANK SAVE FOR C13STALL.
000792:    1267                        RADTIME            ERASE                                          #  B(1) NEG. TIME OF SCALAR READ.
000793:    1270                        RADDEL             ERASE                                          #  B(1) DELTA TIME FROM SCALAR READ TO T5.
000794:
000795:
000796:                                                                                                  #           RADAREAD STORAGE                             (2D)
000797:
000798:    1271                        TTOTIG             ERASE    +1                                    #  B(2) LATEST ESTIMATE OF TIME TO IGNITION
000799:
000800:                                                                                                  #           RCS FAILURE MONITOR STORAGE                   (1)
000801:    1273                        PVALVEST           ERASE                                          #  B(1)PRM
000802:
000803:
000804:                                                                                                  #           KALCMANU/DAP INTERFACE.                       (3D)
000805:
000806:    1274                        DELPEROR           ERASE                                          #  B(1)PRM COMMAND LAGS.
000807:    1275                        DELQEROR           ERASE                                          #  B(1)PRM
000808:    1276                        DELREROR           ERASE                                          #  B(1)PRM
000809:
000810:                                                                                                  #           MODE SWITCHING ERASABLE.                      (9D)
000811:


000813:                                                                                                  #     RETAIN THE ORDER OF IMODES30 AND IMODES33 FOR DOWNLINK PURPOSES,
000814:    1277                        IMODES30           ERASE                                          #  B(1)
000815:    1300                        IMODES33           ERASE
000816:    1301                        MODECADR           ERASE    +2                                    #  B(3)PRM
000817:    1304     1301               IMUCADR            EQUALS   MODECADR
000818:    1304     1302               OPTCADR            EQUALS   MODECADR   +1
000819:    1304     1303               RADCADR            EQUALS   MODECADR   +2
000820:    1304                        ATTCADR            ERASE    +2                                    #  B(3)PRM
000821:    1307     1306               ATTPRIO            =        ATTCADR    +2
000822:    1307                        MARKSTAT           ERASE
000823:
000824:                                                                                                  #           T4RUPT ERASABLE.                              (2D)
000825:
000826:    1310                        DSRUPTSW           ERASE
000827:    1311                        LGYRO              ERASE                                          #  (1)
000828:
000829:                                                                                                  #           RENDEZVOUS RADAR TASK STORAGE                  (3D)
000830:
000831:    1312                        RRRET              ERASE    +2D                                   #  B(1)TMP       P20'S, PERHAPS R29 & R12
000832:    1315     1313               RDES               EQUALS   RRRET      +1                         #  B(1)TMP
000833:    1315     1314               RRINDEX            EQUALS   RDES       +1                         #  B(1)TMP
000834:
000835:
000836:
000837:
000838:                                                                                                  #           MEASUREMENT INCORPORATION                     (4D)
000839:
000840:    1315                        WIXA               ERASE                                          #  B(1)
000841:    1316                        WIXB               ERASE                                          #  B(1)
000842:    1317                        ZIXA               ERASE                                          #  B(1)
000843:    1320                        ZIXB               ERASE                                          #  B(1)
000844:
000845:                                                                                                  #           LANDING RADAR PADLOAD                          (1D)
000846:
000847:    1321     1315               LRWH1              EQUALS   WIXA                                  #  B(1) P.L.  P64 LR WEIGHTING FUNCTION
000848:
000849:
000850:
000851:
000852:                                                                                                  #           AGS DOWNLINK ID CODE FOR RESTART PURPOSES      (1D)
000853:
000854:    1321                        AGSWORD            ERASE
000855:
000856:                                                                                                  #           SOME MISCELLANEOUS UNSWITCHED.                 (6D)
000857:
000858:    1322                        RATEINDX           ERASE                                          #  (1) USED BY KALCMANU
000859:    1323                        DELAYLOC           ERASE    +2
000860:    1326                        LEMMASS            ERASE                                          #  KEEP CONTIGUOUS W. CSMMASS  (1) EACH
000861:    1327                        CSMMASS            ERASE
000862:
000863:                                                                                                  #           LESS IS MORE.
000864:


000866:
000867:                                                                                                  #           RENDEZVOUS AND LANDING RADAR DOWNLINK STORAGE.     (7D)
000868:
000869:                                                                                                  #                  (NORMALLY USED DURING P20, BUT MAY ALSO)
000870:                                                                                                  #                  (BE REQUIRED FOR THE V62 SPURIOUS TEST.)
000871:
000872:                                                                                                  #                     (PLEASE KEEP IN THIS ORDER)
000873:
000874:    1330                        DNRRANGE           ERASE    +6                                    #  B(1) TMP
000875:    1337     1331               DNRRDOT            EQUALS   DNRRANGE   +1                         #  B(1)TMP
000876:    1337     1332               DNINDEX            EQUALS   DNRRDOT    +1                         #  B(1)TMP
000877:    1337     1333               DNLRVELX           EQUALS   DNINDEX    +1                         #  B(1)TMP
000878:    1337     1334               DNLRVELY           EQUALS   DNLRVELX   +1                         #  B(1)TMP
000879:    1337     1335               DNLRVELZ           EQUALS   DNLRVELY   +1                         #  B(1)TMP
000880:    1337     1336               DNLRALT            EQUALS   DNLRVELZ   +1                         #  B(1) TMP
000881:
000882:                                                                                                  #           RADAR -- RR AND LR                             (1D)
000883:
000884:    1337     1332               RADBITS            EQUALS   DNINDEX                               #  B(1)PRM   SHOWS TYPE OF RADAR READ
000885:
000886:
000887:                                                                                                  #           INCORPORATION UNSWITCHED.                      (2D)
000888:
000889:    1337     1256               W.IND              EQUALS   PIPAGE                                #  B(1) TMP -- INDEX IN CLOSED LOOP
000890:
000891:
000892:                                                                                                  #           SUBROUTINE BALLANGS OF R60.                    (1D)
000893:
000894:    1337                        BALLEXIT           ERASE                                          #  B(1) SAVE LOCATION FOR BALLINGS SUBR EXIT
000895:
000896:
000897:                                                                                                  #           SOME LEM DAP STORAGE.                         (4D)
000898:
000899:    1340                        DAPDATR1           ERASE                                          #  B(1)DSP DAP CONFIG.
000900:    1341                        TEVENT             ERASE    +1                                    #  B(2)DSP
000901:    1343                        DB                 ERASE                                          #  B(1) PRM DEAD BAND
000902:    1344     1343               DBVAL1             =        DB                                    #  B(1) PRM
000903:
000904:
000905:
000906:                                                                                                  #       NOUN 87 USED IN R52 AUTO OPTICS                    (2D)
000907:
000908:    1344                        AZ                 ERASE    +1D                                   #  B(1) AZ AND EL MUST BE CONTIGUOUS
000909:    1346     1345               EL                 EQUALS   AZ         +1D                        #  B(1)
000910:
000911:
000912:                                                                                                  #           P63, P64, P65, P66, AND P67.                  (1D)
000913:
000914:    1346                        WCHPHASE           ERASE                                          #  B(1)
000915:


000917:
000918:                                                                                                  #           PADLOADS FOR R2 LUNAR POTENTIAL MODEL.        (2D)
000919:
000920:    1347                        E3J22R2M           ERASE                                          #  I(1)
000921:    1350                        E32C31RM           ERASE                                          #  I(1)
000922:
000923:
000924:
000925:
000926:                                                                                                  #           ERASABLES FOR TRUNNION AND SHAFT COMMANDS     (2D)
000927:
000928:    1351                        TRUNNCMD           ERASE                                          #  *** THESE TWO ERASABLES ***
000929:    1352                        SHAFTCMD           ERASE                                          #  *** MUST BE IN ORDER ***
000930:
000931:
000932:                                                                                                  #           R22 OF P20                                    (1D)
000933:    1353                        WHCHREAD           ERASE                                          #  B(1)TMP MEASUREMENT BEING PROCESSED.
000934:
000935:                                                                                                  #           LANDING PADLOAD                               (1D)
000936:
000937:    1354     1353               ELBIAS             EQUALS   WHCHREAD                              #  B(1) PL LPD ELEVATION BIAS. PI RADIANS.
000938:
000939:                                                                                                  #           P66 PADLOAD                                    (1D)
000940:
000941:    1354                        TOOFEW             ERASE                                          #  B(1) TOO FEW THROTTLINGS PER OMISSION:
000942:                                                                                                  #   ONE LESS THAN NO. THROTTLES REQUIRED
000943:                                                                                                  #    BETWEEN SKIPPED THROTTLES
000944:                                                                                                  #      1466 ALARM IF THROTTLINGS <= TOOFEW
000945:                                                                                                  #           TLOSS INDICATORS FOR DOWNLINK                 (2D)
000946:
000947:    1355                        SERVDURN           ERASE                                          #  B(1)  AT SERVOUT: TIME1 - PIPTIME +1
000948:    1356                        DUMLOOPS           ERASE                                          #  B(1)  LOOP COUNTER IN DUMMYJOB AT ADVAN
000949:
000950:
000951:                                                                                                  #          SELF-CHECK ASSIGNMENTS.                       (17D)
000952:
000953:                                                                                                  #                                  (DO NOT MOVE, S-C IS ADDRESS SENSITIVE)
000954:
000955:    1357                        SELFERAS           ERASE    1357       -          1377            #  *** MUST NOT BE MOVED ***
000956:    1357     1357               SFAIL              EQUALS   SELFERAS                              #  B(1)
000957:    1357     1360               ERESTORE           EQUALS   SFAIL      +1                         #  B(1)
000958:    1357     1361               SELFRET            EQUALS   ERESTORE   +1                         #  B(1)    RETURN
000959:    1357     1362               SMODE              EQUALS   SELFRET    +1                         #  B(1)
000960:    1357     1363               ALMCADR            EQUALS   SMODE      +1                         #  B(2)   ALARM-ABORT USER'S 2CADR
000961:    1357     1365               ERCOUNT            EQUALS   ALMCADR    +2                         #  B(1)
000962:    1357     1366               SCOUNT             EQUALS   ERCOUNT    +1                         #  B(3)
000963:    1357     1371               SKEEP1             EQUALS   SCOUNT     +3                         #  B(1)
000964:    1357     1372               SKEEP2             EQUALS   SKEEP1     +1                         #  B(1)
000965:    1357     1373               SKEEP3             EQUALS   SKEEP2     +1                         #  B(1)
000966:    1357     1374               SKEEP4             EQUALS   SKEEP3     +1                         #  B(1)
000967:


000969:    1357     1375               SKEEP5             EQUALS   SKEEP4     +1                         #  B(1)
000970:    1357     1376               SKEEP6             EQUALS   SKEEP5     +1                         #  B(1)
000971:    1357     1377               SKEEP7             EQUALS   SKEEP6     +1                         #  B(1)
000972:


000974:                                                                                                  #           EBANK-3 ASSIGNMENTS
000975:
000976: E3,1400                                           SETLOC   1400
000977:
000978:                                                                                                  #           WAITLIST TASK LISTS.                          (26D)
000979:
000980: E3,1400                        LST1               ERASE    +7                                    #  B(8D)PRM  DELTA T S.
000981: E3,1410                        LST2               ERASE    +17D                                  #  B(18D)PRM TASK 2CADR ADDRESSES.
000982:
000983:                                                                                                  #           RESTART STORAGE.                              (2D)
000984:
000985: E3,1432                        RSBBQ              ERASE    +1                                    #  B(2)PRM SAVE BB AND Q FOR RESTARTS.
000986:
000987:
000988:                                                                                                  #           MORE LONGCALL STORAGE.(MUST BE IN LST1 S BANK.      (2D)
000989:
000990: E3,1434                        LONGEXIT           ERASE    +1                                    #  B(2)TMP MAY BE SELDOM OVERLAYED.
000991:
000992:
000993:                                                                                                  #           PHASE-CHANGE LISTS PART II.                   (12D)
000994:
000995: E3,1436                        PHSNAME1           ERASE                                          #  B(1)PRM
000996: E3,1437                        PHSBB1             ERASE                                          #  B(1)PRM
000997: E3,1440                        PHSNAME2           ERASE                                          #  B(1)PRM
000998: E3,1441                        PHSBB2             ERASE                                          #  B(1)PRM
000999: E3,1442                        PHSNAME3           ERASE                                          #  B(1)PRM
001000: E3,1443                        PHSBB3             ERASE                                          #  B(1)PRM
001001: E3,1444                        PHSNAME4           ERASE                                          #  B(1)PRM
001002: E3,1445                        PHSBB4             ERASE                                          #  B(1)PRM
001003: E3,1446                        PHSNAME5           ERASE                                          #  B(1)PRM
001004: E3,1447                        PHSBB5             ERASE                                          #  B(1)PRM
001005: E3,1450                        PHSNAME6           ERASE                                          #  B(1)PRM
001006: E3,1451                        PHSBB6             ERASE                                          #  B(1)PRM
001007:
001008:                                                                                                  #           IMU COMPENSATION PARAMETERS.                  (22D)
001009:
001010: E3,1452                        PBIASX             ERASE                                          #  B(1) PIPA BIAS, PIPA SCALE FACTR TERMS
001011: E3,1453  E3,1452               PIPABIAS           =        PBIASX                                #  INTERMIXED.
001012: E3,1453                        PIPASCFX           ERASE
001013: E3,1454  E3,1453               PIPASCF            =        PIPASCFX
001014: E3,1454                        PBIASY             ERASE
001015: E3,1455                        PIPASCFY           ERASE
001016: E3,1456                        PBIASZ             ERASE
001017: E3,1457                        PIPASCFZ           ERASE
001018:
001019: E3,1460                        NBDX               ERASE                                          #  GYRO BIAS DRIFTS
001020: E3,1461                        NBDY               ERASE
001021: E3,1462                        NBDZ               ERASE
001022:


001024: E3,1463                        ADIAX              ERASE                                          #  ACCELERATION SENSITIVE DRIFT ALONG THE
001025: E3,1464                        ADIAY              ERASE                                          #      INPUT AXIS
001026: E3,1465                        ADIAZ              ERASE
001027:
001028: E3,1466                        ADSRAX             ERASE                                          #  ACCELERATION SENSITIVE DRIFT ALONG THE
001029: E3,1467                        ADSRAY             ERASE                                          #      SPIN REFERENCE AXIS
001030: E3,1470                        ADSRAZ             ERASE
001031:
001032: E3,1471                        GCOMP              ERASE    +5                                    #  CONTAINS COMPENSATING TORQUES
001033:
001034: E3,1477  E3,1471               COMMAND            EQUALS   GCOMP
001035: E3,1477  E3,1474               CDUIND             EQUALS   GCOMP      +3
001036:
001037: E3,1477                        GCOMPSW            ERASE
001038:
001039:
001040:
001041:                                                                                                  #           STATE VECTORS FOR ORBIT INTEGRATION.          (44D)
001042:
001043:                                                                                                  #                                  (DIFEQCNT THRU XKEP MUST BE IN SAME
001044:                                                                                                  #                                    EBANK AS RRECTCSM, RRECTLEM ETC
001045:                                                                                                  #                                    BECAUSE THE COPY-CYCLES (ATOPCSM,
001046:                                                                                                  #                                    PTOACSM ETC) ARE EXECUTED IN BASIC.
001047:                                                                                                  #                                      ALL OTHER REFERENCES TO THIS GROUP
001048:                                                                                                  #                                    ARE BY INTERPRETIVE INSTRUCTIONS.)
001049:
001050:
001051: E3,1500                        DIFEQCNT           ERASE    +43D                                  #  B(1)
001052:                                                                                                  #                (UPSVFLAG...XKEP MUST BE KEPT IN ORDER)
001053:
001054: E3,1554  E3,1501               UPSVFLAG           EQUALS   DIFEQCNT   +1                         #  B(1)
001055: E3,1554  E3,1502               RRECT              EQUALS   UPSVFLAG   +1                         #  B(6)
001056: E3,1554  E3,1510               VRECT              EQUALS   RRECT      +6                         #  B(6)
001057: E3,1554  E3,1516               TET                EQUALS   VRECT      +6                         #  B(2)
001058: E3,1554  E3,1520               TDELTAV            EQUALS   TET        +2                         #  B(6)
001059: E3,1554  E3,1526               TNUV               EQUALS   TDELTAV    +6                         #  B(6)
001060: E3,1554  E3,1534               RCV                EQUALS   TNUV       +6                         #  B(6)
001061: E3,1554  E3,1542               VCV                EQUALS   RCV        +6                         #  B(6)
001062: E3,1554  E3,1550               TC                 EQUALS   VCV        +6                         #  B(2)
001063: E3,1554  E3,1552               XKEP               EQUALS   TC         +2                         #  B(2)
001064:
001065:                                                                                                  #           CONIC ROUTINES STORAGE                         (2D)
001066:
001067: E3,1554  E3,1552               XPREV              EQUALS   XKEP                                  #  I(2)TMP
001068:
001069:
001070:                                                                                                  #           PERMANENT STATE VECTORS AND TIMES.            (97D)
001071:
001072:                                                                                                  #           (DO NOT OVERLAY WITH ANYTHING AFTER BOOST)
001073:


001075:                                                                                                  #           (RRECTCSM ...XKEPCSM MUST BE KEPT IN THIS ORDER)
001076:
001077: E3,1554                        RRECTCSM           ERASE    +5                                    #  B(6)PRM CSM VARIABLES.
001078: E3,1562  E3,1554               RRECTOTH           =        RRECTCSM
001079: E3,1562                        VRECTCSM           ERASE    +5                                    #  B(6)PRM
001080: E3,1570                        TETCSM             ERASE    +1                                    #  B(2)PRM
001081: E3,1572  E3,1570               TETOTHER           =        TETCSM
001082: E3,1572                        DELTACSM           ERASE    +5                                    #  B(6)PRM
001083: E3,1600                        NUVCSM             ERASE    +5                                    #  B(6)PRM
001084: E3,1606                        RCVCSM             ERASE    +5                                    #  B(6)PRM
001085: E3,1614                        VCVCSM             ERASE    +5                                    #  B(6)PRM
001086: E3,1622                        TCCSM              ERASE    +1                                    #  B(2)PRM
001087: E3,1624                        XKEPCSM            ERASE    +1                                    #  B(2)PRM
001088:
001089:                                                                                                  #           (RRECTLEM ...XKEPLEM MUST BE KEPT IN THIS ORDER)
001090:
001091: E3,1626                        RRECTLEM           ERASE    +5                                    #  B(6)PRM LEM VARIABLES
001092: E3,1634  E3,1626               RRECTHIS           =        RRECTLEM
001093: E3,1634                        VRECTLEM           ERASE    +5                                    #  B(6)PRM
001094: E3,1642                        TETLEM             ERASE    +1                                    #  B(2)PRM
001095: E3,1644  E3,1642               TETTHIS            =        TETLEM
001096: E3,1644                        DELTALEM           ERASE    +5                                    #  B(6)PRM
001097: E3,1652                        NUVLEM             ERASE    +5                                    #  B(6)PRM
001098: E3,1660                        RCVLEM             ERASE    +5                                    #  B(6)PRM
001099: E3,1666                        VCVLEM             ERASE    +5                                    #  B(6)PRM
001100: E3,1674                        TCLEM              ERASE    +1                                    #  B(2)PRM
001101: E3,1676                        XKEPLEM            ERASE    +1                                    #  B(2)PRM
001102:
001103: E3,1700                        X789               ERASE    +5
001104: E3,1706                        TEPHEM             ERASE    +2
001105: E3,1711                        -AYO               ERASE    +1
001106: E3,1713                        AXO                ERASE    +1
001107:
001108:
001109:                                                                                                  #           STATE VECTORS FOR DOWNLINK.                   (12D)
001110:
001111: E3,1715                        R-OTHER            ERASE    +5                                    #  B(6)PRM POS VECT (OTHER VECH) FOR DNLINK
001112: E3,1723                        V-OTHER            ERASE    +5                                    #  B(6)PRM VEL VECT (OTHER VECH) FOR DNLINK
001113:
001114: E3,1731  E3,1570               T-OTHER            =        TETCSM                                #              TIME (OTHER VECH) FOR DNLINK
001115:
001116:
001117:                                                                                                  #           SERVICER FOR LUNAR ASCENT AND DESCENT         (12D)
001118:
001119: E3,1731  E3,1715               R(CSM)             EQUALS   R-OTHER                               #  I(6) FOR UPDATE OF CM STATE VECS BY LM.
001120: E3,1731  E3,1723               V(CSM)             EQUALS   V-OTHER                               #  I(6)
001121:
001122:
001123:                                                                                                  #           REFSMMAT.                                     (18D)
001124:


001126: E3,1731                        REFSMMAT           ERASE    +17D                                  #  I(18D)PRM
001127:
001128:                                                                                                  #           ACTIVE VEHICLE CENTANG.  MUST BE DISPLAYED ANYTIME (ALMOST.)  (2D)
001129:
001130: E3,1753                        ACTCENT            ERASE    +1                                    #  I(2) S-S CENTRAL ANGLE BETWEEN ACTIVE
001131:                                                                                                  #   VEHICLE AT TPI TIG AND TARGET VECTOR.
001132:
001133:                                                                                                  #        **** USED IN CONICSEX (PLAN INERT ORIENT) ****
001134:
001135: E3,1755  E3,1706               TIMSUBO            EQUALS   TEPHEM                                #  CSEC B-42 (TRIPLE PRECISION)
001136:
001137:
001138:                                                                                                  #           LPS20.1 STORAGE     -ALL ARE PRM-             (9D)
001139:
001140: E3,1755                        LS21X              ERASE                                          #  I(1)
001141: E3,1756                        LOSVEL             ERASE    +5                                    #  I(6)
001142: E3,1764                        MLOSV              ERASE    +1                                    #  I(2) MAGNITUDE OF LOS. METERS B-29
001143:
001144:
001145:                                                                                                  #       ***** P22  *****  (OVERLAYS LPS 20.1 STORAGE)     (6D)
001146: E3,1766  E3,1756               VSUBC              EQUALS   LOSVEL                                #  I(6)S-S  CSM VELOCITY VECTOR
001147:
001148:                                                                                                  #           PADLOADED ERASABLES FOR P20/P22               (6D)
001149:
001150: E3,1766                        RANGEVAR           ERASE    +1                                    #  I(2) RR RANGE ERROR VARIANCE
001151: E3,1770                        RATEVAR            ERASE    +1                                    #  I(2) RR RANGE-RATE ERROR VARIANCE
001152: E3,1772                        RVARMIN            ERASE                                          #  I(1) MINIMUM RANGE ERROR VARIANCE
001153: E3,1773                        VVARMIN            ERASE                                          #  I(1) MINIMUM RANGE-RATE ERROR VARIANCE
001154:
001155:
001156:                                                                                                  #           P32-P33 STORAGE                               (2D)
001157:
001158: E3,1774                        TCDH               ERASE    +1                                    #  I(2) T2 CDH TIME IN CS. (ALSO DOWNLINKED
001159:
001160:                                                                                                  #           TIME SAVE FOR P20 AGS DOWNLIST                (2D)
001161:
Warning:  May overflow memory bank.
001162: E3,1776                        OLDAGS             ERASE    +1                                    #  I(2)
001163:


001165:                                                                                                  #           EBANK-4 ASSIGNMENTS
001166:
001167: E4,1400                                           SETLOC   2000
001168:
001169:                                                                                                  #  E4 IS, FOR THE MOST PART RESERVED FOR PAD LOADED AND UNSHARABLE ERASE.
001170:
001171:                                                                                                  #           P20 STORAGE. -PAD LOADED-                     (6D)
001172:
001173: E4,1400                        WRENDPOS           ERASE                                          #  B(1)PL                            KM*2(-7)
001174: E4,1401                        WRENDVEL           ERASE                                          #  B(1)PL                      KM(-1/2)*2(11)
001175: E4,1402                        WSHAFT             ERASE                                          #  B(1)PL                            KM*2(-7)
001176: E4,1403                        WTRUN              ERASE                                          #  B(1)PL                            KM*2(-7)
001177: E4,1404                        RMAX               ERASE                                          #  B(1)PL                       METERS*2(-19)
001178: E4,1405                        VMAX               ERASE                                          #  B(1)PL                        M/CSEC*2(-7)
001179:
001180:                                                                                                  #           LUNAR SURFACE NAVIGATION -- PAD LOADED --      (2D)
001181:
001182: E4,1406                        WSURFPOS           ERASE                                          #  B(1)PL
001183: E4,1407                        WSURFVEL           ERASE                                          #  B(1)PL
001184:
001185:
001186:                                                                                                  #           P22 STORAGE. -PAD LOADED-                      (2D)
001187:
001188: E4,1410                        SHAFTVAR           ERASE                                          #  B(1)PL                        RAD SQ*2(12)
001189: E4,1411                        TRUNVAR            ERASE                                          #  B(1)PL                        RAD SQ*2(10)
001190:
001191:                                                                                                  #           CONISEX STORAGE.-PAD LOADED-                   (6D)
001192:
001193: E4,1412                        504LM              ERASE    +5                                    #  I(6)MOON LIBRATION VECTOR
001194:
001195:
001196:                                                                                                  #  STORAGE FOR RLS AND TLAND - PAD LOADS - ORDER IS RETAINED FOR UPLINK. (8D)
001197:
001198: E4,1420                        RLS                ERASE    +5                                    #  I(6) LANDING SITE VECTOR - MOON REF.
001199: E4,1426                        TLAND              ERASE    +1                                    #  B(2) NOMINAL LANDING TIME.
001200:
001201:                                                                                                  #           INTEGRATION STORAGE.                          (94D)
001202:
001203: E4,1430                        PBODY              ERASE    +93D                                  #  I(1)
001204: E4,1566  E4,1431               ALPHAV             EQUALS   PBODY      +1                         #  I(6)
001205: E4,1566  E4,1437               BETAV              EQUALS   ALPHAV     +6                         #  I(6)
001206: E4,1566  E4,1445               PHIV               EQUALS   BETAV      +6                         #  I(6)
001207: E4,1566  E4,1453               PSIV               EQUALS   PHIV       +6                         #  I(6)
001208: E4,1566  E4,1461               FV                 EQUALS   PSIV       +6                         #  I(6)    PERTURBING ACCELERATIONS
001209: E4,1566  E4,1467               ALPHAM             EQUALS   FV         +6                         #  I(2)
001210: E4,1566  E4,1471               BETAM              EQUALS   ALPHAM     +2                         #  I(2)
001211: E4,1566  E4,1473               TAU.               EQUALS   BETAM      +2                         #  I(2)
001212:


001214: E4,1566  E4,1475               DT/2               EQUALS   TAU.       +2                         #  I(2)
001215: E4,1566  E4,1477               H                  EQUALS   DT/2       +2                         #  I(2)
001216: E4,1566  E4,1501               IRETURN            EQUALS   H          +2                         #  I(1)
001217: E4,1566  E4,1502               NORMGAM            EQUALS   IRETURN    +1                         #  I(1)
001218: E4,1566  E4,1503               RPQV               EQUALS   NORMGAM    +1
001219: E4,1566  E4,1511               ORIGEX             EQUALS   RPQV       +6                         #  I(1)
001220: E4,1566  E4,1511               KEPRTN             EQUALS   ORIGEX                                #  I(1)
001221: E4,1566  E4,1512               RPSV               EQUALS   ORIGEX     +1                         #  I(6)
001222: E4,1566  E4,1520               XKEPNEW            EQUALS   RPSV       +6                         #  I(2)
001223: E4,1566  E4,1522               VECTAB             EQUALS   XKEPNEW    +2                         #  I(36D)
001224:
001225:
001226:                                                                                                  #           R04 - R77 FAIL COUNTER                        (1D)
001227:
001228: E4,1566                        RFAILCNT           ERASE                                          #  B(1)
001229:
001230:
001231:                                                                                                  #           SERVICER STORAGE   (USED BY ALL POWERED FLIGHT PROGS.)  (18D)
001232:
001233: E4,1567  E4,1536               XNBPIP             EQUALS   VECTAB     +12D                       #  I(6)
001234: E4,1567  E4,1544               YNBPIP             EQUALS   XNBPIP     +6                         #  I(6)
001235: E4,1567  E4,1552               ZNBPIP             EQUALS   YNBPIP     +6                         #  I(6)
001236:
001237:
001238:                                                                                                  #           SOME VERB 82 STORAGE                          (4D)
001239:
001240: E4,1567  E4,1512               HAPOX              EQUALS   RPSV                                  #  I(2)
001241: E4,1567  E4,1514               HPERX              EQUALS   HAPOX      +2                         #  I(2)
001242:
001243:                                                                                                  #           V82 STORAGE                                   (6D)
001244:
001245: E4,1567  E4,1560               VONE'              EQUALS   VECTAB     +30D                       #  I(6)TMP  NORMAL VELOCITY VONE /SQRT. MU
001246:
001247:
001248:                                                                                                  #          R31 (V83) STORAGE. -SHARES WITH INTEGRATION STORAGE-      (26D)
001249:
001250: E4,1567  E4,1503               BASETHV            EQUALS   RPQV                                  #  I(6)     BASE VEL VECTOR THIS VEH
001251:
001252:
001253: E4,1567  E4,1512               BASETIME           EQUALS   RPSV                                  #  I(2)   TIME ASSOC WITH BASE VECTORS
001254: E4,1567  E4,1571               BASEOTV            EQUALS   YLEM                                  #  I(6)    BASE VELOC VECTOR OTHER VEH
001255:
001256:
001257: E4,1567  E4,1530               BASEOTP            EQUALS   VECTAB     +6                         #  I(6)     BASE POS VECTOR OTHER VEH
001258:
001259: E4,1567  E4,1560               BASETHP            EQUALS   VECTAB     +30D                       #  I(6)     BASE POS VECTOR THIS VEH
001260:


001262:                                                                                                  #           KEPLER STORAGE. (KEPLER IS CALLED BY PRECISION INTEGRATION AND (2D)
001263:                                                                                                  #           CONICS)
001264:
001265: E4,1567                        EPSILONT           ERASE    +1                                    #  I(2)
001266:
001267:
001268:                                                                                                  #           R36 STORAGE  (N90)                             (6D)
001269: E4,1571                        YLEM               ERASE    +5                                    #  I(2)
001270: E4,1577  E4,1573               YDOTLEM            EQUALS   YLEM       +2                         #  I(2)
001271: E4,1577  E4,1575               PHILEM             EQUALS   YDOTLEM    +2                         #  I(2)
001272:
001273:
001274:                                                                                                  #           VERB 83 STORAGE.                              (18D)
001275:
001276: E4,1577                        RONE               ERASE    +17D                                  #  I(6)
001277: E4,1621  E4,1605               VONE               EQUALS   RONE       +6                         #  I(6)TMP VECTOR STORAGE.  (SCRATCH)
001278:
001279:
001280: E4,1621  E4,1613               RANGE              EQUALS   VONE       +6                         #  I(2)
001281: E4,1621  E4,1615               RRATE              EQUALS   RANGE      +2                         #  I(2)
001282: E4,1621  E4,1617               RTHETA             EQUALS   RRATE      +2                         #  I(2)
001283:
001284:
001285:                                                                                                  #           VERB 67 STORAGE                               (6D)
001286:
001287: E4,1621  E4,1571               WWPOS              EQUALS   YLEM                                  #  B(2)   NOUN 99  (V67)
001288: E4,1621  E4,1573               WWVEL              EQUALS   WWPOS      +2                         #  B(2)   NOUN 99  (V67)
001289: E4,1621  E4,1575               WWBIAS             EQUALS   WWVEL      +2                         #  B(2)   NOUN 99  (V67)
001290:
001291:
001292:
001293:
001294:                                                                                                  #           V82 STORAGE. (CANNOT OVERLAY RONE OR VONE)    (5D)
001295:
001296: E4,1621  E4,1530               V82FLAGS           EQUALS   VECTAB     +6                         #   (1) FOR V82 BITS.
001297: E4,1621  E4,1531               TFF                EQUALS   V82FLAGS   +1                         #  I(2)
001298: E4,1621  E4,1533               -TPER              EQUALS   TFF        +2                         #  I(2)
001299:
001300:                                                                                                  #           MORE V82 STORAGE.  (CANNOT OVERLAY RONE OR VONE) (6D)
001301:
001302: E4,1621  E4,1571               HPERMIN            EQUALS   YLEM                                  #  I(2)   SET TO 300K FT OR 35K FT SR30.1
001303: E4,1621  E4,1573               RPADTEM            EQUALS   HPERMIN    +2                         #  I(2) PAD OR LANDING RADIUS FOR SR30.1
001304: E4,1621  E4,1575               TSTART82           EQUALS   RPADTEM    +2                         #  I(2) TEMP TIME STORAGE FOR V82.
001305:
001306:
001307:                                                                                                  #           ALIGNMENT PLANETARY-INERTIAL TRANSFORMATION STORAGE.       (18D)
001308:


001310:                                                                                                  #                UNSHARED WHILE LM ON LUNAR SURFACE.
001311:
001312: E4,1621                        GSAV               ERASE    +17D                                  #  I(6)
001313: E4,1643  E4,1627               YNBSAV             EQUALS   GSAV       +6                         #  I(6)
001314: E4,1643  E4,1635               ZNBSAV             EQUALS   YNBSAV     +6                         #  I(6)
001315:
001316:
001317:                                                                                                  #           KALCMANU STORAGE. CAN OVERLAY GSAV.           (18D)
001318:
001319: E4,1643  E4,1621               MFS                EQUALS   GSAV                                  #  I(18)
001320: E4,1643  E4,1621               MFI                EQUALS   MFS                                   #  I
001321: E4,1643  E4,1621               KEL                EQUALS   MFS                                   #  I(18)
001322:
001323:                                                                                                  #           P32-P35, P72-P75 STORAGE.                     (40D)
001324:
001325: E4,1643                        T1TOT2             ERASE    +1                                    #   (2)     TIME FROM CSI TO CDH
001326: E4,1645                        T2TOT3             ERASE    +1                                    #   (2)
001327: E4,1647                        ELEV               ERASE    +1                                    #   (2)
001328: E4,1651                        UP1                ERASE    +5                                    #   (6)
001329: E4,1657                        DELVEET1           ERASE    +5                                    #  I(6)     DV CSI IN REF
001330: E4,1665                        DELVEET2           ERASE    +5                                    #  I(6)     DV CSH IN REF
001331: E4,1673                        RACT1              ERASE    +5                                    #   (6)     POS VEC OF ACTIVE AT CSI TIME
001332: E4,1701                        RACT2              ERASE    +5                                    #   (6)     POS VEC OF ACTIVE AT CDH TIME
001333: E4,1707                        RTSR1/MU           ERASE    +1                                    #   (2)     SQ ROOT 1/MU STORAGE
001334: E4,1711                        RTMU               ERASE    +1                                    #   (2)     MU STORAGE
001335:
001336:
001337:                                                                                                  #           (THE FOLLOWING ERASABLES OVERLAY PORTIONS OF THE PREVIOUS SECTION)
001338:
001339: E4,1713  E4,1643               +MGA               EQUALS   T1TOT2                                #   (2) S-S + MID GIM ANGL TO DELVEET3
001340:
001341:
001342: E4,1713  E4,1651               UNRM               EQUALS   UP1                                   #  I(6) S-S
001343:
001344:
001345: E4,1713  E4,1673               DVLOS              EQUALS   RACT1                                 #  I(6) S-S DELTA VELOCITY,LOS COORD-DISPLA
001346: E4,1713  E4,1701               ULOS               EQUALS   RACT2                                 #  I(6) S-S UNIT LINE OF SIGHT VECTOR
001347:
001348:
001349: E4,1713  E4,1707               NOMTPI             EQUALS   RTSR1/MU                              #  (2) S-S NOMINAL TPI TIME FOR RECYCLE
001350:
001351:
001352:                                                                                                  #           SOME P30 STORAGE.                             (4D)
001353:
001354: E4,1713  E4,1707               HAPO               EQUALS   RTSR1/MU                              #  I(2)
001355: E4,1713  E4,1711               HPER               EQUALS   HAPO       +2                         #  I(2)
001356:


001358:                                                                                                  #           THE FOLLOWING ARE ERASABLE LOADS DURING A PERFORMANCE TEST.
001359:
001360: E4,1713  E4,1400               TRANSM1            EQUALS   WRENDPOS                              #  E4,1400
001361: E4,1713  E4,1422               ALFDK              EQUALS   TRANSM1    +18D
001362:
001363:
001364:                                                                                                  #  ******* THE FOLLOWING SECTIONS OVERLAY V83 AND DISPLAY STORAGE *******
001365:
001366:
001367:                                                                                                  #           V47(R47)AGS INITIALIZATION PROGRAM STORAGE.  (OVERLAYS V83) (14D)
001368:
001369: E4,1713  E4,1571               AGSBUFF            EQUALS   YLEM                                  #  B(14)
001370: E4,1713  E4,1606               AGSBUFFE           EQUALS   AGSBUFF    +13D                       #  ENDMARK
001371:
001372:
001373:                                                                                                  #           R36 OUT-OF-PLANE RENDEZVOUS DISPLAY STORAGE.  (OVERLAYS V83)  (12D)
001374:
001375: E4,1713  E4,1577               RPASS36            EQUALS   RONE                                  #  I(6) S-S
001376: E4,1713  E4,1605               UNP36              EQUALS   RPASS36    +6                         #  I(6) S-S
001377:
001378:
001379:                                                                                                  #           S-BAND ANTENNA GIMBAL ANGLES. DISPLAYED BY R05(V64). (OVERLAYS V83)        (10D)
001380:
001381:
001382: E4,1713  E4,1571               ALPHASB            EQUALS   YLEM                                  #  B(2)  DSP NOUN 51 PITCH ANGLE
001383: E4,1713  E4,1573               BETASB             EQUALS   ALPHASB    +2                         #  B(2)DSP NOUN 51. YAW ANGLE.
001384: E4,1713  E4,1575               RLM                EQUALS   BETASB     +2                         #  I(6)S    S/C POSITION VECTOR.
001385:
001386:                                                                                                  #           **** USED IN S-BAND ANTENNA FOR LM ****        (4D)
001387:
001388: E4,1713  E4,1571               PITCHANG           EQUALS   ALPHASB                               #  I(2) PITCH/ANTENNA GIMBAL ANGLE REQUIRED
001389: E4,1713  E4,1573               YAWANG             EQUALS   BETASB                                #  I(2) YAW  /TO POINT LM STEERABLE ANTENNA
001390:                                                                                                  #            /TOWARD CENTER OF EARTH
001391:                                                                                                  #           NOUN 56 DATA - COMPUTED AND DISPLAYED BY VERB 85. (4)
001392:
001393: E4,1713  E4,1571               RR-AZ              EQUALS   PITCHANG                              #  I(2) ANGLE BETWEEN LOS AND X-Z PLANE.
001394: E4,1713  E4,1573               RR-ELEV            EQUALS   RR-AZ      +2                         #  I(2) ANGLE BETWEEN LOS AND Y-Z PLANE.
001395:
001396:                                                                                                  #           R04(V62) RADAR TEST STORAGE.                  (8D)
001397:
001398:
001399: E4,1713  E4,1571               RSTACK             EQUALS   YLEM                                  #  B(8) BUFFER FOR R04 NOUNS
001400:
001401:
001402:
001403:                                                                                                  #           INITVEL STORAGE.  ALSO USED BY P31,P34,P35,P74,P75,P10,P11,MIDGIM,S40.1 AND S40.9. (18D)
001404:
001405:                                                                                                  #                   (POSSIBLY RINIT & VINIT CAN OVERLAY DELVEET1 & 2 ABOVE)
001406: E4,1713                        RINIT              ERASE    +5                                    #  I(6) ACTIVE VEHICLE POSITION
001407: E4,1721                        VINIT              ERASE    +5                                    #  I(6) ACTIVE VEHICLE VELOCITY
001408:


001410: E4,1727                        VIPRIME            ERASE    +5                                    #  I(6) NEW VEL REQUIRED AT INITIAL RADIUS.
001411:
001412:                                                                                                  #   BALLANGS-AUTOMATIC MANEUVER -- R60,(N18              (3D)
001413:
001414: E4,1735                        FDAIX              ERASE                                          #  I(1)
001415: E4,1736                        FDAIY              ERASE                                          #  I(1)
001416: E4,1737                        FDAIZ              ERASE                                          #  I(1)
001417:
001418:
001419:                                                                                                  #           P34-P35 STORAGE.  DOWNLINKED.                 (2D)
001420:
001421: E4,1740                        DELVTPF            ERASE    +1                                    #  I(2) DELTA V FOR TPF
001422:
001423:
001424:                                                                                                  #           LPS20.1 STORAGE.  CALLED BY R65.              (12D)
001425:
001426: E4,1742                        LMPOS              ERASE    +5                                    #  I(6)TEMP. STORAGE FOR LM POS. VECTOR.
001427: E4,1750                        LMVEL              ERASE    +5                                    #  I(6)TEMP. STORAGE FOR LM VEL. VECTOR.
001428:
001429:                                                                                                  #  INITVEL STORAGE.  ALSO USED BY P31,34,35,74,75,S40.1 AND DOWNLINKED.  (6D)
001430:
001431: E4,1756                        DELVEET3           ERASE    +5                                    #  I(6) DELTA V IN INERTIAL COORDINATES.
001432:
001433:
001434:                                                                                                  #           SOME R04(V63)-R77 STORAGE.                    (5D)
001435:
001436: E4,1764                        RTSTDEX            ERASE                                          #  B(1)
001437: E4,1765                        RTSTMAX            ERASE                                          #  B(1)
001438: E4,1766                        RTSTBASE           ERASE                                          #  B(1)
001439: E4,1767                        RTSTLOC            ERASE                                          #  B(1)
001440: E4,1770                        RSAMPDT            ERASE                                          #  B(1)
001441:
001442:
001443:                                                                                                  #           SECOND DPS GUIDANCE  (LUNAR LANDING) (OVERLAYS KALCMANU & P57) (6D)
001444:
001445: E4,1771  E4,1621               ANGTERM            =        GSAV                                  #  I(6)     GUIDANCE
001446:
001447:
001448:
001449:
001450:                                                                                                  #           ASCENT GUIDANCE FOR LUNAR LANDING             (54D)
001451:
001452: E4,1771  E4,1653               AT                 EQUALS   UP1        +2                         #  I(2)TMP ENGINE DATA -- THRUST ACC*2 (9)
001453: E4,1771  E4,1655               VE                 EQUALS   AT         +2                         #  I(2)TMP  EXHAUST VELOCITY * 2(7)M/CS.
001454: E4,1771  E4,1657               TTO                EQUALS   VE         +2                         #  I(2)TMP  TAILOFF TIME * 2(17)CS.
001455: E4,1771  E4,1661               TBUP               EQUALS   TTO        +2                         #  I(2)TMP  (M/MDOT) * 2(17)CS.
001456: E4,1771  E4,1663               RDOTD              EQUALS   TBUP       +2                         #  I(2)TMP  TARGET VELOCITY COMPONENTS
001457: E4,1771  E4,1665               YDOTD              EQUALS   RDOTD      +2                         #  I(2)TMP SCALING IS 2(7)M/CS.
001458: E4,1771  E4,1667               ZDOTD              EQUALS   YDOTD      +2                         #  I(2)TMP
001459:


001461: E4,1771  E4,1671               /R/MAG             EQUALS   ZDOTD      +2                         #  I(2)TMP
001462: E4,1771  E4,1673               LAXIS              EQUALS   /R/MAG     +2                         #  I(6)TMP
001463:
001464:
001465: E4,1771  E4,1701               YDOT               =        LAXIS      +6                         #  I(2)TMP VEL. NORMAL TO REF. PLANE*2(-7)
001466: E4,1771  E4,1703               ZDOT               EQUALS   YDOT       +2                         #  I(2)TMP  DOWN RANGE VEL *2(-7).
001467: E4,1771  E4,1705               GEFF               EQUALS   ZDOT       +2                         #  I(2)TMP  EFFECTIVE GRAVITY
001468:
001469:                                                                                                  #     THESE TWO GROUPS OF ASCENT GUIDANCE ARE SPLIT BY THE ASCENT-DESCENT SERVICER SECTION FOLLOWING THIS SECTION
001470:
001471: E4,1771  E4,1725               Y                  EQUALS   /LAND/     +2                         #  I(2)TMP  OUT-OF-PLANE DIST *2(24)M
001472: E4,1771  E4,1727               DRDOT              EQUALS   Y          +2                         #  I(2)TMP  RDOTD - RDOT
001473: E4,1771  E4,1731               DYDOT              EQUALS   DRDOT      +2                         #  I(2)TMP  YDOTD - YDOT
001474: E4,1771  E4,1733               DZDOT              EQUALS   DYDOT      +2                         #  I(2)TMP  ZDOTD - ZDOT
001475: E4,1771  E4,1735               PCONS              EQUALS   DZDOT      +2                         #  I(2)TMP  CONSTANT IN ATR EQUATION
001476: E4,1771  E4,1737               YCONS              EQUALS   PCONS      +2                         #  I(2)TMP  CONSTANT IN ATY EQUATION
001477: E4,1771  E4,1741               PRATE              EQUALS   YCONS      +2                         #  I(2)TMP  RATE COEFF. IN ATR EQUATION
001478: E4,1771  E4,1743               YRATE              EQUALS   PRATE      +2                         #  I(2)TMP  RATE COEFF. IN ATY EQUATION
001479: E4,1771  E4,1745               ATY                EQUALS   YRATE      +2                         #  I(2)TMP  OUT-OF-PLANE THRUST COMP.*2(9)
001480: E4,1771  E4,1747               ATR                EQUALS   ATY        +2                         #  I(2)TMP  RADIAL THRUST COMP.* 2(9)
001481: E4,1771  E4,1751               ATP                EQUALS   ATR        +2                         #  I(2)TMP  DOWN-RANGE THRUST COMP
001482: E4,1771  E4,1753               YAW                EQUALS   ATP        +2                         #  I(2)TMP
001483: E4,1771  E4,1755               PITCH              EQUALS   YAW        +2                         #  I(2)TMP
001484:
001485:
001486:                                                                                                  #           SERVICER FOR LUNAR ASCENT AND DESCENT         (14D)
001487:
001488: E4,1771  E4,1707               G(CSM)             EQUALS   GEFF       +2                         #  I(6) FOR UPDATE OF COMMAND MODULE STATE
001489:                                                                                                  # R(CSM)          EQUALS          R-OTHER                      VECTORS BY LEM; ANALOGS OF GDT/2,
001490:                                                                                                  # V(CSM)          EQUALS          V-OTHER                      R, AND V, RESPECTIVELY OF THE CSM
001491: E4,1771  E4,1715               WM                 EQUALS   G(CSM)     +6                         #  I(6) TMP - LUNAR ROTATION VECTOR (SM)
001492: E4,1771  E4,1723               /LAND/             EQUALS   WM         +6                         #  B(2) LUNAR RADIUS AT LANDING SITE
001493:
001494:
001495:                                                                                                  #           NOTE:  R(CSM) AND V(CSM) DEFINED IN E3.
001496:                                                                                                  #           NOUN 26 ERASABLES      (UNSHARED)             (3D)
001497:
001498: E4,1771  E4,1771               N26/PRI            EQUALS   RSAMPDT    +1                         #  B(1)  PRIO/DELAY
001499: E4,1771  E4,1772               N26/2CAD           EQUALS   N26/PRI    +1                         #  B(1)  JOB/TASK 2CADR
001500:


001502:                                                                                                  #           EBANK-5 ASSIGNMENTS
001503:
001504: E5,1400                                           SETLOC   2400
001505:
001506:                                                                                                  #           W-MATRIX. ESSENTIALLY UNSHARABLE.            (162D)
001507:
001508: E5,1400                        W                  ERASE    +161D
001509: E5,1642  E5,1642               ENDW               EQUALS   W          +162D
001510:
001511:
001512:
001513:                                                                                                  #  ******* OVERLAY NUMBER 1 IN EBANK 5 *******
001514:
001515:
001516:                                                                                                  #          W-MATRIX OVERLAY: PADLOADS -- LANDING, ABORTS               (122D)
001517: E5,1642  E5,1400               VELBIAS            EQUALS   W                                     #  I(2) PL BIAS VALUE FOR VELOCITY.
001518:                                                                                                  #  REASONABILITY TEST, 2(6) M/CS
001519:                                                                                                  #  PLEASE PRESERVE THE ORDER OF RBRFGX THROUGH TCGIAPPR.
001520: E5,1642  E5,1402               RBRFGX             EQUALS   VELBIAS    +2                         #  I(2)  POSITION TARGETS
001521: E5,1642  E5,1404               RAPFGX             EQUALS   RBRFGX     +2                         #  I(2)
001522: E5,1642  E5,1406               RBRFGZ             EQUALS   RAPFGX     +2                         #  I(2)
001523: E5,1642  E5,1410               RAPFGZ             EQUALS   RBRFGZ     +2                         #  I(2)
001524: E5,1642  E5,1412               VBRFGX             EQUALS   RAPFGZ     +2                         #  I(2)  VELOCITY TARGETS
001525: E5,1642  E5,1414               VAPFGX             EQUALS   VBRFGX     +2                         #  I(2)
001526: E5,1642  E5,1416               VBRFGZ             EQUALS   VAPFGX     +2                         #  I(2)
001527: E5,1642  E5,1420               VAPFGZ             EQUALS   VBRFGZ     +2                         #  I(2)
001528: E5,1642  E5,1422               ABRFGX             EQUALS   VAPFGZ     +2                         #  I(2)  ACCELERATION TARGETS
001529: E5,1642  E5,1424               AAPFGX             EQUALS   ABRFGX     +2                         #  I(2)
001530: E5,1642  E5,1426               ABRFGZ             EQUALS   AAPFGX     +2                         #  I(2)
001531: E5,1642  E5,1430               AAPFGZ             EQUALS   ABRFGZ     +2                         #  I(2)
001532: E5,1642  E5,1432               VBRFG*             EQUALS   AAPFGZ     +2                         #  I(2)  SCALED TARGETS FOR TTF/8CL
001533: E5,1642  E5,1434               VAPFG*             EQUALS   VBRFG*     +2                         #  I(2)
001534: E5,1642  E5,1436               ABRFG*             EQUALS   VAPFG*     +2                         #  I(2)
001535: E5,1642  E5,1440               AAPFG*             EQUALS   ABRFG*     +2                         #  I(2)
001536: E5,1642  E5,1442               JBRFG*             EQUALS   AAPFG*     +2                         #  I(2)
001537: E5,1642  E5,1444               JAPFG*             EQUALS   JBRFG*     +2                         #  I(2)
001538:                                                                                                  #                      * SEE PARAMETER TABLE IN LUNAR LANDING GUIDANCE EQUATIONS FOR
001539:                                                                                                  #                                    INDIRECT ADDRESSING INTO ABOVE AREA.
001540:
001541: E5,1642  E5,1446               GAINBRAK           EQUALS   JAPFG*     +2                         #  I(2)  GAINS FOR GUIDANCE FRAME ERECTION
001542: E5,1642  E5,1450               GAINAPPR           EQUALS   GAINBRAK   +2                         #  I(2)
001543: E5,1642  E5,1452               TCGFBRAK           EQUALS   GAINAPPR   +2                         #  I(2)  TIME CRITERIA FOR GUIDANCE FRAME
001544: E5,1642  E5,1453               TCGIBRAK           EQUALS   TCGFBRAK   +1                         #  I(1)
001545: E5,1642  E5,1454               TCGFAPPR           EQUALS   TCGIBRAK   +1                         #  I(1)
001546: E5,1642  E5,1455               TCGIAPPR           EQUALS   TCGFAPPR   +1                         #  I(1)
001547: E5,1642  E5,1456               VIGN               EQUALS   TCGIAPPR   +1                         #  I(2)  DESIRED SPEED FOR PDI
001548: E5,1642  E5,1460               RIGNX              EQUALS   VIGN       +2                         #  I(2)  DESIRED 'ALTITUDE' FOR IGNITION
001549: E5,1642  E5,1462               RIGNZ              EQUALS   RIGNX      +2                         #  I(2)  DESIRED GROUND RANGE FOR IGNITION
001550: E5,1642  E5,1464               KIGNX/B4           EQUALS   RIGNZ      +2                         #  I(2)
001551:


001553: E5,1642  E5,1466               KIGNY/B8           EQUALS   KIGNX/B4   +2                         #  I(2)
001554: E5,1642  E5,1470               KIGNV/B4           EQUALS   KIGNY/B8   +2                         #  I(2)
001555: E5,1642  E5,1472               LOWCRIT            EQUALS   KIGNV/B4   +2                         #  B(1) (HIGHCRIT MUST FOLLOW LOWCRIT)
001556: E5,1642  E5,1473               HIGHCRIT           EQUALS   LOWCRIT    +1                         #  B(1)
001557: E5,1642  E5,1474               TAUHZ              EQUALS   HIGHCRIT   +1                         #  P66 HORIZONTAL
001558: E5,1642  E5,1475               QHZ                EQUALS   TAUHZ      +1                         #      VELOCITY NULLING
001559: E5,1642  E5,1476               AHZLIM             EQUALS   QHZ        +1                         #        CONSTANTS
001560: E5,1642  E5,1477               2LATE466           EQUALS   AHZLIM     +1                         #  I(2) MIN ELAPSED TIME SINCE PIPTIME ERE
001561:                                                                                                  #  A P66(2 R/D) WILL BE OMITTED
001562: E5,1642  E5,1503               DELQFIX            EQUALS   2LATE466   +4                         #  I(2)  LR ALT. DATA REASONABILITY PARAM
001563:
001564:                                                                                                  #                ** NOTE: 6 ERASABLES HERE IN THIS "LANDING/ABORTS" OVERLAY ARE FREE
001565:                                                                                                  #                         THEY SHARE ONLY WITH W-MATRIX AND SYSTEM TEST ERASABLES    **
001566:
001567: E5,1642  E5,1511               LRVMAX             EQUALS   DELQFIX    +6                         #  B(1)   LR VEL WEIGHTING FUNCTIONS
001568: E5,1642  E5,1512               LRVF               EQUALS   LRVMAX     +1                         #  B(1)   LR VEL WEIGHTING FUNCTIONS
001569: E5,1642  E5,1513               LRWVZ              EQUALS   LRVF       +1                         #  B(1)   LR VEL WEIGH ING FUNCTIONS
001570: E5,1642  E5,1514               LRWVY              EQUALS   LRWVZ      +1                         #  B(1)   LR VEL WEIGH ING FUNCTIONS
001571: E5,1642  E5,1515               LRWVX              EQUALS   LRWVY      +1                         #  B(1)   LR VEL WEIGH ING FUNCTIONS
001572: E5,1642  E5,1516               LRWVFZ             EQUALS   LRWVX      +1                         #  B(1)   LR VEL WEIGH ING FUNCTIONS
001573: E5,1642  E5,1517               LRWVFY             EQUALS   LRWVFZ     +1                         #  B(1)   LR VEL WEIG  ING FUNC IONS
001574: E5,1642  E5,1520               LRWVFX             EQUALS   LRWVFY     +1                         #  B(1)   LR VEL WEIG  ING FUNC IONS
001575: E5,1642  E5,1521               LRWVFF             EQUALS   LRWVFX     +1                         #  B(1)   LR VEL WEIG  ING FUNC IONS
001576:
001577: E5,1642  E5,1522               ABSC0              EQUALS   LRWVFF     +1                         #  B(1)  ABSCISSAE DEFINING TERRAIN MODEL
001578: E5,1642  E5,1523               ABSC1              EQUALS   ABSC0      +1                         #  B(1)
001579: E5,1642  E5,1524               ABSC2              EQUALS   ABSC1      +1                         #  B(1)
001580: E5,1642  E5,1525               ABSC3              EQUALS   ABSC2      +1                         #  B(1)
001581: E5,1642  E5,1526               ABSC4              EQUALS   ABSC3      +1                         #  B(1)
001582: E5,1642  E5,1527               SLOPE0             EQUALS   ABSC4      +1                         #  B(1)  SLOPES DEFINING TERRAIN MODEL
001583: E5,1642  E5,1530               SLOPE1             EQUALS   SLOPE0     +1                         #  B(1)
001584: E5,1642  E5,1531               SLOPE2             EQUALS   SLOPE1     +1                         #  B(1)
001585: E5,1642  E5,1532               SLOPE3             EQUALS   SLOPE2     +1                         #  B(1)
001586: E5,1642  E5,1533               SLOPE4             EQUALS   SLOPE3     +1                         #  B(1)
001587:
001588: E5,1642     0130               ABVEL*             EQUALS   BUF                                   #  B(1)   LR TEMP
001589: E5,1642     0131               VSELECT*           EQUALS   BUF        +1                         #  B(1)   LR TEMP
001590:
001591: E5,1642  E5,1534               RODSCALE           EQUALS   SLOPE4     +1                         #  I(1) CLICK SCALE FACTOR FOR R.O.D.
001592: E5,1642  E5,1535               TAUROD             EQUALS   RODSCALE   +1                         #  I(2) TIME CONSTANT FOR R.O.D.
001593: E5,1642  E5,1537               LAG/TAU            EQUALS   TAUROD     +2                         #  I(2) LAG TIME DIVIDED BY TAUROD (P66)
001594: E5,1642  E5,1541               MINFORCE           EQUALS   LAG/TAU    +2                         #  I(2) MINIMUM FORCE P66 WILL COMMAND.
001595: E5,1642  E5,1543               MAXFORCE           EQUALS   MINFORCE   +2                         #  I(2) MAXIMUM FORCE P66 WILL COMMAND.
001596: E5,1642  E5,1545               J1PARM             EQUALS   MAXFORCE   +2                         #  I(2) PARAMETER SET # 1:
001597: E5,1642  E5,1547               K1PARM             EQUALS   J1PARM     +2                         #  I(2)    ABORT ORBIT SEMI-MAJOR AXIS COMP
001598: E5,1642  E5,1551               J2PARM             EQUALS   K1PARM     +2                         #  I(2) PARAMETER SET # 2:
001599: E5,1642  E5,1553               K2PARM             EQUALS   J2PARM     +2                         #  I(2)    ABORT ORBIT SEMI-MAJOR AXIS COMP
001600: E5,1642  E5,1555               THETCRIT           EQUALS   K2PARM     +2                         #  I(2) CENTRAL ANGLE SWITCHING CRITERION.
001601: E5,1642  E5,1557               RAMIN              EQUALS   THETCRIT   +2                         #  I(2) MINIMUM ALLOWABLE APOLUNE.
001602: E5,1642  E5,1561               YLIM               EQUALS   RAMIN      +2                         #  I(2) MAXIMUM CROSS-RANGE DIST. IN ABORTS
001603:


001605: E5,1642  E5,1563               ABTRDOT            EQUALS   YLIM       +2                         #  I(2) DESIRED RADIAL VEL. FOR ABORTS.
001606: E5,1642  E5,1565               COSTHET1           EQUALS   ABTRDOT    +2                         #  I(2) COS OF CONE 1 ANGLE FOR ABORTS
001607: E5,1642  E5,1567               COSTHET2           EQUALS   COSTHET1   +2                         #  I(2) COS OF CONE 2 ANGLE FOR ABORTS.
001608:
001609:
001610:                                                                                                  #           SOME VARIABLES FOR SECOND DPS GUIDANCE       (38D)
001611:
001612: E5,1642  E5,1571               CG                 EQUALS   COSTHET2   +2                         #  I(18D) GUIDANCE
001613: E5,1642  E5,1613               RANGEDSP           EQUALS   CG         +18D                       #  B(2) DISPLAY
001614: E5,1642  E5,1613               OUTOFPLN           EQUALS   RANGEDSP                              #  *** OUTOFPLN CAN OVERLAY RANGEDSP ***
001615: E5,1642  E5,1615               VBIAS              EQUALS   OUTOFPLN   +2                         #  I(6) PIPA BIAS EQUIV VELOCITY VECTOR
001616: E5,1642  E5,1623               RGU                EQUALS   VBIAS      +6                         #  I(6) UNSHARED POSITION, GUIDANCE COORDS
001617: E5,1642  E5,1631               DLAND              EQUALS   RGU        +6                         #  B(6) PL LANDING SITE CORRECTION,SM FRAME
001618: E5,1642  E5,1631               DLANDX             EQUALS   DLAND
001619: E5,1642  E5,1633               DLANDY             EQUALS   DLAND      +2
001620: E5,1642  E5,1635               DLANDZ             EQUALS   DLAND      +4
001621:
001622:                                                                                                  #                OVERLAYS OF THE BLOCK ABOVE (ASCENT AND DESCENT)
001623:
001624: E5,1642  E5,1571               JPARM              EQUALS   CG                                    #  I(2) JPARM WILL EQUAL J1PARM OR J2PARM
001625: E5,1642  E5,1573               KPARM              EQUALS   JPARM      +2                         #  I(2) KPARM WILL EQUAL K1PARM OR K2PARM
001626: E5,1642  E5,1575               RP                 EQUALS   KPARM      +2                         #  I(2) PREDICTED BURNOUT RADIUS-M*2(-24)
001627: E5,1642  E5,1577               QAXIS              EQUALS   RP         +2                         #  I(6) ASCENT CROSSRANGE HALF-UNIT VECTOR
001628: E5,1642  E5,1605               ZAXIS1             EQUALS   QAXIS      +6                         #  I(6) ASCENT DOWNRANGE HALF-UNIT VECTOR
001629: E5,1642     0130               L*WCR*T            =        BUF
001630: E5,1642     0131               H*GHCR*T           =        BUF        +1
001631:
001632:
001633:                                                                                                  #           Q-SAVE REGISTER FOR ASCENT                    (1D)
001634:
001635: E5,1642  E5,1637               ASCSAVE            EQUALS   DLAND      +6                         #  I(1)TMP ASCENT Q-SAVE
001636:
001637:
001638:                                                                                                  #           ALIGNMENT/SYSTEST/CALCSMSC COMMON STORAGE.    (36D)
001639:
001640: E5,1642  E5,1642               XSM                EQUALS   ENDW                                  #  B(6)
001641: E5,1642  E5,1650               YSM                EQUALS   XSM        +6                         #  B(6)
001642: E5,1642  E5,1656               ZSM                EQUALS   YSM        +6                         #  B(6)
001643:
001644: E5,1642  E5,1664               XDC                EQUALS   ZSM        +6                         #  B(6)
001645: E5,1642  E5,1672               YDC                EQUALS   XDC        +6                         #  B(6)
001646: E5,1642  E5,1700               ZDC                EQUALS   YDC        +6                         #  B(6)
001647:
001648: E5,1642  E5,1664               XNB                =        XDC
001649: E5,1642  E5,1672               YNB                =        YDC
001650: E5,1642  E5,1700               ZNB                =        ZDC
001651:
001652:                                                                                                  #           MORE OVERLAYS TO ALIGNMENT/SYSTEST (THESE ARE P52)    (6D)
001653:


001655:
001656: E5,1642  E5,1706               LANDLAT            EQUALS   STARAD                                #  (2) LATITUDE, LONGITUDE
001657: E5,1642  E5,1710               LANDLONG           EQUALS   LANDLAT    +2                         #  (2)     AND ALTITUDE
001658: E5,1642  E5,1712               LANDALT            EQUALS   LANDLONG   +2                         #  (2)     OF LANDING SITE
001659:
001660:
001661:                                                                                                  #           ALIGNMENT/SYSTEST COMMON STORAGE.             (31D)
001662:
001663: E5,1642  E5,1706               STARAD             EQUALS   ZDC        +6                         #  I(18D)TMP
001664: E5,1642  E5,1730               STAR               EQUALS   STARAD     +18D                       #  I(6)
001665: E5,1642  E5,1736               GCTR               EQUALS   STAR       +6                         #  B(1)
001666: E5,1642  E5,1737               OGC                EQUALS   GCTR       +1                         #  I(2)
001667: E5,1642  E5,1741               IGC                EQUALS   OGC        +2                         #  I(2)
001668: E5,1642  E5,1743               MGC                EQUALS   IGC        +2                         #  I(2)
001669:
001670:                                                                                                  #           P57 ALIGNMENT (OVERLAY OF ALIGNMENT/SYSTEST COMMON STORAGE)   (12D)
001671:
001672: E5,1642  E5,1706               GACC               =        STARAD                                #  (6) SS
001673: E5,1642  E5,1714               GOUT               =        STARAD     +6                         #  (6) SS
001674:
001675:
001676:                                                                                                  #           OVERLAYS WITHIN ALIGNMENT/SYSTEST COMMON STORAGE      (24D)
001677:
001678: E5,1642  E5,1706               VEARTH             EQUALS   STARAD                                #  (6)TMP
001679: E5,1642  E5,1714               VSUN               EQUALS   VEARTH     +6                         #  (6)TMP
001680: E5,1642  E5,1722               VMOON              EQUALS   VSUN       +6                         #  (6)TMP
001681: E5,1642  E5,1730               SAX                EQUALS   VMOON      +6                         #  (6)TMP
001682:
001683:
001684:                                                                                                  #           P50'S,R50'S Q STORES.                         (2D)
001685:
001686: E5,1642  E5,1745               QMIN               EQUALS   MGC        +2                         #  B(1)TMP
001687: E5,1642  E5,1746               QMAJ               EQUALS   QMIN       +1                         #  B(1)TMP
001688:
001689:
001690:                                                                                                  #        **** USED IN P50S **** (SCATTERED OVERLAYS)      (18D)
001691: E5,1642  E5,1706               CULTRIX            EQUALS   VEARTH                                #  VEARTH, VSUN, VMOON
001692:
001693:
001694:                                                                                                  #           ALIGNMENT STORAGE.                            (23D)
001695:
001696: E5,1642  E5,1747               OGCT               EQUALS   QMAJ       +1                         #  I(6)
001697: E5,1642  E5,1755               BESTI              EQUALS   OGCT       +6                         #  I(1)
001698: E5,1642  E5,1756               BESTJ              EQUALS   BESTI      +1
001699: E5,1642  E5,1757               STARIND            EQUALS   BESTJ      +1
001700:                                                                                                  #  RETAIN THE ORDER OF STARSAV1 TO STARSAV2 +5 FOR DOWNLINK PURPOSES.
001701: E5,1642  E5,1760               STARSAV1           EQUALS   STARIND    +1                         #  I(6)
001702: E5,1642  E5,1766               STARSAV2           EQUALS   STARSAV1   +6                         #  I(6)
001703: E5,1642  E5,1774               TALIGN             EQUALS   STARSAV2   +6                         #  B(2) TIME OF IMU ALIGNMENT  (DOWNLINKED)
001704:


001706:                                                                                                  #           P32-35 + SERVICER                             (2D)
001707:
001708: E5,1642  E5,1776               RTX1               EQUALS   TALIGN     +2                         #  I(1) X1  -2 EARTH, -10 MOON
001709: E5,1642  E5,1777               RTX2               EQUALS   RTX1       +1                         #  I(1) X2  0 EARTH, 2 MOON
001710:
001711: E5,1642                        ZPRIME             =        22D
001712: E5,1642                        COSTH              =        16D
001713: E5,1642                        SINTH              =        18D
001714: E5,1642                        THETA              =        20D
001715:


001717:                                                                                                  #  ******* OVERLAY NUMBER 2 IN EBANK 5 *******
001718:
001719:                                                                                                  #          CONICS ROUTINE STORAGE.                       (85D)
001720:
001721: E5,1642  E5,1642               DELX               EQUALS   ENDW                                  #  I(2)TMP
001722: E5,1642  E5,1644               DELT               EQUALS   DELX       +2                         #  I(2)TMP
001723: E5,1642  E5,1646               URRECT             EQUALS   DELT       +2                         #  I(6)TMP
001724: E5,1642                        RCNORM             EQUALS   34D                                   #  I(2) TMP
001725:                                                                                                  #          NOTE: RCNORM (ABOVE) IS DEFINED IN VAC AREA
001726:
001727: E5,1642  E5,1654               R1VEC              EQUALS   URRECT     +6                         #  I(6) TMP
001728: E5,1642  E5,1662               R2VEC              EQUALS   R1VEC      +6                         #  I(6)TMP
001729: E5,1642  E5,1670               TDESIRED           EQUALS   R2VEC      +6                         #  I(2)TMP
001730: E5,1642  E5,1672               GEOMSGN            EQUALS   TDESIRED   +2                         #  I(1)TMP
001731: E5,1642  E5,1673               UN                 EQUALS   GEOMSGN    +1                         #  I(6)TMP
001732: E5,1642  E5,1701               VTARGTAG           EQUALS   UN         +6                         #  I(1)TMP
001733: E5,1642  E5,1702               VTARGET            EQUALS   VTARGTAG   +1                         #  I(6)TMP
001734: E5,1642  E5,1710               RTNLAMB            EQUALS   VTARGET    +6                         #  I(1)TMP
001735: E5,1642  E5,1711               U2                 EQUALS   RTNLAMB    +1                         #  I(6)TMP
001736: E5,1642  E5,1717               MAGVEC2            EQUALS   U2         +6                         #  I(2)TMP
001737: E5,1642  E5,1721               UR1                EQUALS   MAGVEC2    +2                         #  I(6)TMP
001738: E5,1642  E5,1727               SNTH               EQUALS   UR1        +6                         #  I(2)TMP
001739: E5,1642  E5,1731               CSTH               EQUALS   SNTH       +2                         #  I(2)TMP
001740: E5,1642  E5,1733               1-CSTH             EQUALS   CSTH       +2                         #  I(2)TMP
001741: E5,1642  E5,1735               CSTH-RHO           EQUALS   1-CSTH     +2                         #  I(2)TMP
001742: E5,1642  E5,1737               P                  EQUALS   CSTH-RHO   +2                         #  I(2)TMP
001743: E5,1642  E5,1741               R1A                EQUALS   P          +2                         #  I(2)TMP
001744: E5,1642  E5,1654               RVEC               EQUALS   R1VEC                                 #  I(6)TMP
001745: E5,1642  E5,1743               VVEC               EQUALS   R1A        +2                         #  I(6)TMP
001746: E5,1642  E5,1710               RTNTT              EQUALS   RTNLAMB                               #  I(1)TMP
001747: E5,1642  E5,1751               ECC                EQUALS   VVEC       +6                         #  I(2)TMP
001748: E5,1642  E5,1710               RTNTR              EQUALS   RTNLAMB                               #  I(1)TMP
001749: E5,1642  E5,1710               RTNAPSE            EQUALS   RTNLAMB                               #  I(1)TMP
001750: E5,1642  E5,1717               R2                 EQUALS   MAGVEC2                               #  I(2)TMP
001751: E5,1642  E5,1753               RTNPRM             EQUALS   ECC        +2                         #  I(1)TMP
001752: E5,1642  E5,1754               SGNRDOT            EQUALS   RTNPRM     +1                         #  I(1)TMP
001753: E5,1642  E5,1755               RDESIRED           EQUALS   SGNRDOT    +1                         #  I(2)TMP
001754: E5,1642  E5,1757               DELDEP             EQUALS   RDESIRED   +2                         #  I(2)TMP
001755: E5,1642  E5,1761               DEPREV             EQUALS   DELDEP     +2                         #  I(2)TMP
001756: E5,1642  E5,1757               TERRLAMB           EQUALS   DELDEP                                #  I(2)TMP
001757: E5,1642  E5,1761               TPREV              EQUALS   DEPREV                                #  I(2)TMP
001758: E5,1642  E5,1763               EPSILONL           EQUALS   DEPREV     +2                         #  I(2)TMP
001759: E5,1642  E5,1765               COGA               EQUALS   EPSILONL   +2                         #  I(2)  COTAN OF INITIAL FLIGHT PATH ANGLE.
001760: E5,1642  E5,1765               INDEP              EQUALS   COGA                                  #        USED BY SUBROUTINE'ITERATOR'.
001761:


001763:                                                                                                  #  ******* OVERLAY NUMBER 3 IN EBANK 5 *******
001764:
001765:
001766:                                                                                                  #          INCORP STORAGE.                               (18D)
001767:
001768: E5,1642  E5,1642               ZI                 EQUALS   ENDW                                  #  I(18)TMP
001769:
001770:                                                                                                  #          INCORP/L SR22.3 STORAGE.                      (21D)
001771:
001772: E5,1642  E5,1664               DELTAX             EQUALS   ZI         +18D                       #  I(18)
001773: E5,1642  E5,1706               VARIANCE           EQUALS   DELTAX     +18D                       #  I(3)
001774:
001775:                                                                                                  #          MEASUREMENT INCORPORATION -R22- STORAGE.      (49D)
001776:
001777: E5,1642  E5,1711               GRP2SVQ            EQUALS   VARIANCE   +3                         #  I(1)TMP QSAVE FOR RESTARTS
001778: E5,1642  E5,1712               OMEGAM1            EQUALS   GRP2SVQ    +1                         #  I(6)
001779: E5,1642  E5,1720               OMEGAM2            EQUALS   OMEGAM1    +6                         #  I(6)
001780: E5,1642  E5,1726               OMEGAM3            EQUALS   OMEGAM2    +6                         #  I(6)
001781: E5,1642  E5,1734               HOLDW              EQUALS   OMEGAM3    +6                         #  I(18)
001782:
001783: E5,1642  E5,1664               TRIPA              EQUALS   DELTAX                                #  I(3)TMP
001784: E5,1642  E5,1667               TEMPVAR            EQUALS   TRIPA      +3                         #  I(3)TMP
001785:
001786:
001787:
001788:                                                                                                  #  INCORPORATION/INTEGRATION Q STORAGE.          (1D)
001789:
001790: E5,1642  E5,1767               EGRESS             EQUALS   COGA       +2                         #  I(1)
001791:


001793:                                                                                                  #          SYSTEM TEST ERASABLES.  CAN OVERLAY W MATRIX. (127D)
001794:
001795:                                                                                                  #  ******* OVERLAY NUMBER 0 IN EBANK 5 *******
001796:
001797: E5,1642  E5,1400               AZIMUTH            EQUALS   W                                     #  2
001798: E5,1642  E5,1402               LATITUDE           EQUALS   AZIMUTH    +2                         #  2
001799: E5,1642  E5,1404               ERVECTOR           EQUALS   LATITUDE   +2                         #  6
001800: E5,1642  E5,1412               LENGTHOT           EQUALS   ERVECTOR   +6                         #  1
001801: E5,1642  E5,1413               LOSVEC             EQUALS   LENGTHOT   +1                         #  6
001802: E5,1642  E5,1414               NDXCTR             EQUALS   LOSVEC     +1                         #  1
001803: E5,1642  E5,1415               PIPINDEX           EQUALS   NDXCTR     +1                         #  1
001804: E5,1642  E5,1416               POSITON            EQUALS   PIPINDEX   +1                         #  1
001805: E5,1642  E5,1417               QPLACE             EQUALS   POSITON    +1                         #  1
001806: E5,1642  E5,1420               QPLACES            EQUALS   QPLACE     +1                         #  1
001807: E5,1642  E5,1421               SOUTHDR            EQUALS   QPLACES    +1                         #  7
001808: E5,1642  E5,1430               TEMPTIME           EQUALS   SOUTHDR    +7                         #  2
001809: E5,1642  E5,1432               TMARK              EQUALS   TEMPTIME   +2                         #  2
001810: E5,1642  E5,1434               GENPL              EQUALS   TMARK      +2
001811: E5,1642  E5,1440               TEMPADD            =        GENPL      +4
001812: E5,1642  E5,1441               TEMP               =        GENPL      +5
001813: E5,1642  E5,1442               NOBITS             =        GENPL      +6
001814: E5,1642  E5,1443               CHAN               =        GENPL      +7
001815:
001816: E5,1642  E5,1444               LOS1               =        GENPL      +8D
001817: E5,1642  E5,1452               LOS2               =        GENPL      +14D
001818:
001819: E5,1642  E5,1472               DATAPL             EQUALS   GENPL      +30D
001820: E5,1642  E5,1537               RESULTCT           EQUALS   GENPL      +67D
001821: E5,1642  E5,1434               AINLA              =        GENPL                                 #  110 DE  OR 156 OCT LOCATIONS
001822:
001823: E5,1642  E5,1434               WANGO              EQUALS   AINLA                                 #  VERT E ATE
001824: E5,1642  E5,1436               WANGI              EQUALS   AINLA      +2D                        #  HORIZO TAL ERATE
001825: E5,1642  E5,1440               WANGT              EQUALS   AINLA      +4D                        #  T
001826: E5,1642  E5,1440               TORQNDX            =        WANGT
001827: E5,1642  E5,1442               DRIFTT             EQUALS   AINLA      +6D
001828: E5,1642  E5,1444               ALX1S              EQUALS   AINLA      +8D
001829: E5,1642  E5,1445               CMPX1              EQUALS   AINLA      +9D                        #  IND
001830: E5,1642  E5,1446               ALK                EQUALS   AINLA      +10D                       #  GAINS
001831: E5,1642  E5,1462               VLAUNS             EQUALS   AINLA      +22D
001832: E5,1642  E5,1464               WPLATO             EQUALS   AINLA      +24D
001833: E5,1642  E5,1470               INTY               EQUALS   AINLA      +28D                       #  SOUTH  IP INTE
001834: E5,1642  E5,1472               ANGZ               EQUALS   AINLA      +30D                       #  EAST A IS
001835: E5,1642  E5,1474               INTZ               EQUALS   AINLA      +32D                       #  EAST P P I
001836: E5,1642  E5,1476               ANGY               EQUALS   AINLA      +34D                       #  SOUTH
001837: E5,1642  E5,1500               ANGX               EQUALS   AINLA      +36D                       #  VE
001838: E5,1642  E5,1502               DRIFTO             EQUALS   AINLA      +38D                       #  VERT
001839: E5,1642  E5,1504               DRIFTI             EQUALS   AINLA      +40D                       #  SOU
001840: E5,1642  E5,1510               VLAUN              EQUALS   AINLA      +44D
001841: E5,1642  E5,1512               ACCWD              EQUALS   AINLA      +46D
001842:


001844: E5,1642  E5,1520               POSNV              EQUALS   AINLA      +52D
001845: E5,1642  E5,1522               DPIPAY             EQUALS   AINLA      +54D                       #  SOUTH
001846: E5,1642  E5,1526               DPIPAZ             EQUALS   AINLA      +58D                       #  NORTH  IP INCREMENT
001847: E5,1642  E5,1530               ALTIM              EQUALS   AINLA      +60D
001848: E5,1642  E5,1531               ALTIMS             EQUALS   AINLA      +61D                       #   INDEX
001849: E5,1642  E5,1532               ALDK               EQUALS   AINLA      +62D                       #   TIME  ONSTAN
001850: E5,1642  E5,1550               DELM               EQUALS   AINLA      +76D
001851: E5,1642  E5,1560               WPLATI             EQUALS   AINLA      +84D
001852: E5,1642  E5,1562               GEOCOMPS           EQUALS   AINLA      +86D
001853: E5,1642  E5,1563               ERCOMP             EQUALS   AINLA      +87D
001854: E5,1642  E5,1571               ZERONDX            EQUALS   AINLA      +93D
001855:
001856: E5,1642  E5,1452               THETAN             =        ALK        +4
001857: E5,1642  E5,1460               FILDELV            EQUALS   THETAN     +6                         #   AGS ALIGNMENT STORAGE
001858: E5,1642  E5,1462               INTVEC             EQUALS   FILDELV    +2
001859: E5,1642  E5,1572               1SECXT             =        AINLA      +94D
001860: E5,1642  E5,1573               ASECXT             =        AINLA      +95D
001861: E5,1642  E5,1574               PERFDLAY           EQUALS   AINLA      +96D                       #  B(2) DELAY TIME BEF. START DRIFT MEASURE
001862: E5,1642  E5,1576               OVFLOWCK           EQUALS   AINLA      +98D                       #  (1) SET MEANS OVERFLOW IN IMU PERF TEST
001863:                                                                                                  #      AND CAUSES TERMINATION
001864:
001865:
001866: E5,1642                        END-E5             EQUALS   2777                                  #  END OF EBANK 5
001867:


001869:                                                                                                  #           EBANK-6 ASSIGNMENTS.
001870:
001871: E6,1400                                           SETLOC   3000
001872:
001873:                                                                                                  #           DAP PAD-LOADED DATA.                          (10D)
001874:
001875:                                                                                                  #    ALL OF THE FOLLOWING EXCEPT PITTIME AND ROLLTIME ARE INITIALIZED IN FRESH START TO PERMIT IMMEDIATE USE OF DAP
001876:
001877: E6,1400                        HIASCENT           ERASE                                          #  (1) MASS AFTER STAGING, SCALE AT B16 KG.
001878: E6,1401                        ROLLTIME           ERASE                                          #  (1) TIME TO TRIM Z GIMBAL IN R03, CSEC.
001879: E6,1402                        PITTIME            ERASE                                          #  (1) TIME TO TRIM Y GIMBAL IN R03, CSEC.
001880: E6,1403                        DKTRAP             ERASE                                          #  (1) DAP STATE            (POSSIBLE 77001
001881: E6,1404                        DKOMEGAN           ERASE                                          #  (1)   ESTIMATOR PARA-      (VALUES 00012
001882: E6,1405                        DKKAOSN            ERASE                                          #  (1)      METERS FOR THE           00074
001883: E6,1406                        LMTRAP             ERASE                                          #  (1)         DOCKED AND            77001
001884: E6,1407                        LMOMEGAN           ERASE                                          #  (1)            LEM-ALONE CASES    00000
001885: E6,1410                        LMKAOSN            ERASE                                          #  (1)               RESPECTIVELY    00074
001886: E6,1411                        DKDB               ERASE                                          #  (1) WIDTH OF DEADBAND FOR DOCKED RCS
001887:                                                                                                  #      AUTOPILOT (DB=1.4DEG IN FRESH START)
001888:                                                                                                  #      DEADBAND = PI/DKDB RAD.
001889:
001890:                                                                                                  #   PADLOADS FOR INITIALIZATION OF DAP BIAS ACCELERATION (AT P12 IGNITION)   (2D)
001891:
001892: E6,1412                        IGNAOSQ            ERASE                                          #  B(1)PL
001893: E6,1413                        IGNAOSR            ERASE                                          #  B(1)PL
001894:
001895:
001896:                                                                                                  #   AXIS TRANSFORMATION MATRIX - GIMBAL TO PILOT AXES:    (5D)
001897:
001898: E6,1414                        M11                ERASE                                          #  SCALED AT 1
001899: E6,1415                        M21                ERASE                                          #  SCALED AT 1
001900: E6,1416                        M31                ERASE
001901: E6,1417                        M22                ERASE                                          #  SCALED AT 1.
001902: E6,1420                        M32                ERASE                                          #  SCALED AT 1.
001903:
001904:                                                                                                  #   ANGLE MEASUREMENTS.                                    (31D)
001905:
001906: E6,1421                        OMEGAP             ERASE    +4                                    #  BODY-AXIS ROT. RATES SCALED AT PI/4 AND
001907: E6,1426  E6,1422               OMEGAQ             EQUALS   OMEGAP     +1                         #  BODY-AXIS ACCELERATIONS SCALED AT PI/8
001908: E6,1426  E6,1423               OMEGAR             EQUALS   OMEGAP     +2
001909:                                                                                                  #      RETAIN THE ORDER OF ALPHAQ AND ALPHAR FOR DOWNLINK PURPOSES.
001910: E6,1426  E6,1424               ALPHAQ             EQUALS   OMEGAP     +3
001911: E6,1426  E6,1425               ALPHAR             EQUALS   OMEGAP     +4
001912: E6,1426                        OMEGAU             ERASE    +1
001913: E6,1430  E6,1427               OMEGAV             =        OMEGAU     +1
001914:
001915: E6,1430                        TRAPEDP            ERASE    +5
001916: E6,1436  E6,1431               TRAPEDQ            =        TRAPEDP    +1
001917: E6,1436  E6,1432               TRAPEDR            =        TRAPEDP    +2
001918: E6,1436  E6,1433               NPTRAPS            =        TRAPEDP    +3
001919:


001921: E6,1436  E6,1434               NQTRAPS            =        TRAPEDP    +4
001922: E6,1436  E6,1435               NRTRAPS            =        TRAPEDP    +5
001923: E6,1436  E6,1427               EDOTP              =        EDOT
001924: E6,1436                        EDOTQ              ERASE    +1
001925: E6,1440  E6,1437               EDOTR              =        EDOTQ      +1                         #   MANY SHARING NAMES
001926: E6,1440  E6,1436               QRATEDIF           EQUALS   EDOTQ                                 #  ALTERNATIVE NAMES:
001927: E6,1440  E6,1437               RRATEDIF           EQUALS   EDOTR                                 #  DELETE WHEN NO. OF REFERENCES = 0
001928:
001929: E6,1440  E6,1426               URATEDIF           EQUALS   OMEGAU
001930: E6,1440  E6,1427               VRATEDIF           EQUALS   OMEGAV
001931: E6,1440                        OLDXFORP           ERASE    +2                                    #  STORED CDU READINGS FOR STATE
001932: E6,1443  E6,1441               OLDYFORP           EQUALS   OLDXFORP   +1                         #  DERIVATIONS: SCALED AT PI RADIANS (2'S)
001933: E6,1443  E6,1442               OLDZFORQ           EQUALS   OLDXFORP   +2
001934:                                                                                                  #  RATE-COMMAND AND MINIMUM IMPULSE MODES
001935:
001936: E6,1443                        CH31TEMP           ERASE
001937: E6,1444                        STIKSENS           ERASE
001938: E6,1445                        TCP                ERASE
001939: E6,1446                        DXERROR            ERASE    +5
001940: E6,1454  E6,1450               DYERROR            EQUALS   DXERROR    +2
001941: E6,1454  E6,1452               DZERROR            EQUALS   DXERROR    +4
001942: E6,1454                        PLAST              ERASE
001943: E6,1455                        QLAST              ERASE
001944: E6,1456                        RLAST              ERASE
001945: E6,1457                        TCQR               ERASE
001946:
001947:                                                                                                  #  OTHER VARIABLES.                              (5D)
001948:
001949: E6,1460                        OLDPMIN            ERASE                                          #  THESE THREE USED IN MIN IMPULSE MODE.
001950: E6,1461                        OLDQRMIN           ERASE
001951: E6,1462  E6,1736               TEMP31             EQUALS   DAPTEMP1
001952:
001953: E6,1462                        SAVEHAND           ERASE    +1
001954: E6,1464                        PERROR             ERASE
001955: E6,1465  E6,1450               QERROR             EQUALS   DYERROR
001956: E6,1465  E6,1452               RERROR             EQUALS   DZERROR
001957:
001958:                                                                                                  #  JET STATE CHANGE VARIABLES- TIME (TOFJTCHG),JET BITS WRITTEN NOW   (10D)
001959:                                                                                                  #    (JTSONNOW), AND JET BITS WRITTEN AT T6 RUPT (JTSATCHG).
001960:
001961: E6,1465                        NXT6ADR            ERASE
001962: E6,1466                        T6NEXT             ERASE    +1
001963: E6,1470                        T6FURTHA           ERASE    +1
001964: E6,1472                        NEXTP              ERASE    +2
001965: E6,1475  E6,1473               NEXTU              =        NEXTP      +1
001966: E6,1475  E6,1474               NEXTV              =        NEXTP      +2
001967: E6,1475                        -2JETLIM           ERASE    +1                                    #  RATE COMMAND 4-JET RATE DIFFERENCE LIMIT
001968: E6,1477  E6,1476               -RATEDB            EQUALS   -2JETLIM   +1                         #  AND RATE DEADBAND FOR ASCENT OR DESCENT
001969:
001970: E6,1477  E6,1476               TARGETDB           EQUALS   -RATEDB                               #  MAN. CONTROL TARGET DB COMPLEMENT.
001971:
001972:                                                                                                  #        *** Q,R AXIS ERASABLES ***                        (3)
001973:


001975: E6,1477     4733               PBIT               EQUALS   BIT10
001976: E6,1477     4732               QRBIT              EQUALS   BIT11
001977: E6,1477  E6,1750               UERROR             EQUALS   DAPTREG5                              #  U,V-AXES ATT ERROR FOR RCS CONTROL LAWS
001978: E6,1477  E6,1751               VERROR             =        UERROR     +1
001979: E6,1477                        RETJADR            ERASE
001980: E6,1500  E6,1741               TEMPNUM            EQUALS   DAPTEMP4
001981: E6,1500  E6,1742               NUMBERT            EQUALS   DAPTEMP5
001982: E6,1500  E6,1743               ROTINDEX           EQUALS   DAPTEMP6
001983: E6,1500  E6,1736               ROTEMP1            EQUALS   DAPTEMP1
001984: E6,1500  E6,1737               ROTEMP2            EQUALS   DAPTEMP2
001985: E6,1500  E6,1740               POLYTEMP           EQUALS   DAPTEMP3
001986: E6,1500                        SENSETYP           ERASE
001987: E6,1501  E6,1736               ABSTJ              EQUALS   DAPTEMP1                              #  ABS VALUE OF JET-FIRING TIME
001988: E6,1501  E6,1736               ABSEDOTP           EQUALS   DAPTEMP1
001989:


001991:                                                                                                  #  TRIM GIMBAL CONTROL LAW ERASABLES:                     (11D)
001992:
001993: E6,1501  E6,1736               GTSTEMPS           EQUALS   DAPTEMP1                              #  GTS IS PART OF THE JASK.
001994: E6,1501  E6,1740               SHFTFLAG           EQUALS   GTSTEMPS   +2                         #  COUNT BITS FOR GTSQRT SHIFTING.
001995: E6,1501  E6,1743               ININDEX            EQUALS   GTSTEMPS   +5                         #  INDEX FOR SHIFT LOOP IN GTSQRT.
001996:
001997: E6,1501  E6,1505               SAVESR             EQUALS   AXISCTR                               #  CANNOT BE A DAPTEMP - GTS USES THEM ALL.
001998:
001999: E6,1501  E6,1745               SCRATCH            EQUALS   GTSTEMPS   +7                         #  ROOTCYCL ERASABLE
002000: E6,1501  E6,1746               HALFARG            EQUALS   GTSTEMPS   +8D                        #  ROOTCYCL ERASABLE.
002001:
002002: E6,1501  E6,1736               K2THETA            EQUALS   GTSTEMPS                              #  D.P., K*ERROR,  NEGUSUM
002003: E6,1501  E6,1740               KCENTRAL           EQUALS   GTSTEMPS   +2                         #  S.P., K FROM KQ OR KRDAP, AT PI/2(8)
002004: E6,1501  E6,1741               K2CNTRAL           EQUALS   GTSTEMPS   +3                         #  D.P., GTS SCRATCH CELLS.
002005: E6,1501  E6,1742               WCENTRAL           EQUALS   GTSTEMPS   +4                         #  S.P., OMEGA, AT PI/4 RAD/SEC
002006: E6,1501  E6,1743               ACENTRAL           EQUALS   GTSTEMPS   +5                         #  S.P., ALPHA, AT PI/4 RAD/SEC(2)
002007: E6,1501  E6,1744               DEL                EQUALS   GTSTEMPS   +6                         #  S.P., SGN FUNCTION VALUE.
002008: E6,1501  E6,1745               A2CNTRAL           EQUALS   GTSTEMPS   +7                         #  D.P., GTS SCRATCH CECLS.
002009: E6,1501  E6,1747               QRCNTR             EQUALS   GTSTEMPS   +9D                        #  S.P.,INDEX FOR GTS LOOP THROUGH Q,R AXES
002010: E6,1501  E6,1750               FUNCTION           EQUALS   GTSTEMPS   +10D                       #  D.P.,ARGUMENT FOR GRSQRT,SCRATCH FOR GTS
002011:
002012: E6,1501                        NEGUQ              ERASE    +2                                    #  NEGATIVE OF Q-AXIS GIMBAL DRIVE
002013:                                                                                                  #                                NEGUQ           +1          DEFINED AND USED ELSEWHERE
002014: E6,1504  E6,1503               NEGUR              EQUALS   NEGUQ      +2                         #  NEGATIVE OF R-AXIS GIMBAL DRIVE
002015:
002016: E6,1504                        KQ                 ERASE    +2                                    #  S.P.,JERK TERM FOR GTS, AT PI/2(8)
002017: E6,1507  E6,1505               AXISCTR            EQUALS   KQ         +1
002018: E6,1507  E6,1506               KRDAP              EQUALS   KQ         +2                         #  .3 ACCDOTR SCALED AT PI/2(8)
002019:
002020: E6,1507                        ACCDOTQ            ERASE    +3                                    #  Q-JERK SCALED AT PI/2(7) UNSIGNED
002021: E6,1513  E6,1510               QACCDOT            EQUALS   ACCDOTQ    +1                         #  Q-JERK SCALED AT PI/2(7) SIGNED
002022: E6,1513  E6,1511               ACCDOTR            EQUALS   ACCDOTQ    +2                         #  R-JERK SCALED AT PI/2(7) UNSIGNED
002023: E6,1513  E6,1512               RACCDOT            EQUALS   ACCDOTQ    +3                         #  R-JERK SCALED AT PI/2(7) SIGNED
002024:
002025: E6,1513  E6,1450               QDIFF              EQUALS   QERROR                                #  ATTITUDE ERRORS:
002026: E6,1513  E6,1452               RDIFF              EQUALS   RERROR                                #  SCALED AT PI RADIANS
002027:
002028:
002029:
002030:
002031:                                                                                                  #  TORQUE VECTOR RECONSTRUCTION VARIABLES:       (17D)
002032:
002033: E6,1513  E6,1744               JETRATE            EQUALS   DAPTREG1
002034: E6,1513  E6,1745               JETRATEQ           EQUALS   JETRATE    +1                         #  THE LAST CONTROL SAMPLE PERIOD OF 100 MS
002035: E6,1513  E6,1746               JETRATER           EQUALS   JETRATE    +2                         #  SCALED AT PI/4 RADIANS/SECOND
002036:
002037: E6,1513                        DOWNTORK           ERASE    +5                                    #  ACCUMULATED JET TORQUE COMMANDED ABOUT
002038: E6,1521  E6,1513               POSTORKP           EQUALS   DOWNTORK                              #    +,-P, +,-U, +,-V RESPECTIVELY.
002039: E6,1521  E6,1514               NEGTORKP           EQUALS   DOWNTORK   +1
002040: E6,1521  E6,1515               POSTORKU           EQUALS   DOWNTORK   +2                         #    NOT INITIALIZED; PERMITTED TO OVERFLOW
002041:


002043: E6,1521  E6,1516               NEGTORKU           EQUALS   DOWNTORK   +3                         #  SCALED AT 32 JET-SEC, OR ABOUT 2.0 JET-
002044: E6,1521  E6,1517               POSTORKV           EQUALS   DOWNTORK   +4                         #      MSEC PER BIT.
002045: E6,1521  E6,1520               NEGTORKV           EQUALS   DOWNTORK   +5
002046:
002047: E6,1521                        NO.PJETS           ERASE    +2
002048: E6,1524  E6,1522               NO.UJETS           =        NO.PJETS   +1
002049: E6,1524  E6,1523               NO.VJETS           =        NO.UJETS   +1
002050: E6,1524                        TJP                ERASE    +2
002051: E6,1527  E6,1525               TJU                =        TJP        +1
002052: E6,1527  E6,1526               TJV                =        TJP        +2
002053:
002054: E6,1527                        L,PVT-CG           ERASE
002055: E6,1530                        1JACC              ERASE    +3
002056: E6,1534  E6,1531               1JACCQ             EQUALS   1JACC      +1                         #  SCALED AT PI/4 RADIANS/SECOND
002057: E6,1534  E6,1532               1JACCR             EQUALS   1JACC      +2
002058: E6,1534  E6,1533               1JACCU             EQUALS   1JACC      +3                         #  FOR U,V-AXES THE SCALE FACTOR IS  DIFF:
002059:                                                                                                  #  SCALED AT PI/2 RADIANS/SECOND (FOR ASC)
002060:                                                                                                  #  ASCENT VARIABLES:                                       (10D)
002061:
002062:
002063: E6,1534                        SKIPU              ERASE    +1
002064: E6,1536  E6,1535               SKIPV              =        SKIPU      +1
002065:                                                                                                  #  THE FOLLOWING LM DAP ERASABLES ARE ZEROED IN THE STARTDAP SECTION OF THE DAPIDLER PROGRAM AND THE CDASTASC
002066:                                                                                                  #  SECTION OF THE AOSTASK.  THE ORDER MUST BE PRESERVED FOR THE INDEXING METHODS WHICH ARE EMPLOYED IN THOSE
002067:                                                                                                  #  SECTIONS AND ELSEWHERE.
002068:
002069: E6,1536                        AOSQ               ERASE    +5                                    #  OFFSET ACC. ESTIMATES, UPDATED IN D.P.,
002070: E6,1544  E6,1540               AOSR               EQUALS   AOSQ       +2                         #  AND SCALED AT PI/2.
002071: E6,1544  E6,1542               AOSU               EQUALS   AOSQ       +4                         #  UV-AXES OFFSET ACC. FROMED BY VECTOR
002072: E6,1544  E6,1543               AOSV               EQUALS   AOSQ       +5                         #  ADDITION OF Q.R.  AT PI/2 RAD/SEC(2).
002073:
002074: E6,1544                        AOSQTERM           ERASE    +1                                    #  (.1-.05K)AOS
002075: E6,1546  E6,1545               AOSRTERM           EQUALS   AOSQTERM   +1                         #  SCALED AT PI/4 RADIANS/SECOND.
002076:
002077:                                                                                                  #  FOR TJET LAW SUBROUTINE:                              (TEMPS ONLY)
002078:
002079:                                                                                                  # NUMBERT        EQUALS          DAPTEMP5                DEFINED IN QRAXIS.
002080: E6,1546  E6,1736               EDOTSQ             EQUALS   DAPTEMP1
002081: E6,1546  E6,1737               ROTSENSE           EQUALS   DAPTEMP2
002082: E6,1546  E6,1740               FIREFCT            EQUALS   DAPTEMP3                              #  LOOKED AT BY PAXIS.
002083: E6,1546  E6,1741               TTOAXIS            EQUALS   DAPTEMP4
002084: E6,1546  E6,1743               ADRSDIF2           EQUALS   DAPTEMP6
002085: E6,1546  E6,1744               HOLDQ              EQUALS   DAPTREG1
002086: E6,1546  E6,1745               ADRSDIF1           EQUALS   DAPTREG2
002087: E6,1546  E6,1746               HH                 EQUALS   DAPTREG3                              #  DOUBLE PRECISION
002088:                                                                                                  #  HH +1         EQUALS          DAPTREG4
002089: E6,1546  E6,1751               E                  EQUALS   DAPTREG6                              #  TIME SHARE WITH VERROR
002090: E6,1546  E6,1427               EDOT               EQUALS   OMEGAV
002091:
002092:                                                                                                  #  INPUT TO TJET LAW (PERMANENT ERASABLES).              (48D)
002093:


002095: E6,1546  E6,1525               TJETU              =        TJU                                   #  EQUATE NAMES.  INDEXED BY -1, 0, +1.
002096: E6,1546                        BLOCKTOP           ERASE    +47D
002097:                                                                                                  #                * SEE AOSTASK AND AOSJOB LOG SECTION FOR ERASABLE DEFINITIONS
002098:                                                                                                  #                                         IN THIS AREA.
002099:
002100: E6,1626  E6,1566               1/ANET1            =        BLOCKTOP   +16D                       #  THESE 8 PARAMETERS ARE SET UP BY 1/ACCS
002101: E6,1626  E6,1567               1/ANET2            =        1/ANET1    +1                         #  FOR MINIMUM JETS ABOUT THE U-AXIS WHEN
002102: E6,1626  E6,1572               1/ACOAST           =        1/ANET1    +4                         #  EDOT IS POSITIVE.  TJETLAW INDEXES BY
002103: E6,1626  E6,1574               ACCFCTZ1           =        1/ANET1    +6                         #  ADRSDIFF FROM THESE REGISTERS TO PICK UP
002104: E6,1626  E6,1575               ACCFCTZ5           =        1/ANET1    +7                         #  PARAMETERS FOR THE PROPER AXIS, NUMBER
002105: E6,1626  E6,1600               FIREDB             =        1/ANET1    +10D                       #  OF JETS AND SIGN OF EDOT.  THERE ARE 48
002106: E6,1626  E6,1602               COASTDB            =        1/ANET1    +12D                       #  REGISTERS IN ALL IN THIS BLOCK.
002107: E6,1626  E6,1604               AXISDIST           =        1/ANET1    +14D                       #  FOUR NOT REFERENCED (P-AXIS) ARE FILLED
002108:                                                                                                  #    IN BY THE FOLLOWING:
002109: E6,1626  E6,1546               ACCSWU             =        BLOCKTOP                              #  SET BY 1/ACCS TO SHOW WHETHER MAXIMUM
002110: E6,1626  E6,1547               ACCSWV             =        ACCSWU     +1                         #  JETS ARE REQUIRED BECAUSE OF AOS.
002111: E6,1626  E6,1554               FLAT               =        BLOCKTOP   +6                         #  WIDTH OF MINIMUM IMPULSE ZONE.
002112: E6,1626  E6,1555               ZONE3LIM           =        BLOCKTOP   +7                         #  HEIGHT OF MINIMUM IMPULSE ZONE (AT 4 SEC)
002113:
002114: E6,1626                        COEFFQ             ERASE    +1                                    #  COEFFQ AND COEFFR ARE USED IN ROT-TOUV
002115: E6,1630  E6,1627               COEFFR             EQUALS   COEFFQ     +1                         #  TO RESOLVE Q,R COMPONENTS INTO U,V COMP.
002116:
002117:                                                                                                  #  VARIABLES FOR GTS-QRAXIS CONTROL EXCHANGE.              (4)
002118:
002119: E6,1630  E6,1502               ALLOWGTS           EQUALS   NEGUQ      +1                         #  INSERT INTO UNUSED LOCATION
002120: E6,1630                        COTROLER           ERASE                                          #  INDICATES WHICH CONTROL SYSTEM TO USE.
002121: E6,1631                        QGIMTIMR           ERASE    +2                                    #  Q-GIMBAL DRIVE ITMER, DECISECONDS.
002122: E6,1634  E6,1632               INGTS              EQUALS   QGIMTIMR   +1                         #  INDICATOR OF CURRENT GTS CONTROL.
002123: E6,1634  E6,1633               RGIMTIMR           EQUALS   QGIMTIMR   +2                         #  R-GIMBAL DRIVE TIMER, DECISECONDS.
002124:
002125:                                                                                                  #  PLEASE RETAIN THE ORDER OF CDUXD THRU CDUZD FOR DOWNLINK PURPOSES.
002126:
002127:                                                                                                  #           KALCMANU:DAP INTERFACE.                        (9D)
002128:
002129: E6,1634                        CDUXD              ERASE    +2                                    #  CDU DESIRED REGISTERS:
002130: E6,1637  E6,1635               CDUYD              EQUALS   CDUXD      +1                         #  SCALED AT PI RADIANS (180 DEGREES)
002131: E6,1637  E6,1636               CDUZD              EQUALS   CDUXD      +2                         #  (STORE IN 2S COMPLEMENT)
002132:
002133: E6,1637                        DELCDUX            ERASE    +2                                    #  NEGATIVE OF DESIRED 100MS CDU INCREMENT:
002134: E6,1642  E6,1640               DELCDUY            EQUALS   DELCDUX    +1                         #  SCALED AT PI RADIANS (180 DEGREES)
002135: E6,1642  E6,1641               DELCDUZ            EQUALS   DELCDUX    +2                         #  (STORE IN 2S COMPLEMENT)
002136:
002137:                                                                                                  #     RETAIN THE ORDER OF OMEGAPD TO OMEGARD FOR DOWNLINK PURPOSES.
002138:
002139: E6,1642                        OMEGAPD            ERASE    +2                                    #  ATTITUDE MANEUVER DESIRED RATES:
002140: E6,1645  E6,1643               OMEGAQD            EQUALS   OMEGAPD    +1                         #  (NOT EXPLICITLY REFERENCED IN GTS CNTRL)
002141: E6,1645  E6,1644               OMEGARD            EQUALS   OMEGAPD    +2                         #  SCALED AT PI/4 RADIANS/SECOND
002142:
002143:                                                                                                  #  KALCMANU STORAGE.                             (24D)
002144:


002146: E6,1645                        MIS                ERASE    +23D                                  #  I(18D)
002147: E6,1675  E6,1667               COF                EQUALS   MIS        +18D                       #  I(6)
002148:
002149:
002150:                                                                                                  #  KALCMANU STORAGE.                                     (33D)
002151:
002152: E6,1675                        BCDU               ERASE    +30D                                  #  B(3)
002153: E6,1734  E6,1700               KSPNDX             EQUALS   BCDU       +3                         #  B(1)
002154: E6,1734  E6,1701               KDPNDX             EQUALS   KSPNDX     +1                         #  B(1)
002155:
002156: E6,1734  E6,1702               TMIS               EQUALS   KDPNDX     +1                         #  I(18) MUST BE IN SAME BANK AS RCS DAP
002157: E6,1734  E6,1724               COFSKEW            EQUALS   TMIS       +18D                       #  I(6)  MUST BE IN SAME BANK AS RCS DAP
002158: E6,1734  E6,1732               CAM                EQUALS   COFSKEW    +6                         #  I(2)  MUST BE IN SAME BANK AS RCS DAP
002159:
002160: E6,1734                        AM                 ERASE    +1                                    #  I(2) THIS WAS ONCE IN E5 OVERLAYING OGC
002161:
002162:                                                                                                  #  FIRST-ORDER OVERLAYS IN KALCMANU                      (25D)
002163:
002164: E6,1736  E6,1702               MFISYM             EQUALS   TMIS                                  #  I
002165: E6,1736  E6,1702               TMFI               EQUALS   TMIS                                  #  I
002166: E6,1736  E6,1702               NCDU               EQUALS   TMIS                                  #  B
002167: E6,1736  E6,1705               NEXTIME            EQUALS   TMIS       +3                         #  B
002168: E6,1736  E6,1706               TTEMP              EQUALS   TMIS       +4                         #  B
002169: E6,1736  E6,1724               BRATE              EQUALS   COFSKEW                               #  B
002170: E6,1736  E6,1732               TM                 EQUALS   CAM                                   #  B
002171:
002172:                                                                                                  #  SECOND-ORDER OVERLAYS IN KALCMANU             (?)
002173:
002174: E6,1736  E6,1724               VECQTEMP           =        COFSKEW
002175:
002176: E6,1736  E6,1634               DCDU               =        CDUXD
002177: E6,1736  E6,1637               DELDCDU            =        DELCDUX
002178: E6,1736  E6,1640               DELDCDU1           =        DELCDUY
002179: E6,1736  E6,1641               DELDCDU2           =        DELCDUZ
002180:
002181:
002182:                                                                                                  #  *  *  *  *  *  *  *  *  *  *  *  *  *  *  *  *  *  *  *  *  *  *  *  *
002183:
002184:                                                                                                  #  STORAGE FOR FINDCDUW
002185:
002186:                                                                                                  #           OVERLAYING KALCMANU STORAGE:                  (26D)
002187:
002188: E6,1736  E6,1645               ECDUW              EQUALS   MIS
002189: E6,1736  E6,1645               ECDUWUSR           EQUALS   ECDUW                                 #  B(1)TMP
002190: E6,1736  E6,1646               QCDUWUSR           EQUALS   ECDUWUSR   +1                         #  I(1)TMP
002191: E6,1736  E6,1647               NDXCDUW            EQUALS   QCDUWUSR   +1                         #  B(1)TMP
002192: E6,1736  E6,1650               FLAGOODW           EQUALS   NDXCDUW    +1                         #  B(1)TMP
002193: E6,1736  E6,1651               UNFC/2             EQUALS   FLAGOODW   +1                         #  I(6)IN
002194:


002196: E6,1736  E6,1657               UNWC/2             EQUALS   UNFC/2     +6                         #  I(6)IN
002197: E6,1736  E6,1665               UNFV/2             EQUALS   UNWC/2     +6                         #  I(6) S-S
002198: E6,1736  E6,1665               UNFVX/2            =        UNFV/2
002199: E6,1736  E6,1667               UNFVY/2            =        UNFV/2     +2
002200: E6,1736  E6,1671               UNFVZ/2            =        UNFV/2     +4
002201: E6,1736  E6,1673               -DELGMB            EQUALS   UNFV/2     +6                         #  B(3)TMP
002202: E6,1736  E6,1676               OGABIAS            EQUALS   -DELGMB    +3                         #  B(1)IN
002203:
002204:                                                                                                  #           DEFINED IN THE WORK AREA:                     (18D)
002205:
002206: E6,1736                        UNX/2              =        0
002207: E6,1736                        UNY/2              =        6
002208: E6,1736                        UNZ/2              =        14
002209:
002210:                                                                                                  #  END OF FINDCDUW ERASABLES
002211:
002212:                                                                                                  #  *  *  *  *  *  *  *  *  *  *  *  *  *  *  *  *  *  *  *  *  *  *  *  *
002213:
002214:                                                                                                  #  * * * * * * * * * * * * * * * * * * * * * * * * * * * * * * * * * * * *
002215:
002216:                                                                                                  #  STORAGE FOR P57
002217:
002218:                                                                                                  #           OVERLAYING KALCMANU AND FINDCDUW STORAGE:     (12D)
002219:
002220: E6,1736  E6,1645               VEC1               EQUALS   MIS                                   #  I(6)TMP
002221: E6,1736  E6,1653               VEC2               EQUALS   VEC1       +6                         #  I(6)TMP
002222:
002223:                                                                                                  #  END OF P57 ERASABLES
002224:
002225:                                                                                                  #  * * * * * * * * * * * * * * * * * * * * * * * * * * * * * * * * * * * *
002226:
002227:                                                                                                  #  THE FOLLOWING ARE THE DAP REPLACEMENTS FOR THE ITEMPS AND RUPTREGS,NEEDED BECAUSE DAP IS NOW A TOB,JASK,JAB,TOSK
002228:                                                                                                  #  ... ANYWAY, THE DAP CAN NOW BE INTERRUPTED.                              (18D)
002229:
002230: E6,1736                        DAPTEMP1           ERASE    +17D
002231: E6,1760  E6,1737               DAPTEMP2           EQUALS   DAPTEMP1   +1
002232: E6,1760  E6,1740               DAPTEMP3           EQUALS   DAPTEMP1   +2
002233: E6,1760  E6,1741               DAPTEMP4           EQUALS   DAPTEMP1   +3
002234: E6,1760  E6,1742               DAPTEMP5           EQUALS   DAPTEMP1   +4
002235: E6,1760  E6,1743               DAPTEMP6           EQUALS   DAPTEMP1   +5
002236: E6,1760  E6,1744               DAPTREG1           EQUALS   DAPTEMP1   +6
002237: E6,1760  E6,1744               OLDSENSE           EQUALS   DAPTREG1                              #  B(1)TMP RCS JET CONTROL
002238: E6,1760  E6,1745               DAPTREG2           EQUALS   DAPTEMP1   +7
002239: E6,1760  E6,1746               DAPTREG3           EQUALS   DAPTEMP1   +8D
002240: E6,1760  E6,1747               DAPTREG4           EQUALS   DAPTEMP1   +9D
002241: E6,1760  E6,1750               DAPTREG5           EQUALS   DAPTEMP1   +10D
002242: E6,1760  E6,1751               DAPTREG6           EQUALS   DAPTEMP1   +11D
002243:
002244: E6,1760  E6,1752               DAPARUPT           EQUALS   DAPTEMP1   +12D
002245: E6,1760  E6,1753               DAPLRUPT           EQUALS   DAPARUPT   +1
002246:


002248: E6,1760  E6,1754               DAPBQRPT           EQUALS   DAPARUPT   +2
002249: E6,1760  E6,1756               DAPZRUPT           EQUALS   DAPARUPT   +4
002250:
002251:                                                                                                  #  (DAPZRUPT IS ALSO JASK-IN-PROGRESS FLAG)
002252:
002253:
002254:                                                                                                  #           NEEDLER(ATTITUDE ERROR EIGHT BALL DISPLAY) STORAGE.   (6D)
002255:
002256: E6,1760     0061               T5TEMP             EQUALS   ITEMP1
002257: E6,1760     0063               DINDX              EQUALS   ITEMP3
002258: E6,1760                        AK                 ERASE    +2                                    #  NEEDLER ATTITUDE INPUTS, SCALED AT 180
002259: E6,1763  E6,1761               AK1                EQUALS   AK         +1                         #  DEGREES.  P,Q,R AXES IN AK,AK1,AK2.
002260: E6,1763  E6,1762               AK2                EQUALS   AK         +2
002261:
002262: E6,1763                        EDRIVEX            ERASE    +2                                    #  NEEDLER DISPLAY REGS AT 1800 DEGREES.
002263: E6,1766  E6,1764               EDRIVEY            EQUALS   EDRIVEX    +1                         #  SO THAT 384 BITS REPRESENT 42 3/16 DEG.
002264: E6,1766  E6,1765               EDRIVEZ            EQUALS   EDRIVEX    +2
002265:
002266:                                                                                                  #           DOCKED JET INHIBITION COUNTERS                (3D)
002267:
002268: E6,1766                        PJETCTR            ERASE    +2
002269: E6,1771  E6,1767               UJETCTR            EQUALS   PJETCTR    +1
002270: E6,1771  E6,1770               VJETCTR            EQUALS   PJETCTR    +2
002271:
002272:                                                                                                  #  V47 (R47) AGS INITIALIZATION STORAGE -PAD LOADED.      (2D)
002273:
002274: E6,1771                        AGSK               ERASE    +1                                    #  I(2) PL
002275:
002276:                                                                                                  #  WINDOW BIAS PADLOAD                                    (1D)
002277:
002278: E6,1773                        AZBIAS             ERASE                                          #  B(1) PL LPD AZIMUTH BIAS, UNITS - PI RAD
002279:
002280:                                                                                                  #           DAP PERMANENT STORAGE                         (1D)
002281:
002282: E6,1774                        RCSFLAGS           ERASE                                          #  AUTOPILOT FLAG WORD
002283:                                                                                                  #  BIT ASSIGNMENTS:
002284:                                                                                                  #   1) ALTERYZ SWITCH (ZEROOR1)
002285:                                                                                                  #   2) NEEDLER SWITCH
002286:                                                                                                  #   3) NEEDLER SWITCH
002287:                                                                                                  #   4) NEEDLER SWITCH
002288:                                                                                                  #   5) NEEDLER SWITCH
002289:                                                                                                  #   9) JUST-IN-DETENT SWITCH
002290:                                                                                                  #  10) PBIT - MANUAL CONTROL SWITCH
002291:                                                                                                  #  11) QRBIT- MANUAL CONTROL SWITCH
002292:                                                                                                  #  12) PSKIP CONTROL (PJUMPADR)
002293:                                                                                                  #  13) 1/ACCJOB CONTROL (ACCSET)
002294:


002296: E6,1775  E6,1774               END-E6             EQUALS   AZBIAS     +1                         #  NEXT AVAILABLE LOC IN E6.
002297:


002299:                                                                                                  #                  EBANK-7 ASSIGNMENTS
002300:
002301: E7,1400                                           SETLOC   3400
002302:
002303:                                                                                                  #           P35 CONSTANTS.        - PAD LOADED -        (4D)
002304:
002305: E7,1400                        ATIGINC            ERASE    +1                                    #  B(2)PL        *MUST BE AT 1400 FOR SYSTEMSTEST
002306: E7,1402                        PTIGINC            ERASE    +1                                    #  B(2)PL
002307:
002308:
002309:                                                                                                  #           AOTMARK STORAGE.      - PAD LOADED -        (12D)
002310:
002311: E7,1404                        AOTAZ              ERASE    +5                                    #  B(6)PL
002312: E7,1412                        AOTEL              ERASE    +5                                    #  B(6)PL
002313:
002314:                                                                                                  #           LANDING RADAR.        - PAD LOADED -        (3D)
002315:
002316: E7,1420                        LRHMAX             ERASE                                          #  B(1)
002317: E7,1421                        LRWH               ERASE                                          #  B(1)
002318:
002319:
002320:                                                                                                  #           THROTTLE STORAGE.     - PAD LOADED -        (1D)
002321:
002322: E7,1422                        ZOOMTIME           ERASE                                          #  B(1)PL TIME OF DPS THROTTLE-UP COMMAND
002323:
002324:                                                                                                  #           P63 AND P64 CONSTANTS. - PAD LOADED -       (4D)
002325:
002326: E7,1423                        TENDBRAK           ERASE                                          #  B(1) LANDING PHASE SWITCHING CRITERION
002327: E7,1424                        TENDAPPR           ERASE                                          #  B(1) LANDING PHASE SWITCHING CRITERION
002328: E7,1425                        DELTTFAP           ERASE                                          #  B(1) INCREMENT ADDED TO TTF/8 WHEN
002329:                                                                                                  #        SWITCHING FROM P63 TO P64
002330: E7,1426                        LEADTIME           ERASE                                          #  B(1) TIME INCREMENT SPECIFYING HOW MUCH
002331:                                                                                                  #        GUIDANCE IS PROJECTED FORWARD.
002332:
002333:                                                                                                  #           LANDING RADAR         - PAD LOADED -        (2D)
002334:
002335: E7,1427                        RPCRTIME           ERASE                                          #  B(1) REPOSITIONING CRITERION  (TIME)
002336: E7,1430                        RPCRTQSW           ERASE                                          #  B(1) REPOSITIONING CRITERION (ANGLE)
002337:
002338:                                                                                                  #           ASTEER                - PAD LOADED -        (2D)
002339:
002340: E7,1431                        TNEWA              ERASE    +1                                    #  I(2)PL LAMBERT CYCLE PERIOD
002341:
002342:                                                                                                  #           P22 STORAGE - OVERLAYS LANDING PADLOADS -   (5D)
002343:


002345: E7,1433  E7,1423               REPOSCNT           EQUALS   TENDBRAK                              #  B(1)TMP  COUNTS NUMBER OF PASSES THROUGH
002346:                                                                                                  #           REPOSITION ROUTINE.
002347: E7,1433  E7,1424               REPOSTM            EQUALS   REPOSCNT   +1                         #  I(2)TMP  PRESENT TIME PLUS INCREMENTS OF
002348:                                                                                                  #           TEN SECONDS.
002349: E7,1433  E7,1426               DELTATM            EQUALS   REPOSTM    +2                         #  I(2)TMP  TIME INTERVAL FOR RUNNING
002350:                                                                                                  #           DESIGNATE TASK.
002351:
002352:                                                                                                  #  *** RETAIN THE ORDER OF DELVSLV, TIG, RTARG, DELLT4 FOR UPDATE. ***
002353:
002354:
002355:                                                                                                  #           P40S, P32-P35 P72-P75 STORAGE                 (6D)
002356:
002357: E7,1433                        DELVLVC            ERASE    +5                                    #  I(6) DELTA VELOCITY - LOCAL VERTICAL COO
002358: E7,1441  E7,1433               DELVSLV            =        DELVLVC                               #  (TEMP STORAGE OF SAME VECTOR)   -RDINATE
002359:
002360:
002361:
002362:                                                                                                  #           P30-P40 INTERFACE UNSHARED.                   (2D)
002363:
002364:                                                                                                  #  ******* NOTE:  TIG IS USED BY ALL POWERED FLIGHT PROGRAMS        *******
002365:                                                                                                  #  *******              INCLUDING P12, ABORTS, AND LUNAR LANDING.  ********
002366:
002367: E7,1441                        TIG                ERASE    +1                                    #  B(2)
002368:
002369:
002370:                                                                                                  #           INITVEL STORAGE:  USED BY P34,35,74,75, P40-42  (8D)
002371:
002372: E7,1443                        RTARG              ERASE    +5                                    #  I(6) TARGET VECTOR
002373: E7,1451                        DELLT4             ERASE    +1                                    #  I(2) TIME DIFFERENCE
002374:
002375:
002376:                                                                                                  #           LANDING RADAR - R12   (OVERLAY)               (2D)
002377:
002378: E7,1453  E7,1451               HLROFF             EQUALS   DELLT4                                #  B(1),I(2) TMP  NO LANDING RADAR UPDATES
002379:                                                                                                  #                  BELOW THIS ALTITUDE.
002380:
002381:
002382:                                                                                                  #           CLOKTASK, BURNBABY                            (3D)
002383:
002384: E7,1453                        TTOGO              ERASE    +1                                    #  B(2)
002385: E7,1455                        WHICH              ERASE                                          #  B(1)
002386:
002387:
002388:                                                                                                  #           *** R21 ***                                   (1D)
002389:
002390: E7,1456                        LOSCOUNT           ERASE                                          #  B(1)
002391:
002392:                                                                                                  #           L SR22.3 (RNDEZVOUS NAVIGATION) AND
002393:


002395:                                                                                                  #           LANDING RADAR -- VELUPDAT (SERVICER), P63, AND R12.   (4D)
002396:
002397:                                                                                                  #  ***** NOTE: AOG, AMG, AND AIG ARE USED BY LANDING RADAR AS WELL AS RR.
002398:                                                                                                  #  *****       R12DL STORES CDUS THERE FOR DOWNLINKING ON DESCENT/ASCENT DL
002399:                                                                                                  #  *****       MOREOVER, TRKMKCNT SHARES WITH VSELECT, ALSO SET UP BY R12DL
002400:                                                                                                  #  *****           (DOWNLINKED ON THE DESCENT/ASCENT LIST AS THE
002401:                                                                                                  #  *****             LOW ORDER PART OF AOG TELEMETRY WORD)
002402:                                                                                                  #  *****                AND USED IN SERVICER, P63 RESTART, AND R12READ.
002403:
002404:                                                                                                  #     RETAIN THE ORDER OF AIG TO TRKMKCNT FOR DOWNLINK PURPOSES.
002405:
002406: E7,1457                        AIG                ERASE                                          #  B(1)OUT  GIMBAL ANGLES
002407: E7,1460                        AMG                ERASE                                          #  B(1)OUT  (MUST BE
002408: E7,1461                        AOG                ERASE                                          #  B(1)OUT   CONSECUTIVE)
002409:
002410: E7,1462                        TRKMKCNT           ERASE                                          #  B(1)TMP  TEMPORARY MARK STORAGE.
002411: E7,1463  E7,1462               MARKCTR            =        TRKMKCNT
002412:
002413:
002414: E7,1463  E7,1462               VSELECT            EQUALS   TRKMKCNT                              #  B(1)  X,Y OR Z LR BEAM ASSOC WITH VMEAS.
002415:
002416:
002417:                                                                                                  #           P32-P35, P72-P75 STORAGE.  -PERMANENT-         (6)
002418:
002419: E7,1463                        NORMEX             ERASE                                          #  B(1) PRM SAVE FOR Q
002420: E7,1464                        QSAVED             ERASE                                          #  B(1) PRM SAVE FOR Q
002421: E7,1465                        RTRN               ERASE                                          #  B(1) PRM SAVE FOR Q
002422: E7,1466                        NN                 ERASE    +1                                    #  B(2)
002423: E7,1470                        SUBEXIT            ERASE                                          #  B(1) PRM SAVE Q
002424:
002425:
002426: E7,1471                        E7OVERLA           EQUALS                                         #  START OF E7 OVERLAYS.
002427: E7,1471  E7,1471               WHOCARES           EQUALS   E7OVERLA                              #  DUMMY FOR EBANK INSENSITIVE 2CADRS
002428:
002429:                                                                                                  #           LUNAR LANDING OVERLAYS                        (6D)
002430:
002431: E7,1471  E7,1463               /AFC/              EQUALS   NORMEX                                #  B(2)TMP    THROTTLE
002432: E7,1471  E7,1465               FCODD              EQUALS   /AFC/      +2                         #  B(2)TMP    THROTTLE
002433: E7,1471  E7,1467               FP                 EQUALS   FCODD      +2                         #  B(2)TMP    THROTTLE
002434:


002436:                                                                                                  #  *******  OVERLAY NUMBER 0 IN EBANK 7  *******
002437:
002438:
002439:                                                                                                  #  RENDEZVOUS GUIDANCE STORAGE -P32....P35-             (89D)
002440:
002441: E7,1471  E7,1611               TSTRT              EQUALS   DELDV                                 #  MIDCOURSE START TIME
002442: E7,1471  E7,1573               TDEC2              EQUALS   DELVCSI                               #  TEMP STORAGE FOR INTEGRATION TIME INPUT
002443: E7,1471  E7,1575               KT                 EQUALS   DELVTPI                               #  TEMP STORAGE FOR MIDCOURSE DELTA TIME
002444: E7,1471                        VACT1              ERASE    +5D                                   #  VELOCITY VECTOR OF ACTIVE  AT CSI TIME
002445: E7,1477                        RPASS1             ERASE    +5D                                   #  POSITION VECTOR OF PASSIVE AT CSI TIME
002446: E7,1505                        VPASS1             ERASE    +5D                                   #  VELOCITY VECTOR OF PASSIVE AT CSI TIME
002447: E7,1513                        VACT2              ERASE    +5D                                   #  VELOCITY VECTOR OF ACTIVE  AT CDH TIME
002448: E7,1521                        RPASS2             ERASE    +5D                                   #  POSITION VECTOR OF PASSIVE AT CDH TIME
002449: E7,1527                        VPASS2             ERASE    +5D                                   #  VELOCITY VECTOR OF PASSIVE AT CDH TIME
002450: E7,1535                        RACT3              ERASE    +5D                                   #  POSITION VECTOR OF ACTIVE  AT TPI TIME
002451: E7,1543                        VACT3              ERASE    +5D                                   #  VELOCITY VECTOR OF ACTIVE  AT TPI TIME
002452: E7,1551                        RPASS3             ERASE    +5D                                   #  POSITION VECTOR OF PASSIVE AT TPI TIME
002453: E7,1557                        VPASS3             ERASE    +5D                                   #  VELOCITY VECTOR OF PASSIVE AT TPI TIME
002454: E7,1565                        VACT4              ERASE    +5D                                   #  VELOCITY VECTOR OF ACTIVE  AT INTERCEPT
002455: E7,1573  E7,1543               UNVEC              EQUALS   VACT3                                 #  CDHMVR UNIT VECTOR TEMP STORAGE.
002456: E7,1573                        DELVCSI            ERASE    +1D                                   #  THRUST VALUE AT CSI
002457: E7,1575                        DELVTPI            ERASE    +1D                                   #  THRUST VALUE AT TPI OR MID
002458: E7,1577                        DIFFALT            ERASE    +1D                                   #  ALT DIFFERENCE AT CDH
002459: E7,1601                        POSTCSI            ERASE    +1                                    #  PERIGEE ALTITUDE AFTER CSI MANEUVER
002460: E7,1603                        POSTCDH            ERASE    +1                                    #  PERIGEE ALTITUDE AFTER CDH MANEUVER
002461: E7,1605                        POSTTPI            ERASE    +1                                    #  PERIGEE ALTITUDE AFTER TPI MANEUVER
002462: E7,1607  E7,1605               LOOPCT             EQUALS   POSTTPI                               #  CSI NEWTON ITERATION COUNTER
002463: E7,1607  E7,1603               HAFPA1             EQUALS   POSTCDH                               #  HALF PERIOD
002464: E7,1607                        GAMPREV            ERASE    +1                                    #  PREVIOUS GAMMA
002465: E7,1611  E7,1575               DVPREV             EQUALS   DELVTPI                               #  PREVIOUS DELVCSI
002466: E7,1611                        DELDV              ERASE    +1D
002467: E7,1613                        CSIALRM            ERASE    +1                                    #  FIRST SOLUTION ALARM
002468: E7,1615                        VERBNOUN           ERASE
002469: E7,1616  E7,1613               TITER              EQUALS   CSIALRM                               #  ITERATION COUNTER
002470: E7,1616                        RDOTV              ERASE    +1
002471: E7,1620  E7,1505               VAPREC             EQUALS   VPASS1                                #  I(6) S-S PREC VEC FOR NOM TPI TIME(ACT V
002472: E7,1620  E7,1477               RAPREC             EQUALS   RPASS1                                #  I(6) S-S PREC VEC FOR NOM TPI TIME(ACT V
002473: E7,1620  E7,1527               VPPREC             EQUALS   VPASS2                                #  I(6) S-S PREC VEC FOR NOM TPI TIME(PASS
002474: E7,1620  E7,1521               RPPREC             EQUALS   RPASS2                                #  I(6) S-S PREC VEC FOR NOM TPI TIME(PASS
002475: E7,1620  E7,1575               DELEL              EQUALS   DELVTPI                               #  I(2) S-S
002476: E7,1620  E7,1573               SECMAX             EQUALS   DELVCSI                               #  I(2) S-S MAX STOP SIZE FOR ROUTINE
002477: E7,1620  E7,1605               DELTEEO            EQUALS   POSTTPI                               #  I(2) S-S BACK VALUES OF DELTA TIME
002478: E7,1620                        CENTANG            ERASE    +1                                    #  I(2) S-S CENTRAL ANGLE COVERED (TPI-TPF)
002479:
002480:
002481:
002482:                                                                                                  #           SOME P47 STORAGE                              (6D)
002483:


002485: E7,1622                        DELVIMU            ERASE    +5                                    #  I(6)DSP N83 FOR P47 DELTA V IN BODY COOR
002486:
002487:
002488:                                                                                                  #           P34-35-40-41-42 INTERFACE                     (2D)
002489:
002490: E7,1630                        TPASS4             ERASE    +1                                    #  INTERCEPT TIME
002491:
002492:
002493:                                                                                                  #           P30-P40-41-42 COMMON STORAGE                  (1D)
002494:
002495: E7,1632                        QTEMP              ERASE                                          #  I(1)TMP COMMON RETURN SAVE REGISTER.
002496:
002497:
002498:
002499:                                                                                                  #           P32,33,34 STORAGE.                            (6D)
002500:
002501: E7,1633                        TCSI               ERASE    +1                                    #  B(2)TMP CSI TIME IN CENTISECONDS
002502: E7,1635                        TTPI               ERASE    +1                                    #  B(2)TMP TPI TIME IN CENTISECONDS
002503: E7,1637                        TTPIO              ERASE    +1                                    #  B(2)TMP TTPI STORAGE FOR RECYCLE
002504:
002505:
002506:                                                                                                  #           P30,P40 INTERFACE.                            (20D)
002507:
002508: E7,1641                        RTIG               ERASE    +19D                                  #  I(6)TMP
002509: E7,1665  E7,1647               VTIG               EQUALS   RTIG       +6                         #  I(6)TMP
002510: E7,1665  E7,1655               DELVSIN            EQUALS   VTIG       +6                         #  I(6)TMP
002511: E7,1665  E7,1663               DELVSAB            EQUALS   DELVSIN    +6                         #  I(2)TMP
002512: E7,1665  E7,1663               VGDISP             =        DELVSAB
002513:
002514:
002515:                                                                                                  #           P40-P42 TEMPORARY                              (1D)
002516:
002517: E7,1665                        QTEMP1             ERASE                                          #  I(1)TMP HOLDS RETURN.
002518:
002519:
002520:
002521:                                                                                                  #           R52 TEMPORARY                                  (1D)
002522:
002523: E7,1666  E7,1665               SAVQR52            EQUALS   QTEMP1
002524:
002525:
002526:                                                                                                  #           INITVEL STORAGE.  (IN OVERLAY 0 AND OVERLAY 1.        (2D)
002527:                                                                                                  #                  (CALLS LAMBERT, CONIC SUBROUTINES)
002528:
002529: E7,1666  E7,1565               VTPRIME            EQUALS   VACT4                                 #  TOTAL VELOCITY AT DESIRED RADIUS
002530: E7,1666  E7,1616               ITCTR              EQUALS   RDOTV                                 #  ITERATION COUNTER
002531: E7,1666                        COZY4              ERASE    +1                                    #  COS OF ANGLE WHEN ROTATION STARTS
002532: E7,1670  E7,1607               INTIME             EQUALS   GAMPREV                               #  TIME OF RINIT
002533:


002535:                                                                                                  #           PERIAPO STORAGE. (2D)                        (2D)
002536:
002537: E7,1670                        XXXALT             ERASE    +1                                    #  RADIUS TO LAUNCH PAD OR LANDING SIGHT
002538:
002539:                                                                                                  #           S40.1 STORAGE.                                (12D)
002540:
002541: E7,1672                        UT                 ERASE    +11D                                  #  I(6) THRUST DIRECTION
002542: E7,1706  E7,1700               VGTIG              EQUALS   UT         +6                         #  I(6)OUT
002543: E7,1706  E7,1700               VGPREV             =        VGTIG
002544:                                                                                                  #  ASTEER STORAGE.                               (22D)
002545:
002546: E7,1706                        VG                 ERASE    +21D                                  #  I(6)
002547: E7,1734  E7,1714               RMAG               EQUALS   VG         +6                         #  I(2)
002548: E7,1734  E7,1716               MUASTEER           EQUALS   RMAG       +2                         #  I(2)
002549: E7,1734  E7,1720               MU/A               EQUALS   MUASTEER   +2                         #  I(2)
002550: E7,1734  E7,1722               RTMAG              EQUALS   MU/A       +2                         #  I(2)
002551: E7,1734  E7,1724               R1C                EQUALS   RTMAG      +2                         #  I(6)
002552: E7,1734  E7,1732               SS                 EQUALS   R1C        +6                         #  I(2)
002553:
002554:                                                                                                  #           ASTEER                                         (11D)
002555:
002556: E7,1734  E7,1655               IC                 =        DELVSIN                               #  I(6) CHORD VECTOR:  RTARG VEC - POS VEC
002557: E7,1734  E7,1762               TIGSAVE            =        P21TIME                               #  I(2) USED TO DETERMINE WHEN YOU
002558: E7,1734  E7,1764               TIGSAVEP           =        SCAXIS                                #  I(2)  WANT TO DO ASTEER NEXT
002559: E7,1734  E7,1766               MUSCALE            =        SCAXIS     +2                         #  I(1) HOLDS INDEX VALUE
002560:
002561:
002562:                                                                                                  #           P40 STORAGE.                                  (8D)
002563:
002564:                                                                                                  #                F, MDOT, AND TDECAY MUST BE CONTIGUOUS FOR VLOAD.
002565: E7,1734                        F                  ERASE    +5                                    #  I(2)TMP THRUST MAG 10**4 NEWTONS (B-7)
002566: E7,1742  E7,1736               MDOT               EQUALS   F          +2                         #  I(2)TMP MASS CHNG RATE, KG/CS AT 2**3.
002567: E7,1742  E7,1740               TDECAY             EQUALS   MDOT       +2                         #  I(2)IN  DELTA-T TAILOFF, (2**28)CS.
002568: E7,1742                        VEX                ERASE    +1                                    #  I(2) EXHAUST VELOCITY FOR TGO COMPUTAT'N
002569:
002570:
002571:                                                                                                  #          MIDTOAV1(2) STORAGE.  (CALLED BY P40,P41,P42)         (1D)
002572:
002573: E7,1744                        IRETURN1           ERASE                                          #  B(1)     RETURN FROM MIDTOAV1 AND 2
002574:


002576:                                                                                                  #  ******* OVERLAY NUMBER 1 IN EBANK 7  *******
002577:
002578:
002579:                                                                                                  #          INITVEL (CALLED BY P34,35,38,39,10,11,S40.9,S40.1)    (6D)
002580:
002581: E7,1745  E7,1471               RTARG1             EQUALS   VACT1                                 #  I(6)S TEMP STORAGE OF RTARG
002582:
002583:
002584:                                                                                                  #          P35-P40 INTERFACE.                              (6D)
002585:
002586: E7,1745  E7,1505               VPASS4             EQUALS   VPASS1                                #  I(6)TMP VELOCITY OF PASSIVE AT INTERCEPT
002587:
002588:
002589:                                                                                                  #           LAT-LONG TEMPORARIES.  CAN OVERLAY WITH S40.1         (3D)
002590:
002591: E7,1745  E7,1672               ERADM              EQUALS   UT                                    #  I(2)
002592: E7,1745  E7,1674               INCORPEX           EQUALS   ERADM      +2                         #  I(1)
002593:
002594:                                                                                                  #           LRS24.1 STORAGE.  (CAN SHARE WITH P30'S)      (40D)
002595:
002596: E7,1745  E7,1675               RLMSRCH            EQUALS   INCORPEX   +1                         #  I(6) TMP LM POSITION VECTOR
002597: E7,1745  E7,1703               VXRCM              EQUALS   RLMSRCH    +6                         #  I(6)    CM V X R VECTOR
002598: E7,1745  E7,1711               LOSDESRD           EQUALS   VXRCM      +6                         #  I(6)    DESIRED LOS VECTOR
002599: E7,1745  E7,1717               UXVECT             EQUALS   LOSDESRD   +6                         #  I(6)    X-AXIS SRCH PATTERN COORDS
002600: E7,1745  E7,1725               UYVECT             EQUALS   UXVECT     +6                         #  I(6)    Y-AXIS SRCH PATTERN COORDS
002601: E7,1745  E7,1733               DATAGOOD           EQUALS   UYVECT     +6                         #  B(1)DSP FOR R1 - ALL 1-S WHEN LOCKON
002602: E7,1745  E7,1734               OMEGDISP           EQUALS   DATAGOOD   +1                         #  B(2)    ANGLE OMEGA DISPLAYED IN R2
002603: E7,1745  E7,1734               OMEGAD             =        OMEGDISP                              #          PINBALL DEFINITION.
002604: E7,1745  E7,1736               NSRCHPNT           EQUALS   OMEGDISP   +2                         #  B(1)TMP SEARCH PATTERN POINT COUNTER.
002605: E7,1745  E7,1737               SAVLEMV            EQUALS   NSRCHPNT   +1                         #  I(6) S-S SAVES LOSVEL
002606:


002608:                                                                                                  #  ******* OVERLAY NUMBER 2 IN EBANK 7 *******
002609:
002610:
002611:
002612:                                                                                                  #           INCORP STORAGE IN E7.                         (47D)
002613:
002614: E7,1745  E7,1471               TX789              EQUALS   E7OVERLA                              #  I(6)
002615: E7,1745  E7,1477               GAMMA              EQUALS   TX789      +6                         #  I(3)
002616: E7,1745  E7,1502               OMEGA              EQUALS   GAMMA      +3                         #  I(18)
002617: E7,1745  E7,1524               BVECTOR            EQUALS   OMEGA      +18D                       #  I(18)
002618: E7,1745  E7,1546               DELTAQ             EQUALS   BVECTOR    +18D                       #  I(2)
002619:                                                                                                  #           AOTMARK STORAGE                               (3D)
002620:
002621: E7,1745  E7,1550               WHATMARK           EQUALS   DELTAQ     +2                         #  B(1)TMP  SIGHTING TECHNIQUE DETERMINATOR
002622: E7,1745  E7,1551               XYMARK             EQUALS   WHATMARK   +1                         #  B(1)TMP  MARK IDENTIFICATION REGISTER
002623: E7,1745  E7,1552               MKDEX              EQUALS   XYMARK     +1                         #  B(1)TMP INDEX FOR AOTMARK
002624:
002625:
002626:                                                                                                  #           P50S. AOTMARK                                  (14D)
002627:
002628: E7,1745  E7,1524               XPLANE             EQUALS   BVECTOR                               #  I(6)TMP MARK PLANE
002629: E7,1745  E7,1532               YPLANE             EQUALS   XPLANE     +6                         #  I(6)TMP MARK PLANE
002630: E7,1745  E7,1762               XMKCNTR            EQUALS   P21TIME                               #  B(1)  X SIGHTING MK CNTR
002631: E7,1745  E7,1763               YMKCNTR            EQUALS   P21TIME    +1                         #  B(1)  Y SIGHTING MK CNTR
002632:
002633:
002634:                                                                                                  #          PLANET STORAGE.                               (8D)
002635:
002636: E7,1745  E7,1553               PLANVEC            EQUALS   MKDEX      +1                         #  (6) REFER VECTOR OF PLANET
002637: E7,1745  E7,1561               TSIGHT             EQUALS   PLANVEC    +6                         #  (2) TIME OF MARK OR EST TIME OF MARK
002638:
002639:
002640:
002641:                                                                                                  #           AOTMARK STORAGE                               (15D)
002642:
002643: E7,1745  E7,1563               THETEST            EQUALS   TSIGHT     +2                         #  I(2)TMP  STAR VECTOR COMPUTATION TMP
002644: E7,1745  E7,1565               ESTER1             EQUALS   THETEST    +2                         #  I(2)TMP  STAR VECTOR COMPUTATION TMP
002645: E7,1745  E7,1567               ESTER2             EQUALS   ESTER1     +2                         #  I(2)TMP  STAR VECTOR COMPUTATION TMP
002646: E7,1745  E7,1571               DELTHET            EQUALS   ESTER2     +2                         #  I(2)TMP  STAR VECTOR COMPUTATION TMP
002647: E7,1745  E7,1573               NOMKCNT            EQUALS   DELTHET    +2                         #  B(1)TMP  MARK SET REJECT CTR
002648: E7,1745  E7,1574               BODY               EQUALS   NOMKCNT    +1                         #  I(6)TMP STAR VEC IN NAV BASE COOR
002649:                                                                                                  #           LRS22.3 STORAGE. (CAN SHARE WITH P30'S AND OVERLAY LRS24.1  (30D).
002650:
002651: E7,1745  E7,1675               LGRET              EQUALS   RLMSRCH                               #  I(1)TMP
002652: E7,1745  E7,1675               RDRET              EQUALS   LGRET                                 #  B(1) TEMP RETURN.
002653: E7,1745  E7,1675               IGRET              EQUALS   LGRET                                 #  B(1) TEMP RETURN.
002654: E7,1745  E7,1676               MX                 EQUALS   RDRET      +1                         #  I(6)
002655: E7,1745  E7,1704               MY                 EQUALS   MX         +6                         #  I(6)
002656: E7,1745  E7,1712               MZ                 EQUALS   MY         +6                         #  I(6)
002657: E7,1745  E7,1720               SCALSHFT           EQUALS   MZ         +6                         #  B(1) SCALE SHIFT FOR EARTH/MOON
002658:


002660: E7,1745  E7,1721               RXZ                EQUALS   SCALSHFT   +1                         #  I(2)
002661: E7,1745  E7,1723               ULC                EQUALS   RXZ        +2                         #  I(6)
002662: E7,1745  E7,1731               SINTHETA           EQUALS   ULC        +6                         #  I(2)
002663:
002664:                                                                                                  #  ***** IN OVERLAY ONE *****
002665:
002666:                                                                                                  #      R22 / NOUN 49 DISPLAY
002667:
002668: E7,1745  E7,1746               N49FLAG            EQUALS   RDOTMSAV                              #  B(1)S    FLAG INDICATING V0649 RESPONSE
002669:
002670:
002671:                                                                                                  #      LRS22.1 STORAGE.  (MUST NOT SHARE WITH P30'S)         (13D)
002672:
002673:                                                                                                  #      (OUTPUTS ARE TO LRS22.3)
002674:
002675: E7,1745  E7,1733               RRTRUN             EQUALS   SINTHETA   +2                         #  B(2)OUT  RR TRUNION ANGLE
002676: E7,1745  E7,1735               RRSHAFT            EQUALS   RRTRUN     +2                         #  B(2)OUT RR SHAFT ANGLE
002677: E7,1745  E7,1737               LRS22.1X           EQUALS   RRSHAFT    +2                         #  B(1)TMP
002678: E7,1745  E7,1740               RRBORSIT           EQUALS   LRS22.1X   +1                         #  I(6) TMP RADAR BORESIGHT VECTOR.
002679: E7,1745  E7,1746               RDOTMSAV           EQUALS   RRBORSIT   +6                         #  B(2) S    RR RANGE-RATE(FPS)
002680:
002681:
002682:                                                                                                  #      LRS22.1 (SAME AS PREVIOUS SECTION) ALSO DOWNLINK FOR RR (R29)(10D) CANNOT SHARE WITH L.A.D.
002683:
002684:                                                                                                  #      NOTE: MKTIME IS USED BY LANDING AS WELL AS REND RADAR.
002685:
002686: E7,1745  E7,1750               RDOTM              EQUALS   RDOTMSAV   +2                         #  B(2)OUT  RANGE-RATE READING
002687: E7,1745  E7,1752               TANGNB             EQUALS   RDOTM      +2                         #  B(2)TMP  RR GIMBAL ANGLES
002688:                                                                                                  #      RETAIN THE ORDER OF MKTIME TO RM FOR DOWNLINK PURPOSES
002689: E7,1745  E7,1754               MKTIME             EQUALS   TANGNB     +2                         #  B(2) TIME OF RADAR READING (RR AND LR)
002690: E7,1745  E7,1756               RM                 EQUALS   MKTIME     +2                         #  I(2)OUT RANGE READING
002691: E7,1745  E7,1760               RANGRDOT           EQUALS   RM         +2                         #  B(2) DOWNLINKED RAW RANGE AND RRATE
002692:
002693:                                                                                                  #      LANDING OVERLAY                               (1D)
002694:
002695: E7,1745  E7,1750               THRDISP            EQUALS   RDOTM                                 #  B(1) PERCENT OF FTP I 10,500 LBS.
002696:
002697:
002698: E7,1745  E7,1752               GTCTIME            EQUALS   TANGNB                                #  B(2)  STATE VECTOR TIME CORRESPONDING
002699:                                                                                                  #    TO FP -- GUIDANCE THRUST COMMAND
002700:
002701:                                                                                                  #      R61LEM - PREFERRED TRACKING ATTITUDE ROUTINE  **IN OVERLAY ONE*
002702:                                                                                                  #               (CALLED BY P20,R22LEM,LSR22.3)            (1D)
002703:
002704: E7,1745  E7,1745               R65CNTR            EQUALS   RRBORSIT   +5                         #  B(1)SS  COUNT NUMBER OF TIMES PREFERRED
002705:                                                                                                  #          TRACKING ROUTINE IS TO CYCLE
002706:
002707:                                                                                                  #      P21 STORAGE                                   (2D)
002708:


002710: E7,1745  E7,1762               P21TIME            EQUALS   RANGRDOT   +2                         #  I(2)TMP
002711:
002712:
002713:                                                                                                  #      INPUTS TO VECPOINT. CALLED BY R60-65 (ATTITUDE MANEUVERS)         (12D)
002714: E7,1745  E7,1764               SCAXIS             EQUALS   P21TIME    +2                         #  I(6)
002715: E7,1745  E7,1772               POINTVSM           EQUALS   SCAXIS     +6                         #  I(6)
002716:


002718:
002719:                                                                                                  #  *******  OVERLAY NUMBER 3 IN EBANK 7  *******
002720:
002721:
002722:
002723:                                                                                                  #           SERVICER STORAGE                              (6D)
002724:
002725: E7,1745  E7,1471               ABVEL              EQUALS   E7OVERLA                              #  B(2) DISPLAY
002726: E7,1745  E7,1473               HDOTDISP           EQUALS   ABVEL      +2                         #  B(2) DISPLAY
002727: E7,1745  E7,1475               TTFDISP            EQUALS   HDOTDISP   +2                         #  B(2) DISPLAY
002728:
002729:
002730:                                                                                                  #           ASCENT GUIDANCE FOR LUNAR LANDING             (2D)
002731:
002732: E7,1745  E7,1473               RDOT               EQUALS   HDOTDISP                              #  I(2)
002733:
002734:
002735:                                                                                                  #           BURN PROG STORAGE.                            (2D)
002736:
002737: E7,1745  E7,1477               SAVET-30           EQUALS   TTFDISP    +2                         #  B(2)TMP TIG-30 RESTART
002738:
002739:
002740:                                                                                                  #           SERVICER STORAGE.                             (69D)
002741:
002742: E7,1745  E7,1501               VGBODY             EQUALS   SAVET-30   +2                         #  B(6)OUT SET,BY S41.1 VG LEM, SC.COORDS
002743: E7,1745  E7,1501               DELVCTL            =        VGBODY
002744: E7,1745  E7,1507               DVTOTAL            EQUALS   VGBODY     +6                         #  B(2) DISPLAY NOUN
002745: E7,1745  E7,1511               GOBLTIME           EQUALS   DVTOTAL    +2                         #  B(2) NOMINAL TIG FOR CALC. OF GOBLATE.
002746: E7,1745  E7,1513               ABDVCONV           EQUALS   GOBLTIME   +2                         #  I(2)
002747: E7,1745  E7,1515               DVCNTR             EQUALS   ABDVCONV   +2                         #  B(1)
002748: E7,1745  E7,1516               TGO                EQUALS   DVCNTR     +1                         #  B(2)
002749: E7,1745  E7,1520               R                  EQUALS   TGO        +2                         #  I(6)
002750: E7,1745  E7,1520               UNITGOBL           EQUALS   R                                     #  I(6)
002751: E7,1745  E7,1526               V                  EQUALS   R          +6
002752: E7,1745  E7,1526               DELVREF            EQUALS   V                                     #  I(6)
002753: E7,1745  E7,1534               HCALC              EQUALS   DELVREF    +6                         #  B(2)    LR
002754: E7,1745  E7,1536               UNIT/R/            EQUALS   HCALC      +2                         #  I(6)
002755:                                                                                                  #           (THE FOLLOWING SERVICER ERASABLES CAN BE SHARED WITH SECOND DPS GUIDANCE STORAGE)
002756:
002757: E7,1745  E7,1544               RN1                EQUALS   UNIT/R/    +6                         #  B(6)
002758: E7,1745  E7,1552               VN1                EQUALS   RN1        +6                         #  I(6)                      ( IN ORDER )
002759: E7,1745  E7,1560               PIPTIME1           EQUALS   VN1        +6                         #  B(2)                      (    FOR   )
002760: E7,1745  E7,1562               GDT1/2             EQUALS   PIPTIME1   +2                         #  I(6)                      (   COPY   )
002761: E7,1745  E7,1570               MASS1              EQUALS   GDT1/2     +6                         #  I(2)                      (   CYCLE  )
002762: E7,1745  E7,1570               DVCNTR1            EQUALS   MASS1                                 #  B(1)TMP  RESTART REG FOR DVCNTR
002763: E7,1745  E7,1572               R1S                EQUALS   MASS1      +2                         #  I(6)
002764: E7,1745  E7,1600               V1S                EQUALS   R1S        +6                         #  I(6)
002765:
002766:
002767:                                                                                                  #           P71 RESTART PROTECTION                        (2D)
002768:


002770: E7,1745  E7,1501               TGO1               EQUALS   VGBODY                                #  B(2)TMP
002771:
002772:
002773:                                                                                                  #           ALIGNMENT/S40.2,3 COMMON STORAGE.             (18D)
002774:
002775: E7,1745  E7,1606               XSMD               EQUALS   V1S        +6                         #  I(6)
002776: E7,1745  E7,1614               YSMD               EQUALS   XSMD       +6                         #  I(6)
002777: E7,1745  E7,1622               ZSMD               EQUALS   YSMD       +6                         #  I(6)
002778:
002779: E7,1745  E7,1606               XSCREF             =        XSMD
002780: E7,1745  E7,1614               YSCREF             =        YSMD
002781: E7,1745  E7,1622               ZSCREF             =        ZSMD
002782:
002783: E7,1745  E7,1630               END-ALIG           EQUALS   ZSMD       +6                         #  NEXT AVAIL ERASABLE AFTER ALIGN/S40.2,3
002784:
002785:
002786:                                                                                                  #           **** P22 ****                                (34D)
002787:
002788: E7,1745  E7,1630               RSUBL              EQUALS   END-ALIG                              #  I(6)S-S  LM POSITION VECTOR
002789: E7,1745  E7,1636               UCSM               EQUALS   RSUBL      +6                         #  I(6)S-S  VECTOR U
002790: E7,1745  E7,1644               NEWVEL             EQUALS   UCSM       +6                         #  I(6)S-S  TERMINAL VELOCITY VECTOR
002791: E7,1745  E7,1652               NEWPOS             EQUALS   NEWVEL     +6                         #  I(6)S-S  TERMINAL POSITION VECTOR
002792: E7,1745  E7,1660               LNCHTM             EQUALS   NEWPOS     +6                         #  I(2)S-S  EST. LAUNCH TIME FOR LEM
002793: E7,1745  E7,1662               TRANSTM            EQUALS   LNCHTM     +2                         #  I(2)S-S TRANSFER TIME
002794: E7,1745  E7,1664               NCSMVEL            EQUALS   TRANSTM    +2                         #  I(6)S-S NEW CSM VELOCITY
002795:
002796:
002797:                                                                                                  #           ***** P21 *****                              (18D)
002798:
002799: E7,1745     1162               P21ORIG            =        DISPDEX
002800: E7,1745  E7,1675               P21BASER           EQUALS   RLMSRCH                               #  I(6)TMP
002801: E7,1745  E7,1703               P21BASEV           EQUALS   P21BASER   +6                         #  I(6)TMP
002802: E7,1745  E7,1711               P21VEL             EQUALS   P21BASEV   +6                         #  I(2)TMP  *** NOUN 91 ***
002803: E7,1745  E7,1713               P21GAM             EQUALS   P21VEL     +2                         #  I(2)TMP  *** NOUN 91 ***
002804: E7,1745  E7,1715               P21ALT             EQUALS   P21GAM     +2                         #  I(2)TMP  *** NOUN 91 ***
002805:


002807:                                                                                                  #  *******  OVERLAY NUMBER 4 IN EBANK 7  *******
002808:
002809:
002810:                                                                                                  #  VARIABLES FOR SECOND DPS GUIDANCE (THE LUNAR LANDING)         (80D)
002811:
002812:                                                                                                  #  THESE ERASABLES MAY BE SHARED WITH CARE
002813:
002814: E7,1745  E7,1544               OURTEMPS           =        RN1                                   #  OVERLAY LAST PART OF SERVICER
002815: E7,1745  E7,1544               LANDTEMP           =        OURTEMPS                              #  B(6)     GUIDANCE
002816: E7,1745  E7,1552               TTF/8TMP           =        LANDTEMP   +6                         #  B(2)    GUIDANCE
002817: E7,1745  E7,1554               ELINCR             =        TTF/8TMP   +2                         #  B(2)    GUIDANCE
002818: E7,1745  E7,1556               AZINCR             =        ELINCR     +2                         #  B(2)    GUIDANCE
002819: E7,1745  E7,1560               KEEP-2             =        AZINCR     +2                         #  B(2)    TO PREVENT PIPTIME1 OVERLAY
002820: E7,1745  E7,1562               TABLTTF            =        KEEP-2     +2                         #  B(2)    GUIDANCE
002821: E7,1745  E7,1573               TPIPOLD            =        TABLTTF    +9D                        #  B(2)    GUIDANCE
002822: E7,1745  E7,1621               E2DPS              EQUALS   OURPERMS
002823:
002824:
002825:
002826:                                                                                                  #  THESE ERASABLES MUST NOT OVERLAY GOBLTIME OR SERVICER
002827:
002828: E7,1745  E7,1606               PIFPSET            =        XSMD                                  #  B(1)    THROTTLE
002829: E7,1745  E7,1607               RTNHOLD            =        PIFPSET    +1                         #  B(1)    THROTTLE
002830: E7,1745  E7,1610               FWEIGHT            =        RTNHOLD    +1                         #  B(2)    THROTTLE
002831: E7,1745  E7,1612               PIF                =        FWEIGHT    +2                         #  B(2)   THROTTLE
002832: E7,1745  E7,1614               PSEUDO55           =        PIF        +2                         #  B(1)   THROTTLE DOWNLINK
002833: E7,1745  E7,1615               FC                 =        PSEUDO55   +1                         #  B(2)    THROTTLE
002834: E7,1745  E7,1617               TTHROT             =        FC         +2                         #  B(1)    THROTTLE
002835: E7,1745  E7,1620               FCOLD              =        TTHROT     +1                         #  B(1)    THROTTLE
002836:
002837:
002838:
002839:                                                                                                  #  THESE ERASABLES SHOULD NOT BE SHARED DURING P63, P64, P65, P66, P67
002840:
002841: E7,1745  E7,1621               OURPERMS           =        FCOLD      +1                         #  MUSTN'T OVERLAY OURTEMPS OR SERVICER
002842: E7,1745  E7,1621               WCHPHOLD           =        OURPERMS                              #  B(1)    GUIDANCE
002843: E7,1745  E7,1622               511CTR             =        WCHPHOLD   +1                         #  B(1) R12 - CONTROLS 511 ALARM
002844: E7,1745  E7,1623               FLPASS0            =        511CTR     +1                         #  B(1) GUIDANCE
002845: E7,1745  E7,1623               CNTTHROT           EQUALS   FLPASS0                               #  B(1) CNT THROTS BETWEEN OMISSIONS OF P66
002846: E7,1745  E7,1624               TPIP               =        FLPASS0    +1                         #  B(2)
002847: E7,1745  E7,1626               VGU                =        TPIP       +2                         #  B(6)    GUIDANCE
002848: E7,1745  E7,1634               LAND               =        VGU        +6                         #  B(6)    GUIDANCE    CONTIGUOUS
002849: E7,1745  E7,1642               TTF/8              =        LAND       +6                         #  B(2)    GUIDANCE    CONTIGUOUS
002850: E7,1745  E7,1644               AZINCR1            =        TTF/8      +2                         #  B(1)    REDESIGNATOR
002851: E7,1745  E7,1645               ELINCR1            =        AZINCR1    +1                         #  B(1)    REDESIGNATOR
002852: E7,1745  E7,1646               ZERLINA            =        ELINCR1    +1                         #  B(1)    REDESIGNATOR
002853: E7,1745  E7,1647               ELVIRA             =        ZERLINA    +1                         #  B(1)    REDESIGNATOR
002854: E7,1745  E7,1650               LRPOS              =        ELVIRA     +1                         #  B(1)    LAST LR ANTENNA POSITION
002855:
002856:                                                                                                  #                                ** NOTE: GAP OF 1 SP LOCATION HERE IN THIS P63 THRU P66 OVERLAY **
002857:


002859: E7,1745  E7,1652               VMEAS              =        LRPOS      +2                         #  B(2) LR VELOCITY READ BY BEAM X, Y OR Z.
002860: E7,1745  E7,1654               HMEAS              =        VMEAS      +2                         #  B(2)    LR
002861: E7,1745  E7,1656               VN2                =        HMEAS      +2                         #  B(6)    LR
002862: E7,1745  E7,1656               GNUR               =        VN2                                   #  B(6)     LR
002863: E7,1745  E7,1656               GNUV               =        VN2                                   #  B(6)     LR
002864: E7,1745  E7,1664               DELTAH             =        VN2        +6                         #  B(2)    DISPLAY
002865: E7,1745  E7,1666               FUNNYDSP           =        DELTAH     +2                         #  B(2)    DISPLAY
002866: E7,1745  E7,1670               EOURPERM           EQUALS   FUNNYDSP   +2                         #  NEXT AVAILABLE ERASABLE AFTER OURPERMS
002867: E7,1745  E7,1456               OVFRET             EQUALS   LOSCOUNT                              #  B(1) RETURN FROM DESCENT OVERFLOW SUBRO
002868:
002869:
002870:
002871:                                                                                                  #  (ERASABLES WHICH OVERLAY THE ABOVE BLOCK)
002872:
002873: E7,1745  E7,1644               VDGVERT            =        AZINCR1                               #  B(2)  DESIRED VERTICAL VELOCITY - P66
002874: E7,1745  E7,1646               NIGNLOOP           =        ZERLINA                               #  B(1)   IGNALG
002875: E7,1745  E7,1647               NGUIDSUB           =        ELVIRA                                #  B(1)   IGNALG
002876: E7,1745  E7,1666               TREDES             =        FUNNYDSP                              #  B(1)    DISPLAY
002877: E7,1745  E7,1667               LOOKANGL           =        FUNNYDSP   +1                         #  B(1)    DISPLAY
002878:
002879:
002880:                                                                                                  #  THE END OF THE LUNAR LANDING ERASABLES
002881:
002882:
002883:
002884:                                                                                                  #           R12 (FOR LUNAR LANDING)                       (6D)
002885:
002886: E7,1745  E7,1670               LRLCTR             EQUALS   EOURPERM                              #  B(1) LR DATA TEST
002887: E7,1745  E7,1671               LRRCTR             EQUALS   LRLCTR     +1                         #  B(1)
002888: E7,1745  E7,1672               LRMCTR             EQUALS   LRRCTR     +1                         #  B(1)
002889: E7,1745  E7,1673               LRSCTR             EQUALS   LRMCTR     +1                         #  B(1)
002890: E7,1745  E7,1674               STILBADH           EQUALS   LRSCTR     +1                         #  B(1)
002891: E7,1745  E7,1675               STILBADV           EQUALS   STILBADH   +1                         #  B(1)
002892:
002893:
002894:
002895:                                                                                                  #           LANDING ANALOGS DISPLAY STORAGE.              (32D)
002896:
002897: E7,1745  E7,1676               G-VBIASX           =        STILBADV   +1                         #  B(1)    ACC DUE TO GRAVITY AND PIPA BIAS
002898: E7,1745  E7,1677               G-VBIASY           =        G-VBIASX   +1                         #  B(1)    ACC DUE TO GRAVITY AND PIPA BIAS
002899: E7,1745  E7,1700               G-VBIASZ           =        G-VBIASY   +1                         #  B(1)    ACC DUE TO GRAVITY AND PIPA BIAS
002900: E7,1745  E7,1701               VSURFACE           =        G-VBIASZ   +1                         #  B(6)    LUNAR SURFACE VELOCITY
002901: E7,1745  E7,1707               HCALCLAD           =        VSURFACE   +6                         #  B(2)    ALTITUDE IN UNITS OF 2(15) M
002902: E7,1745  E7,1711               HDOTLAD            =        HCALCLAD   +2                         #  B(2)    ALTRATE IN UNITS OF 2(5) M/CS
002903: E7,1745  E7,1713               DALTRATE           =        HDOTLAD    +2                         #  B(1)    DALTRATE UNITS OF 2(-9) M/CS/CS
002904: E7,1745  E7,1714               RUNITX             =        DALTRATE   +1                         #  B(1)    X-COMPONENT OF UNIT/R/ FULL-SIZE
002905: E7,1745  E7,1715               RUNITY             =        RUNITX     +1                         #  B(1)    Y-COMPONENT OF UNIT/R/ FULL-SIZE
002906: E7,1745  E7,1716               RUNITZ             =        RUNITY     +1                         #  B(1)    Z-COMPONENT OF UNIT/R/ FULL-SIZE
002907: E7,1745  E7,1717               DT                 =        RUNITZ     +1                         #  B(1)    TIME SINCE LAST PIPTIME
002908: E7,1745  E7,1720               VVECTX             =        DT         +1                         #  B(2)    X-COMPONENT OF SM REL. VELOCITY
002909:


002911: E7,1745  E7,1722               VVECTY             =        VVECTX     +2                         #  B(2)    Y-COMPONENT OF SM REL. VELOCITY
002912: E7,1745  E7,1724               VVECTZ             =        VVECTY     +2                         #  B(2)    Z-COMPONENT OF SM REL. VELOCITY
002913: E7,1745  E7,1726               ALTRATE            =        VVECTZ     +2                         #  B(2)    ALTRATE IN UNITS OF 2(5) M/CS
002914: E7,1745  E7,1730               ALTITUDE           =        ALTRATE    +2                         #  B(2)    ALTITUDE IN UNITS OF 2(15) M
002915: E7,1745  E7,1732               LATVMETR           =        ALTITUDE   +2                         #  B(1)    LATERAL VELOCITY METER INDICATOR
002916: E7,1745  E7,1733               FORVMETR           =        LATVMETR   +1                         #  B(1)    FORWARD VELOCITY METER INDICATOR
002917: E7,1745  E7,1734               FORVEL             =        FORVMETR   +1                         #  B(2)    FORWARD VELOCITY FOR DSKY (N60)
002918: E7,1745  E7,1722               PIPCTR1            =        VVECTY                                #  B(1)    TEMPORARY FOR PIPCTR
002919:
002920:
002921: E7,1745     0063               ALTRTEMP           =        ITEMP3                                #  B(2)    ALTITUDE-RATE TEMPORARY
002922: E7,1745     0063               ALTTEMP            =        ITEMP3                                #  B(2)    ALTITUDE TEMPORARY
002923: E7,1745     0063               VHY                =        ITEMP3                                #  B(2)    VELOCITY ALONG UHYP (I.E. SM-Y)
002924: E7,1745     0065               VHZ                =        ITEMP5                                #  B(2)    VELOCITY ALONG UHZP
002925: E7,1745     0070               FORVTEMP           =        RUPTREG1                              #  B(2)    FORWARD VELOCITY TEMPORARY
002926: E7,1745     0072               LATVEL             =        RUPTREG3                              #  B(2)    LATERAL VELOCITY TEMPORARY
002927:
002928:
002929:
002930:                                                                                                  #           DOWNLINK QTY -- GOOD THROUGHOUT LANDING -- LOADED IN SERVICER (2D)
002931:
002932: E7,1745  E7,1736               TRUDELH            EQUALS   FORVEL     +2                         #  I(2)DNLK  TRUE DELTA H FOR DOWNLINK,
002933:                                                                                                  #      LOADED BEFORE ENTERING TERRAIN MODEL
002934:
002935:
002936:                                                                                                  #  P66 ERASABLES (HORIZONTAL VELOCITY NULLING GUIDANCE)
002937: E7,1745  E7,1433               VHZC               EQUALS   DELVLVC                               #  B(6) VELOCITY HORIZONTAL COMMAND
002938:
002939:
002940:
002941:                                                                                                  #           P66 ERASABLES (R.O.D.)                         (1D)
002942:
002943: E7,1745  E7,1746               RODCOUNT           EQUALS   R65CNTR    +1                         #  B(1)    ROD CLICK COUNTER
002944:
002945:
002946:                                                                                                  #           P66 ERASABLES (R.O.D.)                        (14D)
002947:
002948:                                                                                                  #  **** NOTE: OLDPIPAX,Y,Z AND DELVROD MUST BE KEPT ADJACENT AND IN THAT ORDER FOR P66 INITIALIZATIONS ****
002949:
002950: E7,1745  E7,1756               RODSCAL1           EQUALS   RM                                    #  B(1)
002951: E7,1745  E7,1757               LASTTPIP           EQUALS   RODSCAL1   +1                         #  I(2)
002952: E7,1745  E7,1761               THISTPIP           EQUALS   LASTTPIP   +2                         #  B(2)
002953: E7,1745  E7,1763               OLDPIPAX           EQUALS   THISTPIP   +2                         #  B(1)
002954: E7,1745  E7,1764               OLDPIPAY           EQUALS   OLDPIPAX   +1                         #  B(1)
002955: E7,1745  E7,1765               OLDPIPAZ           EQUALS   OLDPIPAY   +1                         #  B(1)
002956: E7,1745  E7,1766               DELVROD            EQUALS   OLDPIPAZ   +1                         #  B(6)
002957:
002958:
002959:
002960:                                                                                                  #           TERRAIN MODEL TEMPORARY -- LOADED IN SERVICER        (2D)
002961:


002963: E7,1745  E7,1766               TEMDELH            EQUALS   DELVROD                               #  I(2)TMP  STORES TRUE DELTAH IN TER. MOD.
002964:
002965:
002966:                                                                                                  #  NOUN 63 COMPONENT                             (2D)
002967: E7,1745  E7,1774               HCALC1             EQUALS   DELVROD    +6                         #  I(2)
002968:
002969:
002970:                                                                                                  #  LANDING RADAR DOWNLINK                                (2D)
002971: E7,1745  E7,1776               HMEASDL            EQUALS   HCALC1     +2                         #  B(2)
002972:
002973:


002975:                                                                                                  #  *******  OVERLAY NUMBER 5 IN EBANK 7  *******
002976:
002977:
002978:
002979:
002980:                                                                                                  #           ASCENT GUIDANCE ERASABLES.                    (21D)
002981:
002982: E7,1745  E7,1630               RCO                EQUALS   END-ALIG                              #  I(2)TMP TARGET RADIUS AND OUT-OF-PLANE
002983: E7,1745  E7,1632               YCO                EQUALS   RCO        +2                         #  I(2)TMP DISTANCE, SCALED AT 2(24).
002984: E7,1745  E7,1634               1/DV1              EQUALS   YCO        +2                         #  B(2)TMP ATMAG
002985: E7,1745  E7,1636               1/DV2              EQUALS   1/DV1      +2                         #  B(2)TMP ATMAG
002986: E7,1745  E7,1640               1/DV3              EQUALS   1/DV2      +2                         #  B(2)TMP ATMAG
002987: E7,1745  E7,1642               XRANGE             EQUALS   1/DV3      +2                         #  B(2)TMP
002988: E7,1745  E7,1644               ENGOFFDT           EQUALS   XRANGE     +2                         #  B(1)TMP
002989: E7,1745  E7,1645               VGVECT             EQUALS   ENGOFFDT   +1                         #  I(6)OUT VELOCITY-TO-BE-GAINED
002990: E7,1745  E7,1653               TXO                EQUALS   VGVECT     +6                         #  I(2)TMP TIME AT WHICH X-AXIS OVERRIDE
002991:                                                                                                  #  IS ALLOWED.
002992:
002993: E7,1745  E7,1570               1/DV0              EQUALS   MASS1                                 #  B(2)TMP  ATMAG TEMPORARY
002994:
002995:
002996:                                                                                                  #  END OF THE ASCENT GUIDANCE ERASABLES.
002997:
002998: E7,1745                        END-E7             EQUALS   3777                                  #  ** LAST LOCATION USED IN E7 **

End of include-file ERASABLE_ASSIGNMENTS.agc.  Parent file is MAIN.agc


