
Source Code


000002:                                                                                                  ## Copyright:   Public domain.
000003:                                                                                                  ## Filename:    EXECUTIVE.agc
000004:                                                                                                  ## Purpose:     A section of Luminary revision 210.
000005:                                                                                                  ##              It is part of the source code for the Lunar Module's (LM)
000006:                                                                                                  ##              Apollo Guidance Computer (AGC) for Apollo 15-17.
000007:                                                                                                  ##              This file is intended to be a faithful transcription, except
000008:                                                                                                  ##              that the code format has been changed to conform to the
000009:                                                                                                  ##              requirements of the yaYUL assembler rather than the
000010:                                                                                                  ##              original YUL assembler.
000011:                                                                                                  ## Reference:   pp. 1101-1114
000012:                                                                                                  ## Assembler:   yaYUL
000013:                                                                                                  ## Contact:     Ron Burkey <info@sandroid.org>.
000014:                                                                                                  ## Website:     www.ibiblio.org/apollo/index.html
000015:                                                                                                  ## Mod history: 2016-11-17 JL   Created from Luminary131 version.
000016:                                                                                                  ##              2016-11-18 MAS  Transcribed.
000017:


000019:    5063                                           BLOCK    02
000020:                                                                                                  #           TO ENTER A JOB REQUEST REQUIRING NO VAC AREA:
000021:
000022:    5063                                           COUNT*   $$/EXEC
000023:    5063           00004        NOVAC              INHINT
000024:    5064           65155                           AD       FAKEPRET                              #  LOC(MPAC +6) - LOC(QPRET)
000025:    5065           54063                           TS       NEWPRIO                               #  PRIORITY OF NEW JOB + NOVAC C(FIXLOC)
000026:
000027:    5066           00006                           EXTEND
000028:    5067           50002                           INDEX    Q                                     #  Q WILL BE UNDISTURBED THROUGHOUT.
000029:    5070           30001                           DCA      0                                     #  2CADR OF JOB ENTERED.
000030:    5071           52066                           DXCH     NEWLOC
000031:    5072           35154                           CAF      EXECBANK
000032:    5073           56004                           XCH      FBANK
000033:    5074           54061                           TS       EXECTEM1
000034:    5075           12631                           TCF      NOVAC2                                #  ENTER EXECUTIVE BANK.
000035:
000036:                                                                                                  #           TO ENTER A JOB REQUEST REQUIRING A VAC AREA - E.G., ALL (PARTIALLY) INTERPRETIVE JOBS.
000037:
000038:    5076           00004        FINDVAC            INHINT
000039:    5077           54063                           TS       NEWPRIO
000040:    5100           00006                           EXTEND
000041:    5101           50002                           INDEX    Q
000042:    5102           30001                           DCA      0
000043:    5103           52066        SPVACIN            DXCH     NEWLOC
000044:    5104           35154                           CAF      EXECBANK
000045:    5105           56004                           XCH      FBANK
000046:    5106           12605                           TCF      FINDVAC2                              #  OFF TO EXECUTIVE SWITCHED-BANK.
000047:
000048:                                                                                                  #           TO ENTER A FINDVAC WITH THE PRIORITY IN NEWPRIO TO THE 2CADR ARRIVING IN A AND L:
000049:
000050:                                                                                                  #           USERS OF SPVAC MUST INHINT BEFORE STORING IN NEWPRIO.
000051:
000052:    5107           56002        SPVAC              XCH      Q
000053:    5110           67767                           AD       NEG2
000054:    5111           56002                           XCH      Q
000055:    5112           15103                           TCF      SPVACIN
000056:
000057:                                                                                                  #           TO SUSPEND A BASIC JOB SO A HIGHER PRIORITY JOB MAY BE SERVICED:
000058:
000059:    5113           22002        CHANG1             LXCH     Q
000060:    5114           35154                           CAF      EXECBANK
000061:    5115           56006                           XCH      BBANK
000062:    5116           12712                           TCF      CHANJOB
000063:
000064:                                                                                                  #           TO SUSPEND AN INTERPRETIVE JOB:
000065:
000066:    5117           40164        CHANG2             CS       LOC                                   #  NEGATIVE LOC SHOWS JOB = INTERPRETIVE.
000067:                                                                                                  #           ITRACE (4) REFERS TO "CHANG2".
000068:    5120           54001                           TS       L


000070:    5121           35154                 +2        CAF      EXECBANK
000071:    5122           54006                           TS       BBANK
000072:    5123           12711                           TCF      CHANJOB    -1
000073:


000075:                                                                                                  #           TO VOLUNTARILY SUSPEND A JOB UNTIL THE COMPLETION OF SOME ANTICIPATED EVENT (I/O EVENT ETC.):
000076:
000077:    5124           54164        JOBSLEEP           TS       LOC
000078:    5125           35154                           CAF      EXECBANK
000079:    5126           54004                           TS       FBANK
000080:    5127           13002                           TCF      JOBSLP1
000081:
000082:                                                                                                  #           TO AWAKEN A JOB PUT TO SLEEP IN THE ABOVE FASHION:
000083:
000084:    5130           00004        JOBWAKE            INHINT
000085:    5131           54065                           TS       NEWLOC
000086:    5132           44743                           CS       TWO                                   #  EXIT IS VIA FINDVAC/NOVAC PROCEDURES.
000087:    5133           26002                           ADS      Q
000088:    5134           35154                           CAF      EXECBANK
000089:    5135           56004                           XCH      FBANK
000090:    5136           13027                           TCF      JOBWAKE2
000091:
000092:                                                                                                  #           TO CHANGE THE PRIORITY OF A JOB CURRENTLY UNDER EXECUTION:
000093:
000094:    5137           00004        PRIOCHNG           INHINT                                         #  NEW PRIORITY ARRIVES IN A. RETURNS TO
000095:    5140           54063                           TS       NEWPRIO                               #  CALLER AS SOON AS NEW JOB PRIORITY IS
000096:    5141           35154                           CAF      EXECBANK                              #  HIGHEST. PREPARE FOR POSSIBLE BASIC-
000097:    5142           56006                           XCH      BBANK                                 #  STYLE CHANGE-JOB.
000098:    5143           54165                           TS       BANKSET
000099:    5144           30002                           CA       Q
000100:    5145           13076                           TCF      PRIOCH2
000101:
000102:                                                                                                  #           TO REMOVE A JOB FROM EXECUTIVE CONSIDERATIONS:
000103:
000104:    5146           35154        ENDOFJOB           CAF      EXECBANK
000105:    5147           54004                           TS       FBANK
000106:    5150           13107                           TCF      ENDJOB1
000107:
000108:    5151           30061        ENDFIND            CA       EXECTEM1                              #  RETURN TO CALLER AFTER JOB ENTRY
000109:    5152           54004                           TS       FBANK                                 #  COMPLETE.
000110:    5153           16762                           TCF      Q+2
000111:    5154           02605        EXECBANK           CADR     FINDVAC2
000112:
000113:    5155           00110        FAKEPRET           ADRES    MPAC       -36D                       #  LOC(MPAC +6) - LOC(QPRET)
000114:
000115:                                                                                                  #           TO CHANGE A "FINDVAC" JOB TO A "NOVAC" -- RELEASE ITS VAC AREA:
000116:    5156           30167        VACRLEAS           CA       PRIORITY                              #  CHANGE TO NOVAC VALUE
000117:    5157           77746                           MASK     PRIO37
000118:    5160           65155                           AD       FAKEPRET
000119:    5161           56167                           XCH      PRIORITY
000120:    5162           74775                           MASK     LOW9
000121:    5163           10000                           CCS      A
000122:    5164           50000                           INDEX    A
000123:    5165           54000                           TS       0                                     #  RELEASE VAC AREA
000124:    5166           00002                           TC       Q
000125:


000127:                                                                                                  #           LOCATE AN AVAILABLE VAC AREA.
000128:
000129: 01,2605                                           BANK     01
000130: 01,2605                                           COUNT*   $$/EXEC
000131: 01,2605           54061        FINDVAC2           TS       EXECTEM1                              #  (SAVE CALLER'S BANK FIRST.)
000132: 01,2606           10400                           CCS      VAC1USE
000133: 01,2607           12624                           TCF      VACFOUND
000134: 01,2610           10454                           CCS      VAC2USE
000135: 01,2611           12624                           TCF      VACFOUND
000136: 01,2612           10530                           CCS      VAC3USE
000137: 01,2613           12624                           TCF      VACFOUND
000138: 01,2614           10604                           CCS      VAC4USE
000139: 01,2615           12624                           TCF      VACFOUND
000140: 01,2616           10660                           CCS      VAC5USE
000141: 01,2617           12624                           TCF      VACFOUND
000142: 01,2620           22061                           LXCH     EXECTEM1
000143: 01,2621           30002                           CA       Q
000144: 01,2622           05712                           TC       BAILOUT1
000145: 01,2623           31201                           OCT      31201                                 #  NO VAC AREAS
000146:
000147: 01,2624           64743        VACFOUND           AD       TWO                                   #  RESERVE THIS VAC AREA BY STORING A ZERO
000148: 01,2625           22007                           ZL                                             #  IN ITS VAC USE REGISTER AND STORE THE
000149: 01,2626           50000                           INDEX    A                                     #  ADDRESS OF THE FIRST WORD OF IT IN THE
000150: 01,2627           21777                           LXCH     0          -1                         #  LOW NINE BITS OF THE PRIORITY WORD.
000151: 01,2630           26063                           ADS      NEWPRIO
000152:
000153: 01,2631           34746        NOVAC2             CAF      ZERO                                  #  NOVAC ENTERS HERE. FIND A CORE SET.
000154: 01,2632           54064                           TS       LOCCTR
000155: 01,2633           32640                           CAF      NO.CORES                              #  SEVEN SETS OF ELEVEN REGISTERS EACH.
000156: 01,2634           54062        NOVAC3             TS       EXECTEM2
000157: 01,2635           50064                           INDEX    LOCCTR
000158: 01,2636           10167                           CCS      PRIORITY                              #  EACH PRIORITY REGISTER CONTAINS -0 IF
000159: 01,2637           12700                           TCF      NEXTCORE                              #  THE CORRESPONDING CORE SET IS AVAILABLE.
000160: 01,2640           00007        NO.CORES           DEC      7          B-14
000161: 01,2641           12700                           TCF      NEXTCORE                              #  AN ACTIVE JOB HAS A POSITIVE PRIORITY
000162:                                                                                                  #  BUT A DORMANT JOB'S PRIORITY IS NEGATIVE
000163:


000165: 01,2642           30063        CORFOUND           CA       NEWPRIO                               #  SET THE PRIORITY OF THIS JOB IN THE CORE
000166: 01,2643           50064                           INDEX    LOCCTR                                #  SET'S PRIORITY REGISTER AND SET THE
000167: 01,2644           54167                           TS       PRIORITY                              #  JOB'S PUSH-DOWN POINTER AT THE BEGINNING
000168: 01,2645           74775                           MASK     LOW9                                  #  OF THE WORK AREA AND OVERFLOW INDICATOR
000169: 01,2646           50064                           INDEX    LOCCTR
000170: 01,2647           54166                           TS       PUSHLOC                               #  OFF TO PREPARE FOR INTERPRETIVE PROGRAMS
000171:
000172: 01,2650           10064                           CCS      LOCCTR                                #  IF CORE SET ZERO IS BEING LOADED, SET UP
000173: 01,2651           12665                           TCF      SETLOC                                #  OVFIND AND FIXLOC IMMEDIATELY .
000174: 01,2652           54121                           TS       OVFIND
000175: 01,2653           30166                           CA       PUSHLOC
000176: 01,2654           54120                           TS       FIXLOC
000177:
000178: 01,2655           10067        SPECTEST           CCS      NEWJOB                                #  SEE IF ANY ACTIVE JOBS WAITING (RARE).
000179: 01,2656           12665                           TCF      SETLOC                                #  MUST BE AWAKENED BUT UNCHANGED JOB.
000180: 01,2657           05701                           TC       CCSHOLE
000181: 01,2660           05701                           TC       CCSHOLE
000182: 01,2661           54067                           TS       NEWJOB                                #  +0 SHOWS ACTIVE JOB ALREADY SET.
000183: 01,2662           52066                           DXCH     NEWLOC
000184: 01,2663           52165                           DXCH     LOC
000185: 01,2664           15151                           TCF      ENDFIND
000186:
000187: 01,2665           52066        SETLOC             DXCH     NEWLOC                                #  SET UP THE LOCATION REGISTERS FOR THIS
000188: 01,2666           50064                           INDEX    LOCCTR
000189: 01,2667           52165                           DXCH     LOC
000190: 01,2670           50067                           INDEX    NEWJOB                                #  THIS INDEX INSTRUCTION INSURES THAT THE
000191: 01,2671           40167                           CS       PRIORITY                              #  HIGHEST ACTIVE PRIORITY WILL BE COMPARED
000192: 01,2672           60063                           AD       NEWPRIO                               #  WITH THE NEW PRIORITY TO SEE IF NEWJOB
000193: 01,2673           00006                           EXTEND                                         #  SHOULD BE SET TO SIGNAL A SWITCH.
000194: 01,2674           65151                           BZMF     ENDFIND
000195: 01,2675           30064                           CA       LOCCTR                                #  LOCCTR IS LEFT SET AT THIS CORE SET IF
000196: 01,2676           54067                           TS       NEWJOB                                #  THE CALLER WANTS TO LOAD ANY MPAC
000197: 01,2677           15151                           TCF      ENDFIND                               #  REGISTERS, ETC.
000198:
000199: 01,2700           33037        NEXTCORE           CAF      COREINC
000200: 01,2701           26064                           ADS      LOCCTR
000201: 01,2702           10062                           CCS      EXECTEM2
000202: 01,2703           12634                           TCF      NOVAC3
000203: 01,2704           22061                           LXCH     EXECTEM1
000204: 01,2705           30002                           CA       Q
000205: 01,2706           05712                           TC       BAILOUT1                              #  NO CORE SETS AVAILABLE.
000206: 01,2707           31202                           OCT      31202


000208:                                                                                                  #           THE FOLLOWING ROUTINE SWAPS CORE SET 0 WITH THAT WHOSE RELATIVE ADDRESS IS IN NEWJOB.
000209:
000210: 01,2710           22164                 -2        LXCH     LOC
000211: 01,2711           30165                 -1        CAE      BANKSET                               #  BANKSET, NOT BBANK, HAS RIGHT CONTENTS.
000212: 01,2712           00004        CHANJOB            INHINT
000213: 01,2713           00006                           EXTEND
000214: 01,2714           04007                           ROR      SUPERBNK                              #  PICK UP CURRENT SBANK FOR BBCON
000215: 01,2715           56001                           XCH      L                                     #  LOC IN A AND BBCON IN L.
000216: 01,2716           50067                 +4        INDEX    NEWJOB                                #  SWAP LOC AND BANKSET.
000217: 01,2717           52165                           DXCH     LOC
000218: 01,2720           52165                           DXCH     LOC
000219:
000220: 01,2721           30165                           CAE      BANKSET
000221: 01,2722           00006                           EXTEND
000222: 01,2723           01007                           WRITE    SUPERBNK                              #  SET SBANK FOR NEW JOB.
000223: 01,2724           52155                           DXCH     MPAC                                  #  SWAP MULTI-PURPOSE ACCUMULATOR AREAS.
000224: 01,2725           50067                           INDEX    NEWJOB
000225: 01,2726           52155                           DXCH     MPAC
000226: 01,2727           52155                           DXCH     MPAC
000227: 01,2730           52157                           DXCH     MPAC       +2
000228: 01,2731           50067                           INDEX    NEWJOB
000229: 01,2732           52157                           DXCH     MPAC       +2
000230: 01,2733           52157                           DXCH     MPAC       +2
000231: 01,2734           52161                           DXCH     MPAC       +4
000232: 01,2735           50067                           INDEX    NEWJOB
000233: 01,2736           52161                           DXCH     MPAC       +4
000234: 01,2737           52161                           DXCH     MPAC       +4
000235: 01,2740           52163                           DXCH     MPAC       +6
000236: 01,2741           50067                           INDEX    NEWJOB
000237: 01,2742           52163                           DXCH     MPAC       +6
000238: 01,2743           52163                           DXCH     MPAC       +6
000239:
000240: 01,2744           34746                           CAF      ZERO
000241: 01,2745           56121                           XCH      OVFIND                                #  MAKE PUSHLOC NEGATIVE IF OVFIND NZ.
000242: 01,2746           00006                           EXTEND
000243: 01,2747           12752                           BZF      +3
000244: 01,2750           40166                           CS       PUSHLOC
000245: 01,2751           54166                           TS       PUSHLOC
000246:
000247: 01,2752           52167                           DXCH     PUSHLOC
000248: 01,2753           50067                           INDEX    NEWJOB
000249: 01,2754           52167                           DXCH     PUSHLOC
000250: 01,2755           52167                           DXCH     PUSHLOC                               #  SWAPS PUSHLOC AND PRIORITY.
000251: 01,2756           34775                           CAF      LOW9                                  #  SET FIXLOC TO BASE OF VAC AREA.
000252: 01,2757           70167                           MASK     PRIORITY
000253: 01,2760           54120                           TS       FIXLOC
000254:
000255: 01,2761           10166                           CCS      PUSHLOC                               #  SET OVERFLOW INDICATOR ACCORDING TO
000256: 01,2762           34746                           CAF      ZERO
000257: 01,2763           12770                           TCF      ENDPRCHG   -1
000258:


000260: 01,2764           40166                           CS       PUSHLOC
000261: 01,2765           54166                           TS       PUSHLOC
000262: 01,2766           34744                           CAF      ONE
000263: 01,2767           56121                           XCH      OVFIND
000264: 01,2770           54067                           TS       NEWJOB
000265:
000266: 01,2771           00003        ENDPRCHG           RELINT
000267: 01,2772           52165                           DXCH     LOC                                   #  BASIC JOBS HAVE POSITIVE ADDRESSES, SO
000268: 01,2773           00006                           EXTEND                                         #  DISPATCH WITH A DTCB.
000269: 01,2774           62776                           BZMF     +2                                    #  IF INTERPRETIVE, SET UP EBANK, ETC.
000270: 01,2775           52006                           DTCB
000271:


000273: 01,2776           40000                           COM                                            #  EPILOGUE TO JOB CHANGE FOR INTERPRETIVE
000274: 01,2777           64744                           AD       ONE
000275: 01,3000           54164                           TS       LOC                                   #  RESUME.
000276: 01,3001           16071                           TCF      INTRSM
000277:
000278:                                                                                                  #           COMPLETE JOBSLEEP PREPARATIONS.
000279:
000280: 01,3002           00004        JOBSLP1            INHINT
000281: 01,3003           40167                           CS       PRIORITY                              #  NNZ PRIORITY SHOWS JOB ASLEEP.
000282: 01,3004           54167                           TS       PRIORITY
000283: 01,3005           36115                           CAF      LOW7
000284: 01,3006           70006                           MASK     BBANK
000285: 01,3007           00006                           EXTEND
000286: 01,3010           04007                           ROR      SUPERBNK                              #  SAVE OLD SUPERBANK VALUE.
000287: 01,3011           54165                           TS       BANKSET
000288: 01,3012           44746                           CS       ZERO
000289: 01,3013           54131        JOBSLP2            TS       BUF        +1                         #  HOLDS - HIGHEST PRIORITY.
000290: 01,3014           13124                           TCF      EJSCAN                                #  SCAN FOR HIGHEST PRIORITY ALA ENDOFJOB.
000291:
000292: 01,3015           00004        NUCHANG2           INHINT                                         #  QUICK... DONT LET NEWJOB CHANGE TO +0 .
000293: 01,3016           10067                           CCS      NEWJOB
000294: 01,3017           13022                           TCF      +3                                    #  NEWJOB STILL PNZ
000295: 01,3020           00003                           RELINT                                         #  NEWJOB HAS CHANGED TO +0. WAKE UP JOB
000296: 01,3021           13220                           TCF      ADVAN      +2                         #  VIA NUDIRECT. (VERY RARE CASE.)
000297:
000298: 01,3022           34743                           CAF      TWO
000299: 01,3023           00006                           EXTEND
000300: 01,3024           05011                           WOR      DSALMOUT                              #  TURN ON ACTIVITY LIGHT
000301: 01,3025           52165                           DXCH     LOC                                   #  AND SAVE ADDRESS INFO FOR BENEFIT OF
000302: 01,3026           12716                           TCF      CHANJOB    +4                         #   POSSIBLE SLEEPINT JOB.
000303:


000305:                                                                                                  #           TO WAKE UP A JOB, EACH CORE SET IS FOUND TO LOCATE ALL JOBS WHICH ARE ASLEEP. IF THE FCADR IN THE
000306:                                                                                                  #  LOC REGISTER OF ANY SUCH JOB MATCHES THAT SUPPLIED BY THE CALLER, THAT JOB IS AWAKENED. IF NO JOB IS FOUND,
000307:                                                                                                  #  LOCCTR IS SET TO -1 AND NO FURTHER ACTION TAKES PLACE.
000308:
000309: 01,3027           54061        JOBWAKE2           TS       EXECTEM1
000310: 01,3030           34746                           CAF      ZERO                                  #  BEGIN CORE SET SCAN.
000311: 01,3031           54064                           TS       LOCCTR
000312: 01,3032           32640                           CAF      NO.CORES
000313: 01,3033           54062        JOBWAKE4           TS       EXECTEM2
000314: 01,3034           50064                           INDEX    LOCCTR
000315: 01,3035           10167                           CCS      PRIORITY
000316: 01,3036           13041                           TCF      JOBWAKE3                              #  ACTIVE JOB - CHECK NEXT CORE SET.
000317: 01,3037           00014        COREINC            DEC      12         B-14                       #  12 REGISTERS PER CORE SET.
000318: 01,3040           13050                           TCF      WAKETEST                              #  SLEEPING JOB - SEE IF CADR MATCHES.
000319:
000320: 01,3041           33037        JOBWAKE3           CAF      COREINC
000321: 01,3042           26064                           ADS      LOCCTR
000322: 01,3043           10062                           CCS      EXECTEM2
000323: 01,3044           13033                           TCF      JOBWAKE4
000324: 01,3045           44744                           CS       ONE                                   #  EXIT IF SLEEPING JOB NOT FOUND.
000325: 01,3046           54064                           TS       LOCCTR
000326: 01,3047           15151                           TCF      ENDFIND
000327:
000328: 01,3050           40065        WAKETEST           CS       NEWLOC
000329: 01,3051           50064                           INDEX    LOCCTR
000330: 01,3052           60164                           AD       LOC
000331: 01,3053           00006                           EXTEND
000332: 01,3054           13056                           BZF      +2                                    #  IF MATCH.
000333: 01,3055           13041                           TCF      JOBWAKE3                              #  EXAMINE NEXT CORE SET IF NO MATCH.
000334:
000335: 01,3056           50064                           INDEX    LOCCTR                                #  RE-COMPLEMENT PRIORITY TO SHOW JOB AWAKE
000336: 01,3057           40167                           CS       PRIORITY
000337: 01,3060           54063                           TS       NEWPRIO
000338: 01,3061           50064                           INDEX    LOCCTR
000339: 01,3062           54167                           TS       PRIORITY
000340:
000341: 01,3063           44341                           CS       FBANKMSK                              #  MASK UP THE 2CADR OF THE WAKE ADDRESS
000342: 01,3064           70065                           MASK     NEWLOC                                #  USING THE CADR IN NEWLOC AND THE EBANK
000343: 01,3065           64732                           AD       2K                                    #  HALF OF BBANK SAVED IN BANKSET.
000344: 01,3066           56065                           XCH      NEWLOC
000345: 01,3067           74341                           MASK     FBANKMSK
000346: 01,3070           50064                           INDEX    LOCCTR
000347: 01,3071           60165                           AD       BANKSET
000348: 01,3072           54066                           TS       NEWLOC     +1
000349:
000350: 01,3073           10064                           CCS      LOCCTR                                #  SPECIAL TREATMENT IF THIS JOB WAS
000351: 01,3074           12665                           TCF      SETLOC                                #  ALREADY IN THE RUN (0) POSITION.
000352: 01,3075           12655                           TCF      SPECTEST
000353:


000355:                                                                                                  #           PRIORITY CHANGE. CHANGE THE CONTENTS OF PRIORITY AND SCAN FOR THE JOB OF HIGHEST PRIORITY.
000356:
000357: 01,3076           54164        PRIOCH2            TS       LOC
000358: 01,3077           34746                           CAF      ZERO                                  #  SET FLAG TO TELL ENDJOB SCANNER IF THIS
000359: 01,3100           54130                           TS       BUF                                   #  JOB IS STILL HIGHEST PRIORITY.
000360: 01,3101           34775                           CAF      LOW9
000361: 01,3102           70167                           MASK     PRIORITY
000362: 01,3103           60063                           AD       NEWPRIO
000363: 01,3104           54167                           TS       PRIORITY
000364: 01,3105           40000                           COM
000365: 01,3106           13013                           TCF      JOBSLP2                               #  AND TO EJSCAN.
000366:


000368:                                                                                                  #           RELEASE THIS CORE SET AND VAC AREA AND SCAN FOR THE JOB OF HIGHEST ACTIVE PRIORITY.
000369:
000370: 01,3107           00004        ENDJOB1            INHINT
000371: 01,3110           44746                           CS       ZERO
000372: 01,3111           54131                           TS       BUF        +1
000373: 01,3112           56167                           XCH      PRIORITY
000374: 01,3113           74775                           MASK     LOW9
000375: 01,3114           54001                           TS       L
000376:
000377: 01,3115           45155                           CS       FAKEPRET
000378: 01,3116           60001                           AD       L
000379:
000380: 01,3117           00006                           EXTEND
000381: 01,3120           63124                           BZMF     EJSCAN                                #  NOVAC ENDOFJOB
000382:
000383: 01,3121           10001                           CCS      L
000384: 01,3122           50000                           INDEX    A
000385: 01,3123           54000                           TS       0
000386:
000387: 01,3124           10203        EJSCAN             CCS      PRIORITY   +12D
000388: 01,3125           03175                           TC       EJ1
000389: 01,3126           05701                           TC       CCSHOLE
000390: 01,3127           13130                           TCF      +1
000391:
000392: 01,3130           10217                           CCS      PRIORITY   +24D                       #  EXAMINE EACH PRIORITY REGISTER TO FIND
000393: 01,3131           03175                           TC       EJ1                                   #  THE JOB OF HIGHEST ACTIVE PRIORITY.
000394: 01,3132           05701                           TC       CCSHOLE
000395: 01,3133           13134                           TCF      +1
000396:
000397: 01,3134           10233                           CCS      PRIORITY   +36D
000398: 01,3135           03175                           TC       EJ1
000399: 01,3136           67610        -CCSPR             -CCS     PRIORITY
000400: 01,3137           13140                           TCF      +1
000401:
000402: 01,3140           10247                           CCS      PRIORITY   +48D
000403: 01,3141           03175                           TC       EJ1
000404: 01,3142           05701                           TC       CCSHOLE
000405: 01,3143           13144                           TCF      +1
000406:
000407: 01,3144           10263                           CCS      PRIORITY   +60D
000408: 01,3145           03175                           TC       EJ1
000409: 01,3146           05701                           TC       CCSHOLE
000410: 01,3147           13150                           TCF      +1
000411:
000412: 01,3150           10277                           CCS      PRIORITY   +72D
000413: 01,3151           03175                           TC       EJ1
000414: 01,3152           05701                           TC       CCSHOLE
000415: 01,3153           13154                           TCF      +1
000416:
000417: 01,3154           10313                           CCS      PRIORITY   +84D


000419: 01,3155           03175                           TC       EJ1
000420: 01,3156           05701                           TC       CCSHOLE
000421: 01,3157           13160                           TCF      +1
000422:


000424:                                                                                                  #           EVALUATE THE RESULTS OF THE SCAN.
000425:
000426: 01,3160           10131                           CCS      BUF        +1                         #  SEE IF THERE ARE ANY ACTIVE JOBS WAITING
000427: 01,3161           05701                           TC       CCSHOLE
000428: 01,3162           05701                           TC       CCSHOLE
000429:
000430: 01,3163           13165                           TCF      +2
000431: 01,3164           13210                           TCF      DUMMYJOB
000432: 01,3165           10130                           CCS      BUF                                   #  BUF IS ZERO IS THIS IS A PRIOCHNG AND
000433: 01,3166           13170                           TCF      +2                                    #  CHANGED PRIORITY IS STILL HIGHEST.
000434: 01,3167           12770                           TCF      ENDPRCHG   -1
000435:
000436: 01,3170           50000                           INDEX    A                                     #  OTHERWISE, SET NEWJOB TO THE RELATIVE
000437: 01,3171           27777                           CAF      0          -1                         #  ADDRESS OF THE NEW JOB'S CORE SET.
000438: 01,3172           63136                           AD       -CCSPR
000439: 01,3173           54067                           TS       NEWJOB
000440: 01,3174           12710                           TCF      CHANJOB    -2
000441:
000442: 01,3175           54132        EJ1                TS       BUF        +2
000443: 01,3176           60131                           AD       BUF        +1                         #  - OLD HIGH PRIORITY.
000444: 01,3177           10000                           CCS      A
000445: 01,3200           40132                           CS       BUF        +2
000446: 01,3201           13204                           TCF      EJ2                                   #  NEW HIGH PRIORITY.
000447: 01,3202           13203                           NOOP
000448: 01,3203           16762                           TCF      Q+2
000449:
000450: 01,3204           54131        EJ2                TS       BUF        +1
000451: 01,3205           30002                           CA       Q
000452: 01,3206           54130                           TS       BUF
000453: 01,3207           16762                           TCF      Q+2
000454:


000456:                                                                                                  #           IDLING AND COMPUTER ACTIVITY (GREEN) LIGHT MAINTENANCE. THE IDLING ROUTINE IS NOT A JOB IN ITSELF,
000457:                                                                                                  #  BUT RATHER A SUBROUTINE OF THE EXECUTIVE.
000458:
000459: 01,3210     1361                                  EBANK=   SELFRET                               #  SELF-CHECK STORAGE IN EBANK.
000460:
000461: 01,3210           44746        DUMMYJOB           CS       ZERO                                  #  SET NEWJOB TO -0 FOR IDLING.
000462: 01,3211           54067                           TS       NEWJOB
000463: 01,3212           00003                           RELINT
000464: 01,3213           44743                           CS       TWO                                   #  TURN OFF THE ACTIVITY LIGHT.
000465: 01,3214           00006                           EXTEND
000466: 01,3215           03011                           WAND     DSALMOUT
000467: 01,3216           10067        ADVAN              CCS      NEWJOB                                #  IS A NEWJOB ACTIVE ?
000468: 01,3217           13015                           TCF      NUCHANG2                              #  YES... ONE REQUIRING A CHANGE JOB.
000469: 01,3220           34743                           CAF      TWO                                   #  NEW JOB ALREADY IN POSITION FOR
000470: 01,3221           13230                           TCF      NUDIRECT                              #  EXECUTION.
000471:
000472: 01,3222           25356                           INCR     DUMLOOPS                              #  COUNT DUMMYJOB LOOPS FOR DOWNLINK
000473:
000474: 01,3223           31361                           CA       SELFRET
000475: 01,3224           54001                           TS       L                                     #  PUT RETURN ADDRESS IN L.
000476: 01,3225           33227                           CAF      SELFBANK
000477: 01,3226           15170                           TCF      SUPDXCHZ   +1                         #   AND DISPATCH JOB.
000478:
000479: 01,3227     1361                                  EBANK=   SELFRET
000480: 01,3227           66102        SELFBANK           BBCON    SELFCHK
000481:
000482: 01,3230           00006        NUDIRECT           EXTEND                                         #  TURN THE GREEN LIGHT BACK ON.
000483: 01,3231           05011                           WOR      DSALMOUT
000484: 01,3232           52165                           DXCH     LOC                                   #  JOBS STARTED IN THIS FASHION MUST BE
000485: 01,3233           15167                           TCF      SUPDXCHZ
000486:
000487:    5167                                           BLOCK    2                                     #  IN FIXED-FIXED SO OTHERS MAY USE.
000488:
000489:    5167                                           COUNT*   $$/EXEC
000490:                                                                                                  #  SUPDXCHZ - ROUTINE TO TRANSFER TO SUPEBANK.
000491:                                                                                                  #  CALLING SEQUENCE
000492:                                                                                                  #                                                 TCF     SUPDXCHZ         WITH 2CADR OF DESIRED LOCATION IN A + L.
000493:
000494:    5167           56001        SUPDXCHZ           XCH      L                                     #  BASIC.
000495:    5170           00006                 +1        EXTEND
000496:    5171           01007                           WRITE    SUPERBNK
000497:    5172           54006                           TS       BBANK
000498:    5173           00001                           TC       L
000499:
000500:    5174           77677        NEG100             OCT      77677

End of include-file EXECUTIVE.agc.  Parent file is MAIN.agc


