
Source Code


000002:                                                                                                  ## Copyright:   Public domain.
000003:                                                                                                  ## Filename:    EXECUTIVE.agc
000004:                                                                                                  ## Purpose:     A section of Luminary revision 210.
000005:                                                                                                  ##              It is part of the source code for the Lunar Module's (LM)
000006:                                                                                                  ##              Apollo Guidance Computer (AGC) for Apollo 15-17.
000007:                                                                                                  ##              This file is intended to be a faithful transcription, except
000008:                                                                                                  ##              that the code format has been changed to conform to the
000009:                                                                                                  ##              requirements of the yaYUL assembler rather than the
000010:                                                                                                  ##              original YUL assembler.
000011:                                                                                                  ## Reference:   pp. 1101-1114
000012:                                                                                                  ## Assembler:   yaYUL
000013:                                                                                                  ## Contact:     Ron Burkey <info@sandroid.org>.
000014:                                                                                                  ## Website:     www.ibiblio.org/apollo/index.html
000015:                                                                                                  ## Mod history: 2016-11-17 JL   Created from Luminary131 version.
000016:                                                                                                  ##              2016-11-18 MAS  Transcribed.
000017:                                                                                                  ##              2016-12-26 RSB  Comment-text proofed using ProoferComments
000018:                                                                                                  ##                              and corrected errors found.
000019:


000021:    5063                                           BLOCK    02
000022:                                                                                                  #           TO ENTER A JOB REQUEST REQUIRING NO VAC AREA:
000023:
000024:    5063                                           COUNT*   $$/EXEC
000025:    5063           00004        NOVAC              INHINT
000026:    5064           65155                           AD       FAKEPRET                              #  LOC(MPAC +6) - LOC(QPRET)
000027:    5065           54063                           TS       NEWPRIO                               #  PRIORITY OF NEW JOB + NOVAC C(FIXLOC)
000028:
000029:    5066           00006                           EXTEND
000030:    5067           50002                           INDEX    Q                                     #  Q WILL BE UNDISTURBED THROUGHOUT.
000031:    5070           30001                           DCA      0                                     #  2CADR OF JOB ENTERED.
000032:    5071           52066                           DXCH     NEWLOC
000033:    5072           35154                           CAF      EXECBANK
000034:    5073           56004                           XCH      FBANK
000035:    5074           54061                           TS       EXECTEM1
000036:    5075           12631                           TCF      NOVAC2                                #  ENTER EXECUTIVE BANK.
000037:
000038:                                                                                                  #           TO ENTER A JOB REQUEST REQUIRING A VAC AREA - E.G., ALL (PARTIALLY) INTERPRETIVE JOBS.
000039:
000040:    5076           00004        FINDVAC            INHINT
000041:    5077           54063                           TS       NEWPRIO
000042:    5100           00006                           EXTEND
000043:    5101           50002                           INDEX    Q
000044:    5102           30001                           DCA      0
000045:    5103           52066        SPVACIN            DXCH     NEWLOC
000046:    5104           35154                           CAF      EXECBANK
000047:    5105           56004                           XCH      FBANK
000048:    5106           12605                           TCF      FINDVAC2                              #  OFF TO EXECUTIVE SWITCHED-BANK.
000049:
000050:                                                                                                  #           TO ENTER A FINDVAC WITH THE PRIORITY IN NEWPRIO TO THE 2CADR ARRIVING IN A AND L:
000051:
000052:                                                                                                  #           USERS OF SPVAC MUST INHINT BEFORE STORING IN NEWPRIO.
000053:
000054:    5107           56002        SPVAC              XCH      Q
000055:    5110           67767                           AD       NEG2
000056:    5111           56002                           XCH      Q
000057:    5112           15103                           TCF      SPVACIN
000058:
000059:                                                                                                  #           TO SUSPEND A BASIC JOB SO A HIGHER PRIORITY JOB MAY BE SERVICED:
000060:
000061:    5113           22002        CHANG1             LXCH     Q
000062:    5114           35154                           CAF      EXECBANK
000063:    5115           56006                           XCH      BBANK
000064:    5116           12712                           TCF      CHANJOB
000065:
000066:                                                                                                  #           TO SUSPEND AN INTERPRETIVE JOB:
000067:
000068:    5117           40164        CHANG2             CS       LOC                                   #  NEGATIVE LOC SHOWS JOB = INTERPRETIVE.
000069:                                                                                                  #           ITRACE (4) REFERS TO "CHANG2".
000070:    5120           54001                           TS       L


000072:    5121           35154                 +2        CAF      EXECBANK
000073:    5122           54006                           TS       BBANK
000074:    5123           12711                           TCF      CHANJOB    -1
000075:


000077:                                                                                                  #           TO VOLUNTARILY SUSPEND A JOB UNTIL THE COMPLETION OF SOME ANTICIPATED EVENT (I/O EVENT ETC.):
000078:
000079:    5124           54164        JOBSLEEP           TS       LOC
000080:    5125           35154                           CAF      EXECBANK
000081:    5126           54004                           TS       FBANK
000082:    5127           13002                           TCF      JOBSLP1
000083:
000084:                                                                                                  #           TO AWAKEN A JOB PUT TO SLEEP IN THE ABOVE FASHION:
000085:
000086:    5130           00004        JOBWAKE            INHINT
000087:    5131           54065                           TS       NEWLOC
000088:    5132           44743                           CS       TWO                                   #  EXIT IS VIA FINDVAC/NOVAC PROCEDURES.
000089:    5133           26002                           ADS      Q
000090:    5134           35154                           CAF      EXECBANK
000091:    5135           56004                           XCH      FBANK
000092:    5136           13027                           TCF      JOBWAKE2
000093:
000094:                                                                                                  #           TO CHANGE THE PRIORITY OF A JOB CURRENTLY UNDER EXECUTION:
000095:
000096:    5137           00004        PRIOCHNG           INHINT                                         #  NEW PRIORITY ARRIVES IN A. RETURNS TO
000097:    5140           54063                           TS       NEWPRIO                               #  CALLER AS SOON AS NEW JOB PRIORITY IS
000098:    5141           35154                           CAF      EXECBANK                              #  HIGHEST. PREPARE FOR POSSIBLE BASIC-
000099:    5142           56006                           XCH      BBANK                                 #  STYLE CHANGE-JOB.
000100:    5143           54165                           TS       BANKSET
000101:    5144           30002                           CA       Q
000102:    5145           13076                           TCF      PRIOCH2
000103:
000104:                                                                                                  #           TO REMOVE A JOB FROM EXECUTIVE CONSIDERATIONS:
000105:
000106:    5146           35154        ENDOFJOB           CAF      EXECBANK
000107:    5147           54004                           TS       FBANK
000108:    5150           13107                           TCF      ENDJOB1
000109:
000110:    5151           30061        ENDFIND            CA       EXECTEM1                              #  RETURN TO CALLER AFTER JOB ENTRY
000111:    5152           54004                           TS       FBANK                                 #  COMPLETE.
000112:    5153           16762                           TCF      Q+2
000113:    5154           02605        EXECBANK           CADR     FINDVAC2
000114:
000115:    5155           00110        FAKEPRET           ADRES    MPAC       -36D                       #  LOC(MPAC +6) - LOC(QPRET)
000116:
000117:                                                                                                  #           TO CHANGE A "FINDVAC" JOB TO A "NOVAC" -- RELEASE ITS VAC AREA:
000118:    5156           30167        VACRLEAS           CA       PRIORITY                              #  CHANGE TO NOVAC VALUE
000119:    5157           77746                           MASK     PRIO37
000120:    5160           65155                           AD       FAKEPRET
000121:    5161           56167                           XCH      PRIORITY
000122:    5162           74775                           MASK     LOW9
000123:    5163           10000                           CCS      A
000124:    5164           50000                           INDEX    A
000125:    5165           54000                           TS       0                                     #  RELEASE VAC AREA
000126:    5166           00002                           TC       Q
000127:


000129:                                                                                                  #           LOCATE AN AVAILABLE VAC AREA.
000130:
000131: 01,2605                                           BANK     01
000132: 01,2605                                           COUNT*   $$/EXEC
000133: 01,2605           54061        FINDVAC2           TS       EXECTEM1                              #  (SAVE CALLER'S BANK FIRST.)
000134: 01,2606           10400                           CCS      VAC1USE
000135: 01,2607           12624                           TCF      VACFOUND
000136: 01,2610           10454                           CCS      VAC2USE
000137: 01,2611           12624                           TCF      VACFOUND
000138: 01,2612           10530                           CCS      VAC3USE
000139: 01,2613           12624                           TCF      VACFOUND
000140: 01,2614           10604                           CCS      VAC4USE
000141: 01,2615           12624                           TCF      VACFOUND
000142: 01,2616           10660                           CCS      VAC5USE
000143: 01,2617           12624                           TCF      VACFOUND
000144: 01,2620           22061                           LXCH     EXECTEM1
000145: 01,2621           30002                           CA       Q
000146: 01,2622           05712                           TC       BAILOUT1
000147: 01,2623           31201                           OCT      31201                                 #  NO VAC AREAS
000148:
000149: 01,2624           64743        VACFOUND           AD       TWO                                   #  RESERVE THIS VAC AREA BY STORING A ZERO
000150: 01,2625           22007                           ZL                                             #  IN ITS VAC USE REGISTER AND STORE THE
000151: 01,2626           50000                           INDEX    A                                     #  ADDRESS OF THE FIRST WORD OF IT IN THE
000152: 01,2627           21777                           LXCH     0          -1                         #  LOW NINE BITS OF THE PRIORITY WORD.
000153: 01,2630           26063                           ADS      NEWPRIO
000154:
000155: 01,2631           34746        NOVAC2             CAF      ZERO                                  #  NOVAC ENTERS HERE. FIND A CORE SET.
000156: 01,2632           54064                           TS       LOCCTR
000157: 01,2633           32640                           CAF      NO.CORES                              #  SEVEN SETS OF ELEVEN REGISTERS EACH.
000158: 01,2634           54062        NOVAC3             TS       EXECTEM2
000159: 01,2635           50064                           INDEX    LOCCTR
000160: 01,2636           10167                           CCS      PRIORITY                              #  EACH PRIORITY REGISTER CONTAINS -0 IF
000161: 01,2637           12700                           TCF      NEXTCORE                              #  THE CORRESPONDING CORE SET IS AVAILABLE.
000162: 01,2640           00007        NO.CORES           DEC      7          B-14
000163: 01,2641           12700                           TCF      NEXTCORE                              #  AN ACTIVE JOB HAS A POSITIVE PRIORITY
000164:                                                                                                  #  BUT A DORMANT JOB'S PRIORITY IS NEGATIVE
000165:


000167: 01,2642           30063        CORFOUND           CA       NEWPRIO                               #  SET THE PRIORITY OF THIS JOB IN THE CORE
000168: 01,2643           50064                           INDEX    LOCCTR                                #  SET'S PRIORITY REGISTER AND SET THE
000169: 01,2644           54167                           TS       PRIORITY                              #  JOB'S PUSH-DOWN POINTER AT THE BEGINNING
000170: 01,2645           74775                           MASK     LOW9                                  #  OF THE WORK AREA AND OVERFLOW INDICATOR
000171: 01,2646           50064                           INDEX    LOCCTR
000172: 01,2647           54166                           TS       PUSHLOC                               #  OFF TO PREPARE FOR INTERPRETIVE PROGRAMS
000173:
000174: 01,2650           10064                           CCS      LOCCTR                                #  IF CORE SET ZERO IS BEING LOADED, SET UP
000175: 01,2651           12665                           TCF      SETLOC                                #  OVFIND AND FIXLOC IMMEDIATELY .
000176: 01,2652           54121                           TS       OVFIND
000177: 01,2653           30166                           CA       PUSHLOC
000178: 01,2654           54120                           TS       FIXLOC
000179:
000180: 01,2655           10067        SPECTEST           CCS      NEWJOB                                #  SEE IF ANY ACTIVE JOBS WAITING (RARE).
000181: 01,2656           12665                           TCF      SETLOC                                #  MUST BE AWAKENED BUT UNCHANGED JOB.
000182: 01,2657           05701                           TC       CCSHOLE
000183: 01,2660           05701                           TC       CCSHOLE
000184: 01,2661           54067                           TS       NEWJOB                                #  +0 SHOWS ACTIVE JOB ALREADY SET.
000185: 01,2662           52066                           DXCH     NEWLOC
000186: 01,2663           52165                           DXCH     LOC
000187: 01,2664           15151                           TCF      ENDFIND
000188:
000189: 01,2665           52066        SETLOC             DXCH     NEWLOC                                #  SET UP THE LOCATION REGISTERS FOR THIS
000190: 01,2666           50064                           INDEX    LOCCTR
000191: 01,2667           52165                           DXCH     LOC
000192: 01,2670           50067                           INDEX    NEWJOB                                #  THIS INDEX INSTRUCTION INSURES THAT THE
000193: 01,2671           40167                           CS       PRIORITY                              #  HIGHEST ACTIVE PRIORITY WILL BE COMPARED
000194: 01,2672           60063                           AD       NEWPRIO                               #  WITH THE NEW PRIORITY TO SEE IF NEWJOB
000195: 01,2673           00006                           EXTEND                                         #  SHOULD BE SET TO SIGNAL A SWITCH.
000196: 01,2674           65151                           BZMF     ENDFIND
000197: 01,2675           30064                           CA       LOCCTR                                #  LOCCTR IS LEFT SET AT THIS CORE SET IF
000198: 01,2676           54067                           TS       NEWJOB                                #  THE CALLER WANTS TO LOAD ANY MPAC
000199: 01,2677           15151                           TCF      ENDFIND                               #  REGISTERS, ETC.
000200:
000201: 01,2700           33037        NEXTCORE           CAF      COREINC
000202: 01,2701           26064                           ADS      LOCCTR
000203: 01,2702           10062                           CCS      EXECTEM2
000204: 01,2703           12634                           TCF      NOVAC3
000205: 01,2704           22061                           LXCH     EXECTEM1
000206: 01,2705           30002                           CA       Q
000207: 01,2706           05712                           TC       BAILOUT1                              #  NO CORE SETS AVAILABLE.
000208: 01,2707           31202                           OCT      31202


000210:                                                                                                  #           THE FOLLOWING ROUTINE SWAPS CORE SET 0 WITH THAT WHOSE RELATIVE ADDRESS IS IN NEWJOB.
000211:
000212: 01,2710           22164                 -2        LXCH     LOC
000213: 01,2711           30165                 -1        CAE      BANKSET                               #  BANKSET, NOT BBANK, HAS RIGHT CONTENTS.
000214: 01,2712           00004        CHANJOB            INHINT
000215: 01,2713           00006                           EXTEND
000216: 01,2714           04007                           ROR      SUPERBNK                              #  PICK UP CURRENT SBANK FOR BBCON
000217: 01,2715           56001                           XCH      L                                     #  LOC IN A AND BBCON IN L.
000218: 01,2716           50067                 +4        INDEX    NEWJOB                                #  SWAP LOC AND BANKSET.
000219: 01,2717           52165                           DXCH     LOC
000220: 01,2720           52165                           DXCH     LOC
000221:
000222: 01,2721           30165                           CAE      BANKSET
000223: 01,2722           00006                           EXTEND
000224: 01,2723           01007                           WRITE    SUPERBNK                              #  SET SBANK FOR NEW JOB.
000225: 01,2724           52155                           DXCH     MPAC                                  #  SWAP MULTI-PURPOSE ACCUMULATOR AREAS.
000226: 01,2725           50067                           INDEX    NEWJOB
000227: 01,2726           52155                           DXCH     MPAC
000228: 01,2727           52155                           DXCH     MPAC
000229: 01,2730           52157                           DXCH     MPAC       +2
000230: 01,2731           50067                           INDEX    NEWJOB
000231: 01,2732           52157                           DXCH     MPAC       +2
000232: 01,2733           52157                           DXCH     MPAC       +2
000233: 01,2734           52161                           DXCH     MPAC       +4
000234: 01,2735           50067                           INDEX    NEWJOB
000235: 01,2736           52161                           DXCH     MPAC       +4
000236: 01,2737           52161                           DXCH     MPAC       +4
000237: 01,2740           52163                           DXCH     MPAC       +6
000238: 01,2741           50067                           INDEX    NEWJOB
000239: 01,2742           52163                           DXCH     MPAC       +6
000240: 01,2743           52163                           DXCH     MPAC       +6
000241:
000242: 01,2744           34746                           CAF      ZERO
000243: 01,2745           56121                           XCH      OVFIND                                #  MAKE PUSHLOC NEGATIVE IF OVFIND NZ.
000244: 01,2746           00006                           EXTEND
000245: 01,2747           12752                           BZF      +3
000246: 01,2750           40166                           CS       PUSHLOC
000247: 01,2751           54166                           TS       PUSHLOC
000248:
000249: 01,2752           52167                           DXCH     PUSHLOC
000250: 01,2753           50067                           INDEX    NEWJOB
000251: 01,2754           52167                           DXCH     PUSHLOC
000252: 01,2755           52167                           DXCH     PUSHLOC                               #  SWAPS PUSHLOC AND PRIORITY.
000253: 01,2756           34775                           CAF      LOW9                                  #  SET FIXLOC TO BASE OF VAC AREA.
000254: 01,2757           70167                           MASK     PRIORITY
000255: 01,2760           54120                           TS       FIXLOC
000256:
000257: 01,2761           10166                           CCS      PUSHLOC                               #  SET OVERFLOW INDICATOR ACCORDING TO
000258: 01,2762           34746                           CAF      ZERO
000259: 01,2763           12770                           TCF      ENDPRCHG   -1
000260:


000262: 01,2764           40166                           CS       PUSHLOC
000263: 01,2765           54166                           TS       PUSHLOC
000264: 01,2766           34744                           CAF      ONE
000265: 01,2767           56121                           XCH      OVFIND
000266: 01,2770           54067                           TS       NEWJOB
000267:
000268: 01,2771           00003        ENDPRCHG           RELINT
000269: 01,2772           52165                           DXCH     LOC                                   #  BASIC JOBS HAVE POSITIVE ADDRESSES, SO
000270: 01,2773           00006                           EXTEND                                         #  DISPATCH WITH A DTCB.
000271: 01,2774           62776                           BZMF     +2                                    #  IF INTERPRETIVE, SET UP EBANK, ETC.
000272: 01,2775           52006                           DTCB
000273:


000275: 01,2776           40000                           COM                                            #  EPILOGUE TO JOB CHANGE FOR INTERPRETIVE
000276: 01,2777           64744                           AD       ONE
000277: 01,3000           54164                           TS       LOC                                   #  RESUME.
000278: 01,3001           16071                           TCF      INTRSM
000279:
000280:                                                                                                  #           COMPLETE JOBSLEEP PREPARATIONS.
000281:
000282: 01,3002           00004        JOBSLP1            INHINT
000283: 01,3003           40167                           CS       PRIORITY                              #  NNZ PRIORITY SHOWS JOB ASLEEP.
000284: 01,3004           54167                           TS       PRIORITY
000285: 01,3005           36115                           CAF      LOW7
000286: 01,3006           70006                           MASK     BBANK
000287: 01,3007           00006                           EXTEND
000288: 01,3010           04007                           ROR      SUPERBNK                              #  SAVE OLD SUPERBANK VALUE.
000289: 01,3011           54165                           TS       BANKSET
000290: 01,3012           44746                           CS       ZERO
000291: 01,3013           54131        JOBSLP2            TS       BUF        +1                         #  HOLDS - HIGHEST PRIORITY.
000292: 01,3014           13124                           TCF      EJSCAN                                #  SCAN FOR HIGHEST PRIORITY ALA ENDOFJOB.
000293:
000294: 01,3015           00004        NUCHANG2           INHINT                                         #  QUICK... DONT LET NEWJOB CHANGE TO +0 .
000295: 01,3016           10067                           CCS      NEWJOB
000296: 01,3017           13022                           TCF      +3                                    #  NEWJOB STILL PNZ
000297: 01,3020           00003                           RELINT                                         #  NEWJOB HAS CHANGED TO +0. WAKE UP JOB
000298: 01,3021           13220                           TCF      ADVAN      +2                         #  VIA NUDIRECT. (VERY RARE CASE.)
000299:
000300: 01,3022           34743                           CAF      TWO
000301: 01,3023           00006                           EXTEND
000302: 01,3024           05011                           WOR      DSALMOUT                              #  TURN ON ACTIVITY LIGHT
000303: 01,3025           52165                           DXCH     LOC                                   #  AND SAVE ADDRESS INFO FOR BENEFIT OF
000304: 01,3026           12716                           TCF      CHANJOB    +4                         #   POSSIBLE SLEEPING JOB.
000305:


000307:                                                                                                  #           TO WAKE UP A JOB, EACH CORE SET IS FOUND TO LOCATE ALL JOBS WHICH ARE ASLEEP. IF THE FCADR IN THE
000308:                                                                                                  #  LOC REGISTER OF ANY SUCH JOB MATCHES THAT SUPPLIED BY THE CALLER, THAT JOB IS AWAKENED. IF NO JOB IS FOUND,
000309:                                                                                                  #  LOCCTR IS SET TO -1 AND NO FURTHER ACTION TAKES PLACE.
000310:
000311: 01,3027           54061        JOBWAKE2           TS       EXECTEM1
000312: 01,3030           34746                           CAF      ZERO                                  #  BEGIN CORE SET SCAN.
000313: 01,3031           54064                           TS       LOCCTR
000314: 01,3032           32640                           CAF      NO.CORES
000315: 01,3033           54062        JOBWAKE4           TS       EXECTEM2
000316: 01,3034           50064                           INDEX    LOCCTR
000317: 01,3035           10167                           CCS      PRIORITY
000318: 01,3036           13041                           TCF      JOBWAKE3                              #  ACTIVE JOB - CHECK NEXT CORE SET.
000319: 01,3037           00014        COREINC            DEC      12         B-14                       #  12 REGISTERS PER CORE SET.
000320: 01,3040           13050                           TCF      WAKETEST                              #  SLEEPING JOB - SEE IF CADR MATCHES.
000321:
000322: 01,3041           33037        JOBWAKE3           CAF      COREINC
000323: 01,3042           26064                           ADS      LOCCTR
000324: 01,3043           10062                           CCS      EXECTEM2
000325: 01,3044           13033                           TCF      JOBWAKE4
000326: 01,3045           44744                           CS       ONE                                   #  EXIT IF SLEEPING JOB NOT FOUND.
000327: 01,3046           54064                           TS       LOCCTR
000328: 01,3047           15151                           TCF      ENDFIND
000329:
000330: 01,3050           40065        WAKETEST           CS       NEWLOC
000331: 01,3051           50064                           INDEX    LOCCTR
000332: 01,3052           60164                           AD       LOC
000333: 01,3053           00006                           EXTEND
000334: 01,3054           13056                           BZF      +2                                    #  IF MATCH.
000335: 01,3055           13041                           TCF      JOBWAKE3                              #  EXAMINE NEXT CORE SET IF NO MATCH.
000336:
000337: 01,3056           50064                           INDEX    LOCCTR                                #  RE-COMPLEMENT PRIORITY TO SHOW JOB AWAKE
000338: 01,3057           40167                           CS       PRIORITY
000339: 01,3060           54063                           TS       NEWPRIO
000340: 01,3061           50064                           INDEX    LOCCTR
000341: 01,3062           54167                           TS       PRIORITY
000342:
000343: 01,3063           44341                           CS       FBANKMSK                              #  MASK UP THE 2CADR OF THE WAKE ADDRESS
000344: 01,3064           70065                           MASK     NEWLOC                                #  USING THE CADR IN NEWLOC AND THE EBANK
000345: 01,3065           64732                           AD       2K                                    #  HALF OF BBANK SAVED IN BANKSET.
000346: 01,3066           56065                           XCH      NEWLOC
000347: 01,3067           74341                           MASK     FBANKMSK
000348: 01,3070           50064                           INDEX    LOCCTR
000349: 01,3071           60165                           AD       BANKSET
000350: 01,3072           54066                           TS       NEWLOC     +1
000351:
000352: 01,3073           10064                           CCS      LOCCTR                                #  SPECIAL TREATMENT IF THIS JOB WAS
000353: 01,3074           12665                           TCF      SETLOC                                #  ALREADY IN THE RUN (0) POSITION.
000354: 01,3075           12655                           TCF      SPECTEST
000355:


000357:                                                                                                  #           PRIORITY CHANGE. CHANGE THE CONTENTS OF PRIORITY AND SCAN FOR THE JOB OF HIGHEST PRIORITY.
000358:
000359: 01,3076           54164        PRIOCH2            TS       LOC
000360: 01,3077           34746                           CAF      ZERO                                  #  SET FLAG TO TELL ENDJOB SCANNER IF THIS
000361: 01,3100           54130                           TS       BUF                                   #  JOB IS STILL HIGHEST PRIORITY.
000362: 01,3101           34775                           CAF      LOW9
000363: 01,3102           70167                           MASK     PRIORITY
000364: 01,3103           60063                           AD       NEWPRIO
000365: 01,3104           54167                           TS       PRIORITY
000366: 01,3105           40000                           COM
000367: 01,3106           13013                           TCF      JOBSLP2                               #  AND TO EJSCAN.
000368:


000370:                                                                                                  #           RELEASE THIS CORE SET AND VAC AREA AND SCAN FOR THE JOB OF HIGHEST ACTIVE PRIORITY.
000371:
000372: 01,3107           00004        ENDJOB1            INHINT
000373: 01,3110           44746                           CS       ZERO
000374: 01,3111           54131                           TS       BUF        +1
000375: 01,3112           56167                           XCH      PRIORITY
000376: 01,3113           74775                           MASK     LOW9
000377: 01,3114           54001                           TS       L
000378:
000379: 01,3115           45155                           CS       FAKEPRET
000380: 01,3116           60001                           AD       L
000381:
000382: 01,3117           00006                           EXTEND
000383: 01,3120           63124                           BZMF     EJSCAN                                #  NOVAC ENDOFJOB
000384:
000385: 01,3121           10001                           CCS      L
000386: 01,3122           50000                           INDEX    A
000387: 01,3123           54000                           TS       0
000388:
000389: 01,3124           10203        EJSCAN             CCS      PRIORITY   +12D
000390: 01,3125           03175                           TC       EJ1
000391: 01,3126           05701                           TC       CCSHOLE
000392: 01,3127           13130                           TCF      +1
000393:
000394: 01,3130           10217                           CCS      PRIORITY   +24D                       #  EXAMINE EACH PRIORITY REGISTER TO FIND
000395: 01,3131           03175                           TC       EJ1                                   #  THE JOB OF HIGHEST ACTIVE PRIORITY.
000396: 01,3132           05701                           TC       CCSHOLE
000397: 01,3133           13134                           TCF      +1
000398:
000399: 01,3134           10233                           CCS      PRIORITY   +36D
000400: 01,3135           03175                           TC       EJ1
000401: 01,3136           67610        -CCSPR             -CCS     PRIORITY
000402: 01,3137           13140                           TCF      +1
000403:
000404: 01,3140           10247                           CCS      PRIORITY   +48D
000405: 01,3141           03175                           TC       EJ1
000406: 01,3142           05701                           TC       CCSHOLE
000407: 01,3143           13144                           TCF      +1
000408:
000409: 01,3144           10263                           CCS      PRIORITY   +60D
000410: 01,3145           03175                           TC       EJ1
000411: 01,3146           05701                           TC       CCSHOLE
000412: 01,3147           13150                           TCF      +1
000413:
000414: 01,3150           10277                           CCS      PRIORITY   +72D
000415: 01,3151           03175                           TC       EJ1
000416: 01,3152           05701                           TC       CCSHOLE
000417: 01,3153           13154                           TCF      +1
000418:
000419: 01,3154           10313                           CCS      PRIORITY   +84D


000421: 01,3155           03175                           TC       EJ1
000422: 01,3156           05701                           TC       CCSHOLE
000423: 01,3157           13160                           TCF      +1
000424:


000426:                                                                                                  #           EVALUATE THE RESULTS OF THE SCAN.
000427:
000428: 01,3160           10131                           CCS      BUF        +1                         #  SEE IF THERE ARE ANY ACTIVE JOBS WAITING
000429: 01,3161           05701                           TC       CCSHOLE
000430: 01,3162           05701                           TC       CCSHOLE
000431:
000432: 01,3163           13165                           TCF      +2
000433: 01,3164           13210                           TCF      DUMMYJOB
000434: 01,3165           10130                           CCS      BUF                                   #  BUF IS ZERO IF THIS IS A PRIOCHNG AND
000435: 01,3166           13170                           TCF      +2                                    #  CHANGED PRIORITY IS STILL HIGHEST.
000436: 01,3167           12770                           TCF      ENDPRCHG   -1
000437:
000438: 01,3170           50000                           INDEX    A                                     #  OTHERWISE, SET NEWJOB TO THE RELATIVE
000439: 01,3171           27777                           CAF      0          -1                         #  ADDRESS OF THE NEW JOB'S CORE SET.
000440: 01,3172           63136                           AD       -CCSPR
000441: 01,3173           54067                           TS       NEWJOB
000442: 01,3174           12710                           TCF      CHANJOB    -2
000443:
000444: 01,3175           54132        EJ1                TS       BUF        +2
000445: 01,3176           60131                           AD       BUF        +1                         #  - OLD HIGH PRIORITY.
000446: 01,3177           10000                           CCS      A
000447: 01,3200           40132                           CS       BUF        +2
000448: 01,3201           13204                           TCF      EJ2                                   #  NEW HIGH PRIORITY.
000449: 01,3202           13203                           NOOP
000450: 01,3203           16762                           TCF      Q+2
000451:
000452: 01,3204           54131        EJ2                TS       BUF        +1
000453: 01,3205           30002                           CA       Q
000454: 01,3206           54130                           TS       BUF
000455: 01,3207           16762                           TCF      Q+2
000456:


000458:                                                                                                  #           IDLING AND COMPUTER ACTIVITY (GREEN) LIGHT MAINTENANCE. THE IDLING ROUTINE IS NOT A JOB IN ITSELF,
000459:                                                                                                  #  BUT RATHER A SUBROUTINE OF THE EXECUTIVE.
000460:
000461: 01,3210     1361                                  EBANK=   SELFRET                               #  SELF-CHECK STORAGE IN EBANK.
000462:
000463: 01,3210           44746        DUMMYJOB           CS       ZERO                                  #  SET NEWJOB TO -0 FOR IDLING.
000464: 01,3211           54067                           TS       NEWJOB
000465: 01,3212           00003                           RELINT
000466: 01,3213           44743                           CS       TWO                                   #  TURN OFF THE ACTIVITY LIGHT.
000467: 01,3214           00006                           EXTEND
000468: 01,3215           03011                           WAND     DSALMOUT
000469: 01,3216           10067        ADVAN              CCS      NEWJOB                                #  IS A NEWJOB ACTIVE ?
000470: 01,3217           13015                           TCF      NUCHANG2                              #  YES... ONE REQUIRING A CHANGE JOB.
000471: 01,3220           34743                           CAF      TWO                                   #  NEW JOB ALREADY IN POSITION FOR
000472: 01,3221           13230                           TCF      NUDIRECT                              #  EXECUTION.
000473:
000474: 01,3222           25356                           INCR     DUMLOOPS                              #  COUNT DUMMYJOB LOOPS FOR DOWNLINK
000475:
000476: 01,3223           31361                           CA       SELFRET
000477: 01,3224           54001                           TS       L                                     #  PUT RETURN ADDRESS IN L.
000478: 01,3225           33227                           CAF      SELFBANK
000479: 01,3226           15170                           TCF      SUPDXCHZ   +1                         #   AND DISPATCH JOB.
000480:
000481: 01,3227     1361                                  EBANK=   SELFRET
000482: 01,3227           66102        SELFBANK           BBCON    SELFCHK
000483:
000484: 01,3230           00006        NUDIRECT           EXTEND                                         #  TURN THE GREEN LIGHT BACK ON.
000485: 01,3231           05011                           WOR      DSALMOUT
000486: 01,3232           52165                           DXCH     LOC                                   #  JOBS STARTED IN THIS FASHION MUST BE
000487: 01,3233           15167                           TCF      SUPDXCHZ
000488:
000489:    5167                                           BLOCK    2                                     #  IN FIXED-FIXED SO OTHERS MAY USE.
000490:
000491:    5167                                           COUNT*   $$/EXEC
000492:                                                                                                  #  SUPDXCHZ - ROUTINE TO TRANSFER TO SUPERBANK.
000493:                                                                                                  #  CALLING SEQUENCE
000494:                                                                                                  #                                                 TCF     SUPDXCHZ         WITH 2CADR OF DESIRED LOCATION IN A + L.
000495:
000496:    5167           56001        SUPDXCHZ           XCH      L                                     #  BASIC.
000497:    5170           00006                 +1        EXTEND
000498:    5171           01007                           WRITE    SUPERBNK
000499:    5172           54006                           TS       BBANK
000500:    5173           00001                           TC       L
000501:
000502:    5174           77677        NEG100             OCT      77677

End of include-file EXECUTIVE.agc.  Parent file is MAIN.agc


