
Source Code


000002:                                                                                                  ## Copyright:   Public domain.
000003:                                                                                                  ## Filename:    EXTENDED_VERBS.agc
000004:                                                                                                  ## Purpose:     A section of Luminary revision 210.
000005:                                                                                                  ##              It is part of the source code for the Lunar Module's (LM)
000006:                                                                                                  ##              Apollo Guidance Computer (AGC) for Apollo 15-17.
000007:                                                                                                  ##              This file is intended to be a faithful transcription, except
000008:                                                                                                  ##              that the code format has been changed to conform to the
000009:                                                                                                  ##              requirements of the yaYUL assembler rather than the
000010:                                                                                                  ##              original YUL assembler.
000011:                                                                                                  ## Reference:   pp. 275-312
000012:                                                                                                  ## Assembler:   yaYUL
000013:                                                                                                  ## Contact:     Ron Burkey <info@sandroid.org>.
000014:                                                                                                  ## Website:     www.ibiblio.org/apollo/index.html
000015:                                                                                                  ## Mod history: 2016-11-17 JL   Created from Luminary131 version.
000016:                                                                                                  ##              2016-11-20 MAS  Updated for Luminary 210.
000017:                                                                                                  ##              2016-11-27 HG   Fix operand 2SECDELV  -> 2SECDELY
000018:                                                                                                  ##                              replace tabs with spaces
000019:                                                                                                  ##              2016-12-07 HG   Fix P00 -> POO
000020:                                                                                                  ##                              Change POO -> P00 in some comments
000021:                                                                                                  ##              2016-12-11 HG   Fix operator CS FLAGWRD5 -> CA FLAGWRD5
000022:                                                                                                  ##                                  operand  AGSBUFF -> AGSK
000023:                                                                                                  ##              2016-12-12 HG   comment out previous [WORKAROUND] with SBANK=
000024:                                                                                                  ##              2016-12-23 RSB  Proofed comment text with octopus/ProoferComments
000025:                                                                                                  ##                              and fixed all errors found.  Restored an SBANK=
000026:                                                                                                  ##                              that we had apparently mistakenly commented out,
000027:                                                                                                  ##                              but wasn't noticed because it had no effect on
000028:                                                                                                  ##                              the generated octals.
000029:                                                                                                  ##              2017-03-15 RSB  Comment-text fixes identified in 5-way
000030:                                                                                                  ##                              side-by-side diff of Luminary 69/99/116/131/210.
000031:                                                                                                  ##              2017-03-17 RSB  Comment-text fixes identified in diff'ing
000032:                                                                                                  ##                              Luminary 99 vs Comanche 55.
000033:                                                                                                  ##              2017-08-21 RSB  Fixed a comment typo identified in ZERLINA 56.
000034:


000036: 07,2607                                           BANK     7
000037: 43,2000                                           SETLOC   EXTVERBS
000038: 43,2000                                           BANK
000039:
000040: 43,2000  E5,1737                                  EBANK=   OGC
000041:
000042: 43,2000                                           COUNT*   $$/EXTVB
000043:                                                                                                  #  FAN-OUT
000044:
000045: 43,2000           50154        GOEXTVB            INDEX    MPAC                                  #  VERB-40 IS IN MPAC
000046: 43,2001           02002                           TC       LST2FAN                               #  FAN AS BEFORE.
000047:
000048: 43,2002           02126        LST2FAN            TC       VBZERO                                #  VB40 ZERO (USED WITH NOUN 20 OR 72 ONLY)
000049: 43,2003           02177                           TC       VBCOARK                               #  VB41 COARSE ALIGN (USED WITH NOUN 20 OR
000050:                                                                                                  #                                  72 ONLY)
000051: 43,2004           02344                           TC       IMUFINEK                              #  VB42 FINE ALIGN IMU
000052: 43,2005           02702                           TC       IMUATTCK                              #  VB43  LOAD IMU ATTITUDE ERROR METERS.
000053: 43,2006           02310                           TC       RRDESEND                              #  VB44 TERMINATE CONTINUOUS DESIGNATE
000054: 43,2007           02116                           TC       ALM/END                               #  VB45 SPARE
000055: 43,2010           02116                           TC       ALM/END                               #  VB46 SPARE
000056: 43,2011           02403                           TC       V47TXACT                              #  VB47 AGS INITIALIZATION
000057: 43,2012           03134                           TC       DAPDISP                               #  VB48  LOAD A/P DATA
000058: 43,2013           13011                           TCF      CREWMANU                              #  VB49 START AUTOMATIC ATTITUDE MANEUVER
000059: 43,2014           02375                           TC       GOLOADLV                              #  VB50 PLEASE PERFORM
000060: 43,2015           02116                           TC       ALM/END                               #  VB51 SPARE
000061: 43,2016           02375                           TC       GOLOADLV                              #  VB52 PLEASE MARK X - RETICLE.
000062: 43,2017           02375                           TC       GOLOADLV                              #  VB53 PLEASE MARK Y - RETICLE.
000063: 43,2020           02375                           TC       GOLOADLV                              #  VB54 PLEASE MARK X OR Y - RETICLE
000064: 43,2021           02415                           TC       ALINTIME                              #  VB55 ALIGN TIME
000065: 43,2022           03020                           TC       TRMTRACK                              #  VB56 TERMINATE TRACKING - P20 + P25
000066: 43,2023           02333                           TC       LRON                                  #  VB57 PERMIT  LANDING RADAR UPDATES
000067: 43,2024           02336                           TC       LROFF                                 #  VB58 INHIBIT LANDING RADAR UPDATES
000068: 43,2025           02147                           TC       LRPOS2K                               #  VB59 COMMAND LR TO POSITION 2.
000069: 43,2026           02174                           TC       RATEDISP                              #  VB60 DISPLAY DAP ESTIMATED RATES
000070: 43,2027           02164                           TC       DAPATTER                              #  VB61 DISPLAY DAP ATTITUDE ERROR
000071: 43,2030           02167                           TC       TOTATTER                              #  VB62 DISPLAY TOTAL ATTITUDE ERROR
000072: 43,2031           02430                           TC       R04                                   #  VB63 SAMPLE RADAR ONCE PER SECOND
000073: 43,2032           02674                           TC       VB64                                  #  VB64 CALCULATE,DISPLAY S-BAND ANT ANGLES
000074: 43,2033           03224                           TC       SNUFFOUT                              #  VB65 DISABLE U,V JETS DURING DPS BURNS.
000075: 43,2034           03141                           TC       ATTACHED                              #  VB66 ATTACHED   MOVE THIS TO OTHER STATE
000076: 43,2035           03216                           TC       V67                                   #  VB67 W MATRIX MONITOR
000077: 43,2036           02341                           TC       TEROFF                                #  VB68 TAKE OUT TERRAIN MODEL IN DESCENT
000078: 43,2037           02037        VERB69             TC       VERB69                                #  VB69 FORCE A HARDWARE RESTART
000079: 43,2040           03727                           TC       V70UPDAT                              #  VB70 UPDATE LIFTOFF TIME.
000080: 43,2041           03731                           TC       V71UPDAT                              #  VB71 UNIVERSAL UPDATE - BLOCK ADDRESS.
000081: 43,2042           03733                           TC       V72UPDAT                              #  VB72 UNIVERSAL UPDATE - SINGLE ADDRESS.
000082: 43,2043           03735                           TC       V73UPDAT                              #  VB73 UPDATE AGC TIME (OCTAL).
000083: 43,2044           03040                           TC       DNEDUMP                               #  VB74 INITIALIZE DOWN-TELEMETRY PROGRAM
000084:                                                                                                  #         FOR ERASABLE DUMP.
000085: 43,2045           03227                           TC       OUTSNUFF                              #  VB75 ENABLE U,V JETS DURING DPS BURNS.


000087: 43,2046           03000                           TC       MINIMP                                #  VB76 MINIMUM IMPULSE MODE
000088: 43,2047           03003                           TC       NOMINIMP                              #  VB77 RATE COMMAND MODE
000089: 43,2050           02420                           TC       R77                                   #  VB78 START LR SPURIOUS RETURN TEST
000090: 43,2051           02630                           TC       R77END                                #  VB79 TERMINATE LR SPURIOUS RETURN TEST
000091: 43,2052           03044                           TC       LEMVEC                                #  VB80 UPDATE LEM STATE VECTOR
000092: 43,2053           03047                           TC       CSMVEC                                #  VB81 UPDATE CSM STATE VECTOR
000093: 43,2054           02741                           TC       V82PERF                               #  VB82 REQUEST ORBIT PARAM DISPLAY (R30)
000094: 43,2055           02751                           TC       V83PERF                               #  VB83 REQUEST REND PARAM DISPLAY (R31)
000095: 43,2056           02116                           TC       ALM/END                               #  VB84 SPARE
000096: 43,2057           03232                           TC       VERB85                                #  VB85 DISPLAY RR LOS AZ AND ELEV
000097: 43,2060           02116                           TC       ALM/END                               #  VB86 SPARE
000098: 43,2061           02116                           TC       ALM/END                               #  VB87 SPARE
000099: 43,2062           02116                           TC       ALM/END                               #  VB88 SPARE
000100: 43,2063           02757                           TC       V89PERF                               #  VB89 ALIGN XORZ LEM AXIS ALONG LOS (R63)
000101: 43,2064           02766                           TC       V90PERF                               #  VB90 OUT OF PLANE RENDEZVOUS DISPLAY
000102: 43,2065           03077                           TC       GOSHOSUM                              #  VB91 DISPLAY BANK SUM.
000103: 43,2066           03057                           TC       SYSTEST                               #  VB92 OPERATE IMU PERFORMANCE TEST.
000104: 43,2067           03072                           TC       WMATRXNG                              #  VB93 CLEAR RENDWFLG
000105: 43,2070           02116                           TC       ALM/END                               #  VB94 SPARE
000106: 43,2071           03054                           TC       UPDATOFF                              #  VB95 NO STATE VECTOR UPDATE ALLOWED
000107: 43,2072           03211                           TC       VERB96                                #  VB96 INTERRUPT INTEGRATION AND GO TO POO
000108: 43,2073           02375                           TC       GOLOADLV                              #  VB97 PLEASE VERIFY ENGINE FAILURE
000109: 43,2074           02116                           TC       ALM/END                               #  VB98 SPARE
000110: 43,2075           02375                           TC       GOLOADLV                              #  VB99 PLEASE ENABLE ENGINE
000111:
000112:                                                                                                  #  END OF EXTENDED VERB FAN
000113:
000114:
000115: 43,2076           11043        TESTXACT           CCS      EXTVBACT                              #  ARE EXTENDED VERBS BUSY
000116: 43,2077           02116                           TC       ALM/END                               #  YES, TURN ON OPERATOR LIGHT
000117: 43,2100           30100                           CA       FLAGWRD4                              #  ARE PRIORITY DISPLAYS USING DSKY
000118: 43,2101           72125                           MASK     OC24100
000119: 43,2102           10000                           CCS      A
000120: 43,2103           02116                           TC       ALM/END                               #  YES
000121: 43,2104           34353                           CAF      OCT25                                 #  SET BITS 1, 3, AND 5
000122: 43,2105           55043        SETXTACT           TS       EXTVBACT                              #  NO. SET FLAG TO SHOW EXT VERB DISPLAY
000123:                                                                                                  #  SYSTEM BUSY
000124:
000125: 43,2106           30002                           CA       Q
000126: 43,2107           54155                           TS       MPAC       +1
000127:
000128: 43,2110           44743                           CS       TWO                                   #  BLANK EVERYTHING EXCEPT MM AND VERB
000129: 43,2111           04145                           TC       NVSUB
000130: 43,2112           02113                           TC       +1
000131: 43,2113           10067                           CCS      NEWJOB
000132: 43,2114           05113                           TC       CHANG1
000133:
000134: 43,2115           00155                           TC       MPAC       +1
000135:
000136: 43,2116     5474               TERMEXTV           EQUALS   ENDEXT


000138: 43,2116     5474               ENDEXTVB           EQUALS   ENDEXT
000139:
000140: 43,2116           04355        ALM/END            TC       FALTON                                #  TURN ON OPERATOR ERROR LIGHT
000141: 43,2117           04626        GOPIN              TC       POSTJUMP
000142: 43,2120           21062                           CADR     PINBRNCH
000143:
000144: 43,2121           31010        CHKPOOH            CA       MODREG                                #  CHECK FOR POO OR POO-.
000145: 43,2122           00006                           EXTEND
000146: 43,2123           16763                           BZF      TCQ
000147: 43,2124           02116                           TC       ALM/END
000148:
000149: 43,2125           24100        OC24100            OCT      24100
000150:


000152:                                                                                                  #           VBZERO       VERB 40            DESCRIPTION
000153:
000154:                                                                                                  #               1. REQUIRE NOUN 20 (ICDU ANGLES) OR NOUN 72 (RCDU ANGLES).
000155:                                                                                                  #              2. FOR N20, CHECK IMUCADR IN AN EFFORT TO AVOID A 1210 RESTART.
000156:                                                                                                  #                 FOR N72, CHECK IF EITHER RADAR IS IN USE.
000157:                                                                                                  #               3. EXECUTE THE CDU ZERO.
000158:                                                                                                  #               4. STALL UNTILL THE ZERO IS DONE.
000159:                                                                                                  #               5. DON'T DIFFERENIATE BETWEEN A BAD OR GOOD RETURN.
000160:                                                                                                  #               6. EXIT, RE-ESTABLISHING THE INTERRUPTED DISPLAY (IF ANY).
000161:
000162: 43,2126           02202        VBZERO             TC       OP/INERT
000163: 43,2127           02131                           TC       IMUZEROK                              #  RETURN HERE IF NOUN = ICDU(20)
000164: 43,2130           02140                           TC       RRZEROK                               #  RETURN HERE IF NOUN = RCDU(72)
000165: 43,2131           02411        IMUZEROK           TC       CKMODCAD
000166: 43,2132           04607                           TC       BANKCALL                              #  KEYBOARD REQ FOR ISS CDUZERO
000167: 43,2133           16701                           CADR     IMUZERO
000168:
000169: 43,2134           04607                           TC       BANKCALL                              #  STALL
000170: 43,2135           17735                           CADR     IMUSTALL
000171: 43,2136           02137                           TC       +1
000172:
000173: 43,2137           02117                           TC       GOPIN                                 #  IMUZERO
000174:
000175: 43,2140           02653        RRZEROK            TC       RDRUSECK
000176: 43,2141           04607                           TC       BANKCALL
000177: 43,2142           52334                           CADR     RRZERO
000178:
000179: 43,2143           04607        RWAITK             TC       BANKCALL
000180: 43,2144           17733                           CADR     RADSTALL
000181: 43,2145           12146                           TCF      +1
000182: 43,2146           02117                           TC       GOPIN                                 #  RRZERO
000183:
000184:                                                                                                  #           LRPOS2K          VERB 59            DESCRIPTION
000185:                                                                                                  #               COMMAND LANDING RADAR TO POSITION 2
000186:                                                                                                  #              1. EXIT WITH OP ERROR IF SOMEONE IS USING EITHER RADAR.
000187:                                                                                                  #               2. ALARM WITH CODE 523 IF POS 2 IS NOT INDICATED WITHIN
000188:                                                                                                  #                  THE PRESCRIBED TIME.
000189:                                                                                                  #               3. RE-ESTABLISH THE DISPLAYS.
000190:
000191: 43,2147           30103        LRPOS2K            CA       FLAGWRD7
000192: 43,2150           74740                           MASK     AVEGFBIT
000193: 43,2151           00006                           EXTEND
000194: 43,2152           12161                           BZF      LRPOS2K1                              #  AVERAGE G NOT ON
000195: 43,2153           40107                           CS       FLGWRD11
000196: 43,2154           74726                           MASK     LRBYBIT
000197: 43,2155           00006                           EXTEND
000198: 43,2156           12116                           BZF      ALM/END                               #  IF AVE G ON AND NOT R12- OPERATOR ERROR
000199: 43,2157           04626                           TC       POSTJUMP
000200: 43,2160           53577                           CADR     V59GP63
000201: 43,2161           02653        LRPOS2K1           TC       RDRUSECK


000203: 43,2162           04607                           TC       BANKCALL
000204: 43,2163           53566                           CADR     LRP2COMM                              #  COMMAND LR TO POS2
000205:                                                                                                  #  V61      VERB 61, DISPLAY DAP ATTITUDE ERRORS ON FDAI ATTITUDE ERROR NEEDLES.
000206:
000207: 43,2164           05520        DAPATTER           TC       DOWNFLAG
000208: 43,2165           00013                           ADRES    NEEDLFLG
000209: 43,2166           12171                           TCF      TOTATTER   +2
000210:
000211:                                                                                                  #  V62      VERB 62, DISPLAY TOTAL ATTITUDE ERRORS ON FDAI ATTITUDE ERROR NEEDLES.
000212:
000213: 43,2167           05506        TOTATTER           TC       UPFLAG
000214: 43,2170           00013                           ADRES    NEEDLFLG
000215: 43,2171           05520                 +2        TC       DOWNFLAG
000216: 43,2172           00000                           ADRES    NEED2FLG
000217: 43,2173           02117                           TC       GOPIN
000218:
000219:                                                                                                  #  V60      VERB 60, DISPLAY DAP ESTIMATED RATES ON FDAI ATTITUDE ERROR NEEDLES.
000220:
000221: 43,2174           05506        RATEDISP           TC       UPFLAG
000222: 43,2175           00000                           ADRES    NEED2FLG
000223: 43,2176           02117                           TC       GOPIN
000224:
000225:
000226:


000228:                                                                                                  #           VBCOARK      VERB 41            DESCRIPTION
000229:                                                                                                  #               COARSE ALIGN IMU OR RADAR
000230:                                                                                                  #              1. REQUIRE NOUN 20 OR NOUN 72 OR TURN ON OPERATOR ERROR.
000231:                                                                                                  #               2. REQUIRE EXT VERB DISPLAY SYS AVAILABLE OR TURN ON OPERATOR ERROR LIGHT AND GO TO PINBRNCH.
000232:                                                                                                  #               CASE 1     NOUN 20     (ICDU ANGLES)
000233:                                                                                                  #               3. SET EXT VERB DISPLAY ACTIVE FLAG.
000234:                                                                                                  #               4. DISPLAY FLASHING V25,N22 (LOAD NEW ICDU ANGLES).
000235:                                                                                                  #                  RESPONSES
000236:                                                                                                  #                    A. TERMINATE
000237:                                                                                                  #                       1. RELEASE EXT VERB DISPLAY SYSTEM
000238:                                                                                                  #                    B. PROCEED
000239:                                                                                                  #                      1. COARSE ALIGN TO THE EXISTING THETAD'S (ICORK2).
000240:                                                                                                  #                    C. ENTER
000241:                                                                                                  #                      1. COARSE ALIGN TO THE LOADED THETAD'S (ICORK2).
000242:                                                                                                  #               ICORK2
000243:                                                                                                  #                  1. RE-DISPLAY VERB 41.
000244:                                                                                                  #                  2. EXECUTE IMUCOARS (IMU COARSE ALIGN).
000245:                                                                                                  #                  3. EXECUTE IMUSTALL (ALLOW TIME FOR DATA TRANSFER).
000246:                                                                                                  #                  4. RELEASE EXT VERB DISPLAY SYSTEM.
000247:                                                                                                  #               CASE 2     NOUN 72     (RCDU ANGLES)
000248:                                                                                                  #                 EXIT WITH OP ERROR IF SOMEONE IS USING EITHER RADAD.
000249:                                                                                                  #               5. DISPLAY FLASHING V24,N73 (LOAD NEW RR TRUNION ANGLE AND NEW SHAFT ANGLE).
000250:                                                                                                  #                  RESPONSES
000251:                                                                                                  #                  A. TERMINATE
000252:                                                                                                  #                     1. RELEASE EXT VERB DISPLAY SYS.
000253:                                                                                                  #                  B. PROCEED OR ENTER
000254:                                                                                                  #                     1. EXECUTE AURLOKON (ASK OPERATOR FOR LOCK-ON REQUIREMENTS).
000255:                                                                                                  #                     2. RE-DISPLAY VERB 41.
000256:                                                                                                  #                     3. SCHEDULE RRDESK2 WITH PRIORITY 20.
000257:                                                                                                  #                     4. RELEASE EXT VERB DISPLAY SYS.
000258:
000259:                                                                                                  #                  AURLOKON
000260:
000261:                                                                                                  #                 1. FLASH V04 N12 R1 = 00006 R2 = 00002
000262:                                                                                                  #                     RESPONSES
000263:                                                                                                  #                     A. TERMINATE
000264:                                                                                                  #                     B. PROCEED
000265:                                                                                                  #                       1. RESET LOCK-ON SWITCH
000266:                                                                                                  #                       2. SET CONTINUOUS DESIGNATE FLAG
000267:                                                                                                  #                       3. DISABLE R25
000268:                                                                                                  #                    C. V22 E 1 E, R1 = 00001, PROCEED
000269:                                                                                                  #                       1. SET LOCK-ON SWITCH
000270: 43,2177           02202        VBCOARK            TC       OP/INERT
000271: 43,2200           02213                           TC       IMUCOARK                              #  RETURN HERE IF NOUN = ICDU(20)
000272: 43,2201           02235                           TC       RRDESNBK                              #  RETURN HERE IF NOUN = RCDU(72)
000273:                                                                                                  #           RETURNS TO L+1 IF IMU OR L+2 IF RR.
000274:
000275: 43,2202           46007        OP/INERT           CS       OCT24
000276: 43,2203           61001                           AD       NOUNREG
000277: 43,2204           00006                           EXTEND


000279: 43,2205           16763                           BZF      TCQ                                   #  IF = 20.
000280:
000281: 43,2206           62212                           AD       RRIMUDIF                              #  -52
000282: 43,2207           00006                           EXTEND
000283: 43,2210           16760                           BZF      Q+1
000284:
000285: 43,2211           02116                           TC       ALM/END                               #  ILLEGAL.
000286:
000287: 43,2212           77713        RRIMUDIF           DEC      -52        B-14                       #  THE IMU
000288: 43,2213           02411        IMUCOARK           TC       CKMODCAD
000289: 43,2214           02076                           TC       TESTXACT                              #  COARSE ALIGN FROM KEYBOARD.
000290: 43,2215           32233                           CAF      VNLODCDU                              #  CALL FOR THETAD LOAD
000291: 43,2216           04607                           TC       BANKCALL
000292: 43,2217           20323                           CADR     GOXDSPF
000293: 43,2220           05474                           TC       TERMEXTV
000294: 43,2221           12222                           TCF      +1
000295:
000296: 43,2222           32234        ICORK2             CAF      IMUCOARV                              #  RE-DISPLAY COARSE ALIGN VERB.
000297: 43,2223           04607                           TC       BANKCALL
000298: 43,2224           20632                           CADR     EXDSPRET
000299:
000300: 43,2225           04607                           TC       BANKCALL                              #  CALL MODE SWITCHING PROG
000301: 43,2226           16765                           CADR     IMUCOARS
000302:
000303: 43,2227           04607                           TC       BANKCALL                              #  STALL
000304: 43,2230           17735                           CADR     IMUSTALL
000305: 43,2231           05474                           TC       ENDEXTVB
000306: 43,2232           05474                           TC       ENDEXTVB
000307:
000308: 43,2233           06226        VNLODCDU           VN       2522
000309: 43,2234           12200        IMUCOARV           VN       4100
000310:


000312:                                                                                                  #           DESIGNATE TO DESIRED GIMBAL ANGLES.
000313:
000314: 43,2235           02653        RRDESNBK           TC       RDRUSECK
000315: 43,2236           02076                           TC       TESTXACT
000316: 43,2237           30110        RRWAIT             CA       RADMODES                              #  IS A REMODE OR REPOSITION IN PROGRESS
000317: 43,2240           77731                           MASK     BIT14&11
000318: 43,2241     4727               REFTAG9            =        REMODBIT
000319: 43,2241     4732               REFTAG10           =        REPOSBIT
000320: 43,2241           00006                           EXTEND
000321: 43,2242           12246                           BZF      OKTOGO                                #  NO - CONTINUE
000322:
000323: 43,2243           04607                           TC       BANKCALL                              #  YES - WAIT UNTIL FINISHED TO PREVENT
000324: 43,2244           01735                           CADR     2SECDELY                              #  CONFLICTS IN RR DESIGNATE
000325: 43,2245           12237                           TCF      RRWAIT
000326:
000327: 43,2246           06027        OKTOGO             TC       CLRADMOD
000328: 43,2247           32266                           CAF      VNLDRCDU                              #  ASK FOR GIMBAL ANGLES.
000329: 43,2250           04607                           TC       BANKCALL
000330: 43,2251           20323                           CADR     GOXDSPF
000331: 43,2252           05474                           TC       TERMEXTV
000332: 43,2253           12247                           TCF      -4                                    #  V33
000333:
000334: 43,2254           04607                           TC       BANKCALL                              #  ASK OP FOR LOCK ON REQUIREMENTS.
000335: 43,2255           46000                           CADR     AURLOKON
000336:
000337: 43,2256           32234                           CAF      OPTCOARV                              #  RE-DISPLAY OUR OWN VERB
000338: 43,2257           04607                           TC       BANKCALL
000339: 43,2260           20632                           CADR     EXDSPRET
000340:
000341: 43,2261           34727                           CAF      PRIO20
000342: 43,2262           05076                           TC       FINDVAC
000343: 43,2263  E7,1456                                  EBANK=   LOSCOUNT
000344: 43,2263           02267 66107                     2CADR    RRDESK2
000345:
000346:
000347: 43,2265           15474                           TCF      TERMEXTV                              #  FREES DISPLAY.
000348:
000349: 43,2266           06111        VNLDRCDU           VN       2473
000350: 43,2267  43,2234               OPTCOARV           EQUALS   IMUCOARV                              #  DIFFERENT NOUNS.
000351:
000352: 43,2267           04607        RRDESK2            TC       BANKCALL
000353: 43,2270           52466                           CADR     RRDESNB
000354:
000355: 43,2271           02272                           TC       +1                                    #  DUMMY NEEDED SINCE DESRETRN DOES INCR
000356: 43,2272           30167                           CA       PRIORITY
000357: 43,2273           74775                           MASK     LOW9
000358: 43,2274           10000                           CCS      A
000359: 43,2275           50000                           INDEX    A
000360: 43,2276           54000                           TS       A                                     #  RELEASE THIS JOBS VAC AREA.
000361: 43,2277           40000                           COM                                            #  INSURE ENDOFJOB DOES A NOVAC END (BZMF).


000363: 43,2300           26167                           ADS      PRIORITY
000364: 43,2301           04607                           TC       BANKCALL                              #  WAIT FOR COMPLETION OF DESIGNATE
000365: 43,2302           17733                           CADR     RADSTALL
000366: 43,2303           02305                           TC       +2                                    #  BADEND-NO LOCKON OR OUT OF LIMITS
000367: 43,2304           05146                           TC       ENDOFJOB                              #  GOODEND-LOCKON ACHIEVED
000368: 43,2305           05571                           TC       ALARM
000369: 43,2306           00503                           OCT      503                                   #  TURN ON ALARM LIGHT -503 DESIGNATE FAIL
000370: 43,2307           05146                           TC       ENDOFJOB
000371:
000372:
000373: 43,2310           10110        RRDESEND           CCS      RADMODES                              #  TERMINATE CONTINUOUS DESIGNATE ONLY
000374: 43,2311           12117                           TCF      GOPIN
000375: 43,2312           12117                           TCF      GOPIN
000376: 43,2313           12314                           TCF      +1
000377: 43,2314           30110        REMODCHK           CA       RADMODES                              #  CHECK FOR REMODE OR REPOSITION
000378: 43,2315           77731                           MASK     BIT14&11
000379: 43,2316     4727               REFTAG1            =        REMODBIT
000380: 43,2316     4732               REFTAG2            =        REPOSBIT
000381: 43,2316           00006                           EXTEND
000382: 43,2317           12324                           BZF      NOREMODE                              #  NO
000383:
000384: 43,2320           34770                           CAF      1SEC                                  #  YES- WAIT 1 SECOND AND CHECK AGAIN
000385: 43,2321           04607                           TC       BANKCALL
000386: 43,2322           01736                           CADR     DELAYJOB
000387: 43,2323           02314                           TC       REMODCHK
000388: 43,2324           06027        NOREMODE           TC       CLRADMOD
000389: 43,2325           34770                           CAF      1SEC
000390: 43,2326           04607                           TC       BANKCALL
000391: 43,2327           01736                           CADR     DELAYJOB
000392: 43,2330           05520                           TC       DOWNFLAG                              #  ENABLE R25 GIMBAL MONITOR
000393: 43,2331           00126                           ADRES    NORRMON
000394: 43,2332           12117                           TCF      GOPIN
000395:
000396: 43,2333     7731               BIT14&11           =        PRIO22
000397:
000398:
000399:
000400: 23,2000                                           SETLOC   EXTVB1
000401: 23,2000                                           BANK
000402: 23,2000                                           COUNT*   $$/EXTVB
000403:
000404: 23,2000           04636        AURLOKON           TC       MAKECADR
000405: 23,2001           55112                           TS       DESRET
000406: 23,2002           34743                           CAF      TWO
000407: 23,2003           55051                           TS       OPTIONX    +1
000408: 23,2004           36263                           CAF      SIX                                   #  OPTION CODE FOR V04N12
000409: 23,2005           55050                           TS       OPTIONX
000410:
000411: 23,2006           32037                 -5        CAF      V04N1272
000412: 23,2007           04607                           TC       BANKCALL                              #       R2   00001  LOCK-ON


000414: 23,2010           20345                           CADR     GOMARKFR
000415: 23,2011           15474                           TCF      ENDEXT                                #  V34
000416: 23,2012           12017                           TCF      +5                                    #  V33
000417: 23,2013           12006                           TCF      -5                                    #  V32
000418: 23,2014           34742                           CAF      BIT3
000419: 23,2015           05466                           TC       BLANKET
000420: 23,2016           05146                           TC       ENDOFJOB
000421:
000422: 23,2017           31051                 +5        CA       OPTIONX    +1
000423: 23,2020           74743                           MASK     BIT2
000424: 23,2021           10000                           CCS      A
000425: 23,2022           12026                           TCF      NOLOKON
000426: 23,2023           05506                           TC       UPFLAG
000427: 23,2024           00012                           ADRES    LOKONSW
000428: 23,2025           12034                           TCF      AURLKON1
000429:
000430: 23,2026           05520        NOLOKON            TC       DOWNFLAG                              #  IF NO LOCK-ON, SET BIT15 OF RADMODES TO
000431: 23,2027           00012                           ADRES    LOKONSW                               #  INDICATE THAT CONTINUOUS DESIGNATION IS
000432: 23,2030           05506                           TC       UPFLAG                                #  WANTED (TO BE TERMINATED BY V44.)
000433: 23,2031           00264                           ADRES    CDESFLAG
000434: 23,2032           05506                           TC       UPFLAG                                #  SET NO RR ANGLE MONITOR FLAG.
000435: 23,2033           00126                           ADRES    NORRMON                               #  (DISABLE R25 RR GIMBAL MONITOR IN T4RUPT
000436: 23,2034           00003        AURLKON1           RELINT
000437: 23,2035           31112                           CA       DESRET
000438: 23,2036           14631                           TCF      BANKJUMP
000439:
000440:
000441: 23,2037           01014        V04N1272           VN       412
000442: 23,2040           77757        -LOKONFG           OCT      -20
000443:
000444: 43,2333                                           BANK     43
000445: 43,2000                                           SETLOC   EXTVERBS
000446: 43,2000                                           BANK
000447: 43,2333                                           COUNT*   $$/EXTVB
000448:
000449: 43,2333           05506        LRON               TC       UPFLAG                                #  PERMIT INCORPORATION OF LR DATA      V57
000450: 43,2334           00254                           ADRES    LRINH
000451: 43,2335           02117                           TC       GOPIN
000452:
000453: 43,2336           05520        LROFF              TC       DOWNFLAG                              #  INHIBIT INCORPORATION OF LR DATA     V58
000454: 43,2337           00254                           ADRES    LRINH
000455: 43,2340           02117                           TC       GOPIN
000456:
000457: 43,2341           05506        TEROFF             TC       UPFLAG                                #  BYPASS TERRAIN MODEL
000458: 43,2342           00023                           ADRES    NOTERFLG
000459: 43,2343           12117                           TCF      GOPIN
000460:
000461:
000462: 43,2344  E5,1737                                  EBANK=   OGC
000463:


000465:                                                                                                  #           IMUFINEK     VERB 42            DESCRIPTION
000466:                                                                                                  #               FINE ALIGN IMU
000467:                                                                                                  #               1. REQUIRE EXT VERB DISPLAY AVAILABLE AND SET BUSY FLAG OR TURN ON OPER ERROR AND GO TO PINBRNCH.
000468:                                                                                                  #               2. DISPLAY FLASHING V25,N93....LOAD DELTA GYRO ANGLES....
000469:                                                                                                  #                  RESPONSES
000470:                                                                                                  #                  A. TERMINATE
000471:                                                                                                  #                     1. RELEASE EXT VERB DISPLAY SYSTEM.
000472:                                                                                                  #                  B. PROCEED OR ENTER
000473:                                                                                                  #                     1. RE-DISPLAY VERB 42
000474:                                                                                                  #                     2. EXECUTE IMUFINE (IMU FIVE ALIGN MODE SWITCHING).
000475:                                                                                                  #                     3. EXECUTE IMUSTALL (ALLOW FOR DATA TRANSFER)
000476:                                                                                                  #                        A. FAILED
000477:                                                                                                  #                           1. RELEASE EXT VERB DISPLAY SYSTEM.
000478:                                                                                                  #                        B. GOOD
000479:                                                                                                  #                           1. EXECUTE IMUPULSE (TORQUE IRIGS).
000480:                                                                                                  #                           2. EXECUTE IMUSTALL AND RELEASE EXT VERB DISPLAY SYSTEM.
000481:
000482: 43,2344           02411        IMUFINEK           TC       CKMODCAD
000483: 43,2345           02076                           TC       TESTXACT                              #  FINE ALIGN WITH GYRO TORQUING.
000484: 43,2346           32373                           CAF      VNLODGYR                              #  CALL FOR LOAD OF GYRO COMMANDS
000485: 43,2347           04607                           TC       BANKCALL
000486: 43,2350           20323                           CADR     GOXDSPF
000487: 43,2351           05474                           TC       TERMEXTV
000488: 43,2352           02353                           TC       +1                                    #  PROCEED WITHOUT A LOAD
000489:
000490: 43,2353           32374                           CAF      IMUFINEV                              #  RE-DISPLAY OUR OWN VERB
000491: 43,2354           04607                           TC       BANKCALL
000492: 43,2355           20632                           CADR     EXDSPRET
000493:
000494: 43,2356           04607                           TC       BANKCALL                              #  CALL MODE SWITCH PROG
000495: 43,2357           17175                           CADR     IMUFINE
000496:
000497: 43,2360           04607                           TC       BANKCALL                              #  HIBERNATION
000498: 43,2361           17735                           CADR     IMUSTALL
000499: 43,2362           05474                           TC       ENDEXTVB
000500:
000501: 43,2363           32372        FINEK2             CAF      LGYROBIN                              #  PINBALL LEFT COMMANDS IN OGC REGIST5RS
000502: 43,2364           04607                           TC       BANKCALL
000503: 43,2365           17310                           CADR     IMUPULSE
000504:
000505: 43,2366           04607                           TC       BANKCALL                              #  WAIT FOR PULSES TO GET OUT.
000506: 43,2367           17735                           CADR     IMUSTALL
000507: 43,2370           05474                           TC       ENDEXTVB
000508: 43,2371           05474                           TC       ENDEXTVB
000509:
000510: 43,2372           02737        LGYROBIN           ECADR    OGC
000511: 43,2373           06335        VNLODGYR           VN       2593
000512: 43,2374           12400        IMUFINEV           VN       4200
000513:                                                                                                  #           GOLOADLV     VERB 50            DESCRIPTION
000514:                                                                                                  #                        AND OTHER PLEASE


000516:                                                                                                  #                        DO SOMETHING VERBS
000517:                                                                                                  #               PLEASE PERFORM, MARK, CALIBRATE, ETC.
000518:                                                                                                  #               1. PRESSING ENTER ON DSKY INDICATES REQUESTED ACTION HAS BEEN  PERFORMED, AND THE PROGRAM DOES THE
000519:                                                                                                  #                  SAME RECALL AS A COMPLETED LOAD.
000520:                                                                                                  #               2. THE EXECUTION OF A VERB 33 (PROCEED WITHOUT DATA) INDICATES THE REQUESTED ACTION IS NOT DESIRED.
000521:
000522: 43,2375  40,2000                                  SBANK=   PINSUPER                              #  FOR LOADLV1 AND SHOWSUM CADR'S.
000523:
000524: 43,2375           04424        GOLOADLV           TC       FLASHOFF
000525:
000526: 43,2376           34172                           CAF      PINSUPBT
000527: 43,2377           00006                           EXTEND
000528: 43,2400           01007                           WRITE    SUPERBNK
000529: 43,2401           04626                           TC       POSTJUMP
000530: 43,2402           62021                           CADR     LOADLV1
000531:                                                                                                  #  VERB 47 - AGS INITIALIZATION - R47.
000532:
000533:                                                                                                  #           SEE LOG SECTION AGS INITIALIZATION FOR OTHER PERTINENT REMARKS.
000534:
000535: 43,2403           02076        V47TXACT           TC       TESTXACT                              #  NO OTHER EXTVERB.
000536: 43,2404           34731                           CAF      PRIO4
000537: 43,2405           05076                           TC       FINDVAC
000538: 43,2406  E6,1771                                  EBANK=   AGSK
000539: 43,2406           02005 64066                     2CADR    AGSINIT
000540:
000541: 43,2410           05146                           TC       ENDOFJOB
000542:
000543: 43,2411           31301        CKMODCAD           CA       MODECADR
000544: 43,2412           00006                           EXTEND
000545: 43,2413           16763                           BZF      TCQ
000546: 43,2414           02116                           TC       ALM/END                               #  SOMEBODY IS USING MODECADR SO EXIT
000547:


000549:                                                                                                  #           ALINTIME     VERB 55            DESCRIPTION
000550:                                                                                                  #                  REQUIRE POO OR POO-.
000551:                                                                                                  #               1. SET EXT VERB DISPLAY BUSY FLAG.
000552:                                                                                                  #               2. DISPLAY FLASHING V25,N24 (LOAD DELTA TIME FOR AGC CLOCK.
000553:                                                                                                  #               3. REQUIRE EXECUTION OF VERB 23.
000554:                                                                                                  #               4. ADD DELTA TIME, RECEIVED FROM INPUT REGISTER, TO THE COMPUTER TIME.
000555:                                                                                                  #               5. RELEASE EXT VERB DISPLAY SYSTEM
000556:
000557: 43,2415           02076        ALINTIME           TC       TESTXACT
000558: 43,2416           04626                           TC       POSTJUMP                              #  NO ROOM IN 43
000559: 43,2417           64002                           CADR     R33
000560:
000561: 42,2002                                           BANK     42
000562: 42,2000                                           SETLOC   SBAND
000563: 42,2000                                           BANK
000564: 42,2002                                           COUNT*   $$/R33
000565:
000566: 42,2002           35012        R33                CAF      PRIO7
000567: 42,2003           05137                           TC       PRIOCHNG
000568: 42,2004           32034                           CAF      VNLODDT
000569: 42,2005           04607                           TC       BANKCALL
000570: 42,2006           20323                           CADR     GOXDSPF
000571: 42,2007           05474                           TC       ENDEXT                                #  TERMINATE
000572: 42,2010           05474                           TC       ENDEXT                                #  PROCEED
000573: 42,2011           42033                           CS       DEC23                                 #  DATA IN OR RESEQUENCE(UNLIKELY)
000574: 42,2012           60154                           AD       MPAC                                  #  RECALL LEFT VERB IN MPAC
000575: 42,2013           00006                           EXTEND
000576: 42,2014           12016                           BZF      UPDATIME                              #  GO AHEAD WITH UPDATE ONLY IF RECALL
000577: 42,2015           05474                           TC       ENDEXT                                #    WITH V23 (DATA IN).
000578:
000579: 42,2016           00004        UPDATIME           INHINT                                         #  DELTA TIME IS IN DSPTEM1, +1.
000580: 42,2017           34746                           CAF      ZERO
000581: 42,2020           54156                           TS       MPAC       +2                         #  NEEDED FOR TP AGREE
000582: 42,2021           54001                           TS       L                                     #  ZERO T1 + 2 WHILE ALIGNING.
000583: 42,2022           52025                           DXCH     TIME2
000584: 42,2023           52155                           DXCH     MPAC
000585: 42,2024           53051                           DXCH     DSPTEM2    +1                         #  INCREMENT
000586: 42,2025           20155                           DAS      MPAC
000587:
000588: 42,2026           07300                           TC       TPAGREE                               #  FORCE SIGN AGREEMENT.
000589: 42,2027           52155                           DXCH     MPAC                                  #  NEW CLOCK.
000590: 42,2030           20025                           DAS      TIME2
000591: 42,2031           00003                           RELINT
000592: 42,2032           05474        UPDTMEND           TC       ENDEXT
000593:
000594: 42,2033           00027        DEC23              DEC      23         B-14                       #  V 23
000595:
000596: 42,2034           06230        VNLODDT            VN       2524                                  #  V25N24 FOR LOAD DELTA TIME
000597:


000599:                                                                                                  #           SET UP FOR RADAR SAMPLING.
000600:
000601: 42,2035                                           BANK     42
000602: 43,2000                                           SETLOC   EXTVERBS
000603: 43,2000                                           BANK
000604:
000605: 43,2420  E4,1571                                  EBANK=   RSTACK
000606:
000607: 43,2420                                           COUNT*   $$/R0477
000608:
000609: 43,2420           02653        R77                TC       RDRUSECK                              #  TRY TO AVOID THE 1210.
000610: 43,2421           30077                           CA       FLAGWRD3                              #  IS R04 RUNNING?
000611: 43,2422           74734                           MASK     R04FLBIT
000612: 43,2423           10000                           CCS      A
000613: 43,2424           02116                           TC       ALM/END                               #  YES.
000614: 43,2425           05506                           TC       UPFLAG
000615: 43,2426           00117                           ADRES    R77FLAG
000616: 43,2427           12434                           TCF      R04Z
000617:
000618: 43,2430           02653        R04                TC       RDRUSECK                              #  TRY TO AVOID THE 1210.
000619: 43,2431           02076                           TC       TESTXACT
000620: 43,2432           05506                           TC       UPFLAG
000621: 43,2433           00063                           ADRES    R04FLAG                               #  SET R04FLAG FOR ALARMS
000622:
000623: 43,2434           34732        R04Z               CAF      EBANK4
000624: 43,2435           54003                           TS       EBANK
000625: 43,2436           32651                           CAF      1SEC+1                                #  SAMPLE ONCE PER SECOND
000626: 43,2437           55770                           TS       RSAMPDT
000627: 43,2440           34746                           CAF      ZERO
000628: 43,2441           55767                           TS       RTSTLOC
000629: 43,2442           55566                           TS       RFAILCNT                              #  ZERO BAD SAMPLE COUNTER
000630:
000631: 43,2443           00004                           INHINT
000632: 43,2444           42652                           CS       LRPOSCAL                              #  INITIALIZE
000633: 43,2445           70110                           MASK     RADMODES                              #      BIT9   LR RANGE  LOW SCALE =0
000634: 43,2446           54110                           TS       RADMODES                              #      BIT6   LR POS 1 =0
000635: 43,2447           32652                           CAF      LRPOSCAL                              #      BIT3   RR RANGE  LOW SCALE =0
000636: 43,2450           00006                           EXTEND
000637: 43,2451           02033                           RAND     CHAN33
000638: 43,2452           26110                           ADS      RADMODES
000639: 43,2453           00003                           RELINT
000640:
000641: 43,2454           40077                           CS       FLAGWRD3                              #  CHECK R04FLAG      R04 =1    R77 =0
000642: 43,2455           74734                           MASK     R04FLBIT
000643: 43,2456           10000                           CCS      A
000644: 43,2457           12606                           TCF      R04K
000645:
000646: 43,2460           34744                           CAF      ONE                                   #  INDICATES RENDEZVOUS DESIRED
000647: 43,2461           55051                           TS       OPTIONX    +1
000648: 43,2462           34742        R04A               CAF      BIT3                                  #  OPTION CODE FOR V04N12
000649:


000651: 43,2463           55050                           TS       OPTIONX
000652: 43,2464           32646                           CAF      V04N12X
000653: 43,2465           04607                           TC       BANKCALL                              #      R2   00001  RENDEZVOUS RADAR
000654: 43,2466           20345                           CADR     GOMARKFR                              #           00002  LANDING RADAR
000655: 43,2467           12614                           TCF      R04END                                #  V34
000656: 43,2470           12475                           TCF      +5                                    #  V33
000657: 43,2471           12464                           TCF      R04A       +2                         #  R2
000658: 43,2472           34742                           CAF      BIT3
000659: 43,2473           05466                           TC       BLANKET
000660: 43,2474           05146                           TC       ENDOFJOB
000661:
000662: 43,2475           31051                           CA       OPTIONX    +1                         #  SAVE DESIRED OPTION     RR =1     LR =2
000663: 43,2476           55764                           TS       RTSTDEX
000664:
000665: 43,2477           36263        R04X               CAF      SIX                                   #  RR OR LR DESIRED
000666: 43,2500           71764                           MASK     RTSTDEX
000667: 43,2501           10000                           CCS      A
000668: 43,2502           12610                           TCF      R04L                                  #  LANDING RADAR
000669: 43,2503           55766                           TS       RTSTBASE                              #  FOR RR   BASE = 0, MAX = 1
000670:
000671: 43,2504           34743        R04B               CAF      BIT2                                  #  IS RR AUTO MODE DISCRETE PRESENT
000672: 43,2505           00006                           EXTEND
000673: 43,2506           02033                           RAND     CHAN33
000674: 43,2507           00006                           EXTEND
000675: 43,2510           12521                           BZF      R04C                                  #  YES
000676:
000677: 43,2511           32650                           CAF      201R04                                #  REQUEST SELECTION OF RR AUTO MODE
000678: 43,2512           55044                           TS       DSPTEM1
000679: 43,2513           32647                           CAF      V50N25X
000680: 43,2514           04607                           TC       BANKCALL
000681: 43,2515           20337                           CADR     GOMARK4
000682: 43,2516           12614                           TCF      R04END                                #  V34
000683: 43,2517           12504                           TCF      R04B                                  #  V33
000684: 43,2520           12511                           TCF      -7                                    #  E
000685:
000686: 43,2521           34727        R04C               CAF      BIT14                                 #  ENABLE RR AUTO TRACKER
000687: 43,2522           00006                           EXTEND
000688: 43,2523           05012                           WOR      CHAN12
000689:
000690: 43,2524           34743                           CAF      TWO
000691: 43,2525           55765                           TS       RTSTMAX                               #  FOR SEQUENTIAL STORAGE
000692:
000693: 43,2526           05205                           TC       WAITLIST
000694: 43,2527  E4,1571                                  EBANK=   RSTACK
000695: 43,2527           02162 32104                     2CADR    RADSAMP
000696:
000697: 43,2531           00003                           RELINT
000698:
000699: 43,2532           40077                           CS       FLAGWRD3                              #  CHECK R04FLAG      R04 =1    R77 =0
000700: 43,2533           74734                           MASK     R04FLBIT


000702: 43,2534           10000                           CCS      A
000703: 43,2535           12117                           TCF      GOPIN                                 #  R77
000704:
000705: 43,2536           36263                           CAF      SIX                                   #  RR OR LR
000706: 43,2537           71764                           MASK     RTSTDEX
000707: 43,2540           10000                           CCS      A
000708: 43,2541           12556                           TCF      R04LR                                 #  LR
000709:
000710: 43,2542           32642        R04RR              CAF      V16N72                                #  DISPLAY RR CDU ANGLES (1/SEC)
000711: 43,2543           04607                           TC       BANKCALL                              #           R1  +  XXX.XX DEG   TRUNNION
000712: 43,2544           20323                           CADR     GOMARKF                               #           R2  +  XXX.XX DEG   SHAFT
000713: 43,2545           12614                           TCF      R04END                                #  V34      R3     BLANK
000714: 43,2546           12550                           TCF      +2                                    #  V33
000715: 43,2547           12542                           TCF      R04RR                                 #  V32
000716:
000717: 43,2550           32643                           CAF      V16N78                                #  DISPLAY RR RANGE AND RANGE RATE (1/SEC)
000718: 43,2551           04607                           TC       BANKCALL                              #           R1  +- XXX.XX NM    RANGE
000719: 43,2552           20323                           CADR     GOMARKF                               #           R2  +- XXXX.X FPS   RANGE RATE
000720: 43,2553           12614                           TCF      R04END                                #  V34      R3     BLANK
000721: 43,2554           12572                           TCF      R04Y                                  #  V33
000722: 43,2555           12542                           TCF      R04RR                                 #  V32
000723:
000724: 43,2556           32644        R04LR              CAF      V16N66                                #  DISPLAY LR RANGE AND POSITION (1/SEC)
000725: 43,2557           04607                           TC       BANKCALL                              #           R1  +- XXXXX. FT   LR RANGE
000726: 43,2560           20323                           CADR     GOMARKF                               #           R2  +  0000X.      POS. NO.
000727: 43,2561           12614                           TCF      R04END                                #  V34      R3     BLANK
000728: 43,2562           12564                           TCF      +2                                    #  V33
000729: 43,2563           12556                           TCF      R04LR                                 #  V32
000730:
000731: 43,2564           32645                           CAF      V16N67                                #  DISPLAY LR VELX, VELY, VELZ (1/SEC)
000732: 43,2565           04607                           TC       BANKCALL                              #           R1  +- XXXXX. FPS   LR V(X)
000733: 43,2566           20323                           CADR     GOMARKF                               #           R2  +- XXXXX. FPS   LR V(Y)
000734: 43,2567           12614                           TCF      R04END                                #  V34      R3  +- XXXXX. FPS   LR V(Z)
000735: 43,2570           12572                           TCF      R04Y                                  #  V33
000736: 43,2571           12556                           TCF      R04LR                                 #  V32
000737:
000738: 43,2572           34746        R04Y               CAF      ZERO                                  #  TO TERMINATE SAMPLING
000739: 43,2573           55770                           TS       RSAMPDT
000740: 43,2574           04607                           TC       BANKCALL
000741: 43,2575           01735                           CADR     2SECDELY                              #  WAIT FOR LAST RADARUPT
000742: 43,2576           32651                           CAF      1SEC+1                                #  SAMPLE ONCE PER SECOND
000743: 43,2577           55770                           TS       RSAMPDT
000744: 43,2600           34746                           CAF      ZERO                                  #  FOR STORING RESULTS
000745: 43,2601           55767                           TS       RTSTLOC
000746: 43,2602           11766                           CCS      RTSTBASE                              #   CHECK WHICH RADAR HAD BEEN SAMPLED
000747: 43,2603           44744                           CS       ONE                                   #  WAS LR
000748: 43,2604           64743                           AD       TWO                                   #  WAS RR
000749: 43,2605           12476                           TCF      R04X       -1
000750:
000751: 43,2606           34757        R04K               CAF      250MS+1                               #  SAMPLE 4 LR COMPONENTS PER SECOND.


000753: 43,2607           55770                           TS       RSAMPDT
000754:
000755: 43,2610           34743        R04L               CAF      TWO
000756: 43,2611           55766                           TS       RTSTBASE                              #  FOR LR   BASE = 2, MAX = 3
000757: 43,2612           36263                           CAF      SIX
000758: 43,2613           12525                           TCF      R04C       +4
000759: 43,2614           34746        R04END             CAF      ZERO                                  #  ZERO RSAMPDT
000760: 43,2615           55770                           TS       RSAMPDT                               #  TO TERMINATE SAMPLING
000761: 43,2616           34735                           CAF      BIT8                                  #  WAIT 1.28 SECONDS FOR POSSIBLE
000762: 43,2617           04607                           TC       BANKCALL                              #  PENDING RUPT.
000763: 43,2620           01736                           CADR     DELAYJOB
000764:
000765: 43,2621           00004                           INHINT
000766: 43,2622           44727                           CS       BIT14                                 #  DISABLE RR AUTO TRACKER
000767: 43,2623           00006                           EXTEND
000768: 43,2624           03012                           WAND     CHAN12
000769:
000770: 43,2625           05520                           TC       DOWNFLAG
000771: 43,2626           00063                           ADRES    R04FLAG                               #  SIGNAL END OF R04.
000772:
000773: 43,2627           05474                           TC       ENDEXT
000774:
000775: 43,2630           34732        R77END             CAF      EBANK4                                #  TO TERMINATE SAMPLING
000776: 43,2631           54003                           TS       EBANK
000777: 43,2632           34746                           CAF      ZERO
000778: 43,2633           55770                           TS       RSAMPDT
000779: 43,2634           34737                           CAF      BIT6                                  #  WAIT 320 MS FOR POSSIBLE
000780: 43,2635           04607                           TC       BANKCALL                              #  PENDING RUPT.
000781: 43,2636           01736                           CADR     DELAYJOB
000782:
000783: 43,2637           05520                           TC       DOWNFLAG
000784: 43,2640           00117                           ADRES    R77FLAG
000785: 43,2641           12117                           TCF      GOPIN
000786:
000787: 43,2642           04110        V16N72             VN       1672
000788: 43,2643           04116        V16N78             VN       1678
000789: 43,2644           04102        V16N66             VN       1666
000790: 43,2645           04103        V16N67             VN       1667
000791: 43,2646           01014        V04N12X            VN       412
000792: 43,2647           14431        V50N25X            VN       5025
000793: 43,2650           00201        201R04             OCT      00201
000794: 43,2651           00145        1SEC+1             DEC      101        B-14
000795: 43,2652     4757               250MS+1            EQUALS   CALLCODE
000796: 43,2652           00444        LRPOSCAL           OCT      444
000797:


000799: 43,2653           30101        RDRUSECK           CA       FLAGWRD5                              #  IS R77 RUNNING?
000800: 43,2654           74732                           MASK     R77FLBIT
000801: 43,2655           10000                           CCS      A
000802: 43,2656           02116                           TC       ALM/END                               #  YES.
000803: 43,2657           40103                           CS       FLAGWRD7                              #  IS SERVICER RUNNING AND HENCE POSSIBLY
000804: 43,2660           74737                           MASK     V37FLBIT                              #  R12 USING THE LR?
000805: 43,2661           10000                           CCS      A
000806: 43,2662           12667                           TCF      CHECKRR                               #  NO
000807: 43,2663           30107                           CA       FLGWRD11                              #  YES, IS R12 ON?
000808: 43,2664           74726                           MASK     LRBYBIT                               #  BIT 15
000809: 43,2665           00006                           EXTEND
000810: 43,2666           12116                           BZF      ALM/END                               #  YES
000811: 43,2667           40075        CHECKRR            CS       FLAGWRD1                              #  IS THE TRACK FLAG SET AND HENCE POSSIBLY
000812: 43,2670           74740                           MASK     TRACKBIT                              #  P20 USING THE RR?
000813: 43,2671           10000                           CCS      A
000814: 43,2672           00002                           TC       Q                                     #  NOT ALLOWED DURING P20
000815: 43,2673           02116                           TC       ALM/END                               #  P22 OR P25,  (R65)
000816: 43,2674                                           COUNT*   $$/EXTVB
000817:
000818: 43,2674           02076        VB64               TC       TESTXACT                              #  IF DISPLAY SYS. NOT BUSY,MAKE IT BUSY.
000819: 43,2675           34731                           CAF      PRIO4
000820: 43,2676           05076                           TC       FINDVAC
000821: 43,2677  E4,1571                                  EBANK=   ALPHASB
000822: 43,2677           03617 64104                     2CADR    SBANDANT                              #  CALC.,DISPLAY S-BAND ANTENNA ANGLES.
000823:
000824: 43,2701           05146                           TC       ENDOFJOB
000825:


000827:                                                                                                  #           IMUATTCK      VERB 43           DESCRIPTION
000828:                                                                                                  #               LOAD IMU ATTITUDE ERROR METERS
000829:                                                                                                  #                  1. REQUIRE POO OR FRESH START.
000830:                                                                                                  #                  2. REQUIRE COARSE ALIGN ENABLE AND ZERO ICDU BITS OFF.
000831:                                                                                                  #                  3. REQUIRE THAT NEEDLES BE OFF.
000832:                                                                                                  #                  4. REQUEST LOAD OF N22  (VAUES TO BE DISPLAYED).
000833:                                                                                                  #                  5. ON PROCEED OR ENTER RE-DISPLAY V43 AND SEND PULSES.
000834:
000835: 43,2702           02121        IMUATTCK           TC       CHKPOOH                               #  VB 76 - LOAD IMU ATT. ERROR METERS
000836:
000837: 43,2703           34754                           CAF      BITS4&5                               #  SEE IF COARSE ALIGN ENABLE AND ZERO IMU
000838: 43,2704           00006                           EXTEND                                         #  CDUS BITS ARE ON
000839: 43,2705           02012                           RAND     CHAN12
000840: 43,2706           10000                           CCS      A
000841: 43,2707           12116                           TCF      ALM/END                               #  NOT ALLOWED IF IMU COARSE OR IMU ZERO ON
000842:
000843: 43,2710           34346                           CAF      BIT13-14                              #  BOTH BITS 13 AND 14 MUST BE 1
000844: 43,2711           00006                           EXTEND                                         #  INDICATING THE MODE SELECTED IS OFF.
000845: 43,2712           06031                           RXOR     CHAN31
000846: 43,2713           74346                           MASK     BIT13-14
000847: 43,2714           00006                           EXTEND
000848: 43,2715           12717                           BZF      +2                                    #  NEEDLES IS OFF.
000849: 43,2716           12116                           TCF      ALM/END                               #  EXIT.  NEEDLES IS ON.
000850:
000851: 43,2717           02076                           TC       TESTXACT
000852:
000853: 43,2720           32233                           CAF      VNLODCDU
000854: 43,2721           04607                           TC       BANKCALL
000855: 43,2722           20323                           CADR     GOXDSPF
000856: 43,2723           05474                           TC       ENDEXT                                #  V34
000857: 43,2724           02725                           TC       +1
000858: 43,2725           32740                           CAF      V43K                                  #  REDISPLAY OUR VERB.
000859: 43,2726           04607                           TC       BANKCALL
000860: 43,2727           20632                           CADR     EXDSPRET
000861: 43,2730           34737                           CAF      BIT6
000862: 43,2731           00006                           EXTEND
000863: 43,2732           05012                           WOR      CHAN12                                #  ENABLE ERROR COUNTERS.
000864: 43,2733           34743                           CAF      TWO
000865: 43,2734           05205                           TC       WAITLIST                              #  PUT OUT COMMANDS IN .32 SECONDS.
000866: 43,2735     0321                                  EBANK=   THETAD
000867: 43,2735           02035 64100                     2CADR    ATTCK2
000868:
000869: 43,2737           15474                           TCF      ENDEXT
000870:
000871: 42,2035                                           BANK     42
000872: 42,2000                                           SETLOC   PINBALL3                              #  SOMETHING IN B42.
000873: 42,2000                                           BANK
000874:
000875: 42,2035                                           COUNT*   $$/EXTVB


000877: 42,2035           34743        ATTCK2             CAF      TWO                                   #  PUT OUT COMMANDS.
000878: 42,2036           54002                 +1        TS       Q                                     #  CDU WILL LIMIT EXCESS DATA.
000879: 42,2037           50000                           INDEX    A
000880: 42,2040           30321                           CA       THETAD
000881: 42,2041           00006                           EXTEND
000882: 42,2042           72053                           MP       ATTSCALE
000883: 42,2043           50002                           INDEX    Q
000884: 42,2044           56050                           XCH      CDUXCMD
000885: 42,2045           10002                           CCS      Q
000886: 42,2046           12036                           TCF      ATTCK2     +1
000887:
000888: 42,2047           37761                           CAF      13,14,15
000889: 42,2050           00006                           EXTEND
000890: 42,2051           05014                           WOR      CHAN14
000891: 42,2052           15263                           TCF      TASKOVER                              #  LEAVE ERROR COUNTERS ENABLED.
000892:
000893: 42,2053           03146        ATTSCALE           DEC      0.1
000894:
000895: 07,2607                                           BANK     7
000896: 43,2000                                           SETLOC   EXTVERBS
000897: 43,2000                                           BANK
000898:
000899: 43,2740                                           COUNT*   $$/EXTVB
000900:
000901: 43,2740           12600        V43K               VN       4300
000902:                                                                                                  #           V82PERF     VERB 82             DESCRIPTION
000903:                                                                                                  #               REQUEST ORBIT PARAMETERS DISPLAY (R30)
000904:                                                                                                  #  1. IF AVERAGE G IS OFF:
000905:                                                                                                  #           FLASH DISPLAY V04N06. R2 INDICATES WHICH SHIP'S STATE VECTOR IS
000906:                                                                                                  #            TO BE UPDATED. INITIAL CHOICE IS THIS SHIP (R2=1). ASTRONAUT
000907:                                                                                                  #            CAN CHANGE TO OTHER SHIP BY V22EXE, WHERE X NOT EQ 1.
000908:                                                                                                  #           SELECTED STATE VECTOR UPDATED BY THISPREC (OTHPREC).
000909:                                                                                                  #           CALLS SR30.1 (WHICH CALLS TFFCONMU + TFFRP/RA) TO CALCULATE
000910:                                                                                                  #            RPER (PERIGEE RADIUS), RAPO (APOGEE RADIUS), HPER (PERIGEE
000911:                                                                                                  #            HEIGHT ABOVE LAUNCH PAD OR LUNAR LANDING SITE), HAPO (APOGEE
000912:                                                                                                  #            HEIGHT AS ABOVE), TPER (TIME TO PERIGEE), TFF (TIME TO
000913:                                                                                                  #            INTERSECT 300 KFT ABOVE PAD OR 35KFT ABOVE LANDING SITE).
000914:                                                                                                  #           FLASH MONITOR V16N44 (HAPO, HPER, TFF).TFF IS -59M59S IF IT WAS
000915:                                                                                                  #            NOT COMPUTABLE, OTHERWISE IT INCREMENTS ONCE PER SECOND.
000916:                                                                                                  #            ASTRONAUT HAS OPTION TO MONITOR TPER BY KEYING IN N 32 E.
000917:                                                                                                  #            DISPLAY IS IN HMS, IS NEGATIVE (AS WAS TFF), AND INCREMENTS
000918:                                                                                                  #            ONCE PER SECOND ONLY IF TFF DISPLAY WAS -59M59S.
000919:
000920:                                                                                                  #  2. IF AVERAGE G IS ON:
000921:                                                                                                  #           CALLS SR30.1 APPROX EVERY TWO SECS.  STATE VECTOR IS ALWAYS
000922:                                                                                                  #            FOR THIS VEHICLE. V82 DOES NOT DISTURB STATE VECTOR.  RESULTS
000923:                                                                                                  #            OF SR30.1 ARE RAPO, RPER, HAPO, HPER, TPER, TFF.
000924:                                                                                                  #           FLASH MONITOR V16N44 (HAPO, HPER, TFF).
000925:                                                                                                  #           IF MODE IS P11, THEN CALL DELRSPL SO ASTRONAUT CAN MONITOR
000926:                                                                                                  #            RESULTS BY N50E. SPLASH COMPUTATION DONE ONCE PER TWO SECS.
000927:


000929: 43,2741           02076        V82PERF            TC       TESTXACT
000930:
000931: 43,2742           35012                           CAF      PRIO7                                 #  LESS THAN LAMBERT.  R30,V82
000932: 43,2743           05137                           TC       PRIOCHNG
000933: 43,2744           00006                           EXTEND
000934: 43,2745           32750                           DCA      V82CON
000935: 43,2746           05167                           TC       SUPDXCHZ                              #  V82CALL IN DIFF SUPERBANK FROM V82PERF
000936:
000937: 43,2747  E4,1707                                  EBANK=   HAPO
000938: 43,2747           03244 44104  V82CON             2CADR    V82CALL
000939:
000940:                                                                                                  #           VB83PERF     VERB 83            DESCRIPTION
000941:                                                                                                  #               REQUEST RENDEZVOUS PARAMETER DISPLAY (R31)
000942:                                                                                                  #               1. SET EXT VERB DISPLAY BUSY FLAG.
000943:                                                                                                  #               2. SCHEDULE R31CALL WITH PRIORITY 5.
000944:                                                                                                  #                  A. DISPLAY
000945:                                                                                                  #                      R1  RANGE
000946:                                                                                                  #                      R2  RANGE RATE
000947:                                                                                                  #                      R3  THETA
000948:
000949: 43,2751           02076        V83PERF            TC       TESTXACT
000950:
000951: 43,2752           34743                           CAF      BIT2
000952: 43,2753           05205                           TC       WAITLIST
000953: 43,2754  E7,1611                                  EBANK=   TSTRT
000954: 43,2754           03741 60107                     2CADR    R31CALL
000955:
000956: 43,2756           05146                           TC       ENDOFJOB
000957:
000958:                                                                                                  #  VERB 89 DESCRIPTION     RENDEZVOUS FINAL ATTITUDE ROUTINE (R63)
000959:
000960:                                                                                                  #  CALLED BY VERB 89 ENTER DURING P00. PRIO 10 USED.  CALCULATES AND
000961:                                                                                                  #  DISPLAYS FINAL FDAI BALL ANGLES TO POINT LM +X OR +Z AXIS AT CSM.
000962:
000963:                                                                                                  #  1. KEY IN V 89 E ONLY IF IN PROG 00. IF NOT IN P00, OPERATOR ERROR AND
000964:                                                                                                  #  EXIT R63, OTHERWISE CONTINUE.
000965:
000966:                                                                                                  #  2. IF IN P00, DO IMU STATUS CHECK ROUTINE (R02BOTH). IF IMU ON AND ITS
000967:                                                                                                  #  ORIENTATION KNOWN TO LGC, CONTINUE.
000968:
000969:                                                                                                  #  3. FLASH DISPLAY V 04 N 06.  R2 INDICATES WHICH SPACECRAFT AXIS IS TO
000970:                                                                                                  #  BE POINTED AT CSM.  INITIAL CHOICE IS PREFERRED (+Z) AXIS (R2=1).
000971:                                                                                                  #  ASTRONAUT CAN CHANGE TO (+X) AXIS (R2 NOT = 1) BY V 22 E 2 E.  CONTINUE
000972:                                                                                                  #  AFTER KEYING IN PROCEED.
000973:
000974:                                                                                                  #  4. BOTH VEHICLE STATE VECTORS UPDATED BY CONIC EQS.
000975:
000976:                                                                                                  #  5. HALF MAGNITUDE UNIT LOS VECTOR (IN STABLE MEMBER COORDINATES) AND


000978:                                                                                                  #  HALF MAGNITUDE UNIT SPACECRAFT AXIS VECTOR (IN BODY COORDINATES)
000979:                                                                                                  #  PREPARED FOR VECPOINT.
000980:
000981:                                                                                                  #  6. GIMBAL ANGLES FROM VECPOINT TRANSFORMED INTO FDAI BALL ANGLES BY
000982:                                                                                                  #  BALLANGS. FLASH DISPLAY V 06 N 18 AND AWAIT RESPONSE.
000983:
000984:                                                                                                  #  7. RECYCLE - RETURN TO STEP 4.
000985:                                                                                                  #     TERMINATE - EXIT R63.
000986:                                                                                                  #     PROCEED - RESET 3AXISFLG AND CALL R60LEM FOR ATTITUDE MANEUVER.
000987:
000988:
000989: 43,2757           02121        V89PERF            TC       CHKPOOH
000990: 43,2760           02076                           TC       TESTXACT
000991: 43,2761           34730                           CAF      PRIO10
000992: 43,2762           05076                           TC       FINDVAC
000993: 43,2763  E4,1577                                  EBANK=   RONE
000994: 43,2763           02024 54104                     2CADR    V89CALL
000995:
000996: 43,2765           05146                           TC       ENDOFJOB
000997:
000998:                                                                                                  #           V90PERF     VERB 90             DESCRIPTION
000999:                                                                                                  #               REQUEST RENDEZVOUS OUT-OF-PLANE DISPLAY (R36)
001000:                                                                                                  #               1. SET EXT VERB DISPLAY BUSY FLAG.
001001:                                                                                                  #               2. SCHEDULE R36 CALL WITH PRIORITY 10
001002:                                                                                                  #                  A. DISPLAY
001003:                                                                                                  #                      TIME OF EVENT - HOURS , MINUTES , SECONDS
001004:                                                                                                  #                      Y  OUT-OF-PLANE POSITION - NAUTICAL MILES
001005:                                                                                                  #                      YDOT  OUT-OF-PLANE VELOCITY - FEET/SECOND
001006:                                                                                                  #                      PSI  ANGLE BTW LINE OF SIGHT AND FORWARD
001007:                                                                                                  #                           DIRECTION VECTOR IN HORIZONTAL PLANE - DEGREES
001008:
001009: 43,2766           40103        V90PERF            CS       FLAGWRD7
001010: 43,2767           74737                           MASK     V37FLBIT
001011: 43,2770           00006                           EXTEND
001012: 43,2771           12116                           BZF      ALM/END                               #  AVERAGE G ON: ILL EAGLE
001013: 43,2772           02076                           TC       TESTXACT
001014: 43,2773           35012                           CAF      PRIO7                                 #  R36,V90
001015: 43,2774           05076                           TC       FINDVAC
001016: 43,2775  E7,1441                                  EBANK=   TIG
001017: 43,2775           02677 10107                     2CADR    R36
001018:
001019: 43,2777           15146                           TCF      ENDOFJOB
001020:                                                                                                  #           MINIMP     VERB 76              DESCRIPTION
001021:                                                                                                  #               MINIMUM IMPULSE MODE
001022:                                                                                                  #               1. SET MINIMUM IMPULSE RHC MODE FLAG TO 1.
001023:
001024: 43,3000           05506        MINIMP             TC       UPFLAG                                #  SET PULSES = 1 (MIN. IMPULSE MODE)
001025: 43,3001           00303                           ADRES    PULSEFLG
001026: 43,3002           12117                           TCF      GOPIN                                 #  RETURN VIA PINBRNCH
001027:


001029:                                                                                                  #           NOMINIMP     VERB 77            DESCRIPTION
001030:                                                                                                  #               RATE COMMAND MODE
001031:                                                                                                  #               1. SET MINIMUM IMPULSE RHC MODE FLAG TO 0. (ZERO INDICATES NOT MINIMUM IMPULSE MODE.).
001032:                                                                                                  #               2. MOVE CDUX,CDUY,CDUZ INTO CDUXD,CDUYD,CDUZD.
001033:
001034: 43,3003           05520        NOMINIMP           TC       DOWNFLAG                              #  SET PULSES = 0 (NOT MINIMUM IMPULSE MODE
001035: 43,3004           00303                           ADRES    PULSEFLG
001036: 43,3005           00004                           INHINT
001037: 43,3006           04665                           TC       IBNKCALL
001038: 43,3007           40154                           CADR     ZATTEROR
001039: 43,3010           02117                           TC       GOPIN
001040:


001042:                                                                                                  #           CREWMANU     VERB 49            DESCRIPTION
001043:                                                                                                  #               START AUTOMATIC ATTITUDE MANEUVER
001044:                                                                                                  #               1. REQUIRE PROGRAM 00 ACTIVE.
001045:                                                                                                  #               2. SET EXT VERB DISPLAY BUSY FLAG.
001046:                                                                                                  #               3. SCHEDULE R62DISP WITH PRIORITY 10.
001047:                                                                                                  #               4. RELEASE EXT VERB DISPLAY.
001048:
001049:                                                                                                  #             R62DISP
001050:                                                                                                  #               1. DISPLAY FLASHING V06,N22.
001051:                                                                                                  #                  RESPONSES
001052:                                                                                                  #                  A. TERMINATE
001053:                                                                                                  #                     1. GO TO GOTOPOOH.
001054:                                                                                                  #                  B. PROCEED
001055:                                                                                                  #                     1. SET 3AXISFLG TO INDICATE MANEUVER IS SPECIFIED BY 3 AXIS.
001056:                                                                                                  #                     2. EXECUTE R60LEM (ATTITUDE MANEUVER).
001057:                                                                                                  #                  C. ENTER
001058:                                                                                                  #                     1. REPEAT FLASHING V06,N22.
001059:
001060: 43,3011           02121        CREWMANU           TC       CHKPOOH                               #  DEMAND POO
001061:
001062: 43,3012           02076                           TC       TESTXACT
001063:
001064: 43,3013           34730                           CAF      PRIO10
001065: 43,3014           05076                           TC       FINDVAC
001066: 43,3015  E6,1675                                  EBANK=   BCDU
001067: 43,3015           02103 46106                     2CADR    R62DISP
001068:
001069: 43,3017           05146                           TC       ENDOFJOB
001070:


001072:                                                                                                  #  TRMTRACK     VERB 56                     DESCRIPTION
001073:                                                                                                  #               TERMINATE TRACKING (P20 AND P25).
001074:                                                                                                  #               1. KNOCK DOWN RENDEZVOUS, TRACK, AND UPDATE FLAGS.
001075:                                                                                                  #               2. REQUIRE P20 OR  P25 NOT RUNNING ALONE OR GO TO GOTOPOOH (REQUEST PROGRAM 00).
001076:                                                                                                  #               3. SCHEDULE V56TOVAC WITH PRIORITY 30.
001077:
001078:                                                                                                  #               V56TOVAC
001079:                                                                                                  #               1. EXECUTE INTSTALL (IF INTEGRATION IS RUNNING, STALL UNTIL IT IS FINISHED.).
001080:                                                                                                  #               2. ZERO GROUP 2 TO HALT P20.
001081:                                                                                                  #               3. TRANSFER CONTROL TO GOPROG2 (SOFTWARE RESTART).
001082:
001083: 43,3020           36017        TRMTRACK           CA       BITS9+7                               #  IS REND OR P25 FLAG ON
001084: 43,3021           70074                           MASK     FLAGWRD0
001085: 43,3022           00006                           EXTEND
001086: 43,3023           12117                           BZF      GOPIN                                 #  NO
001087:
001088: 43,3024           05520                           TC       DOWNFLAG                              #  ENSURE SEARCH FLAG IS OFF
001089: 43,3025           00037                           ADRES    SRCHOPTN
001090:
001091: 43,3026           34740                           CA       TRACKBIT                              #  IS TRACK FLAG ON?
001092: 43,3027           70075                           MASK     FLAGWRD1
001093: 43,3030           00006                           EXTEND
001094: 43,3031           13034                           BZF      CLRRND
001095: 43,3032           04626                           TC       POSTJUMP
001096: 43,3033           64054                           CADR     TRMTRAK1
001097:
001098: 43,3034           46017        CLRRND             CS       BITS9+7                               #  TURN OFF RENDVZFLG AND P25FLAG
001099: 43,3035     4736               REFTAG5            =        RNDVZBIT
001100: 43,3035     4734               REFTAG6            =        P25FLBIT
001101: 43,3035           70074                           MASK     FLAGWRD0
001102: 43,3036           54074                           TS       FLAGWRD0
001103: 43,3037           12117                           TCF      GOPIN
001104:
001105:    6000                                           SETLOC   FFTAG5
001106:    6000                                           BANK
001107:
001108:    6017           00500        BITS9+7            OCT      500
001109:
001110:
001111: 42,2000                                           SETLOC   SBAND                                 #  BANK 42
001112: 42,2000                                           BANK
001113:
001114: 42,2054                                           COUNT*   $$/EXTVB
001115:
001116: 42,2054           34727        TRMTRAK1           CAF      BIT14
001117: 42,2055           55073                           TS       AGSCODE
001118:
001119: 42,2056           06060                           TC       INTPRET
001120: 42,2057           43014                           CLEAR    CLEAR                                 #  TURN OFF UPDATFLG AND IMUSE
001121: 42,2060           00267                                    IMUSE


001123: 42,2061           00670                                    UPDATFLG
001124: 42,2062           77624                           CALL
001125: 42,2063           27447                                    INTSTALL                              #  DONT INTERRUPT INTEGRATION
001126: 42,2064           77776                           EXIT
001127:
001128: 42,2065           05355                           TC       PHASCHNG
001129: 42,2066           00002                           OCT      2                                     #  KILL GROUP 2 TO HALT P20 ACTIVITY
001130:
001131: 42,2067           00004                           INHINT
001132: 42,2070           04665                           TC       IBNKCALL                              #  ZERO THE COMMANDED RATES TO STOP
001133: 42,2071           40166                           CADR     STOPRATE                              #  MANEUVER
001134:
001135: 42,2072           04665                           TC       IBNKCALL
001136: 42,2073           40115                           CADR     RESTORDB
001137:
001138: 42,2074           06027                           TC       CLRADMOD                              #  CLEAR BITS 10 + 15 OF RADMODES.
001139:
001140: 42,2075           44727                           CS       BIT14                                 #  DISABLE LOCKON
001141: 42,2076           00006                           EXTEND
001142: 42,2077           03012                           WAND     CHAN12
001143: 42,2100           44740                           CS       TRACKBIT                              #  TURN OFF TRACKFLG
001144: 42,2101           70075                           MASK     FLAGWRD1
001145: 42,2102           54075                           TS       FLAGWRD1
001146: 42,2103           46017                           CS       BITS9+7                               #  TURN OFF RENDVZFLG AND P25FLAG
001147: 42,2104     4736               REFTAG7            =        RNDVZBIT
001148: 42,2104     4734               REFTAG8            =        P25FLBIT
001149: 42,2104           70074                           MASK     FLAGWRD0
001150: 42,2105           54074                           TS       FLAGWRD0
001151:
001152: 42,2106           04626                           TC       POSTJUMP
001153: 42,2107           12772                           CADR     GOPROG2                               #  CAUSE RESTART.
001154:
001155:                                                                                                  #           DNEDUMP     VERB 74             DESCRIPTION
001156:                                                                                                  #               INITIALIZE DOWN-TELEMETRY PROGRAM FOR ERASABLE MEMORY DUMP.
001157:                                                                                                  #               1. SET EXT VERB DISPLAY BUSY FLAG.
001158:                                                                                                  #               2. REPLACE CURRENT DOWNLIST WITH ERASABLE MEMORY.
001159:                                                                                                  #               3. RELEASE EXT VERB DISPLAY.
001160:
001161: 43,2000                                           SETLOC   EXTVERBS
001162: 43,2000                                           BANK
001163:
001164: 43,3040                                           COUNT*   $$/EXTVB
001165:
001166: 43,3040     0400                                  EBANK=   400
001167: 43,3040           33043        DNEDUMP            CAF      LDNDUMPI
001168: 43,3041           54335                           TS       DNTMGOTO
001169: 43,3042           02117                           TC       GOPIN
001170:
001171: 43,3043  43,3040               V74                EQUALS   DNEDUMP
001172: 43,3043           03723        LDNDUMPI           REMADR   DNDUMPI
001173:


001175:                                                                                                  #           LEMVEC     VERB 80              DESCRIPTION
001176:                                                                                                  #               UPDATE LEM STATE VECTOR
001177:                                                                                                  #                  RESET VEHUPFLG TO 0
001178:
001179: 43,3044           05520        LEMVEC             TC       DOWNFLAG
001180: 43,3045           00026                           ADRES    VEHUPFLG                              #  VB 80 - VEHUPFLG DOWN INDICATES LEM
001181:
001182: 43,3046           03051                           TC       NOUPDOWN
001183:                                                                                                  #           CSMVEC     VERB 81              DESCRIPTION
001184:                                                                                                  #               UPDATE CSM STATE VECTOR
001185:                                                                                                  #                  SET   VEHUPFLG TO 1
001186:
001187: 43,3047           05506        CSMVEC             TC       UPFLAG
001188: 43,3050           00026                           ADRES    VEHUPFLG                              #  VB 81 - VEHUPFLG UP INDICATES CSM
001189:
001190: 43,3051           05520        NOUPDOWN           TC       DOWNFLAG
001191: 43,3052           00030                           ADRES    NOUPFLAG
001192:
001193: 43,3053           12117                           TCF      GOPIN
001194:
001195:                                                                                                  #           UPDATOFF   VERB 95      DESCRIPTION
001196:                                                                                                  #               INHIBIT STATE VECTOR UPDATES BY INCORP
001197:                                                                                                  #                  SET NOUPFLAG TO 1
001198:
001199: 43,3054           05506        UPDATOFF           TC       UPFLAG                                #  VB 95 SET NOUPFLAG
001200: 43,3055           00030                           ADRES    NOUPFLAG
001201:
001202: 43,3056           02117                           TC       GOPIN
001203:


001205:                                                                                                  #           SYSTEST     VERB 92             DESCRIPTION
001206:                                                                                                  #             OPERATE IMU PERFORMANCE TEST.
001207:                                                                                                  #               1. REQUIRE PROGRAM 00 OR TURN ON OPERATOR ERROR.
001208:                                                                                                  #               2. SET EXT VERB BUSY FLAG.
001209: 43,3057  E5,1417                                  EBANK=   QPLACE
001210:
001211: 43,3057           02121        SYSTEST            TC       CHKPOOH                               #  DEMAND POO
001212:
001213: 43,3060           40077                           CS       FLAGWRD3                              #  DO NOT ALLOW P07 IN FLIGHT
001214: 43,3061           74732                           MASK     NOP07BIT                              #  IF FLAG IS SET, TURN ON OE LITE AND EXIT
001215: 43,3062           00006                           EXTEND
001216: 43,3063           12116                           BZF      ALM/END
001217: 43,3064           02076                           TC       TESTXACT
001218:
001219: 43,3065           37731                           CAF      PRIO22
001220: 43,3066           05076                           TC       FINDVAC
001221: 43,3067  E5,1417                                  EBANK=   QPLACE
001222: 43,3067  37,2000                                  SBANK=   IMUSUPER
001223: 43,3067           02002 76065                     2CADR    REDO
001224:
001225: 43,3071           05146                           TC       ENDOFJOB
001226:
001227:                                                                                                  #  VERB 93         CLEAR RENDWFLG, CAUSES W-MATRIX TO BE RE-INITIALIZED.
001228:
001229: 43,3072           00004        WMATRXNG           INHINT
001230: 43,3073           44744                           CS       RENDWBIT
001231: 43,3074           70101                           MASK     FLAGWRD5
001232: 43,3075           54101                           TS       FLAGWRD5
001233:
001234: 43,3076           02117                           TC       GOPIN
001235:
001236: 43,3077  43,3077               GOSHOSUM           EQUALS   SHOWSUM
001237:
001238: 43,3077           02121        SHOWSUM            TC       CHKPOOH                               #  *
001239: 43,3100           02076                           TC       TESTXACT                              #  *
001240: 43,3101           35012                           CAF      PRIO7                                 #  ALLOW OTHER CHARINS.
001241: 43,3102           05137                           TC       PRIOCHNG
001242: 43,3103           34744                           CAF      S+1                                   #  *
001243: 43,3104           55376                           TS       SKEEP6                                #  * SHOWSUM OPTION
001244: 43,3105           34746                           CAF      S+ZERO                                #  *
001245: 43,3106           55362                           TS       SMODE                                 #  * TURN OFF SELF-CHECK
001246: 43,3107           33250                           CA       SELFADRS                              #  *
001247: 43,3110           55361                           TS       SELFRET                               #  *
001248: 43,3111           03525                           TC       STSHOSUM                              #  * ENTER ROPECHK
001249:
001250: 43,3112           23372        SDISPLAY           LXCH     SKEEP2                                #  * BANK # FOR DISPLAY
001251: 43,3113           23373                           LXCH     SKEEP3                                #  * BUGGER WORD FOR DISPLAY
001252: 43,3114           33247        NOKILL             CA       ADRS1                                 #  *
001253: 43,3115           54156                           TS       MPAC       +2                         #  *
001254: 43,3116           33127                           CA       VNCON                                 #  * 0501


001256: 43,3117           04607                           TC       BANKCALL                              #  *
001257: 43,3120           20323                           CADR     GOXDSPF                               #  *
001258: 43,3121           03124                           TC       +3                                    #  *
001259: 43,3122           03636                           TC       NXTBNK                                #  *
001260: 43,3123           03114                           TC       NOKILL                                #  *
001261: 43,3124           33250                           CA       SELFADRS
001262: 43,3125           55371                           TS       SKEEP1
001263:
001264: 43,3126           05474                           TC       ENDEXT                                #  *
001265:
001266: 43,3127           01201        VNCON              VN       501                                   #  *
001267:
001268: 43,3130           31376        ENDSUMS            CA       SKEEP6                                #  *
001269: 43,3131           00006                           EXTEND                                         #  *
001270: 43,3132           13341                           BZF      SELFCHK                               #  * ROPECHK, START SELFCHK AGAIN.
001271: 43,3133           03525                           TC       STSHOSUM                              #  * START SHOWSUM AGAIN.
001272:


001274:                                                                                                  #           DAPDISP     VERB 48             DESCRIPTION
001275:                                                                                                  #               LOAD AUTO PILOT  DATA
001276:                                                                                                  #               1. REQUIRE EXT VERB DISPLAY AVAILABLE AND SET BUSY FLAG.
001277:                                                                                                  #               2. EXECUTE DAPDATA1, DAPDATA2, AND DAPDATA3.
001278:                                                                                                  #               3. RELEASE EXT VERB DISPLAY SYSTEM.
001279:                                                                                                  #  KEY
001280:                                                                                                  #  THE FOLLOWING IS A KEY TO THE 5 DIGITS OF THE DAP DATA CODE (N46)
001281:
001282:                                                                                                  #  DIGIT A - VEHICLE CONFIGURATION
001283:                                                                                                  #           1 - LM ALONE, ASCENT
001284:                                                                                                  #           2 - LM ALONE, DESCENT
001285:                                                                                                  #           3 - CSM AND LM DOCKED
001286:
001287:                                                                                                  #  DIGIT B - ACCELERATION CODE
001288:                                                                                                  #           0 - 2 JET TRANSLATION, RCS SYSTEM A PREFERRED
001289:                                                                                                  #           1 - 2 JET TRANSLATION, RCS SYSTEM B PREFERRED
001290:                                                                                                  #           2 - 4 JET TRANSLATION, RCS SYSTEM A PREFERRED (NOT MEANINGFUL)
001291:                                                                                                  #           3 - 4 JET TRANSLATION, RCS SYSTEM B PREFERRED (NOT MEANINGFUL)
001292:
001293:                                                                                                  #  DIGIT C - ACA SCALING
001294:                                                                                                  #           0 - FINE
001295:                                                                                                  #           1 - NORMAL
001296:
001297:                                                                                                  #  DIGIT D - DEADBAND
001298:                                                                                                  #           0 - 0.3 DEG
001299:                                                                                                  #           1 - 1.0 DEG
001300:                                                                                                  #           2 - 5.0 DEG
001301:                                                                                                  #          (3 - 5.0 DEG BY DEFAULT)
001302:
001303:                                                                                                  #  DIGIT E - MANEUVER RATE
001304:                                                                                                  #           0 - 0.2 DEG/SEC
001305:                                                                                                  #           1 - 0.5 DEG/SEC
001306:                                                                                                  #           2 - 2.0 DEG/SEC
001307:                                                                                                  #           3 -10.0 DEG/SEC
001308:
001309: 43,3134           02076        DAPDISP            TC       TESTXACT
001310: 43,3135           35012                           CAF      PRIO7                                 #  R03
001311: 43,3136           05137                           TC       PRIOCHNG
001312: 43,3137           04626                           TC       POSTJUMP
001313: 43,3140           40004                           CADR     DAPDATA1
001314: 34,2000                                           BANK     34
001315: 20,2000                                           SETLOC   LOADDAP
001316: 20,2000                                           BANK
001317:
001318: 20,2004                                           COUNT*   $$/R03
001319:
001320: 20,2004  30,2000                                  SBANK=   LOWSUPER                              #  FOR SUBSEQUENT LOW 2CADR'S.
001321:
001322: 20,2004           32114        DAPDATA1           CAF      BOOLSMSK                              #  SET DISPLAY ACCORDING TO DAPBOOLS BITS.
001323: 20,2005           70111                           MASK     DAPBOOLS                              #  LM


001325: 20,2006           55340                           TS       DAPDATR1                              #  LM
001326: 20,2007           40106                           CS       FLGWRD10                              #  SET BIT 14 TO BE COMPLEMENT OF APSFLAG.
001327: 20,2010           74730                           MASK     APSFLBIT
001328: 20,2011           10000                           CCS      A
001329: 20,2012           34727                           CAF      BIT14
001330: 20,2013           27340                           ADS      DAPDATR1
001331: 20,2014           31340        CHKDATA1           CAE      DAPDATR1                              #  IF BITS 13 AND 14 ARE BOTH ZERO, FORCE
001332: 20,2015           74346                           MASK     BIT13-14                              #    A ONE INTO BIT 13.
001333: 20,2016           00006                           EXTEND
001334: 20,2017           12034                           BZF      FORCEONE
001335: 20,2020           31340                           CAE      DAPDATR1                              #  ENSURE THAT NO ILLEGAL BITS SET BY CREW.
001336: 20,2021           72113        MSKDATR1           MASK     DSPLYMSK
001337: 20,2022           55340                           TS       DAPDATR1
001338: 20,2023           32112                           CAF      V04N46                                #  DISPLAY DAP CONFIG. / CHANBKUP
001339: 20,2024           04607                           TC       BANKCALL
001340: 20,2025           20345                           CADR     GOXDSPFR
001341: 20,2026           15474                           TCF      ENDEXT                                #  V34E  TERMINATE
001342: 20,2027           12037                           TCF      DPDAT1                                #  V33E  PROCEED
001343: 20,2030           12014                           TCF      CHKDATA1                              #  E     NEW DATA    CHECK AND REDISPLAY
001344: 20,2031           34742                           CAF      BIT3                                  #  BLANK R3
001345: 20,2032           05466                           TC       BLANKET
001346: 20,2033           15146                           TCF      ENDOFJOB
001347: 20,2034           34730        FORCEONE           CAF      BIT13
001348: 20,2035           27340                           ADS      DAPDATR1
001349: 20,2036           12021                           TCF      MSKDATR1
001350:
001351: 20,2037           00004        DPDAT1             INHINT                                         #  INHINT FOR SETTING OF FLAG BITS AND MASS
001352: 20,2040           44730                           CS       APSFLBIT                              #    ON BASIS OF DISPLAYED DAPDATR1.
001353: 20,2041           70106                           MASK     FLGWRD10
001354: 20,2042           54001                           TS       L                                     #  SET APSFLAG TO BE COMPLEMENT OF BIT 14.
001355: 20,2043           41340                           CS       DAPDATR1
001356: 20,2044           74727                           MASK     BIT14
001357: 20,2045           10000                           CCS      A
001358: 20,2046           34730                           CAF      APSFLBIT
001359: 20,2047           60001                           AD       L
001360: 20,2050           54106                           TS       FLGWRD10
001361: 20,2051           41340                           CS       DAPDATR1                              #  SET BITS OF DAPBOOLS ON BASIS OF DISPLAY
001362: 20,2052           74346                           MASK     BIT13-14                              #    MASK OUT CSMDOCKD (BIT 13) UNLESS BOTH
001363: 20,2053           10000                           CCS      A                                     #    13 AND 14 ARE SET.
001364: 20,2054           44730                           CS       CSMDOCKD
001365: 20,2055           62114                           AD       BOOLSMSK
001366: 20,2056           71340                           MASK     DAPDATR1
001367: 20,2057           54001                           TS       L
001368: 20,2060           42114                           CS       BOOLSMSK
001369: 20,2061           70111                           MASK     DAPBOOLS
001370: 20,2062           60001                           AD       L
001371: 20,2063           54111                           TS       DAPBOOLS
001372: 20,2064           74730                           MASK     CSMDOCKD                              #  LOAD MASS IN ACCORDANCE WITH CSMDOCKD.
001373: 20,2065           10000                           CCS      A                                     #    MASS IS USUALLY ALREADY OKAY, SO DO
001374: 20,2066           31327                           CAE      CSMMASS                               #    NOT TOUCH ITS LOW-ORDER PART.


001376: 20,2067           61326                           AD       LEMMASS
001377: 20,2070           55243                           TS       MASS
001378: 20,2071           30111                           CAE      DAPBOOLS
001379: 20,2072           74732                           MASK     ACC4OR2X                              #  2 OR 4 JET X-TRANSLATION
001380: 20,2073           00006                           EXTEND                                         #  (BIT ACC4OR2X = 1 FOR 4 JETS)
001381: 20,2074           12101                           BZF      +5
001382: 20,2075           44726                           CS       BIT15
001383: 20,2076           70075                           MASK     FLAGWRD1                              #  CLEAR NJTSFLAG TO 0 FOR 4 JETS
001384: 20,2077           54075                           TS       FLAGWRD1
001385: 20,2100           12104                           TCF      +4
001386: 20,2101           40075                           CS       FLAGWRD1                              #  SET NJTSFLAG TO 1 FOR 2 JETS
001387: 20,2102           74726                           MASK     BIT15
001388: 20,2103           26075                           ADS      FLAGWRD1
001389: 20,2104           30111                           CA       DAPBOOLS                              #  SELECT DESIRED KALCMANU AUTOMATIC
001390: 20,2105           76266                           MASK     THREE                                 #  MANEUVER RATE
001391: 20,2106           60000                           DOUBLE                                         #  RATEINDX HAS TO BE 0,2,4,6 SINCE RATES
001392: 20,2107           55322                           TS       RATEINDX                              #  ARE DP
001393: 20,2110           04626                           TC       POSTJUMP
001394: 20,2111           02214                           CADR     STIKLOAD
001395:
001396: 20,2112           01056        V04N46             VN       0446
001397: 20,2113           33133        DSPLYMSK           OCT      33133
001398: 20,2114           13133        BOOLSMSK           OCT      13133
001399: 01,2214                                           BANK     01
001400: 01,2000                                           SETLOC   LOADDAP1
001401: 01,2000                                           BANK
001402:
001403: 01,2214                                           COUNT*   $$/R03
001404:
001405: 01,2214           35006        STIKLOAD           CAF      EBANK6
001406: 01,2215           54003                           TS       EBANK
001407: 01,2216  E6,1444                                  EBANK=   STIKSENS
001408: 01,2216           34736                           CA       RHCSCALE                              #  SET STICK SENSITIVITY TO CORRESPOND TO A
001409: 01,2217           70111                           MASK     DAPBOOLS                              #  MAXIMUM COMMANDED RATE (AT 42 COUNTS) OF
001410: 01,2220           10000                           CCS      A                                     #  20 D/S(NORMAL) OR 4 D/S(FINE), SCALED
001411: 01,2221           32343                           CA       NORMAL                                #  AT 45 D/S.
001412: 01,2222           62344                           AD       FINE
001413: 01,2223           55444                           TS       STIKSENS
001414: 01,2224           32346                           CA       -0.6D/S
001415: 01,2225           55476                           TS       -RATEDB                               #  LM-ONLY BREAKOUT LEVEL IS .6 D/S.
001416: 01,2226           34730                           CA       CSMDOCKD                              #  IF CSM-DOCKED, DIVIDE STICK SENSITIVITY
001417: 01,2227           70111                           MASK     DAPBOOLS                              #  BY 10. NORMAL SCALING IS THEN 2 D/S AND
001418: 01,2230           00006                           EXTEND                                         #  FINE SCALING IS 0.4 D/S
001419: 01,2231           12240                           BZF      +7                                    #  BRANCH IF CSM IS NOT DOCKED.
001420: 01,2232           31444                           CA       STIKSENS
001421: 01,2233           00006                           EXTEND
001422: 01,2234           72345                           MP       1/10
001423: 01,2235           55444                           TS       STIKSENS
001424: 01,2236           32347                           CA       -0.3D/S                               #  CSM-DOCKED BREAKOUT LEVEL IS .3 D/S.
001425: 01,2237           55476                           TS       -RATEDB


001427: 01,2240           00003                           RELINT                                         #  PROCEED TO NOUN 47, MASS LOAD,
001428:
001429: 01,2241           32341        DAPDATA2           CAF      V0647
001430: 01,2242           04607                           TC       BANKCALL
001431: 01,2243           20345                           CADR     GOXDSPFR
001432: 01,2244           12252                           TCF      ENDR03                                #  V34E  TERMINATE. FIRST SET DB, DO 1/ACCS
001433: 01,2245           12256                           TCF      DAPDAT2                               #  V33E  PROCEED
001434: 01,2246           12241                           TCF      DAPDATA2                              #        LOAD NEW DATA AND RECYCLE
001435: 01,2247           34742                           CAF      BIT3                                  #  BLANKS R3
001436: 01,2250           05466                           TC       BLANKET                               #             LM
001437: 01,2251           15146                           TCF      ENDOFJOB
001438: 01,2252           00004        ENDR03             INHINT
001439: 01,2253           04665                           TC       IBNKCALL
001440: 01,2254           40115                           CADR     RESTORDB
001441: 01,2255           15474                           TCF      ENDEXT                                #  DOES RELINT
001442:
001443: 01,2256           40106        DAPDAT2            CS       FLGWRD10                              #  DETERMINE STAGE FROM APSFLAG
001444: 01,2257           74730                           MASK     APSFLBIT
001445: 01,2260           10000                           CCS      A
001446: 01,2261           32000                           CA       MINLMD
001447: 01,2262           62001                           AD       MINMINLM
001448: 01,2263           61326                           AD       LEMMASS                               #  LEMMASS MUST BE GREATER THAN EMPTY LEM
001449: 01,2264           00006                           EXTEND
001450: 01,2265           62241                           BZMF     DAPDATA2                              #  ASK FOR NEW MASSES
001451: 01,2266           30111                           CAE      DAPBOOLS
001452: 01,2267           74730                           MASK     CSMDOCKD
001453: 01,2270           00006                           EXTEND
001454: 01,2271           12277                           BZF      LEMALONE                              #  SKIP TEST ON CSMMASS IF NOT DOCKED.
001455: 01,2272           44732                           CS       MINCSM                                #  TEST CSM MASS
001456: 01,2273           61327                           AD       CSMMASS                               #  CSMMASS MUST BE GREATER THAN EMPTY CSM
001457: 01,2274           00006                           EXTEND
001458: 01,2275           62241                           BZMF     DAPDATA2                              #  ASK FOR NEW MASSES
001459: 01,2276           31327                           CAE      CSMMASS                               #  DOCKED:  MASS = CSMMASS + LEMMASS
001460: 01,2277           61326        LEMALONE           AD       LEMMASS                               #  LEM ALONE:  MASS = LEMMASS
001461: 01,2300           22007                           ZL
001462: 01,2301           53244                           DXCH     MASS
001463: 01,2302           00004                           INHINT
001464: 01,2303           04665                           TC       IBNKCALL                              #  SET DEADBANK AND COMPUTE MOMENTS OF
001465: 01,2304           40115                           CADR     RESTORDB                              #    INERTIA.
001466: 01,2305           00003                           RELINT                                         #  PROCEED TO NOUN 48 (OR END).
001467:
001468: 01,2306           40106        DAPDATA3           CS       FLGWRD10
001469: 01,2307           74730                           MASK     APSFLBIT
001470: 01,2310           00006                           EXTEND                                         #  END ROUTINE IF LEM HAS STAGED,
001471: 01,2311           15474                           BZF      ENDEXT
001472: 01,2312           32342                           CAF      V06N48                                #  DISPLAY TRIM ANGLES AND REQUEST RESPONSE
001473: 01,2313           04607                           TC       BANKCALL
001474: 01,2314           20345                           CADR     GOXDSPFR
001475: 01,2315           05474                           TC       ENDEXT
001476: 01,2316           12323                           TCF      DPDAT3                                #  V33E GO DO TRIM (WAITLIST TO TRIMGIMB)
001477:


001479: 01,2317           12312                           TCF      -5                                    #       LOAD NEW DATA AND RECYCLE
001480: 01,2320           34742                           CAF      BIT3
001481: 01,2321           05466                           TC       BLANKET                               #  BLANK R3
001482: 01,2322           15146                           TCF      ENDOFJOB
001483: 01,2323           34744        DPDAT3             CAF      BIT1
001484: 01,2324           05205                           TC       WAITLIST
001485: 01,2325  E6,1401                                  EBANK=   ROLLTIME
001486: 01,2325           03221 56066                     2CADR    TRIMGIMB
001487:
001488: 01,2327           15146                           TCF      ENDOFJOB                              #  DOES A RELINT
001489: 01,2330           32342        TRIMDONE           CAF      V50N48
001490: 01,2331           04607                           TC       BANKCALL                              #  TRIM IS FINISHED; PLEASE TERMINATE R03
001491: 01,2332           20353                           CADR     GOMARK3R   -1
001492: 01,2333           05474                           TC       ENDEXT                                #  V34E TERMINATE
001493: 01,2334           05474                           TC       ENDEXT
001494: 01,2335           05474                           TC       ENDEXT
001495: 01,2336           36007                           CAF      OCT24                                 #  BIT5 TO CHANGE TO PERFORM, 3 TO BLANK R3
001496: 01,2337           05466                           TC       BLANKET
001497: 01,2340           15146                           TCF      ENDOFJOB
001498:
001499: 01,2341           01457        V0647              VN       0647
001500: 01,2342           01460        V06N48             VN       0648
001501:
001502: 01,2343  01,2342               V50N48             =        V06N48
001503:
001504: 01,2343           25101        NORMAL             DEC      .660214
001505:                                                                                                  #  NORMAL SCALING IS 20 D/S
001506: 01,2344           05220        FINE               DEC      .165054                               #  FINE STICK SCALING (4 D/S).
001507: 01,2345           03146        1/10               DEC      .1                                    #  FACTOR FOR CSM-DOCKED SCALING
001508: 01,2346           77445        -0.6D/S            DEC      -218       B-14
001509: 01,2347           77622        -0.3D/S            DEC      -109       B-14
001510:


001512:                                                                                                  #  VERB 66.  VEHICLES ARE ATTACHED.  MOVE THIS VEHICLE STATE VECTOR TO
001513:                                                                                                  #            OTHER VEHICLE STATE VECTOR.
001514:
001515:                                                                                                  #      USE SUBROUTINE GENTRAN.
001516:
001517: 07,2607                                           BANK     7
001518: 43,2000                                           SETLOC   EXTVERBS
001519: 43,2000                                           BANK
001520:
001521: 43,3141                                           COUNT*   $$/EXTVB
001522:
001523: 43,3141  E3,1626                                  EBANK=   RRECTHIS
001524:
001525: 43,3141           40104        ATTACHED           CS       FLAGWRD8
001526: 43,3142           74735                           MASK     SURFFBIT
001527: 43,3143           00006                           EXTEND
001528: 43,3144           12116                           BZF      ALM/END                               #  TURN ON OE AND EXIT IF SURFFLAG SET.
001529: 43,3145           34730                           CAF      PRIO10
001530: 43,3146           05076                           TC       FINDVAC
001531: 43,3147  E3,1626                                  EBANK=   RRECTHIS
001532:
001533: 43,3147           03152 66103                     2CADR    ATTACHIT
001534:
001535: 43,3151           05146                           TC       ENDOFJOB
001536:
001537: 43,3152           06060        ATTACHIT           TC       INTPRET
001538: 43,3153           77624                           CALL
001539: 43,3154           27447                                    INTSTALL
001540: 43,3155           43014                           SET      BON
001541: 43,3156           04063                                    MOONOTH
001542: 43,3157           04304                                    MOONTHIS
001543: 43,3160           67163                                    +3
001544: 43,3161           77614                           CLEAR
001545: 43,3162           04263                                    MOONOTH
001546: 43,3163           77776                           EXIT
001547: 43,3164           33207                           CAF      OCT51
001548: 43,3165           05546                           TC       GENTRAN
001549: 43,3166           01626                           ADRES    RRECTHIS                              #  OUR STATE VECTOR INTO OTHER VIA GENTRAN
001550: 43,3167           01554                           ADRES    RRECTOTH
001551:
001552: 43,3170           00003                           RELINT
001553: 43,3171           06060                           TC       INTPRET
001554: 43,3172           77624                           CALL                                           #  UPDATE R-OTHER, V-OTHER
001555: 43,3173           27016                                    PTOALEM
001556: 43,3174           45154                           LXA,2    CALL
001557: 43,3175           02030                                    PBODY
001558: 43,3176           26114                                    SVDWN1
001559: 43,3177           77776                           EXIT
001560:
001561: 43,3200           33210                           CAF      TCPINAD


001563: 43,3201           50120                           INDEX    FIXLOC
001564: 43,3202           54052                           TS       QPRET
001565: 43,3203           04626                           TC       POSTJUMP
001566: 43,3204           27460                           CADR     INTWAKE                               #  FREE INTEGRATION AND EXIT.
001567:
001568: 43,3205           77634        TCPIN              RTB
001569: 43,3206           21062                                    PINBRNCH
001570:
001571: 43,3207           00051        OCT51              OCT      51
001572: 43,3210           67205        TCPINAD            CADR     TCPIN
001573:
001574:                                                                                                  #  VERB 96  SET QUITFLAG TO STOP INTEGRATION.
001575:
001576:                                                                                                  #           GO TO V37 WITH ZERO TO CAUSE POO.
001577:                                                                                                  #           STATEINT WILL CHECK QUITFLAG AND SKIP 1ST PASS,
001578:                                                                                                  #                  THUS ALLOWING A 10 MINUTE PERIOD WITHOUT INTEGRATION.
001579:
001580: 43,3211           05506        VERB96             TC       UPFLAG                                #  QUITFLAG WILL CAUSE INTEGRATION TO EXIT
001581: 43,3212           00221                           ADRES    QUITFLAG                              #     AT NEXT TIMESTEP
001582:
001583: 43,3213           34746                           CAF      ZERO
001584: 43,3214           04626                           TC       POSTJUMP
001585: 43,3215           10054                           CADR     V37                                   #  GO TO POO
001586:
001587:
001588:                                                                                                  #  VERB 67 :   DISPLAY OF W MATRIX
001589:
001590: 43,3216           02076        V67                TC       TESTXACT
001591: 43,3217           35010                           CAF      PRIO5
001592: 43,3220           05076                           TC       FINDVAC
001593: 43,3221  E4,1571                                  EBANK=   WWPOS
001594: 43,3221           02007 62064                     2CADR    V67CALL
001595:
001596: 43,3223           05146                           TC       ENDOFJOB
001597:
001598:                                                                                                  #  VERB 65         DISABLE U,V JETS DURING DPS BURNS
001599:
001600: 43,3224           05506        SNUFFOUT           TC       UPFLAG
001601: 43,3225           00115                           ADRES    SNUFFER
001602: 43,3226           02117                           TC       GOPIN
001603:
001604:                                                                                                  #  VERB 75         ENABLE U,V JETS DURING DPS BURNS
001605:
001606: 43,3227           05520        OUTSNUFF           TC       DOWNFLAG
001607: 43,3230           00115                           ADRES    SNUFFER
001608: 43,3231           02117                           TC       GOPIN
001609:                                                                                                  #  VERB 85         DISPLAY RR LOS AZIMUTH AND ELEVATION.
001610:
001611:                                                                                                  #           AZIMUTH IS THE ANGLE BETWEEN THE LOS AND THE X-Z NB PLANE, 0 - 90 DEG IN THE +Y HEMISPHERE,
001612:                                                                                                  #  360 - 270 DEG IN THE -Y HEMISPHERE.
001613:


001615:                                                                                                  #           ELEVATION IS THE ANGLE BETWEEN +ZNB AND THE PROJECTION OF THE LOS INTO THE X-Z PLANE, 0 - 360 ABOUT +Y.
001616:
001617: 43,3232  E4,1571                                  EBANK=   RR-AZ
001618: 43,3232           02076        VERB85             TC       TESTXACT
001619: 43,3233           04626                           TC       POSTJUMP
001620: 43,3234           62000                           CADR     DSPRRLOS
001621:
001622: 41,2000                                           SETLOC   PINBALL2
001623: 41,2000                                           BANK
001624:
001625: 41,2000                                           COUNT*   $$/EXTVB
001626:
001627: 41,2000           35010        DSPRRLOS           CAF      PRIO5
001628: 41,2001           05076                           TC       FINDVAC
001629: 41,2002  E4,1571                                  EBANK=   RR-AZ
001630: 41,2002           02000 60104                     2CADR    RRLOSDSP
001631:
001632: 41,2004           34731                           CAF      PRIO4
001633: 41,2005           05137                           TC       PRIOCHNG
001634: 41,2006           32017                           CAF      V16N56
001635: 41,2007           04607                           TC       BANKCALL
001636: 41,2010           20345                           CADR     GOMARKFR
001637: 41,2011           05565                           TC       B5OFF
001638: 41,2012           05565                           TC       B5OFF
001639: 41,2013           05565                           TC       B5OFF
001640:
001641: 41,2014           34742                           CAF      BIT3
001642: 41,2015           05466                           TC       BLANKET
001643: 41,2016           05146                           TC       ENDOFJOB
001644:
001645: 41,2017           04070        V16N56             VN       1656
001646:
001647:
001648: 40,2000                                           SETLOC   PINBALL1
001649: 40,2000                                           BANK
001650:
001651: 40,2000           00006        RRLOSDSP           EXTEND
001652: 40,2001           30036                           DCA      CDUT
001653: 40,2002           52155                           DXCH     MPAC
001654: 40,2003           06060                           TC       INTPRET
001655: 40,2004           77624                           CALL
001656: 40,2005           46065                                    RRNBMPAC                              #  GET RR LOS IN BODY AXIS.
001657: 40,2006           00001                           STORE    0D                                    #  UNIT LOS
001658: 40,2007           14007                           STODL    6D
001659: 40,2010           06505                                    HI6ZEROS
001660: 40,2011           24011                           STOVL    8D
001661: 40,2012           00007                                    6D
001662: 40,2013           77656                           UNIT
001663: 40,2014           00007                           STORE    6D                                    #  UNIT OF LOS PROJ IN X-Z PLANE
001664: 40,2015           77641                           DOT


001666: 40,2016           06477                                    UNITZ
001667: 40,2017           24021                           STOVL    COSTH                                 #  16D
001668: 40,2020           06503                                    UNITX
001669: 40,2021           77641                           DOT
001670: 40,2022           00007                                    6D
001671: 40,2023           34023                           STCALL   SINTH                                 #  18D
001672: 40,2024           47303                                    ARCTRIG
001673: 40,2025           43244                           BPL      DAD                                   #  INSURE DISPLAY OF 0 - 360 DEG.
001674: 40,2026           60030                                    +2
001675: 40,2027           06513                                    DPPOSMAX                              #  INTRODUCES AN ERROR OF B-28 REVS.
001676: 40,2030           26174                           STOVL    RR-ELEV
001677: 40,2031           00001                                    0D
001678: 40,2032           77641                           DOT
001679: 40,2033           06501                                    UNITY
001680: 40,2034           24023                           STOVL    SINTH
001681: 40,2035           00001                                    0D
001682: 40,2036           77641                           DOT
001683: 40,2037           00007                                    6D
001684: 40,2040           34021                           STCALL   COSTH
001685: 40,2041           47303                                    ARCTRIG
001686: 40,2042           43244                           BPL      DAD                                   #  INSURE DISPLAY OF 0 - 360 DEG.
001687: 40,2043           60045                                    +2
001688: 40,2044           06513                                    DPPOSMAX                              #  INTRODUCES AN ERROR OF B-28 REVS.
001689: 40,2045           02172                           STORE    RR-AZ
001690: 40,2046           77776                           EXIT
001691: 40,2047           34770                           CA       1SEC
001692: 40,2050           04607                           TC       BANKCALL
001693: 40,2051           01736                           CADR     DELAYJOB
001694:
001695: 40,2052           34740                           CA       BIT5
001696: 40,2053           71043                           MASK     EXTVBACT
001697: 40,2054           10000                           CCS      A
001698: 40,2055           02000                           TC       RRLOSDSP
001699: 40,2056           05474                           TC       ENDEXT

End of include-file EXTENDED_VERBS.agc.  Parent file is MAIN.agc


