
Source Code


000002:                                                                                                  ## Copyright:   Public domain.
000003:                                                                                                  ## Filename:    EXTENDED_VERBS.agc
000004:                                                                                                  ## Purpose:     A section of Luminary revision 210.
000005:                                                                                                  ##              It is part of the source code for the Lunar Module's (LM)
000006:                                                                                                  ##              Apollo Guidance Computer (AGC) for Apollo 15-17.
000007:                                                                                                  ##              This file is intended to be a faithful transcription, except
000008:                                                                                                  ##              that the code format has been changed to conform to the
000009:                                                                                                  ##              requirements of the yaYUL assembler rather than the
000010:                                                                                                  ##              original YUL assembler.
000011:                                                                                                  ## Reference:   pp. 275-312
000012:                                                                                                  ## Assembler:   yaYUL
000013:                                                                                                  ## Contact:     Ron Burkey <info@sandroid.org>.
000014:                                                                                                  ## Website:     www.ibiblio.org/apollo/index.html
000015:                                                                                                  ## Mod history: 2016-11-17 JL   Created from Luminary131 version.
000016:                                                                                                  ##              2016-11-20 MAS  Updated for Luminary 210.
000017:                                                                                                  ##              2016-11-27 HG   Fix operand 2SECDELV  -> 2SECDELY
000018:                                                                                                  ##                              replace tabs with spaces
000019:                                                                                                  ##              2016-12-07 HG   Fix P00 -> POO
000020:                                                                                                  ##                              Change POO -> P00 in some comments
000021:                                                                                                  ##              2016-12-11 HG   Fix operator CS FLAGWRD5 -> CA FLAGWRD5
000022:                                                                                                  ##                                  operand  AGSBUFF -> AGSK
000023:                                                                                                  ##              2016-12-12 HG   comment out previous [WORKAROUND] with SBANK=
000024:                                                                                                  ##              2016-12-23 RSB  Proofed comment text with octopus/ProoferComments
000025:                                                                                                  ##                              and fixed all errors found.  Restored an SBANK=
000026:                                                                                                  ##                              that we had apparently mistakenly commented out,
000027:                                                                                                  ##                              but wasn't noticed because it had no effect on
000028:                                                                                                  ##                              the generated octals.
000029:                                                                                                  ##              2017-03-15 RSB  Comment-text fixes identified in 5-way
000030:                                                                                                  ##                              side-by-side diff of Luminary 69/99/116/131/210.
000031:                                                                                                  ##              2017-03-17 RSB  Comment-text fixes identified in diff'ing
000032:                                                                                                  ##                              Luminary 99 vs Comanche 55.
000033:


000035: 07,2607                                           BANK     7
000036: 43,2000                                           SETLOC   EXTVERBS
000037: 43,2000                                           BANK
000038:
000039: 43,2000  E5,1737                                  EBANK=   OGC
000040:
000041: 43,2000                                           COUNT*   $$/EXTVB
000042:                                                                                                  #  FAN-OUT
000043:
000044: 43,2000           50154        GOEXTVB            INDEX    MPAC                                  #  VERB-40 IS IN MPAC
000045: 43,2001           02002                           TC       LST2FAN                               #  FAN AS BEFORE.
000046:
000047: 43,2002           02126        LST2FAN            TC       VBZERO                                #  VB40 ZERO (USED WITH NOUN 20 OR 72 ONLY)
000048: 43,2003           02177                           TC       VBCOARK                               #  VB41 COARSE ALIGN (USED WITH NOUN 20 OR
000049:                                                                                                  #                                  72 ONLY)
000050: 43,2004           02344                           TC       IMUFINEK                              #  VB42 FINE ALIGN IMU
000051: 43,2005           02702                           TC       IMUATTCK                              #  VB43  LOAD IMU ATTITUDE ERROR METERS.
000052: 43,2006           02310                           TC       RRDESEND                              #  VB44 TERMINATE CONTINUOUS DESIGNATE
000053: 43,2007           02116                           TC       ALM/END                               #  VB45 SPARE
000054: 43,2010           02116                           TC       ALM/END                               #  VB46 SPARE
000055: 43,2011           02403                           TC       V47TXACT                              #  VB47 AGS INITIALIZATION
000056: 43,2012           03134                           TC       DAPDISP                               #  VB48  LOAD A/P DATA
000057: 43,2013           13011                           TCF      CREWMANU                              #  VB49 START AUTOMATIC ATTITUDE MANEUVER
000058: 43,2014           02375                           TC       GOLOADLV                              #  VB50 PLEASE PERFORM
000059: 43,2015           02116                           TC       ALM/END                               #  VB51 SPARE
000060: 43,2016           02375                           TC       GOLOADLV                              #  VB52 PLEASE MARK X - RETICLE.
000061: 43,2017           02375                           TC       GOLOADLV                              #  VB53 PLEASE MARK Y - RETICLE.
000062: 43,2020           02375                           TC       GOLOADLV                              #  VB54 PLEASE MARK X OR Y - RETICLE
000063: 43,2021           02415                           TC       ALINTIME                              #  VB55 ALIGN TIME
000064: 43,2022           03020                           TC       TRMTRACK                              #  VB56 TERMINATE TRACKING - P20 + P25
000065: 43,2023           02333                           TC       LRON                                  #  VB57 PERMIT  LANDING RADAR UPDATES
000066: 43,2024           02336                           TC       LROFF                                 #  VB58 INHIBIT LANDING RADAR UPDATES
000067: 43,2025           02147                           TC       LRPOS2K                               #  VB59 COMMAND LR TO POSITION 2.
000068: 43,2026           02174                           TC       RATEDISP                              #  VB60 DISPLAY DAP ESTIMATED RATES
000069: 43,2027           02164                           TC       DAPATTER                              #  VB61 DISPLAY DAP ATTITUDE ERROR
000070: 43,2030           02167                           TC       TOTATTER                              #  VB62 DISPLAY TOTAL ATTITUDE ERROR
000071: 43,2031           02430                           TC       R04                                   #  VB63 SAMPLE RADAR ONCE PER SECOND
000072: 43,2032           02674                           TC       VB64                                  #  VB64 CALCULATE,DISPLAY S-BAND ANT ANGLES
000073: 43,2033           03224                           TC       SNUFFOUT                              #  VB65 DISABLE U,V JETS DURING DPS BURNS.
000074: 43,2034           03141                           TC       ATTACHED                              #  VB66 ATTACHED   MOVE THIS TO OTHER STATE
000075: 43,2035           03216                           TC       V67                                   #  VB67 W MATRIX MONITOR
000076: 43,2036           02341                           TC       TEROFF                                #  VB68 TAKE OUT TERRAIN MODEL IN DESCENT
000077: 43,2037           02037        VERB69             TC       VERB69                                #  VB69 FORCE A HARDWARE RESTART
000078: 43,2040           03727                           TC       V70UPDAT                              #  VB70 UPDATE LIFTOFF TIME.
000079: 43,2041           03731                           TC       V71UPDAT                              #  VB71 UNIVERSAL UPDATE - BLOCK ADDRESS.
000080: 43,2042           03733                           TC       V72UPDAT                              #  VB72 UNIVERSAL UPDATE - SINGLE ADDRESS.
000081: 43,2043           03735                           TC       V73UPDAT                              #  VB73 UPDATE AGC TIME (OCTAL).
000082: 43,2044           03040                           TC       DNEDUMP                               #  VB74 INITIALIZE DOWN-TELEMETRY PROGRAM
000083:                                                                                                  #         FOR ERASABLE DUMP.
000084: 43,2045           03227                           TC       OUTSNUFF                              #  VB75 ENABLE U,V JETS DURING DPS BURNS.


000086: 43,2046           03000                           TC       MINIMP                                #  VB76 MINIMUM IMPULSE MODE
000087: 43,2047           03003                           TC       NOMINIMP                              #  VB77 RATE COMMAND MODE
000088: 43,2050           02420                           TC       R77                                   #  VB78 START LR SPURIOUS RETURN TEST
000089: 43,2051           02630                           TC       R77END                                #  VB79 TERMINATE LR SPURIOUS RETURN TEST
000090: 43,2052           03044                           TC       LEMVEC                                #  VB80 UPDATE LEM STATE VECTOR
000091: 43,2053           03047                           TC       CSMVEC                                #  VB81 UPDATE CSM STATE VECTOR
000092: 43,2054           02741                           TC       V82PERF                               #  VB82 REQUEST ORBIT PARAM DISPLAY (R30)
000093: 43,2055           02751                           TC       V83PERF                               #  VB83 REQUEST REND PARAM DISPLAY (R31)
000094: 43,2056           02116                           TC       ALM/END                               #  VB84 SPARE
000095: 43,2057           03232                           TC       VERB85                                #  VB85 DISPLAY RR LOS AZ AND ELEV
000096: 43,2060           02116                           TC       ALM/END                               #  VB86 SPARE
000097: 43,2061           02116                           TC       ALM/END                               #  VB87 SPARE
000098: 43,2062           02116                           TC       ALM/END                               #  VB88 SPARE
000099: 43,2063           02757                           TC       V89PERF                               #  VB89 ALIGN XORZ LEM AXIS ALONG LOS (R63)
000100: 43,2064           02766                           TC       V90PERF                               #  VB90 OUT OF PLANE RENDEZVOUS DISPLAY
000101: 43,2065           03077                           TC       GOSHOSUM                              #  VB91 DISPLAY BANK SUM.
000102: 43,2066           03057                           TC       SYSTEST                               #  VB92 OPERATE IMU PERFORMANCE TEST.
000103: 43,2067           03072                           TC       WMATRXNG                              #  VB93 CLEAR RENDWFLG
000104: 43,2070           02116                           TC       ALM/END                               #  VB94 SPARE
000105: 43,2071           03054                           TC       UPDATOFF                              #  VB95 NO STATE VECTOR UPDATE ALLOWED
000106: 43,2072           03211                           TC       VERB96                                #  VB96 INTERRUPT INTEGRATION AND GO TO POO
000107: 43,2073           02375                           TC       GOLOADLV                              #  VB97 PLEASE VERIFY ENGINE FAILURE
000108: 43,2074           02116                           TC       ALM/END                               #  VB98 SPARE
000109: 43,2075           02375                           TC       GOLOADLV                              #  VB99 PLEASE ENABLE ENGINE
000110:
000111:                                                                                                  #  END OF EXTENDED VERB FAN
000112:
000113:
000114: 43,2076           11043        TESTXACT           CCS      EXTVBACT                              #  ARE EXTENDED VERBS BUSY
000115: 43,2077           02116                           TC       ALM/END                               #  YES, TURN ON OPERATOR LIGHT
000116: 43,2100           30100                           CA       FLAGWRD4                              #  ARE PRIORITY DISPLAYS USING DSKY
000117: 43,2101           72125                           MASK     OC24100
000118: 43,2102           10000                           CCS      A
000119: 43,2103           02116                           TC       ALM/END                               #  YES
000120: 43,2104           34353                           CAF      OCT25                                 #  SET BITS 1, 3, AND 5
000121: 43,2105           55043        SETXTACT           TS       EXTVBACT                              #  NO.  SETFLAG TO SHOW EXT VERB DISPLAY
000122:                                                                                                  #  SYSTEM BUSY
000123:
000124: 43,2106           30002                           CA       Q
000125: 43,2107           54155                           TS       MPAC       +1
000126:
000127: 43,2110           44743                           CS       TWO                                   #  BLANK EVERYTHING EXCEPT MM AND VERB
000128: 43,2111           04145                           TC       NVSUB
000129: 43,2112           02113                           TC       +1
000130: 43,2113           10067                           CCS      NEWJOB
000131: 43,2114           05113                           TC       CHANG1
000132:
000133: 43,2115           00155                           TC       MPAC       +1
000134:
000135: 43,2116     5474               TERMEXTV           EQUALS   ENDEXT


000137: 43,2116     5474               ENDEXTVB           EQUALS   ENDEXT
000138:
000139: 43,2116           04355        ALM/END            TC       FALTON                                #  TURN ON OPERATOR ERROR LIGHT
000140: 43,2117           04626        GOPIN              TC       POSTJUMP
000141: 43,2120           21062                           CADR     PINBRNCH
000142:
000143: 43,2121           31010        CHKPOOH            CA       MODREG                                #  CHECK FOR POO OR POO-.
000144: 43,2122           00006                           EXTEND
000145: 43,2123           16763                           BZF      TCQ
000146: 43,2124           02116                           TC       ALM/END
000147:
000148: 43,2125           24100        OC24100            OCT      24100
000149:


000151:                                                                                                  #           VBZERO       VERB 40            DESCRIPTION
000152:
000153:                                                                                                  #               1. REQUIRE NOUN 20 (ICDU ANGLES) OR NOUN 72 (RCDU ANGLES).
000154:                                                                                                  #              2. FOR N20, CHECK IMUCADR IN AN EFFORT TO AVOID A 1210 RESTART.
000155:                                                                                                  #                 FOR N72, CHECK IF EITHER RADAR IS IN USE.
000156:                                                                                                  #               3. EXECUTE THE CDU ZERO.
000157:                                                                                                  #               4. STALL UNTILL THE ZERO IS DONE.
000158:                                                                                                  #               5. DON'T DIFFERENIATE BETWEEN A BAD OR GOOD RETURN.
000159:                                                                                                  #               6. EXIT, RE-ESTABLISHING THE INTERRUPTED DISPLAY (IF ANY).
000160:
000161: 43,2126           02202        VBZERO             TC       OP/INERT
000162: 43,2127           02131                           TC       IMUZEROK                              #  RETURN HERE IF NOUN = ICDU(20)
000163: 43,2130           02140                           TC       RRZEROK                               #  RETURN HERE IF NOUN = RCDU(72)
000164: 43,2131           02411        IMUZEROK           TC       CKMODCAD
000165: 43,2132           04607                           TC       BANKCALL                              #  KEYBOARD REQ FOR ISS CDUZERO
000166: 43,2133           16701                           CADR     IMUZERO
000167:
000168: 43,2134           04607                           TC       BANKCALL                              #  STALL
000169: 43,2135           17735                           CADR     IMUSTALL
000170: 43,2136           02137                           TC       +1
000171:
000172: 43,2137           02117                           TC       GOPIN                                 #  IMUZERO
000173:
000174: 43,2140           02653        RRZEROK            TC       RDRUSECK
000175: 43,2141           04607                           TC       BANKCALL
000176: 43,2142           52334                           CADR     RRZERO
000177:
000178: 43,2143           04607        RWAITK             TC       BANKCALL
000179: 43,2144           17733                           CADR     RADSTALL
000180: 43,2145           12146                           TCF      +1
000181: 43,2146           02117                           TC       GOPIN                                 #  RRZERO
000182:
000183:                                                                                                  #           LRPOS2K          VERB 59            DESCRIPTION
000184:                                                                                                  #               COMMAND LANDING RADAR TO POSITION 2
000185:                                                                                                  #              1. EXIT WITH OP ERROR IF SOMEONE IS USING EITHER RADAR.
000186:                                                                                                  #               2. ALARM WITH CODE 523 IF POS 2 IS NOT INDICATED WITHIN
000187:                                                                                                  #                  THE PRESCRIBED TIME.
000188:                                                                                                  #               3. RE-ESTABLISH THE DISPLAYS.
000189:
000190: 43,2147           30103        LRPOS2K            CA       FLAGWRD7
000191: 43,2150           74740                           MASK     AVEGFBIT
000192: 43,2151           00006                           EXTEND
000193: 43,2152           12161                           BZF      LRPOS2K1                              #  AVERAGE G NOT ON
000194: 43,2153           40107                           CS       FLGWRD11
000195: 43,2154           74726                           MASK     LRBYBIT
000196: 43,2155           00006                           EXTEND
000197: 43,2156           12116                           BZF      ALM/END                               #  IF AVE G ON AND NOT R12- OPERATOR ERROR
000198: 43,2157           04626                           TC       POSTJUMP
000199: 43,2160           53577                           CADR     V59GP63
000200: 43,2161           02653        LRPOS2K1           TC       RDRUSECK


000202: 43,2162           04607                           TC       BANKCALL
000203: 43,2163           53566                           CADR     LRP2COMM                              #  COMMAND LR TO POS2
000204:                                                                                                  #  V61      VERB 61, DISPLAY DAP ATTITUDE ERRORS ON FDAI ATTITUDE ERROR NEEDLES.
000205:
000206: 43,2164           05520        DAPATTER           TC       DOWNFLAG
000207: 43,2165           00013                           ADRES    NEEDLFLG
000208: 43,2166           12171                           TCF      TOTATTER   +2
000209:
000210:                                                                                                  #  V62      VERB 62, DISPLAY TOTAL ATTITUDE ERRORS ON FDAI ATTITUDE ERROR NEEDLES.
000211:
000212: 43,2167           05506        TOTATTER           TC       UPFLAG
000213: 43,2170           00013                           ADRES    NEEDLFLG
000214: 43,2171           05520                 +2        TC       DOWNFLAG
000215: 43,2172           00000                           ADRES    NEED2FLG
000216: 43,2173           02117                           TC       GOPIN
000217:
000218:                                                                                                  #  V60      VERB 60, DISPLAY DAP ESTIMATED RATES ON FDAI ATTITUDE ERROR NEEDLES.
000219:
000220: 43,2174           05506        RATEDISP           TC       UPFLAG
000221: 43,2175           00000                           ADRES    NEED2FLG
000222: 43,2176           02117                           TC       GOPIN
000223:
000224:
000225:


000227:                                                                                                  #           VBCOARK      VERB 41            DESCRIPTION
000228:                                                                                                  #               COARSE ALIGN IMU OR RADAR
000229:                                                                                                  #              1. REQUIRE NOUN 20 OR NOUN 72 OR TURN ON OPERATOR ERROR.
000230:                                                                                                  #               2. REQUIRE EXT VERB DISPLAY SYS AVAILABLE OR TURN ON OPERATOR ERROR LIGHT AND GO TO PINBRNCH.
000231:                                                                                                  #               CASE 1     NOUN 20     (ICDU ANGLES)
000232:                                                                                                  #               3. SET EXT VERB DISPLAY ACTIVE FLAG.
000233:                                                                                                  #               4. DISPLAY FLASHING V25,N22 (LOAD NEW ICDU ANGLES).
000234:                                                                                                  #                  RESPONSES
000235:                                                                                                  #                    A. TERMINATE
000236:                                                                                                  #                       1. RELEASE EXT VERB DISPLAY SYSTEM
000237:                                                                                                  #                    B. PROCEED
000238:                                                                                                  #                      1. COARSE ALIGN TO THE EXISTING THETAD'S (ICORK2).
000239:                                                                                                  #                    C. ENTER
000240:                                                                                                  #                      1. COARSE ALIGN TO THE LOADED THETAD'S (ICORK2).
000241:                                                                                                  #               ICORK2
000242:                                                                                                  #                  1. RE-DISPLAY VERB 41.
000243:                                                                                                  #                  2. EXECUTE IMUCOARS (IMU COARSE ALIGN).
000244:                                                                                                  #                  3. EXECUTE IMUSTALL (ALLOW TIME FOR DATA TRANSFER).
000245:                                                                                                  #                  4. RELEASE EXT VERB DISPLAY SYSTEM.
000246:                                                                                                  #               CASE 2     NOUN 72     (RCDU ANGLES)
000247:                                                                                                  #                 EXIT WITH OP ERROR IF SOMEONE IS USING EITHER RADAD.
000248:                                                                                                  #               5. DISPLAY FLASHING V24,N73 (LOAD NEW RR TRUNION ANGLE AND NEW SHAFT ANGLE).
000249:                                                                                                  #                  RESPONSES
000250:                                                                                                  #                  A. TERMINATE
000251:                                                                                                  #                     1. RELEASE EXT VERB DISPLAY SYS.
000252:                                                                                                  #                  B. PROCEED OR ENTER
000253:                                                                                                  #                     1. EXECUTE AURLOKON (ASK OPERATOR FOR LOCK-ON REQUIREMENTS).
000254:                                                                                                  #                     2. RE-DISPLAY VERB 41.
000255:                                                                                                  #                     3. SCHEDULE RRDESK2 WITH PRIORITY 20.
000256:                                                                                                  #                     4. RELEASE EXT VERB DISPLAY SYS.
000257:
000258:                                                                                                  #                  AURLOKON
000259:
000260:                                                                                                  #                 1. FLASH V04 N12 R1 = 00006 R2 = 00002
000261:                                                                                                  #                     RESPONSES
000262:                                                                                                  #                     A. TERMINATE
000263:                                                                                                  #                     B. PROCEED
000264:                                                                                                  #                       1. RESET LOCK-ON SWITCH
000265:                                                                                                  #                       2. SET CONTINUOUS DESIGNATE FLAG
000266:                                                                                                  #                       3. DISABLE R25
000267:                                                                                                  #                    C. V22 E 1 E, R1 = 00001, PROCEED
000268:                                                                                                  #                       1. SET LOCK-ON SWITCH
000269: 43,2177           02202        VBCOARK            TC       OP/INERT
000270: 43,2200           02213                           TC       IMUCOARK                              #  RETURN HERE IF NOUN = ICDU(20)
000271: 43,2201           02235                           TC       RRDESNBK                              #  RETURN HERE IF NOUN = RCDU(72)
000272:                                                                                                  #           RETURNS TO L+1 IF IMU OR L+2 IF RR.
000273:
000274: 43,2202           46007        OP/INERT           CS       OCT24
000275: 43,2203           61001                           AD       NOUNREG
000276: 43,2204           00006                           EXTEND


000278: 43,2205           16763                           BZF      TCQ                                   #  IF = 20.
000279:
000280: 43,2206           62212                           AD       RRIMUDIF                              #  -52
000281: 43,2207           00006                           EXTEND
000282: 43,2210           16760                           BZF      Q+1
000283:
000284: 43,2211           02116                           TC       ALM/END                               #  ILLEGAL.
000285:
000286: 43,2212           77713        RRIMUDIF           DEC      -52        B-14                       #  THE IMU
000287: 43,2213           02411        IMUCOARK           TC       CKMODCAD
000288: 43,2214           02076                           TC       TESTXACT                              #  COARSE ALIGN FROM KEYBOARD.
000289: 43,2215           32233                           CAF      VNLODCDU                              #  CALL FOR THETAD LOAD
000290: 43,2216           04607                           TC       BANKCALL
000291: 43,2217           20323                           CADR     GOXDSPF
000292: 43,2220           05474                           TC       TERMEXTV
000293: 43,2221           12222                           TCF      +1
000294:
000295: 43,2222           32234        ICORK2             CAF      IMUCOARV                              #  RE-DISPLAY COARSE ALIGN VERB.
000296: 43,2223           04607                           TC       BANKCALL
000297: 43,2224           20632                           CADR     EXDSPRET
000298:
000299: 43,2225           04607                           TC       BANKCALL                              #  CALL MODE SWITCHING PROG
000300: 43,2226           16765                           CADR     IMUCOARS
000301:
000302: 43,2227           04607                           TC       BANKCALL                              #  STALL
000303: 43,2230           17735                           CADR     IMUSTALL
000304: 43,2231           05474                           TC       ENDEXTVB
000305: 43,2232           05474                           TC       ENDEXTVB
000306:
000307: 43,2233           06226        VNLODCDU           VN       2522
000308: 43,2234           12200        IMUCOARV           VN       4100
000309:


000311:                                                                                                  #           DESIGNATE TO DESIRED GIMBAL ANGLES.
000312:
000313: 43,2235           02653        RRDESNBK           TC       RDRUSECK
000314: 43,2236           02076                           TC       TESTXACT
000315: 43,2237           30110        RRWAIT             CA       RADMODES                              #  IS A REMODE OR REPOSITION IN PROGRESS
000316: 43,2240           77731                           MASK     BIT14&11
000317: 43,2241     4727               REFTAG9            =        REMODBIT
000318: 43,2241     4732               REFTAG10           =        REPOSBIT
000319: 43,2241           00006                           EXTEND
000320: 43,2242           12246                           BZF      OKTOGO                                #  NO - CONTINUE
000321:
000322: 43,2243           04607                           TC       BANKCALL                              #  YES - WAIT UNTIL FINISHED TO PREVENT
000323: 43,2244           01735                           CADR     2SECDELY                              #  CONFLICTS IN RR DESIGNATE
000324: 43,2245           12237                           TCF      RRWAIT
000325:
000326: 43,2246           06027        OKTOGO             TC       CLRADMOD
000327: 43,2247           32266                           CAF      VNLDRCDU                              #  ASK FOR GIMBAL ANGLES.
000328: 43,2250           04607                           TC       BANKCALL
000329: 43,2251           20323                           CADR     GOXDSPF
000330: 43,2252           05474                           TC       TERMEXTV
000331: 43,2253           12247                           TCF      -4                                    #  V33
000332:
000333: 43,2254           04607                           TC       BANKCALL                              #  ASK OP FOR LOCK ON REQUIREMENTS.
000334: 43,2255           46000                           CADR     AURLOKON
000335:
000336: 43,2256           32234                           CAF      OPTCOARV                              #  RE-DISPLAY OUR OWN VERB
000337: 43,2257           04607                           TC       BANKCALL
000338: 43,2260           20632                           CADR     EXDSPRET
000339:
000340: 43,2261           34727                           CAF      PRIO20
000341: 43,2262           05076                           TC       FINDVAC
000342: 43,2263  E7,1456                                  EBANK=   LOSCOUNT
000343: 43,2263           02267 66107                     2CADR    RRDESK2
000344:
000345:
000346: 43,2265           15474                           TCF      TERMEXTV                              #  FREES DISPLAY.
000347:
000348: 43,2266           06111        VNLDRCDU           VN       2473
000349: 43,2267  43,2234               OPTCOARV           EQUALS   IMUCOARV                              #  DIFFERENT NOUNS.
000350:
000351: 43,2267           04607        RRDESK2            TC       BANKCALL
000352: 43,2270           52466                           CADR     RRDESNB
000353:
000354: 43,2271           02272                           TC       +1                                    #  DUMMY NEEDED SINCE DESRETRN DOES INCR
000355: 43,2272           30167                           CA       PRIORITY
000356: 43,2273           74775                           MASK     LOW9
000357: 43,2274           10000                           CCS      A
000358: 43,2275           50000                           INDEX    A
000359: 43,2276           54000                           TS       A                                     #  RELEASE THIS JOBS VAC AREA.
000360: 43,2277           40000                           COM                                            #  INSURE ENDOFJOB DOES A NOVAC END (BZMF).


000362: 43,2300           26167                           ADS      PRIORITY
000363: 43,2301           04607                           TC       BANKCALL                              #  WAIT FOR COMPLETION OF DESIGNATE
000364: 43,2302           17733                           CADR     RADSTALL
000365: 43,2303           02305                           TC       +2                                    #  BADEND-NO LOCKON OR OUT OF LIMITS
000366: 43,2304           05146                           TC       ENDOFJOB                              #  GOODEND-LOCKON ACHIEVED
000367: 43,2305           05571                           TC       ALARM
000368: 43,2306           00503                           OCT      503                                   #  TURN ON ALARM LIGHT -503 DESIGNATE FAIL
000369: 43,2307           05146                           TC       ENDOFJOB
000370:
000371:
000372: 43,2310           10110        RRDESEND           CCS      RADMODES                              #  TERMINATE CONTINUOUS DESIGNATE ONLY
000373: 43,2311           12117                           TCF      GOPIN
000374: 43,2312           12117                           TCF      GOPIN
000375: 43,2313           12314                           TCF      +1
000376: 43,2314           30110        REMODCHK           CA       RADMODES                              #  CHECK FOR REMODE OR REPOSITION
000377: 43,2315           77731                           MASK     BIT14&11
000378: 43,2316     4727               REFTAG1            =        REMODBIT
000379: 43,2316     4732               REFTAG2            =        REPOSBIT
000380: 43,2316           00006                           EXTEND
000381: 43,2317           12324                           BZF      NOREMODE                              #  NO
000382:
000383: 43,2320           34770                           CAF      1SEC                                  #  YES- WAIT 1 SECOND AND CHECK AGAIN
000384: 43,2321           04607                           TC       BANKCALL
000385: 43,2322           01736                           CADR     DELAYJOB
000386: 43,2323           02314                           TC       REMODCHK
000387: 43,2324           06027        NOREMODE           TC       CLRADMOD
000388: 43,2325           34770                           CAF      1SEC
000389: 43,2326           04607                           TC       BANKCALL
000390: 43,2327           01736                           CADR     DELAYJOB
000391: 43,2330           05520                           TC       DOWNFLAG                              #  ENABLE R25 GIMBAL MONITOR
000392: 43,2331           00126                           ADRES    NORRMON
000393: 43,2332           12117                           TCF      GOPIN
000394:
000395: 43,2333     7731               BIT14&11           =        PRIO22
000396:
000397:
000398:
000399: 23,2000                                           SETLOC   EXTVB1
000400: 23,2000                                           BANK
000401: 23,2000                                           COUNT*   $$/EXTVB
000402:
000403: 23,2000           04636        AURLOKON           TC       MAKECADR
000404: 23,2001           55112                           TS       DESRET
000405: 23,2002           34743                           CAF      TWO
000406: 23,2003           55051                           TS       OPTIONX    +1
000407: 23,2004           36263                           CAF      SIX                                   #  OPTION CODE FOR V04N12
000408: 23,2005           55050                           TS       OPTIONX
000409:
000410: 23,2006           32037                 -5        CAF      V04N1272
000411: 23,2007           04607                           TC       BANKCALL                              #       R2   00001  LOCK-ON


000413: 23,2010           20345                           CADR     GOMARKFR
000414: 23,2011           15474                           TCF      ENDEXT                                #  V34
000415: 23,2012           12017                           TCF      +5                                    #  V33
000416: 23,2013           12006                           TCF      -5                                    #  V32
000417: 23,2014           34742                           CAF      BIT3
000418: 23,2015           05466                           TC       BLANKET
000419: 23,2016           05146                           TC       ENDOFJOB
000420:
000421: 23,2017           31051                 +5        CA       OPTIONX    +1
000422: 23,2020           74743                           MASK     BIT2
000423: 23,2021           10000                           CCS      A
000424: 23,2022           12026                           TCF      NOLOKON
000425: 23,2023           05506                           TC       UPFLAG
000426: 23,2024           00012                           ADRES    LOKONSW
000427: 23,2025           12034                           TCF      AURLKON1
000428:
000429: 23,2026           05520        NOLOKON            TC       DOWNFLAG                              #  IF NO LOCK-ON, SET BIT15 OF RADMODES TO
000430: 23,2027           00012                           ADRES    LOKONSW                               #  INDICATE THAT CONTINUOUS DESIGNATION IS
000431: 23,2030           05506                           TC       UPFLAG                                #  WANTED (TO BE TERMINATED BY V44.)
000432: 23,2031           00264                           ADRES    CDESFLAG
000433: 23,2032           05506                           TC       UPFLAG                                #  SET NO RR ANGLE MONITOR FLAG.
000434: 23,2033           00126                           ADRES    NORRMON                               #  (DISABLE R25 RR GIMBAL MONITOR IN T4RUPT
000435: 23,2034           00003        AURLKON1           RELINT
000436: 23,2035           31112                           CA       DESRET
000437: 23,2036           14631                           TCF      BANKJUMP
000438:
000439:
000440: 23,2037           01014        V04N1272           VN       412
000441: 23,2040           77757        -LOKONFG           OCT      -20
000442:
000443: 43,2333                                           BANK     43
000444: 43,2000                                           SETLOC   EXTVERBS
000445: 43,2000                                           BANK
000446: 43,2333                                           COUNT*   $$/EXTVB
000447:
000448: 43,2333           05506        LRON               TC       UPFLAG                                #  PERMIT INCORPORATION OF LR DATA      V57
000449: 43,2334           00254                           ADRES    LRINH
000450: 43,2335           02117                           TC       GOPIN
000451:
000452: 43,2336           05520        LROFF              TC       DOWNFLAG                              #  INHIBIT INCORPORATION OF LR DATA     V58
000453: 43,2337           00254                           ADRES    LRINH
000454: 43,2340           02117                           TC       GOPIN
000455:
000456: 43,2341           05506        TEROFF             TC       UPFLAG                                #  BYPASS TERRAIN MODEL
000457: 43,2342           00023                           ADRES    NOTERFLG
000458: 43,2343           12117                           TCF      GOPIN
000459:
000460:
000461: 43,2344  E5,1737                                  EBANK=   OGC
000462:


000464:                                                                                                  #           IMUFINEK     VERB 42            DESCRIPTION
000465:                                                                                                  #               FINE ALIGN IMU
000466:                                                                                                  #               1. REQUIRE EXT VERB DISPLAY AVAILABLE AND SET BUSY FLAG OR TURN ON OPER ERROR AND GO TO PINBRNCH.
000467:                                                                                                  #               2. DISPLAY FLASHING V25,N93....LOAD DELTA GYRO ANGLES....
000468:                                                                                                  #                  RESPONSES
000469:                                                                                                  #                  A. TERMINATE
000470:                                                                                                  #                     1. RELEASE EXT VERB DISPLAY SYSTEM.
000471:                                                                                                  #                  B. PROCEED OR ENTER
000472:                                                                                                  #                     1. RE-DISPLAY VERB 42
000473:                                                                                                  #                     2. EXECUTE IMUFINE (IMU FIVE ALIGN MODE SWITCHING).
000474:                                                                                                  #                     3. EXECUTE IMUSTALL (ALLOW FOR DATA TRANSFER)
000475:                                                                                                  #                        A. FAILED
000476:                                                                                                  #                           1. RELEASE EXT VERB DISPLAY SYSTEM.
000477:                                                                                                  #                        B. GOOD
000478:                                                                                                  #                           1. EXECUTE IMUPULSE (TORQUE IRIGS).
000479:                                                                                                  #                           2. EXECUTE IMUSTALL AND RELEASE EXT VERB DISPLAY SYSTEM.
000480:
000481: 43,2344           02411        IMUFINEK           TC       CKMODCAD
000482: 43,2345           02076                           TC       TESTXACT                              #  FINE ALIGN WITH GYRO TORQUING.
000483: 43,2346           32373                           CAF      VNLODGYR                              #  CALL FOR LOAD OF GYRO COMMANDS
000484: 43,2347           04607                           TC       BANKCALL
000485: 43,2350           20323                           CADR     GOXDSPF
000486: 43,2351           05474                           TC       TERMEXTV
000487: 43,2352           02353                           TC       +1                                    #  PROCEED WITHOUT A LOAD
000488:
000489: 43,2353           32374                           CAF      IMUFINEV                              #  RE-DISPLAY OUR OWN VERB
000490: 43,2354           04607                           TC       BANKCALL
000491: 43,2355           20632                           CADR     EXDSPRET
000492:
000493: 43,2356           04607                           TC       BANKCALL                              #  CALL MODE SWITCH PROG
000494: 43,2357           17175                           CADR     IMUFINE
000495:
000496: 43,2360           04607                           TC       BANKCALL                              #  HIBERNATION
000497: 43,2361           17735                           CADR     IMUSTALL
000498: 43,2362           05474                           TC       ENDEXTVB
000499:
000500: 43,2363           32372        FINEK2             CAF      LGYROBIN                              #  PINBALL LEFT COMMANDS IN OGC REGIST5RS
000501: 43,2364           04607                           TC       BANKCALL
000502: 43,2365           17310                           CADR     IMUPULSE
000503:
000504: 43,2366           04607                           TC       BANKCALL                              #  WAIT FOR PULSES TO GET OUT.
000505: 43,2367           17735                           CADR     IMUSTALL
000506: 43,2370           05474                           TC       ENDEXTVB
000507: 43,2371           05474                           TC       ENDEXTVB
000508:
000509: 43,2372           02737        LGYROBIN           ECADR    OGC
000510: 43,2373           06335        VNLODGYR           VN       2593
000511: 43,2374           12400        IMUFINEV           VN       4200
000512:                                                                                                  #           GOLOADLV     VERB 50            DESCRIPTION
000513:                                                                                                  #                        AND OTHER PLEASE


000515:                                                                                                  #                        DO SOMETHING VERBS
000516:                                                                                                  #               PLEASE PERFORM, MARK, CALIBRATE, ETC.
000517:                                                                                                  #               1. PRESSING ENTER ON DSKY INDICATES REQUESTED ACTION HAS BEEN  PERFORMED, AND THE PROGRAM DOES THE
000518:                                                                                                  #                  SAME RECALL AS A COMPLETED LOAD.
000519:                                                                                                  #               2. THE EXECUTION OF A VERB 33 (PROCEED WITHOUT DATA) INDICATES THE REQUESTED ACTION IS NOT DESIRED.
000520:
000521: 43,2375  40,2000                                  SBANK=   PINSUPER                              #  FOR LOADLV1 AND SHOWSUM CADR'S.
000522:
000523: 43,2375           04424        GOLOADLV           TC       FLASHOFF
000524:
000525: 43,2376           34172                           CAF      PINSUPBT
000526: 43,2377           00006                           EXTEND
000527: 43,2400           01007                           WRITE    SUPERBNK
000528: 43,2401           04626                           TC       POSTJUMP
000529: 43,2402           62021                           CADR     LOADLV1
000530:                                                                                                  #  VERB 47 - AGS INITIALIZATION - R47.
000531:
000532:                                                                                                  #           SEE LOG SECTION AGS INITIALIZATION FOR OTHER PERTINENT REMARKS.
000533:
000534: 43,2403           02076        V47TXACT           TC       TESTXACT                              #  NO OTHER EXTVERB.
000535: 43,2404           34731                           CAF      PRIO4
000536: 43,2405           05076                           TC       FINDVAC
000537: 43,2406  E6,1771                                  EBANK=   AGSK
000538: 43,2406           02005 64066                     2CADR    AGSINIT
000539:
000540: 43,2410           05146                           TC       ENDOFJOB
000541:
000542: 43,2411           31301        CKMODCAD           CA       MODECADR
000543: 43,2412           00006                           EXTEND
000544: 43,2413           16763                           BZF      TCQ
000545: 43,2414           02116                           TC       ALM/END                               #  SOMEBODY IS USING MODECADR SO EXIT
000546:


000548:                                                                                                  #           ALINTIME     VERB 55            DESCRIPTION
000549:                                                                                                  #                  REQUIRE POO OR POO-.
000550:                                                                                                  #               1. SET EXT VERB DISPLAY BUSY FLAG.
000551:                                                                                                  #               2. DISPLAY FLASHING V25,N24 (LOAD DELTA TIME FOR AGC CLOCK.
000552:                                                                                                  #               3. REQUIRE EXECUTION OF VERB 23.
000553:                                                                                                  #               4. ADD DELTA TIME, RECEIVED FROM INPUT REGISTER, TO THE COMPUTER TIME.
000554:                                                                                                  #               5. RELEASE EXT VERB DISPLAY SYSTEM
000555:
000556: 43,2415           02076        ALINTIME           TC       TESTXACT
000557: 43,2416           04626                           TC       POSTJUMP                              #  NO ROOM IN 43
000558: 43,2417           64002                           CADR     R33
000559:
000560: 42,2002                                           BANK     42
000561: 42,2000                                           SETLOC   SBAND
000562: 42,2000                                           BANK
000563: 42,2002                                           COUNT*   $$/R33
000564:
000565: 42,2002           35012        R33                CAF      PRIO7
000566: 42,2003           05137                           TC       PRIOCHNG
000567: 42,2004           32034                           CAF      VNLODDT
000568: 42,2005           04607                           TC       BANKCALL
000569: 42,2006           20323                           CADR     GOXDSPF
000570: 42,2007           05474                           TC       ENDEXT                                #  TERMINATE
000571: 42,2010           05474                           TC       ENDEXT                                #  PROCEED
000572: 42,2011           42033                           CS       DEC23                                 #  DATA IN OR RESEQUENCE(UNLIKELY)
000573: 42,2012           60154                           AD       MPAC                                  #  RECALL LEFT VERB IN MPAC
000574: 42,2013           00006                           EXTEND
000575: 42,2014           12016                           BZF      UPDATIME                              #  GO AHEAD WITH UPDATE ONLY IF RECALL
000576: 42,2015           05474                           TC       ENDEXT                                #    WITH V23 (DATA IN).
000577:
000578: 42,2016           00004        UPDATIME           INHINT                                         #  DELTA TIME IS IN DSPTEM1, +1.
000579: 42,2017           34746                           CAF      ZERO
000580: 42,2020           54156                           TS       MPAC       +2                         #  NEEDED FOR TP AGREE
000581: 42,2021           54001                           TS       L                                     #  ZERO T1 + 2 WHILE ALIGNING.
000582: 42,2022           52025                           DXCH     TIME2
000583: 42,2023           52155                           DXCH     MPAC
000584: 42,2024           53051                           DXCH     DSPTEM2    +1                         #  INCREMENT
000585: 42,2025           20155                           DAS      MPAC
000586:
000587: 42,2026           07300                           TC       TPAGREE                               #  FORCE SIGN AGREEMENT.
000588: 42,2027           52155                           DXCH     MPAC                                  #  NEW CLOCK.
000589: 42,2030           20025                           DAS      TIME2
000590: 42,2031           00003                           RELINT
000591: 42,2032           05474        UPDTMEND           TC       ENDEXT
000592:
000593: 42,2033           00027        DEC23              DEC      23         B-14                       #  V 23
000594:
000595: 42,2034           06230        VNLODDT            VN       2524                                  #  V25N24 FOR LOAD DELTA TIME
000596:


000598:                                                                                                  #           SET UP FOR RADAR SAMPLING.
000599:
000600: 42,2035                                           BANK     42
000601: 43,2000                                           SETLOC   EXTVERBS
000602: 43,2000                                           BANK
000603:
000604: 43,2420  E4,1571                                  EBANK=   RSTACK
000605:
000606: 43,2420                                           COUNT*   $$/R0477
000607:
000608: 43,2420           02653        R77                TC       RDRUSECK                              #  TRY TO AVOID THE 1210.
000609: 43,2421           30077                           CA       FLAGWRD3                              #  IS R04 RUNNING?
000610: 43,2422           74734                           MASK     R04FLBIT
000611: 43,2423           10000                           CCS      A
000612: 43,2424           02116                           TC       ALM/END                               #  YES.
000613: 43,2425           05506                           TC       UPFLAG
000614: 43,2426           00117                           ADRES    R77FLAG
000615: 43,2427           12434                           TCF      R04Z
000616:
000617: 43,2430           02653        R04                TC       RDRUSECK                              #  TRY TO AVOID THE 1210.
000618: 43,2431           02076                           TC       TESTXACT
000619: 43,2432           05506                           TC       UPFLAG
000620: 43,2433           00063                           ADRES    R04FLAG                               #  SET R04FLAG FOR ALARMS
000621:
000622: 43,2434           34732        R04Z               CAF      EBANK4
000623: 43,2435           54003                           TS       EBANK
000624: 43,2436           32651                           CAF      1SEC+1                                #  SAMPLE ONCE PER SECOND
000625: 43,2437           55770                           TS       RSAMPDT
000626: 43,2440           34746                           CAF      ZERO
000627: 43,2441           55767                           TS       RTSTLOC
000628: 43,2442           55566                           TS       RFAILCNT                              #  ZERO BAD SAMPLE COUNTER
000629:
000630: 43,2443           00004                           INHINT
000631: 43,2444           42652                           CS       LRPOSCAL                              #  INITIALIZE
000632: 43,2445           70110                           MASK     RADMODES                              #      BIT9   LR RANGE  LOW SCALE =0
000633: 43,2446           54110                           TS       RADMODES                              #      BIT6   LR POS 1 =0
000634: 43,2447           32652                           CAF      LRPOSCAL                              #      BIT3   RR RANGE  LOW SCALE =0
000635: 43,2450           00006                           EXTEND
000636: 43,2451           02033                           RAND     CHAN33
000637: 43,2452           26110                           ADS      RADMODES
000638: 43,2453           00003                           RELINT
000639:
000640: 43,2454           40077                           CS       FLAGWRD3                              #  CHECK R04FLAG      R04 =1    R77 =0
000641: 43,2455           74734                           MASK     R04FLBIT
000642: 43,2456           10000                           CCS      A
000643: 43,2457           12606                           TCF      R04K
000644:
000645: 43,2460           34744                           CAF      ONE                                   #  INDICATES RENDEZVOUS DESIRED
000646: 43,2461           55051                           TS       OPTIONX    +1
000647: 43,2462           34742        R04A               CAF      BIT3                                  #  OPTION CODE FOR V04N12
000648:


000650: 43,2463           55050                           TS       OPTIONX
000651: 43,2464           32646                           CAF      V04N12X
000652: 43,2465           04607                           TC       BANKCALL                              #      R2   00001  RENDEZVOUS RADAR
000653: 43,2466           20345                           CADR     GOMARKFR                              #           00002  LANDING RADAR
000654: 43,2467           12614                           TCF      R04END                                #  V34
000655: 43,2470           12475                           TCF      +5                                    #  V33
000656: 43,2471           12464                           TCF      R04A       +2                         #  R2
000657: 43,2472           34742                           CAF      BIT3
000658: 43,2473           05466                           TC       BLANKET
000659: 43,2474           05146                           TC       ENDOFJOB
000660:
000661: 43,2475           31051                           CA       OPTIONX    +1                         #  SAVE DESIRED OPTION     RR =1     LR =2
000662: 43,2476           55764                           TS       RTSTDEX
000663:
000664: 43,2477           36263        R04X               CAF      SIX                                   #  RR OR LR DESIRED
000665: 43,2500           71764                           MASK     RTSTDEX
000666: 43,2501           10000                           CCS      A
000667: 43,2502           12610                           TCF      R04L                                  #  LANDING RADAR
000668: 43,2503           55766                           TS       RTSTBASE                              #  FOR RR   BASE = 0, MAX = 1
000669:
000670: 43,2504           34743        R04B               CAF      BIT2                                  #  IS RR AUTO MODE DISCRETE PRESENT
000671: 43,2505           00006                           EXTEND
000672: 43,2506           02033                           RAND     CHAN33
000673: 43,2507           00006                           EXTEND
000674: 43,2510           12521                           BZF      R04C                                  #  YES
000675:
000676: 43,2511           32650                           CAF      201R04                                #  REQUEST SELECTION OF RR AUTO MODE
000677: 43,2512           55044                           TS       DSPTEM1
000678: 43,2513           32647                           CAF      V50N25X
000679: 43,2514           04607                           TC       BANKCALL
000680: 43,2515           20337                           CADR     GOMARK4
000681: 43,2516           12614                           TCF      R04END                                #  V34
000682: 43,2517           12504                           TCF      R04B                                  #  V33
000683: 43,2520           12511                           TCF      -7                                    #  E
000684:
000685: 43,2521           34727        R04C               CAF      BIT14                                 #  ENABLE RR AUTO TRACKER
000686: 43,2522           00006                           EXTEND
000687: 43,2523           05012                           WOR      CHAN12
000688:
000689: 43,2524           34743                           CAF      TWO
000690: 43,2525           55765                           TS       RTSTMAX                               #  FOR SEQUENTIAL STORAGE
000691:
000692: 43,2526           05205                           TC       WAITLIST
000693: 43,2527  E4,1571                                  EBANK=   RSTACK
000694: 43,2527           02162 32104                     2CADR    RADSAMP
000695:
000696: 43,2531           00003                           RELINT
000697:
000698: 43,2532           40077                           CS       FLAGWRD3                              #  CHECK R04FLAG      R04 =1    R77 =0
000699: 43,2533           74734                           MASK     R04FLBIT


000701: 43,2534           10000                           CCS      A
000702: 43,2535           12117                           TCF      GOPIN                                 #  R77
000703:
000704: 43,2536           36263                           CAF      SIX                                   #  RR OR LR
000705: 43,2537           71764                           MASK     RTSTDEX
000706: 43,2540           10000                           CCS      A
000707: 43,2541           12556                           TCF      R04LR                                 #  LR
000708:
000709: 43,2542           32642        R04RR              CAF      V16N72                                #  DISPLAY RR CDU ANGLES (1/SEC)
000710: 43,2543           04607                           TC       BANKCALL                              #           R1  +  XXX.XX DEG   TRUNNION
000711: 43,2544           20323                           CADR     GOMARKF                               #           R2  +  XXX.XX DEG   SHAFT
000712: 43,2545           12614                           TCF      R04END                                #  V34      R3     BLANK
000713: 43,2546           12550                           TCF      +2                                    #  V33
000714: 43,2547           12542                           TCF      R04RR                                 #  V32
000715:
000716: 43,2550           32643                           CAF      V16N78                                #  DISPLAY RR RANGE AND RANGE RATE (1/SEC)
000717: 43,2551           04607                           TC       BANKCALL                              #           R1  +- XXX.XX NM    RANGE
000718: 43,2552           20323                           CADR     GOMARKF                               #           R2  +- XXXX.X FPS   RANGE RATE
000719: 43,2553           12614                           TCF      R04END                                #  V34      R3     BLANK
000720: 43,2554           12572                           TCF      R04Y                                  #  V33
000721: 43,2555           12542                           TCF      R04RR                                 #  V32
000722:
000723: 43,2556           32644        R04LR              CAF      V16N66                                #  DISPLAY LR RANGE AND POSITION (1/SEC)
000724: 43,2557           04607                           TC       BANKCALL                              #           R1  +- XXXXX. FT   LR RANGE
000725: 43,2560           20323                           CADR     GOMARKF                               #           R2  +  0000X.      POS. NO.
000726: 43,2561           12614                           TCF      R04END                                #  V34      R3     BLANK
000727: 43,2562           12564                           TCF      +2                                    #  V33
000728: 43,2563           12556                           TCF      R04LR                                 #  V32
000729:
000730: 43,2564           32645                           CAF      V16N67                                #  DISPLAY LR VELX, VELY, VELZ (1/SEC)
000731: 43,2565           04607                           TC       BANKCALL                              #           R1  +- XXXXX. FPS   LR V(X)
000732: 43,2566           20323                           CADR     GOMARKF                               #           R2  +- XXXXX. FPS   LR V(Y)
000733: 43,2567           12614                           TCF      R04END                                #  V34      R3  +- XXXXX. FPS   LR V(Z)
000734: 43,2570           12572                           TCF      R04Y                                  #  V33
000735: 43,2571           12556                           TCF      R04LR                                 #  V32
000736:
000737: 43,2572           34746        R04Y               CAF      ZERO                                  #  TO TERMINATE SAMPLING
000738: 43,2573           55770                           TS       RSAMPDT
000739: 43,2574           04607                           TC       BANKCALL
000740: 43,2575           01735                           CADR     2SECDELY                              #  WAIT FOR LAST RADARUPT
000741: 43,2576           32651                           CAF      1SEC+1                                #  SAMPLE ONCE PER SECOND
000742: 43,2577           55770                           TS       RSAMPDT
000743: 43,2600           34746                           CAF      ZERO                                  #  FOR STORING RESULTS
000744: 43,2601           55767                           TS       RTSTLOC
000745: 43,2602           11766                           CCS      RTSTBASE                              #   CHECK WHICH RADAR HAD BEEN SAMPLED
000746: 43,2603           44744                           CS       ONE                                   #  WAS LR
000747: 43,2604           64743                           AD       TWO                                   #  WAS RR
000748: 43,2605           12476                           TCF      R04X       -1
000749:
000750: 43,2606           34757        R04K               CAF      250MS+1                               #  SAMPLE 4 LR COMPONENTS PER SECOND.


000752: 43,2607           55770                           TS       RSAMPDT
000753:
000754: 43,2610           34743        R04L               CAF      TWO
000755: 43,2611           55766                           TS       RTSTBASE                              #  FOR LR   BASE = 2, MAX = 3
000756: 43,2612           36263                           CAF      SIX
000757: 43,2613           12525                           TCF      R04C       +4
000758: 43,2614           34746        R04END             CAF      ZERO                                  #  ZERO RSAMPDT
000759: 43,2615           55770                           TS       RSAMPDT                               #  TO TERMINATE SAMPLING
000760: 43,2616           34735                           CAF      BIT8                                  #  WAIT 1.28 SECONDS FOR POSSIBLE
000761: 43,2617           04607                           TC       BANKCALL                              #  PENDING RUPT.
000762: 43,2620           01736                           CADR     DELAYJOB
000763:
000764: 43,2621           00004                           INHINT
000765: 43,2622           44727                           CS       BIT14                                 #  DISABLE RR AUTO TRACKER
000766: 43,2623           00006                           EXTEND
000767: 43,2624           03012                           WAND     CHAN12
000768:
000769: 43,2625           05520                           TC       DOWNFLAG
000770: 43,2626           00063                           ADRES    R04FLAG                               #  SIGNAL END OF R04.
000771:
000772: 43,2627           05474                           TC       ENDEXT
000773:
000774: 43,2630           34732        R77END             CAF      EBANK4                                #  TO TERMINATE SAMPLING
000775: 43,2631           54003                           TS       EBANK
000776: 43,2632           34746                           CAF      ZERO
000777: 43,2633           55770                           TS       RSAMPDT
000778: 43,2634           34737                           CAF      BIT6                                  #  WAIT 320 MS FOR POSSIBLE
000779: 43,2635           04607                           TC       BANKCALL                              #  PENDING RUPT.
000780: 43,2636           01736                           CADR     DELAYJOB
000781:
000782: 43,2637           05520                           TC       DOWNFLAG
000783: 43,2640           00117                           ADRES    R77FLAG
000784: 43,2641           12117                           TCF      GOPIN
000785:
000786: 43,2642           04110        V16N72             VN       1672
000787: 43,2643           04116        V16N78             VN       1678
000788: 43,2644           04102        V16N66             VN       1666
000789: 43,2645           04103        V16N67             VN       1667
000790: 43,2646           01014        V04N12X            VN       412
000791: 43,2647           14431        V50N25X            VN       5025
000792: 43,2650           00201        201R04             OCT      00201
000793: 43,2651           00145        1SEC+1             DEC      101        B-14
000794: 43,2652     4757               250MS+1            EQUALS   CALLCODE
000795: 43,2652           00444        LRPOSCAL           OCT      444
000796:


000798: 43,2653           30101        RDRUSECK           CA       FLAGWRD5                              #  IS R77 RUNNING?
000799: 43,2654           74732                           MASK     R77FLBIT
000800: 43,2655           10000                           CCS      A
000801: 43,2656           02116                           TC       ALM/END                               #  YES.
000802: 43,2657           40103                           CS       FLAGWRD7                              #  IS SERVICER RUNNING AND HENCE POSSIBLY
000803: 43,2660           74737                           MASK     V37FLBIT                              #  R12 USING THE LR?
000804: 43,2661           10000                           CCS      A
000805: 43,2662           12667                           TCF      CHECKRR                               #  NO
000806: 43,2663           30107                           CA       FLGWRD11                              #  YES, IS R12 ON?
000807: 43,2664           74726                           MASK     LRBYBIT                               #  BIT 15
000808: 43,2665           00006                           EXTEND
000809: 43,2666           12116                           BZF      ALM/END                               #  YES
000810: 43,2667           40075        CHECKRR            CS       FLAGWRD1                              #  IS THE TRACK FLAG SET AND HENCE POSSIBLY
000811: 43,2670           74740                           MASK     TRACKBIT                              #  P20 USING THE RR?
000812: 43,2671           10000                           CCS      A
000813: 43,2672           00002                           TC       Q                                     #  NOT ALLOWED DURING P20
000814: 43,2673           02116                           TC       ALM/END                               #  P22 OR P25,  (R65)
000815: 43,2674                                           COUNT*   $$/EXTVB
000816:
000817: 43,2674           02076        VB64               TC       TESTXACT                              #  IF DISPLAY SYS. NOT BUSY,MAKE IT BUSY.
000818: 43,2675           34731                           CAF      PRIO4
000819: 43,2676           05076                           TC       FINDVAC
000820: 43,2677  E4,1571                                  EBANK=   ALPHASB
000821: 43,2677           03617 64104                     2CADR    SBANDANT                              #  CALC.,DISPLAY S-BAND ANTENNA ANGLES.
000822:
000823: 43,2701           05146                           TC       ENDOFJOB
000824:


000826:                                                                                                  #           IMUATTCK      VERB 43           DESCRIPTION
000827:                                                                                                  #               LOAD IMU ATTITUDE ERROR METERS
000828:                                                                                                  #                  1. REQUIRE POO OR FRESH START.
000829:                                                                                                  #                  2. REQUIRE COARSE ALIGN ENABLE AND ZERO ICDU BITS OFF.
000830:                                                                                                  #                  3. REQUIRE THAT NEEDLES BE OFF.
000831:                                                                                                  #                  4. REQUEST LOAD OF N22  (VAUES TO BE DISPLAYED).
000832:                                                                                                  #                  5. ON PROCEED OR ENTER RE-DISPLAY V43 AND SEND PULSES.
000833:
000834: 43,2702           02121        IMUATTCK           TC       CHKPOOH                               #  VB 76 - LOAD IMU ATT. ERROR METERS
000835:
000836: 43,2703           34754                           CAF      BITS4&5                               #  SEE IF COARSE ALIGN ENABLE AND ZERO IMU
000837: 43,2704           00006                           EXTEND                                         #  CDUS BITS ARE ON
000838: 43,2705           02012                           RAND     CHAN12
000839: 43,2706           10000                           CCS      A
000840: 43,2707           12116                           TCF      ALM/END                               #  NOT ALLOWED IF IMU COARSE OR IMU ZERO ON
000841:
000842: 43,2710           34346                           CAF      BIT13-14                              #  BOTH BITS 13 AND 14 MUST BE 1
000843: 43,2711           00006                           EXTEND                                         #  INDICATING THE MODE SELECTED IS OFF.
000844: 43,2712           06031                           RXOR     CHAN31
000845: 43,2713           74346                           MASK     BIT13-14
000846: 43,2714           00006                           EXTEND
000847: 43,2715           12717                           BZF      +2                                    #  NEEDLES IS OFF.
000848: 43,2716           12116                           TCF      ALM/END                               #  EXIT.  NEEDLES IS ON.
000849:
000850: 43,2717           02076                           TC       TESTXACT
000851:
000852: 43,2720           32233                           CAF      VNLODCDU
000853: 43,2721           04607                           TC       BANKCALL
000854: 43,2722           20323                           CADR     GOXDSPF
000855: 43,2723           05474                           TC       ENDEXT                                #  V34
000856: 43,2724           02725                           TC       +1
000857: 43,2725           32740                           CAF      V43K                                  #  REDISPLAY OUR VERB.
000858: 43,2726           04607                           TC       BANKCALL
000859: 43,2727           20632                           CADR     EXDSPRET
000860: 43,2730           34737                           CAF      BIT6
000861: 43,2731           00006                           EXTEND
000862: 43,2732           05012                           WOR      CHAN12                                #  ENABLE ERROR COUNTERS.
000863: 43,2733           34743                           CAF      TWO
000864: 43,2734           05205                           TC       WAITLIST                              #  PUT OUT COMMANDS IN .32 SECONDS.
000865: 43,2735     0321                                  EBANK=   THETAD
000866: 43,2735           02035 64100                     2CADR    ATTCK2
000867:
000868: 43,2737           15474                           TCF      ENDEXT
000869:
000870: 42,2035                                           BANK     42
000871: 42,2000                                           SETLOC   PINBALL3                              #  SOMETHING IN B42.
000872: 42,2000                                           BANK
000873:
000874: 42,2035                                           COUNT*   $$/EXTVB


000876: 42,2035           34743        ATTCK2             CAF      TWO                                   #  PUT OUT COMMANDS.
000877: 42,2036           54002                 +1        TS       Q                                     #  CDU WILL LIMIT EXCESS DATA.
000878: 42,2037           50000                           INDEX    A
000879: 42,2040           30321                           CA       THETAD
000880: 42,2041           00006                           EXTEND
000881: 42,2042           72053                           MP       ATTSCALE
000882: 42,2043           50002                           INDEX    Q
000883: 42,2044           56050                           XCH      CDUXCMD
000884: 42,2045           10002                           CCS      Q
000885: 42,2046           12036                           TCF      ATTCK2     +1
000886:
000887: 42,2047           37761                           CAF      13,14,15
000888: 42,2050           00006                           EXTEND
000889: 42,2051           05014                           WOR      CHAN14
000890: 42,2052           15263                           TCF      TASKOVER                              #  LEAVE ERROR COUNTERS ENABLED.
000891:
000892: 42,2053           03146        ATTSCALE           DEC      0.1
000893:
000894: 07,2607                                           BANK     7
000895: 43,2000                                           SETLOC   EXTVERBS
000896: 43,2000                                           BANK
000897:
000898: 43,2740                                           COUNT*   $$/EXTVB
000899:
000900: 43,2740           12600        V43K               VN       4300
000901:                                                                                                  #           V82PERF     VERB 82             DESCRIPTION
000902:                                                                                                  #               REQUEST ORBIT PARAMETERS DISPLAY (R30)
000903:                                                                                                  #  1. IF AVERAGE G IS OFF:
000904:                                                                                                  #           FLASH DISPLAY V04N06. R2 INDICATES WHICH SHIP'S STATE VECTOR IS
000905:                                                                                                  #            TO BE UPDATED. INITIAL CHOICE IS THIS SHIP (R2=1). ASTRONAUT
000906:                                                                                                  #            CAN CHANGE TO OTHER SHIP BY V22EXE, WHERE X NOT EQ 1.
000907:                                                                                                  #           SELECTED STATE VECTOR UPDATED BY THISPREC (OTHPREC).
000908:                                                                                                  #           CALLS SR30.1 (WHICH CALLS TFFCONMU + TFFRP/RA) TO CALCULATE
000909:                                                                                                  #            RPER (PERIGEE RADIUS), RAPO (APOGEE RADIUS), HPER (PERIGEE
000910:                                                                                                  #            HEIGHT ABOVE LAUNCH PAD OR LUNAR LANDING SITE), HAPO (APOGEE
000911:                                                                                                  #            HEIGHT AS ABOVE), TPER (TIME TO PERIGEE), TFF (TIME TO
000912:                                                                                                  #            INTERSECT 300 KFT ABOVE PAD OR 35KFT ABOVE LANDING SITE).
000913:                                                                                                  #           FLASH MONITOR V16N44 (HAPO, HPER, TFF).TFF IS -59M59S IF IT WAS
000914:                                                                                                  #            NOT COMPUTABLE, OTHERWISE IT INCREMENTS ONCE PER SECOND.
000915:                                                                                                  #            ASTRONAUT HAS OPTION TO MONITOR TPER BY KEYING IN N 32 E.
000916:                                                                                                  #            DISPLAY IS IN HMS, IS NEGATIVE (AS WAS TFF), AND INCREMENTS
000917:                                                                                                  #            ONCE PER SECOND ONLY IF TFF DISPLAY WAS -59M59S.
000918:
000919:                                                                                                  #  2. IF AVERAGE G IS ON:
000920:                                                                                                  #           CALLS SR30.1 APPROX EVERY TWO SECS.  STATE VECTOR IS ALWAYS
000921:                                                                                                  #            FOR THIS VEHICLE. V82 DOES NOT DISTURB STATE VECTOR.  RESULTS
000922:                                                                                                  #            OF SR30.1 ARE RAPO, RPER, HAPO, HPER, TPER, TFF.
000923:                                                                                                  #           FLASH MONITOR V16N44 (HAPO, HPER, TFF).
000924:                                                                                                  #           IF MODE IS P11, THEN CALL DELRSPL SO ASTRONAUT CAN MONITOR
000925:                                                                                                  #            RESULTS BY N50E. SPLASH COMPUTATION DONE ONCE PER TWO SECS.
000926:


000928: 43,2741           02076        V82PERF            TC       TESTXACT
000929:
000930: 43,2742           35012                           CAF      PRIO7                                 #  LESS THAN LAMBERT.  R30,V82
000931: 43,2743           05137                           TC       PRIOCHNG
000932: 43,2744           00006                           EXTEND
000933: 43,2745           32750                           DCA      V82CON
000934: 43,2746           05167                           TC       SUPDXCHZ                              #  V82CALL IN DIFF SUPERBANK FROM V82PERF
000935:
000936: 43,2747  E4,1707                                  EBANK=   HAPO
000937: 43,2747           03244 44104  V82CON             2CADR    V82CALL
000938:
000939:                                                                                                  #           VB83PERF     VERB 83            DESCRIPTION
000940:                                                                                                  #               REQUEST RENDEZVOUS PARAMETER DISPLAY (R31)
000941:                                                                                                  #               1. SET EXT VERB DISPLAY BUSY FLAG.
000942:                                                                                                  #               2. SCHEDULE R31CALL WITH PRIORITY 5.
000943:                                                                                                  #                  A. DISPLAY
000944:                                                                                                  #                      R1  RANGE
000945:                                                                                                  #                      R2  RANGE RATE
000946:                                                                                                  #                      R3  THETA
000947:
000948: 43,2751           02076        V83PERF            TC       TESTXACT
000949:
000950: 43,2752           34743                           CAF      BIT2
000951: 43,2753           05205                           TC       WAITLIST
000952: 43,2754  E7,1611                                  EBANK=   TSTRT
000953: 43,2754           03741 60107                     2CADR    R31CALL
000954:
000955: 43,2756           05146                           TC       ENDOFJOB
000956:
000957:                                                                                                  #  VERB 89 DESCRIPTION     RENDEZVOUS FINAL ATTITUDE ROUTINE (R63)
000958:
000959:                                                                                                  #  CALLED BY VERB 89 ENTER DURING P00. PRIO 10 USED.  CALCULATES AND
000960:                                                                                                  #  DISPLAYS FINAL FDAI BALL ANGLES TO POINT LM +X OR +Z AXIS AT CSM.
000961:
000962:                                                                                                  #  1. KEY IN V 89 E ONLY IF IN PROG 00. IF NOT IN P00, OPERATOR ERROR AND
000963:                                                                                                  #  EXIT R63, OTHERWISE CONTINUE.
000964:
000965:                                                                                                  #  2. IF IN P00, DO IMU STATUS CHECK ROUTINE (R02BOTH). IF IMU ON AND ITS
000966:                                                                                                  #  ORIENTATION KNOWN TO LGC, CONTINUE.
000967:
000968:                                                                                                  #  3. FLASH DISPLAY V 04 N 06.  R2 INDICATES WHICH SPACECRAFT AXIS IS TO
000969:                                                                                                  #  BE POINTED AT CSM.  INITIAL CHOICE IS PREFERRED (+Z) AXIS (R2=1).
000970:                                                                                                  #  ASTRONAUT CAN CHANGE TO (+X) AXIS (R2 NOT = 1) BY V 22 E 2 E.  CONTINUE
000971:                                                                                                  #  AFTER KEYING IN PROCEED.
000972:
000973:                                                                                                  #  4. BOTH VEHICLE STATE VECTORS UPDATED BY CONIC EQS.
000974:
000975:                                                                                                  #  5. HALF MAGNITUDE UNIT LOS VECTOR (IN STABLE MEMBER COORDINATES) AND


000977:                                                                                                  #  HALF MAGNITUDE UNIT SPACECRAFT AXIS VECTOR (IN BODY COORDINATES)
000978:                                                                                                  #  PREPARED FOR VECPOINT.
000979:
000980:                                                                                                  #  6. GIMBAL ANGLES FROM VECPOINT TRANSFORMED INTO FDAI BALL ANGLES BY
000981:                                                                                                  #  BALLANGS. FLASH DISPLAY V 06 N 18 AND AWAIT RESPONSE.
000982:
000983:                                                                                                  #  7. RECYCLE - RETURN TO STEP 4.
000984:                                                                                                  #     TERMINATE - EXIT R63.
000985:                                                                                                  #     PROCEED - RESET 3AXISFLG AND CALL R60LEM FOR ATTITUDE MANEUVER.
000986:
000987:
000988: 43,2757           02121        V89PERF            TC       CHKPOOH
000989: 43,2760           02076                           TC       TESTXACT
000990: 43,2761           34730                           CAF      PRIO10
000991: 43,2762           05076                           TC       FINDVAC
000992: 43,2763  E4,1577                                  EBANK=   RONE
000993: 43,2763           02024 54104                     2CADR    V89CALL
000994:
000995: 43,2765           05146                           TC       ENDOFJOB
000996:
000997:                                                                                                  #           V90PERF     VERB 90             DESCRIPTION
000998:                                                                                                  #               REQUEST RENDEZVOUS OUT-OF-PLANE DISPLAY (R36)
000999:                                                                                                  #               1. SET EXT VERB DISPLAY BUSY FLAG.
001000:                                                                                                  #               2. SCHEDULE R36 CALL WITH PRIORITY 10
001001:                                                                                                  #                  A. DISPLAY
001002:                                                                                                  #                      TIME OF EVENT - HOURS , MINUTES , SECONDS
001003:                                                                                                  #                      Y  OUT-OF-PLANE POSITION - NAUTICAL MILES
001004:                                                                                                  #                      YDOT  OUT-OF-PLANE VELOCITY - FEET/SECOND
001005:                                                                                                  #                      PSI  ANGLE BTW LINE OF SIGHT AND FORWARD
001006:                                                                                                  #                           DIRECTION VECTOR IN HORIZONTAL PLANE - DEGREES
001007:
001008: 43,2766           40103        V90PERF            CS       FLAGWRD7
001009: 43,2767           74737                           MASK     V37FLBIT
001010: 43,2770           00006                           EXTEND
001011: 43,2771           12116                           BZF      ALM/END                               #  AVERAGE G ON: ILL EAGLE
001012: 43,2772           02076                           TC       TESTXACT
001013: 43,2773           35012                           CAF      PRIO7                                 #  R36,V90
001014: 43,2774           05076                           TC       FINDVAC
001015: 43,2775  E7,1441                                  EBANK=   TIG
001016: 43,2775           02677 10107                     2CADR    R36
001017:
001018: 43,2777           15146                           TCF      ENDOFJOB
001019:                                                                                                  #           MINIMP     VERB 76              DESCRIPTION
001020:                                                                                                  #               MINIMUM IMPULSE MODE
001021:                                                                                                  #               1. SET MINIMUM IMPULSE RHC MODE FLAG TO 1.
001022:
001023: 43,3000           05506        MINIMP             TC       UPFLAG                                #  SET PULSES = 1 (MIN. IMPULSE MODE)
001024: 43,3001           00303                           ADRES    PULSEFLG
001025: 43,3002           12117                           TCF      GOPIN                                 #  RETURN VIA PINBRNCH
001026:


001028:                                                                                                  #           NOMINIMP     VERB 77            DESCRIPTION
001029:                                                                                                  #               RATE COMMAND MODE
001030:                                                                                                  #               1. SET MINIMUM IMPULSE RHC MODE FLAG TO 0. (ZERO INDICATES NOT MINIMUM IMPULSE MODE.).
001031:                                                                                                  #               2. MOVE CDUX,CDUY,CDUZ INTO CDUXD,CDUYD,CDUZD.
001032:
001033: 43,3003           05520        NOMINIMP           TC       DOWNFLAG                              #  SET PULSES = 0 (NOT MINIMUM IMPULSE MODE
001034: 43,3004           00303                           ADRES    PULSEFLG
001035: 43,3005           00004                           INHINT
001036: 43,3006           04665                           TC       IBNKCALL
001037: 43,3007           40154                           CADR     ZATTEROR
001038: 43,3010           02117                           TC       GOPIN
001039:


001041:                                                                                                  #           CREWMANU     VERB 49            DESCRIPTION
001042:                                                                                                  #               START AUTOMATIC ATTITUDE MANEUVER
001043:                                                                                                  #               1. REQUIRE PROGRAM 00 ACTIVE.
001044:                                                                                                  #               2. SET EXT VERB DISPLAY BUSY FLAG.
001045:                                                                                                  #               3. SCHEDULE R62DISP WITH PRIORITY 10.
001046:                                                                                                  #               4. RELEASE EXT VERB DISPLAY.
001047:
001048:                                                                                                  #             R62DISP
001049:                                                                                                  #               1. DISPLAY FLASHING V06,N22.
001050:                                                                                                  #                  RESPONSES
001051:                                                                                                  #                  A. TERMINATE
001052:                                                                                                  #                     1. GO TO GOTOPOOH.
001053:                                                                                                  #                  B. PROCEED
001054:                                                                                                  #                     1. SET 3AXISFLG TO INDICATE MANEUVER IS SPECIFIED BY 3 AXIS.
001055:                                                                                                  #                     2. EXECUTE R60LEM (ATTITUDE MANEUVER).
001056:                                                                                                  #                  C. ENTER
001057:                                                                                                  #                     1. REPEAT FLASHING V06,N22.
001058:
001059: 43,3011           02121        CREWMANU           TC       CHKPOOH                               #  DEMAND POO
001060:
001061: 43,3012           02076                           TC       TESTXACT
001062:
001063: 43,3013           34730                           CAF      PRIO10
001064: 43,3014           05076                           TC       FINDVAC
001065: 43,3015  E6,1675                                  EBANK=   BCDU
001066: 43,3015           02103 46106                     2CADR    R62DISP
001067:
001068: 43,3017           05146                           TC       ENDOFJOB
001069:


001071:                                                                                                  #  TRMTRACK     VERB 56                     DESCRIPTION
001072:                                                                                                  #               TERMINATE TRACKING (P20 AND P25).
001073:                                                                                                  #               1. KNOCK DOWN RENDEZVOUS, TRACK, AND UPDATE FLAGS.
001074:                                                                                                  #               2. REQUIRE P20 OR  P25 NOT RUNNING ALONE OR GO TO GOTOPOOH (REQUEST PROGRAM 00).
001075:                                                                                                  #               3. SCHEDULE V56TOVAC WITH PRIORITY 30.
001076:
001077:                                                                                                  #               V56TOVAC
001078:                                                                                                  #               1. EXECUTE INTSTALL (IF INTEGRATION IS RUNNING, STALL UNTIL IT IS FINISHED.).
001079:                                                                                                  #               2. ZERO GROUP 2 TO HALT P20.
001080:                                                                                                  #               3. TRANSFER CONTROL TO GOPROG2 (SOFTWARE RESTART).
001081:
001082: 43,3020           36017        TRMTRACK           CA       BITS9+7                               #  IS REND OR P25 FLAG ON
001083: 43,3021           70074                           MASK     FLAGWRD0
001084: 43,3022           00006                           EXTEND
001085: 43,3023           12117                           BZF      GOPIN                                 #  NO
001086:
001087: 43,3024           05520                           TC       DOWNFLAG                              #  ENSURE SEARCH FLAG IS OFF
001088: 43,3025           00037                           ADRES    SRCHOPTN
001089:
001090: 43,3026           34740                           CA       TRACKBIT                              #  IS TRACK FLAG ON?
001091: 43,3027           70075                           MASK     FLAGWRD1
001092: 43,3030           00006                           EXTEND
001093: 43,3031           13034                           BZF      CLRRND
001094: 43,3032           04626                           TC       POSTJUMP
001095: 43,3033           64054                           CADR     TRMTRAK1
001096:
001097: 43,3034           46017        CLRRND             CS       BITS9+7                               #  TURN OFF RENDVZFLG AND P25FLAG
001098: 43,3035     4736               REFTAG5            =        RNDVZBIT
001099: 43,3035     4734               REFTAG6            =        P25FLBIT
001100: 43,3035           70074                           MASK     FLAGWRD0
001101: 43,3036           54074                           TS       FLAGWRD0
001102: 43,3037           12117                           TCF      GOPIN
001103:
001104:    6000                                           SETLOC   FFTAG5
001105:    6000                                           BANK
001106:
001107:    6017           00500        BITS9+7            OCT      500
001108:
001109:
001110: 42,2000                                           SETLOC   SBAND                                 #  BANK 42
001111: 42,2000                                           BANK
001112:
001113: 42,2054                                           COUNT*   $$/EXTVB
001114:
001115: 42,2054           34727        TRMTRAK1           CAF      BIT14
001116: 42,2055           55073                           TS       AGSCODE
001117:
001118: 42,2056           06060                           TC       INTPRET
001119: 42,2057           43014                           CLEAR    CLEAR                                 #  TURN OFF UPDATFLG AND IMUSE
001120: 42,2060           00267                                    IMUSE


001122: 42,2061           00670                                    UPDATFLG
001123: 42,2062           77624                           CALL
001124: 42,2063           27447                                    INTSTALL                              #  DONT INTERRUPT INTEGRATION
001125: 42,2064           77776                           EXIT
001126:
001127: 42,2065           05355                           TC       PHASCHNG
001128: 42,2066           00002                           OCT      2                                     #  KILL GROUP 2 TO HALT P20 ACTIVITY
001129:
001130: 42,2067           00004                           INHINT
001131: 42,2070           04665                           TC       IBNKCALL                              #  ZERO THE COMMANDED RATES TO STOP
001132: 42,2071           40166                           CADR     STOPRATE                              #  MANEUVER
001133:
001134: 42,2072           04665                           TC       IBNKCALL
001135: 42,2073           40115                           CADR     RESTORDB
001136:
001137: 42,2074           06027                           TC       CLRADMOD                              #  CLEAR BITS 10 + 15 OF RADMODES.
001138:
001139: 42,2075           44727                           CS       BIT14                                 #  DISABLE LOCKON
001140: 42,2076           00006                           EXTEND
001141: 42,2077           03012                           WAND     CHAN12
001142: 42,2100           44740                           CS       TRACKBIT                              #  TURN OFF TRACKFLG
001143: 42,2101           70075                           MASK     FLAGWRD1
001144: 42,2102           54075                           TS       FLAGWRD1
001145: 42,2103           46017                           CS       BITS9+7                               #  TURN OFF RENDVZFLG AND P25FLAG
001146: 42,2104     4736               REFTAG7            =        RNDVZBIT
001147: 42,2104     4734               REFTAG8            =        P25FLBIT
001148: 42,2104           70074                           MASK     FLAGWRD0
001149: 42,2105           54074                           TS       FLAGWRD0
001150:
001151: 42,2106           04626                           TC       POSTJUMP
001152: 42,2107           12772                           CADR     GOPROG2                               #  CAUSE RESTART.
001153:
001154:                                                                                                  #           DNEDUMP     VERB 74             DESCRIPTION
001155:                                                                                                  #               INITIALIZE DOWN-TELEMETRY PROGRAM FOR ERASABLE MEMORY DUMP.
001156:                                                                                                  #               1. SET EXT VERB DISPLAY BUSY FLAG.
001157:                                                                                                  #               2. REPLACE CURRENT DOWNLIST WITH ERASABLE MEMORY.
001158:                                                                                                  #               3. RELEASE EXT VERB DISPLAY.
001159:
001160: 43,2000                                           SETLOC   EXTVERBS
001161: 43,2000                                           BANK
001162:
001163: 43,3040                                           COUNT*   $$/EXTVB
001164:
001165: 43,3040     0400                                  EBANK=   400
001166: 43,3040           33043        DNEDUMP            CAF      LDNDUMPI
001167: 43,3041           54335                           TS       DNTMGOTO
001168: 43,3042           02117                           TC       GOPIN
001169:
001170: 43,3043  43,3040               V74                EQUALS   DNEDUMP
001171: 43,3043           03723        LDNDUMPI           REMADR   DNDUMPI
001172:


001174:                                                                                                  #           LEMVEC     VERB 80              DESCRIPTION
001175:                                                                                                  #               UPDATE LEM STATE VECTOR
001176:                                                                                                  #                  RESET VEHUPFLG TO 0
001177:
001178: 43,3044           05520        LEMVEC             TC       DOWNFLAG
001179: 43,3045           00026                           ADRES    VEHUPFLG                              #  VB 80 - VEHUPFLG DOWN INDICATES LEM
001180:
001181: 43,3046           03051                           TC       NOUPDOWN
001182:                                                                                                  #           CSMVEC     VERB 81              DESCRIPTION
001183:                                                                                                  #               UPDATE CSM STATE VECTOR
001184:                                                                                                  #                  SET   VEHUPFLG TO 1
001185:
001186: 43,3047           05506        CSMVEC             TC       UPFLAG
001187: 43,3050           00026                           ADRES    VEHUPFLG                              #  VB 81 - VEHUPFLG UP INDICATES CSM
001188:
001189: 43,3051           05520        NOUPDOWN           TC       DOWNFLAG
001190: 43,3052           00030                           ADRES    NOUPFLAG
001191:
001192: 43,3053           12117                           TCF      GOPIN
001193:
001194:                                                                                                  #           UPDATOFF   VERB 95      DESCRIPTION
001195:                                                                                                  #               INHIBIT STATE VECTOR UPDATES BY INCORP
001196:                                                                                                  #                  SET NOUPFLAG TO 1
001197:
001198: 43,3054           05506        UPDATOFF           TC       UPFLAG                                #  VB 95 SET NOUPFLAG
001199: 43,3055           00030                           ADRES    NOUPFLAG
001200:
001201: 43,3056           02117                           TC       GOPIN
001202:


001204:                                                                                                  #           SYSTEST     VERB 92             DESCRIPTION
001205:                                                                                                  #             OPERATE IMU PERFORMANCE TEST.
001206:                                                                                                  #               1. REQUIRE PROGRAM 00 OR TURN ON OPERATOR ERROR.
001207:                                                                                                  #               2. SET EXT VERB BUSY FLAG.
001208: 43,3057  E5,1417                                  EBANK=   QPLACE
001209:
001210: 43,3057           02121        SYSTEST            TC       CHKPOOH                               #  DEMAND POO
001211:
001212: 43,3060           40077                           CS       FLAGWRD3                              #  DO NOT ALLOW P07 IN FLIGHT
001213: 43,3061           74732                           MASK     NOP07BIT                              #  IF FLAG IS SET, TURN ON OE LITE AND EXIT
001214: 43,3062           00006                           EXTEND
001215: 43,3063           12116                           BZF      ALM/END
001216: 43,3064           02076                           TC       TESTXACT
001217:
001218: 43,3065           37731                           CAF      PRIO22
001219: 43,3066           05076                           TC       FINDVAC
001220: 43,3067  E5,1417                                  EBANK=   QPLACE
001221: 43,3067  37,2000                                  SBANK=   IMUSUPER
001222: 43,3067           02002 76065                     2CADR    REDO
001223:
001224: 43,3071           05146                           TC       ENDOFJOB
001225:
001226:                                                                                                  #  VERB 93         CLEAR RENDWFLG, CAUSES W-MATRIX TO BE RE-INITIALIZED.
001227:
001228: 43,3072           00004        WMATRXNG           INHINT
001229: 43,3073           44744                           CS       RENDWBIT
001230: 43,3074           70101                           MASK     FLAGWRD5
001231: 43,3075           54101                           TS       FLAGWRD5
001232:
001233: 43,3076           02117                           TC       GOPIN
001234:
001235: 43,3077  43,3077               GOSHOSUM           EQUALS   SHOWSUM
001236:
001237: 43,3077           02121        SHOWSUM            TC       CHKPOOH                               #  *
001238: 43,3100           02076                           TC       TESTXACT                              #  *
001239: 43,3101           35012                           CAF      PRIO7                                 #  ALLOW OTHER CHARINS.
001240: 43,3102           05137                           TC       PRIOCHNG
001241: 43,3103           34744                           CAF      S+1                                   #  *
001242: 43,3104           55376                           TS       SKEEP6                                #  * SHOWSUM OPTION
001243: 43,3105           34746                           CAF      S+ZERO                                #  *
001244: 43,3106           55362                           TS       SMODE                                 #  * TURN OFF SELF-CHECK
001245: 43,3107           33250                           CA       SELFADRS                              #  *
001246: 43,3110           55361                           TS       SELFRET                               #  *
001247: 43,3111           03525                           TC       STSHOSUM                              #  * ENTER ROPECHK
001248:
001249: 43,3112           23372        SDISPLAY           LXCH     SKEEP2                                #  * BANK # FOR DISPLAY
001250: 43,3113           23373                           LXCH     SKEEP3                                #  * BUGGER WORD FOR DISPLAY
001251: 43,3114           33247        NOKILL             CA       ADRS1                                 #  *
001252: 43,3115           54156                           TS       MPAC       +2                         #  *
001253: 43,3116           33127                           CA       VNCON                                 #  * 0501


001255: 43,3117           04607                           TC       BANKCALL                              #  *
001256: 43,3120           20323                           CADR     GOXDSPF                               #  *
001257: 43,3121           03124                           TC       +3                                    #  *
001258: 43,3122           03636                           TC       NXTBNK                                #  *
001259: 43,3123           03114                           TC       NOKILL                                #  *
001260: 43,3124           33250                           CA       SELFADRS
001261: 43,3125           55371                           TS       SKEEP1
001262:
001263: 43,3126           05474                           TC       ENDEXT                                #  *
001264:
001265: 43,3127           01201        VNCON              VN       501                                   #  *
001266:
001267: 43,3130           31376        ENDSUMS            CA       SKEEP6                                #  *
001268: 43,3131           00006                           EXTEND                                         #  *
001269: 43,3132           13341                           BZF      SELFCHK                               #  * ROPECHK, START SELFCHK AGAIN.
001270: 43,3133           03525                           TC       STSHOSUM                              #  * START SHOWSUM AGAIN.
001271:


001273:                                                                                                  #           DAPDISP     VERB 48             DESCRIPTION
001274:                                                                                                  #               LOAD AUTO PILOT  DATA
001275:                                                                                                  #               1. REQUIRE EXT VERB DISPLAY AVAILABLE AND SET BUSY FLAG.
001276:                                                                                                  #               2. EXECUTE DAPDATA1, DAPDATA2, AND DAPDATA3.
001277:                                                                                                  #               3. RELEASE EXT VERB DISPLAY SYSTEM.
001278:                                                                                                  #  KEY
001279:                                                                                                  #  THE FOLLOWING IS A KEY TO THE 5 DIGITS OF THE DAP DATA CODE (N46)
001280:
001281:                                                                                                  #  DIGIT A - VEHICLE CONFIGURATION
001282:                                                                                                  #           1 - LM ALONE, ASCENT
001283:                                                                                                  #           2 - LM ALONE, DESCENT
001284:                                                                                                  #           3 - CSM AND LM DOCKED
001285:
001286:                                                                                                  #  DIGIT B - ACCELERATION CODE
001287:                                                                                                  #           0 - 2 JET TRANSLATION, RCS SYSTEM A PREFERRED
001288:                                                                                                  #           1 - 2 JET TRANSLATION, RCS SYSTEM B PREFERRED
001289:                                                                                                  #           2 - 4 JET TRANSLATION, RCS SYSTEM A PREFERRED (NOT MEANINGFUL)
001290:                                                                                                  #           3 - 4 JET TRANSLATION, RCS SYSTEM B PREFERRED (NOT MEANINGFUL)
001291:
001292:                                                                                                  #  DIGIT C - ACA SCALING
001293:                                                                                                  #           0 - FINE
001294:                                                                                                  #           1 - NORMAL
001295:
001296:                                                                                                  #  DIGIT D - DEADBAND
001297:                                                                                                  #           0 - 0.3 DEG
001298:                                                                                                  #           1 - 1.0 DEG
001299:                                                                                                  #           2 - 5.0 DEG
001300:                                                                                                  #          (3 - 5.0 DEG BY DEFAULT)
001301:
001302:                                                                                                  #  DIGIT E - MANEUVER RATE
001303:                                                                                                  #           0 - 0.2 DEG/SEC
001304:                                                                                                  #           1 - 0.5 DEG/SEC
001305:                                                                                                  #           2 - 2.0 DEG/SEC
001306:                                                                                                  #           3 -10.0 DEG/SEC
001307:
001308: 43,3134           02076        DAPDISP            TC       TESTXACT
001309: 43,3135           35012                           CAF      PRIO7                                 #  R03
001310: 43,3136           05137                           TC       PRIOCHNG
001311: 43,3137           04626                           TC       POSTJUMP
001312: 43,3140           40004                           CADR     DAPDATA1
001313: 34,2000                                           BANK     34
001314: 20,2000                                           SETLOC   LOADDAP
001315: 20,2000                                           BANK
001316:
001317: 20,2004                                           COUNT*   $$/R03
001318:
001319: 20,2004  30,2000                                  SBANK=   LOWSUPER                              #  FOR SUBSEQUENT LOW 2CADR'S.
001320:
001321: 20,2004           32114        DAPDATA1           CAF      BOOLSMSK                              #  SET DISPLAY ACCORDING TO DAPBOOLS BITS.
001322: 20,2005           70111                           MASK     DAPBOOLS                              #  LM


001324: 20,2006           55340                           TS       DAPDATR1                              #  LM
001325: 20,2007           40106                           CS       FLGWRD10                              #  SET BIT 14 TO BE COMPLEMENT OF APSFLAG.
001326: 20,2010           74730                           MASK     APSFLBIT
001327: 20,2011           10000                           CCS      A
001328: 20,2012           34727                           CAF      BIT14
001329: 20,2013           27340                           ADS      DAPDATR1
001330: 20,2014           31340        CHKDATA1           CAE      DAPDATR1                              #  IF BITS 13 AND 14 ARE BOTH ZERO, FORCE
001331: 20,2015           74346                           MASK     BIT13-14                              #    A ONE INTO BIT 13.
001332: 20,2016           00006                           EXTEND
001333: 20,2017           12034                           BZF      FORCEONE
001334: 20,2020           31340                           CAE      DAPDATR1                              #  ENSURE THAT NO ILLEGAL BITS SET BY CREW.
001335: 20,2021           72113        MSKDATR1           MASK     DSPLYMSK
001336: 20,2022           55340                           TS       DAPDATR1
001337: 20,2023           32112                           CAF      V04N46                                #  DISPLAY DAP CONFIG. / CHANBKUP
001338: 20,2024           04607                           TC       BANKCALL
001339: 20,2025           20345                           CADR     GOXDSPFR
001340: 20,2026           15474                           TCF      ENDEXT                                #  V34E  TERMINATE
001341: 20,2027           12037                           TCF      DPDAT1                                #  V33E  PROCEED
001342: 20,2030           12014                           TCF      CHKDATA1                              #  E     NEW DATA    CHECK AND REDISPLAY
001343: 20,2031           34742                           CAF      BIT3                                  #  BLANK R3
001344: 20,2032           05466                           TC       BLANKET
001345: 20,2033           15146                           TCF      ENDOFJOB
001346: 20,2034           34730        FORCEONE           CAF      BIT13
001347: 20,2035           27340                           ADS      DAPDATR1
001348: 20,2036           12021                           TCF      MSKDATR1
001349:
001350: 20,2037           00004        DPDAT1             INHINT                                         #  INHINT FOR SETTING OF FLAG BITS AND MASS
001351: 20,2040           44730                           CS       APSFLBIT                              #    ON BASIS OF DISPLAYED DAPDATR1.
001352: 20,2041           70106                           MASK     FLGWRD10
001353: 20,2042           54001                           TS       L                                     #  SET APSFLAG TO BE COMPLEMENT OF BIT 14.
001354: 20,2043           41340                           CS       DAPDATR1
001355: 20,2044           74727                           MASK     BIT14
001356: 20,2045           10000                           CCS      A
001357: 20,2046           34730                           CAF      APSFLBIT
001358: 20,2047           60001                           AD       L
001359: 20,2050           54106                           TS       FLGWRD10
001360: 20,2051           41340                           CS       DAPDATR1                              #  SET BITS OF DAPBOOLS ON BASIS OF DISPLAY
001361: 20,2052           74346                           MASK     BIT13-14                              #    MASK OUT CSMDOCKD (BIT 13) UNLESS BOTH
001362: 20,2053           10000                           CCS      A                                     #    13 AND 14 ARE SET.
001363: 20,2054           44730                           CS       CSMDOCKD
001364: 20,2055           62114                           AD       BOOLSMSK
001365: 20,2056           71340                           MASK     DAPDATR1
001366: 20,2057           54001                           TS       L
001367: 20,2060           42114                           CS       BOOLSMSK
001368: 20,2061           70111                           MASK     DAPBOOLS
001369: 20,2062           60001                           AD       L
001370: 20,2063           54111                           TS       DAPBOOLS
001371: 20,2064           74730                           MASK     CSMDOCKD                              #  LOAD MASS IN ACCORDANCE WITH CSMDOCKD.
001372: 20,2065           10000                           CCS      A                                     #    MASS IS USUALLY ALREADY OKAY, SO DO
001373: 20,2066           31327                           CAE      CSMMASS                               #    NOT TOUCH ITS LOW-ORDER PART.


001375: 20,2067           61326                           AD       LEMMASS
001376: 20,2070           55243                           TS       MASS
001377: 20,2071           30111                           CAE      DAPBOOLS
001378: 20,2072           74732                           MASK     ACC4OR2X                              #  2 OR 4 JET X-TRANSLATION
001379: 20,2073           00006                           EXTEND                                         #  (BIT ACC4OR2X = 1 FOR 4 JETS)
001380: 20,2074           12101                           BZF      +5
001381: 20,2075           44726                           CS       BIT15
001382: 20,2076           70075                           MASK     FLAGWRD1                              #  CLEAR NJTSFLAG TO 0 FOR 4 JETS
001383: 20,2077           54075                           TS       FLAGWRD1
001384: 20,2100           12104                           TCF      +4
001385: 20,2101           40075                           CS       FLAGWRD1                              #  SET NJTSFLAG TO 1 FOR 2 JETS
001386: 20,2102           74726                           MASK     BIT15
001387: 20,2103           26075                           ADS      FLAGWRD1
001388: 20,2104           30111                           CA       DAPBOOLS                              #  SELECT DESIRED KALCMANU AUTOMATIC
001389: 20,2105           76266                           MASK     THREE                                 #  MANEUVER RATE
001390: 20,2106           60000                           DOUBLE                                         #  RATEINDX HAS TO BE 0,2,4,6 SINCE RATES
001391: 20,2107           55322                           TS       RATEINDX                              #  ARE DP
001392: 20,2110           04626                           TC       POSTJUMP
001393: 20,2111           02214                           CADR     STIKLOAD
001394:
001395: 20,2112           01056        V04N46             VN       0446
001396: 20,2113           33133        DSPLYMSK           OCT      33133
001397: 20,2114           13133        BOOLSMSK           OCT      13133
001398: 01,2214                                           BANK     01
001399: 01,2000                                           SETLOC   LOADDAP1
001400: 01,2000                                           BANK
001401:
001402: 01,2214                                           COUNT*   $$/R03
001403:
001404: 01,2214           35006        STIKLOAD           CAF      EBANK6
001405: 01,2215           54003                           TS       EBANK
001406: 01,2216  E6,1444                                  EBANK=   STIKSENS
001407: 01,2216           34736                           CA       RHCSCALE                              #  SET STICK SENSITIVITY TO CORRESPOND TO A
001408: 01,2217           70111                           MASK     DAPBOOLS                              #  MAXIMUM COMMANDED RATE (AT 42 COUNTS) OF
001409: 01,2220           10000                           CCS      A                                     #  20 D/S(NORMAL) OR 4 D/S(FINE), SCALED
001410: 01,2221           32343                           CA       NORMAL                                #  AT 45 D/S.
001411: 01,2222           62344                           AD       FINE
001412: 01,2223           55444                           TS       STIKSENS
001413: 01,2224           32346                           CA       -0.6D/S
001414: 01,2225           55476                           TS       -RATEDB                               #  LM-ONLY BREAKOUT LEVEL IS .6 D/S.
001415: 01,2226           34730                           CA       CSMDOCKD                              #  IF CSM-DOCKED, DIVIDE STICK SENSITIVITY
001416: 01,2227           70111                           MASK     DAPBOOLS                              #  BY 10. NORMAL SCALING IS THEN 2 D/S AND
001417: 01,2230           00006                           EXTEND                                         #  FINE SCALING IS 0.4 D/S
001418: 01,2231           12240                           BZF      +7                                    #  BRANCH IF CSM IS NOT DOCKED.
001419: 01,2232           31444                           CA       STIKSENS
001420: 01,2233           00006                           EXTEND
001421: 01,2234           72345                           MP       1/10
001422: 01,2235           55444                           TS       STIKSENS
001423: 01,2236           32347                           CA       -0.3D/S                               #  CSM-DOCKED BREAKOUT LEVEL IS .3 D/S.
001424: 01,2237           55476                           TS       -RATEDB


001426: 01,2240           00003                           RELINT                                         #  PROCEED TO NOUN 47, MASS LOAD,
001427:
001428: 01,2241           32341        DAPDATA2           CAF      V0647
001429: 01,2242           04607                           TC       BANKCALL
001430: 01,2243           20345                           CADR     GOXDSPFR
001431: 01,2244           12252                           TCF      ENDR03                                #  V34E  TERMINATE. FIRST SET DB, DO 1/ACCS
001432: 01,2245           12256                           TCF      DAPDAT2                               #  V33E  PROCEED
001433: 01,2246           12241                           TCF      DAPDATA2                              #        LOAD NEW DATA AND RECYCLE
001434: 01,2247           34742                           CAF      BIT3                                  #  BLANKS R3
001435: 01,2250           05466                           TC       BLANKET                               #             LM
001436: 01,2251           15146                           TCF      ENDOFJOB
001437: 01,2252           00004        ENDR03             INHINT
001438: 01,2253           04665                           TC       IBNKCALL
001439: 01,2254           40115                           CADR     RESTORDB
001440: 01,2255           15474                           TCF      ENDEXT                                #  DOES RELINT
001441:
001442: 01,2256           40106        DAPDAT2            CS       FLGWRD10                              #  DETERMINE STAGE FROM APSFLAG
001443: 01,2257           74730                           MASK     APSFLBIT
001444: 01,2260           10000                           CCS      A
001445: 01,2261           32000                           CA       MINLMD
001446: 01,2262           62001                           AD       MINMINLM
001447: 01,2263           61326                           AD       LEMMASS                               #  LEMMASS MUST BE GREATER THAN EMPTY LEM
001448: 01,2264           00006                           EXTEND
001449: 01,2265           62241                           BZMF     DAPDATA2                              #  ASK FOR NEW MASSES
001450: 01,2266           30111                           CAE      DAPBOOLS
001451: 01,2267           74730                           MASK     CSMDOCKD
001452: 01,2270           00006                           EXTEND
001453: 01,2271           12277                           BZF      LEMALONE                              #  SKIP TEST ON CSMMASS IF NOT DOCKED.
001454: 01,2272           44732                           CS       MINCSM                                #  TEST CSM MASS
001455: 01,2273           61327                           AD       CSMMASS                               #  CSMMASS MUST BE GREATER THAN EMPTY CSM
001456: 01,2274           00006                           EXTEND
001457: 01,2275           62241                           BZMF     DAPDATA2                              #  ASK FOR NEW MASSES
001458: 01,2276           31327                           CAE      CSMMASS                               #  DOCKED:  MASS = CSMMASS + LEMMASS
001459: 01,2277           61326        LEMALONE           AD       LEMMASS                               #  LEM ALONE:  MASS = LEMMASS
001460: 01,2300           22007                           ZL
001461: 01,2301           53244                           DXCH     MASS
001462: 01,2302           00004                           INHINT
001463: 01,2303           04665                           TC       IBNKCALL                              #  SET DEADBANK AND COMPUTE MOMENTS OF
001464: 01,2304           40115                           CADR     RESTORDB                              #    INERTIA.
001465: 01,2305           00003                           RELINT                                         #  PROCEED TO NOUN 48 (OR END).
001466:
001467: 01,2306           40106        DAPDATA3           CS       FLGWRD10
001468: 01,2307           74730                           MASK     APSFLBIT
001469: 01,2310           00006                           EXTEND                                         #  END ROUTINE IF LEM HAS STAGED,
001470: 01,2311           15474                           BZF      ENDEXT
001471: 01,2312           32342                           CAF      V06N48                                #  DISPLAY TRIM ANGLES AND REQUEST RESPONSE
001472: 01,2313           04607                           TC       BANKCALL
001473: 01,2314           20345                           CADR     GOXDSPFR
001474: 01,2315           05474                           TC       ENDEXT
001475: 01,2316           12323                           TCF      DPDAT3                                #  V33E GO DO TRIM (WAITLIST TO TRIMGIMB)
001476:


001478: 01,2317           12312                           TCF      -5                                    #       LOAD NEW DATA AND RECYCLE
001479: 01,2320           34742                           CAF      BIT3
001480: 01,2321           05466                           TC       BLANKET                               #  BLANK R3
001481: 01,2322           15146                           TCF      ENDOFJOB
001482: 01,2323           34744        DPDAT3             CAF      BIT1
001483: 01,2324           05205                           TC       WAITLIST
001484: 01,2325  E6,1401                                  EBANK=   ROLLTIME
001485: 01,2325           03221 56066                     2CADR    TRIMGIMB
001486:
001487: 01,2327           15146                           TCF      ENDOFJOB                              #  DOES A RELINT
001488: 01,2330           32342        TRIMDONE           CAF      V50N48
001489: 01,2331           04607                           TC       BANKCALL                              #  TRIM IS FINISHED; PLEASE TERMINATE R03
001490: 01,2332           20353                           CADR     GOMARK3R   -1
001491: 01,2333           05474                           TC       ENDEXT                                #  V34E TERMINATE
001492: 01,2334           05474                           TC       ENDEXT
001493: 01,2335           05474                           TC       ENDEXT
001494: 01,2336           36007                           CAF      OCT24                                 #  BIT5 TO CHANGE TO PERFORM, 3 TO BLANK R3
001495: 01,2337           05466                           TC       BLANKET
001496: 01,2340           15146                           TCF      ENDOFJOB
001497:
001498: 01,2341           01457        V0647              VN       0647
001499: 01,2342           01460        V06N48             VN       0648
001500:
001501: 01,2343  01,2342               V50N48             =        V06N48
001502:
001503: 01,2343           25101        NORMAL             DEC      .660214
001504:                                                                                                  #  NORMAL SCALING IS 20 D/S
001505: 01,2344           05220        FINE               DEC      .165054                               #  FINE STICK SCALING (4 D/S).
001506: 01,2345           03146        1/10               DEC      .1                                    #  FACTOR FOR CSM-DOCKED SCALING
001507: 01,2346           77445        -0.6D/S            DEC      -218       B-14
001508: 01,2347           77622        -0.3D/S            DEC      -109       B-14
001509:


001511:                                                                                                  #  VERB 66.  VEHICLES ARE ATTACHED.  MOVE THIS VEHICLE STATE VECTOR TO
001512:                                                                                                  #            OTHER VEHICLE STATE VECTOR.
001513:
001514:                                                                                                  #      USE SUBROUTINE GENTRAN.
001515:
001516: 07,2607                                           BANK     7
001517: 43,2000                                           SETLOC   EXTVERBS
001518: 43,2000                                           BANK
001519:
001520: 43,3141                                           COUNT*   $$/EXTVB
001521:
001522: 43,3141  E3,1626                                  EBANK=   RRECTHIS
001523:
001524: 43,3141           40104        ATTACHED           CS       FLAGWRD8
001525: 43,3142           74735                           MASK     SURFFBIT
001526: 43,3143           00006                           EXTEND
001527: 43,3144           12116                           BZF      ALM/END                               #  TURN ON OE AND EXIT IF SURFFLAG SET.
001528: 43,3145           34730                           CAF      PRIO10
001529: 43,3146           05076                           TC       FINDVAC
001530: 43,3147  E3,1626                                  EBANK=   RRECTHIS
001531:
001532: 43,3147           03152 66103                     2CADR    ATTACHIT
001533:
001534: 43,3151           05146                           TC       ENDOFJOB
001535:
001536: 43,3152           06060        ATTACHIT           TC       INTPRET
001537: 43,3153           77624                           CALL
001538: 43,3154           27447                                    INTSTALL
001539: 43,3155           43014                           SET      BON
001540: 43,3156           04063                                    MOONOTH
001541: 43,3157           04304                                    MOONTHIS
001542: 43,3160           67163                                    +3
001543: 43,3161           77614                           CLEAR
001544: 43,3162           04263                                    MOONOTH
001545: 43,3163           77776                           EXIT
001546: 43,3164           33207                           CAF      OCT51
001547: 43,3165           05546                           TC       GENTRAN
001548: 43,3166           01626                           ADRES    RRECTHIS                              #  OUR STATE VECTOR INTO OTHER VIA GENTRAN
001549: 43,3167           01554                           ADRES    RRECTOTH
001550:
001551: 43,3170           00003                           RELINT
001552: 43,3171           06060                           TC       INTPRET
001553: 43,3172           77624                           CALL                                           #  UPDATE R-OTHER, V-OTHER
001554: 43,3173           27016                                    PTOALEM
001555: 43,3174           45154                           LXA,2    CALL
001556: 43,3175           02030                                    PBODY
001557: 43,3176           26114                                    SVDWN1
001558: 43,3177           77776                           EXIT
001559:
001560: 43,3200           33210                           CAF      TCPINAD


001562: 43,3201           50120                           INDEX    FIXLOC
001563: 43,3202           54052                           TS       QPRET
001564: 43,3203           04626                           TC       POSTJUMP
001565: 43,3204           27460                           CADR     INTWAKE                               #  FREE INTEGRATION AND EXIT.
001566:
001567: 43,3205           77634        TCPIN              RTB
001568: 43,3206           21062                                    PINBRNCH
001569:
001570: 43,3207           00051        OCT51              OCT      51
001571: 43,3210           67205        TCPINAD            CADR     TCPIN
001572:
001573:                                                                                                  #  VERB 96  SET QUITFLAG TO STOP INTEGRATION.
001574:
001575:                                                                                                  #           GO TO V37 WITH ZERO TO CAUSE POO.
001576:                                                                                                  #           STATEINT WILL CHECK QUITFLAG AND SKIP 1ST PASS,
001577:                                                                                                  #                  THUS ALLOWING A 10 MINUTE PERIOD WITHOUT INTEGRATION.
001578:
001579: 43,3211           05506        VERB96             TC       UPFLAG                                #  QUITFLAG WILL CAUSE INTEGRATION TO EXIT
001580: 43,3212           00221                           ADRES    QUITFLAG                              #     AT NEXT TIMESTEP
001581:
001582: 43,3213           34746                           CAF      ZERO
001583: 43,3214           04626                           TC       POSTJUMP
001584: 43,3215           10054                           CADR     V37                                   #  GO TO POO
001585:
001586:
001587:                                                                                                  #  VERB 67 :   DISPLAY OF W MATRIX
001588:
001589: 43,3216           02076        V67                TC       TESTXACT
001590: 43,3217           35010                           CAF      PRIO5
001591: 43,3220           05076                           TC       FINDVAC
001592: 43,3221  E4,1571                                  EBANK=   WWPOS
001593: 43,3221           02007 62064                     2CADR    V67CALL
001594:
001595: 43,3223           05146                           TC       ENDOFJOB
001596:
001597:                                                                                                  #  VERB 65         DISABLE U,V JETS DURING DPS BURNS
001598:
001599: 43,3224           05506        SNUFFOUT           TC       UPFLAG
001600: 43,3225           00115                           ADRES    SNUFFER
001601: 43,3226           02117                           TC       GOPIN
001602:
001603:                                                                                                  #  VERB 75         ENABLE U,V JETS DURING DPS BURNS
001604:
001605: 43,3227           05520        OUTSNUFF           TC       DOWNFLAG
001606: 43,3230           00115                           ADRES    SNUFFER
001607: 43,3231           02117                           TC       GOPIN
001608:                                                                                                  #  VERB 85         DISPLAY RR LOS AZIMUTH AND ELEVATION.
001609:
001610:                                                                                                  #           AZIMUTH IS THE ANGLE BETWEEN THE LOS AND THE X-Z NB PLANE, 0 - 90 DEG IN THE +Y HEMISPHERE,
001611:                                                                                                  #  360 - 270 DEG IN THE -Y HEMISPHERE.
001612:


001614:                                                                                                  #           ELEVATION IS THE ANGLE BETWEEN +ZNB AND THE PROJECTION OF THE LOS INTO THE X-Z PLANE, 0 - 360 ABOUT +Y.
001615:
001616: 43,3232  E4,1571                                  EBANK=   RR-AZ
001617: 43,3232           02076        VERB85             TC       TESTXACT
001618: 43,3233           04626                           TC       POSTJUMP
001619: 43,3234           62000                           CADR     DSPRRLOS
001620:
001621: 41,2000                                           SETLOC   PINBALL2
001622: 41,2000                                           BANK
001623:
001624: 41,2000                                           COUNT*   $$/EXTVB
001625:
001626: 41,2000           35010        DSPRRLOS           CAF      PRIO5
001627: 41,2001           05076                           TC       FINDVAC
001628: 41,2002  E4,1571                                  EBANK=   RR-AZ
001629: 41,2002           02000 60104                     2CADR    RRLOSDSP
001630:
001631: 41,2004           34731                           CAF      PRIO4
001632: 41,2005           05137                           TC       PRIOCHNG
001633: 41,2006           32017                           CAF      V16N56
001634: 41,2007           04607                           TC       BANKCALL
001635: 41,2010           20345                           CADR     GOMARKFR
001636: 41,2011           05565                           TC       B5OFF
001637: 41,2012           05565                           TC       B5OFF
001638: 41,2013           05565                           TC       B5OFF
001639:
001640: 41,2014           34742                           CAF      BIT3
001641: 41,2015           05466                           TC       BLANKET
001642: 41,2016           05146                           TC       ENDOFJOB
001643:
001644: 41,2017           04070        V16N56             VN       1656
001645:
001646:
001647: 40,2000                                           SETLOC   PINBALL1
001648: 40,2000                                           BANK
001649:
001650: 40,2000           00006        RRLOSDSP           EXTEND
001651: 40,2001           30036                           DCA      CDUT
001652: 40,2002           52155                           DXCH     MPAC
001653: 40,2003           06060                           TC       INTPRET
001654: 40,2004           77624                           CALL
001655: 40,2005           46065                                    RRNBMPAC                              #  GET RR LOS IN BODY AXIS.
001656: 40,2006           00001                           STORE    0D                                    #  UNIT LOS
001657: 40,2007           14007                           STODL    6D
001658: 40,2010           06505                                    HI6ZEROS
001659: 40,2011           24011                           STOVL    8D
001660: 40,2012           00007                                    6D
001661: 40,2013           77656                           UNIT
001662: 40,2014           00007                           STORE    6D                                    #  UNIT OF LOS PROJ IN X-Z PLANE
001663: 40,2015           77641                           DOT


001665: 40,2016           06477                                    UNITZ
001666: 40,2017           24021                           STOVL    COSTH                                 #  16D
001667: 40,2020           06503                                    UNITX
001668: 40,2021           77641                           DOT
001669: 40,2022           00007                                    6D
001670: 40,2023           34023                           STCALL   SINTH                                 #  18D
001671: 40,2024           47303                                    ARCTRIG
001672: 40,2025           43244                           BPL      DAD                                   #  INSURE DISPLAY OF 0 - 360 DEG.
001673: 40,2026           60030                                    +2
001674: 40,2027           06513                                    DPPOSMAX                              #  INTRODUCES AN ERROR OF B-28 REVS.
001675: 40,2030           26174                           STOVL    RR-ELEV
001676: 40,2031           00001                                    0D
001677: 40,2032           77641                           DOT
001678: 40,2033           06501                                    UNITY
001679: 40,2034           24023                           STOVL    SINTH
001680: 40,2035           00001                                    0D
001681: 40,2036           77641                           DOT
001682: 40,2037           00007                                    6D
001683: 40,2040           34021                           STCALL   COSTH
001684: 40,2041           47303                                    ARCTRIG
001685: 40,2042           43244                           BPL      DAD                                   #  INSURE DISPLAY OF 0 - 360 DEG.
001686: 40,2043           60045                                    +2
001687: 40,2044           06513                                    DPPOSMAX                              #  INTRODUCES AN ERROR OF B-28 REVS.
001688: 40,2045           02172                           STORE    RR-AZ
001689: 40,2046           77776                           EXIT
001690: 40,2047           34770                           CA       1SEC
001691: 40,2050           04607                           TC       BANKCALL
001692: 40,2051           01736                           CADR     DELAYJOB
001693:
001694: 40,2052           34740                           CA       BIT5
001695: 40,2053           71043                           MASK     EXTVBACT
001696: 40,2054           10000                           CCS      A
001697: 40,2055           02000                           TC       RRLOSDSP
001698: 40,2056           05474                           TC       ENDEXT

End of include-file EXTENDED_VERBS.agc.  Parent file is MAIN.agc


