
Source Code


000002:                                                                                                  ## Copyright:   Public domain.
000003:                                                                                                  ## Filename:    FIXED-FIXED_CONSTANT_POOL.agc
000004:                                                                                                  ## Purpose:     A section of Luminary revision 210.
000005:                                                                                                  ##              It is part of the source code for the Lunar Module's (LM)
000006:                                                                                                  ##              Apollo Guidance Computer (AGC) for Apollo 15-17.
000007:                                                                                                  ##              This file is intended to be a faithful transcription, except
000008:                                                                                                  ##              that the code format has been changed to conform to the
000009:                                                                                                  ##              requirements of the yaYUL assembler rather than the
000010:                                                                                                  ##              original YUL assembler.
000011:                                                                                                  ## Reference:   pp. 1093-1097
000012:                                                                                                  ## Assembler:   yaYUL
000013:                                                                                                  ## Contact:     Ron Burkey <info@sandroid.org>.
000014:                                                                                                  ## Website:     www.ibiblio.org/apollo/index.html
000015:                                                                                                  ## Mod history: 2016-11-17 JL   Created from Luminary131 version.
000016:                                                                                                  ##              2016-12-05 RRB  Updated from Luminary210.
000017:
000018:


000020:    4723                                           BLOCK    02
000021:    4723                                           COUNT*   $$/FCONS
000022:
000023:                                                                                                  #  THE FOLLOWING TABLE OF 18 VALUES IS INDEXED.  DO NOT INSERT OR REMOVE ANY QUANTITIES
000024:
000025:    4723           37777        DPOSMAX            OCT      37777                                 #  MUST PRECEDE POSMAX
000026:    4724           37777        POSMAX             OCT      37777
000027:
000028:    4725     4725               LIMITS             =        NEG1/2
000029:
000030:    4725           57777        NEG1/2             OCT      -20000                                #  USED BY SIN ROUTINE (MUST BE TWO
000031:                                                                                                  #  LOCATIONS IN FRONT OF BIT14)
000032:
000033:                                                                                                  #  BIT TABLE
000034:
000035:    4726           40000        BIT15              OCT      40000
000036:    4727           20000        BIT14              OCT      20000
000037:    4730           10000        BIT13              OCT      10000
000038:    4731           04000        BIT12              OCT      04000
000039:    4732           02000        BIT11              OCT      02000
000040:    4733           01000        BIT10              OCT      01000
000041:    4734           00400        BIT9               OCT      00400
000042:    4735           00200        BIT8               OCT      00200
000043:    4736           00100        BIT7               OCT      00100
000044:    4737           00040        BIT6               OCT      00040
000045:    4740           00020        BIT5               OCT      00020
000046:    4741           00010        BIT4               OCT      00010
000047:    4742           00004        BIT3               OCT      00004
000048:    4743           00002        BIT2               OCT      00002
000049:    4744           00001        BIT1               OCT      00001
000050:
000051:                                                                                                  #  DO NOT DESTROY THIS COMBINATION, SINCE IT IS USED IN DOUBLE PRECISION INSTRUCTIONS.
000052:    4745           77777        NEG0               OCT      -0                                    #  MUST PRECEDE ZERO
000053:    4746           00000        ZERO               OCT      0                                     #  MUST FOLLOW NEG0
000054:                                                                                                  #  BIT1          OCT     00001
000055:                                                                                                  #  NO.WDS        OCT     2               # INTERPRETER
000056:                                                                                                  #  OCTAL3        OCT     3               # INTERPRETER
000057:                                                                                                  #  R3D1          OCT     4               # PINBALL
000058:    4747           00005        FIVE               OCT      5
000059:                                                                                                  #  REVCNT        OCT     6               # INTERPRETER
000060:    4750           00007        SEVEN              OCT      7
000061:                                                                                                  #  BIT4          OCT     00010
000062:                                                                                                  #  R2D1          OCT     11              # PINBALL
000063:    4751     4311               OCT11              =        R2D1                                  #  P20S
000064:                                                                                                  #  BINCON        DEC     10              # PINBALL               (OCTAL 12)
000065:    4751           00013        ELEVEN             DEC      11         B-14
000066:                                                                                                  #  OCT14         OCT     14              # ALARM AND ABORT (FILLER)
000067:    4752           00015        OCT15              OCT      15
000068:                                                                                                  #  R1D1          OCT     16              # PINBALL
000069:    4753           00017        LOW4               OCT      17


000071:                                                                                                  #  BIT5          OCT     00020
000072:                                                                                                  #  NC1           OCT     21              # PINBALL
000073:                                                                                                  #  VD1           OCT     23              # PINBALL
000074:                                                                                                  #  OCT24         OCT     24              # SERVICE ROUTINES
000075:                                                                                                  #  MD1           OCT     25              # PINBALL
000076:    4754           00030        BITS4&5            OCT      30
000077:                                                                                                  #  OCT31         OCT     31              # SERVICE ROUTINES
000078:    4755           00033        OCT33              OCT      33
000079:                                                                                                  #  DEC27         =       OCT33
000080:    4756           00035        OCT35              OCT      35
000081:                                                                                                  #  DEC29         =       OCT35
000082:    4757           00032        CALLCODE           OCT      00032
000083:                                                                                                  #  LOW5          OCT     37              # PINBALL
000084:                                                                                                  #  33DEC         DEC     33              # PINBALL               (OCTAL 41)
000085:                                                                                                  #  34DEC         DEC     34              # PINBALL               (OCTAL 42)
000086:    4760           00045        TBUILDFX           DEC      37         B-14                       #  BUILDUP FOR CONVENIENCE IN DAPTESTING
000087:    4761           00046        TDECAYFX           DEC      38         B-14                       #  CONVENIENCE FOR DAPTESTING
000088:                                                                                                  #  BIT6          OCT     00040
000089:    4762           00050        OCT50              OCT      50
000090:    4763           00055        DEC45              DEC      45         B-14
000091:    4764           00060        SUPER011           OCT      60                                    #  BITS FOR SUPERBNK SETTING 011.
000092:    4765           00062        .5SEC              DEC      50         B-14
000093:                                                                                                  #  BIT7          OCT     00100
000094:
000095:    4766     4736               SUPER100           =        BIT7                                  #  BITS FOR SUPERBNK SETTING 100
000096:                                                                                                  #  (LAST 4K OF ROPE)
000097:    4766           00120        SUPER101           OCT      120                                   #  BITS FOR SUPERBNK SETTING 101
000098:                                                                                                  #  OCT121        OCT     121             # SERVICE ROUTINES
000099:                                                                                                  #  (FIRST 8K OF ACM)
000100:    4767           00140        SUPER110           OCT      140                                   #  BITS FOR SUPERBNK SETTING 110.
000101:                                                                                                  #  (LAST BK OF ACM)
000102:    4770           00144        1SEC               DEC      100        B-14
000103:                                                                                                  #  LOW7          OCT     177             # INTERPRETER
000104:                                                                                                  #  BIT8          OCT     00200
000105:                                                                                                  #  OT215         OCT     215             # ALARM AND ABORT
000106:                                                                                                  #  8,5           OCT     00220           # P20-P25 SUNDANCE
000107:    4771           00310        2SECS              DEC      200        B-14
000108:                                                                                                  #  LOW8          OCT     377             # PINBALL
000109:                                                                                                  #  BIT9          OCT     00400
000110:    4772           00401        GN/CCODE           OCT      00401                                 #  SET S/C CONTROL SWITCH TO G/N
000111:    4773           00454        3SECS              DEC      300        B-14
000112:    4774           00620        4SECS              DEC      400        B-14
000113:    4775           00777        LOW9               OCT      777
000114:                                                                                                  #  BIT10         OCT     01000
000115:                                                                                                  #  5.5DEGS       DEC     .03056          # P20-P25 SUNDANCE      (OCTAL 00765)
000116:                                                                                                  #  OCT1103       OCT     1103            # ALARM AND ABORT
000117:    4776           01124        C5/2               DEC      .0363551                              #                        (OCTAL 01124)
000118:    4777           01211        V05N09             VN       0509                                  #  (SAME AS OCTAL 1211)
000119:    5000           01400        OCT1400            OCT      01400
000120:    5001           01426        V06N22             VN       0622


000122:                                                                                                  #  MID5          OCT     1740            # PINBALL
000123:    5002           01776        BITS2-10           OCT      1776
000124:    5003           01777        LOW10              OCT      1777
000125:                                                                                                  #  BIT11         OCT     02000
000126:                                                                                                  #  2K+3          OCT     2003            # PINBALL
000127:    5004           02177        LOW7+2K            OCT      2177                                  #  OP CODE MASK + BANK 1 FBANK SETTING
000128:    5005           02400        EBANK5             OCT      02400
000129:    5006           03000        PRIO3              OCT      03000
000130:    5007           03400        EBANK7             OCT      03400
000131:                                                                                                  #  LOW11         OCT     3777            # PINBALL
000132:                                                                                                  #  BIT12         OCT     04000
000133:                                                                                                  #  RELTAB        OCT     04025           # T4RUPT
000134:    5010           05000        PRIO5              OCT      05000
000135:    5011           06000        PRIO6              OCT      06000
000136:    5012           07000        PRIO7              OCT      07000
000137:
000138:                                                                                                  #  BIT13         OCT     10000
000139:                                                                                                  #                OCT     10003           # T4RUPT        RELTAB +1D
000140:                                                                                                  #  13,7,2        OCT     10102           # P20-P25 SUNDANCE
000141:    5013           11000        PRIO11             OCT      11000
000142:                                                                                                  #  PRIO12        OCT     12000           # BANKCALL
000143:    5014           13000        PRIO13             OCT      13000
000144:    5015           14000        PRIO14             OCT      14000
000145:                                                                                                  #                OCT     14031           # T4RUPT        RELTAB +2D
000146:    5016           15000        PRIO15             OCT      15000
000147:    5017           16000        PRIO16             OCT      16000
000148:                                                                                                  #  85DEGS        DEC     .45556          # P20-P25 SUNDANCE      (OCTAL 16450)
000149:    5020           17000        PRIO17             OCT      17000
000150:    5021           17770        OCT17770           OCT      17770
000151:                                                                                                  #  BIT14         OCT     20000
000152:                                                                                                  #                OCT     20033           # T4RUPT        RELTAB +3D
000153:    5022           21000        PRIO21             OCT      21000
000154:    7731                                           BLOCK    03
000155:    7731                                           COUNT*   $$/FCONS
000156:    7731           22000        PRIO22             OCT      22000                                 #  SERVICE ROUTINES
000157:    7732           23000        PRIO23             OCT      23000
000158:    7733           24000        PRIO24             OCT      24000
000159:                                                                                                  #  5/8+1         OCT     24001           # SINGLE PRECISION SUBROUTINES
000160:                                                                                                  #                OCT     24017           # T4RUPT        RELTAB +4D
000161:    7734           25000        PRIO25             OCT      25000
000162:    7735           26000        PRIO26             OCT      26000
000163:    7736           27000        PRIO27             OCT      27000
000164:                                                                                                  #  CHRPRIO       OCT     30000           # PINBALL
000165:                                                                                                  #                OCT     30036           # T4RUPT        RELTAB +5D
000166:    7737           31000        PRIO31             OCT      31000
000167:    7740           31103        C1/2               DEC      .7853134                              #                        (OCTAL 31103)
000168:    7741           32000        PRIO32             OCT      32000
000169:    7742           33000        PRIO33             OCT      33000
000170:    7743           34000        PRIO34             OCT      34000
000171:                                                                                                  #                OCT     34034           # T4RUPT        RELTAB +6D


000173:    7744           35000        PRIO35             OCT      35000
000174:    7745           36000        PRIO36             OCT      36000
000175:    7746           37000        PRIO37             OCT      37000
000176:    7747           37401        63/64+1            OCT      37401
000177:                                                                                                  #  MID7          OCT     37600           # PINBALL
000178:    7750           37766        OCT37766           OCT      37766
000179:    7751           37774        OCT37774           OCT      37774
000180:    7752           37776        OCT37776           OCT      37776
000181:                                                                                                  #  DPOSMAX       OCT     37777
000182:                                                                                                  #  BIT15         OCT     40000
000183:                                                                                                  #  OCT40001      OCT     40001           # INTERPRETER (CS 1 INSTRUCTION)
000184:    7753           40014        DLOADCOD           OCT      40014
000185:    7754           40015        DLOAD*             OCT      40015
000186:                                                                                                  #                OCT     40023           # T4RUPT        RELTAB +7D
000187:    7755           40040        BIT15+6            OCT      40040
000188:    7756           40200        OCT40200           OCT      40200
000189:                                                                                                  #                OCT     44035           # T4RUPT        RELTAB +8D
000190:                                                                                                  #                OCT     50037           # T4RUPT         RELTAB +9D
000191:                                                                                                  #                OCT     54000           # T4RUPT         RELTAB +10D
000192:    7757           57777        -BIT14             OCT      57777
000193:                                                                                                  #  RELTAB11      OCT     60000           # T4RUPT
000194:    7760           65552        C3/2               DEC      -.3216147                             #                        (OCTAL 65552)
000195:    7761           70000        13,14,15           OCT      70000
000196:    7762           73777        -1/8               OCT      73777
000197:    7763           74000        HIGH4              OCT      74000
000198:    7764           74056        -ENDERAS           DEC      -2001      B-14                       #                        (OCTAL 74056)
000199:                                                                                                  #  HI5           OCT     76000           # PINBALL
000200:    7765           77700        HIGH9              OCT      77700
000201:                                                                                                  #  -ENDVAC       DEC     -45             # INTERPRETER           (OCTAL 77722)
000202:                                                                                                  #  -OCT10        OCT     -10             #                        (OCT 77767)
000203:                                                                                                  #  NEG4          DEC     -4              #                       (OCTAL 77773)
000204:    7766           77774        NEG3               DEC      -3         B-14                       ## In octal to left, "77774 0" is circled - RRB
000205:    7767           77775        NEG2               OCT      77775
000206:    7770           77776        NEGONE             DEC      -1         B-14
000207:


000209:
000210:                                                                                                  #  DEFINED BY EQUALS
000211:
000212:                                                                                                  #  IT WOULD BE TO THE USERS ADVANTAGE TO OCCASIONALLY CHECK ANY OF THESE SYMBOLS IN ORDER TO PREVENT ANY
000213:                                                                                                  #  ACCIDENTAL DEFINITION CHANGES.
000214:
000215:    7771     7770               MINUS1             =        NEG1
000216:    7771     7770               NEG1               =        NEGONE
000217:    7771     4744               ONE                =        BIT1
000218:    7771     4743               TWO                =        BIT2
000219:    7771     6266               THREE              =        OCTAL3
000220:    7771     6266               LOW2               =        THREE
000221:    7771     4742               FOUR               =        BIT3
000222:    7771     6263               SIX                =        REVCNT
000223:    7771     4750               LOW3               =        SEVEN
000224:    7771     4741               EIGHT              =        BIT4
000225:    7771     4311               NINE               =        R2D1
000226:    7771     4354               TEN                =        BINCON
000227:    7771     4751               NOUTCON            =        ELEVEN
000228:    7771     4351               OCT23              =        VD1
000229:    7771     4353               OCT25              =        MD1
000230:    7771     4733               PRIO1              =        BIT10
000231:    7771     5000               EBANK3             =        OCT1400
000232:    7771     4732               PRIO2              =        BIT11
000233:    7771     4766               OCT120             =        SUPER101
000234:    7771     4767               OCT140             =        SUPER110
000235:    7771     4732               2K                 =        BIT11
000236:    7771     4732               EBANK4             =        BIT11
000237:    7771     4731               PRIO4              =        BIT12
000238:    7771     5006               EBANK6             =        PRIO3
000239:    7771     4730               QUARTER            =        BIT13
000240:    7771     4730               PRIO10             =        BIT13
000241:    7771     7704               OCT10001           =        CCSL
000242:    7771     4727               POS1/2             =        HALF
000243:    7771     4727               PRIO20             =        BIT14
000244:    7771     4727               HALF               =        BIT14
000245:    7771     4346               PRIO30             =        CHRPRIO
000246:    7771     4346               BIT13-14           =        PRIO30                                #  INTERPRETER USES IN PROCESSING STORECODE
000247:    7771     6512               OCT30002           =        TLOAD      +1
000248:    7771     7743               B12T14             =        PRIO34
000249:    7771     4726               NEGMAX             =        BIT15
000250:    7771     4726               VLOADCOD           =        BIT15
000251:    7771     6130               VLOAD*             =        OCT40001
000252:    7771     4101               OCT60000           =        RELTAB11
000253:    7771     4341               BANKMASK           =        HI5
000254:

End of include-file FIXED-FIXED_CONSTANT_POOL.agc.  Parent file is MAIN.agc


