
Source Code


000002:                                                                                                  ## Copyright:   Public domain.
000003:                                                                                                  ## Filename:    FLAGWORD_ASSIGNMENTS.agc
000004:                                                                                                  ## Purpose:     A section of Luminary revision 210.
000005:                                                                                                  ##              It is part of the source code for the Lunar Module's (LM)
000006:                                                                                                  ##              Apollo Guidance Computer (AGC) for Apollo 15-17.
000007:                                                                                                  ##              This file is intended to be a faithful transcription, except
000008:                                                                                                  ##              that the code format has been changed to conform to the
000009:                                                                                                  ##              requirements of the yaYUL assembler rather than the
000010:                                                                                                  ##              original YUL assembler.
000011:                                                                                                  ## Reference:   pp. 63-90
000012:                                                                                                  ## Assembler:   yaYUL
000013:                                                                                                  ## Contact:     Ron Burkey <info@sandroid.org>.
000014:                                                                                                  ## Website:     www.ibiblio.org/apollo/index.html
000015:                                                                                                  ## Mod history: 2016-11-17 JL   Created from Luminary131 version.
000016:                                                                                                  ##              2016-11-18 HG   Transcribed
000017:                                                                                                  ##              2016-12-07 HG   Fix P00 -> POO
000018:                                                                                                  ##              2016-12-15 RSB  Proofed comment text with octopus/ProoferComments,
000019:                                                                                                  ##                              and corrected the errors found.
000020:                                                                                                  ##              2017-03-02 RSB  Fixed comment-text errors noticed while proofing
000021:                                                                                                  ##                              Luminary 116.
000022:                                                                                                  ##              2017-08-13 MAS  Fixed comment text and label errors found while
000023:                                                                                                  ##                              transcribing Zerlina 56.


000025:                                                                                                  #          FLAGWORDS 0-11 ARE DOWNLINKED AND CAN BE SET AND CLEARED BY UP-FLAG AND DOWN-FLAG INSTRUCTIONS IN THE
000026:                                                                                                  #                         INTERPRETER. THESE WERE PREVIOUSLY LISTED UNDER "INTERPRETIVE SWITCH BIT ASSIGNMENTS" IN
000027:                                                                                                  #                         THE ERASABLE LOG SECTION. FLAGWORDS 12 & 13 WEREPREVIOUSLY RADMODES AND DAPBOOLS AND
000028:                                                                                                  #                         ARE STILL DOWNLINKED UNDER THOSE NAMES.
000029:
000030:
000031:
000032:                                                                                                  #          ALPHABETICAL LIST OF FLAGWORDS
000033:
000034:
000035:                                                                                                  #  9             25              41                      61        COLUMN NO.
000036:                                                                                                  #  FLAGWORD      DEC. NUMBER     BIT AND FLAG            BIT NAME
000037:
000038:                                                                                                  #  ABTTGFLG      143             BIT 7 FLAG 9            ABTTGBIT
000039:                                                                                                  #  ACCOKFLG      207             BIT 3  FLAG 13          ACCSOKAY
000040:                                                                                                  #  ACC4-2FL      199             BIT 11 FLAG 13          ACC4OR2X
000041:                                                                                                  #  ACMODFLG      032             BIT 13 FLAG 2           ACMODBIT
000042:                                                                                                  #  ALTSCALE      186             BIT 9  FLAG 12          ALTSCBIT
000043:                                                                                                  #  ANTENFLG      183             BIT 12 FLAG 12          ANTENBIT
000044:                                                                                                  #  AORBSFLG      085             BIT 5 FLAG 5            AORBSYST
000045:                                                                                                  #  AORBTFLG      200             BIT 10 FLAG 13          AORBTRAN
000046:                                                                                                  #  APSESW        130             BIT 5  FLAG 8           APSESBIT
000047:                                                                                                  #  APSFLAG       152             BIT 13 FLAG 10          APSFLBIT
000048:                                                                                                  #  ASTNFLAG      108             BIT 12 FLAG 7           ASTNBIT
000049:                                                                                                  #  ATTFLAG       104             BIT 1  FLAG 6           ATTFLBIT
000050:                                                                                                  #  AUTOMODE      193             BIT 2  FLAG 12          AUTOMBIT
000051:                                                                                                  #  AUTR1FLG      209             BIT 1  FLAG 13          AUTRATE1
000052:                                                                                                  #  AUTR2FLG      208             BIT 2  FLAG 13          AUTRATE2
000053:                                                                                                  #  AUXFLAG       103             BIT 2  FLAG 6           AUXFLBIT
000054:                                                                                                  #  AVEGFLAG      115             BIT 5  FLAG 7           AVEGFBIT
000055:                                                                                                  #  AVEMIDSW      149             BIT 1  FLAG 9           AVEMDBIT
000056:                                                                                                  #  AVFLAG        040             BIT 5  FLAG 2           AVFLBIT
000057:                                                                                                  #  CALCMAN2      043             BIT 2  FLAG 2           CALC2BIT
000058:                                                                                                  #  CALCMAN3      042             BIT 3  FLAG 2           CALC3BIT
000059:                                                                                                  #  CDESFLAG      180             BIT 15 FLAG 12          CDESBIT
000060:                                                                                                  #  CMOONFLG      123             BIT 12 FLAG 8           CMOONBIT
000061:                                                                                                  #  COGAFLAG      131             BIT 4  FLAG 8           COGAFBIT
000062:                                                                                                  #  CONTRLFL      163             BIT2 FLAG 10            CONTRLBT
000063:                                                                                                  #  CSMDKFLG      197             BIT 13 FLAG 13          CSMDOCKD
000064:                                                                                                  #  CULTFLAG      053             BIT 7  FLAG 3           CULTBIT
000065:                                                                                                  #  DAPBOOLS                      FLGWRD13
000066:                                                                                                  #  DBSELFLG      206             BIT 4  FLAG 13          DBSELECT
000067:                                                                                                  #  DBSL2FLG      205             BIT 5 FLAG 13           DBSLECT2
000068:                                                                                                  #  DESIGFLG      185             BIT 10 FLAG 12          DESIGBIT
000069:                                                                                                  #  DIDFLAG       016             BIT 14 FLAG 1           DIDFLBIT
000070:                                                                                                  #  DIMOFLAG      059             BIT 1  FLAG 3           DIMOBIT
000071:


000073:                                                                                                  #  DMENFLG       081             BIT 9  FLAG 5           DMENFBIT
000074:                                                                                                  #  DRIFTDFL      202             BIT 8  FLAG 13          DRIFTBIT
000075:                                                                                                  #  DRIFTFLG      030             BIT 15 FLAG 2           DRFTBIT
000076:                                                                                                  #  DSKYFLAG      075             BIT 15 FLAG 5           DSKYFBIT
000077:                                                                                                  #  D6OR9FLG      058             BIT 2  FLAG 3           D6OR9BIT
000078:                                                                                                  #  ENGONFLG      083             BIT 7  FLAG 5           ENGONBIT
000079:                                                                                                  #  ERADFLAG      017             BIT 13 FLAG 1           ERADFBIT
000080:                                                                                                  #  ETPIFLAG      038             BIT 7  FLAG 2           ETPIBIT
000081:                                                                                                  #  FINALFLG      039             BIT 6  FLAG 2           FINALBIT
000082:                                                                                                  #  FLAGWRD0      (000-014)       (STATE +0)
000083:                                                                                                  #  FLAGWRD1      (015-029)       (STATE +1)
000084:                                                                                                  #  FLAGWRD2      (030-044)       (STATE +2)
000085:                                                                                                  #  FLAGWRD3      (045-059)       (STATE +3)
000086:                                                                                                  #  FLAGWRD4      (060-074)       (STATE +4)
000087:                                                                                                  #  FLAGWRD5      (075-089)       (STATE +5)
000088:                                                                                                  #  FLAGWRD6      (090-104)       (STATE +6)
000089:                                                                                                  #  FLAGWRD7      (105-119)       (STATE +7)
000090:                                                                                                  #  FLAGWRD8      (120-134)       (STATE +8D)
000091:                                                                                                  #  FLAGWRD9      (135-149)       (STATE +9D)
000092:                                                                                                  #  FLAP          142             BIT 8  FLAG 9           FLAPBIT
000093:                                                                                                  #  FLGWRD10      (150-164)       (STATE +10D)
000094:                                                                                                  #  FLGWRD11      (165-179)       (STATE +11D)
000095:                                                                                                  #  FLGWRD12      (180-194)       (STATE +12D)
000096:                                                                                                  #  FLGWRD13      (195-209)       (STATE +13D)
000097:                                                                                                  #  FLPC          138             BIT 12 FLAG 9           FLPCBIT
000098:                                                                                                  #  FLPI          139             BIT 11 FLAG 9           FLPIBIT
000099:                                                                                                  #  FLRCS         149             BIT 10 FLAG 9           FLRCSBIT
000100:                                                                                                  #  FLT59FLG      146             BIT 4 FLAG 9            FLT59BIT
000101:                                                                                                  #  FLUNDISP      125             BIT 10 FLAG 8           FLUNDBIT
000102:                                                                                                  #  FLVR          136             BIT 14 FLAG 9           FLVRBIT
000103:                                                                                                  #  FREEFLAG      012             BIT 3  FLAG 0           FREEFBIT
000104:                                                                                                  #  FRSTIME       026             BIT 4 FLAG1             FRSTMBIT
000105:                                                                                                  #  FSPASFLG      005             BIT 10 FLAG 0           FSPASBIT
000106:                                                                                                  #  GLOKFAIL      046             BIT 14 FLAG 3           GLOKFBIT
000107:                                                                                                  #  GMBDRVSW      095             BIT 10 FLAG 6           GMBDRBIT
000108:                                                                                                  #  GUESSW        028             BIT 2  FLAG 1           GUESSBIT
000109:                                                                                                  #  HFAILFLG      167             BIT 13 FLAG 11          HFAILBIT
000110:                                                                                                  #  HFLSHFLG      179             BIT 1  FLAG 11          HFLSHBIT
000111:                                                                                                  #  IDLEFLAG      113             BIT 7  FLAG 7           IDLEFBIT
000112:                                                                                                  #  IGNFLAG       107             BIT 13 FLAG 7           IGNFLBIT
000113:                                                                                                  #  IMPULSW       036             BIT 9  FLAG 2           IMPULBIT
000114:                                                                                                  #  IMUSE         007             BIT 8  FLAG 0           IMUSEBIT
000115:                                                                                                  #  INFINFLG      128             BIT 7  FLAG 8           INFINBIT
000116:                                                                                                  #  INITALGN      133             BIT 2  FLAG 8           INITABIT
000117:                                                                                                  #  INTFLAG       151             BIT 14 FLAG 10          INTFLBIT
000118:                                                                                                  #  INTYPFLG      056             BIT 4  FLAG 3           INTYPBIT
000119:                                                                                                  #  ITSWICH       105             BIT 15 FLAG 7           ITSWBIT
000120:                                                                                                  #  JSWITCH       001             BIT 14 FLAG 0           JSWCHBIT
000121:                                                                                                  #  LETABORT      141             BIT 9  FLAG 9           LETABBIT
000122:                                                                                                  #  LMOONFLG      124             BIT 11 FLAG 8           LMOONBIT
000123:


000125:                                                                                                  #  LOKONSW       010             BIT 5  FLAG 0           LOKONBIT
000126:                                                                                                  #  LOSCMFLG      033             BIT 12 FLAG 2           LOSCMBIT
000127:                                                                                                  #  LRALTFLG      190             BIT 5  FLAG 12          LRALTBIT
000128:                                                                                                  #  LRBYPASS      165             BIT 15 FLAG 11          LRBYBIT
000129:                                                                                                  #  LRINH         172             BIT 8  FLAG 11          LRINHBIT
000130:                                                                                                  #  LRPOSFLG      189             BIT 6  FLAG 12          LRPOSBIT
000131:                                                                                                  #  LRVELFLG      187             BIT 8  FLAG 12          LRVELBIT
000132:                                                                                                  #  LUNAFLAG      048             BIT 12 FLAG 3           LUNABIT
000133:                                                                                                  #  MANUFLAG      106             BIT 14 FLAG 7           MANUFBIT
000134:                                                                                                  #  MGLVFLAG      088             BIT 2  FLAG 5           MGLVFBIT
000135:                                                                                                  #  MIDAVFLG      148             BIT 2  FLAG 9           MIDAVBIT
000136:                                                                                                  #  MIDFLAG       002             BIT 13 FLAG 0           MIDFLBIT
000137:                                                                                                  #  MID1FLAG      147             BIT 3  FLAG 9           MID1BIT
000138:                                                                                                  #  MKOVFLAG      072             BIT 3  FLAG 4           MKOVBIT
000139:                                                                                                  #  MOONFLAG      003             BIT 12 FLAG 0           MOONBIT
000140:                                                                                                  #  MRKIDFLG      060             BIT 15 FLAG 4           MRKIDBIT
000141:                                                                                                  #  MRKNVFLG      066             BIT 9  FLAG 4           MRKNVBIT
000142:                                                                                                  #  MRUPTFLG      070             BIT 5 FLAG 4            MRUPTBIT
000143:                                                                                                  #  MUNFLAG       097             BIT 8 FLAG 6            MUNFLBIT
000144:                                                                                                  #  MWAITFLG      064             BIT 11 FLAG 4           MWAITBIT
000145:                                                                                                  #  NEEDLFLG      011             BIT 4  FLAG 0           NEEDLBIT
000146:                                                                                                  #  NEED2FLG      000             BIT 15 FLAG 0           NEED2BIT
000147:                                                                                                  #  NEWIFLG       122             BIT 13 FLAG 8           NEWIBIT
000148:                                                                                                  #  NJETSFLG      015             BIT 15 FLAG 1           NJETSBIT
000149:                                                                                                  #  NODOFLAG      044             BIT 1  FLAG 2           NODOBIT
000150:                                                                                                  #  NODOP07       049             BIT 11 FLAG 3           NOP07BIT
000151:                                                                                                  #  NOLRREAD      170             BIT 10 FLAG 11          NOLRRBIT
000152:                                                                                                  #  NORMSW        110             BIT 10 FLAG 7           NORMSBIT
000153:                                                                                                  #  NORRMON       086             BIT 4  FLAG 5           NORRMBIT
000154:                                                                                                  #  NOTERFLG      019             BIT 11 FLAG 1           NOTERBIT
000155:                                                                                                  #  NOTHROTL      078             BIT 12 FLAG 5           NOTHRBIT
000156:                                                                                                  #  NOUPFLAG      024             BIT 6  FLAG 1           NOUPFBIT
000157:                                                                                                  #  NPGNCSFL      164             BIT  1 FLAG 10          NPGNCSBY
000158:                                                                                                  #  NRMNVFLG      067             BIT 8  FLAG 4           NRMNVBIT
000159:                                                                                                  #  NRMIDFLG      062             BIT 13 FLAG 4           NRMIDBIT
000160:                                                                                                  #  NRUPTFLG      071             BIT 4  FLAG 4           NRUPTBIT
000161:                                                                                                  #  NTARGFLG      102             BIT 3  FLAG 6           NTARGBIT
000162:                                                                                                  #  NWAITFLG      065             BIT 10 FLAG 4           NWAITBIT
000163:                                                                                                  #  ORBWFLAG      054             BIT 6  FLAG 3           ORBWFBIT
000164:                                                                                                  #  ORDERSW       129             BIT 6  FLAG 8           ORDERBIT
000165:                                                                                                  #  OURRCFLG      198             BIT 12 FLAG 13          OURRCBIT
000166:                                                                                                  #  PDSPFLAG      076             BIT 14 FLAG 5           PDSPFBIT
000167:                                                                                                  #  PFRATFLG      041             BIT 4  FLAG 2           PFRATBIT
000168:                                                                                                  #  PINBRFLG      069             BIT 6  FLAG 4           PINBRBIT
000169:                                                                                                  #  POOHFLAG      045             BIT 15 FLAG 3           POOHBIT
000170:                                                                                                  #  PRECIFLG      052             BIT 8  FLAG 3           PRECIBIT
000171:                                                                                                  #  PRIODFLG      061             BIT 14 FLAG 4           PRIODBIT
000172:                                                                                                  #  PRONVFLG      068             BIT 7  FLAG 4           PRONVBIT
000173:                                                                                                  #  PSTHIGAT      169             BIT 11 FLAG 11          PSTHIBIT
000174:                                                                                                  #  PULSEFLG      195             BIT 15 FLAG 13          PULSES
000175:


000177:                                                                                                  #  P21FLAG       004             BIT 11 FLAG 0           P21FLBIT
000178:                                                                                                  #  P25FLAG       006             BIT 9  FLAG 0           P25FLBIT
000179:                                                                                                  #  P66PROFL      014D            BIT 1 FLAG 0            P66PROBT
000180:                                                                                                  #  P7071FLG      137             BIT 13 FLAG 9           P7071BIT
000181:                                                                                                  #  QUITFLAG      145             BIT 5  FLAG 9           QUITBIT
000182:                                                                                                  #  RADMODES                      FLGWRD12
000183:                                                                                                  #  RASFLAG                       FLGWRD10
000184:                                                                                                  #  RCDUFAIL      188             BIT 7  FLAG 12          RCDUFBIT
000185:                                                                                                  #  RCDU0FLG      182             BIT 13 FLAG 12          RCDU0BIT
000186:                                                                                                  #  REDFLAG       099             BIT 6  FLAG 6           REDFLBIT
000187:                                                                                                  #  REFSMFLG      047             BIT 13 FLAG 3           REFSMBIT
000188:                                                                                                  #  REINTFLG      158             BIT 7  FLAG 10          REINTBIT
000189:                                                                                                  #  REMODFLG      181             BIT 14 FLAG 12          REMODBIT
000190:                                                                                                  #  RENDWFLG      089             BIT 1  FLAG 5           RENDWBIT
000191:                                                                                                  #  REPOSMON      184             BIT 11 FLAG 12          REPOSBIT
000192:                                                                                                  #  RHCSCFLG      203             BIT 7  FLAG 13          RHCSCALE
000193:                                                                                                  #  RNDVZFLG      008             BIT 7  FLAG 0           RNDVZBIT
000194:                                                                                                  #  RNGEDATA      176             BIT 4  FLAG 11          RNGEDBIT
000195:                                                                                                  #  RNGSCFLG      080             BIT 10 FLAG 5           RNGSCBIT
000196:                                                                                                  #  RODFLAG       018             BIT 12 FLAG 1           RODFLBIT
000197:                                                                                                  #  ROTFLAG       144             BIT  6 FLAG 9           ROTFLBIT
000198:                                                                                                  #  RPQFLAG       120             BIT 15 FLAG 8           RPQFLBIT
000199:                                                                                                  #  RRDATAFL      191             BIT 4  FLAG 12          RRDATABT
000200:                                                                                                  #  RRNBSW        009             BIT 6 FLAG 0            RRNBBIT
000201:                                                                                                  #  RRRSFLAG      192             BIT 3  FLAG 12          RRRSBIT
000202:                                                                                                  #  RVSW          111             BIT 9  FLAG 7           RVSWBIT
000203:                                                                                                  #  R04FLAG       051             BIT 9  FLAG 3           R04FLBIT
000204:                                                                                                  #  R10FLAG       013             BIT 2  FLAG 0           R10FLBIT
000205:                                                                                                  #  R12RDFLG      177D            BIT 3  FLAG 11          R12RDBIT
000206:                                                                                                  #  R61FLAG       020             BIT 10 FLAG 1           R61FLBIT
000207:                                                                                                  #  R77FLAG       079             BIT 11 FLAG 5           R77FLBIT
000208:                                                                                                  #  SLOPESW       027             BIT 3  FLAG 1           SLOPEBIT
000209:                                                                                                  #  SNUFFER       077             BIT 13 FLAG 5           SNUFFBIT
000210:                                                                                                  #  SOLNSW        087             BIT 3  FLAG 5           SOLNSBIT
000211:                                                                                                  #  SRCHOPTN      031             BIT 14 FLAG 2           SRCHOBIT
000212:                                                                                                  #  STATEFLG      055             BIT 5  FLAG 3           STATEBIT
000213:                                                                                                  #  STEERSW       034             BIT 11 FLAG 2           STEERBIT
000214:                                                                                                  #  SURFFLAG      127             BIT 8  FLAG 8           SURFFBIT
000215:                                                                                                  #  SWANDISP      109             BIT 11 FLAG 7           SWANDBIT
000216:                                                                                                  #  S32.1F1       090             BIT 15 FLAG 6           S32BIT1
000217:                                                                                                  #  S32.1F2       092             BIT 14 FLAG 6           S32BIT2
000218:                                                                                                  #  S32.1F3A      092             BIT 13 FLAG 6           S32BIT3A
000219:                                                                                                  #  S32.1F3B      093             BIT 12 FLAG 6           S32BIT3B
000220:                                                                                                  #  TFFSW         119             BIT 1  FLAG 7           TFFSWBIT
000221:                                                                                                  #  TRACKFLG      025             BIT 5  FLAG 1           TRACKBIT
000222:                                                                                                  #  TURNONFL      194             BIT 1  FLAG 12          TURNONBT
000223:                                                                                                  #  ULLAGFLG      204             BIT 6  FLAG 13          ULLAGER
000224:                                                                                                  #  UPDATFLG      023             BIT 7  FLAG 1           UPDATBIT
000225:                                                                                                  #  UPLOCKFL      116             BIT 4  FLAG 7           UPLOCBIT
000226:                                                                                                  #  USEQRFLG      196             BIT 14 FLAG 13          USEQRJTS
000227:


000229:                                                                                                  #  VEHUPFLG      022             BIT 8  FLAG 1           VEHUPBIT
000230:                                                                                                  #  VELDATA       173             BIT 7  FLAG 11          VELDABIT
000231:                                                                                                  #  VERIFLAG      117             BIT 3  FLAG 7           VERIFBIT
000232:                                                                                                  #  VFAILFLG      166             BIT 14 FLAG 11          VFAILBIT
000233:                                                                                                  #  VFLAG         050             BIT 10 FLAG 3           VFLAGBIT
000234:                                                                                                  #  VFLSHFLG      178             BIT 2  FLAG 11          VFLSHBIT
000235:                                                                                                  #  VINTFLAG      057             BIT 3  FLAG 3           VINTFBIT
000236:                                                                                                  #  VXINH         168             BIT 12 FLAG 11          VXINHBIT
000237:                                                                                                  #  V37FLAG       114             BIT 6  FLAG 7           V37FLBIT
000238:                                                                                                  #  V67FLAG       112             BIT 8  FLAG 7           V67FLBIT
000239:                                                                                                  #  V82EMFLG      118             BIT 2  FLAG 7           V82EMBIT
000240:                                                                                                  #  XDELVFLG      037             BIT 8  FLAG 2           XDELVBIT
000241:                                                                                                  #  XDSPFLAG      074             BIT 1  FLAG 4           XDSPBIT
000242:                                                                                                  #  XORFLG        171             BIT 9  FLAG 11          XORFLBIT
000243:                                                                                                  #  XOVINFLG      201             BIT 9  FLAG 13          XOVINHIB
000244:                                                                                                  #  ZOOMFLAG      082             BIT 8  FLAG 5           ZOOMBIT
000245:                                                                                                  #  3AXISFLG      084             BIT 6 FLAG 5            3AXISBIT
000246:                                                                                                  #  360SW         134             BIT 1  FLAG 8           360SWBIT
000247:
000248:
000249:
000250:                                                                                                  #           ASSIGNMENT AND DESCRIPTION OF FLAGWORDS
000251:
000252: 26,2024     0074               FLAGWRD0           =        STATE      +0                         #        (000-014)
000253:
000254:                                                                                                  #        (SET)                   (RESET)
000255:                                                                                                  #  BIT 15 FLAG 0 (S)
000256: 26,2024                        NEED2FLG           =        000D                                  #        DISPLAY DAP RATES       CHECK BIT 4 OF THIS
000257: 26,2024     4726               NEED2BIT           =        BIT15                                 #        ON FDAI NEEDLES.        WORD FOR DISPLAY
000258:                                                                                                  #                                MODES (1 OR 2).
000259:
000260:                                                                                                  #  BIT 14 FLAG 0  (S)
000261: 26,2024                        JSWITCH            =        001D                                  #        INTEGRATION OF W        INTEGRATION OF STATE
000262: 26,2024     4727               JSWCHBIT           =        BIT14                                 #        MATRIX                  VECTOR
000263:
000264:
000265:                                                                                                  #  BIT 13 FLAG 0 (S)
000266: 26,2024                        MIDFLAG            =        002D                                  #        INTEGRATION WITH        INTEGRATION WITHOUT
000267:                                                                                                  #        SECONDARY BODY AND      SOLAR PERTURBATIONS
000268: 26,2024     4730               MIDFLBIT           =        BIT13                                 #        SOLAR PERTURBATIONS
000269:
000270:                                                                                                  #  BIT 12 FLAG 0 (L)
000271: 26,2024                        MOONFLAG           =        003D                                  #        MOON IS SPHERE OF       EARTH IS SPHERE OF
000272: 26,2024     4731               MOONBIT            =        BIT12                                 #        INFLUENCE               INFLUENCE
000273:
000274:
000275:                                                                                                  #  BIT 11 FLAG 0
000276:


000278: 26,2024                        P21FLAG            =        004D                                  #        USE BASE VECTORS        1ST PASS -- CALC-
000279: 26,2024     4732               P21FLBIT           =        BIT11                                 #        ALREADY CALCULATED      ULATE BASE VECTORS
000280:
000281:
000282:                                                                                                  #  BIT 10 FLAG 0
000283: 26,2024                        FSPASFLG           =        005D                                  #        FIRST PASS THROUGH      NOT FIRST PASS THRU
000284: 26,2024     4733               FSPASBIT           =        BIT10                                 #        REPOSITION ROUTINE      REPOSITION ROUTINE
000285:
000286:
000287:                                                                                                  #  BIT 9 FLAG 0  (S)
000288: 26,2024                        P25FLAG            =        006D                                  #        P25 OPERATING           P25 NOT OPERATING
000289: 26,2024     4734               P25FLBIT           =        BIT9
000290:
000291:
000292:                                                                                                  #  BIT 8 FLAG 0  (S)
000293: 26,2024                        IMUSE              =        007D                                  #        IMU IN USE              IMU NOT IN USE
000294: 26,2024     4735               IMUSEBIT           =        BIT8
000295:
000296:
000297:                                                                                                  #  BIT 7 FLAG 0  (S)
000298: 26,2024                        RNDVZFLG           =        008D                                  #        P20 RUNNING (RADAR      P20 NOT RUNNING
000299: 26,2024     4736               RNDVZBIT           =        BIT7                                  #        IN USE)
000300:
000301:
000302:                                                                                                  #  BIT 6 FLAG 0  (S)
000303: 26,2024                        RRNBSW             =        009D                                  #        RADAR TARGET IN         RADAR TARGET IN
000304: 26,2024     4737               RRNBBIT            =        BIT6                                  #        NB COORDINATES          SM COORDINATES
000305:
000306:
000307:                                                                                                  #  BIT 5 FLAG 0  (S)
000308: 26,2024                        LOKONSW            =        010D                                  #        RADAR LOCK-ON           RADAR LOCK-ON NOT
000309: 26,2024     4740               LOKONBIT           =        BIT5                                  #        DESIRED                 DESIRED
000310:
000311:
000312:                                                                                                  #  BIT 4 FLAG 0  (S)
000313: 26,2024                        NEEDLFLG           =        011D                                  #        TOTAL ATTITUDE          A/P FOLLOWING
000314: 26,2024     4741               NEEDLBIT           =        BIT4                                  #        ERROR DISPLAYED         ERROR DISPLAYED
000315:
000316:
000317:                                                                                                  #  BIT 3 FLAG 0
000318: 26,2024                        FREEFLAG           =        012D                                  #  (USED BY P51-53 TEMP IN MANY DIFFERENT
000319:                                                                                                  #  ROUTINES & BY LUNAR + SOLAR EPHEMERIDES)
000320: 26,2024     4742               FREEFBIT           =        BIT3
000321:
000322:
000323:                                                                                                  #  BIT 2 FLAG 0
000324: 26,2024                        R10FLAG            =        013D                                  #        R10 OUTPUTS DATA TO     BESIDES OUTPUT WHEN
000325: 26,2024     4743               R10FLBIT           =        BIT2                                  #        ALTITUDE & ALTITUDE     SET, R10 ALSO OUTPUT
000326:                                                                                                  #        RATE METERS ONLY        TO FORWARD & LATERAL
000327:                                                                                                  #                                VELOCITY CROSSPOINTR
000328:


000330:
000331:
000332: 26,2024                        P66PROFL           =        014D                                  #        CONTINUE P66            STOP P66
000333: 26,2024     4744               P66PROBT           =        BIT1                                  #        HORIZONTAL              HORIZONTAL VEL
000334:                                                                                                  #        VELOCITY NULLING        NULLING
000335:
000336:
000337:
000338: 26,2024     0075               FLAGWRD1           =        STATE      +1                         #        (015-029)
000339:
000340:                                                                                                  #        (SET)                   (RESET)
000341:
000342:                                                                                                  #  BIT 15 FLAG 1 (S)
000343: 26,2024                        NJETSFLG           =        015D                                  #        TWO JET RCS BURN        FOUR JET RCS BURN
000344: 26,2024     4726               NJETSBIT           =        BIT15
000345:
000346:
000347:                                                                                                  #  BIT 14 FLAG 1 (L)
000348: 26,2024                        DIDFLAG            =        016D                                  #        INERTIAL DATA IS        PERFORM DATA DISPLAY
000349: 26,2024     4727               DIDFLBIT           =        BIT14                                 #        AVAILABLE               INITIALIZATION FUNCS
000350:
000351:
000352:                                                                                                  #  BIT 13 FLAG 1 (S)
000353: 26,2024                        ERADFLAG           =        017D                                  #        COMPUTE REARTH          USE CONSTANT REARTH
000354: 26,2024     4730               ERADFBIT           =        BIT13                                 #        FISCHER ELLIPSOID       PAD RADIUS
000355:
000356:
000357:                                                                                                  #  BIT 12 FLAG 1
000358: 26,2024                        RODFLAG            =        018D                                  #        IF IN P66, NORMAL       IF IN P66, RE-INIT-
000359: 26,2024     4731               RODFLBIT           =        BIT12                                 #        OPERATION CONTINUES.     IALIZATION IS PER-
000360:                                                                                                  #        RESTART CLEARS FLAG      FORMED AND FLAG IS
000361:
000362:                                                                                                  #  BIT 11 FLAG 1
000363: 26,2024                        NOTERFLG           =        019D                                  #        TERRAIN MODEL           TERRAIN MODEL
000364: 26,2024     4732               NOTERBIT           =        BIT11                                 #        INHIBITED               PERMITTED
000365:
000366:
000367:                                                                                                  #  BIT 10 FLAG 1 (L)
000368: 26,2024                        R61FLAG            =        020D                                  #        RUN R61 LEM             RUN R65 LEM
000369: 26,2024     4733               R61FLBIT           =        BIT10
000370:
000371:                                                                                                  #  BIT 9 FLAG 1
000372:                                                                                                  #                =               021D
000373:                                                                                                  #                =               BIT9
000374:
000375:                                                                                                  #  BIT 8 FLAG 1  (S)
000376:


000378: 26,2024                        VEHUPFLG           =        022D                                  #        CSM STATE VECTOR        LEM STATE VECTOR
000379: 26,2024     4735               VEHUPBIT           =        BIT8                                  #        BEING UPDATED           BEING UPDATED
000380:
000381:
000382:                                                                                                  #  BIT 7 FLAG 1  (S)
000383: 26,2024                        UPDATFLG           =        023D                                  #        UPDATING BY MARKS       UPDATING BY MARKS
000384: 26,2024     4736               UPDATBIT           =        BIT7                                  #        ALLOWED                 NOT ALLOWED
000385:
000386:
000387:                                                                                                  #  BIT 6 FLAG 1  (S)
000388: 26,2024                        NOUPFLAG           =        024D                                  #        NEITHER CSM             EITHER STATE
000389:                                                                                                  #        NOR LM STATE VECTOR     VECTOR MAY BE
000390: 26,2024     4737               NOUPFBIT           =        BIT6                                  #        MAY BE UPDATED          UPDATED
000391:
000392:
000393:                                                                                                  #  BIT 5 FLAG 1  (S)
000394: 26,2024                        TRACKFLG           =        025D                                  #        TRACKING ALLOWED        TRACKING NOT ALLOWED
000395: 26,2024     4740               TRACKBIT           =        BIT5
000396:
000397:
000398:                                                                                                  #  BIT 4 FLAG 1
000399: 26,2024                        FRSTIME            =        026D                                  #        FIRST TIME THRU         NOT FIRST TIME THRU
000400: 26,2024     4741               FRSTMBIT           =        BIT4                                  #        PREPOSITION             PREPOSITION
000401:
000402:
000403:                                                                                                  #  BIT 3 FLAG 1  (S)
000404: 26,2024                        SLOPESW            =        027D                                  #        ITERATE WITH BIAS       ITERATE WITH REGULAR
000405:                                                                                                  #        METHOD IN ITERATOR      FALSI METHOD IN
000406: 26,2024     4742               SLOPEBIT           =        BIT3                                  #                                ITERATOR
000407:
000408:
000409:                                                                                                  #  BIT 2 FLAG 1  (S)
000410: 26,2024                        GUESSW             =        028D                                  #        NO STARTING VALUE       STARTING VALUE FOR
000411: 26,2024     4743               GUESSBIT           =        BIT2                                  #        FOR ITERATION           ITERATION EXISTS
000412:
000413:
000414:                                                                                                  #  BIT 1 FLAG 1
000415:                                                                                                  #                =               029D
000416:
000417:
000418: 26,2024     0076               FLAGWRD2           =        STATE      +2                         #        (030-044)
000419:
000420:                                                                                                  #        (SET)                   (RESET)
000421:
000422:                                                                                                  #  BIT 15 FLAG 2 (S)
000423: 26,2024                        DRIFTFLG           =        030D                                  #        T3RUPT CALLS GYRO       T3RUPT DOES NO GYRO
000424: 26,2024     4726               DRFTBIT            =        BIT15                                 #        COMPENSATION            COMPENSATION
000425:


000428:                                                                                                  #  BIT 14 FLAG 2 (S)
000429:


000431: 26,2024                        SRCHOPTN           =        031D                                  #        RADAR IN AUTOMATIC      RADAR NOT IN AUTO-
000432: 26,2024     4727               SRCHOBIT           =        BIT14                                 #        SEARCH OPTION (R24)     MATIC SEARCH OPTION
000433:
000434:
000435:                                                                                                  #  BIT 13 FLAG 2 (S)
000436: 26,2024                        ACMODFLG           =        032D                                  #        MANUAL ACQUISITION      AUTO ACQUISITION
000437: 26,2024     4730               ACMODBIT           =        BIT13                                 #        BY RENDESVOUS RADAR     BY RENDESVOUS RADAR
000438:
000439:
000440:                                                                                                  #  BIT 12 FLAG 2 (S)
000441: 26,2024                        LOSCMFLG           =        033D                                  #        LINE OF SIGHT BEING     LINE OF SIGHT NOT
000442:                                                                                                  #        COMPUTED (R21)          BEING COMPUTED
000443: 26,2024     4731               LOSCMBIT           =        BIT12
000444:
000445:
000446:                                                                                                  #  BIT 11 FLAG 2 (S)
000447: 26,2024                        STEERSW            =        034D                                  #        SUFFICIENT THRUST       INSUFFICIENT THRUST
000448: 26,2024     4732               STEERBIT           =        BIT11                                 #        IS PRESENT              IS PRESENT
000449:
000450:                                                                                                  #  BIT 10 FLAG 2 (S)
000451:
000452:
000453:                                                                                                  #  BIT 9 FLAG 2 (S)
000454: 26,2024                        IMPULSW            =        036D                                  #        MINIMUM IMPULSE         STEERING BURN (NO
000455:                                                                                                  #        BURN (CUTOFF TIME       CUTOFF TIME YET
000456: 26,2024     4734               IMPULBIT           =        BIT9                                  #        SPECIFIED)              AVAILABLE)
000457:
000458:
000459:                                                                                                  #  BIT 8 FLAG 2 (S)
000460: 26,2024                        XDELVFLG           =        037D                                  #        EXTERNAL DELTAV VG      LAMBERT (AIMPOINT)
000461: 26,2024     4735               XDELVBIT           =        BIT8                                  #        COMPUTATION             VG COMPUTATION
000462:
000463:
000464:                                                                                                  #  BIT 7 FLAG 2 (S)
000465: 26,2024                        ETPIFLAG           =        038D                                  #        ELEVATION ANGLE         TPI TIME SUPPLIED
000466:                                                                                                  #        SUPPLIED FOR            FOR P34,74 TO COMPUT
000467: 26,2024     4736               ETPIBIT            =        BIT7                                  #        P34,74                  ELEVATION
000468:
000469:
000470:                                                                                                  #  BIT 6 FLAG 2 (S)
000471: 26,2024                        FINALFLG           =        039D                                  #        LAST PASS THROUGH       INTERIM PASS THROUGH
000472:                                                                                                  #        RENDEZVOUS PROGRAM      RENDEZVOUS PROGRAM
000473: 26,2024     4737               FINALBIT           =        BIT6                                  #        COMPUTATIONS            COMPUTATIONS
000474:
000475:
000476:                                                                                                  #  BIT 5 FLAG 2 (S)
000477: 26,2024                        AVFLAG             =        040D                                  #        LEM IS ACTIVE           CSM IS ACTIVE
000478: 26,2024     4740               AVFLBIT            =        BIT5                                  #        VEHICLE                 VEHICLE
000479:
000480:


000482:                                                                                                  #  BIT 4 FLAG 2 (S)
000483: 26,2024                        PFRATFLG           =        041D                                  #        PREFERRED ATTITUDE      PREFERRED ATTITUDE
000484: 26,2024     4741               PFRATBIT           =        BIT4                                  #        COMPUTED                NOT COMPUTED
000485:
000486:
000487:                                                                                                  #  BIT 3 FLAG 2 (S)
000488: 26,2024                        CALCMAN3           =        042D                                  #        NO FINAL ROLL           FINAL ROLL IS
000489: 26,2024     4742               CALC3BIT           =        BIT3                                  #                                NECESSARY
000490:
000491:
000492:                                                                                                  #  BIT 2 FLAG 2 (S)
000493: 26,2024                        CALCMAN2           =        043D                                  #        PERFORM MANEUVER        BYPASS STARTING
000494: 26,2024     4743               CALC2BIT           =        BIT2                                  #        STARTING PROCEDURE      PROCEDURE
000495:
000496:
000497:                                                                                                  #  BIT 1 FLAG 2 (S)
000498: 26,2024                        NODOFLAG           =        044D                                  #        V37 NOT PERMITTED       V37 PERMITTED
000499: 26,2024     4744               NODOBIT            =        BIT1
000500:
000501:
000502: 26,2024     0077               FLAGWRD3           =        STATE      +3                         #        (045-059)
000503:
000504:                                                                                                  #        (SET)                   (RESET)
000505:
000506:                                                                                                  #  BIT 15 FLAG 3
000507: 26,2024                        POOHFLAG           =        045D                                  #        INHIBIT BACKWARDS       ALLOW BACKWARDS
000508: 26,2024     4726               POOHBIT            =        BIT15                                 #        INTEGRATION             INTEGRATION
000509:
000510:
000511:                                                                                                  #  BIT 14 FLAG 3 (S)
000512: 26,2024                        GLOKFAIL           =        046D                                  #        GIMBAL LOCK HAS         NOT IN GIMBAL LOCK
000513: 26,2024     4727               GLOKFBIT           =        BIT14                                 #        OCCURRED
000514:
000515:                                                                                                  #  BIT 13 FLAG 3 *** PROTECTED FROM FRESH START ***
000516: 26,2024                        REFSMFLG           =        047D                                  #        REFSMMAT GOOD           REFSMMAT NO GOOD
000517: 26,2024     4730               REFSMBIT           =        BIT13
000518:
000519:
000520:                                                                                                  #  BIT 12 FLAG 3 (S)
000521: 26,2024                        LUNAFLAG           =        048D                                  #        LUNAR LAT-LONG          EARTH LAT-LONG
000522: 26,2024     4731               LUNABIT            =        BIT12
000523:
000524:
000525:                                                                                                  #  BIT 11 FLAG 3 (L)
000526: 26,2024                        NODOP07            =        049D                                  #        SYSTEM TESTS             SYSTEM TESTS
000527: 26,2024     4732               NOP07BIT           =        BIT11                                 #        NOT ALLOWED              ALLOWED
000528:
000529:                                                                                                  #  BIT 10 FLAG 3 (S)
000530:


000532: 26,2024                        VFLAG              =        050D                                  #        LESS THAN TWO STARS     TWO STARS IN FIELD
000533: 26,2024     4733               VFLAGBIT           =        BIT10                                 #        IN FIELD OF VIEW        OF VIEW
000534:
000535:
000536:                                                                                                  #  BIT 9 FLAG 3  (S)
000537: 26,2024                        R04FLAG            =        051D                                  #        R04 RUNNING             R04 NOT RUNNING
000538: 26,2024     4734               R04FLBIT           =        BIT9
000539:
000540:
000541:                                                                                                  #  BIT 8 FLAG 3  (S)
000542: 26,2024                        PRECIFLG           =        052D                                  #        NORMAL INTEGRATION      ENGAGES 4-TIME STEP
000543:                                                                                                  #        IN POO                  (POO) LOGIC IN INTE-
000544: 26,2024     4735               PRECIBIT           =        BIT8                                  #                                GRATION
000545:
000546:
000547:                                                                                                  #  BIT 7 FLAG 3  (S)
000548: 26,2024                        CULTFLAG           =        053D                                  #        STAR OCCULTED           STAR NOT OCCULTED
000549: 26,2024     4736               CULTBIT            =        BIT7
000550:
000551:
000552:                                                                                                  #  BIT 6 FLAG 3  (S)
000553: 26,2024                        ORBWFLAG           =        054D                                  #        W MATRIX VALID FOR      W MATRIX INVALID FOR
000554: 26,2024     4737               ORBWFBIT           =        BIT6                                  #        ORBITAL NAVIGATION      ORBITAL NAVIGATION
000555:
000556:
000557:                                                                                                  #  BIT 5 FLAG 3  (S)
000558: 26,2024                        STATEFLG           =        055D                                  #        PERMANENT STATE         PERMANENT STATE
000559: 26,2024     4740               STATEBIT           =        BIT5                                  #        VECTOR UPDATED          VECTOR NOT UPDATED
000560:
000561:
000562:                                                                                                  #  BIT 4 FLAG 3  (S)
000563: 26,2024                        INTYPFLG           =        056D                                  #        CONIC INTEGRATION       ENCKE INTEGRATION
000564: 26,2024     4741               INTYPBIT           =        BIT4
000565:
000566:
000567:                                                                                                  #  BIT 3 FLAG 3  (S)
000568: 26,2024                        VINTFLAG           =        057D                                  #        CSM STATE VECTOR        LEM STATE VECTOR
000569: 26,2024     4742               VINTFBIT           =        BIT3                                  #        BEING INTEGRATED        BEING INTEGRATED
000570:
000571:
000572:                                                                                                  #  BIT 2 FLAG 3 (S)
000573: 26,2024                        D6OR9FLG           =        058D                                  #        DIMENSION OF W IS 9     DIMENSION OF W IS 6
000574: 26,2024     4743               D6OR9BIT           =        BIT2                                  #        FOR INTEGRATION         FOR INTEGRATION
000575:
000576:
000577:                                                                                                  #  BIT 1 FLAG 3  (S)
000578: 26,2024                        DIM0FLAG           =        059D                                  #        W MATRIX IS TO BE       W MATRIX IS NOT TO
000579: 26,2024     4744               DIM0BIT            =        BIT1                                  #        USED                    BE USED
000580:
000581:


000583: 26,2024     0100               FLAGWRD4           =        STATE      +4                         #        (060-074)
000584:
000585:                                                                                                  #        (SET)                   (RESET)
000586:
000587:                                                                                                  #  BIT 15 FLAG 4 (S)
000588: 26,2024                        MRKIDFLG           =        060D                                  #        MARK DISPLAY IN         NO MARK DISPLAY IN
000589: 26,2024     4726               MRKIDBIT           =        BIT15                                 #        ENDIDLE                 ENDIDLE
000590:
000591:
000592:                                                                                                  #  BIT 14 FLAG 4 (S)
000593: 26,2024                        PRIODFLG           =        061D                                  #        PRIORITY DISPLAY IN     NO PRIORITY DISPLAY
000594: 26,2024     4727               PRIODBIT           =        BIT14                                 #        ENDIDLE                 IN ENDIDLE
000595:
000596:
000597:                                                                                                  #  BIT 13 FLAG 4 (S)
000598: 26,2024                        NRMIDFLG           =        062D                                  #        NORMAL DISPLAY IN       NO NORMAL DISPLAY
000599: 26,2024     4730               NRMIDBIT           =        BIT13                                 #        ENDIDLE                 IN ENDIDLE
000600:
000601:
000602:                                                                                                  #  BIT 12 FLAG 4 (S)
000603:                                                                                                  #  CODE IN        =               063D
000604:                                                                                                  #  DISPLAY AREA   REFERS TO THIS BIT; CHANGES NEEDED IF USED IN FUTURE.
000605:
000606:                                                                                                  #  BIT 11 FLAG 4 (S)
000607: 26,2024                        MWAITFLG           =        064D                                  #        HIGHER PRIORITY         NO HIGHER PRIORITY
000608:                                                                                                  #        DISPLAY OPERATING       DISPLAY OPERATING
000609: 26,2024     4732               MWAITBIT           =        BIT11                                 #        WHEN MARK DISPLAY       WHEN MARK DISPLAY
000610:                                                                                                  #        INITIATED               INITIATED
000611:
000612:                                                                                                  #  BIT 10 FLAG 4 (S)
000613: 26,2024                        NWAITFLG           =        065D                                  #        HIGHER PRIORITY         NO HIGHER PRIORITY
000614:                                                                                                  #        DISPLAY OPERATING       DISPLAY OPERATING
000615: 26,2024     4733               NWAITBIT           =        BIT10                                 #        WHEN NORMAL             WHEN NORMAL DISPLAY
000616:                                                                                                  #        DISPLAY INITIATED       INITIATED
000617:
000618:                                                                                                  #  BIT 9 FLAG 4  (S)
000619: 26,2024                        MRKNVFLG           =        066D                                  #        ASTRONAUT USING         ASTRONAUT NOT USING
000620:                                                                                                  #        KEYBOARD WHEN MARK      KEYBOARD WHEN MARK
000621: 26,2024     4734               MRKNVBIT           =        BIT9                                  #        DISPLAY INITIATED       DISPLAY INITIATED
000622:
000623:
000624:                                                                                                  #  BIT 8 FLAG 4  (S)
000625: 26,2024                        NRMNVFLG           =        067D                                  #        ASTRONAUT USING         ASTRONAUT NOT USING
000626:                                                                                                  #        KEYBOARD WHEN           KEYBOARD WHEN
000627: 26,2024     4735               NRMNVBIT           =        BIT8                                  #        NORMAL DISPLAY          NORMAL DISPLAY
000628:                                                                                                  #        INITIATED               INITIATED
000629:
000630:                                                                                                  #  BIT 7 FLAG 4  (S)
000631: 26,2024                        PRONVFLG           =        068D                                  #        ASTRONAUT USING         ASTRONAUT NOT USING
000632:


000634:                                                                                                  #        KEYBOARD WHEN           KEYBOARD WHEN
000635: 26,2024     4736               PRONVBIT           =        BIT7                                  #        PRIORITY DISPLAY        PRIORITY DISPLAY
000636:                                                                                                  #        INITIATED               INITIATED
000637:
000638:                                                                                                  #  BIT 6 FLAG 4  (S)
000639: 26,2024                        PINBRFLG           =        069D                                  #        ASTRONAUT HAS           ASTRONAUT HAS NOT
000640:                                                                                                  #        INTERFERED WITH         INTERFERED WITH
000641: 26,2024     4737               PINBRBIT           =        BIT6                                  #        EXISTING DISPLAY        EXISTING DISPLAY
000642:
000643:
000644:                                                                                                  #  BIT 5 FLAG 4  (S)
000645: 26,2024                        MRUPTFLG           =        070D                                  #        MARK DISPLAY            MARK DISPLAY NOT
000646:                                                                                                  #        INTERRUPTED BY          INTERRUPTED BY
000647: 26,2024     4740               MRUPTBIT           =        BIT5                                  #        PRIORITY DISPLAY        PRIORITY DISPLAY
000648:
000649:
000650:                                                                                                  #  BIT 4 FLAG 4  (S)
000651: 26,2024                        NRUPTFLG           =        071D                                  #        NORMAL DISPLAY          NORMAL DISPLAY NOT
000652:                                                                                                  #        INTERRUPTED BY          INTERRUPTED BY
000653: 26,2024     4741               NRUPTBIT           =        BIT4                                  #        PRIORITY OR MARK        PRIORITY OR MARK
000654:                                                                                                  #        DISPLAY                 DISPLAY
000655:
000656:                                                                                                  #  BIT 3 FLAG 4  (S)
000657: 26,2024                        MKOVFLAG           =        072D                                  #        MARK DISPLAY OVER       NO MARK DISPLAY OVER
000658: 26,2024     4742               MKOVBIT            =        BIT3                                  #        NORMAL                  NORMAL
000659:
000660:                                                                                                  #  BIT 2 FLAG 4
000661:                                                                                                  #                =               073D
000662:
000663:
000664:                                                                                                  #  BIT 1 FLAG 4  (S)
000665: 26,2024                        XDSPFLAG           =        074D                                  #        MARK DISPLAY NOT        NO SPECIAL MARK
000666: 26,2024     4744               XDSPBIT            =        BIT1                                  #        TO BE INTERRUPTED       INFORMATION
000667:
000668:
000669: 26,2024     0101               FLAGWRD5           =        STATE      +5                         #        (075-089)
000670:                                                                                                  #        (SET)                   (RESET)
000671:
000672:                                                                                                  #  BIT 15 FLAG 5 (S)
000673: 26,2024                        DSKYFLAG           =        075D                                  #        DISPLAYS SENT TO        NO DISPLAYS TO DSKY
000674: 26,2024     4726               DSKYFBIT           =        BIT15                                 #        DSKY
000675:
000676:                                                                                                  #  BIT 14 FLAG 5
000677: 26,2024                        PDSPFLAG           =        076D                                  #        R60 DOES PRIO DSP.      R60 DOES NORMAL DSP.
000678: 26,2024     4727               PDSPFBIT           =        BIT14                                 #        AND IS RESTART          AND IS NOT RESTORTED
000679:                                                                                                  #        PROTECTED.
000680:


000682:                                                                                                  #  BIT 13 FLAG 5 (S,L)
000683: 26,2024                        SNUFFER            =        077D                                  #        U,V JETS DISABLED       U,V JETS ENABLED
000684:                                                                                                  #        DURING DPS              DURING DPS
000685: 26,2024     4730               SNUFFBIT           =        BIT13                                 #        BURNS (V65)             BURNS (V75)
000686:
000687:
000688:                                                                                                  #  BIT 12 FLAG 5 (S)
000689: 26,2024                        NOTHROTL           =        078D                                  #        INHIBIT FULL            PERMIT FULL THROTTLE
000690: 26,2024     4731               NOTHRBIT           =        BIT12                                 #        THROTTLE
000691:
000692:
000693:                                                                                                  #  BIT 11 FLAG 5 (S,L)
000694: 26,2024                        R77FLAG            =        079D                                  #        R77 IS ON,              R77 IS NOT ON.
000695:                                                                                                  #        SUPPRESS ALL RADAR
000696:                                                                                                  #        ALARMS AND TRACKER
000697: 26,2024     4732               R77FLBIT           =        BIT11                                 #        FAILS
000698:
000699:
000700:                                                                                                  #  BIT 10 FLAG 5 (S)
000701: 26,2024                        RNGSCFLG           =        080D                                  #        SCALE CHANGE HAS        NO SCALE CHANGE HAS
000702:                                                                                                  #        OCCURRED DURING         OCCURRED DURING
000703: 26,2024     4733               RNGSCBIT           =        BIT10                                 #        RR READING              RR READING
000704:
000705:
000706:                                                                                                  #  BIT 9 FLAG 5  (S)
000707: 26,2024                        DMENFLG            =        081D                                  #        DIMENSION OF W IS 9     DIMENSION OF W IS 6
000708: 26,2024     4734               DMENFBIT           =        BIT9                                  #        FOR INCORPORATION       FOR INCORPORATION
000709:
000710:
000711:                                                                                                  #  BIT 8 FLAG 5  (S)
000712: 26,2024                        ZOOMFLAG           =        082D                                  #        THROTTLE-UP HAS         THROTTLE-UP HAS NOT
000713: 26,2024     4735               ZOOMBIT            =        BIT8                                  #        OCCURRED IN P63.        YET OCCURRED IN P63.
000714:
000715:
000716:                                                                                                  #  BIT 7 FLAG 5  (S)
000717: 26,2024                        ENGONFLG           =        083D                                  #        ENGINE TURNED ON        ENGINE TURNED OFF
000718: 26,2024     4736               ENGONBIT           =        BIT7
000719:
000720:
000721:                                                                                                  #  BIT 6 FLAG 5  (S)
000722: 26,2024                        3AXISFLG           =        084D                                  #        MANEUVER SPECIFIED      MANEUVER SPECIFIED
000723:                                                                                                  #        BY THREE AXES           BY ONE AXIS; R60
000724: 26,2024     4737               3AXISBIT           =        BIT6                                  #                                CALLS VECPOINT.
000725:
000726:
000727:                                                                                                  #  BIT 5 FLAG 5
000728: 26,2024                        AORBSFLG           =        085D                                  #        PREFER PAXIS JET        PREFER PAXIS JET
000729: 26,2024     4740               AORBSYST           =        BIT5                                  #        PAIRS 7,15 AND 8,16     PAIRS 4,12 AND 3,11
000730:
000731:


000733:                                                                                                  #  BIT 4 FLAG 5  (S)
000734: 26,2024                        NORRMON            =        086D                                  #        BYPASS RR GIMBAL        PERFORM
000735: 26,2024     4741               NORRMBIT           =        BIT4                                  #        MONITOR                 RR GIMBAL MONITOR
000736:
000737:
000738:                                                                                                  #  BIT 3 FLAG 5  (S)
000739: 26,2024                        SOLNSW             =        087D                                  #        LAMBERT DOES NOT        LAMBERT CONVERGES OR
000740:                                                                                                  #        CONVERGE, OR TIME-RAD   TIME-RADIUS NON
000741: 26,2024     4742               SOLNSBIT           =        BIT3                                  #        NEARLY CIRCULAR         CIRCULAR
000742:
000743:
000744:                                                                                                  #  BIT 2 FLAG 5  (S)
000745: 26,2024                        MGLVFLAG           =        088D                                  #        LOCAL VERTICAL          MIDDLE GIMBAL ANGLE
000746:                                                                                                  #        COORDINATES             COMPUTED
000747: 26,2024     4743               MGLVFBIT           =        BIT2                                  #        COMPUTED
000748:
000749:
000750:                                                                                                  #  BIT 1 FLAG 5  (S)
000751: 26,2024                        RENDWFLG           =        089D                                  #        W MATRIX VALID          W MATRIX INVALID
000752:                                                                                                  #        FOR RENDEZVOUS          FOR RENDEZVOUS
000753: 26,2024     4744               RENDWBIT           =        BIT1                                  #        NAVIGATION              NAVIGATION
000754:
000755:
000756: 26,2024     0102               FLAGWRD6           =        STATE      +6                         #        (090-104)
000757:
000758:                                                                                                  #        (SET)                   (RESET)
000759:
000760:                                                                                                  #  BIT 15 FLAG 6 (S)
000761: 26,2024                        S32.1F1            =        090D                                  #        DELTA V AT CSI TIME     DVT1 LESS THEN MAX
000762: 26,2024     4726               S32BIT1            =        BIT15                                 #        ONE EXCEEDS MAX
000763:
000764:
000765:                                                                                                  #  BIT 14 FLAG 6 (S)
000766: 26,2024                        S32.1F2            =        091D                                  #        FIRST PASS OF           REITERATION OF
000767: 26,2024     4727               S32BIT2            =        BIT14                                 #        NEWTON ITERATION        NEWTON
000768:
000769:
000770:                                                                                                  #  BIT 13 FLAG 6 (S)
000771: 26,2024                        S32.1F3A           =        092D                                  #        BIT 13 AND BIT 12 FUNCTION AS AN ORDERED
000772: 26,2024     4730               S32BIT3A           =        BIT13                                 #        PAIR (13,12) INDICATING THE POSSIBLE OC-
000773:                                                                                                  #        CURRANCE OF 2 NEWTON ITERATIONS FOR S32.1
000774:                                                                                                  #        IN THE PROGRAM IN THE FOLLOWING ORDER:
000775:                                                                                                  #  BIT 12 FLAG 6                                                 (0,1) (I.E. BIT 13 RESET,BIT 12 SET)
000776: 26,2024                        S32.1F3B           =        093D                                  #             = FIRST NEWTON ITERATION BEING DONE
000777: 26,2024     4731               S32BIT3B           =        BIT12                                 #        (0,0)= FIRST PASS OF SECOND NEWT.ITERAT.
000778:                                                                                                  #        (1,1)= 50 FT/SEC STAGE OF SEC. NEWT.ITER
000779:                                                                                                  #        (1,0)= REMAINDER OF SECOND NEWTON ITERA.
000780:
000781:
000782:                                                                                                  #  BIT 11 FLAG 6 (S)
000783:


000785:
000786:
000787:                                                                                                  #  BIT 10 FLAG 6 (S)
000788: 26,2024                        GMBDRVSW           =        095D                                  #        TRIMGIMB OVER           TRIMGIMB NOT OVER
000789: 26,2024     4733               GMBDRBIT           =        BIT10
000790:
000791:
000792:                                                                                                  #  BIT 9 FLAG 6
000793:                                                                                                  #                =               096D
000794:                                                                                                  #                =               BIT9
000795:
000796:
000797:                                                                                                  #  BIT 8 FLAG 6  (S)
000798: 26,2024                        MUNFLAG            =        097D                                  #        SERVICER CALLS          SERVICER CALLS
000799: 26,2024     4735               MUNFLBIT           =        BIT8                                  #        MUNRVG                  CALCRVG
000800:
000801:
000802:                                                                                                  #  BIT 7 FLAG 6  (L)
000803: 26,2024                                           =        098D
000804: 26,2024                                           =        BIT7
000805:
000806:
000807:                                                                                                  #  BIT 6 FLAG 6  (L)
000808: 26,2024                        REDFLAG            =        099D                                  #        LANDING SITE            LANDING SITE
000809:                                                                                                  #        REDESIGNATION           REDESIGNATION NOT
000810: 26,2024     4737               REDFLBIT           =        BIT6                                  #        PERMITTED               PERMITTED
000811:
000812:
000813:                                                                                                  #  BIT 5 FLAG 6
000814:                                                                                                  #                =               100D
000815:
000816:
000817:                                                                                                  #  BIT 4 FLAG 6
000818:                                                                                                  #                =               101D
000819:
000820:
000821:                                                                                                  #  BIT 3 FLAG 6  (S)
000822: 26,2024                        NTARGFLG           =        102D                                  #        ASTRONAUT DID           ASTRONAUT DID NOT
000823:                                                                                                  #        OVERWRITE DELTA         OVERWRITE DELTA
000824: 26,2024     4742               NTARGBIT           =        BIT3                                  #        VELOCITY AT TPI         VELOCITY
000825:                                                                                                  #        OR TPM (P34,35)
000826:
000827:                                                                                                  #  BIT 2 FLAG 6
000828: 26,2024                        AUXFLAG            =        103D                                  #        PROVIDING IDLEFLAG      SERVICER WILL SKIP
000829: 26,2024     4743               AUXFLBIT           =        BIT2                                  #        IS NOT SET, SERV-       DVMON ON ITS NEXT
000830:                                                                                                  #        ICER WILL EXERCISE      PASS EVEN IF THE
000831:                                                                                                  #        DVMON ON ITS NEXT       IDLEFLAG IS NOT SET.
000832:                                                                                                  #        PASS.                   IT WILL THEN SET
000833:                                                                                                  #                                AUXFLAG.
000834:
000835:                                                                                                  #  BIT 1 FLAG 6  (L)
000836:


000838: 26,2024                        ATTFLAG            =        104D                                  #        LEM ATTITUDE EXISTS     NO LEM ATTITUDE
000839:                                                                                                  #        IN MOON-FIXED           AVAILABLE IN MOON-
000840: 26,2024     4744               ATTFLBIT           =        BIT1                                  #        COORDINATES             FIXED COORDINATES
000841:
000842:
000843: 26,2024     0103               FLAGWRD7           =        STATE      +7                         #        (105-119)
000844:
000845:                                                                                                  #        (SET)                   (RESET)
000846:
000847:                                                                                                  #  BIT 15 FLAG 7 (S)
000848: 26,2024                        ITSWICH            =        105D                                  #        P34;TPI TIME TO BE      TPI HAS BEEN
000849: 26,2024     4726               ITSWBIT            =        BIT15                                 #        COMPUTED                COMPUTED
000850:
000851:
000852:                                                                                                  #  BIT 14 FLAG 7 (S)
000853: 26,2024                        MANUFLAG           =        106D                                  #        ATTITUDE MANEUVER       NO ATTITUDE MANEUVER
000854:                                                                                                  #        GOING DURING RR         DURING RR SEARCH
000855: 26,2024     4727               MANUFBIT           =        BIT14                                 #        SEARCH
000856:
000857:
000858:                                                                                                  #  BIT 13 FLAG 7 (S)
000859: 26,2024                        IGNFLAG            =        107D                                  #        TIG HAS ARRIVED         TIG HAS NOT ARRIVED
000860: 26,2024     4730               IGNFLBIT           =        BIT13
000861:
000862:
000863:                                                                                                  #  BIT 12 FLAG 7 (S)
000864: 26,2024                        ASTNFLAG           =        108D                                  #        ASTRONAUT HAS           ASTRONAUT HAS NOT
000865: 26,2024     4731               ASTNBIT            =        BIT12                                 #        OKAYED IGNITION         OKAYED IGNITION
000866:
000867:
000868:                                                                                                  #  BIT 11 FLAG 7 (L)
000869: 26,2024                        SWANDISP           =        109D                                  #        LANDING ANALOG          LANDING ANALOG
000870: 26,2024     4732               SWANDBIT           =        BIT11                                 #        DISPLAYS ENABLED        DISPLAYS SUPPRESSED
000871:
000872:
000873:                                                                                                  #  BIT 10 FLAG 7 (S)
000874: 26,2024                        NORMSW             =        110D                                  #        UNIT NORMAL INPUT       LAMBERT COMPUTES ITS
000875: 26,2024     4733               NORMSBIT           =        BIT10                                 #        TO LAMBERT              OWN UNIT NORMAL
000876:
000877:
000878:                                                                                                  #  BIT 9 FLAG 7  (S)
000879: 26,2024                        RVSW               =        111D                                  #        DO NOT COMPUTE          COMPUTE FINAL STATE
000880:                                                                                                  #        FINAL STATE VECTOR      VECTOR IN TIME-THETA
000881: 26,2024     4734               RVSWBIT            =        BIT9                                  #        IN TIME-THETA
000882:
000883:
000884:                                                                                                  #  BIT 8 FLAG 7  (S)
000885: 26,2024                        V67FLAG            =        112D                                  #        ASTRONAUT OVERWRITE     ASTRONAUT DOES NOT
000886:                                                                                                  #        W-MATRIX INITIAL        OVERWRITE W-MATRIX
000887: 26,2024     4735               V67FLBIT           =        BIT8                                  #        VALUES                  INITIAL VALUES
000888:


000890:
000891:
000892:                                                                                                  #  BIT 7 FLAG 7  (S)
000893: 26,2024                        IDLEFLAG           =        113D                                  #        NO DV MONITOR           CONNECT DV MONITOR
000894: 26,2024     4736               IDLEFBIT           =        BIT7
000895:
000896:
000897:                                                                                                  #  BIT 6 FLAG 7  (S)
000898: 26,2024                        V37FLAG            =        114D                                  #        AVERAGEG (SERVICER)     AVERAGEG (SERVICER)
000899: 26,2024     4737               V37FLBIT           =        BIT6                                  #        RUNNING                 OFF
000900:
000901:
000902:                                                                                                  #  BIT 5 FLAG 7  (S)
000903: 26,2024                        AVEGFLAG           =        115D                                  #        AVERAGEG (SERVICER)     AVERAGEG (SERVICER)
000904: 26,2024     4740               AVEGFBIT           =        BIT5                                  #        DESIRED                 NOT DESIRED
000905:
000906:
000907:                                                                                                  #  BIT 4 FLAG 7  (S)
000908: 26,2024                        UPLOCKFL           =        116D                                  #        K-KBAR-K FAIL           NO K-KBAR-K FAIL
000909: 26,2024     4741               UPLOCBIT           =        BIT4
000910:
000911:
000912:                                                                                                  #  BIT 3 FLAG 7  (S)
000913: 26,2024                        VERIFLAG           =        117D                                  #        CHANGED WHEN V33E OCCURS AT END OF P27
000914: 26,2024     4742               VERIFBIT           =        BIT3
000915:
000916:
000917:                                                                                                  #  BIT 2 FLAG 7  (L,C)
000918: 26,2024                        V82EMFLG           =        118D                                  #        MOON VICINITY           EARTH VICINITY
000919: 26,2024     4743               V82EMBIT           =        BIT2
000920:
000921:
000922:                                                                                                  #  BIT 1 FLAG 7  (S)
000923: 26,2024                        TFFSW              =        119D                                  #        CALCULATE TPERIGEE      CALCULATE TFF
000924: 26,2024     4744               TFFSWBIT           =        BIT1
000925:
000926:
000927: 26,2024     0104               FLAGWRD8           =        STATE      +8D                        #        (120-134)
000928:
000929:                                                                                                  #        (SET)                   (RESET)
000930:
000931:                                                                                                  #  BIT 15 FLAG 8 (S)
000932: 26,2024                        RPQFLAG            =        120D                                  #        RPQ NOT COMPUTED        RPQ COMPUTED
000933:                                                                                                  #        (RPQ = VECTOR BE-
000934: 26,2024     4726               RPQFLBIT           =        BIT15                                 #        TWEEN SECONDARY BODY
000935:                                                                                                  #        AND PRIMARY BODY
000936:
000937:                                                                                                  #  BIT 14 FLAG 8
000938:                                                                                                  #                =               121D
000939:


000941:                                                                                                  #                =               BIT14
000942:
000943:                                                                                                  #  BIT 13 FLAG 8 (S)
000944: 26,2024                        NEWIFLG            =        122D                                  #        FIRST PASS THROUGH      SUCCEEDING ITERATION
000945: 26,2024     4730               NEWIBIT            =        BIT13                                 #        INTEGRATION             OF INTEGRATION
000946:
000947:
000948:                                                                                                  #  BIT 12 FLAG 8 *** PROTECTED FROM FRESH START ***
000949: 26,2024                        CMOONFLG           =        123D                                  #        PERMANENT CSM STATE     PERMANENT CSM STATE
000950: 26,2024     4731               CMOONBIT           =        BIT12                                 #        IN LUNAR SPHERE         IN EARTH SPHERE
000951:
000952:
000953:                                                                                                  #  BIT 11 FLAG 8 *** PROTECTED FROM FRESH START ***
000954: 26,2024                        LMOONFLG           =        124D                                  #        PERMANENT LM STATE      PERMANENT LM STATE
000955: 26,2024     4732               LMOONBIT           =        BIT11                                 #        IN LUNAR SPHERE         IN EARTH SPHERE
000956:
000957:
000958:                                                                                                  #  BIT 10 FLAG 8 (L)
000959: 26,2024                        FLUNDISP           =        125D                                  #        CURRENT GUIDANCE        CURRENT GUIDANCE
000960: 26,2024     4733               FLUNDBIT           =        BIT10                                 #        DISPLAYS INHIBITED      DISPLAYS PERMITTED
000961:
000962:
000963:                                                                                                  #  BIT 9 FLAG 8  (L)
000964:                                                                                                  #                =               126D
000965:                                                                                                  #                =               BIT9
000966:
000967:
000968:                                                                                                  #  BIT 8 FLAG 8  *** PROTECTED FROM FRESH START ***
000969: 26,2024                        SURFFLAG           =        127D                                  #        LM ON LUNAR SURFACE     LM NOT ON LUNAR
000970: 26,2024     4735               SURFFBIT           =        BIT8                                  #                                SURFACE
000971:
000972:
000973:                                                                                                  #  BIT 7 FLAG 8  (S)
000974: 26,2024                        INFINFLG           =        128D                                  #        NO CONIC SOLUTION       CONIC SOLUTION
000975:                                                                                                  #        (CLOSURE THROUGH        EXISTS
000976: 26,2024     4736               INFINBIT           =        BIT7                                  #        INFINITY REQUIRED)
000977:
000978:
000979:                                                                                                  #  BIT 6 FLAG 8  (S)
000980: 26,2024                        ORDERSW            =        129D                                  #        ITERATOR USES 2ND       ITERATOR USES 1ST
000981: 26,2024     4737               ORDERBIT           =        BIT6                                  #        ORDER MINIMUM MODE      ORDER STANDARD MODE
000982:
000983:
000984:                                                                                                  #  BIT 5 FLAG 8  (S)
000985: 26,2024                        APSESW             =        130D                                  #        RDESIRED OUTSIDE        RDESIRED INSIDE
000986:                                                                                                  #        PERICENTER-APOCENTER    PERICENTER-APOCENTER
000987: 26,2024     4740               APSESBIT           =        BIT5                                  #        RANGE IN TIME-RADI      RANGE IN TIME-RADIUS
000988:
000989:


000991:                                                                                                  #  BIT 4 FLAG 8  (S)
000992: 26,2024                        COGAFLAG           =        131D                                  #        NO CONIC SOLUTION -     CONIC SOLUTION
000993:                                                                                                  #        TOO CLOSE TO RECTI-     EXISTS (COGA DOES NOT
000994: 26,2024     4741               COGAFBIT           =        BIT4                                  #        LINEAR (COGA OVRFLWS)   OVERFLOW)
000995:
000996:
000997:                                                                                                  #  BIT 3 FLAG 8
000998:                                                                                                  #                =               132D
000999:
001000:                                                                                                  #  BIT 2 FLAG 8  (L)
001001: 26,2024                        INITALGN           =        133D                                  #        INITIAL PASS THRU       SECOND PASS THRU P57
001002: 26,2024     4743               INITABIT           =        BIT2                                  #        P57                     (CHECK RESET-MILLARD)
001003:
001004:
001005:                                                                                                  #  BIT 1 FLAG 8  (S)
001006: 26,2024                        360SW              =        134D                                  #        TRANSFER ANGLE NEAR     TRANSFER ANGLE NOT
001007: 26,2024     4744               360SWBIT           =        BIT1                                  #        360 DEGREES             NEAR 360 DEGREES
001008:
001009:
001010: 26,2024     0105               FLAGWRD9           =        STATE      +9D                        #        (135-149)
001011:
001012:                                                                                                  #        (SET)                   (RESET)
001013:
001014:                                                                                                  #  BIT 15 FLAG 9
001015:                                                                                                  #                =               135D
001016:                                                                                                  #                =               BIT15
001017:
001018:                                                                                                  #  BIT 14 FLAG 9 (L)
001019: 26,2024                        FLVR               =        136D                                  #        VERTICAL RISE           NON-VERTICAL RISE
001020: 26,2024     4727               FLVRBIT            =        BIT14                                 #        (ASCENT GUIDANCE)
001021:
001022:
001023:                                                                                                  #  BIT 13 FLAG 9
001024: 26,2024                        P7071FLG           =        137D                                  #        P70 OR P71 IS USING     P12 IS USING THE
001025: 26,2024     4730               P7071BIT           =        BIT13                                 #        ASCENT GUID. EQS.       ASCENT GUID. EQS.
001026:
001027:
001028:                                                                                                  #  BIT 12 FLAG 9 (L)
001029: 26,2024                        FLPC               =        138D                                  #        NO POSITION CONTROL     POSITION CONTROL
001030: 26,2024     4731               FLPCBIT            =        BIT12                                 #        (ASCENT GUIDANCE)
001031:
001032:
001033:                                                                                                  #  BIT 11 FLAG 9 (L)
001034: 26,2024                        FLPI               =        139D                                  #        PRE-IGNITION PHASE      REGULAR GUIDANCE
001035: 26,2024     4732               FLPIBIT            =        BIT11                                 #        (ASCENT GUIDANCE)
001036:
001037:
001038:                                                                                                  #  BIT 10 FLAG 9 (L)
001039: 26,2024                        FLRCS              =        140D                                  #        RCS INJECTION MODE      MAIN ENGINE MODE
001040:


001042: 26,2024     4733               FLRCSBIT           =        BIT10                                 #        (ASCENT GUIDANCE)
001043:
001044:
001045:                                                                                                  #  BIT 9 FLAG 9  (L)
001046: 26,2024                        LETABORT           =        141D                                  #        ABORT PROGRAMS          ABORT PROGRAMS
001047: 26,2024     4734               LETABBIT           =        BIT9                                  #        ARE ENABLED             ARE NOT ENABLED
001048:
001049:
001050:                                                                                                  #  BIT 8 FLAG 9  (L)
001051: 26,2024                        FLAP               =        142D                                  #        APS CONTINUED ABORT     APS ABORT IS NOT A
001052:                                                                                                  #        AFTER DPS STAGING      CONTINUATION
001053: 26,2024     4735               FLAPBIT            =        BIT8                                  #        (ASCENT GUIDANCE)
001054:
001055:
001056:                                                                                                  #  BIT 7 FLAG 9  (L)
001057: 26,2024                        ABTTGFLG           =        143D                                  #        J2,K2 PARAMETERS        J1,K1 PARAMETERS
001058: 26,2024     4736               ABTTGBIT           =        BIT7                                  #        USED FOR ABORT          USED FOR ABORT
001059:                                                                                                  #        TARGETING               TARGETING
001060:
001061:
001062:                                                                                                  #  BIT 6 FLAG 9  (L)
001063: 26,2024                        ROTFLAG            =        144D                                  #        P70 AND P71 WILL        P70 AND P71 WILL NOT
001064: 26,2024     4737               ROTFLBIT           =        BIT6                                  #        FORCE VEHICLE           FORCE VEHICLE
001065:                                                                                                  #        ROTATION IN THE         ROTATION IN THE
001066:                                                                                                  #        PREFERRED DIRECTION.     PREFERRED DIRECTION
001067:
001068:                                                                                                  #  BIT 5 FLAG 9  (S)
001069: 26,2024                        QUITFLAG           =        145D                                  #        DISCONTINUE INTEGR.     CONTINUE INTEGRATION
001070: 26,2024     4740               QUITBIT            =        BIT5
001071:
001072:                                                                                                  #  BIT 4 FLAG 9
001073: 26,2024                        FLT59FLG           =        146D                                  #        LUNAR SURFACE MARK      NORMAL MARKING TO BE
001074: 26,2024     4741               FLT59BIT           =        BIT4                                  #        PROCEDURE USED          USED DURING INFLITE
001075:                                                                                                  #        DURING INFLITE ALGN     ALIGNMENT
001076:                                                                                                  #  BIT 3 FLAG 9  (L)
001077: 26,2024                        MID1FLAG           =        147D                                  #        INTEGRATE TO TDEC       INTEGRATE TO THE
001078: 26,2024     4742               MID1FBIT           =        BIT3                                  #                                THEN-PRESENT TIME
001079:
001080:
001081:                                                                                                  #  BIT 2 FLAG 9  (L)
001082: 26,2024                        MIDAVFLG           =        148D                                  #        INTEGRATION ENTERED     INTEGRATION WAS
001083:                                                                                                  #        FROM ONE OF MIDTOAV     NOT ENTERED VIA
001084: 26,2024     4743               MIDAVBIT           =        BIT2                                  #        PORTALS                 MIDTOAV
001085:
001086:                                                                                                  #  BIT 1 FLAG 9  (S)
001087: 26,2024                        AVEMIDSW           =        149D                                  #        AVETOMID CALLING        NO AVETOMID W INTEGR
001088:                                                                                                  #        FOR W.MATRIX INTEGR     ALLOW SET UP RN,VN,
001089: 26,2024     4744               AVEMDBIT           =        BIT1                                  #        DONT WRITE OVER RN,     PIPTIME
001090:                                                                                                  #        VN,PIPTIME
001091:


001093:
001094:
001095: 26,2024     0106               RASFLAG            EQUALS   FLGWRD10                              #        WAS ONLY AN INSTALL -ERASTALL FLAG
001096:
001097:
001098: 26,2024     0106               FLGWRD10           =        STATE      +10D                       #        (150-164)
001099:
001100:                                                                                                  #        (SET)                   (RESET)
001101:
001102:                                                                                                  #  BIT 15 FLAG 10
001103:                                                                                                  #                =               150D
001104:
001105:                                                                                                  #  BIT 14 FLAG 10 (L,C)
001106: 26,2024                        INTFLAG            =        151D                                  #        INTEGRATION IN          INTEGRATION NOT IN
001107: 26,2024     4727               INTFLBIT           =        BIT14                                 #        PROGRESS                PROGRESS
001108:
001109:
001110:                                                                                                  #  BIT 13 FLAG 10 (S,L)
001111: 26,2024                        APSFLAG            =        152D                                  #        ASCENT STAGE            DESCENT STAGE
001112: 26,2024     4730               APSFLBIT           =        BIT13                                 #        *** PROTECTED FROM FRESH START ***
001113:
001114:                                                                                                  #  BIT 12 FLAG 10
001115:                                                                                                  #                =               153D
001116:
001117:                                                                                                  #  BIT 11 FLAG 10
001118:                                                                                                  #                =               154D
001119:
001120:                                                                                                  #  BIT 10 FLAG 10
001121:                                                                                                  #                =               155D
001122:
001123:                                                                                                  #  BIT 9 FLAG 10
001124:                                                                                                  #                =               156D
001125:
001126:                                                                                                  #  BIT 8 FLAG 10
001127:                                                                                                  #                =               157D
001128:
001129:                                                                                                  #  BIT 7 FLAG 10 (L,C)
001130: 26,2024                        REINTFLG           =        158D                                  #        INTEGRATION ROUTINE     INTEGRATION ROUTINE
001131: 26,2024     4736               REINTBIT           =        BIT7                                  #        TO BE RESTARTED         NOT TO BE RESTARTED
001132:
001133:                                                                                                  #  BIT 6 FLAG 10
001134:                                                                                                  #                =               159D
001135:


001137:
001138:                                                                                                  #  BIT 5 FLAG 10
001139:                                                                                                  #                =               160D
001140:
001141:                                                                                                  #  BIT 4 FLAG 10
001142:                                                                                                  #                =               161D
001143:
001144:                                                                                                  #  BIT 3 FLAG 10
001145:                                                                                                  #                =               162D
001146:
001147:                                                                                                  #  BIT 2 FLAG 10
001148: 26,2024                        CONTRLFL           =        163D                                  #        DAP CONTROLLING         DAP NOT CONTROLLING
001149: 26,2024     4743               CONTRLBT           =        BIT2                                  #        VEHICLE ATTITUDE        VEHICLE ATTITUDE
001150:
001151:
001152:                                                                                                  #  BIT 1 FLAG 10
001153: 26,2024                        NPGNCSFL           =        164D                                  #        LAST ACTIVE DAP         LAST ACTIVE DAP
001154: 26,2024     4744               NPGNCSBT           =        BIT1                                  #        PASS DONE WITH AN       PASS DONE WITH A
001155:                                                                                                  #        AGS INDICATION          PGNCS INDICATION
001156:
001157:
001158:
001159: 26,2024     0107               FLGWRD11           =        STATE      +11D                       #        (165-179)
001160:
001161:                                                                                                  #        (SET)                   (RESET)
001162:
001163:                                                                                                  #  BIT 15 FLAG 11 (L)(R12)
001164: 26,2024                        LRBYPASS           =        165D                                  #        BYPASS ALL LANDING      DO NOT BYPASS LR
001165: 26,2024     4726               LRBYBIT            =        BIT15                                 #        RADAR UPDATES           UPDATES
001166:
001167:
001168:                                                                                                  #  BIT 14 FLAG 11
001169: 26,2024                        VFAILFLG           =        166D                                  #        LANDING RADAR VEL       LANDING RADAR VEL
001170: 26,2024     4727               VFAILBIT           =        BIT14                                 #        FAILED REAS TEST        PASS REAS TEST
001171:
001172:
001173:                                                                                                  #  BIT 13 FLAG 11
001174: 26,2024                        HFAILFLG           =        167D                                  #        LANDING RADAR ALT       LANDING RADAR VEL
001175: 26,2024     4730               HFAILBIT           =        BIT13                                 #        FAILED REAS TEST        PASS REAS TEST
001176:
001177:
001178:                                                                                                  #  BIT 12 FLAG 11 (L)(R12)
001179: 26,2024                        VXINH              =        168D                                  #        IF Z VELOCITY DATA      UPDATE X AXIS
001180:                                                                                                  #        UNREASONABLE,           VELOCITY
001181: 26,2024     4731               VXINHBIT           =        BIT12                                 #        BYPASS X VELOCITY
001182:                                                                                                  #        UPDATE ON NEXT PASS
001183:


001185:                                                                                                  #  BIT 11 FLAG 11 (L)(R12)
001186: 26,2024                        PSTHIGAT           =        169D                                  #        PAST HIGATE             PREHIGATE
001187: 26,2024     4732               PSTHIBIT           =        BIT11
001188:
001189:
001190:                                                                                                  #  BIT 10 FLAG 11 (L)(R12)
001191: 26,2024                        NOLRREAD           =        170D                                  #        LANDING RADAR           LR NOT REPOSITIONING
001192:                                                                                                  #        REPOSITIONING;
001193: 26,2024     4733               NOLRRBIT           =        BIT10                                 #        BYPASS UPDATE
001194:
001195:
001196:                                                                                                  #  BIT 9 FLAG 11 (L)(R12)
001197: 26,2024                        XORFLG             =        171D                                  #        BELOW LIMIT             ABOVE LIMIT DO
001198:                                                                                                  #        INHIBIT X AXIS          NOT INHIBIT
001199: 26,2024     4734               XORFLBIT           =        BIT9                                  #        OVERRIDE
001200:
001201:
001202:                                                                                                  #  BIT 8 FLAG 11
001203: 26,2024                        LRINH              =        172D                                  #        LANDING RADAR UP-       LR UPDATES INHIBITED
001204: 26,2024     4735               LRINHBIT           =        BIT8                                  #        DATES PERMITTED         BY ASTRONAUT
001205:                                                                                                  #        BY ASTRONAUT
001206:
001207:                                                                                                  #  BIT 7 FLAG 11 (L)(R12)
001208: 26,2024                        VELDATA            =        173D                                  #        LR VELOCITY             LR VELOCITY MEASURE
001209: 26,2024     4736               VELDABIT           =        BIT7                                  #        MEASUREMENT MADE        NOT MADE
001210:
001211:
001212:                                                                                                  #  BIT 6 FLAG 11
001213:                                                                                                  #                =               174D
001214:                                                                                                  #                =               BIT6
001215:
001216:
001217:                                                                                                  #  BIT 5 FLAG 11 (L)(R12)
001218:                                                                                                  #                =               175D
001219:                                                                                                  #                =               BIT5
001220:
001221:
001222:                                                                                                  #  BIT 4 FLAG 11 (L)(R12)
001223: 26,2024                        RNGEDATA           =        176D                                  #        LR ALTITUDE             LR ALTITUDE MEASURE
001224: 26,2024     4741               RNGEDBIT           =        BIT4                                  #        MEASUREMENT MADE        NOT MADE
001225:
001226:
001227:                                                                                                  #  BIT 3 FLAG 11
001228: 26,2024                        R12RDFLG           =        177D                                  #        WAIT UNTIL ALL VEL      ALLOW R12 PROCESS-
001229: 26,2024     4742               R12RDBIT           =        BIT3                                  #        READS DONE BEFORE       ING OF VELDATA;
001230:                                                                                                  #        R12 PROCESSING          LR VEL READ DONE
001231:
001232:
001233:                                                                                                  #  BIT 2 FLAG 11 (L)(R12)
001234:


001236: 26,2024                        VFLSHFLG           =        178D                                  #        LR VELOCITY FAIL        LR VEL FAIL LAMP
001237: 26,2024     4743               VFLSHBIT           =        BIT2                                  #        LAMP SHOULD BE          SHOULDN'T FLASH
001238:                                                                                                  #        FLASHING
001239:
001240:                                                                                                  #  BIT 1 FLAG 11 (L)(R12)
001241: 26,2024                        HFLSHFLG           =        179D                                  #        LR ALTITUDE FAIL        LR ALTITUDE FAIL
001242: 26,2024     4744               HFLSHBIT           =        BIT1                                  #        LAMP SHOULD BE          LAMP SHOULD NOT BE
001243:                                                                                                  #        FLASHING                FLASHING
001244:
001245: 26,2024     0110               RADMODES           EQUALS   FLGWRD12                              #        RADAR FLAG WORD
001246:
001247:
001248: 26,2024     0110               FLGWRD12           =        STATE      +12D                       #        (180-194)       WAS RADMODES
001249:
001250:                                                                                                  #        (SET)                   (RESET)
001251:
001252:                                                                                                  #  BIT 15 FLAG 12
001253: 26,2024                        CDESFLAG           =        180D                                  #        CONTINUOUS DESIG-       LGC CHECKS FOR LOCK-
001254: 26,2024     4726               CDESBIT            =        BIT15                                 #        NATE. LGC COMMANDS      ON WHEN ANTENNA
001255:                                                                                                  #        RR REGARDLESS OF        BEING DESIGNATED
001256:                                                                                                  #        LOCK-ON
001257:
001258:                                                                                                  #  BIT 14 FLAG 12
001259: 26,2024                        REMODFLG           =        181D                                  #        CHANGE IN ANTENNA       NO REMODE REQUESTED
001260: 26,2024     4727               REMODBIT           =        BIT14                                 #        MODE BEEN REQUESTED     OR OCCURRING
001261:                                                                                                  #        I.E., REMODE
001262:
001263:                                                                                                  #  BIT 13 FLAG 12
001264: 26,2024                        RCDU0FLG           =        182D                                  #        RR CDU'S BEING          RR CDU'S NOT BEING
001265: 26,2024     4730               RCDU0BIT           =        BIT13                                 #        ZEROED                  ZEROED
001266:
001267:
001268:                                                                                                  #  BIT 12 FLAG 12
001269: 26,2024                        ANTENFLG           =        183D                                  #        RR ANTENNA MODE IS      RR ANTENNA IN MODE 1
001270: 26,2024     4731               ANTENBIT           =        BIT12                                 #        MODE 2
001271:
001272:
001273:                                                                                                  #  BIT 11 FLAG 12
001274: 26,2024                        REPOSMON           =        184D                                  #        REPOSITION MONITOR.     NO REPOSITION TAKING
001275: 26,2024     4732               REPOSBIT           =        BIT11                                 #        RR REPOSITION IS        PLACE
001276:                                                                                                  #        TAKING PLACE
001277:
001278:                                                                                                  #  BIT 10 FLAG 12
001279: 26,2024                        DESIGFLG           =        185D                                  #        RR DESIGNATE            RR DESIGNATE NOT
001280: 26,2024     4733               DESIGBIT           =        BIT10                                 #        REQUESTED OR IN         REQUESTED OR IN
001281:


001283:                                                                                                  #        PROGRESS                PROGRESS
001284:
001285:                                                                                                  #  BIT 9 FLAG 12
001286: 26,2024                        ALTSCALE           =        186D                                  #        LR ALTITUDE READING     LR ALTITUDE READING
001287: 26,2024     4734               ALTSCBIT           =        BIT9                                  #        IS ON HIGH SCALE        IS ON LOW SCALE
001288:
001289:
001290:                                                                                                  #  BIT 8 FLAG 12
001291: 26,2024                        LRVELFLG           =        187D                                  #        LR VELOCITY DATA        NO LR VELOCITY DATA
001292: 26,2024     4735               LRVELBIT           =        BIT8                                  #        FAIL                    FAIL
001293:
001294:
001295:                                                                                                  #  BIT 7 FLAG 12
001296: 26,2024                        RCDUFAIL           =        188D                                  #        RR CDU FAIL HAS         RR CDU FAIL OCCURRED
001297: 26,2024     4736               RCDUFBIT           =        BIT7                                  #        NOT OCCURRED
001298:
001299:
001300:                                                                                                  #  BIT 6 FLAG 12
001301: 26,2024                        LRPOSFLG           =        189D                                  #        LANDING RADAR           LR POSITION 1
001302: 26,2024     4737               LRPOSBIT           =        BIT6                                  #        POSITION 2
001303:
001304:
001305:                                                                                                  #  BIT 5 FLAG 12
001306: 26,2024                        LRALTFLG           =        190D                                  #        LR ALTITUDE DATA        NO LR ALTITUDE DATA
001307: 26,2024     4740               LRALTBIT           =        BIT5                                  #        FAIL.  COULD NOT BE     FAIL
001308:                                                                                                  #        READ SUCCESSFULLY.
001309:
001310:
001311:                                                                                                  #  BIT 4 FLAG 12
001312: 26,2024                        RRDATAFL           =        191D                                  #        RR DATA FAIL.           NO RR DATA FAIL.
001313: 26,2024     4741               RRDATABT           =        BIT4                                  #        DATA COULD NOT BE
001314:                                                                                                  #        READ SUCCESSFULLY
001315:
001316:
001317:                                                                                                  #  BIT 3 FLAG 12
001318: 26,2024                        RRRSFLAG           =        192D                                  #        RR RANGE READING        RR RANGE READING ON
001319: 26,2024     4742               RRRSBIT            =        BIT3                                  #        ON THE HIGH SCALE       THE LOW SCALE
001320:
001321:
001322:                                                                                                  #  BIT 2 FLAG 12
001323: 26,2024                        AUTOMODE           =        193D                                  #        RR NOT IN AUTO MODE.    RR IN AUTO MODE
001324: 26,2024     4743               AUTOMBIT           =        BIT2                                  #        AUTO MODE DISCRETE
001325:                                                                                                  #        IS NOT PRESENT
001326:
001327:
001328:                                                                                                  #  BIT 1 FLAG 12
001329: 26,2024                        TURNONFL           =        194D                                  #        RR TURN-ON SEQUENCE     NO RR TURN-ON
001330: 26,2024     4744               TURNONBT           =        BIT1                                  #        IN PROGRESS. (ZERO      SEQUENCE IN PROGRESS
001331:                                                                                                  #        CDU'S, FIX ANTENNA
001332:


001334:                                                                                                  #        MODE)
001335:
001336:
001337: 26,2024     0111               DAPBOOLS           EQUALS   FLGWRD13                              #        DIGITAL AUTOPILOT FLAGWORD
001338:
001339: 26,2024     0111               FLGWRD13           =        STATE      +13D                       #        (195 - 209)         WAS DAPBOOLS
001340:
001341:                                                                                                  #        (SET)                   (RESET)
001342:
001343:                                                                                                  #  BIT 15 FLAG 13
001344: 26,2024                        PULSEFLG           =        195D                                  #        MINIMUM IMPULSE         NOT IN MINIMUM
001345: 26,2024     4726               PULSES             =        BIT15                                 #        COMMAND MODE IN         IMPULSE COMMAND MODE
001346:                                                                                                  #        "ATT HOLD" (V76)        (V77)
001347:
001348:
001349:                                                                                                  #  BIT 14 FLAG 13
001350: 26,2024                        USEQRFLG           =        196D                                  #        GIMBAL UNUSABLE.        TRIM GIMBAL MAY BE
001351: 26,2024     4727               USEQRJTS           =        BIT14                                 #        USE JETS ONLY.          USED.
001352:
001353:
001354:                                                                                                  #  BIT 13 FLAG 13
001355: 26,2024                        CSMDKFLG           =        197D                                  #        CSM DOCKED. USE         CSM NOT DOCKED TO LM
001356: 26,2024     4730               CSMDOCKD           =        BIT13                                 #        BACKUP DAP
001357:
001358:
001359:                                                                                                  #  BIT 12 FLAG 13
001360: 26,2024                        OURRCFLG           =        198D                                  #        CURRENT DAP PASS        CURRENT DAP PASS IS
001361: 26,2024     4731               OURRCBIT           =        BIT12                                 #        IS RATE COMMAND         NOT RATE COMMAND
001362:
001363:
001364:                                                                                                  #  BIT 11 FLAG 13
001365: 26,2024                        ACC4-2FL           =        199D                                  #        4 JET X-AXIS TRANS-     2 JET X-AXIS TRANS-
001366: 26,2024     4732               ACC4OR2X           =        BIT11                                 #        LATION REQUESTED        LATION REQUESTED
001367:
001368:
001369:                                                                                                  #  BIT 10 FLAG 13
001370: 26,2024                        AORBTFLG           =        200D                                  #        B SYSTEM FOR X-         A SYSTEM FOR X-
001371: 26,2024     4733               AORBTRAN           =        BIT10                                 #        TRANSLATION             TRANSLATION PREFER'D
001372:
001373:
001374:                                                                                                  #  BIT 9 FLAG 13
001375: 26,2024                        XOVINFLG           =        201D                                  #        X-AXIS OVERRIDE         X-AXIS OVERRIDE OKAY
001376: 26,2024     4734               XOVINHIB           =        BIT9                                  #        LOCKED OUT
001377:
001378:                                                                                                  #  BIT 8 FLAG 13
001379: 26,2024                        DRIFTDFL           =        202D                                  #        ASSUME 0 OFFSET         USE OFFSET ACCELERA-
001380: 26,2024     4735               DRIFTBIT           =        BIT8                                  #        DRIFTING FLIGHT.        TION ESTIMATE
001381:


001384:


001386:                                                                                                  #  BIT 7 FLAG 13
001387: 26,2024                        RHCSCFLG           =        203D                                  #        NORMAL RHC SCALING      FINE RHC SCALING
001388: 26,2024     4736               RHCSCALE           =        BIT7                                  #        REQUESTED               REQUESTED
001389:
001390:
001391:                                                                                                  #  BIT 6 FLAG 13
001392: 26,2024                        ULLAGFLG           =        204D                                  #        ULLAGE REQUEST BY       NO INTERNAL ULLAGE
001393: 26,2024     4737               ULLAGER            =        BIT6                                  #        MISSION PROGRAM         REQUEST
001394:
001395:
001396:                                                                                                  #  BIT 5 FLAG 13
001397: 26,2024                        DBSL2FLG           =        205D                                  #        5 DEG DEADBAND          1 OR .3 DEG DEADBAND
001398: 26,2024     4740               DBSLECT2           =        BIT5                                  #        SELECTED BY CREW        SELECTED BY CREW
001399:                                                                                                  #                                (SEE BIT4 DAPBOOLS)
001400:
001401:
001402:                                                                                                  #  BIT 4 FLAG 13
001403: 26,2024                        DBSELFLG           =        206D                                  #        1 DEG DEADBAND          MIN DB SELECTED BY
001404: 26,2024     4741               DBSELECT           =        BIT4                                  #        SELECTED BY CREW        CREW (0.3 DEG)
001405:
001406:
001407:                                                                                                  #  BIT 3 FLAG 13
001408: 26,2024                        ACCOKFLG           =        207D                                  #        CONTROL AUTHORITY       RESTART OR FRESH ST.
001409: 26,2024     4742               ACCSOKAY           =        BIT3                                  #        VALUES FROM 1/ACCS      SINCE LAST 1/ACCS;
001410:                                                                                                  #        USABLE                  OUTPUTS SUSPECT.
001411:
001412:
001413:                                                                                                  #  BIT 2 FLAG 13
001414: 26,2024                        AUTR2FLG           =        208D                                  #        THESE FLAGS ARE USED TOGETHER TO INDICAT
001415: 26,2024     4743               AUTRATE2           =        BIT2                                  #        ASTRONAUT-CHOSEN KALCMANU MANEUVER RATES
001416:                                                                                                  #        (0,0)=(BIT2,BIT1)= 0.2 DEG/SEC
001417:                                                                                                  #        (0,1)=  0.5 DEG/SEC
001418:                                                                                                  #  BIT 1 FLAG 13
001419: 26,2024                        AUTR1FLG           =        209D                                  #        (1,0)=  2.0 DEG/SEC
001420: 26,2024     4744               AUTRATE1           =        BIT1                                  #        (1,1)= 10.0 DEG/SEC

End of include-file FLAGWORD_ASSIGNMENTS.agc.  Parent file is MAIN.agc


