
Source Code


000002:                                                                                                  ## Copyright:   Public domain.
000003:                                                                                                  ## Filename:    FLAGWORD_ASSIGNMENTS.agc
000004:                                                                                                  ## Purpose:     A section of Luminary revision 210.
000005:                                                                                                  ##              It is part of the source code for the Lunar Module's (LM)
000006:                                                                                                  ##              Apollo Guidance Computer (AGC) for Apollo 15-17.
000007:                                                                                                  ##              This file is intended to be a faithful transcription, except
000008:                                                                                                  ##              that the code format has been changed to conform to the
000009:                                                                                                  ##              requirements of the yaYUL assembler rather than the
000010:                                                                                                  ##              original YUL assembler.
000011:                                                                                                  ## Reference:   pp. 63-90
000012:                                                                                                  ## Assembler:   yaYUL
000013:                                                                                                  ## Contact:     Ron Burkey <info@sandroid.org>.
000014:                                                                                                  ## Website:     www.ibiblio.org/apollo/index.html
000015:                                                                                                  ## Mod history: 2016-11-17 JL   Created from Luminary131 version.
000016:                                                                                                  ##              2016-11-18 HG   Transcribed
000017:                                                                                                  ##              2016-12-07 HG   Fix P00 -> POO
000018:                                                                                                  ##              2016-12-15 RSB  Proofed comment text with octopus/ProoferComments,
000019:                                                                                                  ##                              and corrected the errors found.
000020:


000022:                                                                                                  #          FLAGWORDS 0-11 ARE DOWNLINKED AND CAN BE SET AND CLEARED BY UP-FLAG AND DOWN-FLAG INSTRUCTIONS IN THE
000023:                                                                                                  #                         INTERPRETER. THESE WERE PREVIOUSLY LISTED UNDER "INTERPRETIVE SWITCH BIT ASSIGNMENTS" IN
000024:                                                                                                  #                         THE ERASABLE LOG SECTION. FLAGWORDS 12 & 13 WEREPREVIOUSLY RADMODES AND DAPBOOLS AND
000025:                                                                                                  #                         ARE STILL DOWNLINKED UNDER THOSE NAMES.
000026:
000027:
000028:
000029:                                                                                                  #          ALPHABETICAL LIST OF FLAGWORDS
000030:
000031:
000032:                                                                                                  #  9             25              41                      61        COLUMN NO.
000033:                                                                                                  #  FLAGWORD      DEC. NUMBER     BIT AND FLAG            BIT NAME
000034:
000035:                                                                                                  #  ABTTGFLG      143             BIT 7 FLAG 9            ABTTGBIT
000036:                                                                                                  #  ACCOKFLG      207             BIT 3  FLAG 13          ACCSOKAY
000037:                                                                                                  #  ACC4-2FL      199             BIT 11 FLAG 13          ACC4OR2X
000038:                                                                                                  #  ACMODFLG      032             BIT 13 FLAG 2           ACMODBIT
000039:                                                                                                  #  ALTSCALE      186             BIT 9  FLAG 12          ALTSCBIT
000040:                                                                                                  #  ANTENFLG      183             BIT 12 FLAG 12          ANTENBIT
000041:                                                                                                  #  AORBSFLG      085             BIT 5 FLAG 5            AORBSYST
000042:                                                                                                  #  AORBTFLG      200             BIT 10 FLAG 13          AORBTRAN
000043:                                                                                                  #  APSESW        130             BIT 5  FLAG 8           APSESBIT
000044:                                                                                                  #  APSFLAG       152             BIT 13 FLAG 10          APSFLBIT
000045:                                                                                                  #  ASTNFLAG      108             BIT 12 FLAG 7           ASTNBIT
000046:                                                                                                  #  ATTFLAG       104             BIT 1  FLAG 6           ATTFLBIT
000047:                                                                                                  #  AUTOMODE      193             BIT 2  FLAG 12          AUTOMBIT
000048:                                                                                                  #  AUTR1FLG      209             BIT 1  FLAG 13          AUTRATE1
000049:                                                                                                  #  AUTR2FLG      208             BIT 2  FLAG 13          AUTRATE2
000050:                                                                                                  #  AUXFLAG       103             BIT 2  FLAG 6           AUXFLBIT
000051:                                                                                                  #  AVEGFLAG      115             BIT 5  FLAG 7           AVEGFBIT
000052:                                                                                                  #  AVEMIDSW      149             BIT 1  FLAG 9           AVEMDBIT
000053:                                                                                                  #  AVFLAG        040             BIT 5  FLAG 2           AVFLBIT
000054:                                                                                                  #  CALCMAN2      043             BIT 2  FLAG 2           CALC2BIT
000055:                                                                                                  #  CALCMAN3      042             BIT 3  FLAG 2           CALC3BIT
000056:                                                                                                  #  CDESFLAG      180             BIT 15 FLAG 12          CDESBIT
000057:                                                                                                  #  CMOONFLG      123             BIT 12 FLAG 8           CMOONBIT
000058:                                                                                                  #  COGAFLAG      131             BIT 4  FLAG 8           COGAFBIT
000059:                                                                                                  #  CONTRLFL      163             BIT2 FLAG 10            CONTRLBT
000060:                                                                                                  #  CSMDKFLG      197             BIT 13 FLAG 13          CSMDOCKD
000061:                                                                                                  #  CULTFLAG      053             BIT 7  FLAG 3           CULTBIT
000062:                                                                                                  #  DAPBOOLS                      FLGWRD13
000063:                                                                                                  #  DBSELFLG      206             BIT 4  FLAG 13          DBSELECT
000064:                                                                                                  #  DBSL2FLG      205             BIT 5 FLAG 13           DBSLECT2
000065:                                                                                                  #  DESIGFLG      185             BIT 10 FLAG 12          DESIGBIT
000066:                                                                                                  #  DIDFLAG       016             BIT 14 FLAG 1           DIDFLBIT
000067:                                                                                                  #  DIMOFLAG      059             BIT 1  FLAG 3           DIMOBIT
000068:


000070:                                                                                                  #  DMENFLG       081             BIT 9  FLAG 5           DMENFBIT
000071:                                                                                                  #  DRIFTDFL      202             BIT 8  FLAG 13          DRIFTBIT
000072:                                                                                                  #  DRIFTFLG      030             BIT 15 FLAG 2           DRFTBIT
000073:                                                                                                  #  DSKYFLAG      075             BIT 15 FLAG 5           DSKYFBIT
000074:                                                                                                  #  D6OR9FLG      058             BIT 2  FLAG 3           D6OR9BIT
000075:                                                                                                  #  ENGONFLG      083             BIT 7  FLAG 5           ENGONBIT
000076:                                                                                                  #  ERADFLAG      017             BIT 13 FLAG 1           ERADFBIT
000077:                                                                                                  #  ETPIFLAG      038             BIT 7  FLAG 2           ETPIBIT
000078:                                                                                                  #  FINALFLG      039             BIT 6  FLAG 2           FINALBIT
000079:                                                                                                  #  FLAGWRD0      (000-014)       (STATE +0)
000080:                                                                                                  #  FLAGWRD1      (015-029)       (STATE +1)
000081:                                                                                                  #  FLAGWRD2      (030-044)       (STATE +2)
000082:                                                                                                  #  FLAGWRD3      (045-059)       (STATE +3)
000083:                                                                                                  #  FLAGWRD4      (060-074)       (STATE +4)
000084:                                                                                                  #  FLAGWRD5      (075-089)       (STATE +5)
000085:                                                                                                  #  FLAGWRD6      (090-104)       (STATE +6)
000086:                                                                                                  #  FLAGWRD7      (105-119)       (STATE +7)
000087:                                                                                                  #  FLAGWRD8      (120-134)       (STATE +8D)
000088:                                                                                                  #  FLAGWRD9      (135-149)       (STATE +9D)
000089:                                                                                                  #  FLAP          142             BIT 8  FLAG 9           FLAPBIT
000090:                                                                                                  #  FLGWRD10      (150-164)       (STATE +10D)
000091:                                                                                                  #  FLGWRD11      (165-179)       (STATE +11D)
000092:                                                                                                  #  FLGWRD12      (180-194)       (STATE +12D)
000093:                                                                                                  #  FLGWRD13      (195-209)       (STATE +13D)
000094:                                                                                                  #  FLPC          138             BIT 12 FLAG 9           FLPCBIT
000095:                                                                                                  #  FLPI          139             BIT 11 FLAG 9           FLPIBIT
000096:                                                                                                  #  FLRCS         149             BIT 10 FLAG 9           FLRCSBIT
000097:                                                                                                  #  FLT59FLG      146             BIT 4 FLAG 9            FLT59BIT
000098:                                                                                                  #  FLUNDISP      125             BIT 10 FLAG 8           FLUNDBIT
000099:                                                                                                  #  FLVR          136             BIT 14 FLAG 9           FLVRBIT
000100:                                                                                                  #  FREEFLAG      012             BIT 3  FLAG 0           FREEFBIT
000101:                                                                                                  #  FRSTIME       026             BIT 4 FLAG1             FRSTMBIT
000102:                                                                                                  #  FSPASFLG      005             BIT 10 FLAG 0           FSPASBIT
000103:                                                                                                  #  GLOKFAIL      046             BIT 14 FLAG 3           GLOKFBIT
000104:                                                                                                  #  GMBDRVSW      095             BIT 10 FLAG 6           GMBDRBIT
000105:                                                                                                  #  GUESSW        028             BIT 2  FLAG 1           GUESSBIT
000106:                                                                                                  #  HFAILFLG      167             BIT 13 FLAG 11          HFAILBIT
000107:                                                                                                  #  HFLSHFLG      179             BIT 1  FLAG 11          HFLSHBIT
000108:                                                                                                  #  IDLEFLAG      113             BIT 7  FLAG 7           IDLEFBIT
000109:                                                                                                  #  IGNFLAG       107             BIT 13 FLAG 7           IGNFLBIT
000110:                                                                                                  #  IMPULSW       036             BIT 9  FLAG 2           IMPULBIT
000111:                                                                                                  #  IMUSE         007             BIT 8  FLAG 0           IMUSEBIT
000112:                                                                                                  #  INFINFLG      128             BIT 7  FLAG 8           INFINBIT
000113:                                                                                                  #  INITALGN      133             BIT 2  FLAG 8           INITABIT
000114:                                                                                                  #  INTFLAG       151             BIT 14 FLAG 10          INTFLBIT
000115:                                                                                                  #  INTYPFLG      056             BIT 4  FLAG 3           INTYPBIT
000116:                                                                                                  #  ITSWICH       105             BIT 15 FLAG 7           ITSWBIT
000117:                                                                                                  #  JSWITCH       001             BIT 14 FLAG 0           JSWCHBIT
000118:                                                                                                  #  LETABORT      141             BIT 9  FLAG 9           LETABBIT
000119:                                                                                                  #  LMOONFLG      124             BIT 11 FLAG 8           LMOONBIT
000120:


000122:                                                                                                  #  LOKONSW       010             BIT 5  FLAG 0           LOKONBIT
000123:                                                                                                  #  LOSCMFLG      033             BIT 12 FLAG 2           LOSCMBIT
000124:                                                                                                  #  LRALTFLG      190             BIT 5  FLAG 12          LRALTBIT
000125:                                                                                                  #  LRBYPASS      165             BIT 15 FLAG 11          LRBYBIT
000126:                                                                                                  #  LRINH         172             BIT 8  FLAG 11          LRINHBIT
000127:                                                                                                  #  LRPOSFLG      189             BIT 6  FLAG 12          LRPOSBIT
000128:                                                                                                  #  LRVELFLG      187             BIT 8  FLAG 12          LRVELBIT
000129:                                                                                                  #  LUNAFLAG      048             BIT 12 FLAG 3           LUNABIT
000130:                                                                                                  #  MANUFLAG      106             BIT 14 FLAG 7           MANUFBIT
000131:                                                                                                  #  MGLVFLAG      088             BIT 2  FLAG 5           MGLVFBIT
000132:                                                                                                  #  MIDAVFLG      148             BIT 2  FLAG 9           MIDAVBIT
000133:                                                                                                  #  MIDFLAG       002             BIT 13 FLAG 0           MIDFLBIT
000134:                                                                                                  #  MID1FLAG      147             BIT 3  FLAG 9           MID1BIT
000135:                                                                                                  #  MKOVFLAG      072             BIT 3  FLAG 4           MKOVBIT
000136:                                                                                                  #  MOONFLAG      003             BIT 12 FLAG 0           MOONBIT
000137:                                                                                                  #  MRKIDFLG      060             BIT 15 FLAG 4           MRKIDBIT
000138:                                                                                                  #  MRKNVFLG      066             BIT 9  FLAG 4           MRKNVBIT
000139:                                                                                                  #  MRUPTFLG      070             BIT 5 FLAG 4            MRUPTBIT
000140:                                                                                                  #  MUNFLAG       097             BIT 8 FLAG 6            MUNFLBIT
000141:                                                                                                  #  MWAITFLG      064             BIT 11 FLAG 4           MWAITBIT
000142:                                                                                                  #  NEEDLFLG      011             BIT 4  FLAG 0           NEEDLBIT
000143:                                                                                                  #  NEED2FLG      000             BIT 15 FLAG 0           NEED2BIT
000144:                                                                                                  #  NEWIFLG       122             BIT 13 FLAG 8           NEWIBIT
000145:                                                                                                  #  NJETSFLG      015             BIT 15 FLAG 1           NJETSBIT
000146:                                                                                                  #  NODOFLAG      044             BIT 1  FLAG 2           NODOBIT
000147:                                                                                                  #  NODOPC7       049             BIT 11 FLAG 3           NOPO7BIT
000148:                                                                                                  #  NOLRREAD      170             BIT 10 FLAG 11          NOLRRBIT
000149:                                                                                                  #  NORMSW        110             BIT 10 FLAG 7           NORMSBIT
000150:                                                                                                  #  NORRMON       086             BIT 4  FLAG 5           NORRMBIT
000151:                                                                                                  #  NOTERFLG      019             BIT 11 FLAG 1           NOTERBIT
000152:                                                                                                  #  NOTHROTL      078             BIT 12 FLAG 5           NOTHRBIT
000153:                                                                                                  #  NOUPFLAG      024             BIT 6  FLAG 1           NOUPFBIT
000154:                                                                                                  #  NPGNCSFL      164             BIT  1 FLAG 10          NPGNCSBY
000155:                                                                                                  #  NRMNVFLG      067             BIT 8  FLAG 4           NRMNVBIT
000156:                                                                                                  #  NRMIDFLG      062             BIT 13 FLAG 4           NRMIDBIT
000157:                                                                                                  #  NRUPTFLG      071             BIT 4  FLAG 4           NRUPTBIT
000158:                                                                                                  #  NTARGFLG      102             BIT 3  FLAG 6           NTARGBIT
000159:                                                                                                  #  NWAITFLG      065             BIT 10 FLAG 4           NWAITBIT
000160:                                                                                                  #  ORBWFLAG      054             BIT 6  FLAG 3           ORBWFBIT
000161:                                                                                                  #  ORDERSW       129             BIT 6  FLAG 8           ORDERBIT
000162:                                                                                                  #  OURRCFLG      198             BIT 12 FLAG 13          OURRCBIT
000163:                                                                                                  #  PDSPFLAG      076             BIT 14 FLAG 5           PDSPFBIT
000164:                                                                                                  #  PFRATFLG      041             BIT 4  FLAG 2           PFRATBIT
000165:                                                                                                  #  PINBRFLG      069             BIT 6  FLAG 4           PINBRBIT
000166:                                                                                                  #  POOHFLAG      045             BIT 15 FLAG 3           POOHBIT
000167:                                                                                                  #  PRECIFLG      052             BIT 8  FLAG 3           PRECIBIT
000168:                                                                                                  #  PRIODFLG      061             BIT 14 FLAG 4           PRIODBIT
000169:                                                                                                  #  PRONVFLG      068             BIT 7  FLAG 4           PRONVBIT
000170:                                                                                                  #  PSTHIGAT      169             BIT 11 FLAG 11          PSTHIBIT
000171:                                                                                                  #  PULSEFLG      195             BIT 15 FLAG 13          PULSES
000172:


000174:                                                                                                  #  P21FLAG       004             BIT 11 FLAG 0           P21FLBIT
000175:                                                                                                  #  P25FLAG       006             BIT 9  FLAG 0           P25FLBIT
000176:                                                                                                  #  P66PROFL      014D            BIT 1 FLAG 0            P66PROBT
000177:                                                                                                  #  P7071FLG      137             BIT 13 FLAG 9           P7071BIT
000178:                                                                                                  #  QUITFLAG      145             BIT 5  FLAG 9           QUITBIT
000179:                                                                                                  #  RADMODES                      FLGWRD12
000180:                                                                                                  #  RASFLAG                       FLGWRD10
000181:                                                                                                  #  RCDUFAIL      188             BIT 7  FLAG 12          RCDUFBIT
000182:                                                                                                  #  RCDU0FLG      182             BIT 13 FLAG 12          RCDU0BIT
000183:                                                                                                  #  REDFLAG       099             BIT 6  FLAG 6           REDFLBIT
000184:                                                                                                  #  REFSMFLG      047             BIT 13 FLAG 3           REFSMBIT
000185:                                                                                                  #  REINTFLG      158             BIT 7  FLAG 10          REINTBIT
000186:                                                                                                  #  REMODFLG      181             BIT 14 FLAG 12          REMODBIT
000187:                                                                                                  #  RENDWFLG      089             BIT 1  FLAG 5           RENDWBIT
000188:                                                                                                  #  REPOSMON      184             BIT 11 FLAG 12          REPOSBIT
000189:                                                                                                  #  RHCSCFLG      203             BIT 7  FLAG 13          RHCSCALE
000190:                                                                                                  #  RNDVZFLG      008             BIT 7  FLAG 0           RNDVZBIT
000191:                                                                                                  #  RNGEDATA      176             BIT 4  FLAG 11          RNGEDBIT
000192:                                                                                                  #  RNGSCFLG      080             BIT 10 FLAG 5           RNGSCBIT
000193:                                                                                                  #  RODFLAG       018             BIT 12 FLAG 1           RODFLBIT
000194:                                                                                                  #  ROTFLAG       144             BIT 6  FLAG 9           ROTFLBIT
000195:                                                                                                  #  RPQFLAG       120             BIT 15 FLAG 8           RPQFLBIT
000196:                                                                                                  #  RRDATAFL      191             BIT 4  FLAG 12          RRDATABT
000197:                                                                                                  #  RRNBSW        009             BIT 6 FLAG 0            RRNBBIT
000198:                                                                                                  #  RRRSFLAG      192             BIT 3  FLAG 12          RRRSBIT
000199:                                                                                                  #  RVSW          111             BIT 9  FLAG 7           RVSWBIT
000200:                                                                                                  #  R04FLAG       051             BIT 9  FLAG 3           R04FLBIT
000201:                                                                                                  #  R10FLAG       013             BIT 2  FLAG 0           R10FLBIT
000202:                                                                                                  #  R12RDFLG      177D            BIT 3  FLAG 11          R12RDBIT
000203:                                                                                                  #  R61FLAG       020             BIT 10 FLAG 1           R61FLBIT
000204:                                                                                                  #  R77FLAG       079             BIT 11 FLAG 5           R77FLBIT
000205:                                                                                                  #  SLOPESW       027             BIT 3  FLAG 1           SLOPEBIT
000206:                                                                                                  #  SNUFFER       077             BIT 13 FLAG 5           SNUFFBIT
000207:                                                                                                  #  SOLNSW        087             BIT 3  FLAG 5           SOLNSBIT
000208:                                                                                                  #  SRCHOPTN      031             BIT 14 FLAG 2           SRCHOBIT
000209:                                                                                                  #  STATEFLG      055             BIT 5  FLAG 3           STATEBIT
000210:                                                                                                  #  STEERSW       034             BIT 11 FLAG 2           STEERBIT
000211:                                                                                                  #  SURFFLAG      127             BIT 8  FLAG 8           SURFFBIT
000212:                                                                                                  #  SWANDISP      109             BIT 11 FLAG 7           SWANDBIT
000213:                                                                                                  #  S32.1F1       090             BIT 15 FLAG 6           S32BIT1
000214:                                                                                                  #  S32.1F2       092             BIT 14 FLAG 6           S32BIT2
000215:                                                                                                  #  S32.1F3A      092             BIT 13 FLAG 6           S32BIT3A
000216:                                                                                                  #  S32.1F3B      093             BIT 12 FLAG 6           S32BIT3B
000217:                                                                                                  #  TFFSW         119             BIT 1  FLAG 7           TFFSWBIT
000218:                                                                                                  #  TRACKFLG      025             BIT 5  FLAG 1           TRACKBIT
000219:                                                                                                  #  TURNONFL      194             BIT 1  FLAG 12          TURNONBT
000220:                                                                                                  #  ULLAGFLG      204             BIT 6  FLAG 13          ULLAGER
000221:                                                                                                  #  UPDATFLG      023             BIT 7  FLAG 1           UPDATBIT
000222:                                                                                                  #  UPLOCKFL      116             BIT 4  FLAG 7           UPLOCBIT
000223:                                                                                                  #  USEQRFLG      196             BIT 14 FLAG 13          USEQRJTS
000224:


000226:                                                                                                  #  VEHUPFLG      022             BIT 8  FLAG 1           VEHUPBIT
000227:                                                                                                  #  VELDATA       173             BIT 7  FLAG 11          VELDABIT
000228:                                                                                                  #  VERIFLAG      117             BIT 3  FLAG 7           VERIFBIT
000229:                                                                                                  #  VFAILFLG      166             BIT 14 FLAG 11          VFAILBIT
000230:                                                                                                  #  VFLAG         050             BIT 10 FLAG 3           VFLAGBIT
000231:                                                                                                  #  VFLSHFLG      178             BIT 2  FLAG 11          VFLSHBIT
000232:                                                                                                  #  VINTFLAG      057             BIT 3  FLAG 3           VINTFBIT
000233:                                                                                                  #  VXINH         168             BIT 12 FLAG 11          VXINHBIT
000234:                                                                                                  #  V37FLAG       114             BIT 6  FLAG 7           V37FLBIT
000235:                                                                                                  #  V67FLAG       112             BIT 8  FLAG 7           V67FLBIT
000236:                                                                                                  #  V82EMFLG      118             BIT 2  FLAG 7           V82EMBIT
000237:                                                                                                  #  XDELVFLG      037             BIT 8  FLAG 2           XDELVBIT
000238:                                                                                                  #  XDSPFLAG      074             BIT 1  FLAG 4           XDSPBIT
000239:                                                                                                  #  XORFLG        171             BIT 9  FLAG 11          XORFLBIT
000240:                                                                                                  #  XOVINFLG      201             BIT 9  FLAG 13          XOVINHIB
000241:                                                                                                  #  ZOOMFLAG      082             BIT 8  FLAG 5           ZOOMBIT
000242:                                                                                                  #  3AXISFLG      084             BIT 6 FLAG 5            3AXISBIT
000243:                                                                                                  #  360SW         134             BIT 1  FLAG 8           360SWBIT
000244:
000245:
000246:
000247:                                                                                                  #           ASSIGNMENT AND DESCRIPTION OF FLAGWORDS
000248:
000249: 26,2024     0074               FLAGWRD0           =        STATE      +0                         #        (000-014)
000250:
000251:                                                                                                  #        (SET)                   (RESET)
000252:                                                                                                  #  BIT 15 FLAG 0 (S)
000253: 26,2024                        NEED2FLG           =        000D                                  #        DISPLAY DAP RATES       CHECK BIT 4 OF THIS
000254: 26,2024     4726               NEED2BIT           =        BIT15                                 #        ON FDAI NEEDLES.        WORD FOR DISPLAY
000255:                                                                                                  #                                MODES (1 OR 2).
000256:
000257:                                                                                                  #  BIT 14 FLAG 0  (S)
000258: 26,2024                        JSWITCH            =        001D                                  #        INTEGRATION OF W        INTEGRATION OF STATE
000259: 26,2024     4727               JSWCHBIT           =        BIT14                                 #        MATRIX                  VECTOR
000260:
000261:
000262:                                                                                                  #  BIT 13 FLAG 0 (S)
000263: 26,2024                        MIDFLAG            =        002D                                  #        INTEGRATION WITH        INTEGRATION WITHOUT
000264:                                                                                                  #        SECONDARY BODY AND      SOLAR PERTURBATIONS
000265: 26,2024     4730               MIDFLBIT           =        BIT13                                 #        SOLAR PERTURBATIONS
000266:
000267:                                                                                                  #  BIT 12 FLAG 0 (L)
000268: 26,2024                        MOONFLAG           =        003D                                  #        MOON IS SPHERE OF       EARTH IS SPHERE OF
000269: 26,2024     4731               MOONBIT            =        BIT12                                 #        INFLUENCE               INFLUENCE
000270:
000271:
000272:                                                                                                  #  BIT 11 FLAG 0
000273:


000275: 26,2024                        P21FLAG            =        004D                                  #        USE BASE VECTORS        1ST PASS -- CALC-
000276: 26,2024     4732               P21FLBIT           =        BIT11                                 #        ALREADY CALCULATED      ULATE BASE VECTORS
000277:
000278:
000279:                                                                                                  #  BIT 10 FLAG 0
000280: 26,2024                        FSPASFLG           =        005D                                  #        FIRST PASS THROUGH      NOT FIRST PASS THRU
000281: 26,2024     4733               FSPASBIT           =        BIT10                                 #        REPOSITION ROUTINE      REPOSITION ROUTINE
000282:
000283:
000284:                                                                                                  #  BIT 9 FLAG 0  (S)
000285: 26,2024                        P25FLAG            =        006D                                  #        P25 OPERATING           P25 NOT OPERATING
000286: 26,2024     4734               P25FLBIT           =        BIT9
000287:
000288:
000289:                                                                                                  #  BIT 8 FLAG 0  (S)
000290: 26,2024                        IMUSE              =        007D                                  #        IMU IN USE              IMU NOT IN USE
000291: 26,2024     4735               IMUSEBIT           =        BIT8
000292:
000293:
000294:                                                                                                  #  BIT 7 FLAG 0  (S)
000295: 26,2024                        RNDVZFLG           =        008D                                  #        P20 RUNNING (RADAR      P20 NOT RUNNING
000296: 26,2024     4736               RNDVZBIT           =        BIT7                                  #        IN USE)
000297:
000298:
000299:                                                                                                  #  BIT 6 FLAG 0  (S)
000300: 26,2024                        RRNBSW             =        009D                                  #        RADAR TARGET IN         RADAR TARGET IN
000301: 26,2024     4737               RRNBBIT            =        BIT6                                  #        NB COORDINATES          SM COORDINATES
000302:
000303:
000304:                                                                                                  #  BIT 5 FLAG 0  (S)
000305: 26,2024                        LOKONSW            =        010D                                  #        RADAR LOCK-ON           RADAR LOCK-ON NOT
000306: 26,2024     4740               LOKONBIT           =        BIT5                                  #        DESIRED                 DESIRED
000307:
000308:
000309:                                                                                                  #  BIT 4 FLAG 0  (S)
000310: 26,2024                        NEEDLFLG           =        011D                                  #        TOTAL ATTITUDE          A/P FOLLOWING
000311: 26,2024     4741               NEEDLBIT           =        BIT4                                  #        ERROR DISPLAYED         ERROR DISPLAYED
000312:
000313:
000314:                                                                                                  #  BIT 3 FLAG 0
000315: 26,2024                        FREEFLAG           =        012D                                  #  (USED BY P51-53 TEMP IN MANY DIFFERENT
000316:                                                                                                  #  ROUTINES & BY LUNAR + SOLAR EPHEMERIDES)
000317: 26,2024     4742               FREEFBIT           =        BIT3
000318:
000319:
000320:                                                                                                  #  BIT 2 FLAG 0
000321: 26,2024                        R10FLAG            =        013D                                  #        R10 OUTPUTS DATA TO     BESIDES OUTPUT WHEN
000322: 26,2024     4743               R10FLBIT           =        BIT2                                  #        ALTITUDE & ALTITUDE     SET, R10 ALSO OUTPUT
000323:                                                                                                  #        RATE METERS ONLY        TO FORWARD & LATERAL
000324:                                                                                                  #                                VELOCITY CROSSPOINTR
000325:


000327:
000328:
000329: 26,2024                        P66PROFL           =        014D                                  #        CONTINUE P66            STOP P66
000330: 26,2024     4744               P66PROBT           =        BIT1                                  #        HORIZONTAL              HORIZONTAL VEL
000331:                                                                                                  #        VELOCITY NULLING        NULLING
000332:
000333:
000334:
000335: 26,2024     0075               FLAGWRD1           =        STATE      +1                         #        (015-029)
000336:
000337:                                                                                                  #        (SET)                   (RESET)
000338:
000339:                                                                                                  #  BIT 15 FLAG 1 (S)
000340: 26,2024                        NJETSFLG           =        015D                                  #        TWO JET RCS BURN        FOUR JET RCS BURN
000341: 26,2024     4726               NJETSBIT           =        BIT15
000342:
000343:
000344:                                                                                                  #  BIT 14 FLAG 1 (L)
000345: 26,2024                        DIDFLAG            =        016D                                  #        INERTIAL DATA IS        PERFORM DATA DISPLAY
000346: 26,2024     4727               DIDFLBIT           =        BIT14                                 #        AVAILABLE               INITIALIZATION FUNCS
000347:
000348:
000349:                                                                                                  #  BIT 13 FLAG 1 (S)
000350: 26,2024                        ERADFLAG           =        017D                                  #        COMPUTE REARTH          USE CONSTANT REARTH
000351: 26,2024     4730               ERADFBIT           =        BIT13                                 #        FISCHER ELLIPSOID       PAD RADIUS
000352:
000353:
000354:                                                                                                  #  BIT 12 FLAG 1
000355: 26,2024                        RODFLAG            =        018D                                  #        IF IN P66, NORMAL       IF IN P66, RE-INIT-
000356: 26,2024     4731               RODFLBIT           =        BIT12                                 #        OPERATION CONTINUES.     IALIZATION IS PER-
000357:                                                                                                  #        RESTART CLEARS FLAG      FORMED AND FLAG IS
000358:
000359:                                                                                                  #  BIT 11 FLAG 1
000360: 26,2024                        NOTERFLG           =        019D                                  #        TERRAIN MODEL           TERRAIN MODEL
000361: 26,2024     4732               NOTERBIT           =        BIT11                                 #        INHIBITED               PERMITTED
000362:
000363:
000364:                                                                                                  #  BIT 10 FLAG 1 (L)
000365: 26,2024                        R61FLAG            =        020D                                  #        RUN R61 LEM             RUN R65 LEM
000366: 26,2024     4733               R61FLBIT           =        BIT10
000367:
000368:                                                                                                  #  BIT 9 FLAG 1
000369:                                                                                                  #                =               021D
000370:                                                                                                  #                =               BIT9
000371:
000372:                                                                                                  #  BIT 8 FLAG 1  (S)
000373:


000375: 26,2024                        VEHUPFLG           =        022D                                  #        CSM STATE VECTOR        LEM STATE VECTOR
000376: 26,2024     4735               VEHUPBIT           =        BIT8                                  #        BEING UPDATED           BEING UPDATED
000377:
000378:
000379:                                                                                                  #  BIT 7 FLAG 1  (S)
000380: 26,2024                        UPDATFLG           =        023D                                  #        UPDATING BY MARKS       UPDATING BY MARKS
000381: 26,2024     4736               UPDATBIT           =        BIT7                                  #        ALLOWED                 NOT ALLOWED
000382:
000383:
000384:                                                                                                  #  BIT 6 FLAG 1  (S)
000385: 26,2024                        NOUPFLAG           =        024D                                  #        NEITHER CSM             EITHER STATE
000386:                                                                                                  #        NOR LM STATE VECTOR     VECTOR MAY BE
000387: 26,2024     4737               NOUPFBIT           =        BIT6                                  #        MAY BE UPDATED          UPDATED
000388:
000389:
000390:                                                                                                  #  BIT 5 FLAG 1  (S)
000391: 26,2024                        TRACKFLG           =        025D                                  #        TRACKING ALLOWED        TRACKING NOT ALLOWED
000392: 26,2024     4740               TRACKBIT           =        BIT5
000393:
000394:
000395:                                                                                                  #  BIT 4 FLAG 1
000396: 26,2024                        FRSTIME            =        026D                                  #        FIRST TIME THRU         NOT FIRST TIME THRU
000397: 26,2024     4741               FRSTMBIT           =        BIT4                                  #        PREPOSITION             PREPOSITION
000398:
000399:
000400:                                                                                                  #  BIT 3 FLAG 1  (S)
000401: 26,2024                        SLOPESW            =        027D                                  #        ITERATE WITH BIAS       ITERATE WITH REGULAR
000402:                                                                                                  #        METHOD IN ITERATOR      FALSI METHOD IN
000403: 26,2024     4742               SLOPEBIT           =        BIT3                                  #                                ITERATOR
000404:
000405:
000406:                                                                                                  #  BIT 2 FLAG 1  (S)
000407: 26,2024                        GUESSW             =        028D                                  #        NO STARTING VALUE       STARTING VALUE FOR
000408: 26,2024     4743               GUESSBIT           =        BIT2                                  #        FOR ITERATION           ITERATION EXISTS
000409:
000410:
000411:                                                                                                  #  BIT 1 FLAG 1
000412:                                                                                                  #                =               029D
000413:
000414:
000415: 26,2024     0076               FLAGWRD2           =        STATE      +2                         #        (030-044)
000416:
000417:                                                                                                  #        (SET)                   (RESET)
000418:
000419:                                                                                                  #  BIT 15 FLAG 2 (S)
000420: 26,2024                        DRIFTFLG           =        030D                                  #        T3RUPT CALLS GYRO       T3RUPT DOES NO GYRO
000421: 26,2024     4726               DRFTBIT            =        BIT15                                 #        COMPENSATION            COMPENSATION
000422:


000425:                                                                                                  #  BIT 14 FLAG 2 (S)
000426:


000428: 26,2024                        SRCHOPTN           =        031D                                  #        RADAR IN AUTOMATIC      RADAR NOT IN AUTO-
000429: 26,2024     4727               SRCHOBIT           =        BIT14                                 #        SEARCH OPTION (R24)     MATIC SEARCH OPTION
000430:
000431:
000432:                                                                                                  #  BIT 13 FLAG 2 (S)
000433: 26,2024                        ACMODFLG           =        032D                                  #        MANUAL ACQUISITION      AUTO ACQUISITION
000434: 26,2024     4730               ACMODBIT           =        BIT13                                 #        BY RENDESVOUS RADAR     BY RENDESVOUS RADAR
000435:
000436:
000437:                                                                                                  #  BIT 12 FLAG 2 (S)
000438: 26,2024                        LOSCMFLG           =        033D                                  #        LINE OF SIGHT BEING     LINE OF SIGHT NOT
000439:                                                                                                  #        COMPUTED (R21)          BEING COMPUTED
000440: 26,2024     4731               LOSCMBIT           =        BIT12
000441:
000442:
000443:                                                                                                  #  BIT 11 FLAG 2 (S)
000444: 26,2024                        STEERSW            =        034D                                  #        SUFFICIENT THRUST       INSUFFICIENT THRUST
000445: 26,2024     4732               STEERBIT           =        BIT11                                 #        IS PRESENT              IS PRESENT
000446:
000447:                                                                                                  #  BIT 10 FLAG 2 (S)
000448:
000449:
000450:                                                                                                  #  BIT 9 FLAG 2 (S)
000451: 26,2024                        IMPULSW            =        036D                                  #        MINIMUM IMPULSE         STEERING BURN (NO
000452:                                                                                                  #        BURN (CUTOFF TIME       CUTOFF TIME YET
000453: 26,2024     4734               IMPULBIT           =        BIT9                                  #        SPECIFIED)              AVAILABLE)
000454:
000455:
000456:                                                                                                  #  BIT 8 FLAG 2 (S)
000457: 26,2024                        XDELVFLG           =        037D                                  #        EXTERNAL DELTAV VG      LAMBERT (AIMPOINT)
000458: 26,2024     4735               XDELVBIT           =        BIT8                                  #        COMPUTATION             VG COMPUTATION
000459:
000460:
000461:                                                                                                  #  BIT 7 FLAG 2 (S)
000462: 26,2024                        ETPIFLAG           =        038D                                  #        ELEVATION ANGLE         TPI TIME SUPPLIED
000463:                                                                                                  #        SUPPLIED FOR            FOR P34,74 TO COMPUT
000464: 26,2024     4736               ETPIBIT            =        BIT7                                  #        P34,74                  ELEVATION
000465:
000466:
000467:                                                                                                  #  BIT 6 FLAG 2 (S)
000468: 26,2024                        FINALFLG           =        039D                                  #        LAST PASS THROUGH       INTERIM PASS THROUGH
000469:                                                                                                  #        RENDEZVOUS PROGRAM      RENDEZVOUS PROGRAM
000470: 26,2024     4737               FINALBIT           =        BIT6                                  #        COMPUTATIONS            COMPUTATIONS
000471:
000472:
000473:                                                                                                  #  BIT 5 FLAG 2 (S)
000474: 26,2024                        AVFLAG             =        040D                                  #        LEM IS ACTIVE           CSM IS ACTIVE
000475: 26,2024     4740               AVFLBIT            =        BIT5                                  #        VEHICLE                 VEHICLE
000476:
000477:


000479:                                                                                                  #  BIT 4 FLAG 2 (S)
000480: 26,2024                        PFRATFLG           =        041D                                  #        PREFERRED ATTITUDE      PREFERRED ATTITUDE
000481: 26,2024     4741               PFRATBIT           =        BIT4                                  #        COMPUTED                NOT COMPUTED
000482:
000483:
000484:                                                                                                  #  BIT 3 FLAG 2 (S)
000485: 26,2024                        CALCMAN3           =        042D                                  #        NO FINAL ROLL           FINAL ROLL IS
000486: 26,2024     4742               CALC3BIT           =        BIT3                                  #                                NECESSARY
000487:
000488:
000489:                                                                                                  #  BIT 2 FLAG 2 (S)
000490: 26,2024                        CALCMAN2           =        043D                                  #        PERFORM MANEUVER        BYPASS STARTING
000491: 26,2024     4743               CALC2BIT           =        BIT2                                  #        STARTING PROCEDURE      PROCEDURE
000492:
000493:
000494:                                                                                                  #  BIT 1 FLAG 2 (S)
000495: 26,2024                        NODOFLAG           =        044D                                  #        V37 NOT PERMITTED       V37 PERMITTED
000496: 26,2024     4744               NODOBIT            =        BIT1
000497:
000498:
000499: 26,2024     0077               FLAGWRD3           =        STATE      +3                         #        (045-059)
000500:
000501:                                                                                                  #        (SET)                   (RESET)
000502:
000503:                                                                                                  #  BIT 15 FLAG 3
000504: 26,2024                        POOHFLAG           =        045D                                  #        INHIBIT BACKWARDS       ALLOW BACKWARDS
000505: 26,2024     4726               POOHBIT            =        BIT15                                 #        INTEGRATION             INTEGRATION
000506:
000507:
000508:                                                                                                  #  BIT 14 FLAG 3 (S)
000509: 26,2024                        GLOKFAIL           =        046D                                  #        GIMBAL LOCK HAS         NOT IN GIMBAL LOCK
000510: 26,2024     4727               GLOKFBIT           =        BIT14                                 #        OCCURRED
000511:
000512:                                                                                                  #  BIT 13 FLAG 3 *** PROTECTED FROM FRESH START ***
000513: 26,2024                        REFSMFLG           =        047D                                  #        REFSMMAT GOOD           REFSMMAT NO GOOD
000514: 26,2024     4730               REFSMBIT           =        BIT13
000515:
000516:
000517:                                                                                                  #  BIT 12 FLAG 3 (S)
000518: 26,2024                        LUNAFLAG           =        048D                                  #        LUNAR LAT-LONG          EARTH LAT-LONG
000519: 26,2024     4731               LUNABIT            =        BIT12
000520:
000521:
000522:                                                                                                  #  BIT 11 FLAG 3 (L)
000523: 26,2024                        NODOPO7            =        049D                                  #        SYSTEM TESTS             SYSTEM TESTS
000524: 26,2024     4732               NOP07BIT           =        BIT11                                 #        NOT ALLOWED              ALLOWED
000525:
000526:                                                                                                  #  BIT 10 FLAG 3 (S)
000527:


000529: 26,2024                        VFLAG              =        050D                                  #        LESS THAN TWO STARS     TWO STARS IN FIELD
000530: 26,2024     4733               VFLAGBIT           =        BIT10                                 #        IN FIELD OF VIEW        OF VIEW
000531:
000532:
000533:                                                                                                  #  BIT 9 FLAG 3  (S)
000534: 26,2024                        R04FLAG            =        051D                                  #        R04 RUNNING             R04 NOT RUNNING
000535: 26,2024     4734               R04FLBIT           =        BIT9
000536:
000537:
000538:                                                                                                  #  BIT 8 FLAG 3  (S)
000539: 26,2024                        PRECIFLG           =        052D                                  #        NORMAL INTEGRATION      ENGAGES 4-TIME STEP
000540:                                                                                                  #        IN POO                  (POO) LOGIC IN INTE-
000541: 26,2024     4735               PRECIBIT           =        BIT8                                  #                                GRATION
000542:
000543:
000544:                                                                                                  #  BIT 7 FLAG 3  (S)
000545: 26,2024                        CULTFLAG           =        053D                                  #        STAR OCCULTED           STAR NOT OCCULTED
000546: 26,2024     4736               CULTBIT            =        BIT7
000547:
000548:
000549:                                                                                                  #  BIT 6 FLAG 3  (S)
000550: 26,2024                        ORBWFLAG           =        054D                                  #        W MATRIX VALID FOR      W MATRIX INVALID FOR
000551: 26,2024     4737               ORBWFBIT           =        BIT6                                  #        ORBITAL NAVIGATION      ORBITAL NAVIGATION
000552:
000553:
000554:                                                                                                  #  BIT 5 FLAG 3  (S)
000555: 26,2024                        STATEFLG           =        055D                                  #        PERMANENT STATE         PERMANENT STATE
000556: 26,2024     4740               STATEBIT           =        BIT5                                  #        VECTOR UPDATED          VECTOR NOT UPDATED
000557:
000558:
000559:                                                                                                  #  BIT 4 FLAG 3  (S)
000560: 26,2024                        INTYPFLG           =        056D                                  #        CONIC INTEGRATION       ENCKE INTEGRATION
000561: 26,2024     4741               INTYPBIT           =        BIT4
000562:
000563:
000564:                                                                                                  #  BIT 3 FLAG 3  (S)
000565: 26,2024                        VINTFLAG           =        057D                                  #        CSM STATE VECTOR        LEM STATE VECTOR
000566: 26,2024     4742               VINTFBIT           =        BIT3                                  #        BEING INTEGRATED        BEING INTEGRATED
000567:
000568:
000569:                                                                                                  #  BIT 2 FLAG 3 (S)
000570: 26,2024                        D6OR9FLG           =        058D                                  #        DIMENSION OF W IS 9     DIMENSION OF W IS 6
000571: 26,2024     4743               D6OR9BIT           =        BIT2                                  #        FOR INTEGRATION         FOR INTEGRATION
000572:
000573:
000574:                                                                                                  #  BIT 1 FLAG 3  (S)
000575: 26,2024                        DIM0FLAG           =        059D                                  #        W MATRIX IS TO BE       W MATRIX IS NOT TO
000576: 26,2024     4744               DIM0BIT            =        BIT1                                  #        USED                    BE USED
000577:
000578:


000580: 26,2024     0100               FLAGWRD4           =        STATE      +4                         #        (060-074)
000581:
000582:                                                                                                  #        (SET)                   (RESET)
000583:
000584:                                                                                                  #  BIT 15 FLAG 4 (S)
000585: 26,2024                        MRKIDFLG           =        060D                                  #        MARK DISPLAY IN         NO MARK DISPLAY IN
000586: 26,2024     4726               MRKIDBIT           =        BIT15                                 #        ENDIDLE                 ENDIDLE
000587:
000588:
000589:                                                                                                  #  BIT 14 FLAG 4 (S)
000590: 26,2024                        PRIODFLG           =        061D                                  #        PRIORITY DISPLAY IN     NO PRIORITY DISPLAY
000591: 26,2024     4727               PRIODBIT           =        BIT14                                 #        ENDIDLE                 IN ENDIDLE
000592:
000593:
000594:                                                                                                  #  BIT 13 FLAG 4 (S)
000595: 26,2024                        NRMIDFLG           =        062D                                  #        NORMAL DISPLAY IN       NO NORMAL DISPLAY
000596: 26,2024     4730               NRMIDBIT           =        BIT13                                 #        ENDIDLE                 IN ENDIDLE
000597:
000598:
000599:                                                                                                  #  BIT 12 FLAG 4 (S)
000600:                                                                                                  #  CODE IN        =               063D
000601:                                                                                                  #  DISPLAY AREA   REFERS TO THIS BIT; CHANGES NEEDED IF USED IN FUTURE.
000602:
000603:                                                                                                  #  BIT 11 FLAG 4 (S)
000604: 26,2024                        MWAITFLG           =        064D                                  #        HIGHER PRIORITY         NO HIGHER PRIORITY
000605:                                                                                                  #        DISPLAY OPERATING       DISPLAY OPERATING
000606: 26,2024     4732               MWAITBIT           =        BIT11                                 #        WHEN MARK DISPLAY       WHEN MARK DISPLAY
000607:                                                                                                  #        INITIATED               INITIATED
000608:
000609:                                                                                                  #  BIT 10 FLAG 4 (S)
000610: 26,2024                        NWAITFLG           =        065D                                  #        HIGHER PRIORITY         NO HIGHER PRIORITY
000611:                                                                                                  #        DISPLAY OPERATING       DISPLAY OPERATING
000612: 26,2024     4733               NWAITBIT           =        BIT10                                 #        WHEN NORMAL             WHEN NORMAL DISPLAY
000613:                                                                                                  #        DISPLAY INITIATED       INITIATED
000614:
000615:                                                                                                  #  BIT 9 FLAG 4  (S)
000616: 26,2024                        MRKNVFLG           =        066D                                  #        ASTRONAUT USING         ASTRONAUT NOT USING
000617:                                                                                                  #        KEYBOARD WHEN MARK      KEYBOARD WHEN MARK
000618: 26,2024     4734               MRKNVBIT           =        BIT9                                  #        DISPLAY INITIATED       DISPLAY INITIATED
000619:
000620:
000621:                                                                                                  #  BIT 8 FLAG 4  (S)
000622: 26,2024                        NRMNVFLG           =        067D                                  #        ASTRONAUT USING         ASTRONAUT NOT USING
000623:                                                                                                  #        KEYBOARD WHEN           KEYBOARD WHEN
000624: 26,2024     4735               NRMNVBIT           =        BIT8                                  #        NORMAL DISPLAY          NORMAL DISPLAY
000625:                                                                                                  #        INITIATED               INITIATED
000626:
000627:                                                                                                  #  BIT 7 FLAG 4  (S)
000628: 26,2024                        PRONVFLG           =        068D                                  #        ASTRONAUT USING         ASTRONAUT NOT USING
000629:


000631:                                                                                                  #        KEYBOARD WHEN           KEYBOARD WHEN
000632: 26,2024     4736               PRONVBIT           =        BIT7                                  #        PRIORITY DISPLAY        PRIORITY DISPLAY
000633:                                                                                                  #        INITIATED               INITIATED
000634:
000635:                                                                                                  #  BIT 6 FLAG 4  (S)
000636: 26,2024                        PINBRFLG           =        069D                                  #        ASTRONAUT HAS           ASTRONAUT HAS NOT
000637:                                                                                                  #        INTERFERED WITH         INTERFERED WITH
000638: 26,2024     4737               PINBRBIT           =        BIT6                                  #        EXISTING DISPLAY        EXISTING DISPLAY
000639:
000640:
000641:                                                                                                  #  BIT 5 FLAG 4  (S)
000642: 26,2024                        MRUPTFLG           =        070D                                  #        MARK DISPLAY            MARK DISPLAY NOT
000643:                                                                                                  #        INTERRUPTED BY          INTERRUPTED BY
000644: 26,2024     4740               MRUPTBIT           =        BIT5                                  #        PRIORITY DISPLAY        PRIORITY DISPLAY
000645:
000646:
000647:                                                                                                  #  BIT 4 FLAG 4  (S)
000648: 26,2024                        NRUPTFLG           =        071D                                  #        NORMAL DISPLAY          NORMAL DISPLAY NOT
000649:                                                                                                  #        INTERRUPTED BY          INTERRUPTED BY
000650: 26,2024     4741               NRUPTBIT           =        BIT4                                  #        PRIORITY OR MARK        PRIORITY OR MARK
000651:                                                                                                  #        DISPLAY                 DISPLAY
000652:
000653:                                                                                                  #  BIT 3 FLAG 4  (S)
000654: 26,2024                        MKOVFLAG           =        072D                                  #        MARK DISPLAY OVER       NO MARK DISPLAY OVER
000655: 26,2024     4742               MKOVBIT            =        BIT3                                  #        NORMAL                  NORMAL
000656:
000657:                                                                                                  #  BIT 2 FLAG 4
000658:                                                                                                  #                =               073D
000659:
000660:
000661:                                                                                                  #  BIT 1 FLAG 4  (S)
000662: 26,2024                        XDSPFLAG           =        074D                                  #        MARK DISPLAY NOT        NO SPECIAL MARK
000663: 26,2024     4744               XDSPBIT            =        BIT1                                  #        TO BE INTERRUPTED       INFORMATION
000664:
000665:
000666: 26,2024     0101               FLAGWRD5           =        STATE      +5                         #        (075-089)
000667:                                                                                                  #        (SET)                   (RESET)
000668:
000669:                                                                                                  #  BIT 15 FLAG 5 (S)
000670: 26,2024                        DSKYFLAG           =        075D                                  #        DISPLAYS SENT TO        NO DISPLAYS TO DSKY
000671: 26,2024     4726               DSKYFBIT           =        BIT15                                 #        DSKY
000672:
000673:                                                                                                  #  BIT 14 FLAG 5
000674: 26,2024                        PDSPFLAG           =        076D                                  #        R60 DOES PRIO DSP.      R60 DOES NORMAL DSP.
000675: 26,2024     4727               PDSPFBIT           =        BIT14                                 #        AND IS RESTART          AND IS NOT RESTORTED
000676:                                                                                                  #        PROTECTED.
000677:


000679:                                                                                                  #  BIT 13 FLAG 5 (S,L)
000680: 26,2024                        SNUFFER            =        077D                                  #        U,V JETS DISABLED       U,V JETS ENABLED
000681:                                                                                                  #        DURING DPS              DURING DPS
000682: 26,2024     4730               SNUFFBIT           =        BIT13                                 #        BURNS (V65)             BURNS (V75)
000683:
000684:
000685:                                                                                                  #  BIT 12 FLAG 5 (S)
000686: 26,2024                        NOTHROTL           =        078D                                  #        INHIBIT FULL            PERMIT FULL THROTTLE
000687: 26,2024     4731               NOTHRBIT           =        BIT12                                 #        THROTTLE
000688:
000689:
000690:                                                                                                  #  BIT 11 FLAG 5 (S,L)
000691: 26,2024                        R77FLAG            =        079D                                  #        R77 IS ON,              R77 IS NOT ON.
000692:                                                                                                  #        SUPPRESS ALL RADAR
000693:                                                                                                  #        ALARMS AND TRACKER
000694: 26,2024     4732               R77FLBIT           =        BIT11                                 #        FAILS
000695:
000696:
000697:                                                                                                  #  BIT 10 FLAG 5 (S)
000698: 26,2024                        RNGSCFLG           =        080D                                  #        SCALE CHANGE HAS        NO SCALE CHANGE HAS
000699:                                                                                                  #        OCCURRED DURING         OCCURRED DURING
000700: 26,2024     4733               RNGSCBIT           =        BIT10                                 #        RR READING              RR READING
000701:
000702:
000703:                                                                                                  #  BIT 9 FLAG 5  (S)
000704: 26,2024                        DMENFLG            =        081D                                  #        DIMENSION OF W IS 9     DIMENSION OF W IS 6
000705: 26,2024     4734               DMENFBIT           =        BIT9                                  #        FOR INCORPORATION       FOR INCORPORATION
000706:
000707:
000708:                                                                                                  #  BIT 8 FLAG 5  (S)
000709: 26,2024                        ZOOMFLAG           =        082D                                  #        THROTTLE-UP HAS         THROTTLE-UP HAS NOT
000710: 26,2024     4735               ZOOMBIT            =        BIT8                                  #        OCCURRED IN P63.        YET OCCURRED IN P63.
000711:
000712:
000713:                                                                                                  #  BIT 7 FLAG 5  (S)
000714: 26,2024                        ENGONFLG           =        083D                                  #        ENGINE TURNED ON        ENGINE TURNED OFF
000715: 26,2024     4736               ENGONBIT           =        BIT7
000716:
000717:
000718:                                                                                                  #  BIT 6 FLAG 5  (S)
000719: 26,2024                        3AXISFLG           =        084D                                  #        MANEUVER SPECIFIED      MANEUVER SPECIFIED
000720:                                                                                                  #        BY THREE AXES           BY ONE AXIS; R60
000721: 26,2024     4737               3AXISBIT           =        BIT6                                  #                                CALLS VECPOINT.
000722:
000723:
000724:                                                                                                  #  BIT 5 FLAG 5
000725: 26,2024                        AORBSFLG           =        085D                                  #        PREFER PAXIS JET        PREFER PAXIS JET
000726: 26,2024     4740               AORBSYST           =        BIT5                                  #        PAIRS 7,15 AND 8,16     PAIRS 4,12 AND 3,11
000727:
000728:


000730:                                                                                                  #  BIT 4 FLAG 5  (S)
000731: 26,2024                        NORRMON            =        086D                                  #        BYPASS RR GIMBAL        PERFORM
000732: 26,2024     4741               NORRMBIT           =        BIT4                                  #        MONITOR                 RR GIMBAL MONITOR
000733:
000734:
000735:                                                                                                  #  BIT 3 FLAG 5  (S)
000736: 26,2024                        SOLNSW             =        087D                                  #        LAMBERT DOES NOT        LAMBERT CONVERGES OR
000737:                                                                                                  #        CONVERGE, OR TIME-RAD   TIME-RADIUS NON
000738: 26,2024     4742               SOLNSBIT           =        BIT3                                  #        NEARLY CIRCULAR         CIRCULAR
000739:
000740:
000741:                                                                                                  #  BIT 2 FLAG 5  (S)
000742: 26,2024                        MGLVFLAG           =        088D                                  #        LOCAL VERTICAL          MIDDLE GIMBAL ANGLE
000743:                                                                                                  #        COORDINATES             COMPUTED
000744: 26,2024     4743               MGLVFBIT           =        BIT2                                  #        COMPUTED
000745:
000746:
000747:                                                                                                  #  BIT 1 FLAG 5  (S)
000748: 26,2024                        RENDWFLG           =        089D                                  #        W MATRIX VALID          W MATRIX INVALID
000749:                                                                                                  #        FOR RENDEZVOUS          FOR RENDEZVOUS
000750: 26,2024     4744               RENDWBIT           =        BIT1                                  #        NAVIGATION              NAVIGATION
000751:
000752:
000753: 26,2024     0102               FLAGWRD6           =        STATE      +6                         #        (090-104)
000754:
000755:                                                                                                  #        (SET)                   (RESET)
000756:
000757:                                                                                                  #  BIT 15 FLAG 6 (S)
000758: 26,2024                        S32.1F1            =        090D                                  #        DELTA V AT CSI TIME     DVT1 LESS THEN MAX
000759: 26,2024     4726               S32BIT1            =        BIT15                                 #        ONE EXCEEDS MAX
000760:
000761:
000762:                                                                                                  #  BIT 14 FLAG 6 (S)
000763: 26,2024                        S32.1F2            =        091D                                  #        FIRST PASS OF           REITERATION OF
000764: 26,2024     4727               S32BIT2            =        BIT14                                 #        NEWTON ITERATION        NEWTON
000765:
000766:
000767:                                                                                                  #  BIT 13 FLAG 6 (S)
000768: 26,2024                        S32.1F3A           =        092D                                  #        BIT 13 AND BIT 12 FUNCTION AS AN ORDERED
000769: 26,2024     4730               S32BIT3A           =        BIT13                                 #        PAIR (13,12) INDICATING THE POSSIBLE OC-
000770:                                                                                                  #        CURRANCE OF 2 NEWTON ITERATIONS FOR S32.1
000771:                                                                                                  #        IN THE PROGRAM IN THE FOLLOWING ORDER:
000772:                                                                                                  #  BIT 12 FLAG 6                                                 (0,1) (I.E. BIT 13 RESET,BIT 12 SET)
000773: 26,2024                        S32.1F3B           =        093D                                  #             = FIRST NEWTON ITERATION BEING DONE
000774: 26,2024     4731               S32BIT3B           =        BIT12                                 #        (0,0)= FIRST PASS OF SECOND NEWT.ITERAT.
000775:                                                                                                  #        (1,1)= 50 FT/SEC STAGE OF SEC. NEWT.ITER
000776:                                                                                                  #        (1,0)= REMAINDER OF SECOND NEWTON ITERA.
000777:
000778:
000779:                                                                                                  #  BIT 11 FLAG 6 (S)
000780:


000782:
000783:
000784:                                                                                                  #  BIT 10 FLAG 6 (S)
000785: 26,2024                        GMBDRVSW           =        095D                                  #        TRIMGIMB OVER           TRIMGIMB NOT OVER
000786: 26,2024     4733               GMBDRBIT           =        BIT10
000787:
000788:
000789:                                                                                                  #  BIT 9 FLAG 6
000790:                                                                                                  #                =               096D
000791:                                                                                                  #                =               BIT9
000792:
000793:
000794:                                                                                                  #  BIT 8 FLAG 6  (S)
000795: 26,2024                        MUNFLAG            =        097D                                  #        SERVICER CALLS          SERVICER CALLS
000796: 26,2024     4735               MUNFLBIT           =        BIT8                                  #        MUNRVG                  CALCRVG
000797:
000798:
000799:                                                                                                  #  BIT 7 FLAG 6  (L)
000800: 26,2024                                           =        098D
000801: 26,2024                                           =        BIT7
000802:
000803:
000804:                                                                                                  #  BIT 6 FLAG 6  (L)
000805: 26,2024                        REDFLAG            =        099D                                  #        LANDING SITE            LANDING SITE
000806:                                                                                                  #        REDESIGNATION           REDESIGNATION NOT
000807: 26,2024     4737               REDFLBIT           =        BIT6                                  #        PERMITTED               PERMITTED
000808:
000809:
000810:                                                                                                  #  BIT 5 FLAG 6
000811:                                                                                                  #                =               100D
000812:
000813:
000814:                                                                                                  #  BIT 4 FLAG 6
000815:                                                                                                  #                =               101D
000816:
000817:
000818:                                                                                                  #  BIT 3 FLAG 6  (S)
000819: 26,2024                        NTARGFLG           =        102D                                  #        ASTRONAUT DID           ASTRONAUT DID NOT
000820:                                                                                                  #        OVERWRITE DELTA         OVERWRITE DELTA
000821: 26,2024     4742               NTARGBIT           =        BIT3                                  #        VELOCITY AT TPI         VELOCITY
000822:                                                                                                  #        OR TPM (P34,35)
000823:
000824:                                                                                                  #  BIT 2 FLAG 6
000825: 26,2024                        AUXFLAG            =        103D                                  #        PROVIDING IDLEFLAG      SERVICER WILL SKIP
000826: 26,2024     4743               AUXFLBIT           =        BIT2                                  #        IS NOT SET, SERV-       DVMON ON ITS NEXT
000827:                                                                                                  #        ICER WILL EXERCISE      PASS EVEN IF THE
000828:                                                                                                  #        DVMON ON ITS NEXT       IDLEFLAG IS NOT SET.
000829:                                                                                                  #        PASS.                   IT WILL THEN SET
000830:                                                                                                  #                                AUXFLAG.
000831:
000832:                                                                                                  #  BIT 1 FLAG 6  (L)
000833:


000835: 26,2024                        ATTFLAG            =        104D                                  #        LEM ATTITUDE EXISTS     NO LEM ATTITUDE
000836:                                                                                                  #        IN MOON-FIXED           AVAILABLE IN MOON-
000837: 26,2024     4744               ATTFLBIT           =        BIT1                                  #        COORDINATES             FIXED COORDINATES
000838:
000839:
000840: 26,2024     0103               FLAGWRD7           =        STATE      +7                         #        (105-119)
000841:
000842:                                                                                                  #        (SET)                   (RESET)
000843:
000844:                                                                                                  #  BIT 15 FLAG 7 (S)
000845: 26,2024                        ITSWICH            =        105D                                  #        R34;TPI TIME TO BE      TPI HAS BEEN
000846: 26,2024     4726               ITSWBIT            =        BIT15                                 #        COMPUTED                COMPUTED
000847:
000848:
000849:                                                                                                  #  BIT 14 FLAG 7 (S)
000850: 26,2024                        MANUFLAG           =        106D                                  #        ATTITUDE MANEUVER       NO ATTITUDE MANEUVER
000851:                                                                                                  #        GOING DURING RR         DURING RR SEARCH
000852: 26,2024     4727               MANUFBIT           =        BIT14                                 #        SEARCH
000853:
000854:
000855:                                                                                                  #  BIT 13 FLAG 7 (S)
000856: 26,2024                        IGNFLAG            =        107D                                  #        TIG HAS ARRIVED         TIG HAS NOT ARRIVED
000857: 26,2024     4730               IGNFLBIT           =        BIT13
000858:
000859:
000860:                                                                                                  #  BIT 12 FLAG 7 (S)
000861: 26,2024                        ASTNFLAG           =        108D                                  #        ASTRONAUT HAS           ASTRONAUT HAS NOT
000862: 26,2024     4731               ASTNBIT            =        BIT12                                 #        OKAYED IGNITION         OKAYED IGNITION
000863:
000864:
000865:                                                                                                  #  BIT 11 FLAG 7 (L)
000866: 26,2024                        SWANDISP           =        109D                                  #        LANDING ANALOG          LANDING ANALOG
000867: 26,2024     4732               SWANDBIT           =        BIT11                                 #        DISPLAYS ENABLED        DISPLAYS SUPPRESSED
000868:
000869:
000870:                                                                                                  #  BIT 10 FLAG 7 (S)
000871: 26,2024                        NORMSW             =        110D                                  #        UNIT NORMAL INPUT       LAMBERT COMPUTES ITS
000872: 26,2024     4733               NORMSBIT           =        BIT10                                 #        TO LAMBERT              OWN UNIT NORMAL
000873:
000874:
000875:                                                                                                  #  BIT 9 FLAG 7  (S)
000876: 26,2024                        RVSW               =        111D                                  #        DO NOT COMPUTE          COMPUTE FINAL STATE
000877:                                                                                                  #        FINAL STATE VECTOR      VECTOR IN TIME-THETA
000878: 26,2024     4734               RVSWBIT            =        BIT9                                  #        IN TIME-THETA
000879:
000880:
000881:                                                                                                  #  BIT 8 FLAG 7  (S)
000882: 26,2024                        V67FLAG            =        112D                                  #        ASTRONAUT OVERWRITE     ASTRONAUT DOES NOT
000883:                                                                                                  #        W-MATRIX INITIAL        OVERWRITE W-MATRIX
000884: 26,2024     4735               V67FLBIT           =        BIT8                                  #        VALUES                  INITIAL VALUES
000885:


000887:
000888:
000889:                                                                                                  #  BIT 7 FLAG 7  (S)
000890: 26,2024                        IDLEFLAG           =        113D                                  #        NO DV MONITOR           CONNECT DV MONITOR
000891: 26,2024     4736               IDLEFBIT           =        BIT7
000892:
000893:
000894:                                                                                                  #  BIT 6 FLAG 7  (S)
000895: 26,2024                        V37FLAG            =        114D                                  #        AVERAGEG (SERVICER)     AVERAGEG (SERVICER)
000896: 26,2024     4737               V37FLBIT           =        BIT6                                  #        RUNNING                 OFF
000897:
000898:
000899:                                                                                                  #  BIT 5 FLAG 7  (S)
000900: 26,2024                        AVEGFLAG           =        115D                                  #        AVERAGEG (SERVICER)     AVERAGEG (SERVICER)
000901: 26,2024     4740               AVEGFBIT           =        BIT5                                  #        DESIRED                 NOT DESIRED
000902:
000903:
000904:                                                                                                  #  BIT 4 FLAG 7  (S)
000905: 26,2024                        UPLOCKFL           =        116D                                  #        K-KBAR-K FAIL           NO K-KBAR-K FAIL
000906: 26,2024     4741               UPLOCBIT           =        BIT4
000907:
000908:
000909:                                                                                                  #  BIT 3 FLAG 7  (S)
000910: 26,2024                        VERIFLAG           =        117D                                  #        CHANGED WHEN V33E OCCURS AT END OF P27
000911: 26,2024     4742               VERIFBIT           =        BIT3
000912:
000913:
000914:                                                                                                  #  BIT 2 FLAG 7  (L,C)
000915: 26,2024                        V82EMFLG           =        118D                                  #        MOON VICINITY           EARTH VICINITY
000916: 26,2024     4743               V82EMBIT           =        BIT2
000917:
000918:
000919:                                                                                                  #  BIT 1 FLAG 7  (S)
000920: 26,2024                        TFFSW              =        119D                                  #        CALCULATE TPERIGEE      CALCULATE TFF
000921: 26,2024     4744               TFFSWBIT           =        BIT1
000922:
000923:
000924: 26,2024     0104               FLAGWRD8           =        STATE      +8D                        #        (120-134)
000925:
000926:                                                                                                  #        (SET)                   (RESET)
000927:
000928:                                                                                                  #  BIT 15 FLAG 8 (S)
000929: 26,2024                        RPQFLAG            =        120D                                  #        RPQ NOT COMPUTED        RPQ COMPUTED
000930:                                                                                                  #        (RPQ = VECTOR BE-
000931: 26,2024     4726               RPQFLBIT           =        BIT15                                 #        TWEEN SECONDARY BODY
000932:                                                                                                  #        AND PRIMARY BODY
000933:
000934:                                                                                                  #  BIT 14 FLAG 8
000935:                                                                                                  #                =               121D
000936:


000938:                                                                                                  #                =               BIT14
000939:
000940:                                                                                                  #  BIT 13 FLAG 8 (S)
000941: 26,2024                        NEWIFLG            =        122D                                  #        FIRST PASS THROUGH      SUCCEEDING ITERATION
000942: 26,2024     4730               NEWIBIT            =        BIT13                                 #        INTEGRATION             OF INTEGRATION
000943:
000944:
000945:                                                                                                  #  BIT 12 FLAG 8 *** PROTECTED FROM FRESH START ***
000946: 26,2024                        CMOONFLG           =        123D                                  #        PERMANENT CSM STATE     PERMANENT CSM STATE
000947: 26,2024     4731               CMOONBIT           =        BIT12                                 #        IN LUNAR SPHERE         IN EARTH SPHERE
000948:
000949:
000950:                                                                                                  #  BIT 11 FLAG 8 *** PROTECTED FROM FRESH START ***
000951: 26,2024                        LMOONFLG           =        124D                                  #        PERMANENT LM STATE      PERMANENT LM STATE
000952: 26,2024     4732               LMOONBIT           =        BIT11                                 #        IN LUNAR SPHERE         IN EARTH SPHERE
000953:
000954:
000955:                                                                                                  #  BIT 10 FLAG 8 (L)
000956: 26,2024                        FLUNDISP           =        125D                                  #        CURRENT GUIDANCE        CURRENT GUIDANCE
000957: 26,2024     4733               FLUNDBIT           =        BIT10                                 #        DISPLAYS INHIBITED      DISPLAYS PERMITTED
000958:
000959:
000960:                                                                                                  #  BIT 9 FLAG 8  (L)
000961:                                                                                                  #                =               126D
000962:                                                                                                  #                =               BIT9
000963:
000964:
000965:                                                                                                  #  BIT 8 FLAG 8  *** PROTECTED FROM FRESH START ***
000966: 26,2024                        SURFFLAG           =        127D                                  #        LM ON LUNAR SURFACE     LM NOT ON LUNAR
000967: 26,2024     4735               SURFFBIT           =        BIT8                                  #                                SURFACE
000968:
000969:
000970:                                                                                                  #  BIT 7 FLAG 8  (S)
000971: 26,2024                        INFINFLG           =        128D                                  #        NO CONIC SOLUTION       CONIC SOLUTION
000972:                                                                                                  #        (CLOSURE THROUGH        EXISTS
000973: 26,2024     4736               INFINBIT           =        BIT7                                  #        INFINITY REQUIRED)
000974:
000975:
000976:                                                                                                  #  BIT 6 FLAG 8  (S)
000977: 26,2024                        ORDERSW            =        129D                                  #        ITERATOR USES 2ND       ITERATOR USES 1ST
000978: 26,2024     4737               ORDERBIT           =        BIT6                                  #        ORDER MINIMUM MODE      ORDER STANDARD MODE
000979:
000980:
000981:                                                                                                  #  BIT 5 FLAG 8  (S)
000982: 26,2024                        APSESW             =        130D                                  #        RDESIRED OUTSIDE        RDESIRED INSIDE
000983:                                                                                                  #        PERICENTER-APOCENTER    PERICENTER-APOCENTER
000984: 26,2024     4740               APSESBIT           =        BIT5                                  #        RANGE IN TIME-RADI      RANGE IN TIME-RADIUS
000985:
000986:


000988:                                                                                                  #  BIT 4 FLAG 8  (S)
000989: 26,2024                        COGAFLAG           =        131D                                  #        NO CONIC SOLUTION -     CONIC SOLUTION
000990:                                                                                                  #        TOO CLOSE TO RECTI-     EXISTS (COGA DOES NOT
000991: 26,2024     4741               COGAFBIT           =        BIT4                                  #        LINEAR (COGA OVRFLWS)   OVERFLOW)
000992:
000993:
000994:                                                                                                  #  BIT 3 FLAG 8
000995:                                                                                                  #                =               132D
000996:
000997:                                                                                                  #  BIT 2 FLAG 8  (L)
000998: 26,2024                        INITALGN           =        133D                                  #        INITIAL PASS THRU       SECOND PASS THRU P57
000999: 26,2024     4743               INITABIT           =        BIT2                                  #        P57                     (CHECK RESET-MILLARD)
001000:
001001:
001002:                                                                                                  #  BIT 1 FLAG 8  (S)
001003: 26,2024                        360SW              =        134D                                  #        TRANSFER ANGLE NEAR     TRANSFER ANGLE NOT
001004: 26,2024     4744               360SWBIT           =        BIT1                                  #        360 DEGREES             NEAR 360 DEGREES
001005:
001006:
001007: 26,2024     0105               FLAGWRD9           =        STATE      +9D                        #        (135-149)
001008:
001009:                                                                                                  #        (SET)                   (RESET)
001010:
001011:                                                                                                  #  BIT 15 FLAG 9
001012:                                                                                                  #                =               135D
001013:                                                                                                  #                =               BIT15
001014:
001015:                                                                                                  #  BIT 14 FLAG 9 (L)
001016: 26,2024                        FLVR               =        136D                                  #        VERTICAL RISE           NON-VERTICAL RISE
001017: 26,2024     4727               FLVRBIT            =        BIT14                                 #        (ASCENT GUIDANCE)
001018:
001019:
001020:                                                                                                  #  BIT 13 FLAG 9
001021: 26,2024                        P7071FLG           =        137D                                  #        P70 OR P71 IS USING     P12 IS USING THE
001022: 26,2024     4730               P7071BIT           =        BIT13                                 #        ASCENT GUID. EQS.       ASCENT GUID. EQS.
001023:
001024:
001025:                                                                                                  #  BIT 12 FLAG 9 (L)
001026: 26,2024                        FLPC               =        138D                                  #        NO POSITION CONTROL     POSITION CONTROL
001027: 26,2024     4731               FLPCBIT            =        BIT12                                 #        (ASCENT GUIDANCE)
001028:
001029:
001030:                                                                                                  #  BIT 11 FLAG 9 (L)
001031: 26,2024                        FLPI               =        139D                                  #        PRE-IGNITION PHASE      REGULAR GUIDANCE
001032: 26,2024     4732               FLPIBIT            =        BIT11                                 #        (ASCENT GUIDANCE)
001033:
001034:
001035:                                                                                                  #  BIT 10 FLAG 9 (L)
001036: 26,2024                        FLRCS              =        140D                                  #        RCS INJECTION MODE      MAIN ENGINE MODE
001037:


001039: 26,2024     4733               FLRCSBIT           =        BIT10                                 #        (ASCENT GUIDANCE)
001040:
001041:
001042:                                                                                                  #  BIT 9 FLAG 9  (L)
001043: 26,2024                        LETABORT           =        141D                                  #        ABORT PROGRAMS          ABORT PROGRAMS
001044: 26,2024     4734               LETABBIT           =        BIT9                                  #        ARE ENABLED             ARE NOT ENABLED
001045:
001046:
001047:                                                                                                  #  BIT 8 FLAG 9  (L)
001048: 26,2024                        FLAP               =        142D                                  #        APS CONTINUED ABORT     APS ABORT IS NOT A
001049:                                                                                                  #        AFTER DPS STAGING      CONTINUATION
001050: 26,2024     4735               FLAPBIT            =        BIT8                                  #        (ASCENT GUIDANCE)
001051:
001052:
001053:                                                                                                  #  BIT 7 FLAG 9  (L)
001054: 26,2024                        ABTTGFLG           =        143D                                  #        J2,K2 PARAMETERS        J1,K1 PARAMETERS
001055: 26,2024     4736               ABTTGBIT           =        BIT7                                  #        USED FOR ABORT          USED FOR ABORT
001056:                                                                                                  #        TARGETING               TARGETING
001057:
001058:
001059:                                                                                                  #  BIT 6 FLAG 9  (L)
001060: 26,2024                        ROTFLAG            =        144D                                  #        P70 AND P71 WILL        P70 AND P71 WILL NOT
001061: 26,2024     4737               ROTFLBIT           =        BIT6                                  #        FORCE VEHICLE           FORCE VEHICLE
001062:                                                                                                  #        ROTATION IN THE         ROTATION IN THE
001063:                                                                                                  #        PREFERRED DIRECTION.     PREFERRED DIRECTION
001064:
001065:                                                                                                  #  BIT 5 FLAG 9  (S)
001066: 26,2024                        QUITFLAG           =        145D                                  #        DISCONTINUE INTEGR.     CONTINUE INTEGRATION
001067: 26,2024     4740               QUITBIT            =        BIT5
001068:
001069:                                                                                                  #  BIT 4 FLAG 9
001070: 26,2024                        FLT59FLG           =        146D                                  #        LUNAR SURFACE MARK      NORMAL MARKING TO BE
001071: 26,2024     4741               FLT59BIT           =        BIT4                                  #        PROCEDURE USED          USED DURING INFLITE
001072:                                                                                                  #        DURING INFLITE ALGN     ALIGNMENT
001073:                                                                                                  #  BIT 3 FLAG 9  (L)
001074: 26,2024                        MID1FLAG           =        147D                                  #        INTEGRATE TO TDEC       INTEGRATE TO THE
001075: 26,2024     4742               MID1FBIT           =        BIT3                                  #                                THEN-PRESENT TIME
001076:
001077:
001078:                                                                                                  #  BIT 2 FLAG 9  (L)
001079: 26,2024                        MIDAVFLG           =        148D                                  #        INTEGRATION ENTERED     INTEGRATION WAS
001080:                                                                                                  #        FROM ONE OF MIDTOAV     NOT ENTERED VIA
001081: 26,2024     4743               MIDAVBIT           =        BIT2                                  #        PORTALS                 MIDTOAV
001082:
001083:                                                                                                  #  BIT 1 FLAG 9  (S)
001084: 26,2024                        AVEMIDSW           =        149D                                  #        AVETOMID CALLING        NO AVETOMID W INTEGR
001085:                                                                                                  #        FOR W.MATRIX INTEGR     ALLOW SET UP RM, VN,
001086: 26,2024     4744               AVEMDBIT           =        BIT1                                  #        DONT WRITE OVER RN,     PIPTIME
001087:                                                                                                  #        VN,PIPTIME
001088:


001090:
001091:
001092: 26,2024     0106               RASFLAG            EQUALS   FLGWRD10                              #        WAS ONLY AN INSTALL -ERASTALL FLAG
001093:
001094:
001095: 26,2024     0106               FLGWRD10           =        STATE      +10D                       #        (150-164)
001096:
001097:                                                                                                  #        (SET)                   (RESET)
001098:
001099:                                                                                                  #  BIT 15 FLAG 10
001100:                                                                                                  #                =               150D
001101:
001102:                                                                                                  #  BIT 14 FLAG 10 (L,C)
001103: 26,2024                        INTFLAG            =        151D                                  #        INTEGRATION IN          INTEGRATION NOT IN
001104: 26,2024     4727               INTFLBIT           =        BIT14                                 #        PROGRESS                PROGRESS
001105:
001106:
001107:                                                                                                  #  BIT 13 FLAG 10 (S,L)
001108: 26,2024                        APSFLAG            =        152D                                  #        ASCENT STAGE            DESCENT STAGE
001109: 26,2024     4730               APSFLBIT           =        BIT13                                 #        *** PROTECTED FROM FRESH START ***
001110:
001111:                                                                                                  #  BIT 12 FLAG 10
001112:                                                                                                  #                =               153D
001113:
001114:                                                                                                  #  BIT 11 FLAG 10
001115:                                                                                                  #                =               154D
001116:
001117:                                                                                                  #  BIT 10 FLAG 10
001118:                                                                                                  #                =               155D
001119:
001120:                                                                                                  #  BIT 9 FLAG 10
001121:                                                                                                  #                =               156D
001122:
001123:                                                                                                  #  BIT 8 FLAG 10
001124:                                                                                                  #                =               157D
001125:
001126:                                                                                                  #  BIT 7 FLAG 10 (L,C)
001127: 26,2024                        REINTFLG           =        158D                                  #        INTEGRATION ROUTINE     INTEGRATION ROUTINE
001128: 26,2024     4736               REINTBIT           =        BIT7                                  #        TO BE RESTARTED         NOT TO BE RESTARTED
001129:
001130:                                                                                                  #  BIT 6 FLAG 10
001131:                                                                                                  #                =               159D
001132:


001134:
001135:                                                                                                  #  BIT 5 FLAG 10
001136:                                                                                                  #                =               160D
001137:
001138:                                                                                                  #  BIT 4 FLAG 10
001139:                                                                                                  #                =               161D
001140:
001141:                                                                                                  #  BIT 3 FLAG 10
001142:                                                                                                  #                =               162D
001143:
001144:                                                                                                  #  BIT 2 FLAG 10
001145: 26,2024                        CONTRLFL           =        163D                                  #        DAP CONTROLLING         DAP NOT CONTROLLING
001146: 26,2024     4743               CONTRLBT           =        BIT2                                  #        VEHICLE ATTITUDE        VEHICLE ATTITUDE
001147:
001148:
001149:                                                                                                  #  BIT 1 FLAG 10
001150: 26,2024                        NPGNCSFL           =        164D                                  #        LAST ACTIVE DAP         LAST ACTIVE DAP
001151: 26,2024     4744               NPGNCSBT           =        BIT1                                  #        PASS DONE WITH AN       PASS DONE WITH A
001152:                                                                                                  #        AGS INDICATION          PGNCS INDICATION
001153:
001154:
001155:
001156: 26,2024     0107               FLGWRD11           =        STATE      +11D                       #        (165-179)
001157:
001158:                                                                                                  #        (SET)                   (RESET)
001159:
001160:                                                                                                  #  BIT 15 FLAG 11 (L)(R12)
001161: 26,2024                        LRBYPASS           =        165D                                  #        BYPASS ALL LANDING      DO NOT BYPASS LR
001162: 26,2024     4726               LRBYBIT            =        BIT15                                 #        RADAR UPDATES           UPDATES
001163:
001164:
001165:                                                                                                  #  BIT 14 FLAG 11
001166: 26,2024                        VFAILFLG           =        166D                                  #        LANDING RADAR VEL       LANDING RADAR VEL
001167: 26,2024     4727               VFAILBIT           =        BIT14                                 #        FAILED REAS TEST        PASS REAS TEST
001168:
001169:
001170:                                                                                                  #  BIT 13 FLAG 11
001171: 26,2024                        HFAILFLG           =        167D                                  #        LANDING RADAR ALT       LANDING RADAR VEL
001172: 26,2024     4730               HFAILBIT           =        BIT13                                 #        FAILED REAS TEST        PASS REAS TEST
001173:
001174:
001175:                                                                                                  #  BIT 12 FLAG 11 (L)(R12)
001176: 26,2024                        VXINH              =        168D                                  #        IF Z VELOCITY DATA      UPDATE X AXIS
001177:                                                                                                  #        UNREASONABLE,           VELOCITY
001178: 26,2024     4731               VXINHBIT           =        BIT12                                 #        BYPASS X VELOCITY
001179:                                                                                                  #        UPDATE ON NEXT PASS
001180:


001182:                                                                                                  #  BIT 11 FLAG 11 (L)(R12)
001183: 26,2024                        PSTHIGAT           =        169D                                  #        PAST HIGATE             PREHIGATE
001184: 26,2024     4732               PSTHIBIT           =        BIT11
001185:
001186:
001187:                                                                                                  #  BIT 10 FLAG 11 (L)(R12)
001188: 26,2024                        NOLRREAD           =        170D                                  #        LANDING RADAR           LR NOT REPOSITIONING
001189:                                                                                                  #        REPOSITIONING;
001190: 26,2024     4733               NOLRRBIT           =        BIT10                                 #        BYPASS UPDATE
001191:
001192:
001193:                                                                                                  #  BIT 9 FLAG 11 (L)(R12)
001194: 26,2024                        XORFLG             =        171D                                  #        BELOW LIMIT             ABOVE LIMIT DO
001195:                                                                                                  #        INHIBIT X AXIS          NOT INHIBIT
001196: 26,2024     4734               XORFLBIT           =        BIT9                                  #        OVERRIDE
001197:
001198:
001199:                                                                                                  #  BIT 8 FLAG 11
001200: 26,2024                        LRINH              =        172D                                  #        LANDING RADAR UP-       LR UPDATES INHIBITED
001201: 26,2024     4735               LRINHBIT           =        BIT8                                  #        DATES PERMITTED         BY ASTRONAUT
001202:                                                                                                  #        BY ASTRONAUT
001203:
001204:                                                                                                  #  BIT 7 FLAG 11 (L)(R12)
001205: 26,2024                        VELDATA            =        173D                                  #        LR VELOCITY             LR VELOCITY MEASURE
001206: 26,2024     4736               VELDABIT           =        BIT7                                  #        MEASUREMENT MADE        NOT MADE
001207:
001208:
001209:                                                                                                  #  BIT 6 FLAG 11
001210:                                                                                                  #                =               174D
001211:                                                                                                  #                =               BIT6
001212:
001213:
001214:                                                                                                  #  BIT 5 FLAG 11 (L)(R12)
001215:                                                                                                  #                =               175D
001216:                                                                                                  #                =               BIT5
001217:
001218:
001219:                                                                                                  #  BIT 4 FLAG 11 (L)(R12)
001220: 26,2024                        RNGEDATA           =        176D                                  #        LR ALTITUDE             LR ALTITUDE MEASURE
001221: 26,2024     4741               RNGEDBIT           =        BIT4                                  #        MEASUREMENT MADE        NOT MADE
001222:
001223:
001224:                                                                                                  #  BIT 3 FLAG 11
001225: 26,2024                        R12RDFLG           =        177D                                  #        WAIT UNTIL ALL VEL      ALLOW R12 PROCESS-
001226: 26,2024     4742               R12RDBIT           =        BIT3                                  #        READS DONE BEFORE       ING OF VELDATA;
001227:                                                                                                  #        R12 PROCESSING          LR VEL READ DONE
001228:
001229:
001230:                                                                                                  #  BIT 2 FLAG 11 (L)(R12)
001231:


001233: 26,2024                        VFLSHFLG           =        178D                                  #        LR VELOCITY FAIL        LR VEL FAIL LAMP
001234: 26,2024     4743               VFLSHBIT           =        BIT2                                  #        LAMP SHOULD BE          SHOULDN'T FLASH
001235:                                                                                                  #        FLASHING
001236:
001237:                                                                                                  #  BIT 1 FLAG 11 (L)(R12)
001238: 26,2024                        HFLSHFLG           =        179D                                  #        LR ALTITUDE FAIL        LR ALTITUDE FAIL
001239: 26,2024     4744               HFLSHBIT           =        BIT1                                  #        LAMP SHOULD BE          LAMP SHOULD NOT BE
001240:                                                                                                  #        FLASHING                FLASHING
001241:
001242: 26,2024     0110               RADMODES           EQUALS   FLGWRD12                              #        RADAR FLAG WORD
001243:
001244:
001245: 26,2024     0110               FLGWRD12           =        STATE      +12D                       #        (180-194)       WAS RADMODES
001246:
001247:                                                                                                  #        (SET)                   (RESET)
001248:
001249:                                                                                                  #  BIT 15 FLAG 12
001250: 26,2024                        CDESFLAG           =        180D                                  #        CONTINUOUS DESIG-       LGC CHECKS FOR LOCK-
001251: 26,2024     4726               CDESBIT            =        BIT15                                 #        NATE, LGC COMMANDS      ON WHEN ANTENNA
001252:                                                                                                  #        RR REGARDLESS OF        BEING DESIGNATED
001253:                                                                                                  #        LOCK-ON
001254:
001255:                                                                                                  #  BIT 14 FLAG 12
001256: 26,2024                        REMODFLG           =        181D                                  #        CHANGE IN ANTENNA       NO REMODE REQUESTED
001257: 26,2024     4727               REMODBIT           =        BIT14                                 #        MODE BEEN REQUESTED     OR OCCURRING
001258:                                                                                                  #        I.E., REMODE
001259:
001260:                                                                                                  #  BIT 13 FLAG 12
001261: 26,2024                        RCDU0FLG           =        182D                                  #        RR CDU'S BEING          RR CDU'S NOT BEING
001262: 26,2024     4730               RCDU0BIT           =        BIT13                                 #        ZEROED                  ZEROED
001263:
001264:
001265:                                                                                                  #  BIT 12 FLAG 12
001266: 26,2024                        ANTENFLG           =        183D                                  #        RR ANTENNA MODE IS      RR ANTENNA IN MODE 1
001267: 26,2024     4731               ANTENBIT           =        BIT12                                 #        MODE 2
001268:
001269:
001270:                                                                                                  #  BIT 11 FLAG 12
001271: 26,2024                        REPOSMON           =        184D                                  #        REPOSITION MONITOR.     NO REPOSITION TAKING
001272: 26,2024     4732               REPOSBIT           =        BIT11                                 #        RR REPOSITION IS        PLACE
001273:                                                                                                  #        TAKING PLACE
001274:
001275:                                                                                                  #  BIT 10 FLAG 12
001276: 26,2024                        DESIGFLG           =        185D                                  #        RR DESIGNATE            RR DESIGNATE NOT
001277: 26,2024     4733               DESIGBIT           =        BIT10                                 #        REQUESTED OR IN         REQUESTED OR IN
001278:


001280:                                                                                                  #        PROGRESS                PROGRESS
001281:
001282:                                                                                                  #  BIT 9 FLAG 12
001283: 26,2024                        ALTSCALE           =        186D                                  #        LR ALTITUDE READING     LR ALTITUDE READING
001284: 26,2024     4734               ALTSCBIT           =        BIT9                                  #        IS ON HIGH SCALE        IS ON LOW SCALE
001285:
001286:
001287:                                                                                                  #  BIT 8 FLAG 12
001288: 26,2024                        LRVELFLG           =        187D                                  #        LR VELOCITY DATA        NO LR VELOCITY DATA
001289: 26,2024     4735               LRVELBIT           =        BIT8                                  #        FAIL                    FAIL
001290:
001291:
001292:                                                                                                  #  BIT 7 FLAG 12
001293: 26,2024                        RCDUFAIL           =        188D                                  #        RR CDU FAIL HAS         RR CDU FAIL OCCURRED
001294: 26,2024     4736               RCDUFBIT           =        BIT7                                  #        NOT OCCURRED
001295:
001296:
001297:                                                                                                  #  BIT 6 FLAG 12
001298: 26,2024                        LRPOSFLG           =        189D                                  #        LANDING RADAR           LR POSITION 1
001299: 26,2024     4737               LRPOSBIT           =        BIT6                                  #        POSITION 2
001300:
001301:
001302:                                                                                                  #  BIT 5 FLAG 12
001303: 26,2024                        LRALTFLG           =        190D                                  #        LR ALTITUDE DATA        NO LR ALTITUDE DATA
001304: 26,2024     4740               LRALTBIT           =        BIT5                                  #        FAIL.  COULD NOT BE     FAIL
001305:                                                                                                  #        READ SUCCESSFULLY.
001306:
001307:
001308:                                                                                                  #  BIT 4 FLAG 12
001309: 26,2024                        RRDATAFL           =        191D                                  #        RR DATA FAIL.           NO RR DATA FAIL.
001310: 26,2024     4741               RRDATABT           =        BIT4                                  #        DATA COULD NOT BE
001311:                                                                                                  #        READ SUCCESSFULLY
001312:
001313:
001314:                                                                                                  #  BIT 3 FLAG 12
001315: 26,2024                        RRRSFLAG           =        192D                                  #        RR RANGE READING        RR RANGE READING ON
001316: 26,2024     4742               RRRSBIT            =        BIT3                                  #        ON THE HIGH SCALE       THE LOW SCALE
001317:
001318:
001319:                                                                                                  #  BIT 2 FLAG 12
001320: 26,2024                        AUTOMODE           =        193D                                  #        RR NOT IN AUTO MODE.    RR IN AUTO MODE
001321: 26,2024     4743               AUTOMBIT           =        BIT2                                  #        AUTO MODE DISCRETE
001322:                                                                                                  #        IS NOT PRESENT
001323:
001324:
001325:                                                                                                  #  BIT 1 FLAG 12
001326: 26,2024                        TURNONFL           =        194D                                  #        RR TURN-ON SEQUENCE     NO RR TURN-ON
001327: 26,2024     4744               TURNONBT           =        BIT1                                  #        IN PROGRESS. (ZERO      SEQUENCE IN PROGRESS
001328:                                                                                                  #        CDU'S, FIX ANTENNA
001329:


001331:                                                                                                  #        MODE)
001332:
001333:
001334: 26,2024     0111               DAPBOOLS           EQUALS   FLGWRD13                              #        DIGITAL AUTOPILOT FLAGWORD
001335:
001336: 26,2024     0111               FLGWRD13           =        STATE      +13D                       #        (195 - 209)         WAS DAPBOOLS
001337:
001338:                                                                                                  #        (SET)                   (RESET)
001339:
001340:                                                                                                  #  BIT 15 FLAG 13
001341: 26,2024                        PULSEFLG           =        195D                                  #        MINIMUM IMPULSE         NOT IN MINIMUM
001342: 26,2024     4726               PULSES             =        BIT15                                 #        COMMAND MODE IN         IMPULSE COMMAND MODE
001343:                                                                                                  #        "ATT HOLD" (V76)        (V77)
001344:
001345:
001346:                                                                                                  #  BIT 14 FLAG 13
001347: 26,2024                        USEQRFLG           =        196D                                  #        GIMBAL UNUSABLE.        TRIM GIMBAL MAY BE
001348: 26,2024     4727               USEQRJTS           =        BIT14                                 #        USE JETS ONLY.          USED.
001349:
001350:
001351:                                                                                                  #  BIT 13 FLAG 13
001352: 26,2024                        CSMDKFLG           =        197D                                  #        CSM DOCKED. USE         CSM NOT DOCKED TO LM
001353: 26,2024     4730               CSMDOCKD           =        BIT13                                 #        BACKUP DAP
001354:
001355:
001356:                                                                                                  #  BIT 12 FLAG 13
001357: 26,2024                        OURRCFLG           =        198D                                  #        CURRENT DAP PASS        CURRENT DAP PASS IS
001358: 26,2024     4731               OURRCBIT           =        BIT12                                 #        IS RATE COMMAND         NOT RATE COMMAND
001359:
001360:
001361:                                                                                                  #  BIT 11 FLAG 13
001362: 26,2024                        ACC4-2FL           =        199D                                  #        4 JET X-AXIS TRANS-     2 JET X-AXIS TRANS-
001363: 26,2024     4732               ACC4OR2X           =        BIT11                                 #        LATION REQUESTED        LATION REQUESTED
001364:
001365:
001366:                                                                                                  #  BIT 10 FLAG 13
001367: 26,2024                        AORBTFLG           =        200D                                  #        B SYSTEM FOR X-         A SYSTEM FOR X-
001368: 26,2024     4733               AORBTRAN           =        BIT10                                 #        TRANSLATION             TRANSLATION PREFER'D
001369:
001370:
001371:                                                                                                  #  BIT 9 FLAG 13
001372: 26,2024                        XOVINFLG           =        201D                                  #        X-AXIS OVERRIDE         X-AXIS OVERRIDE OKAY
001373: 26,2024     4734               XOVINHIB           =        BIT9                                  #        LOCKED OUT
001374:
001375:                                                                                                  #  BIT 8 FLAG 13
001376: 26,2024                        DRIFTDFL           =        202D                                  #        ASSUME 0 OFFSET         USE OFFSET ACCELERA-
001377: 26,2024     4735               DRIFTBIT           =        BIT8                                  #        DRIFTING FLIGHT.        TION ESTIMATE
001378:


001381:


001383:                                                                                                  #  BIT 7 FLAG 13
001384: 26,2024                        RHCSCFLG           =        203D                                  #        NORMAL RHC SCALING      FINE RHC SCALING
001385: 26,2024     4736               RHCSCALE           =        BIT7                                  #        REQUESTED               REQUESTED
001386:
001387:
001388:                                                                                                  #  BIT 6 FLAG 13
001389: 26,2024                        ULLAGFLG           =        204D                                  #        ULLAGE REQUEST BY       NO INTERNAL ULLAGE
001390: 26,2024     4737               ULLAGER            =        BIT6                                  #        MISSION PROGRAM         REQUEST
001391:
001392:
001393:                                                                                                  #  BIT 5 FLAG 13
001394: 26,2024                        DBSL2FLG           =        205D                                  #        5 DEG DEADBAND          1 OR .3 DEG DEADBAND
001395: 26,2024     4740               DBSLECT2           =        BIT5                                  #        SELECTED BY CREW        SELECTED BY CREW
001396:                                                                                                  #                                (SEE BIT4 DAPBOOLS)
001397:
001398:
001399:                                                                                                  #  BIT 4 FLAG 13
001400: 26,2024                        DBSELFLG           =        206D                                  #        1 DEG DEADBAND          MIN DB SELECTED BY
001401: 26,2024     4741               DBSELECT           =        BIT4                                  #        SELECTED BY CREW        CREW (0.3 DEG)
001402:
001403:
001404:                                                                                                  #  BIT 3 FLAG 13
001405: 26,2024                        ACCOKFLG           =        207D                                  #        CONTROL AUTHORITY       RESTART OR FRESH ST.
001406: 26,2024     4742               ACCSOKAY           =        BIT3                                  #        VALUES FROM 1/ACCS      SINCE LAST 1/ACCS;
001407:                                                                                                  #        USABLE                  OUTPUTS SUSPECT.
001408:
001409:
001410:                                                                                                  #  BIT 2 FLAG 13
001411: 26,2024                        AUTR2FLG           =        208D                                  #        THESE FLAGS ARE USED TOGETHER TO INDICATE
001412: 26,2024     4743               AUTRATE2           =        BIT2                                  #        ASTRONAUT-CHOSEN KALCMANU MANEUVER RATES
001413:                                                                                                  #        (0,0)=(BIT2,BIT1)= 0.2 DEG/SEC
001414:                                                                                                  #        (0,1)=  0.5 DEG/SEC
001415:                                                                                                  #  BIT 1 FLAG 13
001416: 26,2024                        AUTR1FLG           =        209D                                  #        (1,0)=  2.0 DEG/SEC
001417: 26,2024     4744               AUTRATE1           =        BIT1                                  #        (1,1)= 10.0 DEG/SEC

End of include-file FLAGWORD_ASSIGNMENTS.agc.  Parent file is MAIN.agc


