
Source Code


000002:                                                                                                  ## Copyright:   Public domain.
000003:                                                                                                  ## Filename:    FLAGWORD_ASSIGNMENTS.agc
000004:                                                                                                  ## Purpose:     A section of Luminary revision 210.
000005:                                                                                                  ##              It is part of the source code for the Lunar Module's (LM)
000006:                                                                                                  ##              Apollo Guidance Computer (AGC) for Apollo 15-17.
000007:                                                                                                  ##              This file is intended to be a faithful transcription, except
000008:                                                                                                  ##              that the code format has been changed to conform to the
000009:                                                                                                  ##              requirements of the yaYUL assembler rather than the
000010:                                                                                                  ##              original YUL assembler.
000011:                                                                                                  ## Reference:   pp. 63-90
000012:                                                                                                  ## Assembler:   yaYUL
000013:                                                                                                  ## Contact:     Ron Burkey <info@sandroid.org>.
000014:                                                                                                  ## Website:     www.ibiblio.org/apollo/index.html
000015:                                                                                                  ## Mod history: 2016-11-17 JL   Created from Luminary131 version.
000016:                                                                                                  ##              2016-11-18 HG   Transcribed
000017:                                                                                                  ##              2016-12-07 HG   Fix P00 -> POO
000018:                                                                                                  ##              2016-12-15 RSB  Proofed comment text with octopus/ProoferComments,
000019:                                                                                                  ##                              and corrected the errors found.
000020:                                                                                                  ##              2017-03-02 RSB  Fixed comment-text errors noticed while proofing
000021:                                                                                                  ##                              Luminary 116.
000022:


000024:                                                                                                  #          FLAGWORDS 0-11 ARE DOWNLINKED AND CAN BE SET AND CLEARED BY UP-FLAG AND DOWN-FLAG INSTRUCTIONS IN THE
000025:                                                                                                  #                         INTERPRETER. THESE WERE PREVIOUSLY LISTED UNDER "INTERPRETIVE SWITCH BIT ASSIGNMENTS" IN
000026:                                                                                                  #                         THE ERASABLE LOG SECTION. FLAGWORDS 12 & 13 WEREPREVIOUSLY RADMODES AND DAPBOOLS AND
000027:                                                                                                  #                         ARE STILL DOWNLINKED UNDER THOSE NAMES.
000028:
000029:
000030:
000031:                                                                                                  #          ALPHABETICAL LIST OF FLAGWORDS
000032:
000033:
000034:                                                                                                  #  9             25              41                      61        COLUMN NO.
000035:                                                                                                  #  FLAGWORD      DEC. NUMBER     BIT AND FLAG            BIT NAME
000036:
000037:                                                                                                  #  ABTTGFLG      143             BIT 7 FLAG 9            ABTTGBIT
000038:                                                                                                  #  ACCOKFLG      207             BIT 3  FLAG 13          ACCSOKAY
000039:                                                                                                  #  ACC4-2FL      199             BIT 11 FLAG 13          ACC4OR2X
000040:                                                                                                  #  ACMODFLG      032             BIT 13 FLAG 2           ACMODBIT
000041:                                                                                                  #  ALTSCALE      186             BIT 9  FLAG 12          ALTSCBIT
000042:                                                                                                  #  ANTENFLG      183             BIT 12 FLAG 12          ANTENBIT
000043:                                                                                                  #  AORBSFLG      085             BIT 5 FLAG 5            AORBSYST
000044:                                                                                                  #  AORBTFLG      200             BIT 10 FLAG 13          AORBTRAN
000045:                                                                                                  #  APSESW        130             BIT 5  FLAG 8           APSESBIT
000046:                                                                                                  #  APSFLAG       152             BIT 13 FLAG 10          APSFLBIT
000047:                                                                                                  #  ASTNFLAG      108             BIT 12 FLAG 7           ASTNBIT
000048:                                                                                                  #  ATTFLAG       104             BIT 1  FLAG 6           ATTFLBIT
000049:                                                                                                  #  AUTOMODE      193             BIT 2  FLAG 12          AUTOMBIT
000050:                                                                                                  #  AUTR1FLG      209             BIT 1  FLAG 13          AUTRATE1
000051:                                                                                                  #  AUTR2FLG      208             BIT 2  FLAG 13          AUTRATE2
000052:                                                                                                  #  AUXFLAG       103             BIT 2  FLAG 6           AUXFLBIT
000053:                                                                                                  #  AVEGFLAG      115             BIT 5  FLAG 7           AVEGFBIT
000054:                                                                                                  #  AVEMIDSW      149             BIT 1  FLAG 9           AVEMDBIT
000055:                                                                                                  #  AVFLAG        040             BIT 5  FLAG 2           AVFLBIT
000056:                                                                                                  #  CALCMAN2      043             BIT 2  FLAG 2           CALC2BIT
000057:                                                                                                  #  CALCMAN3      042             BIT 3  FLAG 2           CALC3BIT
000058:                                                                                                  #  CDESFLAG      180             BIT 15 FLAG 12          CDESBIT
000059:                                                                                                  #  CMOONFLG      123             BIT 12 FLAG 8           CMOONBIT
000060:                                                                                                  #  COGAFLAG      131             BIT 4  FLAG 8           COGAFBIT
000061:                                                                                                  #  CONTRLFL      163             BIT2 FLAG 10            CONTRLBT
000062:                                                                                                  #  CSMDKFLG      197             BIT 13 FLAG 13          CSMDOCKD
000063:                                                                                                  #  CULTFLAG      053             BIT 7  FLAG 3           CULTBIT
000064:                                                                                                  #  DAPBOOLS                      FLGWRD13
000065:                                                                                                  #  DBSELFLG      206             BIT 4  FLAG 13          DBSELECT
000066:                                                                                                  #  DBSL2FLG      205             BIT 5 FLAG 13           DBSLECT2
000067:                                                                                                  #  DESIGFLG      185             BIT 10 FLAG 12          DESIGBIT
000068:                                                                                                  #  DIDFLAG       016             BIT 14 FLAG 1           DIDFLBIT
000069:                                                                                                  #  DIMOFLAG      059             BIT 1  FLAG 3           DIMOBIT
000070:


000072:                                                                                                  #  DMENFLG       081             BIT 9  FLAG 5           DMENFBIT
000073:                                                                                                  #  DRIFTDFL      202             BIT 8  FLAG 13          DRIFTBIT
000074:                                                                                                  #  DRIFTFLG      030             BIT 15 FLAG 2           DRFTBIT
000075:                                                                                                  #  DSKYFLAG      075             BIT 15 FLAG 5           DSKYFBIT
000076:                                                                                                  #  D6OR9FLG      058             BIT 2  FLAG 3           D6OR9BIT
000077:                                                                                                  #  ENGONFLG      083             BIT 7  FLAG 5           ENGONBIT
000078:                                                                                                  #  ERADFLAG      017             BIT 13 FLAG 1           ERADFBIT
000079:                                                                                                  #  ETPIFLAG      038             BIT 7  FLAG 2           ETPIBIT
000080:                                                                                                  #  FINALFLG      039             BIT 6  FLAG 2           FINALBIT
000081:                                                                                                  #  FLAGWRD0      (000-014)       (STATE +0)
000082:                                                                                                  #  FLAGWRD1      (015-029)       (STATE +1)
000083:                                                                                                  #  FLAGWRD2      (030-044)       (STATE +2)
000084:                                                                                                  #  FLAGWRD3      (045-059)       (STATE +3)
000085:                                                                                                  #  FLAGWRD4      (060-074)       (STATE +4)
000086:                                                                                                  #  FLAGWRD5      (075-089)       (STATE +5)
000087:                                                                                                  #  FLAGWRD6      (090-104)       (STATE +6)
000088:                                                                                                  #  FLAGWRD7      (105-119)       (STATE +7)
000089:                                                                                                  #  FLAGWRD8      (120-134)       (STATE +8D)
000090:                                                                                                  #  FLAGWRD9      (135-149)       (STATE +9D)
000091:                                                                                                  #  FLAP          142             BIT 8  FLAG 9           FLAPBIT
000092:                                                                                                  #  FLGWRD10      (150-164)       (STATE +10D)
000093:                                                                                                  #  FLGWRD11      (165-179)       (STATE +11D)
000094:                                                                                                  #  FLGWRD12      (180-194)       (STATE +12D)
000095:                                                                                                  #  FLGWRD13      (195-209)       (STATE +13D)
000096:                                                                                                  #  FLPC          138             BIT 12 FLAG 9           FLPCBIT
000097:                                                                                                  #  FLPI          139             BIT 11 FLAG 9           FLPIBIT
000098:                                                                                                  #  FLRCS         149             BIT 10 FLAG 9           FLRCSBIT
000099:                                                                                                  #  FLT59FLG      146             BIT 4 FLAG 9            FLT59BIT
000100:                                                                                                  #  FLUNDISP      125             BIT 10 FLAG 8           FLUNDBIT
000101:                                                                                                  #  FLVR          136             BIT 14 FLAG 9           FLVRBIT
000102:                                                                                                  #  FREEFLAG      012             BIT 3  FLAG 0           FREEFBIT
000103:                                                                                                  #  FRSTIME       026             BIT 4 FLAG1             FRSTMBIT
000104:                                                                                                  #  FSPASFLG      005             BIT 10 FLAG 0           FSPASBIT
000105:                                                                                                  #  GLOKFAIL      046             BIT 14 FLAG 3           GLOKFBIT
000106:                                                                                                  #  GMBDRVSW      095             BIT 10 FLAG 6           GMBDRBIT
000107:                                                                                                  #  GUESSW        028             BIT 2  FLAG 1           GUESSBIT
000108:                                                                                                  #  HFAILFLG      167             BIT 13 FLAG 11          HFAILBIT
000109:                                                                                                  #  HFLSHFLG      179             BIT 1  FLAG 11          HFLSHBIT
000110:                                                                                                  #  IDLEFLAG      113             BIT 7  FLAG 7           IDLEFBIT
000111:                                                                                                  #  IGNFLAG       107             BIT 13 FLAG 7           IGNFLBIT
000112:                                                                                                  #  IMPULSW       036             BIT 9  FLAG 2           IMPULBIT
000113:                                                                                                  #  IMUSE         007             BIT 8  FLAG 0           IMUSEBIT
000114:                                                                                                  #  INFINFLG      128             BIT 7  FLAG 8           INFINBIT
000115:                                                                                                  #  INITALGN      133             BIT 2  FLAG 8           INITABIT
000116:                                                                                                  #  INTFLAG       151             BIT 14 FLAG 10          INTFLBIT
000117:                                                                                                  #  INTYPFLG      056             BIT 4  FLAG 3           INTYPBIT
000118:                                                                                                  #  ITSWICH       105             BIT 15 FLAG 7           ITSWBIT
000119:                                                                                                  #  JSWITCH       001             BIT 14 FLAG 0           JSWCHBIT
000120:                                                                                                  #  LETABORT      141             BIT 9  FLAG 9           LETABBIT
000121:                                                                                                  #  LMOONFLG      124             BIT 11 FLAG 8           LMOONBIT
000122:


000124:                                                                                                  #  LOKONSW       010             BIT 5  FLAG 0           LOKONBIT
000125:                                                                                                  #  LOSCMFLG      033             BIT 12 FLAG 2           LOSCMBIT
000126:                                                                                                  #  LRALTFLG      190             BIT 5  FLAG 12          LRALTBIT
000127:                                                                                                  #  LRBYPASS      165             BIT 15 FLAG 11          LRBYBIT
000128:                                                                                                  #  LRINH         172             BIT 8  FLAG 11          LRINHBIT
000129:                                                                                                  #  LRPOSFLG      189             BIT 6  FLAG 12          LRPOSBIT
000130:                                                                                                  #  LRVELFLG      187             BIT 8  FLAG 12          LRVELBIT
000131:                                                                                                  #  LUNAFLAG      048             BIT 12 FLAG 3           LUNABIT
000132:                                                                                                  #  MANUFLAG      106             BIT 14 FLAG 7           MANUFBIT
000133:                                                                                                  #  MGLVFLAG      088             BIT 2  FLAG 5           MGLVFBIT
000134:                                                                                                  #  MIDAVFLG      148             BIT 2  FLAG 9           MIDAVBIT
000135:                                                                                                  #  MIDFLAG       002             BIT 13 FLAG 0           MIDFLBIT
000136:                                                                                                  #  MID1FLAG      147             BIT 3  FLAG 9           MID1BIT
000137:                                                                                                  #  MKOVFLAG      072             BIT 3  FLAG 4           MKOVBIT
000138:                                                                                                  #  MOONFLAG      003             BIT 12 FLAG 0           MOONBIT
000139:                                                                                                  #  MRKIDFLG      060             BIT 15 FLAG 4           MRKIDBIT
000140:                                                                                                  #  MRKNVFLG      066             BIT 9  FLAG 4           MRKNVBIT
000141:                                                                                                  #  MRUPTFLG      070             BIT 5 FLAG 4            MRUPTBIT
000142:                                                                                                  #  MUNFLAG       097             BIT 8 FLAG 6            MUNFLBIT
000143:                                                                                                  #  MWAITFLG      064             BIT 11 FLAG 4           MWAITBIT
000144:                                                                                                  #  NEEDLFLG      011             BIT 4  FLAG 0           NEEDLBIT
000145:                                                                                                  #  NEED2FLG      000             BIT 15 FLAG 0           NEED2BIT
000146:                                                                                                  #  NEWIFLG       122             BIT 13 FLAG 8           NEWIBIT
000147:                                                                                                  #  NJETSFLG      015             BIT 15 FLAG 1           NJETSBIT
000148:                                                                                                  #  NODOFLAG      044             BIT 1  FLAG 2           NODOBIT
000149:                                                                                                  #  NODOPC7       049             BIT 11 FLAG 3           NOPO7BIT
000150:                                                                                                  #  NOLRREAD      170             BIT 10 FLAG 11          NOLRRBIT
000151:                                                                                                  #  NORMSW        110             BIT 10 FLAG 7           NORMSBIT
000152:                                                                                                  #  NORRMON       086             BIT 4  FLAG 5           NORRMBIT
000153:                                                                                                  #  NOTERFLG      019             BIT 11 FLAG 1           NOTERBIT
000154:                                                                                                  #  NOTHROTL      078             BIT 12 FLAG 5           NOTHRBIT
000155:                                                                                                  #  NOUPFLAG      024             BIT 6  FLAG 1           NOUPFBIT
000156:                                                                                                  #  NPGNCSFL      164             BIT  1 FLAG 10          NPGNCSBY
000157:                                                                                                  #  NRMNVFLG      067             BIT 8  FLAG 4           NRMNVBIT
000158:                                                                                                  #  NRMIDFLG      062             BIT 13 FLAG 4           NRMIDBIT
000159:                                                                                                  #  NRUPTFLG      071             BIT 4  FLAG 4           NRUPTBIT
000160:                                                                                                  #  NTARGFLG      102             BIT 3  FLAG 6           NTARGBIT
000161:                                                                                                  #  NWAITFLG      065             BIT 10 FLAG 4           NWAITBIT
000162:                                                                                                  #  ORBWFLAG      054             BIT 6  FLAG 3           ORBWFBIT
000163:                                                                                                  #  ORDERSW       129             BIT 6  FLAG 8           ORDERBIT
000164:                                                                                                  #  OURRCFLG      198             BIT 12 FLAG 13          OURRCBIT
000165:                                                                                                  #  PDSPFLAG      076             BIT 14 FLAG 5           PDSPFBIT
000166:                                                                                                  #  PFRATFLG      041             BIT 4  FLAG 2           PFRATBIT
000167:                                                                                                  #  PINBRFLG      069             BIT 6  FLAG 4           PINBRBIT
000168:                                                                                                  #  POOHFLAG      045             BIT 15 FLAG 3           POOHBIT
000169:                                                                                                  #  PRECIFLG      052             BIT 8  FLAG 3           PRECIBIT
000170:                                                                                                  #  PRIODFLG      061             BIT 14 FLAG 4           PRIODBIT
000171:                                                                                                  #  PRONVFLG      068             BIT 7  FLAG 4           PRONVBIT
000172:                                                                                                  #  PSTHIGAT      169             BIT 11 FLAG 11          PSTHIBIT
000173:                                                                                                  #  PULSEFLG      195             BIT 15 FLAG 13          PULSES
000174:


000176:                                                                                                  #  P21FLAG       004             BIT 11 FLAG 0           P21FLBIT
000177:                                                                                                  #  P25FLAG       006             BIT 9  FLAG 0           P25FLBIT
000178:                                                                                                  #  P66PROFL      014D            BIT 1 FLAG 0            P66PROBT
000179:                                                                                                  #  P7071FLG      137             BIT 13 FLAG 9           P7071BIT
000180:                                                                                                  #  QUITFLAG      145             BIT 5  FLAG 9           QUITBIT
000181:                                                                                                  #  RADMODES                      FLGWRD12
000182:                                                                                                  #  RASFLAG                       FLGWRD10
000183:                                                                                                  #  RCDUFAIL      188             BIT 7  FLAG 12          RCDUFBIT
000184:                                                                                                  #  RCDU0FLG      182             BIT 13 FLAG 12          RCDU0BIT
000185:                                                                                                  #  REDFLAG       099             BIT 6  FLAG 6           REDFLBIT
000186:                                                                                                  #  REFSMFLG      047             BIT 13 FLAG 3           REFSMBIT
000187:                                                                                                  #  REINTFLG      158             BIT 7  FLAG 10          REINTBIT
000188:                                                                                                  #  REMODFLG      181             BIT 14 FLAG 12          REMODBIT
000189:                                                                                                  #  RENDWFLG      089             BIT 1  FLAG 5           RENDWBIT
000190:                                                                                                  #  REPOSMON      184             BIT 11 FLAG 12          REPOSBIT
000191:                                                                                                  #  RHCSCFLG      203             BIT 7  FLAG 13          RHCSCALE
000192:                                                                                                  #  RNDVZFLG      008             BIT 7  FLAG 0           RNDVZBIT
000193:                                                                                                  #  RNGEDATA      176             BIT 4  FLAG 11          RNGEDBIT
000194:                                                                                                  #  RNGSCFLG      080             BIT 10 FLAG 5           RNGSCBIT
000195:                                                                                                  #  RODFLAG       018             BIT 12 FLAG 1           RODFLBIT
000196:                                                                                                  #  ROTFLAG       144             BIT 6  FLAG 9           ROTFLBIT
000197:                                                                                                  #  RPQFLAG       120             BIT 15 FLAG 8           RPQFLBIT
000198:                                                                                                  #  RRDATAFL      191             BIT 4  FLAG 12          RRDATABT
000199:                                                                                                  #  RRNBSW        009             BIT 6 FLAG 0            RRNBBIT
000200:                                                                                                  #  RRRSFLAG      192             BIT 3  FLAG 12          RRRSBIT
000201:                                                                                                  #  RVSW          111             BIT 9  FLAG 7           RVSWBIT
000202:                                                                                                  #  R04FLAG       051             BIT 9  FLAG 3           R04FLBIT
000203:                                                                                                  #  R10FLAG       013             BIT 2  FLAG 0           R10FLBIT
000204:                                                                                                  #  R12RDFLG      177D            BIT 3  FLAG 11          R12RDBIT
000205:                                                                                                  #  R61FLAG       020             BIT 10 FLAG 1           R61FLBIT
000206:                                                                                                  #  R77FLAG       079             BIT 11 FLAG 5           R77FLBIT
000207:                                                                                                  #  SLOPESW       027             BIT 3  FLAG 1           SLOPEBIT
000208:                                                                                                  #  SNUFFER       077             BIT 13 FLAG 5           SNUFFBIT
000209:                                                                                                  #  SOLNSW        087             BIT 3  FLAG 5           SOLNSBIT
000210:                                                                                                  #  SRCHOPTN      031             BIT 14 FLAG 2           SRCHOBIT
000211:                                                                                                  #  STATEFLG      055             BIT 5  FLAG 3           STATEBIT
000212:                                                                                                  #  STEERSW       034             BIT 11 FLAG 2           STEERBIT
000213:                                                                                                  #  SURFFLAG      127             BIT 8  FLAG 8           SURFFBIT
000214:                                                                                                  #  SWANDISP      109             BIT 11 FLAG 7           SWANDBIT
000215:                                                                                                  #  S32.1F1       090             BIT 15 FLAG 6           S32BIT1
000216:                                                                                                  #  S32.1F2       092             BIT 14 FLAG 6           S32BIT2
000217:                                                                                                  #  S32.1F3A      092             BIT 13 FLAG 6           S32BIT3A
000218:                                                                                                  #  S32.1F3B      093             BIT 12 FLAG 6           S32BIT3B
000219:                                                                                                  #  TFFSW         119             BIT 1  FLAG 7           TFFSWBIT
000220:                                                                                                  #  TRACKFLG      025             BIT 5  FLAG 1           TRACKBIT
000221:                                                                                                  #  TURNONFL      194             BIT 1  FLAG 12          TURNONBT
000222:                                                                                                  #  ULLAGFLG      204             BIT 6  FLAG 13          ULLAGER
000223:                                                                                                  #  UPDATFLG      023             BIT 7  FLAG 1           UPDATBIT
000224:                                                                                                  #  UPLOCKFL      116             BIT 4  FLAG 7           UPLOCBIT
000225:                                                                                                  #  USEQRFLG      196             BIT 14 FLAG 13          USEQRJTS
000226:


000228:                                                                                                  #  VEHUPFLG      022             BIT 8  FLAG 1           VEHUPBIT
000229:                                                                                                  #  VELDATA       173             BIT 7  FLAG 11          VELDABIT
000230:                                                                                                  #  VERIFLAG      117             BIT 3  FLAG 7           VERIFBIT
000231:                                                                                                  #  VFAILFLG      166             BIT 14 FLAG 11          VFAILBIT
000232:                                                                                                  #  VFLAG         050             BIT 10 FLAG 3           VFLAGBIT
000233:                                                                                                  #  VFLSHFLG      178             BIT 2  FLAG 11          VFLSHBIT
000234:                                                                                                  #  VINTFLAG      057             BIT 3  FLAG 3           VINTFBIT
000235:                                                                                                  #  VXINH         168             BIT 12 FLAG 11          VXINHBIT
000236:                                                                                                  #  V37FLAG       114             BIT 6  FLAG 7           V37FLBIT
000237:                                                                                                  #  V67FLAG       112             BIT 8  FLAG 7           V67FLBIT
000238:                                                                                                  #  V82EMFLG      118             BIT 2  FLAG 7           V82EMBIT
000239:                                                                                                  #  XDELVFLG      037             BIT 8  FLAG 2           XDELVBIT
000240:                                                                                                  #  XDSPFLAG      074             BIT 1  FLAG 4           XDSPBIT
000241:                                                                                                  #  XORFLG        171             BIT 9  FLAG 11          XORFLBIT
000242:                                                                                                  #  XOVINFLG      201             BIT 9  FLAG 13          XOVINHIB
000243:                                                                                                  #  ZOOMFLAG      082             BIT 8  FLAG 5           ZOOMBIT
000244:                                                                                                  #  3AXISFLG      084             BIT 6 FLAG 5            3AXISBIT
000245:                                                                                                  #  360SW         134             BIT 1  FLAG 8           360SWBIT
000246:
000247:
000248:
000249:                                                                                                  #           ASSIGNMENT AND DESCRIPTION OF FLAGWORDS
000250:
000251: 26,2024     0074               FLAGWRD0           =        STATE      +0                         #        (000-014)
000252:
000253:                                                                                                  #        (SET)                   (RESET)
000254:                                                                                                  #  BIT 15 FLAG 0 (S)
000255: 26,2024                        NEED2FLG           =        000D                                  #        DISPLAY DAP RATES       CHECK BIT 4 OF THIS
000256: 26,2024     4726               NEED2BIT           =        BIT15                                 #        ON FDAI NEEDLES.        WORD FOR DISPLAY
000257:                                                                                                  #                                MODES (1 OR 2).
000258:
000259:                                                                                                  #  BIT 14 FLAG 0  (S)
000260: 26,2024                        JSWITCH            =        001D                                  #        INTEGRATION OF W        INTEGRATION OF STATE
000261: 26,2024     4727               JSWCHBIT           =        BIT14                                 #        MATRIX                  VECTOR
000262:
000263:
000264:                                                                                                  #  BIT 13 FLAG 0 (S)
000265: 26,2024                        MIDFLAG            =        002D                                  #        INTEGRATION WITH        INTEGRATION WITHOUT
000266:                                                                                                  #        SECONDARY BODY AND      SOLAR PERTURBATIONS
000267: 26,2024     4730               MIDFLBIT           =        BIT13                                 #        SOLAR PERTURBATIONS
000268:
000269:                                                                                                  #  BIT 12 FLAG 0 (L)
000270: 26,2024                        MOONFLAG           =        003D                                  #        MOON IS SPHERE OF       EARTH IS SPHERE OF
000271: 26,2024     4731               MOONBIT            =        BIT12                                 #        INFLUENCE               INFLUENCE
000272:
000273:
000274:                                                                                                  #  BIT 11 FLAG 0
000275:


000277: 26,2024                        P21FLAG            =        004D                                  #        USE BASE VECTORS        1ST PASS -- CALC-
000278: 26,2024     4732               P21FLBIT           =        BIT11                                 #        ALREADY CALCULATED      ULATE BASE VECTORS
000279:
000280:
000281:                                                                                                  #  BIT 10 FLAG 0
000282: 26,2024                        FSPASFLG           =        005D                                  #        FIRST PASS THROUGH      NOT FIRST PASS THRU
000283: 26,2024     4733               FSPASBIT           =        BIT10                                 #        REPOSITION ROUTINE      REPOSITION ROUTINE
000284:
000285:
000286:                                                                                                  #  BIT 9 FLAG 0  (S)
000287: 26,2024                        P25FLAG            =        006D                                  #        P25 OPERATING           P25 NOT OPERATING
000288: 26,2024     4734               P25FLBIT           =        BIT9
000289:
000290:
000291:                                                                                                  #  BIT 8 FLAG 0  (S)
000292: 26,2024                        IMUSE              =        007D                                  #        IMU IN USE              IMU NOT IN USE
000293: 26,2024     4735               IMUSEBIT           =        BIT8
000294:
000295:
000296:                                                                                                  #  BIT 7 FLAG 0  (S)
000297: 26,2024                        RNDVZFLG           =        008D                                  #        P20 RUNNING (RADAR      P20 NOT RUNNING
000298: 26,2024     4736               RNDVZBIT           =        BIT7                                  #        IN USE)
000299:
000300:
000301:                                                                                                  #  BIT 6 FLAG 0  (S)
000302: 26,2024                        RRNBSW             =        009D                                  #        RADAR TARGET IN         RADAR TARGET IN
000303: 26,2024     4737               RRNBBIT            =        BIT6                                  #        NB COORDINATES          SM COORDINATES
000304:
000305:
000306:                                                                                                  #  BIT 5 FLAG 0  (S)
000307: 26,2024                        LOKONSW            =        010D                                  #        RADAR LOCK-ON           RADAR LOCK-ON NOT
000308: 26,2024     4740               LOKONBIT           =        BIT5                                  #        DESIRED                 DESIRED
000309:
000310:
000311:                                                                                                  #  BIT 4 FLAG 0  (S)
000312: 26,2024                        NEEDLFLG           =        011D                                  #        TOTAL ATTITUDE          A/P FOLLOWING
000313: 26,2024     4741               NEEDLBIT           =        BIT4                                  #        ERROR DISPLAYED         ERROR DISPLAYED
000314:
000315:
000316:                                                                                                  #  BIT 3 FLAG 0
000317: 26,2024                        FREEFLAG           =        012D                                  #  (USED BY P51-53 TEMP IN MANY DIFFERENT
000318:                                                                                                  #  ROUTINES & BY LUNAR + SOLAR EPHEMERIDES)
000319: 26,2024     4742               FREEFBIT           =        BIT3
000320:
000321:
000322:                                                                                                  #  BIT 2 FLAG 0
000323: 26,2024                        R10FLAG            =        013D                                  #        R10 OUTPUTS DATA TO     BESIDES OUTPUT WHEN
000324: 26,2024     4743               R10FLBIT           =        BIT2                                  #        ALTITUDE & ALTITUDE     SET, R10 ALSO OUTPUT
000325:                                                                                                  #        RATE METERS ONLY        TO FORWARD & LATERAL
000326:                                                                                                  #                                VELOCITY CROSSPOINTR
000327:


000329:
000330:
000331: 26,2024                        P66PROFL           =        014D                                  #        CONTINUE P66            STOP P66
000332: 26,2024     4744               P66PROBT           =        BIT1                                  #        HORIZONTAL              HORIZONTAL VEL
000333:                                                                                                  #        VELOCITY NULLING        NULLING
000334:
000335:
000336:
000337: 26,2024     0075               FLAGWRD1           =        STATE      +1                         #        (015-029)
000338:
000339:                                                                                                  #        (SET)                   (RESET)
000340:
000341:                                                                                                  #  BIT 15 FLAG 1 (S)
000342: 26,2024                        NJETSFLG           =        015D                                  #        TWO JET RCS BURN        FOUR JET RCS BURN
000343: 26,2024     4726               NJETSBIT           =        BIT15
000344:
000345:
000346:                                                                                                  #  BIT 14 FLAG 1 (L)
000347: 26,2024                        DIDFLAG            =        016D                                  #        INERTIAL DATA IS        PERFORM DATA DISPLAY
000348: 26,2024     4727               DIDFLBIT           =        BIT14                                 #        AVAILABLE               INITIALIZATION FUNCS
000349:
000350:
000351:                                                                                                  #  BIT 13 FLAG 1 (S)
000352: 26,2024                        ERADFLAG           =        017D                                  #        COMPUTE REARTH          USE CONSTANT REARTH
000353: 26,2024     4730               ERADFBIT           =        BIT13                                 #        FISCHER ELLIPSOID       PAD RADIUS
000354:
000355:
000356:                                                                                                  #  BIT 12 FLAG 1
000357: 26,2024                        RODFLAG            =        018D                                  #        IF IN P66, NORMAL       IF IN P66, RE-INIT-
000358: 26,2024     4731               RODFLBIT           =        BIT12                                 #        OPERATION CONTINUES.     IALIZATION IS PER-
000359:                                                                                                  #        RESTART CLEARS FLAG      FORMED AND FLAG IS
000360:
000361:                                                                                                  #  BIT 11 FLAG 1
000362: 26,2024                        NOTERFLG           =        019D                                  #        TERRAIN MODEL           TERRAIN MODEL
000363: 26,2024     4732               NOTERBIT           =        BIT11                                 #        INHIBITED               PERMITTED
000364:
000365:
000366:                                                                                                  #  BIT 10 FLAG 1 (L)
000367: 26,2024                        R61FLAG            =        020D                                  #        RUN R61 LEM             RUN R65 LEM
000368: 26,2024     4733               R61FLBIT           =        BIT10
000369:
000370:                                                                                                  #  BIT 9 FLAG 1
000371:                                                                                                  #                =               021D
000372:                                                                                                  #                =               BIT9
000373:
000374:                                                                                                  #  BIT 8 FLAG 1  (S)
000375:


000377: 26,2024                        VEHUPFLG           =        022D                                  #        CSM STATE VECTOR        LEM STATE VECTOR
000378: 26,2024     4735               VEHUPBIT           =        BIT8                                  #        BEING UPDATED           BEING UPDATED
000379:
000380:
000381:                                                                                                  #  BIT 7 FLAG 1  (S)
000382: 26,2024                        UPDATFLG           =        023D                                  #        UPDATING BY MARKS       UPDATING BY MARKS
000383: 26,2024     4736               UPDATBIT           =        BIT7                                  #        ALLOWED                 NOT ALLOWED
000384:
000385:
000386:                                                                                                  #  BIT 6 FLAG 1  (S)
000387: 26,2024                        NOUPFLAG           =        024D                                  #        NEITHER CSM             EITHER STATE
000388:                                                                                                  #        NOR LM STATE VECTOR     VECTOR MAY BE
000389: 26,2024     4737               NOUPFBIT           =        BIT6                                  #        MAY BE UPDATED          UPDATED
000390:
000391:
000392:                                                                                                  #  BIT 5 FLAG 1  (S)
000393: 26,2024                        TRACKFLG           =        025D                                  #        TRACKING ALLOWED        TRACKING NOT ALLOWED
000394: 26,2024     4740               TRACKBIT           =        BIT5
000395:
000396:
000397:                                                                                                  #  BIT 4 FLAG 1
000398: 26,2024                        FRSTIME            =        026D                                  #        FIRST TIME THRU         NOT FIRST TIME THRU
000399: 26,2024     4741               FRSTMBIT           =        BIT4                                  #        PREPOSITION             PREPOSITION
000400:
000401:
000402:                                                                                                  #  BIT 3 FLAG 1  (S)
000403: 26,2024                        SLOPESW            =        027D                                  #        ITERATE WITH BIAS       ITERATE WITH REGULAR
000404:                                                                                                  #        METHOD IN ITERATOR      FALSI METHOD IN
000405: 26,2024     4742               SLOPEBIT           =        BIT3                                  #                                ITERATOR
000406:
000407:
000408:                                                                                                  #  BIT 2 FLAG 1  (S)
000409: 26,2024                        GUESSW             =        028D                                  #        NO STARTING VALUE       STARTING VALUE FOR
000410: 26,2024     4743               GUESSBIT           =        BIT2                                  #        FOR ITERATION           ITERATION EXISTS
000411:
000412:
000413:                                                                                                  #  BIT 1 FLAG 1
000414:                                                                                                  #                =               029D
000415:
000416:
000417: 26,2024     0076               FLAGWRD2           =        STATE      +2                         #        (030-044)
000418:
000419:                                                                                                  #        (SET)                   (RESET)
000420:
000421:                                                                                                  #  BIT 15 FLAG 2 (S)
000422: 26,2024                        DRIFTFLG           =        030D                                  #        T3RUPT CALLS GYRO       T3RUPT DOES NO GYRO
000423: 26,2024     4726               DRFTBIT            =        BIT15                                 #        COMPENSATION            COMPENSATION
000424:


000427:                                                                                                  #  BIT 14 FLAG 2 (S)
000428:


000430: 26,2024                        SRCHOPTN           =        031D                                  #        RADAR IN AUTOMATIC      RADAR NOT IN AUTO-
000431: 26,2024     4727               SRCHOBIT           =        BIT14                                 #        SEARCH OPTION (R24)     MATIC SEARCH OPTION
000432:
000433:
000434:                                                                                                  #  BIT 13 FLAG 2 (S)
000435: 26,2024                        ACMODFLG           =        032D                                  #        MANUAL ACQUISITION      AUTO ACQUISITION
000436: 26,2024     4730               ACMODBIT           =        BIT13                                 #        BY RENDESVOUS RADAR     BY RENDESVOUS RADAR
000437:
000438:
000439:                                                                                                  #  BIT 12 FLAG 2 (S)
000440: 26,2024                        LOSCMFLG           =        033D                                  #        LINE OF SIGHT BEING     LINE OF SIGHT NOT
000441:                                                                                                  #        COMPUTED (R21)          BEING COMPUTED
000442: 26,2024     4731               LOSCMBIT           =        BIT12
000443:
000444:
000445:                                                                                                  #  BIT 11 FLAG 2 (S)
000446: 26,2024                        STEERSW            =        034D                                  #        SUFFICIENT THRUST       INSUFFICIENT THRUST
000447: 26,2024     4732               STEERBIT           =        BIT11                                 #        IS PRESENT              IS PRESENT
000448:
000449:                                                                                                  #  BIT 10 FLAG 2 (S)
000450:
000451:
000452:                                                                                                  #  BIT 9 FLAG 2 (S)
000453: 26,2024                        IMPULSW            =        036D                                  #        MINIMUM IMPULSE         STEERING BURN (NO
000454:                                                                                                  #        BURN (CUTOFF TIME       CUTOFF TIME YET
000455: 26,2024     4734               IMPULBIT           =        BIT9                                  #        SPECIFIED)              AVAILABLE)
000456:
000457:
000458:                                                                                                  #  BIT 8 FLAG 2 (S)
000459: 26,2024                        XDELVFLG           =        037D                                  #        EXTERNAL DELTAV VG      LAMBERT (AIMPOINT)
000460: 26,2024     4735               XDELVBIT           =        BIT8                                  #        COMPUTATION             VG COMPUTATION
000461:
000462:
000463:                                                                                                  #  BIT 7 FLAG 2 (S)
000464: 26,2024                        ETPIFLAG           =        038D                                  #        ELEVATION ANGLE         TPI TIME SUPPLIED
000465:                                                                                                  #        SUPPLIED FOR            FOR P34,74 TO COMPUT
000466: 26,2024     4736               ETPIBIT            =        BIT7                                  #        P34,74                  ELEVATION
000467:
000468:
000469:                                                                                                  #  BIT 6 FLAG 2 (S)
000470: 26,2024                        FINALFLG           =        039D                                  #        LAST PASS THROUGH       INTERIM PASS THROUGH
000471:                                                                                                  #        RENDEZVOUS PROGRAM      RENDEZVOUS PROGRAM
000472: 26,2024     4737               FINALBIT           =        BIT6                                  #        COMPUTATIONS            COMPUTATIONS
000473:
000474:
000475:                                                                                                  #  BIT 5 FLAG 2 (S)
000476: 26,2024                        AVFLAG             =        040D                                  #        LEM IS ACTIVE           CSM IS ACTIVE
000477: 26,2024     4740               AVFLBIT            =        BIT5                                  #        VEHICLE                 VEHICLE
000478:
000479:


000481:                                                                                                  #  BIT 4 FLAG 2 (S)
000482: 26,2024                        PFRATFLG           =        041D                                  #        PREFERRED ATTITUDE      PREFERRED ATTITUDE
000483: 26,2024     4741               PFRATBIT           =        BIT4                                  #        COMPUTED                NOT COMPUTED
000484:
000485:
000486:                                                                                                  #  BIT 3 FLAG 2 (S)
000487: 26,2024                        CALCMAN3           =        042D                                  #        NO FINAL ROLL           FINAL ROLL IS
000488: 26,2024     4742               CALC3BIT           =        BIT3                                  #                                NECESSARY
000489:
000490:
000491:                                                                                                  #  BIT 2 FLAG 2 (S)
000492: 26,2024                        CALCMAN2           =        043D                                  #        PERFORM MANEUVER        BYPASS STARTING
000493: 26,2024     4743               CALC2BIT           =        BIT2                                  #        STARTING PROCEDURE      PROCEDURE
000494:
000495:
000496:                                                                                                  #  BIT 1 FLAG 2 (S)
000497: 26,2024                        NODOFLAG           =        044D                                  #        V37 NOT PERMITTED       V37 PERMITTED
000498: 26,2024     4744               NODOBIT            =        BIT1
000499:
000500:
000501: 26,2024     0077               FLAGWRD3           =        STATE      +3                         #        (045-059)
000502:
000503:                                                                                                  #        (SET)                   (RESET)
000504:
000505:                                                                                                  #  BIT 15 FLAG 3
000506: 26,2024                        POOHFLAG           =        045D                                  #        INHIBIT BACKWARDS       ALLOW BACKWARDS
000507: 26,2024     4726               POOHBIT            =        BIT15                                 #        INTEGRATION             INTEGRATION
000508:
000509:
000510:                                                                                                  #  BIT 14 FLAG 3 (S)
000511: 26,2024                        GLOKFAIL           =        046D                                  #        GIMBAL LOCK HAS         NOT IN GIMBAL LOCK
000512: 26,2024     4727               GLOKFBIT           =        BIT14                                 #        OCCURRED
000513:
000514:                                                                                                  #  BIT 13 FLAG 3 *** PROTECTED FROM FRESH START ***
000515: 26,2024                        REFSMFLG           =        047D                                  #        REFSMMAT GOOD           REFSMMAT NO GOOD
000516: 26,2024     4730               REFSMBIT           =        BIT13
000517:
000518:
000519:                                                                                                  #  BIT 12 FLAG 3 (S)
000520: 26,2024                        LUNAFLAG           =        048D                                  #        LUNAR LAT-LONG          EARTH LAT-LONG
000521: 26,2024     4731               LUNABIT            =        BIT12
000522:
000523:
000524:                                                                                                  #  BIT 11 FLAG 3 (L)
000525: 26,2024                        NODOPO7            =        049D                                  #        SYSTEM TESTS             SYSTEM TESTS
000526: 26,2024     4732               NOP07BIT           =        BIT11                                 #        NOT ALLOWED              ALLOWED
000527:
000528:                                                                                                  #  BIT 10 FLAG 3 (S)
000529:


000531: 26,2024                        VFLAG              =        050D                                  #        LESS THAN TWO STARS     TWO STARS IN FIELD
000532: 26,2024     4733               VFLAGBIT           =        BIT10                                 #        IN FIELD OF VIEW        OF VIEW
000533:
000534:
000535:                                                                                                  #  BIT 9 FLAG 3  (S)
000536: 26,2024                        R04FLAG            =        051D                                  #        R04 RUNNING             R04 NOT RUNNING
000537: 26,2024     4734               R04FLBIT           =        BIT9
000538:
000539:
000540:                                                                                                  #  BIT 8 FLAG 3  (S)
000541: 26,2024                        PRECIFLG           =        052D                                  #        NORMAL INTEGRATION      ENGAGES 4-TIME STEP
000542:                                                                                                  #        IN POO                  (POO) LOGIC IN INTE-
000543: 26,2024     4735               PRECIBIT           =        BIT8                                  #                                GRATION
000544:
000545:
000546:                                                                                                  #  BIT 7 FLAG 3  (S)
000547: 26,2024                        CULTFLAG           =        053D                                  #        STAR OCCULTED           STAR NOT OCCULTED
000548: 26,2024     4736               CULTBIT            =        BIT7
000549:
000550:
000551:                                                                                                  #  BIT 6 FLAG 3  (S)
000552: 26,2024                        ORBWFLAG           =        054D                                  #        W MATRIX VALID FOR      W MATRIX INVALID FOR
000553: 26,2024     4737               ORBWFBIT           =        BIT6                                  #        ORBITAL NAVIGATION      ORBITAL NAVIGATION
000554:
000555:
000556:                                                                                                  #  BIT 5 FLAG 3  (S)
000557: 26,2024                        STATEFLG           =        055D                                  #        PERMANENT STATE         PERMANENT STATE
000558: 26,2024     4740               STATEBIT           =        BIT5                                  #        VECTOR UPDATED          VECTOR NOT UPDATED
000559:
000560:
000561:                                                                                                  #  BIT 4 FLAG 3  (S)
000562: 26,2024                        INTYPFLG           =        056D                                  #        CONIC INTEGRATION       ENCKE INTEGRATION
000563: 26,2024     4741               INTYPBIT           =        BIT4
000564:
000565:
000566:                                                                                                  #  BIT 3 FLAG 3  (S)
000567: 26,2024                        VINTFLAG           =        057D                                  #        CSM STATE VECTOR        LEM STATE VECTOR
000568: 26,2024     4742               VINTFBIT           =        BIT3                                  #        BEING INTEGRATED        BEING INTEGRATED
000569:
000570:
000571:                                                                                                  #  BIT 2 FLAG 3 (S)
000572: 26,2024                        D6OR9FLG           =        058D                                  #        DIMENSION OF W IS 9     DIMENSION OF W IS 6
000573: 26,2024     4743               D6OR9BIT           =        BIT2                                  #        FOR INTEGRATION         FOR INTEGRATION
000574:
000575:
000576:                                                                                                  #  BIT 1 FLAG 3  (S)
000577: 26,2024                        DIM0FLAG           =        059D                                  #        W MATRIX IS TO BE       W MATRIX IS NOT TO
000578: 26,2024     4744               DIM0BIT            =        BIT1                                  #        USED                    BE USED
000579:
000580:


000582: 26,2024     0100               FLAGWRD4           =        STATE      +4                         #        (060-074)
000583:
000584:                                                                                                  #        (SET)                   (RESET)
000585:
000586:                                                                                                  #  BIT 15 FLAG 4 (S)
000587: 26,2024                        MRKIDFLG           =        060D                                  #        MARK DISPLAY IN         NO MARK DISPLAY IN
000588: 26,2024     4726               MRKIDBIT           =        BIT15                                 #        ENDIDLE                 ENDIDLE
000589:
000590:
000591:                                                                                                  #  BIT 14 FLAG 4 (S)
000592: 26,2024                        PRIODFLG           =        061D                                  #        PRIORITY DISPLAY IN     NO PRIORITY DISPLAY
000593: 26,2024     4727               PRIODBIT           =        BIT14                                 #        ENDIDLE                 IN ENDIDLE
000594:
000595:
000596:                                                                                                  #  BIT 13 FLAG 4 (S)
000597: 26,2024                        NRMIDFLG           =        062D                                  #        NORMAL DISPLAY IN       NO NORMAL DISPLAY
000598: 26,2024     4730               NRMIDBIT           =        BIT13                                 #        ENDIDLE                 IN ENDIDLE
000599:
000600:
000601:                                                                                                  #  BIT 12 FLAG 4 (S)
000602:                                                                                                  #  CODE IN        =               063D
000603:                                                                                                  #  DISPLAY AREA   REFERS TO THIS BIT; CHANGES NEEDED IF USED IN FUTURE.
000604:
000605:                                                                                                  #  BIT 11 FLAG 4 (S)
000606: 26,2024                        MWAITFLG           =        064D                                  #        HIGHER PRIORITY         NO HIGHER PRIORITY
000607:                                                                                                  #        DISPLAY OPERATING       DISPLAY OPERATING
000608: 26,2024     4732               MWAITBIT           =        BIT11                                 #        WHEN MARK DISPLAY       WHEN MARK DISPLAY
000609:                                                                                                  #        INITIATED               INITIATED
000610:
000611:                                                                                                  #  BIT 10 FLAG 4 (S)
000612: 26,2024                        NWAITFLG           =        065D                                  #        HIGHER PRIORITY         NO HIGHER PRIORITY
000613:                                                                                                  #        DISPLAY OPERATING       DISPLAY OPERATING
000614: 26,2024     4733               NWAITBIT           =        BIT10                                 #        WHEN NORMAL             WHEN NORMAL DISPLAY
000615:                                                                                                  #        DISPLAY INITIATED       INITIATED
000616:
000617:                                                                                                  #  BIT 9 FLAG 4  (S)
000618: 26,2024                        MRKNVFLG           =        066D                                  #        ASTRONAUT USING         ASTRONAUT NOT USING
000619:                                                                                                  #        KEYBOARD WHEN MARK      KEYBOARD WHEN MARK
000620: 26,2024     4734               MRKNVBIT           =        BIT9                                  #        DISPLAY INITIATED       DISPLAY INITIATED
000621:
000622:
000623:                                                                                                  #  BIT 8 FLAG 4  (S)
000624: 26,2024                        NRMNVFLG           =        067D                                  #        ASTRONAUT USING         ASTRONAUT NOT USING
000625:                                                                                                  #        KEYBOARD WHEN           KEYBOARD WHEN
000626: 26,2024     4735               NRMNVBIT           =        BIT8                                  #        NORMAL DISPLAY          NORMAL DISPLAY
000627:                                                                                                  #        INITIATED               INITIATED
000628:
000629:                                                                                                  #  BIT 7 FLAG 4  (S)
000630: 26,2024                        PRONVFLG           =        068D                                  #        ASTRONAUT USING         ASTRONAUT NOT USING
000631:


000633:                                                                                                  #        KEYBOARD WHEN           KEYBOARD WHEN
000634: 26,2024     4736               PRONVBIT           =        BIT7                                  #        PRIORITY DISPLAY        PRIORITY DISPLAY
000635:                                                                                                  #        INITIATED               INITIATED
000636:
000637:                                                                                                  #  BIT 6 FLAG 4  (S)
000638: 26,2024                        PINBRFLG           =        069D                                  #        ASTRONAUT HAS           ASTRONAUT HAS NOT
000639:                                                                                                  #        INTERFERED WITH         INTERFERED WITH
000640: 26,2024     4737               PINBRBIT           =        BIT6                                  #        EXISTING DISPLAY        EXISTING DISPLAY
000641:
000642:
000643:                                                                                                  #  BIT 5 FLAG 4  (S)
000644: 26,2024                        MRUPTFLG           =        070D                                  #        MARK DISPLAY            MARK DISPLAY NOT
000645:                                                                                                  #        INTERRUPTED BY          INTERRUPTED BY
000646: 26,2024     4740               MRUPTBIT           =        BIT5                                  #        PRIORITY DISPLAY        PRIORITY DISPLAY
000647:
000648:
000649:                                                                                                  #  BIT 4 FLAG 4  (S)
000650: 26,2024                        NRUPTFLG           =        071D                                  #        NORMAL DISPLAY          NORMAL DISPLAY NOT
000651:                                                                                                  #        INTERRUPTED BY          INTERRUPTED BY
000652: 26,2024     4741               NRUPTBIT           =        BIT4                                  #        PRIORITY OR MARK        PRIORITY OR MARK
000653:                                                                                                  #        DISPLAY                 DISPLAY
000654:
000655:                                                                                                  #  BIT 3 FLAG 4  (S)
000656: 26,2024                        MKOVFLAG           =        072D                                  #        MARK DISPLAY OVER       NO MARK DISPLAY OVER
000657: 26,2024     4742               MKOVBIT            =        BIT3                                  #        NORMAL                  NORMAL
000658:
000659:                                                                                                  #  BIT 2 FLAG 4
000660:                                                                                                  #                =               073D
000661:
000662:
000663:                                                                                                  #  BIT 1 FLAG 4  (S)
000664: 26,2024                        XDSPFLAG           =        074D                                  #        MARK DISPLAY NOT        NO SPECIAL MARK
000665: 26,2024     4744               XDSPBIT            =        BIT1                                  #        TO BE INTERRUPTED       INFORMATION
000666:
000667:
000668: 26,2024     0101               FLAGWRD5           =        STATE      +5                         #        (075-089)
000669:                                                                                                  #        (SET)                   (RESET)
000670:
000671:                                                                                                  #  BIT 15 FLAG 5 (S)
000672: 26,2024                        DSKYFLAG           =        075D                                  #        DISPLAYS SENT TO        NO DISPLAYS TO DSKY
000673: 26,2024     4726               DSKYFBIT           =        BIT15                                 #        DSKY
000674:
000675:                                                                                                  #  BIT 14 FLAG 5
000676: 26,2024                        PDSPFLAG           =        076D                                  #        R60 DOES PRIO DSP.      R60 DOES NORMAL DSP.
000677: 26,2024     4727               PDSPFBIT           =        BIT14                                 #        AND IS RESTART          AND IS NOT RESTORTED
000678:                                                                                                  #        PROTECTED.
000679:


000681:                                                                                                  #  BIT 13 FLAG 5 (S,L)
000682: 26,2024                        SNUFFER            =        077D                                  #        U,V JETS DISABLED       U,V JETS ENABLED
000683:                                                                                                  #        DURING DPS              DURING DPS
000684: 26,2024     4730               SNUFFBIT           =        BIT13                                 #        BURNS (V65)             BURNS (V75)
000685:
000686:
000687:                                                                                                  #  BIT 12 FLAG 5 (S)
000688: 26,2024                        NOTHROTL           =        078D                                  #        INHIBIT FULL            PERMIT FULL THROTTLE
000689: 26,2024     4731               NOTHRBIT           =        BIT12                                 #        THROTTLE
000690:
000691:
000692:                                                                                                  #  BIT 11 FLAG 5 (S,L)
000693: 26,2024                        R77FLAG            =        079D                                  #        R77 IS ON,              R77 IS NOT ON.
000694:                                                                                                  #        SUPPRESS ALL RADAR
000695:                                                                                                  #        ALARMS AND TRACKER
000696: 26,2024     4732               R77FLBIT           =        BIT11                                 #        FAILS
000697:
000698:
000699:                                                                                                  #  BIT 10 FLAG 5 (S)
000700: 26,2024                        RNGSCFLG           =        080D                                  #        SCALE CHANGE HAS        NO SCALE CHANGE HAS
000701:                                                                                                  #        OCCURRED DURING         OCCURRED DURING
000702: 26,2024     4733               RNGSCBIT           =        BIT10                                 #        RR READING              RR READING
000703:
000704:
000705:                                                                                                  #  BIT 9 FLAG 5  (S)
000706: 26,2024                        DMENFLG            =        081D                                  #        DIMENSION OF W IS 9     DIMENSION OF W IS 6
000707: 26,2024     4734               DMENFBIT           =        BIT9                                  #        FOR INCORPORATION       FOR INCORPORATION
000708:
000709:
000710:                                                                                                  #  BIT 8 FLAG 5  (S)
000711: 26,2024                        ZOOMFLAG           =        082D                                  #        THROTTLE-UP HAS         THROTTLE-UP HAS NOT
000712: 26,2024     4735               ZOOMBIT            =        BIT8                                  #        OCCURRED IN P63.        YET OCCURRED IN P63.
000713:
000714:
000715:                                                                                                  #  BIT 7 FLAG 5  (S)
000716: 26,2024                        ENGONFLG           =        083D                                  #        ENGINE TURNED ON        ENGINE TURNED OFF
000717: 26,2024     4736               ENGONBIT           =        BIT7
000718:
000719:
000720:                                                                                                  #  BIT 6 FLAG 5  (S)
000721: 26,2024                        3AXISFLG           =        084D                                  #        MANEUVER SPECIFIED      MANEUVER SPECIFIED
000722:                                                                                                  #        BY THREE AXES           BY ONE AXIS; R60
000723: 26,2024     4737               3AXISBIT           =        BIT6                                  #                                CALLS VECPOINT.
000724:
000725:
000726:                                                                                                  #  BIT 5 FLAG 5
000727: 26,2024                        AORBSFLG           =        085D                                  #        PREFER PAXIS JET        PREFER PAXIS JET
000728: 26,2024     4740               AORBSYST           =        BIT5                                  #        PAIRS 7,15 AND 8,16     PAIRS 4,12 AND 3,11
000729:
000730:


000732:                                                                                                  #  BIT 4 FLAG 5  (S)
000733: 26,2024                        NORRMON            =        086D                                  #        BYPASS RR GIMBAL        PERFORM
000734: 26,2024     4741               NORRMBIT           =        BIT4                                  #        MONITOR                 RR GIMBAL MONITOR
000735:
000736:
000737:                                                                                                  #  BIT 3 FLAG 5  (S)
000738: 26,2024                        SOLNSW             =        087D                                  #        LAMBERT DOES NOT        LAMBERT CONVERGES OR
000739:                                                                                                  #        CONVERGE, OR TIME-RAD   TIME-RADIUS NON
000740: 26,2024     4742               SOLNSBIT           =        BIT3                                  #        NEARLY CIRCULAR         CIRCULAR
000741:
000742:
000743:                                                                                                  #  BIT 2 FLAG 5  (S)
000744: 26,2024                        MGLVFLAG           =        088D                                  #        LOCAL VERTICAL          MIDDLE GIMBAL ANGLE
000745:                                                                                                  #        COORDINATES             COMPUTED
000746: 26,2024     4743               MGLVFBIT           =        BIT2                                  #        COMPUTED
000747:
000748:
000749:                                                                                                  #  BIT 1 FLAG 5  (S)
000750: 26,2024                        RENDWFLG           =        089D                                  #        W MATRIX VALID          W MATRIX INVALID
000751:                                                                                                  #        FOR RENDEZVOUS          FOR RENDEZVOUS
000752: 26,2024     4744               RENDWBIT           =        BIT1                                  #        NAVIGATION              NAVIGATION
000753:
000754:
000755: 26,2024     0102               FLAGWRD6           =        STATE      +6                         #        (090-104)
000756:
000757:                                                                                                  #        (SET)                   (RESET)
000758:
000759:                                                                                                  #  BIT 15 FLAG 6 (S)
000760: 26,2024                        S32.1F1            =        090D                                  #        DELTA V AT CSI TIME     DVT1 LESS THEN MAX
000761: 26,2024     4726               S32BIT1            =        BIT15                                 #        ONE EXCEEDS MAX
000762:
000763:
000764:                                                                                                  #  BIT 14 FLAG 6 (S)
000765: 26,2024                        S32.1F2            =        091D                                  #        FIRST PASS OF           REITERATION OF
000766: 26,2024     4727               S32BIT2            =        BIT14                                 #        NEWTON ITERATION        NEWTON
000767:
000768:
000769:                                                                                                  #  BIT 13 FLAG 6 (S)
000770: 26,2024                        S32.1F3A           =        092D                                  #        BIT 13 AND BIT 12 FUNCTION AS AN ORDERED
000771: 26,2024     4730               S32BIT3A           =        BIT13                                 #        PAIR (13,12) INDICATING THE POSSIBLE OC-
000772:                                                                                                  #        CURRANCE OF 2 NEWTON ITERATIONS FOR S32.1
000773:                                                                                                  #        IN THE PROGRAM IN THE FOLLOWING ORDER:
000774:                                                                                                  #  BIT 12 FLAG 6                                                 (0,1) (I.E. BIT 13 RESET,BIT 12 SET)
000775: 26,2024                        S32.1F3B           =        093D                                  #             = FIRST NEWTON ITERATION BEING DONE
000776: 26,2024     4731               S32BIT3B           =        BIT12                                 #        (0,0)= FIRST PASS OF SECOND NEWT.ITERAT.
000777:                                                                                                  #        (1,1)= 50 FT/SEC STAGE OF SEC. NEWT.ITER
000778:                                                                                                  #        (1,0)= REMAINDER OF SECOND NEWTON ITERA.
000779:
000780:
000781:                                                                                                  #  BIT 11 FLAG 6 (S)
000782:


000784:
000785:
000786:                                                                                                  #  BIT 10 FLAG 6 (S)
000787: 26,2024                        GMBDRVSW           =        095D                                  #        TRIMGIMB OVER           TRIMGIMB NOT OVER
000788: 26,2024     4733               GMBDRBIT           =        BIT10
000789:
000790:
000791:                                                                                                  #  BIT 9 FLAG 6
000792:                                                                                                  #                =               096D
000793:                                                                                                  #                =               BIT9
000794:
000795:
000796:                                                                                                  #  BIT 8 FLAG 6  (S)
000797: 26,2024                        MUNFLAG            =        097D                                  #        SERVICER CALLS          SERVICER CALLS
000798: 26,2024     4735               MUNFLBIT           =        BIT8                                  #        MUNRVG                  CALCRVG
000799:
000800:
000801:                                                                                                  #  BIT 7 FLAG 6  (L)
000802: 26,2024                                           =        098D
000803: 26,2024                                           =        BIT7
000804:
000805:
000806:                                                                                                  #  BIT 6 FLAG 6  (L)
000807: 26,2024                        REDFLAG            =        099D                                  #        LANDING SITE            LANDING SITE
000808:                                                                                                  #        REDESIGNATION           REDESIGNATION NOT
000809: 26,2024     4737               REDFLBIT           =        BIT6                                  #        PERMITTED               PERMITTED
000810:
000811:
000812:                                                                                                  #  BIT 5 FLAG 6
000813:                                                                                                  #                =               100D
000814:
000815:
000816:                                                                                                  #  BIT 4 FLAG 6
000817:                                                                                                  #                =               101D
000818:
000819:
000820:                                                                                                  #  BIT 3 FLAG 6  (S)
000821: 26,2024                        NTARGFLG           =        102D                                  #        ASTRONAUT DID           ASTRONAUT DID NOT
000822:                                                                                                  #        OVERWRITE DELTA         OVERWRITE DELTA
000823: 26,2024     4742               NTARGBIT           =        BIT3                                  #        VELOCITY AT TPI         VELOCITY
000824:                                                                                                  #        OR TPM (P34,35)
000825:
000826:                                                                                                  #  BIT 2 FLAG 6
000827: 26,2024                        AUXFLAG            =        103D                                  #        PROVIDING IDLEFLAG      SERVICER WILL SKIP
000828: 26,2024     4743               AUXFLBIT           =        BIT2                                  #        IS NOT SET, SERV-       DVMON ON ITS NEXT
000829:                                                                                                  #        ICER WILL EXERCISE      PASS EVEN IF THE
000830:                                                                                                  #        DVMON ON ITS NEXT       IDLEFLAG IS NOT SET.
000831:                                                                                                  #        PASS.                   IT WILL THEN SET
000832:                                                                                                  #                                AUXFLAG.
000833:
000834:                                                                                                  #  BIT 1 FLAG 6  (L)
000835:


000837: 26,2024                        ATTFLAG            =        104D                                  #        LEM ATTITUDE EXISTS     NO LEM ATTITUDE
000838:                                                                                                  #        IN MOON-FIXED           AVAILABLE IN MOON-
000839: 26,2024     4744               ATTFLBIT           =        BIT1                                  #        COORDINATES             FIXED COORDINATES
000840:
000841:
000842: 26,2024     0103               FLAGWRD7           =        STATE      +7                         #        (105-119)
000843:
000844:                                                                                                  #        (SET)                   (RESET)
000845:
000846:                                                                                                  #  BIT 15 FLAG 7 (S)
000847: 26,2024                        ITSWICH            =        105D                                  #        R34;TPI TIME TO BE      TPI HAS BEEN
000848: 26,2024     4726               ITSWBIT            =        BIT15                                 #        COMPUTED                COMPUTED
000849:
000850:
000851:                                                                                                  #  BIT 14 FLAG 7 (S)
000852: 26,2024                        MANUFLAG           =        106D                                  #        ATTITUDE MANEUVER       NO ATTITUDE MANEUVER
000853:                                                                                                  #        GOING DURING RR         DURING RR SEARCH
000854: 26,2024     4727               MANUFBIT           =        BIT14                                 #        SEARCH
000855:
000856:
000857:                                                                                                  #  BIT 13 FLAG 7 (S)
000858: 26,2024                        IGNFLAG            =        107D                                  #        TIG HAS ARRIVED         TIG HAS NOT ARRIVED
000859: 26,2024     4730               IGNFLBIT           =        BIT13
000860:
000861:
000862:                                                                                                  #  BIT 12 FLAG 7 (S)
000863: 26,2024                        ASTNFLAG           =        108D                                  #        ASTRONAUT HAS           ASTRONAUT HAS NOT
000864: 26,2024     4731               ASTNBIT            =        BIT12                                 #        OKAYED IGNITION         OKAYED IGNITION
000865:
000866:
000867:                                                                                                  #  BIT 11 FLAG 7 (L)
000868: 26,2024                        SWANDISP           =        109D                                  #        LANDING ANALOG          LANDING ANALOG
000869: 26,2024     4732               SWANDBIT           =        BIT11                                 #        DISPLAYS ENABLED        DISPLAYS SUPPRESSED
000870:
000871:
000872:                                                                                                  #  BIT 10 FLAG 7 (S)
000873: 26,2024                        NORMSW             =        110D                                  #        UNIT NORMAL INPUT       LAMBERT COMPUTES ITS
000874: 26,2024     4733               NORMSBIT           =        BIT10                                 #        TO LAMBERT              OWN UNIT NORMAL
000875:
000876:
000877:                                                                                                  #  BIT 9 FLAG 7  (S)
000878: 26,2024                        RVSW               =        111D                                  #        DO NOT COMPUTE          COMPUTE FINAL STATE
000879:                                                                                                  #        FINAL STATE VECTOR      VECTOR IN TIME-THETA
000880: 26,2024     4734               RVSWBIT            =        BIT9                                  #        IN TIME-THETA
000881:
000882:
000883:                                                                                                  #  BIT 8 FLAG 7  (S)
000884: 26,2024                        V67FLAG            =        112D                                  #        ASTRONAUT OVERWRITE     ASTRONAUT DOES NOT
000885:                                                                                                  #        W-MATRIX INITIAL        OVERWRITE W-MATRIX
000886: 26,2024     4735               V67FLBIT           =        BIT8                                  #        VALUES                  INITIAL VALUES
000887:


000889:
000890:
000891:                                                                                                  #  BIT 7 FLAG 7  (S)
000892: 26,2024                        IDLEFLAG           =        113D                                  #        NO DV MONITOR           CONNECT DV MONITOR
000893: 26,2024     4736               IDLEFBIT           =        BIT7
000894:
000895:
000896:                                                                                                  #  BIT 6 FLAG 7  (S)
000897: 26,2024                        V37FLAG            =        114D                                  #        AVERAGEG (SERVICER)     AVERAGEG (SERVICER)
000898: 26,2024     4737               V37FLBIT           =        BIT6                                  #        RUNNING                 OFF
000899:
000900:
000901:                                                                                                  #  BIT 5 FLAG 7  (S)
000902: 26,2024                        AVEGFLAG           =        115D                                  #        AVERAGEG (SERVICER)     AVERAGEG (SERVICER)
000903: 26,2024     4740               AVEGFBIT           =        BIT5                                  #        DESIRED                 NOT DESIRED
000904:
000905:
000906:                                                                                                  #  BIT 4 FLAG 7  (S)
000907: 26,2024                        UPLOCKFL           =        116D                                  #        K-KBAR-K FAIL           NO K-KBAR-K FAIL
000908: 26,2024     4741               UPLOCBIT           =        BIT4
000909:
000910:
000911:                                                                                                  #  BIT 3 FLAG 7  (S)
000912: 26,2024                        VERIFLAG           =        117D                                  #        CHANGED WHEN V33E OCCURS AT END OF P27
000913: 26,2024     4742               VERIFBIT           =        BIT3
000914:
000915:
000916:                                                                                                  #  BIT 2 FLAG 7  (L,C)
000917: 26,2024                        V82EMFLG           =        118D                                  #        MOON VICINITY           EARTH VICINITY
000918: 26,2024     4743               V82EMBIT           =        BIT2
000919:
000920:
000921:                                                                                                  #  BIT 1 FLAG 7  (S)
000922: 26,2024                        TFFSW              =        119D                                  #        CALCULATE TPERIGEE      CALCULATE TFF
000923: 26,2024     4744               TFFSWBIT           =        BIT1
000924:
000925:
000926: 26,2024     0104               FLAGWRD8           =        STATE      +8D                        #        (120-134)
000927:
000928:                                                                                                  #        (SET)                   (RESET)
000929:
000930:                                                                                                  #  BIT 15 FLAG 8 (S)
000931: 26,2024                        RPQFLAG            =        120D                                  #        RPQ NOT COMPUTED        RPQ COMPUTED
000932:                                                                                                  #        (RPQ = VECTOR BE-
000933: 26,2024     4726               RPQFLBIT           =        BIT15                                 #        TWEEN SECONDARY BODY
000934:                                                                                                  #        AND PRIMARY BODY
000935:
000936:                                                                                                  #  BIT 14 FLAG 8
000937:                                                                                                  #                =               121D
000938:


000940:                                                                                                  #                =               BIT14
000941:
000942:                                                                                                  #  BIT 13 FLAG 8 (S)
000943: 26,2024                        NEWIFLG            =        122D                                  #        FIRST PASS THROUGH      SUCCEEDING ITERATION
000944: 26,2024     4730               NEWIBIT            =        BIT13                                 #        INTEGRATION             OF INTEGRATION
000945:
000946:
000947:                                                                                                  #  BIT 12 FLAG 8 *** PROTECTED FROM FRESH START ***
000948: 26,2024                        CMOONFLG           =        123D                                  #        PERMANENT CSM STATE     PERMANENT CSM STATE
000949: 26,2024     4731               CMOONBIT           =        BIT12                                 #        IN LUNAR SPHERE         IN EARTH SPHERE
000950:
000951:
000952:                                                                                                  #  BIT 11 FLAG 8 *** PROTECTED FROM FRESH START ***
000953: 26,2024                        LMOONFLG           =        124D                                  #        PERMANENT LM STATE      PERMANENT LM STATE
000954: 26,2024     4732               LMOONBIT           =        BIT11                                 #        IN LUNAR SPHERE         IN EARTH SPHERE
000955:
000956:
000957:                                                                                                  #  BIT 10 FLAG 8 (L)
000958: 26,2024                        FLUNDISP           =        125D                                  #        CURRENT GUIDANCE        CURRENT GUIDANCE
000959: 26,2024     4733               FLUNDBIT           =        BIT10                                 #        DISPLAYS INHIBITED      DISPLAYS PERMITTED
000960:
000961:
000962:                                                                                                  #  BIT 9 FLAG 8  (L)
000963:                                                                                                  #                =               126D
000964:                                                                                                  #                =               BIT9
000965:
000966:
000967:                                                                                                  #  BIT 8 FLAG 8  *** PROTECTED FROM FRESH START ***
000968: 26,2024                        SURFFLAG           =        127D                                  #        LM ON LUNAR SURFACE     LM NOT ON LUNAR
000969: 26,2024     4735               SURFFBIT           =        BIT8                                  #                                SURFACE
000970:
000971:
000972:                                                                                                  #  BIT 7 FLAG 8  (S)
000973: 26,2024                        INFINFLG           =        128D                                  #        NO CONIC SOLUTION       CONIC SOLUTION
000974:                                                                                                  #        (CLOSURE THROUGH        EXISTS
000975: 26,2024     4736               INFINBIT           =        BIT7                                  #        INFINITY REQUIRED)
000976:
000977:
000978:                                                                                                  #  BIT 6 FLAG 8  (S)
000979: 26,2024                        ORDERSW            =        129D                                  #        ITERATOR USES 2ND       ITERATOR USES 1ST
000980: 26,2024     4737               ORDERBIT           =        BIT6                                  #        ORDER MINIMUM MODE      ORDER STANDARD MODE
000981:
000982:
000983:                                                                                                  #  BIT 5 FLAG 8  (S)
000984: 26,2024                        APSESW             =        130D                                  #        RDESIRED OUTSIDE        RDESIRED INSIDE
000985:                                                                                                  #        PERICENTER-APOCENTER    PERICENTER-APOCENTER
000986: 26,2024     4740               APSESBIT           =        BIT5                                  #        RANGE IN TIME-RADI      RANGE IN TIME-RADIUS
000987:
000988:


000990:                                                                                                  #  BIT 4 FLAG 8  (S)
000991: 26,2024                        COGAFLAG           =        131D                                  #        NO CONIC SOLUTION -     CONIC SOLUTION
000992:                                                                                                  #        TOO CLOSE TO RECTI-     EXISTS (COGA DOES NOT
000993: 26,2024     4741               COGAFBIT           =        BIT4                                  #        LINEAR (COGA OVRFLWS)   OVERFLOW)
000994:
000995:
000996:                                                                                                  #  BIT 3 FLAG 8
000997:                                                                                                  #                =               132D
000998:
000999:                                                                                                  #  BIT 2 FLAG 8  (L)
001000: 26,2024                        INITALGN           =        133D                                  #        INITIAL PASS THRU       SECOND PASS THRU P57
001001: 26,2024     4743               INITABIT           =        BIT2                                  #        P57                     (CHECK RESET-MILLARD)
001002:
001003:
001004:                                                                                                  #  BIT 1 FLAG 8  (S)
001005: 26,2024                        360SW              =        134D                                  #        TRANSFER ANGLE NEAR     TRANSFER ANGLE NOT
001006: 26,2024     4744               360SWBIT           =        BIT1                                  #        360 DEGREES             NEAR 360 DEGREES
001007:
001008:
001009: 26,2024     0105               FLAGWRD9           =        STATE      +9D                        #        (135-149)
001010:
001011:                                                                                                  #        (SET)                   (RESET)
001012:
001013:                                                                                                  #  BIT 15 FLAG 9
001014:                                                                                                  #                =               135D
001015:                                                                                                  #                =               BIT15
001016:
001017:                                                                                                  #  BIT 14 FLAG 9 (L)
001018: 26,2024                        FLVR               =        136D                                  #        VERTICAL RISE           NON-VERTICAL RISE
001019: 26,2024     4727               FLVRBIT            =        BIT14                                 #        (ASCENT GUIDANCE)
001020:
001021:
001022:                                                                                                  #  BIT 13 FLAG 9
001023: 26,2024                        P7071FLG           =        137D                                  #        P70 OR P71 IS USING     P12 IS USING THE
001024: 26,2024     4730               P7071BIT           =        BIT13                                 #        ASCENT GUID. EQS.       ASCENT GUID. EQS.
001025:
001026:
001027:                                                                                                  #  BIT 12 FLAG 9 (L)
001028: 26,2024                        FLPC               =        138D                                  #        NO POSITION CONTROL     POSITION CONTROL
001029: 26,2024     4731               FLPCBIT            =        BIT12                                 #        (ASCENT GUIDANCE)
001030:
001031:
001032:                                                                                                  #  BIT 11 FLAG 9 (L)
001033: 26,2024                        FLPI               =        139D                                  #        PRE-IGNITION PHASE      REGULAR GUIDANCE
001034: 26,2024     4732               FLPIBIT            =        BIT11                                 #        (ASCENT GUIDANCE)
001035:
001036:
001037:                                                                                                  #  BIT 10 FLAG 9 (L)
001038: 26,2024                        FLRCS              =        140D                                  #        RCS INJECTION MODE      MAIN ENGINE MODE
001039:


001041: 26,2024     4733               FLRCSBIT           =        BIT10                                 #        (ASCENT GUIDANCE)
001042:
001043:
001044:                                                                                                  #  BIT 9 FLAG 9  (L)
001045: 26,2024                        LETABORT           =        141D                                  #        ABORT PROGRAMS          ABORT PROGRAMS
001046: 26,2024     4734               LETABBIT           =        BIT9                                  #        ARE ENABLED             ARE NOT ENABLED
001047:
001048:
001049:                                                                                                  #  BIT 8 FLAG 9  (L)
001050: 26,2024                        FLAP               =        142D                                  #        APS CONTINUED ABORT     APS ABORT IS NOT A
001051:                                                                                                  #        AFTER DPS STAGING      CONTINUATION
001052: 26,2024     4735               FLAPBIT            =        BIT8                                  #        (ASCENT GUIDANCE)
001053:
001054:
001055:                                                                                                  #  BIT 7 FLAG 9  (L)
001056: 26,2024                        ABTTGFLG           =        143D                                  #        J2,K2 PARAMETERS        J1,K1 PARAMETERS
001057: 26,2024     4736               ABTTGBIT           =        BIT7                                  #        USED FOR ABORT          USED FOR ABORT
001058:                                                                                                  #        TARGETING               TARGETING
001059:
001060:
001061:                                                                                                  #  BIT 6 FLAG 9  (L)
001062: 26,2024                        ROTFLAG            =        144D                                  #        P70 AND P71 WILL        P70 AND P71 WILL NOT
001063: 26,2024     4737               ROTFLBIT           =        BIT6                                  #        FORCE VEHICLE           FORCE VEHICLE
001064:                                                                                                  #        ROTATION IN THE         ROTATION IN THE
001065:                                                                                                  #        PREFERRED DIRECTION.     PREFERRED DIRECTION
001066:
001067:                                                                                                  #  BIT 5 FLAG 9  (S)
001068: 26,2024                        QUITFLAG           =        145D                                  #        DISCONTINUE INTEGR.     CONTINUE INTEGRATION
001069: 26,2024     4740               QUITBIT            =        BIT5
001070:
001071:                                                                                                  #  BIT 4 FLAG 9
001072: 26,2024                        FLT59FLG           =        146D                                  #        LUNAR SURFACE MARK      NORMAL MARKING TO BE
001073: 26,2024     4741               FLT59BIT           =        BIT4                                  #        PROCEDURE USED          USED DURING INFLITE
001074:                                                                                                  #        DURING INFLITE ALGN     ALIGNMENT
001075:                                                                                                  #  BIT 3 FLAG 9  (L)
001076: 26,2024                        MID1FLAG           =        147D                                  #        INTEGRATE TO TDEC       INTEGRATE TO THE
001077: 26,2024     4742               MID1FBIT           =        BIT3                                  #                                THEN-PRESENT TIME
001078:
001079:
001080:                                                                                                  #  BIT 2 FLAG 9  (L)
001081: 26,2024                        MIDAVFLG           =        148D                                  #        INTEGRATION ENTERED     INTEGRATION WAS
001082:                                                                                                  #        FROM ONE OF MIDTOAV     NOT ENTERED VIA
001083: 26,2024     4743               MIDAVBIT           =        BIT2                                  #        PORTALS                 MIDTOAV
001084:
001085:                                                                                                  #  BIT 1 FLAG 9  (S)
001086: 26,2024                        AVEMIDSW           =        149D                                  #        AVETOMID CALLING        NO AVETOMID W INTEGR
001087:                                                                                                  #        FOR W.MATRIX INTEGR     ALLOW SET UP RM, VN,
001088: 26,2024     4744               AVEMDBIT           =        BIT1                                  #        DONT WRITE OVER RN,     PIPTIME
001089:                                                                                                  #        VN,PIPTIME
001090:


001092:
001093:
001094: 26,2024     0106               RASFLAG            EQUALS   FLGWRD10                              #        WAS ONLY AN INSTALL -ERASTALL FLAG
001095:
001096:
001097: 26,2024     0106               FLGWRD10           =        STATE      +10D                       #        (150-164)
001098:
001099:                                                                                                  #        (SET)                   (RESET)
001100:
001101:                                                                                                  #  BIT 15 FLAG 10
001102:                                                                                                  #                =               150D
001103:
001104:                                                                                                  #  BIT 14 FLAG 10 (L,C)
001105: 26,2024                        INTFLAG            =        151D                                  #        INTEGRATION IN          INTEGRATION NOT IN
001106: 26,2024     4727               INTFLBIT           =        BIT14                                 #        PROGRESS                PROGRESS
001107:
001108:
001109:                                                                                                  #  BIT 13 FLAG 10 (S,L)
001110: 26,2024                        APSFLAG            =        152D                                  #        ASCENT STAGE            DESCENT STAGE
001111: 26,2024     4730               APSFLBIT           =        BIT13                                 #        *** PROTECTED FROM FRESH START ***
001112:
001113:                                                                                                  #  BIT 12 FLAG 10
001114:                                                                                                  #                =               153D
001115:
001116:                                                                                                  #  BIT 11 FLAG 10
001117:                                                                                                  #                =               154D
001118:
001119:                                                                                                  #  BIT 10 FLAG 10
001120:                                                                                                  #                =               155D
001121:
001122:                                                                                                  #  BIT 9 FLAG 10
001123:                                                                                                  #                =               156D
001124:
001125:                                                                                                  #  BIT 8 FLAG 10
001126:                                                                                                  #                =               157D
001127:
001128:                                                                                                  #  BIT 7 FLAG 10 (L,C)
001129: 26,2024                        REINTFLG           =        158D                                  #        INTEGRATION ROUTINE     INTEGRATION ROUTINE
001130: 26,2024     4736               REINTBIT           =        BIT7                                  #        TO BE RESTARTED         NOT TO BE RESTARTED
001131:
001132:                                                                                                  #  BIT 6 FLAG 10
001133:                                                                                                  #                =               159D
001134:


001136:
001137:                                                                                                  #  BIT 5 FLAG 10
001138:                                                                                                  #                =               160D
001139:
001140:                                                                                                  #  BIT 4 FLAG 10
001141:                                                                                                  #                =               161D
001142:
001143:                                                                                                  #  BIT 3 FLAG 10
001144:                                                                                                  #                =               162D
001145:
001146:                                                                                                  #  BIT 2 FLAG 10
001147: 26,2024                        CONTRLFL           =        163D                                  #        DAP CONTROLLING         DAP NOT CONTROLLING
001148: 26,2024     4743               CONTRLBT           =        BIT2                                  #        VEHICLE ATTITUDE        VEHICLE ATTITUDE
001149:
001150:
001151:                                                                                                  #  BIT 1 FLAG 10
001152: 26,2024                        NPGNCSFL           =        164D                                  #        LAST ACTIVE DAP         LAST ACTIVE DAP
001153: 26,2024     4744               NPGNCSBT           =        BIT1                                  #        PASS DONE WITH AN       PASS DONE WITH A
001154:                                                                                                  #        AGS INDICATION          PGNCS INDICATION
001155:
001156:
001157:
001158: 26,2024     0107               FLGWRD11           =        STATE      +11D                       #        (165-179)
001159:
001160:                                                                                                  #        (SET)                   (RESET)
001161:
001162:                                                                                                  #  BIT 15 FLAG 11 (L)(R12)
001163: 26,2024                        LRBYPASS           =        165D                                  #        BYPASS ALL LANDING      DO NOT BYPASS LR
001164: 26,2024     4726               LRBYBIT            =        BIT15                                 #        RADAR UPDATES           UPDATES
001165:
001166:
001167:                                                                                                  #  BIT 14 FLAG 11
001168: 26,2024                        VFAILFLG           =        166D                                  #        LANDING RADAR VEL       LANDING RADAR VEL
001169: 26,2024     4727               VFAILBIT           =        BIT14                                 #        FAILED REAS TEST        PASS REAS TEST
001170:
001171:
001172:                                                                                                  #  BIT 13 FLAG 11
001173: 26,2024                        HFAILFLG           =        167D                                  #        LANDING RADAR ALT       LANDING RADAR VEL
001174: 26,2024     4730               HFAILBIT           =        BIT13                                 #        FAILED REAS TEST        PASS REAS TEST
001175:
001176:
001177:                                                                                                  #  BIT 12 FLAG 11 (L)(R12)
001178: 26,2024                        VXINH              =        168D                                  #        IF Z VELOCITY DATA      UPDATE X AXIS
001179:                                                                                                  #        UNREASONABLE,           VELOCITY
001180: 26,2024     4731               VXINHBIT           =        BIT12                                 #        BYPASS X VELOCITY
001181:                                                                                                  #        UPDATE ON NEXT PASS
001182:


001184:                                                                                                  #  BIT 11 FLAG 11 (L)(R12)
001185: 26,2024                        PSTHIGAT           =        169D                                  #        PAST HIGATE             PREHIGATE
001186: 26,2024     4732               PSTHIBIT           =        BIT11
001187:
001188:
001189:                                                                                                  #  BIT 10 FLAG 11 (L)(R12)
001190: 26,2024                        NOLRREAD           =        170D                                  #        LANDING RADAR           LR NOT REPOSITIONING
001191:                                                                                                  #        REPOSITIONING;
001192: 26,2024     4733               NOLRRBIT           =        BIT10                                 #        BYPASS UPDATE
001193:
001194:
001195:                                                                                                  #  BIT 9 FLAG 11 (L)(R12)
001196: 26,2024                        XORFLG             =        171D                                  #        BELOW LIMIT             ABOVE LIMIT DO
001197:                                                                                                  #        INHIBIT X AXIS          NOT INHIBIT
001198: 26,2024     4734               XORFLBIT           =        BIT9                                  #        OVERRIDE
001199:
001200:
001201:                                                                                                  #  BIT 8 FLAG 11
001202: 26,2024                        LRINH              =        172D                                  #        LANDING RADAR UP-       LR UPDATES INHIBITED
001203: 26,2024     4735               LRINHBIT           =        BIT8                                  #        DATES PERMITTED         BY ASTRONAUT
001204:                                                                                                  #        BY ASTRONAUT
001205:
001206:                                                                                                  #  BIT 7 FLAG 11 (L)(R12)
001207: 26,2024                        VELDATA            =        173D                                  #        LR VELOCITY             LR VELOCITY MEASURE
001208: 26,2024     4736               VELDABIT           =        BIT7                                  #        MEASUREMENT MADE        NOT MADE
001209:
001210:
001211:                                                                                                  #  BIT 6 FLAG 11
001212:                                                                                                  #                =               174D
001213:                                                                                                  #                =               BIT6
001214:
001215:
001216:                                                                                                  #  BIT 5 FLAG 11 (L)(R12)
001217:                                                                                                  #                =               175D
001218:                                                                                                  #                =               BIT5
001219:
001220:
001221:                                                                                                  #  BIT 4 FLAG 11 (L)(R12)
001222: 26,2024                        RNGEDATA           =        176D                                  #        LR ALTITUDE             LR ALTITUDE MEASURE
001223: 26,2024     4741               RNGEDBIT           =        BIT4                                  #        MEASUREMENT MADE        NOT MADE
001224:
001225:
001226:                                                                                                  #  BIT 3 FLAG 11
001227: 26,2024                        R12RDFLG           =        177D                                  #        WAIT UNTIL ALL VEL      ALLOW R12 PROCESS-
001228: 26,2024     4742               R12RDBIT           =        BIT3                                  #        READS DONE BEFORE       ING OF VELDATA;
001229:                                                                                                  #        R12 PROCESSING          LR VEL READ DONE
001230:
001231:
001232:                                                                                                  #  BIT 2 FLAG 11 (L)(R12)
001233:


001235: 26,2024                        VFLSHFLG           =        178D                                  #        LR VELOCITY FAIL        LR VEL FAIL LAMP
001236: 26,2024     4743               VFLSHBIT           =        BIT2                                  #        LAMP SHOULD BE          SHOULDN'T FLASH
001237:                                                                                                  #        FLASHING
001238:
001239:                                                                                                  #  BIT 1 FLAG 11 (L)(R12)
001240: 26,2024                        HFLSHFLG           =        179D                                  #        LR ALTITUDE FAIL        LR ALTITUDE FAIL
001241: 26,2024     4744               HFLSHBIT           =        BIT1                                  #        LAMP SHOULD BE          LAMP SHOULD NOT BE
001242:                                                                                                  #        FLASHING                FLASHING
001243:
001244: 26,2024     0110               RADMODES           EQUALS   FLGWRD12                              #        RADAR FLAG WORD
001245:
001246:
001247: 26,2024     0110               FLGWRD12           =        STATE      +12D                       #        (180-194)       WAS RADMODES
001248:
001249:                                                                                                  #        (SET)                   (RESET)
001250:
001251:                                                                                                  #  BIT 15 FLAG 12
001252: 26,2024                        CDESFLAG           =        180D                                  #        CONTINUOUS DESIG-       LGC CHECKS FOR LOCK-
001253: 26,2024     4726               CDESBIT            =        BIT15                                 #        NATE. LGC COMMANDS      ON WHEN ANTENNA
001254:                                                                                                  #        RR REGARDLESS OF        BEING DESIGNATED
001255:                                                                                                  #        LOCK-ON
001256:
001257:                                                                                                  #  BIT 14 FLAG 12
001258: 26,2024                        REMODFLG           =        181D                                  #        CHANGE IN ANTENNA       NO REMODE REQUESTED
001259: 26,2024     4727               REMODBIT           =        BIT14                                 #        MODE BEEN REQUESTED     OR OCCURRING
001260:                                                                                                  #        I.E., REMODE
001261:
001262:                                                                                                  #  BIT 13 FLAG 12
001263: 26,2024                        RCDU0FLG           =        182D                                  #        RR CDU'S BEING          RR CDU'S NOT BEING
001264: 26,2024     4730               RCDU0BIT           =        BIT13                                 #        ZEROED                  ZEROED
001265:
001266:
001267:                                                                                                  #  BIT 12 FLAG 12
001268: 26,2024                        ANTENFLG           =        183D                                  #        RR ANTENNA MODE IS      RR ANTENNA IN MODE 1
001269: 26,2024     4731               ANTENBIT           =        BIT12                                 #        MODE 2
001270:
001271:
001272:                                                                                                  #  BIT 11 FLAG 12
001273: 26,2024                        REPOSMON           =        184D                                  #        REPOSITION MONITOR.     NO REPOSITION TAKING
001274: 26,2024     4732               REPOSBIT           =        BIT11                                 #        RR REPOSITION IS        PLACE
001275:                                                                                                  #        TAKING PLACE
001276:
001277:                                                                                                  #  BIT 10 FLAG 12
001278: 26,2024                        DESIGFLG           =        185D                                  #        RR DESIGNATE            RR DESIGNATE NOT
001279: 26,2024     4733               DESIGBIT           =        BIT10                                 #        REQUESTED OR IN         REQUESTED OR IN
001280:


001282:                                                                                                  #        PROGRESS                PROGRESS
001283:
001284:                                                                                                  #  BIT 9 FLAG 12
001285: 26,2024                        ALTSCALE           =        186D                                  #        LR ALTITUDE READING     LR ALTITUDE READING
001286: 26,2024     4734               ALTSCBIT           =        BIT9                                  #        IS ON HIGH SCALE        IS ON LOW SCALE
001287:
001288:
001289:                                                                                                  #  BIT 8 FLAG 12
001290: 26,2024                        LRVELFLG           =        187D                                  #        LR VELOCITY DATA        NO LR VELOCITY DATA
001291: 26,2024     4735               LRVELBIT           =        BIT8                                  #        FAIL                    FAIL
001292:
001293:
001294:                                                                                                  #  BIT 7 FLAG 12
001295: 26,2024                        RCDUFAIL           =        188D                                  #        RR CDU FAIL HAS         RR CDU FAIL OCCURRED
001296: 26,2024     4736               RCDUFBIT           =        BIT7                                  #        NOT OCCURRED
001297:
001298:
001299:                                                                                                  #  BIT 6 FLAG 12
001300: 26,2024                        LRPOSFLG           =        189D                                  #        LANDING RADAR           LR POSITION 1
001301: 26,2024     4737               LRPOSBIT           =        BIT6                                  #        POSITION 2
001302:
001303:
001304:                                                                                                  #  BIT 5 FLAG 12
001305: 26,2024                        LRALTFLG           =        190D                                  #        LR ALTITUDE DATA        NO LR ALTITUDE DATA
001306: 26,2024     4740               LRALTBIT           =        BIT5                                  #        FAIL.  COULD NOT BE     FAIL
001307:                                                                                                  #        READ SUCCESSFULLY.
001308:
001309:
001310:                                                                                                  #  BIT 4 FLAG 12
001311: 26,2024                        RRDATAFL           =        191D                                  #        RR DATA FAIL.           NO RR DATA FAIL.
001312: 26,2024     4741               RRDATABT           =        BIT4                                  #        DATA COULD NOT BE
001313:                                                                                                  #        READ SUCCESSFULLY
001314:
001315:
001316:                                                                                                  #  BIT 3 FLAG 12
001317: 26,2024                        RRRSFLAG           =        192D                                  #        RR RANGE READING        RR RANGE READING ON
001318: 26,2024     4742               RRRSBIT            =        BIT3                                  #        ON THE HIGH SCALE       THE LOW SCALE
001319:
001320:
001321:                                                                                                  #  BIT 2 FLAG 12
001322: 26,2024                        AUTOMODE           =        193D                                  #        RR NOT IN AUTO MODE.    RR IN AUTO MODE
001323: 26,2024     4743               AUTOMBIT           =        BIT2                                  #        AUTO MODE DISCRETE
001324:                                                                                                  #        IS NOT PRESENT
001325:
001326:
001327:                                                                                                  #  BIT 1 FLAG 12
001328: 26,2024                        TURNONFL           =        194D                                  #        RR TURN-ON SEQUENCE     NO RR TURN-ON
001329: 26,2024     4744               TURNONBT           =        BIT1                                  #        IN PROGRESS. (ZERO      SEQUENCE IN PROGRESS
001330:                                                                                                  #        CDU'S, FIX ANTENNA
001331:


001333:                                                                                                  #        MODE)
001334:
001335:
001336: 26,2024     0111               DAPBOOLS           EQUALS   FLGWRD13                              #        DIGITAL AUTOPILOT FLAGWORD
001337:
001338: 26,2024     0111               FLGWRD13           =        STATE      +13D                       #        (195 - 209)         WAS DAPBOOLS
001339:
001340:                                                                                                  #        (SET)                   (RESET)
001341:
001342:                                                                                                  #  BIT 15 FLAG 13
001343: 26,2024                        PULSEFLG           =        195D                                  #        MINIMUM IMPULSE         NOT IN MINIMUM
001344: 26,2024     4726               PULSES             =        BIT15                                 #        COMMAND MODE IN         IMPULSE COMMAND MODE
001345:                                                                                                  #        "ATT HOLD" (V76)        (V77)
001346:
001347:
001348:                                                                                                  #  BIT 14 FLAG 13
001349: 26,2024                        USEQRFLG           =        196D                                  #        GIMBAL UNUSABLE.        TRIM GIMBAL MAY BE
001350: 26,2024     4727               USEQRJTS           =        BIT14                                 #        USE JETS ONLY.          USED.
001351:
001352:
001353:                                                                                                  #  BIT 13 FLAG 13
001354: 26,2024                        CSMDKFLG           =        197D                                  #        CSM DOCKED. USE         CSM NOT DOCKED TO LM
001355: 26,2024     4730               CSMDOCKD           =        BIT13                                 #        BACKUP DAP
001356:
001357:
001358:                                                                                                  #  BIT 12 FLAG 13
001359: 26,2024                        OURRCFLG           =        198D                                  #        CURRENT DAP PASS        CURRENT DAP PASS IS
001360: 26,2024     4731               OURRCBIT           =        BIT12                                 #        IS RATE COMMAND         NOT RATE COMMAND
001361:
001362:
001363:                                                                                                  #  BIT 11 FLAG 13
001364: 26,2024                        ACC4-2FL           =        199D                                  #        4 JET X-AXIS TRANS-     2 JET X-AXIS TRANS-
001365: 26,2024     4732               ACC4OR2X           =        BIT11                                 #        LATION REQUESTED        LATION REQUESTED
001366:
001367:
001368:                                                                                                  #  BIT 10 FLAG 13
001369: 26,2024                        AORBTFLG           =        200D                                  #        B SYSTEM FOR X-         A SYSTEM FOR X-
001370: 26,2024     4733               AORBTRAN           =        BIT10                                 #        TRANSLATION             TRANSLATION PREFER'D
001371:
001372:
001373:                                                                                                  #  BIT 9 FLAG 13
001374: 26,2024                        XOVINFLG           =        201D                                  #        X-AXIS OVERRIDE         X-AXIS OVERRIDE OKAY
001375: 26,2024     4734               XOVINHIB           =        BIT9                                  #        LOCKED OUT
001376:
001377:                                                                                                  #  BIT 8 FLAG 13
001378: 26,2024                        DRIFTDFL           =        202D                                  #        ASSUME 0 OFFSET         USE OFFSET ACCELERA-
001379: 26,2024     4735               DRIFTBIT           =        BIT8                                  #        DRIFTING FLIGHT.        TION ESTIMATE
001380:


001383:


001385:                                                                                                  #  BIT 7 FLAG 13
001386: 26,2024                        RHCSCFLG           =        203D                                  #        NORMAL RHC SCALING      FINE RHC SCALING
001387: 26,2024     4736               RHCSCALE           =        BIT7                                  #        REQUESTED               REQUESTED
001388:
001389:
001390:                                                                                                  #  BIT 6 FLAG 13
001391: 26,2024                        ULLAGFLG           =        204D                                  #        ULLAGE REQUEST BY       NO INTERNAL ULLAGE
001392: 26,2024     4737               ULLAGER            =        BIT6                                  #        MISSION PROGRAM         REQUEST
001393:
001394:
001395:                                                                                                  #  BIT 5 FLAG 13
001396: 26,2024                        DBSL2FLG           =        205D                                  #        5 DEG DEADBAND          1 OR .3 DEG DEADBAND
001397: 26,2024     4740               DBSLECT2           =        BIT5                                  #        SELECTED BY CREW        SELECTED BY CREW
001398:                                                                                                  #                                (SEE BIT4 DAPBOOLS)
001399:
001400:
001401:                                                                                                  #  BIT 4 FLAG 13
001402: 26,2024                        DBSELFLG           =        206D                                  #        1 DEG DEADBAND          MIN DB SELECTED BY
001403: 26,2024     4741               DBSELECT           =        BIT4                                  #        SELECTED BY CREW        CREW (0.3 DEG)
001404:
001405:
001406:                                                                                                  #  BIT 3 FLAG 13
001407: 26,2024                        ACCOKFLG           =        207D                                  #        CONTROL AUTHORITY       RESTART OR FRESH ST.
001408: 26,2024     4742               ACCSOKAY           =        BIT3                                  #        VALUES FROM 1/ACCS      SINCE LAST 1/ACCS;
001409:                                                                                                  #        USABLE                  OUTPUTS SUSPECT.
001410:
001411:
001412:                                                                                                  #  BIT 2 FLAG 13
001413: 26,2024                        AUTR2FLG           =        208D                                  #        THESE FLAGS ARE USED TOGETHER TO INDICAT
001414: 26,2024     4743               AUTRATE2           =        BIT2                                  #        ASTRONAUT-CHOSEN KALCMANU MANEUVER RATES
001415:                                                                                                  #        (0,0)=(BIT2,BIT1)= 0.2 DEG/SEC
001416:                                                                                                  #        (0,1)=  0.5 DEG/SEC
001417:                                                                                                  #  BIT 1 FLAG 13
001418: 26,2024                        AUTR1FLG           =        209D                                  #        (1,0)=  2.0 DEG/SEC
001419: 26,2024     4744               AUTRATE1           =        BIT1                                  #        (1,1)= 10.0 DEG/SEC

End of include-file FLAGWORD_ASSIGNMENTS.agc.  Parent file is MAIN.agc


