
Source Code


000002:                                                                                                  ## Copyright:   Public domain.
000003:                                                                                                  ## Filename:    FRESH_START_AND_RESTART.agc
000004:                                                                                                  ## Purpose:     A section of Luminary revision 210.
000005:                                                                                                  ##              It is part of the source code for the Lunar Module's (LM)
000006:                                                                                                  ##              Apollo Guidance Computer (AGC) for Apollo 15-17.
000007:                                                                                                  ##              This file is intended to be a faithful transcription, except
000008:                                                                                                  ##              that the code format has been changed to conform to the
000009:                                                                                                  ##              requirements of the yaYUL assembler rather than the
000010:                                                                                                  ##              original YUL assembler.
000011:                                                                                                  ## Reference:   pp. 222-248
000012:                                                                                                  ## Assembler:   yaYUL
000013:                                                                                                  ## Contact:     Ron Burkey <info@sandroid.org>.
000014:                                                                                                  ## Website:     www.ibiblio.org/apollo/index.html
000015:                                                                                                  ## Mod history: 2016-11-17 JL   Created from Luminary131 version.
000016:                                                                                                  ##              2016-11-22 HG   Transcribed
000017:                                                                                                  ##              2016-12-07 HG   fix P00 -> POO
000018:                                                                                                  ##                              Change DNLADPOO -> DNLADP00
000019:                                                                                                  ##                                     COUNT* $$/POO -> COUNT* $$/P00
000020:                                                                                                  ##                                     R00 -> ROO
000021:                                                                                                  ##                                     R00AD -> ROOAD
000022:                                                                                                  ##                                     RENDN00 -> RENDNOO
000023:                                                                                                  ##                                     change POO -> P00 in some comments
000024:                                                                                                  ##              2016-12-11 HG  Fix operator CA BANKCALL -> TC BANKCALL
000025:


000027: 10,2000                                           BANK     10
000028: 05,2000                                           SETLOC   FRANDRES
000029: 05,2000                                           BANK
000030:
000031: 05,2454  E3,1400                                  EBANK=   LST1
000032:
000033: 05,2454                                           COUNT*   $$/START                              #  FRESH AND RESTART
000034: 05,2454           00004        SLAP1              INHINT                                         #  FRESH START.  COMES HERE FROM PINBALL.
000035: 05,2455           03107                           TC       STARTSUB                              #  SUBROUTINE DOES MOST OF THE WORK
000036:
000037: 05,2456           12463        STARTSW            TCF      SKIPSIM                               #  PATCH....TCF STARTSIM...FOR SIMULATION
000038: 05,2457           34727        STARTSIM           CAF      BIT14
000039: 05,2460           05076                           TC       FINDVAC
000040: 05,2461           77777        SIM2CADR           OCT      77777                                 #  PATCH 2CADR (AND EBANK DESIGNATION) OF
000041: 05,2462           77777                           OCT      77777                                 #  SIMULATION START ADDRESS.
000042:
000043: 05,2463           31035        SKIPSIM            CA       DSPTAB     +11D                       #  TURN OFF ALL DSPTAB +11D LAMPS
000044: 05,2464           74762                           MASK     BITS4&6                               #  EXCEPT THE GIMBAL LOCK & NO ATT ONLY ON
000045: 05,2465           64726                           AD       BIT15                                 #  REQUESTED FRESH START.
000046: 05,2466           55035                           TS       DSPTAB     +11D
000047:
000048: 05,2467           34746                           CA       ZERO
000049: 05,2470           55365                           TS       ERCOUNT
000050: 05,2471           54375                           TS       FAILREG
000051: 05,2472           54376                           TS       FAILREG    +1
000052: 05,2473           54377                           TS       FAILREG    +2
000053: 05,2474           54320                           TS       REDOCTR
000054:
000055: 05,2475           00006                           EXTEND
000056: 05,2476           01077                           WRITE    CHAN77                                #  ZERO CHANNEL 77
000057:
000058: 05,2477           44635                           CS       PRIO12
000059: 05,2500           55310                           TS       DSRUPTSW
000060:
000061: 05,2501           34727        DOFSTART           CAF      BIT14                                 #  INSURE ENGINE IS OFF.
000062: 05,2502           00006                           EXTEND
000063: 05,2503           01011                           WRITE    DSALMOUT
000064: 05,2504           44746                           CS       ZERO
000065: 05,2505           54055                           TS       THRUST
000066:
000067: 05,2506           34346        DOFSTRT1           CA       PRIO30
000068: 05,2507           55264                           TS       RESTREG                               #  SUPER BANK PRIORITY FOR DISPLAYS.
000069:
000070: 05,2510           34746                           CA       ZERO
000071: 05,2511           55245                           TS       ABDELV                                #  DAP INITIALIZATION
000072: 05,2512           54370                           TS       NVSAVE
000073: 05,2513           55071                           TS       EBANKTEM
000074: 05,2514           55257                           TS       CH5MASK
000075: 05,2515           55260                           TS       CH6MASK
000076:


000078: 05,2516           55273                           TS       PVALVEST                              #  FOR RCS FAILURE MONITOR
000079: 05,2517           55360                           TS       ERESTORE                              #  ***** MUST NOT BE REMOVED FROM DOFSTART
000080: 05,2520           55362                           TS       SMODE                                 #  ***** MUST NOT BE REMOVED FROM DOFSTART
000081: 05,2521           54333                           TS       DNLSTCOD                              #  SELECT POO DOWNLIST
000082: 05,2522           55321                           TS       AGSWORD                               #  ALLOW AGS INITIALIZATION
000083: 05,2523           55501                           TS       UPSVFLAG                              #  ZERO UPDATE STATE VECTOR REQUEST FLAGWRD
000084: 05,2524           00006                           EXTEND
000085: 05,2525           01005                           WRITE    CHAN5                                 #  TURN OFF RCS JETS.
000086: 05,2526           00006                           EXTEND
000087: 05,2527           01006                           WRITE    CHAN6                                 #  TURN OFF RCS JETS.
000088: 05,2530           00006                           EXTEND
000089: 05,2531           01012                           WRITE    CHAN12
000090: 05,2532           00006                           EXTEND
000091: 05,2533           01013                           WRITE    CHAN13
000092: 05,2534           00006                           EXTEND
000093: 05,2535           01014                           WRITE    CHAN14
000094: 05,2536           41035                           CS       DSPTAB     +11D
000095: 05,2537           74762                           MASK     BITS4&6
000096: 05,2540           10000                           CCS      A
000097: 05,2541           02545                           TC       +4
000098: 05,2542           34762                           CA       BITS4&6
000099: 05,2543           00006                           EXTEND                                         #  THE IMU WAS IN COARSE ALIGN IN GIMBAL
000100: 05,2544           05012                           WOR      CHAN12                                #  LOCK, SO PUT IT BACK INTO COARSE ALIGN.
000101: 05,2545           02645                 +4        TC       MR.KLEAN
000102:
000103: 05,2546           44746                           CS       ZERO
000104: 05,2547           55010                           TS       MODREG
000105:
000106: 05,2550           33377                           CAF      IM30INIF                              #  FRESH START IMU INITIALIZATION.
000107: 05,2551           55277                           TS       IMODES30
000108:
000109: 05,2552           33067                           CAF      MAXDB
000110: 05,2553           55343                           TS       DB
000111: 05,2554           34742                           CAF      FOUR
000112: 05,2555           55322                           TS       RATEINDX                              #  INITIALZE KALCMANU RATE
000113: 05,2556           33064                           CA       BOOLSTRT
000114: 05,2557           54111                           TS       DAPBOOLS
000115: 05,2560           35006                           CAF      EBANK6
000116: 05,2561           54003                           TS       EBANK
000117: 05,2562  E6,1400                                  EBANK=   HIASCENT
000118:
000119: 05,2562           33062                           CA       STIKSTRT
000120: 05,2563           55444                           TS       STIKSENS
000121: 05,2564           33063                           CA       RATESTRT
000122: 05,2565           55476                           TS       -RATEDB
000123: 05,2566           32000                           CAF      FULLAPS                               #  INITIALIZE MAXIMUM ASCENT MASS FOR USE
000124: 05,2567           55400                           TS       HIASCENT                              #    BY 1/ACCS UNTIL THE PAD LOAD IS DONE.
000125: 05,2570           44775                           CS       LOW9                                  #  LOAD DAP FILTER GAINS (PAD LOAD)
000126: 05,2571           55403                           TS       DKTRAP                                #     TO BEST PRESENT ESTIMATE OF GOODIES
000127: 05,2572           55406                           TS       LMTRAP                                #  .14 DEG
000128:


000130: 05,2573           33065                           CA       60DEC
000131: 05,2574           55405                           TS       DKKAOSN
000132: 05,2575           55410                           TS       LMKAOSN                               #  6 SEC GAIN FOR ALPHA
000133: 05,2576           34746                           CA       ZERO
000134: 05,2577           55407                           TS       LMOMEGAN                              #  UNITY GAIN
000135: 05,2600           34354                           CA       TEN
000136: 05,2601           55404                           TS       DKOMEGAN                              #  1 SEC GAIN FOR OMEGA
000137: 05,2602           34735                           CAF      BIT8                                  #  SET DOCKED DB TO 1.4 DEG.  MAY OVERWRITE
000138: 05,2603           55411                           TS       DKDB                                  #        WITH PAD LOAD.
000139: 05,2604           35017                           CAF      IM33INIT
000140: 05,2605           64737                           AD       BIT6                                  #  KEEP BOTH DAP AND ERROR-NEEDLES DISPLAY
000141: 05,2606           55300                           TS       IMODES33                              #    OFF UNTIL ICDU ZERO IS FINISHED.
000142:
000143: 05,2607           00006                           EXTEND                                         #  INITIALIZE SWITCHES ONLY ON FRESH START.
000144: 05,2610           33404                           DCA      SWINIT
000145: 05,2611           52075                           DXCH     STATE
000146: 05,2612           33405                           CA       SWINIT     +2
000147: 05,2613           54076                           TS       STATE      +2
000148: 05,2614           34730                           CA       REFSMBIT                              #  DO NOT ALTER REFSMFLG ON FRESH START.
000149: 05,2615           64732                           AD       NOP07BIT                              #               NODOP07
000150: 05,2616           70077                           MASK     STATE      +3
000151: 05,2617           63406                           AD       SWINIT     +3
000152: 05,2620           54077                           TS       STATE      +3
000153: 05,2621           00006                           EXTEND
000154: 05,2622           33410                           DCA      SWINIT     +4
000155: 05,2623           52101                           DXCH     STATE      +4
000156: 05,2624           00006                           EXTEND
000157: 05,2625           33412                           DCA      SWINIT     +6
000158: 05,2626           52103                           DXCH     STATE      +6
000159: 05,2627           33061                           CA       OCT6200                               #  CMOONFLAG, LMOONFLAG, SURFFLAG
000160: 05,2630           70104                           MASK     STATE      +8D
000161: 05,2631           63413                           AD       SWINIT     +8D
000162: 05,2632           54104                           TS       STATE      +8D
000163: 05,2633           33414                           CA       SWINIT     +9D
000164: 05,2634           54105                           TS       STATE      +9D
000165: 05,2635           34730                           CA       APSFLBIT                              #  DO NOT ALTER APSFLAG ON FRESH START.
000166: 05,2636           70106                           MASK     STATE      +10D
000167: 05,2637           63415                           AD       SWINIT     +10D
000168: 05,2640           54106                           TS       STATE      +10D
000169: 05,2641           33416                           CAF      SWINIT     +11D
000170: 05,2642           54107                           TS       STATE      +11D
000171:
000172: 05,2643           04626        ENDRSTRT           TC       POSTJUMP                              #  NOW IN ANOTHER BANK.
000173: 05,2644           03212                           CADR     DUMMYJOB   +2                         #  PICKS UP AT RELINT.   (DONT ZERO NEWJOB)
000174:
000175: 05,2645           00004        MR.KLEAN           INHINT
000176: 05,2646           00006                           EXTEND
000177: 05,2647           34746                           DCA      NEG0
000178: 05,2650           52754                           DXCH     -PHASE2
000179:


000181: 05,2651           00006        POOKLEAN           EXTEND
000182: 05,2652           34746                           DCA      NEG0
000183: 05,2653           52760                           DXCH     -PHASE4
000184: 05,2654           00006        V37KLEAN           EXTEND
000185: 05,2655           34746                           DCA      NEG0
000186: 05,2656           52762                           DXCH     -PHASE5
000187: 05,2657           00006        ABTKLEAN           EXTEND
000188: 05,2660           34746                           DCA      NEG0
000189: 05,2661           52756                           DXCH     -PHASE3
000190: 05,2662           00006                           EXTEND
000191: 05,2663           34746                           DCA      NEG0
000192: 05,2664           52752                           DXCH     -PHASE1
000193: 05,2665           00006                           EXTEND
000194: 05,2666           34746                           DCA      NEG0
000195: 05,2667           52764                           DXCH     -PHASE6
000196: 05,2670           00002                           TC       Q
000197:


000199:                                                                                                  #           COMES HERE FROM LOCATION 4000, GOJAM, RESTART ANY PROGRAMS WHICH MAY HAVE BEEN RUNNING AT THE TIME.
000200:
000201: 05,2671  E3,1400                                  EBANK=   LST1
000202: 05,2671           24320        GOPROG             INCR     REDOCTR                               #  ADVANCE RESTART COUNTER.
000203:
000204: 05,2672           22002                           LXCH     Q
000205: 05,2673           00006                           EXTEND
000206: 05,2674           04007                           ROR      SUPERBNK
000207: 05,2675           53433                           DXCH     RSBBQ
000208: 05,2676           31035                           CA       DSPTAB     +11D
000209: 05,2677           74741                           MASK     BIT4
000210: 05,2700           00006                           EXTEND
000211: 05,2701           12705                           BZF      +4
000212: 05,2702           64737                           AD       BIT6                                  #  SET ERROR COUNTER ENABLE
000213: 05,2703           00006                           EXTEND
000214: 05,2704           05012                           WOR      CHAN12                                #  ISS WAS IN COARSE ALIGN SO GO BACK TO
000215: 05,2705           03070        BUTTONS            TC       LIGHTSET
000216:
000217:                                                                                                  #                                             ERASCHK TEMPORARILY STORES THE CONTENST OF TWO ERASABLE LOCATIONS, X
000218:                                                                                                  #                                             AND X+1 INTO SKEEP5 AND SKEEP6. IT ALSO STORES X INTO SKEEP7 AND
000219:                                                                                                  #                                             ERESTORE. IF ERASCHK IS INTERRUPTED BY A RESTART, C(ERESTORE) SHOULD
000220:                                                                                                  #                                             EQUAL C(SKEEP7),AND BE A + NUMBER LESS THAN 2000 OCT. OTHERWISE
000221:                                                                                                  #                                             C(ERESTORE) SHOULD EQUAL +0.
000222:
000223: 05,2706           34341                           CAF      HI5
000224: 05,2707           71360                           MASK     ERESTORE
000225: 05,2710           00006                           EXTEND
000226: 05,2711           12713                           BZF      +2                                    #  IF ERESTORE NOT = +0 OR +N LESS THAN 2K,
000227: 05,2712           13105                           TCF      NONAVKEY   +3                         #  DO FRESH START - E MEMORY MIGHT BE BAD
000228: 05,2713           41360                           CS       ERESTORE
000229: 05,2714           00006                           EXTEND
000230: 05,2715           12732                           BZF      DORSTART                              #  = +0 CONTINUE WITH RESTART.
000231: 05,2716           61377                           AD       SKEEP7
000232: 05,2717           00006                           EXTEND
000233: 05,2720           12722                           BZF      +2                                    #  = SKEEP7, RESTORE E MEMORY.
000234: 05,2721           13105                           TCF      NONAVKEY   +3                         #  DO FRESH START - E MEMORY MIGHT BE BAD
000235: 05,2722           31374                           CA       SKEEP4
000236: 05,2723           54003                           TS       EBANK                                 #  EBANK OF E MEMORY THAT WAS UNDER TEST.
000237: 05,2724           00006                           EXTEND                                         #  (NOT DXCH SINCE THIS MIGHT HAPPEN AGAIN)
000238: 05,2725           31376                           DCA      SKEEP5
000239: 05,2726           51377                           INDEX    SKEEP7
000240: 05,2727           52001                           DXCH     0000                                  #  E MEMORY RESTORED.
000241: 05,2730           34746                           CA       ZERO
000242: 05,2731           55360                           TS       ERESTORE
000243: 05,2732           03107        DORSTART           TC       STARTSUB                              #  DO INITIALIZATION AFTER ERASE RESTORE.
000244:
000245: 05,2733           44727        SETINFL            CS       INTFLBIT
000246: 05,2734           70106                           MASK     FLGWRD10
000247: 05,2735           54106                           TS       FLGWRD10


000249: 05,2736           33401                           CA       9,6,4                                 #  LEAVE PROG ALARM, GIMBAL LOCK, NO ATT
000250: 05,2737           71035                           MASK     DSPTAB     +11D                       #  LAMPS INTACT ON HARDWARE RESTART
000251: 05,2740           64726                           AD       BIT15
000252: 05,2741           57035                           XCH      DSPTAB     +11D
000253: 05,2742           33365                           CAF      IFAILINH                              #  LEAVE IMU FAILURE INHIBITS INTACT ON
000254: 05,2743           71277                           MASK     IMODES30                              #  HARDWARE RESTART, RESET ALL FAILURE
000255: 05,2744           63400                           AD       IM30INIR                              #  CODES.
000256: 05,2745           55277                           TS       IMODES30
000257:
000258: 05,2746           31321                           CA       AGSWORD                               #  BE SURE OF CORRECT DOWNLTST
000259: 05,2747           54333                           TS       DNLSTCOD
000260:
000261: 05,2750           34741                           CA       BIT4                                  #  TURN ON THROTTLE COUNTER
000262: 05,2751           00006                           EXTEND
000263: 05,2752           05014                           WOR      CHAN14                                #  TURN ON THRUST DRIVE
000264: 05,2753           40101                           CS       FLAGWRD5
000265: 05,2754           74736                           MASK     ENGONBIT
000266: 05,2755           10000                           CCS      A
000267: 05,2756           12763                           TCF      +5
000268: 05,2757           34730                           CAF      BIT13
000269: 05,2760           00006                           EXTEND
000270: 05,2761           05011                           WOR      DSALMOUT                              #  TURN ENGINE ON
000271: 05,2762           12777                           TCF      GOPROG3
000272: 05,2763           34727                 +5        CAF      BIT14
000273: 05,2764           00006                           EXTEND
000274: 05,2765           05011                           WOR      DSALMOUT                              #  TURN ENGINE OFF.
000275: 05,2766           12777                           TCF      GOPROG3
000276:
000277: 05,2767           00004        ENEMA              INHINT
000278: 05,2770           03116                           TC       STARTSB1
000279: 05,2771           12773                           TCF      GOPROG2A
000280: 05,2772           03156        GOPROG2            TC       STARTSB2
000281: 05,2773           03070        GOPROG2A           TC       LIGHTSET
000282: 05,2774           44727                           CS       INTFLBIT                              #  CLEAR INTEGER IN PROGRESS BIT
000283: 05,2775           70106                           MASK     FLGWRD10
000284: 05,2776           54106                           TS       FLGWRD10
000285:
000286: 05,2777           34747        GOPROG3            CAF      NUMGRPS                               #  VERIFY PHASE TABLE AGREEMENTS
000287: 05,3000           54161        PCLOOP             TS       MPAC       +5
000288: 05,3001           60000                           DOUBLE
000289: 05,3002           00006                           EXTEND
000290: 05,3003           50000                           INDEX    A
000291: 05,3004           30752                           DCA      -PHASE1                               #  COMPLEMENT INTO A, DIRECT INTO L.
000292: 05,3005           00006                           EXTEND
000293: 05,3006           06001                           RXOR     LCHAN                                 #  RESULT MUST BE -0 FOR AGREEMENT.
000294: 05,3007           10000                           CCS      A
000295: 05,3010           13056                           TCF      PTBAD                                 #  RESTART FAILURE.
000296: 05,3011           13056                           TCF      PTBAD
000297: 05,3012           13056                           TCF      PTBAD
000298:


000300: 05,3013           10161                           CCS      MPAC       +5                         #  PROCESS ALL RESTART GROUPS.
000301: 05,3014           13000                           TCF      PCLOOP
000302:
000303: 05,3015           54162                           TS       MPAC       +6                         #  SET TO +0.
000304: 05,3016           05317                           TC       MMDSPLAY                              #  DISPLAY MAJOR MODE
000305:
000306: 05,3017           00004                           INHINT                                         #  RELINT DONE IN MMDSPLAY
000307:
000308: 05,3020           44727                           CS       DIDFLBIT                              #  CLEAR DIDFLAG IN ORDER TO FORCE R10 TO
000309: 05,3021           70075                           MASK     FLAGWRD1                              #  RE-INITIALIZE ITSELF IF IT HAD BEEN
000310: 05,3022           54075                           TS       FLAGWRD1                              #  OPERATION AT THE TIME OF THE RESTART.
000311:
000312: 05,3023           44731                           CS       RODFLBIT                              #  CLEAR RODFLAG.  IF P66 IS IN OPERATION
000313: 05,3024           70075                           MASK     FLAGWRD1                              #       IT WILL RE-INITIALIZE ITSELF AND
000314: 05,3025           54075                           TS       FLAGWRD1                              #       CONTINUE.
000315:
000316: 05,3026           44732                           CS       P21FLBIT                              #  CLEAR P21FLAG SO THAT P21 WILL COMPUTE
000317: 05,3027           70074                           MASK     FLAGWRD0                              #  NEW BASE STATE VECTORS.
000318: 05,3030           54074                           TS       FLAGWRD0
000319:
000320: 05,3031           34747                           CAF      NUMGRPS                               #  SEE IF ANY GROUPS RUNNING.
000321: 05,3032           54161        NXTRST             TS       MPAC       +5
000322: 05,3033           60000                           DOUBLE
000323: 05,3034           50000                           INDEX    A
000324: 05,3035           10752                           CCS      PHASE1
000325: 05,3036           13040                           TCF      PACTIVE                               #  PNZ - GROUP ACTIVE.
000326: 05,3037           13045                           TCF      PINACT                                #  +0 - GROUP NOT RUNNING.
000327:
000328: 05,3040           54154        PACTIVE            TS       MPAC
000329: 05,3041           24154                           INCR     MPAC                                  #  ABS OF PHASE.
000330: 05,3042           24162                           INCR     MPAC       +6                         #  INDICATE GROUP DEMANDS PRESENT.
000331: 05,3043           04607                           TC       BANKCALL
000332: 05,3044           03530                           CADR     RESTARTS
000333: 05,3045           10161        PINACT             CCS      MPAC       +5                         #  PROCESS ALL RESTART GROUPS.
000334: 05,3046           13032                           TCF      NXTRST
000335:
000336: 05,3047           10162                           CCS      MPAC       +6                         #  NO, CHECK PHASE ACTIVITY FLAG
000337: 05,3050           12643                           TCF      ENDRSTRT                              #  PHASE ACTIVE
000338: 05,3051           34726                           CAF      BIT15                                 #  IS MODE -0
000339: 05,3052           71010                           MASK     MODREG
000340: 05,3053           00006                           EXTEND
000341: 05,3054           16011                           BZF      CALGOPOO                              #  NO
000342: 05,3055           12643                           TCF      ENDRSTRT                              #  YES
000343: 05,3056           05571        PTBAD              TC       ALARM                                 #  SET ALARM TO SHOW PHASE TABLE FAILURE.
000344: 05,3057           01107                           OCT      1107
000345:
000346: 05,3060           12506                           TCF      DOFSTRT1
000347:


000349:                                                                                                  #  DO NOT USE GOPROG2 OR ENEMA WITHOUT CONSULTING POOH PEOPLE
000350:
000351: 05,3061     4730               OCT10000           =        BIT13
000352: 05,3061     4346               OCT30000           =        PRIO30
000353: 05,3061           06200        OCT6200            OCT      6200                                  #  SUFBIT, CMOONBIT, LOONBIT FOR SWINITS
000354: 05,3062           32321        STIKSTRT           DEC      0.825268                              #  20 D/S MAXIMUM COMPANDED RATE
000355: 05,3063           77445        RATESTRT           DEC      -218       B-14
000356: 05,3064           21322        BOOLSTRT           OCT      21322
000357: 05,3065           00074        60DEC              DEC      60         B-14
000358: 05,3066           20100        RSFLGBTS           OCT      20100
000359: 05,3067           03434        MAXDB              OCTAL    03434                                 #  5 DEG ATTITUDE DEADBAND, SCALED AT 45.
000360:
000361: 05,3070           34740        LIGHTSET           CAF      BIT5                                  #  CHECK FOR MARK REJECT AND ERROR RESET
000362: 05,3071           00006                           EXTEND
000363: 05,3072           02016                           RAND     NAVKEYIN
000364: 05,3073           00006                           EXTEND
000365: 05,3074           13102                           BZF      NONAVKEY                              #  NO MARK REJECT
000366: 05,3075           00006                           EXTEND
000367: 05,3076           00015                           READ     MNKEYIN                               #  CHECK IF KEYS 2M AND 5M ON
000368: 05,3077           63376                           AD       -ELR                                  #  MAIN DSKY KEYCODE(BITS 1-5)
000369: 05,3100           00006                           EXTEND
000370: 05,3101           13103                           BZF      +2
000371:
000372: 05,3102           00002        NONAVKEY           TC       Q
000373:
000374: 05,3103           03107                           TC       STARTSUB
000375: 05,3104           12501                           TCF      DOFSTART
000376: 05,3105           03107                 +3        TC       STARTSUB
000377: 05,3106           12506                           TCF      DOFSTRT1                              #  DO FRESH START BUT DON'T TOUCH ENGINE
000378:


000380:                                                                                                  #           INITIALIZATION COMMON TO BOTH FRESH START AND RESTART.
000381:
000382: 05,3107  E6,1536                                  EBANK=   AOSQ
000383: 05,3107           33366        STARTSUB           CAF      LDNPHAS1                              #  SET POINTER SO NEXT 20MS DOWNRUPT WILL
000384: 05,3110           54335                           TS       DNTMGOTO                              #  CAUSE THE CURRENT DOWNLIST TO BE
000385:                                                                                                  #  INTERRUPTED AND START SENDING FROM THE
000386:                                                                                                  #  BEGINNING OF THE CURRENT DOWNLIST.
000387: 05,3111           34737                           CAF      BIT6
000388: 05,3112           00006                           EXTEND
000389: 05,3113           02033                           RAND     CHAN33
000390: 05,3114           63402                           AD       RMODINIT
000391: 05,3115           54110                           TS       RADMODES
000392:
000393: 05,3116           34724        STARTSB1           CAF      POSMAX
000394: 05,3117           54026                           TS       TIME3
000395: 05,3120           67767                           AD       MINUS2
000396: 05,3121           54027                           TS       TIME4
000397: 05,3122           67770                           AD       NEGONE
000398: 05,3123           54030                           TS       TIME5
000399:
000400: 05,3124           35006                           CAF      EBANK6
000401: 05,3125           54003                           TS       EBANK
000402:
000403: 05,3126           34724                           CAF      POSMAX                                #  DISABLE TIME6 CLOCK.  JUST IN CASE A T6
000404: 05,3127           55466                           TS       T6NEXT                                #    RUPT IS ALREADY IN THE PRIORITY CHAIN,
000405: 05,3130           00006                           EXTEND                                         #    ENSURE THAT IT'S INPUTS WILL RENDER IT
000406: 05,3131           03013                           WAND     CHAN13                                #    INEFFECTUAL.
000407: 05,3132           34746                           CAF      ZERO
000408: 05,3133           55465                           TS       NXT6ADR
000409: 05,3134           55472                           TS       NEXTP
000410:
000411: 05,3135           44742                           CS       ACCSOKAY
000412: 05,3136           70111                           MASK     DAPBOOLS
000413: 05,3137           54111                           TS       DAPBOOLS
000414:
000415: 05,3140           00006                           EXTEND                                         #  SET T5RUPT FOR DAPIDLER PROGRAM.
000416: 05,3141           33364                           DCA      IDLEADR
000417: 05,3142           53263                           DXCH     T5ADR
000418:
000419: 05,3143           40107                           CS       FLGWRD11                              #  IF R12 IS PERMITTED, ENSURE THAT NEXT
000420: 05,3144           74726                           MASK     LRBYBIT                               #   RADAR READS ARE NOT USED
000421: 05,3145           00006                           EXTEND
000422: 05,3146           13156                           BZF      STARTSB2                              #  R12 OFF
000423:
000424: 05,3147           24006                           INCR     BBANK                                 #  SET EBANK TO 7
000425: 05,3150  E7,1674                                  EBANK=   STILBADH
000426: 05,3150           11674                           CCS      STILBADH                              #  IF STILBADH>0, NEXT READ WILL BE IGNORED
000427: 05,3151           13153                           TCF      +2
000428: 05,3152           25674                           INCR     STILBADH                              #  SET STILBADH TO IGNORE NEXT READ
000429:


000431:
000432: 05,3153           11675                 +2        CCS      STILBADV
000433: 05,3154           13156                           TCF      STARTSB2                              #  IF STILBADV>0, NEXT READ WILL BE IGNORED
000434: 05,3155           25675                           INCR     STILBADV                              #  SET STILBADV TO IGNORE NEXT READ
000435:
000436: 05,3156           33375        STARTSB2           CAF      OCT30001                              #  DURING SOFTWARE RESTART, DO NOT DISTURB
000437: 05,3157           00006                           EXTEND                                         #  ENGINE ON, OFF AND ISS WARNING.
000438: 05,3160           03011                           WAND     DSALMOUT
000439:
000440: 05,3161           43371                           CS       OCT32001
000441: 05,3162           70110                           MASK     RADMODES
000442: 05,3163           54110                           TS       RADMODES
000443: 05,3164           33373                           CAF      OCT27470                              #  DURING SOFTWARE RESTART, DO NOT DISTURB
000444: 05,3165           00006                           EXTEND                                         #  IMU FLAGS. (COARSE ALIGN ENABLE, ZERO
000445: 05,3166           03012                           WAND     CHAN12                                #  IMU CDUS, ENABLE IMU COUNTER) AND GIMBAL
000446:                                                                                                  #  TRIM DRIVES. LEAVE RR LOCKON ENABLE
000447:                                                                                                  #  ALONE.
000448:
000449: 05,3167           44742                           CS       R12RDBIT                              #  R12RDFLAG CLEARED TO ESCAPE FROM POSSIBLE
000450: 05,3170           70107                           MASK     FLGWRD11                              #   "CCS NEWJOB" LOOP IN VUPDAT SEC. OF R12
000451: 05,3171           54107                           TS       FLGWRD11
000452:
000453: 05,3172           44741                           CS       NORRMBIT                              #  ENABLE R25
000454: 05,3173           70101                           MASK     FLAGWRD5
000455: 05,3174           54101                           TS       FLAGWRD5
000456:
000457: 05,3175           44732                           CS       R77FLBIT                              #  CLEAR R77FLAG
000458: 05,3176           70101                           MASK     FLAGWRD5
000459: 05,3177           54101                           TS       FLAGWRD5
000460: 05,3200           33374                           CAF      OCT74160                              #  DURING SOFTWARE RESTART, DO NOT DISTURB
000461: 05,3201           00006                           EXTEND                                         #  TELEMETRY FLAGS, RESET TRAP FLAGS, AND
000462: 05,3202           03013                           WAND     CHAN13                                #  ENABLE T6RUPT FLAG.
000463:
000464: 05,3203           34731                           CAF      BIT12                                 #  REENABLE RUPT10 (RUPT QUICKLY
000465: 05,3204           00006                           EXTEND                                         #    RESUMES EXCEPT DURING P64)
000466: 05,3205           05013                           WOR      CHAN13
000467:
000468: 05,3206           34762                           CAF      OCT50                                 #  DURING SOFTWARE RESTART, DO NOT DISTURB
000469: 05,3207           00006                           EXTEND                                         #  GYRO ENABLE OR THRUST ENABLE
000470: 05,3210           03014                           WAND     CHAN14
000471:
000472: 05,3211           46130                           CS       OCT40001                              #  TO TURN OFF SUPER-KEYRELEASE LIGHT:
000473: 05,3212           71035                           MASK     DSPTAB     +11D                       #  TURN OFF BITS 15 AND 1 IF THEY WERE ON;
000474: 05,3213           64726                           AD       BIT15                                 #  NOW SET BIT 15 TO TRIGGER DSKY UPDATE
000475: 05,3214           55035                           TS       DSPTAB     +11D
000476:
000477: 05,3215  E3,1400                                  EBANK=   LST1
000478: 05,3215           35000                           CAF      STARTEB
000479: 05,3216           54003                           TS       EBANK                                 #  SET FOR E3
000480:
000481: 05,3217           34725                           CAF      NEG1/2                                #  INITIALIZE WAITLIST DELTA-TS.
000482:


000484: 05,3220           55407                           TS       LST1       +7
000485: 05,3221           55406                           TS       LST1       +6
000486: 05,3222           55405                           TS       LST1       +5
000487: 05,3223           55404                           TS       LST1       +4
000488: 05,3224           55403                           TS       LST1       +3
000489: 05,3225           55402                           TS       LST1       +2
000490: 05,3226           55401                           TS       LST1       +1
000491: 05,3227           55400                           TS       LST1
000492:
000493: 05,3230           45240                           CS       ENDTASK
000494: 05,3231           55410                           TS       LST2
000495: 05,3232           55412                           TS       LST2       +2
000496: 05,3233           55414                           TS       LST2       +4
000497: 05,3234           55416                           TS       LST2       +6
000498: 05,3235           55420                           TS       LST2       +8D
000499: 05,3236           55422                           TS       LST2       +10D
000500: 05,3237           55424                           TS       LST2       +12D
000501: 05,3240           55426                           TS       LST2       +14D
000502: 05,3241           55430                           TS       LST2       +16D
000503: 05,3242           45241                           CS       ENDTASK    +1
000504: 05,3243           55411                           TS       LST2       +1
000505: 05,3244           55413                           TS       LST2       +3
000506: 05,3245           55415                           TS       LST2       +5
000507: 05,3246           55417                           TS       LST2       +7
000508: 05,3247           55421                           TS       LST2       +9D
000509: 05,3250           55423                           TS       LST2       +11D
000510: 05,3251           55425                           TS       LST2       +13D
000511: 05,3252           55427                           TS       LST2       +15D
000512: 05,3253           55431                           TS       LST2       +17D
000513:
000514: 05,3254           44746                           CS       ZERO                                  #  MAKE ALL EXECUTIVE REGISTER SETS
000515: 05,3255           54167                           TS       PRIORITY                              #  AVAILABLE.
000516: 05,3256           54203                           TS       PRIORITY   +12D
000517: 05,3257           54217                           TS       PRIORITY   +24D
000518: 05,3260           54233                           TS       PRIORITY   +36D
000519: 05,3261           54247                           TS       PRIORITY   +48D
000520: 05,3262           54263                           TS       PRIORITY   +60D
000521: 05,3263           54277                           TS       PRIORITY   +72D
000522: 05,3264           54313                           TS       PRIORITY   +84D
000523:
000524: 05,3265           55310                           TS       DSRUPTSW
000525: 05,3266           54067                           TS       NEWJOB                                #  SHOWS NO ACTIVE JOBS.
000526:
000527: 05,3267           33370                           CAF      VAC1ADRC                              #  MAKE ALL VAC AREAS AVAILABLE.
000528: 05,3270           54400                           TS       VAC1USE
000529: 05,3271           63372                           AD       LTHVACA
000530: 05,3272           54454                           TS       VAC2USE
000531: 05,3273           63372                           AD       LTHVACA
000532: 05,3274           54530                           TS       VAC3USE
000533: 05,3275           63372                           AD       LTHVACA
000534:


000536: 05,3276           54604                           TS       VAC4USE
000537: 05,3277           63372                           AD       LTHVACA
000538: 05,3300           54660                           TS       VAC5USE
000539:
000540: 05,3301           34354                           CAF      TEN
000541: 05,3302           54154        DSPOFF             TS       MPAC                                  #  R1, R2, R3).
000542: 05,3303           44731                           CS       BIT12
000543: 05,3304           50154                           INDEX    MPAC
000544: 05,3305           55022                           TS       DSPTAB
000545: 05,3306           10154                           CCS      MPAC
000546: 05,3307           13302                           TCF      DSPOFF
000547:
000548: 05,3310           55323                           TS       DELAYLOC
000549: 05,3311           55324                           TS       DELAYLOC   +1
000550: 05,3312           55325                           TS       DELAYLOC   +2
000551: 05,3313           54045                           TS       INLINK
000552: 05,3314           54775                           TS       DSPCNT
000553: 05,3315           55041                           TS       CADRSTOR
000554: 05,3316           55012                           TS       REQRET
000555: 05,3317           55014                           TS       CLPASS
000556: 05,3320           55011                           TS       DSPLOCK
000557: 05,3321           55017                           TS       MONSAVE                               #  KILL MONITOR
000558: 05,3322           55020                           TS       MONSAVE1
000559: 05,3323           55000                           TS       VERBREG
000560: 05,3324           55001                           TS       NOUNREG
000561: 05,3325           55042                           TS       DSPLIST
000562: 05,3326           55307                           TS       MARKSTAT
000563: 05,3327           55043                           TS       EXTVBACT                              #  MAKE EXTENDED VERBS AVAILABLE
000564: 05,3330           55301                           TS       IMUCADR
000565: 05,3331           55302                           TS       OPTCADR
000566: 05,3332           55303                           TS       RADCADR
000567: 05,3333           55304                           TS       ATTCADR
000568: 05,3334           55311                           TS       LGYRO
000569: 05,3335           55776                           TS       OLDAGS                                #  ZERO OUT LAST MARKTIME SENT TO AGS
000570: 05,3336           55777                           TS       OLDAGS     +1                         #  BY P20
000571: 05,3337           54100                           TS       FLAGWRD4                              #  KILL INTERFACE DISPLAYS
000572: 05,3340           34751                           CAF      NOUTCON
000573: 05,3341           55015                           TS       NOUT
000574:
000575: 05,3342           34727                           CAF      BIT14
000576: 05,3343           55073                           TS       AGSCODE                               #  AGSCODE DOWNLIST CODE = RESET CONFIG
000577:
000578: 05,3344           34737                           CAF      BIT6
000579: 05,3345           71300                           MASK     IMODES33                              #  LEAVE BIT 6 UNCHANGED
000580: 05,3346           65017                           AD       IM33INIT                              #  NO PIP OR TM FAILS.BIT6=0 IN THIS WORD.
000581: 05,3347           55300                           TS       IMODES33
000582:
000583: 05,3350           33367                           CAF      LESCHK                                #  SELF CHECK GO-TO REGISTER.
000584: 05,3351           55361                           TS       SELFRET
000585:


000587:
000588: 05,3352           44351                           CS       VD1
000589: 05,3353           54776                           TS       DSPCOUNT
000590:
000591: 05,3354           00006                           EXTEND                                         #  SET UP JOB TO DO 1/ACCS AND TO ZERO
000592: 05,3355           22070                           QXCH     RUPTREG1                              #  THE OFFSET ACCELERATION ESTIMATE.
000593:
000594: 05,3356           37736                           CAF      PRIO27
000595: 05,3357           05063                           TC       NOVAC
000596: 05,3360  E6,1536                                  EBANK=   AOSQ
000597: 05,3360           03576 42066                     2CADR    1/ACCSET
000598:
000599:
000600: 05,3362           00070                           TC       RUPTREG1                              #  RETURN TO CALLER
000601:
000602:
000603: 05,3363  E6,1536                                  EBANK=   AOSQ
000604: 05,3363           02037 34066  IDLEADR            2CADR    DAPIDLER
000605:
000606: 05,3365           00435        IFAILINH           OCT      435
000607: 05,3366           03524        LDNPHAS1           GENADR   DNPHASE1
000608: 05,3367           03341        LESCHK             GENADR   SELFCHK
000609: 05,3370           00400        VAC1ADRC           ADRES    VAC1USE
000610: 05,3371           32001        OCT32001           OCT      32001
000611: 05,3372           00054        LTHVACA            DEC      44         B-14
000612:
000613: 05,3373           27470        OCT27470           OCT      27470
000614: 05,3374           74160        OCT74160           OCT      74160
000615: 05,3375           30001        OCT30001           OCT      30001
000616: 05,3376     5000               STARTEB            EQUALS   EBANK3
000617: 05,3376     4747               NUMGRPS            EQUALS   FIVE
000618: 05,3376           77755        -ELR               OCT      -22                                   #  -ERROR LIGHT RESET KEY CODE.
000619: 05,3377           37411        IM30INIF           OCT      37411                                 #  INHIBITS IMU FAIL FOR 5 SEC AND PIP ISSW
000620: 05,3400           37000        IM30INIR           OCT      37000
000621: 05,3401     5017               IM33INIT           =        PRIO16                                #  NO PIP OR TM FAIL SIGNALS.
000622: 05,3401           00450        9,6,4              OCT      450
000623: 05,3402           00102        RMODINIT           OCT      00102
000624: 05,3403           00000        SWINIT             OCT      0
000625: 05,3404           00000                           OCT      0
000626: 05,3405           00000                           OCT      0
000627: 05,3406           00000                           OCT      0
000628: 05,3407           00000                           OCT      0
000629: 05,3410           00000                           OCT      0
000630: 05,3411           00000                           OCT      0
000631: 05,3412           00100                           OCT      00100
000632:
000633: 05,3413           00000                           OCT      0
000634: 05,3414           00000                           OCT      0
000635: 05,3415           00000                           OCT      0
000636: 05,3416           40000                           OCT      40000                                 #  BIT 15 = LRBYPASS.
000637:


000639:                                                                                                  #  PROGRAM NAME    GOTOPOOH                   ASSEMBLY       SUNDANCE
000640:                                                                                                  #  LOG SECTION     FRESH START AND RESTART
000641:
000642:                                                                                                  #  FUNCTIONAL DESCRIPTION
000643:
000644:                                                                                                  #        FLASH V 37 ON DSKY %MM CHANGE REQUEST "
000645:
000646:                                                                                                  #  INPUT/OUTPUT INFORMATION
000647:
000648:                                                                                                  #        A. CALLING SEQUENCE        TC GOTOPOOH
000649:
000650:                                                                                                  #        B. ERASABLE INITIALIZATION       NONE
000651:
000652:                                                                                                  #        C. OUTPUT FLASH V 37 ON DSKY
000653:
000654:                                                                                                  #        D. DEBRIS       L
000655:
000656:                                                                                                  #  PROGRAM ANALYSIS
000657:
000658:                                                                                                  #        A. SUBROUTINES CALLED PRIODSPR,  LINUS
000659:
000660:                                                                                                  #        B. NORMAL EXIT        TCF ENDOFJOB
000661:
000662:                                                                                                  #        C. ALARM AND ABORT EXITS       NONE
000663:
000664:    6001                                           BLOCK    03
000665:    6000                                           SETLOC   FFTAG5
000666:    6000                                           BANK
000667:
000668:    6001                                           COUNT*   $$/P00
000669:    6001           34755        GOTOPOOH           CAF      OCT33                                 #  4.33 SPOT FOR GOPOOFIX
000670:    6002           54001                           TS       L
000671:    6003           40000                           COM
000672:    6004           52760                           DXCH     -PHASE4
000673:
000674:    6005           04626                           TC       POSTJUMP
000675:    6006           10040                           CADR     GOPOOFIX
000676:    6007           00024        OCT24              MM       20         B-14
000677:    6010           00031        OCT31              MM       25         B-14
000678:
000679:
000680:
000681:
000682:    6011           34346        CALGOPOO           CAF      PRIO30
000683:    6012           05063                           TC       NOVAC
000684:    6013  E7,1471                                  EBANK=   WHOCARES
000685:    6013           06001 06067                     2CADR    GOTOPOOH
000686:    6015           04626                           TC       POSTJUMP
000687:    6016           03212                           CADR     DUMMYJOB   +2
000688:


000690: 20,2004                                           BANK     20
000691: 04,2000                                           SETLOC   VERB37
000692: 04,2000                                           BANK
000693:
000694: 04,2040                                           COUNT*   $$/P00                                #  VERB 37 AND P00 IN BANK 4.
000695: 04,2040           05520        GOPOOFIX           TC       DOWNFLAG                              #  ALLOW X-AXIS OVERRIDE
000696: 04,2041           00311                           ADRES    XOVINFLG
000697:
000698: 04,2042           05520                           TC       DOWNFLAG                              #  INSURE THAT ULLAGE IS OFF
000699: 04,2043           00314                           ADRES    ULLAGFLG
000700:
000701: 04,2044           05500                           TC       CLEARMRK   +2                         #  RELEASE MARK DISPLAY SYSTEM.
000702: 04,2045           32053                           CAF      V37N99
000703: 04,2046           04607                           TC       BANKCALL
000704: 04,2047           20471                           CADR     GOFLASH
000705: 04,2050           12045                           TCF      -3
000706: 04,2051           12045                           TCF      -4
000707: 04,2052           12045                           TCF      -5
000708:
000709: 04,2053           11343        V37N99             VN       3799
000710:


000712:                                                                                                  #  PROGRAM NAME          V37                     ASSEMBLY SUNDANCE
000713:
000714:                                                                                                  #  LOG SECTION     FRESH START AND RESTART
000715:
000716:                                                                                                  #  FUNCTIONAL DESCRIPTION
000717:
000718:                                                                                                  #        1. CHECK IF NEW PROGRAM ALLOWED. IF BIT 1 OF FLAGWRD2(NODOFLAG) IS SET, AN ALARM 1520 IS CALLED.
000719:                                                                                                  #        2. CHECK FOR VALIDITY OF PROGRAM SELECTED. IF AN INVALID PROGRAM  IS SELECTED, THE OPERATOR ERROR LIGHT IS
000720:                                                                                                  #           SET AND CURRENT ACTIVITY, IF ANY, CONTINUES.
000721:                                                                                                  #        3. SERVICER IS TERMINATED IF IT HAS BEEN RUNNING.
000722:                                                                                                  #        4. INSTALL IS EXECUTED TO AVOID INTERRUPTING INTEGRATION.
000723:                                                                                                  #        5. THE ENGINE IS TURNED OFF AND THE DAP IS INITIALIZED FOR COAST.
000724:                                                                                                  #        6. TRACK AND UPDATE FLAGS ARE SET TO ZERO.
000725:                                                                                                  #        7. DISPLAY SYSTEM IS RELEASED.
000726:                                                                                                  #        8. THE FOLLOWING ARE PERFORMED FOR EACH OF THE THREE CASES.
000727:                                                                                                  #           A. PROGRAM SELECTED IS P00.
000728:                                                                                                  #              1. RENDEZVOUS AND P25 FLAGS ARE RESET.(KILL P20 AND P25)
000729:                                                                                                  #              2. STATINT1     IS SCHEDULED BY SETTING RESTART GROUP 2.
000730:                                                                                                  #              3. MAJOR MODE 00 IS STORED IN THE MODE REGISTER (MODREG).
000731:                                                                                                  #              4. SUPERBANK 3 IS SELECTED.
000732:                                                                                                  #              5. NODOFLAG IS RESET.
000733:                                                                                                  #              6. ALL RESTART GROUPS EXCEPT GROUP 2 ARE CLEARED. CONTROL ISTRANSFERRED TO RESTART PROGRAM (GOPROG2)
000734:                                                                                                  #                 WHICH CAUSES ALL CURRENT ACTIVITY TO BE DISCONTINUED AND A 9 MINUTE INTEGRATION CYCLE TO BE
000735:                                                                                                  #                 INITIATED.
000736:                                                                                                  #           B. PROGRAM SELECTES IS P20 OR P25.
000737:                                                                                                  #              1. IF THE CURRENT MAJOR MODE IS THE SAME AS THE SELECTED NEWPROGRAM, THE PROGRAM IS RE-INITIALIZED
000738:                                                                                                  #                 VIA V37XEQ, ALL RESTART GROUPS, EXCEPT GROUP 4 ARE CLEARED.
000739:                                                                                                  #              2. IF THE CURRENT MAJOR MODE IS NOT EQUAL TO THE NEW REQUEST, A CHECK IS MADE TO SEE IF THE REQUEST-
000740:                                                                                                  #                 ED MAJOR MODE HAS BEEN RUNNING THE BACKGROUND,
000741:                                                                                                  #                 AND IF IT HAS, NO NEW PROGRAM IS SCHEDULED, THE EXISTING
000742:                                                                                                  #                 P20 OR P25 IS RESTARTED TO CONTINUE, AND ITS M M IS SET.
000743:                                                                                                  #              3. CONTROL IS TRANSFERRED TO GOPROG2.
000744:                                                                                                  #           C. PROGRAM SELECTED IS NEITHER P00,P20, NOR P25
000745:                                                                                                  #              1. V37XEQ IS SCHEDULED (AS A JOB) BY SETTING RESTART GROUP 4
000746:                                                                                                  #              2. ALL CURRENT ACTIVITY EXCEPT RENDEZVOUS AND TRACKING IS DISCONTINUED BY CLEARING ALL RESTART
000747:                                                                                                  #                 GROUPS. IF THE RENDEZVOUS OR THE P25 FLAG IS ON, GROUP 2 IS NOT CLEARED, ALLOWING THESE PROGRAMS
000748:                                                                                                  #                 TO CONTINUE.
000749:
000750:                                                                                                  #  INPUT/OUTPUT INFORMATION
000751:
000752:                                                                                                  #        A. CALLING SEQUENCE
000753:
000754:                                                                                                  #            CONTROL IS DIRECTED TO V37 BY THE VERBFAN ROUTINE.
000755:                                                                                                  #               VERBFAN GOES TO C(VERBTAB+C(VERBREG)). VERB 37 = MMCHANG.
000756:                                                                                                  #               MMCHANG EXECUTES A   TC POSTJUMP, CADR V37.
000757:
000758:                                                                                                  #        B. ERASABLE INITIALIZATION      NONE
000759:
000760:                                                                                                  #        C. OUTPUT
000761:


000763:                                                                                                  #            MAJOR MOD CHANGE
000764:
000765:                                                                                                  #        D. DEBRIS
000766:                                                                                                  #             MMNUMBER, MPAC +1, MINDEX, BASETEMP +C(MINDEX), FLAGWRD0, FLAGWRD1, FLAGWRD2, MODREG, GOLOC -1,
000767:                                                                                                  #             GOLOC, GOLOC +1, GOLOC +2, BASETEMP, -PHASE2, PHASE2, -PHASE4
000768:
000769:                                                                                                  #  PROGRAM ANALYSIS
000770:
000771:                                                                                                  #        A. SUBROUTINES CALLED
000772:                                                                                                  #             ALARM, RELDSP, PINBRNCH, INTSTALL, ENGINOF2, ALLCOAST, V37KLEAN, GOPROG2, FALTON, FINDVAC, SUPERSW,
000773:                                                                                                  #             DSPMM
000774:
000775:                                                                                                  #        B. NORMAL EXIT        TC ENDOFJOB
000776:
000777:                                                                                                  #        C. ALARMS      1520 (MAJOR MODE CHANGE NOT PERMITTED)
000778:
000779: 04,2054           54774        V37                TS       MMNUMBER                              #  SAVE MAJOR MODE
000780: 04,2055           34346                           CAF      PRIO30                                #  RESTART AT PINBALL PRIORITY
000781: 04,2056           55264                           TS       RESTREG
000782:
000783: 04,2057           31277                           CA       IMODES30                              #  IS IMU BEING INITIALIZED
000784: 04,2060           74737                           MASK     BIT6
000785: 04,2061           10000                           CCS      A
000786: 04,2062           12105                           TCF      CANTROD
000787:
000788: 04,2063           34740                           CA       BIT5                                  #  IS IMUZERO IN PROGRESS
000789: 04,2064           71300                           MASK     IMODES33
000790: 04,2065           10000                           CCS      A                                     #     IF SO DAP IS OFF
000791: 04,2066           12105                           TCF      CANTROD
000792:
000793: 04,2067           40774                           CS       MMNUMBER                              #  IS P70 REQUESTED?
000794: 04,2070           62435                           AD       DEC70
000795: 04,2071           00006                           EXTEND
000796: 04,2072           12430                           BZF      SETUP70                               #  YES
000797: 04,2073           64744                           AD       ONE                                   #  IS P71 REQUESTED?
000798: 04,2074           00006                           EXTEND
000799: 04,2075           12427                           BZF      SETUP71                               #  YES
000800:
000801: 04,2076           30774                           CA       MMNUMBER                              #  IS NEW REQUEST POO
000802: 04,2077           00006                           EXTEND
000803: 04,2100           12127                           BZF      ISSERVON                              #  YES, CHECK SERVICER STATUS
000804:
000805: 04,2101           40076                           CS       FLAGWRD2                              #  NO, IS NODO V37 FLAG SET
000806: 04,2102           74744                           MASK     NODOBIT
000807: 04,2103           10000                           CCS      A
000808: 04,2104           12112                           TCF      CHECKTAB                              #  NO
000809: 04,2105           05571        CANTROD            TC       ALARM
000810: 04,2106           01520                           OCT      1520
000811:
000812: 04,2107           04450        V37BAD             TC       RELDSP                                #  RELEASES DISPLAY FROM ASTRONAUT
000813:


000815:
000816: 04,2110           04626                           TC       POSTJUMP                              #  BRING BACK LAST NORMAL DISPLAY IF THERE
000817: 04,2111           21062                           CADR     PINBRNCH                              #  WAS ONE. OTHERWISE DO AN EOJ.
000818:
000819: 04,2112           32524        CHECKTAB           CA       NOV37MM                               #  INDEX FOR MM TABLES.
000820: 04,2113           54155        AGAINMM            TS       MPAC       +1
000821: 04,2114           50155                           NDX      MPAC       +1
000822: 04,2115           32472                           CA       PREMM1                                #  OBTAIN WHICH MM THIS IS FOR
000823: 04,2116           76115                           MASK     LOW7
000824: 04,2117           40000                           COM
000825: 04,2120           60774                           AD       MMNUMBER
000826: 04,2121           10000                           CCS      A
000827: 04,2122           10155                           CCS      MPAC       +1                         #  IF GR, SEE IF ANY MORE IN LIST
000828: 04,2123           12113                           TCF      AGAINMM                               #  YES, GET NEXT ONE
000829: 04,2124           12360                           TCF      V37NONO                               #  LAST TIME OR PASSED MM
000830:
000831: 04,2125           30155                           CA       MPAC       +1
000832: 04,2126           54773                           TS       MINDEX                                #  SAVE INDEX FOR LATER
000833:
000834: 04,2127           40103        ISSERVON           CS       FLAGWRD7                              #  V37 FLAG SET - I.E. IS SERVICER GOING
000835: 04,2130           74737                           MASK     V37FLBIT
000836: 04,2131           10000                           CCS      A
000837: 04,2132           12160                           TCF      CANV37                                #  NO
000838:
000839: 04,2133           04720                           TC       SUPERSW
000840: 04,2134           00004                           INHINT
000841: 04,2135           04665                           TC       IBNKCALL                              #  YES, TURN ENGINE OFF
000842: 04,2136           75556                           CADR     ENGINOF1
000843: 04,2137           05520                           TC       DOWNFLAG                              #  YES, TURN OFF THE AVERAGE G FLAG AND
000844: 04,2140           00163                           ADRES    AVEGFLAG                              #  WAIT FOR SERVICER TO RETURN TO V37RET.
000845:
000846: 04,2141           06050                           TC       KILLTASK
000847: 04,2142           74350                           CADR     ULLGTASK
000848:
000849: 04,2143           15146                           TCF      ENDOFJOB
000850:
000851: 04,2144           40074        V37RET             CS       FLAGWRD0                              #  IS P20 OR P22 RUNNING?
000852: 04,2145           74736                           MASK     RNDVZBIT
000853: 04,2146           10000                           CCS      A
000854: 04,2147           12151                           TCF      +2                                    #  NO. CHECK FOR P25.
000855: 04,2150           12156                           TCF      2.7SPT                                #  YES.  DO 2.7SPOT
000856: 04,2151           40074                           CS       FLAGWRD0                              #  IS P25 RUNNING?
000857: 04,2152           74734                           MASK     P25FLBIT
000858: 04,2153           10000                           CCS      A
000859: 04,2154           32424        2.0SPT             CA       OCT37667
000860: 04,2155           64740        2.11SPT            AD       BIT5
000861: 04,2156           62425        2.7SPT             AD       OCT40072
000862: 04,2157           05361                           TC       PHSCHNGA
000863:
000864: 04,2160           34746        CANV37             CAF      ZERO
000865: 04,2161           00006                           EXTEND
000866:


000868:
000869: 04,2162           01007                           WRITE    SUPERBNK
000870:
000871: 04,2163           32423                           CAF      ROOAD
000872: 04,2164           54373                           TS       TEMPFLSH
000873:
000874: 04,2165           05355                           TC       PHASCHNG
000875: 04,2166           00014                           OCT      14
000876:
000877: 04,2167           06060        ROO                TC       INTPRET
000878:
000879: 04,2170           77624                           CALL                                           #  WAIT FOR INTEGRATION TO FINISH
000880: 04,2171           27447                                    INTSTALL
000881: 04,2172           77776        DUMMYAD            EXIT
000882:
000883: 04,2173           05520                           TC       DOWNFLAG
000884: 04,2174           00124                           ADRES    3AXISFLG                              #  RESET 3-AXIT FLAG
000885:
000886: 04,2175           05520                           TC       DOWNFLAG
000887: 04,2176           00055                           ADRES    POOHFLAG
000888:
000889: 04,2177           05520                           TC       DOWNFLAG                              #  CLEAR FOR NORMAL INFLIGHT MARKING
000890: 04,2200           00222                           ADRES    FLT59FLG
000891:
000892: 04,2201           34726                           CAF      LRBYBIT                               #  CLEAN UP THE R12 FLAGWORD.
000893: 04,2202           54107                           TS       FLGWRD11
000894:
000895: 04,2203           05520                           TC       DOWNFLAG                              #  INSURE THAT THE R04FLAG IS CLEAR.
000896: 04,2204           00063                           ADRES    R04FLAG
000897:
000898: 04,2205           05520                           TC       DOWNFLAG
000899: 04,2206           00056                           ADRES    GLOKFAIL                              #  FLAGWORD 3 BIT 14
000900:
000901: 04,2207           05520                           TC       DOWNFLAG                              #  INSURE MUNFLAG IS CLEAR.
000902: 04,2210           00141                           ADRES    MUNFLAG
000903:
000904: 04,2211           05520                           TC       DOWNFLAG                              #  RESET ABORT TARGETING FLAG (USE
000905: 04,2212           00217                           ADRES    ABTTGFLG                              #    PARAMETERS J1 AND KU)
000906:
000907: 04,2213           05520                           TC       DOWNFLAG                              #  ALLOW X-AXIS OVERRIDE.
000908: 04,2214           00311                           ADRES    XOVINFLG
000909: 04,2215           10774                           CCS      MMNUMBER                              #  IS THIS A POOH REQUEST
000910: 04,2216           12346                           TCF      NOUVEAU                               #  NO, PICK UP NEW PROGRAM
000911:
000912: 04,2217           04450        POOH               TC       RELDSP                                #  RELEASE DISPLAY SYSTEM
000913:
000914: 04,2220           35010                           CAF      PRIO5                                 #  SET VARIABLE RESTART PRIORITY FOR
000915: 04,2221           55055                           TS       PHSPRDT2                              #  P00 INTEGRATION.
000916:
000917: 04,2222           06027                           TC       CLRADMOD                              #  CLRADMOD DOES AN INHINT.
000918:


000920: 04,2223           44744                           CS       NODOBIT                               #  TURN OFF NODOFLAG.
000921: 04,2224           70076                           MASK     FLAGWRD2
000922: 04,2225           54076                           TS       FLAGWRD2
000923:
000924: 04,2226           34747                           CA       FIVE                                  #  SET RESTART FOR STATINT1
000925: 04,2227           54001                           TS       L
000926: 04,2230           40000                           COM
000927: 04,2231           52754                           DXCH     -PHASE2
000928:
000929: 04,2232           42426                           CS       OCT700                                #  TURN OFF P20,P25,IMU IN USE FLAG
000930: 04,2233           70074                           MASK     FLAGWRD0
000931: 04,2234           54074                           TS       FLAGWRD0                              #                         RENDFLG
000932:
000933: 04,2235           34746                           CAF      DNLADP00
000934:
000935: 04,2236           54333        SEUDOPOO           TS       DNLSTCOD                              #  SET UP APPROPRIATE DOWNLIST CODE
000936: 04,2237           55321                           TS       AGSWORD                               #   (CURRENT LIST WILL BE COMPLETED BEFORE
000937:                                                                                                  #    NEW ONE IS STARTED)
000938:
000939: 04,2240           44732                           CS       NOP07BIT
000940: 04,2241           70077                           MASK     FLAGWRD3
000941: 04,2242           64732                           AD       NOP07BIT
000942: 04,2243           54077                           TS       FLAGWRD3
000943:
000944: 04,2244           04665                           TC       IBNKCALL                              #  INSLURE ALLCOAST.
000945: 04,2245           40205                           CADR     ALLCOAST                              #  DOES A RESTORDB.
000946:
000947: 04,2246           44766                           CS       OCT120                                #  TURN OFF TRACK, UPDATE FLAGS
000948: 04,2247           55071                           TS       EBANKTEM
000949: 04,2250           70075                           MASK     FLAGWRD1
000950: 04,2251           54075                           TS       FLAGWRD1
000951:
000952: 04,2252           04665                           TC       IBNKCALL                              #  KILL GROUPS 1,3,5,6
000953: 04,2253           12654                           CADR     V37KLEAN
000954:
000955: 04,2254           10774                           CCS      MMNUMBER                              #  IS IT POOH
000956: 04,2255           12264                           TCF      RENDV00                               #  NO
000957: 04,2256           04665        GOMOD              TC       IBNKCALL                              #  REDUNDANT EXCEPT FOR GROUP 4
000958: 04,2257           12651                           CADR     POOKLEAN
000959:
000960: 04,2260           30774                           CA       MMNUMBER
000961: 04,2261           55010                           TS       MODREG
000962:
000963: 04,2262           04626        GOGOPROG           TC       POSTJUMP
000964: 04,2263           12772                           CADR     GOPROG2
000965:
000966: 04,2264           41010        RENDV00            CS       MODREG                                #  IS CURRENT PROGRAM 22
000967: 04,2265           62364                           AD       OCT26
000968: 04,2266           00006                           EXTEND
000969: 04,2267           12306                           BZF      RESET22                               #  YES - CLEAR RENDEZVOUS FLAG
000970:


000972: 04,2270           40774                           CS       MMNUMBER                              #  IS NEW PROGRAM P22
000973: 04,2271           62364                           AD       OCT26
000974: 04,2272           00006                           EXTEND
000975: 04,2273           12306                           BZF      RESET22
000976:
000977:
000978: 04,2274           67767                           AD       NEG2                                  #  IS NEW PROGRAM = P20 OR P25
000979: 04,2275           00006                           EXTEND
000980: 04,2276           12320                           BZF      RENDNOO                               #  YES
000981: 04,2277           64747                           AD       FIVE                                  #  25
000982: 04,2300           00006                           EXTEND
000983: 04,2301           12320                           BZF      RENDNOO                               #  YES
000984:
000985: 04,2302           32362                           CA       OCT500                                #  NO, IS EITHER P20 OR P25 RUNNING
000986: 04,2303           70074                           MASK     FLAGWRD0
000987: 04,2304           10000                           CCS      A
000988: 04,2305           12315                           TCF      POOFIZZ                               #  YES, LEAVE GROUP 2 TO PICK UP P20 OR P25
000989:
000990: 04,2306           42426        RESET22            CS       OCT700                                #  CLEAR RENDEZVOUS,P25
000991: 04,2307           70074                           MASK     FLAGWRD0                              #  AND IMU IN USE FLAGS
000992: 04,2310           54074                           TS       FLAGWRD0
000993: 04,2311           06027                           TC       CLRADMOD
000994:
000995: 04,2312           00006        KILL2              EXTEND                                         #  NO, KILL 2
000996: 04,2313           34746                           DCA      NEG0
000997: 04,2314           52754                           DXCH     -PHASE2
000998:
000999: 04,2315           32422        POOFIZZ            CAF      V37QCAD                               #  RESTART POINT FOR V37XEQ
001000: 04,2316           54373                           TS       TEMPFLSH
001001:
001002: 04,2317           12262                           TCF      GOGOPROG
001003:
001004: 04,2320           41010        RENDNOO            CS       MODREG
001005: 04,2321           66007                           AD       OCT24
001006: 04,2322           00006                           EXTEND
001007: 04,2323           12312                           BZF      KILL2                                 #  P20 OR P25 ON TOP OF P20 OR P25 -
001008:
001009: 04,2324           64747                           AD       FIVE
001010: 04,2325           00006                           EXTEND
001011: 04,2326           12312                           BZF      KILL2
001012:
001013: 04,2327           32362                           CA       OCT500
001014: 04,2330           70074                           MASK     FLAGWRD0
001015: 04,2331           60774                           AD       MMNUMBER
001016: 04,2332           40000                           COM
001017: 04,2333           62365                           AD       P20REG                                #  IS IT 20 AND IS RENDEZVOUS FLAG ON
001018: 04,2334           00006                           EXTEND
001019: 04,2335           12342                           BZF      STATQUO                               #  YES
001020: 04,2336           62363                           AD       OCT305                                #  IS IT 25 AND IS P25 BIT ON
001021: 04,2337           00006                           EXTEND
001022:


001024: 04,2340           12342                           BZF      STATQUO                               #  YES, LEAVE AS IS
001025: 04,2341           12312                           TCF      KILL2
001026:
001027: 04,2342           40075        STATQUO            CS       FLAGWRD1                              #  SET TRACKFLAG
001028: 04,2343           74766                           MASK     OCT120                                #      UPDATE FLAG
001029: 04,2344           26075                           ADS      FLAGWRD1
001030:
001031: 04,2345           12256                           TCF      GOMOD
001032:
001033: 04,2346           32362        NOUVEAU            CAF      OCT500                                #  IS P20 OR P25 FLAG SET
001034: 04,2347           70074                           MASK     FLAGWRD0
001035: 04,2350           10000                           CCS      A
001036: 04,2351           12354                           TCF      +3                                    #  YES
001037: 04,2352           05520                           TC       DOWNFLAG                              #  NO, RESET IMUINUSE FLAG
001038: 04,2353           00007                           ADRES    IMUSE
001039:
001040: 04,2354           50773                           INDEX    MINDEX
001041: 04,2355           32525                           CAF      DNLADMM1                              #  OBTAIN APPROPIRATE DOWNLIST ADDRESS
001042:
001043: 04,2356           00004                           INHINT
001044: 04,2357           12236                           TCF      SEUDOPOO
001045:
001046: 04,2360           04355        V37NONO            TC       FALTON                                #  COME HERE IF MM REQUESTED DOESNT EXIST
001047:
001048: 04,2361           12107                           TCF      V37BAD
001049:
001050: 04,2362     4741               OCT00010           EQUALS   BIT4
001051: 04,2362           00500        OCT500             OCT      500                                   #  BITS 7 AND 9
001052: 04,2363           00305        OCT305             OCT      305
001053: 04,2364           00026        OCT26              OCT      26
001054: 04,2365           00124        P20REG             OCT      124
001055:
001056: 04,2366           00004        V37XEQ             INHINT
001057: 04,2367           50773                           INDEX    MINDEX
001058: 04,2370           32472                           CAF      PREMM1                                #  OBTAIN PRIO, EBANK, AND MM
001059: 04,2371           55057                           TS       MMTEMP
001060: 04,2372           54020                           TS       CYR                                   #  SHIFT RIGHT TO BITS 14 - 10
001061:
001062: 04,2373           30020                           CA       CYR
001063: 04,2374           77746                           MASK     PRIO37
001064: 04,2375           55061                           TS       PHSPRDT4                              #  PRESET GROUP 4 RESTART PRIORITY
001065: 04,2376           54063                           TS       NEWPRIO                               #  STORE PRIO FOR SPVAC
001066:
001067: 04,2377           31057                           CA       MMTEMP                                #  OBTAIN EBANK - BITS 8, 9, 10 OF MMTEMP.
001068: 04,2400           00006                           EXTEND
001069: 04,2401           74735                           MP       BIT8
001070: 04,2402           74750                           MASK     LOW3
001071: 04,2403           54001                           TS       L
001072:
001073: 04,2404           50773                           INDEX    MINDEX
001074:
001075:                                                                                                  #  Page 244
001076: 04,2405           32440                           CAF      FCADRMM1
001077: 04,2406           55060                           TS       BASETEMP                              #  MAKE BBCON BY ADDING HI5 OR FCADR
001078: 04,2407           74341                           MASK     HI5
001079: 04,2410           26001                           ADS      L
001080:
001081: 04,2411           31060                           CA       BASETEMP                              #  OBTAIN GENADR PORTION OF 2CADR.
001082: 04,2412           75003                           MASK     LOW10
001083: 04,2413           64732                           AD       BIT11
001084:
001085: 04,2414           05107                           TC       SPVAC
001086:
001087: 04,2415           31057        V37XEQC            CA       MMTEMP                                #  UPON RETURN FROM FINDVAC PLACE THE
001088: 04,2416           76115                           MASK     LOW7                                  #  NEW MM IN MODREG (THE LOW 7 BITS OF
001089: 04,2417           05316                           TC       NEWMODEA                              #  PHSPRDT1)
001090:
001091: 04,2420           04450                           TC       RELDSP                                #  RELEASE DISPLAY
001092: 04,2421           05146                           TC       ENDOFJOB                              #  AND EXIT
001093:
001094: 04,2422     5652               NEG7               EQUALS   OCT77770
001095:
001096: 04,2422     1057               MMTEMP             EQUALS   PHSPRDT3
001097: 04,2422     1060               BASETEMP           EQUALS   TBASE4
001098: 04,2422           10371        V37QCAD            CADR     V37XEQ     +3
001099: 04,2423           10172        ROOAD              CADR     DUMMYAD
001100: 04,2424           37667        OCT37667           OCT      37667
001101: 04,2425           40072        OCT40072           OCT      40072
001102: 04,2426           00700        OCT700             OCT      700
001103:
001104: 04,2427           36266        SETUP71            CAF      THREE
001105: 04,2430           54002        SETUP70            TS       Q
001106: 04,2431           00006                           EXTEND
001107: 04,2432           32437                           DCA      P70CADR
001108: 04,2433           60002                           AD       Q
001109: 04,2434           52006                           DTCB
001110:
001111: 04,2435           00106        DEC70              DEC      70         B-14
001112: 04,2436  E7,1520                                  EBANK=   R
001113: 04,2436           02132 42067  P70CADR            2CADR    P70
001114:                                                                                                  #  FOR VERB 37 TWO TABLES ARE MAINTAINED. EACH TABLE HAS AN ENTRY FOR EACH
001115:                                                                                                  #  MAJOR MODE THAT CAN BE STARTED FROM THE KEYBOARD. THE ENTRIES ARE PUT
001116:                                                                                                  #  INTO THE TABLE WITH THE ENTRY FOR THE HIGHEST MAJOR MODE COMING FIRST,
001117:
001118:                                                                                                  #  TO THE LOWEST MAJOR MODE WHICH IS THE LAST ENTRY IN EACH TABLE.
001119:
001120:                                                                                                  #           THE FCADRMM TABLE CONTAINS THE FCADR OF THE STARTING JOB OF
001121:                                                                                                  #  THE MAJOR MODE.   FOR EXAMPLE,
001122:
001123:                                                                                                  #                                          FCADRMM1 FCADR   P79             # START OF P 79
001124:                                                                                                  #                                                   FCADR   PROG18          # START OF P 18
001125:


001127:                                                                                                  #                                                   FCADR   P01             # START OF P 01
001128:                                                                                                  #  NOTE.    THE FIRST ENTRY MUST BE LABELED FCADRMM1.
001129:                                                                                                  #  ----
001130:
001131: 04,2440                        FCADRMM1           EQUALS
001132: 04,2440           26207                           FCADR    P76ER77
001133: 04,2441           26207                           FCADR    P76ER77
001134: 04,2442           72647                           FCADR    P75
001135: 04,2443           72457                           FCADR    P74
001136: 04,2444           72225                           FCADR    P73
001137: 04,2445           72036                           FCADR    P72
001138: 04,2446           71271                           FCADR    LANDJUNK
001139: 04,2447           64602                           FCADR    P63LM
001140: 04,2450           33274                           FCADR    P57
001141: 04,2451           32201                           FCADR    PROG52
001142: 04,2452           31404                           FCADR    P51
001143: 04,2453           75437                           FCADR    P47LM
001144: 04,2454           75411                           FCADR    P42LM
001145: 04,2455           75271                           FCADR    P41LM
001146: 04,2456           75146                           FCADR    P40LM
001147: 04,2457           72643                           FCADR    P35
001148: 04,2460           72455                           FCADR    P34
001149: 04,2461           72223                           FCADR    P33
001150: 04,2462           72034                           FCADR    P32
001151: 04,2463           72000                           FCADR    P30
001152: 04,2464           50462                           FCADR    PROG25
001153: 04,2465           50000                           FCADR    PROG22
001154: 04,2466           51441                           FCADR    PROG21
001155: 04,2467           50000                           FCADR    PROG20
001156: 04,2470           60061                           FCADR    P12LM
001157: 04,2471           77654                           FCADR    P06
001158:                                                                                                  #           THE PREMM TABLE CONTAINS THE E-BANK,MAJOR MODE, AND PRIORITY
001159:                                                                                                  #  INFORMATION, IT IS IN THE FOLLOWING FORM,
001160:
001161:                                                                                                  #           PPP PPE EEM MMM MMM
001162:
001163:                                                                                                  #           WHERE THE 7 M BITS CONTAIN THE MAJOR MODE NUMBER
001164:                                                                                                  #                      3 E BITS CONTAIN THE E-BANK NUMBER
001165:                                                                                                  #                      5 P BITS CONTAIN THE PRIORITY AT WHICH THE JOB IS
001166:                                                                                                  #                          TO BE STARTED
001167:
001168:                                                                                                  #           FOR EXAMPLE,
001169:
001170:                                                                                                  #                                          PREMM1   OCT     67213           PRIORITY      33
001171:                                                                                                  #                                                                           E-BANK         5
001172:                                                                                                  #                                                                           MAJOR MODE    11
001173:                                                                                                  #                                                   OCT     25437           PRIORITY       12
001174:                                                                                                  #                                                                           E-BANK         6
001175:                                                                                                  #                                                                           MAJOR MODE    31
001176:


001178:                                                                                                  #  NOTE.     THE FIRST ENTRY MUST BE LABELED PREMM1
001179: 04,2472                        PREMM1             EQUALS
001180: 04,2472           27715                           OCT      27715                                 #  MM 77 EBANK 7 PRIO 13
001181: 04,2473           27714                           OCT      27714                                 #  MM 76  EBANK 7  PRIO 13
001182: 04,2474           27713                           OCT      27713                                 #  MM 75  EBANK 7  PRIO 13
001183: 04,2475           27712                           OCT      27712                                 #  MM 74  EBANK 7  PRIO 13
001184: 04,2476           27711                           OCT      27711                                 #  MM 73  EBANK 7  PRIO 13
001185: 04,2477           27710                           OCT      27710                                 #  MM 72  EBANK 7  PRIO 13
001186: 04,2500           27704                           OCT      27704                                 #  MM 68  EBANK 7  PRIO 13
001187: 04,2501           27677                           OCT      27677                                 #  MM 63  EBANK 7  PRIO 13
001188: 04,2502           27271                           OCT      27271                                 #  MM 57  EBANK 5  PRIO 13
001189: 04,2503           27264                           OCT      27264                                 #  MM 52  EBANK 5  PRIO 13
001190: 04,2504           27263                           OCT      27263                                 #  MM 51  EBANK 5  PRIO 13
001191: 04,2505           27657                           OCT      27657                                 #  MM 47  EBANK 7  PRIO 13
001192: 04,2506           27652                           OCT      27652                                 #  MM 42  EBANK 7  PRIO 13
001193: 04,2507           27651                           OCT      27651                                 #  MM 41  EBANK 7  PRIO 13
001194: 04,2510           27650                           OCT      27650                                 #  MM 40  EBANK 7  PRIO 13
001195: 04,2511           27643                           OCT      27643                                 #  MM 35  EBANK 7  PRIO 13
001196: 04,2512           27642                           OCT      27642                                 #  MM 34  EBANK 7  PRIO 13
001197: 04,2513           27641                           OCT      27641                                 #  MM 33  EBANK 7  PRIO 13
001198: 04,2514           27640                           OCT      27640                                 #  MM 32  EBANK 7  PRIO 13
001199: 04,2515           27636                           OCT      27636                                 #  MM 30  EBANK 7  PRIO 13
001200: 04,2516           27631                           OCT      27631                                 #  MM 25  EBANK 7  PRIO 13
001201: 04,2517           27626                           OCT      27626                                 #  MM 22  EBANK 7  PRIO 13
001202: 04,2520           27625                           OCT      27625                                 #  MM 21  EBANK 7  PRIO 13
001203: 04,2521           27624                           OCT      27624                                 #  MM 20  EBANK 7  PRIO 13
001204: 04,2522           27614                           OCT      27614                                 #  MM 12  EBANK 7  PRIO 13
001205: 04,2523           27006                           OCT      27006                                 #  MM 06  EBANK 4  PRIO 13
001206:                                                                                                  #  NOTE.     THE FOLLOWING CONSTANT IS THE NUMBER OF ENTRIES IN EACH OF
001207:                                                                                                  #  ----      THE ABOVE LISTS-1(IE, THE NUMBER OF MAJOR MODES(EXCEPT P00)
001208:                                                                                                  #            THAT CAN BE CALLED FROM THE KEYBOARD MINUS ONE)
001209:
001210: 04,2524           00031        NOV37MM            DEC      25         B-14                       #  MM'S - 1
001211:
001212:
001213: 04,2525                        DNLADMM1           EQUALS
001214: 04,2525           00002                           ADRES    RENDEZVL                              #  P77
001215: 04,2526           00002                           ADRES    RENDEZVL                              #  P76
001216: 04,2527           00002                           ADRES    RENDEZVL                              #  P75
001217: 04,2530           00002                           ADRES    RENDEZVL                              #  P74
001218: 04,2531           00002                           ADRES    RENDEZVL                              #  P73
001219: 04,2532           00002                           ADRES    RENDEZVL                              #  P72
001220: 04,2533           00004                           ADRES    DESASCNT                              #  P68
001221: 04,2534           00004                           ADRES    DESASCNT                              #  P63
001222: 04,2535           00005                           ADRES    LUNRSALN                              #  P57
001223: 04,2536           00000                           ADRES    COSTALIL                              #  P52
001224: 04,2537           00000                           ADRES    COSTALIL                              #  P51
001225: 04,2540           00003                           ADRES    ORBMANUL                              #  P47
001226: 04,2541           00003                           ADRES    ORBMANUL                              #  P42
001227: 04,2542           00003                           ADRES    ORBMANUL                              #  P41
001228:


001230: 04,2543           00003                           ADRES    ORBMANUL                              #  P40
001231: 04,2544           00002                           ADRES    RENDEZVL                              #  P35
001232: 04,2545           00002                           ADRES    RENDEZVL                              #  P34
001233: 04,2546           00002                           ADRES    RENDEZVL                              #  P33
001234: 04,2547           00002                           ADRES    RENDEZVL                              #  P32
001235: 04,2550           00002                           ADRES    RENDEZVL                              #  P30
001236: 04,2551           00002                           ADRES    RENDEZVL                              #  P25
001237: 04,2552           00005                           ADRES    LUNRSALN                              #  P22
001238: 04,2553           00002                           ADRES    RENDEZVL                              #  P21
001239: 04,2554           00002                           ADRES    RENDEZVL                              #  P20
001240: 04,2555           00004                           ADRES    DESASCNT                              #  P12
001241: 04,2556           00000                           ADRES    COSTALIL                              #  P06
001242: 04,2557     4746               DNLADP00           =        ZERO
001243: 04,2557                        COSTALIL           =        0
001244: 04,2557                        AGSUPDAT           =        1
001245: 04,2557                        RENDEZVL           =        2
001246: 04,2557                        ORBMANUL           =        3
001247: 04,2557                        DESASCNT           =        4
001248: 04,2557                        LUNRSALN           =        5
001249: 13,2026                                           BANK     13
001250: 13,2000                                           SETLOC   INTINIT
001251: 13,2000                                           BANK
001252:
001253: 13,2026                                           COUNT*   $$/INTIN
001254:
001255: 13,2026  E3,1554                                  EBANK=   RRECTCSM
001256:
001257:                                                                                                  #  THIS ROUTINE DOES THE POO INTEGRATION
001258:
001259: 13,2026           43014        STATEUP            SET      BOF                                   #  EXTRAPOLATE CM STATE VECTOR
001260: 13,2027           01474                                    VINTFLAG
001261: 13,2030           04347                                    SURFFLAG                              #  ALSO 6X6 W-MATRIX IF LM ON LUNAR
001262: 13,2031           26036                                    DOINT                                 #       SURFACE AND W-MATRIX VALID
001263: 13,2032           43014                           BOF      SET                                   #       FOR RENDEZVOUS NAVIGATION.
001264: 13,2033           02756                                    RENDWFLG
001265: 13,2034           26036                                    DOINT
001266: 13,2035           01476                                    DIM0FLAG
001267: 13,2036           45014        DOINT              CLEAR    CALL
001268: 13,2037           01667                                    PRECIFLG                              #  ENGAGES 4-TIME STEP LOGIC IN INTEGRATION
001269: 13,2040           27172                                    INTEGRV                               #  WHEN MODREG = 0
001270:
001271: 13,2041           71214                           BON      DLOAD
001272: 13,2042           04307                                    SURFFLAG
001273: 13,2043           26063                                    NO-INT
001274: 13,2044           01571                                    TETCSM
001275: 13,2045           34041                           STCALL   TDEC1
001276: 13,2046           27447                                    INTSTALL
001277: 13,2047           45014                           CLEAR    CALL                                  #  EXTRAPOLATE LM STATE VECTOR
001278: 13,2050           01674                                    VINTFLAG
001279: 13,2051           26702                                    SETIFLGS
001280:


001282: 13,2052           77614                           BOF                                            #  ALSO 9X9 W-MATRIX IF W IS VALID
001283: 13,2053           02756                                    RENDWFLG
001284: 13,2054           26060                                    DOINT2
001285: 13,2055           43014                           SET      SET
001286: 13,2056           01476                                    DIM0FLAG
001287: 13,2057           01475                                    D6OR9FLG
001288: 13,2060           45014        DOINT2             SET      CALL
001289: 13,2061           01467                                    PRECIFLG                              #  DISENGAGE 4 TIME STEP LOGIC IN INTEG.
001290: 13,2062           27172                                    INTEGRV
001291: 13,2063           77614        NO-INT             CLRGO
001292: 13,2064           01236                                    NODOFLAG
001293: 13,2065           26670                                    ENDINT
001294:
001295:
001296:                                                                                                  #  THISVINT IS CALLED BY MIDTOAV1 AND2
001297:
001298: 13,2066           43414        THISVINT           CLEAR    RVQ
001299: 13,2067           01674                                    VINTFLAG

End of include-file FRESH_START_AND_RESTART.agc.  Parent file is MAIN.agc


