
Source Code


000002:                                                                                                  ## Copyright:   Public domain.
000003:                                                                                                  ## Filename:    FRESH_START_AND_RESTART.agc
000004:                                                                                                  ## Purpose:     A section of Luminary revision 210.
000005:                                                                                                  ##              It is part of the source code for the Lunar Module's (LM)
000006:                                                                                                  ##              Apollo Guidance Computer (AGC) for Apollo 15-17.
000007:                                                                                                  ##              This file is intended to be a faithful transcription, except
000008:                                                                                                  ##              that the code format has been changed to conform to the
000009:                                                                                                  ##              requirements of the yaYUL assembler rather than the
000010:                                                                                                  ##              original YUL assembler.
000011:                                                                                                  ## Reference:   pp. 222-248
000012:                                                                                                  ## Assembler:   yaYUL
000013:                                                                                                  ## Contact:     Ron Burkey <info@sandroid.org>.
000014:                                                                                                  ## Website:     www.ibiblio.org/apollo/index.html
000015:                                                                                                  ## Mod history: 2016-11-17 JL   Created from Luminary131 version.
000016:                                                                                                  ##              2016-11-22 HG   Transcribed
000017:                                                                                                  ##              2016-12-07 HG   fix P00 -> POO
000018:                                                                                                  ##                              Change DNLADPOO -> DNLADP00
000019:                                                                                                  ##                                     COUNT* $$/POO -> COUNT* $$/P00
000020:                                                                                                  ##                                     R00 -> ROO
000021:                                                                                                  ##                                     R00AD -> ROOAD
000022:                                                                                                  ##                                     RENDN00 -> RENDNOO
000023:                                                                                                  ##                                     change POO -> P00 in some comments
000024:                                                                                                  ##              2016-12-11 HG  Fix operator CA BANKCALL -> TC BANKCALL
000025:                                                                                                  ##              2016-12-23 RSB  Proofed comment text with octopus/ProoferComments
000026:                                                                                                  ##                              and fixed all errors found.
000027:


000029: 10,2000                                           BANK     10
000030: 05,2000                                           SETLOC   FRANDRES
000031: 05,2000                                           BANK
000032:
000033: 05,2454  E3,1400                                  EBANK=   LST1
000034:
000035: 05,2454                                           COUNT*   $$/START                              #  FRESH AND RESTART
000036: 05,2454           00004        SLAP1              INHINT                                         #  FRESH START.  COMES HERE FROM PINBALL.
000037: 05,2455           03107                           TC       STARTSUB                              #  SUBROUTINE DOES MOST OF THE WORK.
000038:
000039: 05,2456           12463        STARTSW            TCF      SKIPSIM                               #  PATCH....TCF STARTSIM...FOR SIMULATION
000040: 05,2457           34727        STARTSIM           CAF      BIT14
000041: 05,2460           05076                           TC       FINDVAC
000042: 05,2461           77777        SIM2CADR           OCT      77777                                 #  PATCH 2CADR (AND EBANK DESIGNATION) OF
000043: 05,2462           77777                           OCT      77777                                 #  SIMULATION START ADDRESS.
000044:
000045: 05,2463           31035        SKIPSIM            CA       DSPTAB     +11D                       #  TURN OFF ALL DSPTAB +11D LAMPS
000046: 05,2464           74762                           MASK     BITS4&6                               #  EXCEPT THE GIMBAL LOCK & NO ATT ONLY ON
000047: 05,2465           64726                           AD       BIT15                                 #  REQUESTED FRESH START.
000048: 05,2466           55035                           TS       DSPTAB     +11D
000049:
000050: 05,2467           34746                           CA       ZERO
000051: 05,2470           55365                           TS       ERCOUNT
000052: 05,2471           54375                           TS       FAILREG
000053: 05,2472           54376                           TS       FAILREG    +1
000054: 05,2473           54377                           TS       FAILREG    +2
000055: 05,2474           54320                           TS       REDOCTR
000056:
000057: 05,2475           00006                           EXTEND
000058: 05,2476           01077                           WRITE    CHAN77                                #  ZERO CHANNEL 77
000059:
000060: 05,2477           44635                           CS       PRIO12
000061: 05,2500           55310                           TS       DSRUPTSW
000062:
000063: 05,2501           34727        DOFSTART           CAF      BIT14                                 #  INSURE ENGINE IS OFF.
000064: 05,2502           00006                           EXTEND
000065: 05,2503           01011                           WRITE    DSALMOUT
000066: 05,2504           44746                           CS       ZERO
000067: 05,2505           54055                           TS       THRUST
000068:
000069: 05,2506           34346        DOFSTRT1           CA       PRIO30
000070: 05,2507           55264                           TS       RESTREG                               #  SUPER BANK PRIORITY FOR DISPLAYS.
000071:
000072: 05,2510           34746                           CA       ZERO
000073: 05,2511           55245                           TS       ABDELV                                #  DAP INITIALIZATION
000074: 05,2512           54370                           TS       NVSAVE
000075: 05,2513           55071                           TS       EBANKTEM
000076: 05,2514           55257                           TS       CH5MASK
000077: 05,2515           55260                           TS       CH6MASK
000078:


000080: 05,2516           55273                           TS       PVALVEST                              #  FOR RCS FAILURE MONITOR
000081: 05,2517           55360                           TS       ERESTORE                              #  ***** MUST NOT BE REMOVED FROM DOFSTART
000082: 05,2520           55362                           TS       SMODE                                 #  ***** MUST NOT BE REMOVED FROM DOFSTART
000083: 05,2521           54333                           TS       DNLSTCOD                              #  SELECT POO DOWNLIST
000084: 05,2522           55321                           TS       AGSWORD                               #  ALLOW AGS INITIALIZATION
000085: 05,2523           55501                           TS       UPSVFLAG                              #  ZERO UPDATE STATE VECTOR REQUEST FLAGWRD
000086: 05,2524           00006                           EXTEND
000087: 05,2525           01005                           WRITE    CHAN5                                 #  TURN OFF RCS JETS.
000088: 05,2526           00006                           EXTEND
000089: 05,2527           01006                           WRITE    CHAN6                                 #  TURN OFF RCS JETS.
000090: 05,2530           00006                           EXTEND
000091: 05,2531           01012                           WRITE    CHAN12
000092: 05,2532           00006                           EXTEND
000093: 05,2533           01013                           WRITE    CHAN13
000094: 05,2534           00006                           EXTEND
000095: 05,2535           01014                           WRITE    CHAN14
000096: 05,2536           41035                           CS       DSPTAB     +11D
000097: 05,2537           74762                           MASK     BITS4&6
000098: 05,2540           10000                           CCS      A
000099: 05,2541           02545                           TC       +4
000100: 05,2542           34762                           CA       BITS4&6
000101: 05,2543           00006                           EXTEND                                         #  THE IMU WAS IN COARSE ALIGN IN GIMBAL
000102: 05,2544           05012                           WOR      CHAN12                                #  LOCK, SO PUT IT BACK INTO COARSE ALIGN.
000103: 05,2545           02645                 +4        TC       MR.KLEAN
000104:
000105: 05,2546           44746                           CS       ZERO
000106: 05,2547           55010                           TS       MODREG
000107:
000108: 05,2550           33377                           CAF      IM30INIF                              #  FRESH START IMU INITIALIZATION.
000109: 05,2551           55277                           TS       IMODES30
000110:
000111: 05,2552           33067                           CAF      MAXDB
000112: 05,2553           55343                           TS       DB
000113: 05,2554           34742                           CAF      FOUR
000114: 05,2555           55322                           TS       RATEINDX                              #  INITIALIZE KALCMANU RATE
000115: 05,2556           33064                           CA       BOOLSTRT
000116: 05,2557           54111                           TS       DAPBOOLS
000117: 05,2560           35006                           CAF      EBANK6
000118: 05,2561           54003                           TS       EBANK
000119: 05,2562  E6,1400                                  EBANK=   HIASCENT
000120:
000121: 05,2562           33062                           CA       STIKSTRT
000122: 05,2563           55444                           TS       STIKSENS
000123: 05,2564           33063                           CA       RATESTRT
000124: 05,2565           55476                           TS       -RATEDB
000125: 05,2566           32000                           CAF      FULLAPS                               #  INITIALIZE MAXIMUM ASCENT MASS FOR USE
000126: 05,2567           55400                           TS       HIASCENT                              #    BY 1/ACCS UNTIL THE PAD LOAD IS DONE.
000127: 05,2570           44775                           CS       LOW9                                  #  LOAD DAP FILTER GAINS (PAD LOAD)
000128: 05,2571           55403                           TS       DKTRAP                                #     TO BEST PRESENT ESTIMATE OF GOODIES
000129: 05,2572           55406                           TS       LMTRAP                                #  .14 DEG
000130:


000132: 05,2573           33065                           CA       60DEC
000133: 05,2574           55405                           TS       DKKAOSN
000134: 05,2575           55410                           TS       LMKAOSN                               #  6 SEC GAIN FOR ALPHA
000135: 05,2576           34746                           CA       ZERO
000136: 05,2577           55407                           TS       LMOMEGAN                              #  UNITY GAIN
000137: 05,2600           34354                           CA       TEN
000138: 05,2601           55404                           TS       DKOMEGAN                              #  1 SEC GAIN FOR OMEGA
000139: 05,2602           34735                           CAF      BIT8                                  #  SET DOCKED DB TO 1.4 DEG.  MAY OVERWRITE
000140: 05,2603           55411                           TS       DKDB                                  #        WITH PAD LOAD.
000141: 05,2604           35017                           CAF      IM33INIT
000142: 05,2605           64737                           AD       BIT6                                  #  KEEP BOTH DAP AND ERROR-NEEDLES DISPLAY
000143: 05,2606           55300                           TS       IMODES33                              #    OFF UNTIL ICDU ZERO IS FINISHED.
000144:
000145: 05,2607           00006                           EXTEND                                         #  INITIALIZE SWITCHES ONLY ON FRESH START.
000146: 05,2610           33404                           DCA      SWINIT
000147: 05,2611           52075                           DXCH     STATE
000148: 05,2612           33405                           CA       SWINIT     +2
000149: 05,2613           54076                           TS       STATE      +2
000150: 05,2614           34730                           CA       REFSMBIT                              #  DO NOT ALTER REFSMFLG ON FRESH START.
000151: 05,2615           64732                           AD       NOP07BIT                              #               NODOP07
000152: 05,2616           70077                           MASK     STATE      +3
000153: 05,2617           63406                           AD       SWINIT     +3
000154: 05,2620           54077                           TS       STATE      +3
000155: 05,2621           00006                           EXTEND
000156: 05,2622           33410                           DCA      SWINIT     +4
000157: 05,2623           52101                           DXCH     STATE      +4
000158: 05,2624           00006                           EXTEND
000159: 05,2625           33412                           DCA      SWINIT     +6
000160: 05,2626           52103                           DXCH     STATE      +6
000161: 05,2627           33061                           CA       OCT6200                               #  CMOONFLG, LMOONFLG, SURFFLAG
000162: 05,2630           70104                           MASK     STATE      +8D
000163: 05,2631           63413                           AD       SWINIT     +8D
000164: 05,2632           54104                           TS       STATE      +8D
000165: 05,2633           33414                           CA       SWINIT     +9D
000166: 05,2634           54105                           TS       STATE      +9D
000167: 05,2635           34730                           CA       APSFLBIT                              #  DO NOT ALTER APSFLAG ON FRESH START.
000168: 05,2636           70106                           MASK     STATE      +10D
000169: 05,2637           63415                           AD       SWINIT     +10D
000170: 05,2640           54106                           TS       STATE      +10D
000171: 05,2641           33416                           CAF      SWINIT     +11D
000172: 05,2642           54107                           TS       STATE      +11D
000173:
000174: 05,2643           04626        ENDRSTRT           TC       POSTJUMP                              #  NOW IN ANOTHER BANK.
000175: 05,2644           03212                           CADR     DUMMYJOB   +2                         #  PICKS UP AT RELINT.   (DONT ZERO NEWJOB)
000176:
000177: 05,2645           00004        MR.KLEAN           INHINT
000178: 05,2646           00006                           EXTEND
000179: 05,2647           34746                           DCA      NEG0
000180: 05,2650           52754                           DXCH     -PHASE2
000181:


000183: 05,2651           00006        POOKLEAN           EXTEND
000184: 05,2652           34746                           DCA      NEG0
000185: 05,2653           52760                           DXCH     -PHASE4
000186: 05,2654           00006        V37KLEAN           EXTEND
000187: 05,2655           34746                           DCA      NEG0
000188: 05,2656           52762                           DXCH     -PHASE5
000189: 05,2657           00006        ABTKLEAN           EXTEND
000190: 05,2660           34746                           DCA      NEG0
000191: 05,2661           52756                           DXCH     -PHASE3
000192: 05,2662           00006                           EXTEND
000193: 05,2663           34746                           DCA      NEG0
000194: 05,2664           52752                           DXCH     -PHASE1
000195: 05,2665           00006                           EXTEND
000196: 05,2666           34746                           DCA      NEG0
000197: 05,2667           52764                           DXCH     -PHASE6
000198: 05,2670           00002                           TC       Q
000199:


000201:                                                                                                  #           COMES HERE FROM LOCATION 4000, GOJAM, RESTART ANY PROGRAMS WHICH MAY HAVE BEEN RUNNING AT THE TIME
000202:
000203: 05,2671  E3,1400                                  EBANK=   LST1
000204: 05,2671           24320        GOPROG             INCR     REDOCTR                               #  ADVANCE RESTART COUNTER.
000205:
000206: 05,2672           22002                           LXCH     Q
000207: 05,2673           00006                           EXTEND
000208: 05,2674           04007                           ROR      SUPERBNK
000209: 05,2675           53433                           DXCH     RSBBQ
000210: 05,2676           31035                           CA       DSPTAB     +11D
000211: 05,2677           74741                           MASK     BIT4
000212: 05,2700           00006                           EXTEND
000213: 05,2701           12705                           BZF      +4
000214: 05,2702           64737                           AD       BIT6                                  #  SET ERROR COUNTER ENABLE
000215: 05,2703           00006                           EXTEND
000216: 05,2704           05012                           WOR      CHAN12                                #  ISS WAS IN COARS ALIGN SO GO BACK TO
000217: 05,2705           03070        BUTTONS            TC       LIGHTSET
000218:
000219:                                                                                                  #                                             ERASCHK TEMPORARILY STORES THE CONTENTS OF TWO ERASABLE LOCATIONS, X
000220:                                                                                                  #                                             AND X+1 INTO SKEEP5 AND SKEEP6. IT ALSO STORES X INTO SKEEP7 AND
000221:                                                                                                  #                                             ERESTORE. IF ERASCHK IS INTERRUPTED BY A RESTART, C(ERESTORE) SHOULD
000222:                                                                                                  #                                             EQUAL C(SKEEP7),AND BE A + NUMBER LESS THAN 2000 OCT. OTHERWISE
000223:                                                                                                  #                                             C(ERESTORE) SHOULD EQUAL +0.
000224:
000225: 05,2706           34341                           CAF      HI5
000226: 05,2707           71360                           MASK     ERESTORE
000227: 05,2710           00006                           EXTEND
000228: 05,2711           12713                           BZF      +2                                    #  IF ERESTORE NOT = +0 OR +N LESS THAN 2K,
000229: 05,2712           13105                           TCF      NONAVKEY   +3                         #  DO FRESH START - E MEMORY MIGHT BE BAD
000230: 05,2713           41360                           CS       ERESTORE
000231: 05,2714           00006                           EXTEND
000232: 05,2715           12732                           BZF      DORSTART                              #  = +0 CONTINUE WITH RESTART.
000233: 05,2716           61377                           AD       SKEEP7
000234: 05,2717           00006                           EXTEND
000235: 05,2720           12722                           BZF      +2                                    #  = SKEEP7, RESTORE E MEMORY.
000236: 05,2721           13105                           TCF      NONAVKEY   +3                         #  DO FRESH START - E MEMORY MIGHT BE BAD
000237: 05,2722           31374                           CA       SKEEP4
000238: 05,2723           54003                           TS       EBANK                                 #  EBANK OF E MEMORY THAT WAS UNDER TEST.
000239: 05,2724           00006                           EXTEND                                         #  (NOT DXCH SINCE THIS MIGHT HAPPEN AGAIN)
000240: 05,2725           31376                           DCA      SKEEP5
000241: 05,2726           51377                           INDEX    SKEEP7
000242: 05,2727           52001                           DXCH     0000                                  #  E MEMORY RESTORED.
000243: 05,2730           34746                           CA       ZERO
000244: 05,2731           55360                           TS       ERESTORE
000245: 05,2732           03107        DORSTART           TC       STARTSUB                              #  DO INITIALIZATION AFTER ERASE RESTORE.
000246:
000247: 05,2733           44727        SETINFL            CS       INTFLBIT
000248: 05,2734           70106                           MASK     FLGWRD10
000249: 05,2735           54106                           TS       FLGWRD10


000251: 05,2736           33401                           CA       9,6,4                                 #  LEAVE PROG ALARM, GIMBAL LOCK, NO ATT
000252: 05,2737           71035                           MASK     DSPTAB     +11D                       #  LAMPS INTACT ON HARDWARE RESTART
000253: 05,2740           64726                           AD       BIT15
000254: 05,2741           57035                           XCH      DSPTAB     +11D
000255: 05,2742           33365                           CAF      IFAILINH                              #  LEAVE IMU FAILURE INHIBITS INTACT ON
000256: 05,2743           71277                           MASK     IMODES30                              #  HARDWARE RESTART, RESET ALL FAILURE
000257: 05,2744           63400                           AD       IM30INIR                              #  CODES.
000258: 05,2745           55277                           TS       IMODES30
000259:
000260: 05,2746           31321                           CA       AGSWORD                               #  BE SURE OF CORRECT DOWNLTST
000261: 05,2747           54333                           TS       DNLSTCOD
000262:
000263: 05,2750           34741                           CA       BIT4                                  #  TURN ON THROTTLE COUNTER
000264: 05,2751           00006                           EXTEND
000265: 05,2752           05014                           WOR      CHAN14                                #  TURN ON THRUST DRIVE
000266: 05,2753           40101                           CS       FLAGWRD5
000267: 05,2754           74736                           MASK     ENGONBIT
000268: 05,2755           10000                           CCS      A
000269: 05,2756           12763                           TCF      +5
000270: 05,2757           34730                           CAF      BIT13
000271: 05,2760           00006                           EXTEND
000272: 05,2761           05011                           WOR      DSALMOUT                              #  TURN ENGINE ON
000273: 05,2762           12777                           TCF      GOPROG3
000274: 05,2763           34727                 +5        CAF      BIT14
000275: 05,2764           00006                           EXTEND
000276: 05,2765           05011                           WOR      DSALMOUT                              #  TURN ENGINE OFF.
000277: 05,2766           12777                           TCF      GOPROG3
000278:
000279: 05,2767           00004        ENEMA              INHINT
000280: 05,2770           03116                           TC       STARTSB1
000281: 05,2771           12773                           TCF      GOPROG2A
000282: 05,2772           03156        GOPROG2            TC       STARTSB2
000283: 05,2773           03070        GOPROG2A           TC       LIGHTSET
000284: 05,2774           44727                           CS       INTFLBIT                              #  CLEAR INTEGR IN PROGRESS BIT
000285: 05,2775           70106                           MASK     FLGWRD10
000286: 05,2776           54106                           TS       FLGWRD10
000287:
000288: 05,2777           34747        GOPROG3            CAF      NUMGRPS                               #  VERIFY PHASE TABLE AGREEMENTS
000289: 05,3000           54161        PCLOOP             TS       MPAC       +5
000290: 05,3001           60000                           DOUBLE
000291: 05,3002           00006                           EXTEND
000292: 05,3003           50000                           INDEX    A
000293: 05,3004           30752                           DCA      -PHASE1                               #  COMPLEMENT INTO A, DIRECT INTO L.
000294: 05,3005           00006                           EXTEND
000295: 05,3006           06001                           RXOR     LCHAN                                 #  RESULT MUST BE -0 FOR AGREEMENT.
000296: 05,3007           10000                           CCS      A
000297: 05,3010           13056                           TCF      PTBAD                                 #  RESTART FAILURE.
000298: 05,3011           13056                           TCF      PTBAD
000299: 05,3012           13056                           TCF      PTBAD
000300:


000302: 05,3013           10161                           CCS      MPAC       +5                         #  PROCESS ALL RESTART GROUPS.
000303: 05,3014           13000                           TCF      PCLOOP
000304:
000305: 05,3015           54162                           TS       MPAC       +6                         #  SET TO +0.
000306: 05,3016           05317                           TC       MMDSPLAY                              #  DISPLAY MAJOR MODE
000307:
000308: 05,3017           00004                           INHINT                                         #  RELINT DONE IN MMDSPLAY
000309:
000310: 05,3020           44727                           CS       DIDFLBIT                              #  CLEAR DIDFLAG IN ORDER TO FORCE R10 TO
000311: 05,3021           70075                           MASK     FLAGWRD1                              #  RE-INITIALIZE ITSELF IF IT HAD BEEN
000312: 05,3022           54075                           TS       FLAGWRD1                              #  OPERATIMG AT THE TIME OF THE RESTART.
000313:
000314: 05,3023           44731                           CS       RODFLBIT                              #  CLEAR RODFLAG.  IF P66 IS IN OPERATION
000315: 05,3024           70075                           MASK     FLAGWRD1                              #       IT WILL RE-INITIALIZE ITSELF AND
000316: 05,3025           54075                           TS       FLAGWRD1                              #       CONTINUE.
000317:
000318: 05,3026           44732                           CS       P21FLBIT                              #  CLEAR P21FLAG SO THAT P21 WILL COMPUTE
000319: 05,3027           70074                           MASK     FLAGWRD0                              #  NEW BASE STATE VECTORS.
000320: 05,3030           54074                           TS       FLAGWRD0
000321:
000322: 05,3031           34747                           CAF      NUMGRPS                               #  SEE IF ANY GROUPS RUNNING.
000323: 05,3032           54161        NXTRST             TS       MPAC       +5
000324: 05,3033           60000                           DOUBLE
000325: 05,3034           50000                           INDEX    A
000326: 05,3035           10752                           CCS      PHASE1
000327: 05,3036           13040                           TCF      PACTIVE                               #  PNZ - GROUP ACTIVE.
000328: 05,3037           13045                           TCF      PINACT                                #  +0 - GROUP NOT RUNNING.
000329:
000330: 05,3040           54154        PACTIVE            TS       MPAC
000331: 05,3041           24154                           INCR     MPAC                                  #  ABS OF PHASE.
000332: 05,3042           24162                           INCR     MPAC       +6                         #  INDICATE GROUP DEMANDS PRESENT.
000333: 05,3043           04607                           TC       BANKCALL
000334: 05,3044           03530                           CADR     RESTARTS
000335: 05,3045           10161        PINACT             CCS      MPAC       +5                         #  PROCESS ALL RESTART GROUPS.
000336: 05,3046           13032                           TCF      NXTRST
000337:
000338: 05,3047           10162                           CCS      MPAC       +6                         #  NO, CHECK PHASE ACTIVITY FLAG
000339: 05,3050           12643                           TCF      ENDRSTRT                              #  PHASE ACTIVE
000340: 05,3051           34726                           CAF      BIT15                                 #  IS MODE -0
000341: 05,3052           71010                           MASK     MODREG
000342: 05,3053           00006                           EXTEND
000343: 05,3054           16011                           BZF      CALGOPOO                              #  NO
000344: 05,3055           12643                           TCF      ENDRSTRT                              #  YES
000345: 05,3056           05571        PTBAD              TC       ALARM                                 #  SET ALARM TO SHOW PHASE TABLE FAILURE.
000346: 05,3057           01107                           OCT      1107
000347:
000348: 05,3060           12506                           TCF      DOFSTRT1
000349:
000350:                                                                                                  #  ******** ****** ******


000352:                                                                                                  #  DO NOT USE GOPROG2 OR ENEMA WITHOUT CONSULTING POOH PEOPLE
000353:
000354: 05,3061     4730               OCT10000           =        BIT13
000355: 05,3061     4346               OCT30000           =        PRIO30
000356: 05,3061           06200        OCT6200            OCT      6200                                  #  SURFBIT, CMOONBIT, LMOONBIT FOR SWINITS
000357: 05,3062           32321        STIKSTRT           DEC      0.825268                              #  20 D/S MAXIMUM COMMANDED RATE
000358: 05,3063           77445        RATESTRT           DEC      -218       B-14
000359: 05,3064           21322        BOOLSTRT           OCT      21322
000360: 05,3065           00074        60DEC              DEC      60         B-14
000361: 05,3066           20100        RSFLGBTS           OCT      20100
000362: 05,3067           03434        MAXDB              OCTAL    03434                                 #  5 DEG ATTITUDE DEADBAND, SCALED AT 45.
000363:
000364: 05,3070           34740        LIGHTSET           CAF      BIT5                                  #  CHECK FOR MARK REJECT AND ERROR RESET
000365: 05,3071           00006                           EXTEND
000366: 05,3072           02016                           RAND     NAVKEYIN
000367: 05,3073           00006                           EXTEND
000368: 05,3074           13102                           BZF      NONAVKEY                              #  NO MARK REJECT
000369: 05,3075           00006                           EXTEND
000370: 05,3076           00015                           READ     MNKEYIN                               #  CHECK IF KEYS 2M AND 5M ON
000371: 05,3077           63376                           AD       -ELR                                  #  MAIN DSKY KEYCODE(BITS 1-5)
000372: 05,3100           00006                           EXTEND
000373: 05,3101           13103                           BZF      +2
000374:
000375: 05,3102           00002        NONAVKEY           TC       Q
000376:
000377: 05,3103           03107                           TC       STARTSUB
000378: 05,3104           12501                           TCF      DOFSTART
000379: 05,3105           03107                 +3        TC       STARTSUB
000380: 05,3106           12506                           TCF      DOFSTRT1                              #  DO FRESH START BUT DON'T TOUCH ENGINE
000381:


000383:                                                                                                  #           INITIALIZATION COMMON TO BOTH FRESH START AND RESTART.
000384:
000385: 05,3107  E6,1536                                  EBANK=   AOSQ
000386: 05,3107           33366        STARTSUB           CAF      LDNPHAS1                              #  SET POINTER SO NEXT 20MS DOWNRUPT WILL
000387: 05,3110           54335                           TS       DNTMGOTO                              #  CAUSE THE CURRENT DOWNLIST TO BE
000388:                                                                                                  #  INTERRUPTED AND START SENDING FROM THE
000389:                                                                                                  #  BEGINNING OF THE CURRENT DOWNLIST.
000390: 05,3111           34737                           CAF      BIT6
000391: 05,3112           00006                           EXTEND
000392: 05,3113           02033                           RAND     CHAN33
000393: 05,3114           63402                           AD       RMODINIT
000394: 05,3115           54110                           TS       RADMODES
000395:
000396: 05,3116           34724        STARTSB1           CAF      POSMAX
000397: 05,3117           54026                           TS       TIME3
000398: 05,3120           67767                           AD       MINUS2
000399: 05,3121           54027                           TS       TIME4
000400: 05,3122           67770                           AD       NEGONE
000401: 05,3123           54030                           TS       TIME5
000402:
000403: 05,3124           35006                           CAF      EBANK6
000404: 05,3125           54003                           TS       EBANK
000405:
000406: 05,3126           34724                           CAF      POSMAX                                #  DISABLE TIME6 CLOCK.  JUST IN CASE A T6
000407: 05,3127           55466                           TS       T6NEXT                                #    RUPT IS ALREADY IN THE PRIORITY CHAIN,
000408: 05,3130           00006                           EXTEND                                         #    ENSURE THAT IT'S INPUTS WILL RENDER IT
000409: 05,3131           03013                           WAND     CHAN13                                #    INEFFECTUAL.
000410: 05,3132           34746                           CAF      ZERO
000411: 05,3133           55465                           TS       NXT6ADR
000412: 05,3134           55472                           TS       NEXTP
000413:
000414: 05,3135           44742                           CS       ACCSOKAY
000415: 05,3136           70111                           MASK     DAPBOOLS
000416: 05,3137           54111                           TS       DAPBOOLS
000417:
000418: 05,3140           00006                           EXTEND                                         #  SET T5RUPT FOR DAPIDLER PROGRAM.
000419: 05,3141           33364                           DCA      IDLEADR
000420: 05,3142           53263                           DXCH     T5ADR
000421:
000422: 05,3143           40107                           CS       FLGWRD11                              #  IF R12 IS PERMITTED, ENSURE THAT NEXT
000423: 05,3144           74726                           MASK     LRBYBIT                               #   RADAR READS ARE NOT USED
000424: 05,3145           00006                           EXTEND
000425: 05,3146           13156                           BZF      STARTSB2                              #  R12 OFF
000426:
000427: 05,3147           24006                           INCR     BBANK                                 #  SET EBANK TO 7
000428: 05,3150  E7,1674                                  EBANK=   STILBADH
000429: 05,3150           11674                           CCS      STILBADH                              #  IF STILBADH>0, NEXT READ WILL BE IGNORED
000430: 05,3151           13153                           TCF      +2
000431: 05,3152           25674                           INCR     STILBADH                              #  SET STILBADH TO IGNORE NEXT READ
000432:


000434:
000435: 05,3153           11675                 +2        CCS      STILBADV
000436: 05,3154           13156                           TCF      STARTSB2                              #  IF STILBADV>0, NEXT READ WILL BE IGNORED
000437: 05,3155           25675                           INCR     STILBADV                              #  SET STILBADV TO IGNORE NEXT READ
000438:
000439: 05,3156           33375        STARTSB2           CAF      OCT30001                              #  DURING SOFTWARE RESTART, DO NOT DISTURB
000440: 05,3157           00006                           EXTEND                                         #  ENGINE ON, OFF AND ISS WARNING.
000441: 05,3160           03011                           WAND     DSALMOUT
000442:
000443: 05,3161           43371                           CS       OCT32001
000444: 05,3162           70110                           MASK     RADMODES
000445: 05,3163           54110                           TS       RADMODES
000446: 05,3164           33373                           CAF      OCT27470                              #  DURING SOFTWARE RESTART, DO NOT DISTURB
000447: 05,3165           00006                           EXTEND                                         #  IMU FLAGS. (COURSE ALIGN ENABLE, ZERO
000448: 05,3166           03012                           WAND     CHAN12                                #  IMU CDUS, ENABLE IMU COUNTER) AND GIMBAL
000449:                                                                                                  #  TRIM DRIVES. LEAVE RR LOCKON ENABLE
000450:                                                                                                  #  ALONE.
000451:
000452: 05,3167           44742                           CS       R12RDBIT                              #  R12RDFLG CLEARED TO ESCAPE FROM POSSIBLE
000453: 05,3170           70107                           MASK     FLGWRD11                              #   "CCS NEWJOB" LOOP IN VUPDAT SEC. OF R12
000454: 05,3171           54107                           TS       FLGWRD11
000455:
000456: 05,3172           44741                           CS       NORRMBIT                              #  ENABLE R25.
000457: 05,3173           70101                           MASK     FLAGWRD5
000458: 05,3174           54101                           TS       FLAGWRD5
000459:
000460: 05,3175           44732                           CS       R77FLBIT                              #  CLEAR R77FLAG
000461: 05,3176           70101                           MASK     FLAGWRD5
000462: 05,3177           54101                           TS       FLAGWRD5
000463: 05,3200           33374                           CAF      OCT74160                              #  DURING SOFTWARE RESTART, DO NOT DUSTURB
000464: 05,3201           00006                           EXTEND                                         #  TELEMETRY FLAGS, RESET TRAP FLAGS, AND
000465: 05,3202           03013                           WAND     CHAN13                                #  ENABLE T6RUPT FLAG.
000466:
000467: 05,3203           34731                           CAF      BIT12                                 #  REENABLE RUPT10 (RUPT QUICKLY
000468: 05,3204           00006                           EXTEND                                         #    RESUMES EXCEPT DURING P64)
000469: 05,3205           05013                           WOR      CHAN13
000470:
000471: 05,3206           34762                           CAF      OCT50                                 #  DURING SOFTWARE RESTART, DO NOT DISTURB
000472: 05,3207           00006                           EXTEND                                         #  GYRO ENABLE OR THRUST ENABLE
000473: 05,3210           03014                           WAND     CHAN14
000474:
000475: 05,3211           46130                           CS       OCT40001                              #  TO TURN OFF SUPER-KEYRELEASE LIGHT:
000476: 05,3212           71035                           MASK     DSPTAB     +11D                       #  TURN OFF BITS 15 AND 1 IF THEY WERE ON;
000477: 05,3213           64726                           AD       BIT15                                 #  NOW SET BIT 15 TO TRIGGER DSKY UPDATE
000478: 05,3214           55035                           TS       DSPTAB     +11D
000479:
000480: 05,3215  E3,1400                                  EBANK=   LST1
000481: 05,3215           35000                           CAF      STARTEB
000482: 05,3216           54003                           TS       EBANK                                 #  SET FOR E3
000483:
000484: 05,3217           34725                           CAF      NEG1/2                                #  INITIALIZE WAITLIST DELTA-TS.
000485:


000487: 05,3220           55407                           TS       LST1       +7
000488: 05,3221           55406                           TS       LST1       +6
000489: 05,3222           55405                           TS       LST1       +5
000490: 05,3223           55404                           TS       LST1       +4
000491: 05,3224           55403                           TS       LST1       +3
000492: 05,3225           55402                           TS       LST1       +2
000493: 05,3226           55401                           TS       LST1       +1
000494: 05,3227           55400                           TS       LST1
000495:
000496: 05,3230           45240                           CS       ENDTASK
000497: 05,3231           55410                           TS       LST2
000498: 05,3232           55412                           TS       LST2       +2
000499: 05,3233           55414                           TS       LST2       +4
000500: 05,3234           55416                           TS       LST2       +6
000501: 05,3235           55420                           TS       LST2       +8D
000502: 05,3236           55422                           TS       LST2       +10D
000503: 05,3237           55424                           TS       LST2       +12D
000504: 05,3240           55426                           TS       LST2       +14D
000505: 05,3241           55430                           TS       LST2       +16D
000506: 05,3242           45241                           CS       ENDTASK    +1
000507: 05,3243           55411                           TS       LST2       +1
000508: 05,3244           55413                           TS       LST2       +3
000509: 05,3245           55415                           TS       LST2       +5
000510: 05,3246           55417                           TS       LST2       +7
000511: 05,3247           55421                           TS       LST2       +9D
000512: 05,3250           55423                           TS       LST2       +11D
000513: 05,3251           55425                           TS       LST2       +13D
000514: 05,3252           55427                           TS       LST2       +15D
000515: 05,3253           55431                           TS       LST2       +17D
000516:
000517: 05,3254           44746                           CS       ZERO                                  #  MAKE ALL EXECUTIVE REGISTER SETS
000518: 05,3255           54167                           TS       PRIORITY                              #  AVAILABLE.
000519: 05,3256           54203                           TS       PRIORITY   +12D
000520: 05,3257           54217                           TS       PRIORITY   +24D
000521: 05,3260           54233                           TS       PRIORITY   +36D
000522: 05,3261           54247                           TS       PRIORITY   +48D
000523: 05,3262           54263                           TS       PRIORITY   +60D
000524: 05,3263           54277                           TS       PRIORITY   +72D
000525: 05,3264           54313                           TS       PRIORITY   +84D
000526:
000527: 05,3265           55310                           TS       DSRUPTSW
000528: 05,3266           54067                           TS       NEWJOB                                #  SHOWS NO ACTIVE JOBS.
000529:
000530: 05,3267           33370                           CAF      VAC1ADRC                              #  MAKE ALL VAC AREAS AVAILABLE.
000531: 05,3270           54400                           TS       VAC1USE
000532: 05,3271           63372                           AD       LTHVACA
000533: 05,3272           54454                           TS       VAC2USE
000534: 05,3273           63372                           AD       LTHVACA
000535: 05,3274           54530                           TS       VAC3USE
000536: 05,3275           63372                           AD       LTHVACA
000537:


000539: 05,3276           54604                           TS       VAC4USE
000540: 05,3277           63372                           AD       LTHVACA
000541: 05,3300           54660                           TS       VAC5USE
000542:
000543: 05,3301           34354                           CAF      TEN
000544: 05,3302           54154        DSPOFF             TS       MPAC                                  #  R1, R2, R3).
000545: 05,3303           44731                           CS       BIT12
000546: 05,3304           50154                           INDEX    MPAC
000547: 05,3305           55022                           TS       DSPTAB
000548: 05,3306           10154                           CCS      MPAC
000549: 05,3307           13302                           TCF      DSPOFF
000550:
000551: 05,3310           55323                           TS       DELAYLOC
000552: 05,3311           55324                           TS       DELAYLOC   +1
000553: 05,3312           55325                           TS       DELAYLOC   +2
000554: 05,3313           54045                           TS       INLINK
000555: 05,3314           54775                           TS       DSPCNT
000556: 05,3315           55041                           TS       CADRSTOR
000557: 05,3316           55012                           TS       REQRET
000558: 05,3317           55014                           TS       CLPASS
000559: 05,3320           55011                           TS       DSPLOCK
000560: 05,3321           55017                           TS       MONSAVE                               #  KILL MONITOR
000561: 05,3322           55020                           TS       MONSAVE1
000562: 05,3323           55000                           TS       VERBREG
000563: 05,3324           55001                           TS       NOUNREG
000564: 05,3325           55042                           TS       DSPLIST
000565: 05,3326           55307                           TS       MARKSTAT
000566: 05,3327           55043                           TS       EXTVBACT                              #  MAKE EXTENDED VERBS AVAILABLE
000567: 05,3330           55301                           TS       IMUCADR
000568: 05,3331           55302                           TS       OPTCADR
000569: 05,3332           55303                           TS       RADCADR
000570: 05,3333           55304                           TS       ATTCADR
000571: 05,3334           55311                           TS       LGYRO
000572: 05,3335           55776                           TS       OLDAGS                                #  ZERO OUT LAST MARKTIME SENT TO AGS
000573: 05,3336           55777                           TS       OLDAGS     +1                         #  BY P20
000574: 05,3337           54100                           TS       FLAGWRD4                              #  KILL INTERFACE DISPLAYS
000575: 05,3340           34751                           CAF      NOUTCON
000576: 05,3341           55015                           TS       NOUT
000577:
000578: 05,3342           34727                           CAF      BIT14
000579: 05,3343           55073                           TS       AGSCODE                               #  AGSCODE DOWNLIST CODE = RESET CONFIG
000580:
000581: 05,3344           34737                           CAF      BIT6
000582: 05,3345           71300                           MASK     IMODES33                              #  LEAVE BIT 6 UNCHANGED
000583: 05,3346           65017                           AD       IM33INIT                              #  NO PIP OR TM FAILS.BIT6=0 IN THIS WORD.
000584: 05,3347           55300                           TS       IMODES33
000585:
000586: 05,3350           33367                           CAF      LESCHK                                #  SELF CHECK GO-TO REGISTER.
000587: 05,3351           55361                           TS       SELFRET
000588:


000590:
000591: 05,3352           44351                           CS       VD1
000592: 05,3353           54776                           TS       DSPCOUNT
000593:
000594: 05,3354           00006                           EXTEND                                         #  SET UP A JOB TO DO 1/ACCS AND TO ZERO
000595: 05,3355           22070                           QXCH     RUPTREG1                              #  THE OFFSET ACCELERATION ESTIMATE.
000596:
000597: 05,3356           37736                           CAF      PRIO27
000598: 05,3357           05063                           TC       NOVAC
000599: 05,3360  E6,1536                                  EBANK=   AOSQ
000600: 05,3360           03576 42066                     2CADR    1/ACCSET
000601:
000602:
000603: 05,3362           00070                           TC       RUPTREG1                              #  RETURN TO CALLER.
000604:
000605:
000606: 05,3363  E6,1536                                  EBANK=   AOSQ
000607: 05,3363           02037 34066  IDLEADR            2CADR    DAPIDLER
000608:
000609: 05,3365           00435        IFAILINH           OCT      435
000610: 05,3366           03524        LDNPHAS1           GENADR   DNPHASE1
000611: 05,3367           03341        LESCHK             GENADR   SELFCHK
000612: 05,3370           00400        VAC1ADRC           ADRES    VAC1USE
000613: 05,3371           32001        OCT32001           OCT      32001
000614: 05,3372           00054        LTHVACA            DEC      44         B-14
000615:
000616: 05,3373           27470        OCT27470           OCT      27470
000617: 05,3374           74160        OCT74160           OCT      74160
000618: 05,3375           30001        OCT30001           OCT      30001
000619: 05,3376     5000               STARTEB            EQUALS   EBANK3
000620: 05,3376     4747               NUMGRPS            EQUALS   FIVE
000621: 05,3376           77755        -ELR               OCT      -22                                   #  -ERROR LIGHT RESET KEY CODE.
000622: 05,3377           37411        IM30INIF           OCT      37411                                 #  INHIBITS IMU FAIL FOR 5 SEC AND PIP ISSW
000623: 05,3400           37000        IM30INIR           OCT      37000
000624: 05,3401     5017               IM33INIT           =        PRIO16                                #  NO PIP OR TM FAIL SIGNALS.
000625: 05,3401           00450        9,6,4              OCT      450
000626: 05,3402           00102        RMODINIT           OCT      00102
000627: 05,3403           00000        SWINIT             OCT      0
000628: 05,3404           00000                           OCT      0
000629: 05,3405           00000                           OCT      0
000630: 05,3406           00000                           OCT      0
000631: 05,3407           00000                           OCT      0
000632: 05,3410           00000                           OCT      0
000633: 05,3411           00000                           OCT      0
000634: 05,3412           00100                           OCT      00100
000635:
000636: 05,3413           00000                           OCT      0
000637: 05,3414           00000                           OCT      0
000638: 05,3415           00000                           OCT      0
000639: 05,3416           40000                           OCT      40000                                 #  BIT 15 = LRBYPASS.
000640:


000642:                                                                                                  #  PROGRAM NAME    GOTOPOOH                   ASSEMBLY       SUNDANCE
000643:                                                                                                  #  LOG SECTION     FRESH START AND RESTART
000644:
000645:                                                                                                  #  FUNCTIONAL DESCRIPTION
000646:
000647:                                                                                                  #        FLASH V 37 ON DSKY %MM CHANGE REQUEST "
000648:
000649:                                                                                                  #  INPUT/OUTPUT INFORMATION
000650:
000651:                                                                                                  #        A. CALLING SEQUENCE        TC GOTOPOOH
000652:
000653:                                                                                                  #        B. ERASABLE INITIALIZATION       NONE
000654:
000655:                                                                                                  #        C. OUTPUT FLASH V 37 ON DSKY
000656:
000657:                                                                                                  #        D. DEBRIS       L
000658:
000659:                                                                                                  #  PROGRAM ANALYSIS
000660:
000661:                                                                                                  #        A. SUBROUTINES CALLED PRIODSPR,  LINUS
000662:
000663:                                                                                                  #        B. NORMAL EXIT        TCF ENDOFJOB
000664:
000665:                                                                                                  #        C. ALARM AND ABORT EXITS       NONE
000666:
000667:    6001                                           BLOCK    03
000668:    6000                                           SETLOC   FFTAG5
000669:    6000                                           BANK
000670:
000671:    6001                                           COUNT*   $$/P00
000672:    6001           34755        GOTOPOOH           CAF      OCT33                                 #  4.33 SPOT FOR GOPOOFIX
000673:    6002           54001                           TS       L
000674:    6003           40000                           COM
000675:    6004           52760                           DXCH     -PHASE4
000676:
000677:    6005           04626                           TC       POSTJUMP
000678:    6006           10040                           CADR     GOPOOFIX
000679:    6007           00024        OCT24              MM       20         B-14
000680:    6010           00031        OCT31              MM       25         B-14
000681:
000682:
000683:
000684:
000685:    6011           34346        CALGOPOO           CAF      PRIO30
000686:    6012           05063                           TC       NOVAC
000687:    6013  E7,1471                                  EBANK=   WHOCARES
000688:    6013           06001 06067                     2CADR    GOTOPOOH
000689:    6015           04626                           TC       POSTJUMP
000690:    6016           03212                           CADR     DUMMYJOB   +2
000691:


000693: 20,2004                                           BANK     20
000694: 04,2000                                           SETLOC   VERB37
000695: 04,2000                                           BANK
000696:
000697: 04,2040                                           COUNT*   $$/P00                                #  VERB 37 AND P00 IN BANK 4.
000698: 04,2040           05520        GOPOOFIX           TC       DOWNFLAG                              #  ALLOW X-AXIS OVERRIDE
000699: 04,2041           00311                           ADRES    XOVINFLG
000700:
000701: 04,2042           05520                           TC       DOWNFLAG                              #  INSURE THAT ULLAGE IS OFF
000702: 04,2043           00314                           ADRES    ULLAGFLG
000703:
000704: 04,2044           05500                           TC       CLEARMRK   +2                         #  RELEASE MARK DISPLAY SYSTEM.
000705: 04,2045           32053                           CAF      V37N99
000706: 04,2046           04607                           TC       BANKCALL
000707: 04,2047           20471                           CADR     GOFLASH
000708: 04,2050           12045                           TCF      -3
000709: 04,2051           12045                           TCF      -4
000710: 04,2052           12045                           TCF      -5
000711:
000712: 04,2053           11343        V37N99             VN       3799
000713:


000715:                                                                                                  #  PROGRAM NAME          V37                     ASSEMBLY SUNDANCE
000716:
000717:                                                                                                  #  LOG SECTION     FRESH START AND RESTART
000718:
000719:                                                                                                  #  FUNCTIONAL DESCRIPTION
000720:
000721:                                                                                                  #        1. CHECK IF NEW PROGRAM ALLOWED. IF BIT 1 OF FLAGWRD2(NODOFLAG) IS SET, AN ALARM 1520 IS CALLED.
000722:                                                                                                  #        2. CHECK FOR VALIDITY OF PROGRAM SELECTED. IF AN INVALID PROGRAM  IS SELECTED, THE OPERATOR ERROR LIGHT IS
000723:                                                                                                  #           SET AND CURRENT ACTIVITY, IF ANY, CONTINUES.
000724:                                                                                                  #        3. SERVICER IS TERMINATED IF IT HAS BEEN RUNNING.
000725:                                                                                                  #        4. INSTALL IS EXECUTED TO AVOID INTERRUPTING INTEGRATION.
000726:                                                                                                  #        5. THE ENGINE IS TURNED OFF AND THE DAP IS INITIALIZED FOR COAST.
000727:                                                                                                  #        6. TRACK AND UPDATE FLAGS ARE SET TO ZERO.
000728:                                                                                                  #        7. DISPLAY SYSTEM IS RELEASED.
000729:                                                                                                  #        8. THE FOLLOWING ARE PERFORMED FOR EACH OF THE THREE CASES.
000730:                                                                                                  #           A. PROGRAM SELECTED IS P00.
000731:                                                                                                  #              1. RENDEZVOUS AND P25 FLAGS ARE RESET.(KILL P20 AND P25)
000732:                                                                                                  #              2. STATINT1     IS SCHEDULED BY SETTING RESTART GROUP 2.
000733:                                                                                                  #              3. MAJOR MODE 00 IS STORED IN THE MODE REGISTER (MODREG).
000734:                                                                                                  #              4. SUPERBANK 3 IS SELECTED.
000735:                                                                                                  #              5. NODOFLAG IS RESET.
000736:                                                                                                  #              6. ALL RESTART GROUPS EXCEPT GROUP 2 ARE CLEARED. CONTROL ISTRANSFERRED TO RESTART PROGRAM (GOPROG2)
000737:                                                                                                  #                 WHICH CAUSES ALL CURRENT ACTIVITY TO BE DISCONTINUED AND A 9 MINUTE INTEGRATION CYCLE TO BE
000738:                                                                                                  #                 INITIATED.
000739:                                                                                                  #           B. PROGRAM SELECTED IS P20 OR P25.
000740:                                                                                                  #              1. IF THE CURRENT MAJOR MODE IS THE SAME AS THE SELECTED NEWPROGRAM, THE PROGRAM IS RE-INITIALIZED
000741:                                                                                                  #                 VIA V37XEQ, ALL RESTART GROUPS, EXCEPT GROUP 4 ARE CLEARED.
000742:                                                                                                  #              2. IF THE CURRENT MAJOR MODE IS NOT EQUAL TO THE NEW REQUEST, A CHECK IS MADE TO SEE IF THE REQUEST-
000743:                                                                                                  #                 ED MAJOR MODE HAS BEEN RUNNING IN THE BACKGROUND,
000744:                                                                                                  #                 AND IF IT HAS, NO NEW PROGRAM IS SCHEDULED, THE EXISTING
000745:                                                                                                  #                 P20 OR P25 IS RESTARTED TO CONTINUE, AND ITS M M IS SET.
000746:                                                                                                  #              3. CONTROL IS TRANSFERRED TO GOPROG2.
000747:                                                                                                  #           C. PROGRAM SELECTED IS NEITHER P00,P20, NOR P25
000748:                                                                                                  #              1. V37XEQ IS SCHEDULED (AS A JOB) BY SETTING RESTART GROUP 4
000749:                                                                                                  #              2. ALL CURRENT ACTIVITY EXCEPT RENDEZVOUS AND TRACKING IS DISCONTINUED BY CLEARING ALL RESTART
000750:                                                                                                  #                 GROUPS. IF THE RENDEZVOUS OR THE P25 FLAG IS ON, GROUP 2 IS NOT CLEARED, ALLOWING THESE PROGRAMS
000751:                                                                                                  #                 TO CONTINUE.
000752:
000753:                                                                                                  #  INPUT/OUTPUT INFORMATION
000754:
000755:                                                                                                  #        A. CALLING SEQUENCE
000756:
000757:                                                                                                  #            CONTROL IS DIRECTED TO V37 BY THE VERBFAN ROUTINE.
000758:                                                                                                  #               VERBFAN GOES TO C(VERBTAB+C(VERBREG)). VERB 37 = MMCHANG.
000759:                                                                                                  #               MMCHANG EXECUTES A   TC POSTJUMP, CADR V37.
000760:
000761:                                                                                                  #        B. ERASABLE INITIALIZATION      NONE
000762:
000763:                                                                                                  #        C. OUTPUT
000764:


000766:                                                                                                  #            MAJOR MODE CHANGE
000767:
000768:                                                                                                  #        D. DEBRIS
000769:                                                                                                  #             MMNUMBER, MPAC +1, MINDEX, BASETEMP +C(MINDEX), FLAGWRD0, FLAGWRD1, FLAGWRD2, MODREG, GOLOC -1,
000770:                                                                                                  #             GOLOC, GOLOC +1, GOLOC +2, BASETEMP, -PHASE2, PHASE2, -PHASE4
000771:
000772:                                                                                                  #  PROGRAM ANALYSIS
000773:
000774:                                                                                                  #        A. SUBROUTINES CALLED
000775:                                                                                                  #             ALARM, RELDSP, PINBRNCH, INTSTALL, ENGINOF2, ALLCOAST, V37KLEAN, GOPROG2, FALTON, FINDVAC, SUPERSW,
000776:                                                                                                  #             DSPMM
000777:
000778:                                                                                                  #        B. NORMAL EXIT        TC ENDOFJOB
000779:
000780:                                                                                                  #        C. ALARMS      1520 (MAJOR MODE CHANGE NOT PERMITTED)
000781:
000782: 04,2054           54774        V37                TS       MMNUMBER                              #  SAVE MAJOR MODE
000783: 04,2055           34346                           CAF      PRIO30                                #  RESTART AT PINBALL PRIORITY
000784: 04,2056           55264                           TS       RESTREG
000785:
000786: 04,2057           31277                           CA       IMODES30                              #  IS IMU BEING INITIALIZED
000787: 04,2060           74737                           MASK     BIT6
000788: 04,2061           10000                           CCS      A
000789: 04,2062           12105                           TCF      CANTROD
000790:
000791: 04,2063           34740                           CA       BIT5                                  #  IS IMUZERO IN PROGRESS
000792: 04,2064           71300                           MASK     IMODES33
000793: 04,2065           10000                           CCS      A                                     #     IF SO DAP IS OFF
000794: 04,2066           12105                           TCF      CANTROD
000795:
000796: 04,2067           40774                           CS       MMNUMBER                              #  IS P70 REQUESTED?
000797: 04,2070           62435                           AD       DEC70
000798: 04,2071           00006                           EXTEND
000799: 04,2072           12430                           BZF      SETUP70                               #  YES
000800: 04,2073           64744                           AD       ONE                                   #  IS P71 REQUESTED?
000801: 04,2074           00006                           EXTEND
000802: 04,2075           12427                           BZF      SETUP71                               #  YES
000803:
000804: 04,2076           30774                           CA       MMNUMBER                              #  IS NEW REQUEST POO
000805: 04,2077           00006                           EXTEND
000806: 04,2100           12127                           BZF      ISSERVON                              #  YES, CHECK SERVICER STATUS
000807:
000808: 04,2101           40076                           CS       FLAGWRD2                              #  NO, IS NODO V37 FLAG SET
000809: 04,2102           74744                           MASK     NODOBIT
000810: 04,2103           10000                           CCS      A
000811: 04,2104           12112                           TCF      CHECKTAB                              #  NO
000812: 04,2105           05571        CANTROD            TC       ALARM
000813: 04,2106           01520                           OCT      1520
000814:
000815: 04,2107           04450        V37BAD             TC       RELDSP                                #  RELEASES DISPLAY FROM ASTRONAUT
000816:


000818:
000819: 04,2110           04626                           TC       POSTJUMP                              #  BRING BACK LAST NORMAL DISPLAY IF THERE
000820: 04,2111           21062                           CADR     PINBRNCH                              #  WAS ONE. OTHERWISE DO AN EOJ.
000821:
000822: 04,2112           32524        CHECKTAB           CA       NOV37MM                               #  INDEX FOR MM TABLES.
000823: 04,2113           54155        AGAINMM            TS       MPAC       +1
000824: 04,2114           50155                           NDX      MPAC       +1
000825: 04,2115           32472                           CA       PREMM1                                #  OBTAIN WHICH MM THIS IS FOR
000826: 04,2116           76115                           MASK     LOW7
000827: 04,2117           40000                           COM
000828: 04,2120           60774                           AD       MMNUMBER
000829: 04,2121           10000                           CCS      A
000830: 04,2122           10155                           CCS      MPAC       +1                         #  IF GR, SEE IF ANY MORE IN LIST
000831: 04,2123           12113                           TCF      AGAINMM                               #  YES, GET NEXT ONE
000832: 04,2124           12360                           TCF      V37NONO                               #  LAST TIME OR PASSED MM
000833:
000834: 04,2125           30155                           CA       MPAC       +1
000835: 04,2126           54773                           TS       MINDEX                                #  SAVE INDEX FOR LATER
000836:
000837: 04,2127           40103        ISSERVON           CS       FLAGWRD7                              #  V37 FLAG SET - I.E. IS SERVICER GOING
000838: 04,2130           74737                           MASK     V37FLBIT
000839: 04,2131           10000                           CCS      A
000840: 04,2132           12160                           TCF      CANV37                                #  NO
000841:
000842: 04,2133           04720                           TC       SUPERSW
000843: 04,2134           00004                           INHINT
000844: 04,2135           04665                           TC       IBNKCALL                              #  YES, TURN ENGINE OFF
000845: 04,2136           75556                           CADR     ENGINOF1
000846: 04,2137           05520                           TC       DOWNFLAG                              #  NOW TURN OFF THE AVERAGE G FLAG AND
000847: 04,2140           00163                           ADRES    AVEGFLAG                              #  WAIT FOR SERVICER TO RETURN TO V37RET.
000848:
000849: 04,2141           06050                           TC       KILLTASK
000850: 04,2142           74350                           CADR     ULLGTASK
000851:
000852: 04,2143           15146                           TCF      ENDOFJOB
000853:
000854: 04,2144           40074        V37RET             CS       FLAGWRD0                              #  IS P20 OR P22 RUNNING?
000855: 04,2145           74736                           MASK     RNDVZBIT
000856: 04,2146           10000                           CCS      A
000857: 04,2147           12151                           TCF      +2                                    #  NO. CHECK FOR P25.
000858: 04,2150           12156                           TCF      2.7SPT                                #  YES.  DO 2.7SPOT
000859: 04,2151           40074                           CS       FLAGWRD0                              #  IS P25 RUNNING?
000860: 04,2152           74734                           MASK     P25FLBIT
000861: 04,2153           10000                           CCS      A
000862: 04,2154           32424        2.0SPT             CA       OCT37667
000863: 04,2155           64740        2.11SPT            AD       BIT5
000864: 04,2156           62425        2.7SPT             AD       OCT40072
000865: 04,2157           05361                           TC       PHSCHNGA
000866:
000867: 04,2160           34746        CANV37             CAF      ZERO
000868: 04,2161           00006                           EXTEND
000869:


000871:
000872: 04,2162           01007                           WRITE    SUPERBNK
000873:
000874: 04,2163           32423                           CAF      ROOAD
000875: 04,2164           54373                           TS       TEMPFLSH
000876:
000877: 04,2165           05355                           TC       PHASCHNG
000878: 04,2166           00014                           OCT      14
000879:
000880: 04,2167           06060        ROO                TC       INTPRET
000881:
000882: 04,2170           77624                           CALL                                           #  WAIT FOR INTEGRATION TO FINISH
000883: 04,2171           27447                                    INTSTALL
000884: 04,2172           77776        DUMMYAD            EXIT
000885:
000886: 04,2173           05520                           TC       DOWNFLAG
000887: 04,2174           00124                           ADRES    3AXISFLG                              #  RESET 3-AXIS FLAG
000888:
000889: 04,2175           05520                           TC       DOWNFLAG
000890: 04,2176           00055                           ADRES    POOHFLAG
000891:
000892: 04,2177           05520                           TC       DOWNFLAG                              #  CLEAR FOR NORMAL INFLIGHT MARKING
000893: 04,2200           00222                           ADRES    FLT59FLG
000894:
000895: 04,2201           34726                           CAF      LRBYBIT                               #  CLEAN UP THE R12 FLAGWORD.
000896: 04,2202           54107                           TS       FLGWRD11
000897:
000898: 04,2203           05520                           TC       DOWNFLAG                              #  INSURE THAT THE R04FLAG IS CLEAR.
000899: 04,2204           00063                           ADRES    R04FLAG
000900:
000901: 04,2205           05520                           TC       DOWNFLAG
000902: 04,2206           00056                           ADRES    GLOKFAIL                              #  FLAGWORD 3 BIT 14
000903:
000904: 04,2207           05520                           TC       DOWNFLAG                              #  INSURE MUNFLAG IS CLEAR.
000905: 04,2210           00141                           ADRES    MUNFLAG
000906:
000907: 04,2211           05520                           TC       DOWNFLAG                              #  RESET ABORT TARGETING FLAG (USE
000908: 04,2212           00217                           ADRES    ABTTGFLG                              #    PARAMETERS J1 AND KU)
000909:
000910: 04,2213           05520                           TC       DOWNFLAG                              #  ALLOW X-AXIS OVERRIDE.
000911: 04,2214           00311                           ADRES    XOVINFLG
000912: 04,2215           10774                           CCS      MMNUMBER                              #  IS THIS A POOH REQUEST
000913: 04,2216           12346                           TCF      NOUVEAU                               #  NO, PICK UP NEW PROGRAM
000914:
000915: 04,2217           04450        POOH               TC       RELDSP                                #  RELEASE DISPLAY SYSTEM
000916:
000917: 04,2220           35010                           CAF      PRIO5                                 #  SET VARIABLE RESTART PRIORITY FOR
000918: 04,2221           55055                           TS       PHSPRDT2                              #  P00 INTEGRATION.
000919:
000920: 04,2222           06027                           TC       CLRADMOD                              #  CLRADMOD DOES AN INHINT.
000921:


000923: 04,2223           44744                           CS       NODOBIT                               #  TURN OFF NODOFLAG.
000924: 04,2224           70076                           MASK     FLAGWRD2
000925: 04,2225           54076                           TS       FLAGWRD2
000926:
000927: 04,2226           34747                           CA       FIVE                                  #  SET RESTART FOR STATEINT1
000928: 04,2227           54001                           TS       L
000929: 04,2230           40000                           COM
000930: 04,2231           52754                           DXCH     -PHASE2
000931:
000932: 04,2232           42426                           CS       OCT700                                #  TURN OFF P20,P25,IMU IN USE FLAG
000933: 04,2233           70074                           MASK     FLAGWRD0
000934: 04,2234           54074                           TS       FLAGWRD0                              #                         RENDFLG
000935:
000936: 04,2235           34746                           CAF      DNLADP00
000937:
000938: 04,2236           54333        SEUDOPOO           TS       DNLSTCOD                              #  SET UP APPROPRIATE DOWNLIST CODE
000939: 04,2237           55321                           TS       AGSWORD                               #   (CURRENT LIST WILL BE COMPLETED BEFORE
000940:                                                                                                  #    NEW ONE IS STARTED)
000941:
000942: 04,2240           44732                           CS       NOP07BIT
000943: 04,2241           70077                           MASK     FLAGWRD3
000944: 04,2242           64732                           AD       NOP07BIT
000945: 04,2243           54077                           TS       FLAGWRD3
000946:
000947: 04,2244           04665                           TC       IBNKCALL                              #  INSURE ALLCOAST.
000948: 04,2245           40205                           CADR     ALLCOAST                              #  DOES A RESTORDB.
000949:
000950: 04,2246           44766                           CS       OCT120                                #  TURN OFF TRACK, UPDATE FLAGS
000951: 04,2247           55071                           TS       EBANKTEM
000952: 04,2250           70075                           MASK     FLAGWRD1
000953: 04,2251           54075                           TS       FLAGWRD1
000954:
000955: 04,2252           04665                           TC       IBNKCALL                              #  KILL GROUPS 1,3,5,6
000956: 04,2253           12654                           CADR     V37KLEAN
000957:
000958: 04,2254           10774                           CCS      MMNUMBER                              #  IS IT POOH
000959: 04,2255           12264                           TCF      RENDV00                               #  NO
000960: 04,2256           04665        GOMOD              TC       IBNKCALL                              #  REDUNDANT EXCEPT FOR GROUP 4
000961: 04,2257           12651                           CADR     POOKLEAN
000962:
000963: 04,2260           30774                           CA       MMNUMBER
000964: 04,2261           55010                           TS       MODREG
000965:
000966: 04,2262           04626        GOGOPROG           TC       POSTJUMP
000967: 04,2263           12772                           CADR     GOPROG2
000968:
000969: 04,2264           41010        RENDV00            CS       MODREG                                #  IS CURRENT PROGRAM 22
000970: 04,2265           62364                           AD       OCT26
000971: 04,2266           00006                           EXTEND
000972: 04,2267           12306                           BZF      RESET22                               #  YES - CLEAR RENDEZVOUS FLAG
000973:


000975: 04,2270           40774                           CS       MMNUMBER                              #  IS NEW PROGRAM P22
000976: 04,2271           62364                           AD       OCT26
000977: 04,2272           00006                           EXTEND
000978: 04,2273           12306                           BZF      RESET22
000979:
000980:
000981: 04,2274           67767                           AD       NEG2                                  #  IS NEW PROGRAM = P20 OR P25
000982: 04,2275           00006                           EXTEND
000983: 04,2276           12320                           BZF      RENDNOO                               #  YES
000984: 04,2277           64747                           AD       FIVE                                  #  25
000985: 04,2300           00006                           EXTEND
000986: 04,2301           12320                           BZF      RENDNOO                               #  YES
000987:
000988: 04,2302           32362                           CA       OCT500                                #  NO, IS EITHER P20 OR P25 RUNNING
000989: 04,2303           70074                           MASK     FLAGWRD0
000990: 04,2304           10000                           CCS      A
000991: 04,2305           12315                           TCF      POOFIZZ                               #  YES, LEAVE GROUP 2 TO PICK UP P20 OR P25
000992:
000993: 04,2306           42426        RESET22            CS       OCT700                                #  CLEAR RENDEZVOUS,P25
000994: 04,2307           70074                           MASK     FLAGWRD0                              #  AND IMU IN USE FLAGS
000995: 04,2310           54074                           TS       FLAGWRD0
000996: 04,2311           06027                           TC       CLRADMOD
000997:
000998: 04,2312           00006        KILL2              EXTEND                                         #  NO, KILL 2
000999: 04,2313           34746                           DCA      NEG0
001000: 04,2314           52754                           DXCH     -PHASE2
001001:
001002: 04,2315           32422        POOFIZZ            CAF      V37QCAD                               #  RESTART POINT FOR V37XEQ
001003: 04,2316           54373                           TS       TEMPFLSH
001004:
001005: 04,2317           12262                           TCF      GOGOPROG
001006:
001007: 04,2320           41010        RENDNOO            CS       MODREG
001008: 04,2321           66007                           AD       OCT24
001009: 04,2322           00006                           EXTEND
001010: 04,2323           12312                           BZF      KILL2                                 #  P20 OR P25 ON TOP OF P20 OR P25 -
001011:
001012: 04,2324           64747                           AD       FIVE
001013: 04,2325           00006                           EXTEND
001014: 04,2326           12312                           BZF      KILL2
001015:
001016: 04,2327           32362                           CA       OCT500
001017: 04,2330           70074                           MASK     FLAGWRD0
001018: 04,2331           60774                           AD       MMNUMBER
001019: 04,2332           40000                           COM
001020: 04,2333           62365                           AD       P20REG                                #  IS IT 20 AND IS RENDEZVOUS FLAG ON
001021: 04,2334           00006                           EXTEND
001022: 04,2335           12342                           BZF      STATQUO                               #  YES
001023: 04,2336           62363                           AD       OCT305                                #  IS IT 25 AND IS P25 BIT ON
001024: 04,2337           00006                           EXTEND
001025:


001027: 04,2340           12342                           BZF      STATQUO                               #  YES, LEAVE AS IS
001028: 04,2341           12312                           TCF      KILL2
001029:
001030: 04,2342           40075        STATQUO            CS       FLAGWRD1                              #  SET TRACKFLAG
001031: 04,2343           74766                           MASK     OCT120                                #      UPDATE FLAG
001032: 04,2344           26075                           ADS      FLAGWRD1
001033:
001034: 04,2345           12256                           TCF      GOMOD
001035:
001036: 04,2346           32362        NOUVEAU            CAF      OCT500                                #  IS P20 OR P25 FLAG SET
001037: 04,2347           70074                           MASK     FLAGWRD0
001038: 04,2350           10000                           CCS      A
001039: 04,2351           12354                           TCF      +3                                    #  YES
001040: 04,2352           05520                           TC       DOWNFLAG                              #  NO, RESET IMUINUSE FLAG
001041: 04,2353           00007                           ADRES    IMUSE
001042:
001043: 04,2354           50773                           INDEX    MINDEX
001044: 04,2355           32525                           CAF      DNLADMM1                              #  OBTAIN APPROPRIATE DOWNLIST ADDRESS
001045:
001046: 04,2356           00004                           INHINT
001047: 04,2357           12236                           TCF      SEUDOPOO
001048:
001049: 04,2360           04355        V37NONO            TC       FALTON                                #  COME HERE IF MM REQUESTED DOESNT EXIST
001050:
001051: 04,2361           12107                           TCF      V37BAD
001052:
001053: 04,2362     4741               OCT00010           EQUALS   BIT4
001054: 04,2362           00500        OCT500             OCT      500                                   #  BITS 7 AND 9
001055: 04,2363           00305        OCT305             OCT      305
001056: 04,2364           00026        OCT26              OCT      26
001057: 04,2365           00124        P20REG             OCT      124
001058:
001059: 04,2366           00004        V37XEQ             INHINT
001060: 04,2367           50773                           INDEX    MINDEX
001061: 04,2370           32472                           CAF      PREMM1                                #  OBTAIN PRIO, EBANK, AND MM
001062: 04,2371           55057                           TS       MMTEMP
001063: 04,2372           54020                           TS       CYR                                   #  SHIFT RIGHT TO BITS 14 - 10
001064:
001065: 04,2373           30020                           CA       CYR
001066: 04,2374           77746                           MASK     PRIO37
001067: 04,2375           55061                           TS       PHSPRDT4                              #  PRESET GROUP 4 RESTART PRIORITY
001068: 04,2376           54063                           TS       NEWPRIO                               #  STORE PRIO FOR SPVAC
001069:
001070: 04,2377           31057                           CA       MMTEMP                                #  OBTAIN EBANK - BITS 8, 9, 10 OF MMTEMP.
001071: 04,2400           00006                           EXTEND
001072: 04,2401           74735                           MP       BIT8
001073: 04,2402           74750                           MASK     LOW3
001074: 04,2403           54001                           TS       L
001075:
001076: 04,2404           50773                           INDEX    MINDEX
001077:


001079: 04,2405           32440                           CAF      FCADRMM1
001080: 04,2406           55060                           TS       BASETEMP                              #  MAKE BBCON BY ADDING HI5 OF FCADR
001081: 04,2407           74341                           MASK     HI5
001082: 04,2410           26001                           ADS      L
001083:
001084: 04,2411           31060                           CA       BASETEMP                              #  OBTAIN GENADR PORTION OF 2CADR.
001085: 04,2412           75003                           MASK     LOW10
001086: 04,2413           64732                           AD       BIT11
001087:
001088: 04,2414           05107                           TC       SPVAC
001089:
001090: 04,2415           31057        V37XEQC            CA       MMTEMP                                #  UPON RETURN FROM FINDVAC PLACE THE
001091: 04,2416           76115                           MASK     LOW7                                  #  NEW MM IN MODREG (THE LOW 7 BITS OF
001092: 04,2417           05316                           TC       NEWMODEA                              #  PHSPRDT1)
001093:
001094: 04,2420           04450                           TC       RELDSP                                #  RELEASE DISPLAY
001095: 04,2421           05146                           TC       ENDOFJOB                              #  AND EXIT
001096:
001097: 04,2422     5652               NEG7               EQUALS   OCT77770
001098:
001099: 04,2422     1057               MMTEMP             EQUALS   PHSPRDT3
001100: 04,2422     1060               BASETEMP           EQUALS   TBASE4
001101: 04,2422           10371        V37QCAD            CADR     V37XEQ     +3
001102: 04,2423           10172        ROOAD              CADR     DUMMYAD
001103: 04,2424           37667        OCT37667           OCT      37667
001104: 04,2425           40072        OCT40072           OCT      40072
001105: 04,2426           00700        OCT700             OCT      700
001106:
001107: 04,2427           36266        SETUP71            CAF      THREE
001108: 04,2430           54002        SETUP70            TS       Q
001109: 04,2431           00006                           EXTEND
001110: 04,2432           32437                           DCA      P70CADR
001111: 04,2433           60002                           AD       Q
001112: 04,2434           52006                           DTCB
001113:
001114: 04,2435           00106        DEC70              DEC      70         B-14
001115: 04,2436  E7,1520                                  EBANK=   R
001116: 04,2436           02132 42067  P70CADR            2CADR    P70
001117:                                                                                                  #  FOR VERB 37 TWO TABLES ARE MAINTAINED. EACH TABLE HAS AN ENTRY FOR EACH
001118:                                                                                                  #  MAJOR MODE THAT CAN BE STARTED FROM THE KEYBOARD. THE ENTRIES ARE PUT
001119:                                                                                                  #  INTO THE TABLE WITH THE ENTRY FOR THE HIGHEST MAJOR MODE COMING FIRST,
001120:
001121:                                                                                                  #  TO THE LOWEST MAJOR MODE WHICH IS THE LAST ENTRY IN EACH TABLE.
001122:
001123:                                                                                                  #           THE FCADRMM TABLE CONTAINS THE FCADR OF THE STARTING JOB OF
001124:                                                                                                  #  THE MAJOR MODE.   FOR EXAMPLE,
001125:
001126:                                                                                                  #                                          FCADRMM1 FCADR   P79             START OF P 79
001127:                                                                                                  #                                                   FCADR   PROG18          START OF P 18
001128:


001130:                                                                                                  #                                                   FCADR   P01             START OF P 01
001131:                                                                                                  #  NOTE.    THE FIRST ENTRY MUST BE LABLED FCADRMM1.
001132:                                                                                                  #  ----
001133:
001134: 04,2440                        FCADRMM1           EQUALS
001135: 04,2440           26207                           FCADR    P76ER77
001136: 04,2441           26207                           FCADR    P76ER77
001137: 04,2442           72647                           FCADR    P75
001138: 04,2443           72457                           FCADR    P74
001139: 04,2444           72225                           FCADR    P73
001140: 04,2445           72036                           FCADR    P72
001141: 04,2446           71271                           FCADR    LANDJUNK
001142: 04,2447           64602                           FCADR    P63LM
001143: 04,2450           33274                           FCADR    P57
001144: 04,2451           32201                           FCADR    PROG52
001145: 04,2452           31404                           FCADR    P51
001146: 04,2453           75437                           FCADR    P47LM
001147: 04,2454           75411                           FCADR    P42LM
001148: 04,2455           75271                           FCADR    P41LM
001149: 04,2456           75146                           FCADR    P40LM
001150: 04,2457           72643                           FCADR    P35
001151: 04,2460           72455                           FCADR    P34
001152: 04,2461           72223                           FCADR    P33
001153: 04,2462           72034                           FCADR    P32
001154: 04,2463           72000                           FCADR    P30
001155: 04,2464           50462                           FCADR    PROG25
001156: 04,2465           50000                           FCADR    PROG22
001157: 04,2466           51441                           FCADR    PROG21
001158: 04,2467           50000                           FCADR    PROG20
001159: 04,2470           60061                           FCADR    P12LM
001160: 04,2471           77654                           FCADR    P06
001161:                                                                                                  #           THE PREMM TABLE CONTAINS THE E-BANK,MAJOR MODE, AND PRIORITY
001162:                                                                                                  #  INFORMATION, IT IS IN THE FOLLOWING FORM,
001163:
001164:                                                                                                  #           PPP PPE EEM MMM MMM
001165:
001166:                                                                                                  #           WHERE THE 7 M BITS CONTAIN THE MAJOR MODE NUMBER
001167:                                                                                                  #                      3 E BITS CONTAIN THE E-BANK NUMBER
001168:                                                                                                  #                      5 P BITS CONTAIN THE PRIORITY AT WHICH THE JOB IS
001169:                                                                                                  #                          TO BE STARTED
001170:
001171:                                                                                                  #           FOR EXAMPLE,
001172:
001173:                                                                                                  #                                          PREMM1   OCT     67213           PRIORITY      33
001174:                                                                                                  #                                                                           E-BANK         5
001175:                                                                                                  #                                                                           MAJOR MODE    11
001176:                                                                                                  #                                                   OCT     25437           PRIORITY       12
001177:                                                                                                  #                                                                           E-BANK         6
001178:                                                                                                  #                                                                           MAJOR MODE    31
001179:


001181:                                                                                                  #  NOTE.     THE FIRST ENTRY MUST BE LABELED PREMM1
001182: 04,2472                        PREMM1             EQUALS
001183: 04,2472           27715                           OCT      27715                                 #  MM 77 EBANK 7 PRIO 13
001184: 04,2473           27714                           OCT      27714                                 #  MM 76  EBANK 7  PRIO 13
001185: 04,2474           27713                           OCT      27713                                 #  MM 75  EBANK 7  PRIO 13
001186: 04,2475           27712                           OCT      27712                                 #  MM 74  EBANK 7  PRIO 13
001187: 04,2476           27711                           OCT      27711                                 #  MM 73  EBANK 7  PRIO 13
001188: 04,2477           27710                           OCT      27710                                 #  MM 72  EBANK 7  PRIO 13
001189: 04,2500           27704                           OCT      27704                                 #  MM 68  EBANK 7  PRIO 13
001190: 04,2501           27677                           OCT      27677                                 #  MM 63  EBANK 7  PRIO 13
001191: 04,2502           27271                           OCT      27271                                 #  MM 57  EBANK 5  PRIO 13
001192: 04,2503           27264                           OCT      27264                                 #  MM 52  EBANK 5  PRIO 13
001193: 04,2504           27263                           OCT      27263                                 #  MM 51  EBANK 5  PRIO 13
001194: 04,2505           27657                           OCT      27657                                 #  MM 47  EBANK 7  PRIO 13
001195: 04,2506           27652                           OCT      27652                                 #  MM 42  EBANK 7  PRIO 13
001196: 04,2507           27651                           OCT      27651                                 #  MM 41  EBANK 7  PRIO 13
001197: 04,2510           27650                           OCT      27650                                 #  MM 40  EBANK 7  PRIO 13
001198: 04,2511           27643                           OCT      27643                                 #  MM 35  EBANK 7  PRIO 13
001199: 04,2512           27642                           OCT      27642                                 #  MM 34  EBANK 7  PRIO 13
001200: 04,2513           27641                           OCT      27641                                 #  MM 33  EBANK 7  PRIO 13
001201: 04,2514           27640                           OCT      27640                                 #  MM 32  EBANK 7  PRIO 13
001202: 04,2515           27636                           OCT      27636                                 #  MM 30  EBANK 7  PRIO 13
001203: 04,2516           27631                           OCT      27631                                 #  MM 25  EBANK 7  PRIO 13
001204: 04,2517           27626                           OCT      27626                                 #  MM 22  EBANK 7  PRIO 13
001205: 04,2520           27625                           OCT      27625                                 #  MM 21  EBANK 7  PRIO 13
001206: 04,2521           27624                           OCT      27624                                 #  MM 20  EBANK 7  PRIO 13
001207: 04,2522           27614                           OCT      27614                                 #  MM 12  EBANK 7  PRIO 13
001208: 04,2523           27006                           OCT      27006                                 #  MM 06  EBANK 4  PRIO 13
001209:                                                                                                  #  NOTE.     THE FOLLOWING CONSTANT IS THE NUMBER OF ENTRIES IN EACH OF
001210:                                                                                                  #  ----      THE ABOVE LISTS-1(IE, THE NUMBER OF MAJOR MODES(EXCEPT P00)
001211:                                                                                                  #            THAT CAN BE CALLED FROM THE KEYBOARD MINUS ONE)
001212:
001213: 04,2524           00031        NOV37MM            DEC      25         B-14                       #  MM'S - 1
001214:
001215:
001216: 04,2525                        DNLADMM1           EQUALS
001217: 04,2525           00002                           ADRES    RENDEZVL                              #  P77
001218: 04,2526           00002                           ADRES    RENDEZVL                              #  P76
001219: 04,2527           00002                           ADRES    RENDEZVL                              #  P75
001220: 04,2530           00002                           ADRES    RENDEZVL                              #  P74
001221: 04,2531           00002                           ADRES    RENDEZVL                              #  P73
001222: 04,2532           00002                           ADRES    RENDEZVL                              #  P72
001223: 04,2533           00004                           ADRES    DESASCNT                              #  P68
001224: 04,2534           00004                           ADRES    DESASCNT                              #  P63
001225: 04,2535           00005                           ADRES    LUNRSALN                              #  P57
001226: 04,2536           00000                           ADRES    COSTALIL                              #  P52
001227: 04,2537           00000                           ADRES    COSTALIL                              #  P51
001228: 04,2540           00003                           ADRES    ORBMANUL                              #  P47
001229: 04,2541           00003                           ADRES    ORBMANUL                              #  P42
001230: 04,2542           00003                           ADRES    ORBMANUL                              #  P41
001231:


001233: 04,2543           00003                           ADRES    ORBMANUL                              #  P40
001234: 04,2544           00002                           ADRES    RENDEZVL                              #  P35
001235: 04,2545           00002                           ADRES    RENDEZVL                              #  P34
001236: 04,2546           00002                           ADRES    RENDEZVL                              #  P33
001237: 04,2547           00002                           ADRES    RENDEZVL                              #  P32
001238: 04,2550           00002                           ADRES    RENDEZVL                              #  P30
001239: 04,2551           00002                           ADRES    RENDEZVL                              #  P25
001240: 04,2552           00005                           ADRES    LUNRSALN                              #  P22
001241: 04,2553           00002                           ADRES    RENDEZVL                              #  P21
001242: 04,2554           00002                           ADRES    RENDEZVL                              #  P20
001243: 04,2555           00004                           ADRES    DESASCNT                              #  P12
001244: 04,2556           00000                           ADRES    COSTALIL                              #  P06
001245: 04,2557     4746               DNLADP00           =        ZERO
001246: 04,2557                        COSTALIL           =        0
001247: 04,2557                        AGSUPDAT           =        1
001248: 04,2557                        RENDEZVL           =        2
001249: 04,2557                        ORBMANUL           =        3
001250: 04,2557                        DESASCNT           =        4
001251: 04,2557                        LUNRSALN           =        5
001252: 13,2026                                           BANK     13
001253: 13,2000                                           SETLOC   INTINIT
001254: 13,2000                                           BANK
001255:
001256: 13,2026                                           COUNT*   $$/INTIN
001257:
001258: 13,2026  E3,1554                                  EBANK=   RRECTCSM
001259:
001260:                                                                                                  #  THIS ROUTINE DOES THE POO INTEGRATION
001261:
001262: 13,2026           43014        STATEUP            SET      BOF                                   #  EXTRAPOLATE CM STATE VECTOR
001263: 13,2027           01474                                    VINTFLAG
001264: 13,2030           04347                                    SURFFLAG                              #  ALSO 6X6 W-MATRIX IF LM ON LUNAR
001265: 13,2031           26036                                    DOINT                                 #       SURFACE AND W-MATRIX VALID
001266: 13,2032           43014                           BOF      SET                                   #       FOR RENDEZVOUS NAVIGATION.
001267: 13,2033           02756                                    RENDWFLG
001268: 13,2034           26036                                    DOINT
001269: 13,2035           01476                                    DIM0FLAG
001270: 13,2036           45014        DOINT              CLEAR    CALL
001271: 13,2037           01667                                    PRECIFLG                              #  ENGAGES 4-TIME STEP LOGIC IN INTEGRATION
001272: 13,2040           27172                                    INTEGRV                               #  WHEN MODREG = 0
001273:
001274: 13,2041           71214                           BON      DLOAD
001275: 13,2042           04307                                    SURFFLAG
001276: 13,2043           26063                                    NO-INT
001277: 13,2044           01571                                    TETCSM
001278: 13,2045           34041                           STCALL   TDEC1
001279: 13,2046           27447                                    INTSTALL
001280: 13,2047           45014                           CLEAR    CALL                                  #  EXTRAPOLATE LM STATE VECTOR
001281: 13,2050           01674                                    VINTFLAG
001282: 13,2051           26702                                    SETIFLGS
001283:


001285: 13,2052           77614                           BOF                                            #  ALSO 9X9 W-MATRIX IF W IS VALID
001286: 13,2053           02756                                    RENDWFLG
001287: 13,2054           26060                                    DOINT2
001288: 13,2055           43014                           SET      SET
001289: 13,2056           01476                                    DIM0FLAG
001290: 13,2057           01475                                    D6OR9FLG
001291: 13,2060           45014        DOINT2             SET      CALL
001292: 13,2061           01467                                    PRECIFLG                              #  DISENGAGE 4 TIME STEP LOGIC IN INTEG.
001293: 13,2062           27172                                    INTEGRV
001294: 13,2063           77614        NO-INT             CLRGO
001295: 13,2064           01236                                    NODOFLAG
001296: 13,2065           26670                                    ENDINT
001297:
001298:
001299:                                                                                                  #  THISVINT IS CALLED BY MIDTOAV1 AND2
001300:
001301: 13,2066           43414        THISVINT           CLEAR    RVQ
001302: 13,2067           01674                                    VINTFLAG

End of include-file FRESH_START_AND_RESTART.agc.  Parent file is MAIN.agc


