
Source Code


000002:                                                                                                  ## Copyright:   Public domain.
000003:                                                                                                  ## Filename:    GIMBAL_LOCK_AVOIDANCE.agc
000004:                                                                                                  ## Purpose:     A section of Luminary revision 210.
000005:                                                                                                  ##              It is part of the source code for the Lunar Module's (LM)
000006:                                                                                                  ##              Apollo Guidance Computer (AGC) for Apollo 15-17.
000007:                                                                                                  ##              This file is intended to be a faithful transcription, except
000008:                                                                                                  ##              that the code format has been changed to conform to the
000009:                                                                                                  ##              requirements of the yaYUL assembler rather than the
000010:                                                                                                  ##              original YUL assembler.
000011:                                                                                                  ## Reference:   p. 376
000012:                                                                                                  ## Assembler:   yaYUL
000013:                                                                                                  ## Contact:     Ron Burkey <info@sandroid.org>.
000014:                                                                                                  ## Website:     www.ibiblio.org/apollo/index.html
000015:                                                                                                  ## Mod history: 2016-11-17 JL   Created from Luminary131 version.
000016:                                                                                                  ##              2016-11-24 HG   Transcribed
000017:                                                                                                  ##              2016-12-23 RSB  Proofed comment text with octopus/ProoferComments
000018:                                                                                                  ##                              but no errors found.
000019:                                                                                                  ##              2017-08-22 RSB  Fixed comment-text typo identified in ZERLINA 56.
000020:


000022: 15,2162                                           BANK     15
000023:
000024: 22,2000                                           SETLOC   KALCMON1
000025: 22,2000                                           BANK
000026:
000027:
000028:                                                                                                  #  DETECTING GIMBAL LOCK
000029: 22,2744  22,2744               LOCSKIRT           EQUALS   NOGIMLOC
000030:
000031: 22,2744           77614        NOGIMLOC           SET
000032: 22,2745           01074                                    CALCMAN3
000033: 22,2746           70740        WCALC              LXC,1    DLOAD*
000034: 22,2747           01322                                    RATEINDX                              #  CHOOSE THE DESIRED MANEUVER RATE
000035: 22,2750           04772                                    ARATE,1                               #  FROM A LIST OF FOUR
000036: 22,2751           45002                           SR4      CALL                                  #  COMPUTE THE INCREMENTAL ROTATION MATRIX
000037: 22,2752           44527                                    DELCOMP                               #  DEL CORRESPONDING TO A 1 SEC ROTATION
000038:                                                                                                  #  ABOUT COF
000039: 22,2753           74343                           DLOAD*   VXSC
000040: 22,2754           04772                                    ARATE,1
000041: 22,2755           03270                                    COF
000042: 22,2756           17325                           STODL    BRATE                                 #  COMPONENT MANEUVER RATES 45 DEG/SEC
000043: 22,2757           03335                                    AM
000044: 22,2760           55605                           DMP      DDV*
000045: 22,2761           05002                                    ANGLTIME
000046: 22,2762           04772                                    ARATE,1
000047: 22,2763           77661                           SR
000048: 22,2764           20606                                    5
000049: 22,2765           03333                           STORE    TM                                    #  MANEUVER EXECUTION TIME SCALED AS T2
000050: 22,2766           77614                           SETGO
000051: 22,2767           01035                                    CALCMAN2                              #  0(OFF) = CONTINUE MANEUVER
000052: 22,2770           45010                                    NEWANGL    +1                         #  1(ON) = START MANEUVER
000053:                                                                                                  #           THE FOUR SELECTABLE FREE FALL MANEUVER RATES SELECTED BY
000054:                                                                                                  #           LOADING RATEINDX WITH 0,2,4,6, RESPECTIVELY
000055:
000056:
000057: 22,2771           00221 24255  ARATE              2DEC     .0088888888                            #  = 0.2 DEG/SEC       $ 22.5 DEG/SEC
000058: 22,2773           00554 02660                     2DEC     .0222222222                            #  = 0.5 DEG/SEC       $ 22.5 DEG/SEC
000059: 22,2775           02660 13301                     2DEC     .0888888888                            #  = 2.0 DEG/SEC       $ 22.5 DEG/SEC
000060: 22,2777           16161 30707                     2DEC     .4444444444                            #  = 10.0 DEG/SEC      $ 22.5 DEG/SEC
000061:
000062: 22,3001           00003 04000  ANGLTIME           2DEC     .0001907349                            #  = 100B-19     FUDGE FACTOR TO CONVERT
000063:                                                                                                  #  MANEUVER ANGLE TO MANEUVER TIME

End of include-file GIMBAL_LOCK_AVOIDANCE.agc.  Parent file is MAIN.agc


