
Source Code


000002:                                                                                                  ## Copyright:   Public domain.
000003:                                                                                                  ## Filename:    IMU_COMPENSATION_PACKAGE.agc
000004:                                                                                                  ## Purpose:     A section of Luminary revision 210.
000005:                                                                                                  ##              It is part of the source code for the Lunar Module's (LM)
000006:                                                                                                  ##              Apollo Guidance Computer (AGC) for Apollo 15-17.
000007:                                                                                                  ##              This file is intended to be a faithful transcription, except
000008:                                                                                                  ##              that the code format has been changed to conform to the
000009:                                                                                                  ##              requirements of the yaYUL assembler rather than the
000010:                                                                                                  ##              original YUL assembler.
000011:                                                                                                  ## Reference:   pp. 338-349
000012:                                                                                                  ## Assembler:   yaYUL
000013:                                                                                                  ## Contact:     Ron Burkey <info@sandroid.org>.
000014:                                                                                                  ## Website:     www.ibiblio.org/apollo/index.html
000015:                                                                                                  ## Mod history: 2016-11-17 JL   Created from Luminary131 version.
000016:                                                                                                  ##              2016-11-24 HG   Transcribed
000017:                                                                                                  ##              2016-12-23 RSB  Proofed comment text with octopus/ProoferComments
000018:                                                                                                  ##                              and fixed all errors found.
000019:                                                                                                  ##              2017-03-07 RSB  Comment-text fixes noted in proofing Luminary 116.
000020:                                                                                                  ##              2017-03-15 RSB  Comment-text fixes identified in 6-way
000021:                                                                                                  ##                              side-by-side diff of Sunburst 120 and Luminary
000022:                                                                                                  ##                              69/99/116/131/210.
000023:


000025: 07,2607                                           BANK     7
000026: 06,2000                                           SETLOC   IMUCOMP
000027: 06,2000                                           BANK
000028:
000029: 06,3333  E3,1460                                  EBANK=   NBDX
000030:
000031: 06,3333                                           COUNT*   $$/ICOMP
000032: 06,3333           33601        1/PIPA             CAF      LGCOMP                                #  SAVE EBANK OF CALLING PROGRAM
000033: 06,3334           56003                           XCH      EBANK
000034: 06,3335           54163                           TS       MODE
000035:
000036: 06,3336           11477                           CCS      GCOMPSW                               #  BYPASS IF GCOMPSW NEGATIVE
000037: 06,3337           13342                           TCF      +3
000038: 06,3340           13342                           TCF      +2
000039: 06,3341           13423                           TCF      IRIG1                                 #  RETURN
000040:
000041: 06,3342           34742        1/PIPA1            CAF      FOUR                                  #  PIPAZ, PIPAY, PIPAX
000042: 06,3343           54132                           TS       BUF        +2
000043:
000044: 06,3344           50132                           INDEX    BUF        +2
000045: 06,3345           31453                           CA       PIPASCF                               #  (P.P.M.) X 2(-9)
000046: 06,3346           00006                           EXTEND
000047: 06,3347           50132                           INDEX    BUF        +2
000048: 06,3350           70324                           MP       DELVX                                 #  (PP) X 2(+14) NOW (PIPA PULSES) X 2(+5)
000049: 06,3351           54002                           TS       Q                                     #  SAVE MAJOR PART
000050:
000051: 06,3352           30001                           CA       L                                     #  MINOR PART
000052: 06,3353           00006                           EXTEND
000053: 06,3354           74737                           MP       BIT6                                  #  SCALE 2(+9)   SHIFT RIGHT 9
000054: 06,3355           50132                           INDEX    BUF        +2
000055: 06,3356           54325                           TS       DELVX      +1                         #  FRACTIONAL PIPA PULSES SCALED 2(+14)
000056:
000057: 06,3357           30002                           CA       Q                                     #  MAJOR PART
000058: 06,3360           00006                           EXTEND
000059: 06,3361           74737                           MP       BIT6                                  #  SCALE 2(+9)   SHIFT RIGHT 9
000060: 06,3362           50132                           INDEX    BUF        +2
000061: 06,3363           20325                           DAS      DELVX                                 #  (PIPAI) + (PIPAI)(SFE)
000062:
000063: 06,3364           50132                           INDEX    BUF        +2
000064: 06,3365           41452                           CS       PIPABIAS                              #  (PIPA PULSES)/(CS) X 2(-3)            *
000065: 06,3366           00006                           EXTEND
000066: 06,3367           71074                           MP       1/PIPADT                              #  (CS) X 2(+8) NOW (PIPA PULSES) X 2(+5)*
000067: 06,3370           00006                           EXTEND
000068: 06,3371           74737                           MP       BIT6                                  #  SCALE 2(+9) SHIFT RIGHT 9             *
000069: 06,3372           50132                           INDEX    BUF        +2
000070: 06,3373           20325                           DAS      DELVX                                 #  (PIPAI) + (PIPAI)(SFE) - (BIAS)(DELTAT)
000071:
000072: 06,3374           10132                           CCS      BUF        +2                         #  PIPAZ, PIPAY, PIPAX
000073: 06,3375           67770                           AD       NEG1
000074: 06,3376           13343                           TCF      1/PIPA1    +1
000075:


000077: 06,3377           13400                           NOOP                                           #  LESS THAN ZERO IMPOSSIBLE
000078:


000080: 06,3400           55477        IRIGCOMP           TS       GCOMPSW                               #  INDICATE COMMANDS 2 PULSES OR LESS.
000081: 06,3401           54130                           TS       BUF                                   #  INDEX COUNTER . IRIGX, IRIGY, IRIGZ.
000082:
000083: 06,3402           03426                           TC       IRIGX                                 #  COMPENSATE ACCELERATION TERMS
000084:
000085: 06,3403           41460                           CS       NBDX                                  #  (GYRO PULSES)/(CS) X 2(-5)
000086: 06,3404           03524                           TC       DRIFTSUB                              #  -(NBOX)(DELTAT)   (GYRO PULSES) X 2(+14)
000087:
000088: 06,3405           03443                           TC       IRIGY                                 #  COMPENSATE ACCELERATION TERMS
000089:
000090: 06,3406           41461                           CS       NBDY                                  #  (GYRO PULSES)/(CS) X 2(-5)
000091: 06,3407           03524                           TC       DRIFTSUB                              #  -(NBDY)(DELTAT)   (GYRO PULSES) X 2(+14)
000092:
000093: 06,3410           03460                           TC       IRIGZ                                 #  COMPENSATE ACCELERATION TERMS
000094:
000095: 06,3411           31462                           CA       NBDZ                                  #  (GYRO PULSES)/(CS) X 2(-5)
000096: 06,3412           03524                           TC       DRIFTSUB                              #  +(NBDZ)(DELTAT)   (GYRO PULSES) X 2(+14)
000097:
000098: 06,3413           11477                           CCS      GCOMPSW                               #  ARE GYRO COMMANDS GREATER THAN 2 PULSES
000099: 06,3414           13416                           TCF      +2                                    #  YES  SEND OUT GYRO TORQUING COMMANDS.
000100: 06,3415           13423                           TCF      IRIG1                                 #  NO   RETURN
000101:
000102: 06,3416           35022                           CA       PRIO21                                #  PRIO GREATER THAN SERVICER
000103: 06,3417           05063                           TC       NOVAC                                 #  SEND OUT GYRO TORQUING COMMANDS.
000104: 06,3420  E3,1460                                  EBANK=   NBDX
000105: 06,3420           03557 14063                     2CADR    1/GYRO
000106:
000107: 06,3422           00003                           RELINT
000108: 06,3423           30163        IRIG1              CA       MODE                                  #  RESTORE CALLERS EBANK
000109: 06,3424           54003                           TS       EBANK
000110: 06,3425           14622                           TCF      SWRETURN
000111:


000113: 06,3426           00006        IRIGX              EXTEND
000114: 06,3427           22156                           QXCH     MPAC       +2                         #  SAVE Q
000115: 06,3430           00006                           EXTEND
000116: 06,3431           40325                           DCS      DELVX                                 #  (PIPA PULSES) X 2(+14)
000117: 06,3432           52155                           DXCH     MPAC
000118: 06,3433           31463                           CA       ADIAX                                 #  (GYRO PULSES)/(PIPA PULSE) X 2(-6)     *
000119: 06,3434           03475                           TC       GCOMPSUB                              #  -(ADIAX)(PIPAX)   (GYRO PULSES) X 2(+14)
000120:
000121: 06,3435           00006                           EXTEND
000122: 06,3436           40327                           DCS      DELVY                                 #  (PIPA PULSES) X 2(+14)
000123: 06,3437           52155                           DXCH     MPAC
000124: 06,3440           41466                           CS       ADSRAX                                #  (GYRO PULSES)/(PIPA PULSE) X 2(-6)     *
000125: 06,3441           03475                           TC       GCOMPSUB                              #  -(ADSRAX)(PIPAY)  (GYRO PULSES) X 2(+14)
000126:
000127:                                                                                                  #                EXTEND                             ***
000128:                                                                                                  #                DCS             DELVZ              ***    (PIPA PULSES) X 2(+14)
000129:                                                                                                  #                DXCH            MPAC               ***
000130:                                                                                                  #                CA              ADOAX              ***    (GYRO PULSES)/(PIPA PULSE) X 2(-6)     *
000131:                                                                                                  #                TC              GCOMPSUB           ***    -(ADOAX)(PIPAZ)   (GYRO PULSES) X 2(+14)
000132:
000133: 06,3442           00156                           TC       MPAC       +2
000134:
000135: 06,3443           00006        IRIGY              EXTEND
000136: 06,3444           22156                           QXCH     MPAC       +2                         #  SAVE Q
000137: 06,3445           00006                           EXTEND
000138: 06,3446           40327                           DCS      DELVY                                 #  (PIPA PULSES) X 2(+14)
000139: 06,3447           52155                           DXCH     MPAC
000140: 06,3450           31464                           CA       ADIAY                                 #  (GYRO PULSES)/(PIPA PULSE) X 2(-6)    *
000141: 06,3451           03475                           TC       GCOMPSUB                              #  -(ADIAY)(PIPAY)   (GYRO PULSES) X 2(+14)
000142:
000143: 06,3452           00006                           EXTEND
000144: 06,3453           40331                           DCS      DELVZ                                 #  (PIPA PULSES) X 2(+14)
000145: 06,3454           52155                           DXCH     MPAC
000146: 06,3455           41467                           CS       ADSRAY                                #  (GYRO PULSES)/(PIPA PULSE) X 2(-6)     *
000147: 06,3456           03475                           TC       GCOMPSUB                              #  +(ADSRAY)(PIPAZ)  (GYRO PULSES) X 2(+14)
000148:
000149:                                                                                                  #                EXTEND                              ***
000150:                                                                                                  #                DCS             DELVX               ***   (PIPA PULSES) X 2(+14)
000151:                                                                                                  #                DXCH            MPAC                ***
000152:                                                                                                  #                CA              ADOAY               ***   (GYRO PULSES)/(PIPA PULSE) X 2(-6)     *
000153:                                                                                                  #                TC              GCOMPSUB            ***   -(ADOAY)(PIPAX)   (GYRO PULSES) X 2(+14)
000154:
000155: 06,3457           00156                           TC       MPAC       +2
000156:
000157: 06,3460           00006        IRIGZ              EXTEND
000158: 06,3461           22156                           QXCH     MPAC       +2                         #  SAVE Q
000159: 06,3462           00006                           EXTEND
000160: 06,3463           40327                           DCS      DELVY                                 #  (PIPA PULSES) X 2(+14)
000161: 06,3464           52155                           DXCH     MPAC
000162: 06,3465           31470                           CA       ADSRAZ                                #  (GYRO PULSES)/(PIPA PULSE) X 2(-6)    *
000163:


000165: 06,3466           03475                           TC       GCOMPSUB                              #  -(ADSRAZ)(PIPAY)  (GYRO PULSES) X 2(+14)
000166:
000167: 06,3467           00006                           EXTEND
000168: 06,3470           40331                           DCS      DELVZ                                 #  (PIPA PULSES) X 2(+14)
000169: 06,3471           52155                           DXCH     MPAC
000170: 06,3472           31465                           CA       ADIAZ                                 #  (GYRO PULSES)/(PIPA PULSE) X 2(-6)     *
000171: 06,3473           03475                           TC       GCOMPSUB                              #  -(ADIAZ)(PIPAZ)   (GYRO PULSES) X 2(+14)
000172:
000173:                                                                                                  #                EXTEND                              ***
000174:                                                                                                  #                DCS             DELVX               ***   (PIPA PULSE) X 2(+14)
000175:                                                                                                  #                DXCH            MPAC                ***
000176:                                                                                                  #                CS              ADOAZ               ***   (GYRO PULSES)/(PIPA PULSE) X 2(-6)     *
000177:                                                                                                  #                TC              GCOMPSUB            ***   +(ADOAZ)(PIPAX)   (GYRO PULSES) X 2(+14)
000178:
000179: 06,3474           00156                           TC       MPAC       +2
000180:


000182: 06,3475           56154        GCOMPSUB           XCH      MPAC                                  #  ADIA OR ADSRA COEFFICIENT ARRIVES IN A
000183: 06,3476           00006                           EXTEND                                         #  C(MPAC) = (PIPA PULSES) X 2(+14)
000184: 06,3477           70154                           MP       MPAC                                  #  (GYRO PULSES)/(PIPA PULSE) X 2(-6)      *
000185: 06,3500           52123                           DXCH     VBUF                                  #  NOW = (GYRO PULSES) X 2(+8)             *
000186:
000187: 06,3501           30155                           CA       MPAC       +1                         #  MINOR PART PIPA PULSES
000188: 06,3502           00006                           EXTEND
000189: 06,3503           70154                           MP       MPAC                                  #  ADIA OR ADSRA
000190: 06,3504           54001                           TS       L
000191: 06,3505           34746                           CAF      ZERO
000192: 06,3506           20123                           DAS      VBUF                                  #  NOW = (GYRO PULSES) X 2(+8)             *
000193:
000194: 06,3507           30122                           CA       VBUF                                  #  PARTIAL RESULT - MAJOR
000195: 06,3510           00006                           EXTEND
000196: 06,3511           74734                           MP       BIT9                                  #  SCALE 2(+6)      SHIFT RIGHT 6          *
000197: 06,3512           50130                           INDEX    BUF                                   #  RESULT = (GYRO PULSES) X 2(+14)
000198: 06,3513           21472                           DAS      GCOMP                                 #  HI(ADIA)(PIPAI)  OR  HI(ADSRA)(PIPAI)
000199:
000200: 06,3514           30123                           CA       VBUF       +1                         #  PARTIAL RESULT - MINOR
000201: 06,3515           00006                           EXTEND
000202: 06,3516           74734                           MP       BIT9                                  #  SCALE 2(+6)      SHIFT RIGHT 6          *
000203: 06,3517           54001                           TS       L
000204: 06,3520           34746                           CAF      ZERO
000205: 06,3521           50130                           INDEX    BUF                                   #  RESULT = (GYRO PULSES) X 2(+14)
000206: 06,3522           21472                           DAS      GCOMP                                 #  (ADIA)(PIPAI)  OR  (ADSRA)(PIPAI)
000207:
000208: 06,3523           00002                           TC       Q
000209:


000211: 06,3524           00006        DRIFTSUB           EXTEND
000212: 06,3525           22131                           QXCH     BUF        +1
000213:
000214: 06,3526           00006                           EXTEND                                         #  C(A) = NBD    (GYRO PULSES)/(CS) X 2(-5)
000215: 06,3527           71074                           MP       1/PIPADT                              #  (CS) X 2(+8)   NOW (GYRO PULSES) X 2(+3)
000216: 06,3530           22155                           LXCH     MPAC       +1                         #  SAVE FOR FRACTIONAL COMPENSATION
000217: 06,3531           00006                           EXTEND
000218: 06,3532           74741                           MP       BIT4                                  #  SCALE 2(+11)     SHIFT RIGHT 11
000219: 06,3533           50130                           INDEX    BUF
000220: 06,3534           21472                           DAS      GCOMP                                 #  HI(NBD)(DELTAT)   (GYRO PULSES) X 2(+14)
000221:
000222: 06,3535           30155                           CA       MPAC       +1                         #  NOW MINOR PART
000223: 06,3536           00006                           EXTEND
000224: 06,3537           74741                           MP       BIT4                                  #  SCALE 2(+11)     SHIFT RIGHT 11
000225: 06,3540           54001                           TS       L
000226: 06,3541           34746                           CAF      ZERO
000227: 06,3542           50130                           INDEX    BUF                                   #  ADD IN FRACTIONAL COMPENSATION
000228: 06,3543           21472                           DAS      GCOMP                                 #  (NBD)(DELTAT)     (GYRO PULSES) X 2(+14)
000229:
000230: 06,3544           34743        DRFTSUB2           CAF      TWO                                   #  PIPAX, PIPAY, PIPAZ
000231: 06,3545           60130                           AD       BUF
000232: 06,3546           56130                           XCH      BUF
000233: 06,3547           50000                           INDEX    A
000234: 06,3550           11471                           CCS      GCOMP                                 #  ARE GYRO COMMANDS 1 PULSE OR GREATER
000235: 06,3551           13553                           TCF      +2                                    #  YES
000236: 06,3552           00131                           TC       BUF        +1                         #  NO
000237:
000238: 06,3553           73623                           MASK     COMPCHK                               #  DEC -1
000239: 06,3554           10000                           CCS      A                                     #  ARE GYRO COMMANDS GREATER THAN 2 PULSES
000240: 06,3555           55477                           TS       GCOMPSW                               #  YES - SET GCOMPSW POSITIVE
000241: 06,3556           00131                           TC       BUF        +1                         #  NO
000242:


000244: 06,3557           34742        1/GYRO             CAF      FOUR                                  #  PIPAZ, PIPAY, PIPAX
000245: 06,3560           54130                           TS       BUF
000246:
000247: 06,3561           50130                           INDEX    BUF                                   #  SCALE GYRO COMMANDS FOR IMUPULSE
000248: 06,3562           31472                           CA       GCOMP      +1                         #  FRACTIONAL PULSES
000249: 06,3563           00006                           EXTEND
000250: 06,3564           74735                           MP       BIT8                                  #  SHIFT RIGHT 7
000251: 06,3565           50130                           INDEX    BUF
000252: 06,3566           55472                           TS       GCOMP      +1                         #  FRACTIONAL PULSES SCALED
000253:
000254: 06,3567           34746                           CAF      ZERO                                  #  SET GCOMP = 0 FOR DAS INSTRUCTION
000255: 06,3570           50130                           INDEX    BUF
000256: 06,3571           57471                           XCH      GCOMP                                 #  GYRO PULSES
000257: 06,3572           00006                           EXTEND
000258: 06,3573           74735                           MP       BIT8                                  #  SHIFT RIGHT 7
000259: 06,3574           50130                           INDEX    BUF
000260: 06,3575           21472                           DAS      GCOMP                                 #  ADD THESE TO FRACTIONAL PULSES ABOVE
000261:
000262: 06,3576           10130                           CCS      BUF                                   #  PIPAZ, PIPAY, PIPAX
000263: 06,3577           67770                           AD       NEG1
000264: 06,3600           13560                           TCF      1/GYRO     +1
000265: 06,3601           01471        LGCOMP             ECADR    GCOMP                                 #  LESS THAN ZERO IMPOSSIBLE
000266:
000267: 06,3602           33601                           CAF      LGCOMP
000268: 06,3603           04607                           TC       BANKCALL
000269: 06,3604           17310                           CADR     IMUPULSE                              #  CALL GYRO TORQUING ROUTINE
000270: 06,3605           04607                           TC       BANKCALL
000271: 06,3606           17735                           CADR     IMUSTALL                              #  WAIT FOR PULSES TO GET OUT
000272: 06,3607           13610                           TCF      +1
000273:
000274: 06,3610           34742        GCOMP1             CAF      FOUR                                  #  PIPAZ, PIPAY, PIPAX
000275: 06,3611           54130                           TS       BUF
000276:
000277: 06,3612           50130                           INDEX    BUF                                   #  RESCALE
000278: 06,3613           31472                           CA       GCOMP      +1
000279: 06,3614           00006                           EXTEND
000280: 06,3615           74735                           MP       BIT8                                  #  SHIFT MINOR PART LEFT 7 - MAJOR PART = 0
000281: 06,3616           50130                           INDEX    BUF
000282: 06,3617           23472                           LXCH     GCOMP      +1                         #  BITS 8-14 OF MINOR PART WERE = 0
000283:
000284: 06,3620           10130                           CCS      BUF                                   #  PIPAZ, PIPAY, PIPAX
000285: 06,3621           67770                           AD       NEG1
000286: 06,3622           13611                           TCF      GCOMP1     +1
000287: 06,3623           77776        COMPCHK            DEC      -1         B-14                       #  LESS THAN ZERO IMPOSSIBLE
000288: 06,3624           15146                           TCF      ENDOFJOB
000289:


000291: 06,3625           11477        NBDONLY            CCS      GCOMPSW                               #  BYPASS IF GCOMPSW NEGATIVE
000292: 06,3626           13631                           TCF      +3
000293: 06,3627           13631                           TCF      +2
000294: 06,3630           15146                           TCF      ENDOFJOB
000295:
000296: 06,3631           00004                           INHINT
000297: 06,3632           10076                           CCS      FLAGWRD2                              #  PREREAD T3RUPT MAY COINCIDE
000298: 06,3633           15146                           TCF      ENDOFJOB
000299: 06,3634           15146                           TCF      ENDOFJOB
000300: 06,3635           13636                           TCF      +1
000301:
000302: 06,3636           30104                           CA       FLAGWRD8                              #  IF SURFACE FLAG IS SET, SET TEM1
000303: 06,3637           74735                           MASK     BIT8                                  #  POSITIVE SO THAT THE ACCELERATION TERMS
000304: 06,3640           54141                           TS       TEM1                                  #  WILL BE COMPENSATED.
000305: 06,3641           00006                           EXTEND
000306: 06,3642           13645                           BZF      +3                                    #  ARE WE ON THE SURFACE
000307:
000308: 06,3643           04665                           TC       IBNKCALL                              #  ON THE SURFACE
000309: 06,3644           77543                           CADR     PIPASR     +3                         #  READ PIPAS, BUT DO NOT SCALE THEM
000310:
000311: 06,3645           30025                           CA       TIME1                                 #  (CS) X 2(+14)
000312: 06,3646           57074                           XCH      1/PIPADT                              #  PREVIOUS TIME
000313: 06,3647           00003                           RELINT
000314: 06,3650           40000                           COM
000315: 06,3651           61074                           AD       1/PIPADT                              #  PRESENT TIME - PREVIOUS TIME
000316: 06,3652           64727        NBD2               AD       HALF                                  #  CORRECT FOR POSSIBLE TIME1 TICK
000317: 06,3653           64727                           AD       HALF
000318: 06,3654           56001                           XCH      L                                     #  IF TIME1 DID NOT TICK, REMOVE RESULTING
000319: 06,3655           56001                           XCH      L                                     #  OVERFLOW.
000320:
000321: 06,3656           00006        NBD3               EXTEND                                         #  C(A) = DELTAT    (CS) X 2(+14)
000322: 06,3657           74733                           MP       BIT10                                 #  SHIFT RIGHT 5
000323: 06,3660           52125                           DXCH     VBUF       +2
000324:
000325: 06,3661           34746                           CA       ZERO
000326: 06,3662           55477                           TS       GCOMPSW                               #  INDICATE COMMANDS 2 PULSES OR LESS.
000327: 06,3663           54130                           TS       BUF                                   #  INDEX  X, Y, Z.
000328:
000329: 06,3664           10141                           CCS      TEM1                                  #  IF SURFACE FLAG IS SET,
000330: 06,3665           03426                           TC       IRIGX                                 #  COMPENSATE ACCELERATION TERMS.
000331:
000332: 06,3666           00006                           EXTEND
000333: 06,3667           30125                           DCA      VBUF       +2
000334: 06,3670           52155                           DXCH     MPAC                                  #  DELTAT NOW SCALED (CS) X 2(+19)
000335:
000336: 06,3671           41460                           CS       NBDX                                  #  (GYRO PULSES)/(CS) X 2(-5)
000337: 06,3672           03714                           TC       FBIASSUB                              #  -(NBOX)(DELTAT)   (GYRO PULSES) X 2(+14)
000338:
000339: 06,3673           10141                           CCS      TEM1                                  #  IF SURFACE FLAG IS SET,
000340: 06,3674           03443                           TC       IRIGY                                 #  COMPENSATE ACCELERATION TERMS.
000341:


000343: 06,3675           00006                           EXTEND
000344: 06,3676           40125                           DCS      VBUF       +2
000345: 06,3677           52155                           DXCH     MPAC                                  #  DELTAT SCALED (CS) X 2(+19)
000346: 06,3700           31461                           CA       NBDY                                  #  (GYRO PULSES)/(CS) X 2(-5)
000347: 06,3701           03714                           TC       FBIASSUB                              #  -(NBDY)(DELTAT)   (GYRO PULSES) X 2(+14)
000348:
000349: 06,3702           10141                           CCS      TEM1                                  #  IF SURFACE FLAG IS SET,
000350: 06,3703           03460                           TC       IRIGZ                                 #  COMPENSATE ACCELERATION TERMS
000351:
000352: 06,3704           00006                           EXTEND
000353: 06,3705           40125                           DCS      VBUF       +2
000354: 06,3706           52155                           DXCH     MPAC                                  #  DELTAT SCALED (CS) X 2(+19)
000355: 06,3707           41462                           CS       NBDZ                                  #  (GYRO PULSES)/(CS) X 2(-5)
000356: 06,3710           03714                           TC       FBIASSUB                              #  +(NBDZ)(DELTAT)   (GYRO PULSES) X 2(+14)
000357:
000358: 06,3711           11477                           CCS      GCOMPSW                               #  ARE GYRO COMMANDS GREATER THAN 2 PULSES
000359: 06,3712           13557                           TCF      1/GYRO                                #  YES
000360: 06,3713           15146                           TCF      ENDOFJOB                              #  NO
000361:


000363: 06,3714           56002        FBIASSUB           XCH      Q
000364: 06,3715           54131                           TS       BUF        +1
000365:
000366: 06,3716           30002                           CA       Q                                     #  NBD SCALED (GYRO PULSES)/(CS) X 2(-5)
000367: 06,3717           00006                           EXTEND
000368: 06,3720           70154                           MP       MPAC                                  #  DELTAT SCALED (CS) X 2(+19)
000369: 06,3721           50130                           INDEX    BUF
000370: 06,3722           21472                           DAS      GCOMP                                 #  HI(NBD)(DELTAT)   (GYRO PULSES) X 2(+14)
000371:
000372: 06,3723           30002                           CA       Q                                     #  NOW FRACTIONAL PART
000373: 06,3724           00006                           EXTEND
000374: 06,3725           70155                           MP       MPAC       +1
000375: 06,3726           54001                           TS       L
000376: 06,3727           34746                           CAF      ZERO
000377: 06,3730           50130                           INDEX    BUF
000378: 06,3731           21472                           DAS      GCOMP                                 #  (NBD)(DELTAT)      (GYRO PULSES) X 2(+14)
000379:
000380: 06,3732           13544                           TCF      DRFTSUB2                              #  CHECK MAGNITUDE OF COMPENSATION
000381:
000382: 06,3733           04607        LASTBIAS           TC       BANKCALL
000383: 06,3734           17264                           CADR     PIPUSE1
000384:
000385: 06,3735           11477                           CCS      GCOMPSW
000386: 06,3736           13741                           TCF      +3
000387: 06,3737           13741                           TCF      +2
000388: 06,3740           15146                           TCF      ENDOFJOB
000389:
000390: 06,3741           30104                           CA       FLAGWRD8                              #  IF SURFACE FLAG IS SET, SET TEM1
000391: 06,3742           74735                           MASK     SURFFBIT                              #  POSITIVE SO THAT THE ACCELERATION TERMS
000392: 06,3743           54141                           TS       TEM1                                  #  WILL BE COMPENSATED.
000393:
000394: 06,3744           37737                           CAF      PRIO31                                #  2 SECONDS SCALED (CS) X 2(+8)
000395: 06,3745           57074                           XCH      1/PIPADT
000396: 06,3746           40000                           COM
000397: 06,3747           61234                           AD       PIPTIME    +1
000398: 06,3750           13652                           TCF      NBD2
000399:
000400: 06,3751           33601        GCOMPZER           CAF      LGCOMP                                #  ROUTINE TO ZERO GCOMP BEFORE FIRST
000401: 06,3752           56003                           XCH      EBANK                                 #  CALL TO 1/PIPA
000402: 06,3753           54163                           TS       MODE
000403:
000404: 06,3754           34746                           CAF      ZERO
000405: 06,3755           55477                           TS       GCOMPSW
000406: 06,3756           55471                           TS       GCOMP
000407: 06,3757           55472                           TS       GCOMP      +1
000408: 06,3760           55473                           TS       GCOMP      +2
000409: 06,3761           55474                           TS       GCOMP      +3
000410: 06,3762           55475                           TS       GCOMP      +4
000411:


000413: 06,3763           55476                           TS       GCOMP      +5
000414:
000415: 06,3764           13423                           TCF      IRIG1                                 #  RESTORE EBANK AND RETURN
000416:

End of include-file IMU_COMPENSATION_PACKAGE.agc.  Parent file is MAIN.agc


