
Source Code


000002:                                                                                                  ## Copyright:   Public domain.
000003:                                                                                                  ## Filename:    IMU_MODE_SWITCHING_ROUTINES.agc
000004:                                                                                                  ## Purpose:     A section of Luminary revision 210.
000005:                                                                                                  ##              It is part of the source code for the Lunar Module's (LM)
000006:                                                                                                  ##              Apollo Guidance Computer (AGC) for Apollo 15-17.
000007:                                                                                                  ##              This file is intended to be a faithful transcription, except
000008:                                                                                                  ##              that the code format has been changed to conform to the
000009:                                                                                                  ##              requirements of the yaYUL assembler rather than the
000010:                                                                                                  ##              original YUL assembler.
000011:                                                                                                  ## Reference:   pp. 1306-1334
000012:                                                                                                  ## Assembler:   yaYUL
000013:                                                                                                  ## Contact:     Ron Burkey <info@sandroid.org>.
000014:                                                                                                  ## Website:     www.ibiblio.org/apollo/index.html
000015:                                                                                                  ## Mod history: 2016-11-17 JL   Created from Luminary131 version.
000016:                                                                                                  ##              2016-12-08 MAS  Began transcription
000017:                                                                                                  ##              2016-12-09 MAS  Completed updates for Luminary 210.
000018:                                                                                                  ##              2016-12-11 HG   Fix operand CAGETEST -> CAGETSTG
000019:                                                                                                  ##                                          GYROEXIT -> EXITGYRO
000020:                                                                                                  ##                                          CAGETEST -> COARSTST
000021:                                                                                                  ##              2016-12-26 RSB  Comment-text proofed using ProoferComments
000022:                                                                                                  ##                              and corrected errors found.
000023:                                                                                                  ##              2017-01-28 RSB  Comment-text fixes identified for Luminary 69.
000024:


000026:    4000                                           SETLOC   FFTAG3
000027:    4000                                           BANK
000028:
000029:    5461  E3,1471                                  EBANK=   COMMAND
000030:
000031:                                                                                                  #           FIXED-FIXED ROUTINES.
000032:
000033:    5461                                           COUNT*   $$/IMODE
000034:    5461           34746        ZEROICDU           CAF      ZERO                                  #  ZERO ICDU COUNTERS.
000035:    5462           54032                           TS       CDUX
000036:    5463           54033                           TS       CDUY
000037:    5464           54034                           TS       CDUZ
000038:    5465           00002                           TC       Q
000039:
000040:    5466     4734               SPSCODE            =        BIT9
000041:


000043:                                                                                                  #           IMU ZEROING ROUTINE.
000044:
000045: 11,3776                                           BANK     11
000046: 07,2000                                           SETLOC   MODESW
000047: 07,2000                                           BANK
000048:
000049: 07,2701                                           COUNT*   $$/IMODE
000050: 07,2701           00004        IMUZERO            INHINT                                         #  ROUTINE TO ZERO ICDUS.
000051: 07,2702           41035                           CS       DSPTAB     +11D                       #  DONT ZERO CDUS IF IMU IN GIMBAL LOCK AND
000052: 07,2703           74762                           MASK     BITS4&6                               #  COARSE ALIGN (GIMBAL RUNAWAY PROTECTION)
000053: 07,2704           10000                           CCS      A
000054: 07,2705           12711                           TCF      IMUZEROA
000055:
000056: 07,2706           05571                           TC       ALARM                                 #  IF SO.
000057: 07,2707           00206                           OCT      00206
000058:
000059: 07,2710           13676                           TCF      CAGETSTJ   +4                         #  IMMEDIATE FAILURE.
000060:
000061: 07,2711           03672        IMUZEROA           TC       CAGETSTJ
000062:                                                                                                  #  DELETE
000063: 07,2712           41300                           CS       IMODES33                              #  DISABLE DAP AUTO AND HOLD MODES
000064: 07,2713           74764                           MASK     SUPER011                              #      BIT5 FOR GROUND
000065: 07,2714           27300                           ADS      IMODES33
000066:
000067: 07,2715           41277                           CS       IMODES30                              #  INHIBIT ICDUFAIL AND IMUFAIL (IN CASE WE
000068: 07,2716           75745                           MASK     BITS3&4                               #  JUST CAME OUT OF COARSE ALIGN).
000069: 07,2717           27277                           ADS      IMODES30
000070:
000071: 07,2720           44762                           CS       BITS4&6                               #  SEND ZERO ENCODE WITH COARSE AND ERROR
000072: 07,2721           00006                           EXTEND                                         #  COUNTER DISABLED.
000073: 07,2722           03012                           WAND     CHAN12
000074:
000075: 07,2723           03253                           TC       NOATTOFF                              #  TURN OFF NO ATT LAMP.
000076:
000077: 07,2724           34740                           CAF      BIT5
000078: 07,2725           00006                           EXTEND
000079: 07,2726           05012                           WOR      CHAN12
000080:
000081: 07,2727           05461                           TC       ZEROICDU
000082: 07,2730           34737                           CAF      BIT6                                  #  WAIT 320 MS TO GIVE AGS ADEQUATE TIME TO
000083: 07,2731           05205                           TC       WAITLIST                              #  RECEIVE ITS PULSE TRAIN.
000084: 07,2732  E3,1474                                  EBANK=   CDUIND
000085: 07,2732           02744 16103                     2CADR    IMUZERO2
000086:
000087: 07,2734           41277                           CS       IMODES30                              #  SEE IF IMU OPERATING AND ALARM IF NOT.
000088: 07,2735           74734                           MASK     BIT9
000089: 07,2736           10000                           CCS      A
000090: 07,2737           12742                           TCF      MODEEXIT


000092: 07,2740           05571                           TC       ALARM
000093: 07,2741           00210                           OCT      210
000094:
000095: 07,2742           00003        MODEEXIT           RELINT                                         #  GENERAL MODE-SWITCHING EXIT.
000096: 07,2743           14622                           TCF      SWRETURN
000097:
000098:
000099: 07,2744           03660        IMUZERO2           TC       CAGETEST
000100: 07,2745           05461                           TC       ZEROICDU                              #  ZERO CDUX, CDUY, CDUZ
000101:
000102: 07,2746           44740                           CS       BIT5                                  #  REMOVE ZERO DISCRETE.
000103: 07,2747           00006                           EXTEND
000104: 07,2750           03012                           WAND     CHAN12
000105:
000106: 07,2751           34732                           CAF      BIT11                                 #  WAIT 10 SECS FOR CTRS TO FIND GIMBALS
000107: 07,2752           05226                           TC       VARDELAY
000108:
000109: 07,2753           03660        IMUZERO3           TC       CAGETEST
000110: 07,2754           45745                           CS       BITS3&4                               #  REMOVE IMUFAIL AND ICDUFAIL INHIBIT.
000111: 07,2755           71277                           MASK     IMODES30
000112: 07,2756           55277                           TS       IMODES30
000113:
000114: 07,2757           44764                           CS       SUPER011                              #  ENABLE DAP AUTO AND HOLD MODES
000115: 07,2760           71300                           MASK     IMODES33                              #      BIT5 FOR GROUND
000116: 07,2761           55300                           TS       IMODES33
000117:
000118: 07,2762           04665                           TC       IBNKCALL                              #  SET ISS WARNING IF EITHER OF ABOVE ARE
000119: 07,2763           14703                           CADR     SETISSW                               #  PRESENT.
000120:
000121: 07,2764           13633                           TCF      ENDIMU
000122:


000124:                                                                                                  #           IMU COARSE ALIGN MODE.
000125:
000126: 07,2765           00004        IMUCOARS           INHINT
000127: 07,2766           03672                           TC       CAGETSTJ
000128: 07,2767           03131                           TC       SETCOARS
000129:
000130: 07,2770           36263                           CAF      SIX
000131: 07,2771           05205                           TC       WAITLIST
000132: 07,2772  E3,1474                                  EBANK=   CDUIND
000133: 07,2772           02775 16103                     2CADR    COARS
000134:
000135:
000136: 07,2774           12742                           TCF      MODEEXIT
000137:
000138: 07,2775           03660        COARS              TC       CAGETEST
000139: 07,2776           34737                           CAF      BIT6                                  #  ENABLE ALL THREE ISS CDU ERROR COUNTERS
000140: 07,2777           00006                           EXTEND
000141: 07,3000           05012                           WOR      CHAN12
000142:
000143: 07,3001           34743                           CAF      TWO                                   #  SET CDU INDICATOR
000144: 07,3002           55474        COARS1             TS       CDUIND
000145:
000146: 07,3003           51474                           INDEX    CDUIND                                #  COMPUTE THETAD - THETAA IN 1:S
000147: 07,3004           30321                           CA       THETAD                                #    COMPLEMENT FORM
000148: 07,3005           00006                           EXTEND
000149: 07,3006           51474                           INDEX    CDUIND
000150: 07,3007           20032                           MSU      CDUX
000151: 07,3010           00006                           EXTEND
000152: 07,3011           74730                           MP       BIT13                                 #  SHIFT RIGHT 2
000153: 07,3012           56001                           XCH      L                                     #  ROUND
000154: 07,3013           60000                           DOUBLE
000155: 07,3014           54061                           TS       ITEMP1
000156: 07,3015           13017                           TCF      +2
000157: 07,3016           26001                           ADS      L
000158:
000159: 07,3017           51474                           INDEX    CDUIND                                #  DIFFERENCE TO BE COMPUTED
000160: 07,3020           23471                           LXCH     COMMAND
000161: 07,3021           11474                           CCS      CDUIND
000162: 07,3022           03002                           TC       COARS1
000163:
000164: 07,3023           34743                           CAF      TWO                                   #  MINIMUM OF 4 MS WAIT
000165: 07,3024           05226                           TC       VARDELAY
000166:


000168: 07,3025           03660        COARS2             TC       CAGETEST                              #  DONT CONTINUE IF CAGED.
000169: 07,3026           54061                           TS       ITEMP1                                #  SETS TO +0.
000170: 07,3027           34743                           CAF      TWO                                   #  SET CDU INDICATOR
000171: 07,3030           55474                 +3        TS       CDUIND
000172:
000173: 07,3031           51474                           INDEX    CDUIND
000174: 07,3032           11471                           CCS      COMMAND                               #  NUMBER OF PULSES REQUIRED
000175: 07,3033           03037                           TC       COMPOS                                #  GREATER THAN MAX ALLOWED
000176: 07,3034           03046                           TC       NEXTCDU    +1
000177: 07,3035           03104                           TC       COMNEG
000178: 07,3036           03046                           TC       NEXTCDU    +1
000179:
000180: 07,3037           63764        COMPOS             AD       -COMMAX                               #  COMMAX = MAX NUMBER OF PULSES ALLOWED
000181: 07,3040           00006                           EXTEND                                         #    MINUS ONE
000182: 07,3041           63114                           BZMF     COMZERO
000183: 07,3042           51474                           INDEX    CDUIND
000184: 07,3043           55471                           TS       COMMAND                               #  REDUCE COMMAND BY MAX NUMBER OF PULSES
000185: 07,3044           43765                           CS       -COMMAX-                              #    ALLOWED
000186:
000187: 07,3045           24061        NEXTCDU            INCR     ITEMP1
000188: 07,3046           64745                           AD       NEG0
000189: 07,3047           51474                           INDEX    CDUIND
000190: 07,3050           54050                           TS       CDUXCMD                               #  SET UP COMMAND REGISTER.
000191:
000192: 07,3051           11474                           CCS      CDUIND
000193: 07,3052           03030                           TC       COARS2     +3
000194:
000195: 07,3053           10061                           CCS      ITEMP1                                #  SEE IF ANY PULSES TO GO OUT.
000196: 07,3054           13120                           TCF      SENDPULS
000197:
000198: 07,3055           05223                           TC       FIXDELAY                              #  WAIT FOR GIMBALS TO SETTLE.
000199: 07,3056           00226                           DEC      150        B-14
000200:
000201:
000202: 07,3057           34743                           CAF      TWO                                   #  AT END OF COMMAND, CHECK TO SEE THAT
000203: 07,3060           54061        CHKCORS            TS       ITEMP1                                #  GIMBALS ARE WITHIN 2 DEGREES OF THETAD.
000204: 07,3061           50000                           INDEX    A
000205: 07,3062           30032                           CA       CDUX
000206: 07,3063           00006                           EXTEND
000207: 07,3064           50061                           INDEX    ITEMP1
000208: 07,3065           20321                           MSU      THETAD
000209: 07,3066           10000                           CCS      A
000210: 07,3067           13075                           TCF      COARSERR
000211: 07,3070           13072                           TCF      CORSCHK2
000212: 07,3071           13075                           TCF      COARSERR
000213:


000215: 07,3072           10061        CORSCHK2           CCS      ITEMP1
000216: 07,3073           13060                           TCF      CHKCORS
000217: 07,3074           13633                           TCF      ENDIMU                                #  END OF COARSE ALIGNMENT.
000218:
000219: 07,3075           63103        COARSERR           AD       COARSTOL                              #  2 DEGREES.
000220: 07,3076           00006                           EXTEND
000221: 07,3077           63072                           BZMF     CORSCHK2
000222:
000223: 07,3100           05571                           TC       ALARM                                 #  COARSE ALIGN ERROR.
000224: 07,3101           00211                           OCT      211
000225:
000226: 07,3102           13656                           TCF      IMUBAD
000227:
000228: 07,3103           77511        COARSTOL           DEC      -.01111                               #  2 DEGREES SCALED AT HALF-REVOLUTIONS
000229:
000230:
000231: 07,3104           63764        COMNEG             AD       -COMMAX
000232: 07,3105           00006                           EXTEND
000233: 07,3106           63114                           BZMF     COMZERO
000234: 07,3107           40000                           COM
000235: 07,3110           51474                           INDEX    CDUIND
000236: 07,3111           55471                           TS       COMMAND
000237: 07,3112           33765                           CA       -COMMAX-
000238: 07,3113           03045                           TC       NEXTCDU
000239:
000240: 07,3114           34746        COMZERO            CAF      ZERO
000241: 07,3115           51474                           INDEX    CDUIND
000242: 07,3116           57471                           XCH      COMMAND
000243: 07,3117           03045                           TC       NEXTCDU
000244:
000245:
000246: 07,3120           37761        SENDPULS           CAF      13,14,15
000247: 07,3121           00006                           EXTEND
000248: 07,3122           05014                           WOR      CHAN14
000249: 07,3123           33766                           CAF      600MS
000250: 07,3124           13024                           TCF      COARS2     -1                         #  THEN TO VARDELAY
000251:
000252: 07,3125           34737        CA+ECE             CAF      BIT6                                  #  ENABLE ALL THREE ISS CDU ERROR COUNTERS
000253: 07,3126           00006                           EXTEND
000254: 07,3127           05012                           WOR      CHAN12
000255: 07,3130           05263                           TC       TASKOVER
000256:


000258: 07,3131           34741        SETCOARS           CAF      BIT4                                  #  BYPASS IF ALREADY IN COARSE ALIGN
000259: 07,3132           00006                           EXTEND
000260: 07,3133           02012                           RAND     CHAN12
000261: 07,3134           10000                           CCS      A
000262: 07,3135           00002                           TC       Q
000263:
000264: 07,3136           44737                           CS       BIT6                                  #  CLEAR ISS ERROR COUNTERS
000265: 07,3137           00006                           EXTEND
000266: 07,3140           03012                           WAND     CHAN12
000267:
000268: 07,3141           44733                           CS       BIT10                                 #  KNOCK DOWN GYRO ACTIVITY
000269: 07,3142           00006                           EXTEND
000270: 07,3143           03014                           WAND     CHAN14
000271: 07,3144           44746                           CS       ZERO
000272: 07,3145           54047                           TS       GYROCMD
000273:
000274: 07,3146           34741                           CAF      BIT4                                  #  PUT ISS IN COARSE ALIGN
000275: 07,3147           00006                           EXTEND
000276: 07,3150           05012                           WOR      CHAN12
000277:
000278: 07,3151           41035                           CS       DSPTAB     +11D                       #  TURN ON NO ATT LAMP
000279: 07,3152           73174                           MASK     OCT40010
000280: 07,3153           27035                           ADS      DSPTAB     +11D
000281:
000282: 07,3154           41300                           CS       IMODES33                              #  DISABLE DAP AUTO AND HOLD MODES
000283: 07,3155           74737                           MASK     BIT6
000284: 07,3156           27300                           ADS      IMODES33
000285:
000286: 07,3157           41277                           CS       IMODES30                              #  DISABLE IMUFAIL
000287: 07,3160           74741                           MASK     BIT4
000288: 07,3161           27277                           ADS      IMODES30
000289:
000290: 07,3162           44740        RNDREFDR           CS       TRACKBIT                              #  CLEAR TRACK FLAG
000291: 07,3163           70075                           MASK     FLAGWRD1
000292: 07,3164           54075                           TS       FLAGWRD1
000293:


000295: 07,3165           44726                           CS       DRFTBIT                               #  CLEAR DRIFT FLAG
000296: 07,3166           70076                           MASK     FLAGWRD2
000297: 07,3167           54076                           TS       FLAGWRD2
000298:
000299: 07,3170           44730                           CS       REFSMBIT                              #  CLEAR REFSMMAT FLAG
000300: 07,3171           70077                           MASK     FLAGWRD3
000301: 07,3172           54077                           TS       FLAGWRD3
000302:
000303: 07,3173           00002                           TC       Q
000304:
000305: 07,3174           40010        OCT40010           OCT      40010
000306:


000308:                                                                                                  #           IMU FINE ALIGN MODE SWITCH.
000309:
000310: 07,3175           00004        IMUFINE            INHINT
000311: 07,3176           03672                           TC       CAGETSTJ                              #  SEE IF IMU BEING CAGED.
000312:
000313: 07,3177           43763                           CS       BITS4-5                               #  RESET ZERO AND COARSE
000314: 07,3200           00006                           EXTEND
000315: 07,3201           03012                           WAND     CHAN12
000316:
000317: 07,3202           44737                           CS       BIT6                                  #  INSURE DAP AUTO AND HOLD MODES ENABLED
000318: 07,3203           71300                           MASK     IMODES33
000319: 07,3204           55300                           TS       IMODES33
000320:
000321: 07,3205           03253                           TC       NOATTOFF
000322:
000323: 07,3206           34733                           CAF      BIT10                                 #  IMU FAIL WAS INHIBITED DURING THE
000324: 07,3207           05205                           TC       WAITLIST                              #  PRESUMABLY PRECEDING COARSE ALIGN. LEAVE
000325: 07,3210  E3,1474                                  EBANK=   CDUIND
000326: 07,3210           03221 16103                     2CADR    IFAILOK                               #  IT ON FOR THE FIRST 5 SECS OF FINE ALIGN
000327:
000328:
000329: 07,3212           34771                           CAF      2SECS
000330: 07,3213           05205                           TC       WAITLIST
000331: 07,3214  E3,1474                                  EBANK=   CDUIND
000332: 07,3214           03217 16103                     2CADR    IMUFINED
000333:
000334:
000335: 07,3216           12742                           TCF      MODEEXIT
000336:
000337: 07,3217           03660        IMUFINED           TC       CAGETEST                              #  SEE THAT NO ONE HAS CAGED THE IMU.
000338: 07,3220           13633                           TCF      ENDIMU
000339:


000341: 07,3221           03665        IFAILOK            TC       CAGETSTQ                              #  ENABLE IMU FIAL UNLESS IMU BEING CAGED.
000342: 07,3222           15263                           TCF      TASKOVER                              #  IT IS.
000343:
000344: 07,3223           34741                           CAF      BIT4                                  #  DONT RESET IMU FAIL INHIBIT IF SOMEONE
000345: 07,3224           00006                           EXTEND                                         #  HAS GONE INTO COARSE ALIGN.
000346: 07,3225           02012                           RAND     CHAN12
000347: 07,3226           10000                           CCS      A
000348: 07,3227           15263                           TCF      TASKOVER
000349:
000350: 07,3230           41277                           CS       IMODES30                              #  RESET IMUFAIL.
000351: 07,3231           74730                           MASK     BIT13
000352: 07,3232           27277                           ADS      IMODES30
000353: 07,3233           44741                           CS       BIT4
000354: 07,3234           71277        PFAILOK2           MASK     IMODES30
000355: 07,3235           55277                           TS       IMODES30
000356: 07,3236           04665                           TC       IBNKCALL                              #  THE ISS WARNING LIGHT MAY COME ON NOW
000357: 07,3237           14703                           CADR     SETISSW                               #  THAT THE INHIBIT HAS BEEN REMOVED.
000358: 07,3240           15263                           TCF      TASKOVER
000359:
000360: 07,3241           03665        PFAILOK            TC       CAGETSTQ                              #  ENABLE PIP FAIL PROG ALARM.
000361: 07,3242           15263                           TCF      TASKOVER
000362:
000363: 07,3243           41277                           CS       IMODES30                              #  RESET IMU AND PIPA FAIL BITS.
000364: 07,3244           74733                           MASK     BIT10
000365: 07,3245           27277                           ADS      IMODES30
000366:
000367: 07,3246           41300                           CS       IMODES33
000368: 07,3247           74730                           MASK     BIT13
000369: 07,3250           27300                           ADS      IMODES33
000370:
000371: 07,3251           44740                           CS       BIT5
000372: 07,3252           13234                           TCF      PFAILOK2
000373:
000374: 07,3253           43174        NOATTOFF           CS       OCT40010                              #  SUBROUTINE TO TURN OFF NO ATT LAMP.
000375: 07,3254           71035                           MASK     DSPTAB     +11D
000376: 07,3255           64726                           AD       BIT15
000377: 07,3256           55035                           TS       DSPTAB     +11D
000378: 07,3257           00002                           TC       Q
000379:


000381:                                                                                                  #           ROUITNES TO INITIATE AND TERMINATE PROGRAM USE OF THE PIPAS. NO IMUSTALL REQUIRED IN EITHER CASE.
000382:
000383: 07,3260           44746        PIPUSE             CS       ZERO
000384: 07,3261           54037                           TS       PIPAX
000385: 07,3262           54040                           TS       PIPAY
000386: 07,3263           54041                           TS       PIPAZ
000387:
000388: 07,3264           03665        PIPUSE1            TC       CAGETSTQ                              #  DO NOT ENABLE PIPA FAIL IF IMU IS CAGED
000389: 07,3265           14622                           TCF      SWRETURN
000390:
000391: 07,3266           00004                           INHINT
000392: 07,3267           44744                           CS       BIT1                                  #  IF PIPA FAILS FROM NOW ON (UNTIL
000393: 07,3270           71277                           MASK     IMODES30                              #  PIPFREE), LIGHT ISS WARNING.
000394: 07,3271           55277                           TS       IMODES30
000395:
000396: 07,3272           04665        PIPFREE2           TC       IBNKCALL                              #  ISS WARNING MIGHT COME ON NOW.
000397: 07,3273           14703                           CADR     SETISSW                               #  (OR GO OFF ON PIPFREE).
000398:
000399: 07,3274           12742                           TCF      MODEEXIT
000400:
000401: 07,3275           00004        PIPFREE            INHINT                                         #  PROGRAM DONE WITH PIPAS. DONT LIGHT
000402: 07,3276           41277                           CS       IMODES30                              #  ISS WARNING.
000403: 07,3277           74744                           MASK     BIT1
000404: 07,3300           27277                           ADS      IMODES30
000405:
000406: 07,3301           74733                           MASK     BIT10                                 #  IF PIP FAIL ON, DO PROG ALSRM AND RESET
000407: 07,3302           10000                           CCS      A                                     #  ISS WARNING.
000408: 07,3303           12742                           TCF      MODEEXIT
000409:
000410: 07,3304           05571                           TC       ALARM
000411: 07,3305           00212                           OCT      212
000412:
000413: 07,3306           00004                           INHINT
000414:
000415: 07,3307           13272                           TCF      PIPFREE2
000416:


000418:                                                                                                  #           THE FOLLOWING ROUTINE TORQUES THE IRIGS ACCORDING TO DOUBLE PRECISION INPUTS IN THE SIX REGISTERS
000419:                                                                                                  #  BEGINNING AT THE ECADR ARRIVING IN A. THE MINIMUM SIZE OF ANY PULSE TRAIN IS 16 PULSES (.25 CDU COUNTS). THE
000420:                                                                                                  #  UNSENT PORTION OF THE COMMAND IS LEFT INTACT IN THE INPUT COMMAND REGISTERS.
000421:
000422: 07,3310  E3,1400                                  EBANK=   1400                                  #  VARIABLE, ACTUALLY.
000423:
000424: 07,3310           54161        IMUPULSE           TS       MPAC       +5                         #  SAVE ARRIVING ECADR.
000425: 07,3311           03672                           TC       CAGETSTJ                              #  DONT PROCEED IF IMU BEING CAGED.
000426:
000427: 07,3312           11311                           CCS      LGYRO                                 #  SEE IF GYROS BUSY.
000428: 07,3313           03354                           TC       GYROBUSY                              #  SLEEP.
000429:
000430: 07,3314           54156                           TS       MPAC       +2
000431: 07,3315           34737                           CAF      BIT6                                  #  ENABLE THE POWER SUPPLY.
000432: 07,3316           00006                           EXTEND
000433: 07,3317           05014                           WOR      CHAN14
000434:
000435: 07,3320           34742                           CAF      FOUR
000436: 07,3321           05205        GWAKE2             TC       WAITLIST                              #  (IF A JOB WAS PUT TO SLEEP, THE POWER
000437: 07,3322  E3,1474                                  EBANK=   CDUIND                                #  SUPPLY IS LEFT ON BY THE WAKING JOB).
000438: 07,3322           03372 16103                     2CADR    STRTGYRO
000439:
000440:
000441: 07,3324           30161                           CA       MPAC       +5                         #  SET UP EBANK, SAVING CALLER'S EBANK FOR
000442: 07,3325           56003                           XCH      EBANK                                 #  RESTORATION ON RETURN.
000443: 07,3326           56161                           XCH      MPAC       +5
000444: 07,3327           55311                           TS       LGYRO                                 #  RESERVES GYROS.
000445: 07,3330           74350                           MASK     LOW8
000446: 07,3331           54061                           TS       ITEMP1
000447:
000448: 07,3332           34743                           CAF      TWO                                   #  FORCE SIGN AGREEMENT ON INPUTS.
000449: 07,3333           54157        GYROAGRE           TS       MPAC       +3
000450: 07,3334           60000                           DOUBLE
000451: 07,3335           60061                           AD       ITEMP1
000452: 07,3336           54160                           TS       MPAC       +4
000453: 07,3337           00006                           EXTEND
000454: 07,3340           50000                           INDEX    A
000455: 07,3341           31401                           DCA      1400
000456: 07,3342           52155                           DXCH     MPAC
000457: 07,3343           07300                           TC       TPAGREE
000458: 07,3344           52155                           DXCH     MPAC
000459: 07,3345           50160                           INDEX    MPAC       +4
000460: 07,3346           53401                           DXCH     1400
000461:
000462: 07,3347           10157                           CCS      MPAC       +3
000463: 07,3350           13333                           TCF      GYROAGRE
000464:
000465: 07,3351           30161                           CA       MPAC       +5                         #  RESTORE CALLER'S EBANK.
000466: 07,3352           54003                           TS       EBANK
000467: 07,3353           12742                           TCF      MODEEXIT
000468:


000470:                                                                                                  #           ROUTINES TO ALLOW TORQUING BY ONLY ONE JOB AT A TIME.
000471:
000472: 07,3354           00006        GYROBUSY           EXTEND                                         #  SAVE RETURN 2FCADR.
000473: 07,3355           30134                           DCA      BUF2
000474: 07,3356           52155                           DXCH     MPAC
000475: 07,3357           33371        REGSLEEP           CAF      LGWAKE
000476: 07,3360           15124                           TCF      JOBSLEEP
000477:
000478: 07,3361           11311        GWAKE              CCS      LGYRO                                 #  WHEN AWAKENED, SEE IF GYROS STILL BUSY.
000479: 07,3362           13357                           TCF      REGSLEEP                              #  IF SO, SLEEP SOME MORE.
000480:
000481: 07,3363           54156                           TS       MPAC       +2
000482: 07,3364           00006                           EXTEND
000483: 07,3365           30155                           DCA      MPAC
000484: 07,3366           52134                           DXCH     BUF2                                  #  RESTORE SWRETURN INFO.
000485: 07,3367           34744                           CAF      ONE
000486: 07,3370           13321                           TCF      GWAKE2
000487:
000488: 07,3371           17361        LGWAKE             CADR     GWAKE
000489:


000491:                                                                                                  #           GYRO-TORQUING WAITLIST TASKS.
000492:
000493: 07,3372           43630        STRTGYRO           CS       GDESELCT                              #  DE-SELECT LAST GYRO.
000494: 07,3373           00006                           EXTEND
000495: 07,3374           03014                           WAND     CHAN14
000496:
000497: 07,3375           03646                           TC       CAGETSTG
000498:
000499: 07,3376           31311        STRTGYR2           CA       LGYRO                                 #  JUMP ON PHASE COUNTER IN BITS 13-14.
000500: 07,3377           00006                           EXTEND
000501: 07,3400           74741                           MP       BIT4
000502: 07,3401           50000                           INDEX    A
000503: 07,3402           13403                           TCF      +1
000504: 07,3403           03420                           TC       GSELECT                               #  =0. DO Y GYRO.
000505: 07,3404           00202                           OCT      00202
000506:
000507: 07,3405           03420                           TC       GSELECT                               #  =1. DO Z GYRO.
000508: 07,3406           00302                           OCT      00302
000509:
000510: 07,3407           03416                           TC       GSELECT    -2                         #  =2. DO X GYRO.
000511: 07,3410           00100                           OCT      00100
000512:
000513: 07,3411           34746                           CAF      ZERO                                  #  =3. DONE
000514: 07,3412           55311                           TS       LGYRO
000515: 07,3413           33371                           CAF      LGWAKE                                #  WAKE A POSSIBLE SLEEPING JOB.
000516: 07,3414           05130                           TC       JOBWAKE
000517:
000518: 07,3415           13217        NORESET            TCF      IMUFINED                              #  DO NOT RESET POWER SUPPLY
000519:


000521: 07,3416           44742                 -2        CS       FOUR                                  #  SPECIAL ENTRY TO REGRESS LGYRO FOR X.
000522: 07,3417           27311                           ADS      LGYRO
000523:
000524: 07,3420           50002        GSELECT            INDEX    Q                                     #  SELECT GYRO.
000525: 07,3421           30000                           CAF      0                                     #  PACKED WORD CONTAINS GYRO SELECT BITS
000526: 07,3422           54064                           TS       ITEMP4                                #  AND INCREMENT TO LGYRO.
000527: 07,3423           74750                           MASK     SEVEN
000528: 07,3424           64730                           AD       BIT13
000529: 07,3425           27311                           ADS      LGYRO
000530: 07,3426           54003                           TS       EBANK
000531: 07,3427           74350                           MASK     LOW8
000532: 07,3430           54061                           TS       ITEMP1
000533:
000534: 07,3431           44750                           CS       SEVEN
000535: 07,3432           70064                           MASK     ITEMP4
000536: 07,3433           54064                           TS       ITEMP4
000537:
000538: 07,3434           00006                           EXTEND                                         #  MOVE DP COMMAND TO RUPTREGS FOR TESTING.
000539: 07,3435           50061                           INDEX    ITEMP1
000540: 07,3436           31401                           DCA      1400
000541: 07,3437           52071                           DXCH     RUPTREG1
000542:
000543: 07,3440           10070                           CCS      RUPTREG1
000544: 07,3441           13454                           TCF      MAJ+
000545: 07,3442           13444                           TCF      +2
000546: 07,3443           13611                           TCF      MAJ-
000547:
000548: 07,3444           10071                           CCS      RUPTREG2
000549: 07,3445           13451                           TCF      MIN+
000550: 07,3446           13376                           TCF      STRTGYR2
000551: 07,3447           13606                           TCF      MIN-
000552: 07,3450           13376                           TCF      STRTGYR2
000553:


000555: 07,3451           63505        MIN+               AD       -GYROMIN                              #  SMALL POSITIVE COMMAND. SEE IF AT LEAST
000556: 07,3452           00006                           EXTEND                                         #  16 GYRO PULSES.
000557: 07,3453           63376                           BZMF     STRTGYR2
000558:
000559: 07,3454           00006        MAJ+               EXTEND                                         #  DEFINITE POSITIVE OUTPUT.
000560: 07,3455           33632                           DCA      GYROFRAC
000561: 07,3456           20071                           DAS      RUPTREG1
000562:
000563: 07,3457           30064                           CA       ITEMP4                                #  SELECT POSITIVE TORQUING FOR THIS GYRO.
000564: 07,3460           00006                           EXTEND
000565: 07,3461           05014                           WOR      CHAN14
000566:
000567: 07,3462           36115                           CAF      LOW7                                  #  LEAVE NUMBER OF POSSIBLE 8192 AUGMENTS
000568: 07,3463           70071                           MASK     RUPTREG2                              #  TO INITIAL COMMAND IN MAJOR PART OF LONG
000569: 07,3464           56071                           XCH      RUPTREG2                              #  TERM STORAGE AND TRUNCATED FRACTION
000570: 07,3465           00006        GMERGE             EXTEND                                         #  IN MINOR PART. THE MAJOR PART WILL BE
000571: 07,3466           74735                           MP       BIT8                                  #  COUNTED DOWN TO ZERO IN THE COURSE OF
000572: 07,3467           54062                           TS       ITEMP2                                #  PUTTING OUT THE ENTIRE COMMAND.
000573: 07,3470           30070                           CA       RUPTREG1
000574: 07,3471           00006                           EXTEND
000575: 07,3472           74734                           MP       BIT9
000576: 07,3473           54070                           TS       RUPTREG1
000577: 07,3474           30001                           CA       L
000578: 07,3475           00006                           EXTEND
000579: 07,3476           74727                           MP       BIT14
000580: 07,3477           26062                           ADS      ITEMP2                                #  INITIAL COMMAND.
000581:
000582: 07,3500           00006                           EXTEND                                         #  SEE IF MORE THAN ONE PULSE TRAIN NEEDED
000583: 07,3501           30071                           DCA      RUPTREG1                              #  (MORE THAN 16383 PULSES).
000584: 07,3502           67770                           AD       MINUS1
000585: 07,3503           10000                           CCS      A
000586: 07,3504           13552                           TCF      LONGGYRO
000587: 07,3505           77601        -GYROMIN           OCT      -176                                  #  MAY BE ADJUSTED TO SPECIFY MINIMUM CMD
000588: 07,3506           13512                           TCF      +4
000589:
000590: 07,3507           34727                           CAF      BIT14
000591: 07,3510           26062                           ADS      ITEMP2
000592: 07,3511           34746                           CAF      ZERO
000593:
000594: 07,3512           50061                 +4        INDEX    ITEMP1
000595: 07,3513           53401                           DXCH     1400


000597: 07,3514           30062                           CA       ITEMP2                                #  ENTIRE COMMAND.
000598: 07,3515           54047        LASTSEG            TS       GYROCMD
000599: 07,3516           03641                           TC       COARSTST
000600:
000601: 07,3517           30047                           CA       GYROCMD
000602: 07,3520           00006                           EXTEND
000603: 07,3521           74733                           MP       BIT10                                 #  WAITLIST DT
000604: 07,3522           66266                           AD       THREE                                 #  TRUNCATION AND PHASE UNCERTAINTIES.
000605: 07,3523           05205                           TC       WAITLIST
000606: 07,3524  E3,1474                                  EBANK=   CDUIND
000607: 07,3524           03536 16103                     2CADR    TWOPULSE
000608:
000609: 07,3526           03532        EXITGYRO           TC       GYROEXIT
000610: 07,3527           15263                           TCF      TASKOVER
000611: 07,3530           34743        OUTPULSE           CA       BIT2
000612: 07,3531           54047                           TS       GYROCMD
000613: 07,3532           34733        GYROEXIT           CAF      BIT10
000614: 07,3533           00006                           EXTEND
000615: 07,3534           05014                           WOR      CHAN14
000616: 07,3535           00002                           TC       Q
000617: 07,3536           44734        TWOPULSE           CS       BIT9
000618: 07,3537           00006                           EXTEND
000619: 07,3540           03014                           WAND     CHAN14
000620: 07,3541           03530                           TC       OUTPULSE
000621: 07,3542           34744                           CA       BIT1
000622: 07,3543           05175                           TC       TWIDDLE
000623: 07,3544           03372                           ADRES    STRTGYRO
000624: 07,3545           34734                           CA       BIT9
000625: 07,3546           00006                           EXTEND
000626: 07,3547           05014                           WOR      CHAN14
000627: 07,3550           03530                           TC       OUTPULSE
000628: 07,3551           15263                           TCF      TASKOVER
000629: 07,3552           50061        LONGGYRO           INDEX    ITEMP1
000630: 07,3553           53401                           DXCH     1400
000631: 07,3554           34727                           CAF      BIT14                                 #  8192. INITIAL COMMAND IS AT LEAST 8192.
000632: 07,3555           60062                           AD       ITEMP2
000633: 07,3556           54047                           TS       GYROCMD
000634:
000635: 07,3557           00006        AUG3               EXTEND                                         #  GET WAITLIST DT TO TIME WHEN TRAIN IS
000636: 07,3560           74733                           MP       BIT10                                 #  ALMOST OUT.
000637: 07,3561           67766                           AD       NEG3
000638: 07,3562           05205                           TC       WAITLIST
000639: 07,3563  E3,1474                                  EBANK=   CDUIND
000640: 07,3563           03566 16103                     2CADR    8192AUG
000641:
000642: 07,3565           13526                           TCF      EXITGYRO
000643: 07,3566           03641        8192AUG            TC       COARSTST
000644:
000645: 07,3567           31311                           CA       LGYRO                                 #  ADD 8192 PULSES TO GYROCMD
000646: 07,3570           54003                           TS       EBANK


000648: 07,3571           74350                           MASK     LOW8
000649: 07,3572           54061                           TS       ITEMP1
000650:
000651: 07,3573           50061                           INDEX    ITEMP1                                #  SEE IF THIS IS THE LAST AUG.
000652: 07,3574           11400                           CCS      1400
000653: 07,3575           13601                           TCF      AUG2                                  #  MORE TO COME.
000654:
000655: 07,3576           34727                           CAF      BIT14
000656: 07,3577           26047                           ADS      GYROCMD
000657: 07,3600           13516                           TCF      LASTSEG    +1
000658:
000659: 07,3601           50061        AUG2               INDEX    ITEMP1
000660: 07,3602           55400                           TS       1400
000661: 07,3603           34727                           CAF      BIT14
000662: 07,3604           26047                           ADS      GYROCMD
000663: 07,3605           13557                           TCF      AUG3                                  #  COMPUTE DT.
000664:


000666: 07,3606           63505        MIN-               AD       -GYROMIN                              #  POSSIBLE NEGATIVE OUTPUT.
000667: 07,3607           00006                           EXTEND
000668: 07,3610           63376                           BZMF     STRTGYR2
000669:
000670: 07,3611           00006        MAJ-               EXTEND                                         #  DEFINITE NEGATIVE OUTPUT.
000671: 07,3612           43632                           DCS      GYROFRAC
000672: 07,3613           20071                           DAS      RUPTREG1
000673:
000674: 07,3614           30064                           CA       ITEMP4                                #  SELECT NEGATIVE TORQUING FOR THIS GYRO.
000675: 07,3615           64734                           AD       BIT9
000676: 07,3616           00006                           EXTEND
000677: 07,3617           05014                           WOR      CHAN14
000678:
000679: 07,3620           40070                           CS       RUPTREG1                              #  SET UP RUPTREGS TO FALL INTO GMERGE.
000680: 07,3621           54070                           TS       RUPTREG1                              #  ALL NUMBERS PUT INTO GYROCMD ARE
000681: 07,3622           40071                           CS       RUPTREG2                              #  POSITIVE - BIT9 OF CHAN 14 DETERMINES
000682: 07,3623           76115                           MASK     LOW7                                  #  THE SIGN OF THE COMMAND.
000683: 07,3624           40000                           COM
000684: 07,3625           56071                           XCH      RUPTREG2
000685: 07,3626           40000                           COM
000686: 07,3627           13465                           TCF      GMERGE
000687:
000688: 07,3630           01700        GDESELCT           OCT      1700                                  #  TURN OFF SELECT AND ACTIVITY BITS.
000689:
000690: 07,3631           00000 00034  GYROFRAC           2DEC     .215       B-21
000691:


000693:                                                                                                  #           IMU MODE SWITCHING ROUTINES COME HERE WHEN ACTION COMPLETE.
000694:
000695: 07,3633           00006        ENDIMU             EXTEND                                         #  MODE IS BAD IF CAGE HAS OCCURED OR IF
000696: 07,3634           00011                           READ     DSALMOUT                              #  ISS WARNING IS ON.
000697: 07,3635           74744                           MASK     BIT1
000698: 07,3636           10000                           CCS      A
000699: 07,3637           13656                           TCF      IMUBAD
000700:
000701: 07,3640           13704        IMUGOOD            TCF      GOODEND                               #  WITH C(A) = 0.
000702:
000703: 07,3641           34741        COARSTST           CAF      BIT4
000704: 07,3642           00006                           EXTEND
000705: 07,3643           02012                           RAND     CHAN12
000706: 07,3644           10000                           CCS      A
000707: 07,3645           13652                           TCF      DONTPULS
000708:
000709: 07,3646           41277        CAGETSTG           CS       IMODES30
000710: 07,3647           74737                           MASK     BIT6
000711: 07,3650           10000                           CCS      A
000712: 07,3651           00002                           TC       Q
000713:
000714: 07,3652           34746        DONTPULS           CAF      ZERO
000715: 07,3653           55311                           TS       LGYRO
000716:
000717: 07,3654           33371                           CAF      LGWAKE
000718: 07,3655           05130                           TC       JOBWAKE
000719:
000720: 07,3656           34746        IMUBAD             CAF      ZERO
000721: 07,3657           13701                           TCF      BADEND
000722:
000723: 07,3660           34737        CAGETEST           CAF      BIT6                                  #  SUBROUTINE TO TERMINATE IMU MODE
000724: 07,3661           71277                           MASK     IMODES30                              #  SWITCH IF IMU HAS BEEN CAGED.
000725: 07,3662           10000                           CCS      A
000726: 07,3663           13656                           TCF      IMUBAD                                #  DIRECTLY.
000727: 07,3664           00002                           TC       Q                                     #  WITH C(A) = +0.
000728:
000729: 07,3665           41277        CAGETSTQ           CS       IMODES30                              #  SKIP IF IMU NOT BEING CAGED.
000730: 07,3666           74737                           MASK     BIT6
000731: 07,3667           10000                           CCS      A
000732: 07,3670           24002                           INCR     Q
000733: 07,3671           00002                           TC       Q
000734:
000735: 07,3672           41277        CAGETSTJ           CS       IMODES30                              #  IF DURING MODE SWITCH INITIALIZATION
000736: 07,3673           74737                           MASK     BIT6                                  #  IT IS FOUND THAT THE IMU IS BEING CAGED,
000737: 07,3674           10000                           CCS      A                                     #  SET IMUCADR TO -0 TO INDICATE OPERATION
000738: 07,3675           00002                           TC       Q                                     #  COMPLETE BUT FAILED. RETURN IMMEDIATELY
000739:
000740: 07,3676           44746                           CS       ZERO                                  #  TO SWRETURN.
000741: 07,3677           55301                           TS       IMUCADR
000742: 07,3700           12742                           TCF      MODEEXIT
000743:


000745:                                                                                                  #           GENERALIZED MODE SWITCHING TERMINATION. ENTER AT GOODEND FOR SUCCESSFUL COMPLETION OF AN I/O OPERATION
000746:                                                                                                  #  OR AT BADEND FOR A N UNSUCCESSFUL ONE. C(A) OR ARRIVAL =0 FOR IMU, 1 FOR OPTICS.
000747:
000748: 07,3701           54071        BADEND             TS       RUPTREG2                              #  DEVICE INDEX.
000749: 07,3702           44746                           CS       ZERO                                  #  FOR FAILURE.
000750: 07,3703           13706                           TCF      GOODEND    +2
000751:
000752: 07,3704           54071        GOODEND            TS       RUPTREG2
000753: 07,3705           44744                           CS       ONE                                   #  FOR SUCCESS.
000754:
000755: 07,3706           54072                           TS       RUPTREG3
000756: 07,3707           50071                           INDEX    RUPTREG2                              #  SEE IF USING PROGRAM ASLEEP.
000757: 07,3710           11301                           CCS      MODECADR
000758: 07,3711           13715                           TCF      +4                                    #  YES - WAKE IT UP.
000759: 07,3712           13725                           TCF      ENDMODE                               #  IF 0, PROGRAM NOT IN YET.
000760:
000761: 07,3713           00006                           EXTEND
000762: 07,3714           13726                           BZF      ENDMODE    +1                         #  BZF = TCF IF MODECADR = -0.
000763:
000764: 07,3715           34746                           CAF      ZERO                                  #  WAKE SLEEPING PROGRAM.
000765: 07,3716           50071                           INDEX    RUPTREG2
000766: 07,3717           57301                           XCH      MODECADR
000767: 07,3720           05130                           TC       JOBWAKE
000768:
000769: 07,3721           40072                           CS       RUPTREG3                              #  ADVANCE LOC IF SUCCESSFUL.
000770: 07,3722           50064                           INDEX    LOCCTR
000771: 07,3723           26164                           ADS      LOC
000772:
000773: 07,3724           15263                           TCF      TASKOVER
000774:
000775: 07,3725           30072        ENDMODE            CA       RUPTREG3                              #  -0 INDICATES OPERATION COMPLETE BUT
000776: 07,3726           50071                 +1        INDEX    RUPTREG2                              #  UNSUCCESSFUL: -1 INDICATES COMPLETE AND
000777: 07,3727           55301                           TS       MODECADR                              #  SUCCESSFUL.
000778: 07,3730           15263                           TCF      TASKOVER
000779:


000781:                                                                                                  #           GENERAL STALLING ROUTINE. USING PROGRAMS COME HERE TO WAIT FOR I/O COMPLETION.
000782:
000783:                                                                                                  #  PROGRAM DESCRIPTION                                    DATE- 21 FEB 1967
000784:                                                                                                  #                                            LOG SECTION IMU MODE SWITCHING
000785:                                                                                                  #  MOD BY- R.MELANSON TO ADD DOCUMENTATION       ASSEMBLY SUNDISK  REV.  82
000786:
000787:                                                                                                  #  FUNCTIONAL DESCRIPTION-
000788:                                                                                                  #    TO DELAY FURTHER EXECUTION OF THE CALLING ROUTINE UNTIL ITS SELECTED
000789:                                                                                                  #    I/O FUNCTION IS COMPLETE.THE FOLLOWING CHECKS ON THE CALLING ROUTINE:S
000790:                                                                                                  #    MODECADR ARE MADE AND ACTED UPON.
000791:                                                                                                  #      1) +0 INDICATES INCOMPLETE I/O OPERATION.CALLING ROUTINE IS PUT TO
000792:                                                                                                  #         SLEEP.
000793:                                                                                                  #      2) -1 INDICATES COMPLETED I/O OPERATION. STALL BYPASSES JOBSLEEP
000794:                                                                                                  #         CALL AND RETURNS TO CALLING ROUTINE AT L+3
000795:                                                                                                  #      3) -0 INDICATES COMPLETED I/O WITH FAILURE. STALL CLEARS MODECADR
000796:                                                                                                  #         AND RETURNS TO CALLING ROUTINE AT L+2.
000797:                                                                                                  #      4) VALUE GREATER THAN 0 INDICATES TWO ROUTINES CALLING FOR USE OF
000798:                                                                                                  #         SAME DEVICE. STALL EXITS TO ABORT WHICH EXECUTES A PROGRAM
000799:                                                                                                  #         RESTART WHICH IN TURN CLEARS ALL MODECADR REGISTERS.
000800:
000801:                                                                                                  #   CALLING SEQUENCE-
000802:                                                                                                  #    L   TC   BANKCALL
000803:                                                                                                  #    L+1 CADR (ONE OF 5 STALL ADDRESSES I.E. IMUSTALL,OPTSTALL,RADSTALL,
000804:                                                                                                  #              AOTSTALL,OR ATTSTALL)
000805:
000806:                                                                                                  #   NORMAL-EXIT MODE-
000807:                                                                                                  #    TCF   JOBSLEEP OR TCF  MODEXIT
000808:
000809:                                                                                                  #  ALARM OR ABORT EXIT MODE-
000810:                                                                                                  #    TC   ABORT
000811:
000812:                                                                                                  #  OUTPUT-
000813:                                                                                                  #     MODECADR= CADR IF JOBSLEEP
000814:                                                                                                  #     MODECADR=+0    IF I/O COMPLETE
000815:                                                                                                  #     BUF2=L+3       IF I/O COMPLETE AND GOOD.
000816:                                                                                                  #     BUF2=L+2 IF I/O COMPLETE BUT FAILED.
000817:
000818:                                                                                                  #  ERASABLE INITIALIZATION-
000819:                                                                                                  #    BUF2 CONTAINS RETURN ADDRESS PLUS 1,(L+2)
000820:                                                                                                  #    BUF2+1 CONTAINS FBANK VALUE OF CALLING ROUTINE.
000821:                                                                                                  #    MODECADR OF CALLING ROUTINE CONTAINS +0,-1,-0 OR  CADR RETURN ADDRESS.
000822:
000823:                                                                                                  #  DEBRIS-
000824:                                                                                                  #    RUPTREG2 AND CALLING ROUTINE MODECADR.
000825:
000826: 07,3731           34744        AOTSTALL           CAF      ONE                                   #  AOT.
000827: 07,3732           03736                           TC       STALL
000828:
000829: 07,3733           34743        RADSTALL           CAF      TWO
000830: 07,3734           13736                           TCF      STALL
000831:


000833: 07,3735  07,3731               OPTSTALL           EQUALS   AOTSTALL
000834:
000835: 07,3735           34746        IMUSTALL           CAF      ZERO                                  #  IMU.
000836:
000837: 07,3736           00004        STALL              INHINT
000838: 07,3737           54071                           TS       RUPTREG2                              #  SAVE DEVICE INDEX.
000839: 07,3740           50000                           INDEX    A                                     #  SEE IF OPERATION COMPLETE.
000840: 07,3741           11301                           CCS      MODECADR
000841: 07,3742           13760                           TCF      MODABORT                              #  ALLOWABLE STATES ARE +0, -1, AND -0.
000842: 07,3743           13754                           TCF      MODESLP                               #  OPERATION INCOMPLETE.
000843: 07,3744           13750                           TCF      MODEGOOD                              #  COMPLETE AND GOOD IF = -1.
000844:
000845: 07,3745           50071        MG2                INDEX    RUPTREG2                              #  COMPLETE AND FAILED IF -0. RESET TO +0.
000846: 07,3746           55301                           TS       MODECADR                              #  RETURN TO CALLER.
000847: 07,3747           12742                           TCF      MODEEXIT
000848:
000849: 07,3750           10000        MODEGOOD           CCS      A                                     #  MAKE SURE INITIAL STATE -1.
000850: 07,3751           13760                           TCF      MODABORT
000851:
000852: 07,3752           24133                           INCR     BUF2                                  #  IF SO, INCREMENT RETURN ADDRESS AND
000853: 07,3753           13745                           TCF      MG2                                   #  RETURN IMMEDIATELY, SETTING CADR = +0.
000854:
000855: 07,3754           04636        MODESLP            TC       MAKECADR                              #  CALL FROM SWITCHABLE FIXED ONLY.
000856: 07,3755           50071                           INDEX    RUPTREG2
000857: 07,3756           55301                           TS       MODECADR
000858: 07,3757           15124                           TCF      JOBSLEEP
000859:
000860: 07,3760           52134        MODABORT           DXCH     BUF2
000861: 07,3761           05712                           TC       BAILOUT1                              #  TWO PROGRAMS USING THE SAME DEVICE.
000862: 07,3762           31210                           OCT      31210
000863:


000865:                                                                                                  #           CONSTANTS FOR MODE SWITCHING ROUTINES
000866:
000867: 07,3763     5745               BITS3&4            =        OCT14
000868: 07,3763     4762               BITS4&6            =        OCT50
000869: 07,3763           00030        BITS4-5            OCT      00030
000870: 07,3764     4735               IMUSEFLG           EQUALS   BIT8                                  #  INTERPRETER SWITCH 7.
000871: 07,3764           77500        -COMMAX            DEC      -191       B-14
000872: 07,3765           77477        -COMMAX-           DEC      -192       B-14
000873: 07,3766           00074        600MS              DEC      60         B-14
000874: 07,3767  07,3175               IMUFIN20           =        IMUFINE
000875: 21,2000                                           SETLOC   MANUR
000876: 21,2000                                           BANK
000877:
000878: 21,2764           31304        GOMANUR            CA       ATTCADR                               #  IS KALCMANU FREE
000879: 21,2765           00006                           EXTEND
000880: 21,2766           12771                           BZF      OKMANUR
000881: 21,2767           04626                           TC       POSTJUMP
000882: 21,2770           17760                           CADR     MODABORT
000883: 21,2771           00006        OKMANUR            EXTEND
000884: 21,2772           30134                           DCA      BUF2
000885: 21,2773           53305                           DXCH     ATTCADR                               #  SAVE FINAL RETURN FOR KALCMAN3
000886:
000887: 21,2774           30006                           CA       BBANK
000888: 21,2775           74750                           MASK     SEVEN
000889: 21,2776           27305                           ADS      ATTCADR    +1
000890:
000891: 21,2777           30167                           CA       PRIORITY
000892: 21,3000           77746                           MASK     PRIO37
000893: 21,3001           55306                           TS       ATTPRIO                               #  SAVE USERS PRIO
000894:
000895: 21,3002           33006                           CAF      KALEBCON                              #  SET EBANK FOR KALCMAN3
000896: 21,3003           54003                           TS       EBANK
000897: 21,3004           04626                           TC       POSTJUMP
000898: 21,3005           44004                           CADR     KALCMAN3
000899: 21,3006           03275        KALEBCON           ECADR    BCDU
000900:


000902:                                                                                                  #  PROGRAM DESCRIPTION
000903:                                                                                                  #  IMU STATUS CHECK ROUTINE R02 (SUBROUTINE UTILITY)
000904:                                                                                                  #  MOD NO - 1
000905:                                                                                                  #  MOD BY - N.BRODEUR
000906:                                                                                                  #  FUNCTIONAL DESCRIPTION
000907:
000908:                                                                                                  #  TO CHECK WHETHER IMU IS ON AND IF ON WHETHER IT IS ALIGNED TO AN
000909:                                                                                                  #  ORIENTATION KNOWN BY THE CMC. TO REQUEST SELECTION OF THE APPROPRIATE
000910:                                                                                                  #  PROGRAM IF THE IMU IS OFF OR NOT ALIGNED TO AN ORIENTATION KNOWN BY THE
000911:                                                                                                  #  CMC. CALLED THROUGH BANKCALL
000912:                                                                                                  #  CALLING SEQUENCE-
000913:
000914:                                                                                                  #  L        TC     BANKCALL
000915:                                                                                                  #  L+1      CADR   R02BOTH
000916:                                                                                                  #  SUBROUTINES CALLED
000917:
000918:                                                                                                  #        VARALARM
000919:                                                                                                  #        FLAGUP
000920:                                                                                                  #  NORMAL EXIT MODES
000921:
000922:                                                                                                  #  AT L+2 OF CALLING SEQUENCE
000923:                                                                                                  #  ALARM OR ABORT EXIT MODES
000924:                                                                                                  #        GOTOPOOH, WITH ALARM
000925:                                                                                                  #  ERASABLE INITIALIZATION REQUIRED
000926:
000927:                                                                                                  #  NONE
000928:                                                                                                  #  DEBRIS
000929:
000930:                                                                                                  #  CENTRALS-A,Q,L
000931: 04,2000                                           SETLOC   R02
000932: 04,2000                                           BANK
000933: 04,3256                                           COUNT*   $$/R02
000934: 04,3256           00063        DEC51              DEC      51         B-14
000935:
000936:
000937: 15,2000                                           SETLOC   R02BNK15
000938: 15,2000                                           BANK
000939:
000940: 15,3757           34730        R02BOTH            CAF      REFSMBIT
000941: 15,3760           70077                           MASK     FLAGWRD3
000942: 15,3761           10000                           CCS      A
000943: 15,3762           03773                           TC       R02ZERO                               #  ZERO IMUS
000944:
000945: 15,3763           31277                           CA       IMODES30
000946: 15,3764           74734                           MASK     BIT9                                  #  IS ISS INITIALIZED
000947: 15,3765           00006                           EXTEND
000948: 15,3766           13770                           BZF      +2
000949: 15,3767           44741                           CS       BIT4                                  #  SEND IMU ALARM CODE 210
000950: 15,3770           63776                           AD       OCT220                                #  SEND REFSMM ALARM
000951: 15,3771           05740                           TC       VARALARM
000952:


000954: 15,3772           06001                           TC       GOTOPOOH
000955:
000956: 15,3773           05506        R02ZERO            TC       UPFLAG
000957: 15,3774           00007                           ADRES    IMUSE
000958: 15,3775           14622                           TCF      SWRETURN
000959: 15,3776           00220        OCT220             OCT      220
000960:


000962:                                                                                                  #  PROGRAM DESCRIPTION   P06   10FEB67
000963:
000964:                                                                                                  #  TRANSFER THE ISS/CMC FROM THE OPERATE TO THE STANDBY CONDITION.
000965:
000966:                                                                                                  #  THE NORMAL CONDITION OF READINESS OF THE GNCS WHEN NOT IN USE IS STANDBY. IN THIS CONDITION THE IMU
000967:                                                                                                  #  HEATER POWER IS ON. THE IMU OPERATE POWER IS OFF. THE COMPUTER POWER IS ON. THE OPTICS POWER IS OFF. THE
000968:                                                                                                  #  CMC  STANDBY ON THE MAIN AND LEB DISKYS IS ON.
000969:
000970:                                                                                                  #  CALLING SEQUENCE:
000971:                                                                                                  #           ASTRONAUT REQUEST THROUGH DSKY     V37E 06E.
000972:
000973:                                                                                                  #  SUBROUTINES CALLED:
000974:                                                                                                  #           GOPERF1
000975:                                                                                                  #           BANKCALL
000976:                                                                                                  #           FLAGDOWN
000977:


000979:                                                                                                  #  PRESTAND PREPARES FOR STANDBY BY SNAPSHOTTING THE SCALER AND TIME1 TIME2
000980:                                                                                                  #  THE LOW 5 BITS OF THE SCALER ARE INSPECTED TO INSURE COMPATIBILITY
000981:                                                                                                  #  BETWEEN THE SCALER READING AND THE TIME1 TIME2 READING.
000982:
000983: 37,2000                                           SETLOC   P05P06
000984: 37,2000                                           BANK
000985:
000986: 37,3654     0314                                  EBANK=   TIME2SAV
000987: 37,3654                                           COUNT*   $$/P06
000988:
000989: 37,3654           05506        P06                TC       UPFLAG                                #  SET NODOV37 BIT
000990: 37,3655           00054                           ADRES    NODOFLAG
000991:
000992: 37,3656           00004        PRESTAND           INHINT
000993: 37,3657           00006                           EXTEND
000994: 37,3660           30025                           DCA      TIME2                                 #  SNAPSHOT TIME1TIME2
000995: 37,3661           52315                           DXCH     TIME2SAV
000996: 37,3662           03713                           TC       SCALPREP
000997: 37,3663           03656                           TC       PRESTAND                              #  T1,T2,SCALER NOT COMPATIBLE
000998: 37,3664           52155                           DXCH     MPAC                                  #  T1,T2 AND SCALER OK
000999: 37,3665           52317                           DXCH     SCALSAVE                              #  STORE SCALER
001000: 37,3666           00004                           INHINT
001001: 37,3667           04607                           TC       BANKCALL
001002: 37,3670           17162                           CADR     RNDREFDR                              #  REFSMM, DRIFT, TRACK FLAGS DOWN
001003:
001004: 37,3671           05520                           TC       DOWNFLAG
001005: 37,3672           00007                           ADRES    IMUSE                                 #  IMUSE DOWN
001006: 37,3673           05520                           TC       DOWNFLAG
001007: 37,3674           00010                           ADRES    RNDVZFLG                              #  RNDVZFLG DOWN
001008:
001009: 37,3675           34732                           CAF      BIT11
001010: 37,3676           00006                           EXTEND
001011: 37,3677           05013                           WOR      CHAN13                                #  SET STANDBY ENABLE BIT
001012:
001013: 37,3700           05355                           TC       PHASCHNG                              #  SET RESTART TO POSTAND WHEN STANDBY
001014: 37,3701           07024                           OCT      07024                                 #    RECOVERS
001015: 37,3702           20000                           OCT      20000
001016: 37,3703     0316                                  EBANK=   SCALSAVE
001017: 37,3703           03733 76060                     2CADR    POSTAND
001018:
001019: 37,3705           34765                           CAF      OCT62
001020: 37,3706           04607                           TC       BANKCALL
001021: 37,3707           20635                           CADR     GOPERF1
001022: 37,3710           13705                           TCF      -3
001023: 37,3711           13705                           TCF      -4
001024: 37,3712           13705                           TCF      -5
001025:
001026: 37,3713     4765               OCT62              EQUALS   .5SEC                                 #  DEC 50 = OCT 62
001027:
001028:                                                                                                  #  THE LOW 5 BITS OF THE SCALER READS 10000 FOR THE FIRST INTERVAL AFTER A


001030:                                                                                                  #  T1 INCREMENT. IF SCALPREP DETECTS THIS INTERVAL THE T1,T2 AND SCALER
001031:                                                                                                  #  DATA ARE NOT COMPATABLE AND RETURN IS TO L+1 FOR ANOTHER READING OF THE
001032:                                                                                                  #  DATA. OTHERWISE, THE RETURN IS TO L+2 TO PROCEED. ROUTINE ALSO PREPARES
001033:                                                                                                  #  THE SCALER READING FOR COMPUTATION OF THE INCREMENT TO UPDATE T1T2. (THE
001034:                                                                                                  #  10 MS BIT (BIT 6) OF THE SCALER IS INCREMENTED 5 MS OUT OF PHASE FROM
001035:                                                                                                  #  T1.) ADDITION OF 5 MS (BIT 5) TO THE SCALER READING HAS THE EFFECT OF
001036:                                                                                                  #  ADJUSTING BIT 6 IN THE SCALER TO BE IN PHASE WITH BIT 1 OF T1. THE LOW 5
001037:                                                                                                  #  BITS OF THE SCALER READING ARE THEN SET TO ZERO, TO TRUNCATE THE SCALER
001038:                                                                                                  #  DATA TO 10 MS. RESULTS ARE STORED IN MPAC, +1.
001039:
001040: 37,3713           00006        SCALPREP           EXTEND
001041: 37,3714           22156                           QXCH     MPAC       +2
001042: 37,3715           04103                           TC       FINETIME   +1
001043: 37,3716           00003                           RELINT
001044: 37,3717           52155                           DXCH     MPAC
001045: 37,3720           34740                           CA       BIT5                                  #  ADD 5 MS TO THE SCALER READING.
001046: 37,3721           54001                           TS       L
001047: 37,3722           34746                           CA       ZERO
001048: 37,3723           20155                           DAS      MPAC
001049: 37,3724           44337                           CS       LOW5                                  #  SET LOW 5 BITS OF (SCALER+5MS) TO ZERO
001050: 37,3725           70155                           MASK     MPAC       +1                         #  AND STORE RESULTS IN MPAC,+1.
001051: 37,3726           56155                           XCH      MPAC       +1
001052: 37,3727           74337                           MASK     LOW5                                  #  TEST LOW 5 BITS OF SCALER FOR THE FIRST
001053:                                                                                                  #  INTERVAL AFTER THE T1 INCREMENT
001054:                                                                                                  #  (NOW = 00000, SINCE BIT 5 ADDED).
001055: 37,3730           10000                           CCS      A                                     #  IS IT 1ST INTERVAL AFTER T1 INCREMENT
001056: 37,3731           24156                           INCR     MPAC       +2                         #  NO
001057: 37,3732           00156                           TC       MPAC       +2                         #  YES
001058:
001059:                                                                                                  #  POSTAND RECOVERS TIME AFTER STANDBY.THE SCALER IS SNAPSHOTTED AND THE
001060:                                                                                                  #  TIME1 TIME2 COUNTER IS SET TO ZERO. THE LOW 5 BITS OF THE SCALER ARE
001061:                                                                                                  #  INSPECTED TO INSURE COMPATABILITY BETWEEN THE SCALER READING AND THE
001062:                                                                                                  #  CLEARING OF THE TIME COUNTER. IT THEN COMPUTES THE DIFFERENCE IN SCALER
001063:                                                                                                  #  VALUES (IN DP) AND ADDS THIS TO THE PREVIOUSLY SNAPSHOTTED VALUES OF
001064:                                                                                                  #  TIME1 TIME2 AND PLACES THIS NEW TIME INTO THE TIME1 TIME2 COUNTER.
001065:
001066: 37,3733                                           COUNT*   $$/P05
001067:
001068: 37,3733           44732        POSTAND            CS       BIT11                                 #  RECOVER TIME AFTER STANDBY.
001069: 37,3734           00006                           EXTEND
001070: 37,3735           03013                           WAND     CHAN13                                #  CLEAR STANDBY ENABLE BIT
001071: 37,3736           00004                           INHINT
001072: 37,3737           34746                           CA       ZERO
001073: 37,3740           54001                           TS       L
001074: 37,3741           52025                           DXCH     TIME2                                 #  CLEAR TIME1TIME2
001075: 37,3742           03713                           TC       SCALPREP                              #  STORE SCALER IN MPAC, MPAC+1
001076: 37,3743           03736                           TC       POSTAND    +3                         #  T1,T2,SCALER NOT COMPATIBLE
001077: 37,3744           00006                           EXTEND                                         #  T1,T2 AND SCALER OK
001078: 37,3745           40317                           DCS      SCALSAVE
001079: 37,3746           20155                           DAS      MPAC                                  #  FORM DP DIFFERENCE OF POSTSTANDBY SCALER


001081: 37,3747           34733                           CAF      BIT10                                 #  MINUS PRESTANDBY SCALER AND SHIFT RIGHT
001082: 37,3750           07330                           TC       SHORTMP                               #  5 TO ALIGN BITS WITH TIME1TIME2.
001083: 37,3751           34746                           CAF      ZERO
001084: 37,3752           54156                           TS       MPAC       +2                         #  NEEDED FOR TP AGREE
001085: 37,3753           07300                           TC       TPAGREE                               #  MAKE DP DIFF AGREE
001086: 37,3754           10154                           CCS      MPAC
001087: 37,3755           03762                           TC       POSTCOM                               #  IF DP DIFF NET +, NO SCALER OVERFLOW
001088: 37,3756           03762                           TC       POSTCOM                               #  BETWEEN PRE AND POST STANDBY.
001089: 37,3757           03760                           TC       +1                                    #  IF DP DIFF NET -, SCALER OVERFLOWED. ADD
001090: 37,3760           34733                           CAF      BIT10                                 #  BIT 10 TO HIGH DIFF TO CORRECT.
001091: 37,3761           26154                           ADS      MPAC
001092: 37,3762           00006        POSTCOM            EXTEND                                         #  C(MPAC,+1) IS MAGNITUDE OF DELTA SCALER.
001093: 37,3763           30315                           DCA      TIME2SAV                              #  PRESTANDBY TIME1TIME2
001094: 37,3764           20155                           DAS      MPAC
001095: 37,3765           07300                           TC       TPAGREE                               #  FORCE SIGN AGREEMENT
001096: 37,3766           52155                           DXCH     MPAC                                  #  UPDATED VALUE FOR T1,T2.
001097: 37,3767           20025                           DAS      TIME2                                 #  LOAD UPDATED VALUE INTO T1,T2, WITH
001098: 37,3770           05520                           TC       DOWNFLAG                              #  CLEAR NODOFLAG
001099: 37,3771           00054                           ADRES    NODOFLAG
001100:
001101: 37,3772           06001                           TC       GOTOPOOH
001102:

End of include-file IMU_MODE_SWITCHING_ROUTINES.agc.  Parent file is MAIN.agc


