
Source Code


000002:                                                                                                  ## Copyright:   Public domain.
000003:                                                                                                  ## Filename:    IMU_COMPENSATION_PACKAGE.agc
000004:                                                                                                  ## Purpose:     A section of Luminary revision 210.
000005:                                                                                                  ##              It is part of the source code for the Lunar Module's (LM)
000006:                                                                                                  ##              Apollo Guidance Computer (AGC) for Apollo 15-17.
000007:                                                                                                  ##              This file is intended to be a faithful transcription, except
000008:                                                                                                  ##              that the code format has been changed to conform to the
000009:                                                                                                  ##              requirements of the yaYUL assembler rather than the
000010:                                                                                                  ##              original YUL assembler.
000011:                                                                                                  ## Reference:   pp. 338-349
000012:                                                                                                  ## Assembler:   yaYUL
000013:                                                                                                  ## Contact:     Ron Burkey <info@sandroid.org>.
000014:                                                                                                  ## Website:     www.ibiblio.org/apollo/index.html
000015:                                                                                                  ## Mod history: 2016-11-17 JL   Created from Luminary131 version.
000016:                                                                                                  ##              2016-11-24 HG   Transcribed
000017:


000019: 07,2607                                           BANK     7
000020: 06,2000                                           SETLOC   IMUCOMP
000021: 06,2000                                           BANK
000022:
000023: 06,3333  E3,1460                                  EBANK=   NBDX
000024:
000025: 06,3333                                           COUNT*   $$/ICOMP
000026: 06,3333           33601        1/PIPA             CAF      LGCOMP                                #  SAVE EBANK OF CALLING PROGRAM
000027: 06,3334           56003                           XCH      EBANK
000028: 06,3335           54163                           TS       MODE
000029:
000030: 06,3336           11477                           CCS      GCOMPSW                               #  BYPASS IF GCOMPSW NEGATIVE
000031: 06,3337           13342                           TCF      +3
000032: 06,3340           13342                           TCF      +2
000033: 06,3341           13423                           TCF      IRIG1                                 #  RETURN
000034:
000035: 06,3342           34742        1/PIPA1            CAF      FOUR                                  #  PIPAZ, PIPAY, PIPAX
000036: 06,3343           54132                           TS       BUF        +2
000037:
000038: 06,3344           50132                           INDEX    BUF        +2
000039: 06,3345           31453                           CA       PIPASCF                               #  (P.P.M.) X 2(-9)
000040: 06,3346           00006                           EXTEND
000041: 06,3347           50132                           INDEX    BUF        +2
000042: 06,3350           70324                           MP       DELVX                                 #  (PP) X 2(+14) NOW (PIPA PULSES) X 2(+5)
000043: 06,3351           54002                           TS       Q                                     #  SAVE MAJOR PART
000044:
000045: 06,3352           30001                           CA       L                                     #  MINOR PART
000046: 06,3353           00006                           EXTEND
000047: 06,3354           74737                           MP       BIT6                                  #  SCALE 2(+9)   SHIFT RIGHT 9
000048: 06,3355           50132                           INDEX    BUF        +2
000049: 06,3356           54325                           TS       DELVX      +1                         #  FRACTIONAL PIPA PULSES SCALED 2(+14)
000050:
000051: 06,3357           30002                           CA       Q                                     #  MAJOR PART
000052: 06,3360           00006                           EXTEND
000053: 06,3361           74737                           MP       BIT6                                  #  SCALE 2(+9)   SHIFT RIGHT 9
000054: 06,3362           50132                           INDEX    BUF        +2
000055: 06,3363           20325                           DAS      DELVX                                 #  (PIPAI) + (PIPAI)(SF)
000056:
000057: 06,3364           50132                           INDEX    BUF        +2
000058: 06,3365           41452                           CS       PIPABIAS                              #  (PIPA PULSES)/(CS) X 2(-3)            *
000059: 06,3366           00006                           EXTEND
000060: 06,3367           71074                           MP       1/PIPADT                              #  (CS) X 2(+8) NOW (PIPA PULSES) X 2(+5)*
000061: 06,3370           00006                           EXTEND
000062: 06,3371           74737                           MP       BIT6                                  #  SCALE 2(+9) SHIFT RIGHT 9             *
000063: 06,3372           50132                           INDEX    BUF        +2
000064: 06,3373           20325                           DAS      DELVX                                 #  (PIPAI) + (PIPAI)(SFE) - (BIAS)(DELTAT)
000065:
000066: 06,3374           10132                           CCS      BUF        +2                         #  PIPAZ, PIPAY, PIPAX
000067: 06,3375           67770                           AD       NEG1
000068: 06,3376           13343                           TCF      1/PIPA1    +1
000069:


000071: 06,3377           13400                           NOOP                                           #  LESS THAN ZERO IMPOSSIBLE
000072:


000074: 06,3400           55477        IRIGCOMP           TS       GCOMPSW                               #  INDICATE COMMANDS 2 PULSES OR LESS.
000075: 06,3401           54130                           TS       BUF                                   #  INDEX COUNTER . IRIGX, IRIGY, IRIGZ.
000076:
000077: 06,3402           03426                           TC       IRIGX                                 #  COMPENSATE ACCELERATION TERMS
000078:
000079: 06,3403           41460                           CS       NBDX                                  #  (GYRO PULSES)/(CS) X 2(-5)
000080: 06,3404           03524                           TC       DRIFTSUB                              #  -(NBOX)(DELTAT)   (GYRO PULSES) X 2(+14)
000081:
000082: 06,3405           03443                           TC       IRIGY                                 #  COMPENSATE ACCELERATION TERMS
000083:
000084: 06,3406           41461                           CS       NBDY                                  #  (GYRO PULSES)/(CS) X 2(-5)
000085: 06,3407           03524                           TC       DRIFTSUB                              #  -(NBDY)(DELTAT)   (GYRO PULSES) X 2(+14)
000086:
000087: 06,3410           03460                           TC       IRIGZ                                 #  COMPENSATE ACCELERATION TERMS
000088:
000089: 06,3411           31462                           CA       NBDZ                                  #  (GYRO PULSES)/(CS) X 2(-5)
000090: 06,3412           03524                           TC       DRIFTSUB                              #  +(NBDZ)(DELTAT)   (GYRO PULSES) X 2(+14)
000091:
000092: 06,3413           11477                           CCS      GCOMPSW                               #  ARE GYRO COMMANDS GREATER THAN 2 PULSES
000093: 06,3414           13416                           TCF      +2                                    #  YES  SEND OUT GYRO TORQUING COMMANDS.
000094: 06,3415           13423                           TCF      IRIG1                                 #  NO   RETURN
000095:
000096: 06,3416           35022                           CA       PRIO21                                #  PRIO GREATER THAN SERVICER
000097: 06,3417           05063                           TC       NOVAC                                 #  SEND OUT GYRO TORQUING COMMANDS.
000098: 06,3420  E3,1460                                  EBANK=   NBDX
000099: 06,3420           03557 14063                     2CADR    1/GYRO
000100:
000101: 06,3422           00003                           RELINT
000102: 06,3423           30163        IRIG1              CA       MODE                                  #  RESTORE CALLERS EBANK
000103: 06,3424           54003                           TS       EBANK
000104: 06,3425           14622                           TCF      SWRETURN
000105:


000107: 06,3426           00006        IRIGX              EXTEND
000108: 06,3427           22156                           QXCH     MPAC       +2                         #  SAVE Q
000109: 06,3430           00006                           EXTEND
000110: 06,3431           40325                           DCS      DELVX                                 #  (PIPA PULSES) X 2(+14)
000111: 06,3432           52155                           DXCH     MPAC
000112: 06,3433           31463                           CA       ADIAX                                 #  (GYRO PULSES)/(PIPA PULSE) X 2(-6)     *
000113: 06,3434           03475                           TC       GCOMPSUB                              #  -(ADIAX)(PIPAX)   (GYRO PULSES) X 2(+14)
000114:
000115: 06,3435           00006                           EXTEND
000116: 06,3436           40327                           DCS      DELVY                                 #  (PIPA PULSES) X 2(+14)
000117: 06,3437           52155                           DXCH     MPAC
000118: 06,3440           41466                           CS       ADSRAX                                #  (GYRO PULSES)/(PIPA PULSE) X 2(-6)     *
000119: 06,3441           03475                           TC       GCOMPSUB                              #  +(ADSRAX)(PIPAY)  (GYRO PULSES) X 2(+14)
000120:
000121:                                                                                                  #                EXTEND                             ***
000122:                                                                                                  #                DCS             DELVY              ***    (PIPA PULSES) X 2(+14)
000123:                                                                                                  #                DXCH            MPAC               ***
000124:                                                                                                  #                CA              ADOAX              ***    (GYRO PULSES)/(PIPA PULSE) X 2(-6)     *
000125:                                                                                                  #                TC              GCOMPSUB           ***    -(ADOAX)(PIPAZ)   (GYRO PULSES) X 2(+14)
000126:
000127: 06,3442           00156                           TC       MPAC       +2
000128:
000129: 06,3443           00006        IRIGY              EXTEND
000130: 06,3444           22156                           QXCH     MPAC       +2                         #  SAVE Q
000131: 06,3445           00006                           EXTEND
000132: 06,3446           40327                           DCS      DELVY                                 #  (PIPA PULSES) X 2(+14)
000133: 06,3447           52155                           DXCH     MPAC
000134: 06,3450           31464                           CA       ADIAY                                 #  (GYRO PULSES)/(PIPA PULSE) X 2(-6)    *
000135: 06,3451           03475                           TC       GCOMPSUB                              #  -(ADIAY)(PIPAY)   (GYRO PULSES) X 2(+14)
000136:
000137: 06,3452           00006                           EXTEND
000138: 06,3453           40331                           DCS      DELVZ                                 #  (PIPA PULSES) X 2(+14)
000139: 06,3454           52155                           DXCH     MPAC
000140: 06,3455           41467                           CS       ADSRAY                                #  (GYRO PULSES)/(PIPA PULSE) X 2(-6)     *
000141: 06,3456           03475                           TC       GCOMPSUB                              #  +(ADSRAY)(PIPAZ)  (GYRO PULSES) X 2(+14)
000142:
000143:                                                                                                  #                EXTEND                              ***
000144:                                                                                                  #                DCS             DELVX               ***   (PIPA PULSES) X 2(+14)
000145:                                                                                                  #                DXCH            MPAC                ***
000146:                                                                                                  #                CA              ADOAY               ***   (GYRO PULSES)/(PIPA PULS) X 2(-6)     *
000147:                                                                                                  #                TC              GCOMPSUB            ***   -(ADOAY)(/PIPAX)  (GYRO PULSES) X 2(+14)
000148:
000149: 06,3457           00156                           TC       MPAC       +2
000150:
000151: 06,3460           00006        IRIGZ              EXTEND
000152: 06,3461           22156                           QXCH     MPAC       +2                         #  SAVE Q
000153: 06,3462           00006                           EXTEND
000154: 06,3463           40327                           DCS      DELVY                                 #  (PIPA PULSES) X 2(-14)
000155: 06,3464           52155                           DXCH     MPAC
000156: 06,3465           31470                           CA       ADSRAZ                                #  (GYRO PULSES)/(PIPA PULSE) X 2(-6)    *
000157:


000159: 06,3466           03475                           TC       GCOMPSUB                              #  -(ADSRAZ)(PIPAY)  (GYRO PULSES) X 2(+14)
000160:
000161: 06,3467           00006                           EXTEND
000162: 06,3470           40331                           DCS      DELVZ                                 #  (PIPA PULSES) X 2(+14)
000163: 06,3471           52155                           DXCH     MPAC
000164: 06,3472           31465                           CA       ADIAZ                                 #  (GYRO PULSES)/(PIPA PULSE) X 2(-6)     *
000165: 06,3473           03475                           TC       GCOMPSUB                              #  -(ADIAZ)(PIPAZ)   (GYRO PULSES) X 2(+14)
000166:
000167:                                                                                                  #                EXTEND                              ***
000168:                                                                                                  #                DCS             DELVX               ***   (PIPA PULSE) X 2(+14)
000169:                                                                                                  #                DXCH            MPAC                ***
000170:                                                                                                  #                CS              ADOAZ               ***   (GYRO PULSES)/(PIPA PULSE) X 2(-6)     *
000171:                                                                                                  #                TC              GCOMPSUB            ***   +(ADOAZ)(PIPAX)   (GYRO PULSES) X 2(+14)
000172:
000173: 06,3474           00156                           TC       MPAC       +2
000174:


000176: 06,3475           56154        GCOMPSUB           XCH      MPAC                                  #  ADIA OR ADSRA COEFFICIENT ARRIVES IN A
000177: 06,3476           00006                           EXTEND                                         #  C(MPAC) = (PIPA PULSES) X 2(+14)
000178: 06,3477           70154                           MP       MPAC                                  #  (GYRO PULSES)/(PIPA PULSE) X 2(-6)      *
000179: 06,3500           52123                           DXCH     VBUF                                  #  NOW = (GYRO PULSES) X 2(+8)             *
000180:
000181: 06,3501           30155                           CA       MPAC       +1                         #  MINOR PART OF PIPA PULSES
000182: 06,3502           00006                           EXTEND
000183: 06,3503           70154                           MP       MPAC                                  #  ADIA OR ADSRA
000184: 06,3504           54001                           TS       L
000185: 06,3505           34746                           CAF      ZERO
000186: 06,3506           20123                           DAS      VBUF                                  #  NOW = (GYRO PULSES) X 2(+8)             *
000187:
000188: 06,3507           30122                           CA       VBUF                                  #  PARTIAL RESULT - MAJOR
000189: 06,3510           00006                           EXTEND
000190: 06,3511           74734                           MP       BIT9                                  #  SCALE 2(+6)      SHIFT RIGHT 6          *
000191: 06,3512           50130                           INDEX    BUF                                   #  RESULT = (GYRO PULSES) X 2(+14)
000192: 06,3513           21472                           DAS      GCOMP                                 #  HI(ADIA)(PIPAI)  OR  HI(ADSRA)(PIPAI)
000193:
000194: 06,3514           30123                           CA       VBUF       +1                         #  PARTIAL RESULT - MINOR
000195: 06,3515           00006                           EXTEND
000196: 06,3516           74734                           MP       BIT9                                  #  SCALE 2(+6)      SHIFT RIGHT 6          *
000197: 06,3517           54001                           TS       L
000198: 06,3520           34746                           CAF      ZERO
000199: 06,3521           50130                           INDEX    BUF                                   #  RESULT = (GYRO PULSES) X 2(+14)
000200: 06,3522           21472                           DAS      GCOMP                                 #  (ADIA)(PIPAI)  OR  (ADSRA)(PIPAI)
000201:
000202: 06,3523           00002                           TC       Q
000203:


000205: 06,3524           00006        DRIFTSUB           EXTEND
000206: 06,3525           22131                           QXCH     BUF        +1
000207:
000208: 06,3526           00006                           EXTEND                                         #  C(A) = NBD    (GYRO PULSES)/(CS) X 2(-5)
000209: 06,3527           71074                           MP       1/PIPADT                              #  (CS) X 2(+8)   NOW (GYRO PULSES) X 2(+3)
000210: 06,3530           22155                           LXCH     MPAC       +1                         #  SAVE FOR FRACTIONAL COMPENSATION
000211: 06,3531           00006                           EXTEND
000212: 06,3532           74741                           MP       BIT4                                  #  SCALE 2(+11)     SHIFT RIGHT 11
000213: 06,3533           50130                           INDEX    BUF
000214: 06,3534           21472                           DAS      GCOMP                                 #  HI(NBD)(DELTAT)   (GYRO PULSES) X 2(+14)
000215:
000216: 06,3535           30155                           CA       MPAC       +1                         #  NOW MINOR PART
000217: 06,3536           00006                           EXTEND
000218: 06,3537           74741                           MP       BIT4                                  #  SCALE 2(+11)     SHIFT RIGHT 11
000219: 06,3540           54001                           TS       L
000220: 06,3541           34746                           CAF      ZERO
000221: 06,3542           50130                           INDEX    BUF                                   #  ADD IN FRACTIONAL COMPENSATION
000222: 06,3543           21472                           DAS      GCOMP                                 #  (NBD)(DELTAT)     (GYRO PULSES) X 2(+14)
000223:
000224: 06,3544           34743        DRFTSUB2           CAF      TWO                                   #  PIPAX, PIPAY, PIPAZ
000225: 06,3545           60130                           AD       BUF
000226: 06,3546           56130                           XCH      BUF
000227: 06,3547           50000                           INDEX    A
000228: 06,3550           11471                           CCS      GCOMP                                 #  ARE GYRO COMMANDS 1 PULSE OR GREATER
000229: 06,3551           13553                           TCF      +2                                    #  YES
000230: 06,3552           00131                           TC       BUF        +1                         #  NO
000231:
000232: 06,3553           73623                           MASK     COMPCHK                               #  DEC -1
000233: 06,3554           10000                           CCS      A                                     #  ARE GYRO COMMANDS GREATER THAN 2 PULSES
000234: 06,3555           55477                           TS       GCOMPSW                               #  YES - SET GCOMPSW POSITIVE
000235: 06,3556           00131                           TC       BUF        +1                         #  NO
000236:


000238: 06,3557           34742        1/GYRO             CAF      FOUR                                  #  PIPAZ, PIPAY, PIPAX
000239: 06,3560           54130                           TS       BUF
000240:
000241: 06,3561           50130                           INDEX    BUF                                   #  SCALE GYRO COMMANDS FOR IMUPULSE
000242: 06,3562           31472                           CA       GCOMP      +1                         #  FRACTIONAL PULSES
000243: 06,3563           00006                           EXTEND
000244: 06,3564           74735                           MP       BIT8                                  #  SHIFT RIGHT 7
000245: 06,3565           50130                           INDEX    BUF
000246: 06,3566           55472                           TS       GCOMP      +1                         #  FRACTIONAL PULSES SCALED
000247:
000248: 06,3567           34746                           CAF      ZERO                                  #  SET GCOMP = 0 FOR DAS INSTRUCTION
000249: 06,3570           50130                           INDEX    BUF
000250: 06,3571           57471                           XCH      GCOMP                                 #  GYRO PULSES
000251: 06,3572           00006                           EXTEND
000252: 06,3573           74735                           MP       BIT8                                  #  SHIFT RIGHT 7
000253: 06,3574           50130                           INDEX    BUF
000254: 06,3575           21472                           DAS      GCOMP                                 #  ADD THESE TO FRACTIONAL PULSES ABOVE
000255:
000256: 06,3576           10130                           CCS      BUF                                   #  PIPAZ, PIPAY, PIPAX
000257: 06,3577           67770                           AD       NEG1
000258: 06,3600           13560                           TCF      1/GYRO     +1
000259: 06,3601           01471        LGCOMP             ECADR    GCOMP                                 #  LESS THAN ZERO IMPOSSIBLE
000260:
000261: 06,3602           33601                           CAF      LGCOMP
000262: 06,3603           04607                           TC       BANKCALL
000263: 06,3604           17310                           CADR     IMUPULSE                              #  CALL GYRO TORQUING ROUTINE
000264: 06,3605           04607                           TC       BANKCALL
000265: 06,3606           17735                           CADR     IMUSTALL                              #  WAIT FOR PULSES TO GET OUT
000266: 06,3607           13610                           TCF      +1
000267:
000268: 06,3610           34742        GCOMP1             CAF      FOUR                                  #  PIPAZ, PIPAY, PIPAX
000269: 06,3611           54130                           TS       BUF
000270:
000271: 06,3612           50130                           INDEX    BUF                                   #  RESCALE
000272: 06,3613           31472                           CA       GCOMP      +1
000273: 06,3614           00006                           EXTEND
000274: 06,3615           74735                           MP       BIT8                                  #  SHIFT MINOR PART LEFT 7 - MAJOR PART = 0
000275: 06,3616           50130                           INDEX    BUF
000276: 06,3617           23472                           LXCH     GCOMP      +1                         #  BITS 8-14 OF MINOR PART WERE = 0
000277:
000278: 06,3620           10130                           CCS      BUF                                   #  PIPAZ, PIPAY, PIPAX
000279: 06,3621           67770                           AD       NEG1
000280: 06,3622           13611                           TCF      GCOMP1     +1
000281: 06,3623           77776        COMPCHK            DEC      -1         B-14                       #  LESS THAN ZERO IMPOSSIBLE
000282: 06,3624           15146                           TCF      ENDOFJOB
000283:


000285: 06,3625           11477        NBDONLY            CCS      GCOMPSW                               #  BYPASS IF GCOMPSW NEGATIVE
000286: 06,3626           13631                           TCF      +3
000287: 06,3627           13631                           TCF      +2
000288: 06,3630           15146                           TCF      ENDOFJOB
000289:
000290: 06,3631           00004                           INHINT
000291: 06,3632           10076                           CCS      FLAGWRD2                              #  PREREAD T3RUPT MAY COINCIDE
000292: 06,3633           15146                           TCF      ENDOFJOB
000293: 06,3634           15146                           TCF      ENDOFJOB
000294: 06,3635           13636                           TCF      +1
000295:
000296: 06,3636           30104                           CA       FLAGWRD8                              #  IF SURFACE FLAG IS SET, SET TEM1
000297: 06,3637           74735                           MASK     BIT8                                  #  POSITIVE SO THAT THE ACCELERATION TERMS
000298: 06,3640           54141                           TS       TEM1                                  #  WILL BE COMPENSATED.
000299: 06,3641           00006                           EXTEND
000300: 06,3642           13645                           BZF      +3                                    #  ARE WE ON THE SURFACE
000301:
000302: 06,3643           04665                           TC       IBNKCALL                              #  ON THE SURFACE
000303: 06,3644           77543                           CADR     PIPASR     +3                         #  READ PIPAS, BUT DO NOT SCALE THEM
000304:
000305: 06,3645           30025                           CA       TIME1                                 #  (CS) X 2(+14)
000306: 06,3646           57074                           XCH      1/PIPADT                              #  PREVIOUS TIME
000307: 06,3647           00003                           RELINT
000308: 06,3650           40000                           COM
000309: 06,3651           61074                           AD       1/PIPADT                              #  PRESENT TIME - PREVIOUS TIME
000310: 06,3652           64727        NBD2               AD       HALF                                  #  CORRECT FOR POSSIBLE TIME1 TICK
000311: 06,3653           64727                           AD       HALF
000312: 06,3654           56001                           XCH      L                                     #  IF TIME1 DID NOT TICK, REMOVE RESULTING
000313: 06,3655           56001                           XCH      L                                     #  OVERFLOW.
000314:
000315: 06,3656           00006        NBD3               EXTEND                                         #  C(A) = DELTAT    (CS) X 2(+14)
000316: 06,3657           74733                           MP       BIT10                                 #  SHIFT RIGHT 5
000317: 06,3660           52125                           DXCH     VBUF       +2
000318:
000319: 06,3661           34746                           CA       ZERO
000320: 06,3662           55477                           TS       GCOMPSW                               #  INDICATE COMMANDS 2 PULSES OR LESS.
000321: 06,3663           54130                           TS       BUF                                   #  INDEX  X, Y, Z.
000322:
000323: 06,3664           10141                           CCS      TEM1                                  #  IF SURFACE FLAG IS SET,
000324: 06,3665           03426                           TC       IRIGX                                 #  COMPENSATE ACCELERATION TERMS.
000325:
000326: 06,3666           00006                           EXTEND
000327: 06,3667           30125                           DCA      VBUF       +2
000328: 06,3670           52155                           DXCH     MPAC                                  #  DELTAT NOW SCALED (CS) X 2(+19)
000329:
000330: 06,3671           41460                           CS       NBDX                                  #  (GYRO PULSES)/(CS) X 2(-5)
000331: 06,3672           03714                           TC       FBIASSUB                              #  -(NBOX)(DELTAT)   (GYRO PULSES) X 2(+14)
000332:
000333: 06,3673           10141                           CCS      TEM1                                  #  IF SURFACE FLAG IS SET,
000334: 06,3674           03443                           TC       IRIGY                                 #  COMPENSAGE ACCELERATION TERMS.
000335:


000337: 06,3675           00006                           EXTEND
000338: 06,3676           40125                           DCS      VBUF       +2
000339: 06,3677           52155                           DXCH     MPAC                                  #  DELTAT SCALED (CS) X 2(+19)
000340: 06,3700           31461                           CA       NBDY                                  #  (BYRO PULSES)/(CS) X 2(-5)
000341: 06,3701           03714                           TC       FBIASSUB                              #  -(NBDY)(DELTAT)   (GYRO PULSES) X 2(+14)
000342:
000343: 06,3702           10141                           CCS      TEM1                                  #  IF SURFACE FLAG IS SET,
000344: 06,3703           03460                           TC       IRIGZ                                 #  COMPENSATE ACCELERATION TERMS
000345:
000346: 06,3704           00006                           EXTEND
000347: 06,3705           40125                           DCS      VBUF       +2
000348: 06,3706           52155                           DXCH     MPAC                                  #  DELTAT SCALED (CS) X 2(+19)
000349: 06,3707           41462                           CS       NBDZ                                  #  (GYRO PULSES)/(CS) X 2(-5)
000350: 06,3710           03714                           TC       FBIASSUB                              #  +(NBDZ)(DELTAT)   (GYRO PULSES) X 2(+14)
000351:
000352: 06,3711           11477                           CCS      GCOMPSW                               #  ARE GYRO COMMANDS GREATER THAN 2 PULSES
000353: 06,3712           13557                           TCF      1/GYRO                                #  YES
000354: 06,3713           15146                           TCF      ENDOFJOB                              #  NO
000355:


000357: 06,3714           56002        FBIASSUB           XCH      Q
000358: 06,3715           54131                           TS       BUF        +1
000359:
000360: 06,3716           30002                           CA       Q                                     #  NBD SCALED (GYRO PULSES)/(CS) X 2(-5)
000361: 06,3717           00006                           EXTEND
000362: 06,3720           70154                           MP       MPAC                                  #  DELTAT SCALED (CS) X 2(+19)
000363: 06,3721           50130                           INDEX    BUF
000364: 06,3722           21472                           DAS      GCOMP                                 #  HI(NBD)(DELTAT)   (GYRO PULSES) X 2(+14)
000365:
000366: 06,3723           30002                           CA       Q                                     #  NO FRACTIONAL PART
000367: 06,3724           00006                           EXTEND
000368: 06,3725           70155                           MP       MPAC       +1
000369: 06,3726           54001                           TS       L
000370: 06,3727           34746                           CAF      ZERO
000371: 06,3730           50130                           INDEX    BUF
000372: 06,3731           21472                           DAS      GCOMP                                 #  (NBD)(DELTAT)      (GYRO PULSES) X 2(+14)
000373:
000374: 06,3732           13544                           TCF      DRFTSUB2                              #  CHECK MAGNITUDE OF COMPENSATION
000375:
000376: 06,3733           04607        LASTBIAS           TC       BANKCALL
000377: 06,3734           17264                           CADR     PIPUSE1
000378:
000379: 06,3735           11477                           CCS      GCOMPSW
000380: 06,3736           13741                           TCF      +3
000381: 06,3737           13741                           TCF      +2
000382: 06,3740           15146                           TCF      ENDOFJOB
000383:
000384: 06,3741           30104                           CA       FLAGWRD8                              #  IF SURFACE FLAG IS SET, SET TEM1
000385: 06,3742           74735                           MASK     SURFFBIT                              #  POSITIVE SO THAT THE ACCELERATION TERMS
000386: 06,3743           54141                           TS       TEM1                                  #  WILL BE COMPENSATED.
000387:
000388: 06,3744           37737                           CAF      PRIO31                                #  2 SECONDS SCALED (CS) X 2(+8)
000389: 06,3745           57074                           XCH      1/PIPADT
000390: 06,3746           40000                           COM
000391: 06,3747           61234                           AD       PIPTIME    +1
000392: 06,3750           13652                           TCF      NBD2
000393:
000394: 06,3751           33601        GCOMPZER           CAF      LGCOMP                                #  ROUTINE TO ZERO GCOMP BEFORE FIRST
000395: 06,3752           56003                           XCH      EBANK                                 #  CALL TO 1/PIPA
000396: 06,3753           54163                           TS       MODE
000397:
000398: 06,3754           34746                           CAF      ZERO
000399: 06,3755           55477                           TS       GCOMPSW
000400: 06,3756           55471                           TS       GCOMP
000401: 06,3757           55472                           TS       GCOMP      +1
000402: 06,3760           55473                           TS       GCOMP      +2
000403: 06,3761           55474                           TS       GCOMP      +3
000404: 06,3762           55475                           TS       GCOMP      +4
000405:


000407: 06,3763           55476                           TS       GCOMP      +5
000408:
000409: 06,3764           13423                           TCF      IRIG1                                 #  RESTORE EBANK AND RETURN
000410:

End of include-file IMU_COMPENSATION_PACKAGE.agc.  Parent file is MAIN.agc


