
Source Code


000002:                                                                                                  ## Copyright:   Public domain.
000003:                                                                                                  ## Filename:    IMU_MODE_SWITCHING_ROUTINES.agc
000004:                                                                                                  ## Purpose:     A section of Luminary revision 210.
000005:                                                                                                  ##              It is part of the source code for the Lunar Module's (LM)
000006:                                                                                                  ##              Apollo Guidance Computer (AGC) for Apollo 15-17.
000007:                                                                                                  ##              This file is intended to be a faithful transcription, except
000008:                                                                                                  ##              that the code format has been changed to conform to the
000009:                                                                                                  ##              requirements of the yaYUL assembler rather than the
000010:                                                                                                  ##              original YUL assembler.
000011:                                                                                                  ## Reference:   pp. 1306-1334
000012:                                                                                                  ## Assembler:   yaYUL
000013:                                                                                                  ## Contact:     Ron Burkey <info@sandroid.org>.
000014:                                                                                                  ## Website:     www.ibiblio.org/apollo/index.html
000015:                                                                                                  ## Mod history: 2016-11-17 JL   Created from Luminary131 version.
000016:                                                                                                  ##              2016-12-08 MAS  Began transcription
000017:                                                                                                  ##              2016-12-09 MAS  Completed updates for Luminary 210.
000018:                                                                                                  ##              2016-12-11 HG   Fix operand CAGETEST -> CAGETSTG
000019:                                                                                                  ##                                          GYROEXIT -> EXITGYRO
000020:                                                                                                  ##                                          CAGETEST -> COARSTST
000021:                                                                                                  ##              2016-12-26 RSB  Comment-text proofed using ProoferComments
000022:                                                                                                  ##                              and corrected errors found.
000023:


000025:    4000                                           SETLOC   FFTAG3
000026:    4000                                           BANK
000027:
000028:    5461  E3,1471                                  EBANK=   COMMAND
000029:
000030:                                                                                                  #           FIXED-FIXED ROUTINES.
000031:
000032:    5461                                           COUNT*   $$/IMODE
000033:    5461           34746        ZEROICDU           CAF      ZERO                                  #  ZERO ICDU COUNTERS.
000034:    5462           54032                           TS       CDUX
000035:    5463           54033                           TS       CDUY
000036:    5464           54034                           TS       CDUZ
000037:    5465           00002                           TC       Q
000038:
000039:    5466     4734               SPSCODE            =        BIT9
000040:


000042:                                                                                                  #           IMU ZEROING ROUTINE.
000043:
000044: 11,3776                                           BANK     11
000045: 07,2000                                           SETLOC   MODESW
000046: 07,2000                                           BANK
000047:
000048: 07,2701                                           COUNT*   $$/IMODE
000049: 07,2701           00004        IMUZERO            INHINT                                         #  ROUTINE TO ZERO ICDUS.
000050: 07,2702           41035                           CS       DSPTAB     +11D                       #  DONT ZERO CDUS IF IMU IN GIMBAL LOCK AND
000051: 07,2703           74762                           MASK     BITS4&6                               #  COARSE ALIGN (GIMBAL RUNAWAY PROTECTION)
000052: 07,2704           10000                           CCS      A
000053: 07,2705           12711                           TCF      IMUZEROA
000054:
000055: 07,2706           05571                           TC       ALARM                                 #  IF SO.
000056: 07,2707           00206                           OCT      00206
000057:
000058: 07,2710           13676                           TCF      CAGETSTJ   +4                         #  IMMEDIATE FAILURE.
000059:
000060: 07,2711           03672        IMUZEROA           TC       CAGETSTJ
000061:                                                                                                  #  DELETE
000062: 07,2712           41300                           CS       IMODES33                              #  DISABLE DAP AUTO AND HOLD MODES
000063: 07,2713           74764                           MASK     SUPER011                              #      BIT5 FOR GROUND
000064: 07,2714           27300                           ADS      IMODES33
000065:
000066: 07,2715           41277                           CS       IMODES30                              #  INHIBIT ICDUFAIL AND IMUFAIL (IN CASE WE
000067: 07,2716           75745                           MASK     BITS3&4                               #  JUST CAME OUT OF COARSE ALIGN).
000068: 07,2717           27277                           ADS      IMODES30
000069:
000070: 07,2720           44762                           CS       BITS4&6                               #  SEND ZERO ENCODE WITH COARSE AND ERROR
000071: 07,2721           00006                           EXTEND                                         #  COUNTER DISABLED.
000072: 07,2722           03012                           WAND     CHAN12
000073:
000074: 07,2723           03253                           TC       NOATTOFF                              #  TURN OFF NO ATT LAMP.
000075:
000076: 07,2724           34740                           CAF      BIT5
000077: 07,2725           00006                           EXTEND
000078: 07,2726           05012                           WOR      CHAN12
000079:
000080: 07,2727           05461                           TC       ZEROICDU
000081: 07,2730           34737                           CAF      BIT6                                  #  WAIT 320 MS TO GIVE AGS ADEQUATE TIME TO
000082: 07,2731           05205                           TC       WAITLIST                              #  RECEIVE ITS PULSE TRAIN.
000083: 07,2732  E3,1474                                  EBANK=   CDUIND
000084: 07,2732           02744 16103                     2CADR    IMUZERO2
000085:
000086: 07,2734           41277                           CS       IMODES30                              #  SEE IF IMU OPERATING AND ALARM IF NOT.
000087: 07,2735           74734                           MASK     BIT9
000088: 07,2736           10000                           CCS      A
000089: 07,2737           12742                           TCF      MODEEXIT


000091: 07,2740           05571                           TC       ALARM
000092: 07,2741           00210                           OCT      210
000093:
000094: 07,2742           00003        MODEEXIT           RELINT                                         #  GENERAL MODE-SWITCHING EXIT.
000095: 07,2743           14622                           TCF      SWRETURN
000096:
000097:
000098: 07,2744           03660        IMUZERO2           TC       CAGETEST
000099: 07,2745           05461                           TC       ZEROICDU                              #  ZERO CDUX, CDUY, CDUZ
000100:
000101: 07,2746           44740                           CS       BIT5                                  #  REMOVE ZERO DISCRETE.
000102: 07,2747           00006                           EXTEND
000103: 07,2750           03012                           WAND     CHAN12
000104:
000105: 07,2751           34732                           CAF      BIT11                                 #  WAIT 10 SECS FOR CTRS TO FIND GIMBALS
000106: 07,2752           05226                           TC       VARDELAY
000107:
000108: 07,2753           03660        IMUZERO3           TC       CAGETEST
000109: 07,2754           45745                           CS       BITS3&4                               #  REMOVE IMUFAIL AND ICDUFAIL INHIBIT.
000110: 07,2755           71277                           MASK     IMODES30
000111: 07,2756           55277                           TS       IMODES30
000112:
000113: 07,2757           44764                           CS       SUPER011                              #  ENABLE DAP AUTO AND HOLD MODES
000114: 07,2760           71300                           MASK     IMODES33                              #      BIT5 FOR GROUND
000115: 07,2761           55300                           TS       IMODES33
000116:
000117: 07,2762           04665                           TC       IBNKCALL                              #  SET ISS WARNING IF EITHER OF ABOVE ARE
000118: 07,2763           14703                           CADR     SETISSW                               #  PRESENT.
000119:
000120: 07,2764           13633                           TCF      ENDIMU
000121:


000123:                                                                                                  #           IMU COARSE ALIGN MODE.
000124:
000125: 07,2765           00004        IMUCOARS           INHINT
000126: 07,2766           03672                           TC       CAGETSTJ
000127: 07,2767           03131                           TC       SETCOARS
000128:
000129: 07,2770           36263                           CAF      SIX
000130: 07,2771           05205                           TC       WAITLIST
000131: 07,2772  E3,1474                                  EBANK=   CDUIND
000132: 07,2772           02775 16103                     2CADR    COARS
000133:
000134:
000135: 07,2774           12742                           TCF      MODEEXIT
000136:
000137: 07,2775           03660        COARS              TC       CAGETEST
000138: 07,2776           34737                           CAF      BIT6                                  #  ENABLE ALL THREE ISS CDU ERROR COUNTERS
000139: 07,2777           00006                           EXTEND
000140: 07,3000           05012                           WOR      CHAN12
000141:
000142: 07,3001           34743                           CAF      TWO                                   #  SET CDU INDICATOR
000143: 07,3002           55474        COARS1             TS       CDUIND
000144:
000145: 07,3003           51474                           INDEX    CDUIND                                #  COMPUTE THETAD - THETAA IN 1:S
000146: 07,3004           30321                           CA       THETAD                                #    COMPLEMENT FORM
000147: 07,3005           00006                           EXTEND
000148: 07,3006           51474                           INDEX    CDUIND
000149: 07,3007           20032                           MSU      CDUX
000150: 07,3010           00006                           EXTEND
000151: 07,3011           74730                           MP       BIT13                                 #  SHIFT RIGHT 2
000152: 07,3012           56001                           XCH      L                                     #  ROUND
000153: 07,3013           60000                           DOUBLE
000154: 07,3014           54061                           TS       ITEMP1
000155: 07,3015           13017                           TCF      +2
000156: 07,3016           26001                           ADS      L
000157:
000158: 07,3017           51474                           INDEX    CDUIND                                #  DIFFERENCE TO BE COMPUTED
000159: 07,3020           23471                           LXCH     COMMAND
000160: 07,3021           11474                           CCS      CDUIND
000161: 07,3022           03002                           TC       COARS1
000162:
000163: 07,3023           34743                           CAF      TWO                                   #  MINIMUM OF 4 MS WAIT
000164: 07,3024           05226                           TC       VARDELAY
000165:


000167: 07,3025           03660        COARS2             TC       CAGETEST                              #  DONT CONTINUE IF CAGED.
000168: 07,3026           54061                           TS       ITEMP1                                #  SETS TO +0.
000169: 07,3027           34743                           CAF      TWO                                   #  SET CDU INDICATOR
000170: 07,3030           55474                 +3        TS       CDUIND
000171:
000172: 07,3031           51474                           INDEX    CDUIND
000173: 07,3032           11471                           CCS      COMMAND                               #  NUMBER OF PULSES REQUIRED
000174: 07,3033           03037                           TC       COMPOS                                #  GREATER THAN MAX ALLOWED
000175: 07,3034           03046                           TC       NEXTCDU    +1
000176: 07,3035           03104                           TC       COMNEG
000177: 07,3036           03046                           TC       NEXTCDU    +1
000178:
000179: 07,3037           63764        COMPOS             AD       -COMMAX                               #  COMMAX = MAX NUMBER OF PULSES ALLOWED
000180: 07,3040           00006                           EXTEND                                         #    MINUS ONE
000181: 07,3041           63114                           BZMF     COMZERO
000182: 07,3042           51474                           INDEX    CDUIND
000183: 07,3043           55471                           TS       COMMAND                               #  REDUCE COMMAND BY MAX NUMBER OF PULSES
000184: 07,3044           43765                           CS       -COMMAX-                              #    ALLOWED
000185:
000186: 07,3045           24061        NEXTCDU            INCR     ITEMP1
000187: 07,3046           64745                           AD       NEG0
000188: 07,3047           51474                           INDEX    CDUIND
000189: 07,3050           54050                           TS       CDUXCMD                               #  SET UP COMMAND REGISTER.
000190:
000191: 07,3051           11474                           CCS      CDUIND
000192: 07,3052           03030                           TC       COARS2     +3
000193:
000194: 07,3053           10061                           CCS      ITEMP1                                #  SEE IF ANY PULSES TO GO OUT.
000195: 07,3054           13120                           TCF      SENDPULS
000196:
000197: 07,3055           05223                           TC       FIXDELAY                              #  WAIT FOR GIMBALS TO SETTLE.
000198: 07,3056           00226                           DEC      150        B-14
000199:
000200:
000201: 07,3057           34743                           CAF      TWO                                   #  AT END OF COMMAND, CHECK TO SEE THAT
000202: 07,3060           54061        CHKCORS            TS       ITEMP1                                #  GIMBALS ARE WITHIN 2 DEGREES OF THETAD.
000203: 07,3061           50000                           INDEX    A
000204: 07,3062           30032                           CA       CDUX
000205: 07,3063           00006                           EXTEND
000206: 07,3064           50061                           INDEX    ITEMP1
000207: 07,3065           20321                           MSU      THETAD
000208: 07,3066           10000                           CCS      A
000209: 07,3067           13075                           TCF      COARSERR
000210: 07,3070           13072                           TCF      CORSCHK2
000211: 07,3071           13075                           TCF      COARSERR
000212:


000214: 07,3072           10061        CORSCHK2           CCS      ITEMP1
000215: 07,3073           13060                           TCF      CHKCORS
000216: 07,3074           13633                           TCF      ENDIMU                                #  END OF COARSE ALIGNMENT.
000217:
000218: 07,3075           63103        COARSERR           AD       COARSTOL                              #  2 DEGREES.
000219: 07,3076           00006                           EXTEND
000220: 07,3077           63072                           BZMF     CORSCHK2
000221:
000222: 07,3100           05571                           TC       ALARM                                 #  COARSE ALIGN ERROR.
000223: 07,3101           00211                           OCT      211
000224:
000225: 07,3102           13656                           TCF      IMUBAD
000226:
000227: 07,3103           77511        COARSTOL           DEC      -.01111                               #  2 DEGREES SCALED AT HALF-REVOLUTIONS
000228:
000229:
000230: 07,3104           63764        COMNEG             AD       -COMMAX
000231: 07,3105           00006                           EXTEND
000232: 07,3106           63114                           BZMF     COMZERO
000233: 07,3107           40000                           COM
000234: 07,3110           51474                           INDEX    CDUIND
000235: 07,3111           55471                           TS       COMMAND
000236: 07,3112           33765                           CA       -COMMAX-
000237: 07,3113           03045                           TC       NEXTCDU
000238:
000239: 07,3114           34746        COMZERO            CAF      ZERO
000240: 07,3115           51474                           INDEX    CDUIND
000241: 07,3116           57471                           XCH      COMMAND
000242: 07,3117           03045                           TC       NEXTCDU
000243:
000244:
000245: 07,3120           37761        SENDPULS           CAF      13,14,15
000246: 07,3121           00006                           EXTEND
000247: 07,3122           05014                           WOR      CHAN14
000248: 07,3123           33766                           CAF      600MS
000249: 07,3124           13024                           TCF      COARS2     -1                         #  THEN TO VARDELAY
000250:
000251: 07,3125           34737        CA+ECE             CAF      BIT6                                  #  ENABLE ALL THREE ISS CDU ERROR COUNTERS
000252: 07,3126           00006                           EXTEND
000253: 07,3127           05012                           WOR      CHAN12
000254: 07,3130           05263                           TC       TASKOVER
000255:


000257: 07,3131           34741        SETCOARS           CAF      BIT4                                  #  BYPASS IF ALREADY IN COARSE ALIGN
000258: 07,3132           00006                           EXTEND
000259: 07,3133           02012                           RAND     CHAN12
000260: 07,3134           10000                           CCS      A
000261: 07,3135           00002                           TC       Q
000262:
000263: 07,3136           44737                           CS       BIT6                                  #  CLEAR ISS ERROR COUNTERS
000264: 07,3137           00006                           EXTEND
000265: 07,3140           03012                           WAND     CHAN12
000266:
000267: 07,3141           44733                           CS       BIT10                                 #  KNOCK DOWN GYRO ACTIVITY
000268: 07,3142           00006                           EXTEND
000269: 07,3143           03014                           WAND     CHAN14
000270: 07,3144           44746                           CS       ZERO
000271: 07,3145           54047                           TS       GYROCMD
000272:
000273: 07,3146           34741                           CAF      BIT4                                  #  PUT ISS IN COARSE ALIGN
000274: 07,3147           00006                           EXTEND
000275: 07,3150           05012                           WOR      CHAN12
000276:
000277: 07,3151           41035                           CS       DSPTAB     +11D                       #  TURN ON NO ATT LAMP
000278: 07,3152           73174                           MASK     OCT40010
000279: 07,3153           27035                           ADS      DSPTAB     +11D
000280:
000281: 07,3154           41300                           CS       IMODES33                              #  DISABLE DAP AUTO AND HOLD MODES
000282: 07,3155           74737                           MASK     BIT6
000283: 07,3156           27300                           ADS      IMODES33
000284:
000285: 07,3157           41277                           CS       IMODES30                              #  DISABLE IMUFAIL
000286: 07,3160           74741                           MASK     BIT4
000287: 07,3161           27277                           ADS      IMODES30
000288:
000289: 07,3162           44740        RNDREFDR           CS       TRACKBIT                              #  CLEAR TRACK FLAG
000290: 07,3163           70075                           MASK     FLAGWRD1
000291: 07,3164           54075                           TS       FLAGWRD1
000292:


000294: 07,3165           44726                           CS       DRFTBIT                               #  CLEAR DRIFT FLAG
000295: 07,3166           70076                           MASK     FLAGWRD2
000296: 07,3167           54076                           TS       FLAGWRD2
000297:
000298: 07,3170           44730                           CS       REFSMBIT                              #  CLEAR REFSMMAT FLAG
000299: 07,3171           70077                           MASK     FLAGWRD3
000300: 07,3172           54077                           TS       FLAGWRD3
000301:
000302: 07,3173           00002                           TC       Q
000303:
000304: 07,3174           40010        OCT40010           OCT      40010
000305:


000307:                                                                                                  #           IMU FINE ALIGN MODE SWITCH.
000308:
000309: 07,3175           00004        IMUFINE            INHINT
000310: 07,3176           03672                           TC       CAGETSTJ                              #  SEE IF IMU BEING CAGED.
000311:
000312: 07,3177           43763                           CS       BITS4-5                               #  RESET ZERO AND COARSE
000313: 07,3200           00006                           EXTEND
000314: 07,3201           03012                           WAND     CHAN12
000315:
000316: 07,3202           44737                           CS       BIT6                                  #  INSURE DAP AUTO AND HOLD MODES ENABLED
000317: 07,3203           71300                           MASK     IMODES33
000318: 07,3204           55300                           TS       IMODES33
000319:
000320: 07,3205           03253                           TC       NOATTOFF
000321:
000322: 07,3206           34733                           CAF      BIT10                                 #  IMU FAIL WAS INHIBITED DURING THE
000323: 07,3207           05205                           TC       WAITLIST                              #  PRESUMABLY PRECEDING COARSE ALIGN. LEAVE
000324: 07,3210  E3,1474                                  EBANK=   CDUIND
000325: 07,3210           03221 16103                     2CADR    IFAILOK                               #  IT ON FOR THE FIRST 5 SECS OF FINE ALIGN
000326:
000327:
000328: 07,3212           34771                           CAF      2SECS
000329: 07,3213           05205                           TC       WAITLIST
000330: 07,3214  E3,1474                                  EBANK=   CDUIND
000331: 07,3214           03217 16103                     2CADR    IMUFINED
000332:
000333:
000334: 07,3216           12742                           TCF      MODEEXIT
000335:
000336: 07,3217           03660        IMUFINED           TC       CAGETEST                              #  SEE THAT NO ONE HAS CAGED THE IMU.
000337: 07,3220           13633                           TCF      ENDIMU
000338:


000340: 07,3221           03665        IFAILOK            TC       CAGETSTQ                              #  ENABLE IMU FIAL UNLESS IMU BEING CAGED.
000341: 07,3222           15263                           TCF      TASKOVER                              #  IT IS.
000342:
000343: 07,3223           34741                           CAF      BIT4                                  #  DONT RESET IMU FAIL INHIBIT IF SOMEONE
000344: 07,3224           00006                           EXTEND                                         #  HAS GONE INTO COARSE ALIGN.
000345: 07,3225           02012                           RAND     CHAN12
000346: 07,3226           10000                           CCS      A
000347: 07,3227           15263                           TCF      TASKOVER
000348:
000349: 07,3230           41277                           CS       IMODES30                              #  RESET IMUFAIL.
000350: 07,3231           74730                           MASK     BIT13
000351: 07,3232           27277                           ADS      IMODES30
000352: 07,3233           44741                           CS       BIT4
000353: 07,3234           71277        PFAILOK2           MASK     IMODES30
000354: 07,3235           55277                           TS       IMODES30
000355: 07,3236           04665                           TC       IBNKCALL                              #  THE ISS WARNING LIGHT MAY COME ON NOW
000356: 07,3237           14703                           CADR     SETISSW                               #  THAT THE INHIBIT HAS BEEN REMOVED.
000357: 07,3240           15263                           TCF      TASKOVER
000358:
000359: 07,3241           03665        PFAILOK            TC       CAGETSTQ                              #  ENABLE PIP FAIL PROG ALARM.
000360: 07,3242           15263                           TCF      TASKOVER
000361:
000362: 07,3243           41277                           CS       IMODES30                              #  RESET IMU AND PIPA FAIL BITS.
000363: 07,3244           74733                           MASK     BIT10
000364: 07,3245           27277                           ADS      IMODES30
000365:
000366: 07,3246           41300                           CS       IMODES33
000367: 07,3247           74730                           MASK     BIT13
000368: 07,3250           27300                           ADS      IMODES33
000369:
000370: 07,3251           44740                           CS       BIT5
000371: 07,3252           13234                           TCF      PFAILOK2
000372:
000373: 07,3253           43174        NOATTOFF           CS       OCT40010                              #  SUBROUTINE TO TURN OFF NO ATT LAMP.
000374: 07,3254           71035                           MASK     DSPTAB     +11D
000375: 07,3255           64726                           AD       BIT15
000376: 07,3256           55035                           TS       DSPTAB     +11D
000377: 07,3257           00002                           TC       Q
000378:


000380:                                                                                                  #           ROUTINES TO INITIATE AND TERMINATE PROGRAM USE OF THE PIPAS. NO IMUSTALL REQUIRED IN EITHER CASE.
000381:
000382: 07,3260           44746        PIPUSE             CS       ZERO
000383: 07,3261           54037                           TS       PIPAX
000384: 07,3262           54040                           TS       PIPAY
000385: 07,3263           54041                           TS       PIPAZ
000386:
000387: 07,3264           03665        PIPUSE1            TC       CAGETSTQ                              #  DO NOT ENABLE PIPA FAIL IF IMU IS CAGED
000388: 07,3265           14622                           TCF      SWRETURN
000389:
000390: 07,3266           00004                           INHINT
000391: 07,3267           44744                           CS       BIT1                                  #  IF PIPA FAILS FROM NOW ON (UNTIL
000392: 07,3270           71277                           MASK     IMODES30                              #  PIPFREE), LIGHT ISS WARNING.
000393: 07,3271           55277                           TS       IMODES30
000394:
000395: 07,3272           04665        PIPFREE2           TC       IBNKCALL                              #  ISS WARNING MIGHT COME ON NOW.
000396: 07,3273           14703                           CADR     SETISSW                               #  (OR GO OFF ON PIPFREE).
000397:
000398: 07,3274           12742                           TCF      MODEEXIT
000399:
000400: 07,3275           00004        PIPFREE            INHINT                                         #  PROGRAM DONE WITH PIPAS. DONT LIGHT
000401: 07,3276           41277                           CS       IMODES30                              #  ISS WARNING.
000402: 07,3277           74744                           MASK     BIT1
000403: 07,3300           27277                           ADS      IMODES30
000404:
000405: 07,3301           74733                           MASK     BIT10                                 #  IF PIP FAIL ON, DO PROG ALSRM AND RESET
000406: 07,3302           10000                           CCS      A                                     #  ISS WARNING.
000407: 07,3303           12742                           TCF      MODEEXIT
000408:
000409: 07,3304           05571                           TC       ALARM
000410: 07,3305           00212                           OCT      212
000411:
000412: 07,3306           00004                           INHINT
000413:
000414: 07,3307           13272                           TCF      PIPFREE2
000415:


000417:                                                                                                  #           THE FOLLOWING ROUTINE TORQUES THE IRIGS ACCORDING TO DOUBLE PRECISION INPUTS IN THE SIX REGISTERS
000418:                                                                                                  #  BEGINNING AT THE ECADR ARRIVING IN A. THE MINIMUM SIZE OF ANY PULSE TRAIN IS 16 PULSES (.25 CDU COUNTS). THE
000419:                                                                                                  #  UNSENT PORTION OF THE COMMAND IS LEFT INTACT IN THE INPUT COMMAND REGISTERS.
000420:
000421: 07,3310  E3,1400                                  EBANK=   1400                                  #  VARIABLE, ACTUALLY.
000422:
000423: 07,3310           54161        IMUPULSE           TS       MPAC       +5                         #  SAVE ARRIVING ECADR.
000424: 07,3311           03672                           TC       CAGETSTJ                              #  DONT PROCEED IF IMU BEING CAGED.
000425:
000426: 07,3312           11311                           CCS      LGYRO                                 #  SEE IF GYROS BUSY.
000427: 07,3313           03354                           TC       GYROBUSY                              #  SLEEP.
000428:
000429: 07,3314           54156                           TS       MPAC       +2
000430: 07,3315           34737                           CAF      BIT6                                  #  ENABLE THE POWER SUPPLY.
000431: 07,3316           00006                           EXTEND
000432: 07,3317           05014                           WOR      CHAN14
000433:
000434: 07,3320           34742                           CAF      FOUR
000435: 07,3321           05205        GWAKE2             TC       WAITLIST                              #  (IF A JOB WAS PUT TO SLEEP, THE POWER
000436: 07,3322  E3,1474                                  EBANK=   CDUIND                                #  SUPPLY IS LEFT ON BY THE WAKING JOB).
000437: 07,3322           03372 16103                     2CADR    STRTGYRO
000438:
000439:
000440: 07,3324           30161                           CA       MPAC       +5                         #  SET UP EBANK, SAVING CALLER'S EBANK FOR
000441: 07,3325           56003                           XCH      EBANK                                 #  RESTORATION ON RETURN.
000442: 07,3326           56161                           XCH      MPAC       +5
000443: 07,3327           55311                           TS       LGYRO                                 #  RESERVES GYROS.
000444: 07,3330           74350                           MASK     LOW8
000445: 07,3331           54061                           TS       ITEMP1
000446:
000447: 07,3332           34743                           CAF      TWO                                   #  FORCE SIGN AGREEMENT ON INPUTS.
000448: 07,3333           54157        GYROAGRE           TS       MPAC       +3
000449: 07,3334           60000                           DOUBLE
000450: 07,3335           60061                           AD       ITEMP1
000451: 07,3336           54160                           TS       MPAC       +4
000452: 07,3337           00006                           EXTEND
000453: 07,3340           50000                           INDEX    A
000454: 07,3341           31401                           DCA      1400
000455: 07,3342           52155                           DXCH     MPAC
000456: 07,3343           07300                           TC       TPAGREE
000457: 07,3344           52155                           DXCH     MPAC
000458: 07,3345           50160                           INDEX    MPAC       +4
000459: 07,3346           53401                           DXCH     1400
000460:
000461: 07,3347           10157                           CCS      MPAC       +3
000462: 07,3350           13333                           TCF      GYROAGRE
000463:
000464: 07,3351           30161                           CA       MPAC       +5                         #  RESTORE CALLER'S EBANK.
000465: 07,3352           54003                           TS       EBANK
000466: 07,3353           12742                           TCF      MODEEXIT
000467:


000469:                                                                                                  #           ROUTINES TO ALLOW TORQUING BY ONLY ONE JOB AT A TIME.
000470:
000471: 07,3354           00006        GYROBUSY           EXTEND                                         #  SAVE RETURN 2FCADR.
000472: 07,3355           30134                           DCA      BUF2
000473: 07,3356           52155                           DXCH     MPAC
000474: 07,3357           33371        REGSLEEP           CAF      LGWAKE
000475: 07,3360           15124                           TCF      JOBSLEEP
000476:
000477: 07,3361           11311        GWAKE              CCS      LGYRO                                 #  WHEN AWAKENED, SEE IF GYROS STILL BUSY.
000478: 07,3362           13357                           TCF      REGSLEEP                              #  IF SO, SLEEP SOME MORE.
000479:
000480: 07,3363           54156                           TS       MPAC       +2
000481: 07,3364           00006                           EXTEND
000482: 07,3365           30155                           DCA      MPAC
000483: 07,3366           52134                           DXCH     BUF2                                  #  RESTORE SWRETURN INFO.
000484: 07,3367           34744                           CAF      ONE
000485: 07,3370           13321                           TCF      GWAKE2
000486:
000487: 07,3371           17361        LGWAKE             CADR     GWAKE
000488:


000490:                                                                                                  #           GYRO-TORQUING WAITLIST TASKS.
000491:
000492: 07,3372           43630        STRTGYRO           CS       GDESELCT                              #  DE-SELECT LAST GYRO.
000493: 07,3373           00006                           EXTEND
000494: 07,3374           03014                           WAND     CHAN14
000495:
000496: 07,3375           03646                           TC       CAGETSTG
000497:
000498: 07,3376           31311        STRTGYR2           CA       LGYRO                                 #  JUMP ON PHASE COUNTER IN BITS 13-14.
000499: 07,3377           00006                           EXTEND
000500: 07,3400           74741                           MP       BIT4
000501: 07,3401           50000                           INDEX    A
000502: 07,3402           13403                           TCF      +1
000503: 07,3403           03420                           TC       GSELECT                               #  =0. DO Y GYRO.
000504: 07,3404           00202                           OCT      00202
000505:
000506: 07,3405           03420                           TC       GSELECT                               #  =1. DO Z GYRO.
000507: 07,3406           00302                           OCT      00302
000508:
000509: 07,3407           03416                           TC       GSELECT    -2                         #  =2. DO X GYRO.
000510: 07,3410           00100                           OCT      00100
000511:
000512: 07,3411           34746                           CAF      ZERO                                  #  =3. DONE
000513: 07,3412           55311                           TS       LGYRO
000514: 07,3413           33371                           CAF      LGWAKE                                #  WAKE A POSSIBLE SLEEPING JOB.
000515: 07,3414           05130                           TC       JOBWAKE
000516:
000517: 07,3415           13217        NORESET            TCF      IMUFINED                              #  DO NOT RESET POWER SUPPLY
000518:


000520: 07,3416           44742                 -2        CS       FOUR                                  #  SPECIAL ENTRY TO REGRESS LGYRO FOR X.
000521: 07,3417           27311                           ADS      LGYRO
000522:
000523: 07,3420           50002        GSELECT            INDEX    Q                                     #  SELECT GYRO.
000524: 07,3421           30000                           CAF      0                                     #  PACKED WORD CONTAINS GYRO SELECT BITS
000525: 07,3422           54064                           TS       ITEMP4                                #  AND INCREMENT TO LGYRO.
000526: 07,3423           74750                           MASK     SEVEN
000527: 07,3424           64730                           AD       BIT13
000528: 07,3425           27311                           ADS      LGYRO
000529: 07,3426           54003                           TS       EBANK
000530: 07,3427           74350                           MASK     LOW8
000531: 07,3430           54061                           TS       ITEMP1
000532:
000533: 07,3431           44750                           CS       SEVEN
000534: 07,3432           70064                           MASK     ITEMP4
000535: 07,3433           54064                           TS       ITEMP4
000536:
000537: 07,3434           00006                           EXTEND                                         #  MOVE DP COMMAND TO RUPTREGS FOR TESTING.
000538: 07,3435           50061                           INDEX    ITEMP1
000539: 07,3436           31401                           DCA      1400
000540: 07,3437           52071                           DXCH     RUPTREG1
000541:
000542: 07,3440           10070                           CCS      RUPTREG1
000543: 07,3441           13454                           TCF      MAJ+
000544: 07,3442           13444                           TCF      +2
000545: 07,3443           13611                           TCF      MAJ-
000546:
000547: 07,3444           10071                           CCS      RUPTREG2
000548: 07,3445           13451                           TCF      MIN+
000549: 07,3446           13376                           TCF      STRTGYR2
000550: 07,3447           13606                           TCF      MIN-
000551: 07,3450           13376                           TCF      STRTGYR2
000552:


000554: 07,3451           63505        MIN+               AD       -GYROMIN                              #  SMALL POSITIVE COMMAND. SEE IF AT LEAST
000555: 07,3452           00006                           EXTEND                                         #  16 GYRO PULSES.
000556: 07,3453           63376                           BZMF     STRTGYR2
000557:
000558: 07,3454           00006        MAJ+               EXTEND                                         #  DEFINITE POSITIVE OUTPUT.
000559: 07,3455           33632                           DCA      GYROFRAC
000560: 07,3456           20071                           DAS      RUPTREG1
000561:
000562: 07,3457           30064                           CA       ITEMP4                                #  SELECT POSITIVE TORQUING FOR THIS GYRO.
000563: 07,3460           00006                           EXTEND
000564: 07,3461           05014                           WOR      CHAN14
000565:
000566: 07,3462           36115                           CAF      LOW7                                  #  LEAVE NUMBER OF POSSIBLE 8192 AUGMENTS
000567: 07,3463           70071                           MASK     RUPTREG2                              #  TO INITIAL COMMAND IN MAJOR PART OF LONG
000568: 07,3464           56071                           XCH      RUPTREG2                              #  TERM STORAGE AND TRUNCATED FRACTION
000569: 07,3465           00006        GMERGE             EXTEND                                         #  IN MINOR PART. THE MAJOR PART WILL BE
000570: 07,3466           74735                           MP       BIT8                                  #  COUNTED DOWN TO ZERO IN THE COURSE OF
000571: 07,3467           54062                           TS       ITEMP2                                #  PUTTING OUT THE ENTIRE COMMAND.
000572: 07,3470           30070                           CA       RUPTREG1
000573: 07,3471           00006                           EXTEND
000574: 07,3472           74734                           MP       BIT9
000575: 07,3473           54070                           TS       RUPTREG1
000576: 07,3474           30001                           CA       L
000577: 07,3475           00006                           EXTEND
000578: 07,3476           74727                           MP       BIT14
000579: 07,3477           26062                           ADS      ITEMP2                                #  INITIAL COMMAND.
000580:
000581: 07,3500           00006                           EXTEND                                         #  SEE IF MORE THAN ONE PULSE TRAIN NEEDED
000582: 07,3501           30071                           DCA      RUPTREG1                              #  (MORE THAN 16383 PULSES).
000583: 07,3502           67770                           AD       MINUS1
000584: 07,3503           10000                           CCS      A
000585: 07,3504           13552                           TCF      LONGGYRO
000586: 07,3505           77601        -GYROMIN           OCT      -176                                  #  MAY BE ADJUSTED TO SPECIFY MINIMUM CMD
000587: 07,3506           13512                           TCF      +4
000588:
000589: 07,3507           34727                           CAF      BIT14
000590: 07,3510           26062                           ADS      ITEMP2
000591: 07,3511           34746                           CAF      ZERO
000592:
000593: 07,3512           50061                 +4        INDEX    ITEMP1
000594: 07,3513           53401                           DXCH     1400


000596: 07,3514           30062                           CA       ITEMP2                                #  ENTIRE COMMAND.
000597: 07,3515           54047        LASTSEG            TS       GYROCMD
000598: 07,3516           03641                           TC       COARSTST
000599:
000600: 07,3517           30047                           CA       GYROCMD
000601: 07,3520           00006                           EXTEND
000602: 07,3521           74733                           MP       BIT10                                 #  WAITLIST DT
000603: 07,3522           66266                           AD       THREE                                 #  TRUNCATION AND PHASE UNCERTAINTIES.
000604: 07,3523           05205                           TC       WAITLIST
000605: 07,3524  E3,1474                                  EBANK=   CDUIND
000606: 07,3524           03536 16103                     2CADR    TWOPULSE
000607:
000608: 07,3526           03532        EXITGYRO           TC       GYROEXIT
000609: 07,3527           15263                           TCF      TASKOVER
000610: 07,3530           34743        OUTPULSE           CA       BIT2
000611: 07,3531           54047                           TS       GYROCMD
000612: 07,3532           34733        GYROEXIT           CAF      BIT10
000613: 07,3533           00006                           EXTEND
000614: 07,3534           05014                           WOR      CHAN14
000615: 07,3535           00002                           TC       Q
000616: 07,3536           44734        TWOPULSE           CS       BIT9
000617: 07,3537           00006                           EXTEND
000618: 07,3540           03014                           WAND     CHAN14
000619: 07,3541           03530                           TC       OUTPULSE
000620: 07,3542           34744                           CA       BIT1
000621: 07,3543           05175                           TC       TWIDDLE
000622: 07,3544           03372                           ADRES    STRTGYRO
000623: 07,3545           34734                           CA       BIT9
000624: 07,3546           00006                           EXTEND
000625: 07,3547           05014                           WOR      CHAN14
000626: 07,3550           03530                           TC       OUTPULSE
000627: 07,3551           15263                           TCF      TASKOVER
000628: 07,3552           50061        LONGGYRO           INDEX    ITEMP1
000629: 07,3553           53401                           DXCH     1400
000630: 07,3554           34727                           CAF      BIT14                                 #  8192. INITIAL COMMAND IS AT LEAST 8192.
000631: 07,3555           60062                           AD       ITEMP2
000632: 07,3556           54047                           TS       GYROCMD
000633:
000634: 07,3557           00006        AUG3               EXTEND                                         #  GET WAITLIST DT TO TIME WHEN TRAIN IS
000635: 07,3560           74733                           MP       BIT10                                 #  ALMOST OUT.
000636: 07,3561           67766                           AD       NEG3
000637: 07,3562           05205                           TC       WAITLIST
000638: 07,3563  E3,1474                                  EBANK=   CDUIND
000639: 07,3563           03566 16103                     2CADR    8192AUG
000640:
000641: 07,3565           13526                           TCF      EXITGYRO
000642: 07,3566           03641        8192AUG            TC       COARSTST
000643:
000644: 07,3567           31311                           CA       LGYRO                                 #  ADD 8192 PULSES TO GYROCMD
000645: 07,3570           54003                           TS       EBANK


000647: 07,3571           74350                           MASK     LOW8
000648: 07,3572           54061                           TS       ITEMP1
000649:
000650: 07,3573           50061                           INDEX    ITEMP1                                #  SEE IF THIS IS THE LAST AUG.
000651: 07,3574           11400                           CCS      1400
000652: 07,3575           13601                           TCF      AUG2                                  #  MORE TO COME.
000653:
000654: 07,3576           34727                           CAF      BIT14
000655: 07,3577           26047                           ADS      GYROCMD
000656: 07,3600           13516                           TCF      LASTSEG    +1
000657:
000658: 07,3601           50061        AUG2               INDEX    ITEMP1
000659: 07,3602           55400                           TS       1400
000660: 07,3603           34727                           CAF      BIT14
000661: 07,3604           26047                           ADS      GYROCMD
000662: 07,3605           13557                           TCF      AUG3                                  #  COMPUTE DT.
000663:


000665: 07,3606           63505        MIN-               AD       -GYROMIN                              #  POSSIBLE NEGATIVE OUTPUT.
000666: 07,3607           00006                           EXTEND
000667: 07,3610           63376                           BZMF     STRTGYR2
000668:
000669: 07,3611           00006        MAJ-               EXTEND                                         #  DEFINITE NEGATIVE OUTPUT.
000670: 07,3612           43632                           DCS      GYROFRAC
000671: 07,3613           20071                           DAS      RUPTREG1
000672:
000673: 07,3614           30064                           CA       ITEMP4                                #  SELECT NEGATIVE TORQUING FOR THIS GYRO.
000674: 07,3615           64734                           AD       BIT9
000675: 07,3616           00006                           EXTEND
000676: 07,3617           05014                           WOR      CHAN14
000677:
000678: 07,3620           40070                           CS       RUPTREG1                              #  SET UP RUPTREGS TO FALL INTO GMERGE.
000679: 07,3621           54070                           TS       RUPTREG1                              #  ALL NUMBERS PUT INTO GYROCMD ARE
000680: 07,3622           40071                           CS       RUPTREG2                              #  POSITIVE - BIT9 OF CHAN 14 DETERMINES
000681: 07,3623           76115                           MASK     LOW7                                  #  THE SIGN OF THE COMMAND.
000682: 07,3624           40000                           COM
000683: 07,3625           56071                           XCH      RUPTREG2
000684: 07,3626           40000                           COM
000685: 07,3627           13465                           TCF      GMERGE
000686:
000687: 07,3630           01700        GDESELCT           OCT      1700                                  #  TURN OFF SELECT AND ACTIVITY BITS.
000688:
000689: 07,3631           00000 00034  GYROFRAC           2DEC     .215       B-21
000690:


000692:                                                                                                  #           IMU MODE SWITCHING ROUTINES COME HERE WHEN ACTION COMPLETE.
000693:
000694: 07,3633           00006        ENDIMU             EXTEND                                         #  MODE IS BAD IF CAGE HAS OCCURED OR IF
000695: 07,3634           00011                           READ     DSALMOUT                              #  ISS WARNING IS ON.
000696: 07,3635           74744                           MASK     BIT1
000697: 07,3636           10000                           CCS      A
000698: 07,3637           13656                           TCF      IMUBAD
000699:
000700: 07,3640           13704        IMUGOOD            TCF      GOODEND                               #  WITH C(A) = 0.
000701:
000702: 07,3641           34741        COARSTST           CAF      BIT4
000703: 07,3642           00006                           EXTEND
000704: 07,3643           02012                           RAND     CHAN12
000705: 07,3644           10000                           CCS      A
000706: 07,3645           13652                           TCF      DONTPULS
000707:
000708: 07,3646           41277        CAGETSTG           CS       IMODES30
000709: 07,3647           74737                           MASK     BIT6
000710: 07,3650           10000                           CCS      A
000711: 07,3651           00002                           TC       Q
000712:
000713: 07,3652           34746        DONTPULS           CAF      ZERO
000714: 07,3653           55311                           TS       LGYRO
000715:
000716: 07,3654           33371                           CAF      LGWAKE
000717: 07,3655           05130                           TC       JOBWAKE
000718:
000719: 07,3656           34746        IMUBAD             CAF      ZERO
000720: 07,3657           13701                           TCF      BADEND
000721:
000722: 07,3660           34737        CAGETEST           CAF      BIT6                                  #  SUBROUTINE TO TERMINATE IMU MODE
000723: 07,3661           71277                           MASK     IMODES30                              #  SWITCH IF IMU HAS BEEN CAGED.
000724: 07,3662           10000                           CCS      A
000725: 07,3663           13656                           TCF      IMUBAD                                #  DIRECTLY.
000726: 07,3664           00002                           TC       Q                                     #  WITH C(A) = +0.
000727:
000728: 07,3665           41277        CAGETSTQ           CS       IMODES30                              #  SKIP IF IMU NOT BEING CAGED.
000729: 07,3666           74737                           MASK     BIT6
000730: 07,3667           10000                           CCS      A
000731: 07,3670           24002                           INCR     Q
000732: 07,3671           00002                           TC       Q
000733:
000734: 07,3672           41277        CAGETSTJ           CS       IMODES30                              #  IF DURING MODE SWITCH INITIALIZATION
000735: 07,3673           74737                           MASK     BIT6                                  #  IT IS FOUND THAT THE IMU IS BEING CAGED,
000736: 07,3674           10000                           CCS      A                                     #  SET IMUCADR TO -0 TO INDICATE OPERATION
000737: 07,3675           00002                           TC       Q                                     #  COMPLETE BUT FAILED. RETURN IMMEDIATELY
000738:
000739: 07,3676           44746                           CS       ZERO                                  #  TO SWRETURN.
000740: 07,3677           55301                           TS       IMUCADR
000741: 07,3700           12742                           TCF      MODEEXIT
000742:


000744:                                                                                                  #           GENERALIZED MODE SWITCHING TERMINATION. ENTER AT GOODEND FOR SUCCESSFUL COMPLETION OF AN I/O OPERATION
000745:                                                                                                  #  OR AT BADEND FOR A N UNSUCCESSFUL ONE. C(A) OR ARRIVAL =0 FOR IMU, 1 FOR OPTICS.
000746:
000747: 07,3701           54071        BADEND             TS       RUPTREG2                              #  DEVICE INDEX.
000748: 07,3702           44746                           CS       ZERO                                  #  FOR FAILURE.
000749: 07,3703           13706                           TCF      GOODEND    +2
000750:
000751: 07,3704           54071        GOODEND            TS       RUPTREG2
000752: 07,3705           44744                           CS       ONE                                   #  FOR SUCCESS.
000753:
000754: 07,3706           54072                           TS       RUPTREG3
000755: 07,3707           50071                           INDEX    RUPTREG2                              #  SEE IF USING PROGRAM ASLEEP.
000756: 07,3710           11301                           CCS      MODECADR
000757: 07,3711           13715                           TCF      +4                                    #  YES - WAKE IT UP.
000758: 07,3712           13725                           TCF      ENDMODE                               #  IF 0, PROGRAM NOT IN YET.
000759:
000760: 07,3713           00006                           EXTEND
000761: 07,3714           13726                           BZF      ENDMODE    +1                         #  BZF = TCF IF MODECADR = -0.
000762:
000763: 07,3715           34746                           CAF      ZERO                                  #  WAKE SLEEPING PROGRAM.
000764: 07,3716           50071                           INDEX    RUPTREG2
000765: 07,3717           57301                           XCH      MODECADR
000766: 07,3720           05130                           TC       JOBWAKE
000767:
000768: 07,3721           40072                           CS       RUPTREG3                              #  ADVANCE LOC IF SUCCESSFUL.
000769: 07,3722           50064                           INDEX    LOCCTR
000770: 07,3723           26164                           ADS      LOC
000771:
000772: 07,3724           15263                           TCF      TASKOVER
000773:
000774: 07,3725           30072        ENDMODE            CA       RUPTREG3                              #  -0 INDICATES OPERATION COMPLETE BUT
000775: 07,3726           50071                 +1        INDEX    RUPTREG2                              #  UNSUCCESSFUL: -1 INDICATES COMPLETE AND
000776: 07,3727           55301                           TS       MODECADR                              #  SUCCESSFUL.
000777: 07,3730           15263                           TCF      TASKOVER
000778:


000780:                                                                                                  #           GENERAL STALLING ROUTINE. USING PROGRAMS COME HERE TO WAIT FOR I/O COMPLETION.
000781:
000782:                                                                                                  #  PROGRAM DESCRIPTION                                    DATE- 21 FEB 1967
000783:                                                                                                  #                                            LOG SECTION IMU MODE SWITCHING
000784:                                                                                                  #  MOD BY- R.MELANSON TO ADD DOCUMENTATION       ASSEMBLY SUNDISK  REV.  82
000785:
000786:                                                                                                  #  FUNCTIONAL DESCRIPTION-
000787:                                                                                                  #    TO DELAY FURTHER EXECUTION OF THE CALLING ROUTINE UNTIL ITS SELECTED
000788:                                                                                                  #    I/O FUNCTION IS COMPLETE.THE FOLLOWING CHECKS ON THE CALLING ROUTINE:S
000789:                                                                                                  #    MODECADR ARE MADE AND ACTED UPON.
000790:                                                                                                  #      1) +0 INDICATES INCOMPLETE I/O OPERATION.CALLING ROUTINE IS PUT TO
000791:                                                                                                  #         SLEEP.
000792:                                                                                                  #      2) -1 INDICATES COMPLETED I/O OPERATION. STALL BYPASSES JOBSLEEP
000793:                                                                                                  #         CALL AND RETURNS TO CALLING ROUTINE AT L+3
000794:                                                                                                  #      3) -0 INDICATES COMPLETED I/O WITH FAILURE. STALL CLEARS MODECADR
000795:                                                                                                  #         AND RETURNS TO CALLING ROUTINE AT L+2.
000796:                                                                                                  #      4) VALUE GREATER THAN 0 INDICATES TWO ROUTINES CALLING FOR USE OF
000797:                                                                                                  #         SAME DEVICE. STALL EXITS TO ABORT WHICH EXECUTES A PROGRAM
000798:                                                                                                  #         RESTART WHICH IN TURN CLEARS ALL MODECADR REGISTERS.
000799:
000800:                                                                                                  #   CALLING SEQUENCE-
000801:                                                                                                  #    L   TC   BANKCALL
000802:                                                                                                  #    L+1 CADR (ONE OF 5 STALL ADDRESSES I.E. IMUSTALL,OPTSTALL,RADSTALL,
000803:                                                                                                  #              AOTSTALL,OR ATTSTALL)
000804:
000805:                                                                                                  #   NORMAL-EXIT MODE-
000806:                                                                                                  #    TCF   JOBSLEEP OR TCF  MODEXIT
000807:
000808:                                                                                                  #  ALARM OR ABORT EXIT MODE-
000809:                                                                                                  #    TC   ABORT
000810:
000811:                                                                                                  #  OUTPUT-
000812:                                                                                                  #     MODECADR= CADR IF JOBSLEEP
000813:                                                                                                  #     MODECADR=+0    IF I/O COMPLETE
000814:                                                                                                  #     BUF2=L+3       IF I/O COMPLETE AND GOOD.
000815:                                                                                                  #     BUF2=L+2 IF I/O COMPLETE BUT FAILED.
000816:
000817:                                                                                                  #  ERASABLE INITIALIZATION-
000818:                                                                                                  #    BUF2 CONTAINS RETURN ADDRESS PLUS 1,(L+2)
000819:                                                                                                  #    BUF2+1 CONTAINS FBANK VALUE OF CALLING ROUTINE.
000820:                                                                                                  #    MODECADR OF CALLING ROUTINE CONTAINS +0,-1,-0 OR  CADR RETURN ADDRESS.
000821:
000822:                                                                                                  #  DEBRIS-
000823:                                                                                                  #    RUPTREG2 AND CALLING ROUTINE MODECADR.
000824:
000825: 07,3731           34744        AOTSTALL           CAF      ONE                                   #  AOT.
000826: 07,3732           03736                           TC       STALL
000827:
000828: 07,3733           34743        RADSTALL           CAF      TWO
000829: 07,3734           13736                           TCF      STALL
000830:


000832: 07,3735  07,3731               OPTSTALL           EQUALS   AOTSTALL
000833:
000834: 07,3735           34746        IMUSTALL           CAF      ZERO                                  #  IMU.
000835:
000836: 07,3736           00004        STALL              INHINT
000837: 07,3737           54071                           TS       RUPTREG2                              #  SAVE DEVICE INDEX.
000838: 07,3740           50000                           INDEX    A                                     #  SEE IF OPERATION COMPLETE.
000839: 07,3741           11301                           CCS      MODECADR
000840: 07,3742           13760                           TCF      MODABORT                              #  ALLOWABLE STATES ARE +0, -1, AND -0.
000841: 07,3743           13754                           TCF      MODESLP                               #  OPERATION INCOMPLETE.
000842: 07,3744           13750                           TCF      MODEGOOD                              #  COMPLETE AND GOOD IF = -1.
000843:
000844: 07,3745           50071        MG2                INDEX    RUPTREG2                              #  COMPLETE AND FAILED IF -0. RESET TO +0.
000845: 07,3746           55301                           TS       MODECADR                              #  RETURN TO CALLER.
000846: 07,3747           12742                           TCF      MODEEXIT
000847:
000848: 07,3750           10000        MODEGOOD           CCS      A                                     #  MAKE SURE INITIAL STATE -1.
000849: 07,3751           13760                           TCF      MODABORT
000850:
000851: 07,3752           24133                           INCR     BUF2                                  #  IF SO, INCREMENT RETURN ADDRESS AND
000852: 07,3753           13745                           TCF      MG2                                   #  RETURN IMMEDIATELY, SETTING CADR = +0.
000853:
000854: 07,3754           04636        MODESLP            TC       MAKECADR                              #  CALL FROM SWITCHABLE FIXED ONLY.
000855: 07,3755           50071                           INDEX    RUPTREG2
000856: 07,3756           55301                           TS       MODECADR
000857: 07,3757           15124                           TCF      JOBSLEEP
000858:
000859: 07,3760           52134        MODABORT           DXCH     BUF2
000860: 07,3761           05712                           TC       BAILOUT1                              #  TWO PROGRAMS USING THE SAME DEVICE.
000861: 07,3762           31210                           OCT      31210
000862:


000864:                                                                                                  #           CONSTANTS FOR MODE SWITCHING ROUTINES
000865:
000866: 07,3763     5745               BITS3&4            =        OCT14
000867: 07,3763     4762               BITS4&6            =        OCT50
000868: 07,3763           00030        BITS4-5            OCT      00030
000869: 07,3764     4735               IMUSEFLG           EQUALS   BIT8                                  #  INTERPRETER SWITCH 7.
000870: 07,3764           77500        -COMMAX            DEC      -191       B-14
000871: 07,3765           77477        -COMMAX-           DEC      -192       B-14
000872: 07,3766           00074        600MS              DEC      60         B-14
000873: 07,3767  07,3175               IMUFIN20           =        IMUFINE
000874: 21,2000                                           SETLOC   MANUR
000875: 21,2000                                           BANK
000876:
000877: 21,2764           31304        GOMANUR            CA       ATTCADR                               #  IS KALCMANU FREE
000878: 21,2765           00006                           EXTEND
000879: 21,2766           12771                           BZF      OKMANUR
000880: 21,2767           04626                           TC       POSTJUMP
000881: 21,2770           17760                           CADR     MODABORT
000882: 21,2771           00006        OKMANUR            EXTEND
000883: 21,2772           30134                           DCA      BUF2
000884: 21,2773           53305                           DXCH     ATTCADR                               #  SAVE FINAL RETURN FOR KALCMAN3
000885:
000886: 21,2774           30006                           CA       BBANK
000887: 21,2775           74750                           MASK     SEVEN
000888: 21,2776           27305                           ADS      ATTCADR    +1
000889:
000890: 21,2777           30167                           CA       PRIORITY
000891: 21,3000           77746                           MASK     PRIO37
000892: 21,3001           55306                           TS       ATTPRIO                               #  SAVE USERS PRIO
000893:
000894: 21,3002           33006                           CAF      KALEBCON                              #  SET EBANK FOR KALCMAN3
000895: 21,3003           54003                           TS       EBANK
000896: 21,3004           04626                           TC       POSTJUMP
000897: 21,3005           44004                           CADR     KALCMAN3
000898: 21,3006           03275        KALEBCON           ECADR    BCDU
000899:


000901:                                                                                                  #  PROGRAM DESCRIPTION
000902:                                                                                                  #  IMU STATUS CHECK ROUTINE R02 (SUBROUTINE UTILITY)
000903:                                                                                                  #  MOD NO - 1
000904:                                                                                                  #  MOD BY - N.BRODEUR
000905:                                                                                                  #  FUNCTIONAL DESCRIPTION
000906:
000907:                                                                                                  #  TO CHECK WHETHER IMU IS ON AND IF ON WHETHER IT IS ALIGNED TO AN
000908:                                                                                                  #  ORIENTATION KNOWN BY THE CMC. TO REQUEST SELECTION OF THE APPROPRIATE
000909:                                                                                                  #  PROGRAM IF THE IMU IS OFF OR NOT ALIGNED TO AN ORIENTATION KNOWN BY THE
000910:                                                                                                  #  CMC. CALLED THROUGH BANKCALL
000911:                                                                                                  #  CALLING SEQUENCE-
000912:
000913:                                                                                                  #  L        TC     BANKCALL
000914:                                                                                                  #  L+1      CADR   R02BOTH
000915:                                                                                                  #  SUBROUTINES CALLED
000916:
000917:                                                                                                  #        VARALARM
000918:                                                                                                  #        FLAGUP
000919:                                                                                                  #  NORMAL EXIT MODES
000920:
000921:                                                                                                  #  AT L+2 OF CALLING SEQUENCE
000922:                                                                                                  #  ALARM OR ABORT EXIT MODES
000923:                                                                                                  #        GOTOPOOH, WITH ALARM
000924:                                                                                                  #  ERASABLE INITIALIZATION REQUIRED
000925:
000926:                                                                                                  #  NONE
000927:                                                                                                  #  DEBRIS
000928:
000929:                                                                                                  #  CENTRALS-A,Q,L
000930: 04,2000                                           SETLOC   R02
000931: 04,2000                                           BANK
000932: 04,3256                                           COUNT*   $$/R02
000933: 04,3256           00063        DEC51              DEC      51         B-14
000934:
000935:
000936: 15,2000                                           SETLOC   R02BNK15
000937: 15,2000                                           BANK
000938:
000939: 15,3757           34730        R02BOTH            CAF      REFSMBIT
000940: 15,3760           70077                           MASK     FLAGWRD3
000941: 15,3761           10000                           CCS      A
000942: 15,3762           03773                           TC       R02ZERO                               #  ZERO IMUS
000943:
000944: 15,3763           31277                           CA       IMODES30
000945: 15,3764           74734                           MASK     BIT9                                  #  IS ISS INITIALIZED
000946: 15,3765           00006                           EXTEND
000947: 15,3766           13770                           BZF      +2
000948: 15,3767           44741                           CS       BIT4                                  #  SEND IMU ALARM CODE 210
000949: 15,3770           63776                           AD       OCT220                                #  SEND REFSMM ALARM
000950: 15,3771           05740                           TC       VARALARM
000951:


000953: 15,3772           06001                           TC       GOTOPOOH
000954:
000955: 15,3773           05506        R02ZERO            TC       UPFLAG
000956: 15,3774           00007                           ADRES    IMUSE
000957: 15,3775           14622                           TCF      SWRETURN
000958: 15,3776           00220        OCT220             OCT      220
000959:


000961:                                                                                                  #  PROGRAM DESCRIPTION   P06   10FEB67
000962:
000963:                                                                                                  #  TRANSFER THE ISS/CMC FROM THE OPERATE TO THE STANDBY CONDITION.
000964:
000965:                                                                                                  #  THE NORMAL CONDITION OF READINESS OF THE GNCS WHEN NOT IN USE IS STANDBY. IN THIS CONDITION THE IMU
000966:                                                                                                  #  HEATER POWER IS ON. THE IMU OPERATE POWER IS OFF. THE COMPUTER POWER IS ON. THE OPTICS POWER IS OFF. THE
000967:                                                                                                  #  CMC  STANDBY ON THE MAIN AND LEB DISKYS IS ON.
000968:
000969:                                                                                                  #  CALLING SEQUENCE:
000970:                                                                                                  #           ASTRONAUT REQUEST THROUGH DSKY     V37E 06E.
000971:
000972:                                                                                                  #  SUBROUTINES CALLED:
000973:                                                                                                  #           GOPERF1
000974:                                                                                                  #           BANKCALL
000975:                                                                                                  #           FLAGDOWN
000976:


000978:                                                                                                  #  PRESTAND PREPARES FOR STANDBY BY SNAPSHOTTING THE SCALER AND TIME1 TIME2
000979:                                                                                                  #  THE LOW 5 BITS OF THE SCALER ARE INSPECTED TO INSURE COMPATIBILITY
000980:                                                                                                  #  BETWEEN THE SCALER READING AND THE TIME1 TIME2 READING.
000981:
000982: 37,2000                                           SETLOC   P05P06
000983: 37,2000                                           BANK
000984:
000985: 37,3654     0314                                  EBANK=   TIME2SAV
000986: 37,3654                                           COUNT*   $$/P06
000987:
000988: 37,3654           05506        P06                TC       UPFLAG                                #  SET NODOV37 BIT
000989: 37,3655           00054                           ADRES    NODOFLAG
000990:
000991: 37,3656           00004        PRESTAND           INHINT
000992: 37,3657           00006                           EXTEND
000993: 37,3660           30025                           DCA      TIME2                                 #  SNAPSHOT TIME1TIME2
000994: 37,3661           52315                           DXCH     TIME2SAV
000995: 37,3662           03713                           TC       SCALPREP
000996: 37,3663           03656                           TC       PRESTAND                              #  T1,T2,SCALER NOT COMPATIBLE
000997: 37,3664           52155                           DXCH     MPAC                                  #  T1,T2 AND SCALER OK
000998: 37,3665           52317                           DXCH     SCALSAVE                              #  STORE SCALER
000999: 37,3666           00004                           INHINT
001000: 37,3667           04607                           TC       BANKCALL
001001: 37,3670           17162                           CADR     RNDREFDR                              #  REFSMM, DRIFT, TRACK FLAGS DOWN
001002:
001003: 37,3671           05520                           TC       DOWNFLAG
001004: 37,3672           00007                           ADRES    IMUSE                                 #  IMUSE DOWN
001005: 37,3673           05520                           TC       DOWNFLAG
001006: 37,3674           00010                           ADRES    RNDVZFLG                              #  RNDVZFLG DOWN
001007:
001008: 37,3675           34732                           CAF      BIT11
001009: 37,3676           00006                           EXTEND
001010: 37,3677           05013                           WOR      CHAN13                                #  SET STANDBY ENABLE BIT
001011:
001012: 37,3700           05355                           TC       PHASCHNG                              #  SET RESTART TO POSTAND WHEN STANDBY
001013: 37,3701           07024                           OCT      07024                                 #    RECOVERS
001014: 37,3702           20000                           OCT      20000
001015: 37,3703     0316                                  EBANK=   SCALSAVE
001016: 37,3703           03733 76060                     2CADR    POSTAND
001017:
001018: 37,3705           34765                           CAF      OCT62
001019: 37,3706           04607                           TC       BANKCALL
001020: 37,3707           20635                           CADR     GOPERF1
001021: 37,3710           13705                           TCF      -3
001022: 37,3711           13705                           TCF      -4
001023: 37,3712           13705                           TCF      -5
001024:
001025: 37,3713     4765               OCT62              EQUALS   .5SEC                                 #  DEC 50 = OCT 62
001026:
001027:                                                                                                  #  THE LOW 5 BITS OF THE SCALER READS 10000 FOR THE FIRST INTERVAL AFTER A


001029:                                                                                                  #  T1 INCREMENT. IF SCALPREP DETECTS THIS INTERVAL THE T1,T2 AND SCALER
001030:                                                                                                  #  DATA ARE NOT COMPATABLE AND RETURN IS TO L+1 FOR ANOTHER READING OF THE
001031:                                                                                                  #  DATA. OTHERWISE, THE RETURN IS TO L+2 TO PROCEED. ROUTINE ALSO PREPARES
001032:                                                                                                  #  THE SCALER READING FOR COMPUTATION OF THE INCREMENT TO UPDATE T1T2. (THE
001033:                                                                                                  #  10 MS BIT (BIT 6) OF THE SCALER IS INCREMENTED 5 MS OUT OF PHASE FROM
001034:                                                                                                  #  T1.) ADDITION OF 5 MS (BIT 5) TO THE SCALER READING HAS THE EFFECT OF
001035:                                                                                                  #  ADJUSTING BIT 6 IN THE SCALER TO BE IN PHASE WITH BIT 1 OF T1. THE LOW 5
001036:                                                                                                  #  BITS OF THE SCALER READING ARE THEN SET TO ZERO, TO TRUNCATE THE SCALER
001037:                                                                                                  #  DATA TO 10 MS. RESULTS ARE STORED IN MPAC, +1.
001038:
001039: 37,3713           00006        SCALPREP           EXTEND
001040: 37,3714           22156                           QXCH     MPAC       +2
001041: 37,3715           04103                           TC       FINETIME   +1
001042: 37,3716           00003                           RELINT
001043: 37,3717           52155                           DXCH     MPAC
001044: 37,3720           34740                           CA       BIT5                                  #  ADD 5 MS TO THE SCALER READING.
001045: 37,3721           54001                           TS       L
001046: 37,3722           34746                           CA       ZERO
001047: 37,3723           20155                           DAS      MPAC
001048: 37,3724           44337                           CS       LOW5                                  #  SET LOW 5 BITS OF (SCALER+5MS) TO ZERO
001049: 37,3725           70155                           MASK     MPAC       +1                         #  AND STORE RESULTS IN MPAC,+1.
001050: 37,3726           56155                           XCH      MPAC       +1
001051: 37,3727           74337                           MASK     LOW5                                  #  TEST LOW 5 BITS OF SCALER FOR THE FIRST
001052:                                                                                                  #  INTERVAL AFTER THE T1 INCREMENT
001053:                                                                                                  #  (NOW = 00000, SINCE BIT 5 ADDED).
001054: 37,3730           10000                           CCS      A                                     #  IS IT 1ST INTERVAL AFTER T1 INCREMENT
001055: 37,3731           24156                           INCR     MPAC       +2                         #  NO
001056: 37,3732           00156                           TC       MPAC       +2                         #  YES
001057:
001058:                                                                                                  #  POSTAND RECOVERS TIME AFTER STANDBY.THE SCALER IS SNAPSHOTTED AND THE
001059:                                                                                                  #  TIME1 TIME2 COUNTER IS SET TO ZERO. THE LOW 5 BITS OF THE SCALER ARE
001060:                                                                                                  #  INSPECTED TO INSURE COMPATABILITY BETWEEN THE SCALER READING AND THE
001061:                                                                                                  #  CLEARING OF THE TIME COUNTER. IT THEN COMPUTES THE DIFFERENCE IN SCALER
001062:                                                                                                  #  VALUES (IN DP) AND ADDS THIS TO THE PREVIOUSLY SNAPSHOTTED VALUES OF
001063:                                                                                                  #  TIME1 TIME2 AND PLACES THIS NEW TIME INTO THE TIME1 TIME2 COUNTER.
001064:
001065: 37,3733                                           COUNT*   $$/P05
001066:
001067: 37,3733           44732        POSTAND            CS       BIT11                                 #  RECOVER TIME AFTER STANDBY.
001068: 37,3734           00006                           EXTEND
001069: 37,3735           03013                           WAND     CHAN13                                #  CLEAR STANDBY ENABLE BIT
001070: 37,3736           00004                           INHINT
001071: 37,3737           34746                           CA       ZERO
001072: 37,3740           54001                           TS       L
001073: 37,3741           52025                           DXCH     TIME2                                 #  CLEAR TIME1TIME2
001074: 37,3742           03713                           TC       SCALPREP                              #  STORE SCALER IN MPAC, MPAC+1
001075: 37,3743           03736                           TC       POSTAND    +3                         #  T1,T2,SCALER NOT COMPATIBLE
001076: 37,3744           00006                           EXTEND                                         #  T1,T2 AND SCALER OK
001077: 37,3745           40317                           DCS      SCALSAVE
001078: 37,3746           20155                           DAS      MPAC                                  #  FORM DP DIFFERENCE OF POSTSTANDBY SCALER


001080: 37,3747           34733                           CAF      BIT10                                 #  MINUS PRESTANDBY SCALER AND SHIFT RIGHT
001081: 37,3750           07330                           TC       SHORTMP                               #  5 TO ALIGN BITS WITH TIME1TIME2.
001082: 37,3751           34746                           CAF      ZERO
001083: 37,3752           54156                           TS       MPAC       +2                         #  NEEDED FOR TP AGREE
001084: 37,3753           07300                           TC       TPAGREE                               #  MAKE DP DIFF AGREE
001085: 37,3754           10154                           CCS      MPAC
001086: 37,3755           03762                           TC       POSTCOM                               #  IF DP DIFF NET +, NO SCALER OVERFLOW
001087: 37,3756           03762                           TC       POSTCOM                               #  BETWEEN PRE AND POST STANDBY.
001088: 37,3757           03760                           TC       +1                                    #  IF DP DIFF NET -, SCALER OVERFLOWED. ADD
001089: 37,3760           34733                           CAF      BIT10                                 #  BIT 10 TO HIGH DIFF TO CORRECT.
001090: 37,3761           26154                           ADS      MPAC
001091: 37,3762           00006        POSTCOM            EXTEND                                         #  C(MPAC,+1) IS MAGNITUDE OF DELTA SCALER.
001092: 37,3763           30315                           DCA      TIME2SAV                              #  PRESTANDBY TIME1TIME2
001093: 37,3764           20155                           DAS      MPAC
001094: 37,3765           07300                           TC       TPAGREE                               #  FORCE SIGN AGREEMENT
001095: 37,3766           52155                           DXCH     MPAC                                  #  UPDATED VALUE FOR T1,T2.
001096: 37,3767           20025                           DAS      TIME2                                 #  LOAD UPDATED VALUE INTO T1,T2, WITH
001097: 37,3770           05520                           TC       DOWNFLAG                              #  CLEAR NODOFLAG
001098: 37,3771           00054                           ADRES    NODOFLAG
001099:
001100: 37,3772           06001                           TC       GOTOPOOH
001101:

End of include-file IMU_MODE_SWITCHING_ROUTINES.agc.  Parent file is MAIN.agc


