
Source Code


000002:                                                                                                  ## Copyright:   Public domain.
000003:                                                                                                  ## Filename:    IMU_COMPENSATION_PACKAGE.agc
000004:                                                                                                  ## Purpose:     A section of Luminary revision 210.
000005:                                                                                                  ##              It is part of the source code for the Lunar Module's (LM)
000006:                                                                                                  ##              Apollo Guidance Computer (AGC) for Apollo 15-17.
000007:                                                                                                  ##              This file is intended to be a faithful transcription, except
000008:                                                                                                  ##              that the code format has been changed to conform to the
000009:                                                                                                  ##              requirements of the yaYUL assembler rather than the
000010:                                                                                                  ##              original YUL assembler.
000011:                                                                                                  ## Reference:   pp. 338-349
000012:                                                                                                  ## Assembler:   yaYUL
000013:                                                                                                  ## Contact:     Ron Burkey <info@sandroid.org>.
000014:                                                                                                  ## Website:     www.ibiblio.org/apollo/index.html
000015:                                                                                                  ## Mod history: 2016-11-17 JL   Created from Luminary131 version.
000016:                                                                                                  ##              2016-11-24 HG   Transcribed
000017:                                                                                                  ##              2016-12-23 RSB  Proofed comment text with octopus/ProoferComments
000018:                                                                                                  ##                              and fixed all errors found.
000019:


000021: 07,2607                                           BANK     7
000022: 06,2000                                           SETLOC   IMUCOMP
000023: 06,2000                                           BANK
000024:
000025: 06,3333  E3,1460                                  EBANK=   NBDX
000026:
000027: 06,3333                                           COUNT*   $$/ICOMP
000028: 06,3333           33601        1/PIPA             CAF      LGCOMP                                #  SAVE EBANK OF CALLING PROGRAM
000029: 06,3334           56003                           XCH      EBANK
000030: 06,3335           54163                           TS       MODE
000031:
000032: 06,3336           11477                           CCS      GCOMPSW                               #  BYPASS IF GCOMPSW NEGATIVE
000033: 06,3337           13342                           TCF      +3
000034: 06,3340           13342                           TCF      +2
000035: 06,3341           13423                           TCF      IRIG1                                 #  RETURN
000036:
000037: 06,3342           34742        1/PIPA1            CAF      FOUR                                  #  PIPAZ, PIPAY, PIPAX
000038: 06,3343           54132                           TS       BUF        +2
000039:
000040: 06,3344           50132                           INDEX    BUF        +2
000041: 06,3345           31453                           CA       PIPASCF                               #  (P.P.M.) X 2(-9)
000042: 06,3346           00006                           EXTEND
000043: 06,3347           50132                           INDEX    BUF        +2
000044: 06,3350           70324                           MP       DELVX                                 #  (PP) X 2(+14) NOW (PIPA PULSES) X 2(+5)
000045: 06,3351           54002                           TS       Q                                     #  SAVE MAJOR PART
000046:
000047: 06,3352           30001                           CA       L                                     #  MINOR PART
000048: 06,3353           00006                           EXTEND
000049: 06,3354           74737                           MP       BIT6                                  #  SCALE 2(+9)   SHIFT RIGHT 9
000050: 06,3355           50132                           INDEX    BUF        +2
000051: 06,3356           54325                           TS       DELVX      +1                         #  FRACTIONAL PIPA PULSES SCALED 2(+14)
000052:
000053: 06,3357           30002                           CA       Q                                     #  MAJOR PART
000054: 06,3360           00006                           EXTEND
000055: 06,3361           74737                           MP       BIT6                                  #  SCALE 2(+9)   SHIFT RIGHT 9
000056: 06,3362           50132                           INDEX    BUF        +2
000057: 06,3363           20325                           DAS      DELVX                                 #  (PIPAI) + (PIPAI)(SFE)
000058:
000059: 06,3364           50132                           INDEX    BUF        +2
000060: 06,3365           41452                           CS       PIPABIAS                              #  (PIPA PULSES)/(CS) X 2(-3)            *
000061: 06,3366           00006                           EXTEND
000062: 06,3367           71074                           MP       1/PIPADT                              #  (CS) X 2(+8) NOW (PIPA PULSES) X 2(+5)*
000063: 06,3370           00006                           EXTEND
000064: 06,3371           74737                           MP       BIT6                                  #  SCALE 2(+9) SHIFT RIGHT 9             *
000065: 06,3372           50132                           INDEX    BUF        +2
000066: 06,3373           20325                           DAS      DELVX                                 #  (PIPAI) + (PIPAI)(SFE) - (BIAS)(DELTAT)
000067:
000068: 06,3374           10132                           CCS      BUF        +2                         #  PIPAZ, PIPAY, PIPAX
000069: 06,3375           67770                           AD       NEG1
000070: 06,3376           13343                           TCF      1/PIPA1    +1
000071:


000073: 06,3377           13400                           NOOP                                           #  LESS THAN ZERO IMPOSSIBLE
000074:


000076: 06,3400           55477        IRIGCOMP           TS       GCOMPSW                               #  INDICATE COMMANDS 2 PULSES OR LESS.
000077: 06,3401           54130                           TS       BUF                                   #  INDEX COUNTER . IRIGX, IRIGY, IRIGZ.
000078:
000079: 06,3402           03426                           TC       IRIGX                                 #  COMPENSATE ACCELERATION TERMS
000080:
000081: 06,3403           41460                           CS       NBDX                                  #  (GYRO PULSES)/(CS) X 2(-5)
000082: 06,3404           03524                           TC       DRIFTSUB                              #  -(NBOX)(DELTAT)   (GYRO PULSES) X 2(+14)
000083:
000084: 06,3405           03443                           TC       IRIGY                                 #  COMPENSATE ACCELERATION TERMS
000085:
000086: 06,3406           41461                           CS       NBDY                                  #  (GYRO PULSES)/(CS) X 2(-5)
000087: 06,3407           03524                           TC       DRIFTSUB                              #  -(NBDY)(DELTAT)   (GYRO PULSES) X 2(+14)
000088:
000089: 06,3410           03460                           TC       IRIGZ                                 #  COMPENSATE ACCELERATION TERMS
000090:
000091: 06,3411           31462                           CA       NBDZ                                  #  (GYRO PULSES)/(CS) X 2(-5)
000092: 06,3412           03524                           TC       DRIFTSUB                              #  +(NBDZ)(DELTAT)   (GYRO PULSES) X 2(+14)
000093:
000094: 06,3413           11477                           CCS      GCOMPSW                               #  ARE GYRO COMMANDS GREATER THAN 2 PULSES
000095: 06,3414           13416                           TCF      +2                                    #  YES  SEND OUT GYRO TORQUING COMMANDS.
000096: 06,3415           13423                           TCF      IRIG1                                 #  NO   RETURN
000097:
000098: 06,3416           35022                           CA       PRIO21                                #  PRIO GREATER THAN SERVICER
000099: 06,3417           05063                           TC       NOVAC                                 #  SEND OUT GYRO TORQUING COMMANDS.
000100: 06,3420  E3,1460                                  EBANK=   NBDX
000101: 06,3420           03557 14063                     2CADR    1/GYRO
000102:
000103: 06,3422           00003                           RELINT
000104: 06,3423           30163        IRIG1              CA       MODE                                  #  RESTORE CALLERS EBANK
000105: 06,3424           54003                           TS       EBANK
000106: 06,3425           14622                           TCF      SWRETURN
000107:


000109: 06,3426           00006        IRIGX              EXTEND
000110: 06,3427           22156                           QXCH     MPAC       +2                         #  SAVE Q
000111: 06,3430           00006                           EXTEND
000112: 06,3431           40325                           DCS      DELVX                                 #  (PIPA PULSES) X 2(+14)
000113: 06,3432           52155                           DXCH     MPAC
000114: 06,3433           31463                           CA       ADIAX                                 #  (GYRO PULSES)/(PIPA PULSE) X 2(-6)     *
000115: 06,3434           03475                           TC       GCOMPSUB                              #  -(ADIAX)(PIPAX)   (GYRO PULSES) X 2(+14)
000116:
000117: 06,3435           00006                           EXTEND
000118: 06,3436           40327                           DCS      DELVY                                 #  (PIPA PULSES) X 2(+14)
000119: 06,3437           52155                           DXCH     MPAC
000120: 06,3440           41466                           CS       ADSRAX                                #  (GYRO PULSES)/(PIPA PULSE) X 2(-6)     *
000121: 06,3441           03475                           TC       GCOMPSUB                              #  +(ADSRAX)(PIPAY)  (GYRO PULSES) X 2(+14)
000122:
000123:                                                                                                  #                EXTEND                             ***
000124:                                                                                                  #                DCS             DELVZ              ***    (PIPA PULSES) X 2(+14)
000125:                                                                                                  #                DXCH            MPAC               ***
000126:                                                                                                  #                CA              ADOAX              ***    (GYRO PULSES)/(PIPA PULSE) X 2(-6)     *
000127:                                                                                                  #                TC              GCOMPSUB           ***    -(ADOAX)(PIPAZ)   (GYRO PULSES) X 2(+14)
000128:
000129: 06,3442           00156                           TC       MPAC       +2
000130:
000131: 06,3443           00006        IRIGY              EXTEND
000132: 06,3444           22156                           QXCH     MPAC       +2                         #  SAVE Q
000133: 06,3445           00006                           EXTEND
000134: 06,3446           40327                           DCS      DELVY                                 #  (PIPA PULSES) X 2(+14)
000135: 06,3447           52155                           DXCH     MPAC
000136: 06,3450           31464                           CA       ADIAY                                 #  (GYRO PULSES)/(PIPA PULSE) X 2(-6)    *
000137: 06,3451           03475                           TC       GCOMPSUB                              #  -(ADIAY)(PIPAY)   (GYRO PULSES) X 2(+14)
000138:
000139: 06,3452           00006                           EXTEND
000140: 06,3453           40331                           DCS      DELVZ                                 #  (PIPA PULSES) X 2(+14)
000141: 06,3454           52155                           DXCH     MPAC
000142: 06,3455           41467                           CS       ADSRAY                                #  (GYRO PULSES)/(PIPA PULSE) X 2(-6)     *
000143: 06,3456           03475                           TC       GCOMPSUB                              #  +(ADSRAY)(PIPAZ)  (GYRO PULSES) X 2(+14)
000144:
000145:                                                                                                  #                EXTEND                              ***
000146:                                                                                                  #                DCS             DELVX               ***   (PIPA PULSES) X 2(+14)
000147:                                                                                                  #                DXCH            MPAC                ***
000148:                                                                                                  #                CA              ADOAY               ***   (GYRO PULSES)/(PIPA PULSE) X 2(-6)     *
000149:                                                                                                  #                TC              GCOMPSUB            ***   -(ADOAY)(PIPAX)   (GYRO PULSES) X 2(+14)
000150:
000151: 06,3457           00156                           TC       MPAC       +2
000152:
000153: 06,3460           00006        IRIGZ              EXTEND
000154: 06,3461           22156                           QXCH     MPAC       +2                         #  SAVE Q
000155: 06,3462           00006                           EXTEND
000156: 06,3463           40327                           DCS      DELVY                                 #  (PIPA PULSES) X 2(-14)
000157: 06,3464           52155                           DXCH     MPAC
000158: 06,3465           31470                           CA       ADSRAZ                                #  (GYRO PULSES)/(PIPA PULSE) X 2(-6)    *
000159:


000161: 06,3466           03475                           TC       GCOMPSUB                              #  -(ADSRAZ)(PIPAY)  (GYRO PULSES) X 2(+14)
000162:
000163: 06,3467           00006                           EXTEND
000164: 06,3470           40331                           DCS      DELVZ                                 #  (PIPA PULSES) X 2(+14)
000165: 06,3471           52155                           DXCH     MPAC
000166: 06,3472           31465                           CA       ADIAZ                                 #  (GYRO PULSES)/(PIPA PULSE) X 2(-6)     *
000167: 06,3473           03475                           TC       GCOMPSUB                              #  -(ADIAZ)(PIPAZ)   (GYRO PULSES) X 2(+14)
000168:
000169:                                                                                                  #                EXTEND                              ***
000170:                                                                                                  #                DCS             DELVX               ***   (PIPA PULSE) X 2(+14)
000171:                                                                                                  #                DXCH            MPAC                ***
000172:                                                                                                  #                CS              ADOAZ               ***   (GYRO PULSES)/(PIPA PULSE) X 2(-6)     *
000173:                                                                                                  #                TC              GCOMPSUB            ***   +(ADOAZ)(PIPAX)   (GYRO PULSES) X 2(+14)
000174:
000175: 06,3474           00156                           TC       MPAC       +2
000176:


000178: 06,3475           56154        GCOMPSUB           XCH      MPAC                                  #  ADIA OR ADSRA COEFFICIENT ARRIVES IN A
000179: 06,3476           00006                           EXTEND                                         #  C(MPAC) = (PIPA PULSES) X 2(+14)
000180: 06,3477           70154                           MP       MPAC                                  #  (GYRO PULSES)/(PIPA PULSE) X 2(-6)      *
000181: 06,3500           52123                           DXCH     VBUF                                  #  NOW = (GYRO PULSES) X 2(+8)             *
000182:
000183: 06,3501           30155                           CA       MPAC       +1                         #  MINOR PART PIPA PULSES
000184: 06,3502           00006                           EXTEND
000185: 06,3503           70154                           MP       MPAC                                  #  ADIA OR ADSRA
000186: 06,3504           54001                           TS       L
000187: 06,3505           34746                           CAF      ZERO
000188: 06,3506           20123                           DAS      VBUF                                  #  NOW = (GYRO PULSES) X 2(+8)             *
000189:
000190: 06,3507           30122                           CA       VBUF                                  #  PARTIAL RESULT - MAJOR
000191: 06,3510           00006                           EXTEND
000192: 06,3511           74734                           MP       BIT9                                  #  SCALE 2(+6)      SHIFT RIGHT 6          *
000193: 06,3512           50130                           INDEX    BUF                                   #  RESULT = (GYRO PULSES) X 2(+14)
000194: 06,3513           21472                           DAS      GCOMP                                 #  HI(ADIA)(PIPAI)  OR  HI(ADSRA)(PIPAI)
000195:
000196: 06,3514           30123                           CA       VBUF       +1                         #  PARTIAL RESULT - MINOR
000197: 06,3515           00006                           EXTEND
000198: 06,3516           74734                           MP       BIT9                                  #  SCALE 2(+6)      SHIFT RIGHT 6          *
000199: 06,3517           54001                           TS       L
000200: 06,3520           34746                           CAF      ZERO
000201: 06,3521           50130                           INDEX    BUF                                   #  RESULT = (GYRO PULSES) X 2(+14)
000202: 06,3522           21472                           DAS      GCOMP                                 #  (ADIA)(PIPAI)  OR  (ADSRA)(PIPAI)
000203:
000204: 06,3523           00002                           TC       Q
000205:


000207: 06,3524           00006        DRIFTSUB           EXTEND
000208: 06,3525           22131                           QXCH     BUF        +1
000209:
000210: 06,3526           00006                           EXTEND                                         #  C(A) = NBD    (GYRO PULSES)/(CS) X 2(-5)
000211: 06,3527           71074                           MP       1/PIPADT                              #  (CS) X 2(+8)   NOW (GYRO PULSES) X 2(+3)
000212: 06,3530           22155                           LXCH     MPAC       +1                         #  SAVE FOR FRACTIONAL COMPENSATION
000213: 06,3531           00006                           EXTEND
000214: 06,3532           74741                           MP       BIT4                                  #  SCALE 2(+11)     SHIFT RIGHT 11
000215: 06,3533           50130                           INDEX    BUF
000216: 06,3534           21472                           DAS      GCOMP                                 #  HI(NBD)(DELTAT)   (GYRO PULSES) X 2(+14)
000217:
000218: 06,3535           30155                           CA       MPAC       +1                         #  NOW MINOR PART
000219: 06,3536           00006                           EXTEND
000220: 06,3537           74741                           MP       BIT4                                  #  SCALE 2(+11)     SHIFT RIGHT 11
000221: 06,3540           54001                           TS       L
000222: 06,3541           34746                           CAF      ZERO
000223: 06,3542           50130                           INDEX    BUF                                   #  ADD IN FRACTIONAL COMPENSATION
000224: 06,3543           21472                           DAS      GCOMP                                 #  (NBD)(DELTAT)     (GYRO PULSES) X 2(+14)
000225:
000226: 06,3544           34743        DRFTSUB2           CAF      TWO                                   #  PIPAX, PIPAY, PIPAZ
000227: 06,3545           60130                           AD       BUF
000228: 06,3546           56130                           XCH      BUF
000229: 06,3547           50000                           INDEX    A
000230: 06,3550           11471                           CCS      GCOMP                                 #  ARE GYRO COMMANDS 1 PULSE OR GREATER
000231: 06,3551           13553                           TCF      +2                                    #  YES
000232: 06,3552           00131                           TC       BUF        +1                         #  NO
000233:
000234: 06,3553           73623                           MASK     COMPCHK                               #  DEC -1
000235: 06,3554           10000                           CCS      A                                     #  ARE GYRO COMMANDS GREATER THAN 2 PULSES
000236: 06,3555           55477                           TS       GCOMPSW                               #  YES - SET GCOMPSW POSITIVE
000237: 06,3556           00131                           TC       BUF        +1                         #  NO
000238:


000240: 06,3557           34742        1/GYRO             CAF      FOUR                                  #  PIPAZ, PIPAY, PIPAX
000241: 06,3560           54130                           TS       BUF
000242:
000243: 06,3561           50130                           INDEX    BUF                                   #  SCALE GYRO COMMANDS FOR IMUPULSE
000244: 06,3562           31472                           CA       GCOMP      +1                         #  FRACTIONAL PULSES
000245: 06,3563           00006                           EXTEND
000246: 06,3564           74735                           MP       BIT8                                  #  SHIFT RIGHT 7
000247: 06,3565           50130                           INDEX    BUF
000248: 06,3566           55472                           TS       GCOMP      +1                         #  FRACTIONAL PULSES SCALED
000249:
000250: 06,3567           34746                           CAF      ZERO                                  #  SET GCOMP = 0 FOR DAS INSTRUCTION
000251: 06,3570           50130                           INDEX    BUF
000252: 06,3571           57471                           XCH      GCOMP                                 #  GYRO PULSES
000253: 06,3572           00006                           EXTEND
000254: 06,3573           74735                           MP       BIT8                                  #  SHIFT RIGHT 7
000255: 06,3574           50130                           INDEX    BUF
000256: 06,3575           21472                           DAS      GCOMP                                 #  ADD THESE TO FRACTIONAL PULSES ABOVE
000257:
000258: 06,3576           10130                           CCS      BUF                                   #  PIPAZ, PIPAY, PIPAX
000259: 06,3577           67770                           AD       NEG1
000260: 06,3600           13560                           TCF      1/GYRO     +1
000261: 06,3601           01471        LGCOMP             ECADR    GCOMP                                 #  LESS THAN ZERO IMPOSSIBLE
000262:
000263: 06,3602           33601                           CAF      LGCOMP
000264: 06,3603           04607                           TC       BANKCALL
000265: 06,3604           17310                           CADR     IMUPULSE                              #  CALL GYRO TORQUING ROUTINE
000266: 06,3605           04607                           TC       BANKCALL
000267: 06,3606           17735                           CADR     IMUSTALL                              #  WAIT FOR PULSES TO GET OUT
000268: 06,3607           13610                           TCF      +1
000269:
000270: 06,3610           34742        GCOMP1             CAF      FOUR                                  #  PIPAZ, PIPAY, PIPAX
000271: 06,3611           54130                           TS       BUF
000272:
000273: 06,3612           50130                           INDEX    BUF                                   #  RESCALE
000274: 06,3613           31472                           CA       GCOMP      +1
000275: 06,3614           00006                           EXTEND
000276: 06,3615           74735                           MP       BIT8                                  #  SHIFT MINOR PART LEFT 7 - MAJOR PART = 0
000277: 06,3616           50130                           INDEX    BUF
000278: 06,3617           23472                           LXCH     GCOMP      +1                         #  BITS 8-14 OF MINOR PART WERE = 0
000279:
000280: 06,3620           10130                           CCS      BUF                                   #  PIPAZ, PIPAY, PIPAX
000281: 06,3621           67770                           AD       NEG1
000282: 06,3622           13611                           TCF      GCOMP1     +1
000283: 06,3623           77776        COMPCHK            DEC      -1         B-14                       #  LESS THAN ZERO IMPOSSIBLE
000284: 06,3624           15146                           TCF      ENDOFJOB
000285:


000287: 06,3625           11477        NBDONLY            CCS      GCOMPSW                               #  BYPASS IF GCOMPSW NEGATIVE
000288: 06,3626           13631                           TCF      +3
000289: 06,3627           13631                           TCF      +2
000290: 06,3630           15146                           TCF      ENDOFJOB
000291:
000292: 06,3631           00004                           INHINT
000293: 06,3632           10076                           CCS      FLAGWRD2                              #  PREREAD T3RUPT MAY COINCIDE
000294: 06,3633           15146                           TCF      ENDOFJOB
000295: 06,3634           15146                           TCF      ENDOFJOB
000296: 06,3635           13636                           TCF      +1
000297:
000298: 06,3636           30104                           CA       FLAGWRD8                              #  IF SURFACE FLAG IS SET, SET TEM1
000299: 06,3637           74735                           MASK     BIT8                                  #  POSITIVE SO THAT THE ACCELERATION TERMS
000300: 06,3640           54141                           TS       TEM1                                  #  WILL BE COMPENSATED.
000301: 06,3641           00006                           EXTEND
000302: 06,3642           13645                           BZF      +3                                    #  ARE WE ON THE SURFACE
000303:
000304: 06,3643           04665                           TC       IBNKCALL                              #  ON THE SURFACE
000305: 06,3644           77543                           CADR     PIPASR     +3                         #  READ PIPAS, BUT DO NOT SCALE THEM
000306:
000307: 06,3645           30025                           CA       TIME1                                 #  (CS) X 2(+14)
000308: 06,3646           57074                           XCH      1/PIPADT                              #  PREVIOUS TIME
000309: 06,3647           00003                           RELINT
000310: 06,3650           40000                           COM
000311: 06,3651           61074                           AD       1/PIPADT                              #  PRESENT TIME - PREVIOUS TIME
000312: 06,3652           64727        NBD2               AD       HALF                                  #  CORRECT FOR POSSIBLE TIME1 TICK
000313: 06,3653           64727                           AD       HALF
000314: 06,3654           56001                           XCH      L                                     #  IF TIME1 DID NOT TICK, REMOVE RESULTING
000315: 06,3655           56001                           XCH      L                                     #  OVERFLOW.
000316:
000317: 06,3656           00006        NBD3               EXTEND                                         #  C(A) = DELTAT    (CS) X 2(+14)
000318: 06,3657           74733                           MP       BIT10                                 #  SHIFT RIGHT 5
000319: 06,3660           52125                           DXCH     VBUF       +2
000320:
000321: 06,3661           34746                           CA       ZERO
000322: 06,3662           55477                           TS       GCOMPSW                               #  INDICATE COMMANDS 2 PULSES OR LESS.
000323: 06,3663           54130                           TS       BUF                                   #  INDEX  X, Y, Z.
000324:
000325: 06,3664           10141                           CCS      TEM1                                  #  IF SURFACE FLAG IS SET,
000326: 06,3665           03426                           TC       IRIGX                                 #  COMPENSATE ACCELERATION TERMS.
000327:
000328: 06,3666           00006                           EXTEND
000329: 06,3667           30125                           DCA      VBUF       +2
000330: 06,3670           52155                           DXCH     MPAC                                  #  DELTAT NOW SCALED (CS) X 2(+19)
000331:
000332: 06,3671           41460                           CS       NBDX                                  #  (GYRO PULSES)/(CS) X 2(-5)
000333: 06,3672           03714                           TC       FBIASSUB                              #  -(NBOX)(DELTAT)   (GYRO PULSES) X 2(+14)
000334:
000335: 06,3673           10141                           CCS      TEM1                                  #  IF SURFACE FLAG IS SET,
000336: 06,3674           03443                           TC       IRIGY                                 #  COMPENSATE ACCELERATION TERMS.
000337:


000339: 06,3675           00006                           EXTEND
000340: 06,3676           40125                           DCS      VBUF       +2
000341: 06,3677           52155                           DXCH     MPAC                                  #  DELTAT SCALED (CS) X 2(+19)
000342: 06,3700           31461                           CA       NBDY                                  #  (GYRO PULSES)/(CS) X 2(-5)
000343: 06,3701           03714                           TC       FBIASSUB                              #  -(NBDY)(DELTAT)   (GYRO PULSES) X 2(+14)
000344:
000345: 06,3702           10141                           CCS      TEM1                                  #  IF SURFACE FLAG IS SET,
000346: 06,3703           03460                           TC       IRIGZ                                 #  COMPENSATE ACCELERATION TERMS
000347:
000348: 06,3704           00006                           EXTEND
000349: 06,3705           40125                           DCS      VBUF       +2
000350: 06,3706           52155                           DXCH     MPAC                                  #  DELTAT SCALED (CS) X 2(+19)
000351: 06,3707           41462                           CS       NBDZ                                  #  (GYRO PULSES)/(CS) X 2(-5)
000352: 06,3710           03714                           TC       FBIASSUB                              #  +(NBDZ)(DELTAT)   (GYRO PULSES) X 2(+14)
000353:
000354: 06,3711           11477                           CCS      GCOMPSW                               #  ARE GYRO COMMANDS GREATER THAN 2 PULSES
000355: 06,3712           13557                           TCF      1/GYRO                                #  YES
000356: 06,3713           15146                           TCF      ENDOFJOB                              #  NO
000357:


000359: 06,3714           56002        FBIASSUB           XCH      Q
000360: 06,3715           54131                           TS       BUF        +1
000361:
000362: 06,3716           30002                           CA       Q                                     #  NBD SCALED (GYRO PULSES)/(CS) X 2(-5)
000363: 06,3717           00006                           EXTEND
000364: 06,3720           70154                           MP       MPAC                                  #  DELTAT SCALED (CS) X 2(+19)
000365: 06,3721           50130                           INDEX    BUF
000366: 06,3722           21472                           DAS      GCOMP                                 #  HI(NBD)(DELTAT)   (GYRO PULSES) X 2(+14)
000367:
000368: 06,3723           30002                           CA       Q                                     #  NOW FRACTIONAL PART
000369: 06,3724           00006                           EXTEND
000370: 06,3725           70155                           MP       MPAC       +1
000371: 06,3726           54001                           TS       L
000372: 06,3727           34746                           CAF      ZERO
000373: 06,3730           50130                           INDEX    BUF
000374: 06,3731           21472                           DAS      GCOMP                                 #  (NBD)(DELTAT)      (GYRO PULSES) X 2(+14)
000375:
000376: 06,3732           13544                           TCF      DRFTSUB2                              #  CHECK MAGNITUDE OF COMPENSATION
000377:
000378: 06,3733           04607        LASTBIAS           TC       BANKCALL
000379: 06,3734           17264                           CADR     PIPUSE1
000380:
000381: 06,3735           11477                           CCS      GCOMPSW
000382: 06,3736           13741                           TCF      +3
000383: 06,3737           13741                           TCF      +2
000384: 06,3740           15146                           TCF      ENDOFJOB
000385:
000386: 06,3741           30104                           CA       FLAGWRD8                              #  IF SURFACE FLAG IS SET, SET TEM1
000387: 06,3742           74735                           MASK     SURFFBIT                              #  POSITIVE SO THAT THE ACCELERATION TERMS
000388: 06,3743           54141                           TS       TEM1                                  #  WILL BE COMPENSATED.
000389:
000390: 06,3744           37737                           CAF      PRIO31                                #  2 SECONDS SCALED (CS) X 2(+8)
000391: 06,3745           57074                           XCH      1/PIPADT
000392: 06,3746           40000                           COM
000393: 06,3747           61234                           AD       PIPTIME    +1
000394: 06,3750           13652                           TCF      NBD2
000395:
000396: 06,3751           33601        GCOMPZER           CAF      LGCOMP                                #  ROUTINE TO ZERO GCOMP BEFORE FIRST
000397: 06,3752           56003                           XCH      EBANK                                 #  CALL TO 1/PIPA
000398: 06,3753           54163                           TS       MODE
000399:
000400: 06,3754           34746                           CAF      ZERO
000401: 06,3755           55477                           TS       GCOMPSW
000402: 06,3756           55471                           TS       GCOMP
000403: 06,3757           55472                           TS       GCOMP      +1
000404: 06,3760           55473                           TS       GCOMP      +2
000405: 06,3761           55474                           TS       GCOMP      +3
000406: 06,3762           55475                           TS       GCOMP      +4
000407:


000409: 06,3763           55476                           TS       GCOMP      +5
000410:
000411: 06,3764           13423                           TCF      IRIG1                                 #  RESTORE EBANK AND RETURN
000412:

End of include-file IMU_COMPENSATION_PACKAGE.agc.  Parent file is MAIN.agc


