
Source Code


000002:                                                                                                  ## Copyright:   Public domain.
000003:                                                                                                  ## Filename:    INFLIGHT_ALIGNMENT_ROUTINES.agc
000004:                                                                                                  ## Purpose:     A section of Luminary revision 210.
000005:                                                                                                  ##              It is part of the source code for the Lunar Module's (LM)
000006:                                                                                                  ##              Apollo Guidance Computer (AGC) for Apollo 15-17.
000007:                                                                                                  ##              This file is intended to be a faithful transcription, except
000008:                                                                                                  ##              that the code format has been changed to conform to the
000009:                                                                                                  ##              requirements of the yaYUL assembler rather than the
000010:                                                                                                  ##              original YUL assembler.
000011:                                                                                                  ## Reference:   pp. 1246-1255
000012:                                                                                                  ## Assembler:   yaYUL
000013:                                                                                                  ## Contact:     Ron Burkey <info@sandroid.org>.
000014:                                                                                                  ## Website:     www.ibiblio.org/apollo/index.html
000015:                                                                                                  ## Mod history: 2016-11-17 JL   Created from Luminary131 version.
000016:                                                                                                  ##              2016-12-07 RRB  Updated for Luminary210.
000017:


000019: 22,3774                                           BANK     22
000020: 23,2000                                           SETLOC   INFLIGHT
000021: 23,2000                                           BANK
000022:
000023: 23,3232  E5,1642                                  EBANK=   XSM
000024:
000025:                                                                                                  #  CALCGTA COMPUTES THE GYRO TORQUE ANGLES REQUIRED TO BRING THE STABLE MEMBER INTO THE DESIRED ORIENTATION.
000026:
000027:                                                                                                  #  THE INPUT IS THE DESIRED STABLE MEMBER COORDINATES REFERRED TO PRESENT STABLE MEMBER COORDINATES.  THE THREE
000028:                                                                                                  #  HALF-UNIT VECTORS ARE STORED AT XDC, YDC, AND ZDC.
000029:
000030:                                                                                                  #  THE OUTPUTS ARE THE THREE GYRO TORQUE ANGLES TO BE APPLIED TO THE Y, Z, AND X GYROS AND ARE STORED DP AT IGC,
000031:                                                                                                  #  MGC, AND OGC RESPECTIVELY.
000032:
000033: 23,3232                                           COUNT*   $$/INFLT
000034: 23,3232           71220        CALCGTA            ITA      DLOAD                                 #  PUSHDOWN 00-03, 16D-27D, 34D-37D
000035: 23,3233           00051                                    S2                                    #  XDC = (XD1 XD2 XD3)
000036: 23,3234           02665                                    XDC                                   #  YDC = (YD1 YD2 YD3)
000037: 23,3235           65325                           PDDL     PDDL                                  #  ZDC = (ZD1 ZD2 ZD3)
000038: 23,3236           06505                                    HI6ZEROS
000039: 23,3237           02671                                    XDC        +4
000040: 23,3240           55476                           DCOMP    VDEF
000041: 23,3241           77656                           UNIT
000042: 23,3242           14027                           STODL    ZPRIME                                #  ZP = UNIT(-XD3 0 XD1) = (ZP1 ZP2 ZP3)
000043: 23,3243           00027                                    ZPRIME
000044:
000045: 23,3244           77742                           SR1
000046: 23,3245           14023                           STODL    SINTH                                 #  SIN(IGC) = ZP1
000047: 23,3246           00033                                    ZPRIME     +4
000048: 23,3247           77742                           SR1
000049: 23,3250           34021                           STCALL   COSTH                                 #  COS(IGC) = ZP3
000050: 23,3251           47303                                    ARCTRIG
000051:
000052: 23,3252           16742                           STODL    IGC                                   #  Y GYRO TORQUING ANGLE   FRACTION OF REV.
000053: 23,3253           02667                                    XDC        +2
000054: 23,3254           77742                           SR1
000055: 23,3255           14023                           STODL    SINTH                                 #  SIN(MGC) = XD2
000056: 23,3256           00027                                    ZPRIME
000057:
000058: 23,3257           65205                           DMP      PDDL
000059: 23,3260           02671                                    XDC        +4                         #  PD00 = (ZP1)(XD3)
000060: 23,3261           00033                                    ZPRIME     +4
000061:
000062: 23,3262           45205                           DMP      DSU
000063: 23,3263           02665                                    XDC                                   #  MPAC = (ZP3)(XD1)
000064: 23,3264           77626                           STADR
000065: 23,3265           43756                           STCALL   COSTH                                 #  COS(MGC) = MPAC - PD00
000066: 23,3266           47303                                    ARCTRIG


000068: 23,3267           26744                           STOVL    MGC                                   #  Z GYRO TORQUING ANGLE   FRACTION OF REV.
000069: 23,3270           00027                                    ZPRIME
000070: 23,3271           77641                           DOT
000071: 23,3272           02701                                    ZDC
000072: 23,3273           24021                           STOVL    COSTH                                 #  COS(OGC) = ZP . ZDC
000073: 23,3274           00027                                    ZPRIME
000074: 23,3275           77641                           DOT
000075: 23,3276           02673                                    YDC
000076: 23,3277           34023                           STCALL   SINTH                                 #  SIN(OGC) = ZP . YDC
000077: 23,3300           47303                                    ARCTRIG
000078:
000079: 23,3301           36740                           STCALL   OGC                                   #  X GYRO TORQUING ANGLE   FRACTION OF REV.
000080: 23,3302           00051                                    S2
000081:


000083:                                                                                                  #  ARCTRIG COMPUTES AN ANGLE GIVEN THE SINE AND COSINE OF THIS ANGLE.
000084:
000085:                                                                                                  #  THE INPUTS ARE SIN/4 AND COS/4 STORED UP AT SINTH AND COSTH.
000086:
000087:                                                                                                  #  THE OUTPUT IS THE CALCULATED ANGLE BETWEEN +.5 AND -.5 REVOLUTIONS AND STORED AT THETA.  THE OUTPUT IS ALSO
000088:                                                                                                  #  AVAILABLE AT MPAC.
000089:
000090: 23,3303           51545        ARCTRIG            DLOAD    ABS                                   #  PUSHDOWN  16D-21D
000091: 23,3304           00023                                    SINTH
000092: 23,3305           50025                           DSU      BMN
000093: 23,3306           07517                                    QTSN45                                #  ABS(SIN/4) - SIN(45)/4
000094: 23,3307           47316                                    TRIG1                                 #  IF (-45,45) OR (135,-135)
000095:
000096: 23,3310           72545                           DLOAD    SL1                                   #  (45,135) OR (-135,-45)
000097: 23,3311           00021                                    COSTH
000098: 23,3312           75326                           ACOS     SIGN
000099: 23,3313           00023                                    SINTH
000100: 23,3314           00025                           STORE    THETA                                 #  X = ARCCOS(COS) WITH SIGN(SIN)
000101: 23,3315           77616                           RVQ
000102:
000103: 23,3316           72545        TRIG1              DLOAD    SL1                                   #  (-45,45) OR (135,-135)
000104: 23,3317           00023                                    SINTH
000105: 23,3320           77736                           ASIN
000106: 23,3321           14025                           STODL    THETA                                 #  X = ARCSIN(SIN) WITH SIGN(SIN)
000107: 23,3322           00021                                    COSTH
000108: 23,3323           77640                           BMN
000109: 23,3324           47327                                    TRIG2                                 #  IF (135,-135)
000110:
000111: 23,3325           43545                           DLOAD    RVQ
000112: 23,3326           00025                                    THETA                                 #  X = ARCSIN(SIN)   (-45,45)
000113:
000114: 23,3327           75345        TRIG2              DLOAD    SIGN                                  #  (135,-135)
000115: 23,3330           06503                                    HIDPHALF
000116: 23,3331           00023                                    SINTH
000117: 23,3332           77625                           DSU
000118: 23,3333           00025                                    THETA
000119: 23,3334           00025                           STORE    THETA                                 #  X = .5 WITH SIGN(SIN) - ARCSIN(SIN)
000120: 23,3335           77616                           RVQ                                            #        (+) - (+) OR (-) - (-)
000121:


000123:                                                                                                  #  SMNB, NBSM, AND AXISROT, WHICH USED TO APPEAR HERE, HAVE BEEN
000124:                                                                                                  #  COMBINED IN A ROUTINE CALLED AX*SR*T, WHICH APPEARS AMONG THE POWERED
000125:                                                                                                  #  FLIGHT SUBROUTINES.
000126:


000128:                                                                                                  #  CALCGA COMPUTES THE CDU DRIVING ANGLES REQUIRED TO BRING THE STABLE MEMBER INTO THE DESIRED ORIENTATION.
000129:
000130:                                                                                                  #  THE INPUTS ARE  1) THE NAVIGATION BASE COORDINATES REFERRED TO ANY COORDINATE SYSTEM.  THE THREE HALF-UNIT
000131:                                                                                                  #  VECTORS ARE STORED AT XNB,YNB, AND ZNB.  2) THE DESIRED STABLE MEMBER COORDINATES REFERRED TO THE SAME
000132:                                                                                                  #  COORDINATE SYSTEM ARE STORED AT XSM, YSM, AND ZSM.
000133:
000134:                                                                                                  #  THE OUTPUTS ARE THE THREE CDU DRIVING ANGLES AND ARE STORED SP AT THETAD, THETAD +1, AND THETAD +2.
000135:
000136: 23,3336           77601        CALCGA             SETPD                                          #  PUSHDOWN 00-05, 16D-21D, 34D-37D
000137: 23,3337           00001                                    0
000138: 23,3340           47375                           VLOAD    VXV
000139: 23,3341           02665                                    XNB                                   #  XNB = OGA (OUTER GIMBAL AXIS)
000140: 23,3342           02651                                    YSM                                   #  YSM = IGA (INNER GIMBAL AXIS)
000141: 23,3343           41456                           UNIT     PUSH                                  #  PD0 = UNIT(OGA X IGA) = MGA
000142:
000143: 23,3344           44041                           DOT      ITA
000144: 23,3345           02701                                    ZNB
000145: 23,3346           00051                                    S2
000146: 23,3347           24021                           STOVL    COSTH                                 #  COS(OG) = MGA . ZNB
000147: 23,3350           00001                                    0
000148: 23,3351           77641                           DOT
000149: 23,3352           02673                                    YNB
000150: 23,3353           34023                           STCALL   SINTH                                 #  SIN(OG) = MGA . YNB
000151: 23,3354           47303                                    ARCTRIG
000152: 23,3355           26740                           STOVL    OGC
000153: 23,3356           00001                                    0
000154:
000155: 23,3357           50235                           VXV      DOT                                   #  PROVISION FOR MG ANGLE OF 90 DEGREES
000156: 23,3360           02665                                    XNB
000157: 23,3361           02651                                    YSM
000158: 23,3362           77752                           SL1
000159: 23,3363           24021                           STOVL    COSTH                                 #  COS(MG) = IGA . (MGA X OGA)
000160: 23,3364           02651                                    YSM
000161: 23,3365           77641                           DOT
000162: 23,3366           02665                                    XNB
000163: 23,3367           34023                           STCALL   SINTH                                 #  SIN(MG) = IGA . OGA
000164: 23,3370           47303                                    ARCTRIG
000165: 23,3371           02744                           STORE    MGC
000166:
000167: 23,3372           45246                           ABS      DSU
000168: 23,3373           07521                                    .166...
000169: 23,3374           77644                           BPL
000170: 23,3375           47414                                    GIMLOCK1                              #  IF ANGLE GREATER THAN 60 DEGREES
000171:
000172: 23,3376           50375        CALCGA1            VLOAD    DOT
000173: 23,3377           02657                                    ZSM
000174: 23,3400           00001                                    0
000175: 23,3401           24021                           STOVL    COSTH                                 #  COS(IG) = ZSM . MGA
000176: 23,3402           02643                                    XSM


000178: 23,3403           45441                           DOT      STADR
000179: 23,3404           43754                           STCALL   SINTH                                 #  SIN(IG) = XSM . MGA
000180: 23,3405           47303                                    ARCTRIG
000181:
000182: 23,3406           26742                           STOVL    IGC
000183: 23,3407           02740                                    OGC
000184: 23,3410           77634                           RTB
000185: 23,3411           21630                                    V1STO2S
000186: 23,3412           34322                           STCALL   THETAD
000187: 23,3413           00051                                    S2
000188:
000189: 23,3414           77776        GIMLOCK1           EXIT
000190: 23,3415           05571                           TC       ALARM
000191: 23,3416           00401                           OCT      00401
000192: 23,3417           05506                           TC       UPFLAG                                #  GIMBAL LOCK HAS OCCURRED
000193: 23,3420           00056                           ADRES    GLOKFAIL
000194:
000195: 23,3421           06060                           TC       INTPRET
000196: 23,3422           77650                           GOTO
000197: 23,3423           47376                                    CALCGA1
000198:


000200:                                                                                                  #  AXISGEN COMPUTES THE COORDINATES OF ONE COORDINATE SYSTEM REFERRED TO ANOTHER COORDINATE SYSTEM.
000201:
000202:                                                                                                  #  THE INPUTS ARE  1) THE STAR1 VECTOR REFERRED TO COORDINATE SYSTEM A STORED AT STARAD.  2) THE STAR2 VECTOR
000203:                                                                                                  #  REFERRED TO COORDINATE SYSTEM A STORED AT STARAD +6.  3) THE STAR1 VECTOR REFERRED TO COORDINATE SYSTEM B STORED
000204:                                                                                                  #  AT LOCATION 6 OF THE VAC AREA.  4) THE STAR2 VECTOR REFERRED TO COORDINATE SYSTEM B STORED AT LOCATION 12D OF
000205:                                                                                                  #  THE VAC AREA.
000206:
000207:                                                                                                  #  THE OUTPUT DEFINES COORDINATE SYSTEM A REFERRED TO COORDINATE SYSTEM B.  THE THREE HALF-UNIT VECTORS ARE STORED
000208:                                                                                                  #  AT LOCATIONS XDC, XDC +6, XDC +12D, AND STARAD, STARAD +6, STARAD +12D.
000209:
000210: 23,3424           66370        AXISGEN            AXT,1    SSP                                   #  PUSHDOWN 00-30D, 34D-37D
000211: 23,3425           02714                                    STARAD     +6
000212: 23,3426           00051                                    S1
000213: 23,3427           02700                                    STARAD     -6
000214:
000215: 23,3430           77601                           SETPD
000216: 23,3431           00001                                    0
000217: 23,3432           46773        AXISGEN1           VLOAD*   VXV*                                  #  06D   UA = S1
000218: 23,3433           02723                                    STARAD     +12D,1                     #         STARAD +00D    UB = S1
000219: 23,3434           02731                                    STARAD     +18D,1
000220: 23,3435           77656                           UNIT                                           #  12D   VA = UNIT(S1 X S2)
000221: 23,3436           06731                           STORE    STARAD     +18D,1                     #         STARAD +06D    VB = UNIT(S1 X S2)
000222: 23,3437           77773                           VLOAD*
000223: 23,3440           02723                                    STARAD     +12D,1
000224:
000225: 23,3441           76433                           VXV*     VSL1
000226: 23,3442           02731                                    STARAD     +18D,1                     #  18D   WA = UA X VA
000227: 23,3443           06737                           STORE    STARAD     +24D,1                     #         STARAD +12D    WB = UB X VB
000228:
000229: 23,3444           77700                           TIX,1
000230: 23,3445           47432                                    AXISGEN1
000231:
000232: 23,3446           66160                           AXC,1    SXA,1
000233: 23,3447           00006                                    6
000234: 23,3450           00036                                    30D
000235:
000236: 23,3451           66370                           AXT,1    SSP
000237: 23,3452           00022                                    18D
000238: 23,3453           00051                                    S1
000239: 23,3454           00006                                    6
000240:
000241: 23,3455           66374                           AXT,2    SSP
000242: 23,3456           00006                                    6
000243: 23,3457           00052                                    S2
000244: 23,3460           00002                                    2
000245:
000246: 23,3461           76720        AXISGEN2           XCHX,1   VLOAD*
000247: 23,3462           00036                                    30D                                   #  X1=-6 X2=+6   X1=-6 X2=+4     X1=-6 X2=+2
000248: 23,3463           00001                                    0,1
000249:


000251: 23,3464           62757                           VXSC*    PDVL*                                 #  J=(UA)(UB1)   J=(UA)(UB2)     J=(UA)(UB3)
000252: 23,3465           75062                                    STARAD     +6,2
000253: 23,3466           00007                                    6,1
000254: 23,3467           77757                           VXSC*
000255: 23,3470           75054                                    STARAD     +12D,2
000256: 23,3471           30031                           STOVL*   24D                                   #  K=(VA)(VB1)   J=(VA)(VB2)     J=(VA)(VB3)
000257: 23,3472           00015                                    12D,1
000258:
000259: 23,3473           53357                           VXSC*    VAD
000260: 23,3474           75046                                    STARAD     +18D,2                     #  L=(WA)(WB1)   J=(WA)(WB2)     J=(WA)(WB3)
000261: 23,3475           76455                           VAD      VSL1
000262: 23,3476           00031                                    24D
000263: 23,3477           53520                           XCHX,1   UNIT
000264: 23,3500           00036                                    30D
000265: 23,3501           06707                           STORE    XDC        +18D,1                     #  XDC = L+J+K   YDC = L+J+K     ZDC = L+J+K
000266:
000267: 23,3502           77700                           TIX,1
000268: 23,3503           47504                                    AXISGEN3
000269:
000270: 23,3504           77704        AXISGEN3           TIX,2
000271: 23,3505           47461                                    AXISGEN2
000272:
000273: 23,3506           77775                           VLOAD
000274: 23,3507           02665                                    XDC
000275: 23,3510           26707                           STOVL    STARAD
000276: 23,3511           02673                                    YDC
000277: 23,3512           26715                           STOVL    STARAD     +6
000278: 23,3513           02701                                    ZDC
000279: 23,3514           02723                           STORE    STARAD     +12D
000280:
000281: 23,3515           77616                           RVQ
000282:


000284: 23,3516           05520 26075  QTSN45             2DEC     .1768
000285: 23,3520           05252 25253  .166...            2DEC     .1666666667
000286:


000288:                                                                                                  #  (There is no source code on this page of the original assembly listing.)

End of include-file INFLIGHT_ALIGNMENT_ROUTINES.agc.  Parent file is MAIN.agc


