
Source Code


000002:                                                                                                  ## Copyright:   Public domain.
000003:                                                                                                  ## Filename:    INTERPRETER.agc
000004:                                                                                                  ## Purpose:     A section of Luminary revision 210.
000005:                                                                                                  ##              It is part of the source code for the Lunar Module's (LM)
000006:                                                                                                  ##              Apollo Guidance Computer (AGC) for Apollo 15-17.
000007:                                                                                                  ##              This file is intended to be a faithful transcription, except
000008:                                                                                                  ##              that the code format has been changed to conform to the
000009:                                                                                                  ##              requirements of the yaYUL assembler rather than the
000010:                                                                                                  ##              original YUL assembler.
000011:                                                                                                  ## Reference:   pp. 1000-1092
000012:                                                                                                  ## Assembler:   yaYUL
000013:                                                                                                  ## Contact:     Ron Burkey <info@sandroid.org>.
000014:                                                                                                  ## Website:     www.ibiblio.org/apollo/index.html
000015:                                                                                                  ## Mod history: 2016-11-17 JL   Created from Luminary131 version.
000016:                                                                                                  ##              2016-12-03 MAS  Started transcription.
000017:                                                                                                  ##              2016-12-07 MAS  Completed transcription.
000018:                                                                                                  ##              2016-12-07 HG   fix P00 -> POO (only in operand POODOO1)
000019:                                                                                                  ##              2016-12-26 RSB  Comment-text proofed using ProoferComments
000020:                                                                                                  ##                              and corrected errors found.
000021:                                                                                                  ##              2017-01-28 RSB  Back-ported some comment-text fixes made in Luminary 69.
000022:                                                                                                  ##              2017-02-05 RSB  Back-ported comment corrections
000023:                                                                                                  ##                              identified while proofing Artemis 072.
000024:                                                                                                  ##              2017-03-15 RSB  Comment-text fixes identified in 5-way
000025:                                                                                                  ##                              side-by-side diff of Luminary 69/99/116/131/210.
000026:


000028:                                                                                                  #  SECTION 1  DISPATCHER
000029:
000030:                                                                                                  #           ENTRY TO THE INTERPRETER. INTPRET SETS LOC TO THE FIRST  INSTRUCTION, BANKSET TO THE BBANK OF THE
000031:                                                                                                  #  OBJECT INTERPRETIVE PROGRAM, AND INTBIT15 TO THE BIT15 CONTENTS OF FBANK. INTERPRETIVE PROGRAMS MAY BE IN
000032:                                                                                                  #  VIRTUALLY ALL BANKS PRESENT UNDER ANY SUPER-BANK SETTING, WITH THE RESTRICTION THAT PROGRAMS IN HIGH BANKS
000033:                                                                                                  #  (BIT15 OF FBANK = 1) DO NOT REFER TO LOWBANKS, AND VICE-VERSA. THE INTERPRETER DOES NOT SWITCH SUPERBANKS.
000034:                                                                                                  #  E-BANK SWITCHING OCCURS WHENEVER GENERAL ERASABLE (100 - 3777) IS ADDRESSED.
000035:
000036:    6060                                           BLOCK    03
000037:
000038:    6060                                           COUNT*   $$/INTER
000039:    6060           00003        INTPRET            RELINT
000040:    6061           00006                           EXTEND                                         #  SET LOC TO THE WORD FOLLOWING THE TC.
000041:    6062           22164                           QXCH     LOC
000042:
000043:    6063           30006                 +2        CA       BBANK                                 #  INTERPRETIVE BRANCHES FINISH HERE.
000044:    6064           54165                           TS       BANKSET
000045:    6065           74726                           MASK     BIT15                                 #  GET 15TH BIT FOR INDEXABLE ADDRESSES.
000046:    6066           54115                           TS       INTBIT15
000047:
000048:    6067           54023                           TS       EDOP                                  #  MAKE SURE NO INSTRUCTIONS LEFT OVER
000049:
000050:    6070           16111                           TCF      NEWOPS                                #  PICK UP OP CODE PAIR AND BEGIN.
000051:
000052:
000053:    6071           22006        INTRSM             LXCH     BBANK                                 #  RESUME SUSPENDED INTERPRETIVE JOB
000054:    6072           16063                           TCF      INTPRET    +3
000055:                                                                                                  #           DLOAD LOADS MPAC, MPAC +1, LEAVING ZERO IN MPAC +2.
000056:
000057:    6073           00006        DLOAD              EXTEND
000058:    6074           50116                           INDEX    ADDRWD
000059:    6075           30001                           DCA      0                                     #  LOAD DP C(C(ADDRWD)) INTO MPAC,MPAX +1
000060:    6076           52155        SLOAD2             DXCH     MPAC
000061:    6077           34746                           CAF      ZERO                                  #  ZERO MPAC +2
000062:


000064:                                                                                                  #           AT THE END OF MOST INSTRUCTIONS, CONTROL IS GIVEN TO DANZIG TO DISPATCH THE NEXT OPERATION.
000065:
000066:    6100           54156                           TS       MPAC       +2                         #  AND DECLARE DP MODE
000067:
000068:    6101           54163        NEWMODE            TS       MODE                                  #  PROLOGUE FOR MODE-CHANGING INSTRUCTIONS.
000069:
000070:    6102           30165        DANZIG             CA       BANKSET                               #  SET BBANK BEFORE TESTING NEWJOB SO THAT
000071:    6103           54006                           TS       BBANK                                 #  IT MAY BE SAVED DIRECTLY BY CHANJOB.
000072:
000073:    6104           10023        NOIBNKSW           CCS      EDOP                                  #  SEE IF AN ORDER CODE IS LEFT OVER FROM
000074:    6105           16120                           TCF      OPJUMP                                #  THE LAST PAIR RETRIEVED. IF SO, EXECUTE.
000075:                                                                                                  #  EDOP IS SET TO ZERO ON ITS RE-EDITING.
000076:
000077:    6106           10067                           CCS      NEWJOB                                #  SEE IF A JOB OF HIGHER PRIORITY IS
000078:    6107           15117                           TCF      CHANG2                                #  PRESENT, AND IF SO, CHANGE JOBS.
000079:
000080:    6110           24164                           INCR     LOC                                   #  ADVANCE THE LOCATION COUNTER.
000081:                                                                                                  #           ITRACE (1) REFERS TO "NEWOPS".
000082:    6111           50164        NEWOPS             INDEX    LOC                                   #  ENTRY TO BEGIN BY PICKING OP CODE PAIR.
000083:    6112           30000                           CA       0                                     #  MAY BE AN OPCODE PAIR OR A STORE CODE.
000084:    6113           10000                           CCS      A                                     #  TEST SIGN AND GET DABS(A).
000085:    6114           16403                           TCF      DOSTORE                               #  PROCESS STORE CODE.
000086:
000087:    6115           00177        LOW7               OCT      177
000088:
000089:    6116           54023                           TS       EDOP                                  #  OP CODE PAIR. LEAVE THE OTHER IN EDOP
000090:    6117           76115                           MASK     LOW7                                  #  WHERE  CCS EDOP  WILL HONOR IT NEXT.
000091:
000092:    6120           54020        OPJUMP             TS       CYR                                   #  LOWWD ENTERS HERE IF A RIGHT-HAND OP
000093:    6121           10020                           CCS      CYR                                   #  CODE IS TO BE PROCESSED. TEST PREFICES.
000094:    6122           16270                           TCF      OPJUMP2                               #  TEST SECOND PREFIX BIT.
000095:
000096:    6123           16764                           TCF      EXIT                                  #  +0 OP CODE IS EXIT.
000097:


000099:                                                                                                  #           PROCESS ADDRESSES WHICH MAY BE DIRECT, INDEXED, OR REFERENCE THE PUSHDOWN LIST.
000100:
000101:    6124           74744        ADDRESS            MASK     BIT1                                  #  SEE IF ADDRESS IS INDEXED. CYR CONTAINED
000102:    6125           10000                           CCS      A                                     #  400XX, SO BIT 1 IS NOW AS IT WAS IN CYR.
000103:    6126           16167                           TCF      INDEX                                 #  FORM INDEXED ADDRESS.
000104:
000105:    6127           50164        DIRADRES           INDEX    LOC                                   #  LOOK AHEAD TO NEXT WORD TO SEE IF
000106:    6130           40001        OCT40001           CS       1                                     #  ADDRESS IS GIVEN.
000107:    6131           10000                           CCS      A
000108:    6132           16236                           TCF      PUSHUP                                #  IF NOT.
000109:
000110:    6133           77773        NEG4               DEC      -4         B-14
000111:
000112:    6134           24164                           INCR     LOC                                   #  IF SO, TO SHOW WE PICKED UP A WORD.
000113:    6135           54116                           TS       ADDRWD
000114:


000116:                                                                                                  #           FINAL DIGESTION OF DIRECT ADDRESSES OF OP CODES WITH 01 PREFIX IS DONE HERE. IN EACH CASE, THE
000117:                                                                                                  #  REQUIRED 12-BIT SUB-ADDRESS IS LEFT IN ADDRWD, WITH ANY REQUIRED E OR F BANK SWITCHING DONE. ADDRESSES LESS
000118:                                                                                                  #  THAN 45D ARE TAKEN TO BE RELATIVE TO THE WORK AREA. THE OP CODE IS NOW IN BITS 1-5 OF CYR WITH BIT 14 = 1.
000119:
000120:    6136           66272                           AD       -ENDVAC                               #  SEE IF ADDRESS RELATIVE TO WORK AREA.
000121:    6137           10000                           CCS      A
000122:    6140           67764                           AD       -ENDERAS                              #  IF NOT, SEE IF IN GENERAL ERASABLE.
000123:    6141           16146                           TCF      IERASTST
000124:
000125:    6142           30120        NETZERO            CA       FIXLOC                                #  IF SO, LEAVE THE MODIFIED ADDRESS IN
000126:    6143           26116                           ADS      ADDRWD                                #  ADDRWD AND DISPATCH.
000127:    6144           50020        ITR15              INDEX    CYR                                   #  THIS INDEX MAKES THE NEXT INSTRUCTION
000128:    6145           76314                           7        INDJUMP    -1                         #  TCF INDJUMP + OP, EDITING CYR.
000129:
000130:    6146           00006        IERASTST           EXTEND
000131:    6147           66157                           BZMF     GEADDR                                #  GO PROCESS GENERAL-ERASABLE ADDRESS.
000132:
000133:    6150           75003                           MASK     LOW10                                 #  FIXED BANK ADDRESS. RESTORE AND ADD B15.
000134:    6151           65003                           AD       LOW10                                 #  SWITCH BANKS AND LEAVE SUBADDRESS IN
000135:    6152           56116                           XCH      ADDRWD                                #  ADDRWD FOR OPERAND RETRIEVAL. (THIS
000136:    6153           60115                           AD       INTBIT15                              #  METHOD PRECLUDES USE OF THE LAST
000137:    6154           54004                           TS       FBANK                                 #  LOCATION IN EACH FBANK.)
000138:    6155           50020        ITR12              INDEX    CYR
000139:    6156           76314                           7        INDJUMP    -1
000140:
000141:    6157           74350        GEADDR             MASK     LOW8
000142:    6160           65000                           AD       OCT1400
000143:    6161           56116                           XCH      ADDRWD
000144:    6162           54003                           TS       EBANK
000145:    6163           50020        ITR10              INDEX    CYR
000146:    6164           76314                           7        INDJUMP    -1
000147:


000149:                                                                                                  #           THE FOLLOWING ROUTINE PROCESSES INTERPRETIVE INDEXED ADDRESSES. AN INTERPRETER INDEX REGISTER MAY
000150:                                                                                                  #  CONTAIN THE ADDRESS OF ANY ERASABLE REGISTER (0-42 BEING RELATIVE TO THE VAC AREA) OR ANY INTERPRETIVE PROGRAM
000151:                                                                                                  #  BANK, OR ANY INTEGER IN THAT RANGE.
000152:
000153:    6165           37754        DODLOAD*           CAF      DLOAD*                                #  STODL* COMES HERE TO PROCESS LOAD ADR.
000154:    6166           54020                           TS       CYR                                   #  (STOVL* ENTERS HERE).
000155:
000156:    6167           30120        INDEX              CA       FIXLOC                                #  SET UP INDEX LOCATION.
000157:    6170           54130                           TS       INDEXLOC
000158:    6171           24164                           INCR     LOC                                   #  (ADDRESS ALWAYS GIVEN).
000159:    6172           50164                           INDEX    LOC
000160:    6173           40000                           CS       0
000161:    6174           10000                           CCS      A                                     #  INDEX 2 IF ADDRESS STORED COMPLEMENTED.
000162:    6175           24130                           INCR     INDEXLOC
000163:    6176           16177                           NOOP
000164:
000165:    6177           54116                           TS       ADDRWD                                #  14 BIT ADDRESS TO ADDRWD.
000166:    6200           77763                           MASK     HIGH4                                 #  IF ADDRESS GREATER THAN 2K, ADD INTBIT15
000167:    6201           00006                           EXTEND
000168:    6202           16205                           BZF      INDEX2
000169:    6203           30115                           CA       INTBIT15
000170:    6204           26116                           ADS      ADDRWD
000171:
000172:    6205           50130        INDEX2             INDEX    INDEXLOC
000173:    6206           40046                           CS       X1
000174:    6207           26116                           ADS      ADDRWD                                #  DO AUGMENT, IGNORING AND CORRECTING OVF.
000175:
000176:    6210           77765                           MASK     HIGH9                                 #  SEE IF ADDRESS IS IN WORK AREA.
000177:    6211           00006                           EXTEND
000178:    6212           16225                           BZF      INDWORK
000179:    6213           77763                           MASK     HIGH4                                 #  SEE IF IN FIXED BANK.
000180:    6214           00006                           EXTEND
000181:    6215           16227                           BZF      INDERASE
000182:
000183:    6216           30116                           CA       ADDRWD                                #  IN FIXED - SWITCH BANKS AND CREATE
000184:    6217           54004                           TS       FBANK                                 #  SUB-ADDRESS.
000185:    6220           75003                           MASK     LOW10
000186:    6221           64732                           AD       2K
000187:    6222           54116                           TS       ADDRWD
000188:    6223           50020        ITR11              INDEX    CYR
000189:    6224           36314                           3        INDJUMP    -1
000190:
000191:    6225           30120        INDWORK            CA       FIXLOC                                #  MAKE ADDRWD RELATIVE TO WORK AREA.
000192:    6226           16233                           TCF      ITR13      -1
000193:
000194:    6227           35000        INDERASE           CA       OCT1400
000195:    6230           56116                           XCH      ADDRWD
000196:    6231           54003                           TS       EBANK
000197:    6232           74350                           MASK     LOW8
000198:    6233           26116                 -1        ADS      ADDRWD


000200:    6234           50020        ITR13              INDEX    CYR
000201:    6235           36314                           3        INDJUMP    -1
000202:


000204:                                                                                                  #           PUSH-UP ROUTINES. WHEN NO OPERAND ADDRESS IS GIVEN, THE APPROPRIATE OPERAND IS TAKEN FROM THE PUSH-DOWN
000205:                                                                                                  #  LIST. IN MOST CASES THE MODE OF THE RESULT (VECTOR OR SCALAR) OF THE LAST ARITHMETIC OPERATION PERFORMED
000206:                                                                                                  #  IS THE SAME AS THE TYPE OF OPERAND DESIRED (ALL ADD/SUBTRACT ETC.). EXCEPTIONS TO THIS GENERAL RULE ARE LISTED
000207:                                                                                                  #  BELOW (NOTE THAT IN EVERY CASE THE MODE REGISTER IS LEFT INTACT):
000208:
000209:                                                                                                  #           1.  VXSC AND V/SC WANT THE OPPOSITE TYPE OF OPERAND, E.G., IF THE LAST OPERATION YIELDED A VECTOR
000210:                                                                                                  #  RESULT, VXSC WANTS A SCALAR.
000211:
000212:                                                                                                  #           2.  THE LOAD CODES SHOULD LOAD THE ACCUMULATOR INDEPENDENT OF THE RESULT OF THE LAST OPERATION. THIS
000213:                                                                                                  #  INCLUDES VLOAD, DLOAD, TLOAD, PDDL, AND PDVL (NO PUSHUP WITH SLOAD).
000214:
000215:                                                                                                  #           3.  SOME ARITHMETIC OPERATIONS REQUIRE A STANDARD TYPE OF OPERAND REGARDLESS OF THE PREVIOUS OPERATION.
000216:                                                                                                  #  THIS INCLUDES SIGN WANTING DP AND TAD REQUIRING TP.
000217:
000218:    6236           34351        PUSHUP             CAF      OCT23                                 #  IF THE LOW 5 BITS OF CYR ARE LESS THAN
000219:    6237           70020                           MASK     CYR                                   #  20, THIS OP REQUIRES SPECIAL ATTENTION.
000220:    6240           66243                           AD       -OCT10                                #  (NO -0).
000221:    6241           10000                           CCS      A
000222:    6242           16254                           TCF      REGUP                                 #  FOR ALL CODES GREATER THAN OCT 7.
000223:
000224:    6243           77767        -OCT10             OCT      -10
000225:
000226:    6244           66133                           AD       NEG4                                  #  WE NOW HAVE 7 - OP CODE(MOD4). SEE IF
000227:    6245           10000                           CCS      A                                     #  THE OP CODE (MOD4) IS THREE (REVERSE).
000228:    6246           50000                           INDEX    A                                     #  NO - THE MODE IS DEFINITE. PICK UP THE
000229:    6247           46265                           CS       NO.WDS
000230:    6250           16256                           TCF      REGUP      +2
000231:
000232:    6251           50163                           INDEX    MODE                                  #  FOR VXSC AND V/SC WE WANT THE REQUIRED
000233:    6252           46263                           CS       REVCNT                                #  PUSHLOC DECREMENT WITHOUT CHANGING THE
000234:    6253           16256                           TCF      REGUP      +2                         #  MODE AT THIS TIME.
000235:
000236:    6254           50163        REGUP              INDEX    MODE                                  #  MOST ALL OP CODES PUSHUP HERE.
000237:    6255           46265                           CS       NO.WDS
000238:    6256           26166                 +2        ADS      PUSHLOC
000239:    6257           54116                           TS       ADDRWD
000240:    6260           50020        ITR14              INDEX    CYR
000241:    6261           76314                           7        INDJUMP    -1                         #  (THE INDEX MAKES THIS A TCF.)
000242:
000243:    6262           00002                           OCT      2                                     #  REVERSE PUSHUP DECREMENT. VECTOR TAKES 2
000244:    6263           00006        REVCNT             OCT      6                                     #  WORDS, SCALAR TAKES 6.
000245:    6264           00006                           OCT      6
000246:    6265           00002        NO.WDS             OCT      2                                     #  CONVENTIONAL DECREMENT IS 6 WORDS VECTOR
000247:    6266           00003        OCTAL3             OCT      3                                     #  2 IN DP, AND 3 IN TP.
000248:    6267           00006                           OCT      6
000249:


000251:                                                                                                  #           TEST THE SECOND PREFIX BIT TO SEE IF THIS IS A MISCELLANEOUS OR A UNARY/SHORT SHIFT OPERATION.
000252:
000253:    6270           10020        OPJUMP2            CCS      CYR                                   #  TEST SECOND PREFIX BIT.
000254:    6271           16304                           TCF      OPJUMP3                               #  TEST THIRD BIT TO SEE IF UNARY OR SHIFT.
000255:
000256:    6272           77722        -ENDVAC            DEC      -45        B-14
000257:
000258:                                                                                                  #           THE FOLLOWING ROUTINE PROCESSES ADDRESSES OF SUFFIX CLASS 10. THEY ARE BASICALLY WORK AREA ADDRESSES
000259:                                                                                                  #  IN THE RANGE 0 - 52, ERASABLE ECADR CONSTANTS FROM 100 - 3777, AND FCADRS ABOVE THAT. ALL 15 BITS ARE AVAILABLE
000260:                                                                                                  #  IN CONTRAST TO SUFFIX 1, IN WHICH ONLY THE LOW ORDER 14 ARE AVAILABLE.
000261:
000262:    6273           24164        15BITADR           INCR     LOC                                   #  (ENTRY HERE FROM STCALL).
000263:    6274           50164                           INDEX    LOC                                   #  PICK UP ADDRESS WORD.
000264:    6275           30000                           CA       0
000265:    6276           54117                           TS       POLISH                                #  WE MAY NEED A SUBADDRESS LATER.
000266:
000267:    6277           35004                           CAF      LOW7+2K                               #  THESE INSTRUCTIONS ARE IN BANK 1.
000268:    6300           54004                           TS       FBANK
000269:    6301           70020                           MASK     CYR
000270:    6302           50000        ITR7               INDEX    A
000271:    6303           16355                           TCF      MISCJUMP
000272:


000274:                                                                                                  #           COMPLETE THE DISPATCHING OF UNARY AND SHORT SHIFT OPERATIONS.
000275:
000276:    6304           54004        OPJUMP3            TS       FBANK                                 #  CALL IN BANK 0 (BITS 11-15 OF A ARE 0.)
000277:                                                                                                  #           ITRACE (6) REFERS TO "OPJUMP3".
000278:    6305           10020                           CCS      CYR                                   #  TEST THIRD PREFIX BIT.
000279:    6306           50000                           INDEX    A                                     #  THE DECREMENTED UNARY CODE IS IN BITS
000280:    6307           12000                           TCF      UNAJUMP                               #  1-4 OF A (ZERO, EXIT, HAS BEEN DETECTED)
000281:
000282:    6310           10163                           CCS      MODE                                  #  ITS A SHORT SHIFT CODE. SEE IF PRESENT
000283:    6311           12017                           TCF      SHORTT                                #  SCALAR OR VECTOR.
000284:    6312           12017                           TCF      SHORTT
000285:    6313           12121                           TCF      SHORTV                                #  CALLS THE APPROPRIATE ROUTINE.
000286:
000287:    6314     4341               FBANKMSK           EQUALS   BANKMASK
000288:    6314           00122        LVBUF              ADRES    VBUF
000289:


000291:                                                                                                  #           THE FOLLOWING IS THE JUMP TABLE FOR OP CODES WHICH MAY HAVE INDEXABLE ADDRESSES OR MAY PUSH UP.
000292:
000293:    6315           16526        INDJUMP            TCF      VLOAD                                 #  00 - LOAD MPAC WITH A VECTOR.
000294:    6316           17112                           TCF      TAD                                   #  01 - TRIPLE PRECISION ADD TO MPAC.
000295:    6317           17676                           TCF      SIGN                                  #  02 - COMPLEMENT MPAC (V OR SC) IF X NEG.
000296:    6320           17422                           TCF      VXSC                                  #  03 - VECTOR TIMES SCALAR.
000297:    6321           16724                           TCF      CGOTO                                 #  04 - COMPUTED GO TO.
000298:    6322           16511                           TCF      TLOAD                                 #  05 - LOAD MPAC WITH TRIPLE PRECISION.
000299:    6323           16073                           TCF      DLOAD                                 #  06 - LOAD MPAC WITH A DP SCALAR.
000300:    6324           17645                           TCF      V/SC                                  #  07 - VECTOR DIVIDED BY SCALAR.
000301:
000302:    6325           16522                           TCF      SLOAD                                 #  10 - LOAD MPAC IN SINGLE PRECISION.
000303:    6326           16641                           TCF      SSP                                   #  11 - SET SINGLE PRECISION INTO X.
000304:    6327           16544                           TCF      PDDL                                  #  12 - PUSH DOWN MPAC AND RE-LOAD IN DP.
000305:    6330           17355                           TCF      MXV                                   #  13 - MATRIX POST-MULTIPLIED BY VECTOR.
000306:    6331           16600                           TCF      PDVL                                  #  14 - PUSH DOWN AND VECTOR LOAD.
000307:    6332           16647                           TCF      CCALL                                 #  15 - COMPUTED CALL.
000308:    6333           17360                           TCF      VXM                                   #  16 - MATRIX PRE-MULTIPLIED BY VECTOR.
000309:    6334           17637                           TCF      TSLC                                  #  17 - NORMALIZE MPAC (SCALAR ONLY).
000310:
000311:    6335           17615                           TCF      DMPR                                  #  20 - DP MULTIPLY AND ROUND.
000312:    6336           17620                           TCF      DDV                                   #  21 - DP DIVIDE BY.
000313:    6337           17624                           TCF      BDDV                                  #  22 - DP DIVIDE INTO.
000314:    6340           17642                           TCF      GSHIFT                                #  23 - GENERAL SHIFT INSTRUCTION.
000315:    6341           16772                           TCF      VAD                                   #  24 - VECTOR ADD.
000316:    6342           16770                           TCF      VSU                                   #  25 - VECTOR SUBTRACT.
000317:    6343           17057                           TCF      BVSU                                  #  26 - VECTOR SUBTRACT FROM.
000318:    6344           17352                           TCF      DOT                                   #  27 - VECTOR DOT PRODUCT.
000319:
000320:    6345           17501                           TCF      VXV                                   #  30 - VECTOR CROSS PRODUCT.
000321:    6346           17446                           TCF      VPROJ                                 #  31 - VECTOR PROJECTION.
000322:    6347           17026                           TCF      DSU                                   #  32 - DP SUBTRACT.
000323:    6350           17103                           TCF      BDSU                                  #  33 - DP SUBTRACT FROM.
000324:    6351           17016                           TCF      DAD                                   #  34 - DP ADD.
000325:    6352           16352                           TCF      +0                                    #  35 - AVAILABLE
000326:    6353           17613                           TCF      DMP1                                  #  36 - DP MULTIPLY.
000327:    6354           17634                           TCF      SETPD                                 #  37 - SET PUSH DOWN POINTER (DIRECT ONLY)
000328:
000329:                                                                                                  #  CODES 10 AND 14 MUST NOT PUSH UP. CODE 04 MAY BE USED FOR VECTOR DECLARE BEFORE PUSHUP IF DESIRED.
000330:


000332:                                                                                                  #           THE FOLLOWING JUMP TABLE APPLIES TO INDEX, BRANCH, AND MISCELLANEOUS INSTRUCTIONS.
000333:
000334:    6355           12350        MISCJUMP           TCF      AXT                                   #  00 - ADDRESS TO INDEX TRUE.
000335:    6356           12355                           TCF      AXC                                   #  01 - ADDRESS TO INDEX COMPLEMENTED.
000336:    6357           12360                           TCF      LXA                                   #  02 - LOAD INDEX FROM ERASABLE.
000337:    6360           12364                           TCF      LXC                                   #  03 - LOAD INDEX FROM COMPLEMENT OF ERAS.
000338:    6361           12370                           TCF      SXA                                   #  04 - STORE INDEX IN ERASABLE.
000339:    6362           12376                           TCF      XCHX                                  #  05 - EXCHANGE INDEX WITH ERASABLE.
000340:    6363           12412                           TCF      INCR                                  #  06 - INCREMENT INDEX REGISTER.
000341:    6364           12421                           TCF      TIX                                   #  07 - TRANSFER ON INDEX.
000342:
000343:    6365           12404                           TCF      XAD                                   #  10 - INDEX REGISTER ADD FROM ERASABLE.
000344:    6366           12415                           TCF      XSU                                   #  11 - INDEX SUBTRACT FROM ERASABLE.
000345:    6367           12473                           TCF      BZE/GOTO                              #  12 - BRANCH ZERO AND GOTO.
000346:    6370           12500                           TCF      BPL/BMN                               #  13 - BRANCH PLUS AND BRANCH MINUS.
000347:    6371           12453                           TCF      RTB/BHIZ                              #  14 - RETURN TO BASIC AND BRANCH HI ZERO.
000348:    6372           12513                           TCF      CALL/ITA                              #  15 - CALL AND STORE QPRET.
000349:    6373           12522                           TCF      SW/                                   #  16 - SWITCH INSTRUCTIONS AND AVAILABLE.
000350:    6374           12463                           TCF      BOV(B)                                #  17 - BRANCH ON OVERFLOW TO BASIC OR INT.
000351:


000353:                                                                                                  #           THE FOLLOWING JUMP TABLE APPIES TO UNARY INSTRUCTIONS.
000354:
000355:    6375                                           COUNT*   $$/INTER
000356: 00,2000                                           BANK     0                                     #  00 - EXIT - DETECTED EARLIER.
000357: 00,2000           13207        UNAJUMP            TCF      SQRT                                  #  01 - SQUARE ROOT.
000358: 00,2001           13530                           TCF      SINE                                  #  02 - SIN.
000359: 00,2002           13517                           TCF      COSINE                                #  03 - COS.
000360: 00,2003           13610                           TCF      ARCSIN                                #  04 - ARC SIN.
000361: 00,2004           13612                           TCF      ARCCOS                                #  05 - ARC COS.
000362: 00,2005           13174                           TCF      DSQ                                   #  06 - DP SQUARE.
000363: 00,2006           12116                           TCF      ROUND                                 #  07 - ROUND TO DP.
000364:
000365: 00,2007           17711                           TCF      COMP                                  #  10 - COMPLEMENT VECTOR OR SCALAR.
000366: 00,2010           13232                           TCF      VDEF                                  #  11 - VECTOR DEFINE.
000367: 00,2011           13023                           TCF      UNIT                                  #  12 - UNIT VECTOR.
000368: 00,2012           13176                           TCF      ABVALABS                              #  13 - LENGTH OF VECTOR OR MAG OF SCALAR.
000369: 00,2013           13245                           TCF      VSQ                                   #  14 - SQUARE OF LENGTH OF VECTOR.
000370: 00,2014           16375                           TCF      STADR                                 #  15 - PUSH UP ON STORE CODE.
000371: 00,2015           13274                           TCF      RVQ                                   #  16 - RETURN VIA QPRET.
000372: 00,2016           13247                           TCF      PUSH                                  #  17 - PUSH MPAC DOWN.
000373:


000375:                                                                                                  #  SECTION 2  LOAD AND STORE PACKAGE.
000376:
000377:                                                                                                  #           A SET OF EIGHT STORE CODES IS PROVIDED AS THE PRIMARY METHOD OF STORING THE MULTI-PURPOSE
000378:                                                                                                  #  ACCUMULATOR (MPAC). IF IN THE DANZIG SECTION LOC REFERS TO AN ALGEBRAICALLY POSITIVE WORD, IT IS TAKEN AS A
000379:                                                                                                  #  STORE CODE WITH A CORRESPONDING ERASABLE ADDRESS. MOST OF THESE CODES ARE TWO ADDRESS, SPECIFYING THAT THE WORD
000380:                                                                                                  #  FOLLOWING THE STORE CODE IS TO BE USED AS AN ADDRESS FROM WHICH TO RE-LOAD MPAC. FOUR OPTIONS ARE AVAILABLE:
000381:
000382:                                                                                                  #           1. STORE               STORE MPAC. THE E ADDRESS MAY BE INDEXED.
000383:                                                                                                  #           2. STODL               STORE MPAC AND RE-LOAD IT IN DP WITH THE NEXT ADDRESS (THE LOAD MAY BE INDEXED).
000384:                                                                                                  #           3. STOVL               STORE MPAC AND RE-LOAD A VECTOR (AS ABOVE).
000385:                                                                                                  #           4. STCALL              STORE AND DO A CALL (BOTH ADDRESSES MUST BE DIRECT HERE).
000386:
000387:                                                                                                  #           STODL AND STOVL WILL TAKE FROM THE PUSH-DOWN LIST IF NO LOAD ADDRESS IS GIVEN.
000388:
000389:    6375                                           BLOCK    3
000390:
000391:    6375                                           COUNT*   $$/INTER
000392:    6375           30165        STADR              CA       BANKSET                               #  THE STADR CODE (PUSHUP UP ON STORE
000393:    6376           54004                           TS       FBANK                                 #  ADDRESS) ENTERS HERE.
000394:    6377           24164                           INCR     LOC
000395:    6400           50164        ITR1               INDEX    LOC                                   #  THE STORECODE WAS STORED COMPLEMENTED TO
000396:    6401           40000                           CS       0                                     #  MAKE IT LOOK LIKE AN OPCODE PAIR.
000397:    6402           67770                           AD       NEGONE                                #  (YUL CANT REMOVE 1 BECAUSE OF EARLY CCS)
000398:
000399:    6403           54116        DOSTORE            TS       ADDRWD
000400:    6404           74347                           MASK     LOW11                                 #  ENTRY FROM DISPATCHER. SAVE THE ERASABLE
000401:    6405           56116                           XCH      ADDRWD                                #  ADDRESS AND JUMP ON THE STORE CODE NO.
000402:    6406           77743                           MASK     B12T14
000403:    6407           00006                           EXTEND
000404:    6410           74740                           MP       BIT5                                  #  EACH TRANSFER VECTOR ENTRY IS TWO WORDS.
000405:    6411           50000        ITR0               INDEX    A
000406:    6412           16413                           TCF      STORJUMP
000407:


000409:                                                                                                  #           STORE CODE JUMP TABLE. CALLS THE APPROPRIATE STORING ROUTINE AND EXITS TO DANZIG OR TO ADDRESS WITH
000410:                                                                                                  #  A SUPPLIED OPERATION CODE.
000411:
000412:                                                                                                  #           STORE STORE,1 AND STORE,2 RETURN TO DANZIG, THUS RESETTING THE EBANK TO ITS STATE AT INTPRET.
000413:
000414:    6413           06443        STORJUMP           TC       STORE                                 #  STORE.
000415:    6414           16102                           TCF      DANZIG                                #  PICK UP NEW OP CODE(S).
000416:    6415           06435                           TC       STORE,1
000417:    6416           16102                           TCF      DANZIG
000418:    6417           06440                           TC       STORE,2
000419:    6420           16102                           TCF      DANZIG
000420:
000421:    6421           06443                           TC       STORE                                 #  STODL.
000422:    6422           16501                           TCF      DODLOAD
000423:
000424:    6423           06443                           TC       STORE                                 #  STODL WITH INDEXED LOAD ADDRESS.
000425:    6424           16165                           TCF      DODLOAD*
000426:
000427:    6425           06443                           TC       STORE                                 #  STOVL.
000428:    6426           16504                           TCF      DOVLOAD
000429:
000430:    6427           06443                           TC       STORE                                 #  STOVL WITH INDEXED LOAD ADDRESS.
000431:    6430           16507                           TCF      DOVLOAD*
000432:    6431           06443                           TC       STORE                                 #  STOTC.
000433:    6432           34757                           CAF      CALLCODE
000434:    6433           54020                           TS       CYR
000435:    6434           16273                           TCF      15BITADR                              #  GET A 15 BIT ADDRESS.
000436:


000438:                                                                                                  #           STORE CODE ADDRESS PROCESSOR.
000439:
000440:    6435           50120        STORE,1            INDEX    FIXLOC
000441:    6436           40046                           CS       X1
000442:    6437           16442                           TCF      PRESTORE
000443:
000444:    6440           50120        STORE,2            INDEX    FIXLOC
000445:    6441           40047                           CS       X2
000446:    6442           26116        PRESTORE           ADS      ADDRWD                                #  RESULTANT ADDRESS IS IN ERASABLE.
000447:
000448:    6443           40116        STORE              CS       ADDRWD
000449:    6444           64763                           AD       DEC45
000450:    6445           10000                           CCS      A                                     #  DOES THE ADDRESS POINT TO THE WORK AREA?
000451:    6446           30120                           CA       FIXLOC                                #  YES.
000452:    6447           16454                           TCF      AHEAD5
000453:    6450           35000                           CA       OCT1400                               #  NO.  SET EBANK & MAKE UP SUBADDRESS.
000454:    6451           56116                           XCH      ADDRWD
000455:    6452           54003                           TS       EBANK
000456:    6453           74350                           MASK     LOW8
000457:    6454           26116        AHEAD5             ADS      ADDRWD
000458:


000460:                                                                                                  #           STORING ROUTINES. STORE DP, TP, OR VECTOR AS INDICATED BY MODE.
000461:
000462:    6455           00006        STARTSTO           EXTEND                                         #  MPAC,+1 MUST BE STORED IN ANY EVENT.
000463:                                                                                                  #           ITRACE (5) REFERS TO "STARTSTO".
000464:    6456           30155                           DCA      MPAC
000465:    6457           50116                           INDEX    ADDRWD
000466:    6460           52001                           DXCH     0
000467:
000468:    6461           10163                           CCS      MODE
000469:    6462           16475                           TCF      TSTORE
000470:    6463           00002                           TC       Q
000471:
000472:    6464           00006        VSTORE             EXTEND
000473:    6465           30160                           DCA      MPAC       +3
000474:    6466           50116                           INDEX    ADDRWD
000475:    6467           52003                           DXCH     2
000476:
000477:    6470           00006                           EXTEND
000478:    6471           30162                           DCA      MPAC       +5
000479:    6472           50116                           INDEX    ADDRWD
000480:    6473           52005                           DXCH     4
000481:    6474           00002                           TC       Q
000482:
000483:    6475           30156        TSTORE             CA       MPAC       +2
000484:    6476           50116                           INDEX    ADDRWD
000485:    6477           54002                           TS       2
000486:    6500           00002                           TC       Q
000487:


000489:                                                                                                  #           ROUTINES TO BEGIN PROCESSING OF THE SECOND ADDRESS ASSOCIATED WITH ALL STORE-TYPE CODES EXCEPT STORE
000490:                                                                                                  #  ITSELF.
000491:
000492:    6501           37753        DODLOAD            CAF      DLOADCOD
000493:    6502           54020                           TS       CYR
000494:    6503           16127                           TCF      DIRADRES                              #  GO GET A DIRECT ADDRESS.
000495:
000496:    6504           34726        DOVLOAD            CAF      VLOADCOD
000497:    6505           54020                           TS       CYR
000498:    6506           16127                           TCF      DIRADRES
000499:
000500:    6507           36130        DOVLOAD*           CAF      VLOAD*
000501:    6510           16166                           TCF      DODLOAD*   +1                         #  PROLOGUE TO INDEX ROUTINE.
000502:


000504:                                                                                                  #           THE FOLLOWING LOAD INSTRUCTIONS ARE PROVIDED FOR LOADING THE MULTI-PURPOSE ACCUMULATOR MPAC.
000505:
000506:    6511           50116        TLOAD              INDEX    ADDRWD
000507:    6512           30002                           CA       2                                     #  LOAD A TRIPLE PRECISION ARGUMENT INTO
000508:    6513           54156                           TS       MPAC       +2                         #  THE FIRST THREE MPAC REGISTERS, WITH THE
000509:    6514           00006                           EXTEND                                         #  CONTENTS OF THE OTHER FOUR IRRELEVANT.
000510:    6515           50116                           INDEX    ADDRWD
000511:    6516           30001                           DCA      0
000512:    6517           52155                           DXCH     MPAC
000513:    6520           34744        TMODE              CAF      ONE
000514:    6521           16101                           TCF      NEWMODE                               #  DECLARE TRIPLE PRECISION MODE.
000515:
000516:    6522           22007        SLOAD              ZL                                             #  LOAD A SINGLE PRECISION NUMBER INTO
000517:    6523           50116                           INDEX    ADDRWD                                #  MPAC, SETTING MPAC+1,2 TO ZERO. THE
000518:    6524           30000                           CA       0                                     #  CONTENTS OF THE REMAINING MPAC REGISTERS
000519:    6525           16076                           TCF      SLOAD2                                #  ARE IRRELEVANT.
000520:
000521:    6526           00006        VLOAD              EXTEND                                         #  LOAD A DOUBLE PRECISION VECTOR INTO
000522:    6527           50116                           INDEX    ADDRWD                                #  MPAC,+1, MPAC+3,4, AND MPAC+5,6. THE
000523:    6530           30001                           DCA      0                                     #  CONTENTS OF MPAC +2 ARE IRRELEVANT.
000524:    6531           52155                           DXCH     MPAC
000525:
000526:    6532           00006        ENDVLOAD           EXTEND                                         #  PDVL COMES HERE TO FINISH UP FOR DP, TP.
000527:    6533           50116                           INDEX    ADDRWD
000528:    6534           30003                           DCA      2
000529:    6535           52160                           DXCH     MPAC       +3
000530:
000531:    6536           00006                 +4        EXTEND                                         #  TPDVL FINISHES HERE.
000532:    6537           50116                           INDEX    ADDRWD
000533:    6540           30005                           DCA      4
000534:    6541           52162                           DXCH     MPAC       +5
000535:
000536:    6542           44744        VMODE              CS       ONE                                   #  DECLARE VECTOR MODE.
000537:    6543           16101                           TCF      NEWMODE
000538:


000540:                                                                                                  #           THE FOLLOWING INSTRUCTIONS ARE PROVIDED FOR STORING OPERANDS IN THE PUSHDOWN LIST:
000541:                                                                                                  #           1.  PUSH               PUSHDOWN AND NO LOAD.
000542:                                                                                                  #           2.  PDDL               PUSHDOWN AND DOUBLE PRECISION LOAD.
000543:                                                                                                  #           3.  PDVL               PUSHDOWN AND VECTOR LOAD.
000544:
000545:    6544           00006        PDDL               EXTEND
000546:    6545           50116                           INDEX    ADDRWD                                #  LOAD MPAC,+1, PUSHING THE FORMER
000547:    6546           30001                           DCA      0                                     #  CONTENTS DOWN.
000548:    6547           52155                           DXCH     MPAC
000549:    6550           50166                           INDEX    PUSHLOC
000550:    6551           52001                           DXCH     0
000551:
000552:    6552           50163                           INDEX    MODE                                  #  ADVANCE THE PUSHDOWN POINTER APPRO-
000553:    6553           36265                           CAF      NO.WDS                                #  PRIATELY.
000554:    6554           26166                           ADS      PUSHLOC
000555:
000556:    6555           10163                           CCS      MODE
000557:    6556           16573                           TCF      ENDTPUSH
000558:    6557           16571                           TCF      ENDDPUSH
000559:
000560:    6560           54163                           TS       MODE                                  #  NOW DP.
000561:    6561           54156        ENDVPUSH           TS       MPAC       +2
000562:    6562           52160                           DXCH     MPAC       +3                         #  PUSH DOWN THE REST OF THE VECTOR HERE.
000563:    6563           50166                           INDEX    PUSHLOC
000564:    6564           51775                           DXCH     0          -4
000565:
000566:    6565           52162                           DXCH     MPAC       +5
000567:    6566           50166                           INDEX    PUSHLOC
000568:    6567           51777                           DXCH     0          -2
000569:
000570:    6570           16102                           TCF      DANZIG
000571:
000572:    6571           54156        ENDDPUSH           TS       MPAC       +2                         #  SET MPAC +2 TO ZERO AND EXIT ON DP.
000573:    6572           16102                           TCF      DANZIG
000574:
000575:    6573           54163        ENDTPUSH           TS       MODE
000576:    6574           56156                           XCH      MPAC       +2                         #  ON TRIPLE, SET MPAC +2 TO ZERO, PUSHING
000577:    6575           50166                 +2        INDEX    PUSHLOC                               #  DOWN THE OLD CONTENTS
000578:    6576           53777                           TS       0          -1
000579:    6577           16102                           TCF      DANZIG
000580:


000582:                                                                                                  #           PDVL - PUSHDOWN AND VECTOR LOAD.
000583:
000584:    6600           00006        PDVL               EXTEND                                         #  RELOAD MPAC AND PUSH DOWN ITS CONTENTS.
000585:    6601           50116                           INDEX    ADDRWD
000586:    6602           30001                           DCA      0
000587:    6603           52155                           DXCH     MPAC
000588:    6604           50166                           INDEX    PUSHLOC
000589:    6605           52001                           DXCH     0
000590:
000591:    6606           50163                           INDEX    MODE                                  #  ADVANCE THE PUSHDOWN POINTER.
000592:    6607           36265                           CAF      NO.WDS
000593:    6610           26166                           ADS      PUSHLOC
000594:
000595:    6611           10163                           CCS      MODE                                  #  TEST PAST MODE.
000596:    6612           16631                           TCF      TPDVL
000597:    6613           16532                           TCF      ENDVLOAD                              #  JUST LOAD LAST FOUR REGISTERS ON DP.
000598:
000599:    6614           00006        VPDVL              EXTEND                                         #  PUSHDOWN AND RE-LOAD LAST TWO COMPONENTS
000600:    6615           50116                           INDEX    ADDRWD
000601:    6616           30003                           DCA      2
000602:    6617           52160                           DXCH     MPAC       +3
000603:    6620           50166                           INDEX    PUSHLOC
000604:    6621           51775                           DXCH     0          -4
000605:
000606:    6622           00006                           EXTEND
000607:    6623           50116                           INDEX    ADDRWD
000608:    6624           30005                           DCA      4
000609:    6625           52162                           DXCH     MPAC       +5
000610:    6626           50166                           INDEX    PUSHLOC
000611:    6627           51777                           DXCH     0          -2
000612:
000613:    6630           16102                           TCF      DANZIG
000614:
000615:    6631           00006        TPDVL              EXTEND                                         #  ON TP, WE MUST LOAD THE Y COMPONENT
000616:    6632           50116                           INDEX    ADDRWD                                #  BEFORE STORING MPAC +2 INCASE THIS IS A
000617:    6633           30003                           DCA      2                                     #  PUSHUP.
000618:    6634           52160                           DXCH     MPAC       +3
000619:
000620:    6635           30156                           CA       MPAC       +2
000621:    6636           50166                           INDEX    PUSHLOC                               #  IN DP.
000622:    6637           53777                           TS       0          -1
000623:    6640           16536                           TCF      ENDVLOAD   +4
000624:
000625:                                                                                                  #           SSP (STORE SINGLE PRECISION) IS EXECUTED HERE.
000626:
000627:    6641           24164        SSP                INCR     LOC                                   #  PICK UP THE WORD FOLLOWING THE GIVEN
000628:    6642           50164                           INDEX    LOC                                   #  ADDRESS AND STORE IT AT X.
000629:    6643           30000                           CA       0
000630:    6644           50116        STORE1             INDEX    ADDRWD                                #  SOME INDEX AND MISCELLANEOUS OPS END
000631:    6645           54000                           TS       0                                     #  HERE.


000633:    6646           16102                           TCF      DANZIG
000634:


000636:                                                                                                  #  SEQUENCE CHANGING AND SUBROUTINE CALLING OPTIONS.
000637:
000638:                                                                                                  #           THE FOLLOWING OPERATIONS ARE AVAILABLE FOR SEQUENCING CHANGING, BRANCHING, AND CALLING SUBROUTINES:
000639:
000640:                                                                                                  #           1.  GOTO               GO TO.
000641:                                                                                                  #           2.  CALL               CALL SUBROUTINE SETTING QPRET.
000642:                                                                                                  #           3.  CGOTO              COMPUTED GO TO.
000643:                                                                                                  #           4.  CCALL              COMPUTED CALL.
000644:                                                                                                  #           7.  BPL                BRANCH IF MPAC POSITIVE OR ZERO.
000645:                                                                                                  #           8.  BZE                BRANCH IF MPAC ZERO.
000646:                                                                                                  #           9.  BMN                BRANCH IF MPAC NEGATIVE NON-ZERO.
000647:
000648:    6647           24164        CCALL              INCR     LOC                                   #  MAINTAIN LOC FOR QPRET COMPUTATION.
000649:    6650           50164                           INDEX    LOC
000650:    6651           30000                           CAF      0                                     #  GET BASE ADDRESS OF CADR LIST.
000651:    6652           50116                           INDEX    ADDRWD
000652:    6653           60000                           AD       0                                     #  ADD INCREMENT.
000653:    6654           54004                           TS       FBANK                                 #  SELECT DESIRED CADR.
000654:    6655           75003                           MASK     LOW10
000655:    6656           50000                           INDEX    A
000656:    6657           32000                           CAF      10000
000657:    6660           54117                           TS       POLISH
000658:
000659:    6661           30165        CALL               CA       BANKSET                               #  FOR ANY OF THE CALL OPTIONS, MAKE UP THE
000660:    6662           74341                           MASK     BANKMASK                              #  ADDRESS OF THE NEXT OP-CODE PAIR/STORE
000661:    6663           64341                           AD       BANKMASK                              #  CODE AND LEAVE IT IN QPRET.  NOTE THAT
000662:    6664           60164                           AD       LOC                                   #  BANKMASK = -(2000 - 1).
000663:    6665           50120                           INDEX    FIXLOC
000664:    6666           54052                           TS       QPRET
000665:
000666:    6667           30117        GOTO               CA       POLISH                                #  BASIC BRANCHING SEQUENCE.
000667:    6670           77763                 +1        MASK     HIGH4
000668:    6671           00006                           EXTEND
000669:    6672           16703                           BZF      GOTOERS                               #  SEE IF ADDRESS POINTS TO FIXED OR ERAS.
000670:    6673           30165                 +4        CA       BANKSET                               #  SET EBANK PART OF BBANK. NEXT, SET UP
000671:    6674           54006                           TS       BBANK                                 #  FBANK. THE COMBINATION IS PICKED UP &
000672:    6675           30117                           CA       POLISH                                #  PUT INTO BANKSET AT INTPRET +2.
000673:    6676           54004                           TS       FBANK
000674:    6677           75003                           MASK     LOW10
000675:    6700           64732                           AD       2K
000676:    6701           54164                           TS       LOC
000677:    6702           16063                           TCF      INTPRET    +3
000678:
000679:    6703  E3,1400                                  EBANK=   1400                                  #  SO YUL DOESN'T CUSS THE "CA 1400" BELOW.
000680:
000681:    6703           30117        GOTOERS            CA       POLISH                                #  THE GIVEN ADDRESS IS IN ERASABLE - SEE
000682:    6704           66272                           AD       -ENDVAC                               #  IF RELATIVE TO THE WORK AREA.
000683:    6705           10000                           CCS      A
000684:    6706           30117                           CA       POLISH                                #  GENERAL ERASABLE.
000685:    6707           16716                           TCF      GOTOGE
000686:


000688:    6710           30120                           CA       FIXLOC                                #  WORK AREA.
000689:    6711           60117                           AD       POLISH
000690:    6712           50000                           INDEX    A                                     #  USE THE GIVEN ADDRESS AS THE ADDRESS OF
000691:    6713           30000                           CA       0                                     #  THE BRANCH ADDRESS.
000692:    6714           54117                           TS       POLISH
000693:    6715           16670                           TCF      GOTO       +1                         #  ALLOWS ARBITRARY INDIRECTNESS LEVELS.
000694:
000695:    6716           54003        GOTOGE             TS       EBANK
000696:    6717           74350                           MASK     LOW8
000697:    6720           50000                           INDEX    A                                     #  USE THE GIVEN ADDRESS AS THE ADDRESS OF
000698:    6721           31400                           CA       1400                                  #  THE BRANCH ADDRESS.
000699:    6722           54117                           TS       POLISH
000700:    6723           16670                           TCF      GOTO       +1
000701:
000702:    6724           50164        CGOTO              INDEX    LOC                                   #  COMPUTED GO TO. PICK UP ADDRESS OF CADR
000703:    6725           30001                           CA       1                                     #  LIST.
000704:    6726           50116                           INDEX    ADDRWD                                #  ADD MODIFIER.
000705:    6727           60000                           AD       0
000706:    6730           54004                           TS       FBANK                                 #  SELECT GOTO ADDRESS.
000707:    6731           75003                           MASK     LOW10
000708:    6732           50000                           INDEX    A
000709:    6733           32000                           CA       10000
000710:    6734           54117                           TS       POLISH
000711:    6735           16670                           TCF      GOTO       +1                         #  WITH ADDRESS IN A.
000712:
000713:    6736           30165        SWBRANCH           CA       BANKSET                               #  SWITCH INSTRUCTIONS WHICH ELECT TO
000714:    6737           54004                           TS       FBANK                                 #  BRANCH COME HERE TO DO SO.
000715:    6740           50164                           INDEX    LOC
000716:    6741           30001                           CA       1
000717:    6742           54117                           TS       POLISH
000718:    6743           16670                           TCF      GOTO       +1
000719:


000721:                                                                                                  #           TRIPLE PRECISION BRANCHING ROUTINE. IF CALLING TC IS AT L, RETURN IS AS FOLLOWS:
000722:
000723:                                                                                                  #           L+1  IF MPAC IS GREATER THAN ZERO.
000724:                                                                                                  #           L+2  IF MPAC IS EQUAL TO +0 OR -0.
000725:                                                                                                  #           L+3  IF MPAC IS LESS THAN ZERO.
000726:
000727:    6744           10154        BRANCH             CCS      MPAC
000728:    6745           00002                           TC       Q
000729:    6746           16750                           TCF      +2                                    #  ON ZERO.
000730:    6747           16762                           TCF      NEG
000731:
000732:    6750           10155                           CCS      MPAC       +1
000733:    6751           00002                           TC       Q
000734:    6752           16754                           TCF      +2
000735:    6753           16762                           TCF      NEG
000736:
000737:    6754           10156                           CCS      MPAC       +2
000738:    6755           00002                           TC       Q
000739:    6756           16760                           TCF      +2
000740:    6757           16762                           TCF      NEG
000741:
000742:    6760           50002        Q+1                INDEX    Q
000743:    6761           00001                           TC       1
000744:
000745:    6762           50002        NEG                INDEX    Q                                     #  IF FIRST NON-ZERO REGISTER WAS NEGATIVE.
000746:    6763           00002                           TC       2
000747:
000748:
000749:    6764     6762               Q+2                =        NEG
000750:
000751:                                                                                                  #           ITRACE (3) REFERS TO "EXIT".
000752:    6764           30165        EXIT               CA       BANKSET                               #  RESTORE USER'S BANK SETTING, AND LEAVE
000753:    6765           54006                           TS       BBANK                                 #  INTERPRETIVE MODE.
000754:    6766           50164                           INDEX    LOC
000755:    6767           00001                           TC       1
000756:


000758:                                                                                                  #  SECTION 3 - ADD/SUBTRACT PACKAGE.
000759:
000760:                                                                                                  #           THE FOLLOWING OPERATIONS ARE PROVIDED FOR ADDING TO AND SUBTRACTING FROM THE MULTI-PURPOSE ACCUMULATOR
000761:                                                                                                  #  MPAC:
000762:
000763:                                                                                                  #           1.  DAD                DOUBLE PRECISION ADD.
000764:                                                                                                  #           2.  DSU                DOUBLE PRECISION SUBTRACT.
000765:                                                                                                  #           3.  BDSU               DOUBLE PRECISION SUBTRACT FROM.
000766:
000767:                                                                                                  #           4.  TAD                TRIPLE PRECISION ADD.
000768:
000769:                                                                                                  #           5.  VAD                VECTOR ADD.
000770:                                                                                                  #           6.  VSU                VECTOR SUBTRACT.
000771:                                                                                                  #           7.  BVSU               VECTOR SUBTRACT FROM.
000772:
000773:                                                                                                  #  THE INTERPRETIVE OVERFLOW INDICATOR OVFIND IS SET NON-ZERO IF OVERFLOW OCCURS IN ANY OF THE ABOVE.
000774:
000775:    6770           34726        VSU                CAF      BIT15                                 #  CHANGES 0 TO DCS.
000776:    6771           16773                           TCF      +2
000777:
000778:    6772           34346        VAD                CAF      PRIO30                                #  CHANGES 0 TO DCA.
000779:    6773           26116                           ADS      ADDRWD
000780:    6774           00006                           EXTEND
000781:    6775           50116                           INDEX    ADDRWD
000782:    6776           00003                           READ     HISCALAR                              #  DCA  2   OR   DCS  2
000783:    6777           20160                           DAS      MPAC       +3
000784:    7000           00006                           EXTEND                                         #  CHECK OVERFLOW.
000785:    7001           17003                           BZF      +2
000786:    7002           07035                           TC       OVERFLWY
000787:
000788:    7003           00006                           EXTEND
000789:    7004           50116                           INDEX    ADDRWD
000790:    7005           00005                           READ     CHAN5                                 #  DCA  4  OR  DCS  4
000791:    7006           20162                           DAS      MPAC       +5
000792:    7007           00006                           EXTEND
000793:    7010           17012                           BZF      +2
000794:    7011           07032                           TC       OVERFLWZ
000795:
000796:    7012           00006                           EXTEND
000797:    7013           50116                           INDEX    ADDRWD
000798:    7014           00001                           READ     LCHAN                                 #  DCA  0  OR  DCS  0
000799:    7015           17021                           TCF      ENDVXV
000800:
000801:    7016           00006        DAD                EXTEND
000802:    7017           50116                           INDEX    ADDRWD
000803:    7020           30001                           DCA      0
000804:    7021           20155        ENDVXV             DAS      MPAC                                  #  VXV FINISHES HERE.
000805:    7022           00006                           EXTEND
000806:    7023           16102                           BZF      DANZIG
000807:


000809:    7024           07040        SETOVF             TC       OVERFLOW
000810:    7025           16102                           TCF      DANZIG
000811:


000813:    7026           00006        DSU                EXTEND
000814:    7027           50116                           INDEX    ADDRWD
000815:    7030           40001                           DCS      0
000816:    7031           17021                           TCF      ENDVXV
000817:
000818:    7032           54001        OVERFLWZ           TS       L                                     #  ENTRY FOR THIRD COMPONENT.
000819:    7033           34747                           CAF      FIVE
000820:    7034           17037                           TCF      +3
000821:
000822:    7035           54001        OVERFLWY           TS       L                                     #  ENTRY FOR SECOND COMPONENT.
000823:    7036           36266                           CAF      THREE
000824:    7037           56001                           XCH      L
000825:
000826:    7040           50000        OVERFLOW           INDEX    A                                     #  ENTRY FOR 1ST COMP OR DP (L=0).
000827:    7041           44725                           CS       LIMITS                                #  PICK UP POSMAX OR NEGMAX.
000828:    7042           54130                           TS       BUF
000829:    7043           00006                           EXTEND
000830:    7044           24000                           AUG      A                                     #  FORCE OVERFLOW.
000831:    7045           50001                           INDEX    L
000832:    7046           26155                           ADS      MPAC       +1
000833:    7047           54007                           TS       7
000834:    7050           34746                           CAF      ZERO
000835:    7051           60130                           AD       BUF
000836:    7052           50001                           INDEX    L
000837:    7053           26154                           ADS      MPAC
000838:    7054           54007                           TS       7
000839:    7055           00002                           TC       Q                                     #  NO OVERFLOW EXIT.
000840:    7056           17173                           TCF      SETOVF2                               #  SET OVFIND AND EXIT.
000841:
000842:    7057           00006        BVSU               EXTEND
000843:    7060           50116                           INDEX    ADDRWD
000844:    7061           30003                           DCA      2
000845:    7062           52160                           DXCH     MPAC       +3
000846:    7063           00006                           EXTEND
000847:    7064           40001                           DCOM
000848:    7065           20160                           DAS      MPAC       +3
000849:    7066           00006                           EXTEND
000850:    7067           17071                           BZF      +2
000851:    7070           07035                           TC       OVERFLWY
000852:
000853:    7071           00006                           EXTEND
000854:    7072           50116                           INDEX    ADDRWD
000855:    7073           30005                           DCA      4
000856:    7074           52162                           DXCH     MPAC       +5
000857:    7075           00006                           EXTEND
000858:    7076           40001                           DCOM
000859:    7077           20162                           DAS      MPAC       +5
000860:    7100           00006                           EXTEND
000861:    7101           17103                           BZF      +2
000862:    7102           07032                           TC       OVERFLWZ
000863:


000865:    7103           00006        BDSU               EXTEND
000866:    7104           50116                           INDEX    ADDRWD
000867:    7105           30001                           DCA      0
000868:    7106           52155                           DXCH     MPAC
000869:    7107           00006                           EXTEND
000870:    7110           40001                           DCOM
000871:    7111           17021                           TCF      ENDVXV
000872:


000874:                                                                                                  #           TRIPLE PRECISION ADD ROUTINE.
000875:
000876:    7112           00006        TAD                EXTEND
000877:    7113           50116                           INDEX    ADDRWD
000878:    7114           30002                           DCA      1                                     #  ADD MINOR PARTS FIRST.
000879:    7115           20156                           DAS      MPAC       +1
000880:    7116           50116                           INDEX    ADDRWD
000881:    7117           60000                           AD       0
000882:    7120           60154                           AD       MPAC
000883:    7121           54154                           TS       MPAC
000884:    7122           16102                           TCF      DANZIG
000885:
000886:    7123           17024                           TCF      SETOVF                                #  SET OVFIND IF SUCH OCCURS.
000887:


000889:                                                                                                  #  ARITHMETIC SUBROUTINES REQUIRED IN FIXED-FIXED.
000890:
000891:                                                                                                  #           1.  DMPSUB     DOUBLE PRECISION MULTIPLY. MULTIPLY THE CONTENTS OF MPAC,+1 BY THE DP WORD WHOSE ADDRESS
000892:                                                                                                  #                          IS IN ADDRWD AND LEAVE A TRIPLE PRECISION RESULT IN MPAC.
000893:                                                                                                  #           2.  ROUNDSUB   ROUND THE TRIPLE PRECISON CONTENTS OF MPAC TO DOUBLE PRECISION.
000894:                                                                                                  #           3.  DOTSUB     TAKE THE DOT PRODUCT OF THE VECTOR IN MPAC AND THE VECTOR WHOSE ADDRESS IS IN ADDRWD
000895:                                                                                                  #                          AND LEAVE THE TRIPLE PRECISION RESULT IN MPAC.
000896:                                                                                                  #           4.  POLY       USING THE CONTENTS OF MPAC AS A DP ARGUMENT, EVALUATE THE POLYNOMIAL WHOSE DEGREE AND
000897:                                                                                                  #                          COEFFICIENTS IMMEDIATELY FOLLOW THE TC POLY INSTRUCTION (SEE ROUTINE FOR DETAILS.)
000898:
000899:
000900:    7124           50002        DMP                INDEX    Q                                     #  BASIC SUBROUTINE FOR USE BY PINBALL, ETC
000901:    7125           30000                           CAF      0                                     #  ADRES OF ARGUMENT FOLLOWS  TC DMP  .
000902:    7126           24002                           INCR     Q
000903:    7127           54116                 -1        TS       ADDRWD                                #  (PROLOGUE FOR SETTING ADDRWD.)
000904:
000905:    7130           50116        DMPSUB             INDEX    ADDRWD                                #  GET MINOR PART OF OPERAND AT C(ADDRWD).
000906:    7131           30001                           CA       1
000907:    7132           54156                           TS       MPAC       +2                         #  THIS WORKS FOR SQUARING MPAC AS WELL.
000908:    7133           34746                           CAF      ZERO                                  #  SET MPAC +1 TO ZERO SO WE CAN ACCUMULATE
000909:    7134           56155                           XCH      MPAC       +1                         #  THE PARTIAL PRODUCTS WITH DAS
000910:    7135           54135                           TS       MPTEMP                                #  INSTRUCTIONS.
000911:    7136           00006                           EXTEND
000912:    7137           70156                           MP       MPAC       +2                         #  MINOR OF MPAC X MINOR OF C(ADDRWD).
000913:
000914:    7140           56156                           XCH      MPAC       +2                         #  DISCARD MINOR PART OF ABOVE RESULT AND
000915:    7141           00006                           EXTEND                                         #  FORM MAJOR OF MPAC X MINOR OF C(ADDRWD).
000916:    7142           70154                           MP       MPAC
000917:    7143           20156                           DAS      MPAC       +1                         #  GUARANTEED NO OVERFLOW.
000918:
000919:    7144           50116                           INDEX    ADDRWD                                #  GET MAJOR PART OF ARGUMENT AT C(ADDRWD).
000920:    7145           30000                           CA       0
000921:    7146           56135                           XCH      MPTEMP                                #  SAVE AND BRING OUT MINOR OF MPAC.
000922:    7147           00006        DMPSUB2            EXTEND
000923:    7150           70135                           MP       MPTEMP                                #  MAJOR OF C(ADDRWD) X MINOR OF MPAC.
000924:    7151           20156                           DAS      MPAC       +1                         #  ACCUMULATE, SETTING A TO NET OVERFLOW.
000925:
000926:    7152           56154                           XCH      MPAC                                  #  SETTING MPAC TO 0 OR +-1.
000927:    7153           00006                           EXTEND
000928:    7154           70135                           MP       MPTEMP                                #  MAJOR OF MPAC X MAJOR OF C(ADDRWD).
000929:    7155           20155                           DAS      MPAC                                  #  GUARANTEED NO OVERFLOW.
000930:    7156           00002                           TC       Q                                     #  49 MCT = .573 MS. INCLUDING RETURN.
000931:


000933:                                                                                                  #           ROUND MPAC TO DOUBLE PRECISION, SETTING OVFIND ON THE RARE EVENT OF OVERFLOW.
000934:
000935:    7157           34746        ROUNDSUB           CAF      ZERO                                  #  SET MPAC +2 = 0 FOR SCALARS AND CHANGE
000936:    7160           54163                 +1        TS       MODE                                  #  MODE TO DP.
000937:
000938:    7161           56156        VROUND             XCH      MPAC       +2                         #  BUT WE NEEDNT TAKE THE TIME FOR VECTORS.
000939:    7162           60000                           DOUBLE
000940:    7163           54001                           TS       L
000941:    7164           00002                           TC       Q
000942:
000943:    7165           60155                           AD       MPAC       +1                         #  ADD ROUNDING BIT IF MPAC +2 WAS GREATER
000944:    7166           54155                           TS       MPAC       +1                         #  THAN .5 IN MAGNITUDE.
000945:    7167           00002                           TC       Q
000946:
000947:    7170           60154                           AD       MPAC                                  #  PROPAGATE INTERFLOW.
000948:    7171           54154                           TS       MPAC
000949:    7172           00002                           TC       Q
000950:
000951:    7173           54121        SETOVF2            TS       OVFIND                                #  (RARE).
000952:    7174           00002                           TC       Q
000953:


000955:                                                                                                  #           THE DOT PRODUCT SUBROUTINE USUALLY FORMS THE DOT PRODUCT OF THE VECTOR IN MPAC WITH A STANDARD SIX
000956:                                                                                                  #  REGISTER VECTOR WHOSE ADDRESS IS IN ADDRWD. IN THIS CASE C(DOTINC) ARE SET TO 2. VXM, HOWEVER, SETS C(DOTINC) TO
000957:                                                                                                  #  6 SO THAT DOTSUB DOTS MPAC WITH A COLUMN VECTOR OF THE MATRIX IN QUESTION IN THIS CASE.
000958:
000959:    7175           34743        PREDOT             CAF      TWO                                   #  PROLOGUE TO SET DOTINC TO 2.
000960:    7176           54136                           TS       DOTINC
000961:
000962:    7177           00006        DOTSUB             EXTEND
000963:    7200           22137                           QXCH     DOTRET                                #  SAVE RETURN.
000964:    7201           07130                           TC       DMPSUB                                #  DOT X COMPONENTS.
000965:    7202           52160                           DXCH     MPAC       +3                         #  POSITION Y COMPONENT OF MPAC FOR
000966:    7203           52155                           DXCH     MPAC                                  #  MULTIPLICATION WHILE SAVING RESULT IN
000967:    7204           52131                           DXCH     BUF                                   #  THREE WORD BUFFER, BUF.
000968:    7205           30156                           CA       MPAC       +2
000969:    7206           54132                           TS       BUF        +2
000970:
000971:    7207           30136                           CA       DOTINC                                #  ADVANCE ADDRWD TO Y COMPONENT OF
000972:    7210           26116                           ADS      ADDRWD                                #  OTHER ARGUMENT.
000973:    7211           07130                           TC       DMPSUB
000974:    7212           52156                           DXCH     MPAC       +1                         #  ACCUMULATE PARTIAL PRODUCTS.
000975:    7213           20132                           DAS      BUF        +1
000976:    7214           60154                           AD       MPAC
000977:    7215           60130                           AD       BUF
000978:    7216           54130                           TS       BUF
000979:    7217           17221                           TCF      +2
000980:    7220           54121                           TS       OVFIND                                #  IF OVERFLOW OCCURS.
000981:
000982:    7221           52162                           DXCH     MPAC       +5                         #  MULTIPLY Z COMPONENTS.
000983:    7222           52155                           DXCH     MPAC
000984:    7223           30136                           CA       DOTINC
000985:    7224           26116                           ADS      ADDRWD
000986:    7225           07130                           TC       DMPSUB
000987:    7226           52132        ENDDOT             DXCH     BUF        +1                         #  LEAVE FINAL ACCUMULATION IN MPAC.
000988:    7227           20156                           DAS      MPAC       +1
000989:    7230           60154                           AD       MPAC
000990:    7231           60130                           AD       BUF
000991:    7232           54154                           TS       MPAC
000992:    7233           00137                           TC       DOTRET
000993:
000994:    7234           07040                           TC       OVERFLOW                              #  ON OVERFLOW HERE.
000995:    7235           00137                           TC       DOTRET
000996:


000998:                                                                                                  #  DOUBLE PRECISION POLYNOMIAL EVALUATOR
000999:
001000:                                                                                                  #                                     N        N-1
001001:                                                                                                  #           THIS ROUTINE EVALUATES A X  + A   X    + ... + A X + A  LEAVING THE DP RESULT IN MPAC ON EXIT.
001002:                                                                                                  #                                   N      N-1              1     0
001003:
001004:                                                                                                  #  THE ROUTINE HAS TWO ENTRIES
001005:
001006:                                                                                                  #           1. ENTRY THRU POWRSERS. THE COEFFICIENTS MAY BE EITHER IN FIXED OR ERASABLE, THE CALL IS BY
001007:                                                                                                  #              TC POWRSERS, AND THE RETURN IS TO LOC(TC POWRSERS)+1. THE ENTERING DATA MUST BE AS FOLLOWS
001008:
001009:                                                                                                  #                                          A        SP     LOC-3           ADDRESS FOR REFERENCING COEF TABLE
001010:                                                                                                  #                                          L        SP     N-1             N IS THE DEGREE OF THE POWER SERIES
001011:                                                                                                  #                                          MPAC     DP     X               ARGUMENT
001012:
001013:                                                                                                  #                                          LOC-2N   DP     A(0)
001014:                                                                                                  #                                                   ...
001015:                                                                                                  #                                          LOC      DP     A(N)
001016:
001017:                                                                                                  #           2. ENTRY THRU POLY. THE CALL TO POLY AND THE ENTERING DATA MUST BE AS FOLLOWS
001018:
001019:                                                                                                  #                                          MPAC     DP     X               ARGUMENT
001020:
001021:                                                                                                  #                                          LOC      TC     POLY
001022:                                                                                                  #                                          LOC+1    SP     N-1
001023:                                                                                                  #                                          LOC+2    DP     A(0)
001024:                                                                                                  #                                                   ...
001025:                                                                                                  #                                          LOC+2N+2 DP     A(N)            RETURN IS TO LOC+2N+4
001026:
001027:    7236           00006        POWRSERS           EXTEND
001028:    7237           22141                           QXCH     POLYRET                               #  RETURN ADDRESS
001029:    7240           54117                           TS       POLISH                                #  POWER SERIES ADDRESS
001030:    7241           22140                           LXCH     POLYCNT                               #  N-1 TO COUNTER
001031:    7242           17253                           TCF      POLYCOM                               #  SKIP SET UP BY POLY
001032:
001033:    7243           50002        POLY               INDEX    Q
001034:    7244           30000                           CAF      0
001035:    7245           54140                           TS       POLYCNT                               #  N-1 TO COUNTER
001036:    7246           60000                           DOUBLE
001037:    7247           60002                           AD       Q
001038:    7250           54117                           TS       POLISH                                #  L(A(N))-3 TO POLISH
001039:    7251           64747                           AD       FIVE
001040:    7252           54141                           TS       POLYRET                               #  STORE RETURN ADDRESS
001041:
001042:    7253           36314        POLYCOM            CAF      LVBUF                                 #  INCOMING X WILL BE MOVED TO VBUF, SO
001043:    7254           54116                           TS       ADDRWD                                #  SET ADDRWD SO DMPSUB WILL MPY BY VBUF.
001044:
001045:    7255           00006                           EXTEND
001046:    7256           50117                           INDEX    POLISH
001047:    7257           30004                           DCA      3
001048:


001050:    7260           52155                           DXCH     MPAC                                  #  LOAD A(N) INTO MPAC,
001051:    7261           52123                           DXCH     VBUF                                  #  SAVING X IN VBUF
001052:    7262           17266                           TCF      POLY2
001053:
001054:    7263           54140        POLYLOOP           TS       POLYCNT                               #  SAVE DECREMENTED LOOP COUNTER
001055:    7264           44743                           CS       TWO
001056:    7265           26117                           ADS      POLISH                                #  REGRESS COEFFICIENT POINTER
001057:
001058:    7266           07130        POLY2              TC       DMPSUB                                #  MULTIPLY BY X
001059:    7267           00006                           EXTEND
001060:    7270           50117                           INDEX    POLISH
001061:    7271           30002                           DCA      1                                     #  ADD IN NEXT COEFFICIENT
001062:    7272           20155                           DAS      MPAC                                  #  USERS RESPONSIBILITY TO ASSURE NO OVFLOW
001063:
001064:    7273           10140                           CCS      POLYCNT
001065:    7274           17263                           TCF      POLYLOOP
001066:    7275           00141                           TC       POLYRET                               #  RETURN CALLER
001067:


001069:                                                                                                  #           MISCELLANEOUS MULTI-PRECISION ROUTINES REQUIRED IN FIXED-FIXED BUT NOT USED BY THE INTERPRETER.
001070:
001071:    7276           34746        DPAGREE            CAF      ZERO                                  #  DOUBLE PRECISION ENTRY -
001072:    7277           54156                           TS       MPAC       +2                         #  ZERO LOW-ORDER WORD
001073:
001074:    7300           22002        TPAGREE            LXCH     Q                                     #  FORCE SIGN AGREEMENT AMONG THE TRIPLE
001075:    7301           06744                           TC       BRANCH                                #  PRECISION CONTENTS OF MPAC.  RETURNING
001076:    7302           17306                           TCF      ARG+                                  #  WITH SIGNUM OF THE INPUT IN A.
001077:    7303           17326                           TCF      ARGZERO
001078:
001079:    7304           44724                           CS       POSMAX                                #  IF NEGATIVE.
001080:    7305           17307                           TCF      +2
001081:
001082:    7306           34724        ARG+               CAF      POSMAX
001083:    7307           54002                           TS       Q
001084:    7310           00006                           EXTEND
001085:    7311           24000                           AUG      A                                     #  FORMS +-1.0.
001086:    7312           60156                           AD       MPAC       +2
001087:    7313           54156                           TS       MPAC       +2
001088:    7314           34746                           CAF      ZERO
001089:    7315           60002                           AD       Q
001090:    7316           60155                           AD       MPAC       +1
001091:    7317           54155                           TS       MPAC       +1
001092:    7320           34746                           CAF      ZERO
001093:    7321           60002                           AD       Q                                     #  Q STILL HAS POSMAX OR NEGMAX IN IT.
001094:    7322           60154                           AD       MPAC
001095:    7323           54154        ARGZERO2           TS       MPAC                                  #  ALWAYS SKIPPING UNLESS ARGZERO.
001096:    7324           54155                           TS       MPAC       +1
001097:    7325           00001                           TC       L                                     #  RETURN VIA L.
001098:
001099:    7326           54156        ARGZERO            TS       MPAC       +2                         #  SET ALL THREE MPAC REGISTERS TO ZERO.
001100:    7327           17323                           TCF      ARGZERO2
001101:
001102:                                                                                                  #           SHORTMP MULTIPLIES THE TP CONTENTS OF MPAC BY THE SINGLE PRECISION NUMBER ARRIVING IN A.
001103:
001104:    7330           54135        SHORTMP            TS       MPTEMP
001105:    7331           00006                           EXTEND
001106:    7332           70156                           MP       MPAC       +2
001107:    7333           54156                           TS       MPAC       +2
001108:    7334           34746        SHORTMP2           CAF      ZERO                                  #  SO SUBSEQUENT DAS WILL WORK.
001109:    7335           56155                           XCH      MPAC       +1
001110:    7336           17147                           TCF      DMPSUB2
001111:


001127:


001129:                                                                                                  #         DMPNSUB MULTIPLIES THE DP FRACTION ARRIVING IN MPAC BY THE SP
001130:                                                                                                  #  INTEGER ARRIVING IN A.  THE DP PRODUCT DEPARTS BOTH IN MPAC AND IN
001131:                                                                                                  #  A AND L.  NOTE THAT DMPNSUB NORMALLY INCREASES THE MAGNITUDE OF THE
001132:                                                                                                  #  CONTENTS OF MPAC.  THE CUSTOMER MUST INSURE THAT B(A) X B(MPAC,MPAC+1)
001133:                                                                                                  #  AND B(A) X B(MPAC) ARE LESS THAN 1 IN MAGNITUDE, WHERE B, AS IS OBVIOUS,
001134:                                                                                                  #  INDICATES THE ARRIVING CONTENTS.
001135:
001136:    7337           54135        DMPNSUB            TS       DMPNTEMP
001137:    7340           00006                           EXTEND
001138:    7341           70155                           MP       MPAC       +1
001139:    7342           52155                           DXCH     MPAC                                  #  LOW PRODUCT TO MPAC, HIGH FACTOR TO A
001140:    7343           00006                           EXTEND
001141:    7344           70135                           MP       DMPNTEMP
001142:    7345           30001                           CA       L
001143:    7346           26154                           ADS      MPAC                                  #  COMPLETING THE PRODUCT IN MPAC
001144:    7347           00006                           EXTEND
001145:    7350           30155                           DCA      MPAC                                  #  BRINGING THE PRODUCT INTO A AND L
001146:    7351           00002                           TC       Q
001147:


001149:                                                                                                  #  MISCELLANEOUS VECTOR OPERATIONS. INCLUDED HERE ARE THE FOLLOWING:
001150:
001151:                                                                                                  #           1.  DOT                DP VECTOR DOT PRODUCT.
001152:                                                                                                  #           2.  VXV                DP VECTOR CROSS PRODUCT.
001153:                                                                                                  #           3.  VXSC               DP VECTOR TIMES SCALAR.
001154:                                                                                                  #           4.  V/SC               DP VECTOR DIVIDED BY SCALAR.
001155:                                                                                                  #           5.  VPROJ              DP VECTOR PROJECTION. ( (MPAC.X)MPAC ).
001156:                                                                                                  #           6.  VXM                DP VECTOR POST-MULTIPLIED BY MATRIX.
001157:                                                                                                  #           7.  MXV                DP VECTOR PRE-MULTIPLIED BY MATRIX.
001158:
001159:    7352           07175        DOT                TC       PREDOT                                #  DO THE DOT PRODUCT AND EXIT, CHANGING
001160:    7353           34746        DMODE              CAF      ZERO                                  #  THE MODE TO DP SCALAR.
001161:    7354           16101                           TCF      NEWMODE
001162:
001163:
001164:    7355           34743        MXV                CAF      TWO                                   #  SET UP MATINC AND DOTINC FOR ROW
001165:    7356           54140                           TS       MATINC                                #  VECTORS.
001166:    7357           17363                           TCF      VXM/MXV                               #  GO TO COMMON PORTION.
001167:
001168:    7360           44354        VXM                CS       TEN                                   #  SET MATINC AND DOTINC TO REFER TO MATRIX
001169:    7361           54140                           TS       MATINC                                #  AS THREE COLUMN VECTORS.
001170:    7362           36263                           CAF      SIX
001171:


001173:                                                                                                  #           COMMON PORTION OF MXV AND VXM.
001174:
001175:    7363           54136        VXM/MXV            TS       DOTINC
001176:                                                                                                  #           ITRACE (2) REFERS TO "VXM/MXV".
001177:    7364           07553                           TC       MPACVBUF                              #  SAVE VECTOR IN MPAC FOR FURTHER USE.
001178:
001179:    7365           07177                           TC       DOTSUB                                #  GO DOT TO GET X COMPONENT OF ANSWER.
001180:    7366           00006                           EXTEND
001181:    7367           30123                           DCA      VBUF                                  #  MOVE MPAC VECTOR BACK INTO MPAC, SAVING
001182:    7370           52155                           DXCH     MPAC                                  #  NEW X COMPONENT IN BUF2.
001183:    7371           52134                           DXCH     BUF2
001184:    7372           00006                           EXTEND
001185:    7373           30125                           DCA      VBUF       +2
001186:    7374           52160                           DXCH     MPAC       +3
001187:    7375           00006                           EXTEND
001188:    7376           30127                           DCA      VBUF       +4
001189:    7377           52162                           DXCH     MPAC       +5
001190:    7400           30140                           CA       MATINC                                #  INITIALIZE ADDRWD FOR NEXT DOT PRODUCT.
001191:    7401           26116                           ADS      ADDRWD                                #  FORMS BASE ADDRESS OF NEXT COLUMN(ROW).
001192:
001193:    7402           07177                           TC       DOTSUB
001194:    7403           52123                           DXCH     VBUF                                  #  MOVE GIVEN VECTOR BACK TO MPAC, SAVING Y
001195:    7404           52155                           DXCH     MPAC                                  #  COMPONENT OF ANSWER IN VBUF +2.
001196:    7405           52125                           DXCH     VBUF       +2
001197:    7406           52160                           DXCH     MPAC       +3
001198:    7407           52127                           DXCH     VBUF       +4
001199:    7410           52162                           DXCH     MPAC       +5
001200:    7411           30140                           CA       MATINC                                #  FORM ADDRESS OF LAST COLUMN OR ROW.
001201:    7412           26116                           ADS      ADDRWD
001202:
001203:    7413           07177                           TC       DOTSUB
001204:    7414           52134                           DXCH     BUF2                                  #  ANSWER NOW COMPLETE. PUT COMPONENTS INTO
001205:    7415           52155                           DXCH     MPAC                                  #  PROPER MPAC REGISTERS.
001206:    7416           52162                           DXCH     MPAC       +5
001207:    7417           52125                           DXCH     VBUF       +2
001208:    7420           52160                           DXCH     MPAC       +3
001209:    7421           16102                           TCF      DANZIG                                #  EXIT.
001210:


001212:                                                                                                  #           VXSC - VECTOR TIMES SCALAR.
001213:
001214:    7422           10163        VXSC               CCS      MODE                                  #  TEST PRESENT MODE.
001215:    7423           17451                           TCF      DVXSC                                 #  SEPARATE ROUTINE WHEN SCALAR IS IN MPAC.
001216:    7424           17451                           TCF      DVXSC
001217:
001218:    7425           07130        VVXSC              TC       DMPSUB                                #  COMPUTE X COMPONENT
001219:    7426           07161                           TC       VROUND                                #  AND ROUND IT.
001220:    7427           52160                           DXCH     MPAC       +3                         #  PUT Y COMPONENT INTO MPAC SAVING MPAC IN
001221:    7430           52155                           DXCH     MPAC                                  #  MPAC +3.
001222:    7431           52160                           DXCH     MPAC       +3
001223:
001224:    7432           07130                           TC       DMPSUB                                #  DO SAME FOR Y AND Z COMPONENTS.
001225:    7433           07161                           TC       VROUND
001226:    7434           52162                           DXCH     MPAC       +5
001227:    7435           52155                           DXCH     MPAC
001228:    7436           52162                           DXCH     MPAC       +5
001229:
001230:    7437           07130                           TC       DMPSUB
001231:    7440           07161                           TC       VROUND
001232:    7441           52155        VROTATEX           DXCH     MPAC                                  #  EXIT USED TO RESTORE MPAC AFTER THIS
001233:    7442           52162                           DXCH     MPAC       +5                         #  TYPE OF ROTATION. CALLED BY VECTOR SHIFT
001234:    7443           52160                           DXCH     MPAC       +3                         #  RIGHT, V/SC, ETC.
001235:    7444           52155                           DXCH     MPAC
001236:    7445           16102                           TCF      DANZIG
001237:


001239:                                                                                                  #           DP VECTOR PROJECTION ROUTINE.
001240:
001241:    7446           07175        VPROJ              TC       PREDOT                                #  (MPAC.X)MPAC IS COMPUTED AND LEFT IN
001242:    7447           44742                           CS       FOUR                                  #  MPAC. DO DOT AND FALL INTO DVXSC.
001243:    7450           26116                           ADS      ADDRWD
001244:
001245:                                                                                                  #           VXSC WHEN SCALAR ARRIVES IN MPAC AND VECTOR IS AT X.
001246:
001247:    7451           00006        DVXSC              EXTEND                                         #  SAVE SCALAR IN MPAC +3 AND GET X
001248:    7452           30155                           DCA      MPAC                                  #  COMPONENT OF ANSWER.
001249:    7453           52160                           DXCH     MPAC       +3
001250:    7454           07130                           TC       DMPSUB
001251:    7455           07161                           TC       VROUND
001252:
001253:    7456           34743                           CAF      TWO                                   #  ADVANCE ADDRWD TO Y COMPONENT OF X.
001254:    7457           26116                           ADS      ADDRWD
001255:    7460           00006                           EXTEND
001256:    7461           30160                           DCA      MPAC       +3                         #  PUT SCALAR BACK INTO MPAC AND SAVE
001257:    7462           52155                           DXCH     MPAC                                  #  X RESULT IN MPAC +5.
001258:    7463           52162                           DXCH     MPAC       +5
001259:    7464           07130                           TC       DMPSUB
001260:    7465           07161                           TC       VROUND
001261:
001262:    7466           34743                           CAF      TWO
001263:    7467           26116                           ADS      ADDRWD                                #  TO Z COMPONENT.
001264:    7470           52160                           DXCH     MPAC       +3                         #  BRING SCALAR BACK, PUTTING Y RESULT IN
001265:    7471           52155                           DXCH     MPAC                                  #  THE PROPER PLACE.
001266:    7472           52160                           DXCH     MPAC       +3
001267:    7473           07130                           TC       DMPSUB
001268:    7474           07161                           TC       VROUND
001269:
001270:    7475           52155                           DXCH     MPAC                                  #  PUT Z COMPONENT IN PROPER PLACE, ALSO
001271:    7476           52162                           DXCH     MPAC       +5                         #  POSITIONING X.
001272:    7477           52155                           DXCH     MPAC
001273:
001274:    7500           16542                           TCF      VMODE                                 #  MODE HAS CHANGED TO VECTOR.
001275:


001277:                                                                                                  #           THE VECTOR CROSS PRODUCT ROUTINE CALCULATES (X M -X M ,X M -X M ,X M -X M ) WHERE M IS THE VECTOR IN
001278:                                                                                                  #                                                         3 2  2 3  1 3  3 1  2 1  1 2
001279:                                                                                                  #  MPAC AND X THE VECTOR AT THE GIVEN ADDRESS.
001280:
001281:    7501           00006        VXV                EXTEND
001282:    7502           30162                           DCA      MPAC       +5                         #  FORM UP M3X1, LEAVING M1 IN VBUF.
001283:    7503           52155                           DXCH     MPAC
001284:    7504           52123                           DXCH     VBUF
001285:    7505           07130                           TC       DMPSUB                                #  BY X1.
001286:
001287:    7506           00006                           EXTEND
001288:    7507           40160                           DCS      MPAC       +3                         #  CALCULATE -X1M2, SAVING X1M3 IN VBUF +2.
001289:    7510           52155                           DXCH     MPAC
001290:    7511           52125                           DXCH     VBUF       +2
001291:    7512           07130                           TC       DMPSUB
001292:
001293:    7513           34743                           CAF      TWO                                   #  ADVANCE ADDRWD TO X2.
001294:    7514           26116                           ADS      ADDRWD
001295:    7515           00006                           EXTEND
001296:    7516           40162                           DCS      MPAC       +5                         #  PREPARE TO GET -X2M3, SAVING -X1M2 IN
001297:    7517           52155                           DXCH     MPAC                                  #  MPAC +5.
001298:    7520           52162                           DXCH     MPAC       +5
001299:    7521           07130                           TC       DMPSUB
001300:
001301:    7522           00006                           EXTEND
001302:    7523           30123                           DCA      VBUF                                  #  GET X2M1, SAVING -X2M3 IN VBUF +4.
001303:    7524           52155                           DXCH     MPAC
001304:    7525           52127                           DXCH     VBUF       +4
001305:    7526           07130                           TC       DMPSUB
001306:
001307:    7527           34743                           CAF      TWO                                   #  ADVANCE ADDRWD TO X3.
001308:    7530           26116                           ADS      ADDRWD
001309:    7531           00006                           EXTEND
001310:    7532           40123                           DCS      VBUF                                  #  GET -X3M1, ADDING X2M1 TO MPAC +5 TO
001311:    7533           52155                           DXCH     MPAC                                  #  COMPLETE THE Z COMPONENT OF THE ANSWER.
001312:    7534           20162                           DAS      MPAC       +5
001313:
001314:    7535           00006                           EXTEND
001315:    7536           17540                           BZF      +2
001316:    7537           07032                           TC       OVERFLWZ
001317:
001318:    7540           07130                           TC       DMPSUB
001319:    7541           52125                           DXCH     VBUF       +2                         #  MOVE X1M3 TO MPAC +3 SETTING UP FOR X3M2
001320:    7542           52160                           DXCH     MPAC       +3                         #  AND ADD -X3M1 TO MPAC +3 TO COMPLETE THE
001321:    7543           52155                           DXCH     MPAC                                  #  Y COMPONENT OF THE RESULT.
001322:    7544           20160                           DAS      MPAC       +3
001323:
001324:    7545           00006                           EXTEND
001325:    7546           17550                           BZF      +2


001327:    7547           07035                           TC       OVERFLWY
001328:
001329:    7550           07130                           TC       DMPSUB
001330:    7551           52127                           DXCH     VBUF       +4                         #  GO ADD -X2M3 TO X3M2 TO COMPLETE THE X
001331:    7552           17021                           TCF      ENDVXV                                #  COMPONENT (TAIL END OF DAD).
001332:
001333:                                                                                                  #           THE MPACVBUF SUBROUTINE SAVES THE VECTOR IN MPAC IN VBUF WITHOUT CLOBBERING MPAC.
001334:
001335:    7553           00006        MPACVBUF           EXTEND                                         #  CALLED BY MXV, VXM, AND UNIT.
001336:    7554           30155                           DCA      MPAC
001337:    7555           52123                           DXCH     VBUF
001338:    7556           00006                           EXTEND
001339:    7557           30160                           DCA      MPAC       +3
001340:    7560           52125                           DXCH     VBUF       +2
001341:    7561           00006                           EXTEND
001342:    7562           30162                           DCA      MPAC       +5
001343:    7563           52127                           DXCH     VBUF       +4
001344:    7564           00002                           TC       Q                                     #  RETURN TO CALLER.
001345:
001346:
001347:                                                                                                  #           DOUBLE PRECISION SIGN AGREE ROUTINE. ARRIVE WITH INPUT IN A+L. OUTPUT IS IN A + L.
001348:
001349:    7565           10000        ALSIGNAG           CCS      A                                     #  TEST UPPER PART.
001350:    7566           17572                           TCF      UPPOS                                 #  IT IS POSITIVE
001351:    7567           00002                           TC       Q                                     #  ZERO
001352:    7570           17602                           TCF      UPNEG                                 #  NEGATIVE
001353:    7571           00002                           TC       Q                                     #  ZERO
001354:
001355:    7572           56001        UPPOS              XCH      L                                     #  SAVE DECREMENTED UPPER PART.
001356:    7573           64727                           AD       HALF
001357:    7574           64727                           AD       HALF
001358:    7575           54000                           TS       A                                     #  SKIPS ON OVERFLOW
001359:    7576           17600                           TCF      +2
001360:    7577           24001                           INCR     L                                     #  RESTORE UPPER TO ROIGINAL VALUE
001361:    7600           56001                           XCH      L                                     #  SWAP A + L BACK.
001362:    7601           00002                           TC       Q
001363:
001364:    7602           56001        UPNEG              XCH      L                                     #  SAVE COMPLEMENTED + DECREMENTED UPPER PT
001365:    7603           64726                           AD       NEGMAX
001366:    7604           67770                           AD       NEGONE
001367:    7605           54000                           TS       A
001368:    7606           17610                           TCF      +2                                    #  DONT INCREMENT IF NO OVERFLOW.
001369:    7607           24001                           INCR     L
001370:    7610           56001                           XCH      L
001371:    7611           40000                           COM                                            #  MAKE NEGATIVE AGAIN.
001372:    7612           00002                           TC       Q
001373:


001375:                                                                                                  #           INTERPRETIVE INSTRUCTIONS WHOSE EXECUTION CONSISTS OF PRINCIPALLY CALLING SUBROUTINES.
001376:
001377:    7613           07130        DMP1               TC       DMPSUB                                #  DMP INSTRUCTION.
001378:    7614           16102                           TCF      DANZIG
001379:
001380:    7615           07130        DMPR               TC       DMPSUB
001381:    7616           07160                           TC       ROUNDSUB   +1                         #  (C(A) = +0).
001382:    7617           16102                           TCF      DANZIG
001383:
001384:    7620           00006        DDV                EXTEND
001385:    7621           50116                           INDEX    ADDRWD                                #  MOVE DIVIDEND INTO BUF.
001386:    7622           30001                           DCA      0
001387:    7623           17630                           TCF      BDDV       +4
001388:
001389:    7624           00006        BDDV               EXTEND                                         #  MOVE DIVISOR INTO MPAC SAVING MPAC, THE
001390:    7625           50116                           INDEX    ADDRWD                                #  DIVIDEND, IN BUF.
001391:    7626           30001                           DCA      0
001392:    7627           52155                           DXCH     MPAC
001393:    7630           52131                 +4        DXCH     BUF
001394:    7631           34746                           CAF      ZERO                                  #  DIVIDE ROUTINES IN BANK 0.
001395:    7632           54004                           TS       FBANK
001396:    7633           12353                           TCF      DDV/BDDV
001397:
001398:    7634           30116        SETPD              CA       ADDRWD                                #  MUST SET TO WORK AREA, OR EBANK TROUBLE.
001399:    7635           54166                           TS       PUSHLOC
001400:    7636           16104                           TCF      NOIBNKSW                              #  NO FBANK SWITCH REQUIRED.
001401:
001402:    7637           34746        TSLC               CAF      ZERO                                  #  SHIFTING ROUTINES LOCATED IN BANK 00.
001403:    7640           54004                           TS       FBANK
001404:    7641           12172                           TCF      TSLC2
001405:
001406:    7642           36115        GSHIFT             CAF      LOW7                                  #  USED AS MASK AT GENSHIFT. THIS PROCESSES
001407:    7643           54004                           TS       FBANK                                 #  ANY SHIFT INSTRUCTION (EXCEPT TSLC) WITH
001408:    7644           12214                           TCF      GENSHIFT                              #  AN ADDRESS (ROUTINES IN BANK 0).
001409:


001411:                                                                                                  #           THE FOLLOWING IS THE PROLOGUE TO V/SC. IF THE PRESENT MODE IS VECTOR, IT SAVES THE SCALAR AT X IN BUF
001412:                                                                                                  #  AND CALLS THE V/SC ROUTINE IN BANK 0. IF THE PRESENT MODE IS SCALAR, IT MOVES THE VECTOR AT X INTO MPAC, SAVING
001413:                                                                                                  #  THE SCALAR IN MPAC IN BUF BEFORE CALLING THE V/SC ROUTINE IN BANK 0.
001414:
001415:    7645           10163        V/SC               CCS      MODE
001416:    7646           17657                           TCF      DV/SC                                 #  MOVE VECTOR INTO MPAC.
001417:    7647           17657                           TCF      DV/SC
001418:
001419:    7650           00006        VV/SC              EXTEND
001420:    7651           50116                           INDEX    ADDRWD
001421:    7652           30001                           DCA      0
001422:    7653           52131        V/SC1              DXCH     BUF                                   #  IN BOTH CASES, VECTOR IS NOW IN MPAC AND
001423:    7654           34746                           CAF      ZERO                                  #  SCALAR IN BUF.
001424:    7655           54004                           TS       FBANK
001425:    7656           12654                           TCF      V/SC2
001426:
001427:    7657           00006        DV/SC              EXTEND
001428:    7660           50116                           INDEX    ADDRWD
001429:    7661           30003                           DCA      2
001430:    7662           52160                           DXCH     MPAC       +3
001431:    7663           00006                           EXTEND
001432:    7664           50116                           INDEX    ADDRWD
001433:    7665           30005                           DCA      4
001434:    7666           52162                           DXCH     MPAC       +5
001435:
001436:    7667           44744                           CS       ONE                                   #  CHANGE MODE TO VECTOR.
001437:    7670           54163                           TS       MODE
001438:
001439:    7671           00006                           EXTEND
001440:    7672           50116                           INDEX    ADDRWD
001441:    7673           30001                           DCA      0
001442:    7674           52155                           DXCH     MPAC
001443:    7675           17653                           TCF      V/SC1                                 #  FINISH PROLOGUE AT COMMON SECTION.
001444:


001446:                                                                                                  #           SIGN AND COMPLEMENT INSTRUCTIONS.
001447:
001448:    7676           50116        SIGN               INDEX    ADDRWD                                #  CALL COMP INSTRUCTION IF WORD AT X IS
001449:    7677           10000                           CCS      0                                     #  NEGATIVE NON-ZERO.
001450:    7700           16102                           TCF      DANZIG
001451:    7701           17703                           TCF      +2
001452:    7702           17711                           TCF      COMP                                  #  DO THE COMPLEMENT.
001453:
001454:    7703           50116                           INDEX    ADDRWD
001455:    7704           10001        CCSL               CCS      1
001456:    7705           16102                           TCF      DANZIG
001457:    7706           16102                           TCF      DANZIG
001458:    7707           17711                           TCF      COMP
001459:    7710           16102                           TCF      DANZIG
001460:    7711           00006        COMP               EXTEND                                         #  COMPLEMENT DP MPAC IN EVERY CASE.
001461:    7712           40155                           DCS      MPAC
001462:    7713           52155                           DXCH     MPAC
001463:
001464:    7714           10163                           CCS      MODE                                  #  EITHER COMPLEMENT MPAC +3 OR THE REST OF
001465:    7715           17726                           TCF      DCOMP                                 #  THE VECTOR ACCUMULATOR.
001466:    7716           17726                           TCF      DCOMP
001467:
001468:    7717           00006                           EXTEND                                         #  VECTOR COMPLEMENT.
001469:    7720           40160                           DCS      MPAC       +3
001470:    7721           52160                           DXCH     MPAC       +3
001471:    7722           00006                           EXTEND
001472:    7723           40162                           DCS      MPAC       +5
001473:    7724           52162                           DXCH     MPAC       +5
001474:    7725           16102                           TCF      DANZIG
001475:
001476:    7726           40156        DCOMP              CS       MPAC       +2
001477:    7727           54156                           TS       MPAC       +2
001478:    7730           16102                           TCF      DANZIG
001479:


001481:                                                                                                  #           THE FOLLOWING SHORT SHIFT CODES REQUIRE NO ADDRESS WORD:
001482:
001483:                                                                                                  #           1.  SR1 TO SR4         SCALAR SHIFT RIGHT.
001484:                                                                                                  #           2.  SR1R TO SR4R       SCALAR SHIFT RIGHT AND ROUND.
001485:                                                                                                  #           3.  SL1 TO SL4         SCALAR SHIFT LEFT.
001486:                                                                                                  #           4.  SL1R TO SL4R       SCALAR SHIFT LEFT AND ROUND.
001487:
001488:                                                                                                  #           5.  VSR1 TO VSR8       VECTOR SHIFT RIGHT (ALWAYS ROUNDS).
001489:                                                                                                  #           6.  VSL1 TO VSL8       VECTOR SHIFT LEFT (NEVER ROUNDS).
001490:
001491:                                                                                                  #           THE FOLLOWING CODES REQUIRE AN ADDRESS WHICH MAY BE INDEXED:*
001492:
001493:                                                                                                  #           1.  SR                 SCALAR SHIFT RIGHT.
001494:                                                                                                  #           2.  SRR                SCALAR SHIFT RIGHT AND ROUND.
001495:                                                                                                  #           3.  SL                 SCALAR SHIFT LEFT.
001496:                                                                                                  #           4.  SLR                SCALAR SHIFT LEFT AND ROUND.
001497:
001498:                                                                                                  #           5.  VSR                VECTOR SHIFT RIGHT.
001499:                                                                                                  #           6.  VSL                VECTOR SHIFT LEFT.
001500:
001501:                                                                                                  #  *  IF THE ADDRESS IS INDEXED, AND THE INDEX MODIFICATION RESULTS IN A NEGATIVE SHIFT COUNT, A SHIFT OF THE
001502:                                                                                                  #  ABSOLUTE VALUE OF THE COUNT IS DONE IN THE OPPOSITE DIRECTION.
001503:
001504:
001505: 00,2017                                           BANK     00
001506:
001507: 00,2017                                           COUNT*   $$/INTER
001508: 00,2017           36263        SHORTT             CAF      SIX                                   #  SCALAR SHORT SHIFTS COME HERE. THE SHIFT
001509: 00,2020           70020                           MASK     CYR                                   #  COUNT-1 IS NOW IN BITS 2-3 OF CYR. THE
001510: 00,2021           54021                           TS       SR                                    #  ROUNDING BIT IS IN BIT1 AT THIS POINT.
001511:
001512: 00,2022           10020                           CCS      CYR                                   #  SEE IF RIGHT OR LEFT SHIFT DESIRED.
001513: 00,2023           12101                           TCF      TSSL                                  #  SHIFT LEFT.
001514:
001515: 00,2024           00024        SRDDV              DEC      20         B-14                       #  MPTEMP SETTING FOR SR BEFORE DDV.
001516:
001517: 00,2025           50021        TSSR               INDEX    SR                                    #  GET SHIFTING BIT.
001518: 00,2026           34727                           CAF      BIT14
001519: 00,2027           54135                           TS       MPTEMP
001520:
001521: 00,2030           10020                           CCS      CYR                                   #  SEE IF A ROUND IS DESIRED.
001522: 00,2031           02050        RIGHTR             TC       MPACSRND                              #  YES - SHIFT RIGHT AND ROUND.
001523: 00,2032           16101                           TCF      NEWMODE                               #  SET MODE TO DP (C(A) = 0).
001524: 00,2033           30135        MPACSHR            CA       MPTEMP                                #  DO A TRIPLE PRECISION SHIFT RIGHT.
001525: 00,2034           00006                           EXTEND
001526: 00,2035           70156                           MP       MPAC       +2
001527: 00,2036           54156                 +3        TS       MPAC       +2                         #  (EXIT FROM SQRT AND ABVAL).
001528: 00,2037           30135                           CA       MPTEMP
001529: 00,2040           00006                           EXTEND
001530: 00,2041           70154                           MP       MPAC                                  #  SHIFT MAJOR PART INTO A,L AND PLACE IN


001532: 00,2042           52155                           DXCH     MPAC                                  #  MPAC,+1.
001533: 00,2043           30135                           CA       MPTEMP
001534: 00,2044           00006                           EXTEND
001535: 00,2045           70001                           MP       L                                     #  ORIGINAL C(MPAC +1).
001536: 00,2046           20156                           DAS      MPAC       +1                         #  GUARANTEED NO OVERFLOW.
001537: 00,2047           16102                           TCF      DANZIG
001538:
001539:                                                                                                  #           MPAC SHIFT RIGHT AND ROUND SUBROUTINES.
001540:
001541: 00,2050           30156        MPACSRND           CA       MPAC       +2                         #  WE HAVE TO DO ALL THREE MULTIPLIES SINCE
001542: 00,2051           00006                           EXTEND                                         #  MPAC +1 AND MPAC +2 MIGHT HAVE SIGN
001543: 00,2052           70135                           MP       MPTEMP                                #  DISAGREEMENT WITH A SHIFT RIGHT OF 1.
001544: 00,2053           56155                           XCH      MPAC       +1
001545: 00,2054           00006                           EXTEND
001546: 00,2055           70135                           MP       MPTEMP
001547: 00,2056           56155                           XCH      MPAC       +1                         #  TRIAL MINOR PART.
001548: 00,2057           60001                           AD       L
001549:
001550: 00,2060           60000        VSHR2              DOUBLE                                         #  (FINISH VECTOR COMPONENT SHIFT RIGHT
001551: 00,2061           54156                           TS       MPAC       +2                         #  AND ROUND.
001552: 00,2062           12064                           TCF      +2
001553: 00,2063           26155                           ADS      MPAC       +1                         #  GUARANTEED NO OVERFLOW.
001554:
001555: 00,2064           34746                           CAF      ZERO
001556: 00,2065           54156                           TS       MPAC       +2
001557: 00,2066           56154                           XCH      MPAC                                  #  SETTING TO ZERO SO FOLLOWING DAS WORKS.
001558: 00,2067           00006                           EXTEND
001559: 00,2070           70135                           MP       MPTEMP
001560: 00,2071           20155                           DAS      MPAC                                  #  AGAIN NO OVERFLOW.
001561: 00,2072           00002                           TC       Q
001562:
001563: 00,2073           30135        VSHRRND            CA       MPTEMP                                #  ENTRY TO SHIFT RIGHT AND ROUND MPAC WHEN
001564: 00,2074           00006                           EXTEND                                         #  MPAC CONTAINS A VECTOR COMPONENT.
001565: 00,2075           70155                           MP       MPAC       +1
001566: 00,2076           54155                           TS       MPAC       +1
001567: 00,2077           56001                           XCH      L
001568: 00,2100           12060                           TCF      VSHR2                                 #  GO ADD ONE IF NECESSARY AND FINISH.
001569:


001571:                                                                                                  #           ROUTINE FOR SHORT SCALAR SHIFT LEFT (AND MAYBE ROUND).
001572:
001573: 00,2101           30021        TSSL               CA       SR                                    #  GET SHIFT COUNT FOR SR.
001574: 00,2102           54135                 +1        TS       MPTEMP
001575:
001576: 00,2103           00006                 +2        EXTEND                                         #  ENTRY HERE FROM SL FOR SCALARS.
001577: 00,2104           30156                           DCA      MPAC       +1                         #  SHIFTING LEFT ONE PLACE AT A TIME IS
001578: 00,2105           20156                           DAS      MPAC       +1                         #  FASTER THAN DOING THE WHOLE SHIFT WITH
001579: 00,2106           60154                           AD       MPAC                                  #  MULTIPLIES ASSUMING THAT FREQUENCY OF
001580: 00,2107           60154                           AD       MPAC                                  #  SHIFT COUNTS GOES DOWN RAPIDLY AS A
001581: 00,2110           54154                           TS       MPAC                                  #  FUNCTION OF THEIR MAGNITUDE.
001582: 00,2111           12113                           TCF      +2
001583: 00,2112           54121                           TS       OVFIND                                #  OVERFLOW. (LEAVES OVERFLOW-CORRECTED
001584:                                                                                                  #  RESULT ANYWAY).
001585: 00,2113           10135                           CCS      MPTEMP                                #  LOOP ON DECREMENTED SHIFT COUNT.
001586: 00,2114           12102                           TCF      TSSL       +1
001587:
001588: 00,2115           10020                           CCS      CYR                                   #  SEE IF ROUND WANTED.
001589: 00,2116           07157        ROUND              TC       ROUNDSUB                              #  YES - ROUND AND EXIT.
001590: 00,2117           16102                           TCF      DANZIG                                #  SL LEAVES A ZERO IN CYR FOR NO ROUND.
001591: 00,2120           16102                           TCF      DANZIG                                #  NO - EXIT IMMEDIATL
001592:


001594:                                                                                                  #  VECTOR SHIFTING ROUTINES.
001595:
001596: 00,2121           34750        SHORTV             CAF      LOW3                                  #  SAVE 3 BIT SHIFT COUNT - 1 WITHOUT
001597: 00,2122           70020                           MASK     CYR                                   #  EDITING CYR.
001598: 00,2123           54135                           TS       MPTEMP
001599: 00,2124           10020                           CCS      CYR                                   #  SEE IF LEFT OR RIGHT SHIFT.
001600: 00,2125           12145                           TCF      VSSL                                  #  VECTOR SHIFT LEFT.
001601: 00,2126           00176        OCT176             OCT      176                                   #  USED IN PROCESSED SHIFTS WITH - COUNT.
001602:
001603: 00,2127           50135        VSSR               INDEX    MPTEMP                                #  (ENTRY FROM SR). PICK UP SHIFTING BIT.
001604: 00,2130           34727                           CAF      BIT14                                 #  MPTEMP CONTAINS THE SHIFT COUNT - 1.
001605: 00,2131           54135                           TS       MPTEMP
001606: 00,2132           02073                           TC       VSHRRND                               #  SHIFT X COMPONENT.
001607:
001608: 00,2133           52155                           DXCH     MPAC                                  #  SWAP X AND Y COMPONENTS.
001609: 00,2134           52160                           DXCH     MPAC       +3
001610: 00,2135           52155                           DXCH     MPAC
001611: 00,2136           02073                           TC       VSHRRND                               #  SHIFT Y COMPONENT.
001612:
001613: 00,2137           52155                           DXCH     MPAC                                  #  SWAP Y AND Z COMPONENTS.
001614: 00,2140           52162                           DXCH     MPAC       +5
001615: 00,2141           52155                           DXCH     MPAC
001616: 00,2142           02073                           TC       VSHRRND                               #  SHIFT Z COMPONENT.
001617:
001618: 00,2143           17441                           TCF      VROTATEX                              #  RESTORE COMPONENTS TO PROPER PLACES.
001619:


001621:                                                                                                  #  VECTOR SHIFT LEFT - DONE ONE PLACE AT A TIME.
001622:
001623: 00,2144           54135                 -1        TS       MPTEMP                                #  SHIFTING LOOP.
001624:
001625: 00,2145           00006        VSSL               EXTEND
001626: 00,2146           30155                           DCA      MPAC
001627: 00,2147           20155                           DAS      MPAC
001628: 00,2150           00006                           EXTEND
001629: 00,2151           12153                           BZF      +2
001630: 00,2152           07040                           TC       OVERFLOW
001631:
001632: 00,2153           00006                           EXTEND
001633: 00,2154           30160                           DCA      MPAC       +3
001634: 00,2155           20160                           DAS      MPAC       +3
001635: 00,2156           00006                           EXTEND
001636: 00,2157           12161                           BZF      +2
001637: 00,2160           07035                           TC       OVERFLWY
001638:
001639: 00,2161           00006                           EXTEND
001640: 00,2162           30162                           DCA      MPAC       +5
001641: 00,2163           20162                           DAS      MPAC       +5
001642: 00,2164           00006                           EXTEND
001643: 00,2165           12167                           BZF      +2
001644: 00,2166           07032                           TC       OVERFLWZ
001645:
001646: 00,2167           10135                           CCS      MPTEMP                                #  LOOP ON DECREMENTED SHIFT COUNTER.
001647: 00,2170           12144                           TCF      VSSL       -1
001648: 00,2171           16102                           TCF      DANZIG                                #  EXIT.
001649:


001651:                                                                                                  #           TSLC - TRIPLE SHIFT LEFT AND COUNT. SHIFTS MPAC LEFT UNTIL GREATER THAN .5 IN MAGNITUDE, LEAVING
001652:                                                                                                  #  THE COMPLEMENT OF THE NUMBER OF SHIFTS REQUIRED IN X.
001653:
001654: 00,2172           54135        TSLC2              TS       MPTEMP                                #  START BY ZEROING SHIFT COUNT (IN A NOW).
001655: 00,2173           06744                           TC       BRANCH                                #  EXIT WITH NO SHIFTING IF ARGUMENT ZERO.
001656: 00,2174           12176                           TCF      +2
001657: 00,2175           12212                           TCF      ENDTSLC                               #  STORES ZERO SHIFT COUNT IN THIS CASE.
001658:
001659: 00,2176           07300                           TC       TPAGREE                               #  MAY CAUSE UPSHIFT OF ONE EXTRA PLACE.
001660:
001661: 00,2177           30154                           CA       MPAC                                  #  BEGIN NORMALIZATION LOOP.
001662: 00,2200           12207                           TCF      TSLCTEST
001663:
001664: 00,2201           24135        TSLCLOOP           INCR     MPTEMP                                #  INCREMENT SHIFT COUNTER.
001665: 00,2202           00006                           EXTEND
001666: 00,2203           30156                           DCA      MPAC       +1
001667: 00,2204           20156                           DAS      MPAC       +1
001668: 00,2205           60154                           AD       MPAC
001669: 00,2206           26154                           ADS      MPAC
001670: 00,2207           60000        TSLCTEST           DOUBLE                                         #  SEE IF (ANOTHER) SHIFT IS REQUIRED.
001671: 00,2210           54000                           OVSK
001672: 00,2211           12201                           TCF      TSLCLOOP                              #  YES - INCREMENT COUNT AND SHIFT AGAIN.
001673:
001674: 00,2212           40135        ENDTSLC            CS       MPTEMP
001675: 00,2213           16644                           TCF      STORE1                                #  STORE SHIFT COUNT AND RETURN TO DANZIG.
001676:


001678:                                                                                                  #           THE FOLLOWING ROUTINES PROCESSES THE GENERAL SHIFT INSTRUCTIONS SR, SRR, SL, AND SLR.
001679:                                                                                                  #  THE GIVEN ADDRESS IS DECODED AS FOLLOWS:
001680:
001681:                                                                                                  #           BITS 1-7    SHIFT COUNT (SUBADDRESS) LESS THAN 125 DECIMAL.
001682:                                                                                                  #           BIT 8       PSEUDO SIGN BIT (DETECTS CHANGE IN SIGN IN INDEXED SHIFTS).
001683:                                                                                                  #           BIT 9       0 FOR LEFT SHIFT, AND 1 FOR RIGHT SHIFT.
001684:                                                                                                  #           BIT 10      1 FOR TERMINAL ROUND ON SCALAR SHIFTS, 0 OTHERWISE.
001685:                                                                                                  #           BITS 11-13  0.
001686:                                                                                                  #           BIT 14      1.
001687:                                                                                                  #           BIT 15      0.
001688:
001689:                                                                                                  #  THE ABOVE ENCODING IS DONE BY THE YUL SYSTEM.
001690:
001691:
001692: 00,2214           70116        GENSHIFT           MASK     ADDRWD                                #  GET SHIFT COUNT, TESTING FOR ZERO.
001693: 00,2215           10000                           CCS      A                                     #  (ARRIVES WITH C(A) = LOW7).
001694: 00,2216           12224                           TCF      GENSHFT2                              #  IF NON-ZERO, PROCEED WITH DECREMENTED CT
001695:
001696: 00,2217           34733                           CAF      BIT10                                 #  ZERO SHIFT COUNT. NO SHIFTS NEEDED BUT
001697: 00,2220           70116                           MASK     ADDRWD                                #  WE MIGHT HAVE TO ROUND MPAC ON SLR AND
001698: 00,2221           10000                           CCS      A                                     #  SRR (SCALAR ONLY).
001699: 00,2222           07157                           TC       ROUNDSUB
001700: 00,2223           16102                           TCF      DANZIG
001701:
001702: 00,2224           54135        GENSHFT2           TS       MPTEMP                                #  DECREMENTED SHIFT COUNT TO MPTEMP.
001703: 00,2225           34735                           CAF      BIT8                                  #  TEST MEANING OF LOW SEVEN BIT COUNT IN
001704: 00,2226           00006                           EXTEND                                         #  MPTEMP NOW.
001705: 00,2227           70116                           MP       ADDRWD
001706: 00,2230           76266                           MASK     LOW2                                  #  JUMPS ON SHIFT DIRECTION (BIT8) AND
001707: 00,2231           50000                           INDEX    A
001708: 00,2232           12233                           TCF      +1                                    #  ORIGINAL SHIFT DIRECTION (BIT 9).
001709: 00,2233           12332                           TCF      RIGHT-                                #  NEGATIVE SHIFT COUNT FOR SL OR SLR.
001710: 00,2234           12342                           TCF      LEFT                                  #  SL OR SLR.
001711: 00,2235           12336                           TCF      LEFT-                                 #  NEGATIVE SHIFT COUNT WITH SR OR SRR.
001712:


001714:                                                                                                  #           GENERAL SHIFT RIGHT.
001715:
001716: 00,2236           10163        RIGHT              CCS      MODE                                  #  SEE IF VECTOR OR SCALAR.
001717: 00,2237           12277                           TCF      GENSCR
001718: 00,2240           12277                           TCF      GENSCR
001719:
001720: 00,2241           30135                           CA       MPTEMP                                #  SEE IF SHIFT COUNT LESS THAN 14D.
001721: 00,2242           63733        VRIGHT2            AD       NEG12
001722: 00,2243           00006                           EXTEND
001723: 00,2244           62127                           BZMF     VSSR                                  #  IF SO, BRANCH AND SHIFT IMMEDIATELY.
001724:
001725: 00,2245           67770                           AD       NEGONE                                #  IF NOT, REDUCE MPTEMP BY A TOTAL OF 14,
001726: 00,2246           54135                           TS       MPTEMP                                #  AND DO A SHIFT RIGHT AND ROUND BY 14.
001727: 00,2247           34746                           CAF      ZERO                                  #  THE ROUND AT THIS STAGE MAY INTRODUCE A
001728: 00,2250           54001                           TS       L                                     #  ONE BIT ERROR IN A SHIFT RIGHT 15D.
001729: 00,2251           56154                           XCH      MPAC
001730: 00,2252           56155                           XCH      MPAC       +1
001731: 00,2253           02272                           TC       SETROUND                              #  X COMPONENT NOW SHIFTED, SO MAKE UP THE
001732: 00,2254           20155                           DAS      MPAC                                  #  ROUNDING QUANTITY (0 IN A AND 0 OR +-1
001733:                                                                                                  #  IN L).
001734: 00,2255           56157                           XCH      MPAC       +3                         #  REPEAT THE ABOVE PROCESS FOR Y AND Z.
001735: 00,2256           56160                           XCH      MPAC       +4
001736: 00,2257           02272                           TC       SETROUND
001737: 00,2260           20160                           DAS      MPAC       +3                         #  NO OVERFLOW ON THESE ADDS.
001738:
001739: 00,2261           56161                           XCH      MPAC       +5
001740: 00,2262           56162                           XCH      MPAC       +6
001741: 00,2263           02272                           TC       SETROUND
001742: 00,2264           20162                           DAS      MPAC       +5
001743:
001744: 00,2265           10135                           CCS      MPTEMP                                #  SEE IF DONE, DOING FINAL DECREMENT.
001745: 00,2266           54135                           TS       MPTEMP
001746: 00,2267           12242                           TCF      VRIGHT2
001747: 00,2270           04604        BIASLO             DEC      .2974      B-1                        #  SQRT CONSTANT
001748:
001749: 00,2271           16102                           TCF      DANZIG
001750:
001751: 00,2272           60000        SETROUND           DOUBLE                                         #  MAKES UP ROUNDING QUANTITY FROM ARRIVING
001752: 00,2273           54156                           TS       MPAC       +2                         #  C(A). L IS ZERO INITIALLY.
001753: 00,2274           34746                           CAF      ZERO
001754: 00,2275           56001                           XCH      L
001755: 00,2276           00002                           TC       Q                                     #  RETURN AND DO THE DAS, RESETTING L TO 0.
001756:


001758:                                                                                                  #           PROCESS SR AND SRR FOR SCALARS.
001759:
001760: 00,2277           30135        GENSCR             CA       MPTEMP                                #  SEE IF THE ORIGINAL SHIFT COUNT WAS LESS
001761: 00,2300           63733                 +1        AD       NEG12                                 #  THAN 14D.
001762: 00,2301           00006                           EXTEND
001763: 00,2302           62322                           BZMF     DOSSHFT                               #  DO THE SHIFT IMMEDIATELY IF SO.
001764:
001765: 00,2303           67770                 +4        AD       NEGONE                                #  IF NOT, DECREMENT SHIFT COUNT BY 14D AND
001766: 00,2304           54135                           TS       MPTEMP                                #  SHIFT MPAC RIGHT 14 PLACES.
001767: 00,2305           34746                           CAF      ZERO
001768: 00,2306           56154                           XCH      MPAC
001769: 00,2307           56155                           XCH      MPAC       +1
001770: 00,2310           54156                           TS       MPAC       +2
001771: 00,2311           10135                           CCS      MPTEMP                                #  SEE IF FINISHED, DO FINAL DECREMENT.
001772: 00,2312           54135                           TS       MPTEMP
001773: 00,2313           02300                           TC       GENSCR     +1
001774: 00,2314           22650        SLOPEHI            DEC      .5884                                 #  SQRT CONSTANT.
001775: 00,2315           34733                           CAF      BIT10                                 #  FINISHED WITH SHIFT. SEE IF ROUND
001776: 00,2316           70116                           MASK     ADDRWD                                #  WANTED.
001777: 00,2317           10000                           CCS      A
001778: 00,2320           07157                           TC       ROUNDSUB
001779: 00,2321           16102                           TCF      DANZIG                                #  DO SO AND/OR EXIT.
001780:
001781: 00,2322           50135        DOSSHFT            INDEX    MPTEMP                                #  PICK UP SHIFTING BIT.
001782: 00,2323           34727                           CAF      BIT14
001783: 00,2324           54135                           TS       MPTEMP
001784: 00,2325           34733                           CAF      BIT10                                 #  SEE IF TERMINAL ROUND DESIRED.
001785: 00,2326           70116                           MASK     ADDRWD
001786: 00,2327           10000                           CCS      A
001787: 00,2330           12031                           TCF      RIGHTR                                #  YES.
001788: 00,2331           12033                           TCF      MPACSHR                               #  JUST SHIFT RIGHT.
001789:


001791:                                                                                                  #           PROCESS THE RIGHT- (SL(R) WITH A NEGATIVE COUNT), LEFT-, AND LEFT OPTIONS.
001792:
001793: 00,2332           40135        RIGHT-             CS       MPTEMP                                #  GET ABSOLUTE VALUE - 1 OF SHIFT COUNT
001794: 00,2333           62126                           AD       OCT176                                #  UNDERSTANDING THAT BIT8 (PSEUDO-SIGN)
001795: 00,2334           54135                           TS       MPTEMP                                #  WAS 1 INITIALLY.
001796: 00,2335           12236                           TCF      RIGHT                                 #  DO NORMAL SHIFT RIGHT.
001797:
001798: 00,2336           42126        LEFT-              CS       OCT176                                #  SAME PROLOGUE TO LEFT FOR INDEXED RIGHT
001799: 00,2337           60135                           AD       MPTEMP                                #  SHIFTS WHOSE NET SHIFT COUNT IS NEGATIVE
001800: 00,2340           40000                           COM
001801: 00,2341           54135                           TS       MPTEMP
001802:
001803: 00,2342           10163        LEFT               CCS      MODE                                  #  SINCE LEFT SHIFTING IS SONE ONE PLACE AT
001804: 00,2343           12346                           TCF      GENSCL                                #  A TIME, NO COMPARISON WITH 14 NEED BE
001805: 00,2344           12346                           TCF      GENSCL                                #  DONE. FOR SCALARS, SEE IF TERMINAL ROUND
001806: 00,2345           12145                           TCF      VSSL                                  #  DESIRED. FOR VECTORS, SHIFT IMMEDIATELY.
001807:
001808: 00,2346           40116        GENSCL             CS       ADDRWD                                #  PUT ROUNDING BIT (BIT 10 OF ADDRWD)INTO
001809: 00,2347           00006                           EXTEND                                         #  BIT 15 OF CYR WHERE THE ROUNDING BIT OF
001810: 00,2350           74737                           MP       BIT6                                  #  A SHORT SHIFT LEFT WOULD BE
001811: 00,2351           54020                           TS       CYR
001812: 00,2352           12103                           TCF      TSSL       +2                         #  DO THE SHIFT.
001813:


001815:                                                                                                  #           SCALAR DIVISION INSTRUCTIONS, DDV AND BDDV, ARE EXECUTED HERE. AT THIS POINT, THE DIVIDEND IS IN MPAC
001816:                                                                                                  #  AND THE DIVISOR IN BUF.
001817:
001818: 00,2353           44744        DDV/BDDV           CS       ONE                                   #  INITIALIZATION.
001819: 00,2354           54136                           TS       DVSIGN                                #  +-1 FOR POSITIVE QUOTIENT - -0 FOR NEG.
001820: 00,2355           54137                           TS       DVNORMCT                              #  DIVIDEND NORMALIZATION COUNT.
001821: 00,2356           54140                           TS       MAXDVSW                               #  NEAR-ONE DIVIDE FLAG.
001822:
001823: 00,2357           10130                           CCS      BUF                                   #  FORCE BUF POSITIVE WITH THE MAJOR PART
001824: 00,2360           12516                           TCF      BUFPOS                                #  NON-ZERO.
001825: 00,2361           12363                           TCF      +2
001826: 00,2362           12531                           TCF      BUFNEG
001827:
001828: 00,2363           54156        BUFZERO            TS       MPAC       +2                         #  ZERO THIS.
001829: 00,2364           07300                           TC       TPAGREE                               #  FORCE SIGN AGREEMENT BEFORE OVERFLOW
001830:
001831: 00,2365           10154                           CCS      MPAC                                  #  TEST TO SEE IF MPAC NON-ZERO.  (TOO BIG)
001832: 00,2366           12414                           TCF      OVF+                                  #  MAJOR PART OF DIVIDEND IS POSITIVE NON-0
001833: 00,2367           12371                           TCF      +2
001834: 00,2370           12413                           TCF      OVF+       -1                         #  MAJOR PART OF DIVIDEND IS NEG. NON-ZERO
001835:
001836: 00,2371           56131                           XCH      BUF        +1                         #  SHIFT DIVIDEND AND DIVISOR LEFT 14.
001837: 00,2372           56130                           XCH      BUF
001838: 00,2373           56155                           XCH      MPAC       +1
001839: 00,2374           56154                           XCH      MPAC
001840: 00,2375           10130                           CCS      BUF                                   #  TRY AGAIN ON FORMER MINOR PART.
001841: 00,2376           12422                           TCF      BUF+
001842: 00,2377           12401                           TCF      +2                                    #  OVERFLOW ON ZERO DIVISOR.
001843: 00,2400           12416                           TCF      BUF-
001844:
001845: 00,2401           40154                           CS       MPAC                                  #  SIGN OF MPAC DETERMINES SIGN OF RESULT.
001846: 00,2402           00006        SGNDVOVF           EXTEND
001847: 00,2403           62405                           BZMF     +2
001848: 00,2404           24136                           INCR     DVSIGN                                #  NEGMAX IN MPAC PERHAPS.
001849: 00,2405           34724        DVOVF              CAF      POSMAX                                #  ON DIVISION OVERFLOW OF ANY SORT, SET
001850: 00,2406           54154                           TS       MPAC                                  #  SET DP MPAC TO +-POSMAX.
001851: 00,2407           02630                           TC       FINALDV    +3
001852: 00,2410           34744                           CAF      ONE                                   #  SET OVERFLOW INDICATOR AND EXIT.
001853: 00,2411           54121                           TS       OVFIND
001854: 00,2412           06102                           TC       DANZIG
001855:
001856: 00,2413           24136                 -1        INCR     DVSIGN
001857: 00,2414           40131        OVF+               CS       BUF        +1                         #  LOAD LOWER ORDER PART OF DIVISOR.
001858: 00,2415           12402                           TCF      SGNDVOVF                              #  GET SIGN OF RESULT.
001859:
001860: 00,2416           00006        BUF-               EXTEND                                         #  IF BUF IS NEGATIVE, COMPLEMENT IT AND
001861: 00,2417           40131                           DCS      BUF                                   #  MAINTAIN DVSIGN FOR FINAL QUOTIENT SIGN.
001862: 00,2420           52131                           DXCH     BUF
001863: 00,2421           24136                           INCR     DVSIGN                                #  NOW -0.
001864:


001866: 00,2422           10154        BUF+               CCS      MPAC                                  #  FORCE MPAC POSITIVE, CHECKING FOR ZERO
001867: 00,2423           12437                           TCF      MPAC+                                 #  DIVIDEND IN THE PROCESS.
001868: 00,2424           12426                           TCF      +2
001869: 00,2425           12433                           TCF      MPAC-
001870: 00,2426           10155                           CCS      MPAC       +1
001871: 00,2427           12437                           TCF      MPAC+
001872: 00,2430           16102                           TCF      DANZIG                                #  EXIT IMMEDIATELY ON ZERO DIVIDEND.
001873: 00,2431           12433                           TCF      MPAC-
001874: 00,2432           16102                           TCF      DANZIG
001875:
001876: 00,2433           00006        MPAC-              EXTEND                                         #  FORCE MPAC POSITIVE AS BUF IN BUF-.
001877: 00,2434           40155                           DCS      MPAC
001878: 00,2435           52155                           DXCH     MPAC
001879: 00,2436           24136                           INCR     DVSIGN                                #  NOW +1 OR -0.
001880:


001882: 00,2437           40154        MPAC+              CS       MPAC                                  #  CHECK FOR DIVISION OVERFLOW. IF THE
001883: 00,2440           67770                           AD       NEGONE                                #  MAJOR PART OF THE DIVIDEND IS LESS THAN
001884: 00,2441           60130                           AD       BUF                                   #  THE MAJOR PART OF THE DIVISOR BY AT
001885: 00,2442           10000                           CCS      A                                     #  LEAST TWO, WE CAN PROCEED IMMEDIATELY
001886: 00,2443           12505                           TCF      DVNORM                                #  WITHOUT NORMALIZATION PRODUCING A DVMAX.
001887: 00,2444           60001        -1/2+2             OCT      60001                                 #  USED IN SQRTSUB.
001888:
001889: 00,2445           12446                           TCF      +1                                    #  IF THE ABOVE DOES NOT HOLD, FORCE SIGN
001890: 00,2446           34727                           CAF      HALF                                  #  AGREEMENT IN NUMERATOR AND DENOMINATOR
001891: 00,2447           60000                           DOUBLE                                         #  TO FACILITATE OVERFLOW AND NEAR-ONE
001892: 00,2450           60155                           AD       MPAC       +1                         #  CHECKING.
001893: 00,2451           54155                           TS       MPAC       +1
001894: 00,2452           34746                           CAF      ZERO
001895: 00,2453           64724                           AD       POSMAX
001896: 00,2454           26154                           ADS      MPAC
001897:
001898: 00,2455           34727                           CAF      HALF                                  #  SAME FOR BUF.
001899: 00,2456           60000                           DOUBLE
001900: 00,2457           60131                           AD       BUF        +1
001901: 00,2460           54131                           TS       BUF        +1
001902: 00,2461           34746                           CAF      ZERO
001903: 00,2462           64724                           AD       POSMAX
001904: 00,2463           26130                           ADS      BUF
001905:
001906: 00,2464           40154                           CS       MPAC                                  #  CHECK MAGNITUDE OF SIGN-CORRECTED
001907: 00,2465           60130                           AD       BUF                                   #  OPERANDS.
001908: 00,2466           10000                           CCS      A
001909: 00,2467           12505                           TCF      DVNORM                                #  DIVIDE OK - WILL NOT BECOME MAXDV CASE.
001910: 00,2470           00133        LBUF2              ADRES    BUF2
001911: 00,2471           12405                           TCF      DVOVF                                 #  DIVISOR NOT LESS THAN DIVIDEND - OVF.
001912:
001913: 00,2472           54140                           TS       MAXDVSW                               #  IF THE MAJOR PARTS OF THE DIVIDEND AND
001914: 00,2473           40155                           CS       MPAC       +1                         #  DIVISOR ARE EQUAL, A SPECIAL APPROXIMA-
001915: 00,2474           60131                           AD       BUF        +1                         #  TION IS USED (PROVIDED THE DIVISION IS
001916: 00,2475           00006                           EXTEND                                         #  POSSIBLE, OF COURSE).
001917: 00,2476           62405                           BZMF     DVOVF
001918: 00,2477           12505                           TCF      DVNORM                                #  IF NO OVERFLOW.
001919:


001921: 00,2500           00006        BUFNORM            EXTEND                                         #  ADD -1 TO AUGMENT SHIFT COUNT AND SHIFT
001922: 00,2501           24137                           AUG      DVNORMCT                              #  LEFT ONE PLACE.
001923: 00,2502           00006                           EXTEND
001924: 00,2503           30131                           DCA      BUF
001925: 00,2504           20131                           DAS      BUF
001926:
001927: 00,2505           30130        DVNORM             CA       BUF                                   #  SEE IF DIVISOR NORMALIZED YET.
001928: 00,2506           60000                           DOUBLE
001929: 00,2507           54000                           OVSK
001930: 00,2510           12500                           TCF      BUFNORM                               #  NO - SHIFT LEFT ONE AND TRY AGAIN.
001931:
001932: 00,2511           52155                           DXCH     MPAC                                  #  CALL DIVIDEND NORMALIZATION SEQUENCE
001933: 00,2512           50137                           INDEX    DVNORMCT                              #  PRIOR TO DOING THE DIVIDE.
001934: 00,2513           02565                           TC       MAXTEST
001935:
001936: 00,2514           54156                           TS       MPAC       +2                         #  RETURNS WITH DIVISION DONE AND C(A) = 0.
001937: 00,2515           16102                           TCF      DANZIG
001938:
001939: 00,2516           10000        BUFPOS             CCS      A
001940: 00,2517           12422                           TCF      BUF+                                  #  TO BUF+ IF BUF IS GREATER THAN +1.
001941:
001942: 00,2520           40131                           CS       BUF        +1                         #  IF BUF IS +1, FORCING SIGN AGREEMENT
001943: 00,2521           00006                           EXTEND                                         #  MAY CAUSE BUF TO BECOME ZERO.
001944: 00,2522           62422                           BZMF     BUF+                                  #  BRANCH IF SIGNS AGREE.
001945:
001946: 00,2523           34727                           CA       HALF                                  #  SIGNS DISAGREE.  FORCE AGREEMENT.
001947: 00,2524           60000                 +6        DOUBLE
001948: 00,2525           26131                           ADS      BUF        +1
001949: 00,2526           34746                           CA       ZERO
001950: 00,2527           54130                           TS       BUF
001951: 00,2530           12363                           TCF      BUFZERO
001952:
001953: 00,2531           10000        BUFNEG             CCS      A
001954: 00,2532           12416                           TCF      BUF-                                  #  TO BUF- IF BUF IS LESS THAN -1.
001955:
001956: 00,2533           30131                           CA       BUF        +1                         #  IF BUF IS -1, FORCING SIGN AGREEMENT
001957: 00,2534           00006                           EXTEND                                         #  MAY CAUSE BUF TO BECOME ZERO.
001958: 00,2535           62416                           BZMF     BUF-                                  #  BRANCH IF SIGNS AGREE.
001959:
001960: 00,2536           44727                           CS       HALF                                  #  SIGNS DISAGREE.  FORCE AGREEMENT.
001961: 00,2537           12524                           TCF      BUFPOS     +6
001962:


001964:                                                                                                  #           THE FOLLOWING ARE PROLOGUES TO SHIFT THE DIVIDEND ARRIVING IN A AND L BEFORE THE DIVIDE.
001965:
001966: 00,2540           22021                 -21D      LXCH     SR                                    #  SPECIAL PROLOGUE FOR UNIT WHEN THE
001967: 00,2541           00006                           EXTEND                                         #  LENGTH OF THE ARGUMENT WAS NOT LESS THAN
001968: 00,2542           74727                           MP       HALF                                  #  .5. IN THIS CASE, EACH COMPONENT MUST BE
001969: 00,2543           56001                           XCH      L                                     #  SHIFTED RIGHT ONE TO PRODUCE A HALF-UNIT
001970: 00,2544           60021                           AD       SR                                    #  VECTOR.
001971: 00,2545           56001                           XCH      L
001972: 00,2546           12571                           TCF      GENDDV     +1                         #  WITH DP DIVIDEND IN A,L.
001973:
001974: 00,2547           20001                           DDOUBL                                         #  PROLOGUE WHICH NORMALIZES THE DIVIDEND
001975: 00,2550           20001                           DDOUBL                                         #  WHEN IT IS KNOWN THAT NO DIVISION
001976: 00,2551           20001                           DDOUBL                                         #  OVERFLOW WILL OCCUR.
001977: 00,2552           20001                           DDOUBL
001978: 00,2553           20001                           DDOUBL
001979: 00,2554           20001                           DDOUBL
001980: 00,2555           20001                           DDOUBL
001981: 00,2556           20001                           DDOUBL
001982: 00,2557           20001                           DDOUBL
001983: 00,2560           20001                           DDOUBL
001984: 00,2561           20001                           DDOUBL
001985: 00,2562           20001                           DDOUBL
001986: 00,2563           20001                           DDOUBL
001987: 00,2564           52155                           DXCH     MPAC
001988:
001989: 00,2565           10140        MAXTEST            CCS      MAXDVSW                               #  0 IF MAJORS MIGHT BE =, -1 OTHERWISE.
001990: 00,2566           06552        BIASHI             DEC      .4192      B-1                        #  SQRT CONSTANTS
001991:
001992: 00,2567           12642                           TCF      MAXDV                                 #  CHECK TO SEE IF THEY ARE NOW EQUAL.
001993:


001995:                                                                                                  #           THE FOLLOWING IS A GENERAL PURPOSE DOUBLE PRECISION DIVISION ROUTINE. IT DIVIDES MPAC BY BUF AND LEAVES
001996:                                                                                                  #  THE RESULT IN MPAC. THE FOLLOWING CONDITIONS MUST BE SATISFIED:
001997:
001998:                                                                                                  #           1.  THE DIVISOR (BUF) MUST BE POSITIVE AND NOT LESS THAN .5.
001999:
002000:                                                                                                  #           2.  THE DIVIDEND (MPAC) MUST BE POSITIVE WITH THE MAJOR PART OF MPAC STRICTLY LESS THAN THAT OF BUF
002001:                                                                                                  #  (A SPECIAL APPROXIMATION, MAXDV, IS USED WHEN THE MAJOR PARTS ARE EQUAL).
002002:
002003:                                                                                                  #           UNDERSTANDING THAT A/B = Q + S(R/B) WHERE S = 2(-14) AND Q AND R ARE QUOTIENT AND REMAINDER, RESPEC-
002004:                                                                                                  #  TIVELY, THE FOLLOWING APPROXIMATION IS OBTAINED BY MULTIPLYING ABOVE AND BELOW BY C - SD AND NEGLECTING TERMS OF
002005:                                                                                                  #  ORDER S-SQUARED (POSSIBLY INTRODUCING ERROR INTO THE LOW TWO BITS OF THE RESULT). SIGN AGREEMENT IS UNNECESSARY.
002006:
002007:                                                                                                  #           A + SB .      (R - QD)                                             A + SB
002008:                                                                                                  #           ------ = Q + S(------) WHERE Q AND R ARE QUOTIENT AND REMAINDER OF ------ RESPECTIVELY.
002009:                                                                                                  #           C + SD        (  C   )                                               C
002010:
002011:
002012: 00,2570           52155        GENDDV             DXCH     MPAC                                  #  WE NEED A AND B ONLY FOR FIRST DV.
002013: 00,2571           00006                 +1        EXTEND                                         #  (SPECIAL UNIT PROLOGUE ENTERS HERE).
002014: 00,2572           10130                           DV       BUF                                   #  A NOW CONTAINS Q AND L, R.
002015: 00,2573           52155                           DXCH     MPAC
002016:
002017: 00,2574           40154                           CS       MPAC                                  #  FORM DIVIDEND FOR MINOR PART OF RESULT.
002018: 00,2575           00006                           EXTEND
002019: 00,2576           70131                           MP       BUF        +1
002020: 00,2577           60155                           AD       MPAC       +1                         #  OVERFLOW AT THIS POINT IS POSITIVE SINCE
002021: 00,2600           54000                           OVSK                                           #  R IS POSITIVE IN EVERY CASE.
002022: 00,2601           12606                           TCF      +5
002023:
002024: 00,2602           00006                           EXTEND                                         #  OVERFLOW CAN BE REMOVED BY SUBTRACTING C
002025: 00,2603           60130                           SU       BUF                                   #  (BUF) ONCE SINCE R IS ALWAYS LESS THAN C
002026: 00,2604           24154                           INCR     MPAC                                  #  IN THIS CASE. INCR COMPENSATES SUBTRACT.
002027: 00,2605           12610                           TCF      +DOWN                                 #  (SINCE C(A) IS STILL POSITIVE).
002028:
002029: 00,2606           00006                 +5        EXTEND                                         #  C(A) CAN BE MADE LESS THAN C IN MAGNI-
002030: 00,2607           62620                           BZMF     -UP                                   #  TUDE BY DIMINISHING IT BY C (SINCE C IS
002031:                                                                                                  #  NOT LESS THAN .5) UNLESS C(A) = 0.
002032:


002034: 00,2610           00006        +DOWN              EXTEND
002035: 00,2611           60130                           SU       BUF                                   #  IF POSITIVE, REDUCE ONLY IF NECESSARY
002036: 00,2612           00006                           EXTEND                                         #  SINCE THE COMPENSATING INCR MIGHT CAUSE
002037: 00,2613           12616                           BZF      +3                                    #  OVERFLOW.
002038: 00,2614           00006                           EXTEND                                         #  DONT SUBTRACT UNLESS RESULT IS POSITIVE
002039: 00,2615           62624                           BZMF     ENDMAXDV                              #  OR ZERO.
002040:
002041: 00,2616           24154                 +3        INCR     MPAC                                  #  KEEP SUBTRACT HERE AND COMPENSATE.
002042: 00,2617           12625                           TCF      FINALDV
002043:
002044: 00,2620           00006        -UP                EXTEND                                         #  IF ZERO, SET MINOR PART OF RESULT TO
002045: 00,2621           12630                           BZF      FINALDV    +3                         #  ZERO.
002046:
002047: 00,2622           00006                           EXTEND                                         #  IF NEGATIVE, ADD C TO A, SUBTRACTING ONE
002048: 00,2623           26154                           DIM      MPAC                                  #  TO COMPENSATE. DIM IS OK HERE SINCE THE
002049: 00,2624           60130        ENDMAXDV           AD       BUF                                   #  MAJOR PART NEVER GOES NEGATIVE.
002050:


002052: 00,2625           22007        FINALDV            ZL                                             #  DO DV TO OBTAIN MINOR PART OF RESULT.
002053: 00,2626           00006                           EXTEND
002054: 00,2627           10130                           DV       BUF
002055: 00,2630           54155                 +3        TS       MPAC       +1
002056:
002057: 00,2631           10136                           CCS      DVSIGN                                #  LEAVE RESULT POSITIVE UNLESS C(DVSIGN)=
002058: 00,2632           00002                           TC       Q                                     #  -0.
002059: 00,2633           00002                           TC       Q
002060: 00,2634           00002                           TC       Q
002061:
002062: 00,2635           00006                           EXTEND
002063: 00,2636           40155                           DCS      MPAC
002064: 00,2637           52155                           DXCH     MPAC
002065: 00,2640           34746                           CAF      ZERO                                  #  SO WE ALWAYS RETURN WITH C(A) = 0.
002066: 00,2641           00002                           TC       Q
002067:


002069:                                                                                                  #           IF THE MAJOR PARTS OF THE DIVISOR AND DIVIDEND ARE EQUAL, BUT THE MINOR PARTS ARE SUCH THAT THE
002070:                                                                                                  #  DIVIDEND IS STRICTLY LESS THAN THE DIVISOR IN MAGNITUDE, THE FOLLOWING APPROXIMATION IS USED. THE ASSUMPTIONS
002071:                                                                                                  #  ARE THE SAME AS THE GENERAL ROUTINE WITH THE ADDITION THAT SIGN AGREEMENT IS NECESSARY (B, C, & D POSITIVE).
002072:
002073:                                                                                                  #                  C + SB .          (C + B - D)
002074:                                                                                                  #                  ------ = 37777 + S(---------)
002075:                                                                                                  #                  C + SD            (    C    )
002076:
002077:                                                                                                  #           THE DIVISION MAY BE PERFORMED IMMEDIATELY SINCE B IS STRICTLY LESS THAN D AND C IS NOT LESS THAN .5.
002078:
002079: 00,2642           40154        MAXDV              CS       MPAC                                  #  SEE IF MAXDV CASE STILL HOLDS AFTER
002080: 00,2643           60130                           AD       BUF                                   #  NORMALIZATION.
002081: 00,2644           00006                           EXTEND
002082: 00,2645           12647                           BZF      +2
002083: 00,2646           12570                           TCF      GENDDV                                #  MPAC NOW LESS THAN BUF - DIVIDE AS USUAL
002084:
002085: 00,2647           34724                 +2        CAF      POSMAX                                #  SET MAJOR PART OF RESULT.
002086: 00,2650           54154                           TS       MPAC
002087:
002088: 00,2651           40131                           CS       BUF        +1                         #  FORM DIVIDEND OF MINOR PART OF RESULT.
002089: 00,2652           60155                           AD       MPAC       +1
002090: 00,2653           12624                           TCF      ENDMAXDV                              #  GO ADD C AND DO DIVIDE, ATTACHING SIGN
002091:                                                                                                  #  BEFORE EXITING.
002092:


002094:                                                                                                  #           VECTOR DIVIDED BY SCALAR, V/SC, IS EXECUTED HERE. THE VECTOR IS NOW IN MPAC WITH SCALAR IN BUF.
002095:
002096: 00,2654           44744        V/SC2              CS       ONE                                   #  INITIALIZE DIVIDEND NORMALIZATION COUNT
002097: 00,2655           54137                           TS       DVNORMCT                              #  AND DIVISION SIGN REGISTER.
002098: 00,2656           54127                           TS       VBUF       +5
002099:
002100: 00,2657           03010                           TC       VECAGREE                              #  FORCE SIGN AGREEMENT IN VECTOR
002101:
002102: 00,2660           52131                           DXCH     BUF
002103: 00,2661           07565                           TC       ALSIGNAG                              #  SIGN AGREE BUF
002104: 00,2662           52131                           DXCH     BUF
002105: 00,2663           10130                           CCS      BUF                                   #  FORCE DIVISOR POSITIVE WITH MAJOR PART
002106: 00,2664           12721                           TCF      /BUF+                                 #  NON-ZERO (IF POSSIBLE).
002107: 00,2665           12667                           TCF      +2
002108: 00,2666           12715                           TCF      /BUF-
002109:
002110: 00,2667           56131                           XCH      BUF        +1                         #  SHIFT VECTOR AND SCALAR LEFT 14.
002111: 00,2670           56130                           XCH      BUF
002112: 00,2671           56155                           XCH      MPAC       +1
002113: 00,2672           56154                           XCH      MPAC
002114: 00,2673           00006                           EXTEND                                         #  CHECK FOR OVERFLOW IN EACH CASE.
002115: 00,2674           12676                           BZF      +2
002116: 00,2675           12405                           TCF      DVOVF
002117:
002118: 00,2676           56160                           XCH      MPAC       +4
002119: 00,2677           56157                           XCH      MPAC       +3
002120: 00,2700           00006                           EXTEND
002121: 00,2701           12703                           BZF      +2
002122: 00,2702           12405                           TCF      DVOVF
002123:
002124: 00,2703           56162                           XCH      MPAC       +6
002125: 00,2704           56161                           XCH      MPAC       +5
002126: 00,2705           00006                           EXTEND
002127: 00,2706           12710                           BZF      +2
002128: 00,2707           12405                           TCF      DVOVF
002129:
002130: 00,2710           10130                           CCS      BUF
002131: 00,2711           12721                           TCF      /BUF+
002132: 00,2712           12405                           TCF      DVOVF                                 #  ZERO DIVISOR - OVERFLOW.
002133: 00,2713           12715                           TCF      /BUF-
002134: 00,2714           12405                           TCF      DVOVF
002135:
002136: 00,2715           00006        /BUF-              EXTEND                                         #  ON NEGATIVE, COMPLEMENT BUF AND MAINTAIN
002137: 00,2716           40131                           DCS      BUF                                   #  DVSIGN IN VBUF +5.
002138: 00,2717           52131                           DXCH     BUF
002139: 00,2720           24127                           INCR     VBUF       +5
002140:


002142: 00,2721           00006        /BUF+              EXTEND
002143: 00,2722           30131                           DCA      BUF                                   #  LEAVE ABS(ORIG DIVISOR) IN BUF2
002144: 00,2723           52134                           DXCH     BUF2                                  #  FOR OVERFLOW TESTING
002145: 00,2724           12732                           TCF      /NORM                                 #  NORMALIZE DIVISOR IN BUF.
002146:
002147: 00,2725           00006        /NORM2             EXTEND                                         #  IF LESS THAN .5, AUGMENT DVNORMCT AND
002148: 00,2726           24137                           AUG      DVNORMCT                              #  DOUBLE DIVISOR.
002149: 00,2727           00006                           EXTEND
002150: 00,2730           30131                           DCA      BUF
002151: 00,2731           20131                           DAS      BUF
002152:
002153: 00,2732           30130        /NORM              CA       BUF                                   #  SEE IF DIVISOR NORMALIZED.
002154: 00,2733           60000                           DOUBLE
002155: 00,2734           54000                           OVSK
002156: 00,2735           12725                           TCF      /NORM2                                #  DOUBLE AND TRY AGAIN IF NOT.
002157:
002158: 00,2736           02750                           TC       V/SCDV                                #  DO X COMPONENT DIVIDE.
002159: 00,2737           52160                           DXCH     MPAC       +3                         #  SUPPLY ARGUMENTS IN USUAL SEQUENCE.
002160: 00,2740           52155                           DXCH     MPAC
002161: 00,2741           52160                           DXCH     MPAC       +3
002162:
002163: 00,2742           02750                           TC       V/SCDV                                #  Y COMPONENT.
002164: 00,2743           52162                           DXCH     MPAC       +5
002165: 00,2744           52155                           DXCH     MPAC
002166: 00,2745           52162                           DXCH     MPAC       +5
002167:
002168: 00,2746           02750                           TC       V/SCDV                                #  Z COMPONENT.
002169: 00,2747           17441                           TCF      VROTATEX                              #  GO RE-ARRANGE COMPONENTS BEFORE EXIT.
002170:


002172:                                                                                                  #           SUBROUTINE USED BY V/SC TO DIVIDE VECTOR COMPONENT IN MPAC,+1 BY THE SCALAR GIVEN IN BUF.
002173:
002174: 00,2750           30127        V/SCDV             CA       VBUF       +5                         #  REFLECTS SIGN OF SCALAR.
002175: 00,2751           54136                           TS       DVSIGN
002176:
002177: 00,2752           10154                           CCS      MPAC                                  #  FORCE MPAC POSITIVE, EXITING ON ZERO.
002178: 00,2753           12767                           TCF      /MPAC+
002179: 00,2754           12756                           TCF      +2
002180: 00,2755           12763                           TCF      /MPAC-
002181:
002182: 00,2756           10155                           CCS      MPAC       +1
002183: 00,2757           12767                           TCF      /MPAC+
002184: 00,2760           00002                           TC       Q
002185: 00,2761           12763                           TCF      /MPAC-
002186: 00,2762           00002                           TC       Q
002187:
002188: 00,2763           00006        /MPAC-             EXTEND                                         #  USUAL COMPLEMENTING AND SETTING OF SIGN.
002189: 00,2764           40155                           DCS      MPAC
002190: 00,2765           52155                           DXCH     MPAC
002191: 00,2766           24136                           INCR     DVSIGN
002192:
002193: 00,2767           44744        /MPAC+             CS       ONE                                   #  INITIALIZE NEAR-ONE SWITCH.
002194: 00,2770           54140                           TS       MAXDVSW
002195:
002196: 00,2771           40154                           CS       MPAC                                  #  CHECK POSSIBLE OVERFLOW.
002197: 00,2772           60133                           AD       BUF2                                  #  UNNORMALIZED INPUT DIVISOR.
002198: 00,2773           10000                           CCS      A
002199: 00,2774           13004                           TCF      DDVCALL                               #  NOT NEAR-ONE
002200: 00,2775           12777                           TCF      +2                                    #  +0 IS JUST POSSIBLE
002201: 00,2776           12405                           TCF      DVOVF                                 #  NO HOPE
002202: 00,2777           54140                           TS       MAXDVSW                               #  SIGNAL POSSIBLE NEAR-ONE CASE
002203: 00,3000           40155                           CS       MPAC       +1                         #  SEE IF DIVISION CAN BE DONE
002204: 00,3001           60134                           AD       BUF2       +1
002205: 00,3002           00006                           EXTEND
002206: 00,3003           62405                           BZMF     DVOVF
002207:
002208: 00,3004           52155        DDVCALL            DXCH     MPAC                                  #  CALL PRE-DIVIDE NORMALIZATION.
002209: 00,3005           50137                           INDEX    DVNORMCT
002210: 00,3006           12565                           TCF      MAXTEST
002211:


002213: 00,3007           32506        SLOPELO            DEC      .8324
002214:
002215: 00,3010           56002        VECAGREE           XCH      Q                                     #  SAVE Q IN A
002216: 00,3011           52155                           DXCH     MPAC
002217: 00,3012           07565                           TC       ALSIGNAG                              #  SIGNAGREE MPAC
002218: 00,3013           52155                           DXCH     MPAC
002219: 00,3014           52160                           DXCH     MPAC       +3
002220: 00,3015           07565                           TC       ALSIGNAG                              #  SIGN AGREE MPAC +3
002221: 00,3016           52160                           DXCH     MPAC       +3
002222: 00,3017           52162                           DXCH     MPAC       +5
002223: 00,3020           07565                           TC       ALSIGNAG                              #  SIGNAGREE MPAC +5
002224: 00,3021           52162                           DXCH     MPAC       +5
002225: 00,3022           00000                           TC       A
002226:


002228:                                                                                                  #           THE FOLLOWING ROUTINE EXECUTES THE UNIT INSTRUCTION, WHICH TAKES THE UNIT OF THE VECTOR IN MPAC.
002229:
002230: 00,3023           03010        UNIT               TC       VECAGREE                              #  FORCE SIGN AGREEMENT IN VECTOR
002231: 00,3024           07553                           TC       MPACVBUF                              #  SAVE ARGUMENT IN VBUF
002232: 00,3025           34746                           CAF      ZERO                                  #  MUST SENSE OVERFLOW IN FOLLOWING DOT.
002233: 00,3026           56121                           XCH      OVFIND
002234: 00,3027           54141                           TS       TEM1
002235: 00,3030           03317                           TC       VSQSUB                                #  DOT MPAC WITH ITSELF.
002236: 00,3031           30141                           CA       TEM1
002237: 00,3032           56121                           XCH      OVFIND
002238: 00,3033           00006                           EXTEND
002239: 00,3034           13036                           BZF      +2
002240: 00,3035           12405                           TCF      DVOVF
002241: 00,3036           00006                           EXTEND
002242: 00,3037           30155                           DCA      MPAC                                  #  LEAVE THE SQUARE OF THE LENGTH OF THE
002243: 00,3040           50120                           INDEX    FIXLOC                                #  ARGUMENT IN LVSQUARE.
002244: 00,3041           52043                           DXCH     LVSQUARE
002245:
002246: 00,3042           03343                           TC       SQRTSUB                               #  GO TAKE THE NORMALIZED SQUARE ROOT.
002247:
002248: 00,3043           10154                           CCS      MPAC                                  #  CHECK FOR UNIT OVERFLOW.
002249: 00,3044           13051                           TCF      +5                                    #  MPAC IS NOT LESS THAN .5 UNLESS
002250: 00,3045           54001                           TS       L
002251: 00,3046           50120                           INDEX    FIXLOC
002252: 00,3047           52045                           DXCH     LV
002253: 00,3050           12405                           TCF      DVOVF                                 #  INPUT TO SQRTSUB WAS 0.
002254:
002255: 00,3051           44310                           CS       FOURTEEN                              #  SEE IF THE INPUT WAS SO SMALL THE THE
002256: 00,3052           60135                           AD       MPTEMP                                #  FIRST TWO REGISTERS OF THE SQUARE WERE 0
002257: 00,3053           10000                           CCS      A
002258: 00,3054           40000                           COM                                            #  IF SO, SAVE THE NEGATIVE OF THE SHIFT
002259: 00,3055           13133                           TCF      SMALL                                 #  COUNT -15D.
002260:
002261: 00,3056           13065                           TCF      LARGE                                 #  (THIS IS USUALLY THE CASE.)
002262:
002263: 00,3057           44752                           CS       THIRTEEN                              #  IF THE SHIFT COUNT WAS EXACTLY 14, SET
002264: 00,3060           54135                           TS       MPTEMP                                #  THE PRE-DIVIDE NORM COUNT TO -13D.
002265:
002266: 00,3061           30154                           CA       MPAC                                  #  SHIFT THE LENGTH RIGHT 14 BEFORE STORING
002267: 00,3062           54001        SMALL2             TS       L                                     #  (SMALL EXITS TO THIS POINT).
002268: 00,3063           34746                           CAF      ZERO
002269: 00,3064           13112                           TCF      LARGE2                                #  GO TO STORE LENGTH AND PROCEED.
002270:
002271: 00,3065           10135        LARGE              CCS      MPTEMP                                #  MOST ALL CASES COME HERE.
002272: 00,3066           13074                           TCF      LARGE3                                #  SEE IF NO NORMALIZATION WAS REQUIRED BY
002273:
002274: 00,3067           42024                           CS       SRDDV                                 #  SQRT, AND IF SO, SET UP FOR A SHIFT
002275: 00,3070           54135                           TS       MPTEMP                                #  RIGHT 1 BEFORE DIVIDING TO PRODUCE
002276: 00,3071           00006                           EXTEND                                         #  THE DESIRED HALF UNIT VECTOR.
002277: 00,3072           30155                           DCA      MPAC


002279: 00,3073           13112                           TCF      LARGE2
002280:


002282: 00,3074           40000        LARGE3             COM                                            #  LEAVE NEGATIVE OF SHIFT COUNT-1 FOR
002283: 00,3075           54135                           TS       MPTEMP                                #  PREDIVIDE LEFT SHIFT.
002284:
002285: 00,3076           40000                           COM                                            #  PICK UP REQUIRED SHIFTING BIT TO UNNORM-
002286: 00,3077           50000                           INDEX    A                                     #  ALIZE THE SQRT RESULT.
002287: 00,3100           34727                           CAF      BIT14
002288: 00,3101           54130                           TS       BUF
002289: 00,3102           00006                           EXTEND
002290: 00,3103           70155                           MP       MPAC       +1
002291: 00,3104           56130                           XCH      BUF
002292: 00,3105           00006                           EXTEND                                         #  (UNNORMALIZE THE SQRT FOR LV).
002293: 00,3106           70154                           MP       MPAC
002294: 00,3107           56001                           XCH      L
002295: 00,3110           60130                           AD       BUF
002296: 00,3111           56001                           XCH      L
002297:
002298: 00,3112           50120        LARGE2             INDEX    FIXLOC
002299: 00,3113           52045                           DXCH     LV                                    #  LENGTH NOW STORED IN WORK AREA.
002300:
002301: 00,3114           44744                           CS       ONE
002302: 00,3115           54140                           TS       MAXDVSW                               #  NO MAXDV CASES IN UNIT.
002303:
002304: 00,3116           52123                           DXCH     VBUF                                  #  PREPARE X COMPONENT FOR DIVIDE, SETTING
002305: 00,3117           52155                           DXCH     MPAC                                  #  LENGTH OF VECTOR AS DIVISOR IN BUF.
002306: 00,3120           52131                           DXCH     BUF
002307: 00,3121           03151                           TC       UNITDV
002308:
002309: 00,3122           52125                           DXCH     VBUF       +2                         #  DO Y AND Z IN USUAL FASHION SO WE CAN
002310: 00,3123           52155                           DXCH     MPAC                                  #  EXIT THROUGH VROTATEX.
002311: 00,3124           52160                           DXCH     MPAC       +3
002312: 00,3125           03151                           TC       UNITDV
002313:
002314: 00,3126           52127                           DXCH     VBUF       +4
002315: 00,3127           52155                           DXCH     MPAC
002316: 00,3130           52162                           DXCH     MPAC       +5
002317: 00,3131           03151                           TC       UNITDV
002318: 00,3132           17441                           TCF      VROTATEX                              #  AND EXIT.
002319:


002321:                                                                                                  #           IF THE LENGTH OF THE ARGUMENT VECTOR WAS LESS THAN 2(-28), EACH COMPONENT MUST BE SHIFTED LEFT AT LEAST
002322:                                                                                                  #  14 PLACES BEFORE THE DIVIDE. NOTE THAT IN THIS CASE, THE MAJOR PART OF EACH COMPONENT IS ZERO.
002323:
002324: 00,3133           54135        SMALL              TS       MPTEMP                                #  NEGATIVE OF PRE-DIVIDE SHIFT COUNT.
002325:
002326: 00,3134           34746                           CAF      ZERO                                  #  SHIFT EACH COMPONENT LEFT 14.
002327: 00,3135           56123                           XCH      VBUF       +1
002328: 00,3136           56122                           XCH      VBUF
002329: 00,3137           56125                           XCH      VBUF       +3
002330: 00,3140           56124                           XCH      VBUF       +2
002331: 00,3141           56127                           XCH      VBUF       +5
002332: 00,3142           56126                           XCH      VBUF       +4
002333:
002334: 00,3143           40135                           CS       MPTEMP
002335: 00,3144           50000                           INDEX    A
002336: 00,3145           34727                           CAF      BIT14
002337: 00,3146           00006                           EXTEND
002338: 00,3147           70154                           MP       MPAC
002339: 00,3150           13062                           TCF      SMALL2
002340:
002341: 00,3151     4752               THIRTEEN           =        OCT15
002342: 00,3151     4310               FOURTEEN           =        OCT16
002343: 00,3151     4310               OCT16              =        R1D1
002344:


002346:                                                                                                  #           THE FOLLOWING ROUTINE SETS UP THE CALL TO THE DIVIDE ROUTINES.
002347:
002348: 00,3151           10154        UNITDV             CCS      MPAC                                  #  FORCE MPAC POSITIVE IF POSSIBLE, SETTING
002349: 00,3152           13170                           TCF      UMPAC+                                #  DVSIGN ACCORDING TO THE SIGN OF MPAC
002350: 00,3153           13155                           TCF      +2                                    #  SINCE THE DIVISOR IS ALWAYS POSITIVE
002351: 00,3154           13162                           TCF      UMPAC-                                #  HERE.
002352:
002353: 00,3155           10155                           CCS      MPAC       +1
002354: 00,3156           13170                           TCF      UMPAC+
002355: 00,3157           00002                           TC       Q                                     #  EXIT IMMEDIATELY ON ZERO.
002356: 00,3160           13162                           TCF      UMPAC-
002357: 00,3161           00002                           TC       Q
002358:
002359: 00,3162           44746        UMPAC-             CS       ZERO                                  #  IF NEGATIVE, SET -0 IN DVSIGN FOR FINAL
002360: 00,3163           54136                           TS       DVSIGN                                #  COMPLEMENT.
002361: 00,3164           00006                           EXTEND
002362: 00,3165           40155                           DCS      MPAC                                  #  PICK UP ABSOLUTE VALUE OF ARG AND JUMP.
002363: 00,3166           50135                           INDEX    MPTEMP
002364: 00,3167           12564                           TCF      MAXTEST    -1
002365:
002366: 00,3170           54136        UMPAC+             TS       DVSIGN                                #  SET DVSIGN FOR POSITIVE QUOTIENT.
002367: 00,3171           52155                           DXCH     MPAC
002368: 00,3172           50135                           INDEX    MPTEMP
002369: 00,3173           12564                           TCF      MAXTEST    -1
002370:


002372:                                                                                                  #           MISCELLANEOUS UNARY OPERATIONS.
002373:
002374: 00,3174           03300        DSQ                TC       DSQSUB                                #  SQUARE THE DP CONTENTS OF MPAC.
002375: 00,3175           16102                           TCF      DANZIG
002376:
002377: 00,3176           10163        ABVALABS           CCS      MODE                                  #  ABVAL OR ABS INSTRUCTION.
002378: 00,3177           13226                           TCF      ABS                                   #  DO ABS ON SCALAR.
002379: 00,3200           13226                           TCF      ABS
002380:
002381: 00,3201           03317        ABVAL              TC       VSQSUB                                #  DOT MPAC WITH ITSELF.
002382: 00,3202           22163                           LXCH     MODE                                  #  MODE IS NOW DP (L ZERO AFTER DAS).
002383:
002384: 00,3203           00006                           EXTEND                                         #  STORE SQUARE OF LENGTH IN WORK AREA.
002385: 00,3204           30155                           DCA      MPAC
002386: 00,3205           50120                           INDEX    FIXLOC
002387: 00,3206           52043                           DXCH     LVSQUARE
002388:


002390:                                                                                                  #  PROGRAM DESCRIPTION- SUBROUTINE SQRT
002391:                                                                                                  #  FUNCTIONAL DESCRIPTION-DOUBLE PRECISION SQUARE ROOT ROUTINE
002392:                                                                                                  #      THIS PROGRAM TAKES THE SQUARE ROOT OF THE 27 OR 28 MOST SIGNIFICANT BITS IN THE TRIPLE PRECISION SET OF
002393:                                                                                                  #      NUMBERS-MPAC,MPAC+1,AND MPAC+2.  THE ROOT IS RETURNED DOUBLE        PRECISION IN MPAC AND MPAC+1.
002394:                                                                                                  #  WARNING- THIS SUBROUTINE USES A TRIPLE PRECISION INPUT. THE PROGRAMMER  MUST ASSURE THE CONTENTS OF MPAC+2
002395:                                                                                                  #      ESPECIALLY IF THE CONTENTS OF MPAC IS SMALL OR ZERO.  FOR DETAILS SEE STG MEMO NO.949.
002396:                                                                                                  #  CALLING SEQUENCE- IN INTERPRETIVE MODE I.E., FOLLOWING TC  INTPRET,SQRT   NO ADDRESS IS ALLOWED
002397:                                                                                                  #  INPUT SCALING  THE BINARY POINT IS ASSUMED TO THE RIGHT OF BIT 15. THE  ANSWER IS RETURNED WITH THE SAME SCALING
002398:                                                                                                  #  SUBROUTINES- GENSCR,MPACSHR, SQRTSUB,ABORT
002399:                                                                                                  #  ABORT EXIT MODE- ABORTS ON NEGATIVE INPUT -1.2X10E-4 (77775  OCTAL)     OR LESS.
002400:                                                                                                  #      DISPLAYS ERROR CODE 1302
002401:                                                                                                  #                  TC   ABORT
002402:                                                                                                  #                  OCT  1302
002403:                                                                                                  #  DEBRIS -  LOCATIONS BUF,MPTEMP,ADDRWD ARE USED
002404: 00,3207           03343        SQRT               TC       SQRTSUB                               #  TAKE THE SQUARE ROOT OF MPAC.
002405: 00,3210           10135                           CCS      MPTEMP                                #  RETURNED NORMALIZED SQUARE ROOT. SEE IF
002406: 00,3211           13213                           TCF      +2                                    #  ANY UN-NORMALIZATION REQUIRED AND EXIT
002407: 00,3212           16102                           TCF      DANZIG                                #  IF NOT.
002408:
002409: 00,3213           63733                           AD       NEG12                                 #  A RIGHT SHIFT OF MORE THAN 13 COULD BE
002410: 00,3214           00006                           EXTEND                                         #  REQUIRED IF INPUT WAS ZERO IN MPAC,+1.
002411: 00,3215           63221                           BZMF     SQRTSHFT                              #  GOES HERE IN MOST CASES.
002412: 00,3216           22007                           ZL                                             #  IF A LONG SHIFT IS REQUIRED, GO TO
002413: 00,3217           22116                           LXCH     ADDRWD                                #  GENERAL RIGHT SHIFT ROUTINES.
002414: 00,3220           12303                           TCF      GENSCR     +4                         #  ADDRWD WAS ZERO TO PREVENT ROUND.
002415:
002416: 00,3221           50135        SQRTSHFT           INDEX    MPTEMP                                #  SELECT SHIFTING BIT AND EXIT THROUGH
002417: 00,3222           34726                           CAF      BIT15                                 #  SHIFT ROUTINES.
002418: 00,3223           54135                           TS       MPTEMP
002419: 00,3224           34746                           CAF      ZERO                                  #  TO ZERO MPAC +2 IN THE PROCESS.
002420: 00,3225           12036                           TCF      MPACSHR    +3
002421:
002422: 00,3226           06744        ABS                TC       BRANCH                                #  TEST SIGN OF MPAC AND COMPLEMENT IF
002423: 00,3227           16102                           TCF      DANZIG
002424: 00,3230           16102                           TCF      DANZIG
002425: 00,3231           17711                           TCF      COMP
002426:


002428: 00,3232           44742        VDEF               CS       FOUR                                  #  VECTOR DEFINE - ESSENTIALLY TREATS
002429: 00,3233           26166                           ADS      PUSHLOC                               #  SCALAR IN MPAC AS X COMPONENT, PUSHES UP
002430: 00,3234           00006                           EXTEND                                         #  FOR Y AND THEN AGAIN FOR Z.
002431: 00,3235           50000                           INDEX    A
002432: 00,3236           30003                           DCA      2
002433: 00,3237           52160                           DXCH     MPAC       +3
002434: 00,3240           00006                           EXTEND
002435: 00,3241           50166                           INDEX    PUSHLOC
002436: 00,3242           30001                           DCA      0
002437: 00,3243           52162                           DXCH     MPAC       +5
002438: 00,3244           16542                           TCF      VMODE                                 #  MODE IS NON VECTOR.
002439:
002440: 00,3245           03317        VSQ                TC       VSQSUB                                #  DOT MPAC WITH ITSELF.
002441: 00,3246           17353                           TCF      DMODE                                 #  MODE IS NOW DP.
002442:
002443: 00,3247           00006        PUSH               EXTEND                                         #  PUSH DOWN MPAC LEAVING IT LOADED.
002444: 00,3250           30155                           DCA      MPAC
002445: 00,3251           50166                           INDEX    PUSHLOC                               #  PUSH DOWN FIRST TWO REGISTERS IN EACH
002446: 00,3252           52001                           DXCH     0
002447:
002448: 00,3253           50163                           INDEX    MODE                                  #  INCREMENT PUSHDOWN POINTER.
002449: 00,3254           36265                           CAF      NO.WDS
002450: 00,3255           26166                           ADS      PUSHLOC
002451:
002452: 00,3256           10163                           CCS      MODE
002453: 00,3257           13272                           TCF      TPUSH                                 #  PUSH DOWN MPAC +2.
002454: 00,3260           16102                           TCF      DANZIG                                #  DONE FOR DP.
002455:
002456: 00,3261           00006                           EXTEND                                         #  ON VECTOR, PUSH DOWN Y AND Z COMPONENTS.
002457: 00,3262           30160                           DCA      MPAC       +3
002458: 00,3263           50166                           INDEX    PUSHLOC
002459: 00,3264           51775                           DXCH     0          -4
002460: 00,3265           00006                           EXTEND
002461: 00,3266           30162                           DCA      MPAC       +5
002462: 00,3267           50166                           INDEX    PUSHLOC
002463: 00,3270           51777                           DXCH     0          -2
002464: 00,3271           16102                           TCF      DANZIG
002465:
002466: 00,3272           30156        TPUSH              CA       MPAC       +2
002467: 00,3273           16575                           TCF      ENDTPUSH   +2
002468:
002469: 00,3274           50120        RVQ                INDEX    FIXLOC                                #  RVQ - RETURN IVA QPRET.
002470: 00,3275           30052                           CA       QPRET
002471: 00,3276           54117                           TS       POLISH
002472: 00,3277           16673                           TCF      GOTO       +4                         #  (ASSUME QPRET POINTS TO FIXED ONLY.)
002473:


002475:                                                                                                  #           THE FOLLOWING SUBROUTINES ARE USED IN SQUARING MPAC, IN BOTH THE SCALAR AND VECTOR SENSE. THEY ARE
002476:                                                                                                  #  SPECIAL CASES OF DMPSUB AND DOTSUB, PUT IN TO SAVE SOME TIME.
002477:
002478: 00,3300           30155        DSQSUB             CA       MPAC       +1                         #  SQUARES THE SCALAR CONTENTS OF MPAC.
002479: 00,3301           00006                           EXTEND
002480: 00,3302           70000                           SQUARE
002481: 00,3303           54156                           TS       MPAC       +2
002482: 00,3304           34746                           CAF      ZERO                                  #  FORM 2(CROSS TERM).
002483: 00,3305           56155                           XCH      MPAC       +1
002484: 00,3306           00006                           EXTEND
002485: 00,3307           70154                           MP       MPAC
002486: 00,3310           20001                           DDOUBL                                         #  AND MAYBE OVERFLOW.
002487: 00,3311           20156                           DAS      MPAC       +1                         #  AND SET A TO NET OVERFLOW.
002488: 00,3312           56154                           XCH      MPAC
002489: 00,3313           00006                           EXTEND
002490: 00,3314           70000                           SQUARE
002491: 00,3315           20155                           DAS      MPAC
002492: 00,3316           00002                           TC       Q
002493:
002494: 00,3317           00006        VSQSUB             EXTEND                                         #  DOTS THE VECTOR IN MPAC WITH ITSELF.
002495: 00,3320           22137                           QXCH     DOTRET
002496: 00,3321           03300                           TC       DSQSUB                                #  SQUARE THE X COMPONENT.
002497: 00,3322           52160                           DXCH     MPAC       +3
002498: 00,3323           52155                           DXCH     MPAC
002499: 00,3324           52131                           DXCH     BUF                                   #  SO WE CAN END IN DOTSUB.
002500: 00,3325           30156                           CA       MPAC       +2
002501: 00,3326           54132                           TS       BUF        +2
002502:
002503: 00,3327           03300                           TC       DSQSUB                                #  SQUARE Y COMPONENT.
002504: 00,3330           52156                           DXCH     MPAC       +1
002505: 00,3331           20132                           DAS      BUF        +1
002506: 00,3332           60154                           AD       MPAC
002507: 00,3333           60130                           AD       BUF
002508: 00,3334           54130                           TS       BUF
002509: 00,3335           13337                           TCF      +2
002510: 00,3336           54121                           TS       OVFIND                                #  IF OVERFLOW.
002511:
002512: 00,3337           52162                           DXCH     MPAC       +5
002513: 00,3340           52155                           DXCH     MPAC
002514: 00,3341           03300                           TC       DSQSUB                                #  SQUARE Z COMPONENT.
002515: 00,3342           17226                           TCF      ENDDOT                                #  END AS IN DOTSUB.
002516:


002518:                                                                                                  #           DOUBLE PRECISION SQUARE ROOT ROUTINE. TAKE THE SQUARE ROOT OF THE TRIPLE PRECISION (MPAC +2 USED ONLY
002519:                                                                                                  #  IN NORMALIZATION) CONTENTS OF MPAC AND LEAVE THE NORMALIZED RESULT IN MPAC (C(MPAC) GREATER THAN OR EQUAL TO
002520:                                                                                                  #  .5). THE RIGHT SHIFT COUNT (TO UNNORMALIZE) IS LEFT IN MPTEMP.
002521:
002522: 00,3343           34746        SQRTSUB            CAF      ZERO                                  #  START BY ZEROING RIGHT SHIFT COUNT.
002523: 00,3344           54135                           TS       MPTEMP
002524:
002525: 00,3345           10154                           CCS      MPAC                                  #  CHECK FOR POSITIVE ARGUMENT, SHIFTING
002526: 00,3346           13405                           TCF      SMPAC+                                #  FIRST SIGNIFICANT MPAC REGISTER INTO
002527: 00,3347           13351                           TCF      +2                                    #  MPAC ITSELF.
002528: 00,3350           13373                           TCF      SQRTNEG                               #  SEE IF MAG OF ARGUMENT LESS THAN 10(-4).
002529:
002530: 00,3351           56156                           XCH      MPAC       +2                         #  MPAC IS ZERO - SHIFT LEFT 14.
002531: 00,3352           56155                           XCH      MPAC       +1
002532: 00,3353           54154                           TS       MPAC
002533: 00,3354           34750                           CAF      SEVEN                                 #  AUGMENT RIGHT SHIFT COUNTER.
002534: 00,3355           54135                           TS       MPTEMP
002535:
002536: 00,3356           10154                           CCS      MPAC                                  #  SEE IF MPAC NOW PNZ.
002537: 00,3357           13405                           TCF      SMPAC+
002538: 00,3360           13362                           TCF      +2
002539: 00,3361           13376                           TCF      ZEROANS                               #  NEGATIVE BUT LESS THAN 10(-4) IN MAG.
002540:
002541: 00,3362           56155                           XCH      MPAC       +1                         #  ZERO - SHIFT LEFT 14 AGAIN.
002542: 00,3363           54154                           TS       MPAC
002543: 00,3364           34750                           CAF      SEVEN                                 #  AUGMENT RIGHT SHIFT COUNTER.
002544: 00,3365           26135                           ADS      MPTEMP
002545:
002546: 00,3366           10154                           CCS      MPAC
002547: 00,3367           13405                           TCF      SMPAC+
002548: 00,3370           00002                           TC       Q                                     #  SQRT(0) = 0.
002549: 00,3371           13376                           TCF      ZEROANS
002550: 00,3372           13453                           TCF      FIXROOT                               #  DO NOT LEAVE SQRTSUB WITH -0 IN MPAC.
002551:
002552: 00,3373           10000        SQRTNEG            CCS      A                                     #  ARGUMENT IS NEGATIVE, BUT SEE IF SIGN-
002553: 00,3374           13402                           TCF      SQRTABRT                              #  CORRECTED ARGUMENT IS LESS THAN 10(-4)
002554:
002555: 00,3375           10155                           CCS      MPAC       +1                         #  IN MAGNITUDE. IF SO, CALL ANSWER ZERO.
002556: 00,3376           34746        ZEROANS            CAF      ZERO                                  #  FORCE ANSWER TO ZERO HERE.
002557: 00,3377           13453                           TCF      FIXROOT
002558: 00,3400           13402                           TCF      SQRTABRT
002559: 00,3401           13453                           TCF      FIXROOT
002560:
002561: 00,3402           52165        SQRTABRT           DXCH     LOC
002562: 00,3403           05722                           TC       POODOO1
002563: 00,3404           21302                           OCT      21302
002564:
002565: 00,3405           62444        SMPAC+             AD       -1/2+2                                #  SEE IF ARGUMENT GREATER THAN OR EQUAL TO


002567: 00,3406           00006                           EXTEND                                         #  .5.
002568: 00,3407           63456                           BZMF     SRTEST                                #  IF SO, SEE IF LESS THAN .25.
002569:
002570: 00,3410           52155                           DXCH     MPAC                                  #  WE WILL TAKE THE SQUARE ROOT OF MPAC/2.
002571: 00,3411           22021                           LXCH     SR                                    #  SHIFT RIGHT 1 AND GO TO THE SQRT ROUTINE
002572: 00,3412           00006                           EXTEND
002573: 00,3413           74727                           MP       HALF
002574: 00,3414           52155                           DXCH     MPAC
002575: 00,3415           56021                           XCH      SR
002576: 00,3416           26155                           ADS      MPAC       +1                         #  GUARANTEED NO OVERFLOW.
002577:
002578: 00,3417           32314        ARGHI              CAF      SLOPEHI                               #  ARGUMENT BETWEEN .25 AND .5. GET A
002579: 00,3420           00006                           EXTEND                                         #  LINEAR APPROXIMATION FOR THIS RANGE.
002580: 00,3421           70154                           MP       MPAC
002581: 00,3422           62566                           AD       BIASHI                                #  X0/2 = (MPAC/2)(SLOPEHI) + BIASHI/2.
002582:
002583: 00,3423           54130                 +4        TS       BUF                                   #  X0/2 (ARGLO ENTERS HERE).
002584: 00,3424           30154                           CA       MPAC                                  #  SINGLE-PRECISION THROUGHOUT.
002585: 00,3425           22007                           ZL
002586: 00,3426           00006                           EXTEND
002587: 00,3427           10130                           DV       BUF                                   #  (MPAC/2)/(X0/2)
002588: 00,3430           00006                           EXTEND
002589: 00,3431           74727                           MP       HALF
002590: 00,3432           26130                           ADS      BUF                                   #  X1 = X0/2 + .5(MPAC/2)/(X0/2).
002591:
002592: 00,3433           00006                           EXTEND
002593: 00,3434           74727                           MP       HALF                                  #  FORM UP X1/2.
002594: 00,3435           52155                           DXCH     MPAC                                  #  SAVE AND BRING OUT ARGUMENT.
002595: 00,3436           00006                           EXTEND                                         #  TAKE DP QUOTIENT WITH X1.
002596: 00,3437           10130                           DV       BUF
002597: 00,3440           54131                           TS       BUF        +1                         #  SAVE MAJOR PART OF QUOTIENT.
002598: 00,3441           34746                           CAF      ZERO                                  #  FORM MINOR PART OF QUOTIENT USING
002599: 00,3442           56001                           XCH      L                                     #  (REMAINDER,0).
002600: 00,3443           00006                           EXTEND
002601: 00,3444           10130                           DV       BUF
002602: 00,3445           54001                           TS       L                                     #  IN PREPARATION FOR DAS.
002603: 00,3446           30131                           CA       BUF        +1
002604: 00,3447           20155                           DAS      MPAC                                  #  X2 = X1/2 + (MPAC/2)X1
002605:
002606: 00,3450           00006                           EXTEND                                         #  OVERFLOWS IF ARG. NEAR POSMAX.
002607: 00,3451           13455                           BZF      TCQBNK00
002608: 00,3452           34724                           CAF      POSMAX
002609: 00,3453           54154        FIXROOT            TS       MPAC
002610: 00,3454           54155                           TS       MPAC       +1
002611: 00,3455           00002        TCQBNK00           TC       Q                                     #  RETURN TO CALLER TO UNNORMALIZE, ETC.
002612:


002614: 00,3456           64730        SRTEST             AD       QUARTER                               #  ARGUMENT WAS LESS THAN .5, SEE IF LESS
002615: 00,3457           00006                           EXTEND                                         #  THAN .25.
002616: 00,3460           63502                           BZMF     SQRTNORM                              #  IF SO, BEGIN NORMALIZATION.
002617:
002618: 00,3461           52155                           DXCH     MPAC                                  #  IF BETWEEN .5 AND .25, SHIFT RIGHT 1 AND
002619: 00,3462           22021                           LXCH     SR                                    #  START AT ARGLO.
002620: 00,3463           00006                           EXTEND
002621: 00,3464           74727                           MP       HALF
002622: 00,3465           52155                           DXCH     MPAC
002623: 00,3466           56021                           XCH      SR
002624: 00,3467           26155                           ADS      MPAC       +1                         #  NO OVERFLOW.
002625:
002626: 00,3470           33007        ARGLO              CAF      SLOPELO                               #  (NORMALIZED) ARGUMENT BETWEEN .125 AND
002627: 00,3471           00006                           EXTEND                                         #  .25
002628: 00,3472           70154                           MP       MPAC
002629: 00,3473           62270                           AD       BIASLO
002630: 00,3474           13423                           TCF      ARGHI      +4                         #  BEGIN SQUARE ROOT.
002631:
002632: 00,3475           00006        SQRTNM2            EXTEND                                         #  SHIFT LEFT 2 AND INCREMENT RIGHT SHIFT
002633: 00,3476           30156                           DCA      MPAC       +1                         #  COUNT (FOR TERMINAL UNNORMALIZATION).
002634: 00,3477           20156                           DAS      MPAC       +1
002635: 00,3500           60154                           AD       MPAC
002636: 00,3501           26154                           ADS      MPAC                                  #  (NO OVERFLOW).
002637:
002638: 00,3502           24135        SQRTNORM           INCR     MPTEMP                                #  FIRST TIME THROUGH, JUST SHIFT LEFT 1
002639: 00,3503           00006                           EXTEND                                         #  (PUTS IN EFFECTIVE RIGHT SHIFT SINCE
002640: 00,3504           30156                           DCA      MPAC       +1                         #  WE WANT MPAC/2).
002641: 00,3505           20156                           DAS      MPAC       +1
002642: 00,3506           60154                           AD       MPAC
002643: 00,3507           26154                           ADS      MPAC                                  #  (AGAIN NO OVERFLOW).
002644: 00,3510           60000                           DOUBLE
002645: 00,3511           54022                           TS       CYL
002646:
002647: 00,3512           10022        NORMTEST           CCS      CYL                                   #  SEE IF ARGUMENT NOW NORMALIZED AT
002648: 00,3513           10022                           CCS      CYL                                   #  GREATER THAN .125.
002649: 00,3514           13475                           TCF      SQRTNM2                               #  NO - SHIFT LEFT 2 MORE AND TRY AGAIN.
002650: 00,3515           13417                           TCF      ARGHI                                 #  YES - NOW BETWEEN .5 AND .25.
002651: 00,3516           13470                           TCF      ARGLO                                 #  ARGUMENT NOW BETWEEN .25 AND .125.
002652:


002654:                                                                                                  #  TRIGONOMETRIC FUNCTION PACKAGE.
002655:
002656:                                                                                                  #           THE FOLLOWING TRIGONOMETRIC FUNCTIONS ARE AVAILABLE AS INTERPRETIVE OPERATIONS:
002657:
002658:                                                                                                  #           1.  SIN                COMPUTES (1/2)SINE(2 PI MPAC).
002659:                                                                                                  #           2.  COS                COMPUTES (1/2)COSINE(2 PI MPAC).
002660:
002661:                                                                                                  #           3.  ASIN               COMPUTES (1/2PI)ARCSINE(2 MPAC).
002662:                                                                                                  #           4.  ACOS               COMPUTES (1/2PI)ARCCOSINE(2 MPAC).
002663:
002664:                                                                                                  #  SIN-ASIN AND COS-ACOS ARE MUTUALLY INVERSE, IE SIN(ASIN(X)) = X.
002665:
002666: 00,3517           06744        COSINE             TC       BRANCH                                #  FINDS COSINE USING THE IDENTITY
002667: 00,3520           13523                           TCF      +3                                    #  COS(X) = SIN(PI/2 - ABS(X)).
002668: 00,3521           13526                           TCF      PRESINE
002669: 00,3522           13526                           TCF      PRESINE
002670:
002671: 00,3523           00006                 +3        EXTEND
002672: 00,3524           40155                           DCS      MPAC
002673: 00,3525           52155                           DXCH     MPAC
002674:
002675: 00,3526           34730        PRESINE            CAF      QUARTER                               #  PI/2 SCALED.
002676: 00,3527           26154                           ADS      MPAC
002677:
002678:
002679: 00,3530           52155        SINE               DXCH     MPAC                                  #  DOUBLE ARGUMENT.
002680: 00,3531           20001                           DDOUBL
002681: 00,3532           54000                           OVSK                                           #  SEE IF OVERFLOW PRESENT.
002682: 00,3533           13536                           TCF      +3                                    #  IF NOT, ARGUMENT OK AS IS.
002683:
002684: 00,3534           00006                           EXTEND                                         #  IF SO, WE LOST (OR GAINED) PI, SO
002685: 00,3535           40001                           DCOM                                           #  COMPLEMENT MPAC USING THE IDENTITY
002686:                                                                                                  #  SIN(X-(+)PI) = SIN(-X).
002687: 00,3536           52155                 +3        DXCH     MPAC
002688: 00,3537           30154                           CA       MPAC                                  #  SEE IF ARGUMENT GREATER THAN .5 IN
002689: 00,3540           60000                           DOUBLE                                         #  MAGNITUDE. IF SO, REDUCE IT TO LESS THAN
002690: 00,3541           54001                           TS       L                                     #  .5 (+-PI/2 SCALED) AS FOLLOWS:
002691: 00,3542           13553                           TCF      SN1
002692:
002693: 00,3543           50000                           INDEX    A                                     #  IF POSITIVE, FORM PI - X, IF NEGATIVE
002694: 00,3544           34726                           CAF      NEG1/2     +1                         #  USE -PI - X.
002695: 00,3545           60000                           DOUBLE
002696: 00,3546           00006                           EXTEND
002697: 00,3547           60154                           SU       MPAC                                  #  GUARANTEED NO OVERFLOW.
002698: 00,3550           54154                           TS       MPAC
002699: 00,3551           40155                           CS       MPAC       +1
002700: 00,3552           54155                           TS       MPAC       +1
002701:


002703: 00,3553           00006        SN1                EXTEND                                         #  SET UP TO EVALUATE HASTINGS POLYNOMIAL
002704: 00,3554           30155                           DCA      MPAC
002705: 00,3555           52134                           DXCH     BUF2
002706: 00,3556           03300                           TC       DSQSUB                                #  SQUARE MPAC.
002707:
002708: 00,3557           07243                           TC       POLY                                  #  EVALUATE FOURTH ORDER POLYNOMIAL.
002709: 00,3560           00003                           DEC      3          B-14
002710: 00,3561           14441 37325                     2DEC     +.3926990796
002711:
002712: 00,3563           53250 60764                     2DEC     -.6459637111
002713:
002714: 00,3565           12146 21276                     2DEC     +.318758717
002715:
002716: 00,3567           75466 71471                     2DEC     -.074780249
002717:
002718: 00,3571           00236 32757                     2DEC     +.009694988
002719:
002720:
002721: 00,3573           32470                           CAF      LBUF2                                 #  MULTIPLY BY ARGUMENT AND SHIFT LEFT 2.
002722: 00,3574           07127                           TC       DMPSUB     -1
002723:
002724: 00,3575           00006                           EXTEND
002725: 00,3576           30156                           DCA      MPAC       +1
002726: 00,3577           20156                           DAS      MPAC       +1
002727: 00,3600           60154                           AD       MPAC
002728: 00,3601           26154                           ADS      MPAC                                  #  NEITHER SHIFT OVERFLOWS.
002729: 00,3602           00006                           EXTEND
002730: 00,3603           30156                           DCA      MPAC       +1
002731: 00,3604           20156                           DAS      MPAC       +1
002732: 00,3605           60154                           AD       MPAC
002733: 00,3606           26154                           ADS      MPAC
002734: 00,3607           16102                           TCF      DANZIG
002735:


002737:                                                                                                  #           ARCSIN/ARCCOS ROUTINE.
002738:
002739: 00,3610           33631        ARCSIN             CAF      LASINEX                               #  COMPUTE ARCSIN BY USING THE IDENTITY
002740: 00,3611           13613                           TCF      +2                                    #  ARCSIN(X) = PI/2 - ARCCOS(X).
002741:
002742: 00,3612           33713        ARCCOS             CAF      LDANZIG                               #  (EXITS IMMEDIATELY).
002743: 00,3613           54136                           TS       ESCAPE
002744: 00,3614           06744                           TC       BRANCH                                #  TEST SIGN OF INPUT.
002745: 00,3615           13625                           TCF      ACOSST                                #  START IMMEDIATELY IF POSITIVE.
002746: 00,3616           13731                           TCF      ACOSZERO                              #  ARCCOS(0) = PI/2 = .25.
002747: 00,3617           00006                           EXTEND                                         #  IF NEGATIVE, USE THE IDENTITY
002748: 00,3620           40155                           DCS      MPAC                                  #  ARCCOS(X) = PI - ARCCOS(-X), FORCING
002749: 00,3621           52155                           DXCH     MPAC                                  #  ARGUMENT POSITIVE.
002750: 00,3622           33734                           CAF      TCSUBTR                               #  SET EXIT  TO DO ABOVE BEFORE
002751: 00,3623           56136                           XCH      ESCAPE                                #  ARCSIN/ARCCOS CONSIDERATIONS.
002752: 00,3624           54137                           TS       ESCAPE2
002753:
002754: 00,3625           44727        ACOSST             CS       HALF                                  #  TEST MAGNITUDE OF INPUT.
002755: 00,3626           60154                           AD       MPAC
002756: 00,3627           10000                           CCS      A
002757: 00,3630           13721                           TCF      ACOSOVF                               #  THIS IS PROBABLY AN OVERFLOW CASE.
002758:
002759: 00,3631           13707        LASINEX            TCF      ASINEX
002760:
002761: 00,3632           13642                           TCF      ACOSST2                               #  NO OVERFLOW - PROCEED.
002762:
002763: 00,3633           10155                           CCS      MPAC       +1                         #  IF MAJOR PART IS .5, CALL ANSWER 0
002764: 00,3634           34746                           CAF      ZERO                                  #  UNLESS MINOR PART NEGATIVE.
002765: 00,3635           13637                           TCF      ACOS=0
002766:
002767: 00,3636           13642                           TCF      ACOSST2
002768:
002769: 00,3637           54155        ACOS=0             TS       MPAC       +1
002770: 00,3640           54154                           TS       MPAC
002771: 00,3641           00136                           TC       ESCAPE
002772:
002773: 00,3642           00006        ACOSST2            EXTEND                                         #  NOW THAT ARGUMENT IS IN PROPER RANGE,
002774: 00,3643           40155                           DCS      MPAC                                  #  BEGIN COMPUTATION. USE HASTINGS
002775: 00,3644           64727                           AD       HALF                                  #  APPROXIMATION ARCCOS(X) = SQRT(1-X)P(X)
002776: 00,3645           52155                           DXCH     MPAC                                  #  IN A SCALED VERSION WHERE P(X) IS A
002777: 00,3646           52134                           DXCH     BUF2                                  #  SEVENTH ORDER POLYNOMIAL.
002778:
002779: 00,3647           03343                           TC       SQRTSUB                               #  RETURNS WITH NORMALIZED SQUARE ROOT.
002780:
002781: 00,3650           10135                           CCS      MPTEMP                                #  SEE IF UN-NORMALIZATION REQUIRED.
002782: 00,3651           13714                           TCF      ACOSSHR                               #  IF SO.
002783:


002785: 00,3652           52155        ACOS3              DXCH     MPAC                                  #  SET UP FOR POLYNOMIAL EVALUATION.
002786: 00,3653           52134                           DXCH     BUF2
002787: 00,3654           52155                           DXCH     MPAC
002788:
002789: 00,3655           07243                           TC       POLY
002790: 00,3656           00006                           DEC      6          B-14
002791: 00,3657           13240 23630                     2DEC     +.353553385                            #  COEFFICIENTS ARE C 2(+I)/PISQRT(2) WHERE
002792:
002793: 00,3661           74721 47775                     2DEC*    -.0483017006 B+1*                       #                    I
002794:
002795: 00,3663           02440 20237                     2DEC*    +.0200273085 B+2*                       #       WHERE C STANDS FOR ORIGINAL COEFFS.
002796:
002797: 00,3665           75067 70742                     2DEC*    -.0112931863 B+3*
002798:
002799: 00,3667           03436 26756                     2DEC*    +.00695311612 B+4*
002800:
002801: 00,3671           74037 57640                     2DEC*    -.00384617957 B+5*
002802:
002803: 00,3673           03046 07143                     2DEC*    +.001501297736 B+6*
002804:
002805: 00,3675           76654 42244                     2DEC*    -.000284160334 B+7*
002806:
002807:
002808: 00,3677           32470                           CAF      LBUF2                                 #  DO FINAL MULTIPLY AND GO TO ANY
002809: 00,3700           07127                           TC       DMPSUB     -1                         #  EPILOGUE SEQUENCES.
002810: 00,3701           00136                           TC       ESCAPE
002811:
002812: 00,3702           00006        SUBTR              EXTEND                                         #  EPILOGUE FOR NEGATIVE INPUTS TO ARCCOS.
002813: 00,3703           40155                           DCS      MPAC
002814: 00,3704           64727                           AD       HALF                                  #  FORMS PI - ARCCOS(-X) = ARCCOS(X).
002815: 00,3705           52155                           DXCH     MPAC
002816: 00,3706           00137                           TC       ESCAPE2                               #  GO TO POSSIBLE ARCSIN EPILOGUE.
002817:
002818: 00,3707           00006        ASINEX             EXTEND
002819: 00,3710           40155                           DCS      MPAC                                  #  ARCSIN EPILOGUE - GET ARCSIN(X)
002820: 00,3711           64730                           AD       QUARTER                               #  = PI/2 - ARCCOS(X).
002821: 00,3712           52155                           DXCH     MPAC
002822: 00,3713           16102        LDANZIG            TCF      DANZIG
002823:


002825: 00,3714           50000        ACOSSHR            INDEX    A                                     #  THE SHIFT RIGHT IS LESS THAN 14 SINCE
002826: 00,3715           34727                           CAF      BIT14                                 #  THE INPUT WAS NON-ZERO DP.
002827: 00,3716           54135                           TS       MPTEMP
002828: 00,3717           02073                           TC       VSHRRND                               #  DP SHIFT RIGHT AND ROUND.
002829: 00,3720           13652                           TCF      ACOS3                                 #  PROCEED.
002830:
002831: 00,3721           00006        ACOSOVF            EXTEND                                         #  IF MAJOR PART WAS ONLY 1 MORE THAN .5,
002832: 00,3722           13637                           BZF      ACOS=0                                #  CALL ANSWER ZERO.
002833:
002834: 00,3723           00006        ACOSABRT           EXTEND                                         #  IF OVERFLOW, CALL ANSWER ZERO BUT
002835: 00,3724           30165                           DCA      LOC                                   #  SOUND AN ALARM.
002836: 00,3725           05726                           TC       ALARM1
002837: 00,3726           01301                           OCT      1301
002838:
002839: 00,3727           34746                           CAF      ZERO
002840: 00,3730           13637                           TCF      ACOS=0
002841:
002842: 00,3731           34730        ACOSZERO           CAF      QUARTER                               #  ACOS(0) = PI/2.
002843: 00,3732           13640                           TCF      ACOS=0     +1                         #  SET MPAC AND EXIT VIA ESCAPE.
002844:
002845: 00,3733           77763        NEG12              DEC      -12        B-14
002846: 00,3734           13702        TCSUBTR            TCF      SUBTR
002847:


002849:                                                                                                  #           THE FOLLOWING INSTRUCTIONS ARE AVAILABLE FOR SETTING, MODIFYING, AND BRANCHING ON INDEX REGISTERS:
002850:
002851:                                                                                                  #           1.  AXT                ADDRESS TO INDEX TRUE.
002852:                                                                                                  #           1.  AXC                ADDRESS TO INDEX COMPLEMENTED.
002853:                                                                                                  #           3.  LXA                LOAD INDEX FROM ERASABLE.
002854:                                                                                                  #           4.  LXC                LOAD INDEX COMPLEMENTED FROM ERASABLE.
002855:                                                                                                  #           5.  SXA                STORE INDEX IN ERASABLE.
002856:                                                                                                  #           6.  XCHX               EXCHANGE INDEX REIGSTER WITH ERASABLE.
002857:
002858:                                                                                                  #           7.  INCR               INCREMENT INDEX REGISTER.
002859:                                                                                                  #           8.  XAD                ERASABLE ADD TO INDEX REGISTER.
002860:                                                                                                  #           9.  XSU                ERASABLE SUBTRACT FROM INDEX REGISTER.
002861:
002862:                                                                                                  #          10.  TIX                BRANCH ON INDEX REGISTER AND DECREMENT.
002863:
002864: 01,2350                                           BANK     01
002865:
002866: 01,2350                                           COUNT*   $$/INTER
002867: 01,2350           02445        AXT                TC       TAGSUB                                #  SELECT APPROPRIATE INDEX REGISTER.
002868: 01,2351           30117                           CA       POLISH
002869: 01,2352           50130        XSTORE             INDEX    INDEXLOC                              #  CONTAINS C(FIXLOC) OR C(FIXLOC)+1.
002870: 01,2353           54046                           TS       X1
002871: 01,2354           16102                           TCF      DANZIG
002872:
002873: 01,2355           02445        AXC                TC       TAGSUB
002874: 01,2356           40117                           CS       POLISH
002875: 01,2357           02352                           TC       XSTORE
002876:
002877: 01,2360           02433        LXA                TC       15ADRERS                              #  LOAD INDEX REGISTER FROM ERASABLE.
002878: 01,2361           50117                           INDEX    POLISH
002879: 01,2362           30000                           CA       0
002880: 01,2363           12352                           TCF      XSTORE
002881:
002882: 01,2364           02433        LXC                TC       15ADRERS                              #  LOAD NDX REG FROM ERASABLE COMPLEMENTED.
002883: 01,2365           50117                           INDEX    POLISH
002884: 01,2366           40000                           CS       0
002885: 01,2367           12352                           TCF      XSTORE
002886:
002887: 01,2370           02433        SXA                TC       15ADRERS                              #  STORE INDEX REGISTER IN ERASABLE.
002888: 01,2371           50130                           INDEX    INDEXLOC
002889: 01,2372           30046                           CA       X1
002890: 01,2373           50117        MSTORE1            INDEX    POLISH
002891: 01,2374           54000                           TS       0
002892: 01,2375           16102                           TCF      DANZIG
002893:


002895: 01,2376           02433        XCHX               TC       15ADRERS                              #  EXCHANGE INDEX REGISTER WITH ERASABLE.
002896: 01,2377           50117                           INDEX    POLISH
002897: 01,2400           30000                           CA       0
002898: 01,2401           50130                           INDEX    INDEXLOC
002899: 01,2402           56046                           XCH      X1
002900: 01,2403           12373                           TCF      MSTORE1
002901:
002902: 01,2404           02433        XAD                TC       15ADRERS                              #  ADD ERASABLE TO INDEX REGISTER.
002903: 01,2405           50117                           INDEX    POLISH
002904: 01,2406           30000                           CA       0
002905: 01,2407           50130        XAD2               INDEX    INDEXLOC
002906: 01,2410           26046                           ADS      X1                                    #  IGNORING OVERFLOWS.
002907: 01,2411           16102                           TCF      DANZIG
002908:
002909: 01,2412           02445        INCR               TC       TAGSUB                                #  INCREMENT INDEX REGISTER.
002910: 01,2413           30117                           CA       POLISH
002911: 01,2414           12407                           TCF      XAD2
002912:
002913: 01,2415           02433        XSU                TC       15ADRERS                              #  SUBTRACT ERASABLE FROM INDEX REGISTER.
002914: 01,2416           50117                           INDEX    POLISH
002915: 01,2417           40000                           CS       0
002916: 01,2420           12407                           TCF      XAD2
002917:
002918: 01,2421           02445        TIX                TC       TAGSUB                                #  BRANCH AND DECREMENT ON INDEX.
002919: 01,2422           50130                           INDEX    INDEXLOC
002920: 01,2423           40050                           CS       S1
002921: 01,2424           50130                           INDEX    INDEXLOC
002922: 01,2425           60046                           AD       X1
002923: 01,2426           00006                           EXTEND                                         #  NO OPERATION IF DECREMENTED INDEX IS
002924: 01,2427           66102                           BZMF     DANZIG                                #  NEGATIVE OR ZERO.
002925:
002926: 01,2430           50130        DOTIXBR            INDEX    INDEXLOC
002927: 01,2431           56046                           XCH      X1                                    #  IGNORING OVERFLOWS.
002928:
002929: 01,2432           16667                           TCF      GOTO                                  #  DO THE BRANCH USING THE CADR IN POLISH.
002930:


002932:                                                                                                  #           SUBROUTINE TO CONVERT AN ERASABLE ADDRESS (11 BITS) TO AN EBANK SETTING AND SUBADDRESS.
002933:
002934: 01,2433           40117        15ADRERS           CS       POLISH
002935: 01,2434           64763                           AD       DEC45
002936: 01,2435           10000                           CCS      A                                     #  DOES THE ADDRESS POINT TO THE WORK AREA?
002937: 01,2436           30120                           CA       FIXLOC                                #  YES.  ADD FIXLOC.  EBANK OK AS IS.
002938: 01,2437           12444                           TCF      +5
002939:
002940: 01,2440           35000                           CA       OCT1400                               #  NO.  SET EBANK & MAKE UP SUBADDRESS.
002941: 01,2441           56117                           XCH      POLISH
002942: 01,2442           54003                           TS       EBANK
002943: 01,2443           74350                           MASK     LOW8
002944: 01,2444           26117                 +5        ADS      POLISH                                #  FALL INTO TAGSUB, AND RETURN VIA Q.
002945:
002946:                                                                                                  #           SUBROUTINE WHICH SETS THE ADDRESS OF THE SPECIFIED INDEX IN INDEXLOC. (ACTUALLY, THE ADDRESS -38D.)
002947:
002948: 01,2445           30120        TAGSUB             CA       FIXLOC
002949: 01,2446           54130                           TS       INDEXLOC
002950:
002951: 01,2447           10020                           CCS      CYR                                   #  BIT 15 SPECIFIES INDEX.
002952: 01,2450           24130                           INCR     INDEXLOC                              #  0 MEANS USE X2.
002953: 01,2451           00002                           TC       Q
002954: 01,2452           00002                           TC       Q                                     #  1 FOR X1.
002955:


002957:                                                                                                  #           MISCELLANEOUS OPERATION CODES WITH DIRECT ADDRESSES. INCLUDED HERE ARE:
002958:
002959:                                                                                                  #           1.  ITA                STORE QPRET (RETURN ADDRESS) IN ERASABLE.
002960:                                                                                                  #           2.  CALL               CALL A SUBROUTINE, LEAVING RETURN IN QPRET.
002961:                                                                                                  #           3.  RTB                RETURN TO BASIC LANGUAGE AT THE GIVEN ADDRESS.
002962:                                                                                                  #           4.  BHIZ               BRANCH IF THE HIGH ORDER OF MPAC IS ZERO (SINGLE PRECISION).
002963:                                                                                                  #           5.  BOV                BRANCH ON OVERFLOW.
002964:                                                                                                  #           6.  GOTO               SIMPLE SEQUENCE CHANGE.
002965:
002966: 01,2453           10020        RTB/BHIZ           CCS      CYR
002967: 01,2454           30117        RTB                CA       POLISH
002968: 01,2455           04612                           TC       SWCALL     -1                         #  SO A "TC Q" FROM ROUTINE LEADS TO DANZIG
002969:
002970: 01,2456           10154        BHIZ               CCS      MPAC
002971: 01,2457           16102                           TCF      DANZIG
002972: 01,2460           16667                           TCF      GOTO
002973: 01,2461           16102                           TCF      DANZIG
002974: 01,2462           16667                           TCF      GOTO
002975:
002976: 01,2463           10121        BOV(B)             CCS      OVFIND                                #  BRANCH ON OVERFLOW TO BASIC OR INTERP.
002977: 01,2464           12466                           TCF      +2
002978: 01,2465           16102                           TCF      DANZIG
002979: 01,2466           54121                           TS       OVFIND
002980: 01,2467           10020                           CCS      CYR
002981: 01,2470           12454                           TCF      RTB                                   #  IF BASIC.
002982: 01,2471           00360        B5TOBB             OCT      360
002983: 01,2472           16667                           TCF      GOTO
002984:


002986: 01,2473           10020        BZE/GOTO           CCS      CYR                                   #  SEE WHICH OP-CODE IS DESIRED.
002987: 01,2474           06744                           TC       BRANCH                                #  DO BZE.
002988: 01,2475           16102                           TCF      DANZIG
002989: 01,2476           16667                           TCF      GOTO                                  #  DO GOTO.
002990: 01,2477           16102                           TCF      DANZIG
002991:
002992: 01,2500           10020        BPL/BMN            CCS      CYR
002993: 01,2501           12507                           TCF      BPL
002994: 01,2502           12000        5B10               DEC      5          B+10                       #  SHIFTS OP CODE IN SWITCH INSTRUCTION ADR
002995:
002996: 01,2503           06744                           TC       BRANCH                                #  DO BMN.
002997: 01,2504           16102                           TCF      DANZIG
002998: 01,2505           16102                           TCF      DANZIG
002999: 01,2506           16667                           TCF      GOTO                                  #  ONLY IF NNZ.
003000:
003001: 01,2507           06744        BPL                TC       BRANCH
003002: 01,2510           16667                           TCF      GOTO                                  #  IF POSITIVE OR ZERO.
003003: 01,2511           16667                           TCF      GOTO
003004: 01,2512           16102                           TCF      DANZIG
003005:
003006: 01,2513           10020        CALL/ITA           CCS      CYR
003007: 01,2514           16661                           TCF      CALL
003008:
003009: 01,2515           05701                           TC       CCSHOLE
003010: 01,2516           02433                           TC       15ADRERS                              #  STORE QPRET. (TAGSUB AFTER 15ADRERS IS
003011: 01,2517           50120                           INDEX    FIXLOC                                #  SLOW IN THIS CASE, BUT SAVES STORAGE.)
003012: 01,2520           30052                           CA       QPRET
003013: 01,2521           12373                           TCF      MSTORE1
003014:


003016:                                                                                                  #           THE FOLLOWING OPERATIONS ARE AVAILABLE FOR ALTERING AND TESTING INTERPRETIVE SWITCHES:
003017:
003018:                                                                                                  #   00      BONSET                 SET A SWITCH AND DO A GOTO IF IT WAS ON.
003019:                                                                                                  #   01      SETGO                  SET A SWITCH AND DO A GOTO.
003020:                                                                                                  #   02      BOFSET                 SET A SWITCH AND DO A GOTO IF IT WAS OFF
003021:                                                                                                  #   03      SET                    SET A SWITCH.
003022:
003023:                                                                                                  #   04      BONINV                 INVERT A SWITCH AND BRANCH IF IT WAS ON.
003024:                                                                                                  #   05      INVGO                  INVERT A SWITCH AND DO A GOTO.
003025:                                                                                                  #   06      BOFINV                 INVERT A SWITCH AND BRANCH IF IT WAS OFF
003026:                                                                                                  #   07      INVERT                 INVERT A SWITCH.
003027:
003028:                                                                                                  #   10      BONCLR                 CLEAR A SWITCH AND BRANCH IF IT WAS ON.
003029:                                                                                                  #   11      CLRGO                  CLEAR A SWITCH AND DO A GOTO.
003030:                                                                                                  #   12      BOFCLR                 CLEAR A SWITCH AND BRANCH IF IT WAS OFF.
003031:                                                                                                  #   13      CLEAR                  CLEAR A SWITCH.
003032:
003033:                                                                                                  #   14      BON                    BRANCH IF A SWITCH WAS ON.
003034:                                                                                                  #   16      BOFF                   BRANCH IF A SWITCH WAS OFF.
003035:
003036:
003037:                                                                                                  #           THE ADDRESS SUPPLIED WITH THE SWITCH INSTRUCTION IS INTERPRETED AS FOLLOWS:
003038:
003039:                                                                                                  #           BITS 1-4    SWITCH BIT NUMBER (1-15).
003040:                                                                                                  #           BITS 5-8    SWITCH OPERATION NUMBER.
003041:                                                                                                  #           BITS 9-     SWITCH WORD NUMBER (UP TO 64 SWITCH WORDS).
003042:
003043:                                                                                                  #           THE ADDRESS ITSELF IS MADE UP BY THE YUL SYSTEM ASSEMBLER. THE BRANCH INSTRUCTIONS REQUIRE TWO
003044:                                                                                                  #  ADDRESSES, THE SECOND TAKEN AS THE DIRECT (OR INDIRECT IF IN ERASABLE) ADDRESS OF THE BRANCH.
003045:
003046:
003047: 01,2522           34753        SWITCHES           CAF      LOW4                                  #  LEAVE THE SWITCH BIT IN  SWBIT  .
003048: 01,2523           70117                           MASK     POLISH
003049: 01,2524           50000                           INDEX    A
003050: 01,2525           34726                           CAF      BIT15                                 #  (NUMBER FROM LEFT TO RIGHT.)
003051: 01,2526           54131                           TS       SWBIT
003052:
003053: 01,2527           34736                           CAF      BIT7                                  #  LEAVE THE SWITCH NUMBER IN SWWORD.
003054: 01,2530           00006                           EXTEND
003055: 01,2531           70117                           MP       POLISH
003056: 01,2532           54130                           TS       SWWORD
003057:
003058: 01,2533           00004                           INHINT                                         #  DURING SWITCH CHANGE SO RUPT CAN USE TOO
003059: 01,2534           50000                           INDEX    A                                     #  LEAVE THE SWITCH WORD ITSELF IN L.
003060: 01,2535           30074                           CA       STATE
003061: 01,2536           54002                           TS       Q                                     #  Q WILL BE USED AS A CHANNEL.


003063: 01,2537           34732                           CAF      BIT11
003064: 01,2540           00006                           EXTEND                                         #  DISPATCH SWITCH BIT OPERATION AS IN BITS
003065: 01,2541           70117                           MP       POLISH                                #  7-8 OF POLISH.
003066: 01,2542           72602                           MASK     B3TOB4                                #  GETS 4X2-BIT CODE.
003067: 01,2543           50000                           INDEX    A
003068: 01,2544           12545                           TCF      +1
003069:
003070: 01,2545           30131                 +1        CA       SWBIT                                 #  00 - SET SWITCH IN QUESTION.
003071: 01,2546           00006                           EXTEND
003072: 01,2547           04002                           ROR      QCHAN
003073: 01,2550           12557                           TCF      SWSTORE
003074:
003075: 01,2551           30131                 +5        CA       SWBIT                                 #  01 - INVERT SWITCH.
003076: 01,2552           00006                           EXTEND
003077: 01,2553           06002                           RXOR     QCHAN
003078: 01,2554           12557                           TCF      SWSTORE
003079:
003080: 01,2555           40131                 +9D       CS       SWBIT                                 #  10 - CLEAR.
003081: 01,2556           70002                           MASK     Q
003082: 01,2557           50130        SWSTORE            INDEX    SWWORD
003083: 01,2560           54074                           TS       STATE                                 #  NEW SWITCH WORD.
003084:


003086: 01,2561           00003                 +13D      RELINT                                         #  11 - NOOP.
003087: 01,2562           34730                           CAF      BIT13
003088: 01,2563           00006                           EXTEND                                         #  DISPATCH SEQUCE CHANGING OR BRANCHING
003089: 01,2564           70117                           MP       POLISH                                #  CODE.
003090: 01,2565           72602                           MASK     B3TOB4
003091: 01,2566           50000                           INDEX    A
003092: 01,2567           12570                           TCF      +1                                    #  ORIGINALLY STORED IN BITS 5-6.
003093:
003094: 01,2570           40002                 +1        CS       Q                                     #  00 - BRANCH IF ON.
003095: 01,2571           70131        TEST               MASK     SWBIT
003096: 01,2572           10000                           CCS      A
003097: 01,2573           12603                           TCF      SWSKIP
003098:
003099: 01,2574           16736                 +5        TCF      SWBRANCH                              #  01 - GO TO.
003100:
003101: 01,2575           12603                           TCF      SWSKIP                                #  HERE ONLY ON BIT 15.
003102:
003103: 01,2576           05701                           TC       CCSHOLE
003104: 01,2577           05701                           TC       CCSHOLE
003105:
003106: 01,2600           30002                 +9D       CA       Q                                     #  10 - BRANCH IF OFF.
003107: 01,2601           12571                           TCF      TEST
003108:
003109: 01,2602           00014        B3TOB4             OCT      0014
003110: 01,2603           24164        SWSKIP             INCR     LOC
003111:
003112: 01,2604  01,2522               SW/                EQUALS   SWITCHES
003113:
003114: 01,2604           16102                 +13D      TCF      DANZIG                                #  11 - NOOP.

End of include-file INTERPRETER.agc.  Parent file is MAIN.agc


