
Source Code


000002:                                                                                                  ## Copyright:   Public domain.
000003:                                                                                                  ## Filename:    INTERPRETER.agc
000004:                                                                                                  ## Purpose:     A section of Luminary revision 210.
000005:                                                                                                  ##              It is part of the source code for the Lunar Module's (LM)
000006:                                                                                                  ##              Apollo Guidance Computer (AGC) for Apollo 15-17.
000007:                                                                                                  ##              This file is intended to be a faithful transcription, except
000008:                                                                                                  ##              that the code format has been changed to conform to the
000009:                                                                                                  ##              requirements of the yaYUL assembler rather than the
000010:                                                                                                  ##              original YUL assembler.
000011:                                                                                                  ## Reference:   pp. 1000-1092
000012:                                                                                                  ## Assembler:   yaYUL
000013:                                                                                                  ## Contact:     Ron Burkey <info@sandroid.org>.
000014:                                                                                                  ## Website:     www.ibiblio.org/apollo/index.html
000015:                                                                                                  ## Mod history: 2016-11-17 JL   Created from Luminary131 version.
000016:                                                                                                  ##              2016-12-03 MAS  Started transcription.
000017:                                                                                                  ##              2016-12-07 MAS  Completed transcription.
000018:                                                                                                  ##              2016-12-07 HG   fix P00 -> POO (only in operand POODOO1)
000019:


000021:                                                                                                  #  SECTION 1  DISPATCHER
000022:
000023:                                                                                                  #           ENTRY TO THE INTERPRETER. INTPRET SETS LOC TO THE FIRST  INSTRUCTION, BANKSET TO THE BBANK OF THE
000024:                                                                                                  #  OBJECT INTERPRETIVE PROGRAM, AND INTBIT15 TO THE BIT15 CONTENTS OF FBANK. INTERPRETIVE PROGRAMS MAY BE IN
000025:                                                                                                  #  VIRTUALLY ALL BANKS PRESENT UNDER ANY SUPER-BANK SETTING, WITH THE RESTRICTION THAT PROGRAMS IN HIGH BANKS
000026:                                                                                                  #  (BIT15 OF FBANK = 1) DO NOT REFER TO LOWBANKS, AND VICE-VERSA. THE INTERPRETER DOES NOT SWITCH SUPERBANKS.
000027:                                                                                                  #  E-BANK SWITCHING OCCURS WHENEVER GENERAL ERASABLE (100 - 3777) IS ADDRESSED.
000028:
000029:    6060                                           BLOCK    03
000030:
000031:    6060                                           COUNT*   $$/INTER
000032:    6060           00003        INTPRET            RELINT
000033:    6061           00006                           EXTEND                                         #  SET LOC TO THE WORD FOLLOWING THE TC.
000034:    6062           22164                           QXCH     LOC
000035:
000036:    6063           30006                 +2        CA       BBANK                                 #  INTERPRETIVE BRANCHES FINISH HERE.
000037:    6064           54165                           TS       BANKSET
000038:    6065           74726                           MASK     BIT15                                 #  GET 15TH BIT FOR INDEXABLE ADDRESSES.
000039:    6066           54115                           TS       INTBIT15
000040:
000041:    6067           54023                           TS       EDOP                                  #  MAKE SURE NO INSTRUCTIONS LEFT OVER
000042:
000043:    6070           16111                           TCF      NEWOPS                                #  PICK UP OP CODE PAIR AND BEGIN.
000044:
000045:
000046:    6071           22006        INTRSM             LXCH     BBANK                                 #  RESUME SUSPENDED INTERPRETIVE JOB
000047:    6072           16063                           TCF      INTPRET    +3
000048:                                                                                                  #           DLOAD LOADS MPAC, MPAC +1, LEAVING ZERO IN MPAC +2.
000049:
000050:    6073           00006        DLOAD              EXTEND
000051:    6074           50116                           INDEX    ADDRWD
000052:    6075           30001                           DCA      0                                     #  LOAD DP C(C(ADDRWD)) INTO MPAC,MPAX +1
000053:    6076           52155        SLOAD2             DXCH     MPAC
000054:    6077           34746                           CAF      ZERO                                  #  ZERO MPAC +2
000055:


000057:                                                                                                  #           AT THE END OF MOST INSTRUCTIONS, CONTROL IS GIVEN TO DANZIG TO DISPATCH THE NEXT OPERATION.
000058:
000059:    6100           54156                           TS       MPAC       +2                         #  AND DECLARE DP MODE
000060:
000061:    6101           54163        NEWMODE            TS       MODE                                  #  PROLOGUE FOR MODE-CHANGING INSTRUCTIONS.
000062:
000063:    6102           30165        DANZIG             CA       BANKSET                               #  SET BBANK BEFORE TESTING NEWJOB SO THAT
000064:    6103           54006                           TS       BBANK                                 #  IT MAY BE SAVED DIRECTLY BY CHANJOB.
000065:
000066:    6104           10023        NOIBNKSW           CCS      EDOP                                  #  SEE IF AN ORDER CODE IS LEFT OVER FROM
000067:    6105           16120                           TCF      OPJUMP                                #  THE LAST PAIR RETRIEVED. IF SO, EXECUTE.
000068:                                                                                                  #  EDOP IS SET TO ZERO ON ITS RE-EDITING.
000069:
000070:    6106           10067                           CCS      NEWJOB                                #  SEE IF A JOB OF HIGHER PRIORITY IS
000071:    6107           15117                           TCF      CHANG2                                #  PRESENT, AND IF SO, CHANGE JOBS.
000072:
000073:    6110           24164                           INCR     LOC                                   #  ADVANCE THE LOCATION COUNTER.
000074:                                                                                                  #           ITRACE (1) REFERS TO "NEWOPS"
000075:    6111           50164        NEWOPS             INDEX    LOC                                   #  ENTRY TO BEGIN BY PICKING OP CODE PAIR.
000076:    6112           30000                           CA       0                                     #  MAY BE AN OPCODE PAIR OR A STORE CODE.
000077:    6113           10000                           CCS      A                                     #  TEST SIGN AND GET DABS(A).
000078:    6114           16403                           TCF      DOSTORE                               #  PROCESS STORE CODE.
000079:
000080:    6115           00177        LOW7               OCT      177
000081:
000082:    6116           54023                           TS       EDOP                                  #  OP CODE PAIR. LEAVE THE OTHER IN EDOP
000083:    6117           76115                           MASK     LOW7                                  #  WHERE  CCS EDOP  WILL HONOR IT NEXT.
000084:
000085:    6120           54020        OPJUMP             TS       CYR                                   #  LOWWD ENTERS HERE IF A RIGHT-HAND OP
000086:    6121           10020                           CCS      CYR                                   #  CODE IS TO BE PROCESSED. TEST PREFICES.
000087:    6122           16270                           TCF      OPJUMP2                               #  TEST SECOND PREFIX BIT.
000088:
000089:    6123           16764                           TCF      EXIT                                  #  +0 OP CODE IS EXIT.
000090:


000092:                                                                                                  #           PROCESS ADDRESSES WHICH MAY BE DIRECT, INDEXED, OR REFERENCE THE PUSHDOWN LIST.
000093:
000094:    6124           74744        ADDRESS            MASK     BIT1                                  #  SEE IF ADDRESS IS INDEXED. CYR CONTAINED
000095:    6125           10000                           CCS      A                                     #  400XX, SO BIT 1 IS NOW AS IT WAS IN CYR.
000096:    6126           16167                           TCF      INDEX                                 #  FORM INDEXED ADDRESS.
000097:
000098:    6127           50164        DIRADRES           INDEX    LOC                                   #  LOOK AHEAD TO NEXT WORD TO SEE IF
000099:    6130           40001        OCT40001           CS       1                                     #  ADDRESS IS GIVEN.
000100:    6131           10000                           CCS      A
000101:    6132           16236                           TCF      PUSHUP                                #  IF NOT.
000102:
000103:    6133           77773        NEG4               DEC      -4         B-14
000104:
000105:    6134           24164                           INCR     LOC                                   #  IF SO, TO SHOW WE PICKED UP A WORD.
000106:    6135           54116                           TS       ADDRWD
000107:


000109:                                                                                                  #           FINAL DIGESTION OF DIRECT ADDRESSES OF OP CODES WITH 01 PREFIX IS DONE HERE. IN EACH CASE, THE
000110:                                                                                                  #  REQUIRED 12-BIT SUB-ADDRESS IS LEFT IN ADDRWD, WITH ANY REQUIRED E OR F BANK SWITCHING DONE. ADDRESSES LESS
000111:                                                                                                  #  THAN 45D ARE TAKEN TO BE RELATIVE TO THE WORK AREA. THE OP CODE IS NOW IN BITS 1-5 OF CYR WITH BIT 14 = 1.
000112:
000113:    6136           66272                           AD       -ENDVAC                               #  SEE IF ADDRESS RELATIVE TO WORK AREA.
000114:    6137           10000                           CCS      A
000115:    6140           67764                           AD       -ENDERAS                              #  IF NOT, SEE IF IN GENERAL ERASABLE.
000116:    6141           16146                           TCF      IERASTST
000117:
000118:    6142           30120        NETZERO            CA       FIXLOC                                #  IF SO, LEAVE THE MODIFIED ADDRESS IN
000119:    6143           26116                           ADS      ADDRWD                                #  ADDRWD AND DISPATCH.
000120:    6144           50020        ITR15              INDEX    CYR                                   #  THIS INDEX MAKES THE NEXT INSTRUCTION
000121:    6145           76314                           7        INDJUMP    -1                         #  TCF INDJUMP + OP, EDITING CYR.
000122:
000123:    6146           00006        IERASTST           EXTEND
000124:    6147           66157                           BZMF     GEADDR                                #  GO PROCESS GENERAL-ERASABLE ADDRESS.
000125:
000126:    6150           75003                           MASK     LOW10                                 #  FIXED BANK ADDRESS. RESTORE AND ADD B15.
000127:    6151           65003                           AD       LOW10                                 #  SWITCH BANKS AND LEAVE SUBADDRESS IN
000128:    6152           56116                           XCH      ADDRWD                                #  ADDRWD FOR OPERAND RETRIEVAL. (THIS
000129:    6153           60115                           AD       INTBIT15                              #  METHOD PRECLUDES USE OF THE LAST
000130:    6154           54004                           TS       FBANK                                 #  LOCATION IN EACH FBANK.)
000131:    6155           50020        ITR12              INDEX    CYR
000132:    6156           76314                           7        INDJUMP    -1
000133:
000134:    6157           74350        GEADDR             MASK     LOW8
000135:    6160           65000                           AD       OCT1400
000136:    6161           56116                           XCH      ADDRWD
000137:    6162           54003                           TS       EBANK
000138:    6163           50020        ITR10              INDEX    CYR
000139:    6164           76314                           7        INDJUMP    -1
000140:


000142:                                                                                                  #           THE FOLLOWING ROUTINE PROCESSES INTERPRETIVE INDEXED ADDRESSES. AN INTERPRETER INDEX REGISTER MAY
000143:                                                                                                  #  CONTAIN THE ADDRESS OF ANY ERASABLE REGISTER (0-42 BEING RELATIVE TO THE VAC AREA) OR ANY INTERPRETIVE PROGRAM
000144:                                                                                                  #  BANK, OR ANY INTEGER IN THAT RANGE.
000145:
000146:    6165           37754        DODLOAD*           CAF      DLOAD*                                #  STODL* COMES HERE TO PROCESS LOAD ADR.
000147:    6166           54020                           TS       CYR                                   #  (STOVL* ENTERS HERE).
000148:
000149:    6167           30120        INDEX              CA       FIXLOC                                #  SET UP INDEX LOCATION.
000150:    6170           54130                           TS       INDEXLOC
000151:    6171           24164                           INCR     LOC                                   #  (ADDRESS ALWAYS GIVEN).
000152:    6172           50164                           INDEX    LOC
000153:    6173           40000                           CS       0
000154:    6174           10000                           CCS      A                                     #  INDEX 2 IF ADDRESS STORED COMPLEMENTED.
000155:    6175           24130                           INCR     INDEXLOC
000156:    6176           16177                           NOOP
000157:
000158:    6177           54116                           TS       ADDRWD                                #  14 BIT ADDRESS TO ADDRWD.
000159:    6200           77763                           MASK     HIGH4                                 #  IF ADDRESS GREATER THAN 2K, ADD INTBIT15
000160:    6201           00006                           EXTEND
000161:    6202           16205                           BZF      INDEX2
000162:    6203           30115                           CA       INTBIT15
000163:    6204           26116                           ADS      ADDRWD
000164:
000165:    6205           50130        INDEX2             INDEX    INDEXLOC
000166:    6206           40046                           CS       X1
000167:    6207           26116                           ADS      ADDRWD                                #  DO AUGMENT, IGNORING AND CORRECTING OVF.
000168:
000169:    6210           77765                           MASK     HIGH9                                 #  SEE IF ADDRESS IS IN WORK AREA.
000170:    6211           00006                           EXTEND
000171:    6212           16225                           BZF      INDWORK
000172:    6213           77763                           MASK     HIGH4                                 #  SEE IF IN FIXED BANK.
000173:    6214           00006                           EXTEND
000174:    6215           16227                           BZF      INDERASE
000175:
000176:    6216           30116                           CA       ADDRWD                                #  IN FIXED - SWITCH BANKS AND CREATE
000177:    6217           54004                           TS       FBANK                                 #  SUB-ADDRESS.
000178:    6220           75003                           MASK     LOW10
000179:    6221           64732                           AD       2K
000180:    6222           54116                           TS       ADDRWD
000181:    6223           50020        ITR11              INDEX    CYR
000182:    6224           36314                           3        INDJUMP    -1
000183:
000184:    6225           30120        INDWORK            CA       FIXLOC                                #  MAKE ADDRWD RELATIVE TO WORK AREA.
000185:    6226           16233                           TCF      ITR13      -1
000186:
000187:    6227           35000        INDERASE           CA       OCT1400
000188:    6230           56116                           XCH      ADDRWD
000189:    6231           54003                           TS       EBANK
000190:    6232           74350                           MASK     LOW8
000191:    6233           26116                 -1        ADS      ADDRWD


000193:    6234           50020        ITR13              INDEX    CYR
000194:    6235           36314                           3        INDJUMP    -1
000195:


000197:                                                                                                  #           PUSH-UP ROUTINES. WHEN NO OPERAND ADDRESS IS GIVEN, THE APPROPRIATE OPERAND IS TAKEN FROM THE PUSH-DOWN
000198:                                                                                                  #  LIST. IN MOST CASES THE MODE OF THE RESULT (VECTOR OR SCALAR) OF THE LAST ARITHMETIC OPERATION PERFORMED
000199:                                                                                                  #  IS THE SAME AS THE TYPE OF OPERAND DESIRED (ALL ADD/SUBTRACT ETC.). EXCEPTIONS TO THIS GENERAL RULE ARE LISTED
000200:                                                                                                  #  BELOW (NOTE THAT IN EVERY CASE THE MODE REGISTER IS LEFT INTACT):
000201:
000202:                                                                                                  #           1.  VXSC AND V/SC WANT THE OPPOSITE TYPE OF OPERAND, E.G., IF THE LAST OPERATION YIELDED A VECTOR
000203:                                                                                                  #  RESULT, VXSC WANTS A SCALAR.
000204:
000205:                                                                                                  #           2.  THE LOAD CODES SHOULD LOAD THE ACCUMULATOR INDEPENDENT OF THE RESULT OF THE LAST OPERATION. THIS
000206:                                                                                                  #  INCLUDES VLOAD, DLOAD, TLOAD, PDDL, AND PDVL (NO PUSHUP WITH SLOAD).
000207:
000208:                                                                                                  #           3.  SOME ARITHMETIC OPERATIONS REQUIRE A STANDARD TYPE OF OPERAND REGARDLESS OF THE PREVIOUS OPERATION.
000209:                                                                                                  #  THIS INCLUDES SIGN WANTING DP AND TAD REQUIRING TP.
000210:
000211:    6236           34351        PUSHUP             CAF      OCT23                                 #  IF THE LOW 5 BITS OF CYR ARE LESS THAN
000212:    6237           70020                           MASK     CYR                                   #  20, THIS OP REQUIRES SPECIAL ATTENTION.
000213:    6240           66243                           AD       -OCT10                                #  (NO -0).
000214:    6241           10000                           CCS      A
000215:    6242           16254                           TCF      REGUP                                 #  FOR ALL CODES GREATER THAN OCT 7.
000216:
000217:    6243           77767        -OCT10             OCT      -10
000218:
000219:    6244           66133                           AD       NEG4                                  #  WE NOW HAVE 7 - OP CODE(MOD4). SEE IF
000220:    6245           10000                           CCS      A                                     #  THE OP CODE (MOD4) IS THREE (REVERSE).
000221:    6246           50000                           INDEX    A                                     #  NO - THE MODE IS DEFINITE. PICK UP THE
000222:    6247           46265                           CS       NO.WDS
000223:    6250           16256                           TCF      REGUP      +2
000224:
000225:    6251           50163                           INDEX    MODE                                  #  FOR VXSC AND V/SC WE WANT THE REQUIRED
000226:    6252           46263                           CS       REVCNT                                #  PUSHLOC DECREMENT WITHOUT CHANGING THE
000227:    6253           16256                           TCF      REGUP      +2                         #  MODE AT THIS TIME.
000228:
000229:    6254           50163        REGUP              INDEX    MODE                                  #  MOST ALL OP CODES PUSHUP HERE.
000230:    6255           46265                           CS       NO.WDS
000231:    6256           26166                 +2        ADS      PUSHLOC
000232:    6257           54116                           TS       ADDRWD
000233:    6260           50020        ITR14              INDEX    CYR
000234:    6261           76314                           7        INDJUMP    -1                         #  (THE INDEX MAKES THIS A TCF.)
000235:
000236:    6262           00002                           OCT      2                                     #  REVERSE PUSHUP DECREMENT. VECTOR TAKES 2
000237:    6263           00006        REVCNT             OCT      6                                     #  WORDS, SCALAR TAKES 6.
000238:    6264           00006                           OCT      6
000239:    6265           00002        NO.WDS             OCT      2                                     #  CONVENTIONAL DECREMENT IS 6 WORDS VECTOR
000240:    6266           00003        OCTAL3             OCT      3                                     #  2 IN DP, AND 3 IN TP.
000241:    6267           00006                           OCT      6
000242:


000244:                                                                                                  #           TEST THE SECOND PREFIX BIT TO SEE IF THIS IS A MISCELLANEOUS OR A UNARY/SHORT SHIFT OPERATION.
000245:
000246:    6270           10020        OPJUMP2            CCS      CYR                                   #  TEST SECOND PREFIX BIT.
000247:    6271           16304                           TCF      OPJUMP3                               #  TEST THIRD BIT TO SEE IF UNARY OR SHIFT.
000248:
000249:    6272           77722        -ENDVAC            DEC      -45        B-14
000250:
000251:                                                                                                  #           THE FOLLOWING ROUTINE PROCESSES ADDRESSES OF SUFFIX CLASS 10. THEY ARE BASICALLY WORK AREA ADDRESSES
000252:                                                                                                  #  IN THE RANGE 0 - 52, ERASABLE ECADR CONSTANTS FROM 100 - 3777, AND FCADRS ABOVE THAT. ALL 15 BITS ARE AVAILABLE
000253:                                                                                                  #  IN CONTRAST TO SUFFIX 1, IN WHICH ONLY THE LOW ORDER 14 ARE AVAILABLE.
000254:
000255:    6273           24164        15BITADR           INCR     LOC                                   #  (ENTRY HERE FROM STCALL).
000256:    6274           50164                           INDEX    LOC                                   #  PICK UP ADDRESS WORD.
000257:    6275           30000                           CA       0
000258:    6276           54117                           TS       POLISH                                #  WE MAY NEED A SUBADDRESS LATER.
000259:
000260:    6277           35004                           CAF      LOW7+2K                               #  THESE INSTRUCTIONS ARE IN BANK 1.
000261:    6300           54004                           TS       FBANK
000262:    6301           70020                           MASK     CYR
000263:    6302           50000        ITR7               INDEX    A
000264:    6303           16355                           TCF      MISCJUMP
000265:


000267:                                                                                                  #           COMPLETE THE DISPATCHING OF UNARY AND SHORT SHIFT OPERATIONS.
000268:
000269:    6304           54004        OPJUMP3            TS       FBANK                                 #  CALL IN BANK 0 (BIT5S 11-15 OF A ARE 0.)
000270:                                                                                                  #           ITRACE (6) REFERS TO "OPJUMP3".
000271:    6305           10020                           CCS      CYR                                   #  TEST THIRD PREFIX BIT.
000272:    6306           50000                           INDEX    A                                     #  THE DECREMENTED UNARY CODE IS IN BITS
000273:    6307           12000                           TCF      UNAJUMP                               #  1-4 OF A (ZERO, EXIT, HAS BEEN DETECTED)
000274:
000275:    6310           10163                           CCS      MODE                                  #  ITS A SHORT SHIFT CODE. SEE IF PRESENT
000276:    6311           12017                           TCF      SHORTT                                #  SCALAR OR VECTOR.
000277:    6312           12017                           TCF      SHORTT
000278:    6313           12121                           TCF      SHORTV                                #  CALLS THE APPROPRIATE ROUTINE.
000279:
000280:    6314     4341               FBANKMSK           EQUALS   BANKMASK
000281:    6314           00122        LVBUF              ADRES    VBUF
000282:


000284:                                                                                                  #           THE FOLLOWING IS THE JUMP TABLE FOR OP CODES WHICH MAY HAVE INDEXABLE ADDRESSES OR MAY PUSH UP.
000285:
000286:    6315           16526        INDJUMP            TCF      VLOAD                                 #  00 - LOAD MPAC WITH A VECTOR.
000287:    6316           17112                           TCF      TAD                                   #  01 - TRIPLE PRECISION ADD TO MPAC.
000288:    6317           17676                           TCF      SIGN                                  #  02 - COMPLEMENT MPAC (V OR SC) IF X NEG.
000289:    6320           17422                           TCF      VXSC                                  #  03 - VECTOR TIMES SCALAR.
000290:    6321           16724                           TCF      CGOTO                                 #  04 - COMPUTED GO TO.
000291:    6322           16511                           TCF      TLOAD                                 #  05 - LOAD MPAC WITH TRIPLE PRECISION.
000292:    6323           16073                           TCF      DLOAD                                 #  06 - LOAD MPAC WITH A DP SCALAR.
000293:    6324           17645                           TCF      V/SC                                  #  07 - VECTOR DIVIDED BY SCALAR.
000294:
000295:    6325           16522                           TCF      SLOAD                                 #  10 - LOAD MPAC IN SINGLE PRECISION.
000296:    6326           16641                           TCF      SSP                                   #  11 - SET SINGLE PRECISION INTO X.
000297:    6327           16544                           TCF      PDDL                                  #  12 - PUSH DOWN MPAC AND RE-LOAD IN DP.
000298:    6330           17355                           TCF      MXV                                   #  13 - MATRIX POST-MULTIPLIED BY VECTOR.
000299:    6331           16600                           TCF      PDVL                                  #  14 - PUSH DOWN AND VECTOR LOAD.
000300:    6332           16647                           TCF      CCALL                                 #  15 - COMPUTED CALL.
000301:    6333           17360                           TCF      VXM                                   #  16 - MATRIX PRE-MULTIPLIED BY VECTOR.
000302:    6334           17637                           TCF      TSLC                                  #  17 - NORMALIZE MPAC (SCALAR ONLY).
000303:
000304:    6335           17615                           TCF      DMPR                                  #  20 - DP MULTIPLY AND ROUND.
000305:    6336           17620                           TCF      DDV                                   #  21 - DP DIVIDE BY.
000306:    6337           17624                           TCF      BDDV                                  #  22 - DP DIVIDE INTO.
000307:    6340           17642                           TCF      GSHIFT                                #  23 - GENERAL SHIFT INSTRUCTION.
000308:    6341           16772                           TCF      VAD                                   #  24 - VECTOR ADD.
000309:    6342           16770                           TCF      VSU                                   #  25 - VECTOR SUBTRACT.
000310:    6343           17057                           TCF      BVSU                                  #  26 - VECTOR SUBTRACT FROM.
000311:    6344           17352                           TCF      DOT                                   #  27 - VECTOR DOT PRODUCT.
000312:
000313:    6345           17501                           TCF      VXV                                   #  30 - VECTOR CROSS PRODUCT.
000314:    6346           17446                           TCF      VPROJ                                 #  31 - VECTOR PROJECTION.
000315:    6347           17026                           TCF      DSU                                   #  32 - DP SUBTRACT.
000316:    6350           17103                           TCF      BDSU                                  #  33 - DP SUBTRACT FROM.
000317:    6351           17016                           TCF      DAD                                   #  34 - DP ADD.
000318:    6352           16352                           TCF      +0                                    #  35 - AVAILABLE
000319:    6353           17613                           TCF      DMP1                                  #  36 - DP MULTIPLY.
000320:    6354           17634                           TCF      SETPD                                 #  37 - SET PUSH DOWN POINTER (DIRECT ONLY)
000321:
000322:                                                                                                  #  CODES 10 AND 14 MUST NOT PUSH UP. CODE 04 MAY BE USED FOR VECTOR DECLARE BEFORE PUSHUP IF DESIRED.
000323:


000325:                                                                                                  #           THE FOLLOWING JUMP TABLE APPLIES TO INDEX, BRANCH, AND MISCELLANEOUS INSTRUCTIONS.
000326:
000327:    6355           12350        MISCJUMP           TCF      AXT                                   #  00 - ADDRESS TO INDEX TRUE.
000328:    6356           12355                           TCF      AXC                                   #  01 - ADDRESS TO INDEX COMPLEMENTED.
000329:    6357           12360                           TCF      LXA                                   #  02 - LOAD INDEX FROM ERASABLE.
000330:    6360           12364                           TCF      LXC                                   #  03 - LOAD INDEX FROM COMPLEMENT OF ERAS.
000331:    6361           12370                           TCF      SXA                                   #  04 - STORE INDEX IN ERASABLE.
000332:    6362           12376                           TCF      XCHX                                  #  05 - EXCHANGE INDEX WITH ERASABLE.
000333:    6363           12412                           TCF      INCR                                  #  06 - INCREMENT INDEX REGISTER.
000334:    6364           12421                           TCF      TIX                                   #  07 - TRANSFER ON INDEX.
000335:
000336:    6365           12404                           TCF      XAD                                   #  10 - INDEX REGISTER ADD FROM ERASABLE.
000337:    6366           12415                           TCF      XSU                                   #  11 - INDEX SUBTRACT FROM ERASABLE.
000338:    6367           12473                           TCF      BZE/GOTO                              #  12 - BRANCH ZERO AND GOTO.
000339:    6370           12500                           TCF      BPL/BMN                               #  13 - BRANCH PLUS AND BRANCH MINUS.
000340:    6371           12453                           TCF      RTB/BHIZ                              #  14 - RETURN TO BASIC AND BRANCH HI ZERO.
000341:    6372           12513                           TCF      CALL/ITA                              #  15 - CALL AND STORE QPRET.
000342:    6373           12522                           TCF      SW/                                   #  16 - SWITCH INSTRUCTIONS AND AVAILABLE.
000343:    6374           12463                           TCF      BOV(B)                                #  17 - BRANCH ON OVERFLOW TO BASIC OR INT.
000344:


000346:                                                                                                  #           THE FOLLOWING JUMP TABLE APPLIES TO UNARY INSTRUCTIONS.
000347:
000348:    6375                                           COUNT*   $$/INTER
000349: 00,2000                                           BANK     0                                     #  00 - EXIT - DETECTED EARLIER.
000350: 00,2000           13207        UNAJUMP            TCF      SQRT                                  #  01 - SQUARE ROOT.
000351: 00,2001           13530                           TCF      SINE                                  #  02 - SIN.
000352: 00,2002           13517                           TCF      COSINE                                #  03 - COS.
000353: 00,2003           13610                           TCF      ARCSIN                                #  04 - ARC SIN.
000354: 00,2004           13612                           TCF      ARCCOS                                #  05 - ARC COS.
000355: 00,2005           13174                           TCF      DSQ                                   #  06 - DP SQUARE.
000356: 00,2006           12116                           TCF      ROUND                                 #  07 - ROUND TO DP.
000357:
000358: 00,2007           17711                           TCF      COMP                                  #  10 - COMPLEMENT VECTOR OR SCALAR.
000359: 00,2010           13232                           TCF      VDEF                                  #  11 - VECTOR DEFINE.
000360: 00,2011           13023                           TCF      UNIT                                  #  12 - UNIT VECTOR.
000361: 00,2012           13176                           TCF      ABVALABS                              #  13 - LENGTH OF VECTOR OR MAG OF SCALAR.
000362: 00,2013           13245                           TCF      VSQ                                   #  14 - SQUARE OF LENGTH OF VECTOR.
000363: 00,2014           16375                           TCF      STADR                                 #  15 - PUSH UP ON STORE CODE.
000364: 00,2015           13274                           TCF      RVQ                                   #  16 - RETURN VIA QPRET.
000365: 00,2016           13247                           TCF      PUSH                                  #  17 - PUSH MPAC DOWN.
000366:


000368:                                                                                                  #  SECTION 2  LOAD AND STORE PACKAGE.
000369:
000370:                                                                                                  #           A SET OF EIGHT STORE CODES IS PROVIDED AS THE PRIMARY METHOD OF STORING THE MULTI-PURPOSE
000371:                                                                                                  #  ACCUMULATOR (MPAC). IF IN THE DANZIG SECTION LOC REFERS TO AN ALGEBRAICALLY POSITIVE WORD, IT IS TAKEN AS A
000372:                                                                                                  #  STORE CODE WITH A CORRESPONDING ERASABLE ADDRESS. MOST OF THESE CODES ARE TWO ADDRESS, SPECIFYING THAT THE WORD
000373:                                                                                                  #  FOLLOWING THE STORE CODE IS TO BE USED AS AN ADDRESS FROM WHICH TO RE-LOAD MPAC. FOUR OPTIONS ARE AVAILABLE:
000374:
000375:                                                                                                  #           1. STORE               STORE MPAC. THE E ADDRESS MAY BE INDEXED.
000376:                                                                                                  #           2. STODL               STORE MPAC AND RE-LOAD IT IN DP WITH THE NEXT ADDRESS (THE LOAD MAY BE INDEXED).
000377:                                                                                                  #           3. STOVL               STORE MPAC AND RE-LOAD A VECTOR (AS ABOVE).
000378:                                                                                                  #           4. STCALL              STORE AND DO A CALL (BOTH ADDRESSES MUST BE DIRECT HERE).
000379:
000380:                                                                                                  #           STODL AND STOVL WILL TAKE FROM THE PUSH-DOWN LIST IF NO LOAD ADDRESS IS GIVEN.
000381:
000382:    6375                                           BLOCK    3
000383:
000384:    6375                                           COUNT*   $$/INTER
000385:    6375           30165        STADR              CA       BANKSET                               #  THE STADR CODE (PUSHUP UP ON STORE
000386:    6376           54004                           TS       FBANK                                 #  ADDRESS) ENTERS HERE.
000387:    6377           24164                           INCR     LOC
000388:    6400           50164        ITR1               INDEX    LOC                                   #  THE STORECODE WAS STORED COMPLEMENTED TO
000389:    6401           40000                           CS       0                                     #  MAKE IT LOOK LIKE AN OPCODE PAIR.
000390:    6402           67770                           AD       NEGONE                                #  (YUL CANT REMOVE 1 BECAUSE OF EARLY CCS)
000391:
000392:    6403           54116        DOSTORE            TS       ADDRWD
000393:    6404           74347                           MASK     LOW11                                 #  ENTRY FROM DISPATCHER. SAVE THE ERASABLE
000394:    6405           56116                           XCH      ADDRWD                                #  ADDRESS AND JUMP ON THE STORE CODE NO.
000395:    6406           77743                           MASK     B12T14
000396:    6407           00006                           EXTEND
000397:    6410           74740                           MP       BIT5                                  #  EACH TRANSFER VECTOR ENTRY IS TWO WORDS.
000398:    6411           50000        ITR0               INDEX    A
000399:    6412           16413                           TCF      STORJUMP
000400:


000402:                                                                                                  #           STORE CODE JUMP TABLE. CALLS THE APPROPRIATE STORING ROUTINE AND EXITS TO DANZIG OR TO ADDRESS WITH
000403:                                                                                                  #  A SUPPLIED OPERATION CODE.
000404:
000405:                                                                                                  #           STORE STORE,1 AND STORE,2 RETURN TO DANZIG, THUS RESETTING THE EBANK TO ITS STATE AT INTPRET.
000406:
000407:    6413           06443        STORJUMP           TC       STORE                                 #  STORE.
000408:    6414           16102                           TCF      DANZIG                                #  PICK UP NEW OP CODE(S).
000409:    6415           06435                           TC       STORE,1
000410:    6416           16102                           TCF      DANZIG
000411:    6417           06440                           TC       STORE,2
000412:    6420           16102                           TCF      DANZIG
000413:
000414:    6421           06443                           TC       STORE                                 #  STODL.
000415:    6422           16501                           TCF      DODLOAD
000416:
000417:    6423           06443                           TC       STORE                                 #  STODL WITH INDEXED LOAD ADDRESS.
000418:    6424           16165                           TCF      DODLOAD*
000419:
000420:    6425           06443                           TC       STORE                                 #  STOVL.
000421:    6426           16504                           TCF      DOVLOAD
000422:
000423:    6427           06443                           TC       STORE                                 #  STOVL WITH INDEXED LOAD ADDRESS.
000424:    6430           16507                           TCF      DOVLOAD*
000425:    6431           06443                           TC       STORE                                 #  STOTC.
000426:    6432           34757                           CAF      CALLCODE
000427:    6433           54020                           TS       CYR
000428:    6434           16273                           TCF      15BITADR                              #  GET A 15 BIT ADDRESS.
000429:


000431:                                                                                                  #           STORE CODE ADDRESS PROCESSOR.
000432:
000433:    6435           50120        STORE,1            INDEX    FIXLOC
000434:    6436           40046                           CS       X1
000435:    6437           16442                           TCF      PRESTORE
000436:
000437:    6440           50120        STORE,2            INDEX    FIXLOC
000438:    6441           40047                           CS       X2
000439:    6442           26116        PRESTORE           ADS      ADDRWD                                #  RESULTANT ADDRESS IS IN ERASABLE.
000440:
000441:    6443           40116        STORE              CS       ADDRWD
000442:    6444           64763                           AD       DEC45
000443:    6445           10000                           CCS      A                                     #  DOES THE ADDRESS POINT TO THE WORK AREA?
000444:    6446           30120                           CA       FIXLOC                                #  YES.
000445:    6447           16454                           TCF      AHEAD5
000446:    6450           35000                           CA       OCT1400                               #  NO.  SET EBANK & MAKE UP SUBADDRESS.
000447:    6451           56116                           XCH      ADDRWD
000448:    6452           54003                           TS       EBANK
000449:    6453           74350                           MASK     LOW8
000450:    6454           26116        AHEAD5             ADS      ADDRWD
000451:


000453:                                                                                                  #           STORING ROUTINES. STORE DP, TP, OR VECTOR AS INDICATED BY MODE.
000454:
000455:    6455           00006        STARTSTO           EXTEND                                         #  MPAC,+1 MUST BE STORED IN ANY EVENT.
000456:                                                                                                  #           ITRACE (5) REFERS TO "STARTSTO".
000457:    6456           30155                           DCA      MPAC
000458:    6457           50116                           INDEX    ADDRWD
000459:    6460           52001                           DXCH     0
000460:
000461:    6461           10163                           CCS      MODE
000462:    6462           16475                           TCF      TSTORE
000463:    6463           00002                           TC       Q
000464:
000465:    6464           00006        VSTORE             EXTEND
000466:    6465           30160                           DCA      MPAC       +3
000467:    6466           50116                           INDEX    ADDRWD
000468:    6467           52003                           DXCH     2
000469:
000470:    6470           00006                           EXTEND
000471:    6471           30162                           DCA      MPAC       +5
000472:    6472           50116                           INDEX    ADDRWD
000473:    6473           52005                           DXCH     4
000474:    6474           00002                           TC       Q
000475:
000476:    6475           30156        TSTORE             CA       MPAC       +2
000477:    6476           50116                           INDEX    ADDRWD
000478:    6477           54002                           TS       2
000479:    6500           00002                           TC       Q
000480:


000482:                                                                                                  #           ROUTINES TO BEGIN PROCESSING OF THE SECOND ADDRESS ASSOCIATED WITH ALL STORE-TYPE CODES EXCEPT STORE
000483:                                                                                                  #  ITSELF.
000484:
000485:    6501           37753        DODLOAD            CAF      DLOADCOD
000486:    6502           54020                           TS       CYR
000487:    6503           16127                           TCF      DIRADRES                              #  GO GET A DIRECT ADDRESS.
000488:
000489:    6504           34726        DOVLOAD            CAF      VLOADCOD
000490:    6505           54020                           TS       CYR
000491:    6506           16127                           TCF      DIRADRES
000492:
000493:    6507           36130        DOVLOAD*           CAF      VLOAD*
000494:    6510           16166                           TCF      DODLOAD*   +1                         #  PROLOGUE TO INDEX ROUTINE.
000495:


000497:                                                                                                  #           THE FOLLOWING LOAD INSTRUCTIONS ARE PROVIDED FOR LOADING THE MULTI-PURPOSE ACCUMULATOR MPAC.
000498:
000499:    6511           50116        TLOAD              INDEX    ADDRWD
000500:    6512           30002                           CA       2                                     #  LOAD A TRIPLE PRECISION ARGUMENT INTO
000501:    6513           54156                           TS       MPAC       +2                         #  THE FIRST THREE MPAC REGISTERS, WITH THE
000502:    6514           00006                           EXTEND                                         #  CONTENTS OF THE OTHER FOUR IRRELEVANT.
000503:    6515           50116                           INDEX    ADDRWD
000504:    6516           30001                           DCA      0
000505:    6517           52155                           DXCH     MPAC
000506:    6520           34744        TMODE              CAF      ONE
000507:    6521           16101                           TCF      NEWMODE                               #  DECLARE TRIPLE PRECISION MODE.
000508:
000509:    6522           22007        SLOAD              ZL                                             #  LOAD A SINGLE PRECISION NUMBER INTO
000510:    6523           50116                           INDEX    ADDRWD                                #  MPAC, SETTING MPAC+1,2 TO ZERO. THE
000511:    6524           30000                           CA       0                                     #  CONTENTS OF THE REMAINING MPAC REGISTERS
000512:    6525           16076                           TCF      SLOAD2                                #  ARE IRRELEVANT.
000513:
000514:    6526           00006        VLOAD              EXTEND                                         #  LOAD A DOUBLE PRECISION VECTOR INTO
000515:    6527           50116                           INDEX    ADDRWD                                #  MPAC,+1, MPAC+3,4, AND MPAC+5,6. THE
000516:    6530           30001                           DCA      0                                     #  CONTENTS OF MPAC +2 ARE IRRELEVANT.
000517:    6531           52155                           DXCH     MPAC
000518:
000519:    6532           00006        ENDVLOAD           EXTEND                                         #  PDVL COMES HERE TO FINISH UP FOR DP, TP.
000520:    6533           50116                           INDEX    ADDRWD
000521:    6534           30003                           DCA      2
000522:    6535           52160                           DXCH     MPAC       +3
000523:
000524:    6536           00006                 +4        EXTEND                                         #  TPDVL FINISHES HERE.
000525:    6537           50116                           INDEX    ADDRWD
000526:    6540           30005                           DCA      4
000527:    6541           52162                           DXCH     MPAC       +5
000528:
000529:    6542           44744        VMODE              CS       ONE                                   #  DECLARE VECTOR MODE.
000530:    6543           16101                           TCF      NEWMODE
000531:


000533:                                                                                                  #           THE FOLLOWING INSTRUCTIONS ARE PROVIDED FOR STORING OPERANDS IN THE PUSHDOWN LIST:
000534:                                                                                                  #           1.  PUSH               PUSHDOWN AND NO LOAD.
000535:                                                                                                  #           2.  PDDL               PUSHDOWN AND DOUBLE PRECISION LOAD.
000536:                                                                                                  #           3.  PDVL               PUSHDOWN AND VECTOR LOAD.
000537:
000538:    6544           00006        PDDL               EXTEND
000539:    6545           50116                           INDEX    ADDRWD                                #  LOAD MPAC,+1, PUSHING THE FORMER
000540:    6546           30001                           DCA      0                                     #  CONTENTS DOWN.
000541:    6547           52155                           DXCH     MPAC
000542:    6550           50166                           INDEX    PUSHLOC
000543:    6551           52001                           DXCH     0
000544:
000545:    6552           50163                           INDEX    MODE                                  #  ADVANCE THE PUSHDOWN POINTER APPRO-
000546:    6553           36265                           CAF      NO.WDS                                #  PRIATELY.
000547:    6554           26166                           ADS      PUSHLOC
000548:
000549:    6555           10163                           CCS      MODE
000550:    6556           16573                           TCF      ENDTPUSH
000551:    6557           16571                           TCF      ENDDPUSH
000552:
000553:    6560           54163                           TS       MODE                                  #  NOW DP.
000554:    6561           54156        ENDVPUSH           TS       MPAC       +2
000555:    6562           52160                           DXCH     MPAC       +3                         #  PUSH DOWN THE REST OF THE VECTOR HERE.
000556:    6563           50166                           INDEX    PUSHLOC
000557:    6564           51775                           DXCH     0          -4
000558:
000559:    6565           52162                           DXCH     MPAC       +5
000560:    6566           50166                           INDEX    PUSHLOC
000561:    6567           51777                           DXCH     0          -2
000562:
000563:    6570           16102                           TCF      DANZIG
000564:
000565:    6571           54156        ENDDPUSH           TS       MPAC       +2                         #  SET MPAC +2 TO ZERO AND EXIT ON DP.
000566:    6572           16102                           TCF      DANZIG
000567:
000568:    6573           54163        ENDTPUSH           TS       MODE
000569:    6574           56156                           XCH      MPAC       +2                         #  ON TRIPLE, SET MPAC +2 TO ZERO, PUSHING
000570:    6575           50166                 +2        INDEX    PUSHLOC                               #  DOWN THE OLD CONTENTS
000571:    6576           53777                           TS       0          -1
000572:    6577           16102                           TCF      DANZIG
000573:


000575:                                                                                                  #           PDVL - PUSHDOWN AND VECTOR LOAD.
000576:
000577:    6600           00006        PDVL               EXTEND                                         #  RELOAD MPAC AND PUSH DOWN ITS CONTENTS.
000578:    6601           50116                           INDEX    ADDRWD
000579:    6602           30001                           DCA      0
000580:    6603           52155                           DXCH     MPAC
000581:    6604           50166                           INDEX    PUSHLOC
000582:    6605           52001                           DXCH     0
000583:
000584:    6606           50163                           INDEX    MODE                                  #  ADVANCE THE PUSHDOWN POINTER.
000585:    6607           36265                           CAF      NO.WDS
000586:    6610           26166                           ADS      PUSHLOC
000587:
000588:    6611           10163                           CCS      MODE                                  #  TEST PAST MODE.
000589:    6612           16631                           TCF      TPDVL
000590:    6613           16532                           TCF      ENDVLOAD                              #  JUST LOAD LAST FOUR REGISTERS ON DP.
000591:
000592:    6614           00006        VPDVL              EXTEND                                         #  PUSHDOWN AND RE-LOAD LAST TWO COMPONENTS
000593:    6615           50116                           INDEX    ADDRWD
000594:    6616           30003                           DCA      2
000595:    6617           52160                           DXCH     MPAC       +3
000596:    6620           50166                           INDEX    PUSHLOC
000597:    6621           51775                           DXCH     0          -4
000598:
000599:    6622           00006                           EXTEND
000600:    6623           50116                           INDEX    ADDRWD
000601:    6624           30005                           DCA      4
000602:    6625           52162                           DXCH     MPAC       +5
000603:    6626           50166                           INDEX    PUSHLOC
000604:    6627           51777                           DXCH     0          -2
000605:
000606:    6630           16102                           TCF      DANZIG
000607:
000608:    6631           00006        TPDVL              EXTEND                                         #  ON TP, WE MUST LOAD THE Y COMPONENT
000609:    6632           50116                           INDEX    ADDRWD                                #  BEFORE STORING MPAC +2 INCASE THIS IS A
000610:    6633           30003                           DCA      2                                     #  PUSHUP.
000611:    6634           52160                           DXCH     MPAC       +3
000612:
000613:    6635           30156                           CA       MPAC       +2
000614:    6636           50166                           INDEX    PUSHLOC                               #  IN DP.
000615:    6637           53777                           TS       0          -1
000616:    6640           16536                           TCF      ENDVLOAD   +4
000617:
000618:                                                                                                  #           SSP (STORE SINGLE PRECISION) IS EXECUTED HERE.
000619:
000620:    6641           24164        SSP                INCR     LOC                                   #  PICK UP THE WORD FOLLOWING THE GIVEN
000621:    6642           50164                           INDEX    LOC                                   #  ADDRESS AND STORE IT AT X.
000622:    6643           30000                           CA       0
000623:    6644           50116        STORE1             INDEX    ADDRWD                                #  SOME INDEX AND MISCELLANEOUS OPS END
000624:    6645           54000                           TS       0                                     #  HERE.


000626:    6646           16102                           TCF      DANZIG
000627:


000629:                                                                                                  #  SEQUENCE CHANGING AND SUBROUTINE CALLING OPTIONS.
000630:
000631:                                                                                                  #           THE FOLLOWING OPERATIONS ARE AVAILABLE FOR SEQUENCING CHANGING, BRANCHING, AND CALLING SUBROUTINES:
000632:
000633:                                                                                                  #           1.  GOTO               GO TO.
000634:                                                                                                  #           2.  CALL               CALL SUBROUTINE SETTING QPRET.
000635:                                                                                                  #           3.  CGOTO              COMPUTED GO TO.
000636:                                                                                                  #           4.  CCALL              COMPUTED CALL.
000637:                                                                                                  #           7.  BPL                BRANCH IF MPAC POSITIVE OR ZERO.
000638:                                                                                                  #           8.  BZE                BRANCH IF MPAC ZERO.
000639:                                                                                                  #           9.  BMN                BRANCH IF MPAC NEGATIVE NON-ZERO.
000640:
000641:    6647           24164        CCALL              INCR     LOC                                   #  MAINTAIN LOC FOR QPRET COMPUTATION.
000642:    6650           50164                           INDEX    LOC
000643:    6651           30000                           CAF      0                                     #  GET BASE ADDRESS OF CADR LIST.
000644:    6652           50116                           INDEX    ADDRWD
000645:    6653           60000                           AD       0                                     #  ADD INCREMENT.
000646:    6654           54004                           TS       FBANK                                 #  SELECT DESIRED CADR.
000647:    6655           75003                           MASK     LOW10
000648:    6656           50000                           INDEX    A
000649:    6657           32000                           CAF      10000
000650:    6660           54117                           TS       POLISH
000651:
000652:    6661           30165        CALL               CA       BANKSET                               #  FOR ANY OF THE CALL OPTIONS, MAKE UP THE
000653:    6662           74341                           MASK     BANKMASK                              #  ADDRESS OF THE NEXT OP-CODE PAIR/STORE
000654:    6663           64341                           AD       BANKMASK                              #  CODE AND LEAVE IT IN QPRET.  NOTE THAT
000655:    6664           60164                           AD       LOC                                   #  BANKMASK = -(2000 - 1).
000656:    6665           50120                           INDEX    FIXLOC
000657:    6666           54052                           TS       QPRET
000658:
000659:    6667           30117        GOTO               CA       POLISH                                #  BASIC BRANCHING SEQUENCE.
000660:    6670           77763                 +1        MASK     HIGH4
000661:    6671           00006                           EXTEND
000662:    6672           16703                           BZF      GOTOERS                               #  SEE IF ADDRESS POINTS TO FIXED OR ERAS.
000663:    6673           30165                 +4        CA       BANKSET                               #  SET EBANK PART OF BBANK. NEXT, SET UP
000664:    6674           54006                           TS       BBANK                                 #  FBANK. THE COMBINATION IS PICKED UP &
000665:    6675           30117                           CA       POLISH                                #  PUT INTO BANKSET AT INTPRET +2.
000666:    6676           54004                           TS       FBANK
000667:    6677           75003                           MASK     LOW10
000668:    6700           64732                           AD       2K
000669:    6701           54164                           TS       LOC
000670:    6702           16063                           TCF      INTPRET    +3
000671:
000672:    6703  E3,1400                                  EBANK=   1400                                  #  SO YUL DOESN'T CUSS THE "CA 1400" BELOW.
000673:
000674:    6703           30117        GOTOERS            CA       POLISH                                #  THE GIVEN ADDRESS IS IN ERASABLE - SEE
000675:    6704           66272                           AD       -ENDVAC                               #  IF RELATIVE TO THE WORK AREA.
000676:    6705           10000                           CCS      A
000677:    6706           30117                           CA       POLISH                                #  GENERAL ERASABLE.
000678:    6707           16716                           TCF      GOTOGE
000679:


000681:    6710           30120                           CA       FIXLOC                                #  WORK AREA.
000682:    6711           60117                           AD       POLISH
000683:    6712           50000                           INDEX    A                                     #  USE THE GIVEN ADDRESS AS THE ADDRESS OF
000684:    6713           30000                           CA       0                                     #  THE BRANCH ADDRESS.
000685:    6714           54117                           TS       POLISH
000686:    6715           16670                           TCF      GOTO       +1                         #  ALLOWS ARBITRARY INDIRECTNESS LEVELS.
000687:
000688:    6716           54003        GOTOGE             TS       EBANK
000689:    6717           74350                           MASK     LOW8
000690:    6720           50000                           INDEX    A                                     #  USE THE GIVEN ADDRESS AS THE ADDRESS OF
000691:    6721           31400                           CA       1400                                  #  THE BRANCH ADDRESS.
000692:    6722           54117                           TS       POLISH
000693:    6723           16670                           TCF      GOTO       +1
000694:
000695:    6724           50164        CGOTO              INDEX    LOC                                   #  COMPUTED GO TO. PICK UP ADDRESS OF CADR
000696:    6725           30001                           CA       1                                     #  LIST.
000697:    6726           50116                           INDEX    ADDRWD                                #  ADD MODIFIER.
000698:    6727           60000                           AD       0
000699:    6730           54004                           TS       FBANK                                 #  SELECT GOTO ADDRESS
000700:    6731           75003                           MASK     LOW10
000701:    6732           50000                           INDEX    A
000702:    6733           32000                           CA       10000
000703:    6734           54117                           TS       POLISH
000704:    6735           16670                           TCF      GOTO       +1                         #  WITH ADDRESS IN A.
000705:
000706:    6736           30165        SWBRANCH           CA       BANKSET                               #  SWITCH INSTRUCTIONS WHICH ELECT TO
000707:    6737           54004                           TS       FBANK                                 #  BRANCH COME HERE TO DO SO.
000708:    6740           50164                           INDEX    LOC
000709:    6741           30001                           CA       1
000710:    6742           54117                           TS       POLISH
000711:    6743           16670                           TCF      GOTO       +1
000712:


000714:                                                                                                  #           TRIPLE PRECISION BRANCHING ROUTINE. IF CALLING TC IS AT L, RETURN IS AS FOLLOWS:
000715:
000716:                                                                                                  #           L+1  IF MPAC IS GREATER THAN ZERO.
000717:                                                                                                  #           L+2  IF MPAC IS EQUAL TO +0 OR -0.
000718:                                                                                                  #           L+3  IF MPAC IS LESS THAN ZERO.
000719:
000720:    6744           10154        BRANCH             CCS      MPAC
000721:    6745           00002                           TC       Q
000722:    6746           16750                           TCF      +2                                    #  ON ZERO.
000723:    6747           16762                           TCF      NEG
000724:
000725:    6750           10155                           CCS      MPAC       +1
000726:    6751           00002                           TC       Q
000727:    6752           16754                           TCF      +2
000728:    6753           16762                           TCF      NEG
000729:
000730:    6754           10156                           CCS      MPAC       +2
000731:    6755           00002                           TC       Q
000732:    6756           16760                           TCF      +2
000733:    6757           16762                           TCF      NEG
000734:
000735:    6760           50002        Q+1                INDEX    Q
000736:    6761           00001                           TC       1
000737:
000738:    6762           50002        NEG                INDEX    Q                                     #  IF FIRST NON-ZERO REGISTER WAS NEGATIVE.
000739:    6763           00002                           TC       2
000740:
000741:
000742:    6764     6762               Q+2                =        NEG
000743:
000744:                                                                                                  #           ITRACE (3) REFERS TO "EXIT".
000745:    6764           30165        EXIT               CA       BANKSET                               #  RESTORE USER'S BANK SETTING, AND LEAVE
000746:    6765           54006                           TS       BBANK                                 #  INTERPRETIVE MODE.
000747:    6766           50164                           INDEX    LOC
000748:    6767           00001                           TC       1
000749:


000751:                                                                                                  #  SECTION 3 - ADD/SUBTRACT PACKAGE.
000752:
000753:                                                                                                  #           THE FOLLOWING OPERATIONS ARE PROVIDED FOR ADDING TO AND SUBTRACTING FROM THE MULTI-PURPOSE ACCUMULATOR
000754:                                                                                                  #  MPAC:
000755:
000756:                                                                                                  #           1.  DAD                DOUBLE PRECISION ADD.
000757:                                                                                                  #           2.  DSU                DOUBLE PRECISION SUBTRACT.
000758:                                                                                                  #           3.  BDSU               DOUBLE PRECISION SUBTRACT FROM.
000759:
000760:                                                                                                  #           4.  TAD                TRIPLE PRECISION ADD.
000761:
000762:                                                                                                  #           5.  VAD                VECTOR ADD.
000763:                                                                                                  #           6.  VSU                VECTOR SUBTRACT.
000764:                                                                                                  #           7.  BVSU               VECTOR SUBTRACT FROM.
000765:
000766:                                                                                                  #  THE INTERPRETIVE OVERFLOW INDICATOR OVFIND IS SET NON-ZERO IF OVERFLOW OCCURS IN ANY OF THE ABOVE.
000767:
000768:    6770           34726        VSU                CAF      BIT15                                 #  CHANGES 0 TO DCS.
000769:    6771           16773                           TCF      +2
000770:
000771:    6772           34346        VAD                CAF      PRIO30                                #  CHANGES 0 TO DCA.
000772:    6773           26116                           ADS      ADDRWD
000773:    6774           00006                           EXTEND
000774:    6775           50116                           INDEX    ADDRWD
000775:    6776           00003                           READ     HISCALAR                              #  DCA  2   OR   DCS  2
000776:    6777           20160                           DAS      MPAC       +3
000777:    7000           00006                           EXTEND                                         #  CHECK OVERFLOW.
000778:    7001           17003                           BZF      +2
000779:    7002           07035                           TC       OVERFLWY
000780:
000781:    7003           00006                           EXTEND
000782:    7004           50116                           INDEX    ADDRWD
000783:    7005           00005                           READ     CHAN5                                 #  DCA  4  OR  DCS  4
000784:    7006           20162                           DAS      MPAC       +5
000785:    7007           00006                           EXTEND
000786:    7010           17012                           BZF      +2
000787:    7011           07032                           TC       OVERFLWZ
000788:
000789:    7012           00006                           EXTEND
000790:    7013           50116                           INDEX    ADDRWD
000791:    7014           00001                           READ     LCHAN                                 #  DCA  0  OR  DCS  0
000792:    7015           17021                           TCF      ENDVXV
000793:
000794:    7016           00006        DAD                EXTEND
000795:    7017           50116                           INDEX    ADDRWD
000796:    7020           30001                           DCA      0
000797:    7021           20155        ENDVXV             DAS      MPAC                                  #  VXV FINISHES HERE.
000798:    7022           00006                           EXTEND
000799:    7023           16102                           BZF      DANZIG
000800:


000802:    7024           07040        SETOVF             TC       OVERFLOW
000803:    7025           16102                           TCF      DANZIG
000804:


000806:    7026           00006        DSU                EXTEND
000807:    7027           50116                           INDEX    ADDRWD
000808:    7030           40001                           DCS      0
000809:    7031           17021                           TCF      ENDVXV
000810:
000811:    7032           54001        OVERFLWZ           TS       L                                     #  ENTRY FOR THIRD COMPONENT.
000812:    7033           34747                           CAF      FIVE
000813:    7034           17037                           TCF      +3
000814:
000815:    7035           54001        OVERFLWY           TS       L                                     #  ENTRY FOR SECOND COMPONENT.
000816:    7036           36266                           CAF      THREE
000817:    7037           56001                           XCH      L
000818:
000819:    7040           50000        OVERFLOW           INDEX    A                                     #  ENTRY FOR 1ST COMP OR DP (L=0).
000820:    7041           44725                           CS       LIMITS                                #  PICK UP POSMAX OR NEGMAX.
000821:    7042           54130                           TS       BUF
000822:    7043           00006                           EXTEND
000823:    7044           24000                           AUG      A                                     #  FORCE OVERFLOW.
000824:    7045           50001                           INDEX    L
000825:    7046           26155                           ADS      MPAC       +1
000826:    7047           54007                           TS       7
000827:    7050           34746                           CAF      ZERO
000828:    7051           60130                           AD       BUF
000829:    7052           50001                           INDEX    L
000830:    7053           26154                           ADS      MPAC
000831:    7054           54007                           TS       7
000832:    7055           00002                           TC       Q                                     #  NO OVERFLOW EXIT.
000833:    7056           17173                           TCF      SETOVF2                               #  SET OVFIND AND EXIT.
000834:
000835:    7057           00006        BVSU               EXTEND
000836:    7060           50116                           INDEX    ADDRWD
000837:    7061           30003                           DCA      2
000838:    7062           52160                           DXCH     MPAC       +3
000839:    7063           00006                           EXTEND
000840:    7064           40001                           DCOM
000841:    7065           20160                           DAS      MPAC       +3
000842:    7066           00006                           EXTEND
000843:    7067           17071                           BZF      +2
000844:    7070           07035                           TC       OVERFLWY
000845:
000846:    7071           00006                           EXTEND
000847:    7072           50116                           INDEX    ADDRWD
000848:    7073           30005                           DCA      4
000849:    7074           52162                           DXCH     MPAC       +5
000850:    7075           00006                           EXTEND
000851:    7076           40001                           DCOM
000852:    7077           20162                           DAS      MPAC       +5
000853:    7100           00006                           EXTEND
000854:    7101           17103                           BZF      +2
000855:    7102           07032                           TC       OVERFLWZ
000856:


000858:    7103           00006        BDSU               EXTEND
000859:    7104           50116                           INDEX    ADDRWD
000860:    7105           30001                           DCA      0
000861:    7106           52155                           DXCH     MPAC
000862:    7107           00006                           EXTEND
000863:    7110           40001                           DCOM
000864:    7111           17021                           TCF      ENDVXV
000865:


000867:                                                                                                  #           TRIPLE PRECISION ADD ROUTINE.
000868:
000869:    7112           00006        TAD                EXTEND
000870:    7113           50116                           INDEX    ADDRWD
000871:    7114           30002                           DCA      1                                     #  ADD MINOR PARTS FIRST.
000872:    7115           20156                           DAS      MPAC       +1
000873:    7116           50116                           INDEX    ADDRWD
000874:    7117           60000                           AD       0
000875:    7120           60154                           AD       MPAC
000876:    7121           54154                           TS       MPAC
000877:    7122           16102                           TCF      DANZIG
000878:
000879:    7123           17024                           TCF      SETOVF                                #  SET OVFIND IF SUCH OCCURS.
000880:


000882:                                                                                                  #  ARITHMETIC SUBROUTINES REQUIRED IN FIXED-FIXED.
000883:
000884:                                                                                                  #           1.  DMPSUB     DOUBLE PRECISION MULTIPLY. MULTIPLY THE CONTENTS OF MPAC,+1 BY THE DP WORD WHOSE ADDRESS
000885:                                                                                                  #                          IS IN ADDRWD AND LEAVE A TRIPLE-PRECISION RESULT IN MPAC.
000886:                                                                                                  #           2.  ROUNDSUB   ROUND THE TRIPLE PRECISON CONTENTS OF MPAC TO DOUBLE PRECISION.
000887:                                                                                                  #           3.  DOTSUB     TAKE THE DOT PRODUCT OF THE VECTOR IN MPAC AND THE VECTOR WHOSE ADDRESS IS IN ADDRWD
000888:                                                                                                  #                          AND LEAVE THE TRIPLE PRECISION RESULT IN MPAC.
000889:                                                                                                  #           4.  POLY       USING THE CONTENTS OF MPAC AS A DP ARGUMENT, EVALUATE THE POLYNOMIAL WHOSE DEGREE AND
000890:                                                                                                  #                          COEFFICIENTS IMMEDIATELY FOLLOW THE TC POLY INSTRUCTION (SEE ROUTINE FOR DETAILS.)
000891:
000892:
000893:    7124           50002        DMP                INDEX    Q                                     #  BASIC SUBROUTINE FOR USE BY PINBALL, ETC
000894:    7125           30000                           CAF      0                                     #  ADRES OF ARGUMENT FOLLOWS  TC DMP  .
000895:    7126           24002                           INCR     Q
000896:    7127           54116                 -1        TS       ADDRWD                                #  (PROLOGUE FOR SETTING ADDRWD.)
000897:
000898:    7130           50116        DMPSUB             INDEX    ADDRWD                                #  GET MINOR PART OF OPERAND AT C(ADDRWD).
000899:    7131           30001                           CA       1
000900:    7132           54156                           TS       MPAC       +2                         #  THIS WORKS FOR SQUARING MPAC AS WELL.
000901:    7133           34746                           CAF      ZERO                                  #  SET MPAC +1 TO ZERO SO WE CAN ACCUMULATE
000902:    7134           56155                           XCH      MPAC       +1                         #  THE PARTIAL PRODUCTS WITH DAS
000903:    7135           54135                           TS       MPTEMP                                #  INSTRUCTIONS.
000904:    7136           00006                           EXTEND
000905:    7137           70156                           MP       MPAC       +2                         #  MINOR OF MPAC X MINOR OF C(ADDRWD).
000906:
000907:    7140           56156                           XCH      MPAC       +2                         #  DISCARD MINOR PART OF ABOVE RESULT AND
000908:    7141           00006                           EXTEND                                         #  FORM MAJOR OF MPAC X MINOR OF C(ADDRWD).
000909:    7142           70154                           MP       MPAC
000910:    7143           20156                           DAS      MPAC       +1                         #  GUARANTEED NO OVERFLOW.
000911:
000912:    7144           50116                           INDEX    ADDRWD                                #  GET MAJOR PART OF ARGUMENT AT C(ADDRWD).
000913:    7145           30000                           CA       0
000914:    7146           56135                           XCH      MPTEMP                                #  SAVE AND BRING OUT MINOR OF MPAC.
000915:    7147           00006        DMPSUB2            EXTEND
000916:    7150           70135                           MP       MPTEMP                                #  MAJOR OF C(ADDRWD) X MINOR OF MPAC.
000917:    7151           20156                           DAS      MPAC       +1                         #  ACCUMULATE, SETTING A TO NET OVERFLOW.
000918:
000919:    7152           56154                           XCH      MPAC                                  #  SETTING MPAC TO 0 OR +-1.
000920:    7153           00006                           EXTEND
000921:    7154           70135                           MP       MPTEMP                                #  MAJOR OF MPAC X MAJOR OF C(ADDRWD).
000922:    7155           20155                           DAS      MPAC                                  #  GUARANTEED NO OVERFLOW.
000923:    7156           00002                           TC       Q                                     #  49 MCT = .573 MS. INCLUDING RETURN.
000924:


000926:                                                                                                  #           ROUND MPAC TO DOUBLE PRECISION, SETTING OVFIND ON THE RARE EVENT OF OVERFLOW.
000927:
000928:    7157           34746        ROUNDSUB           CAF      ZERO                                  #  SET MPAC +2 = 0 FOR SCALARS AND CHANGE
000929:    7160           54163                 +1        TS       MODE                                  #  MODE TO DP.
000930:
000931:    7161           56156        VROUND             XCH      MPAC       +2                         #  BUT WE NEEDNT TAKE THE TIME FOR VECTORS.
000932:    7162           60000                           DOUBLE
000933:    7163           54001                           TS       L
000934:    7164           00002                           TC       Q
000935:
000936:    7165           60155                           AD       MPAC       +1                         #  ADD ROUNDING BIT IF MPAC +2 WAS GREATER
000937:    7166           54155                           TS       MPAC       +1                         #  THAN .5 IN MAGNITUDE.
000938:    7167           00002                           TC       Q
000939:
000940:    7170           60154                           AD       MPAC                                  #  PROPAGATE INTERFLOW.
000941:    7171           54154                           TS       MPAC
000942:    7172           00002                           TC       Q
000943:
000944:    7173           54121        SETOVF2            TS       OVFIND                                #  (RARE).
000945:    7174           00002                           TC       Q
000946:


000948:                                                                                                  #           THE DOT PRODUCT SUBROUTINE USUALLY FORMS THE DOT PRODUCT OF THE VECTOR IN MPAC WITH A STANDARD SIX
000949:                                                                                                  #  REGISTER VECTOR WHOSE ADDRESS IS IN ADDRWD. IN THIS CASE C(DOTINC) ARE SET TO 2. VXM, HOWEVER, SETS C(DOTINC) TO
000950:                                                                                                  #  6 SO THAT DOTSUB DOTS MPAC WITH A COLUMN VECTOR OF THE MATRIX IN QUESTION IN THIS CASE.
000951:
000952:    7175           34743        PREDOT             CAF      TWO                                   #  PROLOGUE TO SET DOTINC TO 2.
000953:    7176           54136                           TS       DOTINC
000954:
000955:    7177           00006        DOTSUB             EXTEND
000956:    7200           22137                           QXCH     DOTRET                                #  SAVE RETURN.
000957:    7201           07130                           TC       DMPSUB                                #  DOT X COMPONENTS.
000958:    7202           52160                           DXCH     MPAC       +3                         #  POSITION Y COMPONENT OF MPAC FOR
000959:    7203           52155                           DXCH     MPAC                                  #  MULTIPLICATION WHILE SAVING RESULT IN
000960:    7204           52131                           DXCH     BUF                                   #  THREE WORD BUFFER, BUF.
000961:    7205           30156                           CA       MPAC       +2
000962:    7206           54132                           TS       BUF        +2
000963:
000964:    7207           30136                           CA       DOTINC                                #  ADVANCE ADDRWD TO Y COMPONENT OF
000965:    7210           26116                           ADS      ADDRWD                                #  OTHER ARGUMENT.
000966:    7211           07130                           TC       DMPSUB
000967:    7212           52156                           DXCH     MPAC       +1                         #  ACCUMULATE PARTIAL PRODUCTS.
000968:    7213           20132                           DAS      BUF        +1
000969:    7214           60154                           AD       MPAC
000970:    7215           60130                           AD       BUF
000971:    7216           54130                           TS       BUF
000972:    7217           17221                           TCF      +2
000973:    7220           54121                           TS       OVFIND                                #  IF OVERFLOW OCCURS.
000974:
000975:    7221           52162                           DXCH     MPAC       +5                         #  MULTIPLY Z COMPONENTS.
000976:    7222           52155                           DXCH     MPAC
000977:    7223           30136                           CA       DOTINC
000978:    7224           26116                           ADS      ADDRWD
000979:    7225           07130                           TC       DMPSUB
000980:    7226           52132        ENDDOT             DXCH     BUF        +1                         #  LEAVE FINAL ACCUMULATION IN MPAC.
000981:    7227           20156                           DAS      MPAC       +1
000982:    7230           60154                           AD       MPAC
000983:    7231           60130                           AD       BUF
000984:    7232           54154                           TS       MPAC
000985:    7233           00137                           TC       DOTRET
000986:
000987:    7234           07040                           TC       OVERFLOW                              #  ON OVERFLOW HERE.
000988:    7235           00137                           TC       DOTRET
000989:


000991:                                                                                                  #  DOUBLE PRECISION POLYNOMIAL EVALUATOR
000992:
000993:                                                                                                  #                                     N        N-1
000994:                                                                                                  #           THIS ROUTINE EVALUATES A X  + A   X    + ... + A X + A  LEAVING THE DP RESULT IN MPAC ON EXIT.
000995:                                                                                                  #                                   N      N-1              1     0
000996:
000997:                                                                                                  #  THE ROUTINE HAS TWO ENTRIES
000998:
000999:                                                                                                  #           1. ENTRY THRU POWRSERS. THE COEFFICIENTS MAY BE EITHER IN FIXED OR ERASABLE, THE CALL IS BY
001000:                                                                                                  #              TC POWRSERS, AND THE RETURN IS TO LOC(TC POWRSERS)+1. THE ENTERING DATA MUST BE AS FOLLOWS
001001:
001002:                                                                                                  #                                          A        SP     LOC-3           ADDRESS FOR REFERENCING COEF TABLE
001003:                                                                                                  #                                          L        SP     N-1             N IS THE DEGREE OF THE POWER SERIES
001004:                                                                                                  #                                          MPAC     DP     X               ARGUMENT
001005:
001006:                                                                                                  #                                          LOC-2N   DP     A(0)
001007:                                                                                                  #                                                   ...
001008:                                                                                                  #                                          LOC      DP     A(N)
001009:
001010:                                                                                                  #           2. ENTRY THRU POLY. THE CALL TO POLY AND THE ENTERING DATA MUST BE AS FOLLOWS
001011:
001012:                                                                                                  #                                          MPAC     DP     X               ARGUMENT
001013:
001014:                                                                                                  #                                          LOC      TC     POLY
001015:                                                                                                  #                                          LOC+1    SP     N-1
001016:                                                                                                  #                                          LOC+2    DP     A(0)
001017:                                                                                                  #                                                   ...
001018:                                                                                                  #                                          LOC+2N+2 DP     A(N)            RETURN IS TO LOC+2N+4
001019:
001020:    7236           00006        POWRSERS           EXTEND
001021:    7237           22141                           QXCH     POLYRET                               #  RETURN ADDRESS
001022:    7240           54117                           TS       POLISH                                #  POWER SERIES ADDRESS
001023:    7241           22140                           LXCH     POLYCNT                               #  N-1 TO COUNTER
001024:    7242           17253                           TCF      POLYCOM                               #  SKIP SET UP BY POLY
001025:
001026:    7243           50002        POLY               INDEX    Q
001027:    7244           30000                           CAF      0
001028:    7245           54140                           TS       POLYCNT                               #  N-1 TO COUNTER
001029:    7246           60000                           DOUBLE
001030:    7247           60002                           AD       Q
001031:    7250           54117                           TS       POLISH                                #  L(A(N))-3 TO POLISH
001032:    7251           64747                           AD       FIVE
001033:    7252           54141                           TS       POLYRET                               #  STORE RETURN ADDRESS
001034:
001035:    7253           36314        POLYCOM            CAF      LVBUF                                 #  INCOMING X WILL BE MOVED TO VBUF, SO
001036:    7254           54116                           TS       ADDRWD                                #  SET ADDRWD SO DMPSUB WILL MPY BY VBUF.
001037:
001038:    7255           00006                           EXTEND
001039:    7256           50117                           INDEX    POLISH
001040:    7257           30004                           DCA      3
001041:


001043:    7260           52155                           DXCH     MPAC                                  #  LOAD A(N) INTO MPAC,
001044:    7261           52123                           DXCH     VBUF                                  #  SAVING X IN VBUF
001045:    7262           17266                           TCF      POLY2
001046:
001047:    7263           54140        POLYLOOP           TS       POLYCNT                               #  SAVE DECREMENTED LOOP COUNTER
001048:    7264           44743                           CS       TWO
001049:    7265           26117                           ADS      POLISH                                #  REGRESS COEFFICIENT POINTER
001050:
001051:    7266           07130        POLY2              TC       DMPSUB                                #  MULTIPLY BY X
001052:    7267           00006                           EXTEND
001053:    7270           50117                           INDEX    POLISH
001054:    7271           30002                           DCA      1                                     #  ADD IN NEXT COEFFICIENT
001055:    7272           20155                           DAS      MPAC                                  #  USERS RESPONSIBILITY TO ASSURE NO OVFLOW
001056:
001057:    7273           10140                           CCS      POLYCNT
001058:    7274           17263                           TCF      POLYLOOP
001059:    7275           00141                           TC       POLYRET                               #  RETURN CALLER
001060:


001062:                                                                                                  #           MISCELLANEOUS MULTI-PRECISION ROUTINES REQUIRED IN FIXED-FIXED BUT NOT USED BY THE INTERPRETER.
001063:
001064:    7276           34746        DPAGREE            CAF      ZERO                                  #  DOUBLE PRECISION ENTRY -
001065:    7277           54156                           TS       MPAC       +2                         #  ZERO LOW-ORDER WORD
001066:
001067:    7300           22002        TPAGREE            LXCH     Q                                     #  FORCE SIGN AGREEMENT AMONG THE TRIPLE
001068:    7301           06744                           TC       BRANCH                                #  PRECISION CONTENTS OF MPAC.  RETURNING
001069:    7302           17306                           TCF      ARG+                                  #  WITH SIGNUM OF THE INPUT IN A.
001070:    7303           17326                           TCF      ARGZERO
001071:
001072:    7304           44724                           CS       POSMAX                                #  IF NEGATIVE.
001073:    7305           17307                           TCF      +2
001074:
001075:    7306           34724        ARG+               CAF      POSMAX
001076:    7307           54002                           TS       Q
001077:    7310           00006                           EXTEND
001078:    7311           24000                           AUG      A                                     #  FORMS +-1.0.
001079:    7312           60156                           AD       MPAC       +2
001080:    7313           54156                           TS       MPAC       +2
001081:    7314           34746                           CAF      ZERO
001082:    7315           60002                           AD       Q
001083:    7316           60155                           AD       MPAC       +1
001084:    7317           54155                           TS       MPAC       +1
001085:    7320           34746                           CAF      ZERO
001086:    7321           60002                           AD       Q                                     #  Q STILL HAS POSMAX OR NEGMAX IN IT.
001087:    7322           60154                           AD       MPAC
001088:    7323           54154        ARGZERO2           TS       MPAC                                  #  ALWAYS SKIPPING UNLESS ARGZERO.
001089:    7324           54155                           TS       MPAC       +1
001090:    7325           00001                           TC       L                                     #  RETURN VIA L.
001091:
001092:    7326           54156        ARGZERO            TS       MPAC       +2                         #  SET ALL THREE MPAC REGISTERS TO ZERO.
001093:    7327           17323                           TCF      ARGZERO2
001094:
001095:                                                                                                  #           SHORTMP MULTIPLIES THE TP CONTENTS OF MPAC BY THE SINGLE PRECISION NUMBER ARRIVING IN A.
001096:
001097:    7330           54135        SHORTMP            TS       MPTEMP
001098:    7331           00006                           EXTEND
001099:    7332           70156                           MP       MPAC       +2
001100:    7333           54156                           TS       MPAC       +2
001101:    7334           34746        SHORTMP2           CAF      ZERO                                  #  SO SUBSEQUENT DAS WILL WORK.
001102:    7335           56155                           XCH      MPAC       +1
001103:    7336           17147                           TCF      DMPSUB2
001104:


001120:


001122:                                                                                                  #         DMPNSUB MULTIPLIES THE DP FRACTION ARRIVING IN MPAC BY THE SP
001123:                                                                                                  #  INTEGER ARRIVING IN A.  THE DP PRODUCT DEPARTS BOTH IN MPAC AND IN
001124:                                                                                                  #  A AND L.  NOTE THAT DMPNSUB NORMALLY INCREASES THE MAGNITUDE OF THE
001125:                                                                                                  #  CONTENTS OF MPAC.  THE CUSTOMER MUST INSURE THAT B(A) X B(MPAC,MPAC+1)
001126:                                                                                                  #  AND B(A) X B(MPAC) ARE LESS THAN 1 IN MAGNITUDE, WHERE B, AS IS OBVIOUS,
001127:                                                                                                  #  INDICATES THE ARRIVING CONTENTS.
001128:
001129:    7337           54135        DMPNSUB            TS       DMPNTEMP
001130:    7340           00006                           EXTEND
001131:    7341           70155                           MP       MPAC       +1
001132:    7342           52155                           DXCH     MPAC                                  #  LOW PRODUCT TO MPAC, HIGH FACTOR TO A
001133:    7343           00006                           EXTEND
001134:    7344           70135                           MP       DMPNTEMP
001135:    7345           30001                           CA       L
001136:    7346           26154                           ADS      MPAC                                  #  COMPLETING THE PRODUCT IN MPAC
001137:    7347           00006                           EXTEND
001138:    7350           30155                           DCA      MPAC                                  #  BRINGING THE PRODUCT INTO A AND L
001139:    7351           00002                           TC       Q
001140:


001142:                                                                                                  #  MISCELLANEOUS VECTOR OPERATIONS. INCLUDED HERE ARE THE FOLLOWING:
001143:
001144:                                                                                                  #           1.  DOT                DP VECTOR DOT PRODUCT.
001145:                                                                                                  #           2.  VXV                DP VECTOR CROSS PRODUCT.
001146:                                                                                                  #           3.  VXSC               DP VECTOR TIMES SCALAR.
001147:                                                                                                  #           4.  V/SC               DP VECTOR DIVIDED BY SCALAR.
001148:                                                                                                  #           5.  VPROJ              DP VECTOR PROJECTION. ( (MPAC.X)MPAC ).
001149:                                                                                                  #           6.  VXM                DP VECTOR POST-MULTIPLIED BY MATRIX.
001150:                                                                                                  #           7.  MXV                DP VECTOR PRE-MULTIPLIED BY MATRIX.
001151:
001152:    7352           07175        DOT                TC       PREDOT                                #  DO THE DOT PRODUCT AND EXIT, CHANGING
001153:    7353           34746        DMODE              CAF      ZERO                                  #  THE MODE TO DP SCALAR.
001154:    7354           16101                           TCF      NEWMODE
001155:
001156:
001157:    7355           34743        MXV                CAF      TWO                                   #  SET UP MATINC AND DOTINC FOR ROW
001158:    7356           54140                           TS       MATINC                                #  VECTORS.
001159:    7357           17363                           TCF      VXM/MXV                               #  GO TO COMMON PORTION.
001160:
001161:    7360           44354        VXM                CS       TEN                                   #  SET MATINC AND DOTINC TO REFER TO MATRIX
001162:    7361           54140                           TS       MATINC                                #  AS THREE COLUMN VECTORS.
001163:    7362           36263                           CAF      SIX
001164:


001166:                                                                                                  #           COMMON PORTION OF MXV AND VXM.
001167:
001168:    7363           54136        VXM/MXV            TS       DOTINC
001169:                                                                                                  #           ITRACE (2) REFERS TO "VXM/MXV".
001170:    7364           07553                           TC       MPACVBUF                              #  SAVE VECTOR IN MPAC FOR FURTHER USE.
001171:
001172:    7365           07177                           TC       DOTSUB                                #  GO DOT TO GET X COMPONENT OF ANSWER.
001173:    7366           00006                           EXTEND
001174:    7367           30123                           DCA      VBUF                                  #  MOVE MPAC VECTOR BACK INTO MPAC, SAVING
001175:    7370           52155                           DXCH     MPAC                                  #  NEW X COMPONENT IN BUF2.
001176:    7371           52134                           DXCH     BUF2
001177:    7372           00006                           EXTEND
001178:    7373           30125                           DCA      VBUF       +2
001179:    7374           52160                           DXCH     MPAC       +3
001180:    7375           00006                           EXTEND
001181:    7376           30127                           DCA      VBUF       +4
001182:    7377           52162                           DXCH     MPAC       +5
001183:    7400           30140                           CA       MATINC                                #  INITIALIZE ADDRWD FOR NEXT DOT PRODUCT.
001184:    7401           26116                           ADS      ADDRWD                                #  FORMS BASE ADDRESS OF NEXT COLUMN(ROW).
001185:
001186:    7402           07177                           TC       DOTSUB
001187:    7403           52123                           DXCH     VBUF                                  #  MOVE GIVEN VECTOR BACK TO MPAC, SAVING Y
001188:    7404           52155                           DXCH     MPAC                                  #  COMPONENT OF ANSWER IN VBUF +2.
001189:    7405           52125                           DXCH     VBUF       +2
001190:    7406           52160                           DXCH     MPAC       +3
001191:    7407           52127                           DXCH     VBUF       +4
001192:    7410           52162                           DXCH     MPAC       +5
001193:    7411           30140                           CA       MATINC                                #  FORM ADDRESS OF LAST COLUMN OR ROW.
001194:    7412           26116                           ADS      ADDRWD
001195:
001196:    7413           07177                           TC       DOTSUB
001197:    7414           52134                           DXCH     BUF2                                  #  ANSWER NOW COMPLETE. PUT COMPONENTS INTO
001198:    7415           52155                           DXCH     MPAC                                  #  PROPER MPAC REGISTERS.
001199:    7416           52162                           DXCH     MPAC       +5
001200:    7417           52125                           DXCH     VBUF       +2
001201:    7420           52160                           DXCH     MPAC       +3
001202:    7421           16102                           TCF      DANZIG                                #  EXIT.
001203:


001205:                                                                                                  #           VXSC - VECTOR TIMES SCALAR.
001206:
001207:    7422           10163        VXSC               CCS      MODE                                  #  TEST PRESENT MODE.
001208:    7423           17451                           TCF      DVXSC                                 #  SEPARATE ROUTINE WHEN SCALAR IS IN MPAC.
001209:    7424           17451                           TCF      DVXSC
001210:
001211:    7425           07130        VVXSC              TC       DMPSUB                                #  COMPUTE X COMPONENT
001212:    7426           07161                           TC       VROUND                                #  AND ROUND IT.
001213:    7427           52160                           DXCH     MPAC       +3                         #  PUT Y COMPONENT INTO MPAC SAVING MPAC IN
001214:    7430           52155                           DXCH     MPAC                                  #  MPAC +3.
001215:    7431           52160                           DXCH     MPAC       +3
001216:
001217:    7432           07130                           TC       DMPSUB                                #  DO SAME FOR Y AND Z COMPONENTS.
001218:    7433           07161                           TC       VROUND
001219:    7434           52162                           DXCH     MPAC       +5
001220:    7435           52155                           DXCH     MPAC
001221:    7436           52162                           DXCH     MPAC       +5
001222:
001223:    7437           07130                           TC       DMPSUB
001224:    7440           07161                           TC       VROUND
001225:    7441           52155        VROTATEX           DXCH     MPAC                                  #  EXIT USED TO RESTORE MPAC AFTER THIS
001226:    7442           52162                           DXCH     MPAC       +5                         #  TYPE OF ROTATION. CALLED BY VECTOR SHIFT
001227:    7443           52160                           DXCH     MPAC       +3                         #  RIGHT, V/SC, ETC.
001228:    7444           52155                           DXCH     MPAC
001229:    7445           16102                           TCF      DANZIG
001230:


001232:                                                                                                  #           DP VECTOR PROJECTION ROUTINE.
001233:
001234:    7446           07175        VPROJ              TC       PREDOT                                #  (MPAC.X)MPAC IS COMPUTED AND LEFT IN
001235:    7447           44742                           CS       FOUR                                  #  MPAC. DO DOT AND FALL INTO DVXSC.
001236:    7450           26116                           ADS      ADDRWD
001237:
001238:                                                                                                  #           VXSC WHEN SCALAR ARRIVES IN MPAC AND VECTOR IS AT X.
001239:
001240:    7451           00006        DVXSC              EXTEND                                         #  SAVE SCALAR IN MPAC +3 AND GET X
001241:    7452           30155                           DCA      MPAC                                  #  COMPONENT OF ANSWER.
001242:    7453           52160                           DXCH     MPAC       +3
001243:    7454           07130                           TC       DMPSUB
001244:    7455           07161                           TC       VROUND
001245:
001246:    7456           34743                           CAF      TWO                                   #  ADVANCE ADDRWD TO Y COMPONENT OF X.
001247:    7457           26116                           ADS      ADDRWD
001248:    7460           00006                           EXTEND
001249:    7461           30160                           DCA      MPAC       +3                         #  PUT SCALAR BACK INTO MPAC AND SAVE
001250:    7462           52155                           DXCH     MPAC                                  #  X RESULT IN MPAC +5.
001251:    7463           52162                           DXCH     MPAC       +5
001252:    7464           07130                           TC       DMPSUB
001253:    7465           07161                           TC       VROUND
001254:
001255:    7466           34743                           CAF      TWO
001256:    7467           26116                           ADS      ADDRWD                                #  TO Z COMPONENT.
001257:    7470           52160                           DXCH     MPAC       +3                         #  BRING SCALAR BACK, PUTTING Y RESULT IN
001258:    7471           52155                           DXCH     MPAC                                  #  THE PROPER PLACE.
001259:    7472           52160                           DXCH     MPAC       +3
001260:    7473           07130                           TC       DMPSUB
001261:    7474           07161                           TC       VROUND
001262:
001263:    7475           52155                           DXCH     MPAC                                  #  PUT Z COMPONENT IN PROPER PLACE, ALSO
001264:    7476           52162                           DXCH     MPAC       +5                         #  POSITIONING X.
001265:    7477           52155                           DXCH     MPAC
001266:
001267:    7500           16542                           TCF      VMODE                                 #  MODE HAS CHANGED TO VECTOR.
001268:


001270:                                                                                                  #           THE VECTOR CROSS PRODUCT ROUTINE CALCULATES (X M -X M ,X M -X M ,X M -X M ) WHERE M IS THE VECTOR IN
001271:                                                                                                  #                                                         3 2  2 3  1 3  3 1  2 1  1 2
001272:                                                                                                  #  MPAC AND X THE VECTOR AT THE GIVEN ADDRESS.
001273:
001274:    7501           00006        VXV                EXTEND
001275:    7502           30162                           DCA      MPAC       +5                         #  FORM UP M3X1, LEAVING M1 IN VBUF.
001276:    7503           52155                           DXCH     MPAC
001277:    7504           52123                           DXCH     VBUF
001278:    7505           07130                           TC       DMPSUB                                #  BY X1.
001279:
001280:    7506           00006                           EXTEND
001281:    7507           40160                           DCS      MPAC       +3                         #  CALCULATE -X1M2, SAVING X1M3 IN VBUF +2.
001282:    7510           52155                           DXCH     MPAC
001283:    7511           52125                           DXCH     VBUF       +2
001284:    7512           07130                           TC       DMPSUB
001285:
001286:    7513           34743                           CAF      TWO                                   #  ADVANCE ADDRWD TO X2.
001287:    7514           26116                           ADS      ADDRWD
001288:    7515           00006                           EXTEND
001289:    7516           40162                           DCS      MPAC       +5                         #  PREPARE TO GET -X2M3, SAVING -X1M2 IN
001290:    7517           52155                           DXCH     MPAC                                  #  MPAC +5.
001291:    7520           52162                           DXCH     MPAC       +5
001292:    7521           07130                           TC       DMPSUB
001293:
001294:    7522           00006                           EXTEND
001295:    7523           30123                           DCA      VBUF                                  #  GET X2M1, SAVING -X2M3 IN VBUF +4.
001296:    7524           52155                           DXCH     MPAC
001297:    7525           52127                           DXCH     VBUF       +4
001298:    7526           07130                           TC       DMPSUB
001299:
001300:    7527           34743                           CAF      TWO                                   #  ADVANCE ADDRWD TO X3.
001301:    7530           26116                           ADS      ADDRWD
001302:    7531           00006                           EXTEND
001303:    7532           40123                           DCS      VBUF                                  #  GET -X3M1, ADDING X2M1 TO MPAC +5 TO
001304:    7533           52155                           DXCH     MPAC                                  #  COMPLETE THE Z COMPONENT OF THE ANSWER.
001305:    7534           20162                           DAS      MPAC       +5
001306:
001307:    7535           00006                           EXTEND
001308:    7536           17540                           BZF      +2
001309:    7537           07032                           TC       OVERFLWZ
001310:
001311:    7540           07130                           TC       DMPSUB
001312:    7541           52125                           DXCH     VBUF       +2                         #  MOVE X1M3 TO MPAC +3 SETTING UP FOR X3M2
001313:    7542           52160                           DXCH     MPAC       +3                         #  AND ADD -X3M1 TO MPAC +3 TO COMPLETE THE
001314:    7543           52155                           DXCH     MPAC                                  #  Y COMPONENT OF THE RESULT.
001315:    7544           20160                           DAS      MPAC       +3
001316:
001317:    7545           00006                           EXTEND
001318:    7546           17550                           BZF      +2


001320:    7547           07035                           TC       OVERFLWY
001321:
001322:    7550           07130                           TC       DMPSUB
001323:    7551           52127                           DXCH     VBUF       +4                         #  GO ADD -X2M3 TO X3M2 TO COMPLETE THE X
001324:    7552           17021                           TCF      ENDVXV                                #  COMPONENT (TAIL END OF DAD).
001325:
001326:                                                                                                  #           THE MPACVBUF SUBROUTINE SAVES THE VECTOR IN MPAC IN VBUF WITHOUT CLOBBERING MPAC.
001327:
001328:    7553           00006        MPACVBUF           EXTEND                                         #  CALLED BY MXV, VXM, AND UNIT.
001329:    7554           30155                           DCA      MPAC
001330:    7555           52123                           DXCH     VBUF
001331:    7556           00006                           EXTEND
001332:    7557           30160                           DCA      MPAC       +3
001333:    7560           52125                           DXCH     VBUF       +2
001334:    7561           00006                           EXTEND
001335:    7562           30162                           DCA      MPAC       +5
001336:    7563           52127                           DXCH     VBUF       +4
001337:    7564           00002                           TC       Q                                     #  RETURN TO CALLER.
001338:
001339:
001340:                                                                                                  #           DOUBLE PRECISION SIGN AGREE ROUTINE. ARRIVE WITH INPUT IN A+L. OUTPUT IS IN A + L.
001341:
001342:    7565           10000        ALSIGNAG           CCS      A                                     #  TEST UPPER PART.
001343:    7566           17572                           TCF      UPPOS                                 #  IT IS POSITIVE
001344:    7567           00002                           TC       Q                                     #  ZERO
001345:    7570           17602                           TCF      UPNEG                                 #  NEGATIVE
001346:    7571           00002                           TC       Q                                     #  ZERO
001347:
001348:    7572           56001        UPPOS              XCH      L                                     #  SAVE DECREMENTED UPPER PART.
001349:    7573           64727                           AD       HALF
001350:    7574           64727                           AD       HALF
001351:    7575           54000                           TS       A                                     #  SKIPS ON OVERFLOW
001352:    7576           17600                           TCF      +2
001353:    7577           24001                           INCR     L                                     #  RESTORE UPPER TO ORIGINAL VALUE
001354:    7600           56001                           XCH      L                                     #  SWAP A + L BACK.
001355:    7601           00002                           TC       Q
001356:
001357:    7602           56001        UPNEG              XCH      L                                     #  SAVE COMPLEMENTED + DECREMENTED UPPER PT
001358:    7603           64726                           AD       NEGMAX
001359:    7604           67770                           AD       NEGONE
001360:    7605           54000                           TS       A
001361:    7606           17610                           TCF      +2                                    #  DONT INCREMENT IF NO OVERFLOW.
001362:    7607           24001                           INCR     L
001363:    7610           56001                           XCH      L
001364:    7611           40000                           COM                                            #  MAKE NEGATIVE AGAIN.
001365:    7612           00002                           TC       Q
001366:


001368:                                                                                                  #           INTERPRETIVE INSTRUCTIONS WHOSE EXECUTION CONSISTS OF PRINCIPALLY CALLING SUBROUTINES.
001369:
001370:    7613           07130        DMP1               TC       DMPSUB                                #  DMP INSTRUCTION.
001371:    7614           16102                           TCF      DANZIG
001372:
001373:    7615           07130        DMPR               TC       DMPSUB
001374:    7616           07160                           TC       ROUNDSUB   +1                         #  (C(A) = +0).
001375:    7617           16102                           TCF      DANZIG
001376:
001377:    7620           00006        DDV                EXTEND
001378:    7621           50116                           INDEX    ADDRWD                                #  MOVE DIVIDEND INTO BUF.
001379:    7622           30001                           DCA      0
001380:    7623           17630                           TCF      BDDV       +4
001381:
001382:    7624           00006        BDDV               EXTEND                                         #  MOVE DIVISOR INTO MPAC SAVING MPAC, THE
001383:    7625           50116                           INDEX    ADDRWD                                #  DIVIDEND, IN BUF.
001384:    7626           30001                           DCA      0
001385:    7627           52155                           DXCH     MPAC
001386:    7630           52131                 +4        DXCH     BUF
001387:    7631           34746                           CAF      ZERO                                  #  DIVIDE ROUTINES IN BANK 0.
001388:    7632           54004                           TS       FBANK
001389:    7633           12353                           TCF      DDV/BDDV
001390:
001391:    7634           30116        SETPD              CA       ADDRWD                                #  MUST SET TO WORK AREA, OR EBANK TROUBLE.
001392:    7635           54166                           TS       PUSHLOC
001393:    7636           16104                           TCF      NOIBNKSW                              #  NO FBANK SWITCH REQUIRED.
001394:
001395:    7637           34746        TSLC               CAF      ZERO                                  #  SHIFTING ROUTINES LOCATED IN BANK 00.
001396:    7640           54004                           TS       FBANK
001397:    7641           12172                           TCF      TSLC2
001398:
001399:    7642           36115        GSHIFT             CAF      LOW7                                  #  USED AS MASK AT GENSHIFT. THIS PROCESSES
001400:    7643           54004                           TS       FBANK                                 #  ANY SHIFT INSTRUCTION (EXCEPT TSLC) WITH
001401:    7644           12214                           TCF      GENSHIFT                              #  AN ADDRESS (ROUTINES IN BANK 0).
001402:


001404:                                                                                                  #           THE FOLLOWING IS THE PROLOGUE TO V/SC. IF THE PRESENT MODE IS VECTOR, IT SAVES THE SCALAR AT X IN BUF
001405:                                                                                                  #  AND CALLS THE V/SC ROUTINE IN BANK 0. IF THE PRESENT MODE IS SCALAR, IT MOVES THE VECTOR AT X INTO MPAC, SAVING
001406:                                                                                                  #  THE SCALAR IN MPAC IN BUF BEFORE CALLING THE V/SC ROUTINE IN BANK 0.
001407:
001408:    7645           10163        V/SC               CCS      MODE
001409:    7646           17657                           TCF      DV/SC                                 #  MOVE VECTOR INTO MPAC.
001410:    7647           17657                           TCF      DV/SC
001411:
001412:    7650           00006        VV/SC              EXTEND
001413:    7651           50116                           INDEX    ADDRWD
001414:    7652           30001                           DCA      0
001415:    7653           52131        V/SC1              DXCH     BUF                                   #  IN BOTH CASES, VECTOR IS NOW IN MPAC AND
001416:    7654           34746                           CAF      ZERO                                  #  SCALAR IN BUF.
001417:    7655           54004                           TS       FBANK
001418:    7656           12654                           TCF      V/SC2
001419:
001420:    7657           00006        DV/SC              EXTEND
001421:    7660           50116                           INDEX    ADDRWD
001422:    7661           30003                           DCA      2
001423:    7662           52160                           DXCH     MPAC       +3
001424:    7663           00006                           EXTEND
001425:    7664           50116                           INDEX    ADDRWD
001426:    7665           30005                           DCA      4
001427:    7666           52162                           DXCH     MPAC       +5
001428:
001429:    7667           44744                           CS       ONE                                   #  CHANGE MODE TO VECTOR.
001430:    7670           54163                           TS       MODE
001431:
001432:    7671           00006                           EXTEND
001433:    7672           50116                           INDEX    ADDRWD
001434:    7673           30001                           DCA      0
001435:    7674           52155                           DXCH     MPAC
001436:    7675           17653                           TCF      V/SC1                                 #  FINISH PROLOGUE AT COMMON SECTION.
001437:


001439:                                                                                                  #           SIGN AND COMPLEMENT INSTRUCTIONS.
001440:
001441:    7676           50116        SIGN               INDEX    ADDRWD                                #  CALL COMP INSTRUCTION IF WORD AT X IS
001442:    7677           10000                           CCS      0                                     #  NEGATIVE NON-ZERO.
001443:    7700           16102                           TCF      DANZIG
001444:    7701           17703                           TCF      +2
001445:    7702           17711                           TCF      COMP                                  #  DO THE COMPLEMENT.
001446:
001447:    7703           50116                           INDEX    ADDRWD
001448:    7704           10001        CCSL               CCS      1
001449:    7705           16102                           TCF      DANZIG
001450:    7706           16102                           TCF      DANZIG
001451:    7707           17711                           TCF      COMP
001452:    7710           16102                           TCF      DANZIG
001453:    7711           00006        COMP               EXTEND                                         #  COMPLEMENT DP MPAC IN EVERY CASE.
001454:    7712           40155                           DCS      MPAC
001455:    7713           52155                           DXCH     MPAC
001456:
001457:    7714           10163                           CCS      MODE                                  #  EITHER COMPLEMENT MPAC +3 OR THE REST OF
001458:    7715           17726                           TCF      DCOMP                                 #  THE VECTOR ACCUMULATOR.
001459:    7716           17726                           TCF      DCOMP
001460:
001461:    7717           00006                           EXTEND                                         #  VECTOR COMPLEMENT.
001462:    7720           40160                           DCS      MPAC       +3
001463:    7721           52160                           DXCH     MPAC       +3
001464:    7722           00006                           EXTEND
001465:    7723           40162                           DCS      MPAC       +5
001466:    7724           52162                           DXCH     MPAC       +5
001467:    7725           16102                           TCF      DANZIG
001468:
001469:    7726           40156        DCOMP              CS       MPAC       +2
001470:    7727           54156                           TS       MPAC       +2
001471:    7730           16102                           TCF      DANZIG
001472:


001474:                                                                                                  #           THE FOLLOWING SHORT SHIFT CODES REQUIRE NO ADDRESS WORD:
001475:
001476:                                                                                                  #           1.  SR1 TO SR4         SCALAR SHIFT RIGHT.
001477:                                                                                                  #           2.  SR1R TO SR4R       SCALAR SHIFT RIGHT AND ROUND.
001478:                                                                                                  #           3.  SL1 TO SL4         SCALAR SHIFT LEFT.
001479:                                                                                                  #           4.  SL1R TO SL4R       SCALAR SHIFT LEFT AND ROUND.
001480:
001481:                                                                                                  #           5.  VSR1 TO VSR8       VECTOR SHIFT RIGHT (ALWAYS ROUNDS).
001482:                                                                                                  #           6.  VSL1 TO VSL8       VECTOR SHIFT LEFT (NEVER ROUNDS).
001483:
001484:                                                                                                  #           THE FOLLOWING CODES REQUIRE AN ADDRESS WHICH MAY BE INDEXED:*
001485:
001486:                                                                                                  #           1.  SR                 SCALAR SHIFT RIGHT.
001487:                                                                                                  #           2.  SRR                SCALAR SHIFT RIGHT AND ROUND.
001488:                                                                                                  #           3.  SL                 SCALAR SHIFT LEFT.
001489:                                                                                                  #           4.  SLR                SCALAR SHIFT LEFT AND ROUND.
001490:
001491:                                                                                                  #           5.  VSR                VECTOR SHIFT RIGHT.
001492:                                                                                                  #           6.  VSL                VECTOR SHIFT LEFT.
001493:
001494:                                                                                                  #  *  IF THE ADDRESS IS INDEXED, AND THE INDEX MODIFICATION RESULTS IN A NEGATIVE SHIFT COUNT, A SHIFT OF THE
001495:                                                                                                  #  ABSOLUTE VALUE OF THE COUNT IS DONE IN THE OPPOSITE DIRECTION.
001496:
001497:
001498: 00,2017                                           BANK     00
001499:
001500: 00,2017                                           COUNT*   $$/INTER
001501: 00,2017           36263        SHORTT             CAF      SIX                                   #  SCALAR SHORT SHIFTS COME HERE. THE SHIFT
001502: 00,2020           70020                           MASK     CYR                                   #  COUNT-1 IS NOW IN BITS 2-3 OF CYR. THE
001503: 00,2021           54021                           TS       SR                                    #  ROUNDING BIT IS IN BIT1 AT THIS POINT.
001504:
001505: 00,2022           10020                           CCS      CYR                                   #  SEE IF RIGHT OR LEFT SHIFT DESIRED.
001506: 00,2023           12101                           TCF      TSSL                                  #  SHIFT LEFT.
001507:
001508: 00,2024           00024        SRDDV              DEC      20         B-14                       #  MPTEMP SETTING FOR SR BEFORE DDV.
001509:
001510: 00,2025           50021        TSSR               INDEX    SR                                    #  GET SHIFTING BIT.
001511: 00,2026           34727                           CAF      BIT14
001512: 00,2027           54135                           TS       MPTEMP
001513:
001514: 00,2030           10020                           CCS      CYR                                   #  SEE IF A ROUND IS DESIRED.
001515: 00,2031           02050        RIGHTR             TC       MPACSRND                              #  YES - SHIFT RIGHT AND ROUND.
001516: 00,2032           16101                           TCF      NEWMODE                               #  SET MODE TO DP (C(A) = 0).
001517: 00,2033           30135        MPACSHR            CA       MPTEMP                                #  DO A TRIPLE PRECISION SHIFT RIGHT.
001518: 00,2034           00006                           EXTEND
001519: 00,2035           70156                           MP       MPAC       +2
001520: 00,2036           54156                 +3        TS       MPAC       +2                         #  (EXIT FROM SQRT AND ABVAL).
001521: 00,2037           30135                           CA       MPTEMP
001522: 00,2040           00006                           EXTEND
001523: 00,2041           70154                           MP       MPAC                                  #  SHIFT MAJOR PART INTO A,L AND PLACE IN


001525: 00,2042           52155                           DXCH     MPAC                                  #  MPAC,+1.
001526: 00,2043           30135                           CA       MPTEMP
001527: 00,2044           00006                           EXTEND
001528: 00,2045           70001                           MP       L                                     #  ORIGINAL C(MPAC +1).
001529: 00,2046           20156                           DAS      MPAC       +1                         #  GUARANTEED NO OVERFLOW.
001530: 00,2047           16102                           TCF      DANZIG
001531:
001532:                                                                                                  #           MPAC SHIFT RIGHT AND ROUND SUBROUTINES.
001533:
001534: 00,2050           30156        MPACSRND           CA       MPAC       +2                         #  WE HAVE TO DO ALL THREE MULTIPLIES SINCE
001535: 00,2051           00006                           EXTEND                                         #  MPAC +1 AND MPAC +2 MIGHT HAVE SIGN
001536: 00,2052           70135                           MP       MPTEMP                                #  DISAGREEMENT WITH A SHIFT RIGHT OF 1.
001537: 00,2053           56155                           XCH      MPAC       +1
001538: 00,2054           00006                           EXTEND
001539: 00,2055           70135                           MP       MPTEMP
001540: 00,2056           56155                           XCH      MPAC       +1                         #  TRIAL MINOR PART.
001541: 00,2057           60001                           AD       L
001542:
001543: 00,2060           60000        VSHR2              DOUBLE                                         #  (FINISH VECTOR COMPONENT SHIFT RIGHT
001544: 00,2061           54156                           TS       MPAC       +2                         #  AND ROUND.
001545: 00,2062           12064                           TCF      +2
001546: 00,2063           26155                           ADS      MPAC       +1                         #  GUARANTEED NO OVERFLOW.
001547:
001548: 00,2064           34746                           CAF      ZERO
001549: 00,2065           54156                           TS       MPAC       +2
001550: 00,2066           56154                           XCH      MPAC                                  #  SETTING TO ZERO SO FOLLOWING DAS WORKS.
001551: 00,2067           00006                           EXTEND
001552: 00,2070           70135                           MP       MPTEMP
001553: 00,2071           20155                           DAS      MPAC                                  #  AGAIN NO OVERFLOW.
001554: 00,2072           00002                           TC       Q
001555:
001556: 00,2073           30135        VSHRRND            CA       MPTEMP                                #  ENTRY TO SHIFT RIGHT AND ROUND MPAC WHEN
001557: 00,2074           00006                           EXTEND                                         #  MPAC CONTAINS A VECTOR COMPONENT.
001558: 00,2075           70155                           MP       MPAC       +1
001559: 00,2076           54155                           TS       MPAC       +1
001560: 00,2077           56001                           XCH      L
001561: 00,2100           12060                           TCF      VSHR2                                 #  GO ADD ONE IF NECESSARY AND FINISH.
001562:


001564:                                                                                                  #           ROUTINE FOR SHORT SCALAR SHIFT LEFT (AND MAYBE ROUND).
001565:
001566: 00,2101           30021        TSSL               CA       SR                                    #  GET SHIFT COUNT FOR SR.
001567: 00,2102           54135                 +1        TS       MPTEMP
001568:
001569: 00,2103           00006                 +2        EXTEND                                         #  ENTRY HERE FROM SL FOR SCALARS.
001570: 00,2104           30156                           DCA      MPAC       +1                         #  SHIFTING LEFT ONE PLACE AT A TIME IS
001571: 00,2105           20156                           DAS      MPAC       +1                         #  FASTER THAN DOING THE WHOLE SHIFT WITH
001572: 00,2106           60154                           AD       MPAC                                  #  MULTIPLIES ASSUMING THAT FREQUENCY OF
001573: 00,2107           60154                           AD       MPAC                                  #  SHIFT COUNTS GOES DOWN RAPIDLY AS A
001574: 00,2110           54154                           TS       MPAC                                  #  FUNCTION OF THEIR MAGNITUDE.
001575: 00,2111           12113                           TCF      +2
001576: 00,2112           54121                           TS       OVFIND                                #  OVERFLOW. (LEAVES OVERFLOW-CORRECTED
001577:                                                                                                  #  RESULT ANYWAY).
001578: 00,2113           10135                           CCS      MPTEMP                                #  LOOP ON DECREMENTED SHIFT COUNT.
001579: 00,2114           12102                           TCF      TSSL       +1
001580:
001581: 00,2115           10020                           CCS      CYR                                   #  SEE IF ROUND WANTED.
001582: 00,2116           07157        ROUND              TC       ROUNDSUB                              #  YES - ROUND AND EXIT.
001583: 00,2117           16102                           TCF      DANZIG                                #  SL LEAVES A ZERO IN CYR FOR NO ROUND.
001584: 00,2120           16102                           TCF      DANZIG                                #  NO - EXIT IMMEDIATL
001585:


001587:                                                                                                  #  VECTOR SHIFTING ROUTINES.
001588:
001589: 00,2121           34750        SHORTV             CAF      LOW3                                  #  SAVE 3 BIT SHIFT COUNT - 1 WITHOUT
001590: 00,2122           70020                           MASK     CYR                                   #  EDITING CYR.
001591: 00,2123           54135                           TS       MPTEMP
001592: 00,2124           10020                           CCS      CYR                                   #  SEE IF LEFT OR RIGHT SHIFT.
001593: 00,2125           12145                           TCF      VSSL                                  #  VECTOR SHIFT LEFT.
001594: 00,2126           00176        OCT176             OCT      176                                   #  USED IN PROCESSED SHIFTS WITH - COUNT.
001595:
001596: 00,2127           50135        VSSR               INDEX    MPTEMP                                #  (ENTRY FROM SR). PICK UP SHIFTING BIT.
001597: 00,2130           34727                           CAF      BIT14                                 #  MPTEMP CONTAINS THE SHIFT COUNT - 1.
001598: 00,2131           54135                           TS       MPTEMP
001599: 00,2132           02073                           TC       VSHRRND                               #  SHIFT X COMPONENT.
001600:
001601: 00,2133           52155                           DXCH     MPAC                                  #  SWAP X AND Y COMPONENTS.
001602: 00,2134           52160                           DXCH     MPAC       +3
001603: 00,2135           52155                           DXCH     MPAC
001604: 00,2136           02073                           TC       VSHRRND                               #  SHIFT Y COMPONENT.
001605:
001606: 00,2137           52155                           DXCH     MPAC                                  #  SWAP Y AND Z COMPONENTS.
001607: 00,2140           52162                           DXCH     MPAC       +5
001608: 00,2141           52155                           DXCH     MPAC
001609: 00,2142           02073                           TC       VSHRRND                               #  SHIFT Z COMPONENT.
001610:
001611: 00,2143           17441                           TCF      VROTATEX                              #  RESTORE COMPONENTS TO PROPER PLACES.
001612:


001614:                                                                                                  #  VECTOR SHIFT LEFT - DONE ONE PLACE AT A TIME.
001615:
001616: 00,2144           54135                 -1        TS       MPTEMP                                #  SHIFTING LOOP.
001617:
001618: 00,2145           00006        VSSL               EXTEND
001619: 00,2146           30155                           DCA      MPAC
001620: 00,2147           20155                           DAS      MPAC
001621: 00,2150           00006                           EXTEND
001622: 00,2151           12153                           BZF      +2
001623: 00,2152           07040                           TC       OVERFLOW
001624:
001625: 00,2153           00006                           EXTEND
001626: 00,2154           30160                           DCA      MPAC       +3
001627: 00,2155           20160                           DAS      MPAC       +3
001628: 00,2156           00006                           EXTEND
001629: 00,2157           12161                           BZF      +2
001630: 00,2160           07035                           TC       OVERFLWY
001631:
001632: 00,2161           00006                           EXTEND
001633: 00,2162           30162                           DCA      MPAC       +5
001634: 00,2163           20162                           DAS      MPAC       +5
001635: 00,2164           00006                           EXTEND
001636: 00,2165           12167                           BZF      +2
001637: 00,2166           07032                           TC       OVERFLWZ
001638:
001639: 00,2167           10135                           CCS      MPTEMP                                #  LOOP ON DECREMENTED SHIFT COUNTER.
001640: 00,2170           12144                           TCF      VSSL       -1
001641: 00,2171           16102                           TCF      DANZIG                                #  EXIT.
001642:


001644:                                                                                                  #           TSLC - TRIPLE SHIFT LEFT AND COUNT. SHIFTS MPAC LEFT UNTIL GREATER THAN .5 IN MAGNITUDE, LEAVING
001645:                                                                                                  #  THE COMPLEMENT OF THE NUMBER OF SHIFTS REQUIRED IN X.
001646:
001647: 00,2172           54135        TSLC2              TS       MPTEMP                                #  START BY ZEROING SHIFT COUNT (IN A NOW).
001648: 00,2173           06744                           TC       BRANCH                                #  EXIT WITH NO SHIFTING IF ARGUMENT ZERO.
001649: 00,2174           12176                           TCF      +2
001650: 00,2175           12212                           TCF      ENDTSLC                               #  STORES ZERO SHIFT COUNT IN THIS CASE.
001651:
001652: 00,2176           07300                           TC       TPAGREE                               #  MAY CAUSE UPSHIFT OF ONE EXTRA PLACE.
001653:
001654: 00,2177           30154                           CA       MPAC                                  #  BEGIN NORMALIZATION LOOP.
001655: 00,2200           12207                           TCF      TSLCTEST
001656:
001657: 00,2201           24135        TSLCLOOP           INCR     MPTEMP                                #  INCREMENT SHIFT COUNTER.
001658: 00,2202           00006                           EXTEND
001659: 00,2203           30156                           DCA      MPAC       +1
001660: 00,2204           20156                           DAS      MPAC       +1
001661: 00,2205           60154                           AD       MPAC
001662: 00,2206           26154                           ADS      MPAC
001663: 00,2207           60000        TSLCTEST           DOUBLE                                         #  SEE IF (ANOTHER) SHIFT IS REQUIRED.
001664: 00,2210           54000                           OVSK
001665: 00,2211           12201                           TCF      TSLCLOOP                              #  YES - INCREMENT COUNT AND SHIFT AGAIN.
001666:
001667: 00,2212           40135        ENDTSLC            CS       MPTEMP
001668: 00,2213           16644                           TCF      STORE1                                #  STORE SHIFT COUNT AND RETURN TO DANZIG.
001669:


001671:                                                                                                  #           THE FOLLOWING ROUTINES PROCESSES THE GENERAL SHIFT INSTRUCTIONS SR, SRR, SL, AND SLR.
001672:                                                                                                  #  THE GIVEN ADDRESS IS DECODED AS FOLLOWS:
001673:
001674:                                                                                                  #           BITS 1-7    SHIFT COUNT (SUBADDRESS) LESS THAN 125 DECIMAL.
001675:                                                                                                  #           BIT 8       PSEUDO SIGN BIT (DETECTS CHANGE IN SIGN IN INDEXED SHIFTS).
001676:                                                                                                  #           BIT 9       0 FOR LEFT SHIFT, AND 1 FOR RIGHT SHIFT.
001677:                                                                                                  #           BIT 10      1 FOR TERMINAL ROUND ON SCALAR SHIFTS, 0 OTHERWISE.
001678:                                                                                                  #           BITS 11-13  0.
001679:                                                                                                  #           BIT 14      1.
001680:                                                                                                  #           BIT 15      0.
001681:
001682:                                                                                                  #  THE ABOVE ENCODING IS DONE BY THE YUL SYSTEM.
001683:
001684:
001685: 00,2214           70116        GENSHIFT           MASK     ADDRWD                                #  GET SHIFT COUNT, TESTING FOR ZERO.
001686: 00,2215           10000                           CCS      A                                     #  (ARRIVES WITH C(A) = LOW7).
001687: 00,2216           12224                           TCF      GENSHFT2                              #  IF NON-ZERO, PROCEED WITH DECREMENTED CT
001688:
001689: 00,2217           34733                           CAF      BIT10                                 #  ZERO SHIFT COUNT. NO SHIFTS NEEDED BUT
001690: 00,2220           70116                           MASK     ADDRWD                                #  WE MIGHT HAVE TO ROUND MPAC ON SLR AND
001691: 00,2221           10000                           CCS      A                                     #  SRR (SCALAR ONLY).
001692: 00,2222           07157                           TC       ROUNDSUB
001693: 00,2223           16102                           TCF      DANZIG
001694:
001695: 00,2224           54135        GENSHFT2           TS       MPTEMP                                #  DECREMENTED SHIFT COUNT TO MPTEMP.
001696: 00,2225           34735                           CAF      BIT8                                  #  TEST MEANING OF LOW SEVEN BIT COUNT IN
001697: 00,2226           00006                           EXTEND                                         #  MPTEMP NOW.
001698: 00,2227           70116                           MP       ADDRWD
001699: 00,2230           76266                           MASK     LOW2                                  #  JUMPS ON SHIFT DIRECTION (BIT8) AND
001700: 00,2231           50000                           INDEX    A
001701: 00,2232           12233                           TCF      +1                                    #  ORIGINAL SHIFT DIRECTION (BIT 9).
001702: 00,2233           12332                           TCF      RIGHT-                                #  NEGATIVE SHIFT COUNT FOR SL OR SLR.
001703: 00,2234           12342                           TCF      LEFT                                  #  SL OR SLR.
001704: 00,2235           12336                           TCF      LEFT-                                 #  NEGATIVE SHIFT COUNT WITH SR OR SRR.
001705:


001707:                                                                                                  #           GENERAL SHIFT RIGHT.
001708:
001709: 00,2236           10163        RIGHT              CCS      MODE                                  #  SET IF VECTOR OR SCALAR.
001710: 00,2237           12277                           TCF      GENSCR
001711: 00,2240           12277                           TCF      GENSCR
001712:
001713: 00,2241           30135                           CA       MPTEMP                                #  SEE IF SHIFT COUNT LESS THAN 14D.
001714: 00,2242           63733        VRIGHT2            AD       NEG12
001715: 00,2243           00006                           EXTEND
001716: 00,2244           62127                           BZMF     VSSR                                  #  IF SO, BRANCH AND SHIFT IMMEDIATELY.
001717:
001718: 00,2245           67770                           AD       NEGONE                                #  IF NOT, REDUCE MPTEMP BY A TOTAL OF 14.
001719: 00,2246           54135                           TS       MPTEMP                                #  AND DO A SHIFT RIGHT AND ROUND BY 14.
001720: 00,2247           34746                           CAF      ZERO                                  #  THE ROUND AT THIS STAGE MAY INTRODUCE A
001721: 00,2250           54001                           TS       L                                     #  ONE BIT ERROR IN A SHIFT RIGHT 15D.
001722: 00,2251           56154                           XCH      MPAC
001723: 00,2252           56155                           XCH      MPAC       +1
001724: 00,2253           02272                           TC       SETROUND                              #  X COMPONENT NOW SHIFTED, SO MAKE UP THE
001725: 00,2254           20155                           DAS      MPAC                                  #  ROUNDING QUANTITY (0 IN A AND 0 OR +-1
001726:                                                                                                  #  IN L).
001727: 00,2255           56157                           XCH      MPAC       +3                         #  REPEAT THE ABOVE PROCESS FOR Y AND Z.
001728: 00,2256           56160                           XCH      MPAC       +4
001729: 00,2257           02272                           TC       SETROUND
001730: 00,2260           20160                           DAS      MPAC       +3                         #  NO OVERFLOW ON THESE ADDS.
001731:
001732: 00,2261           56161                           XCH      MPAC       +5
001733: 00,2262           56162                           XCH      MPAC       +6
001734: 00,2263           02272                           TC       SETROUND
001735: 00,2264           20162                           DAS      MPAC       +5
001736:
001737: 00,2265           10135                           CCS      MPTEMP                                #  SEE IF DONE, DOING FINAL DECREMENT.
001738: 00,2266           54135                           TS       MPTEMP
001739: 00,2267           12242                           TCF      VRIGHT2
001740: 00,2270           04604        BIASLO             DEC      .2974      B-1                        #  SQRT CONSTANT
001741:
001742: 00,2271           16102                           TCF      DANZIG
001743:
001744: 00,2272           60000        SETROUND           DOUBLE                                         #  MAKES UP ROUNDING QUANTITY FROM ARRIVING
001745: 00,2273           54156                           TS       MPAC       +2                         #  C(A). L IS ZERO INITIALLY.
001746: 00,2274           34746                           CAF      ZERO
001747: 00,2275           56001                           XCH      L
001748: 00,2276           00002                           TC       Q                                     #  RETURN AND DO THE DAS, RESETTING L TO 0.
001749:


001751:                                                                                                  #           PROCESS SR AND SRR FOR SCALARS.
001752:
001753: 00,2277           30135        GENSCR             CA       MPTEMP                                #  SEE IF THE ORIGINAL SHIFT COUNT WAS LESS
001754: 00,2300           63733                 +1        AD       NEG12                                 #  THAN 14D.
001755: 00,2301           00006                           EXTEND
001756: 00,2302           62322                           BZMF     DOSSHFT                               #  DO THE SHIFT IMMEDIATELY IF SO.
001757:
001758: 00,2303           67770                 +4        AD       NEGONE                                #  IF NOT, DECREMENT SHIFT COUNT BY 14D AND
001759: 00,2304           54135                           TS       MPTEMP                                #  SHIFT MPAC RIGHT 14 PLACES.
001760: 00,2305           34746                           CAF      ZERO
001761: 00,2306           56154                           XCH      MPAC
001762: 00,2307           56155                           XCH      MPAC       +1
001763: 00,2310           54156                           TS       MPAC       +2
001764: 00,2311           10135                           CCS      MPTEMP                                #  SEE IF FINISHED, DO FINAL DECREMENT.
001765: 00,2312           54135                           TS       MPTEMP
001766: 00,2313           02300                           TC       GENSCR     +1
001767: 00,2314           22650        SLOPEHI            DEC      .5884                                 #  SQRT CONSTANT.
001768: 00,2315           34733                           CAF      BIT10                                 #  FINISHED WITH SHIFT. SEE IF ROUND
001769: 00,2316           70116                           MASK     ADDRWD                                #  WANTED.
001770: 00,2317           10000                           CCS      A
001771: 00,2320           07157                           TC       ROUNDSUB
001772: 00,2321           16102                           TCF      DANZIG                                #  DO SO AND/OR EXIT.
001773:
001774: 00,2322           50135        DOSSHFT            INDEX    MPTEMP                                #  PICK UP SHIFTING BIT.
001775: 00,2323           34727                           CAF      BIT14
001776: 00,2324           54135                           TS       MPTEMP
001777: 00,2325           34733                           CAF      BIT10                                 #  SEE IF TERMINAL ROUND DESIRED.
001778: 00,2326           70116                           MASK     ADDRWD
001779: 00,2327           10000                           CCS      A
001780: 00,2330           12031                           TCF      RIGHTR                                #  YES.
001781: 00,2331           12033                           TCF      MPACSHR                               #  JUST SHIFT RIGHT.
001782:


001784:                                                                                                  #           PROCESS THE RIGHT- (SL(R) WITH A NEGATIVE COUNT), LEFT-, AND LEFT OPTIONS.
001785:
001786: 00,2332           40135        RIGHT-             CS       MPTEMP                                #  GET ABSOLUTE VALUE - 1 OF SHIFT COUNT
001787: 00,2333           62126                           AD       OCT176                                #  UNDERSTANDING THAT BIT8 (PSEUDO-SIGN)
001788: 00,2334           54135                           TS       MPTEMP                                #  WAS 1 INITIALLY.
001789: 00,2335           12236                           TCF      RIGHT                                 #  DO NORMAL SHIFT RIGHT.
001790:
001791: 00,2336           42126        LEFT-              CS       OCT176                                #  SAME PROLOGUE TO LEFT FOR INDEXED RIGHT
001792: 00,2337           60135                           AD       MPTEMP                                #  SHIFTS WHOSE NET SHIFT COUNT IS NEGATIVE
001793: 00,2340           40000                           COM
001794: 00,2341           54135                           TS       MPTEMP
001795:
001796: 00,2342           10163        LEFT               CCS      MODE                                  #  SINCE LEFT SHIFTING IS SONE ONE PLACE AT
001797: 00,2343           12346                           TCF      GENSCL                                #  A TIME, NO COMPARISON WITH 14 NEED BE
001798: 00,2344           12346                           TCF      GENSCL                                #  DONE. FOR SCALARS, SEE IF TERMINAL ROUND
001799: 00,2345           12145                           TCF      VSSL                                  #  DESIRED. FOR VECTORS, SHIFT IMMEDIATELY.
001800:
001801: 00,2346           40116        GENSCL             CS       ADDRWD                                #  PUT ROUNDING BIT (BIT 10 OF ADDRWD)INTO
001802: 00,2347           00006                           EXTEND                                         #  BIT 15 OF CYR WHERE THE ROUNDING BIT OF
001803: 00,2350           74737                           MP       BIT6                                  #  A SHORT SHIFT LEFT WOULD BE
001804: 00,2351           54020                           TS       CYR
001805: 00,2352           12103                           TCF      TSSL       +2                         #  DO THE SHIFT.
001806:


001808:                                                                                                  #           SCALAR DIVISION INSTRUCTIONS, DDV AND BDDV, ARE EXECUTED HERE. AT THIS POINT, THE DIVIDEND IS IN MPAC
001809:                                                                                                  #  AND THE DIVISOR IN BUF.
001810:
001811: 00,2353           44744        DDV/BDDV           CS       ONE                                   #  INITIALIZATION.
001812: 00,2354           54136                           TS       DVSIGN                                #  +-1 FOR POSITIVE QUOTIENT - -0 FOR NEG.
001813: 00,2355           54137                           TS       DVNORMCT                              #  DIVIDENT NORMALIZATION COUNT.
001814: 00,2356           54140                           TS       MAXDVSW                               #  NEAR-ONE DIVIDE FLAG.
001815:
001816: 00,2357           10130                           CCS      BUF                                   #  FORCE BUF POSITIVE WITH THE MAJOR PART
001817: 00,2360           12516                           TCF      BUFPOS                                #  NON-ZERO.
001818: 00,2361           12363                           TCF      +2
001819: 00,2362           12531                           TCF      BUFNEG
001820:
001821: 00,2363           54156        BUFZERO            TS       MPAC       +2                         #  ZERO THIS.
001822: 00,2364           07300                           TC       TPAGREE                               #  FORCE SIGN AGREEMENT BEFORE OVERFLOW
001823:
001824: 00,2365           10154                           CCS      MPAC                                  #  TEST TO SEE IF MPAC NON-ZERO.  (TOO BIG)
001825: 00,2366           12414                           TCF      OVF+                                  #  MAJOR PART OF DIVIDEND IS POSITIVE NON-0
001826: 00,2367           12371                           TCF      +2
001827: 00,2370           12413                           TCF      OVF+       -1                         #  MAJOR PART OF DIVIDEND IS NEG. NON-ZERO
001828:
001829: 00,2371           56131                           XCH      BUF        +1                         #  SHIFT DIVIDENT AND DIVISOR LEFT 14.
001830: 00,2372           56130                           XCH      BUF
001831: 00,2373           56155                           XCH      MPAC       +1
001832: 00,2374           56154                           XCH      MPAC
001833: 00,2375           10130                           CCS      BUF                                   #  TRY AGAIN ON FORMER MINOR PART.
001834: 00,2376           12422                           TCF      BUF+
001835: 00,2377           12401                           TCF      +2                                    #  OVERFLOW ON ZERO DIVISOR.
001836: 00,2400           12416                           TCF      BUF-
001837:
001838: 00,2401           40154                           CS       MPAC                                  #  SIGN OF MPAC DETERMINES SIGN OF RESULT.
001839: 00,2402           00006        SGNDVOVF           EXTEND
001840: 00,2403           62405                           BZMF     +2
001841: 00,2404           24136                           INCR     DVSIGN                                #  NEGMAX IN MPAC PERHAPS.
001842: 00,2405           34724        DVOVF              CAF      POSMAX                                #  ON DIVISION OVERFLOW OF ANY SORT, SET
001843: 00,2406           54154                           TS       MPAC                                  #  SET DP MPAC TO +-POSMAX.
001844: 00,2407           02630                           TC       FINALDV    +3
001845: 00,2410           34744                           CAF      ONE                                   #  SET OVERFLOW INDICATOR AND EXIT.
001846: 00,2411           54121                           TS       OVFIND
001847: 00,2412           06102                           TC       DANZIG
001848:
001849: 00,2413           24136                 -1        INCR     DVSIGN
001850: 00,2414           40131        OVF+               CS       BUF        +1                         #  LOAD LOWER ORDER PART OF DIVISOR.
001851: 00,2415           12402                           TCF      SGNDVOVF                              #  GET SIGN OF RESULT.
001852:
001853: 00,2416           00006        BUF-               EXTEND                                         #  IF BUF IS NEGATIVE, COMPLEMENT IT AND
001854: 00,2417           40131                           DCS      BUF                                   #  MAINTAIN DVSIGN FOR FINAL QUOTIENT SIGN.
001855: 00,2420           52131                           DXCH     BUF
001856: 00,2421           24136                           INCR     DVSIGN                                #  NOW -0.
001857:


001859: 00,2422           10154        BUF+               CCS      MPAC                                  #  FORCE MPAC POSITIVE, CHECKING FOR ZERO
001860: 00,2423           12437                           TCF      MPAC+                                 #  DIVIDEND IN THE PROCESS.
001861: 00,2424           12426                           TCF      +2
001862: 00,2425           12433                           TCF      MPAC-
001863: 00,2426           10155                           CCS      MPAC       +1
001864: 00,2427           12437                           TCF      MPAC+
001865: 00,2430           16102                           TCF      DANZIG                                #  EXIT IMMEDIATELY ON ZERO DIVIDEND.
001866: 00,2431           12433                           TCF      MPAC-
001867: 00,2432           16102                           TCF      DANZIG
001868:
001869: 00,2433           00006        MPAC-              EXTEND                                         #  FORCE MPAC POSITIVE AS BUF IN BUF-.
001870: 00,2434           40155                           DCS      MPAC
001871: 00,2435           52155                           DXCH     MPAC
001872: 00,2436           24136                           INCR     DVSIGN                                #  NOW +1 OR -0.
001873:


001875: 00,2437           40154        MPAC+              CS       MPAC                                  #  CHECK FOR DIVISION OVERFLOW. IF THE
001876: 00,2440           67770                           AD       NEGONE                                #  MAJOR PART OF THE DIVIDEND IS LESS THAN
001877: 00,2441           60130                           AD       BUF                                   #  THE MAJOR PART OF THE DIVISOR BY AT
001878: 00,2442           10000                           CCS      A                                     #  LEAST TWO, WE CAN PROCEED IMMEDIATELY
001879: 00,2443           12505                           TCF      DVNORM                                #  WITHOUT NORMALIZATION PRODUCING A DVMAX.
001880: 00,2444           60001        -1/2+2             OCT      60001                                 #  USED IN SQRTSUB.
001881:
001882: 00,2445           12446                           TCF      +1                                    #  IF THE ABOVE DOES NOT HOLD, FORCE SIGN
001883: 00,2446           34727                           CAF      HALF                                  #  AGREEMENT IN NUMERATOR AND DENOMINATOR
001884: 00,2447           60000                           DOUBLE                                         #  TO FACILITATE OVERFLOW AND NEAR-ONE
001885: 00,2450           60155                           AD       MPAC       +1                         #  CHECKING.
001886: 00,2451           54155                           TS       MPAC       +1
001887: 00,2452           34746                           CAF      ZERO
001888: 00,2453           64724                           AD       POSMAX
001889: 00,2454           26154                           ADS      MPAC
001890:
001891: 00,2455           34727                           CAF      HALF                                  #  SAME FOR BUF.
001892: 00,2456           60000                           DOUBLE
001893: 00,2457           60131                           AD       BUF        +1
001894: 00,2460           54131                           TS       BUF        +1
001895: 00,2461           34746                           CAF      ZERO
001896: 00,2462           64724                           AD       POSMAX
001897: 00,2463           26130                           ADS      BUF
001898:
001899: 00,2464           40154                           CS       MPAC                                  #  CHECK MAGNITUDE OF SIGN-CORRECTED
001900: 00,2465           60130                           AD       BUF                                   #  OPERANDS.
001901: 00,2466           10000                           CCS      A
001902: 00,2467           12505                           TCF      DVNORM                                #  DIVIDE OK - WILL NOT BECOME MAXDV CASE.
001903: 00,2470           00133        LBUF2              ADRES    BUF2
001904: 00,2471           12405                           TCF      DVOVF                                 #  DIVISOR NOT LESS THAN DIVIDEND - OVF.
001905:
001906: 00,2472           54140                           TS       MAXDVSW                               #  IF THE MAJOR PARTS OF THE DIVIDEND AND
001907: 00,2473           40155                           CS       MPAC       +1                         #  DIVISOR ARE EQUAL, A SPECIAL APPROXIMA-
001908: 00,2474           60131                           AD       BUF        +1                         #  TION IS USED (PROVIDED THE DIVISION IS
001909: 00,2475           00006                           EXTEND                                         #  POSSIBLE, OF COURSE).
001910: 00,2476           62405                           BZMF     DVOVF
001911: 00,2477           12505                           TCF      DVNORM                                #  IF NO OVERFLOW.
001912:


001914: 00,2500           00006        BUFNORM            EXTEND                                         #  ADD -1 TO AUGMENT SHIFT COUNT AND SHIFT
001915: 00,2501           24137                           AUG      DVNORMCT                              #  LEFT ONE PLACE.
001916: 00,2502           00006                           EXTEND
001917: 00,2503           30131                           DCA      BUF
001918: 00,2504           20131                           DAS      BUF
001919:
001920: 00,2505           30130        DVNORM             CA       BUF                                   #  SEE IF DIVISOR NORMALIZED YET.
001921: 00,2506           60000                           DOUBLE
001922: 00,2507           54000                           OVSK
001923: 00,2510           12500                           TCF      BUFNORM                               #  NO - SHIFT LEFT ONE AND TRY AGAIN.
001924:
001925: 00,2511           52155                           DXCH     MPAC                                  #  CALL DIVIDEND NORMALIZATION SEQUENCE
001926: 00,2512           50137                           INDEX    DVNORMCT                              #  PRIOR TO DOING THE DIVIDE.
001927: 00,2513           02565                           TC       MAXTEST
001928:
001929: 00,2514           54156                           TS       MPAC       +2                         #  RETURNS WITH DIVISION DONE AND C(A) = 0.
001930: 00,2515           16102                           TCF      DANZIG
001931:
001932: 00,2516           10000        BUFPOS             CCS      A
001933: 00,2517           12422                           TCF      BUF+                                  #  TO BUF+ IF BUF IS GREATER THAN +1.
001934:
001935: 00,2520           40131                           CS       BUF        +1                         #  IF BUF IS +1, FORCING SIGN AGREEMENT
001936: 00,2521           00006                           EXTEND                                         #  MAY CAUSE BUF TO BECOME ZERO.
001937: 00,2522           62422                           BZMF     BUF+                                  #  BRANCH IF SIGNS AGREE.
001938:
001939: 00,2523           34727                           CA       HALF                                  #  SIGNS DISAGREE.  FORCE AGREEMENT.
001940: 00,2524           60000                 +6        DOUBLE
001941: 00,2525           26131                           ADS      BUF        +1
001942: 00,2526           34746                           CA       ZERO
001943: 00,2527           54130                           TS       BUF
001944: 00,2530           12363                           TCF      BUFZERO
001945:
001946: 00,2531           10000        BUFNEG             CCS      A
001947: 00,2532           12416                           TCF      BUF-                                  #  TO BUF- IF BUF IS LESS THAN -1.
001948:
001949: 00,2533           30131                           CA       BUF        +1                         #  IF BUF IS -1, FORCING SIGN AGREEMENT
001950: 00,2534           00006                           EXTEND                                         #  MAY CAUSE BUF TO BECOME ZERO.
001951: 00,2535           62416                           BZMF     BUF-                                  #  BRANCH IF SIGNS AGREE.
001952:
001953: 00,2536           44727                           CS       HALF                                  #  SIGNS DISAGREE.  FORCE AGREEMENT.
001954: 00,2537           12524                           TCF      BUFPOS     +6
001955:


001957:                                                                                                  #           THE FOLLOWING ARE PROLOGUES TO SHIFT THE DIVIDEND ARRIVING IN A AND L BEFORE THE DIVIDE.
001958:
001959: 00,2540           22021                 -21D      LXCH     SR                                    #  SPECIAL PROLOGUE FOR UNIT WHEN THE
001960: 00,2541           00006                           EXTEND                                         #  LENGTH OF THE ARGUMENT WAS NOT LESS THAN
001961: 00,2542           74727                           MP       HALF                                  #  .5. IN THIS CASE, EACH COMPONENT MUST BE
001962: 00,2543           56001                           XCH      L                                     #  SHIFTED RIGHT ONE TO PRODUCE A HALF-UNIT
001963: 00,2544           60021                           AD       SR                                    #  VECTOR.
001964: 00,2545           56001                           XCH      L
001965: 00,2546           12571                           TCF      GENDDV     +1                         #  WITH DP DIVIDEND IN A,L.
001966:
001967: 00,2547           20001                           DDOUBL                                         #  PROLOGUE WHICH NORMALIZES THE DIVIDEND
001968: 00,2550           20001                           DDOUBL                                         #  WHEN IT IS KNOWN THAT NO DIVISION
001969: 00,2551           20001                           DDOUBL                                         #  OVERFLOW WILL OCCUR.
001970: 00,2552           20001                           DDOUBL
001971: 00,2553           20001                           DDOUBL
001972: 00,2554           20001                           DDOUBL
001973: 00,2555           20001                           DDOUBL
001974: 00,2556           20001                           DDOUBL
001975: 00,2557           20001                           DDOUBL
001976: 00,2560           20001                           DDOUBL
001977: 00,2561           20001                           DDOUBL
001978: 00,2562           20001                           DDOUBL
001979: 00,2563           20001                           DDOUBL
001980: 00,2564           52155                           DXCH     MPAC
001981:
001982: 00,2565           10140        MAXTEST            CCS      MAXDVSW                               #  0 IF MAJORS MIGHT BE =, -1 OTHERWISE.
001983: 00,2566           06552        BIASHI             DEC      .4192      B-1                        #  SQRT CONSTANTS
001984:
001985: 00,2567           12642                           TCF      MAXDV                                 #  CHECK TO SEE IF THAY ARE NOW EQUAL.
001986:


001988:                                                                                                  #           THE FOLLOWING IS A GENERAL PURPOSE DOUBLE PRECISION DIVISION ROUTINE. IT DIVIDES MPAC BY BUF AND LEAVES
001989:                                                                                                  #  THE RESULT IN MPAC. THE FOLLOWING CONDITIONS MUST BE SATISFIED:
001990:
001991:                                                                                                  #           1.  THE DIVISOR (BUF) MUST BE POSITIVE AND NOT LESS THAN .5.
001992:
001993:                                                                                                  #           2.  THE DIVIDEND (MPAC) MUST BE POSITIVE WITH THE MAJOR PART OF MPAC STRICTLY LESS THAN THAT OF BUF
001994:                                                                                                  #  (A SPECIAL APPROXIMATION, MAXDV, IS USED WHEN THE MAJOR PARTS ARE EQUAL).
001995:
001996:                                                                                                  #           UNDERSTANDING THAT A/B = Q + S(R/B) WHERE S = 2(-14) AND Q AND R ARE QUOTIENT AND REMAINDER, RESPEC-
001997:                                                                                                  #  TIVELY, THE FOLLOWING APPROXIMATION IS OBTAINED BY MULTIPLYING ABOVE AND BELOW BY C - SD AND NEGLECTING TERMS OF
001998:                                                                                                  #  ORDER S-SQUARED (POSSIBLY INTRODUCING ERROR INTO THE LOW TWO BITS OF THE RESULT). SIGN AGREEMENT IS UNNECESSARY.
001999:
002000:                                                                                                  #           A + SB .      (R - QD)                                             A + SB
002001:                                                                                                  #           ------ = Q + S(------) WHERE Q AND R ARE QUOTIENT AND REMAINDER OF ------ RESPECTIVELY.
002002:                                                                                                  #           C + SD        (  C   )                                               C
002003:
002004:
002005: 00,2570           52155        GENDDV             DXCH     MPAC                                  #  WE NEED A AND B ONLY FOR FIRST DV.
002006: 00,2571           00006                 +1        EXTEND                                         #  (SPECIAL UNIT PROLOGUE ENTERS HERE).
002007: 00,2572           10130                           DV       BUF                                   #  A NOW CONTAINS Q AND L, R.
002008: 00,2573           52155                           DXCH     MPAC
002009:
002010: 00,2574           40154                           CS       MPAC                                  #  FORM DIVIDEND FOR MINOR PART OF RESULT.
002011: 00,2575           00006                           EXTEND
002012: 00,2576           70131                           MP       BUF        +1
002013: 00,2577           60155                           AD       MPAC       +1                         #  OVERFLOW AT THIS POINT IS POSITIVE SINCE
002014: 00,2600           54000                           OVSK                                           #  R IS POSITIVE IN EVERY CASE.
002015: 00,2601           12606                           TCF      +5
002016:
002017: 00,2602           00006                           EXTEND                                         #  OVERFLOW CAN BE REMOVED BY SUBTRACTING C
002018: 00,2603           60130                           SU       BUF                                   #  (BUF) ONCE SINCE R IS ALWAYS LESS THAN C
002019: 00,2604           24154                           INCR     MPAC                                  #  IN THIS CASE. INCR COMPENSATES SUBTRACT.
002020: 00,2605           12610                           TCF      +DOWN                                 #  (SINCE C(A) IS STILL POSITIVE).
002021:
002022: 00,2606           00006                 +5        EXTEND                                         #  C(A) CAN BE MADE LESS THAN C IN MAGNI-
002023: 00,2607           62620                           BZMF     -UP                                   #  TUDE BY DIMINISHING IT BY C (SINCE C IS
002024:                                                                                                  #  NOT LESS THAN .5) UNLESS C(A) = 0.
002025:


002027: 00,2610           00006        +DOWN              EXTEND
002028: 00,2611           60130                           SU       BUF                                   #  IF POSITIVE, REDUCE ONLY IF NECESSARY
002029: 00,2612           00006                           EXTEND                                         #  SINCE THE COMPENSATING INCR MIGHT CAUSE
002030: 00,2613           12616                           BZF      +3                                    #  OVERFLOW.
002031: 00,2614           00006                           EXTEND                                         #  DONT SUBTRACT UNLESS RESULT IS POSITIVE
002032: 00,2615           62624                           BZMF     ENDMAXDV                              #  OR ZERO.
002033:
002034: 00,2616           24154                 +3        INCR     MPAC                                  #  KEEP SUBTRACT HERE AND COMPENSATE.
002035: 00,2617           12625                           TCF      FINALDV
002036:
002037: 00,2620           00006        -UP                EXTEND                                         #  IF ZERO, SET MINOR PART OF RESULT TO
002038: 00,2621           12630                           BZF      FINALDV    +3                         #  ZERO.
002039:
002040: 00,2622           00006                           EXTEND                                         #  IF NEGATIVE, ADD C TO A, SUBTRACTING ONE
002041: 00,2623           26154                           DIM      MPAC                                  #  TO COMPENSATE. DIM IS OK HERE SINCE THE
002042: 00,2624           60130        ENDMAXDV           AD       BUF                                   #  MAJOR PART NEVER GOES NEGATIVE.
002043:


002045: 00,2625           22007        FINALDV            ZL                                             #  DO DV TO OBTAIN MINOR PART OF RESULT.
002046: 00,2626           00006                           EXTEND
002047: 00,2627           10130                           DV       BUF
002048: 00,2630           54155                 +3        TS       MPAC       +1
002049:
002050: 00,2631           10136                           CCS      DVSIGN                                #  LEAVE RESULT POSITIVE UNLESS C(DVSIGN)=
002051: 00,2632           00002                           TC       Q                                     #  -0.
002052: 00,2633           00002                           TC       Q
002053: 00,2634           00002                           TC       Q
002054:
002055: 00,2635           00006                           EXTEND
002056: 00,2636           40155                           DCS      MPAC
002057: 00,2637           52155                           DXCH     MPAC
002058: 00,2640           34746                           CAF      ZERO                                  #  SO WE ALWAYS RETURN WITH C(A) = 0.
002059: 00,2641           00002                           TC       Q
002060:


002062:                                                                                                  #           IF THE MAJOR PARTS OF THE DIVISOR AND DIVIDEND ARE EQUAL, BUT THE MINOR PARTS ARE SUCH THAT THE
002063:                                                                                                  #  DIVIDEND IS STRICTLY LESS THAN THE DIVISOR IN MAGNITUDE, THE FOLLOWING APPROXIMATION IS USED. THE ASSUMPTIONS
002064:                                                                                                  #  ARE THE SAME AS THE GENERAL ROUTINE WITH THE ADDITION THAT SIGN AGREEMENT IS NECESSARY (B, C, & D POSITIVE).
002065:
002066:                                                                                                  #                  C + SB .          (C + B - D)
002067:                                                                                                  #                  ------ = 37777 + S(---------)
002068:                                                                                                  #                  C + SD            (    C    )
002069:
002070:                                                                                                  #           THE DIVISION MAY BE PERFORMED IMMEDIATELY SINCE B IS STRICTLY LESS THAN D AND C IS NOT LESS THAN .5.
002071:
002072: 00,2642           40154        MAXDV              CS       MPAC                                  #  SEE IF MAXDV CASE STILL HOLDS AFTER
002073: 00,2643           60130                           AD       BUF                                   #  NORMALIZATION.
002074: 00,2644           00006                           EXTEND
002075: 00,2645           12647                           BZF      +2
002076: 00,2646           12570                           TCF      GENDDV                                #  MPAC NOW LESS THAN BUF - DIVIDE AS USUAL
002077:
002078: 00,2647           34724                 +2        CAF      POSMAX                                #  SET MAJOR PART OF RESULT.
002079: 00,2650           54154                           TS       MPAC
002080:
002081: 00,2651           40131                           CS       BUF        +1                         #  FORM DIVIDEND OF MINOR PART OF RESULT.
002082: 00,2652           60155                           AD       MPAC       +1
002083: 00,2653           12624                           TCF      ENDMAXDV                              #  GO ADD C AND DO DIVIDE, ATTACHING SIGN
002084:                                                                                                  #  BEFORE EXITING.
002085:


002087:                                                                                                  #           VECTOR DIVIDED BY SCALAR, V/SC, IS EXECUTED HERE. THE VECTOR IS NOW IN MPAC WITH SCALAR IN BUF.
002088:
002089: 00,2654           44744        V/SC2              CS       ONE                                   #  INITIALIZE DIVIDEND NORMALIZATION COUNT
002090: 00,2655           54137                           TS       DVNORMCT                              #  AND DIVISION SIGN REGISTER.
002091: 00,2656           54127                           TS       VBUF       +5
002092:
002093: 00,2657           03010                           TC       VECAGREE                              #  FORCE SIGN AGREEMENT IN VECTOR
002094:
002095: 00,2660           52131                           DXCH     BUF
002096: 00,2661           07565                           TC       ALSIGNAG                              #  SIGN AGREE BUF
002097: 00,2662           52131                           DXCH     BUF
002098: 00,2663           10130                           CCS      BUF                                   #  FORCE DIVISOR POSITIVE WITH MAJOR PART
002099: 00,2664           12721                           TCF      /BUF+                                 #  NON-ZERO (IF POSSIBLE).
002100: 00,2665           12667                           TCF      +2
002101: 00,2666           12715                           TCF      /BUF-
002102:
002103: 00,2667           56131                           XCH      BUF        +1                         #  SHIFT VECTOR AND SCALAR LEFT 14.
002104: 00,2670           56130                           XCH      BUF
002105: 00,2671           56155                           XCH      MPAC       +1
002106: 00,2672           56154                           XCH      MPAC
002107: 00,2673           00006                           EXTEND                                         #  CHECK FOR OVERFLOW IN EACH CASE.
002108: 00,2674           12676                           BZF      +2
002109: 00,2675           12405                           TCF      DVOVF
002110:
002111: 00,2676           56160                           XCH      MPAC       +4
002112: 00,2677           56157                           XCH      MPAC       +3
002113: 00,2700           00006                           EXTEND
002114: 00,2701           12703                           BZF      +2
002115: 00,2702           12405                           TCF      DVOVF
002116:
002117: 00,2703           56162                           XCH      MPAC       +6
002118: 00,2704           56161                           XCH      MPAC       +5
002119: 00,2705           00006                           EXTEND
002120: 00,2706           12710                           BZF      +2
002121: 00,2707           12405                           TCF      DVOVF
002122:
002123: 00,2710           10130                           CCS      BUF
002124: 00,2711           12721                           TCF      /BUF+
002125: 00,2712           12405                           TCF      DVOVF                                 #  ZERO DIVISOR - OVERFLOW.
002126: 00,2713           12715                           TCF      /BUF-
002127: 00,2714           12405                           TCF      DVOVF
002128:
002129: 00,2715           00006        /BUF-              EXTEND                                         #  ON NEGATIVE, COMPLEMENT BUF AND MAINTAIN
002130: 00,2716           40131                           DCS      BUF                                   #  DVSIGN IN VBUF +5.
002131: 00,2717           52131                           DXCH     BUF
002132: 00,2720           24127                           INCR     VBUF       +5
002133:


002135: 00,2721           00006        /BUF+              EXTEND
002136: 00,2722           30131                           DCA      BUF                                   #  LEAVE ABS(ORIG DIVISOR) IN BUF2
002137: 00,2723           52134                           DXCH     BUF2                                  #  FOR OVERFLOW TESTING
002138: 00,2724           12732                           TCF      /NORM                                 #  NORMALIZE DIVISOR IN BUF.
002139:
002140: 00,2725           00006        /NORM2             EXTEND                                         #  IF LESS THAN .5, AUGMENT DVNORMCT AND
002141: 00,2726           24137                           AUG      DVNORMCT                              #  DOUBLE DIVISOR.
002142: 00,2727           00006                           EXTEND
002143: 00,2730           30131                           DCA      BUF
002144: 00,2731           20131                           DAS      BUF
002145:
002146: 00,2732           30130        /NORM              CA       BUF                                   #  SEE IF DIVISOR NORMALIZED.
002147: 00,2733           60000                           DOUBLE
002148: 00,2734           54000                           OVSK
002149: 00,2735           12725                           TCF      /NORM2                                #  DOUBLE AND TRY AGAIN IF NOT.
002150:
002151: 00,2736           02750                           TC       V/SCDV                                #  DO X COMPONENT DIVIDE.
002152: 00,2737           52160                           DXCH     MPAC       +3                         #  SUPPLY ARGUMENTS IN USUAL SEQUENCE.
002153: 00,2740           52155                           DXCH     MPAC
002154: 00,2741           52160                           DXCH     MPAC       +3
002155:
002156: 00,2742           02750                           TC       V/SCDV                                #  Y COMPONENT.
002157: 00,2743           52162                           DXCH     MPAC       +5
002158: 00,2744           52155                           DXCH     MPAC
002159: 00,2745           52162                           DXCH     MPAC       +5
002160:
002161: 00,2746           02750                           TC       V/SCDV                                #  Z COMPONENT.
002162: 00,2747           17441                           TCF      VROTATEX                              #  GO RE-ARRANGE COMPONENTS BEFORE EXIT.
002163:


002165:                                                                                                  #           SUBROUTINE USED BY V/SC TO DIVIDE VECTOR COMPONENT IN MPAC,+1 BY THE SCALAR GIVEN IN BUF.
002166:
002167: 00,2750           30127        V/SCDV             CA       VBUF       +5                         #  REFLECTS SIGN OF SCALAR.
002168: 00,2751           54136                           TS       DVSIGN
002169:
002170: 00,2752           10154                           CCS      MPAC                                  #  FORCE MPAC POSITIVE, EXITING ON ZERO.
002171: 00,2753           12767                           TCF      /MPAC+
002172: 00,2754           12756                           TCF      +2
002173: 00,2755           12763                           TCF      /MPAC-
002174:
002175: 00,2756           10155                           CCS      MPAC       +1
002176: 00,2757           12767                           TCF      /MPAC+
002177: 00,2760           00002                           TC       Q
002178: 00,2761           12763                           TCF      /MPAC-
002179: 00,2762           00002                           TC       Q
002180:
002181: 00,2763           00006        /MPAC-             EXTEND                                         #  USUAL COMPLEMENTING AND SETTING OF SIGN.
002182: 00,2764           40155                           DCS      MPAC
002183: 00,2765           52155                           DXCH     MPAC
002184: 00,2766           24136                           INCR     DVSIGN
002185:
002186: 00,2767           44744        /MPAC+             CS       ONE                                   #  INITIALIZE NEAR-ONE SWITCH.
002187: 00,2770           54140                           TS       MAXDVSW
002188:
002189: 00,2771           40154                           CS       MPAC                                  #  CHECK POSSIBLE OVERFLOW.
002190: 00,2772           60133                           AD       BUF2                                  #  UNNORMALIZED INPUT DIVISOR.
002191: 00,2773           10000                           CCS      A
002192: 00,2774           13004                           TCF      DDVCALL                               #  NOT NEAR-ONE
002193: 00,2775           12777                           TCF      +2                                    #  +0 IS JUST POSSIBLE
002194: 00,2776           12405                           TCF      DVOVF                                 #  NO HOPE
002195: 00,2777           54140                           TS       MAXDVSW                               #  SIGNAL POSSIBLE NEAR-ONE CASE
002196: 00,3000           40155                           CS       MPAC       +1                         #  SEE IF DIVISION CAN BE DONE
002197: 00,3001           60134                           AD       BUF2       +1
002198: 00,3002           00006                           EXTEND
002199: 00,3003           62405                           BZMF     DVOVF
002200:
002201: 00,3004           52155        DDVCALL            DXCH     MPAC                                  #  CALL PRE-DIVIDE NORMALIZATION.
002202: 00,3005           50137                           INDEX    DVNORMCT
002203: 00,3006           12565                           TCF      MAXTEST
002204:


002206: 00,3007           32506        SLOPELO            DEC      .8324
002207:
002208: 00,3010           56002        VECAGREE           XCH      Q                                     #  SAVE Q IN A
002209: 00,3011           52155                           DXCH     MPAC
002210: 00,3012           07565                           TC       ALSIGNAG                              #  SIGNAGREE MPAC
002211: 00,3013           52155                           DXCH     MPAC
002212: 00,3014           52160                           DXCH     MPAC       +3
002213: 00,3015           07565                           TC       ALSIGNAG                              #  SIGN AGREE MPAC +3
002214: 00,3016           52160                           DXCH     MPAC       +3
002215: 00,3017           52162                           DXCH     MPAC       +5
002216: 00,3020           07565                           TC       ALSIGNAG                              #  SIGNAGREE MPAC +5
002217: 00,3021           52162                           DXCH     MPAC       +5
002218: 00,3022           00000                           TC       A
002219:


002221:                                                                                                  #           THE FOLLOWING ROUTINE EXECUTES THE UNIT INSTRUCTION, WHICH TAKES THE UNIT OF THE VECTOR IN MPAC.
002222:
002223: 00,3023           03010        UNIT               TC       VECAGREE                              #  FORCE SIGN AGREEMENT IN VECTOR
002224: 00,3024           07553                           TC       MPACVBUF                              #  SAVE ARGUMENT IN VBUF
002225: 00,3025           34746                           CAF      ZERO                                  #  MUST SENSE OVERFLOW IN FOLLOWING DOT.
002226: 00,3026           56121                           XCH      OVFIND
002227: 00,3027           54141                           TS       TEM1
002228: 00,3030           03317                           TC       VSQSUB                                #  DOT MPAC WITH ITSELF.
002229: 00,3031           30141                           CA       TEM1
002230: 00,3032           56121                           XCH      OVFIND
002231: 00,3033           00006                           EXTEND
002232: 00,3034           13036                           BZF      +2
002233: 00,3035           12405                           TCF      DVOVF
002234: 00,3036           00006                           EXTEND
002235: 00,3037           30155                           DCA      MPAC                                  #  LEAVE THE SQUARE OF THE LENGTH OF THE
002236: 00,3040           50120                           INDEX    FIXLOC                                #  ARGUMENT IN LVSQUARE.
002237: 00,3041           52043                           DXCH     LVSQUARE
002238:
002239: 00,3042           03343                           TC       SQRTSUB                               #  GO TAKE THE NORMALIZED SQUARE ROOT.
002240:
002241: 00,3043           10154                           CCS      MPAC                                  #  CHECK FOR UNIT OVERFLOW.
002242: 00,3044           13051                           TCF      +5                                    #  MPAC IS NOT LESS THAN .5 UNLESS
002243: 00,3045           54001                           TS       L
002244: 00,3046           50120                           INDEX    FIXLOC
002245: 00,3047           52045                           DXCH     LV
002246: 00,3050           12405                           TCF      DVOVF                                 #  INPUT TO SQRTSUB WAS 0.
002247:
002248: 00,3051           44310                           CS       FOURTEEN                              #  SEE IF THE INPUT WAS SO SMALL THE THE
002249: 00,3052           60135                           AD       MPTEMP                                #  FIRST TWO REGISTERS OF THE SQUARE WERE 0
002250: 00,3053           10000                           CCS      A
002251: 00,3054           40000                           COM                                            #  IF SO, SAVE THE NEGATIVE OF THE SHIFT
002252: 00,3055           13133                           TCF      SMALL                                 #  COUNT -15D.
002253:
002254: 00,3056           13065                           TCF      LARGE                                 #  (THIS IS USUALLY THE CASE.)
002255:
002256: 00,3057           44752                           CS       THIRTEEN                              #  IF THE SHIFT COUNT WAS EXACTLY 14, SET
002257: 00,3060           54135                           TS       MPTEMP                                #  THE PRE-DIVIDE NORM COUNT TO -13D.
002258:
002259: 00,3061           30154                           CA       MPAC                                  #  SHIFT THE LENGTH RIGHT 14 BEFORE STORING
002260: 00,3062           54001        SMALL2             TS       L                                     #  (SMALL EXITS TO THIS POINT).
002261: 00,3063           34746                           CAF      ZERO
002262: 00,3064           13112                           TCF      LARGE2                                #  GO TO STORE LENGTH AND PROCEED.
002263:
002264: 00,3065           10135        LARGE              CCS      MPTEMP                                #  MOST ALL CASES COME HERE.
002265: 00,3066           13074                           TCF      LARGE3                                #  SEE IF NO NORMALIZATION WAS REQUIRED BY
002266:
002267: 00,3067           42024                           CS       SRDDV                                 #  SQRT, AND IF SO, SET UP FOR A SHIFT
002268: 00,3070           54135                           TS       MPTEMP                                #  RIGHT 1 BEFORE DIVIDING TO PRODUCE
002269: 00,3071           00006                           EXTEND                                         #  THE DESIRED HALF UNIT VECTOR.
002270: 00,3072           30155                           DCA      MPAC


002272: 00,3073           13112                           TCF      LARGE2
002273:


002275: 00,3074           40000        LARGE3             COM                                            #  LEAVE NEGATIVE OF SHIFT COUNT-1 FOR
002276: 00,3075           54135                           TS       MPTEMP                                #  PREDIVIDE LEFT SHIFT.
002277:
002278: 00,3076           40000                           COM                                            #  PICK UP REQUIRED SHIFTING BIT TO UNNORM-
002279: 00,3077           50000                           INDEX    A                                     #  ALIZE THE SQRT RESULT.
002280: 00,3100           34727                           CAF      BIT14
002281: 00,3101           54130                           TS       BUF
002282: 00,3102           00006                           EXTEND
002283: 00,3103           70155                           MP       MPAC       +1
002284: 00,3104           56130                           XCH      BUF
002285: 00,3105           00006                           EXTEND                                         #  (UNNORMALIZE THE SQRT FOR LV).
002286: 00,3106           70154                           MP       MPAC
002287: 00,3107           56001                           XCH      L
002288: 00,3110           60130                           AD       BUF
002289: 00,3111           56001                           XCH      L
002290:
002291: 00,3112           50120        LARGE2             INDEX    FIXLOC
002292: 00,3113           52045                           DXCH     LV                                    #  LENGTH NOW STORED IN WORK AREA.
002293:
002294: 00,3114           44744                           CS       ONE
002295: 00,3115           54140                           TS       MAXDVSW                               #  NO MAXDV CASES IN UNIT.
002296:
002297: 00,3116           52123                           DXCH     VBUF                                  #  PREPARE X COMPONENT FOR DIVIDE, SETTING
002298: 00,3117           52155                           DXCH     MPAC                                  #  LENGTH OF VECTOR AS DIVISOR IN BUF.
002299: 00,3120           52131                           DXCH     BUF
002300: 00,3121           03151                           TC       UNITDV
002301:
002302: 00,3122           52125                           DXCH     VBUF       +2                         #  DO Y AND Z IN USUAL FASHION SO WE CAN
002303: 00,3123           52155                           DXCH     MPAC                                  #  EXIT THROUGH VROTATEX.
002304: 00,3124           52160                           DXCH     MPAC       +3
002305: 00,3125           03151                           TC       UNITDV
002306:
002307: 00,3126           52127                           DXCH     VBUF       +4
002308: 00,3127           52155                           DXCH     MPAC
002309: 00,3130           52162                           DXCH     MPAC       +5
002310: 00,3131           03151                           TC       UNITDV
002311: 00,3132           17441                           TCF      VROTATEX                              #  AND EXIT.
002312:


002314:                                                                                                  #           IF THE LENGTH OF THE ARGUMENT VECTOR WAS LESS THAN 2(-28), EACH COMPONENT MUST BE SHIFTED LEFT AT LEAST
002315:                                                                                                  #  14 PLACES BEFORE THE DIVIDE. NOTE THAT IN THIS CASE, THE MAJOR PART OF EACH COMPONENT IS ZERO.
002316:
002317: 00,3133           54135        SMALL              TS       MPTEMP                                #  NEGATIVE OF PRE-DIVIDE SHIFT COUNT.
002318:
002319: 00,3134           34746                           CAF      ZERO                                  #  SHIFT EACH COMPONENT LEFT 14.
002320: 00,3135           56123                           XCH      VBUF       +1
002321: 00,3136           56122                           XCH      VBUF
002322: 00,3137           56125                           XCH      VBUF       +3
002323: 00,3140           56124                           XCH      VBUF       +2
002324: 00,3141           56127                           XCH      VBUF       +5
002325: 00,3142           56126                           XCH      VBUF       +4
002326:
002327: 00,3143           40135                           CS       MPTEMP
002328: 00,3144           50000                           INDEX    A
002329: 00,3145           34727                           CAF      BIT14
002330: 00,3146           00006                           EXTEND
002331: 00,3147           70154                           MP       MPAC
002332: 00,3150           13062                           TCF      SMALL2
002333:
002334: 00,3151     4752               THIRTEEN           =        OCT15
002335: 00,3151     4310               FOURTEEN           =        OCT16
002336: 00,3151     4310               OCT16              =        R1D1
002337:


002339:                                                                                                  #           THE FOLLOWING ROUTINE SETS UP THE CALL TO THE DIVIDE ROUTINES.
002340:
002341: 00,3151           10154        UNITDV             CCS      MPAC                                  #  FORCE MPAC POSITIVE IF POSSIBLE, SETTING
002342: 00,3152           13170                           TCF      UMPAC+                                #  DVSIGN ACCORDING TO THE SIGN OF MPAC
002343: 00,3153           13155                           TCF      +2                                    #  SINCE THE DIVISOR IS ALWAYS POSITIVE
002344: 00,3154           13162                           TCF      UMPAC-                                #  HERE.
002345:
002346: 00,3155           10155                           CCS      MPAC       +1
002347: 00,3156           13170                           TCF      UMPAC+
002348: 00,3157           00002                           TC       Q                                     #  EXIT IMMEDIATELY ON ZERO.
002349: 00,3160           13162                           TCF      UMPAC-
002350: 00,3161           00002                           TC       Q
002351:
002352: 00,3162           44746        UMPAC-             CS       ZERO                                  #  IF NEGATIVE, SET -0 IN DVSIGN FOR FINAL
002353: 00,3163           54136                           TS       DVSIGN                                #  COMPLEMENT.
002354: 00,3164           00006                           EXTEND
002355: 00,3165           40155                           DCS      MPAC                                  #  PICK UP ABSOLUTE VALUE OF ARG AND JUMP.
002356: 00,3166           50135                           INDEX    MPTEMP
002357: 00,3167           12564                           TCF      MAXTEST    -1
002358:
002359: 00,3170           54136        UMPAC+             TS       DVSIGN                                #  SET DVSIGN FOR POSITIVE QUOTIENT.
002360: 00,3171           52155                           DXCH     MPAC
002361: 00,3172           50135                           INDEX    MPTEMP
002362: 00,3173           12564                           TCF      MAXTEST    -1
002363:


002365:                                                                                                  #           MISCELLANEOUS UNARY OPERATIONS.
002366:
002367: 00,3174           03300        DSQ                TC       DSQSUB                                #  SQUARE THE DP CONTENTS OF MPAC.
002368: 00,3175           16102                           TCF      DANZIG
002369:
002370: 00,3176           10163        ABVALABS           CCS      MODE                                  #  ABVAL OR ABS INSTRUCTION.
002371: 00,3177           13226                           TCF      ABS                                   #  DO ABS ON SCALAR.
002372: 00,3200           13226                           TCF      ABS
002373:
002374: 00,3201           03317        ABVAL              TC       VSQSUB                                #  DOT MPAC WITH ITSELF.
002375: 00,3202           22163                           LXCH     MODE                                  #  MODE IS NOW DP (L ZERO AFTER DAS).
002376:
002377: 00,3203           00006                           EXTEND                                         #  STORE SQUARE OF LENGTH IN WORK AREA.
002378: 00,3204           30155                           DCA      MPAC
002379: 00,3205           50120                           INDEX    FIXLOC
002380: 00,3206           52043                           DXCH     LVSQUARE
002381:


002383:                                                                                                  #  PROGRAM DESCRIPTION- SUBROUTINE SQRT
002384:                                                                                                  #  FUNCTIONAL DESCRIPTION-DOUBLE PRECISION SQUARE ROOT ROUTINE
002385:                                                                                                  #      THIS PROGRAM TAKES THE SQUARE ROOT OF THE 27 OR 28 MOST SIGNIFICANT BITS IN THE TRIPLE PRECISION SET OF
002386:                                                                                                  #      NUMBERS-MPAC,MPAC+1,AND MPAC+2.  THE ROOT IS RETURNED DOUBLE        PRECISION IN MPAC AND MPAC+1.
002387:                                                                                                  #  WARNING- THIS SUBROUTINE USES A TRIPLE PRECISION INPUT. THE PROGRAMMER  MUST ASSURE THE CONTENTS OF MPAC+2
002388:                                                                                                  #      ESPECIALLY IF THE CONTENTS OF MPAC IS SMALL OR ZERO.  FOR DETAILS SEE STG MEMO NO.949.
002389:                                                                                                  #  CALLING SEQUENCE- IN INTERPRETIVE MODE I.E., FOLLOWING TC  INTPRET,SQRT   NO ADDRESS IS ALLOWED
002390:                                                                                                  #  INPUT SCALING  THE BINARY POINT IS ASSUMED TO THE RIGHT OF BIT 15. THE  ANSWER IS RETURNED WITH THE SAME SCALING
002391:                                                                                                  #  SUBROUTINES- GENSCR,MPACSHR, SQRTSUB,ABORT
002392:                                                                                                  #  ABORT EXIT MODE- ABORTS ON NEGATIVE INPUT -1.2X10E-4 (77775  OCTAL)     OR LESS.
002393:                                                                                                  #      DISPLAYS ERROR CODE 1302
002394:                                                                                                  #                  TC   ABORT
002395:                                                                                                  #                  OCT  1302
002396:                                                                                                  #  DEBRIS -  LOCATIONS BUF,MPTEMP,ADDRWD ARE USED
002397: 00,3207           03343        SQRT               TC       SQRTSUB                               #  TAKE THE SQUARE ROOT OF MPAC.
002398: 00,3210           10135                           CCS      MPTEMP                                #  RETURNED NORMALIZED SQUARE ROOT. SEE IF
002399: 00,3211           13213                           TCF      +2                                    #  ANY UN-NORMALIZATION REQUIRED AND EXIT
002400: 00,3212           16102                           TCF      DANZIG                                #  IF NOT.
002401:
002402: 00,3213           63733                           AD       NEG12                                 #  A RIGHT SHIFT OF MORE THAN 13 COULD BE
002403: 00,3214           00006                           EXTEND                                         #  REQUIRED IF INPUT WAS ZERO IN MPAC,+1.
002404: 00,3215           63221                           BZMF     SQRTSHFT                              #  GOES HERE IN MOST CASES.
002405: 00,3216           22007                           ZL                                             #  IF A LONG SHIFT IS REQUIRED, GO TO
002406: 00,3217           22116                           LXCH     ADDRWD                                #  GENERAL RIGHT SHIFT ROUTINES.
002407: 00,3220           12303                           TCF      GENSCR     +4                         #  ADDRWD WAS ZERO TO PREVENT ROUND.
002408:
002409: 00,3221           50135        SQRTSHFT           INDEX    MPTEMP                                #  SELECT SHIFTING BIT AND EXIT THROUGH
002410: 00,3222           34726                           CAF      BIT15                                 #  SHIFT ROUTINES.
002411: 00,3223           54135                           TS       MPTEMP
002412: 00,3224           34746                           CAF      ZERO                                  #  TO ZERO MPAC +2 IN THE PROCESS.
002413: 00,3225           12036                           TCF      MPACSHR    +3
002414:
002415: 00,3226           06744        ABS                TC       BRANCH                                #  TEST SIGN OF MPAC AND COMPLEMENT IF
002416: 00,3227           16102                           TCF      DANZIG
002417: 00,3230           16102                           TCF      DANZIG
002418: 00,3231           17711                           TCF      COMP
002419:


002421: 00,3232           44742        VDEF               CS       FOUR                                  #  VECTOR DEFINE - ESSENTIALLY TREATS
002422: 00,3233           26166                           ADS      PUSHLOC                               #  SCALAR IN MPAC AS X COMPONENT, PUSHES UP
002423: 00,3234           00006                           EXTEND                                         #  FOR Y AND THEN AGAIN FOR Z.
002424: 00,3235           50000                           INDEX    A
002425: 00,3236           30003                           DCA      2
002426: 00,3237           52160                           DXCH     MPAC       +3
002427: 00,3240           00006                           EXTEND
002428: 00,3241           50166                           INDEX    PUSHLOC
002429: 00,3242           30001                           DCA      0
002430: 00,3243           52162                           DXCH     MPAC       +5
002431: 00,3244           16542                           TCF      VMODE                                 #  MODE IS NON VECTOR.
002432:
002433: 00,3245           03317        VSQ                TC       VSQSUB                                #  DOT MPAC WITH ITSELF.
002434: 00,3246           17353                           TCF      DMODE                                 #  MODE IS NOW DP.
002435:
002436: 00,3247           00006        PUSH               EXTEND                                         #  PUSH DOWN MPAC LEAVING IT LOADED.
002437: 00,3250           30155                           DCA      MPAC
002438: 00,3251           50166                           INDEX    PUSHLOC                               #  PUSH DOWN FIRST TWO REGISTERS IN EACH
002439: 00,3252           52001                           DXCH     0
002440:
002441: 00,3253           50163                           INDEX    MODE                                  #  INCREMENT PUSHDOWN POINTER.
002442: 00,3254           36265                           CAF      NO.WDS
002443: 00,3255           26166                           ADS      PUSHLOC
002444:
002445: 00,3256           10163                           CCS      MODE
002446: 00,3257           13272                           TCF      TPUSH                                 #  PUSH DOWN MPAC +2.
002447: 00,3260           16102                           TCF      DANZIG                                #  DONE FOR DP.
002448:
002449: 00,3261           00006                           EXTEND                                         #  ON VECTOR, PUSH DOWN Y AND Z COMPONENTS.
002450: 00,3262           30160                           DCA      MPAC       +3
002451: 00,3263           50166                           INDEX    PUSHLOC
002452: 00,3264           51775                           DXCH     0          -4
002453: 00,3265           00006                           EXTEND
002454: 00,3266           30162                           DCA      MPAC       +5
002455: 00,3267           50166                           INDEX    PUSHLOC
002456: 00,3270           51777                           DXCH     0          -2
002457: 00,3271           16102                           TCF      DANZIG
002458:
002459: 00,3272           30156        TPUSH              CA       MPAC       +2
002460: 00,3273           16575                           TCF      ENDTPUSH   +2
002461:
002462: 00,3274           50120        RVQ                INDEX    FIXLOC                                #  RVQ - RETURN IVA QPRET.
002463: 00,3275           30052                           CA       QPRET
002464: 00,3276           54117                           TS       POLISH
002465: 00,3277           16673                           TCF      GOTO       +4                         #  (ASSUME QPRET POINTS TO FIXED ONLY.)
002466:


002468:                                                                                                  #           THE FOLLOWING SUBROUTINES ARE USED IN SQUARING MPAC, IN BOTH THE SCALAR AND VECTOR SENSE. THEY ARE
002469:                                                                                                  #  SPECIAL CASES OF DMPSUB AND DOTSUB, PUT IN TO SAVE SOME TIME.
002470:
002471: 00,3300           30155        DSQSUB             CA       MPAC       +1                         #  SQUARES THE SCALAR CONTENTS OF MPAC.
002472: 00,3301           00006                           EXTEND
002473: 00,3302           70000                           SQUARE
002474: 00,3303           54156                           TS       MPAC       +2
002475: 00,3304           34746                           CAF      ZERO                                  #  FORM 2(CROSS TERM).
002476: 00,3305           56155                           XCH      MPAC       +1
002477: 00,3306           00006                           EXTEND
002478: 00,3307           70154                           MP       MPAC
002479: 00,3310           20001                           DDOUBL                                         #  AND MAYBE OVEFLOW.
002480: 00,3311           20156                           DAS      MPAC       +1                         #  AND SET A TO NET OVERFLOW.
002481: 00,3312           56154                           XCH      MPAC
002482: 00,3313           00006                           EXTEND
002483: 00,3314           70000                           SQUARE
002484: 00,3315           20155                           DAS      MPAC
002485: 00,3316           00002                           TC       Q
002486:
002487: 00,3317           00006        VSQSUB             EXTEND                                         #  DOTS THE VECTOR IN MPAC WITH ITSELF.
002488: 00,3320           22137                           QXCH     DOTRET
002489: 00,3321           03300                           TC       DSQSUB                                #  SQUARE THE X COMPONENT.
002490: 00,3322           52160                           DXCH     MPAC       +3
002491: 00,3323           52155                           DXCH     MPAC
002492: 00,3324           52131                           DXCH     BUF                                   #  SO WE CAN END IN DOTSUB.
002493: 00,3325           30156                           CA       MPAC       +2
002494: 00,3326           54132                           TS       BUF        +2
002495:
002496: 00,3327           03300                           TC       DSQSUB                                #  SQUARE Y COMPONENT.
002497: 00,3330           52156                           DXCH     MPAC       +1
002498: 00,3331           20132                           DAS      BUF        +1
002499: 00,3332           60154                           AD       MPAC
002500: 00,3333           60130                           AD       BUF
002501: 00,3334           54130                           TS       BUF
002502: 00,3335           13337                           TCF      +2
002503: 00,3336           54121                           TS       OVFIND                                #  IF OVERFLOW.
002504:
002505: 00,3337           52162                           DXCH     MPAC       +5
002506: 00,3340           52155                           DXCH     MPAC
002507: 00,3341           03300                           TC       DSQSUB                                #  SQUARE Z COMPONENT.
002508: 00,3342           17226                           TCF      ENDDOT                                #  END AS IN DOTSUB.
002509:


002511:                                                                                                  #           DOUBLE PRECISION SQUARE ROOT ROUTINE. TAKE THE SQUARE ROOT OF THE TRIPLE PRECISION (MPAC +2 USED ONLY
002512:                                                                                                  #  IN NORMALIZATION) CONTENTS OF MPAC AND LEAVE THE NORMALIZED RESULT IN MPAC (C(MPAC) GREATER THAN OR EQUAL TO
002513:                                                                                                  #  .5). THE RIGHT SHIFT COUNT (TC UNNORMALIZE) IS LEFT IN MPTEMP.
002514:
002515: 00,3343           34746        SQRTSUB            CAF      ZERO                                  #  START BY ZEROING RIGHT SHIFT COUNT.
002516: 00,3344           54135                           TS       MPTEMP
002517:
002518: 00,3345           10154                           CCS      MPAC                                  #  CHECK FOR POSITIVE ARGUMENT, SHIFTING
002519: 00,3346           13405                           TCF      SMPAC+                                #  FIRST SIGNIFICANT MPAC REGISTER INTO
002520: 00,3347           13351                           TCF      +2                                    #  MPAC ITSELF.
002521: 00,3350           13373                           TCF      SQRTNEG                               #  SEE IF MAG OF ARGUMENT LESS THAN 10(-4).
002522:
002523: 00,3351           56156                           XCH      MPAC       +2                         #  MPAC IS ZERO - SHIFT LEFT 14.
002524: 00,3352           56155                           XCH      MPAC       +1
002525: 00,3353           54154                           TS       MPAC
002526: 00,3354           34750                           CAF      SEVEN                                 #  AUGMENT RIGHT SHIFT COUNTER.
002527: 00,3355           54135                           TS       MPTEMP
002528:
002529: 00,3356           10154                           CCS      MPAC                                  #  SEE IF MPAC NOW PNZ.
002530: 00,3357           13405                           TCF      SMPAC+
002531: 00,3360           13362                           TCF      +2
002532: 00,3361           13376                           TCF      ZEROANS                               #  NEGATIVE BUT LESS THAN 10(-4) IN MAG.
002533:
002534: 00,3362           56155                           XCH      MPAC       +1                         #  ZERO - SHIFT LEFT 14 AGAIN.
002535: 00,3363           54154                           TS       MPAC
002536: 00,3364           34750                           CAF      SEVEN                                 #  AUGMENT RIGHT SHIFT COUNTER.
002537: 00,3365           26135                           ADS      MPTEMP
002538:
002539: 00,3366           10154                           CCS      MPAC
002540: 00,3367           13405                           TCF      SMPAC+
002541: 00,3370           00002                           TC       Q                                     #  SQRT(0) = 0.
002542: 00,3371           13376                           TCF      ZEROANS
002543: 00,3372           13453                           TCF      FIXROOT                               #  DO NOT LEAVE SQRTSUB WITH -0 IN MPAC.
002544:
002545: 00,3373           10000        SQRTNEG            CCS      A                                     #  ARGUMENT IS NEGATIVE, BUT SEE IF SIGN-
002546: 00,3374           13402                           TCF      SQRTABRT                              #  CORRECTED ARGUMENT IS LESS THAN 10(-4)
002547:
002548: 00,3375           10155                           CCS      MPAC       +1                         #  IN MAGNITUDE. IF SO, CALL ANSWER ZERO.
002549: 00,3376           34746        ZEROANS            CAF      ZERO                                  #  FORCE ANSWER TO ZERO HERE.
002550: 00,3377           13453                           TCF      FIXROOT
002551: 00,3400           13402                           TCF      SQRTABRT
002552: 00,3401           13453                           TCF      FIXROOT
002553:
002554: 00,3402           52165        SQRTABRT           DXCH     LOC
002555: 00,3403           05722                           TC       POODOO1
002556: 00,3404           21302                           OCT      21302
002557:
002558: 00,3405           62444        SMPAC+             AD       -1/2+2                                #  SEE IF ARGUMENT GREATER THAN OR EQUAL TO


002560: 00,3406           00006                           EXTEND                                         #  .5.
002561: 00,3407           63456                           BZMF     SRTEST                                #  IF SO, SEE IF LESS THAN .25.
002562:
002563: 00,3410           52155                           DXCH     MPAC                                  #  WE WILL TAKE THE SQUARE ROOT OF MPAC/2.
002564: 00,3411           22021                           LXCH     SR                                    #  SHIFT RIGHT 1 AND GO TO THE SQRT ROUTINE
002565: 00,3412           00006                           EXTEND
002566: 00,3413           74727                           MP       HALF
002567: 00,3414           52155                           DXCH     MPAC
002568: 00,3415           56021                           XCH      SR
002569: 00,3416           26155                           ADS      MPAC       +1                         #  GUARANTEED NO OVERFLOW.
002570:
002571: 00,3417           32314        ARGHI              CAF      SLOPEHI                               #  ARGUMENT BETWEEN .25 AND .5, GET A
002572: 00,3420           00006                           EXTEND                                         #  LINEAR APPROXIMATION FOR THIS RANGE.
002573: 00,3421           70154                           MP       MPAC
002574: 00,3422           62566                           AD       BIASHI                                #  X0/2 = (MPAC/2)(SLOPEHI) + BIASHI/2.
002575:
002576: 00,3423           54130                 +4        TS       BUF                                   #  X0/2 (ARGLO ENTERS HERE).
002577: 00,3424           30154                           CA       MPAC                                  #  SINGLE-PRECISION THROUGHOUT.
002578: 00,3425           22007                           ZL
002579: 00,3426           00006                           EXTEND
002580: 00,3427           10130                           DV       BUF                                   #  (MPAC/2)/(X0/2)
002581: 00,3430           00006                           EXTEND
002582: 00,3431           74727                           MP       HALF
002583: 00,3432           26130                           ADS      BUF                                   #  X1 = X0/2 + .5(MPAC/2)/(X0/2).
002584:
002585: 00,3433           00006                           EXTEND
002586: 00,3434           74727                           MP       HALF                                  #  FORM UP X1/2.
002587: 00,3435           52155                           DXCH     MPAC                                  #  SAVE AND BRING OUT ARGUMENT.
002588: 00,3436           00006                           EXTEND                                         #  TAKE DP QUOTIENT WITH X1.
002589: 00,3437           10130                           DV       BUF
002590: 00,3440           54131                           TS       BUF        +1                         #  SAVE MAJOR PART OF QUOTIENT.
002591: 00,3441           34746                           CAF      ZERO                                  #  FORM MINOR PART OF QUOTIENT USING
002592: 00,3442           56001                           XCH      L                                     #  (REMAINDER,0).
002593: 00,3443           00006                           EXTEND
002594: 00,3444           10130                           DV       BUF
002595: 00,3445           54001                           TS       L                                     #  IN PREPARATION FOR DAS.
002596: 00,3446           30131                           CA       BUF        +1
002597: 00,3447           20155                           DAS      MPAC                                  #  X2 = X1/2 + (MPAC/2)X1
002598:
002599: 00,3450           00006                           EXTEND                                         #  OVERFLOWS IF ARG. NEAR POSMAX.
002600: 00,3451           13455                           BZF      TCQBNK00
002601: 00,3452           34724                           CAF      POSMAX
002602: 00,3453           54154        FIXROOT            TS       MPAC
002603: 00,3454           54155                           TS       MPAC       +1
002604: 00,3455           00002        TCQBNK00           TC       Q                                     #  RETURN TO CALLER TO UNNORMALIZE, ETC.
002605:


002607: 00,3456           64730        SRTEST             AD       QUARTER                               #  ARGUMENT WAS LESS THAN .5, SEE IF LESS
002608: 00,3457           00006                           EXTEND                                         #  THAN .25.
002609: 00,3460           63502                           BZMF     SQRTNORM                              #  IF SO, BEGIN NORMALIZATION.
002610:
002611: 00,3461           52155                           DXCH     MPAC                                  #  IF BETWEEN .5 AND .25, SHIFT RIGHT 1 AND
002612: 00,3462           22021                           LXCH     SR                                    #  START AT ARGLO.
002613: 00,3463           00006                           EXTEND
002614: 00,3464           74727                           MP       HALF
002615: 00,3465           52155                           DXCH     MPAC
002616: 00,3466           56021                           XCH      SR
002617: 00,3467           26155                           ADS      MPAC       +1                         #  NO OVERFLOW.
002618:
002619: 00,3470           33007        ARGLO              CAF      SLOPELO                               #  (NORMALIZED) ARGUMENT BETWEEN .125 AND
002620: 00,3471           00006                           EXTEND                                         #  .25
002621: 00,3472           70154                           MP       MPAC
002622: 00,3473           62270                           AD       BIASLO
002623: 00,3474           13423                           TCF      ARGHI      +4                         #  BEGIN SQUARE ROOT.
002624:
002625: 00,3475           00006        SQRTNM2            EXTEND                                         #  SHIFT LEFT 2 AND INCREMENT RIGHT SHIFT
002626: 00,3476           30156                           DCA      MPAC       +1                         #  COUNT (FOR TERMINAL UNNORMALIZATION).
002627: 00,3477           20156                           DAS      MPAC       +1
002628: 00,3500           60154                           AD       MPAC
002629: 00,3501           26154                           ADS      MPAC                                  #  (NO OVERFLOW).
002630:
002631: 00,3502           24135        SQRTNORM           INCR     MPTEMP                                #  FIRST TIME THROUGH, JUST SHIFT LEFT 1
002632: 00,3503           00006                           EXTEND                                         #  (PUTS IN EFFECTIVE RIGHT SHIFT SINCE
002633: 00,3504           30156                           DCA      MPAC       +1                         #  WE WANT MPAC/2).
002634: 00,3505           20156                           DAS      MPAC       +1
002635: 00,3506           60154                           AD       MPAC
002636: 00,3507           26154                           ADS      MPAC                                  #  (AGAIN NO OVERFLOW).
002637: 00,3510           60000                           DOUBLE
002638: 00,3511           54022                           TS       CYL
002639:
002640: 00,3512           10022        NORMTEST           CCS      CYL                                   #  SEE IF ARGUMENT NOW NORMALIZED AT
002641: 00,3513           10022                           CCS      CYL                                   #  GREATER THAN .125.
002642: 00,3514           13475                           TCF      SQRTNM2                               #  NO - SHIFT LEFT 2 MORE AND TRY AGAIN.
002643: 00,3515           13417                           TCF      ARGHI                                 #  YES - NOW BETWEEN .5 AND .25.
002644: 00,3516           13470                           TCF      ARGLO                                 #  ARGUMENT NOW BETWEEN .25 AND .125.
002645:


002647:                                                                                                  #  TRIGONOMETRIC FUNCTION PACKAGE.
002648:
002649:                                                                                                  #           THE FOLLOWING TRIGONOMETRIC FUNCTIONS ARE AVAILABLE AS INTERPRETIVE OPERATIONS:
002650:
002651:                                                                                                  #           1.  SIN                COMPUTES (1/2)SINE(2 PI MPAC).
002652:                                                                                                  #           2.  COS                COMPUTES (1/2)COSINE(2 PI MPAC).
002653:
002654:                                                                                                  #           3.  ASIN               COMPUTES (1/2PI)ARCSINE(2 MPAC).
002655:                                                                                                  #           4.  ACOS               COMPUTES (1/2PI)ARCCOSINE(2 MPAC).
002656:
002657:                                                                                                  #  SIN-ASIN AND COS-ACOS ARE MUTUALLY INVERSE, IE SIN(ASIN(X)) = X.
002658:
002659: 00,3517           06744        COSINE             TC       BRANCH                                #  FINDS COSINE USING THE IDENTITY
002660: 00,3520           13523                           TCF      +3                                    #  COS(X) = SIN(PI/2 - ABS(X)).
002661: 00,3521           13526                           TCF      PRESINE
002662: 00,3522           13526                           TCF      PRESINE
002663:
002664: 00,3523           00006                 +3        EXTEND
002665: 00,3524           40155                           DCS      MPAC
002666: 00,3525           52155                           DXCH     MPAC
002667:
002668: 00,3526           34730        PRESINE            CAF      QUARTER                               #  PI/2 SCALED.
002669: 00,3527           26154                           ADS      MPAC
002670:
002671:
002672: 00,3530           52155        SINE               DXCH     MPAC                                  #  DOUBLE ARGUMENT.
002673: 00,3531           20001                           DDOUBL
002674: 00,3532           54000                           OVSK                                           #  SEE IF OVERFLOW PRESENT.
002675: 00,3533           13536                           TCF      +3                                    #  IF NOT, ARGUMENT OK AS IS.
002676:
002677: 00,3534           00006                           EXTEND                                         #  IF SO, WE LOST (OR GAINED) PI, SO
002678: 00,3535           40001                           DCOM                                           #  COMPLEMENT MPAC USING THE IDENTITY
002679:                                                                                                  #  SIN(X-(+)PI) = SIN(-X).
002680: 00,3536           52155                 +3        DXCH     MPAC
002681: 00,3537           30154                           CA       MPAC                                  #  SEE IF ARGUMENT GREATER THAN .5 IN
002682: 00,3540           60000                           DOUBLE                                         #  MAGNITUDE. IF SO, REDUCE IT TO LESS THAN
002683: 00,3541           54001                           TS       L                                     #  .5 (+-PI/2 SCALED) AS FOLLOWS:
002684: 00,3542           13553                           TCF      SN1
002685:
002686: 00,3543           50000                           INDEX    A                                     #  IF POSITIVE, FORM PI - X, IF NEGATIVE
002687: 00,3544           34726                           CAF      NEG1/2     +1                         #  USE -PI - X.
002688: 00,3545           60000                           DOUBLE
002689: 00,3546           00006                           EXTEND
002690: 00,3547           60154                           SU       MPAC                                  #  GUARANTEED NO OVERFLOW.
002691: 00,3550           54154                           TS       MPAC
002692: 00,3551           40155                           CS       MPAC       +1
002693: 00,3552           54155                           TS       MPAC       +1
002694:


002696: 00,3553           00006        SN1                EXTEND                                         #  SET UP TO EVALUATE HASTINGS POLYNOMIAL
002697: 00,3554           30155                           DCA      MPAC
002698: 00,3555           52134                           DXCH     BUF2
002699: 00,3556           03300                           TC       DSQSUB                                #  SQUARE MPAC.
002700:
002701: 00,3557           07243                           TC       POLY                                  #  EVALUATE FOURTH ORDER POLYNOMIAL.
002702: 00,3560           00003                           DEC      3          B-14
002703: 00,3561           14441 37325                     2DEC     +.3926990796
002704:
002705: 00,3563           53250 60764                     2DEC     -.6459637111
002706:
002707: 00,3565           12146 21276                     2DEC     +.318758717
002708:
002709: 00,3567           75466 71471                     2DEC     -.074780249
002710:
002711: 00,3571           00236 32757                     2DEC     +.009694988
002712:
002713:
002714: 00,3573           32470                           CAF      LBUF2                                 #  MULTIPLY BY ARGUMENT AND SHIFT LEFT 2.
002715: 00,3574           07127                           TC       DMPSUB     -1
002716:
002717: 00,3575           00006                           EXTEND
002718: 00,3576           30156                           DCA      MPAC       +1
002719: 00,3577           20156                           DAS      MPAC       +1
002720: 00,3600           60154                           AD       MPAC
002721: 00,3601           26154                           ADS      MPAC                                  #  NEITHER SHIFT OVERFLOWS.
002722: 00,3602           00006                           EXTEND
002723: 00,3603           30156                           DCA      MPAC       +1
002724: 00,3604           20156                           DAS      MPAC       +1
002725: 00,3605           60154                           AD       MPAC
002726: 00,3606           26154                           ADS      MPAC
002727: 00,3607           16102                           TCF      DANZIG
002728:


002730:                                                                                                  #           ARCSIN/ARCCOS ROUTINE.
002731:
002732: 00,3610           33631        ARCSIN             CAF      LASINEX                               #  COMPUTE ARCSIN BY USING THE IDENTITY
002733: 00,3611           13613                           TCF      +2                                    #  ARCSIN(X) = PI/2 - ARCCOS(X).
002734:
002735: 00,3612           33713        ARCCOS             CAF      LDANZIG                               #  (EXITS IMMEDIATELY).
002736: 00,3613           54136                           TS       ESCAPE
002737: 00,3614           06744                           TC       BRANCH                                #  TEST SIGN OF INPUT.
002738: 00,3615           13625                           TCF      ACOSST                                #  START IMMEDIATELY IF POSITIVE.
002739: 00,3616           13731                           TCF      ACOSZERO                              #  ARCCOS(0) = PI/2 = .25.
002740: 00,3617           00006                           EXTEND                                         #  IF NEGATIVE, USE THE IDENTITY
002741: 00,3620           40155                           DCS      MPAC                                  #  ARCCOS(X) = PI - ARCCOS(-X), FORCING
002742: 00,3621           52155                           DXCH     MPAC                                  #  ARGUMENT POSITIVE.
002743: 00,3622           33734                           CAF      TCSUBTR                               #  SET EXIT  TO DO ABOVE BEFROE
002744: 00,3623           56136                           XCH      ESCAPE                                #  ARCSIN/ARCCOS CONSIDERATIONS.
002745: 00,3624           54137                           TS       ESCAPE2
002746:
002747: 00,3625           44727        ACOSST             CS       HALF                                  #  TEST MAGNITUDE OF INPUT.
002748: 00,3626           60154                           AD       MPAC
002749: 00,3627           10000                           CCS      A
002750: 00,3630           13721                           TCF      ACOSOVF                               #  THIS IS PROBABLY AN OVERFLOW CASE.
002751:
002752: 00,3631           13707        LASINEX            TCF      ASINEX
002753:
002754: 00,3632           13642                           TCF      ACOSST2                               #  NO OVERFLOW - PROCEED.
002755:
002756: 00,3633           10155                           CCS      MPAC       +1                         #  IF MAJOR PART IS .5, CALL ANSWER 0
002757: 00,3634           34746                           CAF      ZERO                                  #  UNLESS MINOR PART NEGATIVE.
002758: 00,3635           13637                           TCF      ACOS=0
002759:
002760: 00,3636           13642                           TCF      ACOSST2
002761:
002762: 00,3637           54155        ACOS=0             TS       MPAC       +1
002763: 00,3640           54154                           TS       MPAC
002764: 00,3641           00136                           TC       ESCAPE
002765:
002766: 00,3642           00006        ACOSST2            EXTEND                                         #  NOW THAT ARGUMENT IS IN PROPER RANGE,
002767: 00,3643           40155                           DCS      MPAC                                  #  BEGIN COMPUTATION. USE HASTINGS
002768: 00,3644           64727                           AD       HALF                                  #  APPROXIMATION ARCCOS(X) = SQRT(1-X)P(X)
002769: 00,3645           52155                           DXCH     MPAC                                  #  IN A SCALED VERSION WHERE P(X) IS A
002770: 00,3646           52134                           DXCH     BUF2                                  #  SEVENTH ORDER POLYNOMIAL.
002771:
002772: 00,3647           03343                           TC       SQRTSUB                               #  RETURNS WITH NORMALIZED SQUARE ROOT.
002773:
002774: 00,3650           10135                           CCS      MPTEMP                                #  SEE IF UN-NORMALIZATION REQUIRED.
002775: 00,3651           13714                           TCF      ACOSSHR                               #  IF SO.
002776:


002778: 00,3652           52155        ACOS3              DXCH     MPAC                                  #  SET UP FOR POLYNOMIAL EVALUATION.
002779: 00,3653           52134                           DXCH     BUF2
002780: 00,3654           52155                           DXCH     MPAC
002781:
002782: 00,3655           07243                           TC       POLY
002783: 00,3656           00006                           DEC      6          B-14
002784: 00,3657           13240 23630                     2DEC     +.353553385                            #  COEFFICIENTS ARE C 2(+I)/PISQRT(2) WHERE
002785:
002786: 00,3661           74721 47775                     2DEC*    -.0483017006 B+1*                       #                    I
002787:
002788: 00,3663           02440 20237                     2DEC*    +.0200273085 B+2*                       #       WHERE C STANDS FOR ORIGINAL COEFFS.
002789:
002790: 00,3665           75067 70742                     2DEC*    -.0112931863 B+3*
002791:
002792: 00,3667           03436 26756                     2DEC*    +.00695311612 B+4*
002793:
002794: 00,3671           74037 57640                     2DEC*    -.00384617957 B+5*
002795:
002796: 00,3673           03046 07143                     2DEC*    +.001501297736 B+6*
002797:
002798: 00,3675           76654 42244                     2DEC*    -.000284160334 B+7*
002799:
002800:
002801: 00,3677           32470                           CAF      LBUF2                                 #  DO FINAL MULTIPLY AND GO TO ANY
002802: 00,3700           07127                           TC       DMPSUB     -1                         #  EPILOGUE SEQUENCES.
002803: 00,3701           00136                           TC       ESCAPE
002804:
002805: 00,3702           00006        SUBTR              EXTEND                                         #  EPILOGUE FOR NEGATIVE INPUTS TO ARCCOS.
002806: 00,3703           40155                           DCS      MPAC
002807: 00,3704           64727                           AD       HALF                                  #  FORMS PI - ARCCOS(-X) = ARCCOS(X).
002808: 00,3705           52155                           DXCH     MPAC
002809: 00,3706           00137                           TC       ESCAPE2                               #  GO TO POSSIBLE ARCSIN EPILOGUE.
002810:
002811: 00,3707           00006        ASINEX             EXTEND
002812: 00,3710           40155                           DCS      MPAC                                  #  ARCSIN EPILOGUE - GET ARCSIN(X)
002813: 00,3711           64730                           AD       QUARTER                               #  = PI/2 - ARCCOS(X).
002814: 00,3712           52155                           DXCH     MPAC
002815: 00,3713           16102        LDANZIG            TCF      DANZIG
002816:


002818: 00,3714           50000        ACOSSHR            INDEX    A                                     #  THE SHIFT RIGHT IS LESS THAN 14 SINCE
002819: 00,3715           34727                           CAF      BIT14                                 #  THE INPUT WAS NON-ZERO DP.
002820: 00,3716           54135                           TS       MPTEMP
002821: 00,3717           02073                           TC       VSHRRND                               #  DP SHIFT RIGHT AND ROUND.
002822: 00,3720           13652                           TCF      ACOS3                                 #  PROCEED.
002823:
002824: 00,3721           00006        ACOSOVF            EXTEND                                         #  IF MAJOR PART WAS ONLY 1 MORE THAN .5,
002825: 00,3722           13637                           BZF      ACOS=0                                #  CALL ANSWER ZERO.
002826:
002827: 00,3723           00006        ACOSABRT           EXTEND                                         #  IF OVERFLOW, CALL ANSWER ZERO BUT
002828: 00,3724           30165                           DCA      LOC                                   #  SOUND AN ALARM.
002829: 00,3725           05726                           TC       ALARM1
002830: 00,3726           01301                           OCT      1301
002831:
002832: 00,3727           34746                           CAF      ZERO
002833: 00,3730           13637                           TCF      ACOS=0
002834:
002835: 00,3731           34730        ACOSZERO           CAF      QUARTER                               #  ACOS(0) = PI/2.
002836: 00,3732           13640                           TCF      ACOS=0     +1                         #  SET MPAC AND EXIT VIA ESCAPE.
002837:
002838: 00,3733           77763        NEG12              DEC      -12        B-14
002839: 00,3734           13702        TCSUBTR            TCF      SUBTR
002840:


002842:                                                                                                  #           THE FOLLOWING INSTRUCTIONS ARE AVAILABLE FOR SETTING, MODIFYING, AND BRANCHING ON INDEX REGISTERS:
002843:
002844:                                                                                                  #           1.  AXT                ADDRESS TO INDEX TRUE.
002845:                                                                                                  #           2.  AXC                ADDRESS TO INDEX COMPLEMENTED.
002846:                                                                                                  #           3.  LXA                LOAD INDEX FROM ERASABLE.
002847:                                                                                                  #           4.  LXC                LOAD INDEX COMPLEMENTED FROM ERASABLE.
002848:                                                                                                  #           5.  SCA                STORE INDEX IN ERASABLE.
002849:                                                                                                  #           6.  XCHX               EXCHANGE INDEX REGISTER WITH ERASABLE.
002850:
002851:                                                                                                  #           7.  INCR               INCREMENT INDEX REGISTER.
002852:                                                                                                  #           8.  XAD                ERASABLE ADD TO INDEX REGISTER.
002853:                                                                                                  #           9.  XSU                ERASABLE SUBTRACT FROM INDEX REGISTER.
002854:
002855:                                                                                                  #          10.  TIX                BRANCH ON INDEX REGISTER AND DECREMENT.
002856:
002857: 01,2350                                           BANK     01
002858:
002859: 01,2350                                           COUNT*   $$/INTER
002860: 01,2350           02445        AXT                TC       TAGSUB                                #  SELECT APPROPRIATE INDEX REGISTER.
002861: 01,2351           30117                           CA       POLISH
002862: 01,2352           50130        XSTORE             INDEX    INDEXLOC                              #  CONTAINS C(FIXLOC) OR C(FIXLOC)+1
002863: 01,2353           54046                           TS       X1
002864: 01,2354           16102                           TCF      DANZIG
002865:
002866: 01,2355           02445        AXC                TC       TAGSUB
002867: 01,2356           40117                           CS       POLISH
002868: 01,2357           02352                           TC       XSTORE
002869:
002870: 01,2360           02433        LXA                TC       15ADRERS                              #  LOAD INDEX REGISTER FROM ERASABLE.
002871: 01,2361           50117                           INDEX    POLISH
002872: 01,2362           30000                           CA       0
002873: 01,2363           12352                           TCF      XSTORE
002874:
002875: 01,2364           02433        LXC                TC       15ADRERS                              #  LOAD NDX REG FROM ERASABLE COMPLEMENTED.
002876: 01,2365           50117                           INDEX    POLISH
002877: 01,2366           40000                           CS       0
002878: 01,2367           12352                           TCF      XSTORE
002879:
002880: 01,2370           02433        SXA                TC       15ADRERS                              #  STORE INDEX REGISTER IN ERASABLE.
002881: 01,2371           50130                           INDEX    INDEXLOC
002882: 01,2372           30046                           CA       X1
002883: 01,2373           50117        MSTORE1            INDEX    POLISH
002884: 01,2374           54000                           TS       0
002885: 01,2375           16102                           TCF      DANZIG
002886:


002888: 01,2376           02433        XCHX               TC       15ADRERS                              #  EXCHANGE INDEX REGISTER WITH ERASABLE.
002889: 01,2377           50117                           INDEX    POLISH
002890: 01,2400           30000                           CA       0
002891: 01,2401           50130                           INDEX    INDEXLOC
002892: 01,2402           56046                           XCH      X1
002893: 01,2403           12373                           TCF      MSTORE1
002894:
002895: 01,2404           02433        XAD                TC       15ADRERS                              #  ADD ERASABLE TO INDEX REGISTER.
002896: 01,2405           50117                           INDEX    POLISH
002897: 01,2406           30000                           CA       0
002898: 01,2407           50130        XAD2               INDEX    INDEXLOC
002899: 01,2410           26046                           ADS      X1                                    #  IGNORING OVERFLOWS.
002900: 01,2411           16102                           TCF      DANZIG
002901:
002902: 01,2412           02445        INCR               TC       TAGSUB                                #  INCREMENT INDEX REGISTER.
002903: 01,2413           30117                           CA       POLISH
002904: 01,2414           12407                           TCF      XAD2
002905:
002906: 01,2415           02433        XSU                TC       15ADRERS                              #  SUBTRACT ERASABLE FROM INDEX REGISTER.
002907: 01,2416           50117                           INDEX    POLISH
002908: 01,2417           40000                           CS       0
002909: 01,2420           12407                           TCF      XAD2
002910:
002911: 01,2421           02445        TIX                TC       TAGSUB                                #  BRANCH AND DECREMENT ON INDEX.
002912: 01,2422           50130                           INDEX    INDEXLOC
002913: 01,2423           40050                           CS       S1
002914: 01,2424           50130                           INDEX    INDEXLOC
002915: 01,2425           60046                           AD       X1
002916: 01,2426           00006                           EXTEND                                         #  NO OPERATION IF DECREMENTED INDEX IS
002917: 01,2427           66102                           BZMF     DANZIG                                #  NEGATIVE OR ZERO.
002918:
002919: 01,2430           50130        DOTIXBR            INDEX    INDEXLOC
002920: 01,2431           56046                           XCH      X1                                    #  IGNORING OVERFLOWS.
002921:
002922: 01,2432           16667                           TCF      GOTO                                  #  DO THE BRANCH USING THE CADR IN POLISH.
002923:


002925:                                                                                                  #           SUBROUTINE TO CONVERT AN ERASABLE ADDRESS (11 BITS) TO AN EBANK SETTING AND SUBADDRESS.
002926:
002927: 01,2433           40117        15ADRERS           CS       POLISH
002928: 01,2434           64763                           AD       DEC45
002929: 01,2435           10000                           CCS      A                                     #  DOES THE ADDRESS POINT TO THE WORK AREA?
002930: 01,2436           30120                           CA       FIXLOC                                #  YES.  ADD FIXLOC.  EBANK OK AS IS.
002931: 01,2437           12444                           TCF      +5
002932:
002933: 01,2440           35000                           CA       OCT1400                               #  NO.  SET EBANK & MAKE UP SUBADDRESS.
002934: 01,2441           56117                           XCH      POLISH
002935: 01,2442           54003                           TS       EBANK
002936: 01,2443           74350                           MASK     LOW8
002937: 01,2444           26117                 +5        ADS      POLISH                                #  FALL INTO TAGSUB, AND RETURN VIA Q.
002938:
002939:                                                                                                  #           SUBROUTINE WHICH SETS THE ADDRESS OF THE SPECIFIED INDEX IN INDEXLOC. (ACTUALLY, THE ADDRESS -38D.)
002940:
002941: 01,2445           30120        TAGSUB             CA       FIXLOC
002942: 01,2446           54130                           TS       INDEXLOC
002943:
002944: 01,2447           10020                           CCS      CYR                                   #  BIT 15 SPECIFIES INDEX.
002945: 01,2450           24130                           INCR     INDEXLOC                              #  0 MEANS USE X2.
002946: 01,2451           00002                           TC       Q
002947: 01,2452           00002                           TC       Q                                     #  1 FOR X1.
002948:


002950:                                                                                                  #           MISCELLANEOUS OPERATION CODES WITH DIRECT ADDRESSES. INCLUDED HERE ARE:
002951:
002952:                                                                                                  #           1.  ITA                STORE QPRET (RETURN ADDRESS) IN ERASABLE.
002953:                                                                                                  #           2.  CALL               CALL A SUBROUTINE, LEAVING RETURN IN QPRET.
002954:                                                                                                  #           3.  RTB                RETURN TO BASIC LANGUAGE AT THE GIVEN ADDRESS.
002955:                                                                                                  #           4.  BHIZ               BRANCH IF THE HIGH ORDER OF MPAC IS ZERO (SINGLE PRECISION).
002956:                                                                                                  #           5.  BOV                BRANCH ON OVERFLOW.
002957:                                                                                                  #           6.  GOTO               SIMPLE SEQUENCE CHANGE.
002958:
002959: 01,2453           10020        RTB/BHIZ           CCS      CYR
002960: 01,2454           30117        RTB                CA       POLISH
002961: 01,2455           04612                           TC       SWCALL     -1                         #  SO A "TC Q" FROM ROUTINE LEADS TO DANZIG
002962:
002963: 01,2456           10154        BHIZ               CCS      MPAC
002964: 01,2457           16102                           TCF      DANZIG
002965: 01,2460           16667                           TCF      GOTO
002966: 01,2461           16102                           TCF      DANZIG
002967: 01,2462           16667                           TCF      GOTO
002968:
002969: 01,2463           10121        BOV(B)             CCS      OVFIND                                #  BRANCH ON OVERFLOW TO BASIC OR INTERP.
002970: 01,2464           12466                           TCF      +2
002971: 01,2465           16102                           TCF      DANZIG
002972: 01,2466           54121                           TS       OVFIND
002973: 01,2467           10020                           CCS      CYR
002974: 01,2470           12454                           TCF      RTB                                   #  IF BASIC.
002975: 01,2471           00360        B5TOBB             OCT      360
002976: 01,2472           16667                           TCF      GOTO
002977:


002979: 01,2473           10020        BZE/GOTO           CCS      CYR                                   #  SEE WHICH OP-CODE IS DESIRED.
002980: 01,2474           06744                           TC       BRANCH                                #  DO BZE.
002981: 01,2475           16102                           TCF      DANZIG
002982: 01,2476           16667                           TCF      GOTO                                  #  DO GOTO.
002983: 01,2477           16102                           TCF      DANZIG
002984:
002985: 01,2500           10020        BPL/BMN            CCS      CYR
002986: 01,2501           12507                           TCF      BPL
002987: 01,2502           12000        5B10               DEC      5          B+10                       #  SHIFTS OP CODE IN SWITCH INSTRUCTION ADR
002988:
002989: 01,2503           06744                           TC       BRANCH                                #  DO BMN.
002990: 01,2504           16102                           TCF      DANZIG
002991: 01,2505           16102                           TCF      DANZIG
002992: 01,2506           16667                           TCF      GOTO                                  #  ONLY IF NNZ.
002993:
002994: 01,2507           06744        BPL                TC       BRANCH
002995: 01,2510           16667                           TCF      GOTO                                  #  IF POSITIVE OR ZERO.
002996: 01,2511           16667                           TCF      GOTO
002997: 01,2512           16102                           TCF      DANZIG
002998:
002999: 01,2513           10020        CALL/ITA           CCS      CYR
003000: 01,2514           16661                           TCF      CALL
003001:
003002: 01,2515           05701                           TC       CCSHOLE
003003: 01,2516           02433                           TC       15ADRERS                              #  STORE QPRET. (TAGSUB AFTER 15ADRERS IS
003004: 01,2517           50120                           INDEX    FIXLOC                                #  SLOW IN THIS CASE, BUT SAVES STORAGE.)
003005: 01,2520           30052                           CA       QPRET
003006: 01,2521           12373                           TCF      MSTORE1
003007:


003009:                                                                                                  #           THE FOLLOWING OPERATIONS ARE AVAILABLE FOR ALTERING AND TESTING INTERPRETIVE SWITCHES:
003010:
003011:                                                                                                  #   00      BONSET                 SET A SWITCH AND DO A GOTO IF IT WAS ON.
003012:                                                                                                  #   01      SETGO                  SET A SWITCH AND DO A GOTO.
003013:                                                                                                  #   02      BOFSET                 SET A SWITCH AND DO A GOTO IF IT WAS OFF
003014:                                                                                                  #   03      SET                    SET A SWITCH.
003015:
003016:                                                                                                  #   04      BONINV                 INVERT A SWITCH AND BRANCH IF IT WAS ON.
003017:                                                                                                  #   05      INVGO                  INVERT A SWITCH AND DO A GOTO.
003018:                                                                                                  #   06      BOFINV                 INVERT A SWITCH AND BRANCH IF IT WAS OFF
003019:                                                                                                  #   07      INVERT                 INVERT A SWITCH.
003020:
003021:                                                                                                  #   10      BONCLR                 CLEAR A SWITCH AND BRANCH IF IT WAS ON.
003022:                                                                                                  #   11      CLRGO                  CLEAR A SWITCH AND DO A GOTO.
003023:                                                                                                  #   12      BOFCLR                 CLEAR A SWITCH AND BRANCH IF IT WAS OFF.
003024:                                                                                                  #   13      CLEAR                  CLEAR A SWITCH.
003025:
003026:                                                                                                  #   14      BON                    BRANCH IF A SWITCH WAS ON.
003027:                                                                                                  #   16      BOFF                   BRANCH IF A SWITCH WAS OFF.
003028:
003029:
003030:                                                                                                  #           THE ADDRESS SUPPLIED WITH THE SWITCH INSTRUCTION IS INTERPRETED AS FOLLOWS:
003031:
003032:                                                                                                  #           BITS 1-4    SWITCH BIT NUMBER (1-15).
003033:                                                                                                  #           BITS 5-8    SWITCH OPERATION NUMBER.
003034:                                                                                                  #           BITS 9-     SWITCH WORD NUMBER (UP TO 64 SWITCH WORDS).
003035:
003036:                                                                                                  #           THE ADDRESS ITSELF IS MADE UP BY THE YUL SYSTEM ASSEMBLER. THE BRANCH INSTRUCTIONS REQUIRE TWO
003037:                                                                                                  #  ADDRESSES, THE SECOND TAKEN AS THE DIRECT (OR INDIRECT IF IN ERASABLE) ADDRESS OF THE BRANCH.
003038:
003039:
003040: 01,2522           34753        SWITCHES           CAF      LOW4                                  #  LEAVE THE SWITCH BIT IN  SWBIT  .
003041: 01,2523           70117                           MASK     POLISH
003042: 01,2524           50000                           INDEX    A
003043: 01,2525           34726                           CAF      BIT15                                 #  (NUMBER FROM LEFT TO RIGHT.)
003044: 01,2526           54131                           TS       SWBIT
003045:
003046: 01,2527           34736                           CAF      BIT7                                  #  LEAVE THE SWITCH NUMBER IN SWWORD.
003047: 01,2530           00006                           EXTEND
003048: 01,2531           70117                           MP       POLISH
003049: 01,2532           54130                           TS       SWWORD
003050:
003051: 01,2533           00004                           INHINT                                         #  DURING SWITCH CHANGE SO RUPT CAN USE TOO
003052: 01,2534           50000                           INDEX    A                                     #  LEAVE THE SWITCH WORD ITSELF IN L.
003053: 01,2535           30074                           CA       STATE
003054: 01,2536           54002                           TS       Q                                     #  Q WILL BE USED AS A CHANNEL.


003056: 01,2537           34732                           CAF      BIT11
003057: 01,2540           00006                           EXTEND                                         #  DISPATCH SWITCH BIT OPERATION AS IN BITS
003058: 01,2541           70117                           MP       POLISH                                #  7-8 OF POLISH.
003059: 01,2542           72602                           MASK     B3TOB4                                #  GETS 4X2-BIT CODE.
003060: 01,2543           50000                           INDEX    A
003061: 01,2544           12545                           TCF      +1
003062:
003063: 01,2545           30131                 +1        CA       SWBIT                                 #  00 - SET SWITCH IN QUESTION.
003064: 01,2546           00006                           EXTEND
003065: 01,2547           04002                           ROR      QCHAN
003066: 01,2550           12557                           TCF      SWSTORE
003067:
003068: 01,2551           30131                 +5        CA       SWBIT                                 #  01 - INVERT SWITCH.
003069: 01,2552           00006                           EXTEND
003070: 01,2553           06002                           RXOR     QCHAN
003071: 01,2554           12557                           TCF      SWSTORE
003072:
003073: 01,2555           40131                 +9D       CS       SWBIT                                 #  10 - CLEAR.
003074: 01,2556           70002                           MASK     Q
003075: 01,2557           50130        SWSTORE            INDEX    SWWORD
003076: 01,2560           54074                           TS       STATE                                 #  NEW SWITCH WORD.
003077:


003079: 01,2561           00003                 +13D      RELINT                                         #  11 - NOOP.
003080: 01,2562           34730                           CAF      BIT13
003081: 01,2563           00006                           EXTEND                                         #  DISPATCH SEQUENCE CHANGING OR BRANCING
003082: 01,2564           70117                           MP       POLISH                                #  CODE.
003083: 01,2565           72602                           MASK     B3TOB4
003084: 01,2566           50000                           INDEX    A
003085: 01,2567           12570                           TCF      +1                                    #  ORIGINALLY STORED IN BITS 5-6.
003086:
003087: 01,2570           40002                 +1        CS       Q                                     #  00 - BRANCH IF ON.
003088: 01,2571           70131        TEST               MASK     SWBIT
003089: 01,2572           10000                           CCS      A
003090: 01,2573           12603                           TCF      SWSKIP
003091:
003092: 01,2574           16736                 +5        TCF      SWBRANCH                              #  01 - GO TO.
003093:
003094: 01,2575           12603                           TCF      SWSKIP                                #  HERE ONLY ON BIT 15.
003095:
003096: 01,2576           05701                           TC       CCSHOLE
003097: 01,2577           05701                           TC       CCSHOLE
003098:
003099: 01,2600           30002                 +9D       CA       Q                                     #  10 - BRANCH IF OFF.
003100: 01,2601           12571                           TCF      TEST
003101:
003102: 01,2602           00014        B3TOB4             OCT      0014
003103: 01,2603           24164        SWSKIP             INCR     LOC
003104:
003105: 01,2604  01,2522               SW/                EQUALS   SWITCHES
003106:
003107: 01,2604           16102                 +13D      TCF      DANZIG                                #  11 - NOOP.

End of include-file INTERPRETER.agc.  Parent file is MAIN.agc


