
Source Code


000002:                                                                                                  ## Copyright:   Public domain.
000003:                                                                                                  ## Filename:    INTEGRATION_INITIALIZATION.agc
000004:                                                                                                  ## Purpose:     A section of Luminary revision 210.
000005:                                                                                                  ##              It is part of the source code for the Lunar Module's (LM)
000006:                                                                                                  ##              Apollo Guidance Computer (AGC) for Apollo 15-17.
000007:                                                                                                  ##              This file is intended to be a faithful transcription, except
000008:                                                                                                  ##              that the code format has been changed to conform to the
000009:                                                                                                  ##              requirements of the yaYUL assembler rather than the
000010:                                                                                                  ##              original YUL assembler.
000011:                                                                                                  ## Reference:   pp. 1202-1224
000012:                                                                                                  ## Assembler:   yaYUL
000013:                                                                                                  ## Contact:     Ron Burkey <info@sandroid.org>.
000014:                                                                                                  ## Website:     www.ibiblio.org/apollo/index.html
000015:                                                                                                  ## Mod history: 2016-11-17 JL   Created from Luminary131 version.
000016:                                                                                                  ##              2016-12-1x HG   Transcribed
000017:                                                                                                  ##              2016-12-26 RSB  Comment-text proofed using ProoferComments
000018:                                                                                                  ##                              and corrected errors found.
000019:


000021:                                                                                                  #  1.0 INTRODUCTION
000022:                                                                                                  #  ----------------
000023:
000024:                                                                                                  #  FROM A USERS POINT OF VIEW, ORBITAL INTEGRATION IS ESSENTIALLY THE SAME AS THE 278 INTEGRATION
000025:                                                                                                  #  PROGRAM. THE SAME ENTRANCES TO THE PROGRAM WILL BE MAINTAINED, THE SAME STALLING ROUTINE WILL BE USED AND
000026:                                                                                                  #  OUTPUT WILL STILL BE VIA THE PUSHLIST. THE PRIMARY DIFFERENCES TO A USER INVOLVE THE ADDED CAPABILITY OF
000027:                                                                                                  #  TERMINATING INTEGRATION AT A SPECIFIC FINAL RADIUS AND THE DIFFERENCE IN STATE VECTOR SCALING INSIDE AND OUT-
000028:                                                                                                  #  SIDE THE LUNAR SPHERE OF INFLUENCE.
000029:
000030:                                                                                                  #  IN ORDER TO MAKE THE CSM(LEM)PREC AND CSM(LEM)CONIC ENTRANCES SIMILAR TO FLIGHT 278, THE INTEGRATION PROGRAM
000031:                                                                                                  #  WILL ITSELF SET THE FINAL RADIUS (RFINAL) TO 0 SO THAT REACHING THE DESIRED TIME ONLY WILL TERMINATE
000032:                                                                                                  #  INTEGRATION. THE DP REGISTER RFINAL MUST BE SET BY USERS OF INTEGRVS AND INTEGRV, AND MUST BE DONE AFTER THE
000033:                                                                                                  #  CALL TC INTSTALL.
000034:
000035:                                                                                                  #  WHEN THE LM IS ON THE LUNAR SURFACE (INDICATED BY LUNAR SURFACE FLAG SET) CALLS TO LEMCONIC, LEMPREC, AND
000036:                                                                                                  #  INTEGRV WITH VINFLAG = 0 WILL RESULT IN THE USE OF THE PLANETARY INERTIAL ORIENTATION SUBROUTINES TO PROVIDE
000037:                                                                                                  #  BOTH THE LMS POSITION AND VELOCITY IN THE REFERENCE COORDINATE  SYSTEM.
000038:                                                                                                  #  THE PROGRAM WILL PROVIDE OUTPUT AS IF INTEGRATION WAS USED. THAT IS, THE PUSHLIST WILL BE SET AS NOTED BELOW AND
000039:                                                                                                  #  THE PERMANENT STATE VECTOR UPDATED WHEN SPECIFIED BY AN INTEGRV CALL.
000040:
000041:                                                                                                  #  USERS OF INTEGRVS DESIRING INTEGRATION (INTYPFLG = 0) SHOULD NOTE THAT THE OBLATENESS PERTURBATION COMPUTATION
000042:                                                                                                  #  IN LUNAR ORBIT IS TIME DEPENDENT. THEREFORE, THE USER SHOULD SUPPLY AN INITIAL STATE VECTOR VALID AT SOME REAL
000043:                                                                                                  #  TIME AND THE DESIRED TIME (TDEC1) ALSO AT SOME REAL TIME. FOR CONIC ,,INTEGRATION,, THE USER MAY STILL USE ZERO
000044:                                                                                                  #  AS THE INITIAL TIME AND DELTA TIME AS THE DESIRED TIME.
000045:
000046:                                                                                                  #  2.0 GENERAL DESCRIPTION
000047:                                                                                                  #  -----------------------
000048:
000049:                                                                                                  #  THE INTEGRATION PROGRAM OPERATES AS A CLOSED INTERPRETIVE SUBROUTINE AND PERFORMS THESE FUNCTIONS---
000050:                                                                                                  #     1) INTEGRATES (PRECISION OR CONIC) EITHER CSM OR LM STATE VECTOR
000051:                                                                                                  #     2) INTEGRATES THE W-MATRIX
000052:                                                                                                  #     3) PERMANENT OR TEMPORARY UPDATE OF THE STATE VECTOR
000053:
000054:                                                                                                  #  THERE ARE SIX ENTRANCES TO THE INTEGRATION PROGRAM. FOUR OF THESE (CSMPREC, LEMPREC, CSMCONIC, LEMCONIC) SET
000055:                                                                                                  #  ALL THE FLAGS REQUIRED IN THE INTEGRATION PROGRAM ITSELF TO CAUSE THE PRECISION OR CONIC INTEGRATION (KEPLER) OF
000056:                                                                                                  #  THE LM OR CSM STATE VECTOR, AS THE NAMES SUGGEST. ONE ENTRANCE (INTEGRVS) PERMITS THE CALLING PROGRAM TO
000057:                                                                                                  #  PROVIDE A STATE VECTOR TO BE INTEGRATED. THE CALLING PROGRAM MUST SET THE FLAGS INDICATING (1) PRECISION OR
000058:                                                                                                  #  CONIC INTEGRATION, (2) IN OR OUT OF LUNAR SPHERE, (3) MIDCOURSE OR NOT, AND THE INTEGRATION PROGRAM COMPLETES
000059:                                                                                                  #  THE FLAG SETTING TO BYPASS W-MATRIX INTEGRATION. THE LAST ENTRANCE (INTEGRV, USED IN GENERAL BY THE
000060:                                                                                                  #  NAVIGATION PROGRAMS) PERMITS THE CALLER TO SET FIVE FLAGS (NOT MOONFLAG OR MIDFLAG) BUT NOT TO INPUT A STATE
000061:                                                                                                  #  VECTOR. ANY PROGRAM WHICH CALLS INTEGRVS OR INTEGRV MUST CALL INTSTALL BEFORE IT SETS THE INTEGRATION FLAGS
000062:                                                                                                  #  AND/OR STATE VECTOR.
000063:
000064:                                                                                                  #  THREE SETS OF 42 REGISTERS AND 2 FLAGS ARE USED FOR THE STATE VECTORS. TWO SETS, WHICH MAY NOT BE OVERLAYED, ARE
000065:                                                                                                  #  USED FOR THE PERMANENT STATE VECTORS FOR THE CSM AND LM. THE THIRD SET, WHICH MAY BE OVERLAYED WHEN INTEGRATION
000066:                                                                                                  #  IS NOT BEING DONE, IS USED IN THE COMPUTATIONS.
000067:
000068:                                                                                                  #  THE PERMANENT STATE VECTORS WILL BE PERIODICALLY UPDATED SO THAT THE VECTORS WILL NOT BE OLDER THAN 4 TIMESTEPS.
000069:                                                                                                  #  THE PERMANENT STATE VECTORS WILL ALSO BE UPDATED WHENEVER THE W-MATRIX IS INTEGRATED OR WHEN A CALLER OF INTEGRV
000070:                                                                                                  #  SETS STATEFLG (THE NAVIGATION PROGRAMS P20, P22.)
000071:


000073:                                                                                                  #  APPENDIX B OF THE USERS GUIDE LISTS THE STATE VECTOR QUANTITIES.
000074:
000075:                                                                                                  #  2.1 RESTARTS
000076:
000077:                                                                                                  #  PHASE CHANGES WILL BE MADE IN THE INTEGRATION PROGRAM ONLY FOR THE INTEGRV ENTRANCE (I.E., WHEN THE W-MATRIX IS
000078:                                                                                                  #  INTEGRATED OR PERMANENT STATE VECTOR IS UPDATED.) THE GROUP NUMBER USED WILL BE THAT FOR THE P20-25 PROGRAMS
000079:                                                                                                  #  (I.E., GROUP2) SINCE THE INTEGRV ENTRANCE WILL ONLY BE USED BY THESE PROGRAMS. IF A RESTART OCCURS DURING AN
000080:                                                                                                  #  INTEGRATION OF THE STATE VECTOR ONLY, THE RECOVERY WILL BE TO THE LAST PHASE IN THE CALLING PROGRAM. CALLING
000081:                                                                                                  #  PROGRAMS WHICH USE THE INTEGRV OR INTEGRVS ENTRANCE OF INTEGRATION SHOULD ENSURE THAT IF PHASE CHANGING IS DONE
000082:                                                                                                  #  THAT IT IS PRIOR TO SETTING THE INTEGRATION INPUTS IN THE PUSHLIST.
000083:                                                                                                  #  THIS IS BECAUSE THE PUSHLIST IS LOST DURING A RESTART.
000084:
000085:                                                                                                  #  2.2 SCALING
000086:
000087:                                                                                                  #  THE INTEGRATION ROUTINE WILL MAINTAIN THE PERMANENT MEMORY STATE VECTORS IN THE SCALING AND UNITS DEFINED IN
000088:                                                                                                  #  APPENDIX B OF THE USERS GUIDE. THE SCALING OF THE OUTPUT POSITION VECTORDEPENDS ON THE ORIGIN OF THE COORDINATE
000089:                                                                                                  #   SYSTEM AT THE DESIRED INTEGRATION TIME. THE COORDINATE SYSTEM TRANSFORMATION WILL BE DONE AUTOMATICALLY ON
000090:                                                                                                  #  MULTIPLE TIMESTEP ENCKE INTEGRATION ONLY. THUS IT IS POSSIBLE TO HAVE OUTPUT FROM SUCCESSIVE INTEGRATIONS IN
000091:                                                                                                  #  DIFFERENT SCALING.
000092:                                                                                                  #  HOWEVER, RATT, VATT WILL ALWAYS BE SCALED THE SAME.
000093:
000094:                                                                                                  #  3.0 INPUT/OUTPUT
000095:                                                                                                  #  ----------------
000096:
000097:                                                                                                  #  PROGRAM INPUTS ARE THE FLAGS DESCRIBED IN APPENDIX A AND THE PERMANENT STATE VECTOR QUANTITIES DESCRIBED IN AP-
000098:                                                                                                  #  PENDIX B OF THE USERS GUIDE, PLUS THE DESIRED TIME TO INTEGRATE TO IN TDEC1 (A PUSH LIST LOCATION).
000099:                                                                                                  #  FOR INTEGRVS, THE RCV,VCV, TET OF THE TEMPORARY STATE VECTOR MUST BE SET, PLUS MOONFLAG AND MIDFLAG
000100:
000101:                                                                                                  #  FOR SIMULATION THE FOLLOWING QUANTITIES MUST BE PRESET ---
000102:                                                                                                  #                                                             EARTH  MOON
000103:                                                                                                  #                                                              29     27
000104:                                                                                                  #     RRECTCSM(LEM)  - RECTIFIED POSITION VECTOR      METERS  2      2
000105:
000106:                                                                                                  #                                                              7       5
000107:                                                                                                  #     VRECTCSM(LEM)  - RECTIFIED VELOCITY VECTOR      M/CSEC  2    2
000108:
000109:                                                                                                  #                                                              28     28
000110:                                                                                                  #     TETCSM(LEM)    - TIME STATE VECTOR IS VALID     CSEC    2      2
000111:                                                                                                  #                      CUSTOMARILY 0, BUT NOTE LUNAR
000112:                                                                                                  #                      ORBIT DEPENDENCE ON REAL TIME.
000113:
000114:                                                                                                  #                                                              22     18
000115:                                                                                                  #     DELTAVCSM(LEM) - POSITION DEVIATION             METERS  2      2
000116:                                                                                                  #                      0 IF TCCSM(LEM) = 0
000117:
000118:                                                                                                  #                                                              3      -1
000119:                                                                                                  #     NUVCSM(LEM)    - VELOCITY DEVIATION             M/CSEC  2      2
000120:                                                                                                  #                      0 IF TCCSM(LEM) = 0
000121:


000123:                                                                                                  #                                                              29     27
000124:                                                                                                  #     RCVCSM(LEM)    - CONIC POSITION                 METERS  2      2
000125:                                                                                                  #                      EQUALS RRECTCSM(LEM) IF
000126:                                                                                                  #                      TCCSM(LEM) = 0
000127:
000128:                                                                                                  #                                                              7      5
000129:                                                                                                  #     VCVCSM(LEM)    - CONIC VELOCITY                 M/CSEC  2      2
000130:                                                                                                  #                      EQUALS VRECTCSM(LEM) IF
000131:                                                                                                  #                      TCCSM(LEM) = 0
000132:
000133:                                                                                                  #                                                              28     28
000134:                                                                                                  #     TCCSM(LEM)     - TIME SINCE RECTIFICATION       CSECS   2      2
000135:                                                                                                  #                      CUSTOMARILY 0
000136:
000137:                                                                                                  #                                                      1/2     17     16
000138:                                                                                                  #     XKEPCSM(LEM)   - ROOT OF KEPLERS EQUATION       M       2      2
000139:                                                                                                  #                      0 IF TCCSM(LEM) = 0
000140:
000141:                                                                                                  #     CMOONFLG       - PERMANENT FLAGS CORRESPONDING          0      0
000142:                                                                                                  #     CMIDFLAG         TO MOONFLAG AND MIDFLAG                0,1    0,1
000143:                                                                                                  #     LMOONFLG         C = CSM, L = LM                        0      0
000144:                                                                                                  #     LMIDFLG                                                 0,1    0,1
000145:
000146:                                                                                                  #     SURFFLAG       - LUNAR SURFACE FLAG                     0,1    0,1
000147:
000148:                                                                                                  #  IN ADDITION, IF (L)CMIDFLAG IS SET, THE INITIAL INPUT VALUES FOR LUNAR
000149:                                                                                                  #  SOLAR EPHEMERIDES SUBROUTINE AND PLANETARY INERTIAL ORIENTATION SUB-
000150:                                                                                                  #  ROUTINE MUST BE PRESET.
000151:
000152:                                                                                                  #  OUTPUT
000153:                                                                                                  #  AFTER EVERY CALL TO INTEGRATION
000154:                                                                                                  #                                                             EARTH  MOON
000155:                                                                                                  #                                                              29     29
000156:                                                                                                  #      0D   RATT   POSITION                           METERS  2      2
000157:                                                                                                  #                                                              7      7
000158:                                                                                                  #      6D   VATT   VELOCITY                           M/CSEC  2      2
000159:                                                                                                  #                                                              28     28
000160:                                                                                                  #     12D   TAT    TIME                                       2      2
000161:                                                                                                  #                                                              29     27
000162:                                                                                                  #     14D   RATT1  POSITION                           METERS  2      2
000163:                                                                                                  #                                                              7      5
000164:                                                                                                  #     20D   VATT1  VELOCITY                           M/CSEC  2      2
000165:                                                                                                  #                                                      3   2   36     30
000166:                                                                                                  #     26D   MU(P)  MU                                 M /CS   2      2
000167:
000168:                                                                                                  #     X1           MUTABLE ENTRY                              -2     -10D
000169:
000170:                                                                                                  #     X2           COORDINT
000171:                                                                                                  #     X2           COORDINATE SYSTEM ORIGEN                   0      2
000172:                                                                                                  #                  (THIS, NOT MOONFLAG, SHOULD BE
000173:


000175:                                                                                                  #                  USED TO DETERMINE ORIGIN.)
000176:
000177:                                                                                                  #  IN ADDITION TO THE ABOVE, THE PERMANENT STATE VECTOR IS UPDATED WHENEVER
000178:                                                                                                  #  STATEFLG WAS SET AND WHENEVER A W-MATRIX IS TO BE INTEGRATED. THE PUSH
000179:                                                                                                  #  COUNTER IS SET TO 0 AND OVERFLOW IS CLEARED BEFORE RETURNING TO THE
000180:                                                                                                  #  CALLING PROGRAM.
000181:
000182:                                                                                                  #  4.0 CALLING SEQUENCES AND SAMPLE CODE
000183:                                                                                                  #  -------------------------------------
000184:
000185:                                                                                                  #     A) PRECISION ORBITAL INTEGRATION. CSMPREC,LEMPREC ENTRANCES
000186:                                                                                                  #           L-X    STORE TIME TO 95T5791T5 T  95 PUS  L9ST (T4531)
000187:                                                                                                  #           L      CALL
000188:                                                                                                  #           L+1           CSMPREC (OR LEMPREC)
000189:                                                                                                  #           L+2    RETURN
000190:                                                                                                  #        INPUT                                                         28
000191:                                                                                                  #           TDEC1 (PD 32D) TIME TC INTEGRATE TO...CENTISECONDS SCALED 2
000192:                                                                                                  #        OUTPUT
000193:                                                                                                  #           THE DATA LISTED IN SECTION 3.0 PLUS
000194:                                                                                                  #           RQVV   POSITION VECTOR OF VEHICLE WITH RESPECT TO SECONDARY
000195:                                                                                                  #           BODY... METERS B-29 ONLY IF MIDFLAG = DIM0FLAG = 1
000196:                                                                                                  #     B) CONIC INTEGRATION. CSMCONIC, LEMCONIC ENTRANCES
000197:                                                                                                  #           L-X    STORE TIME IN PUSH LIST (TDEC1)
000198:                                                                                                  #           L      CALL
000199:                                                                                                  #           L+1           CSMCONIC (OR LEMCONIC)
000200:                                                                                                  #        INPUT/OUTPUT
000201:                                                                                                  #           SAME AS PRECISION INTEGRATION, EXCEPT RQVV NOT SET
000202:                                                                                                  #     C) INTEGRATE GIVEN STATE VECTOR. INTEGRVS ENTRANCE
000203:                                                                                                  #                  CALL
000204:                                                                                                  #                         INTSTALL
000205:                                                                                                  #                  VLOAD
000206:                                                                                                  #                         POSITION VECTOR
000207:                                                                                                  #                  STOVL  RCV
000208:                                                                                                  #                         VELOCITY VECTOR
000209:                                                                                                  #                  STODL  VCV
000210:                                                                                                  #                         TIME STATE VECTOR VALIS
000211:                                                                                                  #                  STODL  TET
000212:                                                                                                  #                         FINAL RADIUS
000213:                                                                                                  #                  STORE  RFINAL
000214:                                                                                                  #                  SET(CLEAR)  SET(CLEAR)
000215:                                                                                                  #                              INTYPFLAG
000216:                                                                                                  #                              MOONFLAG
000217:                                                                                                  #                  SET(CLEAR)  DLOAD
000218:                                                                                                  #                              DESIRED TIME
000219:                                                                                                  #                  STCALL      TDEC1
000220:                                                                                                  #                              INTEGRVS
000221:                                                                                                  #        INPUT
000222:                                                                                                  #           RCV    POSITION VECTOR                  METERS
000223:                                                                                                  #           VCV    VELOCITY VECTOR                  M/CSEC
000224:                                                                                                  #           TET    TIME OF STATE VECTOR(MAY = 0)    CSEC B-28
000225:


000227:                                                                                                  #           TDEC1  TIME TO INTEGRATE TO             CSEC B-28 (PD 32D)
000228:                                                                                                  #                  (MAY BE INCREMENT IF TET=0)
000229:                                                                                                  #        OUTPUT
000230:                                                                                                  #           SAME AS FOR PRECISION OR CONIC INTEGRATION,
000231:                                                                                                  #           DEPENDING ON INTYPFLG.
000232:                                                                                                  #     D) INTEGRATE STATE VECTOR.INTGRV ENTRANCE
000233:                                                                                                  #           L-X    STORE TIME IN PUSH LIST (TDEC1)(MAY BE DONE AFTER CALL TO INTSTALL)
000234:                                                                                                  #           L-8    CALL
000235:                                                                                                  #           L-7
000236:                                                                                                  #           L-6    SET(CLEAR) SET(CLEAR)
000237:                                                                                                  #           L-5               VINTFLAG   1=CSM, 0=LM
000238:                                                                                                  #           L-4               INTYPFLAG  1=CONIC, 0=PRECISION
000239:                                                                                                  #           L-3    SET(CLEAR) SET(CLEAR)
000240:                                                                                                  #           L-2               DIM0FLAG   1=W-MATRIX, 0=NO W-MATRIX
000241:                                                                                                  #           L-1               D6OR9FLG   1=9X9, 0=6X6
000242:                                                                                                  #           L      SET        DLOAD
000243:                                                                                                  #           L+1               STATEFLG   DESIRE PERMANENT UPDATE
000244:                                                                                                  #           L+2               FINAL RAD. OF STATE VECTOR
000245:                                                                                                  #           L+3    STCALL     RFINAL
000246:                                                                                                  #           L+4               INTEGRV
000247:                                                                                                  #           L      CALL                  NORMAL USE -- WILL UPDATE STATE
000248:                                                                                                  #           L+1               INTEGRV    VECTOR IF DIM0FLAG=1.(STATEFLG IS
000249:                                                                                                  #           L+2    RETURN                ALWAYS RESET IN INTEGRATION AFTER
000250:                                                                                                  #                                        IT IS USED.)
000251:                                                                                                  #        INPUT
000252:                                                                                                  #           TDEC1 (PD 32D) TIME TO INTEGRATE TO     CSEC B-28
000253:                                                                                                  #        OUTPUT
000254:                                                                                                  #           SAME AS FOR PRECISION OR CONIC INTEGRATION
000255:                                                                                                  #        THE PROGRAM WILL SET MOONFLAG, MIDFLAG DEPENDING ON
000256:                                                                                                  #        THE PERMANENT STATE VECTOR REPRESENTATION.
000257:
000258: 11,2403                                           BANK     11
000259: 13,2000                                           SETLOC   INTINIT
000260: 13,2000                                           BANK
000261: 13,2641  E3,1554                                  EBANK=   RRECTCSM
000262: 13,2641                                           COUNT*   $$/INTIN
000263: 13,2641           05355        STATEINT           TC       PHASCHNG
000264: 13,2642           00052                           OCT      00052
000265: 13,2643           35010                           CAF      PRIO5
000266: 13,2644           05076                           TC       FINDVAC
000267: 13,2645  E3,1554                                  EBANK=   RRECTCSM
000268: 13,2645           02650 26063                     2CADR    STATINT1
000269: 13,2647           05263                           TC       TASKOVER
000270: 13,2650           06060        STATINT1           TC       INTPRET
000271: 13,2651           47014                           BON      RTB
000272: 13,2652           04712                                    QUITFLAG                              #  KILL INTEGRATION UNTIL NEXT POO.
000273: 13,2653           26711                                    NOINT
000274: 13,2654           21603                                    LOADTIME
000275: 13,2655           00041                           STORE    TDEC1
000276:


000278: 13,2656           77624                           CALL
000279: 13,2657           27447                                    INTSTALL
000280: 13,2660           45014                           SET      CALL
000281: 13,2661           01076                                    NODOFLAG
000282: 13,2662           26702                                    SETIFLGS
000283: 13,2663           52014                           SET      GOTO
000284: 13,2664           01460                                    POOHFLAG
000285: 13,2665           26026                                    STATEUP
000286: 13,2666           00003 25140  600SECS            2DEC     60000      B-28
000287:
000288: 13,2670           77414        ENDINT             CLEAR    EXIT
000289: 13,2671           01672                                    STATEFLG
000290: 13,2672           05355                           TC       PHASCHNG
000291: 13,2673           20032                           OCT      20032
000292: 13,2674           00006                           EXTEND
000293: 13,2675           32667                           DCA      600SECS
000294: 13,2676           05301                           TC       LONGCALL
000295: 13,2677  E3,1626                                  EBANK=   RRECTHIS
000296: 13,2677           02641 26063                     2CADR    STATEINT
000297: 13,2701           05146                           TC       ENDOFJOB
000298: 13,2702           43014        SETIFLGS           SET      CLEAR
000299: 13,2703           01472                                    STATEFLG
000300: 13,2704           01673                                    INTYPFLG
000301: 13,2705           43014                           CLEAR    CLEAR
000302: 13,2706           01676                                    DIM0FLAG
000303: 13,2707           01675                                    D6OR9FLG
000304: 13,2710           77616                           RVQ
000305: 13,2711           77776        NOINT              EXIT
000306: 13,2712           05355                           TC       PHASCHNG
000307: 13,2713           00002                           OCT      00002
000308:
000309: 13,2714           05520                           TC       DOWNFLAG
000310: 13,2715           00221                           ADRES    QUITFLAG
000311: 13,2716           05146                           TC       ENDOFJOB
000312:
000313:                                                                                                  #  ATOPCSM TRANSFERS RRECT TO RRECT +41 TO RRECTCSM TO RRECTCSM +41
000314:
000315:                                                                                                  #  CALLING SEQUENCE
000316:                                                                                                  #     L   CALL
000317:                                                                                                  #     L+1       ATOPCSM
000318:
000319:                                                                                                  #  NORMAL EXIT AT L+2
000320:
000321: 13,2717           47020        ATOPCSM            STQ      RTB
000322: 13,2720           00051                                    S2
000323: 13,2721           26732                                    MOVEACSM
000324: 13,2722           45014                           SET      CALL
000325: 13,2723           04063                                    CMOONFLG
000326: 13,2724           26114                                    SVDWN1
000327:


000329: 13,2725           43014                           BON      CLRGO
000330: 13,2726           00303                                    MOONFLAG
000331: 13,2727           00051                                    S2
000332: 13,2730           04223                                    CMOONFLG
000333: 13,2731           00051                                    S2
000334: 13,2732           03074        MOVEACSM           TC       SETBANK
000335: 13,2733           55500                           TS       DIFEQCNT                              #  INITIALIZE INDEX
000336: 13,2734           51500                           INDEX    DIFEQCNT
000337: 13,2735           31502                           CA       RRECT
000338: 13,2736           51500                           INDEX    DIFEQCNT
000339: 13,2737           55554                           TS       RRECTCSM
000340: 13,2740           11500                           CCS      DIFEQCNT                              #  IS TRANSFER COMPLETE
000341: 13,2741           12733                           TCF      MOVEACSM   +1                         #  NO-LOOP
000342: 13,2742           06102                           TC       DANZIG                                #  COMPLETE- RETURN
000343:
000344:
000345:                                                                                                  #  PTOACSM TRANSFERS RRECTCSM TO RRECTCSM +41 TO RRECT TO RRECT +41
000346:
000347:                                                                                                  #  CALLING SEQUENCE
000348:                                                                                                  #     L   CALL
000349:                                                                                                  #              PTOACSM
000350:
000351:                                                                                                  #  NORMAL EXIT AT L+2
000352:
000353: 13,2743           43034        PTOACSM            RTB      BON
000354: 13,2744           26761                                    MOVEPCSM
000355: 13,2745           04303                                    CMOONFLG
000356: 13,2746           26754                                    SETMOON
000357: 13,2747           66214        CLRMOON            CLEAR    SSP
000358: 13,2750           00263                                    MOONFLAG
000359: 13,2751           02031                                    PBODY
000360: 13,2752           00000                                    0
000361: 13,2753           77616                           RVQ
000362: 13,2754           66214        SETMOON            SET      SSP
000363: 13,2755           00063                                    MOONFLAG
000364: 13,2756           02031                                    PBODY
000365: 13,2757           00002                                    2
000366: 13,2760           77616                           RVQ
000367: 13,2761           03074        MOVEPCSM           TC       SETBANK
000368: 13,2762           55500                           TS       DIFEQCNT
000369: 13,2763           51500                           INDEX    DIFEQCNT
000370: 13,2764           31554                           CA       RRECTCSM
000371: 13,2765           51500                           INDEX    DIFEQCNT
000372: 13,2766           55502                           TS       RRECT
000373: 13,2767           11500                           CCS      DIFEQCNT
000374: 13,2770           12762                           TCF      MOVEPCSM   +1
000375: 13,2771           06102                           TC       DANZIG
000376:
000377:
000378:                                                                                                  #  ATOPLEM  TRANSFERS RRECT TO RRECT +41 TO RRECTLEM TO RRECTLEM +41
000379:


000381: 13,2772           47020        ATOPLEM            STQ      RTB
000382: 13,2773           00051                                    S2
000383: 13,2774           27005                                    MOVEALEM
000384: 13,2775           45014                           SET      CALL
000385: 13,2776           04064                                    LMOONFLG
000386: 13,2777           26070                                    SVDWN2
000387: 13,3000           43014                           BON      CLRGO
000388: 13,3001           00303                                    MOONFLAG
000389: 13,3002           00051                                    S2
000390: 13,3003           04224                                    LMOONFLG
000391: 13,3004           00051                                    S2
000392: 13,3005           03074        MOVEALEM           TC       SETBANK
000393: 13,3006           55500                           TS       DIFEQCNT
000394: 13,3007           51500                           INDEX    DIFEQCNT
000395: 13,3010           31502                           CA       RRECT
000396: 13,3011           51500                           INDEX    DIFEQCNT
000397: 13,3012           55626                           TS       RRECTLEM
000398: 13,3013           11500                           CCS      DIFEQCNT
000399: 13,3014           13006                           TCF      MOVEALEM   +1
000400: 13,3015           06102                           TC       DANZIG
000401:
000402:
000403:                                                                                                  #  PTOALEM  TRANSFERS RRECTLEM TO RRECTLEM +41 TO RRECT TO RRECT +41
000404:
000405: 13,3016           47014        PTOALEM            BON      RTB
000406: 13,3017           04307                                    SURFFLAG
000407: 13,3020           27037                                    USEPIOS
000408: 13,3021           27026                                    MOVEPLEM
000409: 13,3022           52014                           BON      GOTO
000410: 13,3023           04304                                    LMOONFLG
000411: 13,3024           26754                                    SETMOON
000412: 13,3025           26747                                    CLRMOON
000413: 13,3026           03074        MOVEPLEM           TC       SETBANK
000414: 13,3027           55500                           TS       DIFEQCNT
000415: 13,3030           51500                           INDEX    DIFEQCNT
000416: 13,3031           31626                           CA       RRECTLEM
000417: 13,3032           51500                           INDEX    DIFEQCNT
000418: 13,3033           55502                           TS       RRECT
000419: 13,3034           11500                           CCS      DIFEQCNT
000420: 13,3035           13027                           TCF      MOVEPLEM   +1
000421: 13,3036           06102                           TC       DANZIG
000422:
000423:
000424: 13,3037           77201        USEPIOS            SETPD    VLOAD
000425: 13,3040           00001                                    0
000426: 13,3041           02021                                    RLS
000427: 13,3042           41525                           PDDL     PUSH
000428: 13,3043           00041                                    TDEC1
000429: 13,3044           15517                           STODL    TET
000430: 13,3045           27762                                    5/8
000431:


000433: 13,3046           77624                           CALL
000434: 13,3047           55716                                    RP-TO-R
000435: 13,3050           25535                           STOVL    RCV
000436: 13,3051           24001                                    ZUNIT
000437: 13,3052           14001                           STODL    0D
000438: 13,3053           01517                                    TET
000439: 13,3054           14007                           STODL    6D
000440: 13,3055           27762                                    5/8
000441: 13,3056           45014                           SET      CALL                                  #  NEEDED FOR SETTING X1 ON EXIT
000442: 13,3057           00063                                    MOONFLAG
000443: 13,3060           55716                                    RP-TO-R
000444: 13,3061           74235                           VXV      VXSC
000445: 13,3062           01535                                    RCV
000446: 13,3063           26001                                    OMEGMOON
000447: 13,3064           25543                           STOVL    VCV
000448: 13,3065           24007                                    ZEROVEC
000449: 13,3066           01521                           STORE    TDELTAV
000450: 13,3067           67174                           AXT,2    SXA,2
000451: 13,3070           00002                                    2
000452: 13,3071           02030                                    PBODY
000453: 13,3072           35527                           STCALL   TNUV
000454: 13,3073           27215                                    A-PCHK
000455: 13,3074           33100        SETBANK            CAF      INTBANK
000456: 13,3075           54006                           TS       BBANK
000457: 13,3076           33505                           CAF      FORTYONE
000458: 13,3077           00002                           TC       Q
000459: 13,3100  E3,1554                                  EBANK=   RRECTCSM
000460: 13,3100           26063        INTBANK            BBCON    INTEGRV
000461:
000462:
000463:                                                                                                  #  SPECIAL PURPOSE ENTRIES TO ORBITAL INTEGRATION.  THESE ROUTINES PROVIDE ENTRANCES TO INTEGRATION WITH
000464:                                                                                                  #  APPROPRIATE SWITCHES SET OR CLEARED FOR THE DESIRED INTEGRATION.
000465:
000466:                                                                                                  #  CSMPREC AND LEMPREC PERFORM ORBIT INTEGRATION BY THE ENCKE METHOD TO THE TIME INDICATED IN TDEC1
000467:                                                                                                  #  ACCELERATIONS DUE TO OBLATENESS ARE INCLUDED. NO W-MATRIX INT. IS DONE.
000468:                                                                                                  #  THE PERMANENT STATE VECTOR IS NOT UPDATED.
000469:                                                                                                  #  CSMCONIC AND LEMCONIC PERFORM ORBIT INTEG. BY KEPLERS METHOD TO THE TIME INDICATED IN TDEC1
000470:                                                                                                  #  NO DISTURBING ACCELERATIONS ARE INCLUDED. IN THE PROGRAM FLOW THE GIVEN
000471:                                                                                                  #  STATE VECTOR IS RECTIFIED BEFORE SOLUTION OF KEPLERS EQUATION
000472:
000473:                                                                                                  #  THE ROUTINES ASSUME THAT THE CSM (LEM) STATE VECTOR IN P-MEM IS VALID.
000474:                                                                                                  #  SWITCHES SET PRIOR TO ENTRY TO THE MAIN INTEG. PROG ARE AS FOLLOWS
000475:                                                                                                  #              CSMPREC  CSMCONIC   LEMPREC  LEMCONIC
000476:                                                                                                  #  VINTFLAG     SET       SET       CLEAR    CLEAR
000477:                                                                                                  #  INTYPFLG     CLEAR     SET       CLEAR    SET
000478:                                                                                                  #  DIM0FLAG     CLEAR     CLEAR     CLEAR    CLEAR
000479:
000480:
000481:                                                                                                  #  CALLING SEQUENCE
000482:                                                                                                  #     L-X  STORE TDEC1
000483:


000485:                                                                                                  #     L    CALL       (STCALL TDEC1)
000486:                                                                                                  #     L+1         CSMPREC (CSMCONIC, LEMPREC, LEMCONIC)
000487:
000488:                                                                                                  #   NORMAL EXIT TO L+2
000489:
000490:
000491:                                                                                                  #  SUBROUTINES CALLED
000492:                                                                                                  #    INTEGRV1
000493:                                                                                                  #    PRECOUT FOR CSMPREC AND LEMPREC
000494:                                                                                                  #    CONICOUT  FOR CSMCONIC AND LEMCONIC
000495:
000496:
000497:                                                                                                  #  OUTPUT - SEE PAGE 2 OF THIS LOG SECTION
000498:                                                                                                  #  INPUT
000499:                                                                                                  #   TDEC1   TIME TO INTEGRATE TO . CSECS B-28
000500: 13,3101           45020        CSMPREC            STQ      CALL
000501: 13,3102           00046                                    X1
000502: 13,3103           27447                                    INTSTALL
000503: 13,3104           43130                           SXA,1    SET
000504: 13,3105           02101                                    IRETURN
000505: 13,3106           01474                                    VINTFLAG
000506:
000507: 13,3107           43014        IFLAGP             SET      CLEAR
000508: 13,3110           01467                                    PRECIFLG
000509: 13,3111           01676                                    DIM0FLAG
000510: 13,3112           77614                           CLRGO
000511: 13,3113           01633                                    INTYPFLG
000512: 13,3114           27174                                    INTEGRV1
000513: 13,3115           45020        LEMPREC            STQ      CALL
000514: 13,3116           00046                                    X1
000515: 13,3117           27447                                    INTSTALL
000516: 13,3120           43130                           SXA,1    CLRGO
000517: 13,3121           02101                                    IRETURN
000518: 13,3122           01634                                    VINTFLAG
000519: 13,3123           27107                                    IFLAGP
000520:
000521: 13,3124           45020        CSMCONIC           STQ      CALL
000522: 13,3125           00046                                    X1
000523: 13,3126           27447                                    INTSTALL
000524: 13,3127           43130                           SXA,1    SET
000525: 13,3130           02101                                    IRETURN
000526: 13,3131           01474                                    VINTFLAG
000527: 13,3132           43014        IFLAGC             CLEAR    SETGO
000528: 13,3133           01676                                    DIM0FLAG
000529: 13,3134           01433                                    INTYPFLG
000530: 13,3135           27174                                    INTEGRV1
000531: 13,3136           45020        LEMCONIC           STQ      CALL
000532: 13,3137           00046                                    X1
000533: 13,3140           27447                                    INTSTALL
000534: 13,3141           43130                           SXA,1    CLRGO
000535:


000537: 13,3142           02101                                    IRETURN
000538: 13,3143           01634                                    VINTFLAG
000539: 13,3144           27132                                    IFLAGC
000540:
000541: 13,3145           66214        INTEGRVS           SET      SSP
000542: 13,3146           01467                                    PRECIFLG
000543: 13,3147           02031                                    PBODY
000544: 13,3150           00000                                    0
000545: 13,3151           66214                           BOF      SSP
000546: 13,3152           00343                                    MOONFLAG
000547: 13,3153           27156                                    +3
000548: 13,3154           02031                                    PBODY
000549: 13,3155           00002                                    2
000550: 13,3156           77220                           STQ      VLOAD
000551: 13,3157           02101                                    IRETURN
000552: 13,3160           24007                                    ZEROVEC
000553: 13,3161           01521                           STORE    TDELTAV
000554: 13,3162           35527                           STCALL   TNUV
000555: 13,3163           27720                                    RECTIFY
000556: 13,3164           43014                           CLEAR    SET
000557: 13,3165           01676                                    DIM0FLAG
000558: 13,3166           04062                                    NEWIFLG
000559: 13,3167           77614                           SETGO
000560: 13,3170           04020                                    RPQFLAG
000561: 13,3171           27206                                    ALOADED
000562:                                                                                                  #  INTEGRV IS AN ENTRY TO ORBIT INTEGRATION WHICH PERMITS THE CALLER ,
000563:                                                                                                  #  NORMALLY THE NAVIGATION PROGRAM ,TO SET THE INTEG. FLAGS. THE ROUTINE
000564:                                                                                                  #  IS ENTERED AT INTEGRV1 BY CSMPREC ET.AL. AND AT ALOADED BY INTEGRVS.
000565:                                                                                                  #  THE ROUTINE SETS UP A-MEMORY IF ENTERED AT INTEGRV,1 AND SETS THE INTEG.
000566:                                                                                                  #  PROGRAM FOR PRECISION OR CONIC
000567:
000568:                                                                                                  #  THE CALLER MUST FIRST CALL INTSTALL TO CHECK IF INTEG. IS IN USE BEFORE
000569:                                                                                                  #  SETTING ANY FLAGS.
000570:                                                                                                  #  THE FLAGS WHICH SHOULD BE SET OR CLEARED ARE
000571:                                                                                                  #    VINTFLAG    (IGNORED WHEN ENTERED FROM INTEGRVS)
000572:                                                                                                  #    INTYPFLG
000573:                                                                                                  #    DIM0FLAG
000574:                                                                                                  #    D6OR9FLG
000575:                                                                                                  #  CALLING SEQUENCE
000576:                                                                                                  #    L-X    CALL
000577:                                                                                                  #    L-Y          INTSTALL
000578:                                                                                                  #    L-1    SET OR CLEAR ALL FOUR FLAGS. ALSO CAN SET STATEFLG IF DESIRED
000579:                                                                                                  #           AND DIM0FLAG IS CLEAR.
000580:                                                                                                  #    L      CALL
000581:                                                                                                  #    L+1          INTEGRV
000582:                                                                                                  #  INITIALIZATION
000583:                                                                                                  #    FLAGS AS ABOVE
000584:                                                                                                  #    STORE TIME TO INTEGRATE TO IN TDEC1
000585:                                                                                                  #  OUTPUT
000586:                                                                                                  #    RATT   AS
000587:


000589:                                                                                                  #    VATT       DEFINED
000590:                                                                                                  #    TAT                BEFORE
000591:
000592:
000593: 13,3172           77620        INTEGRV            STQ
000594: 13,3173           02101                                    IRETURN
000595: 13,3174           43014        INTEGRV1           SET      SET
000596: 13,3175           04060                                    RPQFLAG
000597: 13,3176           04062                                    NEWIFLG
000598: 13,3177           77731        INTEGRV2           SSP
000599: 13,3200           00053                                    QPRET
000600: 13,3201           27206                                    ALOADED
000601: 13,3202           52014                           BON      GOTO
000602: 13,3203           01714                                    VINTFLAG
000603: 13,3204           26743                                    PTOACSM
000604: 13,3205           27016                                    PTOALEM
000605: 13,3206           77745        ALOADED            DLOAD
000606: 13,3207           00041                                    TDEC1
000607: 13,3210           01115                           STORE    TDEC
000608: 13,3211           52014                           BOFF     GOTO
000609: 13,3212           01753                                    INTYPFLG
000610: 13,3213           27315                                    TESTLOOP
000611: 13,3214           27301                                    RVCON
000612: 13,3215           77414        A-PCHK             BOF      EXIT
000613: 13,3216           01752                                    STATEFLG
000614: 13,3217           27236                                    RECTOUT
000615: 13,3220           05355                           TC       PHASCHNG
000616: 13,3221           04022                           OCT      04022
000617: 13,3222           05506                           TC       UPFLAG                                #  PHASE CHANGE HAS OCCURRED BETWEEN
000618: 13,3223           00236                           ADRES    REINTFLG                              #  INTSTALL AND INTWAKE
000619: 13,3224           06060                           TC       INTPRET
000620: 13,3225           77731                           SSP
000621: 13,3226           00053                                    QPRET
000622: 13,3227           27234                                    PHEXIT
000623: 13,3230           52014                           BON      GOTO
000624: 13,3231           01714                                    VINTFLAG
000625: 13,3232           26717                                    ATOPCSM
000626: 13,3233           26772                                    ATOPLEM
000627: 13,3234           77624        PHEXIT             CALL
000628: 13,3235           51770                                    GRP2PC
000629: 13,3236           45001        RECTOUT            SETPD    CALL
000630: 13,3237           00001                                    0
000631: 13,3240           27720                                    RECTIFY
000632: 13,3241           53775                           VLOAD    VSL*
000633: 13,3242           01503                                    RRECT
000634: 13,3243           57576                                    0,2
000635: 13,3244           53715                           PDVL     VSL*                                  #  RATT TO PD0
000636: 13,3245           01511                                    VRECT
000637: 13,3246           57576                                    0,2
000638: 13,3247           63325                           PDDL     PDVL                                  #  VATT TO PD6    TAT TO PD12
000639:


000641: 13,3250           01517                                    TET
000642: 13,3251           01503                                    RRECT
000643: 13,3252           64715                           PDVL     PDDL*
000644: 13,3253           01511                                    VRECT
000645: 13,3254           51770                                    MUEARTH,2
000646: 13,3255           76006                           PUSH     AXT,1
000647: 13,3256           77765                           DEC      -10        B-14
000648: 13,3257           76014                           BON      AXT,1
000649: 13,3260           00303                                    MOONFLAG
000650: 13,3261           27263                                    +2
000651: 13,3262           77775                           DEC      -2         B-14
000652: 13,3263           40001        INTEXIT            SETPD    BOV
000653: 13,3264           00001                                    0
000654: 13,3265           27266                                    +1
000655: 13,3266           43014                           CLEAR    CLEAR
000656: 13,3267           04676                                    AVEMIDSW                              #  ALLOW UPDATE OF DOWNLINK STATE VECTOR
000657: 13,3270           01667                                    PRECIFLG
000658: 13,3271           77614                           CLEAR
000659: 13,3272           01672                                    STATEFLG
000660: 13,3273           77535                           SLOAD    EXIT
000661: 13,3274           02102                                    IRETURN
000662: 13,3275           30154                           CA       MPAC
000663: 13,3276           50120                           INDEX    FIXLOC
000664: 13,3277           54052                           TS       QPRET
000665: 13,3300           03460                           TC       INTWAKE
000666:                                                                                                  #  RVCON SETS UP ORBIT INTEGRATION TO DO A CONIC SOLUTION FOR POSITION AND
000667:                                                                                                  #  VELOCITY FOR THE INTERVAL (TET-TDEC)
000668:
000669: 13,3301           45345        RVCON              DLOAD    DSU
000670: 13,3302           01115                                    TDEC
000671: 13,3303           01517                                    TET
000672: 13,3304           36074                           STCALL   TAU.
000673: 13,3305           27720                                    RECTIFY
000674: 13,3306           77624                           CALL
000675: 13,3307           22403                                    KEPPREP
000676: 13,3310           43345                           DLOAD    DAD
000677: 13,3311           01551                                    TC
000678: 13,3312           01517                                    TET
000679: 13,3313           35517                           STCALL   TET
000680: 13,3314           27236                                    RECTOUT
000681:


000683:                                                                                                  #  TESTLOOP
000684:
000685: 13,3315           43014        TESTLOOP           BOF      CLRGO
000686: 13,3316           04752                                    QUITFLAG
000687: 13,3317           27322                                    +3
000688: 13,3320           01632                                    STATEFLG
000689: 13,3321           27263                                    INTEXIT                               #  STOP INTEGRATION
000690: 13,3322           73001                 +3        SETPD    LXA,2
000691: 13,3323           00013                                    10D
000692: 13,3324           02030                                    PBODY
000693: 13,3325           51575                           VLOAD    ABVAL
000694: 13,3326           01535                                    RCV
000695: 13,3327           43006                           PUSH     CLEAR                                 #  RC TO 10D
000696: 13,3330           00262                                    MIDFLAG
000697: 13,3331           50023                           DSU*     BMN                                   #  MIDFLAG=0 IF R G.T. RMP
000698: 13,3332           53755                                    RME,2
000699: 13,3333           27336                                    +3
000700: 13,3334           77614                           SET
000701: 13,3335           00062                                    MIDFLAG
000702: 13,3336           41345        NORFINAL           DLOAD    DMP
000703: 13,3337           00013                                    10D
000704: 13,3340           00043                                    34D
000705: 13,3341           55762                           SR1R     DDV*
000706: 13,3342           51770                                    MUEARTH,2
000707: 13,3343           41366                           SQRT     DMP
000708: 13,3344           25762                                    .3D
000709: 13,3345           40442                           SR3      SR4                                   #  DT    IS TRUNCATED TO A MULTIPLE
000710: 13,3346           54345                           DLOAD    SL
000711: 13,3347           00155                                    MPAC
000712: 13,3350           20220                                    15D                                   #         OF 128 CSECS.
000713: 13,3351           40006                           PUSH     BOV
000714: 13,3352           27377                                    MAXDT
000715: 13,3353           50021                           BDSU     BMN
000716: 13,3354           27446                                    DT/2MAX
000717: 13,3355           27377                                    MAXDT
000718: 13,3356           45345        DT/2COMP           DLOAD    DSU
000719: 13,3357           01115                                    TDEC
000720: 13,3360           01517                                    TET
000721: 13,3361           54234                           RTB      SL
000722: 13,3362           21622                                    SGNAGREE
000723: 13,3363           20211                                    8D
000724: 13,3364           02076                           STORE    DT/2                                  #  B-19
000725: 13,3365           51400                           BOV      ABS
000726: 13,3366           27403                                    GETMAXDT
000727: 13,3367           50025                           DSU      BMN                                   #  IS TIME TO INTEG. TO GR THAN MAXTIME
000728: 13,3370           00015                                    12D
000729: 13,3371           27407                                    P00HCHK
000730: 13,3372           75345        USEMAXDT           DLOAD    SIGN
000731: 13,3373           00015                                    12D
000732: 13,3374           02076                                    DT/2
000733:


000735: 13,3375           36076                           STCALL   DT/2
000736: 13,3376           27407                                    P00HCHK
000737: 13,3377           65345        MAXDT              DLOAD    PDDL                                  #  EXCHANGE DT/2MAX WITH COMPUTED MAX.
000738: 13,3400           27446                                    DT/2MAX
000739: 13,3401           77650                           GOTO
000740: 13,3402           27356                                    DT/2COMP
000741: 13,3403           77634        GETMAXDT           RTB
000742: 13,3404           31765                                    SIGNMPAC
000743: 13,3405           36076                           STCALL   DT/2
000744: 13,3406           27372                                    USEMAXDT
000745: 13,3407           51545        P00HCHK            DLOAD    ABS
000746: 13,3410           02076                                    DT/2
000747: 13,3411           50025                           DSU      BMN
000748: 13,3412           27444                                    DT/2MIN
000749: 13,3413           27215                                    A-PCHK
000750: 13,3414           43014                           BOFF     BON                                   #  NO BACKWARDS INTEGRATION
000751: 13,3415           01740                                    POOHFLAG                              #  WHEN IN POO
000752: 13,3416           23307                                    TIMESTEP
000753: 13,3417           01707                                    PRECIFLG
000754: 13,3420           23307                                    TIMESTEP
000755: 13,3421           45345                           DLOAD    DSU
000756: 13,3422           02076                                    DT/2
000757: 13,3423           00015                                    12D
000758: 13,3424           43040                           BMN      BOFCLR
000759: 13,3425           27215                                    A-PCHK
000760: 13,3426           04242                                    NEWIFLG
000761: 13,3427           23307                                    TIMESTEP
000762: 13,3430           45345                           DLOAD    DSU
000763: 13,3431           01115                                    TDEC
000764: 13,3432           01517                                    TET
000765: 13,3433           77640                           BMN                                            #  NO BACKWARD INTEGRATION
000766: 13,3434           27263                                    INTEXIT
000767: 13,3435           40525                           PDDL     SR4
000768: 13,3436           02076                                    DT/2                                  #  IS 4(DT) LS(TDEC - TET)
000769: 13,3437           44322                           SR2R     BDSU                                  #  NO
000770: 13,3440           52040                           BMN      GOTO
000771: 13,3441           27263                                    INTEXIT
000772: 13,3442           23307                                    TIMESTEP
000773: 13,3443           00000 01400  DT/2MIN            2DEC     3          B-20
000774: 13,3445           14152 00000  DT/2MAX            2DEC     4000       E2         B-20
000775:
000776: 13,3447           77776        INTSTALL           EXIT
000777: 13,3450           30106                           CA       RASFLAG
000778: 13,3451           73521                           MASK     INTBITAB                              #  IS THIS STALL AREA FREE
000779: 13,3452           00006                           EXTEND
000780: 13,3453           13513                           BZF      OKTOGRAB                              #  YES
000781: 13,3454           33520                           CAF      WAKESTAL
000782: 13,3455           05124                           TC       JOBSLEEP
000783: 13,3456           77776        INTWAKE0           EXIT
000784:


000786: 13,3457           13500                           TCF      INTWAKE1
000787:
000788: 13,3460           40106        INTWAKE            CS       RASFLAG                               #  IS THIS INTSTALLED ROUTINE TO BE
000789: 13,3461           74736                           MASK     REINTBIT                              #       RESTARTED
000790: 13,3462           10000                           CCS      A
000791: 13,3463           03500                           TC       INTWAKE1                              #  NO
000792:
000793: 13,3464           50120                           INDEX    FIXLOC
000794: 13,3465           30052                           CA       QPRET
000795: 13,3466           55054                           TS       TBASE2                                #  YES, DONT RESTART WITH SOMEONE ELSES Q
000796:
000797: 13,3467           05355                           TC       PHASCHNG
000798: 13,3470           04022                           OCT      04022
000799:
000800: 13,3471           31054                           CA       TBASE2
000801: 13,3472           50120                           INDEX    FIXLOC
000802: 13,3473           54052                           TS       QPRET
000803:
000804: 13,3474           34736                           CAF      REINTBIT
000805: 13,3475           70106                           MASK     RASFLAG
000806: 13,3476           00006                           EXTEND
000807: 13,3477           13516                           BZF      GOBAC                                 #  DONT INTWAKE IF WE CAME HERE VIA RESTART
000808:
000809: 13,3500           33520        INTWAKE1           CAF      WAKESTAL
000810: 13,3501           00004                           INHINT
000811: 13,3502           05130                           TC       JOBWAKE
000812: 13,3503           10064                           CCS      LOCCTR
000813: 13,3504           13500                           TCF      INTWAKE1
000814: 13,3505           00051        FORTYONE           DEC      41         B-14
000815: 13,3506           43521                           CS       INTBITAB
000816: 13,3507           70106                           MASK     RASFLAG
000817: 13,3510           54106                           TS       RASFLAG                               #  RELEASE STALL AREA
000818: 13,3511           00003                           RELINT
000819: 13,3512           13516                           TCF      GOBAC
000820: 13,3513           34727        OKTOGRAB           CAF      INTFLBIT
000821: 13,3514           00004                           INHINT
000822: 13,3515           26106                           ADS      RASFLAG
000823: 13,3516           06060        GOBAC              TC       INTPRET
000824: 13,3517           77616                           RVQ
000825: 13,3520           27450        WAKESTAL           CADR     INTSTALL   +1
000826: 13,3521           20100        INTBITAB           OCT      20100
000827:


000829:                                                                                                  #  AVETOMID
000830:
000831:                                                                                                  #  THIS ROUTINE PERFORMS THE TRANSITION FROM A THRUSTING PHASE TO THE COAST
000832:                                                                                                  #  PHASE BY INITIALIZING THIS VEHICLES PERMANENT STATE VECTOR WITH THE
000833:                                                                                                  #  VALUES LEFT BY THE AVERAGEG ROUTINE IN RN,VN,PIPTIME.
000834:
000835:                                                                                                  #  BEFORE THIS IS DONE THE W-MATRIX, IF ITS VALID (ORWFLAG OR RENDWFLG IS
000836:                                                                                                  #  SET) IS INTEGRATED FORWARD TO PIPTIME WITH THE PRE-THRUST STATE VECTOR.
000837:
000838:                                                                                                  #  IN ADDITION, THE OTHER VEHICLE IS INTEGRATED (PERMANENT) TO PIPTIME.
000839:
000840:                                                                                                  #  FINALLY TRKMKCNT IS ZEROED
000841:
000842:
000843: 13,2000                                           SETLOC   INTINIT
000844: 13,2000                                           BANK
000845:
000846: 13,3522                                           COUNT*   $$/INTIN
000847: 13,3522           43020        AVETOMID           STQ      BON
000848: 13,3523           02767                                    EGRESS
000849: 13,3524           02716                                    RENDWFLG
000850: 13,3525           27571                                    INT/W                                 #  W-MATRIX VALID ,GO INTEGRATE IT
000851: 13,3526           77614                           BON
000852: 13,3527           01711                                    ORBWFLAG
000853: 13,3530           27571                                    INT/W                                 #  W-MATRIX VALID ,GO INTEGRATE IT
000854:
000855: 13,3531           45145        OTHERS             DLOAD    CALL                                  #  GET SET FOR OTHER VEHICLE INTEGRATION
000856: 13,3532           01234                                    PIPTIME                               #  DESIRED TIME
000857: 13,3533           27447                                    INTSTALL
000858: 13,3534           45014                           SET      CALL
000859: 13,3535           01474                                    VINTFLAG                              #  CM
000860: 13,3536           26702                                    SETIFLGS                              #  SETS UP NONE W-MAT. PERMANENT INTEG.
000861: 13,3537           34041                           STCALL   TDEC1
000862: 13,3540           27172                                    INTEGRV
000863:
000864: 13,3541           45174                           AXT,2    CALL                                  #  NOW MOVE PROPERLY SCALE RN,UN AS WELL AS
000865: 13,3542           00002                                    2                                     #  PIPTIME TO INTEGRATION ERASABLES.
000866: 13,3543           27447                                    INTSTALL
000867: 13,3544           77014                           BON      AXT,2
000868: 13,3545           04304                                    MOONTHIS
000869: 13,3546           27550                                    +2
000870: 13,3547           00000                                    0
000871: 13,3550           53775                           VLOAD    VSR*
000872: 13,3551           01220                                    RN
000873: 13,3552           57176                                    0,2
000874: 13,3553           01503                           STORE    RRECT
000875: 13,3554           15535                           STODL    RCV
000876: 13,3555           01234                                    PIPTIME
000877: 13,3556           25517                           STOVL    TET
000878: 13,3557           01226                                    VN
000879:


000881: 13,3560           45057                           VSR*     CALL
000882: 13,3561           57176                                    0,2
000883: 13,3562           27734                                    MINIRECT                              #  FINISH SETTING UP STATE VECTOR
000884: 13,3563           66234                           RTB      SSP
000885: 13,3564           27005                                    MOVATHIS                              #  PUT TEMP STATE VECTOR INTO PERMANENT
000886: 13,3565           03463                                    TRKMKCNT
000887: 13,3566           00000                                    0
000888: 13,3567           77650                           GOTO
000889: 13,3570           47211                                    FAZAB5
000890:
000891: 13,3571           45145        INT/W              DLOAD    CALL
000892: 13,3572           01234                                    PIPTIME                               #  INTEGRATE W THRU BURN
000893: 13,3573           27447                                    INTSTALL
000894: 13,3574           43014                           SET      SET
000895: 13,3575           01476                                    DIM0FLAG                              #  DO W-MATRIX
000896: 13,3576           04476                                    AVEMIDSW                              #  SO WONT CLOBBER RN,VN,PIPTIME
000897: 13,3577           43014                           SET      CLEAR
000898: 13,3600           01475                                    D6OR9FLG                              #  9X9 FOR LM
000899: 13,3601           01674                                    VINTFLAG                              #  LM
000900: 13,3602           34041                           STCALL   TDEC1
000901: 13,3603           27172                                    INTEGRV
000902: 13,3604           77650                           GOTO
000903: 13,3605           27531                                    OTHERS                                #  NOW GO DO THE OTHER VEHICLE
000904:


000906:                                                                                                  #  MIDTOAV1
000907:
000908:                                                                                                  #  THIS ROUTINE INTEGRATES (PRECISION) TO THE TIME SPECIFIED IN TDEC1.
000909:                                                                                                  #  IF, AT THE END OF AN INTEGRATION TIME STEP, CURRENT TIME PLUS A DELTA
000910:                                                                                                  #  TIME (SEE TIMEDELT.....BASED ON THE COMPUTATUON TIME FOR ONE TIME STEP)
000911:                                                                                                  #  IS GREATER THAN THE DESIRED TIME, ALARM 1703 IS SET AND THE INTEGRATION
000912:                                                                                                  #  IS DONE TO THE CURRENT TIME.
000913:                                                                                                  #  RETURN IS IN BASIC TO THE RETURN ADDRESS PLUS ONE.
000914:
000915:                                                                                                  #  IF THE INTEGRATION IS FINISHED TO THE DESIRED TIME, RETURN IS IN BASIC
000916:                                                                                                  #  TO THE RETURN ADDRESS
000917:
000918:                                                                                                  #  IN EITHER CASE , BEFORE RETURNING, THE EXTRAPOLATED STATE VECTOR IS TRAN
000919:                                                                                                  #  FERRED FROM R,VATT TO R,VN1-PIPTIME1 IS SET TO THE FINISHING INTEGRA-
000920:                                                                                                  #  TION TIME AND MPAC IS SET TO THE DELTA TIME---
000921:                                                                                                  #                                    TAT MINUS CURRENT TIME.
000922:
000923:
000924:                                                                                                  #  MIDTOAV2
000925:
000926:                                                                                                  #  THIS ROUTINE INTEGRATES THIS VEHICLES STATE VECTOR TO THE CURRENT TIME.
000927:                                                                                                  #  NO INPUTS ARE REQUIRED OF THE CALLER. RETURN IS IN BASIC TO THE RETURN
000928:                                                                                                  #  ADDRESS WITH THE ABOVE TRANSFERS TO R,VN1-PIPTIME1-AND MPAC DONE
000929:
000930: 21,2000                                           SETLOC   ORBITAL5
000931: 21,2000                                           BANK
000932: 21,2760                                           COUNT*   $$/INTIN
000933:
000934: 21,2760  E7,1744                                  EBANK=   IRETURN1
000935: 21,2760           43020        MIDTOAV2           STQ      CLRGO                                 #  INTEGRATE TO PRESENT TIME PLUS TIMEDELT
000936: 21,2761           03744                                    IRETURN1
000937: 21,2762           04634                                    MID1FLAG
000938: 21,2763           27621                                    ENTMID2
000939:
000940: 13,2000                                           SETLOC   INTINIT
000941: 13,2000                                           BANK
000942: 13,3606                                           COUNT*   $$/INTIN
000943:
000944: 13,3606           43020        MIDTOAV1           STQ      SET                                   #   INTEGRATE TO TDEC1
000945: 13,3607           03744                                    IRETURN1
000946: 13,3610           04474                                    MID1FLAG
000947: 13,3611           43234                           RTB      DAD                                   #  INITIAL CHECK , IS TDEC1 IN THE FUTURE
000948: 13,3612           21603                                    LOADTIME
000949: 13,3613           11171                                    TIMEDELT
000950: 13,3614           51021                           BDSU     BPL
000951: 13,3615           00041                                    TDEC1
000952: 13,3616           27625                                    ENTMID1                               #   Y5S
000953: 13,3617           77624                           CALL
000954: 13,3620           27711                                    NOTIME                                #  NO, SET ALARM, SWITCH TO MIDTOAV2
000955:


000957:
000958: 13,3621           43234        ENTMID2            RTB      DAD
000959: 13,3622           21603                                    LOADTIME
000960: 13,3623           11171                                    TIMEDELT
000961: 13,3624           00041                           STORE    TDEC1
000962:
000963: 13,3625           77624        ENTMID1            CALL
000964: 13,3626           27447                                    INTSTALL
000965: 13,3627           45014                           CLEAR    CALL
000966: 13,3630           01676                                    DIM0FLAG                              #  NO W-MATRIX
000967: 13,3631           26066                                    THISVINT
000968: 13,3632           43014                           CLEAR    SET
000969: 13,3633           01673                                    INTYPFLG
000970: 13,3634           04475                                    MIDAVFLG                              #  LET INTEG. KNOW THE CALL IS FOR MIDTOAV.
000971: 13,3635           77624                           CALL
000972: 13,3636           27172                                    INTEGRV                               #   GO INTEGRATE
000973: 13,3637           77214                           CLEAR    VLOAD
000974: 13,3640           04675                                    MIDAVFLG
000975: 13,3641           00001                                    RATT
000976: 13,3642           27545                           STOVL    RN1
000977: 13,3643           00007                                    VATT
000978: 13,3644           17553                           STODL    VN1
000979: 13,3645           00015                                    TAT
000980: 13,3646           03561                           STORE    PIPTIME1
000981: 13,3647           66134                           SXA,2    SXA,1
000982: 13,3650           02777                                    RTX2
000983: 13,3651           02776                                    RTX1
000984: 13,3652           77776                           EXIT
000985:
000986: 13,3653           00004                           INHINT
000987: 13,3654           00006                           EXTEND
000988: 13,3655           40025                           DCS      TIME2
000989: 13,3656           20155                           DAS      MPAC
000990: 13,3657           07300                           TC       TPAGREE
000991:
000992: 13,3660           31744                           CA       IRETURN1
000993: 13,3661           04631                           TC       BANKJUMP
000994: 13,3662           47014        CKMID2             BOF      RTB
000995: 13,3663           04754                                    MID1FLAG
000996: 13,3664           27701                                    MID2
000997: 13,3665           21603                                    LOADTIME
000998: 13,3666           44215                           DAD      BDSU
000999: 13,3667           11171                                    TIMEDELT
001000: 13,3670           01115                                    TDEC
001001: 13,3671           45044                           BPL      CALL
001002: 13,3672           27315                                    TESTLOOP                              #  YES
001003: 13,3673           27711                                    NOTIME
001004:
001005: 13,3674           43234        TIMEINC            RTB      DAD
001006: 13,3675           21603                                    LOADTIME
001007: 13,3676           11171                                    TIMEDELT
001008:


001010: 13,3677           35115                           STCALL   TDEC
001011: 13,3700           27315                                    TESTLOOP
001012:
001013: 13,3701           45345        MID2               DLOAD    DSU
001014: 13,3702           01115                                    TDEC
001015: 13,3703           01517                                    TET
001016: 13,3704           45246                           ABS      DSU
001017: 13,3705           11167                                    3CSECS
001018: 13,3706           52040                           BMN      GOTO
001019: 13,3707           27215                                    A-PCHK
001020: 13,3710           27674                                    TIMEINC
001021:
001022: 13,3711           77414        NOTIME             CLEAR    EXIT                                  #  TOO LATE
001023: 13,3712           04674                                    MID1FLAG
001024: 13,3713           25744                           INCR     IRETURN1                              #  SET ERROR EXIT (CALLOC +2)
001025: 13,3714           05571                           TC       ALARM                                 #  INSUFFICIENT TIME FOR INTEGRATION --
001026: 13,3715           01703                           OCT      1703                                  #     TIG WILL BE SLIPPED...
001027: 13,3716           06060                           TC       INTPRET
001028: 13,3717           77616                           RVQ
001029:
001030: 04,2000                                           SETLOC   UPDATE2
001031: 04,2000                                           BANK
001032: 04,3166                                           COUNT*   $$/INTIN
001033:
001034: 04,3166           00000 00003  3CSECS             2DEC     3          B-28
001035: 04,3170           00000 03720  TIMEDELT           2DEC     2000       B-28
001036:
001037: 04,3172  E3,1706                                  EBANK=   TEPHEM
001038: 04,3172                                           COUNT*   $$/INTIN
001039:
001040: 04,3172           06060        INTWAKEU           TC       INTPRET
001041:
001042: 04,3173           53135                           SLOAD    BZE                                   #  IS THIS A CSM/LEM STATE VECTOR UPDATE
001043: 04,3174           01502                                    UPSVFLAG                              #  REQUEST. IF NOT GO TO INTWAKUP.
001044: 04,3175           11241                                    INTWAKUP
001045:
001046: 04,3176           77775                           VLOAD                                          #  MOVE RRECT(6) AND VRECT(6) INTO
001047: 04,3177           01503                                    RRECT                                 #       RCV(6)   AND VCV(6)   RESPECTIVELY.
001048: 04,3200           25535                           STOVL    RCV
001049: 04,3201           01511                                    VRECT                                 #  NOW GO TO 'RECTIFY +13D' TO
001050: 04,3202           77624                           CALL                                           #  STORE VRECT INTO VCV  AND ZERO OUT
001051: 04,3203           27735                                    RECTIFY    +13D                       #  TDELTAV(6),TNUV(6),TC(2) AND XKEP(2)
001052: 04,3204           51535                           SLOAD    ABS                                   #  COMPARE ABSOLUTE VALUE OF 'UPSVFLAG'
001053: 04,3205           01502                                    UPSVFLAG                              #  TO 'UPDATE MOON STATE VECTOR CODE'
001054: 04,3206           53025                           DSU      BZE                                   #  TO DETERMINE WHETHER THE STATE VECTOR TO
001055: 04,3207           11250                                    UPMNSVCD                              #  BE UPDATED IS IN THE EARTH OR LUNAR
001056: 04,3210           11215                                    INTWAKEM                              #  SPHERE OF INFLUENCE.........
001057: 04,3211           43174                           AXT,2    CLRGO                                 #  EARTH SPHERE OF INFLUENCE.
001058: 04,3212           00000                           DEC      0          B-14
001059:


001061: 04,3213           00223                                    MOONFLAG
001062: 04,3214           11220                                    INTWAKEC
001063: 04,3215           43174        INTWAKEM           AXT,2    SET                                   #  LUNAR SPHERE OF INFLUENCE.
001064: 04,3216           00002                           DEC      2          B-14
001065: 04,3217           00063                                    MOONFLAG
001066: 04,3220           50135        INTWAKEC           SLOAD    BMN                                   #  COMMON CODING AFTER X2 INITIALIZED AND
001067:                                                                                                  #  MOONFLAG SET (OR CLEARED).
001068: 04,3221           01502                                    UPSVFLAG                              #  IS THIS A REQUEST FOR A LEM OR CSM
001069: 04,3222           11230                                    INTWAKLM                              #   STATE VECTOR UPDATE......
001070: 04,3223           77624                           CALL                                           #  UPDATE CSM STATE VECTOR
001071: 04,3224           26717                                    ATOPCSM
001072:
001073: 04,3225           52014                           CLEAR    GOTO
001074: 04,3226           01671                                    ORBWFLAG
001075: 04,3227           11232                                    INTWAKEX
001076:
001077: 04,3230           77624        INTWAKLM           CALL                                           #  UPDATE LM STATE VECTOR
001078: 04,3231           26772                                    ATOPLEM
001079:
001080: 04,3232           77414        INTWAKEX           CLEAR    EXIT
001081: 04,3233           02676                                    RENDWFLG
001082:
001083: 04,3234           34746                           CAF      ZERO
001084: 04,3235           00006                           EXTEND
001085: 04,3236           01077                           WRITE    CHAN77                                #  ZERO CHANNEL 77
001086: 04,3237  E3,1501                                  EBANK=   UPSVFLAG
001087: 04,3237           55501                           TS       UPSVFLAG
001088:
001089: 04,3240           06060                           TC       INTPRET
001090: 04,3241           77624        INTWAKUP           CALL
001091: 04,3242           27456                                    INTWAKE0                              #  RELEASE  :GRAB: OF ORBIT INTEG
001092: 04,3243           77776                           EXIT
001093:
001094: 04,3244           05355                           TC       PHASCHNG
001095: 04,3245           04026                           OCT      04026
001096: 04,3246           03714                           TC       UPOUT      +1
001097:
001098: 04,3247           00002        UPMNSVCD           OCT      2
001099: 04,3250           00000                           OCT      0
001100:
001101: 24,2000                                           SETLOC   ORBITAL4
001102: 24,2000                                           BANK
001103: 24,3770                                           COUNT*   $$/INTIN
001104:
001105: 24,3770           77420        GRP2PC             STQ      EXIT
001106: 24,3771           02711                                    GRP2SVQ
001107: 24,3772           05355                           TC       PHASCHNG
001108: 24,3773           04022                           OCT      04022
001109: 24,3774           06060                           TC       INTPRET


001111: 24,3775           77650                           GOTO
001112: 24,3776           02711                                    GRP2SVQ

End of include-file INTEGRATION_INITIALIZATION.agc.  Parent file is MAIN.agc


