
Source Code


000002:                                                                                                  ## Copyright:   Public domain.
000003:                                                                                                  ## Filename:    INTERRUPT_LEAD_INS.agc
000004:                                                                                                  ## Purpose:     A section of Luminary revision 210.
000005:                                                                                                  ##              It is part of the source code for the Lunar Module's (LM)
000006:                                                                                                  ##              Apollo Guidance Computer (AGC) for Apollo 15-17.
000007:                                                                                                  ##              This file is intended to be a faithful transcription, except
000008:                                                                                                  ##              that the code format has been changed to conform to the
000009:                                                                                                  ##              requirements of the yaYUL assembler rather than the
000010:                                                                                                  ##              original YUL assembler.
000011:                                                                                                  ## Reference:   pp. 163-164
000012:                                                                                                  ## Assembler:   yaYUL
000013:                                                                                                  ## Contact:     Ron Burkey <info@sandroid.org>.
000014:                                                                                                  ## Website:     www.ibiblio.org/apollo/index.html
000015:                                                                                                  ## Mod history: 2016-11-17 JL   Created from Luminary131 version.
000016:                                                                                                  ##              2017-11-20 HG   Transcribed
000017:


000019:    4000                                           SETLOC   4000
000020:
000021:    4000                                           COUNT*   $$/RUPTS                              #  FIX-FIX LEAD INS
000022:    4000           00004                           INHINT                                         #  GO
000023:    4001           34054                           CAF      GOBB
000024:    4002           56006                           XCH      BBANK
000025:    4003           12671                           TCF      GOPROG
000026:
000027:    4004           52011                           DXCH     ARUPT                                 #  T6RUPT
000028:    4005           00006                           EXTEND
000029:    4006           34056                           DCA      T6ADR
000030:    4007           52006                           DTCB
000031:
000032:    4010           52011                           DXCH     ARUPT                                 #  T5RUPT -- AUTOPILOT
000033:    4011           00006                           EXTEND
000034:    4012           31263                           DCA      T5ADR
000035:    4013           52006                           DTCB
000036:
000037:    4014           52011                           DXCH     ARUPT                                 #  T3RUPT
000038:    4015           34057                           CAF      T3RPTBB
000039:    4016           56006                           XCH      BBANK
000040:    4017           13412                           TCF      T3RUPT
000041:
000042:    4020           52011                           DXCH     ARUPT                                 #  T4RUPT
000043:    4021           34064                           CAF      T4RPTBB
000044:    4022           56006                           XCH      BBANK
000045:    4023           12000                           TCF      T4RUPT
000046:
000047:    4024           52011                           DXCH     ARUPT                                 #  KEYRUPT1
000048:    4025           34060                           CAF      KEYRPTBB
000049:    4026           56006                           XCH      BBANK
000050:    4027           13257                           TCF      KEYRUPT1
000051:
000052:    4030           52011                           DXCH     ARUPT                                 #  KEYRUPT2
000053:    4031           34061                           CAF      MKRUPTBB
000054:    4032           56006                           XCH      BBANK
000055:    4033           12354                           TCF      MARKRUPT
000056:
000057:    4034           52011                           DXCH     ARUPT                                 #  UPRUPT
000058:    4035           34060                           CAF      UPRPTBB
000059:    4036           56006                           XCH      BBANK
000060:    4037           13302                           TCF      UPRUPT
000061:
000062:    4040           52011                           DXCH     ARUPT                                 #  DOWNRUPT
000063:    4041           34062                           CAF      DWNRPTBB
000064:    4042           56006                           XCH      BBANK
000065:    4043           13507                           TCF      DODOWNTM
000066:
000067:    4044           52011                           DXCH     ARUPT                                 #  RADAR RUPT
000068:    4045           34063                           CAF      RDRPTBB


000070:    4046           56006                           XCH      BBANK
000071:    4047           13157                           TCF      RADAREAD
000072:
000073:    4050           52011                           DXCH     ARUPT                                 #  RUPT10 IS USED ONLY BY LANDING GUIDANCE
000074:    4051           34065                           CA       RUPT10BB
000075:    4052           56006                           XCH      BBANK
000076:    4053           12302                           TCF      PITFALL
000077:
000078:    4054  E3,1400                                  EBANK=   LST1                                  #  RESTART USES E0,E3
000079:    4054           12103        GOBB               BBCON    GOPROG
000080:
000081:    4055  E6,1464                                  EBANK=   PERROR
000082:    4055           02117 36106  T6ADR              2CADR    DOT6RUPT
000083:
000084:    4057  E3,1400                                  EBANK=   LST1
000085:    4057           02103        T3RPTBB            BBCON    T3RUPT
000086:
000087:    4060     0073                                  EBANK=   KEYTEMP1
000088:    4060           10100        KEYRPTBB           BBCON    KEYRUPT1
000089:
000090:    4061  E7,1404                                  EBANK=   AOTAZ
000091:    4061           16107        MKRUPTBB           BBCON    MARKRUPT
000092:
000093:    4062     4060               UPRPTBB            =        KEYRPTBB
000094:
000095:    4062     0340                                  EBANK=   DNTMBUFF
000096:    4062           12100        DWNRPTBB           BBCON    DODOWNTM
000097:
000098:    4063  E7,1453                                  EBANK=   TTOGO
000099:    4063           52107        RDRPTBB            BBCON    RADAREAD
000100:
000101:    4064  E6,1414                                  EBANK=   M11
000102:    4064           14106        T4RPTBB            BBCON    T4RUPT
000103:
000104:    4065  E7,1647                                  EBANK=   ELVIRA
000105:    4065           22107        RUPT10BB           BBCON    PITFALL
000106:

End of include-file INTERRUPT_LEAD_INS.agc.  Parent file is MAIN.agc


