
Source Code


000002:                                                                                                  ## Copyright:   Public domain.
000003:                                                                                                  ## Filename:    INTEGRATION_INITIALIZATION.agc
000004:                                                                                                  ## Purpose:     A section of Luminary revision 210.
000005:                                                                                                  ##              It is part of the source code for the Lunar Module's (LM)
000006:                                                                                                  ##              Apollo Guidance Computer (AGC) for Apollo 15-17.
000007:                                                                                                  ##              This file is intended to be a faithful transcription, except
000008:                                                                                                  ##              that the code format has been changed to conform to the
000009:                                                                                                  ##              requirements of the yaYUL assembler rather than the
000010:                                                                                                  ##              original YUL assembler.
000011:                                                                                                  ## Reference:   pp. 1202-1224
000012:                                                                                                  ## Assembler:   yaYUL
000013:                                                                                                  ## Contact:     Ron Burkey <info@sandroid.org>.
000014:                                                                                                  ## Website:     www.ibiblio.org/apollo/index.html
000015:                                                                                                  ## Mod history: 2016-11-17 JL   Created from Luminary131 version.
000016:                                                                                                  ##              2016-12-1x HG   Transcribed
000017:                                                                                                  ##              2016-12-26 RSB  Comment-text proofed using ProoferComments
000018:                                                                                                  ##                              and corrected errors found.
000019:                                                                                                  ##              2017-03-13 RSB  Comment-text fixes noted in proofing Luminary 116.
000020:                                                                                                  ##              2017-03-15 RSB  Comment-text fixes identified in 5-way
000021:                                                                                                  ##                              side-by-side diff of Luminary 69/99/116/131/210.
000022:                                                                                                  ##              2017-08-19 MAS  Fixed comment errors found transcribing Zerlina 56.
000023:


000025:                                                                                                  #  1.0 INTRODUCTION
000026:                                                                                                  #  ----------------
000027:
000028:                                                                                                  #  FROM A USERS POINT OF VIEW, ORBITAL INTEGRATION IS ESSENTIALLY THE SAME AS THE 278 INTEGRATION
000029:                                                                                                  #  PROGRAM. THE SAME ENTRANCES TO THE PROGRAM WILL BE MAINTAINED, THE SAME STALLING ROUTINE WILL BE USED AND
000030:                                                                                                  #  OUTPUT WILL STILL BE VIA THE PUSHLIST. THE PRIMARY DIFFERENCES TO A USER INVOLVE THE ADDED CAPABILITY OF
000031:                                                                                                  #  TERMINATING INTEGRATION AT A SPECIFIC FINAL RADIUS AND THE DIFFERENCE IN STATE VECTOR SCALING INSIDE AND OUT-
000032:                                                                                                  #  SIDE THE LUNAR SPHERE OF INFLUENCE.
000033:
000034:                                                                                                  #  IN ORDER TO MAKE THE CSM(LEM)PREC AND CSM(LEM)CONIC ENTRANCES SIMILAR TO FLIGHT 278, THE INTEGRATION PROGRAM
000035:                                                                                                  #  WILL ITSELF SET THE FINAL RADIUS (RFINAL) TO 0 SO THAT REACHING THE DESIRED TIME ONLY WILL TERMINATE
000036:                                                                                                  #  INTEGRATION. THE DP REGISTER RFINAL MUST BE SET BY USERS OF INTEGRVS AND INTEGRV, AND MUST BE DONE AFTER THE
000037:                                                                                                  #  CALL TC INTSTALL.
000038:
000039:                                                                                                  #  WHEN THE LM IS ON THE LUNAR SURFACE (INDICATED BY LUNAR SURFACE FLAG SET) CALLS TO LEMCONIC, LEMPREC, AND
000040:                                                                                                  #  INTEGRV WITH VINFLAG = 0 WILL RESULT IN THE USE OF THE PLANETARY INERTIAL ORIENTATION SUBROUTINES TO PROVIDE
000041:                                                                                                  #  BOTH THE LMS POSITION AND VELOCITY IN THE REFERENCE COORDINATE  SYSTEM.
000042:                                                                                                  #  THE PROGRAM WILL PROVIDE OUTPUT AS IF INTEGRATION WAS USED. THAT IS, THE PUSHLIST WILL BE SET AS NOTED BELOW AND
000043:                                                                                                  #  THE PERMANENT STATE VECTOR UPDATED WHEN SPECIFIED BY AN INTEGRV CALL.
000044:
000045:                                                                                                  #  USERS OF INTEGRVS DESIRING INTEGRATION (INTYPFLG = 0) SHOULD NOTE THAT THE OBLATENESS PERTURBATION COMPUTATION
000046:                                                                                                  #  IN LUNAR ORBIT IS TIME DEPENDENT. THEREFORE, THE USER SHOULD SUPPLY AN INITIAL STATE VECTOR VALID AT SOME REAL
000047:                                                                                                  #  TIME AND THE DESIRED TIME (TDEC1) ALSO AT SOME REAL TIME. FOR CONIC ,,INTEGRATION,, THE USER MAY STILL USE ZERO
000048:                                                                                                  #  AS THE INITIAL TIME AND DELTA TIME AS THE DESIRED TIME.
000049:
000050:                                                                                                  #  2.0 GENERAL DESCRIPTION
000051:                                                                                                  #  -----------------------
000052:
000053:                                                                                                  #  THE INTEGRATION PROGRAM OPERATES AS A CLOSED INTERPRETIVE SUBROUTINE AND PERFORMS THESE FUNCTIONS---
000054:                                                                                                  #     1) INTEGRATES (PRECISION OR CONIC) EITHER CSM OR LM STATE VECTOR
000055:                                                                                                  #     2) INTEGRATES THE W-MATRIX
000056:                                                                                                  #     3) PERMANENT OR TEMPORARY UPDATE OF THE STATE VECTOR
000057:
000058:                                                                                                  #  THERE ARE SIX ENTRANCES TO THE INTEGRATION PROGRAM. FOUR OF THESE (CSMPREC, LEMPREC, CSMCONIC, LEMCONIC) SET
000059:                                                                                                  #  ALL THE FLAGS REQUIRED IN THE INTEGRATION PROGRAM ITSELF TO CAUSE THE PRECISION OR CONIC INTEGRATION (KEPLER) OF
000060:                                                                                                  #  THE LM OR CSM STATE VECTOR, AS THE NAMES SUGGEST. ONE ENTRANCE (INTEGRVS) PERMITS THE CALLING PROGRAM TO
000061:                                                                                                  #  PROVIDE A STATE VECTOR TO BE INTEGRATED. THE CALLING PROGRAM MUST SET THE FLAGS INDICATING (1) PRECISION OR
000062:                                                                                                  #  CONIC INTEGRATION, (2) IN OR OUT OF LUNAR SPHERE, (3) MIDCOURSE OR NOT, AND THE INTEGRATION PROGRAM COMPLETES
000063:                                                                                                  #  THE FLAG SETTING TO BYPASS W-MATRIX INTEGRATION. THE LAST ENTRANCE (INTEGRV, USED IN GENERAL BY THE
000064:                                                                                                  #  NAVIGATION PROGRAMS) PERMITS THE CALLER TO SET FIVE FLAGS (NOT MOONFLAG OR MIDFLAG) BUT NOT TO INPUT A STATE
000065:                                                                                                  #  VECTOR. ANY PROGRAM WHICH CALLS INTEGRVS OR INTEGRV MUST CALL INTSTALL BEFORE IT SETS THE INTEGRATION FLAGS
000066:                                                                                                  #  AND/OR STATE VECTOR.
000067:
000068:                                                                                                  #  THREE SETS OF 42 REGISTERS AND 2 FLAGS ARE USED FOR THE STATE VECTORS. TWO SETS, WHICH MAY NOT BE OVERLAYED, ARE
000069:                                                                                                  #  USED FOR THE PERMANENT STATE VECTORS FOR THE CSM AND LM. THE THIRD SET, WHICH MAY BE OVERLAYED WHEN INTEGRATION
000070:                                                                                                  #  IS NOT BEING DONE, IS USED IN THE COMPUTATIONS.
000071:
000072:                                                                                                  #  THE PERMANENT STATE VECTORS WILL BE PERIODICALLY UPDATED SO THAT THE VECTORS WILL NOT BE OLDER THAN 4 TIMESTEPS.
000073:                                                                                                  #  THE PERMANENT STATE VECTORS WILL ALSO BE UPDATED WHENEVER THE W-MATRIX IS INTEGRATED OR WHEN A CALLER OF INTEGRV
000074:                                                                                                  #  SETS STATEFLG (THE NAVIGATION PROGRAMS P20, P22.)
000075:


000077:                                                                                                  #  APPENDIX B OF THE USERS GUIDE LISTS THE STATE VECTOR QUANTITIES.
000078:
000079:                                                                                                  #  2.1 RESTARTS
000080:
000081:                                                                                                  #  PHASE CHANGES WILL BE MADE IN THE INTEGRATION PROGRAM ONLY FOR THE INTEGRV ENTRANCE (I.E., WHEN THE W-MATRIX IS
000082:                                                                                                  #  INTEGRATED OR PERMANENT STATE VECTOR IS UPDATED.) THE GROUP NUMBER USED WILL BE THAT FOR THE P20-25 PROGRAMS
000083:                                                                                                  #  (I.E., GROUP2) SINCE THE INTEGRV ENTRANCE WILL ONLY BE USED BY THESE PROGRAMS. IF A RESTART OCCURS DURING AN
000084:                                                                                                  #  INTEGRATION OF THE STATE VECTOR ONLY, THE RECOVERY WILL BE TO THE LAST PHASE IN THE CALLING PROGRAM. CALLING
000085:                                                                                                  #  PROGRAMS WHICH USE THE INTEGRV OR INTEGRVS ENTRANCE OF INTEGRATION SHOULD ENSURE THAT IF PHASE CHANGING IS DONE
000086:                                                                                                  #  THAT IT IS PRIOR TO SETTING THE INTEGRATION INPUTS IN THE PUSHLIST.
000087:                                                                                                  #  THIS IS BECAUSE THE PUSHLIST IS LOST DURING A RESTART.
000088:
000089:                                                                                                  #  2.2 SCALING
000090:
000091:                                                                                                  #  THE INTEGRATION ROUTINE WILL MAINTAIN THE PERMANENT MEMORY STATE VECTORS IN THE SCALING AND UNITS DEFINED IN
000092:                                                                                                  #  APPENDIX B OF THE USERS GUIDE. THE SCALING OF THE OUTPUT POSITION VECTORDEPENDS ON THE ORIGIN OF THE COORDINATE
000093:                                                                                                  #   SYSTEM AT THE DESIRED INTEGRATION TIME. THE COORDINATE SYSTEM TRANSFORMATION WILL BE DONE AUTOMATICALLY ON
000094:                                                                                                  #  MULTIPLE TIMESTEP ENCKE INTEGRATION ONLY. THUS IT IS POSSIBLE TO HAVE OUTPUT FROM SUCCESSIVE INTEGRATIONS IN
000095:                                                                                                  #  DIFFERENT SCALING.
000096:                                                                                                  #  HOWEVER, RATT, VATT WILL ALWAYS BE SCALED THE SAME.
000097:
000098:                                                                                                  #  3.0 INPUT/OUTPUT
000099:                                                                                                  #  ----------------
000100:
000101:                                                                                                  #  PROGRAM INPUTS ARE THE FLAGS DESCRIBED IN APPENDIX A AND THE PERMANENT STATE VECTOR QUANTITIES DESCRIBED IN AP-
000102:                                                                                                  #  PENDIX B OF THE USERS GUIDE, PLUS THE DESIRED TIME TO INTEGRATE TO IN TDEC1 (A PUSH LIST LOCATION).
000103:                                                                                                  #  FOR INTEGRVS, THE RCV,VCV, TET OF THE TEMPORARY STATE VECTOR MUST BE SET, PLUS MOONFLAG AND MIDFLAG
000104:
000105:                                                                                                  #  FOR SIMULATION THE FOLLOWING QUANTITIES MUST BE PRESET ---
000106:                                                                                                  #                                                             EARTH  MOON
000107:                                                                                                  #                                                              29     27
000108:                                                                                                  #     RRECTCSM(LEM)  - RECTIFIED POSITION VECTOR      METERS  2      2
000109:
000110:                                                                                                  #                                                              7       5
000111:                                                                                                  #     VRECTCSM(LEM)  - RECTIFIED VELOCITY VECTOR      M/CSEC  2    2
000112:
000113:                                                                                                  #                                                              28     28
000114:                                                                                                  #     TETCSM(LEM)    - TIME STATE VECTOR IS VALID     CSEC    2      2
000115:                                                                                                  #                      CUSTOMARILY 0, BUT NOTE LUNAR
000116:                                                                                                  #                      ORBIT DEPENDENCE ON REAL TIME.
000117:
000118:                                                                                                  #                                                              22     18
000119:                                                                                                  #     DELTAVCSM(LEM) - POSITION DEVIATION             METERS  2      2
000120:                                                                                                  #                      0 IF TCCSM(LEM) = 0
000121:
000122:                                                                                                  #                                                              3      -1
000123:                                                                                                  #     NUVCSM(LEM)    - VELOCITY DEVIATION             M/CSEC  2      2
000124:                                                                                                  #                      0 IF TCCSM(LEM) = 0
000125:


000127:                                                                                                  #                                                              29     27
000128:                                                                                                  #     RCVCSM(LEM)    - CONIC POSITION                 METERS  2      2
000129:                                                                                                  #                      EQUALS RRECTCSM(LEM) IF
000130:                                                                                                  #                      TCCSM(LEM) = 0
000131:
000132:                                                                                                  #                                                              7      5
000133:                                                                                                  #     VCVCSM(LEM)    - CONIC VELOCITY                 M/CSEC  2      2
000134:                                                                                                  #                      EQUALS VRECTCSM(LEM) IF
000135:                                                                                                  #                      TCCSM(LEM) = 0
000136:
000137:                                                                                                  #                                                              28     28
000138:                                                                                                  #     TCCSM(LEM)     - TIME SINCE RECTIFICATION       CSECS   2      2
000139:                                                                                                  #                      CUSTOMARILY 0
000140:
000141:                                                                                                  #                                                      1/2     17     16
000142:                                                                                                  #     XKEPCSM(LEM)   - ROOT OF KEPLERS EQUATION       M       2      2
000143:                                                                                                  #                      0 IF TCCSM(LEM) = 0
000144:
000145:                                                                                                  #     CMOONFLG       - PERMANENT FLAGS CORRESPONDING          0      0
000146:                                                                                                  #     CMIDFLAG         TO MOONFLAG AND MIDFLAG                0,1    0,1
000147:                                                                                                  #     LMOONFLG         C = CSM, L = LM                        0      0
000148:                                                                                                  #     LMIDFLG                                                 0,1    0,1
000149:
000150:                                                                                                  #     SURFFLAG       - LUNAR SURFACE FLAG                     0,1    0,1
000151:
000152:                                                                                                  #  IN ADDITION, IF (L)CMIDFLAG IS SET, THE INITIAL INPUT VALUES FOR LUNAR
000153:                                                                                                  #  SOLAR EPHEMERIDES SUBROUTINE AND PLANETARY INERTIAL ORIENTATION SUB-
000154:                                                                                                  #  ROUTINE MUST BE PRESET.
000155:
000156:                                                                                                  #  OUTPUT
000157:                                                                                                  #  AFTER EVERY CALL TO INTEGRATION
000158:                                                                                                  #                                                             EARTH  MOON
000159:                                                                                                  #                                                              29     29
000160:                                                                                                  #      0D   RATT   POSITION                           METERS  2      2
000161:                                                                                                  #                                                              7      7
000162:                                                                                                  #      6D   VATT   VELOCITY                           M/CSEC  2      2
000163:                                                                                                  #                                                              28     28
000164:                                                                                                  #     12D   TAT    TIME                                       2      2
000165:                                                                                                  #                                                              29     27
000166:                                                                                                  #     14D   RATT1  POSITION                           METERS  2      2
000167:                                                                                                  #                                                              7      5
000168:                                                                                                  #     20D   VATT1  VELOCITY                           M/CSEC  2      2
000169:                                                                                                  #                                                      3   2   36     30
000170:                                                                                                  #     26D   MU(P)  MU                                 M /CS   2      2
000171:
000172:                                                                                                  #     X1           MUTABLE ENTRY                              -2     -10D
000173:
000174:                                                                                                  #     X2           COORDINT
000175:                                                                                                  #     X2           COORDINATE SYSTEM ORIGEN                   0      2
000176:                                                                                                  #                  (THIS, NOT MOONFLAG, SHOULD BE
000177:


000179:                                                                                                  #                  USED TO DETERMINE ORIGIN.)
000180:
000181:                                                                                                  #  IN ADDITION TO THE ABOVE, THE PERMANENT STATE VECTOR IS UPDATED WHENEVER
000182:                                                                                                  #  STATEFLG WAS SET AND WHENEVER A W-MATRIX IS TO BE INTEGRATED. THE PUSH
000183:                                                                                                  #  COUNTER IS SET TO 0 AND OVERFLOW IS CLEARED BEFORE RETURNING TO THE
000184:                                                                                                  #  CALLING PROGRAM.
000185:
000186:                                                                                                  #  4.0 CALLING SEQUENCES AND SAMPLE CODE
000187:                                                                                                  #  -------------------------------------
000188:
000189:                                                                                                  #     A) PRECISION ORBITAL INTEGRATION. CSMPREC,LEMPREC ENTRANCES
000190:                                                                                                  #           L-X    STORE TIME TO 95T5791T5 T  95 PUS  L9ST (T4531)
000191:                                                                                                  #           L      CALL
000192:                                                                                                  #           L+1           CSMPREC (OR LEMPREC)
000193:                                                                                                  #           L+2    RETURN
000194:                                                                                                  #        INPUT                                                         28
000195:                                                                                                  #           TDEC1 (PD 32D) TIME TO INTEGRATE TO...CENTISECONDS SCALED 2
000196:                                                                                                  #        OUTPUT
000197:                                                                                                  #           THE DATA LISTED IN SECTION 3.0 PLUS
000198:                                                                                                  #           RQVV   POSITION VECTOR OF VEHICLE WITH RESPECT TO SECONDARY
000199:                                                                                                  #           BODY... METERS B-29 ONLY IF MIDFLAG = DIMOFLAG = 1
000200:                                                                                                  #     B) CONIC INTEGRATION. CSMCONIC, LEMCONIC ENTRANCES
000201:                                                                                                  #           L-X    STORE TIME IN PUSH LIST (TDEC1)
000202:                                                                                                  #           L      CALL
000203:                                                                                                  #           L+1           CSMCONIC (OR LEMCONIC)
000204:                                                                                                  #        INPUT/OUTPUT
000205:                                                                                                  #           SAME AS PRECISION INTEGRATION, EXCEPT RQVV NOT SET
000206:                                                                                                  #     C) INTEGRATE GIVEN STATE VECTOR. INTEGRVS ENTRANCE
000207:                                                                                                  #                  CALL
000208:                                                                                                  #                         INTSTALL
000209:                                                                                                  #                  VLOAD
000210:                                                                                                  #                         POSITION VECTOR
000211:                                                                                                  #                  STOVL  RCV
000212:                                                                                                  #                         VELOCITY VECTOR
000213:                                                                                                  #                  STODL  VCV
000214:                                                                                                  #                         TIME STATE VECTOR VALID
000215:                                                                                                  #                  STODL  TET
000216:                                                                                                  #                         FINAL RADIUS
000217:                                                                                                  #                  STORE  RFINAL
000218:                                                                                                  #                  SET(CLEAR)  SET(CLEAR)
000219:                                                                                                  #                              INTYPFLAG
000220:                                                                                                  #                              MOONFLAG
000221:                                                                                                  #                  SET(CLEAR)  DLOAD
000222:                                                                                                  #                              DESIRED TIME
000223:                                                                                                  #                  STCALL      TDEC1
000224:                                                                                                  #                              INTEGRVS
000225:                                                                                                  #        INPUT
000226:                                                                                                  #           RCV    POSITION VECTOR                  METERS
000227:                                                                                                  #           VCV    VELOCITY VECTOR                  M/CSEC
000228:                                                                                                  #           TET    TIME OF STATE VECTOR(MAY = 0)    CSEC B-28
000229:


000231:                                                                                                  #           TDEC1  TIME TO INTEGRATE TO             CSEC B-28 (PD 32D)
000232:                                                                                                  #                  (MAY BE INCREMENT IF TET=0)
000233:                                                                                                  #        OUTPUT
000234:                                                                                                  #           SAME AS FOR PRECISION OR CONIC INTEGRATION,
000235:                                                                                                  #           DEPENDING ON INTYPFLG.
000236:                                                                                                  #     D) INTEGRATE STATE VECTOR.INTGRV ENTRANCE
000237:                                                                                                  #           L-X    STORE TIME IN PUSH LIST (TDEC1)(MAY BE DONE AFTER CALL TO INTSTALL)
000238:                                                                                                  #           L-8    CALL
000239:                                                                                                  #           L-7
000240:                                                                                                  #           L-6    SET(CLEAR) SET(CLEAR)
000241:                                                                                                  #           L-5               VINTFLAG   1=CSM, 0=LM
000242:                                                                                                  #           L-4               INTYPFLAG  1=CONIC, 0=PRECISION
000243:                                                                                                  #           L-3    SET(CLEAR) SET(CLEAR)
000244:                                                                                                  #           L-2               DIMOFLAG   1=W-MATRIX, 0=NO W-MATRIX
000245:                                                                                                  #           L-1               D6OR9FLG   1=9X9, 0=6X6
000246:                                                                                                  #           L      SET        DLOAD
000247:                                                                                                  #           L+1               STATEFLG   DESIRE PERMANENT UPDATE
000248:                                                                                                  #           L+2               FINAL RAD. OF STATE VECTOR
000249:                                                                                                  #           L+3    STCALL     RFINAL
000250:                                                                                                  #           L+4               INTEGRV
000251:                                                                                                  #           L      CALL                  NORMAL USE -- WILL UPDATE STATE
000252:                                                                                                  #           L+1               INTEGRV    VECTOR IF DIMOFLAG=1.(STATEFLG IS
000253:                                                                                                  #           L+2    RETURN                ALWAYS RESET IN INTEGRATION AFTER
000254:                                                                                                  #                                        IT IS USED.)
000255:                                                                                                  #        INPUT
000256:                                                                                                  #           TDEC1 (PD 32D) TIME TO INTEGRATE TO     CSEC B-28
000257:                                                                                                  #        OUTPUT
000258:                                                                                                  #           SAME AS FOR PRECISION OR CONIC INTEGRATION
000259:                                                                                                  #        THE PROGRAM WILL SET MOONFLAG, MIDFLAG DEPENDING ON
000260:                                                                                                  #        THE PERMANENT STATE VECTOR REPRESENTATION.
000261:
000262: 11,2403                                           BANK     11
000263: 13,2000                                           SETLOC   INTINIT
000264: 13,2000                                           BANK
000265: 13,2641  E3,1554                                  EBANK=   RRECTCSM
000266: 13,2641                                           COUNT*   $$/INTIN
000267: 13,2641           05355        STATEINT           TC       PHASCHNG
000268: 13,2642           00052                           OCT      00052
000269: 13,2643           35010                           CAF      PRIO5
000270: 13,2644           05076                           TC       FINDVAC
000271: 13,2645  E3,1554                                  EBANK=   RRECTCSM
000272: 13,2645           02650 26063                     2CADR    STATINT1
000273: 13,2647           05263                           TC       TASKOVER
000274: 13,2650           06060        STATINT1           TC       INTPRET
000275: 13,2651           47014                           BON      RTB
000276: 13,2652           04712                                    QUITFLAG                              #  KILL INTEGRATION UNTIL NEXT POO.
000277: 13,2653           26711                                    NOINT
000278: 13,2654           21603                                    LOADTIME
000279: 13,2655           00041                           STORE    TDEC1
000280:


000282: 13,2656           77624                           CALL
000283: 13,2657           27447                                    INTSTALL
000284: 13,2660           45014                           SET      CALL
000285: 13,2661           01076                                    NODOFLAG
000286: 13,2662           26702                                    SETIFLGS
000287: 13,2663           52014                           SET      GOTO
000288: 13,2664           01460                                    POOHFLAG
000289: 13,2665           26026                                    STATEUP
000290: 13,2666           00003 25140  600SECS            2DEC     60000      B-28
000291:
000292: 13,2670           77414        ENDINT             CLEAR    EXIT
000293: 13,2671           01672                                    STATEFLG
000294: 13,2672           05355                           TC       PHASCHNG
000295: 13,2673           20032                           OCT      20032
000296: 13,2674           00006                           EXTEND
000297: 13,2675           32667                           DCA      600SECS
000298: 13,2676           05301                           TC       LONGCALL
000299: 13,2677  E3,1626                                  EBANK=   RRECTHIS
000300: 13,2677           02641 26063                     2CADR    STATEINT
000301: 13,2701           05146                           TC       ENDOFJOB
000302: 13,2702           43014        SETIFLGS           SET      CLEAR
000303: 13,2703           01472                                    STATEFLG
000304: 13,2704           01673                                    INTYPFLG
000305: 13,2705           43014                           CLEAR    CLEAR
000306: 13,2706           01676                                    DIM0FLAG
000307: 13,2707           01675                                    D6OR9FLG
000308: 13,2710           77616                           RVQ
000309: 13,2711           77776        NOINT              EXIT
000310: 13,2712           05355                           TC       PHASCHNG
000311: 13,2713           00002                           OCT      00002
000312:
000313: 13,2714           05520                           TC       DOWNFLAG
000314: 13,2715           00221                           ADRES    QUITFLAG
000315: 13,2716           05146                           TC       ENDOFJOB
000316:
000317:                                                                                                  #  ATOPCSM TRANSFERS RRECT TO RRECT +41 TO RRECTCSM TO RRECTCSM +41
000318:
000319:                                                                                                  #  CALLING SEQUENCE
000320:                                                                                                  #     L   CALL
000321:                                                                                                  #     L+1       ATOPCSM
000322:
000323:                                                                                                  #  NORMAL EXIT AT L+2
000324:
000325: 13,2717           47020        ATOPCSM            STQ      RTB
000326: 13,2720           00051                                    S2
000327: 13,2721           26732                                    MOVEACSM
000328: 13,2722           45014                           SET      CALL
000329: 13,2723           04063                                    CMOONFLG
000330: 13,2724           26114                                    SVDWN1
000331:


000333: 13,2725           43014                           BON      CLRGO
000334: 13,2726           00303                                    MOONFLAG
000335: 13,2727           00051                                    S2
000336: 13,2730           04223                                    CMOONFLG
000337: 13,2731           00051                                    S2
000338: 13,2732           03074        MOVEACSM           TC       SETBANK
000339: 13,2733           55500                           TS       DIFEQCNT                              #  INITIALIZE INDEX
000340: 13,2734           51500                           INDEX    DIFEQCNT
000341: 13,2735           31502                           CA       RRECT
000342: 13,2736           51500                           INDEX    DIFEQCNT
000343: 13,2737           55554                           TS       RRECTCSM
000344: 13,2740           11500                           CCS      DIFEQCNT                              #  IS TRANSFER COMPLETE
000345: 13,2741           12733                           TCF      MOVEACSM   +1                         #  NO-LOOP
000346: 13,2742           06102                           TC       DANZIG                                #  COMPLETE- RETURN
000347:
000348:
000349:                                                                                                  #  PTOACSM TRANSFERS RRECTCSM TO RRECTCSM +41 TO RRECT TO RRECT +41
000350:
000351:                                                                                                  #  CALLING SEQUENCE
000352:                                                                                                  #     L   CALL
000353:                                                                                                  #              PTOACSM
000354:
000355:                                                                                                  #  NORMAL EXIT AT L+2
000356:
000357: 13,2743           43034        PTOACSM            RTB      BON
000358: 13,2744           26761                                    MOVEPCSM
000359: 13,2745           04303                                    CMOONFLG
000360: 13,2746           26754                                    SETMOON
000361: 13,2747           66214        CLRMOON            CLEAR    SSP
000362: 13,2750           00263                                    MOONFLAG
000363: 13,2751           02031                                    PBODY
000364: 13,2752           00000                                    0
000365: 13,2753           77616                           RVQ
000366: 13,2754           66214        SETMOON            SET      SSP
000367: 13,2755           00063                                    MOONFLAG
000368: 13,2756           02031                                    PBODY
000369: 13,2757           00002                                    2
000370: 13,2760           77616                           RVQ
000371: 13,2761           03074        MOVEPCSM           TC       SETBANK
000372: 13,2762           55500                           TS       DIFEQCNT
000373: 13,2763           51500                           INDEX    DIFEQCNT
000374: 13,2764           31554                           CA       RRECTCSM
000375: 13,2765           51500                           INDEX    DIFEQCNT
000376: 13,2766           55502                           TS       RRECT
000377: 13,2767           11500                           CCS      DIFEQCNT
000378: 13,2770           12762                           TCF      MOVEPCSM   +1
000379: 13,2771           06102                           TC       DANZIG
000380:
000381:
000382:                                                                                                  #  ATOPLEM  TRANSFERS RRECT TO RRECT +41 TO RRECTLEM TO RRECTLEM +41
000383:


000385: 13,2772           47020        ATOPLEM            STQ      RTB
000386: 13,2773           00051                                    S2
000387: 13,2774           27005                                    MOVEALEM
000388: 13,2775           45014                           SET      CALL
000389: 13,2776           04064                                    LMOONFLG
000390: 13,2777           26070                                    SVDWN2
000391: 13,3000           43014                           BON      CLRGO
000392: 13,3001           00303                                    MOONFLAG
000393: 13,3002           00051                                    S2
000394: 13,3003           04224                                    LMOONFLG
000395: 13,3004           00051                                    S2
000396: 13,3005           03074        MOVEALEM           TC       SETBANK
000397: 13,3006           55500                           TS       DIFEQCNT
000398: 13,3007           51500                           INDEX    DIFEQCNT
000399: 13,3010           31502                           CA       RRECT
000400: 13,3011           51500                           INDEX    DIFEQCNT
000401: 13,3012           55626                           TS       RRECTLEM
000402: 13,3013           11500                           CCS      DIFEQCNT
000403: 13,3014           13006                           TCF      MOVEALEM   +1
000404: 13,3015           06102                           TC       DANZIG
000405:
000406:
000407:                                                                                                  #  PTOALEM  TRANSFERS RRECTLEM TO RRECTLEM +41 TO RRECT TO RRECT +41
000408:
000409: 13,3016           47014        PTOALEM            BON      RTB
000410: 13,3017           04307                                    SURFFLAG
000411: 13,3020           27037                                    USEPIOS
000412: 13,3021           27026                                    MOVEPLEM
000413: 13,3022           52014                           BON      GOTO
000414: 13,3023           04304                                    LMOONFLG
000415: 13,3024           26754                                    SETMOON
000416: 13,3025           26747                                    CLRMOON
000417: 13,3026           03074        MOVEPLEM           TC       SETBANK
000418: 13,3027           55500                           TS       DIFEQCNT
000419: 13,3030           51500                           INDEX    DIFEQCNT
000420: 13,3031           31626                           CA       RRECTLEM
000421: 13,3032           51500                           INDEX    DIFEQCNT
000422: 13,3033           55502                           TS       RRECT
000423: 13,3034           11500                           CCS      DIFEQCNT
000424: 13,3035           13027                           TCF      MOVEPLEM   +1
000425: 13,3036           06102                           TC       DANZIG
000426:
000427:
000428: 13,3037           77201        USEPIOS            SETPD    VLOAD
000429: 13,3040           00001                                    0
000430: 13,3041           02021                                    RLS
000431: 13,3042           41525                           PDDL     PUSH
000432: 13,3043           00041                                    TDEC1
000433: 13,3044           15517                           STODL    TET
000434: 13,3045           27762                                    5/8
000435:


000437: 13,3046           77624                           CALL
000438: 13,3047           55716                                    RP-TO-R
000439: 13,3050           25535                           STOVL    RCV
000440: 13,3051           24001                                    ZUNIT
000441: 13,3052           14001                           STODL    0D
000442: 13,3053           01517                                    TET
000443: 13,3054           14007                           STODL    6D
000444: 13,3055           27762                                    5/8
000445: 13,3056           45014                           SET      CALL                                  #  NEEDED FOR SETTING X1 ON EXIT
000446: 13,3057           00063                                    MOONFLAG
000447: 13,3060           55716                                    RP-TO-R
000448: 13,3061           74235                           VXV      VXSC
000449: 13,3062           01535                                    RCV
000450: 13,3063           26001                                    OMEGMOON
000451: 13,3064           25543                           STOVL    VCV
000452: 13,3065           24007                                    ZEROVEC
000453: 13,3066           01521                           STORE    TDELTAV
000454: 13,3067           67174                           AXT,2    SXA,2
000455: 13,3070           00002                                    2
000456: 13,3071           02030                                    PBODY
000457: 13,3072           35527                           STCALL   TNUV
000458: 13,3073           27215                                    A-PCHK
000459: 13,3074           33100        SETBANK            CAF      INTBANK
000460: 13,3075           54006                           TS       BBANK
000461: 13,3076           33505                           CAF      FORTYONE
000462: 13,3077           00002                           TC       Q
000463: 13,3100  E3,1554                                  EBANK=   RRECTCSM
000464: 13,3100           26063        INTBANK            BBCON    INTEGRV
000465:
000466:
000467:                                                                                                  #  SPECIAL PURPOSE ENTRIES TO ORBITAL INTEGRATION.  THESE ROUTINES PROVIDE ENTRANCES TO INTEGRATION WITH
000468:                                                                                                  #  APPROPRIATE SWITCHES SET OR CLEARED FOR THE DESIRED INTEGRATION.
000469:
000470:                                                                                                  #  CSMPREC AND LEMPREC PERFORM ORBIT INTEGRATION BY THE ENCKE METHOD TO THE TIME INDICATED IN TDEC1
000471:                                                                                                  #  ACCELERATIONS DUE TO OBLATENESS ARE INCLUDED. NO W-MATRIX INT. IS DONE.
000472:                                                                                                  #  THE PERMANENT STATE VECTOR IS NOT UPDATED.
000473:                                                                                                  #  CSMCONIC AND LEMCONIC PERFORM ORBIT INTEG. BY KEPLERS METHOD TO THE TIME INDICATED IN TDEC1
000474:                                                                                                  #  NO DISTURBING ACCELERATIONS ARE INCLUDED. IN THE PROGRAM FLOW THE GIVEN
000475:                                                                                                  #  STATE VECTOR IS RECTIFIED BEFORE SOLUTION OF KEPLERS EQUATION
000476:
000477:                                                                                                  #  THE ROUTINES ASSUME THAT THE CSM (LEM) STATE VECTOR IN P-MEM IS VALID.
000478:                                                                                                  #  SWITCHES SET PRIOR TO ENTRY TO THE MAIN INTEG. PROG ARE AS FOLLOWS
000479:                                                                                                  #              CSMPREC  CSMCONIC   LEMPREC  LEMCONIC
000480:                                                                                                  #  VINTFLAG     SET       SET       CLEAR    CLEAR
000481:                                                                                                  #  INTYPFLG     CLEAR     SET       CLEAR    SET
000482:                                                                                                  #  DIM0FLAG     CLEAR     CLEAR     CLEAR    CLEAR
000483:
000484:
000485:                                                                                                  #  CALLING SEQUENCE
000486:                                                                                                  #     L-X  STORE TDEC1
000487:


000489:                                                                                                  #     L    CALL       (STCALL TDEC1)
000490:                                                                                                  #     L+1         CSMPREC (CSMCONIC, LEMPREC, LEMCONIC)
000491:
000492:                                                                                                  #   NORMAL EXIT TO L+2
000493:
000494:
000495:                                                                                                  #  SUBROUTINES CALLED
000496:                                                                                                  #    INTEGRV1
000497:                                                                                                  #    PRECOUT FOR CSMPREC AND LEMPREC
000498:                                                                                                  #    CONICOUT  FOR CSMCONIC AND LEMCONIC
000499:
000500:
000501:                                                                                                  #  OUTPUT - SEE PAGE 2 OF THIS LOG SECTION
000502:                                                                                                  #  INPUT
000503:                                                                                                  #   TDEC1   TIME TO INTEGRATE TO . CSECS B-28
000504: 13,3101           45020        CSMPREC            STQ      CALL
000505: 13,3102           00046                                    X1
000506: 13,3103           27447                                    INTSTALL
000507: 13,3104           43130                           SXA,1    SET
000508: 13,3105           02101                                    IRETURN
000509: 13,3106           01474                                    VINTFLAG
000510:
000511: 13,3107           43014        IFLAGP             SET      CLEAR
000512: 13,3110           01467                                    PRECIFLG
000513: 13,3111           01676                                    DIM0FLAG
000514: 13,3112           77614                           CLRGO
000515: 13,3113           01633                                    INTYPFLG
000516: 13,3114           27174                                    INTEGRV1
000517: 13,3115           45020        LEMPREC            STQ      CALL
000518: 13,3116           00046                                    X1
000519: 13,3117           27447                                    INTSTALL
000520: 13,3120           43130                           SXA,1    CLRGO
000521: 13,3121           02101                                    IRETURN
000522: 13,3122           01634                                    VINTFLAG
000523: 13,3123           27107                                    IFLAGP
000524:
000525: 13,3124           45020        CSMCONIC           STQ      CALL
000526: 13,3125           00046                                    X1
000527: 13,3126           27447                                    INTSTALL
000528: 13,3127           43130                           SXA,1    SET
000529: 13,3130           02101                                    IRETURN
000530: 13,3131           01474                                    VINTFLAG
000531: 13,3132           43014        IFLAGC             CLEAR    SETGO
000532: 13,3133           01676                                    DIM0FLAG
000533: 13,3134           01433                                    INTYPFLG
000534: 13,3135           27174                                    INTEGRV1
000535: 13,3136           45020        LEMCONIC           STQ      CALL
000536: 13,3137           00046                                    X1
000537: 13,3140           27447                                    INTSTALL
000538: 13,3141           43130                           SXA,1    CLRGO
000539:


000541: 13,3142           02101                                    IRETURN
000542: 13,3143           01634                                    VINTFLAG
000543: 13,3144           27132                                    IFLAGC
000544:
000545: 13,3145           66214        INTEGRVS           SET      SSP
000546: 13,3146           01467                                    PRECIFLG
000547: 13,3147           02031                                    PBODY
000548: 13,3150           00000                                    0
000549: 13,3151           66214                           BOF      SSP
000550: 13,3152           00343                                    MOONFLAG
000551: 13,3153           27156                                    +3
000552: 13,3154           02031                                    PBODY
000553: 13,3155           00002                                    2
000554: 13,3156           77220                           STQ      VLOAD
000555: 13,3157           02101                                    IRETURN
000556: 13,3160           24007                                    ZEROVEC
000557: 13,3161           01521                           STORE    TDELTAV
000558: 13,3162           35527                           STCALL   TNUV
000559: 13,3163           27720                                    RECTIFY
000560: 13,3164           43014                           CLEAR    SET
000561: 13,3165           01676                                    DIM0FLAG
000562: 13,3166           04062                                    NEWIFLG
000563: 13,3167           77614                           SETGO
000564: 13,3170           04020                                    RPQFLAG
000565: 13,3171           27206                                    ALOADED
000566:                                                                                                  #  INTEGRV IS AN ENTRY TO ORBIT INTEGRATION WHICH PERMITS THE CALLER ,
000567:                                                                                                  #  NORMALLY THE NAVIGATION PROGRAM ,TO SET THE INTEG. FLAGS. THE ROUTINE
000568:                                                                                                  #  IS ENTERED AT INTEGRV1 BY CSMPREC ET.AL. AND AT ALOADED BY INTEGRVS.
000569:                                                                                                  #  THE ROUTINE SETS UP A-MEMORY IF ENTERED AT INTEGRV,1 AND SETS THE INTEG.
000570:                                                                                                  #  PROGRAM FOR PRECISION OR CONIC
000571:
000572:                                                                                                  #  THE CALLER MUST FIRST CALL INTSTALL TO CHECK IF INTEG. IS IN USE BEFORE
000573:                                                                                                  #  SETTING ANY FLAGS.
000574:                                                                                                  #  THE FLAGS WHICH SHOULD BE SET OR CLEARED ARE
000575:                                                                                                  #    VINTFLAG    (IGNORED WHEN ENTERED FROM INTEGRVS)
000576:                                                                                                  #    INTYPFLG
000577:                                                                                                  #    DIM0FLAG
000578:                                                                                                  #    D6OR9FLG
000579:                                                                                                  #  CALLING SEQUENCE
000580:                                                                                                  #    L-X    CALL
000581:                                                                                                  #    L-Y          INTSTALL
000582:                                                                                                  #    L-1    SET OR CLEAR ALL FOUR FLAGS. ALSO CAN SET STATEFLG IF DESIRED
000583:                                                                                                  #           AND DIM0FLAG IS CLEAR.
000584:                                                                                                  #    L      CALL
000585:                                                                                                  #    L+1          INTEGRV
000586:                                                                                                  #  INITIALIZATION
000587:                                                                                                  #    FLAGS AS ABOVE
000588:                                                                                                  #    STORE TIME TO INTEGRATE TO IN TDEC1
000589:                                                                                                  #  OUTPUT
000590:                                                                                                  #    RATT   AS
000591:


000593:                                                                                                  #    VATT       DEFINED
000594:                                                                                                  #    TAT                BEFORE
000595:
000596:
000597: 13,3172           77620        INTEGRV            STQ
000598: 13,3173           02101                                    IRETURN
000599: 13,3174           43014        INTEGRV1           SET      SET
000600: 13,3175           04060                                    RPQFLAG
000601: 13,3176           04062                                    NEWIFLG
000602: 13,3177           77731        INTEGRV2           SSP
000603: 13,3200           00053                                    QPRET
000604: 13,3201           27206                                    ALOADED
000605: 13,3202           52014                           BON      GOTO
000606: 13,3203           01714                                    VINTFLAG
000607: 13,3204           26743                                    PTOACSM
000608: 13,3205           27016                                    PTOALEM
000609: 13,3206           77745        ALOADED            DLOAD
000610: 13,3207           00041                                    TDEC1
000611: 13,3210           01115                           STORE    TDEC
000612: 13,3211           52014                           BOFF     GOTO
000613: 13,3212           01753                                    INTYPFLG
000614: 13,3213           27315                                    TESTLOOP
000615: 13,3214           27301                                    RVCON
000616: 13,3215           77414        A-PCHK             BOF      EXIT
000617: 13,3216           01752                                    STATEFLG
000618: 13,3217           27236                                    RECTOUT
000619: 13,3220           05355                           TC       PHASCHNG
000620: 13,3221           04022                           OCT      04022
000621: 13,3222           05506                           TC       UPFLAG                                #  PHASE CHANGE HAS OCCURRED BETWEEN
000622: 13,3223           00236                           ADRES    REINTFLG                              #  INTSTALL AND INTWAKE
000623: 13,3224           06060                           TC       INTPRET
000624: 13,3225           77731                           SSP
000625: 13,3226           00053                                    QPRET
000626: 13,3227           27234                                    PHEXIT
000627: 13,3230           52014                           BON      GOTO
000628: 13,3231           01714                                    VINTFLAG
000629: 13,3232           26717                                    ATOPCSM
000630: 13,3233           26772                                    ATOPLEM
000631: 13,3234           77624        PHEXIT             CALL
000632: 13,3235           51770                                    GRP2PC
000633: 13,3236           45001        RECTOUT            SETPD    CALL
000634: 13,3237           00001                                    0
000635: 13,3240           27720                                    RECTIFY
000636: 13,3241           53775                           VLOAD    VSL*
000637: 13,3242           01503                                    RRECT
000638: 13,3243           57576                                    0,2
000639: 13,3244           53715                           PDVL     VSL*                                  #  RATT TO PD0
000640: 13,3245           01511                                    VRECT
000641: 13,3246           57576                                    0,2
000642: 13,3247           63325                           PDDL     PDVL                                  #  VATT TO PD6    TAT TO PD12
000643:


000645: 13,3250           01517                                    TET
000646: 13,3251           01503                                    RRECT
000647: 13,3252           64715                           PDVL     PDDL*
000648: 13,3253           01511                                    VRECT
000649: 13,3254           51770                                    MUEARTH,2
000650: 13,3255           76006                           PUSH     AXT,1
000651: 13,3256           77765                           DEC      -10        B-14
000652: 13,3257           76014                           BON      AXT,1
000653: 13,3260           00303                                    MOONFLAG
000654: 13,3261           27263                                    +2
000655: 13,3262           77775                           DEC      -2         B-14
000656: 13,3263           40001        INTEXIT            SETPD    BOV
000657: 13,3264           00001                                    0
000658: 13,3265           27266                                    +1
000659: 13,3266           43014                           CLEAR    CLEAR
000660: 13,3267           04676                                    AVEMIDSW                              #  ALLOW UPDATE OF DOWNLINK STATE VECTOR
000661: 13,3270           01667                                    PRECIFLG
000662: 13,3271           77614                           CLEAR
000663: 13,3272           01672                                    STATEFLG
000664: 13,3273           77535                           SLOAD    EXIT
000665: 13,3274           02102                                    IRETURN
000666: 13,3275           30154                           CA       MPAC
000667: 13,3276           50120                           INDEX    FIXLOC
000668: 13,3277           54052                           TS       QPRET
000669: 13,3300           03460                           TC       INTWAKE
000670:                                                                                                  #  RVCON SETS UP ORBIT INTEGRATION TO DO A CONIC SOLUTION FOR POSITION AND
000671:                                                                                                  #  VELOCITY FOR THE INTERVAL (TET-TDEC)
000672:
000673: 13,3301           45345        RVCON              DLOAD    DSU
000674: 13,3302           01115                                    TDEC
000675: 13,3303           01517                                    TET
000676: 13,3304           36074                           STCALL   TAU.
000677: 13,3305           27720                                    RECTIFY
000678: 13,3306           77624                           CALL
000679: 13,3307           22403                                    KEPPREP
000680: 13,3310           43345                           DLOAD    DAD
000681: 13,3311           01551                                    TC
000682: 13,3312           01517                                    TET
000683: 13,3313           35517                           STCALL   TET
000684: 13,3314           27236                                    RECTOUT
000685:


000687:                                                                                                  #  TESTLOOP
000688:
000689: 13,3315           43014        TESTLOOP           BOF      CLRGO
000690: 13,3316           04752                                    QUITFLAG
000691: 13,3317           27322                                    +3
000692: 13,3320           01632                                    STATEFLG
000693: 13,3321           27263                                    INTEXIT                               #  STOP INTEGRATION
000694: 13,3322           73001                 +3        SETPD    LXA,2
000695: 13,3323           00013                                    10D
000696: 13,3324           02030                                    PBODY
000697: 13,3325           51575                           VLOAD    ABVAL
000698: 13,3326           01535                                    RCV
000699: 13,3327           43006                           PUSH     CLEAR                                 #  RC TO 10D
000700: 13,3330           00262                                    MIDFLAG
000701: 13,3331           50023                           DSU*     BMN                                   #  MIDFLAG=0 IF R G.T. RMP
000702: 13,3332           53755                                    RME,2
000703: 13,3333           27336                                    +3
000704: 13,3334           77614                           SET
000705: 13,3335           00062                                    MIDFLAG
000706: 13,3336           41345        NORFINAL           DLOAD    DMP
000707: 13,3337           00013                                    10D
000708: 13,3340           00043                                    34D
000709: 13,3341           55762                           SR1R     DDV*
000710: 13,3342           51770                                    MUEARTH,2
000711: 13,3343           41366                           SQRT     DMP
000712: 13,3344           25762                                    .3D
000713: 13,3345           40442                           SR3      SR4                                   #  DT    IS TRUNCATED TO A MULTIPLE
000714: 13,3346           54345                           DLOAD    SL
000715: 13,3347           00155                                    MPAC
000716: 13,3350           20220                                    15D                                   #         OF 128 CSECS.
000717: 13,3351           40006                           PUSH     BOV
000718: 13,3352           27377                                    MAXDT
000719: 13,3353           50021                           BDSU     BMN
000720: 13,3354           27446                                    DT/2MAX
000721: 13,3355           27377                                    MAXDT
000722: 13,3356           45345        DT/2COMP           DLOAD    DSU
000723: 13,3357           01115                                    TDEC
000724: 13,3360           01517                                    TET
000725: 13,3361           54234                           RTB      SL
000726: 13,3362           21622                                    SGNAGREE
000727: 13,3363           20211                                    8D
000728: 13,3364           02076                           STORE    DT/2                                  #  B-19
000729: 13,3365           51400                           BOV      ABS
000730: 13,3366           27403                                    GETMAXDT
000731: 13,3367           50025                           DSU      BMN                                   #  IS TIME TO INTEG. TO GR THAN MAXTIME
000732: 13,3370           00015                                    12D
000733: 13,3371           27407                                    P00HCHK
000734: 13,3372           75345        USEMAXDT           DLOAD    SIGN
000735: 13,3373           00015                                    12D
000736: 13,3374           02076                                    DT/2
000737:


000739: 13,3375           36076                           STCALL   DT/2
000740: 13,3376           27407                                    P00HCHK
000741: 13,3377           65345        MAXDT              DLOAD    PDDL                                  #  EXCHANGE DT/2MAX WITH COMPUTED MAX.
000742: 13,3400           27446                                    DT/2MAX
000743: 13,3401           77650                           GOTO
000744: 13,3402           27356                                    DT/2COMP
000745: 13,3403           77634        GETMAXDT           RTB
000746: 13,3404           31765                                    SIGNMPAC
000747: 13,3405           36076                           STCALL   DT/2
000748: 13,3406           27372                                    USEMAXDT
000749: 13,3407           51545        P00HCHK            DLOAD    ABS
000750: 13,3410           02076                                    DT/2
000751: 13,3411           50025                           DSU      BMN
000752: 13,3412           27444                                    DT/2MIN
000753: 13,3413           27215                                    A-PCHK
000754: 13,3414           43014                           BOFF     BON                                   #  NO BACKWARDS INTEGRATION
000755: 13,3415           01740                                    POOHFLAG                              #  WHEN IN POO
000756: 13,3416           23307                                    TIMESTEP
000757: 13,3417           01707                                    PRECIFLG
000758: 13,3420           23307                                    TIMESTEP
000759: 13,3421           45345                           DLOAD    DSU
000760: 13,3422           02076                                    DT/2
000761: 13,3423           00015                                    12D
000762: 13,3424           43040                           BMN      BOFCLR
000763: 13,3425           27215                                    A-PCHK
000764: 13,3426           04242                                    NEWIFLG
000765: 13,3427           23307                                    TIMESTEP
000766: 13,3430           45345                           DLOAD    DSU
000767: 13,3431           01115                                    TDEC
000768: 13,3432           01517                                    TET
000769: 13,3433           77640                           BMN                                            #  NO BACKWARD INTEGRATION
000770: 13,3434           27263                                    INTEXIT
000771: 13,3435           40525                           PDDL     SR4
000772: 13,3436           02076                                    DT/2                                  #  IS 4(DT) LS(TDEC - TET)
000773: 13,3437           44322                           SR2R     BDSU                                  #  NO
000774: 13,3440           52040                           BMN      GOTO
000775: 13,3441           27263                                    INTEXIT
000776: 13,3442           23307                                    TIMESTEP
000777: 13,3443           00000 01400  DT/2MIN            2DEC     3          B-20
000778: 13,3445           14152 00000  DT/2MAX            2DEC     4000       E2         B-20
000779:
000780: 13,3447           77776        INTSTALL           EXIT
000781: 13,3450           30106                           CA       RASFLAG
000782: 13,3451           73521                           MASK     INTBITAB                              #  IS THIS STALL AREA FREE
000783: 13,3452           00006                           EXTEND
000784: 13,3453           13513                           BZF      OKTOGRAB                              #  YES
000785: 13,3454           33520                           CAF      WAKESTAL
000786: 13,3455           05124                           TC       JOBSLEEP
000787: 13,3456           77776        INTWAKE0           EXIT
000788:


000790: 13,3457           13500                           TCF      INTWAKE1
000791:
000792: 13,3460           40106        INTWAKE            CS       RASFLAG                               #  IS THIS INTSTALLED ROUTINE TO BE
000793: 13,3461           74736                           MASK     REINTBIT                              #       RESTARTED
000794: 13,3462           10000                           CCS      A
000795: 13,3463           03500                           TC       INTWAKE1                              #  NO
000796:
000797: 13,3464           50120                           INDEX    FIXLOC
000798: 13,3465           30052                           CA       QPRET
000799: 13,3466           55054                           TS       TBASE2                                #  YES, DONT RESTART WITH SOMEONE ELSES Q
000800:
000801: 13,3467           05355                           TC       PHASCHNG
000802: 13,3470           04022                           OCT      04022
000803:
000804: 13,3471           31054                           CA       TBASE2
000805: 13,3472           50120                           INDEX    FIXLOC
000806: 13,3473           54052                           TS       QPRET
000807:
000808: 13,3474           34736                           CAF      REINTBIT
000809: 13,3475           70106                           MASK     RASFLAG
000810: 13,3476           00006                           EXTEND
000811: 13,3477           13516                           BZF      GOBAC                                 #  DONT INTWAKE IF WE CAME HERE VIA RESTART
000812:
000813: 13,3500           33520        INTWAKE1           CAF      WAKESTAL
000814: 13,3501           00004                           INHINT
000815: 13,3502           05130                           TC       JOBWAKE
000816: 13,3503           10064                           CCS      LOCCTR
000817: 13,3504           13500                           TCF      INTWAKE1
000818: 13,3505           00051        FORTYONE           DEC      41         B-14
000819: 13,3506           43521                           CS       INTBITAB
000820: 13,3507           70106                           MASK     RASFLAG
000821: 13,3510           54106                           TS       RASFLAG                               #  RELEASE STALL AREA
000822: 13,3511           00003                           RELINT
000823: 13,3512           13516                           TCF      GOBAC
000824: 13,3513           34727        OKTOGRAB           CAF      INTFLBIT
000825: 13,3514           00004                           INHINT
000826: 13,3515           26106                           ADS      RASFLAG
000827: 13,3516           06060        GOBAC              TC       INTPRET
000828: 13,3517           77616                           RVQ
000829: 13,3520           27450        WAKESTAL           CADR     INTSTALL   +1
000830: 13,3521           20100        INTBITAB           OCT      20100
000831:


000833:                                                                                                  #  AVETOMID
000834:
000835:                                                                                                  #  THIS ROUTINE PERFORMS THE TRANSITION FROM A THRUSTING PHASE TO THE COAST
000836:                                                                                                  #  PHASE BY INITIALIZING THIS VEHICLES PERMANENT STATE VECTOR WITH THE
000837:                                                                                                  #  VALUES LEFT BY THE AVERAGEG ROUTINE IN RN,VN,PIPTIME.
000838:
000839:                                                                                                  #  BEFORE THIS IS DONE THE W-MATRIX, IF ITS VALID (ORWFLAG OR RENDWFLG IS
000840:                                                                                                  #  SET) IS INTEGRATED FORWARD TO PIPTIME WITH THE PRE-THRUST STATE VECTOR.
000841:
000842:                                                                                                  #  IN ADDITION, THE OTHER VEHICLE IS INTEGRATED (PERMANENT) TO PIPTIME.
000843:
000844:                                                                                                  #  FINALLY TRKMKCNT IS ZEROED
000845:
000846:
000847: 13,2000                                           SETLOC   INTINIT
000848: 13,2000                                           BANK
000849:
000850: 13,3522                                           COUNT*   $$/INTIN
000851: 13,3522           43020        AVETOMID           STQ      BON
000852: 13,3523           02767                                    EGRESS
000853: 13,3524           02716                                    RENDWFLG
000854: 13,3525           27571                                    INT/W                                 #  W-MATRIX VALID ,GO INTEGRATE IT
000855: 13,3526           77614                           BON
000856: 13,3527           01711                                    ORBWFLAG
000857: 13,3530           27571                                    INT/W                                 #  W-MATRIX VALID ,GO INTEGRATE IT
000858:
000859: 13,3531           45145        OTHERS             DLOAD    CALL                                  #  GET SET FOR OTHER VEHICLE INTEGRATION
000860: 13,3532           01234                                    PIPTIME                               #  DESIRED TIME
000861: 13,3533           27447                                    INTSTALL
000862: 13,3534           45014                           SET      CALL
000863: 13,3535           01474                                    VINTFLAG                              #  CM
000864: 13,3536           26702                                    SETIFLGS                              #  SETS UP NONE W-MAT. PERMANENT INTEG.
000865: 13,3537           34041                           STCALL   TDEC1
000866: 13,3540           27172                                    INTEGRV
000867:
000868: 13,3541           45174                           AXT,2    CALL                                  #  NOW MOVE PROPERLY SCALE RN,UN AS WELL AS
000869: 13,3542           00002                                    2                                     #  PIPTIME TO INTEGRATION ERASABLES.
000870: 13,3543           27447                                    INTSTALL
000871: 13,3544           77014                           BON      AXT,2
000872: 13,3545           04304                                    MOONTHIS
000873: 13,3546           27550                                    +2
000874: 13,3547           00000                                    0
000875: 13,3550           53775                           VLOAD    VSR*
000876: 13,3551           01220                                    RN
000877: 13,3552           57176                                    0,2
000878: 13,3553           01503                           STORE    RRECT
000879: 13,3554           15535                           STODL    RCV
000880: 13,3555           01234                                    PIPTIME
000881: 13,3556           25517                           STOVL    TET
000882: 13,3557           01226                                    VN
000883:


000885: 13,3560           45057                           VSR*     CALL
000886: 13,3561           57176                                    0,2
000887: 13,3562           27734                                    MINIRECT                              #  FINISH SETTING UP STATE VECTOR
000888: 13,3563           66234                           RTB      SSP
000889: 13,3564           27005                                    MOVATHIS                              #  PUT TEMP STATE VECTOR INTO PERMANENT
000890: 13,3565           03463                                    TRKMKCNT
000891: 13,3566           00000                                    0
000892: 13,3567           77650                           GOTO
000893: 13,3570           47211                                    FAZAB5
000894:
000895: 13,3571           45145        INT/W              DLOAD    CALL
000896: 13,3572           01234                                    PIPTIME                               #  INTEGRATE W THRU BURN
000897: 13,3573           27447                                    INTSTALL
000898: 13,3574           43014                           SET      SET
000899: 13,3575           01476                                    DIM0FLAG                              #  DO W-MATRIX
000900: 13,3576           04476                                    AVEMIDSW                              #  SO WONT CLOBBER RN,VN,PIPTIME
000901: 13,3577           43014                           SET      CLEAR
000902: 13,3600           01475                                    D6OR9FLG                              #  9X9 FOR LM
000903: 13,3601           01674                                    VINTFLAG                              #  LM
000904: 13,3602           34041                           STCALL   TDEC1
000905: 13,3603           27172                                    INTEGRV
000906: 13,3604           77650                           GOTO
000907: 13,3605           27531                                    OTHERS                                #  NOW GO DO THE OTHER VEHICLE
000908:


000910:                                                                                                  #  MIDTOAV1
000911:
000912:                                                                                                  #  THIS ROUTINE INTEGRATES (PRECISION) TO THE TIME SPECIFIED IN TDEC1.
000913:                                                                                                  #  IF, AT THE END OF AN INTEGRATION TIME STEP, CURRENT TIME PLUS A DELTA
000914:                                                                                                  #  TIME (SEE TIMEDELT.....BASED ON THE COMPUTATUON TIME FOR ONE TIME STEP)
000915:                                                                                                  #  IS GREATER THAN THE DESIRED TIME, ALARM 1703 IS SET AND THE INTEGRATION
000916:                                                                                                  #  IS DONE TO THE CURRENT TIME.
000917:                                                                                                  #  RETURN IS IN BASIC TO THE RETURN ADDRESS PLUS ONE.
000918:
000919:                                                                                                  #  IF THE INTEGRATION IS FINISHED TO THE DESIRED TIME, RETURN IS IN BASIC
000920:                                                                                                  #  TO THE RETURN ADDRESS
000921:
000922:                                                                                                  #  IN EITHER CASE , BEFORE RETURNING, THE EXTRAPOLATED STATE VECTOR IS TRAN
000923:                                                                                                  #  FERRED FROM R,VATT TO R,VN1-PIPTIME1 IS SET TO THE FINISHING INTEGRA-
000924:                                                                                                  #  TION TIME AND MPAC IS SET TO THE DELTA TIME---
000925:                                                                                                  #                                    TAT MINUS CURRENT TIME.
000926:
000927:
000928:                                                                                                  #  MIDTOAV2
000929:
000930:                                                                                                  #  THIS ROUTINE INTEGRATES THIS VEHICLES STATE VECTOR TO THE CURRENT TIME.
000931:                                                                                                  #  NO INPUTS ARE REQUIRED OF THE CALLER. RETURN IS IN BASIC TO THE RETURN
000932:                                                                                                  #  ADDRESS WITH THE ABOVE TRANSFERS TO R,VN1-PIPTIME1-AND MPAC DONE
000933:
000934: 21,2000                                           SETLOC   ORBITAL5
000935: 21,2000                                           BANK
000936: 21,2760                                           COUNT*   $$/INTIN
000937:
000938: 21,2760  E7,1744                                  EBANK=   IRETURN1
000939: 21,2760           43020        MIDTOAV2           STQ      CLRGO                                 #  INTEGRATE TO PRESENT TIME PLUS TIMEDELT
000940: 21,2761           03744                                    IRETURN1
000941: 21,2762           04634                                    MID1FLAG
000942: 21,2763           27621                                    ENTMID2
000943:
000944: 13,2000                                           SETLOC   INTINIT
000945: 13,2000                                           BANK
000946: 13,3606                                           COUNT*   $$/INTIN
000947:
000948: 13,3606           43020        MIDTOAV1           STQ      SET                                   #   INTEGRATE TO TDEC1
000949: 13,3607           03744                                    IRETURN1
000950: 13,3610           04474                                    MID1FLAG
000951: 13,3611           43234                           RTB      DAD                                   #  INITIAL CHECK , IS TDEC1 IN THE FUTURE
000952: 13,3612           21603                                    LOADTIME
000953: 13,3613           11171                                    TIMEDELT
000954: 13,3614           51021                           BDSU     BPL
000955: 13,3615           00041                                    TDEC1
000956: 13,3616           27625                                    ENTMID1                               #   Y5S
000957: 13,3617           77624                           CALL
000958: 13,3620           27711                                    NOTIME                                #  NO, SET ALARM, SWITCH TO MIDTOAV2
000959:


000961:
000962: 13,3621           43234        ENTMID2            RTB      DAD
000963: 13,3622           21603                                    LOADTIME
000964: 13,3623           11171                                    TIMEDELT
000965: 13,3624           00041                           STORE    TDEC1
000966:
000967: 13,3625           77624        ENTMID1            CALL
000968: 13,3626           27447                                    INTSTALL
000969: 13,3627           45014                           CLEAR    CALL
000970: 13,3630           01676                                    DIM0FLAG                              #  NO W-MATRIX
000971: 13,3631           26066                                    THISVINT
000972: 13,3632           43014                           CLEAR    SET
000973: 13,3633           01673                                    INTYPFLG
000974: 13,3634           04475                                    MIDAVFLG                              #  LET INTEG. KNOW THE CALL IS FOR MIDTOAV.
000975: 13,3635           77624                           CALL
000976: 13,3636           27172                                    INTEGRV                               #   GO INTEGRATE
000977: 13,3637           77214                           CLEAR    VLOAD
000978: 13,3640           04675                                    MIDAVFLG
000979: 13,3641           00001                                    RATT
000980: 13,3642           27545                           STOVL    RN1
000981: 13,3643           00007                                    VATT
000982: 13,3644           17553                           STODL    VN1
000983: 13,3645           00015                                    TAT
000984: 13,3646           03561                           STORE    PIPTIME1
000985: 13,3647           66134                           SXA,2    SXA,1
000986: 13,3650           02777                                    RTX2
000987: 13,3651           02776                                    RTX1
000988: 13,3652           77776                           EXIT
000989:
000990: 13,3653           00004                           INHINT
000991: 13,3654           00006                           EXTEND
000992: 13,3655           40025                           DCS      TIME2
000993: 13,3656           20155                           DAS      MPAC
000994: 13,3657           07300                           TC       TPAGREE
000995:
000996: 13,3660           31744                           CA       IRETURN1
000997: 13,3661           04631                           TC       BANKJUMP
000998: 13,3662           47014        CKMID2             BOF      RTB
000999: 13,3663           04754                                    MID1FLAG
001000: 13,3664           27701                                    MID2
001001: 13,3665           21603                                    LOADTIME
001002: 13,3666           44215                           DAD      BDSU
001003: 13,3667           11171                                    TIMEDELT
001004: 13,3670           01115                                    TDEC
001005: 13,3671           45044                           BPL      CALL
001006: 13,3672           27315                                    TESTLOOP                              #  YES
001007: 13,3673           27711                                    NOTIME
001008:
001009: 13,3674           43234        TIMEINC            RTB      DAD
001010: 13,3675           21603                                    LOADTIME
001011: 13,3676           11171                                    TIMEDELT
001012:


001014: 13,3677           35115                           STCALL   TDEC
001015: 13,3700           27315                                    TESTLOOP
001016:
001017: 13,3701           45345        MID2               DLOAD    DSU
001018: 13,3702           01115                                    TDEC
001019: 13,3703           01517                                    TET
001020: 13,3704           45246                           ABS      DSU
001021: 13,3705           11167                                    3CSECS
001022: 13,3706           52040                           BMN      GOTO
001023: 13,3707           27215                                    A-PCHK
001024: 13,3710           27674                                    TIMEINC
001025:
001026: 13,3711           77414        NOTIME             CLEAR    EXIT                                  #  TOO LATE
001027: 13,3712           04674                                    MID1FLAG
001028: 13,3713           25744                           INCR     IRETURN1                              #  SET ERROR EXIT (CALLOC +2)
001029: 13,3714           05571                           TC       ALARM                                 #  INSUFFICIENT TIME FOR INTEGRATION --
001030: 13,3715           01703                           OCT      1703                                  #     TIG WILL BE SLIPPED...
001031: 13,3716           06060                           TC       INTPRET
001032: 13,3717           77616                           RVQ
001033:
001034: 04,2000                                           SETLOC   UPDATE2
001035: 04,2000                                           BANK
001036: 04,3166                                           COUNT*   $$/INTIN
001037:
001038: 04,3166           00000 00003  3CSECS             2DEC     3          B-28
001039: 04,3170           00000 03720  TIMEDELT           2DEC     2000       B-28
001040:
001041: 04,3172  E3,1706                                  EBANK=   TEPHEM
001042: 04,3172                                           COUNT*   $$/INTIN
001043:
001044: 04,3172           06060        INTWAKEU           TC       INTPRET
001045:
001046: 04,3173           53135                           SLOAD    BZE                                   #  IS THIS A CSM/LEM STATE VECTOR UPDATE
001047: 04,3174           01502                                    UPSVFLAG                              #  REQUEST. IF NOT GO TO INTWAKUP.
001048: 04,3175           11241                                    INTWAKUP
001049:
001050: 04,3176           77775                           VLOAD                                          #  MOVE RRECT(6) AND VRECT(6) INTO
001051: 04,3177           01503                                    RRECT                                 #       RCV(6)   AND VCV(6)   RESPECTIVELY.
001052: 04,3200           25535                           STOVL    RCV
001053: 04,3201           01511                                    VRECT                                 #  NOW GO TO 'RECTIFY +13D' TO
001054: 04,3202           77624                           CALL                                           #  STORE VRECT INTO VCV  AND ZERO OUT
001055: 04,3203           27735                                    RECTIFY    +13D                       #  TDELTAV(6),TNUV(6),TC(2) AND XKEP(2)
001056: 04,3204           51535                           SLOAD    ABS                                   #  COMPARE ABSOLUTE VALUE OF 'UPSVFLAG'
001057: 04,3205           01502                                    UPSVFLAG                              #  TO 'UPDATE MOON STATE VECTOR CODE'
001058: 04,3206           53025                           DSU      BZE                                   #  TO DETERMINE WHETHER THE STATE VECTOR TO
001059: 04,3207           11250                                    UPMNSVCD                              #  BE UPDATED IS IN THE EARTH OR LUNAR
001060: 04,3210           11215                                    INTWAKEM                              #  SPHERE OF INFLUENCE.........
001061: 04,3211           43174                           AXT,2    CLRGO                                 #  EARTH SPHERE OF INFLUENCE.
001062: 04,3212           00000                           DEC      0          B-14
001063:


001065: 04,3213           00223                                    MOONFLAG
001066: 04,3214           11220                                    INTWAKEC
001067: 04,3215           43174        INTWAKEM           AXT,2    SET                                   #  LUNAR SPHERE OF INFLUENCE.
001068: 04,3216           00002                           DEC      2          B-14
001069: 04,3217           00063                                    MOONFLAG
001070: 04,3220           50135        INTWAKEC           SLOAD    BMN                                   #  COMMON CODING AFTER X2 INITIALIZED AND
001071:                                                                                                  #  MOONFLAG SET (OR CLEARED).
001072: 04,3221           01502                                    UPSVFLAG                              #  IS THIS A REQUEST FOR A LEM OR CSM
001073: 04,3222           11230                                    INTWAKLM                              #   STATE VECTOR UPDATE......
001074: 04,3223           77624                           CALL                                           #  UPDATE CSM STATE VECTOR
001075: 04,3224           26717                                    ATOPCSM
001076:
001077: 04,3225           52014                           CLEAR    GOTO
001078: 04,3226           01671                                    ORBWFLAG
001079: 04,3227           11232                                    INTWAKEX
001080:
001081: 04,3230           77624        INTWAKLM           CALL                                           #  UPDATE LM STATE VECTOR
001082: 04,3231           26772                                    ATOPLEM
001083:
001084: 04,3232           77414        INTWAKEX           CLEAR    EXIT
001085: 04,3233           02676                                    RENDWFLG
001086:
001087: 04,3234           34746                           CAF      ZERO
001088: 04,3235           00006                           EXTEND
001089: 04,3236           01077                           WRITE    CHAN77                                #  ZERO CHANNEL 77
001090: 04,3237  E3,1501                                  EBANK=   UPSVFLAG
001091: 04,3237           55501                           TS       UPSVFLAG
001092:
001093: 04,3240           06060                           TC       INTPRET
001094: 04,3241           77624        INTWAKUP           CALL
001095: 04,3242           27456                                    INTWAKE0                              #  RELEASE  :GRAB: OF ORBIT INTEG
001096: 04,3243           77776                           EXIT
001097:
001098: 04,3244           05355                           TC       PHASCHNG
001099: 04,3245           04026                           OCT      04026
001100: 04,3246           03714                           TC       UPOUT      +1
001101:
001102: 04,3247           00002        UPMNSVCD           OCT      2
001103: 04,3250           00000                           OCT      0
001104:
001105: 24,2000                                           SETLOC   ORBITAL4
001106: 24,2000                                           BANK
001107: 24,3770                                           COUNT*   $$/INTIN
001108:
001109: 24,3770           77420        GRP2PC             STQ      EXIT
001110: 24,3771           02711                                    GRP2SVQ
001111: 24,3772           05355                           TC       PHASCHNG
001112: 24,3773           04022                           OCT      04022
001113: 24,3774           06060                           TC       INTPRET


001115: 24,3775           77650                           GOTO
001116: 24,3776           02711                                    GRP2SVQ

End of include-file INTEGRATION_INITIALIZATION.agc.  Parent file is MAIN.agc


