
Source Code


000002:                                                                                                  ## Copyright:   Public domain.
000003:                                                                                                  ## Filename:    KALMAN_FILTER.agc
000004:                                                                                                  ## Purpose:     A section of Luminary revision 210.
000005:                                                                                                  ##              It is part of the source code for the Lunar Module's (LM)
000006:                                                                                                  ##              Apollo Guidance Computer (AGC) for Apollo 15-17.
000007:                                                                                                  ##              This file is intended to be a faithful transcription, except
000008:                                                                                                  ##              that the code format has been changed to conform to the
000009:                                                                                                  ##              requirements of the yaYUL assembler rather than the
000010:                                                                                                  ##              original YUL assembler.
000011:                                                                                                  ## Reference:   pp. 1468 - 1469
000012:                                                                                                  ## Assembler:   yaYUL
000013:                                                                                                  ## Contact:     Ron Burkey <info@sandroid.org>.
000014:                                                                                                  ## Website:     www.ibiblio.org/apollo/index.html
000015:                                                                                                  ## Mod history: 2016-11-17 JL   Created from Luminary131 version.
000016:                                                                                                  ##              2016-11-23 AS   Transcribed
000017:                                                                                                  ##              2016-12-26 RSB  Comment-text proofed using ProoferComments
000018:                                                                                                  ##                              and corrected errors found.
000019:


000021: 17,3777  E6,1522                                  EBANK=   NO.UJETS
000022: 16,3642                                           BANK     16
000023: 16,2000                                           SETLOC   DAPS1
000024: 16,2000                                           BANK
000025:
000026: 16,3642                                           COUNT*   $$/DAP
000027:
000028: 16,3642           34743        RATELOOP           CA       TWO
000029: 16,3643           55743                           TS       DAPTEMP6
000030: 16,3644           60000                           DOUBLE
000031: 16,3645           54002                           TS       Q
000032: 16,3646           51743                           INDEX    DAPTEMP6
000033: 16,3647           11524                           CCS      TJP
000034: 16,3650           13652                           TCF      +2
000035: 16,3651           13671                           TCF      LOOPRATE
000036: 16,3652           63732                           AD       -100MST6
000037: 16,3653           00006                           EXTEND
000038: 16,3654           63710                           BZMF     SMALLTJU
000039: 16,3655           51743                           INDEX    DAPTEMP6
000040: 16,3656           11524                           CCS      TJP
000041: 16,3657           33732                           CA       -100MST6
000042: 16,3660           13662                           TCF      +2
000043: 16,3661           43732                           CS       -100MST6
000044: 16,3662           51743                           INDEX    DAPTEMP6
000045: 16,3663           27524                           ADS      TJP
000046: 16,3664           51743                           INDEX    DAPTEMP6
000047: 16,3665           11524                           CCS      TJP
000048: 16,3666           43616                           CS       -100MS                                #  0.1 AT 1
000049: 16,3667           13671                           TCF      +2
000050: 16,3670           33616                           CA       -100MS
000051: 16,3671           00006        LOOPRATE           EXTEND
000052: 16,3672           51743                           INDEX    DAPTEMP6
000053: 16,3673           71521                           MP       NO.PJETS
000054: 16,3674           30001                           CA       L
000055: 16,3675           51743                           INDEX    DAPTEMP6
000056: 16,3676           55736                           TS       DAPTEMP1                              #  SIGNED TORQUE AT 1 JET-SEC FOR FILTER
000057: 16,3677           00006                           EXTEND
000058: 16,3700           74733                           MP       BIT10                                 #  RESCALE TO 32; ONE BIT ABOUT 2 JET-MSEC
000059: 16,3701           00006                           EXTEND
000060: 16,3702           63733                           BZMF     NEGTORK
000061: 16,3703           50002        STORTORK           INDEX    Q                                     #  INCREMENT DOWNLIST REGISTER.
000062: 16,3704           27513                           ADS      DOWNTORK                              #   NOTE:  NOT INITIALIZED; OVERFLOWS.
000063:
000064: 16,3705           11743                           CCS      DAPTEMP6
000065: 16,3706           13643                           TCF      RATELOOP   +1
000066: 16,3707           13717                           TCF      ROTORQUE
000067: 16,3710           34746        SMALLTJU           CA       ZERO
000068: 16,3711           51743                           INDEX    DAPTEMP6
000069: 16,3712           57524                           XCH      TJP
000070: 16,3713           00006                           EXTEND


000072: 16,3714           74751                           MP       ELEVEN                                #  10.24 PLUS
000073: 16,3715           30001                           CA       L
000074: 16,3716           13671                           TCF      LOOPRATE
000075: 16,3717           31737        ROTORQUE           CA       DAPTEMP2
000076: 16,3720           61740                           AD       DAPTEMP3
000077: 16,3721           00006                           EXTEND
000078: 16,3722           71532                           MP       1JACCR
000079: 16,3723           55746                           TS       JETRATER
000080: 16,3724           41740                           CS       DAPTEMP3
000081: 16,3725           61737                           AD       DAPTEMP2
000082: 16,3726           00006                           EXTEND
000083: 16,3727           71531                           MP       1JACCQ
000084: 16,3730           55745                           TS       JETRATEQ
000085: 16,3731           12322                           TCF      BACKP
000086: 16,3732           77537        -100MST6           DEC      -160       B-14
000087:
000088: 16,3733           40000        NEGTORK            COM
000089: 16,3734           24002                           INCR     Q
000090: 16,3735           13703                           TCF      STORTORK
000091:

End of include-file KALMAN_FILTER.agc.  Parent file is MAIN.agc


