
Source Code


000002:                                                                                                  ## Copyright:   Public domain.
000003:                                                                                                  ## Filename:    LANDING_ANALOG_DISPLAYS.agc
000004:                                                                                                  ## Purpose:     A section of Luminary revision 210.
000005:                                                                                                  ##              It is part of the source code for the Lunar Module's (LM)
000006:                                                                                                  ##              Apollo Guidance Computer (AGC) for Apollo 15-17.
000007:                                                                                                  ##              This file is intended to be a faithful transcription, except
000008:                                                                                                  ##              that the code format has been changed to conform to the
000009:                                                                                                  ##              requirements of the yaYUL assembler rather than the
000010:                                                                                                  ##              original YUL assembler.
000011:                                                                                                  ## Reference:   pp. 895-904
000012:                                                                                                  ## Assembler:   yaYUL
000013:                                                                                                  ## Contact:     Ron Burkey <info@sandroid.org>.
000014:                                                                                                  ## Website:     www.ibiblio.org/apollo/index.html
000015:                                                                                                  ## Mod history: 2016-11-17 JL   Created from Luminary131 version.
000016:                                                                                                  ##              2016-11-27 HG   Transcribed
000017:                                                                                                  ##              2016-12-12 HG   Fix operannd modifier none -> +4
000018:                                                                                                  ##              2016-12-25 RSB  Comment-text proofed using ProoferComments
000019:                                                                                                  ##                              and corrected errors found.
000020:                                                                                                  ##              2017-08-19 MAS  Fixed a typo found while transcribing Zerlina 56.
000021:


000023: 21,2170                                           BANK     21
000024: 21,2000                                           SETLOC   R10
000025: 21,2000                                           BANK
000026:
000027: 21,2170  E7,1777                                  EBANK=   END-E7
000028: 21,2170                                           COUNT*   $$/R10
000029:
000030:                                                                                                  #  ****************************************************************************************************************
000031:                                                                                                  #  LANADISP:  DISPLAY INERTIAL DATA ROUTINE FOR DESCENT AND ABORTS                            THIS VERSION BY EYLES
000032:                                                                                                  #  ****************************************************************************************************************
000033:
000034: 21,2170           23722        LANADISP           LXCH     PIPCTR1                               #  UPDATE TBASE2 AND PIPCTR SIMULTANEOUSLY
000035: 21,2171           40025                           CS       TIME1
000036: 21,2172           53055                           DXCH     TBASE2
000037:
000038: 21,2173           40103                           CS       FLAGWRD7                              #  IS LANDING ANALOG DISPLAYS FLAG SET?
000039: 21,2174           74732                           MASK     SWANDBIT
000040: 21,2175           10000                           CCS      A
000041: 21,2176           12654                           TCF      DISPRSET   +1                         #  NO:   GO RESET
000042:
000043:                                                                                                  #  ************************************************************************
000044:                                                                                                  #  COMPUTE VELOCITY VECTOR
000045:                                                                                                  #  ************************************************************************
000046:
000047:                                                                                                  #  DO EVERYTHING POSSIBLE BEFORE READING PIPAS.
000048:
000049: 21,2177           00006                           EXTEND
000050: 21,2200           41702                           DCS      VSURFACE
000051: 21,2201           53721                           DXCH     VVECTX
000052: 21,2202           00006                           EXTEND
000053: 21,2203           31527                           DCA      V
000054: 21,2204           20001                           DDOUBL
000055: 21,2205           20001                           DDOUBL
000056: 21,2206           21721                           DAS      VVECTX
000057:
000058: 21,2207           00006                           EXTEND
000059: 21,2210           41704                           DCS      VSURFACE   +2
000060: 21,2211           53723                           DXCH     VVECTY
000061: 21,2212           00006                           EXTEND
000062: 21,2213           31531                           DCA      V          +2
000063: 21,2214           20001                           DDOUBL
000064: 21,2215           20001                           DDOUBL
000065: 21,2216           21723                           DAS      VVECTY
000066:
000067: 21,2217           00006                           EXTEND
000068: 21,2220           41706                           DCS      VSURFACE   +4
000069: 21,2221           53725                           DXCH     VVECTZ
000070: 21,2222           00006                           EXTEND
000071: 21,2223           31533                           DCA      V          +4
000072: 21,2224           20001                           DDOUBL
000073:


000075: 21,2225           20001                           DDOUBL
000076: 21,2226           21725                           DAS      VVECTZ
000077:
000078:                                                                                                  #  COMPUTE TIME SINCE PIPTIME.
000079:
000080: 21,2227           41234                           CS       PIPTIME    +1
000081: 21,2230           60025                           AD       TIME1
000082: 21,2231           64727                           AD       HALF
000083: 21,2232           64727                           AD       HALF
000084: 21,2233           57717                           XCH      DT                                    #  DT SINCE PIPTIME IN UNITS 0F 2(14) CS
000085:
000086:                                                                                                  #  ADD IN PIPA PULSES.
000087:
000088: 21,2234           31157                           CA       PIPATMPX
000089: 21,2235           60037                           AD       PIPAX
000090: 21,2236           00006                           EXTEND
000091: 21,2237           72000                           MP       LANAKPIP
000092: 21,2240           21721                           DAS      VVECTX
000093:
000094: 21,2241           31160                           CA       PIPATMPY
000095: 21,2242           60040                           AD       PIPAY
000096: 21,2243           00006                           EXTEND
000097: 21,2244           72000                           MP       LANAKPIP
000098: 21,2245           21723                           DAS      VVECTY
000099:
000100: 21,2246           31161                           CA       PIPATMPZ
000101: 21,2247           60041                           AD       PIPAZ
000102: 21,2250           00006                           EXTEND
000103: 21,2251           72000                           MP       LANAKPIP
000104: 21,2252           21725        QUARDUMP           DAS      VVECTZ                                #  TAG IS FOR EDITS
000105:
000106:                                                                                                  #  FINALLY, ADD IN CONTRIBUTIONS OF GRAVITY AND PIPA BIAS.
000107:
000108: 21,2253           31676                           CA       G-VBIASX                              #  G-VBIASX IS IN UNITS OF 2(-9) M/CS/CS
000109: 21,2254           00006                           EXTEND
000110: 21,2255           71717                           MP       DT
000111: 21,2256           21721                           DAS      VVECTX                                #  VVECTX IN UNITS OF 2(5) M/CS
000112:
000113: 21,2257           31677                           CA       G-VBIASY                              #  G-VBIASY IS IN UNITS OF 2(-9) M/CS/CS
000114: 21,2260           00006                           EXTEND
000115: 21,2261           71717                           MP       DT
000116: 21,2262           21723                           DAS      VVECTY                                #  VVECTY IN UNITS OF 2(5) M/CS
000117:
000118: 21,2263           31700                           CA       G-VBIASZ                              #  G-VBIASZ IS IN UNITS OF 2(-9) M/CS/CS
000119: 21,2264           00006                           EXTEND
000120: 21,2265           71717                           MP       DT
000121: 21,2266           21725                           DAS      VVECTZ                                #  VVECTZ IN UNITS OF 2(5) M/CS
000122:
000123:                                                                                                  #  ************************************************************************
000124:                                                                                                  #  COMPUTE ALTITUDE AND ALTITUDE-RATE
000125:


000127:                                                                                                  #  ************************************************************************
000128: 21,2267           31714        ALTSTUFF           CA       RUNITX                                #  COMPUTE RADIAL VELOCITY
000129: 21,2270           00006                           EXTEND
000130: 21,2271           71720                           MP       VVECTX
000131: 21,2272           53727                           DXCH     ALTRATE
000132: 21,2273           31714                           CA       RUNITX                                #  COMPUTE THE MORE SENSITIVE TERM IN DP
000133: 21,2274           00006                           EXTEND
000134: 21,2275           71721                           MP       VVECTX     +1
000135: 21,2276           54001                           TS       L
000136: 21,2277           34746                           CAF      ZERO
000137: 21,2300           21727                           DAS      ALTRATE
000138: 21,2301           31715                           CA       RUNITY                                #  NOTE:  WITH NORMAL DESCENT IMU ALIGNMENT
000139: 21,2302           00006                           EXTEND                                         #    THIS TERM IS ALWAYS ZERO, BUT ALTRATE
000140: 21,2303           71722                           MP       VVECTY                                #    CAN BE DISPLAYED DURING ASCENT TOO
000141: 21,2304           21727                           DAS      ALTRATE
000142: 21,2305           31716                           CA       RUNITZ
000143: 21,2306           00006                           EXTEND
000144: 21,2307           71724                           MP       VVECTZ
000145: 21,2310           21727                           DAS      ALTRATE
000146:
000147: 21,2311           31713                           CA       DALTRATE                              #  COMPENSATE FOR CHANGE IN DIRECTION OF R
000148: 21,2312           00006                           EXTEND
000149: 21,2313           71717                           MP       DT
000150: 21,2314           21727                           DAS      ALTRATE                               #  ALTRATE IN UNITS OF 2(5) M/CS
000151:
000152: 21,2315           00006                           EXTEND
000153: 21,2316           31727                           DCA      ALTRATE
000154: 21,2317           52064                           DXCH     ALTRTEMP
000155: 21,2320           00006                           EXTEND
000156: 21,2321           31712                           DCA      HDOTLAD
000157: 21,2322           20064                           DAS      ALTRTEMP                              #  AVERAGE ALTRATE IN UNITS OF 2(4) M/CS
000158:
000159:                                                                                                  #  THE FOLLOWING COMPUTATION FAILS IF DT EXCEEDS 20.47 SECONDS (UNLIKELY).
000160:
000161: 21,2323           31717                           CA       DT
000162: 21,2324           00006                           EXTEND
000163: 21,2325           74741                           MP       BIT4
000164: 21,2326           30001                           CA       L                                     #  FETCH DT FROM L IN UNITS OF 2(11) CS
000165: 21,2327           00006                           EXTEND
000166: 21,2330           70063                           MP       ALTRTEMP
000167: 21,2331           53731                           DXCH     ALTITUDE
000168: 21,2332           00006                           EXTEND
000169: 21,2333           31710                           DCA      HCALCLAD
000170: 21,2334           21731                           DAS      ALTITUDE                              #  ALTITUDE IN UNITS OF 2(15) METERS
000171:
000172:                                                                                                  #  ************************************************************************
000173:                                                                                                  #  SEND OUT ALTITUDE-RATE IF POSSIBLE
000174:                                                                                                  #  ************************************************************************
000175:


000177: 21,2335           40075                           CS       FLAGWRD1                              #  IS INITIALIZATION IN ORDER?
000178: 21,2336           74727                           MASK     DIDFLBIT
000179: 21,2337           10000                           CCS      A
000180: 21,2340           12626                           TCF      DISPINIT                              #  YES:  THEN GO DO IT
000181:
000182: 21,2341           34743                           CAF      BIT2                                  #  NO:   ARE RR ERROR COUNTERS ENABLED?
000183: 21,2342           00006                           EXTEND
000184: 21,2343           02012                           RAND     CHAN12
000185: 21,2344           00006                           EXTEND
000186: 21,2345           12653                           BZF      DISPRSET                              #  NO:   REINITIALIZE DISPLAYS
000187: 21,2346           00006        ALTRROUT           EXTEND                                         #  YES:  SIGNIFY ALTITUDE-RATE (BIT2 IN A)
000188: 21,2347           05014                           WOR      CHAN14
000189:
000190: 21,2350           00006                           EXTEND
000191: 21,2351           31727                           DCA      ALTRATE
000192: 21,2352           20001                           DDOUBL                                         #  RESCALE ALTRATE TO UNITS OF 2(2) M/CS
000193: 21,2353           20001                           DDOUBL
000194: 21,2354           20001                           DDOUBL
000195: 21,2355           00006                           EXTEND
000196: 21,2356           72004                           MP       ALTRCONV                              #  RESCALE TO UNITS OF .5 F/S/BIT
000197:
000198: 21,2357           56001                           XCH      L                                     #  ROUND TO NEAREST .5 F/S
000199: 21,2360           60000                           DOUBLE
000200: 21,2361           54002                           TS       Q
000201: 21,2362           34746                           CAF      ZERO
000202: 21,2363           26001                           ADS      L
000203:
000204: 21,2364           64726                           AD       NEGMAX
000205: 21,2365           54001                           TS       L
000206: 21,2366           12371                           TCF      +3
000207: 21,2367           60001                           AD       L
000208: 21,2370           40000                           COM
000209: 21,2371           56060                 +3        XCH      ALTM
000210:
000211: 21,2372           34742                           CAF      BIT3
000212: 21,2373           00006                           EXTEND
000213: 21,2374           05014                           WOR      CHAN14
000214:
000215: 21,2375           35745                           CA       TWELVE                                #  DELAY 120 MS FOR DATA OUTPUT
000216:                                                                                                  #  NOTE - THIS DELAY MUST BE GREATER THAN
000217:                                                                                                  #  100 MS FOR COMPATIBILITY WITH THE LMS
000218: 21,2376           05226                           TC       VARDELAY
000219:
000220: 21,2377           44743        ALTROUT            CS       BIT2                                  #  SIGNIFY ALTITUDE
000221: 21,2400           00006                           EXTEND
000222: 21,2401           03014                           WAND     CHAN14
000223:
000224: 21,2402           31731                           CA       ALTITUDE   +1
000225: 21,2403           00006                           EXTEND
000226: 21,2404           72005                           MP       ALTCONV
000227:


000229: 21,2405           54001                           TS       L
000230: 21,2406           34746                           CAF      ZERO
000231: 21,2407           52064                           DXCH     ALTTEMP
000232: 21,2410           31730                           CA       ALTITUDE
000233: 21,2411           00006                           EXTEND
000234: 21,2412           72005                           MP       ALTCONV
000235: 21,2413           20064                           DAS      ALTTEMP                               #  ALTITUDE IN UNITS OF 9.380 FEET/BIT
000236:
000237: 21,2414           52064                           DXCH     ALTTEMP
000238: 21,2415           20001                           DDOUBL
000239: 21,2416           20001                           DDOUBL                                         #  RESCALE TO UNITS OF 2.345 FEET/BIT
000240: 21,2417           54000                           OVSK
000241: 21,2420           12424                           TCF      +4                                    #  NO OVERFLOW:  -38420 < ALTITUDE < +38420
000242:
000243: 21,2421           74724                           MASK     POSMAX                                #  RESET OVERFLOW
000244: 21,2422           64726                           AD       BIT15
000245: 21,2423           12430                           TCF      +5
000246:
000247: 21,2424           10000                 +4        CCS      A                                     #  APPLY LOWER LIMIT OF POSITIVE ZERO
000248: 21,2425           64744                           AD       ONE
000249: 21,2426           12430                           TCF      +2
000250: 21,2427           34746                           CAF      ZERO
000251:
000252: 21,2430           56060                 +5        XCH      ALTM
000253: 21,2431           34742                           CAF      BIT3
000254: 21,2432           00006                           EXTEND
000255: 21,2433           05014                           WOR      CHAN14
000256:
000257:                                                                                                  #  ************************************************************************
000258:                                                                                                  #  SEND OUT FORWARD AND LATERAL VELOCITIES
000259:                                                                                                  #  ************************************************************************
000260:
000261: 21,2434           02513                           TC       CROSCOMP                              #  FIRST CALL SUBROUTINE TO COMPUTE THEM
000262:
000263: 21,2435           34733                           CAF      BIT10                                 #  1/32 TO ITEMP2 FOR USE AS DIVISOR BELOW
000264: 21,2436           54062                           TS       ITEMP2
000265:
000266: 21,2437           32001                           CAF      MAXVEL                                #  LIMIT COMMAND TO 198.645 F/S
000267: 21,2440           22070                           LXCH     FORVTEMP
000268: 21,2441           02673                           TC       LADLIMIT
000269: 21,2442           22071                           LXCH     FORVTEMP   +1
000270: 21,2443           00006                           EXTEND                                         #  RESCALE TO UNITS OF ONE M/CS
000271: 21,2444           10062                           DV       ITEMP2
000272: 21,2445           00006                           EXTEND                                         #  RESCALE TO UNITS OF .5571 F/S/BIT
000273: 21,2446           72003                           MP       VELCONV
000274: 21,2447           56001                           XCH      L                                     #  ROUND TO NEAREST .5571 F/S
000275: 21,2450           60000                           DOUBLE
000276: 21,2451           54002                           TS       Q
000277: 21,2452           12454                           TCF      FORVOUT
000278: 21,2453           26001                           ADS      L
000279:


000281: 21,2454           41733        FORVOUT            CS       FORVMETR                              #  SUBTRACT METER INDICATOR TO GET CHANGE
000282: 21,2455           26001                           ADS      L
000283: 21,2456           32002                           CA       MAXDBITS
000284: 21,2457           02673                           TC       LADLIMIT                              #  LIMIT CHANGE TO ABOUT 300 F/S
000285: 21,2460           64745                           AD       NEG0
000286: 21,2461           54054                           TS       CDUSCMD
000287: 21,2462           27733                           ADS      FORVMETR                              #  UPDATE METER INDICATOR
000288:
000289: 21,2463           32001                           CAF      MAXVEL                                #  LIMIT COMMAND TO 198.645 F/S
000290: 21,2464           22072                           LXCH     LATVEL
000291: 21,2465           02673                           TC       LADLIMIT
000292: 21,2466           22073                           LXCH     LATVEL     +1
000293: 21,2467           00006                           EXTEND                                         #  RESCALE TO UNITS OF ONE M/CS
000294: 21,2470           10062                           DV       ITEMP2
000295: 21,2471           00006                           EXTEND                                         #  RESCALE TO UNITS OF .5571 F/S/BIT
000296: 21,2472           72003                           MP       VELCONV
000297: 21,2473           56001                           XCH      L                                     #  ROUND TO NEAREST .5571 F/S
000298: 21,2474           60000                           DOUBLE
000299: 21,2475           54002                           TS       Q
000300: 21,2476           12500                           TCF      LATVOUT
000301: 21,2477           26001                           ADS      L
000302: 21,2500           41732        LATVOUT            CS       LATVMETR                              #  SUBTRACT METER INDICATOR TO GET CHANGE
000303: 21,2501           26001                           ADS      L
000304: 21,2502           32002                           CAF      MAXDBITS
000305: 21,2503           02673                           TC       LADLIMIT                              #  LIMIT CHANGE TO ABOUT 300 F/S
000306: 21,2504           64745                           AD       NEG0
000307: 21,2505           54053                           TS       CDUTCMD
000308: 21,2506           27732                           ADS      LATVMETR                              #  UPDATE METER INDICATOR
000309:
000310: 21,2507           35011                           CAF      BITSET                                #  SET DRIVE BITS
000311: 21,2510           00006                           EXTEND
000312: 21,2511           05014                           WOR      CHAN14
000313:
000314: 21,2512           05263        LANADEND           TC       TASKOVER
000315:
000316:                                                                                                  #  ************************************************************************
000317:                                                                                                  #  SUBROUTINE TO COMPUTE FORWARD AND LATERAL VELOCITIES
000318:                                                                                                  #  ************************************************************************
000319:
000320:                                                                                                  #      THE SCALARS VHY AND VHZ, COMPUTED NEXT, ARE THE VELOCITIES ALONG UNIT VECTORS UHYP AND UHZP. UHYP NORMAL
000321:                                                                                                  #  TO THE PRE-PDI ORBITAL PLANE, UHZP IN TURN NORMAL TO UHYP AND THE POSITION VECTOR.  NOW SINCE FOR THE "LANDING
000322:                                                                                                  #  ALIGNMENT" OF THE IMU THE STABLE-MEMBER Y-AXIS IS DEFINED THE SAME WAY AS UHYP, VVECTY IS PRECISELY VHY.
000323:                                                                                                  #  FURTHERMORE, THE Y-TERM OF THE VHZ COMPUTATION DROPS OUT, AND THE FOLLOWING USEFUL EQUALITIES BECOME TRUE:
000324:                                                                                                  #  UHZPX = - RUNITZ AND UHZPZ = RUNITX.  DRAW A PICTURE TO BE CONVINCED.
000325:
000326:                                                                                                  #      NOTE THAT IN THIS VERSION CROSS-POINTER DISPLAYS ARE OUTPUT DURING ASCENT AND ABORTS AS WELL AS DESCENT.
000327:
000328: 21,2513           40074        CROSCOMP           CS       FLAGWRD0                              #  IS R10FLAG SET TO INDICATE ASCENT?
000329: 21,2514           74743                           MASK     R10FLBIT
000330: 21,2515           00006                           EXTEND
000331:


000333: 21,2516           12615                           BZF      APSLAD                                #  YES:  DISPLAY LATVEL IN INERTIAL AXES
000334:
000335: 21,2517           41716                           CS       RUNITZ                                #  NO:   COMPUTE DOWNRANGE VELOCITY
000336: 21,2520           00006                           EXTEND
000337: 21,2521           71720                           MP       VVECTX
000338: 21,2522           52066                           DXCH     VHZ
000339: 21,2523           31714                           CA       RUNITX
000340: 21,2524           00006                           EXTEND
000341: 21,2525           71724                           MP       VVECTZ
000342: 21,2526           20066                           DAS      VHZ
000343: 21,2527           31714                           CA       RUNITX                                #  COMPUTE THE MORE SENSITIVE TERM IN DP
000344: 21,2530           00006                           EXTEND
000345: 21,2531           71725                           MP       VVECTZ     +1
000346: 21,2532           54001                           TS       L
000347: 21,2533           34746                           CAF      ZERO
000348: 21,2534           20066                           DAS      VHZ                                   #  VHZ IN UNITS OF 2(5) M/CS
000349:
000350: 21,2535           00006                           EXTEND
000351: 21,2536           31723                           DCA      VVECTY
000352: 21,2537           52064                           DXCH     VHY                                   #  VHY IN UNITS OF 2(5) M/CS
000353:
000354: 21,2540           35006                           CAF      EBANK6                                #  SWITCH TO DAP EBANK
000355: 21,2541           54003                           TS       EBANK
000356: 21,2542  E6,1417                                  EBANK=   M22
000357:
000358: 21,2542           31420                           CA       M32                                   #  COS(AOG)
000359: 21,2543           00006                           EXTEND
000360: 21,2544           70065                           MP       VHZ
000361: 21,2545           52071                           DXCH     FORVTEMP
000362: 21,2546           41417                           CS       M22                                   #  SIN(AOG)
000363: 21,2547           00006                           EXTEND
000364: 21,2550           70063                           MP       VHY
000365: 21,2551           20071                           DAS      FORVTEMP
000366:
000367: 21,2552           31420                           CA       M32                                   #  COS(AOG)
000368: 21,2553           00006                           EXTEND
000369: 21,2554           70066                           MP       VHZ        +1
000370: 21,2555           54062                           TS       ITEMP2
000371: 21,2556           41417                           CS       M22                                   #  SIN(AOG)
000372: 21,2557           00006                           EXTEND
000373: 21,2560           70064                           MP       VHY        +1
000374: 21,2561           60062                           AD       ITEMP2
000375: 21,2562           54001                           TS       L
000376: 21,2563           34746                           CAF      ZERO
000377: 21,2564           20071                           DAS      FORVTEMP                              #  FORWARD VELOCITY IN UNITS OF 2(5) M/CS
000378:
000379: 21,2565           31417                           CA       M22                                   #  SIN(AOG)
000380: 21,2566           00006                           EXTEND
000381: 21,2567           70065                           MP       VHZ
000382: 21,2570           52073                           DXCH     LATVEL
000383:


000385: 21,2571           31420                           CA       M32                                   #  COS(AOG)
000386: 21,2572           00006                           EXTEND
000387: 21,2573           70063                           MP       VHY
000388: 21,2574           20073                           DAS      LATVEL
000389:
000390: 21,2575           31417                           CA       M22                                   #  SIN(AOG)
000391: 21,2576           00006                           EXTEND
000392: 21,2577           70066                           MP       VHZ        +1
000393: 21,2600           54062                           TS       ITEMP2
000394: 21,2601           31420                           CA       M32                                   #  COS(AOG)
000395: 21,2602           00006                           EXTEND
000396: 21,2603           70064                           MP       VHY        +1
000397: 21,2604           60062                           AD       ITEMP2
000398: 21,2605           54001                           TS       L
000399: 21,2606           34746                           CAF      ZERO
000400: 21,2607           20073                           DAS      LATVEL                                #  LATERAL VELOCITY IN UNITS OF 2(5) M/CS
000401:
000402: 21,2610           24006                           INCR     BBANK                                 #  RETURN TO SERVICER EBANK
000403: 21,2611  E7,1711                                  EBANK=   HDOTLAD
000404:
000405: 21,2611           00006        CROSSOUT           EXTEND                                         #  MOVE FORVTEMP TO FORVEL FOR DSKY DISPLAY
000406: 21,2612           30071                           DCA      FORVTEMP
000407: 21,2613           53735                           DXCH     FORVEL
000408:
000409: 21,2614           00002                           TC       Q
000410:
000411: 21,2615           54070        APSLAD             TS       FORVTEMP                              #  DURING ASCENT AND ABORTS COME HERE TO
000412: 21,2616           54071                           TS       FORVTEMP   +1                         #    DISPLAY LATVEL = SM Y-AXIS VELOCITY
000413:
000414: 21,2617           00006                           EXTEND
000415: 21,2620           31723                           DCA      VVECTY
000416: 21,2621           52073                           DXCH     LATVEL
000417: 21,2622           00006                           EXTEND                                         #  ADD SURFACE VELOCITY BACK IN SO APS
000418: 21,2623           31704                           DCA      VSURFACE   +2                         #    LATVEL DISPLAY WILL BE IN TRUE
000419: 21,2624           20073                           DAS      LATVEL                                #    STABLE-MEMBER COORDINATES
000420:
000421: 21,2625           12611                           TCF      CROSSOUT                              #  REJOIN THE MAINSTREAM
000422:
000423:                                                                                                  #  ************************************************************************
000424:                                                                                                  #  LANDING ANALOG DISPLAYS INITIALIZATION
000425:                                                                                                  #  ************************************************************************
000426:
000427: 21,2626           02513        DISPINIT           TC       CROSCOMP                              #  FIRST COMPUTE BUT NOT OUTPUT VELOCITIES
000428:
000429: 21,2627           40075                           CS       FLAGWRD1                              #  SET DIDFLAG
000430: 21,2630           74727                           MASK     DIDFLBIT
000431: 21,2631           26075                           ADS      FLAGWRD1
000432:
000433: 21,2632           34735                           CAF      BIT8                                  #  SET DISPLAY INERTIAL DATA OUTBIT
000434: 21,2633           00006                           EXTEND
000435:


000437: 21,2634           05012                           WOR      CHAN12
000438:
000439: 21,2635           44746                           CS       ZERO                                  #  ZERO METER INDICATORS
000440: 21,2636           55732                           TS       LATVMETR
000441: 21,2637           55733                           TS       FORVMETR
000442:
000443: 21,2640           34741                           CAF      BIT4                                  #  SET UP TASK TO FINISH INITIALIZATION
000444: 21,2641           05175                           TC       TWIDDLE
000445: 21,2642           02644                           ADRES    INTLZE
000446: 21,2643           12512                           TCF      LANADEND
000447:
000448: 21,2644           34743        INTLZE             CAF      BIT2                                  #  ENABLE RR ERROR COUNTER
000449: 21,2645           00006                           EXTEND
000450: 21,2646           05012                           WOR      CHAN12
000451:
000452: 21,2647           41300                           CS       IMODES33                              #  SET INERTIAL DATA FLAG
000453: 21,2650           74735                           MASK     BIT8
000454: 21,2651           27300                           ADS      IMODES33
000455: 21,2652           05263                           TC       TASKOVER
000456:
000457:                                                                                                  #  ************************************************************************
000458:                                                                                                  #  LANDING ANALOG DISPLAYS RESET ROUTINE
000459:                                                                                                  #  ************************************************************************
000460:
000461: 21,2653           02513        DISPRSET           TC       CROSCOMP                              #  FIRST COMPUTE BUT NOT OUTPUT VELOCITIES
000462:
000463: 21,2654           44727                 +1        CS       DIDFLBIT                              #  RESET DIDFLAG
000464: 21,2655           70075                           MASK     FLAGWRD1
000465: 21,2656           54075                           TS       FLAGWRD1
000466:
000467: 21,2657           34735                           CAF      BIT8                                  #  WAS INERTIAL DATA JUST DISPLAYED?
000468: 21,2660           71300                           MASK     IMODES33
000469: 21,2661           10000                           CCS      A
000470: 21,2662           34743                           CAF      BIT2                                  #  YES:  DISABLE RR ERROR COUNTER AND
000471: 21,2663           64735                           AD       BIT8                                  #  NO:   RESET DISPLAY INERTIAL DATA OUTBIT
000472: 21,2664           40000                           COM
000473: 21,2665           00006                           EXTEND
000474: 21,2666           03012                           WAND     CHAN12
000475:
000476: 21,2667           44735                           CS       BIT8
000477: 21,2670           71300                           MASK     IMODES33
000478: 21,2671           55300                           TS       IMODES33
000479: 21,2672           12512                           TCF      LANADEND
000480:
000481:                                                                                                  #  ************************************************************************
000482:                                                                                                  #  CONSTANTS FOR LANDING ANALOG DISPLAYS
000483:                                                                                                  #  ************************************************************************
000484:
000485:                                                                                                  #  CONSTANTS ON A-CARDS ARE FOUND IN THE CONTROLLED CONSTANTS SECTION
000486:


000488:                                                                                                  #  LANAKPIP        DEC             .0512                 SCALES PIPAS TO UNITS OF 2(5) M/CS
000489:
000490:                                                                                                  #  MAXVEL          OCT             00466                 198.645 F/S IN UNITS OF 2(5) M/CS
000491:
000492:                                                                                                  #  MAXDBITS        OCT             01034                 ABOUT 300 F/S
000493:
000494:                                                                                                  #  VELCONV         DEC             .03594                SCALES VEL AT ONE M/CS TO .5571 F/S/BIT
000495:
000496:                                                                                                  #  ALTRCONV        DEC             .16020                SCALES ALTR AT 2(2) M/CS TO .5 F/S/BIT
000497:
000498:                                                                                                  #  ALTCONV         DEC             .69954                SCALES ALTITUDE AT 2(15) M TO 9.38 F/BIT
000499:
000500: 21,2673     5011               BITSET             =        PRIO6                                 #  CROSS-POINTER DRIVE BITS
000501:
000502:                                                                                                  #  ************************************************************************
000503:                                                                                                  #  SUBROUTINES
000504:                                                                                                  #  ************************************************************************
000505: 21,2673           54061        LADLIMIT           TS       ITEMP1
000506: 21,2674           34746                           CAF      ZERO
000507: 21,2675           00006                           EXTEND
000508: 21,2676           10061                           DV       ITEMP1
000509: 21,2677           10000                           CCS      A
000510: 21,2700           22061                           LXCH     ITEMP1
000511: 21,2701           12703                           TCF      +2
000512: 21,2702           12705                           TCF      +3
000513: 21,2703           30001                           CA       L
000514: 21,2704           00002                           TC       Q
000515: 21,2705           40061                           CS       ITEMP1
000516: 21,2706           00002                           TC       Q
000517:
000518:                                                                                                  #  ************************************************************************
000519:                                                                                                  #  THE END OF THE LANDING ANALOG DISPLAYS
000520:                                                                                                  #  ************************************************************************

End of include-file LANDING_ANALOG_DISPLAYS.agc.  Parent file is MAIN.agc


