
Source Code


000002:                                                                                                  ## Copyright:   Public domain.
000003:                                                                                                  ## Filename:    LATITUDE_LONGITUDE_SUBROUTINES.agc
000004:                                                                                                  ## Purpose:     A section of Luminary revision 210.
000005:                                                                                                  ##              It is part of the source code for the Lunar Module's (LM)
000006:                                                                                                  ##              Apollo Guidance Computer (AGC) for Apollo 15-17.
000007:                                                                                                  ##              This file is intended to be a faithful transcription, except
000008:                                                                                                  ##              that the code format has been changed to conform to the
000009:                                                                                                  ##              requirements of the yaYUL assembler rather than the
000010:                                                                                                  ##              original YUL assembler.
000011:                                                                                                  ## Reference:   pp. 1131-1137
000012:                                                                                                  ## Assembler:   yaYUL
000013:                                                                                                  ## Contact:     Ron Burkey <info@sandroid.org>.
000014:                                                                                                  ## Website:     www.ibiblio.org/apollo/index.html
000015:                                                                                                  ## Mod history: 2016-11-17 JL   Created from Luminary131 version.
000016:                                                                                                  ##              2016-12-12 MAS  Transcribed.
000017:


000019:                                                                                                  #  SUBROUTINE TO CONVERT RAD VECTOR AT GIVEN TIME TO LAT,LONG AND ALT
000020:
000021:                                                                                                  #  CALLING SEQUENCE
000022:
000023:                                                                                                  #    L-1    CALL
000024:                                                                                                  #    L             LAT-LONG
000025:                                                                                                  #  SUBROUTINES USED
000026:
000027:                                                                                                  #   R-TO-RP,ARCTAN,SETGAMMA,SETRE
000028:                                                                                                  #  ERASABLE INIT. REQ.
000029:
000030:                                                                                                  #    AXO,-AYO,AZO,TEPHEM (SET AT LAUNCH TIME)
000031:                                                                                                  #  ALPHAV = POSITION VECTOR METERS B-29
000032:                                                                                                  #    MPAC-- TIME  (CSECS B-28)
000033:                                                                                                  #   ERADFLAG =1, TO COMPUTE EARTH RADIUS, =0 FOR FIXED EARTH RADIUS
000034:                                                                                                  #   LUNAFLAG=0 FOR EARTH,1 FOR MOON
000035:                                                                                                  #  OUTPUT
000036:
000037:                                                                                                  #    LATITUDE IN LAT   (REVS. B-0)
000038:                                                                                                  #    LONGITUDE IN LONG   (REVS. B-0)
000039:                                                                                                  #  ALTITUDE IN ALT METERS B-29
000040: 30,3761                                           BANK     30
000041: 13,2000                                           SETLOC   LATLONG
000042: 13,2000                                           BANK
000043:
000044: 13,2406                                           COUNT*   $$/LT-LG
000045: 13,2406  E4,1431                                  EBANK=   ALPHAV
000046: 13,2406           40220        LAT-LONG           STQ      SETPD
000047: 13,2407           03674                                    INCORPEX
000048: 13,2410           00001                                    0D
000049: 13,2411           24007                           STOVL    6D                                    #  SAVE TIME IN 6-7D FOR R-TO-RP
000050: 13,2412           02032                                    ALPHAV
000051: 13,2413           51406                           PUSH     ABVAL                                 #  0-5D= R FOR R-TO-RP
000052: 13,2414           16070                           STODL    ALPHAM                                #  ABS. VALUE OF R FOR ALT FORMULA BELOW
000053: 13,2415           24007                                    ZEROVEC                               #  SET MPAC=0 FOR EARTH,NON-ZERO FOR MOON
000054: 13,2416           71414                           BOFF     COS                                   #  USE COS(0) TO GET NON-ZERO IN MPAC
000055: 13,2417           01743                                    LUNAFLAG                              #  0=EARTH,1=MOON
000056: 13,2420           26421                                    CALLRTRP
000057: 13,2421           77624        CALLRTRP           CALL
000058: 13,2422           51644                                    R-TO-RP                               #  RP VECTOR CONVERTED FROM R B-29
000059: 13,2423           77656                           UNIT                                           #  UNIT RP B-1
000060: 13,2424           36032                           STCALL   ALPHAV                                #  U2= 1/2 SINL FOR SETRE SUBR BELOW
000061: 13,2425           26605                                    SETGAMMA                              #   SET GAMMA=B2/A2 FOR EARTH,=1 FOR MOON
000062: 13,2426           77624                           CALL                                           #   SCALED B-1
000063: 13,2427           26615                                    SETRE                                 #  CALC RE METERS B-29
000064: 13,2430           63545                           DLOAD    DSQ
000065: 13,2431           02032                                    ALPHAV
000066: 13,2432           63525                           PDDL     DSQ
000067: 13,2433           02034                                    ALPHAV     +2
000068: 13,2434           75415                           DAD      SQRT


000070: 13,2435           76405                           DMP      SL1R
000071: 13,2436           00011                                    GAMRP
000072: 13,2437           14021                           STODL    COSTH                                 #  COS(LAT) B-1
000073: 13,2440           02036                                    ALPHAV     +4
000074: 13,2441           34023                           STCALL   SINTH                                 #  SIN(LAT) B-1
000075: 13,2442           26545                                    ARCTAN
000076: 13,2443           15120                           STODL    LAT                                   #  LAT B0
000077: 13,2444           02032                                    ALPHAV
000078: 13,2445           14021                           STODL    COSTH                                 #  COS(LONG) B-1
000079: 13,2446           02034                                    ALPHAV     +2
000080: 13,2447           34023                           STCALL   SINTH                                 #  SIN(LONG) B-1
000081: 13,2450           26545                                    ARCTAN
000082: 13,2451           15122                           STODL    LONG                                  #  LONG. REVS B-0 IN RANGE -1/2 TO 1/2
000083: 13,2452           02070                                    ALPHAM
000084: 13,2453           77625                           DSU                                            #  ALT= R-RE METERS B-29
000085: 13,2454           03673                                    ERADM
000086: 13,2455           35124                           STCALL   ALT                                   #  EXIT WITH ALT METERS B-29
000087: 13,2456           03674                                    INCORPEX


000089:                                                                                                  #  SUBROUTINE TO CONVERT LAT,LONG,ALT AT GIVEN TIME TO RADIUS VECTOR
000090:                                                                                                  #  CALLING SEQUENCE
000091:
000092:                                                                                                  #    L-1    CALL
000093:                                                                                                  #    L             LALOTORV
000094:                                                                                                  #  SUBROUTINES USED
000095:
000096:                                                                                                  #   SETGAMMA,SETRE,RP-TO-R
000097:                                                                                                  #  ERASABLE INIT. REQ.
000098:
000099:                                                                                                  #    AXO,AYO,AZO,TEPHEM  SET AT LAUNCH TIME
000100:                                                                                                  #    LAT-- LATITUDE  (REVS B0)
000101:                                                                                                  #    LONG-- LONGITUDE  (REVS B0)
000102:                                                                                                  #  ALT--ALTITUDE (METERS) B-29
000103:                                                                                                  #    MPAC-- TIME  (CSECS B-28)
000104:                                                                                                  #    ERADFLAG =1 TO COMPUTE EARTH RADIUS, =0 FOR FIXED EARTH RADIUS
000105:                                                                                                  #   LUNAFLAG=0 FOR EARTH,1 FOR MOON
000106:                                                                                                  #  OUTPUT
000107:
000108:                                                                                                  #  R-VECTOR IN ALPHAV (METERS B-29)
000109: 13,2457           40220        LALOTORV           STQ      SETPD                                 #  LAT,LONG,ALT TO R VECTOR
000110: 13,2460           03674                                    INCORPEX
000111: 13,2461           00001                                    0D
000112: 13,2462           34007                           STCALL   6D                                    #  6-7D= TIME FOR RP-TO-R
000113: 13,2463           26605                                    SETGAMMA                              #  GAMMA=B2/A2 FOR EARTH,1 FOR MOON B-1
000114: 13,2464           73545                           DLOAD    SIN                                   #                COS(LONG)COS(LAT) IN MPAC
000115: 13,2465           01120                                    LAT                                   #       UNIT RP= SIN(LONG)COS(LAT)    2-3D
000116: 13,2466           65275                           DMPR     PDDL                                  #  PD 2          GAMMA*SIN(LAT)       0-1D
000117: 13,2467           00011                                    GAMRP
000118: 13,2470           01120                                    LAT                                   #          0-1D= GAMMA*SIN(LAT) B-2
000119: 13,2471           65346                           COS      PDDL                                  #  PD4      2-3D=COS(LAT) B-1 TEMPORARILY
000120: 13,2472           01122                                    LONG
000121: 13,2473           57356                           SIN      DMPR                                  #  PD 2
000122: 13,2474           71525                           PDDL     COS                                   #  PD 4    2-3D=SIN(LONG)COS(LAT) B-2
000123: 13,2475           01120                                    LAT
000124: 13,2476           71525                           PDDL     COS                                   #  PD 6     4-5D=COS(LAT) B-1 TEMPORARILY
000125: 13,2477           01122                                    LONG
000126: 13,2500           55475                           DMPR     VDEF                                  #  PD 4    MPAC= COS(LONG)COS(LAT) B-2
000127: 13,2501           41456                           UNIT     PUSH                                  #  0-5D= UNIT RP FOR RP-TO-R SUBR.
000128: 13,2502           36032                           STCALL   ALPHAV                                #  ALPHAV +4= SINL FOR SETRE SUBR.
000129: 13,2503           26615                                    SETRE                                 #  RE METERS B-29
000130: 13,2504           43145                           DLOAD    BOFF                                  #  SET MPAC=0 FOR EARTH,NON-ZERO IN MPAC
000131: 13,2505           24007                                    ZEROVEC
000132: 13,2506           01743                                    LUNAFLAG
000133: 13,2507           26511                                    CALLRPRT
000134: 13,2510           77746                           COS                                            #  USE COS(0) TO GET NON-ZERO IN MPAC
000135: 13,2511           77624        CALLRPRT           CALL
000136: 13,2512           55716                                    RP-TO-R                               #  EXIT WITH UNIT R VECTOR IN MPAC
000137: 13,2513           16032                           STODL    ALPHAV
000138: 13,2514           03673                                    ERADM


000140: 13,2515           74215                           DAD      VXSC                                  #  (RE + ALT)(UNIT R) METERS B-30
000141: 13,2516           01124                                    ALT
000142: 13,2517           02032                                    ALPHAV
000143: 13,2520           77772                           VSL1                                           #  R METERS B-29
000144: 13,2521           36032                           STCALL   ALPHAV                                #  EXIT WITH R IN METERS B-29
000145: 13,2522           03674                                    INCORPEX
000146:                                                                                                  #  SUBROUTINE TO COMPUTE EARTH RADIUS
000147:
000148:                                                                                                  #  INPUT
000149:
000150:                                                                                                  #    1/2 SIN LAT IN ALPHAV +4
000151:
000152:                                                                                                  #  OUTPUT
000153:
000154:                                                                                                  #    EARTH RADIUS IN ERADM AND MPAC  (METERS B-29)
000155:
000156: 13,2523           63545        GETERAD            DLOAD    DSQ
000157: 13,2524           02036                                    ALPHAV     +4                         #  SIN**2(L)
000158: 13,2525           44352                           SL1      BDSU
000159: 13,2526           24005                                    DP1/2                                 #  COS**2(L)
000160: 13,2527           44275                           DMPR     BDSU
000161: 13,2530           26544                                    EE
000162: 13,2531           24005                                    DP1/2
000163: 13,2532           75465                           BDDV     SQRT
000164: 13,2533           26540                                    B2XSC
000165: 13,2534           77622                           SR4R
000166: 13,2535           03673                           STORE    ERADM
000167: 13,2536           77616                           RVQ
000168:
000169:                                                                                                  #  THE FOLLOWING CONSTANTS WERE COMPUTED WITH A=6378166,B=6356784 METERS
000170:                                                                                                  #  B2XSC= B**2 SCALED B-51
000171:                                                                                                  #  B2/A2= B**2/A**2 SCALED B-1
000172:                                                                                                  #  EE=(1-B**2/A**2) SCALED B-0
000173: 13,2537           00446 00305  B2XSC              2DEC     .0179450689                            #  B**2 SCALED B-51
000174:
000175: 13,2541  12,2004               DP1/2              =        XUNIT
000176: 13,2541           17711 05254  B2/A2              2DEC     .9933064884 B-1                        #  GAMMA= B**2/A**2 B-1
000177:
000178: 13,2543           00155 25250  EE                 2DEC     6.6935116  E-3                        #  (1-B**2/A**2) B-0
000179:


000181:                                                                                                  #  ARCTAN SUBROUTINE
000182:
000183:
000184:                                                                                                  #  CALLING SEQUENCE
000185:
000186:                                                                                                  #    SIN THETA IN SINTH B-1
000187:                                                                                                  #    COS THETA IN COSTH B-1
000188:                                                                                                  #    CALL ARCTAN
000189:
000190:                                                                                                  #  OUTPUT
000191:                                                                                                  #     ARCTAN THETA IN MPAC AND THETA B-0 IN RANGE -1/2 TO +1/2
000192:
000193:
000194: 13,2545           77600        ARCTAN             BOV
000195: 13,2546           26547                                    CLROVFLW
000196: 13,2547           63545        CLROVFLW           DLOAD    DSQ
000197: 13,2550           00023                                    SINTH
000198: 13,2551           63525                           PDDL     DSQ
000199: 13,2552           00021                                    COSTH
000200: 13,2553           77615                           DAD
000201: 13,2554           75454                           BZE      SQRT
000202: 13,2555           26573                                    ARCTANXX                              #  ATAN=0/0  SET THETA=0
000203: 13,2556           40065                           BDDV     BOV
000204: 13,2557           00023                                    SINTH
000205: 13,2560           26600                                    ATAN=90
000206: 13,2561           67542                           SR1      ASIN
000207: 13,2562           00025                           STORE    THETA
000208: 13,2563           50125                           PDDL     BMN
000209: 13,2564           00021                                    COSTH
000210: 13,2565           26567                                    NEGCOS
000211: 13,2566           43545                           DLOAD    RVQ
000212: 13,2567           57545        NEGCOS             DLOAD    DCOMP
000213: 13,2570           43244                           BPL      DAD
000214: 13,2571           26575                                    NEGOUT
000215: 13,2572           24005                                    DP1/2
000216: 13,2573           00025        ARCTANXX           STORE    THETA
000217: 13,2574           77616                           RVQ
000218:
000219: 13,2575           52025        NEGOUT             DSU      GOTO
000220: 13,2576           24005                                    DP1/2
000221: 13,2577           26573                                    ARCTANXX
000222: 13,2600           75345        ATAN=90            DLOAD    SIGN
000223: 13,2601           11040                                    LODP1/4
000224: 13,2602           00023                                    SINTH
000225: 13,2603           00025                           STORE    THETA
000226: 13,2604           77616                           RVQ
000227:
000228: 13,2605  12,2006               2DZERO             =        DPZERO
000229:


000231:                                                                                                  #  ..... SETGAMMA SUBROUTINE .....
000232:                                                                                                  #  SUBROUTINE TO SET GAMMA FOR THE LAT-LONG AND LALOTORV SUBROUTINES
000233:
000234:                                                                                                  #   GAMMA = B**2/A**2 FOR EARTH (B-1)
000235:                                                                                                  #   GAMMA = 1 FOR MOON (B-1)
000236:
000237:                                                                                                  #  CALLING SEQUENCE
000238:                                                                                                  #   L       CALL
000239:                                                                                                  #   L+1            SETGAMMA
000240:
000241:                                                                                                  #  INPUT
000242:                                                                                                  #   LUNAFLAG=0 FOR EARTH,=1 FOR MOON
000243:
000244:                                                                                                  #  OUTPUT
000245:                                                                                                  #   GAMMA IN GAMRP  (B-1)
000246:
000247: 13,2605           43145        SETGAMMA           DLOAD    BOFF                                  #  BRANCH FOR EARTH
000248: 13,2606           26542                                    B2/A2                                 #  EARTH GAMMA
000249: 13,2607           01743                                    LUNAFLAG
000250: 13,2610           26613                                    SETGMEX
000251: 13,2611           77735                           SLOAD
000252: 13,2612           24005                                    1B1                                   #  MOON GAMMA
000253: 13,2613           00011        SETGMEX            STORE    GAMRP
000254: 13,2614           77616                           RVQ
000255: 13,2615                        GAMRP              =        8D
000256:


000258:                                                                                                  #  .....SETRE SUBROUTINE .....
000259:                                                                                                  #  SUBROUTINE TO SET RE (EARTH OR MOON RADIUS)
000260:
000261:                                                                                                  #  RE= RM FOR MOON
000262:                                                                                                  #   RE= RREF FOR FIXED EARTH RADIUS OR COMPUTED RF FOR FISCHER ELLIPSOID
000263:
000264:                                                                                                  #  CALLING SEQUENCE
000265:                                                                                                  #   L       CALL
000266:                                                                                                  #   L+1            SETRE
000267:
000268:                                                                                                  #  SUBROUTINES USED
000269:                                                                                                  #   GETERAD
000270:
000271:                                                                                                  #  INPUT
000272:                                                                                                  #   ERADFLAG=0 FOR FIXED RE, 1 FOR COMPUTED RE
000273:                                                                                                  #   ALPHAV +4= 1/2 SINL IF GETERAD IS CALLED
000274:                                                                                                  #   LUNAFLAG=0 FOR EARTH,=1 FOR MOON
000275:
000276:                                                                                                  #  OUTPUT
000277:                                                                                                  #   ERADM= 504RM FOR MOON (METERS B-29)
000278:                                                                                                  #   ERADM= ERAD OR COMPUTED RE FOR EARTH (METERS B-29)
000279:
000280: 13,2615           71220        SETRE              STQ      DLOAD
000281: 13,2616           00051                                    SETREX
000282: 13,2617           10003                                    504RM
000283: 13,2620           71214                           BON      DLOAD                                 #  BRANCH FOR MOON
000284: 13,2621           01703                                    LUNAFLAG
000285: 13,2622           26632                                    TSTRLSRM
000286: 13,2623           10001                                    ERAD
000287: 13,2624           45014                           BOFF     CALL                                  #  ERADFLAG=0 FOR FIXED RE,1 FOR COMPUTED
000288: 13,2625           00742                                    ERADFLAG
000289: 13,2626           26630                                    SETRXX
000290: 13,2627           26523                                    GETERAD
000291: 13,2630           37673        SETRXX             STCALL   ERADM                                 #  EXIT WITH RE OR RM METERS B-29
000292: 13,2631           00051                                    SETREX
000293: 13,2632           77214        TSTRLSRM           BON      VLOAD                                 #  ERADFLAG=0,SET R0=RLS
000294: 13,2633           00702                                    ERADFLAG                              #          =1     R0=RM
000295: 13,2634           26630                                    SETRXX
000296: 13,2635           02021                                    RLS
000297: 13,2636           64446                           ABVAL    SR2R                                  #  SCALE FROM B-27 TO B-29
000298: 13,2637           77650                           GOTO
000299: 13,2640           26630                                    SETRXX
000300: 13,2641  0000051               SETREX             =        S2

End of include-file LATITUDE_LONGITUDE_SUBROUTINES.agc.  Parent file is MAIN.agc


