
Source Code


000002:                                                                                                  ## Copyright:   Public domain.
000003:                                                                                                  ## Filename:    LUNAR_AND_SOLAR_EPHEMERIDES_SUBROUTINES.agc
000004:                                                                                                  ## Purpose:     A section of Luminary revision 210.
000005:                                                                                                  ##              It is part of the source code for the Lunar Module's (LM)
000006:                                                                                                  ##              Apollo Guidance Computer (AGC) for Apollo 15-17.
000007:                                                                                                  ##              This file is intended to be a faithful transcription, except
000008:                                                                                                  ##              that the code format has been changed to conform to the
000009:                                                                                                  ##              requirements of the yaYUL assembler rather than the
000010:                                                                                                  ##              original YUL assembler.
000011:                                                                                                  ## Reference:   pp. 982-985
000012:                                                                                                  ## Assembler:   yaYUL
000013:                                                                                                  ## Contact:     Ron Burkey <info@sandroid.org>.
000014:                                                                                                  ## Website:     www.ibiblio.org/apollo/index.html
000015:                                                                                                  ## Mod history: 2016-11-17 JL   Created from Luminary131 version.
000016:                                                                                                  ##              2016-11-29 HG   Transcribed
000017:                                                                                                  ##              2016-12-12 HG   Fix for interpretive operands 8D -> 9D
000018:                                                                                                  ##                                                            5D -> 6D
000019:                                                                                                  ##              2016-12-26 RSB  Comment-text proofed using ProoferComments
000020:                                                                                                  ##                              and corrected errors found.
000021:                                                                                                  ##              2017-03-13 RSB  Comment-text fixes noted in proofing Luminary 116.
000022:                                                                                                  ##              2017-08-26 MAS  Fixed comment-text errors found while transcribing Zerlina 56.
000023:


000025:                                                                                                  #  NAME - LSPOS  - LOCATE SUN AND MOON                   DATE - 25 OCT 67
000026:                                                                                                  #  MOD NO.2  (DATE OCT 70)
000027:                                                                                                  #  MOD BY NEVILLE                                        ASSEMBLY SUNDANCE
000028:
000029:                                                                                                  #  FUNCTIONAL DESCRIPTION
000030:
000031:                                                                                                  #         COMPUTES UNIT POSITION VECTOR OF THE SUN AND MOON IN THE BASIC REFERENCE SYSTEM. THE SUN VECTOR S IS
000032:                                                                                                  #  LOCATED VIA TWO ANGLES. THE FIRST ANGLE(OBLIQUITY) IS THE ANGLE BETWEEN THE EARTH EQUATOR AND THE ECLIPTIC.  THE
000033:                                                                                                  #  SECOND ANGLE IS THE LONGITUDE OF THE SUN MEASURED IN THE ECLIPTIC.
000034:                                                                                                  #  THE POSITION VECTOR OF THE SUN IS
000035:                                                                                                  #         -
000036:                                                                                                  #         S=(COS(LOS), COS(OBL)*SIN(LOS), SIN(OBL)*SIN(LOS)), WHERE
000037:
000038:                                                                                                  #       LOS=LOS +LOS *T-(C *SIN(2PI*T)/365.24 +C *COS(2PI*T)/365.24)
000039:                                                                                                  #              0    R     0                     1
000040:                                                                                                  #       LOS  (RAD) IS THE LONGITUDE OF THE SUN FOR MIDNIGHT JUNE 30TH OF THE PARTICULAR YEAR.
000041:                                                                                                  #          0
000042:                                                                                                  #       LOS  (RAD/DAY) IS THE MEAN RATE FOR THE PARTICULAR YEAR.
000043:                                                                                                  #          R
000044:                                                                                                  #  LOS  AND LOS  ARE STORED AS LOSC AND LOSR IN RATESP.
000045:                                                                                                  #     0        R
000046:                                                                                                  #  COS(OBL) AND SIN(OBL) ARE STORED IN THE MATRIX KONMAT.
000047:                                                                                                  #  T, TIME MEASURED IN DAYS (24 HOURS), IS STORED IN TIMEP.
000048:                                                                                                  #  C  AND C  ARE FUDGE FACTORS TO MINIMIZE THE DEVIATION.  THEY ARE STORED AS ONE CONSTANT(CMOD), SINCE
000049:                                                                                                  #   0      1                               2  2 1/2
000050:                                                                                                  #  C *SIN(X)+C *COS(X) CAN BE WRITTEN AS (C +C )   *SIN(X+PHI), WHERE PHI=ARCTAN(C /C ).
000051:                                                                                                  #   0         1                            0  1                                   1  0
000052:
000053:                                                                                                  #  THE MOON IS LOCATED VIA FOUR ANGLES. THE FIRST IS THE OBLIQUITY. THE SECOND IS THE MEAN LONGITUDE OF THE MOON,
000054:                                                                                                  #  MEASURED IN THE ECLIPTIC FROM THE MEAN EQUINOX TO THE MEAN ASCENDING NODE OF THE LUNAR ORBIT, AND THEN ALONG THE
000055:                                                                                                  #  ORBIT. THE THIRD ANGLE IS THE ANGLE BETWEEN THE ECLIPTIC AND THE LUNAR ORBIT. THE FOURTH ANGLE IS THE LONGITUDE
000056:                                                                                                  #  OF THE NODE OF THE MOON, MEASURED IN THE LUNAR ORBIT. LET THESE ANGLES BE OBL,LOM,IM, AND LON RESPECTIVELY.
000057:
000058:                                                                                                  #  THE SIMPLIFIED POSITION VECTOR OF THE MOON IS
000059:                                                                                                  #    -
000060:                                                                                                  #    M=(COS(LOM), COS(OBL)*SIN(LOM)-SIN(OBL)*SIN(IM)*SIN(LOM-LON), SIN(OBL)*SIN(LOM)+COS(OBL)*SIN(IM)*SIN(LOM-LON))
000061:
000062:                                                                                                  #    WHERE
000063:                                                                                                  #       LOM=LOM +LOM *T-(A *SIN 2PI*T/27.5545+A *COS(2PI*T/27.5545)+B *SIN 2PI*T/32+B *COS(2PI*T/32)), AND
000064:                                                                                                  #              0    R     0                    1                     0               1
000065:                                                                                                  #        LON=LON +LON
000066:                                                                                                  #               0    R
000067:                                                                                                  #  A , A , B  AND B  ARE STORED AS AMOD AND BMOD (SEE DESCRIPTION OF CMOD, ABOVE).  COS(OBL), SIN(OBL)*SIN(IM),
000068:                                                                                                  #   0   1   0      1
000069:                                                                                                  #  SIN(OBL), AND COS(OBL)*SIN(IM) ARE STORED IN KONMAT AS K1, K2, K3 AND K4, RESPECTIVELY. LOM , LOM , LON , LON
000070:                                                                                                  #  ARE STORED AS LOMO, LOMR, LONO, AND LONR IN RATESP.                                        0     R     0     R
000071:                                                                                                  #  THE THREE PHIS ARE STORED AS AARG, BARG, AND CARG(SUN).  ALL CONSTANTS ARE UPDATED BY YEAR.
000072:
000073:                                                                                                  #  CALLING SEQUENCE
000074:


000076:                                                                                                  #    CALL LSPOS.  RETURN IS VIA CPRET.
000077:
000078:                                                                                                  #  ALARMS OR ABORTS
000079:
000080:                                                                                                  #    NONE
000081:
000082:                                                                                                  #  ERASABLE INITIALIZATION REQUIRED
000083:
000084:                                                                                                  #    TEPHEM - TIME FROM MIDNIGHT 1 JULY PRECEDING THE LAUNCH TO THE TIME OF THE LAUNCH (WHEN THE AGC CLOCK WENT
000085:                                                                                                  #  TO ZERO). TEPHEM IS TP WITH UNITS OF CENTI-SECONDS.
000086:                                                                                                  #    TIME2 AND TIME1 ARE IN MPAC AND MPAC +1 WHEN PROGRAM IS CALLED.
000087:
000088:                                                                                                  #  OUTPUT
000089:
000090:                                                                                                  #    UNIT POSITIONAL VECTOR OF SUN IN VSUN.   (SCALED B-1)
000091:                                                                                                  #    UNIT POSITIONAL VECTOR OF MOON IN VMOON. (SCALED B-1)
000092:
000093:                                                                                                  #  SUBROUTINES USED
000094:
000095:                                                                                                  #    NONE
000096:
000097:                                                                                                  #  DEBRIS
000098:
000099:                                                                                                  #    CURRENT CORE SET, WORK AREA AND FREEFLAG
000100: 04,3030                                           BANK     04
000101: 15,2000                                           SETLOC   EPHEM
000102: 15,2000                                           BANK
000103:
000104: 15,3646  E5,1714                                  EBANK=   VSUN
000105: 15,3646                                           COUNT*   $$/EPHEM
000106: 15,3646  15,3646               LUNPOS             EQUALS   LSPOS
000107:
000108: 15,3646           54201        LSPOS              SETPD    SR
000109: 15,3647           00001                                    0
000110: 15,3650           20617                                    14D                                   #  TP
000111: 15,3651           56371                           TAD      DDV
000112: 15,3652           01707                                    TEPHEM                                #  TIME OF LAUNCH
000113: 15,3653           32001                                    CSTODAY                               #  24 HOURS-8640000 CENTI-SECS/DAY B-32
000114: 15,3654           00031                           STORE    TIMEP                                 #  T IN DAYS
000115: 15,3655           77170                           AXT,1    AXT,2
000116: 15,3656           00000                                    0
000117: 15,3657           00000                                    0
000118: 15,3660           77614                           CLEAR
000119: 15,3661           00274                                    FREEFLAG                              #  SWITCH BIT
000120: 15,3662           77745        POSITA             DLOAD
000121: 15,3663           12004                                    KONMAT     +2                         #  ZEROS
000122: 15,3664           00027                           STORE    GTMP
000123: 15,3665           40745        POSITB             DLOAD    DMP*
000124: 15,3666           00031                                    TIMEP                                 #  T
000125: 15,3667           12030                                    VAL67      +4,1                       #  1/27 OR 1/32 OR 1/365


000127: 15,3670           42661                           SL       DAD*
000128: 15,3671           20212                                    9D
000129: 15,3672           12026                                    VAL67      +2,1                       #  AARG
000130: 15,3673           40756                           SIN      DMP*                                  #  SIN(T/27+PHI) OR T/32 OR T/365
000131: 15,3674           12024                                    VAL67,1                               #  (A0**2+A1**2)**1/2 SIN(X+PHIA)
000132: 15,3675           62015                           DAD      INCR,1                                #  PLUS
000133: 15,3676           00027                                    GTMP                                  #  (B0**2+B1**2)**1/2 SIN(X+PHIB)
000134: 15,3677           77771                           DEC      -6         B-14
000135: 15,3700           00027                           STORE    GTMP                                  #  OR (C0**2+C1**2)**1/2 SIN(X+PHIC)
000136: 15,3701           77614                           BOFSET
000137: 15,3702           00054                                    FREEFLAG
000138: 15,3703           33665                                    POSITB
000139: 15,3704           40745        POSITD             DLOAD    DMP*
000140: 15,3705           00031                                    TIMEP                                 #  T
000141: 15,3706           67752                                    RATESP,2                              #  LOMR,LOSR,LONR
000142: 15,3707           42661                           SL       DAD*
000143: 15,3710           20207                                    6D
000144: 15,3711           67744                                    RATESP     +6,2                       #  LOMO,LOSO,LONO
000145: 15,3712           77625                           DSU
000146: 15,3713           00027                                    GTMP
000147: 15,3714           10021                           STORE    STMP,2                                #  LOM,LOS,LON
000148: 15,3715           63135                           SLOAD    INCR,2
000149: 15,3716           00050                                    X2
000150: 15,3717           77775                           DEC      -2         B-14
000151: 15,3720           53015                           DAD      BZE
000152: 15,3721           32003                                    RCB-13                                #  PLUS 2
000153: 15,3722           33752                                    POSITE                                #  2ND
000154: 15,3723           77644                           BPL
000155: 15,3724           33662                                    POSITA                                #  1ST
000156: 15,3725           45345        POSITF             DLOAD    DSU                                   #  3RD
000157: 15,3726           00021                                    STMP                                  #  LOM
000158: 15,3727           00025                                    STMP       +4                         #  LON
000159: 15,3730           65356                           SIN      PDDL                                  #  SIN(LOM-LON)
000160: 15,3731           00021                                    STMP
000161: 15,3732           65356                           SIN      PDDL                                  #  SIN LOM
000162: 15,3733           00021                                    STMP
000163: 15,3734           55546                           COS      VDEF                                  #  COS LOM
000164: 15,3735           53521                           MXV      UNIT
000165: 15,3736           12002                                    KONMAT                                #  K1,K2,K3,K4,
000166: 15,3737           02723                           STORE    VMOON
000167: 15,3740           65345                           DLOAD    PDDL
000168: 15,3741           12004                                    KONMAT     +2                         #  ZERO
000169: 15,3742           00023                                    STMP       +2
000170: 15,3743           65356                           SIN      PDDL                                  #  SIN LOS
000171: 15,3744           00023                                    STMP       +2
000172: 15,3745           55546                           COS      VDEF                                  #  COS LOS
000173: 15,3746           53521                           MXV      UNIT
000174: 15,3747           12002                                    KONMAT
000175: 15,3750           02715                           STORE    VSUN
000176: 15,3751           77616                           RVQ
000177:


000179: 15,3752           77745        POSITE             DLOAD
000180: 15,3753           12004                                    KONMAT     +2                         #  ZEROS
000181: 15,3754           00027                           STORE    GTMP
000182: 15,3755           77650                           GOTO
000183: 15,3756           33704                                    POSITD
000184: 05,2000                                           SETLOC   EPHEM1
000185: 05,2000                                           BANK
000186:
000187: 05,3507                                           COUNT*   $$/EPHEM
000188:
000189: 05,3507                        STMP               EQUALS   16D
000190:
000191: 05,3507                        GTMP               EQUALS   22D
000192:
000193: 05,3507                        TIMEP              EQUALS   24D

End of include-file LUNAR_AND_SOLAR_EPHEMERIDES_SUBROUTINES.agc.  Parent file is MAIN.agc


