
Source Code


000002:                                                                                                  ## Copyright:   Public domain.
000003:                                                                                                  ## Filename:    MEASUREMENT_INCORPORATION.agc
000004:                                                                                                  ## Purpose:     A section of Luminary revision 210.
000005:                                                                                                  ##              It is part of the source code for the Lunar Module's (LM)
000006:                                                                                                  ##              Apollo Guidance Computer (AGC) for Apollo 15-17.
000007:                                                                                                  ##              This file is intended to be a faithful transcription, except
000008:                                                                                                  ##              that the code format has been changed to conform to the
000009:                                                                                                  ##              requirements of the yaYUL assembler rather than the
000010:                                                                                                  ##              original YUL assembler.
000011:                                                                                                  ## Reference:   pp. 1147-1156
000012:                                                                                                  ## Assembler:   yaYUL
000013:                                                                                                  ## Contact:     Ron Burkey <info@sandroid.org>.
000014:                                                                                                  ## Website:     www.ibiblio.org/apollo/index.html
000015:                                                                                                  ## Mod history: 2016-11-17 JL   Created from Luminary131 version.
000016:                                                                                                  ##              2016-12-09 JS   Compared to Luminary210 images. Updated where needed.
000017:                                                                                                  ##              2016-12-26 RSB  Comment-text proofed using ProoferComments
000018:                                                                                                  ##                              and corrected errors found.
000019:                                                                                                  ##              2021-05-30 ABS  ZEROD -> ZEROO
000020:


000022:                                                                                                  #   INCORP1--PERFORMS THE SIX DIMENSIONAL STATE VECTOR DEVIATION FOR POSITI
000023:                                                                                                  #  ON AND VELOCITY OR THE NINE DIMENSIONAL DEVIATION OF POSITION,VELOCITY,A
000024:                                                                                                  #  ND RADAR OR LANDMARK BIAS.THE OUTPUT OF THE BVECTOR ROUTINE ALONG WITH T
000025:                                                                                                  #  HE ERROR TRANSITION MATRIX(W) ARE USED AS INPUT TO THE ROUTINE.THE DEVIA
000026:                                                                                                  #  TION IS OBTAINED BY COMPUTING AN ESTIMATED TRACKING MEASUREMENT FROM THE
000027:                                                                                                  #  CURRENT STATE VECTOR AND COMPARING IT WITH AN ACTUAL TRACKING MEASUREMEN
000028:                                                                                                  #  T AND APPLYING A STATISTICAL WEIGHTING VECTOR.
000029:                                                                                                  #  INPUT
000030:                                                                                                  #     DMENFLG = 0 6DIMENSIONAL BVECTOR  1= 9DIMENSIONAL
000031:                                                                                                  #            W = ERROR TRANSITION MATRIX 6X6 OR 9X9
000032:                                                                                                  #     VARIANCE = VARIANCE (SCALAR)
000033:                                                                                                  #       DELTAQ = MEASURED DEVIATION (SCALAR)
000034:                                                                                                  #      BVECTOR = 6 OR 9 DIMENSIONAL BVECTOR
000035:
000036:                                                                                                  #  OUTPUT
000037:                                                                                                  #       DELTAX = STATE VECTOR DEVIATIONS 6 OR 9 DIMENSIONAL
000038:                                                                                                  #           ZI = VECTOR USED FOR THE INCORPORATION 6 OR 9 DIMENSIONAL
000039:                                                                                                  #      GAMMA = SCALAR
000040:                                                                                                  #      OMEGA = OMEGA WEIGHTING VECTOR 6 OR 9 DIMENTIONAL
000041:                                                                                                  #  CALLING SEQUENCE
000042:                                                                                                  #     L  CALL INCORP1
000043:
000044:                                                                                                  #  NORMAL EXIT
000045:                                                                                                  #     L+1 OF CALLING SEQUENCE
000046:
000047: 37,3654                                           BANK     37
000048: 23,2000                                           SETLOC   MEASINC
000049: 23,2000                                           BANK
000050:
000051: 23,2514                                           COUNT*   $$/INCOR
000052:
000053: 23,2514  E5,1400                                  EBANK=   W
000054:
000055: 23,2514           77620        INCORP1            STQ
000056: 23,2515           02767                                    EGRESS
000057: 23,2516           66370                           AXT,1    SSP
000058: 23,2517           00066                                    54D
000059: 23,2520           00051                                    S1
000060: 23,2521           00022                                    18D                                   #  IX1 = 54  S1= 18
000061: 23,2522           66374                           AXT,2    SSP
000062: 23,2523           00022                                    18D
000063: 23,2524           00052                                    S2
000064: 23,2525           00006                                    6                                     #  IX2 = 18  S2=6
000065: 23,2526           63775        Z123               VLOAD    MXV*
000066: 23,2527           03525                                    BVECTOR                               #  BVECTOR (0)
000067: 23,2530           02467                                    W          +54D,1
000068: 23,2531           12665                           STORE    ZI         +18D,2
000069: 23,2532           77775                           VLOAD
000070: 23,2533           03533                                    BVECTOR    +6                         #  BVECTOR (1)
000071:


000073: 23,2534           52717                           MXV*     VAD*
000074: 23,2535           02555                                    W          +108D,1
000075: 23,2536           75112                                    ZI         +18D,2
000076: 23,2537           12665                           STORE    ZI         +18D,2
000077: 23,2540           77775                           VLOAD
000078: 23,2541           03541                                    BVECTOR    +12D                       #  BVECTOR (2)
000079: 23,2542           52717                           MXV*     VAD*
000080: 23,2543           02643                                    W          +162D,1
000081: 23,2544           75112                                    ZI         +18D,2                     #  B(0)*W+B(1)*(W+54)+B(2)*(W+108)FIRST PAS
000082: 23,2545           12665                           STORE    ZI         +18D,2                     #  ZI THEN Z2 THEN Z3
000083: 23,2546           77700                           TIX,1
000084: 23,2547           46550                                    INCOR1
000085: 23,2550           43104        INCOR1             TIX,2    BON
000086: 23,2551           46526                                    Z123                                  #  LOOP FOR Z1,Z2,Z3
000087: 23,2552           02706                                    DMENFLG
000088: 23,2553           46557                                    INCOR1A
000089: 23,2554           77775                           VLOAD
000090: 23,2555           06505                                    ZEROVECS
000091: 23,2556           02657                           STORE    ZI         +12D
000092: 23,2557           77201        INCOR1A            SETPD    VLOAD
000093: 23,2560           00001                                    0
000094: 23,2561           02643                                    ZI
000095: 23,2562           47036                           VSQ      RTB
000096: 23,2563           21643                                    TPMODE
000097: 23,2564           47515                           PDVL     VSQ
000098: 23,2565           02651                                    ZI         +6
000099: 23,2566           76234                           RTB      TAD
000100: 23,2567           21643                                    TPMODE
000101: 23,2570           47515                           PDVL     VSQ
000102: 23,2571           02657                                    ZI         +12D
000103: 23,2572           76234                           RTB      TAD
000104: 23,2573           21643                                    TPMODE
000105: 23,2574           77171                           TAD      AXT,2
000106: 23,2575           02707                                    VARIANCE
000107: 23,2576           00000                                    0
000108: 23,2577           02665                           STORE    TRIPA                                 #  ZI*2 + Z2*2 + Z3*2 + VARIANCE
000109: 23,2600           40151                           TLOAD    BOV
000110: 23,2601           02707                                    VARIANCE                              #  CLEAR OVFIND
000111: 23,2602           46603                                    +1
000112: 23,2603           02670                           STORE    TEMPVAR                               #  TEMP STORAGE FOR VARIANCE
000113: 23,2604           77654                           BZE
000114: 23,2605           46614                                    INCOR1C
000115: 23,2606           40112        INCOR1B            SL2      BOV
000116: 23,2607           46614                                    INCOR1C
000117: 23,2610           02670                           STORE    TEMPVAR
000118: 23,2611           52114                           INCR,2   GOTO
000119: 23,2612           00001                           DEC      1          B-14
000120: 23,2613           46606                                    INCOR1B
000121: 23,2614           61551        INCOR1C            TLOAD    ROUND
000122: 23,2615           02665                                    TRIPA
000123:


000125: 23,2616           75405                           DMP      SQRT
000126: 23,2617           02670                                    TEMPVAR
000127: 23,2620           76257                           SL*      TAD
000128: 23,2621           57576                                    0,2
000129: 23,2622           02665                                    TRIPA
000130: 23,2623           63101                           NORM     INCR,2
000131: 23,2624           00050                                    X2
000132: 23,2625           77775                           DEC      -2         B-14
000133: 23,2626           77134                           SXA,2    AXT,2
000134: 23,2627           02102                                    NORMGAM                               #  NORMALIZATION COUNT -2 FOR GAMMA
000135: 23,2630           00242                                    162D
000136: 23,2631           40265                           BDDV     SETPD
000137: 23,2632           06475                                    DP1/4TH
000138: 23,2633           00001                                    0
000139: 23,2634           03500                           STORE    GAMMA
000140: 23,2635           60351                           TLOAD    NORM
000141: 23,2636           02665                                    TRIPA
000142: 23,2637           00047                                    X1
000143: 23,2640           65345                           DLOAD    PDDL                                  #  PD 0-1 = NORM (A)
000144: 23,2641           00155                                    MPAC
000145: 23,2642           03547                                    DELTAQ
000146: 23,2643           77701                           NORM
000147: 23,2644           00051                                    S1
000148: 23,2645           70460                           XSU,1    SR1
000149: 23,2646           00050                                    S1
000150: 23,2647           41471                           DDV      PUSH                                  #  PD 0-1 = DELTAQ/A
000151: 23,2650           77650                           GOTO
000152: 23,2651           45712                                    NEWZCOMP
000153: 23,2652           77731                 -3        SSP
000154: 23,2653           00052                                    S2
000155: 23,2654           00066                                    54D
000156: 23,2655           60775        INCOR2             VLOAD    VXM*                                  #  COMPUTE OMEGA1,2,3
000157: 23,2656           02643                                    ZI
000158: 23,2657           75134                                    W          +162D,2
000159: 23,2660           77206                           PUSH     VLOAD
000160: 23,2661           02651                                    ZI         +6
000161: 23,2662           53303                           VXM*     VAD
000162: 23,2663           75112                                    W          +180D,2
000163: 23,2664           77206                           PUSH     VLOAD
000164: 23,2665           02657                                    ZI         +12D
000165: 23,2666           53303                           VXM*     VAD
000166: 23,2667           75070                                    W          +198D,2
000167: 23,2670           61006                           PUSH     TIX,2                                 #  PD 2-7=OMEGA1,8-13=OMEGA2,14-19=OMEGA3
000168: 23,2671           46655                                    INCOR2
000169: 23,2672           45575                           VLOAD    STADR
000170: 23,2673           74260                           STORE    OMEGA      +12D
000171: 23,2674           45575                           VLOAD    STADR
000172: 23,2675           74266                           STORE    OMEGA      +6
000173: 23,2676           45575                           VLOAD    STADR
000174: 23,2677           74274                           STORE    OMEGA
000175:


000177: 23,2700           77214                           BON      VLOAD
000178: 23,2701           02706                                    DMENFLG
000179: 23,2702           46705                                    INCOR2AB
000180: 23,2703           06505                                    ZEROVECS
000181: 23,2704           03517                           STORE    OMEGA      +12D
000182: 23,2705           66374        INCOR2AB           AXT,2    SSP
000183: 23,2706           00022                                    18D
000184: 23,2707           00052                                    S2
000185: 23,2710           00006                                    6
000186: 23,2711           77773        INCOR3             VLOAD*
000187: 23,2712           74252                                    OMEGA      +18D,2
000188: 23,2713           53761                           VXSC     VSL*
000189: 23,2714           00001                                    0                                     #  DELTAQ/A
000190: 23,2715           20201                                    0,1
000191: 23,2716           12707                           STORE    DELTAX     +18D,2
000192: 23,2717           77304                           TIX,2    VLOAD
000193: 23,2720           46711                                    INCOR3
000194: 23,2721           02673                                    DELTAX     +6
000195: 23,2722           77732                           VSL3
000196: 23,2723           02673                           STORE    DELTAX     +6
000197: 23,2724           77650                           GOTO
000198: 23,2725           02767                                    EGRESS
000199:


000201:                                                                                                  #   INCORP2 -INCORPORATES THE COMPUTED STATE VECTOR DEVIATIONS INTO THE
000202:                                                                                                  #  ESTIMATED STATE VECTOR. THE STATE VECTOR UPDATED MAY BE FOR EITHER THE
000203:                                                                                                  #  LEM OR THE CSM.DETERMINED BY FLAG VEHUPFLG.(ZERO = LEM) (1 = CSM)
000204:
000205:                                                                                                  #  INPUT
000206:                                                                                                  #     PERMANENT STATE VECTOR FOR EITHER THE LEM OR CSM
000207:                                                                                                  #     VEHUPFLG = UPDATE VEHICLE 0=LEM  1=CSM
000208:                                                                                                  #     W =        ERROR TRANSITION MATRIX
000209:                                                                                                  #     DELTAX  =  COMPUTED STATE VECTOR DEVIATIONS
000210:                                                                                                  #     DMENFLG =  SIZE OF W MATRIX (ZERO =6X6) (1=9X9)
000211:                                                                                                  #     GAMMA   =  SCALAR FOR INCORPORATION
000212:                                                                                                  #     ZI      =  VECTOR USED IN INCORPORATION
000213:                                                                                                  #     OMEGA  =  WEIGHTING VECTOR
000214:
000215:                                                                                                  #  OUTPUT
000216:                                                                                                  #     UPDATED PERMANENT STATE VECTOR
000217:
000218:                                                                                                  #  CALLING SEQUENCE
000219:                                                                                                  #     L  CALL INCORP2
000220:
000221:                                                                                                  #  NORMAL EXIT
000222:                                                                                                  #     L+1 OF CALLING SEQUENCE
000223:
000224:
000225: 23,2000                                           SETLOC   MEASINC1
000226: 23,2000                                           BANK
000227:
000228: 23,2726                                           COUNT*   $$/INCOR
000229:
000230: 23,2726           45020        INCORP2            STQ      CALL
000231: 23,2727           02767                                    EGRESS
000232: 23,2730           27447                                    INTSTALL
000233: 23,2731           74375                           VLOAD    VXSC                                  #  CALC. GAMMA * OMEGA1,2,3
000234: 23,2732           03503                                    OMEGA
000235: 23,2733           03500                                    GAMMA
000236: 23,2734           26713                           STOVL    OMEGAM1
000237: 23,2735           03511                                    OMEGA      +6
000238: 23,2736           77761                           VXSC
000239: 23,2737           03500                                    GAMMA
000240: 23,2740           26721                           STOVL    OMEGAM2
000241: 23,2741           03517                                    OMEGA      +12D
000242: 23,2742           77761                           VXSC
000243: 23,2743           03500                                    GAMMA
000244: 23,2744           02727                           STORE    OMEGAM3
000245: 23,2745           77776                           EXIT
000246: 23,2746           33227                           CAF      54DD                                  #  INITIAL IX 1 SETTING FOR W MATRIX
000247: 23,2747           55315                           TS       WIXA
000248: 23,2750           55316                           TS       WIXB
000249: 23,2751           34746                           CAF      ZERO
000250: 23,2752           55317                           TS       ZIXA                                  #  INITIAL IX 2 SETTING FOR Z COMPONENT
000251: 23,2753           55320                           TS       ZIXB
000252: 23,2754           05355        FAZA               TC       PHASCHNG
000253:


000255: 23,2755           04022                           OCT      04022
000256: 23,2756           05506                           TC       UPFLAG
000257: 23,2757           00236                           ADRES    REINTFLG
000258: 23,2760           31316        FAZA1              CA       WIXB                                  #  START FIRST PHASE OF INCORP2
000259: 23,2761           55315                           TS       WIXA                                  #   TO UPDATE 6 OR 9 DIM. W MATRIX IN TEMP
000260: 23,2762           31320                           CA       ZIXB
000261: 23,2763           55317                           TS       ZIXA
000262: 23,2764           06060                           TC       INTPRET
000263: 23,2765           73150                           LXA,1    LXA,2
000264: 23,2766           01315                                    WIXA
000265: 23,2767           01317                                    ZIXA
000266: 23,2770           70731                           SSP      DLOAD*
000267: 23,2771           00051                                    S1
000268: 23,2772           00006                                    6
000269: 23,2773           75134                                    ZI,2
000270: 23,2774           60276                           DCOMP    NORM                                  #  CALC UPPER 3X9 PARTITION OF W MATRIX
000271: 23,2775           00052                                    S2
000272: 23,2776           65161                           VXSC     XCHX,2
000273: 23,2777           02713                                    OMEGAM1
000274: 23,3000           00051                                    S2
000275: 23,3001           57144                           LXC,2    XAD,2
000276: 23,3002           00047                                    X2
000277: 23,3003           02102                                    NORMGAM
000278: 23,3004           65057                           VSL*     XCHX,2
000279: 23,3005           57576                                    0,2
000280: 23,3006           00051                                    S2
000281: 23,3007           77653                           VAD*
000282: 23,3010           02467                                    W          +54D,1
000283: 23,3011           02735                           STORE    HOLDW
000284: 23,3012           57543                           DLOAD*   DCOMP                                 #  CALC MIDDLE 3X9 PARTITION OF W MATRIX
000285: 23,3013           75134                                    ZI,2
000286: 23,3014           74301                           NORM     VXSC
000287: 23,3015           00052                                    S2
000288: 23,3016           02721                                    OMEGAM2
000289: 23,3017           71124                           XCHX,2   LXC,2
000290: 23,3020           00051                                    S2
000291: 23,3021           00047                                    X2
000292: 23,3022           53674                           XAD,2    VSL*
000293: 23,3023           02102                                    NORMGAM
000294: 23,3024           57576                                    0,2
000295: 23,3025           52724                           XCHX,2   VAD*
000296: 23,3026           00051                                    S2
000297: 23,3027           02555                                    W          +108D,1
000298: 23,3030           02743                           STORE    HOLDW      +6
000299: 23,3031           77614                           BOFF
000300: 23,3032           02746                                    DMENFLG                               #  BRANCH IF 6 DIMENSIONAL
000301: 23,3033           47053                                    FAZB
000302: 23,3034           57543                           DLOAD*   DCOMP                                 #  CALC LOWER 3X9 PARTITION OF W MATRIX
000303: 23,3035           75134                                    ZI,2
000304: 23,3036           74301                           NORM     VXSC
000305:


000307: 23,3037           00052                                    S2
000308: 23,3040           02727                                    OMEGAM3
000309: 23,3041           71124                           XCHX,2   LXC,2
000310: 23,3042           00051                                    S2
000311: 23,3043           00047                                    X2
000312: 23,3044           53674                           XAD,2    VSL*
000313: 23,3045           02102                                    NORMGAM
000314: 23,3046           57576                                    0,2
000315: 23,3047           52724                           XCHX,2   VAD*
000316: 23,3050           00051                                    S2
000317: 23,3051           02643                                    W          +162D,1
000318: 23,3052           02751                           STORE    HOLDW      +12D
000319: 23,3053           77624        FAZB               CALL
000320: 23,3054           51770                                    GRP2PC
000321: 23,3055           77776                           EXIT
000322: 23,3056           31315        FAZB1              CA       WIXA                                  #  START 2ND PHASE OF INCORP2 TO TRANSFER
000323: 23,3057           63230                           AD       6DD                                   #      TEMP REG TO PERM W MATRIX
000324: 23,3060           55316                           TS       WIXB
000325: 23,3061           31317                           CA       ZIXA
000326: 23,3062           67767                           AD       MINUS2
000327: 23,3063           55320                           TS       ZIXB
000328: 23,3064           06060                           TC       INTPRET
000329: 23,3065           66350                           LXA,1    SSP
000330: 23,3066           01315                                    WIXA
000331: 23,3067           00051                                    S1
000332: 23,3070           00006                                    6
000333: 23,3071           77775                           VLOAD
000334: 23,3072           02735                                    HOLDW
000335: 23,3073           06467                           STORE    W          +54D,1
000336: 23,3074           77775                           VLOAD
000337: 23,3075           02743                                    HOLDW      +6
000338: 23,3076           06555                           STORE    W          +108D,1
000339: 23,3077           77214                           BOFF     VLOAD
000340: 23,3100           02746                                    DMENFLG
000341: 23,3101           47111                                    FAZB5
000342: 23,3102           02751                                    HOLDW      +12D
000343: 23,3103           06643                           STORE    W          +162D,1
000344: 23,3104           52100        FAZB2              TIX,1    GOTO
000345: 23,3105           47107                                    +2
000346: 23,3106           47117                                    FAZC                                  #  DONE WITH W MATRIX.  UPDATE STATE VECTOR
000347: 23,3107           77634                           RTB
000348: 23,3110           46754                                    FAZA
000349: 23,3111           43335        FAZB5              SLOAD    DAD
000350: 23,3112           01321                                    ZIXB
000351: 23,3113           07232                                    12DD
000352: 23,3114           52030                           BHIZ     GOTO
000353: 23,3115           47117                                    FAZC
000354: 23,3116           47104                                    FAZB2
000355: 23,3117           77624        FAZC               CALL
000356: 23,3120           51770                                    GRP2PC
000357:


000359: 23,3121           53375                           VLOAD    VAD                                   #  START 3RD PHASE OF INCORP2
000360: 23,3122           01701                                    X789                                  #  7TH,8TH,9TH,COMPONENT OF STATE VECTOR
000361: 23,3123           02701                                    DELTAX     +12D                       #  INCORPORATION FOR X789
000362: 23,3124           03472                           STORE    TX789
000363: 23,3125           47014                           BON      RTB
000364: 23,3126           00707                                    VEHUPFLG
000365: 23,3127           47217                                    DOCSM
000366: 23,3130           27026                                    MOVEPLEM
000367: 23,3131           77004        FAZAB              BOVB     AXT,2
000368: 23,3132           57756                                    TCDANZIG
000369: 23,3133           00000                                    0
000370: 23,3134           77014                           BOFF     AXT,2
000371: 23,3135           04344                                    MOONTHIS
000372: 23,3136           47140                                    +2
000373: 23,3137           00002                                    2
000374: 23,3140           53775                           VLOAD    VSR*
000375: 23,3141           02665                                    DELTAX                                #  B27 IF MOON ORBIT, B29 IF EARTH
000376: 23,3142           57205                                    0          -7,2
000377: 23,3143           40055                           VAD      BOV
000378: 23,3144           01521                                    TDELTAV
000379: 23,3145           47157                                    FAZAB1
000380: 23,3146           25521                           STOVL    TDELTAV
000381: 23,3147           02673                                    DELTAX     +6                         #  B5 IF MOON ORBIT, B7 IF EARTH
000382: 23,3150           53257                           VSR*     VAD
000383: 23,3151           57202                                    0          -4,2
000384: 23,3152           01527                                    TNUV
000385: 23,3153           77600                           BOV
000386: 23,3154           47163                                    FAZAB2
000387: 23,3155           35527                           STCALL   TNUV
000388: 23,3156           47172                                    FAZAB3
000389: 23,3157           53375        FAZAB1             VLOAD    VAD
000390: 23,3160           01535                                    RCV
000391: 23,3161           02665                                    DELTAX
000392: 23,3162           01535                           STORE    RCV
000393: 23,3163           53375        FAZAB2             VLOAD    VAD
000394: 23,3164           01543                                    VCV
000395: 23,3165           02673                                    DELTAX     +6
000396: 23,3166           01543                           STORE    VCV
000397: 23,3167           45134                           SXA,2    CALL
000398: 23,3170           02030                                    PBODY
000399: 23,3171           27720                                    RECTIFY
000400: 23,3172           77624        FAZAB3             CALL
000401: 23,3173           51770                                    GRP2PC
000402: 23,3174           47014                           BON      RTB
000403: 23,3175           00707                                    VEHUPFLG
000404: 23,3176           47222                                    DOCSM1
000405: 23,3177           27005                                    MOVEALEM
000406: 23,3200           77624                           CALL
000407: 23,3201           26070                                    SVDWN2                                #  STORE DOWNLINK STATE VECTOR
000408: 23,3202           77624        FAZAB4             CALL
000409:


000411: 23,3203           51770                                    GRP2PC                                #  PHASE CHANGE
000412: 23,3204           77214                           BOFF     VLOAD
000413: 23,3205           02746                                    DMENFLG
000414: 23,3206           47211                                    FAZAB5                                #  6 DIMENSIONAL
000415: 23,3207           03472                                    TX789                                 #  9 DIMENSIONAL
000416: 23,3210           01701                           STORE    X789
000417: 23,3211           66150        FAZAB5             LXA,1    SXA,1
000418: 23,3212           02767                                    EGRESS
000419: 23,3213           00052                                    QPRET
000420: 23,3214           77776                           EXIT
000421: 23,3215           04626                           TC       POSTJUMP                              #  EXIT
000422: 23,3216           27460                           CADR     INTWAKE
000423: 23,3217           52034        DOCSM              RTB      GOTO
000424: 23,3220           26761                                    MOVEPCSM
000425: 23,3221           47131                                    FAZAB
000426: 23,3222           45034        DOCSM1             RTB      CALL
000427: 23,3223           26732                                    MOVEACSM
000428: 23,3224           26114                                    SVDWN1                                #  STORE DOWNLINK STATE VECTOR
000429: 23,3225           77650                           GOTO
000430: 23,3226           47202                                    FAZAB4
000431: 23,3227  23,2504               ZEROO              =        ZEROVECS
000432: 23,3227           00066        54DD               DEC      54         B-14
000433: 23,3230           77771        6DD                DEC      -6         B-14
000434: 23,3231           00014        12DD               DEC      12         B-14
000435:
000436: 22,2000                                           SETLOC   RENDEZ
000437: 22,2000                                           BANK
000438: 22,3712                                           COUNT*   $$/INCOR
000439:
000440: 22,3712           51575        NEWZCOMP           VLOAD    ABVAL
000441: 22,3713           02643                                    ZI
000442: 22,3714           24045                           STOVL    NORMZI
000443: 22,3715           02651                                    ZI         +6
000444: 22,3716           41446                           ABVAL    PUSH
000445: 22,3717           50025                           DSU      BMN
000446: 22,3720           00045                                    NORMZI
000447: 22,3721           45724                                    +3
000448: 22,3722           45545                           DLOAD    STADR
000449: 22,3723           77732                           STORE    NORMZI
000450: 22,3724           51575                           VLOAD    ABVAL
000451: 22,3725           02657                                    ZI         +12D
000452: 22,3726           45206                           PUSH     DSU
000453: 22,3727           00045                                    NORMZI
000454: 22,3730           71240                           BMN      DLOAD
000455: 22,3731           45734                                    +3
000456: 22,3732           77626                           STADR
000457: 22,3733           77732                           STORE    NORMZI                                #  LARGEST ABVAL
000458: 22,3734           66145                           DLOAD    SXA,1
000459: 22,3735           00045                                    NORMZI
000460: 22,3736           00044                                    NORMZI                                #  SAVE X1
000461: 22,3737           62101                           NORM     INCR,1
000462:


000464: 22,3740           00047                                    X1
000465: 22,3741           00002                           DEC      2          B-14
000466: 22,3742           53775                           VLOAD    VSL*
000467: 22,3743           02643                                    ZI
000468: 22,3744           20201                                    0,1
000469: 22,3745           26643                           STOVL    ZI
000470: 22,3746           02651                                    ZI         +6
000471: 22,3747           77657                           VSL*
000472: 22,3750           20201                                    0,1
000473: 22,3751           26651                           STOVL    ZI         +6
000474: 22,3752           02657                                    ZI         +12D
000475: 22,3753           66057                           VSL*     SXA,1
000476: 22,3754           20201                                    0,1
000477: 22,3755           00045                                    NORMZI     +1                         #  SAVE SHIFT
000478: 22,3756           02657                           STORE    ZI         +12D
000479: 22,3757           54150                           LXA,1    XSU,1
000480: 22,3760           02102                                    NORMGAM
000481: 22,3761           00045                                    NORMZI     +1
000482: 22,3762           77660                           XSU,1
000483: 22,3763           00045                                    NORMZI     +1
000484: 22,3764           70130                           SXA,1    LXC,1
000485: 22,3765           02102                                    NORMGAM
000486: 22,3766           00045                                    NORMZI     +1
000487: 22,3767           40270                           XAD,1    SETPD
000488: 22,3770           00044                                    NORMZI
000489: 22,3771           00003                                    2D
000490: 22,3772           77650                           GOTO
000491: 22,3773           46652                                    INCOR2     -3
000492: 22,3774                        NORMZI             =        36D

End of include-file MEASUREMENT_INCORPORATION.agc.  Parent file is MAIN.agc


