
Source Code


000002:                                                                                                  ## Copyright:   Public domain.
000003:                                                                                                  ## Filename:    P12.agc
000004:                                                                                                  ## Purpose:     A section of Luminary revision 210.
000005:                                                                                                  ##              It is part of the source code for the Lunar Module's (LM)
000006:                                                                                                  ##              Apollo Guidance Computer (AGC) for Apollo 15-17.
000007:                                                                                                  ##              This file is intended to be a faithful transcription, except
000008:                                                                                                  ##              that the code format has been changed to conform to the
000009:                                                                                                  ##              requirements of the yaYUL assembler rather than the
000010:                                                                                                  ##              original YUL assembler.
000011:                                                                                                  ## Reference:   pp. 839-843
000012:                                                                                                  ## Assembler:   yaYUL
000013:                                                                                                  ## Contact:     Ron Burkey <info@sandroid.org>.
000014:                                                                                                  ## Website:     www.ibiblio.org/apollo/index.html
000015:                                                                                                  ## Mod history: 2016-11-17 JL   Created from Luminary131 version.
000016:                                                                                                  ##              2016-12-01 RSB  Completed transcription
000017:                                                                                                  ##              2016-12-10 HG   Fix constant  VINJNOM -> 16.79299
000018:                                                                                                  ##              2016-12-12 hg   Fix interpretive operator STOVL -> STCALL
000019:                                                                                                  ##              2016-12-25 RSB  Comment-text proofed using ProoferComments
000020:                                                                                                  ##                              and corrected errors found.
000021:                                                                                                  ##              2017-01-28 RSB  Proofed comment text using octopus/prooferComments
000022:                                                                                                  ##                              and fixed errors found.
000023:                                                                                                  ##              2017-08-26 MAS  Fixed a comment-text error found while transcribing
000024:                                                                                                  ##                              Zerlina 56.
000025:


000027: 24,3644                                           BANK     24
000028: 30,2000                                           SETLOC   P12
000029: 30,2000                                           BANK
000030:
000031: 30,2061  E7,1515                                  EBANK=   DVCNTR
000032: 30,2061                                           COUNT*   $$/P12
000033:
000034: 30,2061           05355        P12LM              TC       PHASCHNG
000035: 30,2062           04024                           OCT      04024
000036:
000037: 30,2063           04607                           TC       BANKCALL
000038: 30,2064           33757                           CADR     R02BOTH                               #  CHECK THE STATUS OF THE IMU.
000039:
000040: 30,2065           36000                           CAF      THRESH2                               #  INITIALIZE DVMON
000041: 30,2066           55250                           TS       DVTHRUSH
000042: 30,2067           34742                           CAF      FOUR
000043: 30,2070           55515                           TS       DVCNTR
000044:
000045: 30,2071           33014                           CAF      V06N33A
000046: 30,2072           04607                           TC       BANKCALL                              #  FLASH TIG
000047: 30,2073           20471                           CADR     GOFLASH
000048: 30,2074           16001                           TCF      GOTOPOOH
000049: 30,2075           12077                           TCF      +2                                    #  PROCEED
000050: 30,2076           12071                           TCF      -5                                    #  ENTER
000051:
000052: 30,2077           05355                           TC       PHASCHNG
000053: 30,2100           04024                           OCT      04024
000054:
000055: 30,2101           06060                           TC       INTPRET
000056: 30,2102           43014                           SET      SET
000057: 30,2103           03067                                    MUNFLAG
000058: 30,2104           06464                                    ACC4-2FL
000059: 30,2105           43014                           SET      CLEAR
000060: 30,2106           00075                                    R10FLAG
000061: 30,2107           00270                                    RNDVZFLG
000062: 30,2110           43014                           SET      SET
000063: 30,2111           04464                                    FLPI
000064: 30,2112           04461                                    FLVR
000065: 30,2113           45014                           CLEAR    CALL
000066: 30,2114           04665                                    FLRCS
000067: 30,2115           71346                                    GUIDINIT
000068: 30,2116           77624                           CALL
000069: 30,2117           60243                                    P12INIT
000070: 30,2120           77745        P12LMB             DLOAD
000071: 30,2121           25650                                    (TGO)A                                #  SET TGO TO AN INITIAL NOMINAL VALUE.
000072: 30,2122           17517                           STODL    TGO
000073: 30,2123           03442                                    TIG
000074: 30,2124           34041                           STCALL   TDEC1
000075: 30,2125           27115                                    LEMPREC                               #  ROTATE THE STATE VECTORS TO THE
000076: 30,2126           64375                           VLOAD    MXV                                   #  IGNITION TIME.


000078: 30,2127           00007                                    VATT
000079: 30,2130           01732                                    REFSMMAT
000080: 30,2131           77772                           VSL1
000081: 30,2132           27601                           STOVL    V1S                                   #  COMPUTE V1S = VEL(TIG)*2(-7) M/CS.
000082: 30,2133           00001                                    RATT
000083: 30,2134           52521                           MXV      VSL6
000084: 30,2135           01732                                    REFSMMAT
000085: 30,2136           37521                           STCALL   R                                     #  COMPUTE R = POS(TIG)*2(-24) M.
000086: 30,2137           67037                                    MUNGRAV                               #  COMPUTE GDT1/2(TIG)*2(-7)M/CS.
000087: 30,2140           53575                           VLOAD    UNIT
000088: 30,2141           03521                                    R
000089: 30,2142           37537                           STCALL   UNIT/R/                               #  COMPUTE UNIT/R/ FOR YCOMP.
000090: 30,2143           57315                                    YCOMP
000091: 30,2144           57461                           SR       DCOMP
000092: 30,2145           20606                                    5D
000093: 30,2146           17643                           STODL    XRANGE                                #  INITIALIZE XRANGE FOR NOUN 76.
000094: 30,2147           31372                                    VINJNOM
000095: 30,2150           16270                           STODL    ZDOTD
000096: 30,2151           31374                                    RDOTDNOM
000097: 30,2152           02264                           STORE    RDOTD
000098: 30,2153           77776                           EXIT
000099:
000100: 30,2154           05355                           TC       PHASCHNG
000101: 30,2155           04024                           OCT      04024
000102:
000103: 30,2156           33013        NEWLOAD            CAF      V06N76                                #  FLASH CROSS-RANGE AND APOLUNE VALUES.
000104: 30,2157           04607                           TC       BANKCALL
000105: 30,2160           20471                           CADR     GOFLASH
000106: 30,2161           16001                           TCF      GOTOPOOH
000107: 30,2162           12164                           TCF      +2                                    #  PROCEED
000108: 30,2163           12156                           TCF      NEWLOAD                               #  ENTER NEW DATA.
000109:
000110: 30,2164           32306                           CAF      P12ADRES
000111: 30,2165           55455                           TS       WHICH
000112:
000113: 30,2166           05355                           TC       PHASCHNG
000114: 30,2167           04024                           OCT      04024
000115:
000116: 30,2170           06060                           TC       INTPRET
000117: 30,2171           54345                           DLOAD    SL
000118: 30,2172           03643                                    XRANGE
000119: 30,2173           20206                                    5D
000120: 30,2174           77615                           DAD
000121: 30,2175           02326                                    Y
000122: 30,2176           27633                           STOVL    YCO
000123: 30,2177           03537                                    UNIT/R/
000124: 30,2200           53361                           VXSC     VAD
000125: 30,2201           31370                                    49FPS
000126: 30,2202           03601                                    V1S
000127: 30,2203           03527                           STORE    V                                     #  V(TIPOVER) = V(IGN) + 57FPS (UNIT/R/)


000129: 30,2204           72441                           DOT      SL1
000130: 30,2205           03537                                    UNIT/R/
000131: 30,2206           37474                           STCALL   RDOT                                  #  RDOT * 2(-7)
000132: 30,2207           60307                                    ASCENT
000133: 30,2210           77745        P12RET             DLOAD
000134: 30,2211           02352                                    ATP                                   #  ATP(2)*2(18)
000135: 30,2212           65316                           DSQ      PDDL
000136: 30,2213           02346                                    ATY                                   #  ATY(2)*2(18)
000137: 30,2214           43316                           DSQ      DAD
000138: 30,2215           75454                           BZE      SQRT
000139: 30,2216           60222                                    YAWDUN
000140: 30,2217           55352                           SL1      BDDV
000141: 30,2220           02346                                    ATY
000142: 30,2221           77736                           ARCSIN
000143: 30,2222           26354        YAWDUN             STOVL    YAW
000144: 30,2223           03252                                    UNFC/2
000145: 30,2224           50256                           UNIT     DOT
000146: 30,2225           03537                                    UNIT/R/
000147: 30,2226           65552                           SL1      ARCCOS
000148: 30,2227           77676                           DCOMP
000149: 30,2230           02356                           STORE    PITCH
000150: 30,2231           77776                           EXIT
000151: 30,2232           05355                           TC       PHASCHNG
000152: 30,2233           04024                           OCT      04024
000153:
000154: 30,2234           00004                           INHINT
000155: 30,2235           04665                           TC       IBNKCALL
000156: 30,2236           40143                           CADR     PFLITEDB
000157: 30,2237           05520                           TC       DOWNFLAG
000158: 30,2240           00213                           ADRES    FLPI
000159:
000160: 30,2241           04626                           TC       POSTJUMP
000161: 30,2242           74130                           CADR     BURNBABY
000162:
000163: 30,2243           77745        P12INIT            DLOAD                                          #  INITIALIZE ENGINE DATA. USED FOR P12 AND
000164: 30,2244           16013                                    (1/DV)A                               #  P71.
000165: 30,2245           03641                           STORE    1/DV3
000166: 30,2246           03637                           STORE    1/DV2
000167: 30,2247           17635                           STODL    1/DV1
000168: 30,2250           16017                                    (AT)A
000169: 30,2251           16254                           STODL    AT
000170: 30,2252           16021                                    (TBUP)A
000171: 30,2253           16262                           STODL    TBUP
000172: 30,2254           34013                                    ATDECAY
000173: 30,2255           54276                           DCOMP    SL
000174: 30,2256           20214                                    11D
000175: 30,2257           02260                           STORE    TTO
000176: 30,2260           57535                           SLOAD    DCOMP
000177: 30,2261           26001                                    APSVEX
000178: 30,2262           77702                           SR2


000180: 30,2263           02256                           STORE    VE
000181: 30,2264           43414                           BOFF     RVQ
000182: 30,2265           04747                                    FLAP
000183: 30,2266           60267                                    COMMINIT
000184: 30,2267           43345        COMMINIT           DLOAD    DAD                                   #  INITIALIZE TARGET DATA. USED BY P12, P70
000185: 30,2270           25646                                    HINJECT                               #  AND P71 IF IT DOES NOT FOLLOW P70.
000186: 30,2271           02324                                    /LAND/
000187: 30,2272           17631                           STODL    RCO
000188: 30,2273           06505                                    HI6ZEROS
000189: 30,2274           03654                           STORE    TXO
000190: 30,2275           03633                           STORE    YCO
000191: 30,2276           26266                           STOVL    YDOTD
000192: 30,2277           01563                                    VRECTCSM
000193: 30,2300           64235                           VXV      MXV
000194: 30,2301           01555                                    RRECTCSM
000195: 30,2302           01732                                    REFSMMAT
000196: 30,2303           77656                           UNIT
000197: 30,2304           02600                           STORE    QAXIS
000198: 30,2305           77616                           RVQ
000199:
000200: 30,2306           02024        P12ADRES           REMADR   P12TABLE
000201:
000202: 34,2000                                           SETLOC   ASENT8
000203: 34,2000                                           BANK
000204: 34,3346                                           COUNT*   $$/P12
000205:
000206: 34,3346           40220        GUIDINIT           STQ      SETPD
000207: 34,3347           01163                                    TEMPR60
000208: 34,3350           00001                                    0D
000209: 34,3351           41575                           VLOAD    PUSH
000210: 34,3352           06477                                    UNITZ
000211: 34,3353           41434                           RTB      PUSH
000212: 34,3354           21603                                    LOADTIME
000213: 34,3355           77624                           CALL
000214: 34,3356           55716                                    RP-TO-R
000215: 34,3357           74321                           MXV      VXSC
000216: 34,3360           01732                                    REFSMMAT
000217: 34,3361           16027                                    MOONRATE
000218: 34,3362           26316                           STOVL    WM
000219: 34,3363           02021                                    RLS
000220: 34,3364           52446                           ABVAL    SL3
000221: 34,3365           36324                           STCALL   /LAND/
000222: 34,3366           01163                                    TEMPR60
000223:
000224: 34,3367           00046 07374  49FPS              2DEC     .149352    B-6                        #  EXPECTED RDOT AT TIPOVER
000225:
000226: 34,3371           04145 20055  VINJNOM            2DEC     16.79299   B-7                        #  5509.5 FPS(APO=30NM WITH RDOT=19.5FPS)
000227:
000228: 34,3373           00007 23346  RDOTDNOM           2DEC     .059436    B-7                        #  19.5 FPS
000229:


End of include-file P12.agc.  Parent file is MAIN.agc


