
Source Code


000002:                                                                                                  ## Copyright:   Public domain.
000003:                                                                                                  ## Filename:    P20-P25.agc
000004:                                                                                                  ## Filename:    P20-P25.agc
000005:                                                                                                  ## Purpose:     A section of Luminary revision 210.
000006:                                                                                                  ##              It is part of the source code for the Lunar Module's (LM)
000007:                                                                                                  ##              Apollo Guidance Computer (AGC) for Apollo 15-17.
000008:                                                                                                  ##              This file is intended to be a faithful transcription, except
000009:                                                                                                  ##              that the code format has been changed to conform to the
000010:                                                                                                  ##              requirements of the yaYUL assembler rather than the
000011:                                                                                                  ##              original YUL assembler.
000012:                                                                                                  ## Reference:   pp. 507-619
000013:                                                                                                  ## Assembler:   yaYUL
000014:                                                                                                  ## Contact:     Ron Burkey <info@sandroid.org>.
000015:                                                                                                  ## Website:     www.ibiblio.org/apollo/index.html
000016:                                                                                                  ## Mod history: 2016-11-17 JL   Created from Luminary131 version.
000017:                                                                                                  ##              2016-11-23 MAS  Began transcription.
000018:                                                                                                  ##              2016-11-27 MAS  Completed transcription. Largely the same, but RR handling was
000019:                                                                                                  ##                              rewritten, and there are other small changes here and there.
000020:                                                                                                  ##              2016-11-28 HG   Fix  operand P20S23  --> P20S3
000021:                                                                                                  ##                                           RENRAD  --> RENDRAD
000022:                                                                                                  ##              2016-12-07 HG   Fix P00 -> POO
000023:                                                                                                  ##                              Change POO -> P00 in some comments
000024:                                                                                                  ##              2016-12-11 HG   fix operator BZF -> BZMF
000025:                                                                                                  ##              2016-12-12 MAS  Corrected a TCF that should have been a BZF.
000026:                                                                                                  ##              2016-12-25 RSB  Comment-text proofed using ProoferComments
000027:                                                                                                  ##                              and corrected errors found.
000028:


000030:                                                                                                  #  RENDEZVOUS NAVIGATION PROGRAM 20
000031:                                                                                                  #  PROGRAM DESCRIPTION
000032:                                                                                                  #  MOD NO - 2
000033:                                                                                                  #  BY  P. VOLANTE
000034:                                                                                                  #  FUNCTIONAL DESCRIPTION
000035:
000036:                                                                                                  #    THE PURPOSE OF THIS PROGRAM IS TO CONTROL THE RENDEZVOUS RADAR FROM
000037:                                                                                                  #  STARTUP THROUGH ACQUISITION AND LOCKON TO THE CSM AND TO UPDATE EITHER
000038:                                                                                                  #  THE LM OR CSM STATE VECTOR (AS SPECIFIED BY THE ASTRONAUT BY DSKY ENTRY)
000039:                                                                                                  #  ON THE BASIS OF THE RR TRACKING DATA.
000040:                                                                                                  #  CALLING SEQUENCE -
000041:
000042:                                                                                                  #  ASTRONAUT REQUEST THROUGH DSKY V37E20E
000043:                                                                                                  #  SUBROUTINES CALLED
000044:                                                                                                  #    R02BOTH (IMU STATUS CHECK)               FLAGUP
000045:                                                                                                  #    GOFLASH (PINBALL-DISPLAY)                FLAGDOWN
000046:                                                                                                  #    R23LEM  (MANUAL ACQUISITION)             BANKCALL
000047:                                                                                                  #    LS201   (LOS DETERMINATION)              TASKOVER
000048:                                                                                                  #    LS202   (RANGE LIMIT TEST)
000049:                                                                                                  #    R61LEM  (PREFERRED TRACKING ATTITUDE)
000050:                                                                                                  #    R21LEM  (RR DESIGNATE)                   ENDOFJOB
000051:                                                                                                  #    R22LEM  (DATA READ)                      GOPERF1
000052:                                                                                                  #    R31LEM  (RENDEZVOUS PARAMETER DISPLAY)
000053:                                                                                                  #    PRIOLARM (PRIORITY DISPLAY)
000054:                                                                                                  #  NORMAL EXIT MODES-
000055:                                                                                                  #    P20 MAY BE TERMINATED IN TWO WAYS-ASTRONAUT SELECTION OF IDLING
000056:                                                                                                  #  PROGRAM (P00) BY KEYING V37E00E OR BY KEYING IN V56E
000057:                                                                                                  #  ALARM OR ABORT EXIT MODES-
000058:                                                                                                  #    RANGE GREATER THAN 400 NM DISPLAY
000059:                                                                                                  #  OUTPUT
000060:                                                                                                  #    TRKMKCNT = NO OF RENDEZVOUS TRACKING MARKS TAKEN (COUNTER)
000061:                                                                                                  #  ERASABLE INITIALIZATION REQUIRED
000062:                                                                                                  #  FLAGS SET + RESET
000063:                                                                                                  #    SRCHOPT,RNDVZFLG,ACMODFLG,VEHUPFLG,UPDATFLG,TRACKFLG,
000064:                                                                                                  #  DEBRIS
000065:                                                                                                  #    CENTRALS-A,Q,L
000066: 25,2053  30,2000                                  SBANK=   LOWSUPER                              #  FOR LOW 2CADR'S.
000067:
000068: 33,2113                                           BANK     33
000069: 24,2000                                           SETLOC   P20S
000070: 24,2000                                           BANK
000071:
000072: 24,2000  E7,1456                                  EBANK=   LOSCOUNT
000073: 24,2000                                           COUNT*   $$/P20
000074: 24,2000  24,2000               PROG22             =        PROG20
000075: 24,2000           05331        PROG20             TC       2PHSCHNG
000076: 24,2001           00004                           OCT      4
000077: 24,2002           05022                           OCT      05022
000078: 24,2003           26000                           OCT      26000                                 #  PRIORITY 26
000079: 24,2004           02751                           TC       LUNSFCHK                              #  CHECK IF ON LUNAR SURFACE


000081: 24,2005           02007                           TC       ORBCHGO                               #  YES
000082: 24,2006           02036                           TC       PROG20A    -2                         #  NO - CONTINUE WITH P20
000083: 24,2007           05506        ORBCHGO            TC       UPFLAG                                #  SET VEHUPFLG - CSM STATE
000084: 24,2010           00026                           ADRES    VEHUPFLG                              #  VECTOR TO BE UPDATED
000085: 24,2011           34744                           CAF      ONE                                   #  SET R2 FOR OPTION CSM WILL NOT
000086: 24,2012           55144                           TS       OPTION2                               #  CHANGE PRESENT ORBIT
000087: 24,2013           34354                           CAF      OCT00012
000088: 24,2014           04607                           TC       BANKCALL                              #  DISPLAY ASSUMED CSM ORBIT OPTION
000089: 24,2015           20645                           CADR     GOPERF4
000090: 24,2016           06001                           TC       GOTOPOOH                              #  TERMINATE
000091: 24,2017           02021                           TC       ORBCHG1                               #  PROCEED VALUE OF ASSUMED OPTION OK
000092: 24,2020           02013                           TC       -5                                    #  R2 LOADED THRU DSKY
000093: 24,2021           44744        ORBCHG1            CS       ONE
000094: 24,2022           61144                           AD       OPTION2
000095: 24,2023           00006                           EXTEND
000096: 24,2024           12040                           BZF      PROG20A
000097: 24,2025           32367                           CAF      V06N33*
000098: 24,2026           04607                           TC       BANKCALL                              #  FLASH VERB-NOUN TO REQUEST ESTIMATED
000099: 24,2027           20471                           CADR     GOFLASH                               #  TIME OF LAUNCH
000100: 24,2030           06001                           TC       GOTOPOOH                              #  TERMINATE
000101: 24,2031           02033                           TC       ORBCHG2                               #  PROCEED VALUES OK
000102: 24,2032           02025                           TC       -5                                    #  TIME LOADED THRU DSKY
000103: 24,2033           06060        ORBCHG2            TC       INTPRET
000104: 24,2034           77650                           GOTO
000105: 24,2035           64213                                    ORBCHG3
000106: 32,2213                                           BANK     32
000107: 32,2000                                           SETLOC   P20S4
000108: 32,2000                                           BANK
000109: 32,2213                                           COUNT*   $$/P20
000110:
000111: 32,2213           77624        ORBCHG3            CALL
000112: 32,2214           27447                                    INTSTALL
000113: 32,2215           77745                           DLOAD
000114: 32,2216           03442                                    TIG
000115: 32,2217           03661                           STORE    LNCHTM
000116: 32,2220           00041                           STORE    TDEC1                                 #  ESTIMATED LAUNCH TIME
000117: 32,2221           43014                           CLEAR    CLEAR
000118: 32,2222           01674                                    VINTFLAG                              #  LM INTEGRATION
000119: 32,2223           01673                                    INTYPFLG                              #  PRECISION - ENCKE
000120: 32,2224           43014                           CLEAR    CLEAR
000121: 32,2225           01676                                    DIM0FLAG                              #  NO W-MATRIX
000122: 32,2226           01675                                    D6OR9FLG
000123: 32,2227           77624                           CALL
000124: 32,2230           27172                                    INTEGRV                               #  PLANETARY INERTIAL ORIENTATION
000125: 32,2231           77624                           CALL
000126: 32,2232           51770                                    GRP2PC
000127: 32,2233           77775                           VLOAD
000128: 32,2234           00017                                    RATT1
000129: 32,2235           17631                           STODL    RSUBL                                 #  SAVE LM POSITION
000130: 32,2236           00015                                    TAT


000132: 32,2237           34041                           STCALL   TDEC1
000133: 32,2240           27447                                    INTSTALL
000134: 32,2241           43014                           SET      CLEAR
000135: 32,2242           01474                                    VINTFLAG                              #  CSM INTEGRATION
000136: 32,2243           01673                                    INTYPFLG
000137: 32,2244           43014                           CLEAR    BOFF
000138: 32,2245           01676                                    DIM0FLAG
000139: 32,2246           02756                                    RENDWFLG                              #  W MATRIX VALID
000140: 32,2247           64253                                    NOWMATX                               #  NO
000141: 32,2250           43014                           SET      SET                                   #  YES - SET FOR W MATRIX
000142: 32,2251           01476                                    DIM0FLAG
000143: 32,2252           01475                                    D6OR9FLG
000144: 32,2253           77624        NOWMATX            CALL
000145: 32,2254           27172                                    INTEGRV                               #  CSM INTEGRATION
000146: 32,2255           77624                           CALL
000147: 32,2256           51770                                    GRP2PC
000148: 32,2257           77775                           VLOAD
000149: 32,2260           00025                                    VATT1
000150: 32,2261           25757                           STOVL    VSUBC                                 #  SAVE CSM VELOCITY
000151: 32,2262           00017                                    RATT1
000152: 32,2263           01101                           STORE    RSUBC                                 #  SAVE CSM POSITION
000153: 32,2264           53435                           VXV      UNIT                                  #  COMPUTE NORMAL TO CSM ORBITAL PLANE
000154: 32,2265           01757                                    VSUBC                                 #  NSUB1=UNIT(R(CM) CROSS V(CM)
000155: 32,2266           24025                           STOVL    20D                                   #  SAVE NSUB1
000156: 32,2267           03631                                    RSUBL                                 #  COMPUTE ESTIMATED ORBITAL
000157: 32,2270           53435                           VXV      UNIT                                  #  PLANE CHANGE
000158: 32,2271           00025                                    20D                                   #  UCSM = UNIT(R(LM) CROSS NSUB1)
000159: 32,2272           27637                           STOVL    UCSM
000160: 32,2273           01101                                    RSUBC                                 #  COMPUTE ANGLE BETWEEN UCSM
000161: 32,2274           50256                           UNIT     DOT                                   #  AND RSUBC
000162: 32,2275           03637                                    UCSM                                  #  COS A = UCSM DOT UNIT (R(CM))
000163: 32,2276           77752                           SL1
000164: 32,2277           02732                           STORE    CSTH                                  #  SAVE DOE TIME-THETA SUBROUTINE
000165: 32,2300           44316                           DSQ      BDSU                                  #  COMPUTE SINE A
000166: 32,2301           06475                                    ONEB-2
000167: 32,2302           77766                           SQRT
000168: 32,2303           26730                           STOVL    SNTH                                  #  SAVE FOR TIME-THETA SUBROUTINE
000169: 32,2304           01101                                    RSUBC                                 #  POSITION OF CSM AT EST. LAUNCH
000170: 32,2305           26655                           STOVL    RVEC                                  #  TIME FOR TIME-THETA   B-27
000171: 32,2306           01757                                    VSUBC                                 #  VELOCITY OF CSM AT EST. LAUNCH
000172: 32,2307           77676                           VCOMP
000173: 32,2310           02744                           STORE    VVEC                                  #  TIME FOR TIME THETA   B-5
000174: 32,2311           45014                           CLEAR    CALL
000175: 32,2312           03666                                    RVSW
000176: 32,2313           24732                                    TIMETHET
000177: 32,2314           77676                           VCOMP
000178: 32,2315           03645                           STORE    NEWVEL                                #  TERMINAL VELOCITY OF CSM
000179: 32,2316           77745                           DLOAD
000180: 32,2317           00037                                    T
000181: 32,2320           27663                           STOVL    TRANSTM                               #  TRANSFER TIME


000183: 32,2321           03645                                    NEWVEL
000184: 32,2322           77646                           ABVAL
000185: 32,2323           24025                           STOVL    20D
000186: 32,2324           00001                                    0D
000187: 32,2325           03653                           STORE    NEWPOS                                #  TERMINAL POSITION OF CSM
000188: 32,2326           53435                           VXV      UNIT                                  #  COMPUTE NORMAL TO CSM ORBITAL PLANE
000189: 32,2327           03631                                    RSUBL                                 #  NSUB2 = UNIT(NEWPOS CROSS R(LM))
000190: 32,2330           53435                           VXV      UNIT                                  #  ROTATE TERMINAL VEL INTO DESIRED
000191: 32,2331           03653                                    NEWPOS                                #  ORBITAL PLANE
000192: 32,2332           76561                           VXSC     VSL1                                  #  VSUBC = ABVAL(NEWVEL) $ UNIT( NSUB2
000193: 32,2333           00025                                    20D
000194: 32,2334           37665                           STCALL   NCSMVEL                               #  NEW CSM VELOCITY
000195: 32,2335           51770                                    GRP2PC
000196: 32,2336           77624                           CALL
000197: 32,2337           27447                                    INTSTALL
000198: 32,2340           44345                           DLOAD    BDSU
000199: 32,2341           03663                                    TRANSTM                               #  LAUNCH TIME - TRANSFER TIME
000200: 32,2342           03661                                    LNCHTM
000201: 32,2343           25517                           STOVL    TET
000202: 32,2344           03653                                    NEWPOS
000203: 32,2345           01535                           STORE    RCV
000204: 32,2346           25503                           STOVL    RRECT
000205: 32,2347           03665                                    NCSMVEL
000206: 32,2350           35511                           STCALL   VRECT
000207: 32,2351           27734                                    MINIRECT
000208: 32,2352           45174                           AXT,2    CALL
000209: 32,2353           00002                                    2
000210: 32,2354           26717                                    ATOPCSM
000211: 32,2355           77624                           CALL
000212: 32,2356           27456                                    INTWAKE0
000213: 32,2357           77776                           EXIT
000214: 32,2360           04607                           TC       BANKCALL
000215: 32,2361           50040                           CADR     PROG20A
000216: 24,2036                                           BANK     24
000217: 24,2000                                           SETLOC   P20S
000218: 24,2000                                           BANK
000219: 24,2036                                           COUNT*   $$/P20
000220:
000221: 24,2036           05520                           TC       DOWNFLAG                              #  RESET VEHUPFLG- LM STATE VECTOR
000222: 24,2037           00026                           ADRES    VEHUPFLG                              #  TO BE UPDATED
000223: 24,2040           04607        PROG20A            TC       BANKCALL
000224: 24,2041           33757                           CADR     R02BOTH
000225: 24,2042           05506                           TC       UPFLAG
000226: 24,2043           00027                           ADRES    UPDATFLG                              #  SET UPDATE FLAG
000227: 24,2044           05506                           TC       UPFLAG
000228: 24,2045           00031                           ADRES    TRACKFLG                              #  SET TRACK FLAG
000229: 24,2046           05506                           TC       UPFLAG
000230: 24,2047           00010                           ADRES    RNDVZFLG                              #  SET RENDEZVOUS FLAG
000231: 24,2050           05520                           TC       DOWNFLAG
000232: 24,2051           00037                           ADRES    SRCHOPTN                              #  INSURE SEARCH OPTION OFF


000234: 24,2052           05520                           TC       DOWNFLAG                              #  ALSO MANUAL ACQUISITION FLAG RESET
000235: 24,2053           00040                           ADRES    ACMODFLG
000236: 24,2054           05520                           TC       DOWNFLAG                              #  TURN OFF R04FLAG TO ENSURE GETTING
000237: 24,2055           00063                           ADRES    R04FLAG                               #  ALARM 521 IF CANT READ RADAR
000238: 24,2056           05520                           TC       DOWNFLAG                              #  ENSURE R25 GIMBAL MONITOR IS ENABLED
000239: 24,2057           00126                           ADRES    NORRMON                               #  (RESET NORRMON FLAG)
000240: 24,2060           05520                           TC       DOWNFLAG                              #  RESET LOS BEING COMPUTED FLAG
000241: 24,2061           00041                           ADRES    LOSCMFLG
000242: 24,2062           06032                           TC       CLRADMD1
000243: 24,2063           05506                           TC       UPFLAG
000244: 24,2064           00005                           ADRES    FSPASFLG                              #  SET FIRST PASS FLAG FOR ALARM
000245: 24,2065           05355        P20LEM1            TC       PHASCHNG
000246: 24,2066           04022                           OCT      04022
000247: 24,2067           34746                           CAF      ZERO                                  #  ZERO MARK COUNTER
000248: 24,2070           55462                           TS       MARKCTR
000249: 24,2071           06060        P20LEM2            TC       INTPRET                               #  LOS DETERMINATION ROUTINE
000250: 24,2072           77634                           RTB
000251: 24,2073           21603                                    LOADTIME
000252: 24,2074           34041                           STCALL   TDEC1
000253: 24,2075           51337                                    LPS20.1
000254: 24,2076           77624                           CALL
000255: 24,2077           53626                                    LPS20.2                               #  TEST RANGE R/UTINE
000256: 24,2100           77776                           EXIT
000257: 24,2101           50154                           INDEX    MPAC
000258: 24,2102           02103                           TC       +1
000259: 24,2103           02167                           TC       P20LEMA                               #  NORMAL RETURN WITHIN 400 N M
000260: 24,2104           06060        526ALARM           TC       INTPRET
000261: 24,2105           53575                           VLOAD    UNIT
000262: 24,2106           00025                                    RRANGE
000263: 24,2107           72441                           DOT      SL1
000264: 24,2110           00017                                    VELLOS
000265: 24,2111           16216                           STODL    RRATE                                 #  RANGE RATE FOR NOUN 54 B-7
000266: 24,2112           00045                                    36D
000267: 24,2113           51025                           DSU      BPL                                   #  IF RANGE>999.99,DISPLAY 999.99
000268: 24,2114           10372                                    999.99NM
000269: 24,2115           50142                                    TOOBIG
000270: 24,2116           77745                           DLOAD
000271: 24,2117           00045                                    36D
000272: 24,2120           16214        526ALRM1           STODL    RANGE                                 #   RANGE FOR NOUN 54 B-29
000273: 24,2121           06505                                    ZEROVECS
000274: 24,2122           02220                           STORE    RTHETA                                #  ZERO THETA FOR NOUN 54
000275: 24,2123           43014                           BOFF     BOFF
000276: 24,2124           00345                                    FSPASFLG                              #  FIRST PASS
000277: 24,2125           50155                                    P20LEMC5                              #  NO
000278: 24,2126           04347                                    SURFFLAG                              #  ON LUNAR SURFACE
000279: 24,2127           50147                                    ALRMLT                                #  NO
000280: 24,2130           51145                           DLOAD    BPL
000281: 24,2131           02216                                    RRATE
000282: 24,2132           50145                                    ENDRN
000283: 24,2133           77776                           EXIT                                           #  YES
000284:


000286: 24,2134           05355                           TC       PHASCHNG                              #  IN CASE OF RESTART
000287: 24,2135           04022                           OCT      04022                                 #  REACTIVATE DISPLAY
000288: 24,2136           32373                           CAF      V16N5420
000289: 24,2137           04607                           TC       BANKCALL                              #  TURN ON V16N54 - DISPLAY
000290: 24,2140           20444                           CADR     GODSPR                                #  RANGE AND RANGE RATE
000291: 24,2141           02156                           TC       P20LEM5
000292:
000293:
000294: 24,2142           52145        TOOBIG             DLOAD    GOTO
000295: 24,2143           10372                                    999.99NM
000296: 24,2144           50120                                    526ALRM1
000297:
000298: 24,2145           77776        ENDRN              EXIT
000299: 24,2146           06043                           TC       GOTOV56
000300:
000301: 24,2147           77776        ALRMLT             EXIT
000302: 24,2150           05355                           TC       PHASCHNG
000303: 24,2151           04022                           OCT      04022
000304: 24,2152           05571                           TC       ALARM                                 #  TURN ON ALARM LIGHT P20
000305: 24,2153           00526                           OCT      526
000306: 24,2154           02156                           TC       P20LEM5
000307: 24,2155           77776        P20LEMC5           EXIT
000308: 24,2156           05520        P20LEM5            TC       DOWNFLAG
000309: 24,2157           00005                           ADRES    FSPASFLG
000310: 24,2160           32370                           CAF      500DEC                                #  WAIT 5SECS
000311: 24,2161           04607                           TC       BANKCALL
000312: 24,2162           01736                           CADR     DELAYJOB
000313: 24,2163           02071                           TC       P20LEM2
000314:
000315:
000316: 24,2164           04607        P20LEM3            TC       BANKCALL
000317: 24,2165           20451                           CADR     CLEANDSP
000318:
000319:
000320: 24,2166           02175                           TC       P20LEMB
000321: 24,2167           05355        P20LEMA            TC       PHASCHNG
000322: 24,2170           04022                           OCT      04022
000323: 24,2171           02751                           TC       LUNSFCHK                              #  CHECK LUNAR SURFACE FLAG (P22 FLAG)
000324: 24,2172           02164                           TC       P20LEM3
000325: 24,2173           04607                           TC       BANKCALL
000326: 24,2174           46116                           CADR     R61LEM                                #  PREFERRED TRACKING ATTITUDE ROUTINE
000327: 24,2175           05355        P20LEMB            TC       PHASCHNG
000328: 24,2176           05022                           OCT      05022                                 #  RESTART AT PRIORITY 10 TO ALLOW V37
000329: 24,2177           10000                           OCT      10000                                 #  REQUESTED PROGRAM TO RUN FIRST
000330: 24,2200           37735                           CAF      PRIO26                                #  RESTORE PRIORITY 26
000331: 24,2201           05137                           TC       PRIOCHNG
000332: 24,2202           30075                           CA       FLAGWRD1                              #  IS THE TRACK FLAG SET
000333: 24,2203           74740                           MASK     TRACKBIT
000334: 24,2204           00006                           EXTEND
000335: 24,2205           12310                           BZF      P20LEMWT                              #   BRANCH - NO - WAIT FOR IT TO BE SET
000336:


000338: 24,2206           34743        P20LEMB7           CAF      BIT2                                  #  IS RR AUTO MODE DISCRETE PRESENT
000339: 24,2207           00006                           EXTEND
000340: 24,2210           02033                           RAND     CHAN33
000341: 24,2211           00006                           EXTEND
000342: 24,2212           12246                           BZF      P20LEMB3                              #  YES - DO AUTOMATIC ACQUISITION (R21)
000343:
000344: 24,2213           46007        P20LEMB5           CS       OCT24                                 #  RADAR NOT IN AUTO CHECK IF
000345: 24,2214           61010                           AD       MODREG                                #  MAJOR MODE IS 20
000346: 24,2215           00006                           EXTEND
000347: 24,2216           12231                           BZF      P20LEMB6                              #  BRANCH - YES-OK TO DO PLEASE PERFORM
000348:
000349:
000350: 24,2217           67767                           AD       NEG2                                  #  ALSO CHECK FOR P22
000351: 24,2220           00006                           EXTEND
000352: 24,2221           12231                           BZF      P20LEMB6                              #  BRANCH - YES OK TO DO PLEASE PERFORM
000353: 24,2222           32365                           CAF      ALRM514                               #  TRACK FLAG SET-FLASH PRIORITY ALARM 514-
000354: 24,2223           04607                           TC       BANKCALL                              #  RADAR GOES OUT OF AUTO MODE WHILE IN USE
000355: 24,2224           21572                           CADR     PRIOLARM
000356: 24,2225           06043                           TC       GOTOV56                               #  TERMINATE EXITS VIA V56
000357: 24,2226           02175                           TC       P20LEMB                               #  PROCEED AND ENTER BOTH GO BACK
000358: 24,2227           02175                           TC       P20LEMB                               #  TO CHECK AUTO MODE AGAIN
000359: 24,2230           05146                           TC       ENDOFJOB
000360: 24,2231           32364        P20LEMB6           CAF      OCT201                                #  REQUEST RR AUTO MODE SELECTION
000361: 24,2232           04607                           TC       BANKCALL
000362: 24,2233           20635                           CADR     GOPERF1
000363: 24,2234           06043                           TC       GOTOV56                               #  TERMINATE EXITS P20 VIA V56 CODING
000364: 24,2235           02175                           TC       P20LEMB                               #  PROCEED CHECKS AUTO MODE DISCRETE AGAIN
000365: 24,2236           02751                           TC       LUNSFCHK                              #  ENTER INDICATES MANUAL ACQUISITION (R23)
000366: 24,2237           02244                           TC       P20LEMB2                              #  YES - R23 NOT ALLOWED-TURN ON OPR ERROR
000367: 24,2240           03220                           TC       R23LEM                                #  NO - DO MANUAL ACQUISITION
000368:
000369:
000370: 24,2241           05506        P20LEMB1           TC       UPFLAG                                #  RETURN FROM R23 - LOCKON ACHIEVED
000371: 24,2242           00040                           ADRES    ACMODFLG                              #  SET MANUAL FLAG AND GO BACK TO CHECK
000372: 24,2243           02175                           TC       P20LEMB                               #  RR AUTO MODE
000373:
000374:
000375: 24,2244           04355        P20LEMB2           TC       FALTON                                #  TURNS ON OPERATOR ERROR LIGHT ON DSKY
000376: 24,2245           02175                           TC       P20LEMB                               #  AND GOES BACK TO CHECK AUTO MODE
000377:
000378:
000379: 24,2246           40110        P20LEMB3           CS       RADMODES                              #  ARE RR CDUS BEING ZEROED
000380: 24,2247           74730                           MASK     RCDU0BIT
000381: 24,2250           00006                           EXTEND
000382: 24,2251           12263                           BZF      P20LEMB4                              #  BRANCH - YES - WAIT
000383: 24,2252           34346                           CAF      BIT13-14                              #  IS SEARCH OR MANUAL ACQUISITION FLAG SET
000384: 24,2253           70076                           MASK     FLAGWRD2
000385: 24,2254           00006                           EXTEND
000386: 24,2255           12267                           BZF      P20LEMC3                              #  ZERO MEANS AUTOMATIC RR ACQUISTION


000388: 24,2256           05520                           TC       DOWNFLAG                              #  RESET TO AUTO MODE
000389: 24,2257           00037                           ADRES    SRCHOPTN
000390: 24,2260           05520                           TC       DOWNFLAG
000391: 24,2261           00040                           ADRES    ACMODFLG
000392: 24,2262           02310                           TC       P20LEMWT                              #  WAIT 2.5 SECONDS THEN GO TO RR DATA READ
000393:
000394:
000395: 24,2263           32362        P20LEMB4           CAF      250DEC
000396: 24,2264           04607                           TC       BANKCALL                              #  WAIT 2.5 SECONDS WHILE RR CDUS ARE BEING
000397: 24,2265           01736                           CADR     DELAYJOB                              #  ZEROED-THEN GO BACK AND CHECK AGAIN
000398: 24,2266           02246                           TC       P20LEMB3
000399:
000400:
000401: 24,2267           06060        P20LEMC3           TC       INTPRET
000402: 24,2270           77634                           RTB
000403: 24,2271           21603                                    LOADTIME
000404: 24,2272           34041                           STCALL   TDEC1
000405: 24,2273           50374                                    UPPSV
000406: 24,2274           77776        P20LEMC4           EXIT
000407: 24,2275           05355        P20LEMC            TC       PHASCHNG
000408: 24,2276           04022                           OCT      04022
000409: 24,2277           30074                           CAE      FLAGWRD0                              #  IS THE RENDEZVOUS FLAG SET
000410: 24,2300           74736                           MASK     RNDVZBIT
000411: 24,2301           00006                           EXTEND
000412: 24,2302           15146                           BZF      ENDOFJOB                              #  NO - EXIT P20
000413: 24,2303           30075                           CAE      FLAGWRD1                              #  IS TRACK FLAG SET  (BIT 5 FLAGWORD 1)
000414: 24,2304           74740                           MASK     TRACKBIT
000415: 24,2305           00006                           EXTEND
000416: 24,2306           12342                           BZF      P20LEMD                               #  BRANCH-TRACK FLAG NOT ON-WAIT 15 SECONDS
000417: 24,2307           02756        P20LEMF            TC       R21LEM
000418:
000419:
000420: 24,2310           32362        P20LEMWT           CAF      250DEC
000421: 24,2311           05175                           TC       TWIDDLE                               #  USE INSTEAD OF WAITLIST SINCE SAME BANK
000422: 24,2312           02322                           ADRES    P20LEMC1                              #  WAIT 2.5 SECONDS
000423: 24,2313           30075                           CAE      FLAGWRD1                              #  IS TRACK FLAG SET
000424: 24,2314           74740                           MASK     TRACKBIT
000425: 24,2315           00006                           EXTEND
000426: 24,2316           15146                           BZF      ENDOFJOB                              #  NO-EXIT WITHOUT DOING 2.7 PHASE CHANGE
000427: 24,2317           05355        P20LMWT1           TC       PHASCHNG
000428: 24,2320           40072                           OCT      40072
000429: 24,2321           05146                           TC       ENDOFJOB
000430:
000431:
000432: 24,2322           30074        P20LEMC1           CAE      FLAGWRD0                              #  IS RENDEZVOUS FLAG SET
000433: 24,2323           74736                           MASK     RNDVZBIT
000434: 24,2324           00006                           EXTEND
000435: 24,2325           15263                           BZF      TASKOVER                              #  NO - EXIT P20/R22
000436: 24,2326           30075                           CAE      FLAGWRD1                              #  IS TRACK FLAG SET
000437: 24,2327           74740                           MASK     TRACKBIT


000439: 24,2330           00006                           EXTEND
000440: 24,2331           12337                           BZF      P20LEMC2                              #  NO-DONT SCHEDULE R22 JOB
000441: 24,2332           37735                           CAF      PRIO26                                #  YES-SCHEDULE R22 JOB (RR DATA READ)
000442: 24,2333           05076                           TC       FINDVAC
000443: 24,2334  E7,1456                                  EBANK=   LOSCOUNT
000444: 24,2334           02713 50067                     2CADR    R22LEM42
000445:
000446: 24,2336           05263                           TC       TASKOVER
000447:
000448:
000449: 24,2337           05223        P20LEMC2           TC       FIXDELAY                              #  TRACK FLAG NOT SET ,WAIT 15 SECONDS
000450: 24,2340           02734                           DEC      1500       B-14                       #  AND CHECK AGAIN
000451:
000452: 24,2341           02322                           TC       P20LEMC1
000453:
000454: 24,2342           32750        P20LEMD            CAF      1500DEC
000455: 24,2343           05175                           TC       TWIDDLE                               #  WAITLIST FOR 15 SECONDS
000456: 24,2344           02346                           ADRES    P20LEMD1
000457: 24,2345           05146                           TC       ENDOFJOB
000458:
000459:
000460: 24,2346           30075        P20LEMD1           CAE      FLAGWRD1                              #  IS TRACK FLAG SET
000461: 24,2347           74740                           MASK     TRACKBIT
000462: 24,2350           10000                           CCS      A
000463: 24,2351           12355                           TCF      P20LEMD2                              #  YES-SCHEDULE DESIGNATE JOB
000464: 24,2352           05223                           TC       FIXDELAY                              #  NO-WAIT 15 SECONDS
000465: 24,2353           02734                           DEC      1500       B-14
000466: 24,2354           02346                           TC       P20LEMD1
000467:
000468:
000469: 24,2355           37735        P20LEMD2           CAF      PRIO26                                #  SCHEDULE JOB TO DO R21
000470: 24,2356           05076                           TC       FINDVAC
000471: 24,2357  E7,1456                                  EBANK=   LOSCOUNT
000472: 24,2357           02267 50067                     2CADR    P20LEMC3                              #  START AT PERM. MEMORY INTEGRATION
000473:
000474: 24,2361           05263                           TC       TASKOVER
000475:
000476:
000477: 24,2362           00372        250DEC             DEC      250        B-14
000478: 24,2363           00526        ALRM526            OCT      00526
000479: 24,2364           00201        OCT201             OCT      00201
000480: 24,2365           00514        ALRM514            OCT      514
000481: 24,2366           00074        MAXTRIES           DEC      60         B-14
000482: 24,2367     4354               OCT00012           EQUALS   BINCON
000483: 24,2367  23,2474               ONEB-2             EQUALS   DP1/4TH
000484: 24,2367           01441        V06N33*            VN       0633
000485: 24,2370           00764        500DEC             DEC      500        B-14
000486: 24,2371           00070 20447  999.99NM           2DEC     1851982    B-29
000487:
000488: 24,2373           04066        V16N5420           VN       1654
000489:


000491: 24,2374           45020        UPPSV              STQ      CALL                                  #  UPDATES PERMANENT STATE VECTORS
000492: 24,2375           01755                                    LS21X                                 #   TO PRESENT TIME
000493: 24,2376           27447                                    INTSTALL
000494: 24,2377           77624                           CALL
000495: 24,2400           26702                                    SETIFLGS
000496: 24,2401           43014                           BOF      SET                                   #  IF W-MATRIX INVALID,DONT INTEGRATE IT
000497: 24,2402           02756                                    RENDWFLG
000498: 24,2403           50414                                    UPPSV1
000499: 24,2404           01476                                    DIM0FLAG                              #  SET DIM0FLAG TO INTEGRATE W-MATRIX
000500: 24,2405           43014                           BON      SET
000501: 24,2406           04307                                    SURFFLAG                              #  IF ON LUNAR SURFACE W IS 6X6
000502: 24,2407           50411                                    UPPSV5
000503: 24,2410           01475                                    D6OR9FLG                              #  OTHERWISE 9X9
000504: 24,2411           77614        UPPSV5             BOF
000505: 24,2412           00747                                    VEHUPFLG
000506: 24,2413           50446                                    UPPSV3
000507: 24,2414           77614        UPPSV1             SET
000508: 24,2415           01474                                    VINTFLAG
000509: 24,2416           77624                           CALL
000510: 24,2417           27172                                    INTEGRV
000511: 24,2420           77624                           CALL                                           #  GROUP 2 PHASE CHANGE
000512: 24,2421           51770                                    GRP2PC                                #  TO PROTECT INTEGRATION
000513: 24,2422           77624                           CALL
000514: 24,2423           27447                                    INTSTALL
000515: 24,2424           43145                           DLOAD    CLEAR                                 #  GET TETCSM TO STORE IN TDEC FOR LM INT.
000516: 24,2425           01571                                    TETCSM
000517: 24,2426           01674                                    VINTFLAG
000518: 24,2427           77624        UPPSV4             CALL                                           #  INTEGRATE OTHER VEHICLE
000519: 24,2430           26702                                    SETIFLGS                              #   WITHOUT W-MATRIX
000520: 24,2431           34041                           STCALL   TDEC1
000521: 24,2432           27172                                    INTEGRV
000522: 24,2433           77214                           BOFF     VLOAD
000523: 24,2434           04347                                    SURFFLAG
000524: 24,2435           50274                                    P20LEMC4
000525: 24,2436           01661                                    RCVLEM
000526: 24,2437           77742                           VSR2
000527: 24,2440           26343                           STOVL    LMPOS
000528: 24,2441           01667                                    VCVLEM
000529: 24,2442           77742                           VSR2
000530: 24,2443           02351                           STORE    LMVEL
000531: 24,2444           77650                           GOTO
000532: 24,2445           01755                                    LS21X
000533:
000534:
000535: 24,2446           45014        UPPSV3             CLEAR    CALL
000536: 24,2447           01674                                    VINTFLAG
000537: 24,2450           27172                                    INTEGRV
000538: 24,2451           77624                           CALL
000539: 24,2452           51770                                    GRP2PC
000540: 24,2453           77624                           CALL


000542: 24,2454           27447                                    INTSTALL
000543: 24,2455           71214                           SET      DLOAD
000544: 24,2456           01474                                    VINTFLAG
000545: 24,2457           01643                                    TETLEM                                #  GET TETLEM TO STORE IN TDEC FOR CSM INT.
000546: 24,2460           77650                           GOTO
000547: 24,2461           50427                                    UPPSV4
000548:
000549:
000550: 24,2462  E7,1456                                  EBANK=   LOSCOUNT
000551: 24,2462                                           COUNT*   $$/P22
000552:


000554:                                                                                                  #  PROGRAM DESCRIPTION
000555:                                                                                                  #  PREFERRED TRACKING ATTITUDE PROGRAM P25
000556:                                                                                                  #  MOD NO - 3
000557:                                                                                                  #  BY  P. VOLANTE
000558:                                                                                                  #  FUNCTIONAL DESCRIPTION
000559:
000560:                                                                                                  #    THE PURPOSE OF THIS PROGRAM IS TO COMPUTE THE PREFERRED TRACKING
000561:                                                                                                  #  ATTITUDE OF THE LM TO CONTINUOUSLY POINT THE LM TRACKING BEACON AT THE
000562:                                                                                                  #  CSM AND TO PERFORM THE MANEUVER TO THE PREFERRED TRACKING ATTITUDE AND
000563:                                                                                                  #  CONTINUOUSLY MAINTAIN THIS ATTITUDE WITHIN PRESCRIBED LIMITS
000564:                                                                                                  #  CALLING SEQUENCE -
000565:                                                                                                  #    ASTRONAUT REQUEST THROUGH DSKY V37E25E
000566:                                                                                                  #  SUBROUTINES CALLED -
000567:                                                                                                  #    BANKCALL                      FLAGUP
000568:                                                                                                  #    R02BOTH  (IMU STATUS CHECK)   ENDOFJOB
000569:                                                                                                  #    R61LEM   (PREF TRK ATT ROUT)  WAITLIST
000570:                                                                                                  #    TASKOVER                      FINDVAC
000571:                                                                                                  #  NORMAL EXIT MODES  -
000572:                                                                                                  #    P25 MAY BE TERMINATED IN TWO WAYS-ASTRONAUT SELECTION OF IDLING
000573:                                                                                                  #  PROGRAM(P00) BY KEYING V37E00E OR BY KEYING IN V56E
000574:                                                                                                  #  ALARM OR ABORT EXIT MODES -
000575:                                                                                                  #    NONE
000576:                                                                                                  #  OUTPUT
000577:                                                                                                  #  ERASABLE INITIALIZATION REQUIRED
000578:                                                                                                  #  FLAGS SET + RESET
000579:                                                                                                  #    TRACKFLG,P25FLAG
000580:                                                                                                  #  DEBRIS
000581:                                                                                                  #    NONE
000582: 24,2462  E7,1456                                  EBANK=   LOSCOUNT
000583: 24,2462                                           COUNT*   $$/P25
000584: 24,2462           05331        PROG25             TC       2PHSCHNG
000585: 24,2463           00004                           OCT      4                                     #  MAKE GROUP 4 INACTIVE (VERB 37)
000586: 24,2464           05022                           OCT      05022
000587: 24,2465           26000                           OCT      26000                                 #  PRIORITY 26
000588:
000589: 24,2466           04607                           TC       BANKCALL
000590: 24,2467           33757                           CADR     R02BOTH                               #  IMU STATUS CHECK
000591: 24,2470           05506                           TC       UPFLAG
000592: 24,2471           00031                           ADRES    TRACKFLG                              #  SET TRACK FLAG
000593: 24,2472           05506                           TC       UPFLAG
000594: 24,2473           00006                           ADRES    P25FLAG                               #  SET P25FLAG
000595: 24,2474           05520                           TC       DOWNFLAG
000596: 24,2475           00010                           ADRES    RNDVZFLG
000597: 24,2476           05355        P25LEM1            TC       PHASCHNG
000598: 24,2477           04022                           OCT      04022
000599: 24,2500           34734                           CAF      P25FLBIT
000600: 24,2501           70074                           MASK     STATE                                 #  IS P25FLAG SET
000601: 24,2502           00006                           EXTEND
000602: 24,2503           15146                           BZF      ENDOFJOB
000603: 24,2504           34740                           CAF      TRACKBIT                              #  IS TRACKFLAG SET?


000605: 24,2505           70075                           MASK     STATE      +1
000606: 24,2506           00006                           EXTEND
000607: 24,2507           12515                           BZF      P25LMWT1                              #  NO-SKIP PHASE CHANGE AND WAIT 1 MINUTE
000608: 24,2510           34750                           CAF      SEVEN                                 #  CALL R65 - FINE PREFERRED
000609: 24,2511           55745                           TS       R65CNTR
000610: 24,2512           04607                           TC       BANKCALL                              #  TRACKING ATTITUDE ROUTINE
000611: 24,2513           46123                           CADR     R65LEM
000612: 24,2514           02476                           TC       P25LEM1                               #  THEN GO CHECK FLAGS
000613: 24,2515           32526        P25LMWT1           CAF      60SCNDS
000614: 24,2516           05175                           TC       TWIDDLE                               #  WAIT ONE MINUTE THEN CHECK AGAIN
000615: 24,2517           02521                           ADRES    P25LEM2
000616: 24,2520           05146                           TC       ENDOFJOB
000617: 24,2521           35015        P25LEM2            CAF      PRIO14
000618: 24,2522           05076                           TC       FINDVAC
000619: 24,2523  E7,1456                                  EBANK=   LOSCOUNT
000620: 24,2523           02476 50067                     2CADR    P25LEM1
000621:
000622: 24,2525           05263                           TC       TASKOVER
000623: 24,2526           13560        60SCNDS            DEC      6000       B-14
000624:


000626:                                                                                                  #  DATA READ ROUTINE 22 (LEM)
000627:                                                                                                  #  PROGRAM DESCRIPTION
000628:                                                                                                  #  MOD NO - 2
000629:                                                                                                  #  BY P VOLANTE
000630:                                                                                                  #  FUNCTIONAL DESCRIPTION
000631:
000632:                                                                                                  #    TO PROCESS AUTOMATIC RR MARK DATA TO UPDATE THE STATE VECTOR OF EITHER
000633:                                                                                                  #  LM OR CSM AS DEFINED IN THE RENDEZVOUS NAVIGATION PROGRAM (P20)
000634:                                                                                                  #  CALLING SEQUENCE -
000635:                                                                                                  #           TC     BANKCALL
000636:                                                                                                  #           CADR   R22LEM
000637:                                                                                                  #  SUBROUTINES CALLED -
000638:                                                                                                  #    LSR22.1           GOFLASH        WAITLIST
000639:                                                                                                  #    LSR22.2           PRIOLARM       BANKCALL
000640:                                                                                                  #    LSR22.3           R61LEM
000641:                                                                                                  #  NORMAL EXIT MODES-
000642:                                                                                                  #    R22 WILL CONTINUE TO RECYCLE,UPDATING STATE VECTORS WITH RADAR DATA
000643:                                                                                                  #  UNTIL P20 CEASES TO OPERATE (RENDEZVOUS FLAG SET TO ZERO) AT WHICH TIME
000644:                                                                                                  #  R22 WILL TERMINATE SELF.
000645:                                                                                                  #  ALARM OR ABORT EXIT MODES-
000646:                                                                                                  #    PRIORITY ALARM
000647:                                                                                                  #  PRIORITY ALARM 525 LOS NOT WITHIN 3 DEGREE LIMIT
000648:                                                                                                  #  OUTPUT
000649:                                                                                                  #    SEE OUTPUT FROM LSR22.3
000650:                                                                                                  #  ERASABLE INITIALIZATION REQUIRED
000651:                                                                                                  #    SEE LSR22.1,LSR22.2,LSR22.3
000652:                                                                                                  #  FLAGS SET + RESET
000653:                                                                                                  #    NOANGFLG
000654:                                                                                                  #  DEBRIS
000655:                                                                                                  #    SEE LSR22.1,LSR22.2,LSR22.3
000656: 24,2527  E7,1737                                  EBANK=   LRS22.1X
000657: 24,2527                                           COUNT*   $$/R22
000658: 24,2527           05355        R22LEM             TC       PHASCHNG
000659: 24,2530           04022                           OCT      04022
000660: 24,2531           34736                           CAF      RNDVZBIT                              #  IS RENDESVOUS FLAG SET?
000661: 24,2532           70074                           MASK     STATE
000662: 24,2533           00006                           EXTEND
000663: 24,2534           15146                           BZF      ENDOFJOB                              #  NO-EXIT R22 AND P20
000664: 24,2535           34740                           CAF      TRACKBIT                              #  IS TRACKFLAG SET?
000665: 24,2536           70075                           MASK     STATE      +1
000666: 24,2537           00006                           EXTEND
000667: 24,2540           12724                           BZF      R22WAIT                               #  NO WAIT
000668: 24,2541           34727        R22LEM12           CAF      BIT14                                 #  IS RR AUTO TRACK ENABLE DISCRETE STILL
000669: 24,2542           00006                           EXTEND                                         #  ON (A MONITOR REPOSITION BY R25 CLEARSIT
000670: 24,2543           02012                           RAND     CHAN12
000671: 24,2544           00006                           EXTEND
000672: 24,2545           12167                           BZF      P20LEMA                               #  NO - RETURN TO P20
000673: 24,2546           34743                           CAF      BIT2                                  #  YES
000674: 24,2547           00006                           EXTEND                                         #  IS RR AUTO MODE DISCRETE PRESENT
000675: 24,2550           02033                           RAND     CHAN33


000677: 24,2551           00006                           EXTEND
000678: 24,2552           12554                           BZF      +2                                    #  YES CONTINUE
000679: 24,2553           02213                           TC       P20LEMB5                              #  NO - SET IT
000680: 24,2554           40110                           CS       RADMODES                              #  ARE RR CDUS BEING ZEROED
000681: 24,2555           74730                           MASK     RCDU0BIT
000682: 24,2556           00006                           EXTEND
000683: 24,2557           12713                           BZF      R22LEM42                              #  CDUS BEING ZEROED
000684: 24,2560           05355                           TC       PHASCHNG                              #  IF A RESTART OCCURS,AN EXTRA RADAR
000685: 24,2561           00152                           OCT      00152                                 #  READING IS TAKEN,SO BAD DATA ISN'T USED
000686: 24,2562           04607                           TC       BANKCALL                              #  YES READ DATA + CALCULATE LOS
000687: 24,2563           64362                           CADR     LRS22.1                               #  DATA READ SUBROUTINE
000688: 24,2564           50154                           INDEX    MPAC
000689: 24,2565           02566                           TC       +1
000690: 24,2566           02607                           TC       R22LEM2                               #  NORMAL RETURN (GOOD DATA)
000691: 24,2567           02275                           TC       P20LEMC                               #  COULD NOT READ RADAR-TRY TO REDESIGNATE
000692: 24,2570           32745                           CAF      ALRM525                               #  RR LOS NOT WITHIN 3 DEGREES (ALARM)
000693: 24,2571           04607                           TC       BANKCALL
000694: 24,2572           21572                           CADR     PRIOLARM
000695: 24,2573           06043                           TC       GOTOV56                               #  TERMINATE EXITS P20 VIA V56 CODING
000696: 24,2574           02577                           TC       R22LEM1                               #  PROC (DISPLAY DELTA THETA)
000697: 24,2575           02570                           TC       -5                                    #  ENTER(ILLEGAL OPTION)
000698: 24,2576           05146                           TC       ENDOFJOB
000699:
000700:
000701: 24,2577           05355        R22LEM1            TC       PHASCHNG
000702: 24,2600           04022                           OCT      04022
000703: 24,2601           32746                           CAF      V06N05                                #  DISPLAY DELTA THETA
000704: 24,2602           04607                           TC       BANKCALL
000705: 24,2603           20502                           CADR     PRIODSP
000706: 24,2604           06043                           TC       GOTOV56                               #  TERMINATE EXITS P20 VIA V56 CODING
000707: 24,2605           02607                           TC       R22LEM2                               #  PROC (OK CONTINUE)
000708: 24,2606           02275                           TC       P20LEMC                               #  ENTER(RECYCLE)
000709: 24,2607           05355        R22LEM2            TC       PHASCHNG
000710: 24,2610           04022                           OCT      04022
000711: 24,2611           02751                           TC       LUNSFCHK                              #  CHECK IF ON LUNAR SURFACE (P22FLAG SET)
000712: 24,2612           02627                           TC       R22LEM3                               #  YES-BYPASS FLAG CHECKS AND LRS22.2
000713: 24,2613           30075                           CA       FLAGWRD1                              #  IS TRACK FLAG SET
000714: 24,2614           74740                           MASK     TRACKBIT
000715: 24,2615           00006                           EXTEND
000716: 24,2616           12724                           BZF      R22WAIT                               #  NO - WAIT
000717: 24,2617           04607                           TC       BANKCALL                              #  YES
000718: 24,2620           51416                           CADR     LRS22.2                               #  CHECKS RR BORESIGHT WITHIN 30 DEG OF +Z
000719: 24,2621           50154                           INDEX    MPAC
000720: 24,2622           02623                           TC       +1
000721: 24,2623           02627                           TC       R22LEM3                               #  NORMAL RETURN(LOS WITHIN 30  OF Z-AXIS)
000722: 24,2624           04607                           TC       BANKCALL
000723: 24,2625           46116                           CADR     R61LEM
000724: 24,2626           02724                           TC       R22WAIT                               #  NOT WITHIN 30 DEG OF Z-AXIS
000725: 24,2627           40075        R22LEM3            CS       FLAGWRD1                              #  SHOULD WE BYPASS STATE VECTOR UPDATE
000726: 24,2630           74737                           MASK     NOUPFBIT                              #  (IS NOUPDATE FLAG SET?)


000728: 24,2631           00006                           EXTEND
000729: 24,2632           12713                           BZF      R22LEM42                              #  BRANCH-YES
000730: 24,2633           30075                           CA       FLAGWRD1                              #  IS UPDATE FLAG SET
000731: 24,2634           74736                           MASK     UPDATBIT
000732: 24,2635           00006                           EXTEND
000733: 24,2636           12713                           BZF      R22LEM42                              #  UPDATE FLAG NOT SET
000734: 24,2637           37735                           CAF      PRIO26                                #  INSURE HIGH PRIO IN RESTART
000735: 24,2640           55055                           TS       PHSPRDT2
000736:
000737: 24,2641           06060                           TC       INTPRET
000738: 24,2642           77650                           GOTO
000739: 24,2643           54424                                    LSR22.3
000740: 24,2644           77776        R22LEM93           EXIT                                           #  NORMAL EXIT FROM LSR22.3
000741: 24,2645           05355                           TC       PHASCHNG                              #  PHASE CHANGE TO PROTECT AGAINST
000742: 24,2646           04022                           OCT      04022                                 #  CONFLICT WITH GRP2PC ERASEABLE
000743: 24,2647           12706                           TCF      R22LEM44
000744: 24,2650           77776        R22LEM96           EXIT
000745: 24,2651           34746                           CAF      ZERO                                  #  SET N49FLAG = ZERO TO INDICATE
000746: 24,2652           55746                           TS       N49FLAG                               #  V06 N49 DISPLAY HASNT BEEN ANSWERED
000747: 24,2653           05355                           TC       PHASCHNG
000748: 24,2654           04022                           OCT      04022                                 #  TO PROTECT DISPLAY
000749: 24,2655           37736                           CAF      PRIO27                                #  PROTECT DISPLAY
000750: 24,2656           05063                           TC       NOVAC
000751: 24,2657  E7,1746                                  EBANK=   N49FLAG
000752: 24,2657           02726 50067                     2CADR    N49DSP
000753:
000754: 24,2661           06060                           TC       INTPRET
000755: 24,2662           77735                           SLOAD
000756: 24,2663           03747                                    N49FLAG
000757: 24,2664           50054                           BZE      BMN                                   #  LOOP TO CHECK IF FLAG
000758: 24,2665           50662                                    -3                                    #  SETTING CHANGED-BRANCH - NO
000759: 24,2666           50674                                    R22LEM7                               #  PROCEED
000760: 24,2667           77650                           GOTO                                           #  DISPLAY ANSWERED BY RECYCLE-INCORPORATE
000761: 24,2670           03675                                    LGRET                                 #        NEXT MEASUREMENT
000762: 24,2671           44743        V34TON49           CS       TWO
000763: 24,2672           55746                           TS       N49FLAG
000764: 24,2673           05146                           TC       ENDOFJOB
000765: 24,2674           77776        R22LEM7            EXIT
000766: 24,2675           31746                           CA       N49FLAG                               #  WAS ANSWER TO DISPLAY PRO OR TERM
000767: 24,2676           64743                           AD       TWO
000768: 24,2677           00006                           EXTEND
000769: 24,2700           12527                           BZF      R22LEM                                #  BRANCH - TERM - TAKE ANOTHER RR READING
000770: 24,2701           06060                           TC       INTPRET
000771: 24,2702           77624                           CALL
000772: 24,2703           51770                                    GRP2PC                                #  PHASE CHANGE AND
000773: 24,2704           77650                           GOTO                                           #  GO TO INCORPORATE DATA.
000774: 24,2705           55430                                    ASTOK
000775: 24,2706           25462        R22LEM44           INCR     MARKCTR                               #  INCREMENT COUNT OF MARKS INCORPORATED.
000776: 24,2707           02751                           TC       LUNSFCHK                              #  ARE WE ON LUNAR SURFACE
000777: 24,2710           02713                           TC       R22LEM42


000779: 24,2711           34747                           CA       FIVE                                  #  NOT ON LUNAR SURFACE
000780: 24,2712           02720                           TC       R22LEM45                              #  R65COUNTER = 5
000781: 24,2713           04607        R22LEM42           TC       BANKCALL
000782: 24,2714           01735                           CADR     2SECDELY
000783: 24,2715           02751                           TC       LUNSFCHK
000784: 24,2716           02527                           TC       R22LEM
000785:
000786: 24,2717           34743                           CA       TWO                                   #  NO-SET R65COUNTER = 2
000787: 24,2720           55745        R22LEM45           TS       R65CNTR
000788: 24,2721           04607                           TC       BANKCALL
000789: 24,2722           46123                           CADR     R65LEM                                #  FINE PREFERRED TRACKING ATTITUDE
000790: 24,2723           02527                           TC       R22LEM
000791: 24,2724           32750        R22WAIT            CAF      1500DEC
000792: 24,2725           02311                           TC       P20LEMWT   +1
000793:
000794:
000795: 24,2726           32747        N49DSP             CAF      V06N49NB
000796: 24,2727           04607                           TC       BANKCALL                              #  EXCESSIVE STATE VECTOR UPDATE - FLASH
000797: 24,2730           20502                           CADR     PRIODSP                               #  VERB 06 NOUN 49 R1=DELTA R, R2=DELTA V
000798: 24,2731           02671                           TC       V34TON49                              #  TERMINATE - SET N49FLAG = -2
000799: 24,2732           44744                           CS       ONE                                   #  PROCEED - N49FLAG = -1
000800: 24,2733           55746                           TS       N49FLAG                               #  RECYCLE - N49FLAG = + VALUE
000801: 24,2734           05146                           TC       ENDOFJOB
000802: 24,2735           05355        R22RSTRT           TC       PHASCHNG                              #  IF A RESTART OCCURS WHILE READING RADAR
000803: 24,2736           00152                           OCT      00152                                 #  COME HERE TO TAKE A RANGE-RATE READING
000804: 24,2737           04607                           TC       BANKCALL                              #  WHICH ISNT USED TO PREVENT TAKING A BAD
000805: 24,2740           53072                           CADR     RRRDOT                                #  READING AND TRYING TO INCORPORATE THE
000806: 24,2741           04607                           TC       BANKCALL                              #  BAD DATA
000807: 24,2742           17733                           CADR     RADSTALL                              #  WAIT FOR READ COMPLETE
000808: 24,2743           02275                           TC       P20LEMC                               #  COULD NOT READ RADAR-TRY TO REDESIGNATE
000809: 24,2744           02527                           TC       R22LEM                                #  READ SUCCESSFUL-CONTINUE AT R22
000810:
000811:
000812: 24,2745           00525        ALRM525            OCT      00525
000813: 24,2746           01405        V06N05             VN       00605
000814: 24,2747           01461        V06N49NB           VN       00649
000815: 24,2750           02734        1500DEC            DEC      1500       B-14
000816:                                                                                                  #  LUNSFCHK-CLOSED SUBROUTINE TO CHECK IF ON LUNAR SURFACE (P22FLAG)
000817:                                                                                                  #             RETURNS TO CALLER +1 IF P22FLAG SET
000818:                                                                                                  #                     TO CALLER +2 IF P22FLAG NOT SET
000819:
000820:
000821: 24,2751                                           COUNT*   $$/P22
000822: 24,2751           40104        LUNSFCHK           CS       FLAGWRD8                              #  CHECK IF ON LUNAR SURFACE
000823: 24,2752           74735                           MASK     SURFFBIT                              #  IS SURFFLAG SET?
000824: 24,2753           10000                           CCS      A                                     #  BRANCH - P22FLAG SET
000825: 24,2754           24002                           INCR     Q                                     #  NOT SET
000826: 24,2755           00002                           TC       Q                                     #  RETURN
000827:


000829:                                                                                                  #  RR DESIGNATE ROUTINE (R21LEM)
000830:                                                                                                  #  PROGRAM DESCRIPTION
000831:                                                                                                  #  MOD NO - 2
000832:                                                                                                  #  BY P VOLANTE
000833:                                                                                                  #  FUNCTIONAL DESCRIPTION
000834:
000835:                                                                                                  #    TO POINT THE RENDEZVOUS RADAR AT THE CSM UNTIL AUTOMATIC ACQUISITION
000836:                                                                                                  #  OF THE CSM IS ACCOMPLISHED BY THE RADAR. ROUTINE IS CALLED BY P20.
000837:                                                                                                  #  CALLING SEQUENCE -
000838:                                                                                                  #           TC     BANKCALL
000839:                                                                                                  #           CADR   R21LEM
000840:                                                                                                  #  SUBROUTINES CALLED -
000841:                                                                                                  #    FINDVAC        FLAGUP           ENDOFJOB        PRIOLARM
000842:                                                                                                  #    NOVAC          INTPRET          LPS20.1         PHASCHNG
000843:                                                                                                  #    WAITLIST       JOBSLEEP         JOBWAKE         FLAGDOWN
000844:                                                                                                  #    TASKOVER       BANKCALL         RADSTALL        RRDESSM
000845:                                                                                                  #  NORMAL EXIT MODES
000846:                                                                                                  #    WHEN LOCK-ON IS ACHIEVED,BRANCH WILL BE TO P20 WHERE R22 (DATA READ
000847:                                                                                                  #  WILL BE SELECTED OR A NEED FOR A MANEUVER(BRANCH TO P20LEMA)
000848:                                                                                                  #  ALARM OR ABORT EXIT MODES-
000849:                                                                                                  #    PRIORITY ALARM 503 WHEN LOCK-ON HASN:T BEEN ACHIEVED AFTER 30SECS -
000850:                                                                                                  #  THIS REQUIRES ASTRONAUT INTERFACE- SELECTION OF SEARCH OPTION OF
000851:                                                                                                  #  ACQUISITION
000852:                                                                                                  #  OUTPUT
000853:                                                                                                  #    SEE LPS20.1,RRDESSM
000854:                                                                                                  #  ERASABLE INITIALIZATION REQUIRED
000855:                                                                                                  #    RRTARGET,RADMODES ARE USED BY LPS20.1 AND RRDESSM
000856:                                                                                                  #  FLAGS SET + RESET
000857:                                                                                                  #    LOSCMFLG      LOKONSW
000858:                                                                                                  #  DEBRIS
000859:                                                                                                  #    SEE LPS20.1,RRDESSM
000860: 24,2756  E7,1456                                  EBANK=   LOSCOUNT
000861: 24,2756                                           COUNT*   $$/R21
000862: 24,2756           44727        R21LEM             CS       BIT14                                 #  REMOVE RR SELF TRACK ENABLE
000863: 24,2757           00006                           EXTEND
000864: 24,2760           03012                           WAND     CHAN12
000865: 24,2761           34727                           CAF      BIT14                                 #  RESET AGSCODE SINCE R21
000866: 24,2762           55073                           TS       AGSCODE                               #  CLOBBERS DOWNLINK MARK DATA
000867: 24,2763           02751                           TC       LUNSFCHK
000868: 24,2764           02771                           TC       R21LEM5
000869: 24,2765           34746                           CAF      ZERO                                  #       COMMAND ANTENNA TO MODE CENTER
000870: 24,2766           55106                           TS       TANG                                  #  IF NOT ON SURFACE-MODE 1-(T=0,S=0)
000871: 24,2767           55107                           TS       TANG       +1
000872: 24,2770           03001                           TC       R21LEM6
000873: 24,2771           34731        R21LEM5            CAF      BIT12
000874: 24,2772           70110                           MASK     RADMODES
000875: 24,2773           10000                           CCS      A
000876: 24,2774           03011                           TC       R21LEM10
000877: 24,2775           34726                           CAF      BIT15
000878: 24,2776           55106                           TS       TANG


000880: 24,2777           44727                           CS       HALF
000881: 24,3000           55107                           TS       TANG       +1
000882: 24,3001           05520        R21LEM6            TC       DOWNFLAG
000883: 24,3002           00012                           ADRES    LOKONSW
000884: 24,3003           04607                           TC       BANKCALL
000885: 24,3004           52466                           CADR     RRDESNB
000886: 24,3005           03006                           TC       +1
000887: 24,3006           04607                           TC       BANKCALL
000888: 24,3007           17733                           CADR     RADSTALL
000889: 24,3010           03044                           TC       R21-503                               #  BAD RETURN FROM DESIGNATE -ISSUE ALARM
000890: 24,3011           05506        R21LEM10           TC       UPFLAG
000891: 24,3012           00041                           ADRES    LOSCMFLG                              #  EVERY FOURTH PASS THRU DODES
000892: 24,3013           32366                           CAF      MAXTRIES                              #  ALLOW 60 PASSES (APPROX 45 SECONDS)
000893: 24,3014           55113                           TS       DESCOUNT                              #  TO DESIGNATE AND LOCK ON
000894: 24,3015           36266        R21LEM2            CAF      THREE
000895: 24,3016           55456                           TS       LOSCOUNT
000896: 24,3017           06060        R21LEM1            TC       INTPRET
000897: 24,3020           43234                           RTB      DAD
000898: 24,3021           21603                                    LOADTIME
000899: 24,3022           11206                                    HALFSEC                               #  EXTRAPOLATE TO PRESENT TIME + .5 SEC.
000900: 24,3023           34041                           STCALL   TDEC1                                 #  LOS DETERMINATION ROUTINE
000901: 24,3024           51337                                    LPS20.1
000902: 24,3025           77776                           EXIT
000903: 24,3026           05506        R21LEM3            TC       UPFLAG                                #  SET LOKONSW TO RADAR-ON DESIRED
000904: 24,3027           00012                           ADRES    LOKONSW
000905: 24,3030           05520                           TC       DOWNFLAG
000906: 24,3031           00126                           ADRES    NORRMON
000907: 24,3032           06060                           TC       INTPRET
000908: 24,3033           77624                           CALL                                           #  INPUT (RRTARGET UPDATED BY LPS20.1)
000909: 24,3034           52364                                    RRDESSM                               #  DESIGNATE ROUTINE
000910: 24,3035           77776                           EXIT
000911: 24,3036           03065                           TC       R21LEM4                               #  LOS NOT IN MODE 2 COVERAGE
000912:                                                                                                  #  ON LUNAR SURFACE
000913: 24,3037           02167                           TC       P20LEMA                               #  VEHICLE MANEUVER REQUIRED.
000914: 24,3040           04607                           TC       BANKCALL                              #  NO VEHICLE MANEUVER REQUIRED
000915: 24,3041           17733                           CADR     RADSTALL                              #  WAIT FOR DESIGNATE COMPLETE - LOCKON OR
000916: 24,3042           03044                           TC       +2                                    #  BADEND-LOCKON NOT ACHIEVED IN 60 TRIES
000917: 24,3043           03053                           TC       R21END                                #  EXIT ROUTINE RETURN TO P20 (LOCK-ON)
000918: 24,3044           33063        R21-503            CAF      ALRM503                               #  ISSUE ALARM 503
000919: 24,3045           04607                           TC       BANKCALL
000920: 24,3046           21572                           CADR     PRIOLARM
000921: 24,3047           06043                           TC       GOTOV56                               #  TERMINATE EXITS P20 VIA V56 CODING
000922: 24,3050           03060                           TC       R21SRCH                               #  PROC
000923: 24,3051           02267                           TC       P20LEMC3
000924: 24,3052           05146                           TC       ENDOFJOB
000925: 24,3053           05520        R21END             TC       DOWNFLAG
000926: 24,3054           00041                           ADRES    LOSCMFLG                              #  RESET LOSCMFLG
000927: 24,3055           02751                           TC       LUNSFCHK                              #  ARE WE ON LUNAR SURFACE
000928: 24,3056           02310                           TC       P20LEMWT                              #  YES - BYPASS V 50 N 72 DISPLAY
000929: 24,3057           03207                           TC       R21DISP                               #  PUT UP VERIFY MAIN LOBE LOCKON DISPLAY


000931: 24,3060           05355        R21SRCH            TC       PHASCHNG
000932: 24,3061           04022                           OCT      04022
000933: 24,3062           03271                           TC       R24LEM                                #  SEARCH ROUTINE
000934: 24,3063           00503        ALRM503            OCT      00503
000935: 24,3064           00527        ALRM527            OCT      527
000936:
000937:
000938: 24,3065           06032        R21LEM4            TC       CLRADMD1                              #  CLEAR BITS 10 & 15 IN RADMODES
000939: 24,3066           32366                           CAF      MAXTRIES                              #  SET UP COUNTER FOR
000940: 24,3067           55423                           TS       REPOSCNT                              #  60 PASSES (APPROX 600 SECS.)
000941: 24,3070           05506                           TC       UPFLAG
000942: 24,3071           00032                           ADRES    FRSTIME                               #  SET FIRST TIME FLAG
000943: 24,3072           05520                           TC       DOWNFLAG                              #  RESET LOS BEING
000944: 24,3073           00041                           ADRES    LOSCMFLG                              #  COMPUTED FLAG
000945: 24,3074           06060                           TC       INTPRET
000946: 24,3075           77634        R21LEM12           RTB
000947: 24,3076           21603                                    LOADTIME
000948: 24,3077           77615        R21LEM00           DAD
000949: 24,3100           11204                                    TENSEC                                #  TIME T = T + 10 SECS.
000950: 24,3101           03425                           STORE    REPOSTM                               #  SAVE FOR LONGCALL AND UPPSV
000951: 24,3102           34041                           STCALL   TDEC1
000952: 24,3103           51337                                    LPS20.1                               #  COMPUTE LOS AT TIME T
000953: 24,3104           77624                           CALL
000954: 24,3105           52364                                    RRDESSM
000955: 24,3106           77776                           EXIT
000956: 24,3107           03121                           TC       R21LEM13                              #  LOS NOT IN MODE 2 COVERAGE
000957: 24,3110           05146                           TC       ENDOFJOB                              #  VEHICLE MANEUVER REQUIRED
000958: 24,3111           06050                           TC       KILLTASK
000959: 24,3112           52564                           CADR     BEGDES
000960: 24,3113           06060                           TC       INTPRET
000961: 24,3114           43014                           BOF      CLRGO
000962: 24,3115           00753                                    FRSTIME                               #  FIRST TIME THRU PREPOSITION
000963: 24,3116           51131                                    R21LEM8                               #  NO-GO TO CONTINUOUS DESIGNATE
000964: 24,3117           00633                                    FRSTIME                               #  YES - RESET FIRST TIME FLAG
000965: 24,3120           51126                                    R21LEM50
000966: 24,3121           11423        R21LEM13           CCS      REPOSCNT                              #  HAVE WE TRIED 60 TIMES?
000967: 24,3122           03124                           TC       R21LEM7                               #  NO-ADD 10 SECS. RECOMPUTE LOS
000968: 24,3123           03173                           TC       R21LEM11                              #  YES-PUT OUT ALARM 530
000969: 24,3124           55423        R21LEM7            TS       REPOSCNT
000970: 24,3125           06060                           TC       INTPRET
000971: 24,3126           52145        R21LEM50           DLOAD    GOTO
000972: 24,3127           03425                                    REPOSTM
000973: 24,3130           51077                                    R21LEM00
000974: 24,3131           77745        R21LEM8            DLOAD
000975: 24,3132           03425                                    REPOSTM
000976: 24,3133           34041                           STCALL   TDEC1
000977: 24,3134           50374                                    UPPSV
000978: 24,3135           77776                           EXIT
000979: 24,3136           05506                           TC       UPFLAG                                #  SET RADMODES BIT 15 FOR
000980: 24,3137           00264                           ADRES    CDESFLAG                              #  CONTINUOUS DESIGNATION


000982: 24,3140           05520                           TC       DOWNFLAG
000983: 24,3141           00012                           ADRES    LOKONSW
000984: 24,3142           05506                           TC       UPFLAG
000985: 24,3143           00126                           ADRES    NORRMON
000986: 24,3144           04607                           TC       BANKCALL
000987: 24,3145           52466                           CADR     RRDESNB
000988: 24,3146           03147                           TC       +1
000989: 24,3147           06060                           TC       INTPRET
000990: 24,3150           44234                           RTB      BDSU
000991: 24,3151           21603                                    LOADTIME                              #  COMPUTE DELTA TIME
000992: 24,3152           03425                                    REPOSTM                               #  FOR LONGCALL
000993: 24,3153           03427                           STORE    DELTATM
000994: 24,3154           77776                           EXIT
000995: 24,3155           00006                           EXTEND
000996: 24,3156           31427                           DCA      DELTATM
000997: 24,3157           05301                           TC       LONGCALL
000998: 24,3160  E7,1456                                  EBANK=   LOSCOUNT
000999: 24,3160           03163 50067                     2CADR    R21LEM9
001000:
001001: 24,3162           05146                           TC       ENDOFJOB
001002: 24,3163           06050        R21LEM9            TC       KILLTASK
001003: 24,3164           52573                           CADR     STDESIG
001004: 24,3165           06027                           TC       CLRADMOD
001005: 24,3166           37735                           CAF      PRIO26
001006: 24,3167           05076                           TC       FINDVAC
001007: 24,3170  E7,1456                                  EBANK=   LOSCOUNT
001008: 24,3170           03011 50067                     2CADR    R21LEM10
001009:
001010: 24,3172           05263                           TC       TASKOVER
001011: 24,3173           33202        R21LEM11           CAF      ALRM530                               #  ALARM 530-LOS NOT IN COVERAGE
001012: 24,3174           04607                           TC       BANKCALL                              #  AFTER TRYING TO DESIGNATE FOR
001013: 24,3175           21572                           CADR     PRIOLARM                              #  600 SECS.
001014: 24,3176           06043                           TC       GOTOV56
001015: 24,3177           06043                           TC       GOTOV56
001016: 24,3200           06043                           TC       GOTOV56
001017: 24,3201           05146                           TC       ENDOFJOB
001018: 24,3202           00530        ALRM530            OCT      00530
001019: 24,3203           00000 01750  TENSEC             2DEC     1000       B-28
001020:
001021: 24,3205           00000 00062  HALFSEC            2DEC     50         B-28
001022:
001023: 24,3207           05355        R21DISP            TC       PHASCHNG
001024: 24,3210           04022                           OCT      04022
001025: 24,3211           33217                           CAF      V50N72                                #  FLASH V50N72 MONITOR -PLEASE PERFORM RR
001026: 24,3212           04607                           TC       BANKCALL                              #  MAIN LOBE LOCKON VERIFICATION
001027: 24,3213           20326                           CADR     PRIOMONR                              #  THIS IS A PRIORITY DISPLAY
001028: 24,3214           06043                           TC       GOTOV56                               #  TERMINATE EXITS VIA V 56
001029: 24,3215           02310                           TC       P20LEMWT                              #  PROCEED CONTINUES TO R22
001030: 24,3216           03211                           TC       -5                                    #  ENTER ILLEGAL
001031: 24,3217           14510        V50N72             VN       05072
001032:


001034:                                                                                                  #  MANUAL ACQUISITION ROUTINE R23LEM
001035:                                                                                                  #  PROGRAM DESCRIPTION
001036:                                                                                                  #  MOD NO - 2
001037:                                                                                                  #  BY P VOLANTE
001038:                                                                                                  #  FUNCTIONAL DESCRIPTION
001039:
001040:                                                                                                  #    TO ACQUIRE THE CSM BY MANUAL OPERATION OF THE RENDEZVOUS RADAR
001041:                                                                                                  #  CALLING SEQUENCE -
001042:                                                                                                  #           TC     R23LEM
001043:                                                                                                  #  SUBROUTINES CALLED
001044:                                                                                                  #    BANKCALL        R61LEM
001045:                                                                                                  #    SETMINDB        GOPERF1
001046:                                                                                                  #  NORMAL EXIT MODES -
001047:                                                                                                  #    IN RESPONSE TO THE GOPERF1 ,SELECTION OF ENTER WILL RECYCLE R23
001048:                                                                                                  #                               ,SELECTION OF PROC  WILL CONTINUE R23
001049:                                                                                                  #                               ,SELECTION OF TERM  WILL TERMINATE R23 +P20
001050:                                                                                                  #  ALARM OR ABORT EXIT MODES -
001051:                                                                                                  #    SEE NORMAL EXIT MODES ABOVE
001052:                                                                                                  #  OUTPUT
001053:                                                                                                  #    N.A.
001054:                                                                                                  #  ERASABLE INITIALIZATION REQUIRED-
001055:                                                                                                  #    ACMODFLG MUST BE SET TO 1 (MANUAL MODE)
001056: 24,3220     1142                                  EBANK=   GENRET
001057: 24,3220                                           COUNT*   $$/R23
001058: 24,3220           05506        R23LEM             TC       UPFLAG                                #  SET NO ANGLE MONITOR FLAG
001059: 24,3221           00126                           ADRES    NORRMON
001060: 24,3222           00004                           INHINT
001061: 24,3223           04665                           TC       IBNKCALL                              #  SELECT MINIMUM DEADBAND
001062: 24,3224           40141                           CADR     SETMINDB
001063: 24,3225           00003                           RELINT
001064: 24,3226           34727        R23LEM1            CAF      BIT14                                 #  ENABLE TRACKER
001065: 24,3227           00006                           EXTEND
001066: 24,3230           05012                           WOR      CHAN12
001067: 24,3231           33270                           CAF      OCT205
001068: 24,3232           04607                           TC       BANKCALL
001069: 24,3233           20635                           CADR     GOPERF1
001070: 24,3234           03261                           TC       R23LEM2                               #  TERMINATE
001071: 24,3235           03237                           TC       R23LEM11                              #  PROCEDE
001072: 24,3236           03264                           TC       R23LEM3                               #  ENTER- DO ANOTHER MANUVER
001073: 24,3237           00004        R23LEM11           INHINT
001074: 24,3240           04514                           TC       RRLIMCHK                              #  YES - CHECK IF ANTENNA IS WITHIN LIMITS
001075: 24,3241           00035                           ADRES    CDUT
001076: 24,3242           03251                           TC       OUTOFLIM                              #  NOT WITHIN LIMITS
001077: 24,3243           04665                           TC       IBNKCALL                              #  RESTORE DEADBAND TO
001078: 24,3244           40115                           CADR     RESTORDB                              #  ASTRONAUT SELECTED VALUE
001079: 24,3245           00003                           RELINT
001080: 24,3246           05520                           TC       DOWNFLAG                              #  CLEAR NO ANGLE MONITOR FLAG
001081: 24,3247           00126                           ADRES    NORRMON
001082: 24,3250           02241                           TC       P20LEMB1                              #  RADAR IS LOCKED ON CONTINUE IN P20
001083: 24,3251           00003        OUTOFLIM           RELINT


001085: 24,3252           33267                           CAF      OCT501PV
001086: 24,3253           04607                           TC       BANKCALL                              #  ISSUE ALARM - RR ANTENNA NOT WITHIN
001087: 24,3254           21572                           CADR     PRIOLARM                              #  LIMITS
001088: 24,3255           03261                           TC       R23LEM2                               #  TERMINATE - EXIT R23 TO R00 (GO TO POOH)
001089: 24,3256           03252                           TC       OUTOFLIM   +1                         #  PROCEED ILLEGAL
001090: 24,3257           03264                           TC       R23LEM3                               #  RECYCLE- DO ANOTHER MANUVER
001091: 24,3260           05146                           TC       ENDOFJOB
001092: 24,3261           05520        R23LEM2            TC       DOWNFLAG                              #  CLEAR NO ANGLE MONITOR FLAG
001093: 24,3262           00126                           ADRES    NORRMON
001094: 24,3263           06043                           TC       GOTOV56                               #  AND EXIT VIA V56
001095: 24,3264           04607        R23LEM3            TC       BANKCALL
001096: 24,3265           46116                           CADR     R61LEM
001097: 24,3266           03226                           TC       R23LEM1
001098:
001099:
001100: 24,3267           00501        OCT501PV           OCT      501
001101: 24,3270           00205        OCT205             OCT      205
001102:


001104:                                                                                                  #  SEARCH ROUTINE R24LEM
001105:                                                                                                  #  PROGRAM DESCRIPTION
001106:                                                                                                  #  MOD NO - 2
001107:                                                                                                  #  BY  P. VOLANTE
001108:                                                                                                  #  FUNCTIONAL DESCRIPTION
001109:
001110:                                                                                                  #    TO ACQUIRE THE CSM BY A SEARCH PATTERN WHEN THE RENDEZVOUS RADAR HAS
001111:                                                                                                  #  FAILED TO ACQUIRE THE CSM IN THE AUTOMATIC TRACKING MODE AND TO ALLOW
001112:                                                                                                  #  THE ASTRONAUT TO CONFIRM THAT REACQUISITION HAS NOT BEEN BY SIDELOBE.
001113:                                                                                                  #  CALLING SEQUENCE
001114:                                                                                                  #           CAF    PRIONN
001115:                                                                                                  #           TC     FINDVAC
001116:                                                                                                  #           EBANK= DATAGOOD
001117:                                                                                                  #           2CADR  R24LEM
001118:                                                                                                  #  SUBROUTINES CALLED
001119:                                                                                                  #    FLAGUP        FLAGDOWN      BANKCALL
001120:                                                                                                  #    R61LEM        GOFLASHR      FINDVAC
001121:                                                                                                  #    ENDOFJOB      NOVAC         LSR24.1
001122:                                                                                                  #  NORMAL EXIT MODES-
001123:                                                                                                  #    ASTRONAUT RESPONSE TO DISPLAY OF OMEGA AND DATAGOOD.HE CAN EITHER
001124:                                                                                                  #  REJECT BY TERMINATING (SEARCH OPTION AND RESELECTING P20) OR ACCEPT BY
001125:                                                                                                  #  PROCEEDING (EXIT ROUTINE AND RETURN TO AUTO MODE IN P20)
001126:                                                                                                  #  ALARM OR ABORT EXIT MODES-
001127:                                                                                                  #    SEE NORMAL EXIT MODES ABOVE
001128:                                                                                                  #  OUTPUT -
001129:                                                                                                  #    SEE OUTPUT FROM LSR24.1 + R61LEM
001130:                                                                                                  #  ERASABLE INITIALIZATION REQUIRED
001131:                                                                                                  #    SEE INPUT FOR LSR24.1
001132:                                                                                                  #  FLAGS SET + RESET
001133:                                                                                                  #    SRCHOPT,ACMODFLG
001134: 24,3271  E7,1733                                  EBANK=   DATAGOOD
001135: 24,3271                                           COUNT*   $$/R24
001136: 24,3271           05506        R24LEM             TC       UPFLAG
001137: 24,3272           00037                           ADRES    SRCHOPTN                              #  SET SRCHOPT FLAG
001138: 24,3273           05520                           TC       DOWNFLAG                              #  RESET LOS BEING COMPUTED FLAG TO MAKE
001139: 24,3274           00041                           ADRES    LOSCMFLG                              #  SURE DODES DOESN'T GO TO R21
001140: 24,3275           34746        R24LEM1            CAF      ZERO
001141: 24,3276           55733                           TS       DATAGOOD                              #  ZERO OUT DATA INDICATOR
001142: 24,3277           55734                           TS       OMEGAD                                #  ZERO OMEGA DISPLAY REGS
001143: 24,3300           55735                           TS       OMEGAD     +1                         #  ZERO OMEGA DISPLAY REGS
001144: 24,3301           05355        R24LEM2            TC       PHASCHNG
001145: 24,3302           04022                           OCT      04022
001146: 24,3303           33336                           CAF      V16N80
001147: 24,3304           04607                           TC       BANKCALL
001148: 24,3305           20477                           CADR     PRIODSPR
001149: 24,3306           06043                           TC       GOTOV56
001150: 24,3307           03313                           TC       R24END                                #  PROCEED EXIT R24 TO P20LEM1
001151:
001152: 24,3310           03317                           TC       R24LEM3                               #  RECYCLE - CALL R61 TO MANEUVER S/C


001154: 24,3311           04607                           TC       BANKCALL
001155: 24,3312           55441                           CADR     LRS24.1
001156: 24,3313           06050        R24END             TC       KILLTASK
001157: 24,3314           55642                           CADR     CALLDGCH
001158: 24,3315           06027                           TC       CLRADMOD                              #  CLEAR BITS 10 & 15 OF RADMODES.
001159: 24,3316           12065                           TCF      P20LEM1                               #  AND GO TO 400 MI. RANGE CHECK IN P20.
001160:
001161:    6027                                           BLOCK    3
001162:    6000                                           SETLOC   FFTAG6
001163:    6000                                           BANK
001164:    6027                                           COUNT*   $$/R24
001165:
001166:    6027           44743        CLRADMOD           CS       BIT2                                  #  DISABLE RR ERROR CNTRS
001167:    6030           00006                           EXTEND
001168:    6031           03012                           WAND     CHAN12
001169:    6032           46037        CLRADMD1           CS       BIT10+15                              #  KNOCK DOWN DESIGNATE AND
001170:
001171:    6033     4733               REFTAG3            =        DESIGBIT
001172:    6033     4726               REFTAG4            =        CDESBIT
001173:    6033           00004                           INHINT                                         #     CONTINUOUS DESIGNATE FLAGS
001174:    6034           70110                           MASK     RADMODES
001175:    6035           54110                           TS       RADMODES
001176:    6036           00002                           TC       Q
001177:
001178:
001179:    6037           41000        BIT10+15           OCT      41000
001180:
001181:
001182: 24,3317                                           BANK     24
001183: 24,2000                                           SETLOC   P20S
001184: 24,2000                                           BANK
001185: 24,3317                                           COUNT*   $$/R24
001186:
001187: 24,3317           05355        R24LEM3            TC       PHASCHNG
001188: 24,3320           04022                           OCT      04022
001189: 24,3321           06050                           TC       KILLTASK
001190: 24,3322           55642                           CADR     CALLDGCH                              #  KILL WAITLIST FOR NEXT POINT IN PATTERN
001191: 24,3323           06027                           TC       CLRADMOD                              #  CLEAR BITS 10 + 15 OF RADMODES
001192: 24,3324           34765                           CAF      .5SEC
001193: 24,3325           04607                           TC       BANKCALL                              #  WAIT FOR DESIGNATE LOOP TO DIE
001194: 24,3326           01736                           CADR     DELAYJOB
001195: 24,3327           02751                           TC       LUNSFCHK                              #  CHECK IF ON LUNAR SURFACE
001196: 24,3330           03333                           TC       R24LEM4                               #  YES-DONT DO ATTITUDE MANEUVER
001197: 24,3331           04607                           TC       BANKCALL                              #  CALL R61 TO DO PREFERRED TRACKING
001198: 24,3332           46116                           CADR     R61LEM                                #  ATTITUDE MANEUVER
001199: 24,3333           34746        R24LEM4            CAF      ZERO                                  #  ZERO OUT RADCADR (WHICH WAS SET BY
001200: 24,3334           55303                           TS       RADCADR                               #  ENDRADAR WHEN DESIGNATE STOPPED) SO THAT
001201:                                                                                                  #  RRDESSM  WILL RETURN TO CALLER
001202: 24,3335           03301                           TC       R24LEM2                               #  AND GO BACK TO PUT UP V16 N80 DISPLAY
001203:


001205: 24,3336           04120        V16N80             VN       01680
001206:


001208:                                                                                                  #  PREFERRED TRACKING ATTITUDE ROUTINE R61LEM
001209:                                                                                                  #  PROGRAM DESCRIPTION
001210:                                                                                                  #  MOD NO : 3                      DATE : 4-11-67
001211:                                                                                                  #  MOD BY : P VOLANTE  SDC
001212:
001213:
001214:                                                                                                  #  FUNCTIONAL DESCRIPTION-
001215:                                                                                                  #    TO COMPUTE THE PREFERRED TRACKING ATTITUDE OF THE LM TO ENABLE RR
001216:                                                                                                  #  TRACKING OF THE CSM AND TO PERFORM THE MANEUVER TO THE PREFERRED
001217:                                                                                                  #  ATTITUDE.
001218:                                                                                                  #  CALLING SEQUENCE-
001219:                                                                                                  #           TC     BANKCALL
001220:                                                                                                  #           CADR   R61LEM
001221:                                                                                                  #  SUBROUTINES CALLED
001222:                                                                                                  #      LPS20.1       VECPOINT
001223:                                                                                                  #      KALCMAN3
001224:
001225:
001226:                                                                                                  #  NORMAL EXIT MODES-
001227:                                                                                                  #    NORMAL RETURN IS TO CALLER + 1
001228:                                                                                                  #  ALARM OR ABORT EXIT MODES-
001229:                                                                                                  #    TERMINATE P20 + R61 BY BRANCHING TO P20END IF BOTH TRACKFLAG +
001230:                                                                                                  #  RENDEZVOUS FLAG ARE NOT SET.
001231:                                                                                                  #  OUTPUT -
001232:                                                                                                  #    SEE OUTPUT FOR LPS20.1 + ATTITUDE MANEUVER ROUTINE (R60)
001233:                                                                                                  #  ERASABLE INITIALIZATION REQUIRED
001234:                                                                                                  #    GENRET USED TO SAVE Q FOR RETURN
001235:                                                                                                  #  FLAGS SET + RESET
001236:                                                                                                  #    3AXISFLG
001237:                                                                                                  #  DEBRIS
001238:                                                                                                  #    SEE SUBROUTINES
001239: 23,2000                                           SETLOC   R61
001240: 23,2000                                           BANK
001241: 23,2116  E7,1456                                  EBANK=   LOSCOUNT
001242: 23,2116                                           COUNT*   $$/R61
001243: 23,2116           04636        R61LEM             TC       MAKECADR
001244: 23,2117           55142                           TS       GENRET
001245: 23,2120           05506                           TC       UPFLAG                                #  SET R61 FLAG
001246: 23,2121           00024                           ADRES    R61FLAG
001247: 23,2122           02152                           TC       R61C+L02
001248: 23,2123           04636        R65LEM             TC       MAKECADR
001249: 23,2124           55142                           TS       GENRET
001250: 23,2125           05520                           TC       DOWNFLAG                              #  RESET R61 FLAG
001251: 23,2126           00024                           ADRES    R61FLAG
001252: 23,2127           34727                           CA       BIT14                                 #  RESET AGS CODE WORD (=20000).  DON'T USE
001253: 23,2130           55073                           TS       AGSCODE                               #    PGNCS DOWNLINKED RADAR DATA.
001254: 23,2131           05355        R61C+L01           TC       PHASCHNG                              #  RESTARTS DURING OR AFTER R65 WILL
001255: 23,2132           04022                           OCT      04022                                 #     RETURN HERE.
001256: 23,2133           34741                           CAF      BIT4                                  #  BYPASS RADAR READING IF DATA
001257: 23,2134           00006                           EXTEND                                         #  GOOD NOT PRESENT


001259: 23,2135           02033                           RAND     CHAN33
001260: 23,2136           10000                           CCS      A
001261: 23,2137           12152                           TCF      R61C+L02                              #  NO DATA GOOD
001262: 23,2140           04607                           TC       BANKCALL                              #  READ RR RANGE AND RDOT
001263: 23,2141           53072                           CADR     RRRDOT                                #   EVERY R65 PASS (3 TIMES
001264: 23,2142           04607                           TC       BANKCALL                              #   BEFORE FIRST MARK, ONCE
001265: 23,2143           17733                           CADR     RADSTALL                              #   DURING ANY MARK PROCESSING,
001266: 23,2144           12145                           NOOP
001267: 23,2145           04607                           TC       BANKCALL
001268: 23,2146           53074                           CADR     RRRANGE
001269: 23,2147           04607                           TC       BANKCALL
001270: 23,2150           17733                           CADR     RADSTALL
001271: 23,2151           12152                           NOOP
001272: 23,2152           34740        R61C+L02           CAF      TRACKBIT                              #  TRACKFLAG
001273: 23,2153           70075                           MASK     STATE      +1
001274: 23,2154           00006                           EXTEND
001275: 23,2155           12312                           BZF      R65WAIT                               #  NOT SET
001276: 23,2156           06060        R61C+L03           TC       INTPRET
001277: 23,2157           77775                           VLOAD
001278: 23,2160           06477                                    HIUNITZ
001279: 23,2161           03765                           STORE    SCAXIS                                #  TRACK AXIS UNIT VECTOR
001280: 23,2162           43234        R61LEM1            RTB      DAD
001281: 23,2163           21603                                    LOADTIME                              #  EXTRAPOLATE FORWARD TO CENTER
001282: 23,2164           15712                                    3SECONDS                              #  SIX SECOND PERIOD.
001283: 23,2165           34041                           STCALL   TDEC1
001284: 23,2166           51337                                    LPS20.1                               #  LOS DETERMINATION + VEH ATTITUDE
001285: 23,2167           77775                           VLOAD
001286: 23,2170           01101                                    RRTARGET
001287: 23,2171           03773                           STORE    POINTVSM
001288: 23,2172           45034                           RTB      CALL                                  #     GET DESIRED CDU'S FOR VECPNT1
001289: 23,2173           46320                                    READCDUD
001290: 23,2174           56032                                    VECPNT1                               #  COMPUTES FINAL ANGLES FROM PRESENT CDUDS
001291: 23,2175           00322                           STORE    CPHI                                  #  STORE FINAL ANGLES - CPHI,CTHETA,CPSI
001292: 23,2176           77776                           EXIT
001293: 23,2177           34740                           CAF      TRACKBIT                              #   IS TRACK FLAG SET
001294: 23,2200           70075                           MASK     FLAGWRD1
001295: 23,2201           00006                           EXTEND
001296: 23,2202           12312                           BZF      R65WAIT
001297: 23,2203           04607                           TC       BANKCALL
001298: 23,2204           54267                           CADR     G+N,AUTO                              #  CHECK FOR AUTO MODE
001299: 23,2205           10000                           CCS      A
001300: 23,2206           02300                           TC       R61C+L04                              #  NOT IN AUTO
001301: 23,2207           06060                           TC       INTPRET
001302: 23,2210           45175                           VLOAD    CALL
001303: 23,2211           01101                                    RRTARGET
001304: 23,2212           47640                                    CDU*SMNB
001305: 23,2213           45345                           DLOAD    DSU                                   #  GET PHI - ARCCOS OF Z-COMPONENT OF LOS
001306: 23,2214           00162                                    MPAC       +5
001307: 23,2215           06316                                    COS15DEG
001308: 23,2216           77440        R61LEM2            BMN      EXIT                                  #  BRANCH - PHI > 15 DEGREES


001310: 23,2217           46234                                    R61C+L05                              #  PHI GRE 10DEG
001311: 23,2220  E6,1634                                  EBANK=   CDUXD
001312: 23,2220           35006                           CAF      EBANK6
001313: 23,2221           54003                           TS       EBANK
001314: 23,2222           00004                           INHINT
001315: 23,2223           00006                           EXTEND
001316: 23,2224           30322                           DCA      CPHI
001317: 23,2225           53635                           DXCH     CDUXD
001318: 23,2226           30323                           CA       CPSI
001319: 23,2227           55636                           TS       CDUZD
001320: 23,2230           00003                           RELINT
001321: 23,2231  E7,1456                                  EBANK=   LOSCOUNT
001322: 23,2231           35007                           CAF      EBANK7
001323: 23,2232           54003                           TS       EBANK
001324: 23,2233           02257                           TC       R61C+L06
001325: 23,2234           77776        R61C+L05           EXIT
001326: 23,2235           00004                           INHINT
001327: 23,2236           04665                           TC       IBNKCALL
001328: 23,2237           40154                           FCADR    ZATTEROR
001329: 23,2240           04665                           TC       IBNKCALL
001330: 23,2241           40141                           FCADR    SETMINDB                              #  REDUCE ATTITUDE ERROR
001331: 23,2242           05520                           TC       DOWNFLAG
001332: 23,2243           00124                           ADRES    3AXISFLG
001333: 23,2244           05506                           TC       UPFLAG
001334: 23,2245           00114                           ADRES    PDSPFLAG                              #  SET PRIORITY DISPLAY FLAG
001335: 23,2246           04607                           TC       BANKCALL
001336: 23,2247           54125                           CADR     R60LEM
001337: 23,2250           00004                           INHINT
001338: 23,2251           04665                           TC       IBNKCALL
001339: 23,2252           40115                           FCADR    RESTORDB
001340: 23,2253           05355                           TC       PHASCHNG
001341: 23,2254           04022                           OCT      04022
001342: 23,2255           05520                           TC       DOWNFLAG
001343: 23,2256           00114                           ADRES    PDSPFLAG                              #  RESET PRIORITY DISPLAY FLAG
001344: 23,2257           30075        R61C+L06           CA       FLAGWRD1
001345: 23,2260           74733                           MASK     R61FLBIT
001346: 23,2261           10000                           CCS      A
001347: 23,2262           02303                           TC       R61C+L4
001348: 23,2263           11745                           CCS      R65CNTR
001349: 23,2264           02266                           TC       +2
001350: 23,2265           02303                           TC       R61C+L4                               #  R65CNTR = 0 - EXIT ROUTINE
001351: 23,2266           55745                           TS       R65CNTR
001352: 23,2267           32317                           CAF      06SEC
001353: 23,2270           05175                           TC       TWIDDLE
001354: 23,2271           02273                           ADRES    R61C+L2
001355: 23,2272           05146                           TC       ENDOFJOB
001356: 23,2273           37735        R61C+L2            CAF      PRIO26
001357: 23,2274           05076                           TC       FINDVAC
001358: 23,2275  E7,1456                                  EBANK=   LOSCOUNT
001359: 23,2275           02131 46067                     2CADR    R61C+L01
001360:


001362: 23,2277           05263                           TC       TASKOVER
001363: 23,2300           04607        R61C+L04           TC       BANKCALL                              #  TO CONVERT ANGLES TO FDAI
001364: 23,2301           54300                           CADR     BALLANGS
001365: 23,2302           02257                           TC       R61C+L06
001366: 23,2303           31142        R61C+L4            CAE      GENRET
001367: 23,2304           14631                           TCF      BANKJUMP                              #  EXIT R61
001368: 23,2305           32314        R61C+L1            CAF      BIT7+9PV                              #  IS RENDEZVOUS OR P25FLAG SET
001369: 23,2306           70074                           MASK     STATE
001370: 23,2307           00006                           EXTEND
001371: 23,2310           15146                           BZF      ENDOFJOB                              #  NO-EXIT ROUTINE AND PROGRAM.
001372: 23,2311           02257                           TC       R61C+L06                              #  YES EXIT ROUTINE
001373: 23,2312           04626        R65WAIT            TC       POSTJUMP
001374: 23,2313           50310                           CADR     P20LEMWT
001375:
001376:
001377: 23,2314           00500        BIT7+9PV           OCT      00500
001378: 23,2315           17350 34602  COS15DEG           2DEC     0.96593    B-1
001379:
001380: 23,2317           01130        06SEC              DEC      600        B-14
001381: 23,2320                        PHI                EQUALS   20D
001382: 23,2320           00004        READCDUD           INHINT                                         #  READS DESIRED CDU'S AND STORES IN
001383: 23,2321           35006                           CAF      EBANK6                                #  MPAC TP EXITS WITH MODE SET TO TP
001384: 23,2322           56003                           XCH      EBANK
001385: 23,2323           54070                           TS       RUPTREG1
001386: 23,2324  E6,1634                                  EBANK=   CDUXD
001387: 23,2324           31634                           CA       CDUXD
001388: 23,2325           54154                           TS       MPAC
001389: 23,2326           00006                           EXTEND
001390: 23,2327           31636                           DCA      CDUYD
001391: 23,2330           52156                           DXCH     MPAC       +1
001392: 23,2331           30070                           CA       RUPTREG1
001393: 23,2332           54003                           TS       EBANK
001394: 23,2333           00003                           RELINT
001395: 23,2334           16520                           TCF      TMODE
001396:    4503                                           BLOCK    02
001397:    4000                                           SETLOC   RADARFF
001398:    4000                                           BANK
001399:
001400:    4503  E7,1456                                  EBANK=   LOSCOUNT
001401:    4503                                           COUNT*   $$/RRSUB
001402:


001404:                                                                                                  #  THE FOLLOWING SUBROUTINE RETURNS TO CALLER + 2 IF THE ABSOLUTE VALUE OF VALUE OF C(A) IS GREATER THAN THE
001405:                                                                                                  #  NEGATIVE OF THE NUMBER AT CALLER +1. OTHERWISE IT RETURNS TO CALLER +3. MAY BE CALLED IN RUPT OR UNDER EXEC.
001406:
001407:    4503           00006        MAGSUB             EXTEND
001408:    4504           64506                           BZMF     +2
001409:    4505           14507                           TCF      +2
001410:    4506           40000                           COM
001411:
001412:    4507           50002                           INDEX    Q
001413:    4510           60000                           AD       0
001414:    4511           00006                           EXTEND
001415:    4512           66762                           BZMF     Q+2                                   #  ABS(A) <= CONST GO TO L+3
001416:    4513           16760                           TCF      Q+1                                   #  ABS(A) >  CONST GO TO L+2
001417:


001419:                                                                                                  #  PROGRAM NAME_  RRLIMCHK                                                  ARE IN THE LIMITS OF THE CURRENT MODE.
001420:
001421:                                                                                                  #  FUNCTIONAL DESCRIPTION_
001422:                                                                                                  #  RRLIMCHK CHECKS RR DESIRED GIMBAL ANGLES TO SEE IF THEY ARE WITHIN
001423:                                                                                                  #  THE LIMITS OF THE CURRENT MODE. INITIALLY THE DESIRED TRUNNION AND
001424:                                                                                                  #  SHAFT ANGLES ARE STORED IN ITEMP1 AND ITEMP2. THE CURRENT RR
001425:                                                                                                  #  ANTENNAE MODE (RADMODES BIT 12) IS CHECKED WHICH IS = 0 FOR
001426:                                                                                                  #  MODE 1 AND =1 FOR MODE 2.
001427:                                                                                                  #  MODE 1 - THE TRUNNION ANGLE IS CHECKED AT MAGSUB TO SEE IF IT IS
001428:                                                                                                  #  BETWEEN -55 AND +55 DEGREES. IF NOT, RETURN TO L +2. IF WITHIN LIMITS,
001429:                                                                                                  #  THE SHAFT ANGLE IS CHECKED TO SEE IF IT IS BETWEEN -70 AND +59 DEGREES.
001430:                                                                                                  #  IF NOT, RETURN TO L +2. IF IN LIMITS, RETURN TO L +3.
001431:                                                                                                  #  MODE 2 - THE SHAFT ANGLE IS CHECKED AT MAGSUB TO SEE IF IT IS
001432:                                                                                                  #  BETWEEN -139 AND -25 DEGREES. IF NOT, RETURN TO L +2. IF WITHIN
001433:                                                                                                  #  LIMITS, THE TRUNNION ANGLE IS CHECKED TO SEE IF IT IS BETWEEN +125
001434:                                                                                                  #  AND -125 (+235) DEGREES. IF NOT, RETURN TO L +2. IF IN LIMITS, RETURN
001435:                                                                                                  #  TO L +3.
001436:
001437:                                                                                                  #  CALLING SEQUENCE:
001438:                                                                                                  #  L  TC  RRLIMCHK (WITH INTERRUPT INHIBITED)
001439:                                                                                                  #  L +1  ADRES T,S  (DESIRED TRUNNION ANGLE ADDRESS)
001440:
001441:                                                                                                  #  ERASABLE INITIALIZATION REQUIRED:
001442:                                                                                                  #  RADMODES, MODEA, MODEB (OR DESIRED TRUNNION AND SHAFT
001443:                                                                                                  #  ANGLES ELSEWHERE IN CONSECUTIVE LOCATIONS - UNSWITCHED ERASABLE OR
001444:                                                                                                  #  CURRENT EBANK).
001445:
001446:                                                                                                  #  SUBROUTINES CALLED_  MAGSUB
001447:
001448:                                                                                                  #  JOBS OR TASKS INITIATED_  NONE
001449:
001450:                                                                                                  #  ALARMS_  NONE
001451:
001452:                                                                                                  #  EXIT_  L + 2 (EITHER OR BOTH ANGLES NOT WITHIN LIMITS OF CURRENT MODE)
001453:                                                                                                  #  L + 3 (BOTH ANGLES WITHIN LIMITS OF CURRENT MODE)
001454:
001455:    4514           00006        RRLIMCHK           EXTEND
001456:    4515           50002                           INDEX    Q
001457:    4516           50000                           INDEX    0
001458:    4517           30001                           DCA      0
001459:    4520           24002                           INCR     Q
001460:    4521           52062                           DXCH     ITEMP1
001461:    4522           22002                           LXCH     Q                                     #  L(CALLER +2) TO L.
001462:
001463:    4523           34731                           CAF      ANTENBIT                              #  SEE WHICH MODE RR IS IN.
001464:    4524           70110                           MASK     RADMODES
001465:    4525           10000                           CCS      A
001466:    4526           14541                           TCF      MODE2CHK
001467:
001468:    4527           30061                           CA       ITEMP1                                #  MODE 1 IS DEFINED AS


001470:    4530           04503                           TC       MAGSUB                                #      1. ABS(T) L 55 DEGS.
001471:    4531           66161                           DEC      -.30555                               #      2. ABS(S + 5.5 DEGS) L 64.5 DEGS
001472:    4532           00001                           TC       L                                     #          (SHAFT LIMITS AT +59, -70 DEGS)
001473:
001474:    4533           34553                           CAF      5.5DEGS
001475:    4534           60062                           AD       ITEMP2                                #  S
001476:    4535           04503                           TC       MAGSUB
001477:    4536           64420                           DEC      -.35833                               #  64.5 DEGS
001478:    4537           00001                           TC       L
001479:    4540           04551                           TC       RRLIMOK                               #  IN LIMITS.
001480:
001481:    4541           34554        MODE2CHK           CAF      82DEGS                                #  MODE 2 IS DEFINED AS
001482:    4542           60062                           AD       ITEMP2                                #      1. ABS(T) G 125 DEGS.
001483:    4543           04503                           TC       MAGSUB                                #      2. ABS(S + 82 DEGS) L 57 DEGS
001484:    4544           65673                           DEC      -.31667                               #          (SHAFT LIMITS AT -25, -139 DEGS)
001485:    4545           00001                           TC       L
001486:
001487:    4546           30061                           CA       ITEMP1
001488:    4547           04503                           TC       MAGSUB
001489:    4550           51615                           DEC      -.69444                               #  125 DEGS
001490:
001491:    4551           50001        RRLIMOK            INDEX    L
001492:    4552           00001                           TC       L                                     #  ( = TC 1)
001493:
001494:    4553           00765        5.5DEGS            DEC      .03056
001495:    4554           16450        82DEGS             DEC      .45556
001496:


001498:                                                                                                  #  PROGRAM NAME_  SETTRKF                                                  . IF EITHER:
001499:
001500:                                                                                                  #  FUNCTIONAL DESCRIPTION_
001501:                                                                                                  #  SETTRKF UPDATES THE TRACKER FAIL LAMP ON THE DSKY.                      HER THE ALT OR VEL INFORMATION.
001502:                                                                                                  #  INITIALLY THE LAMP TEST FLAG (IMODES33 BIT 1) IS CHECKED.
001503:                                                                                                  #  IF A LAMP TEST IS IN PROGRESS, THE PROGRAM EXITS TO L +1.
001504:                                                                                                  #  IF NO LAMP TEST THE FOLLOWING IS CHECKED SEQUENTIALLY_
001505:                                                                                                  #  1) RR CDU:S BEING ZEROED, RR CDU OK, AND RR NOT IN
001506:                                                                                                  #  AUTO MODE (RADMODES BITS 13, 7, 2).
001507:                                                                                                  #  2) LR VEL DATA FAIL AND NO LR POS DATA (RADMODES BITS
001508:                                                                                                  #  8,5)
001509:                                                                                                  #  3) NO RR DATA (RADMODES BIT 4)
001510:                                                                                                  #  THE ABSENCE OF ALL THREE SIMULTANEOUSLY IN (1), THE PRESENCE OF BOTH
001511:                                                                                                  #  IN (2), AND THE PRESENCE OF (3) RESULTS IN EITHER THE TRACKER FAIL
001512:                                                                                                  #  LAMP (DSPTAB +11D BIT 8) BEING TURNED ON OR LEFT ON. OTHERWISE,
001513:                                                                                                  #  THE TRACKER FAIL LAMP IS TURNED OFF OR IS LEFT OFF. THEREFORE, THE
001514:                                                                                                  #  TRACKER FAIL LAMP IS TURNED ON IF_
001515:                                                                                                  #  A ) RR CDU FAILED WITH RR IN AUTO MODE AND RR CDU:S NOT BEING ZEROED.
001516:                                                                                                  #  B) N SAMPLES OF LR DATA COULD NOT BE TAKEN IN 2N TRIES WITH
001517:                                                                                                  #  EITHER THE ALT OR VEL INFORMATION
001518:                                                                                                  #  C) N SAMPLES OF RR DATA COULD NOT BE OBTAINED FROM 2N TRIES
001519:                                                                                                  #  WITH EITHER THE AL
001520:
001521:                                                                                                  #  CALLING SEQUENCE:
001522:                                                                                                  #  L  TC  SETTRKF
001523:
001524:                                                                                                  #  ERASABLE INITIALIZATION REQUIRED: IMODES33, RADMODES, DSPTAB +11D
001525:                                                                                                  #  SUBROUTINES CALLED_  NONE
001526:
001527:                                                                                                  #  JOBS OR TASKS INITIATED_  NONE
001528:
001529:                                                                                                  #  ALARMS_  TRACKER FAIL LAMP
001530:
001531:                                                                                                  #  EXIT_  L +1 (ALWAYS)                                                         ED.
001532:
001533:    4555           34744        SETTRKF            CAF      BIT1                                  #  NO ACTION IF DURING LAMP TEST.
001534:    4556           71300                           MASK     IMODES33
001535:    4557           10000                           CCS      A
001536:    4560           00002                           TC       Q
001537:
001538:    4561           34735        RRTRKF             CA       BIT8
001539:    4562           54001                           TS       L
001540:
001541:    4563           34606                           CAF      13,7,2                                #  SEE IF CDU FAILED.
001542:    4564           70110                           MASK     RADMODES
001543:    4565           00006                           EXTEND
001544:    4566           14572                           BZF      TRKFLON                               #  CONDITION 3 ABOVE.
001545:
001546:    4567           34741        RRCHECK            CAF      RRDATABT                              #  SEE IF RR DATA FAILED.
001547:    4570           70110                           MASK     RADMODES


001549:    4571           10000                           CCS      A
001550:    4572           30001        TRKFLON            CA       L
001551:    4573           61035                           AD       DSPTAB     +11D                       #  HALF ADD DESIRED AND PRESENT STATES.
001552:    4574           70001                           MASK     L
001553:    4575           00006                           EXTEND
001554:    4576           16763                           BZF      TCQ                                   #  NO CHANGE.
001555:
001556:    4577           31035        FLIP               CA       DSPTAB     +11D                       #  CANT USE LXCH DSPTAB +11D (RESTART PROB)
001557:    4600           00006                           EXTEND
001558:    4601           06001                           RXOR     LCHAN
001559:    4602           74724                           MASK     POSMAX
001560:    4603           64726                           AD       BIT15
001561:    4604           55035                           TS       DSPTAB     +11D
001562:    4605           00002                           TC       Q
001563:
001564:    4606           10102        13,7,2             OCT      10102
001565:    4607                        ENDRMODF           EQUALS
001566:


001568:                                                                                                  #  PROGRAM NAME_  RRTURNON


001570:
001571:                                                                                                  #  FUNCTIONAL DESCRIPTION_
001572:
001573:                                                                                                  #  RRTURNON IS THE TURN-ON SEQUENCE WHICH, ALONG WTIH
001574:                                                                                                  #  RRZEROSB, ZEROS THE CDU:S AND DETERMINES THE RR MODE.
001575:                                                                                                  #  INITIALLY, CONTROL IS TRANSFERRED TO RRZEROSB FOR THE
001576:                                                                                                  #  ACTUAL TURN-ON SEQUENCE. UPON RETURN THE PROGRAM
001577:                                                                                                  #  WAITS 1 SECOND BEFORE REMOVING THE TURN-ON FLAG
001578:                                                                                                  #  (RADMODES BIT1) SO THE REPOSITION ROUTINE WON:T
001579:                                                                                                  #  INITIATE PROGRAM ALARM 00501. A CHECK IS THEN MADE
001580:                                                                                                  #  TO SEE IF A PROGRAM IS USING THE RR (STATE BIT 7). IF
001581:                                                                                                  #  SO, THE PROGRAM EXITS TO ENDRADAR SO THAT THE RR CDU
001582:                                                                                                  #  FAIL FLAG (RADMODES BIT 7) CAN BE CHECKED BEFORE
001583:                                                                                                  #  RETURNING TO THE WAITING PROGRAM. IF NOT, THE PROGRAM EXITS
001584:                                                                                                  #  TO TASKOVER.
001585:
001586:                                                                                                  #  CALLING SEQUENCE: WAITLIST TASK FROM RRAUTCHK IF THE RR POWER ON AUTO
001587:                                                                                                  #  BIT (CHAN 33 BIT 2) CHANGES TO 0 AND NO PROGRAM WAS USING
001588:                                                                                                  #  THE RR (STATE BIT 7).
001589:
001590:                                                                                                  #  ERASABLE INITIALIZATION REQUIRED:
001591:                                                                                                  #  RADMODES, STATE
001592:
001593:                                                                                                  #  SUBROUTINES CALLED_  RRZEROSB, FIXDELAY, TASKOVER, ENDRADAR
001594:
001595:                                                                                                  #  JOBS OR TASKS INITIATED_
001596:                                                                                                  #  NONE
001597:
001598:                                                                                                  #  ALARMS_  NONE (SEE RRZEROSB)
001599:
001600:                                                                                                  #  EXIT_  TASKOVER, ENDRADAR (WAITING PROGRAM)
001601:
001602: 24,3337                                           BANK     24
001603: 25,2000                                           SETLOC   P20S1
001604: 25,2000                                           BANK
001605:
001606: 25,2053  E7,1456                                  EBANK=   LOSCOUNT
001607: 25,2053                                           COUNT*   $$/RSUB
001608: 25,2053           02062        RRTURNON           TC       RRZEROSB
001609: 25,2054           05223                           TC       FIXDELAY                              #  WAIT 1 SEC BEFORE REMOVING TURN ON FLAG
001610: 25,2055           00144                           DEC      100        B-14                       #  SO A MONITOR REPOSITION WONT ALARM.
001611: 25,2056           44744                           CS       TURNONBT
001612: 25,2057           70110                           MASK     RADMODES
001613: 25,2060           54110                           TS       RADMODES
001614: 25,2061           15263                           TCF      TASKOVER
001615:


001617:                                                                                                  #  PROGRAM NAME_  RRZEROSB
001618:
001619:                                                                                                  #  FUNCTIONAL DESCRIPTION_
001620:                                                                                                  #  RRZEROSB IS A CLOSED SUBROUTINE TO ZERO THE RR CDU:S,
001621:                                                                                                  #  DETERMINE THE RR MODE, AND TURNS ON THE TRACKER FAIL
001622:                                                                                                  #  LAMP IF REQUIRED. INITIALLY THE RR CDU ZERO BIT (CHAN 12
001623:                                                                                                  #  BIT 1) IS SET. FOLLOWING A 20 MILLISECOND WAIT, THE LGC
001624:                                                                                                  #  RR CDU COUNTERS (OPTY, OPTX) ARE SET = 0 AFTER
001625:                                                                                                  #  WHICH THE RR CDU ZERO DISCRETE (CHAN 12 BIT 1) IS
001626:                                                                                                  #  REMOVED. A 4 SECOND WAIT IS SET TO ALL THE RR CDU:S
001627:                                                                                                  #  TO REPEAT THE ACTUAL TRUNNION AND SHAFT ANGLES. THE
001628:                                                                                                  #  RR CDU ZERO FLAG (RADMODES BIT 13) IS REMOVED. THE
001629:                                                                                                  #  CONTENTS OF OPTY IS THEN CHECKED TO SEE IF THE TRUNNION
001630:                                                                                                  #  ANGLE IS LESS THAN 90 DEGREES. IF NOT, BIT 12 OF
001631:                                                                                                  #  RADMODES IS SET = 1 TO INDICATE RR ANTENNA MODE 2.
001632:                                                                                                  #  IF LESS THAN 90 DEGREES, BIT 12 OF RADMODES IS SET = 0 TO
001633:                                                                                                  #  INDICATE RR ANTENNA MODE 1. SETTRKF IS THEN CALLED TO
001634:                                                                                                  #  SEE IF THE TRACKER FAIL LAMP SHOULD BE TURNED ON.
001635:
001636:                                                                                                  #  CALLING SEQUENCE: L  TC  RRZEROSB (FROM RRTURNON AND RRZERO)
001637:                                                                                                  #  ERASABLE INITIALIZATION REQUIRED:
001638:                                                                                                  #  RADMODES (BIT 13 SET), DSPTAB +11D
001639:
001640:                                                                                                  #  SUBROUTINES CALLED_  FIXDELAY, MAGSUB, SETTRKF
001641:
001642:                                                                                                  #  JOBS OR TASKS INITIATED_
001643:                                                                                                  #  NONE
001644:
001645:                                                                                                  #  ALARMS_  TRACKER FAIL
001646:
001647:                                                                                                  #  EXIT_  L +1 (ALWAYS)
001648:
001649: 25,2062           00006        RRZEROSB           EXTEND
001650: 25,2063           23312                           QXCH     RRRET
001651: 25,2064           34744                           CAF      BIT1                                  #  BIT 13 OF RADMODES MUST BE SET BEFORE
001652: 25,2065           00006                           EXTEND                                         #  COMING HERE.
001653: 25,2066           05012                           WOR      CHAN12                                #  TURN ON ZERO RR CDU
001654: 25,2067           05223                           TC       FIXDELAY
001655: 25,2070           00002                           DEC      2          B-14
001656:
001657: 25,2071           34746                           CAF      ZERO
001658: 25,2072           54035                           TS       CDUT
001659: 25,2073           54036                           TS       CDUS
001660: 25,2074           44744                           CS       ONE                                   #  REMOVE ZEROING BIT.
001661: 25,2075           00006                           EXTEND
001662: 25,2076           03012                           WAND     CHAN12
001663: 25,2077           05223                           TC       FIXDELAY
001664: 25,2100           01750                           DEC      1000       B-14                       #  RESET FAIL INHIBIT IN 10 SECS - D.281
001665:
001666: 25,2101           44730                           CS       RCDU0BIT                              #  REMOVE ZEROING IN PROCESS BIT.


001668: 25,2102           70110                           MASK     RADMODES
001669: 25,2103           54110                           TS       RADMODES
001670:
001671: 25,2104           30035                           CA       CDUT
001672: 25,2105           04503                           TC       MAGSUB
001673: 25,2106           57777                           DEC      -.5
001674: 25,2107           12112                           TCF      +3                                    #  IF MODE 2.
001675:
001676: 25,2110           34746                           CAF      ZERO
001677: 25,2111           12113                           TCF      +2
001678: 25,2112           34731                           CAF      ANTENBIT
001679: 25,2113           56110                           XCH      RADMODES
001680: 25,2114           77762                           MASK     -BIT12
001681: 25,2115           26110                           ADS      RADMODES
001682:
001683: 25,2116           04555                           TC       SETTRKF                               #  TRACKER LAMP MIGHT GO ON NOW.
001684:
001685: 25,2117           01312                           TC       RRRET                                 #  DONE.
001686:
001687: 25,2120     7762               -BIT12             EQUALS   -1/8                                  #  IN SPROOT
001688:


001690:                                                                                                  #  PROGRAM NAME_  DORREPOS
001691:                                                                                                  #  FUNCTIONAL DESCRIPTION_
001692:                                                                                                  #  DORREPOS IS A SEQUENCE OF TASKS TO DRIVE THE RENDEZVOUS RADAR
001693:                                                                                                  #  TO A SAFE POSITION. INITIALLY SETRRECR IS CALLED WHERE THE RR
001694:                                                                                                  #  ERROR COUNTERS (CHAN 12 BIT 2) ARE ENABLED AND LASTYCMD
001695:                                                                                                  #  AND LASTXCMD SET = 0 TO INDICATE THE DIFFERENCE BETWEEN THE
001696:                                                                                                  #  DESIRED STATE AND PRESENT STATE OF THE COMMANDS. THE RR
001697:                                                                                                  #  TURN-ON FLAG (RADMODES BIT 1) IS CHECKED AND IF NOT PRESENT,
001698:                                                                                                  #  PROGRAM ALARM 00501 IS REQUESTED BEFORE CONTINUING. IN EITHER
001699:                                                                                                  #  CASE, FOLLOWING A 20 MILLISECOND WAIT THE PROGRAM CHECKS THE CURRENT
001700:                                                                                                  #  RR ANTENNA MODE (RADMODES BIT 12). RRTONLY IS THEN CALLED
001701:                                                                                                  #  TO DRIVE THE TRUNNION ANGLE TO 0 DEGREES IF IN MODE 1 AND TO 180
001702:                                                                                                  #  DEGREES IF IN MODE 2. UPON RETURN, THE CURRENT RR ANTENNA
001703:                                                                                                  #  MODE (RADMODES BIT 12) IS AGAIN CHECKED. RRSONLY IS THEN
001704:                                                                                                  #  CALLED TO DRIVE THE SHAFT ANGLE TO 0 DEGREES IF IN MODE 1 AND TO
001705:                                                                                                  #  -90 DEGREES IF IN MODE 2. IF DURING RRTONLY OR RRSONLY A
001706:                                                                                                  #  REMODE HAS BEEN REQUESTED (RADMODES BIT 14), AND ALWAYS
001707:                                                                                                  #  FOLLOWING COMPLETION OF RRSONLY, CONTROL IS TRANSFERRED TO
001708:                                                                                                  #  REPOSRPT. HERE THE REPOSITION FLAG (RADMODES BIT 11) IS
001709:                                                                                                  #  REMOVED. A CHECK IS THEN MADE ON THE DESIGNATE FLAG (RADMODES
001710:                                                                                                  #  BIT 10). IF PRESENT, CONTROL IS TRANSFERRED TO BEGDES. IF NOT PRESENT
001711:                                                                                                  #  INDICATING NO FURTHER ANTENNA CONTROL REQUIRED, THE RR ERROR
001712:                                                                                                  #  COUNTER BIT (CHAN 12 BIT 2) IS REMOVED AND THE ROUTINE EXITS TO
001713:                                                                                                  #  TASKOVER.
001714:
001715:                                                                                                  #  CALLING SEQUENCE:
001716:                                                                                                  #  WAITLIST CALL FROM RRGIMON IF TRUNNION AND SHAFT CDU ANGLES
001717:                                                                                                  #  NOT WITHIN LIMITS OF CURRENT MODE.
001718:
001719:                                                                                                  #  ERASABLE INITIALIZATION REQUIRED:
001720:                                                                                                  #  RADMODES
001721:
001722:                                                                                                  #  SUBROUTINES CALLED_
001723:                                                                                                  #  RRTONLY, RRSONLY, BEGDES (EXIT)
001724:
001725:                                                                                                  #  JOBS OR TASKS INITIATED_
001726:                                                                                                  #  NONE
001727:
001728:                                                                                                  #  ALARMS-  NONE
001729:
001730:                                                                                                  #  EXIT_  TASKOVER, BEGDES
001731:
001732: 25,2120           02147        DORREPOS           TC       SETRRECR                              #  SET UP RR CDU ERROR COUNTERS.
001733:
001734:                                                                                                  #  ALARM 501 DELETED IN DANCE 279 PER PCR 97.
001735:
001736: 25,2121           05223                           TC       FIXDELAY
001737: 25,2122           00002                           DEC      2          B-14
001738:
001739: 25,2123           34731                           CAF      ANTENBIT                              #  MANEUVER TRUNNION ANGLE TO NOMINAL POS.


001741: 25,2124           70110                           MASK     RADMODES
001742: 25,2125           10000                           CCS      A
001743: 25,2126           34726                           CAF      BIT15                                 #  0 FOR MODE 1 AND 180 FOR MODE 2.
001744: 25,2127           02232                           TC       RRTONLY
001745:
001746: 25,2130           34731                           CAF      ANTENBIT                              #  NOW PUT SHAFT IN RIGHT POSITION
001747: 25,2131           70110                           MASK     RADMODES
001748: 25,2132           10000                           CCS      A
001749: 25,2133           44727                           CS       HALF                                  #  -90 FOR MODE 2.
001750: 25,2134           02235                           TC       RRSONLY
001751:
001752: 25,2135           44732        REPOSRPT           CS       REPOSBIT                              #  RETURNS HERE FROM RR1AXIS IF REMODE
001753:                                                                                                  #  REQUESTED DURING REPOSITION.
001754: 25,2136           70110                           MASK     RADMODES                              #  REMOVE REPOSITION BIT.
001755: 25,2137           54110                           TS       RADMODES
001756: 25,2140           74733                           MASK     DESIGBIT                              #  SEE IF SOMEONE IS WAITING TO DESIGNATE.
001757: 25,2141           10000                           CCS      A
001758: 25,2142           12564                           TCF      BEGDES
001759: 25,2143           44743                           CS       BIT2                                  #  IF NO FURTHER ANTENNA CONTROL REQUIRED,
001760: 25,2144           00006                           EXTEND                                         #  REMOVE ERROR COUNTER ENABLE.
001761: 25,2145           03012                           WAND     CHAN12
001762: 25,2146           15263                           TCF      TASKOVER
001763:
001764: 25,2147           34743        SETRRECR           CAF      BIT2                                  #  SET UP RR ERROR COUNTERS.
001765: 25,2150           00006                           EXTEND
001766: 25,2151           02012                           RAND     CHAN12
001767: 25,2152           10000                           CCS      A                                     #  DO NOT CLEAR LAST COMMAND IF
001768: 25,2153           00002                           TC       Q                                     #  ERROR COUNTERS ARE ENABLED.
001769:
001770: 25,2154           54112                           TS       LASTYCMD
001771: 25,2155           54113                           TS       LASTXCMD
001772: 25,2156           34743                           CAF      BIT2
001773: 25,2157           00006                           EXTEND
001774: 25,2160           05012                           WOR      CHAN12                                #  ENABLE RR CDU ERROR COUNTERS.
001775: 25,2161           00002                           TC       Q


001777:                                                                                                  #  PROGRAM NAME_  REMODE                                                   IVES SHAFT TO -45, AND FINALLY DRIVES
001778:
001779:                                                                                                  #  FUNCTIONAL DESCRIPTION_                                                 S DONE WITH SINGLE AXIS ROTATIONS (SEE
001780:                                                                                                  #  REMODE IS THE GENERAL REMODING SUBROUTINE. IT DRIVES THE
001781:                                                                                                  #  TRUNNION ANGLE TO 0 DEGREES IF THE CURRENT MODE IS MODE 1,
001782:                                                                                                  #  180 DEGREES FOR MODE 2, THEN DRIVES THE SHAFT ANGLE TO -45
001783:                                                                                                  #  DEGREES, AND FINALLY DRIVES THE TRUNNION ANGLE TO -130 DEGREES,
001784:                                                                                                  #  TO PLACE THE RR IN MODE 2, -50 DEGREES FOR MODE 1, BEFORE
001785:                                                                                                  #  INITIATING 2-AXIS CONTROL. ALL REMODING IS DONE WITH SINGLE
001786:                                                                                                  #  AXIS ROTATIONS (RR1AXIS). INITIALLY THE RR ANTENNA MODE FLAG
001787:                                                                                                  #  (RADMODES BIT 12) IS CHECKED. CONTROL IS THEN TRANSFERRED TO
001788:                                                                                                  #  RRTONLY TO DRIVE THR TRUNNION ANGLE TO 0 DEGREES IF IN MODE 1
001789:                                                                                                  #  OR 180 DEGREES IF IN MODE 2. RRSONLY IS THEN CALLED TO DRIVE
001790:                                                                                                  #  THE SHAFT ANGLE TO -45 DEGREES. THE RR ANTENNA MODE FLAG
001791:                                                                                                  #  (RADMODES BIT 12) IS CHECKED AGAIN. CONTROL IS AGAIN
001792:                                                                                                  #  TRANSFERRED TO RRTONLY TO DRIVE THE TRUNNION ANGLE TO -130
001793:                                                                                                  #  DEGREES TO PLACE THE RR IN MODE 2 IF CURRENTLY IN MODE 1 OR TO
001794:                                                                                                  #  -50 DEGREES IF IN MODE 2 TO PLACE THE RR IN MODE 1. RMODINV
001795:                                                                                                  #  IS THEN CALLED TO SET RADMODES BIT 12 TO INDICATE THE NEW
001796:                                                                                                  #  RR ANTENNA MODE. THE REMODE FLAG (RADMODES BIT 14)
001797:                                                                                                  #  IS REMOVED TO INDICATE THAT REMODING IS COMPLETE. THE PROGRAM
001798:                                                                                                  #  THEN EXITS TO STDESIG TO BEGIN 2-AXIS CONTROL.
001799:
001800:                                                                                                  #  CALLING SEQUENCE:
001801:                                                                                                  #  FROM BEGDES WHEN REMODE FLAG (RADMODES BIT 14) IS SET.
001802:                                                                                                  #  THIS FLAG MAY BE SET IN RRDESSM AND RRDESNB IF RRLIMCHK
001803:                                                                                                  #  DETERMINES THAT THE DESIRED ANGLES ARE WITHIN THE LIMITS OF THE
001804:                                                                                                  #  OTHER MODE.
001805:
001806:                                                                                                  #  ERASABLE INITIALIZATION REQUIRED:
001807:                                                                                                  #  RADMODES
001808:
001809:                                                                                                  #  SUBROUTINES CALLED_
001810:                                                                                                  #  RRTONLY, RRSONLY, RMODINV (ACTUALLY PART OF)
001811:
001812:                                                                                                  #  JOBS OR TASKS INITIATED_
001813:                                                                                                  #  NONE
001814:
001815:                                                                                                  #  ALARMS_  NONE
001816:
001817:                                                                                                  #  EXIT_  STDESIG
001818:
001819: 25,2162           34731        REMODE             CAF      ANTENBIT                              #  DRIVE TRUNNION TO 0 (180)
001820: 25,2163           70110                           MASK     RADMODES                              #  (ERROR COUNTER ALREADY ENABLED)
001821: 25,2164           10000                           CCS      A
001822: 25,2165           34726                           CAF      BIT15
001823: 25,2166           02232                           TC       RRTONLY
001824:
001825: 25,2167           37761                           CAF      -45DEGSR
001826: 25,2170           02235                           TC       RRSONLY


001828: 25,2171           40110                           CS       RADMODES
001829: 25,2172           74731                           MASK     ANTENBIT
001830: 25,2173           10000                           CCS      A
001831: 25,2174           32223                           CAF      -80DEGSR                              #  GO TO T = -130 (-50).
001832: 25,2175           62222                           AD       -50DEGSR
001833: 25,2176           02232                           TC       RRTONLY
001834:
001835: 25,2177           40110                           CS       RADMODES
001836: 25,2200           74731                           MASK     ANTENBIT
001837: 25,2201           10000                           CCS      A
001838: 25,2202           34726                           CAF      BIT15                                 #  GO TO T = -180 (+0).
001839: 25,2203           02232                           TC       RRTONLY
001840:
001841: 25,2204           40110                           CS       RADMODES                              #  GO TO S = -90 (+0).
001842: 25,2205           74731                           MASK     ANTENBIT
001843: 25,2206           10000                           CCS      A
001844: 25,2207           44727                           CS       HALF
001845: 25,2210           02235                           TC       RRSONLY
001846:
001847: 25,2211           02224                           TC       RMODINV
001848: 25,2212           44727                           CS       REMODBIT                              #  END OF REMODE.
001849: 25,2213           70110                           MASK     RADMODES
001850: 25,2214           54110                           TS       RADMODES
001851:
001852: 25,2215           34733                           CAF      DESIGBIT                              #  WAS REMODE CALLED DURING DESIGNATE?
001853: 25,2216           70110                           MASK     RADMODES                              #  (BIT10 RADMODES = 1)
001854: 25,2217           00006                           EXTEND
001855: 25,2220           13616                           BZF      RGOODEND                              #  NO-RETURN TO CALLER WAITING IN RADSTALL
001856: 25,2221           02573                           TC       STDESIG                               #  YES - RETURN TO DESIGNATE
001857: 25,2222     7761               -45DEGSR           =        13,14,15
001858: 25,2222           67070        -50DEGSR           DEC      -.27778
001859: 25,2223           61615        -80DEGSR           DEC      -.44444
001860:
001861: 25,2224           22110        RMODINV            LXCH     RADMODES                              #  INVERT THE MODE STATUS.
001862: 25,2225           34731                           CAF      ANTENBIT
001863: 25,2226           00006                           EXTEND
001864: 25,2227           06001                           RXOR     LCHAN
001865: 25,2230           54110                           TS       RADMODES
001866: 25,2231           00002                           TC       Q
001867:


001869:                                                                                                  #  PROGRAM NAMES_  RRTONLY, RRSONLY
001870:
001871:                                                                                                  #  FUNCTIONAL DESCRIPTION_
001872:                                                                                                  #  RRTONLY AND RRSONLY ARE SUBROUTINES FOR DOING SINGLE AXIS
001873:                                                                                                  #  RR MANEUVERS FOR REMODE AND REPOSITION. IT DRIVES TO
001874:                                                                                                  #  WITHIN 1 DEGREE. INITIALLY, AT RR1AX2, THE REMODE AND REPOSITION
001875:                                                                                                  #  FLAGS (RADMODES BITS 14, 11) ARE CHECKED. IF BOTH EXIST,
001876:                                                                                                  #  THE PROGRAM EXITS TO REPOSRPT (SEE DORREPOS). THIS INDICATES
001877:                                                                                                  #  THAT SOMEONE POSSIBLY REQUESTED A DESIGNATE (RADMODES BIT 10)
001878:                                                                                                  #  WHICH REQUIRES A REMODE (RADMODES BIT 14) AND THAT A
001879:                                                                                                  #  REPOSITION IS IN PROGRESS (RADMODES BIT 11). IF NONE
001880:                                                                                                  #  OR ONLY ONE OF THE FLAGS EXIST, REMODE OR REPOSITION, MAGSUB
001881:                                                                                                  #  IS CALLED TO SEE IF THE APPROPRIATE ANGLE IS WITHIN 1 DEGREE. IF YES,
001882:                                                                                                  #  CONTROL RETURNS TO THE CALLING ROUTINE. IF NOT, CONTROL IS
001883:                                                                                                  #  TRANSFERRED TO RROUT FOR SINGLE AXIS MANEUVERS WITH THE OTHER
001884:                                                                                                  #  ANGLE SET = 0. FOLLOWING A .5 SECOND WAIT, THE ABOVE PROCEDURE IS
001885:                                                                                                  #  REPEATED.
001886:
001887:                                                                                                  #  CALLING SEQUENCE: L-1 CAF *ANGLE* (DESIRED ANGLE SCALED PI)
001888:                                                                                                  #  L  TC  RRTONLY (TRUNNION ONLY)
001889:                                                                                                  #  RRSONLY (SHAFT ONLY)
001890:                                                                                                  #  RRTONLY IS CALLED BY PREPOS29;
001891:                                                                                                  #  RRTONLY AND RRSONLY ARE CALLED BY DORREPOS AND REMODE
001892:
001893:                                                                                                  #  ERASABLE INITIALIZATION REQUIRED:
001894:                                                                                                  #  C(A) = DESIRED ANGLE, RADMODES
001895:
001896:                                                                                                  #  SUBROUTINES CALLED_
001897:                                                                                                  #  FIXDELAY, REPOSRPT, MAGSUB, RROUT
001898:
001899:                                                                                                  #  JOBS OR TASKS INITIATED_
001900:                                                                                                  #  NONE
001901:
001902:                                                                                                  #  ALARMS_  NONE
001903:
001904:                                                                                                  #  EXIT_  REPOSRPT (REMODE AND REPOSITION FLAGS PRESENT - RADMODES
001905:                                                                                                  #  BITS 14, 11)
001906:                                                                                                  #  L+1  (ANGLE WITHIN ONE DEGREE OR RR OUT OF AUTO MODE)
001907:
001908: 25,2232           55313        RRTONLY            TS       RDES                                  #  DESIRED TRUNION ANGLE.
001909: 25,2233           34746                           CAF      ZERO
001910: 25,2234           12237                           TCF      RR1AXIS
001911:
001912: 25,2235           55313        RRSONLY            TS       RDES                                  #  SHAFT COMMANDS ARE UNRESOLVED SINCE THIS
001913: 25,2236           34744                           CAF      ONE                                   #  ROUTINE ENTERED ONLY WHEN T = 0 OR 180.
001914:
001915: 25,2237           55314        RR1AXIS            TS       RRINDEX
001916: 25,2240           00006                           EXTEND
001917: 25,2241           23312                           QXCH     RRRET
001918: 25,2242           12245                           TCF      RR1AX2
001919:


001921: 25,2243           05223        NXTRR1AX           TC       FIXDELAY
001922: 25,2244           00062                           DEC      50         B-14                       #  2 SAMPLES PER SECOND.
001923:
001924: 25,2245           40110        RR1AX2             CS       RADMODES                              #  IF SOMEONE REQUESTES AS DESIGNATE WHICH
001925: 25,2246           77731                           MASK     PRIO22                                #  REQUIRES A REMODE AND A REPOSITION IS IN
001926: 25,2247           00006                           EXTEND                                         #  PROGRESS, INTERRUPT IT AND START THE
001927: 25,2250           12135                           BZF      REPOSRPT                              #  REMODE IMMEDIATELY.
001928:
001929: 25,2251           31313                           CA       RDES
001930: 25,2252           00006                           EXTEND
001931: 25,2253           51314                           INDEX    RRINDEX
001932: 25,2254           20035                           MSU      CDUT
001933: 25,2255           54061                           TS       ITEMP1                                #  SAVE ERROR SIGNAL.
001934: 25,2256           00006                           EXTEND
001935: 25,2257           72276                           MP       RRSPGAIN                              #  TRIES TO NULL .7 OF ERROR OVER NEXT .5
001936: 25,2260           54001                           TS       L
001937: 25,2261           30110                           CA       RADMODES
001938: 25,2262           74743                           MASK     AUTOMBIT
001939: 25,2263           56061                           XCH      ITEMP1                                #  STORE RR-OUT-OF-AUTO-MODE BIT.
001940: 25,2264           04503                           TC       MAGSUB                                #  SEE IF WITHIN ONE DEGREE.
001941: 25,2265           77644                           DEC      -.00555                               #  SCALED IN HALF-REVS.
001942:
001943: 25,2266           10061                           CCS      ITEMP1                                #  NO.  IF RR OUT OF AUTO MODE, EXIT.
001944: 25,2267           01312                           TC       RRRET                                 #  RETURN TO CALLER.
001945:
001946: 25,2270           11314                           CCS      RRINDEX                               #  COMMAND FOR OTHER AXIS IS ZERO.
001947: 25,2271           12273                           TCF      +2                                    #  SETTING A TO 0.
001948: 25,2272           56001                           XCH      L
001949: 25,2273           53352                           DXCH     TRUNNCMD
001950: 25,2274           02277                           TC       RROUT
001951:
001952: 25,2275           12243                           TCF      NXTRR1AX                              #  COME BACK IN .5 SECONDS.
001953:
001954: 25,2276           22715        RRSPGAIN           DEC      .59062                                #  NULL .7 ERROR IN .5 SEC.
001955:


001957:                                                                                                  #  PROGRAM NAME_  RROUT                                                    RROR COUNTER SCALING. RROUT LIMITS THEM
001958:
001959:                                                                                                  #  FUNCTIONAL DESCRIPTION_
001960:                                                                                                  #  RROUT RECEIVES RR GYRO COMMANDS IN TANG, TANG +1 IN RR
001961:                                                                                                  #  ERROR COUNTER SCALING. RROUT THEN LIMITS THEM AND
001962:                                                                                                  #  GENERATES COMMANDS TO THE CDU TO ADJUST THE ERROR COUNTERS
001963:                                                                                                  #  TO THE DESIRED VALUES. INITIALLY MAGSUB CHECKS THE MAGNITUDE OF
001964:                                                                                                  #  THE COMMAND (SHAFT ON 1ST PASS) TO SEE IF IT IS GREATER THAN
001965:                                                                                                  #  384 PULSES. IF NOT, CONTROL IS TRANSFERRED TO RROUTLIM TO
001966:                                                                                                  #  LIMIT THE COMMAND TO +384 OR -384 PULSES. THE DIFFERENCE IS
001967:                                                                                                  #  THEN CALCULATED BETWEEN THE DESIRED STATE AND THE PRESENT STATE OF
001968:                                                                                                  #  THE ERROR COUNTER AS RECORDED IN LASTYCMD AND LASTXCMD.
001969:                                                                                                  #  THE RESULT IS STORED IN OPTXCMD (1ST PASS) AND OPTYCMD (2ND
001970:                                                                                                  #  PASS). FOLLOWING THE SECOND PASS, FOR THE TRUNNION COMMAND, THE
001971:                                                                                                  #  OCDUT AND OCDUS ERROR COUNTER DRIVE BITS (CHAN 14 BITS 12, 11)
001972:                                                                                                  #  ARE SET. THIS PROGRAM THEN EXITS TO THE CALLING PROGRAM.
001973:
001974:                                                                                                  #  CALLING SEQUENCE:
001975:                                                                                                  #  L TC RROUT (WITH RUPT INHIBITED) RROUT IS CALLED BY
001976:                                                                                                  #  RRTONLY, RRSONLY, AND DODES
001977:
001978:                                                                                                  #  ERASABLE INITIALIZATION REQUIRED:
001979:                                                                                                  #  TANG, TANG +1 (DESIRED COMMANDS), LASTYCMD, LASTXCMD
001980:                                                                                                  #  (1ST PASS = 0), RR ERROR COUNTER ENABLE SET (CHAN 12 BIT 2).
001981:
001982:                                                                                                  #  SUBROUTINES CALLED_
001983:                                                                                                  #  MAGSUB
001984:
001985:                                                                                                  #  JOBS OR TASKS INITIATED_
001986:                                                                                                  #  NONE
001987:
001988:                                                                                                  #  ALARMS_  NONE
001989:
001990:                                                                                                  #  EXIT_  L+1 (ALWAYS)                                                     SIRED VALUES. RUPT MUST BE INHIBITED.
001991:
001992: 25,2277           22002        RROUT              LXCH     Q                                     #  SAVE RETURN.
001993: 25,2300           34744                           CAF      ONE                                   #  LOOP TWICE.
001994: 25,2301           54062        RROUT2             TS       ITEMP2
001995: 25,2302           50000                           INDEX    A
001996: 25,2303           31351                           CA       TRUNNCMD
001997: 25,2304           54061                           TS       ITEMP1                                #  SAVE SIGN OF COMMAND FOR LIMITING.
001998:
001999: 25,2305           04503                           TC       MAGSUB                                #  SEE IF WITHIN LMITS.
002000: 25,2306           77177        -RRLIMIT           DEC      -384       B-14
002001: 25,2307           12326                           TCF      RROUTLIM                              #  LIMIT COMMAND TO MAG OF 384.
002002:
002003: 25,2310           30061        SETRRCTR           CA       ITEMP1                                #  COUNT OUT DIFFERENCE BETWEEN DESIRED
002004: 25,2311           50062                           INDEX    ITEMP2                                #  STATE AND PRESENT STATE AS RECORDED IN
002005: 25,2312           56112                           XCH      LASTYCMD                              #  LASTYCMD AND LASTXCMD
002006: 25,2313           40000                           COM


002008: 25,2314           60061                           AD       ITEMP1
002009: 25,2315           64745                           AD       NEG0                                  #  PREVENT +0 IN OUTCOUNTER
002010: 25,2316           50062                           INDEX    ITEMP2
002011: 25,2317           54053                           TS       CDUTCMD
002012:
002013: 25,2320           10062                           CCS      ITEMP2                                #  PROCESS BOTH INPUTS.
002014: 25,2321           12301                           TCF      RROUT2
002015:
002016: 25,2322           35011                           CAF      PRIO6                                 #  ENABLE COUNTERS.
002017: 25,2323           00006                           EXTEND
002018: 25,2324           05014                           WOR      CHAN14                                #  PUT ON CDU DRIVES S AND T
002019: 25,2325           00001                           TC       L                                     #  RETURN.
002020:
002021: 25,2326           10061        RROUTLIM           CCS      ITEMP1                                #  LIMIT COMMAND TO ABS VAL OF 384.
002022: 25,2327           42306                           CS       -RRLIMIT
002023: 25,2330           12332                           TCF      +2
002024: 25,2331           32306                           CA       -RRLIMIT
002025: 25,2332           54061                           TS       ITEMP1
002026: 25,2333           12311                           TCF      SETRRCTR   +1
002027:


002029:                                                                                                  #           ROUTINE TO ZERO THE RR CDUS AND DETERMINE THE ANTENNA MODE.
002030:
002031: 25,2334           32363        RRZERO             CAF      BIT11+1                               #  SEE IF MONITOR REPOSITION OR NOT IN AUTO
002032: 25,2335           70110                           MASK     RADMODES                              #  IF SO, DONT RE-ZERO CDUS.
002033: 25,2336           10000                           CCS      A
002034: 25,2337           13532                           TCF      RADNOOP                               #  (IMMEDIATE TASK TO RGOODEND).
002035:
002036: 25,2340           00004                           INHINT
002037: 25,2341           44730                           CS       RCDU0BIT                              #  SET FLAG TO SHOW ZEROING IN PROGRESS.
002038: 25,2342           70110                           MASK     RADMODES
002039: 25,2343           64730                           AD       RCDU0BIT
002040: 25,2344           54110                           TS       RADMODES
002041:
002042: 25,2345           34744                           CAF      ONE
002043: 25,2346           05205                           TC       WAITLIST
002044: 25,2347  E7,1456                                  EBANK=   LOSCOUNT
002045: 25,2347           02361 52067                     2CADR    RRZ2
002046:
002047:
002048: 25,2351           40110                           CS       RADMODES                              #  SEE IF IN AUTO MODE.
002049: 25,2352           74743                           MASK     AUTOMBIT
002050: 25,2353           10000                           CCS      A
002051: 25,2354           12357                           TCF      ROADBACK
002052: 25,2355           05571                           TC       ALARM                                 #  AUTO DISCRETE NOT PRESENT - TRYING
002053: 25,2356           00510                           OCT      510
002054: 25,2357           00003        ROADBACK           RELINT
002055: 25,2360           14622                           TCF      SWRETURN
002056:
002057: 25,2361           02062        RRZ2               TC       RRZEROSB                              #  COMMON TO TURNON AND RRZERO.
002058: 25,2362           13607                           TCF      ENDRADAR
002059:
002060: 25,2363           02001        BIT11+1            OCT      02001
002061:


002063:                                                                                                  #  PROGRAM NAME_  RRDESSM                                                  R (HALF-UNIT) IN RRTARGET. REMODES IF
002064:
002065:                                                                                                  #  FUNCTIONAL DESCRIPTION_
002066:                                                                                                  #  THIS INTERPRETIVE ROUTINE WILL DESIGNATE, IF DESIRED ANGLES ARE
002067:                                                                                                  #  WITHIN THE LIMITS OF EITHER MODE, TO A LINE-OF SIGHT (LOS) VECTOR
002068:                                                                                                  #  (HALF-UNIT) KNOWN WITH RESPECT TO THE STABLE MEMBER PRESENT
002069:                                                                                                  #  ORIENTATION. INITIALLY THE IMU CDU:S ARE READ AND CONTROL
002070:                                                                                                  #  TRANSFERRED TO SMNB TO TRANSFORM THE LOS VECTOR FROM STABLE
002071:                                                                                                  #  MEMBER TO NAVIGATION BASE COORDINATES (SEE STG MEMO -699)
002072:                                                                                                  #  RRANGLES IS THEN CALLED TO CALCULATE THE RR GIMBAL ANGLES,
002073:                                                                                                  #  TRUNNION AND SHAFT, FOR BOTH THE PRESENT AND ALTERNATE MODE.
002074:                                                                                                  #  RRLIMCHK IS CALLED TO SEE IF THE ANGLES CALCULATED FOR THE
002075:                                                                                                  #  PRESENT MODE ARE WITHIN LIMITS. IF WITHIN LIMITS, THE RETURN
002076:                                                                                                  #  LOCATION IS INCREMENTED, INASMUCH AS NO VEHICLE MANEUVER IS
002077:                                                                                                  #  REQUIRED, BEFORE EXITING TO STARTDES. IF NOT WITHIN LIMITS OF THE
002078:                                                                                                  #  CURRENT MODE, TRYSWS IS CALLED. FOLLOWING INVERTING OF THE RR
002079:                                                                                                  #  ANTENNA MODE FLAG (RADMODES BIT 12), RRLIMCHK IS CALLED
002080:                                                                                                  #  TO SEE IF THE ANGLES CALCULATED FOR THE ALTERNATE MODE ARE WITHIN
002081:                                                                                                  #  LIMITS. IF YES, THE RR ANTENNA MODE FLAG IS AGAIN INVERTED,
002082:                                                                                                  #  THE REMODE FLAG (RADMODES BIT 14) SET, AND THE RETURN LOCATION
002083:                                                                                                  #  INCREMENTED, TO INDICATE NO VEHICLE MANEUVER IS REQUIRED, BEFORE
002084:                                                                                                  #  EXITING TO STARTDES. IF THESE ANGLES ARE NOT WITHIN LIMITS
002085:                                                                                                  #  OF THE ALTERNATE MODE, THE RR ANTENNA MODE FLAG (RADMODES
002086:                                                                                                  #  BIT 12) IS INVERTED BEFORE RETURNING DIRECTLY TO THE CALLING PROGRAM
002087:                                                                                                  #  TO INDICATE THAT A VEHICLE MANEUVER IS REQUIRED.
002088:
002089:                                                                                                  #  CALLING SEQUENCE:
002090:                                                                                                  #  L  STCALL  RRTARGET  (LOS HALF-UNIT VECTOR IN SM COORDINATES)
002091:                                                                                                  #  L+1  RRDESSM
002092:                                                                                                  #  L+2  BASIC  (VEHICLE MANEUVER REQUIRED)
002093:                                                                                                  #  L+3  BASIC  (NO VEHICLE MANEUVER REQUIRED)
002094:
002095:                                                                                                  #  ERASABLE INITIALIZATION REQUIRED:
002096:                                                                                                  #  RRTARGET, RADMODES
002097:
002098:                                                                                                  #  SUBROUTINES CALLED_
002099:                                                                                                  #  READCDUS, SMNB, RRANGLES, RRLIMCHK, TRYSWS (ACTUALLY
002100:                                                                                                  #  PART OF), RMODINV
002101:
002102:                                                                                                  #  JOBS OR TASKS INITIATED_
002103:                                                                                                  #     NONE
002104:
002105:                                                                                                  #  ALARMS_  NONE
002106:
002107:                                                                                                  #  EXIT_  L+2 (NEITHER SET OF ANGLES ARE WITHIN LIMITS OF RELATED MODE)
002108:                                                                                                  #  STARTDES (DESIGNATE POSSIBLE AT PRESENT VEHICLE ATTITUDE-RETURNS
002109:                                                                                                  #  TO L+3 FROM STARTDES)                                                   CAN BE DONE IN PRESENT VEH ATTITUDE.
002110:
002111: 25,2364           43020        RRDESSM            STQ      CLEAR
002112: 25,2365           01112                                    DESRET


002114: 25,2366           00271                                    RRNBSW
002115: 25,2367           77624                           CALL                                           #  COMPUTES SINES AND COSINES, ORDER Y Z X
002116: 25,2370           47522                                    CDUTRIG
002117: 25,2371           45175                           VLOAD    CALL                                  #  LOAD VECTOR AND CALL TRANSFORMATION
002118: 25,2372           01101                                    RRTARGET
002119: 25,2373           47663                                    *SMNB*
002120:
002121: 25,2374           77624                           CALL                                           #  GET RR GIMBAL ANGLES IN PRESENT AND
002122: 25,2375           26133                                    RRANGLES                              #  ALTERNATE MODE.
002123: 25,2376           77776                           EXIT
002124:
002125: 25,2377           00004                           INHINT
002126: 25,2400           04514                           TC       RRLIMCHK
002127: 25,2401           01106                           ADRES    MODEA                                 #  CONFIGURATION FOR CURRENT MODE.
002128: 25,2402           02405                           TC       +3                                    #  NOT IN CURRENT MODE
002129: 25,2403           25112        OKDESSM            INCR     DESRET                                #  INCREMENT SAYS NO VEHICLE MANEUVER REQ.
002130: 25,2404           02423                           TC       STARTDES                              #  SHOW DESIGNATE REQUIRED
002131: 25,2405           40104                           CS       FLAGWRD8
002132: 25,2406           74735                           MASK     SURFFBIT                              #  CHECK IF ON LUNAR SURFACE (SURFFLAG=P22F
002133: 25,2407           00006                           EXTEND
002134: 25,2410           12447                           BZF      NORDSTAL                              #  BRANCH-YES-CANNOT DESIGNATE IN MODE 2
002135: 25,2411           02452                           TC       TRYSWS
002136:
002137:
002138: 25,2412           40104        LUNDESCH           CS       FLAGWRD8                              #  OVERFLOW RETURN FROM RRANGLES
002139: 25,2413           74735                           MASK     SURFFBIT                              #  CHECK IF ON LUNAR SURFACE
002140: 25,2414           00006                           EXTEND
002141: 25,2415           12447                           BZF      NORDSTAL                              #  BRANCH-YES-RETURN TO CALLER - ALARM 527
002142: 25,2416           30074                           CA       STATE
002143: 25,2417           74736                           MASK     RNDVZBIT
002144: 25,2420           10000                           CCS      A                                     #  TEST RNDVZFLG.
002145: 25,2421           02462                           TC       NODESSM                               #  NOT ON MOON-CALL FOR ATTITUDE MANEUVER
002146: 25,2422           15146                           TCF      ENDOFJOB                              #  ...BUT NOT IN R29.
002147:


002149:                                                                                                  #  PROGRAM NAME_  STARTDES                                                 STORED AS A HALF-UNIT VECTOR IN RRTARGET
002150:
002151:                                                                                                  #  FUNCTIONAL DESCRIPTION_                                                 CKON IS DESIRED. BIT14 OF RADMODES IS
002152:                                                                                                  #  STARTDES IS ENTERED WHEN WE ARE READY TO BEGIN DESIGNATION.             OR REPOSITION OPERATION. IN THIS
002153:                                                                                                  #  BIT 14 OF RADMODES IS ALREADY SET IF A REMODE IS REQUIRED.              THE REPOSITION WILL BE INTERRUPTED.
002154:                                                                                                  #  AT THIS TIME, THE RR ANTENNA MAY BE IN A REPOSITION                     GINS.
002155:                                                                                                  #  OPERATION. IN THIS CASE, IF A REMODE IS REQUIRED IT MAY HAVE
002156:                                                                                                  #  ALREADY BEGUN BUT IN ANY CASE THE REPOSITION WILL BE INTERRUPTED.
002157:                                                                                                  #  OTHERWISE, THE REPOSITION WILL BE COMPLETED BEFORE 2-AXIS
002158:                                                                                                  #  DESIGNATION BEGINS. INITIALLY DESCOUNT IS SET = 60 TO INDICATE
002159:                                                                                                  #  THAT 30 SECONDS WILL BE ALLOWED FOR THE RR DATA GOOD INBIT
002160:                                                                                                  #  (CHAN 33 BIT 4) IF LOCK-ON IS DESIRED (STATE BIT 5). BIT 10
002161:                                                                                                  #  OF RADMODES IS SET TO SHOW THAT A DESIGNATE IS REQUIRED.
002162:                                                                                                  #  THE REPOSITION FLAG (RADMODES BIT 11) IS CHECKED. IF SET,
002163:                                                                                                  #  THE PROGRAM EXITS TO L+3 OF THE CALLING PROGRAM (SEE RRDESSM
002164:                                                                                                  #  AND RRDESNB). THE PROGRAM WILL BEGIN DESIGNATING TO THE DESIRED
002165:                                                                                                  #  ANGLES FOLLOWING THE REPOSITION OR REMODE IF ONE WAS
002166:                                                                                                  #  REQUESTED. IF THE REPOSITION FLAG IS NOT SET, SETRRECR IS CALLED
002167:                                                                                                  #  WHICH SETS THE RR ERROR COUNTER ENABLE BIT (CHAN 12 BIT 2)
002168:                                                                                                  #  AND SETS LASTYCMD AND LASTXCMD = 0 TO INDICATE THE
002169:                                                                                                  #  DIFFERENCE BETWEEN THE PRESENT AND DESIRED STATE OF THE ERROR
002170:                                                                                                  #  COUNTERS. A 20 MILLISECOND WAITLIST CALL IS SET FOR BEGDES
002171:                                                                                                  #  AFTER WHICH THE PROGRAM EXITS TO L+3 OF THE CALLING PROGRAM.
002172:
002173:                                                                                                  #  CALLING SEQUENCE:
002174:                                                                                                  #  FROM RRDESSM AND RRDESNB WHEN ANGLES WITHIN LIMITS.
002175:
002176:                                                                                                  #  ERASABLE INITIALIZATION REQUIRED:
002177:                                                                                                  #  RADMODES, (SEE DODES)
002178:
002179:                                                                                                  #  SUBROUTINES CALLED_
002180:                                                                                                  #  SETRRECR, WAITLIST
002181:
002182:                                                                                                  #  JOBS OR TASKS INITIATED_
002183:                                                                                                  #  BEGDES
002184:
002185:                                                                                                  #  ALARMS_  NONE
002186:
002187:                                                                                                  #  EXIT_  L+3 OF CALLING PROGRAM (SEE RRDESSM)
002188:                                                                                                  #  L+2 OF CALLING PROGRAM (SEE RRDESNB)
002189:
002190: 25,2423           25112        STARTDES           INCR     DESRET
002191: 25,2424           40110                           CS       RADMODES
002192: 25,2425           74733                           MASK     DESIGBIT
002193: 25,2426           26110                           ADS      RADMODES
002194: 25,2427           74732                           MASK     REPOSBIT                              #  SEE IF REPOSITIONING IN PROGRESS.
002195: 25,2430           10000                           CCS      A
002196: 25,2431           12437                           TCF      DESRETRN                              #  ECTR ALREADY SET UP.
002197:
002198: 25,2432           02147                           TC       SETRRECR                              #  SET UP ERROR COUNTERS.


002200: 25,2433           34743                           CAF      TWO
002201: 25,2434           05205                           TC       WAITLIST
002202: 25,2435  E7,1456                                  EBANK=   LOSCOUNT
002203: 25,2435           02564 52067                     2CADR    BEGDES
002204:
002205:
002206: 25,2437           31303        DESRETRN           CA       RADCADR                               #  FIRST PASS THRU DESIGNATE
002207: 25,2440           00006                           EXTEND
002208: 25,2441           12443                           BZF      DESRTRN                               #  YES   SET EXIT
002209: 25,2442           05146                           TC       ENDOFJOB                              #  NO
002210: 25,2443           00003        DESRTRN            RELINT
002211: 25,2444           25112                           INCR     DESRET
002212: 25,2445           31112                           CA       DESRET
002213: 25,2446           14631                           TCF      BANKJUMP
002214:
002215:
002216: 25,2447           34746        NORDSTAL           CAF      ZERO                                  #  ZERO RADCADR TO WIPE  OUT ANYONE
002217: 25,2450           55303                           TS       RADCADR                               #  WAITING IN RADSTALL SINCE WE ARE NOW
002218: 25,2451           12443                           TCF      DESRTRN                               #  RETURNING TO P20 AND MAY DO NEW RADSTALL
002219:


002221:                                                                                                  #           SEE IF RRDESSM CAN BE ACCOMPLISHED AFTER A REMODE.
002222:
002223: 25,2452           02224        TRYSWS             TC       RMODINV                               #  (NOTE RUPT INHIBIT)
002224: 25,2453           04514                           TC       RRLIMCHK                              #  TRY DIFFERENT MODE.
002225: 25,2454           01110                           ADRES    MODEB
002226: 25,2455           12462                           TCF      NODESSM                               #  VEHICLE MANEUVER REQUIRED.
002227:
002228: 25,2456           02224                           TC       RMODINV                               #  RESET BIT12
002229: 25,2457           34727                           CAF      REMODBIT                              #  SET FLAG FOR REMODE.
002230: 25,2460           26110                           ADS      RADMODES
002231:
002232: 25,2461           12403                           TCF      OKDESSM
002233:
002234: 25,2462           02224        NODESSM            TC       RMODINV                               #  RE-INVERT MODE AND RETURN
002235: 25,2463           25112                           INCR     DESRET                                #  TO CALLER +2
002236: 25,2464           12447                           TCF      NORDSTAL
002237:
002238: 25,2465           00074        MAXTRYS            DEC      60         B-14
002239:


002241:                                                                                                  #           DESIGNATE TO SPECIFIC RR GIMBAL ANGLES (INDEPENDENT OF VEHICLE MOTION). ENTER WITH DESIRED ANGLES IN
002242:                                                                                                  #  TANG AND TANG +1.
002243:
002244: 25,2466           04636        RRDESNB            TC       MAKECADR
002245: 25,2467           55112                           TS       DESRET
002246:
002247: 25,2470           05520                           TC       DOWNFLAG                              #  RESET FLAG TO PREVENT DODES FROM GOING
002248: 25,2471           00041                           ADRES    LOSCMFLG                              #  BACK TO R21
002249: 25,2472           32465                           CA       MAXTRYS                               #  SET TIME LIMIT COUNTER
002250: 25,2473           55113                           TS       DESCOUNT                              #  FOR DESIGNATE
002251: 25,2474           00004                           INHINT                                         #  SEE IF CURRENT MODE OK.
002252: 25,2475           02531                           TC       RRLIMNB                               #  DO SPECIAL V41 LIMIT CHECK
002253: 25,2476           01106                           ADRES    TANG
002254: 25,2477           12514                           TCF      TRYSWN                                #  SEE IF IN OTHER MODE.
002255:
002256: 25,2500           00003        OKDESNB            RELINT
002257: 25,2501           00006                           EXTEND
002258: 25,2502           31107                           DCA      TANG
002259: 25,2503           53753                           DXCH     TANGNB
002260: 25,2504           06060                           TC       INTPRET
002261:
002262: 25,2505           77624                           CALL                                           #  GET LOS IN NB COORDS.
002263: 25,2506           46041                                    RRNB
002264: 25,2507           01101                           STORE    RRTARGET
002265:
002266: 25,2510           77414                           SET      EXIT
002267: 25,2511           00071                                    RRNBSW
002268:
002269: 25,2512           00004                           INHINT
002270: 25,2513           12424                           TCF      STARTDES   +1
002271: 25,2514           02224        TRYSWN             TC       RMODINV                               #  SEE IF OTHER MODE WILL DO.
002272: 25,2515           02531                           TC       RRLIMNB                               #  DO SPECIAL V41 LIMIT CHECK
002273: 25,2516           01106                           ADRES    TANG
002274: 25,2517           12524                           TCF      NODESNB                               #  NOT POSSIBLE.
002275:
002276: 25,2520           02224                           TC       RMODINV
002277: 25,2521           34727                           CAF      REMODBIT                              #  CALL FOR REMODE.
002278: 25,2522           26110                           ADS      RADMODES
002279: 25,2523           12500                           TCF      OKDESNB
002280:
002281: 25,2524           02224        NODESNB            TC       RMODINV                               #  REINVERT MODE BIT.
002282: 25,2525           05571                           TC       ALARM                                 #  BAD INPUT ANGLES.
002283: 25,2526           00502                           OCT      502
002284: 25,2527           06027                           TC       CLRADMOD
002285: 25,2530           05146                           TC       ENDOFJOB                              #  AVOID 503 ALARM.
002286:
002287: 25,2531           50002        RRLIMNB            INDEX    Q                                     #  THIS ROUTINE IS IDENTICAL TO RRLIMCHK
002288: 25,2532           30000                           CAF      0                                     #  EXCEPT THAT THE MODE 1 SHAFT LOWER
002289: 25,2533           24002                           INCR     Q                                     #  LIMIT IS -85 INSTEAD OF -70 DEGREES
002290: 25,2534           00006                           EXTEND


002292: 25,2535           50000                           INDEX    A                                     #  READ GIMBAL ANGLES INTO ITEMP STORAGE
002293: 25,2536           30001                           DCA      0
002294: 25,2537           52062                           DXCH     ITEMP1
002295: 25,2540           22002                           LXCH     Q                                     #  L(CALLER +2) TO L
002296:
002297: 25,2541           34731                           CAF      ANTENBIT                              #  SEE WHICH MODE RR IS IN.
002298: 25,2542           70110                           MASK     RADMODES
002299: 25,2543           10000                           CCS      A
002300: 25,2544           14541                           TCF      MODE2CHK                              #  MODE 2 CAN USE RRLIMCHK CODING
002301: 25,2545           30061                           CA       ITEMP1
002302: 25,2546           04503                           TC       MAGSUB                                #  MODE 1 IS DEFINED AS
002303: 25,2547           66161                           DEC      -.30555                               #    1. ABS(T) L 55 DEGS
002304: 25,2550           00001                           TC       L                                     #    2  SHAFT LIMITS AT +59, -85 DEGS
002305:
002306: 25,2551           30062                           CA       ITEMP2                                #  LOAD SHAFT ANGLE
002307: 25,2552           00006                           EXTEND
002308: 25,2553           62561                           BZMF     NEGSHAFT                              #  IF NEGATIVE SHAFT ANGLE, ADD 20.5 DEGS
002309: 25,2554           64553                           AD       5.5DEGS
002310: 25,2555           04503        SHAFTLIM           TC       MAGSUB
002311: 25,2556           64420                           DEC      -.35833                               #  64.5 DEGREES
002312: 25,2557           00001                           TC       L                                     #  NOT IN LIMITS
002313: 25,2560           04551                           TC       RRLIMOK                               #  IN LIMITS
002314: 25,2561           62563        NEGSHAFT           AD       20.5DEGS                              #  MAKE NEGATIVE SHAFT LIMIT -85 DEGREES
002315: 25,2562           12555                           TCF      SHAFTLIM
002316:
002317:
002318: 25,2563           03512        20.5DEGS           DEC      .11389
002319:


002321:                                                                                                  #  PROGRAM NAME_  BEGDES
002322:
002323:                                                                                                  #  FUNCTIONAL DESCRIPTION_
002324:                                                                                                  #  BEGDES CHECKS VARIOUS DESIGNATE REQUESTS AND REQUESTS THE
002325:                                                                                                  #  ACTUAL RR DESIGNATION. INITIALLY A CHECK IS MADE TO SEE IF A
002326:                                                                                                  #  REMODE (RADMODES BIT 14) IS REQUESTED OR IN PROGRESS. IF SO,
002327:                                                                                                  #  CONTROL IS TRANSFERRED TO STDESIG AFTER ROUTINE REMODE IS
002328:                                                                                                  #  EXECUTED. IF NO REMODE, STDESIG IS IMMEDIATELY CALLED WHERE
002329:                                                                                                  #  FIRST THE REPOSITION FLAG (RADMODES BIT 11) IS CHECKED. IF
002330:                                                                                                  #  PRESENT, THE DESIGNATE FLAG (RADMODES BIT 10) IS REMOVED
002331:                                                                                                  #  AFTER WHICH THE PROGRAM EXITS TO RDBADEND. IF THE REPOSITION
002332:                                                                                                  #  FLAG IS NOT PRESENT, THE CONTINUOUS DESIGNATE FLAG (RADMODES
002333:                                                                                                  #  BIT 15) IS CHECKED. IF PRESENT, ON EXECUTIVE CALL IS IMMEDIATELY
002334:                                                                                                  #  MADE FOR DODES AFTER WHICH A .5 SECOND WAIT IS INITIATED BEFORE
002335:                                                                                                  #  REPEATING AT STDESIG. IF THE RR SEARCH ROUTINE (LRS24.1) IS DESIGNATING
002336:                                                                                                  #  TO A NEW POINT (NEWPTFLG SET) THE CURRENT DESIGNATE TASK IS TERMINATED.
002337:                                                                                                  #  IF CONTINUOUS DESIGNATE IS NOT WANTED, THE DESIGNATE FLAG (RADMODES
002338:                                                                                                  #  BIT 10) IS CHECKED. IF NOT PRESENT, THE PROGRAM EXITS TO ENDRADAR TO
002339:                                                                                                  #  CHECK RR CDU FAIL BEFORE RETURNING TO THE CALLING PROGRAM. IF DESIGNATE
002340:                                                                                                  #  IS STILL REQUIRED, DESCOUNT IS CHECKED TO SEE IF THE 30 SECONDS HAS
002341:                                                                                                  #  EXPIRED BEFORE RECEIVING THE RR DATA GOOD (CHAN 33 BIT 4)
002342:                                                                                                  #  SIGNAL. IF OUT OF TIME, PROGRAM ALARM 00503 IS REQUESTED, THE
002343:                                                                                                  #  RR AUTO TRACKER ENABLE AND RR ERROR COUNTER ENABLE
002344:                                                                                                  #  (CHAN 12 BITS 14,2) BITS REMOVED, AND THE DESIGNATE FLAG
002345:                                                                                                  #  (RADMODES BIT 10) REMOVED BEFORE EXITING TO RDBADEND. IF
002346:                                                                                                  #  TIME HAS NOT EXPIRED, DESCOUNT IS DECREMENTED, THE
002347:                                                                                                  #  EXECUTIVE CALL MADE FOR DODES, AND A .5 SECOND WAIT INITIATED
002348:                                                                                                  #  BEFORE REPEATING THIS PROCEDURE AT STDESIG.
002349:
002350:                                                                                                  #  CALLING SEQUENCE:
002351:                                                                                                  #  WAITLIST CALL FROM STARTDES
002352:                                                                                                  #  TCF BEGDES FROM DORREPOS
002353:                                                                                                  #  TC STDESIG RETURNING, FROM REMODE
002354:
002355:                                                                                                  #  ERASABLE INITIALIZATION REQUIRED:
002356:                                                                                                  #  DESCOUNT, RADMODES
002357:
002358:                                                                                                  #  SUBROUTINES CALLED_
002359:                                                                                                  #  ENDRADAR, FINDVAC
002360:
002361:                                                                                                  #  JOBS OR TASKS INITIATED_  DODES
002362:
002363:                                                                                                  #  ALARMS_  PROGRAM ALARM 00503 (30 SECONDS HAVE EXPIRED) WITH NO RR DATA
002364:                                                                                                  #  GOOD (CHAN 33 BIT 4) RECEIVED WHEN LOCK-ON (STATE BIT 5) WAS REQUESTED.
002365:
002366:                                                                                                  #  EXIT_  TASKOVER (SEARCH PATTERN DESIGNATING TO NEW POINT)
002367:                                                                                                  #  ENDRADAR (NO DESIGNATE - RADMODES BIT 10)
002368:                                                                                                  #  RDBADEND (REPOSITION OR 30 SECONDS EXPIRED)
002369:
002370: 25,2564           40110        BEGDES             CS       RADMODES


002372: 25,2565           74727                           MASK     REMODBIT
002373: 25,2566           10000                           CCS      A
002374: 25,2567           02573                           TC       STDESIG
002375: 25,2570           02162                           TC       REMODE
002376: 25,2571           05223        DESLOOP            TC       FIXDELAY                              #  2 SAMPLES PER SECOND.
002377: 25,2572           00062                           DEC      50         B-14
002378:
002379: 25,2573           34732        STDESIG            CAF      REPOSBIT
002380: 25,2574           70110                           MASK     RADMODES                              #  SEE IF GIMBAL LIMIT MONITOR HAS FOUND US
002381: 25,2575           10000                           CCS      A                                     #  OUT OF BOUNDS. IF SO, THIS BIT SHOWS A
002382: 25,2576           12614                           TCF      BADDES                                #  REPOSITION TO BE IN PROGRESS.
002383:
002384: 25,2577           10110                           CCS      RADMODES                              #  SEE IF CONTINUOUS DESIGNATE WANTED.
002385: 25,2600           12603                           TCF      +3                                    #  IF SO, DONT CHECK BIT 10 TO SEE IF IN
002386: 25,2601           12603                           TCF      +2                                    #  LIMITS BUT GO RIGHT TO FINDVAC ENTRY.
002387: 25,2602           12620                           TCF      MOREDES    +1
002388:
002389: 25,2603           40110                           CS       RADMODES                              #  IF NON-CONTINUOUS, SEE IF END OF
002390: 25,2604           74733                           MASK     DESIGBIT                              #  PROBLEM (DATA GOOD IF LOCK-ON WANTED OR
002391: 25,2605           10000                           CCS      A                                     #  WITHIN LIMITS IF NOT). IF SO, EXIT AFTER
002392: 25,2606           13607                           TCF      ENDRADAR                              #  CHECKING RR CDU FAIL.
002393:
002394: 25,2607           11113        STDESIG1           CCS      DESCOUNT                              #  SEE IF THE TINE LIMIT HAS EXPIRED
002395: 25,2610           12617                           TCF      MOREDES
002396:
002397: 25,2611           42625                           CS       B14+B2                                #  IF OUT OF TIME, REMOVE ECR ENABLE + TRKR
002398: 25,2612           00006                           EXTEND
002399: 25,2613           03012                           WAND     CHAN12
002400: 25,2614           05520        BADDES             TC       DOWNFLAG
002401: 25,2615           00271                           ADRES    DESIGFLG
002402: 25,2616           13623                           TCF      RDBADEND
002403:
002404: 25,2617           55113        MOREDES            TS       DESCOUNT
002405: 25,2620           37735                           CAF      PRIO26                                #  UPDATE GYRO TORQUE COMMANDS.
002406: 25,2621           05076                           TC       FINDVAC
002407: 25,2622  E7,1456                                  EBANK=   LOSCOUNT
002408: 25,2622           02626 52067                     2CADR    DODES
002409:
002410:
002411: 25,2624           12571                           TCF      DESLOOP
002412:
002413: 25,2625           20002        B14+B2             OCT      20002
002414:


002416:                                                                                                  #  PROGRAM NAME_  DODES
002417:
002418:                                                                                                  #  FUNCTIONAL DESCRIPTION_
002419:                                                                                                  #  DODES CALCULATES AND REQUESTS ISSUANCE OF RR GYRO TORQUE
002420:                                                                                                  #  COMMANDS. INITIALLY THE CURRENT RR CDU ANGLES ARE STORED AND
002421:                                                                                                  #  THE LOS HALF-UNIT VECTOR TRANSFORMED FROM STABLE MEMBER TO
002422:                                                                                                  #  NAVIGATION BASE COORDINATES VIA SMNB IF NECESSARY. THE
002423:                                                                                                  #  SHAFT AND TRUNNION COMMANDS ARE THEN CALCULATED AS FOLLOWS_
002424:                                                                                                  #  + SHAFT = LOS  . (COS(S), 0, -SIN (S)) (DOT PRODUCT)
002425:                                                                                                  #  -TRUNNION = LOS  . (SIN (T) SIN (S), COS (T), SIN (T) COS (S) )
002426:                                                                                                  #  THE SIGN OF THE SHAFT COMMAND IS THEN REVERSED IF IN MODE 2
002427:                                                                                                  #  (RADMODES BIT 12) BECAUSE A RELAY IN THE RR REVERSES THE
002428:                                                                                                  #  POLARITY OF THE COMMAND. AT RRSCALUP EACH COMMAND IS
002429:                                                                                                  #  SCALED AND IF EITHER, OR BOTH, OF THE COMMANDS IS GREATER THAN
002430:                                                                                                  #  .5 DEGREES, MPAC +1 IS SET POSITIVE. IF A CONTINUOUS DESIGNATE
002431:                                                                                                  #  (RADMODES BIT 15) IS DESIRED AND THE SEARCH ROUTINE IS NOT OPERATING,
002432:                                                                                                  #  THE RR AUTO TRACKER ENABLE BIT (CHAN 12 BIT 14) IS CLEARED AND RROUT
002433:                                                                                                  #  CALLED TO PUT OUT THE COMMANDS PROVIDED NO REPOSITION (RADMODES BIT 11)
002434:                                                                                                  #  IS IN PROGRESS. IF A CONTINUOUS DESIGNATE AND THE SEARCH ROUTINE IS
002435:                                                                                                  #  OPERATING (SRCHOPT FLAG SET) THE TRACK ENABLE IS NOT CLEARED. IF NO
002436:                                                                                                  #  CONTINUOUS DESIGNATE AND BOTH COMMANDS ARE NOT LESS THAN .5 DEGREES AS
002437:                                                                                                  #  INDICATED BY MPAC +1, THE RR AUTO TRACKER ENABLE BIT (CHAN 12 BIT 14) IS
002438:                                                                                                  #  CLEARED AND RROUT CALLED TO PUT OUT THE COMMANDS PROVIDED NO REPOSITION
002439:                                                                                                  #  (RADMODES BIT 11) IS IN PROGRESS. IF BOTH COMMANDS ARE LESS THAN .5
002440:                                                                                                  #  DEGREES AS INDICATED BY MPAC+1, THE RR AUTO TRACKER ENABLE BIT
002441:                                                                                                  #  (CHAN 12 BIT 14) IS CLEARED AND RROUT CALLED TO PUT OUT THE
002442:                                                                                                  #  COMMANDS PROVIDED NO REPOSITION (RADMODES BIT 11) IS IN
002443:                                                                                                  #  PROGRESS. IF BOTH COMMANDS ARE LESS THAN .5 DEGREES, THE
002444:                                                                                                  #  LOCK-ON FLAG (STATE BIT 5) IS CHECKED. IF NOT PRESENT, THE
002445:                                                                                                  #  DESIGNATE FLAG (RADMODES BIT 10) IS CLEARED, THE RR ERROR
002446:                                                                                                  #  COUNTER ENABLE BIT (CHAN 12 BIT 2) IS CLEARED, AND ENDOFJOB
002447:                                                                                                  #  CALLED. IF LOCK-ON IS DESIRED, THE RR AUTO TRACKER (CHAN 12
002448:                                                                                                  #  BIT 14) IS ENABLED FOLLOWED BY A CHECK OF THE RECEIPT OF THE
002449:                                                                                                  #  RR DATA GOOD (CHAN 33 BIT 4) SIGNAL. IF RR DATA GOOD
002450:                                                                                                  #  PRESENT, THE DESIGNATE FLAG (RADMODES BIT 10) IS CLEARED,
002451:                                                                                                  #  THE RR ERROR COUNTER ENABLE BIT (CHAN 12 BIT 2) IS CLEARED,
002452:                                                                                                  #  AND ENDOFJOB CALLED. IF RR DATA GOOD IS NOT PRESENT, RROUT
002453:                                                                                                  #  IS CALLED TO PUT OUT THE COMMANDS PROVIDED NO REPOSITION
002454:                                                                                                  #  (RADMODES BIT 11) IS IN PROGRESS AFTER WHICH THE JOB IS TERMINATED
002455:                                                                                                  #  VIA ENDOFJOB.
002456:
002457:                                                                                                  #  CALLING SEQUENCE:
002458:                                                                                                  #  EXECUTIVE CALL EVERY .5 SECONDS FROM BEGDES.
002459:
002460:                                                                                                  #  ERASABLE INITIALIZATION REQUIRED:
002461:                                                                                                  #  RRTARGET (HALF-UNIT LOS VECTOR IN EITHER SM OR NB COORDINATES),
002462:                                                                                                  #  LOKONSW (STATE BIT 5), RRNBSW (STATE BIT 6), RADMODES
002463:
002464:                                                                                                  #  SUBROUTINES CALLED_
002465:                                                                                                  #  READCDUS, SMNB, CDULOGIC, MAGSUB, RROUT
002466:


002468:                                                                                                  #  JOBS OR TASKS INITIATED_
002469:                                                                                                  #  NONE
002470:
002471:                                                                                                  #  ALARMS_  NONE
002472:
002473:                                                                                                  #  EXIT_  ENDOFJOB (ALWAYS)
002474:
002475: 25,2626           00006        DODES              EXTEND
002476: 25,2627           30036                           DCA      CDUT
002477: 25,2630           53107                           DXCH     TANG
002478:
002479: 25,2631           06060                           TC       INTPRET
002480:
002481: 25,2632           77201                           SETPD    VLOAD
002482: 25,2633           00001                                    0
002483: 25,2634           01101                                    RRTARGET
002484: 25,2635           74214                           BON      VXSC
002485: 25,2636           00311                                    RRNBSW
002486: 25,2637           52651                                    DONBRD                                #  TARGET IN NAV-BASE COORDINATES
002487: 25,2640           01765                                    MLOSV                                 #  MULTIPLY UNIT LOS BY MAGNITUDE
002488: 25,2641           63372                           VSL1     PDVL
002489: 25,2642           01757                                    LOSVEL
002490: 25,2643           53361                           VXSC     VAD                                   #  ADD ONE SECOND RELATIVE VELOCITY TO LOS
002491: 25,2644           13061                                    MCTOMS
002492: 25,2645           45056                           UNIT     CALL
002493: 25,2646           47522                                    CDUTRIG
002494: 25,2647           77624                           CALL
002495: 25,2650           47663                                    *SMNB*
002496:
002497: 25,2651           14041        DONBRD             STODL    32D
002498: 25,2652           01110                                    TANG       +1
002499: 25,2653           41434                           RTB      PUSH                                  #  SHAFT COMMAND = V(32D).(COS(S), 0,
002500: 25,2654           21606                                    CDULOGIC                              #       (-SIN(S)).
002501: 25,2655           65356                           SIN      PDDL                                  #  SIN(S) TO 0 AND COS(S) TO 2.
002502: 25,2656           41546                           COS      PUSH
002503: 25,2657           65205                           DMP      PDDL
002504: 25,2660           00041                                    32D
002505: 25,2661           00045                                    36D
002506: 25,2662           44205                           DMP      BDSU
002507: 25,2663           00001                                    0
002508: 25,2664           77626                           STADR
002509: 25,2665           76667                           STORE    TANG       +1                         #  SHAFT COMMAND
002510:
002511: 25,2666           47135                           SLOAD    RTB
002512: 25,2667           01107                                    TANG
002513: 25,2670           21606                                    CDULOGIC
002514: 25,2671           71406                           PUSH     COS                                   #  COS(T) TO 4.
002515: 25,2672           73525                           PDDL     SIN
002516: 25,2673           41206                           PUSH     DMP                                   #  SIN(T) TO 6.
002517: 25,2674           00003                                    2


002519: 25,2675           65352                           SL1      PDDL                                  #  DEFINE VECTOR U = (SIN(T)SIN(S))
002520: 25,2676           00005                                    4                                     #                    (COS(T)      )
002521: 25,2677           41325                           PDDL     DMP                                   #                    (SIN(T)COS(S))
002522: 25,2700           00007                                    6
002523: 25,2701           00001                                    0
002524: 25,2702           55552                           SL1      VDEF
002525: 25,2703           77441                           DOT      EXIT                                  #  DOT U WITH LOS TO GET TRUNNION COMMAND.
002526: 25,2704           00041                                    32D
002527:


002529:                                                                                                  #           AT THIS POINT WE HAVE A ROTATION VECTOR IN DISH AXES LYING IN THE TS PLANE. CONVERT THIS TO A
002530:                                                                                                  #  COMMANDED RATE AND ENABLE THE TRACKER IF WE ARE WITHIN .5 DEGREES OF THE TARGET.
002531:
002532: 25,2705           40154                           CS       MPAC                                  #  DOT WAS NEGATIVE OF DESIRED ANGLE.
002533: 25,2706           00006                           EXTEND
002534: 25,2707           73055                           MP       RDESGAIN                              #  SCALING ON INPUT ANGLE WAS 4 RADIANS.
002535: 25,2710           55351                           TS       TRUNNCMD                              #  TRUNNION COMMAND FOR RROUT
002536: 25,2711           40110                           CS       RADMODES                              #  A RELAY IN THE RR REVERSES POLARITY OF
002537: 25,2712           74731                           MASK     BIT12                                 #  THE SHAFT COMMANDS IN MODE 2 SO THAT A
002538: 25,2713           00006                           EXTEND                                         #  POSITIVE TORQUE APPLIED TO THE SHAFT
002539: 25,2714           12717                           BZF      +3                                    #  GYRO CAUSES A POSITIVE CHANGE IN THE
002540: 25,2715           31107                           CA       TANG       +1                         #  SHAFT ANGLE. COMPENSATE FOR THIS SWITCH
002541: 25,2716           12720                           TCF      +2                                    #  BY CHANGING THE POLARITY OF OUR COMMAND.
002542: 25,2717           41107                 +3        CS       TANG       +1
002543: 25,2720           00006                           EXTEND
002544: 25,2721           73055                           MP       RDESGAIN                              #  SCALING ON INPUT ANGLE WAS 4 RADIANS.
002545: 25,2722           55352                           TS       SHAFTCMD                              #  SHAFT COMMAND FOR RROUT
002546: 25,2723           06060                           TC       INTPRET
002547:
002548: 25,2724           41345                           DLOAD    DMP
002549: 25,2725           00003                                    2                                     #  COS(S).
002550: 25,2726           00005                                    4                                     #  COS(T).
002551: 25,2727           65352                           SL1      PDDL                                  #  Z COMPONENT OF URR.
002552: 25,2730           65276                           DCOMP    PDDL                                  #  Y COMPONENT = -SIN(T).
002553: 25,2731           00001                                    0                                     #  SIN(S).
002554: 25,2732           72405                           DMP      SL1
002555: 25,2733           00005                                    4                                     #  COS(T).
002556: 25,2734           43066                           VDEF     BON                                   #  FORM URR IN NB AXES.
002557: 25,2735           00311                                    RRNBSW                                #  BYPASS NBSM CONVERSION IN VERB 41.
002558: 25,2736           52741                                    +3
002559: 25,2737           77624                           CALL
002560: 25,2740           47665                                    *NBSM*                                #  GET URR IN SM AXES.
002561: 25,2741           77441                           DOT      EXIT
002562: 25,2742           01101                                    RRTARGET                              #  GET COSINE OF ANGLE BETWEEN RR AND LOS.
002563:
002564: 25,2743           00006                           EXTEND
002565: 25,2744           43057                           DCS      COS1/2DG
002566: 25,2745           20155                           DAS      MPAC                                  #  DIFFERENCE OF COSINES, SCALED B-2.
002567: 25,2746           10154                           CCS      MPAC
002568: 25,2747           34746                           CA       ZERO                                  #  IF COS ERROR BIGGER, ERROR IS SMALLER.
002569: 25,2750           12752                           TCF      +2
002570: 25,2751           34744                           CA       ONE
002571: 25,2752           54155                           TS       MPAC       +1                         #  ZERO IF RR IS POINTED OK, ONE IF NOT.


002573:                                                                                                  #           SEE IF TRACKER SHOULD BE ENABLED OR DISABLED.
002574:
002575: 25,2753           10110                           CCS      RADMODES                              #  IF CONTINUOUS DESIGNATE WANTED, PUT OUT
002576: 25,2754           12757                           TCF      SIGNLCHK                              #  COMMANDS WITHOUT CHECKING MAGNITUDE OF
002577: 25,2755           12757                           TCF      SIGNLCHK                              #  ERROR SIGNALS
002578: 25,2756           13007                           TCF      DORROUT
002579: 25,2757           10155        SIGNLCHK           CCS      MPAC       +1                         #  SEE IF BOTH AXES WERE WITHIN .5 DEGS.
002580: 25,2760           12770                           TCF      DGOODCHK
002581: 25,2761           40074                           CS       STATE                                 #  IF WITHIN LIMITS AND NO LOCK-ON WANTED,
002582: 25,2762           74740                           MASK     LOKONBIT                              #  PROBLEM IS FINISHED.
002583: 25,2763           10000                           CCS      A
002584: 25,2764           12775                           TCF      RRDESDUN
002585:
002586: 25,2765           34727                           CAF      BIT14                                 #  ENABLE THE TRACKER.
002587: 25,2766           00006                           EXTEND
002588: 25,2767           05012                           WOR      CHAN12
002589:
002590: 25,2770           34741        DGOODCHK           CAF      BIT4                                  #  SEE IF DATA GOOD RECEIVED YET
002591: 25,2771           00006                           EXTEND
002592: 25,2772           02033                           RAND     CHAN33
002593: 25,2773           10000                           CCS      A
002594: 25,2774           13007                           TCF      DORROUT
002595:
002596: 25,2775           44733        RRDESDUN           CS       BIT10                                 #  WHEN PROBLEM DONE, REMOVE BIT 10 SO NEXT
002597: 25,2776           70110                           MASK     RADMODES                              #  WAITLIST TASK WE WILL GO TO RGOODEND.
002598: 25,2777           00004                           INHINT
002599: 25,3000           54110                           TS       RADMODES
002600:
002601: 25,3001           05520                           TC       DOWNFLAG                              #  RESET LOSCMFLG TO PREVENT A
002602: 25,3002           00041                           ADRES    LOSCMFLG                              #  RECOMPUTATION OF LOS AFTER DATA GOOD
002603: 25,3003           44743                           CS       BIT2                                  #  TURN OFF ENABLE RR ERROR COUNTER
002604: 25,3004           00006                           EXTEND
002605: 25,3005           03012                           WAND     CHAN12
002606: 25,3006           15146                           TCF      ENDOFJOB                              #  WITH ECTR DISABLED.
002607:
002608: 25,3007           30076        DORROUT            CA       FLAGWRD2                              #  IF BOTH LOSCMFLAG AND SEARCH FLAG ARE
002609: 25,3010           77733                           MASK     BIT12,14                              #  ZERO, BYPASS VELOCITY ADJUSTMENT TO LOS
002610: 25,3011           00006                           EXTEND
002611: 25,3012           13031                           BZF      NOTP20
002612: 25,3013           06060                           TC       INTPRET
002613: 25,3014           74375                           VLOAD    VXSC                                  #  MULTIPLY UNIT LOS BY MAGNITUDE
002614: 25,3015           01101                                    RRTARGET
002615: 25,3016           01765                                    MLOSV
002616: 25,3017           41572                           VSL1     PUSH
002617: 25,3020           74375                           VLOAD    VXSC                                  #  ADD .5 SEC. OF VELOCITY
002618: 25,3021           01757                                    LOSVEL                                #  TO LOS VECTOR
002619: 25,3022           13061                                    MCTOMS
002620: 25,3023           53362                           VSR1     VAD
002621: 25,3024           77656                           UNIT
002622: 25,3025           15101                           STODL    RRTARGET                              #  STORE VELOCITY-CORRECTED LOS (UNIT)


002624: 25,3026           00045                                    36D
002625: 25,3027           01765                           STORE    MLOSV                                 #  AND STORE MAGNITUDE
002626: 25,3030           77776                           EXIT
002627: 25,3031           00004        NOTP20             INHINT
002628: 25,3032           40110                           CS       RADMODES                              #  PUT OUT COMMAND UNLESS MONITOR
002629: 25,3033           74732                           MASK     REPOSBIT                              #  REPOSITION HAS TAKEN OVER.
002630: 25,3034           10000                           CCS      A
002631: 25,3035           02277                           TC       RROUT
002632:
002633: 25,3036           30076                           CA       FLAGWRD2
002634: 25,3037           74731                           MASK     LOSCMBIT                              #  IF LOSCMFLG NOT SET, DON'T TEST
002635: 25,3040           00006                           EXTEND                                         #  LOS COUNTER
002636: 25,3041           15146                           BZF      ENDOFJOB
002637: 25,3042           11456                           CCS      LOSCOUNT                              #  TEST LOS COUNTER TO SEE IF TIME TO GET
002638: 25,3043           03053                           TC       DODESEND                              #  A NEW LOS
002639: 25,3044           06050                           TC       KILLTASK                              #  YES - KILL TASK WHICH SCHEDULES DODES
002640: 25,3045           52573                           CADR     DESLOOP    +2
002641: 25,3046           00003                           RELINT
002642: 25,3047           10067                           CCS      NEWJOB
002643: 25,3050           05113                           TC       CHANG1
002644: 25,3051           04607                           TC       BANKCALL
002645: 25,3052           51015                           CADR     R21LEM2
002646:
002647:
002648: 25,3053           55456        DODESEND           TS       LOSCOUNT
002649: 25,3054           05146                           TC       ENDOFJOB
002650:
002651:
002652: 25,3055           21122        RDESGAIN           DEC      .53624                                #  TRIES TO NULL .5 ERROR IN .5 SEC.
002653: 25,3056     7733               BIT12,14           EQUALS   PRIO24                                #  OCT 24000
002654: 25,3056           07777 33005  COS1/2DG           2DEC     .999961923 B-2                        #  COSINE OF 0.5 DEGREES.
002655:
002656: 25,3060           00310 00000  MCTOMS             2DEC     100        B-13
002657:


002659:                                                                                                  #  RADAR READ INITIALIZATION
002660:
002661:                                                                                                  #  THE FOLLOWING ROUTINES MUST BE CALLED BY BANKCALL
002662:
002663: 25,3062           03076        LRALT              TC       INITREAD
002664: 25,3063           00017        ALLREAD            OCT      17
002665:
002666: 25,3064           03076        LRVELZ             TC       INITREAD
002667: 25,3065           00016                           OCT      16
002668:
002669: 25,3066           03076        LRVELY             TC       INITREAD
002670: 25,3067           00015                           OCT      15
002671:
002672: 25,3070           03076        LRVELX             TC       INITREAD
002673: 25,3071           00014                           OCT      14
002674:
002675: 25,3072           03076        RRRDOT             TC       INITREAD
002676: 25,3073           00012                           OCT      12
002677:
002678: 25,3074           03076        RRRANGE            TC       INITREAD
002679: 25,3075           00011                           OCT      11
002680:
002681:
002682: 25,3076           00004        INITREAD           INHINT
002683: 25,3077           50002                           INDEX    Q
002684: 25,3100           30000                           CA       0
002685: 25,3101           03110                           TC       PRERADAR
002686: 25,3102           34742                           CA       BIT3
002687: 25,3103           55105                           TS       TIMEHOLD   +1                         #  MIDPOINT OF READ IS ABOUT 40 MS AFTER
002688: 25,3104           00006                           EXTEND                                         #  START OF READ
002689: 25,3105           30025                           DCA      TIME2
002690: 25,3106           21105                           DAS      TIMEHOLD
002691:
002692: 25,3107           12357                           TCF      ROADBACK
002693:
002694:
002695: 25,3110           55077        PRERADAR           TS       RADUSE                                #  INDICATE RADAR READ ROUTINES IN USE.
002696: 25,3111           34746                           CA       ZERO
002697: 25,3112           55110                           TS       NSAMP
002698: 25,3113           55100                           TS       SAMPLSUM
002699: 25,3114           55101                           TS       SAMPLSUM   +1
002700: 25,3115           55104                           TS       TIMEHOLD
002701:
002702: 25,3116           33136                           CA       DGBITS
002703: 25,3117           00006                           EXTEND
002704: 25,3120           02033                           RAND     CHAN33
002705: 25,3121           55112                           TS       OLDATAGD
002706:
002707: 25,3122           43136                           CS       DGBITS                                #  RESET DATA GOOD BITS OF RADMODES
002708: 25,3123           70110                           MASK     RADMODES


002710: 25,3124           54110                           TS       RADMODES
002711:
002712: 25,3125           43063                           CS       ALLREAD
002713: 25,3126           00006                           EXTEND
002714: 25,3127           03013                           WAND     CHAN13                                #  CLEAR ALL RADAR BITS PRIOR TO READ
002715:
002716: 25,3130           00006                           EXTEND
002717: 25,3131           22070                           QXCH     RUPTREG1
002718:
002719: 25,3132           31077                           CA       RADUSE
002720: 25,3133           04665                           TC       IBNKCALL
002721: 25,3134           36000                           CADR     RADSTART
002722: 25,3135           00070                           TC       RUPTREG1
002723:
002724:
002725: 25,3136           00230        DGBITS             OCT      230                                   #  POSITION OF DATA GOOD BITS IN CHANNEL 33
002726: 25,3137           00014        VBITS              OCT      14                                    #  VSELECT = 0 BEFORE X READ
002727: 25,3140           00016                           OCT      16                                    #  VSELECT = 1 BEFORE Z READ
002728: 25,3141           00015                           OCT      15                                    #  VSELECT = 2 BEFORE Y READ
002729:
002730:
002731: 25,3142           40107        R12READ            CS       FLGWRD11
002732: 25,3143           74733                           MASK     NOLRRBIT                              #  IF NOLRREAD FLAG IS SET , BYPASS R12
002733: 25,3144           00006                           EXTEND
002734: 25,3145           15263                           BZF      TASKOVER
002735:
002736: 25,3146           40107        R12RDSET           CS       FLGWRD11                              #  STOP R12 FROM
002737: 25,3147           74742                           MASK     R12RDBIT                              #    ATTEMPTING UPDATE
002738: 25,3150           26107                           ADS      FLGWRD11                              #        BEFORE R12 READS ARE DONE
002739:
002740: 25,3151           51462                           INDEX    VSELECT
002741: 25,3152           33137                           CA       VBITS
002742: 25,3153           03110                           TC       PRERADAR
002743: 25,3154           36263                           CA       SIX                                   #  RADAR RUPT USES THIS FOR R12 READ
002744: 25,3155           55110                           TS       NSAMP
002745: 25,3156           05263                           TC       TASKOVER
002746:


002748:                                                                                                  #  RADAR RUPT READER (R20)
002749:
002750:                                                                                                  #  THIS ROUTINE, WHICH IS INITIATED BY A RADAR RUPT, PROCESSES THE RADAR DATA AND UPDATES THE APPROPRIATE
002751:                                                                                                  #  DSKY LIGHTS.
002752:
002753: 25,2000                                           SETLOC   RADARUPT
002754: 25,2000                                           BANK
002755:
002756: 25,3157                                           COUNT*   $$/RRUPT
002757:
002758: 25,3157  E7,1453                                  EBANK=   TTOGO
002759:
002760: 25,3157           00006        RADAREAD           EXTEND                                         #  CONTINUATION OF INTERRUPT LEAD-IN.
002761: 25,3160           04007                           ROR      SUPERBNK                              #  SUPERBNK MUST BE SAVED BECAUSE RUPT
002762: 25,3161           54016                           TS       BANKRUPT                              #  MAY EXIT VIA TASKOVER.
002763: 25,3162           00006                           EXTEND
002764: 25,3163           22012                           QXCH     QRUPT
002765:
002766:
002767: 25,3164           34750                           CA       SEVEN                                 #  READ AND STORE RADAR SELECT BITS
002768: 25,3165           00006                           EXTEND
002769: 25,3166           02013                           RAND     CHAN13
002770: 25,3167           55332                           TS       RADBITS
002771:
002772: 25,3170           00006                           EXTEND                                         #  IF RADAR SELECT BITS ARE ZERO, ALARM
002773: 25,3171           13177                           BZF      BADRUPT                               #  WITHOUT READING DATA
002774:
002775: 25,3172           30046                           CA       RNRAD                                 #  STORE RAW DATA FOR DOWNLINK.
002776: 25,3173           51332                           INDEX    RADBITS
002777: 25,3174           55327                           TS       DNRRANGE   -1
002778:
002779: 25,3175           11077                           CCS      RADUSE                                #  IF RADUSE IS ZERO, THIS IS A BAD RUPT
002780: 25,3176           13203                           TCF      WHICHRAD
002781:
002782: 25,3177           55077        BADRUPT            TS       RADUSE
002783: 25,3200           05571                           TC       ALARM
002784: 25,3201           00520                           OCT      520
002785: 25,3202           05272                           TC       RESUME
002786:
002787: 25,3203           46266        WHICHRAD           CS       THREE                                 #  IF RADBITS IS LESS THAN THREE,
002788: 25,3204           61332                           AD       RADBITS                               #  THE RENDEZVOUS RADAR IS BEING READ.
002789: 25,3205           00006                           EXTEND
002790: 25,3206           63273                           BZMF     RENDRAD
002791:
002792: 25,3207           40101        LANDRAD            CS       FLAGWRD5                              #  THE LANDING RADAR IS BEING READ
002793: 25,3210           74732                           MASK     R77FLBIT
002794: 25,3211           00006                           EXTEND                                         #  IF R77 IS RUNNING, EXIT HERE
002795: 25,3212           13253                           BZF      R77EXIT
002796:
002797: 25,3213           44750                           CS       SEVEN                                 #  IF RADBITS IS SEVEN, THE LANDING


002799: 25,3214           61332                           AD       RADBITS                               #  RADAR ALITUDE IS BEING READ
002800: 25,3215           00006                           EXTEND
002801: 25,3216           13267                           BZF      LRHEIGHT
002802:
002803: 25,3217           34724        LRSPEED            CA       POSMAX                                #  DECODE THE 15 BIT READING AND
002804: 25,3220           70046                           MASK     RNRAD                                 #  SUBTRACT THE BIAS.
002805: 25,3221           62000                           AD       LVELBIAS
002806: 25,3222           54064                           TS       ITEMP4
002807: 25,3223           54001                           TS       L
002808: 25,3224           30046                           CA       RNRAD
002809: 25,3225           60000                           DOUBLE
002810: 25,3226           74744                           MASK     BIT1
002811: 25,3227           54063                           TS       ITEMP3
002812: 25,3230           21101                           DAS      SAMPLSUM                              #  ACCUMULATE THE READING
002813:
002814: 25,3231           34735                           CA       BIT8                                  #  VOLOCITY DATA GOOD BIT
002815: 25,3232           54061        DGCHECK            TS       ITEMP1
002816: 25,3233           33136        DGCHECK2           CA       DGBITS                                #  UPDATE THE STATUS OF THE DATA GOOD BITS
002817: 25,3234           00006                           EXTEND
002818: 25,3235           02033                           RAND     CHAN33
002819: 25,3236           57112                           XCH      OLDATAGD
002820: 25,3237           70061                           MASK     ITEMP1
002821: 25,3240           54001                           TS       L                                     #  OLD STATUS
002822: 25,3241           30061                           CA       ITEMP1
002823: 25,3242           71112                           MASK     OLDATAGD                              #  CURRENT STATUS
002824: 25,3243           60001                           AD       L
002825: 25,3244           10000                           CCS      A                                     #  BOTH SHOULD BE ZERO
002826: 25,3245           13256                           TCF      BADRAD                                #  DATA GOOD NOT PRESENT
002827:
002828: 25,3246           11110        GOODRAD            CCS      NSAMP                                 #  TEST FOR R12
002829: 25,3247           13403                           TCF      R12EXIT
002830:
002831: 25,3250           52064                           DXCH     ITEMP3                                #  STORE DATA FOR CALLING ROUTINE
002832: 25,3251           53101                           DXCH     SAMPLSUM
002833: 25,3252           03651                           TC       RADLITES                              #  UPDATE DSKY LIGHTS.


002835:
002836: 25,3253           34746        R77EXIT            CA       ZERO                                  #  ZERO RADUSE
002837: 25,3254           55077                           TS       RADUSE
002838: 25,3255           03614                           TC       RGOODEND   -2
002839:
002840:
002841: 25,3256           40110        BADRAD             CS       RADMODES                              #  UPDATE RADMODES BIT ONLY IF DATA BAD
002842: 25,3257           70061                           MASK     ITEMP1
002843: 25,3260           26110                           ADS      RADMODES
002844:
002845: 25,3261           11110                           CCS      NSAMP                                 #  TEST FOR R12
002846: 25,3262           13403                           TCF      R12EXIT
002847:
002848: 25,3263           03651                           TC       RADLITES                              #  UPDATE DSKY LIGHTS


002850: 25,3264           34746        RRBADEND           CA       ZERO                                  #  ZERO RADUSE


002852: 25,3265           55077                           TS       RADUSE
002853: 25,3266           03621                           TC       RDBADEND   -2
002854:
002855:
002856: 25,3267           34740        LRHEIGHT           CA       BIT5                                  #  DATA GOOD BIT FOR ALTITUDE
002857: 25,3270           54061                           TS       ITEMP1
002858: 25,3271           34734                           CA       BIT9                                  #  LO SCALE BIT FOR LR
002859: 25,3272           03316                           TC       SCALECHK
002860:
002861: 25,3273           00006        RENDRAD            EXTEND
002862: 25,3274           31454                           DCA      TTOGO                                 #  LOAD TIME TO TIG
002863: 25,3275           53272                           DXCH     TTOTIG                                #  FOR R65 RADAR READING.
002864:
002865: 25,3276           34732                           CA       REPOSBIT                              #  MAKE SURE ANTENNA HAS NOT
002866: 25,3277           70110                           MASK     RADMODES                              #  GONE OUT OF LIMITS.
002867: 25,3300           10000                           CCS      A
002868: 25,3301           13264                           TCF      RRBADEND
002869:
002870: 25,3302           40110                           CS       RADMODES                              #  BE SURE RR CDU HASN'T FAILED.
002871: 25,3303           74736                           MASK     RCDUFBIT
002872: 25,3304           10000                           CCS      A
002873: 25,3305           13264                           TCF      RRBADEND
002874:
002875: 25,3306           34741                           CA       BIT4                                  #  DATA GOOD BIT FOR RR
002876: 25,3307           54061                           TS       ITEMP1
002877:
002878: 25,3310           34744                           CA       BIT1                                  #  TEST FOR RANGE OR RANGE RATE
002879: 25,3311           71332                           MASK     RADBITS
002880: 25,3312           54002                           TS       Q                                     #  SAVE FOR LATER TESTING
002881: 25,3313           00006                           EXTEND
002882: 25,3314           13325                           BZF      RADIN                                 #  IF ROOT, READ DATA
002883:
002884: 25,3315           34742                           CA       BIT3                                  #  LO SCALE BIT FOR RR.
002885: 25,3316           54001        SCALECHK           TS       L
002886: 25,3317           30110                           CA       RADMODES                              #  TEST THE SCALE BIT SPECIFIED IN L
002887: 25,3320           00006                           EXTEND                                         #  TO SEE IF IT IS THE SMAE AS LAST
002888: 25,3321           06033                           RXOR     CHAN33                                #  TIME.
002889: 25,3322           70001                           MASK     L                                     #  IF BIT IS THE SMAE IN RADMODES AND
002890: 25,3323           10000                           CCS      A                                     #  CHAN33, THEN A WILL BE ZERO
002891: 25,3324           03364                           TC       SCALCHNG                              #  SCALE CHANGED
002892:
002893: 25,3325           34724        RADIN              CA       POSMAX                                #  UNPACK 15 BIT RADAR READING
002894: 25,3326           70046                           MASK     RNRAD
002895: 25,3327           54064                           TS       ITEMP4
002896:
002897: 25,3330           30046                           CA       RNRAD
002898: 25,3331           60000                           DOUBLE
002899: 25,3332           74744                           MASK     BIT1
002900: 25,3333           54063                           TS       ITEMP3
002901:


002903: 25,3334           10002                           CCS      Q                                     #  TEST FOR RR RANGE RATE (Q = 0)
002904: 25,3335           13342                           TCF      SCALADJ                               #  RANGE OR LR HEIGHT . TEST SCALE
002905:
002906: 25,3336           00006                           EXTEND                                         #  RR RANGE RATE - SUBTRACT BIAS
002907: 25,3337           42002                           DCS      RDOTBIAS
002908: 25,3340           20064        DASAMPL            DAS      ITEMP3
002909: 25,3341           13233                           TCF      DGCHECK2                              #  TEST DATA GOOD
002910:
002911: 25,3342           30110        SCALADJ            CA       RADMODES                              #  TEST SCALE BIT
002912: 25,3343           70001                           MASK     L
002913: 25,3344           00006                           EXTEND
002914: 25,3345           13233                           BZF      DGCHECK2                              #  LO SCALE
002915:
002916: 25,3346           74742                           MASK     BIT3                                  #  HI SCALE - TEST FOR LR
002917: 25,3347           00006                           EXTEND                                         #  IF BIT3 = 0,THEN IT IS LR
002918: 25,3350           13357                           BZF      LRSCK
002919:
002920: 25,3351           52064                           DXCH     ITEMP3                                #  RESCALE RR DATA TO LO SCALING
002921: 25,3352           20001                           DDOUBL                                         #  MULTIPLY BY 8.
002922: 25,3353           20001                           DDOUBL
002923: 25,3354           20001                           DDOUBL
002924: 25,3355           52064                           DXCH     ITEMP3
002925: 25,3356           13233                           TCF      DGCHECK2
002926:
002927: 25,3357           00006        LRSCK              EXTEND                                         #  RESCALE LR DATA TO LO SCALING
002928: 25,3360           30064                           DCA      ITEMP3                                #  MULTIPLY BY 5.
002929: 25,3361           20001                           DDOUBL
002930: 25,3362           20001                           DDOUBL
002931: 25,3363           13340                           TCF      DASAMPL
002932:
002933:
002934: 25,3364           30110        SCALCHNG           CA       RADMODES
002935: 25,3365           00006                           EXTEND                                         #  INVERT SCALE BIT IN RADMODES
002936: 25,3366           06001                           RXOR     LCHAN
002937: 25,3367           54110                           TS       RADMODES
002938:
002939: 25,3370           11110                           CCS      NSAMP                                 #  TEST FOR R12
002940: 25,3371           13401                           TCF      R12SCHNG


002942:
002943: 25,3372           05506                           TC       UPFLAG                                #  SET RNGSCFLG FOR LRS24.1
002944: 25,3373           00120                           ADRES    RNGSCFLG
002945:
002946: 25,3374           33136                           CA       DGBITS                                #  UPDATE DATA GOOD BITS
002947: 25,3375           00006                           EXTEND
002948: 25,3376           02033                           RAND     CHAN33
002949: 25,3377           55112                           TS       OLDATAGD
002950: 25,3400           13264                           TCF      RRBADEND
002951:
002952:
002953: 25,3401           55110        R12SCHNG           TS       NSAMP                                 #  UPDATE NSAMP AND IGNORE READING.


002955: 25,3402           13414                           TCF      READVEL
002956:
002957: 25,3403           55110        R12EXIT            TS       NSAMP                                 #  UPDATE NSAMP
002958: 25,3404           00006                           EXTEND
002959: 25,3405           13445                           BZF      STORVEL
002960:
002961: 25,3406           67766                           AD       NEG3
002962: 25,3407           00006                           EXTEND
002963: 25,3410           13425                           BZF      STORALT
002964:
002965: 25,3411           67770                           AD       NEGONE
002966: 25,3412           00006                           EXTEND
002967: 25,3413           13423                           BZF      READALT
002968: 25,3414           44750        READVEL            CS       SEVEN
002969: 25,3415           00006                           EXTEND
002970: 25,3416           03013                           WAND     CHAN13
002971: 25,3417           31077                           CA       RADUSE
002972: 25,3420           04665        READALT2           TC       IBNKCALL
002973: 25,3421           36000                           CADR     RADSTART


002975: 25,3422           05272                           TC       RESUME
002976:
002977:
002978: 25,3423           33063        READALT            CA       ALLREAD                               #  SET UP LR ALTITUDE READ
002979: 25,3424           13420                           TCF      READALT2
002980:
002981: 25,3425           52064        STORALT            DXCH     ITEMP3
002982: 25,3426           53655                           DXCH     HMEAS                                 #  STORE ALT IN HMEAS
002983:
002984: 25,3427           40110                           CS       RADMODES                              #  TEST DATA GOOD
002985: 25,3430           74740                           MASK     BIT5
002986: 25,3431           00006                           EXTEND
002987: 25,3432           13442                           BZF      HBAD                                  #  DATA GOOD NOT PRESENT
002988:
002989: 25,3433           11674                           CCS      STILBADH                              #  IF DATA JUST GOOD,OR IG RESTART JUST
002990: 25,3434           13443                           TCF      HSTILBAD                              #  OCCURRED,WAIT
002991:
002992: 25,3435           40107                           CS       FLGWRD11                              #  SET FLAG FORR12.
002993: 25,3436           74741                           MASK     RNGEDBIT                              #  (CANNOT USE UPFLAG BECAUSE ITEMP1 IS
002994: 25,3437           26107                           ADS      FLGWRD11                              #    DESTROYED)
002995: 25,3440           03651        ALTEXIT            TC       RADLITES


002997: 25,3441           13414                           TCF      READVEL
002998:
002999: 25,3442           34743        HBAD               CA       TWO                                   #  SET STILBADH FOR FOUR SECOND DELAY
003000: 25,3443           55674        HSTILBAD           TS       STILBADH
003001: 25,3444           13440                           TCF      ALTEXIT
003002:
003003: 25,3445           40110        STORVEL            CS       RADMODES                              #  TEST DATA GOOD
003004: 25,3446           74735                           MASK     BIT8
003005: 25,3447           00006                           EXTEND
003006: 25,3450           13506                           BZF      VBAD                                  #  DATA GOOD NOT PRESENT
003007:


003009: 25,3451           11675                           CCS      STILBADV
003010: 25,3452           13507                           TCF      VSTILBAD
003011:
003012: 25,3453           40107                           CS       FLGWRD11                              #  DATA IS GOOD, SET FLAG FOR R12
003013: 25,3454           74736                           MASK     VELDABIT                              #  (CANNOT USE UPFLAG BECAUSE ITEMP1 IS
003014: 25,3455           26107                           ADS      FLGWRD11                              #    DESTROYED)
003015: 25,3456           11462        R12DL              CCS      VSELECT                               #  UPDATE VSELECT
003016: 25,3457           13461                           TCF      +2
003017: 25,3460           34743                           CA       TWO
003018: 25,3461           55462                           TS       VSELECT
003019:
003020: 25,3462           53101                           DXCH     SAMPLSUM                              #  STORE VEL DATA IN VMEAS
003021: 25,3463           53653                           DXCH     VMEAS
003022:
003023: 25,3464           00006                           EXTEND
003024: 25,3465           31655                           DCA      HMEAS                                 #  STORE HMEAS FOR DOWNLINK
003025: 25,3466           53777                           DXCH     HMEASDL
003026:
003027: 25,3467           00006                           EXTEND
003028: 25,3470           31561                           DCA      PIPTIME1                              #  STORE TIME FOR DOWNLINK
003029: 25,3471           53755                           DXCH     MKTIME
003030:
003031: 25,3472           00006                           EXTEND
003032: 25,3473           31156                           DCA      CDUTEMPY                              #  STORE CDUY,CDUZ FOR DOWNLINK
003033: 25,3474           53460                           DXCH     AIG
003034:
003035: 25,3475           31154                           CA       CDUTEMPX                              #  STORE CDUX FOR LINK
003036: 25,3476           55461                           TS       AOG
003037:
003038: 25,3477           03651                           TC       RADLITES                              #  UPDATE DSKY VEL LIGHT


003040: 25,3500           34746                           CA       ZERO
003041: 25,3501           55077                           TS       RADUSE
003042:
003043: 25,3502           44742        OKUPDATE           CS       R12RDBIT                              #  R12 READ IS DONE SO ALLOW R12 UPDATE
003044: 25,3503           70107                           MASK     FLGWRD11
003045: 25,3504           54107                           TS       FLGWRD11
003046:
003047: 25,3505           05272                           TC       RESUME
003048:
003049: 25,3506           34743        VBAD               CA       TWO
003050: 25,3507           55675        VSTILBAD           TS       STILBADV
003051: 25,3510           13456                           TCF      R12DL
003052:


003054:                                                                                                  #           CODING TO PROTECT CHANNEL 13 WILL RADAR READ IS IN CRITICAL PERIOD
003055:
003056: 17,2000                                           SETLOC   C13BANK
003057: 17,2000                                           BANK
003058:
003059: 17,2000           54002        RADSTART           TS       Q
003060: 17,2001           00006                 +1        EXTEND
003061: 17,2002           00004                           READ     LOSCALAR                              #  READ PRESENT TIME
003062: 17,2003           54001                           TS       L
003063:
003064: 17,2004           74337                           MASK     LOW5                                  #  ONLY THE LOW 5 BITS MATTER
003065: 17,2005           40000                           COM
003066: 17,2006           64737                           AD       BIT6                                  #  COMPUTE DELTA TIME TO NEXT T5 TICK
003067: 17,2007           74337                           MASK     LOW5
003068: 17,2010           55270                           TS       RADDEL
003069:
003070: 17,2011           67767                           AD       NEG2                                  #  IF A TICKING OF T5 IS NEAR, WAIT UNTIL
003071: 17,2012           00006                           EXTEND                                         #  IT HAS TICKED.  THE MAX DELAY HERE WILL
003072: 17,2013           62001                           BZMF     RADSTART   +1                         #  BE 937.5 MICROSECONDS
003073:
003074: 17,2014           30002                           CA       Q
003075: 17,2015           00006                           EXTEND                                         #  IT IS SAFE TO SET THE ACTIVITY BIT NOW
003076: 17,2016           05013                           WOR      CHAN13                                #  BECAUSE OF THE ABOVE LOOP
003077:
003078: 17,2017           40001                           CS       L
003079: 17,2020           55267                           TS       RADTIME                               #  SAVE NEGATIVE TIME OF READ
003080: 17,2021           04700                           TC       ISWRETRN
003081:
003082:
003083: 17,2022           55266        C13STAL1           TS       C13FSAV
003084:
003085: 17,2023           34741                           CA       BIT4
003086: 17,2024           00006                           EXTEND
003087: 17,2025           02013                           RAND     CHAN13
003088: 17,2026           00006                           EXTEND
003089: 17,2027           12050                           BZF      TCQSTAL                               #  IF NO RADAR ACTIVITY, RETURN
003090:
003091: 17,2030           12031        C13SLOOP           NOOP                                           #  *** NECESSARY TO PREVENT A TC TRAP ***
003092: 17,2031           00006                           EXTEND
003093: 17,2032           00004                           READ     LOSCALAR
003094: 17,2033           61267                           AD       RADTIME                               #  COMPUTE DELTA T SINCE LAST RADAR READ
003095: 17,2034           64727                           AD       HALF
003096: 17,2035           64727                           AD       HALF                                  #  CORRECT FOR TIME OVERFLOW
003097: 17,2036           56001                           XCH      L
003098:
003099: 17,2037           32053                           CA       90MSCALR
003100: 17,2040           61270                           AD       RADDEL
003101: 17,2041           00006                           EXTEND
003102: 17,2042           60001                           SU       L


003104: 17,2043           00006                           EXTEND
003105: 17,2044           62050                           BZMF     TCQSTAL                               #  FORBIDDEN  ZONE IS PAST, RETURN
003106:
003107: 17,2045           62054                           AD       -DTSCALR
003108: 17,2046           00006                           EXTEND
003109: 17,2047           62030                           BZMF     C13SLOOP                              #  IN THE FORBIDDEN PERIOD, LOOP UNTIL O.K.
003110:
003111: 17,2050           22002        TCQSTAL            LXCH     Q                                     #  ALL IS WELL, RETURN
003112: 17,2051           31266                           CA       C13FSAV
003113: 17,2052           52005                           DTCF
003114:
003115: 17,2053           00440        90MSCALR           OCT      440                                   #  90 MILLISEC IN SCALAR
003116: 17,2054           77754        -DTSCALR           OCT      77754                                 #  -5.9375 MS IN SCALAR
003117:
003118:    6000                                           SETLOC   FFTAG6
003119:    6000                                           BANK
003120:
003121:    6040           37745        C13STALL           CAF      PRIO36                                #  PRIO36 = 36000 = FCADR (17,2000)
003122:    6041           56004                           XCH      FBANK
003123:    6042           12022                           TCF      C13STAL1
003124:


003126:                                                                                                  #  THIS ROUTINE CHANGES THE LR POSITION, AND CHECKS THAT IT GOT THERE.
003127:
003128: 25,3511                                           BANK     25
003129: 25,2000                                           SETLOC   P20S1
003130: 25,2000                                           BANK
003131: 25,3511                                           COUNT*   $$/RSUB
003132: 25,3511           00004        LRPOS2             INHINT
003133:
003134: 25,3512           40110                           CS       RADMODES
003135: 25,3513           74737                           MASK     LRPOSBIT                              #  SHOW DESIRED LR POSITION IS 2
003136: 25,3514           26110                           ADS      RADMODES
003137:
003138: 25,3515           34736                           CAF      BIT7
003139: 25,3516           00006                           EXTEND
003140: 25,3517           02033                           RAND     CHAN33                                #  SEE IF ALREADY THERE.
003141: 25,3520           00006                           EXTEND
003142: 25,3521           13532                           BZF      RADNOOP
003143:
003144: 25,3522           34730                           CAF      BIT13
003145: 25,3523           00006                           EXTEND
003146: 25,3524           05012                           WOR      CHAN12                                #  COMMAND TO POSITION 2
003147: 25,3525           33565                           CAF      6SECS                                 #  START SCANNING FOR INBIT AFTER 7 SECS.
003148: 25,3526           05205                           TC       WAITLIST
003149: 25,3527  E7,1456                                  EBANK=   LOSCOUNT
003150: 25,3527           03563 52067                     2CADR    LRPOSCAN
003151:
003152: 25,3531           02357                           TC       ROADBACK
003153:
003154: 25,3532           34744        RADNOOP            CAF      ONE                                   #  NO FURTHER ACTION REQUESTED
003155: 25,3533           05205                           TC       WAITLIST
003156: 25,3534  E7,1456                                  EBANK=   LOSCOUNT
003157: 25,3534           03616 52067                     2CADR    RGOODEND
003158:
003159: 25,3536           02357                           TC       ROADBACK
003160:
003161: 25,3537           55077        LRPOSNXT           TS       SAMPLIM
003162: 25,3540           05223                           TC       FIXDELAY                              #  SCAN ONCE PER SECOND 5 TIMES MAX AFTER
003163: 25,3541           00144                           DEC      100        B-14                       #  INITIAL DELAY OF 7 SECONDS.
003164:
003165: 25,3542           34736                           CAF      BIT7                                  #  SEE IF LR POS2 IS ON
003166: 25,3543           00006                           EXTEND
003167: 25,3544           02033                           RAND     CHAN33
003168: 25,3545           00006                           EXTEND
003169: 25,3546           13555                           BZF      LASTLRDT                              #  IF THERE, WAIT FINAL SECOND FOR BOUNCE.
003170:
003171: 25,3547           11077                           CCS      SAMPLIM                               #  SEE IF MAX TIME UP.
003172: 25,3550           13537                           TCF      LRPOSNXT
003173:
003174: 25,3551           44730                           CS       BIT13                                 #  IF TIME UP, DISABLE COMMAND AND ALARM.
003175: 25,3552           00006                           EXTEND


003177: 25,3553           03012                           WAND     CHAN12
003178: 25,3554           13623                           TCF      RDBADEND
003179:
003180: 25,3555           34771        LASTLRDT           CA       2SECS                                 #  WAIT TWO SECONDS AFTER RECEIPT OF INBIT
003181: 25,3556           05226                           TC       VARDELAY                              #  TO WAIT FOR ANTENNA BOUNCE TO DIE OUT.
003182:
003183: 25,3557           44730                           CS       BIT13                                 #  REMOVE COMMAND
003184: 25,3560           00006                           EXTEND
003185: 25,3561           03012                           WAND     CHAN12
003186: 25,3562           13616                           TCF      RGOODEND
003187:
003188: 25,3563           34742        LRPOSCAN           CAF      FOUR
003189: 25,3564           13537                           TCF      LRPOSNXT
003190: 25,3565           01130        6SECS              DEC      600        B-14
003191:
003192: 25,3566           04607        LRP2COMM           TC       BANKCALL
003193: 25,3567           53511                           CADR     LRPOS2
003194: 25,3570           04607                           TC       BANKCALL
003195: 25,3571           17733                           CADR     RADSTALL
003196: 25,3572           03574                           TC       LP2ALM
003197: 25,3573           13605                           TCF      GOPINNER
003198:
003199: 25,3574           05571        LP2ALM             TC       ALARM
003200: 25,3575           00523                           OCT      523
003201: 25,3576           13605                           TCF      GOPINNER
003202:
003203: 25,3577           35007        V59GP63            CA       EBANK7
003204: 25,3600           54003                           TS       EBANK
003205: 25,3601  E7,1427                                  EBANK=   RPCRTIME
003206: 25,3601           34724                           CA       POSMAX
003207: 25,3602           55427                           TS       RPCRTIME
003208: 25,3603           44727                           CS       BIT14
003209: 25,3604           55430                           TS       RPCRTQSW
003210: 25,3605           04626        GOPINNER           TC       POSTJUMP
003211: 25,3606           21062                           CADR     PINBRNCH
003212:


003214:                                                                                                  #           SEQUENCES TO TERMINATE RR OPERATIONS.
003215:
003216: 25,3607           34736        ENDRADAR           CAF      RCDUFBIT                              #  PROLOG TO CHECK RR CDU FAIL BEFORE END.
003217: 25,3610           70110                           MASK     RADMODES
003218: 25,3611           10000                           CCS      A
003219: 25,3612           13616                           TCF      RGOODEND
003220: 25,3613           13623                           TCF      RDBADEND
003221: 25,3614           44746                 -2        CS       ZERO                                  #  RGOODEND WHEN NOT UNDER WAITLIST CONTROL
003222: 25,3615           54332                           TS       RUPTAGN
003223:
003224: 25,3616           34743        RGOODEND           CAF      TWO
003225: 25,3617           04626                           TC       POSTJUMP
003226: 25,3620           17704                           CADR     GOODEND
003227:
003228: 25,3621           44746                 -2        CS       ZERO                                  #  RDBADEND WHEN NOT UNDER WAITLIST.
003229: 25,3622           54332                           TS       RUPTAGN
003230: 25,3623           34743        RDBADEND           CAF      TWO
003231: 25,3624           04626                           TC       POSTJUMP
003232: 25,3625           17701                           CADR     BADEND
003233:
003234: 25,3626     6266               BIN3               EQUALS   THREE
003235:


003237:                                                                                                  #  PROGRAM NAME_ LPS20.1 VECTOR EXTRAPOLATION AND LOS COMPUTATION
003238:                                                                                                  #  MOD. NO.  2      BY  J.D. COYNE    SDC    DATE   12-7-66
003239:
003240:
003241:                                                                                                  #  FUNCTIONAL DESCRIPTION_
003242:
003243:                                                                                                  #  1) EXTRAPOLATE THE LEM AND CSM VECTORS IN ACCORDANCE WITH THE TIME REFERED TO IN CALLER + 1.
003244:                                                                                                  #  2) COMPUTES THE LOS VECTOR TO THE CSM, CONVERTS IT TO STABLE MEMBER COORDINATES AND STORES IT IN RRTARGET.
003245:                                                                                                  #  3) COMPUTES THE MAGNITUDE OF THE LOS VECTOR AND STORES IT IN MLOSV
003246:
003247:
003248:                                                                                                  #  CALLING SEQUENCE       CALL
003249:                                                                                                  #                                LPS20.1
003250:
003251:                                                                                                  #  SUBROUTINES CALLED_
003252:
003253:                                                                                                  #  LEMPREC,CSMPREC
003254:
003255:
003256:                                                                                                  #  NORMAL EXIT_ RETURN TO CALLER + 2
003257:
003258:
003259:                                                                                                  #  ERROR EXITS_ NONE
003260:
003261:
003262:                                                                                                  #  ALARMS_ NONE
003263:
003264:
003265:                                                                                                  #  OUTPUT_
003266:
003267:                                                                                                  #  LOS VECTOR (HALF UNIT) IN SM COORDINATES STORED IN RRTARGET
003268:                                                                                                  #  MAGNITUDE OF THE LOS VECTOR (METERS SCALED B-29) STORED IN MSLOV
003269:                                                                                                  #  RRNBSW CLEARED
003270:
003271:
003272:                                                                                                  #  INITIALIZED ERASEABLE
003273:
003274:                                                                                                  #  TDEC1 MUST CONTAIN THE TIME FOR EXTRAPOLATION
003275:                                                                                                  #  SEE ORBITAL INTEGRATION ROUTINE
003276:
003277:
003278:                                                                                                  #  DEBRIS_
003279:
003280:                                                                                                  #  MPAC DESTROYED BY THIS ROUTINE
003281:
003282: 23,2335                                           BANK     23
003283: 24,2000                                           SETLOC   P20S
003284: 24,2000                                           BANK


003286: 24,3337                                           COUNT*   $$/LPS20
003287:
003288: 24,3337           43020        LPS20.1            STQ      BOFF
003289: 24,3340           01755                                    LS21X
003290: 24,3341           01343                                    LOSCMFLG                              #  LOSCMFLG = 0 MEANS NOT CALLED BY R21
003291: 24,3342           51346                                    LMINT                                 #  SO CALL LEMCONIC TO GET LM STATE
003292: 24,3343           77614                           BON                                            #  IF IN R21 AND ON LUNAR SURFACE
003293: 24,3344           04307                                    SURFFLAG                              #  DON'T CALL LEMCONIC
003294: 24,3345           51356                                    CSMINT
003295: 24,3346           77624        LMINT              CALL
003296: 24,3347           27136                                    LEMCONIC                              #  EXTRAPOLATE LEM
003297: 24,3350           77775                           VLOAD
003298: 24,3351           00001                                    RATT
003299: 24,3352           26343                           STOVL    LMPOS                                 #  SAVE LM POSITION B-29
003300: 24,3353           00007                                    VATT
003301: 24,3354           16351                           STODL    LMVEL                                 #  SAVE LM VELOCITY B-7
003302: 24,3355           00015                                    TAT
003303: 24,3356           34041        CSMINT             STCALL   TDEC1
003304: 24,3357           27124                                    CSMCONIC                              #   EXTRAPOLATE CSM
003305: 24,3360           52375                           VLOAD    VSU                                   #  COMPUTE RELATIVE VELOCITY V(CSM) - V(LM)
003306: 24,3361           00007                                    VATT
003307: 24,3362           02351                                    LMVEL
003308: 24,3363           00017                           STORE    VELLOS
003309: 24,3364           76521                           MXV      VSL1
003310: 24,3365           01732                                    REFSMMAT
003311: 24,3366           77776                           EXIT
003312: 24,3367           06050                           TC       KILLTASK                              #  KILL THE TASK WHICH CALLS DODES SINCE
003313: 24,3370           52573                           CADR     DESLOOP    +2                         #  STORING INTO ERASEABLES DODES USES
003314: 24,3371           06060                           TC       INTPRET
003315: 24,3372           25757                           STOVL    LOSVEL
003316: 24,3373           00001                                    RATT
003317: 24,3374           43051                           VSU      BOFF
003318: 24,3375           02343                                    LMPOS
003319: 24,3376           00350                                    RNDVZFLG
003320: 24,3377           51404                                    NOTSHIFT
003321: 24,3400           00025                           STORE    RRANGE                                #  RANGE FOR POSSIBLE ALARM B-29
003322: 24,3401           54204                           BOVB     VSL
003323: 24,3402           57756                                    TCDANZIG
003324: 24,3403           20212                                    9D
003325: 24,3404           41056        NOTSHIFT           UNIT     BOVB                                  #  IF OVERFLOW , RANGE MUST BE GREATER
003326: 24,3405           50104                                    526ALARM                              #  THAN 400 N. M.
003327: 24,3406           76521                           MXV      VSL1
003328: 24,3407           01732                                    REFSMMAT                              #  CONVERT TO STABLE MEMBER
003329: 24,3410           15101                           STODL    RRTARGET
003330: 24,3411           00045                                    36D                                   #  SAVE MAGNITUDE OF LOS VECTOR FOR
003331: 24,3412           01765                           STORE    MLOSV                                 #  VELOCITY CORRECTION IN DESIGNATE
003332: 24,3413           77614                           CLRGO
003333: 24,3414           00231                                    RRNBSW
003334: 24,3415           01755                                    LS21X
003335: 24,3416                        RRANGE             EQUALS   20D


003337: 24,3416                        VELLOS             EQUALS   14D
003338:


003340:                                                                                                  #  PROGRAM NAME : LPS20.2 400 N. MI. RANGE CHECK
003341:                                                                                                  #  MOD. NO. 2   BY J.D. COYNE   SDC    DATE  12-7-66
003342:
003343:
003344:                                                                                                  #  FUNCTIONAL DESCRIPTION_
003345:
003346:                                                                                                  #  COMPARES THE MAGNITUDE OF THE LOS VECTOR TO 400 NM
003347:
003348:
003349:                                                                                                  #  CALLING SEQUENCE       CALL
003350:                                                                                                  #                                LPS20.2
003351:
003352:
003353:                                                                                                  #  SUBROUTINES CALLED_ NONE
003354:
003355:
003356:                                                                                                  #  NORMAL EXIT _ RETURN TO CALLER +1, MPAC EQ 0 (RANGE 400NM OR LESS.)
003357:
003358:
003359:                                                                                                  #  ERROR EXITS _ RETURN TO CALLER +1, MPAC EQ 1 (RANGE GREATER THAN 400NM)
003360:
003361:
003362:                                                                                                  #  ALARMS_ NONE
003363:
003364:
003365:                                                                                                  #  OUTPUT_ NONE
003366:
003367:
003368:                                                                                                  #  INITIALIZED ERASEABLE_
003369:
003370:                                                                                                  #  PDL 36D MUST CONTAIN THE MAGNITUDE OF THE VECTOR
003371:                                                                                                  #  DEBRIS
003372:
003373:                                                                                                  #  MPAC DESTROYED BY THIS ROUTINE
003374:
003375: 25,2000                                           SETLOC   P20S1
003376: 25,2000                                           BANK
003377: 25,3626                                           COUNT*   $$/LPS20
003378:
003379: 25,3626           45345        LPS20.2            DLOAD    DSU
003380: 25,3627           01765                                    MLOSV                                 #  MAGNITUDE OF LOS
003381: 25,3630           13641                                    FHNM                                  #  OVER 400NM  _
003382: 25,3631           77644                           BPL
003383: 25,3632           53635                                    TOFAR
003384: 25,3633           43535                           SLOAD    RVQ
003385: 25,3634           06505                                    ZERO/SP
003386: 25,3635           43535        TOFAR              SLOAD    RVQ
003387: 25,3636           13640                                    ONE/SP
003388: 25,3637           00001        ONE/SP             DEC      1          B-14


003390: 25,3640           26467 00000  FHNM               2DEC     740800     B-20                       #  400 NAUTICAL MILES IN METERS B-20
003391:


003393:                                                                                                  #  PROGRAM NAME: LRS22.1 (DATA READ SUBROUTINE 1)
003394:                                                                                                  #  MOD. NO.: 1       BY:  P. VOLANTE  SDC           DATE:  11-15-66
003395:
003396:
003397:                                                                                                  #  FUNCTIONAL DESCRIPTION
003398:
003399:                                                                                                  #  1) READS RENDEZVOUS RADAR RANGE AND RANGE-RATE,TRUNION AND SHAFT ANGLES,THREE CDU VALUES AND TIME. CONVERTS THIS
003400:                                                                                                  #  DATA AND LEAVES IT FOR THE MEASUREMENT INCORPORATION ROUTINE (LSR22.3). CHECKS FOR THE RR DATA GOOD DISCRETE,FOR
003401:                                                                                                  #  RR REPOSITION AND RR CDU FAIL
003402:
003403:                                                                                                  #  2) COMPARES RADAR LOS WITH LOS COMPUTED FROM STATE VECTORS TO SEE IF THEY ARE WITHIN THREE DEGREES
003404:
003405:
003406:                                                                                                  #  CALLING SEQUENCE: BANKCALL FOR LRS22.1
003407:
003408:
003409:                                                                                                  #  SUBROUTINES CALLED:
003410:
003411:                                                                                                  #         RRRDOT    LPS20.1
003412:                                                                                                  #         RRRANGE  BANKCALL
003413:                                                                                                  #         RADSTALL CDULOGIC
003414:                                                                                                  #         RRNB     SMNB
003415:                                                                                                  #  NORMAL EXIT: RETURN TO CALLER+1 WITH MPAC SET TO +0
003416:
003417:
003418:                                                                                                  #  ERROR EXITS: RETURN TO CALLER+1 WITH ERROR CODE STORED IN MPAC AS FOLLOWS:
003419:
003420:                                                                                                  #               00001-ERROR EXIT 1-RR DATA NO GOOD (NO RR DATA GOOD DISCRETE OR RR CDU FAIL OR RR REPOSITION)
003421:                                                                                                  #               00002-ERROR EXIT 2-RR LOS NOT WITHIN THREE DEGREES OF LOS COMPUTED FROM STATE VECTORS
003422:
003423:
003424:                                                                                                  #  ALARMS:  521-COULD NOT READ RADAR DATA (RR DATA GOOD DISCRETE NOT PRESENT BEFORE AND AFTER READING THE RADAR)
003425:                                                                                                  #   (THIS ALARM IS ISSUED BY THE RADAREAD SUBROUTINE WHICH IS ENTERED FROM A RADARUPT)
003426:
003427:
003428:                                                                                                  #  OUTPUT: RRLOSVEC- THE RR LINE-OF-SIGHT VECTOR(USED BY LRS22.2)-A HALF-UNIT VECTOR
003429:                                                                                                  #          RM- THE RR RANGE READING(TO THE CSM) DP, IN METERS SCALED B-29(USED BY LRS22.2 AND LRS22.3)
003430:
003431:                                                                                                  #     ALL OF THE FOLLOWING OUTPUTS ARE USED BY LRS22.3:
003432:
003433:                                                                                                  #          RDOTM- THE RR RANGE-RATE READING,DP, IN METERS PER CENTISECOND, SCALED B-7
003434:                                                                                                  #          RRTRUN-RR TRUNION ANGLE,DP,IN REVOLUTIONS,SCALED B0
003435:                                                                                                  #          RRSHAFT-RR SHAFT ANGLE,DP,IN REVOLUTIONS,SCALED B0
003436:                                                                                                  #          AIG,AMG,AOG-THE CDU ANGLES,THREE SP WORDS
003437:                                                                                                  #          MKTIME-THE TIME OF THE RR READING,DP,IN CENTISECONDS
003438:
003439:
003440:                                                                                                  #  ERASABLE INITIALIZATION REQUIRED:
003441:
003442:                                                                                                  #     RNRAD,THE RADAR READ COUNTER FROM WHICH IS OBTAINED:


003444:                                                                                                  #      1)RR RANGE SCALED 9.38 FT. PER BIT ON THE LOW SCALE AND 75.04 FT. PER BIT ON THE HIGH SCALE
003445:                                                                                                  #      2)RR RANGE RATE,SCALED .6278 FT./SEC. PER BIT
003446:
003447:                                                                                                  #     THE CDU ANGLES FROM CDUX,CDUY,CDUZ AND TIME1 AND TIME2
003448:
003449:
003450:                                                                                                  #  DEBRIS:  LRS22.1X,A,L,Q,PUSHLIST
003451:
003452:
003453: 32,2362                                           BANK     32
003454: 32,2000                                           SETLOC   LRS22
003455: 32,2000                                           BANK
003456: 32,2362                                           COUNT*   $$/LRS22
003457:
003458: 32,2362           04636        LRS22.1            TC       MAKECADR
003459: 32,2363           55737                           TS       LRS22.1X
003460: 32,2364           05520                           TC       DOWNFLAG
003461: 32,2365           00120                           ADRES    RNGSCFLG
003462: 32,2366           00004                           INHINT
003463: 32,2367           34742                           CAF      BIT3
003464: 32,2370           00006                           EXTEND                                         #  GET RR RANGE SCALE
003465: 32,2371           02033                           RAND     CHAN33                                #  FROM CHANNEL 33 BIT 3
003466: 32,2372           54001                           TS       L
003467: 32,2373           44742                           CS       RRRSBIT
003468: 32,2374           70110                           MASK     RADMODES
003469: 32,2375           60001                           AD       L
003470: 32,2376           54110                           TS       RADMODES
003471: 32,2377           00003                           RELINT
003472: 32,2400           04607        READRDOT           TC       BANKCALL
003473: 32,2401           53072                           CADR     RRRDOT                                #  READ RANGE-RATE (ONE SAMPLE)
003474: 32,2402           04607                           TC       BANKCALL
003475: 32,2403           17733                           CADR     RADSTALL                              #  WAIT FOR DATA READ COMPLETION
003476: 32,2404           12560                           TCF      EREXIT1                               #  COULD NOT READ RADAR-ERROR EXIT 1
003477:
003478: 32,2405           00004                           INHINT                                         #  NO INTERRUPTS WHILE READING TIME AND CDU
003479: 32,2406           53105                           DXCH     TIMEHOLD                              #  SET MARK TIME EQUAL TO THE MID-POINT
003480: 32,2407           52162                           DXCH     MPAC       +5                         #  TEMP BUFFER FOR DOWNLINK
003481: 32,2410           53101                           DXCH     SAMPLSUM                              #  SAVE RANGE-RATE READING
003482: 32,2411           53747                           DXCH     RDOTMSAV
003483: 32,2412           00006                           EXTEND
003484: 32,2413           30034                           DCA      CDUY                                  #  SAVE ICDU ANGLES
003485: 32,2414           52160                           DXCH     MPAC       +3                         #  TEMP BUFFER FOR DOWNLINK
003486: 32,2415           30032                           CA       CDUX
003487: 32,2416           54156                           TS       MPAC       +2                         #  TEMP BUFFER FOR DOWNLINK
003488: 32,2417           00006                           EXTEND
003489: 32,2420           30025                           DCA      TIME2                                 #   SAVE TIME
003490: 32,2421           52155                           DXCH     MPAC                                  #  SAVE TIME OF CDY READINGS IN MPAC
003491: 32,2422           00006                           EXTEND
003492: 32,2423           30036                           DCA      CDUT                                  #  SAVE TRUNION AND SHAFT ANGLES FOR RRNB
003493: 32,2424           53107                           DXCH     TANG


003495: 32,2425           00003                           RELINT
003496: 32,2426           04607                           TC       BANKCALL
003497: 32,2427           53074                           CADR     RRRANGE                               #  READ RR RANGE (ONE SAMPLE)
003498: 32,2430           04607                           TC       BANKCALL
003499: 32,2431           17733                           CADR     RADSTALL                              #  WAIT FOR READ COMPLETE
003500: 32,2432           02554                           TC       CHEXERR                               #  CHECK FOR ERRORS DURING READ
003501: 32,2433           00004                           INHINT                                         #  COPY CYCLE FOR MARK DATA ON DOWNLINK
003502: 32,2434           00006                           EXTEND
003503: 32,2435           31331                           DCA      DNRRANGE                              #  RANGE,RANGE RATE (RAW DATA)
003504: 32,2436           53761                           DXCH     RANGRDOT
003505: 32,2437           52162                           DXCH     MPAC       +5
003506: 32,2440           53755                           DXCH     MKTIME                                #  MARK TIME
003507: 32,2441           52160                           DXCH     MPAC       +3
003508: 32,2442           53460                           DXCH     AIG                                   #  CDUY, CDUZ
003509: 32,2443           00006                           EXTEND
003510: 32,2444           31107                           DCA      TANG                                  #  PRESERVE TANG
003511: 32,2445           53753                           DXCH     TANGNB                                #  TRUNNION AND SHAFT ANGLES
003512: 32,2446           30156                           CA       MPAC       +2
003513: 32,2447           55461                           TS       AOG                                   #  CDUX
003514: 32,2450           06060                           TC       INTPRET
003515: 32,2451           14025                           STODL    20D                                   #  SAVE TIME OF CDU READINGS IN 20D
003516: 32,2452           03755                                    MKTIME
003517: 32,2453           45225                           DSU      DSU
003518: 32,2454           01777                                    OLDAGS
003519: 32,2455           24567                                    50SECS                                #  50 SECS SINCE LAST AGS DOWNLIST?
003520: 32,2456           77440                           BMN      EXIT
003521: 32,2457           64472                                    NOAGS                                 #  NO
003522:
003523: 32,2460           40110                           CS       FLGWRD12                              #  IS RR READING HIGH SCALE
003524: 32,2461           74742                           MASK     RRRSBIT
003525: 32,2462           10000                           CCS      A
003526: 32,2463           34724                           CA       POSMAX                                #  NO- LOW SCALE (SET CONFIG) AGSCODE=17776
003527: 32,2464           62565                           AD       OCT57776                              #  YES- HI SCALE (SET CONFIG) AGSCODE=57776
003528: 32,2465           55073                           TS       AGSCODE                               #  SET AGS CODE WORD
003529: 32,2466           06060                           TC       INTPRET
003530: 32,2467           77745                           DLOAD
003531: 32,2470           03755                                    MKTIME
003532: 32,2471           01777                           STORE    OLDAGS                                #  SAVE AGS DOWNLINK TIME
003533:
003534: 32,2472           77745        NOAGS              DLOAD
003535: 32,2473           03747                                    RDOTMSAV                              #  CONVERT RDOT UNITS AND SCALING
003536: 32,2474           57261                           SL       DMPR                                  #  START WITH READING SCALED B-28, -.6278
003537: 32,2475           20217                                    14D                                   #  FT./SECOND PER BIT
003538: 32,2476           24002                                    RDOTCONV                              #  END WITH METERS/CENTISECOND, B-7
003539: 32,2477           03751                           STORE    RDOTM
003540: 32,2500           47135                           SLOAD    RTB
003541: 32,2501           01107                                    TANG                                  #  GET TRUNION ANGLE
003542: 32,2502           21606                                    CDULOGIC                              #  CONVERT TO DP ONES COMP. IN REVOLUTIONS
003543: 32,2503           03734                           STORE    RRTRUN                                #  AND SAVE FOR TMI ROUTINE (LSR22.3)
003544: 32,2504           47135                           SLOAD    RTB


003546: 32,2505           01110                                    TANG       +1                         #  DITTO FOR SHAFT ANGLE
003547: 32,2506           21606                                    CDULOGIC
003548: 32,2507           17736                           STODL    RRSHAFT
003549: 32,2510           01101                                    SAMPLSUM
003550: 32,2511           66405                           DMP      SL2R                                  #  CONVERT UNITS AND SCALING OF RANGE
003551: 32,2512           24004                                    RANGCONV                              #  PER BIT, END WITH METERS,SCALED -29
003552: 32,2513           37757                           STCALL   RM
003553: 32,2514           46041                                    RRNB                                  #  COMPUTE RADAR LOS USING RRNB
003554: 32,2515           17741                           STODL    RRBORSIT                              #  AND SAVE
003555: 32,2516           00025                                    20D
003556: 32,2517           34041                           STCALL   TDEC1                                 #  GET STATE VECTOR LOS AT TIME OF CDU READ
003557: 32,2520           51337                                    LPS20.1
003558: 32,2521           77776                           EXIT
003559: 32,2522           31457                           CA       AIG                                   #  STORE IMU CDU ANGLES AT MARKTIME
003560: 32,2523           54765                           TS       CDUSPOT                               #  IN CDUSPOT FOR TRG*SMNB
003561: 32,2524           31460                           CA       AMG
003562: 32,2525           54767                           TS       CDUSPOT    +2
003563: 32,2526           31461                           CA       AOG
003564: 32,2527           54771                           TS       CDUSPOT    +4
003565: 32,2530           06060                           TC       INTPRET
003566: 32,2531           45175                           VLOAD    CALL                                  #  LOAD VECTOR AND CALL TRANSFORMATION
003567: 32,2532           01101                                    RRTARGET
003568: 32,2533           47643                                    TRG*SMNB                              #  ROTATE LOS AT MARKTIME FROM SM TO NB.
003569: 32,2534           77641                           DOT                                            #  DOT WITH RADAR LOS TO GET ANGLE
003570: 32,2535           03741                                    RRBORSIT
003571: 32,2536           65552                           SL1      ACOS                                  #  BETWEEN THEM
003572: 32,2537           01045                           STORE    DSPTEM1                               #  STORE FOR POSSIBLE DISPLAY
003573: 32,2540           50025                           DSU      BMN                                   #  IS IT LESS THAN 3 DEGREES
003574: 32,2541           24564                                    THREEDEG
003575: 32,2542           64547                                    NORMEXIT                              #  YES-NORMAL EXIT
003576:
003577: 32,2543           77776                           EXIT                                           #  ERROR EXIT 2
003578: 32,2544           34743                           CAF      BIT2                                  #  SET ERROR CODE
003579: 32,2545           54154                           TS       MPAC
003580: 32,2546           12552                           TCF      OUT22.1
003581:
003582: 32,2547           77776        NORMEXIT           EXIT                                           #  NORMAL EXIT-SET MPAC EQUAL ZERO
003583: 32,2550           34746                           CAF      ZERO
003584: 32,2551           54154                           TS       MPAC
003585: 32,2552           31737        OUT22.1            CAE      LRS22.1X                              #  EXIT FROM LRS22.1
003586: 32,2553           04631                           TC       BANKJUMP
003587: 32,2554           30101        CHEXERR            CAE      FLAGWRD5
003588: 32,2555           74733                           MASK     RNGSCBIT
003589: 32,2556           10000                           CCS      A                                     #  CHECK IF RANGE SCALE CHANGED
003590: 32,2557           12400                           TCF      READRDOT                              #  YES-TAKE ANOTHER READING
003591:
003592: 32,2560           34744        EREXIT1            CA       BIT1                                  #  SET ERROR CODE
003593: 32,2561           54154                           TS       MPAC
003594: 32,2562           02552                           TC       OUT22.1
003595: 32,2563           00210 21042  THREEDEG           2DEC     .008333333                            #  THREE DEGREES,SCALED  REVS,B0
003596:


003598: 32,2565           57776        OCT57776           OCT      57776                                 #  AGS CODE WORD - HIGH RANGE SCALE - SET
003599: 32,2566           00000 11610  50SECS             2DEC     5000       B-28
003600:


003602:                                                                                                  #  PROGRAM NAME - LRS22.2 (DATA READ SUBROUTINE 2)
003603:
003604:
003605:                                                                                                  #  MOD. NO. : 1       BY: P VOLANTE  SDC           DATE  4-11-67
003606:
003607:                                                                                                  #  FUNCTIONAL DESCRIPTION-


003609:                                                                                                  #     2) CHECKS IF THE RR LOS (I.E. THE RADAR BORESIGHT VECTOR) IS WITHIN 30 DEGREES OF THE LM +Z AXIS
003610:
003611:
003612:                                                                                                  #  CALLING SEQUENCE- BANKCALL FOR LRS22.2
003613:
003614:
003615:                                                                                                  #  SUBROUTINES CALLED: G+N,AUTO   SETMAXDB
003616:                                                                                                  #  NORMAL EXIT - RETURN TO CALLER WITH MPAC SET TO +0 (VIA SWRETURN)
003617:
003618:
003619:                                                                                                  #  ERROR EXIT - RETURN TO CALLER WITH MPAC SET TO 00001 -RADAR LOS NOT WITHIN 30 DEGREES OF LM +Z AXIS
003620:
003621:
003622:                                                                                                  #  ALARMS - NONE                                                            IN THE AUTO MODE
003623:
003624:
003625:                                                                                                  #  ERASABLE INITIALIZATION REQUIRED -
003626:                                                                                                  #       RRLOSVEC - THE RR LINE-OF-SIGHT VECTOR-A HALF UNIT VECTOR COMPUTED BY LRS22.1
003627:                                                                                                  #       RM - RR RANGE, METERS B-29, FROM LRS22.1
003628:                                                                                                  #       BIT 14 CHANNEL 31 -INDICATES AUTOPILOT IS IN AUTO MODE
003629:
003630:
003631:                                                                                                  #  DEBRIS -  A,L,Q MPAC -PUSHLIST AND PUSHLOC ARE NOT CHANGED BY THIS ROUTINE
003632:
003633: 24,2000                                           SETLOC   P20S
003634: 24,2000                                           BANK
003635: 24,3416           04636        LRS22.2            TC       MAKECADR
003636: 24,3417           55737                           TS       LRS22.1X
003637: 24,3420           06060                           TC       INTPRET
003638:                                                                                                  #  CHECK IF RR LOS IS WITHIN 30 DEG OF
003639: 24,3421           65545        30DEGCHK           DLOAD    ACOS                                  #  THE SPACECRAFT +Z AXIS
003640: 24,3422           03745                                    RRBORSIT   +4                         #  BY TAKING ARCCOS OF Z-COMP. OF THE RR
003641:                                                                                                  #  LOS VECTOR,A HALF UNIT VECTOR
003642:                                                                                                  #  IN NAV BASE AXES)
003643: 24,3423           50025                           DSU      BMN
003644: 24,3424           11440                                    30DEG
003645: 24,3425           51432                                    OKEXIT                                #  NORMAL EXIT-WITHIN 30 DEG.
003646: 24,3426           77776                           EXIT                                           #  ERROR EXIT-NOT WITHIN 30 DEG.
003647: 24,3427           34744                           CAF      BIT1                                  #  SET ERROR CODE IN MPAC
003648: 24,3430           54154                           TS       MPAC
003649: 24,3431           13435                           TCF      OUT22.2
003650: 24,3432           77776        OKEXIT             EXIT                                           #  NORMAL EXIT-SET MPAC = ZERO
003651:


003653: 24,3433           34746                           CAF      ZERO
003654: 24,3434           54154                           TS       MPAC
003655: 24,3435           31737        OUT22.2            CAE      LRS22.1X
003656: 24,3436           04631                           TC       BANKJUMP
003657:
003658: 24,3437           02525 12525  30DEG              2DEC     .083333333                            #  THIRTY DEGREES,SCALED REVS,B0
003659:


003661:                                                                                                  #  PROGRAM NAME - LSR22.3                                                  DATE - 29 MAY 1967
003662:                                                                                                  #  MOD. NO 3                                                               LOG SECTION - P20-25
003663:                                                                                                  #  MOD. BY - DANFORTH                                                      ASSEMBLY LEMP20S REV 10
003664:
003665:                                                                                                  #  FUNCTIONAL DESCRIPTION
003666:
003667:                                                                                                  #  THIS ROUTINE COMPUTES THE B-VECTORS AND DELTA Q FOR EACH OF THE QUANTITIES MEASURED BY THE RENDEZVOUS
003668:                                                                                                  #  RADAR.(RANGE,RANGE RATE,SHAFT AND TRUNNION ANGLES). THE ROUTINE CALLS THE INCORP1 AND INCORP2 ROUTINES
003669:                                                                                                  #  WHICH COMPUTE THE DEVIATIONS AND CORRECT THE STATE VECTOR.
003670:
003671:                                                                                                  #  CALLING SEQUENCE
003672:                                                                                                  #  THIS ROUTINE IS PART OF P20 RENDEZVOUS NAVIGATION FOR THE LM COMPUTER O NLY. THE ROUTINE IS ENTERED FROM
003673:                                                                                                  #  R22LEM  ONLY AND RETURNS DIRECTLY TO R22LEM  FOLLOWING SUCCESSFUL INCORPORATION OF MEASURED DATA. IF THE
003674:                                                                                                  #  COMPUTED STATE VECTOR DEVIATIONS EXCEED THE MAXIMUM PERMITTED. THE ROUTINE RETURNS TO R22LEM  TO DISPLAY
003675:                                                                                                  #  THE DEVIATIONS. IF THE ASTRONAUT ACCEPTS THE DATA R22LEM  RETURNS TO    LSR22.3 TO INCORPORATE THE
003676:                                                                                                  #  DEVIATIONS INTO THE STATE VECTOR. IF THE ASTRONAUT REJECTS THE DEVIATIONS, NO MORE MEASUREMENTS ARE
003677:                                                                                                  #  PROCESSED FOR THIS MARK,I.E.,R22LEM  GETS THE NEXT MARK.
003678:
003679:
003680:                                                                                                  #  SUBROUTINES CALLED
003681:                                                                                                  #   WLINIT     LGCUPDTE     INTEGRV     INCORP1     ARCTAN
003682:                                                                                                  #   GETULC     RARARANG     INCORP2     NBSM        INTSTALL
003683:
003684:                                                                                                  #  OUTPUT
003685:                                                                                                  #   CORRECTED LM OR CSM STATE VECTOR (PERMANENT)
003686:                                                                                                  #   NUMBER OF MARKS INCORPORATED IN MARKCTR
003687:                                                                                                  #   MAGNITUDE OF POSITION DEVIATION (FOR DISPLAY) IN R22DISP METERS B-29
003688:                                                                                                  #   MAGNITUDE OF VELOCITY DEVIATION (FOR DISPLAY) IN R22DISP +2 M/CSEC B-7
003689:                                                                                                  #   UPDATED W-MATRIX
003690:
003691:
003692:                                                                                                  #  ERASABLE INITIALIZATION REQUIRED
003693:                                                                                                  #   LM AND CSM STATE VECTORS
003694:                                                                                                  #   W-MATRIX
003695:                                                                                                  #   MARK TIME IN MKTIME
003696:                                                                                                  #   RADAR RANGE IN RM METERS B-29
003697:                                                                                                  #         RANGE RATE IN RDOTM METERS/CSES B-7
003698:                                                                                                  #         SHAFT ANGLE IN RRSHAFT REVS.B0
003699:                                                                                                  #         TRUNNION ANGLE IN RRTRUN REVS. B0
003700:                                                                                                  #   GIMBAL ANGLES  INNER IN AIG
003701:                                                                                                  #                  MIDDLE IN AMG
003702:                                                                                                  #                  OUTER IN AOG
003703:                                                                                                  #   REFSMMAT
003704:                                                                                                  #   RENDWFLG
003705:                                                                                                  #   NOANGFLG
003706:                                                                                                  #   VEHUPFLG
003707:
003708:                                                                                                  #  DEBRIS
003709:                                                                                                  #   PUSHLIST--ALL
003710:                                                                                                  #   MX, MY, MZ  (VECTORS)


003712:                                                                                                  #   ULC,RXZ,SINTHETA,LGRET,RDRET,BVECTOR,W.IND,X78T
003713:
003714:
003715: 13,2207                                           BANK     13
003716: 26,2000                                           SETLOC   P20S3
003717: 26,2000                                           BANK
003718:
003719: 26,2424  E7,1456                                  EBANK=   LOSCOUNT
003720: 26,2424                                           COUNT*   $$/LSR22
003721: 26,2424           77624        LSR22.3            CALL
003722: 26,2425           51770                                    GRP2PC
003723: 26,2426           43014                           BON      SET
003724: 26,2427           04307                                    SURFFLAG                              #  ARE WE ON LUNAR SURFACE
003725: 26,2430           55206                                    LSR22.4                               #  YES
003726: 26,2431           02466                                    DMENFLG
003727: 26,2432           45014                           BOFF     CALL
003728: 26,2433           00747                                    VEHUPFLG
003729: 26,2434           54466                                    DOLEM
003730: 26,2435           27447                                    INTSTALL
003731: 26,2436           45014                           CLEAR    CALL                                  #  LM PRECISION INTEGRATION
003732: 26,2437           01674                                    VINTFLAG
003733: 26,2440           26702                                    SETIFLGS
003734: 26,2441           77624                           CALL
003735: 26,2442           53642                                    INTGRCAL
003736: 26,2443           77624                           CALL
003737: 26,2444           51770                                    GRP2PC
003738: 26,2445           77624                           CALL
003739: 26,2446           27447                                    INTSTALL
003740: 26,2447           43014                           CLEAR    BOFF
003741: 26,2450           01676                                    DIM0FLAG
003742: 26,2451           02756                                    RENDWFLG
003743: 26,2452           54456                                    NOTWCSM
003744: 26,2453           43014                           SET      SET                                   #  CSM WITH W-MATRIX INTEGRATION
003745: 26,2454           01476                                    DIM0FLAG
003746: 26,2455           01475                                    D6OR9FLG
003747: 26,2456           43014        NOTWCSM            SET      CLEAR
003748: 26,2457           01474                                    VINTFLAG
003749: 26,2460           01673                                    INTYPFLG
003750: 26,2461           45014                           SET      CALL
003751: 26,2462           01472                                    STATEFLG
003752: 26,2463           53642                                    INTGRCAL
003753: 26,2464           77650                           GOTO
003754: 26,2465           54516                                    MARKTEST
003755: 26,2466           77624        DOLEM              CALL
003756: 26,2467           27447                                    INTSTALL
003757: 26,2470           45014                           SET      CALL
003758: 26,2471           01474                                    VINTFLAG
003759: 26,2472           26702                                    SETIFLGS
003760: 26,2473           77624                           CALL
003761: 26,2474           53642                                    INTGRCAL


003763: 26,2475           77624                           CALL
003764: 26,2476           51770                                    GRP2PC
003765: 26,2477           77624                           CALL
003766: 26,2500           27447                                    INTSTALL
003767: 26,2501           43014                           CLEAR    BOFF
003768: 26,2502           01676                                    DIM0FLAG
003769: 26,2503           02756                                    RENDWFLG
003770: 26,2504           54510                                    NOTWLEM
003771: 26,2505           43014                           SET      SET                                   #  LM WITH W-MATRIX INTEGRATION
003772: 26,2506           01476                                    DIM0FLAG
003773: 26,2507           01475                                    D6OR9FLG
003774: 26,2510           43014        NOTWLEM            CLEAR    CLEAR
003775: 26,2511           01673                                    INTYPFLG
003776: 26,2512           01674                                    VINTFLAG
003777: 26,2513           45014                           SET      CALL
003778: 26,2514           01472                                    STATEFLG
003779: 26,2515           53642                                    INTGRCAL
003780: 26,2516           45014        MARKTEST           BON      CALL                                  #  HAS W-MATRIX BEEN INVALIDATED
003781: 26,2517           02716                                    RENDWFLG                              #  HAS W-MATRIX BEEN INVALIDATED
003782: 26,2520           54522                                    RANGEBQ
003783: 26,2521           55250                                    WLINIT                                #  YES-REINITIALIZE
003784: 26,2522           77414        RANGEBQ            BON      EXIT                                  #  DON'T CALL R65 IF ON SURFACE
003785: 26,2523           04307                                    SURFFLAG
003786: 26,2524           54532                                    RANGEBQ1
003787: 26,2525           34746                           CA       ZERO
003788: 26,2526           55745                           TS       R65CNTR
003789: 26,2527           04607                           TC       BANKCALL
003790: 26,2530           46123                           CADR     R65LEM
003791: 26,2531           06060                           TC       INTPRET
003792: 26,2532           43174        RANGEBQ1           AXT,2    BON                                   #  CLEAR X2
003793: 26,2533           00000                                    0
003794: 26,2534           04304                                    LMOONFLG                              #  IS MOON SPHERE OF INFLUENCE
003795: 26,2535           54540                                    SETX2                                 #  YES. STORE ZERO IN SCALSHFT REGISTER
003796: 26,2536           77714                           INCR,2
003797: 26,2537           00002                                    2
003798: 26,2540           45134        SETX2              SXA,2    CALL
003799: 26,2541           03720                                    SCALSHFT                              #  0-MOON. 2-EARTH
003800: 26,2542           51770                                    GRP2PC
003801: 26,2543           66170                           AXT,1    SXA,1                                 #  STORE RANGE CODE (1) FOR R3 IN NOUN 49
003802: 26,2544           00001                                    1
003803: 26,2545           01353                                    WHCHREAD
003804: 26,2546           54335                           SLOAD    SR                                    #  GET SINGLE PRECISION RVARMIN (B-12)
003805: 26,2547           01773                                    RVARMIN                               #  SHIFT TO TRIPLE PRECISION    (B-40)
003806: 26,2550           20635                                    28D
003807: 26,2551           77634                           RTB
003808: 26,2552           21643                                    TPMODE                                #  AND SAVE  IN 20D
003809: 26,2553           00025                           STORE    20D
003810: 26,2554           77624                           CALL                                           #  BEGIN COMPUTING THE B-VECTORS,DELTAQ
003811: 26,2555           55332                                    GETULC                                #  B-VECTORS FOR RANGE
003812: 26,2556           57414                           BON      VCOMP                                 #  B0, COMP. IF LM BEING CORRECTED


003814: 26,2557           00707                                    VEHUPFLG
003815: 26,2560           54561                                    +1
003816: 26,2561           27525                           STOVL    BVECTOR
003817: 26,2562           06505                                    ZEROVECS
003818: 26,2563           03533                           STORE    BVECTOR    +6                         #  B1
003819: 26,2564           17541                           STODL    BVECTOR    +12D                       #  B2
003820: 26,2565           00045                                    36D
003821: 26,2566           44257                           SRR*     BDSU
003822: 26,2567           56174                                    2,2                                   #  SHIFT FROM EARTH/MOON SPHERE TO B-29
003823: 26,2570           03757                                    RM                                    #  RM - (MAGNITUDE RCSM-RLM)
003824: 26,2571           77657                           SLR*
003825: 26,2572           56574                                    2,2                                   #  SHIFT TO EARTH/MOON SPHERE
003826: 26,2573           17547                           STODL    DELTAQ                                #  EARTH B-29. MOON B-27
003827: 26,2574           00045                                    36D                                   #  RLC B-29/B-27
003828: 26,2575           63501                           NORM     DSQ                                   #  NORMALIZE AND SQUARE
003829: 26,2576           00047                                    X1
003830: 26,2577           53605                           DMP      SR*
003831: 26,2600           01767                                    RANGEVAR                              #  MULTIPLY BY RANGEVAR(B12) THEN
003832: 26,2601           20577                                    0          -2,1                       #  UNNORMALIZE
003833: 26,2602           53657                           SR*      SR*
003834: 26,2603           20601                                    0,1
003835: 26,2604           57176                                    0,2
003836: 26,2605           47057                           SR*      RTB
003837: 26,2606           57176                                    0,2
003838: 26,2607           21643                                    TPMODE
003839: 26,2610           02707                           STORE    VARIANCE                              #  B-40
003840: 26,2611           76276                           DCOMP    TAD
003841: 26,2612           00025                                    20D                                   #    B-40
003842: 26,2613           72240                           BMN      TLOAD
003843: 26,2614           54617                                    QOK
003844: 26,2615           00025                                    20D                                   #    B-40
003845: 26,2616           02707                           STORE    VARIANCE
003846: 26,2617           77624        QOK                CALL
003847: 26,2620           55400                                    LGCUPDTE
003848:
003849: 26,2621           45131                           SSP      CALL
003850: 26,2622           01354                                    WHCHREAD
003851: 26,2623           00002                           DEC      2          B-14                       #  STORE R-RATE CODE (2) FOR R3 IN NOUN 49
003852: 26,2624           51770                                    GRP2PC
003853: 26,2625           77624                           CALL                                           #  B-VECTOR,DELTAQ FOR RANGE RATE
003854: 26,2626           55332                                    GETULC
003855: 26,2627           53725                           PDDL     SR*                                   #  GET RLC SCALED B-29/B-27
003856: 26,2630           00045                                    36D                                   #  AND SHIFT TO B-23
003857: 26,2631           57202                                    0          -4,2
003858: 26,2632           24045                           STOVL    36D                                   #  THEN STORE BACK IN 36D
003859: 26,2633           57414                           BON      VCOMP                                 #  B1, COMP. IF LM BEING CORRECTED
003860: 26,2634           00707                                    VEHUPFLG
003861: 26,2635           54636                                    +1
003862: 26,2636           77761                           VXSC
003863: 26,2637           00045                                    36D                                   #  B1 = RLC  (B-24/B-22)


003865: 26,2640           27533                           STOVL    BVECTOR    +6
003866: 26,2641           01653                                    NUVLEM
003867: 26,2642           53257                           VSR*     VAD
003868: 26,2643           57170                                    6,2                                   #  SHIFT FOR EARTH/MOON SPHERE
003869: 26,2644           01667                                    VCVLEM                                #  EARTH B-7. MOON B-5
003870: 26,2645           53715                           PDVL     VSR*                                  #  VL TO PD6
003871: 26,2646           01601                                    NUVCSM
003872: 26,2647           57170                                    6,2                                   #  SHIFT FOR EARTH/MOON SPHERE
003873: 26,2650           52255                           VAD      VSU
003874: 26,2651           01615                                    VCVCSM
003875: 26,2652           50315                           PDVL     DOT                                   #  VC - VL = VLC TO PD6
003876: 26,2653           00001                                    0
003877: 26,2654           00007                                    6
003878: 26,2655           53606                           PUSH     SRR*                                  #  RDOT B-8/B-6 TO PD12
003879: 26,2656           56174                                    2,2                                   #  SHIFT FROM EARTH/MOON SPHERE TO B-8
003880: 26,2657           57316                           DSQ      DMPR                                  #  RDOT**2 B-16 X RATEVAR B12
003881: 26,2660           01771                                    RATEVAR
003882: 26,2661           02707                           STORE    VARIANCE
003883: 26,2662           54335                           SLOAD    SR
003884: 26,2663           01774                                    VVARMIN                               #  GET SINGLE PRECISION VVARMIN (B+12)
003885: 26,2664           20621                                    16D                                   #  SHIFT TO DP (B -4)
003886: 26,2665           00031                           STORE    24D                                   #  AND SAVE IN 24D
003887: 26,2666           50025                           DSU      BMN                                   #  IS MIN. VARIANCE > COMPUTED VARIANCE
003888: 26,2667           02707                                    VARIANCE
003889: 26,2670           54674                                    VOK                                   #  BRANCH - NO
003890: 26,2671           77745                           DLOAD                                          #  YES - USE MINIMUM VARIANCE
003891: 26,2672           00031                                    24D
003892: 26,2673           02707                           STORE    VARIANCE
003893: 26,2674           60545        VOK                DLOAD    SR2                                   #  RDOT(PD12) FROM B-8/B-6
003894: 26,2675           53725                           PDDL     SLR*                                  #  TO B-10/B-8
003895: 26,2676           03751                                    RDOTM                                 #  SHIFT TO EARTH/MOON SPHERE
003896: 26,2677           56577                                    0          -1,2                       #  B-7 TO B-10/B-8
003897: 26,2700           77625                           DSU
003898: 26,2701           77675                           DMPR
003899: 26,2702           00045                                    36D
003900: 26,2703           27547                           STOVL    DELTAQ                                #    B-33
003901: 26,2704           00001                                    0                                     #  NOW GET B0
003902: 26,2705           47235                           VXV      VXV                                   #  (ULC X VLC) X ULC
003903: 26,2706           57414                           BON      VCOMP                                 #  B0, COMP. IF LM BEING CORRECTED
003904: 26,2707           00707                                    VEHUPFLG
003905: 26,2710           54711                                    +1
003906: 26,2711           77657                           VSR*
003907: 26,2712           57200                                    0          -2,2                       #  SCALED B-5
003908: 26,2713           27525                           STOVL    BVECTOR
003909: 26,2714           06505                                    ZEROVECS
003910: 26,2715           00025                           STORE    20D                                   #  ZERO OUT 20 TO 25 IN PUSHLIST
003911: 26,2716           27541                           STOVL    BVECTOR    +12D
003912: 26,2717           03525                                    BVECTOR
003913: 26,2720           60246                           ABVAL    NORM                                  #  LOAD B0, GET MAGNITUDE AND NORMALIZE
003914: 26,2721           00025                                    20D                                   #  SHIFT COUNT IN 20D


003916: 26,2722           51575                           VLOAD    ABVAL
003917: 26,2723           03533                                    BVECTOR    +6D                        #  LOAD B1, GET MAGNITUDE AND NORMALIZE
003918: 26,2724           71301                           NORM     DLOAD
003919: 26,2725           00027                                    22D                                   #  SHIFT COUNT IN 22D
003920: 26,2726           00027                                    22D                                   #  FIND WHICH SHIFT IS SMALLER
003921: 26,2727           50025                           DSU      BMN                                   #  BRANCH- B0 HAS SMALLER SHIFT COUNT
003922: 26,2730           00025                                    20D
003923: 26,2731           54735                                    VOK1
003924: 26,2732           52150                           LXA,1    GOTO
003925: 26,2733           00026                                    22D                                   #  LOAD X2 WITH THE SMALLER SHIFT COUNT
003926: 26,2734           54737                                    VOK2
003927: 26,2735           77750        VOK1               LXA,1
003928: 26,2736           00024                                    20D
003929: 26,2737           53775        VOK2               VLOAD    VSL*                                  #  THEN ADJUST B0,B1,DELTAQ AND VARIANCE
003930: 26,2740           03525                                    BVECTOR                               #  WITH THIS SHIFT COUNT
003931: 26,2741           20201                                    0,1
003932: 26,2742           27525                           STOVL    BVECTOR
003933: 26,2743           03533                                    BVECTOR    +6
003934: 26,2744           77657                           VSL*
003935: 26,2745           20201                                    0,1
003936: 26,2746           17533                           STODL    BVECTOR    +6
003937: 26,2747           03547                                    DELTAQ
003938: 26,2750           77657                           SL*
003939: 26,2751           20201                                    0,1
003940: 26,2752           03547                           STORE    DELTAQ
003941: 26,2753           53745                           DLOAD    SL*                                   #  GET RLC AND ADJUST FOR SCALE SHIFT
003942: 26,2754           00045                                    36D
003943: 26,2755           20200                                    0          -1,1
003944: 26,2756           41316                           DSQ      DMP                                   #  MULTIPLY RLC**2 BY VARIANCE
003945: 26,2757           02707                                    VARIANCE
003946: 26,2760           47012                           SL4      RTB                                   #  SHIFT TO CONFORM TO BVECTORS AND DELTAQ
003947: 26,2761           21643                                    TPMODE
003948: 26,2762           36707                           STCALL   VARIANCE                              #  AND STORE TP VARIANCE
003949: 26,2763           55400                                    LGCUPDTE
003950:
003951: 26,2764           77624                           CALL
003952: 26,2765           51770                                    GRP2PC
003953: 26,2766           77414                           BON      EXIT                                  #  ARE ANGLES TO BE DONE
003954: 26,2767           04307                                    SURFFLAG
003955: 26,2770           55204                                    RENDEND                               #  NO
003956: 26,2771  E7,1457                                  EBANK=   AIG
003957: 26,2771           33331        MXMYMZ             CAF      AIGBANK
003958: 26,2772           54006                           TS       BBANK
003959: 26,2773           31457                           CA       AIG                                   #  YES, COMPUTE  MX, MY, MZ
003960: 26,2774           54765                           TS       CDUSPOT
003961: 26,2775           31460                           CA       AMG
003962: 26,2776           54767                           TS       CDUSPOT    +2
003963: 26,2777           31461                           CA       AOG
003964: 26,3000           54771                           TS       CDUSPOT    +4                         #  GIMBL ANGLES NOW IN CDUSPOT FOR TRG*NBSM
003965: 26,3001           06060                           TC       INTPRET


003967: 26,3002           45175                           VLOAD    CALL
003968: 26,3003           06503                                    UNITX
003969: 26,3004           47656                                    TRG*NBSM
003970: 26,3005           76505                           VXM      VSL1
003971: 26,3006           01732                                    REFSMMAT
003972: 26,3007           27677                           STOVL    MX
003973: 26,3010           06501                                    UNITY
003974: 26,3011           77624                           CALL
003975: 26,3012           47665                                    *NBSM*
003976: 26,3013           76505                           VXM      VSL1
003977: 26,3014           01732                                    REFSMMAT
003978: 26,3015           27705                           STOVL    MY
003979: 26,3016           06477                                    UNITZ
003980: 26,3017           77624                           CALL
003981: 26,3020           47665                                    *NBSM*
003982: 26,3021           76505                           VXM      VSL1
003983: 26,3022           01732                                    REFSMMAT
003984: 26,3023           37713        SHAFTBQ            STCALL   MZ
003985: 26,3024           55360                                    RADARANG
003986: 26,3025           77331                           SSP      VLOAD                                 #  STORE SHAFT CODE (3) FOR R3 IN NOUN 49
003987: 26,3026           01354                                    WHCHREAD
003988: 26,3027           00003                           DEC      3          B-14
003989: 26,3030           03724                                    ULC
003990: 26,3031           72441                           DOT      SL1
003991: 26,3032           03677                                    MX
003992: 26,3033           24023                           STOVL    SINTH                                 #  18D
003993: 26,3034           03724                                    ULC
003994: 26,3035           72441                           DOT      SL1
003995: 26,3036           03713                                    MZ
003996: 26,3037           34021                           STCALL   COSTH                                 #  16D
003997: 26,3040           26545                                    ARCTAN
003998: 26,3041           41221                           BDSU     DMP
003999: 26,3042           03736                                    RRSHAFT
004000: 26,3043           15440                                    2PI/8
004001: 26,3044           41472                           SL3R     PUSH
004002: 26,3045           52545                           DLOAD    SL3
004003: 26,3046           01701                                    X789
004004: 26,3047           44257                           SRR*     BDSU                                  #  SHIFT FROM -5/-3 TO B0
004005: 26,3050           56176                                    0,2
004006: 26,3051           53605                           DMP      SRR*
004007: 26,3052           03722                                    RXZ
004008: 26,3053           21601                                    0,1                                   #  SHIFT TO EARTH/MOON SPHERE
004009: 26,3054           27547                           STOVL    DELTAQ                                #  EARTH B-29. MOON B-27
004010: 26,3055           03724                                    ULC
004011: 26,3056           76435                           VXV      VSL1
004012: 26,3057           03705                                    MY
004013: 26,3060           77656                           UNIT
004014: 26,3061           57414                           BOFF     VCOMP                                 #  B0, COMP. IF CSM BEING CORRECTED
004015: 26,3062           00747                                    VEHUPFLG
004016: 26,3063           55064                                    +1


004018: 26,3064           27525                           STOVL    BVECTOR
004019: 26,3065           06505                                    ZEROVECS
004020: 26,3066           03533                           STORE    BVECTOR    +6
004021: 26,3067           17541                           STODL    BVECTOR    +12D
004022: 26,3070           03722                                    RXZ
004023: 26,3071           53657                           SR*      SRR*                                  #  SHIFT FROM EARTH/MOON SPHERE TO B-25
004024: 26,3072           20577                                    0          -2,1
004025: 26,3073           56176                                    0,2
004026: 26,3074           03541                           STORE    BVECTOR    +12D
004027: 26,3075           77735                           SLOAD
004028: 26,3076           02011                                    SHAFTVAR
004029: 26,3077           41215                           DAD      DMP
004030: 26,3100           15435                                    IMUVAR                                #  RAD**2 B12
004031: 26,3101           03722                                    RXZ
004032: 26,3102           41257                           SRR*     DMP
004033: 26,3103           21601                                    0,1                                   #  SHIFT TO EARTH/MOON SPHERE
004034: 26,3104           03722                                    RXZ
004035: 26,3105           53657                           SR*      SR*
004036: 26,3106           20577                                    0          -2,1
004037: 26,3107           57176                                    0,2
004038: 26,3110           47057                           SR*      RTB
004039: 26,3111           57176                                    0,2
004040: 26,3112           21643                                    TPMODE                                #  STORE VARIANCE TRIPLE PRECISION
004041: 26,3113           36707                           STCALL   VARIANCE                              #  B-40
004042: 26,3114           55400                                    LGCUPDTE
004043:
004044: 26,3115           77624                           CALL
004045: 26,3116           51770                                    GRP2PC
004046: 26,3117           77624        TRUNBQ             CALL
004047: 26,3120           55360                                    RADARANG
004048: 26,3121           77331                           SSP      VLOAD                                 #  STORE TRUNNION CODE (4) FOR R3 IN N49
004049: 26,3122           01354                                    WHCHREAD
004050: 26,3123           00004                           DEC      4          B-14
004051: 26,3124           03724                                    ULC
004052: 26,3125           76435                           VXV      VSL1
004053: 26,3126           03705                                    MY
004054: 26,3127           76435                           VXV      VSL1                                  #  (ULC X MY) X ULC
004055: 26,3130           03724                                    ULC
004056: 26,3131           57414                           BOFF     VCOMP                                 #  B0, COMP. IF CSM BEING CORRECTED
004057: 26,3132           00747                                    VEHUPFLG
004058: 26,3133           55134                                    +1
004059: 26,3134           27525                           STOVL    BVECTOR
004060: 26,3135           06505                                    ZEROVECS
004061: 26,3136           03533                           STORE    BVECTOR    +6
004062: 26,3137           17541                           STODL    BVECTOR    +12D
004063: 26,3140           03722                                    RXZ
004064: 26,3141           53657                           SR*      SRR*                                  #  SHIFT FROM EARTH/MOON SPHERE TO B-25
004065: 26,3142           20577                                    0          -2,1
004066: 26,3143           56176                                    0,2
004067: 26,3144           03543                           STORE    BVECTOR    +14D


004069: 26,3145           77735                           SLOAD
004070: 26,3146           02012                                    TRUNVAR
004071: 26,3147           41215                           DAD      DMP
004072: 26,3150           15435                                    IMUVAR
004073: 26,3151           03722                                    RXZ
004074: 26,3152           41257                           SRR*     DMP
004075: 26,3153           21601                                    0,1                                   #  SHIFT TO EARTH/MOON SPHERE
004076: 26,3154           03722                                    RXZ
004077: 26,3155           53657                           SR*      SR*
004078: 26,3156           20577                                    0          -2,1
004079: 26,3157           57176                                    0,2
004080: 26,3160           47057                           SR*      RTB
004081: 26,3161           57176                                    0,2
004082: 26,3162           21643                                    TPMODE                                #  STORE VARIANCE TRIPLE PRECISION
004083: 26,3163           16707                           STODL    VARIANCE
004084: 26,3164           03732                                    SINTHETA
004085: 26,3165           44336                           ASIN     BDSU                                  #  SIN THETA IN PD6
004086: 26,3166           03734                                    RRTRUN
004087: 26,3167           56405                           DMP      SL3R
004088: 26,3170           15440                                    2PI/8
004089: 26,3171           52525                           PDDL     SL3
004090: 26,3172           01703                                    X789       +2
004091: 26,3173           44257                           SRR*     BDSU                                  #  SHIFT FROM -5/-3 TO B0
004092: 26,3174           56176                                    0,2
004093: 26,3175           53605                           DMP      SRR*
004094: 26,3176           03722                                    RXZ
004095: 26,3177           21601                                    0,1
004096: 26,3200           37547                           STCALL   DELTAQ                                #  EARTH B-29. MOON B-27
004097: 26,3201           55400                                    LGCUPDTE
004098: 26,3202           77624                           CALL
004099: 26,3203           51770                                    GRP2PC
004100: 26,3204           77650        RENDEND            GOTO
004101: 26,3205           50644                                    R22LEM93
004102:                                                                                                  #  FUNCTIONAL DESCRIPTION
004103:
004104:                                                                                                  #  LSR22.4 IS THE ENTRY TO PERFORM LUNAR SURFACE NAVIGATION FOR THE LM
004105:                                                                                                  #  COMPUTER ONLY. THIS ROUTINE COMPUTES THE B-VECTORS AND DELTA Q FOR RANGE
004106:                                                                                                  #  AND RANGE RATE MEASURED BY THE RENDEZVOUS RADAR
004107:
004108:                                                                                                  #  SUBROUTINES CALLED
004109:                                                                                                  #   INSTALL   LGCUPDTE  INCORP1   RP-TO-R
004110:                                                                                                  #   INTEGRV   GETULC    INCORP2
004111:
004112:                                                                                                  #  OUTPUT
004113:                                                                                                  #   CORRECTED CSM STATE VECTOR (PERMANENT)
004114:                                                                                                  #   NUMBER OF MARKS INCORPORATED IN MARKCTR
004115:                                                                                                  #   MAGNITUDE OF POSITION DEVIATION (FOR DISPLAY) IN R22DISP METERS B-29
004116:                                                                                                  #   MAGNITUDE OF VELOCITY DEVIATION (FOR DISPLAY) IN R22DISP +2 M/CSEC B-7
004117:                                                                                                  #   UPDATED W-MATRIX
004118:


004120:                                                                                                  #  ERASABLE INITIALIZATION REQUIRED
004121:                                                                                                  #   LM AND CSM STATE VECTORS
004122:                                                                                                  #   W-MATRIX
004123:                                                                                                  #   MARK TIME IN MKTIME
004124:                                                                                                  #   RADAR RANGE IN RM METERS B-29
004125:                                                                                                  #         RANGE RATE IN RDOTM METERS/CSEC B-7
004126:                                                                                                  #   VEHUPFLG
004127:
004128:
004129: 26,3206           77624        LSR22.4            CALL
004130: 26,3207           27447                                    INTSTALL
004131: 26,3210           43014                           SET      CLEAR
004132: 26,3211           01472                                    STATEFLG
004133: 26,3212           01674                                    VINTFLAG                              #  CALL TO GET LM POS + VEL IN REF COORD.
004134: 26,3213           77624                           CALL
004135: 26,3214           53642                                    INTGRCAL
004136: 26,3215           77624                           CALL
004137: 26,3216           51770                                    GRP2PC
004138: 26,3217           45014                           CLEAR    CALL
004139: 26,3220           02666                                    DMENFLG                               #  SET MATRIX SIZE TO 6X6 FOR INCORP
004140: 26,3221           27447                                    INTSTALL
004141: 26,3222           46145                           DLOAD    BHIZ                                  #  IS THIS FIRST TIME THROUGH
004142: 26,3223           03463                                    MARKCTR
004143: 26,3224           55237                                    INITWMX6                              #  YES. INITIALIZE 6X6 W-MATRIX
004144: 26,3225           43014                           CLEAR    SET
004145: 26,3226           01675                                    D6OR9FLG
004146: 26,3227           01476                                    DIM0FLAG
004147: 26,3230           43014                           SET      CLEAR
004148: 26,3231           01474                                    VINTFLAG
004149: 26,3232           01673                                    INTYPFLG
004150: 26,3233           77624                           CALL
004151: 26,3234           53642                                    INTGRCAL
004152: 26,3235           77650                           GOTO
004153: 26,3236           54522                                    RANGEBQ
004154:
004155: 26,3237           77624        INITWMX6           CALL
004156: 26,3240           55250                                    WLINIT                                #  INITIALIZE W-MATRIX
004157: 26,3241           45014                           SET      CALL
004158: 26,3242           01474                                    VINTFLAG
004159: 26,3243           26702                                    SETIFLGS
004160: 26,3244           77624                           CALL
004161: 26,3245           53642                                    INTGRCAL
004162: 26,3246           77650                           GOTO
004163: 26,3247           54522                                    RANGEBQ
004164:
004165:                                                                                                  #  THIS ROUTINE CLEARS RFINAL (DP) AND CALLS INTEGRV
004166:
004167: 25,2000                                           SETLOC   P20S1
004168: 25,2000                                           BANK


004170: 25,3642           71220        INTGRCAL           STQ      DLOAD
004171: 25,3643           03675                                    IGRET
004172: 25,3644           03755                                    MKTIME
004173: 25,3645           34041                           STCALL   TDEC1
004174: 25,3646           27172                                    INTEGRV
004175: 25,3647           77650                           GOTO
004176: 25,3650           03675                                    IGRET
004177:
004178:                                                                                                  #  THIS ROUTINE INITIALIZES THE W-MATRIX BY ZEROING ALL W THEN SETTING
004179:                                                                                                  #  DIAGONAL ELEMENTS TO INITIAL STORED VALUES.
004180:
004181: 26,2000                                           SETLOC   P20S3
004182: 26,2000                                           BANK
004183:
004184: 26,3250  E5,1400                                  EBANK=   W
004185: 26,3250           77776        WLINIT             EXIT
004186: 26,3251           33330                           CAF      WBANK
004187: 26,3252           54006                           TS       BBANK
004188: 26,3253           33436                           CAF      WSIZE
004189: 26,3254           55256                           TS       W.IND
004190: 26,3255           34746                           CAF      ZERO
004191: 26,3256           51256                           INDEX    W.IND
004192: 26,3257           55400                           TS       W
004193: 26,3260           11256                           CCS      W.IND
004194: 26,3261           03254                           TC       -5
004195: 26,3262           33331                           CAF      AIGBANK                               #  RESTORE EBANK 7
004196: 26,3263           54006                           TS       BBANK
004197: 26,3264           06060                           TC       INTPRET
004198: 26,3265           67214                           BON      SLOAD                                 #  IF ON LUNAR SURFACE,INITIALIZE WITH
004199: 26,3266           04307                                    SURFFLAG                              #  WSURFPOS AND WSURFVEL INSTEAD OF
004200: 26,3267           55273                                    WLSRFPOS                              #  WRENDPOS AND WRENDVEL
004201: 26,3270           02001                                    WRENDPOS
004202: 26,3271           77650                           GOTO
004203: 26,3272           55275                                    WPOSTORE
004204: 26,3273           77735        WLSRFPOS           SLOAD
004205: 26,3274           02007                                    WSURFPOS
004206: 26,3275           77661        WPOSTORE           SR                                             #  SHIFT TO B-19 SCALE
004207: 26,3276           20606                                    5
004208: 26,3277           02401                           STORE    W
004209: 26,3300           02411                           STORE    W          +8D
004210: 26,3301           02421                           STORE    W          +16D
004211: 26,3302           67214                           BON      SLOAD
004212: 26,3303           04307                                    SURFFLAG
004213: 26,3304           55310                                    WLSRFVEL
004214: 26,3305           02002                                    WRENDVEL
004215: 26,3306           77650                           GOTO
004216: 26,3307           55312                                    WVELSTOR
004217: 26,3310           77735        WLSRFVEL           SLOAD
004218: 26,3311           02010                                    WSURFVEL
004219: 26,3312           02511        WVELSTOR           STORE    W          +72D


004221: 26,3313           02521                           STORE    W          +80D
004222: 26,3314           02531                           STORE    W          +88D
004223: 26,3315           77735                           SLOAD
004224: 26,3316           02003                                    WSHAFT
004225: 26,3317           02621                           STORE    W          +144D
004226: 26,3320           77735                           SLOAD
004227: 26,3321           02004                                    WTRUN
004228: 26,3322           02631                           STORE    W          +152D
004229: 26,3323           66214                           SET      SSP                                   #  SET RENDWFLG - W-MATRIX VALID
004230: 26,3324           02476                                    RENDWFLG
004231: 26,3325           03463                                    MARKCTR                               #  SET MARK COUNTER EQUAL ZERO
004232: 26,3326           00000                                    0
004233: 26,3327           77616                           RVQ
004234:
004235: 26,3330  E5,1400                                  EBANK=   W
004236: 26,3330           54065        WBANK              BBCON    WLINIT
004237: 26,3331  E7,1457                                  EBANK=   AIG
004238: 26,3331           54067        AIGBANK            BBCON    LSR22.3
004239:
004240:                                                                                                  #  GETULC
004241:
004242:                                                                                                  #  THIS SUBROUTINE COMPUTES THE RELATIVE POSITION VECTOR BETWEEN THE CSM
004243:                                                                                                  #  AND THE LM, LEAVING THE UNIT VECTOR IN THE PUSHLIST AND MPAC AND THE
004244:                                                                                                  #  MAGNITUDE IN 36D.
004245:
004246: 26,3332           77201        GETULC             SETPD    VLOAD
004247: 26,3333           00001                                    0
004248: 26,3334           01645                                    DELTALEM
004249: 26,3335           77754                           LXA,2
004250: 26,3336           03720                                    SCALSHFT                              #  LOAD X2 WITH SCALE SHIFT
004251: 26,3337           53257                           VSR*     VAD
004252: 26,3340           57165                                    9D,2                                  #  SHIFT FOR EARTH/MOON SPHERE
004253: 26,3341           01661                                    RCVLEM
004254: 26,3342           53715                           PDVL     VSR*
004255: 26,3343           01573                                    DELTACSM
004256: 26,3344           57165                                    9D,2                                  #  SHIFT FOR EARTH/MOON SPHERE
004257: 26,3345           52255                           VAD      VSU
004258: 26,3346           01607                                    RCVCSM
004259: 26,3347           41434                           RTB      PUSH                                  #  USE NORMUNIT TO PRESERVE ACCURACY
004260: 26,3350           21722                                    NORMUNX1
004261: 26,3351           17724                           STODL    ULC
004262: 26,3352           00045                                    36D
004263: 26,3353           77657                           SL*                                            #  ADJUST MAGNITUDE FROM NORMUNIT
004264: 26,3354           20201                                    0,1
004265: 26,3355           24045                           STOVL    36D                                   #  ULC IN PD0 AND MPAC,RLC IN 36D
004266: 26,3356           03724                                    ULC
004267: 26,3357           77616                           RVQ
004268:
004269:                                                                                                  #  RADARANG
004270:
004271:                                                                                                  #  THIS SUBROUTINE COMPUTES SINTHETA = -ULC DOT MY


004273:                                                                                                  #  RXZ = (SQRT (1-SINTHETA**2))RLC
004274:                                                                                                  #  OUTPUT
004275:                                                                                                  #   ULC IN ULC, PD0
004276:                                                                                                  #   RLC  IN PD36D
004277:                                                                                                  #   SIN THETA IN SINTHETA AND PD6
004278:                                                                                                  #   RXZ NORM IN RXZ (N IN X1)
004279: 26,3360           45020        RADARANG           STQ      CALL
004280: 26,3361           03675                                    RDRET
004281: 26,3362           55332                                    GETULC
004282: 26,3363           50276                           VCOMP    DOT
004283: 26,3364           03705                                    MY
004284: 26,3365           41572                           SL1R     PUSH                                  #  SIN THETA TO PD6
004285: 26,3366           03732                           STORE    SINTHETA
004286: 26,3367           44316                           DSQ      BDSU
004287: 26,3370           06475                                    DP1/4TH                               #  1 - (SIN THETA)**2
004288: 26,3371           41366                           SQRT     DMP
004289: 26,3372           00045                                    36D
004290: 26,3373           60352                           SL1      NORM
004291: 26,3374           00047                                    X1                                    #  SET SHIFT COUNTER IN X1
004292: 26,3375           03722                           STORE    RXZ
004293: 26,3376           77650                           GOTO                                           #  EXIT
004294: 26,3377           03675                                    RDRET
004295: 26,3400           45020        LGCUPDTE           STQ      CALL
004296: 26,3401           03675                                    LGRET
004297: 26,3402           46514                                    INCORP1
004298: 26,3403           51575                           VLOAD    ABVAL
004299: 26,3404           02673                                    DELTAX     +6
004300: 26,3405           53754                           LXA,2    SRR*
004301: 26,3406           03720                                    SCALSHFT                              #  0-MOON. 2-EARTH
004302: 26,3407           56174                                    2,2                                   #  SET VEL DISPLAY TO B-7
004303: 26,3410           24317                           STOVL    R22DISP    +2
004304: 26,3411           02665                                    DELTAX
004305: 26,3412           53646                           ABVAL    SRR*
004306: 26,3413           56174                                    2,2                                   #  SET POS DISPLAY TO B-29
004307: 26,3414           00315                           STORE    R22DISP
004308: 26,3415           54335                           SLOAD    SR
004309: 26,3416           02005                                    RMAX
004310: 26,3417           20613                                    10D
004311: 26,3420           50025                           DSU      BMN
004312: 26,3421           00315                                    R22DISP
004313: 26,3422           50650                                    R22LEM96                              #  GO DISPLAY
004314: 26,3423           45335                           SLOAD    DSU
004315: 26,3424           02006                                    VMAX
004316: 26,3425           00317                                    R22DISP    +2                         #  VMAX MINUS VEL. DEVIATION
004317: 26,3426           77640                           BMN
004318: 26,3427           50650                                    R22LEM96                              #  GO DISPLAY
004319: 26,3430           77624        ASTOK              CALL
004320: 26,3431           46726                                    INCORP2
004321: 26,3432           77650                           GOTO
004322: 26,3433           03675                                    LGRET
004323:


004325: 26,3434           00103 03370  IMUVAR             2DEC     E-6        B12                        #  RAD**2
004326:
004327: 26,3436           00241        WSIZE              DEC      161        B-14
004328: 26,3437           31103 36652  2PI/8              2DEC     3.141592653 B-2
004329:
004330: 26,3441  E7,1456                                  EBANK=   LOSCOUNT
004331:


004333:                                                                                                  #  PROGRAM NAME LRS24.1   RR SEARCH ROUTINE
004334:                                                                                                  #  MOD NO  0        BY  P VOLANTE  SDC          DATE 1-15-67
004335:
004336:
004337:                                                                                                  #  FUNCTIONAL DESCRIPTION
004338:
004339:                                                                                                  #  DRIVES THE RENDEZVOUS RADAR IN A HEXAGONAL SEARCH PATTERN ABOUT THE LOS TO THE CSM (COMPUTED FROM THE CSM AND LM
004340:                                                                                                  #  STATE VECTORS) CHECKING FOR THE DATA GOOD DISCRETE AND MONITORING THE ANGLE BETWEEN THE RADAR BORESIGHT AND THE
004341:                                                                                                  #  LM +Z AXIS. IF THIS ANGLE EXCEEDS 30 DEGREES THE PREFERRED TRACKING ATTITUDE ROUTINE IS CALLED TO PERFORM AN
004342:                                                                                                  #  ATTITUDE MANEUVER.
004343:
004344:
004345:                                                                                                  #  CALLING SEQUENCE - BANKCALL FOR LRS24.1
004346:
004347:
004348:                                                                                                  #  SUBROUTINES CALLED
004349:
004350:                                                                                                  #        LEMCONIC      R61LEM
004351:                                                                                                  #        CSMCONIC      RRDESSM
004352:                                                                                                  #        JOBDELAY      FLAGDOWN
004353:                                                                                                  #        WAITLIST      FLAGUP
004354:                                                                                                  #        RRNB          BANKCALL
004355:
004356:
004357:                                                                                                  #  EXIT -  TO ENDOFJOB WHEN THE SEARCH FLAG (SRCHOPT) IS NOT SET
004358:
004359:
004360:                                                                                                  #  OUTPUT
004361:
004362:                                                                                                  #      DATAGOOD (SP)-FOR DISPLAY IN R1- 00000 INDICATES NO LOCKON
004363:                                                                                                  #                                       11111 INDICATES LOCKON ACHIEVED
004364:                                                                                                  #      OMEGAD   (SP)-FOR DISPLAY IN R2- ANGLE BETWEEN RR BORESIGHT VECTOR AND THE SPACECRAFT +Z AXIS
004365:
004366:                                                                                                  #  ERASABLE INITIALIZATION REQUIRED
004367:                                                                                                  #     SEARCH FLAG MUST BE SET
004368:                                                                                                  #     LM AND CSM STATE VECTORS AND REFSMMAT MATRIX
004369:                                                                                                  #  DEBRIS
004370:
004371:                                                                                                  #     RLMSRCH      UXVECT
004372:                                                                                                  #     VXRLM        UYVECT
004373:                                                                                                  #     LOSDESRD     NSRCHPNT
004374:                                                                                                  #     DATAGOOD     OMEGAD
004375:                                                                                                  #     MPAC         PUSHLIST
004376:
004377:
004378: 26,3441                                           COUNT*   $$/LRS24
004379: 26,3441           34746        LRS24.1            CAF      ZERO
004380: 26,3442           55736                           TS       NSRCHPNT                              #  SET SEARCH PATTERN POINT COUNTER TO ZERO
004381: 26,3443           34727        CHKSRCH            CAF      BIT14                                 #  ISSUE AUTO TRACK ENABLE TO RADAR
004382: 26,3444           00006                           EXTEND


004384: 26,3445           05012                           WOR      CHAN12
004385: 26,3446           34727                           CAF      SRCHOBIT                              #  CHECK IF SEARCH STILL REQUESTED
004386: 26,3447           70076                           MASK     FLAGWRD2                              #  (SRCHOPT FLAG SET)
004387: 26,3450           00006                           EXTEND
004388: 26,3451           15146                           BZF      ENDOFJOB                              #  NO-TERMINATE JOB
004389:
004390:
004391: 26,3452           33713                           CAF      6SECONDS                              #  SCHEDULE TASK TO DRIVE RADAR TO NEXT PT.
004392: 26,3453           00004                           INHINT
004393: 26,3454           05205                           TC       WAITLIST                              #  IN 6 SECONDS
004394: 26,3455  E7,1456                                  EBANK=   LOSCOUNT
004395: 26,3455           03642 54067                     2CADR    CALLDGCH
004396:
004397: 26,3457           00003                           RELINT
004398: 26,3460           40110                           CS       RADMODES                              #  IS REMODE IN PROGRESS
004399: 26,3461           74727                           MASK     REMODBIT
004400: 26,3462           00006                           EXTEND
004401: 26,3463           15146                           BZF      ENDOFJOB                              #  YES- WAIT SIX SECONDS
004402: 26,3464           06060                           TC       INTPRET
004403:
004404: 26,3465           43234                           RTB      DAD                                   #  COMPUTE LOS AT PRESENT TIME + 1.5 SEC.
004405: 26,3466           21603                                    LOADTIME
004406: 26,3467           15715                                    1.5SECS
004407: 26,3470           34041        LRS24.11           STCALL   TDEC1
004408: 26,3471           27136                                    LEMCONIC                              #  EXTRAPOLATE LM STATE VECTOR
004409: 26,3472           77775                           VLOAD
004410: 26,3473           00001                                    RATT
004411: 26,3474           27676                           STOVL    RLMSRCH                               #  SAVE LEM POSITION
004412: 26,3475           00007                                    VATT
004413: 26,3476           17740                           STODL    SAVLEMV                               #  SAVE LEM VELOCITY
004414: 26,3477           00015                                    TAT
004415: 26,3500           34041                           STCALL   TDEC1                                 #  EXTRAPOLATE CSM STATE VECTOR
004416: 26,3501           27124                                    CSMCONIC                              #  EXTRAPOLATE CSM STATE VECTOR
004417: 26,3502           52375                           VLOAD    VSU                                   #  LOS VECTOR = R(CSM)-R(LM)
004418: 26,3503           00001                                    RATT
004419: 26,3504           03676                                    RLMSRCH
004420: 26,3505           77656                           UNIT
004421: 26,3506           27712                           STOVL    LOSDESRD                              #  STORE DESIRED LOS
004422: 26,3507           00007                                    VATT                                  #  COMPUTE UNIT(V(CM) CROSS R(CM))
004423: 26,3510           47256                           UNIT     VXV
004424: 26,3511           00001                                    RATT
004425: 26,3512           77656                           UNIT
004426: 26,3513           03704                           STORE    VXRCM
004427: 26,3514           52375                           VLOAD    VSU
004428: 26,3515           00007                                    VATT
004429: 26,3516           03740                                    SAVLEMV
004430: 26,3517           76521                           MXV      VSL1                                  #  CONVERT FROM REFERENCE TO STABLE MEMBER
004431: 26,3520           01732                                    REFSMMAT
004432: 26,3521           03740                           STORE    SAVLEMV                               #  VLC = V(CSM) - V(LM)
004433: 26,3522           53135                           SLOAD    BZE                                   #  CHECK IF N=0


004435: 26,3523           03737                                    NSRCHPNT
004436: 26,3524           55635                                    DESGLOS                               #  YES-DESIGNATE ALONG LOS
004437: 26,3525           53025                           DSU      BZE                                   #  IS N=1
004438: 26,3526           15711                                    ONEOCT                                #  YES-CALCULATE X AND Y AXES OF
004439: 26,3527           55622                                    CALCXY                                #  SEARCH PATTERN COORDINATE SYSTEM
004440: 26,3530           77775                           VLOAD                                          #  NO-ROTATE X-Y AXES TO NEXT SEARCH POINT
004441: 26,3531           03720                                    UXVECT
004442: 26,3532           24015                           STOVL    UXVECTPR                              #  SAVE ORIGINAL X AND Y VECTORS
004443: 26,3533           03726                                    UYVECT                                #  UXPRIME = ORIGINAL UX
004444: 26,3534           00023                           STORE    UYVECTPR                              #  UYPRIME = ORIGINAL UY
004445: 26,3535           77761                           VXSC
004446: 26,3536           15705                                    SIN60DEG                              #  UX =(COS 60)UXPR +(SIN 60)UYPR
004447: 26,3537           27720                           STOVL    UXVECT
004448: 26,3540           00015                                    UXVECTPR
004449: 26,3541           53361                           VXSC     VAD
004450: 26,3542           06503                                    COS60DEG
004451: 26,3543           03720                                    UXVECT
004452: 26,3544           77656                           UNIT
004453: 26,3545           27720                           STOVL    UXVECT
004454: 26,3546           00015                                    UXVECTPR                              #  UY=(-SIN60)UXPR +(COS 60)UYPR
004455: 26,3547           77761                           VXSC
004456: 26,3550           15705                                    SIN60DEG
004457: 26,3551           27726                           STOVL    UYVECT
004458: 26,3552           00023                                    UYVECTPR
004459: 26,3553           52361                           VXSC     VSU
004460: 26,3554           06503                                    COS60DEG
004461: 26,3555           03726                                    UYVECT
004462: 26,3556           77656                           UNIT
004463: 26,3557           03726                           STORE    UYVECT
004464: 26,3560           53361        OFFCALC            VXSC     VAD                                   #  OFFSET VECTOR = K(UY)
004465: 26,3561           15707                                    OFFSTFAC                              #  LOS VECTOR + OFFSET VECTOR DEFINES
004466: 26,3562           03712                                    LOSDESRD                              #  DESIRED POINT IN SEARCH PATTERN
004467: 26,3563           64256                           UNIT     MXV
004468: 26,3564           01732                                    REFSMMAT                              #  CONVERT TO STABLE MEMBER COORDINATES
004469: 26,3565           77772                           VSL1
004470: 26,3566           25101        CONTDESG           STOVL    RRTARGET
004471: 26,3567           03740                                    SAVLEMV
004472: 26,3570           01757                           STORE    LOSVEL
004473: 26,3571           77776                           EXIT
004474: 26,3572           00004                           INHINT
004475: 26,3573           06050                           TC       KILLTASK                              #  KILL ANY PRESENTLY WAITLISTED TASK
004476: 26,3574           52573                           CADR     DESLOOP    +2                         #  WHICH WOULD DESIGNATE TO THE LAST
004477:                                                                                                  #  POINT IN THE PATTERN
004478: 26,3575           44726        CONTDES2           CS       CDESBIT
004479: 26,3576           70110                           MASK     RADMODES                              #  SET BIT 15 OF RADMODES TO INDICATE
004480: 26,3577           64726                           AD       CDESBIT                               #  A CONTINUOUS DESIGNATE WANTED.
004481: 26,3600           54110                           TS       RADMODES
004482: 26,3601           06060                           TC       INTPRET
004483:
004484: 26,3602           77624                           CALL


004486: 26,3603           52364                                    RRDESSM                               #  DESIGNATE RADAR TO RRTARGET VECTOR
004487:
004488: 26,3604           77776                           EXIT
004489: 26,3605           03674                           TC       LIMALARM                              #  LOS NOT IN MODE 2 COVERAGE (P22)
004490: 26,3606           03674                           TC       LIMALARM                              #  VEHICLE MANEUVER REQUIRED (P20)
004491:
004492:                                                                                                  #  COMPUTE OMEGA,ANGLE  BETWEEN RR LOS AND
004493:                                                                                                  #  SPACECRAFT +Z AXIS
004494: 26,3607           00006        OMEGCALC           EXTEND
004495: 26,3610           30036                           DCA      CDUT
004496: 26,3611           53753                           DXCH     TANGNB
004497: 26,3612           06060                           TC       INTPRET
004498: 26,3613           77624                           CALL
004499: 26,3614           46041                                    RRNB
004500: 26,3615           65545                           DLOAD    ACOS                                  #  OMEGA IS ARCCOSINE OF Z-COMPONENT OF
004501: 26,3616           00045                                    36D                                   #  VECTOR COMPUTED BY RRNB (LEFT AT 32D)
004502: 26,3617           03735                           STORE    OMEGDISP                              #  STORE FOR DISPLAY IN R2
004503: 26,3620           77776                           EXIT
004504: 26,3621           05146                           TC       ENDOFJOB
004505:


004507:                                                                                                  #  CALCULATE X AND Y VECTORS FOR SEARCH PATTERN COORDINATE SYSTEM
004508:
004509: 26,3622           47375        CALCXY             VLOAD    VXV
004510: 26,3623           03704                                    VXRCM
004511: 26,3624           03712                                    LOSDESRD
004512: 26,3625           77656                           UNIT
004513: 26,3626           27720                           STOVL    UXVECT                                #  UX = (VLM X RLM)X LOS
004514: 26,3627           03712                                    LOSDESRD
004515: 26,3630           53435                           VXV      UNIT
004516: 26,3631           03720                                    UXVECT
004517: 26,3632           03726                           STORE    UYVECT                                #  UY = LOS X UX
004518: 26,3633           77650                           GOTO
004519: 26,3634           55560                                    OFFCALC
004520:
004521:
004522: 26,3635           64375        DESGLOS            VLOAD    MXV                                   #  WHEN N= 0,DESIGNATE ALONG LOS
004523: 26,3636           03712                                    LOSDESRD
004524: 26,3637           01732                                    REFSMMAT                              #  CONVERT LOS FROM REFERENCE TO SM COORDS
004525: 26,3640           52172                           VSL1     GOTO
004526: 26,3641           55566                                    CONTDESG
004527:
004528:
004529: 26,3642           30074        CALLDGCH           CAE      FLAGWRD0                              #  IS RENDEZVOUS FLAG SET
004530: 26,3643           74736                           MASK     RNDVZBIT
004531: 26,3644           00006                           EXTEND
004532: 26,3645           15263                           BZF      TASKOVER                              #  NO-EXIT R24
004533: 26,3646           37734                           CAF      PRIO25                                #  YES -SCHEDULE JOB TO DRIVE RADAR TO NEXT
004534: 26,3647           05076                           TC       FINDVAC                               #  POINT IN SEARCH PATTERN
004535: 26,3650  E7,1675                                  EBANK=   RLMSRCH
004536: 26,3650           03653 54067                     2CADR    DATGDCHK
004537:
004538: 26,3652           05263                           TC       TASKOVER
004539:
004540:
004541: 26,3653           34741        DATGDCHK           CAF      BIT4
004542: 26,3654           00006                           EXTEND                                         #  CHECK IF DATA GOOD DISCRETE PRESENT
004543: 26,3655           02033                           RAND     CHAN33
004544: 26,3656           00006                           EXTEND
004545: 26,3657           13666                           BZF      STORE1S                               #  YES- GO TO STORE 11111 FOR DISPLAY IN R1
004546: 26,3660           46263                           CS       SIX
004547: 26,3661           61736                           AD       NSRCHPNT                              #  IS N GREATER THAN 6
004548: 26,3662           00006                           EXTEND
004549: 26,3663           13441                           BZF      LRS24.1                               #  YES - RESET N = 0 AND START AROUND AGAIN
004550: 26,3664           25736                           INCR     NSRCHPNT                              #  NO-SET N = N+1 AN GO TO
004551: 26,3665           13443                           TCF      CHKSRCH                               #  NEXT POINT IN PATTERN
004552:
004553:
004554: 26,3666           33703        STORE1S            CAF      ALL1S                                 #  STORE 11111 FOR DISPLAY IN R1
004555: 26,3667           55733                           TS       DATAGOOD


004557: 26,3670           00004                           INHINT
004558: 26,3671           06050                           TC       KILLTASK                              #  DELETE DESIGNATE TASK FROM
004559: 26,3672           52573                           CADR     DESLOOP    +2                         #  WAITLIST USING KILLTASK
004560: 26,3673           05146                           TC       ENDOFJOB
004561:
004562: 26,3674           05571        LIMALARM           TC       ALARM                                 #  ISSUE ALARM 527-LOS NOT IN MODE2
004563: 26,3675           00527                           OCT      527                                   #  COVERAGE IN P22 OR VEHICLE MANEUVER
004564: 26,3676           00004                           INHINT                                         #  REQUIRED IN P20
004565: 26,3677           06050                           TC       KILLTASK                              #  KILL WAITLIST CALL FOR NEXT
004566: 26,3700           55642                           CADR     CALLDGCH                              #  POINT IN SEARCH PATTERN
004567: 26,3701           06032                           TC       CLRADMD1                              #  CLEAR BITS 10 & 15 IN RADMODES
004568: 26,3702           05146                           TC       ENDOFJOB
004569:
004570:
004571: 26,3703           25547        ALL1S              DEC      11111      B-14
004572: 26,3704           33555 01106  SIN60DEG           2DEC     .86603
004573:
004574: 26,3706  23,2502               COS60DEG           =        DPHALF                                #  (2DEC   .50)
004575: 26,3706                        UXVECTPR           EQUALS   12D                                   #  PREVIOUS
004576: 26,3706                        UYVECTPR           EQUALS   18D
004577: 26,3706                        RLMUNIT            EQUALS   12D
004578: 26,3706           01642 11045  OFFSTFAC           2DEC     0.05678                               #  TANGENT OF 3.25 DEGREES
004579:
004580: 26,3710           00001        ONEOCT             OCT      00001                                 #  **** NOTE-THESE TWO CONSTANTS MUST ****
004581: 26,3711           00000 00454  3SECONDS           2DEC     300        B-28                       #  **** BE IN THIS ORDER BECAUSE      ****
004582:
004583:                                                                                                  #  **** ONEOCT NEEDS A LOWER ORDER    ****
004584:                                                                                                  #  **** WORD OF ZEROES                ****
004585: 26,3713           01130        6SECONDS           DEC      600        B-14
004586: 26,3714           00000 00226  1.5SECS            2DEC     150        B-28
004587:
004588: 26,3716  23,2504               ZERO/SP            EQUALS   HI6ZEROS
004589:    4607                                           BLOCK    02
004590:    6000                                           SETLOC   FFTAG5
004591:    6000                                           BANK
004592:    6043                                           COUNT*   $$/P20
004593:    6043           00006        GOTOV56            EXTEND                                         #  P20 TERMINATES BY GOTOV56 INSTEAD OF
004594:    6044           36047                           DCA      VB56CADR                              #  GOTOPOOH
004595:    6045           15167                           TCF      SUPDXCHZ
004596:    6046  E7,1471                                  EBANK=   WHOCARES
004597:    6046           03020 66107  VB56CADR           2CADR    TRMTRACK
004598:


004600:                                                                                                  #  W-MATRIX MONITOR
004601:
004602: 31,2007                                           BANK     31
004603: 31,2000                                           SETLOC   VB67
004604: 31,2000                                           BANK
004605: 31,2007                                           COUNT*   $$/EXTVB
004606:
004607: 31,2007  E4,1571                                  EBANK=   WWPOS
004608:
004609: 31,2007           06060        V67CALL            TC       INTPRET
004610: 31,2010           77624                           CALL
004611: 31,2011           62120                                    V67WW
004612: 31,2012           77776                           EXIT
004613: 31,2013           00006                           EXTEND                                         #  SAVE THE PRESENT N99 VALUES FOR
004614: 31,2014           31572                           DCA      WWPOS                                 #  COMPARISON AFTER THE DISPLAY
004615: 31,2015           53600                           DXCH     WWBIAS     +2
004616: 31,2016           00006                           EXTEND
004617: 31,2017           31574                           DCA      WWVEL
004618: 31,2020           53602                           DXCH     WWBIAS     +4
004619: 31,2021           00006                           EXTEND
004620: 31,2022           31576                           DCA      WWBIAS
004621: 31,2023           53604                           DXCH     WWBIAS     +6
004622: 31,2024           32143        V06N99DS           CAF      V06N99
004623: 31,2025           04607                           TC       BANKCALL
004624: 31,2026           20323                           CADR     GOXDSPF
004625: 31,2027           15474                           TCF      ENDEXT
004626: 31,2030           12032                           TCF      V6N99PRO
004627: 31,2031           12024                           TCF      V06N99DS
004628: 31,2032           22007        V6N99PRO           ZL
004629: 31,2033           34747                           CA       FIVE
004630: 31,2034           54002        N99LOOP            TS       Q
004631: 31,2035           50002                           INDEX    Q
004632: 31,2036           41571                           CS       WWPOS
004633: 31,2037           50002                           INDEX    Q
004634: 31,2040           61577                           AD       WWPOS      +6
004635: 31,2041           26001                           ADS      L
004636: 31,2042           10002                           CCS      Q                                     #  THE SUM OF ALL DIFFERENCES MUST BE ZERO.
004637: 31,2043           12034                           TCF      N99LOOP
004638: 31,2044           22000                           LXCH     A
004639: 31,2045           00006                           EXTEND
004640: 31,2046           12051                           BZF      V06N9933
004641: 31,2047           05506                           TC       UPFLAG
004642: 31,2050           00160                           ADRES    V67FLAG
004643:
004644: 31,2051           06060        V06N9933           TC       INTPRET
004645: 31,2052           77414                           BON      EXIT
004646: 31,2053           03707                                    V67FLAG
004647: 31,2054           62056                                    +2
004648: 31,2055           15474                           TCF      ENDEXT
004649: 31,2056           77745                           DLOAD


004651: 31,2057           02172                                    WWPOS
004652: 31,2060           72412                           SL4      SL1
004653: 31,2061           14001                           STODL    0D
004654: 31,2062           02174                                    WWVEL
004655: 31,2063           14003                           STODL    2D
004656: 31,2064           02176                                    WWBIAS
004657: 31,2065           77661                           SL                                             #  SHIFT FROM NOUN SCALING (B-5) TO
004658: 31,2066           20213                                    10D                                   #  INTERNAL SCALING (B+5)
004659: 31,2067           00005                           STORE    4D
004660: 31,2070           72014                           BON      LXA,1
004661: 31,2071           04307                                    SURFFLAG
004662: 31,2072           62102                                    V67SURF
004663: 31,2073           00000                                    0D
004664: 31,2074           72130                           SXA,1    LXA,1
004665: 31,2075           02000                                    WRENDPOS
004666: 31,2076           00002                                    2D
004667: 31,2077           52130                           SXA,1    GOTO
004668: 31,2100           02001                                    WRENDVEL
004669: 31,2101           62110                                    V67CLRF
004670: 31,2102           66150        V67SURF            LXA,1    SXA,1
004671: 31,2103           00000                                    0D
004672: 31,2104           02006                                    WSURFPOS
004673: 31,2105           66150                           LXA,1    SXA,1
004674: 31,2106           00002                                    2D
004675: 31,2107           02007                                    WSURFVEL
004676: 31,2110           66150        V67CLRF            LXA,1    SXA,1
004677: 31,2111           00004                                    4D
004678: 31,2112           02003                                    WTRUN
004679: 31,2113           77730                           SXA,1
004680: 31,2114           02002                                    WSHAFT
004681: 31,2115           77414                           CLEAR    EXIT
004682: 31,2116           02676                                    RENDWFLG
004683: 31,2117           15474                           TCF      ENDEXT
004684: 31,2120           40020        V67WW              STQ      BOV
004685: 31,2121           00051                                    S2
004686: 31,2122           62123                                    +1
004687: 31,2123           45014                           CLEAR    CALL
004688: 31,2124           03667                                    V67FLAG
004689: 31,2125           27447                                    INTSTALL
004690: 31,2126           71331                           SSP      DLOAD
004691: 31,2127           00051                                    S1
004692: 31,2130           00006                           DEC      6          B-14
004693: 31,2131           06505                                    ZEROVECS
004694: 31,2132           02172                           STORE    WWPOS
004695: 31,2133           02174                           STORE    WWVEL
004696: 31,2134           02176                           STORE    WWBIAS
004697: 31,2135           77770                           AXT,1
004698: 31,2136           00066                           DEC      54         B-14
004699: 31,2137           47573        NXPOSVEL           VLOAD*   VSQ
004700: 31,2140           02467                                    W          +54D,1


004702: 31,2141           77650                           GOTO
004703: 31,2142           60002                                    ADDPOS
004704: 31,2143           01543        V06N99             VN       0699
004705:
004706: 30,2000                                           SETLOC   VB67A
004707: 30,2000                                           BANK
004708: 30,2002                                           COUNT*   $$/EXTVB
004709:
004710: 30,2002           77615        ADDPOS             DAD
004711: 30,2003           02172                                    WWPOS
004712: 30,2004           02172                           STORE    WWPOS
004713: 30,2005           47573                           VLOAD*   VSQ
004714: 30,2006           02555                                    W          +108D,1
004715: 30,2007           77615                           DAD
004716: 30,2010           02174                                    WWVEL
004717: 30,2011           02174                           STORE    WWVEL
004718: 30,2012           47573                           VLOAD*   VSQ
004719: 30,2013           02643                                    W          +162D,1
004720: 30,2014           77615                           DAD
004721: 30,2015           02176                                    WWBIAS
004722: 30,2016           02176                           STORE    WWBIAS
004723: 30,2017           75500                           TIX,1    SQRT
004724: 30,2020           62137                                    NXPOSVEL
004725: 30,2021           77661                           SR                                             #  SHIFT FROM INTERNAL SCALING (B+5) TO
004726: 30,2022           20613                                    10D                                   #  NOUN SCALING (B-5)
004727: 30,2023           16176                           STODL    WWBIAS
004728: 30,2024           02174                                    WWVEL
004729: 30,2025           77766                           SQRT
004730: 30,2026           16174                           STODL    WWVEL
004731: 30,2027           02172                                    WWPOS
004732: 30,2030           77766                           SQRT
004733: 30,2031           02172                           STORE    WWPOS
004734: 30,2032           52000                           BOV      GOTO
004735: 30,2033           60035                                    +2
004736: 30,2034           60042                                    V67XXX
004737: 30,2035           77745                           DLOAD
004738: 30,2036           06513                                    DPPOSMAX
004739: 30,2037           02172                           STORE    WWPOS
004740: 30,2040           02174                           STORE    WWVEL
004741: 30,2041           02176                           STORE    WWBIAS
004742: 30,2042           45345        V67XXX             DLOAD    DSU
004743: 30,2043           02172                                    WWPOS
004744: 30,2044           20060                                    FT99999
004745: 30,2045           71240                           BMN      DLOAD
004746: 30,2046           60051                                    +3
004747: 30,2047           20060                                    FT99999
004748: 30,2050           02172                           STORE    WWPOS
004749: 30,2051           66150                           LXA,1    SXA,1
004750: 30,2052           00051                                    S2
004751: 30,2053           00052                                    QPRET


004753: 30,2054           77776                           EXIT
004754: 30,2055           04626                           TC       POSTJUMP
004755: 30,2056           27460                           CADR     INTWAKE
004756:
004757: 30,2057           01670 17000  FT99999            2DEC     30479      B-19
004758:


004760: 25,3651                                           BANK     25
004761: 25,2000                                           SETLOC   RADARUPT
004762: 25,2000                                           BANK
004763: 25,3651                                           COUNT*   $$/RRUPT
004764:
004765: 25,3651  E7,1456                                  EBANK=   LOSCOUNT
004766:
004767: 25,3651           44740        RADLITES           CS       BIT5
004768: 25,3652           60061                           AD       ITEMP1
004769: 25,3653           10000                           CCS      A
004770: 25,3654           44744                           CS       ONE


004772: 25,3655           13705                           TCF      VLIGHT


004774:
004775: 25,3656           14561                           TCF      RRTRKF


004777:
004778: 25,3657           54065        HLIGHT             TS       ITEMP5                                #  ZERO ITEMP5 FOR H INDEX
004779:
004780: 25,3660           34740                           CA       HLITE
004781: 25,3661           54001                           TS       L
004782:
004783: 25,3662           34740                           CA       LRALTBIT
004784: 25,3663           70110        BOTHLITS           MASK     RADMODES
004785: 25,3664           10000                           CCS      A
004786: 25,3665           13677                           TCF      ONLITES
004787:
004788: 25,3666           30107                           CA       FLGWRD11
004789: 25,3667           50065                           INDEX    ITEMP5
004790: 25,3670           74744                           MASK     HFLSHBIT
004791: 25,3671           10000                           CCS      A
004792: 25,3672           14561                           TCF      RRTRKF


004794:
004795: 25,3673           00006        LITIT              EXTEND
004796: 25,3674           22066                           QXCH     ITEMP6
004797: 25,3675           04573                           TC       TRKFLON    +1
004798:
004799: 25,3676           00066                           TC       ITEMP6
004800:


004803: 25,3677           50065        ONLITES            INDEX    ITEMP5
004804: 25,3700           44744                           CS       HFLSHBIT
004805: 25,3701           70107                           MASK     FLGWRD11
004806: 25,3702           54107                           TS       FLGWRD11
004807:
004808: 25,3703           30001                           CA       L
004809: 25,3704           13673                           TCF      LITIT
004810: 25,3705           54065        VLIGHT             TS       ITEMP5
004811: 25,3706           34742                           CA       VLITE
004812: 25,3707           54001                           TS       L
004813: 25,3710           34735                           CA       BIT8
004814: 25,3711           13663                           TCF      BOTHLITS
004815:


004817: 25,3712     4740               HLITE              EQUALS   BIT5
004818: 25,3712     4742               VLITE              EQUALS   BIT3
004819:

End of include-file P20-P25.agc.  Parent file is MAIN.agc


