
Source Code


000002:                                                                                                  ## Copyright:   Public domain.
000003:                                                                                                  ## Filename:    P20-P25.agc
000004:                                                                                                  ## Filename:    P20-P25.agc
000005:                                                                                                  ## Purpose:     A section of Luminary revision 210.
000006:                                                                                                  ##              It is part of the source code for the Lunar Module's (LM)
000007:                                                                                                  ##              Apollo Guidance Computer (AGC) for Apollo 15-17.
000008:                                                                                                  ##              This file is intended to be a faithful transcription, except
000009:                                                                                                  ##              that the code format has been changed to conform to the
000010:                                                                                                  ##              requirements of the yaYUL assembler rather than the
000011:                                                                                                  ##              original YUL assembler.
000012:                                                                                                  ## Reference:   pp. 507-619
000013:                                                                                                  ## Assembler:   yaYUL
000014:                                                                                                  ## Contact:     Ron Burkey <info@sandroid.org>.
000015:                                                                                                  ## Website:     www.ibiblio.org/apollo/index.html
000016:                                                                                                  ## Mod history: 2016-11-17 JL   Created from Luminary131 version.
000017:                                                                                                  ##              2016-11-23 MAS  Began transcription.
000018:                                                                                                  ##              2016-11-27 MAS  Completed transcription. Largely the same, but RR handling was
000019:                                                                                                  ##                              rewritten, and there are other small changes here and there.
000020:                                                                                                  ##              2016-11-28 HG   Fix  operand P20S23  --> P20S3
000021:                                                                                                  ##                                           RENRAD  --> RENDRAD
000022:                                                                                                  ##              2016-12-07 HG   Fix P00 -> POO
000023:                                                                                                  ##                              Change POO -> P00 in some comments
000024:                                                                                                  ##              2016-12-11 HG   fix operator BZF -> BZMF
000025:                                                                                                  ##              2016-12-12 MAS  Corrected a TCF that should have been a BZF.
000026:


000028:                                                                                                  #  RENDEZVOUS NAVIGATION PROGRAM 20
000029:                                                                                                  #  PROGRAM DESCRIPTION
000030:                                                                                                  #  MOD NO - 2
000031:                                                                                                  #  BY  P. VOLANTE
000032:                                                                                                  #  FUNCTIONAL DESCRIPTION
000033:
000034:                                                                                                  #    THE PURPOSE OF THIS PROGRAM IS TO CONTROL THE RENDEZVOUS RADAR FROM
000035:                                                                                                  #  STARTUP THROUGH ACQUISITION AND LOCKON TO THE CSM AND TO UPDATE EITHER
000036:                                                                                                  #  THE LM OR CSM STATE VECTOR (AS SPECIFIED BY THE ASTRONAUT BY DSKY ENTRY)
000037:                                                                                                  #  ON THE BASIS OF THE RR TRACKING DATA.
000038:                                                                                                  #  CALLING SEQUENCE -
000039:
000040:                                                                                                  #  ASTRONAUT REQUEST THROUGH DSKY V37E20E
000041:                                                                                                  #  SUBROUTINES CALLED
000042:                                                                                                  #    R02BOTH (IMU STATUS CHECK)               FLAGUP
000043:                                                                                                  #    GOFLASH (PINBALL-DISPLAY)                FLAGDOWN
000044:                                                                                                  #    R23LEM  (MANUAL ACQUISITION)             BANKCALL
000045:                                                                                                  #    LS201   (LOS DETERMINATION)              TASKOVER
000046:                                                                                                  #    LS202   (RANGE LIMIT TEST)
000047:                                                                                                  #    R61LEM  (PREFERRED TRACKING ATTITUDE)
000048:                                                                                                  #    R21LEM  (RR DESIGNATE)                   ENDOFJOB
000049:                                                                                                  #    R22LEM  (DATA READ)                      GOPERF1
000050:                                                                                                  #    R31LEM  (RENDEZVOUS PARAMETER DISPLAY)
000051:                                                                                                  #    PRIOLARM (PRIORITY DISPLAY)
000052:                                                                                                  #  NORMAL EXIT MODES-
000053:                                                                                                  #    P20 MAY BE TERMINATED IN TWO WAYS-ASTRONAUT SELECTION OF IDLING
000054:                                                                                                  #  PROGRAM (P00) BY KEYING V37E00E OR BY KEYING IN V56E
000055:                                                                                                  #  ALARM OR ABORT EXIT MODES-
000056:                                                                                                  #    RANGE GREATER THAN 400 NM DISPLAY
000057:                                                                                                  #  OUTPUT
000058:                                                                                                  #    TRKMKCNT = NO OF RENDEZVOUS TRACKING MARKS TAKEN (COUNTER)
000059:                                                                                                  #  ERASABLE INITIALIZATION REQUIRED
000060:                                                                                                  #  FLAGS SET + RESET
000061:                                                                                                  #    SRCHOPT,RNDVZFLG,ACMODFLG,VEHUPFLG,UPDATFLG,TRACKFLG,
000062:                                                                                                  #  DEBRIS
000063:                                                                                                  #    CENTRALS -- A,Q,L
000064: 25,2053  30,2000                                  SBANK=   LOWSUPER                              #  FOR LOW 2CADR'S.
000065:
000066: 33,2113                                           BANK     33
000067: 24,2000                                           SETLOC   P20S
000068: 24,2000                                           BANK
000069:
000070: 24,2000  E7,1456                                  EBANK=   LOSCOUNT
000071: 24,2000                                           COUNT*   $$/P20
000072: 24,2000  24,2000               PROG22             =        PROG20
000073: 24,2000           05331        PROG20             TC       2PHSCHNG
000074: 24,2001           00004                           OCT      4
000075: 24,2002           05022                           OCT      05022
000076: 24,2003           26000                           OCT      26000                                 #  PRIORITY 26
000077: 24,2004           02751                           TC       LUNSFCHK                              #  CHECK IF ON LUNAR SURFACE


000079: 24,2005           02007                           TC       ORBCHGO                               #  YES
000080: 24,2006           02036                           TC       PROG20A    -2                         #  NO - CONTINUE WITH P20
000081: 24,2007           05506        ORBCHGO            TC       UPFLAG                                #  SET VEHUPFLG - CSM STATE
000082: 24,2010           00026                           ADRES    VEHUPFLG                              #  VECTOR TO BE UPDATED
000083: 24,2011           34744                           CAF      ONE                                   #  SET R2 FOR OPTION CSM WILL NOT
000084: 24,2012           55144                           TS       OPTION2                               #  CHANGE PRESENT ORBIT
000085: 24,2013           34354                           CAF      OCT00012
000086: 24,2014           04607                           TC       BANKCALL                              #  DISPLAY ASSUMED CSM ORBIT OPTION
000087: 24,2015           20645                           CADR     GOPERF4
000088: 24,2016           06001                           TC       GOTOPOOH                              #  TERMINATE
000089: 24,2017           02021                           TC       ORBCHG1                               #  PROCEED VALUE OF ASSUMED OPTION OK
000090: 24,2020           02013                           TC       -5                                    #  R2 LOADED THRU DSKY
000091: 24,2021           44744        ORBCHG1            CS       ONE
000092: 24,2022           61144                           AD       OPTION2
000093: 24,2023           00006                           EXTEND
000094: 24,2024           12040                           BZF      PROG20A
000095: 24,2025           32367                           CAF      V06N33*
000096: 24,2026           04607                           TC       BANKCALL                              #  FLASH VERB-NOUN TO REQUEST ESTIMATED
000097: 24,2027           20471                           CADR     GOFLASH                               #  TIME OF LAUNCH
000098: 24,2030           06001                           TC       GOTOPOOH                              #  TERMINATE
000099: 24,2031           02033                           TC       ORBCHG2                               #  PROCEED VALUES OK
000100: 24,2032           02025                           TC       -5                                    #  TIME LOADED THRU DSKY
000101: 24,2033           06060        ORBCHG2            TC       INTPRET
000102: 24,2034           77650                           GOTO
000103: 24,2035           64213                                    ORBCHG3
000104: 32,2213                                           BANK     32
000105: 32,2000                                           SETLOC   P20S4
000106: 32,2000                                           BANK
000107: 32,2213                                           COUNT*   $$/P20
000108:
000109: 32,2213           77624        ORBCHG3            CALL
000110: 32,2214           27447                                    INTSTALL
000111: 32,2215           77745                           DLOAD
000112: 32,2216           03442                                    TIG
000113: 32,2217           03661                           STORE    LNCHTM
000114: 32,2220           00041                           STORE    TDEC1                                 #  ESTIMATED LAUNCH TIME
000115: 32,2221           43014                           CLEAR    CLEAR
000116: 32,2222           01674                                    VINTFLAG                              #  LM INTEGRATION
000117: 32,2223           01673                                    INTYPFLG                              #  PRECISION - ENCKE
000118: 32,2224           43014                           CLEAR    CLEAR
000119: 32,2225           01676                                    DIM0FLAG                              #  NO W-MATRIX
000120: 32,2226           01675                                    D6OR9FLG
000121: 32,2227           77624                           CALL
000122: 32,2230           27172                                    INTEGRV                               #  PLANETARY INERTIAL ORIENTATION
000123: 32,2231           77624                           CALL
000124: 32,2232           51770                                    GRP2PC
000125: 32,2233           77775                           VLOAD
000126: 32,2234           00017                                    RATT1
000127: 32,2235           17631                           STODL    RSUBL                                 #  SAVE LM POSITION
000128: 32,2236           00015                                    TAT


000130: 32,2237           34041                           STCALL   TDEC1
000131: 32,2240           27447                                    INTSTALL
000132: 32,2241           43014                           SET      CLEAR
000133: 32,2242           01474                                    VINTFLAG                              #  CSM INTEGRATION
000134: 32,2243           01673                                    INTYPFLG
000135: 32,2244           43014                           CLEAR    BOFF
000136: 32,2245           01676                                    DIM0FLAG
000137: 32,2246           02756                                    RENDWFLG                              #  W MATRIX VALID
000138: 32,2247           64253                                    NOWMATX                               #  NO
000139: 32,2250           43014                           SET      SET                                   #  YES - SET FOR W MATRIX
000140: 32,2251           01476                                    DIM0FLAG
000141: 32,2252           01475                                    D6OR9FLG
000142: 32,2253           77624        NOWMATX            CALL
000143: 32,2254           27172                                    INTEGRV                               #  CSM INTEGRATION
000144: 32,2255           77624                           CALL
000145: 32,2256           51770                                    GRP2PC
000146: 32,2257           77775                           VLOAD
000147: 32,2260           00025                                    VATT1
000148: 32,2261           25757                           STOVL    VSUBC                                 #  SAVE CSM VELOCITY
000149: 32,2262           00017                                    RATT1
000150: 32,2263           01101                           STORE    RSUBC                                 #  SAVE CSM POSITION
000151: 32,2264           53435                           VXV      UNIT                                  #  COMPUTE NORMAL TO CSM ORBITAL PLANE
000152: 32,2265           01757                                    VSUBC                                 #  NSUB1=UNIT(R(CM) CROSS V(GM)
000153: 32,2266           24025                           STOVL    20D                                   #  SAVE NSUB1
000154: 32,2267           03631                                    RSUBL                                 #  COMPUTE ESTIMATED ORBITAL
000155: 32,2270           53435                           VXV      UNIT                                  #  PLANE CHANGE
000156: 32,2271           00025                                    20D                                   #  UCSM = UNIT(R(LM) CROSS NSUB1)
000157: 32,2272           27637                           STOVL    UCSM
000158: 32,2273           01101                                    RSUBC                                 #  COMPUTE ANGLE BETWEEN UCSM
000159: 32,2274           50256                           UNIT     DOT                                   #  AND RSUBC
000160: 32,2275           03637                                    UCSM                                  #  COS A = UCSM DOT UNIT (R(CM))
000161: 32,2276           77752                           SL1
000162: 32,2277           02732                           STORE    CSTH                                  #  SAVE DOE TIME-THETA SUBROUTINE
000163: 32,2300           44316                           DSQ      BDSU                                  #  COMPUTE SINE A
000164: 32,2301           06475                                    ONEB-2
000165: 32,2302           77766                           SQRT
000166: 32,2303           26730                           STOVL    SNTH                                  #  SAVE FOR TIME-THETA SUBROUTINE
000167: 32,2304           01101                                    RSUBC                                 #  POSITION OF CSM AT EST. LAUNCH
000168: 32,2305           26655                           STOVL    RVEC                                  #  TIME FOR TIME-THETA   B-27
000169: 32,2306           01757                                    VSUBC                                 #  VELOCITY OF CSM AT EST. LAUNCH.
000170: 32,2307           77676                           VCOMP
000171: 32,2310           02744                           STORE    VVEC                                  #  TIME FOR TIME THETA   B-5
000172: 32,2311           45014                           CLEAR    CALL
000173: 32,2312           03666                                    RVSW
000174: 32,2313           24732                                    TIMETHET
000175: 32,2314           77676                           VCOMP
000176: 32,2315           03645                           STORE    NEWVEL                                #  TERMINAL VELOCITY OF CSM
000177: 32,2316           77745                           DLOAD
000178: 32,2317           00037                                    T
000179: 32,2320           27663                           STOVL    TRANSTM                               #  TRANSFER TIME


000181: 32,2321           03645                                    NEWVEL
000182: 32,2322           77646                           ABVAL
000183: 32,2323           24025                           STOVL    20D
000184: 32,2324           00001                                    0D
000185: 32,2325           03653                           STORE    NEWPOS                                #  TERMINAL POSITION OF CSM
000186: 32,2326           53435                           VXV      UNIT                                  #  COMPUTE NORMAL TO SCM ORBITAL PLANE
000187: 32,2327           03631                                    RSUBL                                 #  NSUB2 = UNIT(NEWPOS CROSS R(LM))
000188: 32,2330           53435                           VXV      UNIT                                  #  ROTATE TERMINAL VEL INTO DESIRED
000189: 32,2331           03653                                    NEWPOS                                #  ORBITAL PLANE
000190: 32,2332           76561                           VXSC     VSL1                                  #  VSUBC = ABVAL(NEWVEL) $ UNIT( NSUB2
000191: 32,2333           00025                                    20D
000192: 32,2334           37665                           STCALL   NCSMVEL                               #  NEW CSM VELOCITY
000193: 32,2335           51770                                    GRP2PC
000194: 32,2336           77624                           CALL
000195: 32,2337           27447                                    INTSTALL
000196: 32,2340           44345                           DLOAD    BDSU
000197: 32,2341           03663                                    TRANSTM                               #  LAUNCH TIME - TRANSFER TIME
000198: 32,2342           03661                                    LNCHTM
000199: 32,2343           25517                           STOVL    TET
000200: 32,2344           03653                                    NEWPOS
000201: 32,2345           01535                           STORE    RCV
000202: 32,2346           25503                           STOVL    RRECT
000203: 32,2347           03665                                    NCSMVEL
000204: 32,2350           35511                           STCALL   VRECT
000205: 32,2351           27734                                    MINIRECT
000206: 32,2352           45174                           AXT,2    CALL
000207: 32,2353           00002                                    2
000208: 32,2354           26717                                    ATOPCSM
000209: 32,2355           77624                           CALL
000210: 32,2356           27456                                    INTWAKE0
000211: 32,2357           77776                           EXIT
000212: 32,2360           04607                           TC       BANKCALL
000213: 32,2361           50040                           CADR     PROG20A
000214: 24,2036                                           BANK     24
000215: 24,2000                                           SETLOC   P20S
000216: 24,2000                                           BANK
000217: 24,2036                                           COUNT*   $$/P20
000218:
000219: 24,2036           05520                           TC       DOWNFLAG                              #  RESET VEHUPFLG- LM STATE VECTOR
000220: 24,2037           00026                           ADRES    VEHUPFLG                              #  TO BE UPDATED
000221: 24,2040           04607        PROG20A            TC       BANKCALL
000222: 24,2041           33757                           CADR     R02BOTH
000223: 24,2042           05506                           TC       UPFLAG
000224: 24,2043           00027                           ADRES    UPDATFLG                              #  SET UPDATE FLAG
000225: 24,2044           05506                           TC       UPFLAG
000226: 24,2045           00031                           ADRES    TRACKFLG                              #  SET TRACK FLAG
000227: 24,2046           05506                           TC       UPFLAG
000228: 24,2047           00010                           ADRES    RNDVZFLG                              #  SET RENDEZVOUS FLAG
000229: 24,2050           05520                           TC       DOWNFLAG
000230: 24,2051           00037                           ADRES    SRCHOPTN                              #  INSURE SEARCH OPTION OFF


000232: 24,2052           05520                           TC       DOWNFLAG                              #  ALSO MANUAL ACQUISITION FLAG RESET
000233: 24,2053           00040                           ADRES    ACMODFLG
000234: 24,2054           05520                           TC       DOWNFLAG                              #  TURN OFF R04FLAG TO ENSURE GETTING
000235: 24,2055           00063                           ADRES    R04FLAG                               #  ALARM 521 IF CANT READ RADAR
000236: 24,2056           05520                           TC       DOWNFLAG                              #  ENSURE R25 GIMBAL MONITOR IS ENABLED
000237: 24,2057           00126                           ADRES    NORRMON                               #  (RESET NORRMON FLAG)
000238: 24,2060           05520                           TC       DOWNFLAG                              #  RESET LOS BEING COMPUTED FLAG
000239: 24,2061           00041                           ADRES    LOSCMFLG
000240: 24,2062           06032                           TC       CLRADMD1
000241: 24,2063           05506                           TC       UPFLAG
000242: 24,2064           00005                           ADRES    FSPASFLG                              #  SET FIRST PASS FLAG FOR ALARM
000243: 24,2065           05355        P20LEM1            TC       PHASCHNG
000244: 24,2066           04022                           OCT      04022
000245: 24,2067           34746                           CAF      ZERO                                  #  ZERO MARK COUNTER
000246: 24,2070           55462                           TS       MARKCTR
000247: 24,2071           06060        P20LEM2            TC       INTPRET                               #  LOS DETERMINATION ROUTINE
000248: 24,2072           77634                           RTB
000249: 24,2073           21603                                    LOADTIME
000250: 24,2074           34041                           STCALL   TDEC1
000251: 24,2075           51337                                    LPS20.1
000252: 24,2076           77624                           CALL
000253: 24,2077           53626                                    LPS20.2                               #  TEST RANGE R/UTINE
000254: 24,2100           77776                           EXIT
000255: 24,2101           50154                           INDEX    MPAC
000256: 24,2102           02103                           TC       +1
000257: 24,2103           02167                           TC       P20LEMA                               #  NORMAL RETURN WTIHIN 400 N M
000258: 24,2104           06060        526ALARM           TC       INTPRET
000259: 24,2105           53575                           VLOAD    UNIT
000260: 24,2106           00025                                    RRANGE
000261: 24,2107           72441                           DOT      SL1
000262: 24,2110           00017                                    VELLOS
000263: 24,2111           16216                           STODL    RRATE                                 #  RANGE RATE FOR NOUN 54 B-7
000264: 24,2112           00045                                    36D
000265: 24,2113           51025                           DSU      BPL                                   #  IF RANGE>999.99,DISPLAY 999.99
000266: 24,2114           10372                                    999.99NM
000267: 24,2115           50142                                    TOOBIG
000268: 24,2116           77745                           DLOAD
000269: 24,2117           00045                                    36D
000270: 24,2120           16214        526ALRM1           STODL    RANGE                                 #   RANGE FOR NOUN 54 B-29
000271: 24,2121           06505                                    ZEROVECS
000272: 24,2122           02220                           STORE    RTHETA                                #  ZERO THETA FOR NOUN 54
000273: 24,2123           43014                           BOFF     BOFF
000274: 24,2124           00345                                    FSPASFLG                              #  FIRST PASS
000275: 24,2125           50155                                    P20LEMC5                              #  NO
000276: 24,2126           04347                                    SURFFLAG                              #  ON LUNAR SURFACE
000277: 24,2127           50147                                    ALRMLT                                #  NO
000278: 24,2130           51145                           DLOAD    BPL
000279: 24,2131           02216                                    RRATE
000280: 24,2132           50145                                    ENDRN
000281: 24,2133           77776                           EXIT                                           #  YES
000282:


000284: 24,2134           05355                           TC       PHASCHNG                              #  IN CASE OF RESTART
000285: 24,2135           04022                           OCT      04022                                 #  REACTIVATE DISPLAY
000286: 24,2136           32373                           CAF      V16N5420
000287: 24,2137           04607                           TC       BANKCALL                              #  TURN ON V16N54 - DISPLAY
000288: 24,2140           20444                           CADR     GODSPR                                #  RANGE AND RANGE RATE
000289: 24,2141           02156                           TC       P20LEM5
000290:
000291:
000292: 24,2142           52145        TOOBIG             DLOAD    GOTO
000293: 24,2143           10372                                    999.99NM
000294: 24,2144           50120                                    526ALRM1
000295:
000296: 24,2145           77776        ENDRN              EXIT
000297: 24,2146           06043                           TC       GOTOV56
000298:
000299: 24,2147           77776        ALRMLT             EXIT
000300: 24,2150           05355                           TC       PHASCHNG
000301: 24,2151           04022                           OCT      04022
000302: 24,2152           05571                           TC       ALARM                                 #  TURN ON ALARM LIGHT P20
000303: 24,2153           00526                           OCT      526
000304: 24,2154           02156                           TC       P20LEM5
000305: 24,2155           77776        P20LEMC5           EXIT
000306: 24,2156           05520        P20LEM5            TC       DOWNFLAG
000307: 24,2157           00005                           ADRES    FSPASFLG
000308: 24,2160           32370                           CAF      500DEC                                #  WAT 5SECS
000309: 24,2161           04607                           TC       BANKCALL
000310: 24,2162           01736                           CADR     DELAYJOB
000311: 24,2163           02071                           TC       P20LEM2
000312:
000313:
000314: 24,2164           04607        P20LEM3            TC       BANKCALL
000315: 24,2165           20451                           CADR     CLEANDSP
000316:
000317:
000318: 24,2166           02175                           TC       P20LEMB
000319: 24,2167           05355        P20LEMA            TC       PHASCHNG
000320: 24,2170           04022                           OCT      04022
000321: 24,2171           02751                           TC       LUNSFCHK                              #  CHECK LUNAR SURFACE FLAG (P22 FLAG)
000322: 24,2172           02164                           TC       P20LEM3
000323: 24,2173           04607                           TC       BANKCALL
000324: 24,2174           46116                           CADR     R61LEM                                #  PREFERRED TRACKING ATTITUDE ROUTINE
000325: 24,2175           05355        P20LEMB            TC       PHASCHNG
000326: 24,2176           05022                           OCT      05022                                 #  RESTART AT PRIORITY 10 TO ALLOW V37
000327: 24,2177           10000                           OCT      10000                                 #  REQUESTED PROGRAM TO RUN FIRST
000328: 24,2200           37735                           CAF      PRIO26                                #  RESTORE PRIORITY 26
000329: 24,2201           05137                           TC       PRIOCHNG
000330: 24,2202           30075                           CA       FLAGWRD1                              #  IS THE TRACK FLAG SET
000331: 24,2203           74740                           MASK     TRACKBIT
000332: 24,2204           00006                           EXTEND
000333: 24,2205           12310                           BZF      P20LEMWT                              #   BRANCH - NO - WAIT FOR IT TO BE SET
000334:


000336: 24,2206           34743        P20LEMB7           CAF      BIT2                                  #  IS RR AUTO MODE DISCRETE PRESENT
000337: 24,2207           00006                           EXTEND
000338: 24,2210           02033                           RAND     CHAN33
000339: 24,2211           00006                           EXTEND
000340: 24,2212           12246                           BZF      P20LEMB3                              #  YES - DO AUTOMATIC ACQUISITION (R21)
000341:
000342: 24,2213           46007        P20LEMB5           CS       OCT24                                 #  RADAR NOT IN AUTO CHECK IF
000343: 24,2214           61010                           AD       MODREG                                #  MAJOR MODE IS 20
000344: 24,2215           00006                           EXTEND
000345: 24,2216           12231                           BZF      P20LEMB6                              #  BRANCH - YES-OK TO DO PLEASE PERFORM
000346:
000347:
000348: 24,2217           67767                           AD       NEG2                                  #  ALSO CHECK FOR P22
000349: 24,2220           00006                           EXTEND
000350: 24,2221           12231                           BZF      P20LEMB6                              #  BRANCH - YES OK TO DO PLEASE PERFORM
000351: 24,2222           32365                           CAF      ALRM514                               #  TRACK FLAG SET-FLASH PRIORITY ALARM 514-
000352: 24,2223           04607                           TC       BANKCALL                              #  RADAR GOES OUT OF AUTO MODE WHILE IN USE
000353: 24,2224           21572                           CADR     PRIOLARM
000354: 24,2225           06043                           TC       GOTOV56                               #  TERMINATE EXITS VIA V56
000355: 24,2226           02175                           TC       P20LEMB                               #  PROCEED AND ENTER BOTH GO BACK
000356: 24,2227           02175                           TC       P20LEMB                               #  TO CHECK AUTO MODE AGAIN
000357: 24,2230           05146                           TC       ENDOFJOB
000358: 24,2231           32364        P20LEMB6           CAF      OCT201                                #  REQUEST RR AUTO MODE SELECTION
000359: 24,2232           04607                           TC       BANKCALL
000360: 24,2233           20635                           CADR     GOPERF1
000361: 24,2234           06043                           TC       GOTOV56                               #  TERMINATE EXITS P20 VIA V56 CODING
000362: 24,2235           02175                           TC       P20LEMB                               #  PROCEED CHECKS AUTO MODE DISCRETE AGAIN
000363: 24,2236           02751                           TC       LUNSFCHK                              #  ENTER INDICATES MANUAL ACQUISITION (R23)
000364: 24,2237           02244                           TC       P20LEMB2                              #  YES - R23 NOT ALLOWED-TURN ON OPR ERROR
000365: 24,2240           03220                           TC       R23LEM                                #  NO - DO MANUAL ACQUISITION
000366:
000367:
000368: 24,2241           05506        P20LEMB1           TC       UPFLAG                                #  RETURN FROM R23 - LOCKON ACHIEVED
000369: 24,2242           00040                           ADRES    ACMODFLG                              #  SET MANUAL FLAG AND GO BACK TO CHECK
000370: 24,2243           02175                           TC       P20LEMB                               #  RR AUTO MODE
000371:
000372:
000373: 24,2244           04355        P20LEMB2           TC       FALTON                                #  TURNS ON OPERATOR ERROR LIGHT ON DSKY
000374: 24,2245           02175                           TC       P20LEMB                               #  AND GOES BACK TO CHECK AUTO MODE
000375:
000376:
000377: 24,2246           40110        P20LEMB3           CS       RADMODES                              #  ARE RR CDUS BEING ZEROED
000378: 24,2247           74730                           MASK     RCDU0BIT
000379: 24,2250           00006                           EXTEND
000380: 24,2251           12263                           BZF      P20LEMB4                              #  BRANCH - YES - WAIT
000381: 24,2252           34346                           CAF      BIT13-14                              #  IS SEARCH OR MANUAL ACQUISITION FLAG SET
000382: 24,2253           70076                           MASK     FLAGWRD2
000383: 24,2254           00006                           EXTEND
000384: 24,2255           12267                           BZF      P20LEMC3                              #  ZERO MEANS AUTOMATIC RR ACQUISTION


000386: 24,2256           05520                           TC       DOWNFLAG                              #  RESET TO AUTO MODE
000387: 24,2257           00037                           ADRES    SRCHOPTN
000388: 24,2260           05520                           TC       DOWNFLAG
000389: 24,2261           00040                           ADRES    ACMODFLG
000390: 24,2262           02310                           TC       P20LEMWT                              #  WAIT 2.5 SECONDS THEN GO TO RR DATA READ
000391:
000392:
000393: 24,2263           32362        P20LEMB4           CAF      250DEC
000394: 24,2264           04607                           TC       BANKCALL                              #  WAIT 2.5 SECONDS WHILE RR CDUS ARE BEING
000395: 24,2265           01736                           CADR     DELAYJOB                              #  ZEROED-THEN GO BACK AND CHECK AGAIN
000396: 24,2266           02246                           TC       P20LEMB3
000397:
000398:
000399: 24,2267           06060        P20LEMC3           TC       INTPRET
000400: 24,2270           77634                           RTB
000401: 24,2271           21603                                    LOADTIME
000402: 24,2272           34041                           STCALL   TDEC1
000403: 24,2273           50374                                    UPPSV
000404: 24,2274           77776        P20LEMC4           EXIT
000405: 24,2275           05355        P20LEMC            TC       PHASCHNG
000406: 24,2276           04022                           OCT      04022
000407: 24,2277           30074                           CAE      FLAGWRD0                              #  IS THE RENDEZVOUS FLAG SET
000408: 24,2300           74736                           MASK     RNDVZBIT
000409: 24,2301           00006                           EXTEND
000410: 24,2302           15146                           BZF      ENDOFJOB                              #  NO - EXIT P20
000411: 24,2303           30075                           CAE      FLAGWRD1                              #  IS TRACK FLAG SET  (BIT 5 FLAGWORD 1)
000412: 24,2304           74740                           MASK     TRACKBIT
000413: 24,2305           00006                           EXTEND
000414: 24,2306           12342                           BZF      P20LEMD                               #  BRANCH-TRACK FLAG NOT ON-WAIT 15 SECONDS
000415: 24,2307           02756        P20LEMF            TC       R21LEM
000416:
000417:
000418: 24,2310           32362        P20LEMWT           CAF      250DEC
000419: 24,2311           05175                           TC       TWIDDLE                               #  USE INSTEAD OF WAITLIST SINCE SAME BANK
000420: 24,2312           02322                           ADRES    P20LEMC1                              #  WAIT 2.5 SECONDS
000421: 24,2313           30075                           CAE      FLAGWRD1                              #  IS TRACK FLAG SET
000422: 24,2314           74740                           MASK     TRACKBIT
000423: 24,2315           00006                           EXTEND
000424: 24,2316           15146                           BZF      ENDOFJOB                              #  NO-EXIT WITHOUT DOING 2.7 PHASE CHANGE
000425: 24,2317           05355        P20LMWT1           TC       PHASCHNG
000426: 24,2320           40072                           OCT      40072
000427: 24,2321           05146                           TC       ENDOFJOB
000428:
000429:
000430: 24,2322           30074        P20LEMC1           CAE      FLAGWRD0                              #  IS RENDEZVOUS FLAG SET
000431: 24,2323           74736                           MASK     RNDVZBIT
000432: 24,2324           00006                           EXTEND
000433: 24,2325           15263                           BZF      TASKOVER                              #  NO - EXIT P20/R22
000434: 24,2326           30075                           CAE      FLAGWRD1                              #  IS TRACK FLAG SET
000435: 24,2327           74740                           MASK     TRACKBIT


000437: 24,2330           00006                           EXTEND
000438: 24,2331           12337                           BZF      P20LEMC2                              #  NO-DONT SCHEDULE R22 JOB
000439: 24,2332           37735                           CAF      PRIO26                                #  YES-SCHEDULE R22 JOB (RR DATA READ)
000440: 24,2333           05076                           TC       FINDVAC
000441: 24,2334  E7,1456                                  EBANK=   LOSCOUNT
000442: 24,2334           02713 50067                     2CADR    R22LEM42
000443:
000444: 24,2336           05263                           TC       TASKOVER
000445:
000446:
000447: 24,2337           05223        P20LEMC2           TC       FIXDELAY                              #  TRACK FLAG NOT SET ,WAIT 15 SECONDS
000448: 24,2340           02734                           DEC      1500       B-14                       #  AND CHECK AGAIN
000449:
000450: 24,2341           02322                           TC       P20LEMC1
000451:
000452: 24,2342           32750        P20LEMD            CAF      1500DEC
000453: 24,2343           05175                           TC       TWIDDLE                               #  WAITLIST FOR 5 SECONDS
000454: 24,2344           02346                           ADRES    P20LEMD1
000455: 24,2345           05146                           TC       ENDOFJOB
000456:
000457:
000458: 24,2346           30075        P20LEMD1           CAE      FLAGWRD1                              #  IS TRACK FLAG SET
000459: 24,2347           74740                           MASK     TRACKBIT
000460: 24,2350           10000                           CCS      A
000461: 24,2351           12355                           TCF      P20LEMD2                              #  YES-SCHEDULE DESIGNATE JOB
000462: 24,2352           05223                           TC       FIXDELAY                              #  NO-WAIT 15 SECONDS
000463: 24,2353           02734                           DEC      1500       B-14
000464: 24,2354           02346                           TC       P20LEMD1
000465:
000466:
000467: 24,2355           37735        P20LEMD2           CAF      PRIO26                                #  SCHEDULE JOB TO DO R21
000468: 24,2356           05076                           TC       FINDVAC
000469: 24,2357  E7,1456                                  EBANK=   LOSCOUNT
000470: 24,2357           02267 50067                     2CADR    P20LEMC3                              #  START AT PERM. MEMORY INTEGRATION
000471:
000472: 24,2361           05263                           TC       TASKOVER
000473:
000474:
000475: 24,2362           00372        250DEC             DEC      250        B-14
000476: 24,2363           00526        ALRM526            OCT      00526
000477: 24,2364           00201        OCT201             OCT      00201
000478: 24,2365           00514        ALRM514            OCT      514
000479: 24,2366           00074        MAXTRIES           DEC      60         B-14
000480: 24,2367     4354               OCT00012           EQUALS   BINCON
000481: 24,2367  23,2474               ONEB-2             EQUALS   DP1/4TH
000482: 24,2367           01441        V06N33*            VN       0633
000483: 24,2370           00764        500DEC             DEC      500        B-14
000484: 24,2371           00070 20447  999.99NM           2DEC     1851982    B-29
000485:
000486: 24,2373           04066        V16N5420           VN       1654
000487:


000489: 24,2374           45020        UPPSV              STQ      CALL                                  #  UPDATES PERMANENT STATE VECTORS
000490: 24,2375           01755                                    LS21X                                 #   TO PRESENT TIME
000491: 24,2376           27447                                    INTSTALL
000492: 24,2377           77624                           CALL
000493: 24,2400           26702                                    SETIFLGS
000494: 24,2401           43014                           BOF      SET                                   #  IF W-MATRIX INVALID,DONT INTEGRATE IT
000495: 24,2402           02756                                    RENDWFLG
000496: 24,2403           50414                                    UPPSV1
000497: 24,2404           01476                                    DIM0FLAG                              #  SET DIM0FLAG TO INTEGRATE W-MATRIX
000498: 24,2405           43014                           BON      SET
000499: 24,2406           04307                                    SURFFLAG                              #  IF ON LUNAR SURFACE W IS 6X6
000500: 24,2407           50411                                    UPPSV5
000501: 24,2410           01475                                    D6OR9FLG                              #  OTHERWISE 9X9
000502: 24,2411           77614        UPPSV5             BOF
000503: 24,2412           00747                                    VEHUPFLG
000504: 24,2413           50446                                    UPPSV3
000505: 24,2414           77614        UPPSV1             SET
000506: 24,2415           01474                                    VINTFLAG
000507: 24,2416           77624                           CALL
000508: 24,2417           27172                                    INTEGRV
000509: 24,2420           77624                           CALL                                           #  GROUP 2 PHASE CHANGE
000510: 24,2421           51770                                    GRP2PC                                #  TO PROTECT INTEGRATION
000511: 24,2422           77624                           CALL
000512: 24,2423           27447                                    INTSTALL
000513: 24,2424           43145                           DLOAD    CLEAR                                 #  GET TETCSM TO STORE IN TDEC FOR LM INT.
000514: 24,2425           01571                                    TETCSM
000515: 24,2426           01674                                    VINTFLAG
000516: 24,2427           77624        UPPSV4             CALL                                           #  INTEGRATE OTHER VEHICLE
000517: 24,2430           26702                                    SETIFLGS                              #   WITHOUT W-MATRIX
000518: 24,2431           34041                           STCALL   TDEC1
000519: 24,2432           27172                                    INTEGRV
000520: 24,2433           77214                           BOFF     VLOAD
000521: 24,2434           04347                                    SURFFLAG
000522: 24,2435           50274                                    P20LEMC4
000523: 24,2436           01661                                    RCVLEM
000524: 24,2437           77742                           VSR2
000525: 24,2440           26343                           STOVL    LMPOS
000526: 24,2441           01667                                    VCVLEM
000527: 24,2442           77742                           VSR2
000528: 24,2443           02351                           STORE    LMVEL
000529: 24,2444           77650                           GOTO
000530: 24,2445           01755                                    LS21X
000531:
000532:
000533: 24,2446           45014        UPPSV3             CLEAR    CALL
000534: 24,2447           01674                                    VINTFLAG
000535: 24,2450           27172                                    INTEGRV
000536: 24,2451           77624                           CALL
000537: 24,2452           51770                                    GRP2PC
000538: 24,2453           77624                           CALL


000540: 24,2454           27447                                    INTSTALL
000541: 24,2455           71214                           SET      DLOAD
000542: 24,2456           01474                                    VINTFLAG
000543: 24,2457           01643                                    TETLEM                                #  GET TETLEM TO STORE IN TDEC FOR CSM INT.
000544: 24,2460           77650                           GOTO
000545: 24,2461           50427                                    UPPSV4
000546:
000547:
000548: 24,2462  E7,1456                                  EBANK=   LOSCOUNT
000549: 24,2462                                           COUNT*   $$/P22
000550:


000552:                                                                                                  #  PROGRAM DESCRIPTION
000553:                                                                                                  #  PREFERRED TRACKING ATTITUDE PROGRAM P25
000554:                                                                                                  #  MOD NO - 3
000555:                                                                                                  #  BY  P. VOLANTE
000556:                                                                                                  #  FUNCTIONAL DESCRIPTION
000557:
000558:                                                                                                  #    THE PURPOSE OF THIS PROGRAM IS TO COMPUTE THE PREFERRED TRACKING
000559:                                                                                                  #  ATTITUDE OF THE LM TO CONTINUOUSLY POINT THE LM TRACKING BEACON AT THE
000560:                                                                                                  #  CSM AND TO PERFORM THE MANEUVER TO THE PREFERRED TRACKING ATTITUDE AND
000561:                                                                                                  #  CONTINUOUSLY MAINTAIN THIS ATTITUDE WITHIN PRESCRIBED LIMITS
000562:                                                                                                  #  CALLING SEQUENCE -
000563:                                                                                                  #    ASTRONAUT REQUEST THROUGH DSKY V37E25E
000564:                                                                                                  #  SUBROUTINES CALLED -
000565:                                                                                                  #    BANKCALL                      FLAGUP
000566:                                                                                                  #    R02BOTH  (IMU STATUS CHECK)   ENDOFJOB
000567:                                                                                                  #    R61LEM   (PREF TRK ATT ROUT)  WAITLIST
000568:                                                                                                  #    TASKOVER                      FINDVAC
000569:                                                                                                  #  NORMAL EXIT MODES  -
000570:                                                                                                  #    P25 MAY BE TERMINATED IN TWO WAYS-ASTRONAUT SELECTION OF IDLING
000571:                                                                                                  #  PROGRAM(P00) BY KEYING V37E00E OR BY KEYING IN V56E
000572:                                                                                                  #  ALARM OR ABORT EXIT MODES -
000573:                                                                                                  #    NONE
000574:                                                                                                  #  OUTPUT
000575:                                                                                                  #  ERASABLE INITIALIZATION REQUIRED
000576:                                                                                                  #  FLAGS SET + RESET
000577:                                                                                                  #    TRACKFLG,P25FLAG
000578:                                                                                                  #  DEBRIS
000579:                                                                                                  #    NONE
000580: 24,2462  E7,1456                                  EBANK=   LOSCOUNT
000581: 24,2462                                           COUNT*   $$/P25
000582: 24,2462           05331        PROG25             TC       2PHSCHNG
000583: 24,2463           00004                           OCT      4                                     #  MAKE GROUP 4 INACTIVE (VERB 37)
000584: 24,2464           05022                           OCT      05022
000585: 24,2465           26000                           OCT      26000                                 #  PRIORITY 26
000586:
000587: 24,2466           04607                           TC       BANKCALL
000588: 24,2467           33757                           CADR     R02BOTH                               #  IMU STATUS CHECK
000589: 24,2470           05506                           TC       UPFLAG
000590: 24,2471           00031                           ADRES    TRACKFLG                              #  SET TRACK FLAG
000591: 24,2472           05506                           TC       UPFLAG
000592: 24,2473           00006                           ADRES    P25FLAG                               #  SET P25FLAG
000593: 24,2474           05520                           TC       DOWNFLAG
000594: 24,2475           00010                           ADRES    RNDVZFLG
000595: 24,2476           05355        P25LEM1            TC       PHASCHNG
000596: 24,2477           04022                           OCT      04022
000597: 24,2500           34734                           CAF      P25FLBIT
000598: 24,2501           70074                           MASK     STATE                                 #  IS P25FLAG SET
000599: 24,2502           00006                           EXTEND
000600: 24,2503           15146                           BZF      ENDOFJOB
000601: 24,2504           34740                           CAF      TRACKBIT                              #  IS TRACKFLAG SET?


000603: 24,2505           70075                           MASK     STATE      +1
000604: 24,2506           00006                           EXTEND
000605: 24,2507           12515                           BZF      P25LMWT1                              #  NO-SKIP PHASE CHANGE AND WAIT 1 MINUTE
000606: 24,2510           34750                           CAF      SEVEN                                 #  CALL R65 - FINE PREFERRED
000607: 24,2511           55745                           TS       R65CNTR
000608: 24,2512           04607                           TC       BANKCALL                              #  TRACKING ATTITUDE ROUTINE
000609: 24,2513           46123                           CADR     R65LEM
000610: 24,2514           02476                           TC       P25LEM1                               #  THEN GO CHECK FLAGS
000611: 24,2515           32526        P25LMWT1           CAF      60SCNDS
000612: 24,2516           05175                           TC       TWIDDLE                               #  WAIT ONE MINUTE THEN CHECK AGAIN
000613: 24,2517           02521                           ADRES    P25LEM2
000614: 24,2520           05146                           TC       ENDOFJOB
000615: 24,2521           35015        P25LEM2            CAF      PRIO14
000616: 24,2522           05076                           TC       FINDVAC
000617: 24,2523  E7,1456                                  EBANK=   LOSCOUNT
000618: 24,2523           02476 50067                     2CADR    P25LEM1
000619:
000620: 24,2525           05263                           TC       TASKOVER
000621: 24,2526           13560        60SCNDS            DEC      6000       B-14
000622:


000624:                                                                                                  #  DATA READ ROUTINE 22 (LEM)
000625:                                                                                                  #  PROGRAM DESCRIPTION
000626:                                                                                                  #  MOD NO - 2
000627:                                                                                                  #  BY P VOLANTE
000628:                                                                                                  #  FUNCTIONAL DESCRIPTION
000629:
000630:                                                                                                  #    TO PROCESS AUTOMATIC RR MARK DATA TO UPDATE THE STATE VECTOR OF EITHER
000631:                                                                                                  #  LM OR CSM AS DEFINED IN THE RENDEZVOUS NAVIGATION PROGRAM (P20)
000632:                                                                                                  #  CALLING SEQUENCE -
000633:                                                                                                  #           TC     BANKCALL
000634:                                                                                                  #           CADR   R22LEM
000635:                                                                                                  #  SUBROUTINES CALLED -
000636:                                                                                                  #    LSR22.1           GOFLASH        WAITLIST
000637:                                                                                                  #    LSR22.2           PRIOLARM       BANKCALL
000638:                                                                                                  #    LSR22.3           R61LEM
000639:                                                                                                  #  NORMAL EXIT MODES-
000640:                                                                                                  #    R22 WILL CONTINUE TO RECYCLE,UPDATING STATE VECTORS WITH RADAR DATA
000641:                                                                                                  #  UNTIL P20 CEASES TO OPERATE (RENDEZVOUS FLAG SET TO ZERO) AT WHICH TIME
000642:                                                                                                  #  R22 WILL TERMINATE SELF.
000643:                                                                                                  #  ALARM OR ABORT EXIT MODES-
000644:                                                                                                  #    PRIORITY ALARM
000645:                                                                                                  #  PRIORITY ALARM 525 LOS NOT WITHIN 3 DEGREE LIMIT
000646:                                                                                                  #  OUTPUT
000647:                                                                                                  #    SEE OUTPUT FROM LSR22.3
000648:                                                                                                  #  ERASABLE INITIALIZATION REQUIRED
000649:                                                                                                  #    SEE LSR22.1,LSR22.2,LSR22.3
000650:                                                                                                  #  FLAGS SET + RESET
000651:                                                                                                  #    NOANGFLG
000652:                                                                                                  #  DEBRIS
000653:                                                                                                  #    SEE LSR22.1,LSR22.2,LSR22.3
000654: 24,2527  E7,1737                                  EBANK=   LRS22.1X
000655: 24,2527                                           COUNT*   $$/R22
000656: 24,2527           05355        R22LEM             TC       PHASCHNG
000657: 24,2530           04022                           OCT      04022
000658: 24,2531           34736                           CAF      RNDVZBIT                              #  IS RENDEZVOUS FLAG SET?
000659: 24,2532           70074                           MASK     STATE
000660: 24,2533           00006                           EXTEND
000661: 24,2534           15146                           BZF      ENDOFJOB                              #  NO-EXIT R22 AND P20
000662: 24,2535           34740                           CAF      TRACKBIT                              #  IS TRACKFLAG SET?
000663: 24,2536           70075                           MASK     STATE      +1
000664: 24,2537           00006                           EXTEND
000665: 24,2540           12724                           BZF      R22WAIT                               #  NO WAIT
000666: 24,2541           34727        R22LEM12           CAF      BIT14                                 #  IS RR AUTO TRACK ENABLE DISCRETE STILL
000667: 24,2542           00006                           EXTEND                                         #  ON (A MONITOR REPOSITION BY R25 CLEARSIT
000668: 24,2543           02012                           RAND     CHAN12
000669: 24,2544           00006                           EXTEND
000670: 24,2545           12167                           BZF      P20LEMA                               #  NO - RETURN TO P20
000671: 24,2546           34743                           CAF      BIT2                                  #  YES
000672: 24,2547           00006                           EXTEND                                         #  IS RR AUTO MODE DISCRETE PRESENT
000673: 24,2550           02033                           RAND     CHAN33


000675: 24,2551           00006                           EXTEND
000676: 24,2552           12554                           BZF      +2                                    #  YES CONTINUE
000677: 24,2553           02213                           TC       P20LEMB5                              #  NO - SET IT
000678: 24,2554           40110                           CS       RADMODES                              #  ARE RR CDUS BEING ZEROED
000679: 24,2555           74730                           MASK     RCDU0BIT
000680: 24,2556           00006                           EXTEND
000681: 24,2557           12713                           BZF      R22LEM42                              #  CDUS BEING ZEROED
000682: 24,2560           05355                           TC       PHASCHNG                              #  IF A RESTART OCCURS,AN EXTRA RADAR
000683: 24,2561           00152                           OCT      00152                                 #  READING IS TAKEN,SO BAD DATA ISN'T USED
000684: 24,2562           04607                           TC       BANKCALL                              #  YES READ DATA + CALCULATE LOS
000685: 24,2563           64362                           CADR     LRS22.1                               #  DATA READ SUBROUTINE
000686: 24,2564           50154                           INDEX    MPAC
000687: 24,2565           02566                           TC       +1
000688: 24,2566           02607                           TC       R22LEM2                               #  NORMAL RETURN (GOOD DATA)
000689: 24,2567           02275                           TC       P20LEMC                               #  COULD NOT READ RADAR-TRY TO REDESIGNATE
000690: 24,2570           32745                           CAF      ALRM525                               #  RR LOS NOT WITHIN 3 DEGREES (ALARM)
000691: 24,2571           04607                           TC       BANKCALL
000692: 24,2572           21572                           CADR     PRIOLARM
000693: 24,2573           06043                           TC       GOTOV56                               #  TERMINATE EXITS P20 VIA V56 CODING
000694: 24,2574           02577                           TC       R22LEM1                               #  PROC (DISPLAY DELTA THETA)
000695: 24,2575           02570                           TC       -5                                    #  ENTER(ILLEGAL OPTION)
000696: 24,2576           05146                           TC       ENDOFJOB
000697:
000698:
000699: 24,2577           05355        R22LEM1            TC       PHASCHNG
000700: 24,2600           04022                           OCT      04022
000701: 24,2601           32746                           CAF      V06N05                                #  DISPLAY DELTA THETA
000702: 24,2602           04607                           TC       BANKCALL
000703: 24,2603           20502                           CADR     PRIODSP
000704: 24,2604           06043                           TC       GOTOV56                               #  TERMINATE EXITS P20 VIA V56 CODING
000705: 24,2605           02607                           TC       R22LEM2                               #  PROC (OK CONTINUE)
000706: 24,2606           02275                           TC       P20LEMC                               #  ENTER(RECYCLE)
000707: 24,2607           05355        R22LEM2            TC       PHASCHNG
000708: 24,2610           04022                           OCT      04022
000709: 24,2611           02751                           TC       LUNSFCHK                              #  CHECK IF ON LUNAR SURFACE (P22FLAG SET)
000710: 24,2612           02627                           TC       R22LEM3                               #  YES-BYPASS FLAG CHECKS AND LRS22.2
000711: 24,2613           30075                           CA       FLAGWRD1                              #  IS TRACK FLAG SET
000712: 24,2614           74740                           MASK     TRACKBIT
000713: 24,2615           00006                           EXTEND
000714: 24,2616           12724                           BZF      R22WAIT                               #  NO - WAIT
000715: 24,2617           04607                           TC       BANKCALL                              #  YES
000716: 24,2620           51416                           CADR     LRS22.2                               #  CHECKS RR BORESIGHT WITHIN 30 DEG OF +Z
000717: 24,2621           50154                           INDEX    MPAC
000718: 24,2622           02623                           TC       +1
000719: 24,2623           02627                           TC       R22LEM3                               #  NORMAL RETURN(LOS WITHIN 30  OF Z-AXIS)
000720: 24,2624           04607                           TC       BANKCALL
000721: 24,2625           46116                           CADR     R61LEM
000722: 24,2626           02724                           TC       R22WAIT                               #  NOT WITHIN 30 DEG OF Z-AXIS
000723: 24,2627           40075        R22LEM3            CS       FLAGWRD1                              #  SHOULD WE BYPASS STATE VECTOR UPDATE
000724: 24,2630           74737                           MASK     NOUPFBIT                              #  (IS NOUPDATE FLAG SET?)


000726: 24,2631           00006                           EXTEND
000727: 24,2632           12713                           BZF      R22LEM42                              #  BRANCH-YES
000728: 24,2633           30075                           CA       FLAGWRD1                              #  IS UPDATE FLAG SET
000729: 24,2634           74736                           MASK     UPDATBIT
000730: 24,2635           00006                           EXTEND
000731: 24,2636           12713                           BZF      R22LEM42                              #  UPDATE FLAG NOT SET
000732: 24,2637           37735                           CAF      PRIO26                                #  INSURE HIGH PRIO IN RESTART
000733: 24,2640           55055                           TS       PHSPRDT2
000734:
000735: 24,2641           06060                           TC       INTPRET
000736: 24,2642           77650                           GOTO
000737: 24,2643           54424                                    LSR22.3
000738: 24,2644           77776        R22LEM93           EXIT                                           #  NORMAL EXIT FROM LSR22.3
000739: 24,2645           05355                           TC       PHASCHNG                              #  PHASE CHANGE TO PROTECT AGAINST
000740: 24,2646           04022                           OCT      04022                                 #  CONFLICT WITH GRP2PC ERASEABLE
000741: 24,2647           12706                           TCF      R22LEM44
000742: 24,2650           77776        R22LEM96           EXIT
000743: 24,2651           34746                           CAF      ZERO                                  #  SET N49FLAG = ZERO TO INDICATE
000744: 24,2652           55746                           TS       N49FLAG                               #  V06 N49 DISPLAY HASNT BEEN ANSWERED
000745: 24,2653           05355                           TC       PHASCHNG
000746: 24,2654           04022                           OCT      04022                                 #  TO PROTECT DISPLAY
000747: 24,2655           37736                           CAF      PRIO27                                #  PROTECT DISPLAY
000748: 24,2656           05063                           TC       NOVAC
000749: 24,2657  E7,1746                                  EBANK=   N49FLAG
000750: 24,2657           02726 50067                     2CADR    N49DSP
000751:
000752: 24,2661           06060                           TC       INTPRET
000753: 24,2662           77735                           SLOAD
000754: 24,2663           03747                                    N49FLAG
000755: 24,2664           50054                           BZE      BMN                                   #  LOOP TO CHECK IF FLAG
000756: 24,2665           50662                                    -3                                    #  SETTING CHANGED-BRANCH - NO
000757: 24,2666           50674                                    R22LEM7                               #  PROCEED
000758: 24,2667           77650                           GOTO                                           #  DISPLAY ANSWERED BY RECYCLE-INCORPORATE
000759: 24,2670           03675                                    LGRET                                 #        NEXT MEASUREMENT
000760: 24,2671           44743        V34TON49           CS       TWO
000761: 24,2672           55746                           TS       N49FLAG
000762: 24,2673           05146                           TC       ENDOFJOB
000763: 24,2674           77776        R22LEM7            EXIT
000764: 24,2675           31746                           CA       N49FLAG                               #  WAS ANSWER TO DISPLAY PRO OR TERM
000765: 24,2676           64743                           AD       TWO
000766: 24,2677           00006                           EXTEND
000767: 24,2700           12527                           BZF      R22LEM                                #  BRANCH - TERM - TAKE ANOTHER RR READING
000768: 24,2701           06060                           TC       INTPRET
000769: 24,2702           77624                           CALL
000770: 24,2703           51770                                    GRP2PC                                #  PHASE CHANGE AND
000771: 24,2704           77650                           GOTO                                           #  GO TO INCORPORATE DATA.
000772: 24,2705           55430                                    ASTOK
000773: 24,2706           25462        R22LEM44           INCR     MARKCTR                               #  INCREMENT COUNT OF MARKS INCORPORATED.
000774: 24,2707           02751                           TC       LUNSFCHK                              #  ARE WE ON LUNAR SURFACE
000775: 24,2710           02713                           TC       R22LEM42


000777: 24,2711           34747                           CA       FIVE                                  #  NOT ON LUNAR SURFACE
000778: 24,2712           02720                           TC       R22LEM45                              #  R65COUNTER = 5
000779: 24,2713           04607        R22LEM42           TC       BANKCALL
000780: 24,2714           01735                           CADR     2SECDELY
000781: 24,2715           02751                           TC       LUNSFCHK
000782: 24,2716           02527                           TC       R22LEM
000783:
000784: 24,2717           34743                           CA       TWO                                   #  NO-SET R65COUNTER = 2
000785: 24,2720           55745        R22LEM45           TS       R65CNTR
000786: 24,2721           04607                           TC       BANKCALL
000787: 24,2722           46123                           CADR     R65LEM                                #  FINE PREFERRED TRACKING ATTITUDE
000788: 24,2723           02527                           TC       R22LEM
000789: 24,2724           32750        R22WAIT            CAF      1500DEC
000790: 24,2725           02311                           TC       P20LEMWT   +1
000791:
000792:
000793: 24,2726           32747        N49DSP             CAF      V06N49NB
000794: 24,2727           04607                           TC       BANKCALL                              #  EXCESSIVE STATE VECTOR UPDATE - FLASH
000795: 24,2730           20502                           CADR     PRIODSP                               #  VERB 06 NOUN 49 R1=DELTA R, R2=DELTA V
000796: 24,2731           02671                           TC       V34TON49                              #  TERMINATE - SET N49FLAG = -2
000797: 24,2732           44744                           CS       ONE                                   #  PROCEED - N49FLAG = -1
000798: 24,2733           55746                           TS       N49FLAG                               #  RECYCLE - N49FLAG = + VALUE
000799: 24,2734           05146                           TC       ENDOFJOB
000800: 24,2735           05355        R22RSTRT           TC       PHASCHNG                              #  IF A RESTART OCCURS WHILE READING RADAR
000801: 24,2736           00152                           OCT      00152                                 #  COME HERE TO TAKE A RANGE-RATE READING
000802: 24,2737           04607                           TC       BANKCALL                              #  WHICH ISNT USED TO PREVENT TAKING A BAD
000803: 24,2740           53072                           CADR     RRRDOT                                #  READING AND TRYING TO INCORPORATE THE
000804: 24,2741           04607                           TC       BANKCALL                              #  BAD DATA
000805: 24,2742           17733                           CADR     RADSTALL                              #  WAIT FOR READ COMPLETE
000806: 24,2743           02275                           TC       P20LEMC                               #  COULD NOT READ RADAR-TRY TO REDISGNATE
000807: 24,2744           02527                           TC       R22LEM                                #  READ SUCCESSFUL-CONTINUE AT R22
000808:
000809:
000810: 24,2745           00525        ALRM525            OCT      00525
000811: 24,2746           01405        V06N05             VN       00605
000812: 24,2747           01461        V06N49NB           VN       00649
000813: 24,2750           02734        1500DEC            DEC      1500       B-14
000814:                                                                                                  #  LUNSFCHECK-CLOSED SUBROUTINE TO CHECK IF ON LUNAR SURFACE (P22FLAG)
000815:                                                                                                  #             RETURNS TO CALLER +1 IF P22FLAG SET
000816:                                                                                                  #                     TO CALLER +2 IF P22FLAG NOT SET
000817:
000818:
000819: 24,2751                                           COUNT*   $$/P22
000820: 24,2751           40104        LUNSFCHK           CS       FLAGWRD8                              #  CHECK IF ON LUNAR SURFACE
000821: 24,2752           74735                           MASK     SURFFBIT                              #  IS SURFFLAG SET?
000822: 24,2753           10000                           CCS      A                                     #  BRANCH - P22FLAG SET
000823: 24,2754           24002                           INCR     Q                                     #  NOT SET
000824: 24,2755           00002                           TC       Q                                     #  RETURN
000825:


000827:                                                                                                  #  RR DESIGNATE ROUTINE (R21LEM)
000828:                                                                                                  #  PROGRAM DESCRIPTION
000829:                                                                                                  #  MOD NO - 2
000830:                                                                                                  #  BY P VOLANTE
000831:                                                                                                  #  FUNCTIONAL DESCRIPTION
000832:
000833:                                                                                                  #    TO POINT THE RENDEZVOUS RADAR AT THE CSM UNTIL AUTOMATIC ACQUISITION
000834:                                                                                                  #  OF THE CSM IS ACCOMPLISHED BY THE RADAR. ROUTINE IS CALLED BY P20.
000835:                                                                                                  #  CALLING SEQUENCE -
000836:                                                                                                  #           TC     BANKCALL
000837:                                                                                                  #           CADR   R21LEM
000838:                                                                                                  #  SUBROUTINES CALLED -
000839:                                                                                                  #    FINDVAC        FLAGUP           ENDOFJOB        PRIOLARM
000840:                                                                                                  #    NOVAC          INTPRET          LPS20.1         PHASCHNG
000841:                                                                                                  #    WAITLIST       JOBSLEEP         JOBWAKE         FLAGDOWN
000842:                                                                                                  #    TASKOVER       BANKCALL         RADSTALL        RRDESSM
000843:                                                                                                  #  NORMAL EXIT MODES
000844:                                                                                                  #    WHEN LOCK-ON IS ACHIEVED,BRANCH WILL BE TO P20 WHERE R22 (DATA READ
000845:                                                                                                  #  WILL BE SELECTED OR A NEED FOR A MANEUVER(BRANCH TO P20LEMA)
000846:                                                                                                  #  ALARM OR ABORT EXIT MODES-
000847:                                                                                                  #    PRIORITY ALARM 503 WHEN LOCK-ON HASN:T BEEN ACHIEVED AFTER 30SECS -
000848:                                                                                                  #  THIS REQUIRES ASTRONAUT INTERFACE- SELECTION OF SEARCH OPTION OF
000849:                                                                                                  #  ACQUISITION
000850:                                                                                                  #  OUTPUT
000851:                                                                                                  #    SEE LPS20.1,RRDESSM
000852:                                                                                                  #  ERASABLE INITIALIZATION REQUIRED
000853:                                                                                                  #    RRTARGET,RADMODES ARE USED BY LPS20.1 AND RRDESSM
000854:                                                                                                  #  FLAGS SET + RESET
000855:                                                                                                  #    LOSCMFLG      LOKONSW
000856:                                                                                                  #  DEBRIS
000857:                                                                                                  #    SEE LPS20.1,RRSESSM
000858: 24,2756  E7,1456                                  EBANK=   LOSCOUNT
000859: 24,2756                                           COUNT*   $$/R21
000860: 24,2756           44727        R21LEM             CS       BIT14                                 #  REMOVE RR SELF TRACK ENABLE
000861: 24,2757           00006                           EXTEND
000862: 24,2760           03012                           WAND     CHAN12
000863: 24,2761           34727                           CAF      BIT14                                 #  RESET AGSCODE SINCE R21
000864: 24,2762           55073                           TS       AGSCODE                               #  CLOBBERS DOWNLINK MARK DATA
000865: 24,2763           02751                           TC       LUNSFCHK
000866: 24,2764           02771                           TC       R21LEM5
000867: 24,2765           34746                           CAF      ZERO                                  #       COMMAND ANTENNA TO MODE CENTER
000868: 24,2766           55106                           TS       TANG                                  #  IF NOT ON SURFACE-MODE 1-(T=0,S=0)
000869: 24,2767           55107                           TS       TANG       +1
000870: 24,2770           03001                           TC       R21LEM6
000871: 24,2771           34731        R21LEM5            CAF      BIT12
000872: 24,2772           70110                           MASK     RADMODES
000873: 24,2773           10000                           CCS      A
000874: 24,2774           03011                           TC       R21LEM10
000875: 24,2775           34726                           CAF      BIT15
000876: 24,2776           55106                           TS       TANG


000878: 24,2777           44727                           CS       HALF
000879: 24,3000           55107                           TS       TANG       +1
000880: 24,3001           05520        R21LEM6            TC       DOWNFLAG
000881: 24,3002           00012                           ADRES    LOKONSW
000882: 24,3003           04607                           TC       BANKCALL
000883: 24,3004           52466                           CADR     RRDESNB
000884: 24,3005           03006                           TC       +1
000885: 24,3006           04607                           TC       BANKCALL
000886: 24,3007           17733                           CADR     RADSTALL
000887: 24,3010           03044                           TC       R21-503                               #  BAD RETURN FROM DESIGNATE -ISSUE ALARM
000888: 24,3011           05506        R21LEM10           TC       UPFLAG
000889: 24,3012           00041                           ADRES    LOSCMFLG                              #  EVERY FOURTH PASS THRU DODES
000890: 24,3013           32366                           CAF      MAXTRIES                              #  ALLOW 60 PASSES (APPROX 45 SECONDS)
000891: 24,3014           55113                           TS       DESCOUNT                              #  TO DESIGNATE AND LOCK ON
000892: 24,3015           36266        R21LEM2            CAF      THREE
000893: 24,3016           55456                           TS       LOSCOUNT
000894: 24,3017           06060        R21LEM1            TC       INTPRET
000895: 24,3020           43234                           RTB      DAD
000896: 24,3021           21603                                    LOADTIME
000897: 24,3022           11206                                    HALFSEC                               #  EXTRAPOLATE TO PRESENT TIME + .5 SEC.
000898: 24,3023           34041                           STCALL   TDEC1                                 #  LOS DETERMINATION ROUTINE
000899: 24,3024           51337                                    LPS20.1
000900: 24,3025           77776                           EXIT
000901: 24,3026           05506        R21LEM3            TC       UPFLAG                                #  SET LOKONSW TO RADAR-ON DESIRED
000902: 24,3027           00012                           ADRES    LOKONSW
000903: 24,3030           05520                           TC       DOWNFLAG
000904: 24,3031           00126                           ADRES    NORRMON
000905: 24,3032           06060                           TC       INTPRET
000906: 24,3033           77624                           CALL                                           #  INPUT (RRTARGET UPDATED BY LPS20.1)
000907: 24,3034           52364                                    RRDESSM                               #  DESIGNATE ROUTINE
000908: 24,3035           77776                           EXIT
000909: 24,3036           03065                           TC       R21LEM4                               #  LOS NOT IN MODE 2 COVERAGE
000910:                                                                                                  #  ON LUNAR SURFACE
000911: 24,3037           02167                           TC       P20LEMA                               #  VEHICLE MANEUVER REQUIRED.
000912: 24,3040           04607                           TC       BANKCALL                              #  NO VEHICLE MANEUVER REQUIRED
000913: 24,3041           17733                           CADR     RADSTALL                              #  WAIT FOR DESIGNATE COMPLETE - LOCKON OR
000914: 24,3042           03044                           TC       +2                                    #  BADEND-LOCKON NOT ACHIEVED IN 60 TRIES
000915: 24,3043           03053                           TC       R21END                                #  EXIT ROUTINE RETURN TO P20 (LOCK-ON)
000916: 24,3044           33063        R21-503            CAF      ALRM503                               #  ISSUE ALARM 503
000917: 24,3045           04607                           TC       BANKCALL
000918: 24,3046           21572                           CADR     PRIOLARM
000919: 24,3047           06043                           TC       GOTOV56                               #  TERMINATE EXITS P20 VIA V56 CODING
000920: 24,3050           03060                           TC       R21SRCH                               #  PROC
000921: 24,3051           02267                           TC       P20LEMC3
000922: 24,3052           05146                           TC       ENDOFJOB
000923: 24,3053           05520        R21END             TC       DOWNFLAG
000924: 24,3054           00041                           ADRES    LOSCMFLG                              #  RESET LOSCMFLG
000925: 24,3055           02751                           TC       LUNSFCHK                              #  ARE WE ON LUNAR SURFACE
000926: 24,3056           02310                           TC       P20LEMWT                              #  YES - BYPASS V 50 N 72 DISPLAY
000927: 24,3057           03207                           TC       R21DISP                               #  PUT UP VERIFY MAIN LOBE LOCKON DISPLAY


000929: 24,3060           05355        R21SRCH            TC       PHASCHNG
000930: 24,3061           04022                           OCT      04022
000931: 24,3062           03271                           TC       R24LEM                                #  SEARCH ROUTINE
000932: 24,3063           00503        ALRM503            OCT      00503
000933: 24,3064           00527        ALRM527            OCT      527
000934:
000935:
000936: 24,3065           06032        R21LEM4            TC       CLRADMD1                              #  CLEAR BITS 10 & 15 IN RADMODES
000937: 24,3066           32366                           CAF      MAXTRIES                              #  SET UP COUNTER FOR
000938: 24,3067           55423                           TS       REPOSCNT                              #  60 PASSES (APPROX 600 SECS.)
000939: 24,3070           05506                           TC       UPFLAG
000940: 24,3071           00032                           ADRES    FRSTIME                               #  SET FIRST PASS FLAG
000941: 24,3072           05520                           TC       DOWNFLAG                              #  RESET LOS BEING
000942: 24,3073           00041                           ADRES    LOSCMFLG                              #  COMPUTED FLAG
000943: 24,3074           06060                           TC       INTPRET
000944: 24,3075           77634        R21LEM12           RTB
000945: 24,3076           21603                                    LOADTIME
000946: 24,3077           77615        R21LEM00           DAD
000947: 24,3100           11204                                    TENSEC                                #  TIME T = T + 10 SECS.
000948: 24,3101           03425                           STORE    REPOSTM                               #  SAVE FOR LONGCALL AND UPPSV
000949: 24,3102           34041                           STCALL   TDEC1
000950: 24,3103           51337                                    LPS20.1                               #  COMPUTE LOS AT TIME T
000951: 24,3104           77624                           CALL
000952: 24,3105           52364                                    RRDESSM
000953: 24,3106           77776                           EXIT
000954: 24,3107           03121                           TC       R21LEM13                              #  LOS NOT IN MODE 2 COVERAGE
000955: 24,3110           05146                           TC       ENDOFJOB                              #  VEHICLE MANEUVER REQUIRED
000956: 24,3111           06050                           TC       KILLTASK
000957: 24,3112           52564                           CADR     BEGDES
000958: 24,3113           06060                           TC       INTPRET
000959: 24,3114           43014                           BOF      CLRGO
000960: 24,3115           00753                                    FRSTIME                               #  FIRST PASS THRU PREPOSITION
000961: 24,3116           51131                                    R21LEM8                               #  NO-GO TO CONTINUOUS DESIGNATE
000962: 24,3117           00633                                    FRSTIME                               #  YES - RESET FIRST PASS FLAG
000963: 24,3120           51126                                    R21LEM50
000964: 24,3121           11423        R21LEM13           CCS      REPOSCNT                              #  HAVE WE TRIED 60 TIMES?
000965: 24,3122           03124                           TC       R21LEM7                               #  NO-ADD 10 SECS. RECOMPUTE LOS
000966: 24,3123           03173                           TC       R21LEM11                              #  YES-PUT OUT ALARM 530
000967: 24,3124           55423        R21LEM7            TS       REPOSCNT
000968: 24,3125           06060                           TC       INTPRET
000969: 24,3126           52145        R21LEM50           DLOAD    GOTO
000970: 24,3127           03425                                    REPOSTM
000971: 24,3130           51077                                    R21LEM00
000972: 24,3131           77745        R21LEM8            DLOAD
000973: 24,3132           03425                                    REPOSTM
000974: 24,3133           34041                           STCALL   TDEC1
000975: 24,3134           50374                                    UPPSV
000976: 24,3135           77776                           EXIT
000977: 24,3136           05506                           TC       UPFLAG                                #  SET RADMODES BIT 15 FOR
000978: 24,3137           00264                           ADRES    CDESFLAG                              #  CONTINUOUS DESIGNATION


000980: 24,3140           05520                           TC       DOWNFLAG
000981: 24,3141           00012                           ADRES    LOKONSW
000982: 24,3142           05506                           TC       UPFLAG
000983: 24,3143           00126                           ADRES    NORRMON
000984: 24,3144           04607                           TC       BANKCALL
000985: 24,3145           52466                           CADR     RRDESNB
000986: 24,3146           03147                           TC       +1
000987: 24,3147           06060                           TC       INTPRET
000988: 24,3150           44234                           RTB      BDSU
000989: 24,3151           21603                                    LOADTIME                              #  COMPUTE DELTA TIME
000990: 24,3152           03425                                    REPOSTM                               #  FOR LONGCALL
000991: 24,3153           03427                           STORE    DELTATM
000992: 24,3154           77776                           EXIT
000993: 24,3155           00006                           EXTEND
000994: 24,3156           31427                           DCA      DELTATM
000995: 24,3157           05301                           TC       LONGCALL
000996: 24,3160  E7,1456                                  EBANK=   LOSCOUNT
000997: 24,3160           03163 50067                     2CADR    R21LEM9
000998:
000999: 24,3162           05146                           TC       ENDOFJOB
001000: 24,3163           06050        R21LEM9            TC       KILLTASK
001001: 24,3164           52573                           CADR     STDESIG
001002: 24,3165           06027                           TC       CLRADMOD
001003: 24,3166           37735                           CAF      PRIO26
001004: 24,3167           05076                           TC       FINDVAC
001005: 24,3170  E7,1456                                  EBANK=   LOSCOUNT
001006: 24,3170           03011 50067                     2CADR    R21LEM10
001007:
001008: 24,3172           05263                           TC       TASKOVER
001009: 24,3173           33202        R21LEM11           CAF      ALRM530                               #  ALARM 530-LOS NOT IN COVERAGE
001010: 24,3174           04607                           TC       BANKCALL                              #  AFTER TRYING TO DESIGNATE FOR
001011: 24,3175           21572                           CADR     PRIOLARM                              #  600 SECS.
001012: 24,3176           06043                           TC       GOTOV56
001013: 24,3177           06043                           TC       GOTOV56
001014: 24,3200           06043                           TC       GOTOV56
001015: 24,3201           05146                           TC       ENDOFJOB
001016: 24,3202           00530        ALRM530            OCT      00530
001017: 24,3203           00000 01750  TENSEC             2DEC     1000       B-28
001018:
001019: 24,3205           00000 00062  HALFSEC            2DEC     50         B-28
001020:
001021: 24,3207           05355        R21DISP            TC       PHASCHNG
001022: 24,3210           04022                           OCT      04022
001023: 24,3211           33217                           CAF      V50N72                                #  FLASH V50N72 MONITOR -PLEASE PERFORM RR
001024: 24,3212           04607                           TC       BANKCALL                              #  MAIN LOBE LOCKON VERIFICATION
001025: 24,3213           20326                           CADR     PRIOMONR                              #  THIS IS A PRIORITY DISPLAY
001026: 24,3214           06043                           TC       GOTOV56                               #  TERMINATE EXITS VIA V 56
001027: 24,3215           02310                           TC       P20LEMWT                              #  PROCEED CONTINUES TO R22
001028: 24,3216           03211                           TC       -5                                    #  ENTER ILLEGAL
001029: 24,3217           14510        V50N72             VN       05072
001030:


001032:                                                                                                  #  MANUAL ACQUISITION ROUTINE R23LEM
001033:                                                                                                  #  PROGRAM DESCRIPTION
001034:                                                                                                  #  MOD NO - 2
001035:                                                                                                  #  BY P VOLANTE
001036:                                                                                                  #  FUNCTIONAL DESCRIPTION
001037:
001038:                                                                                                  #    TO ACQUIRE THE CSM BY MANUAL OPERATION OF THE RENDEZVOUS RADAR
001039:                                                                                                  #  CALLING SEQUENCE -
001040:                                                                                                  #           TC     R23LEM
001041:                                                                                                  #  SUBROUTINES CALLED
001042:                                                                                                  #    BANKCALL        R61LEM
001043:                                                                                                  #    SETMINDB        GOPERF1
001044:                                                                                                  #  NORMAL EXIT MODES -
001045:                                                                                                  #    IN RESPONSE TO THE GOPERF1 ,SELECTION OF ENTER WILL RECYCLE R23
001046:                                                                                                  #                               ,SELECTION OF PROC  WILL CONTINUE R23
001047:                                                                                                  #                               ,SELECTION OF TERM  WILL TERMINATE R23 +P20
001048:                                                                                                  #  ALARM OR ABORT EXIT MODES -
001049:                                                                                                  #    SEE NORMAL EXIT MODES ABOVE
001050:                                                                                                  #  OUTPUT
001051:                                                                                                  #    N.A.
001052:                                                                                                  #  ERASABLE INITIALIZATION REQUIRED-
001053:                                                                                                  #    ACMODFLG MUST BE SET TO 1 (MANUAL MODE)
001054: 24,3220     1142                                  EBANK=   GENRET
001055: 24,3220                                           COUNT*   $$/R23
001056: 24,3220           05506        R23LEM             TC       UPFLAG                                #  SET NO ANGLE MONITOR FLAG
001057: 24,3221           00126                           ADRES    NORRMON
001058: 24,3222           00004                           INHINT
001059: 24,3223           04665                           TC       IBNKCALL                              #  SELECT MINIMUM DEADBAND
001060: 24,3224           40141                           CADR     SETMINDB
001061: 24,3225           00003                           RELINT
001062: 24,3226           34727        R23LEM1            CAF      BIT14                                 #  ENABLE TRACKER
001063: 24,3227           00006                           EXTEND
001064: 24,3230           05012                           WOR      CHAN12
001065: 24,3231           33270                           CAF      OCT205
001066: 24,3232           04607                           TC       BANKCALL
001067: 24,3233           20635                           CADR     GOPERF1
001068: 24,3234           03261                           TC       R23LEM2                               #  TERMINATE
001069: 24,3235           03237                           TC       R23LEM11                              #  PROCEDE
001070: 24,3236           03264                           TC       R23LEM3                               #  ENTER- DO ANOTHER MANUVER
001071: 24,3237           00004        R23LEM11           INHINT
001072: 24,3240           04514                           TC       RRLIMCHK                              #  YES - CHECK IF ANTENNA IS WITHIN LIMITS
001073: 24,3241           00035                           ADRES    CDUT
001074: 24,3242           03251                           TC       OUTOFLIM                              #  NOT WITHIN LIMITS
001075: 24,3243           04665                           TC       IBNKCALL                              #  RESTORE DEADBAND TO
001076: 24,3244           40115                           CADR     RESTORDB                              #  ASTRONAUT SELECTED VALUE
001077: 24,3245           00003                           RELINT
001078: 24,3246           05520                           TC       DOWNFLAG                              #  CLEAR NO ANGLE MONITOR FLAG
001079: 24,3247           00126                           ADRES    NORRMON
001080: 24,3250           02241                           TC       P20LEMB1                              #  RADAR IS LOCKED ON CONTINUE IN P20
001081: 24,3251           00003        OUTOFLIM           RELINT


001083: 24,3252           33267                           CAF      OCT501PV
001084: 24,3253           04607                           TC       BANKCALL                              #  ISSUE ALARM - RR ANTENNA NOT WITHIN
001085: 24,3254           21572                           CADR     PRIOLARM                              #  LIMITS
001086: 24,3255           03261                           TC       R23LEM2                               #  TERMINATE - EXIT R23 TO R00 (GO TO POOH)
001087: 24,3256           03252                           TC       OUTOFLIM   +1                         #  PROCEED ILLEGAL
001088: 24,3257           03264                           TC       R23LEM3                               #  RECYCLE- TO ANOTHER MANUVER
001089: 24,3260           05146                           TC       ENDOFJOB
001090: 24,3261           05520        R23LEM2            TC       DOWNFLAG                              #  CLEAR NO ANGLE MONITOR FLAG
001091: 24,3262           00126                           ADRES    NORRMON
001092: 24,3263           06043                           TC       GOTOV56                               #  AND EXIT VIA V56
001093: 24,3264           04607        R23LEM3            TC       BANKCALL
001094: 24,3265           46116                           CADR     R61LEM
001095: 24,3266           03226                           TC       R23LEM1
001096:
001097:
001098: 24,3267           00501        OCT501PV           OCT      501
001099: 24,3270           00205        OCT205             OCT      205
001100:


001102:                                                                                                  #  SEARCH ROUTINE R24LEM
001103:                                                                                                  #  PROGRAM DESCRIPTION
001104:                                                                                                  #  MOD NO - 2
001105:                                                                                                  #  BY  P. VOLANTE
001106:                                                                                                  #  FUNCTIONAL DESCRIPTION
001107:
001108:                                                                                                  #    TO ACQUIRE THE CSM BY A SEARCH PATTERN WHEN THE RENDEZVOUS RADAR HAS
001109:                                                                                                  #  FAILED TO ACQUIRE THE CSM IN THE AUTOMATIC TRACKING MODE AND TO ALLOW
001110:                                                                                                  #  THE ASTRONAUT TO CONFIRM THAT REACQUISITION HAS NOT BEEN BY SIDELOBE.
001111:                                                                                                  #  CALLING SEQUENCE
001112:                                                                                                  #           CAF    PRIONN
001113:                                                                                                  #           TC     FINDVAC
001114:                                                                                                  #           EBANK= DATAGOOD
001115:                                                                                                  #           2CADR  R24LEM
001116:                                                                                                  #  SUBROUTINES CALLED
001117:                                                                                                  #    FLAGUP        FLAGDOWN      BANKCALL
001118:                                                                                                  #    R61LEM        GOFLASHR      FINDVAC
001119:                                                                                                  #    ENDOFJOB      NOVAC         LSR24.1
001120:                                                                                                  #  NORMAL EXIT MODES-
001121:                                                                                                  #    ASTRONAUT RESPONSE TO DISPLAY OF OMEGA AND DATAGOOD.HE CAN EITHER
001122:                                                                                                  #  REJECT BY TERMINATING (SEARCH OPTION AND RESELECTING P20) OR ACCEPT BY
001123:                                                                                                  #  PROCEEDING (EXIT ROUTINE AND RETURN TO AUTO MODE IN P20)
001124:                                                                                                  #  ALARM OR ABORT EXIT MODES-
001125:                                                                                                  #    SEE NORMAL EXIT MODES ABOVE
001126:                                                                                                  #  OUTPUT -
001127:                                                                                                  #    SEE OUTPUT FROM LSR24.1 + R61LEM
001128:                                                                                                  #  ERASABLE INITIALIZATION REQUIRED
001129:                                                                                                  #    SEE INPUT FOR LSR24.1
001130:                                                                                                  #  FLAGS SET + RESET
001131:                                                                                                  #    SRCHOPT,ACMODFLG
001132: 24,3271  E7,1733                                  EBANK=   DATAGOOD
001133: 24,3271                                           COUNT*   $$/R24
001134: 24,3271           05506        R24LEM             TC       UPFLAG
001135: 24,3272           00037                           ADRES    SRCHOPTN                              #  SET SRCHOPT FLAG
001136: 24,3273           05520                           TC       DOWNFLAG                              #  RESET LOS BEING COMPUTED FLAG TO MAKE
001137: 24,3274           00041                           ADRES    LOSCMFLG                              #  SURE DODES DOESN'T GO TO R21
001138: 24,3275           34746        R24LEM1            CAF      ZERO
001139: 24,3276           55733                           TS       DATAGOOD                              #  ZERO OUT DATA INDICATOR
001140: 24,3277           55734                           TS       OMEGAD                                #  ZERO OMEGA DISPLAY REGS
001141: 24,3300           55735                           TS       OMEGAD     +1                         #  ZERO OMEGA DISPLAY REGS
001142: 24,3301           05355        R24LEM2            TC       PHASCHNG
001143: 24,3302           04022                           OCT      04022
001144: 24,3303           33336                           CAF      V16N80
001145: 24,3304           04607                           TC       BANKCALL
001146: 24,3305           20477                           CADR     PRIODSPR
001147: 24,3306           06043                           TC       GOTOV56
001148: 24,3307           03313                           TC       R24END                                #  PROCEED EXIT R24 TO P20LEM1
001149:
001150: 24,3310           03317                           TC       R24LEM3                               #  RECYCLE - CALL R61 TO MANEUVER S/C


001152: 24,3311           04607                           TC       BANKCALL
001153: 24,3312           55441                           CADR     LRS24.1
001154: 24,3313           06050        R24END             TC       KILLTASK
001155: 24,3314           55642                           CADR     CALLDGCH
001156: 24,3315           06027                           TC       CLRADMOD                              #  CLEAR BITS 10 & 15 OF RADMODES.
001157: 24,3316           12065                           TCF      P20LEM1                               #  AND GO TO 400 MI. RANGE CHECK IN P20.
001158:
001159:    6027                                           BLOCK    3
001160:    6000                                           SETLOC   FFTAG6
001161:    6000                                           BANK
001162:    6027                                           COUNT*   $$/R24
001163:
001164:    6027           44743        CLRADMOD           CS       BIT2                                  #  DISABLE RR ERROR CNTRS
001165:    6030           00006                           EXTEND
001166:    6031           03012                           WAND     CHAN12
001167:    6032           46037        CLRADMD1           CS       BIT10+15                              #  KNOCK DOWN DESIGNATE AND
001168:
001169:    6033     4733               REFTAG3            =        DESIGBIT
001170:    6033     4726               REFTAG4            =        CDESBIT
001171:    6033           00004                           INHINT                                         #     CONTINUOUS DESIGNATE FLAGS
001172:    6034           70110                           MASK     RADMODES
001173:    6035           54110                           TS       RADMODES
001174:    6036           00002                           TC       Q
001175:
001176:
001177:    6037           41000        BIT10+15           OCT      41000
001178:
001179:
001180: 24,3317                                           BANK     24
001181: 24,2000                                           SETLOC   P20S
001182: 24,2000                                           BANK
001183: 24,3317                                           COUNT*   $$/R24
001184:
001185: 24,3317           05355        R24LEM3            TC       PHASCHNG
001186: 24,3320           04022                           OCT      04022
001187: 24,3321           06050                           TC       KILLTASK
001188: 24,3322           55642                           CADR     CALLDGCH                              #  KILL WAITLIST FOR NEXT POINT IN PATTERN
001189: 24,3323           06027                           TC       CLRADMOD                              #  CLEAR BITS 10 + 15 OF RADMODES
001190: 24,3324           34765                           CAF      .5SEC
001191: 24,3325           04607                           TC       BANKCALL                              #  WAIT FOR DESIGNATE LOOP TO DIE
001192: 24,3326           01736                           CADR     DELAYJOB
001193: 24,3327           02751                           TC       LUNSFCHK                              #  CHECK IF ON LUNAR SURFACE
001194: 24,3330           03333                           TC       R24LEM4                               #  YES-DONT DO ATTITUDE MANEUVER
001195: 24,3331           04607                           TC       BANKCALL                              #  CALL R61 TO DO PREFERRED TRACKING
001196: 24,3332           46116                           CADR     R61LEM                                #  ATTITUDE MANEUVER
001197: 24,3333           34746        R24LEM4            CAF      ZERO                                  #  ZERO OUT RADCADR (WHICH WAS SET BY
001198: 24,3334           55303                           TS       RADCADR                               #  ENDRADAR WHEN DESIGNATE STOPPED) SO THAT
001199:                                                                                                  #  RRDESSM  WILL RETURN TO CALLER
001200: 24,3335           03301                           TC       R24LEM2                               #  AND GO BACK TO PUT UP V16 N80 DISPLAY
001201:


001203: 24,3336           04120        V16N80             VN       01680
001204:


001206:                                                                                                  #  PREFERRED TRACKING ATTITUDE ROUTINE R61LEM
001207:                                                                                                  #  PROGRAM DESCRIPTION
001208:                                                                                                  #  MOD NO : 3                      DATE : 4-11-67
001209:                                                                                                  #  MOD BY : P VOLANTE  SDC
001210:
001211:
001212:                                                                                                  #  FUNCTIONAL DESCRIPTION-
001213:                                                                                                  #    TO COMPUTE THE PREFERRED TRACKING ATTITUDE OF THE LM TO ENABLE RR
001214:                                                                                                  #  TRACKING OF THE CSM AND TO PERFORM THE MANEUVER TO THE PREFERRED
001215:                                                                                                  #  ATTITUDE.
001216:                                                                                                  #  CALLING SEQUENCE-
001217:                                                                                                  #           TC     BANKCALL
001218:                                                                                                  #           CADR   R61LEM
001219:                                                                                                  #  SUBROUTINES CALLED
001220:                                                                                                  #      LPS20.1       VECPOINT
001221:                                                                                                  #      KALCMAN3
001222:
001223:
001224:                                                                                                  #  NORMAL EXIT MODES-
001225:                                                                                                  #    NORMAL RETURN IS TO CALLER + 1
001226:                                                                                                  #  ALARM OR ABORT EXIT MODES-
001227:                                                                                                  #    TERMINATE P20 + R61 BY BRANCHING TO P20END IF BOTH TRACKFLAG +
001228:                                                                                                  #  RENDEZVOUS FLAG ARE NOT SET.
001229:                                                                                                  #  OUTPUT -
001230:                                                                                                  #    SEE OUTPUT FOR LPS20.1 + ATTITUDE MANEUVER ROUTINE (R60)
001231:                                                                                                  #  ERASABLE INITIALIZATION REQUIRED
001232:                                                                                                  #    GENRET USED TO SAVE Q FOR RETURN
001233:                                                                                                  #  FLAGS SET + RESET
001234:                                                                                                  #    3AXISFLG
001235:                                                                                                  #  DEBRIS
001236:                                                                                                  #    SEE SUBROUTINES
001237: 23,2000                                           SETLOC   R61
001238: 23,2000                                           BANK
001239: 23,2116  E7,1456                                  EBANK=   LOSCOUNT
001240: 23,2116                                           COUNT*   $$/R61
001241: 23,2116           04636        R61LEM             TC       MAKECADR
001242: 23,2117           55142                           TS       GENRET
001243: 23,2120           05506                           TC       UPFLAG                                #  SET R61 FLAG
001244: 23,2121           00024                           ADRES    R61FLAG
001245: 23,2122           02152                           TC       R61C+L02
001246: 23,2123           04636        R65LEM             TC       MAKECADR
001247: 23,2124           55142                           TS       GENRET
001248: 23,2125           05520                           TC       DOWNFLAG                              #  RESET R61 FLAG
001249: 23,2126           00024                           ADRES    R61FLAG
001250: 23,2127           34727                           CA       BIT14                                 #  RESET AGS CODE WORD (=20000).  DON'T USE
001251: 23,2130           55073                           TS       AGSCODE                               #    PGNCS DOWNLINKED RADAR DATA.
001252: 23,2131           05355        R61C+L01           TC       PHASCHNG                              #  RESTARTS DURING OR AFTER R65 WILL
001253: 23,2132           04022                           OCT      04022                                 #     RETURN HERE.
001254: 23,2133           34741                           CAF      BIT4                                  #  BYPASS RADAR READING IF DATA
001255: 23,2134           00006                           EXTEND                                         #  GOOD NOT PRESENT


001257: 23,2135           02033                           RAND     CHAN33
001258: 23,2136           10000                           CCS      A
001259: 23,2137           12152                           TCF      R61C+L02                              #  NO DATA GOOD
001260: 23,2140           04607                           TC       BANKCALL                              #  READ RR RANGE AND RDOT
001261: 23,2141           53072                           CADR     RRRDOT                                #   EVERY R65 PASS (3 TIMES
001262: 23,2142           04607                           TC       BANKCALL                              #   BEFORE FIRST MARK, ONCE
001263: 23,2143           17733                           CADR     RADSTALL                              #   DURING ANY MARK PROCESSING,
001264: 23,2144           12145                           NOOP
001265: 23,2145           04607                           TC       BANKCALL
001266: 23,2146           53074                           CADR     RRRANGE
001267: 23,2147           04607                           TC       BANKCALL
001268: 23,2150           17733                           CADR     RADSTALL
001269: 23,2151           12152                           NOOP
001270: 23,2152           34740        R61C+L02           CAF      TRACKBIT                              #  TRACKFLAG
001271: 23,2153           70075                           MASK     STATE      +1
001272: 23,2154           00006                           EXTEND
001273: 23,2155           12312                           BZF      R65WAIT                               #  NOT SET
001274: 23,2156           06060        R61C+L03           TC       INTPRET
001275: 23,2157           77775                           VLOAD
001276: 23,2160           06477                                    HIUNITZ
001277: 23,2161           03765                           STORE    SCAXIS                                #  TRACK AXIS UNIT VECTOR
001278: 23,2162           43234        R61LEM1            RTB      DAD
001279: 23,2163           21603                                    LOADTIME                              #  EXTRAPOLATE FORWARD TO CENTER
001280: 23,2164           15712                                    3SECONDS                              #  SIX SECOND PERIOD.
001281: 23,2165           34041                           STCALL   TDEC1
001282: 23,2166           51337                                    LPS20.1                               #  LOS DETERMINATION + VEH ATTITUDE
001283: 23,2167           77775                           VLOAD
001284: 23,2170           01101                                    RRTARGET
001285: 23,2171           03773                           STORE    POINTVSM
001286: 23,2172           45034                           RTB      CALL                                  #     GET DESIRED CDU'S FOR VECPNT1
001287: 23,2173           46320                                    READCDUD
001288: 23,2174           56032                                    VECPNT1                               #  COMPUTES FINAL ANGLES FROM PRESENT CDUDS
001289: 23,2175           00322                           STORE    CPHI                                  #  STORE FINAL ANGLES - CPHI,CTHETA,CPSI
001290: 23,2176           77776                           EXIT
001291: 23,2177           34740                           CAF      TRACKBIT                              #   IS TRACK FLAG SET
001292: 23,2200           70075                           MASK     FLAGWRD1
001293: 23,2201           00006                           EXTEND
001294: 23,2202           12312                           BZF      R65WAIT
001295: 23,2203           04607                           TC       BANKCALL
001296: 23,2204           54267                           CADR     G+N,AUTO                              #  CHECK FOR AUTO MODE
001297: 23,2205           10000                           CCS      A
001298: 23,2206           02300                           TC       R61C+L04                              #  NOT IN AUTO
001299: 23,2207           06060                           TC       INTPRET
001300: 23,2210           45175                           VLOAD    CALL
001301: 23,2211           01101                                    RRTARGET
001302: 23,2212           47640                                    CDU*SMNB
001303: 23,2213           45345                           DLOAD    DSU                                   #  GET PHI - ARCCOS OF Z-COMPONENT OF LOS
001304: 23,2214           00162                                    MPAC       +5
001305: 23,2215           06316                                    COS15DEG
001306: 23,2216           77440        R61LEM2            BMN      EXIT                                  #  BRANCH - PHI > 15 DEGREES


001308: 23,2217           46234                                    R61C+L05                              #  PHI GRE 10DEG
001309: 23,2220  E6,1634                                  EBANK=   CDUXD
001310: 23,2220           35006                           CAF      EBANK6
001311: 23,2221           54003                           TS       EBANK
001312: 23,2222           00004                           INHINT
001313: 23,2223           00006                           EXTEND
001314: 23,2224           30322                           DCA      CPHI
001315: 23,2225           53635                           DXCH     CDUXD
001316: 23,2226           30323                           CA       CPSI
001317: 23,2227           55636                           TS       CDUZD
001318: 23,2230           00003                           RELINT
001319: 23,2231  E7,1456                                  EBANK=   LOSCOUNT
001320: 23,2231           35007                           CAF      EBANK7
001321: 23,2232           54003                           TS       EBANK
001322: 23,2233           02257                           TC       R61C+L06
001323: 23,2234           77776        R61C+L05           EXIT
001324: 23,2235           00004                           INHINT
001325: 23,2236           04665                           TC       IBNKCALL
001326: 23,2237           40154                           FCADR    ZATTEROR
001327: 23,2240           04665                           TC       IBNKCALL
001328: 23,2241           40141                           FCADR    SETMINDB                              #  REDUCE ATTITUDE ERROR
001329: 23,2242           05520                           TC       DOWNFLAG
001330: 23,2243           00124                           ADRES    3AXISFLG
001331: 23,2244           05506                           TC       UPFLAG
001332: 23,2245           00114                           ADRES    PDSPFLAG                              #  SET PRIORITY DISPLAY FLAG
001333: 23,2246           04607                           TC       BANKCALL
001334: 23,2247           54125                           CADR     R60LEM
001335: 23,2250           00004                           INHINT
001336: 23,2251           04665                           TC       IBNKCALL
001337: 23,2252           40115                           FCADR    RESTORDB
001338: 23,2253           05355                           TC       PHASCHNG
001339: 23,2254           04022                           OCT      04022
001340: 23,2255           05520                           TC       DOWNFLAG
001341: 23,2256           00114                           ADRES    PDSPFLAG                              #  RESET PRIORITY DISPLAY FLAG
001342: 23,2257           30075        R61C+L06           CA       FLAGWRD1
001343: 23,2260           74733                           MASK     R61FLBIT
001344: 23,2261           10000                           CCS      A
001345: 23,2262           02303                           TC       R61C+L4
001346: 23,2263           11745                           CCS      R65CNTR
001347: 23,2264           02266                           TC       +2
001348: 23,2265           02303                           TC       R61C+L4                               #  R65CNTR = 0 - EXIT ROUTINE
001349: 23,2266           55745                           TS       R65CNTR
001350: 23,2267           32317                           CAF      06SEC
001351: 23,2270           05175                           TC       TWIDDLE
001352: 23,2271           02273                           ADRES    R61C+L2
001353: 23,2272           05146                           TC       ENDOFJOB
001354: 23,2273           37735        R61C+L2            CAF      PRIO26
001355: 23,2274           05076                           TC       FINDVAC
001356: 23,2275  E7,1456                                  EBANK=   LOSCOUNT
001357: 23,2275           02131 46067                     2CADR    R61C+L01
001358:


001360: 23,2277           05263                           TC       TASKOVER
001361: 23,2300           04607        R61C+L04           TC       BANKCALL                              #  TO CONVERT ANGLES TO FDAI
001362: 23,2301           54300                           CADR     BALLANGS
001363: 23,2302           02257                           TC       R61C+L06
001364: 23,2303           31142        R61C+L4            CAE      GENRET
001365: 23,2304           14631                           TCF      BANKJUMP                              #  EXIT R61
001366: 23,2305           32314        R61C+L1            CAF      BIT7+9PV                              #  IS RENDEZVOUS OR P25FLAG SET
001367: 23,2306           70074                           MASK     STATE
001368: 23,2307           00006                           EXTEND
001369: 23,2310           15146                           BZF      ENDOFJOB                              #  NO-EXIT ROUTINE AND PROGRAM.
001370: 23,2311           02257                           TC       R61C+L06                              #  YES EXIT ROUTINE
001371: 23,2312           04626        R65WAIT            TC       POSTJUMP
001372: 23,2313           50310                           CADR     P20LEMWT
001373:
001374:
001375: 23,2314           00500        BIT7+9PV           OCT      00500
001376: 23,2315           17350 34602  COS15DEG           2DEC     0.96593    B-1
001377:
001378: 23,2317           01130        06SEC              DEC      600        B-14
001379: 23,2320                        PHI                EQUALS   20D
001380: 23,2320           00004        READCDUD           INHINT                                         #  READS DESIRED CDU'S AND STORES IN
001381: 23,2321           35006                           CAF      EBANK6                                #  MPAC TP EXITS WITH MODE SET TO TP
001382: 23,2322           56003                           XCH      EBANK
001383: 23,2323           54070                           TS       RUPTREG1
001384: 23,2324  E6,1634                                  EBANK=   CDUXD
001385: 23,2324           31634                           CA       CDUXD
001386: 23,2325           54154                           TS       MPAC
001387: 23,2326           00006                           EXTEND
001388: 23,2327           31636                           DCA      CDUYD
001389: 23,2330           52156                           DXCH     MPAC       +1
001390: 23,2331           30070                           CA       RUPTREG1
001391: 23,2332           54003                           TS       EBANK
001392: 23,2333           00003                           RELINT
001393: 23,2334           16520                           TCF      TMODE
001394:    4503                                           BLOCK    02
001395:    4000                                           SETLOC   RADARFF
001396:    4000                                           BANK
001397:
001398:    4503  E7,1456                                  EBANK=   LOSCOUNT
001399:    4503                                           COUNT*   $$/RRSUB
001400:


001402:                                                                                                  #  THE FOLLOWING SUBROUTINE RETURNS TO CALLER + 2 IF THE ABSOLUTE VALUE OF VALUE OF C(A) IS GREATER THAN THE
001403:                                                                                                  #  NEGATIVE OF THE NUMBER AT CALLER +1. OTHERWISE IT RETURNS TO CALLER +3. MAY BE CALLED IN RUPT OR UNDER EXEC.
001404:
001405:    4503           00006        MAGSUB             EXTEND
001406:    4504           64506                           BZMF     +2
001407:    4505           14507                           TCF      +2
001408:    4506           40000                           COM
001409:
001410:    4507           50002                           INDEX    Q
001411:    4510           60000                           AD       0
001412:    4511           00006                           EXTEND
001413:    4512           66762                           BZMF     Q+2                                   #  ABS(A) <= CONST GO TO L+3
001414:    4513           16760                           TCF      Q+1                                   #  ABS(A) >  CONST GO TO L+2
001415:


001417:                                                                                                  #  PROGRAM NAME_  RRLIMCHK                                                  ARE IN THE LIMITS OF THE CURRENT MODE.
001418:
001419:                                                                                                  #  FUNCTIONAL DESCRIPTION_
001420:                                                                                                  #  RRLIMCHK CHECKS RR DESIRED GIMBAL ANGLES TO SEE IF THEY ARE WITHIN
001421:                                                                                                  #  THE LIMITS OF THE CURRENT MODE. INITIALLY THE DESIRED TRUNNION AND
001422:                                                                                                  #  SHAFT ANGLES ARE STORED IN ITEMP1 AND ITEMP2. THE CURRENT RR
001423:                                                                                                  #  ANTENNAE MODE (RADMODES BIT 12) IS CHECKED WHICH IS = 0 FOR
001424:                                                                                                  #  MODE 1 AND =1 FOR MODE 2.
001425:                                                                                                  #  MODE 1 - THE TRUNNION ANGLE IS CHECKED AT MAGSUB TO SEE IF IT IS
001426:                                                                                                  #  BETWEEN -55 AND +55 DEGREES. IF NOT, RETURN TO L +2. IF WITHIN LIMITS,
001427:                                                                                                  #  THE SHAFT ANGLE IS CHECKED TO SEE IF IT IS BETWEEN -70 AND +59 DEGREES.
001428:                                                                                                  #  IF NOT, RETURN TO L +2. IF IN LIMITS, RETURN TO L +3.
001429:                                                                                                  #  MODE 2 - THE SHAFT ANGLE IS CHECKED AT MAGSUB TO SEE IF IT IS
001430:                                                                                                  #  BETWEEN -139 AND -25 DEGREES. IF NOT, RETURN TO L +2. IF WITHIN
001431:                                                                                                  #  LIMITS, THE TRUNNION ANGLE IS CHECKED TO SEE IF IT IS BETWEEN +125
001432:                                                                                                  #  AND -125 (+235) DEGREES. IF NOT, RETURN TO L +2. IF IN LIMITS, RETURN
001433:                                                                                                  #  TO L +3.
001434:
001435:                                                                                                  #  CALLING SEQUENCE:
001436:                                                                                                  #  L  TC  RLIMCHK (WITH INTERRUPT INHIBITED)
001437:                                                                                                  #  L +1  ADRES T,S  (DESIRED TRUNNION ANGLE ADDRESS)
001438:
001439:                                                                                                  #  ERASABLE INITIALIZATION REQUIRED:
001440:                                                                                                  #  RADMODES, MODEA, MODEB (OR DESIRED TRUNNION AND SHAFT
001441:                                                                                                  #  ANGLES ELSEWHERE IN CONSECUTIVE LOCATIONS - UNSWITCHED ERASABLE OR
001442:                                                                                                  #  CURRENT EBANK).
001443:
001444:                                                                                                  #  SUBROUTINES CALLED_  MAGSUB
001445:
001446:                                                                                                  #  JOBS OR TASKS INITIATED_  NONE
001447:
001448:                                                                                                  #  ALARMS_  NONE
001449:
001450:                                                                                                  #  EXIT_  L + 2 (EITHER OR BOTH ANGLES NOT WITHIN LIMITS OF CURRENT MODE)
001451:                                                                                                  #  L + 3 (BOTH ANGLES WITHIN LIMITS OF CURRENT MODE)
001452:
001453:    4514           00006        RRLIMCHK           EXTEND
001454:    4515           50002                           INDEX    Q
001455:    4516           50000                           INDEX    0
001456:    4517           30001                           DCA      0
001457:    4520           24002                           INCR     Q
001458:    4521           52062                           DXCH     ITEMP1
001459:    4522           22002                           LXCH     Q                                     #  L(CALLER +2) TO L.
001460:
001461:    4523           34731                           CAF      ANTENBIT                              #  SEE WHICH MODE RR IS IN.
001462:    4524           70110                           MASK     RADMODES
001463:    4525           10000                           CCS      A
001464:    4526           14541                           TCF      MODE2CHK
001465:
001466:    4527           30061                           CA       ITEMP1                                #  MODE 1 IS DEFINED AS


001468:    4530           04503                           TC       MAGSUB                                #      1. ABS(T) L 55 DEGS.
001469:    4531           66161                           DEC      -.30555                               #      2. ABS(S + 5.5 DEGS) L 64.5 DEGS
001470:    4532           00001                           TC       L                                     #          (SHAFT LIMITS AT +59, -70 DEGS)
001471:
001472:    4533           34553                           CAF      5.5DEGS
001473:    4534           60062                           AD       ITEMP2                                #  S
001474:    4535           04503                           TC       MAGSUB
001475:    4536           64420                           DEC      -.35833                               #  64.5 DEGS
001476:    4537           00001                           TC       L
001477:    4540           04551                           TC       RRLIMOK                               #  IN LIMITS.
001478:
001479:    4541           34554        MODE2CHK           CAF      82DEGS                                #  MODE 2 IS DEFINED AS
001480:    4542           60062                           AD       ITEMP2                                #      1. ABS(T) G 125 DEGS.
001481:    4543           04503                           TC       MAGSUB                                #      2. ABS(S + 82 DEGS) L 57 DEGS
001482:    4544           65673                           DEC      -.31667                               #          (SHAFT LIMITS AT -25, -139 DEGS)
001483:    4545           00001                           TC       L
001484:
001485:    4546           30061                           CA       ITEMP1
001486:    4547           04503                           TC       MAGSUB
001487:    4550           51615                           DEC      -.69444                               #  125 DEGS
001488:
001489:    4551           50001        RRLIMOK            INDEX    L
001490:    4552           00001                           TC       L                                     #  ( = TC 1)
001491:
001492:    4553           00765        5.5DEGS            DEC      .03056
001493:    4554           16450        82DEGS             DEC      .45556
001494:


001496:                                                                                                  #  PROGRAM NAME_  SETTRKF                                                  . IF EITHER:
001497:
001498:                                                                                                  #  FUNCTIONAL DESCRIPTION_
001499:                                                                                                  #  SETTRKF UPDATES THE TRACKER FAIL LAMP ON THE DSKY.                      HER THE ALT OR VEL INFORMATION.
001500:                                                                                                  #  INITIALLY THE LAMP TEST FLAG (IMODES33 BIT 1) IS CHECKED.
001501:                                                                                                  #  IF A LAMP TEST IS IN PROGRESS, THE PROGRAM EXITS TO L +1.
001502:                                                                                                  #  IF NO LAMP TEST THE FOLLOWING IS CHECKED SEQUENTIALLY_
001503:                                                                                                  #  1) RR CDU:S BEING ZEROED, RR CDU OK, AND RR NOT IN
001504:                                                                                                  #  AUTO MODE (RADMODES BITS 13, 7, 2).
001505:                                                                                                  #  2) LR VEL DATA FAIL AND NO LR POS DATA (RADMODES BITS
001506:                                                                                                  #  8,5)
001507:                                                                                                  #  3) NO RR DATA (RADMODES BIT 4)
001508:                                                                                                  #  THE ABSENCE OF ALL THREE SIMULTANEOUSLY IN (1), THE PRESENCE OF BOTH
001509:                                                                                                  #  IN (2), AND THE PRESENCE OF (3) RESULTS IN EITHER THE TRACKER FAIL
001510:                                                                                                  #  LAMP (DSPTAB +11D BIT 8) BEING TURNED ON OR LEFT ON. OTHERWISE,
001511:                                                                                                  #  THE TRACKER FAIL LAMP IS TURNED OFF OR IS LEFT OFF. THEREFORE, THE
001512:                                                                                                  #  TRACKER FAIL LAMP IS TURNED ON IF_
001513:                                                                                                  #  A ) RR CDU FAILED WITH RR IN AUTO MODE AND RR CDU:S NOT BEING ZEROED.
001514:                                                                                                  #  B) N SAMPLES OF LR DATA COULD NOT BE TAKEN IN 2N TRIES WITH
001515:                                                                                                  #  EITHER THE ALT OR VEL INFORMATION
001516:                                                                                                  #  C) N SAMPLES OF RR DATA COULD NOT BE OBTAINED FROM 2N TRIES
001517:                                                                                                  #  WITH EITHER THE AL
001518:
001519:                                                                                                  #  CALLING SEQUENCE:
001520:                                                                                                  #  L  TC  SETTRKF
001521:
001522:                                                                                                  #  ERASABLE INITIALIZATION REQUIRED: IMODES33, RADMODES, DSPTAB +11D
001523:                                                                                                  #  SUBROUTINES CALLED_  NONE
001524:
001525:                                                                                                  #  JOBS OR TASKS INITIATED_  NONE
001526:
001527:                                                                                                  #  ALARMS_  TRACKER FAIL LAMP
001528:
001529:                                                                                                  #  EXIT:  L +1 (ALWAYS)                                                         ED.
001530:
001531:    4555           34744        SETTRKF            CAF      BIT1                                  #  NO ACTION IF DURING LAMP TEST.
001532:    4556           71300                           MASK     IMODES33
001533:    4557           10000                           CCS      A
001534:    4560           00002                           TC       Q
001535:
001536:    4561           34735        RRTRKF             CA       BIT8
001537:    4562           54001                           TS       L
001538:
001539:    4563           34606                           CAF      13,7,2                                #  SEE IF CDU FAILED.
001540:    4564           70110                           MASK     RADMODES
001541:    4565           00006                           EXTEND
001542:    4566           14572                           BZF      TRKFLON                               #  CONDITION 3 ABOVE.
001543:
001544:    4567           34741        RRCHECK            CAF      RRDATABT                              #  SEE IF RR DATA FAILED.
001545:    4570           70110                           MASK     RADMODES


001547:    4571           10000                           CCS      A
001548:    4572           30001        TRKFLON            CA       L
001549:    4573           61035                           AD       DSPTAB     +11D                       #  HALF ADD DESIRED AND PRESENT STATES.
001550:    4574           70001                           MASK     L
001551:    4575           00006                           EXTEND
001552:    4576           16763                           BZF      TCQ                                   #  NO CHANGE.
001553:
001554:    4577           31035        FLIP               CA       DSPTAB     +11D                       #  CANT USE LXCH DSPTAB +11D (RESTART PROB)
001555:    4600           00006                           EXTEND
001556:    4601           06001                           RXOR     LCHAN
001557:    4602           74724                           MASK     POSMAX
001558:    4603           64726                           AD       BIT15
001559:    4604           55035                           TS       DSPTAB     +11D
001560:    4605           00002                           TC       Q
001561:
001562:    4606           10102        13,7,2             OCT      10102
001563:    4607                        ENDRMODF           EQUALS
001564:


001566:                                                                                                  #  PROGRAM NAME_  RRTURNON


001568:
001569:                                                                                                  #  FUNCTIONAL DESCRIPTION_
001570:
001571:                                                                                                  #  RRTURNON IS THE TURN-ON SEQUENCE WHICH, ALONG WTIH
001572:                                                                                                  #  RRZEROSB, ZEROS THE CDU:S AND DETERMINES THE RR MODE.
001573:                                                                                                  #  INITIALLY, CONTROL IS TRANSFERRED TO RRZEROSB FOR THE
001574:                                                                                                  #  ACTUAL TURN-ON SEQUENCE. UPON RETURN THE PROGRAM
001575:                                                                                                  #  WAITS 1 SECOND BEFORE REMOVING THE TURN-ON FLAG
001576:                                                                                                  #  (RADMODES BIT1) SO THE REPOSITION ROUTINE WON:T
001577:                                                                                                  #  INITIATE PROGRAM ALARM 00501. A CHECK IS THEN MADE
001578:                                                                                                  #  TO SEE IF A PROGRAM IS USING THE RR (STATE BIT 7). IF
001579:                                                                                                  #  SO, THE PROGRAM EXITS TO ENDRADAR SO THAT THE RR CDU
001580:                                                                                                  #  FAIL FLAG (RADMODES BIT 7) CAN BE CHECKED BEFORE
001581:                                                                                                  #  RETURNING TO THE WAITING PROGRAM. IF NOT, THE PROGRAM EXITS
001582:                                                                                                  #  TO TASKOVER.
001583:
001584:                                                                                                  #  CALLING SEQUENCE: WAITLIST TASK FROM RRAUTCHK IF THE RR POWER-ON AUTO
001585:                                                                                                  #  BIT (CHAN 33 BIT 2) CHANGES TO 0 AND NO PROGRAM WAS USING
001586:                                                                                                  #  THE RR (STATE BIT 7).
001587:
001588:                                                                                                  #  ERASABLE INITIALIZATION REQUIRED:
001589:                                                                                                  #  RADMODES, STATE
001590:
001591:                                                                                                  #  SUBROUTINES CALLED_  RRZEROSB, FIXDELAY, TASKOVER, ENDRADAR
001592:
001593:                                                                                                  #  JOBS OR TASKS INITIATED_
001594:                                                                                                  #  NONE
001595:
001596:                                                                                                  #  ALARMS_  NONE (SEE RRZEROSB)
001597:
001598:                                                                                                  #  EXIT_  TASKOVER, ENDRADAR (WAITING PROGRAM)
001599:
001600: 24,3337                                           BANK     24
001601: 25,2000                                           SETLOC   P20S1
001602: 25,2000                                           BANK
001603:
001604: 25,2053  E7,1456                                  EBANK=   LOSCOUNT
001605: 25,2053                                           COUNT*   $$/RSUB
001606: 25,2053           02062        RRTURNON           TC       RRZEROSB
001607: 25,2054           05223                           TC       FIXDELAY                              #  WAIT 1 SEC BEFORE REMOVING TURN ON FLAG
001608: 25,2055           00144                           DEC      100        B-14                       #  SO A MONITOR REPOSITION WONT ALARM.
001609: 25,2056           44744                           CS       TURNONBT
001610: 25,2057           70110                           MASK     RADMODES
001611: 25,2060           54110                           TS       RADMODES
001612: 25,2061           15263                           TCF      TASKOVER
001613:


001615:                                                                                                  #  PROGRAM NAME_  RRZEROSB
001616:
001617:                                                                                                  #  FUNCTIONAL DESCRIPTION_
001618:                                                                                                  #  RRZEROSB IS A CLOSED SUBROUTINE TO ZERO THE RR CDU:S,
001619:                                                                                                  #  DETERMINE THE RR MODE, AND TURNS ON THE TRACKER FAIL
001620:                                                                                                  #  LAMP IF REQUIRED. INITIALLY THE RR CDU ZERO BIT (CHAN 12
001621:                                                                                                  #  BIT 1) IS SET. FOLLOWING A 20 MILLISECOND WAIT, THE LGC
001622:                                                                                                  #  RR CDU COUNTERS (OPTY, OPTX) ARE SET = 0 AFTER
001623:                                                                                                  #  WHICH THE RR CDU ZERO DISCRETE (CHAN 12 BIT 1) IS
001624:                                                                                                  #  REMOVED. A 4 SECOND WAIT IS SET TO ALL THE RR CDU:S
001625:                                                                                                  #  TO REPEAT THE ACTUAL TRUNNION AND SHAFT ANGLES. THE
001626:                                                                                                  #  RR CDU ZERO FLAG (RADMODES BIT 13) IS REMOVED. THE
001627:                                                                                                  #  CONTENTS OF OPTY IS THEN CHECKED TO SEE IF THE TRUNNION
001628:                                                                                                  #  ANGLE IS LESS THAN 90 DEGREES. IF NOT, BIT 12 OF
001629:                                                                                                  #  RADMODES IS SET = 1 TO INDICATE RR ANTENNA MODE 2.
001630:                                                                                                  #  IF LESS THAN 90 DEGREES, BIT 12 OF RADMODES IS SET = 0 TO
001631:                                                                                                  #  INDICATE RR ANTENNA MODE 1. SETTRKF IS THEN CALLED TO
001632:                                                                                                  #  SEE IF THE TRACKER FAIL LAMP SHOULD BE TURNED ON.
001633:
001634:                                                                                                  #  CALLING SEQUENCE: L  TC  RRZEROSB (FROM RRTURNON AND RRZERO)
001635:                                                                                                  #  ERASABLE INITIALIZATION REQUIRED:
001636:                                                                                                  #  RADMODES (BIT 13 SET), DSPTAB +11D
001637:
001638:                                                                                                  #  SUBROUTINES CALLED_  FIXDELAY, MAGSUB, SETTRKF
001639:
001640:                                                                                                  #  JOBS OR TASKS INITIATED_
001641:                                                                                                  #  NONE
001642:
001643:                                                                                                  #  ALARMS_  TRAKCER FAIL
001644:
001645:                                                                                                  #  EXIT_  L +1 (ALWAYS)
001646:
001647: 25,2062           00006        RRZEROSB           EXTEND
001648: 25,2063           23312                           QXCH     RRRET
001649: 25,2064           34744                           CAF      BIT1                                  #  BIT 13 OF RADMODES MUST BE SET BEFORE
001650: 25,2065           00006                           EXTEND                                         #  COMING HERE.
001651: 25,2066           05012                           WOR      CHAN12                                #  TURN ON ZERO RR CDU
001652: 25,2067           05223                           TC       FIXDELAY
001653: 25,2070           00002                           DEC      2          B-14
001654:
001655: 25,2071           34746                           CAF      ZERO
001656: 25,2072           54035                           TS       CDUT
001657: 25,2073           54036                           TS       CDUS
001658: 25,2074           44744                           CS       ONE                                   #  REMOVE ZEROING BIT.
001659: 25,2075           00006                           EXTEND
001660: 25,2076           03012                           WAND     CHAN12
001661: 25,2077           05223                           TC       FIXDELAY
001662: 25,2100           01750                           DEC      1000       B-14                       #  RESET FAIL INHIBIT IN 10 SECS - D.281
001663:
001664: 25,2101           44730                           CS       RCDU0BIT                              #  REMOVE ZEROING IN PROCESS BIT.


001666: 25,2102           70110                           MASK     RADMODES
001667: 25,2103           54110                           TS       RADMODES
001668:
001669: 25,2104           30035                           CA       CDUT
001670: 25,2105           04503                           TC       MAGSUB
001671: 25,2106           57777                           DEC      -.5
001672: 25,2107           12112                           TCF      +3                                    #  IF MODE 2.
001673:
001674: 25,2110           34746                           CAF      ZERO
001675: 25,2111           12113                           TCF      +2
001676: 25,2112           34731                           CAF      ANTENBIT
001677: 25,2113           56110                           XCH      RADMODES
001678: 25,2114           77762                           MASK     -BIT12
001679: 25,2115           26110                           ADS      RADMODES
001680:
001681: 25,2116           04555                           TC       SETTRKF                               #  TRACKER LAMP MIGHT GO ON NOW.
001682:
001683: 25,2117           01312                           TC       RRRET                                 #  DONE.
001684:
001685: 25,2120     7762               -BIT12             EQUALS   -1/8                                  #  IN SPROOT
001686:


001688:                                                                                                  #  PROGRAM NAME_  DORREPOS
001689:                                                                                                  #  FUNCTIONAL DESCRIPTION_
001690:                                                                                                  #  DORREPOS IS A SEQUENCE OF TASKS TO DRIVE THE RENDEZVOUS RADAR
001691:                                                                                                  #  TO A SAFE POSITION. INIITALLY SETRRECR IS CALLED WHERE THE RR
001692:                                                                                                  #  ERROR COUNTERS (CHAN 12 BIT 2) ARE ENABLED AND LASTYCMD
001693:                                                                                                  #  AND LASTXCMD SET = 0 TO INDICATE THE DIFFERENCE BETWEEN THE
001694:                                                                                                  #  DESIRED STATE AND PRESENT STATE OF THE COMMANDS. THE RR
001695:                                                                                                  #  TURN-ON FLAG (RADMODES BIT 1) IS CHECKED AND IF NOT PRESENT,
001696:                                                                                                  #  PROGRAM ALARM 00501 IS REQUESTED BEFORE CONTINUING. IN EITHER
001697:                                                                                                  #  CASE, FOLLOWING A 20 MILLISECOND WAIT THE PROGRAM CHECKS THE CURRENT
001698:                                                                                                  #  RR ANTENNA MODE (RADMODES BIT 12). RRTONLY IS THEN CALLED
001699:                                                                                                  #  TO DRIVE THE TRUNNION ANGLE TO 0 DEGREES IF IN MODE 1 AND TO 180
001700:                                                                                                  #  DEGREES IF IN MODE 2. UPON RETURN, THE CURRENT RR ANTENNA
001701:                                                                                                  #  MODE (RADMODES BIT 12) IS AGAIN CHECKED. RRSONLY IS THEN
001702:                                                                                                  #  CALLED TO DRIVE THE SHAFT ANGLE TO 0 DEGREES IF IN MODE 1 AND TO
001703:                                                                                                  #  -90 DEGREES IF IN MODE 2. IF DURING RRTONLY OR RRSONLY A
001704:                                                                                                  #  REMODE HAS BEEN REQUESTED (RADMODES BIT 14), AND ALWAYS
001705:                                                                                                  #  FOLLOWING COMPLETION OF RRSONLY, CONTROL IS TRANSFERRED TO
001706:                                                                                                  #  REPOSRPT. HERE THE REPOSITION FLAG (RADMODES BIT 11) IS
001707:                                                                                                  #  REMOVED. A CHECK IS THEN MADE ON THE DESIGNATE FLAG (RADMODES
001708:                                                                                                  #  BIT 10). IF PRESENT, CONTROL IS TRANSFERRED TO BEGDES. IF NOT PRESENT
001709:                                                                                                  #  INDICATING NO FURTHER ANTENNA CONTROL REQUIRED, THE RR ERROR
001710:                                                                                                  #  COUNTER BIT (CHAN 12 BIT 2) IS REMOVED AND THE ROUTINE EXITS TO
001711:                                                                                                  #  TASKOVER.
001712:
001713:                                                                                                  #  CALLING SEQUENCE:
001714:                                                                                                  #  WAITLIST CALL FROM RRGIMON IF TRUNNION AND SHAFT CDU ANGLES
001715:                                                                                                  #  NOT WITHIN LIMITS OF CURRENT MODE.
001716:
001717:                                                                                                  #  ERASABLE INITIALIZATION REQUIRED:
001718:                                                                                                  #  RADMODES
001719:
001720:                                                                                                  #  SUBROUTINES CALLED_
001721:                                                                                                  #  RRTONLY, RRSONLY, BEGDES (EXIT)
001722:
001723:                                                                                                  #  JOBS OR TASKS INITIATED_
001724:                                                                                                  #  NONE
001725:
001726:                                                                                                  #  ALARMS-  NONE
001727:
001728:                                                                                                  #  EXIT_  TASKOVER, BEGDES
001729:
001730: 25,2120           02147        DORREPOS           TC       SETRRECR                              #  SET UP RR CDU ERROR COUNTERS.
001731:
001732:                                                                                                  #  ALARM 501 DELETED IN DANCE 279 PER PCR 97.
001733:
001734: 25,2121           05223                           TC       FIXDELAY
001735: 25,2122           00002                           DEC      2          B-14
001736:
001737: 25,2123           34731                           CAF      ANTENBIT                              #  MANEUVER TRUNNION ANGLE TO NOMINAL POS.


001739: 25,2124           70110                           MASK     RADMODES
001740: 25,2125           10000                           CCS      A
001741: 25,2126           34726                           CAF      BIT15                                 #  0 FOR MODE 1 AND 180 FOR MODE 2.
001742: 25,2127           02232                           TC       RRTONLY
001743:
001744: 25,2130           34731                           CAF      ANTENBIT                              #  NOW PUT SHAFT IN RIGHT POSITION
001745: 25,2131           70110                           MASK     RADMODES
001746: 25,2132           10000                           CCS      A
001747: 25,2133           44727                           CS       HALF                                  #  -90 FOR MODE 2.
001748: 25,2134           02235                           TC       RRSONLY
001749:
001750: 25,2135           44732        REPOSRPT           CS       REPOSBIT                              #  RETURNS HERE FROM RR1AXIS IF REMODE
001751:                                                                                                  #  REQUESTED DURING REPOSITION.
001752: 25,2136           70110                           MASK     RADMODES                              #  REMOVE REPOSITION BIT.
001753: 25,2137           54110                           TS       RADMODES
001754: 25,2140           74733                           MASK     DESIGBIT                              #  SEE IF SOMEONE IS WAITING TO DESIGNATE.
001755: 25,2141           10000                           CCS      A
001756: 25,2142           12564                           TCF      BEGDES
001757: 25,2143           44743                           CS       BIT2                                  #  IF NO FURTHER ANTENNA CONTROL REQUIRED,
001758: 25,2144           00006                           EXTEND                                         #  REMOVE ERROR COUNTER ENABLE.
001759: 25,2145           03012                           WAND     CHAN12
001760: 25,2146           15263                           TCF      TASKOVER
001761:
001762: 25,2147           34743        SETRRECR           CAF      BIT2                                  #  SET UP RR ERROR COUNTERS.
001763: 25,2150           00006                           EXTEND
001764: 25,2151           02012                           RAND     CHAN12
001765: 25,2152           10000                           CCS      A                                     #  DO NOT CLEAR LAST COMMAND IF
001766: 25,2153           00002                           TC       Q                                     #  ERROR COUNTERS ARE ENABLED.
001767:
001768: 25,2154           54112                           TS       LASTYCMD
001769: 25,2155           54113                           TS       LASTXCMD
001770: 25,2156           34743                           CAF      BIT2
001771: 25,2157           00006                           EXTEND
001772: 25,2160           05012                           WOR      CHAN12                                #  ENABLE RR CDU ERROR COUNTERS.
001773: 25,2161           00002                           TC       Q


001775:                                                                                                  #  PROGRAM NAME_  REMODE                                                   IVES SHAFT TO -45, AND FINALLY DRIVES
001776:
001777:                                                                                                  #  FUNCTIONAL DESCRIPTION_                                                 S DONE WITH SINGLE AXIS ROTATIONS (SEE
001778:                                                                                                  #  REMODE IS THE GENERAL REMODING SUBROUTINE. IT DRIVES THE
001779:                                                                                                  #  TRUNNION ANGLE TO 0 DEGREES IF THE CURRENT MODE IS MODE 1,
001780:                                                                                                  #  180 DEGREES FOR MODE 2, THEN DRIVES THE SHAFT ANGLE TO -45
001781:                                                                                                  #  DEGREES, AND FINALLY DRIVES THE TRUNNION ANGLE TO -130 DEGREES,
001782:                                                                                                  #  TO PLACE THE RR IN MODE 2, -50 DEGREES FOR MODE 1, BEFORE
001783:                                                                                                  #  INITIATING 2-AXIS CONTROL. ALL REMODING IS DONE WITH SINGLE
001784:                                                                                                  #  AXIS ROTATIONS (RR1AXIS). INITIALLY THE RR ANTENNA MODE FLAG
001785:                                                                                                  #  (RADMODES BIT 12) IS CHECKED. CONTROL IS THEN TRANSFERRED TO
001786:                                                                                                  #  RRTONLY TO DRIVE THR TRUNNION ANGLE TO 0 DEGREES IF IN MODE 1
001787:                                                                                                  #  OR 180 DEGREES IF IN MODE 2. RRSONLY IS THEN CALLED TO DRIVE
001788:                                                                                                  #  THE SHAFT ANGLE TO -45 DEGREES. THE RR ANTENNA MODE FLAG
001789:                                                                                                  #  (RADMODES BIT 12) IS CHECKED AGAIN. CONTROL IS AGAIN
001790:                                                                                                  #  TRANSFERRED TO RRTONLY TO DRIVE THE TRUNNION ANGLE TO -130
001791:                                                                                                  #  DEGREES TO PLACE THE RR IN MODE 2 IF CURRENTLY IN MODE 1 OR TO
001792:                                                                                                  #  -50 DEGREES IF IN MODE 2 TO PLACE THE RR IN MODE 1. RMODINV
001793:                                                                                                  #  IS THEN CALLED TO SET RADMODES BIT 12 TO INDICATE THE NEW
001794:                                                                                                  #  RR ANTENNA MODE. THE REMODE FLAG (RADMODES BIT 14)
001795:                                                                                                  #  IS REMOVED TO INDICATE THAT REMODING IS COMPLETE. THE PROGRAM
001796:                                                                                                  #  THEN EXITS TO STDESIG TO BEGIN 2-AXIS CONTROL.
001797:
001798:                                                                                                  #  CALLING SEQUENCE:
001799:                                                                                                  #  FROM BEGDES WHEN REMODE FLAG (RADMODES BIT 14) IS SET.
001800:                                                                                                  #  THIS FLAG MAY BE SET IN RRDESSM AND RRDESNB IF RRLIMCHK
001801:                                                                                                  #  DETERMINES THAT THE DESIRED ANGLES ARE WITHIN THE LIMITS OF THE
001802:                                                                                                  #  OTHER MODE.
001803:
001804:                                                                                                  #  ERASABLE INIITIALIZATION REQUIRED:
001805:                                                                                                  #  RADMODES
001806:
001807:                                                                                                  #  SUBROUTINES CALLED_
001808:                                                                                                  #  RRTONLY, RRSONLY, RMODINV (ACTUALLY PART OF)
001809:
001810:                                                                                                  #  JOBS OR TASKS INITIATED_
001811:                                                                                                  #  NONE
001812:
001813:                                                                                                  #  EXIT_  STDESIG
001814:
001815: 25,2162           34731        REMODE             CAF      ANTENBIT                              #  DRIVE TRUNNION TO 0 (180)
001816: 25,2163           70110                           MASK     RADMODES                              #  (ERROR COUNTER ALREADY ENABLED)
001817: 25,2164           10000                           CCS      A
001818: 25,2165           34726                           CAF      BIT15
001819: 25,2166           02232                           TC       RRTONLY
001820:
001821: 25,2167           37761                           CAF      -45DEGSR
001822: 25,2170           02235                           TC       RRSONLY


001824: 25,2171           40110                           CS       RADMODES
001825: 25,2172           74731                           MASK     ANTENBIT
001826: 25,2173           10000                           CCS      A
001827: 25,2174           32223                           CAF      -80DEGSR                              #  GO TO T = -130 (-50).
001828: 25,2175           62222                           AD       -50DEGSR
001829: 25,2176           02232                           TC       RRTONLY
001830:
001831: 25,2177           40110                           CS       RADMODES
001832: 25,2200           74731                           MASK     ANTENBIT
001833: 25,2201           10000                           CCS      A
001834: 25,2202           34726                           CAF      BIT15                                 #  GO TO T = -180 (+0).
001835: 25,2203           02232                           TC       RRTONLY
001836:
001837: 25,2204           40110                           CS       RADMODES                              #  GO TO S = -90 (+0).
001838: 25,2205           74731                           MASK     ANTENBIT
001839: 25,2206           10000                           CCS      A
001840: 25,2207           44727                           CS       HALF
001841: 25,2210           02235                           TC       RRSONLY
001842:
001843: 25,2211           02224                           TC       RMODINV
001844: 25,2212           44727                           CS       REMODBIT                              #  END OF REMODE.
001845: 25,2213           70110                           MASK     RADMODES
001846: 25,2214           54110                           TS       RADMODES
001847:
001848: 25,2215           34733                           CAF      DESIGBIT                              #  WAS REMODE CALLED DURING DESIGNATE?
001849: 25,2216           70110                           MASK     RADMODES                              #  (BIT10 RADMODES = 1)
001850: 25,2217           00006                           EXTEND
001851: 25,2220           13616                           BZF      RGOODEND                              #  NO-RETURN TO CALLER WAITING IN RADSTALL
001852: 25,2221           02573                           TC       STDESIG                               #  YES - RETURN TO DESIGNATE
001853: 25,2222     7761               -45DEGSR           =        13,14,15
001854: 25,2222           67070        -50DEGSR           DEC      -.27778
001855: 25,2223           61615        -80DEGSR           DEC      -.44444
001856:
001857: 25,2224           22110        RMODINV            LXCH     RADMODES                              #  INVERT THE MODE STATUS.
001858: 25,2225           34731                           CAF      ANTENBIT
001859: 25,2226           00006                           EXTEND
001860: 25,2227           06001                           RXOR     LCHAN
001861: 25,2230           54110                           TS       RADMODES
001862: 25,2231           00002                           TC       Q
001863:


001865:                                                                                                  #  PROGRAM NAMES_  RRTONLY, RRSONLY
001866:
001867:                                                                                                  #  FUNCTIONAL DESCRIPTION_
001868:                                                                                                  #  RRTONLY AND RRSONLY ARE SUBROUTINES FOR DOING SINGLE AXIS
001869:                                                                                                  #  RR MANEUVERS FOR REMODE AND REPOSITION. IT DRIVES TO
001870:                                                                                                  #  WITHIN 1 DEGREE. INITIALLY, AT RR1AX2, THE REMODE AND REPOSITION
001871:                                                                                                  #  FLAGS (RADMODES BITS 14, 11) ARE CHECKED. IF BOTH EXIST,
001872:                                                                                                  #  THE PROGRAM EXITS TO REPOSRPT (SEE DORREPOS). THIS INDICATES
001873:                                                                                                  #  THAT SOMEONE POSSIBLY REQUESTED A DESIGNATE (RADMODES BIT 10)
001874:                                                                                                  #  WHICH REQUIRES A REMODE (RADMODES BIT 14) AND THAT A
001875:                                                                                                  #  REPOSITION IS IN PROGRESS (RADMODES BIT 11). IF NONE
001876:                                                                                                  #  OR ONLY ONE OF THE FLAGS EXIST, REMODE OR REPOSITION, MAGSUB
001877:                                                                                                  #  IS CALLED TO SEE IF THE APPROPRIATE ANGLE IS WITHIN 1 DEGREE. IF YES,
001878:                                                                                                  #  CONTROL RETURNS TO THE CALLING ROUTINE. IF NOT, CONTROL IS
001879:                                                                                                  #  TRANSFERRED TO RROUT FOR SINGLE AXIS MANEUVERS WITH THE OTHER
001880:                                                                                                  #  ANGLE SET = 0. FOLLOWING A .5 SECOND WAIT, THE ABOVE PROCEDURE IS
001881:                                                                                                  #  REPEATED.
001882:
001883:                                                                                                  #  CALLING SEQUENCE: L-1 CAF *ANGLE* (DESIRED ANGLE SCALED PI)
001884:                                                                                                  #  L  TC  RRTONLY (TRUNNION ONLY)
001885:                                                                                                  #  RRSONLY (SHAFT ONLY)
001886:                                                                                                  #  RRTONLY IS CALLED BY PREPOS29;
001887:                                                                                                  #  RRTONLY AND RRSONLY ARE CALLED BY DORREPOS AND REMODE
001888:
001889:                                                                                                  #  ERASABLE INITIALIZATION REQUIRED:
001890:                                                                                                  #  C(A) = DESIRED ANGLE, RADMODES
001891:
001892:                                                                                                  #  SUBROUTINES CALLED_
001893:                                                                                                  #  FIXDELAY, REPOSRPT, MAGSUB, RROUT
001894:
001895:                                                                                                  #  JOBS OR TASKS INITIATED_
001896:                                                                                                  #  NONE
001897:
001898:                                                                                                  #  ALARMS_  NONE
001899:
001900:                                                                                                  #  EXIT_  REPOSRPT (REMODE AND REPOSITION FLAGS PRESENT - RADMODES
001901:                                                                                                  #  BITS 14, 11)
001902:                                                                                                  #  L+1  (ANGLE WITHIN ONE DEGREE OR RR OUT OF AUTO MODE)
001903:
001904: 25,2232           55313        RRTONLY            TS       RDES                                  #  DESIRED TRUNNION ANGLE.
001905: 25,2233           34746                           CAF      ZERO
001906: 25,2234           12237                           TCF      RR1AXIS
001907:
001908: 25,2235           55313        RRSONLY            TS       RDES                                  #  SHAFT COMMANDS ARE UNRESOLVED SINCE THIS
001909: 25,2236           34744                           CAF      ONE                                   #  ROUTINE ENTERED ONLY WHEN T = 0 OR 180.
001910:
001911: 25,2237           55314        RR1AXIS            TS       RRINDEX
001912: 25,2240           00006                           EXTEND
001913: 25,2241           23312                           QXCH     RRRET
001914: 25,2242           12245                           TCF      RR1AX2
001915:


001917: 25,2243           05223        NXTRR1AX           TC       FIXDELAY
001918: 25,2244           00062                           DEC      50         B-14                       #  2 SAMPLES PER SECOND.
001919:
001920: 25,2245           40110        RR1AX2             CS       RADMODES                              #  IF SOMEONE REQUESTES AS DESIGNATE WHICH
001921: 25,2246           77731                           MASK     PRIO22                                #  REQUIRES A REMODE AND A REPOSITION IS IN
001922: 25,2247           00006                           EXTEND                                         #  PROGRESS, INTERRUPT IT AND START THE
001923: 25,2250           12135                           BZF      REPOSRPT                              #  REMODE IMMEDIATELY.
001924:
001925: 25,2251           31313                           CA       RDES
001926: 25,2252           00006                           EXTEND
001927: 25,2253           51314                           INDEX    RRINDEX
001928: 25,2254           20035                           MSU      CDUT
001929: 25,2255           54061                           TS       ITEMP1                                #  SAVE ERROR SIGNAL.
001930: 25,2256           00006                           EXTEND
001931: 25,2257           72276                           MP       RRSPGAIN                              #  TRIES TO NULL .7 OF ERROR OVER NEXT .5
001932: 25,2260           54001                           TS       L
001933: 25,2261           30110                           CA       RADMODES
001934: 25,2262           74743                           MASK     AUTOMBIT
001935: 25,2263           56061                           XCH      ITEMP1                                #  STORE RR-OUT-OF-AUTO-MODE BIT.
001936: 25,2264           04503                           TC       MAGSUB                                #  SEE IF WITHIN ONE DEGREE.
001937: 25,2265           77644                           DEC      -.00555                               #  SCALED IN HALF-REVS.
001938:
001939: 25,2266           10061                           CCS      ITEMP1                                #  NO.  IF RR OUT OF AUTO MODE, EXIT.
001940: 25,2267           01312                           TC       RRRET                                 #  RETURN TO CALLER.
001941:
001942: 25,2270           11314                           CCS      RRINDEX                               #  COMMAND FOR OTHER AXIS IS ZERO.
001943: 25,2271           12273                           TCF      +2                                    #  SETTING A TO 0.
001944: 25,2272           56001                           XCH      L
001945: 25,2273           53352                           DXCH     TRUNNCMD
001946: 25,2274           02277                           TC       RROUT
001947:
001948: 25,2275           12243                           TCF      NXTRR1AX                              #  COME BACK IN .5 SECONDS.
001949:
001950: 25,2276           22715        RRSPGAIN           DEC      .59062                                #  NULL .7 ERROR IN .5 SEC.
001951:


001953:                                                                                                  #  PROGRAM NAME_  RROUT                                                    RROR COUNTER SCALING. RROUT LIMITS THEM
001954:
001955:                                                                                                  #  FUNCTIONAL DESCRIPTION_
001956:                                                                                                  #  RROUT RECEIVES RR GYRO COMMANDS IN TANG, TANG +1 IN RR
001957:                                                                                                  #  ERROR COUNTER SCALING. RROUT THEN LIMITS THEM AND
001958:                                                                                                  #  GENERATES COMMANDS TO THE CDU TO ADJUST THE ERROR COUNTERS
001959:                                                                                                  #  TO THE DESIRED VALUES. INITIALLY MAGSUB CHECKS THE MAGNITUDE OF
001960:                                                                                                  #  THE COMMAND (SHAFT ON 1ST PASS) TO SEE IF IT IS GREATER THAN
001961:                                                                                                  #  384 PULSES. IF NOT, CONTROL IS TRANSFERRED TO RROUTLIM TO
001962:                                                                                                  #  LIMIT THE COMMAND TO +384 OR -384 PULSES. THE DIFFERENCE IS
001963:                                                                                                  #  THEN CALCULATED BETWEEN THE DESIRED STATE AND THE PRESENT STATE OF
001964:                                                                                                  #  THE ERROR COUNTER AS RECORDED IN LASTYCMD AND LASTXCMD.
001965:                                                                                                  #  THE RESULT IS STORED IN OPTXCMD (1ST PASS) AND OPTYCMD (2ND
001966:                                                                                                  #  PASS). FOLLOWING THE SECOND PASS, FOR THE TRUNNION COMMAND, THE
001967:                                                                                                  #  OCDUT AND OCDUS ERROR COUNTER DRIVE BITS (CHAN 14 BITS 12, 11)
001968:                                                                                                  #  ARE SET. THIS PROGRAM THEN EXITS TO THE CALLING PROGRAM.
001969:
001970:                                                                                                  #  CALLING SEQUENCE:
001971:                                                                                                  #  L TC RROUT (WITH RUPT INHIBITED) RROUT IS CALLED BY
001972:                                                                                                  #  RRTONLY, RRSONLY, AND DODES
001973:
001974:                                                                                                  #  ERASABLE INITIALIZATION REQUIRED:
001975:                                                                                                  #  TANG, TANG +1 (DESIRED COMMANDS), LASTYCMD, LASTXCMD
001976:                                                                                                  #  (1ST PASS = 0), RR ERROR COUNTER ENABLE SET (CHAN 12 BIT 2).
001977:
001978:                                                                                                  #  SUBROUTINES CALLED_
001979:                                                                                                  #  MAGSUB
001980:
001981:                                                                                                  #  JOBS OR TASKS INITIATED_
001982:                                                                                                  #  NONE
001983:
001984:                                                                                                  #  ALARMS_  NONE
001985:
001986:                                                                                                  #  EXIT_  L+1 (ALWAYS)                                                     SIRED VALUES. RUPT MUST BE INHIBITED.
001987:
001988: 25,2277           22002        RROUT              LXCH     Q                                     #  SAVE RETURN
001989: 25,2300           34744                           CAF      ONE                                   #  LOOP TWICE.
001990: 25,2301           54062        RROUT2             TS       ITEMP2
001991: 25,2302           50000                           INDEX    A
001992: 25,2303           31351                           CA       TRUNNCMD
001993: 25,2304           54061                           TS       ITEMP1                                #  SAVE SIGN OF COMMAND FOR LIMITING.
001994:
001995: 25,2305           04503                           TC       MAGSUB                                #  SEE IF WITHIN LMITS.
001996: 25,2306           77177        -RRLIMIT           DEC      -384       B-14
001997: 25,2307           12326                           TCF      RROUTLIM                              #  LIMIT COMMAND TO MAG OF 384.
001998:
001999: 25,2310           30061        SETRRCTR           CA       ITEMP1                                #  COUNT OUT DIFFERENCE BETWEEN DESIRED
002000: 25,2311           50062                           INDEX    ITEMP2                                #  STATE AND PRESENT STATE AS RECORDED IN
002001: 25,2312           56112                           XCH      LASTYCMD                              #  LASTYCMD AND LASTXCMD
002002: 25,2313           40000                           COM


002004: 25,2314           60061                           AD       ITEMP1
002005: 25,2315           64745                           AD       NEG0                                  #  PREVENT +0 IN OUTCOUNTER
002006: 25,2316           50062                           INDEX    ITEMP2
002007: 25,2317           54053                           TS       CDUTCMD
002008:
002009: 25,2320           10062                           CCS      ITEMP2                                #  PROCESS BOTH INPUTS.
002010: 25,2321           12301                           TCF      RROUT2
002011:
002012: 25,2322           35011                           CAF      PRIO6                                 #  ENABLE COUNTERS.
002013: 25,2323           00006                           EXTEND
002014: 25,2324           05014                           WOR      CHAN14                                #  PUT ON CDU DRIVES S AND T
002015: 25,2325           00001                           TC       L                                     #  RETURN.
002016:
002017: 25,2326           10061        RROUTLIM           CCS      ITEMP1                                #  LIMIT COMMAND TO ABS VAL OF 384.
002018: 25,2327           42306                           CS       -RRLIMIT
002019: 25,2330           12332                           TCF      +2
002020: 25,2331           32306                           CA       -RRLIMIT
002021: 25,2332           54061                           TS       ITEMP1
002022: 25,2333           12311                           TCF      SETRRCTR   +1
002023:


002025:                                                                                                  #           ROUTINE TO ZERO THE RR CDUS AND DETERMINE THE ANTENNA MODE.
002026:
002027: 25,2334           32363        RRZERO             CAF      BIT11+1                               #  SEE IF MONITOR REPOSITION OR NOT IN AUTO
002028: 25,2335           70110                           MASK     RADMODES                              #  IF SO, DONT RE-ZERO CDUS.
002029: 25,2336           10000                           CCS      A
002030: 25,2337           13532                           TCF      RADNOOP                               #  (IMMEDIATE TASK TO RGOODEND).
002031:
002032: 25,2340           00004                           INHINT
002033: 25,2341           44730                           CS       RCDU0BIT                              #  SET FLAG TO SHOW ZEROING IN PROGRESS.
002034: 25,2342           70110                           MASK     RADMODES
002035: 25,2343           64730                           AD       RCDU0BIT
002036: 25,2344           54110                           TS       RADMODES
002037:
002038: 25,2345           34744                           CAF      ONE
002039: 25,2346           05205                           TC       WAITLIST
002040: 25,2347  E7,1456                                  EBANK=   LOSCOUNT
002041: 25,2347           02361 52067                     2CADR    RRZ2
002042:
002043:
002044: 25,2351           40110                           CS       RADMODES                              #  SEE IF IN AUTO MODE.
002045: 25,2352           74743                           MASK     AUTOMBIT
002046: 25,2353           10000                           CCS      A
002047: 25,2354           12357                           TCF      ROADBACK
002048: 25,2355           05571                           TC       ALARM                                 #  AUTO DISCRETE NOT PRESENT - TRYING
002049: 25,2356           00510                           OCT      510
002050: 25,2357           00003        ROADBACK           RELINT
002051: 25,2360           14622                           TCF      SWRETURN
002052:
002053: 25,2361           02062        RRZ2               TC       RRZEROSB                              #  COMMON TO TURNON AND RRZERO.
002054: 25,2362           13607                           TCF      ENDRADAR
002055:
002056: 25,2363           02001        BIT11+1            OCT      02001
002057:


002059:                                                                                                  #  PROGRAM NAME_  RRDESSM                                                  R (HALF-UNIT) IN RRTARGET. REMODES IF
002060:
002061:                                                                                                  #  FUNCTIONAL DESCRIPTION_
002062:                                                                                                  #  THIS INTERPRETIVE ROUTINE WILL DESIGNATE, IF DESIRED ANGLES ARE
002063:                                                                                                  #  WITHIN THE LIMITS OF EITHER MODE, TO A LINE-OF-SIGHT (LOS) VECTOR
002064:                                                                                                  #  (HALF-UNIT) KNOWN WITH RESPECT TO THE STABLE MEMBER PRESENT
002065:                                                                                                  #  ORIENTATION. INITIALLY THE IMU CDU:S ARE READ AND CONTROL
002066:                                                                                                  #  TRANSFERRED TO SMNB TO TRANSFORM THE LOS VECTOR FROM STABLE
002067:                                                                                                  #  MEMBER TO NAVIGATION BASE CORRDINATES (SEE STG MEMO -699)
002068:                                                                                                  #  RRANGLES IS THEN CALLED TO CALCULATE THE RR GIMBAL ANGLES,
002069:                                                                                                  #  TRUNNION AND SHAFT, FOR BOTH THE PRESENT AND ALTERNATE MODE.
002070:                                                                                                  #  RRLIMCHK IS CALLED TO SEE IF THE ANGLES CALCULATED FOR THE
002071:                                                                                                  #  PRESENT MODE ARE WITHIN LIMITS. IF WITHIN LIMITS, THE RETURN
002072:                                                                                                  #  LOCATION IS INCREMENTED, INASMUCH AS NO VEHICLE MANEUVER IS
002073:                                                                                                  #  REQUIRED, BEFORE EXITING TO STARTDES. IF NOT WITHIN LIMITS OF THE
002074:                                                                                                  #  CURRENT MODE, TRYSWS IS CALLED. FOLLOWING INVERTING OF THE RR
002075:                                                                                                  #  ANTENNA MODE FLAG (RADMODES BIT 12), RRLIMCHK IS CALLED
002076:                                                                                                  #  TO SEE IF THE ANGLES CALCULATED FOR THE ALTERNATE MODE ARE WITHIN
002077:                                                                                                  #  LIMITS. IF YES, THE RR ANTENNA MODE FLAG IS AGAIN INVERTED,
002078:                                                                                                  #  THE REMODE FLAG (RADMODES BIT 14) SET, AND THE RETURN LOCATION
002079:                                                                                                  #  INCREMENTED, TO INDICATE NO VEHICLE MANEUVER IS REQUIRED, BEFORE
002080:                                                                                                  #  EXITING TO STARTDES. IF THESE ANGLES ARE NOT WITHIN LIMITS
002081:                                                                                                  #  OF THE ALTERNATE MODE, THE RR ANTENNA MODE FLAG (RADMODES
002082:                                                                                                  #  BIT 12) IS INVERTED BEFORE RETURNING DIRECTLY TO THE CALLING PROGRAM
002083:                                                                                                  #  TO INDICATE THAT A VEHICLE MANEUVER IS REQUIRED.
002084:
002085:                                                                                                  #  CALLING SEQUENCE:
002086:                                                                                                  #  L  STCALL  RRTARGET  (LOS HALF-UNIT VECTOR IN SM COORDINATES)
002087:                                                                                                  #  L+1  RRDESSM
002088:                                                                                                  #  L+2  BASIC  (VEHICLE MANEUVER REQUIRED)
002089:                                                                                                  #  L+3  BASIC  (NO VEHICLE MANEUVER REQUIRED)
002090:
002091:                                                                                                  #  ERASABLE INITIALIZATION REQUIRED:
002092:                                                                                                  #  RRTARGET, RADMODES
002093:
002094:                                                                                                  #  SUBROUTINES CALLED_
002095:                                                                                                  #  READCDUS, SMNB, RRANGLES, RRLIMCHK, TRYSWS (ACTUALLY
002096:                                                                                                  #  PART OF), RMODINV
002097:
002098:                                                                                                  #  JOBS OR TASKS INITIATED_
002099:                                                                                                  #     NONE
002100:
002101:                                                                                                  #  ALARMS_  NONE
002102:
002103:                                                                                                  #  EXIT_  L+2 (NEITHER SET OF ANGLES ARE WITHIN LIMITS OF RELATED MODE)
002104:                                                                                                  #  STARTDES (DESIGNATE POSSIBLE AT PRESENT VEHICLE ATTITUDE-RETURNS
002105:                                                                                                  #  TO L+3 FROM STARTDES)                                                   CAN BE DONE IN PRESENT VEH ATTITUDE.
002106:
002107: 25,2364           43020        RRDESSM            STQ      CLEAR
002108: 25,2365           01112                                    DESRET


002110: 25,2366           00271                                    RRNBSW
002111: 25,2367           77624                           CALL                                           #  COMPUTES SINES AND COSINES, ORDER Y Z X
002112: 25,2370           47522                                    CDUTRIG
002113: 25,2371           45175                           VLOAD    CALL                                  #  LOAD VECTOR AND CALL TRANSFORMATION
002114: 25,2372           01101                                    RRTARGET
002115: 25,2373           47663                                    *SMNB*
002116:
002117: 25,2374           77624                           CALL                                           #  GET RR GIMBAL ANGLES IN PRESENT AND
002118: 25,2375           26133                                    RRANGLES                              #  ALTERNATE MODE.
002119: 25,2376           77776                           EXIT
002120:
002121: 25,2377           00004                           INHINT
002122: 25,2400           04514                           TC       RRLIMCHK
002123: 25,2401           01106                           ADRES    MODEA                                 #  CONFIGURATION FOR CURRENT MODE.
002124: 25,2402           02405                           TC       +3                                    #  NOT IN CURRENT MODE
002125: 25,2403           25112        OKDESSM            INCR     DESRET                                #  INCREMENT SAYS NO VEHICLE MANEUVER REQ.
002126: 25,2404           02423                           TC       STARTDES                              #  SHOW DESIGNATE REQUIRED
002127: 25,2405           40104                           CS       FLAGWRD8
002128: 25,2406           74735                           MASK     SURFFBIT                              #  CHECK IF ON LUNAR SURFACE (SURFFLAG=P22F
002129: 25,2407           00006                           EXTEND
002130: 25,2410           12447                           BZF      NORDSTAL                              #  BRANCH-YES-CANNOT DESIGNATE IN MODE 2
002131: 25,2411           02452                           TC       TRYSWS
002132:
002133:
002134: 25,2412           40104        LUNDESCH           CS       FLAGWRD8                              #  OVERFLOW RETURN FROM RRANGLES
002135: 25,2413           74735                           MASK     SURFFBIT                              #  CHECK IF ON LUNAR SURFACE
002136: 25,2414           00006                           EXTEND
002137: 25,2415           12447                           BZF      NORDSTAL                              #  BRANCH-YES-RETURN TO CALLER - ALARM 527
002138: 25,2416           30074                           CA       STATE
002139: 25,2417           74736                           MASK     RNDVZBIT
002140: 25,2420           10000                           CCS      A                                     #  TEST RNDVZFLG.
002141: 25,2421           02462                           TC       NODESSM                               #  NOT ON MOON-CALL FOR ATTITUDE MANEUVER
002142: 25,2422           15146                           TCF      ENDOFJOB                              #  ...BUT NOT IN R29.
002143:


002145:                                                                                                  #  PROGRAM NAME_  STARTDES                                                 STORED AS A HALF-UNIT VECTOR IN RRTARGET
002146:
002147:                                                                                                  #  FUNCTIONAL DESCRIPTION_                                                 CKON IS DESIRED. BIT14 OF RADMODES IS
002148:                                                                                                  #  STARTDES IS ENTERED WHEN WE ARE READY TO BEGIN DESIGNATION.             OR REPOSITION OPERATION. IN THIS
002149:                                                                                                  #  BIT 14 OF RADMODES IS ALREADY SET IF A REMODE IS REQUIRED.              THE REPOSITION WILL BE INTERRUPTED.
002150:                                                                                                  #  AT THIS TIME, THE RR ANTENNA MAY BE IN A REPOSITION                     GINS.
002151:                                                                                                  #  OPERATION. IN THIS CASE, IF A REMODE IS REQUIRED IT MAY HAVE
002152:                                                                                                  #  ALREADY BEGUN BUT IN ANY CASE THE REPOSITION WILL BE INTERRUPTED.
002153:                                                                                                  #  OTHERWISE, THE REPOSITION WILL BE COMPLETED BEFORE 2-AXIS
002154:                                                                                                  #  DESIGNATION BEGINS. INITIALLY DESCOUNT IS SET = 60 TO INDICATE
002155:                                                                                                  #  THAT 30 SECONDS WILL BE ALLOWED FOR THE RR DATA GOOD INBIT
002156:                                                                                                  #  (CHAN 33 BIT 4) IF LOCK-ON IS DESIRED (STATE BIT 5). BIT 10
002157:                                                                                                  #  OF RADMODES IS SET TO SHOW THAT A DESIGNATE IS REQUIRED.
002158:                                                                                                  #  THE REPOSITION FLAG (RADMODES BIT 11) IS CHECKED. IF SET,
002159:                                                                                                  #  THE PROGRAM EXITS TO L+3 OF THE CALLING PROGRAM (SEE RRDESSM
002160:                                                                                                  #  AND RRDESNB). THE PROGRAM WILL BEGIN DESIGNATING TO THE DESIRED
002161:                                                                                                  #  ANGLES FOLLOWING THE REPOSITION OR REMODE IF ONE WAS
002162:                                                                                                  #  REQUESTED. IF THE REPOSITION FLAG IS NOT SET, SETRRECR IS CALLED
002163:                                                                                                  #  WHICH SETS THE RR ERROR COUNTER ENABLE BIT (CHAN 12 BIT 2)
002164:                                                                                                  #  AND SETS LASTYCMD AND LASTXCMD = 0 TO INDICATE THE
002165:                                                                                                  #  DIFFERENCE BETWEEN THE PRESENT AND DESIRED STATE OF THE ERROR
002166:                                                                                                  #  COUNTERS. A 20 MILLISECOND WAITLIST CALL IS SET FOR BEGDES
002167:                                                                                                  #  AFTER WHICH THE PROGRAM EXITS TO L+3 OF THE CALLING PROGRAM.
002168:
002169:                                                                                                  #  CALLING SEQUENCE:
002170:                                                                                                  #  FROM RRDESSM AND RRDESNB WHEN ANGLES WITHIN LIMITS.
002171:
002172:                                                                                                  #  ERASABLE INITIALIZATION REQUIRED:
002173:                                                                                                  #  RADMODES, (SEE DODES)
002174:
002175:                                                                                                  #  SUBROUTINES CALLED_
002176:                                                                                                  #  SETRRECR, WAITLIST
002177:
002178:                                                                                                  #  JOBS OR TASKS INITIATED_
002179:                                                                                                  #  BEGDES
002180:
002181:                                                                                                  #  ALARMS_  NONE
002182:
002183:                                                                                                  #  EXIT_  L+3 OF CALLING PROGRAM (SEE RRDESSM)
002184:                                                                                                  #  L+2 OF CALLING PROGRAM (SEE RRDESNB)
002185:
002186: 25,2423           25112        STARTDES           INCR     DESRET
002187: 25,2424           40110                           CS       RADMODES
002188: 25,2425           74733                           MASK     DESIGBIT
002189: 25,2426           26110                           ADS      RADMODES
002190: 25,2427           74732                           MASK     REPOSBIT                              #  SEE IF REPOSITIONING IN PROGRESS.
002191: 25,2430           10000                           CCS      A
002192: 25,2431           12437                           TCF      DESRETRN                              #  ECTR ALREADY SET UP.
002193:
002194: 25,2432           02147                           TC       SETRRECR                              #  SET UP ERROR COUNTERS.


002196: 25,2433           34743                           CAF      TWO
002197: 25,2434           05205                           TC       WAITLIST
002198: 25,2435  E7,1456                                  EBANK=   LOSCOUNT
002199: 25,2435           02564 52067                     2CADR    BEGDES
002200:
002201:
002202: 25,2437           31303        DESRETRN           CA       RADCADR                               #  FIRST PASS THRU DESIGNATE
002203: 25,2440           00006                           EXTEND
002204: 25,2441           12443                           BZF      DESRTRN                               #  YES   SET EXIT
002205: 25,2442           05146                           TC       ENDOFJOB                              #  NO
002206: 25,2443           00003        DESRTRN            RELINT
002207: 25,2444           25112                           INCR     DESRET
002208: 25,2445           31112                           CA       DESRET
002209: 25,2446           14631                           TCF      BANKJUMP
002210:
002211:
002212: 25,2447           34746        NORDSTAL           CAF      ZERO                                  #  ZERO RADCADR TO WIPE  OUT ANYONE
002213: 25,2450           55303                           TS       RADCADR                               #  WAITING IN RADSTALL SINCE WE ARE NOW
002214: 25,2451           12443                           TCF      DESRTRN                               #  RETURNING TO P20 AND MAY DO NEW RADSTALL
002215:


002217:                                                                                                  #           SEE IF RRDESSM CAN BE ACCOMPLISHED AFTER A REMODE.
002218:
002219: 25,2452           02224        TRYSWS             TC       RMODINV                               #  (NOTE RUPT INHIBIT)
002220: 25,2453           04514                           TC       RRLIMCHK                              #  TRY DIFFERENT MODE.
002221: 25,2454           01110                           ADRES    MODEB
002222: 25,2455           12462                           TCF      NODESSM                               #  VEHICLE MANEUVER REQUIRED.
002223:
002224: 25,2456           02224                           TC       RMODINV                               #  RESET BIT12
002225: 25,2457           34727                           CAF      REMODBIT                              #  SET FLAG FOR REMODE.
002226: 25,2460           26110                           ADS      RADMODES
002227:
002228: 25,2461           12403                           TCF      OKDESSM
002229:
002230: 25,2462           02224        NODESSM            TC       RMODINV                               #  RE-INVERT MODE AND RETURN
002231: 25,2463           25112                           INCR     DESRET                                #  TO CALLER +2
002232: 25,2464           12447                           TCF      NORDSTAL
002233:
002234: 25,2465           00074        MAXTRYS            DEC      60         B-14
002235:


002237:                                                                                                  #           DESIGNATE TO SPECIFIC RR GIMBAL ANGLES (INDEPENDENT OF VEHICLE MOTION). ENTER WITH DESIRED ANGLES IN
002238:                                                                                                  #  TANG AND TANG +1.
002239:
002240: 25,2466           04636        RRDESNB            TC       MAKECADR
002241: 25,2467           55112                           TS       DESRET
002242:
002243: 25,2470           05520                           TC       DOWNFLAG                              #  RESET FLAG TO PREVENT DODES FROM GOING
002244: 25,2471           00041                           ADRES    LOSCMFLG                              #  BACK TO R21
002245: 25,2472           32465                           CA       MAXTRYS                               #  SET TIME LIMIT COUNTER
002246: 25,2473           55113                           TS       DESCOUNT                              #  FOR DESIGNATE
002247: 25,2474           00004                           INHINT                                         #  SEE IF CURRENT MODE OK.
002248: 25,2475           02531                           TC       RRLIMNB                               #  DO SPECIAL V41 LIMIT CHECK
002249: 25,2476           01106                           ADRES    TANG
002250: 25,2477           12514                           TCF      TRYSWN                                #  SEE IF IN OTHER MODE.
002251:
002252: 25,2500           00003        OKDESNB            RELINT
002253: 25,2501           00006                           EXTEND
002254: 25,2502           31107                           DCA      TANG
002255: 25,2503           53753                           DXCH     TANGNB
002256: 25,2504           06060                           TC       INTPRET
002257:
002258: 25,2505           77624                           CALL                                           #  GET LOS IN NB COORDS.
002259: 25,2506           46041                                    RRNB
002260: 25,2507           01101                           STORE    RRTARGET
002261:
002262: 25,2510           77414                           SET      EXIT
002263: 25,2511           00071                                    RRNBSW
002264:
002265: 25,2512           00004                           INHINT
002266: 25,2513           12424                           TCF      STARTDES   +1
002267: 25,2514           02224        TRYSWN             TC       RMODINV                               #  SEE IF OTHER MODE WILL DO.
002268: 25,2515           02531                           TC       RRLIMNB                               #  DO SPECIAL V41 LIMIT CHECK
002269: 25,2516           01106                           ADRES    TANG
002270: 25,2517           12524                           TCF      NODESNB                               #  NOT POSSIBLE.
002271:
002272: 25,2520           02224                           TC       RMODINV
002273: 25,2521           34727                           CAF      REMODBIT                              #  CALL FOR REMODE.
002274: 25,2522           26110                           ADS      RADMODES
002275: 25,2523           12500                           TCF      OKDESNB
002276:
002277: 25,2524           02224        NODESNB            TC       RMODINV                               #  REINVERT MODE BIT.
002278: 25,2525           05571                           TC       ALARM                                 #  BAD INPUT ANGLES.
002279: 25,2526           00502                           OCT      502
002280: 25,2527           06027                           TC       CLRADMOD
002281: 25,2530           05146                           TC       ENDOFJOB                              #  AVOID 503 ALARM.
002282:
002283: 25,2531           50002        RRLIMNB            INDEX    Q                                     #  THIS ROUTINE IS IDENTICAL TO RRLIMCHK
002284: 25,2532           30000                           CAF      0                                     #  EXCEPT THAT THE MODE 1 SHAFT LOWER
002285: 25,2533           24002                           INCR     Q                                     #  LIMIT IS -85 INSTEAD OF -70 DEGREES
002286: 25,2534           00006                           EXTEND


002288: 25,2535           50000                           INDEX    A                                     #  READ GIMBAL ANGLES INTO ITEMP STORAGE
002289: 25,2536           30001                           DCA      0
002290: 25,2537           52062                           DXCH     ITEMP1
002291: 25,2540           22002                           LXCH     Q                                     #  L(CALLER +2) TO L
002292:
002293: 25,2541           34731                           CAF      ANTENBIT                              #  SEE WHICH MODE RR IS IN.
002294: 25,2542           70110                           MASK     RADMODES
002295: 25,2543           10000                           CCS      A
002296: 25,2544           14541                           TCF      MODE2CHK                              #  MODE 2 CAN USE RRLIMCHK CODING
002297: 25,2545           30061                           CA       ITEMP1
002298: 25,2546           04503                           TC       MAGSUB                                #  MODE 1 IS DEFINED AS
002299: 25,2547           66161                           DEC      -.30555                               #    1. ABS(T) L 55 DEGS
002300: 25,2550           00001                           TC       L                                     #    2. SHAFT LIMITS AT +59, -85 DEGS
002301:
002302: 25,2551           30062                           CA       ITEMP2                                #  LOAD SHAFT ANGLE
002303: 25,2552           00006                           EXTEND
002304: 25,2553           62561                           BZMF     NEGSHAFT                              #  IF NEGATIVE SHAFT ANGLE, ADD 20.5 DEGS
002305: 25,2554           64553                           AD       5.5DEGS
002306: 25,2555           04503        SHAFTLIM           TC       MAGSUB
002307: 25,2556           64420                           DEC      -.35833                               #  64.5 DEGREES
002308: 25,2557           00001                           TC       L                                     #  NOT IN LIMITS
002309: 25,2560           04551                           TC       RRLIMOK                               #  IN LIMITS
002310: 25,2561           62563        NEGSHAFT           AD       20.5DEGS                              #  MAKE NEGATIVE SHAFT LIMIT -85 DEGREES
002311: 25,2562           12555                           TCF      SHAFTLIM
002312:
002313:
002314: 25,2563           03512        20.5DEGS           DEC      .11389
002315:


002317:                                                                                                  #  PROGRAM NAME_  BEGDES
002318:
002319:                                                                                                  #  FUNCTIONAL DESCRIPTION_
002320:                                                                                                  #  BEGDES CHECKS VARIOUS DESIGNATE REQUESTS AND REQUESTS THE
002321:                                                                                                  #  ACTUAL RR DESIGNATION. INITIALLY A CHECK IS MADE TO SEE IF A
002322:                                                                                                  #  REMODE (RADMODES BIT 14) IS REQUESTED OR IN PROGRESS. IF SO,
002323:                                                                                                  #  CONTROL IS TRANSFERRED TO STDESIG AFTER ROUTINE REMODE IS
002324:                                                                                                  #  EXECUTED. IF NO REMODE, STDESIG IS IMMEDIATELY CALLED WHERE
002325:                                                                                                  #  FIRST THE REPOSITION FLAG (RADMODES BIT 11) IS CHECKED. IF
002326:                                                                                                  #  PRESENT, THE DESIGNATE FLAG (RADMODES BIT 10) IS REMOVED
002327:                                                                                                  #  AFTER WHICH THE PROGRAM EXITS TO RDBADEND. IF THE REPOSITION
002328:                                                                                                  #  FLAG IS NOT PRESENT, THE CONTINUOUS DESIGNATE FLAG (RADMODES
002329:                                                                                                  #  BIT 15) IS CHECKED. IF PRESENT, AN EXECUTIVE CALL IS IMMEDIATELY
002330:                                                                                                  #  MADE FOR DODES AFTER WHICH A .5 SECOND WAIT IS INITIATED BEFORE
002331:                                                                                                  #  REPEATING AT STDESIG. IF THE RR SEARCH ROUTINE (LRS24.1) IS DESIGNATING
002332:                                                                                                  #  TO A NEW POINT (NEWPTFLG SET) THE CURRENT DESIGNATE TASK IS TERMINATED.
002333:                                                                                                  #  IF CONTINUOUS DESIGNATE IS NOT WANTED, THE DESIGNATE FLAG (RADMODES
002334:                                                                                                  #  BIT 10) IS CHECKED. IF NOT PRESENT, THE PROGRAM EXITS TO ENDRADAR TO
002335:                                                                                                  #  CHECK RR CDU FAIL BEFORE RETURNING TO THE CALLING PROGRAM. IF DESIGNATE
002336:                                                                                                  #  IS STILL REQUIRED, DESCOUNT IS CHECKED TO SEE IF THE 30 SECONDS HAS
002337:                                                                                                  #  EXPIRED BEFORE RECEIVING THE RR DATA GOOD (CHAN 33 BIT 4)
002338:                                                                                                  #  SIGNAL. IF OUT OF TIME, PROGRAM ALARM 00503 IS REQUESTED, THE
002339:                                                                                                  #  RR AUTO TRACKER ENABLE AND RR ERROR COUNTER ENABLE
002340:                                                                                                  #  (CHAN 12 BITS 14,2) BITS REMOVED, AND THE DESIGNATE FLAG
002341:                                                                                                  #  (RADMODES BIT 10) REMOVED BEFORE EXITING TO RDBADEND. IF
002342:                                                                                                  #  TIME HAS NOT EXPIRED, DESCOUNT IS DECREMENTED, THE
002343:                                                                                                  #  EXECUTIVE CALL MADE FOR DODES, AND A .5 SECOND WAIT INITIATED
002344:                                                                                                  #  BEFORE REPEATING THIS PROCEDURE AT STDESIG.
002345:
002346:                                                                                                  #  CALLING SEQUENCE:
002347:                                                                                                  #  WAITLIST CALL FROM STARTDES
002348:                                                                                                  #  TCF BEGDES FROM DORREPOS
002349:                                                                                                  #  TC STDESIG RETURNING, FROM REMODE
002350:
002351:                                                                                                  #  ERASABLE INITIALIZATION REQUIRED:
002352:                                                                                                  #  DESCOUNT, RADMODES
002353:
002354:                                                                                                  #  SUBROUTINES CALLED_
002355:                                                                                                  #  ENDRADAR, FINDVAC
002356:
002357:                                                                                                  #  JOBS OR TASKS INITIATED_  DODES
002358:
002359:                                                                                                  #  ALARMS_  PROGRAM ALARM 00503 (30 SECONDS HAVE EXPIRED) WITH NO RR DATA
002360:                                                                                                  #  GOOD (CHAN 33 BIT 4) RECEIVED WHEN LOCK-ON (STATE BIT 5) WAS REQUESTED.
002361:
002362:                                                                                                  #  EXIT_  TASKOVER (SEARCH PATTERN DESIGNATING TO NEW POINT)
002363:                                                                                                  #  ENDRADAR (NO DESIGNATE - RADMODES BIT 10)
002364:                                                                                                  #  RDBADEND (REPOSITION OR 30 SECONDS EXPIRED)
002365:
002366: 25,2564           40110        BEGDES             CS       RADMODES


002368: 25,2565           74727                           MASK     REMODBIT
002369: 25,2566           10000                           CCS      A
002370: 25,2567           02573                           TC       STDESIG
002371: 25,2570           02162                           TC       REMODE
002372: 25,2571           05223        DESLOOP            TC       FIXDELAY                              #  2 SAMPLES PER SECOND.
002373: 25,2572           00062                           DEC      50         B-14
002374:
002375: 25,2573           34732        STDESIG            CAF      REPOSBIT
002376: 25,2574           70110                           MASK     RADMODES                              #  SEE IF GIMBAL LIMIT MONITOR HAS FOUND US
002377: 25,2575           10000                           CCS      A                                     #  OUT OF BOUNDS. IF SO, THIS BIT SHOWS A
002378: 25,2576           12614                           TCF      BADDES                                #  REPOSITION TO BE IN PROGRESS.
002379:
002380: 25,2577           10110                           CCS      RADMODES                              #  SEE IF CONTINUOUS DESIGNATE WANTED.
002381: 25,2600           12603                           TCF      +3                                    #  IF SO, DONT CHECK BIT 10 TO SEE IF IN
002382: 25,2601           12603                           TCF      +2                                    #  LIMITS BUT GO RIGHT TO FINDVAC ENTRY.
002383: 25,2602           12620                           TCF      MOREDES    +1
002384:
002385: 25,2603           40110                           CS       RADMODES                              #  IF NON-CONTINUOUS, SEE IF END OF
002386: 25,2604           74733                           MASK     DESIGBIT                              #  PROBLEM (DATA GOOD IF LOCK-ON WANTED OR
002387: 25,2605           10000                           CCS      A                                     #  WITHIN LIMITS IF NOT). IF SO, EXIT AFTER
002388: 25,2606           13607                           TCF      ENDRADAR                              #  CHECKING RR CDU FAIL.
002389:
002390: 25,2607           11113        STDESIG1           CCS      DESCOUNT                              #  SEE IF THE TINE LIMIT HAS EXPIRED
002391: 25,2610           12617                           TCF      MOREDES
002392:
002393: 25,2611           42625                           CS       B14+B2                                #  IF OUT OF TIME, REMOVE ECR ENABLE + TRKR
002394: 25,2612           00006                           EXTEND
002395: 25,2613           03012                           WAND     CHAN12
002396: 25,2614           05520        BADDES             TC       DOWNFLAG
002397: 25,2615           00271                           ADRES    DESIGFLG
002398: 25,2616           13623                           TCF      RDBADEND
002399:
002400: 25,2617           55113        MOREDES            TS       DESCOUNT
002401: 25,2620           37735                           CAF      PRIO26                                #  UPDATE GYRO TORQUE COMMANDS.
002402: 25,2621           05076                           TC       FINDVAC
002403: 25,2622  E7,1456                                  EBANK=   LOSCOUNT
002404: 25,2622           02626 52067                     2CADR    DODES
002405:
002406:
002407: 25,2624           12571                           TCF      DESLOOP
002408:
002409: 25,2625           20002        B14+B2             OCT      20002
002410:


002412:                                                                                                  #  PROGRAM NAME_  DODES
002413:
002414:                                                                                                  #  FUNCTIONAL DESCRIPTION_
002415:                                                                                                  #  DODES CALCULATES AND REQUESTS ISSUANCE OF RR GYRO TORQUE
002416:                                                                                                  #  COMMANDS. INITIALLY THE CURRENT RR CDU ANGLES ARE STORED AND
002417:                                                                                                  #  THE LOS HALF-UNIT VECTOR TRANSFORMED FROM STABLE MEMBER TO
002418:                                                                                                  #  NAVIGATION BASE COORDINATES VIA SMNB IF NECESSARY. THE
002419:                                                                                                  #  SHAFT AND TRUNNION COMMANDS ARE THEN CALCULATED AS FOLLOWS_
002420:                                                                                                  #  + SHAFT = LOS  . (COS(S), 0, -SIN (S)) (DOT PRODUCT)
002421:                                                                                                  #  -TRUNNION = LOS  . (SIN (T) SIN (S), COS (T), SIN (T) COS (S) )
002422:                                                                                                  #  THE SIGN OF THE SHAFT COMMAND IS THEN REVERSED IF IN MODE 2
002423:                                                                                                  #  (RADMODES BIT 12) BECAUSE A RELAY IN THE RR REVERSES THE
002424:                                                                                                  #  POLARITY OF THE COMMAND. AT RRSCALUP EACH COMMAND IS
002425:                                                                                                  #  SCALED AND IF EITHER, OR BOTH, OF THE COMMANDS IS GREATER THAN
002426:                                                                                                  #  .5 DEGREES, MPAC +1 IS SET POSITIVE. IF A CONTINUOUS DESIGNATE
002427:                                                                                                  #  (RADMODES BIT 15) IS DESIRED AND THE SEARCH ROUTINE IS NOT OPERATING,
002428:                                                                                                  #  THE RR AUTO TRACKER ENABLE BIT (CHAN 12 BIT 14) IS CLEARED AND RROUT
002429:                                                                                                  #  CALLED TO PUT OUT THE COMMANDS PROVIDED NO REPOSITION (RADMODES BIT 11)
002430:                                                                                                  #  IS IN PROGRESS. IF A CONTINUOUS DESIGNATE AND THE SEARCH ROUTINE IS
002431:                                                                                                  #  OPERATING (SRCHOPT FLAG SET) THE TRACK ENABLE IS NOT CLEARED. IF NO
002432:                                                                                                  #  CONTINUOUS DESIGNATE AND BOTH COMMANDS ARE NOT LESS THAN .5 DEGREES AS
002433:                                                                                                  #  INDICATED BY MPAC +1, THE RR AUTO TRACKER ENABLE BIT (CHAN 12 BIT 14) IS
002434:                                                                                                  #  CLEARED AND RROUT CALLED TO PUT OUT THE COMMANDS PROVIDED NO REPOSITION
002435:                                                                                                  #  (RADMODES BIT 11) IS IN PROGRESS. IF BOTH COMMANDS ARE LESS THAN .5
002436:                                                                                                  #  DEGREES AS INDICATED BY MPAC+1, THE RR AUTO TRACKER ENABLE BIT
002437:                                                                                                  #  (CHAN 12 BIT 14) IS CLEARED AND RROUT CALLED TO PUT OUT THE
002438:                                                                                                  #  COMMANDS PROVIDED NO REPOSITION (RADMODES BIT 11) IS IN
002439:                                                                                                  #  PROGRESS. IF BOTH COMMANDS ARE LESS THAN .5 DEGREES, THE
002440:                                                                                                  #  LOCK-ON FLAG (STATE BIT 5) IS CHECKED. IF NOT PRESENT, THE
002441:                                                                                                  #  DESIGNATE FLAG (RADMODES BIT 10) IS CLEARED, THE RR ERROR
002442:                                                                                                  #  COUNTER ENABLE BIT (CHAN 12 BIT 2) IS CLEARED, AND ENDOFJOB
002443:                                                                                                  #  CALLED. IF LOCK-ON IS DESIRED, TEH RR AUTO TRACKER (CHAN 12
002444:                                                                                                  #  BIT 14) IS ENABLED FOLLOWED BY A CHECK OF THE RECEIPT OF THE
002445:                                                                                                  #  RR DATA GOOD (CHAN 33 BIT 4) SIGNAL. IF RR DATA GOOD
002446:                                                                                                  #  PRESENT, THE DESIGNATE FLAG (RADMODES BIT 10) IS CLEARED,
002447:                                                                                                  #  THE RR ERROR COUNTER ENABLE BIT (CHAN 12 BIT 2) IS CLEARED,
002448:                                                                                                  #  AND ENDOFJOB CALLED. IF RR DATA GOOD IS NOT PRESENT, RROUT
002449:                                                                                                  #  IS CALLED TO PUT OUT THE COMMANDS PROVIDED NO REPOSITION
002450:                                                                                                  #  (RADMODES BIT 11) IS IN PROGRESS AFTER WHICH THE JOB IS TERMINATED
002451:                                                                                                  #  VIA ENDOFJOB.
002452:
002453:                                                                                                  #  CALLING SEQUENCE:
002454:                                                                                                  #  EXECUTIVE CALL EVERY .5 SECONDS FROM BEGDES.
002455:
002456:                                                                                                  #  ERASABLE INITIALIZATION REQUIRED:
002457:                                                                                                  #  RRTARGET (HALF-UNIT LOS VECTOR IN EITHER SM OR NB COORDINATES),
002458:                                                                                                  #  LOKONSW (STATE BIT 5), RRNBSW (STATE BIT 6), RADMODES
002459:
002460:                                                                                                  #  SUBROUTINES CALLED_
002461:                                                                                                  #  READCDUS, SMNB, CDULOGIC, MAGSUB, RROUT
002462:


002464:                                                                                                  #  JOBS OR TASKS INITIATED_
002465:                                                                                                  #  NONE
002466:
002467:                                                                                                  #  ALARMS_  NONE
002468:
002469:                                                                                                  #  EXIT_  ENDOFJOB (ALWAYS)
002470:
002471: 25,2626           00006        DODES              EXTEND
002472: 25,2627           30036                           DCA      CDUT
002473: 25,2630           53107                           DXCH     TANG
002474:
002475: 25,2631           06060                           TC       INTPRET
002476:
002477: 25,2632           77201                           SETPD    VLOAD
002478: 25,2633           00001                                    0
002479: 25,2634           01101                                    RRTARGET
002480: 25,2635           74214                           BON      VXSC
002481: 25,2636           00311                                    RRNBSW
002482: 25,2637           52651                                    DONBRD                                #  TARGET IN NAV-BASE COORDINATES
002483: 25,2640           01765                                    MLOSV                                 #  MULTIPLY UNIT LOS BY MAGNITUDE
002484: 25,2641           63372                           VSL1     PDVL
002485: 25,2642           01757                                    LOSVEL
002486: 25,2643           53361                           VXSC     VAD                                   #  ADD ONE SECOND RELATIVE VELOCITY TO LOS
002487: 25,2644           13061                                    MCTOMS
002488: 25,2645           45056                           UNIT     CALL
002489: 25,2646           47522                                    CDUTRIG
002490: 25,2647           77624                           CALL
002491: 25,2650           47663                                    *SMNB*
002492:
002493: 25,2651           14041        DONBRD             STODL    32D
002494: 25,2652           01110                                    TANG       +1
002495: 25,2653           41434                           RTB      PUSH                                  #  SHAFT COMMAND = V(32D).(COS(S), 0,
002496: 25,2654           21606                                    CDULOGIC                              #       (-SIN(S)).
002497: 25,2655           65356                           SIN      PDDL                                  #  SIN(S) TO 0 AND COS(S) TO 2.
002498: 25,2656           41546                           COS      PUSH
002499: 25,2657           65205                           DMP      PDDL
002500: 25,2660           00041                                    32D
002501: 25,2661           00045                                    36D
002502: 25,2662           44205                           DMP      BDSU
002503: 25,2663           00001                                    0
002504: 25,2664           77626                           STADR
002505: 25,2665           76667                           STORE    TANG       +1                         #  SHAFT COMMAND
002506:
002507: 25,2666           47135                           SLOAD    RTB
002508: 25,2667           01107                                    TANG
002509: 25,2670           21606                                    CDULOGIC
002510: 25,2671           71406                           PUSH     COS                                   #  COS(T) TO 4.
002511: 25,2672           73525                           PDDL     SIN
002512: 25,2673           41206                           PUSH     DMP                                   #  SIN(T) TO 6.
002513: 25,2674           00003                                    2


002515: 25,2675           65352                           SL1      PDDL                                  #  DEFINE VECTOR U = (SIN(T)SIN(S))
002516: 25,2676           00005                                    4                                     #                    (COS(T)      )
002517: 25,2677           41325                           PDDL     DMP                                   #                    (SIN(T)COS(S))
002518: 25,2700           00007                                    6
002519: 25,2701           00001                                    0
002520: 25,2702           55552                           SL1      VDEF
002521: 25,2703           77441                           DOT      EXIT                                  #  DOT U WITH LOS TO GET TRUNNION COMMAND.
002522: 25,2704           00041                                    32D
002523:


002525:                                                                                                  #           AT THIS POINT WE HAVE A ROTATION VECTOR IN DISH AXES LYING IN THE TS PLANE. CONVERT THIS TO A
002526:                                                                                                  #  COMMANDED RATE AND ENABLE THE TRACKER IF WE ARE WITHIN .5 DEGREES OF THE TARGET.
002527:
002528: 25,2705           40154                           CS       MPAC                                  #  DOT WAS NEGATIVE OF DESIRED ANGLE.
002529: 25,2706           00006                           EXTEND
002530: 25,2707           73055                           MP       RDESGAIN                              #  SCALING ON INPUT ANGLE WAS 4 RADIANS.
002531: 25,2710           55351                           TS       TRUNNCMD                              #  TRUNNION COMMAND FOR RROUT
002532: 25,2711           40110                           CS       RADMODES                              #  A RELAY IN THE RR REVERSES POLARITY OF
002533: 25,2712           74731                           MASK     BIT12                                 #  THE SHAFT COMMANDS IN MODE 2 SO THAT A
002534: 25,2713           00006                           EXTEND                                         #  POSITIVE TORQUE APPLIED TO THE SHAFT
002535: 25,2714           12717                           BZF      +3                                    #  GYRO CAUSES A POSITIVE CHANGE IN THE
002536: 25,2715           31107                           CA       TANG       +1                         #  SHAFT ANGLE. COMPENSATE FOR THIS SWITCH
002537: 25,2716           12720                           TCF      +2                                    #  BY CHANGING THE POLARITY OF OUR COMMAND.
002538: 25,2717           41107                 +3        CS       TANG       +1
002539: 25,2720           00006                           EXTEND
002540: 25,2721           73055                           MP       RDESGAIN                              #  SCALING ON INPUT ANGLE WAS 4 RADIANS.
002541: 25,2722           55352                           TS       SHAFTCMD                              #  SHAFT COMMAND FOR RROUT
002542: 25,2723           06060                           TC       INTPRET
002543:
002544: 25,2724           41345                           DLOAD    DMP
002545: 25,2725           00003                                    2                                     #  COS(S).
002546: 25,2726           00005                                    4                                     #  COS(T).
002547: 25,2727           65352                           SL1      PDDL                                  #  Z COMPONENT OF URR.
002548: 25,2730           65276                           DCOMP    PDDL                                  #  Y COMPONENT = -SIN(T)
002549: 25,2731           00001                                    0                                     #  SIN(S).
002550: 25,2732           72405                           DMP      SL1
002551: 25,2733           00005                                    4                                     #  COS(T).
002552: 25,2734           43066                           VDEF     BON                                   #  FORM URR IN NB AXES.
002553: 25,2735           00311                                    RRNBSW                                #  BYPASS NBSM CONVERSION IN VERB 41.
002554: 25,2736           52741                                    +3
002555: 25,2737           77624                           CALL
002556: 25,2740           47665                                    *NBSM*                                #  GET URR IN SM AXES.
002557: 25,2741           77441                           DOT      EXIT
002558: 25,2742           01101                                    RRTARGET                              #  GET COSINE OF ANGLE BETWEEN RR AND LOS.
002559:
002560: 25,2743           00006                           EXTEND
002561: 25,2744           43057                           DCS      COS1/2DG
002562: 25,2745           20155                           DAS      MPAC                                  #  DIFFERENCE OF COSINES, SCALED B-2.
002563: 25,2746           10154                           CCS      MPAC
002564: 25,2747           34746                           CA       ZERO                                  #  IF COS ERROR BIGGER, ERROR IS SMALLER.
002565: 25,2750           12752                           TCF      +2
002566: 25,2751           34744                           CA       ONE
002567: 25,2752           54155                           TS       MPAC       +1                         #  ZERO IF RR IS POINTED OK, ONE IF NOT.


002569:                                                                                                  #           SEE IF TRACKER SHOULD BE ENABLED OR DISABLED.
002570:
002571: 25,2753           10110                           CCS      RADMODES                              #  IF CONTINUOUS DESIGNATE WANTED, PUT OUT
002572: 25,2754           12757                           TCF      SIGNLCHK                              #  COMMANDS WITHOUT CHECKING MAGNITUDE OF
002573: 25,2755           12757                           TCF      SIGNLCHK                              #  ERROR SIGNALS
002574: 25,2756           13007                           TCF      DORROUT
002575: 25,2757           10155        SIGNLCHK           CCS      MPAC       +1                         #  SEE IF BOTH AXES WERE WITHIN .5 DEGS.
002576: 25,2760           12770                           TCF      DGOODCHK
002577: 25,2761           40074                           CS       STATE                                 #  IF WITHIN LIMITS AND NO LOCK-ON WANTED,
002578: 25,2762           74740                           MASK     LOKONBIT                              #  PROBLEM IS FINISHED.
002579: 25,2763           10000                           CCS      A
002580: 25,2764           12775                           TCF      RRDESDUN
002581:
002582: 25,2765           34727                           CAF      BIT14                                 #  ENABLE THE TRACKER.
002583: 25,2766           00006                           EXTEND
002584: 25,2767           05012                           WOR      CHAN12
002585:
002586: 25,2770           34741        DGOODCHK           CAF      BIT4                                  #  SEE IF DATA GOOD RECEIVED YET
002587: 25,2771           00006                           EXTEND
002588: 25,2772           02033                           RAND     CHAN33
002589: 25,2773           10000                           CCS      A
002590: 25,2774           13007                           TCF      DORROUT
002591:
002592: 25,2775           44733        RRDESDUN           CS       BIT10                                 #  WHEN PROBLEM DONE, REMOVE BIT 10 SO NEXT
002593: 25,2776           70110                           MASK     RADMODES                              #  WAITLIST TASK WE WILL GO TO RGOODEND.
002594: 25,2777           00004                           INHINT
002595: 25,3000           54110                           TS       RADMODES
002596:
002597: 25,3001           05520                           TC       DOWNFLAG                              #  RESET LOSCMFLG TO PREVENT A
002598: 25,3002           00041                           ADRES    LOSCMFLG                              #  RECOMPUTATION OF LOS AFTER DATA GOOD
002599: 25,3003           44743                           CS       BIT2                                  #  TURN OFF ENABLE RR ERROR COUNTER
002600: 25,3004           00006                           EXTEND
002601: 25,3005           03012                           WAND     CHAN12
002602: 25,3006           15146                           TCF      ENDOFJOB                              #  WITH ECTR DISABLED.
002603:
002604: 25,3007           30076        DORROUT            CA       FLAGWRD2                              #  IF BOTH LOSCMFLAG AND SEARCH FLAG ARE
002605: 25,3010           77733                           MASK     BIT12,14                              #  ZERO, BYPASS VELOCITY ADJUSTMENT TO LOS
002606: 25,3011           00006                           EXTEND
002607: 25,3012           13031                           BZF      NOTP20
002608: 25,3013           06060                           TC       INTPRET
002609: 25,3014           74375                           VLOAD    VXSC                                  #  MULTIPLY UNIT LOS BY MAGNITUDE
002610: 25,3015           01101                                    RRTARGET
002611: 25,3016           01765                                    MLOSV
002612: 25,3017           41572                           VSL1     PUSH
002613: 25,3020           74375                           VLOAD    VXSC                                  #  ADD .5 SEC. OF VELOCITY
002614: 25,3021           01757                                    LOSVEL                                #  TO LOS VECTOR
002615: 25,3022           13061                                    MCTOMS
002616: 25,3023           53362                           VSR1     VAD
002617: 25,3024           77656                           UNIT
002618: 25,3025           15101                           STODL    RRTARGET                              #  STORE VELOCITY-CORRECTED LOS (UNIT)


002620: 25,3026           00045                                    36D
002621: 25,3027           01765                           STORE    MLOSV                                 #  AND STORE MAGNITUDE
002622: 25,3030           77776                           EXIT
002623: 25,3031           00004        NOTP20             INHINT
002624: 25,3032           40110                           CS       RADMODES                              #  PUT OUT COMMAND UNLESS MONITOR
002625: 25,3033           74732                           MASK     REPOSBIT                              #  REPOSITION HAS TAKEN OVER.
002626: 25,3034           10000                           CCS      A
002627: 25,3035           02277                           TC       RROUT
002628:
002629: 25,3036           30076                           CA       FLAGWRD2
002630: 25,3037           74731                           MASK     LOSCMBIT                              #  IF LOSCMFLG NOT SET, DON'T TEST
002631: 25,3040           00006                           EXTEND                                         #  LOS COUNTER
002632: 25,3041           15146                           BZF      ENDOFJOB
002633: 25,3042           11456                           CCS      LOSCOUNT                              #  TEST LOS COUNTER TO SEE IF TIME TO GET
002634: 25,3043           03053                           TC       DODESEND                              #  A NEW LOS
002635: 25,3044           06050                           TC       KILLTASK                              #  YES - KILL TASK WHICH SCHEDULES DODES
002636: 25,3045           52573                           CADR     DESLOOP    +2
002637: 25,3046           00003                           RELINT
002638: 25,3047           10067                           CCS      NEWJOB
002639: 25,3050           05113                           TC       CHANG1
002640: 25,3051           04607                           TC       BANKCALL
002641: 25,3052           51015                           CADR     R21LEM2
002642:
002643:
002644: 25,3053           55456        DODESEND           TS       LOSCOUNT
002645: 25,3054           05146                           TC       ENDOFJOB
002646:
002647:
002648: 25,3055           21122        RDESGAIN           DEC      .53624                                #  TRIES TO NULL .5 ERROR IN .5 SEC.
002649: 25,3056     7733               BIT12,14           EQUALS   PRIO24                                #  OCT 24000
002650: 25,3056           07777 33005  COS1/2DG           2DEC     .999961923 B-2                        #  COSINE OF 0.5 DEGREES.
002651:
002652: 25,3060           00310 00000  MCTOMS             2DEC     100        B-13
002653:


002655:                                                                                                  #  RADAR READ INITIALIZATION
002656:
002657:                                                                                                  #  THE FOLLOWING ROUTINES MUST BE CALLED BY BANKCALL
002658:
002659: 25,3062           03076        LRALT              TC       INITREAD
002660: 25,3063           00017        ALLREAD            OCT      17
002661:
002662: 25,3064           03076        LRVELZ             TC       INITREAD
002663: 25,3065           00016                           OCT      16
002664:
002665: 25,3066           03076        LRVELY             TC       INITREAD
002666: 25,3067           00015                           OCT      15
002667:
002668: 25,3070           03076        LRVELX             TC       INITREAD
002669: 25,3071           00014                           OCT      14
002670:
002671: 25,3072           03076        RRRDOT             TC       INITREAD
002672: 25,3073           00012                           OCT      12
002673:
002674: 25,3074           03076        RRRANGE            TC       INITREAD
002675: 25,3075           00011                           OCT      11
002676:
002677:
002678: 25,3076           00004        INITREAD           INHINT
002679: 25,3077           50002                           INDEX    Q
002680: 25,3100           30000                           CA       0
002681: 25,3101           03110                           TC       PRERADAR
002682: 25,3102           34742                           CA       BIT3
002683: 25,3103           55105                           TS       TIMEHOLD   +1                         #  MIDPOINT OF READ IS ABOUT 40 MS AFTER
002684: 25,3104           00006                           EXTEND                                         #  START OF READ
002685: 25,3105           30025                           DCA      TIME2
002686: 25,3106           21105                           DAS      TIMEHOLD
002687:
002688: 25,3107           12357                           TCF      ROADBACK
002689:
002690:
002691: 25,3110           55077        PRERADAR           TS       RADUSE                                #  INDICATE RADAR READ ROUTINES IN USE.
002692: 25,3111           34746                           CA       ZERO
002693: 25,3112           55110                           TS       NSAMP
002694: 25,3113           55100                           TS       SAMPLSUM
002695: 25,3114           55101                           TS       SAMPLSUM   +1
002696: 25,3115           55104                           TS       TIMEHOLD
002697:
002698: 25,3116           33136                           CA       DGBITS
002699: 25,3117           00006                           EXTEND
002700: 25,3120           02033                           RAND     CHAN33
002701: 25,3121           55112                           TS       OLDATAGD
002702:
002703: 25,3122           43136                           CS       DGBITS                                #  RESET DATA GOOD BITS OF RADMODES
002704: 25,3123           70110                           MASK     RADMODES


002706: 25,3124           54110                           TS       RADMODES
002707:
002708: 25,3125           43063                           CS       ALLREAD
002709: 25,3126           00006                           EXTEND
002710: 25,3127           03013                           WAND     CHAN13                                #  CLEAR ALL RADAR BITS PRIOR TO READ
002711:
002712: 25,3130           00006                           EXTEND
002713: 25,3131           22070                           QXCH     RUPTREG1
002714:
002715: 25,3132           31077                           CA       RADUSE
002716: 25,3133           04665                           TC       IBNKCALL
002717: 25,3134           36000                           CADR     RADSTART
002718: 25,3135           00070                           TC       RUPTREG1
002719:
002720:
002721: 25,3136           00230        DGBITS             OCT      230                                   #  POSITION OF DATA GOOD BITS IN CHANNEL 33
002722: 25,3137           00014        VBITS              OCT      14                                    #  VSELECT = 0 BEFORE X READ
002723: 25,3140           00016                           OCT      16                                    #  VSELECT = 1 BEFORE Z READ
002724: 25,3141           00015                           OCT      15                                    #  VSELECT = 2 BEFORE Y READ
002725:
002726:
002727: 25,3142           40107        R12READ            CS       FLGWRD11
002728: 25,3143           74733                           MASK     NOLRRBIT                              #  IF NOLRREAD FLAG IS SET , BYPASS R12
002729: 25,3144           00006                           EXTEND
002730: 25,3145           15263                           BZF      TASKOVER
002731:
002732: 25,3146           40107        R12RDSET           CS       FLGWRD11                              #  STOP R12 FROM
002733: 25,3147           74742                           MASK     R12RDBIT                              #    ATTEMPTING UPDATE
002734: 25,3150           26107                           ADS      FLGWRD11                              #        BEFORE R12 READS ARE DONE
002735:
002736: 25,3151           51462                           INDEX    VSELECT
002737: 25,3152           33137                           CA       VBITS
002738: 25,3153           03110                           TC       PRERADAR
002739: 25,3154           36263                           CA       SIX                                   #  RADAR RUPT USES THIS FOR R12 READ
002740: 25,3155           55110                           TS       NSAMP
002741: 25,3156           05263                           TC       TASKOVER
002742:


002744:                                                                                                  #  RADAR RUPT READER (R20)
002745:
002746:                                                                                                  #  THIS ROUTINE, WHICH IS INITIATED BY A RADAR RUPT, PROCESSES THE RADAR DATA AND UPDATES THE APPROPRIATE
002747:                                                                                                  #  DSKY LIGHTS.
002748:
002749: 25,2000                                           SETLOC   RADARUPT
002750: 25,2000                                           BANK
002751:
002752: 25,3157                                           COUNT*   $$/RRUPT
002753:
002754: 25,3157  E7,1453                                  EBANK=   TTOGO
002755:
002756: 25,3157           00006        RADAREAD           EXTEND                                         #  CONTINUATION OF INTERRUPT LEAD-IN.
002757: 25,3160           04007                           ROR      SUPERBNK                              #  SUPERBNK MUST BE SAVED BECAUSE RUPT
002758: 25,3161           54016                           TS       BANKRUPT                              #  MAY EXIT VIA TASKOVER.
002759: 25,3162           00006                           EXTEND
002760: 25,3163           22012                           QXCH     QRUPT
002761:
002762:
002763: 25,3164           34750                           CA       SEVEN                                 #  READ AND STORE RADAR SELECT BITS
002764: 25,3165           00006                           EXTEND
002765: 25,3166           02013                           RAND     CHAN13
002766: 25,3167           55332                           TS       RADBITS
002767:
002768: 25,3170           00006                           EXTEND                                         #  IF RADAR SELECT BITS ARE ZERO, ALARM
002769: 25,3171           13177                           BZF      BADRUPT                               #  WITHOUT READING DATA
002770:
002771: 25,3172           30046                           CA       RNRAD                                 #  STORE RAW DATA FOR DOWNLINK.
002772: 25,3173           51332                           INDEX    RADBITS
002773: 25,3174           55327                           TS       DNRRANGE   -1
002774:
002775: 25,3175           11077                           CCS      RADUSE                                #  IF RADUSE IS ZERO, THIS IS A BAD RUPT
002776: 25,3176           13203                           TCF      WHICHRAD
002777:
002778: 25,3177           55077        BADRUPT            TS       RADUSE
002779: 25,3200           05571                           TC       ALARM
002780: 25,3201           00520                           OCT      520
002781: 25,3202           05272                           TC       RESUME
002782:
002783: 25,3203           46266        WHICHRAD           CS       THREE                                 #  IF RADBITS IS LESS THAN THREE,
002784: 25,3204           61332                           AD       RADBITS                               #  THE RENDEZVOUS RADAR IS BEING READ.
002785: 25,3205           00006                           EXTEND
002786: 25,3206           63273                           BZMF     RENDRAD
002787:
002788: 25,3207           40101        LANDRAD            CS       FLAGWRD5                              #  THE LANDING RADAR IS BEING READ
002789: 25,3210           74732                           MASK     R77FLBIT
002790: 25,3211           00006                           EXTEND                                         #  IF R77 IS RUNNING, EXIT HERE
002791: 25,3212           13253                           BZF      R77EXIT
002792:
002793: 25,3213           44750                           CS       SEVEN                                 #  IF RADBITS IS SEVEN, THE LANDING


002795: 25,3214           61332                           AD       RADBITS                               #  RADAR ALITUDE IS BEING READ
002796: 25,3215           00006                           EXTEND
002797: 25,3216           13267                           BZF      LRHEIGHT
002798:
002799: 25,3217           34724        LRSPEED            CA       POSMAX                                #  DECODE THE 15 BIT READING AND
002800: 25,3220           70046                           MASK     RNRAD                                 #  SUBTRACT THE BIAS.
002801: 25,3221           62000                           AD       LVELBIAS
002802: 25,3222           54064                           TS       ITEMP4
002803: 25,3223           54001                           TS       L
002804: 25,3224           30046                           CA       RNRAD
002805: 25,3225           60000                           DOUBLE
002806: 25,3226           74744                           MASK     BIT1
002807: 25,3227           54063                           TS       ITEMP3
002808: 25,3230           21101                           DAS      SAMPLSUM                              #  ACCUMULATE THE READING
002809:
002810: 25,3231           34735                           CA       BIT8                                  #  VOLOCITY DATA GOOD BIT
002811: 25,3232           54061        DGCHECK            TS       ITEMP1
002812: 25,3233           33136        DGCHECK2           CA       DGBITS                                #  UPDATE THE STATUS OF THE DATA GOOD BITS
002813: 25,3234           00006                           EXTEND
002814: 25,3235           02033                           RAND     CHAN33
002815: 25,3236           57112                           XCH      OLDATAGD
002816: 25,3237           70061                           MASK     ITEMP1
002817: 25,3240           54001                           TS       L                                     #  OLD STATUS
002818: 25,3241           30061                           CA       ITEMP1
002819: 25,3242           71112                           MASK     OLDATAGD                              #  CURRENT STATUS
002820: 25,3243           60001                           AD       L
002821: 25,3244           10000                           CCS      A                                     #  BOTH SHOULD BE ZERO
002822: 25,3245           13256                           TCF      BADRAD                                #  DATA GOOD NOT PRESENT
002823:
002824: 25,3246           11110        GOODRAD            CCS      NSAMP                                 #  TEST FOR R12
002825: 25,3247           13403                           TCF      R12EXIT
002826:
002827: 25,3250           52064                           DXCH     ITEMP3                                #  STORE DATA FOR CALLING ROUTINE
002828: 25,3251           53101                           DXCH     SAMPLSUM
002829: 25,3252           03651                           TC       RADLITES                              #  UPDATE DSKY LIGHTS.


002831:
002832: 25,3253           34746        R77EXIT            CA       ZERO                                  #  ZERO RADUSE
002833: 25,3254           55077                           TS       RADUSE
002834: 25,3255           03614                           TC       RGOODEND   -2
002835:
002836:
002837: 25,3256           40110        BADRAD             CS       RADMODES                              #  UPDATE RADMODES BIT ONLY IF DATA BAD
002838: 25,3257           70061                           MASK     ITEMP1
002839: 25,3260           26110                           ADS      RADMODES
002840:
002841: 25,3261           11110                           CCS      NSAMP                                 #  TEST FOR R12
002842: 25,3262           13403                           TCF      R12EXIT
002843:
002844: 25,3263           03651                           TC       RADLITES                              #  UPDATE DSKY LIGHTS


002846: 25,3264           34746        RRBADEND           CA       ZERO                                  #  ZERO RADUSE


002848: 25,3265           55077                           TS       RADUSE
002849: 25,3266           03621                           TC       RDBADEND   -2
002850:
002851:
002852: 25,3267           34740        LRHEIGHT           CA       BIT5                                  #  DATA GOOD BIT FOR ALTITUDE
002853: 25,3270           54061                           TS       ITEMP1
002854: 25,3271           34734                           CA       BIT9                                  #  LO SCALE BIT FOR LR
002855: 25,3272           03316                           TC       SCALECHK
002856:
002857: 25,3273           00006        RENDRAD            EXTEND
002858: 25,3274           31454                           DCA      TTOGO                                 #  LOAD TIME TO TIG
002859: 25,3275           53272                           DXCH     TTOTIG                                #  FOR R65 RADAR READING.
002860:
002861: 25,3276           34732                           CA       REPOSBIT                              #  MAKE SURE ANTENNA HAS NOT
002862: 25,3277           70110                           MASK     RADMODES                              #  GONE OUT OF LIMITS.
002863: 25,3300           10000                           CCS      A
002864: 25,3301           13264                           TCF      RRBADEND
002865:
002866: 25,3302           40110                           CS       RADMODES                              #  BE SURE RR CDU HASN'T FAILED.
002867: 25,3303           74736                           MASK     RCDUFBIT
002868: 25,3304           10000                           CCS      A
002869: 25,3305           13264                           TCF      RRBADEND
002870:
002871: 25,3306           34741                           CA       BIT4                                  #  DATA GOOD BIT FOR RR
002872: 25,3307           54061                           TS       ITEMP1
002873:
002874: 25,3310           34744                           CA       BIT1                                  #  TEST FOR RANGE OR RANGE RATE
002875: 25,3311           71332                           MASK     RADBITS
002876: 25,3312           54002                           TS       Q                                     #  SAVE FOR LATER TESTING
002877: 25,3313           00006                           EXTEND
002878: 25,3314           13325                           BZF      RADIN                                 #  IF ROOT, READ DATA
002879:
002880: 25,3315           34742                           CA       BIT3                                  #  LO SCALE BIT FOR RR.
002881: 25,3316           54001        SCALECHK           TS       L
002882: 25,3317           30110                           CA       RADMODES                              #  TEST THE SCALE BIT SPECIFIED IN L
002883: 25,3320           00006                           EXTEND                                         #  TO SEE IF IT IS THE SMAE AS LAST
002884: 25,3321           06033                           RXOR     CHAN33                                #  TIME.
002885: 25,3322           70001                           MASK     L                                     #  IF BIT IS THE SMAE IN RADMODES AND
002886: 25,3323           10000                           CCS      A                                     #  CHAN33, THEN A WILL BE ZERO
002887: 25,3324           03364                           TC       SCALCHNG                              #  SCALE CHANGED
002888:
002889: 25,3325           34724        RADIN              CA       POSMAX                                #  UNPACK 15 BIT RADAR READING
002890: 25,3326           70046                           MASK     RNRAD
002891: 25,3327           54064                           TS       ITEMP4
002892:
002893: 25,3330           30046                           CA       RNRAD
002894: 25,3331           60000                           DOUBLE
002895: 25,3332           74744                           MASK     BIT1
002896: 25,3333           54063                           TS       ITEMP3
002897:


002899: 25,3334           10002                           CCS      Q                                     #  TEST FOR RR RANGE RATE (Q = 0)
002900: 25,3335           13342                           TCF      SCALADJ                               #  RANGE OR LR HEIGHT . TEST SCALE
002901:
002902: 25,3336           00006                           EXTEND                                         #  RR RANGE RATE - SUBTRACT BIAS
002903: 25,3337           42002                           DCS      RDOTBIAS
002904: 25,3340           20064        DASAMPL            DAS      ITEMP3
002905: 25,3341           13233                           TCF      DGCHECK2                              #  TEST DATA GOOD
002906:
002907: 25,3342           30110        SCALADJ            CA       RADMODES                              #  TEST SCALE BIT
002908: 25,3343           70001                           MASK     L
002909: 25,3344           00006                           EXTEND
002910: 25,3345           13233                           BZF      DGCHECK2                              #  LO SCALE
002911:
002912: 25,3346           74742                           MASK     BIT3                                  #  HI SCALE - TEST FOR LR
002913: 25,3347           00006                           EXTEND                                         #  IF BIT3 = 0,THEN IT IS LR
002914: 25,3350           13357                           BZF      LRSCK
002915:
002916: 25,3351           52064                           DXCH     ITEMP3                                #  RESCALE RR DATA TO LO SCALING
002917: 25,3352           20001                           DDOUBL                                         #  MULTIPLY BY 8.
002918: 25,3353           20001                           DDOUBL
002919: 25,3354           20001                           DDOUBL
002920: 25,3355           52064                           DXCH     ITEMP3
002921: 25,3356           13233                           TCF      DGCHECK2
002922:
002923: 25,3357           00006        LRSCK              EXTEND                                         #  RESCALE LR DATA TO LO SCALING
002924: 25,3360           30064                           DCA      ITEMP3                                #  MULTIPLY BY 5.
002925: 25,3361           20001                           DDOUBL
002926: 25,3362           20001                           DDOUBL
002927: 25,3363           13340                           TCF      DASAMPL
002928:
002929:
002930: 25,3364           30110        SCALCHNG           CA       RADMODES
002931: 25,3365           00006                           EXTEND                                         #  INVERT SCALE BIT IN RADMODES
002932: 25,3366           06001                           RXOR     LCHAN
002933: 25,3367           54110                           TS       RADMODES
002934:
002935: 25,3370           11110                           CCS      NSAMP                                 #  TEST FOR R12
002936: 25,3371           13401                           TCF      R12SCHNG


002938:
002939: 25,3372           05506                           TC       UPFLAG                                #  SET RNGSCFLG FOR LRS24.1
002940: 25,3373           00120                           ADRES    RNGSCFLG
002941:
002942: 25,3374           33136                           CA       DGBITS                                #  UPDATE DATA GOOD BITS
002943: 25,3375           00006                           EXTEND
002944: 25,3376           02033                           RAND     CHAN33
002945: 25,3377           55112                           TS       OLDATAGD
002946: 25,3400           13264                           TCF      RRBADEND
002947:
002948:
002949: 25,3401           55110        R12SCHNG           TS       NSAMP                                 #  UPDATE NSAMP AND IGNORE READING.


002951: 25,3402           13414                           TCF      READVEL
002952:
002953: 25,3403           55110        R12EXIT            TS       NSAMP                                 #  UPDATE NSAMP
002954: 25,3404           00006                           EXTEND
002955: 25,3405           13445                           BZF      STORVEL
002956:
002957: 25,3406           67766                           AD       NEG3
002958: 25,3407           00006                           EXTEND
002959: 25,3410           13425                           BZF      STORALT
002960:
002961: 25,3411           67770                           AD       NEGONE
002962: 25,3412           00006                           EXTEND
002963: 25,3413           13423                           BZF      READALT
002964: 25,3414           44750        READVEL            CS       SEVEN
002965: 25,3415           00006                           EXTEND
002966: 25,3416           03013                           WAND     CHAN13
002967: 25,3417           31077                           CA       RADUSE
002968: 25,3420           04665        READALT2           TC       IBNKCALL
002969: 25,3421           36000                           CADR     RADSTART


002971: 25,3422           05272                           TC       RESUME
002972:
002973:
002974: 25,3423           33063        READALT            CA       ALLREAD                               #  SET UP LR ALTITUDE READ
002975: 25,3424           13420                           TCF      READALT2
002976:
002977: 25,3425           52064        STORALT            DXCH     ITEMP3
002978: 25,3426           53655                           DXCH     HMEAS                                 #  STORE ALT IN HMEAS
002979:
002980: 25,3427           40110                           CS       RADMODES                              #  TEST DATA GOOD
002981: 25,3430           74740                           MASK     BIT5
002982: 25,3431           00006                           EXTEND
002983: 25,3432           13442                           BZF      HBAD                                  #  DATA GOOD NOT PRESENT
002984:
002985: 25,3433           11674                           CCS      STILBADH                              #  IF DATA JUST GOOD,OR IG RESTART JUST
002986: 25,3434           13443                           TCF      HSTILBAD                              #  OCCURRED,WAIT
002987:
002988: 25,3435           40107                           CS       FLGWRD11                              #  SET FLAG FORR12.
002989: 25,3436           74741                           MASK     RNGEDBIT                              #  (CANNOT USE UPFLAG BECAUSE ITEMP1 IS
002990: 25,3437           26107                           ADS      FLGWRD11                              #    DESTROYED)
002991: 25,3440           03651        ALTEXIT            TC       RADLITES


002993: 25,3441           13414                           TCF      READVEL
002994:
002995: 25,3442           34743        HBAD               CA       TWO                                   #  SET STILBADH FOR FOUR SECOND DELAY
002996: 25,3443           55674        HSTILBAD           TS       STILBADH
002997: 25,3444           13440                           TCF      ALTEXIT
002998:
002999: 25,3445           40110        STORVEL            CS       RADMODES                              #  TEST DATA GOOD
003000: 25,3446           74735                           MASK     BIT8
003001: 25,3447           00006                           EXTEND
003002: 25,3450           13506                           BZF      VBAD                                  #  DATA GOOD NOT PRESENT
003003:


003005: 25,3451           11675                           CCS      STILBADV
003006: 25,3452           13507                           TCF      VSTILBAD
003007:
003008: 25,3453           40107                           CS       FLGWRD11                              #  DATA IS GOOD, SET FLAG FOR R12
003009: 25,3454           74736                           MASK     VELDABIT                              #  (CANNOT USE UPFLAG BECAUSE ITEMP1 IS
003010: 25,3455           26107                           ADS      FLGWRD11                              #    DESTROYED)
003011: 25,3456           11462        R12DL              CCS      VSELECT                               #  UPDATE VSELECT
003012: 25,3457           13461                           TCF      +2
003013: 25,3460           34743                           CA       TWO
003014: 25,3461           55462                           TS       VSELECT
003015:
003016: 25,3462           53101                           DXCH     SAMPLSUM                              #  STORE VEL DATA IN VMEAS
003017: 25,3463           53653                           DXCH     VMEAS
003018:
003019: 25,3464           00006                           EXTEND
003020: 25,3465           31655                           DCA      HMEAS                                 #  STORE HMEAS FOR DOWNLINK
003021: 25,3466           53777                           DXCH     HMEASDL
003022:
003023: 25,3467           00006                           EXTEND
003024: 25,3470           31561                           DCA      PIPTIME1                              #  STORE TIME FOR DOWNLINK
003025: 25,3471           53755                           DXCH     MKTIME
003026:
003027: 25,3472           00006                           EXTEND
003028: 25,3473           31156                           DCA      CDUTEMPY                              #  STORE CDUY,CDUZ FOR DOWNLINK
003029: 25,3474           53460                           DXCH     AIG
003030:
003031: 25,3475           31154                           CA       CDUTEMPX                              #  STORE CDUX FOR LINK
003032: 25,3476           55461                           TS       AOG
003033:
003034: 25,3477           03651                           TC       RADLITES                              #  UPDATE DSKY VEL LIGHT


003036: 25,3500           34746                           CA       ZERO
003037: 25,3501           55077                           TS       RADUSE
003038:
003039: 25,3502           44742        OKUPDATE           CS       R12RDBIT                              #  R12 READ IS DONE SO ALLOW R12 UPDATE
003040: 25,3503           70107                           MASK     FLGWRD11
003041: 25,3504           54107                           TS       FLGWRD11
003042:
003043: 25,3505           05272                           TC       RESUME
003044:
003045: 25,3506           34743        VBAD               CA       TWO
003046: 25,3507           55675        VSTILBAD           TS       STILBADV
003047: 25,3510           13456                           TCF      R12DL
003048:


003050:                                                                                                  #           CODING TO PROTECT CHANNEL 13 WILL RADAR READ IS IN CRITICAL PERIOD
003051:
003052: 17,2000                                           SETLOC   C13BANK
003053: 17,2000                                           BANK
003054:
003055: 17,2000           54002        RADSTART           TS       Q
003056: 17,2001           00006                 +1        EXTEND
003057: 17,2002           00004                           READ     LOSCALAR                              #  READ PRESENT TIME
003058: 17,2003           54001                           TS       L
003059:
003060: 17,2004           74337                           MASK     LOW5                                  #  ONLY THE LOW 5 BITS MATTER
003061: 17,2005           40000                           COM
003062: 17,2006           64737                           AD       BIT6                                  #  COMPUTE DELTA TIME TO NEXT T5 TICK
003063: 17,2007           74337                           MASK     LOW5
003064: 17,2010           55270                           TS       RADDEL
003065:
003066: 17,2011           67767                           AD       NEG2                                  #  IF A TICKING OF T5 IS NEAR, WAIT UNTIL
003067: 17,2012           00006                           EXTEND                                         #  IT HAS TICKED.  THE MAX DELAY HERE WILL
003068: 17,2013           62001                           BZMF     RADSTART   +1                         #  BE 937.5 MICROSECONDS
003069:
003070: 17,2014           30002                           CA       Q
003071: 17,2015           00006                           EXTEND                                         #  IT IS SAFE TO SET THE ACTIVITY BIT NOW
003072: 17,2016           05013                           WOR      CHAN13                                #  BECAUSE OF THE ABOVE LOOP
003073:
003074: 17,2017           40001                           CS       L
003075: 17,2020           55267                           TS       RADTIME                               #  SAVE NEGATIVE TIME OF READ
003076: 17,2021           04700                           TC       ISWRETRN
003077:
003078:
003079: 17,2022           55266        C13STAL1           TS       C13FSAV
003080:
003081: 17,2023           34741                           CA       BIT4
003082: 17,2024           00006                           EXTEND
003083: 17,2025           02013                           RAND     CHAN13
003084: 17,2026           00006                           EXTEND
003085: 17,2027           12050                           BZF      TCQSTAL                               #  IF NO RADAR ACTIVITY, RETURN
003086:
003087: 17,2030           12031        C13SLOOP           NOOP                                           #  *** NECESSARY TO PREVENT A TC TRAP ***
003088: 17,2031           00006                           EXTEND
003089: 17,2032           00004                           READ     LOSCALAR
003090: 17,2033           61267                           AD       RADTIME                               #  COMPUTE DELTA T SINCE LAST RADAR READ
003091: 17,2034           64727                           AD       HALF
003092: 17,2035           64727                           AD       HALF                                  #  CORRECT FOR TIME OVERFLOW
003093: 17,2036           56001                           XCH      L
003094:
003095: 17,2037           32053                           CA       90MSCALR
003096: 17,2040           61270                           AD       RADDEL
003097: 17,2041           00006                           EXTEND
003098: 17,2042           60001                           SU       L


003100: 17,2043           00006                           EXTEND
003101: 17,2044           62050                           BZMF     TCQSTAL                               #  FORBIDDEN  ZONE IS PAST, RETURN
003102:
003103: 17,2045           62054                           AD       -DTSCALR
003104: 17,2046           00006                           EXTEND
003105: 17,2047           62030                           BZMF     C13SLOOP                              #  IN THE FORBIDDEN PERIOD, LOOP UNTIL O.K.
003106:
003107: 17,2050           22002        TCQSTAL            LXCH     Q                                     #  ALL IS WELL, RETURN
003108: 17,2051           31266                           CA       C13FSAV
003109: 17,2052           52005                           DTCF
003110:
003111: 17,2053           00440        90MSCALR           OCT      440                                   #  90 MILLISEC IN SCALAR
003112: 17,2054           77754        -DTSCALR           OCT      77754                                 #  -5.9375 MS IN SCALAR
003113:
003114:    6000                                           SETLOC   FFTAG6
003115:    6000                                           BANK
003116:
003117:    6040           37745        C13STALL           CAF      PRIO36                                #  PRIO36 = 36000 = FCADR (17,2000)
003118:    6041           56004                           XCH      FBANK
003119:    6042           12022                           TCF      C13STAL1
003120:


003122:                                                                                                  #  THIS ROUTINE CHANGES THE LR POSITION, AND CHECKS THAT IT GOT THERE.
003123:
003124: 25,3511                                           BANK     25
003125: 25,2000                                           SETLOC   P20S1
003126: 25,2000                                           BANK
003127: 25,3511                                           COUNT*   $$/RSUB
003128: 25,3511           00004        LRPOS2             INHINT
003129:
003130: 25,3512           40110                           CS       RADMODES
003131: 25,3513           74737                           MASK     LRPOSBIT                              #  SHOW DESIRED LR POSITION IS 2
003132: 25,3514           26110                           ADS      RADMODES
003133:
003134: 25,3515           34736                           CAF      BIT7
003135: 25,3516           00006                           EXTEND
003136: 25,3517           02033                           RAND     CHAN33                                #  SEE IF ALREADY THERE.
003137: 25,3520           00006                           EXTEND
003138: 25,3521           13532                           BZF      RADNOOP
003139:
003140: 25,3522           34730                           CAF      BIT13
003141: 25,3523           00006                           EXTEND
003142: 25,3524           05012                           WOR      CHAN12                                #  COMMAND TO POSITION 2
003143: 25,3525           33565                           CAF      6SECS                                 #  START SCANNING FOR INBIT AFTER 7 SECS.
003144: 25,3526           05205                           TC       WAITLIST
003145: 25,3527  E7,1456                                  EBANK=   LOSCOUNT
003146: 25,3527           03563 52067                     2CADR    LRPOSCAN
003147:
003148: 25,3531           02357                           TC       ROADBACK
003149:
003150: 25,3532           34744        RADNOOP            CAF      ONE                                   #  NO FURTHER ACTION REQUESTED
003151: 25,3533           05205                           TC       WAITLIST
003152: 25,3534  E7,1456                                  EBANK=   LOSCOUNT
003153: 25,3534           03616 52067                     2CADR    RGOODEND
003154:
003155: 25,3536           02357                           TC       ROADBACK
003156:
003157: 25,3537           55077        LRPOSNXT           TS       SAMPLIM
003158: 25,3540           05223                           TC       FIXDELAY                              #  SCAN ONCE PER SECOND 5 TIMES MAX AFTER
003159: 25,3541           00144                           DEC      100        B-14                       #  INITIAL DELAY OF 7 SECONDS.
003160:
003161: 25,3542           34736                           CAF      BIT7                                  #  SEE IF LR POS2 IS ON
003162: 25,3543           00006                           EXTEND
003163: 25,3544           02033                           RAND     CHAN33
003164: 25,3545           00006                           EXTEND
003165: 25,3546           13555                           BZF      LASTLRDT                              #  IF THERE, WAIT FINAL SECOND FOR BOUNCE.
003166:
003167: 25,3547           11077                           CCS      SAMPLIM                               #  SEE IF MAX TIME UP.
003168: 25,3550           13537                           TCF      LRPOSNXT
003169:
003170: 25,3551           44730                           CS       BIT13                                 #  IF TIME UP, DISABLE COMMAND AND ALARM.
003171: 25,3552           00006                           EXTEND


003173: 25,3553           03012                           WAND     CHAN12
003174: 25,3554           13623                           TCF      RDBADEND
003175:
003176: 25,3555           34771        LASTLRDT           CA       2SECS                                 #  WAIT TWO SECONDS AFTER RECEIPT OF INBIT
003177: 25,3556           05226                           TC       VARDELAY                              #  TO WAIT FOR ANTENNA BOUNCE TO DIE OUT.
003178:
003179: 25,3557           44730                           CS       BIT13                                 #  REMOVE COMMAND
003180: 25,3560           00006                           EXTEND
003181: 25,3561           03012                           WAND     CHAN12
003182: 25,3562           13616                           TCF      RGOODEND
003183:
003184: 25,3563           34742        LRPOSCAN           CAF      FOUR
003185: 25,3564           13537                           TCF      LRPOSNXT
003186: 25,3565           01130        6SECS              DEC      600        B-14
003187:
003188: 25,3566           04607        LRP2COMM           TC       BANKCALL
003189: 25,3567           53511                           CADR     LRPOS2
003190: 25,3570           04607                           TC       BANKCALL
003191: 25,3571           17733                           CADR     RADSTALL
003192: 25,3572           03574                           TC       LP2ALM
003193: 25,3573           13605                           TCF      GOPINNER
003194:
003195: 25,3574           05571        LP2ALM             TC       ALARM
003196: 25,3575           00523                           OCT      523
003197: 25,3576           13605                           TCF      GOPINNER
003198:
003199: 25,3577           35007        V59GP63            CA       EBANK7
003200: 25,3600           54003                           TS       EBANK
003201: 25,3601  E7,1427                                  EBANK=   RPCRTIME
003202: 25,3601           34724                           CA       POSMAX
003203: 25,3602           55427                           TS       RPCRTIME
003204: 25,3603           44727                           CS       BIT14
003205: 25,3604           55430                           TS       RPCRTQSW
003206: 25,3605           04626        GOPINNER           TC       POSTJUMP
003207: 25,3606           21062                           CADR     PINBRNCH
003208:


003210:                                                                                                  #           SEQUENCES TO TERMINATE RR OPERATIONS.
003211:
003212: 25,3607           34736        ENDRADAR           CAF      RCDUFBIT                              #  PROLOG TO CHECK RR CDU FAIL BEFORE END.
003213: 25,3610           70110                           MASK     RADMODES
003214: 25,3611           10000                           CCS      A
003215: 25,3612           13616                           TCF      RGOODEND
003216: 25,3613           13623                           TCF      RDBADEND
003217: 25,3614           44746                 -2        CS       ZERO                                  #  RGOODEND WHEN NOT UNDER WAITLIST CONTROL
003218: 25,3615           54332                           TS       RUPTAGN
003219:
003220: 25,3616           34743        RGOODEND           CAF      TWO
003221: 25,3617           04626                           TC       POSTJUMP
003222: 25,3620           17704                           CADR     GOODEND
003223:
003224: 25,3621           44746                 -2        CS       ZERO                                  #  RDBADEND WHEN NOT UNDER WIATLIST.
003225: 25,3622           54332                           TS       RUPTAGN
003226: 25,3623           34743        RDBADEND           CAF      TWO
003227: 25,3624           04626                           TC       POSTJUMP
003228: 25,3625           17701                           CADR     BADEND
003229:
003230: 25,3626     6266               BIN3               EQUALS   THREE
003231:


003233:                                                                                                  #  PROGRAM NAME_ LPS20.1 VECTOR EXTRAPOLATION AND LOS COMPUTATION
003234:                                                                                                  #  MOD. NO.  2      BY  J.D. COYNE    SDC    DATE   12-7-66
003235:
003236:
003237:                                                                                                  #  FUNCTIONAL DESCRPIPTION_
003238:
003239:                                                                                                  #  1) EXTRAPOLATE THE LEM AND CSM VECTORS IN ACCORDANCE WITH THE TIME REFERED TO IN CALLER + 1.
003240:                                                                                                  #  2) COMPUTES THE LOS VECTOR TO THE CSM, CONVERTS IT TO STABLE MEMBER COORDINATES AND STORES IT IN RRTARGET.
003241:                                                                                                  #  3) COMPUTES THE MAGNITUDE OF THE LOS VECTOR AND STORES IT IN MLOSV
003242:
003243:
003244:                                                                                                  #  CALLING SEQUENCE       CALL
003245:                                                                                                  #                                LPS20.1
003246:
003247:                                                                                                  #  SUBROUTINES CALLED_
003248:
003249:                                                                                                  #  LEMPREC,CSMPREC
003250:
003251:
003252:                                                                                                  #  NORMAL EXIT_ RETURN TO CALLER + 2
003253:
003254:
003255:                                                                                                  #  ERROR EXITS_ NONE
003256:
003257:
003258:                                                                                                  #  ALARMS_ NONE
003259:
003260:
003261:                                                                                                  #  OUTPUT_
003262:
003263:                                                                                                  #  LOS VECTOR (HALF UNIT) IN SM COORDINATES STORED IN RRTARGET
003264:                                                                                                  #  MAGNITUDE OF THE LOS VECTOR (METERS SCALED B-29) STORED IN MSLOV
003265:                                                                                                  #  RRNBSW CLEARED
003266:
003267:
003268:                                                                                                  #  INITIALIZED ERASABLE
003269:
003270:                                                                                                  #  TDEC1 MUST CONTAIN THE TIME FOR EXTRAPOLATION
003271:                                                                                                  #  SEE ORBITAL INTEGRATION ROUTINE
003272:
003273:
003274:                                                                                                  #  DEBRIS_
003275:
003276:                                                                                                  #  MPAC DESTROYED BY THE ROUTINE
003277:
003278: 23,2335                                           BANK     23
003279: 24,2000                                           SETLOC   P20S
003280: 24,2000                                           BANK


003282: 24,3337                                           COUNT*   $$/LPS20
003283:
003284: 24,3337           43020        LPS20.1            STQ      BOFF
003285: 24,3340           01755                                    LS21X
003286: 24,3341           01343                                    LOSCMFLG                              #  LOSCMFLG = 0 MEANS NOT CALLED BY R21
003287: 24,3342           51346                                    LMINT                                 #  SO CALL LEMCONIC TO GET LM STATE
003288: 24,3343           77614                           BON                                            #  IF IN R21 AND ON LUNAR SURFACE
003289: 24,3344           04307                                    SURFFLAG                              #  DON'T CALL LEMCONIC
003290: 24,3345           51356                                    CSMINT
003291: 24,3346           77624        LMINT              CALL
003292: 24,3347           27136                                    LEMCONIC                              #  EXTRAPOLATE LEM
003293: 24,3350           77775                           VLOAD
003294: 24,3351           00001                                    RATT
003295: 24,3352           26343                           STOVL    LMPOS                                 #  SAVE LM POSITION B-29
003296: 24,3353           00007                                    VATT
003297: 24,3354           16351                           STODL    LMVEL                                 #  SAVE LM VELOCITY B-7
003298: 24,3355           00015                                    TAT
003299: 24,3356           34041        CSMINT             STCALL   TDEC1
003300: 24,3357           27124                                    CSMCONIC                              #   EXTRAPOLATE CSM
003301: 24,3360           52375                           VLOAD    VSU                                   #  COMPUTE RELATIVE VELOCITY V(CSM) - V(LM)
003302: 24,3361           00007                                    VATT
003303: 24,3362           02351                                    LMVEL
003304: 24,3363           00017                           STORE    VELLOS
003305: 24,3364           76521                           MXV      VSL1
003306: 24,3365           01732                                    REFSMMAT
003307: 24,3366           77776                           EXIT
003308: 24,3367           06050                           TC       KILLTASK                              #  KILL THE TASK WHICH CALLS DODES SINCE
003309: 24,3370           52573                           CADR     DESLOOP    +2                         #  STORING INTO ERASEABLES DODES USES
003310: 24,3371           06060                           TC       INTPRET
003311: 24,3372           25757                           STOVL    LOSVEL
003312: 24,3373           00001                                    RATT
003313: 24,3374           43051                           VSU      BOFF
003314: 24,3375           02343                                    LMPOS
003315: 24,3376           00350                                    RNDVZFLG
003316: 24,3377           51404                                    NOTSHIFT
003317: 24,3400           00025                           STORE    RRANGE                                #  RANGE FOR POSSIBLE ALARM B-29
003318: 24,3401           54204                           BOVB     VSL
003319: 24,3402           57756                                    TCDANZIG
003320: 24,3403           20212                                    9D
003321: 24,3404           41056        NOTSHIFT           UNIT     BOVB                                  #  IF OVERFLOW , RANGE MUST BE GREATER
003322: 24,3405           50104                                    526ALARM                              #  THAN 400 N. M.
003323: 24,3406           76521                           MXV      VSL1
003324: 24,3407           01732                                    REFSMMAT                              #  CONVERT TO STABLE MEMBER
003325: 24,3410           15101                           STODL    RRTARGET
003326: 24,3411           00045                                    36D                                   #  SAVE MAGNITUDE OF LOS VECTOR FOR
003327: 24,3412           01765                           STORE    MLOSV                                 #  VELOCITY CORRECTION IN DESIGNATE
003328: 24,3413           77614                           CLRGO
003329: 24,3414           00231                                    RRNBSW
003330: 24,3415           01755                                    LS21X
003331: 24,3416                        RRANGE             EQUALS   20D


003333: 24,3416                        VELLOS             EQUALS   14D
003334:


003336:                                                                                                  #  PROGRAM NAME : LPS20.2 400 N. MI. RANGE CHECK
003337:                                                                                                  #  MOD. NO. 2   BY J.D. COYNE   SDC    DATE  12-7-66
003338:
003339:
003340:                                                                                                  #  FUNCTIONAL DESCRIPTION_
003341:
003342:                                                                                                  #  COMPARES THE MAGNITUDE OF THE LOS VECTOR TO 400 NM
003343:
003344:
003345:                                                                                                  #  CALLING SEQUENCE       CALL
003346:                                                                                                  #                                LPS20.2
003347:
003348:
003349:                                                                                                  #  SUBROUTINES CALLED_ NONE
003350:
003351:
003352:                                                                                                  #  NORMAL EXIT _ RETURN TO CALLER +1, MPAC EQ 0 (RANGE 400NM OR LESS.)
003353:
003354:
003355:                                                                                                  #  ERROR EXITS _ RETURN TO CALLER +1, MPAC EQ 1 (RANGE GREATER THAN 400NM)
003356:
003357:
003358:                                                                                                  #  ALARMS_ NONE
003359:
003360:
003361:                                                                                                  #  OUTPUT_ NONE
003362:
003363:
003364:                                                                                                  #  INITIALIZED ERASEABLE_
003365:
003366:                                                                                                  #  PDL 36D MUST CONTAIN THE MAGNITUDE OF THE VECTOR
003367:                                                                                                  #  DEBRIS
003368:
003369:                                                                                                  #  MPAC DESTROYED BY THIS ROUTINE
003370:
003371: 25,2000                                           SETLOC   P20S1
003372: 25,2000                                           BANK
003373: 25,3626                                           COUNT*   $$/LPS20
003374:
003375: 25,3626           45345        LPS20.2            DLOAD    DSU
003376: 25,3627           01765                                    MLOSV                                 #  MAGNITUDE OF LOS
003377: 25,3630           13641                                    FHNM                                  #  OVER 400NM  _
003378: 25,3631           77644                           BPL
003379: 25,3632           53635                                    TOFAR
003380: 25,3633           43535                           SLOAD    RVQ
003381: 25,3634           06505                                    ZERO/SP
003382: 25,3635           43535        TOFAR              SLOAD    RVQ
003383: 25,3636           13640                                    ONE/SP
003384: 25,3637           00001        ONE/SP             DEC      1          B-14


003386: 25,3640           26467 00000  FHNM               2DEC     740800     B-20                       #  400 NAUTICAL MILES IN METERS B-20
003387:


003389:                                                                                                  #  PROGRAM NAME: LRS22.1 (DATA READ SUBROUTINE 1)
003390:                                                                                                  #  MOD. NO.: 1       BY:  P. VOLANTE  SDC           DATE:  11-15-66
003391:
003392:
003393:                                                                                                  #  FUNCTIONAL DESCRIPTION
003394:
003395:                                                                                                  #  1) READS RENDEZVOUS RADAR RANGE AND RANGE-RATE,TRUNION AND SHAFT ANGLES,THREE CDU VALUES AND TIME. CONVERTS THIS
003396:                                                                                                  #  DATA AND LEAVES IT FOR THE MEASUREMENT INCORPORATION ROUTINE (LSR22.3). CHECKS FOR THE RR DATA GOOD DISCRETE,FOR
003397:                                                                                                  #  RR REPOSITION AND RR CDU FAIL
003398:
003399:                                                                                                  #  2) COMPARES RADAR LOS WITH LOS COMPUTED FROM STATE VECTORS TO SEE IF THEY ARE WITHIN THREE DEGREES
003400:
003401:
003402:                                                                                                  #  CALLING SEQUENCE: BANKCALL FOR LRS22.1
003403:
003404:
003405:                                                                                                  #  SUBROUTINES CALLED:
003406:
003407:                                                                                                  #         RRDOT    LPS20.1
003408:                                                                                                  #         RRRANGE  BANKCALL
003409:                                                                                                  #         RADSTALL CDULOGIC
003410:                                                                                                  #         RRNB     SMNB
003411:                                                                                                  #  NORMAL EXIT: RETURN TO CALLER+1 WITH MPAC SET TO +0
003412:
003413:
003414:                                                                                                  #  ERROR EXITS: RETURN TO CALLER+1 WITH ERROR CODE STORED IN MPAC AS FOLLOWS:
003415:
003416:                                                                                                  #               00001-ERROR EXIT 1-RR DATA NO GOOD (NO RR DATA GOOD DISCRETE OR RR CDU FAIL OR RR REPOSITION)
003417:                                                                                                  #               00002-ERROR EXIT 2-RR LOS NOT WITHIN THREE DEGREES OF LOS COMPUTED FROM STATE VECTORS
003418:
003419:
003420:                                                                                                  #  ALARMS:  521-COULD NOT READ RADAR DATA (RR DATA GOOD DISCRETE NOT PRESENT BEFORE AND AFTER READING THE RADAR)
003421:                                                                                                  #   (THIS ALARM IS ISSUED BY THE RADAREAD SUBROUTINE WHICH IS ENTERED FROM A RADARUPT)
003422:
003423:
003424:                                                                                                  #  OUTPUT: RRLOSVEC- THE RR LINE-OF-SIGHT VECTOR(USED BY LRS22.2)-A HALF-UNIT VECTOR
003425:                                                                                                  #          RM- THE RR RANGE READING(TO THE CSM) DP, IN METERS SCALED B-29(USED BY LRS22.2 AND LRS22.3)
003426:
003427:                                                                                                  #     ALL OF THE FOLLOWING OUTPUTS ARE USED BY LRS22.3:
003428:
003429:                                                                                                  #          RDOTM- THE RR RANGE-RATE READING,DP, IN METERS PER CENTISECOND, SCALED B-7
003430:                                                                                                  #          RRTRUN-RR TRUNION ANGLE,DP,IN REVOLUTIONS,SCALED B0
003431:                                                                                                  #          RRSHAFT-RR SHAFT ANGLE,DP,IN REVOLUTIONS,SCALED B0
003432:                                                                                                  #          AIG,AMG,AOG-THE CDU ANGLES,THREE SP WORDS
003433:                                                                                                  #          MKTIME-THE TIME OF THE RR READING,DP,IN CENTISECONDS
003434:
003435:
003436:                                                                                                  #  ERASABLE INITIALIZATION REQUIRED:
003437:
003438:                                                                                                  #     RNRAD,THE RADAR READ COUNTER FROM WHICH IS OBTAINED:


003440:                                                                                                  #      1)RR RANGE SCALED 9.38 FT. PER BIT ON THE LOW SCALE AND 75.04 FT. PER BIT ON THE HIGH SCALE
003441:                                                                                                  #      2)RR RANGE RATE,SCALED .6278 FT./SEC. PER BIT
003442:
003443:                                                                                                  #     THE CDU ANGLES FROM CDUX,CDUY,CDUZ AND TIME1 AND TIME2
003444:
003445:
003446:                                                                                                  #  DEBRIS:  LRS22.1X,A,L,Q,PUSHLIST
003447:
003448:
003449: 32,2362                                           BANK     32
003450: 32,2000                                           SETLOC   LRS22
003451: 32,2000                                           BANK
003452: 32,2362                                           COUNT*   $$/LRS22
003453:
003454: 32,2362           04636        LRS22.1            TC       MAKECADR
003455: 32,2363           55737                           TS       LRS22.1X
003456: 32,2364           05520                           TC       DOWNFLAG
003457: 32,2365           00120                           ADRES    RNGSCFLG
003458: 32,2366           00004                           INHINT
003459: 32,2367           34742                           CAF      BIT3
003460: 32,2370           00006                           EXTEND                                         #  GET RR RANGE SCALE
003461: 32,2371           02033                           RAND     CHAN33                                #  FROM CHANNEL 33 BIT 3
003462: 32,2372           54001                           TS       L
003463: 32,2373           44742                           CS       RRRSBIT
003464: 32,2374           70110                           MASK     RADMODES
003465: 32,2375           60001                           AD       L
003466: 32,2376           54110                           TS       RADMODES
003467: 32,2377           00003                           RELINT
003468: 32,2400           04607        READRDOT           TC       BANKCALL
003469: 32,2401           53072                           CADR     RRRDOT                                #  READ RANGE-RATE (ONE SAMPLE)
003470: 32,2402           04607                           TC       BANKCALL
003471: 32,2403           17733                           CADR     RADSTALL                              #  WAIT FOR DATA READ COMPLETION
003472: 32,2404           12560                           TCF      EREXIT1                               #  COULD NOT READ RADAR-ERROR EXIT 1
003473:
003474: 32,2405           00004                           INHINT                                         #  NO INTERRUPTS WHILE READING TIME AND CDU
003475: 32,2406           53105                           DXCH     TIMEHOLD                              #  SET MARK TIME EQUAL TO THE MID-POINT
003476: 32,2407           52162                           DXCH     MPAC       +5                         #  TEMP BUFFER FOR DOWNLINK
003477: 32,2410           53101                           DXCH     SAMPLSUM                              #  SAVE RANGE-RATE READING
003478: 32,2411           53747                           DXCH     RDOTMSAV
003479: 32,2412           00006                           EXTEND
003480: 32,2413           30034                           DCA      CDUY                                  #  SAVE ICDU ANGLES
003481: 32,2414           52160                           DXCH     MPAC       +3                         #  TEMP BUFFER FOR DOWNLINK
003482: 32,2415           30032                           CA       CDUX
003483: 32,2416           54156                           TS       MPAC       +2                         #  TEMP BUFFER FOR DOWNLINK
003484: 32,2417           00006                           EXTEND
003485: 32,2420           30025                           DCA      TIME2                                 #   SAVE TIME
003486: 32,2421           52155                           DXCH     MPAC                                  #  SAVE TIME OF CDY READINGS IN MPAC
003487: 32,2422           00006                           EXTEND
003488: 32,2423           30036                           DCA      CDUT                                  #  SAVE TRUNION AND SHAFT ANGLES FOR RRNB
003489: 32,2424           53107                           DXCH     TANG


003491: 32,2425           00003                           RELINT
003492: 32,2426           04607                           TC       BANKCALL
003493: 32,2427           53074                           CADR     RRRANGE                               #  READ RR RANGE (ONE SAMPLE)
003494: 32,2430           04607                           TC       BANKCALL
003495: 32,2431           17733                           CADR     RADSTALL                              #  WAIT FOR READ COMPLETE
003496: 32,2432           02554                           TC       CHEXERR                               #  CHECK FOR ERRORS DURING READ
003497: 32,2433           00004                           INHINT                                         #  COPY CYCLE FOR MARK DATA ON DOWNLINK
003498: 32,2434           00006                           EXTEND
003499: 32,2435           31331                           DCA      DNRRANGE                              #  RANGE,RANGE RATE (RAW DATA)
003500: 32,2436           53761                           DXCH     RANGRDOT
003501: 32,2437           52162                           DXCH     MPAC       +5
003502: 32,2440           53755                           DXCH     MKTIME                                #  MARK TIME
003503: 32,2441           52160                           DXCH     MPAC       +3
003504: 32,2442           53460                           DXCH     AIG                                   #  CDUY, CDUZ
003505: 32,2443           00006                           EXTEND
003506: 32,2444           31107                           DCA      TANG                                  #  PRESERVE TANG
003507: 32,2445           53753                           DXCH     TANGNB                                #  TRUNNION AND SHAFT ANGLES
003508: 32,2446           30156                           CA       MPAC       +2
003509: 32,2447           55461                           TS       AOG                                   #  CDUX
003510: 32,2450           06060                           TC       INTPRET
003511: 32,2451           14025                           STODL    20D                                   #  SAVE TIME OF CDU READINGS IN 20D
003512: 32,2452           03755                                    MKTIME
003513: 32,2453           45225                           DSU      DSU
003514: 32,2454           01777                                    OLDAGS
003515: 32,2455           24567                                    50SECS                                #  50 SECS SINCE LAST AGS DOWNLIST?
003516: 32,2456           77440                           BMN      EXIT
003517: 32,2457           64472                                    NOAGS                                 #  NO
003518:
003519: 32,2460           40110                           CS       FLGWRD12                              #  IS RR READING HIGH SCALE
003520: 32,2461           74742                           MASK     RRRSBIT
003521: 32,2462           10000                           CCS      A
003522: 32,2463           34724                           CA       POSMAX                                #  NO- LOW SCALE (SET CONFIG) AGSCODE=17776
003523: 32,2464           62565                           AD       OCT57776                              #  YES- HI SCALE (SET CONFIG) AGSCODE=57776
003524: 32,2465           55073                           TS       AGSCODE                               #  SET AGS CODE WORD
003525: 32,2466           06060                           TC       INTPRET
003526: 32,2467           77745                           DLOAD
003527: 32,2470           03755                                    MKTIME
003528: 32,2471           01777                           STORE    OLDAGS                                #  SAVE AGS DOWNLINK TIME
003529:
003530: 32,2472           77745        NOAGS              DLOAD
003531: 32,2473           03747                                    RDOTMSAV                              #  CONVERT RDOT UNITS AND SCALING
003532: 32,2474           57261                           SL       DMPR                                  #  START WITH READING SCALED B-28, -.6278
003533: 32,2475           20217                                    14D                                   #  FT./SECOND PER BIT
003534: 32,2476           24002                                    RDOTCONV                              #  END WITH METERS/CENTISECOND, B-7
003535: 32,2477           03751                           STORE    RDOTM
003536: 32,2500           47135                           SLOAD    RTB
003537: 32,2501           01107                                    TANG                                  #  GET TRUNION ANGLE
003538: 32,2502           21606                                    CDULOGIC                              #  CONVERT TO DP ONES COMP. IN REVOLUTIONS
003539: 32,2503           03734                           STORE    RRTRUN                                #  AND SAVE FOR TMI ROUTINE (LSR22.3)
003540: 32,2504           47135                           SLOAD    RTB


003542: 32,2505           01110                                    TANG       +1                         #  DITTO FOR SHAFT ANGLE
003543: 32,2506           21606                                    CDULOGIC
003544: 32,2507           17736                           STODL    RRSHAFT
003545: 32,2510           01101                                    SAMPLSUM
003546: 32,2511           66405                           DMP      SL2R                                  #  CONVERT UNITS AND SCALING OF RANGE
003547: 32,2512           24004                                    RANGCONV                              #  PER BIT, END WITH METERS,SCALED -29
003548: 32,2513           37757                           STCALL   RM
003549: 32,2514           46041                                    RRNB                                  #  COMPUTE RADAR LOS USING RRNB
003550: 32,2515           17741                           STODL    RRBORSIT                              #  AND SAVE
003551: 32,2516           00025                                    20D
003552: 32,2517           34041                           STCALL   TDEC1                                 #  GET STATE VECTOR LOS AT TIME OF CDU READ
003553: 32,2520           51337                                    LPS20.1
003554: 32,2521           77776                           EXIT
003555: 32,2522           31457                           CA       AIG                                   #  STORE IMU CDU ANGLES AT MARKTIME
003556: 32,2523           54765                           TS       CDUSPOT                               #  IN CDUSPOT FOR TRG*SMNB
003557: 32,2524           31460                           CA       AMG
003558: 32,2525           54767                           TS       CDUSPOT    +2
003559: 32,2526           31461                           CA       AOG
003560: 32,2527           54771                           TS       CDUSPOT    +4
003561: 32,2530           06060                           TC       INTPRET
003562: 32,2531           45175                           VLOAD    CALL                                  #  LOAD VECTOR AND CALL TRANSFORMATION
003563: 32,2532           01101                                    RRTARGET
003564: 32,2533           47643                                    TRG*SMNB                              #  ROTATE LOS AT MARKTIME FROM SM TO NB.
003565: 32,2534           77641                           DOT                                            #  DOT WITH RADAR LOS TO GET ANGLE
003566: 32,2535           03741                                    RRBORSIT
003567: 32,2536           65552                           SL1      ACOS                                  #  BETWEEN THEM
003568: 32,2537           01045                           STORE    DSPTEM1                               #  STORE FOR POSSIBLE DISPLAY
003569: 32,2540           50025                           DSU      BMN                                   #  IS IT LESS THAN 3 DEGREES
003570: 32,2541           24564                                    THREEDEG
003571: 32,2542           64547                                    NORMEXIT                              #  YES-NORMAL EXIT
003572:
003573: 32,2543           77776                           EXIT                                           #  ERROR EXIT 2
003574: 32,2544           34743                           CAF      BIT2                                  #  SET ERROR CODE
003575: 32,2545           54154                           TS       MPAC
003576: 32,2546           12552                           TCF      OUT22.1
003577:
003578: 32,2547           77776        NORMEXIT           EXIT                                           #  NORMAL EXIT-SET MPAC EQUAL ZERO
003579: 32,2550           34746                           CAF      ZERO
003580: 32,2551           54154                           TS       MPAC
003581: 32,2552           31737        OUT22.1            CAE      LRS22.1X                              #  EXIT FROM LRS22.1
003582: 32,2553           04631                           TC       BANKJUMP
003583: 32,2554           30101        CHEXERR            CAE      FLAGWRD5
003584: 32,2555           74733                           MASK     RNGSCBIT
003585: 32,2556           10000                           CCS      A                                     #  CHECK IF RANGE SCALE CHANGED
003586: 32,2557           12400                           TCF      READRDOT                              #  YES-TAKE ANOTHER READING
003587:
003588: 32,2560           34744        EREXIT1            CA       BIT1                                  #  SET ERROR CODE
003589: 32,2561           54154                           TS       MPAC
003590: 32,2562           02552                           TC       OUT22.1
003591: 32,2563           00210 21042  THREEDEG           2DEC     .008333333                            #  THREE DEGREES,SCALED  REVS,B0
003592:


003594: 32,2565           57776        OCT57776           OCT      57776                                 #  AGS CODE WORD - HIGH RANGE SCALE - SET
003595: 32,2566           00000 11610  50SECS             2DEC     5000       B-28
003596:


003598:                                                                                                  #  PROGRAM NAME - LRS22.2 (DATA READ SUBROUTINE 2)
003599:
003600:
003601:                                                                                                  #  MOD. NO. : 1       BY: P VOLANTE  SDC           DATE: 4-11-67
003602:
003603:                                                                                                  #  FUNCTIONAL DESCRIPTION-


003605:                                                                                                  #     2) CHECKS IF THE RR LOS (I.E. THE RADAR BORESIGHT VECTOR) IS WITHIN 30 DEGREES OF THE LM +Z AXIS
003606:
003607:
003608:                                                                                                  #  CALLING SEQUENCE- BANKCALL FOR LRS22.2
003609:
003610:
003611:                                                                                                  #  SUBROUTINES CALLED: G+N,AUTO   SETMAXDB
003612:                                                                                                  #  NORMAL EXIT - RETURN TO CALLER WITH MPAC SET TO +0 (VIA SWRETURN)
003613:
003614:
003615:                                                                                                  #  ERROR EXIT - RETURN TO CALLER WITH MPAC SET TO 00001 -RADAR LOS NOT WITHIN 30 DEGREES OF LM +Z AXIS
003616:
003617:
003618:                                                                                                  #  ALARMS - NONE                                                            IN THE AUTO MODE
003619:
003620:
003621:                                                                                                  #  ERASABLE INITIALIZATION REQUIRED -
003622:                                                                                                  #       RRLOSVEC - THE RR LINE-OF-SIGHT VECTOR-A HALF UNIT VECTOR COMPUTED BY LRS22.1
003623:                                                                                                  #       RM - RR RANGE, METERS B-29, FROM LRS22.1
003624:                                                                                                  #       BIT 14 CHANNEL 31 -INDICATES AUTOPILOT IS IN AUTO MODE
003625:
003626:
003627:                                                                                                  #  DEBRIS -  A,L,Q MPAC -PUSHLIST AND PUSHLOC ARE NOT CHANGED BY THIS ROUTINE
003628:
003629: 24,2000                                           SETLOC   P20S
003630: 24,2000                                           BANK
003631: 24,3416           04636        LRS22.2            TC       MAKECADR
003632: 24,3417           55737                           TS       LRS22.1X
003633: 24,3420           06060                           TC       INTPRET
003634:                                                                                                  #  CHECK IF RR LOS IS WITHIN 30 DEG OF
003635: 24,3421           65545        30DEGCHK           DLOAD    ACOS                                  #  THE SPACECRAFT +Z AXIS
003636: 24,3422           03745                                    RRBORSIT   +4                         #  BY TAKING ARCCOS OF Z-COMP. OF THE RR
003637:                                                                                                  #  LOS VECTOR,A HALF UNIT VECTOR
003638:                                                                                                  #  IN NAV BASE AXES)
003639: 24,3423           50025                           DSU      BMN
003640: 24,3424           11440                                    30DEG
003641: 24,3425           51432                                    OKEXIT                                #  NORMAL EXIT-WITHIN 30 DEG.
003642: 24,3426           77776                           EXIT                                           #  ERROR EXIT-NOT WITHIN 30 DEG.
003643: 24,3427           34744                           CAF      BIT1                                  #  SET ERROR CODE IN MPAC
003644: 24,3430           54154                           TS       MPAC
003645: 24,3431           13435                           TCF      OUT22.2
003646: 24,3432           77776        OKEXIT             EXIT                                           #  NORMAL EXIT-SET MPAC = ZERO
003647:


003649: 24,3433           34746                           CAF      ZERO
003650: 24,3434           54154                           TS       MPAC
003651: 24,3435           31737        OUT22.2            CAE      LRS22.1X
003652: 24,3436           04631                           TC       BANKJUMP
003653:
003654: 24,3437           02525 12525  30DEG              2DEC     .083333333                            #  THIRTY DEGREES,SCALED REVS,B0
003655:


003657:                                                                                                  #  PROGRAM NAME - LSR22.3                                                  DATE - 29 MAY 1967
003658:                                                                                                  #  MOD. NO 3                                                               LOG SECTION - P20-25
003659:                                                                                                  #  MOD. BY - DANFORTH                                                      ASSEMBLY LEMP20S REV 10
003660:
003661:                                                                                                  #  FUNCTIONAL DESCRIPTION
003662:
003663:                                                                                                  #  THIS ROUTINE COMPUTES THE B-VECTORS AND DELTA Q FOR EACH OF THE QUANTITIES MEASURED BY THE RENDEZVOUS
003664:                                                                                                  #  RADAR.(RANGE,RANGE RATE,SHAFT AND TRUNNION ANGLES). THE ROUTINE CALLS THE INCORP1 AND INCORP2 ROUTINES
003665:                                                                                                  #  WHICH COMPUTE THE DEVIATIONS AND CORRECT THE STATE VECTOR.
003666:
003667:                                                                                                  #  CALLING SEQUENCE
003668:                                                                                                  #  THIS ROUTINE IS PART OF P20 RENDEZVOUS NAVIGATION FOR THE LM COMPUTER O NLY. THE ROUTINE IS ENTERED FROM
003669:                                                                                                  #  R22LEM  ONLY AND RETURNS DIRECTLY TO R22LEM  FOLLOWING SUCCESSFUL INCORPORATION OF MEASURED DATA. IF THE
003670:                                                                                                  #  COMPUTED STATE VECTOR DEVIATIONS EXCEED THE MAXIMUM PERMITTED. THE ROUTINE RETURNS TO R22LEM  TO DISPLAY
003671:                                                                                                  #  THE DEVIATIONS. IF THE ASTRONAUT ACCEPTS THE DATA R22LEM  RETURNS TO    LSR22.3 TO INCORPORATE THE
003672:                                                                                                  #  DEVIATIONS INTO THE STATE VECTOR. IF THE ASTRONAUT REJECTS THE DEVIATIONS, NO MORE MEASUREMENTS ARE
003673:                                                                                                  #  PROCESSED FOR THIS MARK,I.E.,R22LEM  GETS THE NEXT MARK.
003674:
003675:
003676:                                                                                                  #  SUBROUTINES CALLED
003677:                                                                                                  #   WLINIT     LGCUPDTE     INTEGRV     INCORP1     ARCTAN
003678:                                                                                                  #   GETULC     RADARANG     INCORP2     NBSM        INTSTALL
003679:
003680:                                                                                                  #  OUTPUT
003681:                                                                                                  #   CORRECTED LM OR CSM STATE VECTOR (PERMANENT)
003682:                                                                                                  #   NUMBER OF MARKS INCORPORATED IN MARKCTR
003683:                                                                                                  #   MAGNITUDE OF POSITION DEVIATION (FOR DISPLAY) IN R22DISP METERS B-29
003684:                                                                                                  #   MAGNITUDE OF VELOCITY DEVIATION (FOR DISPLAY) IN R22DISP +2 M/CSEC B-7
003685:                                                                                                  #   UPDATED W-MATRIX
003686:
003687:
003688:                                                                                                  #  ERASABLE INITIALIZATION REQUIRED
003689:                                                                                                  #   LM AND CSM STATE VECTORS
003690:                                                                                                  #   W-MATRIX
003691:                                                                                                  #   MARK TIME IN MKTIME
003692:                                                                                                  #   RADAR RANGE IN RM METERS B-29
003693:                                                                                                  #         RANGE RATE IN RDOTM METERS/CSES B-7
003694:                                                                                                  #         SHAFT ANGLE IN RRSHAFT REVS.B0
003695:                                                                                                  #         TRUNNION ANGLE IN RRTRUN REVS. B0
003696:                                                                                                  #   GIMBAL ANGLES  INNER IN AIG
003697:                                                                                                  #                  MIDDLE IN AMG
003698:                                                                                                  #                  OUTER IN AOG
003699:                                                                                                  #   REFSMMAT
003700:                                                                                                  #   RENDWFLG
003701:                                                                                                  #   NOANGFLG
003702:                                                                                                  #   VEHUPFLG
003703:
003704:                                                                                                  #  DEBRIS
003705:                                                                                                  #   PUSHLIST--ALL
003706:                                                                                                  #   MX, MY, MZ  (VECTORS)


003708:                                                                                                  #   ULC,RXZ,SINTHETA,LGRET,RDRET,BVECTOR,W.IND,X78T
003709:
003710:
003711: 13,2207                                           BANK     13
003712: 26,2000                                           SETLOC   P20S3
003713: 26,2000                                           BANK
003714:
003715: 26,2424  E7,1456                                  EBANK=   LOSCOUNT
003716: 26,2424                                           COUNT*   $$/LSR22
003717: 26,2424           77624        LSR22.3            CALL
003718: 26,2425           51770                                    GRP2PC
003719: 26,2426           43014                           BON      SET
003720: 26,2427           04307                                    SURFFLAG                              #  ARE WE ON LUNAR SURFACE
003721: 26,2430           55206                                    LSR22.4                               #  YES
003722: 26,2431           02466                                    DMENFLG
003723: 26,2432           45014                           BOFF     CALL
003724: 26,2433           00747                                    VEHUPFLG
003725: 26,2434           54466                                    DOLEM
003726: 26,2435           27447                                    INTSTALL
003727: 26,2436           45014                           CLEAR    CALL                                  #  LM PRECISION INTEGRATION
003728: 26,2437           01674                                    VINTFLAG
003729: 26,2440           26702                                    SETIFLGS
003730: 26,2441           77624                           CALL
003731: 26,2442           53642                                    INTGRCAL
003732: 26,2443           77624                           CALL
003733: 26,2444           51770                                    GRP2PC
003734: 26,2445           77624                           CALL
003735: 26,2446           27447                                    INTSTALL
003736: 26,2447           43014                           CLEAR    BOFF
003737: 26,2450           01676                                    DIM0FLAG
003738: 26,2451           02756                                    RENDWFLG
003739: 26,2452           54456                                    NOTWCSM
003740: 26,2453           43014                           SET      SET                                   #  CSM WITH W-MATRIX INTEGRATION
003741: 26,2454           01476                                    DIM0FLAG
003742: 26,2455           01475                                    D6OR9FLG
003743: 26,2456           43014        NOTWCSM            SET      CLEAR
003744: 26,2457           01474                                    VINTFLAG
003745: 26,2460           01673                                    INTYPFLG
003746: 26,2461           45014                           SET      CALL
003747: 26,2462           01472                                    STATEFLG
003748: 26,2463           53642                                    INTGRCAL
003749: 26,2464           77650                           GOTO
003750: 26,2465           54516                                    MARKTEST
003751: 26,2466           77624        DOLEM              CALL
003752: 26,2467           27447                                    INTSTALL
003753: 26,2470           45014                           SET      CALL
003754: 26,2471           01474                                    VINTFLAG
003755: 26,2472           26702                                    SETIFLGS
003756: 26,2473           77624                           CALL
003757: 26,2474           53642                                    INTGRCAL


003759: 26,2475           77624                           CALL
003760: 26,2476           51770                                    GRP2PC
003761: 26,2477           77624                           CALL
003762: 26,2500           27447                                    INTSTALL
003763: 26,2501           43014                           CLEAR    BOFF
003764: 26,2502           01676                                    DIM0FLAG
003765: 26,2503           02756                                    RENDWFLG
003766: 26,2504           54510                                    NOTWLEM
003767: 26,2505           43014                           SET      SET                                   #  LM WITH W-MATRIX INTEGRATION
003768: 26,2506           01476                                    DIM0FLAG
003769: 26,2507           01475                                    D6OR9FLG
003770: 26,2510           43014        NOTWLEM            CLEAR    CLEAR
003771: 26,2511           01673                                    INTYPFLG
003772: 26,2512           01674                                    VINTFLAG
003773: 26,2513           45014                           SET      CALL
003774: 26,2514           01472                                    STATEFLG
003775: 26,2515           53642                                    INTGRCAL
003776: 26,2516           45014        MARKTEST           BON      CALL                                  #  HAS W-MATRIX BEEN INVALIDATED
003777: 26,2517           02716                                    RENDWFLG                              #  HAS W-MATRIX BEEN INVALIDATED
003778: 26,2520           54522                                    RANGEBQ
003779: 26,2521           55250                                    WLINIT                                #  YES-REINITIALIZE
003780: 26,2522           77414        RANGEBQ            BON      EXIT                                  #  DON'T CALL R65 IF ON SURFACE
003781: 26,2523           04307                                    SURFFLAG
003782: 26,2524           54532                                    RANGEBQ1
003783: 26,2525           34746                           CA       ZERO
003784: 26,2526           55745                           TS       R65CNTR
003785: 26,2527           04607                           TC       BANKCALL
003786: 26,2530           46123                           CADR     R65LEM
003787: 26,2531           06060                           TC       INTPRET
003788: 26,2532           43174        RANGEBQ1           AXT,2    BON                                   #  CLEAR X2
003789: 26,2533           00000                                    0
003790: 26,2534           04304                                    LMOONFLG                              #  IS MOON SPHERE OF INFLUENCE
003791: 26,2535           54540                                    SETX2                                 #  YES. STORE ZERO IN SCALSHFT REGISTER
003792: 26,2536           77714                           INCR,2
003793: 26,2537           00002                                    2
003794: 26,2540           45134        SETX2              SXA,2    CALL
003795: 26,2541           03720                                    SCALSHFT                              #  0-MOON. 2-EARTH
003796: 26,2542           51770                                    GRP2PC
003797: 26,2543           66170                           AXT,1    SXA,1                                 #  STORE RANGE CODE (1) FOR R3 IN NOUN 49
003798: 26,2544           00001                                    1
003799: 26,2545           01353                                    WHCHREAD
003800: 26,2546           54335                           SLOAD    SR                                    #  GET SINGLE PRECISION RVARMIN (B-12)
003801: 26,2547           01773                                    RVARMIN                               #  SHIFT TO TRIPLE PRECISION    (B-40)
003802: 26,2550           20635                                    28D
003803: 26,2551           77634                           RTB
003804: 26,2552           21643                                    TPMODE                                #  AND SAVE  IN 20D
003805: 26,2553           00025                           STORE    20D
003806: 26,2554           77624                           CALL                                           #  BEGIN COMPUTING THE B-VECTORS,DELTAQ
003807: 26,2555           55332                                    GETULC                                #  B-VECTORS FOR RANGE
003808: 26,2556           57414                           BON      VCOMP                                 #  B0, COMP. IF LM BEING CORRECTED


003810: 26,2557           00707                                    VEHUPFLG
003811: 26,2560           54561                                    +1
003812: 26,2561           27525                           STOVL    BVECTOR
003813: 26,2562           06505                                    ZEROVECS
003814: 26,2563           03533                           STORE    BVECTOR    +6                         #  B1
003815: 26,2564           17541                           STODL    BVECTOR    +12D                       #  B2
003816: 26,2565           00045                                    36D
003817: 26,2566           44257                           SRR*     BDSU
003818: 26,2567           56174                                    2,2                                   #  SHIFT FROM EARTH/MOON SPHERE TO B-29
003819: 26,2570           03757                                    RM                                    #  RM - (MAGNITUDE RCSM-RLM)
003820: 26,2571           77657                           SLR*
003821: 26,2572           56574                                    2,2                                   #  SHIFT TO EARTH/MOON SPHERE
003822: 26,2573           17547                           STODL    DELTAQ                                #  EARTH B-29. MOON B-27
003823: 26,2574           00045                                    36D                                   #  RLC B-29/B-27
003824: 26,2575           63501                           NORM     DSQ                                   #  NORMALIZE AND SQUARE
003825: 26,2576           00047                                    X1
003826: 26,2577           53605                           DMP      SR*
003827: 26,2600           01767                                    RANGEVAR                              #  MULTIPLY BY RANGEVAR(B12) THEN
003828: 26,2601           20577                                    0          -2,1                       #  UNNORMALIZE
003829: 26,2602           53657                           SR*      SR*
003830: 26,2603           20601                                    0,1
003831: 26,2604           57176                                    0,2
003832: 26,2605           47057                           SR*      RTB
003833: 26,2606           57176                                    0,2
003834: 26,2607           21643                                    TPMODE
003835: 26,2610           02707                           STORE    VARIANCE                              #  B-40
003836: 26,2611           76276                           DCOMP    TAD
003837: 26,2612           00025                                    20D                                   #    B-40
003838: 26,2613           72240                           BMN      TLOAD
003839: 26,2614           54617                                    QOK
003840: 26,2615           00025                                    20D                                   #    B-40
003841: 26,2616           02707                           STORE    VARIANCE
003842: 26,2617           77624        QOK                CALL
003843: 26,2620           55400                                    LGCUPDTE
003844:
003845: 26,2621           45131                           SSP      CALL
003846: 26,2622           01354                                    WHCHREAD
003847: 26,2623           00002                           DEC      2          B-14                       #  STORE R-RATE CODE (2) FOR R3 IN NOUN 49
003848: 26,2624           51770                                    GRP2PC
003849: 26,2625           77624                           CALL                                           #  B-VECTOR,DELTAQ FOR RANGE RATE
003850: 26,2626           55332                                    GETULC
003851: 26,2627           53725                           PDDL     SR*                                   #  GET RLC SCALED B-29/B-27
003852: 26,2630           00045                                    36D                                   #  AND SHIFT TO B-23
003853: 26,2631           57202                                    0          -4,2
003854: 26,2632           24045                           STOVL    36D                                   #  THEN STORE BACK IN 36D
003855: 26,2633           57414                           BON      VCOMP                                 #  B1, COMP. IF LM BEING CORRECTED
003856: 26,2634           00707                                    VEHUPFLG
003857: 26,2635           54636                                    +1
003858: 26,2636           77761                           VXSC
003859: 26,2637           00045                                    36D                                   #  B1 = RLC  (B-24/B-22)


003861: 26,2640           27533                           STOVL    BVECTOR    +6
003862: 26,2641           01653                                    NUVLEM
003863: 26,2642           53257                           VSR*     VAD
003864: 26,2643           57170                                    6,2                                   #  SHIFT FOR EARTH/MOON SPHERE
003865: 26,2644           01667                                    VCVLEM                                #  EARTH B-7. MOON B-5
003866: 26,2645           53715                           PDVL     VSR*                                  #  VL TO PD6
003867: 26,2646           01601                                    NUVCSM
003868: 26,2647           57170                                    6,2                                   #  SHIFT FOR EARTH/MOON SPHERE
003869: 26,2650           52255                           VAD      VSU
003870: 26,2651           01615                                    VCVCSM
003871: 26,2652           50315                           PDVL     DOT                                   #  VC - VL = VLC TO PD6
003872: 26,2653           00001                                    0
003873: 26,2654           00007                                    6
003874: 26,2655           53606                           PUSH     SRR*                                  #  RDOT B-8/B-6 TO PD12
003875: 26,2656           56174                                    2,2                                   #  SHIFT FROM EARTH/MOON SPHERE TO B-8
003876: 26,2657           57316                           DSQ      DMPR                                  #  RDOT**2 B-16 X RATEVAR B12
003877: 26,2660           01771                                    RATEVAR
003878: 26,2661           02707                           STORE    VARIANCE
003879: 26,2662           54335                           SLOAD    SR
003880: 26,2663           01774                                    VVARMIN                               #  GET SINGLE PRECISION VVARMIN (B+12)
003881: 26,2664           20621                                    16D                                   #  SHIFT TO DP (B -4)
003882: 26,2665           00031                           STORE    24D                                   #  AND SAVE IN 24D
003883: 26,2666           50025                           DSU      BMN                                   #  IS MIN. VARIANCE > COMPUTED VARIANCE
003884: 26,2667           02707                                    VARIANCE
003885: 26,2670           54674                                    VOK                                   #  BRANCH - NO
003886: 26,2671           77745                           DLOAD                                          #  YES - USE MINIMUM VARIANCE
003887: 26,2672           00031                                    24D
003888: 26,2673           02707                           STORE    VARIANCE
003889: 26,2674           60545        VOK                DLOAD    SR2                                   #  RDOT(PD12) FROM B-8/B-6
003890: 26,2675           53725                           PDDL     SLR*                                  #  TO B-10/B-8
003891: 26,2676           03751                                    RDOTM                                 #  SHIFT TO EARTH/MOON SPHERE
003892: 26,2677           56577                                    0          -1,2                       #  B-7 TO B-10/B-8
003893: 26,2700           77625                           DSU
003894: 26,2701           77675                           DMPR
003895: 26,2702           00045                                    36D
003896: 26,2703           27547                           STOVL    DELTAQ                                #    B-33
003897: 26,2704           00001                                    0                                     #  NOW GET B0
003898: 26,2705           47235                           VXV      VXV                                   #  (ULC X VLC) X ULC
003899: 26,2706           57414                           BON      VCOMP                                 #  B0, COMP. IF LM BEING CORRECTED
003900: 26,2707           00707                                    VEHUPFLG
003901: 26,2710           54711                                    +1
003902: 26,2711           77657                           VSR*
003903: 26,2712           57200                                    0          -2,2                       #  SCALED B-5
003904: 26,2713           27525                           STOVL    BVECTOR
003905: 26,2714           06505                                    ZEROVECS
003906: 26,2715           00025                           STORE    20D                                   #  ZERO OUT 20 TO 25 IN PUSHLIST
003907: 26,2716           27541                           STOVL    BVECTOR    +12D
003908: 26,2717           03525                                    BVECTOR
003909: 26,2720           60246                           ABVAL    NORM                                  #  LOAD B0, GET MAGNITUDE AND NORMALIZE
003910: 26,2721           00025                                    20D                                   #  SHIFT COUNT IN 20D


003912: 26,2722           51575                           VLOAD    ABVAL
003913: 26,2723           03533                                    BVECTOR    +6D                        #  LOAD B1, GET MAGNITUDE AND NORMALIZE
003914: 26,2724           71301                           NORM     DLOAD
003915: 26,2725           00027                                    22D                                   #  SHIFT COUNT IN 22D
003916: 26,2726           00027                                    22D                                   #  FIND WHICH SHIFT IS SMALLER
003917: 26,2727           50025                           DSU      BMN                                   #  BRANCH- B0 HAS SMALLER SHIFT COUNT
003918: 26,2730           00025                                    20D
003919: 26,2731           54735                                    VOK1
003920: 26,2732           52150                           LXA,1    GOTO
003921: 26,2733           00026                                    22D                                   #  LOAD X2 WITH THE SMALLER SHIFT COUNT
003922: 26,2734           54737                                    VOK2
003923: 26,2735           77750        VOK1               LXA,1
003924: 26,2736           00024                                    20D
003925: 26,2737           53775        VOK2               VLOAD    VSL*                                  #  THEN ADJUST B0,B1,DELTAQ AND VARIANCE
003926: 26,2740           03525                                    BVECTOR                               #  WITH THIS SHIFT COUNT
003927: 26,2741           20201                                    0,1
003928: 26,2742           27525                           STOVL    BVECTOR
003929: 26,2743           03533                                    BVECTOR    +6
003930: 26,2744           77657                           VSL*
003931: 26,2745           20201                                    0,1
003932: 26,2746           17533                           STODL    BVECTOR    +6
003933: 26,2747           03547                                    DELTAQ
003934: 26,2750           77657                           SL*
003935: 26,2751           20201                                    0,1
003936: 26,2752           03547                           STORE    DELTAQ
003937: 26,2753           53745                           DLOAD    SL*                                   #  GET RLC AND ADJUST FOR SCALE SHIFT
003938: 26,2754           00045                                    36D
003939: 26,2755           20200                                    0          -1,1
003940: 26,2756           41316                           DSQ      DMP                                   #  MULTIPLY RLC**2 BY VARIANCE
003941: 26,2757           02707                                    VARIANCE
003942: 26,2760           47012                           SL4      RTB                                   #  SHIFT TO CONFORM TO BVECTORS AND DELTAQ
003943: 26,2761           21643                                    TPMODE
003944: 26,2762           36707                           STCALL   VARIANCE                              #  AND STORE TP VARIANCE
003945: 26,2763           55400                                    LGCUPDTE
003946:
003947: 26,2764           77624                           CALL
003948: 26,2765           51770                                    GRP2PC
003949: 26,2766           77414                           BON      EXIT                                  #  ARE ANGLES TO BE DONE
003950: 26,2767           04307                                    SURFFLAG
003951: 26,2770           55204                                    RENDEND                               #  NO
003952: 26,2771  E7,1457                                  EBANK=   AIG
003953: 26,2771           33331        MXMYMZ             CAF      AIGBANK
003954: 26,2772           54006                           TS       BBANK
003955: 26,2773           31457                           CA       AIG                                   #  YES, COMPUTE  MX, MY, MZ
003956: 26,2774           54765                           TS       CDUSPOT
003957: 26,2775           31460                           CA       AMG
003958: 26,2776           54767                           TS       CDUSPOT    +2
003959: 26,2777           31461                           CA       AOG
003960: 26,3000           54771                           TS       CDUSPOT    +4                         #  GIMBL ANGLES NOW IN CDUSPOT FOR TRG*NBSM
003961: 26,3001           06060                           TC       INTPRET


003963: 26,3002           45175                           VLOAD    CALL
003964: 26,3003           06503                                    UNITX
003965: 26,3004           47656                                    TRG*NBSM
003966: 26,3005           76505                           VXM      VSL1
003967: 26,3006           01732                                    REFSMMAT
003968: 26,3007           27677                           STOVL    MX
003969: 26,3010           06501                                    UNITY
003970: 26,3011           77624                           CALL
003971: 26,3012           47665                                    *NBSM*
003972: 26,3013           76505                           VXM      VSL1
003973: 26,3014           01732                                    REFSMMAT
003974: 26,3015           27705                           STOVL    MY
003975: 26,3016           06477                                    UNITZ
003976: 26,3017           77624                           CALL
003977: 26,3020           47665                                    *NBSM*
003978: 26,3021           76505                           VXM      VSL1
003979: 26,3022           01732                                    REFSMMAT
003980: 26,3023           37713        SHAFTBQ            STCALL   MZ
003981: 26,3024           55360                                    RADARANG
003982: 26,3025           77331                           SSP      VLOAD                                 #  STORE SHAFT CODE (3) FOR R3 IN NOUN 49
003983: 26,3026           01354                                    WHCHREAD
003984: 26,3027           00003                           DEC      3          B-14
003985: 26,3030           03724                                    ULC
003986: 26,3031           72441                           DOT      SL1
003987: 26,3032           03677                                    MX
003988: 26,3033           24023                           STOVL    SINTH                                 #  18D
003989: 26,3034           03724                                    ULC
003990: 26,3035           72441                           DOT      SL1
003991: 26,3036           03713                                    MZ
003992: 26,3037           34021                           STCALL   COSTH                                 #  16D
003993: 26,3040           26545                                    ARCTAN
003994: 26,3041           41221                           BDSU     DMP
003995: 26,3042           03736                                    RRSHAFT
003996: 26,3043           15440                                    2PI/8
003997: 26,3044           41472                           SL3R     PUSH
003998: 26,3045           52545                           DLOAD    SL3
003999: 26,3046           01701                                    X789
004000: 26,3047           44257                           SRR*     BDSU                                  #  SHIFT FROM -5/-3 TO B0
004001: 26,3050           56176                                    0,2
004002: 26,3051           53605                           DMP      SRR*
004003: 26,3052           03722                                    RXZ
004004: 26,3053           21601                                    0,1                                   #  SHIFT TO EARTH/MOON SPHERE
004005: 26,3054           27547                           STOVL    DELTAQ                                #  EARTH B-29. MOON B-27
004006: 26,3055           03724                                    ULC
004007: 26,3056           76435                           VXV      VSL1
004008: 26,3057           03705                                    MY
004009: 26,3060           77656                           UNIT
004010: 26,3061           57414                           BOFF     VCOMP                                 #  B0, COMP. IF CSM BEING CORRECTED
004011: 26,3062           00747                                    VEHUPFLG
004012: 26,3063           55064                                    +1


004014: 26,3064           27525                           STOVL    BVECTOR
004015: 26,3065           06505                                    ZEROVECS
004016: 26,3066           03533                           STORE    BVECTOR    +6
004017: 26,3067           17541                           STODL    BVECTOR    +12D
004018: 26,3070           03722                                    RXZ
004019: 26,3071           53657                           SR*      SRR*                                  #  SHIFT FROM EARTH/MOON SPHERE TO B-25
004020: 26,3072           20577                                    0          -2,1
004021: 26,3073           56176                                    0,2
004022: 26,3074           03541                           STORE    BVECTOR    +12D
004023: 26,3075           77735                           SLOAD
004024: 26,3076           02011                                    SHAFTVAR
004025: 26,3077           41215                           DAD      DMP
004026: 26,3100           15435                                    IMUVAR                                #  RAD**2 B12
004027: 26,3101           03722                                    RXZ
004028: 26,3102           41257                           SRR*     DMP
004029: 26,3103           21601                                    0,1                                   #  SHIFT TO EARTH/MOON SPHERE
004030: 26,3104           03722                                    RXZ
004031: 26,3105           53657                           SR*      SR*
004032: 26,3106           20577                                    0          -2,1
004033: 26,3107           57176                                    0,2
004034: 26,3110           47057                           SR*      RTB
004035: 26,3111           57176                                    0,2
004036: 26,3112           21643                                    TPMODE                                #  STORE VARIANCE TRIPLE PRECISION
004037: 26,3113           36707                           STCALL   VARIANCE                              #  B-40
004038: 26,3114           55400                                    LGCUPDTE
004039:
004040: 26,3115           77624                           CALL
004041: 26,3116           51770                                    GRP2PC
004042: 26,3117           77624        TRUNBQ             CALL
004043: 26,3120           55360                                    RADARANG
004044: 26,3121           77331                           SSP      VLOAD                                 #  STORE TRUNNION CODE (4) FOR R3 IN N49
004045: 26,3122           01354                                    WHCHREAD
004046: 26,3123           00004                           DEC      4          B-14
004047: 26,3124           03724                                    ULC
004048: 26,3125           76435                           VXV      VSL1
004049: 26,3126           03705                                    MY
004050: 26,3127           76435                           VXV      VSL1                                  #  (ULC X MY) X ULC
004051: 26,3130           03724                                    ULC
004052: 26,3131           57414                           BOFF     VCOMP                                 #  B0, COMP. IF CSM BEING CORRECTED
004053: 26,3132           00747                                    VEHUPFLG
004054: 26,3133           55134                                    +1
004055: 26,3134           27525                           STOVL    BVECTOR
004056: 26,3135           06505                                    ZEROVECS
004057: 26,3136           03533                           STORE    BVECTOR    +6
004058: 26,3137           17541                           STODL    BVECTOR    +12D
004059: 26,3140           03722                                    RXZ
004060: 26,3141           53657                           SR*      SRR*                                  #  SHIFT FROM EARTH/MOON SPHERE TO B-25
004061: 26,3142           20577                                    0          -2,1
004062: 26,3143           56176                                    0,2
004063: 26,3144           03543                           STORE    BVECTOR    +14D


004065: 26,3145           77735                           SLOAD
004066: 26,3146           02012                                    TRUNVAR
004067: 26,3147           41215                           DAD      DMP
004068: 26,3150           15435                                    IMUVAR
004069: 26,3151           03722                                    RXZ
004070: 26,3152           41257                           SRR*     DMP
004071: 26,3153           21601                                    0,1                                   #  SHIFT TO EARTH/MOON SPHERE
004072: 26,3154           03722                                    RXZ
004073: 26,3155           53657                           SR*      SR*
004074: 26,3156           20577                                    0          -2,1
004075: 26,3157           57176                                    0,2
004076: 26,3160           47057                           SR*      RTB
004077: 26,3161           57176                                    0,2
004078: 26,3162           21643                                    TPMODE                                #  STORE VARIANCE TRIPLE PRECISION
004079: 26,3163           16707                           STODL    VARIANCE
004080: 26,3164           03732                                    SINTHETA
004081: 26,3165           44336                           ASIN     BDSU                                  #  SIN THETA IN PD6
004082: 26,3166           03734                                    RRTRUN
004083: 26,3167           56405                           DMP      SL3R
004084: 26,3170           15440                                    2PI/8
004085: 26,3171           52525                           PDDL     SL3
004086: 26,3172           01703                                    X789       +2
004087: 26,3173           44257                           SRR*     BDSU                                  #  SHIFT FROM -5/-3 TO B0
004088: 26,3174           56176                                    0,2
004089: 26,3175           53605                           DMP      SRR*
004090: 26,3176           03722                                    RXZ
004091: 26,3177           21601                                    0,1
004092: 26,3200           37547                           STCALL   DELTAQ                                #  EARTH B-29. MOON B-27
004093: 26,3201           55400                                    LGCUPDTE
004094: 26,3202           77624                           CALL
004095: 26,3203           51770                                    GRP2PC
004096: 26,3204           77650        RENDEND            GOTO
004097: 26,3205           50644                                    R22LEM93
004098:                                                                                                  #  FUNCTIONAL DESCRIPTION
004099:
004100:                                                                                                  #  LSR22.4 IS THE ENTRY TO PERFORM LUNAR SURFACE NAVIGATION FOR THE LM
004101:                                                                                                  #  COMPUTER ONLY. THIS ROUTINE COMPUTES THE B-VECTORS AND DELTA Q FOR RANGE
004102:                                                                                                  #  AND RANGE RATE MEASURED BY THE RENDEZVOUS RADAR
004103:
004104:                                                                                                  #  SUBROUTINES CALLED
004105:                                                                                                  #   INTSTALL  LGCUPDTE  INCORP1   RP-TO-R
004106:                                                                                                  #   INTEGRV   GETULC    INCORP2
004107:
004108:                                                                                                  #  OUTPUT
004109:                                                                                                  #   CORRECTED CSM STATE VECTOR (PERMANENT)
004110:                                                                                                  #   NUMBER OF MARKS INCORPORATED IN MARKCTR
004111:                                                                                                  #   MAGNITUDE OF POSITION DEVIATION (FOR DISPLAY) IN R22DISP METERS B-29
004112:                                                                                                  #   MAGNITUDE OF VELOCITY DEVIATION (FOR DISPLAY) IN R22DISP +2 M/CSEC B-7
004113:                                                                                                  #   UPDATED W-MATRIX
004114:


004116:                                                                                                  #  ERASABLE INITIALIZATION REQUIRED
004117:                                                                                                  #   LM AND CSM STATE VECTORS
004118:                                                                                                  #   W-MATRIX
004119:                                                                                                  #   MARK TIME IN MKTIME
004120:                                                                                                  #   RADAR RANGE IN RM METERS B-29
004121:                                                                                                  #         RANGE RATE IN RDOTM METERS/CSEC B-7
004122:                                                                                                  #   VEHUPFLG
004123:
004124:
004125: 26,3206           77624        LSR22.4            CALL
004126: 26,3207           27447                                    INTSTALL
004127: 26,3210           43014                           SET      CLEAR
004128: 26,3211           01472                                    STATEFLG
004129: 26,3212           01674                                    VINTFLAG                              #  CALL TO GET LM POS + VEL IN REF COORD.
004130: 26,3213           77624                           CALL
004131: 26,3214           53642                                    INTGRCAL
004132: 26,3215           77624                           CALL
004133: 26,3216           51770                                    GRP2PC
004134: 26,3217           45014                           CLEAR    CALL
004135: 26,3220           02666                                    DMENFLG                               #  SET MATRIX SIZE TO 6X6 FOR INCORP
004136: 26,3221           27447                                    INTSTALL
004137: 26,3222           46145                           DLOAD    BHIZ                                  #  IS THIS FIRST TIME THROUGH
004138: 26,3223           03463                                    MARKCTR
004139: 26,3224           55237                                    INITWMX6                              #  YES. INITIALIZE 6X6 W-MATRIX
004140: 26,3225           43014                           CLEAR    SET
004141: 26,3226           01675                                    D6OR9FLG
004142: 26,3227           01476                                    DIM0FLAG
004143: 26,3230           43014                           SET      CLEAR
004144: 26,3231           01474                                    VINTFLAG
004145: 26,3232           01673                                    INTYPFLG
004146: 26,3233           77624                           CALL
004147: 26,3234           53642                                    INTGRCAL
004148: 26,3235           77650                           GOTO
004149: 26,3236           54522                                    RANGEBQ
004150:
004151: 26,3237           77624        INITWMX6           CALL
004152: 26,3240           55250                                    WLINIT                                #  INITIALIZE W-MATRIX
004153: 26,3241           45014                           SET      CALL
004154: 26,3242           01474                                    VINTFLAG
004155: 26,3243           26702                                    SETIFLGS
004156: 26,3244           77624                           CALL
004157: 26,3245           53642                                    INTGRCAL
004158: 26,3246           77650                           GOTO
004159: 26,3247           54522                                    RANGEBQ
004160:
004161:                                                                                                  #  THIS ROUTINE CLEARS RFINAL (DP) AND CALLS INTEGRV
004162:
004163: 25,2000                                           SETLOC   P20S1
004164: 25,2000                                           BANK


004166: 25,3642           71220        INTGRCAL           STQ      DLOAD
004167: 25,3643           03675                                    IGRET
004168: 25,3644           03755                                    MKTIME
004169: 25,3645           34041                           STCALL   TDEC1
004170: 25,3646           27172                                    INTEGRV
004171: 25,3647           77650                           GOTO
004172: 25,3650           03675                                    IGRET
004173:
004174:                                                                                                  #  THIS ROUTINE INITIALIZES THE W-MATRIX BY ZEROING ALL W THEN SETTING
004175:                                                                                                  #  DIAGONAL ELEMENTS TO INITIAL STORED VALUES.
004176:
004177: 26,2000                                           SETLOC   P20S3
004178: 26,2000                                           BANK
004179:
004180: 26,3250  E5,1400                                  EBANK=   W
004181: 26,3250           77776        WLINIT             EXIT
004182: 26,3251           33330                           CAF      WBANK
004183: 26,3252           54006                           TS       BBANK
004184: 26,3253           33436                           CAF      WSIZE
004185: 26,3254           55256                           TS       W.IND
004186: 26,3255           34746                           CAF      ZERO
004187: 26,3256           51256                           INDEX    W.IND
004188: 26,3257           55400                           TS       W
004189: 26,3260           11256                           CCS      W.IND
004190: 26,3261           03254                           TC       -5
004191: 26,3262           33331                           CAF      AIGBANK                               #  RESTORE EBANK 7
004192: 26,3263           54006                           TS       BBANK
004193: 26,3264           06060                           TC       INTPRET
004194: 26,3265           67214                           BON      SLOAD                                 #  IF ON LUNAR SURFACE,INITIALIZE WITH
004195: 26,3266           04307                                    SURFFLAG                              #  WSURFPOS AND WSURFVEL INSTEAD OF
004196: 26,3267           55273                                    WLSRFPOS                              #  WRENDPOS AND WRENDVEL
004197: 26,3270           02001                                    WRENDPOS
004198: 26,3271           77650                           GOTO
004199: 26,3272           55275                                    WPOSTORE
004200: 26,3273           77735        WLSRFPOS           SLOAD
004201: 26,3274           02007                                    WSURFPOS
004202: 26,3275           77661        WPOSTORE           SR                                             #  SHIFT TO B-19 SCALE
004203: 26,3276           20606                                    5
004204: 26,3277           02401                           STORE    W
004205: 26,3300           02411                           STORE    W          +8D
004206: 26,3301           02421                           STORE    W          +16D
004207: 26,3302           67214                           BON      SLOAD
004208: 26,3303           04307                                    SURFFLAG
004209: 26,3304           55310                                    WLSRFVEL
004210: 26,3305           02002                                    WRENDVEL
004211: 26,3306           77650                           GOTO
004212: 26,3307           55312                                    WVELSTOR
004213: 26,3310           77735        WLSRFVEL           SLOAD
004214: 26,3311           02010                                    WSURFVEL
004215: 26,3312           02511        WVELSTOR           STORE    W          +72D


004217: 26,3313           02521                           STORE    W          +80D
004218: 26,3314           02531                           STORE    W          +88D
004219: 26,3315           77735                           SLOAD
004220: 26,3316           02003                                    WSHAFT
004221: 26,3317           02621                           STORE    W          +144D
004222: 26,3320           77735                           SLOAD
004223: 26,3321           02004                                    WTRUN
004224: 26,3322           02631                           STORE    W          +152D
004225: 26,3323           66214                           SET      SSP                                   #  SET RENDWFLG - W-MATRIX VALID
004226: 26,3324           02476                                    RENDWFLG
004227: 26,3325           03463                                    MARKCTR                               #  SET MARK COUNTER EQUAL ZERO
004228: 26,3326           00000                                    0
004229: 26,3327           77616                           RVQ
004230:
004231: 26,3330  E5,1400                                  EBANK=   W
004232: 26,3330           54065        WBANK              BBCON    WLINIT
004233: 26,3331  E7,1457                                  EBANK=   AIG
004234: 26,3331           54067        AIGBANK            BBCON    LSR22.3
004235:
004236:                                                                                                  #  GETULC
004237:
004238:                                                                                                  #  THIS SUBROUTINE COMPUTES THE RELATIVE POSITION VECTOR BETWEEN THE CSM
004239:                                                                                                  #  AND THE LM, LEAVING THE UNIT VECTOR IN THE PUSHLIST AND MPAC AND THE
004240:                                                                                                  #  MAGNITUDE IN 36D.
004241:
004242: 26,3332           77201        GETULC             SETPD    VLOAD
004243: 26,3333           00001                                    0
004244: 26,3334           01645                                    DELTALEM
004245: 26,3335           77754                           LXA,2
004246: 26,3336           03720                                    SCALSHFT                              #  LOAD X2 WITH SCALE SHIFT
004247: 26,3337           53257                           VSR*     VAD
004248: 26,3340           57165                                    9D,2                                  #  SHIFT FOR EARTH/MOON SPHERE
004249: 26,3341           01661                                    RCVLEM
004250: 26,3342           53715                           PDVL     VSR*
004251: 26,3343           01573                                    DELTACSM
004252: 26,3344           57165                                    9D,2                                  #  SHIFT FOR EARTH/MOON SPHERE
004253: 26,3345           52255                           VAD      VSU
004254: 26,3346           01607                                    RCVCSM
004255: 26,3347           41434                           RTB      PUSH                                  #  USE NORMUNIT TO PRESERVE ACCURACY
004256: 26,3350           21722                                    NORMUNX1
004257: 26,3351           17724                           STODL    ULC
004258: 26,3352           00045                                    36D
004259: 26,3353           77657                           SL*                                            #  ADJUST MAGNITUDE FROM NORMUNIT
004260: 26,3354           20201                                    0,1
004261: 26,3355           24045                           STOVL    36D                                   #  ULC IN PD0 AND MPAC,RLC IN 36D
004262: 26,3356           03724                                    ULC
004263: 26,3357           77616                           RVQ
004264:
004265:                                                                                                  #  RADARANG
004266:
004267:                                                                                                  #  THIS SUBROUTINE COMPUTES SINTHETA = -ULC DOT MY


004269:                                                                                                  #  RXZ = (SQRT (1-SINTHETA**2))RLC
004270:                                                                                                  #  OUTPUT
004271:                                                                                                  #   ULC IN ULC, PD0
004272:                                                                                                  #   RLC  IN PD36D
004273:                                                                                                  #   SIN THETA IN SINTHETA AND PD6
004274:                                                                                                  #   RXZ NORM IN RXZ (N IN X1)
004275: 26,3360           45020        RADARANG           STQ      CALL
004276: 26,3361           03675                                    RDRET
004277: 26,3362           55332                                    GETULC
004278: 26,3363           50276                           VCOMP    DOT
004279: 26,3364           03705                                    MY
004280: 26,3365           41572                           SL1R     PUSH                                  #  SIN THETA TO PD6
004281: 26,3366           03732                           STORE    SINTHETA
004282: 26,3367           44316                           DSQ      BDSU
004283: 26,3370           06475                                    DP1/4TH                               #  1 - (SIN THETA)**2
004284: 26,3371           41366                           SQRT     DMP
004285: 26,3372           00045                                    36D
004286: 26,3373           60352                           SL1      NORM
004287: 26,3374           00047                                    X1                                    #  SET SHIFT COUNTER IN X1
004288: 26,3375           03722                           STORE    RXZ
004289: 26,3376           77650                           GOTO                                           #  EXIT
004290: 26,3377           03675                                    RDRET
004291: 26,3400           45020        LGCUPDTE           STQ      CALL
004292: 26,3401           03675                                    LGRET
004293: 26,3402           46514                                    INCORP1
004294: 26,3403           51575                           VLOAD    ABVAL
004295: 26,3404           02673                                    DELTAX     +6
004296: 26,3405           53754                           LXA,2    SRR*
004297: 26,3406           03720                                    SCALSHFT                              #  0-MOON. 2-EARTH
004298: 26,3407           56174                                    2,2                                   #  SET VEL DISPLAY TO B-7
004299: 26,3410           24317                           STOVL    R22DISP    +2
004300: 26,3411           02665                                    DELTAX
004301: 26,3412           53646                           ABVAL    SRR*
004302: 26,3413           56174                                    2,2                                   #  SET POS DISPLAY TO B-29
004303: 26,3414           00315                           STORE    R22DISP
004304: 26,3415           54335                           SLOAD    SR
004305: 26,3416           02005                                    RMAX
004306: 26,3417           20613                                    10D
004307: 26,3420           50025                           DSU      BMN
004308: 26,3421           00315                                    R22DISP
004309: 26,3422           50650                                    R22LEM96                              #  GO DISPLAY
004310: 26,3423           45335                           SLOAD    DSU
004311: 26,3424           02006                                    VMAX
004312: 26,3425           00317                                    R22DISP    +2                         #  VMAX MINUS VEL. DEVIATION
004313: 26,3426           77640                           BMN
004314: 26,3427           50650                                    R22LEM96                              #  GO DISPLAY
004315: 26,3430           77624        ASTOK              CALL
004316: 26,3431           46726                                    INCORP2
004317: 26,3432           77650                           GOTO
004318: 26,3433           03675                                    LGRET
004319:


004321: 26,3434           00103 03370  IMUVAR             2DEC     E-6        B12                        #  RAD**2
004322:
004323: 26,3436           00241        WSIZE              DEC      161        B-14
004324: 26,3437           31103 36652  2PI/8              2DEC     3.141592653 B-2
004325:
004326: 26,3441  E7,1456                                  EBANK=   LOSCOUNT
004327:


004329:                                                                                                  #  PROGRAM NAME LRS24.1   RR SEARCH ROUTINE
004330:                                                                                                  #  MOD NO  0        BY  P VOLANTE  SDC          DATE 1-15-67
004331:
004332:
004333:                                                                                                  #  FUNCTIONAL DESCRIPTION
004334:
004335:                                                                                                  #  DRIVES THE RENDEZVOUS RADAR IN A HEXAGONAL SEARCH PATTERN ABOUT THE LOS TO THE CSM (COMPUTED FROM THE CSM AND LM
004336:                                                                                                  #  STATE VECTORS) CHECKING FOR THE DATA GOOD DISCRETE AND MONITORING THE ANGLE BETWEEN THE RADAR BORESIGHT AND THE
004337:                                                                                                  #  LM +Z AXIS. IF THIS ANGLE EXCEEDS 30 DEGREES THE PREFERRED TRACKING ATTITUDE ROUTINE IS CALLED TO PERFORM AN
004338:                                                                                                  #  ATTITUDE MANEUVER.
004339:
004340:
004341:                                                                                                  #  CALLING SEQUENCE - BANKCALL FOR LRS24.1
004342:
004343:
004344:                                                                                                  #  SUBROUTINES CALLED
004345:
004346:                                                                                                  #        LEMCONIC      R61LEM
004347:                                                                                                  #        CSMCONIC      RRDESSM
004348:                                                                                                  #        JOBDELAY      FLAGDOWN
004349:                                                                                                  #        WAITLIST      FLAGUP
004350:                                                                                                  #        RRNB          BANKCALL
004351:
004352:
004353:                                                                                                  #  EXIT -  TO ENDOFJOB WHEN THE SEARCH FLAG (SRCHOPT) IS NOT SET
004354:
004355:
004356:                                                                                                  #  OUTPUT
004357:
004358:                                                                                                  #      DATAGOOD (SP)-FOR DISPLAY IN R1- 00000 INDICATES NO LOCKON
004359:                                                                                                  #                                       11111 INDICATES LOCKON ACHIEVED
004360:                                                                                                  #      OMEGAD   (SP)-FOR DISPLAY IN R2- ANGLE BETWEEN RR BORESIGNT VECTOR AND THE SPACECRAFT +Z AXIS
004361:
004362:                                                                                                  #  ERASABLE INITIALIZATION REQUIRED
004363:                                                                                                  #     SEARCH FLAG MUST BE SET
004364:                                                                                                  #     LM AND CSM STATE VECTORS AND REFSMMAT MATRIX
004365:                                                                                                  #  DEBRIS
004366:
004367:                                                                                                  #     RLMSRCH      UXVECT
004368:                                                                                                  #     VXRLM        UYVECT
004369:                                                                                                  #     LOSDESRD     NSRCHPNT
004370:                                                                                                  #     DATAGOOD     OMEGAD
004371:                                                                                                  #     MPAC         PUSHLIST
004372:
004373:
004374: 26,3441                                           COUNT*   $$/LRS24
004375: 26,3441           34746        LRS24.1            CAF      ZERO
004376: 26,3442           55736                           TS       NSRCHPNT                              #  SET SEARCH PATTERN POINT COUNTER TO ZERO
004377: 26,3443           34727        CHKSRCH            CAF      BIT14                                 #  ISSUE AUTO TRACK ENABLE TO RADAR
004378: 26,3444           00006                           EXTEND


004380: 26,3445           05012                           WOR      CHAN12
004381: 26,3446           34727                           CAF      SRCHOBIT                              #  CHECK IF SEARCH STILL REQUESTED
004382: 26,3447           70076                           MASK     FLAGWRD2                              #  (SRCHOPT FLAG SET)
004383: 26,3450           00006                           EXTEND
004384: 26,3451           15146                           BZF      ENDOFJOB                              #  NO-TERMINATE JOB
004385:
004386:
004387: 26,3452           33713                           CAF      6SECONDS                              #  SCHEDULE TASK TO DRIVE RADAR TO NEXT PT.
004388: 26,3453           00004                           INHINT
004389: 26,3454           05205                           TC       WAITLIST                              #  IN 6 SECONDS
004390: 26,3455  E7,1456                                  EBANK=   LOSCOUNT
004391: 26,3455           03642 54067                     2CADR    CALLDGCH
004392:
004393: 26,3457           00003                           RELINT
004394: 26,3460           40110                           CS       RADMODES                              #  IS REMODE IN PROGRESS
004395: 26,3461           74727                           MASK     REMODBIT
004396: 26,3462           00006                           EXTEND
004397: 26,3463           15146                           BZF      ENDOFJOB                              #  YES- WAIT SIX SECONDS
004398: 26,3464           06060                           TC       INTPRET
004399:
004400: 26,3465           43234                           RTB      DAD                                   #  COMPUTE LOS AT PRESENT TIME + 1.5 SEC.
004401: 26,3466           21603                                    LOADTIME
004402: 26,3467           15715                                    1.5SECS
004403: 26,3470           34041        LRS24.11           STCALL   TDEC1
004404: 26,3471           27136                                    LEMCONIC                              #  EXTRAPOLATE LM STATE VECTOR
004405: 26,3472           77775                           VLOAD
004406: 26,3473           00001                                    RATT
004407: 26,3474           27676                           STOVL    RLMSRCH                               #  SAVE LEM POSITION
004408: 26,3475           00007                                    VATT
004409: 26,3476           17740                           STODL    SAVLEMV                               #  SAVE LEM VELOCITY
004410: 26,3477           00015                                    TAT
004411: 26,3500           34041                           STCALL   TDEC1                                 #  EXTRAPOLATE CSM STATE VECTOR
004412: 26,3501           27124                                    CSMCONIC                              #  EXTRAPOLATE CSM STATE VECTOR
004413: 26,3502           52375                           VLOAD    VSU                                   #  LOS VECTOR = R(CSM)-R(LM)
004414: 26,3503           00001                                    RATT
004415: 26,3504           03676                                    RLMSRCH
004416: 26,3505           77656                           UNIT
004417: 26,3506           27712                           STOVL    LOSDESRD                              #  STORE DESIRED LOS
004418: 26,3507           00007                                    VATT                                  #  COMPUTE UNIT(V(CM) CROSS R(CM))
004419: 26,3510           47256                           UNIT     VXV
004420: 26,3511           00001                                    RATT
004421: 26,3512           77656                           UNIT
004422: 26,3513           03704                           STORE    VXRCM
004423: 26,3514           52375                           VLOAD    VSU
004424: 26,3515           00007                                    VATT
004425: 26,3516           03740                                    SAVLEMV
004426: 26,3517           76521                           MXV      VSL1                                  #  CONVERT FROM REFERENCE TO STABLE MEMBER
004427: 26,3520           01732                                    REFSMMAT
004428: 26,3521           03740                           STORE    SAVLEMV                               #  VLC = V(CSM) - V(LM)
004429: 26,3522           53135                           SLOAD    BZE                                   #  CHECK IF N=0


004431: 26,3523           03737                                    NSRCHPNT
004432: 26,3524           55635                                    DESGLOS                               #  YES-DESIGNATE ALONG LOS
004433: 26,3525           53025                           DSU      BZE                                   #  IS N=1
004434: 26,3526           15711                                    ONEOCT                                #  YES-CALCULATE X AND Y AXES OF
004435: 26,3527           55622                                    CALCXY                                #  SEARCH PATTERN COORDINATE SYSTEM
004436: 26,3530           77775                           VLOAD                                          #  NO-ROTATE X-Y AXES TO NEXT SEARCH POINT
004437: 26,3531           03720                                    UXVECT
004438: 26,3532           24015                           STOVL    UXVECTPR                              #  SAVE ORIGINAL X AND Y VECTORS
004439: 26,3533           03726                                    UYVECT                                #  UXPRIME = ORIGINAL UX
004440: 26,3534           00023                           STORE    UYVECTPR                              #  UYPRIME = ORIGINAL UY
004441: 26,3535           77761                           VXSC
004442: 26,3536           15705                                    SIN60DEG                              #  UX =(COS 60)UXPR +(SIN 60)UYPR
004443: 26,3537           27720                           STOVL    UXVECT
004444: 26,3540           00015                                    UXVECTPR
004445: 26,3541           53361                           VXSC     VAD
004446: 26,3542           06503                                    COS60DEG
004447: 26,3543           03720                                    UXVECT
004448: 26,3544           77656                           UNIT
004449: 26,3545           27720                           STOVL    UXVECT
004450: 26,3546           00015                                    UXVECTPR                              #  UY=(-SIN60)UXPR +(COS 60)UYPR
004451: 26,3547           77761                           VXSC
004452: 26,3550           15705                                    SIN60DEG
004453: 26,3551           27726                           STOVL    UYVECT
004454: 26,3552           00023                                    UYVECTPR
004455: 26,3553           52361                           VXSC     VSU
004456: 26,3554           06503                                    COS60DEG
004457: 26,3555           03726                                    UYVECT
004458: 26,3556           77656                           UNIT
004459: 26,3557           03726                           STORE    UYVECT
004460: 26,3560           53361        OFFCALC            VXSC     VAD                                   #  OFFSET VECTOR = K(UY)
004461: 26,3561           15707                                    OFFSTFAC                              #  LOS VECTOR + OFFSET VECTOR DEFINES
004462: 26,3562           03712                                    LOSDESRD                              #  DESIRED POINT IN SEARCH PATTERN
004463: 26,3563           64256                           UNIT     MXV
004464: 26,3564           01732                                    REFSMMAT                              #  CONVERT TO STABLE MEMBER COORDINATES
004465: 26,3565           77772                           VSL1
004466: 26,3566           25101        CONTDESG           STOVL    RRTARGET
004467: 26,3567           03740                                    SAVLEMV
004468: 26,3570           01757                           STORE    LOSVEL
004469: 26,3571           77776                           EXIT
004470: 26,3572           00004                           INHINT
004471: 26,3573           06050                           TC       KILLTASK                              #  KILL ANY PRESENTLY WAITLISTED TASK
004472: 26,3574           52573                           CADR     DESLOOP    +2                         #  WHICH WOULD DESIGNATE TO THE LAST
004473:                                                                                                  #  POINT IN THE PATTERN
004474: 26,3575           44726        CONTDES2           CS       CDESBIT
004475: 26,3576           70110                           MASK     RADMODES                              #  SET BIT 15 OF RADMODES TO INDICATE
004476: 26,3577           64726                           AD       CDESBIT                               #  A CONTINUOUS DESIGNATE WANTED.
004477: 26,3600           54110                           TS       RADMODES
004478: 26,3601           06060                           TC       INTPRET
004479:
004480: 26,3602           77624                           CALL


004482: 26,3603           52364                                    RRDESSM                               #  DESIGNATE RADAR TO RRTARGET VECTOR
004483:
004484: 26,3604           77776                           EXIT
004485: 26,3605           03674                           TC       LIMALARM                              #  LOS NOT IN MODE 2 COVERAGE (P22)
004486: 26,3606           03674                           TC       LIMALARM                              #  VEHICLE MANEUVER REQUIRED (P20)
004487:
004488:                                                                                                  #  COMPUTE OMEGA,ANGLE  BETWEEN RR LOS AND
004489:                                                                                                  #  SPACECRAFT +Z AXIS
004490: 26,3607           00006        OMEGCALC           EXTEND
004491: 26,3610           30036                           DCA      CDUT
004492: 26,3611           53753                           DXCH     TANGNB
004493: 26,3612           06060                           TC       INTPRET
004494: 26,3613           77624                           CALL
004495: 26,3614           46041                                    RRNB
004496: 26,3615           65545                           DLOAD    ACOS                                  #  OMEGA IS ARCCOSINE OF Z-COMPONENT OF
004497: 26,3616           00045                                    36D                                   #  VECTOR COMPUTED BY RRNB (LEFT AT 32D)
004498: 26,3617           03735                           STORE    OMEGDISP                              #  STORE FOR DISPLAY IN R2
004499: 26,3620           77776                           EXIT
004500: 26,3621           05146                           TC       ENDOFJOB
004501:


004503:                                                                                                  #  CALCULATE X AND Y VECTORS FOR SEARCH PATTERN COORDINATE SYSTEM
004504:
004505: 26,3622           47375        CALCXY             VLOAD    VXV
004506: 26,3623           03704                                    VXRCM
004507: 26,3624           03712                                    LOSDESRD
004508: 26,3625           77656                           UNIT
004509: 26,3626           27720                           STOVL    UXVECT                                #  UX = (VLM X RLM)X LOS
004510: 26,3627           03712                                    LOSDESRD
004511: 26,3630           53435                           VXV      UNIT
004512: 26,3631           03720                                    UXVECT
004513: 26,3632           03726                           STORE    UYVECT                                #  UY = LOS X UX
004514: 26,3633           77650                           GOTO
004515: 26,3634           55560                                    OFFCALC
004516:
004517:
004518: 26,3635           64375        DESGLOS            VLOAD    MXV                                   #  WHEN N= 0,DESIGNATE ALONG LOS
004519: 26,3636           03712                                    LOSDESRD
004520: 26,3637           01732                                    REFSMMAT                              #  CONVERT LOS FROM REFERENCE TO SM COORDS
004521: 26,3640           52172                           VSL1     GOTO
004522: 26,3641           55566                                    CONTDESG
004523:
004524:
004525: 26,3642           30074        CALLDGCH           CAE      FLAGWRD0                              #  IS RENDEZVOUS FLAG SET
004526: 26,3643           74736                           MASK     RNDVZBIT
004527: 26,3644           00006                           EXTEND
004528: 26,3645           15263                           BZF      TASKOVER                              #  NO-EXIT R24
004529: 26,3646           37734                           CAF      PRIO25                                #  YES -SCHEDULE JOB TO DRIVE RADAR TO NEXT
004530: 26,3647           05076                           TC       FINDVAC                               #  POINT IN SEARCH PATTERN
004531: 26,3650  E7,1675                                  EBANK=   RLMSRCH
004532: 26,3650           03653 54067                     2CADR    DATGDCHK
004533:
004534: 26,3652           05263                           TC       TASKOVER
004535:
004536:
004537: 26,3653           34741        DATGDCHK           CAF      BIT4
004538: 26,3654           00006                           EXTEND                                         #  CHECK IF DATA GOOD DISCRETE PRESENT
004539: 26,3655           02033                           RAND     CHAN33
004540: 26,3656           00006                           EXTEND
004541: 26,3657           13666                           BZF      STORE1S                               #  YES- GO TO STORE 11111 FOR DISPLAY IN R1
004542: 26,3660           46263                           CS       SIX
004543: 26,3661           61736                           AD       NSRCHPNT                              #  IS N GREATER THAN 6
004544: 26,3662           00006                           EXTEND
004545: 26,3663           13441                           BZF      LRS24.1                               #  YES - RESET N = 0 AND START AROUND AGAIN
004546: 26,3664           25736                           INCR     NSRCHPNT                              #  NO-SET N = N+1 AN GO TO
004547: 26,3665           13443                           TCF      CHKSRCH                               #  NEXT POINT IN PATTERN
004548:
004549:
004550: 26,3666           33703        STORE1S            CAF      ALL1S                                 #  STORE 11111 FOR DISPLAY IN R1
004551: 26,3667           55733                           TS       DATAGOOD


004553: 26,3670           00004                           INHINT
004554: 26,3671           06050                           TC       KILLTASK                              #  DELETE DESIGNATE TASK FROM
004555: 26,3672           52573                           CADR     DESLOOP    +2                         #  WAITLIST USING KILLTASK
004556: 26,3673           05146                           TC       ENDOFJOB
004557:
004558: 26,3674           05571        LIMALARM           TC       ALARM                                 #  ISSUE ALARM 527-LOS NOT IN MODE2
004559: 26,3675           00527                           OCT      527                                   #  COVERAGE IN P22 OR VEHICLE MANEUVER
004560: 26,3676           00004                           INHINT                                         #  REQUIRED IN P20
004561: 26,3677           06050                           TC       KILLTASK                              #  KILL WAITLIST CALL FOR NEXT
004562: 26,3700           55642                           CADR     CALLDGCH                              #  POINT IN SEARCH PATTERN
004563: 26,3701           06032                           TC       CLRADMD1                              #  CLEAR BITS 10 & 15 IN RADMODES
004564: 26,3702           05146                           TC       ENDOFJOB
004565:
004566:
004567: 26,3703           25547        ALL1S              DEC      11111      B-14
004568: 26,3704           33555 01106  SIN60DEG           2DEC     .86603
004569:
004570: 26,3706  23,2502               COS60DEG           =        DPHALF                                #  (2DEC   .50)
004571: 26,3706                        UXVECTPR           EQUALS   12D                                   #  PREVIOUS
004572: 26,3706                        UYVECTPR           EQUALS   18D
004573: 26,3706                        RLMUNIT            EQUALS   12D
004574: 26,3706           01642 11045  OFFSTFAC           2DEC     0.05678                               #  TANGENT OF 3.25 DEGREES
004575:
004576: 26,3710           00001        ONEOCT             OCT      00001                                 #  **** NOTE-THESE TWO CONSTANTS MUST ****
004577: 26,3711           00000 00454  3SECONDS           2DEC     300        B-28                       #  **** BE IN THIS ORDER BECAUSE      ****
004578:
004579:                                                                                                  #  **** ONEOCT NEEDS A LOWER ORDER    ****
004580:                                                                                                  #  **** WORD OF ZEROES                ****
004581: 26,3713           01130        6SECONDS           DEC      600        B-14
004582: 26,3714           00000 00226  1.5SECS            2DEC     150        B-28
004583:
004584: 26,3716  23,2504               ZERO/SP            EQUALS   HI6ZEROS
004585:    4607                                           BLOCK    02
004586:    6000                                           SETLOC   FFTAG5
004587:    6000                                           BANK
004588:    6043                                           COUNT*   $$/P20
004589:    6043           00006        GOTOV56            EXTEND                                         #  P20 TERMINATES BY GOTOV56 INSTEAD OF
004590:    6044           36047                           DCA      VB56CADR                              #  GOTOPOOH
004591:    6045           15167                           TCF      SUPDXCHZ
004592:    6046  E7,1471                                  EBANK=   WHOCARES
004593:    6046           03020 66107  VB56CADR           2CADR    TRMTRACK
004594:


004596:                                                                                                  #  W-MATRIX MONITOR
004597:
004598: 31,2007                                           BANK     31
004599: 31,2000                                           SETLOC   VB67
004600: 31,2000                                           BANK
004601: 31,2007                                           COUNT*   $$/EXTVB
004602:
004603: 31,2007  E4,1571                                  EBANK=   WWPOS
004604:
004605: 31,2007           06060        V67CALL            TC       INTPRET
004606: 31,2010           77624                           CALL
004607: 31,2011           62120                                    V67WW
004608: 31,2012           77776                           EXIT
004609: 31,2013           00006                           EXTEND                                         #  SAVE THE PRESENT N99 VALUES FOR
004610: 31,2014           31572                           DCA      WWPOS                                 #  COMPARISON AFTER THE DISPLAY
004611: 31,2015           53600                           DXCH     WWBIAS     +2
004612: 31,2016           00006                           EXTEND
004613: 31,2017           31574                           DCA      WWVEL
004614: 31,2020           53602                           DXCH     WWBIAS     +4
004615: 31,2021           00006                           EXTEND
004616: 31,2022           31576                           DCA      WWBIAS
004617: 31,2023           53604                           DXCH     WWBIAS     +6
004618: 31,2024           32143        V06N99DS           CAF      V06N99
004619: 31,2025           04607                           TC       BANKCALL
004620: 31,2026           20323                           CADR     GOXDSPF
004621: 31,2027           15474                           TCF      ENDEXT
004622: 31,2030           12032                           TCF      V6N99PRO
004623: 31,2031           12024                           TCF      V06N99DS
004624: 31,2032           22007        V6N99PRO           ZL
004625: 31,2033           34747                           CA       FIVE
004626: 31,2034           54002        N99LOOP            TS       Q
004627: 31,2035           50002                           INDEX    Q
004628: 31,2036           41571                           CS       WWPOS
004629: 31,2037           50002                           INDEX    Q
004630: 31,2040           61577                           AD       WWPOS      +6
004631: 31,2041           26001                           ADS      L
004632: 31,2042           10002                           CCS      Q                                     #  THE SUM OF ALL DIFFERENCES MUST BE ZERO.
004633: 31,2043           12034                           TCF      N99LOOP
004634: 31,2044           22000                           LXCH     A
004635: 31,2045           00006                           EXTEND
004636: 31,2046           12051                           BZF      V06N9933
004637: 31,2047           05506                           TC       UPFLAG
004638: 31,2050           00160                           ADRES    V67FLAG
004639:
004640: 31,2051           06060        V06N9933           TC       INTPRET
004641: 31,2052           77414                           BON      EXIT
004642: 31,2053           03707                                    V67FLAG
004643: 31,2054           62056                                    +2
004644: 31,2055           15474                           TCF      ENDEXT
004645: 31,2056           77745                           DLOAD


004647: 31,2057           02172                                    WWPOS
004648: 31,2060           72412                           SL4      SL1
004649: 31,2061           14001                           STODL    0D
004650: 31,2062           02174                                    WWVEL
004651: 31,2063           14003                           STODL    2D
004652: 31,2064           02176                                    WWBIAS
004653: 31,2065           77661                           SL                                             #  SHIFT FROM NOUN SCALING (B-5) TO
004654: 31,2066           20213                                    10D                                   #  INTERNAL SCALING (B+5)
004655: 31,2067           00005                           STORE    4D
004656: 31,2070           72014                           BON      LXA,1
004657: 31,2071           04307                                    SURFFLAG
004658: 31,2072           62102                                    V67SURF
004659: 31,2073           00000                                    0D
004660: 31,2074           72130                           SXA,1    LXA,1
004661: 31,2075           02000                                    WRENDPOS
004662: 31,2076           00002                                    2D
004663: 31,2077           52130                           SXA,1    GOTO
004664: 31,2100           02001                                    WRENDVEL
004665: 31,2101           62110                                    V67CLRF
004666: 31,2102           66150        V67SURF            LXA,1    SXA,1
004667: 31,2103           00000                                    0D
004668: 31,2104           02006                                    WSURFPOS
004669: 31,2105           66150                           LXA,1    SXA,1
004670: 31,2106           00002                                    2D
004671: 31,2107           02007                                    WSURFVEL
004672: 31,2110           66150        V67CLRF            LXA,1    SXA,1
004673: 31,2111           00004                                    4D
004674: 31,2112           02003                                    WTRUN
004675: 31,2113           77730                           SXA,1
004676: 31,2114           02002                                    WSHAFT
004677: 31,2115           77414                           CLEAR    EXIT
004678: 31,2116           02676                                    RENDWFLG
004679: 31,2117           15474                           TCF      ENDEXT
004680: 31,2120           40020        V67WW              STQ      BOV
004681: 31,2121           00051                                    S2
004682: 31,2122           62123                                    +1
004683: 31,2123           45014                           CLEAR    CALL
004684: 31,2124           03667                                    V67FLAG
004685: 31,2125           27447                                    INTSTALL
004686: 31,2126           71331                           SSP      DLOAD
004687: 31,2127           00051                                    S1
004688: 31,2130           00006                           DEC      6          B-14
004689: 31,2131           06505                                    ZEROVECS
004690: 31,2132           02172                           STORE    WWPOS
004691: 31,2133           02174                           STORE    WWVEL
004692: 31,2134           02176                           STORE    WWBIAS
004693: 31,2135           77770                           AXT,1
004694: 31,2136           00066                           DEC      54         B-14
004695: 31,2137           47573        NXPOSVEL           VLOAD*   VSQ
004696: 31,2140           02467                                    W          +54D,1


004698: 31,2141           77650                           GOTO
004699: 31,2142           60002                                    ADDPOS
004700: 31,2143           01543        V06N99             VN       0699
004701:
004702: 30,2000                                           SETLOC   VB67A
004703: 30,2000                                           BANK
004704: 30,2002                                           COUNT*   $$/EXTVB
004705:
004706: 30,2002           77615        ADDPOS             DAD
004707: 30,2003           02172                                    WWPOS
004708: 30,2004           02172                           STORE    WWPOS
004709: 30,2005           47573                           VLOAD*   VSQ
004710: 30,2006           02555                                    W          +108D,1
004711: 30,2007           77615                           DAD
004712: 30,2010           02174                                    WWVEL
004713: 30,2011           02174                           STORE    WWVEL
004714: 30,2012           47573                           VLOAD*   VSQ
004715: 30,2013           02643                                    W          +162D,1
004716: 30,2014           77615                           DAD
004717: 30,2015           02176                                    WWBIAS
004718: 30,2016           02176                           STORE    WWBIAS
004719: 30,2017           75500                           TIX,1    SQRT
004720: 30,2020           62137                                    NXPOSVEL
004721: 30,2021           77661                           SR                                             #  SHIFT FROM INTERNAL SCALING (B+5) TO
004722: 30,2022           20613                                    10D                                   #  NOUN SCALING (B-5)
004723: 30,2023           16176                           STODL    WWBIAS
004724: 30,2024           02174                                    WWVEL
004725: 30,2025           77766                           SQRT
004726: 30,2026           16174                           STODL    WWVEL
004727: 30,2027           02172                                    WWPOS
004728: 30,2030           77766                           SQRT
004729: 30,2031           02172                           STORE    WWPOS
004730: 30,2032           52000                           BOV      GOTO
004731: 30,2033           60035                                    +2
004732: 30,2034           60042                                    V67XXX
004733: 30,2035           77745                           DLOAD
004734: 30,2036           06513                                    DPPOSMAX
004735: 30,2037           02172                           STORE    WWPOS
004736: 30,2040           02174                           STORE    WWVEL
004737: 30,2041           02176                           STORE    WWBIAS
004738: 30,2042           45345        V67XXX             DLOAD    DSU
004739: 30,2043           02172                                    WWPOS
004740: 30,2044           20060                                    FT99999
004741: 30,2045           71240                           BMN      DLOAD
004742: 30,2046           60051                                    +3
004743: 30,2047           20060                                    FT99999
004744: 30,2050           02172                           STORE    WWPOS
004745: 30,2051           66150                           LXA,1    SXA,1
004746: 30,2052           00051                                    S2
004747: 30,2053           00052                                    QPRET


004749: 30,2054           77776                           EXIT
004750: 30,2055           04626                           TC       POSTJUMP
004751: 30,2056           27460                           CADR     INTWAKE
004752:
004753: 30,2057           01670 17000  FT99999            2DEC     30479      B-19
004754:


004756: 25,3651                                           BANK     25
004757: 25,2000                                           SETLOC   RADARUPT
004758: 25,2000                                           BANK
004759: 25,3651                                           COUNT*   $$/RRUPT
004760:
004761: 25,3651  E7,1456                                  EBANK=   LOSCOUNT
004762:
004763: 25,3651           44740        RADLITES           CS       BIT5
004764: 25,3652           60061                           AD       ITEMP1
004765: 25,3653           10000                           CCS      A
004766: 25,3654           44744                           CS       ONE


004768: 25,3655           13705                           TCF      VLIGHT


004770:
004771: 25,3656           14561                           TCF      RRTRKF


004773:
004774: 25,3657           54065        HLIGHT             TS       ITEMP5                                #  ZERO ITEMP5 FOR H INDEX
004775:
004776: 25,3660           34740                           CA       HLITE
004777: 25,3661           54001                           TS       L
004778:
004779: 25,3662           34740                           CA       LRALTBIT
004780: 25,3663           70110        BOTHLITS           MASK     RADMODES
004781: 25,3664           10000                           CCS      A
004782: 25,3665           13677                           TCF      ONLITES
004783:
004784: 25,3666           30107                           CA       FLGWRD11
004785: 25,3667           50065                           INDEX    ITEMP5
004786: 25,3670           74744                           MASK     HFLSHBIT
004787: 25,3671           10000                           CCS      A
004788: 25,3672           14561                           TCF      RRTRKF


004790:
004791: 25,3673           00006        LITIT              EXTEND
004792: 25,3674           22066                           QXCH     ITEMP6
004793: 25,3675           04573                           TC       TRKFLON    +1
004794:
004795: 25,3676           00066                           TC       ITEMP6
004796:


004799: 25,3677           50065        ONLITES            INDEX    ITEMP5
004800: 25,3700           44744                           CS       HFLSHBIT
004801: 25,3701           70107                           MASK     FLGWRD11
004802: 25,3702           54107                           TS       FLGWRD11
004803:
004804: 25,3703           30001                           CA       L
004805: 25,3704           13673                           TCF      LITIT
004806: 25,3705           54065        VLIGHT             TS       ITEMP5
004807: 25,3706           34742                           CA       VLITE
004808: 25,3707           54001                           TS       L
004809: 25,3710           34735                           CA       BIT8
004810: 25,3711           13663                           TCF      BOTHLITS
004811:


004813: 25,3712     4740               HLITE              EQUALS   BIT5
004814: 25,3712     4742               VLITE              EQUALS   BIT3
004815:
004816:
004817:
004818:                                                                                                  #  *** END OF LEMP20S .168 ***

End of include-file P20-P25.agc.  Parent file is MAIN.agc


