
Source Code


000002:                                                                                                  ## Copyright:   Public domain.
000003:                                                                                                  ## Filename:    P34-P35,_P74-P75.agc
000004:                                                                                                  ## Purpose:     A section of Luminary revision 210.
000005:                                                                                                  ##              It is part of the source code for the Lunar Module's (LM)
000006:                                                                                                  ##              Apollo Guidance Computer (AGC) for Apollo 15-17.
000007:                                                                                                  ##              This file is intended to be a faithful transcription, except
000008:                                                                                                  ##              that the code format has been changed to conform to the
000009:                                                                                                  ##              requirements of the yaYUL assembler rather than the
000010:                                                                                                  ##              original YUL assembler.
000011:                                                                                                  ## Reference:   pp. 661-705
000012:                                                                                                  ## Assembler:   yaYUL
000013:                                                                                                  ## Contact:     Ron Burkey <info@sandroid.org>.
000014:                                                                                                  ## Website:     www.ibiblio.org/apollo/index.html
000015:                                                                                                  ## Mod history: 2016-11-17 JL   Created from Luminary131 version.
000016:                                                                                                  ##              2016-12-07 HG   Transcribed
000017:                                                                                                  ##              2016-12-07 HG   Fix P00 -> POO
000018:                                                                                                  ##              2016-12-25 RSB  Comment-text proofed using ProoferComments
000019:                                                                                                  ##                              and corrected errors found.
000020:


000022:                                                                                                  #  TRANSFER PHASE INITIATION (TPI) PROGRAMS (P34 AND P74)
000023:
000024:                                                                                                  #  MOD NO -1       LOG SECTION - P32-P35, P72-P75
000025:                                                                                                  #  MOD BY WHITE.P  DATE  1JUNE67
000026:
000027:                                                                                                  #  PURPOSE
000028:
000029:                                                                                                  #        (1) TO CALCULATE THE REQUIRED DELTA V AND OTHER INITIAL CONDITIONS
000030:                                                                                                  #            REQUIRED BY THE ACTIVE VEHICLE FOR EXECUTION OF THE TRANSFER
000031:                                                                                                  #            PHASE INITIATION (TPI) MANEUVER, GIVEN -
000032:
000033:                                                                                                  #            (A) TIME OF IGNITION TIG (TPI) OR THE ELEVATION ANGLE (E) OF
000034:                                                                                                  #                THE ACTIVE/PASSIVE VEHICLE LOS AT TIG (TPI).
000035:
000036:                                                                                                  #            (B) CENTRAL ANGLE OF TRANSFER (CENTANG) FROM TIG (TPI) TO
000037:                                                                                                  #                INTERCEPT TIME (TIG (TPF)).
000038:
000039:                                                                                                  #        (2) TO CALCULATE TIG (TPI) GIVEN E OR E GIVEN TIG (TPI).
000040:
000041:                                                                                                  #        (3) TO CALCULATE THESE PARAMETERS BASED UPON MANEUVER DATA
000042:                                                                                                  #            APPROVED AND KEYED INTO THE DSKY BY THE ASTRONAUT.
000043:
000044:                                                                                                  #        (4) TO DISPLAY TO THE ASTRONAUT AND THE GROUND CERTAIN DEPENDENT
000045:                                                                                                  #            VARIABLES ASSOCIATED WITH THE MANEUVER FOR APPROVAL BY THE
000046:                                                                                                  #            ASTRONAUT/GROUND.
000047:
000048:                                                                                                  #        (5) TO STORE THE TPI TARGET PARAMETERS FOR USE BY THE DESIRED
000049:                                                                                                  #            THRUSTING PROGRAM.
000050:
000051:                                                                                                  #  ASSUMPTIONS
000052:
000053:                                                                                                  #        (1) LM ONLY - THIS PROGRAM IS BASED UPON PREVIOUS COMPLETION OF
000054:                                                                                                  #            THE CONSTANT DELTA ALTITUDE (CDH) PROGRAM (P33/P73).
000055:                                                                                                  #            THEREFORE -
000056:
000057:                                                                                                  #            (A) AT A SELECTED TPI TIME (NOW IN STORAGE) THE LINE OF SIGHT
000058:                                                                                                  #                BETWEEN THE ACTIVE AND PASSIVE VEHICLES WAS SELECTED TO BE
000059:                                                                                                  #                A PRESCRIBED ANGLE (E) (NOW IN STORAGE) FROM THE
000060:                                                                                                  #                HORIZONTAL PLANE DEFINED BY THE ACTIVE VEHICLE POSITION.
000061:
000062:                                                                                                  #            (B) THE TIME BETWEEN CDH IGNITION AND TPI IGNITION WAS
000063:                                                                                                  #                COMPUTED TO BE GREATER THAN 10 MINUTES.
000064:
000065:                                                                                                  #            (C) THE VARIATION OF THE ALTITUDE DIFFERENCE BETWEEN THE
000066:                                                                                                  #                ORBITS WAS MINIMIZED.
000067:
000068:                                                                                                  #            (D) THE PERICENTER ALTITUDES OF ORBITS FOLLOWING CSI AND
000069:
000070:                                                                                                  #                CDH WERE COMPUTED TO BE GREATER THAN 35,000 FT FOR LUNAR
000071:


000073:                                                                                                  #                ORBIT OR 85 NM FOR EARTH ORBIT.
000074:
000075:                                                                                                  #            (E) THE CSI AND CDH MANEUVERS WERE ASSUMED TO BE PARALLEL TO
000076:                                                                                                  #                THE PLANE OF THE PASSIVE VEHICLE ORBIT.  HOWEVER, CREW
000077:                                                                                                  #                MODIFICATION OF DELTA V (LV) COMPONENTS MAY HAVE RESULTED
000078:                                                                                                  #                IN AN OUT-OF-PLANE MANEUVER.
000079:
000080:                                                                                                  #        (2) STATE VECTOR UPDATED BY P27 ARE DISALLOWED DURING AUTOMATIC
000081:                                                                                                  #            STATE VECTOR UPDATING INITIATED BY P20 (SEE ASSUMPTION (4)).
000082:
000083:                                                                                                  #        (3) THIS PROGRAM MUST BE DONE OVER A TRACKING STATION FOR REAL
000084:                                                                                                  #            TIME GROUND PARTICIPATION IN DATA INPUT AND OUTPUT.  COMPUTED
000085:                                                                                                  #            VARIABLES MAY BE STORED FOR LATER VERIFICATION BY THE GROUND.
000086:                                                                                                  #            THESE STORAGE CAPABILITIES ARE LIMITED ONLY TO THE PARAMETERS
000087:                                                                                                  #            FOR ONE THRUSTING MANEUVER AT A TIME EXCEPT FOR CONCENTRIC
000088:                                                                                                  #            FLIGHT PLAN MANEUVER SEQUENCES.
000089:
000090:                                                                                                  #        (4) THE RENDEZVOUS RADAR MAY OR MAY NOT BE USED TO UPDATE THE LM
000091:                                                                                                  #            OR CSM STATE VECTORS FOR THIS PROGRAM.  IF RADAR USE IS
000092:                                                                                                  #            DESIRED THE RADAR WAS TURNED ON AND LOCKED ON THE CSM BY
000093:                                                                                                  #            PREVIOUS SELECTION OF P20.  RADAR SIGHTING MARKS WILL BE MADE
000094:                                                                                                  #            AUTOMATICALLY APPROXIMATELY ONCE A MINUTE WHEN ENABLED BY THE
000095:                                                                                                  #            TRACK AND UPDATE FLAGS (SEE P20).  THE RENDEZVOUS TRACKING
000096:                                                                                                  #            MARK COUNTER IS ZEROED BY THE SELECTION OF P20 AND AFTER EACH
000097:                                                                                                  #            THRUSTING MANEUVER.
000098:
000099:                                                                                                  #        (5) THE ISS NEED NOT BE ON TO COMPLETE THIS PROGRAM.
000100:
000101:                                                                                                  #        (6) THE OPERATION OF THE PROGRAM UTILIZES THE FOLLOWING FLAGS -
000102:
000103:                                                                                                  #                ACTIVE VEHICLE FLAG - DESIGNATES THE VEHICLE WHICH IS
000104:                                                                                                  #                DOING RENDEZVOUS THRUSTING MANEUVERS TO THE PROGRAM WHICH
000105:                                                                                                  #                CALCULATES THE MANEUVER PARAMETERS.  SET AT THE START OF
000106:                                                                                                  #                EACH RENDEZVOUS PRE-THRUSTING PROGRAM.
000107:
000108:                                                                                                  #                FINAL FLAG - SELECTS FINAL PROGRAM DISPLAYS AFTER CREW HAS
000109:                                                                                                  #                SELECTED THE FINAL MANEUVER COMPUTATION CYCLE.
000110:
000111:                                                                                                  #                EXTERNAL DELTA V FLAG - DESIGNATES THE TYPE OF STEERING
000112:                                                                                                  #                REQUIRED FOR EXECUTION OF THIS MANEUVER BY THE THRUSTING
000113:                                                                                                  #                PROGRAM SELECTED AFTER COMPLETION OF THIS PROGRAM.
000114:
000115:                                                                                                  #        (7) ONCE THE PARAMETWRS REQUIRED FOR COMPUTION OF THE MANEUVER
000116:                                                                                                  #            HAVE BEEN COMPLETELY SPECIFIED, THE VALUE OF THE ACTIVE
000117:                                                                                                  #            VEHICLE CENTRAL ANGLE OF TRANSFER IS COMPUTED AND STURED.
000118:                                                                                                  #            THIS NUMBER WILL BE AVAILABLE FOR DISPLAY TO THE ASTRONAUT
000119:                                                                                                  #            THROUGH THE USE OF V06N52.
000120:
000121:                                                                                                  #            THE ASTRONAUT WILL CALL THIS DISPLAY TO VERIFY THAT THE
000122:                                                                                                  #            CENTRAL ANGLE OF TRANSFER OF THE ACTIVE VEHICLE IS NOT WITHIN
000123:


000125:                                                                                                  #            170 TO 190 DEGREES.  IF THE ANGLE IS WITHIN THIS ZONE THE
000126:                                                                                                  #            ASTRONAUT SHOULD REASSESS THE INPUT TARGETING PARAMETERS BASED
000127:                                                                                                  #            UPON DELTA V AND EXPECTED MANEUVER TIME.
000128:
000129:                                                                                                  #        (8) THIS PROGRAM IS SELECTED BY THE ASTRONAUT BY DSKY ENTRY -
000130:
000131:                                                                                                  #                P34 IF THIS VEHICLE IS ACTIVE VEHICLE.
000132:
000133:                                                                                                  #                P74 IF THIS VEHICLE IS PASSIVE VEHICLE.
000134:
000135:                                                                                                  #  INPUT
000136:
000137:                                                                                                  #        (1) TTPI     TIME OF THE TPI MANEUVER
000138:                                                                                                  #        (2) ELEV     DESIRED LOS ANGLE AT TPI
000139:                                                                                                  #        (3) CENTANG  ORBITAL CENTRAL ANGLE OF THE PASSIVE VEHICLE DURING
000140:                                                                                                  #                     TRANSFER FROM TPI TO TIME OF INTERCEPT
000141:
000142:                                                                                                  #  OUTPUT
000143:
000144:                                                                                                  #        (1) TRKMKCNT NUMBER OF MARKS
000145:                                                                                                  #        (2) TTOGO    TIME TO GO
000146:                                                                                                  #        (3) +MGA     MIDDLE GIMBAL ANGLE
000147:                                                                                                  #        (4) TTPI     COMPUTED TIME OF TPI MANEUVER
000148:                                                                                                  #             OR
000149:                                                                                                  #            ELEV     COMPUTED LOS ANGLE AT TPI
000150:                                                                                                  #        (5) POSTTPI  PERIGEE ALTITUDE AFTER THE TPI MANEUVER
000151:                                                                                                  #        (6) DELVTPI  MAGNITUDE OF DELTA V AT TPI
000152:                                                                                                  #        (7) DELVTPF  MAGNITUDE OF DELTA V AT INTERCEPT
000153:                                                                                                  #        (8) DVLOS    DELTA VELOCITY AT TPI - LINE OF SIGHT
000154:                                                                                                  #        (9) DELVLVC  DELTA VELOCITY AT TPI - LOCAL VERTICAL COORDINATES
000155:
000156:                                                                                                  #  DOWNLINK
000157:
000158:                                                                                                  #        (1) TTPI     TIME OF THE TPI MANEUVER
000159:                                                                                                  #        (2) TIG      TIME OF THE TPI MANEUVER
000160:                                                                                                  #        (3) ELEV     DESIRED LOS ANGLE AT TPI
000161:                                                                                                  #        (4) CENTANG  ORBITAL CENTRAL ANGLE OF THE PASSIVE VEHICLE DURING
000162:                                                                                                  #                     TRANSFER FROM TPI TO TIME OF INTERCEPT
000163:                                                                                                  #        (5) DELVEET3 DELTA VELOCITY AT TPI - REFERENCE COORDINATES
000164:                                                                                                  #        (6) TPASS4   TIME OF INTERCEPT
000165:                                                                                                  #  COMMUNICATION TO THRUSTING PROGRAMS
000166:
000167:                                                                                                  #        (1) TIG      TIME OF THE TPI MANEUVER
000168:                                                                                                  #        (2) RTARG    OFFSET TARGET POSITION
000169:                                                                                                  #        (3) TPASS4   TIME OF INTERCEPT
000170:                                                                                                  #        (4) XDELVFLG RESET TO INDICATE LAMBERT (AIMPOINT) VG COMPUTATION
000171:
000172:                                                                                                  #  SUBROUTINES USED
000173:
000174:                                                                                                  #        AVFLAGA
000175:


000177:                                                                                                  #        AVFLAGP
000178:                                                                                                  #        VNPOOH
000179:                                                                                                  #        DISPLAYE
000180:                                                                                                  #        SELECTMU
000181:                                                                                                  #        PRECSET
000182:                                                                                                  #        S33/34.1
000183:                                                                                                  #        ALARM
000184:                                                                                                  #        BANKCALL
000185:                                                                                                  #        GOFLASH
000186:                                                                                                  #        GOTOPOOH
000187:                                                                                                  #        TIMETHET
000188:                                                                                                  #        S34/35.2
000189:                                                                                                  #        PERIAPO1
000190:                                                                                                  #        SHIFTR1
000191:                                                                                                  #        S34/35.5
000192:                                                                                                  #        VN1645
000193:
000194: 35,2000                                           SETLOC   CSI/CDH
000195: 35,2000                                           BANK
000196: 35,2455  E7,1470                                  EBANK=   SUBEXIT
000197: 35,2455                                           COUNT*   $$/P3474
000198: 35,2455           02354        P34                TC       AVFLAGA
000199: 35,2456           02460                           TC       P34/P74A
000200: 35,2457           02361        P74                TC       AVFLAGP
000201: 35,2460           02366        P34/P74A           TC       P20FLGON                              #  SET UPDATFLG, TRACKFLG
000202: 35,2461           33633                           CAF      V06N37                                #  TTPI
000203: 35,2462           03622                           TC       VNPOOH
000204: 35,2463           00006                           EXTEND
000205: 35,2464           33656                           DCA      130DEG
000206: 35,2465           53621                           DXCH     CENTANG
000207: 35,2466           34732                           CAF      EBANK4
000208: 35,2467           54001                           TS       L
000209: 35,2470           32424                           CAF      P30ZERO                               #  INITIALIZE DISPLAYED REGISTERS TO ZERO
000210: 35,2471           55466                           TS       NN                                    #  R1: NN -- NUMBER OF OFFSETS
000211: 35,2472  E4,1647                                  EBANK=   ELEV
000212: 35,2472           22003                           LXCH     EBANK
000213: 35,2473           55647                           TS       ELEV                                  #  R2: ELEV (D.P.) -- ELEVATION ANGLE
000214: 35,2474           55650                           TS       ELEV       +1
000215: 35,2475           22003                           LXCH     EBANK
000216: 35,2476  E7,1470                                  EBANK=   SUBEXIT                               #  CHNG BACK TO WHAT IT WAS BEFORE
000217: 35,2476           03604                           TC       DISPLAYE                              #  V06N55 GOFLASH CALL: NN,ELEV,CENTANG
000218: 35,2477           06060                           TC       INTPRET
000219: 35,2500           71214                           CLEAR    DLOAD
000220: 35,2501           01270                                    ETPIFLAG
000221: 35,2502           03636                                    TTPI
000222: 35,2503           17442                           STODL    TIG
000223: 35,2504           02250                                    ELEV
000224: 35,2505           43054                           BZE      SET
000225: 35,2506           72510                                    P34/P74B
000226: 35,2507           01070                                    ETPIFLAG
000227:


000229: 35,2510           77624        P34/P74B           CALL
000230: 35,2511           20000                                    SELECTMU
000231: 35,2512                        DELELO             EQUALS   26D
000232: 35,2512           43145        P34/P74C           DLOAD    SET
000233: 35,2513           06505                                    ZEROVECS
000234: 35,2514           03460                                    ITSWICH
000235: 35,2515           43014                           BON      CLEAR
000236: 35,2516           01310                                    ETPIFLAG
000237: 35,2517           72521                                    SWCHSET
000238: 35,2520           03660                                    ITSWICH
000239: 35,2521           02310        SWCHSET            STORE    NOMTPI
000240: 35,2522           43345        INTLOOP            DLOAD    DAD
000241: 35,2523           03636                                    TTPI
000242: 35,2524           02310                                    NOMTPI
000243: 35,2525           34041                           STCALL   TDEC1
000244: 35,2526           46401                                    PRECSET
000245: 35,2527           77624                           CALL
000246: 35,2530           72702                                    S33/34.1
000247: 35,2531           77454                           BZE      EXIT
000248: 35,2532           72543                                    SWCHCLR
000249: 35,2533           05571                           TC       ALARM
000250: 35,2534           00611                           OCT      611
000251: 35,2535           34777                           CAF      V05N09
000252: 35,2536           04607                           TC       BANKCALL
000253: 35,2537           20471                           CADR     GOFLASH
000254: 35,2540           06001                           TC       GOTOPOOH
000255: 35,2541           02460                           TC       P34/P74A                              #  PROCEED
000256: 35,2542           02533                           TC       -7                                    #  V32
000257:
000258: 35,2543           43014        SWCHCLR            BONCLR   BON
000259: 35,2544           03600                                    ITSWICH
000260: 35,2545           72522                                    INTLOOP
000261: 35,2546           01310                                    ETPIFLAG
000262: 35,2547           72553                                    P34/P74D                              #  DISPLAY TTPI
000263: 35,2550           77776                           EXIT
000264: 35,2551           03604                           TC       DISPLAYE                              #  DISPLAY ELEV AND CENTANG
000265: 35,2552           02556                           TC       P34/P74E
000266: 35,2553           77776        P34/P74D           EXIT
000267: 35,2554           33633                           CAF      V06N37                                #  TTPI
000268: 35,2555           03622                           TC       VNPOOH
000269: 35,2556           06060        P34/P74E           TC       INTPRET
000270: 35,2557           71201                           SETPD    DLOAD
000271: 35,2560           00001                                    0D
000272: 35,2561           02777                                    RTX1
000273: 35,2562           14047                           STODL    X1
000274: 35,2563           03621                                    CENTANG
000275: 35,2564           71406                           PUSH     COS
000276: 35,2565           16732                           STODL    CSTH
000277: 35,2566           77756                           SIN
000278: 35,2567           26730                           STOVL    SNTH
000279:


000281: 35,2570           03552                                    RPASS3
000282: 35,2571           77657                           VSR*
000283: 35,2572           57176                                    0,2
000284: 35,2573           26655                           STOVL    RVEC
000285: 35,2574           03560                                    VPASS3
000286: 35,2575           43057                           VSR*     SET
000287: 35,2576           57176                                    0,2
000288: 35,2577           03466                                    RVSW
000289: 35,2600           36744                           STCALL   VVEC
000290: 35,2601           24732                                    TIMETHET
000291: 35,2602           77745                           DLOAD
000292: 35,2603           03636                                    TTPI
000293: 35,2604           03610                           STORE    INTIME                                #  FOR INITVEL
000294: 35,2605           77615                           DAD
000295: 35,2606           00037                                    T                                     #  RENDEZVOUS TIME
000296: 35,2607           37631                           STCALL   TPASS4                                #  FOR INITVEL
000297: 35,2610           73224                                    S34/35.2
000298: 35,2611           51575                           VLOAD    ABVAL
000299: 35,2612           02357                                    DELVEET3
000300: 35,2613           27576                           STOVL    DELVTPI
000301: 35,2614           03506                                    VPASS4
000302: 35,2615           51451                           VSU      ABVAL
000303: 35,2616           03566                                    VTPRIME
000304: 35,2617           26341                           STOVL    DELVTPF
000305: 35,2620           03536                                    RACT3
000306: 35,2621           45115                           PDVL     CALL
000307: 35,2622           02330                                    VIPRIME
000308: 35,2623           46337                                    PERIAPO1
000309: 35,2624           77624                           CALL
000310: 35,2625           46447                                    SHIFTR1
000311: 35,2626           17606                           STODL    POSTTPI
000312: 35,2627           03636                                    TTPI
000313: 35,2630           03442                           STORE    TIG
000314: 35,2631           77776                           EXIT
000315: 35,2632           33635                           CAF      V06N58
000316: 35,2633           03622                           TC       VNPOOH
000317: 35,2634           06060                           TC       INTPRET
000318: 35,2635           77624                           CALL
000319: 35,2636           73440                                    S34/35.5
000320: 35,2637           77624                           CALL
000321: 35,2640           73516                                    VN1645
000322: 35,2641           77650                           GOTO
000323: 35,2642           72512                                    P34/P74C
000324:


000326:                                                                                                  #  RENDEZVOUS MID-COURSE MANEUVER PROGRAMS (P35 AND P75)
000327:                                                                                                  #  MOD NO -1       LOG SECTION - P32-P35, P72-P75
000328:                                                                                                  #  MOD BY WHITE.P  DATE  1JUNE67
000329:
000330:                                                                                                  #  PURPOSE
000331:
000332:                                                                                                  #        (1) TO CALCULATE THE REQUIRED DELTA V AND OTHER INITIAL CONDITIONS
000333:                                                                                                  #            REQUIRED BY THE ACTIVE VEHICLE FOR EXECUTION OF THE NEXT
000334:                                                                                                  #            MIDCOURSE CORRECTION OF THE TRANSFER PHASE OF AN ACTIVE
000335:                                                                                                  #            VEHICLE RENDEZVOUS.
000336:
000337:                                                                                                  #        (2) TO DISPLAY TO THE ASTRONAUT AND THE GROUND CERTAIN DEPENDENT
000338:                                                                                                  #            VARIABLES ASSOCIATED WITH THE MANEUVER FOR APPROVAL BY THE
000339:                                                                                                  #            ASTRONAUT/GROUND.
000340:
000341:                                                                                                  #        (3) TO STORE THE TPM TARGET PARAMETERS FOR USE BY THE DESIRED
000342:                                                                                                  #            THRUSTING PROGRAM.
000343:
000344:                                                                                                  #  ASSUMPTIONS
000345:
000346:                                                                                                  #        (1) THE ISS NEED NOT BE ON TO COMPLETE THIS PROGRAM.
000347:
000348:                                                                                                  #        (2) STATE VECTOR UPDATES BY P27 ARE DISALLOWED DURING AUTOMATIC
000349:                                                                                                  #            STATE VECTOR UPDATING INITIATED BY P20 (SEE ASSUMPTION (3)).
000350:
000351:                                                                                                  #        (3) THE RENDEZVOUS RADAR IS ON AND IS LOCKED ON THE CSM.  THIS WAS
000352:                                                                                                  #            DONE DURING PREVIOUS SELECTION OF P20.  RADAR SIGHTING MARKS
000353:                                                                                                  #            WILL BE MADE AUTOMATICALLY APPROXIMATELY ONCE A MINUTE WHEN
000354:                                                                                                  #            ENABLED BY THE TRACK AND UPDATE FLAGS (SEE P20). THE
000355:                                                                                                  #            RENDEZVOUS TRACKING MARK COUNTER IS ZEROED BY THE SELECTION OF
000356:                                                                                                  #            P20 AND AFTER EACH THRUSTING MANEUVER.
000357:
000358:                                                                                                  #        (4) THE OPERATION OF THE PROGRAM UTILIZES THE FOLLOWING FLAGS -
000359:
000360:                                                                                                  #                ACTIVE VEHICLE FLAG - DESIGNATES THE VEHICLE WHICH IS
000361:                                                                                                  #                DOING RENDEZVOUS THRUSTING MANEUVERS TO THE PROGRAM WHICH
000362:                                                                                                  #                CALCULATES THE MANEUVER PARAMETERS.  SET AT THE START OF
000363:                                                                                                  #                EACH RENDEZVOUS PRE-THRUSTING PROGRAM.
000364:
000365:                                                                                                  #                FINAL FLAG - SELECTS FINAL PROGRAM DISPLAYS AFTER CREW HAS
000366:                                                                                                  #                SELECTED THE FINAL MANEUVER COMPUTATION CYCLE.
000367:
000368:                                                                                                  #                EXTERNAL DELTA V FLAG - DESIGNATES THE TYPE OF STEERING
000369:                                                                                                  #                REQUIRED FOR EXECUTION OF THIS MANEUVER BY THE THRUSTING
000370:                                                                                                  #                PROGRAM SELECTED AFTER COMPLETION OF THIS PROGRAM.
000371:
000372:                                                                                                  #        (5) THE TIME OF INTERCEPT (T(INT)) WAS DEFINED BY PREVIOUS
000373:                                                                                                  #            COMPLETION OF THE TRANSFER PHASE INITIATION (TPI) PROGRAM
000374:                                                                                                  #            (P34/P74) AND IS PRESENTLY AVAILABLE IN STORAGE.
000375:


000377:                                                                                                  #        (6) ONCE THE PARAMETERS REQUIRED FOR COMPUTION OF THE MANEUVER
000378:                                                                                                  #            HAVE BEEN COMPLETELY SPECIFIED, THE VALUE OF THE ACTIVE
000379:                                                                                                  #            VEHICLE CENTRAL ANGLE OF TRANSFER IS COMPUTED AND STORED.
000380:                                                                                                  #            THIS NUMBER WILL BE AVAILABLE FOR DISPLAY TO THE ASTRONAUT
000381:                                                                                                  #            THROUGH THE USE OF V06N52.
000382:
000383:                                                                                                  #            THE ASTRONAUT WILL CALL THIS DISPLAY TO VERIFY THAT THE
000384:                                                                                                  #            CENTRAL ANGLE OF TRANSFER OF THE ACTIVE VEHICLE IS NOT WITHIN
000385:                                                                                                  #            170 TO 190 DEGREES.  IF THE ANGLE IS WITHIN THIS ZONE THE
000386:                                                                                                  #            ASTRONAUT SHOULD REASSESS THE INPUT TARGETING PARAMETERS BASED
000387:                                                                                                  #            UPON DELTA V AND EXPECTED MANEUVER TIME.
000388:
000389:                                                                                                  #        (7) THIS PROGRAM IS SELECTED BY THE ASTRONAUT BY DSKY ENTRY -
000390:
000391:                                                                                                  #                P35 IF THIS VEHICLE IS ACTIVE VEHICLE.
000392:
000393:                                                                                                  #                P75 IF THIS VEHICLE IS PASSIVE VEHICLE.
000394:
000395:                                                                                                  #  INPUT
000396:
000397:                                                                                                  #        (1) TPASS4   TIME OF INTERCEPT - SAVED FROM P34/P74
000398:                                                                                                  #  OUTPUT
000399:
000400:                                                                                                  #        (1) TRKMKCNT NUMBER OF MARKS
000401:                                                                                                  #        (2) TTOGO    TIME TO GO
000402:                                                                                                  #        (3) +MGA     MIDDLE GIMBAL ANGLE
000403:                                                                                                  #        (4) DVLOS    DELTA VELOCITY AT MID - LINE OF SIGHT
000404:                                                                                                  #        (5) DELVLVC  DELTA VELOCITY AT MID - LOCAL VERTICAL COORDINATES
000405:
000406:                                                                                                  #  DOWNLINK
000407:
000408:                                                                                                  #        (1) TIG      TIME OF THE TPM MANEUVER
000409:                                                                                                  #        (2) DELVEET3 DELTA VELOCITY AT TPM - REFERENCE COORDINATES
000410:                                                                                                  #        (3) TPASS4   TIME OF INTERCEPT
000411:                                                                                                  #  COMMUNICATION TO THRUSTING PROGRAMS
000412:
000413:                                                                                                  #        (1) TIG      TIME OF THE TPM MANEUVER
000414:                                                                                                  #        (2) RTARG    OFFSET TARGET POSITION
000415:                                                                                                  #        (3) TPASS4   TIME OF INTERCEPT
000416:                                                                                                  #        (4) XDELVFLG RESET TO INDICATE LAMBERT (AIMPOINT) VG COMPUTATION
000417:
000418:                                                                                                  #  SUBROUTINES USED
000419:
000420:                                                                                                  #        AVFLAGA
000421:                                                                                                  #        AVFLAGP
000422:                                                                                                  #        LOADTIME
000423:                                                                                                  #        SELECTMU
000424:                                                                                                  #        PRECSET
000425:                                                                                                  #        S34/35.1
000426:                                                                                                  #        S34/35.2
000427:


000429:                                                                                                  #        S34/35.5
000430:                                                                                                  #        VN1645
000431:
000432: 35,2643                                           COUNT*   $$/P3575
000433: 35,2643  E7,1575                                  EBANK=   KT
000434:
000435: 35,2643           02354        P35                TC       AVFLAGA
000436: 35,2644           00006                           EXTEND
000437: 35,2645           31401                           DCA      ATIGINC
000438: 35,2646           02652                           TC       P35/P75A
000439: 35,2647           02361        P75                TC       AVFLAGP
000440: 35,2650           00006                           EXTEND
000441: 35,2651           31403                           DCA      PTIGINC
000442: 35,2652           53576        P35/P75A           DXCH     KT
000443: 35,2653           02366                           TC       P20FLGON                              #  SET UPDATFLG, TRACKFLG
000444: 35,2654           06060                           TC       INTPRET
000445: 35,2655           77624                           CALL
000446: 35,2656           20000                                    SELECTMU
000447: 35,2657           77634        P35/P75B           RTB
000448: 35,2660           21603                                    LOADTIME
000449: 35,2661           03612                           STORE    TSTRT
000450: 35,2662           77615                           DAD
000451: 35,2663           03576                                    KT
000452: 35,2664           03442                           STORE    TIG
000453: 35,2665           03610                           STORE    INTIME                                #  FOR INITVEL
000454: 35,2666           34041                           STCALL   TDEC1
000455: 35,2667           46401                                    PRECSET                               #  ADVANCE BOTH VEHICLES
000456: 35,2670           77624                           CALL
000457: 35,2671           73212                                    S34/35.1                              #  GET NORM AND LOS FOR TRANSFORM
000458: 35,2672           77624                           CALL
000459: 35,2673           73224                                    S34/35.2                              #  GET DELTA V(LV)
000460: 35,2674           77624                           CALL
000461: 35,2675           73440                                    S34/35.5
000462: 35,2676           77624                           CALL
000463: 35,2677           73516                                    VN1645
000464: 35,2700           77650                           GOTO
000465: 35,2701           72657                                    P35/P75B
000466:


000468:                                                                                                  #  ..... S33/34.1  .....
000469:
000470: 35,2702           66220        S33/34.1           STQ      SSP
000471: 35,2703           03463                                    NORMEX
000472: 35,2704           03614                                    TITER
000473: 35,2705           40000                           OCT      40000
000474: 35,2706           40345                           DLOAD    SETPD
000475: 35,2707           33644                                    MAX250
000476: 35,2710           00001                                    0D
000477: 35,2711           27574                           STOVL    SECMAX
000478: 35,2712           03536                                    RACT3
000479: 35,2713           27500                           STOVL    RAPREC
000480: 35,2714           03544                                    VACT3
000481: 35,2715           27506                           STOVL    VAPREC
000482: 35,2716           03552                                    RPASS3
000483: 35,2717           27522                           STOVL    RPPREC
000484: 35,2720           03560                                    VPASS3
000485: 35,2721           03530                           STORE    VPPREC
000486: 35,2722           77624        ELCALC             CALL
000487: 35,2723           73212                                    S34/35.1                              #  NORMAL AND LOS
000488: 35,2724           63235                           VXV      PDVL
000489: 35,2725           03536                                    RACT3                                 #  (RA*VA)*RA 0D
000490: 35,2726           53515                           PDVL     UNIT                                  #  ULOS AT 6D
000491: 35,2727           03536                                    RACT3
000492: 35,2730           46315                           PDVL     VPROJ                                 #  XCHNJ AND UP
000493: 35,2731           51352                           VSL2     BVSU
000494: 35,2732           02302                                    ULOS
000495: 35,2733           63256                           UNIT     PDVL                                  #  UP AT 0D
000496: 35,2734           63241                           DOT      PDVL                                  #  UP.UN*RA AT 0D
000497: 35,2735           00001                                    0D                                    #  UP IN MPAC
000498: 35,2736           75241                           DOT      SIGN
000499: 35,2737           02302                                    ULOS
000500: 35,2740           65552                           SL1      ACOS
000501: 35,2741           50315                           PDVL     DOT                                   #  EA AT 0D
000502: 35,2742           02302                                    ULOS
000503: 35,2743           03536                                    RACT3
000504: 35,2744           71244                           BPL      DLOAD
000505: 35,2745           72750                                    TESTY
000506: 35,2746           06513                                    DPPOSMAX
000507: 35,2747           41425                           DSU      PUSH
000508: 35,2750           71214        TESTY              BOFF     DLOAD
000509: 35,2751           03740                                    ITSWICH
000510: 35,2752           73177                                    ELEX
000511: 35,2753           03576                                    DELEL
000512: 35,2754           14033                           STODL    DELELO
000513: 35,2755           77625                           DSU
000514: 35,2756           02250                                    ELEV
000515: 35,2757           03576                           STORE    DELEL
000516: 35,2760           45246                           ABS      DSU
000517: 35,2761           33650                                    ELEPS


000519: 35,2762           77640                           BMN
000520: 35,2763           73207                                    TIMEX                                 #  COMMERCIALS EVERYWHERE
000521: 35,2764           70535        FIGTIME            SLOAD    SR1
000522: 35,2765           03614                                    TITER
000523: 35,2766           72030                           BHIZ     LXA,1
000524: 35,2767           03463                                    NORMEX                                #  TOO MANY ITERATIONS
000525: 35,2770           00154                                    MPAC
000526: 35,2771           77330                           SXA,1    VLOAD
000527: 35,2772           03613                                    TITER
000528: 35,2773           03552                                    RPASS3
000529: 35,2774           65256                           UNIT     PDDL
000530: 35,2775           00045                                    36D
000531: 35,2776           53515                           PDVL     UNIT
000532: 35,2777           03536                                    RACT3
000533: 35,3000           77725                           PDDL
000534: 35,3001           41525                           PDDL     PUSH
000535: 35,3002           00045                                    36D
000536: 35,3003           77621                           BDSU
000537: 35,3004           00015                                    12D
000538: 35,3005           14037                           STODL    30D                                   #  RP - RA MAGNITUDES
000539: 35,3006           06503                                    DPHALF
000540: 35,3007           41425                           DSU      PUSH
000541: 35,3010           02250                                    ELEV
000542: 35,3011           50165                           SIGN     BMN
000543: 35,3012           00037                                    30D
000544: 35,3013           03463                                    NORMEX
000545: 35,3014           71545                           DLOAD    COS
000546: 35,3015           56205                           DMP      DDV
000547: 35,3016           00017                                    14D
000548: 35,3017           00015                                    12D
000549: 35,3020           77676                           DCOMP                                          #  SINCE COS(180-A)=-COS A
000550: 35,3021           00035                           STORE    28D
000551: 35,3022           44246                           ABS      BDSU
000552: 35,3023           06503                                    DPHALF
000553: 35,3024           77240                           BMN      VLOAD
000554: 35,3025           03463                                    NORMEX
000555: 35,3026           02252                                    UNRM
000556: 35,3027           53435                           VXV      UNIT
000557: 35,3030           00007                                    6D                                    #  UN*RA
000558: 35,3031           41241                           DOT      DMP
000559: 35,3032           03544                                    VACT3
000560: 35,3033           00015                                    12D
000561: 35,3034           47315                           PDVL     VXV
000562: 35,3035           00001                                    0D
000563: 35,3036           03560                                    VPASS3
000564: 35,3037           53435                           VXV      UNIT
000565: 35,3040           00001                                    0D                                    #  (RP*VP)*RP
000566: 35,3041           41241                           DOT      DMP
000567: 35,3042           03560                                    VPASS3
000568: 35,3043           00017                                    14D
000569:


000571: 35,3044           77621                           BDSU
000572: 35,3045           63301                           NORM     PDVL                                  #  NORMALIZED WA - WP 12D
000573: 35,3046           00047                                    X1
000574: 35,3047           00007                                    6D
000575: 35,3050           50235                           VXV      DOT
000576: 35,3051           00001                                    0D
000577: 35,3052           02252                                    UNRM                                  #  RA*RP.UN 14D
000578: 35,3053           50315                           PDVL     DOT
000579: 35,3054           00001                                    0D
000580: 35,3055           00007                                    6D
000581: 35,3056           65552                           SL1      ACOS
000582: 35,3057           77765                           SIGN
000583: 35,3060           43225                           DSU      DAD                                   #    ALPHA PI
000584: 35,3061           06503                                    DPHALF
000585: 35,3062           02250                                    ELEV
000586: 35,3063           65525                           PDDL     ACOS
000587: 35,3064           00035                                    28D
000588: 35,3065           75221                           BDSU     SIGN
000589: 35,3066           06503                                    DPHALF
000590: 35,3067           00037                                    30D                                   #  CONTAINS RP-RA
000591: 35,3070           77615                           DAD
000592: 35,3071           56205                           DMP      DDV
000593: 35,3072           33642                                    TWOPI
000594: 35,3073           77605                           DMP
000595: 35,3074           41257                           SL*      DMP
000596: 35,3075           20176                                    0          -3,1
000597: 35,3076           51406                           PUSH     ABS
000598: 35,3077           50025                           DSU      BMN
000599: 35,3100           03574                                    SECMAX
000600: 35,3101           73105                                    OKMAX
000601: 35,3102           75345                           DLOAD    SIGN                                  #   REPLACE TIME WITH MAX TIME SIGNED
000602: 35,3103           03574                                    SECMAX
000603: 35,3104           77606                           PUSH
000604: 35,3105           51135        OKMAX              SLOAD    BPL                                   #  TEST FIRST ITERATION
000605: 35,3106           03614                                    TITER
000606: 35,3107           73115                                    REPETE
000607: 35,3110           71331                           SSP      DLOAD
000608: 35,3111           03614                                    TITER
000609: 35,3112           37777                           OCT      37777
000610: 35,3113           77650                           GOTO
000611: 35,3114           73153                                    STORDELT
000612: 35,3115           41345        REPETE             DLOAD    DMP
000613: 35,3116           03576                                    DELEL
000614: 35,3117           00033                                    DELELO
000615: 35,3120           71244                           BPL      DLOAD
000616: 35,3121           73131                                    NEXTES
000617: 35,3122           03574                                    SECMAX
000618: 35,3123           77605                           DMP
000619: 35,3124           33646                                    THIRD
000620: 35,3125           17574                           STODL    SECMAX
000621:


000623: 35,3126           70446                           ABS      SR1                                   #  CROSSED OVER SOLUTION
000624: 35,3127           52076                           DCOMP    GOTO                                  #  DT=(-SIGN(DTO)//DT//)/2
000625: 35,3130           73141                                    RESIGN
000626: 35,3131           51545        NEXTES             DLOAD    ABS
000627: 35,3132           03576                                    DELEL
000628: 35,3133           51525                           PDDL     ABS
000629: 35,3134           00033                                    DELELO
000630: 35,3135           77625                           DSU
000631: 35,3136           71240                           BMN      DLOAD
000632: 35,3137           73144                                    REVERS                                #  WRONG DIRECTION
000633: 35,3140           77646                           ABS
000634: 35,3141           52165        RESIGN             SIGN     GOTO
000635: 35,3142           03606                                    DELTEEO
000636: 35,3143           73153                                    STORDELT
000637: 35,3144           57545        REVERS             DLOAD    DCOMP
000638: 35,3145           03606                                    DELTEEO
000639: 35,3146           70406                           PUSH     SR1
000640: 35,3147           03606                           STORE    DELTEEO
000641: 35,3150           77615                           DAD
000642: 35,3151           77650                           GOTO
000643: 35,3152           73154                                    ADTIME
000644: 35,3153           03606        STORDELT           STORE    DELTEEO
000645: 35,3154           77615        ADTIME             DAD
000646: 35,3155           02310                                    NOMTPI                                #  SUM OF DELTA T:S
000647: 35,3156           02310                           STORE    NOMTPI
000648: 35,3157           63375                           VLOAD    PDVL
000649: 35,3160           03506                                    VAPREC
000650: 35,3161           03500                                    RAPREC
000651: 35,3162           77624                           CALL
000652: 35,3163           73400                                    GOINT
000653: 35,3164           77624                           CALL
000654: 35,3165           46423                                    ACTIVE                                #  STORE NEW RACT3 VACT3
000655: 35,3166           63375                           VLOAD    PDVL
000656: 35,3167           03530                                    VPPREC
000657: 35,3170           03522                                    RPPREC
000658: 35,3171           77624                           CALL
000659: 35,3172           73400                                    GOINT
000660: 35,3173           77624                           CALL
000661: 35,3174           46433                                    PASSIVE                               #  STORE NEW RPASS3 VPASS3
000662: 35,3175           77650                           GOTO
000663: 35,3176           72722                                    ELCALC
000664: 35,3177           43345        ELEX               DLOAD    DAD
000665: 35,3200           03636                                    TTPI
000666: 35,3201           02310                                    NOMTPI
000667: 35,3202           17636                           STODL    TTPI
000668: 35,3203           77614                           BON
000669: 35,3204           01310                                    ETPIFLAG
000670: 35,3205           73207                                    TIMEX
000671: 35,3206           02250                           STORE    ELEV
000672: 35,3207           52145        TIMEX              DLOAD    GOTO
000673:


000675: 35,3210           06505                                    ZEROVECS
000676: 35,3211           03463                                    NORMEX
000677:


000679:                                                                                                  #  ..... S34/35.1  .....
000680:
000681:                                                                                                  #  COMPUTE UNIT NORMAL AND LINE OF SIGHT VECTORS GIVEN THE ACTIVE AND
000682:                                                                                                  #  PASSIVE POS AND VEL AT TIME T3
000683:
000684: 35,3212           52375        S34/35.1           VLOAD    VSU
000685: 35,3213           03552                                    RPASS3
000686: 35,3214           03536                                    RACT3
000687: 35,3215           41456                           UNIT     PUSH
000688: 35,3216           26302                           STOVL    ULOS
000689: 35,3217           03536                                    RACT3
000690: 35,3220           53435                           VXV      UNIT
000691: 35,3221           03544                                    VACT3
000692: 35,3222           02252                           STORE    UNRM
000693: 35,3223           77616                           RVQ
000694:


000696:                                                                                                  #  ..... S34/35.2  .....
000697:
000698:                                                                                                  #  ADVANCE PASSIVE VEH TO RENDEZVOUS TIME AND GET REQ VEL FROM LAMBERT
000699: 35,3224           77220        S34/35.2           STQ      VLOAD
000700: 35,3225           03470                                    SUBEXIT
000701: 35,3226           03560                                    VPASS3
000702: 35,3227           65315                           PDVL     PDDL
000703: 35,3230           03552                                    RPASS3
000704: 35,3231           03610                                    INTIME
000705: 35,3232           65325                           PDDL     PDDL
000706: 35,3233           03631                                    TPASS4
000707: 35,3234           33642                                    TWOPI                                 #  CONIC
000708: 35,3235           46125                           PDDL     BHIZ
000709: 35,3236           03467                                    NN
000710: 35,3237           73243                                    S3435.23
000711: 35,3240           77745                           DLOAD
000712: 35,3241           41545                           DLOAD    PUSH
000713: 35,3242           06505                                    ZEROVECS                              #  PRECISION
000714: 35,3243           77624        S3435.23           CALL
000715: 35,3244           73404                                    INTINT                                #  GET TARGET VECTOR
000716: 35,3245           27444        S3435.25           STOVL    RTARG
000717: 35,3246           00007                                    VATT
000718: 35,3247           27506                           STOVL    VPASS4
000719: 35,3250           03444                                    RTARG
000720:                                                                                                  #  COMPUTE PHI = PI + (ACOS(UNIT RA.UNIT RP)-PI)SIGN(RA*RP.U)
000721: 35,3251           63256                           UNIT     PDVL                                  #  UNIT RP
000722: 35,3252           03536                                    RACT3
000723: 35,3253           41456                           UNIT     PUSH                                  #  UNIT RA
000724: 35,3254           50235                           VXV      DOT
000725: 35,3255           00001                                    0D
000726: 35,3256           02252                                    UNRM                                  #  RA*RP.U
000727: 35,3257           77715                           PDVL
000728: 35,3260           72441                           DOT      SL1                                   #  UNIT RA.UNIT RP
000729: 35,3261           00001                                    0D
000730: 35,3262           75326                           ACOS     SIGN
000731: 35,3263           43244                           BPL      DAD
000732: 35,3264           73266                                    NOPIE
000733: 35,3265           06513                                    DPPOSMAX                              #  REASONABLE TWO PI
000734: 35,3266           15754        NOPIE              STODL    ACTCENT
000735: 35,3267           03631                                    TPASS4
000736: 35,3270           77625                           DSU
000737: 35,3271           03610                                    INTIME
000738: 35,3272           03452                           STORE    DELLT4
000739: 35,3273           40335                           SLOAD    SETPD
000740: 35,3274           03467                                    NN                                    #  NUMBER OF OFFSETS
000741: 35,3275           00001                                    0D
000742: 35,3276           63325                           PDDL     PDVL
000743: 35,3277           33654                                    EPSFOUR
000744: 35,3300           03536                                    RACT3
000745: 35,3301           26314                           STOVL    RINIT
000746:


000748: 35,3302           03544                                    VACT3
000749: 35,3303           36322                           STCALL   VINIT
000750: 35,3304           22000                                    INITVEL
000751: 35,3305           77624                           CALL
000752: 35,3306           73365                                    LOMAT
000753: 35,3307           64375                           VLOAD    MXV
000754: 35,3310           02357                                    DELVEET3
000755: 35,3311           00001                                    0D
000756: 35,3312           77772                           VSL1
000757: 35,3313           37434                           STCALL   DELVLVC
000758: 35,3314           03470                                    SUBEXIT
000759:


000761:                                                                                                  #  ..... S34/35.3  .....
000762:
000763: 35,3315           45020        S34/35.3           STQ      CALL
000764: 35,3316           03463                                    NORMEX
000765: 35,3317           73365                                    LOMAT                                 #  GET MATRIX IN PUSH LIST
000766: 35,3320           61375                           VLOAD    VXM
000767: 35,3321           03434                                    DELVLVC                               #  NEW DEL V TPI
000768: 35,3322           00001                                    0D
000769: 35,3323           77772                           VSL1
000770: 35,3324           02357                           STORE    DELVEET3                              #  SAVE FOR TRANSFORM
000771: 35,3325           63255                           VAD      PDVL
000772: 35,3326           03544                                    VACT3                                 #  NEW V REQ
000773: 35,3327           03536                                    RACT3
000774: 35,3330           65325                           PDDL     PDDL
000775: 35,3331           03442                                    TIG
000776: 35,3332           03631                                    TPASS4
000777: 35,3333           41525                           PDDL     PUSH
000778: 35,3334           06513                                    DPPOSMAX
000779: 35,3335           77624                           CALL                                           #  INTEG. FOR NEW TARGET VEC
000780: 35,3336           73404                                    INTINT
000781: 35,3337           77775                           VLOAD
000782: 35,3340           00001                                    RATT
000783: 35,3341           03444                           STORE    RTARG
000784: 35,3342           41575        NOVRWRT            VLOAD    PUSH
000785: 35,3343           02302                                    ULOS
000786: 35,3344           57435                           VXV      VCOMP
000787: 35,3345           02252                                    UNRM
000788: 35,3346           41456                           UNIT     PUSH
000789: 35,3347           76435                           VXV      VSL1
000790: 35,3350           02302                                    ULOS
000791: 35,3351           77715                           PDVL
000792: 35,3352           64315                           PDVL     MXV
000793: 35,3353           02357                                    DELVEET3
000794: 35,3354           00001                                    0D
000795: 35,3355           77772                           VSL1
000796: 35,3356           36274                           STCALL   DVLOS
000797: 35,3357           03463                                    NORMEX
000798:


000800:                                                                                                  #  ..... S34/35.4  .....
000801:
000802: 35,3360           40220        S34/35.4           STQ      SETPD                                 #  NO ASTRONAUT OVERWRITE
000803: 35,3361           03463                                    NORMEX
000804: 35,3362           00001                                    0D
000805: 35,3363           77650                           GOTO
000806: 35,3364           73342                                    NOVRWRT
000807:


000809:                                                                                                  #  ..... LOMAT    .....
000810:
000811: 35,3365           57575        LOMAT              VLOAD    VCOMP
000812: 35,3366           02252                                    UNRM
000813: 35,3367           24007                           STOVL    6D                                    #  Y
000814: 35,3370           03536                                    RACT3
000815: 35,3371           57456                           UNIT     VCOMP
000816: 35,3372           00015                           STORE    12D
000817: 35,3373           76435                           VXV      VSL1
000818: 35,3374           02252                                    UNRM                                  #  Z*-Y
000819: 35,3375           00001                           STORE    0D
000820: 35,3376           43401                           SETPD    RVQ
000821: 35,3377           00023                                    18D
000822: 35,3400           65325        GOINT              PDDL     PDDL                                  #  DO
000823: 35,3401           06505                                    ZEROVECS                              #   NOT
000824: 35,3402           02310                                    NOMTPI
000825: 35,3403           41406                           PUSH     PUSH                                  #               ORDER OR INSERT BEFORE INTINT
000826: 35,3404           45020        INTINT             STQ      CALL
000827: 35,3405           03465                                    RTRN
000828: 35,3406           27447                                    INTSTALL
000829: 35,3407           71214                           CLEAR    DLOAD
000830: 35,3410           01673                                    INTYPFLG
000831: 35,3411           43054                           BZE      SET
000832: 35,3412           73414                                    +2
000833: 35,3413           01473                                    INTYPFLG
000834: 35,3414           45545                           DLOAD    STADR
000835: 35,3415           63736                           STODL    TDEC1
000836: 35,3416           73014                           SET      LXA,2
000837: 35,3417           00063                                    MOONFLAG
000838: 35,3420           02777                                    RTX2
000839: 35,3421           43014                           BON      CLEAR
000840: 35,3422           04303                                    CMOONFLG
000841: 35,3423           73425                                    ALLSET
000842: 35,3424           00263                                    MOONFLAG
000843: 35,3425           25517        ALLSET             STOVL    TET
000844: 35,3426           77657                           VSR*
000845: 35,3427           57176                                    0,2
000846: 35,3430           25535                           STOVL    RCV
000847: 35,3431           77657                           VSR*
000848: 35,3432           57176                                    0,2
000849: 35,3433           35543                           STCALL   VCV
000850: 35,3434           27145                                    INTEGRVS
000851: 35,3435           52175                           VLOAD    GOTO
000852: 35,3436           00001                                    RATT
000853: 35,3437           03465                                    RTRN
000854:


000856:                                                                                                  #  ..... S34/35.5  .....
000857:                                                                                                  #  SUBROUTINES USED
000858:
000859:                                                                                                  #        BANKCALL
000860:                                                                                                  #        GOFLASH
000861:                                                                                                  #        GOTOPOOH
000862:                                                                                                  #        S34/35.3
000863:                                                                                                  #        S34/35.4
000864:                                                                                                  #        VNPOOH
000865:
000866: 35,3440           43020        S34/35.5           STQ      BON
000867: 35,3441           03470                                    SUBEXIT
000868: 35,3442           01311                                    FINALFLG
000869: 35,3443           73446                                    FLAGON
000870: 35,3444           77614                           SET
000871: 35,3445           00470                                    UPDATFLG
000872: 35,3446           77214        FLAGON             CLEAR    VLOAD
000873: 35,3447           03274                                    NTARGFLG
000874: 35,3450           03434                                    DELVLVC
000875: 35,3451           01236                           STORE    TMPDV                                 #  SAVE DV BEFORE DISPLAY
000876: 35,3452           77776                           EXIT
000877: 35,3453           33637                 +5        CAF      V06N81
000878: 35,3454           04607                           TC       BANKCALL
000879: 35,3455           20471                           CADR     GOFLASH
000880: 35,3456           06001                           TC       GOTOPOOH
000881: 35,3457           03461                           TC       +2                                    #  PRO
000882: 35,3460           03453                           TC       FLAGON     +5                         #  LOAD
000883: 35,3461           35007                 +2        CA       EBANK7
000884: 35,3462           54003                           TS       EBANK                                 #  TO BE SURE
000885:
000886: 35,3463           22007                           ZL
000887: 35,3464           34747                           CA       FIVE
000888: 35,3465           54002        NTARGCHK           TS       Q
000889: 35,3466           50002                           INDEX    Q
000890: 35,3467           41433                           CS       DELVLVC
000891: 35,3470           50002                           INDEX    Q
000892: 35,3471           61235                           AD       TMPDV
000893: 35,3472           26001                           ADS      L
000894: 35,3473           10002                           CCS      Q
000895: 35,3474           13465                           TCF      NTARGCHK
000896: 35,3475           22000                           LXCH     A
000897: 35,3476           00006                           EXTEND
000898: 35,3477           13502                           BZF      +3
000899: 35,3500           05506                           TC       UPFLAG
000900: 35,3501           00146                           ADRES    NTARGFLG
000901:
000902: 35,3502           06060                           TC       INTPRET
000903: 35,3503           45014                           BOFF     CALL
000904: 35,3504           03354                                    NTARGFLG
000905: 35,3505           73507                                    NOCHG
000906:


000908: 35,3506           73315                                    S34/35.3
000909: 35,3507           77775        NOCHG              VLOAD
000910: 35,3510           02357                                    DELVEET3
000911: 35,3511           03656                           STORE    DELVSIN
000912: 35,3512           77624        FLAGOFF            CALL
000913: 35,3513           73360                                    S34/35.4
000914: 35,3514           77650                           GOTO
000915: 35,3515           03470                                    SUBEXIT
000916:


000918:                                                                                                  #  ..... VN1645    .....
000919:
000920:                                                                                                  #  SUBROUTINES USED
000921:
000922:                                                                                                  #        P3XORP7X
000923:                                                                                                  #        GET+MGA
000924:                                                                                                  #        BANKCALL
000925:                                                                                                  #        DELAYJOB
000926:                                                                                                  #        COMPTGO
000927:                                                                                                  #        GOFLASHR
000928:                                                                                                  #        GOTOPOOH
000929:                                                                                                  #        FLAGUP
000930:
000931: 35,3516           71220        VN1645             STQ      DLOAD
000932: 35,3517           03470                                    SUBEXIT
000933: 35,3520           33652                                    DP-.01
000934: 35,3521           02244                           STORE    +MGA                                  #  MGA = -.01
000935: 35,3522           71214                           BOFF     DLOAD
000936: 35,3523           01351                                    FINALFLG
000937: 35,3524           73544                                    GET45
000938: 35,3525           33652                                    DP-.01
000939: 35,3526           77615                           DAD
000940: 35,3527           33652                                    DP-.01
000941: 35,3530           02244                           STORE    +MGA                                  #  MGA = -.02
000942: 35,3531           77414                           BOFF     EXIT
000943: 35,3532           01742                                    REFSMFLG
000944: 35,3533           73544                                    GET45
000945: 35,3534           03614                           TC       P3XORP7X
000946: 35,3535           03537                           TC       +2                                    #  P3X
000947: 35,3536           03545                           TC       GET45      +1                         #  P7X
000948: 35,3537           06060                           TC       INTPRET
000949: 35,3540           41575                           VLOAD    PUSH
000950: 35,3541           03656                                    DELVSIN
000951: 35,3542           77624                           CALL                                           #  COMPUTE MGA
000952: 35,3543           42006                                    GET+MGA
000953: 35,3544           77776        GET45              EXIT
000954: 35,3545           02437                           TC       COMPTGO                               #  INITIATE TASK TO UPDATE TTOGO
000955: 35,3546           31470                           CA       SUBEXIT
000956: 35,3547           55464                           TS       QSAVED
000957: 35,3550           34770                           CAF      1SEC
000958: 35,3551           04607                           TC       BANKCALL
000959: 35,3552           01736                           CADR     DELAYJOB
000960: 35,3553           33640                           CAF      V16N45                                #  TRKMKCNT, TTOGO, +MGA
000961: 35,3554           04607                           TC       BANKCALL
000962: 35,3555           20471                           CADR     GOFLASH
000963: 35,3556           03561                           TC       KILCLOCK                              #  TERMINATE
000964: 35,3557           03564                           TC       N45PROC                               #  PROCEED
000965: 35,3560           03574                           TC       CLUPDATE                              #  RECYCLE - RETURN FOR INITIAL COMPUTATION
000966: 35,3561           30005        KILCLOCK           CA       Z
000967: 35,3562           55162                           TS       DISPDEX
000968:


000970: 35,3563           06001                           TC       GOTOPOOH
000971: 35,3564           40076        N45PROC            CS       FLAGWRD2
000972: 35,3565           74737                           MASK     BIT6
000973: 35,3566           00006                           EXTEND
000974: 35,3567           13561                           BZF      KILCLOCK                              #  FINALFLG IS SET-FLASH V37-AWAIT NEW PGM
000975: 35,3570           05355                           TC       PHASCHNG
000976: 35,3571           04024                           OCT      04024
000977: 35,3572           05506                           TC       UPFLAG                                #  SET
000978: 35,3573           00047                           ADRES    FINALFLG                              #  FINALFLG
000979: 35,3574           30005        CLUPDATE           CA       Z
000980: 35,3575           55162                           TS       DISPDEX
000981: 35,3576           05355                           TC       PHASCHNG
000982: 35,3577           04024                           OCT      04024
000983: 35,3600           06060                           TC       INTPRET
000984: 35,3601           52014                           CLEAR    GOTO
000985: 35,3602           00670                                    UPDATFLG
000986: 35,3603           03464                                    QSAVED
000987:


000989:                                                                                                  #  ..... DISPLAYE   .....
000990:
000991:                                                                                                  #  SUBROUTINES USED
000992:
000993:                                                                                                  #        BANKCALL
000994:                                                                                                  #        GOFLASHR
000995:                                                                                                  #        GOTOPOOH
000996:                                                                                                  #        BLANKET
000997:                                                                                                  #        ENDOFJOB
000998:
000999: 35,3604           00006        DISPLAYE           EXTEND
001000: 35,3605           23463                           QXCH     NORMEX
001001: 35,3606           33634                           CAF      V06N55
001002: 35,3607           04607                           TCR      BANKCALL
001003: 35,3610           20471                           CADR     GOFLASH
001004: 35,3611           16001                           TCF      GOTOPOOH
001005: 35,3612           01463                           TC       NORMEX
001006: 35,3613           13606                           TCF      -5
001007:


001009:                                                                                                  #  ..... P3XORP7X  .....
001010:
001011: 35,3614           37765        P3XORP7X           CAF      HIGH9
001012: 35,3615           71010                           MASK     MODREG
001013: 35,3616           00006                           EXTEND
001014: 35,3617           13621                           BZF      +2
001015: 35,3620           24002                           INCR     Q
001016: 35,3621           00002                           RETURN
001017:
001018:                                                                                                  #  ..... VNPOOH     .....
001019:
001020:                                                                                                  #  SUBROUTINES USED
001021:
001022:                                                                                                  #        BANKCALL
001023:                                                                                                  #        GOFLASH
001024:                                                                                                  #        GOTOPOOH
001025:
001026: 35,3622           00006        VNPOOH             EXTEND
001027: 35,3623           23465                           QXCH     RTRN
001028: 35,3624           55615                           TS       VERBNOUN
001029: 35,3625           31615                           CA       VERBNOUN
001030: 35,3626           04607                           TCR      BANKCALL
001031: 35,3627           20471                           CADR     GOFLASH
001032: 35,3630           16001                           TCF      GOTOPOOH
001033: 35,3631           01465                           TC       RTRN
001034: 35,3632           13625                           TCF      -5
001035:


001037:                                                                                                  #  ..... CONSTANTS .....
001038:
001039: 35,3633           01445        V06N37             VN       0637
001040: 35,3634           01467        V06N55             VN       0655
001041: 35,3635           01472        V06N58             VN       0658
001042: 35,3636           01473        V06N59             VN       0659
001043: 35,3637           01521        V06N81             VN       0681
001044: 35,3640           04055        V16N45             VN       1645
001045: 35,3641           14441 37325  TWOPI              2DEC     6.283185307 B-4
001046: 35,3643           00001 20650  MAX250             2DEC     25         E3
001047: 35,3645           12525 12525  THIRD              2DEC     .333333333
001048: 35,3647           00004 21505  ELEPS              2DEC     .27777777  E-3
001049: 35,3651           77777        DP-.01             OCT      77777                                 #  CONSTANTS
001050: 35,3652           61337                           OCT      61337                                 #  ADJACENT      -.01 FOR MGA DSP
001051: 35,3653           01252 25253  EPSFOUR            2DEC     .0416666666
001052: 35,3655           13434 16162  130DEG             2DEC     .3611111111
001053:


001055:                                                                                                  #  ..... INITVEL .....
001056:                                                                                                  #  MOD NO -1        LOG SECTION - P34-P35, P74-P75
001057:                                                                                                  #  MOD BY WHITE.P   DATE  21NOV67
001058:
001059:                                                                                                  #  FUNCTIONAL DESCRIPTION
001060:
001061:                                                                                                  #        THIS SUBROUTINE COMPUTES THE REQUIRED INITIAL VELOCITY VECTOR FOR
001062:                                                                                                  #        A TRAJECTORY OF SPECIFIED TRANSFER TIME BETWEEN SPECIFIED INITIAL
001063:                                                                                                  #        AND TARGET POSITIONS.  THE TRAJECTORY MAY BE EITHER CONIC OR
001064:                                                                                                  #        PRECISION DEPENDING ON AN INPUT PARAMETER (NAMELY, NUMBER OF
001065:                                                                                                  #        OFFSETS).  IN ADDITION, IN THE PRECISION TRAJECTORY CASE, THE
001066:                                                                                                  #        SUBROUTINE ALSO COMPUTES AN OFFSET TARGET VECTOR, TO BE USED
001067:                                                                                                  #        DURING PURE-CONIC CROSS-PRODUCT STEERING.  THE OFFSET TARGET
001068:                                                                                                  #        VECTOR IS THE TERMINAL POSITION VECTOR OF A CONIC TRAJECTORY WHICH
001069:                                                                                                  #        HAS THE SAME INITIAL STATE AS A PRECISION TRAJECTORY WHOSE
001070:                                                                                                  #        TERMINAL POSITION VECTOR IS THE SPECIFIED TARGET VECTOR.
001071:
001072:                                                                                                  #        IN ORDER TO AVOID THE INHERENT SINGULARITIES IN THE 180 DEGREE
001073:                                                                                                  #        TRANSFER CASE WHEN THE (TRUE OR OFFSET) TARGET VECTOR MAY BE
001074:                                                                                                  #        SLIGHTLY OUT OF THE ORBITAL PLANE, THIS SUBROUTINE ROTATES THIS
001075:                                                                                                  #        VECTOR INTO A PLANE DEFINED BY THE INPUT INITIAL POSITION VECTOR
001076:                                                                                                  #        AND ANOTHER INPUT VECTOR (USUALLY THE INITIAL VELOCITY VECTOR),
001077:                                                                                                  #        WHENEVER THE INPUT TARGET VECTOR LIES INSIDE A CONE WHOSE VERTEX
001078:                                                                                                  #        IS THE ORIGIN OF COORDINATES, WHOSE AXIS IS THE 180 DEGREE
001079:                                                                                                  #        TRANSFER DIRECTION, AND WHOSE CONE ANGLE IS SPECIFIED BY THE USER.
001080:
001081:                                                                                                  #        THE LAMBERT SUBROUTINE IS UTILIZED FOR THE CONIC COMPUTATIONS AND
001082:                                                                                                  #        THE COASTING INTEGRATION SUBROUTINE IS UTILIZED FOR THE PRECISION
001083:                                                                                                  #        TRAJECTORY COMPUTATIONS.
001084:
001085:                                                                                                  #  CALLING SEQUENCE
001086:
001087:                                                                                                  #        L         CALL
001088:                                                                                                  #        L+1               INITVEL
001089:                                                                                                  #        L+2       (RETURN - ALWAYS)
001090:
001091:                                                                                                  #  INPUT
001092:
001093:                                                                                                  #        (1) RINIT    INITIAL POSITION RADIUS VECTOR
001094:                                                                                                  #        (2) VINIT    INITIAL POSITION VELOCITY VECTOR
001095:                                                                                                  #        (3) RTARG    TARGET POSITION RADIUS VECTOR
001096:                                                                                                  #        (4) DELLT4   DESIRED TIME OF FLIGHT FROM RINIT TO RTARG
001097:                                                                                                  #        (5) INTIME   TIME OF RINIT
001098:                                                                                                  #        (6) 0D       NUMBER OF ITERATIONS OF LAMBERT/INTEGRVS
001099:                                                                                                  #        (7) 2D       ANGLE TO 180 DEGREES WHEN ROTATION STARTS
001100:                                                                                                  #        (8) RTX1     -2 FOR EARTH, -10D FOR LUNAR
001101:                                                                                                  #        (9) RTX2     COORDINATE SYSTEM ORIGIN - 0 FOR EARTH, 2 FOR LUNAR
001102:                                                                                                  #        PUSHLOC SET AT 4D
001103:


001105:                                                                                                  #  OUTPUT
001106:
001107:                                                                                                  #        (1) RTARG    OFFSET TARGET POSITION VECTOR
001108:                                                                                                  #        (2) VIPRIME  MANEUVER VELOCITY REQUIRED
001109:                                                                                                  #        (3) VTPRIME  VELOCITY AT TARGET AFTER MANEUVER
001110:                                                                                                  #        (4) DELVEET3 DELTA VELOCITY REQUIRED FOR MANEUVER
001111:
001112:                                                                                                  #  SUBROUTINES USED
001113:
001114:                                                                                                  #        LAMBERT
001115:                                                                                                  #        INTSTALL
001116:                                                                                                  #        INTEGRVS
001117:
001118: 11,2000                                           SETLOC   INTVEL
001119: 11,2000                                           BANK
001120:
001121: 11,2000                                           COUNT*   $$/INITV
001122: 11,2000           77614        INITVEL            SET                                            #  COGA GUESS NOT AVAILABLE
001123: 11,2001           00475                                    GUESSW
001124: 11,2002           44175        HAVEGUES           VLOAD    STQ
001125: 11,2003           03444                                    RTARG
001126: 11,2004           03463                                    NORMEX
001127: 11,2005           03472                           STORE    RTARG1
001128: 11,2006           77646                           ABVAL
001129: 11,2007           03723                           STORE    RTMAG
001130: 11,2010           46135                           SLOAD    BHIZ
001131: 11,2011           03000                                    RTX2
001132: 11,2012           22026                                    INITVEL1
001133: 11,2013           72575                           VLOAD    VSL2
001134: 11,2014           02314                                    RINIT                                 #  B29
001135: 11,2015           26314                           STOVL    RINIT                                 #  B27
001136: 11,2016           02322                                    VINIT                                 #  B7
001137: 11,2017           77752                           VSL2
001138: 11,2020           26322                           STOVL    VINIT                                 #  B5
001139: 11,2021           03472                                    RTARG1
001140: 11,2022           77752                           VSL2
001141: 11,2023           03472                           STORE    RTARG1
001142: 11,2024           77646                           ABVAL
001143: 11,2025           03723                           STORE    RTMAG
001144:                                                                                                  #        INITIALIZATION
001145:
001146: 11,2026           71331        INITVEL1           SSP      DLOAD                                 #  SET ITCTR TO -1,LOAD MPAC WITH E4 (PL 2D)
001147: 11,2027           03617                                    ITCTR
001148: 11,2030           77776                                    0          -1
001149: 11,2031           70546                           COSINE   SR1                                   #  CALCULATE COSINE (E4) (+2)
001150: 11,2032           17667                           STODL    COZY4                                 #  SET COZY4 TO COSINE (E4)          (PL 0D)
001151: 11,2033           67154                           LXA,2    SXA,2
001152: 11,2034           00154                                    MPAC
001153: 11,2035           02701                                    VTARGTAG                              #  SET VTARGTAG TO 0D (SP)
001154: 11,2036           77775                           VLOAD
001155:


001157: 11,2037           02314                                    RINIT
001158: 11,2040           26655                           STOVL    R1VEC                                 #  R1VEC EQ RINIT
001159: 11,2041           03472                                    RTARG1
001160: 11,2042           16663                           STODL    R2VEC                                 #  R2VEC EQ RTARG
001161: 11,2043           03452                                    DELLT4
001162: 11,2044           02671                           STORE    TDESIRED                              #  TDESIRED EQ DELLT4
001163: 11,2045           77201                           SETPD    VLOAD
001164: 11,2046           00001                                    0D                                    #  INITIALIZE PL TO 0D
001165: 11,2047           02314                                    RINIT                                 #  MPAC EQ RINIT (+29)
001166: 11,2050           41456                           UNIT     PUSH                                  #  UNIT(RI)  (+1)                   (PL 6D)
001167: 11,2051           53435                           VXV      UNIT
001168: 11,2052           02322                                    VINIT                                 #  MPAC EQ UNIT(RI) X VI  (+8)
001169: 11,2053           26674                           STOVL    UN
001170: 11,2054           03472                                    RTARG1
001171: 11,2055           50256                           UNIT     DOT                                   #  TEMP=URT.URI (+2)                (PL 0D)
001172: 11,2056           43015                           DAD      CLEAR
001173: 11,2057           03667                                    COZY4
001174: 11,2060           03665                                    NORMSW
001175: 11,2061           03667                           STORE    COZY4
001176: 11,2062           43044        INITVEL2           BPL      SET
001177: 11,2063           22105                                    INITVEL3                              #  UN CALCULATED IN LAMBERT
001178: 11,2064           03465                                    NORMSW
001179:                                                                                                  #        ROTATE RC INTO YC PLANE - SET UNIT NORMAL TO YC
001180:
001181: 11,2065           41575                           VLOAD    PUSH                                  #                                   (PL 6D)
001182: 11,2066           02663                                    R2VEC                                 #  RC TO 6D  (+29)
001183: 11,2067           63246                           ABVAL    PDVL                                  #  RC TO MPAC, ABVAL(RC) (+29) TO OD(PL 2D)
001184: 11,2070           46206                           PUSH     VPROJ                                 #                                   (PL 8D)
001185: 11,2071           02674                                    UN
001186: 11,2072           51352                           VSL2     BVSU
001187: 11,2073           74256                           UNIT     VXSC                                  #                                   (PL 0D)
001188: 11,2074           77772                           VSL1
001189: 11,2075           02663                           STORE    R2VEC
001190: 11,2076           67351                           TLOAD    SLOAD
001191: 11,2077           24007                                    ZEROVEC
001192: 11,2100           03617                                    ITCTR
001193: 11,2101           77244                           BPL      VLOAD
001194: 11,2102           22105                                    INITVEL3
001195: 11,2103           02663                                    R2VEC
001196: 11,2104           03472                           STORE    RTARG1
001197: 11,2105           63345        INITVEL3           DLOAD    PDVL                                  #                                   (PL 2D)
001198: 11,2106           26007                                    MUEARTH                               #  POSITIVE VALUE
001199: 11,2107           02663                                    R2VEC
001200: 11,2110           63256                           UNIT     PDVL                                  #  2D = UNIT(R2VEC)                 (PL 8D)
001201: 11,2111           02655                                    R1VEC
001202: 11,2112           41456                           UNIT     PUSH                                  #  8D = UNIT(R1VEC)                 (PL14D)
001203: 11,2113           57435                           VXV      VCOMP                                 #  -N = UNIT(R2VEC) X UNIT(R1VEC)
001204: 11,2114           00003                                    2D
001205: 11,2115           77606                           PUSH                                           #                                   (PL20D)
001206: 11,2116           71350                           LXA,1    DLOAD
001207:


001209: 11,2117           02776                                    RTX1
001210: 11,2120           00023                                    18D
001211: 11,2121           62040                           BMN      INCR,1
001212: 11,2122           22124                                    +2
001213: 11,2123           77767                           DEC      -8         B-14
001214: 11,2124           67310                           INCR,1   SLOAD
001215: 11,2125           00012                                    10D
001216: 11,2126           00047                                    X1
001217: 11,2127           77230                           BHIZ     VLOAD                                 #                                        (PL14D)
001218: 11,2130           22132                                    +2
001219: 11,2131           41476                           VCOMP    PUSH                                  #                                        (PL20D)
001220: 11,2132           77775                           VLOAD                                          #                                        (PL14D)
001221: 11,2133           50235                           VXV      DOT                                   #                                        (PL 2D)
001222: 11,2134           71244                           BPL      DLOAD                                 #                                        (PL 0D)
001223: 11,2135           22137                                    INITVEL4
001224: 11,2136           41476                           DCOMP    PUSH                                  #                                        (PL 2D)
001225: 11,2137           67154        INITVEL4           LXA,2    SXA,2
001226: 11,2140           00000                                    0D
001227: 11,2141           02672                                    GEOMSGN
001228:
001229:                                                                                                  #  SET INPUTS UP FOR LAMBERT
001230:
001231: 11,2142           66350                           LXA,1    SSP
001232: 11,2143           02776                                    RTX1
001233: 11,2144           00027                                    ITERCTR
001234: 11,2145           00024                                    20D
001235:                                                                                                  #   OPERATE THE LAMBERT CONIC ROUTINE (COASTFLT SUBROUTINE)
001236:
001237: 11,2146           77624                           CALL
001238: 11,2147           25212                                    LAMBERT
001239:
001240:                                                                                                  #  ARRIVED AT SOLUTION IS GOOD ENOUGH ACCORDING TO SLIGHTLY WIDER BOUNDS.
001241:
001242: 11,2150           77214                           CLEAR    VLOAD
001243: 11,2151           00675                                    GUESSW
001244: 11,2152           02744                                    VVEC
001245:                                                                                                  #  STORE CALCULATED INITIAL VELOCITY REQUIRED IN VIPRIME
001246:
001247: 11,2153           16330                           STODL    VIPRIME                               #  INITIAL VELOCITY REQUIRED  (+7)
001248:
001249:                                                                                                  #     IF NUMIT IS ZERO, CONTINUE AT INITVELB, OTHERWISE
001250:                                                                                                  #  SET UP INPUTS FOR ENCKE INTEGRATION (INTEGRVS).
001251:
001252: 11,2154           02702                                    VTARGTAG
001253: 11,2155           45030                           BHIZ     CALL
001254: 11,2156           22233                                    INITVEL7
001255: 11,2157           27447                                    INTSTALL
001256: 11,2160           43135                           SLOAD    CLEAR
001257: 11,2161           03000                                    RTX2
001258: 11,2162           00263                                    MOONFLAG
001259: 11,2163           43030                           BHIZ     SET
001260:


001262: 11,2164           22166                                    INITVEL5
001263: 11,2165           00063                                    MOONFLAG
001264: 11,2166           77775        INITVEL5           VLOAD
001265: 11,2167           02314                                    RINIT
001266: 11,2170           02655                           STORE    R1VEC
001267: 11,2171           25535                           STOVL    RCV
001268: 11,2172           02330                                    VIPRIME
001269: 11,2173           15543                           STODL    VCV
001270: 11,2174           03610                                    INTIME
001271: 11,2175           01517                           STORE    TET
001272: 11,2176           43015                           DAD      CLEAR
001273: 11,2177           03452                                    DELLT4
001274: 11,2200           01673                                    INTYPFLG
001275: 11,2201           34041                           STCALL   TDEC1
001276: 11,2202           27145                                    INTEGRVS
001277: 11,2203           77775                           VLOAD
001278: 11,2204           00025                                    VATT1
001279: 11,2205           02703                           STORE    VTARGET
001280:
001281:                                                                                                  #   IF ITERATION COUNTER (ITCTR) EQ NO. ITERATIONS (NUMIT), CONTINUE AT
001282:                                                                                                  #  INITVELC, OTHERWISE REITERATE LAMBERT AND ENCKE
001283:
001284: 11,2206           63154                           LXA,2    INCR,2
001285: 11,2207           03616                                    ITCTR
001286: 11,2210           00001                                    1D                                    #  INCREMENT ITCTR
001287: 11,2211           55134                           SXA,2    XSU,2
001288: 11,2212           03616                                    ITCTR
001289: 11,2213           02701                                    VTARGTAG
001290: 11,2214           46135                           SLOAD    BHIZ                                  #  IF SP(MPAC) EQ 0, CONTINUE AT INITVELC
001291: 11,2215           00050                                    X2
001292: 11,2216           22230                                    INITVEL6
001293:
001294:                                                                                                  #  OFFSET CONIC TARGET VECTOR
001295:
001296: 11,2217           52375                           VLOAD    VSU
001297: 11,2220           03472                                    RTARG1
001298: 11,2221           00017                                    RATT1
001299: 11,2222           77655                           VAD
001300: 11,2223           02663                                    R2VEC
001301: 11,2224           16663                           STODL    R2VEC
001302: 11,2225           03667                                    COZY4
001303: 11,2226           77650                           GOTO
001304: 11,2227           22062                                    INITVEL2                              #  CONTINUE ITERATING AT INITVEL2
001305:
001306:                                                                                                  #  COMPUTE THE DELTA VELOCITY
001307:
001308: 11,2230           77775        INITVEL6           VLOAD
001309: 11,2231           02663                                    R2VEC
001310: 11,2232           03472                           STORE    RTARG1
001311: 11,2233           52375        INITVEL7           VLOAD    VSU
001312: 11,2234           02330                                    VIPRIME
001313: 11,2235           02322                                    VINIT


001315: 11,2236           26357                           STOVL    DELVEET3                              #  DELVEET3 = VIPRIME-VINIT (+7)
001316: 11,2237           02703                                    VTARGET
001317: 11,2240           03566                           STORE    VTPRIME
001318: 11,2241           46135                           SLOAD    BHIZ
001319: 11,2242           03000                                    RTX2
001320: 11,2243           22260                                    INITVELX
001321: 11,2244           70575                           VLOAD    VSR2
001322: 11,2245           03566                                    VTPRIME
001323: 11,2246           27566                           STOVL    VTPRIME
001324: 11,2247           02330                                    VIPRIME
001325: 11,2250           77742                           VSR2
001326: 11,2251           26330                           STOVL    VIPRIME
001327: 11,2252           03472                                    RTARG1
001328: 11,2253           77742                           VSR2
001329: 11,2254           27472                           STOVL    RTARG1
001330: 11,2255           02357                                    DELVEET3
001331: 11,2256           77742                           VSR2
001332: 11,2257           02357                           STORE    DELVEET3
001333: 11,2260           70750        INITVELX           LXA,1    DLOAD*
001334: 11,2261           02776                                    RTX1
001335: 11,2262           10003                                    MUTABLE    -2,1
001336: 11,2263           41206                           PUSH     DMP
001337: 11,2264           02742                                    R1A
001338: 11,2265           56342                           SR1      DDV
001339: 11,2266           00041                                    R1
001340: 11,2267           17721                           STODL    MU/A
001341: 11,2270           77661                           SR
001342: 11,2271           20607                                    6
001343: 11,2272           03717                           STORE    MUASTEER
001344: 11,2273           77201                           SETPD    VLOAD
001345: 11,2274           00001                                    0D
001346: 11,2275           03472                                    RTARG1
001347: 11,2276           03444                           STORE    RTARG
001348: 11,2277           52014                           CLEAR    GOTO
001349: 11,2300           01267                                    XDELVFLG
001350: 11,2301           03463                                    NORMEX
001351:
001352:                                                                                                  #  ..... END OF INITVEL ROUTINE .....
001353:


001355:                                                                                                  #  ..... MIDGIM .....
001356:
001357:                                                                                                  #  MOD NO. 0, BY WILLMAN, SUBROUTINE RENDGUID, LOG P34-P35, P74-P75
001358:                                                                                                  #   REVISION 03, 17 FEB 67
001359:
001360:                                                                                                  #           IF THE ACTIVE VEHICLE IS DOING THE COMPUTATION, MIDGIM COMPUTES
001361:                                                                                                  #  THE POSITIVE MIDDLE GIMBAL ANGLE OF THE ACTIVE VEHICLE TO THE INPUT
001362:                                                                                                  #  DELTA VELOCITY VECTOR (0D IN PUSH LIST),  OTHERWISE
001363:                                                                                                  #  MIDGIM CONVERTS THE INPUT DELTA VELOCITY VECTOR FROM INERTIAL COORDIN-
001364:                                                                                                  #  ATES TO LOCAL VERTICAL COORDINATES OF THE ACTIVE VEHICLE.
001365:
001366:                                                                                                  #    .. INPUTS ..
001367:
001368:                                                                                                  #       NAME      MEANING                              UNITS/SCALING/MODE
001369:
001370:                                                                                                  #     AVFLAG  INT FLAG - 0 IS CSM ACTIVE, 1 IS LEM ACTIVE             BIT
001371:                                                                                                  #     RINIT   ACTIVE VEHICLE RADIUS VECTOR            METERS/CSEC (+7) VT
001372:                                                                                                  #     VINIT   ACTIVE VEHICLE VELOCITY VECTOR          METERS/CSEC (+7) VT
001373:                                                                                                  #     0D(PL)  ACTIVE VEHICLE DELTA VELOCITY VECTOR    METERS/CSEC (+7) VT
001374:
001375:                                                                                                  #   .. OUTPUTS ..
001376:
001377:                                                                                                  #     NAME        MEANING                                UNITS/SCALING/MODE
001378:
001379:                                                                                                  #      +MGA  + MIDDLE GIMBAL ANGLE                   REVOLUTIONS (+0) DP
001380:                                                                                                  #    DELVLVC DELTA VELOCITY VECTOR IN LV COORD.      METERS/CSEC (+7) VT
001381:                                                                                                  #   MGLVFLAG INT FLAG - 0 IS +MGA COMPUTED, 1 IS DELVLVC COMP.   -   BIT
001382:
001383:                                                                                                  #   .. CALLING SEQUENCE ..
001384:
001385:                                                                                                  #  L       CALL
001386:                                                                                                  #  L+1             MIDGIM
001387:                                                                                                  #  L+2     (RETURN - ALWAYS)
001388:
001389:                                                                                                  #    .. NO SUBROUTINES CALLED ..
001390:
001391:                                                                                                  #    .. DEBRIS - ERASEABLE TEMPORARY USAGE
001392:
001393:                                                                                                  #         A,Q,L, PUSH LIST, MPAC.
001394:
001395:                                                                                                  #    .. ALARMS - NONE ..
001396:


001398:                                                                                                  #  MIDDLE GIMBAL ANGLE COMPUTATION.
001399:
001400: 22,2000                                           SETLOC   MIDDGIM
001401: 22,2000                                           BANK
001402:
001403: 22,3242                                           COUNT*   $$/MIDG
001404:
001405: 22,3242           20000 00000  HALFREV            2DEC     1          B-1
001406: 21,2000                                           SETLOC   MIDDGIM1
001407: 21,2000                                           BANK
001408: 21,2006                                           COUNT*   $$/MIDG
001409:
001410: 21,2006           53575        GET+MGA            VLOAD    UNIT                                  #  (PL 0D) V (+7) TO MPAC, UNITIZE  UV (+1)
001411: 21,2007           77656                           UNIT
001412: 21,2010           72441                           DOT      SL1                                   #  DOT UV WITH Y(STABLE MEMBER) AND RESCALE
001413: 21,2011           01740                                    REFSMMAT   +6                         #   FROM +2 TO +1 FOR ASIN ROUTINE
001414: 21,2012           51136                           ARCSIN   BPL
001415: 21,2013           42017                                    SETMGA
001416: 21,2014           43215                           DAD      DAD                                   #  CONVERT -MGA TO +MGA BY
001417: 21,2015           05243                                    HALFREV                               #  ADDING ONE REVOLUTION
001418: 21,2016           05243                                    HALFREV
001419: 21,2017           02244        SETMGA             STORE    +MGA
001420: 21,2020           43414                           CLR      RVQ                                   #  CLEAR MGLVFLAG TO INDICATE +MGA CALC
001421: 21,2021           02675                                    MGLVFLAG                              #      AND EXIT
001422: 21,2022           53575        GET.LVC            VLOAD    UNIT                                  #  (PL 6D)   R (+29) IN MPAC, UNITIZE UR
001423: 21,2023           02314                                    RINIT
001424: 21,2024           77676                           VCOMP                                          #  U(-R)
001425: 21,2025           00023                           STORE    18D                                   #  U(-R) TO 18D
001426: 21,2026           53435                           VXV      UNIT                                  #  U(-R)*V EQ V*U(R), U(V*R)
001427: 21,2027           02322                                    VINIT
001428: 21,2030           00015                           STORE    12D                                   #  U(V*R) TO 12D
001429: 21,2031           53435                           VXV      UNIT                                  #  U(V*R)*U(-R), U((V*R)*(-R))
001430: 21,2032           00023                                    18D
001431: 21,2033           24007                           STOVL    6D                                    #  TRANSFORMATION MATRIX IS IN 6D (+1)
001432: 21,2034           00001                                    0D                                    #  DELTA V (+7) IN 0D
001433: 21,2035           76521                           MXV      VSL1                                  #  CONVERT FROM INER COOR TO LV COOR (+8)
001434: 21,2036           00007                                    6D                                    #   AND SCALE +7 IN MPAC
001435: 21,2037           03434                           STORE    DELVLVC                               #  STORE IN DELVLVC (+7)
001436: 21,2040           43414                           SET      RVQ                                   #  SET MGLVFLAG TO INDICATE LVC CALC
001437: 21,2041           02475                                    MGLVFLAG                              #      AND EXIT
001438:                                                                                                  #        ..... END OF MIDGIM ROUTINE .....
001439:


001441: 10,2000                                           BANK     10
001442: 10,2000                                           SETLOC   SLCTMU
001443: 10,2000                                           BANK
001444: 10,2000                                           COUNT*   $$/MIDG
001445:
001446: 10,2000           77160        SELECTMU           AXC,1    AXT,2
001447: 10,2001           00002                                    2D
001448: 10,2002           00000                                    0D
001449: 10,2003           77614                           BOFF
001450: 10,2004           04343                                    CMOONFLG
001451: 10,2005           20011                                    SETMUER
001452: 10,2006           77160                           AXC,1    AXT,2
001453: 10,2007           00012                                    10D
001454: 10,2010           00002                                    2D
001455: 10,2011           66143        SETMUER            DLOAD*   SXA,1
001456: 10,2012           10011                                    MUTABLE    +4,1
001457: 10,2013           02776                                    RTX1
001458: 10,2014           22310                           STODL*   RTSR1/MU
001459: 10,2015           10003                                    MUTABLE    -2,1
001460: 10,2016           54214                           BOFF     SR
001461: 10,2017           04343                                    CMOONFLG
001462: 10,2020           20022                                    RTRNMU
001463: 10,2021           20607                                    6D
001464: 10,2022           02312        RTRNMU             STORE    RTMU
001465: 10,2023           43134                           SXA,2    CLEAR
001466: 10,2024           02777                                    RTX2
001467: 10,2025           01271                                    FINALFLG
001468: 10,2026           77650                           GOTO
001469: 10,2027           73516                                    VN1645
001470:


001472:                                                                                                  #  ..... PERIAPO .....
001473:
001474:                                                                                                  #  MOD NO -1       LOG SECTION - P34-P35, P74-P75
001475:                                                                                                  #  MOD BY WHITE.P  DATE 18JAN68
001476:
001477:                                                                                                  #  FUNCTIONAL DESCRIPTION
001478:
001479:                                                                                                  #        THIS SUBROUTINE COMPUTES THE TWO BODY APOCENTER AND PERICENTER
001480:                                                                                                  #        ALTITUDES GIVEN THE POSITION AND VELOCITY VECTORS FOR A POINT ON
001481:                                                                                                  #        THE TRAJECTORY AND THE PRIMARY BODY.
001482:
001483:                                                                                                  #        SETRAD IS CALLED TO  DETERMINE THE RADIUS OF THE PRIMARY BODY.
001484:
001485:                                                                                                  #        APSIDES IS CALLED TO SOLVE FOR THE TWO BODY RADII OF APOCENTER AND
001486:                                                                                                  #        PERICENTER AND THE ECCENTRICITY OF THE TRAJECTORY.
001487:
001488:                                                                                                  #  CALLING SEQUENCE
001489:
001490:                                                                                                  #        L         CALL
001491:                                                                                                  #        L+1               PERIAPO
001492:                                                                                                  #        L+2       (RETURN - ALWAYS)
001493:
001494:                                                                                                  #  INPUT
001495:
001496:                                                                                                  #        (1) RVEC     POSITION VECTOR IN METERS
001497:                                                                                                  #                     SCALE FACTOR - EARTH +29, MOON +27
001498:                                                                                                  #        (2) VVEC     VELOCITY VECTOR IN METERS/CENTISECOND
001499:                                                                                                  #                     SCALE FACTOR - EARTH +7, MOON +5
001500:                                                                                                  #        (3) X1       PRIMARY BODY INDICATOR
001501:                                                                                                  #                     EARTH -2, MOON -10
001502:
001503:                                                                                                  #  OUTPUT
001504:
001505:                                                                                                  #        (1) 2D       APOCENTER RADIUS IN METERS
001506:                                                                                                  #                     SCALE FACTOR - EARTH +29, MOON +27
001507:                                                                                                  #        (2) 4D       APOCENTER ALTITUDE IN METERS
001508:                                                                                                  #                     SCALE FACTOR - EARTH +29, MOON +27
001509:                                                                                                  #        (3) 6D       PERICENTER RADIUS IN METERS
001510:                                                                                                  #                     SCALE FACTOR - EARTH +29, MOON +27
001511:                                                                                                  #        (4) 8D       PERICENTER ALTITUDE IN METERS
001512:                                                                                                  #                     SCALE FACTOR - EARTH +29, MOON +27
001513:                                                                                                  #        (5) ECC      ECCENTRICITY OF CONIC TRAJECTORY
001514:                                                                                                  #                     SCALE FACTOR - +3
001515:                                                                                                  #        (6) XXXALT   RADIUS OF THE PRIMARY BODY IN METERS
001516:                                                                                                  #                     SCALE FACTOR - EARTH +29, MOON +27
001517:                                                                                                  #        (7) PUSHLOC  EQUALS 10D
001518:
001519:                                                                                                  #  SUBROUTINES USED
001520:
001521:                                                                                                  #        SETRAD
001522:


001524:                                                                                                  #        APSIDES
001525:
001526: 23,2000                                           SETLOC   APOPERI
001527: 23,2000                                           BANK
001528:
001529: 23,2335                                           COUNT*   $$/PERAP
001530:
001531: 23,2335           00302 17755  RPAD               2DEC     6373338    B-29                       #  STANDARD RADIUS  OF PAD 37-B.
001532:                                                                                                  #  = 20 909 901.57 FT
001533:
001534: 23,2337           53754        PERIAPO1           LXA,2    VSR*
001535: 23,2340           02777                                    RTX2
001536: 23,2341           57176                                    0,2
001537: 23,2342           26744                           STOVL    VVEC
001538: 23,2343           53750                           LXA,1    VSR*
001539: 23,2344           02776                                    RTX1
001540: 23,2345           57176                                    0,2
001541: 23,2346           02655                           STORE    RVEC
001542: 23,2347           45020        PERIAPO            STQ      CALL
001543: 23,2350           03463                                    NORMEX
001544: 23,2351           46365                                    SETRAD
001545: 23,2352           37671                           STCALL   XXXALT
001546: 23,2353           25704                                    APSIDES
001547: 23,2354           41401                           SETPD    PUSH                                  #  2D = APOCENTER RADIUS   B29 OR B27
001548: 23,2355           00003                                    2D
001549: 23,2356           65225                           DSU      PDDL                                  #  4D = APOGEE ALTITUDE    B29 OR B27
001550: 23,2357           03671                                    XXXALT
001551: 23,2360           00001                                    0D
001552: 23,2361           45206                           PUSH     DSU                                   #  6D = PERICENTER RADIUS  B29 OR B27
001553: 23,2362           03671                                    XXXALT
001554: 23,2363           52006                           PUSH     GOTO                                  #  8D = PERIGEE ALTITUDE   B29 OR B27
001555: 23,2364           03463                                    NORMEX
001556:


001558:                                                                                                  #  SETRAD
001559:
001560: 23,2365           41545        SETRAD             DLOAD    PUSH
001561: 23,2366           06336                                    RPAD
001562: 23,2367           63130                           SXA,1    INCR,2
001563: 23,2370           00047                                    X2
001564: 23,2371           00002                                    2D
001565: 23,2372           46135                           SLOAD    BHIZ
001566: 23,2373           00050                                    X2
001567: 23,2374           46400                                    SETRADX
001568: 23,2375           51575                           VLOAD    ABVAL
001569: 23,2376           02021                                    RLS
001570: 23,2377           77725                           PDDL
001571: 23,2400           43545        SETRADX            DLOAD    RVQ
001572:


001574:                                                                                                  #  PRECSET
001575:
001576: 23,2401           77620        PRECSET            STQ
001577: 23,2402           03463                                    NORMEX
001578: 23,2403           37574                           STCALL   TDEC2
001579: 23,2404           27115                                    LEMPREC
001580: 23,2405           77624                           CALL
001581: 23,2406           46417                                    LEMSTORE
001582: 23,2407           77745                           DLOAD
001583: 23,2410           03574                                    TDEC2
001584: 23,2411           34041                           STCALL   TDEC1
001585: 23,2412           27101                                    CSMPREC
001586: 23,2413           77624                           CALL
001587: 23,2414           46427                                    CSMSTORE
001588: 23,2415           77650                           GOTO
001589: 23,2416           03463                                    NORMEX
001590: 23,2417           43175        LEMSTORE           VLOAD    BOFF
001591: 23,2420           00001                                    RATT
001592: 23,2421           01352                                    AVFLAG
001593: 23,2422           46433                                    PASSIVE
001594: 23,2423           27536        ACTIVE             STOVL    RACT3
001595: 23,2424           00007                                    VATT
001596: 23,2425           03544                           STORE    VACT3
001597: 23,2426           77616                           RVQ
001598: 23,2427           43175        CSMSTORE           VLOAD    BOFF
001599: 23,2430           00001                                    RATT
001600: 23,2431           01352                                    AVFLAG
001601: 23,2432           46423                                    ACTIVE
001602: 23,2433           27552        PASSIVE            STOVL    RPASS3
001603: 23,2434           00007                                    VATT
001604: 23,2435           03560                           STORE    VPASS3
001605: 23,2436           77616                           RVQ
001606:


001608:                                                                                                  #  VECSHIFT
001609:
001610: 23,2437           53754        VECSHIFT           LXA,2    VSR*
001611: 23,2440           02777                                    RTX2
001612: 23,2441           57176                                    0,2
001613: 23,2442           63350                           LXA,1    PDVL
001614: 23,2443           02776                                    RTX1
001615: 23,2444           63257                           VSR*     PDVL
001616: 23,2445           57176                                    0,2
001617: 23,2446           77616                           RVQ
001618:


001620:                                                                                                  #  SHIFTR1
001621:
001622: 23,2447           53754        SHIFTR1            LXA,2    SL*
001623: 23,2450           02777                                    RTX2
001624: 23,2451           57576                                    0,2
001625: 23,2452           77616                           RVQ
001626:


001628:                                                                                                  #  PROGRAM DESCRIPTION
001629:                                                                                                  #  SUBROUTINE NAME        R36     OUT-OF-PLANE RENDEZVOUS ROUTINE
001630:                                                                                                  #  MOD NO.  0                          DATE      22 DECEMBER 67
001631:                                                                                                  #  MOD BY   N.M.NEVILLE                LOG SECTION  EXTENDED VERBS
001632:                                                                                                  #  FUNCTIONAL DESCRIPTION
001633:
001634:                                                                                                  #  TO DISPLAY AT ASTRONAUT REQUEST LGC CALCULATED RENDEZVOUS
001635:                                                                                                  #  OUT-OF-PLANE PARAMETERS (Y , YDOT , PSI). (REQUESTED BY DSKY).
001636:
001637:                                                                                                  #  CALLING SEQUENCE
001638:
001639:                                                                                                  #  ASTRONAUT REQUEST THROUGH DSKY  V 90 E
001640:
001641:                                                                                                  #  SUBROUTINES CALLED
001642:
001643:                                                                                                  #  EXDSPRET
001644:                                                                                                  #  GOMARKF
001645:                                                                                                  #  CSMPREC
001646:                                                                                                  #  LEMPREC
001647:                                                                                                  #  SGNAGREE
001648:                                                                                                  #  LOADTIME
001649:
001650:                                                                                                  #  NORMAL EXIT MODES
001651:
001652:                                                                                                  #  ASTRONAUT REQUEST THROUGH DSKY TO TERMINATE PROGRAM V 34 E
001653:
001654:                                                                                                  #  ALARM OR ABORT EXIT MODES
001655:
001656:                                                                                                  #  NONE
001657:
001658:                                                                                                  #  OUTPUT
001659:
001660:                                                                                                  #  DECIMAL DISPLAY OF TIME , Y , YDOT AND PSI
001661:
001662:                                                                                                  #  DISPLAYED VALUES Y , YDOT , AND PSI , ARE STORED IN ERASABLE
001663:                                                                                                  #  REGISTERS RANGE , RRATE AND RTHETA RESPECTIVELY.
001664:
001665:                                                                                                  #  ERASABLE INITIALIZATION REQUIRED
001666:                                                                                                  #  CSM AND LEM STATE VECTORS
001667:
001668:                                                                                                  #  DEBRIS
001669:
001670:                                                                                                  #  CENTRALS A,Q,L
001671:
001672:                                                                                                  #  OTHER THOSE USED BY THE ABOVE LISTED SUBROUTINES
001673:
001674: 20,2115                                           BANK     20
001675: 04,2000                                           SETLOC   R36LM
001676: 04,2000                                           BANK
001677:


001679: 04,2677  E7,1441                                  EBANK=   TIG
001680: 04,2677                                           COUNT*   $$/R36
001681:
001682: 04,2677           00006        R36                EXTEND
001683: 04,2700           31442                           DCA      TIG                                   #  SET TIME-OF-EVENT TO TIG FOR NOMINAL
001684: 04,2701           53051                           DXCH     DSPTEMX                               #  DISPLAY
001685: 04,2702           33012                           CAF      V06N16N
001686: 04,2703           04607                           TC       BANKCALL
001687: 04,2704           20323                           CADR     GOMARKF
001688: 04,2705           15474                           TCF      ENDEXT                                #  TERMINATE
001689: 04,2706           12710                           TCF      +2                                    #  PROCEED
001690: 04,2707           12702                           TCF      -5                                    #  RECYCLE FOR ASTRONAUT INPUT TIME
001691: 04,2710           06060                           TC       INTPRET
001692: 04,2711           53145                           DLOAD    BZE
001693: 04,2712           01051                                    DSPTEMX
001694: 04,2713           11007                                    GETNOW                                #  ASTOR-LOADED ZERO, GET PRES TIME
001695: 04,2714           34041        R36INT             STCALL   TDEC1
001696: 04,2715           27101                                    OTHPREC
001697: 04,2716           63375                           VLOAD    PDVL
001698: 04,2717           00007                                    VATT
001699: 04,2720           00001                                    RATT                                  #  -
001700: 04,2721           02200                           STORE    RPASS36                               #  R
001701: 04,2722           63256                           UNIT     PDVL                                  #   P
001702: 04,2723           53435                           VXV      UNIT                                  #  -
001703: 04,2724           77626                           STADR
001704: 04,2725           61571                           STODL    UNP36                                 #  U
001705: 04,2726           00015                                    TAT
001706: 04,2727           34041                           STCALL   TDEC1
001707: 04,2730           27115                                    THISPREC
001708: 04,2731           63375                           VLOAD    PDVL                                  #                   -
001709: 04,2732           00007                                    VATT                                  #  VELOCITY VECTOR  V               00D
001710: 04,2733           00001                                    RATT                                  #                    A
001711: 04,2734           41406                           PUSH     PUSH                                  #  POSITION VECTOR  R   IN  06D AND 12D
001712: 04,2735           63245                           BVSU     PDVL                                  #                    A   -   -
001713: 04,2736           02200                                    RPASS36                               #  LINE OF SIGHT VECTOR  R - R      12D
001714: 04,2737           72441                           DOT      SL1                                   #                         P   A
001715: 04,2740           02206                                    UNP36                                 #      -   -
001716: 04,2741           26172                           STOVL    YLEM
001717: 04,2742           00001                                    00D                                   #           A
001718: 04,2743           72441                           DOT      SL1
001719: 04,2744           02206                                    UNP36                                 #  .   -   -
001720: 04,2745           26174                           STOVL    YDOTLEM
001721: 04,2746           00007                                    06D                                   #  -      A   -
001722: 04,2747           41456                           UNIT     PUSH                                  #  U  = UNIT( R  )                  18D
001723: 04,2750           47235                           VXV      VXV                                   #   RA          A
001724: 04,2751           00001                                    00D                                   #   -    -     -    -
001725: 04,2752           00023                                    18D                                   #  (U  X V ) X U   =U
001726: 04,2753           53552                           VSL2     UNIT                                  #    RA   A     RA    A
001727: 04,2754           77656                           UNIT
001728: 04,2755           24001                           STOVL    00D                                   #  UNIT HORIZONTAL IN FORWARD DIR.  00D
001729:


001731: 04,2756           00023                                    18D
001732: 04,2757           74241                           DOT      VXSC                                  #  -
001733: 04,2760           00015                                    12D                                   #  U
001734: 04,2761           77752                           VSL2                                           #   L
001735: 04,2762           53445                           BVSU     UNIT
001736: 04,2763           77656                           UNIT
001737: 04,2764           50206                           PUSH     DOT                                   #  LOS PROJECTED INTO HORIZONTAL    12D
001738: 04,2765           00001                                    00D                                   #  PLANE
001739: 04,2766           65552                           SL1      ARCCOS                                #               -   -
001740: 04,2767           26176                           STOVL    PHILEM
001741: 04,2770           50235                           VXV      DOT                                   #                A   L
001742: 04,2771           00001                                    00D
001743: 04,2772           71244                           BPL      DLOAD
001744: 04,2773           11000                                    R36TAG2
001745: 04,2774           24020                                    LODPMAX
001746: 04,2775           77625                           DSU
001747: 04,2776           02176                                    PHILEM
001748: 04,2777           02176                           STORE    PHILEM
001749: 04,3000           77776        R36TAG2            EXIT
001750: 04,3001           33013                           CAF      V06N90N                               #   DISPLAY Y , YDOT , AND PSI
001751: 04,3002           04607                           TC       BANKCALL
001752: 04,3003           20323                           CADR     GOMARKF
001753: 04,3004           15474                           TCF      ENDEXT                                #  TERMINATE
001754: 04,3005           15474                           TCF      ENDEXT                                #  PROCEED , END OF PROGRAM
001755: 04,3006           12677                           TCF      R36                                   #  RECYCLE, TIG OR ASTRO-OPTION
001756: 04,3007           52034        GETNOW             RTB      GOTO                                  #  ASTRO-SELECTED PRESENT TIME
001757: 04,3010           21603                                    LOADTIME
001758: 04,3011           10714                                    R36INT
001759: 04,3012           01420        V06N16N            VN       00616
001760: 04,3013           01532        V06N90N            VN       00690

End of include-file P34-P35,_P74-P75.agc.  Parent file is MAIN.agc


