
Source Code


000002:                                                                                                  ## Copyright:   Public domain.
000003:                                                                                                  ## Filename:    P51-P53.agc
000004:                                                                                                  ## Purpose:     A section of Luminary revision 210.
000005:                                                                                                  ##              It is part of the source code for the Lunar Module's (LM)
000006:                                                                                                  ##              Apollo Guidance Computer (AGC) for Apollo 15-17.
000007:                                                                                                  ##              This file is intended to be a faithful transcription, except
000008:                                                                                                  ##              that the code format has been changed to conform to the
000009:                                                                                                  ##              requirements of the yaYUL assembler rather than the
000010:                                                                                                  ##              original YUL assembler.
000011:                                                                                                  ## Reference:   pp. 923-981
000012:                                                                                                  ## Assembler:   yaYUL
000013:                                                                                                  ## Contact:     Ron Burkey <info@sandroid.org>.
000014:                                                                                                  ## Website:     www.ibiblio.org/apollo/index.html
000015:                                                                                                  ## Mod history: 2016-11-17 JL   Created from Luminary131 version.
000016:                                                                                                  ##              2016-12-07 MAS  Began transcription.
000017:                                                                                                  ##              2016-12-08 MAS  Finished updates for Luminary 210.
000018:                                                                                                  ##              2016-12-11 HG   Fix operand FLT69FLG -> FLT59FLG
000019:                                                                                                  ##                                  Operator TCF GOTOPOOH -> TC GOTOPOOH
000020:                                                                                                  ##                                           TC  CHKOUT   -> TCF CHKOUT
000021:                                                                                                  ##              2016-12-26 RSB  Comment-text proofed using ProoferComments
000022:                                                                                                  ##                              and corrected errors found.
000023:


000025:                                                                                                  #  PROGRAM NAME- PROG52                                                                   DATE- JAN 9, 1967
000026:                                                                                                  #  MOD NO- 0                                                                              LOG SECTION- P51-P53
000027:                                                                                                  #  MODIFICATION BY- LONSKE                                                                ASSEMBLY- SUNDANCE REV 46
000028:
000029:                                                                                                  #  FUNCTIONAL DESCRIPTION-
000030:
000031:                                                                                                  #       ALIGNS THE IMU TO ONE OF THREE ORIENTATIONS SELECTED BY THE ASTRONAUT. THE PRESENT IMU ORIENTATION IS KNOWN
000032:                                                                                                  #  AND IS STORED IN REFSMMAT. THE THREE POSSIBLE ORIENTATIONS MAY BE_
000033:
000034:                                                                                                  #       (A) PREFERRED ORIENTATION
000035:
000036:                                                                                                  #        AN OPTIMUM ORIENTATION FOR A PREVIOUSLY CALCULATED MANUEVER. THIS ORIENTATION MUST BE CALCULATED AND
000037:                                                                                                  #       STORED BY A PREVIOUSLY SELECTED PROGRAM.
000038:
000039:                                                                                                  #       (B) NOMINAL ORIENTATION
000040:
000041:                                                                                                  #           X   =  UNIT ( R )
000042:                                                                                                  #           -SM
000043:
000044:                                                                                                  #           Y  =  UNIT (V X R)
000045:                                                                                                  #            SM
000046:
000047:                                                                                                  #           Z   =  UNIT (X   X  Y  )
000048:                                                                                                  #            SM           SM     SM
000049:
000050:                                                                                                  #           WHERE_
000051:                                                                                                  #            R = THE GEOCENTRIC RADIUS VECTOR AT TIME T(ALIGN) SELECTED BY THE ASTRONAUT
000052:                                                                                                  #            -
000053:
000054:                                                                                                  #            V = THE INERTIAL VELOCITY VECTOR AT TIME T(ALIGN) SELECTED BY THE ASTRONAUT
000055:                                                                                                  #            -
000056:
000057:                                                                                                  #       (C) REFSMMAT ORIENTATION
000058:
000059:                                                                                                  #           (D)  LANDING SITE - THIS IS NOT AVAILIBLE IN SUNDANCE
000060:
000061:                                                                                                  #        THIS SELECTION CORRECTS THE PRESENT IMU ORIENTATION. THE PRESENT ORIENTATION DIFFERS FROM THAT TO WHICH IT
000062:                                                                                                  #       WAS LAST ALIGNED ONLY DUE TO GYRO DRIFT(I.E. NEITHER GIMBAL LOCK NOR IMU POWER INTERRUPTION HAS OCCURED
000063:                                                                                                  #       SINCE THE LAST ALIGNMENT).
000064:
000065:                                                                                                  #       AFTER A IMU ORIENTATION HAS BEEN SELECTED ROUTINE S52.2 IS OPERATED TO COMPUTE THE GIMBAL ANGLES USING THE
000066:                                                                                                  #  NEW ORIENTATION AND THE PRESENT VEHICLE ATTITUDE. CAL52A THEN USES THESE ANGLES, STORED IN THETAD,+1,+2, TO
000067:                                                                                                  #  COARSE ALIGN THE IMU. THE STAR SELECTION ROUTINE, R56, IS THEN OPERATED. IF 2 STARS ARE NOT AVAILABLE AN ALARM
000068:                                                                                                  #  IS FLASHED TO NOTIFY THE ASTRONAUT. AT THIS POINT THE ASTRONAUT WILL MANUEVER THE VEHICLE AND SELECT 2 STARS
000069:                                                                                                  #  EITHER MANUALLY OR AUTOMATICALLY. AFTER 2 STARS HAVE BEEN SELECTED THE IMU IS FINE ALIGNED USING ROUTINE R51. IF
000070:                                                                                                  #  THE RENDEZVOUS NAVIGATION PROCESS IS OPERATING(INDICATED BY RNDVZFLG) P20 IS DISPLAYED. OTHERWISE P00 IS
000071:                                                                                                  #  REQUESTED.
000072:
000073:                                                                                                  #  CALLING SEQUENCE-


000075:                                                                                                  #       THE PROGRAM IS CALLED BY THE ASTRONAUT BY DSKY ENTRY.
000076:
000077:                                                                                                  #  SUBROUTINES CALLED-
000078:
000079:                                                                                                  #      1. FLAGDOWN      7. S52.2           13. NEWMODEX
000080:                                                                                                  #      2. R02BOTH       8. CAL53A          14. PRIOLARM
000081:                                                                                                  #      3. GOPERF4       9. FLAGUP
000082:                                                                                                  #      4. MATMOVE      10. R56
000083:                                                                                                  #      5. GOFLASH      11. R51
000084:                                                                                                  #      6. S52.3        12. GOPERF3
000085:
000086:                                                                                                  #  NORMAL EXIT MODES-
000087:
000088:                                                                                                  #      EXITS TO ENDOFJOB
000089:
000090:                                                                                                  #  ALARM OR ABORT EXIT MODES-
000091:
000092:                                                                                                  #      NONE
000093:
000094:                                                                                                  #  OUTPUT-
000095:
000096:                                                                                                  #      THE FOLLOWING MAY BE FLASHED ON THE DSKY
000097:                                                                                                  #         1. IMU ORIENTATION CODE
000098:                                                                                                  #         2. ALARM CODE 215 -PREFERRED IMU ORIENTATION NOT SPECIFIED
000099:                                                                                                  #         3. TIME OF NEXT IGNITION
000100:                                                                                                  #         4. GIMBAL ANGLES
000101:                                                                                                  #         5. ALARM CODE 405 -TWO STARS NOT AVAILABLE
000102:                                                                                                  #         6. PLEASE PERFORM P00
000103:                                                                                                  #      THE MODE DISPLAY MAY BE CHANGED TO 20
000104:
000105:                                                                                                  #  ERASABLE INITIALIZATION REQUIRED-
000106:
000107:                                                                                                  #      PFRATFLG SHOULD BE SET IF A PREFERRED ORIENTATION HAS BEEN COMPUTED.IF IT HAS BEEN COMPUTED IT IS STORED IN
000108:                                                                                                  #      XSMD,YSMD,ZSMD.
000109:                                                                                                  #      RNDVZFLG INDICATES WHETHER THE RENDEZVOUS NAVIGATION PROCESS IS OPERATING.
000110:
000111:                                                                                                  #  DEBRIS-
000112:
000113:                                                                                                  #      WORK AREA
000114: 15,2000                                           SETLOC   P50S
000115: 15,2000                                           BANK
000116:
000117: 15,2201  E5,1755                                  EBANK=   BESTI
000118: 15,2201                                           COUNT*   $$/P52
000119: 15,2201           04607        PROG52             TC       BANKCALL
000120: 15,2202           33757                           CADR     R02BOTH                               #  IMU STATUS CHECK
000121: 15,2203           34741                           CAF      PFRATBIT
000122: 15,2204           70076                           MASK     FLAGWRD2                              #  IS PFRATFLG SET?
000123: 15,2205           10000                           CCS      A
000124: 15,2206           02211                           TC       P52A                                  #  YES


000126: 15,2207           36266                           CAF      THREE                                 #  DISPLAY REFSMMAT OPTION 3
000127: 15,2210           02212                           TC       P52A       +1
000128: 15,2211           34744        P52A               CAF      BIT1
000129: 15,2212           55144                           TS       OPTION2
000130: 15,2213           34744        P52B               CAF      BIT1
000131: 15,2214           04607                           TC       BANKCALL                              #  FLASH OPTION CODE AND ORIENTATION CODE
000132: 15,2215           20725                           CADR     GOPERF4R                              #  FLASH V04N06
000133: 15,2216           06001                           TC       GOTOPOOH
000134: 15,2217           12224                           TCF      +5                                    #  V33-PROCEED
000135: 15,2220           02213                           TC       P52B                                  #  NEW CODE - NEW ORIENTATION CODE INPUT
000136: 15,2221           05355                           TC       PHASCHNG                              #  DISPLAY RETURN
000137: 15,2222           00014                           OCT      00014
000138: 15,2223           05146                           TC       ENDOFJOB
000139:
000140: 15,2224           31144                           CA       OPTION2
000141: 15,2225           76266                           MASK     THREE
000142: 15,2226           50000                           INDEX    A
000143: 15,2227           02230                           TC       +1
000144: 15,2230           12236                           TCF      OPT4                                  #  OPTION 4 LANDING SITE
000145: 15,2231           12310                           TCF      P52H                                  #  OPTION 1 PREFERRED
000146: 15,2232           12243                           TCF      P52T                                  #  OPTION 2 NOMINAL
000147: 15,2233           06060        P52E               TC       INTPRET                               #  OPTION 3 REFSMMAT
000148: 15,2234           77650                           GOTO
000149: 15,2235           32321                                    P52F                                  #  GO DO R51
000150:
000151: 15,2236           34732        OPT4               CAF      EBANK4                                #  SET EBANK TO USE TLAND
000152: 15,2237           54003                           TS       EBANK
000153: 15,2240  E4,1426                                  EBANK=   TLAND
000154: 15,2240           00006                           EXTEND
000155: 15,2241           31427                           DCA      TLAND                                 #  IF OPTION 4 DISPLAY TLAND
000156: 15,2242           12245                           TCF      P52T       +2
000157:
000158: 15,2243           00006        P52T               EXTEND
000159: 15,2244           34746                           DCA      NEG0
000160: 15,2245           53045                           DXCH     DSPTEM1
000161: 15,2246           35005                           CAF      EBANK5                                #  RESTORE EBANK AFTER USE OF TLAND
000162: 15,2247           54003                           TS       EBANK
000163: 15,2250  E5,1774                                  EBANK=   TALIGN
000164: 15,2250           32325                           CAF      V06N34*
000165: 15,2251           04607                           TC       BANKCALL
000166: 15,2252           20471                           CADR     GOFLASH
000167: 15,2253           06001                           TC       GOTOPOOH
000168: 15,2254           02256                           TC       +2
000169: 15,2255           02250                           TC       -5
000170: 15,2256           53045                           DXCH     DSPTEM1
000171: 15,2257           00006                           EXTEND
000172: 15,2260           62262                           BZMF     +2                                    #  IF TIME ZERO OR NEG USE TIME2
000173: 15,2261           12264                           TCF      +3
000174: 15,2262           00006                           EXTEND
000175: 15,2263           30025                           DCA      TIME2


000177: 15,2264           53775                           DXCH     TALIGN
000178: 15,2265           31144        P52V               CA       OPTION2
000179: 15,2266           74743                           MASK     BIT2
000180: 15,2267           10000                           CCS      A
000181: 15,2270           02274                           TC       P52W
000182: 15,2271           06060                           TC       INTPRET                               #  OPTION 4 - GET LS ORIENTATION
000183: 15,2272           77650                           GOTO
000184: 15,2273           32355                                    P52LS
000185:


000187:                                                                                                  #  START ALIGNMENT
000188:
000189: 15,2274           06060        P52W               TC       INTPRET
000190: 15,2275           45145                           DLOAD    CALL                                  #  PICK UP ALIGN TIME
000191: 15,2276           02775                                    TALIGN                                #  COMPUTE NOMINAL IMU
000192: 15,2277           42740                                    S52.3                                 #   ORIENTATION
000193: 15,2300           77624        P52D               CALL                                           #  READ VEHICLE ATTITUDE AND
000194: 15,2301           42707                                    S52.2                                 #   COMPUTE GIMBAL ANGLES
000195: 15,2302           77776                           EXIT
000196: 15,2303           35001                           CAF      V06N22
000197: 15,2304           04607                           TC       BANKCALL                              #  DISPLAY GIMBAL ANGLES
000198: 15,2305           20471                           CADR     GOFLASH
000199: 15,2306           06001                           TC       GOTOPOOH
000200: 15,2307           12326                           TCF      COARSTYP                              #  V33-PROCEED, SEE IF GYRO TORQUE COARSE
000201: 15,2310           06060        P52H               TC       INTPRET
000202: 15,2311           77650                           GOTO
000203: 15,2312           32300                                    P52D
000204: 15,2313           06060        REGCOARS           TC       INTPRET
000205: 15,2314           77624                           CALL                                           #  DO COARSE ALIGN
000206: 15,2315           31316                                    CAL53A                                #   ROUTINE
000207: 15,2316           43014        COARSRET           SET      CLEAR
000208: 15,2317           01462                                    REFSMFLG
000209: 15,2320           01273                                    PFRATFLG
000210: 15,2321           77624        P52F               CALL
000211: 15,2322           31023                                    R51
000212: 15,2323           77776        P52OUT             EXIT
000213: 15,2324           06001                           TC       GOTOPOOH
000214: 15,2325     4777               VB05N09            =        V05N09
000215: 15,2325           01442        V06N34*            VN       634
000216:


000218:                                                                                                  #  CHECK FOR GRRO TORQUE COARSE ALIGNMENT
000219: 15,2326           32354        COARSTYP           CAF      OCT13
000220: 15,2327           04607                           TC       BANKCALL                              #  DISPLAY V 50N25 WITH COARSE ALIGN OPTION
000221: 15,2330           20635                           CADR     GOPERF1
000222: 15,2331           16001                           TCF      GOTOPOOH                              #  V34-TERMIN&OE
000223: 15,2332           12313                           TCF      REGCOARS                              #  V33-NORMAL COARSE
000224: 15,2333           06060                           TC       INTPRET                               #  V32-GYRO TORQUE COARSE
000225: 15,2334           64375                           VLOAD    MXV
000226: 15,2335           03607                                    XSMD                                  #  GET SM(DESIRED) WRT SM(PRESENT)
000227: 15,2336           01732                                    REFSMMAT
000228: 15,2337           77656                           UNIT
000229: 15,2340           26665                           STOVL    XDC
000230: 15,2341           03615                                    YSMD
000231: 15,2342           53521                           MXV      UNIT
000232: 15,2343           01732                                    REFSMMAT
000233: 15,2344           26673                           STOVL    YDC
000234: 15,2345           03623                                    ZSMD
000235: 15,2346           53521                           MXV      UNIT
000236: 15,2347           01732                                    REFSMMAT
000237: 15,2350           36701                           STCALL   ZDC
000238: 15,2351           31174                                    GYCOARS
000239: 15,2352           77650                           GOTO
000240: 15,2353           32323                                    P52OUT
000241: 15,2354           00013        OCT13              OCT      13
000242:


000244:                                                                                                  #  COMPUTE LANDING ORIENTATION FOR OPTION 4
000245: 15,2355           43014        P52LS              SET      CLEAR                                 #  GET LANDING SITE ORIENTATION
000246: 15,2356           01463                                    LUNAFLAG
000247: 15,2357           00662                                    ERADFLAG                              #  TO PICK UP RLS
000248: 15,2360           77201                           SETPD    VLOAD
000249: 15,2361           00001                                    0
000250: 15,2362           02021                                    RLS                                   #  PICK UP LANDING SITE VEC IN MF
000251: 15,2363           41525                           PDDL     PUSH                                  #  RLS PD 0-5
000252: 15,2364           02775                                    TALIGN
000253: 15,2365           36027                           STCALL   TLAND                                 #  JAM ALIGN TIME IN TLAND FOR OPTION 4
000254:
000255: 15,2366           55716                                    RP-TO-R                               #  TRANS RLS TO REF
000256: 15,2367           77742                           VSR2
000257: 15,2370           16032                           STODL    ALPHAV                                #  INPUT TO LAT-LONG
000258: 15,2371           02775                                    TALIGN
000259: 15,2372           77624                           CALL
000260: 15,2373           30455                                    N89DISP
000261: 15,2374           53575                           VLOAD    UNIT                                  #  COMPUTE LANDING SITE ORIENT (XSMD)
000262: 15,2375           02032                                    ALPHAV
000263: 15,2376           37607                           STCALL   XSMD
000264: 15,2377           11014                                    LSORIENT
000265: 15,2400           77650                           GOTO
000266: 15,2401           32300                                    P52D                                  #  NOW GO COMPUTE GIMBAL ANGLES
000267:
000268: 13,2000                                           SETLOC   P50S2
000269: 13,2000                                           BANK
000270:
000271: 13,2374           77773        MATMOVE            VLOAD*
000272: 13,2375           00001                                    0,1
000273: 13,2376           10001                           STORE    0,2
000274: 13,2377           77773                           VLOAD*
000275: 13,2400           00007                                    6D,1
000276: 13,2401           10007                           STORE    6D,2
000277: 13,2402           77773                           VLOAD*
000278: 13,2403           00015                                    12D,1
000279: 13,2404           10015                           STORE    12D,2
000280: 13,2405           77616                           RVQ
000281:


000283:                                                                                                  #  SUBROUTINE TO CALCULATE AND DISPLAY THE LUNAR LANDING SITE
000284:
000285: 14,2000                                           SETLOC   P50S1
000286: 14,2000                                           BANK
000287: 14,2455  E5,1642                                  EBANK=   XSM
000288:
000289: 14,2455           77620        N89DISP            STQ
000290: 14,2456           02746                                    QMAJ
000291: 14,2457           35242                           STCALL   SITIME                                #  STORE TIME
000292: 14,2460           26406                                    LAT-LONG
000293: 14,2461           70545                           DLOAD    SR1
000294: 14,2462           01122                                    LONG
000295: 14,2463           16711                           STODL    LANDLONG
000296: 14,2464           01124                                    ALT
000297: 14,2465           16713                           STODL    LANDALT
000298: 14,2466           01120                                    LAT
000299: 14,2467           02707                           STORE    LANDLAT
000300: 14,2470           77776                           EXIT
000301:
000302: 14,2471           32514        LSDISP             CAF      V06N89*                               #  DISPLAY LAT,LONG/2,ALT
000303: 14,2472           04607                           TC       BANKCALL
000304: 14,2473           20471                           CADR     GOFLASH
000305: 14,2474           16001                           TCF      GOTOPOOH                              #  V34-TERMINATE-EXIT P57
000306: 14,2475           12477                           TCF      +2                                    #  V33-PROCEED- ACCEPT LS DATA
000307: 14,2476           12471                           TCF      LSDISP                                #  V32 OR E- LOOK AGAIN AND/OR LOAD NEW LS
000308:
000309: 14,2477           06060                           TC       INTPRET
000310: 14,2500           72545                           DLOAD    SL1
000311: 14,2501           02711                                    LANDLONG
000312: 14,2502           15122                           STODL    LONG
000313: 14,2503           02713                                    LANDALT
000314: 14,2504           15124                           STODL    ALT
000315: 14,2505           02707                                    LANDLAT
000316: 14,2506           15120                           STODL    LAT
000317: 14,2507           01242                                    SITIME                                #  PICK UP TIME
000318: 14,2510           77624                           CALL                                           #  GET RLS BACK FROM LAT,LONG, ALT
000319: 14,2511           26457                                    LALOTORV                              #  RLS B-29 IN MPAC AND ALPHAV
000320: 14,2512           77650                           GOTO
000321: 14,2513           02746                                    QMAJ
000322: 14,2514           01531        V06N89*            VN       689
000323:


000325:                                                                                                  #  NAME -S50 ALIAS  LOCSAM
000326:                                                                                                  #  BY
000327:                                                                                                  #  VINCENT
000328:                                                                                                  #  FUNCTION - COMPUTE INPUTS FOR PICAPAR  AND PLANET
000329:
000330:                                                                                                  #           DEFINE
000331:
000332:
000333:                                                                                                  #           U    = UNIT( SUN WRT EARTH)
000334:                                                                                                  #            ES
000335:
000336:                                                                                                  #           U    =UNIT( MOON WRT EARTH)
000337:                                                                                                  #            EM
000338:
000339:                                                                                                  #           R    =POSITION VECTOR OF LEM
000340:                                                                                                  #            L
000341:
000342:                                                                                                  #           R    =MEAN DISTANCE (384402KM) BETWEEN EARTH AND MOON
000343:                                                                                                  #            EM
000344:
000345:                                                                                                  #           P    =RATIO   R   /(DISTANCE SUN TO EARTH)    >.00257125
000346:                                                                                                  #                           EM
000347:
000348:                                                                                                  #           R    =EQUATORIAL RADIUSS (6378.166KM) OF EARTH
000349:                                                                                                  #            E
000350:
000351:                                                                                                  #           LOCSAM  COMPUTES IN EARTH INFLUENCE
000352:
000353:                                                                                                  #       VSUN   =   U
000354:                                                                                                  #                   ES
000355:
000356:                                                                                                  #      VEARTH  =   -UNIT( R  )
000357:                                                                                                  #                          L
000358:
000359:                                                                                                  #      VMOON   =    UNIT(R  .U   - R  )
000360:                                                                                                  #                         EM  EM    L
000361:
000362:                                                                                                  #      CSUN    =   COS 90
000363:
000364:                                                                                                  #      CEARTH  =    COS(5 + ARCSIN(R /MAG(R )))
000365:                                                                                                  #                                   E      L
000366:
000367:                                                                                                  #      CMOON   =    COS 5
000368:
000369:
000370:                                                                                                  #  INPUT -  TIME IN MPAC
000371:                                                                                                  #  OUTPUT - LISTED ABOVE
000372:                                                                                                  #  SUBROUTINES -LSPOS,LEMPREC
000373:                                                                                                  #  DEBRIS - VAC AREA ,TSIGHT
000374:


000376: 14,2515                                           COUNT*   $$/LOSAM
000377:
000378: 14,2515  14,2515               S50                =        LOCSAM
000379: 14,2515           77620        LOCSAM             STQ
000380: 14,2516           02745                                    QMIN
000381: 14,2517           37562                           STCALL   TSIGHT
000382: 14,2520           33646                                    LSPOS
000383: 14,2521           77745                           DLOAD
000384: 14,2522           03562                                    TSIGHT
000385: 14,2523           34041                           STCALL   TDEC1
000386: 14,2524           27115                                    LEMPREC
000387: 14,2525           61131                           SSP      TIX,2
000388: 14,2526           00052                                    S2
000389: 14,2527           00000                                    0
000390: 14,2530           30552                                    MOONCNTR
000391: 14,2531           74375        EARTCNTR           VLOAD    VXSC
000392: 14,2532           02723                                    VMOON
000393: 14,2533           30001                                    RSUBEM
000394: 14,2534           52372                           VSL1     VSU
000395: 14,2535           00001                                    RATT
000396: 14,2536           77656                           UNIT
000397: 14,2537           26723                           STOVL    VMOON
000398: 14,2540           00001                                    RATT
000399: 14,2541           57456                           UNIT     VCOMP
000400: 14,2542           16707                           STODL    VEARTH
000401: 14,2543           30005                                    RSUBE
000402: 14,2544           77624                           CALL
000403: 14,2545           30604                                    OCCOS
000404: 14,2546           14017                           STODL    CEARTH
000405: 14,2547           30613                                    CSS5
000406: 14,2550           34023                           STCALL   CMOON
000407: 14,2551           30577                                    ENDSAM
000408: 14,2552           74375        MOONCNTR           VLOAD    VXSC
000409: 14,2553           02723                                    VMOON
000410: 14,2554           30007                                    ROE
000411: 14,2555           53445                           BVSU     UNIT
000412: 14,2556           02715                                    VSUN
000413: 14,2557           26715                           STOVL    VSUN
000414: 14,2560           02723                                    VMOON
000415: 14,2561           53361                           VXSC     VAD
000416: 14,2562           30001                                    RSUBEM
000417: 14,2563           00001                                    RATT
000418: 14,2564           57456                           UNIT     VCOMP
000419: 14,2565           26707                           STOVL    VEARTH
000420: 14,2566           00001                                    RATT
000421: 14,2567           57456                           UNIT     VCOMP
000422: 14,2570           16723                           STODL    VMOON
000423: 14,2571           30003                                    RSUBM
000424: 14,2572           77624                           CALL
000425: 14,2573           30604                                    OCCOS


000427: 14,2574           14023                           STODL    CMOON
000428: 14,2575           30613                                    CSS5
000429: 14,2576           00017                           STORE    CEARTH
000430: 14,2577           77745        ENDSAM             DLOAD
000431: 14,2600           30615                                    CSSUN
000432: 14,2601           00021                           STORE    CSUN
000433: 14,2602           77650                           GOTO
000434: 14,2603           02745                                    QMIN
000435: 14,2604           70471        OCCOS              DDV      SR1
000436: 14,2605           00045                                    36D
000437: 14,2606           43336                           ASIN     DAD
000438: 14,2607           30617                                    5DEGREES
000439: 14,2610           70546                           COS      SR1
000440: 14,2611           77616                           RVQ
000441: 14,2612                        CEARTH             =        14D
000442: 14,2612                        CSUN               =        16D
000443: 14,2612                        CMOON              =        18D
000444: 14,2612           07760 14473  CSS5               2DEC     .2490475                              #  (COS 5)/4
000445:
000446: 14,2614           04000 00000  CSSUN              2DEC     .125                                  #  (COS60)/4
000447:
000448: 14,2616           00343 21616  5DEGREES           2DEC     .013888889                            #     SCALED IN REVS
000449:


000451:                                                                                                  #  PROGRAM NAME - R56              DATE  DEC 20 66
000452:                                                                                                  #  MOD 1                           LOG SECTION P51-P53
000453:                                                                                                  #                                  ASSEMBLY  SUNDISK  REV40
000454:                                                                                                  #  BY KEN VINCENT
000455:
000456:                                                                                                  #  FUNCTION
000457:                                                                                                  #    THIS PROGRAM READ THE IMU-CDUS AND COMPUTES THE VEHICLE ORIENTATION
000458:                                                                                                  #  WITH RESPECT TO INERTIAL SPACE. IT THEN COMPUTES THE SHAFT AXIS (SAX)
000459:                                                                                                  #  WITH RESPECT TO REFERENCE INERTIAL. EACH STAR IN THE CATALOG IS TESTED
000460:                                                                                                  #  TO DETERMINE IF IT IS OCCULTED BY EITHER THE EARTH,SUN OR MOON. IF A
000461:                                                                                                  #  STAR IS NOT OCCULTED  THEN IT IS PAIRED WITH ALL STAR OF LOWER INDEX.
000462:                                                                                                  #  THE PAIRED STAR  IS TESTED FOR OCCULTATION. PAIRS OF STARS THAT PASS
000463:                                                                                                  #  THE OCCULTATION TESTS ARE TESTED FOR GOOD SEPARATION.A PAIR OF STARS
000464:                                                                                                  #  HAVE GOOD SEPERATION IF THE ANGLE BETWEEN THEM IS LESS THAN 100 DEGREES
000465:                                                                                                  #  AND MORE THAN 50 DEGREES. THOSE PAIRS WITH GOOD SEPARATION
000466:                                                                                                  #  ARE THEN TESTED TO SEE IF THEY LIE IN CURRENT FIELD OF VIEW.(WITHIN
000467:                                                                                                  #  50 DEGREESOF SAX).THE PAIR WITH MAX SEPARATION IS CHOSEN FROM
000468:                                                                                                  #  THOSE WITH GOOD SEPARATION,AND     IN FIELD OF VIEW.
000469:
000470:                                                                                                  #  CALLING SEQUENCE
000471:                                                                                                  #  L        TC     BANKCALL
000472:                                                                                                  #  L+1      CADR   R56
000473:                                                                                                  #  L+2      ERROR RETURN - NO STARS IN FIELD OF VIEW
000474:                                                                                                  #  L+3      NORMAL RETURN
000475:
000476:                                                                                                  #  OUTPUT
000477:                                                                                                  #  BESTI,BESTJ -SINGLE PREC,INTEGERS,STAR NUMBERS TIMES 6
000478:                                                                                                  #  VFLAG - FLAG BIT  SET IMPLIES NO STARS IN FIELD OF VIEW
000479:
000480:                                                                                                  #  INITIALIZATION
000481:                                                                                                  #  1)A CALL TO LOCSAM MUST BE MADE
000482:
000483:                                                                                                  #  DEBRIS
000484:                                                                                                  #  WORK AREA
000485:                                                                                                  #  X,Y,ZNB
000486:                                                                                                  #  SINCDU,COSCDU
000487:                                                                                                  #  STARAD - STAR +5
000488:
000489: 14,2620  14,2620               R56                =        PICAPAR
000490: 14,2620                                           COUNT*   $$/R56
000491: 14,2620           04636        PICAPAR            TC       MAKECADR
000492: 14,2621           55745                           TS       QMIN
000493: 14,2622           06060                           TC       INTPRET
000494: 14,2623           45014                           SET      CALL
000495: 14,2624           01465                                    VFLAG
000496: 14,2625           47522                                    CDUTRIG
000497: 14,2626           77624                           CALL
000498: 14,2627           20030                                    CALCSMSC
000499: 14,2630           71201                           SETPD    DLOAD
000500: 14,2631           00001                                    0
000501: 14,2632           24007                                    DPZERO


000503: 14,2633           26756                           STOVL    BESTI
000504: 14,2634           02665                                    XNB
000505: 14,2635           63361                           VXSC     PDVL
000506: 14,2636           24005                                    HALFDP
000507: 14,2637           02701                                    ZNB
000508: 14,2640           74370                           AXT,1    VXSC
000509: 14,2641           00344                                    228D                                  #  X1 = 37 X 6 +6
000510: 14,2642           24005                                    HALFDP
000511: 14,2643           77655                           VAD
000512: 14,2644           53505                           VXM      UNIT
000513: 14,2645           01732                                    REFSMMAT
000514: 14,2646           02731                           STORE    SAX                                   #  SAX = SHAFT AXIS
000515: 14,2647           66331                           SSP      SSP                                   #  S1=S2=6
000516: 14,2650           00051                                    S1
000517: 14,2651           00006                                    6
000518: 14,2652           00052                                    S2
000519: 14,2653           00006                                    6
000520: 14,2654           52100        PIC1               TIX,1    GOTO                                  #  MAJOR STAR
000521: 14,2655           30657                                    PIC2
000522: 14,2656           30774                                    PICEND
000523: 14,2657           50373        PIC2               VLOAD*   DOT
000524: 14,2660           30347                                    CATLOG,1
000525: 14,2661           02731                                    SAX
000526: 14,2662           50025                           DSU      BMN
000527: 14,2663           30773                                    CSS33
000528: 14,2664           30654                                    PIC1
000529: 14,2665           77754                           LXA,2
000530: 14,2666           00046                                    X1
000531: 14,2667           52104        PIC3               TIX,2    GOTO
000532: 14,2670           30672                                    PIC4
000533: 14,2671           30654                                    PIC1
000534: 14,2672           50373        PIC4               VLOAD*   DOT
000535: 14,2673           47430                                    CATLOG,2
000536: 14,2674           02731                                    SAX
000537: 14,2675           50025                           DSU      BMN
000538: 14,2676           30773                                    CSS33
000539: 14,2677           30667                                    PIC3
000540: 14,2700           47773                           VLOAD*   DOT*
000541: 14,2701           30347                                    CATLOG,1
000542: 14,2702           47430                                    CATLOG,2
000543: 14,2703           51025                           DSU      BPL
000544: 14,2704           30771                                    CSS40
000545: 14,2705           30667                                    PIC3
000546: 14,2706           45173                           VLOAD*   CALL
000547: 14,2707           30347                                    CATLOG,1
000548: 14,2710           30746                                    OCCULT
000549: 14,2711           77614                           BON
000550: 14,2712           01710                                    CULTFLAG
000551: 14,2713           30654                                    PIC1
000552: 14,2714           45173                           VLOAD*   CALL


000554: 14,2715           47430                                    CATLOG,2
000555: 14,2716           30746                                    OCCULT
000556: 14,2717           77614                           BON
000557: 14,2720           01710                                    CULTFLAG
000558: 14,2721           30667                                    PIC3
000559: 14,2722           77614        STRATGY            BONCLR
000560: 14,2723           01605                                    VFLAG
000561: 14,2724           30741                                    NEWPAR
000562: 14,2725           65120                           XCHX,1   XCHX,2
000563: 14,2726           02755                                    BESTI
000564: 14,2727           02756                                    BESTJ
000565: 14,2730           47773        STRAT              VLOAD*   DOT*
000566: 14,2731           30347                                    CATLOG,1
000567: 14,2732           47430                                    CATLOG,2
000568: 14,2733           43006                           PUSH     BOFINV
000569: 14,2734           01545                                    VFLAG
000570: 14,2735           30725                                    STRAT      -3
000571: 14,2736           45345                           DLOAD    DSU
000572: 14,2737           77644                           BPL
000573: 14,2740           30667                                    PIC3
000574: 14,2741           67130        NEWPAR             SXA,1    SXA,2
000575: 14,2742           02755                                    BESTI
000576: 14,2743           02756                                    BESTJ
000577: 14,2744           77650                           GOTO
000578: 14,2745           30667                                    PIC3
000579: 14,2746           51321        OCCULT             MXV      BVSU
000580: 14,2747           02707                                    CULTRIX
000581: 14,2750           00017                                    CSS
000582: 14,2751           77654                           BZE
000583: 14,2752           30765                                    CULTED
000584: 14,2753           75240                           BMN      SIGN
000585: 14,2754           30765                                    CULTED
000586: 14,2755           00160                                    MPAC       +3
000587: 14,2756           75240                           BMN      SIGN
000588: 14,2757           30765                                    CULTED
000589: 14,2760           00162                                    MPAC       +5
000590: 14,2761           43040                           BMN      CLRGO
000591: 14,2762           30765                                    CULTED
000592: 14,2763           01630                                    CULTFLAG
000593: 14,2764           00052                                    QPRET
000594: 14,2765           77614        CULTED             SETGO
000595: 14,2766           01430                                    CULTFLAG
000596: 14,2767           00052                                    QPRET
000597: 14,2770  0000016               CSS                =        CEARTH
000598: 14,2770           05110 35052  CSS40              2DEC     .16070                                #  COS 50 /4
000599:
000600: 14,2772           05110 35052  CSS33              2DEC     .16070                                #   COS 50 /4
000601:
000602: 14,2774           77414        PICEND             BOFF     EXIT
000603: 14,2775           01745                                    VFLAG


000605: 14,2776           31000                                    PICGXT
000606: 14,2777           03021                           TC       PICBXT
000607: 14,3000           73150        PICGXT             LXA,1    LXA,2
000608: 14,3001           02755                                    BESTI
000609: 14,3002           02756                                    BESTJ
000610: 14,3003           47775                           VLOAD    DOT*
000611: 14,3004           02731                                    SAX
000612: 14,3005           30347                                    CATLOG,1
000613: 14,3006           47715                           PDVL     DOT*
000614: 14,3007           02731                                    SAX
000615: 14,3010           47430                                    CATLOG,2
000616: 14,3011           77625                           DSU
000617: 14,3012           66044                           BPL      SXA,1
000618: 14,3013           31017                                    PICNSWP
000619: 14,3014           02756                                    BESTJ
000620: 14,3015           77734                           SXA,2
000621: 14,3016           02755                                    BESTI
000622: 14,3017           77776        PICNSWP            EXIT
000623: 14,3020           25745                           INCR     QMIN
000624: 14,3021           31745        PICBXT             CA       QMIN
000625: 14,3022           04613                           TC       SWCALL
000626: 14,3023                        VPD                =        0D
000627: 14,3023                        V0                 =        6D
000628: 14,3023                        V1                 =        12D
000629: 14,3023                        V2                 =        18D
000630: 14,3023                        V3                 =        24D
000631: 14,3023                        DP0                =        30D
000632: 14,3023                        DP1                =        32D
000633:


000635:                                                                                                  #  NAME-R51  FINE ALIGN
000636:                                                                                                  #  FUNCTION-TO ALIGN THE STABLE MEMBER TO REFSMMAT
000637:                                                                                                  #  CALLING SEQ- CALL  R51
000638:                                                                                                  #  INPUT -  REFSMMAT
000639:                                                                                                  #  OUTPUT- GYRO TORQUE PULSES
000640:                                                                                                  #  SUBROUTINES -LOCSAM,PICAPAR,R52,R53,R54,R55
000641:
000642: 14,3023                                           COUNT*   $$/R51
000643: 14,3023           77620        R51                STQ
000644: 14,3024           02746                                    QMAJ
000645: 14,3025           77776        R51.1              EXIT
000646: 14,3026           05355                           TC       PHASCHNG
000647: 14,3027           04024                           OCT      04024
000648:
000649: 14,3030           05520        R51C               TC       DOWNFLAG
000650: 14,3031           00222                           ADRES    FLT59FLG
000651:
000652: 14,3032           34752                           CAF      OCT15
000653: 14,3033           04607                           TC       BANKCALL
000654: 14,3034           20635                           CADR     GOPERF1
000655: 14,3035           06001                           TC       GOTOPOOH
000656: 14,3036           03046                           TC       DOSAM
000657: 14,3037           44737                           CS       BIT6
000658: 14,3040           70154                           MASK     MPAC
000659: 14,3041           10000                           CCS      A
000660: 14,3042           13071                           TCF      R51E                                  #  ENTER
000661: 14,3043           05506                           TC       UPFLAG                                #  V32-SET FLT59FLG
000662: 14,3044           00222                           ADRES    FLT59FLG
000663: 14,3045           13071                           TCF      R51E
000664:
000665: 14,3046           06060        DOSAM              TC       INTPRET
000666: 14,3047           43234                           RTB      DAD
000667: 14,3050           21603                                    LOADTIME
000668: 14,3051           31173                                    TSIGHT1
000669: 14,3052           77624                           CALL
000670: 14,3053           30515                                    LOCSAM
000671: 14,3054           77776                           EXIT
000672: 14,3055           04607                           TC       BANKCALL
000673: 14,3056           30620                           CADR     R56
000674: 14,3057           03061                           TC       R51I
000675: 14,3060           03071        R51F               TC       R51E
000676: 14,3061           05571        R51I               TC       ALARM
000677: 14,3062           00405                           OCT      405
000678: 14,3063           34777                           CAF      VB05N09
000679: 14,3064           04607                           TC       BANKCALL
000680: 14,3065           20471                           CADR     GOFLASH
000681: 14,3066           06001                           TC       GOTOPOOH
000682: 14,3067           03071                           TC       R51E
000683: 14,3070           03030                           TC       R51C
000684: 14,3071           34746        R51E               CAF      ZERO
000685: 14,3072           55757                           TS       STARIND


000687: 14,3073           06060        R51.2              TC       INTPRET
000688: 14,3074           77776        R51.3              EXIT
000689: 14,3075           05355                           TC       PHASCHNG
000690: 14,3076           04024                           OCT      04024
000691:
000692: 14,3077           06060                           TC       INTPRET
000693: 14,3100           77624                           CALL
000694: 14,3101           31603                                    R52                                   #  AOP WILL MAKE CALLS TO SIGHTING
000695: 14,3102           77776                           EXIT
000696: 14,3103           04607                           TC       BANKCALL
000697: 14,3104           16000                           CADR     AOTMARK
000698: 14,3105           04607                           TC       BANKCALL
000699: 14,3106           17731                           CADR     OPTSTALL
000700: 14,3107           05705                           TC       CURTAINS
000701: 14,3110           11757                           CCS      STARIND
000702: 14,3111           13113                           TCF      +2
000703: 14,3112           03156                           TC       R51.4
000704: 14,3113           05355                           TC       PHASCHNG
000705: 14,3114           04024                           OCT      04024
000706:
000707: 14,3115           06060                           TC       INTPRET
000708: 14,3116           45145                           DLOAD    CALL
000709: 14,3117           03562                                    TSIGHT
000710: 14,3120           16607                                    PLANET
000711: 14,3121           53521                           MXV      UNIT
000712: 14,3122           01732                                    REFSMMAT
000713: 14,3123           26715                           STOVL    STARAD     +6
000714: 14,3124           03554                                    PLANVEC
000715: 14,3125           53521                           MXV      UNIT
000716: 14,3126           01732                                    REFSMMAT
000717: 14,3127           26707                           STOVL    STARAD
000718: 14,3130           02761                                    STARSAV1
000719: 14,3131           24007                           STOVL    6D
000720: 14,3132           02767                                    STARSAV2
000721: 14,3133           34015                           STCALL   12D
000722: 14,3134           31265                                    R54                                   #  STAR DATA TEST
000723: 14,3135           45014                           BOFF     CALL
000724: 14,3136           00354                                    FREEFLAG
000725: 14,3137           31145                                    R51K
000726: 14,3140           47424                                    AXISGEN
000727: 14,3141           77624                           CALL
000728: 14,3142           31234                                    R55                                   #  GYRO TORQUE
000729: 14,3143           77614                           CLEAR
000730: 14,3144           01273                                    PFRATFLG
000731: 14,3145           77776        R51K               EXIT
000732: 14,3146           35745        R51P63             CAF      OCT14
000733: 14,3147           04607                           TC       BANKCALL
000734: 14,3150           20635                           CADR     GOPERF1
000735: 14,3151           06001                           TC       GOTOPOOH
000736: 14,3152           03030                           TC       R51C


000738: 14,3153           06060                           TC       INTPRET
000739: 14,3154           77650                           GOTO
000740: 14,3155           02746                                    QMAJ
000741: 14,3156           06060        R51.4              TC       INTPRET
000742: 14,3157           77775                           VLOAD
000743: 14,3160           02767                                    STARSAV2
000744: 14,3161           02761                           STORE    STARSAV1
000745: 14,3162           45145                           DLOAD    CALL
000746: 14,3163           03562                                    TSIGHT
000747: 14,3164           16607                                    PLANET
000748: 14,3165           03554                           STORE    PLANVEC
000749: 14,3166           52131                           SSP      GOTO
000750: 14,3167           02760                                    STARIND
000751: 14,3170           00001                                    1
000752: 14,3171           31074                                    R51.3
000753:
000754: 14,3172           00002 06240  TSIGHT1            2DEC     36000      B-28                       #  6  MIN  TO  MARKING
000755:


000757:                                                                                                  #  GYRO TORQUE COARSE ALIGNMENT
000758: 14,3174           45020        GYCOARS            STQ      CALL
000759: 14,3175           02746                                    QMAJ
000760: 14,3176           47232                                    CALCGTA


000762: 14,3177           43014                           CLEAR    CLEAR
000763: 14,3200           01260                                    DRIFTFLG
000764: 14,3201           01662                                    REFSMFLG
000765: 14,3202           77776                           EXIT
000766: 14,3203           33233                           CAF      V16N20                                #  MONITOR GIMBALS
000767: 14,3204           04607                           TC       BANKCALL
000768: 14,3205           20444                           CADR     GODSPR
000769: 14,3206           33264                           CA       R55CDR
000770: 14,3207           04607                           TC       BANKCALL
000771: 14,3210           17310                           CADR     IMUPULSE
000772: 14,3211           04607                           TC       BANKCALL
000773: 14,3212           17735                           CADR     IMUSTALL
000774: 14,3213           05705                           TC       CURTAINS
000775: 14,3214           05355                           TC       PHASCHNG
000776: 14,3215           04024                           OCT      04024
000777:
000778: 14,3216           06060                           TC       INTPRET
000779: 14,3217           75160                           AXC,1    AXC,2
000780: 14,3220           03606                                    XSMD
000781: 14,3221           01731                                    REFSMMAT
000782: 14,3222           77624                           CALL                                           #  STORE DESIRED REFSMMAT
000783: 14,3223           26374                                    MATMOVE
000784: 14,3224           43014                           CLEAR    SET
000785: 14,3225           01273                                    PFRATFLG
000786: 14,3226           01462                                    REFSMFLG
000787: 14,3227           77624                           CALL
000788: 14,3230           31566                                    NCOARSE                               #  SET DRIFT AND INITIALIZE 1/PIPADT
000789: 14,3231           77650                           GOTO
000790: 14,3232           31145                                    R51K
000791: 14,3233           04024        V16N20             VN       1620
000792:


000794:                                                                                                  #  R55  GYRO TORQUE
000795:                                                                                                  #  FUNCTION-COMPUTE AND SEND GYRO PULSES
000796:                                                                                                  #  CALLING SEQ- CALL R55
000797:                                                                                                  #  INPUT- X,Y,ZDC- REFSMMAT WRT PRESENT STABLE MEMBER
000798:                                                                                                  #  OUTPUT- GYRO PULSES
000799:                                                                                                  #  SUBROUTINES- CALCGTA,GOFLASH,GODSPR,IMUFINE,IMUPULSE,GOPERF1
000800: 14,3234                                           COUNT*   $$/R55
000801: 14,3234           45020        R55                STQ      CALL
000802: 14,3235           02745                                    QMIN
000803: 14,3236           47232                                    CALCGTA
000804: 14,3237           77776        PULSEM             EXIT
000805: 14,3240           33263        R55.1              CAF      V06N93
000806: 14,3241           04607                           TC       BANKCALL
000807: 14,3242           20471                           CADR     GOFLASH
000808: 14,3243           06001                           TC       GOTOPOOH
000809: 14,3244           03246                           TC       R55.2
000810: 14,3245           03260                           TC       R55RET
000811: 14,3246           05355        R55.2              TC       PHASCHNG
000812: 14,3247           00214                           OCT      00214
000813: 14,3250           33264                           CA       R55CDR
000814: 14,3251           04607                           TC       BANKCALL
000815: 14,3252           17310                           CADR     IMUPULSE
000816: 14,3253           04607                           TC       BANKCALL
000817: 14,3254           17735                           CADR     IMUSTALL
000818: 14,3255           05705                           TC       CURTAINS
000819: 14,3256           05355                           TC       PHASCHNG
000820: 14,3257           04024                           OCT      04024
000821:
000822: 14,3260           06060        R55RET             TC       INTPRET
000823: 14,3261           77650                           GOTO
000824: 14,3262           02745                                    QMIN
000825: 14,3263           01535        V06N93             VN       0693
000826: 14,3264           02737        R55CDR             ECADR    OGC
000827: 14,3265  14,3265               R54                =        CHKSDATA
000828:


000830:                                                                                                  #  CHKSDATA                                                                               DATE- JAN 9, 1967
000831:                                                                                                  #  THE ANGULAR DIFFERENCE IS DISPLAYED FOR ASTRONAUT ACCEPTENCE
000832:                                                                                                  #  EXIT MODE 1. FREEFLAG SET  IMPLIES  ASTRONAUT WANTS TO PROCEED
000833:                                                                                                  #            2. FREEFLAG RESET IMPLIES ASTRONAUT WANTS TO RECYCLE          ERANCE)
000834:                                                                                                  #  OUTPUT - 1.VERB 6,NOUN 3- DISPLAYS ANGULAR DIFFERENCE BETWEEN 2 SETS OF STARS.
000835:                                                                                                  #           2.STAR VECTORS FROM STAR CATALOG ARE LEFT IN 6D AND 12D.
000836:
000837:                                                                                                  #  ERASABLE INITIALIZATION REQUIRED -
000838:                                                                                                  #           1.MARK VECTORS ARE STORED IN STARAD AND STARAD +6.
000839:                                                                                                  #           2.CATALOG VECTORS ARE STORED IN 6D AND 12D.
000840:                                                                                                  #  DEBRIS -
000841: 14,3265                                           COUNT*   $$/R54
000842: 14,3265           50375        CHKSDATA           VLOAD    DOT
000843: 14,3266           02707                                    STARAD                                #  1ST CATALOG STAR
000844: 14,3267           02715                                    STARAD     +6                         #  2ND CATALOG STAR
000845: 14,3270           65552                           SL1      ACOS
000846: 14,3271           24025                           STOVL    THETA
000847: 14,3272           00007                                    6                                     #  1ST OBSERVED STAR
000848: 14,3273           72441                           DOT      SL1
000849: 14,3274           00015                                    12D                                   #  2ND OBSERVED STAR
000850: 14,3275           45326                           ACOS     DSU
000851: 14,3276           00025                                    THETA
000852: 14,3277           77634                           RTB
000853: 14,3300           21622                                    SGNAGREE
000854: 14,3301           01045                           STORE    NORMTEM1                              #  OBSERVED DIF - CATALOG DIF
000855: 14,3302           77414                           SET      EXIT
000856: 14,3303           00074                                    FREEFLAG
000857: 14,3304           33315                           CAF      VB6N5
000858: 14,3305           04607                           TC       BANKCALL
000859: 14,3306           20471                           CADR     GOFLASH
000860: 14,3307           06001                           TC       GOTOPOOH                              #  V34
000861: 14,3310           13313                           TCF      CHKOUT                                #  V33-PROCEED
000862: 14,3311           05520                           TC       DOWNFLAG                              #  V32-REJECT DATA-CLEAR FLAG
000863: 14,3312           00014                           ADRES    FREEFLAG
000864: 14,3313           06060        CHKOUT             TC       INTPRET
000865: 14,3314           77616                           RVQ
000866:
000867: 14,3315           01405        VB6N5              VN       605
000868:


000870:                                                                                                  #  CAL53A
000871:                                                                                                  #  FUNCTION -COMPUTE DESIRED GIMBAL ANGLES AND COARSE ALIGN IF NECESSARY
000872:                                                                                                  #  CALLING SEQUENCE - CALL CAL53A
000873:                                                                                                  #  INPUT - X,Y,ZSMD ,CDUX,Y,Z
000874:                                                                                                  #          DESIRED GIMBAL ANGLES - THETAD,+1,+2
000875:                                                                                                  #  OUTPUT - THE IMU COORDINATES ARE STORED IN REFSMMAT
000876:                                                                                                  #  SUBROUTINES - S52.2, IMUCOARSE , IMUFINE
000877: 14,3316                                           COUNT*   $$/R50
000878: 14,3316           77624        CAL53A             CALL
000879: 14,3317           42707                                    S52.2                                 #  MAKE ONE FINAL COMP OF GIMBALE ANGLES
000880: 14,3320           66234                           RTB      SSP
000881: 14,3321           31370                                    RDCDUS                                #  READ CDUS
000882: 14,3322           00051                                    S1
000883: 14,3323           00001                                    1
000884: 14,3324           40370                           AXT,1    SETPD
000885: 14,3325           00003                                    3
000886: 14,3326           00005                                    4
000887: 14,3327           70543        CALOOP             DLOAD*   SR1
000888: 14,3330           00325                                    THETAD     +3D,1
000889: 14,3331           70523                           PDDL*    SR1
000890: 14,3332           00005                                    4,1
000891: 14,3333           51425                           DSU      ABS
000892: 14,3334           45206                           PUSH     DSU
000893: 14,3335           31367                                    DEGREE1
000894: 14,3336           71240                           BMN      DLOAD
000895: 14,3337           31355                                    CALOOP1
000896: 14,3340           51025                           DSU      BPL
000897: 14,3341           31370                                    DEG359
000898: 14,3342           31355                                    CALOOP1
000899: 14,3343           77776                           EXIT
000900: 14,3344           05355                           TC       PHASCHNG
000901: 14,3345           04024                           OCT      04024
000902:
000903: 14,3346           06060                           TC       INTPRET
000904: 14,3347           77624        COARFINE           CALL
000905: 14,3350           31542                                    COARSE
000906: 14,3351           77624                           CALL
000907: 14,3352           31566                                    NCOARSE
000908: 14,3353           77650                           GOTO
000909: 14,3354           31357                                    FINEONLY
000910: 14,3355           77700        CALOOP1            TIX,1
000911: 14,3356           31327                                    CALOOP
000912: 14,3357           75160        FINEONLY           AXC,1    AXC,2
000913: 14,3360           02642                                    XSM
000914: 14,3361           01731                                    REFSMMAT
000915: 14,3362           77624                           CALL
000916: 14,3363           26374                                    MATMOVE
000917: 14,3364           77650                           GOTO
000918: 14,3365           32316                                    COARSRET
000919: 14,3366           00056        DEGREE1            DEC      46         B-14                       #  1 DEG SCALED CDU/2


000921: 14,3367           37722        DEG359             DEC      16338      B-14                       #  359 DEG SCALED CDU/2
000922: 14,3370           00004        RDCDUS             INHINT                                         #  READ CDUS
000923: 14,3371           30032                           CA       CDUX
000924: 14,3372           50120                           INDEX    FIXLOC
000925: 14,3373           54001                           TS       1
000926: 14,3374           30033                           CA       CDUY
000927: 14,3375           50120                           INDEX    FIXLOC
000928: 14,3376           54002                           TS       2
000929: 14,3377           30034                           CA       CDUZ
000930: 14,3400           50120                           INDEX    FIXLOC
000931: 14,3401           54003                           TS       3
000932: 14,3402           00003                           RELINT
000933: 14,3403           06102                           TC       DANZIG                                #                                +
000934: 14,3404                                           COUNT*   $$/INFLT
000935:


000937:                                                                                                  #  NAME - P51 - IMU ORIENTATION DETERMINATION
000938:                                                                                                  #           MOD.NO.1  23 JAN 67                                                             LOG SECTION - P51-P53
000939:                                                                                                  #  MOD BY STURLAUGSON                                                                      ASSEMBLY SUNDANCE REV56
000940:
000941:                                                                                                  #  FUNCTIONAL DESCRIPTION
000942:
000943:                                                                                                  #       DETERMINES THE INERTIAL ORIENTATION OF THE IMU. THE PROGRAM IS SELECTED BY DSKY ENTRY. THE SIGHTING
000944:                                                                                                  #  (AOTMARK)ROUTINE IS CALLED TO COLLECT AND PROCESS MARKED-STAR DATA. AOTMARK(R53) RETURNS THE STAR NUMBER AND THE
000945:                                                                                                  #  STAR LOS VECTOR IN STARAD+6. TWO STARS ARE THUS SIGHTED. THE ANGLE BETWEEN THE TWO STARS IS THEN CHECKED AT
000946:                                                                                                  #  CHKSDATA(R54). REFSMMAT IS THEN COMPUTED AT AXISGEN.
000947:
000948:                                                                                                  #  CALLING SEQUENCE
000949:
000950:                                                                                                  #    THE PROGRAM IS CALLED BY THE ASTRONAUT BY DSKY ENTRY.
000951:
000952:                                                                                                  #  SUBROUTINES CALLED.
000953:
000954:                                                                                                  #       GOPERF3
000955:                                                                                                  #       GOPERF1
000956:                                                                                                  #       GODSPR
000957:                                                                                                  #       IMUCOARS
000958:                                                                                                  #       IMUFIN20
000959:                                                                                                  #       AOTMARK(R53)
000960:                                                                                                  #       CHKSDATA(R54)
000961:                                                                                                  #       MKRELEAS
000962:                                                                                                  #       AXISGEN
000963:                                                                                                  #       MATMOVE
000964:
000965:                                                                                                  #  ALARMS
000966:
000967:                                                                                                  #       NONE.
000968:
000969:                                                                                                  #  ERASABLE INITIALIZATION
000970:
000971:                                                                                                  #       IMU ZERO FLAG SHOULD BE SET.
000972:
000973:                                                                                                  #  OUTPUT
000974:
000975:                                                                                                  #       REFSMMAT
000976:                                                                                                  #       REFSMFLG
000977:
000978:                                                                                                  #  DEBRIS
000979:
000980:                                                                                                  #       WORK AREA
000981:                                                                                                  #       STARAD
000982:                                                                                                  #       STARIND
000983:                                                                                                  #       BESTI
000984:                                                                                                  #       BESTJ
000985:
000986: 14,3404                                           COUNT*   $$/P51


000988: 14,3404           04607        P51                TC       BANKCALL                              #  IS ISS ON - IF NOT, IMUCHK WILL SEND
000989: 14,3405           33634                           CADR     IMUCHK                                #  ALARM CODE 210 AND EXIT VIA GOTOPOOH.
000990:
000991: 14,3406           34752                           CAF      OCT15
000992: 14,3407           04607                           TC       BANKCALL
000993: 14,3410           20635                           CADR     GOPERF1
000994: 14,3411           06001                           TC       GOTOPOOH                              #  TERM.
000995: 14,3412           13436                           TCF      P51B                                  #  V33
000996: 14,3413           05355                           TC       PHASCHNG
000997: 14,3414           04024                           OCT      04024
000998:
000999: 14,3415           34746                           CAF      ZERO
001000: 14,3416           54321                           TS       THETAD                                #  ZERO THE GIMBALS
001001: 14,3417           54322                           TS       THETAD     +1
001002: 14,3420           54323                           TS       THETAD     +2
001003: 14,3421           35001                           CAF      V06N22
001004: 14,3422           04607                           TC       BANKCALL
001005: 14,3423           20441                           CADR     GODSPRET
001006: 14,3424           33541                           CAF      V41K                                  #  NOW DISPLAY COARSE ALIGN VERB 41
001007: 14,3425           04607                           TC       BANKCALL
001008: 14,3426           20441                           CADR     GODSPRET
001009: 14,3427           06060                           TC       INTPRET
001010: 14,3430           77624                           CALL
001011: 14,3431           31542                                    COARSE
001012: 14,3432           77776                           EXIT
001013: 14,3433           05355                           TC       PHASCHNG
001014: 14,3434           04024                           OCT      04024
001015: 14,3435           13406                           TCF      P51        +2
001016:
001017: 14,3436           05355        P51B               TC       PHASCHNG
001018: 14,3437           00014                           OCT      00014
001019: 14,3440           06060                           TC       INTPRET
001020: 14,3441           77624                           CALL
001021: 14,3442           31566                                    NCOARSE
001022: 14,3443           40331                           SSP      SETPD
001023: 14,3444           02760                                    STARIND                               #  INDEX-STAR 1 OR 2
001024: 14,3445           00000                                    0
001025: 14,3446           00001                                    0
001026: 14,3447           77776        P51C               EXIT
001027: 14,3450           05355                           TC       PHASCHNG
001028: 14,3451           04024                           OCT      04024
001029:
001030: 14,3452           04607                           TC       BANKCALL
001031: 14,3453           16000                           CADR     AOTMARK                               #  R53
001032: 14,3454           04607                           TC       BANKCALL
001033: 14,3455           17731                           CADR     AOTSTALL
001034: 14,3456           05705                           TC       CURTAINS
001035: 14,3457           11757                           CCS      STARIND
001036: 14,3460           13466                           TCF      P51D       +1
001037: 14,3461           06060                           TC       INTPRET


001039: 14,3462           77775                           VLOAD
001040: 14,3463           02767                                    STARSAV2
001041: 14,3464           02761                           STORE    STARSAV1
001042: 14,3465           77776        P51D               EXIT
001043: 14,3466           05355                           TC       PHASCHNG
001044: 14,3467           04024                           OCT      04024
001045:
001046: 14,3470           11757                           CCS      STARIND
001047: 14,3471           13505                           TCF      P51E
001048: 14,3472           05355                           TC       PHASCHNG
001049: 14,3473           04024                           OCT      04024
001050:
001051: 14,3474           06060                           TC       INTPRET
001052: 14,3475           45145                           DLOAD    CALL
001053: 14,3476           03562                                    TSIGHT
001054: 14,3477           16607                                    PLANET
001055: 14,3500           03554                           STORE    PLANVEC
001056: 14,3501           77776                           EXIT
001057: 14,3502           34744                           CAF      BIT1
001058: 14,3503           55757                           TS       STARIND
001059: 14,3504           13450                           TCF      P51C       +1                         #  DO SECOND STAR
001060: 14,3505           05355        P51E               TC       PHASCHNG
001061: 14,3506           04024                           OCT      04024
001062:
001063: 14,3507           06060                           TC       INTPRET
001064: 14,3510           45145                           DLOAD    CALL
001065: 14,3511           03562                                    TSIGHT
001066: 14,3512           16607                                    PLANET
001067: 14,3513           24015                           STOVL    12D
001068: 14,3514           03554                                    PLANVEC
001069: 14,3515           24007                           STOVL    6D
001070: 14,3516           02761                                    STARSAV1
001071: 14,3517           26707                           STOVL    STARAD
001072: 14,3520           02767                                    STARSAV2
001073: 14,3521           36715                           STCALL   STARAD     +6
001074: 14,3522           31265                                    CHKSDATA                              #  CHECK STAR ANGLES IN STARAD AND
001075: 14,3523           77414                           BON      EXIT
001076: 14,3524           00314                                    FREEFLAG
001077: 14,3525           31527                                    P51G
001078: 14,3526           03406                           TC       P51        +2
001079: 14,3527           77624        P51G               CALL
001080: 14,3530           47424                                    AXISGEN                               #  COME BACK WITH REFSMMAT IN XDC
001081: 14,3531           75160                           AXC,1    AXC,2
001082: 14,3532           02664                                    XDC
001083: 14,3533           01731                                    REFSMMAT
001084: 14,3534           77624                           CALL
001085: 14,3535           26374                                    MATMOVE
001086: 14,3536           77414                           SET      EXIT
001087: 14,3537           01462                                    REFSMFLG
001088: 14,3540           06001                           TC       GOTOPOOH                              #  FINIS


001090: 14,3541           12200        V41K               VN       4100
001091: 14,3542           77776        COARSE             EXIT
001092: 14,3543           31301                 +1        CA       MODECADR                              #  SEE IF IMU DEVICE IS IN USE.
001093: 14,3544           00006                           EXTEND
001094: 14,3545           13552                           BZF      DOCORS                                #  NOT IN USE, DO COARSE ALIGN
001095: 14,3546           34770                           CAF      1SEC                                  #  IN USE, DELAY ONE SEC
001096: 14,3547           04607                           TC       BANKCALL
001097: 14,3550           01736                           CADR     DELAYJOB
001098: 14,3551           13543                           TCF      COARSE     +1
001099: 14,3552           04607        DOCORS             TC       BANKCALL
001100: 14,3553           16765                           CADR     IMUCOARS
001101: 14,3554           04607                           TC       BANKCALL
001102: 14,3555           17735                           CADR     IMUSTALL
001103: 14,3556           05705                           TC       CURTAINS
001104: 14,3557           04607                           TC       BANKCALL
001105: 14,3560           17175                           CADR     IMUFINE
001106: 14,3561           04607                           TC       BANKCALL
001107: 14,3562           17735                           CADR     IMUSTALL
001108: 14,3563           05705                           TC       CURTAINS
001109: 14,3564           06060                           TC       INTPRET
001110: 14,3565           77616                           RVQ
001111: 14,3566           77776        NCOARSE            EXIT
001112: 14,3567           30025                           CA       TIME1
001113: 14,3570           55074                           TS       1/PIPADT
001114: 14,3571           44746                           CS       ZERO
001115: 14,3572           54037                           TS       PIPAX
001116: 14,3573           54040                           TS       PIPAY
001117: 14,3574           54041                           TS       PIPAZ
001118: 14,3575           06060                           TC       INTPRET
001119: 14,3576           77775                           VLOAD
001120: 14,3577           24007                                    ZEROVEC
001121: 14,3600           01472                           STORE    GCOMP


001123: 14,3601           43414                           SET      RVQ
001124: 14,3602           01060                                    DRIFTFLG
001125:


001127:                                                                                                  #  NAME-S52.2
001128:                                                                                                  #  FUNCTION-COMPUTE GIMBAL ANGLES FOR DESIRED SM AND PRESENT VEHICLE
001129:                                                                                                  #  CALL-  CALL  S52.2
001130:                                                                                                  #  INPUT- X,Y,ZSMD
001131:                                                                                                  #  OUTPUT- OGC,IGC,MGC,THETAD,+1,+2
001132:                                                                                                  #  SUBROUTINES-CDUTRIG,CALCSMSC,MATMOVE,CALCGA
001133: 21,2000                                           SETLOC   P50S3
001134: 21,2000                                           BANK
001135:
001136: 21,2707                                           COUNT*   $$/S52.1
001137: 21,2707           45020        S52.2              STQ      CALL
001138: 21,2710           02746                                    QMAJ
001139: 21,2711           47522                                    CDUTRIG
001140: 21,2712           77624                           CALL
001141: 21,2713           20030                                    CALCSMSC
001142: 21,2714           66370                           AXT,1    SSP
001143: 21,2715           00022                                    18D
001144: 21,2716           00051                                    S1
001145: 21,2717           00006                                    6D
001146: 21,2720           61373        S52.2A             VLOAD*   VXM
001147: 21,2721           02707                                    XNB        +18D,1
001148: 21,2722           01732                                    REFSMMAT
001149: 21,2723           77656                           UNIT
001150: 21,2724           06707                           STORE    XNB        +18D,1
001151: 21,2725           77700                           TIX,1
001152: 21,2726           42720                                    S52.2A
001153: 21,2727           75160        S52.2.1            AXC,1    AXC,2
001154: 21,2730           03606                                    XSMD
001155: 21,2731           02642                                    XSM
001156: 21,2732           77624                           CALL
001157: 21,2733           26374                                    MATMOVE
001158: 21,2734           77624                           CALL
001159: 21,2735           47336                                    CALCGA
001160: 21,2736           77650                           GOTO
001161: 21,2737           02746                                    QMAJ
001162:


001164:                                                                                                  #  NAME-S52.3
001165:                                                                                                  #  FUNCTION  XSMD= UNIT R
001166:                                                                                                  #            YSMD= UNIT(V X R)
001167:                                                                                                  #            ZSMD= UNIT(XSMD X YSMD)
001168:                                                                                                  #  CALL     DLOAD  CALL
001169:                                                                                                  #                  TALIGN
001170:                                                                                                  #                  S52.3
001171:                                                                                                  #  INPUT-   TIME OF ALIGNMENT IN MPAC
001172:                                                                                                  #  OUTPUT-  X,Y,ZSMD
001173:                                                                                                  #  SUBROUTINES- CSMCONIC
001174: 21,2740                                           COUNT*   $$/S52.3
001175: 21,2740           77620        S52.3              STQ
001176: 21,2741           02746                                    QMAJ
001177: 21,2742           34041                           STCALL   TDEC1
001178: 21,2743           27136                                    LEMCONIC
001179: 21,2744           53575                           VLOAD    UNIT
001180: 21,2745           00001                                    RATT
001181: 21,2746           27607                           STOVL    XSMD
001182: 21,2747           00007                                    VATT
001183: 21,2750           53435                           VXV      UNIT
001184: 21,2751           00001                                    RATT
001185: 21,2752           27615                           STOVL    YSMD
001186: 21,2753           03607                                    XSMD
001187: 21,2754           53435                           VXV      UNIT
001188: 21,2755           03615                                    YSMD
001189: 21,2756           37623                           STCALL   ZSMD
001190: 21,2757           02746                                    QMAJ
001191:


001193:                                                                                                  #  NAME    -R52 (AUTOMATIC OPTICS POSITIONING ROUTINE)
001194:
001195:                                                                                                  #  FUNCTION-POINT THE AOT OPTIC AXIS BY MANEUVERING THE LEM TO A NAVIGATION
001196:                                                                                                  #           STAR SELECTED BY ALIGNMENT PROGRAMS OR DSKY INPUT
001197:
001198:                                                                                                  #  CALLING -CALL R52
001199:
001200:                                                                                                  #  INPUT   -BESTI AND BESTJ (STAR CODES TIMES 6)
001201:                                                                                                  #  OUTPUT  -STAR CODE IN BITS1-6, DETENT CODE IN BITS 7-9
001202:                                                                                                  #           (NO CHECK IS MADE TO INSURE THE DETENT  CODE TO BE VALID)
001203:                                                                                                  #           POINTVSM-1/2 UNIT NAV STAR VEC IN SM
001204:                                                                                                  #           SCAXIS-AOT OPTIC AXIS VEC IN NB X-Z PLANE
001205:
001206:                                                                                                  #  SUBROUT -R60LEM
001207:
001208: 14,2000                                           SETLOC   P50S1
001209: 14,2000                                           BANK
001210:
001211: 14,3603                                           COUNT*   $$/R52
001212: 14,3603           77420        R52                STQ      EXIT
001213: 14,3604           03665                                    SAVQR52
001214: 14,3605           34741                           CAF      BIT4
001215: 14,3606           70105                           MASK     FLAGWRD9
001216: 14,3607           00006                           EXTEND
001217: 14,3610           13613                           BZF      DOR52
001218: 14,3611           04607                           TC       BANKCALL
001219: 14,3612           32402                           CADR     R59
001220:
001221: 14,3613           51757        DOR52              INDEX    STARIND
001222: 14,3614           31755                           CA       BESTI                                 #  PICK UP STARCODE DETERMINED BY R56
001223: 14,3615           00006                           EXTEND
001224: 14,3616           73712                           MP       1/6TH
001225: 14,3617           64735                           AD       BIT8                                  #  SET DETENT POSITION 2
001226: 14,3620           55235                           TS       STARCODE                              #  SCALE AND STORE IN STARCODE
001227:
001228: 14,3621           33713        R52A               CAF      V01N70
001229: 14,3622           04607                           TC       BANKCALL
001230: 14,3623           20471                           CADR     GOFLASH                               #  DISPLAY STARCODE AND WAIT FOR RESPONSE
001231: 14,3624           06001                           TC       GOTOPOOH                              #  V34-TERMINATE
001232: 14,3625           13627                           TCF      R52B                                  #  V33-PROCEED TO ORIENT LEM
001233: 14,3626           13621                           TCF      R52A                                  #  ENTER-SELECT NEW STARCODE-RECYCLE
001234:
001235: 14,3627           05520        R52B               TC       DOWNFLAG
001236: 14,3630           00124                           ADRES    3AXISFLG                              #  BIT6 OF FLAGWRD5 ZERO TO ALLOW VECPOINT
001237: 14,3631           31235                           CA       STARCODE                              #  GRAB DETENT CODE
001238: 14,3632           77765                           MASK     HIGH9
001239: 14,3633           00006                           EXTEND
001240: 14,3634           74734                           MP       BIT9
001241: 14,3635           54001                           TS       L                                     #  TEMP STORE DETENT
001242:


001244: 14,3636           00006                           EXTEND
001245: 14,3637           63655                           BZMF     GETAZEL                               #  CODE 0, COAS CALIBRATION
001246:
001247: 14,3640           65652                           AD       NEG7
001248: 14,3641           00006                           EXTEND
001249: 14,3642           13655                           BZF      GETAZEL                               #  CODE 7, COAS SIGHTING
001250:
001251: 14,3643  E7,1551                                  EBANK=   XYMARK
001252: 14,3643           35007                           CA       EBANK7
001253: 14,3644           54003                           TS       EBANK
001254:
001255: 14,3645           50001                           INDEX    L
001256: 14,3646           31403                           CA       AOTAZ      -1                         #  PICK UP AZ CORRESPONDING TO DETENT
001257: 14,3647           54001                           TS       L
001258: 14,3650  E5,1642                                  EBANK=   XSM
001259: 14,3650           35005                           CA       EBANK5                                #  CHANGE TO EBANK5 BUT DONT DISTURB L
001260: 14,3651           54003                           TS       EBANK
001261: 14,3652           34730                           CA       BIT13                                 #  SET ELV TO 45 DEG
001262: 14,3653           56001                           XCH      L                                     #  SET C(A)=AZ, C(L)=45 DEG
001263: 14,3654           13665                           TCF      AZEL                                  #  GO COMP OPTIC AXIS
001264:
001265: 14,3655           33714        GETAZEL            CAF      V06N87                                #  CODE 0 OR 7, GET AZ AND EL KEY IN
001266: 14,3656           04607                           TC       BANKCALL
001267: 14,3657           20471                           CADR     GOFLASH
001268: 14,3660           06001                           TC       GOTOPOOH                              #  V34-TERMINATE
001269: 14,3661           13663                           TCF      +2                                    #  PROCEED-CALC OPTIC AXIS
001270: 14,3662           13655                           TCF      GETAZEL                               #  ENTER-RECYCLE
001271:
001272: 14,3663           00006                           EXTEND
001273: 14,3664           31345                           DCA      AZ                                    #  PICK UP AZ AND EL IN SP 2S COMP
001274: 14,3665           50120        AZEL               INDEX    FIXLOC                                #  JAM AZ AND EL IN 8 AND 9 OF VAC
001275: 14,3666           52011                           DXCH     8D
001276: 14,3667           06060                           TC       INTPRET
001277: 14,3670           77624                           CALL                                           #  GO COMPUTE OPTIC AXIS AND STORE IN
001278: 14,3671           10557                                    OANB                                  #  SCAXIS IN NB COORDS
001279: 14,3672           45034                           RTB      CALL
001280: 14,3673           21603                                    LOADTIME
001281: 14,3674           16607                                    PLANET
001282: 14,3675           53521                           MXV      UNIT
001283: 14,3676           01732                                    REFSMMAT
001284: 14,3677           03773                           STORE    POINTVSM                              #  STORE FOR VECPOINT
001285:
001286: 14,3700           77776                           EXIT
001287: 14,3701           04607                           TC       BANKCALL
001288: 14,3702           54125                           CADR     R60LEM                                #  GO TORQUE LEM OPTIC AXIS TO STAR LOS
001289:
001290: 14,3703           37765                           CAF      HIGH9                                 #  IF COAS CALIBRATION CODE 0, RECYCLE
001291: 14,3704           71235                           MASK     STARCODE
001292: 14,3705           00006                           EXTEND
001293: 14,3706           13621                           BZF      R52A
001294:


001296: 14,3707           06060                           TC       INTPRET                               #  RETURN FROM KALCMANU
001297: 14,3710           77650                           GOTO
001298: 14,3711           03665                                    SAVQR52                               #  RETURN TO CALLER
001299:
001300: 14,3712           05253        1/6TH              DEC      .1666667
001301: 14,3713           00306        V01N70             VN       0170
001302: 14,3714           01527        V06N87             VN       687
001303:


001305:                                                                                                  #  LUNAR SURFACE STAR AQUISITION
001306:
001307: 15,2000                                           SETLOC   P50S
001308: 15,2000                                           BANK
001309: 15,2402                                           COUNT*   $$/R59
001310:
001311: 15,2402           40077        R59                CS       FLAGWRD3
001312: 15,2403           74730                           MASK     REFSMBIT                              #  IF REFSMMAT FLAG CLEAR BYPASS STAR AQUIR
001313: 15,2404           10000                           CCS      A
001314: 15,2405           12574                           TCF      R59OUT                                #  NO REFSMMAT GO TO AOTMARK
001315:
001316: 15,2406           32606                           CAF      V01N70*                               #  SELECT STAR CODE FOR ACQUISITION
001317: 15,2407           04607                           TC       BANKCALL
001318: 15,2410           20471                           CADR     GOFLASH
001319: 15,2411           06001                           TC       GOTOPOOH                              #  V34-TERMINATE
001320: 15,2412           12414                           TCF      R59A                                  #  V33-PROCEED
001321: 15,2413           12402                           TCF      R59                                   #  V32-RECYCLE
001322:
001323: 15,2414           06060        R59A               TC       INTPRET
001324: 15,2415           45034                           RTB      CALL
001325: 15,2416           21603                                    LOADTIME
001326: 15,2417           16607                                    PLANET                                #  GO GET CELESTRIAL BODY IN REF COORDS.
001327: 15,2420           53521                           MXV      UNIT
001328: 15,2421           01732                                    REFSMMAT                              #  TRANSFORM TO NB COORDS.
001329: 15,2422           77624                           CALL
001330: 15,2423           47640                                    CDU*SMNB
001331: 15,2424           02731                           STORE    STAR                                  #  TEMP STORE STAR VEC(NB)
001332: 15,2425           77776                           EXIT
001333:
001334: 15,2426           34744                           CAF      BIT1                                  #  INITIALIZE AZ POSITION CODE TO 1 (-60)
001335: 15,2427           54734                           TS       POSCODE
001336:
001337: 15,2430  E7,1551                                  EBANK=   XYMARK
001338: 15,2430           35007        INCAZ              CA       EBANK7
001339: 15,2431           54003                           TS       EBANK
001340:
001341: 15,2432           50734                           INDEX    POSCODE
001342: 15,2433           31403                           CA       AOTAZ      -1                         #  PICK UP AZ CORRESPONDING TO POSCODE
001343: 15,2434           54001                           TS       L
001344:
001345: 15,2435  E5,1642                                  EBANK=   XSM
001346: 15,2435           35005                           CA       EBANK5
001347: 15,2436           54003                           TS       EBANK
001348:
001349: 15,2437           34730                           CA       BIT13                                 #  SET ELV TO 45 DEG
001350: 15,2440           56001                           XCH      L                                     #  SET C(A)=AZ, C(L)=45 DEG
001351: 15,2441           55745                           TS       QMIN                                  #  STORE QMIN=AZ FOR LATER
001352: 15,2442           50120                           INDEX    FIXLOC
001353: 15,2443           52011                           DXCH     8D                                    #  JAM AZ IN 8D, 45 DEG IN 9D FOR OANB
001354:


001356: 15,2444           06060                           TC       INTPRET
001357: 15,2445           77624                           CALL
001358: 15,2446           10557                                    OANB                                  #  GO CALC OPTIC AXIS WRT NB
001359: 15,2447           50375                           VLOAD    DOT
001360: 15,2450           02731                                    STAR                                  #  DOT STAR WITH OA
001361: 15,2451           03765                                    SCAXIS
001362: 15,2452           65552                           SL1      ARCCOS
001363: 15,2453           00031                           STORE    24D                                   #  TEMP STORE ARCCOS(STAR.OPTAXIS)
001364:
001365: 15,2454           51025                           DSU      BPL
001366: 15,2455           32611                                    DEG30                                 #  SEE IF STAR IN AOT FIELD-OF-VIEW
001367: 15,2456           32533                                    NXAX                                  #  NOT IN FIELD - TRY NEXT POSITION
001368: 15,2457           45345                           DLOAD    DSU                                   #  SEE IF STAR AT FIELD CENTER
001369: 15,2460           00031                                    24D
001370: 15,2461           32613                                    DEG.5
001371: 15,2462           71240                           BMN      DLOAD                                 #  CALC SPIRAL AND CURSOR
001372: 15,2463           32552                                    ZSPCR                                 #  GO ZERO CURSOR AND SPIRAL
001373: 15,2464           00031                                    24D                                   #  GET SPIRAL
001374: 15,2465           42405                           DMP      SL4
001375: 15,2466           23773                                    3/4                                   #  12 SCALED AT 16
001376: 15,2467           24031                           STOVL    24D                                   #  12(ARCCOS(AO.STAR)) SCALED IN REVS
001377:
001378: 15,2470           03765                                    SCAXIS                                #  OA
001379: 15,2471           53435                           VXV      UNIT
001380: 15,2472           24005                                    XUNIT
001381: 15,2473           47206                           PUSH     VXV                                   #   OA X UNITX   PD 0-5
001382: 15,2474           03765                                    SCAXIS
001383: 15,2475           77676                           VCOMP
001384: 15,2476           63256                           UNIT     PDVL                                  #  UNIT(OA X(OA X UNITX))  PD 6-11
001385: 15,2477           03765                                    SCAXIS
001386: 15,2500           53435                           VXV      UNIT
001387: 15,2501           02731                                    STAR
001388: 15,2502           50206                           PUSH     DOT                                   #  1/2(OA X STAR)   PD 12-17
001389: 15,2503           00001                                    0                                     #  DOT WITH 1/2(OA X UNITX)  FOR YROT
001390: 15,2504           65552                           SL1      ARCCOS
001391: 15,2505           24033                           STOVL    26D                                   #  STORE THET SCALED IN REVS
001392:
001393: 15,2506           77641                           DOT                                            #  UP 12-17, UP 6-11 FOR C2
001394: 15,2507           71244                           BPL      DLOAD                                 #  IF THET NEG-GET 360-THET
001395: 15,2510           32515                                    R59D
001396: 15,2511           32157                                    ABOUTONE
001397: 15,2512           77625                           DSU
001398: 15,2513           00033                                    26D
001399: 15,2514           00033                           STORE    26D                                   #  360-THET SCALED IN REVS
001400:
001401: 15,2515           70535        R59D               SLOAD    SR1
001402: 15,2516           02746                                    QMIN                                  #  RESCALE AZ(N) TO REVS
001403: 15,2517           41415                           DAD      PUSH                                  #  PUSH YROT + AZ(N) REVS
001404: 15,2520           00033                                    26D
001405: 15,2521           77634                           RTB


001407: 15,2522           21624                                    1STO2S
001408: 15,2523           15241                           STODL    CURSOR                                #  YROT IN 1/2 REVS
001409: 15,2524           00031                                    24D                                   #  LOAD SROT IN REVS
001410: 15,2525           77615                           DAD                                            #  12(SEP) + YROT
001411: 15,2526           77634                           RTB
001412: 15,2527           21624                                    1STO2S
001413: 15,2530           01242                           STORE    SPIRAL                                #  SROT IN 1/2 REVS
001414: 15,2531           77776                           EXIT
001415: 15,2532           12556                           TCF      79DISP                                #  GO DISPLAY CURSOR-SPIRAL-POS CODE
001416:
001417: 15,2533           77776        NXAX               EXIT
001418: 15,2534           24734                           INCR     POSCODE
001419: 15,2535           40734                           CS       POSCODE
001420: 15,2536           64750                           AD       SEVEN
001421: 15,2537           00006                           EXTEND
001422: 15,2540           62542                           BZMF     R59ALM                                #  THIS STAR NOT AT ANY POSITION
001423: 15,2541           12430                           TCF      INCAZ
001424:
001425: 15,2542           05571        R59ALM             TC       ALARM                                 #  THIS STAR CANT BE LOCATED IN AOT FIELD
001426: 15,2543           00404                           OCT      404
001427: 15,2544           34777                           CAF      VB05N09                               #  DISPLAY ALARM
001428: 15,2545           04607                           TC       BANKCALL
001429: 15,2546           20471                           CADR     GOFLASH
001430: 15,2547           16001                           TCF      GOTOPOOH                              #  VB34-TERMINATE
001431: 15,2550           12574                           TCF      R59OUT                                #  VB33-PROCEED, GO WITHOUT AQUIRE
001432: 15,2551           12402                           TCF      R59                                   #  VB32-RECYCLE AND TRY ANOTHER STAR
001433:
001434: 15,2552           77776        ZSPCR              EXIT
001435: 15,2553           34746                           CAF      ZERO
001436: 15,2554           55240                           TS       CURSOR
001437: 15,2555           55241                           TS       SPIRAL
001438:
001439: 15,2556           32607        79DISP             CAF      V06N79                                #  DISPLAY CURSOR, SPIRAL AND POS CODE
001440: 15,2557           04607                           TC       BANKCALL
001441: 15,2560           20471                           CADR     GOFLASH
001442: 15,2561           16001                           TCF      GOTOPOOH                              #  V34-TERMINATE
001443: 15,2562           12564                           TCF      R59E                                  #  V33-PROCEED TO MARK ROUTINE
001444: 15,2563           12402                           TCF      R59                                   #  V32-RECYCLE TO TOP OF R59 AGAIN
001445:
001446: 15,2564           34750        R59E               CAF      SEVEN                                 #  GET DETENT CODE CORRESPONDING TO POSCODE
001447: 15,2565           70734                           MASK     POSCODE
001448: 15,2566           00006                           EXTEND
001449: 15,2567           74736                           MP       BIT7                                  #  DETENT CODE NOW IN L
001450: 15,2570           47765                           CS       HIGH9
001451: 15,2571           71235                           MASK     AOTCODE                               #  ISOLATE STAR NO IN BIT 1-6
001452: 15,2572           60001                           AD       L
001453: 15,2573           55235                           TS       AOTCODE                               #  STORE DETENT 7-9
001454:
001455: 15,2574           06060        R59OUT             TC       INTPRET
001456: 15,2575           77414                           BON      EXIT


001458: 15,2576           04713                                    FLT59FLG                              #  IF FLT59FLG SET GO BACK TO R51 TO
001459: 15,2577           03665                                    SAVQR52                               #  DO AOTMARK
001460: 15,2600           04607                           TC       BANKCALL
001461: 15,2601           16000                           CADR     AOTMARK
001462: 15,2602           04607                           TC       BANKCALL
001463: 15,2603           17731                           CADR     AOTSTALL                              #  SLEEP TILL SIGHTING DONE
001464: 15,2604           05705                           TC       CURTAINS                              #  BADEND RETURN FROM AOTMARK
001465: 15,2605           13073                           TCF      R59RET                                #  RETURN TO 1 STAR OR 2STAR
001466:
001467: 15,2606           00306        V01N70*            VN       170
001468: 15,2607           01517        V06N79             VN       679
001469: 15,2610           02525 12525  DEG30              2DEC     .083333333                            #  30 DEGRESS
001470:
001471: 15,2612           00026 30131  DEG.5              2DEC     .00138888                             #  .5 DEGRESS SCALED IN REVS
001472:
001473: 15,2614           12525        DEG60              OCT      12525                                 #  60 DEG CDU SCALING
001474:


001476:                                                                                                  #  NAME -    PLANET
001477:                                                                                                  #  FUNCTION -TO PROVIDE THE REFERENCE VECTOR FOR THE SIGHTED CELESTIAL
001478:                                                                                                  #            BODY. STARS ARE FETCHED FROM THE CATALOG,SUN,EARTH AND
001479:                                                                                                  #            MOON ARE COMPUTED BY LOCSAM,PLANET VECTORS ARE ENTERED
001480:                                                                                                  #            BY DSDY INPUT
001481:                                                                                                  #  CALL  -  CALL
001482:                                                                                                  #                  PLANET
001483:                                                                                                  #  INPUT -  TIME IN MPAC
001484:                                                                                                  #  OUTPUT - VECTOR  IN MPAC
001485:                                                                                                  #  SUBROUTINES - LOCSAM
001486:                                                                                                  #  DEBRIS - VAC ,STARAD - STARAD +17
001487:
001488: 07,2000                                           SETLOC   AOTMARK1
001489: 07,2000                                           BANK
001490: 07,2607                                           COUNT*   $$/R58
001491:
001492: 07,2607           03562        PLANET             STORE    TSIGHT
001493: 07,2610           77420                           STQ      EXIT
001494: 07,2611           02736                                    GCTR
001495: 07,2612           47765                           CS       HIGH9
001496: 07,2613           71235                           MASK     AOTCODE
001497: 07,2614           00006                           EXTEND
001498: 07,2615           76263                           MP       REVCNT
001499: 07,2616           56001                           XCH      L
001500: 07,2617           51757                           INDEX    STARIND
001501: 07,2620           55755                           TS       BESTI
001502: 07,2621           10000                           CCS      A
001503: 07,2622           12637                           TCF      NOTPLAN
001504: 07,2623           32676                           CAF      VNPLANV
001505: 07,2624           04607                           TC       BANKCALL
001506: 07,2625           20471                           CADR     GOFLASH
001507: 07,2626           02623                           TC       -3
001508: 07,2627           02631                           TC       +2
001509: 07,2630           02623                           TC       -5
001510: 07,2631           06060                           TC       INTPRET
001511: 07,2632           74375                           VLOAD    VXSC
001512: 07,2633           02707                                    STARAD
001513: 07,2634           16700                                    1/SQR3
001514: 07,2635           52056                           UNIT     GOTO
001515: 07,2636           02736                                    GCTR
001516:
001517: 07,2637           40000        NOTPLAN            CS       A
001518: 07,2640           62675                           AD       DEC227
001519: 07,2641           00006                           EXTEND
001520: 07,2642           62653                           BZMF     CALSAM1
001521: 07,2643           51757                           INDEX    STARIND
001522: 07,2644           31755                           CA       BESTI
001523: 07,2645           50120                           INDEX    FIXLOC
001524: 07,2646           54046                           TS       X1
001525: 07,2647           06060                           TC       INTPRET


001527: 07,2650           52173                           VLOAD*   GOTO
001528: 07,2651           30347                                    CATLOG,1
001529: 07,2652           02736                                    GCTR
001530: 07,2653           06060        CALSAM1            TC       INTPRET
001531: 07,2654           45145        CALSAM             DLOAD    CALL
001532: 07,2655           03562                                    TSIGHT
001533: 07,2656           30515                                    LOCSAM
001534: 07,2657           77340                           LXC,1    VLOAD
001535: 07,2660           02757                                    STARIND
001536: 07,2661           02707                                    VEARTH
001537: 07,2662           24001                           STOVL    0D
001538: 07,2663           02715                                    VSUN
001539: 07,2664           26707                           STOVL    VEARTH
001540: 07,2665           00001                                    0D
001541: 07,2666           02715                           STORE    VSUN
001542: 07,2667           70143                           DLOAD*   LXC,1
001543: 07,2670           02756                                    BESTI,1
001544: 07,2671           00154                                    MPAC
001545: 07,2672           52173                           VLOAD*   GOTO
001546: 07,2673           02343                                    STARAD     -228D,1
001547: 07,2674           02736                                    GCTR
001548: 07,2675           00343        DEC227             DEC      227        B-14
001549: 07,2676           01530        VNPLANV            VN       0688
001550: 07,2677  37,3543               PIPSRINE           =        PIPASR     +3                         #  EBANK NOT 4 SO DONT LOAD PIPTIME1
001551: 07,2677           22363 11623  1/SQR3             2DEC     .57735021
001552:


001554:                                                                                                  #  GRAVITY VECTOR DETERMINATION ROUTINE
001555:                                                                                                  #  BY KEN VINCENT
001556:                                                                                                  #  FOR DETAILED DESCRIPTION SEE 504GSOP 5.6.3.2.5
001557:                                                                                                  #  THIS PROGRAM FINDS THE DIRECTION OF THE MOONS GRAVITY
001558:                                                                                                  #  WHILE THE LM IS ON THE MOONS SURFACE. IT WILL BE USED
001559:                                                                                                  #  FOR LUNAR SURFACE ALIGNMENT. THE GRAVITY VECTOR IS
001560:                                                                                                  #  DETERMINED BY READING THE PIPAS WITH THE IMU AT TWO
001561:                                                                                                  #  PARTICULAR ORIONTATIONS. THE TWO READINGS ARE AVERAGED
001562:                                                                                                  #  AND UNITIZED AND TRANSFORMED TO NB COORDINATES. THE TWO
001563:                                                                                                  #  ORIENTATION WERE CHOSEN TO REDUCE BIAS ERRORS IN THE
001564:                                                                                                  #  READINGS.
001565:
001566:                                                                                                  #  CALL-
001567:                                                                                                  #           TC     BANKCALL
001568:                                                                                                  #           CADR   GVDETER
001569:                                                                                                  #  INPUTS-
001570:                                                                                                  #           PIPAS,CDUS
001571:                                                                                                  #  OUTPUTS-
001572:                                                                                                  #           STARSAV1 = UNIT GRAVITY
001573:                                                                                                  #           GSAV     =   DITTO
001574:                                                                                                  #           GRAVBIT  = 1
001575:                                                                                                  #  SUBROUTINES-
001576:                                                                                                  #           PIPASR,IMUCOARS,IMUFINE,IMUSTALL,1/PIPA,DELAYJOB,CDUTRIG,
001577:                                                                                                  #           *NBSM* ,*SNMB*, CALCGA,FOFLASH
001578:                                                                                                  #  DEBRIS-
001579:                                                                                                  #           VAC,SAC,STARAD,XSM,XNB,THETAD,DELV,COSCDU,SINCDU
001580: 15,2000                                           SETLOC   P50S
001581: 15,2000                                           BANK
001582: 15,2615                                           COUNT*   $$/P57
001583:
001584: 15,2615           33016        GVDETER            CAF      42DEG
001585: 15,2616           54321                           TS       THETAD
001586: 15,2617           40000                           COM
001587: 15,2620           54322                           TS       THETAD     +1
001588: 15,2621           33017                           CAF      35DEG
001589: 15,2622           54323                           TS       THETAD     +2
001590: 15,2623           06060                           TC       INTPRET
001591: 15,2624           45014                           CLEAR    CALL
001592: 15,2625           01662                                    REFSMFLG
001593: 15,2626           32722                                    LUNG
001594:                                                                                                  #  FIND  GIMBAL ANGLES WHICH ROTATE SM 180DEG  ABOUT  G VEC
001595:
001596:                                                                                                  #   DEFINE G COOR SYS
001597:                                                                                                  #                       -
001598:                                                                                                  #                       X    UNIT G
001599:                                                                                                  #                   *   -               -
001600:                                                                                                  #                   M=  Y =  UNITEZSM * X )
001601:                                                                                                  #                       -               -
001602:                                                                                                  #                       Z    UNIT(X   * Y )
001603:                                                                                                  #   THEN   ROTATED  SM WRT  PRESENT IS


001605:                                                                                                  #                      1,  0 , 0
001606:                                                                                                  #            *      *T            *            *         *
001607:                                                                                                  #           XSM =   M  0, -1 , 0  M   =  2  (X X ) - 1/2 I  *
001608:                                                                                                  #                                             I J
001609:                                                                                                  #                      0,  0 ,-1
001610:
001611:                                                                                                  #   ALSO   NB WRT PRES SM  IS
001612:
001613:                                                                                                  #                 *      *   *
001614:                                                                                                  #                XNB = NBSM  I
001615:                                                                                                  #                             *     *
001616:                                                                                                  #   GIMBAL ANGLES  = CALCGA( XSM , XNB )
001617:
001618: 15,2000                                           SETLOC   P50S
001619: 15,2000                                           BANK
001620: 15,2627                                           COUNT*   $$/P57
001621: 15,2627           66370                           AXT,1    SSP                                   #  X1=18
001622: 15,2630           00022                                    18D                                   #  S1= 6
001623: 15,2631           00051                                    S1                                    #  X2, -2
001624: 15,2632           00006                                    6D
001625: 15,2633           77744                           LXC,2
001626: 15,2634           00050                                    S1
001627: 15,2635           45173        GRAVEL             VLOAD*   CALL
001628: 15,2636           54000                                    XUNIT      -6,2
001629: 15,2637           47665                                    *NBSM*                                #  SIN AND COS COMPUTED IN LUNG
001630: 15,2640           06707                           STORE    XNB        +18D,1
001631: 15,2641           77775                           VLOAD
001632: 15,2642           02731                                    STAR
001633: 15,2643           73744                           LXC,2    VXSC*                                 #  COMPLEMENT- UNITX  ARE BACKWARD -
001634: 15,2644           00047                                    X2
001635: 15,2645           75040                                    STAR       +6,2                       #  OUTER PRODUCT
001636: 15,2646           71152                           VSL2     LXC,2
001637: 15,2647           00047                                    X2
001638: 15,2650           63047                           VSU*     INCR,2
001639: 15,2651           54000                                    XUNIT      -6,2
001640: 15,2652           00002                                    2D
001641: 15,2653           06665                           STORE    XSM        +18D,1
001642: 15,2654           45100                           TIX,1    CALL
001643: 15,2655           32635                                    GRAVEL
001644: 15,2656           47336                                    CALCGA
001645: 15,2657           74575                           VLOAD    VSR1
001646: 15,2660           02715                                    GOUT
001647: 15,2661           36723                           STCALL   STARAD     +12D
001648: 15,2662           32722                                    LUNG
001649: 15,2663           74575                           VLOAD    VSR1
001650: 15,2664           02715                                    GOUT
001651: 15,2665           53455                           VAD      UNIT
001652: 15,2666           02723                                    STARAD     +12D


001654: 15,2667           02761                           STORE    STARSAV1
001655: 15,2670           77641                           DOT
001656: 15,2671           02222                                    GSAV
001657: 15,2672           65552                           SL1      ACOS
001658: 15,2673           01045                           STORE    DSPTEM1
001659: 15,2674           77776                           EXIT
001660: 15,2675           05520                           TC       DOWNFLAG                              #  CLEAR FREEFLAG IN CASE OF RECYCLE
001661: 15,2676           00014                           ADRES    FREEFLAG
001662:
001663: 15,2677           33015                           CA       DISGRVER
001664: 15,2700           04607                           TC       BANKCALL
001665: 15,2701           20471                           CADR     GOFLASH
001666: 15,2702           06001                           TC       GOTOPOOH
001667: 15,2703           12706                           TCF      PROGRAV                               #  VB33-PROCEED
001668: 15,2704           05506                           TC       UPFLAG                                #  VB32-RECYCLE-STORE GRAV AND DO IT AGAIN
001669: 15,2705           00014                           ADRES    FREEFLAG                              #  AND SET FREEFLAG TO SHOW RECYCLE
001670:
001671: 15,2706           05355        PROGRAV            TC       PHASCHNG
001672: 15,2707           04024                           OCT      04024
001673:
001674: 15,2710           06060                           TC       INTPRET
001675: 15,2711           77775                           VLOAD
001676: 15,2712           02761                                    STARSAV1
001677: 15,2713           02222                           STORE    GSAV
001678: 15,2714           77776                           EXIT
001679: 15,2715           34742                           CAF      FREEFBIT                              #  IF FREEFLAG SET, RE-COMPUTE GRAVITY.
001680: 15,2716           70074                           MASK     FLAGWRD0
001681: 15,2717           10000                           CCS      A
001682: 15,2720           12615                           TCF      GVDETER                               #  SET
001683: 15,2721           13535                           TCF      ATTCHK                                #  EXIT FROM GVDETER
001684:
001685: 15,2722           77220        LUNG               STQ      VLOAD
001686: 15,2723           02745                                    QMIN
001687: 15,2724           24007                                    ZEROVEC
001688: 15,2725           02707                           STORE    GACC
001689: 15,2726           77776                           EXIT
001690: 15,2727           05355                           TC       PHASCHNG
001691: 15,2730           04024                           OCT      04024
001692:
001693: 15,2731           06060                           TC       INTPRET
001694: 15,2732           77624                           CALL
001695: 15,2733           31542                                    COARSE
001696: 15,2734           77776                           EXIT
001697: 15,2735           33014                           CA       T/2SEC
001698: 15,2736           55736                           TS       GCTR
001699: 15,2737           37737                           CA       PRIO31
001700: 15,2740           55074                           TS       1/PIPADT
001701: 15,2741           04607                           TC       BANKCALL
001702: 15,2742           15751                           CADR     GCOMPZER                              #  INITIALIZE  COMPENSATION
001703: 15,2743           05355                           TC       PHASCHNG


001705: 15,2744           04024                           OCT      04024
001706:
001707: 15,2745           04607                           TC       BANKCALL                              #   DONT NEED TO INHINY  THIS USED TO
001708: 15,2746           77543                           CADR     PIPSRINE                              #  INITIALIZE PIPAS  DONT USE DATA
001709: 15,2747           06060                           TC       INTPRET
001710: 15,2750           77776        GREED              EXIT                                           #  = MASK 7776 IN BASIC SO DONT CARE
001711: 15,2751           34771                           CAF      2SECS
001712: 15,2752           05175                           TC       TWIDDLE                               #  SET UP 2 SEC TASK TO READ PIPAS
001713: 15,2753           02755                           ADRES    GRABGRAV
001714:
001715: 15,2754           05146                           TC       ENDOFJOB
001716:
001717: 15,2755           04665        GRABGRAV           TC       IBNKCALL
001718: 15,2756           77543                           CADR     PIPSRINE
001719: 15,2757           35014                           CAF      PRIO13                                #  RE-ESTABLISH MAINLINE JOB
001720: 15,2760           05076                           TC       FINDVAC
001721: 15,2761  E5,1706                                  EBANK=   STARAD
001722: 15,2761           02764 32065                     2CADR    ADDGRAV
001723:
001724:
001725: 15,2763           05263                           TC       TASKOVER
001726:
001727: 15,2764           04607        ADDGRAV            TC       BANKCALL
001728: 15,2765           15333                           CADR     1/PIPA
001729: 15,2766           25736                           INCR     GCTR
001730: 15,2767           06060                           TC       INTPRET
001731: 15,2770           53375                           VLOAD    VAD
001732: 15,2771           00325                                    DELV
001733: 15,2772           02707                                    GACC
001734: 15,2773           02707                           STORE    GACC                                  #  ACCUMULATE G VECTOR
001735: 15,2774           50135                           SLOAD    BMN
001736: 15,2775           02737                                    GCTR
001737: 15,2776           32750                                    GREED
001738: 15,2777           53575                           VLOAD    UNIT
001739: 15,3000           02707                                    GACC
001740: 15,3001           36731                           STCALL   STAR
001741: 15,3002           47522                                    CDUTRIG                               #  TRANSFORM  IN NB COOR  AND  STORE
001742: 15,3003           77624                           CALL                                           #   IN OUTPUT
001743: 15,3004           47663                                    *SMNB*
001744: 15,3005           02715                           STORE    GOUT
001745: 15,3006           77776                           EXIT
001746: 15,3007           05355                           TC       PHASCHNG
001747: 15,3010           04024                           OCT      04024
001748:
001749: 15,3011           06060        QMINEXIT           TC       INTPRET
001750: 15,3012           77650                           GOTO
001751: 15,3013           02745                                    QMIN
001752: 15,3014           77753        T/2SEC             DEC      -20        B-14
001753: 15,3015           01404        DISGRVER           VN       0604
001754: 15,3016           07357        42DEG              OCT      07357


001756: 15,3017           06211        35DEG              OCT      06211
001757:


001759:                                                                                                  #  NAME  GYROTRIM
001760:
001761:                                                                                                  #  THIS PROGRAM COMPUTES AND SENDS GYRO COMMANDS WHICH CAUSE THE CDUS
001762:                                                                                                  #    TO ATTAIN A PRESCRIBED SET OF ANGLES. THIS ROUTINE ASSUMES THE
001763:                                                                                                  #    VEHICLES ATTITUDE REMAINS STATIONARY DURING ITS OPERATION.
001764:
001765:                                                                                                  #  CALL     CALL
001766:                                                                                                  #                  GYROTRIM
001767:
001768:                                                                                                  #  INPUT    THETAD,+1,+2 = DESIRED CDU ANGLES
001769:                                                                                                  #           CDUX,CDUY,CDUZ
001770:
001771:                                                                                                  #  OUTPUT - GYRO TORQUE PULSES
001772:
001773:                                                                                                  #  SUBROUTINES- TRG*NBSM,*NBSM*,CDUTRIG,AXISGEN,CALCGTA,IMUFINE
001774:                                                                                                  #               IMPULSE,IMUSTALL
001775:                                                                                                  #             -         -        -        *           *     -
001776:                                                                                                  #  DEBRIS -  CDUSPOT ,SINCDU ,COSCDU , STARAD ,VAC , XDC , OGC
001777: 15,3020                                           COUNT*   $$/P57
001778: 15,3020           71220        GYROTRIM           STQ      DLOAD
001779: 15,3021           02745                                    QMIN
001780: 15,3022           00322                                    THETAD
001781: 15,3023           65325                           PDDL     PDDL
001782: 15,3024           00324                                    THETAD     +2
001783: 15,3025           00323                                    THETAD     +1
001784: 15,3026           77666                           VDEF
001785: 15,3027           24766                           STOVL    CDUSPOT
001786: 15,3030           24005                                    XUNIT
001787: 15,3031           77624                           CALL
001788: 15,3032           47656                                    TRG*NBSM
001789: 15,3033           26707                           STOVL    STARAD
001790: 15,3034           24003                                    YUNIT
001791: 15,3035           77624                           CALL
001792: 15,3036           47665                                    *NBSM*
001793: 15,3037           36715                           STCALL   STARAD     +6
001794: 15,3040           47522                                    CDUTRIG
001795: 15,3041           77624                           CALL
001796: 15,3042           20030                                    CALCSMSC
001797: 15,3043           77775                           VLOAD
001798: 15,3044           02665                                    XNB
001799: 15,3045           24007                           STOVL    6D
001800: 15,3046           02673                                    YNB
001801: 15,3047           34015                           STCALL   12D
001802: 15,3050           47424                                    AXISGEN
001803: 15,3051           77624                           CALL
001804: 15,3052           47232                                    CALCGTA
001805: 15,3053           77776        JUSTTRIM           EXIT
001806: 15,3054           33063                           CA       GYRCDR
001807: 15,3055           04607                           TC       BANKCALL
001808: 15,3056           17310                           CADR     IMUPULSE


001810: 15,3057           04607                           TC       BANKCALL
001811: 15,3060           17735                           CADR     IMUSTALL
001812: 15,3061           05705                           TC       CURTAINS
001813: 15,3062           13011                           TCF      QMINEXIT
001814:
001815: 15,3063           02737        GYRCDR             ECADR    OGC
001816:


001818:                                                                                                  #  PERFORM STAR AQUISITION AND STAR SIGHTINGS
001819:
001820: 15,3064           34746        2STARS             CAF      ZERO                                  #  INITALIZE STARIND
001821: 15,3065           13067                           TCF      +2                                    #  ZERO FOR 1ST STAR, ONE FOR 2ND STAR
001822: 15,3066           34744        1STAR              CAF      BIT1
001823: 15,3067           55757                           TS       STARIND
001824:
001825: 15,3070           05355                           TC       PHASCHNG
001826: 15,3071           04024                           OCT      04024
001827:
001828: 15,3072           12402                           TCF      R59                                   #  GO DO STAR AQUIRE AND AOTMARK
001829:
001830: 15,3073           31757        R59RET             CA       STARIND                               #  BACK FROM SURFACE MARKING
001831: 15,3074           00006                           EXTEND
001832: 15,3075           13106                           BZF      ASTAR                                 #  1ST STAR MARKED
001833:
001834: 15,3076           05355                           TC       PHASCHNG
001835: 15,3077           04024                           OCT      04024
001836:
001837: 15,3100           06060                           TC       INTPRET
001838: 15,3101           45145                           DLOAD    CALL
001839: 15,3102           03562                                    TSIGHT                                #  TIME OF 2ND MARK
001840: 15,3103           16607                                    PLANET
001841: 15,3104           37254                           STCALL   VEC2                                  #  STORE 2ND CATALOG VEC (REF)
001842: 15,3105           33120                                    SURFLINE
001843:
001844: 15,3106           06060        ASTAR              TC       INTPRET
001845: 15,3107           77775                           VLOAD
001846: 15,3110           02767                                    STARSAV2
001847: 15,3111           02761                           STORE    STARSAV1                              #  1ST OBSERVED STAR (SM)
001848: 15,3112           45145                           DLOAD    CALL
001849: 15,3113           03562                                    TSIGHT                                #  TIME OF 1ST MARK
001850: 15,3114           16607                                    PLANET
001851: 15,3115           03246                           STORE    VEC1                                  #  STORE 1ST CATALOG VEC (REF)
001852: 15,3116           77776                           EXIT
001853: 15,3117           13066                           TCF      1STAR                                 #  GO GET 2ND STAR SIGHTING
001854:


001856:                                                                                                  #  DO FINE OR COARSE ALIGNMENT OF IMU
001857:
001858: 15,3120           77131        SURFLINE           SSP      AXT,2
001859: 15,3121           00052                                    S2
001860: 15,3122           00006                                    6
001861: 15,3123           00014                                    12D
001862: 15,3124           64373        WRTDESIR           VLOAD*   MXV
001863: 15,3125           74515                                    VEC1       +12D,2                     #  PICK UP VEC IN REF, TRANS TO DESIRED SH
001864: 15,3126           03607                                    XSMD
001865: 15,3127           77656                           UNIT
001866: 15,3130           12723                           STORE    STARAD     +12D,2                     #  VEC IN SM
001867: 15,3131           77773                           VLOAD*
001868: 15,3132           75002                                    STARSAV1   +12D,2                     #  PICK UP VEC IN PRESENT SM
001869: 15,3133           10023                           STORE    18D,2
001870: 15,3134           43104                           TIX,2    BON
001871: 15,3135           33124                                    WRTDESIR
001872: 15,3136           04315                                    INITALGN                              #  IF INITIAL PASS (OPTION 0) BYPASS R54
001873: 15,3137           33145                                    INITBY
001874: 15,3140           77624        DOALIGN            CALL
001875: 15,3141           31265                                    R54                                   #  DO CHKSDATA
001876: 15,3142           77614                           BOFF
001877: 15,3143           00354                                    FREEFLAG
001878: 15,3144           33225                                    P57POST                               #  ASTRO DOES NOT LIKE DATA TEST RESULTS
001879: 15,3145           77624        INITBY             CALL
001880: 15,3146           47424                                    AXISGEN                               #  GET DESIRED ORIENT WRT PRES.XDC,YDC,ZDC
001881: 15,3147           77624                           CALL
001882: 15,3150           47232                                    CALCGTA                               #  GET GYRO TORQ ANGLES, OGC,IGC,MGC
001883: 15,3151           77776                           EXIT
001884: 15,3152           34743                           CAF      INITABIT                              #  IF INITIAL PASS BYPASS NOUN 93 DISPLAY
001885: 15,3153           70104                           MASK     FLAGWRD8
001886: 15,3154           10000                           CCS      A
001887: 15,3155           13164                           TCF      5DEGTEST
001888: 15,3156           33273                           CAF      DISPGYRO                              #  DISPLAY GYRO TORQ ANGLES V 06N93
001889: 15,3157           04607                           TC       BANKCALL
001890: 15,3160           20471                           CADR     GOFLASH
001891: 15,3161           06001                           TC       GOTOPOOH                              #  V34-TERMINATE
001892: 15,3162           13164                           TCF      5DEGTEST                              #  VB33-PROCEED TO COARSE OR FINE
001893: 15,3163           13226                           TCF      P57POST    +1                         #  VB32-RECYCLE, MAYBE RE-ALIGN
001894:
001895: 15,3164           06060        5DEGTEST           TC       INTPRET                               #  IF ANGLES GREATER THAN 5 DEGS, DO COARSE
001896: 15,3165           40175                           VLOAD    BOV
001897: 15,3166           02740                                    OGC
001898: 15,3167           33170                                    SURFSUP
001899: 15,3170           02750        SURFSUP            STORE    OGCT
001900: 15,3171           40141                           V/SC     BOV
001901: 15,3172           30617                                    5DEGREES
001902: 15,3173           31715                                    COATRIM
001903: 15,3174           52131                           SSP      GOTO
001904: 15,3175           02746                                    QMIN
001905: 15,3176           33200                                    SURFDISP


001907: 15,3177           33053                                    JUSTTRIM                              #  ANGLES LESS THAN 5DEG, DO GYRO TORQ
001908:
001909: 15,3200           77776        SURFDISP           EXIT
001910: 15,3201           05355                           TC       PHASCHNG
001911: 15,3202           04024                           OCT      04024
001912:
001913: 15,3203           06060                           TC       INTPRET
001914: 15,3204           75160                           AXC,1    AXC,2
001915: 15,3205           03606                                    XSMD
001916: 15,3206           01731                                    REFSMMAT
001917: 15,3207           45014                           SET      CALL
001918: 15,3210           01462                                    REFSMFLG
001919: 15,3211           26374                                    MATMOVE
001920: 15,3212           77776                           EXIT
001921: 15,3213           11144                           CCS      OPTION2                               #  IF OPTION ZERO DO FINISH
001922: 15,3214           13216                           TCF      B2F8
001923: 15,3215           13226                           TCF      P57POST    +1
001924:
001925: 15,3216           34743        B2F8               CAF      INITABIT                              #  IF INITIAL FLAG SET, RE-CYCLE.
001926: 15,3217           70104                           MASK     FLAGWRD8
001927: 15,3220           10000                           CCS      A
001928: 15,3221           13543                           TCF      P57JUMP                               #  ITS SET
001929: 15,3222           06060                           TC       INTPRET
001930: 15,3223           77624                           CALL
001931: 15,3224           33470                                    REFMF                                 #  GO GET ATTITUDE VEC IN MF(YNBSAV,XNBSAV)
001932: 15,3225           77776        P57POST            EXIT
001933: 15,3226           35745                           CAF      OCT14                                 #  DISPLAY V50N25 CHK CODE 14
001934: 15,3227           04607                           TC       BANKCALL
001935: 15,3230           20635                           CADR     GOPERF1
001936: 15,3231           16001                           TCF      GOTOPOOH                              #  VB34-TERMINATE
001937: 15,3232           13543                           TCF      P57JUMP                               #  VB33-PROCEED TO RE-ALIGN
001938: 15,3233           44743                           CS       BIT2                                  #  TEST TO SE IF ALIGNED BY OPTION 2
001939: 15,3234           61144                           AD       OPTION2
001940: 15,3235           00006                           EXTEND
001941: 15,3236           13240                           BZF      +2                                    #  YES-GO CALCULATE LANDING SITE
001942: 15,3237           16001                           TCF      GOTOPOOH                              #  NO-EXIT P57
001943: 15,3240           05355                           TC       PHASCHNG                              #  RESTART PLACE
001944: 15,3241           04024                           OCT      04024
001945: 15,3242           06060                           TC       INTPRET
001946: 15,3243           45175                           VLOAD    CALL                                  #  USE GNB
001947: 15,3244           02222                                    GSAV
001948: 15,3245           47653                                    CDU*NBSM                              #  GO TO SM COORDS
001949: 15,3246           43105                           VXM      SET                                   #           ON MOON SO SET LUNAFLAG
001950: 15,3247           01732                                    REFSMMAT                              #           G(REF) = (REFSMMAT)T (NBSM)GNB
001951: 15,3250           01463                                    LUNAFLAG
001952: 15,3251           51515                           PDVL     ABVAL
001953: 15,3252           02021                                    RLS
001954: 15,3253           45561                           VXSC     STADR
001955: 15,3254           75745                           STORE    ALPHAV                                #           ALPHAV =  RLSMAG * G(REF)
001956: 15,3255           47014                           CLEAR    RTB


001958: 15,3256           00662                                    ERADFLAG
001959: 15,3257           21603                                    LOADTIME
001960: 15,3260           77624                           CALL
001961: 15,3261           30455                                    N89DISP                               #  SUBROUTINE TO CALC LS AND GIVE RLS BACK
001962: 15,3262           01220                           STORE    RN                                    #  RN=RLS B-29 = LM POSITION
001963: 15,3263           65352                           VSL2     PDDL                                  #  R-TO-RP GETS RLS B-27 AT  0-5D IN PDLIST
001964: 15,3264           01242                                    SITIME                                #  TIME STORED IN N89DISP
001965: 15,3265           77606                           PUSH                                           #  TIME AT  6-7 IN PDLIST
001966: 15,3266           35234                           STCALL   PIPTIME                               #  PIPTIME = LM STATE TIME
001967: 15,3267           51644                                    R-TO-RP
001968: 15,3270           02021                           STORE    RLS                                   #  RLS IN MOON-FIXED COORDS
001969: 15,3271           77776                           EXIT
001970: 15,3272           16001                           TCF      GOTOPOOH                              #  EXIT P57
001971:


001973:                                                                                                  #  COARSE AND FINE ALIGN IMU
001974: 14,2000                                           SETLOC   P50S1
001975: 14,2000                                           BANK
001976:
001977: 14,3715                                           COUNT*   $$/P57
001978:
001979: 14,3715           75160        COATRIM            AXC,1    AXC,2
001980: 14,3716           02664                                    XDC
001981: 14,3717           02642                                    XSM
001982: 14,3720           77624                           CALL
001983: 14,3721           26374                                    MATMOVE
001984: 14,3722           77624                           CALL
001985: 14,3723           47522                                    CDUTRIG
001986: 14,3724           77624                           CALL
001987: 14,3725           20030                                    CALCSMSC
001988: 14,3726           77624                           CALL
001989: 14,3727           47336                                    CALCGA
001990: 14,3730           77414                           BOFF     EXIT
001991: 14,3731           04355                                    INITALGN                              #  IF INITIAL ALGNMENT DISPLAY FINAL
001992: 14,3732           31744                                    CORSIT                                #  GIMBAL ANGLES IF COARSE ANGLES GREATER
001993: 14,3733           35001                           CAF      V06N22                                #  THAN 5 DEGREES
001994: 14,3734           04607                           TC       BANKCALL
001995: 14,3735           20471                           CADR     GOFLASH
001996: 14,3736           06001                           TC       GOTOPOOH
001997: 14,3737           13741                           TCF      +2
001998: 14,3740           13733                           TCF      -5
001999: 14,3741           05355                           TC       PHASCHNG
002000: 14,3742           04024                           OCT      04024
002001:
002002: 14,3743           06060                           TC       INTPRET
002003: 14,3744           77624        CORSIT             CALL
002004: 14,3745           31542                                    COARSE
002005: 14,3746           77624                           CALL
002006: 14,3747           31566                                    NCOARSE
002007: 14,3750           77624                           CALL
002008: 14,3751           33020                                    GYROTRIM
002009: 14,3752           77650                           GOTO
002010: 14,3753           33200                                    SURFDISP
002011: 15,2000                                           SETLOC   P50S
002012: 15,2000                                           BANK
002013: 15,3273                                           COUNT*   $$/P57
002014:
002015: 15,3273           01535        DISPGYRO           VN       0693
002016:


002018:                                                                                                  #  LUNAR SURFACE IMU ALIGNMENT PROGRAM
002019:
002020: 15,3274           04607        P57                TC       BANKCALL                              #  IS ISS ON - IF NOT, IMUCHK WILL SEND
002021: 15,3275           33634                           CADR     IMUCHK                                #  ALARM CODE 210 AND EXIT VIA GOTOPOOH
002022:
002023: 15,3276           05520                           TC       DOWNFLAG
002024: 15,3277           00222                           ADRES    FLT59FLG
002025:
002026: 15,3300           36266                           CAF      THREE                                 #  JAM REFSMMAT OPTION 3 FOR INITIAL DISP.
002027: 15,3301           55144                           TS       OPTION2
002028: 15,3302           34744        P57OPT             CAF      BIT1
002029: 15,3303           04607                           TC       BANKCALL
002030: 15,3304           20725                           CADR     GOPERF4R                              #  FLASH V04N06 FOR ALIGNMENT CODE
002031: 15,3305           06001                           TC       GOTOPOOH                              #  V34 TERMINATE
002032: 15,3306           13313                           TCF      ALIGNOPT                              #  V33 PROCEED
002033: 15,3307           13302                           TCF      P57OPT                                #  V32 RECYCLE
002034:
002035: 15,3310           05355                           TC       PHASCHNG
002036: 15,3311           00014                           OCT      00014
002037: 15,3312           05146                           TC       ENDOFJOB
002038:
002039: 15,3313           31144        ALIGNOPT           CA       OPTION2
002040: 15,3314           76266                           MASK     THREE
002041: 15,3315           50000                           INDEX    A
002042: 15,3316           13317                           TCF      +1
002043: 15,3317           13332                           TCF      TDISP                                 #  OPTION 4 LS ORIENTATION
002044: 15,3320           13373                           TCF      PACKOPTN                              #  OPTION 1 PREFERRED
002045: 15,3321           13302                           TCF      P57OPT                                #  OPTION 2 INVALID IN P57, RECYCLE
002046: 15,3322           06060                           TC       INTPRET                               #  OPTION 3 REFSMMAT
002047: 15,3323           75160                           AXC,1    AXC,2                                 #  JAM REFSMMAT IN XSMD LOC
002048: 15,3324           01731                                    REFSMMAT
002049: 15,3325           03606                                    XSMD
002050: 15,3326           77624                           CALL
002051: 15,3327           26374                                    MATMOVE
002052: 15,3330           77650                           GOTO
002053: 15,3331           33372                                    PACKOPTN   -1
002054:
002055: 15,3332           06060        TDISP              TC       INTPRET
002056: 15,3333           77745                           DLOAD
002057: 15,3334           03442                                    TIG                                   #  LOAD ASCENT TIME FOR DISPLAY
002058: 15,3335           01045        P57A               STORE    DSPTEM1
002059: 15,3336           77776                           EXIT
002060: 15,3337           32325        P57AA              CAF      V06N34*                               #  DISPLAY TALIGN, TALIGN : DSPTEM1
002061: 15,3340           04607                           TC       BANKCALL
002062: 15,3341           20471                           CADR     GOFLASH
002063: 15,3342           16001                           TCF      GOTOPOOH                              #  V34-TERMINATE
002064: 15,3343           13345                           TCF      +2
002065: 15,3344           13337                           TCF      P57AA                                 #  VB32-RECYCLE
002066:
002067: 15,3345           06060                           TC       INTPRET


002069: 15,3346           65234                           RTB      PDDL
002070: 15,3347           21603                                    LOADTIME                              #  PUSH CURRENT TIME AND PICK UP KEY IN
002071: 15,3350           01045                                    DSPTEM1
002072: 15,3351           65254                           BZE      PDDL
002073: 15,3352           33362                                    P57C                                  #  IF KEY IN TIME ZERO-TALIGN=CURRENT TIME
002074: 15,3353           51025                           DSU      BPL                                   #  NOT ZERO SO EXCHANGE PD WITH DSPTEM1
002075: 15,3354           01045                                    DSPTEM1
002076: 15,3355           33362                                    P57C
002077: 15,3356           45545                           DLOAD    STADR                                 #  IF KEYIN TIME GREATER THAN CURRENT TIME
002078: 15,3357           74335                           STORE    TIG                                   #  STORE IT IN TIG
002079: 15,3360           36775                           STCALL   TALIGN
002080: 15,3361           33364                                    P57D
002081: 15,3362           45545        P57C               DLOAD    STADR
002082: 15,3363           75002                           STORE    TALIGN
002083: 15,3364           34041        P57D               STCALL   TDEC1
002084: 15,3365           27115                                    LEMPREC                               #  COMPUTE DESIRED IMU ORIENTATION STORE
002085: 15,3366           53575                           VLOAD    UNIT                                  #  IN  X,Y,ZSMD
002086: 15,3367           00001                                    RATT
002087: 15,3370           37607                           STCALL   XSMD
002088: 15,3371           11014                                    LSORIENT
002089: 15,3372           77776                           EXIT
002090: 15,3373           34746        PACKOPTN           CAF      ZERO                                  #  PACK FLAG BITS FOR OPTION DISPLAY
002091: 15,3374           55144                           TS       OPTION1    +1                         #  JAM ZERO IN ALIGNMENT OPTION
002092: 15,3375           55145                           TS       OPTION1    +2                         #  INITIALIZE FLAG BIT CONFIGURATION
002093: 15,3376           34730                           CAF      REFSMBIT
002094: 15,3377           70077                           MASK     FLAGWRD3                              #  REFSMFLG
002095: 15,3400           10000                           CCS      A
002096: 15,3401           34736                           CAF      BIT7                                  #  SET
002097: 15,3402           27145                           ADS      OPTION1    +2                         #  CLEAR-JUST ZERO
002098: 15,3403           34744                           CAF      ATTFLBIT
002099: 15,3404           70102                           MASK     FLAGWRD6                              #  ATTFLG
002100: 15,3405           10000                           CCS      A
002101: 15,3406           34741                           CAF      BIT4                                  #  SET
002102: 15,3407           27145                           ADS      OPTION1    +2                         #  CLEAR-ZERO IN A
002103: 15,3410           34741                           CAF      BIT4
002104: 15,3411           55143                           TS       OPTION1                               #  JAM 00010 IN OPTION1 FOR CHECK LIST
002105:
002106: 15,3412           33633        DSPOPTN            CAF      VB05N06                               #  DISPLAY OPTION CODE AND FLAG BITS
002107: 15,3413           04607                           TC       BANKCALL
002108: 15,3414           20471                           CADR     GOFLASH
002109: 15,3415           16001                           TCF      GOTOPOOH                              #  VB34-TERMINATE
002110: 15,3416           13420                           TCF      +2                                    #  V33-PROCEED
002111: 15,3417           13412                           TCF      DSPOPTN                               #  V32-RECYCLE
002112:
002113: 15,3420           34730                           CAF      REFSMBIT
002114: 15,3421           70077                           MASK     FLAGWRD3
002115: 15,3422           10000                           CCS      A
002116: 15,3423           13523                           TCF      GETLMATT                              #  SET, GO COMPUTE LM ATTITUDE
002117: 15,3424           34744                           CAF      ATTFLBIT                              #  CLEAR-CHECK ATTFLAG FOR STORED ATTITUDE.
002118: 15,3425           70102                           MASK     FLAGWRD6


002120: 15,3426           10000                           CCS      A
002121: 15,3427           13527                           TCF      BYLMATT                               #  ALLFLG SET, CHK OPTION FOR GRAVITY COMP
002122: 15,3430           34743                           CAF      BIT2                                  #  SEE IF OPTION 2 OR 3
002123: 15,3431           71144                           MASK     OPTION2
002124: 15,3432           10000                           CCS      A
002125: 15,3433           13527                           TCF      BYLMATT                               #  OPTION 2 OR 3 BUT DONT HAVE ATTITUDE
002126: 15,3434           05571                           TC       ALARM                                 #  OPTION INCONSISTANT WITH FLAGS-ALARM 701
002127: 15,3435           00701                           OCT      701
002128: 15,3436           34777                           CAF      VB05N09                               #  DISPLAY ALARM FOR ACTION
002129: 15,3437           04607                           TC       BANKCALL
002130: 15,3440           20471                           CADR     GOFLASH
002131: 15,3441           16001                           TCF      GOTOPOOH                              #  VB34-TERMINATE
002132: 15,3442           13412                           TCF      DSPOPTN                               #  V33-PROCEED   ********TEMPORARY
002133: 15,3443           13412                           TCF      DSPOPTN                               #  VB32-RECYCLE TO OPTION DISPLAY V 05N06
002134:


002136:                                                                                                  #  TRANSFORM VEC1,2 FROM MOON FIXED TO REF AND JAM BACK IN VEC1,2
002137:
002138: 15,3444           40220        MFREF              STQ      SETPD
002139: 15,3445           02746                                    QMAJ
002140: 15,3446           00001                                    0
002141: 15,3447           77634                           RTB
002142: 15,3450           21603                                    LOADTIME
002143: 15,3451           27562                           STOVL    TSIGHT
002144: 15,3452           03246                                    VEC1
002145: 15,3453           41525                           PDDL     PUSH
002146: 15,3454           03562                                    TSIGHT
002147: 15,3455           77624                           CALL
002148: 15,3456           55716                                    RP-TO-R
002149: 15,3457           27246                           STOVL    VEC1
002150: 15,3460           03254                                    VEC2
002151: 15,3461           65201                           SETPD    PDDL
002152: 15,3462           00001                                    0
002153: 15,3463           03562                                    TSIGHT
002154: 15,3464           45006                           PUSH     CALL
002155: 15,3465           55716                                    RP-TO-R
002156: 15,3466           37254                           STCALL   VEC2
002157: 15,3467           02746                                    QMAJ
002158:


002160:                                                                                                  #  COMPUTE LM ATTITUDE IN MOON FIXED COORDINATES USING REFSMMAT AND
002161:                                                                                                  #  STORE IN YNBSAV AND ZNBSAV
002162:
002163: 15,3470           45020        REFMF              STQ      CALL
002164: 15,3471           02746                                    QMAJ
002165: 15,3472           47522                                    CDUTRIG                               #  GET SIN AND COS OF CDUS
002166: 15,3473           40234                           RTB      SETPD
002167: 15,3474           21603                                    LOADTIME
002168: 15,3475           00001                                    0
002169: 15,3476           37562                           STCALL   TSIGHT
002170: 15,3477           20030                                    CALCSMSC                              #  GET YNB IN SM
002171: 15,3500           61375                           VLOAD    VXM
002172: 15,3501           02673                                    YNB
002173: 15,3502           01732                                    REFSMMAT                              #   YNB TO REF
002174: 15,3503           65256                           UNIT     PDDL
002175: 15,3504           03562                                    TSIGHT
002176: 15,3505           45006                           PUSH     CALL
002177: 15,3506           51644                                    R-TO-RP
002178: 15,3507           26230                           STOVL    YNBSAV                                #  YNB TO MF
002179: 15,3510           02701                                    ZNB
002180: 15,3511           53505                           VXM      UNIT
002181: 15,3512           01732                                    REFSMMAT                              #  ZNB TO REF
002182: 15,3513           41525                           PDDL     PUSH
002183: 15,3514           03562                                    TSIGHT
002184: 15,3515           77624                           CALL
002185: 15,3516           51644                                    R-TO-RP                               #  ZNB TO MF
002186: 15,3517           02236                           STORE    ZNBSAV
002187: 15,3520           77614                           SETGO
002188: 15,3521           03036                                    ATTFLAG
002189: 15,3522           02746                                    QMAJ
002190:


002192:                                                                                                  #  BRANCH TO ALIGNMENT OPTION
002193:
002194: 15,3523           06060        GETLMATT           TC       INTPRET
002195: 15,3524           77624                           CALL
002196: 15,3525           33470                                    REFMF                                 #  GO TRANSFORM TO MF IN YNBSAV,ZNBSAV
002197: 15,3526           77776                           EXIT
002198:
002199: 15,3527           05506        BYLMATT            TC       UPFLAG                                #  SET INITIAL ALIGN FLAG
002200: 15,3530           00205                           ADRES    INITALGN
002201: 15,3531           34744                           CAF      BIT1
002202: 15,3532           71144                           MASK     OPTION2                               #  SEE IF OPTION 1 OR 3
002203: 15,3533           10000                           CCS      A
002204: 15,3534           12615                           TCF      GVDETER                               #  OPTION 1 OR 2, GET GRAVITY
002205:
002206: 15,3535           05355        ATTCHK             TC       PHASCHNG
002207: 15,3536           04024                           OCT      04024
002208:
002209: 15,3537           34744                           CAF      ATTFLBIT                              #  NOT 1 OR 3, CHECK ATTFLAG
002210: 15,3540           70102                           MASK     FLAGWRD6
002211: 15,3541           10000                           CCS      A
002212: 15,3542           13557                           TCF      P57OPT0                               #  GET ALIGNMENT VECS FOR OPTION 0
002213: 15,3543           05355        P57JUMP            TC       PHASCHNG
002214: 15,3544           04024                           OCT      04024
002215:
002216: 15,3545           05520                           TC       DOWNFLAG                              #  ATTFLG CLEAR-RESET INTALIGN FLAG
002217: 15,3546           00205                           ADRES    INITALGN
002218: 15,3547           36266                           CAF      THREE
002219: 15,3550           71144                           MASK     OPTION2                               #  BRANCH ON OPTION CODE
002220: 15,3551           50000                           INDEX    A
002221: 15,3552           13553                           TCF      +1
002222: 15,3553           13557                           TCF      P57OPT0                               #  OPTION IS 0
002223: 15,3554           13600                           TCF      P57OPT1                               #  OPTION IS 1
002224: 15,3555           13616                           TCF      P57OPT2                               #  OPTION IS 2
002225: 15,3556           13617                           TCF      P57OPT3                               #  OPTION IS 3
002226:


002228:                                                                                                  #  OPTION 0, GET TWO ATTITUDE VECS
002229:
002230: 15,3557           06060        P57OPT0            TC       INTPRET
002231: 15,3560           77775                           VLOAD
002232: 15,3561           02230                                    YNBSAV                                #  Y AND Z ATTITUDE WILL BE PUT IN REF
002233: 15,3562           27246                           STOVL    VEC1
002234: 15,3563           02236                                    ZNBSAV
002235: 15,3564           37254                           STCALL   VEC2
002236: 15,3565           47522                                    CDUTRIG
002237: 15,3566           77624                           CALL
002238: 15,3567           20030                                    CALCSMSC                              #  COMPUTE SC AXIS WRT PRESENT SM
002239: 15,3570           77775                           VLOAD
002240: 15,3571           02673                                    YNB
002241: 15,3572           26761        SAMETYP            STOVL    STARSAV1                              #  Y SC AXIS WRT PRESENT SM
002242: 15,3573           02701                                    ZNB
002243: 15,3574           36767                           STCALL   STARSAV2                              #  Z SC AXIS WRT PRESENT SM
002244: 15,3575           33444                                    MFREF                                 #  TRANSFORM VEC1,2 FROM MF TO REF
002245: 15,3576           77650                           GOTO
002246: 15,3577           33120                                    SURFLINE
002247:
002248:                                                                                                  #  OPTION 1, GET LANDING SITE AND Z-ATTITUDE VEC
002249:
002250: 15,3600           06060        P57OPT1            TC       INTPRET
002251: 15,3601           53575                           VLOAD    UNIT
002252: 15,3602           02021                                    RLS                                   #  LANDING SITE VEC
002253: 15,3603           27246                           STOVL    VEC1
002254: 15,3604           02236                                    ZNBSAV                                #  Z ATTITUDE VEC
002255: 15,3605           37254                           STCALL   VEC2
002256: 15,3606           47522                                    CDUTRIG
002257: 15,3607           77624                           CALL
002258: 15,3610           20030                                    CALCSMSC                              #  GET ZNB AXIS WRT PRES SM FOR STARSAV2
002259: 15,3611           45175                           VLOAD    CALL
002260: 15,3612           02222                                    GSAV                                  #  TRANS GSAV FROM NB TO SM FOR STARSAV1
002261: 15,3613           47653                                    CDU*NBSM
002262: 15,3614           77650                           GOTO
002263: 15,3615           33572                                    SAMETYP                               #  NOW DO SAME AS OPTION 0
002264:


002266:                                                                                                  #  OPTION 2, GET TWO STAR SIGHTINGS
002267:
002268: 15,3616           13064        P57OPT2            TCF      2STARS                                #  DO SIGHTING ON 2 STARS
002269:
002270:                                                                                                  #  OPTION 3, GET LANDING SITE VEC AND ONE STAR SIGHTING
002271:
002272: 15,3617           06060        P57OPT3            TC       INTPRET
002273: 15,3620           53575                           VLOAD    UNIT
002274: 15,3621           02021                                    RLS                                   #  LANDING SITE VEC
002275: 15,3622           03246                           STORE    VEC1
002276: 15,3623           27254                           STOVL    VEC2                                  #  DUMMY VEC2 FOR 2ND CATALOG STAR
002277: 15,3624           02222                                    GSAV                                  #  GRAVITY VEC NB
002278: 15,3625           77624                           CALL
002279: 15,3626           47653                                    CDU*NBSM                              #  TRANS GSAV FROM NB TO SM FOR STARSAV1
002280: 15,3627           36761                           STCALL   STARSAV1
002281: 15,3630           33444                                    MFREF                                 #  STARSAV2 IS STORED AS 2ND OBSERVED STAR
002282: 15,3631           77776                           EXIT
002283: 15,3632           13066                           TCF      1STAR                                 #  1STAR GET VEC2,STARSAV2,GOES TO SURFLINE
002284:
002285: 15,3633           01206        VB05N06            VN       506
002286:


002288:                                                                                                  #  CHECK IMODES30 TO VARIFY IMU IS ON
002289:
002290: 15,3634           41277        IMUCHK             CS       IMODES30
002291: 15,3635           74734                           MASK     BIT9
002292: 15,3636           10000                           CCS      A                                     #  IS IMU ON
002293: 15,3637           13643                           TCF      +4                                    #  YES
002294:
002295: 15,3640           05571                           TC       ALARM                                 #  NO, SEND ALARM AND EXIT
002296: 15,3641           00210                           OCT      210
002297: 15,3642           06001                           TC       GOTOPOOH
002298:
002299: 15,3643           05506                           TC       UPFLAG
002300: 15,3644           00007                           ADRES    IMUSE                                 #  SET IMUSE FLAG
002301:
002302: 15,3645           04622                           TC       SWRETURN
002303:
002304: 04,2000                                           SETLOC   AOTMARK2
002305: 04,2000                                           BANK
002306: 04,3014                                           COUNT*   $$/P57
002307:
002308: 04,3014           77220        LSORIENT           STQ      VLOAD
002309: 04,3015           02746                                    QMAJ
002310: 04,3016           01555                                    RRECTCSM
002311: 04,3017           47235                           VXV      VXV
002312: 04,3020           01563                                    VRECTCSM
002313: 04,3021           03607                                    XSMD
002314: 04,3022           77656                           UNIT
002315: 04,3023           03623                           STORE    ZSMD
002316: 04,3024           53435                           VXV      UNIT
002317: 04,3025           03607                                    XSMD
002318: 04,3026           37615                           STCALL   YSMD
002319: 04,3027           02746                                    QMAJ

End of include-file P51-P53.agc.  Parent file is MAIN.agc


