
Source Code


000002:                                                                                                  ## Copyright:   Public domain.
000003:                                                                                                  ## Filename:    P70-P71.agc
000004:                                                                                                  ## Purpose:     A section of Luminary revision 210.
000005:                                                                                                  ##              It is part of the source code for the Lunar Module's (LM)
000006:                                                                                                  ##              Apollo Guidance Computer (AGC) for Apollo 15-17.
000007:                                                                                                  ##              This file is intended to be a faithful transcription, except
000008:                                                                                                  ##              that the code format has been changed to conform to the
000009:                                                                                                  ##              requirements of the yaYUL assembler rather than the
000010:                                                                                                  ##              original YUL assembler.
000011:                                                                                                  ## Reference:   pp. 831-838
000012:                                                                                                  ## Assembler:   yaYUL
000013:                                                                                                  ## Contact:     Ron Burkey <info@sandroid.org>.
000014:                                                                                                  ## Website:     www.ibiblio.org/apollo/index.html
000015:                                                                                                  ## Mod history: 2016-11-17 JL   Created from Luminary131 version.
000016:                                                                                                  ##              2016-12-01 RSB  Completed transcription.
000017:                                                                                                  ##              2016-12-07 HG   Fix pseudo operator ADDRESS -> ADRES
000018:                                                                                                  ##              2016-12-08 HG   Fix operand LANDISP -> LANADISP
000019:


000021: 21,2042                                           BANK     21
000022: 21,2000                                           SETLOC   R11
000023: 21,2000                                           BANK
000024:
000025: 21,2042  E7,1515                                  EBANK=   DVCNTR
000026: 21,2042                                           COUNT*   $$/R11
000027:
000028: 21,2042           40103        R10,R11            CS       FLAGWRD7                              #  IS SERVICER STILL RUNNING?
000029: 21,2043           74740                           MASK     AVEGFBIT
000030: 21,2044           10000                           CCS      A
000031: 21,2045           15263                           TCF      TASKOVER                              #  LET AVGEND TAKE CARE OF GROUP 2.
000032: 21,2046           11055                           CCS      PIPCTR
000033: 21,2047           12054                           TCF      STORPCTR
000034: 21,2050           00006                           EXTEND
000035: 21,2051           34746                           DCA      NEG0
000036: 21,2052           52754                           DXCH     -PHASE2
000037: 21,2053           12060                           TCF      R10,R11A
000038:
000039: 21,2054           55722        STORPCTR           TS       PIPCTR1
000040:
000041: 21,2055           36010                           CAF      OCT31
000042: 21,2056           05175                           TC       TWIDDLE
000043: 21,2057           02042                           ADRES    R10,R11
000044: 21,2060           34744        R10,R11A           CAF      HFLSHBIT
000045: 21,2061           70107        FLASHH?            MASK     FLGWRD11
000046: 21,2062           00006                           EXTEND
000047: 21,2063           12067                           BZF      FLASHV?                               #  H FLASH OFF, SO LEAVE ALONE
000048:


000050: 21,2064           34740                           CA       HLITE
000051: 21,2065           54001                           TS       L
000052: 21,2066           04577                           TC       FLIP                                  #  FLIP H LITE
000053:
000054: 21,2067           34743        FLASHV?            CA       VFLSHBIT                              #  VLASHBIT MUST BE BIT 2.
000055: 21,2070           70107                           MASK     FLGWRD11
000056: 21,2071           00006                           EXTEND
000057: 21,2072           12076                           BZF      10,11                                 #  VFLASH OFF
000058:
000059: 21,2073           34742                           CA       VLITE
000060: 21,2074           54001                           TS       L
000061: 21,2075           04577                           TC       FLIP                                  #  FLIP V LITE
000062:
000063:
000064: 21,2076           30105        10,11              CA       FLAGWRD9                              #  IS THE LETABORT FLAG SET ?
000065: 21,2077           74734                           MASK     LETABBIT
000066: 21,2100           00006                           EXTEND
000067: 21,2101           12170                           BZF      LANADISP                              #  NO. PROCEED TO R10.
000068:
000069: 21,2102           41010        P71NOW?            CS       MODREG                                #  YES.  ARE WE IN P71 NOW?
000070: 21,2103           62147                           AD       1DEC71
000071: 21,2104           00006                           EXTEND


000073: 21,2105           12170                           BZF      LANADISP                              #  YES.  PROCEED TO R10.
000074:
000075: 21,2106           34744                           CAF      BIT1
000076: 21,2107           70374                           MASK     CHANBKUP
000077: 21,2110           10000                           CCS      A
000078: 21,2111           12170                           TCF      LANADISP                              #  IGNORE CHAN BITS - ASSUME NO ABORT
000079:
000080: 21,2112           00006                           EXTEND                                         #  NO. IS AN ABORT STAGE COMMANDED?
000081: 21,2113           00030                           READ     CHAN30                                #  .
000082: 21,2114           40000                           COM
000083: 21,2115           54001                           TS       L
000084: 21,2116           74741                           MASK     BIT4
000085: 21,2117           10000                           CCS      A
000086: 21,2120           12136                           TCF      P71A                                  #  YES.
000087:
000088: 21,2121           41010        P70NOW?            CS       MODREG                                #  NO. ARE WE IN P70 NOW?
000089: 21,2122           62146                           AD       1DEC70
000090: 21,2123           00006                           EXTEND
000091: 21,2124           12170                           BZF      LANADISP                              #  YES.  PROCEED TO R10.
000092:
000093: 21,2125           30001                           CA       L                                     #  NO.  IS AN ABORT COMMANDED?
000094: 21,2126           74744                           MASK     BIT1
000095: 21,2127           10000                           CCS      A
000096: 21,2130           12133                           TCF      P70A                                  #  YES.
000097: 21,2131           12170                           TCF      LANADISP                              #  NO.  PROCEED TO R10.
000098:
000099: 21,2132                                           COUNT*   $$/P70
000100:
000101: 21,2132           02150        P70                TC       LEGAL?
000102: 21,2133           44746        P70A               CS       ZERO
000103: 21,2134           12137                           TCF      +3
000104: 21,2135           02150        P71                TC       LEGAL?
000105: 21,2136           34743        P71A               CAF      TWO
000106: 21,2137           54002                 +3        TS       Q
000107: 21,2140           00004                           INHINT
000108: 21,2141           00006                           EXTEND
000109: 21,2142           32145                           DCA      CNTABTAD
000110: 21,2143           52006                           DTCB
000111:
000112: 21,2144  E7,1515                                  EBANK=   DVCNTR
000113: 21,2144           03417 12067  CNTABTAD           2CADR    CONTABRT
000114:
000115: 21,2146           00106        1DEC70             DEC      70         B-14
000116: 21,2147           00107        1DEC71             DEC      71         B-14
000117:
000118: 05,3417                                           BANK     05
000119: 05,2000                                           SETLOC   ABORTS1
000120: 05,2000                                           BANK
000121: 05,3417                                           COUNT*   $$/P70
000122:


000124: 05,3417           33422        CONTABRT           CAF      ABRTJADR
000125: 05,3420           54017                           TS       BRUPT
000126: 05,3421           50017                           RESUME
000127:
000128: 05,3422           13423        ABRTJADR           TCF      ABRTJASK
000129:
000130: 05,3423           33503        ABRTJASK           CAF      OCTAL27
000131: 05,3424           60002                           AD       Q
000132: 05,3425           54001                           TS       L
000133: 05,3426           40000                           COM
000134: 05,3427           52760                           DXCH     -PHASE4
000135: 05,3430           50002                           INDEX    Q
000136: 05,3431           33502                           CAF      MODE70
000137: 05,3432           55010                           TS       MODREG
000138:
000139: 05,3433           55162                           TS       DISPDEX                               #  INSURE DISPDEX IS POSITIVE.
000140:
000141: 05,3434           10002                           CCS      Q                                     #  SET APSFLAG IF P71.
000142: 05,3435           40106                           CS       FLGWRD10                              #  SET APSFLAG PRIOR TO THE ENEMA.
000143: 05,3436           74730                           MASK     APSFLBIT
000144: 05,3437           26106                           ADS      FLGWRD10
000145: 05,3440           43505                           CS       DAPBITS                               #  DAPBITS = OCT 40640 = BITS 6,8,9,15
000146: 05,3441           70111                           MASK     DAPBOOLS                              #  RESET ULLAGE,DRIVT,XOVR11MM,AND PULSES
000147: 05,3442           54111                           TS       DAPBOOLS
000148:
000149: 05,3443           33506                           CAF      1DEGDB                                #  INSURE DAP DEADBAND IS SET TO 1 DEGREE
000150: 05,3444           55343                           TS       DB
000151:
000152: 05,3445           40101                           CS       FLAGWRD5                              #  SET ENGONFLG.
000153: 05,3446           74736                           MASK     ENGONBIT
000154: 05,3447           26101                           ADS      FLAGWRD5
000155:
000156: 05,3450           44346                           CS       PRIO30                                #  INSURE THAT THE ENGINE IS ON, IF ARMED.
000157: 05,3451           00006                           EXTEND
000158: 05,3452           02011                           RAND     DSALMOUT
000159: 05,3453           64730                           AD       BIT13
000160: 05,3454           00006                           EXTEND
000161: 05,3455           01011                           WRITE    DSALMOUT
000162:
000163: 05,3456           34726                           CAF      LRBYBIT                               #  TERMINATE R12.
000164: 05,3457           54107                           TS       FLGWRD11
000165:
000166: 05,3460           40074                           CS       FLAGWRD0                              #  SIGNAL THE LAD TO DISPLAY LATVEL IN
000167: 05,3461           74743                           MASK     R10FLBIT                              #    INERTIAL COORDINATES AND FORVEL ZERO
000168: 05,3462           26074                           ADS      FLAGWRD0
000169:
000170: 05,3463           00006                           EXTEND                                         #  LOAD TEVENT FOR THE DOWNLINK.
000171: 05,3464           30025                           DCA      TIME2
000172: 05,3465           53342                           DXCH     TEVENT
000173:


000175: 05,3466           00006                           EXTEND
000176: 05,3467           33501                           DCA      SVEXITAD
000177: 05,3470           53252                           DXCH     AVGEXIT
000178:
000179: 05,3471           02657                           TC       ABTKLEAN                              #  KILL GROUPS 1,3, AND 6.
000180:
000181: 05,3472           36266                           CAF      THREE                                 #  SET UP 4.3SPOT FOR GOABORT
000182: 05,3473           54001                           TS       L
000183: 05,3474           40000                           COM
000184: 05,3475           52760                           DXCH     -PHASE4
000185:
000186: 05,3476           04626                           TC       POSTJUMP
000187: 05,3477           12767                           CADR     ENEMA
000188:
000189: 05,3500  E7,1515                                  EBANK=   DVCNTR
000190: 05,3500           03656 64067  SVEXITAD           2CADR    SERVEXIT
000191:
000192: 05,3502           00106        MODE70             DEC      70         B-14
000193: 05,3503           00027        OCTAL27            OCT      27
000194: 05,3504           00107        MODE71             DEC      71         B-14
000195:
000196: 05,3505           40640        DAPBITS            OCT      40640
000197:
000198: 05,3506           00554        1DEGDB             OCT      00554
000199: 32,3443                                           BANK     32
000200: 32,2000                                           SETLOC   ABORTS
000201: 32,2000                                           BANK
000202:
000203: 32,3443                                           COUNT*   $$/P70
000204:
000205: 32,3443           34742        GOABORT            CAF      FOUR
000206: 32,3444           55515                           TS       DVCNTR
000207:
000208: 32,3445           33653                           CAF      WHICHADR
000209: 32,3446           55455                           TS       WHICH
000210:
000211: 32,3447           06060                           TC       INTPRET
000212: 32,3450           43014                           CLEAR    CLEAR
000213: 32,3451           04665                                    FLRCS
000214: 32,3452           04265                                    FLUNDISP
000215: 32,3453           43014                           CLEAR    SET
000216: 32,3454           03670                                    IDLEFLAG
000217: 32,3455           06464                                    ACC4-2FL
000218: 32,3456           45014                           SET      CALL
000219: 32,3457           04462                                    P7071FLG
000220: 32,3460           61063                                    INITCDUW
000221: 32,3461           77776                           EXIT
000222:
000223: 32,3462           05323                           TC       CHECKMM
000224: 32,3463           00106        70DEC              DEC      70         B-14


000226: 32,3464           13577                           TCF      P71RET
000227:
000228: 32,3465           06060        P70INIT            TC       INTPRET
000229: 32,3466           77624                           CALL
000230: 32,3467           65626                                    TGOCOMP
000231: 32,3470           54345                           DLOAD    SL
000232: 32,3471           34003                                    MDOTDPS
000233: 32,3472           20205                                    4D
000234: 32,3473           77665                           BDDV
000235: 32,3474           01244                                    MASS
000236: 32,3475           16262                           STODL    TBUP
000237: 32,3476           01244                                    MASS
000238: 32,3477           70471                           DDV      SR1
000239: 32,3500           16015                                    K(1/DV)
000240: 32,3501           03635                           STORE    1/DV1
000241: 32,3502           03637                           STORE    1/DV2
000242: 32,3503           03641                           STORE    1/DV3
000243: 32,3504           77665                           BDDV
000244: 32,3505           25652                                    K(AT)
000245: 32,3506           16254                           STODL    AT
000246: 32,3507           34015                                    100PCTTO
000247: 32,3510           02260                           STORE    TTO
000248: 32,3511           57535                           SLOAD    DCOMP
000249: 32,3512           26002                                    DPSVEX
000250: 32,3513           77702                           SR2
000251: 32,3514           36256                           STCALL   VE
000252: 32,3515           60267                                    COMMINIT
000253: 32,3516           77745        INJTARG            DLOAD
000254: 32,3517           02564                                    ABTRDOT
000255: 32,3520           36264                           STCALL   RDOTD                                 #  INITIALZE RDOTD.
000256: 32,3521           57315                                    YCOMP                                 #  COMPUTE Y
000257: 32,3522           45246                           ABS      DSU
000258: 32,3523           02562                                    YLIM                                  #  /Y/-DYMAX
000259: 32,3524           75240                           BMN      SIGN                                  #  IF <0, XR<.5DEG, LEAVE YCO AT 0
000260: 32,3525           65530                                    YOK                                   #  IF >0, FIX SIGN OF DEFICIT, THIS IS YCO.
000261: 32,3526           02326                                    Y
000262: 32,3527           03633                           STORE    YCO
000263: 32,3530           45345        YOK                DLOAD    DSU
000264: 32,3531           03633                                    YCO
000265: 32,3532           02326                                    Y
000266: 32,3533           77661                           SR
000267: 32,3534           20606                                    5D
000268: 32,3535           03643                           STORE    XRANGE
000269: 32,3536           45014                           SET      CALL
000270: 32,3537           04461                                    FLVR
000271: 32,3540           71650                                    THETCOMP
000272: 32,3541           51025                           DSU      BPL
000273: 32,3542           02556                                    THETCRIT
000274: 32,3543           65547                                    +4
000275: 32,3544           52175                           VLOAD    GOTO


000277: 32,3545           02546                                    J1PARM
000278: 32,3546           65552                                    STORPARM
000279: 32,3547           43175                 +4        VLOAD    SET                                   #  IF J2 IS USED, SET THE
000280: 32,3550           02552                                    J2PARM                                #  ABORT TARGETING FLAG
000281: 32,3551           04470                                    ABTTGFLG
000282: 32,3552           16572        STORPARM           STODL    JPARM
000283: 32,3553           03631                                    RCO
000284: 32,3554           02576                           STORE    RP
000285: 32,3555           77414                           SET      EXIT
000286: 32,3556           04471                                    ROTFLAG
000287:
000288: 32,3557           03635        UPTHROT            TC       THROTUP
000289:
000290: 32,3560           05355                           TC       PHASCHNG
000291: 32,3561           04024                           OCT      04024
000292:
000293: 32,3562           05506                           TC       UPFLAG
000294: 32,3563           00216                           ADRES    FLAP
000295:
000296: 32,3564           04607        UPTHROT1           TC       BANKCALL                              #  VERIFY THAT THE PANEL SWITCHES
000297: 32,3565           73710                           CADR     P40AUTO                               #  ARE PROPERLY SET.
000298:
000299: 32,3566           03635                           TC       THROTUP
000300:
000301: 32,3567           35020                           CAF      PRIO17                                #  LET SERVICER FINISH BEFORE CONNECTING
000302: 32,3570           05137                           TC       PRIOCHNG                              #      ASCENT GUIDANCE EQUATIONS.
000303:
000304: 32,3571           00006                           EXTEND
000305: 32,3572           33655                           DCA      ATMAGAD
000306: 32,3573           53252                           DXCH     AVGEXIT
000307:
000308: 32,3574           05355        GRP4OFF            TC       PHASCHNG                              #  TERMINATE USE OF GROUP 4.
000309: 32,3575           00004                           OCT      00004
000310:
000311: 32,3576           15146                           TCF      ENDOFJOB
000312:
000313: 32,3577           05520        P71RET             TC       DOWNFLAG
000314: 32,3600           00215                           ADRES    LETABORT
000315:
000316: 32,3601           36000                           CAF      THRESH2                               #  SET DVMON THRESHOLD TO THE ASCENT VALUE.
000317: 32,3602           55250                           TS       DVTHRUSH
000318:
000319: 32,3603           06060                           TC       INTPRET
000320: 32,3604           77624                           CALL
000321: 32,3605           60243                                    P12INIT
000322: 32,3606           45014                           BON      CALL
000323: 32,3607           04707                                    FLAP
000324: 32,3610           65614                                    OLDTIME
000325: 32,3611           65626                                    TGOCOMP                               #  IF FLAP=0, TGO=T-TIG
000326: 32,3612           77650                           GOTO


000328: 32,3613           65516                                    INJTARG
000329: 32,3614           72545        OLDTIME            DLOAD    SL1                                   #  IF FLAP=1,GTO=2 TGO
000330: 32,3615           03517                                    TGO
000331: 32,3616           03502                           STORE    TGO1
000332: 32,3617           77776                           EXIT
000333:
000334: 32,3620           05355                           TC       PHASCHNG
000335: 32,3621           04024                           OCT      04024
000336:
000337: 32,3622           00006                           EXTEND
000338: 32,3623           31502                           DCA      TGO1
000339: 32,3624           53517                           DXCH     TGO
000340: 32,3625           13564                           TCF      UPTHROT1
000341:
000342:                                                                                                  #  ***********************************************************************
000343:
000344: 21,2150                                           BANK     21
000345: 21,2000                                           SETLOC   R11
000346: 21,2000                                           BANK
000347:
000348: 21,2150                                           COUNT*   $$/P70
000349:
000350: 21,2150           40774        LEGAL?             CS       MMNUMBER                              #  IS THE DESIRED PGM ALREADY IN PROGRESS?
000351: 21,2151           61010                           AD       MODREG
000352: 21,2152           00006                           EXTEND
000353: 21,2153           12164                           BZF      ABORTALM
000354:
000355: 21,2154           40105                           CS       FLAGWRD9                              #  ARE THE ABORTS ENABLED?
000356: 21,2155           74734                           MASK     LETABBIT
000357: 21,2156           10000                           CCS      A
000358: 21,2157           12164                           TCF      ABORTALM
000359:
000360: 21,2160           30103                           CA       FLAGWRD7                              #  IS SERVICER ON THE A1R7
000361: 21,2161           74740                           MASK     AVEGFBIT
000362: 21,2162           10000                           CCS      A
000363: 21,2163           00002                           TC       Q                                     #  YES.  ALL IS WELL.
000364: 21,2164           04355        ABORTALM           TC       FALTON
000365: 21,2165           04450                           TC       RELDSP
000366: 21,2166           04626                           TC       POSTJUMP
000367: 21,2167           21062                           CADR     PINBRNCH
000368:
000369: 32,3626                                           BANK     32
000370: 32,2000                                           SETLOC   ABORTS
000371: 32,2000                                           BANK
000372:
000373: 32,3626                                           COUNT*   $$/P70
000374:
000375:                                                                                                  #  ***********************************************************************
000376:
000377: 32,3626           45234        TGOCOMP            RTB      DSU


000379: 32,3627           21603                                    LOADTIME
000380: 32,3630           03442                                    TIG
000381: 32,3631           77661                           SL
000382: 32,3632           20214                                    11D
000383: 32,3633           03517                           STORE    TGO
000384: 32,3634           77616                           RVQ
000385:
000386:                                                                                                  #  ***********************************************************************
000387:
000388: 32,3635           34730        THROTUP            CAF      BIT13
000389: 32,3636           54055                           TS       THRUST
000390: 32,3637           34741                           CAF      BIT4
000391: 32,3640           00006                           EXTEND
000392: 32,3641           05014                           WOR      CHAN14
000393: 32,3642           00002                           TC       Q
000394:
000395:                                                                                                  #  ***********************************************************************
000396:
000397: 32,3643           00000 01750  10SECS             2DEC     1000       B-28
000398:
000399: 32,3645           00021 33400  HINJECT            2DEC     18288      B-24                       #  60,000 FEET EXPRESSED IN METERS.
000400:
000401: 32,3647           11021 00000  (TGO)A             2DEC     37000      B-17
000402:
000403: 32,3651           00507 25605  K(AT)              2DEC     .02                                   #  SCALING CONSTANT
000404:
000405: 32,3653           02114        WHICHADR           REMADR   ABRTABLE
000406:
000407:                                                                                                  #  ************************************************************************
000408:
000409: 32,3654  E7,1515                                  EBANK=   DVCNTR
000410: 32,3654           03375 70067  ATMAGAD            2CADR    ATMAG

End of include-file P70-P71.agc.  Parent file is MAIN.agc


