
Source Code


000002:                                                                                                  ## Copyright:   Public domain.
000003:                                                                                                  ## Filename:    P76.agc
000004:                                                                                                  ## Purpose:     A section of Luminary revision 210.
000005:                                                                                                  ##              It is part of the source code for the Lunar Module's (LM)
000006:                                                                                                  ##              Apollo Guidance Computer (AGC) for Apollo 15-17.
000007:                                                                                                  ##              This file is intended to be a faithful transcription, except
000008:                                                                                                  ##              that the code format has been changed to conform to the
000009:                                                                                                  ##              requirements of the yaYUL assembler rather than the
000010:                                                                                                  ##              original YUL assembler.
000011:                                                                                                  ## Reference:   pp. 711-714
000012:                                                                                                  ## Assembler:   yaYUL
000013:                                                                                                  ## Contact:     Ron Burkey <info@sandroid.org>.
000014:                                                                                                  ## Website:     www.ibiblio.org/apollo/index.html
000015:                                                                                                  ## Mod history: 2016-11-17 JL   Created from Luminary131 version.
000016:                                                                                                  ##              2016-12-01 RSB  Completed.
000017:                                                                                                  ##              2016-12-01 HG   Add missing instructions for INTADR, UPDATADR
000018:                                                                                                  ##                              fix operand GOTOPOOH  -> GOTOP00H
000019:                                                                                                  ##              2016-12-07 HG   'unfix' and revert P00 -> POO
000020:                                                                                                  ##              2016-12-11 HG   Fix operand -5 -> -6
000021:                                                                                                  ##              2016-12-25 RSB  Comment-text proofed using ProoferComments
000022:                                                                                                  ##                              and corrected errors found.
000023:
000024:


000026:                                                                                                  #  1) PROGRAM NAME - TARGET DELTA V PROGRAM (P76).
000027:                                                                                                  #  2) FUNCTIONAL DESCRIPTION - UPON ENTRY BY ASTRONAUT ACTION, P76 FLASHES DSKY REQUESTS TO THE ASTRONAUT
000028:                                                                                                  #           TO PROVIDE VIA DSKY (1) THE DELTA V TO BE APPLIED TO THE OTHER VEHICLE STATE VECTOR AND (2) THE
000029:                                                                                                  #           TIME (TIG) AT WHICH THE OTHER VEHICLE VELOCITY WAS CHANGED BY  EXECUTION OF A THRUSTING MANEUVER. THE
000030:                                                                                                  #           OTHER VEHICLE STATE VECTOR IS INTEGRATED TO TIG AND UPDATED BY THE ADDITION OF DELTA V (DELTA V HAVING
000031:                                                                                                  #           BEEN TRANSFORMED FROM LV TO REF COSYS).  USING INTEGRVS, THE   PROGRAM THEN INTEGRATES THE OTHER
000032:                                                                                                  #  VEHICLE STATE VECTOR TO THE STATE VECTOR OF THIS VEHICLE, THUS INSURING THAT THE W-MATRIX AND BOTH VEHICLE
000033:                                                                                                  #  STATES CORRESPOND TO THE SAME TIME.
000034:                                                                                                  #  3) ERASABLE INITIALIZATION REQUIRED - NONE.
000035:                                                                                                  #  4) CALLING SEQUENCES AND EXIT MODES - CALLED BY ASTRONAUT REQUEST THRU DSKY V 37 E 76 E.
000036:                                                                                                  #           EXITS BY TCF ENDOFJOB.
000037:                                                                                                  #  5) OUTPUT - OTHER VEHICLE STATE VECTOR INTEGRATED TO TIG AND INCREMENTED BY DELTA V IN REF COSYS.
000038:                                                                                                  #           THE PUSHLIST CONTAINS THE MATRIX BY WHICH THE INPUT DELTA V MUST BE POST-MULTIPLIED TO CONVERT FROM LV
000039:                                                                                                  #           TO REF COSYS.
000040:                                                                                                  #  6) DEBRIS - OTHER VEHICLE STATE VECTOR.
000041:                                                                                                  #  7) SUBROUTINES CALLED - BANKCALL,GOXDSPF,CSMPREC (OR LEMPREC),ATOPCSM (OR ATOPLEM),INTSTALL,INTWAKE, PHASCHNG
000042:                                                                                                  #           INTPRET, INTEGRVS, AND MINIRECT.
000043:
000044:                                                                                                  #  8) FLAG USE - MOONFLAG,CMOONFLAG,INTYPFLG,RASFLAG, AND MARKCTR.
000045:
000046: 30,2061                                           BANK     30
000047: 13,2000                                           SETLOC   P76LOC
000048: 13,2000                                           BANK
000049:
000050: 13,2207                                           COUNT*   $$/P76
000051:
000052: 13,2207  E7,1441                                  EBANK=   TIG
000053:
000054: 13,2207           31010        P76ER77            CA       MODREG
000055: 13,2210           74744                           MASK     BIT1
000056: 13,2211           55235                           TS       OPTFLAG                               #  OPTFLAG = 0  CM (P76)
000057: 13,2212           05506                           TC       UPFLAG                                #          = 1  LM (P77)
000058: 13,2213           00031                           ADRES    TRACKFLG
000059:
000060: 13,2214           06060                           TC       INTPRET
000061: 13,2215           77775                           VLOAD
000062: 13,2216           03434                                    DELVLVC
000063: 13,2217           01251                           STORE    DELVOV
000064: 13,2220           77776                           EXIT
000065:
000066: 13,2221           32356                           CAF      V06N3376
000067: 13,2222           04607                           TC       BANKCALL                              #  AND WAIT FOR KEYBOARD ACTION.
000068: 13,2223           20471                           CADR     GOFLASH
000069: 13,2224           12351                           TCF      ENDP76
000070: 13,2225           02227                           TC       +2                                    #  PROCEED
000071: 13,2226           02221                           TC       -5                                    #  STORE DATA AND REPEAT FLASHING
000072: 13,2227           05355                           TC       PHASCHNG
000073: 13,2230           04024                           OCT      04024
000074: 13,2231           51235                           INDEX    OPTFLAG
000075: 13,2232           32354                           CAF      V06N84                                #  FLASH V06 N84 (OR N81), LAST DELTV,


000077: 13,2233           04607                           TC       BANKCALL                              #  AND WAIT FOR KEYBOARD ACTION.
000078: 13,2234           20471                           CADR     GOFLASH
000079: 13,2235           12351                           TCF      ENDP76
000080: 13,2236           02240                           TC       +2
000081: 13,2237           02231                           TC       -6                                    #  STORE DATA & REPEAT FLASHING DSP
000082: 13,2240           06060                           TC       INTPRET                               #  RETURN TO INTERPRETIVE CODE
000083: 13,2241           43145                           DLOAD    SET
000084: 13,2242           03442                                    TIG
000085: 13,2243           01076                                    NODOFLAG
000086: 13,2244           00041                           STORE    TDEC1
000087: 13,2245           77711                           CCALL
000088: 13,2246           01236                                    OPTFLAG
000089: 13,2247           26357                                    INTADR
000090: 13,2250           53575        COMPMAT            VLOAD    UNIT
000091: 13,2251           00001                                    RATT
000092: 13,2252           77676                           VCOMP                                          #  U(-R)
000093: 13,2253           00031                           STORE    24D                                   #  U(-R) TO 24D
000094: 13,2254           53435                           VXV      UNIT                                  #  U(-R) X V = U(V X R)
000095: 13,2255           00007                                    VATT
000096: 13,2256           00023                           STORE    18D
000097: 13,2257           53435                           VXV      UNIT                                  #  U(V X R) X U(-R) = U((R X V) X R)
000098: 13,2260           00031                                    24D
000099: 13,2261           00015                           STORE    12D
000100: 13,2262           46135                           SLOAD    BHIZ
000101: 13,2263           01236                                    OPTFLAG
000102: 13,2264           26270                                    +4
000103: 13,2265           77775                           VLOAD
000104: 13,2266           03434                                    DELVLVC                               #  FROM CM
000105: 13,2267           01251                           STORE    DELVOV
000106: 13,2270           77775                           VLOAD
000107: 13,2271           01251                                    DELVOV                                #  FROM LM
000108: 13,2272           76505        DVTRANS            VXM      VSL1                                  #  V(MPAC)=DELTA V IN REFCOSYS
000109: 13,2273           00015                                    12D
000110: 13,2274           77655                           VAD
000111: 13,2275           00007                                    VATT
000112: 13,2276           00007                           STORE    6                                     #  V(PD6)=VATT + DELTA V
000113: 13,2277           77624                           CALL                                           #  PREVENT WOULD-BE USER OF ORBITAL
000114: 13,2300           27447                                    INTSTALL                              #  INTEG FROM INTERFERING WITH UPDATING
000115: 13,2301           77624                           CALL
000116: 13,2302           26363                                    P76SUB1
000117: 13,2303           53775                           VLOAD    VSR*
000118: 13,2304           00007                                    6
000119: 13,2305           57176                                    0,2
000120: 13,2306           25543                           STOVL    VCV
000121: 13,2307           00001                                    RATT
000122: 13,2310           77657                           VSR*
000123: 13,2311           57176                                    0,2
000124: 13,2312           15535                           STODL    RCV
000125: 13,2313           03442                                    TIG
000126: 13,2314           01517                           STORE    TET


000128: 13,2315           71214                           CLEAR    DLOAD
000129: 13,2316           01673                                    INTYPFLG
000130: 13,2317           01643                                    TETTHIS
000131: 13,2320           34041        INTOTHIS           STCALL   TDEC1
000132: 13,2321           27145                                    INTEGRVS
000133: 13,2322           77624                           CALL
000134: 13,2323           27447                                    INTSTALL
000135: 13,2324           77775                           VLOAD
000136: 13,2325           00017                                    RATT1
000137: 13,2326           01503                           STORE    RRECT
000138: 13,2327           15535                           STODL    RCV
000139: 13,2330           00015                                    TAT
000140: 13,2331           25517                           STOVL    TET
000141: 13,2332           00025                                    VATT1
000142: 13,2333           77624                           CALL
000143: 13,2334           27734                                    MINIRECT
000144: 13,2335           77776                           EXIT
000145: 13,2336           05355                           TC       PHASCHNG
000146: 13,2337           04024                           OCT      04024
000147:
000148: 13,2340           06060                           TC       INTPRET
000149: 13,2341           62214                           SET      CCALL
000150: 13,2342           05070                                    REINTFLG
000151: 13,2343           01236                                    OPTFLAG
000152: 13,2344           26361                                    UPDATADR
000153: 13,2345           77624                           CALL
000154: 13,2346           27456                                    INTWAKE0
000155: 13,2347           77414        OUT                CLEAR    EXIT                                  #  ALLOW V37.  NO NEED TO CLEAR NODOFLAG AT
000156: 13,2350           01276                                    NODOFLAG                              #   ENDP76 SINCE FLAG NOT SET WHEN DISPLAY
000157:                                                                                                  #   RESPONSES TRANSFER THERE FROM P76+.
000158: 13,2351           34746        ENDP76             CAF      ZERO
000159: 13,2352           55462                           TS       MARKCTR                               #  CLEAR RR TRACKING MARK COUNTER
000160: 13,2353           16001                           TCF      GOTOPOOH
000161:
000162: 13,2354           01524        V06N84             NV       0684
000163: 13,2355           01521                           NV       0681
000164: 13,2356           01441        V06N3376           NV       0633
000165: 13,2357           27101        INTADR             CADR     OTHPREC
000166: 13,2360           27115                           CADR     THISPREC
000167: 13,2361           26717        UPDATADR           CADR     ATOPOTH
000168: 13,2362           26772                           CADR     ATOPTHIS
000169: 13,2363           43174        P76SUB1            AXT,2    SET
000170: 13,2364           00002                                    2
000171: 13,2365           00063                                    MOONFLAG                              #  SET MEANS MOON IS SPHERE OF INFLUENCE.
000172: 13,2366           77014                           BON      AXT,2
000173: 13,2367           04303                                    CMOONFLG                              #  SET MEANS PERM CM STATE IN LUNAR SPHERE.
000174: 13,2370           00052                                    QPRET
000175: 13,2371           00000                                    0
000176: 13,2372           43414                           CLEAR    RVQ
000177: 13,2373           00263                                    MOONFLAG
000178:


000181:
000182:

End of include-file P76.agc.  Parent file is MAIN.agc


