
Source Code


000002:                                                                                                  ## Copyright:   Public domain.
000003:                                                                                                  ## Filename:    PHASE_TABLE_MAINTENANCE.agc
000004:                                                                                                  ## Purpose:     A section of Luminary revision 210.
000005:                                                                                                  ##              It is part of the source code for the Lunar Module's (LM)
000006:                                                                                                  ##              Apollo Guidance Computer (AGC) for Apollo 15-17.
000007:                                                                                                  ##              This file is intended to be a faithful transcription, except
000008:                                                                                                  ##              that the code format has been changed to conform to the
000009:                                                                                                  ##              requirements of the yaYUL assembler rather than the
000010:                                                                                                  ##              original YUL assembler.
000011:                                                                                                  ## Reference:   pp. 1291-1299
000012:                                                                                                  ## Assembler:   yaYUL
000013:                                                                                                  ## Contact:     Ron Burkey <info@sandroid.org>.
000014:                                                                                                  ## Website:     www.ibiblio.org/apollo/index.html
000015:                                                                                                  ## Mod history: 2016-11-17 JL   Created from Luminary131 version.
000016:                                                                                                  ##              2016-11-18 MAS  Transcribed.
000017:                                                                                                  ##              2016-11-27 HG   fix operand  PHASETAB1 -> PHASTAB1
000018:                                                                                                  ##              2016-12-26 RSB  Comment-text proofed using ProoferComments
000019:                                                                                                  ##                              and corrected errors found.
000020:                                                                                                  ##              2017-03-16 RSB  Comment-text fixes identified in 5-way
000021:                                                                                                  ##                              side-by-side diff of Luminary 69/99/116/131/210.
000022:                                                                                                  ##              2017-06-17 MAS  Globally removed all SBANK= workarounds.
000023:


000025:                                                                                                  #           SUBROUTINE TO UPDATE THE PROGRAM NUMBER DISPLAY ON THE DSKY.
000026:
000027: 43,3727                                           COUNT*   $$/PHASE
000028:    5313                                           BLOCK    02
000029:    4000                                           SETLOC   FFTAG1
000030:    4000                                           BANK
000031:
000032:    5313           50002        NEWMODEX           INDEX    Q                                     #  UPDATE MODREG. ENTRY FOR MODE IN FIXED.
000033:    5314           30000                           CAF      0
000034:    5315           24002                           INCR     Q
000035:
000036:    5316           55010        NEWMODEA           TS       MODREG                                #  ENTRY FOR MODE IN A.
000037:    5317           35322        MMDSPLAY           CAF      +3                                    #  DISPLAY MAJOR MODE.
000038:    5320           22006        PREBJUMP           LXCH     BBANK                                 #  PUTS BBANK IN L
000039:    5321           14631                           TCF      BANKJUMP                              #  PUTS Q INTO A
000040:    5322           31754                           CADR     SETUPDSP
000041:
000042:                                                                                                  #           RETURN TO CALLER +3 IF MODE = THAT AT CALLER +1. OTHERWISE RETURN TO CALLER +2.
000043:
000044:    5323           50002        CHECKMM            INDEX    Q
000045:    5324           40000                           CS       0
000046:    5325           61010                           AD       MODREG
000047:    5326           00006                           EXTEND
000048:    5327           16762                           BZF      Q+2
000049:    5330           16760                           TCF      Q+1                                   #  NO MATCH
000050:
000051:    5331     6763               TCQ                =        Q+2        +1
000052:
000053: 14,2000                                           SETLOC   PHASTAB1
000054: 14,2000                                           BANK
000055:
000056: 14,3754                                           COUNT*   $$/PHASE
000057: 14,3754           00004        SETUPDSP           INHINT
000058: 14,3755           52071                           DXCH     RUPTREG1                              #  SAVE CALLER-S RETURN 2CADR
000059: 14,3756           34346                           CAF      PRIO30                                #    EITHER A TASK OR JOB CAN COME TO
000060: 14,3757           05063                           TC       NOVAC                                 #    NEWMODE X
000061: 14,3760     1010                                  EBANK=   MODREG
000062: 14,3760           03572 60102                     2CADR    DSPMMJOB
000063:
000064: 14,3762           52071                           DXCH     RUPTREG1
000065: 14,3763           00003                           RELINT
000066: 14,3764           52006                           DXCH     Z                                     #  RETURN
000067:
000068: 14,3765  40,3572               DSPMMJOB           EQUALS   DSPMMJB
000069:
000070:
000071:    5331                                           BLOCK    02
000072:    4000                                           SETLOC   FFTAG1
000073:    4000                                           BANK


000075:                                                                                                  #  PHASCHNG IS THE MAIN WAY OF MAKING PHASE CHANGES FOR RESTARTS.  THERE ARE THREE FORMS OF PHASCHNG, KNOWN AS TYPE
000076:                                                                                                  #  A, TYPE B, AND TYPE C. THEY ARE ALL CALLED AS FOLLOWS, WHERE OCT XXXXX   CONTAINS THE PHASE INFORMATION,
000077:
000078:                                                                                                  #                                                   TC     PHASCHNG
000079:                                                                                                  #                                                   OCT    XXXXX
000080:
000081:                                                                                                  #  TYPE A IS CONCERNED WITH FIXED PHASE CHANGES, THAT IS, PHASE INFORMATIONTHAT IS STORED PERMANENTLY.  THESE
000082:                                                                                                  #  OPTIONS ARE, WHERE G STANDS FOR A GROUP AND .X FOR THE PHASE,
000083:
000084:                                                                                                  #                  G.0             INACTIVE, WILLNOT PERMIT A GROUP G RESTART
000085:                                                                                                  #                  G.1             WILL CAUSE THE LAST DISPLAY TO BE REACTIVATED, USED MAINLY IN MANNED FLIGHTS
000086:                                                                                                  #                  G.EVEN          A DOUBLE TABLE RESTART, CAN CAUSE ANY COMBINATION OF TWO JOBS, TASKS, AND/OR
000087:                                                                                                  #                                  LONGCALL TO BE RESTARTED.
000088:                                                                                                  #                  G.ODD NOT .1    A SINGLE TABLE RESTART, CAN CAUSE EITHER A JOB, TASK, OR LONGCALL RESTART
000089:
000090:                                                                                                  #  THIS INFORMATION IS PUT INTO THE OCTAL WORD AFTER TC PHASCHNG AS FOLLOWS
000091:
000092:                                                                                                  #                  TL0 00P PPP PPP GGG                                     ,
000093:
000094:                                                                                                  #  WHERE EACH LETTER OR NUMBER STANDS FOR A BIT.  THE G:S STAND FOR THE GROUP, OCTAL 1 - 7, THE P:S FOR THE PHASE,
000095:                                                                                                  #  OCTAL 0 - 127.  0:S MUST BE 0.              IF ONE WISHES TO HAVE THE TBASE OF GROUP G TO BE SET AT THIS TIME,
000096:                                                                                                  #  T IS SET TO 1, OTHERWISE IT IS SET TO 0.  SIMIARLY IF ONE WISHES TO SET LONGBASE, THEN L IS SET TO 1, OTHERWISE
000097:                                                                                                  #  IT IS SET TO 0.  SOME EXAMPLES,
000098:
000099:                                                                                                  #                                                   TC     PHASCHNG        THIS WILL CAUSE GROUP 3 TOBE SET TO 0,
000100:                                                                                                  #                                                   OCT    00003           MAKING GROUP 3 INACTIVE
000101:
000102:                                                                                                  #                                                   TC     PHASCHNG        IF A RESTART OCCURS THIS WOULD CAUSE
000103:                                                                                                  #                                                   OCT    00012           GROUP 2 TO RESTART THE LAST DISPLAY
000104:
000105:                                                                                                  #                                                   TC     PHASCHNG        THIS SETS THE TBASE OF GROUP 4 AND IN
000106:                                                                                                  #                                                   OCT    40064           CASE OF A RESTART WOULD START UP THE TWO
000107:                                                                                                  #                                                                          THINGS LOCATED IN THE DOUBLE 4.6 RESTART
000108:                                                                                                  #                                                                          LOCATION
000109:                                                                                                  #                                                   TC     PHASCHNG        THIS SETS LONGBASE AND UPON A RESTART
000110:                                                                                                  #                                                   OCT    20135           CAUSES 5.13 TO BE RESTARTED  (SINCE
000111:                                                                                                  #                                                                          LONGBASE WAS SET THIS SINGLE ENTRY
000112:                                                                                                  #                                                                          SHOULD BE A LONGCALL)
000113:                                                                                                  #                                                   TC     PHASCHNG        SINCE BOTH TBASE4 AND LONGBASE ARE SET,
000114:                                                                                                  #                                                   OCT    60124           4.12 SHOULD CONTAIN BOTH A TASK AND A
000115:                                                                                                  #                                                                          LONGCALL TO BE RESTARTED
000116:
000117:                                                                                                  #  TYPE C PHASCHNG CONTAINS THE VARIABLE TYPE OF PHASCHNG INFORMATION. INSTEAD OF THE INFORMATION BEING IN A
000118:                                                                                                  #  PERMANENT FORM, ONE STORES THE DESIRED RESTART INFORMATION IN A VARIABKE LOCATION. THE BITS ARE AS FOLLOWS,
000119:
000120:                                                                                                  #                  TL0 1AD XXX CJW GGG
000121:
000122:                                                                                                  #  WHERE EACH LETTER OR NUMBER STANDS FOR A BIT.  THE G:S STAND FOR THE GROUP, OCTAL 1 - 7.  IF THE RESTART IS TO
000123:                                                                                                  #  BE BY WAITLIST, W IS SET TO 1, IF IT IS A JOB, J IS SET TO 1, IF IT IS A LONGCALL, C IS SET TO 1. ONLY ONE OF
000124:                                                                                                  #  THESE THREE BIT S MAY BE SET.  X:S ARE IGNORED  1 MUST BE 1, AND 0 MUST  BE 0.  AGAIN T STANDS FOR THE TBASE,


000126:                                                                                                  #  AND L FOR LONGBASE.  THE BITS A AND D ARE CONCERNED WITH THE VARIABLE INFORMATION. IF D IS SET TO 1, A PRIORITY
000127:                                                                                                  #  OR DELTA TIME WILL BE READ FROM THE NEXT LOCATION AFTER THE OCTAL INFORMATION, IF THIS IS TO BE INDIRECT, THAT
000128:                                                                                                  #  IS, THE NAME OF A LOCATION COMT+INING THE INFORMATION (DELTA TIME ONLY), THEN THIS IS GIVEN AS THE -GENADR OF
000129:                                                                                                  #  THAT LOCATION WHICH CONTAINS THE DELTA TIME.  IF THE OLD PRIORITY OR DELTA TIME IS TO BE USED, THAT WHICH IS
000130:                                                                                                  #  ALREADY IN THE VARIABLE STORAGE, THEN D IS SET TO 0. NEXT THE A BIT IS USED.  IF IT IS SET TO 0, THE ADDRESS
000131:                                                                                                  #  THAT WOULD BE RESTARTED DURING A RESTART IS THE NEXT LOCATION AFTER THE  PHASE INFORMATION, THAT IS, EITHER
000132:                                                                                                  #  (TC PHASCHNG) +2 OR +3, DEPENDING ON WHETHER D HAD BEEN SET OR NOT.  IF A IS SET TO 1, THEN THE ADDRESS THAT
000133:                                                                                                  #  WOULD BE RESTARTED IS THE 2CADR THAT IS READ FROM THE NEXT TWO LOCATIONS.  EXAMPLES,
000134:
000135:                                                                                                  #                                          AD       TC     PHASCHNG        THIS WOULD CAUSE LOCATION AD +3 TO BE
000136:                                                                                                  #                                          AD+1     OCT    05023           RESTARTED BY GROUP THREE WITHA PRIORITY
000137:                                                                                                  #                                          AD+2     OCT    23000           OF 23.  NOTE UPON RETURNING IT WOULD
000138:                                                                                                  #                                          AD+3                            ALSO GO TO AD+3
000139:
000140:                                                                                                  #                                          AD       TC     PHASCHNG        GROUP  1 WOULD CAUSE CAUSE CALLCALL TO
000141:                                                                                                  #                                          AD+1     OCT    27441           BE STARTED AS A LONGCALL FROM THE TIME
000142:                                                                                                  #                                          AD+2    -GENADR DELTIME         STORED IN LONGBASE (LONGBASE WAS SET) BY
000143:                                                                                                  #                                          AD+3     2CADR  CALLCALL        A DELTATIME STORED IN DELTIME.  THE
000144:                                                                                                  #                                          AD+4                            BBCON OF THE 2CADR SHOULD CONTAIN THE E
000145:                                                                                                  #                                          AD+5                            BANK OF DELTIME. PHASCHNG RETURNS TO
000146:                                                                                                  #                                                                          LOCATION AD+5
000147:
000148:                                                                                                  #  NOTE THAT IF A VARIABLE PRIORITY IS GIVEN FOR A JOB, THE JOB WILL BE RESTARTED AS A NOVAC IF THE PRIORITY IS
000149:                                                                                                  #  NEGATIVE, AS A FINDVAC IF THE PRIORITY IS POSITIVE.
000150:
000151:
000152:                                                                                                  #  TYPE B PHASCHNG IS A COMBINATION OF VARIABLE AND FIXED PHASE CHANGES. IT WILL START UP A JOB AS INDICATED
000153:                                                                                                  #  BELOW AND ALSO START UP ONE FIXED RESTART, THAT IS EITHER AN G.1 OR  A G.ODD OR THE FIRST ENTRY OF G.EVEN
000154:                                                                                                  #  DOUBLE ENTRY.  THE BIT INFORMATION IS AS FOLLOWS,
000155:
000156:                                                                                                  #                  TL1 DAP PPP PPP GGG
000157:
000158:                                                                                                  #  WHERE EACH LETTER OR NUMBER STANDS FOR A BIT.  THE G:S STAND FOR THE GROUP, OCTAL 1 - 7. THE P:S FOR THE FIXED
000159:                                                                                                  #  PHASE INFORMATION, OCTAL 0 - 127. 1 MUST BE 1.  AND AGAIN T STANDS FOR THE TBASE AND L FOR LONGBASE. D THIS
000160:                                                                                                  #  TIME STANDS ONLY FOR PRIORITY SINCE THIS WILL BE CONSIDERED A JOB, AND IT MUST BE GIVEN DIRECTLY IF GIVEN.
000161:                                                                                                  #  AGAIN A STANDS FOR THE ADDRESS OF THE LOCATION TO BE RESTARTED, 1 IF THE 2CADR IS GIVEN , OR 0 IF IT IS TO BE
000162:                                                                                                  #  THE NEXT LOCATION.(THE RETURN LOCATION OF PHASCHNG) EXAMPLES,
000163:
000164:                                                                                                  #                                          AD       TC     PHASCHNG        TBASE IS SET AND ARESTART CAUSE GROUP 3
000165:                                                                                                  #                                          AD+1     OCT    56043           TO START THE JOB AJOBAJOB WITH PRIORITY
000166:                                                                                                  #                                          AD+2     OCT    31000           31 AND THE FIRST ENTRY OF 3.4SPOT(WE CAN
000167:                                                                                                  #                                          AD+3     2CADR  AJOBAJOB        ASSUME IT IS A TASK SINCE WE SET TBASE3)
000168:                                                                                                  #                                          AD+4                            UPON RETURN FROM PHASCHNG CONTROL WOULD
000169:                                                                                                  #                                          AD+5                            GO TO AD+5
000170:
000171:                                                                                                  #                                          AD       TC     PHASCHNG        UPON A RESTART THE LAST DISPLAY WOULD BE
000172:                                                                                                  #                                          AD+1     OCT    10015           RESTARTED AND A JOB WITH THE PREVIOUSLY
000173:                                                                                                  #                                          AD+2                            STORED PRIORITY WOULD BE BEGUN AT AD+2
000174:                                                                                                  #                                                                          BY MEANS OF GROUP 5
000175:


000177:                                                                                                  #  THE NOVAC-FINDVAC CHOICE FOR JOBS HOLDS HERE ALSO - NEGATIVE PRIORITY CAUSES A NOVAC CALL, POSITIVE A FINDVAC.
000178:
000179:                                                                                                  #  SUMMARY OF BITS
000180:
000181:                                                                                                  #  TYPE A          TL0 00P PPP PPP GGG
000182:
000183:                                                                                                  #  TYPE B          TL1 DAP PPP PPP GGG
000184:
000185:                                                                                                  #  TYPE C          TL0 1AD XXX CJW GGG
000186:


000188:                                                                                                  #  2PHSCHNG IS USED WHEN ONE WISHES TO START UP A GROUP OR CHANGE A GROUP WHILE UNDER THE CONTROL OF A DIFFERENT
000189:                                                                                                  #  GROUP. FOR EXAMPLE, CHANGE THE PHASE OF GROUP 3 WHILE THE PORTION OF THE PROGRAM IS UNDER GROUP 5. ALL 2PHSCHNG
000190:                                                                                                  #  CALLS ARE MADE IN THE FOLLOWING MANNER,
000191:
000192:                                                                                                  #                                                   TC     2PHSCHNG
000193:                                                                                                  #                                                   OCT    XXXXX
000194:                                                                                                  #                                                   OCT    YYYYY
000195:
000196:                                                                                                  #  WHERE OCT XXXXX MUST BE OF TYPE A AND OCT YYYYY MAY BE OF EITHER TYPE A OR TYPE B OR TYPEC.  THERE IS ONE
000197:                                                                                                  #  DIFFERENCE --- NOTE- IF LONGBASE IS TO BE SET THIS INFORMATION IS GIVEN IN THE OCT YYYYY INFORMATION, IT WILL
000198:                                                                                                  #  BE DISREGARDED IF GIVEN WITH THE OCT XXXXX INFORMATION. A COUPLE OF EXAMPLES MAY HELP,
000199:
000200:                                                                                                  #                                          AD       TC     2PHSCHNG        SET TBASE3 AND IF A RESTART OCCURS START
000201:                                                                                                  #                                          AD+1     OCT    40083           THE TWO ENTRIES IN 3.8 TABLE LOCATION
000202:                                                                                                  #                                          AD+2     OCT    05025           THIS IS OF TYPE C, SET THE JOB TO BE
000203:                                                                                                  #                                          AD+3     OCT    18000           TO BE LOCATION AD+4, WITH A PRIORITY 18,
000204:                                                                                                  #                                          AD+4                            FOR GROUP 5 PHASE INFORMATION
000205:
000206:    5331                                           COUNT*   $$/PHASE
000207:    5331           00004        2PHSCHNG           INHINT                                         #  THE ENTRY FOR A DOUBLE PHASE CHANGE
000208:    5332           50002                           NDX      Q
000209:    5333           30000                           CA       0
000210:    5334           24002                           INCR     Q
000211:    5335           54072                           TS       TEMPP2
000212:
000213:    5336           74750                           MASK     OCT7
000214:    5337           60000                           DOUBLE
000215:    5340           54071                           TS       TEMPG2
000216:
000217:    5341           30072                           CA       TEMPP2
000218:    5342           75021                           MASK     OCT17770                              #  NEED ONLY 1770, BUT WHY GET A NEW CONST.
000219:    5343           00006                           EXTEND
000220:    5344           74731                           MP       BIT12
000221:    5345           56072                           XCH      TEMPP2
000222:
000223:    5346           74726                           MASK     BIT15
000224:    5347           54066                           TS       TEMPSW2                               #  INDICATES WHETHER TO SET TBASE OR NOT
000225:
000226:    5350           50002                           INDEX    Q
000227:    5351           30000                           CA       0
000228:    5352           24002                           INCR     Q
000229:    5353           54065                           TS       TEMPSW
000230:
000231:    5354           15365                           TCF      PHASJUMP
000232:
000233:    5355           00004        PHASCHNG           INHINT                                         #  NORMAL PHASCHNG ENTRY POINT.
000234:    5356           50002                           INDEX    Q
000235:    5357           30000                           CA       0
000236:    5360           24002                           INCR     Q
000237:    5361           00004        PHSCHNGA           INHINT                                         #  FIRST OCTAL PARAMETER IN A.


000239:    5362           54065                           TS       TEMPSW
000240:    5363           34744                           CA       ONE
000241:    5364           54066                           TS       TEMPSW2
000242:    5365           00006        PHASJUMP           EXTEND
000243:    5366           35371                           DCA      ADRPCHN2                              #  OFF TO SWITCHED BANK
000244:    5367           52006                           DTCB
000245:
000246:    5370  E3,1400                                  EBANK=   LST1
000247:    5370           02213 20103  ADRPCHN2           2CADR    PHSCHNG2
000248:
000249:
000250:
000251:    5372           22073        ONEORTWO           LXCH     TEMPBBCN
000252:    5373           22006                           LXCH     BBANK
000253:    5374           22073                           LXCH     TEMPBBCN
000254:
000255:    5375           75015                           MASK     OCT14000                              #  SEE WHAT KIND OF PHASE CHANGE IT IS
000256:    5376           10000                           CCS      A
000257:    5377           17771                           TCF      CHECKB                                #   IT IS OF TYPE :B:
000258:
000259:    5400           30062                           CA       TEMPP
000260:    5401           74736                           MASK     BIT7
000261:    5402           10000                           CCS      A                                     #   SHALL WE USE THE OLD PRIORITY
000262:    5403           15425                           TCF      GETPRIO                               #   NO GET A NEW PRIORITY (OR DELTA T)
000263:
000264:    5404           50061        OLDPRIO            NDX      TEMPG                                 #   USE THE OLD PRIORITY (OR DELTA T)
000265:    5405           31051                           CA       PHSPRDT1   -2
000266:    5406           54070                           TS       TEMPPR
000267:
000268:    5407           30062        CON1               CA       TEMPP                                 #  SEE IF A 2CADR IS GIVEN
000269:    5410           74735                           MASK     BIT8
000270:    5411           10000                           CCS      A
000271:    5412           15431                           TCF      GETNEWNM
000272:
000273:    5413           30002                           CA       Q
000274:    5414           54063                           TS       TEMPNM
000275:    5415           30006                           CA       BB
000276:    5416           00006                           EXTEND                                         #  PICK UP USERS SUPERBANK
000277:    5417           04007                           ROR      SUPERBNK
000278:    5420           54064                           TS       TEMPBB
000279:
000280:    5421           35424        TOCON2             CA       CON2ADR                               #  BACK TO SWITCHED BANK
000281:    5422           22073                           LXCH     TEMPBBCN
000282:    5423           52006                           DTCB
000283:
000284:    5424           02301        CON2ADR            GENADR   CON2
000285:
000286:    5425           50002        GETPRIO            NDX      Q                                     #  DON:T CARE IF DIRECT OR INDIRECT
000287:    5426           30000                           CA       0                                     #  LEAVE THAT DECISION TO RESTARTS
000288:    5427           24002                           INCR     Q                                     #  OBTAIN RETURN ADDRESS


000290:    5430           15406                           TCF      CON1       -1
000291:
000292:    5431           00006        GETNEWNM           EXTEND
000293:    5432           50002                           INDEX    Q
000294:    5433           30001                           DCA      0
000295:    5434           52064                           DXCH     TEMPNM
000296:    5435           34743                           CA       TWO
000297:    5436           26002                           ADS      Q                                     #  OBTAIN RETURN ADDRESS
000298:
000299:    5437           15421                           TCF      TOCON2
000300:
000301:    5440     5015               OCT14000           EQUALS   PRIO14
000302:    5440     0061               TEMPG              EQUALS   ITEMP1
000303:    5440     0062               TEMPP              EQUALS   ITEMP2
000304:    5440     0063               TEMPNM             EQUALS   ITEMP3
000305:    5440     0064               TEMPBB             EQUALS   ITEMP4
000306:    5440     0065               TEMPSW             EQUALS   ITEMP5
000307:    5440     0066               TEMPSW2            EQUALS   ITEMP6
000308:    5440     0070               TEMPPR             EQUALS   RUPTREG1
000309:    5440     0071               TEMPG2             EQUALS   RUPTREG2
000310:    5440     0072               TEMPP2             EQUALS   RUPTREG3
000311:
000312:    5440     0073               TEMPBBCN           EQUALS   RUPTREG4
000313:    5440  0000006               BB                 EQUALS   BBANK
000314:
000315:
000316: 14,3765                                           BANK     14
000317: 10,2000                                           SETLOC   PHASETAB
000318: 10,2000                                           BANK
000319:
000320: 10,2213  E3,1436                                  EBANK=   PHSNAME1
000321: 10,2213                                           COUNT*   $$/PHASE
000322: 10,2213           22073        PHSCHNG2           LXCH     TEMPBBCN
000323: 10,2214           30065                           CA       TEMPSW
000324: 10,2215           74750                           MASK     OCT7
000325: 10,2216           60000                           DOUBLE
000326: 10,2217           54061                           TS       TEMPG
000327:
000328: 10,2220           30065                           CA       TEMPSW
000329: 10,2221           75021                           MASK     OCT17770
000330: 10,2222           00006                           EXTEND
000331: 10,2223           74731                           MP       BIT12
000332: 10,2224           54062                           TS       TEMPP
000333:
000334: 10,2225           30065                           CA       TEMPSW
000335: 10,2226           74101                           MASK     OCT60000
000336: 10,2227           56065                           XCH      TEMPSW
000337: 10,2230           75015                           MASK     OCT14000
000338: 10,2231           10000                           CCS      A


000340: 10,2232           15372                           TCF      ONEORTWO
000341:
000342: 10,2233           30062                           CA       TEMPP                                 #  START STORING THE PHASE INFORMATION
000343: 10,2234           50061                           NDX      TEMPG
000344: 10,2235           54750                           TS       PHASE1     -2
000345:
000346: 10,2236           10066        BELOW1             CCS      TEMPSW2                               #  IS IT A PHASCHNG OR A 2PHSCHNG
000347: 10,2237           12253                           TCF      BELOW2                                #  IT:S A PHASCHNG
000348:
000349: 10,2240           12241                           TCF      +1                                    #  IT:S A 2PHSCHNG
000350: 10,2241           40072                           CS       TEMPP2
000351: 10,2242           22072                           LXCH     TEMPP2
000352: 10,2243           50071                           NDX      TEMPG2
000353: 10,2244           52750                           DXCH     -PHASE1    -2
000354:
000355: 10,2245           10066                           CCS      TEMPSW2
000356: 10,2246           12247                           NOOP                                           #  CAN:T GET HERE
000357: 10,2247           12253                           TCF      BELOW2
000358:
000359: 10,2250           40025                           CS       TIME1
000360: 10,2251           50071                           NDX      TEMPG2
000361: 10,2252           55050                           TS       TBASE1     -2
000362:
000363: 10,2253           10065        BELOW2             CCS      TEMPSW                                #  SEE IF WE SHOULD SET TBASE OR LONGBASE
000364: 10,2254           12267                           TCF      BELOW3                                #  SET LONGBASE ONLY
000365: 10,2255           12272                           TCF      BELOW4                                #  SET NEITHER
000366:
000367: 10,2256           40025                           CS       TIME1                                 #  SET TBASE TO BEGIN WITH
000368: 10,2257           50061                           NDX      TEMPG
000369: 10,2260           55050                           TS       TBASE1     -2
000370:
000371: 10,2261           30065                           CA       TEMPSW                                #   SHALL WE NOW SET LONGBASE
000372: 10,2262           62265                           AD       BIT14COM
000373: 10,2263           10000                           CCS      A
000374: 10,2264           12265                           NOOP                                           #  ***** CANT GET HERE *****
000375: 10,2265           17777        BIT14COM           OCT      17777                                 #  ***** CANT GET HERE *****
000376: 10,2266           12272                           TCF      BELOW4                                #  NO WE NEED ONLY SET TBASE
000377:
000378: 10,2267           00006        BELOW3             EXTEND                                         #  SET LONGBASE
000379: 10,2270           30025                           DCA      TIME2
000380: 10,2271           53151                           DXCH     LONGBASE
000381:
000382: 10,2272           40062        BELOW4             CS       TEMPP                                 #  AND STORE THE FINAL PART OF THE PHASE
000383: 10,2273           50061                           NDX      TEMPG
000384: 10,2274           54747                           TS       -PHASE1    -2
000385:
000386: 10,2275           30002                           CA       Q
000387: 10,2276           22073                           LXCH     TEMPBBCN
000388: 10,2277           00003                           RELINT
000389: 10,2300           52006                           DTCB


000391: 10,2301           22073        CON2               LXCH     TEMPBBCN
000392:
000393: 10,2302           30062                           CA       TEMPP
000394: 10,2303           50061                           NDX      TEMPG
000395: 10,2304           54750                           TS       PHASE1     -2
000396:
000397: 10,2305           30070                           CA       TEMPPR
000398: 10,2306           50061                           NDX      TEMPG
000399: 10,2307           55051                           TS       PHSPRDT1   -2
000400:
000401: 10,2310           00006                           EXTEND
000402: 10,2311           30064                           DCA      TEMPNM
000403: 10,2312           50061                           NDX      TEMPG
000404: 10,2313           53435                           DXCH     PHSNAME1   -2
000405:
000406: 10,2314           12236                           TCF      BELOW1
000407:
000408:    7771                                           BLOCK    03
000409:    6000                                           SETLOC   FFTAG6
000410:    6000                                           BANK
000411:
000412:    7771                                           COUNT*   $$/PHASE
000413:    7771           74731        CHECKB             MASK     BIT12                                 #  SINCE THIS IS OF TYPE B, THIS BIT SHOULD
000414:    7772           10000                           CCS      A                                     #   BE HERE IF WE ARE TO GET A NEW PRIORITY
000415:    7773           15425                           TCF      GETPRIO                               #  IT IS, SO GET NEW PRIORITY
000416:
000417:    7774           15404                           TCF      OLDPRIO                               #  IT ISN:T, USE THE OLD PRIORITY

End of include-file PHASE_TABLE_MAINTENANCE.agc.  Parent file is MAIN.agc


