
Source Code


000002:                                                                                                  ## Copyright:   Public domain.
000003:                                                                                                  ## Filename:    PHASE_TABLE_MAINTENANCE.agc
000004:                                                                                                  ## Purpose:     A section of Luminary revision 210.
000005:                                                                                                  ##              It is part of the source code for the Lunar Module's (LM)
000006:                                                                                                  ##              Apollo Guidance Computer (AGC) for Apollo 15-17.
000007:                                                                                                  ##              This file is intended to be a faithful transcription, except
000008:                                                                                                  ##              that the code format has been changed to conform to the
000009:                                                                                                  ##              requirements of the yaYUL assembler rather than the
000010:                                                                                                  ##              original YUL assembler.
000011:                                                                                                  ## Reference:   pp. 1291-1299
000012:                                                                                                  ## Assembler:   yaYUL
000013:                                                                                                  ## Contact:     Ron Burkey <info@sandroid.org>.
000014:                                                                                                  ## Website:     www.ibiblio.org/apollo/index.html
000015:                                                                                                  ## Mod history: 2016-11-17 JL   Created from Luminary131 version.
000016:                                                                                                  ##              2016-11-18 MAS  Transcribed.
000017:                                                                                                  ##              2016-11-27 HG   fix operand  PHASETAB1 -> PHASTAB1
000018:                                                                                                  ##              2016-12-26 RSB  Comment-text proofed using ProoferComments
000019:                                                                                                  ##                              and corrected errors found.
000020:                                                                                                  ##              2017-03-16 RSB  Comment-text fixes identified in 5-way
000021:                                                                                                  ##                              side-by-side diff of Luminary 69/99/116/131/210.
000022:


000024:                                                                                                  #           SUBROUTINE TO UPDATE THE PROGRAM NUMBER DISPLAY ON THE DSKY.
000025:
000026: 43,3727                                           COUNT*   $$/PHASE
000027:    5313                                           BLOCK    02
000028:    4000                                           SETLOC   FFTAG1
000029:    4000                                           BANK
000030:
000031:    5313           50002        NEWMODEX           INDEX    Q                                     #  UPDATE MODREG. ENTRY FOR MODE IN FIXED.
000032:    5314           30000                           CAF      0
000033:    5315           24002                           INCR     Q
000034:
000035:    5316           55010        NEWMODEA           TS       MODREG                                #  ENTRY FOR MODE IN A.
000036:    5317           35322        MMDSPLAY           CAF      +3                                    #  DISPLAY MAJOR MODE.
000037:    5320           22006        PREBJUMP           LXCH     BBANK                                 #  PUTS BBANK IN L
000038:    5321           14631                           TCF      BANKJUMP                              #  PUTS Q INTO A
000039:    5322           31754                           CADR     SETUPDSP
000040:
000041:                                                                                                  #           RETURN TO CALLER +3 IF MODE = THAT AT CALLER +1. OTHERWISE RETURN TO CALLER +2.
000042:
000043:    5323           50002        CHECKMM            INDEX    Q
000044:    5324           40000                           CS       0
000045:    5325           61010                           AD       MODREG
000046:    5326           00006                           EXTEND
000047:    5327           16762                           BZF      Q+2
000048:    5330           16760                           TCF      Q+1                                   #  NO MATCH
000049:
000050:    5331     6763               TCQ                =        Q+2        +1
000051:
000052: 14,2000                                           SETLOC   PHASTAB1
000053: 14,2000                                           BANK
000054:
000055: 14,3754                                           COUNT*   $$/PHASE
000056: 14,3754           00004        SETUPDSP           INHINT
000057: 14,3755           52071                           DXCH     RUPTREG1                              #  SAVE CALLER-S RETURN 2CADR
000058: 14,3756           34346                           CAF      PRIO30                                #    EITHER A TASK OR JOB CAN COME TO
000059: 14,3757           05063                           TC       NOVAC                                 #    NEWMODE X
000060: 14,3760     1010                                  EBANK=   MODREG
000061: 14,3760           03572 60102                     2CADR    DSPMMJOB
000062:
000063: 14,3762           52071                           DXCH     RUPTREG1
000064: 14,3763           00003                           RELINT
000065: 14,3764           52006                           DXCH     Z                                     #  RETURN
000066:
000067: 14,3765  40,3572               DSPMMJOB           EQUALS   DSPMMJB
000068:
000069:
000070:    5331                                           BLOCK    02
000071:    4000                                           SETLOC   FFTAG1
000072:    4000                                           BANK


000074:                                                                                                  #  PHASCHNG IS THE MAIN WAY OF MAKING PHASE CHANGES FOR RESTARTS.  THERE ARE THREE FORMS OF PHASCHNG, KNOWN AS TYPE
000075:                                                                                                  #  A, TYPE B, AND TYPE C. THEY ARE ALL CALLED AS FOLLOWS, WHERE OCT XXXXX   CONTAINS THE PHASE INFORMATION,
000076:
000077:                                                                                                  #                                                   TC     PHASCHNG
000078:                                                                                                  #                                                   OCT    XXXXX
000079:
000080:                                                                                                  #  TYPE A IS CONCERNED WITH FIXED PHASE CHANGES, THAT IS, PHASE INFORMATIONTHAT IS STORED PERMANENTLY.  THESE
000081:                                                                                                  #  OPTIONS ARE, WHERE G STANDS FOR A GROUP AND .X FOR THE PHASE,
000082:
000083:                                                                                                  #                  G.0             INACTIVE, WILLNOT PERMIT A GROUP G RESTART
000084:                                                                                                  #                  G.1             WILL CAUSE THE LAST DISPLAY TO BE REACTIVATED, USED MAINLY IN MANNED FLIGHTS
000085:                                                                                                  #                  G.EVEN          A DOUBLE TABLE RESTART, CAN CAUSE ANY COMBINATION OF TWO JOBS, TASKS, AND/OR
000086:                                                                                                  #                                  LONGCALL TO BE RESTARTED.
000087:                                                                                                  #                  G.ODD NOT .1    A SINGLE TABLE RESTART, CAN CAUSE EITHER A JOB, TASK, OR LONGCALL RESTART
000088:
000089:                                                                                                  #  THIS INFORMATION IS PUT INTO THE OCTAL WORD AFTER TC PHASCHNG AS FOLLOWS
000090:
000091:                                                                                                  #                  TL0 00P PPP PPP GGG                                     ,
000092:
000093:                                                                                                  #  WHERE EACH LETTER OR NUMBER STANDS FOR A BIT.  THE G:S STAND FOR THE GROUP, OCTAL 1 - 7, THE P:S FOR THE PHASE,
000094:                                                                                                  #  OCTAL 0 - 127.  0:S MUST BE 0.              IF ONE WISHES TO HAVE THE TBASE OF GROUP G TO BE SET AT THIS TIME,
000095:                                                                                                  #  T IS SET TO 1, OTHERWISE IT IS SET TO 0.  SIMIARLY IF ONE WISHES TO SET LONGBASE, THEN L IS SET TO 1, OTHERWISE
000096:                                                                                                  #  IT IS SET TO 0.  SOME EXAMPLES,
000097:
000098:                                                                                                  #                                                   TC     PHASCHNG        THIS WILL CAUSE GROUP 3 TOBE SET TO 0,
000099:                                                                                                  #                                                   OCT    00003           MAKING GROUP 3 INACTIVE
000100:
000101:                                                                                                  #                                                   TC     PHASCHNG        IF A RESTART OCCURS THIS WOULD CAUSE
000102:                                                                                                  #                                                   OCT    00012           GROUP 2 TO RESTART THE LAST DISPLAY
000103:
000104:                                                                                                  #                                                   TC     PHASCHNG        THIS SETS THE TBASE OF GROUP 4 AND IN
000105:                                                                                                  #                                                   OCT    40064           CASE OF A RESTART WOULD START UP THE TWO
000106:                                                                                                  #                                                                          THINGS LOCATED IN THE DOUBLE 4.6 RESTART
000107:                                                                                                  #                                                                          LOCATION
000108:                                                                                                  #                                                   TC     PHASCHNG        THIS SETS LONGBASE AND UPON A RESTART
000109:                                                                                                  #                                                   OCT    20135           CAUSES 5.13 TO BE RESTARTED  (SINCE
000110:                                                                                                  #                                                                          LONGBASE WAS SET THIS SINGLE ENTRY
000111:                                                                                                  #                                                                          SHOULD BE A LONGCALL)
000112:                                                                                                  #                                                   TC     PHASCHNG        SINCE BOTH TBASE4 AND LONGBASE ARE SET,
000113:                                                                                                  #                                                   OCT    60124           4.12 SHOULD CONTAIN BOTH A TASK AND A
000114:                                                                                                  #                                                                          LONGCALL TO BE RESTARTED
000115:
000116:                                                                                                  #  TYPE C PHASCHNG CONTAINS THE VARIABLE TYPE OF PHASCHNG INFORMATION. INSTEAD OF THE INFORMATION BEING IN A
000117:                                                                                                  #  PERMANENT FORM, ONE STORES THE DESIRED RESTART INFORMATION IN A VARIABKE LOCATION. THE BITS ARE AS FOLLOWS,
000118:
000119:                                                                                                  #                  TL0 1AD XXX CJW GGG
000120:
000121:                                                                                                  #  WHERE EACH LETTER OR NUMBER STANDS FOR A BIT.  THE G:S STAND FOR THE GROUP, OCTAL 1 - 7.  IF THE RESTART IS TO
000122:                                                                                                  #  BE BY WAITLIST, W IS SET TO 1, IF IT IS A JOB, J IS SET TO 1, IF IT IS A LONGCALL, C IS SET TO 1. ONLY ONE OF
000123:                                                                                                  #  THESE THREE BIT S MAY BE SET.  X:S ARE IGNORED  1 MUST BE 1, AND 0 MUST  BE 0.  AGAIN T STANDS FOR THE TBASE,


000125:                                                                                                  #  AND L FOR LONGBASE.  THE BITS A AND D ARE CONCERNED WITH THE VARIABLE INFORMATION. IF D IS SET TO 1, A PRIORITY
000126:                                                                                                  #  OR DELTA TIME WILL BE READ FROM THE NEXT LOCATION AFTER THE OCTAL INFORMATION, IF THIS IS TO BE INDIRECT, THAT
000127:                                                                                                  #  IS, THE NAME OF A LOCATION COMT+INING THE INFORMATION (DELTA TIME ONLY), THEN THIS IS GIVEN AS THE -GENADR OF
000128:                                                                                                  #  THAT LOCATION WHICH CONTAINS THE DELTA TIME.  IF THE OLD PRIORITY OR DELTA TIME IS TO BE USED, THAT WHICH IS
000129:                                                                                                  #  ALREADY IN THE VARIABLE STORAGE, THEN D IS SET TO 0. NEXT THE A BIT IS USED.  IF IT IS SET TO 0, THE ADDRESS
000130:                                                                                                  #  THAT WOULD BE RESTARTED DURING A RESTART IS THE NEXT LOCATION AFTER THE  PHASE INFORMATION, THAT IS, EITHER
000131:                                                                                                  #  (TC PHASCHNG) +2 OR +3, DEPENDING ON WHETHER D HAD BEEN SET OR NOT.  IF A IS SET TO 1, THEN THE ADDRESS THAT
000132:                                                                                                  #  WOULD BE RESTARTED IS THE 2CADR THAT IS READ FROM THE NEXT TWO LOCATIONS.  EXAMPLES,
000133:
000134:                                                                                                  #                                          AD       TC     PHASCHNG        THIS WOULD CAUSE LOCATION AD +3 TO BE
000135:                                                                                                  #                                          AD+1     OCT    05023           RESTARTED BY GROUP THREE WITHA PRIORITY
000136:                                                                                                  #                                          AD+2     OCT    23000           OF 23.  NOTE UPON RETURNING IT WOULD
000137:                                                                                                  #                                          AD+3                            ALSO GO TO AD+3
000138:
000139:                                                                                                  #                                          AD       TC     PHASCHNG        GROUP  1 WOULD CAUSE CAUSE CALLCALL TO
000140:                                                                                                  #                                          AD+1     OCT    27441           BE STARTED AS A LONGCALL FROM THE TIME
000141:                                                                                                  #                                          AD+2    -GENADR DELTIME         STORED IN LONGBASE (LONGBASE WAS SET) BY
000142:                                                                                                  #                                          AD+3     2CADR  CALLCALL        A DELTATIME STORED IN DELTIME.  THE
000143:                                                                                                  #                                          AD+4                            BBCON OF THE 2CADR SHOULD CONTAIN THE E
000144:                                                                                                  #                                          AD+5                            BANK OF DELTIME. PHASCHNG RETURNS TO
000145:                                                                                                  #                                                                          LOCATION AD+5
000146:
000147:                                                                                                  #  NOTE THAT IF A VARIABLE PRIORITY IS GIVEN FOR A JOB, THE JOB WILL BE RESTARTED AS A NOVAC IF THE PRIORITY IS
000148:                                                                                                  #  NEGATIVE, AS A FINDVAC IF THE PRIORITY IS POSITIVE.
000149:
000150:
000151:                                                                                                  #  TYPE B PHASCHNG IS A COMBINATION OF VARIABLE AND FIXED PHASE CHANGES. IT WILL START UP A JOB AS INDICATED
000152:                                                                                                  #  BELOW AND ALSO START UP ONE FIXED RESTART, THAT IS EITHER AN G.1 OR  A G.ODD OR THE FIRST ENTRY OF G.EVEN
000153:                                                                                                  #  DOUBLE ENTRY.  THE BIT INFORMATION IS AS FOLLOWS,
000154:
000155:                                                                                                  #                  TL1 DAP PPP PPP GGG
000156:
000157:                                                                                                  #  WHERE EACH LETTER OR NUMBER STANDS FOR A BIT.  THE G:S STAND FOR THE GROUP, OCTAL 1 - 7. THE P:S FOR THE FIXED
000158:                                                                                                  #  PHASE INFORMATION, OCTAL 0 - 127. 1 MUST BE 1.  AND AGAIN T STANDS FOR THE TBASE AND L FOR LONGBASE. D THIS
000159:                                                                                                  #  TIME STANDS ONLY FOR PRIORITY SINCE THIS WILL BE CONSIDERED A JOB, AND IT MUST BE GIVEN DIRECTLY IF GIVEN.
000160:                                                                                                  #  AGAIN A STANDS FOR THE ADDRESS OF THE LOCATION TO BE RESTARTED, 1 IF THE 2CADR IS GIVEN , OR 0 IF IT IS TO BE
000161:                                                                                                  #  THE NEXT LOCATION.(THE RETURN LOCATION OF PHASCHNG) EXAMPLES,
000162:
000163:                                                                                                  #                                          AD       TC     PHASCHNG        TBASE IS SET AND ARESTART CAUSE GROUP 3
000164:                                                                                                  #                                          AD+1     OCT    56043           TO START THE JOB AJOBAJOB WITH PRIORITY
000165:                                                                                                  #                                          AD+2     OCT    31000           31 AND THE FIRST ENTRY OF 3.4SPOT(WE CAN
000166:                                                                                                  #                                          AD+3     2CADR  AJOBAJOB        ASSUME IT IS A TASK SINCE WE SET TBASE3)
000167:                                                                                                  #                                          AD+4                            UPON RETURN FROM PHASCHNG CONTROL WOULD
000168:                                                                                                  #                                          AD+5                            GO TO AD+5
000169:
000170:                                                                                                  #                                          AD       TC     PHASCHNG        UPON A RESTART THE LAST DISPLAY WOULD BE
000171:                                                                                                  #                                          AD+1     OCT    10015           RESTARTED AND A JOB WITH THE PREVIOUSLY
000172:                                                                                                  #                                          AD+2                            STORED PRIORITY WOULD BE BEGUN AT AD+2
000173:                                                                                                  #                                                                          BY MEANS OF GROUP 5
000174:


000176:                                                                                                  #  THE NOVAC-FINDVAC CHOICE FOR JOBS HOLDS HERE ALSO - NEGATIVE PRIORITY CAUSES A NOVAC CALL, POSITIVE A FINDVAC.
000177:
000178:                                                                                                  #  SUMMARY OF BITS
000179:
000180:                                                                                                  #  TYPE A          TL0 00P PPP PPP GGG
000181:
000182:                                                                                                  #  TYPE B          TL1 DAP PPP PPP GGG
000183:
000184:                                                                                                  #  TYPE C          TL0 1AD XXX CJW GGG
000185:


000187:                                                                                                  #  2PHSCHNG IS USED WHEN ONE WISHES TO START UP A GROUP OR CHANGE A GROUP WHILE UNDER THE CONTROL OF A DIFFERENT
000188:                                                                                                  #  GROUP. FOR EXAMPLE, CHANGE THE PHASE OF GROUP 3 WHILE THE PORTION OF THE PROGRAM IS UNDER GROUP 5. ALL 2PHSCHNG
000189:                                                                                                  #  CALLS ARE MADE IN THE FOLLOWING MANNER,
000190:
000191:                                                                                                  #                                                   TC     2PHSCHNG
000192:                                                                                                  #                                                   OCT    XXXXX
000193:                                                                                                  #                                                   OCT    YYYYY
000194:
000195:                                                                                                  #  WHERE OCT XXXXX MUST BE OF TYPE A AND OCT YYYYY MAY BE OF EITHER TYPE A OR TYPE B OR TYPEC.  THERE IS ONE
000196:                                                                                                  #  DIFFERENCE --- NOTE- IF LONGBASE IS TO BE SET THIS INFORMATION IS GIVEN IN THE OCT YYYYY INFORMATION, IT WILL
000197:                                                                                                  #  BE DISREGARDED IF GIVEN WITH THE OCT XXXXX INFORMATION. A COUPLE OF EXAMPLES MAY HELP,
000198:
000199:                                                                                                  #                                          AD       TC     2PHSCHNG        SET TBASE3 AND IF A RESTART OCCURS START
000200:                                                                                                  #                                          AD+1     OCT    40083           THE TWO ENTRIES IN 3.8 TABLE LOCATION
000201:                                                                                                  #                                          AD+2     OCT    05025           THIS IS OF TYPE C, SET THE JOB TO BE
000202:                                                                                                  #                                          AD+3     OCT    18000           TO BE LOCATION AD+4, WITH A PRIORITY 18,
000203:                                                                                                  #                                          AD+4                            FOR GROUP 5 PHASE INFORMATION
000204:


000206:    5331  40,2000                                  SBANK=   PINSUPER
000207:
000208:    5331                                           COUNT*   $$/PHASE
000209:    5331           00004        2PHSCHNG           INHINT                                         #  THE ENTRY FOR A DOUBLE PHASE CHANGE
000210:    5332           50002                           NDX      Q
000211:    5333           30000                           CA       0
000212:    5334           24002                           INCR     Q
000213:    5335           54072                           TS       TEMPP2
000214:
000215:    5336           74750                           MASK     OCT7
000216:    5337           60000                           DOUBLE
000217:    5340           54071                           TS       TEMPG2
000218:
000219:    5341           30072                           CA       TEMPP2
000220:    5342           75021                           MASK     OCT17770                              #  NEED ONLY 1770, BUT WHY GET A NEW CONST.
000221:    5343           00006                           EXTEND
000222:    5344           74731                           MP       BIT12
000223:    5345           56072                           XCH      TEMPP2
000224:
000225:    5346           74726                           MASK     BIT15
000226:    5347           54066                           TS       TEMPSW2                               #  INDICATES WHETHER TO SET TBASE OR NOT
000227:
000228:    5350           50002                           INDEX    Q
000229:    5351           30000                           CA       0
000230:    5352           24002                           INCR     Q
000231:    5353           54065                           TS       TEMPSW
000232:
000233:    5354           15365                           TCF      PHASJUMP
000234:
000235:    5355           00004        PHASCHNG           INHINT                                         #  NORMAL PHASCHNG ENTRY POINT.
000236:    5356           50002                           INDEX    Q
000237:    5357           30000                           CA       0
000238:    5360           24002                           INCR     Q
000239:    5361           00004        PHSCHNGA           INHINT                                         #  FIRST OCTAL PARAMETER IN A.


000241:    5362           54065                           TS       TEMPSW
000242:    5363           34744                           CA       ONE
000243:    5364           54066                           TS       TEMPSW2
000244:    5365           00006        PHASJUMP           EXTEND
000245:    5366           35371                           DCA      ADRPCHN2                              #  OFF TO SWITCHED BANK
000246:    5367           52006                           DTCB
000247:
000248:    5370  E3,1400                                  EBANK=   LST1
000249:    5370           02213 20103  ADRPCHN2           2CADR    PHSCHNG2
000250:
000251:
000252:
000253:    5372           22073        ONEORTWO           LXCH     TEMPBBCN
000254:    5373           22006                           LXCH     BBANK
000255:    5374           22073                           LXCH     TEMPBBCN
000256:
000257:    5375           75015                           MASK     OCT14000                              #  SEE WHAT KIND OF PHASE CHANGE IT IS
000258:    5376           10000                           CCS      A
000259:    5377           17771                           TCF      CHECKB                                #   IT IS OF TYPE :B:
000260:
000261:    5400           30062                           CA       TEMPP
000262:    5401           74736                           MASK     BIT7
000263:    5402           10000                           CCS      A                                     #   SHALL WE USE THE OLD PRIORITY
000264:    5403           15425                           TCF      GETPRIO                               #   NO GET A NEW PRIORITY (OR DELTA T)
000265:
000266:    5404           50061        OLDPRIO            NDX      TEMPG                                 #   USE THE OLD PRIORITY (OR DELTA T)
000267:    5405           31051                           CA       PHSPRDT1   -2
000268:    5406           54070                           TS       TEMPPR
000269:
000270:    5407           30062        CON1               CA       TEMPP                                 #  SEE IF A 2CADR IS GIVEN
000271:    5410           74735                           MASK     BIT8
000272:    5411           10000                           CCS      A
000273:    5412           15431                           TCF      GETNEWNM
000274:
000275:    5413           30002                           CA       Q
000276:    5414           54063                           TS       TEMPNM
000277:    5415           30006                           CA       BB
000278:    5416           00006                           EXTEND                                         #  PICK UP USERS SUPERBANK
000279:    5417           04007                           ROR      SUPERBNK
000280:    5420           54064                           TS       TEMPBB
000281:
000282:    5421           35424        TOCON2             CA       CON2ADR                               #  BACK TO SWITCHED BANK
000283:    5422           22073                           LXCH     TEMPBBCN
000284:    5423           52006                           DTCB
000285:
000286:    5424           02301        CON2ADR            GENADR   CON2
000287:
000288:    5425           50002        GETPRIO            NDX      Q                                     #  DON:T CARE IF DIRECT OR INDIRECT
000289:    5426           30000                           CA       0                                     #  LEAVE THAT DECISION TO RESTARTS
000290:    5427           24002                           INCR     Q                                     #  OBTAIN RETURN ADDRESS


000292:    5430           15406                           TCF      CON1       -1
000293:
000294:    5431           00006        GETNEWNM           EXTEND
000295:    5432           50002                           INDEX    Q
000296:    5433           30001                           DCA      0
000297:    5434           52064                           DXCH     TEMPNM
000298:    5435           34743                           CA       TWO
000299:    5436           26002                           ADS      Q                                     #  OBTAIN RETURN ADDRESS
000300:
000301:    5437           15421                           TCF      TOCON2
000302:
000303:    5440     5015               OCT14000           EQUALS   PRIO14
000304:    5440     0061               TEMPG              EQUALS   ITEMP1
000305:    5440     0062               TEMPP              EQUALS   ITEMP2
000306:    5440     0063               TEMPNM             EQUALS   ITEMP3
000307:    5440     0064               TEMPBB             EQUALS   ITEMP4
000308:    5440     0065               TEMPSW             EQUALS   ITEMP5
000309:    5440     0066               TEMPSW2            EQUALS   ITEMP6
000310:    5440     0070               TEMPPR             EQUALS   RUPTREG1
000311:    5440     0071               TEMPG2             EQUALS   RUPTREG2
000312:    5440     0072               TEMPP2             EQUALS   RUPTREG3
000313:
000314:    5440     0073               TEMPBBCN           EQUALS   RUPTREG4
000315:    5440  0000006               BB                 EQUALS   BBANK
000316:
000317:
000318: 14,3765                                           BANK     14
000319: 10,2000                                           SETLOC   PHASETAB
000320: 10,2000                                           BANK
000321:
000322: 10,2213  E3,1436                                  EBANK=   PHSNAME1
000323: 10,2213                                           COUNT*   $$/PHASE
000324: 10,2213           22073        PHSCHNG2           LXCH     TEMPBBCN
000325: 10,2214           30065                           CA       TEMPSW
000326: 10,2215           74750                           MASK     OCT7
000327: 10,2216           60000                           DOUBLE
000328: 10,2217           54061                           TS       TEMPG
000329:
000330: 10,2220           30065                           CA       TEMPSW
000331: 10,2221           75021                           MASK     OCT17770
000332: 10,2222           00006                           EXTEND
000333: 10,2223           74731                           MP       BIT12
000334: 10,2224           54062                           TS       TEMPP
000335:
000336: 10,2225           30065                           CA       TEMPSW
000337: 10,2226           74101                           MASK     OCT60000
000338: 10,2227           56065                           XCH      TEMPSW
000339: 10,2230           75015                           MASK     OCT14000
000340: 10,2231           10000                           CCS      A


000342: 10,2232           15372                           TCF      ONEORTWO
000343:
000344: 10,2233           30062                           CA       TEMPP                                 #  START STORING THE PHASE INFORMATION
000345: 10,2234           50061                           NDX      TEMPG
000346: 10,2235           54750                           TS       PHASE1     -2
000347:
000348: 10,2236           10066        BELOW1             CCS      TEMPSW2                               #  IS IT A PHASCHNG OR A 2PHSCHNG
000349: 10,2237           12253                           TCF      BELOW2                                #  IT:S A PHASCHNG
000350:
000351: 10,2240           12241                           TCF      +1                                    #  IT:S A 2PHSCHNG
000352: 10,2241           40072                           CS       TEMPP2
000353: 10,2242           22072                           LXCH     TEMPP2
000354: 10,2243           50071                           NDX      TEMPG2
000355: 10,2244           52750                           DXCH     -PHASE1    -2
000356:
000357: 10,2245           10066                           CCS      TEMPSW2
000358: 10,2246           12247                           NOOP                                           #  CAN:T GET HERE
000359: 10,2247           12253                           TCF      BELOW2
000360:
000361: 10,2250           40025                           CS       TIME1
000362: 10,2251           50071                           NDX      TEMPG2
000363: 10,2252           55050                           TS       TBASE1     -2
000364:
000365: 10,2253           10065        BELOW2             CCS      TEMPSW                                #  SEE IF WE SHOULD SET TBASE OR LONGBASE
000366: 10,2254           12267                           TCF      BELOW3                                #  SET LONGBASE ONLY
000367: 10,2255           12272                           TCF      BELOW4                                #  SET NEITHER
000368:
000369: 10,2256           40025                           CS       TIME1                                 #  SET TBASE TO BEGIN WITH
000370: 10,2257           50061                           NDX      TEMPG
000371: 10,2260           55050                           TS       TBASE1     -2
000372:
000373: 10,2261           30065                           CA       TEMPSW                                #   SHALL WE NOW SET LONGBASE
000374: 10,2262           62265                           AD       BIT14COM
000375: 10,2263           10000                           CCS      A
000376: 10,2264           12265                           NOOP                                           #  ***** CANT GET HERE *****
000377: 10,2265           17777        BIT14COM           OCT      17777                                 #  ***** CANT GET HERE *****
000378: 10,2266           12272                           TCF      BELOW4                                #  NO WE NEED ONLY SET TBASE
000379:
000380: 10,2267           00006        BELOW3             EXTEND                                         #  SET LONGBASE
000381: 10,2270           30025                           DCA      TIME2
000382: 10,2271           53151                           DXCH     LONGBASE
000383:
000384: 10,2272           40062        BELOW4             CS       TEMPP                                 #  AND STORE THE FINAL PART OF THE PHASE
000385: 10,2273           50061                           NDX      TEMPG
000386: 10,2274           54747                           TS       -PHASE1    -2
000387:
000388: 10,2275           30002                           CA       Q
000389: 10,2276           22073                           LXCH     TEMPBBCN
000390: 10,2277           00003                           RELINT
000391: 10,2300           52006                           DTCB


000393: 10,2301           22073        CON2               LXCH     TEMPBBCN
000394:
000395: 10,2302           30062                           CA       TEMPP
000396: 10,2303           50061                           NDX      TEMPG
000397: 10,2304           54750                           TS       PHASE1     -2
000398:
000399: 10,2305           30070                           CA       TEMPPR
000400: 10,2306           50061                           NDX      TEMPG
000401: 10,2307           55051                           TS       PHSPRDT1   -2
000402:
000403: 10,2310           00006                           EXTEND
000404: 10,2311           30064                           DCA      TEMPNM
000405: 10,2312           50061                           NDX      TEMPG
000406: 10,2313           53435                           DXCH     PHSNAME1   -2
000407:
000408: 10,2314           12236                           TCF      BELOW1
000409:
000410:    7771                                           BLOCK    03
000411:    6000                                           SETLOC   FFTAG6
000412:    6000                                           BANK
000413:
000414:    7771                                           COUNT*   $$/PHASE
000415:    7771           74731        CHECKB             MASK     BIT12                                 #  SINCE THIS IS OF TYPE B, THIS BIT SHOULD
000416:    7772           10000                           CCS      A                                     #   BE HERE IF WE ARE TO GET A NEW PRIORITY
000417:    7773           15425                           TCF      GETPRIO                               #  IT IS, SO GET NEW PRIORITY
000418:
000419:    7774           15404                           TCF      OLDPRIO                               #  IT ISN:T, USE THE OLD PRIORITY

End of include-file PHASE_TABLE_MAINTENANCE.agc.  Parent file is MAIN.agc


