
Source Code


000002:                                                                                                  ## Copyright:   Public domain.
000003:                                                                                                  ## Filename:    PINBALL_GAME__BUTTONS_AND_LIGHTS.agc
000004:                                                                                                  ## Purpose:     A section of Luminary revision 210.
000005:                                                                                                  ##              It is part of the source code for the Lunar Module's (LM)
000006:                                                                                                  ##              Apollo Guidance Computer (AGC) for Apollo 15-17.
000007:                                                                                                  ##              This file is intended to be a faithful transcription, except
000008:                                                                                                  ##              that the code format has been changed to conform to the
000009:                                                                                                  ##              requirements of the yaYUL assembler rather than the
000010:                                                                                                  ##              original YUL assembler.
000011:                                                                                                  ## Reference:   pp. 402-486
000012:                                                                                                  ## Assembler:   yaYUL
000013:                                                                                                  ## Contact:     Ron Burkey <info@sandroid.org>.
000014:                                                                                                  ## Website:     www.ibiblio.org/apollo/index.html
000015:                                                                                                  ## Mod history: 2016-11-17 JL   Created from Luminary131 version.
000016:                                                                                                  ##              2016-11-18 MAS  Started corrections.
000017:                                                                                                  ##              2016-11-20 MAS  Completed. Mostly comments, bank movements,
000018:                                                                                                  ##                              and minor changes related to new lights.
000019:                                                                                                  ##              2016-12-07 HG   Fix P00 -> POO
000020:                                                                                                  ##              2016-12-23 RSB  Proofed comment text with octopus/ProoferComments
000021:                                                                                                  ##                              and fixed all errors found.
000022:                                                                                                  ##              2017-01-28 RSB  WTIH -> WITH.
000023:                                                                                                  ##              2017-02-08 RSB  Comment-text fixes noted while proofing Artemis 72.
000024:                                                                                                  ##              2017-03-08 RSB  Changed DSPOCTWO to DSPOCTWD.
000025:                                                                                                  ##              2017-03-08 RSB  Comment-text fixes noted in proofing Luminary 116.
000026:                                                                                                  ##              2017-03-16 RSB  Comment-text fixes identified in 5-way
000027:                                                                                                  ##                              side-by-side diff of Luminary 69/99/116/131/210.
000028:                                                                                                  ##              2017-03-17 RSB  Comment-text fixes identified in diff'ing
000029:                                                                                                  ##                              Luminary 99 vs Comanche 55.
000030:


000032:                                                                                                  #  PROGRAM NAME - KEYBOARD AND DISPLAY PROGRAM
000033:                                                                                                  #  MOD NO - 4      DATE - 27 APRIL 1967      ASSEMBLY - PINDANCE REV 18
000034:                                                                                                  #  MOD BY - FILENE
000035:                                                                                                  #  LOG SECTION - PINBALL GAME BUTTONS AND LIGHTS
000036:
000037:                                                                                                  #  FUNCTIONAL DESCRIPTION-
000038:
000039:                                                                                                  #     THE KEYBOARD AND DISPLAY SYSTEM PROGRAM OPERATES UNDER EXECUTIVE
000040:                                                                                                  #  CONTROL AND PROCESSES INFORMATION EXCHANGED BETWEEN THE AGC AND THE
000041:                                                                                                  #  COMPUTER OPERATOR.  THE INPUTS TO THE PROGRAM ARE FROM THE KEYBOARD,
000042:                                                                                                  #  FROM INTERNAL PROGRAMS, AND FROM THE UPLINK.
000043:                                                                                                  #     THE LANGUAGE OF COMMUNICATION WITH THE PROGRAM IS A PAIR OF WORDS
000044:                                                                                                  #  KNOWN AS VERB AND NOUN.  EACH OF THESE IS REPRESENTED BY A 2 CHARACTER
000045:                                                                                                  #  DECIMAL NUMBER.  THE VERB CODE INDICATES WHAT ACTION IS TO BE TAKEN, THE
000046:                                                                                                  #  NOUN CODE INDICATES TO WHAT THIS ACTION IS APPLIED.  NOUNS USUALLY
000047:                                                                                                  #  REFER TO A GROUP OF ERASABLE REGISTERS.
000048:
000049:                                                                                                  #  VERBS ARE GROUPED INTO DISPLAYS, LOADS, MONITORS (DISPLAYS THAT ARE
000050:                                                                                                  #  UPDATED ONCE PER SECOND), SPECIAL FUNCTIONS, AND EXTENDED VERBS(THESE
000051:                                                                                                  #  ARE OUTSIDE OF THE DOMAIN OF PINBALL AND CAN BE FOUND UNDER LOG SECTION
000052:                                                                                                  #  :EXTENDED VERBS:).
000053:                                                                                                  #  A LIST OF VERBS AND NOUNS IS GIVEN IN LOG SECTION :ASSEMBLY AND
000054:                                                                                                  #  OPERATION INFORMATION:.
000055:
000056:
000057:                                                                                                  #  CALLING SEQUENCES-
000058:
000059:                                                                                                  #  KEYBOARD:
000060:                                                                                                  #     EACH DEPRESSION OF A KEYBOARD BUTTON ACTIVATES INTERRUPT KEYRUPT1
000061:                                                                                                  #  AND PLACES THE 5 BIT KEY CODE INTO CHANNEL 15.  KEYRUPT1 PLACES THE KEY
000062:                                                                                                  #  CODE INTO MPAC, ENTERS AN EXECUTIVE REQUEST FOR THE KEYBOARD AND DISPLAY
000063:                                                                                                  #  PROGRAM (AT :CHARIN:), AND EXECUTES A RESUME.
000064:
000065:                                                                                                  #  UPLINK:
000066:                                                                                                  #     EACH WORD RECEIVED BY THE UPLINK ACTIVATES INTERRUPT UPRUPT WHICH
000067:                                                                                                  #  PLACES THE 5 BIT KEY CODE INTO MPAC, ENTERS AN EXECUTIVE REQUEST FOR THE
000068:                                                                                                  #  KEYBOARD AND DISPLAY PROGRAM (AT:CHARIN:) AND EXECUTES A RESUME.
000069:
000070:                                                                                                  #  INTERNAL PROGRAMS:
000071:                                                                                                  #     INTERNAL PROGRAMS CALL PINBALL AT :NVSUB: WITH THE DESIRED VERB/NOUN
000072:                                                                                                  #  CODE IN A (LOW 7 BITS FOR NOUN, NEXT 7 BITS FOR VERB).  DETAILS
000073:                                                                                                  #  DESCRIBED ON REMARKS CARDS JUST BEFORE :NVSUB: AND :NVSBWAIT: (SEE
000074:                                                                                                  #  SYMBOL TABLE FOR PAGE NUMBERS).
000075:
000076:
000077:                                                                                                  #  NORMAL EXIT MODES-
000078:
000079:                                                                                                  #     IF PINBALL WAS CALLED BY EXTERNAL ACTION, THERE ARE FOUR EXITS:
000080:                                                                                                  #           1) ALL BUT (2), (3), AND (4) EXIT DIRECTLY TO ENDOFJOB.
000081:                                                                                                  #           2) EXTENDED VERBS GO TO THE EXTENDED VERB FAN AS PART OF THE


000083:                                                                                                  #              PINBALL EXECUTIVE JOB WITH PRIORITY 30000.  IT IS THE
000084:                                                                                                  #              RESPONSIBILITY OF THE EXTENDED VERB CALLED TO EVENTUALLY
000085:                                                                                                  #              CHANGE PRIORITY (IF NECESSARY) AND DO AN ENDOFJOB.
000086:                                                                                                  #              ALSO PINBALL IS A NOVAC JOB. EBANK SET FOR COMMON.
000087:                                                                                                  #           3) VERB 37. CHANGE OF PROGRAM (MAJOR MODE) CALLS :V37: IN THE
000088:                                                                                                  #              SERVICE ROUTINES AS PART OF THE PINBALL EXEC JOB WITH PRIO
000089:                                                                                                  #              30000.  THE NEW PROGRAM CODE (MAJOR MODE) IS LEFT IN A.
000090:                                                                                                  #           4) KEY RELEASE BUTTON CALLS :PINBRNCH: IN THE DISPLAY INTERFACE
000091:                                                                                                  #              ROUTINES AS PART OF THE PINBALL EXEC JOB WITH PRIO 30000 IF
000092:                                                                                                  #              THE KEY RELEASE LIGHT IS OFF AND :CADRSTOR: IS NOT +0.
000093:
000094:                                                                                                  #     IF PINBALL WAS CALLED BY INTERNAL PROGRAMS, EXIT FROM PINBALL IS BACK
000095:                                                                                                  #  TO CALLING ROUTINE.  DETAILS DESCRIBED IN REMARKS CARDS JUST BEFORE
000096:                                                                                                  #  :NVSUB: AND :NVSBWAIT: (SEE SYMBOL TABLE FOR PAGE NUMBERS).
000097:
000098:
000099:                                                                                                  #  ALARM OR ABORT EXIT MODES-
000100:
000101:                                                                                                  #  EXTERNAL INITIATION:
000102:                                                                                                  #     IF SOME IMPROPER SEQUENCE OF KEY CODES IS DETECTED, THE OPERATOR
000103:                                                                                                  #  ERROR LIGHT IS TURNED ON AND EXIT IS TO :ENDOFJOB:.
000104:
000105:                                                                                                  #  INTERNAL PROGRAM INITIATION:
000106:                                                                                                  #     IF AN ILLEGAL V/N COMBINATION IS ATTEMPTED, AN ABORT IS CAUSED
000107:                                                                                                  #  (WITH OCTAL 01501).
000108:                                                                                                  #     IF A SECOND ATTEMPT IS MADE TO GO TO SLEEP IN PINBALL, AN ABORT IS
000109:                                                                                                  #  CAUSED (WITH OCTAL 01206). THERE ARE TWO WAYS TO GO TO SLEEP IN PINBALL:
000110:                                                                                                  #           1) ENDIDLE OR DATAWAIT.
000111:                                                                                                  #           2) NVSBWAIT, PRENVBSY, OR NVSUBUSY.
000112:
000113:                                                                                                  #  CONDITIONS LEADING TO THE ABOVE ARE DESCRIBED IN FORTHCOMING MIT/IL
000114:                                                                                                  #  E-REPORT DESCRIBING KEYBOARD AND DISPLAY OPERATION FOR 278.
000115:
000116:
000117:                                                                                                  #  OUTPUT-
000118:
000119:                                                                                                  #     INFORMATION TO BE SENT TO THE DISPLAY PANEL IS LEFT IN THE :DSPTAB:
000120:                                                                                                  #  BUFFERS REGISTERS (UNDER EXEC CONTROL).  :DSPOUT: (A PART OF T4RUPT)
000121:                                                                                                  #  HANDLES THE PLACING OF THE :DSPTAB: INFORMATION INTO OUTPUT CHANNEL 10
000122:                                                                                                  #  IN INTERRUPT.
000123:
000124:
000125:                                                                                                  #  ERASABLE INITIALIZATION-
000126:
000127:                                                                                                  #     FRESH START AND RESTART INITIALIZE THE NECESSARY E REGISTERS FOR
000128:                                                                                                  #  PINBALL IN :STARTSUB:.   REGISTERS ARE:  DSPTAB BUFFER, CADRSTOR,
000129:                                                                                                  #  REQRET, CLPASS, DSPLOCK, MONSAVE, MONSAVE1, VERBREG, NOUNREG, DSPLIST,
000130:                                                                                                  #  DSPCOUNT, NOUT.
000131:
000132:                                                                                                  #  A COMPLETE LIST OF ALL THE ERASABLES (BOTH RESERVED AND TEMPORARIES) FOR


000134:                                                                                                  #  PINBALL IS GIVEN BELOW.
000135:
000136:
000137:                                                                                                  #  THE FOLLOWING ARE OF GENERAL INTEREST-
000138:
000139:                                                                                                  #     REMARKS CARDS PRECEDE THE REFERENCED SYMBOL DEFINITION.  SEE SYMBOL
000140:                                                                                                  #  TABLE TO FIND APPROPRIATE PAGE NUMBERS.
000141:
000142:                                                                                                  #     NVSUB   CALLING POINT FOR INTERNAL USE OF PINBALL.
000143:                                                                                                  #               OF RELATED INTEREST   NVSBWAIT
000144:                                                                                                  #                                     NVSUBUSY
000145:                                                                                                  #                                     PRENVBSY
000146:
000147:                                                                                                  #     ENDIDLE   ROUTINE FOR INTERNAL PROGRAMS WISHING TO GO TO SLEEP WHILE
000148:                                                                                                  #               AWAITING OPERATORS RESPONSE.
000149:
000150:                                                                                                  #     DSPMM   ROUTINE BY WHICH AN INTERNAL PROGRAM MAY DISPLAY A DECIMAL
000151:                                                                                                  #             PROGRAM CODE (MAJOR MODE) IN THE PROGRAM (MAJOR MODE) LIGHTS.
000152:                                                                                                  #             (DSPMM DOES NOT DISPLAY DIRECTLY BUT ENTERS EXEC REQUEST
000153:                                                                                                  #             FOR DSPMMJB WITH PRIO 30000 AND RETURNS TO CALLER.)
000154:
000155:                                                                                                  #     BLANKSUB   ROUTINE BY WHICH AN INTERNAL PROGRAM MAY BLANK ANY
000156:                                                                                                  #                COMBINATION OF THE DISPLAY REGISTERS R1, R2, R3.
000157:
000158:                                                                                                  #     JAMTERM   ROUTINES BY WHICH AN INTERNAL PROGRAM MAY PERFORM THE
000159:                                                                                                  #     JAMPROC   TERMINATE (V 34) OR PROCEED (V 33) FUNCTION.
000160:
000161:                                                                                                  #     MONITOR   VERBS FOR PERIODIC ( 1 PER SEC) DISPLAY.
000162:
000163:                                                                                                  #     PLEASE PERFORM, PLEASE MARK SITUATIONS
000164:                                                                                                  #                  REMARKS DESCRIBING HOW AN INTERNAL ROUTINE SHOULD HANDLE
000165:                                                                                                  #                  THESE SITUATIONS CAN BE FOUND JUST BEFORE :NVSUB: (SEE
000166:                                                                                                  #                  SYMBOL TABLE FOR PAGE NUMBER).
000167:
000168:                                                                                                  #     THE NOUN TABLE FORMAT IS DESCRIBED ON A PAGE OF REMARKS CARDS JUST
000169:                                                                                                  #     BEFORE :DSPABC: (SEE SYMBOL TABLE FOR PAGE NUMBER).
000170:
000171:                                                                                                  #     THE NOUN TABLES THEMSELVES ARE FOUND IN LOG SECTION :PINBALL NOUN
000172:                                                                                                  #     TABLES:.
000173:
000174:
000175:                                                                                                  #  FOR FURTHER DETAILS ABOUT OPERATION OF THE KEYBOARD AND DISPLAY SYSTEM
000176:                                                                                                  #  PROGRAM, SEE THE MISSION PLAN AND/OR MIT/IL E-2129
000177:                                                                                                  #  DESCRIBING KEYBOARD AND DISPLAY OPERATION FOR 278.


000180:
000181:
000182:                                                                                                  #  THE FOLLOWING QUOTATION IS PROVIDED THROUGH THE COURTESY OF THE AUTHORS.
000183:
000184:                                                                                                  #        ::IT WILL BE PROVED TO THY FACE THAT THOU HAST MEN ABOUT THEE THAT
000185:                                                                                                  #  USUALLY TALK OF A NOUN AND A VERB, AND SUCH ABOMINABLE WORDS AS NO


000187:                                                                                                  #  CHRISTIAN EAR CAN ENDURE TO HEAR.::
000188:
000189:                                                                                                  #                       HENRY 6, ACT 2, SCENE 4
000190:
000191:
000192:                                                                                                  #  THE FOLLOWING ASSIGNMENTS FOR PINBALL ARE MADE ELSEWHERE
000193:
000194:
000195:                                                                                                  #  RESERVED FOR PINBALL EXECUTIVE ACTION
000196:
000197:                                                                                                  #  DSPCOUNT ERASE                  DISPLAY POSITION INDICATOR
000198:                                                                                                  #  DECBRNCH ERASE                  +DEC, - DEC, OCT INDICATOR
000199:                                                                                                  #  VERBREG  ERASE                  VERB CODE
000200:                                                                                                  #  NOUNREG  ERASE                  NOUN CODE
000201:                                                                                                  #  XREG     ERASE                  R1 INPUT BUFFER
000202:                                                                                                  #  YREG     ERASE                  R2 INPUT BUFFER
000203:                                                                                                  #  ZREG     ERASE                  R3 INPUT BUFFER
000204:                                                                                                  #  XREGLP   ERASE                  LO PART OF XREG (FOR DEC CONV ONLY)
000205:                                                                                                  #  YREGLP   ERASE                  LO PART OF YREG (FOR DEC CONV ONLY)
000206:                                                                                                  #  HITEMOUT =      YREGLP          TEMP FOR DISPLAY OF HRS, MIN, SEC
000207:                                                                                                  #                                           MUST = LOTEMOUT-1.
000208:                                                                                                  #  ZREGLP   ERASE                  LO PART OF ZREG (FOR DEC CONV ONLY)
000209:                                                                                                  #  LOTEMOUT =      ZREGLP          TEMP FOR DISPLAY OF HRS, MIN, SEC
000210:                                                                                                  #                                           MUST = HITEMOUT+1.
000211:                                                                                                  #  MODREG   ERASE                  MODE CODE
000212:                                                                                                  #  DSPLOCK  ERASE                  KEYBOARD/SUBROUTINE CALL INTERLOCK
000213:                                                                                                  #  REQRET   ERASE                  RETURN REGISTER FOR LOAD
000214:                                                                                                  #  LOADSTAT ERASE                  STATUS INDICATOR FOR LOADTST
000215:                                                                                                  #  CLPASS   ERASE                  PASS INDICATOR CLEAR
000216:                                                                                                  #  NOUT     ERASE                  ACTIVITY COUNTER FOR DSPTAB
000217:                                                                                                  #  NOUNCADR ERASE                  MACHINE CADR FOR NOUN
000218:                                                                                                  #  MONSAVE  ERASE                  N/V CODE FOR MONITOR. (= MONSAVE1-1)
000219:                                                                                                  #  MONSAVE1 ERASE                  NOUNCADR FOR MONITOR(MATBS) =MONSAVE +1
000220:                                                                                                  #  MONSAVE2 ERASE                  NVMONOPT OPTIONS
000221:                                                                                                  #  DSPTAB   ERASE          +13D    0-10,DISPLAY PANEL BUFFER.11-13,C RELAYS
000222:                                                                                                  #  CADRSTOR ERASE                  ENDIDLE STORAGE
000223:                                                                                                  #  NVQTEM   ERASE                  NVSUB STORAGE FOR CALLING ADDRESS
000224:                                                                                                  #                                  MUST = NVBNKTEM-1
000225:                                                                                                  #  NVBNKTEM ERASE                  NVSUB STORAGE FOR CALLING BANK
000226:                                                                                                  #                                  MUST = NVQTEM+1
000227:                                                                                                  #  VERBSAVE ERASE                  NEEDED FOR RECYCLE
000228:                                                                                                  #  DSPLIST  ERASE                  WAITING REG FOR DSP SYST INTERNAL USE
000229:                                                                                                  #  EXTVBACT REASE                  EXTENDED VERB ACTIVITY INTERLOCK
000230:                                                                                                  #  DSPTEM1  ERASE          +2      BUFFER STORAGE AREA 1 (MOSTLY FOR TIME)
000231:                                                                                                  #  DSPTEM2  ERASE          +2      BUFFER STORAGE AREA 2 (MOSTLY FOR DEG)
000232:                                                                                                  #  END OF ERASABLES RESERVED FOR PINBALL EXECUTIVE ACTION
000233:
000234:
000235:                                                                                                  #  TEMPORARIES FOR PINBALL EXECUTIVE ACTION


000237:                                                                                                  #  DSEXIT   =      INTB15+         RETURN FOR DSPIN
000238:                                                                                                  #  EXITEM   =      INTB15+         RETURN FOR SCALE FACTOR ROUTINE SELECT
000239:                                                                                                  #  BLANKRET =      INTB15+         RETURN FOR 2BLANK
000240:
000241:                                                                                                  #  WRDRET   =      INTBIT15        RETURN FOR 5BLANK
000242:                                                                                                  #  WDRET    =      INTBIT15        RETURN FOR DSPWD
000243:                                                                                                  #  DECRET   =      INTBIT15        RETURN FOR PUTCOM(DEC LOAD)
000244:                                                                                                  #  21/22REG =      INTBIT15        TEMP FOR CHARIN
000245:
000246:                                                                                                  #  UPDATRET =      POLISH          RETURN FOR UPDATNN, UPDATVB
000247:                                                                                                  #  CHAR     =      POLISH          TEMP FOR CHARIN
000248:                                                                                                  #  ERCNT    =      POLISH          COUNTER FOR ERROR LIGHT RESET
000249:                                                                                                  #  DECOUNT  =      POLISH          COUNTER FOR SCALING AND DISPLAY (DEC)
000250:
000251:                                                                                                  #  SGNON    =      VBUF            TEMP FOR +,- ON
000252:                                                                                                  #  NOUNTEM  =      VBUF            COUNTER FOR MIXNOUN FETCH
000253:                                                                                                  #  DISTEM   =      VBUF            COUNTER FOR OCTAL DISPLAY VERBS
000254:                                                                                                  #  DECTEM   =      VBUF            COUNTER FOR FETCH (DEC DISPLAY VERBS)
000255:
000256:                                                                                                  #  SGNOFF   =      VBUF    +1      TEMP FOR +,- ON
000257:                                                                                                  #  NVTEMP   =      VBUF    +1      TEMP FOR NVSUB
000258:                                                                                                  #  SFTEMP1  =      VBUF    +1      STORAGE FOR SF CONST HI PART(=SFTEMP2-1)
000259:                                                                                                  #  HITEMIN  =      VBUF    +1      TEMP FOR LOAD OF HRS, MIN, SEC
000260:                                                                                                  #                                           MUST = LOTEMIN-1.
000261:                                                                                                  #  CODE     =      VBUF    +2      FOR DSPIN
000262:                                                                                                  #  SFTEMP2  =      VBUF    +2      STORAGE FOR SF CONST LO PART(=SFTEMP1+1)
000263:                                                                                                  #  LOTEMIN  =      VBUF    +2      TEMP FOR LOAD OF HRS, MIN, SEC
000264:                                                                                                  #                                           MUST = HITEMIN+1.
000265:                                                                                                  #  MIXTEMP  =      VBUF    +3      FOR MIXNOUN DATA
000266:                                                                                                  #  SIGNRET  =      VBUF    +3      RETURN FOR +,- ON
000267:
000268:                                                                                                  #  ALSO MIXTEMP+1 = VBUF+4, MIXTEMP+2 = VBUF+5.
000269:
000270:                                                                                                  #  ENTRET   =      DOTINC          EXIT FROM ENTER
000271:
000272:                                                                                                  #  WDCNT    =      DOTRET          CHAR COUNTER FOR DSPWD
000273:                                                                                                  #  INREL    =      DOTRET          INPUT BUFFER SELECTOR ( X,Y,Z, REG )
000274:
000275:                                                                                                  #  DSPMMTEM =      MATINC          DSPCOUNT SAVE FOR DSPMM
000276:                                                                                                  #  MIXBR    =      MATINC          INDICATOR FOR MIXED OR NORMAL NOUN
000277:
000278:                                                                                                  #  TEM1     ERASE                  EXEC TEMP
000279:                                                                                                  #  DSREL    =      TEM1            REL ADDRESS FOR DSPIN
000280:
000281:                                                                                                  #  TEM2     ERASE                  EXEC TEMP
000282:                                                                                                  #  DSMAG    =      TEM2            MAGNITUDE STORE FOR DSPIN
000283:                                                                                                  #  IDADDTEM =      TEM2            MIXNOUN INDIRECT ADDRESS STORAGE
000284:
000285:                                                                                                  #  TEM3     ERASE                  EXEC TEMP
000286:                                                                                                  #  COUNT    =      TEM3            FOR DSPIN
000287:


000289:                                                                                                  #  TEM4     ERASE                  EXEC TEMP
000290:                                                                                                  #  LSTPTR   =      TEM4            LIST POINTER FOR GRABUSY
000291:                                                                                                  #  RELRET   =      TEM4            RETURN FOR RELDSP
000292:                                                                                                  #  FREERET  =      TEM4            RETURN FOR FREEDSP
000293:                                                                                                  #  DSPWDRET =      TEM4            RETURN FOR DSPSIGN
000294:                                                                                                  #  SEPSCRET =      TEM4            RETURN FOR SEPSEC
000295:                                                                                                  #  SEPMNRET =      TEM4            RETURN FOR SEPMIN
000296:
000297:                                                                                                  #  TEM5     ERASE                  EXEC TEMP
000298:                                                                                                  #  NOUNADD  =      TEM5            TEMP STORAGE FOR NOUN ADDRESS
000299:
000300:                                                                                                  #  NNADTEM  ERASE                  TEMP FOR NOUN ADDRESS TABLE ENTRY
000301:                                                                                                  #  NNTYPTEM ERASE                  TEMP FOR NOUN TYPE TABLE ENTRY
000302:                                                                                                  #  IDAD1TEM ERASE                  TEMP FOR INDIR ADRESS TABLE ENTRY(MIXNN)
000303:                                                                                                  #                                  MUST = IDAD2TEM-1, = IDAD3TEM-2.
000304:                                                                                                  #  IDAD2TEM ERASE                  TEMP FOR INDIR ADRESS TABLE ENTRY(MIXNN)
000305:                                                                                                  #                                  MUST = IDAD1TEM+1, = IDAD3TEM-1.
000306:                                                                                                  #  IDAD3TEM ERASE                  TEMP FOR INDIR ADRESS TABLE ENTRY(MIXNN)
000307:                                                                                                  #                                  MUST = IDAD1TEM+2, = IDAD2TEM+1.
000308:                                                                                                  #  RUTMXTEM ERASE                  TEMP FOR SF ROUT TABLE ENTRY(MIXNN ONLY)
000309:                                                                                                  #  END OF TEMPORARIES FOR PINBALL EXECUTIVE ACTION
000310:
000311:
000312:                                                                                                  #  ADDITIONAL TEMPORARIES FOR PINBALL EXECUTIVE ACTION
000313:
000314:                                                                                                  #  MPAC, THRU MPAC +6
000315:                                                                                                  #  BUF, +1, +2
000316:                                                                                                  #  BUF2, +1, +2
000317:                                                                                                  #  MPTEMP
000318:                                                                                                  #  ADDRWD
000319:                                                                                                  #    END OF ADDITIONAL TEMPS FOR PINBALL EXEC ACTION
000320:
000321:
000322:                                                                                                  #  RESERVED FOR PINBALL INTERRUPT ACTION
000323:
000324:                                                                                                  #  DSPCNT   ERASE                  COUNTER FOR DSPOUT
000325:                                                                                                  #  UPLOCK   ERASE                  BIT1 = UPLINK INTERLOCK (ACTIVATED BY
000326:                                                                                                  #                                                                          RECEPTION OF A BAD MESSAGE IN UPLINK)
000327:                                                                                                  #  END OF ERASABLES RESERVED FOR PINBALL INTERRUPT ACTION
000328:
000329:
000330:                                                                                                  #  TEMPORARIES FOR PINBALL INTERRUPT ACTION
000331:
000332:                                                                                                  #  KEYTEMP1 =      WAITEXIT        TEMP FOR KEYRUPT, UPRUPT
000333:                                                                                                  #  DSRUPTEM =      WAITEXIT        TEMP FOR DSPOUT
000334:                                                                                                  #  KEYTEMP2 =      RUPTAGN         TEMP FOR KEYRUPT, UPRUPT
000335:                                                                                                  #  END OF TEMPORARIES FOR PINBALL INTERRUPT ACTION
000336:


000338:                                                                                                  #  THE INPUT CODES ASSUMED FOR THE KEYBOARD ARE,
000339:                                                                                                  #  0        10000
000340:                                                                                                  #  1        00001
000341:                                                                                                  #  9        01001
000342:                                                                                                  #  VERB     10001
000343:                                                                                                  #  ERROR RES10010
000344:                                                                                                  #  KEY RLSE 11001
000345:                                                                                                  #  +        11010
000346:                                                                                                  #  -        11011
000347:                                                                                                  #  ENTER    11100
000348:                                                                                                  #  CLEAR    11110
000349:                                                                                                  #  NOUN     11111


000351:
000352:
000353:                                                                                                  #  OUTPUT FORMAT FOR DISPLAY PANEL. SET OUT0 TO  AAAABCCCCCDDDDD.
000354:                                                                                                  #  A-S SELECT A RELAYWORD. THIS DETERMINES WHICH PAIR OF CHARACTERS ARE
000355:                                                                                                  #  ENERGIZED.
000356:                                                                                                  #  B FOR SPECIAL RELAYS SUCH AS SIGNS ETC.
000357:                                                                                                  #  C-S  5 BIT RELAY CODE FOR LEFT CHAR OF PAIR SELECTED BY RELAYWORD
000358:                                                                                                  #  D-S  5 BIT RELAY CODE FOR RIGHTCHAR OF PAIR SELECTED BY RELAYWORD.
000359:
000360:                                                                                                  #  THE PANEL APPEARS AS FOLLOWS,
000361:                                                                                                  #  MD1    MD2                         (MAJOR MODE)
000362:                                                                                                  #  VD1    VD2 (VERB)    ND1    ND2    (NOUN)
000363:                                                                                                  #  R1D1   R1D2   R1D3   R1D4   R1D5   (R1)
000364:                                                                                                  #  R2D1   R2D2   R2D3   R2D4   R2D5   (R2)
000365:                                                                                                  #  R3D1   R3D2   R3D3   R3D4   R3D5   (R3)
000366:
000367:                                                                                                  #  EACH OF THESE IS GIVEN A DSPCOUNT NUMBER FOR USE WITHIN COMPUTATION ONLY
000368:                                                                                                  #  MD1   25     R2D1    11       ALL ARE OCTAL
000369:                                                                                                  #  MD2   24     R2D2    10
000370:                                                                                                  #  VD1   23     R2D3    7
000371:                                                                                                  #  VD2   22     R2D4    6
000372:                                                                                                  #  ND1   21     R2D5    5
000373:                                                                                                  #  ND2   20     R3D1    4
000374:                                                                                                  #  R1D1  16     R3D2    3
000375:                                                                                                  #  R1D2  15     R3D3    2
000376:                                                                                                  #  R1D3  14     R3D4    1
000377:                                                                                                  #  R1D4  13     R3D5    0
000378:                                                                                                  #  R1D5  12
000379:
000380:
000381:                                                                                                  #  THERE IS AN 11 REGISTER TABLE (DSPTAB) FOR THE DISPLAY PANEL.
000382:
000383:                                                                                                  #  DSPTAB RELAYWD       BIT11     BITS 10-6     BITS 5-1
000384:                                                                                                  #  RELADD
000385:                                                                                                  #  10     1011                    MD1  (25)     MD2  (24)
000386:                                                                                                  #  9      1010                    VD1  (23)     VD2  (22)
000387:                                                                                                  #  8      1001                    ND1  (21)     ND2  (20)
000388:                                                                                                  #  7      1000                                  R1D1 (16)


000390:                                                                                                  #  6      0111          +R1       R1D2 (15)     R1D3 (14)
000391:                                                                                                  #  5      0110          -R1       R1D4 (13)     R1D5 (12)
000392:                                                                                                  #  4      0101          +R2       R2D1 (11)     R2D2 (10)
000393:                                                                                                  #  3      0100          -R2       R2D3 (7)      R2D4 (6)
000394:                                                                                                  #  2      0011                    R2D5 (5)      R3D1 (4)
000395:                                                                                                  #  1      0010          +R3       R3D2 (3)      R3D3 (2)
000396:                                                                                                  #  0      0001          -R3       R3D4 (1)      R3D5 (0)
000397:                                                                                                  #         0000   NO RELAYWORD
000398:
000399:
000400:                                                                                                  #  THE 5 BIT OUTPUT RELAY CODES ARE:
000401:                                                                                                  #  BLANK      00000
000402:                                                                                                  #  0          10101
000403:                                                                                                  #  1          00011
000404:                                                                                                  #  2          11001
000405:                                                                                                  #  3          11011
000406:                                                                                                  #  4          01111
000407:                                                                                                  #  5          11110
000408:                                                                                                  #  6          11100
000409:                                                                                                  #  7          10011
000410:                                                                                                  #  8          11101
000411:                                                                                                  #  9          11111
000412:
000413:
000414:                                                                                                  #  OUTPUT BITS USED BY PINBALL:
000415:
000416:                                                                                                  #             KEY RELEASE LIGHT    - BIT 5 OF CHANNEL 11
000417:                                                                                                  #             VERB/NOUN FLASH      - BIT 6 OF CHANNEL 11
000418:                                                                                                  #             OPERATOR ERROR LIGHT - BIT 7 OF CHANNEL 11
000419:


000421:                                                                                                  #  START OF EXECUTIVE SECTION OF PINBALL
000422: 40,2057                                           BANK     40
000423: 40,2000                                           SETLOC   PINBALL1
000424: 40,2000                                           BANK
000425:
000426: 40,2057                                           COUNT*   $$/PIN
000427: 40,2057           34744        CHARIN             CAF      ONE                                   #  BLOCK DISPLAY SYST
000428: 40,2060           57011                           XCH      DSPLOCK                               #  MAKE DSP SYST BUSY, BUT SAVE OLD
000429: 40,2061           54115                           TS       21/22REG                              #  C(DSPLOCK) FOR ERROR LIGHT RESET.
000430: 40,2062           11041                           CCS      CADRSTOR                              #  ALL KEYS EXCEPT ER TURN ON KR LITE IF
000431: 40,2063           02065                           TC       +2                                    #  CADRSTOR IS FULL.  THIS REMINDS OPERATOR
000432: 40,2064           02072                           TC       CHARIN2                               #  TO RE-ESTABLISH A FLASHING DISPLAY
000433: 40,2065           42136                           CS       ELRCODE1                              #  WHICH HE HAS OBSCURED WITH DISPLAYS OF
000434: 40,2066           60154                           AD       MPAC                                  #  HIS OWN (SEE REMARKS PRECEDING ROUTINE
000435: 40,2067           00006                           EXTEND                                         #  VBRELDSP).
000436: 40,2070           12072                           BZF      CHARIN2
000437: 40,2071           04365                           TC       RELDSPON
000438: 40,2072           56154        CHARIN2            XCH      MPAC
000439: 40,2073           54117                           TS       CHAR
000440: 40,2074           50000                           INDEX    A
000441: 40,2075           02076                           TC       +1                                    #  INPUT CODE     FUNCTION
000442: 40,2076           03463                           TC       CHARALRM                              #  0
000443: 40,2077           02155                           TC       NUM                                   #  1
000444: 40,2100           02155                           TC       NUM                                   #  2
000445: 40,2101           02155                           TC       NUM                                   #  3
000446: 40,2102           02155                           TC       NUM                                   #  4
000447: 40,2103           02155                           TC       NUM                                   #  5
000448: 40,2104           02155                           TC       NUM                                   #  6
000449: 40,2105           02155                           TC       NUM                                   #  7
000450: 40,2106           02141                           TC       89TEST                                #  10                 8
000451: 40,2107           02141                           TC       89TEST                                #  11                 9
000452: 40,2110           03463                           TC       CHARALRM                              #  12
000453: 40,2111           03463                           TC       CHARALRM                              #  13
000454: 40,2112           03463                           TC       CHARALRM                              #  14
000455: 40,2113           03463                           TC       CHARALRM                              #  15
000456: 40,2114           03463                           TC       CHARALRM                              #  16
000457: 40,2115           03463                           TC       CHARALRM                              #  17
000458: 40,2116           02153                           TC       NUM        -2                         #  20                 0
000459: 40,2117           02343                           TC       VERB                                  #  21                 VERB
000460: 40,2120           03646                           TC       ERROR                                 #  22                 ERROR LIGHT RESET
000461: 40,2121           03463                           TC       CHARALRM                              #  23
000462: 40,2122           03463                           TC       CHARALRM                              #  24
000463: 40,2123           03463                           TC       CHARALRM                              #  25
000464: 40,2124           03463                           TC       CHARALRM                              #  26
000465: 40,2125           03463                           TC       CHARALRM                              #  27
000466: 40,2126           03463                           TC       CHARALRM                              #  30
000467: 40,2127           03517                           TC       VBRELDSP                              #  31                 KEY RELEASE
000468: 40,2130           02376                           TC       POSGN                                 #  32                 +


000470: 40,2131           02363                           TC       NEGSGN                                #  33                 -
000471: 40,2132           02137                           TC       ENTERJMP                              #  34                 ENTER
000472: 40,2133           03463                           TC       CHARALRM                              #  35
000473: 40,2134           02456                           TC       CLEAR                                 #  36                 CLEAR
000474: 40,2135           02357                           TC       NOUN                                  #  37                 NOUN
000475:
000476: 40,2136           00022        ELRCODE1           OCT      22
000477: 40,2137           04626        ENTERJMP           TC       POSTJUMP
000478: 40,2140           62022                           CADR     ENTER
000479:
000480: 40,2141           10776        89TEST             CCS      DSPCOUNT
000481: 40,2142           02146                           TC       +4                                    #  +
000482: 40,2143           02146                           TC       +3                                    #  +0
000483: 40,2144           05146                           TC       ENDOFJOB                              #  - BLOCK DATA IN IF DSPCOUNT IS - OR -0
000484: 40,2145           05146                           TC       ENDOFJOB                              #  -0
000485: 40,2146           36266                           CAF      THREE
000486: 40,2147           70777                           MASK     DECBRNCH
000487: 40,2150           10000                           CCS      A
000488: 40,2151           02155                           TC       NUM                                   #  IF DECBRNCH IS +, 8 OR 9 OK
000489: 40,2152           03463                           TC       CHARALRM                              #  IF DECBRNCH IS +0, REJECT 8 OR 9
000490:
000491:
000492:                                                                                                  #  NUM ASSEMBLES OCTAL 3 BITS AT A TIME. FOR DECIMAL IT CONVERTS INCOMING
000493:                                                                                                  #  WORD AS A FRACTION, KEEPING RESULTS TO DP.
000494:                                                                                                  #  OCTAL RESULTS ARE LEFT IN XREG, YREG, OR ZREG. HI PART OF DEC IN XREG,
000495:                                                                                                  #  YREG, ZREG. THE LOW PARTS IN XREGLP, YREGLP, OR ZREGLP)
000496:                                                                                                  #  DECBRNCH IS LEFT AT +0 FOR OCT, +1 FOR + DEC, +2 FOR - DEC.
000497:                                                                                                  #  IF DSPCOUNT WAS LEFT -, NO MORE DATA IS ACCEPTED.
000498:
000499: 40,2153           34746                           CAF      ZERO
000500: 40,2154           54117                           TS       CHAR
000501: 40,2155           10776        NUM                CCS      DSPCOUNT
000502: 40,2156           02162                           TC       +4                                    #  +
000503: 40,2157           02162                           TC       +3                                    #  +0
000504: 40,2160           02161                           TC       +1                                    #  -BLOCK DATA IN IF DSPCOUNT IS -
000505: 40,2161           05146                           TC       ENDOFJOB                              #  -0
000506: 40,2162           02313                           TC       GETINREL
000507: 40,2163           11014                           CCS      CLPASS                                #  IF CLPASS IS + OR +0, MAKE IT +0.
000508: 40,2164           34746                           CAF      ZERO
000509: 40,2165           55014                           TS       CLPASS
000510: 40,2166           02167                           TC       +1
000511: 40,2167           50117                           INDEX    CHAR
000512: 40,2170           34066                           CAF      RELTAB
000513: 40,2171           74337                           MASK     LOW5
000514: 40,2172           54124                           TS       CODE
000515: 40,2173           30776                           CA       DSPCOUNT
000516: 40,2174           54143                           TS       COUNT
000517: 40,2175           03351                           TC       DSPIN
000518: 40,2176           36266                           CAF      THREE


000520: 40,2177           70777                           MASK     DECBRNCH
000521: 40,2200           10000                           CCS      A                                     #  +0, OCTAL.  +1, + DEC.  +2, - DEC.
000522: 40,2201           02212                           TC       DECTOBIN                              #  +
000523: 40,2202           50137                           INDEX    INREL                                 #  +0 OCTAL
000524: 40,2203           57000                           XCH      VERBREG
000525: 40,2204           54022                           TS       CYL
000526: 40,2205           40022                           CS       CYL
000527: 40,2206           40022                           CS       CYL
000528: 40,2207           56022                           XCH      CYL
000529: 40,2210           60117                           AD       CHAR
000530: 40,2211           02227                           TC       ENDNMTST
000531: 40,2212           50137        DECTOBIN           INDEX    INREL
000532: 40,2213           57000                           XCH      VERBREG
000533: 40,2214           54154                           TS       MPAC                                  #  SUM X 2EXP-14 IN MPAC
000534: 40,2215           34746                           CAF      ZERO
000535: 40,2216           54155                           TS       MPAC       +1
000536: 40,2217           34354                           CAF      TEN                                   #  10 X 2EXP-14
000537: 40,2220           07330                           TC       SHORTMP                               #  10SUM X 2EXP-28 IN MPAC, MPAC+1
000538: 40,2221           56155                           XCH      MPAC       +1
000539: 40,2222           60117                           AD       CHAR
000540: 40,2223           54155                           TS       MPAC       +1
000541: 40,2224           02227                           TC       ENDNMTST                              #  NO OF
000542: 40,2225           26154                           ADS      MPAC                                  #  OF MUST BE 5TH CHAR
000543: 40,2226           02245                           TC       DECCEND
000544: 40,2227           50137        ENDNMTST           INDEX    INREL
000545: 40,2230           55000                           TS       VERBREG
000546: 40,2231           40776                           CS       DSPCOUNT
000547: 40,2232           50137                           INDEX    INREL
000548: 40,2233           62304                           AD       CRITCON
000549: 40,2234           00006                           EXTEND
000550: 40,2235           12237                           BZF      ENDNUM                                #  -0, DSPCOUNT = CRITCON
000551: 40,2236           02301                           TC       MORNUM                                #  - , DSPCOUNT G/ CRITCON
000552: 40,2237           36266        ENDNUM             CAF      THREE
000553: 40,2240           70777                           MASK     DECBRNCH
000554: 40,2241           10000                           CCS      A
000555: 40,2242           02245                           TC       DECCEND
000556: 40,2243           40776        ENDALL             CS       DSPCOUNT                              #  BLOCK NUMIN BY PLACING DSPCOUNT
000557: 40,2244           02302                           TC       MORNUM     +1                         #  NEGATIVELY
000558: 40,2245           04607        DECCEND            TC       BANKCALL
000559: 40,2246           60250                           CADR     DECEND
000560: 40,2247           02243                           TC       ENDALL
000561: 40,2250           44744        DECEND             CS       ONE
000562: 40,2251           60137                           AD       INREL
000563: 40,2252           00006                           EXTEND
000564: 40,2253           62243                           BZMF     ENDALL                                #  IF INREL=0,1(VBREG,NNREG), LEAVE WHOLE
000565: 40,2254           02313                           TC       GETINREL
000566: 40,2255           50137                           INDEX    INREL
000567: 40,2256           31000                           CA       VERBREG
000568: 40,2257           54155                           TS       MPAC       +1
000569: 40,2260           07124                           TC       DMP                                   #  IF INREL=2,3,4(R1,R2,R3),CONVERT TO FRAC


000571:                                                                                                  #  MULT SUM X 2EXP-28 IN MPAC, MPAC+1 BY
000572: 40,2261           02311                           ADRES    DECON                                 #  2EXP14/10EXP5. GIVES(SUM/10EXP5)X2EXP-14
000573: 40,2262           36266                           CAF      THREE                                 #  IN MPAC, +1, +2.
000574: 40,2263           70777                           MASK     DECBRNCH
000575: 40,2264           50000                           INDEX    A
000576: 40,2265           02265                           TC       +0
000577: 40,2266           02272                           TC       +DECSGN
000578: 40,2267           00006                           EXTEND                                         #  - CASE
000579: 40,2270           40156                           DCS      MPAC       +1
000580: 40,2271           52156                           DXCH     MPAC       +1
000581: 40,2272           56156        +DECSGN            XCH      MPAC       +2
000582: 40,2273           50137                           INDEX    INREL
000583: 40,2274           55003                           TS       XREGLP     -2
000584: 40,2275           56155                           XCH      MPAC       +1
000585: 40,2276           50137                           INDEX    INREL
000586: 40,2277           55000                           TS       VERBREG
000587: 40,2300           04622                           TC       SWRETURN
000588: 40,2301           10776        MORNUM             CCS      DSPCOUNT                              #  DECREMENT DSPCOUNT
000589: 40,2302           54776                           TS       DSPCOUNT
000590: 40,2303           05146                           TC       ENDOFJOB
000591:
000592: 40,2304           00022        CRITCON            OCT      22                                    #  (DEC 18)
000593: 40,2305           00020                           OCT      20                                    #  (DEC 16)
000594: 40,2306           00012                           OCT      12                                    #  (DEC 10)
000595: 40,2307           00005                           OCT      5
000596: 40,2310           00000                           OCT      0
000597:
000598: 40,2311           05174 13261  DECON              2DEC     E-5        B14                        #  2EXP14/10EXP5 = .16384 DEC
000599:
000600:
000601:
000602:                                                                                                  #  GETINREL GETS PROPER DATA REG REL ADDRESS FOR CURRENT C(DSPCOUNT) AND
000603:                                                                                                  #  PUTS IN INTO INREL. +0 VERBREG, 1 NOUNREG, 2 XREG, 3 YREG, 4 ZREG.
000604:
000605: 40,2313           50776        GETINREL           INDEX    DSPCOUNT
000606: 40,2314           32317                           CAF      INRELTAB
000607: 40,2315           54137                           TS       INREL                                 #  (A TEMP, REG)
000608: 40,2316           00002                           TC       Q
000609:
000610: 40,2317           00004        INRELTAB           OCT      4                                     #  R3D5 (DSPCOUNT = 0)
000611: 40,2320           00004                           OCT      4                                     #  R3D4           =(1)
000612: 40,2321           00004                           OCT      4                                     #  R3D3           =(2)
000613: 40,2322           00004                           OCT      4                                     #  R3D2           =(3)
000614: 40,2323           00004                           OCT      4                                     #  R3D1           =(4)
000615: 40,2324           00003                           OCT      3                                     #  R2D5           =(5)
000616: 40,2325           00003                           OCT      3                                     #  R2D4           =(6)
000617: 40,2326           00003                           OCT      3                                     #  R2D3           =(7)
000618: 40,2327           00003                           OCT      3                                     #  R2D2           =(8D)
000619: 40,2330           00003                           OCT      3                                     #  R2D1           =(9D)
000620: 40,2331           00002                           OCT      2                                     #  R1D5           =(10D)


000622: 40,2332           00002                           OCT      2                                     #  R1D4           =(11D)
000623: 40,2333           00002                           OCT      2                                     #  R1D3           =(12D)
000624: 40,2334           00002                           OCT      2                                     #  R1D2           =(13D)
000625: 40,2335           00002                           OCT      2                                     #  R1D1           =(14D)
000626: 40,2336           05701                           TC       CCSHOLE                               #  NO DSPCOUNT NUMBER = 15D
000627: 40,2337           00001                           OCT      1                                     #  ND2            =(16D)
000628: 40,2340           00001                           OCT      1                                     #  ND1            =(17D)
000629: 40,2341           00000                           OCT      0                                     #  VD2            =(18D)
000630: 40,2342           00000                           OCT      0                                     #  VD1            =(19D)
000631:
000632: 40,2343           34746        VERB               CAF      ZERO
000633: 40,2344           55000                           TS       VERBREG
000634: 40,2345           34351                           CAF      VD1
000635: 40,2346           54776        NVCOM              TS       DSPCOUNT
000636: 40,2347           02570                           TC       2BLANK
000637: 40,2350           34744                           CAF      ONE
000638: 40,2351           54777                           TS       DECBRNCH                              #  SET FOR DEC V/N CODE
000639: 40,2352           34746                           CAF      ZERO
000640: 40,2353           55012                           TS       REQRET                                #  SET FOR ENTPAS0
000641: 40,2354           34210                           CAF      ENDINST                               #  IF DSPALARM OCCURS BEFORE FIRST ENTPAS0
000642: 40,2355           54136                           TS       ENTRET                                #  OR NVSUB, ENTRET MUST ALREADY BE SET
000643:                                                                                                  #  TO TC ENDOFJOB
000644: 40,2356           05146                           TC       ENDOFJOB
000645: 40,2357           34746        NOUN               CAF      ZERO
000646: 40,2360           55001                           TS       NOUNREG
000647: 40,2361           34352                           CAF      ND1                                   #  ND1, OCT 21 (DEC 17)
000648: 40,2362           02346                           TC       NVCOM
000649:
000650:
000651: 40,2363           02435        NEGSGN             TC       SIGNTEST
000652: 40,2364           02422                           TC       -ON
000653: 40,2365           34743                           CAF      TWO
000654: 40,2366           50137        BOTHSGN            INDEX    INREL                                 #  SET DEC COMP BIT TO 1 (IN DECBRNCH)
000655: 40,2367           64736                           AD       BIT7                                  #  BIT 5 FOR R1,  BIT 4 FOR R2,
000656: 40,2370           26777                           ADS      DECBRNCH                              #  BIT 3 FOR R3.
000657: 40,2371           11014        FIXCLPAS           CCS      CLPASS                                #  IF CLPASS IS + OR +0, MAKE IT +0.
000658: 40,2372           34746                           CAF      ZERO
000659: 40,2373           55014                           TS       CLPASS
000660: 40,2374           02375                           TC       +1
000661: 40,2375           05146                           TC       ENDOFJOB
000662:
000663: 40,2376           02435        POSGN              TC       SIGNTEST
000664: 40,2377           02402                           TC       +ON
000665: 40,2400           34744                           CAF      ONE
000666: 40,2401           02366                           TC       BOTHSGN
000667:
000668: 40,2402           22002        +ON                LXCH     Q
000669: 40,2403           02313                           TC       GETINREL
000670: 40,2404           50137                           INDEX    INREL


000672: 40,2405           32430                           CAF      SGNTAB     -2
000673: 40,2406           54123                           TS       SGNOFF
000674: 40,2407           64744                           AD       ONE
000675: 40,2410           54122                           TS       SGNON
000676: 40,2411           34746        SGNCOM             CAF      ZERO
000677: 40,2412           54124                           TS       CODE
000678: 40,2413           56123                           XCH      SGNOFF
000679: 40,2414           03433                           TC       11DSPIN
000680: 40,2415           34732                           CAF      BIT11
000681: 40,2416           54124                           TS       CODE
000682: 40,2417           56122                           XCH      SGNON
000683: 40,2420           03433                           TC       11DSPIN
000684: 40,2421           00001                           TC       L
000685: 40,2422           22002        -ON                LXCH     Q
000686: 40,2423           02313                           TC       GETINREL
000687: 40,2424           50137                           INDEX    INREL
000688: 40,2425           32430                           CAF      SGNTAB     -2
000689: 40,2426           54122                           TS       SGNON
000690: 40,2427           64744                           AD       ONE
000691: 40,2430           54123                           TS       SGNOFF
000692: 40,2431           02411                           TC       SGNCOM
000693:
000694: 40,2432           00005        SGNTAB             OCT      5                                     #  -R1
000695: 40,2433           00003                           OCT      3                                     #  -R2
000696: 40,2434           00000                           OCT      0                                     #  -R3
000697:
000698: 40,2435           22002        SIGNTEST           LXCH     Q                                     #  ALLOWS +,- ONLY WHEN DSPCOUNT=R1D1,
000699: 40,2436           36266                           CAF      THREE                                 #  R2D1, OR R3D1. ALLOWS ONLY FIRST OF
000700: 40,2437           70777                           MASK     DECBRNCH                              #  CONSECUTIVE +/- CHARACTERS.
000701: 40,2440           10000                           CCS      A                                     #  IF LOW2 BITS OF DECBRNCH NOT= 0, SIGN
000702: 40,2441           05146                           TC       ENDOFJOB                              #  FOR THIS WORD ALREADY IN. REJECT.
000703: 40,2442           44310                           CS       R1D1
000704: 40,2443           02451                           TC       SGNTST1
000705: 40,2444           44311                           CS       R2D1
000706: 40,2445           02451                           TC       SGNTST1
000707: 40,2446           44312                           CS       R3D1
000708: 40,2447           02451                           TC       SGNTST1
000709: 40,2450           05146                           TC       ENDOFJOB                              #  NO MATCH FOUND. SIGN ILLEGAL
000710: 40,2451           60776        SGNTST1            AD       DSPCOUNT
000711: 40,2452           00006                           EXTEND
000712: 40,2453           12455                           BZF      +2                                    #  MATCH FOUND
000713: 40,2454           00002                           TC       Q
000714: 40,2455           00001                           TC       L                                     #  SIGN LEGAL
000715:
000716:                                                                                                  #  CLEAR BLANKS WHICH R1, R2, R3 IS CURRENT OR LAST TO BE DISPLAYED(PERTINE
000717:                                                                                                  #  NT XREG,YREG,ZREG IS CLEARED). SUCCESSIVE CLEARS TAKE CARE OF EACH RX
000718:                                                                                                  #  L/ RC UNTIL R1 IS DONE. THEN NO FURTHER ACTION


000720:                                                                                                  #  THE SINGLE COMPONENT LOAD VERBS ALLOW ONLY THE SINGLE RC THAT IS
000721:                                                                                                  #  APPROPRIATE TO BE CLEARED.
000722:
000723:                                                                                                  #  CLPASS   +0  PASS0, CAN BE BACKED UP
000724:                                                                                                  #           +NZ  HIPASS, CAN BE BACKED UP
000725:                                                                                                  #           -NZ  PASS0, CANNOT BE BACKED UP
000726:
000727: 40,2456           10776        CLEAR              CCS      DSPCOUNT
000728: 40,2457           64744                           AD       ONE
000729: 40,2460           02462                           TC       +2
000730: 40,2461           64744                           AD       ONE
000731: 40,2462           50000                           INDEX    A                                     #  DO NOT CHANGE DSPCOUNT BECAUSE MAY LATER
000732: 40,2463           32317                           CAF      INRELTAB                              #  FAIL LEGALTST.
000733: 40,2464           54137                           TS       INREL                                 #  MUST SET INREL, EVEN FOR HIPASS.
000734: 40,2465           11014                           CCS      CLPASS
000735: 40,2466           02474                           TC       CLPASHI                               #  +
000736: 40,2467           02471                           TC       +2                                    #  +0    IF CLPASS IS +0 OR -, IT IS PASS0
000737: 40,2470           02471                           TC       +1                                    #  -
000738: 40,2471           30137                           CA       INREL
000739: 40,2472           02516                           TC       LEGALTST
000740: 40,2473           02511                           TC       CLEAR1
000741: 40,2474           10137        CLPASHI            CCS      INREL
000742: 40,2475           54137                           TS       INREL
000743: 40,2476           02516                           TC       LEGALTST
000744: 40,2477           32566                           CAF      DOUBLK     +2                         #  +3 TO - NUMBER. BACKS DATA REQUESTS.
000745: 40,2500           27012                           ADS      REQRET
000746: 40,2501           30137                           CA       INREL
000747: 40,2502           54125                           TS       MIXTEMP                               #  TEMP STORAGE FOR INREL
000748: 40,2503           00006                           EXTEND
000749: 40,2504           27000                           DIM      VERBREG                               #  DECREMENT VERB AND RE-DISPLAY
000750: 40,2505           04607                           TC       BANKCALL
000751: 40,2506           62367                           CADR     UPDATVB
000752: 40,2507           30125                           CA       MIXTEMP
000753: 40,2510           54137                           TS       INREL                                 #  RESTORE INREL
000754: 40,2511           02514        CLEAR1             TC       CLR5
000755: 40,2512           25014                           INCR     CLPASS                                #  ONLY IF CLPASS IS + OR +0,
000756: 40,2513           05146                           TC       ENDOFJOB                              #  SET FOR HIGHER PASS.
000757: 40,2514           22002        CLR5               LXCH     Q                                     #  USES 5BLANK  BUT AVOIDS ITS TC GETINREL
000758: 40,2515           02527                           TC       5BLANK     +2
000759: 40,2516           67767        LEGALTST           AD       NEG2
000760: 40,2517           10000                           CCS      A
000761: 40,2520           00002                           TC       Q                                     #  LEGAL  INREL G/ 2
000762: 40,2521           05701                           TC       CCSHOLE
000763: 40,2522           05146                           TC       ENDOFJOB                              #  ILLEGAL   INREL= 0,1
000764: 40,2523           00002                           TC       Q                                     #  LEGAL    INREL = 2
000765:
000766:
000767:                                                                                                  #  5BLANK BLANKS 5 CHAR DISPLAY WORD IN R1, R2, OR R3. IT ALSO ZEROES XREG,
000768:                                                                                                  #  YREG, OR ZREG.PLACE ANY + DSPCOUNT NUMBER FOR PERTINENT RC INTO DSPCOUNT
000769:                                                                                                  #  DSPCOUNT IS LEFT SET TO LEFT MOST DSP NUMB FOR RC JUST BLANKED.
000770:


000772: 40,2524           54776                           TS       DSPCOUNT                              #  NEEDED FOR BLANKSUB
000773: 40,2525           22002        5BLANK             LXCH     Q
000774: 40,2526           02313                           TC       GETINREL
000775: 40,2527           34746                           CAF      ZERO
000776: 40,2530           50137                           INDEX    INREL
000777: 40,2531           55000                           TS       VERBREG                               #  ZERO X, Y, Z REG.
000778: 40,2532           50137                           INDEX    INREL
000779: 40,2533           55003                           TS       XREGLP     -2
000780: 40,2534           54124                           TS       CODE
000781: 40,2535           50137                           INDEX    INREL                                 #  ZERO PERTINENT DEC COMP BIT.
000782: 40,2536           44736                           CS       BIT7                                  #  PROTECT OTHERS
000783: 40,2537           70777                           MASK     DECBRNCH
000784: 40,2540           72567                           MASK     BRNCHCON                              #  ZERO LOW 2 BITS.
000785: 40,2541           54777                           TS       DECBRNCH
000786: 40,2542           50137                           INDEX    INREL
000787: 40,2543           32557                           CAF      SINBLANK   -2                         #  BLANK ISOLATED CHAR SEPARATELY
000788: 40,2544           54143                           TS       COUNT
000789: 40,2545           03351                           TC       DSPIN
000790: 40,2546           50137        5BLANK1            INDEX    INREL
000791: 40,2547           32562                           CAF      DOUBLK     -2
000792: 40,2550           54776                           TS       DSPCOUNT
000793: 40,2551           02570                           TC       2BLANK
000794: 40,2552           44743                           CS       TWO
000795: 40,2553           26776                           ADS      DSPCOUNT
000796: 40,2554           02570                           TC       2BLANK
000797: 40,2555           50137                           INDEX    INREL
000798: 40,2556           34306                           CAF      R1D1       -2
000799: 40,2557           54776                           TS       DSPCOUNT                              #  SET DSPCOUNT TO LEFT MOST DSP NUMBER
000800: 40,2560           00001                           TC       L                                     #  OF REG. JUST BLANKED
000801:
000802: 40,2561           00016        SINBLANK           OCT      16                                    #  DEC 14
000803: 40,2562           00005                           OCT      5
000804: 40,2563           00004                           OCT      4
000805: 40,2564           00015        DOUBLK             OCT      15                                    #  DEC 13
000806: 40,2565           00011                           OCT      11                                    #  DEC 9
000807: 40,2566           00003                           OCT      3
000808:
000809: 40,2567           77774        BRNCHCON           OCT      77774
000810:
000811:                                                                                                  #  2BLANK BLANKS TWO CHAR. PLACE DSP NUMBER OF LEFT CHAR  OF THE PAIR INTO
000812:                                                                                                  #  DSPCOUNT. THIS NUMBER IS LEFT IN DSPCOUNT
000813:
000814: 40,2570           30776        2BLANK             CA       DSPCOUNT
000815: 40,2571           54021                           TS       SR
000816: 40,2572           42603                           CS       BLANKCON
000817: 40,2573           00004                           INHINT
000818: 40,2574           50021                           INDEX    SR
000819: 40,2575           57022                           XCH      DSPTAB
000820: 40,2576           00006                           EXTEND
000821: 40,2577           62601                           BZMF     +2                                    #  IF OLD CONTENTS -, NOUT OK


000823: 40,2600           25015                           INCR     NOUT                                  #  IF OLD CONTENTS +, +1 TO NOUT
000824: 40,2601           00003                           RELINT                                         #  IF -,NOUT OK
000825: 40,2602           00002                           TC       Q
000826: 40,2603           04000        BLANKCON           OCT      4000
000827:


000829:                                                                                                  #  ENTER PASS 0 IS THE EXECUTE FUNCTION. HIGHER ORDER ENTERS ARE TO LOAD
000830:                                                                                                  #  DATA. THE SIGN OF REQRET DETERMINES THE PASS, + FOR PASS 0,- FOR HIGHER
000831:                                                                                                  #  PASSES.
000832:
000833:
000834:                                                                                                  #  MACHINE CADR TO BE SPECIFIED (MCTBS) NOUNS DESIRE AN ECADR TO BE LOADED
000835:                                                                                                  #  WHEN USED WITH LOAD VERBS, MONITOR VERBS, OR DISPLAY VERBS (EXCEPT
000836:                                                                                                  #  VERB = FIXED MEMORY DISPLAY, WHICH REQUIRES AN FCADR).
000837:
000838:
000839: 41,2020                                           BANK     41
000840: 41,2000                                           SETLOC   PINBALL2
000841: 41,2000                                           BANK
000842:
000843: 41,2020                                           COUNT*   $$/PIN
000844: 41,2020           03613        NVSUBB             TC       NVSUB1                                #  STANDARD LEAD INS. DONT MOVE.
000845: 41,2021           03045        LOADLV1            TC       LOADLV
000846:                                                                                                  #  END OF STANDARD LEAD INS.
000847:
000848:
000849: 41,2022           34746        ENTER              CAF      ZERO
000850: 41,2023           55014                           TS       CLPASS
000851: 41,2024           34210                           CAF      ENDINST
000852: 41,2025           54136                           TS       ENTRET
000853: 41,2026           11012                           CCS      REQRET
000854: 41,2027           02062                           TC       ENTPAS0                               #  IF +, PASS 0
000855: 41,2030           02062                           TC       ENTPAS0                               #  IF +, PASS 0
000856: 41,2031           02032                           TC       +1                                    #  IF -, NOT PASS 0
000857: 41,2032           32060        ENTPASHI           CAF      MMADREF
000858: 41,2033           61012                           AD       REQRET                                #  IF L/ 2 CHAR IN FOR MM CODE, ALARM
000859: 41,2034           00006                           EXTEND                                         #  AND RECYCLE(DECIDE AT MMCHANG+1).
000860: 41,2035           12047                           BZF      ACCEPTWD
000861: 41,2036           36266                           CAF      THREE                                 #  IF DEC, L/5 CHAR IN FOR DATA MUST BE
000862: 41,2037           70777                           MASK     DECBRNCH                              #  SCALED (DECEND); IF 5 CHAR IN, DATA
000863: 41,2040           10000                           CCS      A                                     #  HAS ALREADY BEEN SCALED. ANY NUMBER
000864: 41,2041           02043                           TC       +2                                    #  OF DECIMAL CHARACTERS ARE ACCEPTABLE.SCR
000865: 41,2042           02047                           TC       ACCEPTWD                              #  OCTAL. ANY NUMBER OF CHAR OK.
000866: 41,2043           10776                           CCS      DSPCOUNT
000867: 41,2044           02053                           TC       LT5
000868: 41,2045           02053                           TC       LT5
000869: 41,2046           02047                           TC       +1                                    #  5 CHAR IN (DSPCOUNT IS -)
000870: 41,2047           41012        ACCEPTWD           CS       REQRET                                #  5 CHAR IN (DSPCOUNT IS -)
000871: 41,2050           55012                           TS       REQRET                                #  SET REQRET +.
000872: 41,2051           04424                           TC       FLASHOFF
000873: 41,2052           01012                           TC       REQRET
000874:
000875: 41,2053           34746        LT5                CAF      ZERO
000876: 41,2054           54154                           TS       MPAC
000877: 41,2055           04607                           TC       BANKCALL
000878: 41,2056           60254                           CADR     DECEND     +4


000880: 41,2057           02047                           TC       ACCEPTWD
000881: 41,2060     0136               ENTEXIT            =        ENTRET
000882:
000883: 41,2060           03471        MMADREF            ADRES    MMCHANG    +1                         #  ASSUMES TC REQMM AT MMCHANG.
000884:
000885: 41,2061           00034        LOWVERB            DEC      28         B-14                       #  LOWER VERB THAT AVOIDS NOUN TEST.
000886:
000887: 41,2062           34746        ENTPAS0            CAF      ZERO                                  #   NOUN VERB SUB ENTERS HERE
000888: 41,2063           54777                           TS       DECBRNCH
000889: 41,2064           44351                           CS       VD1                                   #  BLOCK FURTHER NUM CHAR, SO THAT STRAY
000890: 41,2065           54776                           TS       DSPCOUNT                              #  CHAR DO NOT GET INTO VERB OR NOUN LTS.
000891: 41,2066           41000        TESTVB             CS       VERBREG                               #  IF VERB IS G/E LOWVB, SKIP NOUN TEST.
000892: 41,2067           55040                           TS       VERBSAVE                              #  SAVE VERB FOR POSSIBLE RECYCLE.
000893: 41,2070           62061                           AD       LOWVERB                               #  LOWVERB - VB
000894: 41,2071           00006                           EXTEND
000895: 41,2072           62160                           BZMF     VERBFAN                               #  VERB G/E LOWVERB
000896: 41,2073           00006        TESTNN             EXTEND                                         #  VERB L/ LOWVERB
000897: 41,2074           32141                           DCA      LODNNLOC                              #  SWITCH BANKS TO NOUN TABLE READING
000898: 41,2075           52006                           DXCH     Z                                     #  ROUTINE.
000899: 41,2076           50140                           INDEX    MIXBR
000900: 41,2077           02077                           TC       +0
000901: 41,2100           02102                           TC       +2                                    #  NORMAL
000902: 41,2101           02246                           TC       MIXNOUN                               #  MIXED
000903: 41,2102           10146                           CCS      NNADTEM                               #  NORMAL
000904: 41,2103           02156                           TC       VERBFAN    -2                         #       NORMAL IF +
000905: 41,2104           02400                           TC       GODSPALM                              #  NOT IN USE   IF +0
000906: 41,2105           02111                           TC       REQADD                                #  SPECIFY MACHINE CADR IF -
000907: 41,2106           25016                           INCR     NOUNCADR                              #  AUGMENT MACHINE CADR IF -0
000908: 41,2107           04302                           TC       SETNADD                               #  ECADR FROM NOUNCADR. SETS EB, NOUNADD.
000909: 41,2110           02145                           TC       INTMCTBS   +2
000910: 41,2111           34726        REQADD             CAF      BIT15                                 #  SET CLPASS FOR PASS0 ONLY
000911: 41,2112           55014                           TS       CLPASS
000912: 41,2113           44210                           CS       ENDINST                               #  TEST IF REACHED HERE FROM INTERNAL OR
000913: 41,2114           60136                           AD       ENTEXIT                               #              FROM EXTERNAL
000914: 41,2115           00006                           EXTEND
000915: 41,2116           12120                           BZF      +2                                    #  EXTERNAL MACH CADR TO BE SPECIFIED
000916: 41,2117           02143                           TC       INTMCTBS
000917: 41,2120           02336                           TC       REQDATZ                               #  EXTERNAL MACH CADR TO BE SPECIFIED
000918: 41,2121           10777                           CCS      DECBRNCH                              #  ALARM AND RECYCLE IF DECIMAL USED
000919: 41,2122           06020                           TC       ALMCYCLE                              #  FOR MCTBS.
000920: 41,2123           44351                           CS       VD1                                   #  OCTAL USED  OK
000921: 41,2124           54776                           TS       DSPCOUNT                              #  BLOCK NUM CHAR IN
000922: 41,2125           11041                           CCS      CADRSTOR
000923: 41,2126           02131                           TC       +3                                    #  EXTERNAL MCTBS DISPLAY WILL LEAVE FLASH
000924: 41,2127           02132                           TC       USEADD                                #  ON IF ENDIDLE NOT = +0.
000925: 41,2130           02131                           TC       +1
000926: 41,2131           04420                           TC       FLASHON
000927: 41,2132           57004        USEADD             XCH      ZREG
000928: 41,2133           04274                           TC       SETNCADR                              #  ECADR INTO NOUNCADR. SET EB, NOUNADD.
000929: 41,2134           00006                           EXTEND


000931: 41,2135           32141                           DCA      LODNNLOC                              #  SWITCH BANKS TO NOUN TABLE READING
000932: 41,2136           52006                           DXCH     Z                                     #  ROUTINE.
000933: 41,2137           02160                           TC       VERBFAN
000934:
000935: 41,2140     0776                                  EBANK=   DSPCOUNT
000936: 41,2140           02110 64101  LODNNLOC           2CADR    LODNNTAB
000937:
000938:
000939: 41,2142           77772        NEG5               OCT      77772
000940:
000941: 41,2143           30156        INTMCTBS           CA       MPAC       +2                         #  INTERNAL MACH CADR TO BE SPECIFIED.
000942: 41,2144           04274                           TC       SETNCADR                              #  ECADR INTO NOUNCADR. SET EB, NOUNADD.
000943: 41,2145           44747                           CS       FIVE                                  #  NVSUB CALL LEFT CADR IN MPAC+2 FOR MACH
000944: 41,2146           61000                           AD       VERBREG                               #  CADR TO BE SPECIFIED.
000945: 41,2147           00006                           EXTEND
000946: 41,2150           12160                           BZF      VERBFAN                               #  DONT DISPLAY CADR IF VB = 05.
000947: 41,2151           34312                           CAF      R3D1                                  #  VB NOT = 05. DISPLAY CADR.
000948: 41,2152           54776                           TS       DSPCOUNT
000949: 41,2153           31016                           CA       NOUNCADR
000950: 41,2154           03435                           TC       DSPOCTWD
000951: 41,2155           02160                           TC       VERBFAN
000952:
000953: 41,2156           64744                           AD       ONE
000954: 41,2157           04274                           TC       SETNCADR                              #  ECADR INTO NOUNCADR. SETS EB, NOUNADD.
000955: 41,2160           42172        VERBFAN            CS       LST2CON
000956: 41,2161           61000                           AD       VERBREG                               #  VERB-LST2CON
000957: 41,2162           10000                           CCS      A
000958: 41,2163           64744                           AD       ONE                                   #  VERB G/ LST2CON
000959: 41,2164           02166                           TC       +2
000960: 41,2165           02173                           TC       VBFANDIR                              #  VERB L/ LST2CON
000961: 41,2166           54154                           TS       MPAC
000962: 41,2167           04450                           TC       RELDSP                                #  RELEASE DISPLAY SYST
000963: 41,2170           04626                           TC       POSTJUMP                              #  GO TO GOEXTVB WITH VB-40 IN MPAC.
000964: 41,2171           66000                           CADR     GOEXTVB
000965: 41,2172           00050        LST2CON            DEC      40         B-14                       #  FIRST LIST2 VERB (EXTENDED VERB)
000966:
000967: 41,2173           51000        VBFANDIR           INDEX    VERBREG
000968: 41,2174           32176                           CAF      VERBTAB
000969: 41,2175           04631                           TC       BANKJUMP
000970:
000971: 41,2176           62400        VERBTAB            CADR     GODSPALM                              #  VB00 ILLEGAL
000972: 41,2177           62414                           CADR     DSPA                                  #  VB01 DISPLAY OCT COMP 1 (R1)
000973: 41,2200           62422                           CADR     DSPB                                  #  VB02 DISPLAY OCT COMP 2 (R1)
000974: 41,2201           62427                           CADR     DSPC                                  #  VB03 DISPLAY OCT COMP 3 (R1)
000975: 41,2202           62407                           CADR     DSPAB                                 #  VB04 DISPLAY OCT COMP 1,2 (R1,R2)
000976: 41,2203           62402                           CADR     DSPABC                                #  VB05 DISPLAY OCT COMP 1,2,3 (R1,R2,R3)
000977: 41,2204           62552                           CADR     DECDSP                                #  VB06 DECIMAL DISPLAY
000978: 41,2205           61020                           CADR     DSPDPDEC                              #  VB07 DP DECIMAL DISPLAY (R1,R2)
000979: 41,2206           62400                           CADR     GODSPALM                              #  VB08 SPARE
000980: 41,2207           62400                           CADR     GODSPALM                              #  VB09 SPARE


000982: 41,2210           61447                           CADR     DSPALARM                              #  VB10 SPARE
000983: 41,2211           63302                           CADR     MONITOR                               #  VB11 MONITOR OCT COMP 1 (R1)
000984: 41,2212           63302                           CADR     MONITOR                               #  VB12 MONITOR OCT COMP 2 (R1)
000985: 41,2213           63302                           CADR     MONITOR                               #  VB13 MONITOR OCT COMP 3 (R1)
000986: 41,2214           63302                           CADR     MONITOR                               #  VB14 MONITOR OCT COMP 1,2 (R1,R2)
000987: 41,2215           63302                           CADR     MONITOR                               #  VB15 MONITOR OCT COMP 1,2,3 (R1,R2,R3)
000988: 41,2216           63302                           CADR     MONITOR                               #  VB16 MONITOR DECIMAL
000989: 41,2217           63302                           CADR     MONITOR                               #  VB17 MONITOR DP DEC  (R1,R2)
000990: 41,2220           62400                           CADR     GODSPALM                              #  VB18 SPARE
000991: 41,2221           62400                           CADR     GODSPALM                              #  VB19 SPARE
000992: 41,2222           62400                           CADR     GODSPALM                              #  VB20 SPARE
000993: 41,2223           63002                           CADR     ALOAD                                 #  VB21 LOAD COMP 1 (R1)
000994: 41,2224           63013                           CADR     BLOAD                                 #  VB22 LOAD COMP 2 (R2)
000995: 41,2225           63030                           CADR     CLOAD                                 #  VB23 LOAD COMP 3 (R3)
000996: 41,2226           62753                           CADR     ABLOAD                                #  VB24 LOAD COMP 1,2 (R1,R2)
000997: 41,2227           62647                           CADR     ABCLOAD                               #  VB25 LOAD COMP 1,2,3 (R1,R2,R3)
000998: 41,2230           62400                           CADR     GODSPALM                              #  VB26 SPARE
000999: 41,2231           63425                           CADR     DSPFMEM                               #  VB27 FIXED MEMORY DISPLAY
001000:                                                                                                  #  THE FOLLOWING VERBS MAKE NO NOUN TEST
001001: 41,2232           62400                           CADR     GODSPALM                              #  VB28 SPARE
001002: 41,2233           62400                           CADR     GODSPALM                              #  VB29 SPARE
001003: 41,2234           63526        REQEXLOC           CADR     VBRQEXEC                              #  VB30 REQUEST EXECUTIVE
001004: 41,2235           63557                           CADR     VBRQWAIT                              #  VB31 REQUEST WAITLIST
001005: 41,2236           61514                           CADR     VBRESEQ                               #  VB32 RESEQUENCE
001006: 41,2237           61471                           CADR     VBPROC                                #  VB33 PROCEED WITHOUT DATA
001007: 41,2240           61477                           CADR     VBTERM                                #  VB34 TERMINATE CURRENT TEST OR LOAD REQ
001008: 41,2241           63662                           CADR     VBTSTLTS                              #  VB35 TEST LIGHTS
001009: 41,2242           12454                           CADR     SLAP1                                 #  VB36 FRESH START
001010: 41,2243           63470                           CADR     MMCHANG                               #  VB37 CHANGE MAJOR MODE
001011: 41,2244           62400                           CADR     GODSPALM                              #  VB38 SPARE
001012: 41,2245           62400                           CADR     GODSPALM                              #  VB39 SPARE
001013:
001014:
001015:                                                                                                  #  THE LIST2 VERBFAN IS LOCATED IN THE EXTENDED VERB BANK.
001016:


001018:                                                                                                  #  NNADTAB CONTAINS A RELATIVE ADDRESS, IDADDREL(IN LOW 10 BITS), REFERRING
001019:                                                                                                  #  TO WHERE 3 CONSECUTIVE ADDRESSES ARE STORED (IN IDADDTAB).
001020:                                                                                                  #  MIXNOUN GETS DATA AND STORES IN MIXTEMP,+1,+2. IT SETS NOUNADD FOR
001021:                                                                                                  #   MIXTEMP.
001022:
001023: 41,2246           10146        MIXNOUN            CCS      NNADTEM
001024: 41,2247           02253                           TC       +4                                    #  +  IN USE
001025: 41,2250           02400                           TC       GODSPALM                              #  +0  NOT IN USE
001026: 41,2251           02253                           TC       +2                                    #  -  IN USE
001027: 41,2252           02253                           TC       +1                                    #  -0  IN USE
001028: 41,2253           46263                           CS       SIX
001029: 41,2254           61000                           AD       VERBREG
001030: 41,2255           00006                           EXTEND
001031: 41,2256           62260                           BZMF     +2                                    #  VERB L/E 6
001032: 41,2257           02160                           TC       VERBFAN                               #  AVOID MIXNOUN SWAP IF VB NOT = DISPLAY
001033: 41,2260           34743                           CAF      TWO
001034: 41,2261           54117        MIXNN1             TS       DECOUNT
001035: 41,2262           62305                           AD       MIXAD
001036: 41,2263           54145                           TS       NOUNADD                               #  SET NOUNADD TO MIXTEMP + K
001037: 41,2264           50117                           INDEX    DECOUNT                               #  GET IDADDTAB ENTRY FOR COMPONENT K
001038: 41,2265           30150                           CA       IDAD1TEM                              #  OF NOUN.
001039: 41,2266           54122                           TS       NOUNTEM
001040:                                                                                                  #  TEST FOR DP(FOR OCT DISPLAY). IF SO, GET
001041:                                                                                                  #    MINOR PART ONLY.
001042: 41,2267           03104                           TC       SFRUTMIX                              #  GET SF ROUT NUMBER IN A
001043: 41,2270           02306                           TC       DPTEST
001044: 41,2271           02273                           TC       MIXNN2                                #  NO DP
001045: 41,2272           24122                           INCR     NOUNTEM                               #  DP  GET MINOR PART
001046: 41,2273           30122        MIXNN2             CA       NOUNTEM
001047: 41,2274           74347                           MASK     LOW11                                 #  ESUBK (NO DP)  OR (ESUBK)+1    FOR DP
001048: 41,2275           04304                           TC       SETEBANK                              #  SET EBANK, LEAVE EADRES IN A.
001049: 41,2276           50000                           INDEX    A                                     #  PICK UP C(ESUBK)  NOT DP
001050: 41,2277           30000                           CA       0                                     #  OR C((ESUBK)+1)  FOR DP MINOR PART
001051: 41,2300           50145                           INDEX    NOUNADD
001052: 41,2301           56000                           XCH      0                                     #  STORE IN MIXTEM + K
001053: 41,2302           10117                           CCS      DECOUNT
001054: 41,2303           02261                           TC       MIXNN1
001055: 41,2304           02160                           TC       VERBFAN
001056:
001057: 41,2305           00125        MIXAD              TC       MIXTEMP
001058:
001059:
001060:                                                                                                  #  DPTEST   ENTER WITH SF ROUT NUMBER IN A.
001061:                                                                                                  #           RETURNS TO L+1 IF NO DP.
001062:                                                                                                  #           RETURNS TO L+2 IF DP.
001063:
001064: 41,2306           50000        DPTEST             INDEX    A
001065: 41,2307           12310                           TCF      +1
001066: 41,2310           00002                           TC       Q                                     #  OCTAL ONLY  NO DP
001067: 41,2311           00002                           TC       Q                                     #  FRACT NO DP


001069: 41,2312           00002                           TC       Q                                     #  DEG  NO DP
001070: 41,2313           00002                           TC       Q                                     #  ARITH  NO DP
001071: 41,2314           12330                           TCF      DPTEST1                               #  DP1OUT
001072: 41,2315           12330                           TCF      DPTEST1                               #  DP2OUT
001073: 41,2316           00002                           TC       Q                                     #  LRPOSOUT  NO DP (DATA IN CHANNEL 33)
001074: 41,2317           12330                           TCF      DPTEST1                               #  DP3OUT
001075: 41,2320           00002                           TC       Q                                     #  HMS   NO DP
001076: 41,2321           00002                           TC       Q                                     #  M/S   NO DP
001077: 41,2322           12330                           TCF      DPTEST1                               #  DP4OUT
001078: 41,2323           00002                           TC       Q                                     #  ARITH1   NO DP
001079: 41,2324           00002                           TC       Q                                     #  2INTOUT  NO DP TO GET HI PART IN MPAC
001080: 41,2325           00002                           TC       Q                                     #  360-CDU   NO DP
001081: 41,2326           00002                           TC       Q                                     #  RRANGOUT  NO DP
001082: 41,2327           00002                           TC       Q                                     #  RRDOTOUT  NO DP
001083: 41,2330           50002        DPTEST1            INDEX    Q
001084: 41,2331           00001                           TC       1                                     #  RETURN TO L+2
001085:
001086:
001087: 41,2332           34310        REQDATX            CAF      R1D1
001088: 41,2333           12337                           TCF      REQCOM
001089: 41,2334           34311        REQDATY            CAF      R2D1
001090: 41,2335           12337                           TCF      REQCOM
001091: 41,2336           34312        REQDATZ            CAF      R3D1
001092: 41,2337           54776        REQCOM             TS       DSPCOUNT
001093: 41,2340           40002                           CS       Q
001094: 41,2341           55012                           TS       REQRET
001095: 41,2342           04607                           TC       BANKCALL
001096: 41,2343           60525                           CADR     5BLANK
001097: 41,2344           04420                           TC       FLASHON
001098: 41,2345           00136        ENDRQDAT           TC       ENTEXIT
001099:
001100: 41,2346           55001                           TS       NOUNREG
001101: 41,2347           56002        UPDATNN            XCH      Q
001102: 41,2350           54117                           TS       UPDATRET
001103: 41,2351           00006                           EXTEND
001104: 41,2352           32141                           DCA      LODNNLOC                              #  SWITCH BANKS TO NOUN TABLE READING
001105: 41,2353           52006                           DXCH     Z                                     #  ROUTINE.
001106: 41,2354           10146                           CCS      NNADTEM
001107: 41,2355           64744                           AD       ONE                                   #  NORMAL
001108: 41,2356           12361                           TCF      PUTADD
001109: 41,2357           12362                           TCF      PUTADD     +1                         #  MCTBS  DONT CHANGE NOUNADD
001110: 41,2360           12362                           TCF      PUTADD     +1                         #  MCTBI  DONT CHANGE NOUNADD
001111: 41,2361           04274        PUTADD             TC       SETNCADR                              #  ECADR INTO NOUNCADR. SETS EB, NOUNADD.
001112: 41,2362           34352                           CAF      ND1
001113: 41,2363           54776                           TS       DSPCOUNT
001114: 41,2364           31001                           CA       NOUNREG
001115: 41,2365           12374                           TCF      UPDAT1
001116:
001117: 41,2366           55000                           TS       VERBREG
001118: 41,2367           56002        UPDATVB            XCH      Q


001120: 41,2370           54117                           TS       UPDATRET
001121: 41,2371           34351                           CAF      VD1
001122: 41,2372           54776                           TS       DSPCOUNT
001123: 41,2373           31000                           CA       VERBREG
001124: 41,2374           04626        UPDAT1             TC       POSTJUMP                              #  CANT USE SWCALL TO GO TO DSPDECVN,SINCE
001125: 41,2375           61346                           CADR     GOVNUPDT                              #  UPDATVB CAN ITSELF BE CALLED BY SWCALL.
001126: 41,2376           00117                           TC       UPDATRET
001127:
001128:
001129: 41,2377           06020        GOALMCYC           TC       ALMCYCLE                              #  NEEDED BECAUSE BANKJUMP CANT HANDLE F/F.
001130:
001131: 41,2400           04626        GODSPALM           TC       POSTJUMP
001132: 41,2401           61447                           CADR     DSPALARM
001133:


001135:                                                                                                  #           NOUN   TABLES
001136:                                                                                                  #  NOUN CODE L/40, NORMAL NOUN CASE.  NOUN CODE G/E 40, MIXED NOUN CASE.
001137:                                                                                                  #  FOR NORMAL CASE, NNADTAB CONTAINS ONE       ECADR     FOR EACH NOUN.
001138:                                                                                                  #  +0 INDICATES NOUN NOT USED.   - ENTRY INDICATES MACHINE CADR(E OR F) TO
001139:                                                                                                  #  BE SPECIFIED. -1 INDICATES CHANNEL TO BE SPECIFIED. -0 INDICATES AUGMENT
001140:                                                                                                  #  OF LAST MACHINE CADR SUPPLIED.
001141:
001142:                                                                                                  #  FOR MIXED CASE, NNADTAB CONTAINS ONE INDIRECT ADDRESS(IDADDREL) IN LOW
001143:                                                                                                  #  10 BITS, AND THE COMPONENT CODE NUMBER IN THE HIGH 5 BITS.
001144:
001145:                                                                                                  #  NNTYPTAB IS A PACKED TABLE OF THE FORM MMMMMNNNNNPPPPP.
001146:
001147:                                                                                                  #  FOR THE NORMAL CASE, M-S ARE THE COMPONENT CODE NUMBER.
001148:                                                                                                  #                       N-S ARE THE SF ROUTINE CODE NUMBER.
001149:                                                                                                  #                       P-S ARE THE SF CONSTANT CODE NUMBER.
001150:
001151:                                                                                                  #  MIXED CASE,M-S ARE THE SF CONSTANT3 CODE NUMBER     3 COMPONENT CASE
001152:                                                                                                  #             N-S ARE THE SF CONSTANT2 CODE NUMBER
001153:                                                                                                  #             P-S ARE THE SF CONSTANT1 CODE NUMBER
001154:                                                                                                  #             N-S ARE THE SF CONSTANT2 CODE NUMBER     2 COMPONENT CASE
001155:                                                                                                  #             P-S ARE THE SF CONSTANT1 CODE NUMBER
001156:                                                                                                  #             P-S ARE THE SF CONSTANT1 CODE NUMBER      1 COMPONENT CASE
001157:
001158:                                                                                                  #  THERE IS ALSO AN INDIRECT ADDRESS TABLE(IDADDTAB) FOR MIXED CASE ONLY.
001159:                                                                                                  #  EACH ENTRY CONTAINS ONE ECADR.    IDADDREL IS THE RELATIVE ADDRESS OF
001160:                                                                                                  #  THE FIRST OF THESE ENTRIES.
001161:                                                                                                  #  THERE IS ONE ENTRY IN THIS TABLE FOR EACH COMPONENT OF A MIXED NOUN
001162:                                                                                                  #  THEY ARE LISTED IN ORDER OF ASCENDING K.
001163:
001164:                                                                                                  #  THERE IS ALSO A SCALE FACTOR ROUTINE NUMBER TABLE( RUTMXTAB ) FOR MIXED
001165:                                                                                                  #  CASE ONLY. THERE IS ONE ENTRY PER MIXED NOUN. THE FORM IS,
001166:                                                                                                  #        QQQQQRRRRRSSSSS
001167:                                                                                                  #  Q-S ARE THE SF ROUTINE 3 CODE NUMBER     3 COMPONENT CASE
001168:                                                                                                  #  R-S ARE THE SF ROUTINE 2 CODE NUMBER
001169:                                                                                                  #  S-S ARE THE SF ROUTINE 1 CODE NUMBER
001170:                                                                                                  #  R-S ARE THE SF ROUTINE 2 CODE NUMBER     2 COMPONENT CASE
001171:                                                                                                  #  S-S ARE THE SF ROUTINE 1 CODE NUMBER
001172:
001173:
001174:                                                                                                  #  IN OCTAL DISPLAY AND LOAD (OCT OR DEC) VERBS, EXCLUDE USE OF VERBS WHOSE
001175:                                                                                                  #  COMPONENT NUMBER IS GREATER THAN THE NUMBER OF COMPONENTS IN NOUN.
001176:                                                                                                  #  (ALL MACHINE ADDRESS TO BE SPECIFIED NOUNS ARE 3 COMPONENT.)
001177:
001178:
001179:                                                                                                  #  IN MULTI-COMPONENT LOAD VERBS, NO MIXING OF OCTAL AND DECIMAL DATA
001180:                                                                                                  #  COMPONENT WORDS IS ALLOWED. ALARM IF VIOLATION.
001181:
001182:                                                                                                  #  IN DECIMAL LOADS OF DATA, 5 NUMERICAL CHARACTERS MUST BE KEYED IN
001183:                                                                                                  #  BEFORE EACH ENTER. IF NOT, ALARM.
001184:


001186:                                                                                                  #           DISPLAY  VERBS
001187: 41,2402           44743        DSPABC             CS       TWO
001188: 41,2403           02453                           TC       COMPTEST
001189: 41,2404           50145                           INDEX    NOUNADD
001190: 41,2405           40002                           CS       2
001191: 41,2406           56132                           XCH      BUF        +2
001192: 41,2407           44744        DSPAB              CS       ONE
001193: 41,2410           02453                           TC       COMPTEST
001194: 41,2411           50145                           INDEX    NOUNADD
001195: 41,2412           40001                           CS       1
001196: 41,2413           56131                           XCH      BUF        +1
001197: 41,2414           02472        DSPA               TC       DECTEST
001198: 41,2415           02515                           TC       TSTFORDP
001199: 41,2416           50145                           INDEX    NOUNADD
001200: 41,2417           40000                           CS       0
001201: 41,2420           56130        DSPCOM1            XCH      BUF
001202: 41,2421           02434                           TC       DSPCOM2
001203: 41,2422           44744        DSPB               CS       ONE
001204: 41,2423           02466                           TC       DCOMPTST
001205: 41,2424           50145                           INDEX    NOUNADD
001206: 41,2425           40001                           CS       1
001207: 41,2426           02420                           TC       DSPCOM1
001208: 41,2427           44743        DSPC               CS       TWO
001209: 41,2430           02466                           TC       DCOMPTST
001210: 41,2431           50145                           INDEX    NOUNADD
001211: 41,2432           40002                           CS       2
001212: 41,2433           02420                           TC       DSPCOM1
001213: 41,2434           44743        DSPCOM2            CS       TWO                                   #  A  B  C  AB  ABC
001214: 41,2435           61000                           AD       VERBREG                               #  -1 -0 +1 +2  +3   IN A
001215: 41,2436           10000                           CCS      A                                     #  +0 +0 +0 +1  +2    IN A AFTER CCS
001216: 41,2437           02442                           TC       DSPCOM3
001217: 41,2440           00136                           TC       ENTEXIT
001218: 41,2441           02442                           TC       +1
001219: 41,2442           54122        DSPCOM3            TS       DISTEM                                #  +0,+1,+2 INTO DISTEM
001220: 41,2443           50000                           INDEX    A
001221: 41,2444           34310                           CAF      R1D1
001222: 41,2445           54776                           TS       DSPCOUNT
001223: 41,2446           50122                           INDEX    DISTEM
001224: 41,2447           40130                           CS       BUF
001225: 41,2450           03435                           TC       DSPOCTWD
001226: 41,2451           56122                           XCH      DISTEM
001227: 41,2452           02436                           TC       DSPCOM2    +2
001228:
001229:                                                                                                  #  COMPTEST ALARMS IF COMPONENT NUMBER OF VERB(LOAD OR OCT DISPLAY) IS
001230:                                                                                                  #  GREATER THAN THE HIGHEST COMPONENT NUMBER OF NOUN.
001231: 41,2453           54123        COMPTEST           TS       SFTEMP1                               #  - VERB COMP
001232: 41,2454           22002                           LXCH     Q
001233: 41,2455           02544        COMPTST1           TC       GETCOMP
001234: 41,2456           04322                           TC       LEFT5
001235: 41,2457           76266                           MASK     THREE                                 #  NOUN COMP


001237: 41,2460           60123                           AD       SFTEMP1                               #  NOUN COMP - VERB COMP
001238: 41,2461           10000                           CCS      A
001239: 41,2462           00001                           TC       L                                     #  NOUN COMP G/ VERB COMP
001240: 41,2463           05701                           TC       CCSHOLE
001241: 41,2464           02400                           TC       GODSPALM                              #  NOUN COMP L/ VERB COMP
001242: 41,2465           00001        NDCMPTST           TC       L                                     #  NOUN COMP = VERB COMP
001243:
001244:
001245:                                                                                                  #  DCOMPTST ALARMS IF DECIMAL ONLY BIT (BIT4 OF COMP CODE NUMBER) = 1.
001246:                                                                                                  #  IF NOT, IT PERFORMS REGULAR COMPTEST.
001247: 41,2466           54123        DCOMPTST           TS       SFTEMP1                               #  - VERB COMP
001248: 41,2467           22002                           LXCH     Q
001249: 41,2470           02472                           TC       DECTEST
001250: 41,2471           02455                           TC       COMPTST1
001251:
001252: 41,2472           00006        DECTEST            EXTEND                                         #  ALARMS IF DEC ONLY BIT = 1 (BIT4 OF COMP
001253: 41,2473           22156                           QXCH     MPAC       +2                         #  CODE NUMBER). RETURNS IF NOT.
001254: 41,2474           02544                           TC       GETCOMP
001255: 41,2475           74727                           MASK     BIT14
001256: 41,2476           10000                           CCS      A
001257: 41,2477           02400                           TC       GODSPALM
001258: 41,2500           00156                           TC       MPAC       +2
001259:
001260:
001261: 41,2501           22002        DCTSTCYC           LXCH     Q                                     #  ALARMS AND RECYCLES IF DEC ONLY BIT = 1
001262: 41,2502           02544                           TC       GETCOMP                               #  ( BIT4 OF COMP CODE NUMBER). RETURNS
001263: 41,2503           74727                           MASK     BIT14                                 #  IF NOT.  USED BY LOAD VERBS.
001264: 41,2504           10000                           CCS      A
001265: 41,2505           06020                           TC       ALMCYCLE
001266: 41,2506           00001                           TC       L
001267:
001268:
001269:                                                                                                  #  NOUNTEST ALARMS IF NO-LOAD BIT (BIT5 OF COMP CODE NUMBER) = 1.
001270:                                                                                                  #  IF NOT, IT RETURNS.
001271: 41,2507           22002        NOUNTEST           LXCH     Q
001272: 41,2510           02544                           TC       GETCOMP
001273: 41,2511           10000                           CCS      A
001274: 41,2512           00001                           TC       L
001275: 41,2513           00001                           TC       L
001276: 41,2514           02400                           TC       GODSPALM
001277:
001278:
001279: 41,2515           22002        TSTFORDP           LXCH     Q                                     #  TEST FOR DP. IF SO, GET MINOR PART ONLY.
001280: 41,2516           30146                           CA       NNADTEM
001281: 41,2517           64744                           AD       ONE                                   #  IF NNADTEM = -1, CHANNEL TO BE SPECIFIED
001282: 41,2520           00006                           EXTEND
001283: 41,2521           12533                           BZF      CHANDSP
001284: 41,2522           50140                           INDEX    MIXBR
001285: 41,2523           02523                           TC       +0
001286: 41,2524           02526                           TC       +2                                    #  NORMAL


001288: 41,2525           00001                           TC       L                                     #  MIXED CASE ALREADY HANDLED IN MIXNOUN
001289: 41,2526           03076                           TC       SFRUTNOR
001290: 41,2527           02306                           TC       DPTEST
001291: 41,2530           00001                           TC       L                                     #  NO DP
001292: 41,2531           24145                           INCR     NOUNADD                               #  DP    E+1 INTO NOUNADD FOR MINOR PART.
001293: 41,2532           00001                           TC       L
001294:
001295:
001296: 41,2533           31016        CHANDSP            CA       NOUNCADR
001297: 41,2534           74775                           MASK     LOW9
001298: 41,2535           00006                           EXTEND
001299: 41,2536           50000                           INDEX    A
001300: 41,2537           00000                           READ     0
001301: 41,2540           40000                           CS       A
001302: 41,2541           12420                           TCF      DSPCOM1
001303:
001304:
001305: 41,2542           00147        COMPICK            ADRES    NNTYPTEM
001306: 41,2543           00146                           ADRES    NNADTEM
001307:
001308: 41,2544           50140        GETCOMP            INDEX    MIXBR                                 #  NORMAL                MIXED
001309: 41,2545           32541                           CAF      COMPICK    -1                         #  ADRES NNTYPTEM        ADRES NNADTEM
001310: 41,2546           50000                           INDEX    A
001311: 41,2547           30000                           CA       0                                     #  C(NNTYPTEM)           C(NNADTEM)
001312: 41,2550           74341                           MASK     HI5                                   #  GET HI5 OF NNTYPTAB(NORM)OF NNADTAB(MIX)
001313: 41,2551           00002                           TC       Q
001314:
001315:
001316: 41,2552           02544        DECDSP             TC       GETCOMP
001317: 41,2553           04322                           TC       LEFT5
001318: 41,2554           76266                           MASK     THREE
001319: 41,2555           54117                           TS       DECOUNT                               #  COMP NUMBER INTO DECOUNT
001320: 41,2556           54122        DSPDCGET           TS       DECTEM                                #  PICKS UP DATA
001321: 41,2557           60145                           AD       NOUNADD                               #  DECTEM  1COMP +0, 2COMP +1, 3COMP +2
001322: 41,2560           50000                           INDEX    A
001323: 41,2561           40000                           CS       0
001324: 41,2562           50122                           INDEX    DECTEM
001325: 41,2563           57002                           XCH      XREG                                  #  CANT USE BUF SINCE DMP USES IT.
001326: 41,2564           10122                           CCS      DECTEM
001327: 41,2565           02556                           TC       DSPDCGET                              #  MORE TO GET
001328: 41,2566           34746        DSPDCPUT           CAF      ZERO                                  #  DISPLAYS DATA
001329: 41,2567           54155                           TS       MPAC       +1                         #  DECOUNT 1COMP +0, 2COMP +1, 3COMP +2
001330: 41,2570           54156                           TS       MPAC       +2
001331: 41,2571           50117                           INDEX    DECOUNT
001332: 41,2572           34310                           CAF      R1D1
001333: 41,2573           54776                           TS       DSPCOUNT
001334: 41,2574           50117                           INDEX    DECOUNT
001335: 41,2575           41002                           CS       XREG
001336: 41,2576           54154                           TS       MPAC
001337: 41,2577           03117                           TC       SFCONUM                               #  2X( SF CON NUMB ) IN A


001339: 41,2600           54123                           TS       SFTEMP1
001340: 41,2601           00006                           EXTEND                                         #  SWITCH BANKS TO SF CONSTANT TABLE
001341: 41,2602           32614                           DCA      GTSFOUTL                              #     READING ROUTINE.
001342: 41,2603           52006                           DXCH     Z                                     #  LOADS SFTEMP1, SFTEMP2.
001343: 41,2604           50140                           INDEX    MIXBR
001344: 41,2605           02605                           TC       +0
001345: 41,2606           02611                           TC       DSPSFNOR
001346: 41,2607           03104                           TC       SFRUTMIX
001347: 41,2610           02624                           TC       DECDSP3
001348:
001349: 41,2611           03076        DSPSFNOR           TC       SFRUTNOR
001350: 41,2612           02624                           TC       DECDSP3
001351:
001352: 41,2613     0776                                  EBANK=   DSPCOUNT
001353: 41,2613           02146 64101  GTSFOUTL           2CADR    GTSFOUT
001354:
001355:
001356:
001357: 41,2615           04607        DSPDCEND           TC       BANKCALL                              #  ALL SFOUT ROUTINES END HERE
001358: 41,2616           61255                           CADR     DSPDECWD
001359: 41,2617           10117                           CCS      DECOUNT
001360: 41,2620           02622                           TC       +2
001361: 41,2621           00136                           TC       ENTEXIT
001362: 41,2622           54117                           TS       DECOUNT
001363: 41,2623           02566                           TC       DSPDCPUT                              #  MORE TO DISPLAY
001364:
001365:
001366: 41,2624           50000        DECDSP3            INDEX    A
001367: 41,2625           32627                           CAF      SFOUTABR
001368: 41,2626           04631                           TC       BANKJUMP
001369:
001370: 41,2627           61445        SFOUTABR           CADR     PREDSPAL                              #  ALARM IF DEC DISP WITH OCTAL ONLY NOUN
001371: 41,2630           62615                           CADR     DSPDCEND
001372: 41,2631           60604                           CADR     DEGOUTSF
001373: 41,2632           60726                           CADR     ARTOUTSF
001374: 41,2633           60737                           CADR     DP1OUTSF
001375: 41,2634           60744                           CADR     DP2OUTSF
001376: 41,2635           60624                           CADR     LRPOSOUT
001377: 41,2636           60746                           CADR     DP3OUTSF
001378: 41,2637           65241                           CADR     HMSOUT
001379: 41,2640           65314                           CADR     M/SOUT
001380: 41,2641           60744                           CADR     DP2OUTSF
001381: 41,2642           60733                           CADR     AROUT1SF
001382: 41,2643           60761                           CADR     2INTOUT
001383: 41,2644           60612                           CADR     360-CDUO
001384: 41,2645           60634                           CADR     RRANGOUT
001385: 41,2646           60651                           CADR     RRDOTOUT
001386: 41,2647                        ENDRTOUT           EQUALS
001387:


001389:                                                                                                  #          THE FOLLOWING IS ATYPICAL SF ROUTINE . IT USES MPAC. LEAVES RESU
001390:                                                                                                  #  LTS IN MPAC, MPAC+1. ENDS WITH TC DSPDCEND
001391:
001392:
001393: 40,2604                                           SETLOC   BLANKCON   +1
001394:
001395: 40,2604                                           COUNT*   $$/PIN
001396:                                                                                                  #     DEGOUTSF SCALES BY .18 THE LOW 14 BITS OF ANGLE , ADDING .18 FOR
001397:                                                                                                  #  NUMBERS IN THE NEGATIVE (AGC) RANGE.
001398:
001399: 40,2604           34746        DEGOUTSF           CAF      ZERO
001400: 40,2605           54156                           TS       MPAC       +2                         #  SET INDEX FOR FULL SCALE
001401: 40,2606           02701                           TC       FIXRANGE
001402: 40,2607           02611                           TC       +2                                    #  NO AUGMENT NEEDED (SFTEMP1 AND 2 ARE 0)
001403: 40,2610           02674                           TC       SETAUG                                #  SET AUGMENTER ACCORDING TO C(MPAC +2)
001404: 40,2611           02712                           TC       DEGCOM
001405:
001406:                                                                                                  #  360-CDUO COMPUTES 360 - CDU ANGLE IN MPAC, STORES RESULT IN MPAC AND
001407:                                                                                                  #  GOES TO DEGOUTSF.
001408:
001409: 40,2612           02614        360-CDUO           TC       360-CDU
001410: 40,2613           02604                           TC       DEGOUTSF
001411:
001412: 40,2614           30154        360-CDU            CA       MPAC
001413: 40,2615           74724                           MASK     POSMAX                                #  IF ANGLE IS 0 OR 180 DEGREES, DO NOTHING
001414: 40,2616           00006                           EXTEND
001415: 40,2617           12623                           BZF      360-CDUE
001416: 40,2620           40154                           CS       MPAC                                  #  COMPUTE 360 DEGREES MINUS ANGLE
001417: 40,2621           64744                           AD       ONE
001418: 40,2622           54154                           TS       MPAC
001419: 40,2623           00002        360-CDUE           TC       Q
001420:
001421:                                                                                                  #  LRPOSOUT DISPLAYS +0,1,2,OR 3 (WHOLE) FOR CHANNEL 33,BITS 7-6 = 11,10,
001422:                                                                                                  #  01,00 RESPECTIVELY.
001423:
001424: 40,2624           00006        LRPOSOUT           EXTEND
001425: 40,2625           00033                           READ     CHAN33
001426: 40,2626           00006                           EXTEND
001427: 40,2627           74733                           MP       BIT10                                 #  BITS 7-6 TO BITS 2-1
001428: 40,2630           40000                           COM
001429: 40,2631           76266                           MASK     THREE
001430: 40,2632           54154                           TS       MPAC
001431: 40,2633           02726                           TC       ARTOUTSF                              #  DISPLAY AS WHOLE
001432:
001433:                                                                                                  #  RRANGOUT AND RRDOTOUT CONVERT RR RANGE AND RANGE RATE FROM SP 15 BIT
001434:                                                                                                  #  MAGNITUDE TO DP AND THEN SCALE FOR DISPLAY.
001435:
001436: 40,2634           02664        RRANGOUT           TC       RRSPTODP                              #  CONVERT TO DP.
001437: 40,2635           40110                           CS       RADMODES                              #  BIT 3 OF FLAG12 = HI SCALE
001438: 40,2636           74742                           MASK     BIT3


001440: 40,2637           10000                           CCS      A
001441: 40,2640           02646                           TC       SCALELO                               #  DATA IS IN LO SCALE.
001442: 40,2641           52155                           DXCH     MPAC                                  #  DATA IS IN HI SCALE, MP BY 8.
001443: 40,2642           20001                           DAS      A
001444: 40,2643           20001                           DAS      A
001445: 40,2644           20001                           DAS      A
001446: 40,2645           52155                           DXCH     MPAC
001447: 40,2646           07124        SCALELO            TC       DMP                                   #  SCALE FOR DISPLAY,
001448: 40,2647           00123                           ADRES    SFTEMP1
001449: 40,2650           02740                           TC       L14/OUT                               #  AND GO TO ARITHDP1.
001450:
001451: 40,2651           02664        RRDOTOUT           TC       RRSPTODP                              #  CONVERT TO DP.
001452: 40,2652           00006                           EXTEND
001453: 40,2653           42663                           DCS      BIASRDOT                              #  SUBTRACT BIAS OF 17000 COUNTS.
001454: 40,2654           20155                           DAS      MPAC
001455: 40,2655           34354                           CAF      TEN                                   #  MULTIPLY DATA BY TEN TO DISPLAY TENTHS
001456: 40,2656           07330                           TC       SHORTMP                               #    FPS - (ATTEMPT TO MULTIPLY DISPLAY
001457: 40,2657           52156                           DXCH     MPAC       +1                         #           SF BY TEN PRODUCED SF GREATER
001458: 40,2660           52155                           DXCH     MPAC                                  #           THAN 16383)
001459: 40,2661           02646                           TC       SCALELO                               #  SCALE FOR DISPLAY.
001460: 40,2662           00001 01150  BIASRDOT           2DEC     17000      B-28
001461:
001462:
001463: 40,2664           34724        RRSPTODP           CAF      POSMAX                                #  CONVERT SP 15 BIT MAG TO DP.
001464: 40,2665           70154                           MASK     MPAC
001465: 40,2666           54155                           TS       MPAC       +1
001466: 40,2667           30154                           CA       MPAC
001467: 40,2670           60000                           DOUBLE
001468: 40,2671           74744                           MASK     BIT1
001469: 40,2672           54154                           TS       MPAC
001470: 40,2673           00002                           TC       Q
001471:
001472: 40,2674           00006        SETAUG             EXTEND                                         #  LOADS SFTEMP1 AND SFTEMP2 WITH THE
001473: 40,2675           50156                           INDEX    MPAC       +2                         #  DP AUGMENTER CONSTANT
001474: 40,2676           32723                           DCA      DEGTAB
001475: 40,2677           52124                           DXCH     SFTEMP1
001476: 40,2700           00002                           TC       Q
001477:
001478: 40,2701           10154        FIXRANGE           CCS      MPAC                                  #  IF MPAC IS + RETURN TO L+1
001479: 40,2702           00002                           TC       Q                                     #  IF MPAC IS - RETURN TO L+2 AFTER
001480: 40,2703           00002                           TC       Q                                     #  MASKING OUT THE SIGN BIT
001481: 40,2704           12705                           TCF      +1
001482: 40,2705           44726                           CS       BIT15
001483: 40,2706           70154                           MASK     MPAC
001484: 40,2707           54154                           TS       MPAC
001485: 40,2710           50002                           INDEX    Q
001486: 40,2711           00001                           TC       1
001487:
001488: 40,2712           00006        DEGCOM             EXTEND                                         #  LOADS MULTIPLIER , DOES SHORTMP, AND
001489: 40,2713           50156                           INDEX    MPAC       +2                         #  ADDS AUGMENTER.


001491: 40,2714           32723                           DCA      DEGTAB
001492: 40,2715           52155                           DXCH     MPAC                                  #  ADJUSTED ANGLE IN A
001493: 40,2716           07330                           TC       SHORTMP
001494: 40,2717           52124                           DXCH     SFTEMP1
001495: 40,2720           20155                           DAS      MPAC
001496: 40,2721           02731                           TC       SCOUTEND
001497:
001498:
001499: 40,2722           05605        DEGTAB             OCT      05605                                 #  HI PART OF     .18
001500: 40,2723           03656                           OCT      03656                                 #  LOW PART OF    .18
001501: 40,2724           16314                           OCT      16314                                 #  HI PART OF     .45
001502: 40,2725           31463                           OCT      31463                                 #  LO PART OF     .45
001503:
001504: 40,2726           52124        ARTOUTSF           DXCH     SFTEMP1                               #  ASSUMES POINT AT LEFT OF DP SFCON
001505: 40,2727           52155                           DXCH     MPAC
001506: 40,2730           04406                           TC       PRSHRTMP                              #  IF C(A) = -0, SHORTMP FAILS TO GIVE -0.
001507: 40,2731           04626        SCOUTEND           TC       POSTJUMP
001508: 40,2732           62615                           CADR     DSPDCEND
001509:
001510: 40,2733           52124        AROUT1SF           DXCH     SFTEMP1                               #  ASSUMES POINT BETWEEN HI AND LO PARTS OF
001511: 40,2734           52155                           DXCH     MPAC                                  #  DP SFCON. SHIFTS RESULTS LEFT 14, BY
001512: 40,2735           04406                           TC       PRSHRTMP                              #  TAKING RESULTS FROM MPAC+1, MPAC+2.
001513: 40,2736           02740                           TC       L14/OUT
001514:
001515:
001516: 40,2737           02752        DP1OUTSF           TC       DPOUT                                 #  SCALES MPAC, MPAC +1 BY DP SCALE FACTOR
001517: 40,2740           56156        L14/OUT            XCH      MPAC       +2                         #  IN SFTEMP1, SFTEMP2. THEN SCALE RESULT
001518: 40,2741           56155                           XCH      MPAC       +1                         #  BY B14.
001519: 40,2742           54154                           TS       MPAC
001520: 40,2743           02731                           TC       SCOUTEND
001521:
001522:
001523: 40,2744           02752        DP2OUTSF           TC       DPOUT                                 #  SCALES MPAC , MPAC +1 BY DP SCALE FACTOR
001524: 40,2745           02731                           TC       SCOUTEND
001525:
001526:
001527: 40,2746           02752        DP3OUTSF           TC       DPOUT                                 #  ASSUMES POINT BETWEEN BITS 7-8 OF HIGH
001528: 40,2747           36263                           CAF      SIX                                   #  LEFT BY 7, ROUNDS MPAC+2 INTO MPAC+1.
001529: 40,2750           03202                           TC       TPLEFTN                               #  SHIFT LEFT 7.
001530: 40,2751           02731                           TC       SCOUTEND
001531:
001532:
001533: 40,2752     0162               MPAC+6             =        MPAC       +6                         #  USE MPAC +6 INSTEAD OF OVFIND
001534:
001535: 40,2752           56002        DPOUT              XCH      Q
001536: 40,2753           54162                           TS       MPAC+6
001537: 40,2754           02776                           TC       READLO                                #  GET FRESH DATA FOR BOTH HI AND LO.
001538: 40,2755           07300                           TC       TPAGREE                               #  MAKE DP DATA AGREE
001539: 40,2756           07124                           TC       DMP
001540: 40,2757           00123                           ADRES    SFTEMP1


001542: 40,2760           00162                           TC       MPAC+6
001543:                                                                                                  #  THE FOLLOWING ROUTINE DISPLAYS TWO CONTIGUOUS SP POSITIVE INTEGERS
001544:                                                                                                  #  AS TWO POSITIVE DECIMAL INTEGERS IN RXD1-RXD2 AND RXD4-RXD5 (RXD3 IS
001545:                                                                                                  #  BLANKED). THE INTEGER IN THE LOWER NUMBERED ADDRESS IS DISPLAYED IN
001546:                                                                                                  #  RXD1-RXD2.
001547:
001548: 40,2761           02525        2INTOUT            TC       5BLANK                                #  TO BLANK RXD3
001549: 40,2762           02402                           TC       +ON                                   #  TURN ON + SIGN
001550: 40,2763           30154                           CA       MPAC
001551: 40,2764           03335                           TC       DSPDECVN                              #  DISPLAY 1ST INTEGER (LIKE VERB AND NOUN)
001552: 40,2765           46266                           CS       THREE
001553: 40,2766           50117                           INDEX    DECOUNT
001554: 40,2767           64310                           AD       R1D1                                  #  RXD4
001555: 40,2770           54776                           TS       DSPCOUNT
001556: 40,2771           02776                           TC       READLO                                #  GET 2ND INTEGER
001557: 40,2772           30155                           CA       MPAC       +1
001558: 40,2773           03335                           TC       DSPDECVN                              #  DISPLAY 2ND INTEGER (LIKE VERB AND NOUN)
001559: 40,2774           04626                           TC       POSTJUMP
001560: 40,2775           62617                           CADR     DSPDCEND   +2
001561:
001562:
001563:                                                                                                  #  READLO PICKS UP FRESH DATA FOR BOTH HI AND LO AND LEAVES IT IN
001564:                                                                                                  #  MPAC, MPAC+1. THIS IS NEEDED FOR TIME DISPLAY. IT ZEROES MPAC+2, BUT
001565:                                                                                                  #  DOES NOT FORCE TPAGREE.
001566:
001567: 40,2776           56002        READLO             XCH      Q
001568: 40,2777           54144                           TS       TEM4
001569: 40,3000           50140                           INDEX    MIXBR
001570: 40,3001           03001                           TC       +0
001571: 40,3002           03016                           TC       RDLONOR
001572: 40,3003           50117                           INDEX    DECOUNT
001573: 40,3004           30150                           CA       IDAD1TEM                              #  GET IDADDTAB ENTRY FOR COMP K OF NOUN.
001574: 40,3005           74347                           MASK     LOW11                                 #  E SUBK
001575: 40,3006           04304                           TC       SETEBANK                              #  SET EB, LEAVE EADRES IN A.
001576: 40,3007           00006        READLO1            EXTEND                                         #  MIXED         NORMAL
001577: 40,3010           50000                           INDEX    A                                     #  C(ESUBK)      C(E)
001578: 40,3011           30001                           DCA      0                                     #  C((E SUBK)+1)      C(E+1)
001579: 40,3012           52155                           DXCH     MPAC
001580: 40,3013           34746                           CAF      ZERO
001581: 40,3014           54156                           TS       MPAC       +2
001582: 40,3015           00144                           TC       TEM4
001583:
001584: 40,3016           30145        RDLONOR            CA       NOUNADD                               #  E
001585: 40,3017           03007        ENDRDLO            TC       READLO1
001586:
001587:
001588: 42,3241                                           BANK     42
001589: 42,2000                                           SETLOC   PINBALL3
001590: 42,2000                                           BANK
001591:


001593: 42,3241                                           COUNT*   $$/PIN
001594: 42,3241           04607        HMSOUT             TC       BANKCALL                              #  READ FRESH DATA FOR HI AND LO INTO MPAC,
001595: 42,3242           60776                           CADR     READLO                                #  MPAC+1.
001596: 42,3243           07300                           TC       TPAGREE                               #  MAKE DP DATA AGREE
001597: 42,3244           03430                           TC       SEPSECNR                              #  LEAVE FRACT SEC/60 IN MPAC, MPAC+1.LEAVE
001598:                                                                                                  #  WHOLE MIN IN BIT13 OF LOTEMOUT AND ABOVE
001599: 42,3245           07124                           TC       DMP                                   #  USE ONLY FRACT SEC/60 MOD 60
001600: 42,3246           03302                           ADRES    SECON2                                #  MULT BY .06
001601: 42,3247           34312                           CAF      R3D1                                  #  GIVES CENTI-SEC/10EXP5 MOD 60
001602: 42,3250           54776                           TS       DSPCOUNT
001603: 42,3251           04607                           TC       BANKCALL                              #  DISPLAY SEC MOD 60
001604: 42,3252           61255                           CADR     DSPDECWD
001605: 42,3253           03446                           TC       SEPMIN                                #  REMOVE REST OF SECONDS
001606: 42,3254           33304                           CAF      MINCON2                               #  LEAVE FRACT MIN/60 IN MPAC+1. LEAVE
001607: 42,3255           56154                           XCH      MPAC                                  #  WHOLE HOURS IN MPAC.
001608: 42,3256           55006                           TS       HITEMOUT                              #  SAVE WHOLE HOURS.
001609: 42,3257           33305                           CAF      MINCON2    +1
001610: 42,3260           56155                           XCH      MPAC       +1                         #  USE ONLY FRACT MIN/60 MOD 60
001611: 42,3261           04406                           TC       PRSHRTMP                              #  IF C(A) = -0, SHORTMP FAILS TO GIVE -0.
001612:                                                                                                  #  MULT BY .0006
001613: 42,3262           34311                           CAF      R2D1                                  #  GIVES MIN/10EXP5 MOD 60
001614: 42,3263           54776                           TS       DSPCOUNT
001615: 42,3264           04607                           TC       BANKCALL                              #  DISPLAY MIN MOD 60
001616: 42,3265           61255                           CADR     DSPDECWD
001617: 42,3266           00006                           EXTEND                                         #  MINUTES, SECONDS HAVE BEEN REMOVED
001618: 42,3267           33311                           DCA      HRCON1
001619: 42,3270           52155                           DXCH     MPAC
001620: 42,3271           31006                           CA       HITEMOUT                              #  USE WHOLE HOURS
001621: 42,3272           04406                           TC       PRSHRTMP                              #  IF C(A) = -0, SHORTMP FAILS TO GIVE -0.
001622:                                                                                                  #  MULT BY .16384
001623: 42,3273           34310                           CAF      R1D1                                  #  GIVES HOURS/10EXP5
001624: 42,3274           54776                           TS       DSPCOUNT
001625: 42,3275           04607                           TC       BANKCALL                              #  USE REGULAR DSPDECWD, WITH ROUND OFF.
001626: 42,3276           61255                           CADR     DSPDECWD
001627: 42,3277           00136                           TC       ENTEXIT
001628:
001629: 42,3300           25660 31742  SECON1             2DEC*    1.666666666 E-4        B12*            #  2EXP12/6000
001630:
001631: 42,3302           01727        SECON2             OCT      01727                                 #  .06 FOR SECONDS DISPLAY
001632: 42,3303           01217                           OCT      01217
001633: 42,3304           00011        MINCON2            OCT      00011                                 #  .0006 FOR MINUTES DISLPAY
001634: 42,3305           32445                           OCT      32445
001635: 42,3306           02104        MINCON1            OCT      02104                                 #  .066..66 UPPED BY 2EXP-28
001636: 42,3307           10422                           OCT      10422
001637: 42,3310           05174 13261  HRCON1             2DEC     .16384
001638:
001639: 42,3312           00000                           OCT      00000
001640: 42,3313           00062        RNDCON             OCT      00062                                 #  .5 SEC
001641:


001643: 42,3314           04607        M/SOUT             TC       BANKCALL                              #  READ FRESH DATA FOR HI AND LO INTO MPAC,
001644: 42,3315           60776                           CADR     READLO                                #  MPAC+1.
001645: 42,3316           07300                           TC       TPAGREE                               #  MAKE DP DATA AGREE
001646: 42,3317           10154                           CCS      MPAC                                  #  IF MAG OF (MPAC, MPAC+1) G/ 59 M 59 S,
001647: 42,3320           03322                           TC       +2                                    #  DISPLAY 59B59, WITH PROPER SIGN.
001648: 42,3321           03353                           TC       M/SNORM                               #  MPAC = +0. L/ 59M58.5S
001649: 42,3322           63410                           AD       M/SCON1                               #  - HI PART OF (59M58.5S) +1  FOR CCS
001650: 42,3323           10000                           CCS      A                                     #  MAG OF MPAC - HI PART OF (59M58.5S)
001651: 42,3324           03337                           TC       M/SLIMIT                              #  G/ 59M58.5S
001652: 42,3325           03353                           TC       M/SNORM                               #  ORIGINAL MPAC = -0. L/ 59M58.5S
001653: 42,3326           03353                           TC       M/SNORM                               #  L/ 59M58.5S
001654: 42,3327           10155                           CCS      MPAC       +1                         #  MAG OF MPAC = HI PART OF 59M58.5S
001655: 42,3330           03332                           TC       +2
001656: 42,3331           03353                           TC       M/SNORM                               #  MPAC+1 = +0. L/ 59M58.5S
001657: 42,3332           63411                           AD       M/SCON2                               #  - LO PART OF (59M58.5S) +1  FOR CCS
001658: 42,3333           10000                           CCS      A                                     #  MAG OF MPAC+1 - LO PART OF (59M58.5S)
001659: 42,3334           03337                           TC       M/SLIMIT                              #  G/ 59M58.5S
001660: 42,3335           03353                           TC       M/SNORM                               #  ORIGINAL MPAC+1 = -0. L/ 59M58.5S
001661: 42,3336           03353                           TC       M/SNORM                               #  L/ 59M58.5S
001662: 42,3337           10154        M/SLIMIT           CCS      MPAC                                  #  = 59M58.5S    LIMIT
001663: 42,3340           33413                           CAF      M/SCON3                               #  MPAC CANNOT BE +/- 0 AT THIS POINT.
001664: 42,3341           03350                           TC       +LIMIT                                #  FORCE MPAC, MPAC+1 TO +/- 59M59.5S
001665: 42,3342           43413                           CS       M/SCON3
001666: 42,3343           54154                           TS       MPAC                                  #  WILL DISPLAY 59M59S IN DSPDECNR
001667: 42,3344           43414                           CS       M/SCON3    +1
001668: 42,3345           54155        LIMITCOM           TS       MPAC       +1
001669: 42,3346           33412                           CAF      NORMADR                               #  SET RETURN TO M/SNORM+1.
001670: 42,3347           03431                           TC       SEPSECNR   +1
001671: 42,3350           54154        +LIMIT             TS       MPAC
001672: 42,3351           33414                           CAF      M/SCON3    +1
001673: 42,3352           03345                           TC       LIMITCOM
001674: 42,3353           03415        M/SNORM            TC       SEPSEC                                #  LEAVE FRACT SEC/60 IN MPAC,MPAC+1. LEAVE
001675:                                                                                                  #  WHOLE MIN IN BIT13 OF LOTEMOUT AND ABOVE
001676: 42,3354           33406                           CAF      HISECON                               #  USE ONLY FRACT SEC/60 MOD 60
001677: 42,3355           07330                           TC       SHORTMP                               #  MULT BY .6 + 2EXP-14
001678: 42,3356           46266                           CS       THREE                                 #  GIVES SEC/100 MOD 60
001679: 42,3357           26776                           ADS      DSPCOUNT                              #  DSPCOUNT ALREADY SET TO RXD1
001680: 42,3360           04607                           TC       BANKCALL                              #  DISPLAY SEC MOD 60 IN D4D5.
001681: 42,3361           61315                           CADR     DSPDC2NR
001682: 42,3362           34746                           CAF      ZERO
001683: 42,3363           54124                           TS       CODE
001684: 42,3364           44743                           CS       TWO
001685: 42,3365           50117                           INDEX    DECOUNT
001686: 42,3366           64310                           AD       R1D1                                  #  RXD3
001687: 42,3367           54143                           TS       COUNT
001688: 42,3370           04607                           TC       BANKCALL                              #  BLANK MIDDLE CHAR
001689: 42,3371           61351                           CADR     DSPIN
001690: 42,3372           03446                           TC       SEPMIN                                #  REMOVE REST OF SECONDS
001691: 42,3373           56155                           XCH      MPAC       +1                         #  LEAVE FRACT MIN/60 IN MPAC+1
001692: 42,3374           00006                           EXTEND                                         #  USE ONLY FRACT MIN/60 MOD 60


001694: 42,3375           73407                           MP       HIMINCON                              #  MULT BY .6 + 2EXP-7
001695: 42,3376           52155                           DXCH     MPAC                                  #  GIVES MIN/100 MOD 60
001696: 42,3377           50117                           INDEX    DECOUNT
001697: 42,3400           34310                           CAF      R1D1                                  #  RXD1
001698: 42,3401           54776                           TS       DSPCOUNT
001699: 42,3402           04607                           TC       BANKCALL                              #  DISPLAY MIN MOD 60 IN D1D2.
001700: 42,3403           61315                           CADR     DSPDC2NR
001701: 42,3404           04626                           TC       POSTJUMP
001702: 42,3405           62617                           CADR     DSPDCEND   +2
001703:
001704: 42,3406           23147        HISECON            OCT      23147                                 #  .6 + 2EXP-14
001705: 42,3407           23346        HIMINCON           OCT      23346                                 #  .6 + 2EXP-7
001706:
001707: 42,3410           77753        M/SCON1            OCT      77753                                 #  - HI PART OF (59M58.5S) +1
001708: 42,3411           41126        M/SCON2            OCT      41126                                 #  - LO PART OF (59M58.5S) +1
001709: 42,3412           03354        NORMADR            ADRES    M/SNORM    +1
001710: 42,3413           00025        M/SCON3            OCT      00025                                 #  59M 59.5S
001711: 42,3414           37016                           OCT      37016
001712:
001713:
001714: 42,3415           10155        SEPSEC             CCS      MPAC       +1                         #  IF +, ROUND BY ADDING .5 SEC
001715: 42,3416           13425                           TCF      POSEC                                 #  IF -, ROUND BY SUBTRACTING .5 SEC
001716: 42,3417           13425                           TCF      POSEC                                 #  FINDS TIME IN MPAC, MPAC+1
001717: 42,3420           13421                           TCF      +1                                    #  ROUNDS OFF BY +/- .5 SEC
001718: 42,3421           00006                           EXTEND                                         #  LEAVES WHOLE MIN IN BIT13 OF
001719: 42,3422           43313                           DCS      RNDCON     -1                         #  LOTEMOUT AND ABOVE.
001720: 42,3423           20155        SEPSEC1            DAS      MPAC                                  #  LEAVES FRACT SEC/60 IN MPAC, MPAC+1.
001721: 42,3424           13430                           TCF      SEPSECNR
001722: 42,3425           00006        POSEC              EXTEND
001723: 42,3426           33313                           DCA      RNDCON     -1
001724: 42,3427           13423                           TCF      SEPSEC1
001725: 42,3430           56002        SEPSECNR           XCH      Q                                     #  THIS ENTRY AVOIDS ROUNDING BY .5 SEC
001726: 42,3431           54144                           TS       SEPSCRET
001727: 42,3432           07124                           TC       DMP                                   #  MULT BY 2EXP12/6000
001728: 42,3433           03300                           ADRES    SECON1                                #  GIVES FRACT SEC/60 IN BIT12 OF MPAC+1
001729: 42,3434           00006                           EXTEND                                         #  AND BELOW.
001730: 42,3435           30155                           DCA      MPAC                                  #  SAVE MINUTES AND HOURS
001731: 42,3436           53007                           DXCH     HITEMOUT
001732: 42,3437           04375                           TC       TPSL1
001733: 42,3440           04375                           TC       TPSL1                                 #  GIVES FRACT SEC/60 IN MPAC+1, MPAC+2.
001734: 42,3441           34746                           CAF      ZERO
001735: 42,3442           56156                           XCH      MPAC       +2                         #  LEAVE FRACT SEC/60 IN MPAC, MPAC+1.
001736: 42,3443           56155                           XCH      MPAC       +1
001737: 42,3444           56154                           XCH      MPAC
001738: 42,3445           00144                           TC       SEPSCRET
001739:
001740:
001741: 42,3446           56002        SEPMIN             XCH      Q                                     #  FINDS WHOLE MINUTES IN BIT13
001742: 42,3447           54144                           TS       SEPMNRET                              #  OF LOTEMOUT AND ABOVE.
001743: 42,3450           31007                           CA       LOTEMOUT                              #  REMOVES REST OF SECONDS.


001745: 42,3451           00006                           EXTEND                                         #  LEAVES FRACT MIN/60 IN MPAC+1.
001746: 42,3452           74742                           MP       BIT3                                  #  LEAVES WHOLE HOURS IN MPAC.
001747: 42,3453           00006                           EXTEND                                         #  SR 12, THROW AWAY LP.
001748: 42,3454           74730                           MP       BIT13                                 #  SR 2, TAKE FROM LP. = SL 12.
001749: 42,3455           22155                           LXCH     MPAC       +1                         #  THIS FORCES BITS 12-1 TO 0 IF +,
001750:                                                                                                  #  FORCES BITS 12-1 TO 1 IF -.
001751: 42,3456           31006                           CA       HITEMOUT
001752: 42,3457           54154                           TS       MPAC
001753: 42,3460           07124                           TC       DMP                                   #  MULT BY 1/15
001754: 42,3461           03306                           ADRES    MINCON1                               #  GIVES FRACT MIN/60 IN MPAC+1.
001755: 42,3462           00144        ENDSPMIN           TC       SEPMNRET                              #  GIVES WHOLE HOURS IN MPAC.
001756:
001757:                                                                                                  #  THIS IS A SPECIAL PURPOSE VERB FOR DISPLAYING A DOUBLE PRECISION AGC
001758:                                                                                                  #  WORD AS 10 DECIMAL DIGITS ON THE AGC DISPLAY PANEL.  IT CAN BE USED WITH
001759:                                                                                                  #  ANY NOUN, EXCEPT MIXED NOUNS. IT DISPLAYS THE CONTENTS
001760:                                                                                                  #  OF THE REGISTER NOUNADD IS POINTING TO .  IF USED WITH NOUNS WHICH ARE
001761:                                                                                                  #  INHERENTLY NOT DP SUCH AS THE CDU COUNTERS THE DISPLAY WILL BE GARBAGE.
001762:                                                                                                  #  DISPLAY IS IN R1 AND R2 ONLY WITH THE SIGN IN R1.
001763:
001764:
001765: 40,3020                                           SETLOC   ENDRDLO    +1
001766:
001767: 40,3020                                           COUNT*   $$/PIN
001768: 40,3020           50140        DSPDPDEC           INDEX    MIXBR
001769: 40,3021           03021                           TC       +0
001770: 40,3022           03024                           TC       +2                                    #  NORMAL NOUN
001771: 40,3023           03447                           TC       DSPALARM
001772: 40,3024           00006                           EXTEND
001773: 40,3025           50145                           INDEX    NOUNADD
001774: 40,3026           30001                           DCA      0
001775: 40,3027           52155                           DXCH     MPAC
001776: 40,3030           34310                           CAF      R1D1
001777: 40,3031           54776                           TS       DSPCOUNT
001778: 40,3032           34746                           CAF      ZERO
001779: 40,3033           54156                           TS       MPAC       +2
001780: 40,3034           07300                           TC       TPAGREE
001781: 40,3035           03322                           TC       DSP2DEC
001782: 40,3036           00136        ENDDPDEC           TC       ENTEXIT
001783:


001785:                                                                                                  #  LOAD VERBS           IF ALARM CONDITION IS DETECTED DURING EXECUTE,
001786:                                                                                                  #  CHECK FAIL LIGHT IS TURNED ON AND ENDOFJOB. IF ALARM CONDITION IS
001787:                                                                                                  #  DETECTED DURING ENTER OF DATA, CHECK FAIL IS TURNED ON AND IT RECYCLES
001788:                                                                                                  #  TO EXECUTE  OF ORIGINAL LOAD VERB. RECYCLE CAUSED BY  1) DECIMAL MACHINE
001789:                                                                                                  #  CADR  2) MIXTURE OF OCTAL/DECIMAL DATA  3) OCTAL DATA INTO DECIMAL
001790:                                                                                                  #  ONLY NOUN  4) DEC DATA INTO OCT ONLY NOUN  5) DATA TOO LARGE FOR SCALE
001791:                                                                                                  #  6) FEWER THAN 3 DATA WORDS LOADED FOR HRS, MIN, SEC NOUN.8(2)-(6) ALARM
001792:                                                                                                  #  AND RECYCLE OCCUR AT FINAL ENTER OF SET. (1) ALARM AND RECYCLE OCCUR AT
001793:                                                                                                  #  ENTER OF CADR.
001794:
001795:
001796: 41,2647                                           SETLOC   ENDRTOUT
001797:
001798: 41,2647                                           COUNT*   $$/PIN
001799: 41,2647           44743        ABCLOAD            CS       TWO
001800: 41,2650           02453                           TC       COMPTEST
001801: 41,2651           02507                           TC       NOUNTEST                              #  TEST IF NOUN CAN BE LOADED.
001802: 41,2652           33056                           CAF      VBSP1LD
001803: 41,2653           02366                           TC       UPDATVB    -1
001804: 41,2654           02332                           TC       REQDATX
001805: 41,2655           33057                           CAF      VBSP2LD
001806: 41,2656           02366                           TC       UPDATVB    -1
001807: 41,2657           02334                           TC       REQDATY
001808: 41,2660           33060                           CAF      VBSP3LD
001809: 41,2661           02366                           TC       UPDATVB    -1
001810: 41,2662           02336                           TC       REQDATZ
001811:
001812:
001813: 41,2663           46263        PUTXYZ             CS       SIX                                   #  TEST THAT THE 3 DATA WORDS LOADED ARE
001814: 41,2664           03061                           TC       ALLDC/OC                              #  ALL DEC OR ALL OCT.
001815: 41,2665           00006                           EXTEND
001816: 41,2666           32141                           DCA      LODNNLOC                              #  SWITCH BANKS TO NOUN TABLE READING
001817: 41,2667           52006                           DXCH     Z                                     #  ROUTINE.
001818: 41,2670           34746                           CAF      ZERO                                  #  X COMP
001819: 41,2671           03145                           TC       PUTCOM
001820: 41,2672           50145                           INDEX    NOUNADD
001821: 41,2673           54000                           TS       0
001822: 41,2674           34744                           CAF      ONE                                   #  Y COMP
001823: 41,2675           03145                           TC       PUTCOM
001824: 41,2676           50145                           INDEX    NOUNADD
001825: 41,2677           54001                           TS       1
001826: 41,2700           34743                           CAF      TWO                                   #  Z COMP
001827: 41,2701           03145                           TC       PUTCOM
001828: 41,2702           50145                           INDEX    NOUNADD
001829: 41,2703           54002                           TS       2
001830: 41,2704           44750                           CS       SEVEN                                 #  IF NOUN 7 HAS JUST BEEN LOADED, SET
001831: 41,2705           61001                           AD       NOUNREG                               #   FLAG BITS AS SPECIFIED.
001832: 41,2706           00006                           EXTEND
001833: 41,2707           12711                           BZF      +2
001834: 41,2710           03045                           TC       LOADLV


001836: 41,2711           00004                           INHINT
001837: 41,2712           44754                           CS       OCT30                                 #  IS IT A CHANNEL (30 OR UNDER)
001838: 41,2713           61002                           AD       XREG
001839: 41,2714           00006                           EXTEND
001840: 41,2715           62725                           BZMF     CHANBITS                              #  YES
001841:
001842: 41,2716           31002                           CA       XREG                                  #  ECADR OF ERASABLE CELL
001843: 41,2717           04275                           TC       SETNCADR   +1                         #  SET EBANK, NOUNADD
001844:
001845: 41,2720           50145                           INDEX    NOUNADD
001846: 41,2721           30000                           CA       0
001847: 41,2722           54001                           TS       L
001848: 41,2723           34744                           CAF      ONE
001849: 41,2724           55002                           TS       XREG                                  #  MAKE IT LOOK LIKE A CHANNEL FOR A WHILE
001850:
001851: 41,2725           64352        CHANBITS           AD       OCT21
001852: 41,2726           00006                           EXTEND
001853: 41,2727           12751                           BZF      BITSOFF2                              #  DONT TOUCH CHAN7 (SUPERBANK)
001854:
001855: 41,2730           31004                           CA       ZREG
001856: 41,2731           00006                           EXTEND
001857: 41,2732           62740                           BZMF     BITSOFF                               #  R3 IS ZERO FOR OFF, NONZERO FOR ON
001858:
001859: 41,2733           31003                           CA       YREG
001860: 41,2734           00006                           EXTEND
001861: 41,2735           51002                           INDEX    XREG
001862: 41,2736           05000                           WOR      0
001863: 41,2737           12744                           TCF      BITSOFF1
001864:
001865: 41,2740           41003        BITSOFF            CS       YREG
001866: 41,2741           00006                           EXTEND
001867: 41,2742           51002                           INDEX    XREG
001868: 41,2743           03000                           WAND     0
001869:
001870: 41,2744           11002        BITSOFF1           CCS      XREG                                  #  WAS IT REALLY A CHANNEL
001871: 41,2745           10000                           CCS      A
001872: 41,2746           12751                           TCF      BITSOFF2                              #  YES
001873:
001874: 41,2747           50145                           INDEX    NOUNADD
001875: 41,2750           22000                           LXCH     0
001876:
001877: 41,2751           00003        BITSOFF2           RELINT
001878: 41,2752           03045                           TC       LOADLV
001879:
001880: 41,2753     4754               OCT30              =        BITS4&5
001881: 41,2753           44744        ABLOAD             CS       ONE
001882: 41,2754           02453                           TC       COMPTEST
001883: 41,2755           02507                           TC       NOUNTEST                              #  TEST IF NOUN CAN BE LOADED.
001884: 41,2756           33056                           CAF      VBSP1LD
001885: 41,2757           02366                           TC       UPDATVB    -1


001887: 41,2760           02332                           TC       REQDATX
001888: 41,2761           33057                           CAF      VBSP2LD
001889: 41,2762           02366                           TC       UPDATVB    -1
001890: 41,2763           02334                           TC       REQDATY
001891: 41,2764           44747        PUTXY              CS       FIVE                                  #  TEST THAT THE 2 DATA WORDS LOADED ARE
001892: 41,2765           03061                           TC       ALLDC/OC                              #  ALL DEC OR ALL OCT.
001893: 41,2766           00006                           EXTEND
001894: 41,2767           32141                           DCA      LODNNLOC                              #  SWITCH BANKS TO NOUN TABLE READING
001895: 41,2770           52006                           DXCH     Z                                     #  ROUTINE.
001896: 41,2771           34746                           CAF      ZERO                                  #  X COMP
001897: 41,2772           03145                           TC       PUTCOM
001898: 41,2773           50145                           INDEX    NOUNADD
001899: 41,2774           54000                           TS       0
001900: 41,2775           34744                           CAF      ONE                                   #  Y COMP
001901: 41,2776           03145                           TC       PUTCOM
001902: 41,2777           50145                           INDEX    NOUNADD
001903: 41,3000           54001                           TS       1
001904: 41,3001           03045                           TC       LOADLV
001905:
001906: 41,3002           02332        ALOAD              TC       REQDATX
001907: 41,3003           00006                           EXTEND
001908: 41,3004           32141                           DCA      LODNNLOC                              #  SWITCH BANKS TO NOUN TABLE READING
001909: 41,3005           52006                           DXCH     Z                                     #  ROUTINE.
001910: 41,3006           34746                           CAF      ZERO                                  #  X COMP
001911: 41,3007           03145                           TC       PUTCOM
001912: 41,3010           50145                           INDEX    NOUNADD
001913: 41,3011           54000                           TS       0
001914: 41,3012           03045                           TC       LOADLV
001915:
001916: 41,3013           44744        BLOAD              CS       ONE
001917: 41,3014           02453                           TC       COMPTEST
001918: 41,3015           34726                           CAF      BIT15                                 #  SET CLPASS FOR PASS0 ONLY
001919: 41,3016           55014                           TS       CLPASS
001920: 41,3017           02334                           TC       REQDATY
001921: 41,3020           00006                           EXTEND
001922: 41,3021           32141                           DCA      LODNNLOC                              #  SWITCH BANKS TO NOUN TABLE READING
001923: 41,3022           52006                           DXCH     Z                                     #  ROUTINE.
001924: 41,3023           34744                           CAF      ONE
001925: 41,3024           03145                           TC       PUTCOM
001926: 41,3025           50145                           INDEX    NOUNADD
001927: 41,3026           54001                           TS       1
001928: 41,3027           03045                           TC       LOADLV
001929:
001930: 41,3030           44743        CLOAD              CS       TWO
001931: 41,3031           02453                           TC       COMPTEST
001932: 41,3032           34726                           CAF      BIT15                                 #  SET CLPASS FOR PASS0 ONLY
001933: 41,3033           55014                           TS       CLPASS
001934: 41,3034           02336                           TC       REQDATZ
001935: 41,3035           00006                           EXTEND
001936: 41,3036           32141                           DCA      LODNNLOC                              #  SWITCH BANKS TO NOUN TABLE READING


001938: 41,3037           52006                           DXCH     Z                                     #  ROUTINE.
001939: 41,3040           34743                           CAF      TWO
001940: 41,3041           03145                           TC       PUTCOM
001941: 41,3042           50145                           INDEX    NOUNADD
001942: 41,3043           54002                           TS       2
001943: 41,3044           03045                           TC       LOADLV
001944:
001945: 41,3045           34746        LOADLV             CAF      ZERO
001946: 41,3046           54777                           TS       DECBRNCH
001947: 41,3047           44746                           CS       ZERO
001948: 41,3050           55013                           TS       LOADSTAT
001949: 41,3051           04450                           TC       RELDSP                                #  RELEASE FOR PRIORITY DISPLAY PROBLEM.
001950: 41,3052           44351                           CS       VD1                                   #  TO BLOCK NUMERICAL CHARACTERS AND
001951: 41,3053           54776                           TS       DSPCOUNT                              #  CLEARS AFTER A COMPLETED LOAD
001952: 41,3054           04626                           TC       POSTJUMP                              #  AFTER COMPLETED LOAD, GO TO RECALTST
001953: 41,3055           61605                           CADR     RECALTST                              #  TO SEE IF THERE IS RECALL FROM ENDIDLE.
001954:
001955: 41,3056     4352               OCT21              EQUALS   ND1
001956:
001957:
001958: 41,3056           00025        VBSP1LD            DEC      21         B-14                       #  VB21 = ALOAD
001959: 41,3057           00026        VBSP2LD            DEC      22         B-14                       #  VB22 = BLOAD
001960: 41,3060           00027        VBSP3LD            DEC      23         B-14                       #  VB23 = CLOAD
001961:
001962:
001963: 41,3061           54117        ALLDC/OC           TS       DECOUNT                               #  TESTS THAT DATA WORDS LOADED ARE EITHER
001964: 41,3062           40777                           CS       DECBRNCH                              #  ALL DEC OR ALL OCT. ALARMS IF NOT.
001965: 41,3063           54021                           TS       SR
001966: 41,3064           40021                           CS       SR
001967: 41,3065           40021                           CS       SR                                    #  SHIFTED RIGHT 2
001968: 41,3066           10000                           CCS      A                                     #  DEC COMP BITS IN LOW 3
001969: 41,3067           13071                           TCF      +2                                    #  SOME ONES IN LOW 3
001970: 41,3070           00002                           TC       Q                                     #  ALL ZEROS. ALL OCTAL.  OK
001971: 41,3071           60117                           AD       DECOUNT                               #  DEC COMP = 7 FOR 3COMP, =6 FOR 2COMP
001972: 41,3072           00006                           EXTEND                                         #  (BUT IT HAS BEEN DECREMENTED BY CCS)
001973: 41,3073           13075                           BZF      +2                                    #  MUST MATCH 6 FOR 3COMP, 5 FOR 2COMP.
001974: 41,3074           06020                           TC       ALMCYCLE                              #  ALARM AND RECYCLE.
001975: 41,3075           00002        GOQ                TC       Q                                     #  ALL REQUIRED ARE DEC. OK
001976:
001977:
001978: 41,3076           56002        SFRUTNOR           XCH      Q                                     #  GETS SF ROUTINE NUMBER FOR NORMAL CASE
001979: 41,3077           54114                           TS       EXITEM                                #  CANT USE L FOR RETURN. TSTFORDP USES L.
001980: 41,3100           34340                           CAF      MID5
001981: 41,3101           70147                           MASK     NNTYPTEM
001982: 41,3102           04313                           TC       RIGHT5
001983: 41,3103           00114                           TC       EXITEM                                #  SF ROUTINE NUMBER IN A
001984:
001985: 41,3104           56002        SFRUTMIX           XCH      Q                                     #  GETS SF ROUTINE NUMBER FOR MIXED CASE
001986: 41,3105           54114                           TS       EXITEM
001987: 41,3106           50117                           INDEX    DECOUNT


001989: 41,3107           33136                           CAF      DISPLACE                              #  PUT TC GOQ, TC RIGHT5, OR TC LEFT5 IN L
001990: 41,3110           54001                           TS       L
001991: 41,3111           50117                           INDEX    DECOUNT
001992: 41,3112           34337                           CAF      LOW5                                  #  LOW5, MID5, OR HI5 IN A
001993: 41,3113           70153                           MASK     RUTMXTEM                              #  GET HI5, MID5, OR LOW5 OF RUTMXTAB ENTRY
001994: 41,3114           50001                           INDEX    L
001995: 41,3115           00000                           TC       0
001996:                                                                                                  #  DO TC GOQ(DECOUNT=0), DO TC RIGHT5(DECOUNT=1), DO TC LEFT5(DECOUNT=2).
001997: 41,3116           00114        SFRET1             TC       EXITEM                                #  SF ROUTINE NUMBER IN A
001998:
001999: 41,3117           56002        SFCONUM            XCH      Q                                     #  GETS 2X( SF CONSTANT NUMBER)
002000: 41,3120           54114                           TS       EXITEM
002001: 41,3121           50140                           INDEX    MIXBR
002002: 41,3122           03122                           TC       +0
002003: 41,3123           03141                           TC       CONUMNOR                              #  NORMAL NOUN
002004: 41,3124           50117                           INDEX    DECOUNT                               #  MIXED NOUN
002005: 41,3125           33136                           CAF      DISPLACE
002006: 41,3126           54001                           TS       L                                     #  PUT TC GOQ, TC RIGHT5, OR TC LEFT5 IN L
002007: 41,3127           50117                           INDEX    DECOUNT
002008: 41,3130           34337                           CAF      LOW5
002009: 41,3131           70147                           MASK     NNTYPTEM
002010: 41,3132           50001                           INDEX    L
002011: 41,3133           00000                           TC       0
002012:                                                                                                  #  DO TC GOQ(DECOUNT=0), DO TC RIGHT5(DECOUNT=1), DO TC LEFT5(DECOUNT=2).
002013: 41,3134           60000        SFRET              DOUBLE                                         #  2X(SF CONSTANT NUMBER ) IN A
002014: 41,3135           00114                           TC       EXITEM
002015:
002016: 41,3136           03075        DISPLACE           TC       GOQ
002017: 41,3137           04313                           TC       RIGHT5
002018: 41,3140           04322                           TC       LEFT5
002019:
002020: 41,3141           34337        CONUMNOR           CAF      LOW5                                  #  NORMAL NOUN ALWAYS GETS LOW 5 OF
002021: 41,3142           70147                           MASK     NNTYPTEM                              #  NNTYPTAB FOR SF CONUM.
002022: 41,3143           60000                           DOUBLE
002023: 41,3144           00114                           TC       EXITEM                                #  2X( SF CONSTANT NUMBER) IN A
002024:
002025:
002026: 41,3145           54117        PUTCOM             TS       DECOUNT
002027: 41,3146           56002                           XCH      Q
002028: 41,3147           54115                           TS       DECRET
002029: 41,3150           34746                           CAF      ZERO
002030: 41,3151           54162                           TS       MPAC+6
002031: 41,3152           50117                           INDEX    DECOUNT
002032: 41,3153           57005                           XCH      XREGLP
002033: 41,3154           54155                           TS       MPAC       +1
002034: 41,3155           50117                           INDEX    DECOUNT
002035: 41,3156           57002                           XCH      XREG
002036: 41,3157           54154                           TS       MPAC
002037: 41,3160           50140                           INDEX    MIXBR
002038: 41,3161           03161                           TC       +0


002040: 41,3162           03207                           TC       PUTNORM                               #  NORMAL NOUN
002041:                                                                                                  #  IF MIXNOUN, PLACE ADDRESS FOR COMPONENT K INTO NOUNADD, SET EBANK BITS.
002042: 41,3163           50117                           INDEX    DECOUNT                               #  GET IDADDTAB ENTRY FOR COMPONENT K
002043: 41,3164           30150                           CA       IDAD1TEM                              #          OF NOUN.
002044: 41,3165           74347                           MASK     LOW11                                 #  (ECADR)SUBK FOR CURRENT COMP OF NOUN
002045: 41,3166           04274                           TC       SETNCADR                              #  ECADR INTO NOUNCADR. SETS EB, NOUNADD.
002046: 41,3167           00006                           EXTEND                                         #  C(NOUNADD) IN A UPON RETURN
002047: 41,3170           60117                           SU       DECOUNT                               #  PLACE (ESUBK)-K INTO NOUNADD
002048: 41,3171           54145                           TS       NOUNADD
002049: 41,3172           10777                           CCS      DECBRNCH
002050: 41,3173           03244                           TC       PUTDECSF                              #  +  DEC
002051: 41,3174           02501                           TC       DCTSTCYC                              #  +0 OCTAL
002052: 41,3175           03104                           TC       SFRUTMIX                              #  TEST IF DEC ONLY BIT = 1. IF SO,
002053: 41,3176           02306                           TC       DPTEST                                #  ALARM AND RECYCLE. IF NOT, CONTINUE.
002054: 41,3177           03225                           TC       PUTCOM2                               #  NO DP
002055:                                                                                                  #  TEST FOR DP SCALE FOR OCT LOAD. IF SO,
002056:                                                                                                  #  +0 INTO MAJOR PART. SET NOUNADD FOR
002057:                                                                                                  #  LOADING OCTAL WORD INTO MINOR PART.
002058: 41,3200           24145        PUTDPCOM           INCR     NOUNADD                               #  DP  (ESUBK)-K+1  OR  E+1
002059: 41,3201           30145                           CA       NOUNADD                               #  NOUNADD NOW SET FOR MINOR PART
002060: 41,3202           26117                           ADS      DECOUNT                               #  (ESUBK)+1  OR  E+1  INTO DECOUNT
002061: 41,3203           34746                           CAF      ZERO                                  #  NOUNADD SET FOR MINOR PART
002062: 41,3204           50117                           INDEX    DECOUNT
002063: 41,3205           53777                           TS       0          -1                         #  ZERO MAJOR PART(ESUBK OR E)
002064: 41,3206           03225                           TC       PUTCOM2
002065:
002066: 41,3207           04302        PUTNORM            TC       SETNADD                               #  ECADR FROM NOUNCADR. SETS EB, NOUNADD.
002067: 41,3210           10777                           CCS      DECBRNCH
002068: 41,3211           03244                           TC       PUTDECSF                              #  +  DEC
002069: 41,3212           02501                           TC       DCTSTCYC                              #  +0 OCTAL
002070: 41,3213           03076                           TC       SFRUTNOR                              #  TEST IF DEC ONLY BIT = 1.  IF SO,
002071: 41,3214           02306                           TC       DPTEST                                #  ALARM AND RECYCLE. IF NOT, CONTINUE.
002072: 41,3215           03221                           TC       PUTCOM2    -4                         #  NO DP
002073: 41,3216           34746                           CAF      ZERO                                  #  DP
002074: 41,3217           54117                           TS       DECOUNT
002075: 41,3220           03200                           TC       PUTDPCOM
002076:
002077: 41,3221           30146                           CA       NNADTEM
002078: 41,3222           64744                           AD       ONE                                   #  IF NNADTEM = -1, CHANNEL TO BE SPECIFIED
002079: 41,3223           00006                           EXTEND
002080: 41,3224           13231                           BZF      CHANLOAD
002081: 41,3225           56154        PUTCOM2            XCH      MPAC
002082: 41,3226           00115                           TC       DECRET
002083:
002084: 41,3227     0776                                  EBANK=   DSPCOUNT
002085: 41,3227           02154 64101  GTSFINLC           2CADR    GTSFIN
002086:
002087:
002088:
002089: 41,3231           44750        CHANLOAD           CS       SEVEN                                 #  DONT LOAD CHAN 7. (IT = SUPERBANK).


002091: 41,3232           61016                           AD       NOUNCADR
002092: 41,3233           00006                           EXTEND
002093: 41,3234           13045                           BZF      LOADLV
002094: 41,3235           31016                           CA       NOUNCADR
002095: 41,3236           74775                           MASK     LOW9
002096: 41,3237           56154                           XCH      MPAC
002097: 41,3240           00006                           EXTEND
002098: 41,3241           50154                           INDEX    MPAC
002099: 41,3242           01000                           WRITE    0
002100: 41,3243           03045                           TC       LOADLV
002101:
002102:
002103:                                                                                                  #  PUTDECSF FINDS MIXBR AND DECOUNT STILL SET FROM PUTCOM
002104:
002105: 41,3244           03117        PUTDECSF           TC       SFCONUM                               #  2X(SF CON NUMB) IN A
002106: 41,3245           54123                           TS       SFTEMP1
002107: 41,3246           00006                           EXTEND                                         #  SWITCH BANKS TO SF CONSTANT TABLE
002108: 41,3247           33230                           DCA      GTSFINLC                              #  READING ROUTINE.
002109: 41,3250           52006                           DXCH     Z                                     #  LOADS SFTEMP1, SFTEMP2.
002110: 41,3251           50140                           INDEX    MIXBR
002111: 41,3252           03252                           TC       +0
002112: 41,3253           03256                           TC       PUTSFNOR
002113: 41,3254           03104                           TC       SFRUTMIX
002114: 41,3255           03257                           TC       PUTDCSF2
002115: 41,3256           03076        PUTSFNOR           TC       SFRUTNOR
002116:
002117: 41,3257           50000        PUTDCSF2           INDEX    A
002118: 41,3260           33262                           CAF      SFINTABR
002119: 41,3261           04631                           TC       BANKJUMP                              #  SWITCH BANKS FOR EXPANSHION ROOM
002120: 41,3262           62377        SFINTABR           CADR     GOALMCYC                              #  ALARM AND RECYCLE IF DEC LOAD
002121:                                                                                                  #  WITH OCTAL ONLY NOUN.
002122: 41,3263           61135                           CADR     BINROUND
002123: 41,3264           61037                           CADR     DEGINSF
002124: 41,3265           61125                           CADR     ARTHINSF
002125: 41,3266           61143                           CADR     DPINSF
002126: 41,3267           61170                           CADR     DPINSF2
002127: 41,3270           61447                           CADR     DSPALARM                              #  LRPOSOUT CANT BE LOADED.
002128: 41,3271           61143                           CADR     DPINSF                                #  SAME AS ARITHDP1
002129: 41,3272           65463                           CADR     HMSIN
002130: 41,3273           61447                           CADR     DSPALARM                              #  MIN/SEC CANT BE LOADED.
002131: 41,3274           61175                           CADR     DPINSF4
002132: 41,3275           61140                           CADR     ARTIN1SF
002133: 41,3276           61447                           CADR     DSPALARM                              #  2INTOUT CANT BE LOADED.
002134: 41,3277           61037                           CADR     DEGINSF                               #  TESTS AT END FOR 360-CDU
002135: 41,3300           61447                           CADR     DSPALARM                              #  RRANGOUT CANT BE LOADED.
002136: 41,3301           61447                           CADR     DSPALARM                              #  RRDOTOUT CANT BE LOADED.
002137: 41,3302                        ENDRUTIN           EQUALS
002138:
002139:                                                                                                  #  SCALE FACTORS FOR THOSE ROUTINES NEEDING THEM ARE AVAILABLE IN SFTEMP1.


002141:                                                                                                  #  ALL SFIN ROUTINES USE MPAC MPAC+1. LEAVE RESULT IN A. END WITH TC DECRET
002142:
002143:
002144: 40,3037                                           SETLOC   ENDDPDEC   +1
002145:
002146: 40,3037                                           COUNT*   $$/PIN
002147:                                                                                                  #  DEGINSF APPLIES 1000/180 = 5.55555(10) = 5.43434(8)
002148:
002149: 40,3037           07124        DEGINSF            TC       DMP                                   #  SF ROUTINE FOR DEC DEGREES
002150: 40,3040           03123                           ADRES    DEGCON1                               #  MULT BY 5.5  5(10)X2EXP-3
002151: 40,3041           10155                           CCS      MPAC       +1                         #  THIS ROUNDS OFF MPAC+1 BEFORE SHIFT
002152: 40,3042           34732                           CAF      BIT11                                 #  LEFT 3, AND CAUSES 360.00 TO OF/UF
002153: 40,3043           03045                           TC       +2                                    #  WHEN SHIFTED LEFT AND ALARM.
002154: 40,3044           44732                           CS       BIT11
002155: 40,3045           60155                           AD       MPAC       +1
002156: 40,3046           03214                           TC       2ROUND     +2
002157: 40,3047           04375                           TC       TPSL1                                 #  LEFT 1
002158: 40,3050           04375        DEGINSF2           TC       TPSL1                                 #  LEFT 2
002159: 40,3051           03223                           TC       TESTOFUF
002160: 40,3052           04375                           TC       TPSL1                                 #  RETURNS IF NO OF/UF (LEFT3)
002161: 40,3053           10154                           CCS      MPAC
002162: 40,3054           03060                           TC       SIGNFIX                               #  IF+, GO TO SIGNFIX
002163: 40,3055           03060                           TC       SIGNFIX                               #  IF +0, GO TO SIGNFIX
002164: 40,3056           40000                           COM                                            #  IF - , USE -MAGNITUDE +1
002165: 40,3057           54154                           TS       MPAC                                  #  IF -0, USE +0
002166: 40,3060           10162        SIGNFIX            CCS      MPAC+6
002167: 40,3061           03117                           TC       SGNTO1                                #  IF OVERFLOW
002168: 40,3062           03072                           TC       ENDSCALE                              #  NO OVERFLOW/UNDERFLOW
002169: 40,3063           10154                           CCS      MPAC                                  #  IF UF FORCE SIGN TO 0 EXCEPT -180
002170: 40,3064           05701                           TC       CCSHOLE
002171: 40,3065           03115                           TC       NEG180
002172: 40,3066           03067                           TC       +1
002173: 40,3067           56154                           XCH      MPAC
002174: 40,3070           74724                           MASK     POSMAX
002175: 40,3071           54154                           TS       MPAC
002176: 40,3072           50140        ENDSCALE           INDEX    MIXBR                                 #  IF ROUTINE NO. IS NOT CDU DEGREES,
002177: 40,3073           03073                           TC       +0                                    #   THEN THIS IS 360 - CDU DEGREES
002178: 40,3074           03077                           TC       +3                                    #   AND ANGLE IN MPAC MUST BE REPLACED
002179: 40,3075           03107                           TC       SFMIXCAL                              #   BY 360 DEGREES MINUS ITSELF.
002180: 40,3076           03100        MIXBACK            TC       +2
002181: 40,3077           03112                           TC       SFNORCAL
002182: 40,3100           40000        NORBACK            CS       A
002183: 40,3101           64743                           AD       BIT2
002184: 40,3102           00006                           EXTEND
002185: 40,3103           13105                           BZF      +2
002186: 40,3104           02614                           TC       360-CDU
002187: 40,3105           04626        ENDSCAL1           TC       POSTJUMP
002188: 40,3106           63225                           CADR     PUTCOM2
002189:
002190: 40,3107           04607        SFMIXCAL           TC       BANKCALL


002192: 40,3110           63104                           CADR     SFRUTMIX
002193: 40,3111           03076                           TC       MIXBACK
002194:
002195: 40,3112           04607        SFNORCAL           TC       BANKCALL
002196: 40,3113           63076                           CADR     SFRUTNOR
002197: 40,3114           03100                           TC       NORBACK
002198:
002199: 40,3115           44724        NEG180             CS       POSMAX
002200: 40,3116           03071                           TC       ENDSCALE   -1
002201:
002202: 40,3117           40154        SGNTO1             CS       MPAC                                  #  IF OF FORCE SIGN TO 1
002203: 40,3120           74724                           MASK     POSMAX
002204: 40,3121           40000                           CS       A
002205: 40,3122           03071                           TC       ENDSCALE   -1
002206:
002207: 40,3123           26161 30707  DEGCON1            2DEC     5.555555555 B-3
002208:
002209:
002210: 40,3125           07124        ARTHINSF           TC       DMP                                   #  SCALES MPAC, +1 BY SFTEMP1, SFTEMP2.
002211: 40,3126           00123                           ADRES    SFTEMP1                               #  ASSUMES POINT BETWEEN HI AND LO PARTS
002212: 40,3127           56156                           XCH      MPAC       +2                         #  OF SFCON. SHIFTS RESULTS LEFT BY 14.
002213: 40,3130           56155                           XCH      MPAC       +1                         #  (BY TAKING RESULTS FROM MPAC+1, MPAC+2)
002214: 40,3131           56154                           XCH      MPAC
002215: 40,3132           00006                           EXTEND
002216: 40,3133           13135                           BZF      BINROUND
002217: 40,3134           06020                           TC       ALMCYCLE                              #  TOO LARGE A LOAD. ALARM AND RECYCLE.
002218: 40,3135           03212        BINROUND           TC       2ROUND
002219: 40,3136           03223                           TC       TESTOFUF
002220: 40,3137           03105                           TC       ENDSCAL1                              #  RETURNS IF NO OF/UF
002221:
002222: 40,3140           07124        ARTIN1SF           TC       DMP                                   #  SCALES MPAC, +1 BY SFTEMP1, SFTEMP2.
002223: 40,3141           00123                           ADRES    SFTEMP1                               #  ROUNDS MPAC+1 INTO MPAC.
002224: 40,3142           03135                           TC       BINROUND
002225:
002226:
002227: 40,3143           07124        DPINSF             TC       DMP                                   #  SCALES MPAC, MPAC +1 BY SFTEMP1,
002228: 40,3144           00123                           ADRES    SFTEMP1                               #  SFTEMP2.  STORES LOW PART OF RESULT
002229: 40,3145           56156                           XCH      MPAC       +2                         #  IN (E SUBK) +1 OR E+1
002230: 40,3146           60000                           DOUBLE
002231: 40,3147           54156                           TS       MPAC       +2
002232: 40,3150           34746                           CAF      ZERO
002233: 40,3151           60155                           AD       MPAC       +1
002234: 40,3152           03214                           TC       2ROUND     +2
002235: 40,3153           03223                           TC       TESTOFUF
002236: 40,3154           50140                           INDEX    MIXBR                                 #  RETURNS IF NO OF/UF
002237: 40,3155           03155                           TC       +0
002238: 40,3156           03166                           TC       DPINORM
002239: 40,3157           30117                           CA       DECOUNT                               #  MIXEDNOUN
002240: 40,3160           60145        DPINCOM            AD       NOUNADD                               #      MIXED               NORMAL
002241: 40,3161           54002                           TS       Q                                     #    E SUBK            E


002243: 40,3162           56155                           XCH      MPAC       +1
002244: 40,3163           50002                           INDEX    Q
002245: 40,3164           54001                           TS       1                                     #  PLACE LOW PART IN
002246: 40,3165           03105                           TC       ENDSCAL1                              #  (E SUBK) +1    MIXED
002247:
002248: 40,3166           34746        DPINORM            CAF      ZERO                                  #  E +1         NORMAL
002249: 40,3167           03160                           TC       DPINCOM
002250:
002251:
002252: 40,3170           07124        DPINSF2            TC       DMP                                   #  ASSUMES POINT BETWEEN BITS 7-8 OF HIGH
002253: 40,3171           00123                           ADRES    SFTEMP1                               #  PART OF SF CONST. DPINSF2 SHIFTS RESULTS
002254: 40,3172           36263                           CAF      SIX                                   #  LEFT BY 7, ROUNDS MPAC+2 INTO MPAC+1
002255: 40,3173           03202                           TC       TPLEFTN                               #  SHIFT LEFT 7.
002256: 40,3174           03145                           TC       DPINSF     +2
002257:
002258:
002259: 40,3175           07124        DPINSF4            TC       DMP                                   #  ASSUMES POINT BETWEEN BITS 11-12 OF HIGH
002260: 40,3176           00123                           ADRES    SFTEMP1                               #  PART OF SF CONST. DPINSF2 SHIFTS RESULTS
002261: 40,3177           34743                           CAF      TWO                                   #  LEFT BY 3, ROUNDS MPAC+2 INTO MPAC+1.
002262: 40,3200           03202                           TC       TPLEFTN                               #  SHIFT LEFT 3.
002263: 40,3201           03145                           TC       DPINSF     +2
002264:
002265:
002266: 40,3202           56002        TPLEFTN            XCH      Q                                     #  SHIFTS MPAC, +1, +2 LEFT N. SETS OVFIND
002267: 40,3203           54124                           TS       SFTEMP2                               #  TO +1 FOR OF, -1 FOR UF.
002268: 40,3204           56002                           XCH      Q                                     #  CALL WITH N-1 IN A.
002269: 40,3205           54123        LEFTNCOM           TS       SFTEMP1                               #      LOOP TIME .37 MSEC.
002270: 40,3206           04375                           TC       TPSL1
002271: 40,3207           10123                           CCS      SFTEMP1
002272: 40,3210           03205                           TC       LEFTNCOM
002273: 40,3211           00124                           TC       SFTEMP2
002274:
002275:
002276: 40,3212           56155        2ROUND             XCH      MPAC       +1
002277: 40,3213           60000                           DOUBLE
002278: 40,3214           54155                           TS       MPAC       +1
002279: 40,3215           00002                           TC       Q                                     #  IF MPAC+1 DOES NOT OF/UF
002280: 40,3216           60154                           AD       MPAC
002281: 40,3217           54154                           TS       MPAC
002282: 40,3220           00002                           TC       Q                                     #  IF MPAC DOES NOT OF/UF
002283: 40,3221           54162                           TS       MPAC+6
002284: 40,3222           00002        2RNDEND            TC       Q
002285:
002286:
002287: 40,3223           10162        TESTOFUF           CCS      MPAC+6                                #  RETURNS IF NO OF/UF
002288: 40,3224           06020                           TC       ALMCYCLE                              #  OF   ALARM AND RECYCLE.
002289: 40,3225           00002                           TC       Q
002290: 40,3226           06020                           TC       ALMCYCLE                              #  UF   ALARM AND RECYCLE.
002291:


002293: 42,3463                                           SETLOC   ENDSPMIN   +1
002294:
002295: 42,3463                                           COUNT*   $$/PIN
002296: 42,3463           03604        HMSIN              TC       ALL3DEC                               #  IF ALL 3 WORDS WERE NOT LOADED, ALARM.
002297: 42,3464           07124                           TC       DMP                                   #  XREG, XREGLP (=HOURS) WERE ALREADY PUT
002298: 42,3465           03545                           ADRES    WHOLECON                              #  INTO MPAC, MPAC+1.
002299: 42,3466           03554                           TC       RND/TST                               #  ROUND OFF TO WHOLE HRS IN MPAC+1.
002300: 42,3467           34746                           CAF      ZERO                                  #  ALARM IF MPAC NON ZERO (G/ 16383 ).
002301: 42,3470           54156                           TS       MPAC       +2
002302: 42,3471           33547                           CAF      HRCON
002303: 42,3472           54154                           TS       MPAC
002304: 42,3473           33550                           CAF      HRCON      +1
002305: 42,3474           56155                           XCH      MPAC       +1
002306: 42,3475           07330                           TC       SHORTMP
002307: 42,3476           03565                           TC       MPACTST                               #  ALARM IF MPAC NON ZERO (G/ 745)
002308: 42,3477           52156                           DXCH     MPAC       +1                         #  STORE HOURS CONTRIBUTION
002309: 42,3500           52124                           DXCH     HITEMIN
002310: 42,3501           31003                           CA       YREG                                  #  PUT YREG, YREGLP INTO MPAC, +1.
002311: 42,3502           23006                           LXCH     YREGLP
002312: 42,3503           52155                           DXCH     MPAC
002313: 42,3504           07124                           TC       DMP
002314: 42,3505           03545                           ADRES    WHOLECON
002315: 42,3506           03554                           TC       RND/TST                               #  ROUND OFF TO WHOLE MIN IN MPAC+1
002316: 42,3507           43552                           CS       59MIN                                 #  ALARM IF MPAC NON ZERO (G/16383)
002317: 42,3510           03572                           TC       SIZETST                               #  ALARM IF MPAC+1 G/ 59MIN
002318: 42,3511           56155                           XCH      MPAC       +1
002319: 42,3512           00006                           EXTEND
002320: 42,3513           73551                           MP       MINCON                                #  LEAVES MINUTES CONTRIBUTION IN A,L
002321: 42,3514           20124                           DAS      HITEMIN                               #  ADD IN MINUTES CONTRIBUTION
002322: 42,3515           00006                           EXTEND                                         #  IF THIS DAS OVERFLOWS, G/ 745HR,39MIN
002323: 42,3516           13520                           BZF      +2
002324: 42,3517           06020                           TC       ALMCYCLE
002325: 42,3520           31004                           CA       ZREG                                  #  PUT ZREG, ZREGLP INTO MPAC, +1.
002326: 42,3521           23007                           LXCH     ZREGLP
002327: 42,3522           52155                           DXCH     MPAC
002328: 42,3523           07124                           TC       DMP
002329: 42,3524           03545                           ADRES    WHOLECON
002330: 42,3525           03554                           TC       RND/TST                               #  ROUND OFF TO WHOLE CENTI-SEC IN MPAC+1
002331: 42,3526           43553                           CS       59.99SEC                              #  ALARM IF MPAC NON ZERO (G/163.83 SEC)
002332: 42,3527           03572                           TC       SIZETST                               #  ALARM IF MPAC+1 G/59.99 SEC
002333: 42,3530           52124                           DXCH     HITEMIN                               #  ADD IN SECONDS CONTRIBUTION
002334: 42,3531           20155                           DAS      MPAC                                  #  IF THIS DAS OVERFLOWS,
002335: 42,3532           00006                           EXTEND                                         #  G/ 745 HR, 39 MIN, 14.55 SEC.
002336: 42,3533           13535                           BZF      +2
002337: 42,3534           06020                           TC       ALMCYCLE                              #  ALARM AND RECYCLE
002338: 42,3535           34746                           CAF      ZERO
002339: 42,3536           54156                           TS       MPAC       +2
002340: 42,3537           07300                           TC       TPAGREE
002341: 42,3540           52155                           DXCH     MPAC
002342: 42,3541           50145                           INDEX    NOUNADD


002344: 42,3542           52001                           DXCH     0
002345: 42,3543           04626                           TC       POSTJUMP
002346: 42,3544           63045                           CADR     LOADLV
002347:
002348: 42,3545           00006        WHOLECON           OCT      00006                                 #  (10EXP5/2EXP14)2EXP14
002349: 42,3546           03240                           OCT      03240
002350: 42,3547           00025        HRCON              OCT      00025                                 #  1 HOUR IN CENTI-SEC
002351: 42,3550           37100                           OCT      37100
002352: 42,3551           13560        MINCON             OCT      13560                                 #  1 MINUTE IN CENTI-SEC
002353: 42,3552           00073        59MIN              OCT      00073                                 #  59 AS WHOLE
002354: 42,3553           13557        59.99SEC           OCT      13557                                 #  5999 CENTI-SEC
002355:
002356: 42,3554           56156        RND/TST            XCH      MPAC       +2                         #  ROUNDS MPAC+2 INTO MPAC+1.
002357: 42,3555           60000                           DOUBLE                                         #  ALARMS IF MPAC NOT 0
002358: 42,3556           54156                           TS       MPAC       +2
002359: 42,3557           34746                           CAF      ZERO
002360: 42,3560           60155                           AD       MPAC       +1
002361: 42,3561           54155                           TS       MPAC       +1
002362: 42,3562           34746                           CAF      ZERO
002363: 42,3563           60154                           AD       MPAC                                  #  CANT OVFLOW
002364: 42,3564           56154                           XCH      MPAC
002365: 42,3565           10154        MPACTST            CCS      MPAC                                  #  ALARM IF MPAC NON ZERO
002366: 42,3566           06020                           TC       ALMCYCLE                              #  ALARM AND RECYCLE.
002367: 42,3567           00002                           TC       Q
002368: 42,3570           06020                           TC       ALMCYCLE                              #  ALARM AND RECYCLE.
002369: 42,3571           00002                           TC       Q
002370:
002371: 42,3572           54156        SIZETST            TS       MPAC       +2                         #  CALLED WITH - CON IN A
002372: 42,3573           10155                           CCS      MPAC       +1                         #  GET MAG OF MPAC+1
002373: 42,3574           64744                           AD       ONE
002374: 42,3575           13577                           TCF      +2
002375: 42,3576           64744                           AD       ONE
002376: 42,3577           60156                           AD       MPAC       +2
002377: 42,3600           00006                           EXTEND                                         #  MAG OF MPAC+1 - CON
002378: 42,3601           63603                           BZMF     +2
002379: 42,3602           06020                           TC       ALMCYCLE                              #  MAG OF MPAC+1 G/ CON. ALARM AND RECYCLE.
002380: 42,3603           00002                           TC       Q                                     #  MAG OF MPAC+1 L/= CON
002381:
002382:
002383:                                                                                                  #  ALL3DEC TESTS THAT ALL 3 WORDS ARE LOADED IN DEC (FOR HMSIN).
002384:                                                                                                  #  ALARM IF NOT.( TEST THAT BITS 3,4,5 OF DECBRNCH ARE ALL = 1)
002385: 42,3604           43611        ALL3DEC            CS       OCT34BAR                              #  GET BITS 3,4,5 IN A
002386: 42,3605           70777                           MASK     DECBRNCH                              #  GET BITS 3,4,5 OF DECBRNCH IN A
002387: 42,3606           63611                           AD       OCT34BAR                              #  BITS 3,4,5 OF DECBRNCH MUST ALL = 1
002388: 42,3607           10000                           CCS      A
002389: 42,3610           03614                           TC       FORCEV25
002390: 42,3611           77743        OCT34BAR           OCT      77743
002391: 42,3612           03614                           TC       FORCEV25
002392: 42,3613           00002                           TC       Q
002393:


002395: 42,3614           46010        FORCEV25           CS       OCT31                                 #  FORCE VERB 25 TO BE EXECUTED BY RECYCLE
002396: 42,3615           55040                           TS       VERBSAVE                              #   IN CASE OPERATOR EXECUTED A LOWER LOAD
002397: 42,3616           06020                           TC       ALMCYCLE                              #   VERB.  ALARM AND RECYCLE.
002398: 42,3617                        ENDHMSS            EQUALS
002399:


002401:                                                                                                  #  MONITOR ALLOWS OTHER KEYBOARD ACTIVITY. IT IS ENDED BY VERB TERMINATE,
002402:                                                                                                  #  VERB PROCEED WITHOUT DATA, VERB RESEQUENCE,
002403:                                                                                                  #  ANOTHER MONITOR, OR ANY NVSUB CALL THAT PASSES THE DSPLOCK (PROVIDED
002404:                                                                                                  #  THAT THE OPERATOR HAS SOMEHOW ALLOWED THE ENDING OF A MONITOR WHICH
002405:                                                                                                  #  HE HAS INITIATED THROUGH THE KEYBOARD).
002406:
002407:                                                                                                  #  MONITOR ACTION IS SUSPENDED, BUT NOT ENDED, BY ANY KEYBOARD ACTION,
002408:                                                                                                  #  EXCEPT ERROR LIGHT RESET. IT BEGINS AGAIN WHEN KEY RELEASE IS PERFORMED.
002409:                                                                                                  #  MONITOR SAVES THE NOUN AND APPROPRIATE DISPLAY VERB IN MONSAVE. IT SAVES
002410:                                                                                                  #  NOUNCADR IN MONSAVE1, IF NOUN = MACHINE CADR TO BE SPECIFIED. BIT 15 OF
002411:                                                                                                  #  MONSAVE1 IS THE KILL MONITOR SIGNAL (KILLER BIT). BIT 14 OF MONSAVE1
002412:                                                                                                  #  INDICATES THE CURRENT MONITOR WAS EXTERNALLY INITIATED (EXTERNAL
002413:                                                                                                  #  MONITOR BIT). IT IS TURNED OFF BY RELDSP AND KILMONON.
002414:
002415:                                                                                                  #  MONSAVE INDICATES IF MONITOR IS ON(+=ON, +0=OFF)
002416:                                                                                                  #  IF MONSAVE IS +, MONITOR ENTERS NO REQUEST, BUT TURNS KILLER BIT OFF.
002417:                                                                                                  #  IF MONSAVE IS +0, MONITOR ENTERS REQUEST AND TURNS KILLER BIT OFF.
002418:
002419:                                                                                                  #  NVSUB (IF EXTERNAL MONITOR BIT IS OFF), VB=PROCEED WITHOUT DATA,
002420:                                                                                                  #  VB=RESEQUENCE, AND VB=TERMINATE TURN KILL MONITOR BIT ON.
002421:
002422:                                                                                                  #  IF KILLER BIT IS ON, MONREQ ENTERS NO FURTHER REQUESTS, ZEROS MONSAVE
002423:                                                                                                  #  AND MONSAVE1 (TURNING OFF KILLER BIT AND EXTERNAL MONITOR BIT).
002424:
002425:                                                                                                  #  MONITOR DOSENT TEST FOR MATBS SINCE NVSUB CAN HANDLE INTERNAL MATBS NOW
002426: 41,3302                                           SETLOC   ENDRUTIN
002427:
002428: 41,3302                                           COUNT*   $$/PIN
002429: 41,3302           43311        MONITOR            CS       BIT15/14
002430: 41,3303           71016                           MASK     NOUNCADR
002431: 41,3304           54155        MONIT1             TS       MPAC       +1                         #  TEMP STORAGE
002432: 41,3305           40136                           CS       ENTEXIT
002433: 41,3306           64210                           AD       ENDINST
002434: 41,3307           10000                           CCS      A
002435: 41,3310           03317                           TC       MONIT2
002436: 41,3311           60000        BIT15/14           OCT      60000
002437: 41,3312           03317                           TC       MONIT2
002438: 41,3313           34727                           CAF      BIT14                                 #  EXTERNALLY INITIATED MONITOR,
002439: 41,3314           26155                           ADS      MPAC       +1                         #  SET BIT 14 FOR MONSAVE1.
002440: 41,3315           34746                           CAF      ZERO
002441: 41,3316           55021                           TS       MONSAVE2                              #  ZERO NVMONOPT OPTIONS
002442: 41,3317           36115        MONIT2             CAF      LOW7
002443: 41,3320           71000                           MASK     VERBREG
002444: 41,3321           04322                           TC       LEFT5
002445: 41,3322           54022                           TS       CYL
002446: 41,3323           40022                           CS       CYL
002447: 41,3324           56022                           XCH      CYL
002448: 41,3325           61001                           AD       NOUNREG
002449: 41,3326           54154                           TS       MPAC                                  #  TEMP STORAGE
002450: 41,3327           34746                           CAF      ZERO


002452: 41,3330           55011                           TS       DSPLOCK                               #  +0 INTO DSPLOCK SO MONITOR CAN RUN.
002453: 41,3331           11041                           CCS      CADRSTOR                              #  TURN OFF KR LITE IF CADRSTOR AND DSPLIST
002454: 41,3332           03334                           TC       +2                                    #  ARE BOTH EMPTY. (LITE COMES ON IF NEW
002455: 41,3333           04473                           TC       RELDSP1                               #  MONITOR IS KEYED IN OVER OLD MONITOR.)
002456: 41,3334           00004                           INHINT
002457: 41,3335           11017                           CCS      MONSAVE
002458: 41,3336           03343                           TC       +5                                    #  IF MONSAVE WAS +, NO REQUEST
002459: 41,3337           34744                           CAF      ONE                                   #  IF MONSAVE WAS 0, REQUEST MONREQ
002460: 41,3340           05205                           TC       WAITLIST
002461: 41,3341     0776                                  EBANK=   DSPCOUNT
002462: 41,3341           03347 62101                     2CADR    MONREQ
002463:
002464: 41,3343           52155                           DXCH     MPAC                                  #  PLACE MONITOR VERB AND NOUN INTO MONSAVE
002465: 41,3344           53020                           DXCH     MONSAVE                               #  ZERO THE KILL MONITOR BIT
002466: 41,3345           00003                           RELINT                                         #  SET UP EXTERNAL MONITOR BIT
002467: 41,3346           00136                           TC       ENTRET
002468:
002469:
002470: 41,3347           04371        MONREQ             TC       LODSAMPT                              #  CALLED BY WAITLIST
002471: 41,3350           11020                           CCS      MONSAVE1                              #  TIME IS SNATCHED IN RUPT FOR NOUN 65
002472: 41,3351           03355                           TC       +4                                    #  IF KILLER BIT = 0, ENTER REQUESTS
002473: 41,3352           03355                           TC       +3                                    #  IF KILLER BIT = 0, ENTER REQUESTS
002474: 41,3353           03366                           TC       KILLMON                               #  IF KILLER BIT = 1, NO REQUESTS
002475: 41,3354           03366                           TC       KILLMON                               #  IF KILLER BIT = 1, NO REQUESTS
002476: 41,3355           33372                           CAF      MONDEL
002477: 41,3356           05205                           TC       WAITLIST                              #  ENTER WAITLIST REQUEST FOR MONREQ
002478: 41,3357     0776                                  EBANK=   DSPCOUNT
002479: 41,3357           03347 62101                     2CADR    MONREQ
002480:
002481: 41,3361           34346                           CAF      CHRPRIO
002482: 41,3362           05063                           TC       NOVAC                                 #  ENTER EXEC REQUEST FOR MONDO
002483: 41,3363     0776                                  EBANK=   DSPCOUNT
002484: 41,3363           03373 62101                     2CADR    MONDO
002485:
002486: 41,3365           05263                           TC       TASKOVER
002487:
002488: 41,3366           34746        KILLMON            CAF      ZERO                                  #  ZERO MONSAVE AND TURN KILLER BIT OFF
002489: 41,3367           55017                           TS       MONSAVE
002490: 41,3370           55020                           TS       MONSAVE1                              #  TURN OFF KILL MONITOR BIT.
002491: 41,3371           05263                           TC       TASKOVER                              #  TURN OFF EXTERNAL MONITOR BIT.
002492: 41,3372           00144        MONDEL             OCT      144                                   #  FOR 1 SEC MONITOR INTERVALS
002493:
002494:
002495: 41,3373           11020        MONDO              CCS      MONSAVE1                              #  CALLED BY EXEC
002496: 41,3374           03400                           TC       +4                                    #  IF KILLER BIT = 0, CONTINUE
002497: 41,3375           03400                           TC       +3                                    #  IF KILLER BIT = 0, CONTINUE
002498: 41,3376           05146                           TC       ENDOFJOB                              #  IN CASE TERMINATE CAME SINCE LAST MONREQ
002499: 41,3377           05146                           TC       ENDOFJOB                              #  IN CASE TERMINATE CAME SINCE LAST MONREQ
002500: 41,3400           11011                           CCS      DSPLOCK
002501: 41,3401           03423                           TC       MONBUSY                               #  NVSUB IS BUSY


002503: 41,3402           36115                           CAF      LOW7
002504: 41,3403           71017                           MASK     MONSAVE
002505: 41,3404           02346                           TC       UPDATNN    -1                         #  PLACE NOUN INTO NOUNREG AND DISPLAY IT
002506: 41,3405           34144                           CAF      MID7
002507: 41,3406           71017                           MASK     MONSAVE                               #  CHANGE MONITOR VERB TO DISPLAY VERB
002508: 41,3407           63421                           AD       MONREF                                #  -DEC10, STARTING IN BIT8
002509: 41,3410           54023                           TS       EDOP                                  #  RIGHT 7
002510: 41,3411           30023                           CA       EDOP
002511: 41,3412           55000                           TS       VERBREG
002512: 41,3413           33422                           CAF      MONBACK                               #  SET RETURN TO PASTEVB AFTER DATA DISPLAY
002513: 41,3414           54136                           TS       ENTRET
002514: 41,3415           43311                           CS       BIT15/14
002515: 41,3416           71020                           MASK     MONSAVE1                              #  PUT ECADR INTO MPAC +2. INTMCTBS WILL
002516: 41,3417           54156                           TS       MPAC       +2                         #  DISPLAY IT AND SET NOUNCADR, NOUNADD,
002517: 41,3420           02073        ENDMONDO           TC       TESTNN                                #  EBANK.
002518:
002519:    4124                                           BLOCK    2
002520:
002521:    4000                                           SETLOC   FFTAG8
002522:    4000                                           BANK
002523:
002524:    4124                                           COUNT*   $$/PIN
002525:    4124           34144        PASTEVB            CAF      MID7
002526:    4125           71021                           MASK     MONSAVE2                              #  NVMONOPT PASTE OPTION
002527:    4126           00006                           EXTEND
002528:    4127           14131                           BZF      +2
002529:    4130           04132                           TC       PASTEOPT                              #  PASTE PLEASE VERB FOR NVMONOPT
002530:    4131           31017                           CA       MONSAVE                               #  PASTE MONITOR VERB - PASTE OPTION IS 0
002531:    4132           54023        PASTEOPT           TS       EDOP                                  #  RIGHT 7
002532:    4133           30023                           CA       EDOP                                  #  PLACE MONITOR VERB OR PLEASE VERB INTO
002533:    4134           04607                           TC       BANKCALL                              #   VERBREG AND DISPLAY IT.
002534:    4135           62366                           CADR     UPDATVB    -1
002535:    4136           34746                           CAF      ZERO                                  #  ZERO REQRET SO THAT PASTED VERBS CAN
002536:    4137           55012                           TS       REQRET                                #   BE EXECUTED BY OPERATOR.
002537:    4140           31021                           CA       MONSAVE2
002538:    4141           04246                           TC       BLANKSUB                              #  PROCESS NVMONOPT BLANK OPTION IF ANY
002539:    4142           04143                           TC       +1
002540:    4143           05146        ENDPASTE           TC       ENDOFJOB
002541:
002542:    4144           37600        MID7               OCT      37600
002543:
002544:
002545: 41,3421                                           SETLOC   ENDMONDO   +1
002546: 41,3421                                           COUNT*   $$/PIN
002547: 41,3421           75377        MONREF             OCT      75377                                 #  -DEC10, STARTING IN BIT8
002548: 41,3422           04124        MONBACK            ADRES    PASTEVB
002549:
002550: 41,3423           04365        MONBUSY            TC       RELDSPON                              #  TURN KEY RELEASE LIGHT
002551: 41,3424           05146                           TC       ENDOFJOB


002553:                                                                                                  #  DSPFMEM IS USED TO DISPLAY (IN OCTAL) ANY FIXED REGISTER.
002554:                                                                                                  #  IT IS USED WITH NOUN = MACHINE CADR TO BE SPECIFIED. THE FCADR OF THE
002555:                                                                                                  #  DESIRED LOCATION IS THEN PUNCHED IN. IT HANDLES F/F ( FCADR 4000-7777)
002556:
002557:                                                                                                  #  FOR BANKS L/E 27, THIS IS ENOUGH.
002558:
002559:                                                                                                  #  FOR BANKS G/E 30, THE THIRD COMPONENT OF NOUN 26 (PRIO, ADRES, BBCON)
002560:                                                                                                  #  MUST BE PRELOADED WITH THE DESIRED SUPERBANK BITS (BITS 5,6,7).
002561:                                                                                                  #           V23N26 SHOULD BE USED.
002562:
002563:                                                                                                  #  SUMMARY
002564:                                                                                                  #  FOR BANKS L/E 27,                          V27N01E(FCADR)E
002565:                                                                                                  #  FOR BANKS G/E 30,    V23N26E(SUPERBITS)E   V27N01E(FCADR)E
002566:
002567: 41,3425           34310        DSPFMEM            CAF      R1D1                                  #  IF F/F, DATACALL USES BANK 02 OR 03.
002568: 41,3426           54776                           TS       DSPCOUNT
002569: 41,3427           31046                           CA       DSPTEM1    +2                         #  SUPERBANK BITS WERE PRELOADED INTO
002570: 41,3430           54001                           TS       L                                     #  3RD COMPONENT OF NOUN 26.
002571: 41,3431           31016                           CA       NOUNCADR                              #  ORIGINAL FCADR LOADED STILL IN NOUNCADR.
002572: 41,3432           04642                           TC       SUPDACAL                              #  CALL WITH FCADR IN A, SUPERBITS IN L.
002573: 41,3433           03435                           TC       DSPOCTWD
002574: 41,3434           05146        ENDSPF             TC       ENDOFJOB
002575:


002577:                                                                                                  #  WORD DISPLAY ROUTINES
002578: 40,3227                                           SETLOC   TESTOFUF   +4
002579: 40,3227                                           COUNT*   $$/PIN
002580: 40,3227           56002        DSPSIGN            XCH      Q
002581: 40,3230           54144                           TS       DSPWDRET
002582: 40,3231           10154                           CCS      MPAC
002583: 40,3232           03242                           TC       +8D
002584: 40,3233           03242                           TC       +7
002585: 40,3234           64744                           AD       ONE
002586: 40,3235           54154                           TS       MPAC
002587: 40,3236           02422                           TC       -ON
002588: 40,3237           40155                           CS       MPAC       +1
002589: 40,3240           54155                           TS       MPAC       +1
002590: 40,3241           00144                           TC       DSPWDRET
002591: 40,3242           02402                           TC       +ON
002592: 40,3243           00144                           TC       DSPWDRET
002593:
002594: 40,3244           00006        DSPRND             EXTEND                                         #  ROUND BY 5 EXP-6
002595: 40,3245           33310                           DCA      DECROUND   -1
002596: 40,3246           20155                           DAS      MPAC
002597: 40,3247           00006                           EXTEND
002598: 40,3250           13254                           BZF      +4
002599: 40,3251           00006                           EXTEND
002600: 40,3252           34724                           DCA      DPOSMAX
002601: 40,3253           52155                           DXCH     MPAC
002602: 40,3254           00002                           TC       Q
002603:
002604:                                                                                                  #  DSPDECWD CONVERTS C( MPAC, MPAC+1) INTO A SIGN AND 5 CHAR DECIMAL
002605:                                                                                                  #  STARTING IN LOC SPECIFIED IN DSPCOUNT. IT ROUNDS BY 5 EXP-6.
002606:
002607: 40,3255           56002        DSPDECWD           XCH      Q
002608: 40,3256           54115                           TS       WDRET
002609: 40,3257           03227                           TC       DSPSIGN
002610: 40,3260           03244                           TC       DSPRND
002611: 40,3261           34742                           CAF      FOUR
002612: 40,3262           54137        DSPDCWD1           TS       WDCNT
002613: 40,3263           34354                           CAF      BINCON
002614: 40,3264           07330                           TC       SHORTMP
002615: 40,3265           50154        TRACE1             INDEX    MPAC
002616: 40,3266           34066                           CAF      RELTAB
002617: 40,3267           74337                           MASK     LOW5
002618: 40,3270           54124                           TS       CODE
002619: 40,3271           34746                           CAF      ZERO
002620: 40,3272           56156                           XCH      MPAC       +2
002621: 40,3273           56155                           XCH      MPAC       +1
002622: 40,3274           54154                           TS       MPAC
002623: 40,3275           56776                           XCH      DSPCOUNT
002624: 40,3276           54143        TRACE1S            TS       COUNT
002625: 40,3277           10000                           CCS      A                                     #  DECREMENT DSPCOUNT EXCEPT AT +0


002627: 40,3300           54776                           TS       DSPCOUNT
002628: 40,3301           03351                           TC       DSPIN
002629: 40,3302           10137                           CCS      WDCNT
002630: 40,3303           03262                           TC       DSPDCWD1
002631: 40,3304           44351                           CS       VD1
002632: 40,3305           54776                           TS       DSPCOUNT
002633: 40,3306           00115                           TC       WDRET
002634:
002635: 40,3307           00000                           OCT      00000
002636: 40,3310           02476        DECROUND           OCT      02476
002637:
002638:                                                                                                  #  DSPDECNR CONVERTS C( MPAC,MPAC+1) INTO A SIGN AND 5 CHAR DECIMAL
002639:                                                                                                  #  STARTING IN LOC SPECIFIED IN DSPCOUNT. IT DOES NOT ROUND
002640:
002641: 40,3311           56002        DSPDECNR           XCH      Q
002642: 40,3312           54115                           TS       WDRET
002643: 40,3313           03227                           TC       DSPSIGN
002644: 40,3314           03261                           TC       DSPDCWD1   -1
002645:
002646:                                                                                                  #  DSPDC2NR CONVERTS C( MPAC,MPAC+1) INTO A SIGN AND 2 CHAR DECIMAL
002647:                                                                                                  #  STARTING IN LOC SPECIFIED IN DSPCOUNT. IT DOES NOT ROUND
002648:
002649: 40,3315           56002        DSPDC2NR           XCH      Q
002650: 40,3316           54115                           TS       WDRET
002651: 40,3317           03227                           TC       DSPSIGN
002652: 40,3320           34744                           CAF      ONE
002653: 40,3321           03262                           TC       DSPDCWD1
002654:
002655:
002656:                                                                                                  #  DSP2DEC CONVERTS C(MPAC) AND C(MPAC+1) INTO A SIGN AND 10 CHAR DECIMAL
002657:                                                                                                  #  STARTING IN THE LOC SPECIFIED IN DSPCOUNT.
002658:
002659: 40,3322           56002        DSP2DEC            XCH      Q
002660: 40,3323           54115                           TS       WDRET
002661: 40,3324           34746                           CAF      ZERO
002662: 40,3325           54124                           TS       CODE
002663: 40,3326           36266                           CAF      THREE
002664: 40,3327           03433                           TC       11DSPIN                               #  -R2 OFF
002665: 40,3330           34742                           CAF      FOUR
002666: 40,3331           03433                           TC       11DSPIN                               #  +R2 OFF
002667: 40,3332           03227                           TC       DSPSIGN
002668: 40,3333           34311                           CAF      R2D1
002669: 40,3334           03262        END2DEC            TC       DSPDCWD1
002670:
002671:                                                                                                  #  DSPDECVN DISPLAYS C(A) UPON ENTRY AS A 2 CHAR DECIMAL BEGINNING IN THE
002672:                                                                                                  #  DSP LOC SPECIFIED IN DSPCOUNT.
002673:                                                                                                  #  C(A) SHOULD BE IN FORM N X 2EXP-14. THIS IS SCALED TO FORM N/100 BEFORE
002674:                                                                                                  #  DISPLAY CONVERSION.
002675:


002677: 40,3335           00006        DSPDECVN           EXTEND
002678: 40,3336           73345                           MP       VNDSPCON                              #  MULT BY .01
002679: 40,3337           22154                           LXCH     MPAC                                  #  TAKE RESULTS FROM L.(MULT BY 2EXP14).
002680: 40,3340           34746                           CAF      ZERO
002681: 40,3341           54155                           TS       MPAC       +1
002682: 40,3342           56002                           XCH      Q
002683: 40,3343           54115                           TS       WDRET
002684: 40,3344           03320                           TC       DSPDC2NR   +3                         #  NO SIGN, NO ROUND, 2 CHAR
002685:
002686: 40,3345           00244        VNDSPCON           OCT      00244                                 #  .01 ROUNDED UP
002687:
002688:
002689: 40,3346           03335        GOVNUPDT           TC       DSPDECVN                              #  THIS IS NOT FOR GENERAL USE. REALLY PART
002690: 40,3347           04626                           TC       POSTJUMP                              #  OF UPDATVB.
002691: 40,3350           62376                           CADR     UPDAT1     +2
002692:
002693: 40,3351                        ENDECVN            EQUALS
002694:
002695:
002696: 41,3435                                           SETLOC   ENDSPF     +1
002697: 41,3435                                           COUNT*   $$/PIN
002698:                                                                                                  #  DSPOCTWD DISPLAYS C(A) UPON ENTRY AS A 5 CHAR OCT STARTING IN THE DSP
002699:                                                                                                  #  CHAR SPECIFIED IN DSPCOUNT. IT STOPS AFTER 5 CHAR HAVE BEEN DISPLAYED.
002700:
002701: 41,3435           54022        DSPOCTWD           TS       CYL
002702: 41,3436           56002                           XCH      Q
002703: 41,3437           54115                           TS       WDRET                                 #  MUST USE SAME RETURN AS DSP2BIT.
002704: 41,3440           34727                           CAF      BIT14                                 #  TO BLANK SIGNS
002705: 41,3441           26776                           ADS      DSPCOUNT
002706: 41,3442           34742                           CAF      FOUR
002707: 41,3443           54137        WDAGAIN            TS       WDCNT
002708: 41,3444           40022                           CS       CYL
002709: 41,3445           40022                           CS       CYL
002710: 41,3446           40022                           CS       CYL
002711: 41,3447           40000                           CS       A
002712: 41,3450           74750                           MASK     DSPMSK
002713: 41,3451           50000                           INDEX    A
002714: 41,3452           34066                           CAF      RELTAB
002715: 41,3453           74337                           MASK     LOW5
002716: 41,3454           54124                           TS       CODE
002717: 41,3455           56776                           XCH      DSPCOUNT
002718: 41,3456           54143                           TS       COUNT
002719: 41,3457           10000                           CCS      A                                     #  DECREMENT DSPCOUNT EXCEPT AT +0
002720: 41,3460           54776                           TS       DSPCOUNT
002721: 41,3461           04626                           TC       POSTJUMP
002722: 41,3462           61441                           CADR     DSPOCTIN
002723: 41,3463           10137        OCTBACK            CCS      WDCNT
002724: 41,3464           03443                           TC       WDAGAIN                               #  +
002725: 41,3465           44351        DSPLV              CS       VD1                                   #  TO BLOCK NUMERICAL CHARACTERS, CLEARS,
002726: 41,3466           54776                           TS       DSPCOUNT                              #  AND SIGNS AFTER A COMPLETED DISPLAY.


002728: 41,3467           00115                           TC       WDRET
002729:
002730: 41,3470     4750               DSPMSK             =        SEVEN
002731:
002732:
002733:                                                                                                  #  FOR DSPIN PLACE 0/25 OCT INTO COUNT, 5 BIT RELAY CODE INTO CODE. BOTH
002734:                                                                                                  #  ARE DESTROYED. IF BIT14 OF COUNT IS 1, SIGN IS BLANKED WITH LEFT CHAR.
002735:                                                                                                  #  FOR DSPIN1 PLACE 0,1 INTO BIT11 OF CODE, 2 INTO COUNT, REL ADDRESS OF
002736:                                                                                                  #  DSPTAB ENTRY INTO DSREL.
002737:
002738: 40,3351                                           SETLOC   ENDECVN
002739:
002740: 40,3351                                           COUNT*   $$/PIN
002741: 40,3351           56002        DSPIN              XCH      Q                                     #  CANT USE L FOR RETURN, SINCE MANY OF THE
002742: 40,3352           54114                           TS       DSEXIT                                #  ROUTINES CALLING DSPIN USE L AS RETURN.
002743: 40,3353           34337                           CAF      LOW5
002744: 40,3354           70143                           MASK     COUNT
002745: 40,3355           54021                           TS       SR
002746: 40,3356           56021                           XCH      SR
002747: 40,3357           54141                           TS       DSREL
002748: 40,3360           34744                           CAF      BIT1
002749: 40,3361           70143                           MASK     COUNT
002750: 40,3362           10000                           CCS      A
002751: 40,3363           03365                           TC       +2                                    #  LEFT IF COUNT IS ODD
002752: 40,3364           03375                           TC       DSPIN1     -1                         #  RIGHT IF COUNT IS EVEN
002753: 40,3365           56124                           XCH      CODE
002754: 40,3366           04331                           TC       SLEFT5                                #  DOES NOT USE CYL
002755: 40,3367           54124                           TS       CODE
002756: 40,3370           34727                           CAF      BIT14
002757: 40,3371           70143                           MASK     COUNT
002758: 40,3372           10000                           CCS      A
002759: 40,3373           34743                           CAF      TWO                                   #  BIT14 = 1, BLANK SIGN
002760: 40,3374           64744                           AD       ONE                                   #  BIT14 = 0, LEAVE SIGN ALONE
002761: 40,3375           54143                           TS       COUNT                                 #  +0 INTO COUNT FOR RIGHT
002762:                                                                                                  #  +1 INTO COUNT FOR LEFT(SIGN LEFT ALONE)
002763:                                                                                                  #  +3 INTO COUNT FOR LEFT(TO BLANK SIGN)
002764: 40,3376           00004        DSPIN1             INHINT
002765: 40,3377           50141                           INDEX    DSREL
002766: 40,3400           11022                           CCS      DSPTAB
002767: 40,3401           03403                           TC       +2                                    #  IF +
002768: 40,3402           05701                           TC       CCSHOLE
002769: 40,3403           64744                           AD       ONE                                   #  IF-
002770: 40,3404           54142                           TS       DSMAG
002771: 40,3405           50143                           INDEX    COUNT
002772: 40,3406           73427                           MASK     DSMSK
002773: 40,3407           00006                           EXTEND
002774: 40,3410           60124                           SU       CODE
002775: 40,3411           00006                           EXTEND
002776: 40,3412           13425                           BZF      DSLV                                  #  SAME
002777: 40,3413           50143        DFRNT              INDEX    COUNT


002779: 40,3414           43427                           CS       DSMSK                                 #  MASK WITH 77740,76037,75777, OR 74037
002780: 40,3415           70142                           MASK     DSMAG
002781: 40,3416           60124                           AD       CODE
002782: 40,3417           40000                           CS       A
002783: 40,3420           50141                           INDEX    DSREL
002784: 40,3421           57022                           XCH      DSPTAB
002785: 40,3422           00006                           EXTEND
002786: 40,3423           63425                           BZMF     DSLV                                  #  DSPTAB ENTRY WAS -
002787: 40,3424           25015                           INCR     NOUT                                  #  DSPTAB ENTRY WAS +
002788: 40,3425           00003        DSLV               RELINT
002789: 40,3426           00114                           TC       DSEXIT
002790:
002791: 40,3427           00037        DSMSK              OCT      37
002792: 40,3430           01740                           OCT      1740
002793: 40,3431           02000                           OCT      2000
002794: 40,3432           03740                           OCT      3740
002795:
002796:
002797:                                                                                                  #  FOR 11DSPIN, PUT REL ADDRESSS OF DSPTAB ENTRY INTO A, 1 IN BIT11 OR 0 IN
002798:                                                                                                  #  BIT11 OF CODE.
002799:
002800: 40,3433           54141        11DSPIN            TS       DSREL
002801: 40,3434           34743                           CAF      TWO
002802: 40,3435           54143                           TS       COUNT
002803: 40,3436           56002                           XCH      Q                                     #  MUST USE SAME RETURN AS DSPIN
002804: 40,3437           54114                           TS       DSEXIT
002805: 40,3440           03376                           TC       DSPIN1
002806:
002807:
002808: 40,3441           03351        DSPOCTIN           TC       DSPIN                                 #  SO DSPOCTWD DOESNT USE SWCALL
002809: 40,3442           33444                           CAF      +2
002810: 40,3443           04631                           TC       BANKJUMP
002811: 40,3444           63463        ENDSPOCT           CADR     OCTBACK
002812:
002813:
002814:                                                                                                  #  DSPALARM FINDS TC NVSUBEND IN ENTRET FOR NVSUB INITIATED ROUTINES.
002815:                                                                                                  #  ABORT WITH 01501.
002816:                                                                                                  #  DSPALARM FINDS TC ENDOFJOB IN ENTRET FOR KEYBOARD INITIATED ROUTINES.
002817:                                                                                                  #  DO TC ENTRET.
002818:
002819: 40,3445           44351        PREDSPAL           CS       VD1
002820: 40,3446           54776                           TS       DSPCOUNT
002821: 40,3447           43470        DSPALARM           CS       NVSBENDL
002822: 40,3450           60136                           AD       ENTEXIT
002823: 40,3451           00006                           EXTEND
002824: 40,3452           13465                           BZF      CHARALRM   +2
002825: 40,3453           43467                           CS       MONADR                                #  IF THIS IS A MONITOR, KILL IT
002826: 40,3454           60136                           AD       ENTEXIT
002827: 40,3455           00006                           EXTEND
002828: 40,3456           13460                           BZF      +2


002830: 40,3457           03463                           TC       CHARALRM
002831: 40,3460           04175                           TC       KILMONON
002832: 40,3461           04355                           TC       FALTON
002833: 40,3462           04124                           TC       PASTEVB                               #  PUT MONITOR VERB BACK IN VERBREG
002834: 40,3463           04355        CHARALRM           TC       FALTON                                #  NOT NVSUB INITIATED. TURN ON OPR ERROR
002835: 40,3464           05146                           TC       ENDOFJOB
002836: 40,3465           05644                           TC       POODOO
002837: 40,3466           21501                           OCT      21501
002838: 40,3467           04124        MONADR             GENADR   PASTEVB
002839: 40,3470           04173        NVSBENDL           TC       NVSUBEND
002840:
002841:
002842:                                                                                                  #  ALMCYCLE TURNS ON CHECK FAIL LIGHT, REDISPLAYS THE ORIGINAL VERB THAT
002843:                                                                                                  #  WAS EXECUTED, AND RECYCLES TO EXECUTE THE ORIGINAL VERB/NOUN COMBINATION
002844:                                                                                                  #  THAT WAS LAST EXECUTED. USED FOR BAD DATA DURING LOAD VERBS AND BY
002845:                                                                                                  #  MCTBS. ALSO BY MMCHANG IF 2 NUMERICAL CHARACTERS WERE NOT PUNCHED IN
002846:                                                                                                  #  FOR MM CODE.
002847:
002848:    6000                                           SETLOC   FFTAG5
002849:    6000                                           BANK
002850:    6020                                           COUNT*   $$/PIN
002851:    6020           04355        ALMCYCLE           TC       FALTON                                #  TURN ON CHECK FAIL LIGHT.
002852:    6021           41040                           CS       VERBSAVE                              #  GET ORIGINAL VERB THAT WAS EXECUTED
002853:    6022           55012                           TS       REQRET                                #  SET FOR ENTPAS0
002854:    6023           04607                           TC       BANKCALL                              #  PUTS ORIGINAL VERB INTO VERBREG AND
002855:    6024           62366                           CADR     UPDATVB    -1                         #  DISPLAYS IT IN VERB LIGHTS.
002856:    6025           04626                           TC       POSTJUMP
002857:    6026           62022        ENDALM             CADR     ENTER
002858:
002859:
002860:                                                                                                  #  MMCHANG USES NOUN DISPLAY UNTIL ENTER. THEN IT USES MODE DISP.
002861:                                                                                                  #  IT GOES TO MODROUT WITH THE NEW M M CODE IN A, BUT NOT DISPLAYED IN
002862:                                                                                                  #  MM LIGHTS.
002863:                                                                                                  #  IT DEMANDS 2 NUMERICAL CHARACTERS BE PUNCHED IN FOR NEW MM CODE.
002864:                                                                                                  #  IF NOT, IT RECYCLES.
002865:
002866: 41,3470                                           SETLOC   DSPLV      +3
002867: 41,3470                                           COUNT*   $$/PIN
002868: 41,3470           03512        MMCHANG            TC       REQMM                                 #  ENTPASHI ASSUMES THE TC REQMM AT MMCHANG
002869:                                                                                                  #  IF THIS MOVES AT ALL, MUST CHANGE
002870:                                                                                                  #  MMADREF AT ENTPASHI.
002871: 41,3471           34740                           CAF      BIT5                                  #  OCT20 = ND2.
002872: 41,3472           60776                           AD       DSPCOUNT                              #  DSPCOUNT MUST = -ND2.
002873: 41,3473           00006                           EXTEND                                         #  DEMAND THAT 2 NUM CHAR WERE PUNCHED IN.
002874: 41,3474           13476                           BZF      +2
002875: 41,3475           06020                           TC       ALMCYCLE                              #  DSPCOUNT NOT= -ND2. ALARM AND RECYCLE.
002876: 41,3476           34746                           CAF      ZERO                                  #  DSPCOUNT = -ND2.
002877: 41,3477           57001                           XCH      NOUNREG
002878: 41,3500           54154                           TS       MPAC
002879: 41,3501           34352                           CAF      ND1


002881: 41,3502           54776                           TS       DSPCOUNT
002882: 41,3503           04607                           TC       BANKCALL
002883: 41,3504           60570                           CADR     2BLANK
002884: 41,3505           44351                           CS       VD1                                   #  BLOCK NUM CHAR IN
002885: 41,3506           54776                           TS       DSPCOUNT
002886: 41,3507           30154                           CA       MPAC
002887: 41,3510           04626                           TC       POSTJUMP
002888: 41,3511           10054                           CADR     MODROUTB                              #  GO THRU STANDARD LOC.
002889:
002890:
002891: 41,3512  04,2054               MODROUTB           =        V37
002892: 41,3512           40002        REQMM              CS       Q
002893: 41,3513           55012                           TS       REQRET
002894: 41,3514           34352                           CAF      ND1
002895: 41,3515           54776                           TS       DSPCOUNT
002896: 41,3516           34746                           CAF      ZERO
002897: 41,3517           55001                           TS       NOUNREG
002898: 41,3520           04607                           TC       BANKCALL
002899: 41,3521           60570                           CADR     2BLANK
002900: 41,3522           04420                           TC       FLASHON
002901: 41,3523           34744                           CAF      ONE
002902: 41,3524           54777                           TS       DECBRNCH                              #  SET FOR DEC
002903: 41,3525           00136                           TC       ENTEXIT
002904:
002905:
002906:                                                                                                  #  VBRQEXEC ENTERS REQUEST TO EXEC     FOR ANY ADDRESS WITH ANY PRIORITY.
002907:                                                                                                  #  IT DOES ENDOFJOB AFTER ENTERING REQUEST. DISPLAY SYST IS RELEASED.
002908:                                                                                                  #  IT ASSUMES NOUN 26 HAS BEEN PRELOADED WITH
002909:                                                                                                  #  COMPONENT 1  PRIORITY(BITS 10-14) BIT1=0 FOR NOVAC, BIT1=1 FOR FINDVAC.
002910:                                                                                                  #  COMPONENT 2  JOB ADRES (12 BIT )
002911:                                                                                                  #  COMPONENT 3  BBCON
002912:
002913: 41,3526           34732        VBRQEXEC           CAF      EBANK4
002914: 41,3527           54003                           TS       EBANK
002915: 41,3530  E4,1771                                  EBANK=   N26/PRI
002916:
002917: 41,3530           34744                           CAF      BIT1
002918: 41,3531           71771                           MASK     N26/PRI
002919: 41,3532           10000                           CCS      A
002920: 41,3533           03555                           TC       SETVAC                                #  IF BIT1 = 1, FINDVAC
002921: 41,3534           34342                           CAF      TCNOVAC                               #  IF BIT1 = 0, NOVAC
002922: 41,3535           54154        REQEX1             TS       MPAC                                  #  TC NOVAC  OR  TC FINDVAC INTO MPAC
002923: 41,3536           44744                           CS       BIT1
002924: 41,3537           71771                           MASK     N26/PRI
002925: 41,3540           54160                           TS       MPAC       +4                         #  PRIO INTO MPAC+4 AS A TEMP
002926: 41,3541           04450        REQUESTC           TC       RELDSP
002927: 41,3542           31771                           CA       N26/PRI
002928: 41,3543           00006                           EXTEND
002929: 41,3544           12400                           BZF      GODSPALM                              #  OP ERROR AND EOJ IF ZERO PRIO/DELAY
002930: 41,3545           34210                           CA       ENDINST


002932: 41,3546           54157                           TS       MPAC       +3                         #  TC ENDOFJOB INTO MPAC+3
002933: 41,3547           00006                           EXTEND
002934: 41,3550           31773                           DCA      N26/2CAD                              #  JOB ADRES INTO MPAC+1
002935: 41,3551           52156                           DXCH     MPAC       +1                         #  BBCON INTO MPAC+2
002936: 41,3552           30160                           CA       MPAC       +4                         #  PRIO IN A
002937: 41,3553           00004                           INHINT
002938: 41,3554           00154                           TC       MPAC
002939:
002940: 41,3555           34345        SETVAC             CAF      TCFINDVC
002941: 41,3556           03535                           TC       REQEX1
002942:
002943:                                                                                                  #  VBRQWAIT ENTERS REQUEST TO WAITLIST FOR ANY ADDRESS WITH ANY DELAY.
002944:                                                                                                  #  IT DOES ENDOFJOB AFTER ENTERING REQUEST.DISPLAY SYST IS RELEASED.
002945:                                                                                                  #  IT ASSUMES NOUN 26 HAS BEEN PRELOADED WITH
002946:                                                                                                  #  COMPONENT 1  DELAY (LOW BITS)
002947:                                                                                                  #  COMPONENT 2  TASK ADRES (12 BIT)
002948:                                                                                                  #  COMPONENT 3  BBCON
002949:
002950: 41,3557           34343        VBRQWAIT           CAF      TCWAIT
002951: 41,3560           54154                           TS       MPAC                                  #  TC WAITLIST INTO MPAC
002952: 41,3561           34732                           CAF      EBANK4
002953: 41,3562           54003                           TS       EBANK
002954: 41,3563           31771                           CA       N26/PRI                               #  TIME DELAY
002955: 41,3564           03540        ENDRQWT            TC       REQUESTC   -1
002956:
002957:                                                                                                  #  REQUESTC WILL PUT TASK ADRES INTO MPAC+1, BBCON INTO MPAC+2,
002958:                                                                                                  #  TC ENDOFJOB INTO MPAC+3. IT WILL TAKE TIME DELAY OUT OF MPAC+4 AND
002959:                                                                                                  #  LEAVE IT IN A, INHINT AND TC MPAC.
002960:
002961:
002962: 40,3471                                           SETLOC   NVSBENDL   +1
002963: 40,3471                                           COUNT*   $$/PIN
002964: 40,3471           34744        VBPROC             CAF      ONE                                   #  PROCEED WITHOUT DATA
002965: 40,3472           55013                           TS       LOADSTAT
002966: 40,3473           04175                           TC       KILMONON                              #  TURN ON KILL MONITOR BIT
002967: 40,3474           04450                           TC       RELDSP
002968: 40,3475           04424                           TC       FLASHOFF
002969: 40,3476           03605                           TC       RECALTST                              #  SEE IF THERE IS ANY RECALL FROM ENDIDLE
002970:
002971:
002972: 40,3477           44744        VBTERM             CS       ONE
002973: 40,3500           03472                           TC       VBPROC     +1                         #  TERM VERB SETS LOADSTAT NEG
002974:
002975:
002976:                                                                                                  #  PROCKEY PERFORMS THE SAME FUNCTION AS VBPROC.  IT MUST BE CALLED UNDER
002977:                                                                                                  #  EXECUTIVE CONTROL, WITH CHRPRIO.
002978: 40,3501           41000        PROCKEY            CS       VERBREG                               #  DONT ALLOW PROCEED DURING LOAD.
002979: 40,3502           63516                           AD       VBSP2LD*                              #  DEC 22
002980: 40,3503           00006                           EXTEND
002981: 40,3504           26000                           DIM      A


002983: 40,3505           00006                           EXTEND
002984: 40,3506           13463                           BZF      CHARALRM
002985: 40,3507           34746        PROCKEY1           CAF      ZERO                                  #  SET REQRET FOR ENTER PASS 0.
002986: 40,3510           55012                           TS       REQRET
002987: 40,3511           44351                           CS       VD1                                   #  BLOCK NUMERICAL CHARACTERS, SIGNS, CLEAR
002988: 40,3512           54776                           TS       DSPCOUNT
002989: 40,3513           03471                           TC       VBPROC
002990:
002991:
002992:                                                                                                  #  VBRESEQ WAKES ENDIDLE AT SAME LINE AS FINAL ENTER OF LOAD (L+3).
002993:                                                                                                  #  (MAIN USE IS INTENDED AS RESPONSE TO INTERNALLY INITIATED FLASHING
002994:                                                                                                  #   DISPLAYS IN ENDIDLE. SHOULD NOT BE USED WITH LOAD VERBS,PLEASE PERFORM,
002995:                                                                                                  #   OR PLEASE MARK VERBS BECAUSE THEY ALREADY USE L+3 IN ANOTHER CONTEXT.)
002996:
002997: 40,3514           44746        VBRESEQ            CS       ZERO                                  #  MAKE IT LOOK LIKE DATA IN.
002998: 40,3515           03472                           TC       VBPROC     +1
002999:
003000:
003001: 40,3516           00026        VBSP2LD*           DEC      22         B-14                       #  VB22 = BLOAD
003002:
003003:                                                                                                  #  FLASH IS TURNED OFF BY PROCEED WITHOUT DATA, TERMINATE, RESEQUENCE,
003004:                                                                                                  #  END OF LOAD.
003005:


003007:                                                                                                  #  KEY RELEASE ROUTINE
003008:
003009:                                                                                                  #  THIS ROUTINE ALWAYS TURNS OFF THE UPACT LIGHT AND ALWAYS CLEARS DSPLOCK.
003010:
003011:                                                                                                  #  THE HIGHEST PRIORITY FUNCTION OF THE KEY RELEASE BUTTON IS THE
003012:                                                                                                  #  UNSUSPENDING OF A SUSPENDED MONITOR WHICH WAS EXTERNALLY INITIATED.
003013:                                                                                                  #  THIS FUNCTION IS ACCOMPLISHED BY CLEARING DSPLOCK AND TURNING OFF
003014:                                                                                                  #  THE KEY RELEASE LIGHT IF BOTH DSPLIST AND CADRSTOR ARE EMPTY.
003015:
003016:                                                                                                  #  IF NO SUCH MONITOR EXISTS, THEN RELDSP IS EXECUTED TO CLEAR DSPLOCK
003017:                                                                                                  #  AND THE EXTERNAL MONITOR BIT (FREEING THE DISPLAY SYSTEM FOR INTERNAL
003018:                                                                                                  #  USE), TURN OFF THE KEY RELEASE LIGHT, AND WAKE UP ANY JOB IN DSPLIST.
003019:
003020:                                                                                                  #  IN ADDITION IF THERE IS A JOB IN ENDIDLE, THEN CONTROL IS TRANSFERRED
003021:                                                                                                  #  TO PINBRNCH (IN DISPLAY INTERFACE ROUTINE) TO RE-EXECUTE THE SERIES OF
003022:                                                                                                  #  NVSUB CALLS ETC. THAT PRECEDED THE ENDIDLE CALL STILL AWAITING RESPONSE.
003023:                                                                                                  #  THIS FEATURE IS INTENDED FOR USE WHEN THE OPERATOR HAS BEEN REQUESTED TO
003024:                                                                                                  #  RESPOND TO SOME INTERNAL ACTION THAT USED ENDIDLE, BUT HE HAS WRITTEN
003025:                                                                                                  #  OVER THE INFORMATION ON THE DISPLAY PANEL BY SOME DISPLAYS OF HIS OWN
003026:                                                                                                  #  INITIATION WHICH DO NOT SERVE AS RESPONSES. HITTING KEY RLSE WILL
003027:                                                                                                  #  RE-ESTABLISH THE DISPLAYS TO THE STATE THEY WERE IN BEFORE HE OBSCURED
003028:                                                                                                  #  THEM, SO THAT HE CAN SEE THE WAITING REQUEST.  THIS WORKS ONLY FOR
003029:                                                                                                  #  INTERNAL PROGRAMS THAT USED ENDIDLE THROUGH MARGARETS DISPLAY
003030:                                                                                                  #  SUBROUTINES.
003031:
003032: 40,3517           44742        VBRELDSP           CS       BIT3
003033: 40,3520           00006                           EXTEND
003034: 40,3521           03011                           WAND     DSALMOUT                              #  TURN OFF UPACT LITE
003035: 40,3522           10115                           CCS      21/22REG                              #  OLD DSPLOCK
003036: 40,3523           34727                           CAF      BIT14
003037: 40,3524           71020                           MASK     MONSAVE1                              #  EXTERNAL MONITOR BIT (EMB)
003038: 40,3525           10000                           CCS      A
003039: 40,3526           03535                           TC       UNSUSPEN                              #  OLD DSPLOCK AND EMB BOTH 1, UNSUSPEND.
003040: 40,3527           04450        TSTLTS4            TC       RELDSP                                #  NOT UNSUSPENDING EXTERNAL MONITOR,
003041: 40,3530           11041                           CCS      CADRSTOR                              #   RELEASE DISPLAY SYSTEM AND
003042: 40,3531           03533                           TC       +2                                    #   DO RE-ESTABLISH IF CADRSTOR IS FULL.
003043: 40,3532           05146                           TC       ENDOFJOB
003044: 40,3533           04626                           TC       POSTJUMP
003045: 40,3534           21062                           CADR     PINBRNCH
003046: 40,3535           34746        UNSUSPEN           CAF      ZERO                                  #  EXTERNAL MONITOR IS SUSPENDED,
003047: 40,3536           55011                           TS       DSPLOCK                               #   JUST UNSUSPEND IT BY CLEARING DSPLOCK.
003048: 40,3537           11041                           CCS      CADRSTOR                              #   TURN KEY RELEASE LIGHT OFF IF BOTH
003049: 40,3540           05146                           TC       ENDOFJOB                              #   CADRSTOR AND DSPLIST ARE EMPTY.
003050: 40,3541           04473                           TC       RELDSP1
003051: 40,3542           05146                           TC       ENDOFJOB
003052:
003053: 40,3543                        ENDRELDS           EQUALS
003054:


003056:                                                                                                  #  NVSUB IS USED FOR SUB ROUTINE CALLS FROM WITHIN COMPUTER. IT CAN BE
003057:                                                                                                  #  USED TO CALL THE COMBINATION OF ANY DISPLAY, LOAD, OR MONITOR VERB
003058:                                                                                                  #  TOGETHER WITH ANY NOUN AVAILABLE TO THE KEYBOARD.
003059:                                                                                                  #  PLACE 0VVVVVVVNNNNNNN INTO A.
003060:                                                                                                  #  V-S ARE THE 7 BIT VERB CODE.  N-S ARE THE 7 BIT NOUN CODE.
003061:
003062:                                                                                                  #  IF NVSUB IS CALLED WITH THE FOLLOWING NEGATIVE NUMBERS (RATHER THAN THE
003063:                                                                                                  #  VERB-NOUN CODE) IN A, THEN THE DISPLAY IS BLANKED AS FOLLOWS-
003064:                                                                                                  #   -4 FULL BLANK, -3 LEAVE MODE, -2 LEAVE MODE AND VERB, -1 BLANK R-S ONLY
003065:
003066:                                                                                                  #  NVSUB CAN BE USED WITH MACH CADR TO BE SPEC BY PLACING THE CADR INTO
003067:                                                                                                  #  MPAC+2 BEFORE THE STANDARD NVSUB CALL.
003068:
003069:                                                                                                  #   NVSUB RETURNS TO 2+ CALLING LOC AFTER PERFORMING TASK, IF DISPLAY
003070:                                                                                                  #  SYSTEM IS AVAILABLE. THE NEW NOUN AND VERB CODES ARE DISPLAYED.
003071:                                                                                                  #  IF V:S =0, THE NEW NOUN CODE IS DISPLAYED ONLY(RETURN WITH NO FURTHER
003072:                                                                                                  #  ACTION). IF N-S =0, THE NEW VERB CODE IS DISPLAYED ONLY(RETURN WITH NO
003073:                                                                                                  #  FURTHER ACTION).
003074:
003075:                                                                                                  #  IT RETURNS TO 1+ CALLING LOC WITHOUT PERFORMING TASK, IF DISPLAY
003076:                                                                                                  #  SYSTEM IS BLOCKED (NOTHING IS DISPLAYED IN THIS CASE).
003077:                                                                                                  #  IT DOES TC ABORT (WITH OCT 01501) IF IT ENCOUNTERS A DISPLAY PROGRAM
003078:                                                                                                  #  ALARM CONDITION BEFORE RETURN TO CALLER.
003079:
003080:                                                                                                  #  THE DISPLAY SYSTEM IS BLOCKED BY THE DEPRESSION OF ANY
003081:                                                                                                  #  KEY, EXCEPT ERROR LIGHT RESET
003082:                                                                                                  #  IT IS RELEASED BY THE KEY RELEASE BUTTON, ALL EXTENDED VERBS,
003083:                                                                                                  #  PROCEED WITHOUT DATA, TERMINATE, RESEQUENCE, INITIALIZE EXECUTIVE,
003084:                                                                                                  #  RECALL PART OF RECALTST IF ENDIDLE WAS USED,
003085:                                                                                                  #  VB = REQUEST EXECUTIVE, VB = REQUEST WAITLIST,
003086:                                                                                                  #  MONITOR SET UP.
003087:
003088:                                                                                                  #  THE DISPLAY SYSTEM IS ALSO BLOCKED BY THE EXTERNAL MONITOR BIT, WHICH
003089:                                                                                                  #  INDICATES AN EXTERNALLY INITIATED MONITOR IS RUNNING (SEE MONITOR)
003090:
003091:                                                                                                  #  A NVSUB CALL THAT PASSES DSPLOCK AND THE EXTERNAL MONITOR BIT ENDS OLD
003092:                                                                                                  #  MONITOR.
003093:
003094:                                                                                                  #  DSPLOCK IS THE INTERLOCK FOR USE OF KEYBOARD AND DISPLAY SYSTEM WHICH
003095:                                                                                                  #  LOCKS OUT INTERNAL USE WHENEVER THERE IS EXTERNAL KEYBOARD ACTION.
003096:
003097:                                                                                                  #  NVSUB SHOULD BE USED TWICE IN SUCCESSION FOR :PLEASE PERFORM: SITUATIONS
003098:                                                                                                  #  (SIMILARLY FOR PLEASE MARK). FIRST PLACE THE CODED NUMBER FOR WHAT
003099:                                                                                                  #  ACTION IS DESIRED OF OPERATOR INTO THE REGISTERS REFERRED TO BY THE
003100:                                                                                                  #  :CHECKLIST: NOUN. GO TO NVSUB WITH A DISPLAY VERB AND THE :CHECKLIST:
003101:                                                                                                  #  NOUN. GO TO NVSUB AGAIN WITH THE :PLEASE PERFORM: VERB AND ZEROS IN THE
003102:                                                                                                  #  LOW 7 BITS. THIS :PASTES UP: THE :PLEASE PERFORM: VERB INTO THE VERB
003103:                                                                                                  #  LIGHTS.
003104:
003105:                                                                                                  #  NVMONOPT IS AN ENTRY SIMILAR TO NVSUB, BUT REQUIRING AN ADDITIONAL


003107:                                                                                                  #  PARAMETER IN L. IT SHOULD BE USED ONLY WITH A MONITOR VERB-NOUN CODE IN
003108:                                                                                                  #  A. AFTER EACH MONITOR DISPLAY A *PLEASE* VERB WILL BE PASTED IN THE VERB
003109:                                                                                                  #  LIGHTS OR DATA WILL BE BLANKED (OR BOTH) ACCORDING TO THE OPTIONS
003110:                                                                                                  #  SPECIFIED IN L. IF BITS 8-14 OF L ARE OTHER THAN ZERO, THEN THEY WILL
003111:                                                                                                  #  BE INTERPRETED AS A VERB CODE AND PASTED IN THE VERB LIGHTS. (THIS VERB
003112:                                                                                                  #  CODE SHOULD DESIGNATE ONE OF THE *PLEASE* VERBS.) IF BITS 1-3 OF L ARE
003113:                                                                                                  #  OTHER THAN ZERO, THEN THEY WILL BE USED TO BLANK DATA BY BEING FED TO
003114:                                                                                                  #  BLANKSUB. IF NVMONOPT IS USED WITH A VERB OTHER THAN A MONITOR VERB,
003115:                                                                                                  #  THE PARAMETER IN L HAS NO EFFECT.
003116:
003117:                                                                                                  #  NVSUB IN FIXED-FIXED PLACES 2+CALLING LOC INTO NVQTEM, TC NVSUBEND INTO
003118:                                                                                                  #  ENTRET. (THIS WILL RESTORE OLD CALLING BANK BITS)
003119:
003120:    4145                                           SETLOC   MID7       +1
003121:    4145                                           COUNT*   $$/PIN
003122:    4145           22007        NVSUB              LXCH     7                                     #  ZERO NVMONOPT OPTIONS
003123:    4146           54123        NVMONOPT           TS       NVTEMP
003124:    4147           34727                           CAF      BIT14
003125:    4150           71020                           MASK     MONSAVE1                              #  EXTERNAL MONITOR BIT
003126:    4151           61011                           AD       DSPLOCK
003127:    4152           10000                           CCS      A
003128:    4153           00002                           TC       Q                                     #  DSP SYST BLOCKED. RET TO 1+ CALLING LOC
003129:    4154           34744                           CAF      ONE                                   #  DSP SYST AVAILABLE
003130:    4155           60002        NVSBCOM            AD       Q
003131:    4156           55036                           TS       NVQTEM                                #  2+ CALLING LOC INTO NVQTEM
003132:    4157           23021                           LXCH     MONSAVE2                              #  STORE NVMONOPT OPTIONS
003133:    4160           04175                           TC       KILMONON                              #  TURN ON KILL MONITOR BIT
003134:    4161           34172        NVSUBCOM           CAF      NVSBBBNK
003135:
003136:    4162           56006                           XCH      BBANK
003137:    4163           00006                           EXTEND                                         #  SAVE OLD SUPERBITS
003138:    4164           04007                           ROR      SUPERBNK
003139:    4165           55037                           TS       NVBNKTEM
003140:    4166           34172                           CAF      PINSUPBT
003141:    4167           00006                           EXTEND
003142:    4170           01007                           WRITE    SUPERBNK
003143:    4171           02020                           TC       NVSUBB                                #  GO TO NVSUB1 THRU STANDARD LOC
003144:    4172     0776                                  EBANK=   DSPCOUNT
003145:    4172           62101        NVSBBBNK           BBCON    NVSUB1
003146:
003147:    4173     4172               PINSUPBT           =        NVSBBBNK                              #  CONTAINS THE PINBALL SUPERBITS.
003148:
003149:    4173           53037        NVSUBEND           DXCH     NVQTEM                                #  NVBNKTEM MUST = NVQTEM+1
003150:    4174           05167                           TC       SUPDXCHZ                              #  DTCB WITH SUPERBIT SWITCHING
003151:
003152: 41,3565                                           SETLOC   ENDRQWT    +1
003153:
003154: 41,3565                                           COUNT*   $$/PIN
003155:                                                                                                  #  BLANKDSP BLANKS DISPLAY ACCORDING TO OPTION NUMBER IN NVTEMP AS FOLLOWS
003156:                                                                                                  #   -4 FULL BLANK, -3 LEAVE MODE, -2 LEAVE MODE AND VERB, -1 BLANK R-S ONLY


003158: 41,3565           64750        BLANKDSP           AD       SEVEN                                 #  7,8,9,OR 10 (A HAD 0,1,2,OR 3)
003159: 41,3566           00004                           INHINT
003160: 41,3567           54124                           TS       CODE                                  #  BLANK SPECIFIED DSPTABS
003161: 41,3570           44731                           CS       BIT12
003162: 41,3571           50124                           INDEX    CODE
003163: 41,3572           57022                           XCH      DSPTAB
003164: 41,3573           10000                           CCS      A
003165: 41,3574           25015                           INCR     NOUT
003166: 41,3575           03576                           TC       +1
003167: 41,3576           10124                           CCS      CODE
003168: 41,3577           03567                           TC       BLANKDSP   +2
003169: 41,3600           00003                           RELINT
003170: 41,3601           50123                           INDEX    NVTEMP
003171: 41,3602           03607                           TC       +5
003172: 41,3603           03604                           TC       +1                                    #  NVTEMP HAS -4 (NEVER TOUCH MODREG)
003173: 41,3604           55000                           TS       VERBREG                               #             -3
003174: 41,3605           55001                           TS       NOUNREG                               #             -2
003175: 41,3606           55014                           TS       CLPASS                                #             -1
003176: 41,3607           44351                           CS       VD1
003177: 41,3610           54776                           TS       DSPCOUNT
003178: 41,3611           04424                           TC       FLASHOFF                              #  PROTECT AGAINST INVISIBLE FLASH
003179: 41,3612           03635                           TC       ENTSET     -2                         #  ZEROS REQRET
003180:
003181: 41,3613           33637        NVSUB1             CAF      ENTSET                                #  IN BANK
003182: 41,3614           54136                           TS       ENTRET                                #  SET RETURN TO NVSUBEND
003183: 41,3615           10123                           CCS      NVTEMP                                #  WHAT NOW
003184: 41,3616           03622                           TC       +4                                    #  NORMAL NVSUB CALL (EXECUTE VN OR PASTE)
003185: 41,3617           02400                           TC       GODSPALM
003186: 41,3620           03565                           TC       BLANKDSP                              #  BLANK DISPLAY AS SPECIFIED
003187: 41,3621           02400                           TC       GODSPALM
003188: 41,3622           36115                           CAF      LOW7
003189: 41,3623           70123                           MASK     NVTEMP
003190: 41,3624           54157                           TS       MPAC       +3                         #  TEMP FOR NOUN (CANT USE MPAC. DSPDECVN
003191: 41,3625           30123                           CA       NVTEMP                                #                  USES MPAC, +1, +2
003192: 41,3626           54023                           TS       EDOP                                  #  RIGHT 7
003193: 41,3627           30023                           CA       EDOP
003194: 41,3630           54160                           TS       MPAC       +4                         #  TEMP FOR VERB (CANT USE MPAC+1. DSPDECVN
003195:                                                                                                  #                 USES MPAC, +1, +2).
003196: 41,3631           10157                           CCS      MPAC       +3                         #  TEST NOUN
003197: 41,3632           03640                           TC       NVSUB2                                #  IF NOUN NOT +0, GO ON
003198: 41,3633           30160                           CA       MPAC       +4
003199: 41,3634           02366                           TC       UPDATVB    -1                         #  IF NOUN = +0, DISPLAY VERB . THEN RETURN
003200: 41,3635           34746                           CAF      ZERO                                  #  ZERO REQRET SO THAT PASTED VERBS CAN
003201: 41,3636           55012                           TS       REQRET                                #  BE EXECUTED BY OPERATOR.
003202: 41,3637           04173        ENTSET             TC       NVSUBEND
003203: 41,3640           10160        NVSUB2             CCS      MPAC       +4                         #  TEST VERB
003204: 41,3641           03645                           TC       +4                                    #  IF VERB NOT +0, GO ON
003205: 41,3642           30157                           CA       MPAC       +3
003206: 41,3643           02346                           TC       UPDATNN    -1                         #  IF VERB = +0, DISPLAY NOUN. THEN RETURN
003207: 41,3644           04173                           TC       NVSUBEND


003209: 41,3645           30156                           CA       MPAC       +2                         #  TEMP FOR MACH CADR TO BE SPEC. (DSPDECVN
003210: 41,3646           54161                           TS       MPAC       +5                         #               USES MPAC, +1, +2)
003211: 41,3647           30160                           CA       MPAC       +4
003212: 41,3650           02366                           TC       UPDATVB    -1                         #  IF BOTH NOUN AND VERB NOT +0, DISPLAY
003213: 41,3651           30157                           CA       MPAC       +3                         #  BOTH AND GO TO ENTPAS0.
003214: 41,3652           02346                           TC       UPDATNN    -1
003215: 41,3653           34746                           CAF      ZERO
003216: 41,3654           55013                           TS       LOADSTAT                              #  SET FOR WAITING FOR DATA CONDITION
003217: 41,3655           55014                           TS       CLPASS
003218: 41,3656           55012                           TS       REQRET                                #  SET REQRET FOR PASS 0.
003219: 41,3657           30161                           CA       MPAC       +5                         #  RESTORES MACH CADR TO BE SPEC TO MPAC+2
003220: 41,3660           54156                           TS       MPAC       +2                         #  FOR USE IN INTMCTBS (IN ENTPAS0).
003221: 41,3661           02062        ENDNVSB1           TC       ENTPAS0
003222:
003223:
003224:                                                                                                  #  IF INTERNAL MACH CADR TO BE SPECIFIED, MPAC+2 WILL BE PLACED INTO
003225:                                                                                                  #  NOUNCADR IN ENTPAS0 (INTMCTBS ).
003226:
003227:    4175                                           SETLOC   NVSUBEND   +2
003228:    4175                                           COUNT*   $$/PIN
003229:                                                                                                  #  FORCE BIT 15 OF MONSAVE1 TO 1.
003230:    4175           34726        KILMONON           CAF      BIT15                                 #     THIS IS THE KILL MONITOR BIT.
003231:    4176           55020                           TS       MONSAVE1                              #  TURN OFF BIT 14, THE EXTERNAL
003232:                                                                                                  #   MONITOR BIT.
003233:    4177           00002                           TC       Q
003234:
003235:
003236:                                                                                                  #  LOADSTAT  +0 INACTIVE(WAITING FOR DATA). SET BY NVSUB
003237:                                                                                                  #            +1  PROCEED NO DATA. SET BY SPECIAL VERB
003238:                                                                                                  #           -1 TERMINATE   SET BY SPECIAL VERB
003239:                                                                                                  #           -0    DATA IN      SET BY END OF LOAD ROUTINE
003240:                                                                                                  #              OR RESEQUENCE   SET BY VERB 32
003241:
003242:
003243:                                                                                                  #  L  TC ENDIDLE  (FIXED FIXED)
003244:                                                                                                  #  ROUTINES THAT REQUEST LOADS THROUGH NVSUB SHOULD USE ENDIDLE WHILE
003245:                                                                                                  #  WAITING FOR THE DATA TO BE LOADED. ENDIDLE PUTS CURRENT JOB TO SLEEP.
003246:                                                                                                  #  ENDIDLE CANNOT BE CALLED FROM ERASABLE OR F/F MEMORY,
003247:                                                                                                  #  SINCE JOBSLEEP AND JOBWAKE CAN HANDLE ONLY FIXED BANKS.
003248:                                                                                                  #  RECALTST TESTS LOADSTAT AND WAKES JOB UP TO,
003249:                                                                                                  #  L+1      FOR TERMINATE
003250:                                                                                                  #  L+2      FOR PROCEED WITHOUT DATA
003251:                                                                                                  #  L+3      FOR DATA IN, OR RESEQUENCE
003252:                                                                                                  #  IT DOES NOTHING IF LOADSTAT INDICATES WAITING FOR DATA.
003253:
003254:
003255:                                                                                                  #  ENDIDLE ABORTS (WITH CODE 01206) IF A SECOND JOB ATTEMPTS TO GO TO SLEEP
003256:                                                                                                  #  IN PINBALL. IN PARTICULAR, IF AN ATTEMPT IS MADE TO GO TO ENDIDLE WHEN
003257:                                                                                                  #  1) CADRSTOR NOT= +0. THIS IS THE CASE WHERE THE CAPACITY OF ENDIDLE IS


003259:                                                                                                  #  EXCEEDED. (+-NZ INDICATE A JOB IS ALREADY ASLEEP DUE TO ENDIDLE.)
003260:                                                                                                  #  2) DSPLIST NOT= +0. THIS INDICATES A JOB IS ALREADY ASLEEP DUE TO
003261:                                                                                                  #  NVSUBUSY.
003262:
003263:    4200           22002        ENDIDLE            LXCH     Q                                     #  RETURN ADDRESS INTO L.
003264:    4201           04211                           TC       ISCADR+0                              #  ABORT IF CADRSTOR NOT= +0
003265:    4202           04215                           TC       ISLIST+0                              #  ABORT IF DSPLIST NOT= +0
003266:    4203           30001                           CA       L                                     #  DONT SET DSPLOCK TO 1 SO CAN USE
003267:    4204           75003                           MASK     LOW10                                 #  ENDIDLE WITH NVSUB INITIATED MONITOR.
003268:    4205           60004                           AD       FBANK                                 #  SAME STRATEGY FOR CADR AS MAKECADR.
003269:    4206           55041                           TS       CADRSTOR
003270:    4207           05124                           TC       JOBSLEEP
003271:
003272:
003273:    4210           05146        ENDINST            TC       ENDOFJOB
003274:
003275:
003276:    4211           11041        ISCADR+0           CCS      CADRSTOR                              #  ABORTS (CODE 01206) IF CADRSTOR NOT= +0.
003277:    4212           04220                           TC       DSPABORT                              #  RETURNS IF CADRSTOR = +0.
003278:    4213           00002                           TC       Q
003279:    4214           04220                           TC       DSPABORT
003280:
003281:    4215           11042        ISLIST+0           CCS      DSPLIST                               #  ABORTS (CODE 01206) IF DSPLIST NOT= +0.
003282:    4216           04220                           TC       DSPABORT                              #  RETURNS IF DSPLIST = +0.
003283:    4217           00002                           TC       Q
003284:    4220           05626        DSPABORT           TC       BAILOUT
003285:    4221           31206                           OCT      31206
003286:
003287:                                                                                                  #  JAMTERM ALLOWS PROGRAMS TO PERFORM THE TERMINATE FUNCTION.
003288:                                                                                                  #  IT DOES ENDOFJOB.
003289:
003290:    4222           34172        JAMTERM            CAF      PINSUPBT
003291:    4223           00006                           EXTEND
003292:    4224           01007                           WRITE    SUPERBNK
003293:    4225           34233                           CAF      34DEC
003294:    4226           55012                           TS       REQRET                                #  LEAVE ENTER SET FOR ENTPASS0.
003295:    4227           44351                           CS       VD1
003296:    4230           54776                           TS       DSPCOUNT
003297:    4231           04626                           TC       POSTJUMP
003298:    4232           61477                           CADR     VBTERM
003299:
003300:    4233           00042        34DEC              DEC      34         B-14
003301:
003302:
003303:                                                                                                  #  JAMPROC ALLOWS PROGRAMS TO PERFORM THE PROCEED/PROCEED WITHOUT DATA
003304:                                                                                                  #  FUNCTION. IT DOES ENDOFJOB.
003305:
003306:    4234           34172        JAMPROC            CAF      PINSUPBT
003307:    4235           00006                           EXTEND
003308:    4236           01007                           WRITE    SUPERBNK


003310:    4237           34245                           CAF      33DEC
003311:    4240           55012                           TS       REQRET                                #  LEAVE ENTER SET FOR ENTPASS0.
003312:    4241           44351                           CS       VD1
003313:    4242           54776                           TS       DSPCOUNT
003314:    4243           04626                           TC       POSTJUMP
003315:    4244           61471                           CADR     VBPROC
003316:
003317:    4245           00041        33DEC              DEC      33         B-14
003318:
003319:
003320:                                                                                                  #  BLANKSUB BLANKS ANY COMBINATION OF R1, R2, R3.
003321:                                                                                                  #  CALL WITH BLANKING CODE IN A.
003322:                                                                                                  #  BIT1=1 BLANKS R1, BIT2=1 BLANKS R2, BIT3=1 BLANKS R3.
003323:                                                                                                  #  ANY COMBINATION OF THESE BITS IS ACCEPTED.
003324:
003325:                                                                                                  #  DSPCOUNT IS RESTORED TO STATE IT WAS IN BEFORE BLANKSUB WAS EXECUTED.
003326:
003327:    4246           74750        BLANKSUB           MASK     SEVEN
003328:    4247           54123                           TS       NVTEMP                                #  STORE BLANKING CODE IN NVTEMP.
003329:    4250           34727                           CAF      BIT14
003330:    4251           71020                           MASK     MONSAVE1                              #  EXTERNAL MONITOR BIT
003331:    4252           61011                           AD       DSPLOCK
003332:    4253           10000                           CCS      A
003333:    4254           00002                           TC       Q                                     #  DSP SYST BLOCKED. RET TO 1+ CALLING LOC
003334:    4255           24002                           INCR     Q                                     #  DSP SYST AVAILABLE
003335:                                                                                                  #  SET RETURN FOR 2+ CALLING LOC
003336:    4256           10123                           CCS      NVTEMP
003337:    4257           14261                           TCF      +2
003338:    4260           00002                           TC       Q                                     #  NOTHING TO BLANK. RET TO 2+ CALLING LOC
003339:    4261           22002                           LXCH     Q                                     #  SET RETURN FOR 2 + CALLING LOC
003340:    4262           34273                           CAF      BLNKBBNK
003341:    4263           56006                           XCH      BBANK
003342:    4264           00006                           EXTEND
003343:    4265           04007                           ROR      SUPERBNK                              #  SAVE OLD SUPERBITS.
003344:    4266           52131                           DXCH     BUF
003345:    4267           34172                           CAF      PINSUPBT
003346:    4270           00006                           EXTEND
003347:    4271           01007                           WRITE    SUPERBNK
003348:    4272           03543                           TC       BLNKSUB1
003349:
003350:    4273     0776                                  EBANK=   DSPCOUNT
003351:    4273           60101        BLNKBBNK           BBCON    BLNKSUB1
003352:    4274                        ENDBLFF            EQUALS
003353:
003354: 40,3543                                           SETLOC   ENDRELDS
003355: 40,3543                                           COUNT*   $$/PIN
003356: 40,3543           30776        BLNKSUB1           CA       DSPCOUNT                              #  SAVE OLD DSPCOUNT FOR LATER RESTORATION
003357: 40,3544           54132                           TS       BUF        +2
003358: 40,3545           34744                           CAF      BIT1                                  #  TEST BIT1. SEE IF R1 TO BE BLANKED.
003359: 40,3546           03565                           TC       TESTBIT


003361: 40,3547           34310                           CAF      R1D1
003362: 40,3550           02524                           TC       5BLANK     -1
003363: 40,3551           34743                           CAF      BIT2                                  #  TEST BIT 2. SEE IF R2 TO BE BLANKED.
003364: 40,3552           03565                           TC       TESTBIT
003365: 40,3553           34311                           CAF      R2D1
003366: 40,3554           02524                           TC       5BLANK     -1
003367: 40,3555           34742                           CAF      BIT3                                  #  TEST BIT3. SEE IF R3 TO BE BLANKED.
003368: 40,3556           03565                           TC       TESTBIT
003369: 40,3557           34312                           CAF      R3D1
003370: 40,3560           02524                           TC       5BLANK     -1
003371: 40,3561           30132                           CA       BUF        +2                         #  RESTORE DSPCOUNT TO STATE IT HAD
003372: 40,3562           54776                           TS       DSPCOUNT                              #       BEFORE BLANKSUB.
003373: 40,3563           52131                           DXCH     BUF                                   #  CALL L+2 DIRECTLY.
003374: 40,3564           05170                           TC       SUPDXCHZ   +1                         #  DTCB WITH SUPERBIT SWITCHING
003375:
003376: 40,3565           70123        TESTBIT            MASK     NVTEMP                                #  NVTEMP CONTAINS BLANKING CODE.
003377: 40,3566           10000                           CCS      A
003378: 40,3567           00002                           TC       Q                                     #  IF CURRENT BIT = 1, RETURN TO L+1.
003379: 40,3570           50002                           INDEX    Q                                     #  IF CURRENT BIT = 0, RETURN TO L+3.
003380: 40,3571           00002                           TC       2
003381:
003382: 40,3572                        ENDBSUB1           EQUALS
003383:
003384:
003385:                                                                                                  #  DSPMM DOES NOT DISPLAY MODREG DIRECTLY. IT PUTS IN EXEC REQUEST WITH
003386:                                                                                                  #  PRIO 30000 FOR DSPMMJB AND RETURNS TO CALLER.
003387:
003388:                                                                                                  #  IF MODREG CONTAINS -0, DSPMMJB BLANKS THE MODE LIGHTS.
003389:
003390:                                                                                                  #  DSPMM MUST BE IN BANK 27 OR LOWER, SO IT CAN BE CALLED VIA BANKCALL.
003391:
003392: 07,2607                                           BANK     7
003393: 04,2000                                           SETLOC   PINBALL4
003394: 04,2000                                           BANK
003395:
003396: 04,2657                                           COUNT*   $$/PIN
003397: 04,2657           56002        DSPMM              XCH      Q
003398: 04,2660           54154                           TS       MPAC
003399: 04,2661           00004                           INHINT
003400: 04,2662           34346                           CAF      CHRPRIO
003401: 04,2663           05063                           TC       NOVAC
003402: 04,2664     0776                                  EBANK=   DSPCOUNT
003403: 04,2664           03572 60101                     2CADR    DSPMMJB
003404:
003405: 04,2666           00003                           RELINT
003406: 04,2667           00154        ENDSPMM            TC       MPAC
003407:
003408:                                                                                                  #  DSPMM  PLACE MAJOR MODE CODE INTO MODREG
003409:
003410: 40,3572                                           SETLOC   ENDBSUB1


003412: 40,3572                                           COUNT*   $$/PIN
003413: 40,3572           34353        DSPMMJB            CAF      MD1                                   #  GETS HERE THRU DSPMM
003414: 40,3573           56776                           XCH      DSPCOUNT
003415: 40,3574           54140                           TS       DSPMMTEM                              #  SAVE DSPCOUNT
003416: 40,3575           11010                           CCS      MODREG
003417: 40,3576           64744                           AD       ONE
003418: 40,3577           03335                           TC       DSPDECVN                              #  IF MODREG IS + OR +0, DISPLAY MODREG
003419: 40,3600           03602                           TC       +2                                    #  IF MODREG IS -NZ, DO NOTHING
003420: 40,3601           02570                           TC       2BLANK                                #  IF MODREG IS -0, BLANK MM
003421: 40,3602           56140                           XCH      DSPMMTEM                              #  RESTORE DSPCOUNT
003422: 40,3603           54776                           TS       DSPCOUNT
003423: 40,3604           05146                           TC       ENDOFJOB
003424:
003425:
003426:                                                                                                  #  RECALTST IS ENTERED DIRECTLY AFTER DATA IS LOADED (OR RESEQUENCE VERB IS
003427:                                                                                                  #  EXECUTED), TERMINATE VERB IS EXECUTED, OR PROCEED WITHOUT DATA VERB IS
003428:                                                                                                  #  EXECUTED. IT WAKES UP JOB THAT DID TC ENDIDLE.
003429:
003430:                                                                                                  #  IF CADRSTOR NOT= +0, IT PUTS +0 INTO DSPLOCK, AND TURNS OFF KEY RLSE
003431:                                                                                                  #  LIGHT IF DSPLIST IS EMPTY (LEAVES KEY RLSE LIGHT ALONE IF NOT EMPTY).
003432:
003433: 40,3605           11041        RECALTST           CCS      CADRSTOR
003434: 40,3606           03610                           TC       RECAL1
003435: 40,3607           05146                           TC       ENDOFJOB                              #  NORMAL EXIT IF KEYBOARD INITIATED
003436: 40,3610           34746        RECAL1             CAF      ZERO
003437: 40,3611           57041                           XCH      CADRSTOR
003438: 40,3612           00004                           INHINT
003439: 40,3613           05130                           TC       JOBWAKE
003440: 40,3614           11013                           CCS      LOADSTAT
003441: 40,3615           03637                           TC       DOPROC                                #  + PROCEED WITHOUT DATA
003442: 40,3616           05146                           TC       ENDOFJOB                              #  PATHALOGICAL CASE EXIT
003443: 40,3617           03635                           TC       DOTERM                                #  -   TERMINATE
003444: 40,3620           34743                           CAF      TWO                                   #  -0 DATA IN OR RESEQUENCE
003445: 40,3621           50064        RECAL2             INDEX    LOCCTR
003446: 40,3622           60164                           AD       LOC                                   #  LOC IS + FOR BASIC JOBS
003447: 40,3623           50064                           INDEX    LOCCTR
003448: 40,3624           54164                           TS       LOC
003449: 40,3625           31001                           CA       NOUNREG                               #  SAVE VERB IN MPAC, NOUN IN MPAC+1 AT
003450: 40,3626           54001                           TS       L                                     #  TIME OF RESPONSE TO ENDIDLE FOR
003451: 40,3627           31000                           CA       VERBREG                               #  POSSIBLE LATER TESTING BY JOB THAT HAS
003452: 40,3630           50064                           INDEX    LOCCTR                                #  BEEN WAKED UP.
003453: 40,3631           52155                           DXCH     MPAC
003454: 40,3632           00003                           RELINT
003455: 40,3633           04450        RECAL3             TC       RELDSP
003456: 40,3634           05146                           TC       ENDOFJOB
003457:
003458: 40,3635           34746        DOTERM             CAF      ZERO
003459: 40,3636           03621                           TC       RECAL2
003460:
003461: 40,3637           34744        DOPROC             CAF      ONE


003463: 40,3640           03621                           TC       RECAL2
003464:


003466:                                                                                                  #  MISCELLANEOUS SERVICE ROUTINES IN FIXED/FIXED
003467:
003468:    4274                                           SETLOC   ENDBLFF
003469:
003470:    4274                                           COUNT*   $$/PIN
003471:                                                                                                  #  SETNCADR       E CADR ARRIVES IN A. IT IS STORED IN NOUNCADR. EBANK BITS
003472:                                                                                                  #                 ARE SET. E ADRES IS DERIVED AND PUT INTO NOUNADD.
003473:
003474:    4274           55016        SETNCADR           TS       NOUNCADR                              #  STORE ECADR
003475:    4275           54003                           TS       EBANK                                 #  SET EBANK BITS
003476:    4276           74350                           MASK     LOW8
003477:    4277           65000                           AD       OCT1400
003478:    4300           54145                           TS       NOUNADD                               #  PUT E ADRES INTO NOUNADD
003479:    4301           00002                           TC       Q
003480:
003481:
003482:                                                                                                  #  SETNADD        GETS E CADR FROM NOUNCADR, SETS EBANK BITS, DERIVES
003483:                                                                                                  #                 E ADRES AND PUTS IT INTO NOUNADD.
003484:
003485:    4302           31016        SETNADD            CA       NOUNCADR
003486:    4303           14275                           TCF      SETNCADR   +1
003487:
003488:                                                                                                  #  SETEBANK       E CADR ARRIVES IN A. EBANK BITS ARE SET. E ADRES IS
003489:                                                                                                  #                 DERIVED AND LEFT IN A.
003490:
003491:    4304           54003        SETEBANK           TS       EBANK                                 #  SET EBANK BITS
003492:    4305           74350                           MASK     LOW8
003493:    4306           65000                           AD       OCT1400                               #  E ADRES LEFT IN A
003494:    4307           00002                           TC       Q
003495:
003496:
003497:    4310           00016        R1D1               OCT      16                                    #  THESE 3 CONSTANTS FORM A PACKED TABLE.
003498:    4311           00011        R2D1               OCT      11                                    #  DONT SEPARATE.
003499:    4312           00004        R3D1               OCT      4
003500:
003501:    4313           54020        RIGHT5             TS       CYR
003502:    4314           40020                           CS       CYR
003503:    4315           40020                           CS       CYR
003504:    4316           40020                           CS       CYR
003505:    4317           40020                           CS       CYR
003506:    4320           56020                           XCH      CYR
003507:    4321           00002                           TC       Q
003508:
003509:    4322           54022        LEFT5              TS       CYL
003510:    4323           40022                           CS       CYL
003511:    4324           40022                           CS       CYL
003512:    4325           40022                           CS       CYL
003513:    4326           40022                           CS       CYL


003515:    4327           56022                           XCH      CYL
003516:    4330           00002                           TC       Q
003517:
003518:    4331           60000        SLEFT5             DOUBLE
003519:    4332           60000                           DOUBLE
003520:    4333           60000                           DOUBLE
003521:    4334           60000                           DOUBLE
003522:    4335           60000                           DOUBLE
003523:    4336           00002                           TC       Q
003524:
003525:
003526:    4337           00037        LOW5               OCT      37                                    #  THESE 3 CONSTANTS FORM A PACKED TABLE.
003527:    4340           01740        MID5               OCT      1740                                  #  DONT SEPARATE.
003528:    4341           76000        HI5                OCT      76000                                 #  MUST STAY HERE
003529:
003530:    4342           05063        TCNOVAC            TC       NOVAC
003531:    4343           05205        TCWAIT             TC       WAITLIST
003532:    4344           05263        TCTSKOVR           TC       TASKOVER
003533:    4345           05076        TCFINDVC           TC       FINDVAC
003534:
003535:
003536:    4346           30000        CHRPRIO            OCT      30000                                 #  EXEC PRIORITY OF CHARIN
003537:
003538:
003539:    4347           03777        LOW11              OCT      3777
003540:    4350     4347               B12-1              EQUALS   LOW11
003541:    4350           00377        LOW8               OCT      377
003542:
003543:
003544:    4351           00023        VD1                OCT      23                                    #  THESE 3 CONSTANTS FORM A PACKED TABLE.
003545:    4352           00021        ND1                OCT      21                                    #  DONT SEPARATE.
003546:    4353           00025        MD1                OCT      25
003547:
003548:    4354           00012        BINCON             DEC      10         B-14
003549:
003550:    4355           34736        FALTON             CA       BIT7                                  #  TURN ON OPERATOR ERROR LIGHT
003551:    4356           00006                           EXTEND
003552:    4357           05011                           WOR      DSALMOUT                              #  BIT 7 OF CHANNEL 11
003553:    4360           00002                           TC       Q
003554:
003555:    4361           44736        FALTOF             CS       BIT7                                  #  TURN OFF OPERATOR ERROR LIGHT
003556:    4362           00006                           EXTEND
003557:    4363           03011                           WAND     DSALMOUT                              #  BIT 7 OF CHANNEL 11
003558:    4364           00002                           TC       Q
003559:
003560:    4365           34740        RELDSPON           CAF      BIT5                                  #  TURN ON KEY RELEASE LIGHT
003561:    4366           00006                           EXTEND
003562:    4367           05011                           WOR      DSALMOUT                              #  BIT 5 OF CHANNEL 11
003563:    4370           00002                           TC       Q
003564:


003566:    4371           00006        LODSAMPT           EXTEND
003567:    4372           30025                           DCA      TIME2
003568:    4373           52014                           DXCH     SAMPTIME
003569:    4374           00002                           TC       Q
003570:
003571:
003572:    4375           00006        TPSL1              EXTEND                                         #  SHIFTS MPAC, +1, +2 LEFT 1
003573:    4376           30156                           DCA      MPAC       +1                         #  LEAVES OVFIND SET TO +/- 1 FOR OF/UF
003574:    4377           20156                           DAS      MPAC       +1
003575:    4400           60154                           AD       MPAC
003576:    4401           26154                           ADS      MPAC
003577:    4402           54007                           TS       7                                     #  TS A DOES NOT CHANGE A ON OF/UF.
003578:    4403           00002                           TC       Q                                     #  NO NET OF/UF
003579:    4404           54162                           TS       MPAC+6                                #  MPAC +6 SET TO +/-1 FOR OF/UF
003580:    4405           00002                           TC       Q
003581:
003582:
003583:                                                                                                  #  IF MPAC, +1 ARE EACH +NZ OR +0 AND C(A)=-0, SHORTMP WRONGLY GIVES +0.
003584:                                                                                                  #  IF MPAC, +1 ARE EACH -NZ OR -0 AND C(A)=+0, SHORTMP WRONGLY GIVES +0.
003585:                                                                                                  #  PRSHRTMP FIXES FIRST CASE ONLY, BY MERELY TESTING C(A) AND IF IT = -0,
003586:                                                                                                  #  SETTING RESULT TO -0.
003587:                                                                                                  #   (DO NOT USE PRSHRTMP UNLESS MPAC, +1 ARE EACH +NZ OR +0, AS THEY ARE
003588:                                                                                                  #   WHEN THEY CONTAIN TH E SF CONSTANTS.)
003589:
003590:    4406           54135        PRSHRTMP           TS       MPTEMP
003591:    4407           10000                           CCS      A
003592:    4410           30135                           CA       MPTEMP                                #  C(A) +, DO REGULAR SHORTMP
003593:    4411           17331                           TCF      SHORTMP    +1                         #  C(A) +0, DO REGULAR SHORTMP
003594:    4412           14410                           TCF      -2                                    #  C(A) -, DO REGULAR SHORTMP
003595:    4413           44746                           CS       ZERO                                  #  C(A) -0, FORCE RESULT TO -0 AND RETURN.
003596:    4414           54154                           TS       MPAC
003597:    4415           54155                           TS       MPAC       +1
003598:    4416           54156                           TS       MPAC       +2
003599:    4417           00002                           TC       Q
003600:
003601:
003602:    4420           34737        FLASHON            CAF      BIT6                                  #  TURN ON V/N FLASH
003603:    4421           00006                           EXTEND                                         #  BIT 6 OF CHANNEL 11
003604:    4422           05011                           WOR      DSALMOUT
003605:    4423           00002                           TC       Q
003606:
003607:
003608:    4424           44737        FLASHOFF           CS       BIT6                                  #  TURN OFF V/N FLASH
003609:    4425           00006                           EXTEND
003610:    4426           03011                           WAND     DSALMOUT                              #  BIT 6 OF CHANNEL 11
003611:    4427           00002                           TC       Q
003612:


003614:                                                                                                  #  INTERNAL USE OF KEYBOARD AND DISPLAY PROGRAM
003615:
003616:                                                                                                  #  USER MUST SCHEDULE CALLS TO NVSUB SO THAT THERE IS NO CONFLICT OF USE OR
003617:                                                                                                  #  CONFUSION TO OPERATOR. THE OLD GRABLOCK (INTERNAL/INTERNAL INTERLOCK)
003618:                                                                                                  #  HAS BEEN REMOVED AND THE INTERNAL USER NO LONGER HAS THE PROTECTION THIS
003619:                                                                                                  #  OFFERED.
003620:
003621:                                                                                                  #  THERE ARE TWO WAYS A JOB CAN BE PUT TO SLEEP BY THE KEYBOARD + DISPLAY
003622:                                                                                                  #  PROGRAM.    1) BY ENDIDLE
003623:                                                                                                  #              2) BY NVSUBUSY
003624:                                                                                                  #  THE BASIC CONVENTION IS THAT ONLY ONE JOB WILL BE PERMITTED ASLEEP VIA
003625:                                                                                                  #  THE KEYBOARD + DISPLAY PROGRAM AT A TIME. IF A JOB ATTEMPTS TO GO TO
003626:                                                                                                  #  SLEEP BY MEANS OF (1) OR (2) AND THERE IS ALREADY A JOB ASLEEP THAT WAS
003627:                                                                                                  #  PUT TO SLEEP BY (1) OR (2), THEN AN ABORT IS CAUSED.
003628:
003629:
003630:                                                                                                  #  THE CALLING SEQUENCE FOR NVSUB IS
003631:                                                                                                  #           CAF    V/N
003632:                                                                                                  #  L        TC     NVSUB
003633:                                                                                                  #  L+1      RETURN HERE IF OPERATOR HAS INTERVENED
003634:                                                                                                  #  L+2      RETURN HERE AFTER EXECUTION
003635:
003636:
003637:                                                                                                  #        A ROUTINE CALLED  NVSUBUSY IS PROVIDED (USE IS OPTIONAL)  TO PUT
003638:                                                                                                  #  YOUR JOB TO SLEEP UNTIL THE OPERATOR RELEASES THE KEYBOARD + DISPLAY
003639:                                                                                                  #  SYSTEM. NVSUBUSY ALSO TURNS ON THE KEY RELEASE LIGHT.
003640:                                                                                                  #  NVSUBUSY CANNOT BE CALLED FROM ERASABLE OR F/F MEMORY,
003641:                                                                                                  #  SINCE JOBSLEEP AND JOBWAKE CAN HANDLE ONLY FIXED BANKS.
003642:
003643:
003644:                                                                                                  #         THE CALLING SEQUENCE IS
003645:                                                                                                  #           CAF    WAKEFCADR
003646:                                                                                                  #           TC     NVSUBUSY
003647:
003648:
003649:                                                                                                  #  .
003650:
003651:
003652:                                                                                                  #  NVSUBUSY IS INTENDED FOR USE WHEN AN INTERNAL PROGRAM FINDS THE OPERATOR
003653:                                                                                                  #  IS USING THE KEYBOARD + DISPLAY PROGRAM (BY HIS OWN INITIATION). IT IS
003654:                                                                                                  #  NOT INTENDED FOR USE WHEN ONE INTERNAL PROGRAM FINDS ANOTHER INTERNAL
003655:                                                                                                  #  PROGRAM USING THE KEYBOARD + DISPLAY PROGRAM.
003656:
003657:
003658:                                                                                                  #  NVSUBUSY ABORTS (WITH CODE 01206) IF A SECOND JOB ATTEMPTS TO GO TO
003659:                                                                                                  #  SLEEP IN PINBALL. IN PARTICULAR, IF AN ATTEMPT IS MADE TO GO TO NVSUBUSY
003660:                                                                                                  #  WHEN
003661:                                                                                                  #  1) DSPLIST NOT= +0. THIS IS THE CASE WHERE THE CAPACITY OF THE DSPLIST
003662:                                                                                                  #     IS EXCEEDED.
003663:                                                                                                  #  2) CADRSTOR NOT= +0. THIS INDICATES THAT A JOB IS ALREADY USING


003665:                                                                                                  #  ENDIDLE. (+-NZ INDICATE A JOB IS ALREADY ASLEEP DUE TO ENDIDLE.)
003666:
003667:    4430           44435        PRENVBSY           CS       2K+3                                  #  SPECIAL ENTRANCE FOR ROUTINES IN FIXED
003668:    4431           60002                           AD       Q                                     #  BANKS ONLY DESIRING THE FCADR OF(LOC
003669:    4432           60004                           AD       FBANK                                 #  FROM WHICH THE TC PRENVBSY WAS DONE) -2
003670:    4433           04626        NVSUBUSY           TC       POSTJUMP                              #  TO BE ENTERED.
003671:    4434           10670                           CADR     NVSUBSY1
003672:    4435           02003        2K+3               OCT      2003
003673:
003674:                                                                                                  #  NVSUBSY1 MUST BE IN BANK 27 OR LOWER, SO IT WILL PUT CALLER TO SLEEP
003675:                                                                                                  #  WITH HIS PROPER SUPERBITS.
003676:
003677: 04,2670                                           SETLOC   ENDSPMM    +1
003678: 04,2670                                           COUNT*   $$/PIN
003679: 04,2670           54001        NVSUBSY1           TS       L
003680: 04,2671           04211                           TC       ISCADR+0                              #  ABORT IF CADRSTOR NOT= +0.
003681: 04,2672           04215                           TC       ISLIST+0                              #  ABORT IF DSPLIST NOT= +0.
003682: 04,2673           04365                           TC       RELDSPON
003683: 04,2674           30001                           CA       L
003684: 04,2675           55042                           TS       DSPLIST
003685: 04,2676           05124        ENDNVBSY           TC       JOBSLEEP
003686:
003687:
003688:                                                                                                  #  NVSBWAIT IS A SPECIAL ENTRANCE FOR ROUTINES IN FIXED BANKS ONLY. IF
003689:                                                                                                  #  SYSTEM IS NOT BUSY, IT EXECUTES V/N AND RETURNS TO L+1 (L= LOC FROM
003690:                                                                                                  #  WHICH THE TC NVSBWAIT WAS DONE). IF SYSTEM IS BUSY, IT PUTS CALLING JOB
003691:                                                                                                  #  TO SLEEP WITH L-1 GOING INTO LIST FOR EVENTUAL WAKING UP WHEN SYSTEM
003692:                                                                                                  #  IS NOT BUSY.
003693:
003694:    4436                                           SETLOC   NVSUBUSY   +3
003695:    4436                                           COUNT*   $$/PIN
003696:    4436           22007        NVSBWAIT           LXCH     7                                     #  ZERO NVMONOPT OPTIONS
003697:    4437           54123                           TS       NVTEMP
003698:    4440           34727                           CAF      BIT14
003699:    4441           71020                           MASK     MONSAVE1                              #  EXTERNAL MONITOR BIT
003700:    4442           61011                           AD       DSPLOCK
003701:    4443           10000                           CCS      A
003702:    4444           14446                           TCF      NVSBWT1                               #  BUSY
003703:    4445           14155                           TCF      NVSBCOM                               #  FREE. NVSUB WILL SAVE L+1 FOR RETURN
003704:                                                                                                  #  AFTER EXECUTION.
003705:    4446           24002        NVSBWT1            INCR     Q                                     #  L+2. PRENVBSY WILL PUT L-1 INTO LIST AND
003706:    4447           14430                           TCF      PRENVBSY                              #  GO TO SLEEP.
003707:
003708:
003709:                                                                                                  #  RELDSP IS USED BY VBPROC, VBTERM, VBRQEXEC, VBRQWAIT, VBRELDSP, EXTENDED
003710:                                                                                                  #  VERB DISPATCHER, VBRESEQ, RECALTST.
003711:                                                                                                  #  RELDSP1 IS USED BY MONITOR SET UP, VBRELDSP.
003712:    4450           56002        RELDSP             XCH      Q                                     #  SET DSPLOCK TO +0, TURN RELDSP LIGHT
003713:    4451           54144                           TS       RELRET                                #  OFF,  SEARCH DSPLIST
003714:    4452           44727                           CS       BIT14


003716:    4453           00004                           INHINT
003717:    4454           71020                           MASK     MONSAVE1
003718:    4455           55020                           TS       MONSAVE1                              #  TURN OFF EXTERNAL MONITOR BIT
003719:    4456           11042                           CCS      DSPLIST
003720:    4457           04461                           TC       +2
003721:    4460           04464                           TC       RELDSP2                               #  LIST EMPTY
003722:    4461           34746                           CAF      ZERO
003723:    4462           57042                           XCH      DSPLIST
003724:    4463           05130                           TC       JOBWAKE
003725:    4464           00003        RELDSP2            RELINT
003726:    4465           44740                           CS       BIT5                                  #  TURN OFF KEY RELEASE LIGHT
003727:    4466           00006                           EXTEND                                         #  (BIT 5 OF CHANNEL 11)
003728:    4467           03011                           WAND     DSALMOUT
003729:    4470           34746                           CAF      ZERO
003730:    4471           55011                           TS       DSPLOCK
003731:    4472           00144                           TC       RELRET
003732:    4473           56002        RELDSP1            XCH      Q                                     #  SET DSPLOCK TO +0. NO DSPLIST SEARCH.
003733:    4474           54144                           TS       RELRET                                #  TURN KEY RLSE LIGHT OFF IF DSPLIST IS
003734:                                                                                                  #  EMPTY. LEAVE KEY RLSE LIGHT ALONE IF
003735:                                                                                                  #  DSPLIST IS NOT EMPTY.
003736:    4475           11042                           CCS      DSPLIST
003737:    4476           04500                           TC       +2                                    #  +  NOT EMPTY. LEAVE KEY RLSE LIGHT ALONE
003738:    4477           04464                           TC       RELDSP2                               #  +0 EMPTY. TURN OFF KEY RLSE LIGHT
003739:    4500           34746                           CAF      ZERO                                  #  -  NOT EMPTY. LEAVE KEY RLSE LIGHT ALONE
003740:    4501           55011                           TS       DSPLOCK
003741:    4502           00144                           TC       RELRET
003742:
003743:
003744:    4503                        ENDPINBF           EQUALS
003745:


003747:                                                                                                  #  PINTEST IS NEEDED FOR AUTO CHECK OF PINBALL.
003748:
003749:    4503  43,2002               PINTEST            EQUALS   LST2FAN
003750:


003752:                                                                                                  #  VBTSTLTS TURNS ON ALL DISPLAY PANEL LIGHTS. AFTER 5 SEC, IT TURNS
003753:                                                                                                  #  OFF THE CAUTION AND STATUS LIGHTS.
003754:
003755: 41,3662                                           SETLOC   ENDNVSB1   +1
003756:
003757: 41,3662                                           COUNT*   $$/PIN
003758: 41,3662           00004        VBTSTLTS           INHINT
003759: 41,3663           04607                           TC       BANKCALL                              #  OPP ERR IF NOT IN POO
003760: 41,3664           66121                           CADR     CHKPOOH
003761: 41,3665           44744                           CS       BIT1                                  #  SET BIT 1 OF IMODES33 SO IMUMON WONT
003762: 41,3666           71300                           MASK     IMODES33                              #  TURN OUT ANY LAMPS.
003763: 41,3667           64744                           AD       BIT1
003764: 41,3670           55300                           TS       IMODES33
003765:
003766: 41,3671           33730                           CAF      TSTCON1                               #  TURN ON UPLINK ACTIVITY, TEMP, KEY RLSE,
003767: 41,3672           00006                           EXTEND                                         #  V/N FLASH, OPERATOR ERROR.
003768: 41,3673           05011                           WOR      DSALMOUT
003769: 41,3674           33731                           CAF      TSTCON2                               #  TURN ON NO ATT, GIMBAL LOCK, TRACKER,
003770: 41,3675           55035                           TS       DSPTAB     +11D                       #  PROG ALM.
003771: 41,3676           06040                           TC       C13STALL
003772: 41,3677           34733                           CAF      BIT10                                 #  TURN ON TEST ALARM OUTBIT
003773: 41,3700           00006                           EXTEND
003774: 41,3701           05013                           WOR      CHAN13
003775: 41,3702           34354                           CAF      TEN
003776: 41,3703           54117        TSTLTS1            TS       ERCNT
003777: 41,3704           43726                           CS       FULLDSP
003778: 41,3705           50117                           INDEX    ERCNT
003779: 41,3706           55022                           TS       DSPTAB
003780: 41,3707           10117                           CCS      ERCNT
003781: 41,3710           03703                           TC       TSTLTS1
003782: 41,3711           43727                           CS       FULLDSP1
003783: 41,3712           55023                           TS       DSPTAB     +1                         #  TURN ON 3 PLUS SIGNS
003784: 41,3713           55026                           TS       DSPTAB     +4
003785: 41,3714           55030                           TS       DSPTAB     +6
003786: 41,3715           34751                           CAF      ELEVEN
003787: 41,3716           55015                           TS       NOUT
003788: 41,3717           00003                           RELINT
003789: 41,3720           33733                           CAF      SHOLTS
003790: 41,3721           00004                           INHINT
003791: 41,3722           05205                           TC       WAITLIST
003792: 41,3723     1022                                  EBANK=   DSPTAB
003793: 41,3723           03641 60102                     2CADR    TSTLTS2
003794:
003795: 41,3725           05146                           TC       ENDOFJOB                              #  DSPLOCK IS LEFT BUSY (FROM KEYBOARD
003796:                                                                                                  #  ACTION) UNTIL TSTLTS3 TO INSURE THAT
003797:                                                                                                  #  LIGHTS TEST WILL BE SEEN.
003798:
003799:
003800: 41,3726           05675        FULLDSP            OCT      05675                                 #  DISPLAY ALL 8:S
003801: 41,3727           07675        FULLDSP1           OCT      07675                                 #  DISPLAY ALL 8:S AND +
003802:


003804: 41,3730           00175        TSTCON1            OCT      00175
003805:                                                                                                  #  UPLINK ACTIVITY, TEMP, KEY RLSE,
003806:                                                                                                  #  V/N FLASH, OPERATOR ERROR.
003807: 41,3731           40677        TSTCON2            OCT      40677                                 #  DSPTAB +11D BITS 1,2,3,4,5,6,8,9.
003808:                                                                                                  #        DAP, LR, SUPER KEYREL,
003809:                                                                                                  #  NO ATT, GIMBAL LOCK, TRACKER, PROG ALM.
003810: 41,3732           00115        TSTCON3            OCT      0115                                  #  CHAN 11  BITS 1, 3, 4, 7.
003811:                                                                                                  #  UPLINK ACTIVITY, TEMP, OPERATOR ERROR.
003812: 41,3733           00764        SHOLTS             OCT      764                                   #  5 SEC
003813:
003814:
003815: 40,2000                                           SETLOC   PINBALL1
003816: 40,2000                                           BANK
003817:
003818: 40,3641           34346        TSTLTS2            CAF      CHRPRIO                               #  CALLED BY WAITLIST
003819: 40,3642           05063                           TC       NOVAC
003820: 40,3643     1022                                  EBANK=   DSPTAB
003821: 40,3643           03734 62102                     2CADR    TSTLTS3
003822:
003823: 40,3645           05263                           TC       TASKOVER
003824:
003825:
003826: 41,2000                                           SETLOC   PINBALL2
003827: 41,2000                                           BANK
003828:
003829: 41,3734           43732        TSTLTS3            CS       TSTCON3                               #  CALLED BY EXECUTIVE
003830: 41,3735           00004                           INHINT
003831: 41,3736           00006                           EXTEND                                         #  TURN OFF  UPLINK ACTIVITY, TEMP,
003832: 41,3737           03011                           WAND     DSALMOUT                              #  OPERATOR ERROR.
003833: 41,3740           06040                           TC       C13STALL
003834: 41,3741           44733                           CS       BIT10                                 #  TURN OFF TEST ALARM OUTBIT
003835: 41,3742           00006                           EXTEND
003836: 41,3743           03013                           WAND     CHAN13
003837: 41,3744           34741                           CAF      BIT4                                  #  MAKE NO ATT FOLLOW BIT 4 OF CHANNEL 12
003838: 41,3745           00006                           EXTEND                                         #    (NO ATT LIGHT ON IF IN COARSE ALIGN)
003839: 41,3746           02012                           RAND     CHAN12
003840: 41,3747           64726                           AD       BIT15                                 #  TURN OFF AUTO, HOLD, FREE, SPARE,
003841: 41,3750           55035                           TS       DSPTAB     +11D                       #  GIMBAL LOCK, SPARE, TRACKER, PROG ALM
003842: 41,3751           43774                           CS       13-11,1                               #  SET BITS TO INDICATE ALL LAMPS OUT. TEST
003843: 41,3752           71300                           MASK     IMODES33                              #  LIGHTS COMPLETE.
003844: 41,3753           65017                           AD       PRIO16
003845: 41,3754           55300                           TS       IMODES33
003846:
003847: 41,3755           43776                           CS       OCT55000
003848: 41,3756           71277                           MASK     IMODES30
003849: 41,3757           65016                           AD       PRIO15                                #  15000.
003850: 41,3760           55277                           TS       IMODES30
003851:
003852: 41,3761           43775                           CS       RFAILS2
003853: 41,3762           70110                           MASK     RADMODES


003855: 41,3763           64736                           AD       RCDUFBIT
003856: 41,3764           54110                           TS       RADMODES
003857:
003858: 41,3765           00003                           RELINT
003859:
003860: 41,3766           04607                           TC       BANKCALL                              #  REDISPLAY C(MODREG)
003861: 41,3767           10657                           CADR     DSPMM
003862: 41,3770           04175                           TC       KILMONON                              #  TURN ON KILL MONITOR BIT.
003863: 41,3771           04424                           TC       FLASHOFF                              #  TURN OFF V/N FLASH.
003864: 41,3772           04626                           TC       POSTJUMP                              #  DOES RELDSP AND GOES TO PINBRNCH IF
003865: 41,3773           61527                           CADR     TSTLTS4                               #   ENDIDLE IS AWAITING OPERATOR RESPONSE.
003866: 41,3774           16001        13-11,1            OCT      16001
003867: 41,3775           00330        RFAILS2            OCT      330                                   #  RADAR CDU AND DATA FAIL FLAGS.
003868: 41,3776           55000        OCT55000           OCT      55000
003869: 41,3777                        ENDPINS2           EQUALS
003870:


003872:                                                                                                  #  ERROR LIGHT RESET (RSET) TURNS OFF,
003873:                                                                                                  #  UPLINK ACTIVITY, AUTO, HOLD, FREE, OPERATOR ERROR,
003874:                                                                                                  #  PROG ALM, TRACKER FAIL.
003875:                                                                                                  #  LEAVES GIMBAL LOCK AND NO ATT ALONE.
003876:                                                                                                  #  IT ALSO ZEROES THE :TEST ALARM: OUT BIT, WHICH TURNS OFF STBY,RESTART.
003877:                                                                                                  #  IT ALSO SETS :CAUTION RESET: TO 1.
003878:                                                                                                  #  IT ALSO FORCES BIT 12 OF ALL DSPTAB ENTRIES TO 1.
003879:
003880: 40,2000                                           SETLOC   PINBALL1
003881: 40,2000                                           BANK
003882:
003883: 40,3646                                           COUNT*   $$/PIN
003884: 40,3646           56115        ERROR              XCH      21/22REG                              #  RESTORE ORIGINAL C(DSPLOCK). THUS ERROR
003885: 40,3647           55011                           TS       DSPLOCK                               #  LIGHT RESET LEAVES DSPLOCK UNCHANGED.
003886: 40,3650           00004                           INHINT
003887: 40,3651           34733                           CAF      BIT10                                 #  TURN ON :CAUTION RESET: OUTBIT
003888: 40,3652           00006                           EXTEND
003889: 40,3653           05011                           WOR      DSALMOUT                              #  BIT10 CHAN 11
003890: 40,3654           33735                           CAF      GL,ETC.                               #  LEAVE GIMBAL LOCK, NO ATT, DAPLITE,
003891:                                                                                                  #    & SUPER KEYRELEASE LITES INTACT
003892: 40,3655           71035                           MASK     DSPTAB     +11D                       #  TURNING OFF AUTO, HOLD, FREE,
003893: 40,3656           64726                           AD       BIT15                                 #  PROG ALARM, AND TRACKER.
003894: 40,3657           55035                           TS       DSPTAB     +11D
003895: 40,3660           45017                           CS       PRIO16                                #  RESET FAIL BITS WHICH GENERATE PROG
003896: 40,3661           71300                           MASK     IMODES33                              #  ALARM SO THAT IF THE FAILURE STILL
003897: 40,3662           65017                           AD       PRIO16                                #  EXISTS, THE ALARM WILL COME BACK.
003898: 40,3663           55300                           TS       IMODES33
003899: 40,3664           44733                           CS       BIT10
003900: 40,3665           71277                           MASK     IMODES30
003901: 40,3666           64733                           AD       BIT10
003902: 40,3667           55277                           TS       IMODES30
003903:
003904: 40,3670           43734                           CS       RFAILS
003905: 40,3671           70110                           MASK     RADMODES
003906: 40,3672           64736                           AD       RCDUFBIT
003907: 40,3673           54110                           TS       RADMODES
003908:
003909: 40,3674           06040                           TC       C13STALL
003910: 40,3675           44733                           CS       BIT10                                 #  TURN OFF :TEST ALARM: OUTBIT.
003911: 40,3676           00006                           EXTEND
003912: 40,3677           03013                           WAND     CHAN13
003913: 40,3700           43733                           CS       ERCON                                 #  TURN OFF UPLINK ACTIVITY,
003914: 40,3701           00006                           EXTEND                                         #  OPERATOR ERROR.
003915: 40,3702           03011                           WAND     DSALMOUT
003916: 40,3703           34354        TSTAB              CAF      BINCON                                #  (DEC 10)
003917: 40,3704           54117                           TS       ERCNT                                 #  ERCNT = COUNT
003918: 40,3705           00004                           INHINT
003919: 40,3706           50117                           INDEX    ERCNT
003920: 40,3707           11022                           CCS      DSPTAB
003921: 40,3710           64744                           AD       ONE


003923: 40,3711           03716                           TC       ERPLUS
003924: 40,3712           64744                           AD       ONE
003925: 40,3713           40000        ERMINUS            CS       A
003926: 40,3714           73736                           MASK     NOTBIT12
003927: 40,3715           03721                           TC       ERCOM
003928: 40,3716           40000        ERPLUS             CS       A
003929: 40,3717           73736                           MASK     NOTBIT12
003930: 40,3720           40000                           CS       A                                     #  MIGHT WANT TO RESET CLPASS, DECBRNCH,
003931: 40,3721           50117        ERCOM              INDEX    ERCNT                                 #  ETC.
003932: 40,3722           55022                           TS       DSPTAB
003933: 40,3723           00003                           RELINT
003934: 40,3724           10117                           CCS      ERCNT
003935: 40,3725           03704                           TC       TSTAB      +1
003936: 40,3726           34746                           CAF      ZERO
003937: 40,3727           54375                           TS       FAILREG
003938: 40,3730           54376                           TS       FAILREG    +1
003939: 40,3731           55357                           TS       SFAIL
003940: 40,3732           05146                           TC       ENDOFJOB
003941:
003942: 40,3733           00104        ERCON              OCT      104                                   #  CHAN 11 BITS 3,7.
003943:                                                                                                  #  UPLINK ACTIVITY, AND OPERATOR ERROR.
003944: 40,3734           00330        RFAILS             OCT      330                                   #  RADAR CDU AND DATA FAIL FLAGS.
003945: 40,3735           00053        GL,ETC.            OCT      00053                                 #  NO ATT, GIMB LOCK, DAPLITE, SUPER KR.
003946: 40,3736           73777        NOTBIT12           OCT      73777
003947:
003948:
003949: 40,3737                        ENDPINS1           EQUALS
003950:
003951:
003952: 40,3737  30,2000                                  SBANK=   LOWSUPER

End of include-file PINBALL_GAME__BUTTONS_AND_LIGHTS.agc.  Parent file is MAIN.agc


