
Source Code


000002:                                                                                                  ## Copyright:   Public domain.
000003:                                                                                                  ## Filename:    PINBALL_GAME__BUTTONS_AND_LIGHTS.agc
000004:                                                                                                  ## Purpose:     A section of Luminary revision 210.
000005:                                                                                                  ##              It is part of the source code for the Lunar Module's (LM)
000006:                                                                                                  ##              Apollo Guidance Computer (AGC) for Apollo 15-17.
000007:                                                                                                  ##              This file is intended to be a faithful transcription, except
000008:                                                                                                  ##              that the code format has been changed to conform to the
000009:                                                                                                  ##              requirements of the yaYUL assembler rather than the
000010:                                                                                                  ##              original YUL assembler.
000011:                                                                                                  ## Reference:   pp. 402-486
000012:                                                                                                  ## Assembler:   yaYUL
000013:                                                                                                  ## Contact:     Ron Burkey <info@sandroid.org>.
000014:                                                                                                  ## Website:     www.ibiblio.org/apollo/index.html
000015:                                                                                                  ## Mod history: 2016-11-17 JL   Created from Luminary131 version.
000016:                                                                                                  ##              2016-11-18 MAS  Started corrections.
000017:                                                                                                  ##              2016-11-20 MAS  Completed. Mostly comments, bank movements,
000018:                                                                                                  ##                              and minor changes related to new lights.
000019:                                                                                                  ##              2016-12-07 HG   Fix P00 -> POO
000020:                                                                                                  ##              2016-12-23 RSB  Proofed comment text with octopus/ProoferComments
000021:                                                                                                  ##                              and fixed all errors found.
000022:                                                                                                  ##              2017-01-28 RSB  WTIH -> WITH.
000023:                                                                                                  ##              2017-02-08 RSB  Comment-text fixes noted while proofing Artemis 72.
000024:


000026:                                                                                                  #  PROGRAM NAME - KEYBOARD AND DISPLAY PROGRAM
000027:                                                                                                  #  MOD NO - 4      DATE - 27 APRIL 1967      ASSEMBLY - PINDANCE REV 18
000028:                                                                                                  #  MOD BY - FILENE
000029:                                                                                                  #  LOG SECTION - PINBALL GAME BUTTONS AND LIGHTS
000030:
000031:                                                                                                  #  FUNCTIONAL DESCRIPTION-
000032:
000033:                                                                                                  #     THE KEYBOARD AND DISPLAY SYSTEM PROGRAM OPERATES UNDER EXECUTIVE
000034:                                                                                                  #  CONTROL AND PROCESSES INFORMATION EXCHANGED BETWEEN THE AGC AND THE
000035:                                                                                                  #  COMPUTER OPERATOR.  THE INPUTS TO THE PROGRAM ARE FROM THE KEYBOARD,
000036:                                                                                                  #  FROM INTERNAL PROGRAMS, AND FROM THE UPLINK.
000037:                                                                                                  #     THE LANGUAGE OF COMMUNICATION WITH THE PROGRAM IS A PAIR OF WORDS
000038:                                                                                                  #  KNOWN AS VERB AND NOUN.  EACH OF THESE IS REPRESENTED BY A 2 CHARACTER
000039:                                                                                                  #  DECIMAL NUMBER.  THE VERB CODE INDICATES WHAT ACTION IS TO BE TAKEN, THE
000040:                                                                                                  #  NOUN CODE INDICATES TO WHAT THIS ACTION IS APPLIED.  NOUNS USUALLY
000041:                                                                                                  #  REFER TO A GROUP OF ERASABLE REGISTERS.
000042:
000043:                                                                                                  #  VERBS ARE GROUPED INTO DISPLAYS, LOADS, MONITORS (DISPLAYS THAT ARE
000044:                                                                                                  #  UPDATED ONCE PER SECOND), SPECIAL FUNCTIONS, AND EXTENDED VERBS(THESE
000045:                                                                                                  #  ARE OUTSIDE OF THE DOMAIN OF PINBALL AND CAN BE FOUND UNDER LOG SECTION
000046:                                                                                                  #  :EXTENDED VERBS:).
000047:                                                                                                  #  A LIST OF VERBS AND NOUNS IS GIVEN IN LOG SECTION :ASSEMBLY AND
000048:                                                                                                  #  OPERATION INFORMATION:.
000049:
000050:
000051:                                                                                                  #  CALLING SEQUENCES-
000052:
000053:                                                                                                  #  KEYBOARD:
000054:                                                                                                  #     EACH DEPRESSION OF A KEYBOARD BUTTON ACTIVATES INTERRUPT KEYRUPT1
000055:                                                                                                  #  AND PLACES THE 5 BIT KEY CODE INTO CHANNEL 15.  KEYRUPT1 PLACES THE KEY
000056:                                                                                                  #  CODE INTO MPAC, ENTERS AN EXECUTIVE REQUEST FOR THE KEYBOARD AND DISPLAY
000057:                                                                                                  #  PROGRAM (AT :CHARIN:), AND EXECUTES A RESUME.
000058:
000059:                                                                                                  #  UPLINK:
000060:                                                                                                  #     EACH WORD RECEIVED BY THE UPLINK ACTIVATES INTERRUPT UPRUPT WHICH
000061:                                                                                                  #  PLACES THE 5 BIT KEY CODE INTO MPAC, ENTERS AN EXECUTIVE REQUEST FOR THE
000062:                                                                                                  #  KEYBOARD AND DISPLAY PROGRAM (AT:CHARIN:) AND EXECUTES A RESUME.
000063:
000064:                                                                                                  #  INTERNAL PROGRAMS:
000065:                                                                                                  #     INTERNAL PROGRAMS CALL PINBALL AT :NVSUB: WITH THE DESIRED VERB/NOUN
000066:                                                                                                  #  CODE IN A (LOW 7 BITS FOR NOUN, NEXT 7 BITS FOR VERB).  DETAILS
000067:                                                                                                  #  DESCRIBED ON REMARKS CARDS JUST BEFORE :NVSUB: AND :NVSBWAIT: (SEE
000068:                                                                                                  #  SYMBOL TABLE FOR PAGE NUMBERS).
000069:
000070:
000071:                                                                                                  #  NORMAL EXIT MODES-
000072:
000073:                                                                                                  #     IF PINBALL WAS CALLED BY EXTERNAL ACTION, THERE ARE FOUR EXITS:
000074:                                                                                                  #           1) ALL BUT (2), (3), AND (4) EXIT DIRECTLY TO ENDOFJOB.
000075:                                                                                                  #           2) EXTENDED VERBS GO TO THE EXTENDED VERB FAN AS PART OF THE


000077:                                                                                                  #              PINBALL EXECUTIVE JOB WITH PRIORITY 30000.  IT IS THE
000078:                                                                                                  #              RESPONSIBILITY OF THE EXTENDED VERB CALLED TO EVENTUALLY
000079:                                                                                                  #              CHANGE PRIORITY (IF NECESSARY) AND DO AN ENDOFJOB.
000080:                                                                                                  #              ALSO PINBALL IS A NOVAC JOB. EBANK SET FOR COMMON.
000081:                                                                                                  #           3) VERB 37. CHANGE OF PROGRAM (MAJOR MODE) CALLS :V37: IN THE
000082:                                                                                                  #              SERVICE ROUTINES AS PART OF THE PINBALL EXEC JOB WITH PRIO
000083:                                                                                                  #              30000.  THE NEW PROGRAM CODE (MAJOR MODE) IS LEFT IN A.
000084:                                                                                                  #           4) KEY RELEASE BUTTON CALLS :PINBRNCH: IN THE DISPLAY INTERFACE
000085:                                                                                                  #              ROUTINES AS PART OF THE PINBALL EXEC JOB WITH PRIO 30000 IF
000086:                                                                                                  #              THE KEY RELEASE LIGHT IS OFF AND :CADRSTOR: IS NOT +0.
000087:
000088:                                                                                                  #     IF PINBALL WAS CALLED BY INTERNAL PROGRAMS, EXIT FROM PINBALL IS BACK
000089:                                                                                                  #  TO CALLING ROUTINE.  DETAILS DESCRIBED IN REMARKS CARDS JUST BEFORE
000090:                                                                                                  #  :NVSUB: AND :NVSBWAIT: (SEE SYMBOL TABLE FOR PAGE NUMBERS).
000091:
000092:
000093:                                                                                                  #  ALARM OR ABORT EXIT MODES-
000094:
000095:                                                                                                  #  EXTERNAL INITIATION:
000096:                                                                                                  #     IF SOME IMPROPER SEQUENCE OF KEY CODES IS DETECTED, THE OPERATOR
000097:                                                                                                  #  ERROR LIGHT IS TURNED ON AND EXIT IS TO :ENDOFJOB:.
000098:
000099:                                                                                                  #  INTERNAL PROGRAM INITIATION:
000100:                                                                                                  #     IF AN ILLEGAL V/N COMBINATION IS ATTEMPTED, AN ABORT IS CAUSED
000101:                                                                                                  #  (WITH OCTAL 01501).
000102:                                                                                                  #     IF A SECOND ATTEMPT IS MADE TO GO TO SLEEP IN PINBALL, AN ABORT IS
000103:                                                                                                  #  CAUSED (WITH OCTAL 01206). THERE ARE TWO WAYS TO GO TO SLEEP IN PINBALL:
000104:                                                                                                  #           1) ENDIDLE OR DATAWAIT.
000105:                                                                                                  #           2) NVSBWAIT, PRENVBSY, OR NVSUBUSY.
000106:
000107:                                                                                                  #  CONDITIONS LEADING TO THE ABOVE ARE DESCRIBED IN FORTHCOMING MIT/IL
000108:                                                                                                  #  E-REPORT DESCRIBING KEYBOARD AND DISPLAY OPERATION FOR 278.
000109:
000110:
000111:                                                                                                  #  OUTPUT-
000112:
000113:                                                                                                  #     INFORMATION TO BE SENT TO THE DISPLAY PANEL IS LEFT IN THE :DSPTAB:
000114:                                                                                                  #  BUFFERS REGISTERS (UNDER EXEC CONTROL).  :DSPOUT: (A PART OF T4RUPT)
000115:                                                                                                  #  HANDLES THE PLACING OF THE :DSPTAB: INFORMATION INTO OUTPUT CHANNEL 10
000116:                                                                                                  #  IN INTERRUPT.
000117:
000118:
000119:                                                                                                  #  ERASABLE INITIALIZATION-
000120:
000121:                                                                                                  #     FRESH START AND RESTART INITIALIZE THE NECESSARY E REGISTERS FOR
000122:                                                                                                  #  PINBALL IN :STARTSUB:.   REGISTERS ARE:  DSPTAB BUFFER, CADRSTOR,
000123:                                                                                                  #  REQRET, CLPASS, DSPLOCK, MONSAVE, MONSAVE1, VERBREG, NOUNREG, DSPLIST,
000124:                                                                                                  #  DSPCOUNT, NOUT.
000125:
000126:                                                                                                  #  A COMPLETE LIST OF ALL THE ERASABLES (BOTH RESERVED AND TEMPORARIES) FOR


000128:                                                                                                  #  PINBALL IS GIVEN BELOW.
000129:
000130:
000131:                                                                                                  #  THE FOLLOWING ARE OF GENERAL INTEREST-
000132:
000133:                                                                                                  #     REMARKS CARDS PRECEDE THE REFERENCED SYMBOL DEFINITION.  SEE SYMBOL
000134:                                                                                                  #  TABLE TO FIND APPROPRIATE PAGE NUMBERS.
000135:
000136:                                                                                                  #     NVSUB   CALLING POINT FOR INTERNAL USE OF PINBALL.
000137:                                                                                                  #               OF RELATED INTEREST   NVSBWAIT
000138:                                                                                                  #                                     NVSUBUSY
000139:                                                                                                  #                                     PRENVBSY
000140:
000141:                                                                                                  #     ENDIDLE   ROUTINE FOR INTERNAL PROGRAMS WISHING TO GO TO SLEEP WHILE
000142:                                                                                                  #               AWAITING OPERATORS RESPONSE.
000143:
000144:                                                                                                  #     DSPMM   ROUTINE BY WHICH AN INTERNAL PROGRAM MAY DISPLAY A DECIMAL
000145:                                                                                                  #             PROGRAM CODE (MAJOR MODE) IN THE PROGRAM (MAJOR MODE) LIGHTS.
000146:                                                                                                  #             (DSPMM DOES NOT DISPLAY DIRECTLY BUT ENTERS EXEC REQUEST
000147:                                                                                                  #             FOR DSPMMJB WITH PRIO 30000 AND RETURNS TO CALLER.)
000148:
000149:                                                                                                  #     BLANKSUB   ROUTINE BY WHICH AN INTERNAL PROGRAM MAY BLANK ANY
000150:                                                                                                  #                COMBINATION OF THE DISPLAY REGISTERS R1, R2, R3.
000151:
000152:                                                                                                  #     JAMTERM   ROUTINES BY WHICH AN INTERNAL PROGRAM MAY PERFORM THE
000153:                                                                                                  #     JAMPROC   TERMINATE (V 34) OR PROCEED (V 33) FUNCTION.
000154:
000155:                                                                                                  #     MONITOR   VERBS FOR PERIODIC ( 1 PER SEC) DISPLAY.
000156:
000157:                                                                                                  #     PLEASE PERFORM, PLEASE MARK SITUATIONS
000158:                                                                                                  #                  REMARKS DESCRIBING HOW AN INTERNAL ROUTINE SHOULD HANDLE
000159:                                                                                                  #                  THESE SITUATIONS CAN BE FOUND JUST BEFORE :NVSUB: (SEE
000160:                                                                                                  #                  SYMBOL TABLE FOR PAGE NUMBER).
000161:
000162:                                                                                                  #     THE NOUN TABLE FORMAT IS DESCRIBED ON A PAGE OF REMARKS CARDS JUST
000163:                                                                                                  #     BEFORE :DSPABC: (SEE SYMBOL TABLE FOR PAGE NUMBER).
000164:
000165:                                                                                                  #     THE NOUN TABLES THEMSELVES ARE FOUND IN LOG SECTION :PINBALL NOUN
000166:                                                                                                  #     TABLES:.
000167:
000168:
000169:                                                                                                  #  FOR FURTHER DETAILS ABOUT OPERATION OF THE KEYBOARD AND DISPLAY SYSTEM
000170:                                                                                                  #  PROGRAM, SEE THE MISSION PLAN AND/OR MIT/IL E-2129
000171:                                                                                                  #  DESCRIBING KEYBOARD AND DISPLAY OPERATION FOR 278.


000174:
000175:
000176:                                                                                                  #  THE FOLLOWING QUOTATION IS PROVIDED THROUGH THE COURTESY OF THE AUTHORS.
000177:
000178:                                                                                                  #        ::IT WILL BE PROVED TO THY FACE THAT THOU HAST MEN ABOUT THEE THAT
000179:                                                                                                  #  USUALLY TALK OF A NOUN AND A VERB, AND SUCH ABOMINABLE WORDS AS NO


000181:                                                                                                  #  CHRISTIAN EAR CAN ENDURE TO HEAR.::
000182:
000183:                                                                                                  #                       HENRY 6, ACT 2, SCENE 4
000184:
000185:
000186:                                                                                                  #  THE FOLLOWING ASSIGNMENTS FOR PINBALL ARE MADE ELSEWHERE
000187:
000188:
000189:                                                                                                  #  RESERVED FOR PINBALL EXECUTIVE ACTION
000190:
000191:                                                                                                  #  DSPCOUNT ERASE                  DISPLAY POSITION INDICATOR
000192:                                                                                                  #  DECBRNCH ERASE                  +DEC, - DEC, OCT INDICATOR
000193:                                                                                                  #  VERBREG  ERASE                  VERB CODE
000194:                                                                                                  #  NOUNREG  ERASE                  NOUN CODE
000195:                                                                                                  #  XREG     ERASE                  R1 INPUT BUFFER
000196:                                                                                                  #  YREG     ERASE                  R2 INPUT BUFFER
000197:                                                                                                  #  ZREG     ERASE                  R3 INPUT BUFFER
000198:                                                                                                  #  XREGLP   ERASE                  LO PART OF XREG (FOR DEC CONV ONLY)
000199:                                                                                                  #  YREGLP   ERASE                  LO PART OF YREG (FOR DEC CONV ONLY)
000200:                                                                                                  #  HITEMOUT =      YREGLP          TEMP FOR DISPLAY OF HRS, MIN, SEC
000201:                                                                                                  #                                           MUST = LOTEMOUT-1.
000202:                                                                                                  #  ZREGLP   ERASE                  LO PART OF ZREG (FOR DEC CONV ONLY)
000203:                                                                                                  #  LOTEMOUT =      ZREGLP          TEMP FOR DISPLAY OF HRS, MIN, SEC
000204:                                                                                                  #                                           MUST = HITEMOUT+1.
000205:                                                                                                  #  MODREG   ERASE                  MODE CODE
000206:                                                                                                  #  DSPLOCK  ERASE                  KEYBOARD/SUBROUTINE CALL INTERLOCK
000207:                                                                                                  #  REQRET   ERASE                  RETURN REGISTER FOR LOAD
000208:                                                                                                  #  LOADSTAT ERASE                  STATUS INDICATOR FOR LOADTST
000209:                                                                                                  #  CLPASS   ERASE                  PASS INDICATOR CLEAR
000210:                                                                                                  #  NOUT     ERASE                  ACTIVITY COUNTER FOR DSPTAB
000211:                                                                                                  #  NOUNCADR ERASE                  MACHINE CADR FOR NOUN
000212:                                                                                                  #  MONSAVE  ERASE                  N/V CODE FOR MONITOR. (= MONSAVE1-1)
000213:                                                                                                  #  MONSAVE1 ERASE                  NOUNCADR FOR MONITOR(MATBS) =MONSAVE +1
000214:                                                                                                  #  MONSAVE2 ERASE                  NVMONOPT OPTIONS
000215:                                                                                                  #  DSPTAB   ERASE          +13D    0-10,DISPLAY PANEL BUFFER.11-13,C RELAYS
000216:                                                                                                  #  CADRSTOR ERASE                  ENDIDLE STORAGE
000217:                                                                                                  #  NVQTEM   ERASE                  NVSUB STORAGE FOR CALLING ADDRESS
000218:                                                                                                  #                                  MUST = NVBNKTEM-1
000219:                                                                                                  #  NVBNKTEM ERASE                  NVSUB STORAGE FOR CALLING BANK
000220:                                                                                                  #                                  MUST = NVQTEM+1
000221:                                                                                                  #  VERBSAVE ERASE                  NEEDED FOR RECYCLE
000222:                                                                                                  #  DSPLIST  ERASE                  WAITING REG FOR DSP SYST INTERNAL USE
000223:                                                                                                  #  EXTVBACT REASE                  EXTENDED VERB ACTIVITY INTERLOCK
000224:                                                                                                  #  DSPTEM1  ERASE          +2      BUFFER STORAGE AREA 1 (MOSTLY FOR TIME)
000225:                                                                                                  #  DSPTEM2  ERASE          +2      BUFFER STORAGE AREA 2 (MOSTLY FOR DEG)
000226:                                                                                                  #  END OF ERASABLES RESERVED FOR PINBALL EXECUTIVE ACTION
000227:
000228:
000229:                                                                                                  #  TEMPORARIES FOR PINBALL EXECUTIVE ACTION


000231:                                                                                                  #  DSEXIT   =      INTB15+         RETURN FOR DSPIN
000232:                                                                                                  #  EXITEM   =      INTB15+         RETURN FOR SCALE FACTOR ROUTINE SELECT
000233:                                                                                                  #  BLANKRET =      INTB15+         RETURN FOR 2BLANK
000234:
000235:                                                                                                  #  WRDRET   =      INTBIT15        RETURN FOR 5BLANK
000236:                                                                                                  #  WDRET    =      INTBIT15        RETURN FOR DSPWD
000237:                                                                                                  #  DECRET   =      INTBIT15        RETURN FOR PUTCOM(DEC LOAD)
000238:                                                                                                  #  21/22REG =      INTBIT15        TEMP FOR CHARIN
000239:
000240:                                                                                                  #  UPDATRET =      POLISH          RETURN FOR UPDATNN, UPDATVB
000241:                                                                                                  #  CHAR     =      POLISH          TEMP FOR CHARIN
000242:                                                                                                  #  ERCNT    =      POLISH          COUNTER FOR ERROR LIGHT RESET
000243:                                                                                                  #  DECOUNT  =      POLISH          COUNTER FOR SCALING AND DISPLAY (DEC)
000244:
000245:                                                                                                  #  SGNON    =      VBUF            TEMP FOR +,- ON
000246:                                                                                                  #  NOUNTEM  =      VBUF            COUNTER FOR MIXNOUN FETCH
000247:                                                                                                  #  DISTEM   =      VBUF            COUNTER FOR OCTAL DISPLAY VERBS
000248:                                                                                                  #  DECTEM   =      VBUF            COUNTER FOR FETCH (DEC DISPLAY VERBS)
000249:
000250:                                                                                                  #  SGNOFF   =      VBUF    +1      TEMP FOR +,- ON
000251:                                                                                                  #  NVTEMP   =      VBUF    +1      TEMP FOR NVSUB
000252:                                                                                                  #  SFTEMP1  =      VBUF    +1      STORAGE FOR SF CONST HI PART(=SFTEMP2-1)
000253:                                                                                                  #  HITEMIN  =      VBUF    +1      TEMP FOR LOAD OF HRS, MIN, SEC
000254:                                                                                                  #                                           MUST = LOTEMIN-1.
000255:                                                                                                  #  CODE     =      VBUF    +2      FOR DSPIN
000256:                                                                                                  #  SFTEMP2  =      VBUF    +2      STORAGE FOR SF CONST LO PART(=SFTEMP1+1)
000257:                                                                                                  #  LOTEMIN  =      VBUF    +2      TEMP FOR LOAD OF HRS, MIN, SEC
000258:                                                                                                  #                                           MUST = HITEMIN+1.
000259:                                                                                                  #  MIXTEMP  =      VBUF    +3      FOR MIXNOUN DATA
000260:                                                                                                  #  SIGNRET  =      VBUF    +3      RETURN FOR +,- ON
000261:
000262:                                                                                                  #  ALSO MIXTEMP+1 = VBUF+4, MIXTEMP+2 = VBUF+5.
000263:
000264:                                                                                                  #  ENTRET   =      DOTINC          EXIT FROM ENTER
000265:
000266:                                                                                                  #  WDCNT    =      DOTRET          CHAR COUNTER FOR DSPWD
000267:                                                                                                  #  INREL    =      DOTRET          INPUT BUFFER SELECTOR ( X,Y,Z, REG )
000268:
000269:                                                                                                  #  DSPMMTEM =      MATINC          DSPCOUNT SAVE FOR DSPMM
000270:                                                                                                  #  MIXBR    =      MATINC          INDICATOR FOR MIXED OR NORMAL NOUN
000271:
000272:                                                                                                  #  TEM1     ERASE                  EXEC TEMP
000273:                                                                                                  #  DSREL    =      TEM1            REL ADDRESS FOR DSPIN
000274:
000275:                                                                                                  #  TEM2     ERASE                  EXEC TEMP
000276:                                                                                                  #  DSMAG    =      TEM2            MAGNITUDE STORE FOR DSPIN
000277:                                                                                                  #  IDADDTEM =      TEM2            MIXNOUN INDIRECT ADDRESS STORAGE
000278:
000279:                                                                                                  #  TEM3     ERASE                  EXEC TEMP
000280:                                                                                                  #  COUNT    =      TEM3            FOR DSPIN
000281:


000283:                                                                                                  #  TEM4     ERASE                  EXEC TEMP
000284:                                                                                                  #  LSTPTR   =      TEM4            LIST POINTER FOR GRABUSY
000285:                                                                                                  #  RELRET   =      TEM4            RETURN FOR RELDSP
000286:                                                                                                  #  FREERET  =      TEM4            RETURN FOR FREEDSP
000287:                                                                                                  #  DSPWDRET =      TEM4            RETURN FOR DSPSIGN
000288:                                                                                                  #  SEPSCRET =      TEM4            RETURN FOR SEPSEC
000289:                                                                                                  #  SEPMNRET =      TEM4            RETURN FOR SEPMIN
000290:
000291:                                                                                                  #  TEM5     ERASE                  EXEC TEMP
000292:                                                                                                  #  NOUNADD  =      TEM5            TEMP STORAGE FOR NOUN ADDRESS
000293:
000294:                                                                                                  #  NNADTEM  ERASE                  TEMP FOR NOUN ADDRESS TABLE ENTRY
000295:                                                                                                  #  NNTYPTEM ERASE                  TEMP FOR NOUN TYPE TABLE ENTRY
000296:                                                                                                  #  IDAD1TEM ERASE                  TEMP FOR INDIR ADRESS TABLE ENTRY(MIXNN)
000297:                                                                                                  #                                  MUST = IDAD2TEM-1, - IDAD3TEM-2.
000298:                                                                                                  #  IDAD2TEM ERASE                  TEMP FOR INDIR ADRESS TABLE ENTRY(MIXNN)
000299:                                                                                                  #                                  MUST = IDAD1TEM+1, - IDAD3TEM-1.
000300:                                                                                                  #  IDAD3TEM ERASE                  TEMP FOR INDIR ADRESS TABLE ENTRY(MIXNN)
000301:                                                                                                  #                                  MUST = IDAD1TEM+2, = IDAD2TEM+1.
000302:                                                                                                  #  RUTMXTEM ERASE                  TEMP FOR SF ROUT TABLE ENTRY(MIXNN ONLY)
000303:                                                                                                  #  END OF TEMPORARIES FOR PINBALL EXECUTIVE ACTION
000304:
000305:
000306:                                                                                                  #  ADDITIONAL TEMPORARIES FOR PINBALL EXECUTIVE ACTION
000307:
000308:                                                                                                  #  MPAC, THRU MPAC +6
000309:                                                                                                  #  BUF, +1, +2
000310:                                                                                                  #  BUF2, +1, +2
000311:                                                                                                  #  MPTEMP
000312:                                                                                                  #  ADDRWD
000313:                                                                                                  #    END OF ADDITIONAL TEMPS FOR PINBALL EXEC ACTION
000314:
000315:
000316:                                                                                                  #  RESERVED FOR PINBALL INTERRUPT ACTION
000317:
000318:                                                                                                  #  DSPCNT   ERASE                  COUNTER FOR DSPOUT
000319:                                                                                                  #  UPLOCK   ERASE                  BIT1 = UPLINK INTERLOCK (ACTIVATED BY
000320:                                                                                                  #                                                                          RECEPTION OF A BAD MESSAGE IN UPLINK)
000321:                                                                                                  #  END OF ERASABLES RESERVED FOR PINBALL INTERRUPT ACTION
000322:
000323:
000324:                                                                                                  #  TEMPORARIES FOR PINBALL INTERRUPT ACTION
000325:
000326:                                                                                                  #  KEYTEMP1 =      WAITEXIT        TEMP FOR KEYRUPT, UPRUPT
000327:                                                                                                  #  DSRUPTEM =      WAITEXIT        TEMP FOR DSPOUT
000328:                                                                                                  #  KEYTEMP2 =      RUPTAGN         TEMP FOR KEYRUPT, UPRUPT
000329:                                                                                                  #  END OF TEMPORARIES FOR PINBALL INTERRUPT ACTION
000330:


000332:                                                                                                  #  THE INPUT CODES ASSUMED FOR THE KEYBOARD ARE,
000333:                                                                                                  #  0        10000
000334:                                                                                                  #  1        00001
000335:                                                                                                  #  9        01001
000336:                                                                                                  #  VERB     10001
000337:                                                                                                  #  ERROR RES10010
000338:                                                                                                  #  KEY RLSE 11001
000339:                                                                                                  #  +        11010
000340:                                                                                                  #  -        11011
000341:                                                                                                  #  ENTER    11100
000342:                                                                                                  #  CLEAR    11110
000343:                                                                                                  #  NOUN     11111


000345:
000346:
000347:                                                                                                  #  OUTPUT FORMAT FOR DISPLAY PANEL. SET OUT0 TO  AAAABCCCCCDDDDD.
000348:                                                                                                  #  A-S SELECT A RELAYWORD. THIS DETERMINES WHICH PAIR OF CHARACTERS ARE
000349:                                                                                                  #  ENERGIZED.
000350:                                                                                                  #  B FOR SPECIAL RELAYS SUCH AS SIGNS ETC.
000351:                                                                                                  #  C-S  5 BIT RELAY CODE FOR LEFT CHAR OF PAIR SELECTED BY RELAYWORD
000352:                                                                                                  #  D-S  5 BIT RELAY CODE FOR RIGHTCHAR OF PAIR SELECTED BY RELAYWORD.
000353:
000354:                                                                                                  #  THE PANEL APPEARS AS FOLLOWS,
000355:                                                                                                  #  MD1    MD2                         (MAJOR MODE)
000356:                                                                                                  #  VD1    VD2 (VERB)    ND1    ND2    (NOUN)
000357:                                                                                                  #  R1D1   R1D2   R1D3   R1D4   R1D5   (R1)
000358:                                                                                                  #  R2D1   R2D2   R2D3   R2D4   R2D5   (R2)
000359:                                                                                                  #  R3D1   R3D2   R3D3   R3D4   R3D5   (R3)
000360:
000361:                                                                                                  #  EACH OF THESE IS GIVEN A DSPCOUNT NUMBER FOR USE WITHIN COMPUTATION ONLY
000362:                                                                                                  #  MD1   25     R2D1    11       ALL ARE OCTAL
000363:                                                                                                  #  MD2   24     R2D2    10
000364:                                                                                                  #  VD1   23     R2D3    7
000365:                                                                                                  #  VD2   22     R2D4    6
000366:                                                                                                  #  ND1   21     R2D5    5
000367:                                                                                                  #  ND2   20     R3D1    4
000368:                                                                                                  #  R1D1  16     R3D2    3
000369:                                                                                                  #  R1D2  15     R3D3    2
000370:                                                                                                  #  R1D3  14     R3D4    1
000371:                                                                                                  #  R1D4  13     R3D5    0
000372:                                                                                                  #  R1D5  12
000373:
000374:
000375:                                                                                                  #  THERE IS AN 11 REGISTER TABLE (DSPTAB) FOR THE DISPLAY PANEL.
000376:
000377:                                                                                                  #  DSPTAB RELAYWD       BIT11     BITS 10-6     BITS 5-1
000378:                                                                                                  #  RELADD
000379:                                                                                                  #  10     1011                    MD1  (25)     MD2  (24)
000380:                                                                                                  #  9      1010                    VD1  (23)     VD2  (22)
000381:                                                                                                  #  8      1001                    ND1  (21)     ND2  (20)
000382:                                                                                                  #  7      1000                                  R1D1 (16)


000384:                                                                                                  #  6      0111          +R1       R1D2 (15)     R1D3 (14)
000385:                                                                                                  #  5      0110          -R1       R1D4 (13)     R1D5 (12)
000386:                                                                                                  #  4      0101          +R2       R2D1 (11)     R2D2 (10)
000387:                                                                                                  #  3      0100          -R2       R2D3 (7)      R2D4 (6)
000388:                                                                                                  #  2      0011                    R2D5 (5)      R3D1 (4)
000389:                                                                                                  #  1      0010          +R3       R3D2 (3)      R3D3 (2)
000390:                                                                                                  #  0      0001          -R3       R3D4 (1)      R3D5 (0)
000391:                                                                                                  #         0000   NO RELAYWORD
000392:
000393:
000394:                                                                                                  #  THE 5 BIT OUTPUT RELAY CODES ARE:
000395:                                                                                                  #  BLANK      00000
000396:                                                                                                  #  0          10101
000397:                                                                                                  #  1          00011
000398:                                                                                                  #  2          11001
000399:                                                                                                  #  3          11011
000400:                                                                                                  #  4          01111
000401:                                                                                                  #  5          11110
000402:                                                                                                  #  6          11100
000403:                                                                                                  #  7          10011
000404:                                                                                                  #  8          11101
000405:                                                                                                  #  9          11111
000406:
000407:
000408:                                                                                                  #  OUTPUT BITS USED BY PINBALL:
000409:
000410:                                                                                                  #             KEY RELEASE LIGHT    - BIT 5 OF CHANNEL 11
000411:                                                                                                  #             VERB/NOUN FLASH      - BIT 6 OF CHANNEL 11
000412:                                                                                                  #             OPERATOR ERROR LIGHT - BIT 7 OF CHANNEL 11
000413:


000415:                                                                                                  #  START OF EXECUTIVE SECTION OF PINBALL
000416: 40,2057                                           BANK     40
000417: 40,2000                                           SETLOC   PINBALL1
000418: 40,2000                                           BANK
000419:
000420: 40,2057                                           COUNT*   $$/PIN
000421: 40,2057           34744        CHARIN             CAF      ONE                                   #  BLOCK DISPLAY SYST
000422: 40,2060           57011                           XCH      DSPLOCK                               #  MAKE DSP SYST BUSY, BUT SAVE OLD
000423: 40,2061           54115                           TS       21/22REG                              #  C(DSPLOCK) FOR ERROR LIGHT RESET.
000424: 40,2062           11041                           CCS      CADRSTOR                              #  ALL KEYS EXCEPT ER TURN ON KR LITE IF
000425: 40,2063           02065                           TC       +2                                    #  CADRSTOR IS FULL.  THIS REMINDS OPERATOR
000426: 40,2064           02072                           TC       CHARIN2                               #  TO RE-ESTABLISH A FLASHING DISPLAY
000427: 40,2065           42136                           CS       ELRCODE1                              #  WHICH HE HAS OBSCURED WITH DISPLAYS OF
000428: 40,2066           60154                           AD       MPAC                                  #  HIS OWN (SEE REMARKS PRECEDING ROUTINE
000429: 40,2067           00006                           EXTEND                                         #  VBRELDSP).
000430: 40,2070           12072                           BZF      CHARIN2
000431: 40,2071           04365                           TC       RELDSPON
000432: 40,2072           56154        CHARIN2            XCH      MPAC
000433: 40,2073           54117                           TS       CHAR
000434: 40,2074           50000                           INDEX    A
000435: 40,2075           02076                           TC       +1                                    #  INPUT CODE     FUNCTION
000436: 40,2076           03463                           TC       CHARALRM                              #  0
000437: 40,2077           02155                           TC       NUM                                   #  1
000438: 40,2100           02155                           TC       NUM                                   #  2
000439: 40,2101           02155                           TC       NUM                                   #  3
000440: 40,2102           02155                           TC       NUM                                   #  4
000441: 40,2103           02155                           TC       NUM                                   #  5
000442: 40,2104           02155                           TC       NUM                                   #  6
000443: 40,2105           02155                           TC       NUM                                   #  7
000444: 40,2106           02141                           TC       89TEST                                #  10                 8
000445: 40,2107           02141                           TC       89TEST                                #  11                 9
000446: 40,2110           03463                           TC       CHARALRM                              #  12
000447: 40,2111           03463                           TC       CHARALRM                              #  13
000448: 40,2112           03463                           TC       CHARALRM                              #  14
000449: 40,2113           03463                           TC       CHARALRM                              #  15
000450: 40,2114           03463                           TC       CHARALRM                              #  16
000451: 40,2115           03463                           TC       CHARALRM                              #  17
000452: 40,2116           02153                           TC       NUM        -2                         #  20                 0
000453: 40,2117           02343                           TC       VERB                                  #  21                 VERB
000454: 40,2120           03646                           TC       ERROR                                 #  22                 ERROR LIGHT RESET
000455: 40,2121           03463                           TC       CHARALRM                              #  23
000456: 40,2122           03463                           TC       CHARALRM                              #  24
000457: 40,2123           03463                           TC       CHARALRM                              #  25
000458: 40,2124           03463                           TC       CHARALRM                              #  26
000459: 40,2125           03463                           TC       CHARALRM                              #  27
000460: 40,2126           03463                           TC       CHARALRM                              #  30
000461: 40,2127           03517                           TC       VBRELDSP                              #  31                 KEY RELEASE
000462: 40,2130           02376                           TC       POSGN                                 #  32                 +


000464: 40,2131           02363                           TC       NEGSGN                                #  33                 -
000465: 40,2132           02137                           TC       ENTERJMP                              #  34                 ENTER
000466: 40,2133           03463                           TC       CHARALRM                              #  35
000467: 40,2134           02456                           TC       CLEAR                                 #  36                 CLEAR
000468: 40,2135           02357                           TC       NOUN                                  #  37                 NOUN
000469:
000470: 40,2136           00022        ELRCODE1           OCT      22
000471: 40,2137           04626        ENTERJMP           TC       POSTJUMP
000472: 40,2140           62022                           CADR     ENTER
000473:
000474: 40,2141           10776        89TEST             CCS      DSPCOUNT
000475: 40,2142           02146                           TC       +4                                    #  +
000476: 40,2143           02146                           TC       +3                                    #  +0
000477: 40,2144           05146                           TC       ENDOFJOB                              #  - BLOCK DATA IN IF DSPCOUNT IS - OR -0
000478: 40,2145           05146                           TC       ENDOFJOB                              #  -0
000479: 40,2146           36266                           CAF      THREE
000480: 40,2147           70777                           MASK     DECBRNCH
000481: 40,2150           10000                           CCS      A
000482: 40,2151           02155                           TC       NUM                                   #  IF DECBRNCH IS +, 8 OR 9 OK
000483: 40,2152           03463                           TC       CHARALRM                              #  IF DECBRNCH IS +0, REJECT 8 OR 9
000484:
000485:
000486:                                                                                                  #  NUM ASSEMBLES OCTAL 3 BITS AT A TIME. FOR DECIMAL IT CONVERTS INCOMING
000487:                                                                                                  #  WORD AS A FRACTION, KEEPING RESULTS TO DP.
000488:                                                                                                  #  OCTAL RESULTS ARE LEFT IN XREG, YREG, OR ZREG. HI PART OF DEC IN XREG,
000489:                                                                                                  #  YREG, ZREG. THE LOW PARTS IN XREGLP, YREGLP, OR ZREGLP)
000490:                                                                                                  #  DECBRNCH IS LEFT AT +0 FOR OCT, +1 FOR + DEC, +2 FOR - DEC.
000491:                                                                                                  #  IF DSPCOUNT WAS LEFT -, NO MORE DATA IS ACCEPTED.
000492:
000493: 40,2153           34746                           CAF      ZERO
000494: 40,2154           54117                           TS       CHAR
000495: 40,2155           10776        NUM                CCS      DSPCOUNT
000496: 40,2156           02162                           TC       +4                                    #  +
000497: 40,2157           02162                           TC       +3                                    #  +0
000498: 40,2160           02161                           TC       +1                                    #  -BLOCK DATA IN IF DSPCOUNT IS -
000499: 40,2161           05146                           TC       ENDOFJOB                              #  -0
000500: 40,2162           02313                           TC       GETINREL
000501: 40,2163           11014                           CCS      CLPASS                                #  IF CLPASS IS + OR +0, MAKE IT +0.
000502: 40,2164           34746                           CAF      ZERO
000503: 40,2165           55014                           TS       CLPASS
000504: 40,2166           02167                           TC       +1
000505: 40,2167           50117                           INDEX    CHAR
000506: 40,2170           34066                           CAF      RELTAB
000507: 40,2171           74337                           MASK     LOW5
000508: 40,2172           54124                           TS       CODE
000509: 40,2173           30776                           CA       DSPCOUNT
000510: 40,2174           54143                           TS       COUNT
000511: 40,2175           03351                           TC       DSPIN
000512: 40,2176           36266                           CAF      THREE


000514: 40,2177           70777                           MASK     DECBRNCH
000515: 40,2200           10000                           CCS      A                                     #  +0, OCTAL.  +1, + DEC.  +2, - DEC.
000516: 40,2201           02212                           TC       DECTOBIN                              #  +
000517: 40,2202           50137                           INDEX    INREL                                 #  +0 OCTAL
000518: 40,2203           57000                           XCH      VERBREG
000519: 40,2204           54022                           TS       CYL
000520: 40,2205           40022                           CS       CYL
000521: 40,2206           40022                           CS       CYL
000522: 40,2207           56022                           XCH      CYL
000523: 40,2210           60117                           AD       CHAR
000524: 40,2211           02227                           TC       ENDNMTST
000525: 40,2212           50137        DECTOBIN           INDEX    INREL
000526: 40,2213           57000                           XCH      VERBREG
000527: 40,2214           54154                           TS       MPAC                                  #  SUM X 2EXP-14 IN MPAC
000528: 40,2215           34746                           CAF      ZERO
000529: 40,2216           54155                           TS       MPAC       +1
000530: 40,2217           34354                           CAF      TEN                                   #  10 X 2EXP-14
000531: 40,2220           07330                           TC       SHORTMP                               #  10SUM X 2EXP-28 IN MPAC, MPAC+1
000532: 40,2221           56155                           XCH      MPAC       +1
000533: 40,2222           60117                           AD       CHAR
000534: 40,2223           54155                           TS       MPAC       +1
000535: 40,2224           02227                           TC       ENDNMTST                              #  NO OF
000536: 40,2225           26154                           ADS      MPAC                                  #  OF MUST BE 5TH CHAR
000537: 40,2226           02245                           TC       DECCEND
000538: 40,2227           50137        ENDNMTST           INDEX    INREL
000539: 40,2230           55000                           TS       VERBREG
000540: 40,2231           40776                           CS       DSPCOUNT
000541: 40,2232           50137                           INDEX    INREL
000542: 40,2233           62304                           AD       CRITCON
000543: 40,2234           00006                           EXTEND
000544: 40,2235           12237                           BZF      ENDNUM                                #  -0, DSPCOUNT = CRITCON
000545: 40,2236           02301                           TC       MORNUM                                #  - , DSPCOUNT G/ CRITCON
000546: 40,2237           36266        ENDNUM             CAF      THREE
000547: 40,2240           70777                           MASK     DECBRNCH
000548: 40,2241           10000                           CCS      A
000549: 40,2242           02245                           TC       DECCEND
000550: 40,2243           40776        ENDALL             CS       DSPCOUNT                              #  BLOCK NUMIN BY PLACING DSPCOUNT
000551: 40,2244           02302                           TC       MORNUM     +1                         #  NEGATIVELY
000552: 40,2245           04607        DECCEND            TC       BANKCALL
000553: 40,2246           60250                           CADR     DECEND
000554: 40,2247           02243                           TC       ENDALL
000555: 40,2250           44744        DECEND             CS       ONE
000556: 40,2251           60137                           AD       INREL
000557: 40,2252           00006                           EXTEND
000558: 40,2253           62243                           BZMF     ENDALL                                #  IF INREL=0,1(VBREG,NNREG), LEAVE WHOLE
000559: 40,2254           02313                           TC       GETINREL
000560: 40,2255           50137                           INDEX    INREL
000561: 40,2256           31000                           CA       VERBREG
000562: 40,2257           54155                           TS       MPAC       +1
000563: 40,2260           07124                           TC       DMP                                   #  IF INREL=2,3,4(R1,R2,R3),CONVERT TO FRAC


000565:                                                                                                  #  MULT SUM X 2EXP-28 IN MPAC, MPAC+1 BY
000566: 40,2261           02311                           ADRES    DECON                                 #  2EXP14/10EXP5. GIVES(SUM/10EXP5)X2EXP-14
000567: 40,2262           36266                           CAF      THREE                                 #  IN MPAC, +1, +2.
000568: 40,2263           70777                           MASK     DECBRNCH
000569: 40,2264           50000                           INDEX    A
000570: 40,2265           02265                           TC       +0
000571: 40,2266           02272                           TC       +DECSGN
000572: 40,2267           00006                           EXTEND                                         #  - CASE
000573: 40,2270           40156                           DCS      MPAC       +1
000574: 40,2271           52156                           DXCH     MPAC       +1
000575: 40,2272           56156        +DECSGN            XCH      MPAC       +2
000576: 40,2273           50137                           INDEX    INREL
000577: 40,2274           55003                           TS       XREGLP     -2
000578: 40,2275           56155                           XCH      MPAC       +1
000579: 40,2276           50137                           INDEX    INREL
000580: 40,2277           55000                           TS       VERBREG
000581: 40,2300           04622                           TC       SWRETURN
000582: 40,2301           10776        MORNUM             CCS      DSPCOUNT                              #  DECREMENT DSPCOUNT
000583: 40,2302           54776                           TS       DSPCOUNT
000584: 40,2303           05146                           TC       ENDOFJOB
000585:
000586: 40,2304           00022        CRITCON            OCT      22                                    #  (DEC 18)
000587: 40,2305           00020                           OCT      20                                    #  (DEC 16)
000588: 40,2306           00012                           OCT      12                                    #  (DEC 10)
000589: 40,2307           00005                           OCT      5
000590: 40,2310           00000                           OCT      0
000591:
000592: 40,2311           05174 13261  DECON              2DEC     E-5        B14                        #  2EXP14/10EXP5 = .16384 DEC
000593:
000594:
000595:
000596:                                                                                                  #  GETINREL GETS PROPER DATA REG REL ADDRESS FOR CURRENT C(DSPCOUNT) AND
000597:                                                                                                  #  PUTS IN INTO INREL. +0 VERBREG, 1 NOUNREG, 2 XREG, 3 YREG, 4 ZREG.
000598:
000599: 40,2313           50776        GETINREL           INDEX    DSPCOUNT
000600: 40,2314           32317                           CAF      INRELTAB
000601: 40,2315           54137                           TS       INREL                                 #  (A TEMP, REG)
000602: 40,2316           00002                           TC       Q
000603:
000604: 40,2317           00004        INRELTAB           OCT      4                                     #  R3D5 (DSPCOUNT = 0)
000605: 40,2320           00004                           OCT      4                                     #  R3D4           =(1)
000606: 40,2321           00004                           OCT      4                                     #  R3D3           =(2)
000607: 40,2322           00004                           OCT      4                                     #  R3D2           =(3)
000608: 40,2323           00004                           OCT      4                                     #  R3D1           =(4)
000609: 40,2324           00003                           OCT      3                                     #  R2D5           =(5)
000610: 40,2325           00003                           OCT      3                                     #  R2D4           =(6)
000611: 40,2326           00003                           OCT      3                                     #  R2D3           =(7)
000612: 40,2327           00003                           OCT      3                                     #  R2D2           =(8D)
000613: 40,2330           00003                           OCT      3                                     #  R2D1           =(9D)
000614: 40,2331           00002                           OCT      2                                     #  R1D5           =(10D)


000616: 40,2332           00002                           OCT      2                                     #  R1D4           =(11D)
000617: 40,2333           00002                           OCT      2                                     #  R1D3           =(12D)
000618: 40,2334           00002                           OCT      2                                     #  R1D2           =(13D)
000619: 40,2335           00002                           OCT      2                                     #  R1D1           =(14D)
000620: 40,2336           05701                           TC       CCSHOLE                               #  NO DSPCOUNT NUMBER = 15D
000621: 40,2337           00001                           OCT      1                                     #  ND2            =(16D)
000622: 40,2340           00001                           OCT      1                                     #  ND1            =(17D)
000623: 40,2341           00000                           OCT      0                                     #  VD2            =(18D)
000624: 40,2342           00000                           OCT      0                                     #  VD1            =(19D)
000625:
000626: 40,2343           34746        VERB               CAF      ZERO
000627: 40,2344           55000                           TS       VERBREG
000628: 40,2345           34351                           CAF      VD1
000629: 40,2346           54776        NVCOM              TS       DSPCOUNT
000630: 40,2347           02570                           TC       2BLANK
000631: 40,2350           34744                           CAF      ONE
000632: 40,2351           54777                           TS       DECBRNCH                              #  SET FOR DEC V/N CODE
000633: 40,2352           34746                           CAF      ZERO
000634: 40,2353           55012                           TS       REQRET                                #  SET FOR ENTPAS0
000635: 40,2354           34210                           CAF      ENDINST                               #  IF DSPALARM OCCURS BEFORE FIRST ENTPAS0
000636: 40,2355           54136                           TS       ENTRET                                #  OR NVSUB, ENTRET MUST ALREADY BE SET
000637:                                                                                                  #  TO TC ENDOFJOB
000638: 40,2356           05146                           TC       ENDOFJOB
000639: 40,2357           34746        NOUN               CAF      ZERO
000640: 40,2360           55001                           TS       NOUNREG
000641: 40,2361           34352                           CAF      ND1                                   #  ND1, OCT 21 (DEC 17)
000642: 40,2362           02346                           TC       NVCOM
000643:
000644:
000645: 40,2363           02435        NEGSGN             TC       SIGNTEST
000646: 40,2364           02422                           TC       -ON
000647: 40,2365           34743                           CAF      TWO
000648: 40,2366           50137        BOTHSGN            INDEX    INREL                                 #  SET DEC COMP BIT TO 1 (IN DECBRNCH)
000649: 40,2367           64736                           AD       BIT7                                  #  BIT 5 FOR R1,  BIT 4 FOR R2,
000650: 40,2370           26777                           ADS      DECBRNCH                              #  BIT 3 FOR R3.
000651: 40,2371           11014        FIXCLPAS           CCS      CLPASS                                #  IF CLPASS IS + OR +0, MAKE IT +0.
000652: 40,2372           34746                           CAF      ZERO
000653: 40,2373           55014                           TS       CLPASS
000654: 40,2374           02375                           TC       +1
000655: 40,2375           05146                           TC       ENDOFJOB
000656:
000657: 40,2376           02435        POSGN              TC       SIGNTEST
000658: 40,2377           02402                           TC       +ON
000659: 40,2400           34744                           CAF      ONE
000660: 40,2401           02366                           TC       BOTHSGN
000661:
000662: 40,2402           22002        +ON                LXCH     Q
000663: 40,2403           02313                           TC       GETINREL
000664: 40,2404           50137                           INDEX    INREL


000666: 40,2405           32430                           CAF      SGNTAB     -2
000667: 40,2406           54123                           TS       SGNOFF
000668: 40,2407           64744                           AD       ONE
000669: 40,2410           54122                           TS       SGNON
000670: 40,2411           34746        SGNCOM             CAF      ZERO
000671: 40,2412           54124                           TS       CODE
000672: 40,2413           56123                           XCH      SGNOFF
000673: 40,2414           03433                           TC       11DSPIN
000674: 40,2415           34732                           CAF      BIT11
000675: 40,2416           54124                           TS       CODE
000676: 40,2417           56122                           XCH      SGNON
000677: 40,2420           03433                           TC       11DSPIN
000678: 40,2421           00001                           TC       L
000679: 40,2422           22002        -ON                LXCH     Q
000680: 40,2423           02313                           TC       GETINREL
000681: 40,2424           50137                           INDEX    INREL
000682: 40,2425           32430                           CAF      SGNTAB     -2
000683: 40,2426           54122                           TS       SGNON
000684: 40,2427           64744                           AD       ONE
000685: 40,2430           54123                           TS       SGNOFF
000686: 40,2431           02411                           TC       SGNCOM
000687:
000688: 40,2432           00005        SGNTAB             OCT      5                                     #  -R1
000689: 40,2433           00003                           OCT      3                                     #  -R2
000690: 40,2434           00000                           OCT      0                                     #  -R3
000691:
000692: 40,2435           22002        SIGNTEST           LXCH     Q                                     #  ALLOWS +,- ONLY WHEN DSPCOUNT=R1D1,
000693: 40,2436           36266                           CAF      THREE                                 #  R2D1, OR R3D1. ALLOWS ONLY FIRST OF
000694: 40,2437           70777                           MASK     DECBRNCH                              #  CONSECUTIVE +/- CHARACTERS.
000695: 40,2440           10000                           CCS      A                                     #  IF LOW2 BITS OF DECBRNCH NOT= 0, SIGN
000696: 40,2441           05146                           TC       ENDOFJOB                              #  FOR THIS WORD ALREADY IN. REJECT.
000697: 40,2442           44310                           CS       R1D1
000698: 40,2443           02451                           TC       SGNTST1
000699: 40,2444           44311                           CS       R2D1
000700: 40,2445           02451                           TC       SGNTST1
000701: 40,2446           44312                           CS       R3D1
000702: 40,2447           02451                           TC       SGNTST1
000703: 40,2450           05146                           TC       ENDOFJOB                              #  NO MATCH FOUND. SIGN ILLEGAL
000704: 40,2451           60776        SGNTST1            AD       DSPCOUNT
000705: 40,2452           00006                           EXTEND
000706: 40,2453           12455                           BZF      +2                                    #  MATCH FOUND
000707: 40,2454           00002                           TC       Q
000708: 40,2455           00001                           TC       L                                     #  SIGN LEGAL
000709:
000710:                                                                                                  #  CLEAR BLANKS WHICH R1, R2, R3 IS CURRENT OR LAST TO BE DISPLAYED(PERTINE
000711:                                                                                                  #  NT XREG,YREG,ZREG IS CLEARED). SUCCESSIVE CLEARS TAKE CARE OF EACH RX
000712:                                                                                                  #  L/ RC UNTIL R1 IS DONE. THEN NO FURTHER ACTION


000714:                                                                                                  #  THE SINGLE COMPONENT LOAD VERBS ALLOW ONLY THE SINGLE RC THAT IS
000715:                                                                                                  #  APPROPRIATE TO BE CLEARED.
000716:
000717:                                                                                                  #  CLPASS   +0  PASS0, CAN BE BACKED UP
000718:                                                                                                  #           +NZ  HIPASS, CAN BE BACKED UP
000719:                                                                                                  #           -NZ  PASS0, CANNOT BE BACKED UP
000720:
000721: 40,2456           10776        CLEAR              CCS      DSPCOUNT
000722: 40,2457           64744                           AD       ONE
000723: 40,2460           02462                           TC       +2
000724: 40,2461           64744                           AD       ONE
000725: 40,2462           50000                           INDEX    A                                     #  DO NOT CHANGE DSPCOUNT BECAUSE MAY LATER
000726: 40,2463           32317                           CAF      INRELTAB                              #  FAIL LEGALTST.
000727: 40,2464           54137                           TS       INREL                                 #  MUST SET INREL, EVEN FOR HIPASS.
000728: 40,2465           11014                           CCS      CLPASS
000729: 40,2466           02474                           TC       CLPASHI                               #  +
000730: 40,2467           02471                           TC       +2                                    #  +0    IF CLPASS IS +0 OR -, IT IS PASS0
000731: 40,2470           02471                           TC       +1                                    #  -
000732: 40,2471           30137                           CA       INREL
000733: 40,2472           02516                           TC       LEGALTST
000734: 40,2473           02511                           TC       CLEAR1
000735: 40,2474           10137        CLPASHI            CCS      INREL
000736: 40,2475           54137                           TS       INREL
000737: 40,2476           02516                           TC       LEGALTST
000738: 40,2477           32566                           CAF      DOUBLK     +2                         #  +3 TO - NUMBER. BACKS DATA REQUESTS.
000739: 40,2500           27012                           ADS      REQRET
000740: 40,2501           30137                           CA       INREL
000741: 40,2502           54125                           TS       MIXTEMP                               #  TEMP STORAGE FOR INREL
000742: 40,2503           00006                           EXTEND
000743: 40,2504           27000                           DIM      VERBREG                               #  DECREMENT VERB AND RE-DISPLAY
000744: 40,2505           04607                           TC       BANKCALL
000745: 40,2506           62367                           CADR     UPDATVB
000746: 40,2507           30125                           CA       MIXTEMP
000747: 40,2510           54137                           TS       INREL                                 #  RESTORE INREL
000748: 40,2511           02514        CLEAR1             TC       CLR5
000749: 40,2512           25014                           INCR     CLPASS                                #  ONLY IF CLPASS IS + OR +0,
000750: 40,2513           05146                           TC       ENDOFJOB                              #  SET FOR HIGHER PASS.
000751: 40,2514           22002        CLR5               LXCH     Q                                     #  USES 5BLANK  BUT AVOIDS ITS TC GETINREL
000752: 40,2515           02527                           TC       5BLANK     +2
000753: 40,2516           67767        LEGALTST           AD       NEG2
000754: 40,2517           10000                           CCS      A
000755: 40,2520           00002                           TC       Q                                     #  LEGAL  INREL G/ 2
000756: 40,2521           05701                           TC       CCSHOLE
000757: 40,2522           05146                           TC       ENDOFJOB                              #  ILLEGAL   INREL= 0,1
000758: 40,2523           00002                           TC       Q                                     #  LEGAL    INREL = 2
000759:
000760:
000761:                                                                                                  #  5BLANK BLANKS 5 CHAR DISPLAY WORD IN R1, R2, OR R3. IT ALSO ZEROES XREG,
000762:                                                                                                  #  YREG, OR ZREG.PLACE ANY + DSPCOUNT NUMBER FOR PERTINENT RC INTO DSPCOUNT
000763:                                                                                                  #  DSPCOUNT IS LEFT SET TO LEFT MOST DSP NUMB FOR RC JUST BLANKED.
000764:


000766: 40,2524           54776                           TS       DSPCOUNT                              #  NEEDED FOR BLANKSUB
000767: 40,2525           22002        5BLANK             LXCH     Q
000768: 40,2526           02313                           TC       GETINREL
000769: 40,2527           34746                           CAF      ZERO
000770: 40,2530           50137                           INDEX    INREL
000771: 40,2531           55000                           TS       VERBREG                               #  ZERO X, Y, Z REG.
000772: 40,2532           50137                           INDEX    INREL
000773: 40,2533           55003                           TS       XREGLP     -2
000774: 40,2534           54124                           TS       CODE
000775: 40,2535           50137                           INDEX    INREL                                 #  ZERO PERTINENT DEC COMP BIT.
000776: 40,2536           44736                           CS       BIT7                                  #  PROTECT OTHERS
000777: 40,2537           70777                           MASK     DECBRNCH
000778: 40,2540           72567                           MASK     BRNCHCON                              #  ZERO LOW 2 BITS.
000779: 40,2541           54777                           TS       DECBRNCH
000780: 40,2542           50137                           INDEX    INREL
000781: 40,2543           32557                           CAF      SINBLANK   -2                         #  BLANK ISOLATED CHAR SEPARATELY
000782: 40,2544           54143                           TS       COUNT
000783: 40,2545           03351                           TC       DSPIN
000784: 40,2546           50137        5BLANK1            INDEX    INREL
000785: 40,2547           32562                           CAF      DOUBLK     -2
000786: 40,2550           54776                           TS       DSPCOUNT
000787: 40,2551           02570                           TC       2BLANK
000788: 40,2552           44743                           CS       TWO
000789: 40,2553           26776                           ADS      DSPCOUNT
000790: 40,2554           02570                           TC       2BLANK
000791: 40,2555           50137                           INDEX    INREL
000792: 40,2556           34306                           CAF      R1D1       -2
000793: 40,2557           54776                           TS       DSPCOUNT                              #  SET DSPCOUNT TO LEFT MOST DSP NUMBER
000794: 40,2560           00001                           TC       L                                     #  OF REG. JUST BLANKED
000795:
000796: 40,2561           00016        SINBLANK           OCT      16                                    #  DEC 14
000797: 40,2562           00005                           OCT      5
000798: 40,2563           00004                           OCT      4
000799: 40,2564           00015        DOUBLK             OCT      15                                    #  DEC 13
000800: 40,2565           00011                           OCT      11                                    #  DEC 9
000801: 40,2566           00003                           OCT      3
000802:
000803: 40,2567           77774        BRNCHCON           OCT      77774
000804:
000805:                                                                                                  #  2BLANK BLANKS TWO CHAR. PLACE DSP NUMBER OF LEFT CHAR  OF THE PAIR INTO
000806:                                                                                                  #  DSPCOUNT. THIS NUMBER IS LEFT IN DSPCOUNT
000807:
000808: 40,2570           30776        2BLANK             CA       DSPCOUNT
000809: 40,2571           54021                           TS       SR
000810: 40,2572           42603                           CS       BLANKCON
000811: 40,2573           00004                           INHINT
000812: 40,2574           50021                           INDEX    SR
000813: 40,2575           57022                           XCH      DSPTAB
000814: 40,2576           00006                           EXTEND
000815: 40,2577           62601                           BZMF     +2                                    #  IF OLD CONTENTS -, NOUT OK


000817: 40,2600           25015                           INCR     NOUT                                  #  IF OLD CONTENTS +, +1 TO NOUT
000818: 40,2601           00003                           RELINT                                         #  IF -,NOUT OK
000819: 40,2602           00002                           TC       Q
000820: 40,2603           04000        BLANKCON           OCT      4000
000821:


000823:                                                                                                  #  ENTER PASS 0 IS THE EXECUTE FUNCTION. HIGHER ORDER ENTERS ARE TO LOAD
000824:                                                                                                  #  DATA. THE SIGN OF REQRET DETERMINES THE PASS, + FOR PASS 0,- FOR HIGHER
000825:                                                                                                  #  PASSES.
000826:
000827:
000828:                                                                                                  #  MACHINE CADR TO BE SPECIFIED (MCTBS) NOUNS DESIRE AN ECADR TO BE LOADED
000829:                                                                                                  #  WHEN USED WITH LOAD VERBS, MONITOR VERBS, OR DISPLAY VERBS (EXCEPT
000830:                                                                                                  #  VERB = FIXED MEMORY DISPLAY, WHICH REQUIRES AN FCADR).
000831:
000832:
000833: 41,2020                                           BANK     41
000834: 41,2000                                           SETLOC   PINBALL2
000835: 41,2000                                           BANK
000836:
000837: 41,2020                                           COUNT*   $$/PIN
000838: 41,2020           03613        NVSUBB             TC       NVSUB1                                #  STANDARD LEAD INS. DONT MOVE.
000839: 41,2021           03045        LOADLV1            TC       LOADLV
000840:                                                                                                  #  END OF STANDARD LEAD INS.
000841:
000842:
000843: 41,2022           34746        ENTER              CAF      ZERO
000844: 41,2023           55014                           TS       CLPASS
000845: 41,2024           34210                           CAF      ENDINST
000846: 41,2025           54136                           TS       ENTRET
000847: 41,2026           11012                           CCS      REQRET
000848: 41,2027           02062                           TC       ENTPAS0                               #  IF +, PASS 0
000849: 41,2030           02062                           TC       ENTPAS0                               #  IF +, PASS 0
000850: 41,2031           02032                           TC       +1                                    #  IF -, NOT PASS 0
000851: 41,2032           32060        ENTPASHI           CAF      MMADREF
000852: 41,2033           61012                           AD       REQRET                                #  IF L/ 2 CHAR IN FOR MM CODE, ALARM
000853: 41,2034           00006                           EXTEND                                         #  AND RECYCLE(DECIDE AT MMCHANG+1).
000854: 41,2035           12047                           BZF      ACCEPTWD
000855: 41,2036           36266                           CAF      THREE                                 #  IF DEC, L/5 CHAR IN FOR DATA MUST BE
000856: 41,2037           70777                           MASK     DECBRNCH                              #  SCALED (DECEND); IF 5 CHAR IN, DATA
000857: 41,2040           10000                           CCS      A                                     #  HAS ALREADY BEEN SCALED. ANY NUMBER
000858: 41,2041           02043                           TC       +2                                    #  OF DECIMAL CHARACTERS ARE ACCEPTABLE.SCR
000859: 41,2042           02047                           TC       ACCEPTWD                              #  OCTAL. ANY NUMBER OF CHAR OK.
000860: 41,2043           10776                           CCS      DSPCOUNT
000861: 41,2044           02053                           TC       LT5
000862: 41,2045           02053                           TC       LT5
000863: 41,2046           02047                           TC       +1                                    #  5 CHAR IN (DSPCOUNT IS -)
000864: 41,2047           41012        ACCEPTWD           CS       REQRET                                #  5 CHAR IN (DSPCOUNT IS -)
000865: 41,2050           55012                           TS       REQRET                                #  SET REQRET +.
000866: 41,2051           04424                           TC       FLASHOFF
000867: 41,2052           01012                           TC       REQRET
000868:
000869: 41,2053           34746        LT5                CAF      ZERO
000870: 41,2054           54154                           TS       MPAC
000871: 41,2055           04607                           TC       BANKCALL
000872: 41,2056           60254                           CADR     DECEND     +4


000874: 41,2057           02047                           TC       ACCEPTWD
000875: 41,2060     0136               ENTEXIT            =        ENTRET
000876:
000877: 41,2060           03471        MMADREF            ADRES    MMCHANG    +1                         #  ASSUMES TC REQMM AT MMCHANG.
000878:
000879: 41,2061           00034        LOWVERB            DEC      28         B-14                       #  LOWER VERB THAT AVOIDS NOUN TEST.
000880:
000881: 41,2062           34746        ENTPAS0            CAF      ZERO                                  #   NOUN VERB SUB ENTERS HERE
000882: 41,2063           54777                           TS       DECBRNCH
000883: 41,2064           44351                           CS       VD1                                   #  BLOCK FURTHER NUM CHAR, SO THAT STRAY
000884: 41,2065           54776                           TS       DSPCOUNT                              #  CHAR DO NOT GET INTO VERB OR NOUN LTS.
000885: 41,2066           41000        TESTVB             CS       VERBREG                               #  IF VERB IS G/E LOWVB, SKIP NOUN TEST.
000886: 41,2067           55040                           TS       VERBSAVE                              #  SAVE VERB FOR POSSIBLE RECYCLE.
000887: 41,2070           62061                           AD       LOWVERB                               #  LOWVERB - VB
000888: 41,2071           00006                           EXTEND
000889: 41,2072           62160                           BZMF     VERBFAN                               #  VERB G/E LOWVERB
000890: 41,2073           00006        TESTNN             EXTEND                                         #  VERB L/ LOWVERB
000891: 41,2074           32141                           DCA      LODNNLOC                              #  SWITCH BANKS TO NOUN TABLE READING
000892: 41,2075           52006                           DXCH     Z                                     #  ROUTINE.
000893: 41,2076           50140                           INDEX    MIXBR
000894: 41,2077           02077                           TC       +0
000895: 41,2100           02102                           TC       +2                                    #  NORMAL
000896: 41,2101           02246                           TC       MIXNOUN                               #  MIXED
000897: 41,2102           10146                           CCS      NNADTEM                               #  NORMAL
000898: 41,2103           02156                           TC       VERBFAN    -2                         #       NORMAL IF +
000899: 41,2104           02400                           TC       GODSPALM                              #  NOT IN USE   IF +0
000900: 41,2105           02111                           TC       REQADD                                #  SPECIFY MACHINE CADR IF -
000901: 41,2106           25016                           INCR     NOUNCADR                              #  AUGMENT MACHINE CADR IF -0
000902: 41,2107           04302                           TC       SETNADD                               #  ECADR FROM NOUNCADR. SETS EB, NOUNADD.
000903: 41,2110           02145                           TC       INTMCTBS   +2
000904: 41,2111           34726        REQADD             CAF      BIT15                                 #  SET CLPASS FOR PASS0 ONLY
000905: 41,2112           55014                           TS       CLPASS
000906: 41,2113           44210                           CS       ENDINST                               #  TEST IF REACHED HERE FROM INTERNAL OR
000907: 41,2114           60136                           AD       ENTEXIT                               #              FROM EXTERNAL
000908: 41,2115           00006                           EXTEND
000909: 41,2116           12120                           BZF      +2                                    #  EXTERNAL MACH CADR TO BE SPECIFIED
000910: 41,2117           02143                           TC       INTMCTBS
000911: 41,2120           02336                           TC       REQDATZ                               #  EXTERNAL MACH CADR TO BE SPECIFIED
000912: 41,2121           10777                           CCS      DECBRNCH                              #  ALARM AND RECYCLE IF DECIMAL USED
000913: 41,2122           06020                           TC       ALMCYCLE                              #  FOR MCTBS.
000914: 41,2123           44351                           CS       VD1                                   #  OCTAL USED  OK
000915: 41,2124           54776                           TS       DSPCOUNT                              #  BLOCK NUM CHAR IN
000916: 41,2125           11041                           CCS      CADRSTOR
000917: 41,2126           02131                           TC       +3                                    #  EXTERNAL MCTBS DISPLAY WILL LEAVE FLASH
000918: 41,2127           02132                           TC       USEADD                                #  ON IF ENDIDLE NOT = +0.
000919: 41,2130           02131                           TC       +1
000920: 41,2131           04420                           TC       FLASHON
000921: 41,2132           57004        USEADD             XCH      ZREG
000922: 41,2133           04274                           TC       SETNCADR                              #  ECADR INTO NOUNCADR. SET EB, NOUNADD.
000923: 41,2134           00006                           EXTEND


000925: 41,2135           32141                           DCA      LODNNLOC                              #  SWITCH BANKS TO NOUN TABLE READING
000926: 41,2136           52006                           DXCH     Z                                     #  ROUTINE.
000927: 41,2137           02160                           TC       VERBFAN
000928:
000929: 41,2140     0776                                  EBANK=   DSPCOUNT
000930: 41,2140           02110 64101  LODNNLOC           2CADR    LODNNTAB
000931:
000932:
000933: 41,2142           77772        NEG5               OCT      77772
000934:
000935: 41,2143           30156        INTMCTBS           CA       MPAC       +2                         #  INTERNAL MACH CADR TO BE SPECIFIED.
000936: 41,2144           04274                           TC       SETNCADR                              #  ECADR INTO NOUNCADR. SET EB, NOUNADD.
000937: 41,2145           44747                           CS       FIVE                                  #  NVSUB CALL LEFT CADR IN MPAC+2 FOR MACH
000938: 41,2146           61000                           AD       VERBREG                               #  CADR TO BE SPECIFIED.
000939: 41,2147           00006                           EXTEND
000940: 41,2150           12160                           BZF      VERBFAN                               #  DONT DISPLAY CADR IF VB = 05.
000941: 41,2151           34312                           CAF      R3D1                                  #  VB NOT = 05. DISPLAY CADR.
000942: 41,2152           54776                           TS       DSPCOUNT
000943: 41,2153           31016                           CA       NOUNCADR
000944: 41,2154           03435                           TC       DSPOCTWO
000945: 41,2155           02160                           TC       VERBFAN
000946:
000947: 41,2156           64744                           AD       ONE
000948: 41,2157           04274                           TC       SETNCADR                              #  ECADR INTO NOUNCADR. SETS EB, NOUNADD.
000949: 41,2160           42172        VERBFAN            CS       LST2CON
000950: 41,2161           61000                           AD       VERBREG                               #  VERB-LST2CON
000951: 41,2162           10000                           CCS      A
000952: 41,2163           64744                           AD       ONE                                   #  VERB G/ LST2CON
000953: 41,2164           02166                           TC       +2
000954: 41,2165           02173                           TC       VBFANDIR                              #  VERB L/ LST2CON
000955: 41,2166           54154                           TS       MPAC
000956: 41,2167           04450                           TC       RELDSP                                #  RELEASE DISPLAY SYST
000957: 41,2170           04626                           TC       POSTJUMP                              #  GO TO GOEXTVB WITH VB-40 IN MPAC.
000958: 41,2171           66000                           CADR     GOEXTVB
000959: 41,2172           00050        LST2CON            DEC      40         B-14                       #  FIRST LIST2 VERB (EXTENDED VERB)
000960:
000961: 41,2173           51000        VBFANDIR           INDEX    VERBREG
000962: 41,2174           32176                           CAF      VERBTAB
000963: 41,2175           04631                           TC       BANKJUMP
000964:
000965: 41,2176           62400        VERBTAB            CADR     GODSPALM                              #  VB00 ILLEGAL
000966: 41,2177           62414                           CADR     DSPA                                  #  VB01 DISPLAY OCT COMP 1 (R1)
000967: 41,2200           62422                           CADR     DSPB                                  #  VB02 DISPLAY OCT COMP 2 (R1)
000968: 41,2201           62427                           CADR     DSPC                                  #  VB03 DISPLAY OCT COMP 3 (R1)
000969: 41,2202           62407                           CADR     DSPAB                                 #  VB04 DISPLAY OCT COMP 1,2 (R1,R2)
000970: 41,2203           62402                           CADR     DSPABC                                #  VB05 DISPLAY OCT COMP 1,2,3 (R1,R2,R3)
000971: 41,2204           62552                           CADR     DECDSP                                #  VB06 DECIMAL DISPLAY
000972: 41,2205           61020                           CADR     DSPDPDEC                              #  VB07 DP DECIMAL DISPLAY (R1,R2)
000973: 41,2206           62400                           CADR     GODSPALM                              #  VB08 SPARE
000974: 41,2207           62400                           CADR     GODSPALM                              #  VB09 SPARE


000976: 41,2210           61447                           CADR     DSPALARM                              #  VB10 SPARE
000977: 41,2211           63302                           CADR     MONITOR                               #  VB11 MONITOR OCT COMP 1 (R1)
000978: 41,2212           63302                           CADR     MONITOR                               #  VB12 MONITOR OCT COMP 2 (R1)
000979: 41,2213           63302                           CADR     MONITOR                               #  VB13 MONITOR OCT COMP 3 (R1)
000980: 41,2214           63302                           CADR     MONITOR                               #  VB14 MONITOR OCT COMP 1,2 (R1,R2)
000981: 41,2215           63302                           CADR     MONITOR                               #  VB15 MONITOR OCT COMP 1,2,3 (R1,R2,R3)
000982: 41,2216           63302                           CADR     MONITOR                               #  VB16 MONITOR DECIMAL
000983: 41,2217           63302                           CADR     MONITOR                               #  VB17 MONITOR DP DEC  (R1,R2)
000984: 41,2220           62400                           CADR     GODSPALM                              #  VB18 SPARE
000985: 41,2221           62400                           CADR     GODSPALM                              #  VB19 SPARE
000986: 41,2222           62400                           CADR     GODSPALM                              #  VB20 SPARE
000987: 41,2223           63002                           CADR     ALOAD                                 #  VB21 LOAD COMP 1 (R1)
000988: 41,2224           63013                           CADR     BLOAD                                 #  VB22 LOAD COMP 2 (R2)
000989: 41,2225           63030                           CADR     CLOAD                                 #  VB23 LOAD COMP 3 (R3)
000990: 41,2226           62753                           CADR     ABLOAD                                #  VB24 LOAD COMP 1,2 (R1,R2)
000991: 41,2227           62647                           CADR     ABCLOAD                               #  VB25 LOAD COMP 1,2,3 (R1,R2,R3)
000992: 41,2230           62400                           CADR     GODSPALM                              #  VB26 SPARE
000993: 41,2231           63425                           CADR     DSPFMEM                               #  VB27 FIXED MEMORY DISPLAY
000994:                                                                                                  #  THE FOLLOWING VERBS MAKE NO NOUN TEST
000995: 41,2232           62400                           CADR     GODSPALM                              #  VB28 SPARE
000996: 41,2233           62400                           CADR     GODSPALM                              #  VB29 SPARE
000997: 41,2234           63526        REQEXLOC           CADR     VBRQEXEC                              #  VB30 REQUEST EXECUTIVE
000998: 41,2235           63557                           CADR     VBRQWAIT                              #  VB31 REQUEST WAITLIST
000999: 41,2236           61514                           CADR     VBRESEQ                               #  VB32 RESEQUENCE
001000: 41,2237           61471                           CADR     VBPROC                                #  VB33 PROCEED WITHOUT DATA
001001: 41,2240           61477                           CADR     VBTERM                                #  VB34 TERMINATE CURRENT TEST OR LOAD REQ
001002: 41,2241           63662                           CADR     VBTSTLTS                              #  VB35 TEST LIGHTS
001003: 41,2242           12454                           CADR     SLAP1                                 #  VB36 FRESH START
001004: 41,2243           63470                           CADR     MMCHANG                               #  VB37 CHANGE MAJOR MODE
001005: 41,2244           62400                           CADR     GODSPALM                              #  VB38 SPARE
001006: 41,2245           62400                           CADR     GODSPALM                              #  VB39 SPARE
001007:
001008:
001009:                                                                                                  #  THE LIST2 VERBFAN IS LOCATED IN THE EXTENDED VERB BANK.
001010:


001012:                                                                                                  #  NNADTAB CONTAINS A RELATIVE ADDRESS, IDADDREL(IN LOW 10 BITS), REFERRING
001013:                                                                                                  #  TO WHERE 3 CONSECUTIVE ADDRESSES ARE STORED (IN IDADDTAB).
001014:                                                                                                  #  MIXNOUN GETS DATA AND STORES IN MIXTEMP,+1,+2. IT SETS NOUNADD FOR
001015:                                                                                                  #   MIXTEMP.
001016:
001017: 41,2246           10146        MIXNOUN            CCS      NNADTEM
001018: 41,2247           02253                           TC       +4                                    #  +  IN USE
001019: 41,2250           02400                           TC       GODSPALM                              #  +0  NOT IN USE
001020: 41,2251           02253                           TC       +2                                    #  -  IN USE
001021: 41,2252           02253                           TC       +1                                    #  -0  IN USE
001022: 41,2253           46263                           CS       SIX
001023: 41,2254           61000                           AD       VERBREG
001024: 41,2255           00006                           EXTEND
001025: 41,2256           62260                           BZMF     +2                                    #  VERB L/E 6
001026: 41,2257           02160                           TC       VERBFAN                               #  AVOID MIXNOUN SWAP IF VB NOT = DISPLAY
001027: 41,2260           34743                           CAF      TWO
001028: 41,2261           54117        MIXNN1             TS       DECOUNT
001029: 41,2262           62305                           AD       MIXAD
001030: 41,2263           54145                           TS       NOUNADD                               #  SET NOUNADD TO MIXTEMP + K
001031: 41,2264           50117                           INDEX    DECOUNT                               #  GET IDADDTAB ENTRY FOR COMPONENT K
001032: 41,2265           30150                           CA       IDAD1TEM                              #  OF NOUN.
001033: 41,2266           54122                           TS       NOUNTEM
001034:                                                                                                  #  TEST FOR DP(FOR OCT DISPLAY). IF SO, GET
001035:                                                                                                  #    MINOR PART ONLY.
001036: 41,2267           03104                           TC       SFRUTMIX                              #  GET SF ROUT NUMBER IN A
001037: 41,2270           02306                           TC       DPTEST
001038: 41,2271           02273                           TC       MIXNN2                                #  NO DP
001039: 41,2272           24122                           INCR     NOUNTEM                               #  DP  GET MINOR PART
001040: 41,2273           30122        MIXNN2             CA       NOUNTEM
001041: 41,2274           74347                           MASK     LOW11                                 #  ESUBK (NO DP)  OR (ESUBK)+1    FOR DP
001042: 41,2275           04304                           TC       SETEBANK                              #  SET EBANK, LEAVE EADRES IN A.
001043: 41,2276           50000                           INDEX    A                                     #  PICK UP C(ESUBK)  NOT DP
001044: 41,2277           30000                           CA       0                                     #  OR C((ESUBK)+1)  FOR DP MINOR PART
001045: 41,2300           50145                           INDEX    NOUNADD
001046: 41,2301           56000                           XCH      0                                     #  STORE IN MIXTEM + K
001047: 41,2302           10117                           CCS      DECOUNT
001048: 41,2303           02261                           TC       MIXNN1
001049: 41,2304           02160                           TC       VERBFAN
001050:
001051: 41,2305           00125        MIXAD              TC       MIXTEMP
001052:
001053:
001054:                                                                                                  #  DPTEST   ENTER WITH SF ROUT NUMBER IN A.
001055:                                                                                                  #           RETURNS TO L+1 IF NO DP.
001056:                                                                                                  #           RETURNS TO L+2 IF DP.
001057:
001058: 41,2306           50000        DPTEST             INDEX    A
001059: 41,2307           12310                           TCF      +1
001060: 41,2310           00002                           TC       Q                                     #  OCTAL ONLY  NO DP
001061: 41,2311           00002                           TC       Q                                     #  FRACT NO DP


001063: 41,2312           00002                           TC       Q                                     #  DEG  NO DP
001064: 41,2313           00002                           TC       Q                                     #  ARITH  NO DP
001065: 41,2314           12330                           TCF      DPTEST1                               #  DP1OUT
001066: 41,2315           12330                           TCF      DPTEST1                               #  DP2OUT
001067: 41,2316           00002                           TC       Q                                     #  LRPOSOUT  NO DP (DATA IN CHANNEL 33)
001068: 41,2317           12330                           TCF      DPTEST1                               #  DP3OUT
001069: 41,2320           00002                           TC       Q                                     #  HMS   NO DP
001070: 41,2321           00002                           TC       Q                                     #  M/S   NO DP
001071: 41,2322           12330                           TCF      DPTEST1                               #  DP4OUT
001072: 41,2323           00002                           TC       Q                                     #  ARITH1   NO DP
001073: 41,2324           00002                           TC       Q                                     #  2INTOUT  NO DP TO GET HI PART IN MPAC
001074: 41,2325           00002                           TC       Q                                     #  360-CDU   NO DP
001075: 41,2326           00002                           TC       Q                                     #  RRANGOUT  NO DP
001076: 41,2327           00002                           TC       Q                                     #  RRDOTOUT  NO DP
001077: 41,2330           50002        DPTEST1            INDEX    Q
001078: 41,2331           00001                           TC       1                                     #  RETURN TO L+2
001079:
001080:
001081: 41,2332           34310        REQDATX            CAF      R1D1
001082: 41,2333           12337                           TCF      REQCOM
001083: 41,2334           34311        REQDATY            CAF      R2D1
001084: 41,2335           12337                           TCF      REQCOM
001085: 41,2336           34312        REQDATZ            CAF      R3D1
001086: 41,2337           54776        REQCOM             TS       DSPCOUNT
001087: 41,2340           40002                           CS       Q
001088: 41,2341           55012                           TS       REQRET
001089: 41,2342           04607                           TC       BANKCALL
001090: 41,2343           60525                           CADR     5BLANK
001091: 41,2344           04420                           TC       FLASHON
001092: 41,2345           00136        ENDRQDAT           TC       ENTEXIT
001093:
001094: 41,2346           55001                           TS       NOUNREG
001095: 41,2347           56002        UPDATNN            XCH      Q
001096: 41,2350           54117                           TS       UPDATRET
001097: 41,2351           00006                           EXTEND
001098: 41,2352           32141                           DCA      LODNNLOC                              #  SWITCH BANKS TO NOUN TABLE READING
001099: 41,2353           52006                           DXCH     Z                                     #  ROUTINE.
001100: 41,2354           10146                           CCS      NNADTEM
001101: 41,2355           64744                           AD       ONE                                   #  NORMAL
001102: 41,2356           12361                           TCF      PUTADD
001103: 41,2357           12362                           TCF      PUTADD     +1                         #  MCTBS  DONT CHANGE NOUNADD
001104: 41,2360           12362                           TCF      PUTADD     +1                         #  MCTBI  DONT CHANGE NOUNADD
001105: 41,2361           04274        PUTADD             TC       SETNCADR                              #  ECADR INTO NOUNCADR. SETS EB, NOUNADD.
001106: 41,2362           34352                           CAF      ND1
001107: 41,2363           54776                           TS       DSPCOUNT
001108: 41,2364           31001                           CA       NOUNREG
001109: 41,2365           12374                           TCF      UPDAT1
001110:
001111: 41,2366           55000                           TS       VERBREG
001112: 41,2367           56002        UPDATVB            XCH      Q


001114: 41,2370           54117                           TS       UPDATRET
001115: 41,2371           34351                           CAF      VD1
001116: 41,2372           54776                           TS       DSPCOUNT
001117: 41,2373           31000                           CA       VERBREG
001118: 41,2374           04626        UPDAT1             TC       POSTJUMP                              #  CANT USE SWCALL TO GO TC DSPDECVN,SINCE
001119: 41,2375           61346                           CADR     GOVNUPDT                              #  UPDATVB CAN ITSELF BE CALLED BY SWCALL.
001120: 41,2376           00117                           TC       UPDATRET
001121:
001122:
001123: 41,2377           06020        GOALMCYC           TC       ALMCYCLE                              #  NEEDED BECAUSE BANKJUMP CANT HANDLE F/F.
001124:
001125: 41,2400           04626        GODSPALM           TC       POSTJUMP
001126: 41,2401           61447                           CADR     DSPALARM
001127:


001129:                                                                                                  #           NOUN   TABLES
001130:                                                                                                  #  NOUN CODE L/40, NORMAL NOUN CASE.  NOUN CODE G/E 40, MIXED NOUN CASE.
001131:                                                                                                  #  FOR NORMAL CASE, NNADTAB CONTAINS ONE       ECADR     FOR EACH NOUN.
001132:                                                                                                  #  +0 INDICATES NOUN NOT USED.   - ENTRY INDICATES MACHINE CADR(E OR F) TO
001133:                                                                                                  #  BE SPECIFIED. -1 INDICATES CHANNEL TO BE SPECIFIED. -0 INDICATES AUGMENT
001134:                                                                                                  #  OF LAST MACHINE CADR SUPPLIED.
001135:
001136:                                                                                                  #  FOR MIXED CASE, NNADTAB CONTAINS ONE INDIRECT ADDRESS(IDADDREL) IN LOW
001137:                                                                                                  #  10 BITS, AND THE COMPONENT CODE NUMBER IN THE HIGH 5 BITS.
001138:
001139:                                                                                                  #  NNTYPTAB IS A PACKED TABLE OF THE FORM MMMMMNNNNNPPPPP.
001140:
001141:                                                                                                  #  FOR THE NORMAL CASE, M-S ARE THE COMPONENT CODE NUMBER.
001142:                                                                                                  #                       N-S ARE THE SF ROUTINE CODE NUMBER.
001143:                                                                                                  #                       P-S ARE THE SF CONSTANT CODE NUMBER.
001144:
001145:                                                                                                  #  MIXED CASE,M-S ARE THE SF CONSTANT3 CODE NUMBER     3 COMPONENT CASE
001146:                                                                                                  #             N-S ARE THE SF CONSTANT2 CODE NUMBER
001147:                                                                                                  #             P-S ARE THE SF CONSTANT1 CODE NUMBER
001148:                                                                                                  #             N-S ARE THE SF CONSTANT2 CODE NUMBER     2 COMPONENT CASE
001149:                                                                                                  #             P-S ARE THE SF CONSTANT1 CODE NUMBER
001150:                                                                                                  #             P-S ARE THE SF CONSTANT1 CODE NUMBER      1 COMPONENT CASE
001151:
001152:                                                                                                  #  THERE IS ALSO AN INDIRECT ADDRESS TABLE(IDADDTAB) FOR MIXED CASE ONLY.
001153:                                                                                                  #  EACH ENTRY CONTAINS ONE ECADR.    IDADDREL IS THE RELATIVE ADDRESS OF
001154:                                                                                                  #  THE FIRST OF THESE ENTRIES.
001155:                                                                                                  #  THERE IS ONE ENTRY IN THIS TABLE FOR EACH COMPONENT OF A MIXED NOUN
001156:                                                                                                  #  THEY ARE LISTED IN ORDER OF ASCENDING K.
001157:
001158:                                                                                                  #  THERE IS ALSO A SCALE FACTOR ROUTINE NUMBER TABLE( RUTMXTAB ) FOR MIXED
001159:                                                                                                  #  CASE ONLY. THERE IS ONE ENTRY PER MIXED NOUN. THE FORM IS,
001160:                                                                                                  #        QQQQQRRRRRSSSSS
001161:                                                                                                  #  Q-S ARE THE SF ROUTINE 3 CODE NUMBER     3 COMPONENT CASE
001162:                                                                                                  #  R-S ARE THE SF ROUTINE 2 CODE NUMBER
001163:                                                                                                  #  S-S ARE THE SF ROUTINE 1 CODE NUMBER
001164:                                                                                                  #  R-S ARE THE SF ROUTINE 2 CODE NUMBER     2 COMPONENT CASE
001165:                                                                                                  #  S-S ARE THE SF ROUTINE 1 CODE NUMBER
001166:
001167:
001168:                                                                                                  #  IN OCTAL DISPLAY AND LOAD (OCT OR DEC) VERBS, EXCLUDE USE OF VERBS WHOSE
001169:                                                                                                  #  COMPONENT NUMBER IS GREATER THAN THE NUMBER OF COMPONENTS IN NOUN.
001170:                                                                                                  #  (ALL MACHINE ADDRESS TO BE SPECIFIED NOUNS ARE 3 COMPONENT.)
001171:
001172:
001173:                                                                                                  #  IN MULTI-COMPONENT LOAD VERBS, NO MIXING OF OCTAL AND DECIMAL DATA
001174:                                                                                                  #  COMPONENT WORDS IS ALLOWED. ALARM IF VIOLATION.
001175:
001176:                                                                                                  #  IN DECIMAL LOADS OF DATA, 5 NUMERICAL CHARACTERS MUST BE KEYED IN
001177:                                                                                                  #  BEFORE EACH ENTER. IF NOT, ALARM.
001178:


001180:                                                                                                  #           DISPLAY  VERBS
001181: 41,2402           44743        DSPABC             CS       TWO
001182: 41,2403           02453                           TC       COMPTEST
001183: 41,2404           50145                           INDEX    NOUNADD
001184: 41,2405           40002                           CS       2
001185: 41,2406           56132                           XCH      BUF        +2
001186: 41,2407           44744        DSPAB              CS       ONE
001187: 41,2410           02453                           TC       COMPTEST
001188: 41,2411           50145                           INDEX    NOUNADD
001189: 41,2412           40001                           CS       1
001190: 41,2413           56131                           XCH      BUF        +1
001191: 41,2414           02472        DSPA               TC       DECTEST
001192: 41,2415           02515                           TC       TSTFORDP
001193: 41,2416           50145                           INDEX    NOUNADD
001194: 41,2417           40000                           CS       0
001195: 41,2420           56130        DSPCOM1            XCH      BUF
001196: 41,2421           02434                           TC       DSPCOM2
001197: 41,2422           44744        DSPB               CS       ONE
001198: 41,2423           02466                           TC       DCOMPTST
001199: 41,2424           50145                           INDEX    NOUNADD
001200: 41,2425           40001                           CS       1
001201: 41,2426           02420                           TC       DSPCOM1
001202: 41,2427           44743        DSPC               CS       TWO
001203: 41,2430           02466                           TC       DCOMPTST
001204: 41,2431           50145                           INDEX    NOUNADD
001205: 41,2432           40002                           CS       2
001206: 41,2433           02420                           TC       DSPCOM1
001207: 41,2434           44743        DSPCOM2            CS       TWO                                   #  A  B  C  AB  ABC
001208: 41,2435           61000                           AD       VERBREG                               #  -1 -0 +1 +2  +3   IN A
001209: 41,2436           10000                           CCS      A                                     #  +0 +0 +0 +1  +2    IN A AFTER CCS
001210: 41,2437           02442                           TC       DSPCOM3
001211: 41,2440           00136                           TC       ENTEXIT
001212: 41,2441           02442                           TC       +1
001213: 41,2442           54122        DSPCOM3            TS       DISTEM                                #  +0,+1,+2 INTO DISTEM
001214: 41,2443           50000                           INDEX    A
001215: 41,2444           34310                           CAF      R1D1
001216: 41,2445           54776                           TS       DSPCOUNT
001217: 41,2446           50122                           INDEX    DISTEM
001218: 41,2447           40130                           CS       BUF
001219: 41,2450           03435                           TC       DSPOCTWO
001220: 41,2451           56122                           XCH      DISTEM
001221: 41,2452           02436                           TC       DSPCOM2    +2
001222:
001223:                                                                                                  #  COMPTEST ALARMS IF COMPONENT NUMBER OF VERB(LOAD OR OCT DISPLAY) IS
001224:                                                                                                  #  GREATER THAN THE HIGHEST COMPONENT NUMBER OF NOUN.
001225: 41,2453           54123        COMPTEST           TS       SFTEMP1                               #  - VERB COMP
001226: 41,2454           22002                           LXCH     Q
001227: 41,2455           02544        COMPTST1           TC       GETCOMP
001228: 41,2456           04322                           TC       LEFT5
001229: 41,2457           76266                           MASK     THREE                                 #  NOUN COMP


001231: 41,2460           60123                           AD       SFTEMP1                               #  NOUN COMP - VERB COMP
001232: 41,2461           10000                           CCS      A
001233: 41,2462           00001                           TC       L                                     #  NOUN COMP G/ VERB COMP
001234: 41,2463           05701                           TC       CCSHOLE
001235: 41,2464           02400                           TC       GODSPALM                              #  NOUN COMP L/ VERB COMP
001236: 41,2465           00001        NDCMPTST           TC       L                                     #  NOUN COMP = VERB COMP
001237:
001238:
001239:                                                                                                  #  DCOMPTST ALARMS IF DECIMAL ONLY BIT (BIT4 OF COMP CODE NUMBER) = 1.
001240:                                                                                                  #  IF NOT, IT PERFORMS REGULAR COMPTEST.
001241: 41,2466           54123        DCOMPTST           TS       SFTEMP1                               #  - VERB COMP
001242: 41,2467           22002                           LXCH     Q
001243: 41,2470           02472                           TC       DECTEST
001244: 41,2471           02455                           TC       COMPTST1
001245:
001246: 41,2472           00006        DECTEST            EXTEND                                         #  ALARMS IF DEC ONLY BIT = 1 (BIT4 OF COMP
001247: 41,2473           22156                           QXCH     MPAC       +2                         #  CODE NUMBER). RETURNS IF NOT.
001248: 41,2474           02544                           TC       GETCOMP
001249: 41,2475           74727                           MASK     BIT14
001250: 41,2476           10000                           CCS      A
001251: 41,2477           02400                           TC       GODSPALM
001252: 41,2500           00156                           TC       MPAC       +2
001253:
001254:
001255: 41,2501           22002        DCTSTCYC           LXCH     Q                                     #  ALARMS AND RECYCLES IF DEC ONLY BIT = 1
001256: 41,2502           02544                           TC       GETCOMP                               #  ( BIT4 OF COMP CODE NUMBER). RETURNS
001257: 41,2503           74727                           MASK     BIT14                                 #  IF NOT.  USED BY LOAD VERBS.
001258: 41,2504           10000                           CCS      A
001259: 41,2505           06020                           TC       ALMCYCLE
001260: 41,2506           00001                           TC       L
001261:
001262:
001263:                                                                                                  #  NOUNTEST ALARMS IF NO-LOAD BIT (BIT5 OF COMP CODE NUMBER) = 1.
001264:                                                                                                  #  IF NOT, IT RETURNS.
001265: 41,2507           22002        NOUNTEST           LXCH     Q
001266: 41,2510           02544                           TC       GETCOMP
001267: 41,2511           10000                           CCS      A
001268: 41,2512           00001                           TC       L
001269: 41,2513           00001                           TC       L
001270: 41,2514           02400                           TC       GODSPALM
001271:
001272:
001273: 41,2515           22002        TSTFORDP           LXCH     Q                                     #  TEST FOR DP. IF SO, GET MINOR PART ONLY.
001274: 41,2516           30146                           CA       NNADTEM
001275: 41,2517           64744                           AD       ONE                                   #  IF NNADTEM = -1, CHANNEL TO BE SPECIFIED
001276: 41,2520           00006                           EXTEND
001277: 41,2521           12533                           BZF      CHANDSP
001278: 41,2522           50140                           INDEX    MIXBR
001279: 41,2523           02523                           TC       +0
001280: 41,2524           02526                           TC       +2                                    #  NORMAL


001282: 41,2525           00001                           TC       L                                     #  MIXED CASE ALREADY HANDLED IN MIXNOUN
001283: 41,2526           03076                           TC       SFRUTNOR
001284: 41,2527           02306                           TC       DPTEST
001285: 41,2530           00001                           TC       L                                     #  NO DP
001286: 41,2531           24145                           INCR     NOUNADD                               #  DP    E+1 INTO NOUNADD FOR MINOR PART.
001287: 41,2532           00001                           TC       L
001288:
001289:
001290: 41,2533           31016        CHANDSP            CA       NOUNCADR
001291: 41,2534           74775                           MASK     LOW9
001292: 41,2535           00006                           EXTEND
001293: 41,2536           50000                           INDEX    A
001294: 41,2537           00000                           READ     0
001295: 41,2540           40000                           CS       A
001296: 41,2541           12420                           TCF      DSPCOM1
001297:
001298:
001299: 41,2542           00147        COMPICK            ADRES    NNTYPTEM
001300: 41,2543           00146                           ADRES    NNADTEM
001301:
001302: 41,2544           50140        GETCOMP            INDEX    MIXBR                                 #  NORMAL                MIXED
001303: 41,2545           32541                           CAF      COMPICK    -1                         #  ADRES NNTYPTEM        ADRES NNADTEM
001304: 41,2546           50000                           INDEX    A
001305: 41,2547           30000                           CA       0                                     #  C(NNTYPTEM)           C(NNADTEM)
001306: 41,2550           74341                           MASK     HI5                                   #  GET HI5 OF NNTYPTAB(NORM)OF NNADTAB(MIX)
001307: 41,2551           00002                           TC       Q
001308:
001309:
001310: 41,2552           02544        DECDSP             TC       GETCOMP
001311: 41,2553           04322                           TC       LEFT5
001312: 41,2554           76266                           MASK     THREE
001313: 41,2555           54117                           TS       DECOUNT                               #  COMP NUMBER INTO DECOUNT
001314: 41,2556           54122        DSPDCGET           TS       DECTEM                                #  PICKS UP DATA
001315: 41,2557           60145                           AD       NOUNADD                               #  DECTEM  1COMP +0, 2COMP +1, 3COMP +2
001316: 41,2560           50000                           INDEX    A
001317: 41,2561           40000                           CS       0
001318: 41,2562           50122                           INDEX    DECTEM
001319: 41,2563           57002                           XCH      XREG                                  #  CANT USE BUF SINCE DMP USES IT.
001320: 41,2564           10122                           CCS      DECTEM
001321: 41,2565           02556                           TC       DSPDCGET                              #  MORE TO GET
001322: 41,2566           34746        DSPDCPUT           CAF      ZERO                                  #  DISPLAYS DATA
001323: 41,2567           54155                           TS       MPAC       +1                         #  DECOUNT 1COMP +0, 2COMP +1, 3COMP +2
001324: 41,2570           54156                           TS       MPAC       +2
001325: 41,2571           50117                           INDEX    DECOUNT
001326: 41,2572           34310                           CAF      R1D1
001327: 41,2573           54776                           TS       DSPCOUNT
001328: 41,2574           50117                           INDEX    DECOUNT
001329: 41,2575           41002                           CS       XREG
001330: 41,2576           54154                           TS       MPAC
001331: 41,2577           03117                           TC       SFCONUM                               #  2X( SF CON NUMB ) IN A


001333: 41,2600           54123                           TS       SFTEMP1
001334: 41,2601           00006                           EXTEND                                         #  SWITCH BANKS TO SF CONSTANT TABLE
001335: 41,2602           32614                           DCA      GTSFOUTL                              #     READING ROUTINE.
001336: 41,2603           52006                           DXCH     Z                                     #  LOADS SFTEMP1, SFTEMP2.
001337: 41,2604           50140                           INDEX    MIXBR
001338: 41,2605           02605                           TC       +0
001339: 41,2606           02611                           TC       DSPSFNOR
001340: 41,2607           03104                           TC       SFRUTMIX
001341: 41,2610           02624                           TC       DECDSP3
001342:
001343: 41,2611           03076        DSPSFNOR           TC       SFRUTNOR
001344: 41,2612           02624                           TC       DECDSP3
001345:
001346: 41,2613     0776                                  EBANK=   DSPCOUNT
001347: 41,2613           02146 64101  GTSFOUTL           2CADR    GTSFOUT
001348:
001349:
001350:
001351: 41,2615           04607        DSPDCEND           TC       BANKCALL                              #  ALL SFOUT ROUTINES END HERE
001352: 41,2616           61255                           CADR     DSPDECWD
001353: 41,2617           10117                           CCS      DECOUNT
001354: 41,2620           02622                           TC       +2
001355: 41,2621           00136                           TC       ENTEXIT
001356: 41,2622           54117                           TS       DECOUNT
001357: 41,2623           02566                           TC       DSPDCPUT                              #  MORE TO DISPLAY
001358:
001359:
001360: 41,2624           50000        DECDSP3            INDEX    A
001361: 41,2625           32627                           CAF      SFOUTABR
001362: 41,2626           04631                           TC       BANKJUMP
001363:
001364: 41,2627           61445        SFOUTABR           CADR     PREDSPAL                              #  ALARM IF DEC DISP WITH OCTAL ONLY NOUN
001365: 41,2630           62615                           CADR     DSPDCEND
001366: 41,2631           60604                           CADR     DEGOUTSF
001367: 41,2632           60726                           CADR     ARTOUTSF
001368: 41,2633           60737                           CADR     DP1OUTSF
001369: 41,2634           60744                           CADR     DP2OUTSF
001370: 41,2635           60624                           CADR     LRPOSOUT
001371: 41,2636           60746                           CADR     DP3OUTSF
001372: 41,2637           65241                           CADR     HMSOUT
001373: 41,2640           65314                           CADR     M/SOUT
001374: 41,2641           60744                           CADR     DP2OUTSF
001375: 41,2642           60733                           CADR     AROUT1SF
001376: 41,2643           60761                           CADR     2INTOUT
001377: 41,2644           60612                           CADR     360-CDUO
001378: 41,2645           60634                           CADR     RRANGOUT
001379: 41,2646           60651                           CADR     RRDOTOUT
001380: 41,2647                        ENDRTOUT           EQUALS
001381:


001383:                                                                                                  #          THE FOLLOWING IS ATYPICAL SF ROUTINE . IT USES MPAC. LEAVES RESU
001384:                                                                                                  #  LTS IN MPAC, MPAC+1. ENDS WITH TC DSPDCEND
001385:
001386:
001387: 40,2604                                           SETLOC   BLANKCON   +1
001388:
001389: 40,2604                                           COUNT*   $$/PIN
001390:                                                                                                  #     DEGOUTSF SCALES BY .18 THE LOW 14 BITS OF ANGLE , ADDING .18 FOR
001391:                                                                                                  #  NUMBERS IN THE NEGATIVE (AGC) RANGE.
001392:
001393: 40,2604           34746        DEGOUTSF           CAF      ZERO
001394: 40,2605           54156                           TS       MPAC       +2                         #  SET INDEX FOR FULL SCALE
001395: 40,2606           02701                           TC       FIXRANGE
001396: 40,2607           02611                           TC       +2                                    #  NO AUGMENT NEEDED (SFTEMP1 AND 2 ARE 0)
001397: 40,2610           02674                           TC       SETAUG                                #  SET AUGMENTER ACCORDING TO C(MPAC +2)
001398: 40,2611           02712                           TC       DEGCOM
001399:
001400:                                                                                                  #  360-CDUO COMPUTES 360 - CDU ANGLE IN MPAC, STORES RESULT IN MPAC AND
001401:                                                                                                  #  GOES TO DEGOUTSF.
001402:
001403: 40,2612           02614        360-CDUO           TC       360-CDU
001404: 40,2613           02604                           TC       DEGOUTSF
001405:
001406: 40,2614           30154        360-CDU            CA       MPAC
001407: 40,2615           74724                           MASK     POSMAX                                #  IF ANGLE IS 0 OR 180 DEGREES, DO NOTHING
001408: 40,2616           00006                           EXTEND
001409: 40,2617           12623                           BZF      360-CDUE
001410: 40,2620           40154                           CS       MPAC                                  #  COMPUTE 360 DEGREES MINUS ANGLE
001411: 40,2621           64744                           AD       ONE
001412: 40,2622           54154                           TS       MPAC
001413: 40,2623           00002        360-CDUE           TC       Q
001414:
001415:                                                                                                  #  LRPOSOUT DISPLAYS +0,1,2,OR 3 (WHOLE) FOR CHANNEL 33,BITS 7-6 = 11,10,
001416:                                                                                                  #  01,00 RESPECTIVELY.
001417:
001418: 40,2624           00006        LRPOSOUT           EXTEND
001419: 40,2625           00033                           READ     CHAN33
001420: 40,2626           00006                           EXTEND
001421: 40,2627           74733                           MP       BIT10                                 #  BITS 7-6 TO BITS 2-1
001422: 40,2630           40000                           COM
001423: 40,2631           76266                           MASK     THREE
001424: 40,2632           54154                           TS       MPAC
001425: 40,2633           02726                           TC       ARTOUTSF                              #  DISPLAY AS WHOLE
001426:
001427:                                                                                                  #  RRANGOUT AND RRDOTOUT CONVERT RR RANGE AND RANGE RATE FROM SP 15 BIT
001428:                                                                                                  #  MAGNITUDE TO DP AND THEN SCALE FOR DISPLAY.
001429:
001430: 40,2634           02664        RRANGOUT           TC       RRSPTODP                              #  CONVERT TO DP.
001431: 40,2635           40110                           CS       RADMODES                              #  BIT 3 OF FLAG12 = HI SCALE
001432: 40,2636           74742                           MASK     BIT3


001434: 40,2637           10000                           CCS      A
001435: 40,2640           02646                           TC       SCALELO                               #  DATA IS IN LO SCALE.
001436: 40,2641           52155                           DXCH     MPAC                                  #  DATA IS IN HI SCALE, MP BY 8.
001437: 40,2642           20001                           DAS      A
001438: 40,2643           20001                           DAS      A
001439: 40,2644           20001                           DAS      A
001440: 40,2645           52155                           DXCH     MPAC
001441: 40,2646           07124        SCALELO            TC       DMP                                   #  SCALE FOR DISPLAY,
001442: 40,2647           00123                           ADRES    SFTEMP1
001443: 40,2650           02740                           TC       L14/OUT                               #  AND GO TO ARITHDP1.
001444:
001445: 40,2651           02664        RRDOTOUT           TC       RRSPTODP                              #  CONVERT TO DP.
001446: 40,2652           00006                           EXTEND
001447: 40,2653           42663                           DCS      BIASRDOT                              #  SUBTRACT BIAS OF 17000 COUNTS.
001448: 40,2654           20155                           DAS      MPAC
001449: 40,2655           34354                           CAF      TEN                                   #  MULTIPLY DATA BY TEN TO DISPLAY TENTHS
001450: 40,2656           07330                           TC       SHORTMP                               #    FPS - (ATTEMPT TO MULTIPLY DISPLAY
001451: 40,2657           52156                           DXCH     MPAC       +1                         #           SF BY TEN PRODUCED SF GREATER
001452: 40,2660           52155                           DXCH     MPAC                                  #           THAN 16383)
001453: 40,2661           02646                           TC       SCALELO                               #  SCALE FOR DISPLAY.
001454: 40,2662           00001 01150  BIASRDOT           2DEC     17000      B-28
001455:
001456:
001457: 40,2664           34724        RRSPTODP           CAF      POSMAX                                #  CONVERT SP 15 BIT MAG TO DP.
001458: 40,2665           70154                           MASK     MPAC
001459: 40,2666           54155                           TS       MPAC       +1
001460: 40,2667           30154                           CA       MPAC
001461: 40,2670           60000                           DOUBLE
001462: 40,2671           74744                           MASK     BIT1
001463: 40,2672           54154                           TS       MPAC
001464: 40,2673           00002                           TC       Q
001465:
001466: 40,2674           00006        SETAUG             EXTEND                                         #  LOADS SFTEMP1 AND SFTEMP2 WITH THE
001467: 40,2675           50156                           INDEX    MPAC       +2                         #  DP AUGMENTER CONSTANT
001468: 40,2676           32723                           DCA      DEGTAB
001469: 40,2677           52124                           DXCH     SFTEMP1
001470: 40,2700           00002                           TC       Q
001471:
001472: 40,2701           10154        FIXRANGE           CCS      MPAC                                  #  IF MPAC IS + RETURN TO L+1
001473: 40,2702           00002                           TC       Q                                     #  IF MPAC IS - RETURN TO L+2 AFTER
001474: 40,2703           00002                           TC       Q                                     #  MASKING OUT THE SIGN BIT
001475: 40,2704           12705                           TCF      +1
001476: 40,2705           44726                           CS       BIT15
001477: 40,2706           70154                           MASK     MPAC
001478: 40,2707           54154                           TS       MPAC
001479: 40,2710           50002                           INDEX    Q
001480: 40,2711           00001                           TC       1
001481:
001482: 40,2712           00006        DEGCOM             EXTEND                                         #  LOADS MULTIPLIER , DOES SHORTMP, AND
001483: 40,2713           50156                           INDEX    MPAC       +2                         #  ADDS AUGMENTER.


001485: 40,2714           32723                           DCA      DEGTAB
001486: 40,2715           52155                           DXCH     MPAC                                  #  ADJUSTED ANGLE IN A
001487: 40,2716           07330                           TC       SHORTMP
001488: 40,2717           52124                           DXCH     SFTEMP1
001489: 40,2720           20155                           DAS      MPAC
001490: 40,2721           02731                           TC       SCOUTEND
001491:
001492:
001493: 40,2722           05605        DEGTAB             OCT      05605                                 #  HI PART OF     .18
001494: 40,2723           03656                           OCT      03656                                 #  LOW PART OF    .18
001495: 40,2724           16314                           OCT      16314                                 #  HI PART OF     .45
001496: 40,2725           31463                           OCT      31463                                 #  LO PART OF     .45
001497:
001498: 40,2726           52124        ARTOUTSF           DXCH     SFTEMP1                               #  ASSUMES POINT AT LEFT OF DP SFCON
001499: 40,2727           52155                           DXCH     MPAC
001500: 40,2730           04406                           TC       PRSHRTMP                              #  IF C(A) = -0, SHORTMP FAILS TO GIVE -0.
001501: 40,2731           04626        SCOUTEND           TC       POSTJUMP
001502: 40,2732           62615                           CADR     DSPDCEND
001503:
001504: 40,2733           52124        AROUT1SF           DXCH     SFTEMP1                               #  ASSUMES POINT BETWEEN HI AND LO PARTS OF
001505: 40,2734           52155                           DXCH     MPAC                                  #  DP SFCON. SHIFTS RESULTS LEFT 14, BY
001506: 40,2735           04406                           TC       PRSHRTMP                              #  TAKING RESULTS FROM MPAC+1, MPAC+2.
001507: 40,2736           02740                           TC       L14/OUT
001508:
001509:
001510: 40,2737           02752        DP1OUTSF           TC       DPOUT                                 #  SCALES MPAC, MPAC +1 BY DP SCALE FACTOR
001511: 40,2740           56156        L14/OUT            XCH      MPAC       +2                         #  IN SFTEMP1, SFTEMP2. THEN SCALE RESULT
001512: 40,2741           56155                           XCH      MPAC       +1                         #  BY B14.
001513: 40,2742           54154                           TS       MPAC
001514: 40,2743           02731                           TC       SCOUTEND
001515:
001516:
001517: 40,2744           02752        DP2OUTSF           TC       DPOUT                                 #  SCALES MPAC , MPAC +1 BY DP SCALE FACTOR
001518: 40,2745           02731                           TC       SCOUTEND
001519:
001520:
001521: 40,2746           02752        DP3OUTSF           TC       DPOUT                                 #  ASSUMES POINT BETWEEN BITS 7-8 OF HIGH
001522: 40,2747           36263                           CAF      SIX                                   #  LEFT BY 7, ROUNDS MPAC+2 INTO MPAC+1.
001523: 40,2750           03202                           TC       TPLEFTN                               #  SHIFT LEFT 7.
001524: 40,2751           02731                           TC       SCOUTEND
001525:
001526:
001527: 40,2752     0162               MPAC+6             =        MPAC       +6                         #  USE MPAC +6 INSTEAD OF OVFIND
001528:
001529: 40,2752           56002        DPOUT              XCH      Q
001530: 40,2753           54162                           TS       MPAC+6
001531: 40,2754           02776                           TC       READLO                                #  GET FRESH DATA FOR BOTH HI AND LO.
001532: 40,2755           07300                           TC       TPAGREE                               #  MAKE DP DATA AGREE
001533: 40,2756           07124                           TC       DMP
001534: 40,2757           00123                           ADRES    SFTEMP1


001536: 40,2760           00162                           TC       MPAC+6
001537:                                                                                                  #  THE FOLLOWING ROUTINE DISPLAYS TWO CONTIGUOUS SP POSITIVE INTEGERS
001538:                                                                                                  #  AS TWO POSITIVE DECIMAL INTEGERS IN RXD1-RXD2 AND RXD4-RXD5 (RXD3 IS
001539:                                                                                                  #  BLANKED). THE INTEGER IN THE LOWER NUMBERED ADDRESS IS DISPLAYED IN
001540:                                                                                                  #  RXD1-RXD2.
001541:
001542: 40,2761           02525        2INTOUT            TC       5BLANK                                #  TO BLANK RXD3
001543: 40,2762           02402                           TC       +ON                                   #  TURN ON + SIGN
001544: 40,2763           30154                           CA       MPAC
001545: 40,2764           03335                           TC       DSPDECVN                              #  DISPLAY 1ST INTEGER (LIKE VERB AND NOUN)
001546: 40,2765           46266                           CS       THREE
001547: 40,2766           50117                           INDEX    DECOUNT
001548: 40,2767           64310                           AD       R1D1                                  #  RXD4
001549: 40,2770           54776                           TS       DSPCOUNT
001550: 40,2771           02776                           TC       READLO                                #  GET 2ND INTEGER
001551: 40,2772           30155                           CA       MPAC       +1
001552: 40,2773           03335                           TC       DSPDECVN                              #  DISPLAY 2ND INTEGER (LIKE VERB AND NOUN)
001553: 40,2774           04626                           TC       POSTJUMP
001554: 40,2775           62617                           CADR     DSPDCEND   +2
001555:
001556:
001557:                                                                                                  #  READLO PICKS UP FRESH DATA FOR BOTH HI AND LO AND LEAVES IT IN
001558:                                                                                                  #  MPAC, MPAC+1. THIS IS NEEDED FOR TIME DISPLAY. IT ZEROES MPAC+2, BUT
001559:                                                                                                  #  DOES NOT FORCE TPAGREE.
001560:
001561: 40,2776           56002        READLO             XCH      Q
001562: 40,2777           54144                           TS       TEM4
001563: 40,3000           50140                           INDEX    MIXBR
001564: 40,3001           03001                           TC       +0
001565: 40,3002           03016                           TC       RDLONOR
001566: 40,3003           50117                           INDEX    DECOUNT
001567: 40,3004           30150                           CA       IDAD1TEM                              #  GET IDADDTAB ENTRY FOR COMP K OF NOUN.
001568: 40,3005           74347                           MASK     LOW11                                 #  E SUBK
001569: 40,3006           04304                           TC       SETEBANK                              #  SET EB, LEAVE EADRES IN A.
001570: 40,3007           00006        READLO1            EXTEND                                         #  MIXED         NORMAL
001571: 40,3010           50000                           INDEX    A                                     #  C(ESUBK)      C(E)
001572: 40,3011           30001                           DCA      0                                     #  C((E SUBK)+1)      C(E+1)
001573: 40,3012           52155                           DXCH     MPAC
001574: 40,3013           34746                           CAF      ZERO
001575: 40,3014           54156                           TS       MPAC       +2
001576: 40,3015           00144                           TC       TEM4
001577:
001578: 40,3016           30145        RDLONOR            CA       NOUNADD                               #  E
001579: 40,3017           03007        ENDRDLO            TC       READLO1
001580:
001581:
001582: 42,3241                                           BANK     42
001583: 42,2000                                           SETLOC   PINBALL3
001584: 42,2000                                           BANK
001585:


001587: 42,3241                                           COUNT*   $$/PIN
001588: 42,3241           04607        HMSOUT             TC       BANKCALL                              #  READ FRESH DATA FOR HI AND LO INTO MPAC,
001589: 42,3242           60776                           CADR     READLO                                #  MPAC+1.
001590: 42,3243           07300                           TC       TPAGREE                               #  MAKE DP DATA AGREE
001591: 42,3244           03430                           TC       SEPSECNR                              #  LEAVE FRACT SEC/60 IN MPAC, MPAC+1.LEAVE
001592:                                                                                                  #  WHOLE MIN IN BIT13 OF LOTEMOUT AND ABOVE
001593: 42,3245           07124                           TC       DMP                                   #  USE ONLY FRACT SEC/60 MOD 60
001594: 42,3246           03302                           ADRES    SECON2                                #  MULT BY .06
001595: 42,3247           34312                           CAF      R3D1                                  #  GIVES CENTI-SEC/10EXP5 MOD 60
001596: 42,3250           54776                           TS       DSPCOUNT
001597: 42,3251           04607                           TC       BANKCALL                              #  DISPLAY SEC MOD 60
001598: 42,3252           61255                           CADR     DSPDECWD
001599: 42,3253           03446                           TC       SEPMIN                                #  REMOVE REST OF SECONDS
001600: 42,3254           33304                           CAF      MINCON2                               #  LEAVE FRACT MIN/60 IN MPAC+1. LEAVE
001601: 42,3255           56154                           XCH      MPAC                                  #  WHOLE HOURS IN MPAC.
001602: 42,3256           55006                           TS       HITEMOUT                              #  SAVE WHOLE HOURS.
001603: 42,3257           33305                           CAF      MINCON2    +1
001604: 42,3260           56155                           XCH      MPAC       +1                         #  USE ONLY FRACT MIN/60 MOD 60
001605: 42,3261           04406                           TC       PRSHRTMP                              #  IF C(A) = -0, SHORTMP FAILS TO GIVE -0.
001606:                                                                                                  #  MULT BY .0006
001607: 42,3262           34311                           CAF      R2D1                                  #  GIVES MIN/10EXP5 MOD 60
001608: 42,3263           54776                           TS       DSPCOUNT
001609: 42,3264           04607                           TC       BANKCALL                              #  DISPLAY MIN MOD 60
001610: 42,3265           61255                           CADR     DSPDECWD
001611: 42,3266           00006                           EXTEND                                         #  MINUTES, SECONDS HAVE BEEN REMOVED
001612: 42,3267           33311                           DCA      HRCON1
001613: 42,3270           52155                           DXCH     MPAC
001614: 42,3271           31006                           CA       HITEMOUT                              #  USE WHOLE HOURS
001615: 42,3272           04406                           TC       PRSHRTMP                              #  IF C(A) = -0, SHORTMP FAILS TO GIVE -0.
001616:                                                                                                  #  MULT BY .16384
001617: 42,3273           34310                           CAF      R1D1                                  #  GIVES HOURS/10EXP5
001618: 42,3274           54776                           TS       DSPCOUNT
001619: 42,3275           04607                           TC       BANKCALL                              #  USE REGULAR DSPDECWD, WITH ROUND OFF.
001620: 42,3276           61255                           CADR     DSPDECWD
001621: 42,3277           00136                           TC       ENTEXIT
001622:
001623: 42,3300           25660 31742  SECON1             2DEC*    1.666666666 E-4        B12*            #  2EXP12/6000
001624:
001625: 42,3302           01727        SECON2             OCT      01727                                 #  .06 FOR SECONDS DISPLAY
001626: 42,3303           01217                           OCT      01217
001627: 42,3304           00011        MINCON2            OCT      00011                                 #  .0006 FOR MINUTES DISLPAY
001628: 42,3305           32445                           OCT      32445
001629: 42,3306           02104        MINCON1            OCT      02104                                 #  .066..66 UPPED BY 2EXP-2B
001630: 42,3307           10422                           OCT      10422
001631: 42,3310           05174 13261  HRCON1             2DEC     .16384
001632:
001633: 42,3312           00000                           OCT      00000
001634: 42,3313           00062        RNDCON             OCT      00062                                 #  .5 SEC
001635:


001637: 42,3314           04607        M/SOUT             TC       BANKCALL                              #  READ FRESH DATA FOR HI AND LO INTO MPAC,
001638: 42,3315           60776                           CADR     READLO                                #  MPAC+1.
001639: 42,3316           07300                           TC       TPAGREE                               #  MAKE DP DATA AGREE
001640: 42,3317           10154                           CCS      MPAC                                  #  IF MAG OF (MPAC, MPAC+1) G/ 59 M 59 S.
001641: 42,3320           03322                           TC       +2                                    #  DISPLAY 59B59, WITH PROPER SIGN.
001642: 42,3321           03353                           TC       M/SNORM                               #  MPAC = +0. L/ 59M58.5S
001643: 42,3322           63410                           AD       M/SCON1                               #  - HI PART OF (59M58.5S) +1  FOR CCS
001644: 42,3323           10000                           CCS      A                                     #  MAG OF MPAC - HI PART OF (59M58.5S)
001645: 42,3324           03337                           TC       M/SLIMIT                              #  G/ 59M58.5S
001646: 42,3325           03353                           TC       M/SNORM                               #  ORIGINAL MPAC = -0. L/ 59M58.5S
001647: 42,3326           03353                           TC       M/SNORM                               #  L/ 59M58.5S
001648: 42,3327           10155                           CCS      MPAC       +1                         #  MAG OF MPAC = HI PART OF 59M58.5S
001649: 42,3330           03332                           TC       +2
001650: 42,3331           03353                           TC       M/SNORM                               #  MPAC+1 = +0. L/ 59M58.5S
001651: 42,3332           63411                           AD       M/SCON2                               #  - LO PART OF (59M58.5S) +1  FOR CCS
001652: 42,3333           10000                           CCS      A                                     #  MAG OF MPAC+1 - LO PART OF (59M58.5S)
001653: 42,3334           03337                           TC       M/SLIMIT                              #  G/ 59M58.5S
001654: 42,3335           03353                           TC       M/SNORM                               #  ORIGINAL MPAC+1 = -0. L/ 59M58.5S
001655: 42,3336           03353                           TC       M/SNORM                               #  L/ 59M58.5S
001656: 42,3337           10154        M/SLIMIT           CCS      MPAC                                  #  = 59M58.5S    LIMIT
001657: 42,3340           33413                           CAF      M/SCON3                               #  MPAC CANNOT BE +/- 0 AT THIS POINT.
001658: 42,3341           03350                           TC       +LIMIT                                #  FORCE MPAC, MPAC+1 TO +/- 59M59.5S
001659: 42,3342           43413                           CS       M/SCON3
001660: 42,3343           54154                           TS       MPAC                                  #  WILL DISPLAY 59M59S IN DSPDECNR
001661: 42,3344           43414                           CS       M/SCON3    +1
001662: 42,3345           54155        LIMITCOM           TS       MPAC       +1
001663: 42,3346           33412                           CAF      NORMADR                               #  SET RETURN TO M/SNORM+1.
001664: 42,3347           03431                           TC       SEPSECNR   +1
001665: 42,3350           54154        +LIMIT             TS       MPAC
001666: 42,3351           33414                           CAF      M/SCON3    +1
001667: 42,3352           03345                           TC       LIMITCOM
001668: 42,3353           03415        M/SNORM            TC       SEPSEC                                #  LEAVE FRACT SEC/60 IN MPAC,MPAC+1. LEAVE
001669:                                                                                                  #  WHOLE MIN IN BIT13 OF LOTEMOUT AND ABOVE
001670: 42,3354           33406                           CAF      HISECON                               #  USE ONLY FRACT SEC/60 MOD 60
001671: 42,3355           07330                           TC       SHORTMP                               #  MULT BY .6 + 2EXP-14
001672: 42,3356           46266                           CS       THREE                                 #  GIVES SEC/100 MOD 60
001673: 42,3357           26776                           ADS      DSPCOUNT                              #  DSPCOUNT ALREADY SET TO RXD1
001674: 42,3360           04607                           TC       BANKCALL                              #  DISPLAY SEC MOD 60 IN D4D5.
001675: 42,3361           61315                           CADR     DSPDC2NR
001676: 42,3362           34746                           CAF      ZERO
001677: 42,3363           54124                           TS       CODE
001678: 42,3364           44743                           CS       TWO
001679: 42,3365           50117                           INDEX    DECOUNT
001680: 42,3366           64310                           AD       R1D1                                  #  RXD3
001681: 42,3367           54143                           TS       COUNT
001682: 42,3370           04607                           TC       BANKCALL                              #  BLANK MIDDLE CHAR
001683: 42,3371           61351                           CADR     DSPIN
001684: 42,3372           03446                           TC       SEPMIN                                #  REMOVE REST OF SECONDS
001685: 42,3373           56155                           XCH      MPAC       +1                         #  LEAVE FRACT MIN/60 IN MPAC+1
001686: 42,3374           00006                           EXTEND                                         #  USE ONLY FRACT MIN/60 MOD 60


001688: 42,3375           73407                           MP       HIMINCON                              #  MULT BY .6 + 2EXP-7
001689: 42,3376           52155                           DXCH     MPAC                                  #  GIVES MIN/100 MOD 60
001690: 42,3377           50117                           INDEX    DECOUNT
001691: 42,3400           34310                           CAF      R1D1                                  #  RXD1
001692: 42,3401           54776                           TS       DSPCOUNT
001693: 42,3402           04607                           TC       BANKCALL                              #  DISPLAY MIN MOD 60 IN D1D2.
001694: 42,3403           61315                           CADR     DSPDC2NR
001695: 42,3404           04626                           TC       POSTJUMP
001696: 42,3405           62617                           CADR     DSPDCEND   +2
001697:
001698: 42,3406           23147        HISECON            OCT      23147                                 #  .6 + 2EXP-14
001699: 42,3407           23346        HIMINCON           OCT      23346                                 #  .6 + 2EXP-7
001700:
001701: 42,3410           77753        M/SCON1            OCT      77753                                 #  - HI PART OF (59M58.5S) +1
001702: 42,3411           41126        M/SCON2            OCT      41126                                 #  - LO PART OF (59M58.5S) +1
001703: 42,3412           03354        NORMADR            ADRES    M/SNORM    +1
001704: 42,3413           00025        M/SCON3            OCT      00025                                 #  59M 59.5S
001705: 42,3414           37016                           OCT      37016
001706:
001707:
001708: 42,3415           10155        SEPSEC             CCS      MPAC       +1                         #  IF +, ROUND BY ADDING .5 SEC
001709: 42,3416           13425                           TCF      POSEC                                 #  IF -, ROUND BY SUBTRACTING .5 SEC
001710: 42,3417           13425                           TCF      POSEC                                 #  FINDS TIME IN MPAC, MPAC+1
001711: 42,3420           13421                           TCF      +1                                    #  ROUNDS OFF BY +/- .5 SEC
001712: 42,3421           00006                           EXTEND                                         #  LEAVES WHOLE MIN IN BIT13 OF
001713: 42,3422           43313                           DCS      RNDCON     -1                         #  LOTEMOUT AND ABOVE.
001714: 42,3423           20155        SEPSEC1            DAS      MPAC                                  #  LEAVES FRACT SEC/60 IN MPAC, MPAC+1.
001715: 42,3424           13430                           TCF      SEPSECNR
001716: 42,3425           00006        POSEC              EXTEND
001717: 42,3426           33313                           DCA      RNDCON     -1
001718: 42,3427           13423                           TCF      SEPSEC1
001719: 42,3430           56002        SEPSECNR           XCH      Q                                     #  THIS ENTRY AVOIDS ROUNDING BY .5 SEC
001720: 42,3431           54144                           TS       SEPSCRET
001721: 42,3432           07124                           TC       DMP                                   #  MULT BY 2EXP12/6000
001722: 42,3433           03300                           ADRES    SECON1                                #  GIVES FRACT SEC/60 IN BIT12 OF MPAC+1
001723: 42,3434           00006                           EXTEND                                         #  AND BELOW.
001724: 42,3435           30155                           DCA      MPAC                                  #  SAVE MINUTES AND HOURS
001725: 42,3436           53007                           DXCH     HITEMOUT
001726: 42,3437           04375                           TC       TPSL1
001727: 42,3440           04375                           TC       TPSL1                                 #  GIVES FRACT SEC/60 IN MPAC+1, MPAC+2.
001728: 42,3441           34746                           CAF      ZERO
001729: 42,3442           56156                           XCH      MPAC       +2                         #  LEAVE FRACT SEC/60 IN MPAC, MPAC+1.
001730: 42,3443           56155                           XCH      MPAC       +1
001731: 42,3444           56154                           XCH      MPAC
001732: 42,3445           00144                           TC       SEPSCRET
001733:
001734:
001735: 42,3446           56002        SEPMIN             XCH      Q                                     #  FINDS WHOLE MINUTES IN BIT13
001736: 42,3447           54144                           TS       SEPMNRET                              #  OF LOTEMOUT AND ABOVE.
001737: 42,3450           31007                           CA       LOTEMOUT                              #  REMOVES REST OF SECONDS.


001739: 42,3451           00006                           EXTEND                                         #  LEAVES FRACT MIN/60 IN MPAC+1.
001740: 42,3452           74742                           MP       BIT3                                  #  LEAVES WHOLE HOURS IN MPAC.
001741: 42,3453           00006                           EXTEND                                         #  SR 12, THROW AWAY LP.
001742: 42,3454           74730                           MP       BIT13                                 #  SR 2, TAKE FROM LP. = SL 12.
001743: 42,3455           22155                           LXCH     MPAC       +1                         #  THIS FORCES BITS 12-1 TO 0 IF +,
001744:                                                                                                  #  FORCES BITS 12-1 TO 1 IF -.
001745: 42,3456           31006                           CA       HITEMOUT
001746: 42,3457           54154                           TS       MPAC
001747: 42,3460           07124                           TC       DMP                                   #  MULT BY 1/15
001748: 42,3461           03306                           ADRES    MINCON1                               #  GIVES FRACT MIN/60 IN MPAC+1.
001749: 42,3462           00144        ENDSPMIN           TC       SEPMNRET                              #  GIVES WHOLE HOURS IN MPAC.
001750:
001751:                                                                                                  #  THIS IS A SPECIAL PURPOSE VERB FOR DISPLAYING A DOUBLE PRECISION AGC
001752:                                                                                                  #  WORD AS 10 DECIMAL DIGITS ON THE AGC DISPLAY PANEL.  IT CAN BE USED WITH
001753:                                                                                                  #  ANY NOUN, EXCEPT MIXED NOUNS. IT DISPLAYS THE CONTENTS
001754:                                                                                                  #  OF THE REGISTER NOUNADD IS POINTING TO .  IF USED WITH NOUNS WHICH ARE
001755:                                                                                                  #  INHERENTLY NOT DP SUCH AS THE CDU COUNTERS THE DISPLAY WILL BE GARBAGE.
001756:                                                                                                  #  DISPLAY IS IN R1 AND R2 ONLY WITH THE SIGN IN R1.
001757:
001758:
001759: 40,3020                                           SETLOC   ENDRDLO    +1
001760:
001761: 40,3020                                           COUNT*   $$/PIN
001762: 40,3020           50140        DSPDPDEC           INDEX    MIXBR
001763: 40,3021           03021                           TC       +0
001764: 40,3022           03024                           TC       +2                                    #  NORMAL NOUN
001765: 40,3023           03447                           TC       DSPALARM
001766: 40,3024           00006                           EXTEND
001767: 40,3025           50145                           INDEX    NOUNADD
001768: 40,3026           30001                           DCA      0
001769: 40,3027           52155                           DXCH     MPAC
001770: 40,3030           34310                           CAF      R1D1
001771: 40,3031           54776                           TS       DSPCOUNT
001772: 40,3032           34746                           CAF      ZERO
001773: 40,3033           54156                           TS       MPAC       +2
001774: 40,3034           07300                           TC       TPAGREE
001775: 40,3035           03322                           TC       DSP2DEC
001776: 40,3036           00136        ENDDPDEC           TC       ENTEXIT
001777:


001779:                                                                                                  #  LOAD VERBS           IF ALARM CONDITION IS DETECTED DURING EXECUTE,
001780:                                                                                                  #  CHECK FAIL LIGHT IS TURNED ON AND ENDOFJOB. IF ALARM CONDITION IS
001781:                                                                                                  #  DETECTED DURING ENTER OF DATA, CHECK FAIL IS TURNED ON AND IT RECYCLES
001782:                                                                                                  #  TO EXECUTE  OF ORIGINAL LOAD VERB. RECYCLE CAUSED BY  1) DECIMAL MACHINE
001783:                                                                                                  #  CADR  2) MIXTURE OF OCTAL/DECIMAL DATA  3) OCTAL DATA INTO DECIMAL
001784:                                                                                                  #  ONLY NOUN  4) DEC DATA INTO OCT ONLY NOUN  5) DATA TOO LARGE FOR SCALE
001785:                                                                                                  #  6) FEWER THAN 3 DATA WORDS LOADED FOR HRS, MIN, SEC NOUN.8(2)-(6) ALARM
001786:                                                                                                  #  AND RECYCLE OCCUR AT FINAL ENTER OF SET. (1) ALARM AND RECYCLE OCCUR AT
001787:                                                                                                  #  ENTER OF CADR.
001788:
001789:
001790: 41,2647                                           SETLOC   ENDRTOUT
001791:
001792: 41,2647                                           COUNT*   $$/PIN
001793: 41,2647           44743        ABCLOAD            CS       TWO
001794: 41,2650           02453                           TC       COMPTEST
001795: 41,2651           02507                           TC       NOUNTEST                              #  TEST IF NOUN CAN BE LOADED.
001796: 41,2652           33056                           CAF      VBSP1LD
001797: 41,2653           02366                           TC       UPDATVB    -1
001798: 41,2654           02332                           TC       REQDATX
001799: 41,2655           33057                           CAF      VBSP2LD
001800: 41,2656           02366                           TC       UPDATVB    -1
001801: 41,2657           02334                           TC       REQDATY
001802: 41,2660           33060                           CAF      VBSP3LD
001803: 41,2661           02366                           TC       UPDATVB    -1
001804: 41,2662           02336                           TC       REQDATZ
001805:
001806:
001807: 41,2663           46263        PUTXYZ             CS       SIX                                   #  TEST THAT THE 3 DATA WORDS LOADED ARE
001808: 41,2664           03061                           TC       ALLDC/OC                              #  ALL DEC OR ALL OCT.
001809: 41,2665           00006                           EXTEND
001810: 41,2666           32141                           DCA      LODNNLOC                              #  SWITCH BANKS TO NOUN TABLE READING
001811: 41,2667           52006                           DXCH     Z                                     #  ROUTINE.
001812: 41,2670           34746                           CAF      ZERO                                  #  X COMP
001813: 41,2671           03145                           TC       PUTCOM
001814: 41,2672           50145                           INDEX    NOUNADD
001815: 41,2673           54000                           TS       0
001816: 41,2674           34744                           CAF      ONE                                   #  Y COMP
001817: 41,2675           03145                           TC       PUTCOM
001818: 41,2676           50145                           INDEX    NOUNADD
001819: 41,2677           54001                           TS       1
001820: 41,2700           34743                           CAF      TWO                                   #  Z COMP
001821: 41,2701           03145                           TC       PUTCOM
001822: 41,2702           50145                           INDEX    NOUNADD
001823: 41,2703           54002                           TS       2
001824: 41,2704           44750                           CS       SEVEN                                 #  IF NOUN 7 HAS JUST BEEN LOADED, SET
001825: 41,2705           61001                           AD       NOUNREG                               #   FLAG BITS AS SPECIFIED.
001826: 41,2706           00006                           EXTEND
001827: 41,2707           12711                           BZF      +2
001828: 41,2710           03045                           TC       LOADLV


001830: 41,2711           00004                           INHINT
001831: 41,2712           44754                           CS       OCT30                                 #  IS IT A CHANNEL (30 OR UNDER)
001832: 41,2713           61002                           AD       XREG
001833: 41,2714           00006                           EXTEND
001834: 41,2715           62725                           BZMF     CHANBITS                              #  YES
001835:
001836: 41,2716           31002                           CA       XREG                                  #  ECADR OF ERASABLE CELL
001837: 41,2717           04275                           TC       SETNCADR   +1                         #  SET EBANK, NOUNADD
001838:
001839: 41,2720           50145                           INDEX    NOUNADD
001840: 41,2721           30000                           CA       0
001841: 41,2722           54001                           TS       L
001842: 41,2723           34744                           CAF      ONE
001843: 41,2724           55002                           TS       XREG                                  #  MAKE IT LOOK LIKE A CHANNEL FOR A WHILE
001844:
001845: 41,2725           64352        CHANBITS           AD       OCT21
001846: 41,2726           00006                           EXTEND
001847: 41,2727           12751                           BZF      BITSOFF2                              #  DONT TOUCH CHAN7 (SUPERBANK)
001848:
001849: 41,2730           31004                           CA       ZREG
001850: 41,2731           00006                           EXTEND
001851: 41,2732           62740                           BZMF     BITSOFF                               #  R3 IS ZERO FOR OFF, NONZERO FOR ON
001852:
001853: 41,2733           31003                           CA       YREG
001854: 41,2734           00006                           EXTEND
001855: 41,2735           51002                           INDEX    XREG
001856: 41,2736           05000                           WOR      0
001857: 41,2737           12744                           TCF      BITSOFF1
001858:
001859: 41,2740           41003        BITSOFF            CS       YREG
001860: 41,2741           00006                           EXTEND
001861: 41,2742           51002                           INDEX    XREG
001862: 41,2743           03000                           WAND     0
001863:
001864: 41,2744           11002        BITSOFF1           CCS      XREG                                  #  WAS IT REALLY A CHANNEL
001865: 41,2745           10000                           CCS      A
001866: 41,2746           12751                           TCF      BITSOFF2                              #  YES
001867:
001868: 41,2747           50145                           INDEX    NOUNADD
001869: 41,2750           22000                           LXCH     0
001870:
001871: 41,2751           00003        BITSOFF2           RELINT
001872: 41,2752           03045                           TC       LOADLV
001873:
001874: 41,2753     4754               OCT30              =        BITS4&5
001875: 41,2753           44744        ABLOAD             CS       ONE
001876: 41,2754           02453                           TC       COMPTEST
001877: 41,2755           02507                           TC       NOUNTEST                              #  TEST IF NOUN CAN BE LOADED.
001878: 41,2756           33056                           CAF      VBSP1LD
001879: 41,2757           02366                           TC       UPDATVB    -1


001881: 41,2760           02332                           TC       REQDATX
001882: 41,2761           33057                           CAF      VBSP2LD
001883: 41,2762           02366                           TC       UPDATVB    -1
001884: 41,2763           02334                           TC       REQDATY
001885: 41,2764           44747        PUTXY              CS       FIVE                                  #  TEST THAT THE 2 DATA WORDS LOADED ARE
001886: 41,2765           03061                           TC       ALLDC/OC                              #  ALL DEC OR ALL OCT.
001887: 41,2766           00006                           EXTEND
001888: 41,2767           32141                           DCA      LODNNLOC                              #  SWITCH BANKS TO NOUN TABLE READING
001889: 41,2770           52006                           DXCH     Z                                     #  ROUTINE.
001890: 41,2771           34746                           CAF      ZERO                                  #  X COMP
001891: 41,2772           03145                           TC       PUTCOM
001892: 41,2773           50145                           INDEX    NOUNADD
001893: 41,2774           54000                           TS       0
001894: 41,2775           34744                           CAF      ONE                                   #  Y COMP
001895: 41,2776           03145                           TC       PUTCOM
001896: 41,2777           50145                           INDEX    NOUNADD
001897: 41,3000           54001                           TS       1
001898: 41,3001           03045                           TC       LOADLV
001899:
001900: 41,3002           02332        ALOAD              TC       REQDATX
001901: 41,3003           00006                           EXTEND
001902: 41,3004           32141                           DCA      LODNNLOC                              #  SWITCH BANKS TO NOUN TABLE READING
001903: 41,3005           52006                           DXCH     Z                                     #  ROUTINE.
001904: 41,3006           34746                           CAF      ZERO                                  #  X COMP
001905: 41,3007           03145                           TC       PUTCOM
001906: 41,3010           50145                           INDEX    NOUNADD
001907: 41,3011           54000                           TS       0
001908: 41,3012           03045                           TC       LOADLV
001909:
001910: 41,3013           44744        BLOAD              CS       ONE
001911: 41,3014           02453                           TC       COMPTEST
001912: 41,3015           34726                           CAF      BIT15                                 #  SET CLPASS FOR PASS0 ONLY
001913: 41,3016           55014                           TS       CLPASS
001914: 41,3017           02334                           TC       REQDATY
001915: 41,3020           00006                           EXTEND
001916: 41,3021           32141                           DCA      LODNNLOC                              #  SWITCH BANKS TO NOUN TABLE READING
001917: 41,3022           52006                           DXCH     Z                                     #  ROUTINE.
001918: 41,3023           34744                           CAF      ONE
001919: 41,3024           03145                           TC       PUTCOM
001920: 41,3025           50145                           INDEX    NOUNADD
001921: 41,3026           54001                           TS       1
001922: 41,3027           03045                           TC       LOADLV
001923:
001924: 41,3030           44743        CLOAD              CS       TWO
001925: 41,3031           02453                           TC       COMPTEST
001926: 41,3032           34726                           CAF      BIT15                                 #  SET CLPASS FOR PASS0 ONLY
001927: 41,3033           55014                           TS       CLPASS
001928: 41,3034           02336                           TC       REQDATZ
001929: 41,3035           00006                           EXTEND
001930: 41,3036           32141                           DCA      LODNNLOC                              #  SWITCH BANKS TO NOUN TABLE READING


001932: 41,3037           52006                           DXCH     Z                                     #  ROUTINE.
001933: 41,3040           34743                           CAF      TWO
001934: 41,3041           03145                           TC       PUTCOM
001935: 41,3042           50145                           INDEX    NOUNADD
001936: 41,3043           54002                           TS       2
001937: 41,3044           03045                           TC       LOADLV
001938:
001939: 41,3045           34746        LOADLV             CAF      ZERO
001940: 41,3046           54777                           TS       DECBRNCH
001941: 41,3047           44746                           CS       ZERO
001942: 41,3050           55013                           TS       LOADSTAT
001943: 41,3051           04450                           TC       RELDSP                                #  RELEASE FOR PRIORITY DISPLAY PROBLEM.
001944: 41,3052           44351                           CS       VD1                                   #  TO BLOCK NUMERICAL CHARACTERS AND
001945: 41,3053           54776                           TS       DSPCOUNT                              #  CLEARS AFTER A COMPLETED LOAD
001946: 41,3054           04626                           TC       POSTJUMP                              #  AFTER COMPLETED LOAD, GO TO RECALTST
001947: 41,3055           61605                           CADR     RECALTST                              #  TO SEE IF THERE IS RECALL FROM ENDIDLE.
001948:
001949: 41,3056     4352               OCT21              EQUALS   ND1
001950:
001951:
001952: 41,3056           00025        VBSP1LD            DEC      21         B-14                       #  VB21 = ALOAD
001953: 41,3057           00026        VBSP2LD            DEC      22         B-14                       #  VB22 = BLOAD
001954: 41,3060           00027        VBSP3LD            DEC      23         B-14                       #  VB23 = CLOAD
001955:
001956:
001957: 41,3061           54117        ALLDC/OC           TS       DECOUNT                               #  TESTS THAT DATA WORDS LOADED ARE EITHER
001958: 41,3062           40777                           CS       DECBRNCH                              #  ALL DEC OR ALL OCT. ALARMS IF NOT.
001959: 41,3063           54021                           TS       SR
001960: 41,3064           40021                           CS       SR
001961: 41,3065           40021                           CS       SR                                    #  SHIFTED RIGHT 2
001962: 41,3066           10000                           CCS      A                                     #  DEC COMP BITS IN LOW 3
001963: 41,3067           13071                           TCF      +2                                    #  SOME ONES IN LOW 3
001964: 41,3070           00002                           TC       Q                                     #  ALL ZEROS. ALL OCTAL.  OK
001965: 41,3071           60117                           AD       DECOUNT                               #  DEC COMP = 7 FOR 3COMP, =6 FOR 2COMP
001966: 41,3072           00006                           EXTEND                                         #  (BUT IT HAS BEEN DECREMENTED BY CCS)
001967: 41,3073           13075                           BZF      +2                                    #  MUST MATCH 6 FOR 3COMP, 5 FOR 2COMP.
001968: 41,3074           06020                           TC       ALMCYCLE                              #  ALARM AND RECYCLE.
001969: 41,3075           00002        GOQ                TC       Q                                     #  ALL REQUIRED ARE DEC. OK
001970:
001971:
001972: 41,3076           56002        SFRUTNOR           XCH      Q                                     #  GETS SF ROUTINE NUMBER FOR NORMAL CASE
001973: 41,3077           54114                           TS       EXITEM                                #  CANT USE L FOR RETURN. TSTFORDP USES L.
001974: 41,3100           34340                           CAF      MID5
001975: 41,3101           70147                           MASK     NNTYPTEM
001976: 41,3102           04313                           TC       RIGHT5
001977: 41,3103           00114                           TC       EXITEM                                #  SF ROUTINE NUMBER IN A
001978:
001979: 41,3104           56002        SFRUTMIX           XCH      Q                                     #  GETS SF ROUTINE NUMBER FOR MIXED CASE
001980: 41,3105           54114                           TS       EXITEM
001981: 41,3106           50117                           INDEX    DECOUNT


001983: 41,3107           33136                           CAF      DISPLACE                              #  PUT TC GOQ, TC RIGHT5, OR TC LEFT5 IN L
001984: 41,3110           54001                           TS       L
001985: 41,3111           50117                           INDEX    DECOUNT
001986: 41,3112           34337                           CAF      LOW5                                  #  LOW5, MID5, OR HI5 IN A
001987: 41,3113           70153                           MASK     RUTMXTEM                              #  GET HI5, MID5, OR LOW5 OF RUTMXTAB ENTRY
001988: 41,3114           50001                           INDEX    L
001989: 41,3115           00000                           TC       0
001990:                                                                                                  #  DO TC GOQ(DECOUNT=0), DO TC RIGHT5(DECOUNT=1), DO TC LEFT5(DECOUNT=2).
001991: 41,3116           00114        SFRET1             TC       EXITEM                                #  SF ROUTINE NUMBER IN A
001992:
001993: 41,3117           56002        SFCONUM            XCH      Q                                     #  GETS 2X( SF CONSTANT NUMBER)
001994: 41,3120           54114                           TS       EXITEM
001995: 41,3121           50140                           INDEX    MIXBR
001996: 41,3122           03122                           TC       +0
001997: 41,3123           03141                           TC       CONUMNOR                              #  NORMAL NOUN
001998: 41,3124           50117                           INDEX    DECOUNT                               #  MIXED NOUN
001999: 41,3125           33136                           CAF      DISPLACE
002000: 41,3126           54001                           TS       L                                     #  PUT TC GOQ, TC RIGHT5, OR TC LEFT5 IN L
002001: 41,3127           50117                           INDEX    DECOUNT
002002: 41,3130           34337                           CAF      LOW5
002003: 41,3131           70147                           MASK     NNTYPTEM
002004: 41,3132           50001                           INDEX    L
002005: 41,3133           00000                           TC       0
002006:                                                                                                  #  DO TC GOQ(DECOUNT=0), DO TC RIGHT5(DECOUNT=1), DO TC LEFT5(DECOUNT=2).
002007: 41,3134           60000        SFRET              DOUBLE                                         #  2X(SF CONSTANT NUMBER ) IN A
002008: 41,3135           00114                           TC       EXITEM
002009:
002010: 41,3136           03075        DISPLACE           TC       GOQ
002011: 41,3137           04313                           TC       RIGHT5
002012: 41,3140           04322                           TC       LEFT5
002013:
002014: 41,3141           34337        CONUMNOR           CAF      LOW5                                  #  NORMAL NOUN ALWAYS GETS LOW 5 OF
002015: 41,3142           70147                           MASK     NNTYPTEM                              #  NNTYPTAB FOR SF CONUM.
002016: 41,3143           60000                           DOUBLE
002017: 41,3144           00114                           TC       EXITEM                                #  2X( SF CONSTANT NUMBER) IN A
002018:
002019:
002020: 41,3145           54117        PUTCOM             TS       DECOUNT
002021: 41,3146           56002                           XCH      Q
002022: 41,3147           54115                           TS       DECRET
002023: 41,3150           34746                           CAF      ZERO
002024: 41,3151           54162                           TS       MPAC+6
002025: 41,3152           50117                           INDEX    DECOUNT
002026: 41,3153           57005                           XCH      XREGLP
002027: 41,3154           54155                           TS       MPAC       +1
002028: 41,3155           50117                           INDEX    DECOUNT
002029: 41,3156           57002                           XCH      XREG
002030: 41,3157           54154                           TS       MPAC
002031: 41,3160           50140                           INDEX    MIXBR
002032: 41,3161           03161                           TC       +0


002034: 41,3162           03207                           TC       PUTNORM                               #  NORMAL NOUN
002035:                                                                                                  #  IF MIXNOUN, PLACE ADDRESS FOR COMPONENT K INTO NOUNADD, SET EBANK BITS.
002036: 41,3163           50117                           INDEX    DECOUNT                               #  GET IDADDTAB ENTRY FOR COMPONENT K
002037: 41,3164           30150                           CA       IDAD1TEM                              #          OF NOUN.
002038: 41,3165           74347                           MASK     LOW11                                 #  (ECADR)SUBK FOR CURRENT COMP OF NOUN
002039: 41,3166           04274                           TC       SETNCADR                              #  ECADR INTO NOUNCADR. SETS EB, NOUNADD.
002040: 41,3167           00006                           EXTEND                                         #  C(NOUNADD) IN A UPON RETURN
002041: 41,3170           60117                           SU       DECOUNT                               #  PLACE (ESUBK)-K INTO NOUNADD
002042: 41,3171           54145                           TS       NOUNADD
002043: 41,3172           10777                           CCS      DECBRNCH
002044: 41,3173           03244                           TC       PUTDECSF                              #  +  DEC
002045: 41,3174           02501                           TC       DCTSTCYC                              #  +0 OCTAL
002046: 41,3175           03104                           TC       SFRUTMIX                              #  TEST IF DEC ONLY BIT = 1. IF SO,
002047: 41,3176           02306                           TC       DPTEST                                #  ALARM AND RECYCLE. IF NOT, CONTINUE.
002048: 41,3177           03225                           TC       PUTCOM2                               #  NO DP
002049:                                                                                                  #  TEST FOR DP SCALE FOR OCT LOAD. IF SO,
002050:                                                                                                  #  +0 INTO MAJOR PART. SET NOUNADD FOR
002051:                                                                                                  #  LOADING OCTAL WORD INTO MINOR PART.
002052: 41,3200           24145        PUTDPCOM           INCR     NOUNADD                               #  DP  (ESUBK)-K+1  OR  E+1
002053: 41,3201           30145                           CA       NOUNADD                               #  NOUNADD NOW SET FOR MINOR PART
002054: 41,3202           26117                           ADS      DECOUNT                               #  (ESUBK)+1  OR  E+1  INTO DECOUNT
002055: 41,3203           34746                           CAF      ZERO                                  #  NOUNADD SET FOR MINOR PART
002056: 41,3204           50117                           INDEX    DECOUNT
002057: 41,3205           53777                           TS       0          -1                         #  ZERO MAJOR PART(ESUBK OR E)
002058: 41,3206           03225                           TC       PUTCOM2
002059:
002060: 41,3207           04302        PUTNORM            TC       SETNADD                               #  ECADR FROM NOUNCADR. SETS EB, NOUNADD.
002061: 41,3210           10777                           CCS      DECBRNCH
002062: 41,3211           03244                           TC       PUTDECSF                              #  +  DEC
002063: 41,3212           02501                           TC       DCTSTCYC                              #  +0 OCTAL
002064: 41,3213           03076                           TC       SFRUTNOR                              #  TEST IF DEC ONLY BIT = 1.  IF SO,
002065: 41,3214           02306                           TC       DPTEST                                #  ALARM AND RECYCLE. IF NOT, CONTINUE.
002066: 41,3215           03221                           TC       PUTCOM2    -4                         #  NO DP
002067: 41,3216           34746                           CAF      ZERO                                  #  DP
002068: 41,3217           54117                           TS       DECOUNT
002069: 41,3220           03200                           TC       PUTDPCOM
002070:
002071: 41,3221           30146                           CA       NNADTEM
002072: 41,3222           64744                           AD       ONE                                   #  IF NNADTEM = -1, CHANNEL TO BE SPECIFIED
002073: 41,3223           00006                           EXTEND
002074: 41,3224           13231                           BZF      CHANLOAD
002075: 41,3225           56154        PUTCOM2            XCH      MPAC
002076: 41,3226           00115                           TC       DECRET
002077:
002078: 41,3227     0776                                  EBANK=   DSPCOUNT
002079: 41,3227           02154 64101  GTSFINLC           2CADR    GTSFIN
002080:
002081:
002082:
002083: 41,3231           44750        CHANLOAD           CS       SEVEN                                 #  DONT LOAD CHAN 7. (IT = SUPERBANK).


002085: 41,3232           61016                           AD       NOUNCADR
002086: 41,3233           00006                           EXTEND
002087: 41,3234           13045                           BZF      LOADLV
002088: 41,3235           31016                           CA       NOUNCADR
002089: 41,3236           74775                           MASK     LOW9
002090: 41,3237           56154                           XCH      MPAC
002091: 41,3240           00006                           EXTEND
002092: 41,3241           50154                           INDEX    MPAC
002093: 41,3242           01000                           WRITE    0
002094: 41,3243           03045                           TC       LOADLV
002095:
002096:
002097:                                                                                                  #  PUTDECSF FINDS MIXBR AND DECOUNT STILL SET FROM PUTCOM
002098:
002099: 41,3244           03117        PUTDECSF           TC       SFCONUM                               #  2X(SF CON NUMB) IN A
002100: 41,3245           54123                           TS       SFTEMP1
002101: 41,3246           00006                           EXTEND                                         #  SWITCH BANKS TO SF CONSTANT TABLE
002102: 41,3247           33230                           DCA      GTSFINLC                              #  READING ROUTINE.
002103: 41,3250           52006                           DXCH     Z                                     #  LOADS SFTEMP1, SFTEMP2.
002104: 41,3251           50140                           INDEX    MIXBR
002105: 41,3252           03252                           TC       +0
002106: 41,3253           03256                           TC       PUTSFNOR
002107: 41,3254           03104                           TC       SFRUTMIX
002108: 41,3255           03257                           TC       PUTDCSF2
002109: 41,3256           03076        PUTSFNOR           TC       SFRUTNOR
002110:
002111: 41,3257           50000        PUTDCSF2           INDEX    A
002112: 41,3260           33262                           CAF      SFINTABR
002113: 41,3261           04631                           TC       BANKJUMP                              #  SWITCH BANKS FOR EXPANSHION ROOM
002114: 41,3262           62377        SFINTABR           CADR     GOALMCYC                              #  ALARM AND RECYCLE IF DEC LOAD
002115:                                                                                                  #  WITH OCTAL ONLY NOUN.
002116: 41,3263           61135                           CADR     BINROUND
002117: 41,3264           61037                           CADR     DEGINSF
002118: 41,3265           61125                           CADR     ARTHINSF
002119: 41,3266           61143                           CADR     DPINSF
002120: 41,3267           61170                           CADR     DPINSF2
002121: 41,3270           61447                           CADR     DSPALARM                              #  LRPOSOUT CANT BE LOADED.
002122: 41,3271           61143                           CADR     DPINSF                                #  SAME AS ARITHDP1
002123: 41,3272           65463                           CADR     HMSIN
002124: 41,3273           61447                           CADR     DSPALARM                              #  MIN/SEC CANT BE LOADED.
002125: 41,3274           61175                           CADR     DPINSF4
002126: 41,3275           61140                           CADR     ARTIN1SF
002127: 41,3276           61447                           CADR     DSPALARM                              #  2INTOUT CANT BE LOADED.
002128: 41,3277           61037                           CADR     DEGINSF                               #  TESTS AT END FOR 360-CDU
002129: 41,3300           61447                           CADR     DSPALARM                              #  RRANGOUT CANT BE LOADED.
002130: 41,3301           61447                           CADR     DSPALARM                              #  RRDOTOUT CANT BE LOADED.
002131: 41,3302                        ENDRUTIN           EQUALS
002132:
002133:                                                                                                  #  SCALE FACTORS FOR THOSE ROUTINES NEEDING THEM ARE AVAILABLE IN SFTEMP1.


002135:                                                                                                  #  ALL SFIN ROUTINES USE MPAC MPAC+1. LEAVE RESULT IN A. END WITH TC DECRET
002136:
002137:
002138: 40,3037                                           SETLOC   ENDDPDEC   +1
002139:
002140: 40,3037                                           COUNT*   $$/PIN
002141:                                                                                                  #  DEGINSF APPLIES 1000/180 = 5.55555(10) = 5.43434(8)
002142:
002143: 40,3037           07124        DEGINSF            TC       DMP                                   #  SF ROUTINE FOR DEC DEGREES
002144: 40,3040           03123                           ADRES    DEGCON1                               #  MULT BY 5.5  5(10)X2EXP-3
002145: 40,3041           10155                           CCS      MPAC       +1                         #  THIS ROUNDS OFF MPAC+1 BEFORE SHIFT
002146: 40,3042           34732                           CAF      BIT11                                 #  LEFT 3, AND CAUSES 360.00 TO OF/UF
002147: 40,3043           03045                           TC       +2                                    #  WHEN SHIFTED LEFT AND ALARM.
002148: 40,3044           44732                           CS       BIT11
002149: 40,3045           60155                           AD       MPAC       +1
002150: 40,3046           03214                           TC       2ROUND     +2
002151: 40,3047           04375                           TC       TPSL1                                 #  LEFT 1
002152: 40,3050           04375        DEGINSF2           TC       TPSL1                                 #  LEFT 2
002153: 40,3051           03223                           TC       TESTOFUF
002154: 40,3052           04375                           TC       TPSL1                                 #  RETURNS IF NO OF/UF (LEFT3)
002155: 40,3053           10154                           CCS      MPAC
002156: 40,3054           03060                           TC       SIGNFIX                               #  IF+, GO TO SIGNFIX
002157: 40,3055           03060                           TC       SIGNFIX                               #  IF +0, GO TO SIGNFIX
002158: 40,3056           40000                           COM                                            #  IF - , USE -MAGNITUDE +1
002159: 40,3057           54154                           TS       MPAC                                  #  IF -0, USE +0
002160: 40,3060           10162        SIGNFIX            CCS      MPAC+6
002161: 40,3061           03117                           TC       SGNTO1                                #  IF OVERFLOW
002162: 40,3062           03072                           TC       ENDSCALE                              #  NO OVERFLOW/UNDERFLOW
002163: 40,3063           10154                           CCS      MPAC                                  #  IF UF FORCE SIGN TO 0 EXCEPT -180
002164: 40,3064           05701                           TC       CCSHOLE
002165: 40,3065           03115                           TC       NEG180
002166: 40,3066           03067                           TC       +1
002167: 40,3067           56154                           XCH      MPAC
002168: 40,3070           74724                           MASK     POSMAX
002169: 40,3071           54154                           TS       MPAC
002170: 40,3072           50140        ENDSCALE           INDEX    MIXBR                                 #  IF ROUTINE NO. IS NOT CDU DEGREES,
002171: 40,3073           03073                           TC       +0                                    #   THEN THIS IS 360 - CDU DEGREES
002172: 40,3074           03077                           TC       +3                                    #   AND ANGLE IN MPAC MUST BE REPLACED
002173: 40,3075           03107                           TC       SFMIXCAL                              #   BY 360 DEGREES MINUS ITSELF.
002174: 40,3076           03100        MIXBACK            TC       +2
002175: 40,3077           03112                           TC       SFNORCAL
002176: 40,3100           40000        NORBACK            CS       A
002177: 40,3101           64743                           AD       BIT2
002178: 40,3102           00006                           EXTEND
002179: 40,3103           13105                           BZF      +2
002180: 40,3104           02614                           TC       360-CDU
002181: 40,3105           04626        ENDSCAL1           TC       POSTJUMP
002182: 40,3106           63225                           CADR     PUTCOM2
002183:
002184: 40,3107           04607        SFMIXCAL           TC       BANKCALL


002186: 40,3110           63104                           CADR     SFRUTMIX
002187: 40,3111           03076                           TC       MIXBACK
002188:
002189: 40,3112           04607        SFNORCAL           TC       BANKCALL
002190: 40,3113           63076                           CADR     SFRUTNOR
002191: 40,3114           03100                           TC       NORBACK
002192:
002193: 40,3115           44724        NEG180             CS       POSMAX
002194: 40,3116           03071                           TC       ENDSCALE   -1
002195:
002196: 40,3117           40154        SGNTO1             CS       MPAC                                  #  IF OF FORCE SIGN TO 1
002197: 40,3120           74724                           MASK     POSMAX
002198: 40,3121           40000                           CS       A
002199: 40,3122           03071                           TC       ENDSCALE   -1
002200:
002201: 40,3123           26161 30707  DEGCON1            2DEC     5.555555555 B-3
002202:
002203:
002204: 40,3125           07124        ARTHINSF           TC       DMP                                   #  SCALES MPAC, +1 BY SFTEMP1, SFTEMP2.
002205: 40,3126           00123                           ADRES    SFTEMP1                               #  ASSUMES POINT BETWEEN HI AND LO PARTS
002206: 40,3127           56156                           XCH      MPAC       +2                         #  OF SFCON. SHIFTS RESULTS LEFT BY 14.
002207: 40,3130           56155                           XCH      MPAC       +1                         #  (BY TAKING RESULTS FROM MPAC+1, MPAC+2)
002208: 40,3131           56154                           XCH      MPAC
002209: 40,3132           00006                           EXTEND
002210: 40,3133           13135                           BZF      BINROUND
002211: 40,3134           06020                           TC       ALMCYCLE                              #  TOO LARGE A LOAD. ALARM AND RECYCLE.
002212: 40,3135           03212        BINROUND           TC       2ROUND
002213: 40,3136           03223                           TC       TESTOFUF
002214: 40,3137           03105                           TC       ENDSCAL1                              #  RETURNS IF NO OF/UF
002215:
002216: 40,3140           07124        ARTIN1SF           TC       DMP                                   #  SCALES MPAC, +1 BY SFTEMP1, SFTEMP2.
002217: 40,3141           00123                           ADRES    SFTEMP1                               #  ROUNDS MPAC+1 INTO MPAC.
002218: 40,3142           03135                           TC       BINROUND
002219:
002220:
002221: 40,3143           07124        DPINSF             TC       DMP                                   #  SCALES MPAC, MPAC +1 BY SFTEMP1,
002222: 40,3144           00123                           ADRES    SFTEMP1                               #  SFTEMP2.  STORES LOW PART OF RESULT
002223: 40,3145           56156                           XCH      MPAC       +2                         #  IN (E SUBK) +1 OR E+1
002224: 40,3146           60000                           DOUBLE
002225: 40,3147           54156                           TS       MPAC       +2
002226: 40,3150           34746                           CAF      ZERO
002227: 40,3151           60155                           AD       MPAC       +1
002228: 40,3152           03214                           TC       2ROUND     +2
002229: 40,3153           03223                           TC       TESTOFUF
002230: 40,3154           50140                           INDEX    MIXBR                                 #  RETURNS IF NO OF/UF
002231: 40,3155           03155                           TC       +0
002232: 40,3156           03166                           TC       DPINORM
002233: 40,3157           30117                           CA       DECOUNT                               #  MIXEDNOUN
002234: 40,3160           60145        DPINCOM            AD       NOUNADD                               #      MIXED               NORMAL
002235: 40,3161           54002                           TS       Q                                     #    E SUBK            E


002237: 40,3162           56155                           XCH      MPAC       +1
002238: 40,3163           50002                           INDEX    Q
002239: 40,3164           54001                           TS       1                                     #  PLACE LOW PART IN
002240: 40,3165           03105                           TC       ENDSCAL1                              #  (E SUBK) +1    MIXED
002241:
002242: 40,3166           34746        DPINORM            CAF      ZERO                                  #  E +1         NORMAL
002243: 40,3167           03160                           TC       DPINCOM
002244:
002245:
002246: 40,3170           07124        DPINSF2            TC       DMP                                   #  ASSUMES POINT BETWEEN BITS 7-8 OF HIGH
002247: 40,3171           00123                           ADRES    SFTEMP1                               #  PART OF SF CONST. DPINSF2 SHIFTS RESULTS
002248: 40,3172           36263                           CAF      SIX                                   #  LEFT BY 7, ROUNDS MPAC+2 INTO MPAC+1
002249: 40,3173           03202                           TC       TPLEFTN                               #  SHIFT LEFT 7.
002250: 40,3174           03145                           TC       DPINSF     +2
002251:
002252:
002253: 40,3175           07124        DPINSF4            TC       DMP                                   #  ASSUMES POINT BETWEEN BITS 11-12 OF HIGH
002254: 40,3176           00123                           ADRES    SFTEMP1                               #  PART OF SF CONST. DPINSF2 SHIFTS RESULTS
002255: 40,3177           34743                           CAF      TWO                                   #  LEFT BY 3, ROUNDS MPAC+2 INTO MPAC+1.
002256: 40,3200           03202                           TC       TPLEFTN                               #  SHIFT LEFT 3.
002257: 40,3201           03145                           TC       DPINSF     +2
002258:
002259:
002260: 40,3202           56002        TPLEFTN            XCH      Q                                     #  SHIFTS MPAC, +1, +2 LEFT N. SETS OVFIND
002261: 40,3203           54124                           TS       SFTEMP2                               #  TO +1 FOR OF, -1 FOR UF.
002262: 40,3204           56002                           XCH      Q                                     #  CALL WITH N-1 IN A.
002263: 40,3205           54123        LEFTNCOM           TS       SFTEMP1                               #      LOOP TIME .37 MSEC.
002264: 40,3206           04375                           TC       TPSL1
002265: 40,3207           10123                           CCS      SFTEMP1
002266: 40,3210           03205                           TC       LEFTNCOM
002267: 40,3211           00124                           TC       SFTEMP2
002268:
002269:
002270: 40,3212           56155        2ROUND             XCH      MPAC       +1
002271: 40,3213           60000                           DOUBLE
002272: 40,3214           54155                           TS       MPAC       +1
002273: 40,3215           00002                           TC       Q                                     #  IF MPAC+1 DOES NOT OF/UF
002274: 40,3216           60154                           AD       MPAC
002275: 40,3217           54154                           TS       MPAC
002276: 40,3220           00002                           TC       Q                                     #  IF MPAC DOES NOT OF/UF
002277: 40,3221           54162                           TS       MPAC+6
002278: 40,3222           00002        2RNDEND            TC       Q
002279:
002280:
002281: 40,3223           10162        TESTOFUF           CCS      MPAC+6                                #  RETURNS IF NO OF/UF
002282: 40,3224           06020                           TC       ALMCYCLE                              #  OF   ALARM AND RECYCLE.
002283: 40,3225           00002                           TC       Q
002284: 40,3226           06020                           TC       ALMCYCLE                              #  UF   ALARM AND RECYCLE.
002285:


002287: 42,3463                                           SETLOC   ENDSPMIN   +1
002288:
002289: 42,3463                                           COUNT*   $$/PIN
002290: 42,3463           03604        HMSIN              TC       ALL3DEC                               #  IF ALL 3 WORDS WERE NOT LOADED, ALARM.
002291: 42,3464           07124                           TC       DMP                                   #  XREG, XREGLP (=HOURS) WERE ALREADY PUT
002292: 42,3465           03545                           ADRES    WHOLECON                              #  INTO MPAC, MPAC+1.
002293: 42,3466           03554                           TC       RND/TST                               #  ROUND OFF TO WHOLE HRS IN MPAC+1.
002294: 42,3467           34746                           CAF      ZERO                                  #  ALARM IF MPAC NON ZERO (G/ 16383 ).
002295: 42,3470           54156                           TS       MPAC       +2
002296: 42,3471           33547                           CAF      HRCON
002297: 42,3472           54154                           TS       MPAC
002298: 42,3473           33550                           CAF      HRCON      +1
002299: 42,3474           56155                           XCH      MPAC       +1
002300: 42,3475           07330                           TC       SHORTMP
002301: 42,3476           03565                           TC       MPACTST                               #  ALARM IF MPAC NON ZERO (G/ 745)
002302: 42,3477           52156                           DXCH     MPAC       +1                         #  STORE HOURS CONTRIBUTION
002303: 42,3500           52124                           DXCH     HITEMIN
002304: 42,3501           31003                           CA       YREG                                  #  PUT YREG, YREGLP INTO MPAC, +1.
002305: 42,3502           23006                           LXCH     YREGLP
002306: 42,3503           52155                           DXCH     MPAC
002307: 42,3504           07124                           TC       DMP
002308: 42,3505           03545                           ADRES    WHOLECON
002309: 42,3506           03554                           TC       RND/TST                               #  ROUND OFF TO WHOLE MIN IN MPAC+1
002310: 42,3507           43552                           CS       59MIN                                 #  ALARM IF MPAC NON ZERO (G/16383)
002311: 42,3510           03572                           TC       SIZETST                               #  ALARM IF MPAC+1 G/ 59MIN
002312: 42,3511           56155                           XCH      MPAC       +1
002313: 42,3512           00006                           EXTEND
002314: 42,3513           73551                           MP       MINCON                                #  LEAVES MINUTES CONTRIBUTION IN A,L
002315: 42,3514           20124                           DAS      HITEMIN                               #  ADD IN MINUTES CONTRIBUTION
002316: 42,3515           00006                           EXTEND                                         #  IF THIS DAS OVERFLOWS, G/ 745HR,39MIN
002317: 42,3516           13520                           BZF      +2
002318: 42,3517           06020                           TC       ALMCYCLE
002319: 42,3520           31004                           CA       ZREG                                  #  PUT ZREG, ZREGLP INTO MPAC, +1.
002320: 42,3521           23007                           LXCH     ZREGLP
002321: 42,3522           52155                           DXCH     MPAC
002322: 42,3523           07124                           TC       DMP
002323: 42,3524           03545                           ADRES    WHOLECON
002324: 42,3525           03554                           TC       RND/TST                               #  ROUND OFF TO WHOLE CENTI-SEC IN MPAC+1
002325: 42,3526           43553                           CS       59.99SEC                              #  ALARM IF MPAC NON ZERO (G/163.83 SEC)
002326: 42,3527           03572                           TC       SIZETST                               #  ALARM IF MPAC+1 G/59.99 SEC
002327: 42,3530           52124                           DXCH     HITEMIN                               #  ADD IN SECONDS CONTRIBUTION
002328: 42,3531           20155                           DAS      MPAC                                  #  IF THIS DAS OVERFLOWS,
002329: 42,3532           00006                           EXTEND                                         #  G/ 745 HR, 39 MIN, 14.55 SEC.
002330: 42,3533           13535                           BZF      +2
002331: 42,3534           06020                           TC       ALMCYCLE                              #  ALARM AND RECYCLE
002332: 42,3535           34746                           CAF      ZERO
002333: 42,3536           54156                           TS       MPAC       +2
002334: 42,3537           07300                           TC       TPAGREE
002335: 42,3540           52155                           DXCH     MPAC
002336: 42,3541           50145                           INDEX    NOUNADD


002338: 42,3542           52001                           DXCH     0
002339: 42,3543           04626                           TC       POSTJUMP
002340: 42,3544           63045                           CADR     LOADLV
002341:
002342: 42,3545           00006        WHOLECON           OCT      00006                                 #  (10EXP5/2EXP14)2EXP14
002343: 42,3546           03240                           OCT      03240
002344: 42,3547           00025        HRCON              OCT      00025                                 #  1 HOUR IN CENTI-SEC
002345: 42,3550           37100                           OCT      37100
002346: 42,3551           13560        MINCON             OCT      13560                                 #  1 MINUTE IN CENTI-SEC
002347: 42,3552           00073        59MIN              OCT      00073                                 #  59 AS WHOLE
002348: 42,3553           13557        59.99SEC           OCT      13557                                 #  5999 CENTI-SEC
002349:
002350: 42,3554           56156        RND/TST            XCH      MPAC       +2                         #  ROUNDS MPAC+2 INTO MPAC+1.
002351: 42,3555           60000                           DOUBLE                                         #  ALARMS IF MPAC NOT 0
002352: 42,3556           54156                           TS       MPAC       +2
002353: 42,3557           34746                           CAF      ZERO
002354: 42,3560           60155                           AD       MPAC       +1
002355: 42,3561           54155                           TS       MPAC       +1
002356: 42,3562           34746                           CAF      ZERO
002357: 42,3563           60154                           AD       MPAC                                  #  CANT OVFLOW
002358: 42,3564           56154                           XCH      MPAC
002359: 42,3565           10154        MPACTST            CCS      MPAC                                  #  ALARM IF MPAC NON ZERO
002360: 42,3566           06020                           TC       ALMCYCLE                              #  ALARM AND RECYCLE.
002361: 42,3567           00002                           TC       Q
002362: 42,3570           06020                           TC       ALMCYCLE                              #  ALARM AND RECYCLE.
002363: 42,3571           00002                           TC       Q
002364:
002365: 42,3572           54156        SIZETST            TS       MPAC       +2                         #  CALLED WITH - CON IN A
002366: 42,3573           10155                           CCS      MPAC       +1                         #  GET MAG OF MPAC+1
002367: 42,3574           64744                           AD       ONE
002368: 42,3575           13577                           TCF      +2
002369: 42,3576           64744                           AD       ONE
002370: 42,3577           60156                           AD       MPAC       +2
002371: 42,3600           00006                           EXTEND                                         #  MAG OF MPAC+1 - CON
002372: 42,3601           63603                           BZMF     +2
002373: 42,3602           06020                           TC       ALMCYCLE                              #  MAG OF MPAC+1 G/ CON. ALARM AND RECYCLE.
002374: 42,3603           00002                           TC       Q                                     #  MAG OF MPAC+1 L/= CON
002375:
002376:
002377:                                                                                                  #  ALL3DEC TESTS THAT ALL 3 WORDS ARE LOADED IN DEC (FOR HMSIN).
002378:                                                                                                  #  ALARM IF NOT.( TEST THAT BITS 3,4,5 OF DECBRNCH ARE ALL = 1)
002379: 42,3604           43611        ALL3DEC            CS       OCT34BAR                              #  GET BITS 3,4,5 IN A
002380: 42,3605           70777                           MASK     DECBRNCH                              #  GET BITS 3,4,5 OF DECBRNCH IN A
002381: 42,3606           63611                           AD       OCT34BAR                              #  BITS 3,4,5 OF DECBRNCH MUST ALL = 1
002382: 42,3607           10000                           CCS      A
002383: 42,3610           03614                           TC       FORCEV25
002384: 42,3611           77743        OCT34BAR           OCT      77743
002385: 42,3612           03614                           TC       FORCEV25
002386: 42,3613           00002                           TC       Q
002387:


002389: 42,3614           46010        FORCEV25           CS       OCT31                                 #  FORCE VERB 25 TO BE EXECUTED BY RECYCLE
002390: 42,3615           55040                           TS       VERBSAVE                              #   IN CASE OPERATOR EXECUTED A LOWER LOAD
002391: 42,3616           06020                           TC       ALMCYCLE                              #   VERB.  ALARM AND RECYCLE.
002392: 42,3617                        ENDHMSS            EQUALS
002393:


002395:                                                                                                  #  MONITOR ALLOWS OTHER KEYBOARD ACTIVITY. IT IS ENDED BY VERB TERMINATE,
002396:                                                                                                  #  VERB PROCEED WITHOUT DATA, VERB RESEQUENCE,
002397:                                                                                                  #  ANOTHER MONITOR, OR ANY NVSUB CALL THAT PASSES THE DSPLOCK (PROVIDED
002398:                                                                                                  #  THAT THE OPERATOR HAS SOMEHOW ALLOWED THE ENDING OF A MONITOR WHICH
002399:                                                                                                  #  HE HAS INITIATED THROUGH THE KEYBOARD).
002400:
002401:                                                                                                  #  MONITOR ACTION IS SUSPENDED, BUT NOT ENDED, BY ANY KEYBOARD ACTION,
002402:                                                                                                  #  EXCEPT ERROR LIGHT RESET. IT BEGINS AGAIN WHEN KEY RELEASE IS PERFORMED.
002403:                                                                                                  #  MONITOR SAVES THE NOUN AND APPROPRIATE DISPLAY VERB IN MONSAVE. IT SAVES
002404:                                                                                                  #  NOUNCADR IN MONSAVE1, IF NOUN = MACHINE CADR TO BE SPECIFIED. BIT 15 OF
002405:                                                                                                  #  MONSAVE1 IS THE KILL MONITOR SIGNAL (KILLER BIT). BIT 14 OF MONSAVE1
002406:                                                                                                  #  INDICATES THE CURRENT MONITOR WAS EXTERNALLY INITIATED (EXTERNAL
002407:                                                                                                  #  MONITOR BIT). IT IS TURNED OFF BY RELDSP AND KILMONON.
002408:
002409:                                                                                                  #  MONSAVE INDICATES IF MONITOR IS ON(+=ON, +0=OFF)
002410:                                                                                                  #  IF MONSAVE IS +, MONITOR ENTERS NO REQUEST, BUT TURNS KILLER BIT OFF.
002411:                                                                                                  #  IF MONSAVE IS +0, MONITOR ENTERS REQUEST AND TURNS KILLER BIT OFF.
002412:
002413:                                                                                                  #  NVSUB (IF EXTERNAL MONITOR BIT IS OFF), VB=PROCEED WITHOUT DATA,
002414:                                                                                                  #  VB=RESEQUENCE, AND VB=TERMINATE TURN KILL MONITOR BIT ON.
002415:
002416:                                                                                                  #  IF KILLER BIT IS ON, MONREQ ENTERS NO FURTHER REQUESTS, ZEROS MONSAVE
002417:                                                                                                  #  AND MONSAVE1 (TURNING OFF KILLER BIT AND EXTERNAL MONITOR BIT).
002418:
002419:                                                                                                  #  MONITOR DOSENT TEST FOR MATBS SINCE NVSUB CAN HANDLE INTERNAL MATBS NOW
002420: 41,3302                                           SETLOC   ENDRUTIN
002421:
002422: 41,3302                                           COUNT*   $$/PIN
002423: 41,3302           43311        MONITOR            CS       BIT15/14
002424: 41,3303           71016                           MASK     NOUNCADR
002425: 41,3304           54155        MONIT1             TS       MPAC       +1                         #  TEMP STORAGE
002426: 41,3305           40136                           CS       ENTEXIT
002427: 41,3306           64210                           AD       ENDINST
002428: 41,3307           10000                           CCS      A
002429: 41,3310           03317                           TC       MONIT2
002430: 41,3311           60000        BIT15/14           OCT      60000
002431: 41,3312           03317                           TC       MONIT2
002432: 41,3313           34727                           CAF      BIT14                                 #  EXTERNALLY INITIATED MONITOR.
002433: 41,3314           26155                           ADS      MPAC       +1                         #  SET BIT 14 FOR MONSAVE1.
002434: 41,3315           34746                           CAF      ZERO
002435: 41,3316           55021                           TS       MONSAVE2                              #  ZERO NVMONOPT OPTIONS
002436: 41,3317           36115        MONIT2             CAF      LOW7
002437: 41,3320           71000                           MASK     VERBREG
002438: 41,3321           04322                           TC       LEFT5
002439: 41,3322           54022                           TS       CYL
002440: 41,3323           40022                           CS       CYL
002441: 41,3324           56022                           XCH      CYL
002442: 41,3325           61001                           AD       NOUNREG
002443: 41,3326           54154                           TS       MPAC                                  #  TEMP STORAGE
002444: 41,3327           34746                           CAF      ZERO


002446: 41,3330           55011                           TS       DSPLOCK                               #  +0 INTO DSPLOCK SO MONITOR CAN RUN.
002447: 41,3331           11041                           CCS      CADRSTOR                              #  TURN OFF KR LITE IF CADRSTOR AND DSPLIST
002448: 41,3332           03334                           TC       +2                                    #  ARE BOTH EMPTY. (LITE COMES ON IF NEW
002449: 41,3333           04473                           TC       RELDSP1                               #  MONITOR IS KEYED IN OVER OLD MONITOR.)
002450: 41,3334           00004                           INHINT
002451: 41,3335           11017                           CCS      MONSAVE
002452: 41,3336           03343                           TC       +5                                    #  IF MONSAVE WAS +, NO REQUEST
002453: 41,3337           34744                           CAF      ONE                                   #  IF MONSAVE WAS 0, REQUEST MONREQ
002454: 41,3340           05205                           TC       WAITLIST
002455: 41,3341     0776                                  EBANK=   DSPCOUNT
002456: 41,3341           03347 62101                     2CADR    MONREQ
002457:
002458: 41,3343           52155                           DXCH     MPAC                                  #  PLACE MONITOR VERB AND NOUN INTO MONSAVE
002459: 41,3344           53020                           DXCH     MONSAVE                               #  ZERO THE KILL MONITOR BIT
002460: 41,3345           00003                           RELINT                                         #  SET UP EXTERNAL MONITOR BIT
002461: 41,3346           00136                           TC       ENTRET
002462:
002463:
002464: 41,3347           04371        MONREQ             TC       LODSAMPT                              #  CALLED BY WAITLIST
002465: 41,3350           11020                           CCS      MONSAVE1                              #  TIME IS SNATCHED IN RUPT FOR NOUN 65
002466: 41,3351           03355                           TC       +4                                    #  IF KILLER BIT = 0, ENTER REQUESTS
002467: 41,3352           03355                           TC       +3                                    #  IF KILLER BIT = 0, ENTER REQUESTS
002468: 41,3353           03366                           TC       KILLMON                               #  IF KILLER BIT = 1, NO REQUESTS
002469: 41,3354           03366                           TC       KILLMON                               #  IF KILLER BIT = 1, NO REQUESTS
002470: 41,3355           33372                           CAF      MONDEL
002471: 41,3356           05205                           TC       WAITLIST                              #  ENTER WAITLIST REQUEST FOR MONREQ
002472: 41,3357     0776                                  EBANK=   DSPCOUNT
002473: 41,3357           03347 62101                     2CADR    MONREQ
002474:
002475: 41,3361           34346                           CAF      CHRPRIO
002476: 41,3362           05063                           TC       NOVAC                                 #  ENTER EXEC REQUEST FOR MONDO
002477: 41,3363     0776                                  EBANK=   DSPCOUNT
002478: 41,3363           03373 62101                     2CADR    MONDO
002479:
002480: 41,3365           05263                           TC       TASKOVER
002481:
002482: 41,3366           34746        KILLMON            CAF      ZERO                                  #  ZERO MONSAVE AND TURN KILLER BIT OFF
002483: 41,3367           55017                           TS       MONSAVE
002484: 41,3370           55020                           TS       MONSAVE1                              #  TURN OFF KILL MONITOR BIT.
002485: 41,3371           05263                           TC       TASKOVER                              #  TURN OFF EXTERNAL MONITOR BIT.
002486: 41,3372           00144        MONDEL             OCT      144                                   #  FOR 1 SEC MONITOR INTERVALS
002487:
002488:
002489: 41,3373           11020        MONDO              CCS      MONSAVE1                              #  CALLED BY EXEC
002490: 41,3374           03400                           TC       +4                                    #  IF KILLER BIT = 0, CONTINUE
002491: 41,3375           03400                           TC       +3                                    #  IF KILLER BIT = 0, CONTINUE
002492: 41,3376           05146                           TC       ENDOFJOB                              #  IN CASE TERMINATE CAME SINCE LAST MONREQ
002493: 41,3377           05146                           TC       ENDOFJOB                              #  IN CASE TERMINATE CAME SINCE LAST MONREQ
002494: 41,3400           11011                           CCS      DSPLOCK
002495: 41,3401           03423                           TC       MONBUSY                               #  NVSUB IS BUSY


002497: 41,3402           36115                           CAF      LOW7
002498: 41,3403           71017                           MASK     MONSAVE
002499: 41,3404           02346                           TC       UPDATNN    -1                         #  PLACE NOUN INTO NOUNREG AND DISPLAY IT
002500: 41,3405           34144                           CAF      MID7
002501: 41,3406           71017                           MASK     MONSAVE                               #  CHANGE MONITOR VERB TO DISPLAY VERB
002502: 41,3407           63421                           AD       MONREF                                #  -DEC10, STARTING IN BIT8
002503: 41,3410           54023                           TS       EDOP                                  #  RIGHT 7
002504: 41,3411           30023                           CA       EDOP
002505: 41,3412           55000                           TS       VERBREG
002506: 41,3413           33422                           CAF      MONBACK                               #  SET RETURN TO PASTEVB AFTER DATA DISPLAY
002507: 41,3414           54136                           TS       ENTRET
002508: 41,3415           43311                           CS       BIT15/14
002509: 41,3416           71020                           MASK     MONSAVE1                              #  PUT ECADR INTO MPAC +2. INTMCTBS WILL
002510: 41,3417           54156                           TS       MPAC       +2                         #  DISPLAY IT AND SET NOUNCADR, NOUNADD,
002511: 41,3420           02073        ENDMONDO           TC       TESTNN                                #  EBANK.
002512:
002513:    4124                                           BLOCK    2
002514:
002515:    4000                                           SETLOC   FFTAG8
002516:    4000                                           BANK
002517:
002518:    4124                                           COUNT*   $$/PIN
002519:    4124           34144        PASTEVB            CAF      MID7
002520:    4125           71021                           MASK     MONSAVE2                              #  NVMONOPT PASTE OPTION
002521:    4126           00006                           EXTEND
002522:    4127           14131                           BZF      +2
002523:    4130           04132                           TC       PASTEOPT                              #  PASTE PLEASE VERB FOR NVMONOPT
002524:    4131           31017                           CA       MONSAVE                               #  PASTE MONITOR VERB - PASTE OPTION IS 0
002525:    4132           54023        PASTEOPT           TS       EDOP                                  #  RIGHT 7
002526:    4133           30023                           CA       EDOP                                  #  PLACE MONITOR VERB OR PLEASE VERB INTO
002527:    4134           04607                           TC       BANKCALL                              #   VERBREG AND DISPLAY IT.
002528:    4135           62366                           CADR     UPDATVB    -1
002529:    4136           34746                           CAF      ZERO                                  #  ZERO REQRET SO THAT PASTED VERBS CAN
002530:    4137           55012                           TS       REQRET                                #   BE EXECUTED BY OPERATOR.
002531:    4140           31021                           CA       MONSAVE2
002532:    4141           04246                           TC       BLANKSUB                              #  PROCESS NVMONOPT BLANK OPTION IF ANY
002533:    4142           04143                           TC       +1
002534:    4143           05146        ENDPASTE           TC       ENDOFJOB
002535:
002536:    4144           37600        MID7               OCT      37600
002537:
002538:
002539: 41,3421                                           SETLOC   ENDMONDO   +1
002540: 41,3421                                           COUNT*   $$/PIN
002541: 41,3421           75377        MONREF             OCT      75377                                 #  -DEC10, STARTING IN BIT8
002542: 41,3422           04124        MONBACK            ADRES    PASTEVB
002543:
002544: 41,3423           04365        MONBUSY            TC       RELDSPON                              #  TURN KEY RELEASE LIGHT
002545: 41,3424           05146                           TC       ENDOFJOB


002547:                                                                                                  #  DSPFMEM IS USED TO DISPLAY (IN OCTAL) ANY FIXED REGISTER.
002548:                                                                                                  #  IT IS USED WITH NOUN = MACHINE CADR TO BE SPECIFIED. THE FCADR OF THE
002549:                                                                                                  #  DESIRED LOCATION IS THEN PUNCHED IN. IT HANDLES F/F ( FCADR 4000-7777)
002550:
002551:                                                                                                  #  FOR BANKS L/E 27, THIS IS ENOUGH.
002552:
002553:                                                                                                  #  FOR BANKS G/E 30, THE THIRD COMPONENT OF NOUN 26 (PRIO, ADRES, BBCON)
002554:                                                                                                  #  MUST BE PRELOADED WITH THE DESIRED SUPERBANK BITS (BITS 5,6,7).
002555:                                                                                                  #           V23N26 SHOULD BE USED.
002556:
002557:                                                                                                  #  SUMMARY
002558:                                                                                                  #  FOR BANKS L/E 27,                          V27N01E(FCADR)E
002559:                                                                                                  #  FOR BANKS G/E 30,    V23N26E(SUPERBITS)E   V27N01E(FCADR)E
002560:
002561: 41,3425           34310        DSPFMEM            CAF      R1D1                                  #  IF F/F, DATACALL USES BANK 02 OR 03.
002562: 41,3426           54776                           TS       DSPCOUNT
002563: 41,3427           31046                           CA       DSPTEM1    +2                         #  SUPERBANK BITS WERE PRELOADED INTO
002564: 41,3430           54001                           TS       L                                     #  3RD COMPONENT OF NOUN 26.
002565: 41,3431           31016                           CA       NOUNCADR                              #  ORIGINAL FCADR LOADED STILL IN NOUNCADR.
002566: 41,3432           04642                           TC       SUPDACAL                              #  CALL WITH FCADR IN A, SUPERBITS IN L.
002567: 41,3433           03435                           TC       DSPOCTWO
002568: 41,3434           05146        ENDSPF             TC       ENDOFJOB
002569:


002571:                                                                                                  #  WORD DISPLAY ROUTINES
002572: 40,3227                                           SETLOC   TESTOFUF   +4
002573: 40,3227                                           COUNT*   $$/PIN
002574: 40,3227           56002        DSPSIGN            XCH      Q
002575: 40,3230           54144                           TS       DSPWDRET
002576: 40,3231           10154                           CCS      MPAC
002577: 40,3232           03242                           TC       +8D
002578: 40,3233           03242                           TC       +7
002579: 40,3234           64744                           AD       ONE
002580: 40,3235           54154                           TS       MPAC
002581: 40,3236           02422                           TC       -ON
002582: 40,3237           40155                           CS       MPAC       +1
002583: 40,3240           54155                           TS       MPAC       +1
002584: 40,3241           00144                           TC       DSPWDRET
002585: 40,3242           02402                           TC       +ON
002586: 40,3243           00144                           TC       DSPWDRET
002587:
002588: 40,3244           00006        DSPRND             EXTEND                                         #  ROUND BY 5 EXP-6
002589: 40,3245           33310                           DCA      DECROUND   -1
002590: 40,3246           20155                           DAS      MPAC
002591: 40,3247           00006                           EXTEND
002592: 40,3250           13254                           BZF      +4
002593: 40,3251           00006                           EXTEND
002594: 40,3252           34724                           DCA      DPOSMAX
002595: 40,3253           52155                           DXCH     MPAC
002596: 40,3254           00002                           TC       Q
002597:
002598:                                                                                                  #  DSPDECWD CONVERTS C( MPAC, MPAC+1) INTO A SIGN AND 5 CHAR DECIMAL
002599:                                                                                                  #  STARTING IN LOC SPECIFIED IN DSPCOUNT. IT ROUNDS BY 5 EXP-6.
002600:
002601: 40,3255           56002        DSPDECWD           XCH      Q
002602: 40,3256           54115                           TS       WDRET
002603: 40,3257           03227                           TC       DSPSIGN
002604: 40,3260           03244                           TC       DSPRND
002605: 40,3261           34742                           CAF      FOUR
002606: 40,3262           54137        DSPDCWD1           TS       WDCNT
002607: 40,3263           34354                           CAF      BINCON
002608: 40,3264           07330                           TC       SHORTMP
002609: 40,3265           50154        TRACE1             INDEX    MPAC
002610: 40,3266           34066                           CAF      RELTAB
002611: 40,3267           74337                           MASK     LOW5
002612: 40,3270           54124                           TS       CODE
002613: 40,3271           34746                           CAF      ZERO
002614: 40,3272           56156                           XCH      MPAC       +2
002615: 40,3273           56155                           XCH      MPAC       +1
002616: 40,3274           54154                           TS       MPAC
002617: 40,3275           56776                           XCH      DSPCOUNT
002618: 40,3276           54143        TRACE1S            TS       COUNT
002619: 40,3277           10000                           CCS      A                                     #  DECREMENT DSPCOUNT EXCEPT AT +0


002621: 40,3300           54776                           TS       DSPCOUNT
002622: 40,3301           03351                           TC       DSPIN
002623: 40,3302           10137                           CCS      WDCNT
002624: 40,3303           03262                           TC       DSPDCWD1
002625: 40,3304           44351                           CS       VD1
002626: 40,3305           54776                           TS       DSPCOUNT
002627: 40,3306           00115                           TC       WDRET
002628:
002629: 40,3307           00000                           OCT      00000
002630: 40,3310           02476        DECROUND           OCT      02476
002631:
002632:                                                                                                  #  DSPDECNR CONVERTS C( MPAC,MPAC+1) INTO A SIGN AND 5 CHAR DECIMAL
002633:                                                                                                  #  STARTING IN LOC SPECIFIED IN DSPCOUNT. IT DOES NOT ROUND
002634:
002635: 40,3311           56002        DSPDECNR           XCH      Q
002636: 40,3312           54115                           TS       WDRET
002637: 40,3313           03227                           TC       DSPSIGN
002638: 40,3314           03261                           TC       DSPDCWD1   -1
002639:
002640:                                                                                                  #  DSPDC2NR CONVERTS C( MPAC,MPAC+1) INTO A SIGN AND 2 CHAR DECIMAL
002641:                                                                                                  #  STARTING IN LOC SPECIFIED IN DSPCOUNT. IT DOES NOT ROUND
002642:
002643: 40,3315           56002        DSPDC2NR           XCH      Q
002644: 40,3316           54115                           TS       WDRET
002645: 40,3317           03227                           TC       DSPSIGN
002646: 40,3320           34744                           CAF      ONE
002647: 40,3321           03262                           TC       DSPDCWD1
002648:
002649:
002650:                                                                                                  #  DSP2DEC CONVERTS C(MPAC) AND C(MPAC+1) INTO A SIGN AND 10 CHAR DECIMAL
002651:                                                                                                  #  STARTING IN THE LOC SPECIFIED IN DSPCOUNT.
002652:
002653: 40,3322           56002        DSP2DEC            XCH      Q
002654: 40,3323           54115                           TS       WDRET
002655: 40,3324           34746                           CAF      ZERO
002656: 40,3325           54124                           TS       CODE
002657: 40,3326           36266                           CAF      THREE
002658: 40,3327           03433                           TC       11DSPIN                               #  -R2 OFF
002659: 40,3330           34742                           CAF      FOUR
002660: 40,3331           03433                           TC       11DSPIN                               #  +R2 OFF
002661: 40,3332           03227                           TC       DSPSIGN
002662: 40,3333           34311                           CAF      R2D1
002663: 40,3334           03262        END2DEC            TC       DSPDCWD1
002664:
002665:                                                                                                  #  DSPDECVN DISPLAYS C(A) UPON ENTRY AS A 2 CHAR DECIMAL BEGINNING IN THE
002666:                                                                                                  #  DSP LOC SPECIFIED IN DSPCOUNT.
002667:                                                                                                  #  C(A) SHOULD BE IN FORM N X 2EXP-14. THIS IS SCALED TO FORM N/100 BEFORE
002668:                                                                                                  #  DISPLAY CONVERSION.
002669:


002671: 40,3335           00006        DSPDECVN           EXTEND
002672: 40,3336           73345                           MP       VNDSPCON                              #  MULT BY .01
002673: 40,3337           22154                           LXCH     MPAC                                  #  TAKE RESULTS FROM L.(MULT BY 2EXP14).
002674: 40,3340           34746                           CAF      ZERO
002675: 40,3341           54155                           TS       MPAC       +1
002676: 40,3342           56002                           XCH      Q
002677: 40,3343           54115                           TS       WDRET
002678: 40,3344           03320                           TC       DSPDC2NR   +3                         #  NO SIGN, NO ROUND, 2 CHAR
002679:
002680: 40,3345           00244        VNDSPCON           OCT      00244                                 #  .01 ROUNDED UP
002681:
002682:
002683: 40,3346           03335        GOVNUPDT           TC       DSPDECVN                              #  THIS IS NOT FOR GENERAL USE. REALLY PART
002684: 40,3347           04626                           TC       POSTJUMP                              #  OF UPDATVB.
002685: 40,3350           62376                           CADR     UPDAT1     +2
002686:
002687: 40,3351                        ENDECVN            EQUALS
002688:
002689:
002690: 41,3435                                           SETLOC   ENDSPF     +1
002691: 41,3435                                           COUNT*   $$/PIN
002692:                                                                                                  #  DSPOCTWD DISPLAYS C(A) UPON ENTRY AS A 5 CHAR OCT STARTING IN THE DSP
002693:                                                                                                  #  CHAR SPECIFIED IN DSPCOUNT. IT STOPS AFTER 5 CHAR HAVE BEEN DISPLAYED.
002694:
002695: 41,3435           54022        DSPOCTWO           TS       CYL
002696: 41,3436           56002                           XCH      Q
002697: 41,3437           54115                           TS       WDRET                                 #  MUST USE SAME RETURN AS DSP2BIT.
002698: 41,3440           34727                           CAF      BIT14                                 #  TO BLANK SIGNS
002699: 41,3441           26776                           ADS      DSPCOUNT
002700: 41,3442           34742                           CAF      FOUR
002701: 41,3443           54137        WDAGAIN            TS       WDCNT
002702: 41,3444           40022                           CS       CYL
002703: 41,3445           40022                           CS       CYL
002704: 41,3446           40022                           CS       CYL
002705: 41,3447           40000                           CS       A
002706: 41,3450           74750                           MASK     DSPMSK
002707: 41,3451           50000                           INDEX    A
002708: 41,3452           34066                           CAF      RELTAB
002709: 41,3453           74337                           MASK     LOW5
002710: 41,3454           54124                           TS       CODE
002711: 41,3455           56776                           XCH      DSPCOUNT
002712: 41,3456           54143                           TS       COUNT
002713: 41,3457           10000                           CCS      A                                     #  DECREMENT DSPCOUNT EXCEPT AT +0
002714: 41,3460           54776                           TS       DSPCOUNT
002715: 41,3461           04626                           TC       POSTJUMP
002716: 41,3462           61441                           CADR     DSPOCTIN
002717: 41,3463           10137        OCTBACK            CCS      WDCNT
002718: 41,3464           03443                           TC       WDAGAIN                               #  +
002719: 41,3465           44351        DSPLV              CS       VD1                                   #  TO BLOCK NUMERICAL CHARACTERS, CLEARS,
002720: 41,3466           54776                           TS       DSPCOUNT                              #  AND SIGNS AFTER A COMPLETED DISPLAY.


002722: 41,3467           00115                           TC       WDRET
002723:
002724: 41,3470     4750               DSPMSK             =        SEVEN
002725:
002726:
002727:                                                                                                  #  FOR DSPIN PLACE 0/25 OCT INTO COUNT, 5 BIT RELAY CODE INTO CODE. BOTH
002728:                                                                                                  #  ARE DESTROYED. IF BIT14 OF COUNT IS 1, SIGN IS BLANKED WITH LEFT CHAR.
002729:                                                                                                  #  FOR DSPIN1 PLACE 0,1 INTO BIT11 OF CODE, 2 INTO COUNT, REL ADDRESS OF
002730:                                                                                                  #  DSPTAB ENTRY INTO DSREL.
002731:
002732: 40,3351                                           SETLOC   ENDECVN
002733:
002734: 40,3351                                           COUNT*   $$/PIN
002735: 40,3351           56002        DSPIN              XCH      Q                                     #  CANT USE L FOR RETURN, SINCE MANY OF THE
002736: 40,3352           54114                           TS       DSEXIT                                #  ROUTINES CALLING DSPIN USE L AS RETURN.
002737: 40,3353           34337                           CAF      LOW5
002738: 40,3354           70143                           MASK     COUNT
002739: 40,3355           54021                           TS       SR
002740: 40,3356           56021                           XCH      SR
002741: 40,3357           54141                           TS       DSREL
002742: 40,3360           34744                           CAF      BIT1
002743: 40,3361           70143                           MASK     COUNT
002744: 40,3362           10000                           CCS      A
002745: 40,3363           03365                           TC       +2                                    #  LEFT IF COUNT IS ODD
002746: 40,3364           03375                           TC       DSPIN1     -1                         #  RIGHT IF COUNT IS EVEN
002747: 40,3365           56124                           XCH      CODE
002748: 40,3366           04331                           TC       SLEFT5                                #  DOES NOT USE CYL
002749: 40,3367           54124                           TS       CODE
002750: 40,3370           34727                           CAF      BIT14
002751: 40,3371           70143                           MASK     COUNT
002752: 40,3372           10000                           CCS      A
002753: 40,3373           34743                           CAF      TWO                                   #  BIT14 = 1, BLANK SIGN
002754: 40,3374           64744                           AD       ONE                                   #  BIT14 = 0, LEAVE SIGN ALONE
002755: 40,3375           54143                           TS       COUNT                                 #  +0 INTO COUNT FOR RIGHT
002756:                                                                                                  #  +1 INTO COUNT FOR LEFT(SIGN LEFT ALONE)
002757:                                                                                                  #  +3 INTO COUNT FOR LEFT(TO BLANK SIGN)
002758: 40,3376           00004        DSPIN1             INHINT
002759: 40,3377           50141                           INDEX    DSREL
002760: 40,3400           11022                           CCS      DSPTAB
002761: 40,3401           03403                           TC       +2                                    #  IF +
002762: 40,3402           05701                           TC       CCSHOLE
002763: 40,3403           64744                           AD       ONE                                   #  IF-
002764: 40,3404           54142                           TS       DSMAG
002765: 40,3405           50143                           INDEX    COUNT
002766: 40,3406           73427                           MASK     DSMSK
002767: 40,3407           00006                           EXTEND
002768: 40,3410           60124                           SU       CODE
002769: 40,3411           00006                           EXTEND
002770: 40,3412           13425                           BZF      DSLV                                  #  SAME
002771: 40,3413           50143        DFRNT              INDEX    COUNT


002773: 40,3414           43427                           CS       DSMSK                                 #  MASK WITH 77740,76037,75777, OR 74037
002774: 40,3415           70142                           MASK     DSMAG
002775: 40,3416           60124                           AD       CODE
002776: 40,3417           40000                           CS       A
002777: 40,3420           50141                           INDEX    DSREL
002778: 40,3421           57022                           XCH      DSPTAB
002779: 40,3422           00006                           EXTEND
002780: 40,3423           63425                           BZMF     DSLV                                  #  DSPTAB ENTRY WAS -
002781: 40,3424           25015                           INCR     NOUT                                  #  DSPTAB ENTRY WAS +
002782: 40,3425           00003        DSLV               RELINT
002783: 40,3426           00114                           TC       DSEXIT
002784:
002785: 40,3427           00037        DSMSK              OCT      37
002786: 40,3430           01740                           OCT      1740
002787: 40,3431           02000                           OCT      2000
002788: 40,3432           03740                           OCT      3740
002789:
002790:
002791:                                                                                                  #  FOR 11DSPIN, PUT REL ADDRESSS OF DSPTAB ENTRY INTO A, 1 IN BIT11 OR 0 IN
002792:                                                                                                  #  BIT11 OF CODE.
002793:
002794: 40,3433           54141        11DSPIN            TS       DSREL
002795: 40,3434           34743                           CAF      TWO
002796: 40,3435           54143                           TS       COUNT
002797: 40,3436           56002                           XCH      Q                                     #  MUST USE SAME RETURN AS DSPIN
002798: 40,3437           54114                           TS       DSEXIT
002799: 40,3440           03376                           TC       DSPIN1
002800:
002801:
002802: 40,3441           03351        DSPOCTIN           TC       DSPIN                                 #  SO DSPOCTWD DOESNT USE SWCALL
002803: 40,3442           33444                           CAF      +2
002804: 40,3443           04631                           TC       BANKJUMP
002805: 40,3444           63463        ENDSPOCT           CADR     OCTBACK
002806:
002807:
002808:                                                                                                  #  DSPALARM FINDS TC NVSUBEND IN ENTRET FOR NVSUB INITIATED ROUTINES.
002809:                                                                                                  #  ABORT WITH 01501.
002810:                                                                                                  #  DSPALARM FINDS TC ENDOFJOB IN ENTRET FOR KEYBOARD INITIATED ROUTINES.
002811:                                                                                                  #  DC TC ENTRET.
002812:
002813: 40,3445           44351        PREDSPAL           CS       VD1
002814: 40,3446           54776                           TS       DSPCOUNT
002815: 40,3447           43470        DSPALARM           CS       NVSBENDL
002816: 40,3450           60136                           AD       ENTEXIT
002817: 40,3451           00006                           EXTEND
002818: 40,3452           13465                           BZF      CHARALRM   +2
002819: 40,3453           43467                           CS       MONADR                                #  IF THIS IS A MONITOR, KILL IT
002820: 40,3454           60136                           AD       ENTEXIT
002821: 40,3455           00006                           EXTEND
002822: 40,3456           13460                           BZF      +2


002824: 40,3457           03463                           TC       CHARALRM
002825: 40,3460           04175                           TC       KILMONON
002826: 40,3461           04355                           TC       FALTON
002827: 40,3462           04124                           TC       PASTEVB                               #  PUT MONITOR VERB BACK IN VERBREG
002828: 40,3463           04355        CHARALRM           TC       FALTON                                #  NOT NVSUB INITIATED. TURN ON OPR ERROR
002829: 40,3464           05146                           TC       ENDOFJOB
002830: 40,3465           05644                           TC       POODOO
002831: 40,3466           21501                           OCT      21501
002832: 40,3467           04124        MONADR             GENADR   PASTEVB
002833: 40,3470           04173        NVSBENDL           TC       NVSUBEND
002834:
002835:
002836:                                                                                                  #  ALMCYCLE TURNS ON CHECK FAIL LIGHT, REDISPLAYS THE ORIGINAL VERB THAT
002837:                                                                                                  #  WAS EXECUTED, AND RECYCLES TO EXECUTE THE ORIGINAL VERB/NOUN COMBINATION
002838:                                                                                                  #  THAT WAS LAST EXECUTED. USED FOR BAD DATA DURING LOAD VERBS AND BY
002839:                                                                                                  #  MCTBS. ALSO BY MMCHANG IF 2 NUMERICAL CHARACTERS WERE NOT PUNCHED IN
002840:                                                                                                  #  FOR MM CODE.
002841:
002842:    6000                                           SETLOC   FFTAG5
002843:    6000                                           BANK
002844:    6020                                           COUNT*   $$/PIN
002845:    6020           04355        ALMCYCLE           TC       FALTON                                #  TURN ON CHECK FAIL LIGHT.
002846:    6021           41040                           CS       VERBSAVE                              #  GET ORIGINAL VERB THAT WAS EXECUTED
002847:    6022           55012                           TS       REQRET                                #  SET FOR ENTPAS0
002848:    6023           04607                           TC       BANKCALL                              #  PUTS ORIGINAL VERB INTO VERBREG AND
002849:    6024           62366                           CADR     UPDATVB    -1                         #  DISPLAYS IT IN VERB LIGHTS.
002850:    6025           04626                           TC       POSTJUMP
002851:    6026           62022        ENDALM             CADR     ENTER
002852:
002853:
002854:                                                                                                  #  MMCHANG USES NOUN DISPLAY UNTIL ENTER. THEN IT USES MODE DISP.
002855:                                                                                                  #  IT GOES TO MODROUT WITH THE NEW M M CODE IN A, BUT NOT DISPLAYED IN
002856:                                                                                                  #  MM LIGHTS.
002857:                                                                                                  #  IT DEMANDS 2 NUMERICAL CHARACTERS BE PUNCHED IN FOR NEW MM CODE.
002858:                                                                                                  #  IF NOT, IT RECYCLES.
002859:
002860: 41,3470                                           SETLOC   DSPLV      +3
002861: 41,3470                                           COUNT*   $$/PIN
002862: 41,3470           03512        MMCHANG            TC       REQMM                                 #  ENTPASHI ASSUMES THE TC REQMM AT MMCHANG
002863:                                                                                                  #  IF THIS MOVES AT ALL, MUST CHANGE
002864:                                                                                                  #  MMADREF AT ENTPASHI.
002865: 41,3471           34740                           CAF      BIT5                                  #  OCT20 = ND2.
002866: 41,3472           60776                           AD       DSPCOUNT                              #  DSPCOUNT MUST = -ND2.
002867: 41,3473           00006                           EXTEND                                         #  DEMAND THAT 2 NUM CHAR WERE PUNCHED IN.
002868: 41,3474           13476                           BZF      +2
002869: 41,3475           06020                           TC       ALMCYCLE                              #  DSPCOUNT NOT= -ND2. ALARM AND RECYCLE.
002870: 41,3476           34746                           CAF      ZERO                                  #  DSPCOUNT = -ND2.
002871: 41,3477           57001                           XCH      NOUNREG
002872: 41,3500           54154                           TS       MPAC
002873: 41,3501           34352                           CAF      ND1


002875: 41,3502           54776                           TS       DSPCOUNT
002876: 41,3503           04607                           TC       BANKCALL
002877: 41,3504           60570                           CADR     2BLANK
002878: 41,3505           44351                           CS       VD1                                   #  BLOCK NUM CHAR IN
002879: 41,3506           54776                           TS       DSPCOUNT
002880: 41,3507           30154                           CA       MPAC
002881: 41,3510           04626                           TC       POSTJUMP
002882: 41,3511           10054                           CADR     MODROUTB                              #  GO THRU STANDARD LOC.
002883:
002884:
002885: 41,3512  04,2054               MODROUTB           =        V37
002886: 41,3512           40002        REQMM              CS       Q
002887: 41,3513           55012                           TS       REQRET
002888: 41,3514           34352                           CAF      ND1
002889: 41,3515           54776                           TS       DSPCOUNT
002890: 41,3516           34746                           CAF      ZERO
002891: 41,3517           55001                           TS       NOUNREG
002892: 41,3520           04607                           TC       BANKCALL
002893: 41,3521           60570                           CADR     2BLANK
002894: 41,3522           04420                           TC       FLASHON
002895: 41,3523           34744                           CAF      ONE
002896: 41,3524           54777                           TS       DECBRNCH                              #  SET FOR DEC
002897: 41,3525           00136                           TC       ENTEXIT
002898:
002899:
002900:                                                                                                  #  VBRQEXEC ENTERS REQUEST TO EXEC     FOR ANY ADDRESS WITH ANY PRIORITY.
002901:                                                                                                  #  IT DOES ENDOFJOB AFTER ENTERING REQUEST. DISPLAY SYST IS RELEASED.
002902:                                                                                                  #  IT ASSUMES NOUN 26 HAS BEEN PRELOADED WITH
002903:                                                                                                  #  COMPONENT 1  PRIORITY(BITS 10-14) BIT1=0 FOR NOVAC, BIT1=1 FOR FINDVAC.
002904:                                                                                                  #  COMPONENT 2  JOB ADRES (12 BIT )
002905:                                                                                                  #  COMPONENT 3  BBCON
002906:
002907: 41,3526           34732        VBRQEXEC           CAF      EBANK4
002908: 41,3527           54003                           TS       EBANK
002909: 41,3530  E4,1771                                  EBANK=   N26/PRI
002910:
002911: 41,3530           34744                           CAF      BIT1
002912: 41,3531           71771                           MASK     N26/PRI
002913: 41,3532           10000                           CCS      A
002914: 41,3533           03555                           TC       SETVAC                                #  IF BIT1 = 1, FINDVAC
002915: 41,3534           34342                           CAF      TCNOVAC                               #  IF BIT1 = 0, NOVAC
002916: 41,3535           54154        REQEX1             TS       MPAC                                  #  TC NOVAC  OR  TC FINDVAC INTO MPAC
002917: 41,3536           44744                           CS       BIT1
002918: 41,3537           71771                           MASK     N26/PRI
002919: 41,3540           54160                           TS       MPAC       +4                         #  PRIO INTO MPAC+4 AS A TEMP
002920: 41,3541           04450        REQUESTC           TC       RELDSP
002921: 41,3542           31771                           CA       N26/PRI
002922: 41,3543           00006                           EXTEND
002923: 41,3544           12400                           BZF      GODSPALM                              #  OP ERROR AND EOJ IF ZERO PRIO/DELAY
002924: 41,3545           34210                           CA       ENDINST


002926: 41,3546           54157                           TS       MPAC       +3                         #  TC ENDOFJOB INTO MPAC+3
002927: 41,3547           00006                           EXTEND
002928: 41,3550           31773                           DCA      N26/2CAD                              #  JOB ADRES INTO MPAC+1
002929: 41,3551           52156                           DXCH     MPAC       +1                         #  BBCON INTO MPAC+2
002930: 41,3552           30160                           CA       MPAC       +4                         #  PRIO IN A
002931: 41,3553           00004                           INHINT
002932: 41,3554           00154                           TC       MPAC
002933:
002934: 41,3555           34345        SETVAC             CAF      TCFINDVC
002935: 41,3556           03535                           TC       REQEX1
002936:
002937:                                                                                                  #  VBRQWAIT ENTERS REQUEST TO WAITLIST FOR ANY ADDRESS WITH ANY DELAY.
002938:                                                                                                  #  IT DOES ENDOFJOB AFTER ENTERING REQUEST.DISPLAY SYST IS RELEASED.
002939:                                                                                                  #  IT ASSUMES NOUN 26 HAS BEEN PRELOADED WITH
002940:                                                                                                  #  COMPONENT 1  DELAY (LOW BITS)
002941:                                                                                                  #  COMPONENT 2  TASK ADRES (12 BIT)
002942:                                                                                                  #  COMPONENT 3  BBCON
002943:
002944: 41,3557           34343        VBRQWAIT           CAF      TCWAIT
002945: 41,3560           54154                           TS       MPAC                                  #  TC WAITLIST INTO MPAC
002946: 41,3561           34732                           CAF      EBANK4
002947: 41,3562           54003                           TS       EBANK
002948: 41,3563           31771                           CA       N26/PRI                               #  TIME DELAY
002949: 41,3564           03540        ENDRQWT            TC       REQUESTC   -1
002950:
002951:                                                                                                  #  REQUESTC WILL PUT TASK ADRES INTO MPAC+1, BBCON INTO MPAC+2,
002952:                                                                                                  #  TC ENDOFJOB INTO MPAC+3. IT WILL TAKE TIME DELAY OUT OF MPAC+4 AND
002953:                                                                                                  #  LEAVE IT IN A, INHINT AND TC MPAC.
002954:
002955:
002956: 40,3471                                           SETLOC   NVSBENDL   +1
002957: 40,3471                                           COUNT*   $$/PIN
002958: 40,3471           34744        VBPROC             CAF      ONE                                   #  PROCEED WITHOUT DATA
002959: 40,3472           55013                           TS       LOADSTAT
002960: 40,3473           04175                           TC       KILMONON                              #  TURN ON KILL MONITOR BIT
002961: 40,3474           04450                           TC       RELDSP
002962: 40,3475           04424                           TC       FLASHOFF
002963: 40,3476           03605                           TC       RECALTST                              #  SEE IF THERE IS ANY RECALL FROM ENDIDLE
002964:
002965:
002966: 40,3477           44744        VBTERM             CS       ONE
002967: 40,3500           03472                           TC       VBPROC     +1                         #  TERM VERB SETS LOADSTAT NEG
002968:
002969:
002970:                                                                                                  #  PROCKEY PERFORMS THE SAME FUNCTION AS VBPROC.  IT MUST BE CALLED UNDER
002971:                                                                                                  #  EXECUTIVE CONTROL, WITH CHRPRIO.
002972: 40,3501           41000        PROCKEY            CS       VERBREG                               #  DONT ALLOW PROCEED DURING LOAD.
002973: 40,3502           63516                           AD       VBSP2LD*                              #  DEC 22
002974: 40,3503           00006                           EXTEND
002975: 40,3504           26000                           DIM      A


002977: 40,3505           00006                           EXTEND
002978: 40,3506           13463                           BZF      CHARALRM
002979: 40,3507           34746        PROCKEY1           CAF      ZERO                                  #  SET REQRET FOR ENTER PASS 0.
002980: 40,3510           55012                           TS       REQRET
002981: 40,3511           44351                           CS       VD1                                   #  BLOCK NUMERICAL CHARACTERS, SIGNS, CLEAR
002982: 40,3512           54776                           TS       DSPCOUNT
002983: 40,3513           03471                           TC       VBPROC
002984:
002985:
002986:                                                                                                  #  VBRESEQ WAKES ENDIDLE AT SAME LINE AS FINAL ENTER OF LOAD (L+3).
002987:                                                                                                  #  (MAIN USE IS INTENDED AS RESPONSE TO INTERNALLY INITIATED FLASHING
002988:                                                                                                  #   DISPLAYS IN ENDIDLE. SHOULD NOT BE USED WITH LOAD VERBS,PLEASE PERFORM,
002989:                                                                                                  #   OR PLEASE MARK VERBS BECAUSE THEY ALREADY USE L+3 IN ANOTHER CONTEXT.)
002990:
002991: 40,3514           44746        VBRESEQ            CS       ZERO                                  #  MAKE IT LOOK LIKE DATA IN.
002992: 40,3515           03472                           TC       VBPROC     +1
002993:
002994:
002995: 40,3516           00026        VBSP2LD*           DEC      22         B-14                       #  VB22 = BLOAD
002996:
002997:                                                                                                  #  FLASH IS TURNED OFF BY PROCEED WITHOUT DATA, TERMINATE, RESEQUENCE,
002998:                                                                                                  #  END OF LOAD.
002999:


003001:                                                                                                  #  KEY RELEASE ROUTINE
003002:
003003:                                                                                                  #  THIS ROUTINE ALWAYS TURNS OFF THE UPACT LIGHT AND ALWAYS CLEARS DSPLOCK.
003004:
003005:                                                                                                  #  THE HIGHEST PRIORITY FUNCTION OF THE KEY RELEASE BUTTON IS THE
003006:                                                                                                  #  UNSUSPENDING OF A SUSPENDED MONITOR WHICH WAS EXTERNALLY INITIATED.
003007:                                                                                                  #  THIS FUNCTION IS ACCOMPLISHED BY CLEARING DSPLOCK AND TURNING OFF
003008:                                                                                                  #  THE KEY RELEASE LIGHT IF BOTH DSPLIST AND CADRSTOR ARE EMPTY.
003009:
003010:                                                                                                  #  IF NO SUCH MONITOR EXISTS, THEN RELDSP IS EXECUTED TO CLEAR DSPLOCK
003011:                                                                                                  #  AND THE EXTERNAL MONITOR BIT (FREEING THE DISPLAY SYSTEM FOR INTERNAL
003012:                                                                                                  #  USE), TURN OFF THE KEY RELEASE LIGHT, AND WAKE UP ANY JOB IN DSPLIST.
003013:
003014:                                                                                                  #  IN ADDITION IF THERE IS A JOB IN ENDIDLE, THEN CONTROL IS TRANSFERRED
003015:                                                                                                  #  TO PINBRNCH (IN DISPLAY INTERFACE ROUTINE) TO RE-EXECUTE THE SERIES OF
003016:                                                                                                  #  NVSUB CALLS ETC. THAT PRECEDED THE ENDIDLE CALL STILL AWAITING RESPONSE.
003017:                                                                                                  #  THIS FEATURE IS INTENDED FOR USE WHEN THE OPERATOR HAS BEEN REQUESTED TO
003018:                                                                                                  #  RESPOND TO SOME INTERNAL ACTION THAT USED ENDIDLE, BUT HE HAS WRITTEN
003019:                                                                                                  #  OVER THE INFORMATION ON THE DISPLAY PANEL BY SOME DISPLAYS OF HIS OWN
003020:                                                                                                  #  INITIATION WHICH DO NOT SERVE AS RESPONSES. HITTING KEY RLSE WILL
003021:                                                                                                  #  RE-ESTABLISH THE DISPLAYS TO THE STATE THEY WERE IN BEFORE HE OBSCURED
003022:                                                                                                  #  THEM, SO THAT HE CAN SEE THE WAITING REQUEST.  THIS WORKS ONLY FOR
003023:                                                                                                  #  INTERNAL PROGRAMS THAT USED ENDIDLE THROUGH MARGARETS DISPLAY
003024:                                                                                                  #  SUBROUTINES.
003025:
003026: 40,3517           44742        VBRELDSP           CS       BIT3
003027: 40,3520           00006                           EXTEND
003028: 40,3521           03011                           WAND     DSALMOUT                              #  TURN OFF UPACT LITE
003029: 40,3522           10115                           CCS      21/22REG                              #  OLD DSPLOCK
003030: 40,3523           34727                           CAF      BIT14
003031: 40,3524           71020                           MASK     MONSAVE1                              #  EXTERNAL MONITOR BIT (EMB)
003032: 40,3525           10000                           CCS      A
003033: 40,3526           03535                           TC       UNSUSPEN                              #  OLD DSPLOCK AND EMB BOTH 1, UNSUSPEND.
003034: 40,3527           04450        TSTLTS4            TC       RELDSP                                #  NOT UNSUSPENDING EXTERNAL MONITOR,
003035: 40,3530           11041                           CCS      CADRSTOR                              #   RELEASE DISPLAY SYSTEM AND
003036: 40,3531           03533                           TC       +2                                    #   DO RE-ESTABLISH IF CADRSTOR IS FULL.
003037: 40,3532           05146                           TC       ENDOFJOB
003038: 40,3533           04626                           TC       POSTJUMP
003039: 40,3534           21062                           CADR     PINBRNCH
003040: 40,3535           34746        UNSUSPEN           CAF      ZERO                                  #  EXTERNAL MONITOR IS SUSPENDED,
003041: 40,3536           55011                           TS       DSPLOCK                               #   JUST UNSUSPEND IT BY CLEARING DSPLOCK.
003042: 40,3537           11041                           CCS      CADRSTOR                              #   TURN KEY RELEASE LIGHT OFF IF BOTH
003043: 40,3540           05146                           TC       ENDOFJOB                              #   CADRSTOR AND DSPLIST ARE EMPTY.
003044: 40,3541           04473                           TC       RELDSP1
003045: 40,3542           05146                           TC       ENDOFJOB
003046:
003047: 40,3543                        ENDRELDS           EQUALS
003048:


003050:                                                                                                  #  NVSUB IS USED FOR SUB ROUTINE CALLS FROM WITHIN COMPUTER. IT CAN BE
003051:                                                                                                  #  USED TO CALL THE COMBINATION OF ANY DISPLAY, LOAD, OR MONITOR VERB
003052:                                                                                                  #  TOGETHER WITH ANY NOUN AVAILABLE TO THE KEYBOARD.
003053:                                                                                                  #  PLACE 0VVVVVVVNNNNNNN INTO A.
003054:                                                                                                  #  V-S ARE THE 7 BIT VERB CODE.  N-S ARE THE 7 BIT NOUN CODE.
003055:
003056:                                                                                                  #  IF NVSUB IS CALLED WITH THE FOLLOWING NEGATIVE NUMBERS (RATHER THAN THE
003057:                                                                                                  #  VERB-NOUN CODE) IN A, THEN THE DISPLAY IS BLANKED AS FOLLOWS-
003058:                                                                                                  #   -4 FULL BLANK, -3 LEAVE MODE, -2 LEAVE MODE AND VERB, -1 BLANK R-S ONLY
003059:
003060:                                                                                                  #  NVSUB CAN BE USED WITH MACH CADR TO BE SPEC BY PLACING THE CADR INTO
003061:                                                                                                  #  MPAC+2 BEFORE THE STANDARD NVSUB CALL.
003062:
003063:                                                                                                  #   NVSUB RETURNS TO 2+ CALLING LOC AFTER PERFORMING TASK, IF DISPLAY
003064:                                                                                                  #  SYSTEM IS AVAILABLE. THE NEW NOUN AND VERB CODES ARE DISPLAYED.
003065:                                                                                                  #  IF V:S =0, THE NEW NOUN CODE IS DISPLAYED ONLY(RETURN WITH NO FURTHER
003066:                                                                                                  #  ACTION). IF N-S =0, THE NEW VERB CODE IS DISPLAYED ONLY(RETURN WITH NO
003067:                                                                                                  #  FURTHER ACTION).
003068:
003069:                                                                                                  #  IT RETURNS TO 1+ CALLING LOC WITHOUT PERFORMING TASK, IF DISPLAY
003070:                                                                                                  #  SYSTEM IS BLOCKED (NOTHING IS DISPLAYED IN THIS CASE).
003071:                                                                                                  #  IT DOES TC ABORT (WITH OCT 01501) IF IT ENCOUNTERS A DISPLAY PROGRAM
003072:                                                                                                  #  ALARM CONDITION BEFORE RETURN TO CALLER.
003073:
003074:                                                                                                  #  THE DISPLAY SYSTEM IS BLOCKED BY THE DEPRESSION OF ANY
003075:                                                                                                  #  KEY, EXCEPT ERROR LIGHT RESET
003076:                                                                                                  #  IT IS RELEASED BY THE KEY RELEASE BUTTON, ALL EXTENDED VERBS,
003077:                                                                                                  #  PROCEED WITHOUT DATA, TERMINATE, RESEQUENCE, INITIALIZE EXECUTIVE,
003078:                                                                                                  #  RECALL PART OF RECALTST IF ENDIDLE WAS USED,
003079:                                                                                                  #  VB = REQUEST EXECUTIVE, VB = REQUEST WAITLIST,
003080:                                                                                                  #  MONITOR SET UP.
003081:
003082:                                                                                                  #  THE DISPLAY SYSTEM IS ALSO BLOCKED BY THE EXTERNAL MONITOR BIT, WHICH
003083:                                                                                                  #  INDICATES AN EXTERNALLY INITIATED MONITOR IS RUNNING (SEE MONITOR)
003084:
003085:                                                                                                  #  A NVSUB CALL THAT PASSES DSPLOCK AND THE EXTERNAL MONITOR BIT ENDS OLD
003086:                                                                                                  #  MONITOR.
003087:
003088:                                                                                                  #  DSPLOCK IS THE INTERLOCK FOR USE OF KEYBOARD AND DISPLAY SYSTEM WHICH
003089:                                                                                                  #  LOCKS OUT INTERNAL USE WHENEVER THERE IS EXTERNAL KEYBOARD ACTION.
003090:
003091:                                                                                                  #  NVSUB SHOULD BE USED TWICE IN SUCCESSION FOR :PLEASE PERFORM: SITUATIONS
003092:                                                                                                  #  (SIMILARLY FOR PLEASE MARK). FIRST PLACE THE CODED NUMBER FOR WHAT
003093:                                                                                                  #  ACTION IS DESIRED OF OPERATOR INTO THE REGISTERS REFERRED TO BY THE
003094:                                                                                                  #  :CHECKLIST: NOUN. GO TO NVSUB WITH A DISPLAY VERB AND THE :CHECKLIST:
003095:                                                                                                  #  NOUN. GO TO NVSUB AGAIN WITH THE :PLEASE PERFORM: VERB AND ZEROS IN THE
003096:                                                                                                  #  LOW 7 BITS. THIS :PASTES UP: THE :PLEASE PERFORM: VERB INTO THE VERB
003097:                                                                                                  #  LIGHTS.
003098:
003099:                                                                                                  #  NVMONOPT IS AN ENTRY SIMILAR TO NVSUB, BUT REQUIRING AN ADDITIONAL


003101:                                                                                                  #  PARAMETER IN L. IT SHOULD BE USED ONLY WITH A MONITOR VERB-NOUN CODE IN
003102:                                                                                                  #  A. AFTER EACH MONITOR DISPLAY A *PLEASE* VERB WILL BE PASTED IN THE VERB
003103:                                                                                                  #  LIGHTS OR DATA WILL BE BLANKED (OR BOTH) ACCORDING TO THE OPTIONS
003104:                                                                                                  #  SPECIFIED IN L. IF BITS 8-14 OF L ARE OTHER THAN ZERO, THEN THEY WILL
003105:                                                                                                  #  BE INTERPRETED AS A VERB CODE AND PASTED IN THE VERB LIGHTS. (THIS VERB
003106:                                                                                                  #  CODE SHOULD DESIGNATE ONE OF THE *PLEASE* VERBS.) IF BITS 1-3 OF L ARE
003107:                                                                                                  #  OTHER THAN ZERO, THEN THEY WILL BE USED TO BLANK DATA BY BEING FED TO
003108:                                                                                                  #  BLANKSUB. IF NVMONOPT IS USED WITH A VERB OTHER THAN A MONITOR VERB,
003109:                                                                                                  #  THE PARAMETER IN L HAS NO EFFECT.
003110:
003111:                                                                                                  #  NVSUB IN FIXED-FIXED PLACES 2+CALLING LOC INTO NVQTEM, TC NVSUBEND INTO
003112:                                                                                                  #  ENTRET. (THIS WILL RESTORE OLD CALLING BANK BITS)
003113:
003114:    4145                                           SETLOC   MID7       +1
003115:    4145                                           COUNT*   $$/PIN
003116:    4145           22007        NVSUB              LXCH     7                                     #  ZERO NVMONOPT OPTIONS
003117:    4146           54123        NVMONOPT           TS       NVTEMP
003118:    4147           34727                           CAF      BIT14
003119:    4150           71020                           MASK     MONSAVE1                              #  EXTERNAL MONITOR BIT
003120:    4151           61011                           AD       DSPLOCK
003121:    4152           10000                           CCS      A
003122:    4153           00002                           TC       Q                                     #  DSP SYST BLOCKED. RET TO 1+ CALLING LOC
003123:    4154           34744                           CAF      ONE                                   #  DSP SYST AVAILABLE
003124:    4155           60002        NVSBCOM            AD       Q
003125:    4156           55036                           TS       NVQTEM                                #  2+ CALLING LOC INTO NVQTEM
003126:    4157           23021                           LXCH     MONSAVE2                              #  STORE NVMONOPT OPTIONS
003127:    4160           04175                           TC       KILMONON                              #  TURN ON KILL MONITOR BIT
003128:    4161           34172        NVSUBCOM           CAF      NVSBBBNK
003129:
003130:    4162           56006                           XCH      BBANK
003131:    4163           00006                           EXTEND                                         #  SAVE OLD SUPERBITS
003132:    4164           04007                           ROR      SUPERBNK
003133:    4165           55037                           TS       NVBNKTEM
003134:    4166           34172                           CAF      PINSUPBT
003135:    4167           00006                           EXTEND
003136:    4170           01007                           WRITE    SUPERBNK
003137:    4171           02020                           TC       NVSUBB                                #  GO TO NVSUB1 THRU STANDARD LOC
003138:    4172     0776                                  EBANK=   DSPCOUNT
003139:    4172           62101        NVSBBBNK           BBCON    NVSUB1
003140:
003141:    4173     4172               PINSUPBT           =        NVSBBBNK                              #  CONTAINS THE PINBALL SUPERBITS.
003142:
003143:    4173           53037        NVSUBEND           DXCH     NVQTEM                                #  NVBNKTEM MUST = NVQTEM+1
003144:    4174           05167                           TC       SUPDXCHZ                              #  DTCB WITH SUPERBIT SWITCHING
003145:
003146: 41,3565                                           SETLOC   ENDRQWT    +1
003147:
003148: 41,3565                                           COUNT*   $$/PIN
003149:                                                                                                  #  BLANKDSP BLANKS DISPLAY ACCORDING TO OPTION NUMBER IN NVTEMP AS FOLLOWS
003150:                                                                                                  #   -4 FULL BLANK, -3 LEAVE MODE, -2 LEAVE MODE AND VERB, -1 BLANK R-S ONLY


003152: 41,3565           64750        BLANKDSP           AD       SEVEN                                 #  7,8,9,OR 10 (A HAD 0,1,2,OR 3)
003153: 41,3566           00004                           INHINT
003154: 41,3567           54124                           TS       CODE                                  #  BLANK SPECIFIED DSPTABS
003155: 41,3570           44731                           CS       BIT12
003156: 41,3571           50124                           INDEX    CODE
003157: 41,3572           57022                           XCH      DSPTAB
003158: 41,3573           10000                           CCS      A
003159: 41,3574           25015                           INCR     NOUT
003160: 41,3575           03576                           TC       +1
003161: 41,3576           10124                           CCS      CODE
003162: 41,3577           03567                           TC       BLANKDSP   +2
003163: 41,3600           00003                           RELINT
003164: 41,3601           50123                           INDEX    NVTEMP
003165: 41,3602           03607                           TC       +5
003166: 41,3603           03604                           TC       +1                                    #  NVTEMP HAS -4 (NEVER TOUCH MODREG)
003167: 41,3604           55000                           TS       VERBREG                               #             -3
003168: 41,3605           55001                           TS       NOUNREG                               #             -2
003169: 41,3606           55014                           TS       CLPASS                                #             -1
003170: 41,3607           44351                           CS       VD1
003171: 41,3610           54776                           TS       DSPCOUNT
003172: 41,3611           04424                           TC       FLASHOFF                              #  PROTECT AGAINST INVISIBLE FLASH
003173: 41,3612           03635                           TC       ENTSET     -2                         #  ZEROS REQRET
003174:
003175: 41,3613           33637        NVSUB1             CAF      ENTSET                                #  IN BANK
003176: 41,3614           54136                           TS       ENTRET                                #  SET RETURN TO NVSUBEND
003177: 41,3615           10123                           CCS      NVTEMP                                #  WHAT NOW
003178: 41,3616           03622                           TC       +4                                    #  NORMAL NVSUB CALL (EXECUTE VN OR PASTE)
003179: 41,3617           02400                           TC       GODSPALM
003180: 41,3620           03565                           TC       BLANKDSP                              #  BLANK DISPLAY AS SPECIFIED
003181: 41,3621           02400                           TC       GODSPALM
003182: 41,3622           36115                           CAF      LOW7
003183: 41,3623           70123                           MASK     NVTEMP
003184: 41,3624           54157                           TS       MPAC       +3                         #  TEMP FOR NOUN (CANT USE MPAC. DSPDECVN
003185: 41,3625           30123                           CA       NVTEMP                                #                  USES MPAC, +1, +2
003186: 41,3626           54023                           TS       EDOP                                  #  RIGHT 7
003187: 41,3627           30023                           CA       EDOP
003188: 41,3630           54160                           TS       MPAC       +4                         #  TEMP FOR VERB (CANT USE MPAC+1. DSPDECVN
003189:                                                                                                  #                 USES MPAC, +1, +2).
003190: 41,3631           10157                           CCS      MPAC       +3                         #  TEST NOUN
003191: 41,3632           03640                           TC       NVSUB2                                #  IF NOUN NOT +0, GO ON
003192: 41,3633           30160                           CA       MPAC       +4
003193: 41,3634           02366                           TC       UPDATVB    -1                         #  IF NOUN = +0, DISPLAY VERB . THEN RETURN
003194: 41,3635           34746                           CAF      ZERO                                  #  ZERO REQRET SO THAT PASTED VERBS CAN
003195: 41,3636           55012                           TS       REQRET                                #  BE EXECUTED BY OPERATOR.
003196: 41,3637           04173        ENTSET             TC       NVSUBEND
003197: 41,3640           10160        NVSUB2             CCS      MPAC       +4                         #  TEST VERB
003198: 41,3641           03645                           TC       +4                                    #  IF VERB NOT +0, GO ON
003199: 41,3642           30157                           CA       MPAC       +3
003200: 41,3643           02346                           TC       UPDATNN    -1                         #  IF VERB = +0, DISPLAY NOUN. THEN RETURN
003201: 41,3644           04173                           TC       NVSUBEND


003203: 41,3645           30156                           CA       MPAC       +2                         #  TEMP FOR MACH CADR TO BE SPEC. (DSPDECVN
003204: 41,3646           54161                           TS       MPAC       +5                         #               USES MPAC, +1, +2)
003205: 41,3647           30160                           CA       MPAC       +4
003206: 41,3650           02366                           TC       UPDATVB    -1                         #  IF BOTH NOUN AND VERB NOT +0, DISPLAY
003207: 41,3651           30157                           CA       MPAC       +3                         #  BOTH AND GO TO ENTPAS0.
003208: 41,3652           02346                           TC       UPDATNN    -1
003209: 41,3653           34746                           CAF      ZERO
003210: 41,3654           55013                           TS       LOADSTAT                              #  SET FOR WAITING FOR DATA CONDITION
003211: 41,3655           55014                           TS       CLPASS
003212: 41,3656           55012                           TS       REQRET                                #  SET REQRET FOR PASS 0.
003213: 41,3657           30161                           CA       MPAC       +5                         #  RESTORES MACH CADR TO BE SPEC TO MPAC+2
003214: 41,3660           54156                           TS       MPAC       +2                         #  FOR USE IN INTMCTBS (IN ENTPAS0).
003215: 41,3661           02062        ENDNVSB1           TC       ENTPAS0
003216:
003217:
003218:                                                                                                  #  IF INTERNAL MACH CADR TO BE SPECIFIED, MPAC+2 WILL BE PLACED INTO
003219:                                                                                                  #  NOUNCADR IN ENTPAS0 (INTMCTBS ).
003220:
003221:    4175                                           SETLOC   NVSUBEND   +2
003222:    4175                                           COUNT*   $$/PIN
003223:                                                                                                  #  FORCE BIT 15 OF MONSAVE1 TO 1.
003224:    4175           34726        KILMONON           CAF      BIT15                                 #     THIS IS THE KILL MONITOR BIT.
003225:    4176           55020                           TS       MONSAVE1                              #  TURN OFF BIT 14, THE EXTERNAL
003226:                                                                                                  #   MONITOR BIT.
003227:    4177           00002                           TC       Q
003228:
003229:
003230:                                                                                                  #  LOADSTAT  +0 INACTIVE(WAITING FOR DATA). SET BY NVSUB
003231:                                                                                                  #            +1  PROCEED NO DATA. SET BY SPECIAL VERB
003232:                                                                                                  #           -1 TERMINATE   SET BY SPECIAL VERB
003233:                                                                                                  #           -0    DATA IN      SET BY END OF LOAD ROUTINE
003234:                                                                                                  #              OR RESEQUENCE   SET BY VERB 32
003235:
003236:
003237:                                                                                                  #  L  TC ENDIDLE  (FIXED FIXED)
003238:                                                                                                  #  ROUTINES THAT REQUEST LOADS THROUGH NVSUB SHOULD USE ENDIDLE WHILE
003239:                                                                                                  #  WAITING FOR THE DATA TO BE LOADED. ENDIDLE PUTS CURRENT JOB TO SLEEP.
003240:                                                                                                  #  ENDIDLE CANNOT BE CALLED FROM ERASABLE OR F/F MEMORY,
003241:                                                                                                  #  SINCE JOBSLEEP AND JOBWAKE CAN HANDLE ONLY FIXED BANKS.
003242:                                                                                                  #  RECALTST TESTS LOADSTAT AND WAKES JOB UP TO,
003243:                                                                                                  #  L+1      FOR TERMINATE
003244:                                                                                                  #  L+2      FOR PROCEED WITHOUT DATA
003245:                                                                                                  #  L+3      FOR DATA IN, OR RESEQUENCE
003246:                                                                                                  #  IT DOES NOTHING IF LOADSTAT INDICATES WAITING FOR DATA.
003247:
003248:
003249:                                                                                                  #  ENDIDLE ABORTS (WITH CODE 01206) IF A SECOND JOB ATTEMPTS TO GO TO SLEEP
003250:                                                                                                  #  IN PINBALL. IN PARTICULAR, IF AN ATTEMPT IS MADE TO GO TO ENDIDLE WHEN
003251:                                                                                                  #  1) CADRSTOR NOT= +0. THIS IS THE CASE WHERE THE CAPACITY OF ENDIDLE IS


003253:                                                                                                  #  EXCEEDED. (+-NZ INDICATE A JOB IS ALREADY ASLEEP DUE TO ENDIDLE.)
003254:                                                                                                  #  2) DSPLIST NOT= +0. THIS INDICATES A JOB IS ALREADY ASLEEP DUE TO
003255:                                                                                                  #  NVSUBUSY.
003256:
003257:    4200           22002        ENDIDLE            LXCH     Q                                     #  RETURN ADDRESS INTO L.
003258:    4201           04211                           TC       ISCADR+0                              #  ABORT IF CADRSTOR NOT= +0
003259:    4202           04215                           TC       ISLIST+0                              #  ABORT IF DSPLIST NOT= +0
003260:    4203           30001                           CA       L                                     #  DONT SET DSPLOCK TO 1 SO CAN USE
003261:    4204           75003                           MASK     LOW10                                 #  ENDIDLE WITH NVSUB INITIATED MONITOR.
003262:    4205           60004                           AD       FBANK                                 #  SAME STRATEGY FOR CADR AS MAKECADR.
003263:    4206           55041                           TS       CADRSTOR
003264:    4207           05124                           TC       JOBSLEEP
003265:
003266:
003267:    4210           05146        ENDINST            TC       ENDOFJOB
003268:
003269:
003270:    4211           11041        ISCADR+0           CCS      CADRSTOR                              #  ABORTS (CODE 01206) IF CADRSTOR NOT= +0.
003271:    4212           04220                           TC       DSPABORT                              #  RETURNS IF CADRSTOR = +0.
003272:    4213           00002                           TC       Q
003273:    4214           04220                           TC       DSPABORT
003274:
003275:    4215           11042        ISLIST+0           CCS      DSPLIST                               #  ABORTS (CODE 01206) IF DSPLIST NOT= +0.
003276:    4216           04220                           TC       DSPABORT                              #  RETURNS IF DSPLIST = +0.
003277:    4217           00002                           TC       Q
003278:    4220           05626        DSPABORT           TC       BAILOUT
003279:    4221           31206                           OCT      31206
003280:
003281:                                                                                                  #  JAMTERM ALLOWS PROGRAMS TO PERFORM THE TERMINATE FUNCTION.
003282:                                                                                                  #  IT DOES ENDOFJOB.
003283:
003284:    4222           34172        JAMTERM            CAF      PINSUPBT
003285:    4223           00006                           EXTEND
003286:    4224           01007                           WRITE    SUPERBNK
003287:    4225           34233                           CAF      34DEC
003288:    4226           55012                           TS       REQRET                                #  LEAVE ENTER SET FOR ENTPASS0.
003289:    4227           44351                           CS       VD1
003290:    4230           54776                           TS       DSPCOUNT
003291:    4231           04626                           TC       POSTJUMP
003292:    4232           61477                           CADR     VBTERM
003293:
003294:    4233           00042        34DEC              DEC      34         B-14
003295:
003296:
003297:                                                                                                  #  JAMPROC ALLOWS PROGRAMS TO PERFORM THE PROCEED/PROCEED WITHOUT DATA
003298:                                                                                                  #  FUNCTION. IT DOES ENDOFJOB.
003299:
003300:    4234           34172        JAMPROC            CAF      PINSUPBT
003301:    4235           00006                           EXTEND
003302:    4236           01007                           WRITE    SUPERBNK


003304:    4237           34245                           CAF      33DEC
003305:    4240           55012                           TS       REQRET                                #  LEAVE ENTER SET FOR ENTPASS0.
003306:    4241           44351                           CS       VD1
003307:    4242           54776                           TS       DSPCOUNT
003308:    4243           04626                           TC       POSTJUMP
003309:    4244           61471                           CADR     VBPROC
003310:
003311:    4245           00041        33DEC              DEC      33         B-14
003312:
003313:
003314:                                                                                                  #  BLANKSUB BLANKS ANY COMBINATION OF R1, R2, R3.
003315:                                                                                                  #  CALL WITH BLANKING CODE IN A.
003316:                                                                                                  #  BIT1=1 BLANKS R1, BIT2=1 BLANKS R2, BIT3=1 BLANKS R3.
003317:                                                                                                  #  ANY COMBINATION OF THESE BITS IS ACCEPTED.
003318:
003319:                                                                                                  #  DSPCOUNT IS RESTORED TO STATE IT WAS IN BEFORE BLANKSUB WAS EXECUTED.
003320:
003321:    4246           74750        BLANKSUB           MASK     SEVEN
003322:    4247           54123                           TS       NVTEMP                                #  STORE BLANKING CODE IN NVTEMP.
003323:    4250           34727                           CAF      BIT14
003324:    4251           71020                           MASK     MONSAVE1                              #  EXTERNAL MONITOR BIT
003325:    4252           61011                           AD       DSPLOCK
003326:    4253           10000                           CCS      A
003327:    4254           00002                           TC       Q                                     #  DSP SYST BLOCKED. RET TO 1+ CALLING LOC
003328:    4255           24002                           INCR     Q                                     #  DSP SYST AVAILABLE
003329:                                                                                                  #  SET RETURN FOR 2+ CALLING LOC
003330:    4256           10123                           CCS      NVTEMP
003331:    4257           14261                           TCF      +2
003332:    4260           00002                           TC       Q                                     #  NOTHING TO BLANK. RET TO 2+ CALLING LOC
003333:    4261           22002                           LXCH     Q                                     #  SET RETURN FOR 2 + CALLING LOC
003334:    4262           34273                           CAF      BLNKBBNK
003335:    4263           56006                           XCH      BBANK
003336:    4264           00006                           EXTEND
003337:    4265           04007                           ROR      SUPERBNK                              #  SAVE OLD SUPERBITS.
003338:    4266           52131                           DXCH     BUF
003339:    4267           34172                           CAF      PINSUPBT
003340:    4270           00006                           EXTEND
003341:    4271           01007                           WRITE    SUPERBNK
003342:    4272           03543                           TC       BLNKSUB1
003343:
003344:    4273     0776                                  EBANK=   DSPCOUNT
003345:    4273           60101        BLNKBBNK           BBCON    BLNKSUB1
003346:    4274                        ENDBLFF            EQUALS
003347:
003348: 40,3543                                           SETLOC   ENDRELDS
003349: 40,3543                                           COUNT*   $$/PIN
003350: 40,3543           30776        BLNKSUB1           CA       DSPCOUNT                              #  SAVE OLD DSPCOUNT FOR LATER RESTORATION
003351: 40,3544           54132                           TS       BUF        +2
003352: 40,3545           34744                           CAF      BIT1                                  #  TEST BIT1. SEE IF R1 TO BE BLANKED.
003353: 40,3546           03565                           TC       TESTBIT


003355: 40,3547           34310                           CAF      R1D1
003356: 40,3550           02524                           TC       5BLANK     -1
003357: 40,3551           34743                           CAF      BIT2                                  #  TEST BIT 2. SEE IF R2 TO BE BLANKED.
003358: 40,3552           03565                           TC       TESTBIT
003359: 40,3553           34311                           CAF      R2D1
003360: 40,3554           02524                           TC       5BLANK     -1
003361: 40,3555           34742                           CAF      BIT3                                  #  TEST BIT3. SEE IF R3 TO BE BLANKED.
003362: 40,3556           03565                           TC       TESTBIT
003363: 40,3557           34312                           CAF      R3D1
003364: 40,3560           02524                           TC       5BLANK     -1
003365: 40,3561           30132                           CA       BUF        +2                         #  RESTORE DSPCOUNT TO STATE IT HAD
003366: 40,3562           54776                           TS       DSPCOUNT                              #       BEFORE BLANKSUB.
003367: 40,3563           52131                           DXCH     BUF                                   #  CALL L+2 DIRECTLY.
003368: 40,3564           05170                           TC       SUPDXCHZ   +1                         #  DTCB WITH SUPERBIT SWITCHING
003369:
003370: 40,3565           70123        TESTBIT            MASK     NVTEMP                                #  NVTEMP CONTAINS BLANKING CODE.
003371: 40,3566           10000                           CCS      A
003372: 40,3567           00002                           TC       Q                                     #  IF CURRENT BIT = 1, RETURN TO L+1.
003373: 40,3570           50002                           INDEX    Q                                     #  IF CURRENT BIT = 0, RETURN TO L+3.
003374: 40,3571           00002                           TC       2
003375:
003376: 40,3572                        ENDBSUB1           EQUALS
003377:
003378:
003379:                                                                                                  #  DSPMM DOES NOT DISPLAY MODREG DIRECTLY. IT PUTS IN EXEC REQUEST WITH
003380:                                                                                                  #  PRIO 30000 FOR DSPMMJB AND RETURNS TO CALLER.
003381:
003382:                                                                                                  #  IF MODREG CONTAINS -0, DSPMMJB BLANKS THE MODE LIGHTS.
003383:
003384:                                                                                                  #  DSPMM MUST BE IN BANK 27 OR LOWER, SO IT CAN BE CALLED VIA BANKCALL.
003385:
003386: 07,2607                                           BANK     7
003387: 04,2000                                           SETLOC   PINBALL4
003388: 04,2000                                           BANK
003389:
003390: 04,2657                                           COUNT*   $$/PIN
003391: 04,2657           56002        DSPMM              XCH      Q
003392: 04,2660           54154                           TS       MPAC
003393: 04,2661           00004                           INHINT
003394: 04,2662           34346                           CAF      CHRPRIO
003395: 04,2663           05063                           TC       NOVAC
003396: 04,2664     0776                                  EBANK=   DSPCOUNT
003397: 04,2664           03572 60101                     2CADR    DSPMMJB
003398:
003399: 04,2666           00003                           RELINT
003400: 04,2667           00154        ENDSPMM            TC       MPAC
003401:
003402:                                                                                                  #  DSPMM  PLACE MAJOR MODE CODE INTO MODREG
003403:
003404: 40,3572                                           SETLOC   ENDBSUB1


003406: 40,3572                                           COUNT*   $$/PIN
003407: 40,3572           34353        DSPMMJB            CAF      MD1                                   #  GETS HERE THRU DSPMM
003408: 40,3573           56776                           XCH      DSPCOUNT
003409: 40,3574           54140                           TS       DSPMMTEM                              #  SAVE DSPCOUNT
003410: 40,3575           11010                           CCS      MODREG
003411: 40,3576           64744                           AD       ONE
003412: 40,3577           03335                           TC       DSPDECVN                              #  IF MODREG IS + OR +0, DISPLAY MODREG
003413: 40,3600           03602                           TC       +2                                    #  IF MODREG IS -NZ, DO NOTHING
003414: 40,3601           02570                           TC       2BLANK                                #  IF MODREG IS -0, BLANK MM
003415: 40,3602           56140                           XCH      DSPMMTEM                              #  RESTORE DSPCOUNT
003416: 40,3603           54776                           TS       DSPCOUNT
003417: 40,3604           05146                           TC       ENDOFJOB
003418:
003419:
003420:                                                                                                  #  RECALTST IS ENTERED DIRECTLY AFTER DATA IS LOADED (OR RESEQUENCE VERB IS
003421:                                                                                                  #  EXECUTED), TERMINATE VERB IS EXECUTED, OR PROCEED WITHOUT DATA VERB IS
003422:                                                                                                  #  EXECUTED. IT WAKES UP JOB THAT DID TC ENDIDLE.
003423:
003424:                                                                                                  #  IF CADRSTOR NOT= +0, IT PUTS +0 INTO DSPLOCK, AND TURNS OFF KEY RLSE
003425:                                                                                                  #  LIGHT IF DSPLIST IS EMPTY (LEAVES KEY RLSE LIGHT ALONE IF NOT EMPTY).
003426:
003427: 40,3605           11041        RECALTST           CCS      CADRSTOR
003428: 40,3606           03610                           TC       RECAL1
003429: 40,3607           05146                           TC       ENDOFJOB                              #  NORMAL EXIT IF KEYBOARD INITIATED
003430: 40,3610           34746        RECAL1             CAF      ZERO
003431: 40,3611           57041                           XCH      CADRSTOR
003432: 40,3612           00004                           INHINT
003433: 40,3613           05130                           TC       JOBWAKE
003434: 40,3614           11013                           CCS      LOADSTAT
003435: 40,3615           03637                           TC       DOPROC                                #  + PROCEED WITHOUT DATA
003436: 40,3616           05146                           TC       ENDOFJOB                              #  PATHALOGICAL CASE EXIT
003437: 40,3617           03635                           TC       DOTERM                                #  -   TERMINATE
003438: 40,3620           34743                           CAF      TWO                                   #  -0 DATA IN OR RESEQUENCE
003439: 40,3621           50064        RECAL2             INDEX    LOCCTR
003440: 40,3622           60164                           AD       LOC                                   #  LOC IS + FOR BASIC JOBS
003441: 40,3623           50064                           INDEX    LOCCTR
003442: 40,3624           54164                           TS       LOC
003443: 40,3625           31001                           CA       NOUNREG                               #  SAVE VERB IN MPAC, NOUN IN MPAC+1 AT
003444: 40,3626           54001                           TS       L                                     #  TIME OF RESPONSE TO ENDIDLE FOR
003445: 40,3627           31000                           CA       VERBREG                               #  POSSIBLE LATER TESTING BY JOB THAT HAS
003446: 40,3630           50064                           INDEX    LOCCTR                                #  BEEN WAKED UP.
003447: 40,3631           52155                           DXCH     MPAC
003448: 40,3632           00003                           RELINT
003449: 40,3633           04450        RECAL3             TC       RELDSP
003450: 40,3634           05146                           TC       ENDOFJOB
003451:
003452: 40,3635           34746        DOTERM             CAF      ZERO
003453: 40,3636           03621                           TC       RECAL2
003454:
003455: 40,3637           34744        DOPROC             CAF      ONE


003457: 40,3640           03621                           TC       RECAL2
003458:


003460:                                                                                                  #  MISCELLANEOUS SERVICE ROUTINES IN FIXED/FIXED
003461:
003462:    4274                                           SETLOC   ENDBLFF
003463:
003464:    4274                                           COUNT*   $$/PIN
003465:                                                                                                  #  SETNCADR       E CADR ARRIVES IN A. IT IS STORED IN NOUNCADR. EBANK BITS
003466:                                                                                                  #                 ARE SET. E ADRES IS DERIVED AND PUT INTO NOUNADD.
003467:
003468:    4274           55016        SETNCADR           TS       NOUNCADR                              #  STORE ECADR
003469:    4275           54003                           TS       EBANK                                 #  SET EBANK BITS
003470:    4276           74350                           MASK     LOW8
003471:    4277           65000                           AD       OCT1400
003472:    4300           54145                           TS       NOUNADD                               #  PUT E ADRES INTO NOUNADD
003473:    4301           00002                           TC       Q
003474:
003475:
003476:                                                                                                  #  SETNADD        GETS E CADR FROM NOUNCADR, SETS EBANK BITS, DERIVES
003477:                                                                                                  #                 E ADRES AND PUTS IT INTO NOUNADD.
003478:
003479:    4302           31016        SETNADD            CA       NOUNCADR
003480:    4303           14275                           TCF      SETNCADR   +1
003481:
003482:                                                                                                  #  SETEBANK       E CADR ARRIVES IN A. EBANK BITS ARE SET. E ADRES IS
003483:                                                                                                  #                 DERIVED AND LEFT IN A.
003484:
003485:    4304           54003        SETEBANK           TS       EBANK                                 #  SET EBANK BITS
003486:    4305           74350                           MASK     LOW8
003487:    4306           65000                           AD       OCT1400                               #  E ADRES LEFT IN A
003488:    4307           00002                           TC       Q
003489:
003490:
003491:    4310           00016        R1D1               OCT      16                                    #  THESE 3 CONSTANTS FORM A PACKED TABLE.
003492:    4311           00011        R2D1               OCT      11                                    #  DONT SEPARATE.
003493:    4312           00004        R3D1               OCT      4
003494:
003495:    4313           54020        RIGHT5             TS       CYR
003496:    4314           40020                           CS       CYR
003497:    4315           40020                           CS       CYR
003498:    4316           40020                           CS       CYR
003499:    4317           40020                           CS       CYR
003500:    4320           56020                           XCH      CYR
003501:    4321           00002                           TC       Q
003502:
003503:    4322           54022        LEFT5              TS       CYL
003504:    4323           40022                           CS       CYL
003505:    4324           40022                           CS       CYL
003506:    4325           40022                           CS       CYL
003507:    4326           40022                           CS       CYL


003509:    4327           56022                           XCH      CYL
003510:    4330           00002                           TC       Q
003511:
003512:    4331           60000        SLEFT5             DOUBLE
003513:    4332           60000                           DOUBLE
003514:    4333           60000                           DOUBLE
003515:    4334           60000                           DOUBLE
003516:    4335           60000                           DOUBLE
003517:    4336           00002                           TC       Q
003518:
003519:
003520:    4337           00037        LOW5               OCT      37                                    #  THESE 3 CONSTANTS FORM A PACKED TABLE.
003521:    4340           01740        MID5               OCT      1740                                  #  DONT SEPARATE.
003522:    4341           76000        HI5                OCT      76000                                 #  MUST STAY HERE
003523:
003524:    4342           05063        TCNOVAC            TC       NOVAC
003525:    4343           05205        TCWAIT             TC       WAITLIST
003526:    4344           05263        TCTSKOVR           TC       TASKOVER
003527:    4345           05076        TCFINDVC           TC       FINDVAC
003528:
003529:
003530:    4346           30000        CHRPRIO            OCT      30000                                 #  EXEC PRIORITY OF CHARIN
003531:
003532:
003533:    4347           03777        LOW11              OCT      3777
003534:    4350     4347               B12-1              EQUALS   LOW11
003535:    4350           00377        LOW8               OCT      377
003536:
003537:
003538:    4351           00023        VD1                OCT      23                                    #  THESE 3 CONSTANTS FORM A PACKED TABLE.
003539:    4352           00021        ND1                OCT      21                                    #  DONT SEPARATE.
003540:    4353           00025        MD1                OCT      25
003541:
003542:    4354           00012        BINCON             DEC      10         B-14
003543:
003544:    4355           34736        FALTON             CA       BIT7                                  #  TURN ON OPERATOR ERROR LIGHT
003545:    4356           00006                           EXTEND
003546:    4357           05011                           WOR      DSALMOUT                              #  BIT 7 OF CHANNEL 11
003547:    4360           00002                           TC       Q
003548:
003549:    4361           44736        FALTOF             CS       BIT7                                  #  TURN OFF OPERATOR ERROR LIGHT
003550:    4362           00006                           EXTEND
003551:    4363           03011                           WAND     DSALMOUT                              #  BIT 7 OF CHANNEL 11
003552:    4364           00002                           TC       Q
003553:
003554:    4365           34740        RELDSPON           CAF      BIT5                                  #  TURN ON KEY RELEASE LIGHT
003555:    4366           00006                           EXTEND
003556:    4367           05011                           WOR      DSALMOUT                              #  BIT 5 OF CHANNEL 11
003557:    4370           00002                           TC       Q
003558:


003560:    4371           00006        LODSAMPT           EXTEND
003561:    4372           30025                           DCA      TIME2
003562:    4373           52014                           DXCH     SAMPTIME
003563:    4374           00002                           TC       Q
003564:
003565:
003566:    4375           00006        TPSL1              EXTEND                                         #  SHIFTS MPAC, +1, +2 LEFT 1
003567:    4376           30156                           DCA      MPAC       +1                         #  LEAVES OVFIND SET TO +/- 1 FOR OF/UF
003568:    4377           20156                           DAS      MPAC       +1
003569:    4400           60154                           AD       MPAC
003570:    4401           26154                           ADS      MPAC
003571:    4402           54007                           TS       7                                     #  TS A DOES NOT CHANGE A ON OF/UF.
003572:    4403           00002                           TC       Q                                     #  NO NET OF/UF
003573:    4404           54162                           TS       MPAC+6                                #  MPAC +6 SET TO +/-1 FOR OF/UF
003574:    4405           00002                           TC       Q
003575:
003576:
003577:                                                                                                  #  IF MPAC, +1 ARE EACH +NZ OR +0 AND C(A)=-0, SHORTMP WRONGLY GIVES +0.
003578:                                                                                                  #  IF MPAC, +1 ARE EACH -NZ OR -0 AND C(A)=+0, SHORTMP WRONGLY GIVES +0.
003579:                                                                                                  #  PRSHRTMP FIXES FIRST CASE ONLY, BY MERELY TESTING C(A) AND IF IT = -0,
003580:                                                                                                  #  SETTING RESULT TO -0.
003581:                                                                                                  #   (DO NOT USE PRSHRTMP UNLESS MPAC, +1 ARE EACH +NZ OR +0, AS THEY ARE
003582:                                                                                                  #   WHEN THEY CONTAIN TH E SF CONSTANTS.)
003583:
003584:    4406           54135        PRSHRTMP           TS       MPTEMP
003585:    4407           10000                           CCS      A
003586:    4410           30135                           CA       MPTEMP                                #  C(A) +, DO REGULAR SHORTMP
003587:    4411           17331                           TCF      SHORTMP    +1                         #  C(A) +0, DO REGULAR SHORTMP
003588:    4412           14410                           TCF      -2                                    #  C(A) -, DO REGULAR SHORTMP
003589:    4413           44746                           CS       ZERO                                  #  C(A) -0, FORCE RESULT TO -0 AND RETURN.
003590:    4414           54154                           TS       MPAC
003591:    4415           54155                           TS       MPAC       +1
003592:    4416           54156                           TS       MPAC       +2
003593:    4417           00002                           TC       Q
003594:
003595:
003596:    4420           34737        FLASHON            CAF      BIT6                                  #  TURN ON V/N FLASH
003597:    4421           00006                           EXTEND                                         #  BIT 6 OF CHANNEL 11
003598:    4422           05011                           WOR      DSALMOUT
003599:    4423           00002                           TC       Q
003600:
003601:
003602:    4424           44737        FLASHOFF           CS       BIT6                                  #  TURN OFF V/N FLASH
003603:    4425           00006                           EXTEND
003604:    4426           03011                           WAND     DSALMOUT                              #  BIT 6 OF CHANNEL 11
003605:    4427           00002                           TC       Q
003606:


003608:                                                                                                  #  INTERNAL USE OF KEYBOARD AND DISPLAY PROGRAM
003609:
003610:                                                                                                  #  USER MUST SCHEDULE CALLS TO NVSUB SO THAT THERE IS NO CONFLICT OF USE OR
003611:                                                                                                  #  CONFUSION TO OPERATOR. THE OLD GRABLOCK (INTERNAL/INTERNAL INTERLOCK)
003612:                                                                                                  #  HAS BEEN REMOVED AND THE INTERNAL USER NO LONGER HAS THE PROTECTION THIS
003613:                                                                                                  #  OFFERED.
003614:
003615:                                                                                                  #  THERE ARE TWO WAYS A JOB CAN BE PUT TO SLEEP BY THE KEYBOARD + DISPLAY
003616:                                                                                                  #  PROGRAM.    1) BY ENDIDLE
003617:                                                                                                  #              2) BY NVSUBUSY
003618:                                                                                                  #  THE BASIC CONVENTION IS THAT ONLY ONE JOB WILL BE PERMITTED ASLEEP VIA
003619:                                                                                                  #  THE KEYBOARD + DISPLAY PROGRAM AT A TIME. IF A JOB ATTEMPTS TO GO TO
003620:                                                                                                  #  SLEEP BY MEANS OF (1) OR (2) AND THERE IS ALREADY A JOB ASLEEP THAT WAS
003621:                                                                                                  #  PUT TO SLEEP BY (1) OR (2), THEN AN ABORT IS CAUSED.
003622:
003623:
003624:                                                                                                  #  THE CALLING SEQUENCE FOR NVSUB IS
003625:                                                                                                  #           CAF    V/N
003626:                                                                                                  #  L        TC     NVSUB
003627:                                                                                                  #  L+1      RETURN HERE IF OPERATOR HAS INTERVENED
003628:                                                                                                  #  L+2      RETURN HERE AFTER EXECUTION
003629:
003630:
003631:                                                                                                  #        A ROUTINE CALLED  NVSUBUSY IS PROVIDED (USE IS OPTIONAL)  TO PUT
003632:                                                                                                  #  YOUR JOB TO SLEEP UNTIL THE OPERATOR RELEASES THE KEYBOARD + DISPLAY
003633:                                                                                                  #  SYSTEM. NVSUBUSY ALSO TURNS ON THE KEY RELEASE LIGHT.
003634:                                                                                                  #  NVSUBUSY CANNOT BE CALLED FROM ERASABLE OR F/F MEMORY,
003635:                                                                                                  #  SINCE JOBSLEEP AND JOBWAKE CAN HANDLE ONLY FIXED BANKS.
003636:
003637:
003638:                                                                                                  #         THE CALLING SEQUENCE IS
003639:                                                                                                  #           CAF    WAKEFCADR
003640:                                                                                                  #           TC     NVSUBUSY
003641:
003642:
003643:                                                                                                  #  .
003644:
003645:
003646:                                                                                                  #  NVSUBUSY IS INTENDED FOR USE WHEN AN INTERNAL PROGRAM FINDS THE OPERATOR
003647:                                                                                                  #  IS USING THE KEYBOARD + DISPLAY PROGRAM (BY HIS OWN INITIATION). IT IS
003648:                                                                                                  #  NOT INTENDED FOR USE WHEN ONE INTERNAL PROGRAM FINDS ANOTHER INTERNAL
003649:                                                                                                  #  PROGRAM USING THE KEYBOARD + DISPLAY PROGRAM.
003650:
003651:
003652:                                                                                                  #  NVSUBUSY ABORTS (WITH CODE 01206) IF A SECOND JOB ATTEMPTS TO GO TO
003653:                                                                                                  #  SLEEP IN PINBALL. IN PARTICULAR, IF AN ATTEMPT IS MADE TO GO TO NVSUBUSY
003654:                                                                                                  #  WHEN
003655:                                                                                                  #  1) DSPLIST NOT= +0. THIS IS THE CASE WHERE THE CAPACITY OF THE DSPLIST
003656:                                                                                                  #     IS EXCEEDED.
003657:                                                                                                  #  2) CADRSTOR NOT= +0. THIS INDICATES THAT A JOB IS ALREADY USING


003659:                                                                                                  #  ENDIDLE. (+-NZ INDICATE A JOB IS ALREADY ASLEEP DUE TO ENDIDLE.)
003660:
003661:    4430           44435        PRENVBSY           CS       2K+3                                  #  SPECIAL ENTRANCE FOR ROUTINES IN FIXED
003662:    4431           60002                           AD       Q                                     #  BANKS ONLY DESIRING THE FCADR OF(LOC
003663:    4432           60004                           AD       FBANK                                 #  FROM WHICH THE TC PRENVBSY WAS DONE) -2
003664:    4433           04626        NVSUBUSY           TC       POSTJUMP                              #  TO BE ENTERED.
003665:    4434           10670                           CADR     NVSUBSY1
003666:    4435           02003        2K+3               OCT      2003
003667:
003668:                                                                                                  #  NVSUBSY1 MUST BE IN BANK 27 OR LOWER, SO IT WILL PUT CALLER TO SLEEP
003669:                                                                                                  #  WITH HIS PROPER SUPERBITS.
003670:
003671: 04,2670                                           SETLOC   ENDSPMM    +1
003672: 04,2670                                           COUNT*   $$/PIN
003673: 04,2670           54001        NVSUBSY1           TS       L
003674: 04,2671           04211                           TC       ISCADR+0                              #  ABORT IF CADRSTOR NOT= +0.
003675: 04,2672           04215                           TC       ISLIST+0                              #  ABORT IF DSPLIST NOT= +0.
003676: 04,2673           04365                           TC       RELDSPON
003677: 04,2674           30001                           CA       L
003678: 04,2675           55042                           TS       DSPLIST
003679: 04,2676           05124        ENDNVBSY           TC       JOBSLEEP
003680:
003681:
003682:                                                                                                  #  NVSBWAIT IS A SPECIAL ENTRANCE FOR ROUTINES IN FIXED BANKS ONLY. IF
003683:                                                                                                  #  SYSTEM IS NOT BUSY, IT EXECUTES V/N AND RETURNS TO L+1 (L= LOC FROM
003684:                                                                                                  #  WHICH THE TC NVSBWAIT WAS DONE). IF SYSTEM IS BUSY, IT PUTS CALLING JOB
003685:                                                                                                  #  TO SLEEP WITH L-1 GOING INTO LIST FOR EVENTUAL WAKING UP WHEN SYSTEM
003686:                                                                                                  #  IS NOT BUSY.
003687:
003688:    4436                                           SETLOC   NVSUBUSY   +3
003689:    4436                                           COUNT*   $$/PIN
003690:    4436           22007        NVSBWAIT           LXCH     7                                     #  ZERO NVMONOPT OPTIONS
003691:    4437           54123                           TS       NVTEMP
003692:    4440           34727                           CAF      BIT14
003693:    4441           71020                           MASK     MONSAVE1                              #  EXTERNAL MONITOR BIT
003694:    4442           61011                           AD       DSPLOCK
003695:    4443           10000                           CCS      A
003696:    4444           14446                           TCF      NVSBWT1                               #  BUSY
003697:    4445           14155                           TCF      NVSBCOM                               #  FREE. NVSUB WILL SAVE L+1 FOR RETURN
003698:                                                                                                  #  AFTER EXECUTION.
003699:    4446           24002        NVSBWT1            INCR     Q                                     #  L+2. PRENVBSY WILL PUT L-1 INTO LIST AND
003700:    4447           14430                           TCF      PRENVBSY                              #  GO TO SLEEP.
003701:
003702:
003703:                                                                                                  #  RELDSP IS USED BY VBPROC, VBTERM, VBRQEXEC, VBRQWAIT, VBRELDSP, EXTENDED
003704:                                                                                                  #  VERB DISPATCHER, VBRESEQ, RECALTST.
003705:                                                                                                  #  RELDSP1 IS USED BY MONITOR SET UP, VBRELDSP.
003706:    4450           56002        RELDSP             XCH      Q                                     #  SET DSPLOCK TO +0, TURN RELDSP LIGHT
003707:    4451           54144                           TS       RELRET                                #  OFF,  SEARCH DSPLIST
003708:    4452           44727                           CS       BIT14


003710:    4453           00004                           INHINT
003711:    4454           71020                           MASK     MONSAVE1
003712:    4455           55020                           TS       MONSAVE1                              #  TURN OFF EXTERNAL MONITOR BIT
003713:    4456           11042                           CCS      DSPLIST
003714:    4457           04461                           TC       +2
003715:    4460           04464                           TC       RELDSP2                               #  LIST EMPTY
003716:    4461           34746                           CAF      ZERO
003717:    4462           57042                           XCH      DSPLIST
003718:    4463           05130                           TC       JOBWAKE
003719:    4464           00003        RELDSP2            RELINT
003720:    4465           44740                           CS       BIT5                                  #  TURN OFF KEY RELEASE LIGHT
003721:    4466           00006                           EXTEND                                         #  (BIT 5 OF CHANNEL 11)
003722:    4467           03011                           WAND     DSALMOUT
003723:    4470           34746                           CAF      ZERO
003724:    4471           55011                           TS       DSPLOCK
003725:    4472           00144                           TC       RELRET
003726:    4473           56002        RELDSP1            XCH      Q                                     #  SET DSPLOCK TO +0. NO DSPLIST SEARCH.
003727:    4474           54144                           TS       RELRET                                #  TURN KEY RLSE LIGHT OFF IF DSPLIST IS
003728:                                                                                                  #  EMPTY. LEAVE KEY RLSE LIGHT ALONE IF
003729:                                                                                                  #  DSPLIST IS NOT EMPTY.
003730:    4475           11042                           CCS      DSPLIST
003731:    4476           04500                           TC       +2                                    #  +  NOT EMPTY. LEAVE KEY RLSE LIGHT ALONE
003732:    4477           04464                           TC       RELDSP2                               #  +0 EMPTY. TURN OFF KEY RLSE LIGHT
003733:    4500           34746                           CAF      ZERO                                  #  -  NOT EMPTY. LEAVE KEY RLSE LIGHT ALONE
003734:    4501           55011                           TS       DSPLOCK
003735:    4502           00144                           TC       RELRET
003736:
003737:
003738:    4503                        ENDPINBF           EQUALS
003739:


003741:                                                                                                  #  PINTEST IS NEEDED FOR AUTO CHECK OF PINBALL.
003742:
003743:    4503  43,2002               PINTEST            EQUALS   LST2FAN
003744:


003746:                                                                                                  #  VBTSTLTS TURNS ON ALL DISPLAY PANEL LIGHTS. AFTER 5 SEC, IT TURNS
003747:                                                                                                  #  OFF THE CAUTION AND STATUS LIGHTS.
003748:
003749: 41,3662                                           SETLOC   ENDNVSB1   +1
003750:
003751: 41,3662                                           COUNT*   $$/PIN
003752: 41,3662           00004        VBTSTLTS           INHINT
003753: 41,3663           04607                           TC       BANKCALL                              #  OPP ERR IF NOT IN POO
003754: 41,3664           66121                           CADR     CHKPOOH
003755: 41,3665           44744                           CS       BIT1                                  #  SET BIT 1 OF IMODES33 SO IMUMON WONT
003756: 41,3666           71300                           MASK     IMODES33                              #  TURN OUT ANY LAMPS.
003757: 41,3667           64744                           AD       BIT1
003758: 41,3670           55300                           TS       IMODES33
003759:
003760: 41,3671           33730                           CAF      TSTCON1                               #  TURN ON UPLINK ACTIVITY, TEMP, KEY RLSE,
003761: 41,3672           00006                           EXTEND                                         #  V/N FLASH, OPERATOR ERROR.
003762: 41,3673           05011                           WOR      DSALMOUT
003763: 41,3674           33731                           CAF      TSTCON2                               #  TURN ON NO ATT, GIMBAL LOCK, TRACKER,
003764: 41,3675           55035                           TS       DSPTAB     +11D                       #  PROG ALM.
003765: 41,3676           06040                           TC       C13STALL
003766: 41,3677           34733                           CAF      BIT10                                 #  TURN ON TEST ALARM OUTBIT
003767: 41,3700           00006                           EXTEND
003768: 41,3701           05013                           WOR      CHAN13
003769: 41,3702           34354                           CAF      TEN
003770: 41,3703           54117        TSTLTS1            TS       ERCNT
003771: 41,3704           43726                           CS       FULLDSP
003772: 41,3705           50117                           INDEX    ERCNT
003773: 41,3706           55022                           TS       DSPTAB
003774: 41,3707           10117                           CCS      ERCNT
003775: 41,3710           03703                           TC       TSTLTS1
003776: 41,3711           43727                           CS       FULLDSP1
003777: 41,3712           55023                           TS       DSPTAB     +1                         #  TURN ON 3 PLUS SIGNS
003778: 41,3713           55026                           TS       DSPTAB     +4
003779: 41,3714           55030                           TS       DSPTAB     +6
003780: 41,3715           34751                           CAF      ELEVEN
003781: 41,3716           55015                           TS       NOUT
003782: 41,3717           00003                           RELINT
003783: 41,3720           33733                           CAF      SHOLTS
003784: 41,3721           00004                           INHINT
003785: 41,3722           05205                           TC       WAITLIST
003786: 41,3723     1022                                  EBANK=   DSPTAB
003787: 41,3723           03641 60102                     2CADR    TSTLTS2
003788:
003789: 41,3725           05146                           TC       ENDOFJOB                              #  DSPLOCK IS LEFT BUSY (FROM KEYBOARD
003790:                                                                                                  #  ACTION) UNTIL TSTLTS3 TO INSURE THAT
003791:                                                                                                  #  LIGHTS TEST WILL BE SEEN.
003792:
003793:
003794: 41,3726           05675        FULLDSP            OCT      05675                                 #  DISPLAY ALL 8:S
003795: 41,3727           07675        FULLDSP1           OCT      07675                                 #  DISPLAY ALL 8:S AND +
003796:


003798: 41,3730           00175        TSTCON1            OCT      00175
003799:                                                                                                  #  UPLINK ACTIVITY, TEMP, KEY RLSE,
003800:                                                                                                  #  V/N FLASH, OPERATOR ERROR.
003801: 41,3731           40677        TSTCON2            OCT      40677                                 #  DSPTAB +11D BITS 1,2,3,4,5,6,8,9.
003802:                                                                                                  #        DAP, LR, SUPER KEYREL,
003803:                                                                                                  #  NO ATT, GIMBAL LOCK, TRACKER, PROG ALM.
003804: 41,3732           00115        TSTCON3            OCT      0115                                  #  CHAN 11  BITS 1, 3, 4, 7.
003805:                                                                                                  #  UPLINK ACTIVITY, TEMP, OPERATOR ERROR.
003806: 41,3733           00764        SHOLTS             OCT      764                                   #  5 SEC
003807:
003808:
003809: 40,2000                                           SETLOC   PINBALL1
003810: 40,2000                                           BANK
003811:
003812: 40,3641           34346        TSTLTS2            CAF      CHRPRIO                               #  CALLED BY WAITLIST
003813: 40,3642           05063                           TC       NOVAC
003814: 40,3643     1022                                  EBANK=   DSPTAB
003815: 40,3643           03734 62102                     2CADR    TSTLTS3
003816:
003817: 40,3645           05263                           TC       TASKOVER
003818:
003819:
003820: 41,2000                                           SETLOC   PINBALL2
003821: 41,2000                                           BANK
003822:
003823: 41,3734           43732        TSTLTS3            CS       TSTCON3                               #  CALLED BY EXECUTIVE
003824: 41,3735           00004                           INHINT
003825: 41,3736           00006                           EXTEND                                         #  TURN OFF  UPLINK ACTIVITY, TEMP,
003826: 41,3737           03011                           WAND     DSALMOUT                              #  OPERATOR ERROR.
003827: 41,3740           06040                           TC       C13STALL
003828: 41,3741           44733                           CS       BIT10                                 #  TURN OFF TEST ALARM OUTBIT
003829: 41,3742           00006                           EXTEND
003830: 41,3743           03013                           WAND     CHAN13
003831: 41,3744           34741                           CAF      BIT4                                  #  MAKE NO ATT FOLLOW BIT 4 OF CHANNEL 12
003832: 41,3745           00006                           EXTEND                                         #    (NO ATT LIGHT ON IF IN COARSE ALIGN)
003833: 41,3746           02012                           RAND     CHAN12
003834: 41,3747           64726                           AD       BIT15                                 #  TURN OFF AUTO, HOLD, FREE, SPARE,
003835: 41,3750           55035                           TS       DSPTAB     +11D                       #  GIMBAL LOCK, SPARE, TRACKER, PROG ALM
003836: 41,3751           43774                           CS       13-11,1                               #  SET BITS TO INDICATE ALL LAMPS OUT. TEST
003837: 41,3752           71300                           MASK     IMODES33                              #  LIGHTS COMPLETE.
003838: 41,3753           65017                           AD       PRIO16
003839: 41,3754           55300                           TS       IMODES33
003840:
003841: 41,3755           43776                           CS       OCT55000
003842: 41,3756           71277                           MASK     IMODES30
003843: 41,3757           65016                           AD       PRIO15                                #  15000.
003844: 41,3760           55277                           TS       IMODES30
003845:
003846: 41,3761           43775                           CS       RFAILS2
003847: 41,3762           70110                           MASK     RADMODES


003849: 41,3763           64736                           AD       RCDUFBIT
003850: 41,3764           54110                           TS       RADMODES
003851:
003852: 41,3765           00003                           RELINT
003853:
003854: 41,3766           04607                           TC       BANKCALL                              #  REDISPLAY C(MODREG)
003855: 41,3767           10657                           CADR     DSPMM
003856: 41,3770           04175                           TC       KILMONON                              #  TURN ON KILL MONITOR BIT.
003857: 41,3771           04424                           TC       FLASHOFF                              #  TURN OFF V/N FLASH.
003858: 41,3772           04626                           TC       POSTJUMP                              #  DOES RELDSP AND GOES TO PINBRNCH IF
003859: 41,3773           61527                           CADR     TSTLTS4                               #   ENDIDLE IS AWAITING OPERATOR RESPONSE.
003860: 41,3774           16001        13-11,1            OCT      16001
003861: 41,3775           00330        RFAILS2            OCT      330                                   #  RADAR CDU AND DATA FAIL FLAGS.
003862: 41,3776           55000        OCT55000           OCT      55000
003863: 41,3777                        ENDPINS2           EQUALS
003864:


003866:                                                                                                  #  ERROR LIGHT RESET (RSET) TURNS OFF,
003867:                                                                                                  #  UPLINK ACTIVITY, AUTO, HOLD, FREE, OPERATOR ERROR,
003868:                                                                                                  #  PROG ALM, TRACKER FAIL.
003869:                                                                                                  #  LEAVES GIMBAL LOCK AND NO ATT ALONE.
003870:                                                                                                  #  IT ALSO ZEROES THE :TEST ALARM: OUT BIT, WHICH TURNS OFF STBY,RESTART.
003871:                                                                                                  #  IT ALSO SETS :CAUTION RESET: TO 1.
003872:                                                                                                  #  IT ALSO FORCES BIT 12 OF ALL DSPTAB ENTRIES TO 1.
003873:
003874: 40,2000                                           SETLOC   PINBALL1
003875: 40,2000                                           BANK
003876:
003877: 40,3646                                           COUNT*   $$/PIN
003878: 40,3646           56115        ERROR              XCH      21/22REG                              #  RESTORE ORIGINAL C(DSPLOCK). THUS ERROR
003879: 40,3647           55011                           TS       DSPLOCK                               #  LIGHT RESET LEAVES DSPLOCK UNCHANGED.
003880: 40,3650           00004                           INHINT
003881: 40,3651           34733                           CAF      BIT10                                 #  TURN ON :CAUTION RESET: OUTBIT
003882: 40,3652           00006                           EXTEND
003883: 40,3653           05011                           WOR      DSALMOUT                              #  BIT10 CHAN 11
003884: 40,3654           33735                           CAF      GL,ETC.                               #  LEAVE GIMBAL LOCK, NO ATT, DAPLITE,
003885:                                                                                                  #    & SUPER KEYRELEASE LITES INTACT
003886: 40,3655           71035                           MASK     DSPTAB     +11D                       #  TURNING OFF AUTO, HOLD, FREE,
003887: 40,3656           64726                           AD       BIT15                                 #  PROG ALARM, AND TRACKER.
003888: 40,3657           55035                           TS       DSPTAB     +11D
003889: 40,3660           45017                           CS       PRIO16                                #  RESET FAIL BITS WHICH GENERATE PROG
003890: 40,3661           71300                           MASK     IMODES33                              #  ALARM SO THAT IF THE FAILURE STILL
003891: 40,3662           65017                           AD       PRIO16                                #  EXISTS, THE ALARM WILL COME BACK.
003892: 40,3663           55300                           TS       IMODES33
003893: 40,3664           44733                           CS       BIT10
003894: 40,3665           71277                           MASK     IMODES30
003895: 40,3666           64733                           AD       BIT10
003896: 40,3667           55277                           TS       IMODES30
003897:
003898: 40,3670           43734                           CS       RFAILS
003899: 40,3671           70110                           MASK     RADMODES
003900: 40,3672           64736                           AD       RCDUFBIT
003901: 40,3673           54110                           TS       RADMODES
003902:
003903: 40,3674           06040                           TC       C13STALL
003904: 40,3675           44733                           CS       BIT10                                 #  TURN OFF :TEST ALARM: OUTBIT.
003905: 40,3676           00006                           EXTEND
003906: 40,3677           03013                           WAND     CHAN13
003907: 40,3700           43733                           CS       ERCON                                 #  TURN OFF UPLINK ACTIVITY,
003908: 40,3701           00006                           EXTEND                                         #  OPERATOR ERROR.
003909: 40,3702           03011                           WAND     DSALMOUT
003910: 40,3703           34354        TSTAB              CAF      BINCON                                #  (DEC 10)
003911: 40,3704           54117                           TS       ERCNT                                 #  ERCNT = COUNT
003912: 40,3705           00004                           INHINT
003913: 40,3706           50117                           INDEX    ERCNT
003914: 40,3707           11022                           CCS      DSPTAB
003915: 40,3710           64744                           AD       ONE


003917: 40,3711           03716                           TC       ERPLUS
003918: 40,3712           64744                           AD       ONE
003919: 40,3713           40000        ERMINUS            CS       A
003920: 40,3714           73736                           MASK     NOTBIT12
003921: 40,3715           03721                           TC       ERCOM
003922: 40,3716           40000        ERPLUS             CS       A
003923: 40,3717           73736                           MASK     NOTBIT12
003924: 40,3720           40000                           CS       A                                     #  MIGHT WANT TO RESET CLPASS, DECBRNCH,
003925: 40,3721           50117        ERCOM              INDEX    ERCNT                                 #  ETC.
003926: 40,3722           55022                           TS       DSPTAB
003927: 40,3723           00003                           RELINT
003928: 40,3724           10117                           CCS      ERCNT
003929: 40,3725           03704                           TC       TSTAB      +1
003930: 40,3726           34746                           CAF      ZERO
003931: 40,3727           54375                           TS       FAILREG
003932: 40,3730           54376                           TS       FAILREG    +1
003933: 40,3731           55357                           TS       SFAIL
003934: 40,3732           05146                           TC       ENDOFJOB
003935:
003936: 40,3733           00104        ERCON              OCT      104                                   #  CHAN 11 BITS 3,7.
003937:                                                                                                  #  UPLINK ACTIVITY, AND OPERATOR ERROR.
003938: 40,3734           00330        RFAILS             OCT      330                                   #  RADAR CDU AND DATA FAIL FLAGS.
003939: 40,3735           00053        GL,ETC.            OCT      00053                                 #  NO ATT, GIMB LOCK, DAPLITE, SUPER KR.
003940: 40,3736           73777        NOTBIT12           OCT      73777
003941:
003942:
003943: 40,3737                        ENDPINS1           EQUALS
003944:
003945:
003946: 40,3737  30,2000                                  SBANK=   LOWSUPER

End of include-file PINBALL_GAME__BUTTONS_AND_LIGHTS.agc.  Parent file is MAIN.agc


