
Source Code


000002:                                                                                                  ## Copyright:   Public domain.
000003:                                                                                                  ## Filename:    PINBALL_NOUN_TABLES.agc
000004:                                                                                                  ## Purpose:     A section of Luminary revision 210.
000005:                                                                                                  ##              It is part of the source code for the Lunar Module's (LM)
000006:                                                                                                  ##              Apollo Guidance Computer (AGC) for Apollo 15-17.
000007:                                                                                                  ##              This file is intended to be a faithful transcription, except
000008:                                                                                                  ##              that the code format has been changed to conform to the
000009:                                                                                                  ##              requirements of the yaYUL assembler rather than the
000010:                                                                                                  ##              original YUL assembler.
000011:                                                                                                  ## Reference:   pp. 313-331
000012:                                                                                                  ## Assembler:   yaYUL
000013:                                                                                                  ## Contact:     Ron Burkey <info@sandroid.org>.
000014:                                                                                                  ## Website:     www.ibiblio.org/apollo/index.html
000015:                                                                                                  ## Mod history: 2016-11-17 JL   Created from Luminary131 version.
000016:                                                                                                  ##              2016-11-21 MAS  Began corrections.
000017:                                                                                                  ##              2016-11-22 MAS  Completed corrections. There's some new nouns, as well
000018:                                                                                                  ##                              as some changes to old ones.
000019:                                                                                                  ##              2016-12-11 HG   fix operand DSPTEM1 -> N26/PRI
000020:                                                                                                  ##              2016-12-12 HG   fix value for forward/lateral velocity
000021:                                                                                                  ##              2016-12-23 RSB  Proofed comment text with octopus/ProoferComments
000022:                                                                                                  ##                              and fixed all errors found.
000023:                                                                                                  ##              2017-01-28 RSB  WTIH -> WITH.
000024:                                                                                                  ##              2017-03-07 RSB  Fixed comment-text errors noted while proofing Luminary 116.
000025:


000027:                                                                                                  #  THE FOLLOWING REFERS TO THE NOUN TABLES
000028:
000029:
000030:                                                                                                  #  COMPONENT CODE NUMBER           INTERPRETATION
000031:
000032:                                                                                                  #  00000                           1 COMPONENT
000033:                                                                                                  #  00001                           2 COMPONENT
000034:                                                                                                  #  00010                           3 COMPONENT
000035:                                                                                                  #  X1XXX                           BIT4 = 1. DECIMAL ONLY
000036:                                                                                                  #  1XXXX                           BIT5 = 1. NO LOAD
000037:                                                                                                  #  END OF COMPONENT CODE NUMBERS
000038:
000039:
000040:                                                                                                  #  SF ROUTINE CODE NUMBER          INTERPRETATION
000041:
000042:                                                                                                  #  00000    OCTAL ONLY
000043:                                                                                                  #  00001    STRAIGHT FRACTIONAL
000044:                                                                                                  #  00010    CDU DEGREES (XXX.XX)
000045:                                                                                                  #  00011    ARITHMETIC SF
000046:                                                                                                  #  00100    ARITH DP1   OUT(MULT BY 2EXP14 AT END)   IN(STRAIGHT)
000047:                                                                                                  #  00101    ARITH DP2   OUT(STRAIGHT)                IN(SL 7 AT END)
000048:                                                                                                  #  00110    LANDING RADAR POSITION (+0000X)
000049:                                                                                                  #  00111    ARITH DP3   OUT ( SL 7 AT END)       IN ( STRAIGHT)
000050:                                                                                                  #  01000    WHOLE HOURS IN R1, WHOLE MINUTES (MOD 60) IN R2,
000051:                                                                                                  #              SECONDS (MOD 60) 0XX.XX IN R3. *** ALARMS IF USED WITH OCTAL
000052:                                                                                                  #  01001    MINUTES (MOD 60) IN D1D2, D3 BLANK, SECONDS (MOD 60) IN D4D5
000053:                                                                                                  #                          LIMITS TO 59B59 IF MAG EXCEEDS THIS VALUE.
000054:                                                                                                  #                          ALARMS IF USED WITH OCTAL  ********  IN (ALARM)
000055:                                                                                                  #  01010    ARITH DP4   OUT (STRAIGHT)                  IN (SL 3 AT END)
000056:                                                                                                  #  01011    ARITH1 SF   OUT(MULT BY 2EXP14 AT END)    IN(STRAIGHT)
000057:                                                                                                  #  01100    2 INTEGERS IN D1D2, D4D5, D3 BLANK.
000058:                                                                                                  #                          ALARMS IF USED WITH OCTAL  ********  IN (ALARM)
000059:                                                                                                  #  01101    360-CDU DEGREES (XXX.XX)
000060:                                                                                                  #  01110    RR RANGE       15 BIT MAG TO DP, THEN SCALE *******  IN (ALARM)
000061:                                                                                                  #  01111    RR RANGE RATE  15 BIT MAG TO DP, THEN SCALE *******  IN (ALARM)
000062:                                                                                                  #  END OF SF ROUTINE CODE NUMBERS
000063:
000064:
000065:                                                                                                  #  SF CONSTANT CODE NUMBER         INTERPRETATION
000066:
000067:                                                                                                  #  00000                           WHOLE                       USE ARITH
000068:                                                                                                  #  00000                           DP TIME SEC (XXX.XX SEC)    USE ARITHDP1
000069:                                                                                                  #  00000                           LR POSITION (+0000X)     USE LR POSITION
000070:                                                                                                  #  00001                           SPARE
000071:                                                                                                  #  00010                           CDU DEGREES              USE CDU DEGREES
000072:                                                                                                  #  00010                           360-CDU DEGREES      USE 360-CDU DEGREES
000073:                                                                                                  #  00011                           DP DEGREES (90) XX.XXX DEG  USE ARITHDP3
000074:                                                                                                  #  00100                           DP DEGREES (360) XXX.XX DEG USE ARITHDP4
000075:                                                                                                  #  00101                           DEGREES (180) XXX.XX DEG    USE ARITH
000076:                                                                                                  #  00101                           OPTICAL TRACKER AZIMUTH ANGLE(XXX.XXDEG)


000078:                                                                                                  #                                                              USE ARITHDP1
000079:                                                                                                  #  00110                           WEIGHT2 (XXXXX. LBS)        USE ARITH1
000080:                                                                                                  #  00111                           POSITION5 (XXX.XX NAUTICAL MILES)
000081:                                                                                                  #                                                              USE ARITHDP1
000082:                                                                                                  #  01000                           POSITION4 (XXXX.X NAUTICAL MILES)
000083:                                                                                                  #                                                              USE ARITHDP3
000084:                                                                                                  #  01001                           VELOCITY2 (XXXXX. FT/SEC)   USE ARITHDP4
000085:                                                                                                  #  01010                           VELOCITY3 (XXXX.X FT/SEC)   USE ARITHDP3
000086:                                                                                                  #  01011                           ELEVATION DEGREES(89.999MAX) USE ARITH
000087:                                                                                                  #  01100                           RENDEZVOUS RADAR RANGE (XXX.XX NAUT MI)
000088:                                                                                                  #                                                              USE RR RANGE
000089:                                                                                                  #  01101                           RENDEZVOUS RADAR RANGE RATE(XXXX.XFT/SEC
000090:                                                                                                  #                                                         USE RR RANGE RATE
000091:                                                                                                  #  01110                           LANDING RADAR ALTITUDE(XXXXX.FEET)
000092:                                                                                                  #                                                              USE ARITHDP1
000093:                                                                                                  #  01111                           INITIAL/FINAL ALTITUDE(XXXXX.FEET)
000094:                                                                                                  #                                                              USE ARITHDP1
000095:                                                                                                  #  10000                           ALTITUDE RATE (XXXXX.FT/SEC)   USE ARITH
000096:                                                                                                  #  10001                           FORWARD/LATERAL VELOCITY(XXXXX.FEET/SEC)
000097:                                                                                                  #                                                                 USE ARITH
000098:                                                                                                  #  10010                           ROTATIONAL HAND CONTROLLER ANGLE RATES
000099:                                                                                                  #                                        XXXXX.DEG/SEC            USE ARITH
000100:                                                                                                  #  10011                           LANDING RADAR VELX(XXXXX.FEET/SEC)
000101:                                                                                                  #                                                              USE ARITHDP1
000102:                                                                                                  #  10100                           LANDING RADAR VELY(XXXXX.FEET/SEC)
000103:                                                                                                  #                                                              USE ARITHDP1
000104:                                                                                                  #  10101                           LANDING RADAR VELZ(XXXXX.FEET/SEC)
000105:                                                                                                  #                                                              USE ARITHDP1
000106:                                                                                                  #  10110                           POSITION7 (XXXX.X NAUT MI)  USE ARITHDP4
000107:                                                                                                  #  10111                           TRIM DEGREES2 (XXX.XX DEG)  USE ARITH
000108:                                                                                                  #  11000                           COMPUTED ALTITUDE (XXXXX. FEET)
000109:                                                                                                  #                                                              USE ARITHDP1
000110:                                                                                                  #  11001                           DP DEGREES (XXXX.X DEG)     USE ARITHDP3
000111:                                                                                                  #  11010                           POSITION9 (XXXXX. FT)       USE ARITHDP3
000112:                                                                                                  #  11011                           VELOCITY4 (XXXX.X FT/SEC)   USE ARITHDP2
000113:                                                                                                  #  11100                           RADIANS (XX.XXX RADIANS)    USE ARITHDP4
000114:                                                                                                  #  11101                           VELOCITY5 (XXXX.X FT/SEC)   USE ARITHDP3
000115:                                                                                                  #  END OF SF CONSTANT CODE NUMBERS
000116:
000117:
000118:                                                                                                  #  FOR GREATER THAN SINGLE PRECISION SCALES, PUT ADDRESS OF MAJOR PART INTO
000119:                                                                                                  #  NOUN TABLES.
000120:                                                                                                  #  OCTAL LOADS PLACE +0 INTO MAJOR PART, DATA INTO MINOR PART.
000121:                                                                                                  #  OCTAL DISPLAYS SHOW MINOR PART ONLY.
000122:                                                                                                  #  TO GET AT BOTH MAJOR AND MINOR PARTS(IN OCTAL), USE NOUN 01.
000123:
000124:                                                                                                  #  A NOUN MAY BE DECLARED :DECIMAL ONLY: BY MAKING BIT4=1 OF ITS COMPONENT
000125:                                                                                                  #  CODE NUMBER. IF THIS NOUN IS USED WITH ANY OCTAL DISPLAY VERB, OR IF
000126:                                                                                                  #  DATA IS LOADED IN OCTAL, IT ALARMS.
000127:


000129:                                                                                                  #  IN LOADING AN :HOURS, MINUTES, SECONDS: NOUN, ALL 3 WORDS MUST BE
000130:                                                                                                  #  LOADED, OR ALARM.
000131:                                                                                                  #  ALARM IF AN ATTEMPT IS MADE TO LOAD :SPLIT MINUTES/SECONDS: (MMBSS).
000132:                                                                                                  #  THIS IS USED FOR DISPLAY ONLY.
000133:


000135:                                                                                                  #  THE FOLLOWING ROUTINES ARE FOR READING THE NOUN TABLES AND THE SF TABLES
000136:                                                                                                  #  (WHICH ARE IN A SEPARATE BANK FROM THE REST OF PINBALL). THESE READING
000137:                                                                                                  #  ROUTINES ARE IN THE SAME BANK AS THE TABLES. THEY ARE CALLED BY DXCH Z.
000138:
000139:
000140:                                                                                                  #  LODNNTAB LOADS NNADTEM WITH THE NNADTAB ENTRY, NNTYPTEM WITH THE
000141:                                                                                                  #  NNTYPTAB ENTRY. IF THE NOUN IS MIXED, IDAD1TEM IS LOADED WITH THE FIRST
000142:                                                                                                  #  IDADDTAB ENTRY, IDAD2TEM THE SECOND IDADDTAB ENTRY, IDAD3TEM THE THIRD
000143:                                                                                                  #  IDADDTAB ENTRY, RUTMXTEM WITH THE RUTMXTAB ENTRY. MIXBR IS SET FOR
000144:                                                                                                  #  MIXED OR NORMAL NOUN.
000145:
000146: 06,3333                                           BANK     6
000147: 42,2000                                           SETLOC   PINBALL3
000148: 42,2000                                           BANK
000149: 42,2110                                           COUNT*   $$/NOUNS
000150: 42,2110           52152        LODNNTAB           DXCH     IDAD2TEM                              #  SAVE RETURN INFO IN IDAD2TEM, IDAD3TEM.
000151: 42,2111           51001                           INDEX    NOUNREG
000152: 42,2112           32161                           CAF      NNADTAB
000153: 42,2113           54146                           TS       NNADTEM
000154: 42,2114           51001                           INDEX    NOUNREG
000155: 42,2115           32325                           CAF      NNTYPTAB
000156: 42,2116           54147                           TS       NNTYPTEM
000157: 42,2117           41001                           CS       NOUNREG
000158: 42,2120           64762                           AD       MIXCON
000159: 42,2121           00006                           EXTEND
000160: 42,2122           62126                           BZMF     LODMIXNN                              #  NOUN NUMBER G/E FIRST MIXED NOUN
000161: 42,2123           34744                           CAF      ONE                                   #  NOUN NUMBER L/ FIRST MIXED NOUN
000162: 42,2124           54140                           TS       MIXBR                                 #  NORMAL.  +1 INTO MIXBR.
000163: 42,2125           02144                           TC       LODNLV
000164: 42,2126           34743        LODMIXNN           CAF      TWO                                   #  MIXED.  +2 INTO MIXBR.
000165: 42,2127           54140                           TS       MIXBR
000166: 42,2130           51001                           INDEX    NOUNREG
000167: 42,2131           33075                           CAF      RUTMXTAB   -40D                       #  FIRST MIXED NOUN = 40.
000168: 42,2132           54153                           TS       RUTMXTEM
000169: 42,2133           35003                           CAF      LOW10
000170: 42,2134           70146                           MASK     NNADTEM
000171: 42,2135           54002                           TS       Q                                     #  TEMP
000172: 42,2136           50000                           INDEX    A
000173: 42,2137           32661                           CAF      IDADDTAB
000174: 42,2140           54150                           TS       IDAD1TEM                              #  LOAD IDAD1TEM WITH FIRST IDADDTAB ENTRY
000175: 42,2141           00006                           EXTEND
000176: 42,2142           50002                           INDEX    Q                                     #  LOAD IDAD2TEM WITH 2ND IDADDTAB ENTRY
000177: 42,2143           32663                           DCA      IDADDTAB   +1                         #  LOAD IDAD3TEM WITH 3RD IDADDTAB ENTRY.
000178: 42,2144           52152        LODNLV             DXCH     IDAD2TEM                              #  PUT RETURN INFO INTO A, L.
000179: 42,2145           52006                           DXCH     Z
000180:
000181: 42,2146     4762               MIXCON             =        OCT50                                 #  (DEC 40)
000182:                                                                                                  #  GTSFOUT LOADS SFTEMP1, SFTEMP2 WITH THE DP SFOUTAB ENTRIES.
000183:
000184: 42,2146           52124        GTSFOUT            DXCH     SFTEMP1                               #  2X (SFCONUM) ARRIVES IN SFTEMP1.


000186: 42,2147           00006                           EXTEND
000187: 42,2150           50000                           INDEX    A
000188: 42,2151           32566                           DCA      SFOUTAB
000189: 42,2152           52124        SFCOM              DXCH     SFTEMP1
000190: 42,2153           52006                           DXCH     Z
000191:
000192:
000193:                                                                                                  #  GTSFIN LOADS SFTEMP1, SFTEMP2 WITH THE DP SFINTAB ENTRIES.
000194:
000195: 42,2154           52124        GTSFIN             DXCH     SFTEMP1                               #  2X(SFCONUM) ARRIVES IN SFTEMP1.
000196: 42,2155           00006                           EXTEND
000197: 42,2156           50000                           INDEX    A
000198: 42,2157           32472                           DCA      SFINTAB
000199: 42,2160           12152                           TCF      SFCOM
000200:
000201:
000202:                                                                                                  #  NN  NORMAL NOUNS
000203: 42,2161           00000        NNADTAB            OCT      00000                                 #  00 NOT IN USE
000204: 42,2162           40000                           OCT      40000                                 #  01 SPECIFY MACHINE ADDRESS (FRACTIONAL)
000205: 42,2163           40000                           OCT      40000                                 #  02 SPECIFY MACHINE ADDRESS (WHOLE)
000206: 42,2164           40000                           OCT      40000                                 #  03 SPECIFY MACHINE ADDRESS (DEGREES)
000207: 42,2165           01044                           ECADR    DSPTEM1                               #  04 ANGULAR ERROR/DIFFERENCE
000208: 42,2166           01044                           ECADR    DSPTEM1                               #  05 ANGULAR ERROR/DIFFERENCE
000209: 42,2167           01143                           ECADR    OPTION1                               #  06 OPTION CODE
000210: 42,2170           01002                           ECADR    XREG                                  #  07 ECADR OF WORD TO BE MODIFIED
000211:                                                                                                  #     ONES FOR BITS TO BE MODIFIED
000212:                                                                                                  #     1 TO SET OR 0 TO RESET SELECTED BITS
000213: 42,2171           01363                           ECADR    ALMCADR                               #  08 ALARM DATA
000214: 42,2172           00375                           ECADR    FAILREG                               #  09 ALARM CODES
000215: 42,2173           77776                           OCT      77776                                 #  10 CHANNEL TO BE SPECIFIED
000216: 42,2174           03633                           ECADR    TCSI                                  #  11 TIG OF CSI (HRS,MIN,SEC)
000217: 42,2175           01050                           ECADR    OPTIONX                               #  12 OPTION CODE
000218:                                                                                                  #        (USED BY EXTENDED VERBS ONLY)
000219: 42,2176           01774                           ECADR    TCDH                                  #  13 TIG OF CDH (HRS,MIN,SEC)
000220: 42,2177           01050                           ECADR    DSPTEMX                               #  14 CHECKLIST
000221:                                                                                                  #        (USED BY EXTENDED VERBS ONLY)
000222: 42,2200           77777                           OCT      77777                                 #  15 INCREMENT MACHINE ADDRESS
000223: 42,2201           01050                           ECADR    DSPTEMX                               #  16 TIME OF EVENT (HRS,MIN,SEC)
000224: 42,2202           00000                           OCT      00000                                 #  17 SPARE
000225: 42,2203           02335                           ECADR    FDAIX                                 #  18 AUTO MANEUVER BALL ANGLES
000226: 42,2204           00000                           OCT      00000                                 #  19 SPARE
000227: 42,2205           00032                           ECADR    CDUX                                  #  20 ICDU ANGLES
000228: 42,2206           00037                           ECADR    PIPAX                                 #  21 PIPAS
000229: 42,2207           00321                           ECADR    THETAD                                #  22 NEW ICDU ANGLES
000230: 42,2210           00000                           OCT      00000                                 #  23 SPARE
000231: 42,2211           01050                           ECADR    DSPTEM2    +1                         #  24 DELTA TIME FOR AGC CLOCK(HRS,MIN,SEC)
000232: 42,2212           01044                           ECADR    DSPTEM1                               #  25 CHECKLIST
000233:                                                                                                  #        (USED WITH PLEASE PERFORM ONLY)
000234: 42,2213           02371                           ECADR    N26/PRI                               #  26 PRIO/DELAY, ADRES, BBCON
000235: 42,2214           01362                           ECADR    SMODE                                 #  27 SELF TEST ON/OFF SWITCH


000237: 42,2215           00000                           OCT      00000                                 #  28 SPARE
000238: 42,2216           00000                           OCT      00000                                 #  29 SPARE
000239: 42,2217           00000                           OCT      0                                     #  30 SPARE
000240: 42,2220           00000                           OCT      0                                     #  31 SPARE
000241: 42,2221           02133                           ECADR    -TPER                                 #  32 TIME TO PERIGEE (HRS,MIN,SEC)
000242: 42,2222           03441                           ECADR    TIG                                   #  33 TIME OF IGNITION (HRS,MIN(SEC)
000243: 42,2223           01044                           ECADR    DSPTEM1                               #  34 TIME OF EVENT (HRS,MIN,SEC)
000244: 42,2224           03453                           ECADR    TTOGO                                 #  35 TIME TO GO TO EVENT (HRS,MIN,SEC)
000245: 42,2225           00024                           ECADR    TIME2                                 #  36 TIME OF AGC CLOCK (HRS,MIN,SEC)
000246: 42,2226           03635                           ECADR    TTPI                                  #  37 TIG OF TPI (HRS,MIN,SEC)
000247: 42,2227           01516                           ECADR    TET                                   #  38 TIME OF STATE BEING INTEGRATED
000248: 42,2230           00000                           OCT      00000                                 #  39 SPARE
000249:                                                                                                  #  END OF NNADTAB FOR NORMAL NOUNS
000250:
000251:                                                                                                  #  NN  MIXED NOUNS
000252: 42,2231           64000                           OCT      64000                                 #  40 TIME TO IGNITION/CUTOFF
000253:                                                                                                  #     VG
000254:                                                                                                  #     DELTA V (ACCUMULATED)
000255: 42,2232           02003                           OCT      02003                                 #  41 TARGET  AZIMUTH
000256:                                                                                                  #             ELEVATION
000257: 42,2233           24006                           OCT      24006                                 #  42 APOGEE
000258:                                                                                                  #     PERIGEE
000259:                                                                                                  #     DELTA V (REQUIRED)
000260: 42,2234           24011                           OCT      24011                                 #  43 LATITUDE
000261:                                                                                                  #     LONGITUDE
000262:                                                                                                  #     ALTITUDE
000263: 42,2235           64014                           OCT      64014                                 #  44 APOGEE
000264:                                                                                                  #     PERIGEE
000265:                                                                                                  #     TFF
000266: 42,2236           64017                           OCT      64017                                 #  45 MARKS
000267:                                                                                                  #     TTI OF NEXT BURN
000268:                                                                                                  #     MGA
000269: 42,2237           02022                           OCT      02022                                 #  46 AUTOPILOT CONFIGURATION
000270:                                                                                                  #     CHANNEL BIT FAILURE PROTECTION WORD
000271: 42,2240           22025                           OCT      22025                                 #  47 LEM WEIGHT
000272:                                                                                                  #     CSM WEIGHT
000273: 42,2241           22030                           OCT      22030                                 #  48 GIMBAL PITCH TRIM
000274:                                                                                                  #     GIMBAL ROLL TRIM
000275: 42,2242           24033                           OCT      24033                                 #  49 DELTA R
000276:                                                                                                  #     DELTA V
000277:                                                                                                  #     RADAR DATA SOURCE CODE
000278: 42,2243           00000                           OCT      0                                     #  50 SPARE
000279: 42,2244           22041                           OCT      22041                                 #  51 S-BAND ANTENNA PITCH
000280:                                                                                                  #                    YAW
000281: 42,2245           00044                           OCT      00044                                 #  52 CENTRAL ANGLE OF ACTIVE VEHICLE
000282: 42,2246           00000                           OCT      00000                                 #  53 SPARE
000283: 42,2247           24052                           OCT      24052                                 #  54 RANGE
000284:                                                                                                  #     RANGE RATE
000285:                                                                                                  #     THETA


000287: 42,2250           24055                           OCT      24055                                 #  55 NO. OF APSIDAL CROSSINGS
000288:                                                                                                  #     ELEVATION ANGLE
000289:                                                                                                  #     CENTRAL ANGLE
000290: 42,2251           02060                           OCT      02060                                 #  56 RR LOS AZIMUTH
000291:                                                                                                  #            ELEVATION
000292: 42,2252           00000                           OCT      00000                                 #  57 SPARE
000293: 42,2253           24066                           OCT      24066                                 #  58 PERIGEE ALT
000294:                                                                                                  #     DELTA V TPI
000295:                                                                                                  #     DELTA V TPF
000296: 42,2254           24071                           OCT      24071                                 #  59 DELTA VELOCITY LOS
000297: 42,2255           24074                           OCT      24074                                 #  60 FORWARD VELOCITY
000298:                                                                                                  #     ALTITUDE RATE
000299:                                                                                                  #     COMPUTED ALTITUDE
000300: 42,2256           64077                           OCT      64077                                 #  61 TIME TO GO IN BRAKING PHASE
000301:                                                                                                  #     TIME TO IGNITION
000302:                                                                                                  #     CROSS RANGE DISTANCE
000303: 42,2257           64102                           OCT      64102                                 #  62 ABSOLUTE VALUE OF VELOCITY
000304:                                                                                                  #     TIME TO IGNITION
000305:                                                                                                  #     DELTA V (ACCUMULATED)
000306: 42,2260           24105                           OCT      24105                                 #  63 LR ALTITUDE MINUS COMPUTED ALTITUDE
000307:                                                                                                  #     ALTITUDE RATE
000308:                                                                                                  #     COMPUTED ALTITUDE
000309: 42,2261           64110                           OCT      64110                                 #  64 TIME LEFT FOR REDESIGNATION-LPD ANGLE
000310:                                                                                                  #     ALTITUDE RATE
000311:                                                                                                  #     COMPUTED ALTITUDE
000312: 42,2262           24113                           OCT      24113                                 #  65 SAMPLED AGC TIME (HRS,MIN,SEC)
000313:                                                                                                  #     (FETCHED IN INTERRUPT)
000314: 42,2263           62116                           OCT      62116                                 #  66 LR RANGE
000315:                                                                                                  #        POSITION
000316: 42,2264           04121                           OCT      04121                                 #  67 LRVX
000317:                                                                                                  #     LRVY
000318:                                                                                                  #     LRVZ
000319: 42,2265           64124                           OCT      64124                                 #  68 SM Z-AXIS RANGE TO LANDING SITE
000320:                                                                                                  #     TIME TO GO IN BRAKING PHASE
000321:                                                                                                  #     ABSOLUTE VALUE OF VELOCITY
000322: 42,2266           24127                           OCT      24127                                 #  69 LANDING SITE CORRECTION, Z-COMPONENT
000323:                                                                                                  #     LANDING SITE CORRECTION, Y-COMPONENT
000324:                                                                                                  #     LANDING SITE CORRECTION, X-COMPONENT
000325: 42,2267           04132                           OCT      04132                                 #  70 AOT DETENT CODE/STAR CODE
000326: 42,2270           04135                           OCT      04135                                 #  71 AOT DETENT CODE/STAR CODE
000327: 42,2271           02140                           OCT      02140                                 #  72 RR  360 - TRUNNION ANGLE
000328:                                                                                                  #         SHAFT ANGLE
000329: 42,2272           02143                           OCT      02143                                 #  73 NEW RR  360 - TRUNNION ANGLE
000330:                                                                                                  #                   SHAFT ANGLE
000331: 42,2273           64146                           OCT      64146                                 #  74 TIME TO IGNITION
000332:                                                                                                  #     YAWAFTER VEHICLE RISE
000333:                                                                                                  #     PITCH AFTER VEHICLE RISE
000334: 42,2274           64151                           OCT      64151                                 #  75 DELTA ALTITUDE CDH
000335:                                                                                                  #     DELTA TIME (CDH-CSI OR TPI-CDH)
000336:                                                                                                  #     DELTA TIME (TPI-CDH OR TPI-NOMTPI)


000338: 42,2275           24154                           OCT      24154                                 #  76 DESIRED HORIZONTAL VELOCITY
000339:                                                                                                  #     DESIRED RADIAL VELOCITY
000340:                                                                                                  #     CROSS-RANGE DISTANCE
000341: 42,2276           64157                           OCT      64157                                 #  77 TIME TO ENGINE CUTOFF
000342:                                                                                                  #     VGY (BODY)
000343:                                                                                                  #     ABSOLUTE VALUE OF VELOCITY
000344: 42,2277           64162                           OCT      64162                                 #  78 RR RANGE
000345:                                                                                                  #        RANGE RATE
000346:                                                                                                  #     TIME FROM IGNITION
000347: 42,2300           24165                           OCT      24165                                 #  79 CURSOR ANGLE
000348:                                                                                                  #     SPIRAL ANGLE
000349:                                                                                                  #     POSITION CODE
000350: 42,2301           02170                           OCT      02170                                 #  80 DATA INDICATOR
000351:                                                                                                  #     OMEGA
000352: 42,2302           24173                           OCT      24173                                 #  81 DELTA V (LV)
000353: 42,2303           24176                           OCT      24176                                 #  82 DELTA V (LV)
000354: 42,2304           24201                           OCT      24201                                 #  83 DELTA V (BODY)
000355: 42,2305           24204                           OCT      24204                                 #  84 DELTA V (OTHER VEHICLE)
000356: 42,2306           24207                           OCT      24207                                 #  85 VG (BODY)
000357: 42,2307           24212                           OCT      24212                                 #  86 VG (LV)
000358: 42,2310           02215                           OCT      02215                                 #  87 BACKUP OPTICS LOS AZIMUTH
000359:                                                                                                  #                       ELEVATION
000360: 42,2311           24220                           OCT      24220                                 #  88 HALF UNIT SUN OR PLANET VECTOR
000361: 42,2312           24223                           OCT      24223                                 #  89 LANDMARK LATITUDE
000362:                                                                                                  #              LONGITUDE/2
000363:                                                                                                  #              ALTITUDE
000364: 42,2313           24226                           OCT      24226                                 #  90 Y
000365:                                                                                                  #     Y DOT
000366:                                                                                                  #     PSI
000367: 42,2314           04231                           OCT      04231                                 #  91 ALTITUDE
000368:                                                                                                  #     VELOCITY
000369:                                                                                                  #     FLIGHT PATH ANGLE
000370: 42,2315           04234                           OCT      04234                                 #  92 PCT FTP(10.5KLB) AT PRESENT THRUST
000371:                                                                                                  #     ALTITUDE RATE
000372:                                                                                                  #     COMPUTED ALTITUDE
000373: 42,2316           04237                           OCT      04237                                 #  93 DELTA GYRO ANGLES
000374: 42,2317           64242                           OCT      64242                                 #  94 VGX (BODY)
000375:                                                                                                  #     ALTITUDE RATE
000376:                                                                                                  #     COMPUTED ALTITUDE
000377: 42,2320           00000                           OCT      0                                     #  95 SPARE
000378: 42,2321           00000                           OCT      0                                     #  96 SPARE
000379: 42,2322           04253                           OCT      04253                                 #  97 SYSTEM TEST INPUTS
000380: 42,2323           04256                           OCT      04256                                 #  98 SYSTEM TEST RESULTS
000381: 42,2324           24261                           OCT      24261                                 #  99 RMS IN POSITION
000382:                                                                                                  #     RMS IN VELOCITY
000383:                                                                                                  #     RMS IN BIAS
000384:                                                                                                  #  END OF NNADTAB FOR MIXED NOUNS
000385:
000386:
000387:                                                                                                  #  NN        NORMAL NOUNS


000389: 42,2325           00000        NNTYPTAB           OCT      00000                                 #  00 NOT IN USE
000390: 42,2326           04040                           OCT      04040                                 #  01 3COMP  FRACTIONAL
000391: 42,2327           04140                           OCT      04140                                 #  02 3COMP  WHOLE
000392: 42,2330           04102                           OCT      04102                                 #  03 3COMP  CDU DEGREES
000393: 42,2331           00504                           OCT      00504                                 #  04 1COMP  DPDEG(360)
000394: 42,2332           00504                           OCT      00504                                 #  05 1COMP  DPDEG(360)
000395: 42,2333           04000                           OCT      04000                                 #  06 3COMP  OCTAL ONLY
000396: 42,2334           04000                           OCT      04000                                 #  07 3COMP  OCTAL ONLY
000397: 42,2335           04000                           OCT      04000                                 #  08 3COMP  OCTAL ONLY
000398: 42,2336           04000                           OCT      04000                                 #  09 3COMP  OCTAL ONLY
000399: 42,2337           00000                           OCT      00000                                 #  10 1COMP  OCTAL ONLY
000400: 42,2340           24400                           OCT      24400                                 #  11 3COMP  HMS (DEC ONLY)
000401: 42,2341           02000                           OCT      02000                                 #  12 2COMP  OCTAL ONLY
000402: 42,2342           24400                           OCT      24400                                 #  13 3COMP  HMS (DEC ONLY)
000403: 42,2343           04140                           OCT      04140                                 #  14 3COMP  WHOLE
000404: 42,2344           00000                           OCT      00000                                 #  15 1COMP  OCTAL ONLY
000405: 42,2345           24400                           OCT      24400                                 #  16 3COMP  HMS (DEC ONLY)
000406: 42,2346           00000                           OCT      0                                     #  17       SPARE
000407: 42,2347           04102                           OCT      04102                                 #  18 3COMP  CDU DEG
000408: 42,2350           00000                           OCT      00000                                 #  19        SPARE
000409: 42,2351           04102                           OCT      04102                                 #  20 3COMP  CDU DEGREES
000410: 42,2352           04140                           OCT      04140                                 #  21 3COMP  WHOLE
000411: 42,2353           04102                           OCT      04102                                 #  22 3COMP  CDU DEGREES
000412: 42,2354           00000                           OCT      00000                                 #  23        SPARE
000413: 42,2355           24400                           OCT      24400                                 #  24 3COMP  HMS (DEC ONLY)
000414: 42,2356           04140                           OCT      04140                                 #  25 3COMP  WHOLE
000415: 42,2357           04000                           OCT      04000                                 #  26 3COMP  OCTAL ONLY
000416: 42,2360           00140                           OCT      00140                                 #  27 1COMP  WHOLE
000417: 42,2361           00000                           OCT      00000                                 #  28        SPARE
000418: 42,2362           00000                           OCT      00000                                 #  29        SPARE
000419: 42,2363           00000                           OCT      0                                     #  30 SPARE
000420: 42,2364           00000                           OCT      0                                     #  31 SPARE
000421: 42,2365           24400                           OCT      24400                                 #  32 3COMP  HMS (DEC ONLY)
000422: 42,2366           24400                           OCT      24400                                 #  33 3COMP  HMS (DEC ONLY)
000423: 42,2367           24400                           OCT      24400                                 #  34 3COMP  HMS (DEC ONLY)
000424: 42,2370           24400                           OCT      24400                                 #  35 3COMP  HMS (DEC ONLY)
000425: 42,2371           24400                           OCT      24400                                 #  36 3COMP  HMS (DEC ONLY)
000426: 42,2372           24400                           OCT      24400                                 #  37 3COMP  HMS (DEC ONLY)
000427: 42,2373           24400                           OCT      24400                                 #  38 3COMP  HMS (DEC ONLY)
000428: 42,2374           00000                           OCT      00000                                 #  39        SPARE
000429:                                                                                                  #  END OF NNTYPTAB FOR NORMAL NOUNS
000430:
000431:
000432:                                                                                                  #  NN   MIXED NOUNS
000433: 42,2375           24500                           OCT      24500                                 #  40 3COMP  MIN/SEC, VEL3, VEL3
000434:                                                                                                  #            (NO LOAD, DEC ONLY)
000435: 42,2376           00542                           OCT      00542                                 #  41 2COMP  CDU DEG, ELEV DEG
000436: 42,2377           24410                           OCT      24410                                 #  42 3COMP  POS4, POS4, VEL3
000437:                                                                                                  #            (DEC ONLY)
000438: 42,2400           20204                           OCT      20204                                 #  43 3COMP  DPDEG(360), DPDEG(360), POS4


000440:                                                                                                  #            (DEC ONLY)
000441: 42,2401           00410                           OCT      00410                                 #  44 3COMP  POS4, POS4, MIN/SEC
000442:                                                                                                  #            (NO LOAD, DEC ONLY)
000443: 42,2402           10000                           OCT      10000                                 #  45 3COMP  WHOLE, MIN/SEC, DPDEG(360)
000444:                                                                                                  #            (NO LOAD, DEC ONLY)
000445: 42,2403           00000                           OCT      00000                                 #  46 2COMP  OCTAL ONLY
000446: 42,2404           00306                           OCT      00306                                 #  47 2COMP WEIGHT2 FOR EACH
000447:                                                                                                  #            (DEC ONLY)
000448: 42,2405           01367                           OCT      01367                                 #  48 2COMP  TRIM DEG2 FOR EACH
000449:                                                                                                  #            (DEC ONLY)
000450: 42,2406           00507                           OCT      00507                                 #  49 3COMP  POS5, VEL3, WHOLE
000451:                                                                                                  #            (DEC ONLY)
000452: 42,2407           00000                           OCT      0                                     #  50        SPARE
000453: 42,2410           00204                           OCT      00204                                 #  51 2COMP  DPDEG(360), DPDEG(360)
000454:                                                                                                  #            (DEC ONLY)
000455: 42,2411           00004                           OCT      00004                                 #  52 1COMP  DPDEG(360)
000456: 42,2412           00000                           OCT      00000                                 #  53        SPARE
000457: 42,2413           10507                           OCT      10507                                 #  54 3COMP  POS5, VEL3, DPDEG(360)
000458:                                                                                                  #            (DEC ONLY)
000459: 42,2414           10200                           OCT      10200                                 #  55 3COMP  WHOLE, DPDEG(360), DPDEG(360)
000460:                                                                                                  #            (DEC ONLY)
000461: 42,2415           00204                           OCT      00204                                 #  56 2COMP  DPDEG(360), DPDEG(360)
000462: 42,2416           00000                           OCT      00000                                 #  57        SPARE
000463:                                                                                                  #            (DEC ONLY)
000464: 42,2417           24510                           OCT      24510                                 #  58 3COMP  POS4, VEL3, VEL3
000465:                                                                                                  #            (DEC ONLY)
000466: 42,2420           24512                           OCT      24512                                 #  59 3COMP  VEL3 FOR EACH
000467:                                                                                                  #            (DEC ONLY)
000468: 42,2421           60535                           OCT      60535                                 #  60 3COMP  VEL5, VEL3, COMP ALT
000469:                                                                                                  #            (DEC ONLY)
000470: 42,2422           54000                           OCT      54000                                 #  61 3COMP  MIN/SEC, MIN/SEC, POS7
000471:                                                                                                  #            (NO LOAD, DEC ONLY)
000472: 42,2423           24012                           OCT      24012                                 #  62 3COMP  VEL3, MIN/SEC, VEL3
000473:                                                                                                  #            (NO LOAD, DEC ONLY)
000474: 42,2424           60530                           OCT      60530                                 #  63 3COMP  COMP ALT, VEL3, COMP ALT
000475:                                                                                                  #            (DEC ONLY)
000476: 42,2425           60500                           OCT      60500                                 #  64 3COMP  2INT, VEL3, COMP ALT
000477:                                                                                                  #            (NO LOAD, DEC ONLY)
000478: 42,2426           00000                           OCT      00000                                 #  65 3COMP  HMS (DEC ONLY)
000479: 42,2427           00016                           OCT      00016                                 #  66 2COMP  LANDING RADAR ALT, POSITION
000480:                                                                                                  #            (NO LOAD, DEC ONLY)
000481: 42,2430           53223                           OCT      53223                                 #  67 3COMP LANDING RADAR VELX, Y, Z
000482: 42,2431           24026                           OCT      24026                                 #  68 3COMP  POS7, MIN/SEC, VEL3
000483:                                                                                                  #            (NO LOAD, DEC ONLY)
000484: 42,2432           61430                           OCT      61430                                 #  69 3COMP  COMP ALT, COMP ALT, COMP ALT
000485:                                                                                                  #            (DEC ONLY)
000486: 42,2433           00000                           OCT      0                                     #  70 3COMP  OCTAL ONLY FOR EACH
000487: 42,2434           00000                           OCT      0                                     #  71 3COMP  OCTAL ONLY FOR EACH
000488: 42,2435           00102                           OCT      00102                                 #  72 2COMP  360-CDU DEG, CDU DEG
000489: 42,2436           00102                           OCT      00102                                 #  73 2COMP  360-CDU DEG, CDU DEG


000491: 42,2437           10200                           OCT      10200                                 #  74 3COMP  MIN/SEC, DPDEG(360),DPDEG(360)
000492:                                                                                                  #            (NO LOAD, DEC ONLY)
000493: 42,2440           00010                           OCT      00010                                 #  75 3COMP  POS4, MIN/SEC, MIN/SEC
000494:                                                                                                  #            (NO LOAD, DEC ONLY)
000495: 42,2441           20512                           OCT      20512                                 #  76 3COMP  VEL3, VEL3, POS4
000496:                                                                                                  #            (DEC ONLY)
000497: 42,2442           24500                           OCT      24500                                 #  77 3COMP  MIN/SEC, VEL3, VEL3
000498:                                                                                                  #            (NO LOAD, DEC ONLY)
000499: 42,2443           00654                           OCT      00654                                 #  78 3COMP  RR RANGE, RR RANGE RATE, M/S
000500:                                                                                                  #            (NO LOAD, DEC ONLY)
000501: 42,2444           00102                           OCT      00102                                 #  79 3COMP  CDU DEG, CDU DEG, WHOLE
000502:                                                                                                  #            (DEC ONLY)
000503: 42,2445           00200                           OCT      00200                                 #  80 2COMP  WHOLE, DPDEG(360)
000504: 42,2446           24512                           OCT      24512                                 #  81 3COMP  VEL3 FOR EACH
000505:                                                                                                  #            (DEC ONLY)
000506: 42,2447           24512                           OCT      24512                                 #  82 3COMP  VEL3 FOR EACH
000507:                                                                                                  #            (DEC ONLY)
000508: 42,2450           24512                           OCT      24512                                 #  83 3COMP  VEL3 FOR EACH
000509:                                                                                                  #            (DEC ONLY)
000510: 42,2451           24512                           OCT      24512                                 #  84 3COMP  VEL3 FOR EACH
000511:                                                                                                  #            (DEC ONLY)
000512: 42,2452           24512                           OCT      24512                                 #  85 3COMP  VEL3 FOR EACH
000513:                                                                                                  #            (DEC ONLY)
000514: 42,2453           24512                           OCT      24512                                 #  86 3COMP  VEL3 FOR EACH
000515:                                                                                                  #            (DEC ONLY)
000516: 42,2454           00102                           OCT      00102                                 #  87 2COMP  CDU DEG FOR EACH
000517: 42,2455           00000                           OCT      0                                     #  88 3COMP  FRAC FOR EACH
000518:                                                                                                  #             (DEC ONLY)
000519: 42,2456           16143                           OCT      16143                                 #  89 3COMP  DPDEG(90), DPDEG(90), POS5
000520:                                                                                                  #            (DEC ONLY)
000521: 42,2457           10507                           OCT      10507                                 #  90 3COMP  POS5, VEL3, DPDEG(360)
000522:                                                                                                  #            (DEC ONLY)
000523: 42,2460           10450                           OCT      10450                                 #  91 3COMP  POS4, VEL2, DPDEG(360)
000524: 42,2461           60500                           OCT      60500                                 #  92 3COMP  WHOLE, VEL3, COMP ALT
000525: 42,2462           06143                           OCT      06143                                 #  93 3COMP  DPDEG(90) FOR EACH
000526: 42,2463           60512                           OCT      60512                                 #  94 3COMP  VEL3, VEL3, COMP ALT
000527:                                                                                                  #             (NO LOAD, DEC ONLY)
000528: 42,2464           00000                           OCT      0                                     #  95        SPARE
000529: 42,2465           00000                           OCT      0                                     #  96        SPARE
000530: 42,2466           00000                           OCT      00000                                 #  97 3COMP  WHOLE FOR EACH
000531: 42,2467           00000                           OCT      00000                                 #  98 3COMP  WHOLE, FRAC, WHOLE
000532: 42,2470           71572                           OCT      71572                                 #  99 3COMP  POS9, VEL4, RADIANS
000533:                                                                                                  #            (DEC ONLY)
000534:                                                                                                  #  END OF NNTYPTAB FOR MIXED NOUNS
000535:
000536:
000537: 42,2471           00006        SFINTAB            OCT      00006                                 #  WHOLE, DP TIME (SEC)
000538: 42,2472           03240                           OCT      03240
000539: 42,2473           00000                           OCT      00000                                 #  SPARE
000540: 42,2474           00000                           OCT      00000


000542: 42,2475           00000                           OCT      00000                                 #  CDU DEGREES, 360-CDU DEGREES
000543: 42,2476           00000                           OCT      00000                                 #      (SFCONS IN DEGINSF)
000544: 42,2477           10707                           OCT      10707                                 #  DP DEGREES (90)
000545: 42,2500           03435                           OCT      03435                                 #          UPPED BY 1
000546: 42,2501           13070                           OCT      13070                                 #  DP DEGREES (360)(POINT BETWN BITS 11-12)
000547: 42,2502           34345                           OCT      34345                                 #          UPPED BY 1
000548: 42,2503           00005                           OCT      00005                                 #  DEGREES (180)
000549: 42,2504           21616                           OCT      21616
000550: 42,2505           26113                           OCT      26113                                 #  WEIGHT2
000551: 42,2506           31713                           OCT      31713
000552: 42,2507           00070                           OCT      00070                                 #  POSITION5
000553: 42,2510           20460                           OCT      20460
000554: 42,2511           01065                           OCT      01065                                 #  POSITION4
000555: 42,2512           05740                           OCT      05740
000556: 42,2513           11414                           OCT      11414                                 #  VELOCITY2       (POINT BETWN BITS 11-12)
000557: 42,2514           31463                           OCT      31463
000558: 42,2515           07475                           OCT      07475                                 #  VELOCITY3
000559: 42,2516           16051                           OCT      16051
000560: 42,2517           00001                           OCT      00001                                 #  ELEVATION DEGREES
000561: 42,2520           03434                           OCT      03434
000562: 42,2521           00047                           OCT      00047                                 #  RENDEZVOUS RADAR RANGE
000563: 42,2522           21135                           OCT      21135
000564: 42,2523           77766                           OCT      77766                                 #  RENDEZVOUS RADAR RANGE RATE
000565: 42,2524           50711                           OCT      50711
000566: 42,2525           00005 25006                     2DEC*    .9267840599 E5         B-28*           #  LANDING RADAR ALTITUDE
000567:
000568: 42,2527           00002                           OCT      00002                                 #  INITIAL/FINAL ALTITUDE
000569: 42,2530           23224                           OCT      23224
000570: 42,2531           00014                           OCT      00014                                 #  ALTITUDE RATE
000571: 42,2532           06500                           OCT      06500
000572: 42,2533           00001 03036                     2DEC*    1.79500987 E4         B-28*           #  FORWARD/LATERAL VELOCITY
000573:
000574: 42,2535           04256                           OCT      04256                                 #  ROT HAND CONT ANGLE RATE
000575: 42,2536           07071                           OCT      07071
000576: 42,2537           77766 60557                     2DEC*    -1.552795030 E5         B-28*           #  LANDING RADAR VELX
000577:
000578: 42,2541           00005 01114                     2DEC*    .8250825087 E5         B-28*           #  LANDING RADAR VELY
000579:
000580: 42,2543           00007 01247                     2DEC*    1.153668673 E5         B-28*           #  LANDING RADAR VELZ
000581:
000582: 42,2545           04324                           OCT      04324                                 #  POSITION7
000583: 42,2546           27600                           OCT      27600
000584: 42,2547           00036                           OCT      00036                                 #  TRIM DEGREES2
000585: 42,2550           20440                           OCT      20440
000586: 42,2551           00035                           OCT      00035                                 #  COMPUTED ALTITUDE
000587: 42,2552           30400                           OCT      30400
000588: 42,2553           23420                           OCT      23420                                 #  DP DEGREES
000589: 42,2554           00000                           OCT      00000
000590: 42,2555           01670 20000                     2DEC     30480      B-19                       #  POSITION 9
000591:


000593: 42,2557           07475 16051                     2DEC     30.48      B-7                        #  VELOCITY4
000594:
000595: 42,2561           14400 00000                     2DEC     100        B-8                        #  RADIANS
000596:
000597: 42,2563           36365 30244                     2DEC     .3048      E2         B-5             #  VELOCITY5
000598:
000599:                                                                                                  #  END OF SFINTAB
000600:
000601:
000602:
000603: 42,2565           05174        SFOUTAB            OCT      05174                                 #  WHOLE, DP TIME (SEC)
000604: 42,2566           13261                           OCT      13261
000605: 42,2567           00000                           OCT      00000                                 #  SPARE
000606: 42,2570           00000                           OCT      00000
000607: 42,2571           00000                           OCT      00000                                 #  CDU DEGREES, 360-CDU DEGREES
000608: 42,2572           00000                           OCT      00000                                 #      (SFCONS IN DEGOUTSF, 360-CDUO)
000609: 42,2573           00714                           OCT      00714                                 #  DP DEGREES (90) (POINT BETWN BITS 7-8)
000610: 42,2574           31463                           OCT      31463
000611: 42,2575           13412                           OCT      13412                                 #  DP DEGREES (360)
000612: 42,2576           07534                           OCT      07534
000613: 42,2577           05605                           OCT      05605                                 #  DEGREES (180)
000614: 42,2600           03656                           OCT      03656
000615: 42,2601           00001                           OCT      00001                                 #  WEIGHT2
000616: 42,2602           16170                           OCT      16170
000617: 42,2603           00441                           OCT      00441                                 #  POSITION5
000618: 42,2604           34306                           OCT      34306
000619: 42,2605           07176                           OCT      07176                                 #  POSITION4       (POINT BETWN BITS 7-8)
000620: 42,2606           21603                           OCT      21603
000621: 42,2607           15340                           OCT      15340                                 #  VELOCITY2
000622: 42,2610           15340                           OCT      15340
000623: 42,2611           01031                           OCT      01031                                 #  VELOCITY3       (POINT BETWN BITS 7-8)
000624: 42,2612           21032                           OCT      21032
000625: 42,2613           34631                           OCT      34631                                 #  ELEVATION DEGREES
000626: 42,2614           23146                           OCT      23146
000627: 42,2615           00636                           OCT      00636                                 #  RENDEZVOUS RADAR RANGE
000628: 42,2616           14552                           OCT      14552
000629: 42,2617           74552                           OCT      74552                                 #  RENDEZVOUS RADAR RANGE RATE
000630: 42,2620           70307                           OCT      70307
000631: 42,2621           05520 15312                     2DEC     1.079      E-5        B14             #  LANDING RADAR ALTITUDE
000632:
000633: 42,2623           14226                           OCT      14226                                 #  INITIAL/FINAL ALTITUDE
000634: 42,2624           31757                           OCT      31757
000635: 42,2625           02476                           OCT      02476                                 #  ALTITUDE RATE
000636: 42,2626           05531                           OCT      05531
000637: 42,2627           35152 21203                     2DEC     5.571      E-5        B14             #  FORWARD/LATERAL VELOCITY
000638:
000639: 42,2631           00007                           OCT      00007                                 #  ROT HAND CONT ANGLE RATE
000640: 42,2632           13734                           OCT      13734
000641: 42,2633           74477 50643                     2DEC     -.6440     E-5        B14             #  LANDING RADAR VELX
000642:
000643: 42,2635           06265 16004                     2DEC     1.212      E-5        B14             #  LANDING RADAR VELY
000644:


000646: 42,2637           04426 31433                     2DEC     .8668      E-5        B14             #  LANDING RADAR VELZ
000647:
000648: 42,2641           34772                           OCT      34772                                 #  POSITION7
000649: 42,2642           07016                           OCT      07016
000650: 42,2643           01030                           OCT      01030                                 #  TRIM DEGREES2
000651: 42,2644           33675                           OCT      33675
000652: 42,2645           01046                           OCT      01046                                 #  COMPUTED ALTITUDE
000653: 42,2646           15700                           OCT      15700
000654: 42,2647           00321                           OCT      00321                                 #  DP DEGREES
000655: 42,2650           26706                           OCT      26706
000656: 42,2651           04231 27400                     2DEC     17.2010499 B-7                        #  POSITION 9
000657:
000658: 42,2653           01031 21032                     2DEC     .032808399                            #  VELOCITY4
000659:
000660: 42,2655           12172 34122                     2DEC     .32                                   #  RADIANS
000661:
000662: 42,2657           00206 14206                     2DEC*    3.280839896 E-2        B-2             #  VELOCITY5
000663:
000664:                                                                                                  #  END OF SFOUTAB
000665:
000666:
000667:                                                                                                  #  NN  SF CONSTANT               SF ROUTINE
000668:
000669: 42,2661           03453        IDADDTAB           ECADR    TTOGO                                 #  40 MIN/SEC                          M/S
000670: 42,2662           03663                           ECADR    VGDISP                                #  40 VEL3                             DP3
000671: 42,2663           03507                           ECADR    DVTOTAL                               #  40 VEL3                             DP3
000672: 42,2664           01044                           ECADR    DSPTEM1                               #  41 CDU DEG                          CDU
000673: 42,2665           01045                           ECADR    DSPTEM1    +1                         #  41 ELEV DEG                         ARTH
000674: 42,2666           00000                           OCT      0                                     #  41 SPARE COMPONENT
000675: 42,2667           02307                           ECADR    HAPO                                  #  42 POS4                             DP3
000676: 42,2670           02311                           ECADR    HPER                                  #  42 POS4                             DP3
000677: 42,2671           03663                           ECADR    VGDISP                                #  42 VEL3                             DP3
000678: 42,2672           01117                           ECADR    LAT                                   #  43 DPDEG(360)                       DP4
000679: 42,2673           01121                           ECADR    LONG                                  #  43 DPDEG(360)                        DP4
000680: 42,2674           01123                           ECADR    ALT                                   #  43 POS4                             DP3
000681: 42,2675           02112                           ECADR    HAPOX                                 #  44 POS4                             DP3
000682: 42,2676           02114                           ECADR    HPERX                                 #  44 POS4                             DP3
000683: 42,2677           02131                           ECADR    TFF                                   #  44 MIN/SEC                          M/S
000684: 42,2700           03462                           ECADR    TRKMKCNT                              #  45 WHOLE                            ARTH
000685: 42,2701           03453                           ECADR    TTOGO                                 #  45 MIN/SEC                          M/S
000686: 42,2702           02243                           ECADR    +MGA                                  #  45 DPDEG(360)                       DP4
000687: 42,2703           01340                           ECADR    DAPDATR1                              #  46 OCTAL ONLY                       OCT
000688: 42,2704           00374                           ECADR    CHANBKUP                              #  46 OCTAL ONLY
000689: 42,2705           00000                           OCT      0                                     #  46 SPARE COMPONENT
000690: 42,2706           01326                           ECADR    LEMMASS                               #  47 WEIGHT2                         ARTH1
000691: 42,2707           01327                           ECADR    CSMMASS                               #  47 WEIGHT2                         ARTH1
000692: 42,2710           00000                           OCT      0                                     #  47 SPARE COMPONENT
000693: 42,2711           03002                           ECADR    PITTIME                               #  48 TRIM DEG2                        ARTH
000694: 42,2712           03001                           ECADR    ROLLTIME                              #  48 TRIM DEG2                        ARTH
000695: 42,2713           00000                           OCT      0                                     #  48 SPARE COMPONENT


000697: 42,2714           00314                           ECADR    R22DISP                               #  49 POS5                             DP1
000698: 42,2715           00316                           ECADR    R22DISP    +2                         #  49 VEL3                             DP3
000699: 42,2716           01353                           ECADR    WHCHREAD                              #  49 WHOLE                            ARTH
000700: 42,2717           00000                           OCT      0                                     #  50 SPARE
000701: 42,2720           00000                           OCT      0                                     #  50 SPARE
000702: 42,2721           00000                           OCT      0                                     #  50 SPARE
000703: 42,2722           02171                           ECADR    ALPHASB                               #  51 DPDEG(360)                       DP4
000704: 42,2723           02173                           ECADR    BETASB                                #  51 DPDEG(360)                       DP4
000705: 42,2724           00000                           OCT      0                                     #  51 SPARE COMPONENT
000706: 42,2725           01753                           ECADR    ACTCENT                               #  52 DPDEG(360)                       DP4
000707: 42,2726           00000                           OCT      00000                                 #  52 SPARE COMPONENT
000708: 42,2727           00000                           OCT      00000                                 #  52 SPARE COMPONENT
000709: 42,2730           00000                           OCT      00000                                 #  53 SPARE
000710: 42,2731           00000                           OCT      00000                                 #  53
000711: 42,2732           00000                           OCT      00000                                 #  53
000712: 42,2733           02213                           ECADR    RANGE                                 #  54 POS5                             DP1
000713: 42,2734           02215                           ECADR    RRATE                                 #  54 VEL3                             DP3
000714: 42,2735           02217                           ECADR    RTHETA                                #  54 DPDEG(360)                       DP4
000715: 42,2736           03466                           ECADR    NN                                    #  55 WHOLE                            ARTH
000716: 42,2737           02247                           ECADR    ELEV                                  #  55 DPDEG(360)                       DP4
000717: 42,2740           03620                           ECADR    CENTANG                               #  55 DPDEG(360)                       DP4
000718: 42,2741           02171                           ECADR    RR-AZ                                 #  56 DPDEG(360)                       DP4
000719: 42,2742           02173                           ECADR    RR-ELEV                               #  56 DPDEG(360)                       DP4
000720: 42,2743           00000                           OCT      0                                     #  56 SPARE COMPONENT
000721: 42,2744           00000                           OCT      0                                     #  57 SPARE
000722: 42,2745           00000                           OCT      0                                     #  57 SPARE
000723: 42,2746           00000                           OCT      0                                     #  57 SPARE
000724: 42,2747           03605                           ECADR    POSTTPI                               #  58 POS4                             DP3
000725: 42,2750           03575                           ECADR    DELVTPI                               #  58 VEL3                             DP3
000726: 42,2751           02340                           ECADR    DELVTPF                               #  58 VEL3                             DP3
000727: 42,2752           02273                           ECADR    DVLOS                                 #  59 VEL3                             DP3
000728: 42,2753           02275                           ECADR    DVLOS      +2                         #  59 VEL3                             DP3
000729: 42,2754           02277                           ECADR    DVLOS      +4                         #  59 VEL3                             DP3
000730: 42,2755           03734                           ECADR    FORVEL                                #  60 VEL5                             DP3
000731: 42,2756           03473                           ECADR    HDOTDISP                              #  60 VEL3                             DP3
000732: 42,2757           03774                           ECADR    HCALC1                                #  60 COMP ALT                         DP1
000733: 42,2760           03475                           ECADR    TTFDISP                               #  61 MIN/SEC                          M/S
000734: 42,2761           03453                           ECADR    TTOGO                                 #  61 MIN/SEC                          M/S
000735: 42,2762           02613                           ECADR    OUTOFPLN                              #  61 POS7                             DP4
000736: 42,2763           03471                           ECADR    ABVEL                                 #  62 VEL3                             DP3
000737: 42,2764           03453                           ECADR    TTOGO                                 #  62 MIN/SEC                          M/S
000738: 42,2765           03507                           ECADR    DVTOTAL                               #  62 VEL3                             DP3
000739: 42,2766           03664                           ECADR    DELTAH                                #  63 COMP ALT                         DP1
000740: 42,2767           03473                           ECADR    HDOTDISP                              #  63 VEL3                             DP3
000741: 42,2770           03774                           ECADR    HCALC1                                #  63 COMP ALT                         DP1
000742: 42,2771           03666                           ECADR    FUNNYDSP                              #  64 2INT                             2INT
000743: 42,2772           03473                           ECADR    HDOTDISP                              #  64 VEL3                             DP3
000744: 42,2773           03534                           ECADR    HCALC                                 #  64 COMP ALT                         DP1
000745: 42,2774           00013                           ECADR    SAMPTIME                              #  65 HMS (MIXED ONLY TO KEEP CODE 65) HMS
000746: 42,2775           00013                           ECADR    SAMPTIME                              #  65 HMS                              HMS


000748: 42,2776           00013                           ECADR    SAMPTIME                              #  65 HMS                              HMS
000749: 42,2777           02177                           ECADR    RSTACK     +6                         #  66 LANDING RADAR ALT                DP1
000750: 42,3000           00000                           OCT      0                                     #  66 LR POSITION                     LRPOS
000751: 42,3001           00000                           OCT      0                                     #  66 SPARE COMPONENT
000752: 42,3002           02171                           ECADR    RSTACK                                #  67 LANDING RADAR VELX               DP1
000753: 42,3003           02173                           ECADR    RSTACK     +2                         #  67 LANDING RADAR VELY               DP1
000754: 42,3004           02175                           ECADR    RSTACK     +4                         #  67 LANDING RADAR VELZ               DP1
000755: 42,3005           02613                           ECADR    RANGEDSP                              #  68 POS7                             DP4
000756: 42,3006           03475                           ECADR    TTFDISP                               #  68 MIN/SEC                          M/S
000757: 42,3007           03471                           ECADR    ABVEL                                 #  68 VEL3                             DP3
000758: 42,3010           02635                           ECADR    DLANDZ                                #  69 COMP ALT                         DP1
000759: 42,3011           02633                           ECADR    DLANDY                                #  69 COMP ALT                         DP1
000760: 42,3012           02631                           ECADR    DLANDX                                #  69 COMP ALT                         DP1
000761: 42,3013           01235                           ECADR    AOTCODE                               #  70 OCTAL ONLY                       OCT
000762: 42,3014           01236                           ECADR    AOTCODE    +1                         #  70 OCTAL ONLY                       OCT
000763: 42,3015           01237                           ECADR    AOTCODE    +2                         #  70 OCTAL ONLY                       OCT
000764: 42,3016           01235                           ECADR    AOTCODE                               #  71 OCTAL ONLY                       OCT
000765: 42,3017           01236                           ECADR    AOTCODE    +1                         #  71 OCTAL ONLY                       OCT
000766: 42,3020           01237                           ECADR    AOTCODE    +2                         #  71 OCTAL ONLY                       OCT
000767: 42,3021           00035                           ECADR    CDUT                                  #  72 360-CDU DEG                   360-CDU
000768: 42,3022           00036                           ECADR    CDUS                                  #  72 CDU DEG                          CDU
000769: 42,3023           00000                           OCT      0                                     #  72 SPARE COMPONENT
000770: 42,3024           01106                           ECADR    TANG                                  #  73 360-CDU DEG                   360-CDU
000771: 42,3025           01107                           ECADR    TANG       +1                         #  73 CDU DEG                          CDU
000772: 42,3026           00000                           OCT      0                                     #  73 SPARE COMPONENT
000773: 42,3027           03453                           ECADR    TTOGO                                 #  74 MIN/SEC                          M/S
000774: 42,3030           02353                           ECADR    YAW                                   #  74 DPDEG(360)                       DP4
000775: 42,3031           02355                           ECADR    PITCH                                 #  74 DPDEG(360)                       DP4
000776: 42,3032           03577                           ECADR    DIFFALT                               #  75 POS4                             DP3
000777: 42,3033           02243                           ECADR    T1TOT2                                #  75 MIN/SEC
000778: 42,3034           02245                           ECADR    T2TOT3                                #  75 MIN/SEC                          M/S
000779: 42,3035           02267                           ECADR    ZDOTD                                 #  76 VEL3                             DP3
000780: 42,3036           02263                           ECADR    RDOTD                                 #  76 VEL3                             DP3
000781: 42,3037           03642                           ECADR    XRANGE                                #  76 POS4                             DP3
000782: 42,3040           03453                           ECADR    TTOGO                                 #  77 MIN/SEC                          M/S
000783: 42,3041           03503                           ECADR    VGBODY     +2                         #  77 VEL3                             DP3
000784: 42,3042           03471                           ECADR    ABVEL                                 #  77 VEL3                             DP3
000785: 42,3043           01330                           ECADR    DNRRANGE                              #  78 RR RANGE                     RR RANGE
000786: 42,3044           01331                           ECADR    DNRRDOT                               #  78 RR RANGE RATE           RR RANGE RATE
000787: 42,3045           01271                           ECADR    TTOTIG                                #  78 MIN/SEC                           M/S
000788: 42,3046           01240                           ECADR    CURSOR                                #  79 CDU DEG                          CDU
000789: 42,3047           01241                           ECADR    SPIRAL                                #  79 CDU DEG                          CDU
000790: 42,3050           00734                           ECADR    POSCODE                               #  79 WHOLE                            ARTH
000791: 42,3051           03733                           ECADR    DATAGOOD                              #  80 WHOLE                            ARTH
000792: 42,3052           03734                           ECADR    OMEGAD                                #  80 DPDEG(360)                       DP4
000793: 42,3053           00000                           OCT      0                                     #  80 SPARE COMPONENT
000794: 42,3054           03433                           ECADR    DELVLVC                               #  81 VEL3                             DP3
000795: 42,3055           03435                           ECADR    DELVLVC    +2                         #  81 VEL3                             DP3
000796: 42,3056           03437                           ECADR    DELVLVC    +4                         #  81 VEL3                             DP3
000797: 42,3057           03433                           ECADR    DELVLVC                               #  82 VEL3                             DP3


000799: 42,3060           03435                           ECADR    DELVLVC    +2                         #  82 VEL3                             DP3
000800: 42,3061           03437                           ECADR    DELVLVC    +4                         #  82 VEL3                             DP3
000801: 42,3062           03622                           ECADR    DELVIMU                               #  83 VEL3                             DP3
000802: 42,3063           03624                           ECADR    DELVIMU    +2                         #  83 VEL3                             DP3
000803: 42,3064           03626                           ECADR    DELVIMU    +4                         #  83 VEL3                             DP3
000804: 42,3065           01250                           ECADR    DELVOV                                #  84 VEL3                             DP3
000805: 42,3066           01252                           ECADR    DELVOV     +2                         #  84 VEL3                             DP3
000806: 42,3067           01254                           ECADR    DELVOV     +4                         #  84 VEL3                             DP3
000807: 42,3070           03501                           ECADR    VGBODY                                #  85 VEL3                             DP3
000808: 42,3071           03503                           ECADR    VGBODY     +2                         #  85 VEL3                             DP3
000809: 42,3072           03505                           ECADR    VGBODY     +4                         #  85 VEL3                             DP3
000810: 42,3073           03433                           ECADR    DELVLVC                               #  86 VEL3                             DP3
000811: 42,3074           03435                           ECADR    DELVLVC    +2                         #  86 VEL3                             DP3
000812: 42,3075           03437                           ECADR    DELVLVC    +4                         #  86 VEL3                             DP3
000813: 42,3076           01344                           ECADR    AZ                                    #  87 CDU DEG                          CDU
000814: 42,3077           01345                           ECADR    EL                                    #  87 CDU DEG                          CDU
000815: 42,3100           00000                           OCT      0                                     #  87 SPARE COMPONENT
000816: 42,3101           02706                           ECADR    STARAD                                #  88 FRAC                             FRAC
000817: 42,3102           02710                           ECADR    STARAD     +2                         #  88 FRAC                             FRAC
000818: 42,3103           02712                           ECADR    STARAD     +4                         #  88 FRAC                             FRAC
000819: 42,3104           02706                           ECADR    LANDLAT                               #  89 DPDEG(90)                        DP3
000820: 42,3105           02710                           ECADR    LANDLONG                              #  89 DPDEG(90)                        DP3
000821: 42,3106           02712                           ECADR    LANDALT                               #  89 POS5                             DP1
000822: 42,3107           02171                           ECADR    YLEM                                  #  90 POS5                              DP1
000823: 42,3110           02173                           ECADR    YDOTLEM                               #  90  VEL3                             DP3
000824: 42,3111           02175                           ECADR    PHILEM                                #  90 DPDEG(360)                        DP4
000825: 42,3112           03715                           ECADR    P21ALT                                #  91 POS4                             DP3
000826: 42,3113           03711                           ECADR    P21VEL                                #  91  VEL2                            DP4
000827: 42,3114           03713                           ECADR    P21GAM                                #  91 DPDEG(360)                       DP4
000828: 42,3115           03750                           ECADR    THRDISP                               #  92 WHOLE                            ARTH
000829: 42,3116           03473                           ECADR    HDOTDISP                              #  92 VEL3                             DP3
000830: 42,3117           03774                           ECADR    HCALC1                                #  92 COMP ALT                         DP1
000831: 42,3120           02737                           ECADR    OGC                                   #  93 DPDEG(90)                        DP3
000832: 42,3121           02741                           ECADR    OGC        +2                         #  93 DPDEG(90)                        DP3
000833: 42,3122           02743                           ECADR    OGC        +4                         #  93 DPDEG(90)                        DP3
000834: 42,3123           03501                           ECADR    VGBODY                                #  94 VEL3                             DP3
000835: 42,3124           03473                           ECADR    HDOTDISP                              #  94 VEL3                             DP3
000836: 42,3125           03534                           ECADR    HCALC                                 #  94 COMP ALT                         DP1
000837: 42,3126           00000                           OCT      0                                     #  95 SPARE
000838: 42,3127           00000                           OCT      0                                     #  95 SPARE
000839: 42,3130           00000                           OCT      0                                     #  95 SPARE
000840: 42,3131           00000                           OCT      0                                     #  96 SPARE
000841: 42,3132           00000                           OCT      0                                     #  96 SPARE
000842: 42,3133           00000                           OCT      0                                     #  96 SPARE
000843: 42,3134           01044                           ECADR    DSPTEM1                               #  97 WHOLE                            ARTH
000844: 42,3135           01045                           ECADR    DSPTEM1    +1                         #  97 WHOLE                            ARTH
000845: 42,3136           01046                           ECADR    DSPTEM1    +2                         #  97 WHOLE                            ARTH
000846: 42,3137           01047                           ECADR    DSPTEM2                               #  98 WHOLE                            ARTH
000847: 42,3140           01050                           ECADR    DSPTEM2    +1                         #  98 FRAC                             FRAC
000848: 42,3141           01051                           ECADR    DSPTEM2    +2                         #  98 WHOLE                            ARTH


000850: 42,3142           02171                           ECADR    WWPOS                                 #  99 POS9                             DP3
000851: 42,3143           02173                           ECADR    WWVEL                                 #  99 VEL4                             DP2
000852: 42,3144           02175                           ECADR    WWBIAS                                #  99 RADIANS                          DP4
000853:                                                                                                  #  END OF IDADDTAB
000854:
000855:                                                                                                  #  NN  SF ROUTINES
000856:
000857: 42,3145           16351        RUTMXTAB           OCT      16351                                 #  40 M/S, DP3, DP3
000858: 42,3146           00142                           OCT      00142                                 #  41 CDU, ARTH
000859: 42,3147           16347                           OCT      16347                                 #  42 DP3, DP3, DP3
000860: 42,3150           16512                           OCT      16512                                 #  43 DP4, DP4, DP3
000861: 42,3151           22347                           OCT      22347                                 #  44 DP3, DP3, M/S
000862: 42,3152           24443                           OCT      24443                                 #  45 ARTH, M/S, DP4
000863: 42,3153           00000                           OCT      00000                                 #  46 OCT, OCT
000864: 42,3154           00553                           OCT      00553                                 #  47 ARITH1, ARITH1
000865: 42,3155           00143                           OCT      00143                                 #  48 ARTH, ARTH
000866: 42,3156           06344                           OCT      06344                                 #  49 DP1, DP3, ARTH
000867: 42,3157           00000                           OCT      0                                     #  50 SPARE
000868: 42,3160           00512                           OCT      00512                                 #  51 DP4, DP4
000869: 42,3161           00012                           OCT      00012                                 #  52 DP4
000870: 42,3162           00000                           OCT      00000                                 #  53 SPARE
000871: 42,3163           24344                           OCT      24344                                 #  54 DP1, DP3, DP4
000872: 42,3164           24503                           OCT      24503                                 #  55 ARTH, DP4 , DP4
000873: 42,3165           00512                           OCT      00512                                 #  56 DP4, DP4
000874: 42,3166           00000                           OCT      0                                     #  57 SPARE
000875: 42,3167           16347                           OCT      16347                                 #  58 DP3, DP3, DP3
000876: 42,3170           16347                           OCT      16347                                 #  59 DP3, DP3, DP3
000877: 42,3171           10347                           OCT      10347                                 #  60 DP3, DP3, DP1
000878: 42,3172           24451                           OCT      24451                                 #  61 M/S, M/S, DP4
000879: 42,3173           16447                           OCT      16447                                 #  62 DP3, M/S, DP3
000880: 42,3174           10344                           OCT      10344                                 #  63 DP1, DP3, DP1
000881: 42,3175           10354                           OCT      10354                                 #  64 2INT, DP3, DP1
000882: 42,3176           20410                           OCT      20410                                 #  65 HMS, HMS, HMS
000883: 42,3177           00304                           OCT      00304                                 #  66 DP1, LRPOS
000884: 42,3200           10204                           OCT      10204                                 #  67 DP1, DP1, DP1
000885: 42,3201           16452                           OCT      16452                                 #  68 DP4, M/S, DP3
000886: 42,3202           10204                           OCT      10204                                 #  69 DP1, DP1, DP1
000887: 42,3203           00000                           OCT      0                                     #  70 OCT, OCT, OCT
000888: 42,3204           00000                           OCT      0                                     #  71 OCT, OCT, OCT
000889: 42,3205           00115                           OCT      00115                                 #  72 360-CDU, CDU
000890: 42,3206           00115                           OCT      00115                                 #  73 360-CDU, CDU
000891: 42,3207           24511                           OCT      24511                                 #  74M/S, DP4,DP4
000892: 42,3210           22447                           OCT      22447                                 #  75 DP3, M/S, M/S
000893: 42,3211           16347                           OCT      16347                                 #  76 DP3, DP3, DP3
000894: 42,3212           16351                           OCT      16351                                 #  77 M/S, DP3, DP3
000895: 42,3213           22756                           OCT      22756                                 #  78 RR RANGE, RR RANGE RATE, M/S
000896: 42,3214           06102                           OCT      06102                                 #  79 CDU, CDU, ARTH
000897: 42,3215           00503                           OCT      00503                                 #  80 ARTH, DP4
000898: 42,3216           16347                           OCT      16347                                 #  81 DP3, DP3, DP3


000900: 42,3217           16347                           OCT      16347                                 #  82 DP3, DP3, DP3
000901: 42,3220           16347                           OCT      16347                                 #  83 DP3, DP3, DP3
000902: 42,3221           16347                           OCT      16347                                 #  84 DP3, DP3, DP3
000903: 42,3222           16347                           OCT      16347                                 #  85 DP3, DP3, DP3
000904: 42,3223           16347                           OCT      16347                                 #  86 DP3, DP3, DP3
000905: 42,3224           00102                           OCT      00102                                 #  87 CDU, CDU
000906: 42,3225           02041                           OCT      02041                                 #  88 FRAC FOR EACH
000907: 42,3226           10347                           OCT      10347                                 #  89 DP3, DP3, DP1
000908: 42,3227           24344                           OCT      24344                                 #  90 DP1, DP3, DP4
000909: 42,3230           24507                           OCT      24507                                 #  91 DP3, DP4, DP4
000910: 42,3231           10343                           OCT      10343                                 #  92 ARTH, DP3, DP1
000911: 42,3232           16347                           OCT      16347                                 #  93 DP3, DP3, DP3
000912: 42,3233           10347                           OCT      10347                                 #  94 DP3, DP3, DP1
000913: 42,3234           00000                           OCT      0                                     #  95 SPARE
000914: 42,3235           00000                           OCT      0                                     #  96 SPARE
000915: 42,3236           06143                           OCT      06143                                 #  97 ARTH, ARTH, ARTH
000916: 42,3237           06043                           OCT      06043                                 #  98 ARTH, FRAC, ARTH
000917: 42,3240           24247                           OCT      24247                                 #  99 DP3, DP2, DP4
000918:                                                                                                  #  END OF RUTMXTAB
000919:
000920: 42,3241  30,2000                                  SBANK=   LOWSUPER

End of include-file PINBALL_NOUN_TABLES.agc.  Parent file is MAIN.agc


