
Source Code


000002:                                                                                                  ## Copyright:   Public domain.
000003:                                                                                                  ## Filename:    PINBALL_GAME__BUTTONS_AND_LIGHTS.agc
000004:                                                                                                  ## Purpose:     A section of Luminary revision 210.
000005:                                                                                                  ##              It is part of the source code for the Lunar Module's (LM)
000006:                                                                                                  ##              Apollo Guidance Computer (AGC) for Apollo 15-17.
000007:                                                                                                  ##              This file is intended to be a faithful transcription, except
000008:                                                                                                  ##              that the code format has been changed to conform to the
000009:                                                                                                  ##              requirements of the yaYUL assembler rather than the
000010:                                                                                                  ##              original YUL assembler.
000011:                                                                                                  ## Reference:   pp. 402-486
000012:                                                                                                  ## Assembler:   yaYUL
000013:                                                                                                  ## Contact:     Ron Burkey <info@sandroid.org>.
000014:                                                                                                  ## Website:     www.ibiblio.org/apollo/index.html
000015:                                                                                                  ## Mod history: 2016-11-17 JL   Created from Luminary131 version.
000016:                                                                                                  ##              2016-11-18 MAS  Started corrections.
000017:                                                                                                  ##              2016-11-20 MAS  Completed. Mostly comments, bank movements,
000018:                                                                                                  ##                              and minor changes related to new lights.
000019:                                                                                                  ##              2016-12-07 HG   Fix P00 -> POO
000020:                                                                                                  ##              2016-12-23 RSB  Proofed comment text with octopus/ProoferComments
000021:                                                                                                  ##                              and fixed all errors found.
000022:


000024:                                                                                                  #  PROGRAM NAME - KEYBOARD AND DISPLAY PROGRAM
000025:                                                                                                  #  MOD NO - 4      DATE - 27 APRIL 1967      ASSEMBLY - PINDANCE REV 18
000026:                                                                                                  #  MOD BY - FILENE
000027:                                                                                                  #  LOG SECTION - PINBALL GAME BUTTONS AND LIGHTS
000028:
000029:                                                                                                  #  FUNCTIONAL DESCRIPTION-
000030:
000031:                                                                                                  #     THE KEYBOARD AND DISPLAY SYSTEM PROGRAM OPERATES UNDER EXECUTIVE
000032:                                                                                                  #  CONTROL AND PROCESSES INFORMATION EXCHANGED BETWEEN THE AGC AND THE
000033:                                                                                                  #  COMPUTER OPERATOR.  THE INPUTS TO THE PROGRAM ARE FROM THE KEYBOARD,
000034:                                                                                                  #  FROM INTERNAL PROGRAMS, AND FROM THE UPLINK.
000035:                                                                                                  #     THE LANGUAGE OF COMMUNICATION WITH THE PROGRAM IS A PAIR OF WORDS
000036:                                                                                                  #  KNOWN AS VERB AND NOUN.  EACH OF THESE IS REPRESENTED BY A 2 CHARACTER
000037:                                                                                                  #  DECIMAL NUMBER.  THE VERB CODE INDICATES WHAT ACTION IS TO BE TAKEN, THE
000038:                                                                                                  #  NOUN CODE INDICATES TO WHAT THIS ACTION IS APPLIED.  NOUNS USUALLY
000039:                                                                                                  #  REFER TO A GROUP OF ERASABLE REGISTERS.
000040:
000041:                                                                                                  #  VERBS ARE GROUPED INTO DISPLAYS, LOADS, MONITORS (DISPLAYS THAT ARE
000042:                                                                                                  #  UPDATED ONCE PER SECOND), SPECIAL FUNCTIONS, AND EXTENDED VERBS(THESE
000043:                                                                                                  #  ARE OUTSIDE OF THE DOMAIN OF PINBALL AND CAN BE FOUND UNDER LOG SECTION
000044:                                                                                                  #  :EXTENDED VERBS:).
000045:                                                                                                  #  A LIST OF VERBS AND NOUNS IS GIVEN IN LOG SECTION :ASSEMBLY AND
000046:                                                                                                  #  OPERATION INFORMATION:.
000047:
000048:
000049:                                                                                                  #  CALLING SEQUENCES-
000050:
000051:                                                                                                  #  KEYBOARD:
000052:                                                                                                  #     EACH DEPRESSION OF A KEYBOARD BUTTON ACTIVATES INTERRUPT KEYRUPT1
000053:                                                                                                  #  AND PLACES THE 5 BIT KEY CODE INTO CHANNEL 15.  KEYRUPT1 PLACES THE KEY
000054:                                                                                                  #  CODE INTO MPAC, ENTERS AN EXECUTIVE REQUEST FOR THE KEYBOARD AND DISPLAY
000055:                                                                                                  #  PROGRAM (AT :CHARIN:), AND EXECUTES A RESUME.
000056:
000057:                                                                                                  #  UPLINK:
000058:                                                                                                  #     EACH WORD RECEIVED BY THE UPLINK ACTIVATES INTERRUPT UPRUPT WHICH
000059:                                                                                                  #  PLACES THE 5 BIT KEY CODE INTO MPAC, ENTERS AN EXECUTIVE REQUEST FOR THE
000060:                                                                                                  #  KEYBOARD AND DISPLAY PROGRAM (AT:CHARIN:) AND EXECUTES A RESUME.
000061:
000062:                                                                                                  #  INTERNAL PROGRAMS:
000063:                                                                                                  #     INTERNAL PROGRAMS CALL PINBALL AT :NVSUB: WITH THE DESIRED VERB/NOUN
000064:                                                                                                  #  CODE IN A (LOW 7 BITS FOR NOUN, NEXT 7 BITS FOR VERB).  DETAILS
000065:                                                                                                  #  DESCRIBED ON REMARKS CARDS JUST BEFORE :NVSUB: AND :NVSBWAIT: (SEE
000066:                                                                                                  #  SYMBOL TABLE FOR PAGE NUMBERS).
000067:
000068:
000069:                                                                                                  #  NORMAL EXIT MODES-
000070:
000071:                                                                                                  #     IF PINBALL WAS CALLED BY EXTERNAL ACTION, THERE ARE FOUR EXITS:
000072:                                                                                                  #           1) ALL BUT (2), (3), AND (4) EXIT DIRECTLY TO ENDOFJOB.
000073:                                                                                                  #           2) EXTENDED VERBS GO TO THE EXTENDED VERB FAN AS PART OF THE


000075:                                                                                                  #              PINBALL EXECUTIVE JOB WITH PRIORITY 30000.  IT IS THE
000076:                                                                                                  #              RESPONSIBILITY OF THE EXTENDED VERB CALLED TO EVENTUALLY
000077:                                                                                                  #              CHANGE PRIORITY (IF NECESSARY) AND DO AN ENDOFJOB.
000078:                                                                                                  #              ALSO PINBALL IS A NOVAC JOB. EBANK SET FOR COMMON.
000079:                                                                                                  #           3) VERB 37. CHANGE OF PROGRAM (MAJOR MODE) CALLS :V37: IN THE
000080:                                                                                                  #              SERVICE ROUTINES AS PART OF THE PINBALL EXEC JOB WITH PRIO
000081:                                                                                                  #              30000.  THE NEW PROGRAM CODE (MAJOR MODE) IS LEFT IN A.
000082:                                                                                                  #           4) KEY RELEASE BUTTON CALLS :PINBRNCH: IN THE DISPLAY INTERFACE
000083:                                                                                                  #              ROUTINES AS PART OF THE PINBALL EXEC JOB WITH PRIO 30000 IF
000084:                                                                                                  #              THE KEY RELEASE LIGHT IS OFF AND :CADRSTOR: IS NOT +0.
000085:
000086:                                                                                                  #     IF PINBALL WAS CALLED BY INTERNAL PROGRAMS, EXIT FROM PINBALL IS BACK
000087:                                                                                                  #  TO CALLING ROUTINE.  DETAILS DESCRIBED IN REMARKS CARDS JUST BEFORE
000088:                                                                                                  #  :NVSUB: AND :NVSBWAIT: (SEE SYMBOL TABLE FOR PAGE NUMBERS).
000089:
000090:
000091:                                                                                                  #  ALARM OR ABORT EXIT MODES-
000092:
000093:                                                                                                  #  EXTERNAL INITIATION:
000094:                                                                                                  #     IF SOME IMPROPER SEQUENCE OF KEY CODES IS DETECTED, THE OPERATOR
000095:                                                                                                  #  ERROR LIGHT IS TURNED ON AND EXIT IS TO :ENDOFJOB:.
000096:
000097:                                                                                                  #  INTERNAL PROGRAM INITIATION:
000098:                                                                                                  #     IF AN ILLEGAL V/N COMBINATION IS ATTEMPTED, AN ABORT IS CAUSED
000099:                                                                                                  #  (WITH OCTAL 01501).
000100:                                                                                                  #     IF A SECOND ATTEMPT IS MADE TO GO TO SLEEP IN PINBALL, AN ABORT IS
000101:                                                                                                  #  CAUSED (WITH OCTAL 01206). THERE ARE TWO WAYS TO GO TO SLEEP IN PINBALL:
000102:                                                                                                  #           1) ENDIDLE OR DATAWAIT.
000103:                                                                                                  #           2) NVSBWAIT, PRENVBSY, OR NVSUBUSY.
000104:
000105:                                                                                                  #  CONDITIONS LEADING TO THE ABOVE ARE DESCRIBED IN FORTHCOMING MIT/IL
000106:                                                                                                  #  E-REPORT DESCRIBING KEYBOARD AND DISPLAY OPERATION FOR 278.
000107:
000108:
000109:                                                                                                  #  OUTPUT-
000110:
000111:                                                                                                  #     INFORMATION TO BE SENT TO THE DISPLAY PANEL IS LEFT IN THE :DSPTAB:
000112:                                                                                                  #  BUFFERS REGISTERS (UNDER EXEC CONTROL).  :DSPOUT: (A PART OF T4RUPT)
000113:                                                                                                  #  HANDLES THE PLACING OF THE :DSPTAB: INFORMATION INTO OUTPUT CHANNEL 10
000114:                                                                                                  #  IN INTERRUPT.
000115:
000116:
000117:                                                                                                  #  ERASABLE INITIALIZATION-
000118:
000119:                                                                                                  #     FRESH START AND RESTART INITIALIZE THE NECESSARY E REGISTERS FOR
000120:                                                                                                  #  PINBALL IN :STARTSUB:.   REGISTERS ARE:  DSPTAB BUFFER, CADRSTOR,
000121:                                                                                                  #  REQRET, CLPASS, DSPLOCK, MONSAVE, MONSAVE1, VERBREG, NOUNREG, DSPLIST,
000122:                                                                                                  #  DSPCOUNT, NOUT.
000123:
000124:                                                                                                  #  A COMPLETE LIST OF ALL THE ERASABLES (BOTH RESERVED AND TEMPORARIES) FOR


000126:                                                                                                  #  PINBALL IS GIVEN BELOW.
000127:
000128:
000129:                                                                                                  #  THE FOLLOWING ARE OF GENERAL INTEREST-
000130:
000131:                                                                                                  #     REMARKS CARDS PRECEDE THE REFERENCED SYMBOL DEFINITION.  SEE SYMBOL
000132:                                                                                                  #  TABLE TO FIND APPROPRIATE PAGE NUMBERS.
000133:
000134:                                                                                                  #     NVSUB   CALLING POINT FOR INTERNAL USE OF PINBALL.
000135:                                                                                                  #               OF RELATED INTEREST   NVSBWAIT
000136:                                                                                                  #                                     NVSUBUSY
000137:                                                                                                  #                                     PRENVBSY
000138:
000139:                                                                                                  #     ENDIDLE   ROUTINE FOR INTERNAL PROGRAMS WISHING TO GO TO SLEEP WHILE
000140:                                                                                                  #               AWAITING OPERATORS RESPONSE.
000141:
000142:                                                                                                  #     DSPMM   ROUTINE BY WHICH AN INTERNAL PROGRAM MAY DISPLAY A DECIMAL
000143:                                                                                                  #             PROGRAM CODE (MAJOR MODE) IN THE PROGRAM (MAJOR MODE) LIGHTS.
000144:                                                                                                  #             (DSPMM DOES NOT DISPLAY DIRECTLY BUT ENTERS EXEC REQUEST
000145:                                                                                                  #             FOR DSPMMJB WITH PRIO 30000 AND RETURNS TO CALLER.)
000146:
000147:                                                                                                  #     BLANKSUB   ROUTINE BY WHICH AN INTERNAL PROGRAM MAY BLANK ANY
000148:                                                                                                  #                COMBINATION OF THE DISPLAY REGISTERS R1, R2, R3.
000149:
000150:                                                                                                  #     JAMTERM   ROUTINES BY WHICH AN INTERNAL PROGRAM MAY PERFORM THE
000151:                                                                                                  #     JAMPROC   TERMINATE (V 34) OR PROCEED (V 33) FUNCTION.
000152:
000153:                                                                                                  #     MONITOR   VERBS FOR PERIODIC ( 1 PER SEC) DISPLAY.
000154:
000155:                                                                                                  #     PLEASE PERFORM, PLEASE MARK SITUATIONS
000156:                                                                                                  #                  REMARKS DESCRIBING HOW AN INTERNAL ROUTINE SHOULD HANDLE
000157:                                                                                                  #                  THESE SITUATIONS CAN BE FOUND JUST BEFORE :NVSUB: (SEE
000158:                                                                                                  #                  SYMBOL TABLE FOR PAGE NUMBER).
000159:
000160:                                                                                                  #     THE NOUN TABLE FORMAT IS DESCRIBED ON A PAGE OF REMARKS CARDS JUST
000161:                                                                                                  #     BEFORE :DSPABC: (SEE SYMBOL TABLE FOR PAGE NUMBER).
000162:
000163:                                                                                                  #     THE NOUN TABLES THEMSELVES ARE FOUND IN LOG SECTION :PINBALL NOUN
000164:                                                                                                  #     TABLES:.
000165:
000166:
000167:                                                                                                  #  FOR FURTHER DETAILS ABOUT OPERATION OF THE KEYBOARD AND DISPLAY SYSTEM
000168:                                                                                                  #  PROGRAM, SEE THE MISSION PLAN AND/OR MIT/IL E-2129
000169:                                                                                                  #  DESCRIBING KEYBOARD AND DISPLAY OPERATION FOR 278.


000172:
000173:
000174:                                                                                                  #  THE FOLLOWING QUOTATION IS PROVIDED THROUGH THE COURTESY OF THE AUTHORS.
000175:
000176:                                                                                                  #        ::IT WILL BE PROVED TO THY FACE THAT THOU HAST MEN ABOUT THEE THAT
000177:                                                                                                  #  USUALLY TALK OF A NOUN AND A VERB, AND SUCH ABOMINABLE WORDS AS NO


000179:                                                                                                  #  CHRISTIAN EAR CAN ENDURE TO HEAR.::
000180:
000181:                                                                                                  #                       HENRY 6, ACT 2, SCENE 4
000182:
000183:
000184:                                                                                                  #  THE FOLLOWING ASSIGNMENTS FOR PINBALL ARE MADE ELSEWHERE
000185:
000186:
000187:                                                                                                  #  RESERVED FOR PINBALL EXECUTIVE ACTION
000188:
000189:                                                                                                  #  DSPCOUNT ERASE                  DISPLAY POSITION INDICATOR
000190:                                                                                                  #  DECBRNCH ERASE                  +DEC, - DEC, OCT INDICATOR
000191:                                                                                                  #  VERBREG  ERASE                  VERB CODE
000192:                                                                                                  #  NOUNREG  ERASE                  NOUN CODE
000193:                                                                                                  #  XREG     ERASE                  R1 INPUT BUFFER
000194:                                                                                                  #  YREG     ERASE                  R2 INPUT BUFFER
000195:                                                                                                  #  ZREG     ERASE                  R3 INPUT BUFFER
000196:                                                                                                  #  XREGLP   ERASE                  LO PART OF XREG (FOR DEC CONV ONLY)
000197:                                                                                                  #  YREGLP   ERASE                  LO PART OF YREG (FOR DEC CONV ONLY)
000198:                                                                                                  #  HITEMOUT =      YREGLP          TEMP FOR DISPLAY OF HRS, MIN, SEC
000199:                                                                                                  #                                           MUST = LOTEMOUT-1.
000200:                                                                                                  #  ZREGLP   ERASE                  LO PART OF ZREG (FOR DEC CONV ONLY)
000201:                                                                                                  #  LOTEMOUT =      ZREGLP          TEMP FOR DISPLAY OF HRS, MIN, SEC
000202:                                                                                                  #                                           MUST = HITEMOUT+1.
000203:                                                                                                  #  MODREG   ERASE                  MODE CODE
000204:                                                                                                  #  DSPLOCK  ERASE                  KEYBOARD/SUBROUTINE CALL INTERLOCK
000205:                                                                                                  #  REQRET   ERASE                  RETURN REGISTER FOR LOAD
000206:                                                                                                  #  LOADSTAT ERASE                  STATUS INDICATOR FOR LOADTST
000207:                                                                                                  #  CLPASS   ERASE                  PASS INDICATOR CLEAR
000208:                                                                                                  #  NOUT     ERASE                  ACTIVITY COUNTER FOR DSPTAB
000209:                                                                                                  #  NOUNCADR ERASE                  MACHINE CADR FOR NOUN
000210:                                                                                                  #  MONSAVE  ERASE                  N/V CODE FOR MONITOR. (= MONSAVE1-1)
000211:                                                                                                  #  MONSAVE1 ERASE                  NOUNCADR FOR MONITOR(MATBS) =MONSAVE +1
000212:                                                                                                  #  MONSAVE2 ERASE                  NVMONOPT OPTIONS
000213:                                                                                                  #  DSPTAB   ERASE          +13D    0-10,DISPLAY PANEL BUFFER.11-13,C RELAYS
000214:                                                                                                  #  CADRSTOR ERASE                  ENDIDLE STORAGE
000215:                                                                                                  #  NVQTEM   ERASE                  NVSUB STORAGE FOR CALLING ADDRESS
000216:                                                                                                  #                                  MUST = NVBNKTEM-1
000217:                                                                                                  #  NVBNKTEM ERASE                  NVSUB STORAGE FOR CALLING BANK
000218:                                                                                                  #                                  MUST = NVQTEM+1
000219:                                                                                                  #  VERBSAVE ERASE                  NEEDED FOR RECYCLE
000220:                                                                                                  #  DSPLIST  ERASE                  WAITING REG FOR DSP SYST INTERNAL USE
000221:                                                                                                  #  EXTVBACT REASE                  EXTENDED VERB ACTIVITY INTERLOCK
000222:                                                                                                  #  DSPTEM1  ERASE          +2      BUFFER STORAGE AREA 1 (MOSTLY FOR TIME)
000223:                                                                                                  #  DSPTEM2  ERASE          +2      BUFFER STORAGE AREA 2 (MOSTLY FOR DEG)
000224:                                                                                                  #  END OF ERASABLES RESERVED FOR PINBALL EXECUTIVE ACTION
000225:
000226:
000227:                                                                                                  #  TEMPORARIES FOR PINBALL EXECUTIVE ACTION


000229:                                                                                                  #  DSEXIT   =      INTB15+         RETURN FOR DSPIN
000230:                                                                                                  #  EXITEM   =      INTB15+         RETURN FOR SCALE FACTOR ROUTINE SELECT
000231:                                                                                                  #  BLANKRET =      INTB15+         RETURN FOR 2BLANK
000232:
000233:                                                                                                  #  WRDRET   =      INTBIT15        RETURN FOR 5BLANK
000234:                                                                                                  #  WDRET    =      INTBIT15        RETURN FOR DSPWD
000235:                                                                                                  #  DECRET   =      INTBIT15        RETURN FOR PUTCOM(DEC LOAD)
000236:                                                                                                  #  21/22REG =      INTBIT15        TEMP FOR CHARIN
000237:
000238:                                                                                                  #  UPDATRET =      POLISH          RETURN FOR UPDATNN, UPDATVB
000239:                                                                                                  #  CHAR     =      POLISH          TEMP FOR CHARIN
000240:                                                                                                  #  ERCNT    =      POLISH          COUNTER FOR ERROR LIGHT RESET
000241:                                                                                                  #  DECOUNT  =      POLISH          COUNTER FOR SCALING AND DISPLAY (DEC)
000242:
000243:                                                                                                  #  SGNON    =      VBUF            TEMP FOR +,- ON
000244:                                                                                                  #  NOUNTEM  =      VBUF            COUNTER FOR MIXNOUN FETCH
000245:                                                                                                  #  DISTEM   =      VBUF            COUNTER FOR OCTAL DISPLAY VERBS
000246:                                                                                                  #  DECTEM   =      VBUF            COUNTER FOR FETCH (DEC DISPLAY VERBS)
000247:
000248:                                                                                                  #  SGNOFF   =      VBUF    +1      TEMP FOR +,- ON
000249:                                                                                                  #  NVTEMP   =      VBUF    +1      TEMP FOR NVSUB
000250:                                                                                                  #  SFTEMP1  =      VBUF    +1      STORAGE FOR SF CONST HI PART(=SFTEMP2-1)
000251:                                                                                                  #  HITEMIN  =      VBUF    +1      TEMP FOR LOAD OF HRS, MIN, SEC
000252:                                                                                                  #                                           MUST = LOTEMIN-1.
000253:                                                                                                  #  CODE     =      VBUF    +2      FOR DSPIN
000254:                                                                                                  #  SFTEMP2  =      VBUF    +2      STORAGE FOR SF CONST LO PART(=SFTEMP1+1)
000255:                                                                                                  #  LOTEMIN  =      VBUF    +2      TEMP FOR LOAD OF HRS, MIN, SEC
000256:                                                                                                  #                                           MUST = HITEMIN+1.
000257:                                                                                                  #  MIXTEMP  =      VBUF    +3      FOR MIXNOUN DATA
000258:                                                                                                  #  SIGNRET  =      VBUF    +3      RETURN FOR +,- ON
000259:
000260:                                                                                                  #  ALSO MIXTEMP+1 = VBUF+4, MIXTEMP+2 = VBUF+5.
000261:
000262:                                                                                                  #  ENTRET   =      DOTINC          EXIT FROM ENTER
000263:
000264:                                                                                                  #  WDCNT    =      DOTRET          CHAR COUNTER FOR DSPWD
000265:                                                                                                  #  INREL    =      DOTRET          INPUT BUFFER SELECTOR ( X,Y,Z, REG )
000266:
000267:                                                                                                  #  DSPMMTEM =      MATINC          DSPCOUNT SAVE FOR DSPMM
000268:                                                                                                  #  MIXBR    =      MATINC          INDICATOR FOR MIXED OR NORMAL NOUN
000269:
000270:                                                                                                  #  TEM1     ERASE                  EXEC TEMP
000271:                                                                                                  #  DSREL    =      TEM1            REL ADDRESS FOR DSPIN
000272:
000273:                                                                                                  #  TEM2     ERASE                  EXEC TEMP
000274:                                                                                                  #  DSMAG    =      TEM2            MAGNITUDE STORE FOR DSPIN
000275:                                                                                                  #  IDADDTEM =      TEM2            MIXNOUN INDIRECT ADDRESS STORAGE
000276:
000277:                                                                                                  #  TEM3     ERASE                  EXEC TEMP
000278:                                                                                                  #  COUNT    =      TEM3            FOR DSPIN
000279:


000281:                                                                                                  #  TEM4     ERASE                  EXEC TEMP
000282:                                                                                                  #  LSTPTR   =      TEM4            LIST POINTER FOR GRABUSY
000283:                                                                                                  #  RELRET   =      TEM4            RETURN FOR RELDSP
000284:                                                                                                  #  FREERET  =      TEM4            RETURN FOR FREEDSP
000285:                                                                                                  #  DSPWDRET =      TEM4            RETURN FOR DSPSIGN
000286:                                                                                                  #  SEPSCRET =      TEM4            RETURN FOR SEPSEC
000287:                                                                                                  #  SEPMNRET =      TEM4            RETURN FOR SEPMIN
000288:
000289:                                                                                                  #  TEM5     ERASE                  EXEC TEMP
000290:                                                                                                  #  NOUNADD  =      TEM5            TEMP STORAGE FOR NOUN ADDRESS
000291:
000292:                                                                                                  #  NNADTEM  ERASE                  TEMP FOR NOUN ADDRESS TABLE ENTRY
000293:                                                                                                  #  NNTYPTEM ERASE                  TEMP FOR NOUN TYPE TABLE ENTRY
000294:                                                                                                  #  IDAD1TEM ERASE                  TEMP FOR INDIR ADRESS TABLE ENTRY(MIXNN)
000295:                                                                                                  #                                  MUST = IDAD2TEM-1, - IDAD3TEM-2.
000296:                                                                                                  #  IDAD2TEM ERASE                  TEMP FOR INDIR ADRESS TABLE ENTRY(MIXNN)
000297:                                                                                                  #                                  MUST = IDAD1TEM+1, - IDAD3TEM-1.
000298:                                                                                                  #  IDAD3TEM ERASE                  TEMP FOR INDIR ADRESS TABLE ENTRY(MIXNN)
000299:                                                                                                  #                                  MUST = IDAD1TEM+2, = IDAD2TEM+1.
000300:                                                                                                  #  RUTMXTEM ERASE                  TEMP FOR SF ROUT TABLE ENTRY(MIXNN ONLY)
000301:                                                                                                  #  END OF TEMPORARIES FOR PINBALL EXECUTIVE ACTION
000302:
000303:
000304:                                                                                                  #  ADDITIONAL TEMPORARIES FOR PINBALL EXECUTIVE ACTION
000305:
000306:                                                                                                  #  MPAC, THRU MPAC +6
000307:                                                                                                  #  BUF, +1, +2
000308:                                                                                                  #  BUF2, +1, +2
000309:                                                                                                  #  MPTEMP
000310:                                                                                                  #  ADDRWD
000311:                                                                                                  #    END OF ADDITIONAL TEMPS FOR PINBALL EXEC ACTION
000312:
000313:
000314:                                                                                                  #  RESERVED FOR PINBALL INTERRUPT ACTION
000315:
000316:                                                                                                  #  DSPCNT   ERASE                  COUNTER FOR DSPOUT
000317:                                                                                                  #  UPLOCK   ERASE                  BIT1 = UPLINK INTERLOCK (ACTIVATED BY
000318:                                                                                                  #                                                                          RECEPTION OF A BAD MESSAGE IN UPLINK)
000319:                                                                                                  #  END OF ERASABLES RESERVED FOR PINBALL INTERRUPT ACTION
000320:
000321:
000322:                                                                                                  #  TEMPORARIES FOR PINBALL INTERRUPT ACTION
000323:
000324:                                                                                                  #  KEYTEMP1 =      WAITEXIT        TEMP FOR KEYRUPT, UPRUPT
000325:                                                                                                  #  DSRUPTEM =      WAITEXIT        TEMP FOR DSPOUT
000326:                                                                                                  #  KEYTEMP2 =      RUPTAGN         TEMP FOR KEYRUPT, UPRUPT
000327:                                                                                                  #  END OF TEMPORARIES FOR PINBALL INTERRUPT ACTION
000328:


000330:                                                                                                  #  THE INPUT CODES ASSUMED FOR THE KEYBOARD ARE,
000331:                                                                                                  #  0        10000
000332:                                                                                                  #  1        00001
000333:                                                                                                  #  9        01001
000334:                                                                                                  #  VERB     10001
000335:                                                                                                  #  ERROR RES10010
000336:                                                                                                  #  KEY RLSE 11001
000337:                                                                                                  #  +        11010
000338:                                                                                                  #  -        11011
000339:                                                                                                  #  ENTER    11100
000340:                                                                                                  #  CLEAR    11110
000341:                                                                                                  #  NOUN     11111


000343:
000344:
000345:                                                                                                  #  OUTPUT FORMAT FOR DISPLAY PANEL. SET OUT0 TO  AAAABCCCCCDDDDD.
000346:                                                                                                  #  A-S SELECT A RELAYWORD. THIS DETERMINES WHICH PAIR OF CHARACTERS ARE
000347:                                                                                                  #  ENERGIZED.
000348:                                                                                                  #  B FOR SPECIAL RELAYS SUCH AS SIGNS ETC.
000349:                                                                                                  #  C-S  5 BIT RELAY CODE FOR LEFT CHAR OF PAIR SELECTED BY RELAYWORD
000350:                                                                                                  #  D-S  5 BIT RELAY CODE FOR RIGHTCHAR OF PAIR SELECTED BY RELAYWORD.
000351:
000352:                                                                                                  #  THE PANEL APPEARS AS FOLLOWS,
000353:                                                                                                  #  MD1    MD2                         (MAJOR MODE)
000354:                                                                                                  #  VD1    VD2 (VERB)    ND1    ND2    (NOUN)
000355:                                                                                                  #  R1D1   R1D2   R1D3   R1D4   R1D5   (R1)
000356:                                                                                                  #  R2D1   R2D2   R2D3   R2D4   R2D5   (R2)
000357:                                                                                                  #  R3D1   R3D2   R3D3   R3D4   R3D5   (R3)
000358:
000359:                                                                                                  #  EACH OF THESE IS GIVEN A DSPCOUNT NUMBER FOR USE WITHIN COMPUTATION ONLY
000360:                                                                                                  #  MD1   25     R2D1    11       ALL ARE OCTAL
000361:                                                                                                  #  MD2   24     R2D2    10
000362:                                                                                                  #  VD1   23     R2D3    7
000363:                                                                                                  #  VD2   22     R2D4    6
000364:                                                                                                  #  ND1   21     R2D5    5
000365:                                                                                                  #  ND2   20     R3D1    4
000366:                                                                                                  #  R1D1  16     R3D2    3
000367:                                                                                                  #  R1D2  15     R3D3    2
000368:                                                                                                  #  R1D3  14     R3D4    1
000369:                                                                                                  #  R1D4  13     R3D5    0
000370:                                                                                                  #  R1D5  12
000371:
000372:
000373:                                                                                                  #  THERE IS AN 11 REGISTER TABLE (DSPTAB) FOR THE DISPLAY PANEL.
000374:
000375:                                                                                                  #  DSPTAB RELAYWD       BIT11     BITS 10-6     BITS 5-1
000376:                                                                                                  #  RELADD
000377:                                                                                                  #  10     1011                    MD1  (25)     MD2  (24)
000378:                                                                                                  #  9      1010                    VD1  (23)     VD2  (22)
000379:                                                                                                  #  8      1001                    ND1  (21)     ND2  (20)
000380:                                                                                                  #  7      1000                                  R1D1 (16)


000382:                                                                                                  #  6      0111          +R1       R1D2 (15)     R1D3 (14)
000383:                                                                                                  #  5      0110          -R1       R1D4 (13)     R1D5 (12)
000384:                                                                                                  #  4      0101          +R2       R2D1 (11)     R2D2 (10)
000385:                                                                                                  #  3      0100          -R2       R2D3 (7)      R2D4 (6)
000386:                                                                                                  #  2      0011                    R2D5 (5)      R3D1 (4)
000387:                                                                                                  #  1      0010          +R3       R3D2 (3)      R3D3 (2)
000388:                                                                                                  #  0      0001          -R3       R3D4 (1)      R3D5 (0)
000389:                                                                                                  #         0000   NO RELAYWORD
000390:
000391:
000392:                                                                                                  #  THE 5 BIT OUTPUT RELAY CODES ARE:
000393:                                                                                                  #  BLANK      00000
000394:                                                                                                  #  0          10101
000395:                                                                                                  #  1          00011
000396:                                                                                                  #  2          11001
000397:                                                                                                  #  3          11011
000398:                                                                                                  #  4          01111
000399:                                                                                                  #  5          11110
000400:                                                                                                  #  6          11100
000401:                                                                                                  #  7          10011
000402:                                                                                                  #  8          11101
000403:                                                                                                  #  9          11111
000404:
000405:
000406:                                                                                                  #  OUTPUT BITS USED BY PINBALL:
000407:
000408:                                                                                                  #             KEY RELEASE LIGHT    - BIT 5 OF CHANNEL 11
000409:                                                                                                  #             VERB/NOUN FLASH      - BIT 6 OF CHANNEL 11
000410:                                                                                                  #             OPERATOR ERROR LIGHT - BIT 7 OF CHANNEL 11
000411:


000413:                                                                                                  #  START OF EXECUTIVE SECTION OF PINBALL
000414: 40,2057                                           BANK     40
000415: 40,2000                                           SETLOC   PINBALL1
000416: 40,2000                                           BANK
000417:
000418: 40,2057                                           COUNT*   $$/PIN
000419: 40,2057           34744        CHARIN             CAF      ONE                                   #  BLOCK DISPLAY SYST
000420: 40,2060           57011                           XCH      DSPLOCK                               #  MAKE DSP SYST BUSY, BUT SAVE OLD
000421: 40,2061           54115                           TS       21/22REG                              #  C(DSPLOCK) FOR ERROR LIGHT RESET.
000422: 40,2062           11041                           CCS      CADRSTOR                              #  ALL KEYS EXCEPT ER TURN ON KR LITE IF
000423: 40,2063           02065                           TC       +2                                    #  CADRSTOR IS FULL.  THIS REMINDS OPERATOR
000424: 40,2064           02072                           TC       CHARIN2                               #  TO RE-ESTABLISH A FLASHING DISPLAY
000425: 40,2065           42136                           CS       ELRCODE1                              #  WHICH HE HAS OBSCURED WITH DISPLAYS OF
000426: 40,2066           60154                           AD       MPAC                                  #  HIS OWN (SEE REMARKS PRECEDING ROUTINE
000427: 40,2067           00006                           EXTEND                                         #  VBRELDSP).
000428: 40,2070           12072                           BZF      CHARIN2
000429: 40,2071           04365                           TC       RELDSPON
000430: 40,2072           56154        CHARIN2            XCH      MPAC
000431: 40,2073           54117                           TS       CHAR
000432: 40,2074           50000                           INDEX    A
000433: 40,2075           02076                           TC       +1                                    #  INPUT CODE     FUNCTION
000434: 40,2076           03463                           TC       CHARALRM                              #  0
000435: 40,2077           02155                           TC       NUM                                   #  1
000436: 40,2100           02155                           TC       NUM                                   #  2
000437: 40,2101           02155                           TC       NUM                                   #  3
000438: 40,2102           02155                           TC       NUM                                   #  4
000439: 40,2103           02155                           TC       NUM                                   #  5
000440: 40,2104           02155                           TC       NUM                                   #  6
000441: 40,2105           02155                           TC       NUM                                   #  7
000442: 40,2106           02141                           TC       89TEST                                #  10                 8
000443: 40,2107           02141                           TC       89TEST                                #  11                 9
000444: 40,2110           03463                           TC       CHARALRM                              #  12
000445: 40,2111           03463                           TC       CHARALRM                              #  13
000446: 40,2112           03463                           TC       CHARALRM                              #  14
000447: 40,2113           03463                           TC       CHARALRM                              #  15
000448: 40,2114           03463                           TC       CHARALRM                              #  16
000449: 40,2115           03463                           TC       CHARALRM                              #  17
000450: 40,2116           02153                           TC       NUM        -2                         #  20                 0
000451: 40,2117           02343                           TC       VERB                                  #  21                 VERB
000452: 40,2120           03646                           TC       ERROR                                 #  22                 ERROR LIGHT RESET
000453: 40,2121           03463                           TC       CHARALRM                              #  23
000454: 40,2122           03463                           TC       CHARALRM                              #  24
000455: 40,2123           03463                           TC       CHARALRM                              #  25
000456: 40,2124           03463                           TC       CHARALRM                              #  26
000457: 40,2125           03463                           TC       CHARALRM                              #  27
000458: 40,2126           03463                           TC       CHARALRM                              #  30
000459: 40,2127           03517                           TC       VBRELDSP                              #  31                 KEY RELEASE
000460: 40,2130           02376                           TC       POSGN                                 #  32                 +


000462: 40,2131           02363                           TC       NEGSGN                                #  33                 -
000463: 40,2132           02137                           TC       ENTERJMP                              #  34                 ENTER
000464: 40,2133           03463                           TC       CHARALRM                              #  35
000465: 40,2134           02456                           TC       CLEAR                                 #  36                 CLEAR
000466: 40,2135           02357                           TC       NOUN                                  #  37                 NOUN
000467:
000468: 40,2136           00022        ELRCODE1           OCT      22
000469: 40,2137           04626        ENTERJMP           TC       POSTJUMP
000470: 40,2140           62022                           CADR     ENTER
000471:
000472: 40,2141           10776        89TEST             CCS      DSPCOUNT
000473: 40,2142           02146                           TC       +4                                    #  +
000474: 40,2143           02146                           TC       +3                                    #  +0
000475: 40,2144           05146                           TC       ENDOFJOB                              #  - BLOCK DATA IN IF DSPCOUNT IS - OR -0
000476: 40,2145           05146                           TC       ENDOFJOB                              #  -0
000477: 40,2146           36266                           CAF      THREE
000478: 40,2147           70777                           MASK     DECBRNCH
000479: 40,2150           10000                           CCS      A
000480: 40,2151           02155                           TC       NUM                                   #  IF DECBRNCH IS +, 8 OR 9 OK
000481: 40,2152           03463                           TC       CHARALRM                              #  IF DECBRNCH IS +0, REJECT 8 OR 9
000482:
000483:
000484:                                                                                                  #  NUM ASSEMBLES OCTAL 3 BITS AT A TIME. FOR DECIMAL IT CONVERTS INCOMING
000485:                                                                                                  #  WORD AS A FRACTION, KEEPING RESULTS TO DP.
000486:                                                                                                  #  OCTAL RESULTS ARE LEFT IN XREG, YREG, OR ZREG. HI PART OF DEC IN XREG,
000487:                                                                                                  #  YREG, ZREG. THE LOW PARTS IN XREGLP, YREGLP, OR ZREGLP)
000488:                                                                                                  #  DECBRNCH IS LEFT AT +0 FOR OCT, +1 FOR + DEC, +2 FOR - DEC.
000489:                                                                                                  #  IF DSPCOUNT WAS LEFT -, NO MORE DATA IS ACCEPTED.
000490:
000491: 40,2153           34746                           CAF      ZERO
000492: 40,2154           54117                           TS       CHAR
000493: 40,2155           10776        NUM                CCS      DSPCOUNT
000494: 40,2156           02162                           TC       +4                                    #  +
000495: 40,2157           02162                           TC       +3                                    #  +0
000496: 40,2160           02161                           TC       +1                                    #  -BLOCK DATA IN IF DSPCOUNT IS -
000497: 40,2161           05146                           TC       ENDOFJOB                              #  -0
000498: 40,2162           02313                           TC       GETINREL
000499: 40,2163           11014                           CCS      CLPASS                                #  IF CLPASS IS + OR +0, MAKE IT +0.
000500: 40,2164           34746                           CAF      ZERO
000501: 40,2165           55014                           TS       CLPASS
000502: 40,2166           02167                           TC       +1
000503: 40,2167           50117                           INDEX    CHAR
000504: 40,2170           34066                           CAF      RELTAB
000505: 40,2171           74337                           MASK     LOW5
000506: 40,2172           54124                           TS       CODE
000507: 40,2173           30776                           CA       DSPCOUNT
000508: 40,2174           54143                           TS       COUNT
000509: 40,2175           03351                           TC       DSPIN
000510: 40,2176           36266                           CAF      THREE


000512: 40,2177           70777                           MASK     DECBRNCH
000513: 40,2200           10000                           CCS      A                                     #  +0, OCTAL.  +1, + DEC.  +2, - DEC.
000514: 40,2201           02212                           TC       DECTOBIN                              #  +
000515: 40,2202           50137                           INDEX    INREL                                 #  +0 OCTAL
000516: 40,2203           57000                           XCH      VERBREG
000517: 40,2204           54022                           TS       CYL
000518: 40,2205           40022                           CS       CYL
000519: 40,2206           40022                           CS       CYL
000520: 40,2207           56022                           XCH      CYL
000521: 40,2210           60117                           AD       CHAR
000522: 40,2211           02227                           TC       ENDNMTST
000523: 40,2212           50137        DECTOBIN           INDEX    INREL
000524: 40,2213           57000                           XCH      VERBREG
000525: 40,2214           54154                           TS       MPAC                                  #  SUM X 2EXP-14 IN MPAC
000526: 40,2215           34746                           CAF      ZERO
000527: 40,2216           54155                           TS       MPAC       +1
000528: 40,2217           34354                           CAF      TEN                                   #  10 X 2EXP-14
000529: 40,2220           07330                           TC       SHORTMP                               #  10SUM X 2EXP-28 IN MPAC, MPAC+1
000530: 40,2221           56155                           XCH      MPAC       +1
000531: 40,2222           60117                           AD       CHAR
000532: 40,2223           54155                           TS       MPAC       +1
000533: 40,2224           02227                           TC       ENDNMTST                              #  NO OF
000534: 40,2225           26154                           ADS      MPAC                                  #  OF MUST BE 5TH CHAR
000535: 40,2226           02245                           TC       DECCEND
000536: 40,2227           50137        ENDNMTST           INDEX    INREL
000537: 40,2230           55000                           TS       VERBREG
000538: 40,2231           40776                           CS       DSPCOUNT
000539: 40,2232           50137                           INDEX    INREL
000540: 40,2233           62304                           AD       CRITCON
000541: 40,2234           00006                           EXTEND
000542: 40,2235           12237                           BZF      ENDNUM                                #  -0, DSPCOUNT = CRITCON
000543: 40,2236           02301                           TC       MORNUM                                #  - , DSPCOUNT G/ CRITCON
000544: 40,2237           36266        ENDNUM             CAF      THREE
000545: 40,2240           70777                           MASK     DECBRNCH
000546: 40,2241           10000                           CCS      A
000547: 40,2242           02245                           TC       DECCEND
000548: 40,2243           40776        ENDALL             CS       DSPCOUNT                              #  BLOCK NUMIN BY PLACING DSPCOUNT
000549: 40,2244           02302                           TC       MORNUM     +1                         #  NEGATIVELY
000550: 40,2245           04607        DECCEND            TC       BANKCALL
000551: 40,2246           60250                           CADR     DECEND
000552: 40,2247           02243                           TC       ENDALL
000553: 40,2250           44744        DECEND             CS       ONE
000554: 40,2251           60137                           AD       INREL
000555: 40,2252           00006                           EXTEND
000556: 40,2253           62243                           BZMF     ENDALL                                #  IF INREL=0,1(VBREG,NNREG), LEAVE WHOLE
000557: 40,2254           02313                           TC       GETINREL
000558: 40,2255           50137                           INDEX    INREL
000559: 40,2256           31000                           CA       VERBREG
000560: 40,2257           54155                           TS       MPAC       +1
000561: 40,2260           07124                           TC       DMP                                   #  IF INREL=2,3,4(R1,R2,R3),CONVERT TO FRAC


000563:                                                                                                  #  MULT SUM X 2EXP-28 IN MPAC, MPAC+1 BY
000564: 40,2261           02311                           ADRES    DECON                                 #  2EXP14/10EXP5. GIVES(SUM/10EXP5)X2EXP-14
000565: 40,2262           36266                           CAF      THREE                                 #  IN MPAC, +1, +2.
000566: 40,2263           70777                           MASK     DECBRNCH
000567: 40,2264           50000                           INDEX    A
000568: 40,2265           02265                           TC       +0
000569: 40,2266           02272                           TC       +DECSGN
000570: 40,2267           00006                           EXTEND                                         #  - CASE
000571: 40,2270           40156                           DCS      MPAC       +1
000572: 40,2271           52156                           DXCH     MPAC       +1
000573: 40,2272           56156        +DECSGN            XCH      MPAC       +2
000574: 40,2273           50137                           INDEX    INREL
000575: 40,2274           55003                           TS       XREGLP     -2
000576: 40,2275           56155                           XCH      MPAC       +1
000577: 40,2276           50137                           INDEX    INREL
000578: 40,2277           55000                           TS       VERBREG
000579: 40,2300           04622                           TC       SWRETURN
000580: 40,2301           10776        MORNUM             CCS      DSPCOUNT                              #  DECREMENT DSPCOUNT
000581: 40,2302           54776                           TS       DSPCOUNT
000582: 40,2303           05146                           TC       ENDOFJOB
000583:
000584: 40,2304           00022        CRITCON            OCT      22                                    #  (DEC 18)
000585: 40,2305           00020                           OCT      20                                    #  (DEC 16)
000586: 40,2306           00012                           OCT      12                                    #  (DEC 10)
000587: 40,2307           00005                           OCT      5
000588: 40,2310           00000                           OCT      0
000589:
000590: 40,2311           05174 13261  DECON              2DEC     E-5        B14                        #  2EXP14/10EXP5 = .16384 DEC
000591:
000592:
000593:
000594:                                                                                                  #  GETINREL GETS PROPER DATA REG REL ADDRESS FOR CURRENT C(DSPCOUNT) AND
000595:                                                                                                  #  PUTS IN INTO INREL. +0 VERBREG, 1 NOUNREG, 2 XREG, 3 YREG, 4 ZREG.
000596:
000597: 40,2313           50776        GETINREL           INDEX    DSPCOUNT
000598: 40,2314           32317                           CAF      INRELTAB
000599: 40,2315           54137                           TS       INREL                                 #  (A TEMP, REG)
000600: 40,2316           00002                           TC       Q
000601:
000602: 40,2317           00004        INRELTAB           OCT      4                                     #  R3D5 (DSPCOUNT = 0)
000603: 40,2320           00004                           OCT      4                                     #  R3D4           =(1)
000604: 40,2321           00004                           OCT      4                                     #  R3D3           =(2)
000605: 40,2322           00004                           OCT      4                                     #  R3D2           =(3)
000606: 40,2323           00004                           OCT      4                                     #  R3D1           =(4)
000607: 40,2324           00003                           OCT      3                                     #  R2D5           =(5)
000608: 40,2325           00003                           OCT      3                                     #  R2D4           =(6)
000609: 40,2326           00003                           OCT      3                                     #  R2D3           =(7)
000610: 40,2327           00003                           OCT      3                                     #  R2D2           =(8D)
000611: 40,2330           00003                           OCT      3                                     #  R2D1           =(9D)
000612: 40,2331           00002                           OCT      2                                     #  R1D5           =(10D)


000614: 40,2332           00002                           OCT      2                                     #  R1D4           =(11D)
000615: 40,2333           00002                           OCT      2                                     #  R1D3           =(12D)
000616: 40,2334           00002                           OCT      2                                     #  R1D2           =(13D)
000617: 40,2335           00002                           OCT      2                                     #  R1D1           =(14D)
000618: 40,2336           05701                           TC       CCSHOLE                               #  NO DSPCOUNT NUMBER = 15D
000619: 40,2337           00001                           OCT      1                                     #  ND2            =(16D)
000620: 40,2340           00001                           OCT      1                                     #  ND1            =(17D)
000621: 40,2341           00000                           OCT      0                                     #  VD2            =(18D)
000622: 40,2342           00000                           OCT      0                                     #  VD1            =(19D)
000623:
000624: 40,2343           34746        VERB               CAF      ZERO
000625: 40,2344           55000                           TS       VERBREG
000626: 40,2345           34351                           CAF      VD1
000627: 40,2346           54776        NVCOM              TS       DSPCOUNT
000628: 40,2347           02570                           TC       2BLANK
000629: 40,2350           34744                           CAF      ONE
000630: 40,2351           54777                           TS       DECBRNCH                              #  SET FOR DEC V/N CODE
000631: 40,2352           34746                           CAF      ZERO
000632: 40,2353           55012                           TS       REQRET                                #  SET FOR ENTPAS0
000633: 40,2354           34210                           CAF      ENDINST                               #  IF DSPALARM OCCURS BEFORE FIRST ENTPAS0
000634: 40,2355           54136                           TS       ENTRET                                #  OR NVSUB, ENTRET MUST ALREADY BE SET
000635:                                                                                                  #  TO TC ENDOFJOB
000636: 40,2356           05146                           TC       ENDOFJOB
000637: 40,2357           34746        NOUN               CAF      ZERO
000638: 40,2360           55001                           TS       NOUNREG
000639: 40,2361           34352                           CAF      ND1                                   #  ND1, OCT 21 (DEC 17)
000640: 40,2362           02346                           TC       NVCOM
000641:
000642:
000643: 40,2363           02435        NEGSGN             TC       SIGNTEST
000644: 40,2364           02422                           TC       -ON
000645: 40,2365           34743                           CAF      TWO
000646: 40,2366           50137        BOTHSGN            INDEX    INREL                                 #  SET DEC COMP BIT TO 1 (IN DECBRNCH)
000647: 40,2367           64736                           AD       BIT7                                  #  BIT 5 FOR R1,  BIT 4 FOR R2,
000648: 40,2370           26777                           ADS      DECBRNCH                              #  BIT 3 FOR R3.
000649: 40,2371           11014        FIXCLPAS           CCS      CLPASS                                #  IF CLPASS IS + OR +0, MAKE IT +0.
000650: 40,2372           34746                           CAF      ZERO
000651: 40,2373           55014                           TS       CLPASS
000652: 40,2374           02375                           TC       +1
000653: 40,2375           05146                           TC       ENDOFJOB
000654:
000655: 40,2376           02435        POSGN              TC       SIGNTEST
000656: 40,2377           02402                           TC       +ON
000657: 40,2400           34744                           CAF      ONE
000658: 40,2401           02366                           TC       BOTHSGN
000659:
000660: 40,2402           22002        +ON                LXCH     Q
000661: 40,2403           02313                           TC       GETINREL
000662: 40,2404           50137                           INDEX    INREL


000664: 40,2405           32430                           CAF      SGNTAB     -2
000665: 40,2406           54123                           TS       SGNOFF
000666: 40,2407           64744                           AD       ONE
000667: 40,2410           54122                           TS       SGNON
000668: 40,2411           34746        SGNCOM             CAF      ZERO
000669: 40,2412           54124                           TS       CODE
000670: 40,2413           56123                           XCH      SGNOFF
000671: 40,2414           03433                           TC       11DSPIN
000672: 40,2415           34732                           CAF      BIT11
000673: 40,2416           54124                           TS       CODE
000674: 40,2417           56122                           XCH      SGNON
000675: 40,2420           03433                           TC       11DSPIN
000676: 40,2421           00001                           TC       L
000677: 40,2422           22002        -ON                LXCH     Q
000678: 40,2423           02313                           TC       GETINREL
000679: 40,2424           50137                           INDEX    INREL
000680: 40,2425           32430                           CAF      SGNTAB     -2
000681: 40,2426           54122                           TS       SGNON
000682: 40,2427           64744                           AD       ONE
000683: 40,2430           54123                           TS       SGNOFF
000684: 40,2431           02411                           TC       SGNCOM
000685:
000686: 40,2432           00005        SGNTAB             OCT      5                                     #  -R1
000687: 40,2433           00003                           OCT      3                                     #  -R2
000688: 40,2434           00000                           OCT      0                                     #  -R3
000689:
000690: 40,2435           22002        SIGNTEST           LXCH     Q                                     #  ALLOWS +,- ONLY WHEN DSPCOUNT=R1D1,
000691: 40,2436           36266                           CAF      THREE                                 #  R2D1, OR R3D1. ALLOWS ONLY FIRST OF
000692: 40,2437           70777                           MASK     DECBRNCH                              #  CONSECUTIVE +/- CHARACTERS.
000693: 40,2440           10000                           CCS      A                                     #  IF LOW2 BITS OF DECBRNCH NOT= 0, SIGN
000694: 40,2441           05146                           TC       ENDOFJOB                              #  FOR THIS WORD ALREADY IN. REJECT.
000695: 40,2442           44310                           CS       R1D1
000696: 40,2443           02451                           TC       SGNTST1
000697: 40,2444           44311                           CS       R2D1
000698: 40,2445           02451                           TC       SGNTST1
000699: 40,2446           44312                           CS       R3D1
000700: 40,2447           02451                           TC       SGNTST1
000701: 40,2450           05146                           TC       ENDOFJOB                              #  NO MATCH FOUND. SIGN ILLEGAL
000702: 40,2451           60776        SGNTST1            AD       DSPCOUNT
000703: 40,2452           00006                           EXTEND
000704: 40,2453           12455                           BZF      +2                                    #  MATCH FOUND
000705: 40,2454           00002                           TC       Q
000706: 40,2455           00001                           TC       L                                     #  SIGN LEGAL
000707:
000708:                                                                                                  #  CLEAR BLANKS WHICH R1, R2, R3 IS CURRENT OR LAST TO BE DISPLAYED(PERTINE
000709:                                                                                                  #  NT XREG,YREG,ZREG IS CLEARED). SUCCESSIVE CLEARS TAKE CARE OF EACH RX
000710:                                                                                                  #  L/ RC UNTIL R1 IS DONE. THEN NO FURTHER ACTION


000712:                                                                                                  #  THE SINGLE COMPONENT LOAD VERBS ALLOW ONLY THE SINGLE RC THAT IS
000713:                                                                                                  #  APPROPRIATE TO BE CLEARED.
000714:
000715:                                                                                                  #  CLPASS   +0  PASS0, CAN BE BACKED UP
000716:                                                                                                  #           +NZ  HIPASS, CAN BE BACKED UP
000717:                                                                                                  #           -NZ  PASS0, CANNOT BE BACKED UP
000718:
000719: 40,2456           10776        CLEAR              CCS      DSPCOUNT
000720: 40,2457           64744                           AD       ONE
000721: 40,2460           02462                           TC       +2
000722: 40,2461           64744                           AD       ONE
000723: 40,2462           50000                           INDEX    A                                     #  DO NOT CHANGE DSPCOUNT BECAUSE MAY LATER
000724: 40,2463           32317                           CAF      INRELTAB                              #  FAIL LEGALTST.
000725: 40,2464           54137                           TS       INREL                                 #  MUST SET INREL, EVEN FOR HIPASS.
000726: 40,2465           11014                           CCS      CLPASS
000727: 40,2466           02474                           TC       CLPASHI                               #  +
000728: 40,2467           02471                           TC       +2                                    #  +0    IF CLPASS IS +0 OR -, IT IS PASS0
000729: 40,2470           02471                           TC       +1                                    #  -
000730: 40,2471           30137                           CA       INREL
000731: 40,2472           02516                           TC       LEGALTST
000732: 40,2473           02511                           TC       CLEAR1
000733: 40,2474           10137        CLPASHI            CCS      INREL
000734: 40,2475           54137                           TS       INREL
000735: 40,2476           02516                           TC       LEGALTST
000736: 40,2477           32566                           CAF      DOUBLK     +2                         #  +3 TO - NUMBER. BACKS DATA REQUESTS.
000737: 40,2500           27012                           ADS      REQRET
000738: 40,2501           30137                           CA       INREL
000739: 40,2502           54125                           TS       MIXTEMP                               #  TEMP STORAGE FOR INREL
000740: 40,2503           00006                           EXTEND
000741: 40,2504           27000                           DIM      VERBREG                               #  DECREMENT VERB AND RE-DISPLAY
000742: 40,2505           04607                           TC       BANKCALL
000743: 40,2506           62367                           CADR     UPDATVB
000744: 40,2507           30125                           CA       MIXTEMP
000745: 40,2510           54137                           TS       INREL                                 #  RESTORE INREL
000746: 40,2511           02514        CLEAR1             TC       CLR5
000747: 40,2512           25014                           INCR     CLPASS                                #  ONLY IF CLPASS IS + OR +0,
000748: 40,2513           05146                           TC       ENDOFJOB                              #  SET FOR HIGHER PASS.
000749: 40,2514           22002        CLR5               LXCH     Q                                     #  USES 5BLANK  BUT AVOIDS ITS TC GETINREL
000750: 40,2515           02527                           TC       5BLANK     +2
000751: 40,2516           67767        LEGALTST           AD       NEG2
000752: 40,2517           10000                           CCS      A
000753: 40,2520           00002                           TC       Q                                     #  LEGAL  INREL G/ 2
000754: 40,2521           05701                           TC       CCSHOLE
000755: 40,2522           05146                           TC       ENDOFJOB                              #  ILLEGAL   INREL= 0,1
000756: 40,2523           00002                           TC       Q                                     #  LEGAL    INREL = 2
000757:
000758:
000759:                                                                                                  #  5BLANK BLANKS 5 CHAR DISPLAY WORD IN R1, R2, OR R3. IT ALSO ZEROES XREG,
000760:                                                                                                  #  YREG, OR ZREG.PLACE ANY + DSPCOUNT NUMBER FOR PERTINENT RC INTO DSPCOUNT
000761:                                                                                                  #  DSPCOUNT IS LEFT SET TO LEFT MOST DSP NUMB FOR RC JUST BLANKED.
000762:


000764: 40,2524           54776                           TS       DSPCOUNT                              #  NEEDED FOR BLANKSUB
000765: 40,2525           22002        5BLANK             LXCH     Q
000766: 40,2526           02313                           TC       GETINREL
000767: 40,2527           34746                           CAF      ZERO
000768: 40,2530           50137                           INDEX    INREL
000769: 40,2531           55000                           TS       VERBREG                               #  ZERO X, Y, Z REG.
000770: 40,2532           50137                           INDEX    INREL
000771: 40,2533           55003                           TS       XREGLP     -2
000772: 40,2534           54124                           TS       CODE
000773: 40,2535           50137                           INDEX    INREL                                 #  ZERO PERTINENT DEC COMP BIT.
000774: 40,2536           44736                           CS       BIT7                                  #  PROTECT OTHERS
000775: 40,2537           70777                           MASK     DECBRNCH
000776: 40,2540           72567                           MASK     BRNCHCON                              #  ZERO LOW 2 BITS.
000777: 40,2541           54777                           TS       DECBRNCH
000778: 40,2542           50137                           INDEX    INREL
000779: 40,2543           32557                           CAF      SINBLANK   -2                         #  BLANK ISOLATED CHAR SEPARATELY
000780: 40,2544           54143                           TS       COUNT
000781: 40,2545           03351                           TC       DSPIN
000782: 40,2546           50137        5BLANK1            INDEX    INREL
000783: 40,2547           32562                           CAF      DOUBLK     -2
000784: 40,2550           54776                           TS       DSPCOUNT
000785: 40,2551           02570                           TC       2BLANK
000786: 40,2552           44743                           CS       TWO
000787: 40,2553           26776                           ADS      DSPCOUNT
000788: 40,2554           02570                           TC       2BLANK
000789: 40,2555           50137                           INDEX    INREL
000790: 40,2556           34306                           CAF      R1D1       -2
000791: 40,2557           54776                           TS       DSPCOUNT                              #  SET DSPCOUNT TO LEFT MOST DSP NUMBER
000792: 40,2560           00001                           TC       L                                     #  OF REG. JUST BLANKED
000793:
000794: 40,2561           00016        SINBLANK           OCT      16                                    #  DEC 14
000795: 40,2562           00005                           OCT      5
000796: 40,2563           00004                           OCT      4
000797: 40,2564           00015        DOUBLK             OCT      15                                    #  DEC 13
000798: 40,2565           00011                           OCT      11                                    #  DEC 9
000799: 40,2566           00003                           OCT      3
000800:
000801: 40,2567           77774        BRNCHCON           OCT      77774
000802:
000803:                                                                                                  #  2BLANK BLANKS TWO CHAR. PLACE DSP NUMBER OF LEFT CHAR  OF THE PAIR INTO
000804:                                                                                                  #  DSPCOUNT. THIS NUMBER IS LEFT IN DSPCOUNT
000805:
000806: 40,2570           30776        2BLANK             CA       DSPCOUNT
000807: 40,2571           54021                           TS       SR
000808: 40,2572           42603                           CS       BLANKCON
000809: 40,2573           00004                           INHINT
000810: 40,2574           50021                           INDEX    SR
000811: 40,2575           57022                           XCH      DSPTAB
000812: 40,2576           00006                           EXTEND
000813: 40,2577           62601                           BZMF     +2                                    #  IF OLD CONTENTS -, NOUT OK


000815: 40,2600           25015                           INCR     NOUT                                  #  IF OLD CONTENTS +, +1 TO NOUT
000816: 40,2601           00003                           RELINT                                         #  IF -,NOUT OK
000817: 40,2602           00002                           TC       Q
000818: 40,2603           04000        BLANKCON           OCT      4000
000819:


000821:                                                                                                  #  ENTER PASS 0 IS THE EXECUTE FUNCTION. HIGHER ORDER ENTERS ARE TO LOAD
000822:                                                                                                  #  DATA. THE SIGN OF REQRET DETERMINES THE PASS, + FOR PASS 0,- FOR HIGHER
000823:                                                                                                  #  PASSES.
000824:
000825:
000826:                                                                                                  #  MACHINE CADR TO BE SPECIFIED (MCTBS) NOUNS DESIRE AN ECADR TO BE LOADED
000827:                                                                                                  #  WHEN USED WITH LOAD VERBS, MONITOR VERBS, OR DISPLAY VERBS (EXCEPT
000828:                                                                                                  #  VERB = FIXED MEMORY DISPLAY, WHICH REQUIRES AN FCADR).
000829:
000830:
000831: 41,2020                                           BANK     41
000832: 41,2000                                           SETLOC   PINBALL2
000833: 41,2000                                           BANK
000834:
000835: 41,2020                                           COUNT*   $$/PIN
000836: 41,2020           03613        NVSUBB             TC       NVSUB1                                #  STANDARD LEAD INS. DONT MOVE.
000837: 41,2021           03045        LOADLV1            TC       LOADLV
000838:                                                                                                  #  END OF STANDARD LEAD INS.
000839:
000840:
000841: 41,2022           34746        ENTER              CAF      ZERO
000842: 41,2023           55014                           TS       CLPASS
000843: 41,2024           34210                           CAF      ENDINST
000844: 41,2025           54136                           TS       ENTRET
000845: 41,2026           11012                           CCS      REQRET
000846: 41,2027           02062                           TC       ENTPAS0                               #  IF +, PASS 0
000847: 41,2030           02062                           TC       ENTPAS0                               #  IF +, PASS 0
000848: 41,2031           02032                           TC       +1                                    #  IF -, NOT PASS 0
000849: 41,2032           32060        ENTPASHI           CAF      MMADREF
000850: 41,2033           61012                           AD       REQRET                                #  IF L/ 2 CHAR IN FOR MM CODE, ALARM
000851: 41,2034           00006                           EXTEND                                         #  AND RECYCLE(DECIDE AT MMCHANG+1).
000852: 41,2035           12047                           BZF      ACCEPTWD
000853: 41,2036           36266                           CAF      THREE                                 #  IF DEC, L/5 CHAR IN FOR DATA MUST BE
000854: 41,2037           70777                           MASK     DECBRNCH                              #  SCALED (DECEND); IF 5 CHAR IN, DATA
000855: 41,2040           10000                           CCS      A                                     #  HAS ALREADY BEEN SCALED. ANY NUMBER
000856: 41,2041           02043                           TC       +2                                    #  OF DECIMAL CHARACTERS ARE ACCEPTABLE.SCR
000857: 41,2042           02047                           TC       ACCEPTWD                              #  OCTAL. ANY NUMBER OF CHAR OK.
000858: 41,2043           10776                           CCS      DSPCOUNT
000859: 41,2044           02053                           TC       LT5
000860: 41,2045           02053                           TC       LT5
000861: 41,2046           02047                           TC       +1                                    #  5 CHAR IN (DSPCOUNT IS -)
000862: 41,2047           41012        ACCEPTWD           CS       REQRET                                #  5 CHAR IN (DSPCOUNT IS -)
000863: 41,2050           55012                           TS       REQRET                                #  SET REQRET +.
000864: 41,2051           04424                           TC       FLASHOFF
000865: 41,2052           01012                           TC       REQRET
000866:
000867: 41,2053           34746        LT5                CAF      ZERO
000868: 41,2054           54154                           TS       MPAC
000869: 41,2055           04607                           TC       BANKCALL
000870: 41,2056           60254                           CADR     DECEND     +4


000872: 41,2057           02047                           TC       ACCEPTWD
000873: 41,2060     0136               ENTEXIT            =        ENTRET
000874:
000875: 41,2060           03471        MMADREF            ADRES    MMCHANG    +1                         #  ASSUMES TC REQMM AT MMCHANG.
000876:
000877: 41,2061           00034        LOWVERB            DEC      28         B-14                       #  LOWER VERB THAT AVOIDS NOUN TEST.
000878:
000879: 41,2062           34746        ENTPAS0            CAF      ZERO                                  #   NOUN VERB SUB ENTERS HERE
000880: 41,2063           54777                           TS       DECBRNCH
000881: 41,2064           44351                           CS       VD1                                   #  BLOCK FURTHER NUM CHAR, SO THAT STRAY
000882: 41,2065           54776                           TS       DSPCOUNT                              #  CHAR DO NOT GET INTO VERB OR NOUN LTS.
000883: 41,2066           41000        TESTVB             CS       VERBREG                               #  IF VERB IS G/E LOWVB, SKIP NOUN TEST.
000884: 41,2067           55040                           TS       VERBSAVE                              #  SAVE VERB FOR POSSIBLE RECYCLE.
000885: 41,2070           62061                           AD       LOWVERB                               #  LOWVERB - VB
000886: 41,2071           00006                           EXTEND
000887: 41,2072           62160                           BZMF     VERBFAN                               #  VERB G/E LOWVERB
000888: 41,2073           00006        TESTNN             EXTEND                                         #  VERB L/ LOWVERB
000889: 41,2074           32141                           DCA      LODNNLOC                              #  SWITCH BANKS TO NOUN TABLE READING
000890: 41,2075           52006                           DXCH     Z                                     #  ROUTINE.
000891: 41,2076           50140                           INDEX    MIXBR
000892: 41,2077           02077                           TC       +0
000893: 41,2100           02102                           TC       +2                                    #  NORMAL
000894: 41,2101           02246                           TC       MIXNOUN                               #  MIXED
000895: 41,2102           10146                           CCS      NNADTEM                               #  NORMAL
000896: 41,2103           02156                           TC       VERBFAN    -2                         #       NORMAL IF +
000897: 41,2104           02400                           TC       GODSPALM                              #  NOT IN USE   IF +0
000898: 41,2105           02111                           TC       REQADD                                #  SPECIFY MACHINE CADR IF -
000899: 41,2106           25016                           INCR     NOUNCADR                              #  AUGMENT MACHINE CADR IF -0
000900: 41,2107           04302                           TC       SETNADD                               #  ECADR FROM NOUNCADR. SETS EB, NOUNADD.
000901: 41,2110           02145                           TC       INTMCTBS   +2
000902: 41,2111           34726        REQADD             CAF      BIT15                                 #  SET CLPASS FOR PASS0 ONLY
000903: 41,2112           55014                           TS       CLPASS
000904: 41,2113           44210                           CS       ENDINST                               #  TEST IF REACHED HERE FROM INTERNAL OR
000905: 41,2114           60136                           AD       ENTEXIT                               #              FROM EXTERNAL
000906: 41,2115           00006                           EXTEND
000907: 41,2116           12120                           BZF      +2                                    #  EXTERNAL MACH CADR TO BE SPECIFIED
000908: 41,2117           02143                           TC       INTMCTBS
000909: 41,2120           02336                           TC       REQDATZ                               #  EXTERNAL MACH CADR TO BE SPECIFIED
000910: 41,2121           10777                           CCS      DECBRNCH                              #  ALARM AND RECYCLE IF DECIMAL USED
000911: 41,2122           06020                           TC       ALMCYCLE                              #  FOR MCTBS.
000912: 41,2123           44351                           CS       VD1                                   #  OCTAL USED  OK
000913: 41,2124           54776                           TS       DSPCOUNT                              #  BLOCK NUM CHAR IN
000914: 41,2125           11041                           CCS      CADRSTOR
000915: 41,2126           02131                           TC       +3                                    #  EXTERNAL MCTBS DISPLAY WILL LEAVE FLASH
000916: 41,2127           02132                           TC       USEADD                                #  ON IF ENDIDLE NOT = +0.
000917: 41,2130           02131                           TC       +1
000918: 41,2131           04420                           TC       FLASHON
000919: 41,2132           57004        USEADD             XCH      ZREG
000920: 41,2133           04274                           TC       SETNCADR                              #  ECADR INTO NOUNCADR. SET EB, NOUNADD.
000921: 41,2134           00006                           EXTEND


000923: 41,2135           32141                           DCA      LODNNLOC                              #  SWITCH BANKS TO NOUN TABLE READING
000924: 41,2136           52006                           DXCH     Z                                     #  ROUTINE.
000925: 41,2137           02160                           TC       VERBFAN
000926:
000927: 41,2140     0776                                  EBANK=   DSPCOUNT
000928: 41,2140           02110 64101  LODNNLOC           2CADR    LODNNTAB
000929:
000930:
000931: 41,2142           77772        NEG5               OCT      77772
000932:
000933: 41,2143           30156        INTMCTBS           CA       MPAC       +2                         #  INTERNAL MACH CADR TO BE SPECIFIED.
000934: 41,2144           04274                           TC       SETNCADR                              #  ECADR INTO NOUNCADR. SET EB, NOUNADD.
000935: 41,2145           44747                           CS       FIVE                                  #  NVSUB CALL LEFT CADR IN MPAC+2 FOR MACH
000936: 41,2146           61000                           AD       VERBREG                               #  CADR TO BE SPECIFIED.
000937: 41,2147           00006                           EXTEND
000938: 41,2150           12160                           BZF      VERBFAN                               #  DONT DISPLAY CADR IF VB = 05.
000939: 41,2151           34312                           CAF      R3D1                                  #  VB NOT = 05. DISPLAY CADR.
000940: 41,2152           54776                           TS       DSPCOUNT
000941: 41,2153           31016                           CA       NOUNCADR
000942: 41,2154           03435                           TC       DSPOCTWO
000943: 41,2155           02160                           TC       VERBFAN
000944:
000945: 41,2156           64744                           AD       ONE
000946: 41,2157           04274                           TC       SETNCADR                              #  ECADR INTO NOUNCADR. SETS EB, NOUNADD.
000947: 41,2160           42172        VERBFAN            CS       LST2CON
000948: 41,2161           61000                           AD       VERBREG                               #  VERB-LST2CON
000949: 41,2162           10000                           CCS      A
000950: 41,2163           64744                           AD       ONE                                   #  VERB G/ LST2CON
000951: 41,2164           02166                           TC       +2
000952: 41,2165           02173                           TC       VBFANDIR                              #  VERB L/ LST2CON
000953: 41,2166           54154                           TS       MPAC
000954: 41,2167           04450                           TC       RELDSP                                #  RELEASE DISPLAY SYST
000955: 41,2170           04626                           TC       POSTJUMP                              #  GO TO GOEXTVB WITH VB-40 IN MPAC.
000956: 41,2171           66000                           CADR     GOEXTVB
000957: 41,2172           00050        LST2CON            DEC      40         B-14                       #  FIRST LIST2 VERB (EXTENDED VERB)
000958:
000959: 41,2173           51000        VBFANDIR           INDEX    VERBREG
000960: 41,2174           32176                           CAF      VERBTAB
000961: 41,2175           04631                           TC       BANKJUMP
000962:
000963: 41,2176           62400        VERBTAB            CADR     GODSPALM                              #  VB00 ILLEGAL
000964: 41,2177           62414                           CADR     DSPA                                  #  VB01 DISPLAY OCT COMP 1 (R1)
000965: 41,2200           62422                           CADR     DSPB                                  #  VB02 DISPLAY OCT COMP 2 (R1)
000966: 41,2201           62427                           CADR     DSPC                                  #  VB03 DISPLAY OCT COMP 3 (R1)
000967: 41,2202           62407                           CADR     DSPAB                                 #  VB04 DISPLAY OCT COMP 1,2 (R1,R2)
000968: 41,2203           62402                           CADR     DSPABC                                #  VB05 DISPLAY OCT COMP 1,2,3 (R1,R2,R3)
000969: 41,2204           62552                           CADR     DECDSP                                #  VB06 DECIMAL DISPLAY
000970: 41,2205           61020                           CADR     DSPDPDEC                              #  VB07 DP DECIMAL DISPLAY (R1,R2)
000971: 41,2206           62400                           CADR     GODSPALM                              #  VB08 SPARE
000972: 41,2207           62400                           CADR     GODSPALM                              #  VB09 SPARE


000974: 41,2210           61447                           CADR     DSPALARM                              #  VB10 SPARE
000975: 41,2211           63302                           CADR     MONITOR                               #  VB11 MONITOR OCT COMP 1 (R1)
000976: 41,2212           63302                           CADR     MONITOR                               #  VB12 MONITOR OCT COMP 2 (R1)
000977: 41,2213           63302                           CADR     MONITOR                               #  VB13 MONITOR OCT COMP 3 (R1)
000978: 41,2214           63302                           CADR     MONITOR                               #  VB14 MONITOR OCT COMP 1,2 (R1,R2)
000979: 41,2215           63302                           CADR     MONITOR                               #  VB15 MONITOR OCT COMP 1,2,3 (R1,R2,R3)
000980: 41,2216           63302                           CADR     MONITOR                               #  VB16 MONITOR DECIMAL
000981: 41,2217           63302                           CADR     MONITOR                               #  VB17 MONITOR DP DEC  (R1,R2)
000982: 41,2220           62400                           CADR     GODSPALM                              #  VB18 SPARE
000983: 41,2221           62400                           CADR     GODSPALM                              #  VB19 SPARE
000984: 41,2222           62400                           CADR     GODSPALM                              #  VB20 SPARE
000985: 41,2223           63002                           CADR     ALOAD                                 #  VB21 LOAD COMP 1 (R1)
000986: 41,2224           63013                           CADR     BLOAD                                 #  VB22 LOAD COMP 2 (R2)
000987: 41,2225           63030                           CADR     CLOAD                                 #  VB23 LOAD COMP 3 (R3)
000988: 41,2226           62753                           CADR     ABLOAD                                #  VB24 LOAD COMP 1,2 (R1,R2)
000989: 41,2227           62647                           CADR     ABCLOAD                               #  VB25 LOAD COMP 1,2,3 (R1,R2,R3)
000990: 41,2230           62400                           CADR     GODSPALM                              #  VB26 SPARE
000991: 41,2231           63425                           CADR     DSPFMEM                               #  VB27 FIXED MEMORY DISPLAY
000992:                                                                                                  #  THE FOLLOWING VERBS MAKE NO NOUN TEST
000993: 41,2232           62400                           CADR     GODSPALM                              #  VB28 SPARE
000994: 41,2233           62400                           CADR     GODSPALM                              #  VB29 SPARE
000995: 41,2234           63526        REQEXLOC           CADR     VBRQEXEC                              #  VB30 REQUEST EXECUTIVE
000996: 41,2235           63557                           CADR     VBRQWAIT                              #  VB31 REQUEST WAITLIST
000997: 41,2236           61514                           CADR     VBRESEQ                               #  VB32 RESEQUENCE
000998: 41,2237           61471                           CADR     VBPROC                                #  VB33 PROCEED WITHOUT DATA
000999: 41,2240           61477                           CADR     VBTERM                                #  VB34 TERMINATE CURRENT TEST OR LOAD REQ
001000: 41,2241           63662                           CADR     VBTSTLTS                              #  VB35 TEST LIGHTS
001001: 41,2242           12454                           CADR     SLAP1                                 #  VB36 FRESH START
001002: 41,2243           63470                           CADR     MMCHANG                               #  VB37 CHANGE MAJOR MODE
001003: 41,2244           62400                           CADR     GODSPALM                              #  VB38 SPARE
001004: 41,2245           62400                           CADR     GODSPALM                              #  VB39 SPARE
001005:
001006:
001007:                                                                                                  #  THE LIST2 VERBFAN IS LOCATED IN THE EXTENDED VERB BANK.
001008:


001010:                                                                                                  #  NNADTAB CONTAINS A RELATIVE ADDRESS, IDADDREL(IN LOW 10 BITS), REFERRING
001011:                                                                                                  #  TO WHERE 3 CONSECUTIVE ADDRESSES ARE STORED (IN IDADDTAB).
001012:                                                                                                  #  MIXNOUN GETS DATA AND STORES IN MIXTEMP,+1,+2. IT SETS NOUNADD FOR
001013:                                                                                                  #   MIXTEMP.
001014:
001015: 41,2246           10146        MIXNOUN            CCS      NNADTEM
001016: 41,2247           02253                           TC       +4                                    #  +  IN USE
001017: 41,2250           02400                           TC       GODSPALM                              #  +0  NOT IN USE
001018: 41,2251           02253                           TC       +2                                    #  -  IN USE
001019: 41,2252           02253                           TC       +1                                    #  -0  IN USE
001020: 41,2253           46263                           CS       SIX
001021: 41,2254           61000                           AD       VERBREG
001022: 41,2255           00006                           EXTEND
001023: 41,2256           62260                           BZMF     +2                                    #  VERB L/E 6
001024: 41,2257           02160                           TC       VERBFAN                               #  AVOID MIXNOUN SWAP IF VB NOT = DISPLAY
001025: 41,2260           34743                           CAF      TWO
001026: 41,2261           54117        MIXNN1             TS       DECOUNT
001027: 41,2262           62305                           AD       MIXAD
001028: 41,2263           54145                           TS       NOUNADD                               #  SET NOUNADD TO MIXTEMP + K
001029: 41,2264           50117                           INDEX    DECOUNT                               #  GET IDADDTAB ENTRY FOR COMPONENT K
001030: 41,2265           30150                           CA       IDAD1TEM                              #  OF NOUN.
001031: 41,2266           54122                           TS       NOUNTEM
001032:                                                                                                  #  TEST FOR DP(FOR OCT DISPLAY). IF SO, GET
001033:                                                                                                  #    MINOR PART ONLY.
001034: 41,2267           03104                           TC       SFRUTMIX                              #  GET SF ROUT NUMBER IN A
001035: 41,2270           02306                           TC       DPTEST
001036: 41,2271           02273                           TC       MIXNN2                                #  NO DP
001037: 41,2272           24122                           INCR     NOUNTEM                               #  DP  GET MINOR PART
001038: 41,2273           30122        MIXNN2             CA       NOUNTEM
001039: 41,2274           74347                           MASK     LOW11                                 #  ESUBK (NO DP)  OR (ESUBK)+1    FOR DP
001040: 41,2275           04304                           TC       SETEBANK                              #  SET EBANK, LEAVE EADRES IN A.
001041: 41,2276           50000                           INDEX    A                                     #  PICK UP C(ESUBK)  NOT DP
001042: 41,2277           30000                           CA       0                                     #  OR C((ESUBK)+1)  FOR DP MINOR PART
001043: 41,2300           50145                           INDEX    NOUNADD
001044: 41,2301           56000                           XCH      0                                     #  STORE IN MIXTEM + K
001045: 41,2302           10117                           CCS      DECOUNT
001046: 41,2303           02261                           TC       MIXNN1
001047: 41,2304           02160                           TC       VERBFAN
001048:
001049: 41,2305           00125        MIXAD              TC       MIXTEMP
001050:
001051:
001052:                                                                                                  #  DPTEST   ENTER WITH SF ROUT NUMBER IN A.
001053:                                                                                                  #           RETURNS TO L+1 IF NO DP.
001054:                                                                                                  #           RETURNS TO L+2 IF DP.
001055:
001056: 41,2306           50000        DPTEST             INDEX    A
001057: 41,2307           12310                           TCF      +1
001058: 41,2310           00002                           TC       Q                                     #  OCTAL ONLY  NO DP
001059: 41,2311           00002                           TC       Q                                     #  FRACT NO DP


001061: 41,2312           00002                           TC       Q                                     #  DEG  NO DP
001062: 41,2313           00002                           TC       Q                                     #  ARITH  NO DP
001063: 41,2314           12330                           TCF      DPTEST1                               #  DP1OUT
001064: 41,2315           12330                           TCF      DPTEST1                               #  DP2OUT
001065: 41,2316           00002                           TC       Q                                     #  LRPOSOUT  NO DP (DATA IN CHANNEL 33)
001066: 41,2317           12330                           TCF      DPTEST1                               #  DP3OUT
001067: 41,2320           00002                           TC       Q                                     #  HMS   NO DP
001068: 41,2321           00002                           TC       Q                                     #  M/S   NO DP
001069: 41,2322           12330                           TCF      DPTEST1                               #  DP4OUT
001070: 41,2323           00002                           TC       Q                                     #  ARITH1   NO DP
001071: 41,2324           00002                           TC       Q                                     #  2INTOUT  NO DP TO GET HI PART IN MPAC
001072: 41,2325           00002                           TC       Q                                     #  360-CDU   NO DP
001073: 41,2326           00002                           TC       Q                                     #  RRANGOUT  NO DP
001074: 41,2327           00002                           TC       Q                                     #  RRDOTOUT  NO DP
001075: 41,2330           50002        DPTEST1            INDEX    Q
001076: 41,2331           00001                           TC       1                                     #  RETURN TO L+2
001077:
001078:
001079: 41,2332           34310        REQDATX            CAF      R1D1
001080: 41,2333           12337                           TCF      REQCOM
001081: 41,2334           34311        REQDATY            CAF      R2D1
001082: 41,2335           12337                           TCF      REQCOM
001083: 41,2336           34312        REQDATZ            CAF      R3D1
001084: 41,2337           54776        REQCOM             TS       DSPCOUNT
001085: 41,2340           40002                           CS       Q
001086: 41,2341           55012                           TS       REQRET
001087: 41,2342           04607                           TC       BANKCALL
001088: 41,2343           60525                           CADR     5BLANK
001089: 41,2344           04420                           TC       FLASHON
001090: 41,2345           00136        ENDRQDAT           TC       ENTEXIT
001091:
001092: 41,2346           55001                           TS       NOUNREG
001093: 41,2347           56002        UPDATNN            XCH      Q
001094: 41,2350           54117                           TS       UPDATRET
001095: 41,2351           00006                           EXTEND
001096: 41,2352           32141                           DCA      LODNNLOC                              #  SWITCH BANKS TO NOUN TABLE READING
001097: 41,2353           52006                           DXCH     Z                                     #  ROUTINE.
001098: 41,2354           10146                           CCS      NNADTEM
001099: 41,2355           64744                           AD       ONE                                   #  NORMAL
001100: 41,2356           12361                           TCF      PUTADD
001101: 41,2357           12362                           TCF      PUTADD     +1                         #  MCTBS  DONT CHANGE NOUNADD
001102: 41,2360           12362                           TCF      PUTADD     +1                         #  MCTBI  DONT CHANGE NOUNADD
001103: 41,2361           04274        PUTADD             TC       SETNCADR                              #  ECADR INTO NOUNCADR. SETS EB, NOUNADD.
001104: 41,2362           34352                           CAF      ND1
001105: 41,2363           54776                           TS       DSPCOUNT
001106: 41,2364           31001                           CA       NOUNREG
001107: 41,2365           12374                           TCF      UPDAT1
001108:
001109: 41,2366           55000                           TS       VERBREG
001110: 41,2367           56002        UPDATVB            XCH      Q


001112: 41,2370           54117                           TS       UPDATRET
001113: 41,2371           34351                           CAF      VD1
001114: 41,2372           54776                           TS       DSPCOUNT
001115: 41,2373           31000                           CA       VERBREG
001116: 41,2374           04626        UPDAT1             TC       POSTJUMP                              #  CANT USE SWCALL TO GO TC DSPDECVN,SINCE
001117: 41,2375           61346                           CADR     GOVNUPDT                              #  UPDATVB CAN ITSELF BE CALLED BY SWCALL.
001118: 41,2376           00117                           TC       UPDATRET
001119:
001120:
001121: 41,2377           06020        GOALMCYC           TC       ALMCYCLE                              #  NEEDED BECAUSE BANKJUMP CANT HANDLE F/F.
001122:
001123: 41,2400           04626        GODSPALM           TC       POSTJUMP
001124: 41,2401           61447                           CADR     DSPALARM
001125:


001127:                                                                                                  #           NOUN   TABLES
001128:                                                                                                  #  NOUN CODE L/40, NORMAL NOUN CASE.  NOUN CODE G/E 40, MIXED NOUN CASE.
001129:                                                                                                  #  FOR NORMAL CASE, NNADTAB CONTAINS ONE       ECADR     FOR EACH NOUN.
001130:                                                                                                  #  +0 INDICATES NOUN NOT USED.   - ENTRY INDICATES MACHINE CADR(E OR F) TO
001131:                                                                                                  #  BE SPECIFIED. -1 INDICATES CHANNEL TO BE SPECIFIED. -0 INDICATES AUGMENT
001132:                                                                                                  #  OF LAST MACHINE CADR SUPPLIED.
001133:
001134:                                                                                                  #  FOR MIXED CASE, NNADTAB CONTAINS ONE INDIRECT ADDRESS(IDADDREL) IN LOW
001135:                                                                                                  #  10 BITS, AND THE COMPONENT CODE NUMBER IN THE HIGH 5 BITS.
001136:
001137:                                                                                                  #  NNTYPTAB IS A PACKED TABLE OF THE FORM MMMMMNNNNNPPPPP.
001138:
001139:                                                                                                  #  FOR THE NORMAL CASE, M-S ARE THE COMPONENT CODE NUMBER.
001140:                                                                                                  #                       N-S ARE THE SF ROUTINE CODE NUMBER.
001141:                                                                                                  #                       P-S ARE THE SF CONSTANT CODE NUMBER.
001142:
001143:                                                                                                  #  MIXED CASE,M-S ARE THE SF CONSTANT3 CODE NUMBER     3 COMPONENT CASE
001144:                                                                                                  #             N-S ARE THE SF CONSTANT2 CODE NUMBER
001145:                                                                                                  #             P-S ARE THE SF CONSTANT1 CODE NUMBER
001146:                                                                                                  #             N-S ARE THE SF CONSTANT2 CODE NUMBER     2 COMPONENT CASE
001147:                                                                                                  #             P-S ARE THE SF CONSTANT1 CODE NUMBER
001148:                                                                                                  #             P-S ARE THE SF CONSTANT1 CODE NUMBER      1 COMPONENT CASE
001149:
001150:                                                                                                  #  THERE IS ALSO AN INDIRECT ADDRESS TABLE(IDADDTAB) FOR MIXED CASE ONLY.
001151:                                                                                                  #  EACH ENTRY CONTAINS ONE ECADR.    IDADDREL IS THE RELATIVE ADDRESS OF
001152:                                                                                                  #  THE FIRST OF THESE ENTRIES.
001153:                                                                                                  #  THERE IS ONE ENTRY IN THIS TABLE FOR EACH COMPONENT OF A MIXED NOUN
001154:                                                                                                  #  THEY ARE LISTED IN ORDER OF ASCENDING K.
001155:
001156:                                                                                                  #  THERE IS ALSO A SCALE FACTOR ROUTINE NUMBER TABLE( RUTMXTAB ) FOR MIXED
001157:                                                                                                  #  CASE ONLY. THERE IS ONE ENTRY PER MIXED NOUN. THE FORM IS,
001158:                                                                                                  #        QQQQQRRRRRSSSSS
001159:                                                                                                  #  Q-S ARE THE SF ROUTINE 3 CODE NUMBER     3 COMPONENT CASE
001160:                                                                                                  #  R-S ARE THE SF ROUTINE 2 CODE NUMBER
001161:                                                                                                  #  S-S ARE THE SF ROUTINE 1 CODE NUMBER
001162:                                                                                                  #  R-S ARE THE SF ROUTINE 2 CODE NUMBER     2 COMPONENT CASE
001163:                                                                                                  #  S-S ARE THE SF ROUTINE 1 CODE NUMBER
001164:
001165:
001166:                                                                                                  #  IN OCTAL DISPLAY AND LOAD (OCT OR DEC) VERBS, EXCLUDE USE OF VERBS WHOSE
001167:                                                                                                  #  COMPONENT NUMBER IS GREATER THAN THE NUMBER OF COMPONENTS IN NOUN.
001168:                                                                                                  #  (ALL MACHINE ADDRESS TO BE SPECIFIED NOUNS ARE 3 COMPONENT.)
001169:
001170:
001171:                                                                                                  #  IN MULTI-COMPONENT LOAD VERBS, NO MIXING OF OCTAL AND DECIMAL DATA
001172:                                                                                                  #  COMPONENT WORDS IS ALLOWED. ALARM IF VIOLATION.
001173:
001174:                                                                                                  #  IN DECIMAL LOADS OF DATA, 5 NUMERICAL CHARACTERS MUST BE KEYED IN
001175:                                                                                                  #  BEFORE EACH ENTER. IF NOT, ALARM.
001176:


001178:                                                                                                  #           DISPLAY  VERBS
001179: 41,2402           44743        DSPABC             CS       TWO
001180: 41,2403           02453                           TC       COMPTEST
001181: 41,2404           50145                           INDEX    NOUNADD
001182: 41,2405           40002                           CS       2
001183: 41,2406           56132                           XCH      BUF        +2
001184: 41,2407           44744        DSPAB              CS       ONE
001185: 41,2410           02453                           TC       COMPTEST
001186: 41,2411           50145                           INDEX    NOUNADD
001187: 41,2412           40001                           CS       1
001188: 41,2413           56131                           XCH      BUF        +1
001189: 41,2414           02472        DSPA               TC       DECTEST
001190: 41,2415           02515                           TC       TSTFORDP
001191: 41,2416           50145                           INDEX    NOUNADD
001192: 41,2417           40000                           CS       0
001193: 41,2420           56130        DSPCOM1            XCH      BUF
001194: 41,2421           02434                           TC       DSPCOM2
001195: 41,2422           44744        DSPB               CS       ONE
001196: 41,2423           02466                           TC       DCOMPTST
001197: 41,2424           50145                           INDEX    NOUNADD
001198: 41,2425           40001                           CS       1
001199: 41,2426           02420                           TC       DSPCOM1
001200: 41,2427           44743        DSPC               CS       TWO
001201: 41,2430           02466                           TC       DCOMPTST
001202: 41,2431           50145                           INDEX    NOUNADD
001203: 41,2432           40002                           CS       2
001204: 41,2433           02420                           TC       DSPCOM1
001205: 41,2434           44743        DSPCOM2            CS       TWO                                   #  A  B  C  AB  ABC
001206: 41,2435           61000                           AD       VERBREG                               #  -1 -0 +1 +2  +3   IN A
001207: 41,2436           10000                           CCS      A                                     #  +0 +0 +0 +1  +2    IN A AFTER CCS
001208: 41,2437           02442                           TC       DSPCOM3
001209: 41,2440           00136                           TC       ENTEXIT
001210: 41,2441           02442                           TC       +1
001211: 41,2442           54122        DSPCOM3            TS       DISTEM                                #  +0,+1,+2 INTO DISTEM
001212: 41,2443           50000                           INDEX    A
001213: 41,2444           34310                           CAF      R1D1
001214: 41,2445           54776                           TS       DSPCOUNT
001215: 41,2446           50122                           INDEX    DISTEM
001216: 41,2447           40130                           CS       BUF
001217: 41,2450           03435                           TC       DSPOCTWO
001218: 41,2451           56122                           XCH      DISTEM
001219: 41,2452           02436                           TC       DSPCOM2    +2
001220:
001221:                                                                                                  #  COMPTEST ALARMS IF COMPONENT NUMBER OF VERB(LOAD OR OCT DISPLAY) IS
001222:                                                                                                  #  GREATER THAN THE HIGHEST COMPONENT NUMBER OF NOUN.
001223: 41,2453           54123        COMPTEST           TS       SFTEMP1                               #  - VERB COMP
001224: 41,2454           22002                           LXCH     Q
001225: 41,2455           02544        COMPTST1           TC       GETCOMP
001226: 41,2456           04322                           TC       LEFT5
001227: 41,2457           76266                           MASK     THREE                                 #  NOUN COMP


001229: 41,2460           60123                           AD       SFTEMP1                               #  NOUN COMP - VERB COMP
001230: 41,2461           10000                           CCS      A
001231: 41,2462           00001                           TC       L                                     #  NOUN COMP G/ VERB COMP
001232: 41,2463           05701                           TC       CCSHOLE
001233: 41,2464           02400                           TC       GODSPALM                              #  NOUN COMP L/ VERB COMP
001234: 41,2465           00001        NDCMPTST           TC       L                                     #  NOUN COMP = VERB COMP
001235:
001236:
001237:                                                                                                  #  DCOMPTST ALARMS IF DECIMAL ONLY BIT (BIT4 OF COMP CODE NUMBER) = 1.
001238:                                                                                                  #  IF NOT, IT PERFORMS REGULAR COMPTEST.
001239: 41,2466           54123        DCOMPTST           TS       SFTEMP1                               #  - VERB COMP
001240: 41,2467           22002                           LXCH     Q
001241: 41,2470           02472                           TC       DECTEST
001242: 41,2471           02455                           TC       COMPTST1
001243:
001244: 41,2472           00006        DECTEST            EXTEND                                         #  ALARMS IF DEC ONLY BIT = 1 (BIT4 OF COMP
001245: 41,2473           22156                           QXCH     MPAC       +2                         #  CODE NUMBER). RETURNS IF NOT.
001246: 41,2474           02544                           TC       GETCOMP
001247: 41,2475           74727                           MASK     BIT14
001248: 41,2476           10000                           CCS      A
001249: 41,2477           02400                           TC       GODSPALM
001250: 41,2500           00156                           TC       MPAC       +2
001251:
001252:
001253: 41,2501           22002        DCTSTCYC           LXCH     Q                                     #  ALARMS AND RECYCLES IF DEC ONLY BIT = 1
001254: 41,2502           02544                           TC       GETCOMP                               #  ( BIT4 OF COMP CODE NUMBER). RETURNS
001255: 41,2503           74727                           MASK     BIT14                                 #  IF NOT.  USED BY LOAD VERBS.
001256: 41,2504           10000                           CCS      A
001257: 41,2505           06020                           TC       ALMCYCLE
001258: 41,2506           00001                           TC       L
001259:
001260:
001261:                                                                                                  #  NOUNTEST ALARMS IF NO-LOAD BIT (BIT5 OF COMP CODE NUMBER) = 1.
001262:                                                                                                  #  IF NOT, IT RETURNS.
001263: 41,2507           22002        NOUNTEST           LXCH     Q
001264: 41,2510           02544                           TC       GETCOMP
001265: 41,2511           10000                           CCS      A
001266: 41,2512           00001                           TC       L
001267: 41,2513           00001                           TC       L
001268: 41,2514           02400                           TC       GODSPALM
001269:
001270:
001271: 41,2515           22002        TSTFORDP           LXCH     Q                                     #  TEST FOR DP. IF SO, GET MINOR PART ONLY.
001272: 41,2516           30146                           CA       NNADTEM
001273: 41,2517           64744                           AD       ONE                                   #  IF NNADTEM = -1, CHANNEL TO BE SPECIFIED
001274: 41,2520           00006                           EXTEND
001275: 41,2521           12533                           BZF      CHANDSP
001276: 41,2522           50140                           INDEX    MIXBR
001277: 41,2523           02523                           TC       +0
001278: 41,2524           02526                           TC       +2                                    #  NORMAL


001280: 41,2525           00001                           TC       L                                     #  MIXED CASE ALREADY HANDLED IN MIXNOUN
001281: 41,2526           03076                           TC       SFRUTNOR
001282: 41,2527           02306                           TC       DPTEST
001283: 41,2530           00001                           TC       L                                     #  NO DP
001284: 41,2531           24145                           INCR     NOUNADD                               #  DP    E+1 INTO NOUNADD FOR MINOR PART.
001285: 41,2532           00001                           TC       L
001286:
001287:
001288: 41,2533           31016        CHANDSP            CA       NOUNCADR
001289: 41,2534           74775                           MASK     LOW9
001290: 41,2535           00006                           EXTEND
001291: 41,2536           50000                           INDEX    A
001292: 41,2537           00000                           READ     0
001293: 41,2540           40000                           CS       A
001294: 41,2541           12420                           TCF      DSPCOM1
001295:
001296:
001297: 41,2542           00147        COMPICK            ADRES    NNTYPTEM
001298: 41,2543           00146                           ADRES    NNADTEM
001299:
001300: 41,2544           50140        GETCOMP            INDEX    MIXBR                                 #  NORMAL                MIXED
001301: 41,2545           32541                           CAF      COMPICK    -1                         #  ADRES NNTYPTEM        ADRES NNADTEM
001302: 41,2546           50000                           INDEX    A
001303: 41,2547           30000                           CA       0                                     #  C(NNTYPTEM)           C(NNADTEM)
001304: 41,2550           74341                           MASK     HI5                                   #  GET HI5 OF NNTYPTAB(NORM)OF NNADTAB(MIX)
001305: 41,2551           00002                           TC       Q
001306:
001307:
001308: 41,2552           02544        DECDSP             TC       GETCOMP
001309: 41,2553           04322                           TC       LEFT5
001310: 41,2554           76266                           MASK     THREE
001311: 41,2555           54117                           TS       DECOUNT                               #  COMP NUMBER INTO DECOUNT
001312: 41,2556           54122        DSPDCGET           TS       DECTEM                                #  PICKS UP DATA
001313: 41,2557           60145                           AD       NOUNADD                               #  DECTEM  1COMP +0, 2COMP +1, 3COMP +2
001314: 41,2560           50000                           INDEX    A
001315: 41,2561           40000                           CS       0
001316: 41,2562           50122                           INDEX    DECTEM
001317: 41,2563           57002                           XCH      XREG                                  #  CANT USE BUF SINCE DMP USES IT.
001318: 41,2564           10122                           CCS      DECTEM
001319: 41,2565           02556                           TC       DSPDCGET                              #  MORE TO GET
001320: 41,2566           34746        DSPDCPUT           CAF      ZERO                                  #  DISPLAYS DATA
001321: 41,2567           54155                           TS       MPAC       +1                         #  DECOUNT 1COMP +0, 2COMP +1, 3COMP +2
001322: 41,2570           54156                           TS       MPAC       +2
001323: 41,2571           50117                           INDEX    DECOUNT
001324: 41,2572           34310                           CAF      R1D1
001325: 41,2573           54776                           TS       DSPCOUNT
001326: 41,2574           50117                           INDEX    DECOUNT
001327: 41,2575           41002                           CS       XREG
001328: 41,2576           54154                           TS       MPAC
001329: 41,2577           03117                           TC       SFCONUM                               #  2X( SF CON NUMB ) IN A


001331: 41,2600           54123                           TS       SFTEMP1
001332: 41,2601           00006                           EXTEND                                         #  SWITCH BANKS TO SF CONSTANT TABLE
001333: 41,2602           32614                           DCA      GTSFOUTL                              #     READING ROUTINE.
001334: 41,2603           52006                           DXCH     Z                                     #  LOADS SFTEMP1, SFTEMP2.
001335: 41,2604           50140                           INDEX    MIXBR
001336: 41,2605           02605                           TC       +0
001337: 41,2606           02611                           TC       DSPSFNOR
001338: 41,2607           03104                           TC       SFRUTMIX
001339: 41,2610           02624                           TC       DECDSP3
001340:
001341: 41,2611           03076        DSPSFNOR           TC       SFRUTNOR
001342: 41,2612           02624                           TC       DECDSP3
001343:
001344: 41,2613     0776                                  EBANK=   DSPCOUNT
001345: 41,2613           02146 64101  GTSFOUTL           2CADR    GTSFOUT
001346:
001347:
001348:
001349: 41,2615           04607        DSPDCEND           TC       BANKCALL                              #  ALL SFOUT ROUTINES END HERE
001350: 41,2616           61255                           CADR     DSPDECWD
001351: 41,2617           10117                           CCS      DECOUNT
001352: 41,2620           02622                           TC       +2
001353: 41,2621           00136                           TC       ENTEXIT
001354: 41,2622           54117                           TS       DECOUNT
001355: 41,2623           02566                           TC       DSPDCPUT                              #  MORE TO DISPLAY
001356:
001357:
001358: 41,2624           50000        DECDSP3            INDEX    A
001359: 41,2625           32627                           CAF      SFOUTABR
001360: 41,2626           04631                           TC       BANKJUMP
001361:
001362: 41,2627           61445        SFOUTABR           CADR     PREDSPAL                              #  ALARM IF DEC DISP WITH OCTAL ONLY NOUN
001363: 41,2630           62615                           CADR     DSPDCEND
001364: 41,2631           60604                           CADR     DEGOUTSF
001365: 41,2632           60726                           CADR     ARTOUTSF
001366: 41,2633           60737                           CADR     DP1OUTSF
001367: 41,2634           60744                           CADR     DP2OUTSF
001368: 41,2635           60624                           CADR     LRPOSOUT
001369: 41,2636           60746                           CADR     DP3OUTSF
001370: 41,2637           65241                           CADR     HMSOUT
001371: 41,2640           65314                           CADR     M/SOUT
001372: 41,2641           60744                           CADR     DP2OUTSF
001373: 41,2642           60733                           CADR     AROUT1SF
001374: 41,2643           60761                           CADR     2INTOUT
001375: 41,2644           60612                           CADR     360-CDUO
001376: 41,2645           60634                           CADR     RRANGOUT
001377: 41,2646           60651                           CADR     RRDOTOUT
001378: 41,2647                        ENDRTOUT           EQUALS
001379:


001381:                                                                                                  #          THE FOLLOWING IS ATYPICAL SF ROUTINE . IT USES MPAC. LEAVES RESU
001382:                                                                                                  #  LTS IN MPAC, MPAC+1. ENDS WITH TC DSPDCEND
001383:
001384:
001385: 40,2604                                           SETLOC   BLANKCON   +1
001386:
001387: 40,2604                                           COUNT*   $$/PIN
001388:                                                                                                  #     DEGOUTSF SCALES BY .18 THE LOW 14 BITS OF ANGLE , ADDING .18 FOR
001389:                                                                                                  #  NUMBERS IN THE NEGATIVE (AGC) RANGE.
001390:
001391: 40,2604           34746        DEGOUTSF           CAF      ZERO
001392: 40,2605           54156                           TS       MPAC       +2                         #  SET INDEX FOR FULL SCALE
001393: 40,2606           02701                           TC       FIXRANGE
001394: 40,2607           02611                           TC       +2                                    #  NO AUGMENT NEEDED (SFTEMP1 AND 2 ARE 0)
001395: 40,2610           02674                           TC       SETAUG                                #  SET AUGMENTER ACCORDING TO C(MPAC +2)
001396: 40,2611           02712                           TC       DEGCOM
001397:
001398:                                                                                                  #  360-CDUO COMPUTES 360 - CDU ANGLE IN MPAC, STORES RESULT IN MPAC AND
001399:                                                                                                  #  GOES TO DEGOUTSF.
001400:
001401: 40,2612           02614        360-CDUO           TC       360-CDU
001402: 40,2613           02604                           TC       DEGOUTSF
001403:
001404: 40,2614           30154        360-CDU            CA       MPAC
001405: 40,2615           74724                           MASK     POSMAX                                #  IF ANGLE IS 0 OR 180 DEGREES, DO NOTHING
001406: 40,2616           00006                           EXTEND
001407: 40,2617           12623                           BZF      360-CDUE
001408: 40,2620           40154                           CS       MPAC                                  #  COMPUTE 360 DEGREES MINUS ANGLE
001409: 40,2621           64744                           AD       ONE
001410: 40,2622           54154                           TS       MPAC
001411: 40,2623           00002        360-CDUE           TC       Q
001412:
001413:                                                                                                  #  LRPOSOUT DISPLAYS +0,1,2,OR 3 (WHOLE) FOR CHANNEL 33,BITS 7-6 = 11,10,
001414:                                                                                                  #  01,00 RESPECTIVELY.
001415:
001416: 40,2624           00006        LRPOSOUT           EXTEND
001417: 40,2625           00033                           READ     CHAN33
001418: 40,2626           00006                           EXTEND
001419: 40,2627           74733                           MP       BIT10                                 #  BITS 7-6 TO BITS 2-1
001420: 40,2630           40000                           COM
001421: 40,2631           76266                           MASK     THREE
001422: 40,2632           54154                           TS       MPAC
001423: 40,2633           02726                           TC       ARTOUTSF                              #  DISPLAY AS WHOLE
001424:
001425:                                                                                                  #  RRANGOUT AND RRDOTOUT CONVERT RR RANGE AND RANGE RATE FROM SP 15 BIT
001426:                                                                                                  #  MAGNITUDE TO DP AND THEN SCALE FOR DISPLAY.
001427:
001428: 40,2634           02664        RRANGOUT           TC       RRSPTODP                              #  CONVERT TO DP.
001429: 40,2635           40110                           CS       RADMODES                              #  BIT 3 OF FLAG12 = HI SCALE
001430: 40,2636           74742                           MASK     BIT3


001432: 40,2637           10000                           CCS      A
001433: 40,2640           02646                           TC       SCALELO                               #  DATA IS IN LO SCALE.
001434: 40,2641           52155                           DXCH     MPAC                                  #  DATA IS IN HI SCALE, MP BY 8.
001435: 40,2642           20001                           DAS      A
001436: 40,2643           20001                           DAS      A
001437: 40,2644           20001                           DAS      A
001438: 40,2645           52155                           DXCH     MPAC
001439: 40,2646           07124        SCALELO            TC       DMP                                   #  SCALE FOR DISPLAY,
001440: 40,2647           00123                           ADRES    SFTEMP1
001441: 40,2650           02740                           TC       L14/OUT                               #  AND GO TO ARITHDP1.
001442:
001443: 40,2651           02664        RRDOTOUT           TC       RRSPTODP                              #  CONVERT TO DP.
001444: 40,2652           00006                           EXTEND
001445: 40,2653           42663                           DCS      BIASRDOT                              #  SUBTRACT BIAS OF 17000 COUNTS.
001446: 40,2654           20155                           DAS      MPAC
001447: 40,2655           34354                           CAF      TEN                                   #  MULTIPLY DATA BY TEN TO DISPLAY TENTHS
001448: 40,2656           07330                           TC       SHORTMP                               #    FPS - (ATTEMPT TO MULTIPLY DISPLAY
001449: 40,2657           52156                           DXCH     MPAC       +1                         #           SF BY TEN PRODUCED SF GREATER
001450: 40,2660           52155                           DXCH     MPAC                                  #           THAN 16383)
001451: 40,2661           02646                           TC       SCALELO                               #  SCALE FOR DISPLAY.
001452: 40,2662           00001 01150  BIASRDOT           2DEC     17000      B-28
001453:
001454:
001455: 40,2664           34724        RRSPTODP           CAF      POSMAX                                #  CONVERT SP 15 BIT MAG TO DP.
001456: 40,2665           70154                           MASK     MPAC
001457: 40,2666           54155                           TS       MPAC       +1
001458: 40,2667           30154                           CA       MPAC
001459: 40,2670           60000                           DOUBLE
001460: 40,2671           74744                           MASK     BIT1
001461: 40,2672           54154                           TS       MPAC
001462: 40,2673           00002                           TC       Q
001463:
001464: 40,2674           00006        SETAUG             EXTEND                                         #  LOADS SFTEMP1 AND SFTEMP2 WITH THE
001465: 40,2675           50156                           INDEX    MPAC       +2                         #  DP AUGMENTER CONSTANT
001466: 40,2676           32723                           DCA      DEGTAB
001467: 40,2677           52124                           DXCH     SFTEMP1
001468: 40,2700           00002                           TC       Q
001469:
001470: 40,2701           10154        FIXRANGE           CCS      MPAC                                  #  IF MPAC IS + RETURN TO L+1
001471: 40,2702           00002                           TC       Q                                     #  IF MPAC IS - RETURN TO L+2 AFTER
001472: 40,2703           00002                           TC       Q                                     #  MASKING OUT THE SIGN BIT
001473: 40,2704           12705                           TCF      +1
001474: 40,2705           44726                           CS       BIT15
001475: 40,2706           70154                           MASK     MPAC
001476: 40,2707           54154                           TS       MPAC
001477: 40,2710           50002                           INDEX    Q
001478: 40,2711           00001                           TC       1
001479:
001480: 40,2712           00006        DEGCOM             EXTEND                                         #  LOADS MULTIPLIER , DOES SHORTMP, AND
001481: 40,2713           50156                           INDEX    MPAC       +2                         #  ADDS AUGMENTER.


001483: 40,2714           32723                           DCA      DEGTAB
001484: 40,2715           52155                           DXCH     MPAC                                  #  ADJUSTED ANGLE IN A
001485: 40,2716           07330                           TC       SHORTMP
001486: 40,2717           52124                           DXCH     SFTEMP1
001487: 40,2720           20155                           DAS      MPAC
001488: 40,2721           02731                           TC       SCOUTEND
001489:
001490:
001491: 40,2722           05605        DEGTAB             OCT      05605                                 #  HI PART OF     .18
001492: 40,2723           03656                           OCT      03656                                 #  LOW PART OF    .18
001493: 40,2724           16314                           OCT      16314                                 #  HI PART OF     .45
001494: 40,2725           31463                           OCT      31463                                 #  LO PART OF     .45
001495:
001496: 40,2726           52124        ARTOUTSF           DXCH     SFTEMP1                               #  ASSUMES POINT AT LEFT OF DP SFCON
001497: 40,2727           52155                           DXCH     MPAC
001498: 40,2730           04406                           TC       PRSHRTMP                              #  IF C(A) = -0, SHORTMP FAILS TO GIVE -0.
001499: 40,2731           04626        SCOUTEND           TC       POSTJUMP
001500: 40,2732           62615                           CADR     DSPDCEND
001501:
001502: 40,2733           52124        AROUT1SF           DXCH     SFTEMP1                               #  ASSUMES POINT BETWEEN HI AND LO PARTS OF
001503: 40,2734           52155                           DXCH     MPAC                                  #  DP SFCON. SHIFTS RESULTS LEFT 14, BY
001504: 40,2735           04406                           TC       PRSHRTMP                              #  TAKING RESULTS FROM MPAC+1, MPAC+2.
001505: 40,2736           02740                           TC       L14/OUT
001506:
001507:
001508: 40,2737           02752        DP1OUTSF           TC       DPOUT                                 #  SCALES MPAC, MPAC +1 BY DP SCALE FACTOR
001509: 40,2740           56156        L14/OUT            XCH      MPAC       +2                         #  IN SFTEMP1, SFTEMP2. THEN SCALE RESULT
001510: 40,2741           56155                           XCH      MPAC       +1                         #  BY B14.
001511: 40,2742           54154                           TS       MPAC
001512: 40,2743           02731                           TC       SCOUTEND
001513:
001514:
001515: 40,2744           02752        DP2OUTSF           TC       DPOUT                                 #  SCALES MPAC , MPAC +1 BY DP SCALE FACTOR
001516: 40,2745           02731                           TC       SCOUTEND
001517:
001518:
001519: 40,2746           02752        DP3OUTSF           TC       DPOUT                                 #  ASSUMES POINT BETWEEN BITS 7-8 OF HIGH
001520: 40,2747           36263                           CAF      SIX                                   #  LEFT BY 7, ROUNDS MPAC+2 INTO MPAC+1.
001521: 40,2750           03202                           TC       TPLEFTN                               #  SHIFT LEFT 7.
001522: 40,2751           02731                           TC       SCOUTEND
001523:
001524:
001525: 40,2752     0162               MPAC+6             =        MPAC       +6                         #  USE MPAC +6 INSTEAD OF OVFIND
001526:
001527: 40,2752           56002        DPOUT              XCH      Q
001528: 40,2753           54162                           TS       MPAC+6
001529: 40,2754           02776                           TC       READLO                                #  GET FRESH DATA FOR BOTH HI AND LO.
001530: 40,2755           07300                           TC       TPAGREE                               #  MAKE DP DATA AGREE
001531: 40,2756           07124                           TC       DMP
001532: 40,2757           00123                           ADRES    SFTEMP1


001534: 40,2760           00162                           TC       MPAC+6
001535:                                                                                                  #  THE FOLLOWING ROUTINE DISPLAYS TWO CONTIGUOUS SP POSITIVE INTEGERS
001536:                                                                                                  #  AS TWO POSITIVE DECIMAL INTEGERS IN RXD1-RXD2 AND RXD4-RXD5 (RXD3 IS
001537:                                                                                                  #  BLANKED). THE INTEGER IN THE LOWER NUMBERED ADDRESS IS DISPLAYED IN
001538:                                                                                                  #  RXD1-RXD2.
001539:
001540: 40,2761           02525        2INTOUT            TC       5BLANK                                #  TO BLANK RXD3
001541: 40,2762           02402                           TC       +ON                                   #  TURN ON + SIGN
001542: 40,2763           30154                           CA       MPAC
001543: 40,2764           03335                           TC       DSPDECVN                              #  DISPLAY 1ST INTEGER (LIKE VERB AND NOUN)
001544: 40,2765           46266                           CS       THREE
001545: 40,2766           50117                           INDEX    DECOUNT
001546: 40,2767           64310                           AD       R1D1                                  #  RXD4
001547: 40,2770           54776                           TS       DSPCOUNT
001548: 40,2771           02776                           TC       READLO                                #  GET 2ND INTEGER
001549: 40,2772           30155                           CA       MPAC       +1
001550: 40,2773           03335                           TC       DSPDECVN                              #  DISPLAY 2ND INTEGER (LIKE VERB AND NOUN)
001551: 40,2774           04626                           TC       POSTJUMP
001552: 40,2775           62617                           CADR     DSPDCEND   +2
001553:
001554:
001555:                                                                                                  #  READLO PICKS UP FRESH DATA FOR BOTH HI AND LO AND LEAVES IT IN
001556:                                                                                                  #  MPAC, MPAC+1. THIS IS NEEDED FOR TIME DISPLAY. IT ZEROES MPAC+2, BUT
001557:                                                                                                  #  DOES NOT FORCE TPAGREE.
001558:
001559: 40,2776           56002        READLO             XCH      Q
001560: 40,2777           54144                           TS       TEM4
001561: 40,3000           50140                           INDEX    MIXBR
001562: 40,3001           03001                           TC       +0
001563: 40,3002           03016                           TC       RDLONOR
001564: 40,3003           50117                           INDEX    DECOUNT
001565: 40,3004           30150                           CA       IDAD1TEM                              #  GET IDADDTAB ENTRY FOR COMP K OF NOUN.
001566: 40,3005           74347                           MASK     LOW11                                 #  E SUBK
001567: 40,3006           04304                           TC       SETEBANK                              #  SET EB, LEAVE EADRES IN A.
001568: 40,3007           00006        READLO1            EXTEND                                         #  MIXED         NORMAL
001569: 40,3010           50000                           INDEX    A                                     #  C(ESUBK)      C(E)
001570: 40,3011           30001                           DCA      0                                     #  C((E SUBK)+1)      C(E+1)
001571: 40,3012           52155                           DXCH     MPAC
001572: 40,3013           34746                           CAF      ZERO
001573: 40,3014           54156                           TS       MPAC       +2
001574: 40,3015           00144                           TC       TEM4
001575:
001576: 40,3016           30145        RDLONOR            CA       NOUNADD                               #  E
001577: 40,3017           03007        ENDRDLO            TC       READLO1
001578:
001579:
001580: 42,3241                                           BANK     42
001581: 42,2000                                           SETLOC   PINBALL3
001582: 42,2000                                           BANK
001583:


001585: 42,3241                                           COUNT*   $$/PIN
001586: 42,3241           04607        HMSOUT             TC       BANKCALL                              #  READ FRESH DATA FOR HI AND LO INTO MPAC.
001587: 42,3242           60776                           CADR     READLO                                #  MPAC+1.
001588: 42,3243           07300                           TC       TPAGREE                               #  MAKE DP DATA AGREE
001589: 42,3244           03430                           TC       SEPSECNR                              #  LEAVE FRACT SEC/60 IN MPAC, MPAC+1.LEAVE
001590:                                                                                                  #  WHOLE MIN IN BIT13 OF LOTEMOUT AND ABOVE
001591: 42,3245           07124                           TC       DMP                                   #  USE ONLY FRACT SEC/60 MOD 60
001592: 42,3246           03302                           ADRES    SECON2                                #  MULT BY .06
001593: 42,3247           34312                           CAF      R3D1                                  #  GIVES CENTI-SEC/10EXP5 MOD 60
001594: 42,3250           54776                           TS       DSPCOUNT
001595: 42,3251           04607                           TC       BANKCALL                              #  DISPLAY SEC MOD 60
001596: 42,3252           61255                           CADR     DSPDECWD
001597: 42,3253           03446                           TC       SEPMIN                                #  REMOVE REST OF SECONDS
001598: 42,3254           33304                           CAF      MINCON2                               #  LEAVE FRACT MIN/60 IN MPAC+1. LEAVE
001599: 42,3255           56154                           XCH      MPAC                                  #  WHOLE HOURS IN MPAC.
001600: 42,3256           55006                           TS       HITEMOUT                              #  SAVE WHOLE HOURS.
001601: 42,3257           33305                           CAF      MINCON2    +1
001602: 42,3260           56155                           XCH      MPAC       +1                         #  USE ONLY FRACT MIN/60 MOD 60
001603: 42,3261           04406                           TC       PRSHRTMP                              #  IF C(A) = -0, SHORTMP FAILS TO GIVE -0.
001604:                                                                                                  #  MULT BY .0006
001605: 42,3262           34311                           CAF      R2D1                                  #  GIVES MIN/10EXP5 MOD 60
001606: 42,3263           54776                           TS       DSPCOUNT
001607: 42,3264           04607                           TC       BANKCALL                              #  DISPLAY MIN MOD 60
001608: 42,3265           61255                           CADR     DSPDECWD
001609: 42,3266           00006                           EXTEND                                         #  MINUTES, SECONDS HAVE BEEN REMOVED
001610: 42,3267           33311                           DCA      HRCON1
001611: 42,3270           52155                           DXCH     MPAC
001612: 42,3271           31006                           CA       HITEMOUT                              #  USE WHOLE HOURS
001613: 42,3272           04406                           TC       PRSHRTMP                              #  IF C(A) = -0, SHORTMP FAILS TO GIVE -0.
001614:                                                                                                  #  MULT BY .16384
001615: 42,3273           34310                           CAF      R1D1                                  #  GIVES HOURS/10EXP5
001616: 42,3274           54776                           TS       DSPCOUNT
001617: 42,3275           04607                           TC       BANKCALL                              #  USE REGULAR DSPDECWD, WITH ROUND OFF.
001618: 42,3276           61255                           CADR     DSPDECWD
001619: 42,3277           00136                           TC       ENTEXIT
001620:
001621: 42,3300           25660 31742  SECON1             2DEC*    1.666666666 E-4        B12*            #  2EXP12/6000
001622:
001623: 42,3302           01727        SECON2             OCT      01727                                 #  .06 FOR SECONDS DISPLAY
001624: 42,3303           01217                           OCT      01217
001625: 42,3304           00011        MINCON2            OCT      00011                                 #  .0006 FOR MINUTES DISLPAY
001626: 42,3305           32445                           OCT      32445
001627: 42,3306           02104        MINCON1            OCT      02104                                 #  .066..66 UPPED BY 2EXP-2B
001628: 42,3307           10422                           OCT      10422
001629: 42,3310           05174 13261  HRCON1             2DEC     .16384
001630:
001631: 42,3312           00000                           OCT      00000
001632: 42,3313           00062        RNDCON             OCT      00062                                 #  .5 SEC
001633:


001635: 42,3314           04607        M/SOUT             TC       BANKCALL                              #  READ FRESH DATA FOR HI AND LO INTO MPAC.
001636: 42,3315           60776                           CADR     READLO                                #  MPAC+1.
001637: 42,3316           07300                           TC       TPAGREE                               #  MAKE DP DATA AGREE
001638: 42,3317           10154                           CCS      MPAC                                  #  IF MAG OF (MPAC, MPAC+1) G/ 59 M 59 S.
001639: 42,3320           03322                           TC       +2                                    #  DISPLAY 59B59, WITH PROPER SIGN.
001640: 42,3321           03353                           TC       M/SNORM                               #  MPAC = +0. L/ 59M58.5S
001641: 42,3322           63410                           AD       M/SCON1                               #  - HI PART OF (59M58.5S) +1  FOR CCS
001642: 42,3323           10000                           CCS      A                                     #  MAG OF MPAC - HI PART OF (59M58.5S)
001643: 42,3324           03337                           TC       M/SLIMIT                              #  G/ 59M58.5S
001644: 42,3325           03353                           TC       M/SNORM                               #  ORIGINAL MPAC = -0. L/ 59M58.5S
001645: 42,3326           03353                           TC       M/SNORM                               #  L/ 59M58.5S
001646: 42,3327           10155                           CCS      MPAC       +1                         #  MAG OF MPAC = HI PART OF 59M58.5S
001647: 42,3330           03332                           TC       +2
001648: 42,3331           03353                           TC       M/SNORM                               #  MPAC+1 = +0. L/ 59M58.5S
001649: 42,3332           63411                           AD       M/SCON2                               #  - LO PART OF (59M58.5S) +1  FOR CCS
001650: 42,3333           10000                           CCS      A                                     #  MAG OF MPAC+1 - LO PART OF (59M58.5S)
001651: 42,3334           03337                           TC       M/SLIMIT                              #  G/ 59M58.5S
001652: 42,3335           03353                           TC       M/SNORM                               #  ORIGINAL MPAC+1 = -0. L/ 59M58.5S
001653: 42,3336           03353                           TC       M/SNORM                               #  L/ 59M58.5S
001654: 42,3337           10154        M/SLIMIT           CCS      MPAC                                  #  = 59M58.5S    LIMIT
001655: 42,3340           33413                           CAF      M/SCON3                               #  MPAC CANNOT BE +/- 0 AT THIS POINT.
001656: 42,3341           03350                           TC       +LIMIT                                #  FORCE MPAC, MPAC+1 TO +/- 59M59.5S
001657: 42,3342           43413                           CS       M/SCON3
001658: 42,3343           54154                           TS       MPAC                                  #  WILL DISPLAY 59M59S IN DSPDECNR
001659: 42,3344           43414                           CS       M/SCON3    +1
001660: 42,3345           54155        LIMITCOM           TS       MPAC       +1
001661: 42,3346           33412                           CAF      NORMADR                               #  SET RETURN TO M/SNORM+1.
001662: 42,3347           03431                           TC       SEPSECNR   +1
001663: 42,3350           54154        +LIMIT             TS       MPAC
001664: 42,3351           33414                           CAF      M/SCON3    +1
001665: 42,3352           03345                           TC       LIMITCOM
001666: 42,3353           03415        M/SNORM            TC       SEPSEC                                #  LEAVE FRACT SEC/60 IN MPAC,MPAC+1. LEAVE
001667:                                                                                                  #  WHOLE MIN IN BIT13 OF LOTEMOUT AND ABOVE
001668: 42,3354           33406                           CAF      HISECON                               #  USE ONLY FRACT SEC/60 MOD 60
001669: 42,3355           07330                           TC       SHORTMP                               #  MULT BY .6 + 2EXP-14
001670: 42,3356           46266                           CS       THREE                                 #  GIVES SEC/100 MOD 60
001671: 42,3357           26776                           ADS      DSPCOUNT                              #  DSPCOUNT ALREADY SET TO RXD1
001672: 42,3360           04607                           TC       BANKCALL                              #  DISPLAY SEC MOD 60 IN D4D5.
001673: 42,3361           61315                           CADR     DSPDC2NR
001674: 42,3362           34746                           CAF      ZERO
001675: 42,3363           54124                           TS       CODE
001676: 42,3364           44743                           CS       TWO
001677: 42,3365           50117                           INDEX    DECOUNT
001678: 42,3366           64310                           AD       R1D1                                  #  RXD3
001679: 42,3367           54143                           TS       COUNT
001680: 42,3370           04607                           TC       BANKCALL                              #  BLANK MIDDLE CHAR
001681: 42,3371           61351                           CADR     DSPIN
001682: 42,3372           03446                           TC       SEPMIN                                #  REMOVE REST OF SECONDS
001683: 42,3373           56155                           XCH      MPAC       +1                         #  LEAVE FRACT MIN/60 IN MPAC+1
001684: 42,3374           00006                           EXTEND                                         #  USE ONLY FRACT MIN/60 MOD 60


001686: 42,3375           73407                           MP       HIMINCON                              #  MULT BY .6 + 2EXP-7
001687: 42,3376           52155                           DXCH     MPAC                                  #  GIVES MIN/100 MOD 60
001688: 42,3377           50117                           INDEX    DECOUNT
001689: 42,3400           34310                           CAF      R1D1                                  #  RXD1
001690: 42,3401           54776                           TS       DSPCOUNT
001691: 42,3402           04607                           TC       BANKCALL                              #  DISPLAY MIN MOD 60 IN D1D2.
001692: 42,3403           61315                           CADR     DSPDC2NR
001693: 42,3404           04626                           TC       POSTJUMP
001694: 42,3405           62617                           CADR     DSPDCEND   +2
001695:
001696: 42,3406           23147        HISECON            OCT      23147                                 #  .6 + 2EXP-14
001697: 42,3407           23346        HIMINCON           OCT      23346                                 #  .6 + 2EXP-7
001698:
001699: 42,3410           77753        M/SCON1            OCT      77753                                 #  - HI PART OF (59M58.5S) +1
001700: 42,3411           41126        M/SCON2            OCT      41126                                 #  - LO PART OF (59M58.5S) +1
001701: 42,3412           03354        NORMADR            ADRES    M/SNORM    +1
001702: 42,3413           00025        M/SCON3            OCT      00025                                 #  59M 59.5S
001703: 42,3414           37016                           OCT      37016
001704:
001705:
001706: 42,3415           10155        SEPSEC             CCS      MPAC       +1                         #  IF +, ROUND BY ADDING .5 SEC
001707: 42,3416           13425                           TCF      POSEC                                 #  IF -, ROUND BY SUBTRACTING .5 SEC
001708: 42,3417           13425                           TCF      POSEC                                 #  FINDS TIME IN MPAC, MPAC+1
001709: 42,3420           13421                           TCF      +1                                    #  ROUNDS OFF BY +/- .5 SEC
001710: 42,3421           00006                           EXTEND                                         #  LEAVES WHOLE MIN IN BIT13 OF
001711: 42,3422           43313                           DCS      RNDCON     -1                         #  LOTEMOUT AND ABOVE.
001712: 42,3423           20155        SEPSEC1            DAS      MPAC                                  #  LEAVES FRACT SEC/60 IN MPAC, MPAC+1.
001713: 42,3424           13430                           TCF      SEPSECNR
001714: 42,3425           00006        POSEC              EXTEND
001715: 42,3426           33313                           DCA      RNDCON     -1
001716: 42,3427           13423                           TCF      SEPSEC1
001717: 42,3430           56002        SEPSECNR           XCH      Q                                     #  THIS ENTRY AVOIDS ROUNDING BY .5 SEC
001718: 42,3431           54144                           TS       SEPSCRET
001719: 42,3432           07124                           TC       DMP                                   #  MULT BY 2EXP12/6000
001720: 42,3433           03300                           ADRES    SECON1                                #  GIVES FRACT SEC/60 IN BIT12 OF MPAC+1
001721: 42,3434           00006                           EXTEND                                         #  AND BELOW.
001722: 42,3435           30155                           DCA      MPAC                                  #  SAVE MINUTES AND HOURS
001723: 42,3436           53007                           DXCH     HITEMOUT
001724: 42,3437           04375                           TC       TPSL1
001725: 42,3440           04375                           TC       TPSL1                                 #  GIVES FRACT SEC/60 IN MPAC+1, MPAC+2.
001726: 42,3441           34746                           CAF      ZERO
001727: 42,3442           56156                           XCH      MPAC       +2                         #  LEAVE FRACT SEC/60 IN MPAC, MPAC+1.
001728: 42,3443           56155                           XCH      MPAC       +1
001729: 42,3444           56154                           XCH      MPAC
001730: 42,3445           00144                           TC       SEPSCRET
001731:
001732:
001733: 42,3446           56002        SEPMIN             XCH      Q                                     #  FINDS WHOLE MINUTES IN BIT13
001734: 42,3447           54144                           TS       SEPMNRET                              #  OF LOTEMOUT AND ABOVE.
001735: 42,3450           31007                           CA       LOTEMOUT                              #  REMOVES REST OF SECONDS.


001737: 42,3451           00006                           EXTEND                                         #  LEAVES FRACT MIN/60 IN MPAC+1.
001738: 42,3452           74742                           MP       BIT3                                  #  LEAVES WHOLE HOURS IN MPAC.
001739: 42,3453           00006                           EXTEND                                         #  SR 12, THROW AWAY LP.
001740: 42,3454           74730                           MP       BIT13                                 #  SR 2, TAKE FROM LP. = SL 12.
001741: 42,3455           22155                           LXCH     MPAC       +1                         #  THIS FORCES BITS 12-1 TO 0 IF +,
001742:                                                                                                  #  FORCES BITS 12-1 TO 1 IF -.
001743: 42,3456           31006                           CA       HITEMOUT
001744: 42,3457           54154                           TS       MPAC
001745: 42,3460           07124                           TC       DMP                                   #  MULT BY 1/15
001746: 42,3461           03306                           ADRES    MINCON1                               #  GIVES FRACT MIN/60 IN MPAC+1.
001747: 42,3462           00144        ENDSPMIN           TC       SEPMNRET                              #  GIVES WHOLE HOURS IN MPAC.
001748:
001749:                                                                                                  #  THIS IS A SPECIAL PURPOSE VERB FOR DISPLAYING A DOUBLE PRECISION AGC
001750:                                                                                                  #  WORD AS 10 DECIMAL DIGITS ON THE AGC DISPLAY PANEL.  IT CAN BE USED WITH
001751:                                                                                                  #  ANY NOUN, EXCEPT MIXED NOUNS. IT DISPLAYS THE CONTENTS
001752:                                                                                                  #  OF THE REGISTER NOUNADD IS POINTING TO .  IF USED WITH NOUNS WHICH ARE
001753:                                                                                                  #  INHERENTLY NOT DP SUCH AS THE CDU COUNTERS THE DISPLAY WILL BE GARBAGE.
001754:                                                                                                  #  DISPLAY IS IN R1 AND R2 ONLY WITH THE SIGN IN R1.
001755:
001756:
001757: 40,3020                                           SETLOC   ENDRDLO    +1
001758:
001759: 40,3020                                           COUNT*   $$/PIN
001760: 40,3020           50140        DSPDPDEC           INDEX    MIXBR
001761: 40,3021           03021                           TC       +0
001762: 40,3022           03024                           TC       +2                                    #  NORMAL NOUN
001763: 40,3023           03447                           TC       DSPALARM
001764: 40,3024           00006                           EXTEND
001765: 40,3025           50145                           INDEX    NOUNADD
001766: 40,3026           30001                           DCA      0
001767: 40,3027           52155                           DXCH     MPAC
001768: 40,3030           34310                           CAF      R1D1
001769: 40,3031           54776                           TS       DSPCOUNT
001770: 40,3032           34746                           CAF      ZERO
001771: 40,3033           54156                           TS       MPAC       +2
001772: 40,3034           07300                           TC       TPAGREE
001773: 40,3035           03322                           TC       DSP2DEC
001774: 40,3036           00136        ENDDPDEC           TC       ENTEXIT
001775:


001777:                                                                                                  #  LOAD VERBS           IF ALARM CONDITION IS DETECTED DURING EXECUTE,
001778:                                                                                                  #  CHECK FAIL LIGHT IS TURNED ON AND ENDOFJOB. IF ALARM CONDITION IS
001779:                                                                                                  #  DETECTED DURING ENTER OF DATA, CHECK FAIL IS TURNED ON AND IT RECYCLES
001780:                                                                                                  #  TO EXECUTE  OF ORIGINAL LOAD VERB. RECYCLE CAUSED BY  1) DECIMAL MACHINE
001781:                                                                                                  #  CADR  2) MIXTURE OF OCTAL/DECIMAL DATA  3) OCTAL DATA INTO DECIMAL
001782:                                                                                                  #  ONLY NOUN  4) DEC DATA INTO OCT ONLY NOUN  5) DATA TOO LARGE FOR SCALE
001783:                                                                                                  #  6) FEWER THAN 3 DATA WORDS LOADED FOR HRS, MIN, SEC NOUN.8(2)-(6) ALARM
001784:                                                                                                  #  AND RECYCLE OCCUR AT FINAL ENTER OF SET. (1) ALARM AND RECYCLE OCCUR AT
001785:                                                                                                  #  ENTER OF CADR.
001786:
001787:
001788: 41,2647                                           SETLOC   ENDRTOUT
001789:
001790: 41,2647                                           COUNT*   $$/PIN
001791: 41,2647           44743        ABCLOAD            CS       TWO
001792: 41,2650           02453                           TC       COMPTEST
001793: 41,2651           02507                           TC       NOUNTEST                              #  TEST IF NOUN CAN BE LOADED.
001794: 41,2652           33056                           CAF      VBSP1LD
001795: 41,2653           02366                           TC       UPDATVB    -1
001796: 41,2654           02332                           TC       REQDATX
001797: 41,2655           33057                           CAF      VBSP2LD
001798: 41,2656           02366                           TC       UPDATVB    -1
001799: 41,2657           02334                           TC       REQDATY
001800: 41,2660           33060                           CAF      VBSP3LD
001801: 41,2661           02366                           TC       UPDATVB    -1
001802: 41,2662           02336                           TC       REQDATZ
001803:
001804:
001805: 41,2663           46263        PUTXYZ             CS       SIX                                   #  TEST THAT THE 3 DATA WORDS LOADED ARE
001806: 41,2664           03061                           TC       ALLDC/OC                              #  ALL DEC OR ALL OCT.
001807: 41,2665           00006                           EXTEND
001808: 41,2666           32141                           DCA      LODNNLOC                              #  SWITCH BANKS TO NOUN TABLE READING
001809: 41,2667           52006                           DXCH     Z                                     #  ROUTINE.
001810: 41,2670           34746                           CAF      ZERO                                  #  X COMP
001811: 41,2671           03145                           TC       PUTCOM
001812: 41,2672           50145                           INDEX    NOUNADD
001813: 41,2673           54000                           TS       0
001814: 41,2674           34744                           CAF      ONE                                   #  Y COMP
001815: 41,2675           03145                           TC       PUTCOM
001816: 41,2676           50145                           INDEX    NOUNADD
001817: 41,2677           54001                           TS       1
001818: 41,2700           34743                           CAF      TWO                                   #  Z COMP
001819: 41,2701           03145                           TC       PUTCOM
001820: 41,2702           50145                           INDEX    NOUNADD
001821: 41,2703           54002                           TS       2
001822: 41,2704           44750                           CS       SEVEN                                 #  IF NOUN 7 HAS JUST BEEN LOADED, SET
001823: 41,2705           61001                           AD       NOUNREG                               #   FLAG BITS AS SPECIFIED.
001824: 41,2706           00006                           EXTEND
001825: 41,2707           12711                           BZF      +2
001826: 41,2710           03045                           TC       LOADLV


001828: 41,2711           00004                           INHINT
001829: 41,2712           44754                           CS       OCT30                                 #  IS IT A CHANNEL (30 OR UNDER)
001830: 41,2713           61002                           AD       XREG
001831: 41,2714           00006                           EXTEND
001832: 41,2715           62725                           BZMF     CHANBITS                              #  YES
001833:
001834: 41,2716           31002                           CA       XREG                                  #  ECADR OF ERASABLE CELL
001835: 41,2717           04275                           TC       SETNCADR   +1                         #  SET EBANK, NOUNADD
001836:
001837: 41,2720           50145                           INDEX    NOUNADD
001838: 41,2721           30000                           CA       0
001839: 41,2722           54001                           TS       L
001840: 41,2723           34744                           CAF      ONE
001841: 41,2724           55002                           TS       XREG                                  #  MAKE IT LOOK LIKE A CHANNEL FOR A WHILE
001842:
001843: 41,2725           64352        CHANBITS           AD       OCT21
001844: 41,2726           00006                           EXTEND
001845: 41,2727           12751                           BZF      BITSOFF2                              #  DONT TOUCH CHAN7 (SUPERBANK)
001846:
001847: 41,2730           31004                           CA       ZREG
001848: 41,2731           00006                           EXTEND
001849: 41,2732           62740                           BZMF     BITSOFF                               #  R3 IS ZERO FOR OFF, NONZERO FOR ON
001850:
001851: 41,2733           31003                           CA       YREG
001852: 41,2734           00006                           EXTEND
001853: 41,2735           51002                           INDEX    XREG
001854: 41,2736           05000                           WOR      0
001855: 41,2737           12744                           TCF      BITSOFF1
001856:
001857: 41,2740           41003        BITSOFF            CS       YREG
001858: 41,2741           00006                           EXTEND
001859: 41,2742           51002                           INDEX    XREG
001860: 41,2743           03000                           WAND     0
001861:
001862: 41,2744           11002        BITSOFF1           CCS      XREG                                  #  WAS IT REALLY A CHANNEL
001863: 41,2745           10000                           CCS      A
001864: 41,2746           12751                           TCF      BITSOFF2                              #  YES
001865:
001866: 41,2747           50145                           INDEX    NOUNADD
001867: 41,2750           22000                           LXCH     0
001868:
001869: 41,2751           00003        BITSOFF2           RELINT
001870: 41,2752           03045                           TC       LOADLV
001871:
001872: 41,2753     4754               OCT30              =        BITS4&5
001873: 41,2753           44744        ABLOAD             CS       ONE
001874: 41,2754           02453                           TC       COMPTEST
001875: 41,2755           02507                           TC       NOUNTEST                              #  TEST IF NOUN CAN BE LOADED.
001876: 41,2756           33056                           CAF      VBSP1LD
001877: 41,2757           02366                           TC       UPDATVB    -1


001879: 41,2760           02332                           TC       REQDATX
001880: 41,2761           33057                           CAF      VBSP2LD
001881: 41,2762           02366                           TC       UPDATVB    -1
001882: 41,2763           02334                           TC       REQDATY
001883: 41,2764           44747        PUTXY              CS       FIVE                                  #  TEST THAT THE 2 DATA WORDS LOADED ARE
001884: 41,2765           03061                           TC       ALLDC/OC                              #  ALL DEC OR ALL OCT.
001885: 41,2766           00006                           EXTEND
001886: 41,2767           32141                           DCA      LODNNLOC                              #  SWITCH BANKS TO NOUN TABLE READING
001887: 41,2770           52006                           DXCH     Z                                     #  ROUTINE.
001888: 41,2771           34746                           CAF      ZERO                                  #  X COMP
001889: 41,2772           03145                           TC       PUTCOM
001890: 41,2773           50145                           INDEX    NOUNADD
001891: 41,2774           54000                           TS       0
001892: 41,2775           34744                           CAF      ONE                                   #  Y COMP
001893: 41,2776           03145                           TC       PUTCOM
001894: 41,2777           50145                           INDEX    NOUNADD
001895: 41,3000           54001                           TS       1
001896: 41,3001           03045                           TC       LOADLV
001897:
001898: 41,3002           02332        ALOAD              TC       REQDATX
001899: 41,3003           00006                           EXTEND
001900: 41,3004           32141                           DCA      LODNNLOC                              #  SWITCH BANKS TO NOUN TABLE READING
001901: 41,3005           52006                           DXCH     Z                                     #  ROUTINE.
001902: 41,3006           34746                           CAF      ZERO                                  #  X COMP
001903: 41,3007           03145                           TC       PUTCOM
001904: 41,3010           50145                           INDEX    NOUNADD
001905: 41,3011           54000                           TS       0
001906: 41,3012           03045                           TC       LOADLV
001907:
001908: 41,3013           44744        BLOAD              CS       ONE
001909: 41,3014           02453                           TC       COMPTEST
001910: 41,3015           34726                           CAF      BIT15                                 #  SET CLPASS FOR PASS0 ONLY
001911: 41,3016           55014                           TS       CLPASS
001912: 41,3017           02334                           TC       REQDATY
001913: 41,3020           00006                           EXTEND
001914: 41,3021           32141                           DCA      LODNNLOC                              #  SWITCH BANKS TO NOUN TABLE READING
001915: 41,3022           52006                           DXCH     Z                                     #  ROUTINE.
001916: 41,3023           34744                           CAF      ONE
001917: 41,3024           03145                           TC       PUTCOM
001918: 41,3025           50145                           INDEX    NOUNADD
001919: 41,3026           54001                           TS       1
001920: 41,3027           03045                           TC       LOADLV
001921:
001922: 41,3030           44743        CLOAD              CS       TWO
001923: 41,3031           02453                           TC       COMPTEST
001924: 41,3032           34726                           CAF      BIT15                                 #  SET CLPASS FOR PASS0 ONLY
001925: 41,3033           55014                           TS       CLPASS
001926: 41,3034           02336                           TC       REQDATZ
001927: 41,3035           00006                           EXTEND
001928: 41,3036           32141                           DCA      LODNNLOC                              #  SWITCH BANKS TO NOUN TABLE READING


001930: 41,3037           52006                           DXCH     Z                                     #  ROUTINE.
001931: 41,3040           34743                           CAF      TWO
001932: 41,3041           03145                           TC       PUTCOM
001933: 41,3042           50145                           INDEX    NOUNADD
001934: 41,3043           54002                           TS       2
001935: 41,3044           03045                           TC       LOADLV
001936:
001937: 41,3045           34746        LOADLV             CAF      ZERO
001938: 41,3046           54777                           TS       DECBRNCH
001939: 41,3047           44746                           CS       ZERO
001940: 41,3050           55013                           TS       LOADSTAT
001941: 41,3051           04450                           TC       RELDSP                                #  RELEASE FOR PRIORITY DISPLAY PROBLEM.
001942: 41,3052           44351                           CS       VD1                                   #  TO BLOCK NUMERICAL CHARACTERS AND
001943: 41,3053           54776                           TS       DSPCOUNT                              #  CLEARS AFTER A COMPLETED LOAD
001944: 41,3054           04626                           TC       POSTJUMP                              #  AFTER COMPLETED LOAD, GO TO RECALTST
001945: 41,3055           61605                           CADR     RECALTST                              #  TO SEE IF THERE IS RECALL FROM ENDIDLE.
001946:
001947: 41,3056     4352               OCT21              EQUALS   ND1
001948:
001949:
001950: 41,3056           00025        VBSP1LD            DEC      21         B-14                       #  VB21 = ALOAD
001951: 41,3057           00026        VBSP2LD            DEC      22         B-14                       #  VB22 = BLOAD
001952: 41,3060           00027        VBSP3LD            DEC      23         B-14                       #  VB23 = CLOAD
001953:
001954:
001955: 41,3061           54117        ALLDC/OC           TS       DECOUNT                               #  TESTS THAT DATA WORDS LOADED ARE EITHER
001956: 41,3062           40777                           CS       DECBRNCH                              #  ALL DEC OR ALL OCT. ALARMS IF NOT.
001957: 41,3063           54021                           TS       SR
001958: 41,3064           40021                           CS       SR
001959: 41,3065           40021                           CS       SR                                    #  SHIFTED RIGHT 2
001960: 41,3066           10000                           CCS      A                                     #  DEC COMP BITS IN LOW 3
001961: 41,3067           13071                           TCF      +2                                    #  SOME ONES IN LOW 3
001962: 41,3070           00002                           TC       Q                                     #  ALL ZEROS. ALL OCTAL.  OK
001963: 41,3071           60117                           AD       DECOUNT                               #  DEC COMP = 7 FOR 3COMP, =6 FOR 2COMP
001964: 41,3072           00006                           EXTEND                                         #  (BUT IT HAS BEEN DECREMENTED BY CCS)
001965: 41,3073           13075                           BZF      +2                                    #  MUST MATCH 6 FOR 3COMP, 5 FOR 2COMP.
001966: 41,3074           06020                           TC       ALMCYCLE                              #  ALARM AND RECYCLE.
001967: 41,3075           00002        GOQ                TC       Q                                     #  ALL REQUIRED ARE DEC. OK
001968:
001969:
001970: 41,3076           56002        SFRUTNOR           XCH      Q                                     #  GETS SF ROUTINE NUMBER FOR NORMAL CASE
001971: 41,3077           54114                           TS       EXITEM                                #  CANT USE L FOR RETURN. TSTFORDP USES L.
001972: 41,3100           34340                           CAF      MID5
001973: 41,3101           70147                           MASK     NNTYPTEM
001974: 41,3102           04313                           TC       RIGHT5
001975: 41,3103           00114                           TC       EXITEM                                #  SF ROUTINE NUMBER IN A
001976:
001977: 41,3104           56002        SFRUTMIX           XCH      Q                                     #  GETS SF ROUTINE NUMBER FOR MIXED CASE
001978: 41,3105           54114                           TS       EXITEM
001979: 41,3106           50117                           INDEX    DECOUNT


001981: 41,3107           33136                           CAF      DISPLACE                              #  PUT TC GOQ, TC RIGHT5, OR TC LEFT5 IN L
001982: 41,3110           54001                           TS       L
001983: 41,3111           50117                           INDEX    DECOUNT
001984: 41,3112           34337                           CAF      LOW5                                  #  LOW5, MID5, OR HI5 IN A
001985: 41,3113           70153                           MASK     RUTMXTEM                              #  GET HI5, MID5, OR LOW5 OF RUTMXTAB ENTRY
001986: 41,3114           50001                           INDEX    L
001987: 41,3115           00000                           TC       0
001988:                                                                                                  #  DO TC GOQ(DECOUNT=0), DO TC RIGHT5(DECOUNT=1), DO TC LEFT5(DECOUNT=2).
001989: 41,3116           00114        SFRET1             TC       EXITEM                                #  SF ROUTINE NUMBER IN A
001990:
001991: 41,3117           56002        SFCONUM            XCH      Q                                     #  GETS 2X( SF CONSTANT NUMBER)
001992: 41,3120           54114                           TS       EXITEM
001993: 41,3121           50140                           INDEX    MIXBR
001994: 41,3122           03122                           TC       +0
001995: 41,3123           03141                           TC       CONUMNOR                              #  NORMAL NOUN
001996: 41,3124           50117                           INDEX    DECOUNT                               #  MIXED NOUN
001997: 41,3125           33136                           CAF      DISPLACE
001998: 41,3126           54001                           TS       L                                     #  PUT TC GOQ, TC RIGHT5, OR TC LEFT5 IN L
001999: 41,3127           50117                           INDEX    DECOUNT
002000: 41,3130           34337                           CAF      LOW5
002001: 41,3131           70147                           MASK     NNTYPTEM
002002: 41,3132           50001                           INDEX    L
002003: 41,3133           00000                           TC       0
002004:                                                                                                  #  DO TC GOQ(DECOUNT=0), DO TC RIGHT5(DECOUNT=1), DO TC LEFT5(DECOUNT=2).
002005: 41,3134           60000        SFRET              DOUBLE                                         #  2X(SF CONSTANT NUMBER ) IN A
002006: 41,3135           00114                           TC       EXITEM
002007:
002008: 41,3136           03075        DISPLACE           TC       GOQ
002009: 41,3137           04313                           TC       RIGHT5
002010: 41,3140           04322                           TC       LEFT5
002011:
002012: 41,3141           34337        CONUMNOR           CAF      LOW5                                  #  NORMAL NOUN ALWAYS GETS LOW 5 OF
002013: 41,3142           70147                           MASK     NNTYPTEM                              #  NNTYPTAB FOR SF CONUM.
002014: 41,3143           60000                           DOUBLE
002015: 41,3144           00114                           TC       EXITEM                                #  2X( SF CONSTANT NUMBER) IN A
002016:
002017:
002018: 41,3145           54117        PUTCOM             TS       DECOUNT
002019: 41,3146           56002                           XCH      Q
002020: 41,3147           54115                           TS       DECRET
002021: 41,3150           34746                           CAF      ZERO
002022: 41,3151           54162                           TS       MPAC+6
002023: 41,3152           50117                           INDEX    DECOUNT
002024: 41,3153           57005                           XCH      XREGLP
002025: 41,3154           54155                           TS       MPAC       +1
002026: 41,3155           50117                           INDEX    DECOUNT
002027: 41,3156           57002                           XCH      XREG
002028: 41,3157           54154                           TS       MPAC
002029: 41,3160           50140                           INDEX    MIXBR
002030: 41,3161           03161                           TC       +0


002032: 41,3162           03207                           TC       PUTNORM                               #  NORMAL NOUN
002033:                                                                                                  #  IF MIXNOUN, PLACE ADDRESS FOR COMPONENT K INTO NOUNADD, SET EBANK BITS.
002034: 41,3163           50117                           INDEX    DECOUNT                               #  GET IDADDTAB ENTRY FOR COMPONENT K
002035: 41,3164           30150                           CA       IDAD1TEM                              #          OF NOUN.
002036: 41,3165           74347                           MASK     LOW11                                 #  (ECADR)SUBK FOR CURRENT COMP OF NOUN
002037: 41,3166           04274                           TC       SETNCADR                              #  ECADR INTO NOUNCADR. SETS EB, NOUNADD.
002038: 41,3167           00006                           EXTEND                                         #  C(NOUNADD) IN A UPON RETURN
002039: 41,3170           60117                           SU       DECOUNT                               #  PLACE (ESUBK)-K INTO NOUNADD
002040: 41,3171           54145                           TS       NOUNADD
002041: 41,3172           10777                           CCS      DECBRNCH
002042: 41,3173           03244                           TC       PUTDECSF                              #  +  DEC
002043: 41,3174           02501                           TC       DCTSTCYC                              #  +0 OCTAL
002044: 41,3175           03104                           TC       SFRUTMIX                              #  TEST IF DEC ONLY BIT = 1. IF SO,
002045: 41,3176           02306                           TC       DPTEST                                #  ALARM AND RECYCLE. IF NOT, CONTINUE.
002046: 41,3177           03225                           TC       PUTCOM2                               #  NO DP
002047:                                                                                                  #  TEST FOR DP SCALE FOR OCT LOAD. IF SO,
002048:                                                                                                  #  +0 INTO MAJOR PART. SET NOUNADD FOR
002049:                                                                                                  #  LOADING OCTAL WORD INTO MINOR PART.
002050: 41,3200           24145        PUTDPCOM           INCR     NOUNADD                               #  DP  (ESUBK)-K+1  OR  E+1
002051: 41,3201           30145                           CA       NOUNADD                               #  NOUNADD NOW SET FOR MINOR PART
002052: 41,3202           26117                           ADS      DECOUNT                               #  (ESUBK)+1  OR  E+1  INTO DECOUNT
002053: 41,3203           34746                           CAF      ZERO                                  #  NOUNADD SET FOR MINOR PART
002054: 41,3204           50117                           INDEX    DECOUNT
002055: 41,3205           53777                           TS       0          -1                         #  ZERO MAJOR PART(ESUBK OR E)
002056: 41,3206           03225                           TC       PUTCOM2
002057:
002058: 41,3207           04302        PUTNORM            TC       SETNADD                               #  ECADR FROM NOUNCADR. SETS EB, NOUNADD.
002059: 41,3210           10777                           CCS      DECBRNCH
002060: 41,3211           03244                           TC       PUTDECSF                              #  +  DEC
002061: 41,3212           02501                           TC       DCTSTCYC                              #  +0 OCTAL
002062: 41,3213           03076                           TC       SFRUTNOR                              #  TEST IF DEC ONLY BIT = 1.  IF SO,
002063: 41,3214           02306                           TC       DPTEST                                #  ALARM AND RECYCLE. IF NOT, CONTINUE.
002064: 41,3215           03221                           TC       PUTCOM2    -4                         #  NO DP
002065: 41,3216           34746                           CAF      ZERO                                  #  DP
002066: 41,3217           54117                           TS       DECOUNT
002067: 41,3220           03200                           TC       PUTDPCOM
002068:
002069: 41,3221           30146                           CA       NNADTEM
002070: 41,3222           64744                           AD       ONE                                   #  IF NNADTEM = -1, CHANNEL TO BE SPECIFIED
002071: 41,3223           00006                           EXTEND
002072: 41,3224           13231                           BZF      CHANLOAD
002073: 41,3225           56154        PUTCOM2            XCH      MPAC
002074: 41,3226           00115                           TC       DECRET
002075:
002076: 41,3227     0776                                  EBANK=   DSPCOUNT
002077: 41,3227           02154 64101  GTSFINLC           2CADR    GTSFIN
002078:
002079:
002080:
002081: 41,3231           44750        CHANLOAD           CS       SEVEN                                 #  DONT LOAD CHAN 7. (IT = SUPERBANK).


002083: 41,3232           61016                           AD       NOUNCADR
002084: 41,3233           00006                           EXTEND
002085: 41,3234           13045                           BZF      LOADLV
002086: 41,3235           31016                           CA       NOUNCADR
002087: 41,3236           74775                           MASK     LOW9
002088: 41,3237           56154                           XCH      MPAC
002089: 41,3240           00006                           EXTEND
002090: 41,3241           50154                           INDEX    MPAC
002091: 41,3242           01000                           WRITE    0
002092: 41,3243           03045                           TC       LOADLV
002093:
002094:
002095:                                                                                                  #  PUTDECSF FINDS MIXBR AND DECOUNT STILL SET FROM PUTCOM
002096:
002097: 41,3244           03117        PUTDECSF           TC       SFCONUM                               #  2X(SF CON NUMB) IN A
002098: 41,3245           54123                           TS       SFTEMP1
002099: 41,3246           00006                           EXTEND                                         #  SWITCH BANKS TO SF CONSTANT TABLE
002100: 41,3247           33230                           DCA      GTSFINLC                              #  READING ROUTINE.
002101: 41,3250           52006                           DXCH     Z                                     #  LOADS SFTEMP1, SFTEMP2.
002102: 41,3251           50140                           INDEX    MIXBR
002103: 41,3252           03252                           TC       +0
002104: 41,3253           03256                           TC       PUTSFNOR
002105: 41,3254           03104                           TC       SFRUTMIX
002106: 41,3255           03257                           TC       PUTDCSF2
002107: 41,3256           03076        PUTSFNOR           TC       SFRUTNOR
002108:
002109: 41,3257           50000        PUTDCSF2           INDEX    A
002110: 41,3260           33262                           CAF      SFINTABR
002111: 41,3261           04631                           TC       BANKJUMP                              #  SWITCH BANKS FOR EXPANSHION ROOM
002112: 41,3262           62377        SFINTABR           CADR     GOALMCYC                              #  ALARM AND RECYCLE IF DEC LOAD
002113:                                                                                                  #  WITH OCTAL ONLY NOUN.
002114: 41,3263           61135                           CADR     BINROUND
002115: 41,3264           61037                           CADR     DEGINSF
002116: 41,3265           61125                           CADR     ARTHINSF
002117: 41,3266           61143                           CADR     DPINSF
002118: 41,3267           61170                           CADR     DPINSF2
002119: 41,3270           61447                           CADR     DSPALARM                              #  LRPOSOUT CANT BE LOADED.
002120: 41,3271           61143                           CADR     DPINSF                                #  SAME AS ARITHDP1
002121: 41,3272           65463                           CADR     HMSIN
002122: 41,3273           61447                           CADR     DSPALARM                              #  MIN/SEC CANT BE LOADED.
002123: 41,3274           61175                           CADR     DPINSF4
002124: 41,3275           61140                           CADR     ARTIN1SF
002125: 41,3276           61447                           CADR     DSPALARM                              #  2INTOUT CANT BE LOADED.
002126: 41,3277           61037                           CADR     DEGINSF                               #  TESTS AT END FOR 360-CDU
002127: 41,3300           61447                           CADR     DSPALARM                              #  RRANGOUT CANT BE LOADED.
002128: 41,3301           61447                           CADR     DSPALARM                              #  RRDOTOUT CANT BE LOADED.
002129: 41,3302                        ENDRUTIN           EQUALS
002130:
002131:                                                                                                  #  SCALE FACTORS FOR THOSE ROUTINES NEEDING THEM ARE AVAILABLE IN SFTEMP1.


002133:                                                                                                  #  ALL SFIN ROUTINES USE MPAC MPAC+1. LEAVE RESULT IN A. END WITH TC DECRET
002134:
002135:
002136: 40,3037                                           SETLOC   ENDDPDEC   +1
002137:
002138: 40,3037                                           COUNT*   $$/PIN
002139:                                                                                                  #  DEGINSF APPLIES 1000/180 = 5.55555(10) = 5.43434(8)
002140:
002141: 40,3037           07124        DEGINSF            TC       DMP                                   #  SF ROUTINE FOR DEC DEGREES
002142: 40,3040           03123                           ADRES    DEGCON1                               #  MULT BY 5.5  5(10)X2EXP-3
002143: 40,3041           10155                           CCS      MPAC       +1                         #  THIS ROUNDS OFF MPAC+1 BEFORE SHIFT
002144: 40,3042           34732                           CAF      BIT11                                 #  LEFT 3, AND CAUSES 360.00 TO OF/UF
002145: 40,3043           03045                           TC       +2                                    #  WHEN SHIFTED LEFT AND ALARM.
002146: 40,3044           44732                           CS       BIT11
002147: 40,3045           60155                           AD       MPAC       +1
002148: 40,3046           03214                           TC       2ROUND     +2
002149: 40,3047           04375                           TC       TPSL1                                 #  LEFT 1
002150: 40,3050           04375        DEGINSF2           TC       TPSL1                                 #  LEFT 2
002151: 40,3051           03223                           TC       TESTOFUF
002152: 40,3052           04375                           TC       TPSL1                                 #  RETURNS IF NO OF/UF (LEFT3)
002153: 40,3053           10154                           CCS      MPAC
002154: 40,3054           03060                           TC       SIGNFIX                               #  IF+, GO TO SIGNFIX
002155: 40,3055           03060                           TC       SIGNFIX                               #  IF +0, GO TO SIGNFIX
002156: 40,3056           40000                           COM                                            #  IF - , USE -MAGNITUDE +1
002157: 40,3057           54154                           TS       MPAC                                  #  IF -0, USE +0
002158: 40,3060           10162        SIGNFIX            CCS      MPAC+6
002159: 40,3061           03117                           TC       SGNTO1                                #  IF OVERFLOW
002160: 40,3062           03072                           TC       ENDSCALE                              #  NO OVERFLOW/UNDERFLOW
002161: 40,3063           10154                           CCS      MPAC                                  #  IF UF FORCE SIGN TO 0 EXCEPT -180
002162: 40,3064           05701                           TC       CCSHOLE
002163: 40,3065           03115                           TC       NEG180
002164: 40,3066           03067                           TC       +1
002165: 40,3067           56154                           XCH      MPAC
002166: 40,3070           74724                           MASK     POSMAX
002167: 40,3071           54154                           TS       MPAC
002168: 40,3072           50140        ENDSCALE           INDEX    MIXBR                                 #  IF ROUTINE NO. IS NOT CDU DEGREES,
002169: 40,3073           03073                           TC       +0                                    #   THEN THIS IS 360 - CDU DEGREES
002170: 40,3074           03077                           TC       +3                                    #   AND ANGLE IN MPAC MUST BE REPLACED
002171: 40,3075           03107                           TC       SFMIXCAL                              #   BY 360 DEGREES MINUS ITSELF.
002172: 40,3076           03100        MIXBACK            TC       +2
002173: 40,3077           03112                           TC       SFNORCAL
002174: 40,3100           40000        NORBACK            CS       A
002175: 40,3101           64743                           AD       BIT2
002176: 40,3102           00006                           EXTEND
002177: 40,3103           13105                           BZF      +2
002178: 40,3104           02614                           TC       360-CDU
002179: 40,3105           04626        ENDSCAL1           TC       POSTJUMP
002180: 40,3106           63225                           CADR     PUTCOM2
002181:
002182: 40,3107           04607        SFMIXCAL           TC       BANKCALL


002184: 40,3110           63104                           CADR     SFRUTMIX
002185: 40,3111           03076                           TC       MIXBACK
002186:
002187: 40,3112           04607        SFNORCAL           TC       BANKCALL
002188: 40,3113           63076                           CADR     SFRUTNOR
002189: 40,3114           03100                           TC       NORBACK
002190:
002191: 40,3115           44724        NEG180             CS       POSMAX
002192: 40,3116           03071                           TC       ENDSCALE   -1
002193:
002194: 40,3117           40154        SGNTO1             CS       MPAC                                  #  IF OF FORCE SIGN TO 1
002195: 40,3120           74724                           MASK     POSMAX
002196: 40,3121           40000                           CS       A
002197: 40,3122           03071                           TC       ENDSCALE   -1
002198:
002199: 40,3123           26161 30707  DEGCON1            2DEC     5.555555555 B-3
002200:
002201:
002202: 40,3125           07124        ARTHINSF           TC       DMP                                   #  SCALES MPAC, +1 BY SFTEMP1, SFTEMP2.
002203: 40,3126           00123                           ADRES    SFTEMP1                               #  ASSUMES POINT BETWEEN HI AND LO PARTS
002204: 40,3127           56156                           XCH      MPAC       +2                         #  OF SFCON. SHIFTS RESULTS LEFT BY 14.
002205: 40,3130           56155                           XCH      MPAC       +1                         #  (BY TAKING RESULTS FROM MPAC+1, MPAC+2)
002206: 40,3131           56154                           XCH      MPAC
002207: 40,3132           00006                           EXTEND
002208: 40,3133           13135                           BZF      BINROUND
002209: 40,3134           06020                           TC       ALMCYCLE                              #  TOO LARGE A LOAD. ALARM AND RECYCLE.
002210: 40,3135           03212        BINROUND           TC       2ROUND
002211: 40,3136           03223                           TC       TESTOFUF
002212: 40,3137           03105                           TC       ENDSCAL1                              #  RETURNS IF NO OF/UF
002213:
002214: 40,3140           07124        ARTIN1SF           TC       DMP                                   #  SCALES MPAC, +1 BY SFTEMP1, SFTEMP2.
002215: 40,3141           00123                           ADRES    SFTEMP1                               #  ROUNDS MPAC+1 INTO MPAC.
002216: 40,3142           03135                           TC       BINROUND
002217:
002218:
002219: 40,3143           07124        DPINSF             TC       DMP                                   #  SCALES MPAC, MPAC +1 BY SFTEMP1,
002220: 40,3144           00123                           ADRES    SFTEMP1                               #  SFTEMP2.  STORES LOW PART OF RESULT
002221: 40,3145           56156                           XCH      MPAC       +2                         #  IN (E SUBK) +1 OR E+1
002222: 40,3146           60000                           DOUBLE
002223: 40,3147           54156                           TS       MPAC       +2
002224: 40,3150           34746                           CAF      ZERO
002225: 40,3151           60155                           AD       MPAC       +1
002226: 40,3152           03214                           TC       2ROUND     +2
002227: 40,3153           03223                           TC       TESTOFUF
002228: 40,3154           50140                           INDEX    MIXBR                                 #  RETURNS IF NO OF/UF
002229: 40,3155           03155                           TC       +0
002230: 40,3156           03166                           TC       DPINORM
002231: 40,3157           30117                           CA       DECOUNT                               #  MIXEDNOUN
002232: 40,3160           60145        DPINCOM            AD       NOUNADD                               #      MIXED               NORMAL
002233: 40,3161           54002                           TS       Q                                     #    E SUBK            E


002235: 40,3162           56155                           XCH      MPAC       +1
002236: 40,3163           50002                           INDEX    Q
002237: 40,3164           54001                           TS       1                                     #  PLACE LOW PART IN
002238: 40,3165           03105                           TC       ENDSCAL1                              #  (E SUBK) +1    MIXED
002239:
002240: 40,3166           34746        DPINORM            CAF      ZERO                                  #  E +1         NORMAL
002241: 40,3167           03160                           TC       DPINCOM
002242:
002243:
002244: 40,3170           07124        DPINSF2            TC       DMP                                   #  ASSUMES POINT BETWEEN BITS 7-8 OF HIGH
002245: 40,3171           00123                           ADRES    SFTEMP1                               #  PART OF SF CONST. DPINSF2 SHIFTS RESULTS
002246: 40,3172           36263                           CAF      SIX                                   #  LEFT BY 7, ROUNDS MPAC+2 INTO MPAC+1
002247: 40,3173           03202                           TC       TPLEFTN                               #  SHIFT LEFT 7.
002248: 40,3174           03145                           TC       DPINSF     +2
002249:
002250:
002251: 40,3175           07124        DPINSF4            TC       DMP                                   #  ASSUMES POINT BETWEEN BITS 11-12 OF HIGH
002252: 40,3176           00123                           ADRES    SFTEMP1                               #  PART OF SF CONST. DPINSF2 SHIFTS RESULTS
002253: 40,3177           34743                           CAF      TWO                                   #  LEFT BY 3, ROUNDS MPAC+2 INTO MPAC+1.
002254: 40,3200           03202                           TC       TPLEFTN                               #  SHIFT LEFT 3.
002255: 40,3201           03145                           TC       DPINSF     +2
002256:
002257:
002258: 40,3202           56002        TPLEFTN            XCH      Q                                     #  SHIFTS MPAC, +1, +2 LEFT N. SETS OVFIND
002259: 40,3203           54124                           TS       SFTEMP2                               #  TO +1 FOR OF, -1 FOR UF.
002260: 40,3204           56002                           XCH      Q                                     #  CALL WITH N-1 IN A.
002261: 40,3205           54123        LEFTNCOM           TS       SFTEMP1                               #      LOOP TIME .37 MSEC.
002262: 40,3206           04375                           TC       TPSL1
002263: 40,3207           10123                           CCS      SFTEMP1
002264: 40,3210           03205                           TC       LEFTNCOM
002265: 40,3211           00124                           TC       SFTEMP2
002266:
002267:
002268: 40,3212           56155        2ROUND             XCH      MPAC       +1
002269: 40,3213           60000                           DOUBLE
002270: 40,3214           54155                           TS       MPAC       +1
002271: 40,3215           00002                           TC       Q                                     #  IF MPAC+1 DOES NOT OF/UF
002272: 40,3216           60154                           AD       MPAC
002273: 40,3217           54154                           TS       MPAC
002274: 40,3220           00002                           TC       Q                                     #  IF MPAC DOES NOT OF/UF
002275: 40,3221           54162                           TS       MPAC+6
002276: 40,3222           00002        2RNDEND            TC       Q
002277:
002278:
002279: 40,3223           10162        TESTOFUF           CCS      MPAC+6                                #  RETURNS IF NO OF/UF
002280: 40,3224           06020                           TC       ALMCYCLE                              #  OF   ALARM AND RECYCLE.
002281: 40,3225           00002                           TC       Q
002282: 40,3226           06020                           TC       ALMCYCLE                              #  UF   ALARM AND RECYCLE.
002283:


002285: 42,3463                                           SETLOC   ENDSPMIN   +1
002286:
002287: 42,3463                                           COUNT*   $$/PIN
002288: 42,3463           03604        HMSIN              TC       ALL3DEC                               #  IF ALL 3 WORDS WERE NOT LOADED, ALARM.
002289: 42,3464           07124                           TC       DMP                                   #  XREG, XREGLP (=HOURS) WERE ALREADY PUT
002290: 42,3465           03545                           ADRES    WHOLECON                              #  INTO MPAC, MPAC+1.
002291: 42,3466           03554                           TC       RND/TST                               #  ROUND OFF TO WHOLE HRS IN MPAC+1.
002292: 42,3467           34746                           CAF      ZERO                                  #  ALARM IF MPAC NON ZERO (G/ 16383 ).
002293: 42,3470           54156                           TS       MPAC       +2
002294: 42,3471           33547                           CAF      HRCON
002295: 42,3472           54154                           TS       MPAC
002296: 42,3473           33550                           CAF      HRCON      +1
002297: 42,3474           56155                           XCH      MPAC       +1
002298: 42,3475           07330                           TC       SHORTMP
002299: 42,3476           03565                           TC       MPACTST                               #  ALARM IF MPAC NON ZERO (G/ 745)
002300: 42,3477           52156                           DXCH     MPAC       +1                         #  STORE HOURS CONTRIBUTION
002301: 42,3500           52124                           DXCH     HITEMIN
002302: 42,3501           31003                           CA       YREG                                  #  PUT YREG, YREGLP INTO MPAC, +1.
002303: 42,3502           23006                           LXCH     YREGLP
002304: 42,3503           52155                           DXCH     MPAC
002305: 42,3504           07124                           TC       DMP
002306: 42,3505           03545                           ADRES    WHOLECON
002307: 42,3506           03554                           TC       RND/TST                               #  ROUND OFF TO WHOLE MIN IN MPAC+1
002308: 42,3507           43552                           CS       59MIN                                 #  ALARM IF MPAC NON ZERO (G/16383)
002309: 42,3510           03572                           TC       SIZETST                               #  ALARM IF MPAC+1 G/ 59MIN
002310: 42,3511           56155                           XCH      MPAC       +1
002311: 42,3512           00006                           EXTEND
002312: 42,3513           73551                           MP       MINCON                                #  LEAVES MINUTES CONTRIBUTION IN A,L
002313: 42,3514           20124                           DAS      HITEMIN                               #  ADD IN MINUTES CONTRIBUTION
002314: 42,3515           00006                           EXTEND                                         #  IF THIS DAS OVERFLOWS, G/ 745HR,39MIN
002315: 42,3516           13520                           BZF      +2
002316: 42,3517           06020                           TC       ALMCYCLE
002317: 42,3520           31004                           CA       ZREG                                  #  PUT ZREG, ZREGLP INTO MPAC, +1.
002318: 42,3521           23007                           LXCH     ZREGLP
002319: 42,3522           52155                           DXCH     MPAC
002320: 42,3523           07124                           TC       DMP
002321: 42,3524           03545                           ADRES    WHOLECON
002322: 42,3525           03554                           TC       RND/TST                               #  ROUND OFF TO WHOLE CENTI-SEC IN MPAC+1
002323: 42,3526           43553                           CS       59.99SEC                              #  ALARM IF MPAC NON ZERO (G/163.83 SEC)
002324: 42,3527           03572                           TC       SIZETST                               #  ALARM IF MPAC+1 G/59.99 SEC
002325: 42,3530           52124                           DXCH     HITEMIN                               #  ADD IN SECONDS CONTRIBUTION
002326: 42,3531           20155                           DAS      MPAC                                  #  IF THIS DAS OVERFLOWS,
002327: 42,3532           00006                           EXTEND                                         #  G/ 745 HR, 39 MIN, 14.55 SEC.
002328: 42,3533           13535                           BZF      +2
002329: 42,3534           06020                           TC       ALMCYCLE                              #  ALARM AND RECYCLE
002330: 42,3535           34746                           CAF      ZERO
002331: 42,3536           54156                           TS       MPAC       +2
002332: 42,3537           07300                           TC       TPAGREE
002333: 42,3540           52155                           DXCH     MPAC
002334: 42,3541           50145                           INDEX    NOUNADD


002336: 42,3542           52001                           DXCH     0
002337: 42,3543           04626                           TC       POSTJUMP
002338: 42,3544           63045                           CADR     LOADLV
002339:
002340: 42,3545           00006        WHOLECON           OCT      00006                                 #  (10EXP5/2EXP14)2EXP14
002341: 42,3546           03240                           OCT      03240
002342: 42,3547           00025        HRCON              OCT      00025                                 #  1 HOUR IN CENTI-SEC
002343: 42,3550           37100                           OCT      37100
002344: 42,3551           13560        MINCON             OCT      13560                                 #  1 MINUTE IN CENTI-SEC
002345: 42,3552           00073        59MIN              OCT      00073                                 #  59 AS WHOLE
002346: 42,3553           13557        59.99SEC           OCT      13557                                 #  5999 CENTI-SEC
002347:
002348: 42,3554           56156        RND/TST            XCH      MPAC       +2                         #  ROUNDS MPAC+2 INTO MPAC+1.
002349: 42,3555           60000                           DOUBLE                                         #  ALARMS IF MPAC NOT 0
002350: 42,3556           54156                           TS       MPAC       +2
002351: 42,3557           34746                           CAF      ZERO
002352: 42,3560           60155                           AD       MPAC       +1
002353: 42,3561           54155                           TS       MPAC       +1
002354: 42,3562           34746                           CAF      ZERO
002355: 42,3563           60154                           AD       MPAC                                  #  CANT OVFLOW
002356: 42,3564           56154                           XCH      MPAC
002357: 42,3565           10154        MPACTST            CCS      MPAC                                  #  ALARM IF MPAC NON ZERO
002358: 42,3566           06020                           TC       ALMCYCLE                              #  ALARM AND RECYCLE.
002359: 42,3567           00002                           TC       Q
002360: 42,3570           06020                           TC       ALMCYCLE                              #  ALARM AND RECYCLE.
002361: 42,3571           00002                           TC       Q
002362:
002363: 42,3572           54156        SIZETST            TS       MPAC       +2                         #  CALLED WITH - CON IN A
002364: 42,3573           10155                           CCS      MPAC       +1                         #  GET MAG OF MPAC+1
002365: 42,3574           64744                           AD       ONE
002366: 42,3575           13577                           TCF      +2
002367: 42,3576           64744                           AD       ONE
002368: 42,3577           60156                           AD       MPAC       +2
002369: 42,3600           00006                           EXTEND                                         #  MAG OF MPAC+1 - CON
002370: 42,3601           63603                           BZMF     +2
002371: 42,3602           06020                           TC       ALMCYCLE                              #  MAG OF MPAC+1 G/ CON. ALARM AND RECYCLE.
002372: 42,3603           00002                           TC       Q                                     #  MAG OF MPAC+1 L/= CON
002373:
002374:
002375:                                                                                                  #  ALL3DEC TESTS THAT ALL 3 WORDS ARE LOADED IN DEC (FOR HMSIN).
002376:                                                                                                  #  ALARM IF NOT.( TEST THAT BITS 3,4,5 OF DECBRNCH ARE ALL = 1)
002377: 42,3604           43611        ALL3DEC            CS       OCT34BAR                              #  GET BITS 3,4,5 IN A
002378: 42,3605           70777                           MASK     DECBRNCH                              #  GET BITS 3,4,5 OF DECBRNCH IN A
002379: 42,3606           63611                           AD       OCT34BAR                              #  BITS 3,4,5 OF DECBRNCH MUST ALL = 1
002380: 42,3607           10000                           CCS      A
002381: 42,3610           03614                           TC       FORCEV25
002382: 42,3611           77743        OCT34BAR           OCT      77743
002383: 42,3612           03614                           TC       FORCEV25
002384: 42,3613           00002                           TC       Q
002385:


002387: 42,3614           46010        FORCEV25           CS       OCT31                                 #  FORCE VERB 25 TO BE EXECUTED BY RECYCLE
002388: 42,3615           55040                           TS       VERBSAVE                              #   IN CASE OPERATOR EXECUTED A LOWER LOAD
002389: 42,3616           06020                           TC       ALMCYCLE                              #   VERB.  ALARM AND RECYCLE.
002390: 42,3617                        ENDHMSS            EQUALS
002391:


002393:                                                                                                  #  MONITOR ALLOWS OTHER KEYBOARD ACTIVITY. IT IS ENDED BY VERB TERMINATE,
002394:                                                                                                  #  VERB PROCEED WITHOUT DATA, VERB RESEQUENCE,
002395:                                                                                                  #  ANOTHER MONITOR, OR ANY NVSUB CALL THAT PASSES THE DSPLOCK (PROVIDED
002396:                                                                                                  #  THAT THE OPERATOR HAS SOMEHOW ALLOWED THE ENDING OF A MONITOR WHICH
002397:                                                                                                  #  HE HAS INITIATED THROUGH THE KEYBOARD).
002398:
002399:                                                                                                  #  MONITOR ACTION IS SUSPENDED, BUT NOT ENDED, BY ANY KEYBOARD ACTION,
002400:                                                                                                  #  EXCEPT ERROR LIGHT RESET. IT BEGINS AGAIN WHEN KEY RELEASE IS PERFORMED.
002401:                                                                                                  #  MONITOR SAVES THE NOUN AND APPROPRIATE DISPLAY VERB IN MONSAVE. IT SAVES
002402:                                                                                                  #  NOUNCADR IN MONSAVE1, IF NOUN = MACHINE CADR TO BE SPECIFIED. BIT 15 OF
002403:                                                                                                  #  MONSAVE1 IS THE KILL MONITOR SIGNAL (KILLER BIT). BIT 14 OF MONSAVE1
002404:                                                                                                  #  INDICATES THE CURRENT MONITOR WAS EXTERNALLY INITIATED (EXTERNAL
002405:                                                                                                  #  MONITOR BIT). IT IS TURNED OFF BY RELDSP AND KILMONON.
002406:
002407:                                                                                                  #  MONSAVE INDICATES IF MONITOR IS ON(+=ON, +0=OFF)
002408:                                                                                                  #  IF MONSAVE IS +, MONITOR ENTERS NO REQUEST, BUT TURNS KILLER BIT OFF.
002409:                                                                                                  #  IF MONSAVE IS +0, MONITOR ENTERS REQUEST AND TURNS KILLER BIT OFF.
002410:
002411:                                                                                                  #  NVSUB (IF EXTERNAL MONITOR BIT IS OFF), VB=PROCEED WITHOUT DATA,
002412:                                                                                                  #  VB=RESEQUENCE, AND VB=TERMINATE TURN KILL MONITOR BIT ON.
002413:
002414:                                                                                                  #  IF KILLER BIT IS ON, MONREQ ENTERS NO FURTHER REQUESTS, ZEROS MONSAVE
002415:                                                                                                  #  AND MONSAVE1 (TURNING OFF KILLER BIT AND EXTERNAL MONITOR BIT).
002416:
002417:                                                                                                  #  MONITOR DOSENT TEST FOR MATBS SINCE NVSUB CAN HANDLE INTERNAL MATBS NOW
002418: 41,3302                                           SETLOC   ENDRUTIN
002419:
002420: 41,3302                                           COUNT*   $$/PIN
002421: 41,3302           43311        MONITOR            CS       BIT15/14
002422: 41,3303           71016                           MASK     NOUNCADR
002423: 41,3304           54155        MONIT1             TS       MPAC       +1                         #  TEMP STORAGE
002424: 41,3305           40136                           CS       ENTEXIT
002425: 41,3306           64210                           AD       ENDINST
002426: 41,3307           10000                           CCS      A
002427: 41,3310           03317                           TC       MONIT2
002428: 41,3311           60000        BIT15/14           OCT      60000
002429: 41,3312           03317                           TC       MONIT2
002430: 41,3313           34727                           CAF      BIT14                                 #  EXTERNALLY INITIATED MONITOR.
002431: 41,3314           26155                           ADS      MPAC       +1                         #  SET BIT 14 FOR MONSAVE1.
002432: 41,3315           34746                           CAF      ZERO
002433: 41,3316           55021                           TS       MONSAVE2                              #  ZERO NVMONOPT OPTIONS
002434: 41,3317           36115        MONIT2             CAF      LOW7
002435: 41,3320           71000                           MASK     VERBREG
002436: 41,3321           04322                           TC       LEFT5
002437: 41,3322           54022                           TS       CYL
002438: 41,3323           40022                           CS       CYL
002439: 41,3324           56022                           XCH      CYL
002440: 41,3325           61001                           AD       NOUNREG
002441: 41,3326           54154                           TS       MPAC                                  #  TEMP STORAGE
002442: 41,3327           34746                           CAF      ZERO


002444: 41,3330           55011                           TS       DSPLOCK                               #  +0 INTO DSPLOCK SO MONITOR CAN RUN.
002445: 41,3331           11041                           CCS      CADRSTOR                              #  TURN OFF KR LITE IF CADRSTOR AND DSPLIST
002446: 41,3332           03334                           TC       +2                                    #  ARE BOTH EMPTY. (LITE COMES ON IF NEW
002447: 41,3333           04473                           TC       RELDSP1                               #  MONITOR IS KEYED IN OVER OLD MONITOR.)
002448: 41,3334           00004                           INHINT
002449: 41,3335           11017                           CCS      MONSAVE
002450: 41,3336           03343                           TC       +5                                    #  IF MONSAVE WAS +, NO REQUEST
002451: 41,3337           34744                           CAF      ONE                                   #  IF MONSAVE WAS 0, REQUEST MONREQ
002452: 41,3340           05205                           TC       WAITLIST
002453: 41,3341     0776                                  EBANK=   DSPCOUNT
002454: 41,3341           03347 62101                     2CADR    MONREQ
002455:
002456: 41,3343           52155                           DXCH     MPAC                                  #  PLACE MONITOR VERB AND NOUN INTO MONSAVE
002457: 41,3344           53020                           DXCH     MONSAVE                               #  ZERO THE KILL MONITOR BIT
002458: 41,3345           00003                           RELINT                                         #  SET UP EXTERNAL MONITOR BIT
002459: 41,3346           00136                           TC       ENTRET
002460:
002461:
002462: 41,3347           04371        MONREQ             TC       LODSAMPT                              #  CALLED BY WAITLIST
002463: 41,3350           11020                           CCS      MONSAVE1                              #  TIME IS SNATCHED IN RUPT FOR NOUN 65
002464: 41,3351           03355                           TC       +4                                    #  IF KILLER BIT = 0, ENTER REQUESTS
002465: 41,3352           03355                           TC       +3                                    #  IF KILLER BIT = 0, ENTER REQUESTS
002466: 41,3353           03366                           TC       KILLMON                               #  IF KILLER BIT = 1, NO REQUESTS
002467: 41,3354           03366                           TC       KILLMON                               #  IF KILLER BIT = 1, NO REQUESTS
002468: 41,3355           33372                           CAF      MONDEL
002469: 41,3356           05205                           TC       WAITLIST                              #  ENTER WAITLIST REQUEST FOR MONREQ
002470: 41,3357     0776                                  EBANK=   DSPCOUNT
002471: 41,3357           03347 62101                     2CADR    MONREQ
002472:
002473: 41,3361           34346                           CAF      CHRPRIO
002474: 41,3362           05063                           TC       NOVAC                                 #  ENTER EXEC REQUEST FOR MONDO
002475: 41,3363     0776                                  EBANK=   DSPCOUNT
002476: 41,3363           03373 62101                     2CADR    MONDO
002477:
002478: 41,3365           05263                           TC       TASKOVER
002479:
002480: 41,3366           34746        KILLMON            CAF      ZERO                                  #  ZERO MONSAVE AND TURN KILLER BIT OFF
002481: 41,3367           55017                           TS       MONSAVE
002482: 41,3370           55020                           TS       MONSAVE1                              #  TURN OFF KILL MONITOR BIT.
002483: 41,3371           05263                           TC       TASKOVER                              #  TURN OFF EXTERNAL MONITOR BIT.
002484: 41,3372           00144        MONDEL             OCT      144                                   #  FOR 1 SEC MONITOR INTERVALS
002485:
002486:
002487: 41,3373           11020        MONDO              CCS      MONSAVE1                              #  CALLED BY EXEC
002488: 41,3374           03400                           TC       +4                                    #  IF KILLER BIT = 0, CONTINUE
002489: 41,3375           03400                           TC       +3                                    #  IF KILLER BIT = 0, CONTINUE
002490: 41,3376           05146                           TC       ENDOFJOB                              #  IN CASE TERMINATE CAME SINCE LAST MONREQ
002491: 41,3377           05146                           TC       ENDOFJOB                              #  IN CASE TERMINATE CAME SINCE LAST MONREQ
002492: 41,3400           11011                           CCS      DSPLOCK
002493: 41,3401           03423                           TC       MONBUSY                               #  NVSUB IS BUSY


002495: 41,3402           36115                           CAF      LOW7
002496: 41,3403           71017                           MASK     MONSAVE
002497: 41,3404           02346                           TC       UPDATNN    -1                         #  PLACE NOUN INTO NOUNREG AND DISPLAY IT
002498: 41,3405           34144                           CAF      MID7
002499: 41,3406           71017                           MASK     MONSAVE                               #  CHANGE MONITOR VERB TO DISPLAY VERB
002500: 41,3407           63421                           AD       MONREF                                #  -DEC10, STARTING IN BIT8
002501: 41,3410           54023                           TS       EDOP                                  #  RIGHT 7
002502: 41,3411           30023                           CA       EDOP
002503: 41,3412           55000                           TS       VERBREG
002504: 41,3413           33422                           CAF      MONBACK                               #  SET RETURN TO PASTEVB AFTER DATA DISPLAY
002505: 41,3414           54136                           TS       ENTRET
002506: 41,3415           43311                           CS       BIT15/14
002507: 41,3416           71020                           MASK     MONSAVE1                              #  PUT ECADR INTO MPAC +2. INTMCTBS WILL
002508: 41,3417           54156                           TS       MPAC       +2                         #  DISPLAY IT AND SET NOUNCADR, NOUNADD,
002509: 41,3420           02073        ENDMONDO           TC       TESTNN                                #  EBANK.
002510:
002511:    4124                                           BLOCK    2
002512:
002513:    4000                                           SETLOC   FFTAG8
002514:    4000                                           BANK
002515:
002516:    4124                                           COUNT*   $$/PIN
002517:    4124           34144        PASTEVB            CAF      MID7
002518:    4125           71021                           MASK     MONSAVE2                              #  NVMONOPT PASTE OPTION
002519:    4126           00006                           EXTEND
002520:    4127           14131                           BZF      +2
002521:    4130           04132                           TC       PASTEOPT                              #  PASTE PLEASE VERB FOR NVMONOPT
002522:    4131           31017                           CA       MONSAVE                               #  PASTE MONITOR VERB - PASTE OPTION IS 0
002523:    4132           54023        PASTEOPT           TS       EDOP                                  #  RIGHT 7
002524:    4133           30023                           CA       EDOP                                  #  PLACE MONITOR VERB OR PLEASE VERB INTO
002525:    4134           04607                           TC       BANKCALL                              #   VERBREG AND DISPLAY IT.
002526:    4135           62366                           CADR     UPDATVB    -1
002527:    4136           34746                           CAF      ZERO                                  #  ZERO REQRET SO THAT PASTED VERBS CAN
002528:    4137           55012                           TS       REQRET                                #   BE EXECUTED BY OPERATOR.
002529:    4140           31021                           CA       MONSAVE2
002530:    4141           04246                           TC       BLANKSUB                              #  PROCESS NVMONOPT BLANK OPTION IF ANY
002531:    4142           04143                           TC       +1
002532:    4143           05146        ENDPASTE           TC       ENDOFJOB
002533:
002534:    4144           37600        MID7               OCT      37600
002535:
002536:
002537: 41,3421                                           SETLOC   ENDMONDO   +1
002538: 41,3421                                           COUNT*   $$/PIN
002539: 41,3421           75377        MONREF             OCT      75377                                 #  -DEC10, STARTING IN BIT8
002540: 41,3422           04124        MONBACK            ADRES    PASTEVB
002541:
002542: 41,3423           04365        MONBUSY            TC       RELDSPON                              #  TURN KEY RELEASE LIGHT
002543: 41,3424           05146                           TC       ENDOFJOB


002545:                                                                                                  #  DSPFMEM IS USED TO DISPLAY (IN OCTAL) ANY FIXED REGISTER.
002546:                                                                                                  #  IT IS USED WITH NOUN = MACHINE CADR TO BE SPECIFIED. THE FCADR OF THE
002547:                                                                                                  #  DESIRED LOCATION IS THEN PUNCHED IN. IT HANDLES F/F ( FCADR 4000-7777)
002548:
002549:                                                                                                  #  FOR BANKS L/E 27, THIS IS ENOUGH.
002550:
002551:                                                                                                  #  FOR BANKS G/E 30, THE THIRD COMPONENT OF NOUN 26 (PRIO, ADRES, BBCON)
002552:                                                                                                  #  MUST BE PRELOADED WITH THE DESIRED SUPERBANK BITS (BITS 5,6,7).
002553:                                                                                                  #           V23N26 SHOULD BE USED.
002554:
002555:                                                                                                  #  SUMMARY
002556:                                                                                                  #  FOR BANKS L/E 27,                          V27N01E(FCADR)E
002557:                                                                                                  #  FOR BANKS G/E 30,    V23N26E(SUPERBITS)E   V27N01E(FCADR)E
002558:
002559: 41,3425           34310        DSPFMEM            CAF      R1D1                                  #  IF F/F, DATACALL USES BANK 02 OR 03.
002560: 41,3426           54776                           TS       DSPCOUNT
002561: 41,3427           31046                           CA       DSPTEM1    +2                         #  SUPERBANK BITS WERE PRELOADED INTO
002562: 41,3430           54001                           TS       L                                     #  3RD COMPONENT OF NOUN 26.
002563: 41,3431           31016                           CA       NOUNCADR                              #  ORIGINAL FCADR LOADED STILL IN NOUNCADR.
002564: 41,3432           04642                           TC       SUPDACAL                              #  CALL WITH FCADR IN A, SUPERBITS IN L.
002565: 41,3433           03435                           TC       DSPOCTWO
002566: 41,3434           05146        ENDSPF             TC       ENDOFJOB
002567:


002569:                                                                                                  #  WORD DISPLAY ROUTINES
002570: 40,3227                                           SETLOC   TESTOFUF   +4
002571: 40,3227                                           COUNT*   $$/PIN
002572: 40,3227           56002        DSPSIGN            XCH      Q
002573: 40,3230           54144                           TS       DSPWDRET
002574: 40,3231           10154                           CCS      MPAC
002575: 40,3232           03242                           TC       +8D
002576: 40,3233           03242                           TC       +7
002577: 40,3234           64744                           AD       ONE
002578: 40,3235           54154                           TS       MPAC
002579: 40,3236           02422                           TC       -ON
002580: 40,3237           40155                           CS       MPAC       +1
002581: 40,3240           54155                           TS       MPAC       +1
002582: 40,3241           00144                           TC       DSPWDRET
002583: 40,3242           02402                           TC       +ON
002584: 40,3243           00144                           TC       DSPWDRET
002585:
002586: 40,3244           00006        DSPRND             EXTEND                                         #  ROUND BY 5 EXP-6
002587: 40,3245           33310                           DCA      DECROUND   -1
002588: 40,3246           20155                           DAS      MPAC
002589: 40,3247           00006                           EXTEND
002590: 40,3250           13254                           BZF      +4
002591: 40,3251           00006                           EXTEND
002592: 40,3252           34724                           DCA      DPOSMAX
002593: 40,3253           52155                           DXCH     MPAC
002594: 40,3254           00002                           TC       Q
002595:
002596:                                                                                                  #  DSPDECWD CONVERTS C( MPAC, MPAC+1) INTO A SIGN AND 5 CHAR DECIMAL
002597:                                                                                                  #  STARTING IN LOC SPECIFIED IN DSPCOUNT. IT ROUNDS BY 5 EXP-6.
002598:
002599: 40,3255           56002        DSPDECWD           XCH      Q
002600: 40,3256           54115                           TS       WDRET
002601: 40,3257           03227                           TC       DSPSIGN
002602: 40,3260           03244                           TC       DSPRND
002603: 40,3261           34742                           CAF      FOUR
002604: 40,3262           54137        DSPDCWD1           TS       WDCNT
002605: 40,3263           34354                           CAF      BINCON
002606: 40,3264           07330                           TC       SHORTMP
002607: 40,3265           50154        TRACE1             INDEX    MPAC
002608: 40,3266           34066                           CAF      RELTAB
002609: 40,3267           74337                           MASK     LOW5
002610: 40,3270           54124                           TS       CODE
002611: 40,3271           34746                           CAF      ZERO
002612: 40,3272           56156                           XCH      MPAC       +2
002613: 40,3273           56155                           XCH      MPAC       +1
002614: 40,3274           54154                           TS       MPAC
002615: 40,3275           56776                           XCH      DSPCOUNT
002616: 40,3276           54143        TRACE1S            TS       COUNT
002617: 40,3277           10000                           CCS      A                                     #  DECREMENT DSPCOUNT EXCEPT AT +0


002619: 40,3300           54776                           TS       DSPCOUNT
002620: 40,3301           03351                           TC       DSPIN
002621: 40,3302           10137                           CCS      WDCNT
002622: 40,3303           03262                           TC       DSPDCWD1
002623: 40,3304           44351                           CS       VD1
002624: 40,3305           54776                           TS       DSPCOUNT
002625: 40,3306           00115                           TC       WDRET
002626:
002627: 40,3307           00000                           OCT      00000
002628: 40,3310           02476        DECROUND           OCT      02476
002629:
002630:                                                                                                  #  DSPDECNR CONVERTS C( MPAC,MPAC+1) INTO A SIGN AND 5 CHAR DECIMAL
002631:                                                                                                  #  STARTING IN LOC SPECIFIED IN DSPCOUNT. IT DOES NOT ROUND
002632:
002633: 40,3311           56002        DSPDECNR           XCH      Q
002634: 40,3312           54115                           TS       WDRET
002635: 40,3313           03227                           TC       DSPSIGN
002636: 40,3314           03261                           TC       DSPDCWD1   -1
002637:
002638:                                                                                                  #  DSPDC2NR CONVERTS C( MPAC,MPAC+1) INTO A SIGN AND 2 CHAR DECIMAL
002639:                                                                                                  #  STARTING IN LOC SPECIFIED IN DSPCOUNT. IT DOES NOT ROUND
002640:
002641: 40,3315           56002        DSPDC2NR           XCH      Q
002642: 40,3316           54115                           TS       WDRET
002643: 40,3317           03227                           TC       DSPSIGN
002644: 40,3320           34744                           CAF      ONE
002645: 40,3321           03262                           TC       DSPDCWD1
002646:
002647:
002648:                                                                                                  #  DSP2DEC CONVERTS C(MPAC) AND C(MPAC+1) INTO A SIGN AND 10 CHAR DECIMAL
002649:                                                                                                  #  STARTING IN THE LOC SPECIFIED IN DSPCOUNT.
002650:
002651: 40,3322           56002        DSP2DEC            XCH      Q
002652: 40,3323           54115                           TS       WDRET
002653: 40,3324           34746                           CAF      ZERO
002654: 40,3325           54124                           TS       CODE
002655: 40,3326           36266                           CAF      THREE
002656: 40,3327           03433                           TC       11DSPIN                               #  -R2 OFF
002657: 40,3330           34742                           CAF      FOUR
002658: 40,3331           03433                           TC       11DSPIN                               #  +R2 OFF
002659: 40,3332           03227                           TC       DSPSIGN
002660: 40,3333           34311                           CAF      R2D1
002661: 40,3334           03262        END2DEC            TC       DSPDCWD1
002662:
002663:                                                                                                  #  DSPDECVN DISPLAYS C(A) UPON ENTRY AS A 2 CHAR DECIMAL BEGINNING IN THE
002664:                                                                                                  #  DSP LOC SPECIFIED IN DSPCOUNT.
002665:                                                                                                  #  C(A) SHOULD BE IN FORM N X 2EXP-14. THIS IS SCALED TO FORM N/100 BEFORE
002666:                                                                                                  #  DISPLAY CONVERSION.
002667:


002669: 40,3335           00006        DSPDECVN           EXTEND
002670: 40,3336           73345                           MP       VNDSPCON                              #  MULT BY .01
002671: 40,3337           22154                           LXCH     MPAC                                  #  TAKE RESULTS FROM L.(MULT BY 2EXP14).
002672: 40,3340           34746                           CAF      ZERO
002673: 40,3341           54155                           TS       MPAC       +1
002674: 40,3342           56002                           XCH      Q
002675: 40,3343           54115                           TS       WDRET
002676: 40,3344           03320                           TC       DSPDC2NR   +3                         #  NO SIGN, NO ROUND, 2 CHAR
002677:
002678: 40,3345           00244        VNDSPCON           OCT      00244                                 #  .01 ROUNDED UP
002679:
002680:
002681: 40,3346           03335        GOVNUPDT           TC       DSPDECVN                              #  THIS IS NOT FOR GENERAL USE. REALLY PART
002682: 40,3347           04626                           TC       POSTJUMP                              #  OF UPDATVB.
002683: 40,3350           62376                           CADR     UPDAT1     +2
002684:
002685: 40,3351                        ENDECVN            EQUALS
002686:
002687:
002688: 41,3435                                           SETLOC   ENDSPF     +1
002689: 41,3435                                           COUNT*   $$/PIN
002690:                                                                                                  #  DSPOCTWD DISPLAYS C(A) UPON ENTRY AS A 5 CHAR OCT STARTING IN THE DSP
002691:                                                                                                  #  CHAR SPECIFIED IN DSPCOUNT. IT STOPS AFTER 5 CHAR HAVE BEEN DISPLAYED.
002692:
002693: 41,3435           54022        DSPOCTWO           TS       CYL
002694: 41,3436           56002                           XCH      Q
002695: 41,3437           54115                           TS       WDRET                                 #  MUST USE SAME RETURN AS DSP2BIT.
002696: 41,3440           34727                           CAF      BIT14                                 #  TO BLANK SIGNS
002697: 41,3441           26776                           ADS      DSPCOUNT
002698: 41,3442           34742                           CAF      FOUR
002699: 41,3443           54137        WDAGAIN            TS       WDCNT
002700: 41,3444           40022                           CS       CYL
002701: 41,3445           40022                           CS       CYL
002702: 41,3446           40022                           CS       CYL
002703: 41,3447           40000                           CS       A
002704: 41,3450           74750                           MASK     DSPMSK
002705: 41,3451           50000                           INDEX    A
002706: 41,3452           34066                           CAF      RELTAB
002707: 41,3453           74337                           MASK     LOW5
002708: 41,3454           54124                           TS       CODE
002709: 41,3455           56776                           XCH      DSPCOUNT
002710: 41,3456           54143                           TS       COUNT
002711: 41,3457           10000                           CCS      A                                     #  DECREMENT DSPCOUNT EXCEPT AT +0
002712: 41,3460           54776                           TS       DSPCOUNT
002713: 41,3461           04626                           TC       POSTJUMP
002714: 41,3462           61441                           CADR     DSPOCTIN
002715: 41,3463           10137        OCTBACK            CCS      WDCNT
002716: 41,3464           03443                           TC       WDAGAIN                               #  +
002717: 41,3465           44351        DSPLV              CS       VD1                                   #  TO BLOCK NUMERICAL CHARACTERS, CLEARS,
002718: 41,3466           54776                           TS       DSPCOUNT                              #  AND SIGNS AFTER A COMPLETED DISPLAY.


002720: 41,3467           00115                           TC       WDRET
002721:
002722: 41,3470     4750               DSPMSK             =        SEVEN
002723:
002724:
002725:                                                                                                  #  FOR DSPIN PLACE 0/25 OCT INTO COUNT, 5 BIT RELAY CODE INTO CODE. BOTH
002726:                                                                                                  #  ARE DESTROYED. IF BIT14 OF COUNT IS 1, SIGN IS BLANKED WITH LEFT CHAR.
002727:                                                                                                  #  FOR DSPIN1 PLACE 0,1 INTO BIT11 OF CODE, 2 INTO COUNT, REL ADDRESS OF
002728:                                                                                                  #  DSPTAB ENTRY INTO DSREL.
002729:
002730: 40,3351                                           SETLOC   ENDECVN
002731:
002732: 40,3351                                           COUNT*   $$/PIN
002733: 40,3351           56002        DSPIN              XCH      Q                                     #  CANT USE L FOR RETURN, SINCE MANY OF THE
002734: 40,3352           54114                           TS       DSEXIT                                #  ROUTINES CALLING DSPIN USE L AS RETURN.
002735: 40,3353           34337                           CAF      LOW5
002736: 40,3354           70143                           MASK     COUNT
002737: 40,3355           54021                           TS       SR
002738: 40,3356           56021                           XCH      SR
002739: 40,3357           54141                           TS       DSREL
002740: 40,3360           34744                           CAF      BIT1
002741: 40,3361           70143                           MASK     COUNT
002742: 40,3362           10000                           CCS      A
002743: 40,3363           03365                           TC       +2                                    #  LEFT IF COUNT IS ODD
002744: 40,3364           03375                           TC       DSPIN1     -1                         #  RIGHT IF COUNT IS EVEN
002745: 40,3365           56124                           XCH      CODE
002746: 40,3366           04331                           TC       SLEFT5                                #  DOES NOT USE CYL
002747: 40,3367           54124                           TS       CODE
002748: 40,3370           34727                           CAF      BIT14
002749: 40,3371           70143                           MASK     COUNT
002750: 40,3372           10000                           CCS      A
002751: 40,3373           34743                           CAF      TWO                                   #  BIT14 = 1, BLANK SIGN
002752: 40,3374           64744                           AD       ONE                                   #  BIT14 = 0, LEAVE SIGN ALONE
002753: 40,3375           54143                           TS       COUNT                                 #  +0 INTO COUNT FOR RIGHT
002754:                                                                                                  #  +1 INTO COUNT FOR LEFT(SIGN LEFT ALONE)
002755:                                                                                                  #  +3 INTO COUNT FOR LEFT(TO BLANK SIGN)
002756: 40,3376           00004        DSPIN1             INHINT
002757: 40,3377           50141                           INDEX    DSREL
002758: 40,3400           11022                           CCS      DSPTAB
002759: 40,3401           03403                           TC       +2                                    #  IF +
002760: 40,3402           05701                           TC       CCSHOLE
002761: 40,3403           64744                           AD       ONE                                   #  IF-
002762: 40,3404           54142                           TS       DSMAG
002763: 40,3405           50143                           INDEX    COUNT
002764: 40,3406           73427                           MASK     DSMSK
002765: 40,3407           00006                           EXTEND
002766: 40,3410           60124                           SU       CODE
002767: 40,3411           00006                           EXTEND
002768: 40,3412           13425                           BZF      DSLV                                  #  SAME
002769: 40,3413           50143        DFRNT              INDEX    COUNT


002771: 40,3414           43427                           CS       DSMSK                                 #  MASK WITH 77740,76037,75777, OR 74037
002772: 40,3415           70142                           MASK     DSMAG
002773: 40,3416           60124                           AD       CODE
002774: 40,3417           40000                           CS       A
002775: 40,3420           50141                           INDEX    DSREL
002776: 40,3421           57022                           XCH      DSPTAB
002777: 40,3422           00006                           EXTEND
002778: 40,3423           63425                           BZMF     DSLV                                  #  DSPTAB ENTRY WAS -
002779: 40,3424           25015                           INCR     NOUT                                  #  DSPTAB ENTRY WAS +
002780: 40,3425           00003        DSLV               RELINT
002781: 40,3426           00114                           TC       DSEXIT
002782:
002783: 40,3427           00037        DSMSK              OCT      37
002784: 40,3430           01740                           OCT      1740
002785: 40,3431           02000                           OCT      2000
002786: 40,3432           03740                           OCT      3740
002787:
002788:
002789:                                                                                                  #  FOR 11DSPIN, PUT REL ADDRESSS OF DSPTAB ENTRY INTO A, 1 IN BIT11 OR 0 IN
002790:                                                                                                  #  BIT11 OF CODE.
002791:
002792: 40,3433           54141        11DSPIN            TS       DSREL
002793: 40,3434           34743                           CAF      TWO
002794: 40,3435           54143                           TS       COUNT
002795: 40,3436           56002                           XCH      Q                                     #  MUST USE SAME RETURN AS DSPIN
002796: 40,3437           54114                           TS       DSEXIT
002797: 40,3440           03376                           TC       DSPIN1
002798:
002799:
002800: 40,3441           03351        DSPOCTIN           TC       DSPIN                                 #  SO DSPOCTWD DOESNT USE SWCALL
002801: 40,3442           33444                           CAF      +2
002802: 40,3443           04631                           TC       BANKJUMP
002803: 40,3444           63463        ENDSPOCT           CADR     OCTBACK
002804:
002805:
002806:                                                                                                  #  DSPALARM FINDS TC NVSUBEND IN ENTRET FOR NVSUB INITIATED ROUTINES.
002807:                                                                                                  #  ABORT WITH 01501.
002808:                                                                                                  #  DSPALARM FINDS TC ENDOFJOB IN ENTRET FOR KEYBOARD INITIATED ROUTINES.
002809:                                                                                                  #  DC TC ENTRET.
002810:
002811: 40,3445           44351        PREDSPAL           CS       VD1
002812: 40,3446           54776                           TS       DSPCOUNT
002813: 40,3447           43470        DSPALARM           CS       NVSBENDL
002814: 40,3450           60136                           AD       ENTEXIT
002815: 40,3451           00006                           EXTEND
002816: 40,3452           13465                           BZF      CHARALRM   +2
002817: 40,3453           43467                           CS       MONADR                                #  IF THIS IS A MONITOR, KILL IT
002818: 40,3454           60136                           AD       ENTEXIT
002819: 40,3455           00006                           EXTEND
002820: 40,3456           13460                           BZF      +2


002822: 40,3457           03463                           TC       CHARALRM
002823: 40,3460           04175                           TC       KILMONON
002824: 40,3461           04355                           TC       FALTON
002825: 40,3462           04124                           TC       PASTEVB                               #  PUT MONITOR VERB BACK IN VERBREG
002826: 40,3463           04355        CHARALRM           TC       FALTON                                #  NOT NVSUB INITIATED. TURN ON OPR ERROR
002827: 40,3464           05146                           TC       ENDOFJOB
002828: 40,3465           05644                           TC       POODOO
002829: 40,3466           21501                           OCT      21501
002830: 40,3467           04124        MONADR             GENADR   PASTEVB
002831: 40,3470           04173        NVSBENDL           TC       NVSUBEND
002832:
002833:
002834:                                                                                                  #  ALMCYCLE TURNS ON CHECK FAIL LIGHT, REDISPLAYS THE ORIGINAL VERB THAT
002835:                                                                                                  #  WAS EXECUTED, AND RECYCLES TO EXECUTE THE ORIGINAL VERB/NOUN COMBINATION
002836:                                                                                                  #  THAT WAS LAST EXECUTED. USED FOR BAD DATA DURING LOAD VERBS AND BY
002837:                                                                                                  #  MCTBS. ALSO BY MMCHANG IF 2 NUMERICAL CHARACTERS WERE NOT PUNCHED IN
002838:                                                                                                  #  FOR MM CODE.
002839:
002840:    6000                                           SETLOC   FFTAG5
002841:    6000                                           BANK
002842:    6020                                           COUNT*   $$/PIN
002843:    6020           04355        ALMCYCLE           TC       FALTON                                #  TURN ON CHECK FAIL LIGHT.
002844:    6021           41040                           CS       VERBSAVE                              #  GET ORIGINAL VERB THAT WAS EXECUTED
002845:    6022           55012                           TS       REQRET                                #  SET FOR ENTPAS0
002846:    6023           04607                           TC       BANKCALL                              #  PUTS ORIGINAL VERB INTO VERBREG AND
002847:    6024           62366                           CADR     UPDATVB    -1                         #  DISPLAYS IT IN VERB LIGHTS.
002848:    6025           04626                           TC       POSTJUMP
002849:    6026           62022        ENDALM             CADR     ENTER
002850:
002851:
002852:                                                                                                  #  MMCHANG USES NOUN DISPLAY UNTIL ENTER. THEN IT USES MODE DISP.
002853:                                                                                                  #  IT GOES TO MODROUT WITH THE NEW M M CODE IN A, BUT NOT DISPLAYED IN
002854:                                                                                                  #  MM LIGHTS.
002855:                                                                                                  #  IT DEMANDS 2 NUMERICAL CHARACTERS BE PUNCHED IN FOR NEW MM CODE.
002856:                                                                                                  #  IF NOT, IT RECYCLES.
002857:
002858: 41,3470                                           SETLOC   DSPLV      +3
002859: 41,3470                                           COUNT*   $$/PIN
002860: 41,3470           03512        MMCHANG            TC       REQMM                                 #  ENTPASHI ASSUMES THE TC REQMM AT MMCHANG
002861:                                                                                                  #  IF THIS MOVES AT ALL, MUST CHANGE
002862:                                                                                                  #  MMADREF AT ENTPASHI.
002863: 41,3471           34740                           CAF      BIT5                                  #  OCT20 = ND2.
002864: 41,3472           60776                           AD       DSPCOUNT                              #  DSPCOUNT MUST = -ND2.
002865: 41,3473           00006                           EXTEND                                         #  DEMAND THAT 2 NUM CHAR WERE PUNCHED IN.
002866: 41,3474           13476                           BZF      +2
002867: 41,3475           06020                           TC       ALMCYCLE                              #  DSPCOUNT NOT= -ND2. ALARM AND RECYCLE.
002868: 41,3476           34746                           CAF      ZERO                                  #  DSPCOUNT = -ND2.
002869: 41,3477           57001                           XCH      NOUNREG
002870: 41,3500           54154                           TS       MPAC
002871: 41,3501           34352                           CAF      ND1


002873: 41,3502           54776                           TS       DSPCOUNT
002874: 41,3503           04607                           TC       BANKCALL
002875: 41,3504           60570                           CADR     2BLANK
002876: 41,3505           44351                           CS       VD1                                   #  BLOCK NUM CHAR IN
002877: 41,3506           54776                           TS       DSPCOUNT
002878: 41,3507           30154                           CA       MPAC
002879: 41,3510           04626                           TC       POSTJUMP
002880: 41,3511           10054                           CADR     MODROUTB                              #  GO THRU STANDARD LOC.
002881:
002882:
002883: 41,3512  04,2054               MODROUTB           =        V37
002884: 41,3512           40002        REQMM              CS       Q
002885: 41,3513           55012                           TS       REQRET
002886: 41,3514           34352                           CAF      ND1
002887: 41,3515           54776                           TS       DSPCOUNT
002888: 41,3516           34746                           CAF      ZERO
002889: 41,3517           55001                           TS       NOUNREG
002890: 41,3520           04607                           TC       BANKCALL
002891: 41,3521           60570                           CADR     2BLANK
002892: 41,3522           04420                           TC       FLASHON
002893: 41,3523           34744                           CAF      ONE
002894: 41,3524           54777                           TS       DECBRNCH                              #  SET FOR DEC
002895: 41,3525           00136                           TC       ENTEXIT
002896:
002897:
002898:                                                                                                  #  VBRQEXEC ENTERS REQUEST TO EXEC     FOR ANY ADDRESS WITH ANY PRIORITY.
002899:                                                                                                  #  IT DOES ENDOFJOB AFTER ENTERING REQUEST. DISPLAY SYST IS RELEASED.
002900:                                                                                                  #  IT ASSUMES NOUN 26 HAS BEEN PRELOADED WITH
002901:                                                                                                  #  COMPONENT 1  PRIORITY(BITS 10-14) BIT1=0 FOR NOVAC, BIT1=1 FOR FINDVAC.
002902:                                                                                                  #  COMPONENT 2  JOB ADRES (12 BIT )
002903:                                                                                                  #  COMPONENT 3  BBCON
002904:
002905: 41,3526           34732        VBRQEXEC           CAF      EBANK4
002906: 41,3527           54003                           TS       EBANK
002907: 41,3530  E4,1771                                  EBANK=   N26/PRI
002908:
002909: 41,3530           34744                           CAF      BIT1
002910: 41,3531           71771                           MASK     N26/PRI
002911: 41,3532           10000                           CCS      A
002912: 41,3533           03555                           TC       SETVAC                                #  IF BIT1 = 1, FINDVAC
002913: 41,3534           34342                           CAF      TCNOVAC                               #  IF BIT1 = 0, NOVAC
002914: 41,3535           54154        REQEX1             TS       MPAC                                  #  TC NOVAC  OR  TC FINDVAC INTO MPAC
002915: 41,3536           44744                           CS       BIT1
002916: 41,3537           71771                           MASK     N26/PRI
002917: 41,3540           54160                           TS       MPAC       +4                         #  PRIO INTO MPAC+4 AS A TEMP
002918: 41,3541           04450        REQUESTC           TC       RELDSP
002919: 41,3542           31771                           CA       N26/PRI
002920: 41,3543           00006                           EXTEND
002921: 41,3544           12400                           BZF      GODSPALM                              #  OP ERROR AND EOJ IF ZERO PRIO/DELAY
002922: 41,3545           34210                           CA       ENDINST


002924: 41,3546           54157                           TS       MPAC       +3                         #  TC ENDOFJOB INTO MPAC+3
002925: 41,3547           00006                           EXTEND
002926: 41,3550           31773                           DCA      N26/2CAD                              #  JOB ADRES INTO MPAC+1
002927: 41,3551           52156                           DXCH     MPAC       +1                         #  BBCON INTO MPAC+2
002928: 41,3552           30160                           CA       MPAC       +4                         #  PRIO IN A
002929: 41,3553           00004                           INHINT
002930: 41,3554           00154                           TC       MPAC
002931:
002932: 41,3555           34345        SETVAC             CAF      TCFINDVC
002933: 41,3556           03535                           TC       REQEX1
002934:
002935:                                                                                                  #  VBRQWAIT ENTERS REQUEST TO WAITLIST FOR ANY ADDRESS WITH ANY DELAY.
002936:                                                                                                  #  IT DOES ENDOFJOB AFTER ENTERING REQUEST.DISPLAY SYST IS RELEASED.
002937:                                                                                                  #  IT ASSUMES NOUN 26 HAS BEEN PRELOADED WITH
002938:                                                                                                  #  COMPONENT 1  DELAY (LOW BITS)
002939:                                                                                                  #  COMPONENT 2  TASK ADRES (12 BIT)
002940:                                                                                                  #  COMPONENT 3  BBCON
002941:
002942: 41,3557           34343        VBRQWAIT           CAF      TCWAIT
002943: 41,3560           54154                           TS       MPAC                                  #  TC WAITLIST INTO MPAC
002944: 41,3561           34732                           CAF      EBANK4
002945: 41,3562           54003                           TS       EBANK
002946: 41,3563           31771                           CA       N26/PRI                               #  TIME DELAY
002947: 41,3564           03540        ENDRQWT            TC       REQUESTC   -1
002948:
002949:                                                                                                  #  REQUESTC WILL PUT TASK ADRES INTO MPAC+1, BBCON INTO MPAC+2,
002950:                                                                                                  #  TC ENDOFJOB INTO MPAC+3. IT WILL TAKE TIME DELAY OUT OF MPAC+4 AND
002951:                                                                                                  #  LEAVE IT IN A, INHINT AND TC MPAC.
002952:
002953:
002954: 40,3471                                           SETLOC   NVSBENDL   +1
002955: 40,3471                                           COUNT*   $$/PIN
002956: 40,3471           34744        VBPROC             CAF      ONE                                   #  PROCEED WITHOUT DATA
002957: 40,3472           55013                           TS       LOADSTAT
002958: 40,3473           04175                           TC       KILMONON                              #  TURN ON KILL MONITOR BIT
002959: 40,3474           04450                           TC       RELDSP
002960: 40,3475           04424                           TC       FLASHOFF
002961: 40,3476           03605                           TC       RECALTST                              #  SEE IF THERE IS ANY RECALL FROM ENDIDLE
002962:
002963:
002964: 40,3477           44744        VBTERM             CS       ONE
002965: 40,3500           03472                           TC       VBPROC     +1                         #  TERM VERB SETS LOADSTAT NEG
002966:
002967:
002968:                                                                                                  #  PROCKEY PERFORMS THE SAME FUNCTION AS VBPROC.  IT MUST BE CALLED UNDER
002969:                                                                                                  #  EXECUTIVE CONTROL, WITH CHRPRIO.
002970: 40,3501           41000        PROCKEY            CS       VERBREG                               #  DONT ALLOW PROCEED DURING LOAD.
002971: 40,3502           63516                           AD       VBSP2LD*                              #  DEC 22
002972: 40,3503           00006                           EXTEND
002973: 40,3504           26000                           DIM      A


002975: 40,3505           00006                           EXTEND
002976: 40,3506           13463                           BZF      CHARALRM
002977: 40,3507           34746        PROCKEY1           CAF      ZERO                                  #  SET REQRET FOR ENTER PASS 0.
002978: 40,3510           55012                           TS       REQRET
002979: 40,3511           44351                           CS       VD1                                   #  BLOCK NUMERICAL CHARACTERS, SIGNS, CLEAR
002980: 40,3512           54776                           TS       DSPCOUNT
002981: 40,3513           03471                           TC       VBPROC
002982:
002983:
002984:                                                                                                  #  VBRESEQ WAKES ENDIDLE AT SAME LINE AS FINAL ENTER OF LOAD (L+3).
002985:                                                                                                  #  (MAIN USE IS INTENDED AS RESPONSE TO INTERNALLY INITIATED FLASHING
002986:                                                                                                  #   DISPLAYS IN ENDIDLE. SHOULD NOT BE USED WITH LOAD VERBS,PLEASE PERFORM,
002987:                                                                                                  #   OR PLEASE MARK VERBS BECAUSE THEY ALREADY USE L+3 IN ANOTHER CONTEXT.)
002988:
002989: 40,3514           44746        VBRESEQ            CS       ZERO                                  #  MAKE IT LOOK LIKE DATA IN.
002990: 40,3515           03472                           TC       VBPROC     +1
002991:
002992:
002993: 40,3516           00026        VBSP2LD*           DEC      22         B-14                       #  VB22 = BLOAD
002994:
002995:                                                                                                  #  FLASH IS TURNED OFF BY PROCEED WITHOUT DATA, TERMINATE, RESEQUENCE,
002996:                                                                                                  #  END OF LOAD.
002997:


002999:                                                                                                  #  KEY RELEASE ROUTINE
003000:
003001:                                                                                                  #  THIS ROUTINE ALWAYS TURNS OFF THE UPACT LIGHT AND ALWAYS CLEARS DSPLOCK.
003002:
003003:                                                                                                  #  THE HIGHEST PRIORITY FUNCTION OF THE KEY RELEASE BUTTON IS THE
003004:                                                                                                  #  UNSUSPENDING OF A SUSPENDED MONITOR WHICH WAS EXTERNALLY INITIATED.
003005:                                                                                                  #  THIS FUNCTION IS ACCOMPLISHED BY CLEARING DSPLOCK AND TURNING OFF
003006:                                                                                                  #  THE KEY RELEASE LIGHT IF BOTH DSPLIST AND CADRSTOR ARE EMPTY.
003007:
003008:                                                                                                  #  IF NO SUCH MONITOR EXISTS, THEN RELDSP IS EXECUTED TO CLEAR DSPLOCK
003009:                                                                                                  #  AND THE EXTERNAL MONITOR BIT (FREEING THE DISPLAY SYSTEM FOR INTERNAL
003010:                                                                                                  #  USE), TURN OFF THE KEY RELEASE LIGHT, AND WAKE UP ANY JOB IN DSPLIST.
003011:
003012:                                                                                                  #  IN ADDITION IF THERE IS A JOB IN ENDIDLE, THEN CONTROL IS TRANSFERRED
003013:                                                                                                  #  TO PINBRNCH (IN DISPLAY INTERFACE ROUTINE) TO RE-EXECUTE THE SERIES OF
003014:                                                                                                  #  NVSUB CALLS ETC. THAT PRECEDED THE ENDIDLE CALL STILL AWAITING RESPONSE.
003015:                                                                                                  #  THIS FEATURE IS INTENDED FOR USE WHEN THE OPERATOR HAS BEEN REQUESTED TO
003016:                                                                                                  #  RESPOND TO SOME INTERNAL ACTION THAT USED ENDIDLE, BUT HE HAS WRITTEN
003017:                                                                                                  #  OVER THE INFORMATION ON THE DISPLAY PANEL BY SOME DISPLAYS OF HIS OWN
003018:                                                                                                  #  INITIATION WHICH DO NOT SERVE AS RESPONSES. HITTING KEY RLSE WILL
003019:                                                                                                  #  RE-ESTABLISH THE DISPLAYS TO THE STATE THEY WERE IN BEFORE HE OBSCURED
003020:                                                                                                  #  THEM, SO THAT HE CAN SEE THE WAITING REQUEST.  THIS WORKS ONLY FOR
003021:                                                                                                  #  INTERNAL PROGRAMS THAT USED ENDIDLE THROUGH MARGARETS DISPLAY
003022:                                                                                                  #  SUBROUTINES.
003023:
003024: 40,3517           44742        VBRELDSP           CS       BIT3
003025: 40,3520           00006                           EXTEND
003026: 40,3521           03011                           WAND     DSALMOUT                              #  TURN OFF UPACT LITE
003027: 40,3522           10115                           CCS      21/22REG                              #  OLD DSPLOCK
003028: 40,3523           34727                           CAF      BIT14
003029: 40,3524           71020                           MASK     MONSAVE1                              #  EXTERNAL MONITOR BIT (EMB)
003030: 40,3525           10000                           CCS      A
003031: 40,3526           03535                           TC       UNSUSPEN                              #  OLD DSPLOCK AND EMB BOTH 1, UNSUSPEND.
003032: 40,3527           04450        TSTLTS4            TC       RELDSP                                #  NOT UNSUSPENDING EXTERNAL MONITOR,
003033: 40,3530           11041                           CCS      CADRSTOR                              #   RELEASE DISPLAY SYSTEM AND
003034: 40,3531           03533                           TC       +2                                    #   DO RE-ESTABLISH IF CADRSTOR IS FULL.
003035: 40,3532           05146                           TC       ENDOFJOB
003036: 40,3533           04626                           TC       POSTJUMP
003037: 40,3534           21062                           CADR     PINBRNCH
003038: 40,3535           34746        UNSUSPEN           CAF      ZERO                                  #  EXTERNAL MONITOR IS SUSPENDED,
003039: 40,3536           55011                           TS       DSPLOCK                               #   JUST UNSUSPEND IT BY CLEARING DSPLOCK.
003040: 40,3537           11041                           CCS      CADRSTOR                              #   TURN KEY RELEASE LIGHT OFF IF BOTH
003041: 40,3540           05146                           TC       ENDOFJOB                              #   CADRSTOR AND DSPLIST ARE EMPTY.
003042: 40,3541           04473                           TC       RELDSP1
003043: 40,3542           05146                           TC       ENDOFJOB
003044:
003045: 40,3543                        ENDRELDS           EQUALS
003046:


003048:                                                                                                  #  NVSUB IS USED FOR SUB ROUTINE CALLS FROM WITHIN COMPUTER. IT CAN BE
003049:                                                                                                  #  USED TO CALL THE COMBINATION OF ANY DISPLAY, LOAD, OR MONITOR VERB
003050:                                                                                                  #  TOGETHER WITH ANY NOUN AVAILABLE TO THE KEYBOARD.
003051:                                                                                                  #  PLACE 0VVVVVVVNNNNNNN INTO A.
003052:                                                                                                  #  V-S ARE THE 7 BIT VERB CODE.  N-S ARE THE 7 BIT NOUN CODE.
003053:
003054:                                                                                                  #  IF NVSUB IS CALLED WITH THE FOLLOWING NEGATIVE NUMBERS (RATHER THAN THE
003055:                                                                                                  #  VERB-NOUN CODE) IN A, THEN THE DISPLAY IS BLANKED AS FOLLOWS-
003056:                                                                                                  #   -4 FULL BLANK, -3 LEAVE MODE, -2 LEAVE MODE AND VERB, -1 BLANK R-S ONLY
003057:
003058:                                                                                                  #  NVSUB CAN BE USED WTIH MACH CADR TO BE SPEC BY PLACING THE CADR INTO
003059:                                                                                                  #  MPAC+2 BEFORE THE STANDARD NVSUB CALL.
003060:
003061:                                                                                                  #   NVSUB RETURNS TO 2+ CALLING LOC AFTER PERFORMING TASK, IF DISPLAY
003062:                                                                                                  #  SYSTEM IS AVAILABLE. THE NEW NOUN AND VERB CODES ARE DISPLAYED.
003063:                                                                                                  #  IF V:S =0, THE NEW NOUN CODE IS DISPLAYED ONLY(RETURN WITH NO FURTHER
003064:                                                                                                  #  ACTION). IF N-S =0, THE NEW VERB CODE IS DISPLAYED ONLY(RETURN WITH NO
003065:                                                                                                  #  FURTHER ACTION).
003066:
003067:                                                                                                  #  IT RETURNS TO 1+ CALLING LOC WITHOUT PERFORMING TASK, IF DISPLAY
003068:                                                                                                  #  SYSTEM IS BLOCKED (NOTHING IS DISPLAYED IN THIS CASE).
003069:                                                                                                  #  IT DOES TC ABORT (WITH OCT 01501) IF IT ENCOUNTERS A DISPLAY PROGRAM
003070:                                                                                                  #  ALARM CONDITION BEFORE RETURN TO CALLER.
003071:
003072:                                                                                                  #  THE DISPLAY SYSTEM IS BLOCKED BY THE DEPRESSION OF ANY
003073:                                                                                                  #  KEY, EXCEPT ERROR LIGHT RESET
003074:                                                                                                  #  IT IS RELEASED BY THE KEY RELEASE BUTTON, ALL EXTENDED VERBS,
003075:                                                                                                  #  PROCEED WITHOUT DATA, TERMINATE, RESEQUENCE, INITIALIZE EXECUTIVE,
003076:                                                                                                  #  RECALL PART OF RECALTST IF ENDIDLE WAS USED,
003077:                                                                                                  #  VB = REQUEST EXECUTIVE, VB = REQUEST WAITLIST,
003078:                                                                                                  #  MONITOR SET UP.
003079:
003080:                                                                                                  #  THE DISPLAY SYSTEM IS ALSO BLOCKED BY THE EXTERNAL MONITOR BIT, WHICH
003081:                                                                                                  #  INDICATES AN EXTERNALLY INITIATED MONITOR IS RUNNING (SEE MONITOR)
003082:
003083:                                                                                                  #  A NVSUB CALL THAT PASSES DSPLOCK AND THE EXTERNAL MONITOR BIT ENDS OLD
003084:                                                                                                  #  MONITOR.
003085:
003086:                                                                                                  #  DSPLOCK IS THE INTERLOCK FOR USE OF KEYBOARD AND DISPLAY SYSTEM WHICH
003087:                                                                                                  #  LOCKS OUT INTERNAL USE WHENEVER THERE IS EXTERNAL KEYBOARD ACTION.
003088:
003089:                                                                                                  #  NVSUB SHOULD BE USED TWICE IN SUCCESSION FOR :PLEASE PERFORM: SITUATIONS
003090:                                                                                                  #  (SIMILARLY FOR PLEASE MARK). FIRST PLACE THE CODED NUMBER FOR WHAT
003091:                                                                                                  #  ACTION IS DESIRED OF OPERATOR INTO THE REGISTERS REFERRED TO BY THE
003092:                                                                                                  #  :CHECKLIST: NOUN. GO TO NVSUB WITH A DISPLAY VERB AND THE :CHECKLIST:
003093:                                                                                                  #  NOUN. GO TO NVSUB AGAIN WTIH THE :PLEASE PERFORM: VERB AND ZEROS IN THE
003094:                                                                                                  #  LOW 7 BITS. THIS :PASTES UP: THE :PLEASE PERFORM: VERB INTO THE VERB
003095:                                                                                                  #  LIGHTS.
003096:
003097:                                                                                                  #  NVMONOPT IS AN ENTRY SIMILAR TO NVSUB, BUT REQUIRING AN ADDITIONAL


003099:                                                                                                  #  PARAMETER IN L. IT SHOULD BE USED ONLY WITH A MONITOR VERB-NOUN CODE IN
003100:                                                                                                  #  A. AFTER EACH MONITOR DISPLAY A *PLEASE* VERB WILL BE PASTED IN THE VERB
003101:                                                                                                  #  LIGHTS OR DATA WILL BE BLANKED (OR BOTH) ACCORDING TO THE OPTIONS
003102:                                                                                                  #  SPECIFIED IN L. IF BITS 8-14 OF L ARE OTHER THAN ZERO, THEN THEY WILL
003103:                                                                                                  #  BE INTERPRETED AS A VERB CODE AND PASTED IN THE VERB LIGHTS. (THIS VERB
003104:                                                                                                  #  CODE SHOULD DESIGNATE ONE OF THE *PLEASE* VERBS.) IF BITS 1-3 OF L ARE
003105:                                                                                                  #  OTHER THAN ZERO, THEN THEY WILL BE USED TO BLANK DATA BY BEING FED TO
003106:                                                                                                  #  BLANKSUB. IF NVMONOPT IS USED WITH A VERB OTHER THAN A MONITOR VERB,
003107:                                                                                                  #  THE PARAMETER IN L HAS NO EFFECT.
003108:
003109:                                                                                                  #  NVSUB IN FIXED-FIXED PLACES 2+CALLING LOC INTO NVQTEM, TC NVSUBEND INTO
003110:                                                                                                  #  ENTRET. (THIS WILL RESTORE OLD CALLING BANK BITS)
003111:
003112:    4145                                           SETLOC   MID7       +1
003113:    4145                                           COUNT*   $$/PIN
003114:    4145           22007        NVSUB              LXCH     7                                     #  ZERO NVMONOPT OPTIONS
003115:    4146           54123        NVMONOPT           TS       NVTEMP
003116:    4147           34727                           CAF      BIT14
003117:    4150           71020                           MASK     MONSAVE1                              #  EXTERNAL MONITOR BIT
003118:    4151           61011                           AD       DSPLOCK
003119:    4152           10000                           CCS      A
003120:    4153           00002                           TC       Q                                     #  DSP SYST BLOCKED. RET TO 1+ CALLING LOC
003121:    4154           34744                           CAF      ONE                                   #  DSP SYST AVAILABLE
003122:    4155           60002        NVSBCOM            AD       Q
003123:    4156           55036                           TS       NVQTEM                                #  2+ CALLING LOC INTO NVQTEM
003124:    4157           23021                           LXCH     MONSAVE2                              #  STORE NVMONOPT OPTIONS
003125:    4160           04175                           TC       KILMONON                              #  TURN ON KILL MONITOR BIT
003126:    4161           34172        NVSUBCOM           CAF      NVSBBBNK
003127:
003128:    4162           56006                           XCH      BBANK
003129:    4163           00006                           EXTEND                                         #  SAVE OLD SUPERBITS
003130:    4164           04007                           ROR      SUPERBNK
003131:    4165           55037                           TS       NVBNKTEM
003132:    4166           34172                           CAF      PINSUPBT
003133:    4167           00006                           EXTEND
003134:    4170           01007                           WRITE    SUPERBNK
003135:    4171           02020                           TC       NVSUBB                                #  GO TO NVSUB1 THRU STANDARD LOC
003136:    4172     0776                                  EBANK=   DSPCOUNT
003137:    4172           62101        NVSBBBNK           BBCON    NVSUB1
003138:
003139:    4173     4172               PINSUPBT           =        NVSBBBNK                              #  CONTAINS THE PINBALL SUPERBITS.
003140:
003141:    4173           53037        NVSUBEND           DXCH     NVQTEM                                #  NVBNKTEM MUST = NVQTEM+1
003142:    4174           05167                           TC       SUPDXCHZ                              #  DTCB WITH SUPERBIT SWITCHING
003143:
003144: 41,3565                                           SETLOC   ENDRQWT    +1
003145:
003146: 41,3565                                           COUNT*   $$/PIN
003147:                                                                                                  #  BLANKDSP BLANKS DISPLAY ACCORDING TO OPTION NUMBER IN NVTEMP AS FOLLOWS
003148:                                                                                                  #   -4 FULL BLANK, -3 LEAVE MODE, -2 LEAVE MODE AND VERB, -1 BLANK R-S ONLY


003150: 41,3565           64750        BLANKDSP           AD       SEVEN                                 #  7,8,9,OR 10 (A HAD 0,1,2,OR 3)
003151: 41,3566           00004                           INHINT
003152: 41,3567           54124                           TS       CODE                                  #  BLANK SPECIFIED DSPTABS
003153: 41,3570           44731                           CS       BIT12
003154: 41,3571           50124                           INDEX    CODE
003155: 41,3572           57022                           XCH      DSPTAB
003156: 41,3573           10000                           CCS      A
003157: 41,3574           25015                           INCR     NOUT
003158: 41,3575           03576                           TC       +1
003159: 41,3576           10124                           CCS      CODE
003160: 41,3577           03567                           TC       BLANKDSP   +2
003161: 41,3600           00003                           RELINT
003162: 41,3601           50123                           INDEX    NVTEMP
003163: 41,3602           03607                           TC       +5
003164: 41,3603           03604                           TC       +1                                    #  NVTEMP HAS -4 (NEVER TOUCH MODREG)
003165: 41,3604           55000                           TS       VERBREG                               #             -3
003166: 41,3605           55001                           TS       NOUNREG                               #             -2
003167: 41,3606           55014                           TS       CLPASS                                #             -1
003168: 41,3607           44351                           CS       VD1
003169: 41,3610           54776                           TS       DSPCOUNT
003170: 41,3611           04424                           TC       FLASHOFF                              #  PROTECT AGAINST INVISIBLE FLASH
003171: 41,3612           03635                           TC       ENTSET     -2                         #  ZEROS REQRET
003172:
003173: 41,3613           33637        NVSUB1             CAF      ENTSET                                #  IN BANK
003174: 41,3614           54136                           TS       ENTRET                                #  SET RETURN TO NVSUBEND
003175: 41,3615           10123                           CCS      NVTEMP                                #  WHAT NOW
003176: 41,3616           03622                           TC       +4                                    #  NORMAL NVSUB CALL (EXECUTE VN OR PASTE)
003177: 41,3617           02400                           TC       GODSPALM
003178: 41,3620           03565                           TC       BLANKDSP                              #  BLANK DISPLAY AS SPECIFIED
003179: 41,3621           02400                           TC       GODSPALM
003180: 41,3622           36115                           CAF      LOW7
003181: 41,3623           70123                           MASK     NVTEMP
003182: 41,3624           54157                           TS       MPAC       +3                         #  TEMP FOR NOUN (CANT USE MPAC. DSPDECVN
003183: 41,3625           30123                           CA       NVTEMP                                #                  USES MPAC, +1, +2
003184: 41,3626           54023                           TS       EDOP                                  #  RIGHT 7
003185: 41,3627           30023                           CA       EDOP
003186: 41,3630           54160                           TS       MPAC       +4                         #  TEMP FOR VERB (CANT USE MPAC+1. DSPDECVN
003187:                                                                                                  #                 USES MPAC, +1, +2).
003188: 41,3631           10157                           CCS      MPAC       +3                         #  TEST NOUN
003189: 41,3632           03640                           TC       NVSUB2                                #  IF NOUN NOT +0, GO ON
003190: 41,3633           30160                           CA       MPAC       +4
003191: 41,3634           02366                           TC       UPDATVB    -1                         #  IF NOUN = +0, DISPLAY VERB . THEN RETURN
003192: 41,3635           34746                           CAF      ZERO                                  #  ZERO REQRET SO THAT PASTED VERBS CAN
003193: 41,3636           55012                           TS       REQRET                                #  BE EXECUTED BY OPERATOR.
003194: 41,3637           04173        ENTSET             TC       NVSUBEND
003195: 41,3640           10160        NVSUB2             CCS      MPAC       +4                         #  TEST VERB
003196: 41,3641           03645                           TC       +4                                    #  IF VERB NOT +0, GO ON
003197: 41,3642           30157                           CA       MPAC       +3
003198: 41,3643           02346                           TC       UPDATNN    -1                         #  IF VERB = +0, DISPLAY NOUN. THEN RETURN
003199: 41,3644           04173                           TC       NVSUBEND


003201: 41,3645           30156                           CA       MPAC       +2                         #  TEMP FOR MACH CADR TO BE SPEC. (DSPDECVN
003202: 41,3646           54161                           TS       MPAC       +5                         #               USES MPAC, +1, +2)
003203: 41,3647           30160                           CA       MPAC       +4
003204: 41,3650           02366                           TC       UPDATVB    -1                         #  IF BOTH NOUN AND VERB NOT +0, DISPLAY
003205: 41,3651           30157                           CA       MPAC       +3                         #  BOTH AND GO TO ENTPAS0.
003206: 41,3652           02346                           TC       UPDATNN    -1
003207: 41,3653           34746                           CAF      ZERO
003208: 41,3654           55013                           TS       LOADSTAT                              #  SET FOR WAITING FOR DATA CONDITION
003209: 41,3655           55014                           TS       CLPASS
003210: 41,3656           55012                           TS       REQRET                                #  SET REQRET FOR PASS 0.
003211: 41,3657           30161                           CA       MPAC       +5                         #  RESTORES MACH CADR TO BE SPEC TO MPAC+2
003212: 41,3660           54156                           TS       MPAC       +2                         #  FOR USE IN INTMCTBS (IN ENTPAS0).
003213: 41,3661           02062        ENDNVSB1           TC       ENTPAS0
003214:
003215:
003216:                                                                                                  #  IF INTERNAL MACH CADR TO BE SPECIFIED, MPAC+2 WILL BE PLACED INTO
003217:                                                                                                  #  NOUNCADR IN ENTPAS0 (INTMCTBS ).
003218:
003219:    4175                                           SETLOC   NVSUBEND   +2
003220:    4175                                           COUNT*   $$/PIN
003221:                                                                                                  #  FORCE BIT 15 OF MONSAVE1 TO 1.
003222:    4175           34726        KILMONON           CAF      BIT15                                 #     THIS IS THE KILL MONITOR BIT.
003223:    4176           55020                           TS       MONSAVE1                              #  TURN OFF BIT 14, THE EXTERNAL
003224:                                                                                                  #   MONITOR BIT.
003225:    4177           00002                           TC       Q
003226:
003227:
003228:                                                                                                  #  LOADSTAT  +0 INACTIVE(WAITING FOR DATA). SET BY NVSUB
003229:                                                                                                  #            +1  PROCEED NO DATA. SET BY SPECIAL VERB
003230:                                                                                                  #           -1 TERMINATE   SET BY SPECIAL VERB
003231:                                                                                                  #           -0    DATA IN      SET BY END OF LOAD ROUTINE
003232:                                                                                                  #              OR RESEQUENCE   SET BY VERB 32
003233:
003234:
003235:                                                                                                  #  L  TC ENDIDLE  (FIXED FIXED)
003236:                                                                                                  #  ROUTINES THAT REQUEST LOADS THROUGH NVSUB SHOULD USE ENDIDLE WHILE
003237:                                                                                                  #  WAITING FOR THE DATA TO BE LOADED. ENDIDLE PUTS CURRENT JOB TO SLEEP.
003238:                                                                                                  #  ENDIDLE CANNOT BE CALLED FROM ERASABLE OR F/F MEMORY,
003239:                                                                                                  #  SINCE JOBSLEEP AND JOBWAKE CAN HANDLE ONLY FIXED BANKS.
003240:                                                                                                  #  RECALTST TESTS LOADSTAT AND WAKES JOB UP TO,
003241:                                                                                                  #  L+1      FOR TERMINATE
003242:                                                                                                  #  L+2      FOR PROCEED WITHOUT DATA
003243:                                                                                                  #  L+3      FOR DATA IN, OR RESEQUENCE
003244:                                                                                                  #  IT DOES NOTHING IF LOADSTAT INDICATES WAITING FOR DATA.
003245:
003246:
003247:                                                                                                  #  ENDIDLE ABORTS (WITH CODE 01206) IF A SECOND JOB ATTEMPTS TO GO TO SLEEP
003248:                                                                                                  #  IN PINBALL. IN PARTICULAR, IF AN ATTEMPT IS MADE TO GO TO ENDIDLE WHEN
003249:                                                                                                  #  1) CADRSTOR NOT= +0. THIS IS THE CASE WHERE THE CAPACITY OF ENDIDLE IS


003251:                                                                                                  #  EXCEEDED. (+-NZ INDICATE A JOB IS ALREADY ASLEEP DUE TO ENDIDLE.)
003252:                                                                                                  #  2) DSPLIST NOT= +0. THIS INDICATES A JOB IS ALREADY ASLEEP DUE TO
003253:                                                                                                  #  NVSUBUSY.
003254:
003255:    4200           22002        ENDIDLE            LXCH     Q                                     #  RETURN ADDRESS INTO L.
003256:    4201           04211                           TC       ISCADR+0                              #  ABORT IF CADRSTOR NOT= +0
003257:    4202           04215                           TC       ISLIST+0                              #  ABORT IF DSPLIST NOT= +0
003258:    4203           30001                           CA       L                                     #  DONT SET DSPLOCK TO 1 SO CAN USE
003259:    4204           75003                           MASK     LOW10                                 #  ENDIDLE WITH NVSUB INITIATED MONITOR.
003260:    4205           60004                           AD       FBANK                                 #  SAME STRATEGY FOR CADR AS MAKECADR.
003261:    4206           55041                           TS       CADRSTOR
003262:    4207           05124                           TC       JOBSLEEP
003263:
003264:
003265:    4210           05146        ENDINST            TC       ENDOFJOB
003266:
003267:
003268:    4211           11041        ISCADR+0           CCS      CADRSTOR                              #  ABORTS (CODE 01206) IF CADRSTOR NOT= +0.
003269:    4212           04220                           TC       DSPABORT                              #  RETURNS IF CADRSTOR = +0.
003270:    4213           00002                           TC       Q
003271:    4214           04220                           TC       DSPABORT
003272:
003273:    4215           11042        ISLIST+0           CCS      DSPLIST                               #  ABORTS (CODE 01206) IF DSPLIST NOT= +0.
003274:    4216           04220                           TC       DSPABORT                              #  RETURNS IF DSPLIST = +0.
003275:    4217           00002                           TC       Q
003276:    4220           05626        DSPABORT           TC       BAILOUT
003277:    4221           31206                           OCT      31206
003278:
003279:                                                                                                  #  JAMTERM ALLOWS PROGRAMS TO PERFORM THE TERMINATE FUNCTION.
003280:                                                                                                  #  IT DOES ENDOFJOB.
003281:
003282:    4222           34172        JAMTERM            CAF      PINSUPBT
003283:    4223           00006                           EXTEND
003284:    4224           01007                           WRITE    SUPERBNK
003285:    4225           34233                           CAF      34DEC
003286:    4226           55012                           TS       REQRET                                #  LEAVE ENTER SET FOR ENTPASS0.
003287:    4227           44351                           CS       VD1
003288:    4230           54776                           TS       DSPCOUNT
003289:    4231           04626                           TC       POSTJUMP
003290:    4232           61477                           CADR     VBTERM
003291:
003292:    4233           00042        34DEC              DEC      34         B-14
003293:
003294:
003295:                                                                                                  #  JAMPROC ALLOWS PROGRAMS TO PERFORM THE PROCEED/PROCEED WITHOUT DATA
003296:                                                                                                  #  FUNCTION. IT DOES ENDOFJOB.
003297:
003298:    4234           34172        JAMPROC            CAF      PINSUPBT
003299:    4235           00006                           EXTEND
003300:    4236           01007                           WRITE    SUPERBNK


003302:    4237           34245                           CAF      33DEC
003303:    4240           55012                           TS       REQRET                                #  LEAVE ENTER SET FOR ENTPASS0.
003304:    4241           44351                           CS       VD1
003305:    4242           54776                           TS       DSPCOUNT
003306:    4243           04626                           TC       POSTJUMP
003307:    4244           61471                           CADR     VBPROC
003308:
003309:    4245           00041        33DEC              DEC      33         B-14
003310:
003311:
003312:                                                                                                  #  BLANKSUB BLANKS ANY COMBINATION OF R1, R2, R3.
003313:                                                                                                  #  CALL WITH BLANKING CODE IN A.
003314:                                                                                                  #  BIT1=1 BLANKS R1, BIT2=1 BLANKS R2, BIT3=1 BLANKS R3.
003315:                                                                                                  #  ANY COMBINATION OF THESE BITS IS ACCEPTED.
003316:
003317:                                                                                                  #  DSPCOUNT IS RESTORED TO STATE IT WAS IN BEFORE BLANKSUB WAS EXECUTED.
003318:
003319:    4246           74750        BLANKSUB           MASK     SEVEN
003320:    4247           54123                           TS       NVTEMP                                #  STORE BLANKING CODE IN NVTEMP.
003321:    4250           34727                           CAF      BIT14
003322:    4251           71020                           MASK     MONSAVE1                              #  EXTERNAL MONITOR BIT
003323:    4252           61011                           AD       DSPLOCK
003324:    4253           10000                           CCS      A
003325:    4254           00002                           TC       Q                                     #  DSP SYST BLOCKED. RET TO 1+ CALLING LOC
003326:    4255           24002                           INCR     Q                                     #  DSP SYST AVAILABLE
003327:                                                                                                  #  SET RETURN FOR 2+ CALLING LOC
003328:    4256           10123                           CCS      NVTEMP
003329:    4257           14261                           TCF      +2
003330:    4260           00002                           TC       Q                                     #  NOTHING TO BLANK. RET TO 2+ CALLING LOC
003331:    4261           22002                           LXCH     Q                                     #  SET RETURN FOR 2 + CALLING LOC
003332:    4262           34273                           CAF      BLNKBBNK
003333:    4263           56006                           XCH      BBANK
003334:    4264           00006                           EXTEND
003335:    4265           04007                           ROR      SUPERBNK                              #  SAVE OLD SUPERBITS.
003336:    4266           52131                           DXCH     BUF
003337:    4267           34172                           CAF      PINSUPBT
003338:    4270           00006                           EXTEND
003339:    4271           01007                           WRITE    SUPERBNK
003340:    4272           03543                           TC       BLNKSUB1
003341:
003342:    4273     0776                                  EBANK=   DSPCOUNT
003343:    4273           60101        BLNKBBNK           BBCON    BLNKSUB1
003344:    4274                        ENDBLFF            EQUALS
003345:
003346: 40,3543                                           SETLOC   ENDRELDS
003347: 40,3543                                           COUNT*   $$/PIN
003348: 40,3543           30776        BLNKSUB1           CA       DSPCOUNT                              #  SAVE OLD DSPCOUNT FOR LATER RESTORATION
003349: 40,3544           54132                           TS       BUF        +2
003350: 40,3545           34744                           CAF      BIT1                                  #  TEST BIT1. SEE IF R1 TO BE BLANKED.
003351: 40,3546           03565                           TC       TESTBIT


003353: 40,3547           34310                           CAF      R1D1
003354: 40,3550           02524                           TC       5BLANK     -1
003355: 40,3551           34743                           CAF      BIT2                                  #  TEST BIT 2. SEE IF R2 TO BE BLANKED.
003356: 40,3552           03565                           TC       TESTBIT
003357: 40,3553           34311                           CAF      R2D1
003358: 40,3554           02524                           TC       5BLANK     -1
003359: 40,3555           34742                           CAF      BIT3                                  #  TEST BIT3. SEE IF R3 TO BE BLANKED.
003360: 40,3556           03565                           TC       TESTBIT
003361: 40,3557           34312                           CAF      R3D1
003362: 40,3560           02524                           TC       5BLANK     -1
003363: 40,3561           30132                           CA       BUF        +2                         #  RESTORE DSPCOUNT TO STATE IT HAD
003364: 40,3562           54776                           TS       DSPCOUNT                              #       BEFORE BLANKSUB.
003365: 40,3563           52131                           DXCH     BUF                                   #  CALL L+2 DIRECTLY.
003366: 40,3564           05170                           TC       SUPDXCHZ   +1                         #  DTCB WITH SUPERBIT SWITCHING
003367:
003368: 40,3565           70123        TESTBIT            MASK     NVTEMP                                #  NVTEMP CONTAINS BLANKING CODE.
003369: 40,3566           10000                           CCS      A
003370: 40,3567           00002                           TC       Q                                     #  IF CURRENT BIT = 1, RETURN TO L+1.
003371: 40,3570           50002                           INDEX    Q                                     #  IF CURRENT BIT = 0, RETURN TO L+3.
003372: 40,3571           00002                           TC       2
003373:
003374: 40,3572                        ENDBSUB1           EQUALS
003375:
003376:
003377:                                                                                                  #  DSPMM DOES NOT DISPLAY MODREG DIRECTLY. IT PUTS IN EXEC REQUEST WITH
003378:                                                                                                  #  PRIO 30000 FOR DSPMMJB AND RETURNS TO CALLER.
003379:
003380:                                                                                                  #  IF MODREG CONTAINS -0, DSPMMJB BLANKS THE MODE LIGHTS.
003381:
003382:                                                                                                  #  DSPMM MUST BE IN BANK 27 OR LOWER, SO IT CAN BE CALLED VIA BANKCALL.
003383:
003384: 07,2607                                           BANK     7
003385: 04,2000                                           SETLOC   PINBALL4
003386: 04,2000                                           BANK
003387:
003388: 04,2657                                           COUNT*   $$/PIN
003389: 04,2657           56002        DSPMM              XCH      Q
003390: 04,2660           54154                           TS       MPAC
003391: 04,2661           00004                           INHINT
003392: 04,2662           34346                           CAF      CHRPRIO
003393: 04,2663           05063                           TC       NOVAC
003394: 04,2664     0776                                  EBANK=   DSPCOUNT
003395: 04,2664           03572 60101                     2CADR    DSPMMJB
003396:
003397: 04,2666           00003                           RELINT
003398: 04,2667           00154        ENDSPMM            TC       MPAC
003399:
003400:                                                                                                  #  DSPMM  PLACE MAJOR MODE CODE INTO MODREG
003401:
003402: 40,3572                                           SETLOC   ENDBSUB1


003404: 40,3572                                           COUNT*   $$/PIN
003405: 40,3572           34353        DSPMMJB            CAF      MD1                                   #  GETS HERE THRU DSPMM
003406: 40,3573           56776                           XCH      DSPCOUNT
003407: 40,3574           54140                           TS       DSPMMTEM                              #  SAVE DSPCOUNT
003408: 40,3575           11010                           CCS      MODREG
003409: 40,3576           64744                           AD       ONE
003410: 40,3577           03335                           TC       DSPDECVN                              #  IF MODREG IS + OR +0, DISPLAY MODREG
003411: 40,3600           03602                           TC       +2                                    #  IF MODREG IS -NZ, DO NOTHING
003412: 40,3601           02570                           TC       2BLANK                                #  IF MODREG IS -0, BLANK MM
003413: 40,3602           56140                           XCH      DSPMMTEM                              #  RESTORE DSPCOUNT
003414: 40,3603           54776                           TS       DSPCOUNT
003415: 40,3604           05146                           TC       ENDOFJOB
003416:
003417:
003418:                                                                                                  #  RECALTST IS ENTERED DIRECTLY AFTER DATA IS LOADED (OR RESEQUENCE VERB IS
003419:                                                                                                  #  EXECUTED), TERMINATE VERB IS EXECUTED, OR PROCEED WITHOUT DATA VERB IS
003420:                                                                                                  #  EXECUTED. IT WAKES UP JOB THAT DID TC ENDIDLE.
003421:
003422:                                                                                                  #  IF CADRSTOR NOT= +0, IT PUTS +0 INTO DSPLOCK, AND TURNS OFF KEY RLSE
003423:                                                                                                  #  LIGHT IF DSPLIST IS EMPTY (LEAVES KEY RLSE LIGHT ALONE IF NOT EMPTY).
003424:
003425: 40,3605           11041        RECALTST           CCS      CADRSTOR
003426: 40,3606           03610                           TC       RECAL1
003427: 40,3607           05146                           TC       ENDOFJOB                              #  NORMAL EXIT IF KEYBOARD INITIATED
003428: 40,3610           34746        RECAL1             CAF      ZERO
003429: 40,3611           57041                           XCH      CADRSTOR
003430: 40,3612           00004                           INHINT
003431: 40,3613           05130                           TC       JOBWAKE
003432: 40,3614           11013                           CCS      LOADSTAT
003433: 40,3615           03637                           TC       DOPROC                                #  + PROCEED WITHOUT DATA
003434: 40,3616           05146                           TC       ENDOFJOB                              #  PATHALOGICAL CASE EXIT
003435: 40,3617           03635                           TC       DOTERM                                #  -   TERMINATE
003436: 40,3620           34743                           CAF      TWO                                   #  -0 DATA IN OR RESEQUENCE
003437: 40,3621           50064        RECAL2             INDEX    LOCCTR
003438: 40,3622           60164                           AD       LOC                                   #  LOC IS + FOR BASIC JOBS
003439: 40,3623           50064                           INDEX    LOCCTR
003440: 40,3624           54164                           TS       LOC
003441: 40,3625           31001                           CA       NOUNREG                               #  SAVE VERB IN MPAC, NOUN IN MPAC+1 AT
003442: 40,3626           54001                           TS       L                                     #  TIME OF RESPONSE TO ENDIDLE FOR
003443: 40,3627           31000                           CA       VERBREG                               #  POSSIBLE LATER TESTING BY JOB THAT HAS
003444: 40,3630           50064                           INDEX    LOCCTR                                #  BEEN WAKED UP.
003445: 40,3631           52155                           DXCH     MPAC
003446: 40,3632           00003                           RELINT
003447: 40,3633           04450        RECAL3             TC       RELDSP
003448: 40,3634           05146                           TC       ENDOFJOB
003449:
003450: 40,3635           34746        DOTERM             CAF      ZERO
003451: 40,3636           03621                           TC       RECAL2
003452:
003453: 40,3637           34744        DOPROC             CAF      ONE


003455: 40,3640           03621                           TC       RECAL2
003456:


003458:                                                                                                  #  MISCELLANEOUS SERVICE ROUTINES IN FIXED/FIXED
003459:
003460:    4274                                           SETLOC   ENDBLFF
003461:
003462:    4274                                           COUNT*   $$/PIN
003463:                                                                                                  #  SETNCADR       E CADR ARRIVES IN A. IT IS STORED IN NOUNCADR. EBANK BITS
003464:                                                                                                  #                 ARE SET. E ADRES IS DERIVED AND PUT INTO NOUNADD.
003465:
003466:    4274           55016        SETNCADR           TS       NOUNCADR                              #  STORE ECADR
003467:    4275           54003                           TS       EBANK                                 #  SET EBANK BITS
003468:    4276           74350                           MASK     LOW8
003469:    4277           65000                           AD       OCT1400
003470:    4300           54145                           TS       NOUNADD                               #  PUT E ADRES INTO NOUNADD
003471:    4301           00002                           TC       Q
003472:
003473:
003474:                                                                                                  #  SETNADD        GETS E CADR FROM NOUNCADR, SETS EBANK BITS, DERIVES
003475:                                                                                                  #                 E ADRES AND PUTS IT INTO NOUNADD.
003476:
003477:    4302           31016        SETNADD            CA       NOUNCADR
003478:    4303           14275                           TCF      SETNCADR   +1
003479:
003480:                                                                                                  #  SETEBANK       E CADR ARRIVES IN A. EBANK BITS ARE SET. E ADRES IS
003481:                                                                                                  #                 DERIVED AND LEFT IN A.
003482:
003483:    4304           54003        SETEBANK           TS       EBANK                                 #  SET EBANK BITS
003484:    4305           74350                           MASK     LOW8
003485:    4306           65000                           AD       OCT1400                               #  E ADRES LEFT IN A
003486:    4307           00002                           TC       Q
003487:
003488:
003489:    4310           00016        R1D1               OCT      16                                    #  THESE 3 CONSTANTS FORM A PACKED TABLE.
003490:    4311           00011        R2D1               OCT      11                                    #  DONT SEPARATE.
003491:    4312           00004        R3D1               OCT      4
003492:
003493:    4313           54020        RIGHT5             TS       CYR
003494:    4314           40020                           CS       CYR
003495:    4315           40020                           CS       CYR
003496:    4316           40020                           CS       CYR
003497:    4317           40020                           CS       CYR
003498:    4320           56020                           XCH      CYR
003499:    4321           00002                           TC       Q
003500:
003501:    4322           54022        LEFT5              TS       CYL
003502:    4323           40022                           CS       CYL
003503:    4324           40022                           CS       CYL
003504:    4325           40022                           CS       CYL
003505:    4326           40022                           CS       CYL


003507:    4327           56022                           XCH      CYL
003508:    4330           00002                           TC       Q
003509:
003510:    4331           60000        SLEFT5             DOUBLE
003511:    4332           60000                           DOUBLE
003512:    4333           60000                           DOUBLE
003513:    4334           60000                           DOUBLE
003514:    4335           60000                           DOUBLE
003515:    4336           00002                           TC       Q
003516:
003517:
003518:    4337           00037        LOW5               OCT      37                                    #  THESE 3 CONSTANTS FORM A PACKED TABLE.
003519:    4340           01740        MID5               OCT      1740                                  #  DONT SEPARATE.
003520:    4341           76000        HI5                OCT      76000                                 #  MUST STAY HERE
003521:
003522:    4342           05063        TCNOVAC            TC       NOVAC
003523:    4343           05205        TCWAIT             TC       WAITLIST
003524:    4344           05263        TCTSKOVR           TC       TASKOVER
003525:    4345           05076        TCFINDVC           TC       FINDVAC
003526:
003527:
003528:    4346           30000        CHRPRIO            OCT      30000                                 #  EXEC PRIORITY OF CHARIN
003529:
003530:
003531:    4347           03777        LOW11              OCT      3777
003532:    4350     4347               B12-1              EQUALS   LOW11
003533:    4350           00377        LOW8               OCT      377
003534:
003535:
003536:    4351           00023        VD1                OCT      23                                    #  THESE 3 CONSTANTS FORM A PACKED TABLE.
003537:    4352           00021        ND1                OCT      21                                    #  DONT SEPARATE.
003538:    4353           00025        MD1                OCT      25
003539:
003540:    4354           00012        BINCON             DEC      10         B-14
003541:
003542:    4355           34736        FALTON             CA       BIT7                                  #  TURN ON OPERATOR ERROR LIGHT
003543:    4356           00006                           EXTEND
003544:    4357           05011                           WOR      DSALMOUT                              #  BIT 7 OF CHANNEL 11
003545:    4360           00002                           TC       Q
003546:
003547:    4361           44736        FALTOF             CS       BIT7                                  #  TURN OFF OPERATOR ERROR LIGHT
003548:    4362           00006                           EXTEND
003549:    4363           03011                           WAND     DSALMOUT                              #  BIT 7 OF CHANNEL 11
003550:    4364           00002                           TC       Q
003551:
003552:    4365           34740        RELDSPON           CAF      BIT5                                  #  TURN ON KEY RELEASE LIGHT
003553:    4366           00006                           EXTEND
003554:    4367           05011                           WOR      DSALMOUT                              #  BIT 5 OF CHANNEL 11
003555:    4370           00002                           TC       Q
003556:


003558:    4371           00006        LODSAMPT           EXTEND
003559:    4372           30025                           DCA      TIME2
003560:    4373           52014                           DXCH     SAMPTIME
003561:    4374           00002                           TC       Q
003562:
003563:
003564:    4375           00006        TPSL1              EXTEND                                         #  SHIFTS MPAC, +1, +2 LEFT 1
003565:    4376           30156                           DCA      MPAC       +1                         #  LEAVES OVFIND SET TO +/- 1 FOR OF/UF
003566:    4377           20156                           DAS      MPAC       +1
003567:    4400           60154                           AD       MPAC
003568:    4401           26154                           ADS      MPAC
003569:    4402           54007                           TS       7                                     #  TS A DOES NOT CHANGE A ON OF/UF.
003570:    4403           00002                           TC       Q                                     #  NO NET OF/UF
003571:    4404           54162                           TS       MPAC+6                                #  MPAC +6 SET TO +/-1 FOR OF/UF
003572:    4405           00002                           TC       Q
003573:
003574:
003575:                                                                                                  #  IF MPAC, +1 ARE EACH +NZ OR +0 AND C(A)=-0, SHORTMP WRONGLY GIVES +0.
003576:                                                                                                  #  IF MPAC, +1 ARE EACH -NZ OR -0 AND C(A)=+0, SHORTMP WRONGLY GIVES +0.
003577:                                                                                                  #  PRSHRTMP FIXES FIRST CASE ONLY, BY MERELY TESTING C(A) AND IF IT = -0,
003578:                                                                                                  #  SETTING RESULT TO -0.
003579:                                                                                                  #   (DO NOT USE PRSHRTMP UNLESS MPAC, +1 ARE EACH +NZ OR +0, AS THEY ARE
003580:                                                                                                  #   WHEN THEY CONTAIN TH E SF CONSTANTS.)
003581:
003582:    4406           54135        PRSHRTMP           TS       MPTEMP
003583:    4407           10000                           CCS      A
003584:    4410           30135                           CA       MPTEMP                                #  C(A) +, DO REGULAR SHORTMP
003585:    4411           17331                           TCF      SHORTMP    +1                         #  C(A) +0, DO REGULAR SHORTMP
003586:    4412           14410                           TCF      -2                                    #  C(A) -, DO REGULAR SHORTMP
003587:    4413           44746                           CS       ZERO                                  #  C(A) -0, FORCE RESULT TO -0 AND RETURN.
003588:    4414           54154                           TS       MPAC
003589:    4415           54155                           TS       MPAC       +1
003590:    4416           54156                           TS       MPAC       +2
003591:    4417           00002                           TC       Q
003592:
003593:
003594:    4420           34737        FLASHON            CAF      BIT6                                  #  TURN ON V/N FLASH
003595:    4421           00006                           EXTEND                                         #  BIT 6 OF CHANNEL 11
003596:    4422           05011                           WOR      DSALMOUT
003597:    4423           00002                           TC       Q
003598:
003599:
003600:    4424           44737        FLASHOFF           CS       BIT6                                  #  TURN OFF V/N FLASH
003601:    4425           00006                           EXTEND
003602:    4426           03011                           WAND     DSALMOUT                              #  BIT 6 OF CHANNEL 11
003603:    4427           00002                           TC       Q
003604:


003606:                                                                                                  #  INTERNAL USE OF KEYBOARD AND DISPLAY PROGRAM
003607:
003608:                                                                                                  #  USER MUST SCHEDULE CALLS TO NVSUB SO THAT THERE IS NO CONFLICT OF USE OR
003609:                                                                                                  #  CONFUSION TO OPERATOR. THE OLD GRABLOCK (INTERNAL/INTERNAL INTERLOCK)
003610:                                                                                                  #  HAS BEEN REMOVED AND THE INTERNAL USER NO LONGER HAS THE PROTECTION THIS
003611:                                                                                                  #  OFFERED.
003612:
003613:                                                                                                  #  THERE ARE TWO WAYS A JOB CAN BE PUT TO SLEEP BY THE KEYBOARD + DISPLAY
003614:                                                                                                  #  PROGRAM.    1) BY ENDIDLE
003615:                                                                                                  #              2) BY NVSUBUSY
003616:                                                                                                  #  THE BASIC CONVENTION IS THAT ONLY ONE JOB WILL BE PERMITTED ASLEEP VIA
003617:                                                                                                  #  THE KEYBOARD + DISPLAY PROGRAM AT A TIME. IF A JOB ATTEMPTS TO GO TO
003618:                                                                                                  #  SLEEP BY MEANS OF (1) OR (2) AND THERE IS ALREADY A JOB ASLEEP THAT WAS
003619:                                                                                                  #  PUT TO SLEEP BY (1) OR (2), THEN AN ABORT IS CAUSED.
003620:
003621:
003622:                                                                                                  #  THE CALLING SEQUENCE FOR NVSUB IS
003623:                                                                                                  #           CAF    V/N
003624:                                                                                                  #  L        TC     NVSUB
003625:                                                                                                  #  L+1      RETURN HERE IF OPERATOR HAS INTERVENED
003626:                                                                                                  #  L+2      RETURN HERE AFTER EXECUTION
003627:
003628:
003629:                                                                                                  #        A ROUTINE CALLED  NVSUBUSY IS PROVIDED (USE IS OPTIONAL)  TO PUT
003630:                                                                                                  #  YOUR JOB TO SLEEP UNTIL THE OPERATOR RELEASES THE KEYBOARD + DISPLAY
003631:                                                                                                  #  SYSTEM. NVSUBUSY ALSO TURNS ON THE KEY RELEASE LIGHT.
003632:                                                                                                  #  NVSUBUSY CANNOT BE CALLED FROM ERASABLE OR F/F MEMORY,
003633:                                                                                                  #  SINCE JOBSLEEP AND JOBWAKE CAN HANDLE ONLY FIXED BANKS.
003634:
003635:
003636:                                                                                                  #         THE CALLING SEQUENCE IS
003637:                                                                                                  #           CAF    WAKEFCADR
003638:                                                                                                  #           TC     NVSUBUSY
003639:
003640:
003641:                                                                                                  #  .
003642:
003643:
003644:                                                                                                  #  NVSUBUSY IS INTENDED FOR USE WHEN AN INTERNAL PROGRAM FINDS THE OPERATOR
003645:                                                                                                  #  IS USING THE KEYBOARD + DISPLAY PROGRAM (BY HIS OWN INITIATION). IT IS
003646:                                                                                                  #  NOT INTENDED FOR USE WHEN ONE INTERNAL PROGRAM FINDS ANOTHER INTERNAL
003647:                                                                                                  #  PROGRAM USING THE KEYBOARD + DISPLAY PROGRAM.
003648:
003649:
003650:                                                                                                  #  NVSUBUSY ABORTS (WITH CODE 01206) IF A SECOND JOB ATTEMPTS TO GO TO
003651:                                                                                                  #  SLEEP IN PINBALL. IN PARTICULAR, IF AN ATTEMPT IS MADE TO GO TO NVSUBUSY
003652:                                                                                                  #  WHEN
003653:                                                                                                  #  1) DSPLIST NOT= +0. THIS IS THE CASE WHERE THE CAPACITY OF THE DSPLIST
003654:                                                                                                  #     IS EXCEEDED.
003655:                                                                                                  #  2) CADRSTOR NOT= +0. THIS INDICATES THAT A JOB IS ALREADY USING


003657:                                                                                                  #  ENDIDLE. (+-NZ INDICATE A JOB IS ALREADY ASLEEP DUE TO ENDIDLE.)
003658:
003659:    4430           44435        PRENVBSY           CS       2K+3                                  #  SPECIAL ENTRANCE FOR ROUTINES IN FIXED
003660:    4431           60002                           AD       Q                                     #  BANKS ONLY DESIRING THE FCADR OF(LOC
003661:    4432           60004                           AD       FBANK                                 #  FROM WHICH THE TC PRENVBSY WAS DONE) -2
003662:    4433           04626        NVSUBUSY           TC       POSTJUMP                              #  TO BE ENTERED.
003663:    4434           10670                           CADR     NVSUBSY1
003664:    4435           02003        2K+3               OCT      2003
003665:
003666:                                                                                                  #  NVSUBSY1 MUST BE IN BANK 27 OR LOWER, SO IT WILL PUT CALLER TO SLEEP
003667:                                                                                                  #  WITH HIS PROPER SUPERBITS.
003668:
003669: 04,2670                                           SETLOC   ENDSPMM    +1
003670: 04,2670                                           COUNT*   $$/PIN
003671: 04,2670           54001        NVSUBSY1           TS       L
003672: 04,2671           04211                           TC       ISCADR+0                              #  ABORT IF CADRSTOR NOT= +0.
003673: 04,2672           04215                           TC       ISLIST+0                              #  ABORT IF DSPLIST NOT= +0.
003674: 04,2673           04365                           TC       RELDSPON
003675: 04,2674           30001                           CA       L
003676: 04,2675           55042                           TS       DSPLIST
003677: 04,2676           05124        ENDNVBSY           TC       JOBSLEEP
003678:
003679:
003680:                                                                                                  #  NVSBWAIT IS A SPECIAL ENTRANCE FOR ROUTINES IN FIXED BANKS ONLY. IF
003681:                                                                                                  #  SYSTEM IS NOT BUSY, IT EXECUTES V/N AND RETURNS TO L+1 (L= LOC FROM
003682:                                                                                                  #  WHICH THE TC NVSBWAIT WAS DONE). IF SYSTEM IS BUSY, IT PUTS CALLING JOB
003683:                                                                                                  #  TO SLEEP WITH L-1 GOING INTO LIST FOR EVENTUAL WAKING UP WHEN SYSTEM
003684:                                                                                                  #  IS NOT BUSY.
003685:
003686:    4436                                           SETLOC   NVSUBUSY   +3
003687:    4436                                           COUNT*   $$/PIN
003688:    4436           22007        NVSBWAIT           LXCH     7                                     #  ZERO NVMONOPT OPTIONS
003689:    4437           54123                           TS       NVTEMP
003690:    4440           34727                           CAF      BIT14
003691:    4441           71020                           MASK     MONSAVE1                              #  EXTERNAL MONITOR BIT
003692:    4442           61011                           AD       DSPLOCK
003693:    4443           10000                           CCS      A
003694:    4444           14446                           TCF      NVSBWT1                               #  BUSY
003695:    4445           14155                           TCF      NVSBCOM                               #  FREE. NVSUB WILL SAVE L+1 FOR RETURN
003696:                                                                                                  #  AFTER EXECUTION.
003697:    4446           24002        NVSBWT1            INCR     Q                                     #  L+2. PRENVBSY WILL PUT L-1 INTO LIST AND
003698:    4447           14430                           TCF      PRENVBSY                              #  GO TO SLEEP.
003699:
003700:
003701:                                                                                                  #  RELDSP IS USED BY VBPROC, VBTERM, VBRQEXEC, VBRQWAIT, VBRELDSP, EXTENDED
003702:                                                                                                  #  VERB DISPATCHER, VBRESEQ, RECALTST.
003703:                                                                                                  #  RELDSP1 IS USED BY MONITOR SET UP, VBRELDSP.
003704:    4450           56002        RELDSP             XCH      Q                                     #  SET DSPLOCK TO +0, TURN RELDSP LIGHT
003705:    4451           54144                           TS       RELRET                                #  OFF,  SEARCH DSPLIST
003706:    4452           44727                           CS       BIT14


003708:    4453           00004                           INHINT
003709:    4454           71020                           MASK     MONSAVE1
003710:    4455           55020                           TS       MONSAVE1                              #  TURN OFF EXTERNAL MONITOR BIT
003711:    4456           11042                           CCS      DSPLIST
003712:    4457           04461                           TC       +2
003713:    4460           04464                           TC       RELDSP2                               #  LIST EMPTY
003714:    4461           34746                           CAF      ZERO
003715:    4462           57042                           XCH      DSPLIST
003716:    4463           05130                           TC       JOBWAKE
003717:    4464           00003        RELDSP2            RELINT
003718:    4465           44740                           CS       BIT5                                  #  TURN OFF KEY RELEASE LIGHT
003719:    4466           00006                           EXTEND                                         #  (BIT 5 OF CHANNEL 11)
003720:    4467           03011                           WAND     DSALMOUT
003721:    4470           34746                           CAF      ZERO
003722:    4471           55011                           TS       DSPLOCK
003723:    4472           00144                           TC       RELRET
003724:    4473           56002        RELDSP1            XCH      Q                                     #  SET DSPLOCK TO +0. NO DSPLIST SEARCH.
003725:    4474           54144                           TS       RELRET                                #  TURN KEY RLSE LIGHT OFF IF DSPLIST IS
003726:                                                                                                  #  EMPTY. LEAVE KEY RLSE LIGHT ALONE IF
003727:                                                                                                  #  DSPLIST IS NOT EMPTY.
003728:    4475           11042                           CCS      DSPLIST
003729:    4476           04500                           TC       +2                                    #  +  NOT EMPTY. LEAVE KEY RLSE LIGHT ALONE
003730:    4477           04464                           TC       RELDSP2                               #  +0 EMPTY. TURN OFF KEY RLSE LIGHT
003731:    4500           34746                           CAF      ZERO                                  #  -  NOT EMPTY. LEAVE KEY RLSE LIGHT ALONE
003732:    4501           55011                           TS       DSPLOCK
003733:    4502           00144                           TC       RELRET
003734:
003735:
003736:    4503                        ENDPINBF           EQUALS
003737:


003739:                                                                                                  #  PINTEST IS NEEDED FOR AUTO CHECK OF PINBALL.
003740:
003741:    4503  43,2002               PINTEST            EQUALS   LST2FAN
003742:


003744:                                                                                                  #  VBTSTLTS TURNS ON ALL DISPLAY PANEL LIGHTS. AFTER 5 SEC, IT TURNS
003745:                                                                                                  #  OFF THE CAUTION AND STATUS LIGHTS.
003746:
003747: 41,3662                                           SETLOC   ENDNVSB1   +1
003748:
003749: 41,3662                                           COUNT*   $$/PIN
003750: 41,3662           00004        VBTSTLTS           INHINT
003751: 41,3663           04607                           TC       BANKCALL                              #  OPP ERR IF NOT IN POO
003752: 41,3664           66121                           CADR     CHKPOOH
003753: 41,3665           44744                           CS       BIT1                                  #  SET BIT 1 OF IMODES33 SO IMUMON WONT
003754: 41,3666           71300                           MASK     IMODES33                              #  TURN OUT ANY LAMPS.
003755: 41,3667           64744                           AD       BIT1
003756: 41,3670           55300                           TS       IMODES33
003757:
003758: 41,3671           33730                           CAF      TSTCON1                               #  TURN ON UPLINK ACTIVITY, TEMP, KEY RLSE,
003759: 41,3672           00006                           EXTEND                                         #  V/N FLASH, OPERATOR ERROR.
003760: 41,3673           05011                           WOR      DSALMOUT
003761: 41,3674           33731                           CAF      TSTCON2                               #  TURN ON NO ATT, GIMBAL LOCK, TRACKER,
003762: 41,3675           55035                           TS       DSPTAB     +11D                       #  PROG ALM.
003763: 41,3676           06040                           TC       C13STALL
003764: 41,3677           34733                           CAF      BIT10                                 #  TURN ON TEST ALARM OUTBIT
003765: 41,3700           00006                           EXTEND
003766: 41,3701           05013                           WOR      CHAN13
003767: 41,3702           34354                           CAF      TEN
003768: 41,3703           54117        TSTLTS1            TS       ERCNT
003769: 41,3704           43726                           CS       FULLDSP
003770: 41,3705           50117                           INDEX    ERCNT
003771: 41,3706           55022                           TS       DSPTAB
003772: 41,3707           10117                           CCS      ERCNT
003773: 41,3710           03703                           TC       TSTLTS1
003774: 41,3711           43727                           CS       FULLDSP1
003775: 41,3712           55023                           TS       DSPTAB     +1                         #  TURN ON 3 PLUS SIGNS
003776: 41,3713           55026                           TS       DSPTAB     +4
003777: 41,3714           55030                           TS       DSPTAB     +6
003778: 41,3715           34751                           CAF      ELEVEN
003779: 41,3716           55015                           TS       NOUT
003780: 41,3717           00003                           RELINT
003781: 41,3720           33733                           CAF      SHOLTS
003782: 41,3721           00004                           INHINT
003783: 41,3722           05205                           TC       WAITLIST
003784: 41,3723     1022                                  EBANK=   DSPTAB
003785: 41,3723           03641 60102                     2CADR    TSTLTS2
003786:
003787: 41,3725           05146                           TC       ENDOFJOB                              #  DSPLOCK IS LEFT BUSY (FROM KEYBOARD
003788:                                                                                                  #  ACTION) UNTIL TSTLTS3 TO INSURE THAT
003789:                                                                                                  #  LIGHTS TEST WILL BE SEEN.
003790:
003791:
003792: 41,3726           05675        FULLDSP            OCT      05675                                 #  DISPLAY ALL 8:S
003793: 41,3727           07675        FULLDSP1           OCT      07675                                 #  DISPLAY ALL 8:S AND +
003794:


003796: 41,3730           00175        TSTCON1            OCT      00175
003797:                                                                                                  #  UPLINK ACTIVITY, TEMP, KEY RLSE,
003798:                                                                                                  #  V/N FLASH, OPERATOR ERROR.
003799: 41,3731           40677        TSTCON2            OCT      40677                                 #  DSPTAB +11D BITS 1,2,3,4,5,6,8,9.
003800:                                                                                                  #        DAP, LR, SUPER KEYREL,
003801:                                                                                                  #  NO ATT, GIMBAL LOCK, TRACKER, PROG ALM.
003802: 41,3732           00115        TSTCON3            OCT      0115                                  #  CHAN 11  BITS 1, 3, 4, 7.
003803:                                                                                                  #  UPLINK ACTIVITY, TEMP, OPERATOR ERROR.
003804: 41,3733           00764        SHOLTS             OCT      764                                   #  5 SEC
003805:
003806:
003807: 40,2000                                           SETLOC   PINBALL1
003808: 40,2000                                           BANK
003809:
003810: 40,3641           34346        TSTLTS2            CAF      CHRPRIO                               #  CALLED BY WAITLIST
003811: 40,3642           05063                           TC       NOVAC
003812: 40,3643     1022                                  EBANK=   DSPTAB
003813: 40,3643           03734 62102                     2CADR    TSTLTS3
003814:
003815: 40,3645           05263                           TC       TASKOVER
003816:
003817:
003818: 41,2000                                           SETLOC   PINBALL2
003819: 41,2000                                           BANK
003820:
003821: 41,3734           43732        TSTLTS3            CS       TSTCON3                               #  CALLED BY EXECUTIVE
003822: 41,3735           00004                           INHINT
003823: 41,3736           00006                           EXTEND                                         #  TURN OFF  UPLINK ACTIVITY, TEMP,
003824: 41,3737           03011                           WAND     DSALMOUT                              #  OPERATOR ERROR.
003825: 41,3740           06040                           TC       C13STALL
003826: 41,3741           44733                           CS       BIT10                                 #  TURN OFF TEST ALARM OUTBIT
003827: 41,3742           00006                           EXTEND
003828: 41,3743           03013                           WAND     CHAN13
003829: 41,3744           34741                           CAF      BIT4                                  #  MAKE NO ATT FOLLOW BIT 4 OF CHANNEL 12
003830: 41,3745           00006                           EXTEND                                         #    (NO ATT LIGHT ON IF IN COARSE ALIGN)
003831: 41,3746           02012                           RAND     CHAN12
003832: 41,3747           64726                           AD       BIT15                                 #  TURN OFF AUTO, HOLD, FREE, SPARE,
003833: 41,3750           55035                           TS       DSPTAB     +11D                       #  GIMBAL LOCK, SPARE, TRACKER, PROG ALM
003834: 41,3751           43774                           CS       13-11,1                               #  SET BITS TO INDICATE ALL LAMPS OUT. TEST
003835: 41,3752           71300                           MASK     IMODES33                              #  LIGHTS COMPLETE.
003836: 41,3753           65017                           AD       PRIO16
003837: 41,3754           55300                           TS       IMODES33
003838:
003839: 41,3755           43776                           CS       OCT55000
003840: 41,3756           71277                           MASK     IMODES30
003841: 41,3757           65016                           AD       PRIO15                                #  15000.
003842: 41,3760           55277                           TS       IMODES30
003843:
003844: 41,3761           43775                           CS       RFAILS2
003845: 41,3762           70110                           MASK     RADMODES


003847: 41,3763           64736                           AD       RCDUFBIT
003848: 41,3764           54110                           TS       RADMODES
003849:
003850: 41,3765           00003                           RELINT
003851:
003852: 41,3766           04607                           TC       BANKCALL                              #  REDISPLAY C(MODREG)
003853: 41,3767           10657                           CADR     DSPMM
003854: 41,3770           04175                           TC       KILMONON                              #  TURN ON KILL MONITOR BIT.
003855: 41,3771           04424                           TC       FLASHOFF                              #  TURN OFF V/N FLASH.
003856: 41,3772           04626                           TC       POSTJUMP                              #  DOES RELDSP AND GOES TO PINBRNCH IF
003857: 41,3773           61527                           CADR     TSTLTS4                               #   ENDIDLE IS AWAITING OPERATOR RESPONSE.
003858: 41,3774           16001        13-11,1            OCT      16001
003859: 41,3775           00330        RFAILS2            OCT      330                                   #  RADAR CDU AND DATA FAIL FLAGS.
003860: 41,3776           55000        OCT55000           OCT      55000
003861: 41,3777                        ENDPINS2           EQUALS
003862:


003864:                                                                                                  #  ERROR LIGHT RESET (RSET) TURNS OFF,
003865:                                                                                                  #  UPLINK ACTIVITY, AUTO, HOLD, FREE, OPERATOR ERROR,
003866:                                                                                                  #  PROG ALM, TRACKER FAIL.
003867:                                                                                                  #  LEAVES GIMBAL LOCK AND NO ATT ALONE.
003868:                                                                                                  #  IT ALSO ZEROES THE :TEST ALARM: OUT BIT, WHICH TURNS OFF STBY,RESTART.
003869:                                                                                                  #  IT ALSO SETS :CAUTION RESET: TO 1.
003870:                                                                                                  #  IT ALSO FORCES BIT 12 OF ALL DSPTAB ENTRIES TO 1.
003871:
003872: 40,2000                                           SETLOC   PINBALL1
003873: 40,2000                                           BANK
003874:
003875: 40,3646                                           COUNT*   $$/PIN
003876: 40,3646           56115        ERROR              XCH      21/22REG                              #  RESTORE ORIGINAL C(DSPLOCK). THUS ERROR
003877: 40,3647           55011                           TS       DSPLOCK                               #  LIGHT RESET LEAVES DSPLOCK UNCHANGED.
003878: 40,3650           00004                           INHINT
003879: 40,3651           34733                           CAF      BIT10                                 #  TURN ON :CAUTION RESET: OUTBIT
003880: 40,3652           00006                           EXTEND
003881: 40,3653           05011                           WOR      DSALMOUT                              #  BIT10 CHAN 11
003882: 40,3654           33735                           CAF      GL,ETC.                               #  LEAVE GIMBAL LOCK, NO ATT, DAPLITE,
003883:                                                                                                  #    & SUPER KEYRELEASE LITES INTACT
003884: 40,3655           71035                           MASK     DSPTAB     +11D                       #  TURNING OFF AUTO, HOLD, FREE,
003885: 40,3656           64726                           AD       BIT15                                 #  PROG ALARM, AND TRACKER.
003886: 40,3657           55035                           TS       DSPTAB     +11D
003887: 40,3660           45017                           CS       PRIO16                                #  RESET FAIL BITS WHICH GENERATE PROG
003888: 40,3661           71300                           MASK     IMODES33                              #  ALARM SO THAT IF THE FAILURE STILL
003889: 40,3662           65017                           AD       PRIO16                                #  EXISTS, THE ALARM WILL COME BACK.
003890: 40,3663           55300                           TS       IMODES33
003891: 40,3664           44733                           CS       BIT10
003892: 40,3665           71277                           MASK     IMODES30
003893: 40,3666           64733                           AD       BIT10
003894: 40,3667           55277                           TS       IMODES30
003895:
003896: 40,3670           43734                           CS       RFAILS
003897: 40,3671           70110                           MASK     RADMODES
003898: 40,3672           64736                           AD       RCDUFBIT
003899: 40,3673           54110                           TS       RADMODES
003900:
003901: 40,3674           06040                           TC       C13STALL
003902: 40,3675           44733                           CS       BIT10                                 #  TURN OFF :TEST ALARM: OUTBIT.
003903: 40,3676           00006                           EXTEND
003904: 40,3677           03013                           WAND     CHAN13
003905: 40,3700           43733                           CS       ERCON                                 #  TURN OFF UPLINK ACTIVITY,
003906: 40,3701           00006                           EXTEND                                         #  OPERATOR ERROR.
003907: 40,3702           03011                           WAND     DSALMOUT
003908: 40,3703           34354        TSTAB              CAF      BINCON                                #  (DEC 10)
003909: 40,3704           54117                           TS       ERCNT                                 #  ERCNT = COUNT
003910: 40,3705           00004                           INHINT
003911: 40,3706           50117                           INDEX    ERCNT
003912: 40,3707           11022                           CCS      DSPTAB
003913: 40,3710           64744                           AD       ONE


003915: 40,3711           03716                           TC       ERPLUS
003916: 40,3712           64744                           AD       ONE
003917: 40,3713           40000        ERMINUS            CS       A
003918: 40,3714           73736                           MASK     NOTBIT12
003919: 40,3715           03721                           TC       ERCOM
003920: 40,3716           40000        ERPLUS             CS       A
003921: 40,3717           73736                           MASK     NOTBIT12
003922: 40,3720           40000                           CS       A                                     #  MIGHT WANT TO RESET CLPASS, DECBRNCH,
003923: 40,3721           50117        ERCOM              INDEX    ERCNT                                 #  ETC.
003924: 40,3722           55022                           TS       DSPTAB
003925: 40,3723           00003                           RELINT
003926: 40,3724           10117                           CCS      ERCNT
003927: 40,3725           03704                           TC       TSTAB      +1
003928: 40,3726           34746                           CAF      ZERO
003929: 40,3727           54375                           TS       FAILREG
003930: 40,3730           54376                           TS       FAILREG    +1
003931: 40,3731           55357                           TS       SFAIL
003932: 40,3732           05146                           TC       ENDOFJOB
003933:
003934: 40,3733           00104        ERCON              OCT      104                                   #  CHAN 11 BITS 3,7.
003935:                                                                                                  #  UPLINK ACTIVITY, AND OPERATOR ERROR.
003936: 40,3734           00330        RFAILS             OCT      330                                   #  RADAR CDU AND DATA FAIL FLAGS.
003937: 40,3735           00053        GL,ETC.            OCT      00053                                 #  NO ATT, GIMB LOCK, DAPLITE, SUPER KR.
003938: 40,3736           73777        NOTBIT12           OCT      73777
003939:
003940:
003941: 40,3737                        ENDPINS1           EQUALS
003942:
003943:
003944: 40,3737  30,2000                                  SBANK=   LOWSUPER

End of include-file PINBALL_GAME__BUTTONS_AND_LIGHTS.agc.  Parent file is MAIN.agc


