
Source Code


000002:                                                                                                  ## Copyright:   Public domain.
000003:                                                                                                  ## Filename:    PLANETARY_INERTIAL_ORIENTATION.agc
000004:                                                                                                  ## Purpose:     A section of Luminary revision 210.
000005:                                                                                                  ##              It is part of the source code for the Lunar Module's (LM)
000006:                                                                                                  ##              Apollo Guidance Computer (AGC) for Apollo 15-17.
000007:                                                                                                  ##              This file is intended to be a faithful transcription, except
000008:                                                                                                  ##              that the code format has been changed to conform to the
000009:                                                                                                  ##              requirements of the yaYUL assembler rather than the
000010:                                                                                                  ##              original YUL assembler.
000011:                                                                                                  ## Reference:   pp. 1138-1146
000012:                                                                                                  ## Assembler:   yaYUL
000013:                                                                                                  ## Contact:     Ron Burkey <info@sandroid.org>.
000014:                                                                                                  ## Website:     www.ibiblio.org/apollo/index.html
000015:                                                                                                  ## Mod history: 2016-11-17 JL   Created from Luminary131 version.
000016:                                                                                                  ##              2016-12-09 JS   Compared to Luminary210 images. Updated where needed.
000017:                                                                                                  ##              2016-12-26 RSB  Comment-text proofed using ProoferComments
000018:                                                                                                  ##                              and corrected errors found.
000019:                                                                                                  ##              2017-03-16 RSB  Comment-text fixes identified in 5-way
000020:                                                                                                  ##                              side-by-side diff of Luminary 69/99/116/131/210.
000021:


000023:                                                                                                  #  ..... RP-TO-R SUBROUTINE .....
000024:                                                                                                  #  SUBROUTINE TO CONVERT RP (VECTOR IN PLANETARY COORDINATE SYSTEM,EITHER
000025:                                                                                                  #   EARTH-FIXED OR MOON-FIXED) TO R (SAME VECTOR IN THE BASIC REF. SYSTEM)
000026:                                                                                                  #   R=MT(T)*(RP+LPXRP)    MT = M MATRIX TRANSPOSE
000027:
000028:                                                                                                  #  CALLING SEQUENCE
000029:                                                                                                  #   L       CALL
000030:                                                                                                  #   L+1            RP-TO-R
000031:
000032:                                                                                                  #  SUBROUTINES USED
000033:                                                                                                  #   EARTHMX,MOONMX,EARTHL
000034:
000035:                                                                                                  #    ITEMS AVAILABLE FROM LAUNCH DATA
000036:                                                                                                  #     504LM= THE LIBRATION VECTOR L OF THE MOON AT TIME TIMSUBL,EXPRESSED
000037:                                                                                                  #      IN THE MOON-FIXED COORD. SYSTEM  RADIANS  B0
000038:                                                                                                  #        ITEMS NECESSARY FOR SUBR. USED (SEE DESCRIPTION OF SUBR.)
000039:
000040:                                                                                                  #  INPUT
000041:                                                                                                  #   MPAC= 0 FOR EARTH,NON-ZERO FOR MOON
000042:                                                                                                  #   0-5D= RP VECTOR
000043:                                                                                                  #   6-7D= TIME
000044:
000045:                                                                                                  #  OUTPUT
000046:                                                                                                  #   MPAC = R VECTOR METERS B-29 FOR EARTH, B-27 FOR MOON
000047:
000048: 26,2000                                           SETLOC   PLANTIN1
000049: 26,2000                                           BANK
000050:
000051: 26,3716                                           COUNT*   $$/LUROT
000052:
000053: 26,3716           46020        RP-TO-R            STQ      BHIZ
000054: 26,3717           00050                                    RPREXIT
000055: 26,3720           55733                                    RPTORA
000056: 26,3721           77624                           CALL                                           #  COMPUTE M MATRIX FOR MOON
000057: 26,3722           51674                                    MOONMX                                #  LP=LM FOR MOON  RADIANS B0
000058: 26,3723           77775                           VLOAD
000059: 26,3724           02013                                    504LM
000060: 26,3725           53235        RPTORB             VXV      VAD
000061: 26,3726           00001                                    504RPR
000062: 26,3727           00001                                    504RPR
000063: 26,3730           52105                           VXM      GOTO
000064: 26,3731           00025                                    MMATRIX                               #  MPAC=R=MT(T)*(RP+LPXRP)
000065: 26,3732           51662                                    RPRPXXXX                              #  RESET PUSHLOC TO 0 BEFORE EXITING
000066: 26,3733           77624        RPTORA             CALL                                           #  EARTH COMPUTATIONS
000067: 26,3734           55743                                    EARTHMX                               #  M MATRIX B-1
000068: 26,3735           77624                           CALL
000069: 26,3736           15765                                    EARTHL                                #  L VECTOR RADIANS B0
000070: 26,3737           76521                           MXV      VSL1                                  #  LP=M(T)*L  RAD B-0
000071: 26,3740           00025                                    MMATRIX
000072:


000074: 26,3741           77650                           GOTO
000075: 26,3742           55725                                    RPTORB
000076: 24,2000                                           SETLOC   PLANTIN
000077: 24,2000                                           BANK
000078: 24,3644                                           COUNT*   $$/LUROT
000079:


000081:                                                                                                  #  ..... R-TO-RP SUBROUTINE .....
000082:                                                                                                  #  SUBROUTINE TO CONVERT R (VECTOR IN REFERENCE COORD. SYSTEM) TO RP
000083:                                                                                                  #   (VECTOR IN PLANETARY COORD SYSTEM) EITHER EARTH-FIXED OR MOON-FIXED
000084:                                                                                                  #   RP=M(T)*(R-LXR)
000085:
000086:                                                                                                  #  CALLING SEQUENCE
000087:                                                                                                  #   L       CALL
000088:                                                                                                  #   L+1     R-TO-RP
000089:
000090:                                                                                                  #  SUBROUTINES USED
000091:                                                                                                  #   EARTHMX, MOONMX, EARTHL
000092:
000093:                                                                                                  #  INPUT
000094:                                                                                                  #   MPAC= 0 FOR EARTH,NON-ZERO FOR MOON
000095:                                                                                                  #   0-5D= R VECTOR
000096:                                                                                                  #   6-7D= TIME
000097:
000098:                                                                                                  #     ITEMS AVAILABLE FROM LAUNCH DATA
000099:                                                                                                  #      504LM= THE LIBRATION VECTOR L OF THE MOON AT TIME TIMSUBL,EXPRESSED
000100:                                                                                                  #      IN THE MOON-FIXED COORD. SYSTEM   RADIANS B0
000101:                                                                                                  #        ITEMS NECESSARY FOR SUBROUTINES USED (SEE DESCRIPTION OF SUBR.)
000102:
000103:                                                                                                  #  OUTPUT
000104:                                                                                                  #   MPAC=RP VECTOR METERS B-29 FOR EARTH, B-27 FOR MOON
000105:
000106: 24,3644           46020        R-TO-RP            STQ      BHIZ
000107: 24,3645           00050                                    RPREXIT
000108: 24,3646           51666                                    RTORPA
000109: 24,3647           77624                           CALL
000110: 24,3650           51674                                    MOONMX
000111: 24,3651           61375                           VLOAD    VXM
000112: 24,3652           02013                                    504LM                                 #  LP=LM
000113: 24,3653           00025                                    MMATRIX
000114: 24,3654           77772                           VSL1                                           #   L=MT(T)*LP  RADIANS B0
000115: 24,3655           51235        RTORPB             VXV      BVSU
000116: 24,3656           00001                                    504RPR
000117: 24,3657           00001                                    504RPR
000118: 24,3660           77721                           MXV                                            #  M(T)*(R-LXR) B-2
000119: 24,3661           00025                                    MMATRIX
000120: 24,3662           40372        RPRPXXXX           VSL1     SETPD
000121: 24,3663           00001                                    0D
000122: 24,3664           77650                           GOTO
000123: 24,3665           00050                                    RPREXIT
000124: 24,3666           77624        RTORPA             CALL                                           #  EARTH COMPUTATIONS
000125: 24,3667           55743                                    EARTHMX
000126: 24,3670           77624                           CALL
000127: 24,3671           15765                                    EARTHL
000128: 24,3672           77650                           GOTO                                           #  MPAC=L=(-AX,-AY,0) RAD B-0
000129: 24,3673           51655                                    RTORPB
000130:


000132:                                                                                                  #  ..... MOONMX SUBROUTINE .....
000133:                                                                                                  #  SUBROUTINE TO COMPUTE THE TRANSFORMATION MATRIX M FOR THE MOON
000134:
000135:                                                                                                  #  CALLING SEQUENCE
000136:                                                                                                  #   L       CALL
000137:                                                                                                  #   L+1     MOONMX
000138:
000139:                                                                                                  #  SUBROUTINES USED
000140:                                                                                                  #   NEWANGLE
000141:
000142:                                                                                                  #  INPUT
000143:                                                                                                  #   6-7D= TIME
000144:                                                                                                  #     ITEMS AVAILABLE FROM LAUNCH DATA
000145:                                                                                                  #      BSUBO,BDOT
000146:                                                                                                  #      TIMSUBO,NODIO,NODDOT,FSUBO,FDOT
000147:                                                                                                  #      COSI= COS(I) B-1
000148:                                                                                                  #      SINI= SIN(I) B-1
000149:                                                                                                  #        I IS THE ANGLE BETWEEN THE MEAN LUNAR EQUATORIAL PLANE AND THE
000150:                                                                                                  #        PLANE OF THE ECLIPTIC  (1 DEGREE 32.1 MINUTES)
000151:
000152:                                                                                                  #  OUTPUT
000153:                                                                                                  #   MMATRIX= 3X3 M MATRIX B-1   (STORED IN VAC AREA)
000154:
000155: 24,3674           40220        MOONMX             STQ      SETPD
000156: 24,3675           00051                                    EARTHMXX
000157: 24,3676           00011                                    8D
000158: 24,3677           77770                           AXT,1                                          #  B REQUIRES SL 0, SL 5 IN NEWANGLE
000159: 24,3700           00005                                    5
000160: 24,3701           65345                           DLOAD    PDDL                                  #  PD 10D            8-9D=BSUBO
000161: 24,3702           14017                                    BSUBO                                 #                    10-11D= BDOT
000162: 24,3703           14011                                    BDOT
000163: 24,3704           45006                           PUSH     CALL                                  #  PD 12D
000164: 24,3705           51743                                    NEWANGLE                              #  EXIT WITH PD 8D AND MPAC= B  REVS B0
000165: 24,3706           71406                           PUSH     COS                                   #  PD 10D
000166: 24,3707           14041                           STODL    COB                                   #  PD 8D    COS(B) B-1
000167: 24,3710           77756                           SIN                                            #           SIN(B) B-1
000168: 24,3711           14043                           STODL    SOB                                   #  SETUP INPUT FOR NEWANGLE
000169: 24,3712           14015                                    FSUBO                                 #                      8-9D=FSUBO
000170: 24,3713           41525                           PDDL     PUSH                                  #  PD 10D THEN 12D   10-11D=FDOT
000171: 24,3714           14007                                    FDOT
000172: 24,3715           45170                           AXT,1    CALL                                  #  F REQUIRES SL 1, SL 6 IN NEWANGLE
000173: 24,3716           00004                                    4
000174: 24,3717           51743                                    NEWANGLE                              #  EXIT WITH PD 8D AND MPAC= F REVS B0
000175: 24,3720           14027                           STODL    AVECTR     +2                         #  SAVE F TEMP
000176: 24,3721           14013                                    NODIO                                 #                      8-9D=NODIO
000177: 24,3722           41525                           PDDL     PUSH                                  #  PD 10D THEN 12D   10-11D=NODDOT
000178: 24,3723           14005                                    NODDOT                                #                      MPAC=T
000179: 24,3724           45170                           AXT,1    CALL                                  #  NODE REQUIRES SL 0, SL 5 IN NEWANGLE
000180: 24,3725           00005                                    5
000181: 24,3726           51743                                    NEWANGLE                              #  EXIT WITH PD 8D AND MPAC= NODI REVS B0
000182:


000184: 24,3727           71406                           PUSH     COS                                   #  PD 10D   8-9D= NODI  REVS  B0
000185: 24,3730           77606                           PUSH                                           #  PD 12D 10-11D= COS(NODI)  B-1
000186: 24,3731           00025                           STORE    AVECTR
000187: 24,3732           76405                           DMP      SL1R
000188: 24,3733           00041                                    COB                                   #                          COS(NODI)    B-1
000189: 24,3734           14035                           STODL    BVECTR     +2                         #  PD 10D   20-25D=AVECTR= COB*SIN(NODI)
000190: 24,3735           76405                           DMP      SL1R                                  #                          SOB*SIN(NODI)
000191: 24,3736           00043                                    SOB
000192: 24,3737           14037                           STODL    BVECTR     +4                         #  PD 8D
000193: 24,3740           41556                           SIN      PUSH                                  #  PD 10D                  -SIN(NODI)   B-1
000194: 24,3741           52076                           DCOMP    GOTO                                  #          26-31D=BVECTR= COV*COS(NODI)
000195: 24,3742           53712                                    MOONMXA
000196: 25,3712                                           BANK     25
000197: 25,2000                                           SETLOC   PLANTIN3
000198: 25,2000                                           BANK
000199: 25,3712                                           COUNT*   $$/LUROT
000200:
000201: 25,3712           14033        MOONMXA            STODL    BVECTR                                #  PD 8D                    SOB*COS(NODI)
000202: 25,3713           00027                                    AVECTR     +2                         #  MOVE F FROM TEMP LOC. TO 504F
000203: 25,3714           14007                           STODL    504F
000204: 25,3715           76405                           DMP      SL1R
000205: 25,3716           00041                                    COB
000206: 25,3717           14027                           STODL    AVECTR     +2
000207: 25,3720           00011                                    SINNODI                               #  8-9D=SIN(NODI)  B-1
000208: 25,3721           76405                           DMP      SL1R
000209: 25,3722           00043                                    SOB
000210: 25,3723           14031                           STODL    AVECTR     +4                         #                           0
000211: 25,3724           06505                                    HI6ZEROS                              #          8-13D= CVECTR= -SOB  B-1
000212: 25,3725           57525                           PDDL     DCOMP                                 #  PD 10D                  COB
000213: 25,3726           00043                                    SOB
000214: 25,3727           63325                           PDDL     PDVL                                  #  PD 12D THEN PD 14D
000215: 25,3730           00041                                    COB
000216: 25,3731           00033                                    BVECTR
000217: 25,3732           63361                           VXSC     PDVL                                  #  PD 20D         BVECTR*SINI  B-2
000218: 25,3733           14003                                    SINI
000219: 25,3734           00011                                    CVECTR
000220: 25,3735           53361                           VXSC     VAD                                   #  PD 14D         CVECTR*COSI  B-2
000221: 25,3736           14001                                    COSI
000222: 25,3737           77772                           VSL1
000223: 25,3740           24041                           STOVL    MMATRIX    +12D                       #  PD 8D  M2=BVECTR*SINI+CVECTR*COSI  B-1
000224: 25,3741           63361                           VXSC     PDVL                                  #  PD 14D
000225: 25,3742           14003                                    SINI                                  #                 CVECTR*SINI  B-2
000226: 25,3743           00033                                    BVECTR
000227: 25,3744           52361                           VXSC     VSU                                   #  PD 8D          BVECTR*COSI  B-2
000228: 25,3745           14001                                    COSI
000229: 25,3746           65372                           VSL1     PDDL                                  #  PD 14D
000230: 25,3747           00007                                    504F                                  #  8-13D=DVECTR=BVECTR*COSI-CVECTR*SINI B-1
000231: 25,3750           74346                           COS      VXSC
000232: 25,3751           00011                                    DVECTR
000233: 25,3752           73525                           PDDL     SIN                                   #  PD 20D  14-19D= DVECTR*COSF  B-2
000234:


000236: 25,3753           00007                                    504F
000237: 25,3754           52361                           VXSC     VSU                                   #  PD 14D          AVECTR*SINF  B-2
000238: 25,3755           00025                                    AVECTR
000239: 25,3756           77772                           VSL1
000240: 25,3757           14033                           STODL    MMATRIX    +6                         #  M1= AVECTR*SINF-DVECTR*COSF  B-1
000241: 25,3760           00007                                    504F
000242: 25,3761           74356                           SIN      VXSC                                  #  PD 8D
000243: 25,3762           71525                           PDDL     COS                                   #  PD 14D  8-13D=DVECTR*SINF B-2
000244: 25,3763           00007                                    504F
000245: 25,3764           53361                           VXSC     VAD                                   #  PD 8D         AVECTR*COSF B-2
000246: 25,3765           00025                                    AVECTR
000247: 25,3766           57572                           VSL1     VCOMP
000248: 25,3767           34025                           STCALL   MMATRIX                               #  M0= -(AVECTR*COSF+DVECTR*SINF)  B-1
000249: 25,3770           00051                                    EARTHMXX
000250:                                                                                                  #  COMPUTE X=X0+(XDOT)(T+T0)
000251:                                                                                                  #  8-9D= XO (REVS B-0),PUSHLOC SET AT 12D
000252:                                                                                                  #  10-11D=XDOT (REVS/CSEC) SCALED B+23 FOR WEARTH,B+28 FOR NODDOT AND BDOT
000253:                                                                                                  #                          AND B+27 FOR FDOT
000254:                                                                                                  #   X1=DIFFERENCE IN 23 AND SCALING OF XDOT,=0 FOR WEARTH,5 FOR NODDOT AND
000255:                                                                                                  #                                           BDOT AND 4 FOR FDOT
000256:                                                                                                  #  6-7D=T (CSEC B-28), TIMSUBO= (CSEC B-42 TRIPLE PREC.)
000257:
000258: 24,3743                                           BANK     24
000259: 24,2000                                           SETLOC   PLANTIN
000260: 24,2000                                           BANK
000261:
000262: 24,3743           54345        NEWANGLE           DLOAD    SR                                    #  ENTER PD 12D
000263: 24,3744           00007                                    6D
000264: 24,3745           20617                                    14D
000265: 24,3746           72371                           TAD      TLOAD                                 #  CHANGE MODE TO TP
000266: 24,3747           01707                                    TIMSUBO
000267: 24,3750           00155                                    MPAC
000268: 24,3751           14017                           STODL    TIMSUBM                               #  T+T0 CSEC B-42
000269: 24,3752           00020                                    TIMSUBM    +1
000270: 24,3753           77605                           DMP                                            #  PD 10D  MULT BY XDOT IN 10-11D
000271: 24,3754           43257                           SL*      DAD                                   #  PD 8D   ADD XO IN 8-9D AFTER SHIFTING
000272: 24,3755           20206                                    5,1                                   #          SUCH THAT SCALING IS B-0
000273: 24,3756           67206                           PUSH     SLOAD                                 #  PD 10D  SAVE PARTIAL (X0+XDOT*T) IN 8-9D
000274: 24,3757           00017                                    TIMSUBM
000275: 24,3760           41261                           SL       DMP
000276: 24,3761           20212                                    9D
000277: 24,3762           00013                                    10D                                   #  XDOT
000278: 24,3763           43257                           SL*      DAD                                   #  PD 8D    SHIFT SUCH THAT THIS PART OF X
000279: 24,3764           20213                                    10D,1                                 #           IS SCALED REVS/CSEC B-0
000280: 24,3765           77600                           BOV                                            #  TURN OFF OVERFLOW IF SET BY SHIFT
000281: 24,3766           51767                                    +1                                    #  INSTRUCTION BEFORE EXITING
000282: 24,3767           77616                           RVQ                                            #  MPAC=X= X0+(XDOT)(T+T0)  REVS B0
000283:


000285:                                                                                                  #  ..... EARTHMX SUBROUTINE .....
000286:                                                                                                  #  SUBROUTINE TO COMPUTE THE TRANSFORMATION MATRIX M FOR THE EARTH
000287:
000288:                                                                                                  #  CALLING SEQUENCE
000289:                                                                                                  #   L       CALL
000290:                                                                                                  #   L+1            EARTHMX
000291:
000292:                                                                                                  #  SUBROUTINES USED
000293:                                                                                                  #   NEWANGLE
000294:
000295:                                                                                                  #  INPUT
000296:                                                                                                  #     INPUT AVAILABLE FROM LAUNCH DATA      AZO  REVS B-0
000297:                                                                                                  #                                           TEPHEM  CSEC B-42
000298:                                                                                                  #   6-7D= TIME CSEC B-28
000299:
000300:                                                                                                  #  OUTPUT
000301:                                                                                                  #   MMATRIX= 3X3 M MATRIX B-1   (STORED IN VAC AREA)
000302:
000303: 26,3743                                           BANK     26
000304: 26,2000                                           SETLOC   PLANTIN1
000305: 26,2000                                           BANK
000306: 26,3743                                           COUNT*   $$/LUROT
000307:
000308: 26,3743           40220        EARTHMX            STQ      SETPD                                 #  SET   8-9D=AZO
000309: 26,3744           00051                                    EARTHMXX
000310: 26,3745           00011                                    8D                                    #  10-11D=WEARTH
000311: 26,3746           77770                           AXT,1                                          #  FOR SL 5, AND SL 10  IN NEWANGLE
000312: 26,3747           00000                                    0
000313: 26,3750           65345                           DLOAD    PDDL                                  #    LEAVING PD SET AT 12D FOR NEWANGLE
000314: 26,3751           14023                                    AZO
000315: 26,3752           14021                                    WEARTH
000316: 26,3753           45006                           PUSH     CALL
000317: 26,3754           51743                                    NEWANGLE
000318: 26,3755           41401                           SETPD    PUSH                                  #  18-19D=504AZ
000319: 26,3756           00023                                    18D                                   #                     COS(AZ) SIN(AZ) 0
000320: 26,3757           65346                           COS      PDDL                                  #  20-37D=  MMATRIX= -SIN(AZ) COS(AZ) 0 B-1
000321: 26,3760           00023                                    504AZ                                 #                      0       0      1
000322: 26,3761           65356                           SIN      PDDL
000323: 26,3762           06505                                    HI6ZEROS
000324: 26,3763           73525                           PDDL     SIN
000325: 26,3764           00023                                    504AZ
000326: 26,3765           65276                           DCOMP    PDDL
000327: 26,3766           00023                                    504AZ
000328: 26,3767           63346                           COS      PDVL
000329: 26,3770           06505                                    HI6ZEROS
000330: 26,3771           41525                           PDDL     PUSH
000331: 26,3772           06503                                    HIDPHALF
000332: 26,3773           77650                           GOTO
000333: 26,3774           00051                                    EARTHMXX
000334:


000336:                                                                                                  #  ..... EARTHL SUBROUTINE .....
000337:                                                                                                  #  SUBROUTINE TO COMPUTE L VECTOR FOR EARTH
000338:
000339:                                                                                                  #  CALLING SEQUENCE
000340:                                                                                                  #   L       CALL
000341:                                                                                                  #   L+1            EARTHL
000342:
000343:                                                                                                  #  INPUT
000344:                                                                                                  #   AXO,AYO SET AT LAUNCH TIME WITH AYO IMMEDIATELY FOLLOWING AXO IN CORE
000345:
000346:                                                                                                  #  OUTPUT
000347:                                                                                                  #            -AX
000348:                                                                                                  #    MPAC=   -AY    RADIANS B-0
000349:                                                                                                  #              0
000350:
000351: 06,3765                                           BANK     06
000352: 06,2000                                           SETLOC   EARTHLOC
000353: 06,2000                                           BANK
000354: 06,3765                                           COUNT*   $$/LUROT
000355:
000356: 06,3765           57545        EARTHL             DLOAD    DCOMP
000357: 06,3766           01714                                    AXO
000358: 06,3767           14017                           STODL    504LPL
000359: 06,3770           01712                                    -AYO
000360: 06,3771           14021                           STODL    504LPL     +2
000361: 06,3772           24007                                    LO6ZEROS
000362: 06,3773           24023                           STOVL    504LPL     +4
000363: 06,3774           00017                                    504LPL
000364: 06,3775           77616                           RVQ
000365:


000367:                                                                                                  #  CONSTANTS AND ERASABLE ASSIGNMENTS
000368:
000369: 06,3776  12,2004               1B1                =        DP1/2                                 #  1  SCALED B-1
000370: 06,3776  0000050               RPREXIT            =        S1                                    #  R-TO-RP AND RP-TO-R SUBR EXIT
000371: 06,3776  0000051               EARTHMXX           =        S2                                    #  EARTHMX,MOONMX SUBR. EXITS
000372: 06,3776                        504RPR             =        0D                                    #  6 REGS  R OR RP VECTOR
000373: 06,3776                        SINNODI            =        8D                                    #  2       SIN(NODI)
000374: 06,3776                        DVECTR             =        8D                                    #  6       D VECTOR MOON
000375: 06,3776                        CVECTR             =        8D                                    #  6       C VECTR MOON
000376: 06,3776                        504AZ              =        18D                                   #  2      AZ
000377: 06,3776                        TIMSUBM            =        14D                                   #  3       TIME SUB M (MOON) T+T0 IN GETAZ
000378: 06,3776                        504LPL             =        14D                                   #  6       L OR LP VECTOR
000379: 06,3776                        AVECTR             =        20D                                   #  6       A VECTOR (MOON)
000380: 06,3776                        BVECTR             =        26D                                   #  6       B VECTOR (MOON)
000381: 06,3776                        MMATRIX            =        20D                                   #  18      M MATRIX
000382: 06,3776                        COB                =        32D                                   #  2       COS(B) B-1
000383: 06,3776                        SOB                =        34D                                   #  2       SIN(B) B-1
000384: 06,3776                        504F               =        6D                                    #  2       F(MOON)
000385:

End of include-file PLANETARY_INERTIAL_ORIENTATION.agc.  Parent file is MAIN.agc


