
Source Code


000002:                                                                                                  ## Copyright:   Public domain.
000003:                                                                                                  ## Filename:    R30.agc
000004:                                                                                                  ## Purpose:     A section of Luminary revision 210.
000005:                                                                                                  ##              It is part of the source code for the Lunar Module's (LM)
000006:                                                                                                  ##              Apollo Guidance Computer (AGC) for Apollo 15-17.
000007:                                                                                                  ##              This file is intended to be a faithful transcription, except
000008:                                                                                                  ##              that the code format has been changed to conform to the
000009:                                                                                                  ##              requirements of the yaYUL assembler rather than the
000010:                                                                                                  ##              original YUL assembler.
000011:                                                                                                  ## Reference:   pp. 715-725
000012:                                                                                                  ## Assembler:   yaYUL
000013:                                                                                                  ## Contact:     Ron Burkey <info@sandroid.org>.
000014:                                                                                                  ## Website:     www.ibiblio.org/apollo/index.html
000015:                                                                                                  ## Mod history: 2016-11-17 JL   Created from Luminary131 version.
000016:                                                                                                  ##              2016-12-01 RSB  Completed transcription.  The only changes were
000017:                                                                                                  ##                              correction of typos and column alignment in the
000018:                                                                                                  ##                              program comments.
000019:                                                                                                  ##              2016-12-25 RSB  Comment-text proofed using ProoferComments
000020:                                                                                                  ##                              and corrected errors found.
000021:                                                                                                  ##              2017-02-08 RSB  Comment-text fixes discovered while proofing Artemis 72.
000022:


000024:                                                                                                  #  SUBROUTINE NAME:     V82CALL
000025:                                                                                                  #  MOD NO:  0                                                              DATE:           16 FEB 67
000026:                                                                                                  #  MOD BY:  RR BAIRNSFATHER                                                LOG SECTION:    R30
000027:                                                                                                  #  MOD NO: 1            MOD BY: RR BAIRNSFATHER       DATE: 11 APR 67      SR30.1 CHANGED TO ALLOW MONITOR OPERN
000028:                                                                                                  #  MOD  NO: 2           MOD  BY ALONSO                DATE : 11 DEC 67     VB82 PROGRAM REWRITTEN
000029:                                                                                                  #  MOD NO: 3            MOD  BY ALONSO                DATE: 26 MAR 68      PROG MOD TO HANDLE DIF EARTH/MOON SCALE
000030:                                                                                                  #   NEW FUNCTIONAL DESCRIPTION:    CALLED BY VERB 82 ENTER.  PRIORITY 10
000031:                                                                                                  #    USED THROUGHOUT.              CALCULATE AND DISPLAY ORBITAL PARAMETERS
000032:
000033:                                                                                                  #  1. IF AVERAGE G IS OFF:
000034:                                                                                                  #           FLASH DISPLAY V04N06. R2 INDICATES WHICH SHIP'S STATE VECTOR IS
000035:                                                                                                  #            TO BE UPDATED. INITIAL CHOICE IS THIS SHIP (R2=1). ASTRONAUT
000036:                                                                                                  #            CAN CHANGE TO OTHER SHIP BY V22EXE. WHERE X NOT EQ 1.
000037:                                                                                                  #           SELECTED STATE VECTOR UPDATED BY THISPREC (OTHPREC).
000038:                                                                                                  #           CALLS SR30.1 (WHICH CALLS TFFCONMU + TFFRP/RA) TO CALCULATE
000039:                                                                                                  #            RPER (PERIGEE RADIUS), RAPO (APOGEE RADIUS), HPER (PERIGEE
000040:                                                                                                  #            HEIGHT ABOVE LAUNCH PAD OR LUNAR LANDING SITE), HAPO (APOGEE
000041:                                                                                                  #            HEIGHT AS ABOVE), TPER (TIME TO PERIGEE), TFF (TIME TO
000042:                                                                                                  #            INTERSECT 300 KFT ABOVE PAD OR 35KFT ABOVE LANDING SITE).
000043:                                                                                                  #           FLASH MONITOR V16N44 (HAPO, HPER, TFF).TFF IS -59M59S IF IT WAS
000044:                                                                                                  #            NOT COMPUTABLE, OTHERWISE IT INCREMENTS ONCE PER SECOND.
000045:                                                                                                  #            ASTRONAUT HAS OPTION TO MONITOR TPER BY KEYING IN N 32 E.
000046:                                                                                                  #            DISPLAY IS IN HMS, IS NEGATIVE (AS WAS TFF), AND INCREMENTS
000047:                                                                                                  #            ONCE PER SECOND ONLY IF TFF DISPLAY WAS -59M59S.
000048:
000049:                                                                                                  #  2. IF AVERAGE G IS ON:
000050:                                                                                                  #           CALLS SR30.1 APPROX EVERY TWO SECS.  STATE VECTOR IS ALWAYS
000051:                                                                                                  #            FOR THIS VEHICLE. V82 DOES NOT DISTURB STATE VECTOR.  RESULTS
000052:                                                                                                  #            OF SR30.1 ARE RAPO, RPER, HAPO, HPER, TPER, TFF.
000053:                                                                                                  #           FLASH MONITOR V16N44 (HAPO, HPER, TFF).
000054:                                                                                                  #  ADDENDUM: HAPO AND HPER SHOULD BE CHANGED TO READ HAPOX AND HPERX IN THE
000055:                                                                                                  #            ABOVE REMARKS.
000056:
000057:                                                                                                  #  CALLING SEQUENCE:  VERB 82 ENTER.
000058:
000059:
000060:                                                                                                  #  SUBROUTINES CALLED:  SR30.1, GOXDSPF
000061:                                                                                                  #                       MAYBE - THISPREC , OTHPREC, LOADTIME, DELRSPL
000062:                                                                                                  #  NORMAL EXIT MODES:  TC ENDEXT
000063:
000064:                                                                                                  #  ALARMS:  NONE
000065:
000066:                                                                                                  #  OUTPUT:  HAPOX    (-29) M
000067:                                                                                                  #           HPERX    (-29) M
000068:                                                                                                  #           RAPO     (-29) M EARTH
000069:                                                                                                  #                    (-27) M MOON
000070:                                                                                                  #           RPER     (-29) M EARTH
000071:                                                                                                  #                    (-27) M MOON
000072:                                                                                                  #           TFF      (-28) CS      CONTAINS NEGATIVE QUANTITY
000073:                                                                                                  #           -TPER    (-28) CS      CONTAINS NEGATIVE QUANTITY
000074:


000076:                                                                                                  #  ERASABLE INITIALIZATION REQUIRED: STATE VECTOR.
000077:
000078:                                                                                                  #  DEBRIS:  QPRET, RONE, VONE,TFF/RTMU, HPERMIN, RPADTEM, V82EMFLG.
000079:                                                                                                  #           MAYBE: TSTART82, V82FLAGS, TDEC1.
000080:
000081: 13,2374  E4,1512                                  EBANK=   HAPOX
000082: 31,2144                                           BANK     31
000083: 22,2000                                           SETLOC   R30LOC
000084: 22,2000                                           BANK
000085: 22,3244                                           COUNT*   $$/R30
000086:
000087: 22,3244           06060        V82CALL            TC       INTPRET
000088: 22,3245           52014                           BON      GOTO
000089: 22,3246           03712                                    AVEGFLAG
000090: 22,3247           45467                                    V82GON                                #  IF AVERAGE G ON
000091: 22,3250           45251                                    V82GOFF                               #  IF AVERAGE G OFF
000092:
000093: 22,3251           77776        V82GOFF            EXIT                                           #  ALLOW ASTRONAUT TO SELECT VEHICLE
000094: 22,3252           34743                           CAF      TWO                                   #  DESIRED FOR ORBITAL PARAMETERS
000095: 22,3253           55050                           TS       OPTIONX                               #  CALCULATION AND DISPLAY.
000096: 22,3254           34744                           CAF      ONE
000097: 22,3255           55051                           TS       OPTIONX    +1
000098: 22,3256           33320                           CAF      OPTIONVN                              #  V 04 N 06
000099: 22,3257           04607                           TC       BANKCALL
000100: 22,3260           20323                           CADR     GOXDSPF
000101: 22,3261           05474                           TC       ENDEXT                                #  TERMINATE
000102: 22,3262           03264                           TC       +2                                    #  PROCEED
000103: 22,3263           03256                           TC       -5                                    #  DATA IN. OPTION1+1 = 1 FOR THIS VEHICLE.
000104:                                                                                                  #                 UNEQ 1 FOR OTHER VEHICLE.
000105: 22,3264           34741                           CAF      BIT4                                  #  80 MS
000106: 22,3265           05205                           TC       WAITLIST
000107: 22,3266  E4,1531                                  EBANK=   TFF
000108: 22,3266           03432 44064                     2CADR    TICKTEST
000109:
000110: 22,3270           00003                           RELINT
000111: 22,3271           33322        V82GOFLP           CAF      TFFBANK                               #  MAJOR RECYCLE LOOP ENTRY
000112: 22,3272           54003                           TS       EBANK
000113: 22,3273           34746                           CAF      ZERO
000114: 22,3274           55530                           TS       V82FLAGS                              #  ZERO FLAGS FOR TICKTEST. INHIBITS
000115:                                                                                                  #  DECREMENTING OF TFF AND -TPER.
000116: 22,3275           35012                           CAF      PRIO7
000117: 22,3276           05076                           TC       FINDVAC                               #  V82GOFF1 WILL EXECUTE STATE VECTOR
000118: 22,3277  E4,1531                                  EBANK=   TFF                                   #  UPDATE AND ORBIT CALCULATIONS FOR
000119: 22,3277           03323 44064                     2CADR    V82GOFF1                              #  SELECTED VEHICLE ABOUT PROPER BODY.
000120:
000121: 22,3301           00003                           RELINT
000122: 22,3302           36266        V82STALL           CAF      THREE                                 #  STALL IN THIS LOOP AND WITHOLD V 16 N 44


000124: 22,3303           71530                           MASK     V82FLAGS                              #  UNTIL STATE VECTOR UPDATE SETS ONE OF
000125: 22,3304           10000                           CCS      A                                     #  OUR FLAG BITS.
000126: 22,3305           03312                           TC       FLAGGON                               #  EXIT FROM STALL LOOP.
000127: 22,3306           34770                           CAF      1SEC
000128: 22,3307           04607                           TC       BANKCALL
000129: 22,3310           01736                           CADR     DELAYJOB
000130: 22,3311           03302                           TC       V82STALL
000131:
000132: 22,3312           33321        FLAGGON            CAF      V16N44                                #  MONITOR HAPO,HPER,TFF.
000133: 22,3313           04607                           TC       BANKCALL
000134: 22,3314           20323                           CADR     GOXDSPF
000135: 22,3315           05565                           TC       B5OFF                                 #  TERM  THIS TELLS TICKTEST TO KILL ITSELF
000136: 22,3316           05565                           TC       B5OFF                                 #  PROCEED  DITTO
000137: 22,3317           03271                           TC       V82GOFLP                              #  RECYCLE  RECOMPUTE STATE VECT + DISPLAY
000138:
000139: 22,3320           01014        OPTIONVN           VN       412
000140: 22,3321           04054        V16N44             VN       1644
000141: 22,3322           02131        TFFBANK            ECADR    TFF
000142:
000143: 22,3323           06060        V82GOFF1           TC       INTPRET
000144: 22,3324           77634                           RTB
000145: 22,3325           21603                                    LOADTIME
000146: 22,3326           00041                           STORE    TDEC1                                 #  TIME FOR STATE VECTOR UPDATE.
000147: 22,3327           02176                           STORE    TSTART82                              #  TIME FOR INTERNAL USE.
000148: 22,3330           77776                           EXIT
000149: 22,3331           41051                           CS       OPTIONX    +1                         #  1 FOR THIS VEHICLE, NOT 1 FOR OTHER.
000150: 22,3332           64744                           AD       ONE
000151: 22,3333           00006                           EXTEND
000152: 22,3334           13360                           BZF      THISSHIP
000153: 22,3335           06060        OTHSHIP            TC       INTPRET
000154: 22,3336           77624                           CALL                                           #  CALL STATE VECTOR UPDATE FOR OTHER SHIP.
000155: 22,3337           27101                                    OTHPREC
000156: 22,3340           77775        BOTHSHIP           VLOAD                                          #  MOVE RESULTS INTO TFFCONIC STORAGE AREAS
000157: 22,3341           00001                                    RATT                                  #   TO BE CALLED BY SR30.1.
000158: 22,3342           26200                           STOVL    RONE                                  #  RATT AT (-29)M FOR EARTH OR MOON
000159: 22,3343           00007                                    VATT
000160: 22,3344           02206                           STORE    VONE                                  #   VATT AT (-7)M/CS FOR EARTH OR MOON
000161: 22,3345           77743                           DLOAD*
000162: 22,3346           73774                                    1/RTMUE,2                             #   X2 IS 0 FOR EARTH CENTERED STATE VEC
000163: 22,3347           00037                           STORE    TFF/RTMU                              #   X2 IS 2 FOR MOON
000164: 22,3350           77743                           DLOAD*                                         #  AS LEFT BY THISPREC OR OTHPREC.
000165: 22,3351           72407                                    MINPERE,2
000166: 22,3352           02172                           STORE    HPERMIN                               #    TFFRTMU, HPERMIN AND RPADTEM ARE ALL
000167: 22,3353           46135                           SLOAD    BHIZ                                  #  EARTH/MOON PARAMETERS AS SET HERE.
000168: 22,3354           00050                                    X2
000169: 22,3355           45371                                    EARTHPAD
000170: 22,3356           77650                           GOTO
000171: 22,3357           45375                                    MOONPAD


000173: 22,3360           06060        THISSHIP           TC       INTPRET
000174: 22,3361           77624                           CALL                                           #  CALL STATE VECTOR UPDATE FOR THIS SHIP.
000175: 22,3362           27115                                    THISPREC
000176: 22,3363           77650                           GOTO
000177: 22,3364           45340                                    BOTHSHIP
000178:
000179:                                                                                                  #  THE FOLLOWING CONSTANTS ARE PAIRWISE INDEXED. DO NOT SEPARATE PAIRS.
000180:
000181: 22,3365           00001 11530  MINPERM            2DEC     10668      B-27                       #  35 KFT MIN PERIGEE HEIGHT FOR MOON(-27)M
000182:
000183: 22,3367           00002 31230  MINPERE            2DEC     91440      B-29                       #  300 KFT (-29)M FOR EARTH
000184:
000185: 22,3371           43145        EARTHPAD           DLOAD    CLRGO                                 #   PAD 37-B RADIUS.  SCALED AT (-29)M.
000186: 22,3372           06336                                    RPAD
000187: 22,3373           03635                                    V82EMFLG                              #   INDICATE EARTH SCALING FOR SR30.1
000188: 22,3374           45401                                    BOTHPAD
000189:
000190: 22,3375           51575        MOONPAD            VLOAD    ABVAL                                 #  COMPUTE MOON PAD RADIUS FROM RLS VECTOR.
000191: 22,3376           02021                                    RLS                                   #   SCALED AT (-27)M.
000192: 22,3377           77614                           SET
000193: 22,3400           03475                                    V82EMFLG                              #   INDICATE MOON SCALING FOR SR30.1
000194: 22,3401           36174        BOTHPAD            STCALL   RPADTEM
000195: 22,3402           45553                                    SR30.1                                #  CALCULATE ORBITAL PARAMETERS
000196: 22,3403           45234                           RTB      DSU
000197: 22,3404           21603                                    LOADTIME
000198: 22,3405           02176                                    TSTART82                              #  PRESENT TIME - TIME V82GOFF1 BEGAN
000199: 22,3406           02176                           STORE    TSTART82                              #                 SAVE IT
000200: 22,3407           53145                           DLOAD    BZE                                   #  SR30.1 SETS -TPER=0 IF HPER L/
000201: 22,3410           02134                                    -TPER                                 #   HPERMIN (300 OR 35) KFT.
000202: 22,3411           45422                                    TICKTIFF                              #  (-TPER = 0)
000203: 22,3412           43345        TICKTPER           DLOAD    DAD                                   #  (-TPER NON ZERO)  TFF WAS NOT COMPUTED.
000204: 22,3413           02134                                    -TPER                                 #  BUT WAS SET TO 59M59S.DONT TICK TFF, DO
000205: 22,3414           02176                                    TSTART82                              #  TICK -TPER. DISPLAY BOTH.
000206: 22,3415           02134                           STORE    -TPER                                 #  -TPER CORRECTED FOR TIME SINCE V82GOFF1
000207: 22,3416           77776                           EXIT                                           #  BEGAN.
000208: 22,3417           34744                           CAF      BIT1
000209: 22,3420           55530                           TS       V82FLAGS                              #  INFORMS TICKTEST TO INCREMENT ONLY -TPER
000210: 22,3421           05146                           TC       ENDOFJOB
000211:
000212: 22,3422           43345        TICKTIFF           DLOAD    DAD                                   #  (-TPER=0) TFF WAS COMPUTED.TICK TFF.
000213: 22,3423           02132                                    TFF                                   #  DO NOT TICK -TPER.DISPLAY TFF, BUT NOT
000214: 22,3424           02176                                    TSTART82                              #  -TPER.
000215: 22,3425           02132                           STORE    TFF                                   #  TFF CORRECTED FOR TIME SINCE V82GOFF1
000216: 22,3426           77776                           EXIT                                           #  BEGAN.
000217: 22,3427           34743                           CAF      BIT2
000218: 22,3430           55530                           TS       V82FLAGS                              #  INFORMS TICKTEST TO INCREMENT ONLY TFF.
000219: 22,3431           05146                           TC       ENDOFJOB
000220:


000222: 22,3432           34740        TICKTEST           CAF      BIT5                                  #  THIS WAITLIST PROGRAM PERPETUATES ITSELF
000223: 22,3433           71043                           MASK     EXTVBACT                              #  ONCE A SEC UNTIL BIT 5 OF EXTVBACT =0.
000224: 22,3434           10000                           CCS      A
000225: 22,3435           03443                           TC       DOTICK
000226: 22,3436           37734                           CAF      PRIO25
000227: 22,3437           05063                           TC       NOVAC                                 #  TERMINATE V 82.CANT CALL ENDEXT IN RUPT.
000228: 22,3440     1043                                  EBANK=   EXTVBACT
000229: 22,3440           05474 04062                     2CADR    ENDEXT
000230:
000231: 22,3442           05263                           TC       TASKOVER
000232: 22,3443           34770        DOTICK             CAF      1SEC                                  #  RE-REQUEST TICKTEST.
000233: 22,3444           05205                           TC       WAITLIST
000234: 22,3445  E4,1531                                  EBANK=   TFF
000235: 22,3445           03432 44064                     2CADR    TICKTEST
000236:
000237: 22,3447           36266                           CAF      THREE
000238: 22,3450           71530                           MASK     V82FLAGS
000239: 22,3451           50000                           INDEX    A
000240: 22,3452           03453                           TC       +1
000241: 22,3453           05263                           TC       TASKOVER                              #  IF NO FLAGBITS SET DONT CHANGE TFF OR
000242:                                                                                                  #  -TPER, BUT CONTINUE LOOP.
000243: 22,3454           03462                           TC       TPERTICK                              #  ONLY BIT 1 SET. INCR -TPER BY 1 SEC.
000244: 22,3455           34770        TFFTICK            CAF      1SEC                                  #  ONLY BIT 2 SET. INCR TFF BY 1 SEC.
000245: 22,3456           54001                           TS       L
000246: 22,3457           34746                           CAF      ZERO
000247: 22,3460           21532                           DAS      TFF
000248: 22,3461           05263                           TC       TASKOVER
000249: 22,3462           34770        TPERTICK           CAF      1SEC
000250: 22,3463           54001                           TS       L
000251: 22,3464           34746                           CAF      ZERO
000252: 22,3465           21534                           DAS      -TPER
000253: 22,3466           05263                           TC       TASKOVER
000254:


000256: 22,3467           77776        V82GON             EXIT                                           #   AVERAGE G ON.  USE CURRENT STATE VECTOR
000257:                                                                                                  #  FOR ORBITAL PARAMETER CALCULATIONS.
000258: 22,3470           35012                           CAF      PRIO7                                 #  LESS THAN LAMBERT
000259: 22,3471           05076                           TC       FINDVAC                               #  V82GON1 WILL PERFORM ORBIT CALCULATIONS
000260: 22,3472  E4,1531                                  EBANK=   TFF                                   #  ABOUT PROPER BODY APPROX ONCE PER SEC.
000261: 22,3472           03505 44064                     2CADR    V82GON1
000262:
000263: 22,3474           00003                           RELINT
000264: 22,3475           10067                           CCS      NEWJOB                                #  WITHOLD V16 N44 UNTIL FIRST ORBIT CALC
000265: 22,3476           05113                           TC       CHANG1                                #  IS DONE. NOTE: V82GON1 (PRIO7, FINDVAC
000266:                                                                                                  #  JOB) IS COMPLETED BEFORE V82GON (PRIO7,
000267:                                                                                                  #  NOVAC JOB).
000268: 22,3477           33321        V82REDSP           CAF      V16N44                                #  MONITOR HAPO, HPER, TFF
000269: 22,3500           04607                           TC       BANKCALL
000270: 22,3501           20323                           CADR     GOXDSPF
000271: 22,3502           05565                           TC       B5OFF                                 #  TERM THIS TELLS V82GON1 TO KILL ITSELF.
000272: 22,3503           05565                           TC       B5OFF                                 #  PROC DITTO.
000273: 22,3504           03477                           TC       V82REDSP                              #  RECYCLE
000274:
000275: 22,3505           06060        V82GON1            TC       INTPRET                               #  THIS EXEC PROGRAM PERPETUATES ITSELF
000276:                                                                                                  #  ONCE A SEC UNTIL BIT 5 OF EXTVBACT =0.
000277: 22,3506           52175                           VLOAD    GOTO                                  #  HOLDS OFF CCS NEWJOB BETWEEN RN AND
000278: 22,3507           01220                                    RN                                    #    VN FETCH SO RN , VN ARE FROM SAME
000279: 22,3510           45511                                    NEXTLINE                              #    STATE VECTOR UPDATE.
000280: 22,3511           26200        NEXTLINE           STOVL    RONE                                  #   RN AT (-29)M FOR EARTH OR MOON
000281: 22,3512           01226                                    VN
000282: 22,3513           02206                           STORE    VONE                                  #  VN AT (-7)M/CS FOR EARTH OR MOON
000283: 22,3514           52014                           BON      GOTO
000284: 22,3515           04304                                    MOONTHIS                              #  FLAG INDICATES BODY ABOUT WHICH ORBITAL
000285: 22,3516           45520                                    MOONGON                               #     CALCULATIONS ARE TO BE PERFORMED.
000286: 22,3517           45531                                    EARTHGON                              #    IF SET - MOON , IF RESET - EARTH.
000287:
000288: 22,3520           71214        MOONGON            SET      DLOAD
000289: 22,3521           03475                                    V82EMFLG                              #  INDICATE MOON SCALING FOR SR30.1
000290: 22,3522           04001                                    1/RTMUM                               #  LUNAR PARAMETERS LOADED HERE FOR SR30.1
000291: 22,3523           14037                           STODL    TFF/RTMU
000292: 22,3524           05366                                    MINPERM
000293: 22,3525           26172                           STOVL    HPERMIN
000294: 22,3526           02021                                    RLS                                   #   SCALED AT (-27)M.
000295: 22,3527           52046                           ABVAL    GOTO
000296: 22,3530           45540                                    V82GON2
000297: 22,3531           71214        EARTHGON           CLEAR    DLOAD
000298: 22,3532           03675                                    V82EMFLG                              #  INDICATE EARTH SCALING FOR SR30.1
000299: 22,3533           04003                                    1/RTMUE                               #  EARTH PARAMETERS LOADED HERE FOR SR30.1
000300: 22,3534           14037                           STODL    TFF/RTMU
000301: 22,3535           05370                                    MINPERE
000302: 22,3536           16172                           STODL    HPERMIN
000303: 22,3537           06336                                    RPAD
000304: 22,3540           36174        V82GON2            STCALL   RPADTEM                               #  COMMON CODE FOR EARTH & MOON.
000305: 22,3541           45553                                    SR30.1


000307: 22,3542           77776                           EXIT
000308: 22,3543           34740        V82GON3            CAF      BIT5
000309: 22,3544           71043                           MASK     EXTVBACT                              #  SEE IF ASTRONAUT HAS SIGNALLED TERMINATE
000310: 22,3545           00006                           EXTEND
000311: 22,3546           15474                           BZF      ENDEXT                                #  YES, TERMINATE VB 82 LOOP
000312: 22,3547           34770                           CAF      1SEC
000313: 22,3550           04607                           TC       BANKCALL                              #  WAIT ONE SECOND BEFORE REPEATING
000314: 22,3551           01736                           CADR     DELAYJOB                              #    ORBITAL PARAMETER COMPUTATION.
000315: 22,3552           03505                           TC       V82GON1
000316:
000317: 22,3553  22,3543               SPLRET             =        V82GON3
000318:


000320:                                                                                                  #  SUBROUTINE NAME: SR30.1
000321:                                                                                                  #  MOD NO:  0                                                              DATE:           16 FEB 67
000322:                                                                                                  #  MOD BY:  RR BAIRNSFATHER                                                LOG SECTION:    R32
000323:                                                                                                  #  MOD NO:  1           MOD BY:  RR BAIRNSFATHER      DATE: 11 APR 67      SR30.1 CHANGED TO ALLOW MONITOR OPERN
000324:                                                                                                  #  MOD NO:  2           MOD BY:  RR BAIRNSFATHER      DATE:  14 APR 67     ADD OVFL CK FOR RAPO
000325:                                                                                                  #  MOD NO:  3           MOD BY ALONSO                 DATE: 11 DEC 67      SUBROUTINE REWRITTEN
000326:                                                                                                  #  MOD NO: 4            MOD BY ALONSO                 DATE: 26 MAR 68      PROG MOD TO HANDLE DIF EARTH/MOON SCALE
000327:                                                                                                  #  MOD NO:  5           MOD BY:  RR BAIRNSFATHER      DATE:  6 AUG 68      OVFL CK FOR HAPO & HPER.VOIDS MOD #2.
000328:
000329:                                                                                                  #  NEW FUNCTIONAL DESCRIPTION:     ORBITAL PARAMETERS DISPLAY FOR NOUNS 32  AND 44.
000330:                                                                                                  #  SR30.1 CALLS TFFCONMU AND TFFRP/RA TO CALCULATE RPER (PERIGEE RADIUS),
000331:                                                                                                  #  RAPO (APOGEE RADIUS), HPER (PERIGEE HEIGHT ABOVE LAUNCH PAD OR LUNAR
000332:                                                                                                  #  LANDING SITE), HAPO (APOGEE HEIGHT AS ABOVE), TPER (TIME TO PERIGEE),
000333:                                                                                                  #  TFF (TIME TO INTERSECT 300 KFT ABOVE PAD OR 35KFT ABOVE LANDING SITE).
000334:                                                                                                  #  IF HPER IS GREATER THAN OR EQUAL TO HPERMIN, CALCULATES TPER AND STORES
000335:                                                                                                  #  NEGATIVE    IN -TPER. OTHERWISE STORES +0 IN -TPER. WHENEVER TPER IS
000336:                                                                                                  #  CALCULATED, TFF IS NOT COMPUTABLE AND DEFAULTS TO -59MIN 59SEC. IF HAPO
000337:                                                                                                  #  WOULD EXCEED 9999.9 NM, IT IS LIMITED TO THAT VALUE FOR DISPLAY.
000338:
000339:                                                                                                  #  ADDENDUM: HAPO AND HPER SHOULD BE CHANGED TO READ HAPOX AND HPERX IN THE
000340:                                                                                                  #            ABOVE REMARKS.
000341:
000342:                                                                                                  #  CALLING SEQUENCE:         CALL
000343:                                                                                                  #                                  SR30.1
000344:                                                                                                  #  SUBROUTINES CALLED:       TFFCONMU, TFFRP/RA, CALCTPER, CALCTFF
000345:                                                                                                  #  NORMAL EXIT MODE:         CALLING LINE +1 (STILL IN INTERPRETIVE MODE)
000346:                                                                                                  #  ALARMS:                   NONE
000347:                                                                                                  #  OUTPUT:  RAPO   (-29) M EARTH   APOGEE RADIUS   EARTH CENTERED COORD.
000348:                                                                                                  #                  (-27) M MOON                    MOON CENTERED COORD.
000349:                                                                                                  #           RPER   (-29) M EARTH   PERIGEE RADIUS  EARTH CENTERED COORD.
000350:                                                                                                  #                  (-27) M MOON                    MOON CENTERED COORD.
000351:                                                                                                  #           HAPOX  (-29) M         APOGEE ALTITUDE ABOVE PAD OR LAND. SITE MAX VALUE LIMITED TO 9999.9 NM.
000352:                                                                                                  #           HPERX  (-29) M         PERIGEE ALT. ABOVE PAD OR LAND. SITE    MAX VALUE LIMITED TO 9999.9 NM.
000353:                                                                                                  #           TFF    (-28) CS        TIME TO 300KFT OR 35KFT ALTITUDE
000354:                                                                                                  #           -TPER  (-28) CS        TIME TO PERIGEE
000355:                                                                                                  #  ERASABLE INITIALIZATION REQUIRED-
000356:                                                                                                  #           TFF/RTMU (+17) EARTH   RECIPROCAL OF PROPER GRAV CONSTANT FOR
000357:                                                                                                  #                    (+14) MOON    EARTH OR MOON = 1/SQRT(MU).
000358:                                                                                                  #           RONE    (-29) M        STATE VECTOR
000359:                                                                                                  #           VONE    (-7) M/CS      STATE VECTOR
000360:                                                                                                  #           RPADTEM (-29) M EARTH  RADIUS OF LAUNCH PAD OR LUNAR LANDING
000361:                                                                                                  #                   (-27) M MOON   SITE.
000362:                                                                                                  #           HPERMIN (-29) M EARTH  (300 OR 35)KFT MINIMUM PERIGEE ALTITUDE
000363:                                                                                                  #                   (-27) M MOON   ABOVE LAUNCH PAD OR LUNAR LANDING SITE.
000364:                                                                                                  #           V82EMFLG (INT SW BIT) RESET FOR EARTH, SET FOR MOON.
000365:
000366:                                                                                                  #  DEBRIS:       QPRET, PDL, S2
000367:


000369: 22,3553                                           COUNT*   $$/SR30S
000370:
000371: 22,3553           44001        SR30.1             SETPD    STQ                                   #  INITIALIZE PUSHDOWN LIST.
000372: 22,3554           00001                                    0
000373: 22,3555           00051                                    S2
000374:                                                                                                  #  SR30.1 INPUT: RONE AT (-29)M EARTH/MOON
000375:                                                                                                  #                VONE AT (-7)M/CS
000376:                                                                                                  #   TFFCONMU,TFFRP/RA,CALCTPER AND CALCTFF
000377:                                                                                                  #   CALLS REQUIRE:
000378:                                                                                                  #   EARTH CENTERED (NO RESCALING REQUIRED)
000379:                                                                                                  #                 RONE SCALED TO B-29 M
000380:                                                                                                  #                 VONE SCALED TO B-7 M/CS
000381:                                                                                                  #   MOON CENTERED   (RESCALING REQUIRED)
000382:                                                                                                  #                 RONE SCALED TO B-27 M
000383:                                                                                                  #                 VONE SCALED TO B-5  M/CS
000384: 22,3556           77214                           BOFF     VLOAD
000385: 22,3557           03755                                    V82EMFLG                              #    OFF FOR EARTH , ON FOR MOON.
000386: 22,3560           45567                                    TFFCALLS
000387: 22,3561           02200                                    RONE
000388: 22,3562           77752                           VSL2
000389: 22,3563           26200                           STOVL    RONE
000390: 22,3564           02206                                    VONE
000391: 22,3565           77752                           VSL2
000392: 22,3566           02206                           STORE    VONE
000393: 22,3567           77624        TFFCALLS           CALL
000394: 22,3570           57364                                    TFFCONMU
000395: 22,3571           77624                           CALL                                           #  TFFRP/RA COMPUTES RAPO,RPER.
000396: 22,3572           57432                                    TFFRP/RA
000397:                                                                                                  #  RETURNS WITH RAPO IN D(MPAC).
000398: 22,3573           77625                           DSU
000399: 22,3574           02174                                    RPADTEM
000400: 22,3575           64414                           BOFF     SR2R                                  #  NEED HAPO AT (-29)M FOR DISPLAY.
000401:                                                                                                  #  IF MOON CENTERED, RESCALE FROM (-27)M.
000402:                                                                                                  #   IF EARTH CENTERED ALREADY AT (-29)M.
000403: 22,3576           03755                                    V82EMFLG                              #   OFF FOR EARTH , ON FOR MOON.
000404: 22,3577           45600                                    +1
000405: 22,3600           77624                           CALL                                           #  IF HAPO > MAXNM, SET HAPO =9999.9 NM.
000406: 22,3601           45640                                    MAXCHK                                #  OTHERWISE STORE (RAPO-RPADTEM) IN HAPO.
000407: 22,3602           16113        STORHAPO           STODL    HAPOX
000408: 22,3603           00017                                    RPER
000409: 22,3604           77625                           DSU
000410: 22,3605           02174                                    RPADTEM                               #  GIVES HPER AT (-29)M EARTH, (-27)M MOON.
000411: 22,3606           00161                           STORE    MPAC       +4                         #  SAVE THIS FOR COMPARISON TO HPERMIN.
000412: 22,3607           64414                           BOFF     SR2R                                  #  NEED HPER AT (-29)M FOR DISPLAY.
000413:                                                                                                  #  IF MOON CENTERED, RESCALE FROM (-27)M.
000414:                                                                                                  #  IF EARTH CENTERED ALREADY AT (-29)M.
000415: 22,3610           03755                                    V82EMFLG                              #  OFF FOR EARTH,  ON FOR MOON.
000416: 22,3611           45612                                    +1
000417: 22,3612           77624                           CALL                                           #  IF HPER > MAXNM, SET HPER = 9999.9 NM.
000418: 22,3613           45640                                    MAXCHK


000420: 22,3614           16115        STORHPER           STODL    HPERX                                 #  STORE (RPER - RPADTEM) INTO HPERX.
000421: 22,3615           00161                                    MPAC       +4
000422: 22,3616           51025                           DSU      BPL                                   #  HPERMIN AT (-29)M FOR EARTH, (-27)M MOON
000423: 22,3617           02172                                    HPERMIN                               #  IF HPER L/   HPERMIN (300 OR 35) KFT,
000424: 22,3620           45624                                    DOTPER                                #   THEN ZERO INTO -TPER.
000425: 22,3621           52145                           DLOAD    GOTO                                  #    OTHERWISE CALCULATE TPER.
000426: 22,3622           06505                                    HI6ZEROS
000427: 22,3623           45630                                    SKIPTPER
000428: 22,3624           45145        DOTPER             DLOAD    CALL
000429: 22,3625           00017                                    RPER
000430: 22,3626           57470                                    CALCTPER
000431: 22,3627           77676                           DCOMP                                          #  TPER IS PUT NEG INTO -TPER.
000432: 22,3630           16134        SKIPTPER           STODL    -TPER
000433: 22,3631           02172                                    HPERMIN                               #  HPERMIN AT (-29)M FOR EARTH, (-27)M MOON
000434: 22,3632           45015                           DAD      CALL
000435: 22,3633           02174                                    RPADTEM                               #  RPADTEM AT (-29)M FOR EARTH, (-27)M MOON
000436: 22,3634           57473                                    CALCTFF                               #  GIVES 59M59S FOR TFF IF RPER G/
000437: 22,3635           77676                           DCOMP                                          #    HPERMIN + RPADTEM. (TPER WAS NON ZERO)
000438: 22,3636           36132                           STCALL   TFF                                   #  OTHERWISE COMPUTES TFF.       (GOTO)
000439: 22,3637           00051                                    S2
000440:
000441: 22,3640           51025        MAXCHK             DSU      BPL                                   #  IF C(MPAC) > 9999.9 NM. MPAC = 9999.9 NM
000442: 22,3641           05650                                    MAXNM
000443: 22,3642           45645                                    +3                                    #  OTHERWISE C(MPAC) = B(MPAC).
000444: 22,3643           43415                           DAD      RVQ
000445: 22,3644           05650                                    MAXNM
000446: 22,3645           43545                 +3        DLOAD    RVQ                                   #  (USED BY P30 - P37 ALSO)
000447: 22,3646           05650                                    MAXNM
000448:
000449: 22,3647           01065 05603  MAXNM              2OCT     0106505603
000450:


End of include-file R30.agc.  Parent file is MAIN.agc


