
Source Code


000002:                                                                                                  ## Copyright:   Public domain.
000003:                                                                                                  ## Filename:    R60,R62.agc
000004:                                                                                                  ## Purpose:     A section of Luminary revision 210.
000005:                                                                                                  ##              It is part of the source code for the Lunar Module's (LM)
000006:                                                                                                  ##              Apollo Guidance Computer (AGC) for Apollo 15-17.
000007:                                                                                                  ##              This file is intended to be a faithful transcription, except
000008:                                                                                                  ##              that the code format has been changed to conform to the
000009:                                                                                                  ##              requirements of the yaYUL assembler rather than the
000010:                                                                                                  ##              original YUL assembler.
000011:                                                                                                  ## Reference:   pp. 487-500
000012:                                                                                                  ## Assembler:   yaYUL
000013:                                                                                                  ## Contact:     Ron Burkey <info@sandroid.org>.
000014:                                                                                                  ## Website:     www.ibiblio.org/apollo/index.html
000015:                                                                                                  ## Mod history: 2016-11-17 JL   Created from Luminary131 version.
000016:                                                                                                  ##              2016-11-27 HG   Transcribed
000017:                                                                                                  ##              2016-12-07 HG   Fix P00 -> POO
000018:                                                                                                  ##                              Change POO -> P00 in some comments
000019:                                                                                                  ##              2016-12-23 RSB  Proofed comment text with octopus/ProoferComments
000020:                                                                                                  ##                              and fixed all errors found.
000021:                                                                                                  ##              2017-03-09 RSB  Comment text fixes noted in proofing Luminary 116.
000022:


000024:                                                                                                  #  MOD NO: 0                             DATE: 1 MAY 1968
000025:                                                                                                  #  MOD BY: DIGITAL DEVEL GROUP           LOG SECTION R60,R62
000026:
000027:                                                                                                  #  FUNCTIONAL DESCRIPTION:
000028:
000029:                                                                                                  #  CALLED AS A GENERAL SUBROUTINE TO MANEUVER THE LM TO A SPECIFIED
000030:                                                                                                  #  ATTITUDE.
000031:
000032:                                                                                                  #  1. IF THE 3-AXIS FLAG IS NOT SET THE FINAL CDU ANGLES ARE
000033:                                                                                                  #  CALCULATED (VECPOINT).
000034:
000035:                                                                                                  #  2. THE FDAI BALL ANGLES (NOUN 18) ARE CALCULATED (BALLANGS).
000036:
000037:                                                                                                  #  3. REQUEST FLASHING DISPLAY V50 N18 PLEASE PERFORM AUTO MANEUVER.
000038:
000039:                                                                                                  #  4. IF PRIORITY DISPLAY FLAG IS SET DO A PHASECHANGE. THEN AWAIT
000040:                                                                                                  #  ASTRONAUT RESPONSE.
000041:
000042:                                                                                                  #  5. DISPLAY RESPONSE RETURNS:
000043:
000044:                                                                                                  #      A. ENTER - RESET 3-AXIS FLAG AND RETURN TO CLIENT.
000045:
000046:                                                                                                  #      B. TERMINATE - IF IN P00 GO TO STEP 5A. OTHERWISE CHECK IF R61 IS
000047:                                                                                                  #         THE CALLING PROGRAM. IF IN R61 AN EXIT IS MADE TO GOTOV56. IF
000048:                                                                                                  #         NOT IN R61 AN EXIT IS DONE VIA GOTOP00H.
000049:
000050:                                                                                                  #      C. PROCEED - CONTINUE WITH PROGRAM AT STEP 6.
000051:
000052:                                                                                                  #  6. IF THE 3-AXISFLAG IS NOT SET, THE FINAL CDU ANGLES ARE CALCULATED
000053:                                                                                                  #     (VECPOINT).
000054:
000055:                                                                                                  #  7. THE FDAI BALL ANGLES (NOUN 18) ARE CALCULATED (BALLANGS).
000056:
000057:                                                                                                  #  8. IF THE G+N SWITCH IS NOT SET GO BACK TO STEP 3.
000058:
000059:                                                                                                  #  9. IF THE AUTO SWITCH IS NOT SET GO BACK TO STEP 3.
000060:
000061:                                                                                                  #  10. NONFLASHING DISPLAY V06N18 (FDAI ANGLES).
000062:
000063:                                                                                                  #  11. DO A PHASECHANGE.
000064:
000065:                                                                                                  #  12. DO A MANEUVER CALCULATION AND ICDU DRIVE ROUTINE TO ACHIEVE FINAL
000066:
000067:                                                                                                  #      GIMBAL ANGLES (GOMANUR).
000068:                                                                                                  #  13. AT END OF MANEUVER GO TO STEP 3.
000069:
000070:                                                                                                  #           IF SATISFACTORY MANEUVER STEP 5A EXITS R60.
000071:                                                                                                  #           FOR FURTHER ADJUSTMENT OF THE VEHICLE ATTITUDE ABOUT THE
000072:                                                                                                  #           DESIRED VECTOR, THE ROUTINE MAY BE PERFORMED AGAIN STARTING AT
000073:


000075:                                                                                                  #           STEP 5C.
000076:
000077:                                                                                                  #  CALLING SEQUENCE:  TC BANKCALL
000078:                                                                                                  #                     CADR R60LEM
000079:
000080:                                                                                                  #  ERASABLE INITIALIZATION REQUIRED : SCAXIS, POINTVSM (FOR VECPOINT)
000081:                                                                                                  #                                     3AXISFLG.
000082:
000083:                                                                                                  #  SUBROUTINES CALLED: VECPOINT, BALLANGS, GOPERF2R, LINUS, GOdSPER,
000084:                                                                                                  #                     GOMANUR, DOWNFLAG, PHASCHNG, UPFLAG
000085:
000086:                                                                                                  #  NORMAL EXIT MODES: CAE TEMPR60   (CALLERS RETURN ADDRESS)
000087:                                                                                                  #                     TC  BANKJUMP
000088:
000089:                                                                                                  #  ALARMS: NONE
000090:
000091:                                                                                                  #  OUTPUT: NONE
000092:
000093:                                                                                                  #  DEBRIS: CPHI, CTHETA, CPSI, 3AXISFLG, TBASE2
000094:
000095:
000096: 34,2000                                           BANK     34
000097: 26,2000                                           SETLOC   MANUVER
000098: 26,2000                                           BANK
000099:
000100: 26,2125     1163                                  EBANK=   TEMPR60
000101:
000102: 26,2125                                           COUNT*   $$/R06
000103: 26,2125           04636        R60LEM             TC       MAKECADR
000104: 26,2126           55163                           TS       TEMPR60
000105:
000106: 26,2127           34737        REDOMANN           CAF      3AXISBIT
000107: 26,2130           70101                           MASK     FLAGWRD5                              #  IS 3-AXIS FLAG SET
000108: 26,2131           10000                           CCS      A
000109: 26,2132           12140                           TCF      TOBALL                                #  YES
000110: 26,2133           06060                           TC       INTPRET
000111: 26,2134           77624                           CALL
000112: 26,2135           56040                                    VECPOINT                              #  TO COMPUTE FINAL ANGLES
000113: 26,2136           00322                           STORE    CPHI                                  #  STORE FINAL ANGLES - CPHI,CTHETA,CPSI
000114: 26,2137           77776                           EXIT
000115:
000116: 26,2140           05506        TOBALL             TC       UPFLAG                                #  INSURE THAT TOTAL ATTITUDE ERRORS ARE
000117: 26,2141           00013                           ADRES    NEEDLFLG                              #  DISPLAYED ON FDAI ERROR NEEDLES
000118: 26,2142           05520                           TC       DOWNFLAG
000119: 26,2143           00000                           ADRES    NEED2FLG
000120: 26,2144           04607                           TC       BANKCALL
000121: 26,2145           54300                           CADR     BALLANGS                              #  TO CONVERT ANGLES TO FDAI
000122: 26,2146           32266        TOBALLA            CAF      V06N18
000123: 26,2147           04607                           TC       BANKCALL
000124:


000126: 26,2150           20722                           CADR     GOPERF2R                              #  DISPLAY PLEASE PERFORM AUTO MANEUVER
000127: 26,2151           02254                           TC       R61TEST
000128: 26,2152           02162                           TC       REDOMANC                              #  PROCEED
000129: 26,2153           02207                           TC       ENDMANU1                              #  ENTER I.E. FINISHED WITH R60
000130: 26,2154           02214                           TC       CHKLINUS                              #  TO CHECK FOR PRIORITY DISPLAYS
000131: 26,2155           05146                           TC       ENDOFJOB
000132:
000133: 26,2156           46266                           CS       THREE                                 #  SET UP RESTART POINT AT BEGINNING OF
000134: 26,2157           60133                           AD       BUF2                                  #    DISPLAY IF PRIORITY DISP FLAG SET
000135: 26,2160           02221                           TC       CHKLINS1
000136: 26,2161           05146                           TC       ENDOFJOB
000137:
000138: 26,2162           34737        REDOMANC           CAF      3AXISBIT
000139: 26,2163           70101                           MASK     FLAGWRD5                              #  IS 3-AXIS FLAG SET
000140: 26,2164           10000                           CCS      A
000141: 26,2165           12173                           TCF      TOBALLC                               #  YES
000142: 26,2166           06060                           TC       INTPRET
000143: 26,2167           77624                           CALL
000144: 26,2170           56040                                    VECPOINT                              #  TO COMPUTE FINAL ANGLES
000145: 26,2171           00322                           STORE    CPHI                                  #  STORE ANGLES
000146: 26,2172           77776                           EXIT
000147:
000148: 26,2173           04607        TOBALLC            TC       BANKCALL
000149: 26,2174           54300                           CADR     BALLANGS                              #  TO CONVERT ANGLES TO FDAI
000150: 26,2175           02267                           TC       G+N,AUTO                              #  CHECK AUTO MODE
000151: 26,2176           10000                           CCS      A
000152: 26,2177           12146                           TCF      TOBALLA                               #  NOT AUTO, GO REREQUEST AUTO MANEUVER.
000153:
000154: 26,2200           02214        AUTOMANV           TC       CHKLINUS
000155: 26,2201           12204                           TCF      STARTMNV
000156: 26,2202           32213                           CAF      STARTMNAD                             #  RESTART AT STARTMNV IF PRIORITY
000157: 26,2203           55054                           TS       TBASE2                                #     DISPLAY FLAG SET
000158:
000159: 26,2204           04607        STARTMNV           TC       BANKCALL                              #  PERFORM MANEUVER VIA KALCMANU
000160: 26,2205           42764                           CADR     GOMANUR
000161:
000162: 26,2206           12146        ENDMANUV           TCF      TOBALLA                               #  FINISHED MANEUVER.
000163: 26,2207           05520        ENDMANU1           TC       DOWNFLAG                              #  RESET 3-AXIS FLAG
000164: 26,2210           00124                           ADRES    3AXISFLG
000165: 26,2211           31163                           CAE      TEMPR60
000166: 26,2212           04631                           TC       BANKJUMP
000167:
000168: 26,2213           02204        STARTMNAD           ADRES    STARTMNV
000169:
000170: 26,2214           40101        CHKLINUS           CS       FLAGWRD5
000171: 26,2215           74727                           MASK     PDSPFBIT                              #  IS PRIORITY DISPLAY FLAG SET?
000172: 26,2216           10000                           CCS      A
000173: 26,2217           00002                           TC       Q                                     #  NO - EXIT
000174: 26,2220           16760                           TCF      Q+1                                   #  GO BACK AND SET UP CORRECT RESTART ADDR.
000175:


000177: 26,2221           55054        CHKLINS1           TS       TBASE2
000178: 26,2222           30002                           CA       Q
000179: 26,2223           54156                           TS       MPAC       +2
000180:
000181: 26,2224           05355                           TC       PHASCHNG
000182: 26,2225           00132                           OCT      00132
000183:
000184: 26,2226           34736                           CAF      BIT7
000185: 26,2227           05466                           TC       LINUS                                 #  GO SET BITS FOR PRIORITY DISPLAY    -
000186: 26,2230           00156                           TC       MPAC       +2
000187:
000188: 26,2231           37735        RELINUS            CAF      PRIO26                                #  RESTORE ORIGINAL PRIORITY
000189: 26,2232           05137                           TC       PRIOCHNG
000190:
000191: 26,2233           34740                           CAF      TRACKBIT                              #  DON'T CONTINUE R60 UNLESS TRACKFLAG ON.
000192: 26,2234           70075                           MASK     FLAGWRD1
000193: 26,2235           10000                           CCS      A
000194: 26,2236           12251                           TCF      RER60
000195:
000196: 26,2237           34736                           CAF      RNDVZBIT                              #  IS IT P20?
000197: 26,2240           70074                           MASK     FLAGWRD0
000198: 26,2241           10000                           CCS      A
000199: 26,2242           02246                           TC       +4                                    #  YES
000200: 26,2243           05355                           TC       PHASCHNG                              #  NO, MUST BE P25, SET 2.11 SPOT
000201: 26,2244           40112                           OCT      40112
000202:
000203: 26,2245           05146                           TC       ENDOFJOB
000204:
000205: 26,2246           05355                           TC       PHASCHNG                              #  SET 2.7 SPOT FOR P20
000206: 26,2247           40072                           OCT      40072
000207:
000208: 26,2250           05146                           TC       ENDOFJOB
000209:
000210: 26,2251           05506        RER60              TC       UPFLAG                                #  SET PRIO DISPLAY FLAG AFTER RESTART
000211: 26,2252           00114                           ADRES    PDSPFLAG
000212:
000213: 26,2253           01054                           TC       TBASE2
000214:
000215: 26,2254           31010        R61TEST            CA       MODREG                                #  IF WE ARE IN P00 IT MUST BE V49 OR V89
000216: 26,2255           00006                           EXTEND
000217: 26,2256           12207                           BZF      ENDMANU1                              #  THUS WE GO TO ENDEXT VIA USER
000218:
000219: 26,2257           30101                           CA       FLAGWRD5
000220: 26,2260           74727                           MASK     PDSPFBIT
000221: 26,2261           00006                           EXTEND
000222: 26,2262           16001                           BZF      GOTOPOOH                              #  NO
000223: 26,2263           06043                           TC       GOTOV56                               #  YES
000224:
000225: 26,2264           20100        BIT14+7            OCT      20100                                 #                                        -
000226: 26,2265           00203        OCT203             OCT      203
000227:


000229: 26,2266           01422        V06N18             VN       0618
000230:                                                                                                  #           SUBROUTINE TO CHECK FOR G+N CONTROL, AUTO STABILIZATION
000231:
000232:                                                                                                  #           RETURNS WITH C(A) = +  IF NOT SET FOR G+N, AUTO
000233:                                                                                                  #           RETURNS WITH C(A) = +0 IF SWITCHES ARE SET
000234:
000235: 26,2267           00006        G+N,AUTO           EXTEND
000236: 26,2270           00030                           READ     CHAN30
000237: 26,2271           74733                           MASK     BIT10
000238: 26,2272           10000                           CCS      A
000239: 26,2273           00002                           TC       Q                                     #  NOT IN G+N  C(A) = +
000240: 26,2274           00006        ISITAUTO           EXTEND                                         #  CHECK FOR AUTO MODE
000241: 26,2275           00031                           READ     CHAN31
000242: 26,2276           74727                           MASK     BIT14
000243: 26,2277           00002                           TC       Q                                     #  (+) = NOT IN AUTO, (+0) = AOK
000244:


000246:                                                                                                  #  PROGRAM DESCRIPTION BALLANGS
000247:                                                                                                  #  MOD NO.         LOG SECTION R60,R62
000248:
000249:                                                                                                  #  WRITTEN BY RAMA M.AIYAWAR
000250:                                                                                                  #  FUNCTIONAL DESCRIPTION
000251:
000252:                                                                                                  #  COMPUTES LM FDAI BALL DISPLAY ANGLES
000253:                                                                                                  #  CALLING SEQUENCE
000254:
000255:                                                                                                  #           TC      BALLANGS
000256:                                                                                                  #  NORMAL EXIT MODE
000257:
000258:                                                                                                  #           TC      BALLEXIT        (SAVED Q)
000259:
000260:                                                                                                  #  ALARM OR EXIT MODE   NIL
000261:                                                                                                  #  SUBROUTINES CALLED
000262:                                                                                                  #           CD*TR*G
000263:                                                                                                  #           ARCTAN
000264:
000265:                                                                                                  #  INPUT
000266:
000267:                                                                                                  #  CPHI,CTHETA,CPSI  ARE  THE ANGLES CORRESPONDING TO AOG,AIG,AMG.  THEY ARE
000268:                                                                                                  #  SP,2S COMPLIMENT SCALED TO HALF REVOLUTION.
000269:                                                                                                  #  OUTPUT
000270:
000271:                                                                                                  #  FDAIX,FDAIY,FDAIZ ARE THE REQUIRED BALL ANGLES SCALED TO HALF REVOLUTION
000272:                                                                                                  #  SP,2S COMPLIMENT.
000273:                                                                                                  #  THESE ANGLES WILL BE DISPLAYED AS DEGREES AND HUNDREDTHS, IN THE ORDER ROLL, PITCH, YAW, USING NOUNS 18 & 19.
000274:
000275:                                                                                                  #  ERASABLE INITIALIZATION REQUIRED
000276:
000277:                                                                                                  #  CPHI,CTHETA,CPSI EACH A SP REGISTER
000278:                                                                                                  #  DEBRIS
000279:
000280:                                                                                                  #  A,L,Q,MPAC,SINCDU,COSCDU,PUSHLIST,BALLEXIT
000281:
000282:
000283:                                                                                                  #  NOMENCLATURE:  CPHI, CTHETA, & CPSI REPRESENT THE OUTER, INNER, & MIDDLE GIMBAL ANGLES, RESPECTIVELY; OR
000284:                                                                                                  #  EQUIVALENTLY, CDUX, CDUY, & CDUZ.
000285:
000286:                                                                                                  #  NOTE:  ARCTAN CHECKS FOR OVERFLOW AND SHOULD BE ABLE TO HANDLE ANY SINGULARITIES.
000287:
000288: 26,2000                                           SETLOC   BAWLANGS
000289: 26,2000                                           BANK
000290:
000291: 26,2300                                           COUNT*   $$/BALL
000292: 26,2300           04636        BALLANGS           TC       MAKECADR
000293: 26,2301           55337                           TS       BALLEXIT
000294: 26,2302           30321                           CA       CPHI
000295:


000297: 26,2303           54771                           TS       CDUSPOT    +4
000298: 26,2304           30322                           CA       CTHETA
000299: 26,2305           54765                           TS       CDUSPOT
000300: 26,2306           30323                           CA       CPSI
000301: 26,2307           54767                           TS       CDUSPOT    +2
000302:
000303: 26,2310           06060                           TC       INTPRET
000304: 26,2311           45001                           SETPD    CALL
000305: 26,2312           00001                                    0D
000306: 26,2313           47526                                    CD*TR*G
000307:
000308: 26,2314           41345                           DLOAD    DMP
000309: 26,2315           00742                                    SINCDUX                               #  SIN (OGA)
000310: 26,2316           00746                                    COSCDUZ                               #  COS (MGA)
000311:
000312: 26,2317           57552                           SL1      DCOMP                                 #  SCALE
000313: 26,2320           65336                           ARCSIN   PDDL                                  #  YAW = ARCSIN(-SXCZ) INTO 0 PD
000314: 26,2321           00740                                    SINCDUZ
000315: 26,2322           14023                           STODL    SINTH                                 #  (SINTH = 18D IN PD)
000316: 26,2323           00746                                    COSCDUZ
000317: 26,2324           72405                           DMP      SL1                                   #  RESCALE
000318: 26,2325           00750                                    COSCDUX
000319: 26,2326           34021                           STCALL   COSTH                                 #  (COSTH = 16D IN PD)
000320: 26,2327           26545                                    ARCTAN
000321: 26,2330           41325                           PDDL     DMP                                   #  ROLL = ARCTAN(SZ/CZCX) INTO 2 PD
000322: 26,2331           00740                                    SINCDUZ
000323: 26,2332           00742                                    SINCDUX
000324: 26,2333           41512                           SL2      PUSH                                  #  SXSZ INTO 4 PD
000325: 26,2334           65205                           DMP      PDDL                                  #  SXSZCY INTO 4 PD
000326: 26,2335           00744                                    COSCDUY
000327: 26,2336           65205                           DMP      PDDL                                  #  SXSZSY INTO 6 PD
000328: 26,2337           00736                                    SINCDUY
000329: 26,2340           00750                                    COSCDUX
000330: 26,2341           72405                           DMP      SL1                                   #  CXCY
000331: 26,2342           00744                                    COSCDUY
000332: 26,2343           45425                           DSU      STADR                                 #  PULL UP FROM 6 PD
000333: 26,2344           63756                           STODL    COSTH                                 #  COSTH = CXCY - SXSZSY
000334: 26,2345           00736                                    SINCDUY
000335: 26,2346           72405                           DMP      SL1
000336: 26,2347           00750                                    COSCDUX                               #  CXSY
000337: 26,2350           45415                           DAD      STADR                                 #  PULL UP FROM 4 PD
000338: 26,2351           43754                           STCALL   SINTH                                 #  SINTH = CXSY + SXSZCY
000339: 26,2352           26545                                    ARCTAN                                #  RETURNS WITH D(MPAC) = PITCH
000340: 26,2353           55525                           PDDL     VDEF                                  #  PITCH INTO 2 PD, ROLL INTO MPAC FROM 2PD
000341: 26,2354           77634                           RTB                                            #  VDEF MAKES V(MPAC) = ROLL, PITCH, YAW
000342: 26,2355           21630                                    V1STO2S
000343: 26,2356           02336                           STORE    FDAIX                                 #  MODE IS TP
000344: 26,2357           77776                           EXIT
000345:
000346: 26,2360           31337        ENDBALL            CA       BALLEXIT
000347:


000349: 26,2361           04631                           TC       BANKJUMP
000350:


000352:                                                                                                  #  PROGRAM DESCRIPTION - VECPOINT
000353:
000354:
000355:                                                                                                  #           THIS INTERPRETIVE SUBROUTINE MAY BE USED TO POINT A SPACECRAFT AXIS IN A DESIRED DIRECTION.  THE AXIS
000356:                                                                                                  #  TO BE POINTED MUST APPEAR AS A HALF UNIT DOUBLE PRECISION VECTOR IN SUCCESSIVE LOCATIONS OF ERASABLE MEMORY
000357:                                                                                                  #  BEGINNING WITH THE LOCATION CALLED SCAXIS.  THE COMPONENTS OF THIS VECTOR ARE GIVEN IN SPACECRAFT COORDINATES.
000358:                                                                                                  #  THE DIRECTION IN WHICH THIS AXIS IS TO BE POINTED MUST APPEAR AS A HALF UNIT DOUBLE PRECISION VECTOR IN
000359:                                                                                                  #  SUCCESSIVE LOCATIONS OF ERASABLE MEMORY BEGINNING WITH THE ADDRESS CALLED POINTVSM.  THE COMPONENTS OF THIS
000360:                                                                                                  #  VECTOR ARE GIVEN IN STABLE MEMBER COORDINATES.  WITH THIS INFORMATION VECPOINT COMPUTES A SET OF THREE GIMBAL
000361:                                                                                                  #  ANGLES (2S COMPLEMENT) CORESPONDING TO THE CROSS-PRODUCT ROTATION BETWE EN SCAXIS AND POINTVSM AND STORES THEM
000362:                                                                                                  #  IN T(MPAC) BEFORE RETURNING TO THE CALLER.
000363:                                                                                                  #           THIS ROTATION, HOWEVER, MAY BRING THE S/C INTO GIMBAL LOCK.  WHEN POINTING A VECTOR IN THE Y-Z PLANE,
000364:                                                                                                  #  THE TRANSPONDER AXIS, OR THE AOT FOR THE LEM, THE PROGRAM WILL CORRECT THIS PROBLEM BY ROTATING THE CROSS-
000365:                                                                                                  #  PRODUCT ATTITUDE ABOUT POINTVSM BY A FIXED AMOUNT SUFFICIENT TO ROTATE THE DESIRED S/C ATTITUDE OUT OF GIMBAL
000366:                                                                                                  #  LOCK.  IF THE AXIS TO BE POINTED IS MORE THAN 40.6 DEGREES BUT LESS THAN 60.5 DEG FROM THE +X (OR-X) AXIS,
000367:                                                                                                  #  THE ADDITIONAL ROTATION TO AVOID GIMAL LOCK IS 35 DEGREES.  IF THE AXIS IS MORE THAN 60.5 DEGEES FROM +X (OR -X)
000368:                                                                                                  #  THE ADDITIONAL ROTATION IS 35 DEGREES.  THE GIMBAL ANGLES CORRESPONDING TO THIS ATTITUDE ARE THEN COMPUTED AND
000369:                                                                                                  #  STORED AS 2S COMPLIMENT ANGLES IN T(MPAC) BEFORE RETURNING TO THE CALLER.
000370:                                                                                                  #           WHEN POINTING THE X-AXIS, OR THE THRUST VECTOR, OR ANY VECTOR WITHIN 40.6 DEG OF THE X-AXIS, VECPOINT
000371:                                                                                                  #  CANNOT CORRECT FOR A CROSS-PRODUCT ROTATION INTO GIMBAL LOCK.  IN THIS CASE A PLATFORM REALIGNMENT WOULD BE
000372:                                                                                                  #  REQUIRED TO POINT THE VECTOR IN THE DESIRED DIRECTION.  AT PRESENT NO INDICATION IS GIVEN FOR THIS SITUATION
000373:                                                                                                  #  EXCEPT THAT THE FINAL MIDDLE GIMBAL ANGLE IN MPAC +2 IS GREATER THAN 59 DEGREES.
000374:
000375:                                                                                                  #           CALLING SEQUENCE -
000376:                                                                                                  #               1) LOAD SCAXIS, POINTVSM
000377:                                                                                                  #               2) CALL
000378:                                                                                                  #                        VECPOINT
000379:
000380:                                                                                                  #           RETURNS WITH
000381:
000382:                                                                                                  #               1) DESIRED OUTER  GIMBAL ANGLE IN MPAC
000383:                                                                                                  #               2) DESIRED INNER  GIMBAL ANGLE IN MPAC +1
000384:                                                                                                  #               3) DESIRED MIDDLE GIMBAL ANGLE IN MPAC +2
000385:
000386:
000387:                                                                                                  #           ERASABLES USED -
000388:
000389:                                                                                                  #               1) SCAXIS           6
000390:                                                                                                  #               2) POINTVSM         6
000391:                                                                                                  #               3) MIS             18
000392:                                                                                                  #               4) DEL             18
000393:                                                                                                  #               5) COF              6
000394:                                                                                                  #               6) VECQTEMP         1
000395:                                                                                                  #               7) ALL OF VAC AREA 43
000396:
000397:                                                                                                  #                        TOTAL     99
000398:
000399: 27,2000                                           SETLOC   VECPT
000400: 27,2000                                           BANK
000401:


000403: 27,2032                                           COUNT*   $$/VECPT
000404:
000405: 27,2032  E6,1675                                  EBANK=   BCDU
000406:
000407: 27,2032           40020        VECPNT1            STQ      BOV                                   #  THIS ENTRY USES DESIRED CDUS
000408: 27,2033           03324                                    VECQTEMP                              #  NOT PRESENT-ENTER WITH CDUD'S IN MPAC
000409: 27,2034           56035                                    VECPNT2
000410: 27,2035           52164        VECPNT2            AXC,2    GOTO
000411: 27,2036           03245                                    MIS
000412: 27,2037           56046                                    STORANG
000413: 27,2040           40020        VECPOINT           STQ      BOV                                   #  SAVE RETURN ADDRESS
000414: 27,2041           03324                                    VECQTEMP
000415: 27,2042           56043                                    VECLEAR                               #  AND CLEAR OVFIND
000416: 27,2043           47164        VECLEAR            AXC,2    RTB
000417: 27,2044           03245                                    MIS                                   #  READ THE PRESENT CDU ANGLES AND
000418: 27,2045           44403                                    READCDUK                              #  STORE THEM IN PD25, 26, 27
000419: 27,2046           34032        STORANG            STCALL   25D
000420: 27,2047           44410                                    CDUTODCM                              #  S/C AXES TO STABLE MEMBER AXES (MIS)
000421: 27,2050           61375                           VLOAD    VXM
000422: 27,2051           03773                                    POINTVSM                              #  RESOLVE THE POINTING DIRECTION VF INTO
000423: 27,2052           03246                                    MIS                                   #  INITIAL S/C AXES (VF = POINTVSM)
000424: 27,2053           77656                           UNIT
000425: 27,2054           00035                           STORE    28D
000426:                                                                                                  #  PD 28 29 30 31 32 33
000427: 27,2055           53435                           VXV      UNIT                                  #  TAKE THE CROSS PRODUCT VF X VI
000428: 27,2056           03765                                    SCAXIS                                #  WHERE VI = SCAXIS
000429: 27,2057           57400                           BOV      VCOMP
000430: 27,2060           56170                                    PICKAXIS
000431: 27,2061           17270                           STODL    COF                                   #  CHECK MAGNITUDE
000432: 27,2062           00045                                    36D                                   #  OF CROSS PRODUCT
000433: 27,2063           50025                           DSU      BMN                                   #  VECTOR, IF LESS
000434: 27,2064           14423                                    DPB-14                                #  THAN B-14 ASSUME
000435: 27,2065           56170                                    PICKAXIS                              #  UNIT OPERATION
000436: 27,2066           50375                           VLOAD    DOT                                   #           INVALID.
000437: 27,2067           03765                                    SCAXIS
000438: 27,2070           00035                                    28D
000439: 27,2071           65552                           SL1      ARCCOS
000440: 27,2072           77624        COMPMATX           CALL                                           #  NOW COMPUTE THE TRANSFORMATION FROM
000441: 27,2073           44527                                    DELCOMP                               #  FINAL S/C AXES TO INITIAL S/C AXES MFI
000442: 27,2074           75160                           AXC,1    AXC,2
000443: 27,2075           03245                                    MIS                                   #  COMPUTE THE TRANSFORMATION FROM FINAL
000444: 27,2076           02221                                    KEL                                   #  S/C AXES TO STABLE MEMBER AXES
000445: 27,2077           77624                           CALL                                           #  MFS = MIS MFI
000446: 27,2100           44312                                    MXM3                                  #  (IN PD LIST)
000447:
000448: 27,2101           51545                           DLOAD    ABS
000449: 27,2102           00007                                    6                                     #  MFS6 = SIN(CPSI)                    $2
000450: 27,2103           50025                           DSU      BMN
000451: 27,2104           14410                                    SINGIMLC                              #  = SIN(59 DEGS)                      $2
000452: 27,2105           56160                                    FINDGIMB                              #  /CPSI/ LESS THAN 59 DEGS
000453:


000455:                                                                                                  #  I.E. DESIRED ATTITUDE NOT IN GIMBAL LOCK
000456:
000457: 27,2106           51545                           DLOAD    ABS                                   #  CHECK TO SEE IF WE ARE POINTING
000458: 27,2107           03765                                    SCAXIS                                #  THE THRUST AXIS
000459: 27,2110           51025                           DSU      BPL
000460: 27,2111           14412                                    SINVEC1                               #  SIN 49.4 DEGS                        $2
000461: 27,2112           56160                                    FINDGIMB                              #  IF SO, WE ARE TRYING TO POINT IT INTO
000462: 27,2113           77775                           VLOAD                                          #  GIMBAL LOCK, ABORT COULD GO HERE
000463: 27,2114           77626                           STADR
000464: 27,2115           50515                           STOVL    MIS        +12D
000465: 27,2116           77626                           STADR                                          #  STORE MFS (IN PD LIST) IN MIS
000466: 27,2117           50523                           STOVL    MIS        +6
000467: 27,2120           77626                           STADR
000468: 27,2121           50531                           STOVL    MIS
000469: 27,2122           03254                                    MIS        +6                         #  INNER GIMBAL AXIS IN FINAL S/C AXES
000470: 27,2123           57444                           BPL      VCOMP                                 #  LOCATE THE IG AXIS DIRECTION CLOSEST TO
000471: 27,2124           56125                                    IGSAMEX                               #  FINAL X S/C AXIS
000472:
000473: 27,2125           50035        IGSAMEX            VXV      BMN                                   #  FIND THE SHORTEST WAY OF ROTATING THE
000474: 27,2126           03765                                    SCAXIS                                #  S/C OUT OF GIMBAL LOCK BY A ROTATION
000475: 27,2127           56134                                    U=SCAXIS                              #  ABOUT +- SCAXIS, I.E. IF  (IG (SGN MFS3)
000476:                                                                                                  #  X SCAXIS . XF) LESS THAN 0, U = SCAXIS
000477:                                                                                                  #  OTHERWISE U = -SCAXIS
000478:
000479: 27,2130           57575                           VLOAD    VCOMP
000480: 27,2131           03765                                    SCAXIS
000481: 27,2132           37270                           STCALL   COF                                   #  ROTATE ABOUT -SCAXIS
000482: 27,2133           56137                                    CHEKAXIS
000483: 27,2134           77775        U=SCAXIS           VLOAD
000484: 27,2135           03765                                    SCAXIS
000485: 27,2136           03270                           STORE    COF                                   #  ROTATE ABOUT + SCAXIS
000486: 27,2137           51545        CHEKAXIS           DLOAD    ABS
000487: 27,2140           03765                                    SCAXIS                                #  SEE IF WE ARE POINTING THE AOT
000488: 27,2141           51025                           DSU      BPL
000489: 27,2142           14414                                    SINVEC2                               #  SIN 29.5 DEGS                        $2
000490: 27,2143           56147                                    PICKANG1                              #  IF SO, ROTATE 50 DEGS ABOUT +- SCAXIS
000491: 27,2144           52145                           DLOAD    GOTO                                  #  IF NOT, MUST BE POINTING THE TRANSPONDER
000492: 27,2145           14420                                    VECANG2                               #  OR SOME VECTOR IN THE Y, OR Z PLANE
000493: 27,2146           56151                                    COMPMFSN                              #  IN THIS CASE ROTATE 35 DEGS TO GET OUT
000494:                                                                                                  #  OF GIMBAL LOCK (VECANG2 $360)
000495: 27,2147           77745        PICKANG1           DLOAD
000496: 27,2150           14416                                    VECANG1                               #  = 50 DEGS                          $ 360
000497: 27,2151           77624        COMPMFSN           CALL
000498: 27,2152           44527                                    DELCOMP                               #  COMPUTE THE ROTATION ABOUT SCAXIS TO
000499: 27,2153           75160                           AXC,1    AXC,2                                 #  BRING MFS OUT OF GIMBAL LOCK
000500: 27,2154           03245                                    MIS
000501: 27,2155           02221                                    KEL
000502: 27,2156           77624                           CALL                                           #  COMPUTE THE NEW TRANSFORMATION FROM
000503: 27,2157           44312                                    MXM3                                  #  DESIRED S/C AXES TO STABLE MEMBER AXES
000504:                                                                                                  #  WHICH WILL ALIGN VI WITH VF AND AVOID
000505:


000507:                                                                                                  #  GIMBAL LOCK
000508: 27,2160           45160        FINDGIMB           AXC,1    CALL
000509: 27,2161           00000                                    0                                     #  EXTRACT THE COMMANDED CDU ANGLES FROM
000510: 27,2162           44654                                    DCMTOCDU                              #  THIS MATRIX
000511: 27,2163           40234                           RTB      SETPD
000512: 27,2164           21630                                    V1STO2S                               #  CONVERT TO 2:S COMPLEMENT
000513: 27,2165           00001                                    0
000514: 27,2166           77650                           GOTO
000515: 27,2167           03324                                    VECQTEMP                              #  RETURN TO CALLER
000516:
000517: 27,2170           50375        PICKAXIS           VLOAD    DOT                                   #  IF VF X VI = 0, FIND VF , VI
000518: 27,2171           00035                                    28D
000519: 27,2172           03765                                    SCAXIS
000520: 27,2173           72240                           BMN      TLOAD
000521: 27,2174           54362                                    ROT180
000522: 27,2175           00032                                    25D
000523: 27,2176           77650                           GOTO                                           #  IF VF = VI, CDU DESIRED = PRESENT CDU
000524: 27,2177           03324                                    VECQTEMP                              #  PRESENT CDU ANGLES
000525:
000526: 35,2000                                           BANK     35
000527: 26,2000                                           SETLOC   MANUVER1
000528: 26,2000                                           BANK
000529: 26,2362           47375        ROT180             VLOAD    VXV                                   #  IF VF, VI ANTIPARALLEL, 108 DEG ROTATION
000530: 26,2363           03254                                    MIS        +6                         #  IS REQUIRED. Y STABLE MEMBER AXIS IN
000531: 26,2364           06503                                    HIDPHALF                              #  INITIAL S/C AXES.
000532: 26,2365           47256                           UNIT     VXV                                   #  FIND Y(SM) X X(I)
000533: 26,2366           03765                                    SCAXIS                                #  FIND UNIT(VI X UNIT(Y(SM) X X(I)))
000534: 26,2367           40056                           UNIT     BOV                                   #  I.E. PICK A VECTOR IN THE PLANE OF X(I),
000535: 26,2370           54404                                    PICKX                                 #  Y(SM) PERPENDICULAR TO VI
000536: 26,2371           17270                           STODL    COF
000537: 26,2372           00045                                    36D                                   #  CHECK MAGNITUDE
000538: 26,2373           50025                           DSU      BMN                                   #  OF THIS VECTOR.
000539: 26,2374           14423                                    DPB-14                                #  IF LESS THAN B-14,
000540: 26,2375           54404                                    PICKX                                 #  PICK X-AXIS.
000541: 26,2376           77775                           VLOAD
000542: 26,2377           03270                                    COF
000543: 26,2400           17270        XROT               STODL    COF
000544: 26,2401           06503                                    HIDPHALF
000545: 26,2402           77650                           GOTO
000546: 26,2403           56072                                    COMPMATX
000547: 26,2404           52175        PICKX              VLOAD    GOTO                                  #  PICK THE XAXIS IN THIS CASE
000548: 26,2405           06503                                    HIDPHALF
000549: 26,2406           54400                                    XROT
000550: 26,2407           15555 35172  SINGIMLC           2DEC     .4285836003                            #  =SIN(59)                $2
000551: 26,2411           14113 36326  SINVEC1            2DEC     .3796356537                            #  =SIN(49.4)              $2
000552: 26,2413           07701 35703  SINVEC2            2DEC     .2462117800                            #  =SIN(29.5)              $2
000553: 26,2415           04343 21616  VECANG1            2DEC     .1388888889                            #  = 50 DEGREES                       $360
000554:


000556: 26,2417           03070 34344  VECANG2            2DEC     .09722222222                            #  = 35 DEGREES                       $360
000557: 26,2421           00000        1BITDP             OCT      0                                     #  KEEP THIS BEFORE DPB(-14)     *********
000558: 26,2422           00001        DPB-14             OCT      00001
000559: 26,2423           00000                           OCT      00000
000560:


000562:                                                                                                  #  ROUTINE FOR INITIATING AUTOMATIC MANEUVER VIA KEYBOARD (V49)
000563:
000564:
000565: 34,2000                                           BANK     34
000566: 23,2000                                           SETLOC   R62
000567: 23,2000                                           BANK
000568: 23,2103  E6,1675                                  EBANK=   BCDU
000569:
000570: 23,2103                                           COUNT*   $$/R62
000571:
000572: 23,2103  23,2103               R62DISP            EQUALS   R62FLASH
000573:
000574: 23,2103           35001        R62FLASH           CAF      V06N22                                #  FLASH V06N22 AND
000575: 23,2104           04607                           TC       BANKCALL                              #  ICDU ANGLES
000576: 23,2105           20471                           CADR     GOFLASH
000577: 23,2106           15474                           TCF      ENDEXT                                #  TERMINATE
000578: 23,2107           12111                           TCF      GOMOVE                                #  PROCEED
000579: 23,2110           12103                           TCF      R62FLASH                              #  ENTER
000580:
000581:                                                                                                  #  ASTRONAUT MAY LOAD NEW ICDUS AT THIS
000582:                                                                                                  #  POINT
000583: 23,2111           05506        GOMOVE             TC       UPFLAG                                #  SET FOR 3-AXIS MANEUVER
000584: 23,2112           00124                           ADRES    3AXISFLG
000585:
000586: 23,2113           04607                           TC       BANKCALL
000587: 23,2114           54125                           CADR     R60LEM
000588: 23,2115           15474                           TCF      ENDEXT                                #  END R62
000589:

End of include-file R60,R62.agc.  Parent file is MAIN.agc


