
Source Code


000002:                                                                                                  ## Copyright:   Public domain.
000003:                                                                                                  ## Filename:    R60,R62.agc
000004:                                                                                                  ## Purpose:     A section of Luminary revision 210.
000005:                                                                                                  ##              It is part of the source code for the Lunar Module's (LM)
000006:                                                                                                  ##              Apollo Guidance Computer (AGC) for Apollo 15-17.
000007:                                                                                                  ##              This file is intended to be a faithful transcription, except
000008:                                                                                                  ##              that the code format has been changed to conform to the
000009:                                                                                                  ##              requirements of the yaYUL assembler rather than the
000010:                                                                                                  ##              original YUL assembler.
000011:                                                                                                  ## Reference:   pp. 487-500
000012:                                                                                                  ## Assembler:   yaYUL
000013:                                                                                                  ## Contact:     Ron Burkey <info@sandroid.org>.
000014:                                                                                                  ## Website:     www.ibiblio.org/apollo/index.html
000015:                                                                                                  ## Mod history: 2016-11-17 JL   Created from Luminary131 version.
000016:                                                                                                  ##              2016-11-27 HG   Transcribed
000017:                                                                                                  ##              2016-12-07 HG   Fix P00 -> POO
000018:                                                                                                  ##                              Change POO -> P00 in some comments
000019:                                                                                                  ##              2016-12-23 RSB  Proofed comment text with octopus/ProoferComments
000020:                                                                                                  ##                              and fixed all errors found.
000021:                                                                                                  ##              2017-03-09 RSB  Comment text fixes noted in proofing Luminary 116.
000022:                                                                                                  ##              2017-03-16 RSB  Comment-text fixes identified in 5-way
000023:                                                                                                  ##                              side-by-side diff of Luminary 69/99/116/131/210.
000024:                                                                                                  ##              2021-05-30 ABS  STARTMNAD -> STRTMNAD
000025:


000027:                                                                                                  #  MOD NO: 0                             DATE: 1 MAY 1968
000028:                                                                                                  #  MOD BY: DIGITAL DEVEL GROUP           LOG SECTION R60,R62
000029:
000030:                                                                                                  #  FUNCTIONAL DESCRIPTION:
000031:
000032:                                                                                                  #  CALLED AS A GENERAL SUBROUTINE TO MANEUVER THE LM TO A SPECIFIED
000033:                                                                                                  #  ATTITUDE.
000034:
000035:                                                                                                  #  1. IF THE 3-AXIS FLAG IS NOT SET THE FINAL CDU ANGLES ARE
000036:                                                                                                  #  CALCULATED (VECPOINT).
000037:
000038:                                                                                                  #  2. THE FDAI BALL ANGLES (NOUN 18) ARE CALCULATED (BALLANGS).
000039:
000040:                                                                                                  #  3. REQUEST FLASHING DISPLAY V50 N18 PLEASE PERFORM AUTO MANEUVER.
000041:
000042:                                                                                                  #  4. IF PRIORITY DISPLAY FLAG IS SET DO A PHASECHANGE. THEN AWAIT
000043:                                                                                                  #  ASTRONAUT RESPONSE.
000044:
000045:                                                                                                  #  5. DISPLAY RESPONSE RETURNS:
000046:
000047:                                                                                                  #      A. ENTER - RESET 3-AXIS FLAG AND RETURN TO CLIENT.
000048:
000049:                                                                                                  #      B. TERMINATE - IF IN P00 GO TO STEP 5A. OTHERWISE CHECK IF R61 IS
000050:                                                                                                  #         THE CALLING PROGRAM. IF IN R61 AN EXIT IS MADE TO GOTOV56. IF
000051:                                                                                                  #         NOT IN R61 AN EXIT IS DONE VIA GOTOP00H.
000052:
000053:                                                                                                  #      C. PROCEED - CONTINUE WITH PROGRAM AT STEP 6.
000054:
000055:                                                                                                  #  6. IF THE 3-AXISFLAG IS NOT SET, THE FINAL CDU ANGLES ARE CALCULATED
000056:                                                                                                  #     (VECPOINT).
000057:
000058:                                                                                                  #  7. THE FDAI BALL ANGLES (NOUN 18) ARE CALCULATED (BALLANGS).
000059:
000060:                                                                                                  #  8. IF THE G+N SWITCH IS NOT SET GO BACK TO STEP 3.
000061:
000062:                                                                                                  #  9. IF THE AUTO SWITCH IS NOT SET GO BACK TO STEP 3.
000063:
000064:                                                                                                  #  10. NONFLASHING DISPLAY V06N18 (FDAI ANGLES).
000065:
000066:                                                                                                  #  11. DO A PHASECHANGE.
000067:
000068:                                                                                                  #  12. DO A MANEUVER CALCULATION AND ICDU DRIVE ROUTINE TO ACHIEVE FINAL
000069:
000070:                                                                                                  #      GIMBAL ANGLES (GOMANUR).
000071:                                                                                                  #  13. AT END OF MANEUVER GO TO STEP 3.
000072:
000073:                                                                                                  #           IF SATISFACTORY MANEUVER STEP 5A EXITS R60.
000074:                                                                                                  #           FOR FURTHER ADJUSTMENT OF THE VEHICLE ATTITUDE ABOUT THE
000075:                                                                                                  #           DESIRED VECTOR, THE ROUTINE MAY BE PERFORMED AGAIN STARTING AT
000076:


000078:                                                                                                  #           STEP 5C.
000079:
000080:                                                                                                  #  CALLING SEQUENCE:  TC BANKCALL
000081:                                                                                                  #                     CADR R60LEM
000082:
000083:                                                                                                  #  ERASABLE INITIALIZATION REQUIRED : SCAXIS, POINTVSM (FOR VECPOINT)
000084:                                                                                                  #                                     3AXISFLG.
000085:
000086:                                                                                                  #  SUBROUTINES CALLED: VECPOINT, BALLANGS, GOPERF2R, LINUS, GODSPER,
000087:                                                                                                  #                     GOMANUR, DOWNFLAG, PHASCHNG, UPFLAG
000088:
000089:                                                                                                  #  NORMAL EXIT MODES: CAE TEMPR60   (CALLERS RETURN ADDRESS)
000090:                                                                                                  #                     TC  BANKJUMP
000091:
000092:                                                                                                  #  ALARMS: NONE
000093:
000094:                                                                                                  #  OUTPUT: NONE
000095:
000096:                                                                                                  #  DEBRIS: CPHI, CTHETA, CPSI, 3AXISFLG, TBASE2
000097:
000098:
000099: 34,2000                                           BANK     34
000100: 26,2000                                           SETLOC   MANUVER
000101: 26,2000                                           BANK
000102:
000103: 26,2125     1163                                  EBANK=   TEMPR60
000104:
000105: 26,2125                                           COUNT*   $$/R06
000106: 26,2125           04636        R60LEM             TC       MAKECADR
000107: 26,2126           55163                           TS       TEMPR60
000108:
000109: 26,2127           34737        REDOMANN           CAF      3AXISBIT
000110: 26,2130           70101                           MASK     FLAGWRD5                              #  IS 3-AXIS FLAG SET
000111: 26,2131           10000                           CCS      A
000112: 26,2132           12140                           TCF      TOBALL                                #  YES
000113: 26,2133           06060                           TC       INTPRET
000114: 26,2134           77624                           CALL
000115: 26,2135           56040                                    VECPOINT                              #  TO COMPUTE FINAL ANGLES
000116: 26,2136           00322                           STORE    CPHI                                  #  STORE FINAL ANGLES - CPHI,CTHETA,CPSI
000117: 26,2137           77776                           EXIT
000118:
000119: 26,2140           05506        TOBALL             TC       UPFLAG                                #  INSURE THAT TOTAL ATTITUDE ERRORS ARE
000120: 26,2141           00013                           ADRES    NEEDLFLG                              #  DISPLAYED ON FDAI ERROR NEEDLES
000121: 26,2142           05520                           TC       DOWNFLAG
000122: 26,2143           00000                           ADRES    NEED2FLG
000123: 26,2144           04607                           TC       BANKCALL
000124: 26,2145           54300                           CADR     BALLANGS                              #  TO CONVERT ANGLES TO FDAI
000125: 26,2146           32266        TOBALLA            CAF      V06N18
000126: 26,2147           04607                           TC       BANKCALL
000127:


000129: 26,2150           20722                           CADR     GOPERF2R                              #  DISPLAY PLEASE PERFORM AUTO MANEUVER
000130: 26,2151           02254                           TC       R61TEST
000131: 26,2152           02162                           TC       REDOMANC                              #  PROCEED
000132: 26,2153           02207                           TC       ENDMANU1                              #  ENTER I.E. FINISHED WITH R60
000133: 26,2154           02214                           TC       CHKLINUS                              #  TO CHECK FOR PRIORITY DISPLAYS
000134: 26,2155           05146                           TC       ENDOFJOB
000135:
000136: 26,2156           46266                           CS       THREE                                 #  SET UP RESTART POINT AT BEGINNING OF
000137: 26,2157           60133                           AD       BUF2                                  #    DISPLAY IF PRIORITY DISP FLAG SET
000138: 26,2160           02221                           TC       CHKLINS1
000139: 26,2161           05146                           TC       ENDOFJOB
000140:
000141: 26,2162           34737        REDOMANC           CAF      3AXISBIT
000142: 26,2163           70101                           MASK     FLAGWRD5                              #  IS 3-AXIS FLAG SET
000143: 26,2164           10000                           CCS      A
000144: 26,2165           12173                           TCF      TOBALLC                               #  YES
000145: 26,2166           06060                           TC       INTPRET
000146: 26,2167           77624                           CALL
000147: 26,2170           56040                                    VECPOINT                              #  TO COMPUTE FINAL ANGLES
000148: 26,2171           00322                           STORE    CPHI                                  #  STORE ANGLES
000149: 26,2172           77776                           EXIT
000150:
000151: 26,2173           04607        TOBALLC            TC       BANKCALL
000152: 26,2174           54300                           CADR     BALLANGS                              #  TO CONVERT ANGLES TO FDAI
000153: 26,2175           02267                           TC       G+N,AUTO                              #  CHECK AUTO MODE
000154: 26,2176           10000                           CCS      A
000155: 26,2177           12146                           TCF      TOBALLA                               #  NOT AUTO, GO REREQUEST AUTO MANEUVER.
000156:
000157: 26,2200           02214        AUTOMANV           TC       CHKLINUS
000158: 26,2201           12204                           TCF      STARTMNV
000159: 26,2202           32213                           CAF      STRTMNAD                              #  RESTART AT STARTMNV IF PRIORITY
000160: 26,2203           55054                           TS       TBASE2                                #     DISPLAY FLAG SET
000161:
000162: 26,2204           04607        STARTMNV           TC       BANKCALL                              #  PERFORM MANEUVER VIA KALCMANU
000163: 26,2205           42764                           CADR     GOMANUR
000164:
000165: 26,2206           12146        ENDMANUV           TCF      TOBALLA                               #  FINISHED MANEUVER.
000166: 26,2207           05520        ENDMANU1           TC       DOWNFLAG                              #  RESET 3-AXIS FLAG
000167: 26,2210           00124                           ADRES    3AXISFLG
000168: 26,2211           31163                           CAE      TEMPR60                               #                                        -
000169: 26,2212           04631                           TC       BANKJUMP                              #                                        -
000170:
000171: 26,2213           02204        STRTMNAD           ADRES    STARTMNV
000172:
000173: 26,2214           40101        CHKLINUS           CS       FLAGWRD5
000174: 26,2215           74727                           MASK     PDSPFBIT                              #  IS PRIORITY DISPLAY FLAG SET?
000175: 26,2216           10000                           CCS      A                                     #                                        -
000176: 26,2217           00002                           TC       Q                                     #  NO - EXIT
000177: 26,2220           16760                           TCF      Q+1                                   #  GO BACK AND SET UP CORRECT RESTART ADDR.
000178:


000180: 26,2221           55054        CHKLINS1           TS       TBASE2
000181: 26,2222           30002                           CA       Q
000182: 26,2223           54156                           TS       MPAC       +2
000183:
000184: 26,2224           05355                           TC       PHASCHNG
000185: 26,2225           00132                           OCT      00132
000186:
000187: 26,2226           34736                           CAF      BIT7
000188: 26,2227           05466                           TC       LINUS                                 #  GO SET BITS FOR PRIORITY DISPLAY    -
000189: 26,2230           00156                           TC       MPAC       +2
000190:
000191: 26,2231           37735        RELINUS            CAF      PRIO26                                #  RESTORE ORIGINAL PRIORITY
000192: 26,2232           05137                           TC       PRIOCHNG
000193:
000194: 26,2233           34740                           CAF      TRACKBIT                              #  DON'T CONTINUE R60 UNLESS TRACKFLAG ON.
000195: 26,2234           70075                           MASK     FLAGWRD1
000196: 26,2235           10000                           CCS      A
000197: 26,2236           12251                           TCF      RER60
000198:
000199: 26,2237           34736                           CAF      RNDVZBIT                              #  IS IT P20?
000200: 26,2240           70074                           MASK     FLAGWRD0
000201: 26,2241           10000                           CCS      A
000202: 26,2242           02246                           TC       +4                                    #  YES
000203: 26,2243           05355                           TC       PHASCHNG                              #  NO, MUST BE P25, SET 2.11 SPOT
000204: 26,2244           40112                           OCT      40112
000205:
000206: 26,2245           05146                           TC       ENDOFJOB
000207:
000208: 26,2246           05355                           TC       PHASCHNG                              #  SET 2.7 SPOT FOR P20
000209: 26,2247           40072                           OCT      40072
000210:
000211: 26,2250           05146                           TC       ENDOFJOB
000212:
000213: 26,2251           05506        RER60              TC       UPFLAG                                #  SET PRIO DISPLAY FLAG AFTER RESTART
000214: 26,2252           00114                           ADRES    PDSPFLAG
000215:
000216: 26,2253           01054                           TC       TBASE2
000217:
000218: 26,2254           31010        R61TEST            CA       MODREG                                #  IF WE ARE IN P00 IT MUST BE V49 OR V89
000219: 26,2255           00006                           EXTEND
000220: 26,2256           12207                           BZF      ENDMANU1                              #  THUS WE GO TO ENDEXT VIA USER
000221:
000222: 26,2257           30101                           CA       FLAGWRD5
000223: 26,2260           74727                           MASK     PDSPFBIT
000224: 26,2261           00006                           EXTEND
000225: 26,2262           16001                           BZF      GOTOPOOH                              #  NO
000226: 26,2263           06043                           TC       GOTOV56                               #  YES
000227:
000228: 26,2264           20100        BIT14+7            OCT      20100                                 #                                        -
000229: 26,2265           00203        OCT203             OCT      203
000230:


000232: 26,2266           01422        V06N18             VN       0618
000233:                                                                                                  #           SUBROUTINE TO CHECK FOR G+N CONTROL, AUTO STABILIZATION
000234:
000235:                                                                                                  #           RETURNS WITH C(A) = +  IF NOT SET FOR G+N, AUTO
000236:                                                                                                  #           RETURNS WITH C(A) = +0 IF SWITCHES ARE SET
000237:
000238: 26,2267           00006        G+N,AUTO           EXTEND
000239: 26,2270           00030                           READ     CHAN30
000240: 26,2271           74733                           MASK     BIT10
000241: 26,2272           10000                           CCS      A
000242: 26,2273           00002                           TC       Q                                     #  NOT IN G+N  C(A) = +
000243: 26,2274           00006        ISITAUTO           EXTEND                                         #  CHECK FOR AUTO MODE
000244: 26,2275           00031                           READ     CHAN31
000245: 26,2276           74727                           MASK     BIT14
000246: 26,2277           00002                           TC       Q                                     #  (+) = NOT IN AUTO, (+0) = AOK
000247:


000249:                                                                                                  #  PROGRAM DESCRIPTION BALLANGS
000250:                                                                                                  #  MOD NO.         LOG SECTION R60,R62
000251:
000252:                                                                                                  #  WRITTEN BY RAMA M.AIYAWAR
000253:                                                                                                  #  FUNCTIONAL DESCRIPTION
000254:
000255:                                                                                                  #  COMPUTES LM FDAI BALL DISPLAY ANGLES
000256:                                                                                                  #  CALLING SEQUENCE
000257:
000258:                                                                                                  #           TC      BALLANGS
000259:                                                                                                  #  NORMAL EXIT MODE
000260:
000261:                                                                                                  #           TC      BALLEXIT        (SAVED Q)
000262:
000263:                                                                                                  #  ALARM OR EXIT MODE   NIL
000264:                                                                                                  #  SUBROUTINES CALLED
000265:                                                                                                  #           CD*TR*G
000266:                                                                                                  #           ARCTAN
000267:
000268:                                                                                                  #  INPUT
000269:
000270:                                                                                                  #  CPHI,CTHETA,CPSI  ARE  THE ANGLES CORRESPONDING TO AOG,AIG,AMG.  THEY ARE
000271:                                                                                                  #  SP,2S COMPLIMENT SCALED TO HALF REVOLUTION.
000272:                                                                                                  #  OUTPUT
000273:
000274:                                                                                                  #  FDAIX,FDAIY,FDAIZ ARE THE REQUIRED BALL ANGLES SCALED TO HALF REVOLUTION
000275:                                                                                                  #  SP,2S COMPLIMENT.
000276:                                                                                                  #  THESE ANGLES WILL BE DISPLAYED AS DEGREES AND HUNDREDTHS, IN THE ORDER ROLL, PITCH, YAW, USING NOUNS 18 & 19.
000277:
000278:                                                                                                  #  ERASABLE INITIALIZATION REQUIRED
000279:
000280:                                                                                                  #  CPHI,CTHETA,CPSI EACH A SP REGISTER
000281:                                                                                                  #  DEBRIS
000282:
000283:                                                                                                  #  A,L,Q,MPAC,SINCDU,COSCDU,PUSHLIST,BALLEXIT
000284:
000285:
000286:                                                                                                  #  NOMENCLATURE:  CPHI, CTHETA, & CPSI REPRESENT THE OUTER, INNER, & MIDDLE GIMBAL ANGLES, RESPECTIVELY; OR
000287:                                                                                                  #  EQUIVALENTLY, CDUX, CDUY, & CDUZ.
000288:
000289:                                                                                                  #  NOTE:  ARCTAN CHECKS FOR OVERFLOW AND SHOULD BE ABLE TO HANDLE ANY SINGULARITIES.
000290:
000291: 26,2000                                           SETLOC   BAWLANGS
000292: 26,2000                                           BANK
000293:
000294: 26,2300                                           COUNT*   $$/BALL
000295: 26,2300           04636        BALLANGS           TC       MAKECADR
000296: 26,2301           55337                           TS       BALLEXIT
000297: 26,2302           30321                           CA       CPHI
000298:


000300: 26,2303           54771                           TS       CDUSPOT    +4
000301: 26,2304           30322                           CA       CTHETA
000302: 26,2305           54765                           TS       CDUSPOT
000303: 26,2306           30323                           CA       CPSI
000304: 26,2307           54767                           TS       CDUSPOT    +2
000305:
000306: 26,2310           06060                           TC       INTPRET
000307: 26,2311           45001                           SETPD    CALL
000308: 26,2312           00001                                    0D
000309: 26,2313           47526                                    CD*TR*G
000310:
000311: 26,2314           41345                           DLOAD    DMP
000312: 26,2315           00742                                    SINCDUX                               #  SIN (OGA)
000313: 26,2316           00746                                    COSCDUZ                               #  COS (MGA)
000314:
000315: 26,2317           57552                           SL1      DCOMP                                 #  SCALE
000316: 26,2320           65336                           ARCSIN   PDDL                                  #  YAW = ARCSIN(-SXCZ) INTO 0 PD
000317: 26,2321           00740                                    SINCDUZ
000318: 26,2322           14023                           STODL    SINTH                                 #  (SINTH = 18D IN PD)
000319: 26,2323           00746                                    COSCDUZ
000320: 26,2324           72405                           DMP      SL1                                   #  RESCALE
000321: 26,2325           00750                                    COSCDUX
000322: 26,2326           34021                           STCALL   COSTH                                 #  (COSTH = 16D IN PD)
000323: 26,2327           26545                                    ARCTAN
000324: 26,2330           41325                           PDDL     DMP                                   #  ROLL = ARCTAN(SZ/CZCX) INTO 2 PD
000325: 26,2331           00740                                    SINCDUZ
000326: 26,2332           00742                                    SINCDUX
000327: 26,2333           41512                           SL2      PUSH                                  #  SXSZ INTO 4 PD
000328: 26,2334           65205                           DMP      PDDL                                  #  SXSZCY INTO 4 PD
000329: 26,2335           00744                                    COSCDUY
000330: 26,2336           65205                           DMP      PDDL                                  #  SXSZSY INTO 6 PD
000331: 26,2337           00736                                    SINCDUY
000332: 26,2340           00750                                    COSCDUX
000333: 26,2341           72405                           DMP      SL1                                   #  CXCY
000334: 26,2342           00744                                    COSCDUY
000335: 26,2343           45425                           DSU      STADR                                 #  PULL UP FROM 6 PD
000336: 26,2344           63756                           STODL    COSTH                                 #  COSTH = CXCY - SXSZSY
000337: 26,2345           00736                                    SINCDUY
000338: 26,2346           72405                           DMP      SL1
000339: 26,2347           00750                                    COSCDUX                               #  CXSY
000340: 26,2350           45415                           DAD      STADR                                 #  PULL UP FROM 4 PD
000341: 26,2351           43754                           STCALL   SINTH                                 #  SINTH = CXSY + SXSZCY
000342: 26,2352           26545                                    ARCTAN                                #  RETURNS WITH D(MPAC) = PITCH
000343: 26,2353           55525                           PDDL     VDEF                                  #  PITCH INTO 2 PD, ROLL INTO MPAC FROM 2PD
000344: 26,2354           77634                           RTB                                            #  VDEF MAKES V(MPAC) = ROLL, PITCH, YAW
000345: 26,2355           21630                                    V1STO2S
000346: 26,2356           02336                           STORE    FDAIX                                 #  MODE IS TP
000347: 26,2357           77776                           EXIT
000348:
000349: 26,2360           31337        ENDBALL            CA       BALLEXIT
000350:


000352: 26,2361           04631                           TC       BANKJUMP
000353:


000355:                                                                                                  #  PROGRAM DESCRIPTION - VECPOINT
000356:
000357:
000358:                                                                                                  #           THIS INTERPRETIVE SUBROUTINE MAY BE USED TO POINT A SPACECRAFT AXIS IN A DESIRED DIRECTION.  THE AXIS
000359:                                                                                                  #  TO BE POINTED MUST APPEAR AS A HALF UNIT DOUBLE PRECISION VECTOR IN SUCCESSIVE LOCATIONS OF ERASABLE MEMORY
000360:                                                                                                  #  BEGINNING WITH THE LOCATION CALLED SCAXIS.  THE COMPONENTS OF THIS VECTOR ARE GIVEN IN SPACECRAFT COORDINATES.
000361:                                                                                                  #  THE DIRECTION IN WHICH THIS AXIS IS TO BE POINTED MUST APPEAR AS A HALF UNIT DOUBLE PRECISION VECTOR IN
000362:                                                                                                  #  SUCCESSIVE LOCATIONS OF ERASABLE MEMORY BEGINNING WITH THE ADDRESS CALLED POINTVSM.  THE COMPONENTS OF THIS
000363:                                                                                                  #  VECTOR ARE GIVEN IN STABLE MEMBER COORDINATES.  WITH THIS INFORMATION VECPOINT COMPUTES A SET OF THREE GIMBAL
000364:                                                                                                  #  ANGLES (2S COMPLEMENT) CORESPONDING TO THE CROSS-PRODUCT ROTATION BETWE EN SCAXIS AND POINTVSM AND STORES THEM
000365:                                                                                                  #  IN T(MPAC) BEFORE RETURNING TO THE CALLER.
000366:                                                                                                  #           THIS ROTATION, HOWEVER, MAY BRING THE S/C INTO GIMBAL LOCK.  WHEN POINTING A VECTOR IN THE Y-Z PLANE,
000367:                                                                                                  #  THE TRANSPONDER AXIS, OR THE AOT FOR THE LEM, THE PROGRAM WILL CORRECT THIS PROBLEM BY ROTATING THE CROSS-
000368:                                                                                                  #  PRODUCT ATTITUDE ABOUT POINTVSM BY A FIXED AMOUNT SUFFICIENT TO ROTATE THE DESIRED S/C ATTITUDE OUT OF GIMBAL
000369:                                                                                                  #  LOCK.  IF THE AXIS TO BE POINTED IS MORE THAN 40.6 DEGREES BUT LESS THAN 60.5 DEG FROM THE +X (OR-X) AXIS,
000370:                                                                                                  #  THE ADDITIONAL ROTATION TO AVOID GIMAL LOCK IS 35 DEGREES.  IF THE AXIS IS MORE THAN 60.5 DEGEES FROM +X (OR -X)
000371:                                                                                                  #  THE ADDITIONAL ROTATION IS 35 DEGREES.  THE GIMBAL ANGLES CORRESPONDING TO THIS ATTITUDE ARE THEN COMPUTED AND
000372:                                                                                                  #  STORED AS 2S COMPLIMENT ANGLES IN T(MPAC) BEFORE RETURNING TO THE CALLER.
000373:                                                                                                  #           WHEN POINTING THE X-AXIS, OR THE THRUST VECTOR, OR ANY VECTOR WITHIN 40.6 DEG OF THE X-AXIS, VECPOINT
000374:                                                                                                  #  CANNOT CORRECT FOR A CROSS-PRODUCT ROTATION INTO GIMBAL LOCK.  IN THIS CASE A PLATFORM REALIGNMENT WOULD BE
000375:                                                                                                  #  REQUIRED TO POINT THE VECTOR IN THE DESIRED DIRECTION.  AT PRESENT NO INDICATION IS GIVEN FOR THIS SITUATION
000376:                                                                                                  #  EXCEPT THAT THE FINAL MIDDLE GIMBAL ANGLE IN MPAC +2 IS GREATER THAN 59 DEGREES.
000377:
000378:                                                                                                  #           CALLING SEQUENCE -
000379:                                                                                                  #               1) LOAD SCAXIS, POINTVSM
000380:                                                                                                  #               2) CALL
000381:                                                                                                  #                        VECPOINT
000382:
000383:                                                                                                  #           RETURNS WITH
000384:
000385:                                                                                                  #               1) DESIRED OUTER  GIMBAL ANGLE IN MPAC
000386:                                                                                                  #               2) DESIRED INNER  GIMBAL ANGLE IN MPAC +1
000387:                                                                                                  #               3) DESIRED MIDDLE GIMBAL ANGLE IN MPAC +2
000388:
000389:
000390:                                                                                                  #           ERASABLES USED -
000391:
000392:                                                                                                  #               1) SCAXIS           6
000393:                                                                                                  #               2) POINTVSM         6
000394:                                                                                                  #               3) MIS             18
000395:                                                                                                  #               4) DEL             18
000396:                                                                                                  #               5) COF              6
000397:                                                                                                  #               6) VECQTEMP         1
000398:                                                                                                  #               7) ALL OF VAC AREA 43
000399:
000400:                                                                                                  #                        TOTAL     99
000401:
000402: 27,2000                                           SETLOC   VECPT
000403: 27,2000                                           BANK
000404:


000406: 27,2032                                           COUNT*   $$/VECPT
000407:
000408: 27,2032  E6,1675                                  EBANK=   BCDU
000409:
000410: 27,2032           40020        VECPNT1            STQ      BOV                                   #  THIS ENTRY USES DESIRED CDUS
000411: 27,2033           03324                                    VECQTEMP                              #  NOT PRESENT-ENTER WITH CDUD'S IN MPAC
000412: 27,2034           56035                                    VECPNT2
000413: 27,2035           52164        VECPNT2            AXC,2    GOTO
000414: 27,2036           03245                                    MIS
000415: 27,2037           56046                                    STORANG
000416: 27,2040           40020        VECPOINT           STQ      BOV                                   #  SAVE RETURN ADDRESS
000417: 27,2041           03324                                    VECQTEMP
000418: 27,2042           56043                                    VECLEAR                               #  AND CLEAR OVFIND
000419: 27,2043           47164        VECLEAR            AXC,2    RTB
000420: 27,2044           03245                                    MIS                                   #  READ THE PRESENT CDU ANGLES AND
000421: 27,2045           44403                                    READCDUK                              #  STORE THEM IN PD25, 26, 27
000422: 27,2046           34032        STORANG            STCALL   25D
000423: 27,2047           44410                                    CDUTODCM                              #  S/C AXES TO STABLE MEMBER AXES (MIS)
000424: 27,2050           61375                           VLOAD    VXM
000425: 27,2051           03773                                    POINTVSM                              #  RESOLVE THE POINTING DIRECTION VF INTO
000426: 27,2052           03246                                    MIS                                   #  INITIAL S/C AXES (VF = POINTVSM)
000427: 27,2053           77656                           UNIT
000428: 27,2054           00035                           STORE    28D
000429:                                                                                                  #  PD 28 29 30 31 32 33
000430: 27,2055           53435                           VXV      UNIT                                  #  TAKE THE CROSS PRODUCT VF X VI
000431: 27,2056           03765                                    SCAXIS                                #  WHERE VI = SCAXIS
000432: 27,2057           57400                           BOV      VCOMP
000433: 27,2060           56170                                    PICKAXIS
000434: 27,2061           17270                           STODL    COF                                   #  CHECK MAGNITUDE
000435: 27,2062           00045                                    36D                                   #  OF CROSS PRODUCT
000436: 27,2063           50025                           DSU      BMN                                   #  VECTOR, IF LESS
000437: 27,2064           14423                                    DPB-14                                #  THAN B-14 ASSUME
000438: 27,2065           56170                                    PICKAXIS                              #  UNIT OPERATION
000439: 27,2066           50375                           VLOAD    DOT                                   #           INVALID.
000440: 27,2067           03765                                    SCAXIS
000441: 27,2070           00035                                    28D
000442: 27,2071           65552                           SL1      ARCCOS
000443: 27,2072           77624        COMPMATX           CALL                                           #  NOW COMPUTE THE TRANSFORMATION FROM
000444: 27,2073           44527                                    DELCOMP                               #  FINAL S/C AXES TO INITIAL S/C AXES MFI
000445: 27,2074           75160                           AXC,1    AXC,2
000446: 27,2075           03245                                    MIS                                   #  COMPUTE THE TRANSFORMATION FROM FINAL
000447: 27,2076           02221                                    KEL                                   #  S/C AXES TO STABLE MEMBER AXES
000448: 27,2077           77624                           CALL                                           #  MFS = MIS MFI
000449: 27,2100           44312                                    MXM3                                  #  (IN PD LIST)
000450:
000451: 27,2101           51545                           DLOAD    ABS
000452: 27,2102           00007                                    6                                     #  MFS6 = SIN(CPSI)                    $2
000453: 27,2103           50025                           DSU      BMN
000454: 27,2104           14410                                    SINGIMLC                              #  = SIN(59 DEGS)                      $2
000455: 27,2105           56160                                    FINDGIMB                              #  /CPSI/ LESS THAN 59 DEGS
000456:


000458:                                                                                                  #  I.E. DESIRED ATTITUDE NOT IN GIMBAL LOCK
000459:
000460: 27,2106           51545                           DLOAD    ABS                                   #  CHECK TO SEE IF WE ARE POINTING
000461: 27,2107           03765                                    SCAXIS                                #  THE THRUST AXIS
000462: 27,2110           51025                           DSU      BPL
000463: 27,2111           14412                                    SINVEC1                               #  SIN 49.4 DEGS                        $2
000464: 27,2112           56160                                    FINDGIMB                              #  IF SO, WE ARE TRYING TO POINT IT INTO
000465: 27,2113           77775                           VLOAD                                          #  GIMBAL LOCK, ABORT COULD GO HERE
000466: 27,2114           77626                           STADR
000467: 27,2115           50515                           STOVL    MIS        +12D
000468: 27,2116           77626                           STADR                                          #  STORE MFS (IN PD LIST) IN MIS
000469: 27,2117           50523                           STOVL    MIS        +6
000470: 27,2120           77626                           STADR
000471: 27,2121           50531                           STOVL    MIS
000472: 27,2122           03254                                    MIS        +6                         #  INNER GIMBAL AXIS IN FINAL S/C AXES
000473: 27,2123           57444                           BPL      VCOMP                                 #  LOCATE THE IG AXIS DIRECTION CLOSEST TO
000474: 27,2124           56125                                    IGSAMEX                               #  FINAL X S/C AXIS
000475:
000476: 27,2125           50035        IGSAMEX            VXV      BMN                                   #  FIND THE SHORTEST WAY OF ROTATING THE
000477: 27,2126           03765                                    SCAXIS                                #  S/C OUT OF GIMBAL LOCK BY A ROTATION
000478: 27,2127           56134                                    U=SCAXIS                              #  ABOUT +- SCAXIS, I.E. IF  (IG (SGN MFS3)
000479:                                                                                                  #  X SCAXIS . XF) LESS THAN 0, U = SCAXIS
000480:                                                                                                  #  OTHERWISE U = -SCAXIS
000481:
000482: 27,2130           57575                           VLOAD    VCOMP
000483: 27,2131           03765                                    SCAXIS
000484: 27,2132           37270                           STCALL   COF                                   #  ROTATE ABOUT -SCAXIS
000485: 27,2133           56137                                    CHEKAXIS
000486: 27,2134           77775        U=SCAXIS           VLOAD
000487: 27,2135           03765                                    SCAXIS
000488: 27,2136           03270                           STORE    COF                                   #  ROTATE ABOUT + SCAXIS
000489: 27,2137           51545        CHEKAXIS           DLOAD    ABS
000490: 27,2140           03765                                    SCAXIS                                #  SEE IF WE ARE POINTING THE AOT
000491: 27,2141           51025                           DSU      BPL
000492: 27,2142           14414                                    SINVEC2                               #  SIN 29.5 DEGS                        $2
000493: 27,2143           56147                                    PICKANG1                              #  IF SO, ROTATE 50 DEGS ABOUT +- SCAXIS
000494: 27,2144           52145                           DLOAD    GOTO                                  #  IF NOT, MUST BE POINTING THE TRANSPONDER
000495: 27,2145           14420                                    VECANG2                               #  OR SOME VECTOR IN THE Y, OR Z PLANE
000496: 27,2146           56151                                    COMPMFSN                              #  IN THIS CASE ROTATE 35 DEGS TO GET OUT
000497:                                                                                                  #  OF GIMBAL LOCK (VECANG2 $360)
000498: 27,2147           77745        PICKANG1           DLOAD
000499: 27,2150           14416                                    VECANG1                               #  = 50 DEGS                          $ 360
000500: 27,2151           77624        COMPMFSN           CALL
000501: 27,2152           44527                                    DELCOMP                               #  COMPUTE THE ROTATION ABOUT SCAXIS TO
000502: 27,2153           75160                           AXC,1    AXC,2                                 #  BRING MFS OUT OF GIMBAL LOCK
000503: 27,2154           03245                                    MIS
000504: 27,2155           02221                                    KEL
000505: 27,2156           77624                           CALL                                           #  COMPUTE THE NEW TRANSFORMATION FROM
000506: 27,2157           44312                                    MXM3                                  #  DESIRED S/C AXES TO STABLE MEMBER AXES
000507:                                                                                                  #  WHICH WILL ALIGN VI WITH VF AND AVOID
000508:


000510:                                                                                                  #  GIMBAL LOCK
000511: 27,2160           45160        FINDGIMB           AXC,1    CALL
000512: 27,2161           00000                                    0                                     #  EXTRACT THE COMMANDED CDU ANGLES FROM
000513: 27,2162           44654                                    DCMTOCDU                              #  THIS MATRIX
000514: 27,2163           40234                           RTB      SETPD
000515: 27,2164           21630                                    V1STO2S                               #  CONVERT TO 2:S COMPLEMENT
000516: 27,2165           00001                                    0
000517: 27,2166           77650                           GOTO
000518: 27,2167           03324                                    VECQTEMP                              #  RETURN TO CALLER
000519:
000520: 27,2170           50375        PICKAXIS           VLOAD    DOT                                   #  IF VF X VI = 0, FIND VF . VI
000521: 27,2171           00035                                    28D
000522: 27,2172           03765                                    SCAXIS
000523: 27,2173           72240                           BMN      TLOAD
000524: 27,2174           54362                                    ROT180
000525: 27,2175           00032                                    25D
000526: 27,2176           77650                           GOTO                                           #  IF VF = VI, CDU DESIRED = PRESENT CDU
000527: 27,2177           03324                                    VECQTEMP                              #  PRESENT CDU ANGLES
000528:
000529: 35,2000                                           BANK     35
000530: 26,2000                                           SETLOC   MANUVER1
000531: 26,2000                                           BANK
000532: 26,2362           47375        ROT180             VLOAD    VXV                                   #  IF VF, VI ANTIPARALLEL, 108 DEG ROTATION
000533: 26,2363           03254                                    MIS        +6                         #  IS REQUIRED. Y STABLE MEMBER AXIS IN
000534: 26,2364           06503                                    HIDPHALF                              #  INITIAL S/C AXES.
000535: 26,2365           47256                           UNIT     VXV                                   #  FIND Y(SM) X X(I)
000536: 26,2366           03765                                    SCAXIS                                #  FIND UNIT(VI X UNIT(Y(SM) X X(I)))
000537: 26,2367           40056                           UNIT     BOV                                   #  I.E. PICK A VECTOR IN THE PLANE OF X(I),
000538: 26,2370           54404                                    PICKX                                 #  Y(SM) PERPENDICULAR TO VI
000539: 26,2371           17270                           STODL    COF
000540: 26,2372           00045                                    36D                                   #  CHECK MAGNITUDE
000541: 26,2373           50025                           DSU      BMN                                   #  OF THIS VECTOR.
000542: 26,2374           14423                                    DPB-14                                #  IF LESS THAN B-14,
000543: 26,2375           54404                                    PICKX                                 #  PICK X-AXIS.
000544: 26,2376           77775                           VLOAD
000545: 26,2377           03270                                    COF
000546: 26,2400           17270        XROT               STODL    COF
000547: 26,2401           06503                                    HIDPHALF
000548: 26,2402           77650                           GOTO
000549: 26,2403           56072                                    COMPMATX
000550: 26,2404           52175        PICKX              VLOAD    GOTO                                  #  PICK THE XAXIS IN THIS CASE
000551: 26,2405           06503                                    HIDPHALF
000552: 26,2406           54400                                    XROT
000553: 26,2407           15555 35172  SINGIMLC           2DEC     .4285836003                            #  =SIN(59)                $2
000554: 26,2411           14113 36326  SINVEC1            2DEC     .3796356537                            #  =SIN(49.4)              $2
000555: 26,2413           07701 35703  SINVEC2            2DEC     .2462117800                            #  =SIN(29.5)              $2
000556: 26,2415           04343 21616  VECANG1            2DEC     .1388888889                            #  = 50 DEGREES                       $360
000557:


000559: 26,2417           03070 34344  VECANG2            2DEC     .09722222222                            #  = 35 DEGREES                       $360
000560: 26,2421           00000        1BITDP             OCT      0                                     #  KEEP THIS BEFORE DPB(-14)     *********
000561: 26,2422           00001        DPB-14             OCT      00001
000562: 26,2423           00000                           OCT      00000
000563:


000565:                                                                                                  #  ROUTINE FOR INITIATING AUTOMATIC MANEUVER VIA KEYBOARD (V49)
000566:
000567:
000568: 34,2000                                           BANK     34
000569: 23,2000                                           SETLOC   R62
000570: 23,2000                                           BANK
000571: 23,2103  E6,1675                                  EBANK=   BCDU
000572:
000573: 23,2103                                           COUNT*   $$/R62
000574:
000575: 23,2103  23,2103               R62DISP            EQUALS   R62FLASH
000576:
000577: 23,2103           35001        R62FLASH           CAF      V06N22                                #  FLASH V06N22 AND
000578: 23,2104           04607                           TC       BANKCALL                              #  ICDU ANGLES
000579: 23,2105           20471                           CADR     GOFLASH
000580: 23,2106           15474                           TCF      ENDEXT                                #  TERMINATE
000581: 23,2107           12111                           TCF      GOMOVE                                #  PROCEED
000582: 23,2110           12103                           TCF      R62FLASH                              #  ENTER
000583:
000584:                                                                                                  #  ASTRONAUT MAY LOAD NEW ICDUS AT THIS
000585:                                                                                                  #  POINT
000586: 23,2111           05506        GOMOVE             TC       UPFLAG                                #  SET FOR 3-AXIS MANEUVER
000587: 23,2112           00124                           ADRES    3AXISFLG
000588:
000589: 23,2113           04607                           TC       BANKCALL
000590: 23,2114           54125                           CADR     R60LEM
000591: 23,2115           15474                           TCF      ENDEXT                                #  END R62
000592:

End of include-file R60,R62.agc.  Parent file is MAIN.agc


