
Source Code


000002:                                                                                                  ## Copyright:   Public domain.
000003:                                                                                                  ## Filename:    RADAR_LEADIN_ROUTINES.agc
000004:                                                                                                  ## Purpose:     A section of Luminary revision 210.
000005:                                                                                                  ##              It is part of the source code for the Lunar Module's (LM)
000006:                                                                                                  ##              Apollo Guidance Computer (AGC) for Apollo 15-17.
000007:                                                                                                  ##              This file is intended to be a faithful transcription, except
000008:                                                                                                  ##              that the code format has been changed to conform to the
000009:                                                                                                  ##              requirements of the yaYUL assembler rather than the
000010:                                                                                                  ##              original YUL assembler.
000011:                                                                                                  ## Reference:   pp. 505-506
000012:                                                                                                  ## Assembler:   yaYUL
000013:                                                                                                  ## Contact:     Ron Burkey <info@sandroid.org>.
000014:                                                                                                  ## Website:     www.ibiblio.org/apollo/index.html
000015:                                                                                                  ## Mod history: 2016-11-17 JL   Created from Luminary131 version.
000016:                                                                                                  ##              2016-11-27 HG   Transcribed
000017:                                                                                                  ##              2016-12-25 RSB  Comment-text proofed using ProoferComments
000018:                                                                                                  ##                              and corrected errors found.
000019:


000021: 15,2162                                           BANK     15
000022: 15,2000                                           SETLOC   RRLEADIN
000023: 15,2000                                           BANK
000024:
000025: 15,2162  E4,1571                                  EBANK=   RSTACK
000026:
000027:                                                                                                  #  RADAR SAMPLING LOOP.
000028:
000029: 15,2162                                           COUNT*   $$/RLEAD
000030: 15,2162           11770        RADSAMP            CCS      RSAMPDT                               #  TIMES NORMAL ONCE-PER-SECOND SAMPLING.
000031: 15,2163           12165                           TCF      +2
000032: 15,2164           15263                           TCF      TASKOVER                              #  +0 INSERTED MANUALLY TERMINATES TEST.
000033:
000034: 15,2165           05175                           TC       TWIDDLE
000035: 15,2166           02162                           ADRES    RADSAMP
000036: 15,2167           37734                           CAF      PRIO25
000037: 15,2170           05063                           TC       NOVAC
000038: 15,2171  E4,1571                                  EBANK=   RSTACK
000039: 15,2171           02003 52064                     2CADR    DORSAMP
000040:
000041: 15,2173           34727                           CAF      BIT14                                 #  FOR CYCLIC SAMPLING, RTSTDEX=
000042: 15,2174           00006                           EXTEND                                         #  RTSTLOC/2 + RTSTBASE
000043: 15,2175           71767                           MP       RTSTLOC
000044: 15,2176           61766                           AD       RTSTBASE                              #  0 FOR RR, 2 FOR LR.
000045: 15,2177           55764                           TS       RTSTDEX
000046: 15,2200           15263                           TCF      TASKOVER
000047:
000048: 25,2003                                           BANK     25
000049: 25,2000                                           SETLOC   DRSAMP
000050: 25,2000                                           BANK
000051:
000052: 25,2003  E4,1571                                  EBANK=   RSTACK
000053:                                                                                                  #  DO THE ACTUAL RADAR SAMPLE.
000054:
000055: 25,2003           02040        DORSAMP            TC       VARADAR                               #  SELECTS VARIABLE RADAR CHANNEL.
000056: 25,2004           04607                           TC       BANKCALL
000057: 25,2005           17733                           CADR     RADSTALL
000058:
000059: 25,2006           25566                           INCR     RFAILCNT                              #  ADVANCE FAIL COUNTER BUT ACCEPT BAD DATA
000060:
000061: 25,2007           00004        DORSAMP2           INHINT
000062: 25,2010           30101                           CA       FLAGWRD5                              #  DON'T UPDATE RSTACK IF IN R77.
000063: 25,2011           74732                           MASK     R77FLBIT
000064: 25,2012           10000                           CCS      A
000065: 25,2013           12030                           TCF      R77IN
000066:
000067: 25,2014           53101                           DXCH     SAMPLSUM
000068: 25,2015           51767                           INDEX    RTSTLOC
000069: 25,2016           53572                           DXCH     RSTACK
000070:


000072: 25,2017           30110                           CA       RADMODES
000073: 25,2020           00006                           EXTEND
000074: 25,2021           06033                           RXOR     CHAN33
000075: 25,2022           74737                           MASK     BIT6
000076: 25,2023           00006                           EXTEND
000077: 25,2024           12030                           BZF      R77IN
000078:
000079: 25,2025           05571                           TC       ALARM
000080: 25,2026           00522                           OCT      522
000081: 25,2027           25566                           INCR     RFAILCNT
000082:
000083: 25,2030           41767        R77IN              CS       RTSTLOC                               #  CYCLE RTSTLOC
000084: 25,2031           61765                           AD       RTSTMAX
000085: 25,2032           00006                           EXTEND
000086: 25,2033           12036                           BZF      +3
000087: 25,2034           31767                           CA       RTSTLOC
000088: 25,2035           64743                           AD       TWO                                   #  STORAGE IS DP
000089: 25,2036           55767                           TS       RTSTLOC
000090: 25,2037           15146                           TCF      ENDOFJOB                              #  CONTINUOUS SAMPLING AND 2N TRIES - GONE.
000091:
000092:                                                                                                  #  VARIABLE RADAR DATA CALLER FOR ONE MEASUREMENT ONLY.
000093:
000094: 25,2040           34744        VARADAR            CAF      ONE                                   #  WILL BE SENT TO RADAR ROUTINE IN A BY
000095: 25,2041           54133                           TS       BUF2                                  #  SWCALL.
000096: 25,2042           51764                           INDEX    RTSTDEX
000097: 25,2043           32045                           CAF      RDRLOCS
000098: 25,2044           14613                           TCF      SWCALL                                #  NOT TOUCHING Q.
000099:
000100: 25,2045           53074        RDRLOCS            CADR     RRRANGE                               #  = 0
000101: 25,2046           53072                           CADR     RRRDOT                                #  = 1
000102: 25,2047           53070                           CADR     LRVELX                                #  = 2
000103: 25,2050           53066                           CADR     LRVELY                                #  = 3
000104: 25,2051           53064                           CADR     LRVELZ                                #  = 4
000105: 25,2052           53062                           CADR     LRALT                                 #  = 5

End of include-file RADAR_LEADIN_ROUTINES.agc.  Parent file is MAIN.agc


