
Source Code


000002:                                                                                                  ## Copyright:   Public domain.
000003:                                                                                                  ## Filename:    RCS_FAILURE_MONITOR.agc
000004:                                                                                                  ## Purpose:     A section of Luminary revision 210.
000005:                                                                                                  ##              It is part of the source code for the Lunar Module's (LM)
000006:                                                                                                  ##              Apollo Guidance Computer (AGC) for Apollo 15-17.
000007:                                                                                                  ##              This file is intended to be a faithful transcription, except
000008:                                                                                                  ##              that the code format has been changed to conform to the
000009:                                                                                                  ##              requirements of the yaYUL assembler rather than the
000010:                                                                                                  ##              original YUL assembler.
000011:                                                                                                  ## Reference:   pp. 201-203
000012:                                                                                                  ## Assembler:   yaYUL
000013:                                                                                                  ## Contact:     Ron Burkey <info@sandroid.org>.
000014:                                                                                                  ## Website:     www.ibiblio.org/apollo/index.html
000015:                                                                                                  ## Mod history: 2016-11-17 JL   Created from Luminary131 version.
000016:                                                                                                  ##              2016-11-21 HG   Transcribed
000017:


000019:                                                                                                  #  PROGRAM DESCRIPTION
000020:
000021:                                                                                                  #  AUTHOR: J S MILLER
000022:
000023:                                                                                                  #  MODIFIED 6 MARCH 1968 BY P S WEISSMAN TO SET UP JOB FOR 1/ACCS WHEN THE MASKS ARE CHANGED.
000024:
000025:                                                                                                  #       THIS ROUTINE IS ATTACHED TO T4RUPT, AND IS ENTERED EVERY 480 MS.  ITS FUNCTION IS TO EXAMINE THE LOW 8 BITS
000026:                                                                                                  #  OF CHANNEL 32 TO SEE IF ANY ISOLATION-VALVE CLOSURE BITS HAVE APPEARED OR DISAPPEARED (THE CREW IS WARNED OF JET
000027:                                                                                                  #  FAILURES BY LAMPS LIT BY THE GRUMMAN FAILURE-DETECTION CIRCUITRY; THEY MAY RESPOND BY OPERATING SWITCHES WHICH
000028:                                                                                                  #  ISOLATE PAIRS OF JETS FROM THE PROPELLANT TANKS AND SET BITS IN CHANNEL 32).  IN THE EVENT THAT CHANNEL 32 BITS
000029:                                                                                                  #  DIFFER FROM `PVALVEST', THE RECORD OF ACTIONS TAKEN BY THIS ROUTINE, THE APPROPRIATE BITS IN 'CH5MASK' &
000030:                                                                                                  #  'CH6MASK', USED BY THE DAP JET-SELECTION LOGIC, ARE UPDATED, AS IS 'PVALVEST'.  TO SPEED UP & SHORTEN THE
000031:                                                                                                  #  ROUTINE, NO MORE THAN ONE CHANGE IS ACCEPTED PER ENTRY.  THE HIGHEST-NUMBERED BIT IN CHANNEL 32 WHICH REQUIRES
000032:                                                                                                  #  ACTION IS THE ONE PROCESSED.
000033:
000034:                                                                                                  #       THE CODING IN THE FAILURE MONITOR HAS BEEN WRITTEN SO AS TO HAVE ALMOST COMPLETE RESTART PROTECTION.  FOR
000035:                                                                                                  #  EXAMPLE, NO ASSUMPTION IS MADE WHEN SETTING A 'CH5MASK' BIT TO 1 THAT THE PREVIOUS STATE IS 0, ALTHOUGH IT OF
000036:                                                                                                  #  COURSE SHOULD BE.  ONE CASE WHICH MAY BE SEEN TO EVADE PROTECTION IS THE OCCURRENCE OF A RESTART AFTER UPDATING
000037:                                                                                                  #  ONE OR BOTH DAP MASK-WORDS BUT BEFORE UPDATING 'PVALVEST', COUPLED WITH A CHANGE IN THE VALVE-BIT BACK TO ITS
000038:                                                                                                  #  FORMER STATE.  THE CONSEQUENCE OF THIS IS THAT THE NEXT ENTRY WOULD NOT SEE THE CHANGE INCOMPLETELY INCORP-
000039:                                                                                                  #  ORATED BY THE LAST PASS (BECAUSE IT WENT AWAY AT JUST THE RIGHT TIME), BUT THE DAP MASK-WORDS WILL BE INCORRECT.
000040:                                                                                                  #  THIS COMBINATION OF EVENTS SEEMS QUITE REMOTE, BUT NOT IMPOSSIBLE UNLESS THE CREW OPERATES THE SWITCHES AT HALF-
000041:                                                                                                  #  SECOND INTERVALS OR LONGER.  IN ANY EVENT, A DISAGREEMENT BETWEEN REALITY AND THE DAP MASKS WILL BE CURED IF
000042:                                                                                                  #  THE MISINTERPRETED SWITCH IS REVERSED AND THEN RESTORED TO ITS CORRECT POSITION (SLOWLY).
000043:
000044:                                                                                                  #  CALLING SEQUENCE:
000045:
000046:                                                                                                  #           TCF    RCSMONIT        (IN INTERRUPT MODE, EVERY 480 MS.)
000047:
000048:                                                                                                  #  EXIT:  TCF  RCSMONEX  (ALL PATHS EXIT VIA SUCH AN INSTRUCTION)
000049: 06,3213     5272               RCSMONEX           EQUALS   RESUME
000050:
000051:                                                                                                  #  ERASABLE INITIALIZATION REQUIRED:
000052:
000053:                                                                                                  #           VIA FRESH START:  PVALVEST          = +0  (ALL JETS ENABLED)
000054:                                                                                                  #                             CH5MASK,CH6MASK   = +0  (ALL JETS OK)
000055:
000056:                                                                                                  #  OUTPUT:  CH5MASK & CH6MASK UPDATED  (1'S WHERE JETS NOT TO BE USED, IN CHANNEL 5 & 6 FORMAT)
000057:                                                                                                  #           PVALTEST UPDATED  (1'S WHEN VALVE CLOSURES HAVE BEEN TRANSLATED INTO CH5MASK & CH6MASK; CHAN 32 FORMAT)
000058:                                                                                                  #           JOB TO DO 1/ACCS.
000059:
000060:                                                                                                  #  DEBRIS:  A, L, AND Q AND DEBRIS OF NOVAC.
000061:
000062:                                                                                                  #  SUBROUTINE CALLED:  NOVAC.
000063:
000064: 06,3213     1257                                  EBANK=   CH5MASK
000065:
000066: 23,2000                                           BANK     23
000067: 06,2000                                           SETLOC   RCSMONT
000068: 06,2000                                           BANK
000069:


000071: 06,3213                                           COUNT*   $$/T4RCS
000072:
000073: 06,3213  06,3213               RCSMONIT           EQUALS   RCSMON
000074:
000075: 06,3213           44746        RCSMON             CS       ZERO
000076: 06,3214           00006                           EXTEND
000077: 06,3215           06032                           RXOR     CHAN32                                #  PICK UP + INVERT INVERTED CHANNEL 32.
000078: 06,3216           74350                           MASK     LOW8                                  #  KEEP JET-FAIL BITS ONLY.
000079: 06,3217           54002                           TS       Q
000080:
000081: 06,3220           41273                           CS       PVALVEST                              #        -   -
000082: 06,3221           70002                           MASK     Q                                     #  FORM PC + PC.
000083: 06,3222           54001                           TS       L                                     #    (P = PREVIOUS ISOLATION VALVE STATE,
000084: 06,3223           40002                           CS       Q                                     #     C = CURRENT VALVE STATE (CH 32)).
000085: 06,3224           71273                           MASK     PVALVEST
000086: 06,3225           26001                           ADS      L                                     #  RESULT NZ INDICATES ACTION REQUIRED.
000087:
000088: 06,3226           00006                           EXTEND
000089: 06,3227           15272                           BZF      RCSMONEX                              #  QUIT IF NO ACTION REQUIRED.
000090:
000091: 06,3230           00006                           EXTEND
000092: 06,3231           74736                           MP       BIT7                                  #  MOVE BITS 8 - 1 OF A TO 14 - 7 OF L.
000093: 06,3232           56001                           XCH      L                                     #  ZERO TO L IN THE PROCESS.
000094:
000095: 06,3233           24001                 -3        INCR     L
000096: 06,3234           60000                           DOUBLE                                         #  BOUND TO GET OVERFLOW IN THIS LOOP,
000097: 06,3235           54000                           OVSK                                           #  SINCE WE ASSURED INITIAL NZ IN A.
000098: 06,3236           13233                           TCF      -3
000099:
000100: 06,3237           50001                           INDEX    L
000101: 06,3240           34734                           CA       BIT8       -1                         #  SAVE THE RELEVANT BIT (8 - 1).
000102: 06,3241           54002                           TS       Q
000103: 06,3242           71273                           MASK     PVALVEST                              #  LOOK AT PREVIOUS VALVE STATE BIT.
000104: 06,3243           10000                           CCS      A
000105: 06,3244           13260                           TCF      VOPENED                               #  THE VALVE HAS JUST BEEN OPENED.
000106:
000107: 06,3245           41257                           CS       CH5MASK                               #  THE VALVE HAS JUST BEEN CLOSED.
000108: 06,3246           50001                           INDEX    L
000109: 06,3247           73277                           MASK     5FAILTAB
000110: 06,3250           27257                           ADS      CH5MASK                               #  SET INHIBIT BIT FOR CHANNEL 5 JET.
000111:
000112: 06,3251           41260                           CS       CH6MASK
000113: 06,3252           50001                           INDEX    L
000114: 06,3253           73307                           MASK     6FAILTAB
000115: 06,3254           27260                           ADS      CH6MASK                               #  SET INGIBIT BIT FOR CHANNEL 6 JET
000116:
000117: 06,3255           30002                           CA       Q
000118: 06,3256           27273                           ADS      PVALVEST                              #  RECORD ACTION TAKEN.
000119:
000120: 06,3257           13273                           TCF      1/ACCFIX                              #  SET UP 1/ACCJOB AND EXIT.
000121:


000123: 06,3260           50001        VOPENED            INDEX    L                                     #  A VALVE HAS JUST BEEN OPENED.
000124: 06,3261           43277                           CS       5FAILTAB
000125: 06,3262           71257                           MASK     CH5MASK
000126: 06,3263           55257                           TS       CH5MASK                               #  REMOVE INHIBIT BIT FOR CHANNEL 5 JET.
000127:
000128: 06,3264           50001                           INDEX    L
000129: 06,3265           43307                           CS       6FAILTAB
000130: 06,3266           71260                           MASK     CH6MASK
000131: 06,3267           55260                           TS       CH6MASK                               #  REMOVE INHIBIT BIT FOR CHANNEL 6 JET.
000132:
000133: 06,3270           40002                           CS       Q
000134: 06,3271           71273                           MASK     PVALVEST
000135: 06,3272           55273                           TS       PVALVEST                              #  RECORD ACTION TAKEN.
000136:
000137: 06,3273           37736        1/ACCFIX           CAF      PRIO27                                #  SET UP 1/ACCS SO THAT THE SWITCH CURVES
000138: 06,3274           05063                           TC       NOVAC                                 #    FOR TJETLAW CAN BE MODIFIED IF CH5MASK
000139: 06,3275  E6,1536                                  EBANK=   AOSQ                                  #    HAS BEEN ALTERED.
000140: 06,3275           03603 42106                     2CADR    1/ACCJOB
000141:
000142: 06,3277           15272                           TCF      RCSMONEX                              #  EXIT.
000143:
000144: 06,3300                        5FAILTAB           EQUALS   -1                                    #  CH 5 JET BIT CORRESPONDING TO CH 32 BIT:
000145: 06,3300           00040                           OCT      00040                                 #  8
000146: 06,3301           00020                           OCT      00020                                 #  7
000147: 06,3302           00100                           OCT      00100                                 #  6
000148: 06,3303           00200                           OCT      00200                                 #  5
000149: 06,3304           00010                           OCT      00010                                 #  4
000150: 06,3305           00001                           OCT      00001                                 #  3
000151: 06,3306           00004                           OCT      00004                                 #  2
000152: 06,3307           00002                           OCT      00002                                 #  1
000153:
000154: 06,3310                        6FAILTAB           EQUALS   -1                                    #  CH 6 JET BIT CORRESPONDING TO CH 32 BIT:
000155: 06,3310           00010                           OCT      00010                                 #  8
000156: 06,3311           00020                           OCT      00020                                 #  7
000157: 06,3312           00004                           OCT      00004                                 #  6
000158: 06,3313           00200                           OCT      00200                                 #  5
000159: 06,3314           00001                           OCT      00001                                 #  4
000160: 06,3315           00002                           OCT      00002                                 #  3
000161: 06,3316           00040                           OCT      00040                                 #  2
000162: 06,3317           00100                           OCT      00100                                 #  1

End of include-file RCS_FAILURE_MONITOR.agc.  Parent file is MAIN.agc


