
Source Code


000002:                                                                                                  ## Copyright:   Public domain.
000003:                                                                                                  ## Filename:    RESTART_TABLES.agc
000004:                                                                                                  ## Purpose:     A section of Luminary revision 210.
000005:                                                                                                  ##              It is part of the source code for the Lunar Module's (LM)
000006:                                                                                                  ##              Apollo Guidance Computer (AGC) for Apollo 15-17.
000007:                                                                                                  ##              This file is intended to be a faithful transcription, except
000008:                                                                                                  ##              that the code format has been changed to conform to the
000009:                                                                                                  ##              requirements of the yaYUL assembler rather than the
000010:                                                                                                  ##              original YUL assembler.
000011:                                                                                                  ## Reference:   pp. 249-254
000012:                                                                                                  ## Assembler:   yaYUL
000013:                                                                                                  ## Contact:     Ron Burkey <info@sandroid.org>.
000014:                                                                                                  ## Website:     www.ibiblio.org/apollo/index.html
000015:                                                                                                  ## Mod history: 2016-11-17 JL   Created from Luminary131 version.
000016:                                                                                                  ##              2016-11-18 MAS  Transcribed.
000017:                                                                                                  ##              2016-12-07 HG   Fix P00 -> POO
000018:


000020:                                                                                                  #  RESTART TABLES
000021:
000022:                                                                                                  #  ------------------
000023:
000024:                                                                                                  #  THERE ARE TWO FORMS OF RESTART TABLES FOR EACH GROUP.  THEY ARE KNOWN AS THE EVEN RESTART TABLES AND THE ODD
000025:                                                                                                  #  RESTART TABLES.  THE ODD TABLES HAVE ONLY ONE ENTRY OF THREE LOCATIONS WHILE THE EVEN TABLES HAVE TWO ENTRIES
000026:                                                                                                  #  EACH USING THREE LOCATIONS. THE INFORMATION AS TO WHETHER IT IS A JOB, WAITLIST, OR A LONGCALL IS GIVEN BY THE
000027:                                                                                                  #  WAY THINGS ARE PUT INTO THE TABLES.
000028:                                                                                                  #       A JOB HAS ITS PRIORITY STORED IN PRDTTAB OF THE CORRECT PHASE SPOT - A POSITIVE PRIORITY INDICATES A
000029:                                                                                                  #  FINDVAC JOB, A NEGATIVE PRIORITY A NOVAC.  THE 2CADR OF THE JOB IS STORED IN THE CADRTAB.
000030:                                                                                                  #  FOR EXAMPLE,
000031:
000032:                                                                                                  #                                          5.7SPOT  OCT    23000
000033:                                                                                                  #                                                   2CADR  SOMEJOB
000034:
000035:                                                                                                  #  A RESTART OF GROUP 5 WITH PHASE SEVEN WOULD THEN CAUSE SOMEJOB TO BE RESTARTED AS A FINDVAC WITH PRIORITY 23.
000036:
000037:                                                                                                  #                                          5.5SPOT  OCT    -23000
000038:                                                                                                  #                                                   2CADR  ANYJOB
000039:
000040:                                                                                                  #  HERE A RESTART OF GROUP 5 WITH PHASE 7 WOULD CAUSE ANYJOB TO BE RESTARTED AS A NOVAC WITH PRIORITY 23.
000041:                                                                                                  #  A LONGCALL HAS ITS GENADR OF ITS 2CADR STORED NEGATIVELY AND ITS BBCON STORED POSITIVELY.  IN ITS PRDTTAB IS
000042:                                                                                                  #  PLACED THE LOCATION OF A DP REGISTER THAT CONTAINS THE DELTA TIME THAT LONGCALL HAD BEEN ORIGINALLY STARTED
000043:                                                                                                  #  WITH.  EXAMPLE,
000044:
000045:                                                                                                  #                                          3.6SPOT  GENADR DELTAT
000046:                                                                                                  #                                                  -GENADR LONGTASK
000047:                                                                                                  #                                                   BBCON  LONGTASK
000048:
000049:                                                                                                  #                                                   OCT    31000
000050:                                                                                                  #                                                   2CADR  JOBAGAIN
000051:
000052:                                                                                                  #  THIS WOULD START UP LONGTASK AT THE APPROPRIATE TIME, OR IMMEDIATELY IF THE TIME HAD ALREADY PASSED. IT SHOULD
000053:                                                                                                  #  BE NOTED THAT IF DELTAT IS IN A SWITCHED E BANK, THIS INFORMATOIN SHOULD BE IN THE BBCON OFTHE 2CADR OF THE
000054:                                                                                                  #  TASK.  FROM ABOVE, WE SEE THAT THE SECOND PART OF THIS PHASE WOULD BE STARTED AS A JOB WITH A PRIORITY OF 31.
000055:
000056:                                                                                                  #  WAITLIST CALLS ARE IDENTIFIED BY THE FACT THAT THEIR 2CADR IS STORED NEGATIVELY. IF PRDTTAB OF THE PHASE SPOT
000057:                                                                                                  #  IS POSITIVE, THEN IT CONTAINS THE DELTA TIME, IF PRDTTAB IS NEGATIVE THEN IT IS THE -GENADR OF AN ERASABLE
000058:                                                                                                  #  LOCATION CONTAINING THE DELTA TIME, THAT IS, THE TIME IS STORED INDIRECTLY.  IT SHOULD BE NOTED AS ABOVE, THAT
000059:                                                                                                  #  IF THE TIME IS STORED INDIRECTLY, THE BBCON MUST CONTAIN THE NECESSARY E BANK INFORMATION IF APPLICABLE.  WITH
000060:                                                                                                  #  WAITLIST WE HAVE ONE FURTHER OPTION, IF -0 IS STORED IN PRDTTAB, IT WILL CAUSE AN IMMEDIATE RESTART OF THE
000061:                                                                                                  #  TASK.  EXAMPLES,
000062:
000063:                                                                                                  #                                                   OCT    77777           THIS WILL CAUSE AN IMMEDIATE RESTART
000064:                                                                                                  #                                                  -2CADR  ATASK           OF THE TASK :ATASK:
000065:                                                                                                  #
000066:                                                                                                  #                                                   DEC    200             IF THE TIME OF THE 2 SECONDS SINCE DUMMY
000067:                                                                                                  #                                                  -2CADR  DUMMY           WAS PUT ON WAITLIST IS UP, IT WILL BEGIN
000068:                                                                                                  #                                                                          IN 10 MS, OTHERWISE IT WILL BEGIN WHEN
000069:                                                                                                  #                                                                          IT NORMALLY WOULD HAVE BEGUN.


000071:                                                                                                  #                                                  -GENADR DTIME           WHERE DTIME CONTAINS THE DELTA TIME
000072:                                                                                                  #                                                  -2CADR  TASKTASK        OTHERWISE THIS IS AS ABOVE
000073:
000074:                                                                                                  #  *****    NOW THE TABLES THEMSELVES *****
000075:
000076: 01,2002                                           BANK     01
000077: 01,2000                                           SETLOC   RESTART
000078: 01,2000                                           BANK
000079:
000080: 01,2002                        PRDTTAB            EQUALS   12000                                 #  USED TO FIND THE PRIORITY OR DELTATIME
000081: 01,2002                        CADRTAB            EQUALS   12001                                 #  THIS AND THE NEXT RELATIVE LOC CONTAIN
000082:                                                                                                  #  RESTART 2CADR
000083:
000084: 01,2002                                           COUNT*   $$/RSTAB                              #  TABLES IN BANK 1.
000085: 01,2002           00010        SIZETAB            TC       1.2SPOT    -12006
000086: 01,2003           00020                           TC       1.3SPOT    -12004
000087: 01,2004           00010                           TC       2.2SPOT    -12006
000088: 01,2005           00026                           TC       2.3SPOT    -12004
000089: 01,2006           00010                           TC       3.2SPOT    -12006
000090: 01,2007           00056                           TC       3.3SPOT    -12004
000091: 01,2010           00062                           TC       4.2SPOT    -12006
000092: 01,2011           00072                           TC       4.3SPOT    -12004
000093: 01,2012           00145                           TC       5.2SPOT    -12006
000094: 01,2013           00163                           TC       5.3SPOT    -12004
000095: 01,2014           00010                           TC       6.2SPOT    -12006
000096: 01,2015           00174                           TC       6.3SPOT    -12004
000097: 01,2016           21000        1.2SPOT            OCT      21000                                 #  A DUMMY EXAMPLE TO BE REPLACED AS SOON
000098: 01,2017     0074                                  EBANK=   STATE
000099: 01,2017           05146 04060                     2CADR    ENDOFJOB                              #  AS THERE IS A LEGITIMATE 1.2SPOT
000100:
000101: 01,2021           00144                           DEC      100        B-14
000102: 01,2022     0074                                  EBANK=   STATE
000103: 01,2022           05263 04060                     2CADR    TASKOVER
000104:
000105:                                                                                                  #  ANY MORE GROUP 1.EVEN RESTART VALUES SHOULD GO HERE
000106:
000107: 01,2024           76300        1.3SPOT            -GENADR  SAVET-30
000108: 01,2025  E7,1515                                  EBANK=   DVCNTR
000109: 01,2025           75427 03710                     -2CADR   ULLGTASK
000110:
000111: 01,2027           32000        1.5SPOT            OCT      32000
000112: 01,2030  E7,1654                                  EBANK=   HMEAS
000113: 01,2030           03555 66067                     2CADR    REREPOS
000114:
000115:                                                                                                  #  ANY MORE GROUP 1.ODD RESTART VALUES SHOULD GO HERE
000116:
000117: 01,2032  01,2016               2.2SPOT            EQUALS   1.2SPOT
000118:                                                                                                  #  ANY MORE GROUP 2.EVEN RESTART VALUES SHOULD GO HERE
000119:
000120: 01,2032           02666        2.3SPOT            GENADR   600SECS


000122: 01,2033           75136                           -GENADR  STATEINT
000123: 01,2034  E3,1554                                  EBANK=   RRECTCSM
000124: 01,2034           26063                           BBCON    STATEINT
000125:
000126: 01,2035           05000        2.5SPOT            OCT      05000
000127: 01,2036  E3,1554                                  EBANK=   RRECTCSM
000128: 01,2036           02650 26063                     2CADR    STATINT1
000129:
000130: 01,2040           02734        2.7SPOT            DEC      1500       B-14
000131: 01,2041  E7,1456                                  EBANK=   LOSCOUNT
000132: 01,2041           75455 27710                     -2CADR   P20LEMC1
000133:
000134: 01,2043           14000        2.11SPOT           OCT      14000
000135: 01,2044  E7,1762                                  EBANK=   P21TIME
000136: 01,2044           02476 50067                     2CADR    P25LEM1
000137:
000138: 01,2046           10000        2.13SPOT           OCT      10000
000139: 01,2047  E7,1456                                  EBANK=   LOSCOUNT
000140: 01,2047           02231 54067                     2CADR    RELINUS
000141:
000142: 01,2051           26000        2.15SPOT           OCT      26000
000143: 01,2052  E7,1456                                  EBANK=   LOSCOUNT
000144: 01,2052           02735 50067                     2CADR    R22RSTRT
000145:
000146: 01,2054           77777        2.17SPOT           OCT      77777
000147: 01,2055  E7,1700                                  EBANK=   VGPREV
000148: 01,2055           75436 03710                     -2CADR   REDO2.17
000149:
000150: 01,2057           00031        2.21SPOT           DEC      25         B-14
000151: 01,2060  E7,1515                                  EBANK=   DVCNTR
000152: 01,2060           75735 35710                     -2CADR   R10,R11
000153:
000154:                                                                                                  #  ANY MORE GROUP 2.ODD RESTART VALUES SHOULD GO HERE.
000155:
000156: 01,2062  01,2016               3.2SPOT            EQUALS   1.2SPOT
000157:                                                                                                  #  ANY MORE GROUP 3.EVEN RESTART VALUES SHOULD GO HERE
000158:
000159: 01,2062           76355        3.3SPOT            -GENADR  ZOOMTIME
000160: 01,2063  E7,1515                                  EBANK=   DVCNTR
000161: 01,2063           74107 05710                     -2CADR   ZOOM
000162:
000163: 01,2065           20000        3.5SPOT            OCT      20000
000164: 01,2066  E7,1453                                  EBANK=   TTOGO
000165: 01,2066           02536 56067                     2CADR    S40.13
000166:
000167:                                                                                                  #  ANY MORE GROUP 3.ODD RESTART VALUES SHOULD GO HERE
000168:
000169: 01,2070           04704        4.2SPOT            DEC      2500       B-14
000170: 01,2071  E7,1453                                  EBANK=   TTOGO


000172: 01,2071           75423 03710                     -2CADR   TIG-5
000173:
000174: 01,2073           77777                           OCT      77777
000175: 01,2074  E7,1453                                  EBANK=   TTOGO
000176: 01,2074           75433 03710                     -2CADR   REDO4.2
000177:
000178:                                                                                                  #  ANY MORE GROUP 4.EVEN RESTART VALUES SHOULD GO HERE
000179:
000180: 01,2076           25000        4.3SPOT            OCT      25000
000181: 01,2077  E7,1515                                  EBANK=   DVCNTR
000182: 01,2077           03443 64067                     2CADR    GOABORT
000183:
000184: 01,2101           00062        4.5SPOT            DEC      50         B-14
000185: 01,2102  E7,1453                                  EBANK=   TTOGO
000186: 01,2102           75216 03710                     -2CADR   ULLAGOFF
000187:
000188: 01,2104           00764        4.7SPOT            DEC      500        B-14
000189: 01,2105  E7,1515                                  EBANK=   DVCNTR
000190: 01,2105           75370 03710                     -2CADR   TIG-0
000191:
000192: 01,2107           76260        4.11SPOT           -GENADR  TGO        +1
000193: 01,2110  E7,1515                                  EBANK=   DVCNTR
000194: 01,2110           74234 03710                     -2CADR   ENGOFTSK
000195:
000196: 01,2112           12000        4.13SPOT           OCT      12000
000197: 01,2113  E7,1462                                  EBANK=   TRKMKCNT
000198: 01,2113           03222 74067                     2CADR    POSTBURN
000199:
000200: 01,2115           00764        4.15SPOT           DEC      500        B-14
000201: 01,2116  E7,1453                                  EBANK=   TTOGO
000202: 01,2116           75477 03710                     -2CADR   TIG-30
000203:
000204: 01,2120           77777        4.17SPOT           OCT      77777
000205: 01,2121  E7,1515                                  EBANK=   DVCNTR
000206: 01,2121           75423 03710                     -2CADR   TIG-5
000207:
000208: 01,2123           13000        4.21SPOT           OCT      13000
000209: 01,2124  E5,1730                                  EBANK=   STAR
000210: 01,2124           03026 30065                     2CADR    R51.1      +1
000211:
000212: 01,2126           77777        4.23SPOT           OCT      77777
000213: 01,2127  E7,1515                                  EBANK=   DVCNTR
000214: 01,2127           75344 03710                     -2CADR   IGNITION
000215:
000216: 01,2131           01477        4.25SPOT           GENADR   SAVET-30
000217: 01,2132           75535                           -GENADR  TIG-35
000218: 01,2133  E7,1477                                  EBANK=   SAVET-30
000219: 01,2133           74067                           BBCON    TIG-35
000220:


000222: 01,2134           52777        4.27SPOT           OCT      52777
000223: 01,2135  E7,1515                                  EBANK=   DVCNTR
000224: 01,2135           02133 42067                     2CADR    P70A
000225:
000226: 01,2137           52777        4.31SPOT           OCT      52777
000227: 01,2140  E7,1515                                  EBANK=   DVCNTR
000228: 01,2140           02136 42067                     2CADR    P71A
000229:
000230: 01,2142           46777        4.33SPOT           OCT      46777
000231: 01,2143  E7,1515                                  EBANK=   DVCNTR
000232: 01,2143           02040 10067                     2CADR    GOPOOFIX
000233:
000234: 01,2145           46777        4.35SPOT           OCT      46777
000235: 01,2146  E7,1515                                  EBANK=   DVCNTR
000236: 01,2146           05661 04067                     2CADR    GOPOODOO
000237:
000238: 01,2150           52777        4.37SPOT           OCT      52777
000239: 01,2151  E7,1455                                  EBANK=   WHICH
000240: 01,2151           02570 74067                     2CADR    COMFAIL
000241:
000242:                                                                                                  #  ANY MORE 4.ODD RESTART VALUES SHOULD GO HERE.
000243:
000244: 01,2153           22000        5.2SPOT            OCT      22000
000245: 01,2154  E7,1515                                  EBANK=   DVCNTR
000246: 01,2154           03661 64067                     2CADR    NORMLIZE
000247:
000248: 01,2156           00310                           DEC      200        B-14
000249: 01,2157  E7,1515                                  EBANK=   DVCNTR
000250: 01,2157           74164 01710                     -2CADR   REREADAC
000251:
000252: 01,2161           00310        5.4SPOT            DEC      200        B-14
000253: 01,2162  E7,1515                                  EBANK=   DVCNTR
000254: 01,2162           74164 01710                     -2CADR   REREADAC
000255:
000256: 01,2164           20000                           OCT      20000
000257: 01,2165  E7,1515                                  EBANK=   DVCNTR
000258: 01,2165           02121 66067                     2CADR    SERVICER
000259:
000260:                                                                                                  #  ANY MORE GROUP 5.EVEN RESTART VALUES SHOULD GO HERE
000261:
000262: 01,2167           00310        5.3SPOT            DEC      200        B-14
000263: 01,2170  E7,1515                                  EBANK=   DVCNTR
000264: 01,2170           74164 01710                     -2CADR   REREADAC
000265:
000266: 01,2172           77777        5.5SPOT            OCT      77777
000267: 01,2173  E7,1515                                  EBANK=   DVCNTR
000268: 01,2173           74335 01710                     -2CADR   REDO5.5
000269:


000271: 01,2175           77777        5.7SPOT            OCT      77777
000272: 01,2176  E7,1515                                  EBANK=   DVCNTR
000273: 01,2176           74370 01710                     -2CADR   BIBIBIAS
000274:
000275:                                                                                                  #  ANY MORE GROUP 5.ODD RESTART VALUES SHOULD GO HERE
000276:
000277: 01,2200  01,2016               6.2SPOT            EQUALS   1.2SPOT
000278: 01,2200           00144        6.3SPOT            DEC      100        B-14
000279: 01,2201  E7,1441                                  EBANK=   TIG
000280: 01,2201           75061 03710                     -2CADR   CLOKTASK
000281:
000282: 01,2203           30000        6.5SPOT            OCT      30000                                 #  PROTECT INCREMENTING OF TIME2,TIME1 BY
000283: 01,2204  E3,1706                                  EBANK=   TEPHEM                                #  P27(UPDATE PROGRAM) VIA V70 OR V73.
000284: 01,2204           03603 10063                     2CADR    TIMEDIDR
000285:
000286: 01,2206           17000        6.7SPOT            OCT      17000
000287: 01,2207  E7,1700                                  EBANK=   VGPREV
000288: 01,2207           03355 74067                     2CADR    REDO6.7
000289:
000290: 01,2211           17000        6.11SPOT           OCT      17000
000291: 01,2212  E7,1700                                  EBANK=   VGPREV
000292: 01,2212           03364 74067                     2CADR    FKP5RST
000293:

End of include-file RESTART_TABLES.agc.  Parent file is MAIN.agc


