
Source Code


000002:                                                                                                  ## Copyright:   Public domain.
000003:                                                                                                  ## Filename:    RTB_OP_CODES.agc
000004:                                                                                                  ## Purpose:     A section of Luminary revision 210.
000005:                                                                                                  ##              It is part of the source code for the Lunar Module's (LM)
000006:                                                                                                  ##              Apollo Guidance Computer (AGC) for Apollo 15-17.
000007:                                                                                                  ##              This file is intended to be a faithful transcription, except
000008:                                                                                                  ##              that the code format has been changed to conform to the
000009:                                                                                                  ##              requirements of the yaYUL assembler rather than the
000010:                                                                                                  ##              original YUL assembler.
000011:                                                                                                  ## Reference:   pp. 1394-1399
000012:                                                                                                  ## Assembler:   yaYUL
000013:                                                                                                  ## Contact:     Ron Burkey <info@sandroid.org>.
000014:                                                                                                  ## Website:     www.ibiblio.org/apollo/index.html
000015:                                                                                                  ## Mod history: 2016-11-17 JL   Created from Luminary131 version.
000016:                                                                                                  ##              2016-12-06 RRB  Updated from Luminary210 scans.
000017:                                                                                                  ##              2016-12-09 HG   Add missing SETLOC RTBCODES (changes to Bank 10, because Bank 14 is full)
000018:
000019:


000021: 22,3774                                           BANK     22
000022: 10,2000                                           SETLOC   RTBCODES
000023: 10,2000                                           BANK
000024:
000025: 10,3603  E5,1664                                  EBANK=   XNB
000026: 10,3603                                           COUNT*   $$/RTB
000027:
000028:                                                                                                  #        LOAD TIME2, TIME1 INTO MPAC:
000029:
000030: 10,3603           00006        LOADTIME           EXTEND
000031: 10,3604           30025                           DCA      TIME2
000032: 10,3605           16076                           TCF      SLOAD2
000033:
000034:                                                                                                  #        CONVERT THE SINGLE PRECISION 2'S COMPLEMENT NUMBER ARRIVING IN MPAC (SCALED IN HALF-REVOLUTIONS) TO A
000035:                                                                                                  #  DP 1'S COMPLEMENT NUMBER SCALED IN REVOLUTIONS.
000036:
000037: 10,3606           10154        CDULOGIC           CCS      MPAC
000038: 10,3607           34746                           CAF      ZERO
000039: 10,3610           13613                           TCF      +3
000040: 10,3611           13612                           NOOP
000041: 10,3612           44727                           CS       HALF
000042:
000043: 10,3613           54155                           TS       MPAC       +1
000044: 10,3614           34746                           CAF      ZERO
000045: 10,3615           56154                           XCH      MPAC
000046: 10,3616           00006                           EXTEND
000047: 10,3617           74727                           MP       HALF
000048: 10,3620           20155                           DAS      MPAC
000049: 10,3621           16102                           TCF      DANZIG                                #  MODE IS ALREADY AT DOUBLE-PRECISION
000050:
000051:                                                                                                  #        FORCE TP SIGN AGREEMENT IN MPAC:
000052:
000053: 10,3622           07300        SGNAGREE           TC       TPAGREE
000054: 10,3623           16102                           TCF      DANZIG
000055:
000056:                                                                                                  #        CONVERT THE DP 1'S COMPLEMENT ANGLE SCALED IN REVOLUTIONS TO A SINGLE PRECISION 2'S COMPLEMENT ANGLE
000057:                                                                                                  #  SCALED IN HALF-REVOLUTIONS.
000058:
000059: 10,3624           03654        1STO2S             TC       1TO2SUB
000060: 10,3625           34746                           CAF      ZERO
000061: 10,3626           54155                           TS       MPAC       +1
000062: 10,3627           16101                           TCF      NEWMODE
000063:
000064:                                                                                                  #        DO 1STO2S ON A VECTOR OF ANGLES:
000065:
000066: 10,3630           03654        V1STO2S            TC       1TO2SUB                               #  ANSWER ARRIVES IN A AND MPAC.
000067:
000068: 10,3631           52162                           DXCH     MPAC       +5
000069: 10,3632           52155                           DXCH     MPAC
000070: 10,3633           03654                           TC       1TO2SUB


000072: 10,3634           54156                           TS       MPAC       +2
000073:
000074: 10,3635           52160                           DXCH     MPAC       +3
000075: 10,3636           52155                           DXCH     MPAC
000076: 10,3637           03654                           TC       1TO2SUB
000077: 10,3640           54155                           TS       MPAC       +1
000078:
000079: 10,3641           30161                           CA       MPAC       +5
000080: 10,3642           54154                           TS       MPAC
000081:
000082: 10,3643           34744        TPMODE             CAF      ONE                                   #  MODE IS TP.
000083: 10,3644           16101                           TCF      NEWMODE
000084:
000085:                                                                                                  #        V1STO2S FOR 2 COMPONENT VECTOR. USED BY RR.
000086:
000087: 10,3645           03654        2V1STO2S           TC       1TO2SUB
000088: 10,3646           52160                           DXCH     MPAC       +3
000089: 10,3647           52155                           DXCH     MPAC
000090: 10,3650           03654                           TC       1TO2SUB
000091: 10,3651           54001                           TS       L
000092: 10,3652           30157                           CA       MPAC       +3
000093: 10,3653           16076                           TCF      SLOAD2
000094:
000095:                                                                                                  #        SUBROUTINE TO DO DOUBLING AND 1'S TO 2'S CONVERSION:
000096:
000097: 10,3654           52155        1TO2SUB            DXCH     MPAC                                  #  FINAL MPAC +1 UNSPECIFIED.
000098: 10,3655           20001                           DDOUBL
000099: 10,3656           10000                           CCS      A
000100: 10,3657           64744                           AD       ONE
000101: 10,3660           13662                           TCF      +2
000102: 10,3661           40000                           COM                                            #  THIS WAS REVERSE OF MSU.
000103:
000104: 10,3662           54154                           TS       MPAC                                  #  AND SKIP ON OVERFLOW.
000105: 10,3663           00002                           TC       Q
000106:
000107: 10,3664           50000                           INDEX    A                                     #  OVERFLOW UNCORRECT AND IN MSU.
000108: 10,3665           34725                           CAF      LIMITS
000109: 10,3666           26154                           ADS      MPAC
000110: 10,3667           00002                           TC       Q
000111:
000112:                                                                                                  #        THE FOLLOWING ROUTINE INCREMENTS IN 2'S COMPLEMENT THE REGISTER WHOSE ADDRESS IS IN BUF BY THE 1'S COMPL.
000113:                                                                                                  #  QUANTITY FOUND IN TEM2.  THIS MAY BE USED TO INCRMENT DESIRED IMU AND OPTICS CDU ANGLES OR ANY OTHER 2'S COMPL.
000114:                                                                                                  #  (+0 UNEQUAL TO -0) QUANTITY.  MAY BE CALLED BY BANKCALL/SWCALL.
000115:
000116: 10,3670           54142        CDUINC             TS       TEM2                                  #  1S COMPL.QUANT. ARRIVES IN ACC.  STORE IT
000117: 10,3671           50130                           INDEX    BUF
000118: 10,3672           10000                           CCS      0                                     #  CHANGE 2S COMPL. ANGLE(IN BUF)INTO 1S
000119: 10,3673           64744                           AD       ONE
000120: 10,3674           13700                           TCF      +4
000121: 10,3675           64744                           AD       ONE


000123: 10,3676           64744                           AD       ONE                                   #  OVEFLOW HERE IF 2S COMPL. IS 180 DEG.
000124: 10,3677           40000                           COM
000125:
000126: 10,3700           60142                           AD       TEM2                                  #  SULT MOVES FROM 2ND TO 3D QUAD. (OR BACK)
000127: 10,3701           10000                           CCS      A                                     #  BACK TO 2S COMPL.
000128: 10,3702           64744                           AD       ONE
000129: 10,3703           13705                           TCF      +2
000130: 10,3704           40000                           COM
000131: 10,3705           54142                           TS       TEM2                                  #  STORE 14-BIT QUANTITY WITH PRESENT SIGN
000132: 10,3706           13712                           TCF      +4
000133: 10,3707           50000                           INDEX    A                                     #   SIGN.
000134: 10,3710           34725                           CAF      LIMITS                                #  FIX IT, BY ADDING IN 37777 OR 40000
000135: 10,3711           60142                           AD       TEM2
000136:
000137: 10,3712           50130                           INDEX    BUF
000138: 10,3713           54000                           TS       0                                     #  STORE NEW ANGLE IN 2S COMPLEMENT.
000139: 10,3714           00002                           TC       Q
000140:


000142:                                                                                                  #        RTB TO TORQUE GYROS, EXCEPT FOR THE CALL TO IMUSTALL.  ECADR OF COMMANDS ARRIVES IN X1.
000143:
000144: 10,3715           50120        PULSEIMU           INDEX    FIXLOC                                #  ADDRESS OF GYRO COMMANDS SHOULD BE IN X1
000145: 10,3716           30046                           CA       X1
000146: 10,3717           04607                           TC       BANKCALL
000147: 10,3720           17310                           CADR     IMUPULSE
000148: 10,3721           16102                           TCF      DANZIG
000149:


000151:                                                                                                  #        THE SUBROUTINE SIGNMPAC SETS C(MPAC, MPAC +1) TO SIGN(MPAC).
000152:                                                                                                  #  FOR THIS, ONLY THE CONTENTS OF MPAC ARE EXAMINED.  ALSO +0 YIELDS POSMAX AND -0 YIELDS NEGMAX.
000153:
000154:                                                                                                  #  ENTRY MAY BE BY EITHER OF THE FOLLOWING:
000155:                                                                                                  #  1.    LIMIT THE SIZE OF MPAC ON INTERPRETIVE OVERFLOW:
000156:                                                                                                  #  ENTRY:        BOVB
000157:                                                                                                  #                        SIGNMPAC
000158:                                                                                                  #  2.    GENERATE IN MPAC THE SIGNUM FUNCTION OF MPAC:
000159:                                                                                                  #  ENTRY:        RTB
000160:                                                                                                  #                                SIGNMPAC
000161:                                                                                                  #  IN EITHER CASE, RETURN IS TO  THE NEXT INTERPRETIVE INSTRUCTION IN THE CALLING SEQUENCE.
000162:
000163: 14,2000                                           SETLOC   RTBCODE1
000164: 14,2000                                           BANK
000165:
000166: 14,3765           00006        SIGNMPAC           EXTEND
000167: 14,3766           34724                           DCA      DPOSMAX
000168: 14,3767           52155                           DXCH     MPAC
000169: 14,3770           10000                           CCS      A
000170: 14,3771           34746        DPMODE             CAF      ZERO                                  #  SETS MPAC +2 TO ZERO IN THE PROCESS
000171: 14,3772           16100                           TCF      SLOAD2     +2
000172: 14,3773           13774                           TCF      +1
000173: 14,3774           00006                           EXTEND
000174: 14,3775           44724                           DCS      DPOSMAX
000175: 14,3776           16076                           TCF      SLOAD2
000176:
000177: 10,2000                                           SETLOC   RTBCODES
000178: 10,2000                                           BANK
000179:
000180:                                                                                                  #        RTB OP CODE NORMUNIT IS LIKE INTERPRETIVE INSTRUCTION UNIT, EXCEPT THAT IT CAN BE DEPENDED ON NOT TO BLOW
000181:                                                                                                  #  UP WHEN THE VECTOR BEING UNITIZED IS VERY SAMLL -- IT WILL BLOW UP WHEN ALL COMPONENT ARE ZERO.  IF NORMUNIT
000182:                                                                                                  #  IS USED AND THE UPPER ORDER HALVES OF ALL COMPONENTS ARE ZERO, THE MAGNITUDE RETURNS IN 36D WILL BE TOO LARGE
000183:                                                                                                  #  BY A FACTOR OF 2(13) AND THE SQURED MAGNITUDE RETURNED AT 34D WILL BE TOO BIG BY A FACTOR OF 2(26).
000184:
000185: 10,3722           34744        NORMUNX1           CAF      ONE
000186: 10,3723           13725                           TCF      NORMUNIT   +1
000187: 10,3724           34746        NORMUNIT           CAF      ZERO
000188: 10,3725           60120                           AD       FIXLOC
000189: 10,3726           54156                           TS       MPAC       +2
000190: 10,3727           04607                           TC       BANKCALL                              #  GET SIGN AGREEMENT IN ALL COMPONENTS
000191: 10,3730           01010                           CADR     VECAGREE
000192: 10,3731           10154                           CCS      MPAC
000193: 10,3732           13766                           TCF      NOSHIFT
000194: 10,3733           13735                           TCF      +2
000195: 10,3734           13766                           TCF      NOSHIFT
000196: 10,3735           10157                           CCS      MPAC       +3
000197: 10,3736           13766                           TCF      NOSHIFT


000199: 10,3737           13741                           TCF      +2
000200: 10,3740           13766                           TCF      NOSHIFT
000201: 10,3741           10161                           CCS      MPAC       +5
000202: 10,3742           13766                           TCF      NOSHIFT
000203: 10,3743           13745                           TCF      +2
000204: 10,3744           13766                           TCF      NOSHIFT
000205: 10,3745           30155                           CA       MPAC       +1                         #  SHIFT ALL COMPONENTS LEFT 13
000206: 10,3746           00006                           EXTEND
000207: 10,3747           74727                           MP       BIT14
000208: 10,3750           20155                           DAS      MPAC                                  #  DAS GAINS A LITTLE ACCURACY
000209: 10,3751           30160                           CA       MPAC       +4
000210: 10,3752           00006                           EXTEND
000211: 10,3753           74727                           MP       BIT14
000212: 10,3754           20160                           DAS      MPAC       +3
000213: 10,3755           30162                           CA       MPAC       +6
000214: 10,3756           00006                           EXTEND
000215: 10,3757           74727                           MP       BIT14
000216: 10,3760           20162                           DAS      MPAC       +5
000217: 10,3761           34752                           CAF      THIRTEEN
000218: 10,3762           50156                           INDEX    MPAC       +2
000219: 10,3763           54045                           TS       37D
000220: 10,3764           04626        OFFTUNIT           TC       POSTJUMP
000221: 10,3765           01024                           CADR     UNIT       +1                         #  SKIP THE "TC VECAGREE" DONE AT UNIT
000222:
000223: 10,3766           34746        NOSHIFT            CAF      ZERO
000224: 10,3767           13762                           TCF      OFFTUNIT   -2
000225:
000226:                                                                                                  #  RTB VECSGNAG ... FORCES SIGN AGREEMENT OF VECTOR IN MPAC.
000227:
000228: 10,3770           04607        VECSGNAG           TC       BANKCALL
000229: 10,3771           01010                           CADR     VECAGREE
000230: 10,3772           06102                           TC       DANZIG
000231:
000232:                                                                                                  #  *** END OF SKIPPER .131 ***
000233:
000234:

End of include-file RTB_OP_CODES.agc.  Parent file is MAIN.agc


