
Source Code


000002:                                                                                                  ## Copyright:   Public domain.
000003:                                                                                                  ## Filename:    SERVICE_ROUTINES.agc
000004:                                                                                                  ## Purpose:     A section of Luminary revision 210.
000005:                                                                                                  ##              It is part of the source code for the Lunar Module's (LM)
000006:                                                                                                  ##              Apollo Guidance Computer (AGC) for Apollo 15-17.
000007:                                                                                                  ##              This file is intended to be a faithful transcription, except
000008:                                                                                                  ##              that the code format has been changed to conform to the
000009:                                                                                                  ##              requirements of the yaYUL assembler rather than the
000010:                                                                                                  ##              original YUL assembler.
000011:                                                                                                  ## Reference:   pp. 1371-1377
000012:                                                                                                  ## Assembler:   yaYUL
000013:                                                                                                  ## Contact:     Ron Burkey <info@sandroid.org>.
000014:                                                                                                  ## Website:     www.ibiblio.org/apollo/index.html
000015:                                                                                                  ## Mod history: 2016-11-17 JL   Created from Luminary131 version.
000016:                                                                                                  ##              2016-11-29 TB   Transcribed
000017:


000019: 10,3554                                           BANK     10
000020: 10,2000                                           SETLOC   DISPLAYS
000021: 10,2000                                           BANK
000022: 10,3554                                           COUNT*   $$/DSPLA
000023:
000024: 10,3554           00004        UPENT2             INHINT
000025: 10,3555           75652                           MASK     OCT77770
000026: 10,3556           54001                           TS       L
000027: 10,3557           40100                           CS       FLAGWRD4
000028: 10,3560           70001                           MASK     L
000029: 10,3561           26100                           ADS      FLAGWRD4
000030: 10,3562           00003        JOIN               RELINT
000031: 10,3563           16760                           TCF      Q+1
000032:
000033: 10,3564           00004        DOWNENT2           INHINT
000034: 10,3565           75652                           MASK     OCT77770
000035: 10,3566           40000                           COM
000036: 10,3567           70100                           MASK     FLAGWRD4
000037: 10,3570           54100                           TS       FLAGWRD4
000038: 10,3571           13562                           TCF      JOIN
000039:
000040: 10,3572     4750               OCT7               EQUALS   SEVEN
000041:


000043:                                                                                                  #  UPFLAG AND DOWNFLAG ARE ENTIRELY GENERAL FLAG SETTING AND CLEARING SUBROUTINES.  USING THEM, WHETHER OR
000044:                                                                                                  #  NOT IN INTERRUPT, ONE MAY SET OR CLEAR ANY SINGLE, NAMED BIT IN ANY ERASABLE REGISTER, SUBJECT OF COURSE TO
000045:                                                                                                  #  EBANK SETTING.  A "NAMED" BIT, AS THE WORD IS USED HERE, IS ANY BIT WITH A NAME FORMALLY ASSIGNED BY THE YUL
000046:                                                                                                  #  ASSEMBLER.
000047:
000048:                                                                                                  #  AT PRESENT THE ONLY NAMED BITS ARE THOSE IN THE FLAGWORDS.  ASSEMBLER CHANGES WILL MAKE IT POSSIBLE TO
000049:                                                                                                  #  NAME ANY BIT IN ERASABLE MEMORY.
000050:
000051:                                                                                                  #  CALLING SEQUENCES ARE AS FOLLOWS:-
000052:                                                                                                  #                TC      UPFLAG                  TC      DOWNFLAG
000053:                                                                                                  #                ADRES   NAME OF FLAG            ADRES   NAME OF FLAG
000054:
000055:                                                                                                  #  RETURN IS TO THE LOCATION FOLLOWING THE "ADRES" ABOUT .58 MS AFTER THE "TC".
000056:
000057:                                                                                                  #  UPON RETURN A CONTAINS THE CURRENT FLAGWRD SETTING.
000058:
000059:    5506                                           BLOCK    02
000060:    4000                                           SETLOC   FFTAG1
000061:    4000                                           BANK
000062:    5506                                           COUNT*   $$/FLAG
000063:
000064:    5506           30002        UPFLAG             CA       Q
000065:    5507           05524                           TC       DEBIT
000066:    5510           40000                           COM                                            #  +(15 - BIT)
000067:    5511           00006                           EXTEND
000068:    5512           04001                           ROR      LCHAN                                 #  SET BIT
000069:    5513           50061        COMFLAG            INDEX    ITEMP1
000070:    5514           54074                           TS       FLAGWRD0
000071:    5515           22063                           LXCH     ITEMP3
000072:    5516           00003                           RELINT
000073:    5517           00001                           TC       L
000074:
000075:    5520           30002        DOWNFLAG           CA       Q
000076:    5521           05524                           TC       DEBIT
000077:    5522           70001                           MASK     L                                     #  RESET BIT
000078:    5523           15513                           TCF      COMFLAG
000079:
000080:    5524           64744        DEBIT              AD       ONE                                   #  GET DE BITS
000081:    5525           00004                           INHINT
000082:    5526           54063                           TS       ITEMP3
000083:    5527           34753                           CA       LOW4                                  #  DEC15
000084:    5530           54061                           TS       ITEMP1
000085:    5531           50063                           INDEX    ITEMP3
000086:    5532           27777                           CA       0          -1                         #  ADRES
000087:    5533           54001                           TS       L
000088:    5534           34746                           CA       ZERO
000089:


000091:    5535           00006                           EXTEND
000092:    5536           10061                           DV       ITEMP1                                #  A = FLAGWRD, L = (15 - BIT)
000093:    5537           52062                           DXCH     ITEMP1
000094:    5540           50061                           INDEX    ITEMP1
000095:    5541           30074                           CA       FLAGWRD0
000096:    5542           54001                           TS       L                                     #  CURRENT STATE
000097:    5543           50062                           INDEX    ITEMP2
000098:    5544           44726                           CS       BIT15                                 #  -(15 - BIT)
000099:    5545           00002                           TC       Q
000100:


000102:                                                                                                  #  DELAYJOB- A GENERAL ROUTINE TO DELAY A JOB A SPECIFIC AMOUNT OF TIME BEFORE PICKING UP AGAIN.
000103:
000104:                                                                                                  #  ENTRANCE REQUIREMENTS...
000105:                                                                                                  #                CAF     DT              # DELAY JOB FOR DT CENTISECS
000106:                                                                                                  #                TC      BANKCALL
000107:                                                                                                  #                CADR    DELAYJOB
000108:
000109: 06,3776                                           BANK     06
000110: 00,2000                                           SETLOC   DLAYJOB
000111: 00,2000                                           BANK
000112:
000113:                                                                                                  #  THIS MUST REMAIN IN BANK 0 ****************************************
000114:
000115: 00,3735                                           COUNT*   $$/DELAY
000116: 00,3735           34771        2SECDELY           CAF      2SECS
000117: 00,3736           00004        DELAYJOB           INHINT
000118: 00,3737           54002                           TS       Q                                     #  STORE DELAY DT IN Q FOR DLY -1 IN
000119:
000120: 00,3740           34743                           CAF      DELAYNUM                              #  WAITLIST
000121: 00,3741           54070        DELLOOP            TS       RUPTREG1
000122: 00,3742           50000                           INDEX    A
000123: 00,3743           31323                           CA       DELAYLOC                              #  IS THIS DELAYLOC AVAILABLE
000124: 00,3744           00006                           EXTEND
000125: 00,3745           13753                           BZF      OK2DELAY                              #  YES
000126:
000127: 00,3746           10070                           CCS      RUPTREG1                              #  NO, TRY NEXT DELAYLOC
000128: 00,3747           13741                           TCF      DELLOOP
000129:
000130: 00,3750           52134                           DXCH     BUF2
000131: 00,3751           05712                           TC       BAILOUT1                              #  NO AVAILABLE LOCS.
000132: 00,3752           31104                           OCT      31104
000133:
000134: 00,3753           33773        OK2DELAY           CA       TCSLEEP                               #  SET WAITLIST IMMEDIATE RETURN
000135: 00,3754           54061                           TS       WAITEXIT
000136:
000137: 00,3755           30004                           CA       FBANK
000138: 00,3756           60070                           AD       RUPTREG1                              #  STORE BBANK FOR TASK CALL
000139: 00,3757           54001                           TS       L
000140:
000141: 00,3760           33774                           CAF      WAKECAD                               #  STORE CADR FOR TASK CALL
000142: 00,3761           15213                           TCF      DLY2       -1                         #  DLY IS IN WAITLIST ROUTINE
000143:
000144: 00,3762           04636        TCGETCAD           TC       MAKECADR                              #  GET CALLER'S FCADR
000145:
000146: 00,3763           50070                           INDEX    RUPTREG1
000147: 00,3764           55323                           TS       DELAYLOC                              #  SAVE DELAY CADRS
000148:
000149: 00,3765           05124                           TC       JOBSLEEP
000150:
000151: 00,3766           34746        WAKER              CAF      ZERO
000152: 00,3767           50006                           INDEX    BBANK
000153:


000155: 00,3770           57323                           XCH      DELAYLOC                              #  MAKE DELAYLOC AVAILABLE
000156: 00,3771           05130                           TC       JOBWAKE
000157:
000158: 00,3772           05263                           TC       TASKOVER
000159:
000160: 00,3773           03760        TCSLEEP            GENADR   TCGETCAD   -2
000161: 00,3774           03766        WAKECAD            GENADR   WAKER
000162:


000164:                                                                                                  #  GENTRAN, A BLOCK TRANSFER ROUTINE.
000165:                                                                                                  #  WRITTEN BY D. EYLES
000166:                                                                                                  #  MOD 1 BY KERNAN                               UTILITYM REV 17 11/18/67
000167:                                                                                                  #  MOD 2 BY SCHULENBERG (REMOVE RELINT)  SKIPPER REV 4 2/28/68
000168:
000169:                                                                                                  #  THIS ROUTINE IS USEFULL FOR TRANSFERING N CONSECUTIVE ERASABLE OR FIXED QUANTITIES TO SOME OTHER N
000170:                                                                                                  #  CONSECUTIVE ERASABLE LOCATIONS.  IF BOTH BLOCKS OF DATA ARE IN SWITCHABLE EBANKS, THEY MUST BE IN THE SAME ONE.
000171:
000172:                                                                                                  #  GENTRAN IS CALLABLE IN A JOB AS WELL AS A RUPT.  THE CALLING SEQUENCE IS:
000173:                                                                                                  #        I       CA      N-1             # # OF QUANTITIES MINUS ONE.
000174:                                                                                                  #        I +1    TC      GENTRAN         # IN FIXED-FIXED.
000175:                                                                                                  #        I +2    ADRES   L               # STARTING ADRES OF DATA TO BE MOVED.
000176:                                                                                                  #        I +3    ADRES   M               # STARTING ADRES OF DUPLICATION BLOCK.
000177:                                                                                                  #        I +4                            # RETURNS HERE.
000178:
000179:                                                                                                  #  GENTRAN TAKES 25 MCT'S (300 MICROSECONDS) PER ITEM + 5 MCT'S (60 MICS) FOR ENTERING AND EXITING.
000180:                                                                                                  #  A, L, AND ITEMP1 ARE NOT PRESERVED.
000181:
000182:    5546                                           BLOCK    02
000183:    4000                                           SETLOC   FFTAG4
000184:    4000                                           BANK
000185:
000186:    5546     0061                                  EBANK=   ITEMP1
000187:
000188:    5546                                           COUNT*   $$/TRAN
000189:
000190:    5546           00004        GENTRAN            INHINT
000191:    5547           54061                           TS       ITEMP1                                #  SAVE N-1
000192:    5550           50002                           INDEX    Q                                     #  C(Q) = ADRES L.
000193:    5551           60000                           AD       0                                     #  ADRES (L + N - 1).
000194:    5552           50000                           INDEX    A
000195:    5553           30000                           CA       0                                     #  C(ABOVE).
000196:    5554           54001                           TS       L                                     #  SAVE DATA.
000197:    5555           30061                           CA       ITEMP1
000198:    5556           50002                           INDEX    Q
000199:    5557           60001                           AD       1                                     #  ADRES (M + N - 1).
000200:    5560           50000                           INDEX    A
000201:    5561           22000                           LXCH     0                                     #  STUFF IT.
000202:    5562           10061                           CCS      ITEMP1                                #  LOOP UNTIL N-1 = 0.
000203:    5563           15547                           TCF      GENTRAN    +1
000204:    5564           16762                           TCF      Q+2                                   #  RETURN TO CALLER.
000205:


000207:                                                                                                  #  B5OFF         ZERO BIT 5 OF EXTVBACK, WHICH IS SET BY TESTXACT.
000208:                                                                                                  #  MAY BE USED AS NEEDED BY ANY EXTENDED VERB WHICH HAS DONE TESTXACT
000209:
000210:    5565                                           COUNT*   $$/EXTVB
000211:
000212:    5565           44740        B5OFF              CS       BIT5
000213:    5566           71043                           MASK     EXTVBACT
000214:    5567           55043                           TS       EXTVBACT
000215:    5570           05146                           TC       ENDOFJOB
000216:
000217:
000218:

End of include-file SERVICE_ROUTINES.agc.  Parent file is MAIN.agc


