
Source Code


000002:                                                                                                  ## Copyright:   Public domain.
000003:                                                                                                  ## Filename:    SINGLE_PRECISION_SUBROUTINES.agc
000004:                                                                                                  ## Purpose:     A section of Luminary revision 210.
000005:                                                                                                  ##              It is part of the source code for the Lunar Module's (LM)
000006:                                                                                                  ##              Apollo Guidance Computer (AGC) for Apollo 15-17.
000007:                                                                                                  ##              This file is intended to be a faithful transcription, except
000008:                                                                                                  ##              that the code format has been changed to conform to the
000009:                                                                                                  ##              requirements of the yaYUL assembler rather than the
000010:                                                                                                  ##              original YUL assembler.
000011:                                                                                                  ## Reference:   p. 1100
000012:                                                                                                  ## Assembler:   yaYUL
000013:                                                                                                  ## Contact:     Ron Burkey <info@sandroid.org>.
000014:                                                                                                  ## Website:     www.ibiblio.org/apollo/index.html
000015:                                                                                                  ## Mod history: 2016-11-17 JL   Created from Luminary131 version.
000016:                                                                                                  ##              2016-11-21 RRB  Changed page numbers for Luminary210
000017:                                                                                                  ##              2016-12-26 RSB  Comment-text proofed using ProoferComments
000018:                                                                                                  ##                              and corrected errors found.
000019:


000021:    5023                                           BLOCK    02
000022:
000023:                                                                                                  #  SINGLE PRECISION SINE AND COSINE
000024:
000025:    5023                                           COUNT*   $$/INTER
000026:    5023           64727        SPCOS              AD       HALF                                  #  ARGUMENTS SCALED AT PI
000027:    5024           55075        SPSIN              TS       TEMK
000028:    5025           15027                           TCF      SPT
000029:    5026           41075                           CS       TEMK
000030:    5027           60000        SPT                DOUBLE
000031:    5030           55075                           TS       TEMK
000032:    5031           15042                           TCF      POLLEY
000033:    5032           57075                           XCH      TEMK
000034:    5033           51075                           INDEX    TEMK
000035:    5034           64725                           AD       LIMITS
000036:    5035           40000                           COM
000037:    5036           61075                           AD       TEMK
000038:    5037           55075                           TS       TEMK
000039:    5040           15042                           TCF      POLLEY
000040:    5041           15060                           TCF      ARG90
000041:    5042           00006        POLLEY             EXTEND
000042:    5043           71075                           MP       TEMK
000043:    5044           55076                           TS       SQ
000044:    5045           00006                           EXTEND
000045:    5046           74776                           MP       C5/2
000046:    5047           67760                           AD       C3/2
000047:    5050           00006                           EXTEND
000048:    5051           71076                           MP       SQ
000049:    5052           67740                           AD       C1/2
000050:    5053           00006                           EXTEND
000051:    5054           71075                           MP       TEMK
000052:    5055           20001                           DDOUBL
000053:    5056           55075                           TS       TEMK
000054:    5057           00002                           TC       Q
000055:    5060           50000        ARG90              INDEX    A
000056:    5061           44725                           CS       LIMITS
000057:    5062           00002                           TC       Q                                     #  RESULT SCALED AT 1
000058:
000059:

End of include-file SINGLE_PRECISION_SUBROUTINES.agc.  Parent file is MAIN.agc


