
Source Code


000002:                                                                                                  ## Copyright:   Public domain.
000003:                                                                                                  ## Filename:    T4RUPT_PROGRAM.agc
000004:                                                                                                  ## Purpose:     A section of Luminary revision 210.
000005:                                                                                                  ##              It is part of the source code for the Lunar Module's (LM)
000006:                                                                                                  ##              Apollo Guidance Computer (AGC) for Apollo 15-17.
000007:                                                                                                  ##              This file is intended to be a faithful transcription, except
000008:                                                                                                  ##              that the code format has been changed to conform to the
000009:                                                                                                  ##              requirements of the yaYUL assembler rather than the
000010:                                                                                                  ##              original YUL assembler.
000011:                                                                                                  ## Reference:   pp. 165-200
000012:                                                                                                  ## Assembler:   yaYUL
000013:                                                                                                  ## Contact:     Ron Burkey <info@sandroid.org>.
000014:                                                                                                  ## Website:     www.ibiblio.org/apollo/index.html
000015:                                                                                                  ## Mod history: 2016-11-17 JL   Created from Luminary131 version.
000016:                                                                                                  ##              2016-11-21 HG   Transcribed
000017:


000019: 12,2000                                           BANK     12
000020: 06,2000                                           SETLOC   T4RUP
000021: 06,2000                                           BANK
000022:
000023: 06,2000  E6,1414                                  EBANK=   M11
000024: 06,2000                                           COUNT*   $$/T4RPT
000025: 06,2000           54016        T4RUPT             TS       BANKRUPT
000026:
000027: 06,2001           00006                           EXTEND
000028: 06,2002           22012                           QXCH     QRUPT
000029:
000030: 06,2003           11310                           CCS      DSRUPTSW                              #  GOES 7(-1)0 AROUND AND AROUND
000031: 06,2004           12010                           TCF      NORMT4     +1
000032: 06,2005           12007                           TCF      NORMT4
000033:
000034: 06,2006           12134                           TCF      QUIKDSP
000035:
000036: 06,2007           34750        NORMT4             CAF      SEVEN
000037: 06,2010           54070                           TS       RUPTREG1
000038: 06,2011           55310                           TS       DSRUPTSW
000039:
000040:    4066                                           BLOCK    02
000041:    4000                                           SETLOC   FFTAG10
000042:    4000                                           BANK
000043:
000044:    4066                                           COUNT*   $$/T4RPT
000045:    4066     7750               100MRUPT           =        OCT37766                              #  (DEC 16374)
000046:                                                                                                  #  RELTAB IS A PACKED TABLE. RELAYWORD CODE IN UPPER 4 BITS, RELAY CODE
000047:                                                                                                  #  IN LOWER 5 BITS.
000048:    4066           04025        RELTAB             OCT      04025
000049:    4067           10003                           OCT      10003
000050:    4070           14031                           OCT      14031
000051:    4071           20033                           OCT      20033
000052:    4072           24017                           OCT      24017
000053:    4073           30036                           OCT      30036
000054:    4074           34034                           OCT      34034
000055:    4075           40023                           OCT      40023
000056:    4076           44035                           OCT      44035
000057:    4077           50037                           OCT      50037
000058:    4100           54000                           OCT      54000
000059:    4101           60000        RELTAB11           OCT      60000
000060:


000062:
000063:
000064: 12,2000                                           BANK     12
000065: 06,2000                                           SETLOC   T4RUP
000066: 06,2000                                           BANK
000067:
000068: 06,2012                                           COUNT*   $$/T4RPT
000069: 06,2012           11035        CDRVE              CCS      DSPTAB     +11D
000070: 06,2013           02063                           TC       DSPOUT
000071: 06,2014           02063                           TC       DSPOUT
000072:
000073: 06,2015           57035                           XCH      DSPTAB     +11D
000074: 06,2016           74347                           MASK     LOW11
000075: 06,2017           55035                           TS       DSPTAB     +11D
000076: 06,2020           64101                           AD       RELTAB11
000077: 06,2021           00006                           EXTEND
000078: 06,2022           01010                           WRITE    OUT0
000079: 06,2023           02071                           TC       HANG20
000080:


000082:                                                                                                  #  DSPOUT PROGRAM, PUTS OUT DISPLAYS.
000083:
000084: 06,2024           55015        DSPOUTSB           TS       NOUT
000085: 06,2025           44746                           CS       ZERO
000086: 06,2026           54073                           TS       DSRUPTEM                              #  SET TO -0 FOR 1ST PASS THRU OSPTAB
000087: 06,2027           56775                           XCH      DSPCNT
000088: 06,2030           64745                           AD       NEG0                                  #  TO PREVENT +0
000089: 06,2031           54775                           TS       DSPCNT
000090: 06,2032           50775        DSPSCAN            INDEX    DSPCNT
000091: 06,2033           11022                           CCS      DSPTAB
000092: 06,2034           10775                           CCS      DSPCNT                                #  IF DSPTAB ENTRY +, SKIP
000093: 06,2035           12030                           TCF      DSPSCAN    -2                         #  IF DSPCNT +, TRY AGAIN
000094: 06,2036           12047                           TCF      DSPLAY                                #  IF DSPTAB ENTRY -, DISPLAY
000095: 06,2037           00012        TABLNTH            OCT      12                                    #  DEC 10   LENGTH OF DSPTAB
000096: 06,2040           10073                           CCS      DSRUPTEM                              #  IF DSRUPTEM=+0,2ND PASS THRU DSPTAB
000097: 06,2041           37764        120MRUPT           DEC      16372      B-14                       #  (DSPCNT = 0). +0 INTO NOUT.
000098: 06,2042           55015                           TS       NOUT
000099: 06,2043           00002                           TC       Q
000100: 06,2044           54073                           TS       DSRUPTEM                              #  IF DSRUPTEM=-0,1ST PASS THRU DSPTAB
000101: 06,2045           32037                           CAF      TABLNTH                               #  (DSPCNT=0). +0 INTO DSRUPTEM. PASS AGAIN
000102: 06,2046           12031                           TCF      DSPSCAN    -1
000103:
000104: 06,2047           64744        DSPLAY             AD       ONE
000105: 06,2050           50775                           INDEX    DSPCNT
000106: 06,2051           55022                           TS       DSPTAB                                #  REPLACE POSITIVELY
000107: 06,2052           74347                           MASK     LOW11                                 #  REMOVE BITS 12 TO 15
000108: 06,2053           54073                           TS       DSRUPTEM
000109: 06,2054           34341                           CAF      HI5
000110: 06,2055           50775                           INDEX    DSPCNT
000111: 06,2056           74066                           MASK     RELTAB                                #  PICK UP BITS 12 TO 15 OF RELTAB ENTRY
000112: 06,2057           60073                           AD       DSRUPTEM
000113: 06,2060           00006                           EXTEND
000114: 06,2061           01010                           WRITE    OUT0
000115:
000116: 06,2062           16760                           TCF      Q+1
000117:
000118: 06,2063           10101        DSPOUT             CCS      FLAGWRD5                              #  IS DSKY FLAG ON
000119: 06,2064           34746                           CAF      ZERO                                  #  NO
000120: 06,2065           12130                           TCF      NODSPOUT                              #  NO
000121: 06,2066           11015                           CCS      NOUT                                  #  YES
000122: 06,2067           02024                           TC       DSPOUTSB
000123: 06,2070           12130                           TCF      NODSPOUT                              #  NO DISPLAY REQUESTS
000124:
000125: 06,2071           42171        HANG20             CS       14,11,9
000126: 06,2072           27310                           ADS      DSRUPTSW
000127:
000128: 06,2073           37752                           CAF      20MRUPT
000129:
000130: 06,2074           54027        SETTIME4           TS       TIME4
000131:


000133:                                                                                                  #  THE STATUS OF THE PROCEED PUSHBUTTON IS MONITORED EVERY 120 MILLISECONDS VIA THE CHANNEL 32 BIT 14 INBIT.
000134:                                                                                                  #  THE STATE OF THIS INBIT IS COMPARED WITH ITS STATE DURING THE PREVIOUS T4RUPT AND IS PROCESSED AS FOLLOWS.
000135:
000136:                                                                                                  #     IF PREV ON AND NOW ON    -   BYPASS
000137:                                                                                                  #     IF PREV ON AND NOW OFF   -   UPDATE IMODES33
000138:                                                                                                  #     IF PREV OFF AND NOW ON   -   UPDATE IMODES33 AND PROCESS VIA PINBALL
000139:                                                                                                  #     IF PREV OFF AND NOW OFF  -   BYPASS
000140:
000141:                                                                                                  #  THE LOGIC EMPLOYED REQUIRES ONLY 9 MCT (APPROX. 108 MICROSECONDS) OF COMPUTER TIME WHEN NO CHANGES OCCUR.
000142:
000143:
000144: 06,2075           31300        PROCEEDE           CA       IMODES33                              #  MONITOR FOR PROCEED BUTTON
000145: 06,2076           00006                           EXTEND
000146: 06,2077           06032                           RXOR     CHAN32
000147: 06,2100           74727                           MASK     BIT14
000148: 06,2101           00006                           EXTEND
000149: 06,2102           12116                           BZF      T4JUMP                                #  NO CHANGE
000150:
000151: 06,2103           23300                           LXCH     IMODES33
000152: 06,2104           00006                           EXTEND
000153: 06,2105           06001                           RXOR     LCHAN
000154: 06,2106           55300                           TS       IMODES33                              #  UPDATE IMODEES33
000155: 06,2107           74727                           MASK     BIT14
000156: 06,2110           10000                           CCS      A
000157: 06,2111           12116                           TCF      T4JUMP                                #  WAS ON - NOW OFF
000158:
000159: 06,2112           34346                           CAF      CHRPRIO                               #  WAS OFF - NOW ON
000160: 06,2113           05063                           TC       NOVAC
000161: 06,2114     0776                                  EBANK=   DSPCOUNT
000162: 06,2114           03501 60101                     2CADR    PROCKEY
000163:


000165:                                                                                                  #           JUMP TO APPROPRIATE ONCE-PER SECOND (0.96 SEC ACTUALLY) ACTIVITY
000166:
000167: 06,2116           50070        T4JUMP             INDEX    RUPTREG1
000168: 06,2117           12120                           TCF      +1
000169:
000170: 06,2120           03213                           TC       RCSMONIT
000171: 06,2121           13035                           TCF      RRAUTCHK
000172: 06,2122           12172                           TCF      IMUMON
000173: 06,2123           13167                           TCF      DAPT4S
000174: 06,2124           03213                           TC       RCSMONIT
000175: 06,2125           13035                           TCF      RRAUTCHK
000176: 06,2126           12172                           TCF      IMUMON
000177: 06,2127           13167                           TCF      DAPT4S
000178:
000179: 06,2130     7752               20MRUPT            =        OCT37776                              #  (DEC 16382)
000180:


000182:                                                                                                  #  ADDITIONAL ROUTINES FOR 20MS. KEYBOARD ACTIVITY
000183:
000184: 06,2130           00006        NODSPOUT           EXTEND
000185: 06,2131           01010                           WRITE    OUT0
000186:
000187: 06,2132           32041                           CAF      120MRUPT                              # SET FOR NEXT CDRIVE
000188: 06,2133           12074                           TCF      SETTIME4
000189:
000190: 06,2134           34727        QUIKDSP            CAF      BIT14
000191: 06,2135           71310                           MASK     DSRUPTSW
000192: 06,2136           00006                           EXTEND
000193: 06,2137           12165                           BZF      QUIKOFF                               #  WROTE LAST TIME, NOW TURN OFF RELAYS.
000194:
000195: 06,2140           11015                           CCS      NOUT
000196: 06,2141           02024                           TC       DSPOUTSB
000197: 06,2142           12152                           TCF      NODSPY                                #  NOUT=0 OR BAD RETURN FROM DSPOUTSB
000198: 06,2143           44727                           CS       BIT14                                 #  GOOD RETURN (WE DISPLAYED SOMETHING)
000199: 06,2144           27310        QUIKRUPT           ADS      DSRUPTSW
000200:
000201: 06,2145           37752                           CAF      20MRUPT
000202: 06,2146           54027                           TS       TIME4
000203:
000204: 06,2147           34734                           CAF      BIT9
000205: 06,2150           27310                           ADS      DSRUPTSW
000206:
000207: 06,2151           05272                           TC       RESUME
000208:
000209: 06,2152           00006        NODSPY             EXTEND
000210: 06,2153           01010                           WRITE    OUT0
000211:
000212: 06,2154           37752        SYNCT4             CAF      20MRUPT
000213: 06,2155           26027                           ADS      TIME4
000214:
000215: 06,2156           34734                           CAF      BIT9
000216: 06,2157           27310                           ADS      DSRUPTSW
000217:
000218: 06,2160           11310                           CCS      DSRUPTSW
000219: 06,2161           05272                           TC       RESUME
000220: 06,2162           37737        OCT37737           OCT      37737
000221: 06,2163           02154                           TC       SYNCT4
000222: 06,2164           05272                           TC       RESUME
000223:
000224: 06,2165           00006        QUIKOFF            EXTEND
000225: 06,2166           01010                           WRITE    OUT0
000226: 06,2167           34727                           CAF      BIT14                                 #  RESET DSRUPTSW TO SEND DISPLAY NEXT PASS
000227: 06,2170           12144                           TCF      QUIKRUPT
000228:
000229: 06,2171           22400        14,11,9            OCT      22400
000230:


000232:                                                                                                  #  PROGRAM NAME:  IMUMON
000233:
000234:                                                                                                  #  FUNCTIONAL DESCRIPTION:  THIS PROGRAM IS ENTERED EVERY 480 MS.  IT DETECTS CHANGES OF THE IMU STATUS BITS IN
000235:                                                                                                  #  CHANNEL 30 AND CALLS THE APPROPRIATE SUBROUTINES.  THE BITS PROCESSED AND THEIR RELEVANT SUROUTINES ARE:
000236:
000237:                                                                                                  #           FUNCTION               BIT    SUBROUTINE CALLED
000238:                                                                                                  #           --------               ---    -----------------
000239:                                                                                                  #           TEMP IN LIMITS          15    TLIM
000240:                                                                                                  #           ISS TURN-ON REQUEST     14    ITURNON
000241:                                                                                                  #           IMU FAIL                13    IMUFAIL (SETISSW)
000242:                                                                                                  #           IMU CDU FAIL            12    ICDUFAIL (SETISSW)
000243:                                                                                                  #           IMU CAGE                11    IMUCAGE
000244:                                                                                                  #           IMU OPERATE              9    IMUOP
000245:
000246:                                                                                                  #           THE LAST SAMPLED STATE OF THESE BITS IS LEFT IN IMODES30.  ALSO, EACH SUBROUTINE CALLED FINDS THE NEW
000247:                                                                                                  #  VALUE OF THE BIT IN A, WITH Q SET TO THE PROPER RETURN LOCATION, NXTIFAIL.
000248:
000249:                                                                                                  #  CALLING SEQUENCE:  T4RUPT EVERY 480 MILLISECONDS.
000250:
000251:                                                                                                  #  JOBS OR TASKS INITIATED:  NONE.
000252:
000253:                                                                                                  #  SUBROUTINES CALLED:  TLIM, ITURNON, SETISSW, IMUCAGE, IMUOP.
000254:
000255:                                                                                                  #  ERASABELE INITIALIZATION:
000256:                                                                                                  #            FRESH START OR RESTART WITH NO GROUPS ACTIVE: C((MODES30) = OCT 37411.
000257:                                                                                                  #            RESTART WITH ACTIVE GROUPS: C(IMODES30) = (B(IMODES30)AND(OCT 00035)) PLUS OCT 37400.
000258:                                                                                                  #                                        THIS LEAVES IMU FAIL BITS INTACT.
000259:
000260:                                                                                                  #  ALARMS:   NONE.
000261:
000262:                                                                                                  #  EXIT:  TNONTEST.
000263:
000264:                                                                                                  #  OUTPUT:  UPDATED IMODES30 WITH CHANGES PROCESSED BY APPROPRIATE SUBROUTINE.
000265:
000266: 06,2172           31277        IMUMON             CA       IMODES30                              #  SEE IF THERE HAS BEEN A CHANGE IN THE
000267: 06,2173           00006                           EXTEND                                         #  RELEVANT BITS OF CHAN 30.
000268: 06,2174           06030                           RXOR     CHAN30
000269: 06,2175           72761                           MASK     30RDMSK
000270: 06,2176           00006                           EXTEND
000271: 06,2177           12227                           BZF      TNONTEST                              #  NO CHANGE IN STATUS.
000272:
000273: 06,2200           54070                           TS       RUPTREG1                              #  SAVE BITS WHICH HAVE CHANGED.
000274: 06,2201           23277                           LXCH     IMODES30                              #  UPDATE IMODES30.
000275: 06,2202           00006                           EXTEND
000276: 06,2203           06001                           RXOR     LCHAN
000277: 06,2204           55277                           TS       IMODES30
000278:
000279: 06,2205           44744                           CS       ONE
000280: 06,2206           56070                           XCH      RUPTREG1
000281: 06,2207           00006                           EXTEND
000282:


000284: 06,2210           62514                           BZMF     TLIM                                  #  CHANGE IN IMU TEMP.
000285: 06,2211           12213                           TCF      NXTIFBIT                              #  BEGIN BIT SCAN.
000286:
000287: 06,2212           64744                 -1        AD       ONE                                   #  (RE-ENTERS HERE FROM NXTIFAIL.)
000288: 06,2213           24070        NXTIFBIT           INCR     RUPTREG1                              #  ADVANCE BIT POSITION NUMBER.
000289: 06,2214           60000                 +1        DOUBLE
000290: 06,2215           54000                           TS       A                                     #  SKIP IF OVERFLOW.
000291: 06,2216           12213                           TCF      NXTIFBIT                              #  LOOK FOR BIT.
000292:
000293: 06,2217           56071                           XCH      RUPTREG2                              #  SAVE OVERFLOW-CORRECTED DATA.
000294: 06,2220           50070                           INDEX    RUPTREG1                              #  SELECT NEW VALUE OF THIS BIT.
000295: 06,2221           34727                           CAF      BIT14
000296: 06,2222           71277                           MASK     IMODES30
000297: 06,2223           50070                           INDEX    RUPTREG1
000298: 06,2224           02755                           TC       IFAILJMP
000299:
000300: 06,2225           10071        NXTIFAIL           CCS      RUPTREG2                              #  PROCESS ANY ADDITIONAL CHANGES.
000301: 06,2226           12212                           TCF      NXTIFBIT   -1
000302:


000304:                                                                                                  #  PROGRAM NAME:  TNONTEST.
000305:
000306:                                                                                                  #  FUNCTIONAL DESCRIPTION:  THIS PROGRAM HONORS REQUESTS FOR ISS INITIALIZATION.  ISS TURN-ON (CHANNEL 30 BIT 14)
000307:                                                                                                  #  AND ISS OPERATE (CHANNEL 30 BIT 9) REQUESTS ARE TREATED AS A PAIR AND PROCESSING TAKES PLACE .480 SECONDS
000308:                                                                                                  #  AFTER EITHER ONE APPEARS.  THIS INITIALIZATION TAKES ON ONE OF THE FOLLOWING THREE FORMS:
000309:
000310:                                                                                                  #           1)  ISS TURN-ON:  IN THIS SITUATION THE COMPUTER IS OPERATING WHEN THE ISS IS TURNED ON.  NOMINALLY,
000311:                                                                                                  #           BOTH ISS TURN-ON AND ISS OPERATE APPEAR.  THE PLATFORM IS CAGED FOR 90 SECONDS AND THE ICDU'S ZEROED
000312:                                                                                                  #           SO THAT AT THE END OF THE PROCESS THE GIMBAL LOCK MONITOR WILL FUNCTION PROPERLY.
000313:
000314:                                                                                                  #           2)  ICDU INITIALIZATION:  IN THIS CASE THE COMPUTER WAS PROBABLY TURNED ON WITH THE ISS IN OPERATE OR
000315:                                                                                                  #           A FRESH START WAS DONE WITH THE ISS IN OPERATE.  IN THIS CASE ONLY ISS OPERATE IS ON.  THE ICDU'S ARE
000316:                                                                                                  #           ZEROED SO THE GIMBAL LOCK MONITOR WILL FUNCTION.  AN EXCEPTION IS IF THE ISS IS IN GIMBAL LOCK AFTER
000317:                                                                                                  #           A RESTART, THE ICDU'S WILL NOT BE ZEROED.
000318:
000319:                                                                                                  #           3)  RESTART WITH RESTARTABLE PROGRAM USING THE IMU:  IN THIS CASE, NO INITIALIZATION TAKES PLACE SINCE
000320:                                                                                                  #           IT IS ASSUMED THAT THE USING PROGRAM DID THE INITIALIZATION AND THEREFORE T4RUPT SHOULD NOT INTERFERE.
000321:
000322:                                                                                                  #  IMODES30 BIT 7 IS SET = 1 BY THE FIRST BIT (CHANNEL 30 BIT 14 OR 9) WHICH ARRIVES.  FOLLOWING THIS, TNONTEST IS
000323:                                                                                                  #  ENTERED, FINDS BIT 7 = 1 BUT BIT 8 = 0, SO IT SETS BIT 8 = 1 AND EXITS.  THE NEXT TIME IT FINDS BIT 8 = 1 AND
000324:                                                                                                  #  PROCEEDS, SETTING BITS 8 AND 7 = 0.  AT PROCTNON, IF ISS TURN-ON REQUEST IS PRESENT, THE ISS IS CAGED (ZERO +
000325:                                                                                                  #  COARSE).  IF ISS OPERATE IS NOT PRESENT PROGRAM ALARM 00213 IS ISSUED.  AT THE END OF A 90 SECOND CAGE, BIT 2
000326:                                                                                                  #  OF IMODES30 IS TESTED.  IF IT IS = 1, ISS TURN-ON WAS NOT PRESENT FOR THE ENTIRE 90 SECONDS.  IN THAT CASE, IF
000327:                                                                                                  #  THE ISS TURN-ON REQUEST IS PRESENT THE 90 SECOND WAIT IS REPEATED, OTHERWISE NO ACTION OCCURS UNLESS A PROGRAM
000328:                                                                                                  #  WAS WAITING FOR THE INITIALIZATION IN WHICH CASE THE PROGRAM IS GIVEN AN IMUSTALL ERROR RETURN.  IF THE DELAY
000329:                                                                                                  #  WENT PROPERLY, THE ISS DELAY OUTBIT IS SENT AND THE ICDU'S ZEROED.  A TASK IS INITIATED TO REMOVE THE PIPA FAIL
000330:                                                                                                  #  INHIBIT BIT IN 10.24 SECONDS.  IF A MISSION PROGRAM WAS WAITING IT IS INFORMED VIA ENDIMU.
000331:
000332:                                                                                                  #  AT PROCTNON, IF ONLY ISS OPERATE IS PRESENT (OPONLY), THE CDU'S ARE ZEROED UNLESS THE PLATFORM IS IN COARSE
000333:                                                                                                  #  ALIGN (= GIMBAL LOCK HERE) OR A MISSION PROGRAM IS USING THE IMU (INUSEFLG = 1).
000334:
000335:                                                                                                  #  CALLING SEQUENCE:  T4RUPT EVERY 480 MILLISECONDS AFTER IMUMON.
000336:
000337:                                                                                                  #  JOBS OR TASKS INITIATED:  1) ENDTMON, 90 SECONDS AFTER CAGING STARTED.  2) ISSUP, 4 SECONDS AFTER CAGING DONE.
000338:                                                                                                  #           3) PFAILOK, 10.24 SECONDS AFTER INITIALIZATION COMPLETED.  4) UNZ2, 320 MILLISECONDS AFTER ZEROING
000339:                                                                                                  #           STARTED.
000340:
000341:                                                                                                  #  SUBROUTINES CALLED:  CAGESUB, CAGESUB2, ZEROICDU, ENDIMU, IMUBAD, NOATTOFF, SETISSW, VARDELAY.
000342:
000343:                                                                                                  #  ERASABLE INITIALIZATION:  SEE IMUMON.
000344:
000345:                                                                                                  #  ALARMS:  PROGRAM ALARM 00213 IF ISS TURN-ON REQUESTED WITHOUT ISS OPERATE.
000346:
000347:                                                                                                  #  EXIT:  ENDTNON EXITS TO C33TEST.  TASKS HAVING TO DO WITH INITIALIZATION EXIT AS FOLLOWS:  MISSION PROGRAM
000348:                                                                                                  #  WAITING AND INITIALIZATION COMPLETE, EXIT TO ENDIMU, MISSION PROGRAM WAITING AND INITIALIZATION FAILED, EXIT TO
000349:                                                                                                  #  IMUBAD, IMU NOT IN USE, EXIT TO TASKOVER.
000350:
000351:                                                                                                  #  OUTPUT:  ISS INITIALIZED.
000352:
000353: 06,2227           41277        TNONTEST           CS       IMODES30                              #  AFTER PROCESSING ALL CHANGES, SEE IF IT
000354:


000356: 06,2230           74736                           MASK     BIT7                                  #  IS TIME TO ACT ON A TURN-ON SEQUENCE.
000357: 06,2231           10000                           CCS      A
000358: 06,2232           12374                           TCF      C33TEST                               #  NO - EXAMINE CHANNEL 33.
000359:
000360: 06,2233           34735                           CAF      BIT8                                  #  SEE IF FIRST SAMPLE OR SECOND.
000361: 06,2234           71277                           MASK     IMODES30
000362: 06,2235           10000                           CCS      A
000363: 06,2236           12242                           TCF      PROCTNON                              #  REACT AFTER A SECOND SAMPLE.
000364:
000365: 06,2237           34735                           CAF      BIT8                                  #  IF FIRST SAMPLE, SET BIT TO REACT NEXT
000366: 06,2240           27277                           ADS      IMODES30                              #  TIME.
000367: 06,2241           12374                           TCF      C33TEST
000368:
000369:                                                                                                  #           PROCESS IMU TURN-ON REQUESTS AFTER WAITING 1 SAMPLE FOR ALL SIGNALS TO ARRIVE.
000370:
000371: 06,2242           42777        PROCTNON           CS       BITS7&8
000372: 06,2243           71277                           MASK     IMODES30
000373: 06,2244           55277                           TS       IMODES30
000374: 06,2245           74727                           MASK     BIT14                                 #  SEE IF TURN-ON REQUEST.
000375: 06,2246           10000                           CCS      A
000376: 06,2247           12347                           TCF      OPONLY                                #  OPERATE ON ONLY.
000377:
000378: 06,2250           41277                           CS       IMODES30                              #  IF TURN-ON REQUEST, WE SHOULD HAVE IMU
000379: 06,2251           74734                           MASK     BIT9                                  #  OPERATE.
000380: 06,2252           10000                           CCS      A
000381: 06,2253           12256                           TCF      +3
000382:
000383: 06,2254           05571                           TC       ALARM                                 #  ALARM IF NOT.
000384: 06,2255           00213                           OCT      213
000385:
000386: 06,2256           02735                 +3        TC       CAGESUB
000387: 06,2257           33005                           CAF      90SECS
000388: 06,2260           05205                           TC       WAITLIST
000389: 06,2261  E6,1414                                  EBANK=   M11
000390: 06,2261           02266 14106                     2CADR    ENDTNON
000391:
000392: 06,2263           12374                           TCF      C33TEST
000393:
000394: 06,2264           33005        RETNON             CAF      90SECS
000395: 06,2265           05226                           TC       VARDELAY
000396:
000397: 06,2266           44743        ENDTNON            CS       BIT2                                  #  RESET TURN-ON REQUEST FAIL BIT.
000398: 06,2267           71277                           MASK     IMODES30
000399: 06,2270           57277                           XCH      IMODES30
000400: 06,2271           74743                           MASK     BIT2                                  #  IF IT WAS OFF, SEND ISS DELAY COMPLETE.
000401: 06,2272           00006                           EXTEND
000402: 06,2273           12306                           BZF      ENDTNON2
000403:
000404: 06,2274           34727                           CAF      BIT14                                 #  IF IT WAS ON AND TURN-ON REQUEST NOW
000405:


000407: 06,2275           71277                           MASK     IMODES30                              #  PRESENT, RE-ENTER 90 SEC DELAY IN WL.
000408: 06,2276           00006                           EXTEND
000409: 06,2277           12264                           BZF      RETNON
000410:
000411: 06,2300           40074                           CS       FLAGWRD0                              #  IF IT IS NOT ON NOW, SEE IF A PROG WAS
000412: 06,2301           74735                           MASK     IMUSEBIT                              #  WAITING.
000413: 06,2302           10000                           CCS      A
000414: 06,2303           15263                           TCF      TASKOVER
000415: 06,2304           04626                           TC       POSTJUMP
000416: 06,2305           17656                           CADR     IMUBAD                                #  UNSUCCESSFUL TURN-ON.
000417:
000418: 06,2306           34726        ENDTNON2           CAF      BIT15                                 #  SEND ISS DELAY COMPLETE.
000419: 06,2307           00006                           EXTEND
000420: 06,2310           05012                           WOR      CHAN12
000421:
000422: 06,2311           04665                           TC       IBNKCALL                              #  TURN OFF NO ATT LAMP.
000423: 06,2312           17253                           CADR     NOATTOFF
000424:
000425: 06,2313           05461        UNZ2               TC       ZEROICDU
000426:
000427: 06,2314           44754                           CS       BITS4&5                               #  REMOVE ZERO AND COARSE.
000428: 06,2315           00006                           EXTEND
000429: 06,2316           03012                           WAND     CHAN12
000430:
000431: 06,2317           34732                           CAF      BIT11                                 #  WAIT 10 SECS FOR CTRS TO FIND GIMBALS
000432: 06,2320           05226                           TC       VARDELAY
000433:
000434: 06,2321           42774        ISSUP              CS       OCT54                                 #  REMOVE CAGING, IMU FAIL INHIBIT BIT, AND
000435: 06,2322           71277                           MASK     IMODES30                              #  ICDUFAIL INHIBIT FLAGS.
000436: 06,2323           55277                           TS       IMODES30
000437:
000438: 06,2324           44737                           CS       BIT6                                  #  ENABLE DAP
000439: 06,2325           71300                           MASK     IMODES33
000440: 06,2326           55300                           TS       IMODES33
000441:
000442: 06,2327           40076                           CS       FLAGWRD2                              #  TEST DRIFTFLG: IF ON, DO NOTHING BECAUSE
000443: 06,2330           74726                           MASK     DRFTBIT                               #  IMUCOMP SHOULD BE ALL SET UP(RESTART
000444: 06,2331           00006                           EXTEND                                         #  WITH IMUSE DOWN).  IF OFF, SET DRIFTFLG
000445: 06,2332           12336                           BZF      +4                                    #  AND 1/PIPADT TO GET FREEFALL IMUCOMP
000446: 06,2333           26076                           ADS      FLAGWRD2                              #  GOING (FRESH START OR ISS TURN-ON).
000447: 06,2334           30025                           CA       TIME1
000448: 06,2335           57074                           XCH      1/PIPADT                              #  CANNOT GET HERE IF RESTART WITH IMUSE UP
000449:
000450: 06,2336           02703                           TC       SETISSW                               #  ISS WARNING MIGHT HAVE BEEN INHIBITED.
000451:
000452: 06,2337           44726                           CS       BIT15                                 #  REMOVE IMU DELAY COMPLETE DISCRETE.
000453: 06,2340           00006                           EXTEND
000454: 06,2341           03012                           WAND     CHAN12
000455:
000456: 06,2342           34774                           CAF      4SECS                                 #  DON'T ENABLE PROG ALARM ON PIP FAIL FOR


000458: 06,2343           05205                           TC       WAITLIST                              #  ANOTHER 4 SECS.
000459: 06,2344  E3,1474                                  EBANK=   CDUIND
000460: 06,2344           03241 16103                     2CADR    PFAILOK
000461:
000462: 06,2346           15263                           TCF      TASKOVER
000463:
000464: 06,2347           34741        OPONLY             CAF      BIT4                                  #  IF OPERATE ON ONLY, AND WE ARE IN COARSE
000465: 06,2350           00006                           EXTEND                                         #  ALIGN, DONT ZERO THE CDUS BECAUSE WE
000466: 06,2351           02012                           RAND     CHAN12                                #  MIGHT BE IN GIMBAL LOCK
000467: 06,2352           10000                           CCS      A
000468: 06,2353           12374                           TCF      C33TEST
000469:
000470: 06,2354           34735                           CAF      IMUSEBIT                              #  OTHERWISE, ZERO THE COUNTERS.
000471: 06,2355           70074                           MASK     FLAGWRD0                              #  UNLESS SOMEONE IS USING THE IMU.
000472: 06,2356           10000                           CCS      A
000473: 06,2357           12374                           TCF      C33TEST
000474:
000475: 06,2360           02746                           TC       CAGESUB2                              #  SET TURNON FLAGS.
000476:
000477: 06,2361           04665        ISSZERO            TC       IBNKCALL                              #  TURN OFF NO ATT LAMP
000478: 06,2362           17253                           CADR     NOATTOFF                              #      IMU CAGE OFF ENTRY
000479:
000480: 06,2363           34740                           CAF      BIT5                                  #  ISS CDU ZERO
000481: 06,2364           00006                           EXTEND
000482: 06,2365           05012                           WOR      CHAN12
000483:
000484: 06,2366           05461                           TC       ZEROICDU
000485: 06,2367           34737                           CAF      BIT6                                  #  WAIT 300 MS FOR AGS TO RECEIVE SIGNAL.
000486: 06,2370           05205                           TC       WAITLIST
000487: 06,2371  E6,1414                                  EBANK=   M11
000488: 06,2371           02313 14106                     2CADR    UNZ2
000489:
000490: 06,2373           12374                           TCF      C33TEST
000491:


000493:                                                                                                  #  PROGRAM NAME:  C33TEST
000494:
000495:                                                                                                  #  FUNCTIONAL DESCRIPTION:  THIS PROGRAM MONITORS THREE FLIP-FLOP INBITS OF CHANNEL 33 AND CALLS THE APPROPRIATE
000496:                                                                                                  #  SUBROUTINE TO PROCESS A CHANGE.  IT IS ANALOGOUS TO IMUMON, WHICH MONITORS CHANNEL 30, EXCEPT THAT IT READS
000497:                                                                                                  #  CHANNEL 33 WITH A WAND INSTRUCTION BECAUSE A 'WRITE' PULSE IS REQUIRED TO RESET THE FLIP-FLOPS.  THE BITS
000498:                                                                                                  #  PROCESSED AND THE SUBROUTINES CALLED ARE:
000499:
000500:                                                                                                  #           BIT    FUNCTION                SUBROUTINE
000501:                                                                                                  #           ---    --------                ----------
000502:                                                                                                  #            13    PIPA FAIL               PIPFAIL
000503:                                                                                                  #            12    DOWNLINK TOO FAST       DNTMFAST
000504:                                                                                                  #            11    UPLINK TOO FAST         UPTMFAST
000505:
000506:                                                                                                  #  UPON ENTRY TO THE SUBROUTINE, THE NEW BIT STATE IS IN A.
000507:
000508:                                                                                                  #  CALLING SEQUENCE:  EVERY 480 MILLISECONDS AFTER TNONTEST.
000509:
000510:                                                                                                  #  JOBS OR TASKS INITIATED:  NONE.
000511:
000512:                                                                                                  #  SUBROUTINES CALLED:  PIPFAIL, DNTMFAST AND UPTMFAST ON BIT CHANGES.
000513:
000514:                                                                                                  #  ERASABLE INITIALIZATION:  C(IMODES33) = OCT 16000 ON A FRESH START OR RESTART, THEREFORE, THESE ALARMS WILL
000515:                                                                                                  #  REAPPEAR IF THE CONDITIONS PERSIST.
000516:
000517:                                                                                                  #  ALARMS:  NONE.
000518:
000519:                                                                                                  #  EXIT:  GLOCKMON.
000520:
000521:                                                                                                  #  OUTPUT:  UPDATED BITS 13, 12, AND 11 OF IMODES33 WITH CHANGES PROCESSED.
000522:
000523: 06,2374           31300        C33TEST            CA       IMODES33                              #  SEE IF RELEVANT CHAN33 BITS HAVE
000524: 06,2375           75017                           MASK     33RDMSK
000525: 06,2376           54001                           TS       L                                     #  CHANGED.
000526: 06,2377           35017                           CAF      33RDMSK
000527: 06,2400           00006                           EXTEND
000528: 06,2401           03033                           WAND     CHAN33                                #  RESETS FLIP-FLOP INPUTS
000529: 06,2402           00006                           EXTEND
000530: 06,2403           06001                           RXOR     LCHAN
000531: 06,2404           00006                           EXTEND
000532: 06,2405           12434                           BZF      GLOCKMON                              #  ON NO CHANGE.
000533:
000534: 06,2406           54070                           TS       RUPTREG1                              #  SAVE BITS WHICH HAVE CHANGED.
000535: 06,2407           23300                           LXCH     IMODES33
000536: 06,2410           00006                           EXTEND
000537: 06,2411           06001                           RXOR     LCHAN
000538: 06,2412           55300                           TS       IMODES33                              #  UPDATED IMODES33.
000539:
000540: 06,2413           34746                           CAF      ZERO
000541: 06,2414           56070                           XCH      RUPTREG1
000542: 06,2415           60000                           DOUBLE
000543:


000545: 06,2416           12421                           TCF      NXTIBT     +1                         #  SCAN FOR BIT CHANGES.
000546:
000547: 06,2417           64744                 -1        AD       ONE
000548: 06,2420           24070        NXTIBT             INCR     RUPTREG1
000549: 06,2421           60000                 +1        DOUBLE
000550: 06,2422           54000                           TS       A                                     #  (CODING IDENTICAL TO CHAN 30).
000551: 06,2423           12420                           TCF      NXTIBT
000552:
000553: 06,2424           56071                           XCH      RUPTREG2
000554: 06,2425           50070                           INDEX    RUPTREG1                              #  GET NEW VALUE OF BIT WHICH CHANGED.
000555: 06,2426           34730                           CAF      BIT13
000556: 06,2427           71300                           MASK     IMODES33
000557: 06,2430           50070                           INDEX    RUPTREG1
000558: 06,2431           02763                           TC       C33JMP
000559: 06,2432           10071        NXTFL33            CCS      RUPTREG2                              #  PROCESS POSSIBLE ADDITIONAL CHANGES.
000560: 06,2433           12417                           TCF      NXTIBT     -1
000561:


000563:                                                                                                  #  PROGRAM NAME:  GLOCKMON
000564:
000565:                                                                                                  #  FUNCTIONAL DESCRIPTION:  THIS PROGRAM MONITORS THE CDUZ COUNTER TO DETERMINE WHETHER THE ISS IS IN GIMBAL LOCK
000566:                                                                                                  #  AND TAKES ACTION IF IT IS.  THREE REGIONS OF MIDDLE GIMBAL ANGLE (MGA) ARE USED:
000567:
000568:                                                                                                  #           1) ABS(MGA) LESS THAN OR EQUAL TO 70 DEGREES - NORMAL MODE.
000569:                                                                                                  #           2) ABS(MGA) GREATER THAN 70 DEGREES AND LESS THAN OR EQUAL TO 85 DEGREES - GIMBAL LOCK LAMP TURNED ON.
000570:                                                                                                  #           3) ABS(MGA) GREATER THAN 85 DEGREES - ISS PUT IN COARSE ALIGN AND NO ATT LAMP TURNED ON.
000571:
000572:                                                                                                  #  CALLING SEQUENCE:  EVERY 480 MILLISECONDS AFTER C33TEST.
000573:
000574:                                                                                                  #  JOBS OR TASKS INITIATED:  NONE.
000575:
000576:                                                                                                  #  SUBROUTINES CALLED:  1) SETCOARS WHEN ABS(MGA) GREATER THEN 85 DEGREES AND ISS NOT IN COARSE ALIGN.
000577:                                                                                                  #                       2) LAMPTEST BEFORE TURNING OFF GIMBAL LOCK LAMP.
000578:
000579:                                                                                                  #  ERASABLE INITIALIZATION:
000580:                                                                                                  #           1) FRESH START OR RESTART WITH NO GROUPS ACTIVE:  C(CDUZ) = 0, IMODES30 BIT 6 = 0, IMODES33 BIT 1 = 0.
000581:                                                                                                  #           2) RESTART WTIH GROUPS ACTIVE:  SAME AS FRESH START EXCEPT C(CDUZ) NOT CHANGED SO GIMBAL MONITOR
000582:                                                                                                  #                                           PROCEEDS AS BEFORE.
000583:
000584:                                                                                                  #  ALARMS:  1) MGA REGION (2) CAUSES GIMBAL LOCK LAMP TO BE LIT.
000585:                                                                                                  #           2) MGA REGION (3) CAUSES THE ISS TO BE PUT IN COARSE ALIGN AND THE NO ATT LAMP TO BE LIT IF EITHER NOT
000586:                                                                                                  #              SO ALREADY.
000587:
000588: 06,2434           10034        GLOCKMON           CCS      CDUZ
000589: 06,2435           12441                           TCF      GLOCKCHK                              #  SEE IF MAGNITUDE OF MGA IS GREATER THAN
000590: 06,2436           12465                           TCF      SETGLOCK                              #  70 DEGREES.
000591: 06,2437           12441                           TCF      GLOCKCHK
000592: 06,2440           12465                           TCF      SETGLOCK
000593:
000594: 06,2441           62512        GLOCKCHK           AD       -70DEGS
000595: 06,2442           00006                           EXTEND
000596: 06,2443           62464                           BZMF     SETGLOCK   -1                         #  NO LOCK.
000597:
000598: 06,2444           62513                           AD       -15DEGS                               #  SEE IF ABS(MGA) GREATER THAN 85 DEGREES.
000599: 06,2445           00006                           EXTEND
000600: 06,2446           62462                           BZMF     NOGIMRUN
000601:
000602: 06,2447           34741                           CAF      BIT4                                  #  IF SO, SYSTEM SHOULD BE IN COARSE ALIGN
000603: 06,2450           00006                           EXTEND                                         #  TO PREVENT GIMBAL RUNAWAY.
000604: 06,2451           02012                           RAND     CHAN12
000605: 06,2452           10000                           CCS      A
000606: 06,2453           12462                           TCF      NOGIMRUN
000607:
000608: 06,2454           04665                           TC       IBNKCALL
000609: 06,2455           17131                           CADR     SETCOARS
000610:
000611: 06,2456           36263                           CAF      SIX                                   #  ENABLE ISS ERROR COUNTERS IN 60 MS
000612: 06,2457           05205                           TC       WAITLIST
000613:


000615: 06,2460  E3,1474                                  EBANK=   CDUIND
000616: 06,2460           03125 16103                     2CADR    CA+ECE
000617:
000618: 06,2462           34737        NOGIMRUN           CAF      BIT6                                  #  TURN ON GIMBAL LOCK LAMP.
000619: 06,2463           12465                           TCF      SETGLOCK
000620:
000621: 06,2464           34746                 -1        CAF      ZERO
000622: 06,2465           61035        SETGLOCK           AD       DSPTAB     +11D                       #  SEE IF PRESENT STATE OF GIMBAL LOCK LAMP
000623: 06,2466           74737                           MASK     BIT6                                  #  AGREES WITH DESIRED STATE BY HALF ADDING
000624: 06,2467           00006                           EXTEND                                         #  THE TWO.
000625: 06,2470           13006                           BZF      GLOCKOK                               #  OK AS IS.
000626:
000627: 06,2471           71035                           MASK     DSPTAB     +11D                       #  IF OFF, DONT TURN ON IF IMU BEING CAGED.
000628: 06,2472           10000                           CCS      A
000629: 06,2473           12507                           TCF      GLAMPTST                              #  TURN OFF UNLESS LAMP TEST IN PROGRESS.
000630:
000631: 06,2474           34737                           CAF      BIT6
000632: 06,2475           71277                           MASK     IMODES30
000633: 06,2476           10000                           CCS      A
000634: 06,2477           13006                           TCF      GLOCKOK
000635:
000636: 06,2500           41035        GLINVERT           CS       DSPTAB     +11D                       #  INVERT GIMBAL LOCK LAMP.
000637: 06,2501           74737                           MASK     BIT6
000638: 06,2502           64726                           AD       BIT15                                 #  TO INDICATE CHANGE IN DSPTAB +11D.
000639: 06,2503           57035                           XCH      DSPTAB     +11D
000640: 06,2504           72162                           MASK     OCT37737
000641: 06,2505           27035                           ADS      DSPTAB     +11D
000642: 06,2506           13006                           TCF      GLOCKOK
000643:
000644: 06,2507           02766        GLAMPTST           TC       LAMPTEST                              #  TURN OFF UNLESS LAMP TEST IN PROGRESS.
000645: 06,2510           13006                           TCF      GLOCKOK
000646: 06,2511           12500                           TCF      GLINVERT
000647:
000648: 06,2512           63434        -70DEGS            DEC      -.38888                               #  -70 DEGREES SCALED IN HALF-REVOLUTIONS.
000649: 06,2513           75252        -15DEGS            DEC      -.08333
000650:


000652:                                                                                                  #  PROGRAM NAME:  TLIM.
000653:
000654:                                                                                                  #  FUNCTIONAL DESCRIPTION:  THIS PROGRAM MAINTAINS THE TEMP LAMP (BIT 4 OF CHANNEL 11) ON THE DSKY TO AGREE WITH
000655:                                                                                                  #  THE TEMP SIGNAL FROM THE ISS (BIT 15 OF CHANNEL 30).  HOWEVER, THE LIGHT WILL NOT BE TURNED OFF IF A LAMP TEST
000656:                                                                                                  #  IS IN PROGRESS.
000657:
000658:                                                                                                  #  CALLING SEQUENCE:  CALLED BY IMUMON ON A CHANGE OF BIT 15 OF CHANNEL 30.
000659:
000660:                                                                                                  #  JOBS OR TASKS INITIATED:  NONE.
000661:
000662:                                                                                                  #  SUBROUTINES CALLED:  LAMPTEST.
000663:
000664:                                                                                                  #  ERASABLE INITIALIZATION:  FRESH START AND RESTART TURN THE TEMP LAMP OFF.
000665:
000666:                                                                                                  #  ALARMS:  TEMP LAMP TURNED ON WHEN THE IMU TEMP GOES OUT OF LIMITS.
000667:
000668:                                                                                                  #  EXIT:  NXTIFAIL.
000669:
000670:                                                                                                  #  OUTPUT:  SERVICE OF TEMP LAMP.                  IN A, EXCEPT FOR TLIM.
000671:
000672: 06,2514           74724        TLIM               MASK     POSMAX                                #  REMOVE BIT FROM WORD OF CHANGES AND SET
000673: 06,2515           54071                           TS       RUPTREG2                              #  DSKY TEMP LAMP ACCORDINGLY.
000674:
000675: 06,2516           11277                           CCS      IMODES30
000676: 06,2517           12525                           TCF      TEMPOK
000677: 06,2520           12525                           TCF      TEMPOK
000678:
000679: 06,2521           34741                           CAF      BIT4                                  #  TURN ON LAMP.
000680: 06,2522           00006                           EXTEND
000681: 06,2523           05011                           WOR      DSALMOUT
000682: 06,2524           12225                           TCF      NXTIFAIL
000683:
000684: 06,2525           02766        TEMPOK             TC       LAMPTEST                              #  IF TEMP NOW OK, DONT TURN OFF LAMP IF
000685: 06,2526           12225                           TCF      NXTIFAIL                              #  LAMP TEST IN PROGRESS.
000686:
000687: 06,2527           44741                           CS       BIT4
000688: 06,2530           00006                           EXTEND
000689: 06,2531           03011                           WAND     DSALMOUT                              #  TURN OFF LAMP
000690: 06,2532           12225                           TCF      NXTIFAIL
000691:


000693:                                                                                                  #  PROGRAM NAME:  ITURNON.
000694:
000695:                                                                                                  #  FUNCTIONAL DESCRIPTION:  THIS PROGRAM IS CALLED BY IMUMON WHEN A CHANGE OF BIT 14 OF CHANNEL 30 (ISS TURN-ON
000696:                                                                                                  #  REQUEST) IS DETECTED.  UPON ENTRY, ITURNON CHECKS IF A TURN-ON DELAY SEQUENCE HAS FAILED, AND IF SO, IT EXITS.
000697:                                                                                                  #  IF NOT, IT CHECKS WHETHER THE TURN-ON REQUEST CHANGE IS TO ON OR OFF.  IF ON, IT SETS BIT 7 OF IMODES30 TO 1 SO
000698:                                                                                                  #  THAT TNONTEST WILL INITIATE THE ISS INITIALIZATION SEQUENCE.  IF OFF, THE TURN-ON DELAY SIGNAL, CHANNEL 12 BIT
000699:                                                                                                  #  15, IS CHECKED AND IF IT IS ON, ITURNON EXITS.  IF THE DEALY SIGNAL IS OFF, PROGRAM ALARM 00207 IS ISSUED, BIT 2
000700:                                                                                                  #  OF IMODES30 IS SET TO 1 AND THE PROGRAM EXITS.
000701:                                                                                                  #           THE SETTING OF BIT 2 OF IMODES30 (ISS DELAY SEQUENCE FAIL) INHIBITS THIS ROUTINE AND IMUOP FROM
000702:                                                                                                  #  PROCESSING ANY CHANGES.  THIS BIT WILL BE RESET BY THE ENDTNON ROUTINE WHEN THE CURRENT 90 SECOND DELAY PERIOD
000703:                                                                                                  #  ENDS.
000704:
000705:                                                                                                  #  CALLING SEQUENCE:  FROM IMUMON WHEN ISS TURN-ON REQUEST CHANGES STATE.
000706:
000707:                                                                                                  #  JOBS OR TASKS INITITIATED:  NONE.
000708:
000709:                                                                                                  #  SUBROUTINES CALLED:  ALARM, IF THE ISS TURN-ON REQUEST IS NOT PRESENT FOR 90 SECONDS.
000710:
000711:                                                                                                  #  ERASABLE INITIALIZATION:  FRESH START AND RESTART SET BIT 15 OF CHANNEL 12 AND BITS 2 AND 7 OF IMODES30 TO 0,
000712:                                                                                                  #  AND BIT 14 OF IMODES30 TO 1.
000713:
000714:                                                                                                  #  ALARMS:  PROGRAM ALARM 00207 IS ISSUED IF THE ISS TURN-ON REQUEST SIGNAL IS NOT PRESENT FOR 90 SECONDS.
000715:
000716:                                                                                                  #  EXIT:  NXTIFAIL.
000717:
000718:                                                                                                  #  OUTPUT:  BIT 7 OF IMODES30 TO START ISS INITIALIZATION, OR BIT 2 OF IMODES30 AND PROGRAM ALARM 00207 TO INDICATE
000719:                                                                                                  #  A FAILED TURN-ON SEQUENCE.
000720:
000721: 06,2533           34743        ITURNON            CAF      BIT2                                  #  IF DELAY REQUEST HAS GONE OFF
000722: 06,2534           71277                           MASK     IMODES30                              #  PREMATURELY, DO NOT PROCESS ANY CHANGES
000723: 06,2535           10000                           CCS      A                                     #  UNTIL THE CURRENT 90 SEC WAIT EXPIRES.
000724: 06,2536           12225                           TCF      NXTIFAIL
000725:
000726: 06,2537           34727                           CAF      BIT14                                 #  SEE IF JUST ON OR OFF.
000727: 06,2540           71277                           MASK     IMODES30
000728: 06,2541           00006                           EXTEND
000729: 06,2542           12556                           BZF      ITURNON2                              #  IF JUST ON.
000730:
000731: 06,2543           34726                           CAF      BIT15
000732: 06,2544           00006                           EXTEND                                         #  SEE IF DELAY PRESENT DISCRETE HAS BEEN
000733: 06,2545           02012                           RAND     CHAN12                                #  SENT. IF SO, ACTION COMPLETE
000734: 06,2546           00006                           EXTEND
000735: 06,2547           12551                           BZF      +2
000736: 06,2550           12225                           TCF      NXTIFAIL
000737:
000738: 06,2551           34743                           CAF      BIT2                                  #  IF NOT, SET BIT TO INDICATE REQUEST NOT
000739: 06,2552           27277                           ADS      IMODES30                              #  PRESENT FOR FULL DURATION.
000740: 06,2553           05571                           TC       ALARM
000741: 06,2554           00207                           OCT      207
000742: 06,2555           12225                           TCF      NXTIFAIL
000743:


000745: 06,2556           41277        ITURNON2           CS       IMODES30                              #  SET BIT7 TO INDICATE WAIT OF 1 SAMPLE
000746: 06,2557           74736                           MASK     BIT7
000747: 06,2560           27277                           ADS      IMODES30
000748: 06,2561           32564                           CAF      RRINIT
000749: 06,2562           54110                           TS       RADMODES
000750: 06,2563           12225                           TCF      NXTIFAIL
000751:
000752: 06,2564           00102        RRINIT             OCT      00102
000753:


000755:                                                                                                  #  PROGRAM NAME:  IMUCAGE.
000756:
000757:                                                                                                  #  FUNCTIONAL DESCRIPTION:  THIS PROGRAM PROCESSES CHANGES OF THE IMUCAGE INBIT, CHANNEL 30 BIT 11.  IF THE BIT
000758:                                                                                                  #  CHANGES TO 0 (CAGE BUTTON PRESSED), THE ISS IS CAGED (ICDU ZERO + COARSE ALIGN + NO ATT LAMP) UNTIL THE
000759:                                                                                                  #  ASTRONAUT SELECTS ANOTHER PROGRAM TO ALIGN THE ISS.  ANY PULSE TRAINS TO THE ICDU'S AND GYRO'S ARE TERMINATED,
000760:                                                                                                  #  THE ASSOCIATED OUTCOUNTERS ARE ZEROED AND THE GYRO'S ARE DE-SELECTED.  NO ACTION OCCURS WHEN THE BUTTON IS
000761:                                                                                                  #  RELEASED (INBIT CHANGES TO 1).
000762:
000763:                                                                                                  #  CALLING SEQUENCE:  BY IMUMON WHEN IMU CAGE BIT CHANGES.
000764:
000765:                                                                                                  #  JOBS OR TASKS INITIATED:  NONE.
000766:
000767:                                                                                                  #  SUBROUTINES CALLED:  CAGESUB.
000768:
000769:                                                                                                  #  ERASABLE INITIALZATION:    FRESH START AND RESTART SET BIT 11 OF IMODES30 TO 1.
000770:
000771:                                                                                                  #  ALARMS:  NONE.
000772:
000773:                                                                                                  #  EXIT:  NXTIFAIL.
000774:
000775:                                                                                                  #  OUTPUT:  ISS CAGED, COUNTERS ZEROED, PULSE TRAINS TERMINATED AND NO ATT LAMP LIT.
000776:
000777: 06,2565           10000        IMUCAGE            CCS      A                                     #  NO ACTION OF GOING OFF.
000778: 06,2566           12361                           TCF      ISSZERO
000779: 06,2567           43002                           CS       OCT77000                              #  TERMINATE ICDU,RCDU, GYRO PULSE TRAINS
000780: 06,2570           00006                           EXTEND
000781: 06,2571           03014                           WAND     CHAN14
000782:
000783: 06,2572           42776                           CS       OCT272                                #  KNOCK DOWN DISPLAY INERTIAL DATA, IMU
000784: 06,2573           00006                           EXTEND                                         #  ERROR COUNTER ENABLE, ZERO ICDU, COARSE
000785: 06,2574           03012                           WAND     CHAN12                                #  ALIGN ENABLE, RR ERROR COUNTER ENABLE.
000786:
000787: 06,2575           44736                           CS       ENGONBIT                              #  INSURE ENGONFLG IS CLEAR.
000788: 06,2576           70101                           MASK     FLAGWRD5
000789: 06,2577           54101                           TS       FLAGWRD5
000790: 06,2600           44346                           CS       PRIO30                                #  TURN ENGINE OFF.
000791: 06,2601           00006                           EXTEND
000792: 06,2602           02011                           RAND     DSALMOUT
000793: 06,2603           64727                           AD       BIT14
000794: 06,2604           00006                           EXTEND
000795: 06,2605           01011                           WRITE    DSALMOUT                              #  FORCE BIT14=1, BIT13=0.
000796:
000797: 06,2606           02743                           TC       CAGESUB1
000798:
000799: 06,2607           04665                           TC       IBNKCALL                              #  KNOCK DOWN TRACK, REFSMMAT, DRIFT FLAGS
000800: 06,2610           17162                           CADR     RNDREFDR
000801:
000802: 06,2611           44746                           CS       ZERO
000803: 06,2612           54050                           TS       CDUXCMD
000804: 06,2613           54051                           TS       CDUYCMD


000806: 06,2614           54052                           TS       CDUZCMD
000807: 06,2615           54047                           TS       GYROCMD
000808:
000809: 06,2616           43001                           CS       OCT740                                #  HAVING WAITED AT LEAST 27 MCT FROM
000810: 06,2617           00006                           EXTEND                                         #  GYRO PULSE TRAIN TERMINATION, WE CAN
000811: 06,2620           03014                           WAND     CHAN14                                #  D-SELECT THE GYROS
000812: 06,2621           12225                           TCF      NXTIFAIL
000813:


000815:                                                                                                  #  PROGRAM NAME:  IMUOP.
000816:
000817:                                                                                                  #  FUNCTIONAL DESCRIPTION:  THIS PROGRAM PROCESSES CHANGES IN THE ISS OPERATE DISCRETE, BIT 9 OF CHANNEL 30.
000818:                                                                                                  #  IF THE INBIT CHANGES TO 0, INDICATING ISS ON, IMUOP GENERALLY SETS BIT 7 OF IMODES30 TO 1 TO REQUEST ISS
000819:                                                                                                  #  INITIALIZATION VIA TNONTEST.  AN EXCEPTION IS DURING A FAILED ISS DELAY DURING WHICH BIT 2 OF IMODES30 IS SET
000820:                                                                                                  #  TO 1 AND NO FURTHER INITIALIZATION IS REQUIRED.  WHEN THE INBIT CHANGES TO 1, INDICATING ISS OFF, IMUSEFLG IS
000821:                                                                                                  #  TESTED TO SEE IF ANY PROGRAM WAS USING THE ISS.  IF SO, PROGRAM ALARM 00214 IS ISSUED.
000822:
000823:                                                                                                  #  CALLING SEQUENCE:  BY IMUMON WHEN BIT 9 OF CHANNEL 30 CHANGES.
000824:
000825:                                                                                                  #  JOBS OR TASKS INITIATED:  NONE.
000826:
000827:                                                                                                  #  SUBROUTINES CALLED:  ALARM, IF ISS IS TURNED OFF WHILE IN USE.
000828:
000829:                                                                                                  #  ERASABLE INITIALIZATION:  ON FRESH START AND RESTART, BIT 9 OF IMODES30 IS SET TO 1 EXCEPT WHEN THE GIMBAL LOCK
000830:                                                                                                  #  LAMP IS ON, IN WHICH CASE IT IS SET TO 0.  THIS PREVENTS ICDU ZERO BY TNONTEST WITH THE ISS IN GIMBAL LOCK.
000831:
000832:                                                                                                  #  ALARMS:  PROGRAM ALARM 00214 IF THE ISS IS TURNED OFF WHILE IN USE.
000833:
000834:                                                                                                  #  EXIT:  NXTIFAIL.
000835:
000836:                                                                                                  #  OUTPUT:  ISS INITIALIZATION REQUEST (IMODES30 BIT 7) OR PROGRAM ALARM 00214.
000837:
000838: 06,2622           00006        IMUOP              EXTEND
000839: 06,2623           12643                           BZF      IMUOP2
000840:
000841: 06,2624           41300                           CS       IMODES33                              #  DISABLE DAP
000842: 06,2625           74737                           MASK     BIT6
000843: 06,2626           27300                           ADS      IMODES33
000844:
000845: 06,2627           04665                           TC       IBNKCALL                              #  KNOCK DOWN TRACK, REFSMMAT, DRIFT FLAGS
000846: 06,2630           17162                           CADR     RNDREFDR
000847:
000848: 06,2631           42777                           CS       BITS7&8                               #  KNOCK DOWN RENDEZVOUS, IMUUSE FLAGS
000849: 06,2632           70074                           MASK     FLAGWRD0
000850: 06,2633           56074                           XCH      FLAGWRD0                              #  IF GOING OFF, ALARM IF PROG USING IMU.
000851: 06,2634           40000                           COM
000852: 06,2635           74735                           MASK     IMUSEFLG
000853: 06,2636           10000                           CCS      A
000854: 06,2637           12225                           TCF      NXTIFAIL
000855:
000856: 06,2640           05571                           TC       ALARM
000857: 06,2641           00214                           OCT      214
000858: 06,2642           12225                           TCF      NXTIFAIL
000859:
000860: 06,2643           34743        IMUOP2             CAF      BIT2                                  #  SEE IF FAILED ISS TURN-ON SEQ IN PROG.
000861: 06,2644           71277                           MASK     IMODES30
000862: 06,2645           10000                           CCS      A
000863: 06,2646           12225                           TCF      NXTIFAIL                              #  IF SO, DON'T PROCESS UNTIL PRESENT 90
000864: 06,2647           12556                           TCF      ITURNON2                              #  SECONDS EXPIRES.
000865:


000867:                                                                                                  #  PROGRAM NAME:  PIPFAIL
000868:
000869:                                                                                                  #  FUNCITONAL DESCRIPTION:  THIS PROGRAM PROCESSES CHANGES OF BIT 13 OF CHANNEL 33, PIPA FAIL.  IT SETS BIT 10 OF
000870:                                                                                                  #  IMODES30 TO AGREE.  IT CALLS SETISSW IN CASE A PIPA FAIL NECESSITATES AN ISS WARNING.  IF NOT,I.E., IMODES30
000871:                                                                                                  #  BIT 1 = 1, AND A PIPA FAIL IS PRESENT AND THE ISS IS NOT BEING INITIALIZED, PROGRAM ALARM 00212 IS ISSUED.
000872:
000873:                                                                                                  #  CALLING SEQUENCE:  BY C33TEST ON CHANGES OF CHANNEL 33 BIT 13.
000874:
000875:                                                                                                  #  JOBS OR TASKS INITIATED:  NONE.
000876:
000877:                                                                                                  #  SUBROUTINES CALLED:  1) SETISSW, AND 2) ALARM (SEE FUNCITONAL DESCRIPTION).
000878:
000879:                                                                                                  #  ERASABLE INITIALIZATION:  SEE IMUMON FOR INITIALIZATION OF IMODES30.  THE RELEVANT BITS ARE 5, 7, 8, 9, AND 10.
000880:
000881:                                                                                                  #  ALARMS:  PROGRAM ALARM 00212 IF PIPA FAIL IS PRESENT BUT NEITHER ISS WARNING IS TO BE ISSUED NOR THE ISS IS
000882:                                                                                                  #  BEING INITIALIZED.
000883:
000884:                                                                                                  #  EXIT:  NXTFL33.
000885:
000886:                                                                                                  #  OUTPUT:  PROGRAM ALARM 00212 AND ISS WARNING MAINTENANCE.
000887:
000888: 06,2650           10000        PIPFAIL            CCS      A                                     #  SET BIT10 IN IMODES30 SO ALL ISS WARNING
000889: 06,2651           34733                           CAF      BIT10                                 #  INFO IS IN ONE REGISTER.
000890: 06,2652           57277                           XCH      IMODES30
000891: 06,2653           73004                           MASK     -BIT10
000892: 06,2654           27277                           ADS      IMODES30
000893:
000894: 06,2655           02703                           TC       SETISSW
000895:
000896: 06,2656           41277                           CS       IMODES30                              #  IF PIP FAIL DOESNT LIGHT ISS WARNING, DO
000897: 06,2657           74744                           MASK     BIT1                                  #  A PROGRAM ALARM IF IMU OPERATING BUT NOT
000898: 06,2660           10000                           CCS      A                                     #  CAGED OR BEING TURNED ON.
000899: 06,2661           12432                           TCF      NXTFL33
000900:
000901: 06,2662           31277                           CA       IMODES30
000902: 06,2663           73000                           MASK     OCT1720
000903: 06,2664           10000                           CCS      A
000904: 06,2665           12432                           TCF      NXTFL33                               #  ABOVE CONDITION NOT MET.
000905:
000906: 06,2666           05571                           TC       ALARM
000907: 06,2667           00212                           OCT      212
000908: 06,2670           12432                           TCF      NXTFL33
000909:


000911:                                                                                                  #  PROGRAM NAMES:  DNTMFAST, UPTMFAST
000912:
000913:                                                                                                  #  FUNCTIONAL DESCRIPTION:  THESE PROGRAMS PROCESS CHANGES OF BITS 12 AND 11 OF CHANNEL 33.  IF A BIT CHANGES TO A
000914:                                                                                                  #  0, A PROGRAM ALARM IS ISSUED.  THE ALARMS ARE:
000915:
000916:                                                                                                  #           BIT    ALARM           CAUSE
000917:                                                                                                  #           ---    -----           -----
000918:                                                                                                  #            12    01105           DOWNLINK TOO FAST
000919:                                                                                                  #            11    01106           UPLINK TOO FAST
000920:
000921:                                                                                                  #  CALLING SEQUENCE:  BY C33TEST ON A BIT CHANGE.
000922:
000923:                                                                                                  #  SUBROUTINES CALLED:  ALARM, IF A BIT CHANGES TO A 0.
000924:
000925:                                                                                                  #  ERASABLE INITIALIZATION:  FRESH START OR RESTART, BITS 12 AND 11 OF IMODES33 ARE SET TO 1.
000926:
000927:                                                                                                  #  ALARMS:  SET FUNCTGIONAL DESCRIPTION.
000928:
000929:                                                                                                  #  EXIT:  NXTFL33.
000930:
000931:                                                                                                  #  OUTPUT:  PROGRAM ALARM ON A BIT CHANGE TO 0.
000932:
000933: 06,2671           10000        DNTMFAST           CCS      A                                     #  DO PROG ALARM IF TM TOO FAST.
000934: 06,2672           12432                           TCF      NXTFL33
000935:
000936: 06,2673           05571                           TC       ALARM
000937: 06,2674           01105                           OCT      1105
000938: 06,2675           12432                           TCF      NXTFL33
000939:
000940: 06,2676           10000        UPTMFAST           CCS      A                                     #  SAME AS DNLINK TOO FAST WITH DIFFERENT
000941: 06,2677           12432                           TCF      NXTFL33                               #  ALARM CODE.
000942:
000943: 06,2700           05571                           TC       ALARM
000944: 06,2701           01106                           OCT      1106
000945: 06,2702           12432                           TCF      NXTFL33
000946:


000948:                                                                                                  #  PROGRAM NAME:  SETISSW
000949:
000950:                                                                                                  #  FUNCTIONAL DESCRIPTION:  THIS PROGRAM TURNS THE ISS WARNING LAMP ON AND OFF (CHANNEL 11 BIT 1 = 1 FOR ON,
000951:                                                                                                  #  0 FOR OFF) DEPENDING ON THE STATUS OF IMODES30 BITS 13 (IMU FAIL) AND 4 (INHIBIT IMU FAIL), 12 (ICDU FAIL) AND
000952:                                                                                                  #  3 (INHIBIT ICDU FAIL), AND 10 (PIPA FAIL) AND 1 (INHIBIT PIPA FAIL).  THE LAMP IS LEFT ON IF A LAMP TEST IS IN
000953:                                                                                                  #  PROGRESS.
000954:
000955:                                                                                                  #  CALLING SEQUENCE:  CALLED BY IMUMON ON CHANGES TO IMU FAIL AND ICDU FAIL.  CALLED BY IFAILOK AND PFAILOK UPON
000956:                                                                                                  #  REMOVAL OF THE FAIL INHIBITS.  CALLED BY PIPFAIL WHEN THE PIPA FAIL DISCRETE CHANGES.  IT IS CALLED BY PIPUSE
000957:                                                                                                  #  SINCE THE PIPA FAIL PROGRAM ALARM MAY NECESSITATE AN ISS WARNING, AND LIKEWISE BY PIPFREE WHEN THE ALARM DEPARTS
000958:                                                                                                  #  AND IT IS CALLED BY IMUZERO3 AND ISSUP AFTER THE FAIL INHIBITS HAVE BEEN REMOVED.
000959:
000960:                                                                                                  #  JOBS OR TASKS INITIATED:  NONE.
000961:
000962:                                                                                                  #  SUBROUTINES CALLED:  NONE.
000963:
000964:                                                                                                  #  ERASABLE INITIALIZATION:
000965:
000966:                                                                                                  #           1) IMODES30 - SEE IMUMON.
000967:                                                                                                  #           2) IMODES33 BIT 1 = 0 (LAMP TEST NOT IN PROGRESS).
000968:
000969:                                                                                                  #  ALARMS:  ISS WARNING.
000970:
000971:                                                                                                  #  THE FOLLOWING PROGRAM ALARMS WILL SHOW WHICH FAILURE CAUSED THE ISS WARN
000972:                                                                                                  #  PROGRAM ALARM 00777  PIPA FAIL
000973:                                                                                                  #  PROGRAM ALARM 03777  ICDU FAIL
000974:                                                                                                  #  PROGRAM ALARM 04777  ICDU , PIPA FAILS
000975:                                                                                                  #  PROGRAM ALARM 07777  IMU FAIL
000976:                                                                                                  #  PROGRAM ALARM 10777  IMU , PIPA FAILS
000977:                                                                                                  #  PROGRAM ALARM 13777  IMU , ICDU FAILS
000978:                                                                                                  #  PROGRAM ALARM 14777  IMU , ICDU, PIPA FAILS
000979:
000980:                                                                                                  #  EXIT: VIA Q.
000981:
000982:                                                                                                  #  OUTPUT: ISS WARNING LAMP SET PROPERLY.
000983:
000984: 06,2703           34752        SETISSW            CAF      OCT15                                 #  SET ISS WARNING USING THE FAIL BITS IN
000985: 06,2704           71277                           MASK     IMODES30                              #  BITS 13, 12, AND 10 OF IMODES30 AND THE
000986: 06,2705           00006                           EXTEND                                         #  FAILURE INHIBIT BITS IN POSITIONS
000987: 06,2706           74733                           MP       BIT10                                 #  4, 3, AND 1.
000988: 06,2707           31277                           CA       IMODES30
000989: 06,2710           00006                           EXTEND
000990: 06,2711           04001                           ROR      LCHAN                                 #  0 INDICATES FAILURE
000991: 06,2712           40000                           COM
000992: 06,2713           75016                           MASK     OCT15000
000993: 06,2714           10000                           CCS      A
000994: 06,2715           12726                           TCF      ISSWON                                #  FAILURE.
000995:
000996: 06,2716           34744        ISSWOFF            CAF      BIT1                                  #  DONT TURN OFF ISS WARNING IF LAMP TEST
000997: 06,2717           71300                           MASK     IMODES33                              #  IN PROGRESS.
000998:


001000: 06,2720           10000                           CCS      A
001001: 06,2721           00002                           TC       Q
001002:
001003: 06,2722           44744                           CS       BIT1
001004: 06,2723           00006                           EXTEND
001005: 06,2724           03011                           WAND     DSALMOUT
001006: 06,2725           00002                           TC       Q
001007:
001008: 06,2726           00006        ISSWON             EXTEND
001009: 06,2727           22066                           QXCH     ITEMP6
001010: 06,2730           05740                           TC       VARALARM                              #  TELL EVERYONE WHAT CAUSED THE ISSWARNING
001011: 06,2731           34744                           CAF      BIT1
001012: 06,2732           00006                           EXTEND
001013: 06,2733           05011                           WOR      DSALMOUT
001014: 06,2734           00066                           TC       ITEMP6
001015:
001016: 06,2735           43003        CAGESUB            CS       BITS6&15                              #  SET OUTBITS AND INTERNAL FLAGS FOR
001017: 06,2736           00006                           EXTEND                                         #  SYSTEM TURN-ON OR CAGE. DISABLE THE
001018: 06,2737           03012                           WAND     CHAN12                                #  ERROR COUNTER AND REMOVE IMU DELAY COMP.
001019: 06,2740           34754                           CAF      BITS4&5                               #  SEND ZERO AND COARSE.
001020: 06,2741           00006                           EXTEND
001021: 06,2742           05012                           WOR      CHAN12
001022:
001023: 06,2743           41035        CAGESUB1           CS       DSPTAB     +11D                       #  TURN ON NO ATT LAMP
001024: 06,2744           72773                           MASK     OC40010
001025: 06,2745           27035                           ADS      DSPTAB     +11D
001026:
001027: 06,2746           41277        CAGESUB2           CS       IMODES30                              #  SET FLAGS TO INDICATE CAGING OR TURN-ON
001028: 06,2747           72775                           MASK     OCT75                                 #      AND INHIBIT ALL ISS WARNING INFO
001029: 06,2750           27277                           ADS      IMODES30
001030:
001031: 06,2751           41300                           CS       IMODES33                              #  DISABLE DAP AUTO AND HOLD MODES
001032: 06,2752           74737                           MASK     BIT6
001033: 06,2753           27300                           ADS      IMODES33
001034:
001035: 06,2754           00002                           TC       Q
001036:
001037: 06,2755  06,2703               IMUFAIL            EQUALS   SETISSW
001038: 06,2755  06,2703               ICDUFAIL           EQUALS   SETISSW
001039:


001041:                                                                                                  #           JUMP TABLES AND CONSTANTS.
001042:
001043: 06,2755           12533        IFAILJMP           TCF      ITURNON                               #  CHANNEL 30 DISPATCH.
001044: 06,2756           12703                           TCF      IMUFAIL
001045: 06,2757           12703                           TCF      ICDUFAIL
001046: 06,2760           12565                           TCF      IMUCAGE
001047: 06,2761           76400        30RDMSK            OCT      76400                                 #  (BIT 10 NOT SAMPLED HERE).
001048: 06,2762           12622                           TCF      IMUOP
001049:
001050: 06,2763           12650        C33JMP             TCF      PIPFAIL                               #  CHANNEL 33 DISPATCH.
001051: 06,2764           12671                           TCF      DNTMFAST
001052: 06,2765           12676                           TCF      UPTMFAST
001053:
001054:                                                                                                  #           SUBROUTINE TO SKIP IF LAMP TEST NOT IN PROGRESS.
001055: 06,2766           41300        LAMPTEST           CS       IMODES33                              #  BIT 1 OF IMODES33 = 1 IF LAMP TEST IN
001056: 06,2767           74744                           MASK     BIT1                                  #  PROGRESS.
001057: 06,2770           10000                           CCS      A
001058: 06,2771           24002                           INCR     Q
001059: 06,2772           00002                           TC       Q
001060:
001061: 06,2773     5017               33RDMSK            EQUALS   PRIO16
001062: 06,2773           40010        OC40010            OCT      40010
001063: 06,2774           00054        OCT54              OCT      54
001064: 06,2775           00075        OCT75              OCT      75
001065: 06,2776           00272        OCT272             OCT      00272
001066: 06,2777           00300        BITS7&8            OCT      300
001067: 06,3000           01720        OCT1720            OCT      1720
001068: 06,3001           00740        OCT740             OCT      00740
001069: 06,3002     5016               OCT15000           EQUALS   PRIO15
001070: 06,3002           77000        OCT77000           OCT      77000
001071: 06,3003           40040        BITS6&15           OCT      40040
001072: 06,3004           76777        -BIT10             OCT      -1000
001073:
001074: 06,3005           21450        90SECS             DEC      9000       B-14
001075: 06,3006     5745               120MS              =        OCT14                                 #  (DEC12)
001076: 06,3006           40106        GLOCKOK            CS       FLGWRD10
001077: 06,3007           74743                           MASK     CONTRLBT
001078: 06,3010           61035                           AD       DSPTAB     +11D
001079: 06,3011           74743                           MASK     CONTRLBT
001080: 06,3012           00006                           EXTEND
001081: 06,3013           13025                           BZF      LITEOK                                #  NO CHANGE
001082:
001083: 06,3014           71035                           MASK     DSPTAB     +11D
001084: 06,3015           10000                           CCS      A
001085: 06,3016           13032                           TCF      LAMPBTST                              #  WAS ON
001086:
001087: 06,3017           41035        LITESWCH           CS       DSPTAB     +11D                       #  WAS OFF
001088: 06,3020           74743                           MASK     CONTRLBT
001089: 06,3021           64726                           AD       BIT15
001090: 06,3022           57035                           XCH      DSPTAB     +11D
001091:


001093: 06,3023           73031                           MASK     OCT37775
001094: 06,3024           27035                           ADS      DSPTAB     +11D
001095:
001096: 06,3025           40106        LITEOK             CS       FLGWRD10
001097: 06,3026           74743                           MASK     CONTRLBT
001098: 06,3027           26106                           ADS      FLGWRD10
001099: 06,3030           15272                           TCF      RESUME
001100:
001101: 06,3031           37775        OCT37775           OCT      37775
001102:
001103: 06,3032           02766        LAMPBTST           TC       LAMPTEST
001104: 06,3033           13025                           TCF      LITEOK
001105: 06,3034           13017                           TCF      LITESWCH
001106:


001108:                                                                                                  #  PROGRAM NAME_  RRAUTCHK
001109:
001110:                                                                                                  #  FUNCTIONAL DESCRIPTION_
001111:                                                                                                  #  RRAUTCHK IS THE RENDEZFOUS RADAR INBIT MONITOR. INITIALLY THE RR
001112:                                                                                                  #  POWER ON AUTO (CHAN 33 BIT 2) INBIT IS CHECKED. IF NO CHANGE, THE
001113:                                                                                                  #  PROGRAM EXITS TO RRCDUCHK. IF A CHANGE, RADMODES IS UPDATED
001114:                                                                                                  #  AND A CHECK MADE IF RR POWER HAS JUST COME ON. IF JUST OFF, A CHECK
001115:                                                                                                  #  IS MADE TO SEE IF A PROGRAM WAS USING THE RR (STATE BIT 7). IF NO,
001116:                                                                                                  #  THE PROGRAM EXITS TO RRCDUCHK. IF YES, PROGRAM ALARM 00514
001117:                                                                                                  #  IS REQUESTED BEFORE EXITING TO RRCDUCHK. IF RR POWER HAS JUST COME
001118:                                                                                                  #  ON, A CHECK IS MADE TO SEE IF A PROGRAM WAS USING THE RR (STATE BIT 7).
001119:                                                                                                  #  IF YES, THE PROGRAM EXITS TO RRCDUCHK WITHOUT REQUESTING THE TURN-ON
001120:                                                                                                  #  SEQUENCE. IF NO, RADMODES IS UPDATED TO INDICATE RR CDU ZERO AND
001121:                                                                                                  #  RR TURN-ON SEQUENCE (BITS 13, 1). A 10 MILLISECOND WAITLIST CALL
001122:                                                                                                  #  IS THEN SET FOR RRTURNON BEFORE THE PROGRAM EXITS TO NORRGMON.
001123:
001124:                                                                                                  #  CALLING SEQUENCE:
001125:                                                                                                  #  T4RUPT EVERY 480 MILLISECONDS
001126:
001127:                                                                                                  #  ERASABLE INITIALIZATION REQUIRED_
001128:                                                                                                  #  RADMODES, STATE
001129:
001130:                                                                                                  #  SUBROUTINES CALLED_
001131:                                                                                                  #  WAITLIST
001132:
001133:                                                                                                  #  JOBS OR TASKS INITIATED
001134:                                                                                                  #  RRTURNON
001135:
001136:                                                                                                  #  ALARMS_  PROGRAM ALARM 00514 - RADAR GOES OUT OF AUTO MODE WHILE BEING
001137:                                                                                                  #  USED
001138:
001139:                                                                                                  #  EXIT_  RRCDUCHK, NORRGMON
001140:
001141: 06,3035           30110        RRAUTCHK           CA       RADMODES                              #  SEE IF CHANGE IN RR AUTO MODE BIT.
001142: 06,3036           00006                           EXTEND
001143: 06,3037           06033                           RXOR     CHAN33
001144: 06,3040           74743                           MASK     AUTOMBIT
001145: 06,3041           00006                           EXTEND
001146: 06,3042           13066                           BZF      RRCDUCHK
001147:
001148: 06,3043           22110                           LXCH     RADMODES                              #  UPDATE RADMODES.
001149: 06,3044           00006                           EXTEND
001150: 06,3045           06001                           RXOR     LCHAN
001151: 06,3046           73062                           MASK     OCT05776                              #  CLR CONT. DES., REMODE, REPOS, CDUZERO,
001152: 06,3047           54110                           TS       RADMODES                              #    AND TURNON BITS.
001153: 06,3050           74743                           MASK     BIT2                                  #  SEE IF JUST ON.
001154: 06,3051           10000                           CCS      A
001155: 06,3052           13063                           TCF      RRCDUCHK   -3                         #  OFF.  GO DISABLE RR CDU ERROR COUNTERS.
001156: 06,3053           37704                           CA       OCT10001                              #  SET RRCDUZRO AND TURNON BITS.
001157: 06,3054           26110                           ADS      RADMODES
001158:


001160: 06,3055           34744                           CAF      ONE
001161: 06,3056           05205                           TC       WAITLIST
001162: 06,3057  E7,1456                                  EBANK=   LOSCOUNT
001163: 06,3057           02053 52107                     2CADR    RRTURNON
001164:
001165: 06,3061           13155                           TCF      NORRGMON
001166:
001167: 06,3062           05776        OCT05776           OCT      5776
001168:


001170:                                                                                                  #  PROGRAM NAME_ RRCDUCHK
001171:
001172:                                                                                                  #  FUNCTIONAL DESCRIPTION_
001173:                                                                                                  #  RRCDUCHK CHECKS FOR RR CDU FAIL (CHAN 30 BIT 7). INITIALLY THE
001174:                                                                                                  #  RR CDU FAIL BIT IS SAMPLED (CHAN 30 BIT 7). IF NO CHANGE, THE
001175:                                                                                                  #  PROGRAM EXITS TO RRGIMON. IF A CHANGE, THE RR AUTO MODE
001176:                                                                                                  #  (RADMODES BIT 2) BIT IS CHECKED. IF NOT IN RR AUTO MODE, THE
001177:                                                                                                  #  PROGRAM EXITS TO NORRGMON. IF IN AUTO MODE, RADMODES BIT 7
001178:                                                                                                  #  (RR CDU OK) IS UPDATED AND IF P-20 IS OPERATING PROGRAM ALARM 00515 IS
001179:                                                                                                  #  REQUESTED. CONTROL IS TRANSFERRED TO SETTRKF TO UPDATE
001180:                                                                                                  #  THE TRACKER FAIL LAMP (DSPTAB+11D BIT 8). CONTROL RETURNS TO
001181:                                                                                                  #  RRGIMON.
001182:
001183:                                                                                                  #  CALLING SEQUENCE_
001184:                                                                                                  #  EVERY 480 MILLISECONDS FROM RRAUTCHK (VIA T4RUPT) UNLESS A
001185:                                                                                                  #  TURN-ON SEQUENCE HAS JUST BEEN INITIATED.
001186:
001187:                                                                                                  #  ERASABLE INITIALIZATION REQUIRED_
001188:                                                                                                  #  RADMODES
001189:
001190:                                                                                                  #  SUBROUTINES CALLED_
001191:                                                                                                  #  SETTRKF
001192:
001193:                                                                                                  #  JOBS OR TASKS INITIATED_
001194:                                                                                                  #  NONE
001195:
001196:                                                                                                  #  ALARMS_
001197:                                                                                                  #  TRACKER FAIL
001198:                                                                                                  #  PROGRAM ALARM 00515 - RRCDU FAIL DURING P-20
001199:
001200:                                                                                                  #  EXIT_
001201:                                                                                                  #  RRGIMON, NORRGMON
001202:
001203: 06,3063           44743                 -3        CS       BIT2
001204: 06,3064           00006                           EXTEND
001205: 06,3065           03012                           WAND     CHAN12                                #  AT TURNON, DISABLE CDU ERROR COUNTERS.
001206:
001207: 06,3066           30110        RRCDUCHK           CA       RADMODES                              #  LAST SAMPLED BIT IN RADMODES.
001208: 06,3067           00006                           EXTEND
001209: 06,3070           06030                           RXOR     CHAN30
001210: 06,3071           74736                           MASK     RCDUFBIT
001211: 06,3072           00006                           EXTEND
001212: 06,3073           13120                           BZF      RRGIMON
001213:
001214: 06,3074           34743                           CAF      AUTOMBIT                              #  IF RR NOT IN AUTO MODE, DON'T CHANGE BIT
001215: 06,3075           70110                           MASK     RADMODES                              #  7 OF RADMODES. IF THIS WERE NOT DONE,
001216: 06,3076           10000                           CCS      A                                     #  THE TRACKER FAIL MIGHT COME ON WHEN
001217: 06,3077           13155                           TCF      NORRGMON                              #  JUST READING LR DATA.
001218:
001219: 06,3100           34736                           CAF      RCDUFBIT                              #  SET BIT 7 OF RADMODES FOR SETTRKF.
001220:


001222: 06,3101           22110                           LXCH     RADMODES                              #  UPDATE RADMODES.
001223: 06,3102           00006                           EXTEND
001224: 06,3103           06001                           RXOR     L
001225: 06,3104           54110                           TS       RADMODES
001226:
001227: 06,3105           30110                           CA       RADMODES                              #  DID RR CDU FAIL
001228: 06,3106           74606                           MASK     13,7,2                                #  CDU ZERO+ CDUFAIL+ RR AUTO
001229: 06,3107           10000                           CCS      A
001230: 06,3110           13117                           TCF      TRKFLCDU                              #  NO
001231: 06,3111           40074                           CS       FLAGWRD0                              #  RNDVFLG P20 OR P22 OPERATING
001232: 06,3112           74736                           MASK     RNDVZBIT
001233: 06,3113           10000                           CCS      A
001234: 06,3114           13117                           TCF      TRKFLCDU                              #  NO
001235: 06,3115           05571                           TC       ALARM                                 #  YES
001236: 06,3116           00515                           OCT      00515
001237: 06,3117           04555        TRKFLCDU           TC       SETTRKF                               #  UPDATE TRAKER FAIL LAMP ON DSKY.
001238:


001240:                                                                                                  #  PROGRAM NAME_  RRGIMON                                                  E AUTO MODE EXCEPT WHEN THE RR CDUS ARE
001241:
001242:                                                                                                  #  FUNCTIONAL DESCRIPTION_                                                 TTER IS INITIATED BY THIS MONITOR WHEN
001243:                                                                                                  #  RRGIMON IS THE RR GIMBAL LIMIT MONITOR. INITIALLY THE FOLLOWING IS      ED TO DRIVE THE GIMBALS TO T = 0 AND
001244:                                                                                                  #  CHECKED_ REMODE, RR CDU:S BEING ZEROED, REPOSITION, AND RR
001245:                                                                                                  #  NOT IN AUTO MODE (RADMODES BITS 14, 13, 11 2). IF ANY OF THESE
001246:                                                                                                  #  EXIST THE PROGRAM EXITS TO GPMATRIX. IF NONE ARE PRESENT RRLIMCHK
001247:                                                                                                  #  IS CALLED TO SEE IF THE PRESENT RR CDU ANGLES (OPTY, OPTX) ARE WITHIN
001248:                                                                                                  #  THE LIMITS OF THE CURRENT MODE. IF WITHIN LIMITS, THE PROGRAM EXITS
001249:                                                                                                  #  TO NORRGMON. IF NOT WITHIN LIMITS, THE REPOSITION FLAG (RADMODES
001250:                                                                                                  #  BIT 11) IS SET, THE RR AUTO TRACKER AND RR ERROR COUNTER
001251:                                                                                                  #  (CHAN 12 BITS 14, 2) ARE DISABLED, AND A 20 MILLISECOND WAITLIST
001252:                                                                                                  #  CALL IS SET FOR DORREPOS AFTER WHICH THE PROGRAM EXITS TO NORRGMON.
001253:
001254:                                                                                                  #  CALLING SEQUENCE_
001255:                                                                                                  #  EVERY 480 MILLISECONDS FROM RRCDUCHK (VIA T4RUPT) UNLESS TURN-ON
001256:                                                                                                  #  HAS JUST BEEN INITIATED VIA RRAUTCHK OR IF THERE HAS BEEN A CHANGE IN
001257:                                                                                                  #  THE RR CDU FAIL BIT (CHAN 30 BIT 7) AND THE RR IS NOT IN THE AUTO MODE
001258:                                                                                                  #  (RADMODES BIT 2).
001259:
001260:                                                                                                  #  ERASABLE INITIALIZATION_  RADMODES
001261:
001262:                                                                                                  #  SUBROUTINES CALLED_
001263:                                                                                                  #  RRLIMCHK, WAITLIST
001264:
001265:                                                                                                  #  JOBS OR TASKS INITIATED_
001266:                                                                                                  #  DORREPOS
001267:
001268:                                                                                                  #  ALARMS_
001269:                                                                                                  #  NONE
001270:
001271:                                                                                                  #  EXIT_
001272:                                                                                                  #  NORRGMON
001273:
001274: 06,3120           30101        RRGIMON            CAE      FLAGWRD5                              #  IS NO ANGLE MONITOR FLAG SET
001275: 06,3121           74741                           MASK     NORRMBIT
001276: 06,3122           10000                           CCS      A
001277: 06,3123           13155                           TCF      NORRGMON                              #  YES - SKIP LIMIT CHECK
001278: 06,3124           40103                           CS       FLAGWRD7                              #  IS SERVICER RUNNING?
001279: 06,3125           74740                           MASK     AVEGFBIT
001280: 06,3126           10000                           CCS      A
001281: 06,3127           13134                           TCF      +5                                    #  NO.  DO R25
001282: 06,3130           30102                           CA       FLAGWRD6                              #  YES.  IS MUNFLAG SET?
001283: 06,3131           74735                           MASK     MUNFLBIT
001284: 06,3132           10000                           CCS      A
001285: 06,3133           13155                           TCF      NORRGMON                              #  YES.  DON'T DO R25
001286: 06,3134           33164                 +5        CAF      OCT32002                              #  INHIBIT BY REMODE,ZEROING,MONITOR.
001287: 06,3135           70110                           MASK     RADMODES                              #  OR RR NOT IN AUTO.
001288: 06,3136           10000                           CCS      A
001289: 06,3137           13155                           TCF      NORRGMON
001290:


001292: 06,3140           04514                           TC       RRLIMCHK                              #  SET IF ANGLES IN LIMITS.
001293: 06,3141           00035                           ADRES    CDUT
001294:
001295: 06,3142           13144                           TCF      MONREPOS
001296:
001297: 06,3143           13155                           TCF      NORRGMON                              #  (ADDITIONAL CODING MAY GO HERE).
001298:
001299: 06,3144           34732        MONREPOS           CAF      REPOSBIT                              #  SET FLAG TO SHOW REPOSITION IN PROGRESS.
001300: 06,3145           26110                           ADS      RADMODES
001301:
001302: 06,3146           43165                           CS       OCT20002                              #  DISABLE TRACKER AND ERROR COUNTER.
001303: 06,3147           00006                           EXTEND
001304: 06,3150           03012                           WAND     CHAN12
001305:
001306: 06,3151           34743                           CAF      TWO
001307: 06,3152           05205                           TC       WAITLIST
001308: 06,3153  E7,1456                                  EBANK=   LOSCOUNT
001309: 06,3153           02120 52107                     2CADR    DORREPOS
001310:
001311: 06,3155           30110        NORRGMON           CA       RADMODES                              #  IF SELECT SWITCH IS NOT IN LGC, SEND RR
001312: 06,3156           74743                           MASK     AUTOMBIT                              #    CDU ZERO BIT TO PREVENT MEMORY CYCLE
001313: 06,3157           10000                           CCS      A                                     #    SNATCHING BY MANIC RR CDUS.  BIT2 OF
001314: 06,3160           13161                           NOOP                                           #    RADMODES AGREES WITH BIT2 OF CHANNEL
001315: 06,3161           00006                           EXTEND                                         #    33.  FOR THIS CODING, WHICH ASSUMES
001316: 06,3162           05012                           WOR      CHAN12                                #    AUTOMBIT = BIT2, THANKS TO HUGH B-S.
001317: 06,3163           13167                           TCF      ENDRRMON


001321:
001322: 06,3164  06,3167               ENDRRMON           EQUALS   DAPT4S
001323:
001324: 06,3164           32002        OCT32002           OCT      32002
001325: 06,3165           20002        OCT20002           OCT      20002
001326: 06,3166           02100        OCT02100           OCT      02100                                 #  P20,P22 MASK BITS.
001327:


001329:                                                                                                  #  PROGRAM NAME:  GPMATRIX (DAPT4S) MCD. NO. 2 DATE: OCTOBER 27, 1966
001330:
001331:                                                                                                  #  AUTHOR:  JOHNATHAN D. ADDLELSTON (ADAMS ASSOCIATES)
001332:
001333:                                                                                                  #  MODIFIED:  7FEB. 1968 BY P. S. WEISSMAN TO DELETE COMPUTATION OF MR12 AND MR13, WHICH ARE NO LONGER REQUIRED.
001334:
001335:                                                                                                  #  THIS PROGRAM CALCULATES ALL THE SINGLE-PRECISION MATRIX ELEMENTS WHICH ARE USED BY LEM DAP TO TRANSFORM VECTORS
001336:                                                                                                  #  FROM GIMBAL TO PILOT (BODY) AXES AND BACK AGAIN.  THESE ELEMENTS ARE USED EXCLUSIVELY BY BASIC LANGUAGE ROUTINES
001337:                                                                                                  #  AND THEREFORE ARE NOT ARRAYED FOR USE BY INTERPRETIVE PROGRAMS.
001338:
001339:                                                                                                  #  CALLING SEQUENCE: GPMATRIX IS TRANSFERRED TO FROM DAPT4S AND IS THUS EXECUTED 4 TIMES A SECOND BY T4RUPT.
001340:                                                                                                  #  DAPT4S IS LISTED IN T4JUMP TABLE TWICE EXPLICITLY AND ALSO OCCURS AFTER RRAUTCHK (WHICH IS ALSO LISTED TWICE).
001341:
001342:                                                                                                  #  SUBROUTINES CALLED: SPSIN, SPCOS.
001343:
001344:                                                                                                  #  NORMAL EXIT MODE:  TCF   RESUME
001345:
001346:                                                                                                  #  ALARM AND ABORT MODES:  NONE.
001347:
001348:                                                                                                  #  INPUT: CDUX, CDUY, CDUZ.
001349:
001350:                                                                                                  #  OUTPUT:  M11, M21, M32, M22, M32.
001351:
001352:                                                                                                  #  AOG = CDUX, AIG = CDUY, AMG = CDUZ: MNEMONIC  IS: OIM = XYZ
001353:
001354:                                                                                                  #     *       *    SING(MG)       0         1   *
001355:                                                                                                  #     M   =   *    COS(MG)COS(OG) SIN(OG)   0   *
001356:                                                                                                  #      GP     *   -COS(MG)SIN(OG) COS(OG)   0   *
001357:
001358:                                                                                                  #     *       *  0    COS(OG)/COS(MG)         -SIN(OG)/COS(MG)         *
001359:                                                                                                  #     M   =   *  0    SIN(OG)                  COS(OG)                 *
001360:                                                                                                  #      PG     *  1   -SIN(MG)COS(OG)/COS(MG)   SIN(MG)SIN(OG)/COS(MG)  *
001361:
001362: 06,3167  E6,1414                                  EBANK=   M11
001363: 06,3167  06,3167               DAPT4S             EQUALS   GPMATRIX
001364:                                                                                                  #  T4RUPT DAP LOGIC:
001365:
001366: 06,3167           30034        GPMATRIX           CAE      CDUZ                                  #  SINGLE ENTRY POINT
001367: 06,3170           05024                           TC       SPSIN                                 #  SIN(CDUZ) = SIN(MG)
001368: 06,3171           55414                           TS       M11                                   #  SCALED AT 1
001369:
001370: 06,3172           30034                           CAE      CDUZ
001371: 06,3173           05023                           TC       SPCOS                                 #  COS(CDUZ) = COS(MG)
001372: 06,3174           54061                           TS       COSMG                                 #  SCALED AT 1 (ONLY A FACTOR)
001373:
001374: 06,3175           30032                           CAE      CDUX
001375: 06,3176           05024                           TC       SPSIN                                 #  SIN(CDUX) = SIN(OG)
001376: 06,3177           55417                           TS       M22                                   #  SCALED AT 1 (ALSO IS MR22)
001377:
001378: 06,3200           41417                           CS       M22
001379:


001381: 06,3201           00006                           EXTEND
001382: 06,3202           70061                           MP       COSMG                                 #  -SIN(OG)COS(MG)
001383: 06,3203           55416                           TS       M31                                   #  SCALED AT 1
001384:
001385: 06,3204           30032                           CAE      CDUX
001386: 06,3205           05023                           TC       SPCOS                                 #  COS(CDUX) = COS(OG)
001387: 06,3206           55420                           TS       M32                                   #  SCALED AT 1 (ALSO IS MR23)
001388:
001389: 06,3207           00006                           EXTEND
001390: 06,3210           70061                           MP       COSMG                                 #  COS(OG)COS(MG)
001391: 06,3211           55415                           TS       M21                                   #  SCALED AT 1
001392:
001393: 06,3212           05272                           TC       RESUME
001394:
001395: 06,3213     5272               ENDDAPT4           EQUALS   RESUME

End of include-file T4RUPT_PROGRAM.agc.  Parent file is MAIN.agc


