
Source Code


000002:                                                                                                  ## Copyright:   Public domain.
000003:                                                                                                  ## Filename:    TAGS_FOR_RELATIVE_SETLOC_AND_BLANK_BANK_CARDS.agc
000004:                                                                                                  ## Purpose:     A section of Luminary revision 210.
000005:                                                                                                  ##              It is part of the source code for the Lunar Module's (LM)
000006:                                                                                                  ##              Apollo Guidance Computer (AGC) for Apollo 15-17.
000007:                                                                                                  ##              This file is intended to be a faithful transcription, except
000008:                                                                                                  ##              that the code format has been changed to conform to the
000009:                                                                                                  ##              requirements of the yaYUL assembler rather than the
000010:                                                                                                  ##              original YUL assembler.
000011:                                                                                                  ## Reference:   pp. 29-38
000012:                                                                                                  ## Assembler:   yaYUL
000013:                                                                                                  ## Contact:     Ron Burkey <info@sandroid.org>.
000014:                                                                                                  ## Website:     www.ibiblio.org/apollo/index.html
000015:                                                                                                  ## Mod history: 2016-11-17 JL   Created from Luminary131 version.
000016:                                                                                                  ##              2016-11-17 HG   Transcribed
000017:                                                                                                  ##              2016-11-28 HG   fix label  ABTFLAGS  --> ABTFLGS
000018:                                                                                                  ##              2016-12-15 RSB  Proofed comment text with octopus/ProoferComments,
000019:                                                                                                  ##                              and corrected the errors found.
000020:
000021:


000023: ???????                                           COUNT    BANKSUM
000024:
000025:                                                                                                  #  MODULE 1 CONTAINS BANKS 0 THROUGH 5
000026:
000027:    4000                                           BLOCK    02
000028:    4000                        RADARFF            EQUALS
000029:    4000                        FFTAG1             EQUALS
000030:    4000                        FFTAG2             EQUALS
000031:    4000                        FFTAG3             EQUALS
000032:    4000                        FFTAG4             EQUALS
000033:    4000                        FFTAG7             EQUALS
000034:    4000                        FFTAG8             EQUALS
000035:    4000                        FFTAG9             EQUALS
000036:    4000                        FFTAG10            EQUALS
000037:    4000                        FFTAG11            EQUALS
000038:    4000                        FFTAG12            EQUALS
000039:    4000                        FFTAG13            EQUALS
000040:    4000                                           BNKSUM   02
000041:
000042:    6000                                           BLOCK    03
000043:    6000                        FFTAG5             EQUALS
000044:    6000                        FFTAG6             EQUALS
000045:    6000                                           BNKSUM   03
000046:
000047: 00,2000                                           BANK     00
000048: 00,2000                        DLAYJOB            EQUALS
000049: 00,2000                                           BNKSUM   00
000050:
000051: 01,2000                                           BANK     01
000052: 01,2000                        RESTART            EQUALS
000053: 01,2000                        LOADDAP1           EQUALS
000054: 01,2000                                           BNKSUM   01
000055:
000056: 04,2000                                           BANK     04
000057: 04,2000                        ORBITAL3           EQUALS
000058: 04,2000                        R02                EQUALS
000059: 04,2000                        VERB37             EQUALS
000060: 04,2000                        EPHEM2             EQUALS
000061: 04,2000                        PINBALL4           EQUALS
000062: 04,2000                        CONICS1            EQUALS
000063: 04,2000                        KEYRUPT            EQUALS
000064: 04,2000                        R36LM              EQUALS
000065: 04,2000                        UPDATE2            EQUALS
000066: 04,2000                        E/PROG             EQUALS
000067:


000069: 04,2000                        AOTMARK2           EQUALS
000070: 04,2000                                           BNKSUM   04
000071:
000072: 05,2000                                           BANK     05
000073: 05,2000                        FRANDRES           EQUALS
000074: 05,2000                        DOWNTELM           EQUALS
000075: 05,2000                        ABORTS1            EQUALS
000076: 05,2000                        EPHEM1             EQUALS
000077: 05,2000                        ASENT3             EQUALS
000078: 05,2000                                           BNKSUM   05
000079:
000080:                                                                                                  #  MODULE 2 CONTAINS BANKS 6 THROUGH 13
000081:
000082: 06,2000                                           BANK     06
000083: 06,2000                        IMUCOMP            EQUALS
000084: 06,2000                        T4RUP              EQUALS
000085: 06,2000                        RCSMONT            EQUALS
000086: 06,2000                        EARTHLOC           EQUALS
000087: 06,2000                        AOTMARK3           EQUALS
000088: 06,2000                                           BNKSUM   06
000089:
000090: 07,2000                                           BANK     07
000091: 07,2000                        AOTMARK1           EQUALS
000092: 07,2000                        MODESW             EQUALS
000093: 07,2000                        ASENT2             EQUALS
000094: 07,2000                                           BNKSUM   07
000095:
000096: 10,2000                                           BANK     10
000097: 10,2000                        RTBCODES           EQUALS
000098: 10,2000                        DISPLAYS           EQUALS
000099: 10,2000                        PHASETAB           EQUALS
000100: 10,2000                        FLESHLOC           EQUALS
000101: 10,2000                        SLCTMU             EQUALS
000102: 10,2000                                           BNKSUM   10
000103:
000104: 11,2000                                           BANK     11
000105: 11,2000                        ORBITAL            EQUALS
000106: 11,2000                        F2DPS*11           EQUALS
000107: 11,2000                        INTVEL             EQUALS
000108: 11,2000                                           BNKSUM   11
000109:


000111: 12,2000                                           BANK     12
000112: 12,2000                        CONICS             EQUALS
000113: 12,2000                        ORBITAL1           EQUALS
000114: 12,2000                        INTPRET2           EQUALS
000115: 12,2000                                           BNKSUM   12
000116:
000117: 13,2000                                           BANK     13
000118: 13,2000                        LATLONG            EQUALS
000119: 13,2000                        INTINIT            EQUALS
000120: 13,2000                        LEMGEOM            EQUALS
000121: 13,2000                        P76LOC             EQUALS
000122: 13,2000                        ORBITAL2           EQUALS
000123: 13,2000                        P50S2              EQUALS
000124: 13,2000                                           BNKSUM   13
000125:


000127:                                                                                                  #  MODULE 3 CONTAINS BANKS 14 THROUGH 21
000128:
000129: 14,2000                                           BANK     14
000130: 14,2000                        P50S1              EQUALS
000131: 14,2000                        PHASTAB1           EQUALS
000132: 14,2000                        STARTAB            EQUALS
000133: 14,2000                        ASENT4             EQUALS
000134: 14,2000                        RTBCODE1           EQUALS
000135: 14,2000                                           BNKSUM   14
000136:
000137: 15,2000                                           BANK     15
000138: 15,2000                        P50S               EQUALS
000139: 15,2000                        R02BNK15           EQUALS
000140: 15,2000                        EPHEM              EQUALS
000141: 15,2000                        RRLEADIN           EQUALS
000142: 15,2000                                           BNKSUM   15
000143:
000144: 16,2000                                           BANK     16
000145: 16,2000                        DAPS1              EQUALS
000146: 16,2000                                           BNKSUM   16
000147:
000148: 17,2000                                           BANK     17
000149: 17,2000                        DAPS2              EQUALS
000150: 17,2000                        C13BANK            EQUALS
000151: 17,2000                                           BNKSUM   17
000152:
000153: 20,2000                                           BANK     20
000154: 20,2000                        DAPS3              EQUALS
000155: 20,2000                        LOADDAP            EQUALS
000156: 20,2000                                           BNKSUM   20
000157:
000158: 21,2000                                           BANK     21
000159: 21,2000                        DAPS4              EQUALS
000160: 21,2000                        ABTFLGS            EQUALS
000161: 21,2000                        R10                EQUALS
000162: 21,2000                        R11                EQUALS
000163: 21,2000                        MANUR              EQUALS
000164: 21,2000                        P50S3              EQUALS
000165: 21,2000                        MIDDGIM1           EQUALS
000166: 21,2000                        ORBITAL5           EQUALS
000167: 21,2000                                           BNKSUM   21


000169:
000170:                                                                                                  #  MODULE 4 CONTAINS BANKS 22 THROUGH 27
000171:
000172: 22,2000                                           BANK     22
000173: 22,2000                        KALCMON1           EQUALS
000174: 22,2000                        KALCMON2           EQUALS
000175: 22,2000                        R30LOC             EQUALS
000176: 22,2000                        RENDEZ             EQUALS
000177: 22,2000                        SERV2              EQUALS
000178: 22,2000                        LANDCNST           EQUALS
000179: 22,2000                        MIDDGIM            EQUALS
000180: 22,2000                                           BNKSUM   22
000181:
000182: 23,2000                                           BANK     23
000183: 23,2000                        POWFLITE           EQUALS
000184: 23,2000                        POWFLIT1           EQUALS
000185: 23,2000                        INFLIGHT           EQUALS
000186: 23,2000                        APOPERI            EQUALS
000187: 23,2000                        R61                EQUALS
000188: 23,2000                        R62                EQUALS
000189: 23,2000                        INTPRET1           EQUALS
000190: 23,2000                        MEASINC            EQUALS
000191: 23,2000                        MEASINC1           EQUALS
000192: 23,2000                        EXTVB1             EQUALS
000193: 23,2000                        P12A               EQUALS
000194: 23,2000                        NORMLIZ            EQUALS
000195: 23,2000                        ASENT7             EQUALS
000196: 23,2000                        RODTRAP            EQUALS
000197: 23,2000                                           BNKSUM   23
000198:
000199: 24,2000                                           BANK     24
000200: 24,2000                        PLANTIN            EQUALS
000201: 24,2000                        P20S               EQUALS
000202: 24,2000                        S40BNK             EQUALS
000203: 24,2000                        ORBITAL4           EQUALS
000204: 24,2000                                           BNKSUM   24
000205:
000206: 25,2000                                           BANK     25
000207: 25,2000                        P20S1              EQUALS
000208: 25,2000                        P20S2              EQUALS
000209: 25,2000                        RADARUPT           EQUALS
000210: 25,2000                        DRSAMP             EQUALS
000211: 25,2000                        PLANTIN3           EQUALS
000212: 25,2000                                           BNKSUM   25
000213:


000215: 26,2000                                           BANK     26
000216: 26,2000                        P20S3              EQUALS
000217: 26,2000                        BAWLANGS           EQUALS
000218: 26,2000                        MANUVER            EQUALS
000219: 26,2000                        MANUVER1           EQUALS
000220: 26,2000                        PLANTIN1           EQUALS
000221: 26,2000                        PLANTIN2           EQUALS
000222: 26,2000                                           BNKSUM   26
000223:
000224: 27,2000                                           BANK     27
000225: 27,2000                        TOF-FF             EQUALS
000226: 27,2000                        TOF-FF1            EQUALS
000227: 27,2000                        P40S1              EQUALS
000228: 27,2000                        VECPT              EQUALS
000229: 27,2000                        ASENT1             EQUALS
000230: 27,2000                        SERV3              EQUALS
000231: 27,2000                                           BNKSUM   27
000232:


000234:                                                                                                  #  MODULE 5 CONTAINS BANKS 30 THROUGH 35
000235:
000236: 30,2000                                           BANK     30
000237: 30,2000                        LOWSUPER           EQUALS
000238: 30,2000                        P12                EQUALS
000239: 30,2000                        ASENT              EQUALS
000240: 30,2000                        FCDUW              EQUALS
000241: 30,2000                        FLOGSUB            EQUALS
000242: 30,2000                        VB67A              EQUALS
000243: 30,2000                        ASENT5             EQUALS
000244: 30,2000                                           BNKSUM   30
000245:
000246: 31,2000                                           BANK     31
000247: 31,2000                        FTHROT             EQUALS
000248: 31,2000                        F2DPS*31           EQUALS
000249: 31,2000                        VB67               EQUALS
000250: 31,2000                                           BNKSUM   31
000251:
000252: 32,2000                                           BANK     32
000253: 32,2000                        P20S4              EQUALS
000254: 32,2000                        F2DPS*32           EQUALS
000255: 32,2000                        ABORTS             EQUALS
000256: 32,2000                        LRS22              EQUALS
000257: 32,2000                        P66LOC             EQUALS
000258: 32,2000                        R47                EQUALS
000259: 32,2000                        SERV               EQUALS
000260: 32,2000                        P40S4              EQUALS
000261: 32,2000                                           BNKSUM   32
000262:
000263: 33,2000                                           BANK     33
000264: 33,2000                        SERVICES           EQUALS
000265: 33,2000                        R29/SERV           EQUALS
000266: 33,2000                        ASENT6             EQUALS
000267: 33,2000                                           BNKSUM   33
000268:
000269: 34,2000                                           BANK     34
000270: 34,2000                        ASENT8             EQUALS
000271: 34,2000                        P30S1              EQUALS
000272: 34,2000                        CSI/CDH1           EQUALS
000273: 34,2000                        ASCFILT            EQUALS
000274: 34,2000                        R12STUFF           EQUALS
000275: 34,2000                        SERV4              EQUALS
000276:


000278: 34,2000                        F2DPS*34           EQUALS
000279: 34,2000                                           BNKSUM   34
000280:
000281: 35,2000                                           BANK     35
000282: 35,2000                        CSI/CDH            EQUALS
000283: 35,2000                        P30S               EQUALS
000284: 35,2000                        P40S3              EQUALS
000285: 35,2000                        P40S2              EQUALS
000286: 35,2000                                           BNKSUM   35
000287:


000289:                                                                                                  #  MODULE 6 CONTAINS BANKS 36 THROUGH 43
000290:
000291: 36,2000                                           BANK     36
000292: 36,2000                        P40S               EQUALS
000293: 36,2000                                           BNKSUM   36
000294:
000295: 37,2000                                           BANK     37
000296: 37,2000                        P05P06             EQUALS
000297: 37,2000                        IMU2               EQUALS
000298: 37,2000                        IMU4               EQUALS
000299: 37,2000                        R31                EQUALS
000300: 37,2000                        IMUSUPER           EQUALS
000301: 37,2000                        SERV1              EQUALS
000302: 37,2000                                           BNKSUM   37
000303:
000304: 40,2000                                           BANK     40
000305: 40,2000                        PINBALL1           EQUALS
000306: 40,2000                        SELFSUPR           EQUALS
000307: 40,2000                        SBAND40            EQUALS
000308: 40,2000                        PINSUPER           EQUALS
000309: 40,2000                        R31LOC             EQUALS
000310: 40,2000                                           BNKSUM   40
000311:
000312: 41,2000                                           BANK     41
000313: 41,2000                        PINBALL2           EQUALS
000314: 41,2000                                           BNKSUM   41
000315:
000316: 42,2000                                           BANK     42
000317: 42,2000                        SBAND              EQUALS
000318: 42,2000                        PINBALL3           EQUALS
000319: 42,2000                                           BNKSUM   42
000320:
000321: 43,2000                                           BANK     43
000322: 43,2000                        EXTVERBS           EQUALS
000323: 43,2000                        SELFCHEC           EQUALS
000324:
000325: 43,2000                                           BNKSUM   43
000326:


000328:
000329: 43,2000  23,2504               HI6ZEROS           EQUALS   ZEROVECS                              #  ZERO VECTOR ALWAYS IN HIGH MEMORY
000330: 43,2000  12,2006               LO6ZEROS           EQUALS   ZEROVEC                               #  ZERO VECTOR ALWAYS IN LOW MEMORY
000331: 43,2000  23,2502               HIDPHALF           EQUALS   UNITX
000332: 43,2000  12,2004               LODPHALF           EQUALS   XUNIT
000333: 43,2000  23,2474               HIDP1/4            EQUALS   DP1/4TH
000334: 43,2000  04,3037               LODP1/4            EQUALS   D1/4                                  #  2DEC .25
000335: 43,2000  23,2502               HIUNITX            EQUALS   UNITX
000336: 43,2000  23,2500               HIUNITY            EQUALS   UNITY
000337: 43,2000  23,2476               HIUNITZ            EQUALS   UNITZ
000338: 43,2000  12,2004               LOUNITX            EQUALS   XUNIT                                 #  2DEC .5
000339: 43,2000  12,2002               LOUNITY            EQUALS   YUNIT                                 #  2DEC 0
000340: 43,2000  12,2000               LOUNITZ            EQUALS   ZUNIT                                 #  2DEC 0
000341:
000342:
000343:
000344: 43,2000  22,3543               DELRSPL            EQUALS   SPLRET                                #  COL PGM, ALSO CALLED BY R30 IN LUMINARY
000345:
000346:                                                                                                  #  ROPE-SPECIFIC ASSIGNS OBVIATING NEED TO CHECK COMPUTER FLAG IN         DETERMINING INTEGRATION AREA ENTRIES.
000347:
000348: 43,2000  13,2772               ATOPTHIS           EQUALS   ATOPLEM
000349: 43,2000  13,2717               ATOPOTH            EQUALS   ATOPCSM
000350: 43,2000  13,3101               OTHPREC            EQUALS   CSMPREC
000351: 43,2000  0000174               MOONTHIS           EQUALS   LMOONFLG
000352: 43,2000  0000173               MOONOTH            EQUALS   CMOONFLG
000353: 43,2000  13,3005               MOVATHIS           EQUALS   MOVEALEM
000354: 43,2000  12,2017               RMM                =        LODPMAX
000355: 43,2000  12,2021               RME                =        LODPMAX1
000356: 43,2000  13,3115               THISPREC           EQUALS   LEMPREC
000357: 43,2000  23,2476               THISAXIS           =        UNITZ
000358: 43,2000  23,2476               NB1NB2             EQUALS   THISAXIS                              #  FOR R31
000359: 43,2000     5002               ERASID             EQUALS   BITS2-10                              #  DOWNLINK ERASABLE DUMP ID
000360: 43,2000     4743               DELAYNUM           EQUALS   TWO

End of include-file TAGS_FOR_RELATIVE_SETLOC_AND_BLANK_BANK_CARDS.agc.  Parent file is MAIN.agc


