
Source Code


000002:                                                                                                  ## Copyright:   Public domain.
000003:                                                                                                  ## Filename:    THE_LUNAR_LANDING.agc
000004:                                                                                                  ## Purpose:     A section of Luminary revision 210.
000005:                                                                                                  ##              It is part of the source code for the Lunar Module's (LM)
000006:                                                                                                  ##              Apollo Guidance Computer (AGC) for Apollo 15-17.
000007:                                                                                                  ##              This file is intended to be a faithful transcription, except
000008:                                                                                                  ##              that the code format has been changed to conform to the
000009:                                                                                                  ##              requirements of the yaYUL assembler rather than the
000010:                                                                                                  ##              original YUL assembler.
000011:                                                                                                  ## Reference:   pp. 781-788
000012:                                                                                                  ## Assembler:   yaYUL
000013:                                                                                                  ## Contact:     Ron Burkey <info@sandroid.org>.
000014:                                                                                                  ## Website:     www.ibiblio.org/apollo/index.html
000015:                                                                                                  ## Mod history: 2016-11-17 JL   Created from Luminary131 version.
000016:                                                                                                  ##              2016-11-29 HG   Transcribed
000017:                                                                                                  ##              2016-12-07 HG   Fix P00 -> POO
000018:                                                                                                  ##              2016-12-25 RSB  Comment-text proofed using ProoferComments
000019:                                                                                                  ##                              and corrected errors found.
000020:                                                                                                  ##              2017-03-13 RSB  Comment-text fixes noted in proofing Luminary 116.
000021:


000023: 32,2602                                           BANK     32
000024: 32,2000                                           SETLOC   F2DPS*32
000025: 32,2000                                           BANK
000026:
000027: 32,2602  E7,1621                                  EBANK=   E2DPS
000028:
000029:                                                                                                  #        ****************************************
000030:                                                                                                  #        P63: THE LUNAR LANDING, BRAKING PHASE
000031:                                                                                                  #        ****************************************
000032:
000033: 32,2602                                           COUNT*   $$/P63
000034:
000035: 32,2602           05355        P63LM              TC       PHASCHNG
000036: 32,2603           04024                           OCT      04024
000037:
000038: 32,2604           04607                           TC       BANKCALL                              #  DO IMU STATUS CHECK ROUTINE R02
000039: 32,2605           33757                           CADR     R02BOTH
000040:
000041: 32,2606           33063                           CAF      P63ADRES                              #  INITIALIZE WHICH FOR BURNBABY
000042: 32,2607           55455                           TS       WHICH
000043:
000044: 32,2610           32000                           CAF      DPSTHRSH                              #  INITIALIZE DVMON
000045: 32,2611           55250                           TS       DVTHRUSH
000046: 32,2612           34742                           CAF      FOUR
000047: 32,2613           55515                           TS       DVCNTR
000048:
000049: 32,2614           44744                           CS       ONE                                   #  INITIALIZE WCHPHASE AND FLPASSO
000050: 32,2615           55346                           TS       WCHPHASE
000051:
000052: 32,2616           34746                           CA       ZERO
000053: 32,2617           55623                           TS       FLPASS0
000054:
000055: 32,2620           44727                           CS       BIT14
000056: 32,2621           00006                           EXTEND
000057: 32,2622           03012                           WAND     CHAN12                                #  REMOVE TRACK-ENABLE DISCRETE.
000058:
000059: 32,2623           06060        FLAGORGY           TC       INTPRET                               #  DIONYSIAN FLAG WAVING
000060: 32,2624           77614                           CLEAR
000061: 32,2625           00664                                    NOTERFLG                              #  PERMIT TERRAIN MODEL
000062: 32,2626           43014                           CLEAR    CLEAR
000063: 32,2627           02663                                    NOTHROTL
000064: 32,2630           03271                                    REDFLAG
000065: 32,2631           43014                           CLEAR    SET
000066: 32,2632           05660                                    LRBYPASS
000067: 32,2633           03067                                    MUNFLAG
000068: 32,2634           43014                           CLEAR    CLEAR
000069: 32,2635           00266                                    P25FLAG                               #  TERMINATE P25 IF IT IS RUNNING.
000070: 32,2636           00270                                    RNDVZFLG                              #  TERMINATE P20 IF IT IS RUNNING
000071:
000072:                                                                                                  #  ****************************************
000073:


000075: 32,2637           77201        IGNALG             SETPD    VLOAD                                 #  FIRST SET UP INPUTS FOR RP-TO-R:-
000076: 32,2640           00001                                    0                                     #    AT 0D LANDING SITE IN MOON FIXED FRAME
000077: 32,2641           02021                                    RLS                                   #    AT 6D ESTIMATED TIME OF LANDING
000078: 32,2642           41525                           PDDL     PUSH                                  #    MPAC NON-ZERO TO INDICATE LUNAR CASE
000079: 32,2643           02027                                    TLAND
000080: 32,2644           37625                           STCALL   TPIP                                  #  ALSO SET TPIP FOR FIRST GUIDANCE PASS
000081: 32,2645           55716                                    RP-TO-R
000082: 32,2646           64312                           VSL4     MXV
000083: 32,2647           01732                                    REFSMMAT
000084: 32,2650           37635                           STCALL   LAND
000085: 32,2651           71346                                    GUIDINIT                              #  GUIDINIT INITIALIZES WM AND /LAND/
000086: 32,2652           45345                           DLOAD    DSU
000087: 32,2653           02027                                    TLAND
000088: 32,2654           25070                                    GUIDDURN
000089: 32,2655           34041                           STCALL   TDEC1                                 #  INTEGRATE STATE FORWARD TO THAT TIME
000090: 32,2656           27115                                    LEMPREC
000091: 32,2657           77331                           SSP      VLOAD
000092: 32,2660           03647                                    NIGNLOOP
000093: 32,2661           00050                                    40D
000094: 32,2662           06503                                    UNITX
000095: 32,2663           26572                           STOVL    CG
000096: 32,2664           06501                                    UNITY
000097: 32,2665           26600                           STOVL    CG         +6
000098: 32,2666           06477                                    UNITZ
000099: 32,2667           16606                           STODL    CG         +14
000100: 32,2670           25066                                    99999CON
000101: 32,2671           27665                           STOVL    DELTAH                                #  INITIALIZE DELTAH FOR V16N68 DISPLAY
000102: 32,2672           06505                                    ZEROVECS
000103: 32,2673           17252                           STODL    UNFC/2                                #  INITIALIZE TRIM VELOCITY CORRECTION TERM
000104: 32,2674           06505                                    HI6ZEROS
000105: 32,2675           17643                           STODL    TTF/8
000106: 32,2676           25074                                    HLROFFF
000107: 32,2677           03452                           STORE    HLROFF                                #  LR CUTOFF ALTITUDE.
000108: 32,2700           77745        IGNALOOP           DLOAD
000109: 32,2701           00015                                    TAT
000110: 32,2702           27561                           STOVL    PIPTIME1
000111: 32,2703           00017                                    RATT1
000112: 32,2704           64312                           VSL4     MXV
000113: 32,2705           01732                                    REFSMMAT
000114: 32,2706           37521                           STCALL   R
000115: 32,2707           67037                                    MUNGRAV
000116: 32,2710           35236                           STCALL   GDT/2
000117: 32,2711           62417                                    ?GUIDSUB                              #  WHICH DELIVERS N PASSES OF GUIDANCE
000118:
000119:                                                                                                  #  DDUMCALC IS PROGRAMMED AS FOLLOWS:-
000120:                                                                                                  #                                          2                                           -
000121:                                                                                                  #               (RIGNZ - RGU )/16 + 16(RGU  )KIGNY/B8 + (RGU - RIGNX)KIGNX/B4 + (ABVAL(VGU) - VIGN)KIGNV/B4
000122:                                                                                                  #                           2             1                 0
000123:                                                                                                  #        DDUM = -------------------------------------------------------------------------------------------
000124:


000126:                                                                                                  #                                                 10
000127:                                                                                                  #                                                2   (VGU - 16 VGU KIGNX/B4)
000128:                                                                                                  #                                                        2        0
000129:
000130:                                                                                                  #  THE NUMERATOR IS SCALED IN METERS AT 2(28).   THE DENOMINATOR IS A VELOCITY IN UNITS OF 2(10) M/CS.
000131:                                                                                                  #  THE QUOTIENT IS THUS A TIME IN UNITS OF 2(18) CENTISECONDS.   THE FINAL SHIFT RESCALES TO UNITS OF 2(28) CS.
000132:                                                                                                  #  THERE IS NO DAMPING FACTOR.   THE CONSTANTS KIGNX/B4, KIGNY/B8 AND KIGNV/B4 ARE ALL NEGATIVE IN SIGN.
000133:
000134: 32,2712           55646        DDUMCALC           TS       NIGNLOOP
000135: 32,2713           06060                           TC       INTPRET
000136: 32,2714           57345                           DLOAD    DMPR                                  #  FORM DENOMINATOR FIRST
000137: 32,2715           03627                                    VGU
000138: 32,2716           02465                                    KIGNX/B4
000139: 32,2717           44232                           SL4R     BDSU
000140: 32,2720           03633                                    VGU        +4
000141: 32,2721           45325                           PDDL     DSU
000142: 32,2722           02463                                    RIGNZ
000143: 32,2723           02630                                    RGU        +4
000144: 32,2724           65222                           SR4R     PDDL
000145: 32,2725           02626                                    RGU        +2
000146: 32,2726           57316                           DSQ      DMPR
000147: 32,2727           02467                                    KIGNY/B8
000148: 32,2730           65232                           SL4R     PDDL
000149: 32,2731           02624                                    RGU
000150: 32,2732           57225                           DSU      DMPR
000151: 32,2733           02461                                    RIGNX
000152: 32,2734           02465                                    KIGNX/B4
000153: 32,2735           51515                           PDVL     ABVAL
000154: 32,2736           03627                                    VGU
000155: 32,2737           57225                           DSU      DMPR
000156: 32,2740           02457                                    VIGN
000157: 32,2741           02471                                    KIGNV/B4
000158: 32,2742           43215                           DAD      DAD
000159: 32,2743           56215                           DAD      DDV
000160: 32,2744           77661                           SRR
000161: 32,2745           21613                                    10D
000162:
000163: 32,2746           43206                           PUSH     DAD
000164: 32,2747           03561                                    PIPTIME1
000165: 32,2750           14041                           STODL    TDEC1                                 #  STORE NEW GUESS FOR NEXT INTEGRATION
000166: 32,2751           45246                           ABS      DSU
000167: 32,2752           25072                                    DDUMCRIT
000168: 32,2753           45040                           BMN      CALL
000169: 32,2754           64773                                    DDUMGOOD
000170: 32,2755           27447                                    INTSTALL
000171: 32,2756           43014                           SET      SET
000172: 32,2757           01473                                    INTYPFLG
000173: 32,2760           00063                                    MOONFLAG
000174: 32,2761           77745                           DLOAD
000175: 32,2762           03561                                    PIPTIME1
000176:


000178: 32,2763           25517                           STOVL    TET                                   #  HOPEFULLY ?GUIDSUB DID NOT
000179: 32,2764           00017                                    RATT1                                 #    CLOBBER RATT1 AND VATT1
000180: 32,2765           25535                           STOVL    RCV
000181: 32,2766           00025                                    VATT1
000182: 32,2767           35543                           STCALL   VCV
000183: 32,2770           27145                                    INTEGRVS
000184: 32,2771           77650                           GOTO
000185: 32,2772           64700                                    IGNALOOP
000186:
000187: 32,2773           53575        DDUMGOOD           VLOAD    UNIT                                  #  INITIALIZE KALCMANU
000188: 32,2774           03252                                    UNFC/2
000189: 32,2775           27773                           STOVL    POINTVSM
000190: 32,2776           06503                                    UNITX
000191: 32,2777           27765                           STOVL    SCAXIS                                #  NEXT COMPUTE DISTANCE LANDING SITE IS
000192: 32,3000           03527                                    V                                     #    OUT OF LM'S ORBITAL PLANE AT IGNITION:
000193: 32,3001           53435                           VXV      UNIT                                  #    SIGN IS + IF LANDING SITE IS TO THE
000194: 32,3002           03521                                    R                                     #    RIGHT, NORTH; - IF TO THE LEFT, SOUTH.
000195: 32,3003           72441                           DOT      SL1
000196: 32,3004           03635                                    LAND
000197: 32,3005           16614                           STODL    OUTOFPLN                              #  NEXT COMPUTE TIG
000198: 32,3006           03423                                    ZOOMTIME
000199: 32,3007           44261                           SR       BDSU
000200: 32,3010           20617                                    14D
000201: 32,3011           00041                                    TDEC1
000202: 32,3012           03442                           STORE    TIG
000203: 32,3013           77776                           EXIT
000204:                                                                                                  #  ****************************************
000205:
000206: 32,3014           05355        IGNALGRT           TC       PHASCHNG                              #  PREVENT REPEATING IGNALG
000207: 32,3015           04024                           OCT      04024
000208:
000209: 32,3016           44353        ASTNCLOK           CS       ASTNDEX
000210: 32,3017           04607                           TC       BANKCALL
000211: 32,3020           74663                           CADR     STCLOK2
000212: 32,3021           15146                           TCF      ENDOFJOB                              #  RETURN IN NEW JOB AND IN EBANK FIVE
000213:
000214: 32,3022           35007        ASTNRET            CAF      EBANK7
000215: 32,3023           54003                           TS       EBANK
000216:
000217: 32,3024           00004                           INHINT
000218: 32,3025           04665                           TC       IBNKCALL
000219: 32,3026           40143                           CADR     PFLITEDB
000220: 32,3027           00003                           RELINT
000221:
000222: 32,3030           04607                           TC       BANKCALL
000223: 32,3031           54125                           CADR     R60LEM
000224:
000225: 32,3032           05355                           TC       PHASCHNG                              #  PREVENT RECALLING R60
000226: 32,3033           04024                           OCT      04024
000227:


000229: 32,3034           34737        P63SPOT3           CA       BIT6                                  #  IS THE LR ANTENNA IN POSITION 1 YET
000230: 32,3035           00006                           EXTEND
000231: 32,3036           02033                           RAND     CHAN33
000232: 32,3037           00006                           EXTEND
000233: 32,3040           13046                           BZF      P63SPOT4                              #  BRANCH IF ANTENNA ALREADY IN POSITION 1
000234:
000235: 32,3041           33064                           CAF      CODE500                               #  ASTRONAUT: PLEASE CRANK THE
000236: 32,3042           04607                           TC       BANKCALL                              #             SILLY THING AROUND
000237: 32,3043           20635                           CADR     GOPERF1
000238: 32,3044           16001                           TCF      GOTOPOOH                              #  TERMINATE
000239: 32,3045           13034                           TCF      P63SPOT3                              #  PROCEED    SEE IF HE'S LYING
000240:
000241: 32,3046           34743        P63SPOT4           CAF      TWO                                   #  ENTER      INITIALIZE LANDING RADAR
000242: 32,3047           55674                           TS       STILBADH
000243: 32,3050           55675                           TS       STILBADV
000244: 32,3051           34746                           CAF      ZERO
000245: 32,3052           55670                           TS       LRLCTR
000246: 32,3053           55672                           TS       LRMCTR
000247: 32,3054           55671                           TS       LRRCTR
000248: 32,3055           55673                           TS       LRSCTR
000249: 32,3056           55462                           TS       VSELECT
000250:
000251: 32,3057           34742                           CA       FOUR                                  #  INITIALIZE COUNTER TO ISSUE 511
000252: 32,3060           55622                           TS       511CTR                                #  ALARM AFTER 10 SECONDS
000253:
000254: 32,3061           04626                           TC       POSTJUMP                              #  OFF TO SEE THE WIZARD...
000255: 32,3062           74130                           CADR     BURNBABY
000256:
000257:                                                                                                  #        ----------------------------------------
000258:
000259:                                                                                                  #              CONSTANTS FOR P63LM AND IGNALG
000260:
000261: 32,3063           02100        P63ADRES           GENADR   P63TABLE
000262:
000263: 32,3064     4353               ASTNDEX            =        MD1                                   #  OCT 25; INDEX FOR CLOKTASK
000264:
000265: 32,3064           00500        CODE500            OCT      00500
000266:
000267: 32,3065           00035 30373  99999CON           2DEC     30479.7    B-24
000268:
000269: 32,3067           00004 01610  GUIDDURN           2DEC     +66440     B-28                       #          GUIDDURN +6.64400314E+ 2
000270: 32,3071           00000 00010  DDUMCRIT           2DEC     +8         B-28                       #  CRITERION FOR IGNALG CONVERGENCE
000271:


000273: 32,3073           00364        HLROFFF            DEC      15.24      B-10                       #  LOADED DP, BUT LOW ORDER DOESN'T MATTER
000274:                                                                                                  #        ----------------------------------------
000275:


000277:                                                                                                  #        ****************************************
000278:                                                                                                  #        P68: LANDING CONFIRMATION
000279:                                                                                                  #        ****************************************
000280:
000281: 34,3271                                           BANK     34
000282: 34,2000                                           SETLOC   F2DPS*34
000283: 34,2000                                           BANK
000284:
000285: 34,3271                                           COUNT*   $$/P6567
000286:
000287: 34,3271           05355        LANDJUNK           TC       PHASCHNG
000288: 34,3272           04024                           OCT      04024
000289:
000290: 34,3273           00004                           INHINT
000291: 34,3274           04607                           TC       BANKCALL                              #  ZERO ATTITUDE ERROR
000292: 34,3275           40154                           CADR     ZATTEROR
000293:
000294: 34,3276           06060                           TC       INTPRET                               #  TO INTERPRETIVE AS TIME IS NOT CRITICAL
000295: 34,3277           77614                           SET                                            #  PREVENT RCS JET FIRINGS IF MODE CONT IS
000296: 34,3300           06460                                    PULSEFLG                              #  IN ATT HOLD
000297: 34,3301           43014                           SET      CLEAR
000298: 34,3302           04067                                    SURFFLAG
000299: 34,3303           04666                                    LETABORT
000300: 34,3304           77214                           SET      VLOAD
000301: 34,3305           05062                                    APSFLAG
000302: 34,3306           01220                                    RN
000303: 34,3307           16032                           STODL    ALPHAV
000304: 34,3310           01234                                    PIPTIME
000305: 34,3311           45014                           SET      CALL
000306: 34,3312           01463                                    LUNAFLAG
000307: 34,3313           26406                                    LAT-LONG
000308: 34,3314           77201                           SETPD    VLOAD                                 #  COMPUTE RLS AND STORE IT AWAY
000309: 34,3315           00001                                    0
000310: 34,3316           01220                                    RN
000311: 34,3317           65352                           VSL2     PDDL
000312: 34,3320           01234                                    PIPTIME
000313: 34,3321           45006                           PUSH     CALL
000314: 34,3322           51644                                    R-TO-RP
000315: 34,3323           02021                           STORE    RLS
000316: 34,3324           77776                           EXIT
000317: 34,3325           33345                           CAF      V06N43*                               #  ASTRONAUT:  NOW LOOK WHERE YOU ENDED UP
000318: 34,3326           04607                           TC       BANKCALL
000319: 34,3327           20471                           CADR     GOFLASH
000320: 34,3330           16001                           TCF      GOTOPOOH                              #  TERMINATE
000321: 34,3331           13333                           TCF      +2                                    #  PROCEED
000322: 34,3332           13325                           TCF      -5                                    #  RECYCLE
000323:
000324: 34,3333           06060                           TC       INTPRET
000325: 34,3334           64375                           VLOAD    MXV                                   #  INITIALIZE GSAV AND (USING REFMF)
000326:


000328: 34,3335           01220                                    RN                                    #  YNBSAV, ZNBSAV AND ATTFLAG FOR P57
000329: 34,3336           01732                                    REFSMMAT
000330: 34,3337           45056                           UNIT     CALL
000331: 34,3340           47640                                    CDU*SMNB
000332: 34,3341           36222                           STCALL   GSAV
000333: 34,3342           33470                                    REFMF
000334: 34,3343           77776                           EXIT
000335:
000336: 34,3344           16001                           TCF      GOTOPOOH                              #  ASTRONAUT:  PLEASE SELECT P57
000337:
000338:
000339: 34,3345           01453        V06N43*            VN       0643

End of include-file THE_LUNAR_LANDING.agc.  Parent file is MAIN.agc


