
Source Code


000002:                                                                                                  ## Copyright:   Public domain.
000003:                                                                                                  ## Filename:    THROTTLE_CONTROL_ROUTINES.agc
000004:                                                                                                  ## Purpose:     A section of Luminary revision 210.
000005:                                                                                                  ##              It is part of the source code for the Lunar Module's (LM)
000006:                                                                                                  ##              Apollo Guidance Computer (AGC) for Apollo 15-17.
000007:                                                                                                  ##              This file is intended to be a faithful transcription, except
000008:                                                                                                  ##              that the code format has been changed to conform to the
000009:                                                                                                  ##              requirements of the yaYUL assembler rather than the
000010:                                                                                                  ##              original YUL assembler.
000011:                                                                                                  ## Reference:   pp. 789-793
000012:                                                                                                  ## Assembler:   yaYUL
000013:                                                                                                  ## Contact:     Ron Burkey <info@sandroid.org>.
000014:                                                                                                  ## Website:     www.ibiblio.org/apollo/index.html
000015:                                                                                                  ## Mod history: 2016-11-17 JL   Created from Luminary131 version.
000016:                                                                                                  ##              2016-12-01 RSB  Completed transcription
000017:                                                                                                  ##              2016-12-10 HG   fix operator DXCH  -> XCH
000018:                                                                                                  ##                                           DOUBLE -> DDOUBL
000019:                                                                                                  ##              2016-12-25 RSB  Comment-text proofed using ProoferComments
000020:                                                                                                  ##                              and corrected errors found.
000021:


000023: 31,2144                                           BANK     31
000024:
000025: 31,2000                                           SETLOC   FTHROT
000026:
000027: 31,2000                                           BANK
000028:
000029: 31,2144  E7,1612                                  EBANK=   PIF
000030:
000031: 31,2144                                           COUNT*   $$/THROT
000032:                                                                                                  #  * * * * * * * * * * * * * * * * * * * * * * * * * * * * * * * * * * * * * * * * * * * * * * * * * * * * * * * *
000033:                                                                                                  #  HERE FC, DESIRED THRUST, AND FP, PRESENT THRUST, UNWEIGHTED, ARE COMPUTED.
000034:
000035: 31,2144           31245        THROTTLE           CA       ABDELV                                #  COMPUTE PRESENT ACCELERATION IN UNITS OF
000036: 31,2145           00006                           EXTEND                                         #   2(-4) M/CS/CS, SAVING SERVICER TROUBLE
000037: 31,2146           72363                           MP       /AF/CNST
000038: 31,2147           00006                 +3        EXTEND
000039: 31,2150           23607                           QXCH     RTNHOLD
000040: 31,2151           02344        AFDUMP             TC       MASSMULT
000041: 31,2152           53470                           DXCH     FP                                    #  FP = PRESENT THRUST
000042: 31,2153           00006                           EXTEND
000043: 31,2154           31464                           DCA      /AFC/
000044: 31,2155           02344                           TC       MASSMULT
000045: 31,2156           00004                           INHINT                                         #  PREVENT A DOWNRUPT
000046: 31,2157           55615                           TS       FC                                    #  FC = THRUST DESIRED BY GUIDANCE
000047: 31,2160           53466                           DXCH     FCODD                                 #  FCODD = WHAT IT IS GOING TO GET
000048:
000049:
000050: 31,2161           00006                           EXTEND
000051: 31,2162           31234                           DCA      PIPTIME
000052: 31,2163           53753                           DXCH     GTCTIME                               #  DOWNLINK TIME AGREEMENT
000053: 31,2164           00003                           RELINT
000054:
000055:                                                                                                  #  COMPUTE DESIRED THRUST FOR DISPLAY AS A PERCENTAGE OF 10,500 POUNDS
000056:
000057: 31,2165           32365                           CAF      4FMAXNOM                              #  MOVE 4FMAXNOM TO ERASABLE FOR DV BELOW
000058: 31,2166           54002                           TS       Q
000059: 31,2167           31615                           CA       FC
000060: 31,2170           72364                           MASK     OCT17777                              #  FOR SAFETY
000061: 31,2171           00006                           EXTEND
000062: 31,2172           10002                           DV       Q
000063: 31,2173           00006                           EXTEND
000064: 31,2174           74774                           MP       4SECS
000065: 31,2175           55750                           TS       THRDISP                               #  FOR DISPLAY IN  N92
000066:
000067:                                                                                                  #  IF IT HAS BEEN LESS THAN 3 SECONDS SINCE THE LAST THROTTLING, AUGMENT FP USING THE FWEIGHT CALCULATED THEN.
000068:
000069: 31,2176           41617                           CS       TTHROT                                #  THIS CODING ASSUMES A FLATOUT WITHIN


000071: 31,2177           60025                           AD       TIME1                                 #    80 SECONDS BEFORE FIRST THROTTLE CALL
000072: 31,2200           74724                           MASK     POSMAX
000073: 31,2201           40000                           COM
000074: 31,2202           64773                           AD       3SECS
000075: 31,2203           00006                           EXTEND
000076: 31,2204           62210                           BZMF     WHERETO                               #  BRANCH IF (TIME1-TTHROT +1) > 3 SECONDS
000077: 31,2205           00006                           EXTEND
000078: 31,2206           31611                           DCA      FWEIGHT
000079: 31,2207           21470                           DAS      FP
000080:
000081:
000082:                                                                                                  #      THIS LOGIC DETERMINES THE THROTTLING IN THE REGION 10% - 94%.   THE MANUAL THROTTLE, NOMINALLY SET AT
000083:                                                                                                  #  MINIMUM BY ASTRONAUT OR MISSION CONTROL PROGRAMS, PROVIDES THE LOWER BOUND.   A STOP IN THE THROTTLE HARDWARE
000084:                                                                                                  #  PROVIDES THE UPPER.
000085:
000086: 31,2210           35005        WHERETO            CA       EBANK5                                #  INITIALIZE L*WCR*T AND H*GHCR*T FROM
000087: 31,2211           54003                           TS       EBANK                                 #   PAD LOADED ERASABLES IN W-MATRIX
000088: 31,2212  E5,1472                                  EBANK=   LOWCRIT
000089: 31,2212           00006                           EXTEND
000090: 31,2213           31473                           DCA      LOWCRIT
000091: 31,2214           52131                           DXCH     L*WCR*T
000092: 31,2215           35007                           CA       EBANK7
000093: 31,2216           54003                           TS       EBANK
000094: 31,2217  E7,1612                                  EBANK=   PIF
000095: 31,2217           44746                           CS       ZERO                                  #  INITIALIZE PIFPSET
000096: 31,2220           55606                           TS       PIFPSET
000097: 31,2221           40131                           CS       H*GHCR*T
000098: 31,2222           61620                           AD       FCOLD
000099: 31,2223           00006                           EXTEND
000100: 31,2224           62236                           BZMF     LOWFCOLD                              #  BRANCH IF FCOLD < OR = HIGHCRIT
000101: 31,2225           40130                           CS       L*WCR*T
000102: 31,2226           61465                           AD       FCODD
000103: 31,2227           00006                           EXTEND
000104: 31,2230           62233                           BZMF     FCOMPSET                              #  BRANCH IF FC < OR = LOWCRIT
000105: 31,2231           31467                           CA       FP                                    #  SEE NOTE 1
000106: 31,2232           12243                           TCF      FLATOUT1
000107:
000108: 31,2233           42002        FCOMPSET           CS       FMAXODD                               #  SEE NOTE 2
000109: 31,2234           61467                           AD       FP
000110: 31,2235           12245                           TCF      FLATOUT2
000111:
000112: 31,2236           40131        LOWFCOLD           CS       H*GHCR*T
000113: 31,2237           61465                           AD       FCODD
000114: 31,2240           00006                           EXTEND
000115: 31,2241           62246                           BZMF     DOPIF                                 #  BRANCH IF FC < OR = HIGHCRIT
000116:
000117: 31,2242           32003                           CA       FMAXPOS                               #  NO:   THROTTLE-UP
000118: 31,2243           57465        FLATOUT1           XCH      FCODD
000119: 31,2244           34730                           CA       FEXTRA


000121: 31,2245           55606        FLATOUT2           TS       PIFPSET
000122:
000123:                                                                                                  #  NOTE 1   FC IS SET EQUAL TO FP SO PIF WILL BE ZERO.   THIS IS DESIRABLE
000124:                                                                                                  #           AS THERE IS ACTUALLY NO THROTTLE CHANGE.
000125:
000126:                                                                                                  #  NOTE 2   HERE, SINCE WE ARE ABOUT TO RETURN TO THE THROTTLEABLE REGION
000127:                                                                                                  #           (BELOW 55%) THE QUANTITY -(FMAXODD - FP) IS COMPUTED AND PUT
000128:                                                                                                  #           INTO PIFPSET TO COMPENSATE FOR THE DIFFERENCE BETWEEN THE
000129:                                                                                                  #           NUMBER OF BITS CORRESPONDING TO FULL THROTTLE (FMAXODD) AND THE
000130:                                                                                                  #           NUMBER CORRESPONDING TO ACTUAL THRUST (FP).   THUS THE TOTAL
000131:                                                                                                  #           THROTTLE COMMAND PIF = FC - FP -(FMAXODD - FP) = FC - FMAXODD.
000132:
000133: 31,2246           03751        DOPIF              TC       FASTCHNG
000134: 31,2247           00006                           EXTEND
000135: 31,2250           31466                           DCA      FCODD
000136: 31,2251           55620                           TS       FCOLD
000137: 31,2252           53613                           DXCH     PIF
000138: 31,2253           00006                           EXTEND
000139: 31,2254           41470                           DCS      FP
000140: 31,2255           21613                           DAS      PIF                                   #  PIF = FC - FP, NEVER EQUALS +0
000141:
000142:
000143: 31,2256           31612        DOIT               CA       PIF
000144: 31,2257           61606                           AD       PIFPSET                               #  ADD IN PIFPSET, WITHOUT CHANGING PIF
000145: 31,2260           55614                           TS       PSEUDO55
000146: 31,2261           54055                           TS       THRUST
000147: 31,2262           34741                           CAF      BIT4
000148: 31,2263           00006                           EXTEND
000149: 31,2264           05014                           WOR      CHAN14
000150: 31,2265           30025                           CA       TIME1
000151: 31,2266           55617                           TS       TTHROT
000152:
000153:                                                                                                  #      SINCE /AF/ IS NOT AN INSTANTANEOUS ACCELERATION, BUT RATHER AN "AVERAGE" OF THE ACCELERATION LEVELS DURING
000154:                                                                                                  #  THE PRECEEDING PIPA INTERVAL, AND SINCE FP IS COMPUTED DIRECTLY FROM /AF/, FP IN ORDER TO CORRESPOND TO THE
000155:                                                                                                  #  ACTUAL THRUST LEVEL AT THE END OF THE INTERVAL MUST BE WEIGHTED BY
000156:
000157:                                                                                                  #                                    PIF(PPROCESS + TL)     PIF /PIF/
000158:                                                                                                  #                          FWEIGHT = ------------------ + -------------
000159:                                                                                                  #                                          PGUID          2 PGUID FRATE
000160:
000161:                                                                                                  #  WHERE PPROCESS IS THE TIME BETWEEN PIPA READING AND THE START OF THROTTLING, PGUID IS THE GUIDANCE PERIOD, AND
000162:                                                                                                  #  FRATE IS THE THROTTLING RATE (32 UNITS PER CENTISECOND).  PGUID IS EITHER 1 OR 2 SECONDS. THE "TL" IN THE
000163:                                                                                                  #  FIRST TERM REPRESENTS THE ENGINE'S RESPONSE LAG.   HERE FWEIGHT IS COMPUTED FOR USE NEXT PASS.
000164:
000165: 31,2267           31762                           CA       THISTPIP   +1                         #  INITIALIZE FWEIGHT COMP AS IF FOR P66
000166: 31,2270           54130                           TS       BUF
000167:
000168: 31,2271           41010                           CS       MODREG                                #  ARE WE IN FACT IN P66?
000169: 31,2272           62454                           AD       DEC66
000170: 31,2273           00006                           EXTEND


000172: 31,2274           12301                           BZF      FWCOMP                                #  YES
000173:
000174: 31,2275           31234                           CA       PIPTIME    +1                         #  NO:   INITIALIZE FOR TWO SECOND PERIOD
000175: 31,2276           54130                           TS       BUF
000176: 31,2277           34774                           CAF      4SECS
000177: 31,2300           12302                           TCF      FWCOMP     +1
000178:
000179: 31,2301           34771        FWCOMP             CAF      2SECS
000180: 31,2302           54002                 +1        TS       Q
000181: 31,2303           00006                           EXTEND
000182: 31,2304           74737                           MP       BIT6
000183: 31,2305           22131                           LXCH     BUF        +1
000184: 31,2306           40130                           CS       BUF                                   #  TIME OF LAST PIPA READING.
000185: 31,2307           60025                           AD       TIME1
000186: 31,2310           62004                           AD       THROTLAG                              #  COMPENSATE FOR ENGINE RESPONSE LAG
000187: 31,2311           74350                           MASK     LOW8                                  #  MAKE SURE SMALL AND POSITIVE
000188: 31,2312           22007                           ZL
000189: 31,2313           00006                           EXTEND
000190: 31,2314           10002                           DV       Q
000191: 31,2315           00006                           EXTEND
000192: 31,2316           71612                           MP       PIF
000193: 31,2317           20001                           DDOUBL
000194: 31,2320           53611                           DXCH     FWEIGHT
000195: 31,2321           11612                           CCS      PIF
000196: 31,2322           64744                           AD       ONE
000197: 31,2323           12325                           TCF      +2
000198: 31,2324           64744                           AD       ONE
000199: 31,2325           00006                           EXTEND
000200: 31,2326           71612                           MP       PIF
000201: 31,2327           00006                           EXTEND
000202: 31,2330           10131                           DV       BUF        +1
000203: 31,2331           22007                           ZL
000204: 31,2332           21611                           DAS      FWEIGHT
000205:
000206:
000207: 31,2333           01607        THDUMP             TC       RTNHOLD
000208:
000209:
000210:                                                                                                  #  FLATOUT THROTTLES UP THE DESCENT ENGINE, AND IS CALLED AS A BASIC SUBROUTINE.
000211:
000212: 31,2334           34730        FLATOUT            CAF      BIT13                                 #  4096 PULSES
000213: 31,2335           55606        WHATOUT            TS       PIFPSET                               #  USE PIFPSET SO FWEIGHT WILL BE ZERO
000214: 31,2336           44746                           CS       ZERO
000215: 31,2337           55620                           TS       FCOLD
000216: 31,2340           55612                           TS       PIF
000217: 31,2341           00006                           EXTEND
000218: 31,2342           23607                           QXCH     RTNHOLD
000219: 31,2343           12256                           TCF      DOIT
000220:


000222:                                                                                                  #  MASSMULT SCALES ACCELERATION, ARRIVING IN A AND L IN UNITS OF 2(-4) M/CS/CS, TO FORCE IN PULSE UNITS.
000223:
000224: 31,2344           00006        MASSMULT           EXTEND
000225: 31,2345           22130                           QXCH     BUF
000226: 31,2346           52155                           DXCH     MPAC
000227: 31,2347           07124                           TC       DMP
000228: 31,2350           01243                           ADRES    MASS
000229: 31,2351           07124                           TC       DMP                                   #  LEAVES PROPERLY SCALED FORCE IM MPAC
000230: 31,2352           02005                           ADRES    SCALEFAC
000231: 31,2353           07300                           TC       TPAGREE
000232: 31,2354           30154                           CA       MPAC
000233: 31,2355           00006                           EXTEND
000234: 31,2356           12361                           BZF      +3
000235: 31,2357           34724                           CAF      POSMAX
000236: 31,2360           00130                           TC       BUF
000237: 31,2361           52156                           DXCH     MPAC       +1
000238: 31,2362           00130                           TC       BUF
000239:
000240:
000241:                                                                                                  #  CONSTANTS:-
000242:
000243: 31,2363     4730               FEXTRA             =        BIT13                                 #         FEXT +5.13309020 E+4
000244:
000245: 31,2363           04143        /AF/CNST           DEC      .13107
000246:
000247: 31,2364           17777        OCT17777           OCT      17777
000248: 31,2365           35074        4FMAXNOM           DEC      14908      B-14                       #  EQUIVALENT TO 10,500 LBS.
000249:                                                                                                  #  * * * * * * * * * * * * * * * * * * * * * * * * * * * * * * * * * * * * * * * * * * * * * * * * * * * * * * * *

End of include-file THROTTLE_CONTROL_ROUTINES.agc.  Parent file is MAIN.agc


