
Source Code


000002:                                                                                                  ## Copyright:   Public domain.
000003:                                                                                                  ## Filename:    TIME_OF_FREE_FALL.agc
000004:                                                                                                  ## Purpose:     A section of Luminary revision 210.
000005:                                                                                                  ##              It is part of the source code for the Lunar Module's (LM)
000006:                                                                                                  ##              Apollo Guidance Computer (AGC) for Apollo 15-17.
000007:                                                                                                  ##              This file is intended to be a faithful transcription, except
000008:                                                                                                  ##              that the code format has been changed to conform to the
000009:                                                                                                  ##              requirements of the yaYUL assembler rather than the
000010:                                                                                                  ##              original YUL assembler.
000011:                                                                                                  ## Reference:   pp. 1265-1280
000012:                                                                                                  ## Assembler:   yaYUL
000013:                                                                                                  ## Contact:     Ron Burkey <info@sandroid.org>.
000014:                                                                                                  ## Website:     www.ibiblio.org/apollo/index.html
000015:                                                                                                  ## Mod history: 2016-11-17 JL   Created from Luminary131 version.
000016:                                                                                                  ##              2016-12-10 MAS  Began transcription.
000017:                                                                                                  ##              2016-12-10 MAS  Completed transcription.
000018:


000020:                                                                                                  #           THE TFF SUBROUTINES MAY BE USED IN EITHER EARTH OR MOON CENTERED COORDINATES. THE TFF ROUTINES NEVER
000021:                                                                                                  #  KNOW WHICH ORIGIN APPLIES. IT IS THE USER WHO KNOWS, AND WHO SUPPLIES  RONE, VONE AND 1/SQRT(MU)  AT THE
000022:                                                                                                  #  APPROPRIATE SCALE LEVEL FOR THE PROPER PRIMARY BODY.
000023:
000024:                                                                                                  #           EARTH ORIGIN           POSITION      -29       METERS
000025:                                                                                                  #                                  VELOCITY      -7        METERS/CENTISECOND
000026:                                                                                                  #                                  1/SQRT(MU)    +17       SQRT(CS SQ/METERS CUBED)
000027:
000028:                                                                                                  #           MOON ORIGIN            POSITION      -27       METERS
000029:                                                                                                  #                                  VELOCITY      -5        METERS/CENTISECONDS
000030:                                                                                                  #                                  1/SQRT(MU)    +14       SQRT(CS SQ/METERS CUBED)
000031:
000032:                                                                                                  #  ALL DATA PROVIDED TO AND RECEIVED FROM ANY TFF SUBROUTINE WILL BE AT ONE OF THE LEVELS ABOVE. IN ALL CASES,
000033:                                                                                                  #  THE FREE FALL TIME IS RETURNED IN CENTISECONDS AT (-28). PROGRAM  TFF/CONIC  WILL GENERATE VONE/RTMU  AND
000034:                                                                                                  #  LEAVE IT IN  VONE' AT (+10) IF EARTH ORIGIN AND (+9) IF MOON ORIGIN.
000035:                                                                                                  #           THE USER MUST STORE THE STATE VECTOR IN  RONE, VONE  AND MU IN  THE FORM 1/SQRT(MU) IN  TFF/RTMU
000036:                                                                                                  #  AT THE PROPER SCALE BEFORE CALLING  TFF/CONIC. SINCE  RONE, VONE  ARE IN THE EXTENDED VERB STORAGE AREA,
000037:                                                                                                  #  THE USER MUST ALSO LOCK OUT THE EXTENDED VERBS, AND RELEASE THEM WHEN FINISHED.
000038:                                                                                                  #           PROGRAMS     CALC/TFF  AND  CALC/TPER  ASSUME THAT THE TERMINAL RADIUS IS LESS THAN THE PRESENT
000039:                                                                                                  #  RADIUS. THIS RESTRICTION CAN BE REMOVED BY A  15 W CODING CHANGE, BUT AT PRESENT IT IS NOT DEEMED NECESSARY.
000040:
000041:                                                                                                  #           THE FOLLOWING ERASABLE QUANTITIES ARE USED BY THE TFF ROUTINES, AND ARE LOCATED IN THE PUSH LIST.
000042:
000043:                                                                                                  #  BELOW      E:   IS USED FOR EARTH ORIGIN SCALE
000044:                                                                                                  #             M:   IS USED FOR MOON  ORIGIN SCALE
000045:
000046:                                                                                                  # TFFSW          =       119D       BIT1      0 = CALCTFF        1 = CALCTPER
000047: 10,2213                        TFFDELQ            =        10D                                   #             Q2-Q1              E: (-16)  M: (-15)
000048: 10,2213                        RMAG1              =        12D                                   #             ABVAL(RN)  M       E: (-29)  M: (-27)
000049:                                                                                                  # RPER           =       14D                  PERIGEE RADIUS M   E: (-29)  M: (-27)
000050: 10,2213                        TFFQ1              =        14D                                   #             R.V / SQRT(MUE)    E: (-16)  M: (-15)
000051:                                                                                                  # SDELF/2                                     SIN(THETA) /2
000052: 10,2213                        CDELF/2            =        14D                                   #             COS(THETA) /2
000053:                                                                                                  # RAPO           =       16D                  APOGEE RADIUS  M   E: (-29)  M: (-27)
000054: 10,2213                        NRTERM             =        16D                                   #             TERMINAL RADIUS M  E: (-29+NR)
000055:                                                                                                  #                                M: (-27+NR)
000056: 10,2213                        RTERM              =        18D                                   #             TERMINAL RADIUS M  E: (-29)  M: (-27)
000057: 10,2213                        TFFVSQ             =        20D                                   #             -(V SQUARED/MU)  1/M  E: (20)  M: (18)
000058: 10,2213                        TFF1/ALF           =        22D                                   #             SEMI MAJ AXIS  M  E: (-22-2 NA)
000059:                                                                                                  #                               M: (-20-2 NA)
000060: 10,2213                        TFFRTALF           =        24D                                   #             SQRT(ALFA)  E: (10+NA)  M: (9+NA)
000061: 10,2213                        TFFALFA            =        26D                                   #             ALFA  1/M   E: (26-NR)  M: (24-NR)
000062: 10,2213                        TFFNP              =        28D                                   #             SEMI LATUS RECTUM  M  E: (-38+2 NR)
000063:                                                                                                  #                                   M: (-36+2 NR)
000064: 10,2213                        TFF/RTMU           =        30D                                   #             1/SQRT(MU)         E: (17)   M: (14)
000065: 10,2213                        NRMAG              =        32D                                   #             PRESENT RADIUS  M  E: (-29+NR)
000066:                                                                                                  #                                M: (-27+NR)
000067: 10,2213                        TFFX               =        34D
000068: 10,2213                        TFFTEM             =        36D                                   #             TEMPORARY
000069:


000071:                                                                                                  #                                           REGISTERS S1, S2 ARE UNTOUCHED BY ANY TFF SUBROUTINE
000072:                                                                                                  #                                           INDEX REGISTERS X1, X2 ARE USED BY ALL TFF SUBROUTINES. THEY ARE ESTAB-
000073:                                                                                                  #                                           LISHED IN TFF/CONIC AND MUST BE PRESERVED BETWEEN CALLS TO SUBSEQUENT
000074:                                                                                                  #                                           SUBROUTINES.
000075:                                                                                                  #                                           -NR                             C(X1) = NORM COUNT OF RMAG
000076:                                                                                                  #                                           -NA                             C(X2)= NORM COUNT OF SQRT(ABS(ALFA))
000077:


000079:
000080:
000081:                                                                                                  #  SUBROUTINE NAME:     TFFCONIC                                           DATE:    01.29.67
000082:                                                                                                  #  MOD NO:  0                                                              LOG SECTION:    TIME OF FREE FALL
000083:                                                                                                  #  MOD BY:  RR BAIRNSFATHER
000084:                                                                                                  #  MOD NO:  1           MOD BY:  RR BAIRNSFATHER      DATE:  11 APR 67
000085:                                                                                                  #  MOD NO:  2           MOD BY:  RR BAIRNSFATHER      DATE:  21 NOV 67     ADD MOON MU.
000086:                                                                                                  #  MOD NO:  3           MOD BY:  RR BAIRNSFATHER      DATE:  21 MAR 68     ACCEPT DIFFERENT EARTH/MOON SCALES
000087:                                                                                                  #  FUNCTIONAL DESCRIPTION:      THIS SUBROUTINE IS CALLED TO COMPUTE THOSE CONIC PARAMETERS REQUIRED BY THE TFF
000088:                                                                                                  #           SUBROUTINES AND TO ESTABLISH THEM IN THE PUSH LIST AREA. THE PARAMETERS ARE LISTED UNDER OUTPUT.
000089:                                                                                                  #           THE EQUATIONS ARE
000090:                                                                                                  #                  -   -  -
000091:                                                                                                  #                  H = RN*VN                                               ANGULAR MOMENTUM
000092:                                                                                                  #                        - -
000093:                                                                                                  #                  LCP = H.H / MU                                          SEMI LATUS RECTUM
000094:                                                                                                  #                                -  -
000095:                                                                                                  #                  ALFA = 2/RN - VN.VN / MU                                RECIPROCAL SEMI MAJ AXIS, SIGNED
000096:
000097:                                                                                                  #           AND ALFA IS POS FOR ELLIPTIC  ORBITS
000098:                                                                                                  #                        0  FOR PARABOLIC ORBITS
000099:                                                                                                  #                       NEG FOR HYPERBOLIC ORBITS.
000100:                                                                                                  #           SUBROUTINE ALSO COMPUTES AND SAVES  RMAG.
000101:                                                                                                  #  CALLING SEQUENCE:
000102:                                                                                                  #           TFFCONIC  EXPECTS CALLER TO ENTER WITH CORRECT GRAVITATIONAL CONSTANT IN MPAC, IN THE FORM
000103:                                                                                                  #           1/SQRT(MU). PROGRAM WILL SAVE IN  TFF/RTMU  . THE SCALE IS DETERMINED BY WHETHER EARTH OR MOON
000104:                                                                                                  #           ORIGIN IS USED.  THE CALLER MUST LOCK OUT THE EXTENDED VERBS BEFORE PROVIDING STATE VECTOR IN RONE,
000105:                                                                                                  #           VONE  AT PROPER SCALE. THE EXTENDED VERBS MUST BE RESTORED WHEN THE CALLER IS FINISHED USING THE
000106:                                                                                                  #           TFF ROUTINES.
000107:                                                                                                  #           ENTRY POINT  TFFCONMU  EXPECTS THAT  TFF/RTMU  IS ALREADY LOADED.
000108:                                                                                                  #           TO SPECIFY MU:      DLOAD  CALL                IF MU ALREADY STORED:    CALL
000109:                                                                                                  #                                      YOURMU       1/RTMU   E: (17)  M: (14)              TFFCONMU
000110:                                                                                                  #                                      TFFCONIC
000111:                                                                                                  #           PUSHLOC = PDL+0, ARBITRARY IF LEQ 18D
000112:
000113:                                                                                                  #  SUBROUTINES CALLED:  NONE
000114:                                                                                                  #  NORMAL EXIT MODES:   RVQ
000115:                                                                                                  #  ALARMS:  NONE
000116:                                                                                                  #  OUTPUT:  THE FOLLOWING ARE STORED IN THE PUSH LIST AREA.
000117:                                                                                                  #           RMAG1  E:(-29) M:(-27) M  RN, PRESENT RADIUS LENGTH.
000118:                                                                                                  #           NRMAG  E: (-29+NR)     M  RMAG, NORMALIZED
000119:                                                                                                  #                  M: (-27+NR)
000120:                                                                                                  #           X1                     -NR, NORM COUNT
000121:                                                                                                  #           TFFNP  E: (-38+2NR)    M  LCP, SEMI LATUS RECTUM, WEIGHTED BY NR.       FOR VGAMCALC
000122:                                                                                                  #                  M: (-36+2NR)
000123:                                                                                                  #           TFF/RTMU  E:(17)  M:(14)       1/SQRT(MU)
000124:                                                                                                  #           TFFVSQ E:(20)  M:(18)  1/M   -(V SQ/MU): PRESENT VELOCITY,NORMALIZED.   FOR VGAMCALC
000125:                                                                                                  #           TFFALFA  E: (26-NR)    1/M   ALFA, WEIGHTED BY NR
000126:                                                                                                  #                    M: (24-NR)
000127:                                                                                                  #           TFFRTALF  E: (10+NA)   SQRT(ALFA), NORMALIZED
000128:                                                                                                  #                     M: (9+NA)


000130:                                                                                                  #           X2                     -NA, NORM COUNT
000131:                                                                                                  #           TFF1/ALF  E: (-22-2NA) SIGNED SEMI MAJ AXIS, WEIGHTED BY NA
000132:                                                                                                  #                     M: (-20-2NA)
000133:                                                                                                  #           PUSHLOC AT PDL+0
000134:                                                                                                  #           THE FOLLOWING  IS STORED IN GENERAL ERASABLE
000135:                                                                                                  #           VONE'  E:(10)  M:(9)   V/RT(MU), NORMALIZED VELOCITY
000136:                                                                                                  #  ERASABLE INITIALIZATION REQUIRED:
000137:                                                                                                  #           RONE   E:(-29)  M:(-27)  M      STATE VECTOR                   LEFT BY CALLER
000138:                                                                                                  #           VONE   E:(-7)   M:(-5)   M/CS   STATE VECTOR                   LEFT BY CALLER
000139:                                                                                                  #           TFF/RTMU  E:(17)  M:(14)      1/RT(CS SQ/M CUBE)               IF ENTER VIA  TFFCONMU.
000140:                                                                                                  #  DEBRIS:  QPRET,    PDL+0 ... PDL+3
000141:
000142:
000143: 33,3575                                           BANK     33
000144: 27,2000                                           SETLOC   TOF-FF
000145: 27,2000                                           BANK
000146:
000147: 27,3363                                           COUNT*   $$/TFF
000148:
000149: 27,3363           00037        TFFCONIC           STORE    TFF/RTMU                              #  1/SQRT(MU)       E: (17)   M: (14)
000150:
000151: 27,3364           53575        TFFCONMU           VLOAD    UNIT                                  #  COME HERE WITH TFFRTMU LOADED.
000152: 27,3365           02200                                    RONE                                  #  SAVED RN.  M     E: (-29)  M: (-27)
000153: 27,3366           77725                           PDDL                                           #  UR/2 TO PDL+0, +5
000154: 27,3367           00045                                    36D                                   #  MAGNITUDE
000155: 27,3370           00015                           STORE    RMAG1                                 #  M    E: (-29)   M: (-27)
000156:
000157: 27,3371           77701                           NORM
000158: 27,3372           00047                                    X1                                    #  -NR
000159: 27,3373           24041                           STOVL    NRMAG                                 #  RMAG  M   E: (-29+NR)  M: (-27+NR)
000160: 27,3374           02206                                    VONE                                  #  SAVED VN.  M/CS   E: (-7)   M: (-5)
000161: 27,3375           77761                           VXSC
000162: 27,3376           00037                                    TFF/RTMU                              #  E: (17)   M: (14)
000163: 27,3377           02161                           STORE    VONE'                                 #  VN/SQRT(MU)   E: (10)   M: (9)
000164:
000165: 27,3400           47361                           VXSC     VXV
000166: 27,3401           00041                                    NRMAG                                 #  E: (-29+NR)  M: (-27+NR)
000167:                                                                                                  #  UR/2 FROM PDL
000168: 27,3402           47572                           VSL1     VSQ                                   #  BEFORE:  E:(-19+NR)  M:(-18+NR)
000169: 27,3403           14035                           STODL    TFFNP                                 #  LC P  M   E:(-38+2NR)  M:(-36+2NR)
000170:                                                                                                  #  SAVE ALSO FOR VGAMCALC
000171: 27,3404           06475                                    TFF1/4
000172: 27,3405           63271                           DDV      PDVL                                  #  (2/RMAG)  1/M   E:(26-NR)   M:(24-NR)
000173: 27,3406           00041                                    NRMAG                                 #  RMAG  M   E:(-29+NR)  M:(-27+NR)
000174: 27,3407           02161                                    VONE'                                 #  SAVED VN.   E: (10)   M: (9)
000175: 27,3410           57436                           VSQ      DCOMP                                 #  KEEP MPAC+2 HONEST FOR SQRT.
000176: 27,3411           00025                           STORE    TFFVSQ                                #  -(V SQ/MU)   E:(20)   M:(18)
000177:                                                                                                  #  SAVE FOR VGAMCALC
000178: 27,3412           43257                           SR*      DAD


000180: 27,3413           20573                                    0          -6,1                       #  GET -VSQ/MU   E:(26-NR)   M:(24-NR)
000181: 27,3414           77626                           STADR
000182:                                                                                                  #  2/RMAG   FROM PDL+2
000183: 27,3415           77744                           STORE    TFFALFA                               #  ALFA  1/M   E:(26-NR)   M:(24-NR)
000184: 27,3416           41457                           SL*      PUSH                                  #  TEMP SAVE ALFA    E:(20)   M:(18)
000185: 27,3417           20173                                    0          -6,1
000186: 27,3420           75446                           ABS      SQRT                                  #  E:(10)   M:(9)
000187: 27,3421           77701                           NORM
000188: 27,3422           00050                                    X2                                    #  X2 = -NA
000189: 27,3423           00031                           STORE    TFFRTALF                              #  SQRT( ABS(ALFA) )  E:(10+NA)   M:(9+NA)
000190: 27,3424           75316                           DSQ      SIGN                                  #  NOT SO ACCURATE, BUT OK
000191:                                                                                                  #  ALFA FROM PDL+2   E:(20)   M:(18)
000192: 27,3425           55254                           BZE      BDDV                                  #  SET 1/ALFA =0, TO SHOW SMALL ALFA
000193: 27,3426           57430                                    +2
000194: 27,3427           06475                                    TFF1/4
000195: 27,3430           00027                 +2        STORE    TFF1/ALF                              #  1/ALFA   E:(-22-2 NA)   M:(-20-2 NA)
000196: 27,3431           77616        DUMPCNIC           RVQ
000197:
000198:                                                                                                  #                          39 W
000199:


000201:                                                                                                  #  SUBROUTINE NAME:     TFFRP/RA                                           DATE:  01.17.67
000202:                                                                                                  #  MOD NO:  0                                                              LOG SECTION:    TIME OF FREE FALL
000203:                                                                                                  #  MOD BY:  RR BAIRNSFATHER
000204:                                                                                                  #  MOD NO:  1           MOD BY:  RR BAIRNSFATHER      DATE:  11 APR 67
000205:                                                                                                  #  MOD NO:  2           MOD BY:  RR BAIRNSFATHER      DATE:  21 MAR 68     ACCEPT DIFFERENT EARTH/MOON SCALES
000206:                                                                                                  #                                                                          ALSO IMPROVE ACCURACY OF RAPO.
000207:                                                                                                  #  FUNCTIONAL DESCRIPTION:         USED BY CALCTPER AND TFF DISPLAYS TO CALCULATE PERIGEE RADIUS AND ALSO
000208:                                                                                                  #           APOGEE RADIUS FOR A GENERAL CONIC.
000209:                                                                                                  #           PROGRAM GIVES PERIGEE RADIUS AS               APOGEE RADIUS IS GIVEN BY
000210:                                                                                                  #                  RP = P /(1+E)                                 RA = (1+E) / ALFA
000211:                                                                                                  #           WHERE   2
000212:                                                                                                  #                  E  = 1 - P ALFA
000213:                                                                                                  #           IF RA IS NEGATIVE OR SHOWS DIVIDE OVERFLOW, THEN RA = POSMAX BECAUSE
000214:                                                                                                  #                  1. APOGEE RADIUS IS NOT MEANINGFUL FOR HYPERBOLA
000215:                                                                                                  #                  2. APOGEE RADIUS IS NOT DEFINED FOR PARABOLA
000216:                                                                                                  #                  3. APOGEE RADIUS EXCEEDS THE SCALING FOR ELLIPSE.
000217:                                                                                                  #           THIS SUBROUTINE REQUIRED THE SIGNED  RECIPROCAL SEMI MAJ AXIS,  ALFA,  AND SEMI LATUS RECTUM AS DATA.
000218:                                                                                                  #  CALLING SEQUENCE:  CALL
000219:                                                                                                  #                            TFFRP/RA
000220:                                                                                                  #           PUSHLOC = PDL+0, ARBITRARY IF LEQ 10D
000221:                                                                                                  #           C(MPAC) UNSPECIFIED
000222:
000223:                                                                                                  #  SUBROUTINES CALLED:  NONE
000224:                                                                                                  #  NORMAL EXIT MODE:    RVQ
000225:                                                                                                  #           IF ELLIPSE, WITHIN NORMAL SCALING, RAPO IS CORRECT.
000226:                                                                                                  #           OTHERWISE, RAPO = POSMAX.
000227:                                                                                                  #  ALARMS:  NONE
000228:                                                                                                  #  OUTPUT:  STORED IN PUSH LIST AREA. SCALE OF OUTPUT AGREES WITH DATA SUPPLIED TO  TFF/CONIC.
000229:                                                                                                  #           RPER   E:(-29)  M:(-27)  M     PERIGEE RADIUS                  DESTROYED BY CALCTFF/CALCTPER, TFFTRIG.
000230:                                                                                                  #           RAPO   E:(-29)  M:(-27)  M     APOGEE  RADIUS                  WILL BE DESTROYED BY CALCTFF/CALCTPER
000231:                                                                                                  #           PUSHLOC AT PDL+0
000232:                                                                                                  #  ERASABLE INITIALIZATION REQUIRED:
000233:                                                                                                  #           TFFALFA E:(26-NR)      M   1/SEMI MAJ AXIS                     LEFT BY TFFCONIC
000234:                                                                                                  #                   M:(24-NR)
000235:                                                                                                  #           TFFNP  E: (-38+2NR)    M  LC P, SEMI LATUS RECTUM              LEFT BY TFFCONIC
000236:                                                                                                  #                  M: (-36+2NR)
000237:                                                                                                  #           X1                     -NR, NORM COUNT OF RMAG                 LEFT BY TFFCONIC
000238:                                                                                                  #           X2                     -NA, NORM COUNT OF ALFA                 LEFT BY TFFCONIC
000239:                                                                                                  #  DEBRIS:  QPRET,    PDL+0 ... PDL+1
000240:


000242: 27,3432                        RAPO               =        16D                                   #  APOGEE RADIUS  M  E:(-29)  M:(-27)
000243: 27,3432                        RPER               =        14D                                   #  PERIGEE RADIUS  M  E:(-29)  M:(-27)
000244:
000245: 27,3432           41345        TFFRP/RA           DLOAD    DMP
000246: 27,3433           00033                                    TFFALFA                               #  ALFA  1/M  E:(26-NR)   M:(24-NR)
000247: 27,3434           00035                                    TFFNP                                 #  LC P  M   E:(-38+2NR)   M:(-36+2NR)
000248: 27,3435           57457                           SR*      DCOMP                                 #  ALFA P (-12+NR)
000249: 27,3436           20571                                    0          -8D,1                      #  ALFA P  (-4)
000250: 27,3437           51415                           DAD      ABS                                   #  (DCOMP GIVES VALID TP RESULT FOR SQRT)
000251:                                                                                                  #  (ABS PROTECTS SQRT IF E IS VERY NEAR 0)
000252: 27,3440           17770                                    DP2(-4)
000253: 27,3441           43366                           SQRT     DAD                                   #  E SQ = (1- P ALFA)   (-4)
000254: 27,3442           06475                                    TFF1/4
000255: 27,3443           55206                           PUSH     BDDV                                  #  (1+E)  (-2)  TO PDL+0
000256: 27,3444           00035                                    TFFNP                                 #  LCP  M E:(-38+2NR)   M:(-36+2NR)
000257: 27,3445           53657                           SR*      SR*                                   #  (DOES SR THEN SL TO AVOID OVFL)
000258: 27,3446           20601                                    0,1                                   #  X1=-NR
000259: 27,3447           20572                                    0          -7,1                       #  (EFFECTIVE SL)
000260: 27,3450           14017                           STODL    RPER                                  #  PERIGEE RADIUS  M   E:(-29)   M:(-27)
000261:                                                                                                  #  (1+E)  (-2)   FROM PDL+0
000262: 27,3451           41005                           DMP      BOVB
000263: 27,3452           00027                                    TFF1/ALF                              #  E:(-22-2NA)  M:(-20-2NA)
000264: 27,3453           57756                                    TCDANZIG                              #  CLEAR OVFIND, IF ON.
000265: 27,3454           53654                           BZE      SL*
000266: 27,3455           57464                                    MAXRA                                 #  SET POSMAX, IF ALFA=0
000267: 27,3456           57603                                    0          -5,2                       #  -5+NA
000268: 27,3457           40057                           SL*      BOV
000269: 27,3460           57576                                    0,2
000270: 27,3461           57464                                    MAXRA                                 #  SET POSMAX IF OVFL.
000271: 27,3462           77644                           BPL                                            #  CONTINUE WITH VALID RAPO.
000272: 27,3463           57466                                    +3
000273: 27,3464           77745        MAXRA              DLOAD                                          #  RAPO CALC IS NOT VALID. SET RAPO =
000274: 27,3465           17774                                    NEARONE                               #  POSMAX AS A TAG.
000275: 27,3466           00021                 +3        STORE    RAPO                                  #  APOGEE RADIUS  M   E:(-29)   M:(-27)
000276: 27,3467           77616        DUMPRPRA           RVQ
000277:
000278:                                                                                                  #                          30 W
000279:


000281:                                                                                                  #  SUBROUTINE NAME:     CALCTPER  /  CALCTFF                               DATE:    01.29.67
000282:                                                                                                  #  MOD NO:  0                                                              LOG SECTION:    TIME OF FREE FALL
000283:                                                                                                  #  MOD BY:  RR BAIRNSFATHER
000284:                                                                                                  #  MOD NO:  1           MOD BY:  RR BAIRNSFATHER      DATE:  21 MAR 67
000285:                                                                                                  #  MOD NO:  2           MOD BY:  RR BAIRNSFATHER      DATE:  14 APR 67
000286:                                                                                                  #  MOD BY:  3           MOD BY:  RR BAIRNSFATHER      DATE:  8JUL 67       NEAR EARTH MUE AND NEG TFF (GONEPAST)
000287:                                                                                                  #  MOD BY:  4           MOD BY:  RR BAIRNSFATHER      DATE:  21 NOV 67     ADD VARIABLE MU.
000288:                                                                                                  #  MOD BY:  5           MOD BY:  RR BAIRNSFATHER      DATE:  21 MAR 68     ACCEPT DIFFERENT EARTH/MOON SCALES
000289:                                                                                                  #  FUNCTIONAL DESCRIPTION:      PROGRAM CALCULATES THE FREE-FALL TIME OF FLIGHT FROM PRESENT POSITION  RN  AND
000290:                                                                                                  #           VELOCITY  VN  TO A RADIUS LENGTH SPECIFIED BY  RTERM  , SUPPLIED BY THE USER. THE POSITION VECTOR
000291:                                                                                                  #           RN  MAY BE ON EITHER SIDE OF THE CONIC, BUT  RTERM  IS CONSIDERED ON THE INBOUND SIDE.
000292:                                                                                                  #           THE EQUATIONS ARE
000293:
000294:                                                                                                  #                  Q2 = -SQRT(RTERM (2-RTERM ALFA) - LCP)    (INBOUND SIDE))        LEQ +- LCE/SQRT(ALFA)
000295:                                                                                                  #                       -  -
000296:                                                                                                  #                  Q1 = RN.VN / SQRT(MU)                                            LEQ +- LCE/SQRT(ALFA)
000297:
000298:                                                                                                  #                  Z = NUM / DEN                                                    LEQ +- 1/SQRT(ALFA)
000299:
000300:                                                                                                  #           WHERE, IF INBOUND
000301:                                                                                                  #                  NUM = RTERM - RN                                                 LEQ +- 2 LCE/ALFA
000302:                                                                                                  #                  DEN = Q2+Q1                                                      LEQ +- 2 LCE/SQRT(ALFA)
000303:
000304:                                                                                                  #           AND, IF OUTBOUND
000305:                                                                                                  #                  NUM = Q2-Q1                                                      LEQ +- 2 LCE/SQRT(ALFA)
000306:                                                                                                  #                  DEN = 2 - ALFA (RTERM + RN) .                                    LEQ +- 2 LCE
000307:
000308:                                                                                                  #           IF     ALFA ZZ  <  1.0               (FOR ALL CONICS EXCEPT ELLIPSES HAVING ABS(DEL ECC ANOM) G 90 DEG)
000309:
000310:                                                                                                  #           THEN   X = ALFA Z Z
000311:                                                                                                  #           AND    TFF = (RTERM +RN -2 ZZ T(X) ) Z/SQRT(MU)
000312:
000313:                                                                                                  #                  EXCEPT IF ALFA PNZ, AND IF TFF NEG,
000314:                                                                                                  #                  THEN   TFF = 2 PI /(ALFA SQRT(ALFA)) + TFF
000315:
000316:                                                                                                  #           OR IF  ALFA ZZ  GEQ  1.0             (FOR ELLIPSES HAVING ABS(DEL ECC ANOM) GEQ 90 DEG)
000317:
000318:                                                                                                  #           THEN   X = 1/ALFA Z Z
000319:                                                                                                  #           AND    TFF = (PI/SQRT(ALFA) -Q2 +Q1 +2(X T(X) -1) /ALFA Z) /ALFA SQRT(MU)
000320:
000321:                                                                                                  #           WHERE  T(X) IS A POLYNOMIAL APPROXIMATION TO THE SERIES
000322:                                                                                                  #                             2     3                        2
000323:                                                                                                  #                  1/3 -X/5 +X /7 -X /8 ...                (X   <  1.0)
000324:
000325:                                                                                                  #  CALLING SEQUENCE:  TIME TO RTERM                           TIME TO PERIGEE
000326:                                                                                                  #                     CALL                                    CALL
000327:                                                                                                  #                            CALCTFF                                 CALCTPER
000328:                                                                                                  #                     C(MPAC) = TERMNL RAD  M                 C(MPAC) = PERIGEE RAD  M
000329:                                                                                                  #           FOR EITHER,   E: (-29)    M: (-27)
000330:                                                                                                  #           FOR EITHER, PUSHLOC = PDL+0, ARBITRARY IF LEQ 8D.
000331:


000333:                                                                                                  #  SUBROUTINES CALLED:  T(X),  VIA RTB
000334:                                                                                                  #  NORMAL EXIT MODE:  RVQ
000335:                                                                                                  #           HOWEVER, PROGRAM EXITS WITH ONE OF THE FOLLOWING VALUES FOR TFF (-28) CS  IN MPAC. USER MUST STORE.
000336:                                                                                                  #                  A.  TFF= FLIGHT TIME. NORMAL CASE FOR POSITIVE FLIGHT TIME LESS THAN ONE ORBITAL PERIOD.
000337:                                                                                                  #                  B.  (THIS OPTION IS NO LONGER USED.)
000338:                                                                                                  #                  C.  TFF = POSMAX.  THIS INDICATES THAT THE CONIC FROM THE PRESENT POSITION WILL NOT RETURN TO
000339:                                                                                                  #                      THE SPECIFIED ALTITUDE.  ALSO INDICATES OUTBOUND PARABOLA OR HYPERBOLA.
000340:                                                                                                  #  OUTPUT:  C(MPAC)  (-28)  CS     TIME OF FLIGHT, OR TIME TO PERIGEE
000341:                                                                                                  #           TFFX    (0)            X,                                      LEFT FOR ENTRY DISPLAY TFF ROUTINES
000342:                                                                                                  #           NRTERM  E: (-29+NR)    M  RTERM, WEIGHTED BY NR                LEFT FOR ENTRY DISPLAY TFF ROUTINES
000343:                                                                                                  #                   M: (-27+NR)
000344:                                                                                                  #           TFFTEM  E: (-59+2NR)   LCP Z Z SGN(SDELF)                      LEFT FOR ENTRY DISPLAY TFF ROUTINES
000345:                                                                                                  #                   M: (-55+2NR)   LCP /ALFA SGN(SDELF)                    LEFT FOR ENTRY DISPLAY TFF ROUTINES
000346:                                                                                                  #           NOTE:  TFFTEM = PDL 36D AND WILL BE DESTROYED BY .:UNIT:.
000347:                                                                                                  #           RMAG1  E:(-29)  M:(-27)  PDL 12 NOT TOUCHED.
000348:                                                                                                  #           TFFQ1  E:(-16)  M:(-15)  PDL 14D
000349:                                                                                                  #           TFFDELQ E:(-16) M:(-15)  PDL 10D
000350:                                                                                                  #           PUSHLOC AT PDL+0
000351:                                                                                                  #  ERASABLE INITIALIZATION REQUIRED:
000352:                                                                                                  #           RONE   E:(-29)  M:(-27)  M   STATE VECTOR                      LEFT BY USER
000353:                                                                                                  #           VONE'  E:(+10)  M:(+9)   VN/SQRT(NU)                           LEFT BY TFF/CONIC
000354:                                                                                                  #           RMAG1  E:(-29)  M:(-27)  PRESENT RADIUS,  M                    LEFT BY TFFCONIC
000355:                                                                                                  #           C(MPAC)E:(-29)  M:(-27)  RTERM, TERMINAL RADIUS LENGTH, M      LEFT BY USER
000356:
000357:                                                                                                  #           THE FOLLOWING ARE STORED IN THE PUSH LIST AREA.
000358:                                                                                                  #           TFF/RTMU  E:(17)  M:(14)  1/SQRT(MU)                           LEFT BY TFFCONIC.
000359:                                                                                                  #           NRMAG  E: (-29+NR)  M  RMAG, NORMALIZED                        LEFT BY TFFCONIC
000360:                                                                                                  #                  M: (-27+NR)
000361:                                                                                                  #           X1                     -NR, NORM COUNT                         LEFT BY TFFCONIC
000362:                                                                                                  #           TFFNP  E: (-38+2NR)  M   LCP, SEMI LATUS RECTUM, WEIGHT  NR    LEFT BY TFFCONIC
000363:                                                                                                  #                  M: (-36+2NR)
000364:                                                                                                  #           TFFALFA  E: (26-NR)    1/M  ALFA, WEIGHT  NR                   LEFT BY TFFCONIC
000365:                                                                                                  #                    M: (24-NR)
000366:                                                                                                  #           TFFRTALF  E:(10+NA)    SQRT(ALFA), NORMALIZED                  LEFT BY TFFCONIC
000367:                                                                                                  #                     M:(9+NA)
000368:                                                                                                  #           X2                     -NA, NORM COUNT                         LEFT BY TFFCONIC
000369:                                                                                                  #           TFF1/ALF  E: (-22-2NA)  SIGNED SEMIMAJ AXIS, WEIGHTED BY NA    LEFT BY TFFCONIC
000370:                                                                                                  #                     M: (-20-2NA)
000371:                                                                                                  #  DEBRIS:  QPRET,   PDL+0 ... PDL+3
000372:                                                                                                  #           RTERM  E:(-29)  M(-27)   RTERM, TERMINAL RADIUS LENGTH
000373:                                                                                                  #           RAPO   E:(-29)  M(-27)   PDL 16D  (=NRTERM)
000374:                                                                                                  #           RPER   E:(-29)  M(-27)   PDL 14D   (=TFFQ1)
000375:


000377: 27,3470           77614        CALCTPER           SETGO                                          #  ENTER WITH RPER  IN MPAC
000378: 27,3471           03436                                    TFFSW
000379: 27,3472           57475                                    +3
000380: 27,3473           77614        CALCTFF            CLEAR                                          #  ENTER WITH RTERM IN MPAC
000381: 27,3474           03676                                    TFFSW
000382: 27,3475           00023                 +3        STORE    RTERM                                 #  E: (-29)  M: (-27)
000383: 27,3476           77657                           SL*
000384: 27,3477           20201                                    0,1                                   #  X1=-NR
000385: 27,3500           00021                           STORE    NRTERM                                #  RTERM  E: (-29+NR)  M: (-27+NR)
000386: 27,3501           44205                           DMP      BDSU
000387: 27,3502           00033                                    TFFALFA                               #  ALFA  E: (26-NR)  M: (24-NR)
000388: 27,3503           06475                                    TFF1/4
000389: 27,3504           41206                           PUSH     DMP                                   #  (2-ALFA RTERM)  (-3)  TO PDL+0
000390: 27,3505           00021                                    NRTERM                                #  E: (-29+NR)  M: (-27+NR)
000391: 27,3506           53725                           PDDL     SR*                                   #  RTERM(2-ALFA RTERM) TO PDL+2
000392:                                                                                                  #  E: (-32+NR)   M: (-30+NR)
000393: 27,3507           00035                                    TFFNP                                 #  LC P  E:(-38+2NR)  M:(-36+2NR)
000394: 27,3510           20573                                    0          -6,1                       #  X1 = -NR
000395: 27,3511           43276                           DCOMP    DAD                                   #  DUE TO SHIFTS, KEEP PRECISION FOR SQRT
000396:                                                                                                  #  RTERM(2-ALFA RTERM) FROM PDL+2
000397:                                                                                                  #  E: (-32+NR)  M: (-30+NR)
000398: 27,3512           77657                           SR*                                            #  LEAVE  E: (-32)  M: (-30)
000399: 27,3513           20601                                    0,1                                   #  X1 = -NR
000400: 27,3514           71214                           BOFF     DLOAD                                 #  CHECK TFF / TPER SWITCH
000401: 27,3515           03756                                    TFFSW
000402: 27,3516           57520                                    +2                                    #  IF TFF, CONTINUE
000403: 27,3517           06505                                    TFFZEROS                              #  IF TPER, SET Q2 = 0
000404: 27,3520           75440                 +2        BMN      SQRT                                  #  E: (-16)  M: (-15)
000405:
000406: 27,3521           57653                                    MAXTFF1                               #  NO FREE FALL CONIC TO RTERM FROM HERE
000407:                                                                                                  #  RESET PDL, SET TFF=POSMAX, AND EXIT.
000408:
000409: 27,3522           41076                           DCOMP    BOVB                                  #  RT IS ON INBOUND SIDE.  ASSURE OVFIND=0
000410: 27,3523           57756                                    TCDANZIG                              #  ANY PORT IN A STORM.
000411: 27,3524           24045                           STOVL    TFFTEM                                #  Q2   E: (-16)  M: (-15)
000412: 27,3525           02161                                    VONE'                                 #  VN/SQRT(MU) E: (10)  M: (9)
000413: 27,3526           52441                           DOT      SL3
000414: 27,3527           02200                                    RONE                                  #  SAVED RN.  E: (-29)  M: (-27)
000415: 27,3530           00017                           STORE    TFFQ1                                 #  Q1, SAVE FOR GONEPAST TEST.
000416:                                                                                                  #  E: (-16)  M: (-15)
000417: 27,3531           44240                           BMN      BDSU
000418: 27,3532           57553                                    INBOUND                               #  USE ALTERNATE Z
000419: 27,3533           00045                                    TFFTEM                                #  Q2  E: (-16)  M: (-15)
000420:
000421:                                                                                                  #                                          OUTBOUND Z CALC CONTINUES HERE
000422:
000423: 27,3534           14043                           STODL    TFFX                                  #  NUM=Q2-Q1  E: (-16)  M: (-15)
000424: 27,3535           00033                                    TFFALFA                               #  ALFA  E: (26-NR)  M: (24-NR)
000425: 27,3536           44205                           DMP      BDSU


000427: 27,3537           00041                                    NRMAG                                 #  RMAG  E: (-29+NR)  M: (-27+NR)
000428:                                                                                                  #  (2-RTERM ALFA)  (-3) FROM PDL+0
000429: 27,3540           51406        SAVEDEN            PUSH     ABS                                   #  DEN TO PDL+0  E: (-3) OR (-16)
000430:                                                                                                  #                M: (-3) OR (-15)
000431: 27,3541           40015                           DAD      BOV                                   #  INDETERMINANCY TEST
000432: 27,3542           17762                                    LIM(-22)                              #  =1.0-B(-22)
000433: 27,3543           57564                                    TFFXTEST                              #  GO IF DEN >/= B(-22)
000434: 27,3544           65345                           DLOAD    PDDL                                  #  SET DEN=0  OTHERWISE
000435: 27,3545           06505                                    TFFZEROS
000436:                                                                                                  #  XCH ZERO WITH PDL+0
000437: 27,3546           57545                           DLOAD    DCOMP
000438: 27,3547           00033                                    TFFALFA                               #  ALFA  E: (26-NR)  M: (24-NR)
000439: 27,3550           71240                           BMN      DLOAD                                 #  FOR TPER: Z INDET AT DELE/2=0 AND 90.
000440: 27,3551           57660                                    TFFEL1                                #  ASSUME 90, AND LEAVE 0 IN PDL: 1/Z=D/N
000441:
000442:                                                                                                  #  Z INDET. AT PERIGEE FOR PARAB OR HYPERB.
000443: 27,3552           77616        DUMPTFF1           RVQ                                            #  RETURN  TFF =0
000444:
000445:                                                                                                  #                                          INBOUND Z CALC CONTINUES HERE
000446: 27,3553           77745        INBOUND            DLOAD                                          #  RESET PDL+0
000447: 27,3554           45345                           DLOAD    DSU                                   #  ALTERNATE Z CALC
000448: 27,3555           00023                                    RTERM                                 #  E: (-29)  M: (-27)
000449: 27,3556           00015                                    RMAG1                                 #  E: (-29)  M: (-27)
000450: 27,3557           14043                           STODL    TFFX                                  #  NUM=RTERM-RN  E: (-29)  M: (-27)
000451: 27,3560           00045                                    TFFTEM                                #  Q2  E: (-16)  M: (-15)
000452: 27,3561           52015                           DAD      GOTO
000453: 27,3562           00017                                    TFFQ1                                 #  Q1  E: (-16)  M: (-15)
000454: 27,3563           57540                                    SAVEDEN                               #  DEN = Q2+Q1   E: (-16)  M: (-15)
000455:
000456: 27,3564           65215        TFFXTEST           DAD      PDDL                                  #   (ABS(DEN) TO PDL+2))  E: (-3) OR (-16)
000457:                                                                                                  #                         M: (-3) OR (-15)
000458: 27,3565           17764                                    DP(-22)                               #  RESTORE ABS(DEN) TO MPAC
000459: 27,3566           00043                                    TFFX                                  #  NUM E:(-16) OR (-29)  M:(-15) OR (-27)
000460: 27,3567           53605                           DMP      SR*
000461: 27,3570           00031                                    TFFRTALF                              #  SQRT(ALFA)  E: (10+NA)  M: (9+NA)
000462: 27,3571           57201                                    0          -3,2                       #  X2=-NA
000463: 27,3572           77671                           DDV                                            #  C(MPAC) =NUM SQRT(ALFA)  E:(-3) OR (-16)
000464:                                                                                                  #                           M:(-3) OR (-15)
000465:                                                                                                  #  ABS(DEN) FROM PDL+2  E:(-3) OR (-16)
000466:                                                                                                  #                       M:(-3) OR (-15)
000467: 27,3573           40145                           DLOAD    BOV                                   #  (THE DLOAD IS SHARED WITH TFFELL)
000468: 27,3574           00043                                    TFFX                                  #  NUM  E: (-16) OR (-29)  M:(-15) OR (-27)
000469: 27,3575           57656                                    TFFELL                                #  USE EQN FOR DELE GEQ 90, LEQ -90
000470:
000471:                                                                                                  #                                          OTHERWISE, CONTINUE FOR GENERAL CONIC FOR TFF EQN
000472:
000473: 27,3576           45471                           DDV      STADR
000474:                                                                                                  #  DEN FROM PDL+0   E: (-3) OR (-16)
000475:                                                                                                  #                   M: (-3) OR (-15)
000476: 27,3577           77732                           STORE    TFFTEM                                #  Z  SAVE FOR SIGN OF SDELF.


000478:                                                                                                  #  E: (-13)  M: (-12)
000479: 27,3600           63406                           PUSH     DSQ                                   #  Z TO PDL+0
000480: 27,3601           41206                           PUSH     DMP                                   #  Z SQ TO PDL+2  E: (-26)  M: (-24)
000481: 27,3602           00035                                    TFFNP                                 #  LC P  E: (-38+2NR)  M: (-36+NR)
000482: 27,3603           75261                           SL       SIGN
000483: 27,3604           20206                                    5
000484: 27,3605           00045                                    TFFTEM                                #  AFFIX SIGN FOR SDELF (ENTRY DISPLAY)
000485: 27,3606           14045                           STODL    TFFTEM                                #  P ZSQ  E: (-59+2NR)  M: (-55+2NR)
000486:                                                                                                  #  (ARG IS USED IN TFF/TRIG)
000487:                                                                                                  #  ZSQ FROM PDL+2   E: (-26)  M: (-24)
000488: 27,3607           41206                           PUSH     DMP                                   #  RESTORE PUSH LOC
000489: 27,3610           00033                                    TFFALFA                               #  ALFA  E: (26-NR)  M: (24-NR)
000490: 27,3611           77657                           SL*
000491: 27,3612           20201                                    0,1                                   #  X1=-NR
000492: 27,3613           00043                           STORE    TFFX                                  #  X
000493: 27,3614           41234                           RTB      DMP
000494: 27,3615           57740                                    T(X)                                  #   POLY
000495:                                                                                                  #  ZSQ FROM PDL+2  E: (-26)  M: (-24)
000496: 27,3616           44302                           SR2      BDSU                                  #  2 ZSQ T(X)  E: (-29)  M: (-27)
000497: 27,3617           00023                                    RTERM                                 #  RTERM  E: (-29)  M: (-27)
000498: 27,3620           41215                           DAD      DMP
000499: 27,3621           00015                                    RMAG1                                 #  E: (-29)  M: (-27)
000500:                                                                                                  #  Z FROM PDL+0  E: (-13)  M: (-12)
000501: 27,3622           51042                           SR3      BPL                                   #  TFF SQRT(MU)   E: (-45)  M: (-42)
000502: 27,3623           57644                                    ENDTFF                                #  (NO PUSH UP)
000503: 27,3624           75206                           PUSH     SIGN                                  #  TFF SQRT(MU)  TO PDL+0
000504: 27,3625           00017                                    TFFQ1                                 #  Q1 FOR GONEPAST TEST
000505: 27,3626           71244                           BPL      DLOAD                                 #  GONE PAST ?
000506: 27,3627           57650                                    NEGTFF                                #  YES. TFF < 0 .
000507: 27,3630           00027                                    TFF1/ALF                              #  1/ALFA  E: (-22-2NA)  M: (-20-2NA)
000508: 27,3631           51076                           DCOMP    BPL                                   #  ALFA > 0 ?
000509: 27,3632           57650                                    NEGTFF                                #  NO. TFF IS NEGATIVE.
000510:
000511:                                                                                                  #                                          CORRECT FOR ORBITAL PERIOD.
000512:
000513: 27,3633           77676                           DCOMP                                          #  YES. CORRECT FOR ORB PERIOD.
000514: 27,3634           56205                           DMP      DDV
000515: 27,3635           17760                                    PI/16                                 #  2 PI (-5)
000516: 27,3636           00031                                    TFFRTALF                              #  SQRT(ALFA)  E: (10+NA)  M: (9+NA)
000517: 27,3637           53657                           SL*      SL*
000518: 27,3640           57602                                    0          -4,2                       #  X2=-NA
000519: 27,3641           57602                                    0          -4,2
000520: 27,3642           43257                           SL*      DAD
000521: 27,3643           57576                                    0,2
000522:                                                                                                  #  TFF SQRT(MU) FROM PDL+0  E:(-45) M:(-42)
000523: 27,3644           40005        ENDTFF             DMP      BOV                                   #  TFF SQRT(MU) IN MPAC     E:(-45) M:(-42)
000524: 27,3645           00037                                    TFF/RTMU                              #  E: (17)  M: (14)
000525: 27,3646           57654                                    MAXTFF                                #  SET POSMAX IN OVFL.
000526:
000527: 27,3647           77616        DUMPTFF2           RVQ                                            #  RETURN  TFF   (-28) CS IN MPAC.
000528:


000530: 27,3650           77745        NEGTFF             DLOAD
000531:                                                                                                  #  TFF SQRT(MU)  FROM PDL+0, NEGATIVE.
000532: 27,3651           77650                           GOTO
000533: 27,3652           57644                                    ENDTFF
000534:
000535: 27,3653           77745        MAXTFF1            DLOAD                                          #  RESET PDL
000536: 27,3654           43545        MAXTFF             DLOAD    RVQ
000537: 27,3655           17774                                    NEARONE
000538:
000539:                                                                                                  #  TIME OF FLIGHT ELLIPSE WHEN DEL (ECCENTRIC ANOM) GEQ 90 AND LEQ -90.
000540:
000541:                                                                                                  #  NUM FROM TFFX.  E: (-16) OR (-29)
000542:                                                                                                  #                  M: (-15) OR (-27)
000543: 27,3656           77712        TFFELL             SL2                                            #  NUM  E:(-14) OR (-27)  M:(-13) OR (-25)
000544: 27,3657           41465                           BDDV     PUSH                                  #  TEMP SAVE D/N IN PDL+0
000545:                                                                                                  #  DEN FROM PDL+0 E:(-3)/( 16) M:(-3)/(-15)
000546:                                                                                                  #  N/D TO PDL+0  E: (11)  M: (10)
000547: 27,3660           45345        TFFEL1             DLOAD    DSU                                   #  (ENTER WITH D/N=0 IN PDL+0)
000548: 27,3661           00045                                    TFFTEM                                #  Q2  E: (-16)  M: (-15)
000549: 27,3662           00017                                    TFFQ1                                 #  Q1  E: (-16)  M: (-15)
000550: 27,3663           14013                           STODL    TFFDELQ                               #  Q2-Q1  E: (-16)  M: (-15)
000551:                                                                                                  #  D/N FROM PDL+0
000552: 27,3664           77626                           STADR
000553: 27,3665           77732                           STORE    TFFTEM                                #  D/N  E: (11)  M: (10)
000554: 27,3666           53605                           DMP      SL*
000555: 27,3667           00027                                    TFF1/ALF                              #  1/ALFA E: (-22-2NA)  M: (-20-2NA)
000556: 27,3670           57576                                    0,2                                   #  1/ALFA Z  E: (-11-NA)  M: (-10-NA)
000557: 27,3671           41206                           PUSH     DMP                                   #  TO PDL+0
000558: 27,3672           00045                                    TFFTEM                                #  1/Z  E: (11)  M: (10)
000559: 27,3673           41057                           SL*      BOVB
000560: 27,3674           57576                                    0,2                                   #  X2= -NA
000561: 27,3675           31765                                    SIGNMPAC                              #  IN CASE X= 1.0, CONTINUE
000562: 27,3676           00043                           STORE    TFFX                                  #  X=1/ALFA ZSQ
000563: 27,3677           41234                           RTB      DMP
000564: 27,3700           57740                                    T(X)                                  #  POLY
000565: 27,3701           00043                                    TFFX
000566: 27,3702           45242                           SR3      DSU
000567: 27,3703           17766                                    DP2(-3)
000568: 27,3704           41405                           DMP      PUSH                                  #  2(X T(X)-1) /Z ALFA  E: (-15-NA)
000569:                                                                                                  #                       M: (-14-NA)
000570:                                                                                                  #  1/ALFA Z FROM PDL+0  E: (-11-NA)
000571:                                                                                                  #                       M: (-10-NA)
000572: 27,3705           41345                           DLOAD    DMP                                   #  GET SIGN FOR SDELF
000573: 27,3706           00045                                    TFFTEM                                #  1/Z  E: (11)  M: (10)
000574: 27,3707           00015                                    RMAG1                                 #  E: (-29)  M: (-27)
000575: 27,3710           43312                           SL2      DAD
000576: 27,3711           00017                                    TFFQ1                                 #  Q1  E: (-16)  M: (-15)
000577: 27,3712           14045                           STODL    TFFTEM                                #  (Q1+R 1/Z)  =SGN OF SDELF E:(-16) M:(-15
000578: 27,3713           00035                                    TFFNP                                 #  LC P E: (-38+2NR) M: (-36+2NR)
000579: 27,3714           53605                           DMP      SL*                                   #  CALC FOR ARG FOR TFF/TRIG.


000581: 27,3715           00027                                    TFF1/ALF                              #  1/ALFA   E:(-22-2NA)  M:(-20-2NA)
000582: 27,3716           57575                                    1,2                                   #  X2=-NA
000583: 27,3717           53765                           SIGN     SL*
000584: 27,3720           00045                                    TFFTEM                                #  AFFIX SIGN FOR SDELF
000585: 27,3721           57576                                    0,2
000586: 27,3722           14045                           STODL    TFFTEM                                #  P/ALFA  E:(-59+2NR)  M:(-55+2NR)
000587:                                                                                                  #  (ARG FOR USE IN TFF/TRIG)
000588: 27,3723           00027                                    TFF1/ALF                              #  1/ALFA E:(-22-2NA)  M:(-20-2NA)
000589: 27,3724           41366                           SQRT     DMP
000590: 27,3725           17760                                    PI/16                                 #  PI (-4)
000591: 27,3726           77615                           DAD
000592:                                                                                                  #  2(XT(X)-1)/Z ALFA FROM PDL E:(-15-NA)
000593:                                                                                                  #                             M:(-14-NA)
000594: 27,3727           45257                           SL*      DSU
000595: 27,3730           57577                                    0          -1,2
000596: 27,3731           00013                                    TFFDELQ                               #  Q2-Q1  E: (-16)  M: (-15)
000597: 27,3732           53605                           DMP      SL*
000598: 27,3733           00027                                    TFF1/ALF                              #  1/ALFA  E:(-22-2NA)  M:(-20-2NA)
000599: 27,3734           57601                                    0          -3,2
000600: 27,3735           52057                           SL*      GOTO
000601: 27,3736           57602                                    0          -4,2
000602: 27,3737           57644                                    ENDTFF                                #  TFF SQRT(MU) IN MPAC E:(-45) M:(-42)
000603:


000605:                                                                                                  #  PROGRAM NAME:      T(X)                                                 DATE:    01.17.67
000606:                                                                                                  #  MOD NO:  0                                                              LOG SECTION:    TIME OF FREE FALL
000607:                                                                                                  #  MOD BY:  RR BAIRNSFATHER
000608:                                                                                                  #  FUNCTIONAL DESCRIPTION:      THE POLYNOMIAL T(X) IS USED BY TIME OF FLIGHT SUBROUTINES  CALCTFF AND
000609:                                                                                                  #           CALCTPER TO APPROXIMATE THE SERIES
000610:                                                                                                  #                             2     3
000611:                                                                                                  #                  1/3 -X/5 +X /7 -X /9 ...
000612:
000613:                                                                                                  #           WHERE  X = ALFA Z Z       IF ALFA Z Z  LEQ 1
000614:                                                                                                  #                  X = 1/(ALFA Z Z)   IF ALFA Z Z   G  1
000615:
000616:                                                                                                  #           ALSO   X IS NEG FOR HYPERBOLIC ORBITS
000617:                                                                                                  #                  X = 0 FOR PARABOLIC ORBITS
000618:                                                                                                  #                  X IS POSITIVE FOR ELLIPTIC ORBITS
000619:                                                                                                  #           FOR FLIGHT 278, THE POLYNOMIAL  T(X) IS FITTED OVER THE RANGE  (0,+1)  AND HAS A MAXIMUM
000620:                                                                                                  #           DEVIATION FROM THE SERIES OF  2 E-5       (T(X) IS A CHEBYCHEV  TYPE FIT AND WAS OBTAINED USING
000621:                                                                                                  #           MAC PROGRAM AUTCURFIT294RRB  AND IS VALID TO THE SAME TOLERANCE OVER THE RANGE  (-.08,+1). )
000622:                                                                                                  #  CALLING SEQUENCE:  RTB
000623:                                                                                                  #                            T(X)
000624:                                                                                                  #           C(MPAC) = X
000625:
000626:                                                                                                  #  SUBROUTINES CALLED:  NONE
000627:                                                                                                  #  NORMAL EXIT MODE:    TC   DANZIG
000628:                                                                                                  #  ALARMS:  NONE
000629:                                                                                                  #  OUTPUT:  C(MPAC) = T(X)
000630:                                                                                                  #  ERASABLE INITIALIZATION REQUIRED:
000631:                                                                                                  #           C(MPAC)  =  X
000632:                                                                                                  #  DEBRIS:  NONE
000633:
000634: 27,3740           07243        T(X)               TC       POLY
000635: 27,3741           00004                           DEC      4          B-14                       #  N-1
000636: 27,3742           12525 12525                     2DEC     3.333333333 E-1
000637:
000638: 27,3744           71463 57703                     2DEC*    -1.999819135 E-1*
000639:
000640: 27,3746           04423 17645                     2DEC*    1.418148467 E-1*
000641:
000642: 27,3750           74604 43667                     2DEC*    -1.01310997 E-1*
000643:
000644: 27,3752           01626 37256                     2DEC*    5.609004986 E-2*
000645:
000646: 27,3754           77404 52071                     2DEC*    -1.536156925 E-2*
000647:
000648: 27,3756           06102        ENDT(X)            TC       DANZIG
000649:
000650: 27,3757  27,3756               TCDANZIG           =        ENDT(X)
000651:


000653:                                                                                                  #  TFF CONSTANTS
000654:
000655: 32,3716                                           BANK     32
000656:
000657: 27,2000                                           SETLOC   TOF-FF1
000658: 27,2000                                           BANK
000659:
000660:                                                                                                  #                             NOTE _  NOTE _ ADJUSTED MUE FOR NEAR EARTH TRAJ.
000661:
000662:                                                                                                  # MUE            =       3.990 815 471 E10  M CUBE/CS SQ
000663:                                                                                                  # RTMUE          =       1.997702549 E5 B-18*     MODIFIED EARTH MU
000664:
000665:                                                                                                  #                             NOTE _  NOTE _ ADJUSTED MUE FOR NEAR EARTH TRAJ.
000666:
000667:                                                                                                  # MUM            =       4.902 778  E8     M CUBE /CS SQ
000668:
000669:                                                                                                  # RTMUM          2DEC*   2.21422176 E4 B-18*
000670: 27,3757           06220 37553  PI/16              2DEC     3.141592653 B-4
000671:
000672: 27,3761           37777 37700  LIM(-22)           2OCT     3777737700                            #  1.0 -B(-22)
000673:
000674: 27,3763           00000 00100  DP(-22)            2OCT     0000000100                            #  B(-22)
000675:
000676: 27,3765           04000 00000  DP2(-3)            2DEC     1          B-3
000677:
000678: 27,3767           02000 00000  DP2(-4)            2DEC     1          B-4                        #  1/16
000679:
000680:                                                                                                  #  RPAD1      2DEC    6373338 B-29    M  (-29)   =20 909 901.57 FT
000681:
000682: 27,3771  23,2335               RPAD1              =        RPAD
000683:
000684: 27,3771           00305 11205  R300K              2DEC     6464778    B-29                       #  (-29) M
000685:
000686: 27,3773           37777 37777  NEARONE            2DEC     .999999999
000687:
000688: 27,3775  23,2504               TFFZEROS           EQUALS   HI6ZEROS
000689: 27,3775  23,2474               TFF1/4             EQUALS   HIDP1/4
000690:

End of include-file TIME_OF_FREE_FALL.agc.  Parent file is MAIN.agc


