
Source Code


000002:                                                                                                  ## Copyright:   Public domain.
000003:                                                                                                  ## Filename:    TRIM_GIMBAL_CONTROL_SYSTEM.agc
000004:                                                                                                  ## Purpose:     A section of Luminary revision 210.
000005:                                                                                                  ##              It is part of the source code for the Lunar Module's (LM)
000006:                                                                                                  ##              Apollo Guidance Computer (AGC) for Apollo 15-17.
000007:                                                                                                  ##              This file is intended to be a faithful transcription, except
000008:                                                                                                  ##              that the code format has been changed to conform to the
000009:                                                                                                  ##              requirements of the yaYUL assembler rather than the
000010:                                                                                                  ##              original YUL assembler.
000011:                                                                                                  ## Reference:   pp. 1470-1482
000012:                                                                                                  ## Assembler:   yaYUL
000013:                                                                                                  ## Contact:     Ron Burkey <info@sandroid.org>.
000014:                                                                                                  ## Website:     www.ibiblio.org/apollo/index.html
000015:                                                                                                  ## Mod history: 2016-11-17 JL   Created from Luminary131 version.
000016:


000018: 21,3027                                           BANK     21
000019: 21,3027  E6,1450                                  EBANK=   QDIFF
000020: 21,2000                                           SETLOC   DAPS4
000021: 21,2000                                           BANK
000022:
000023: 21,3027                                           COUNT*   $$/DAPGT
000024:
000025:                                                                                                  #  CONTROL REACHES THIS POINT UNDER EITHER OF THE FOLLOWING TWO CONDITIONS ONCE THE DESCENT ENGINE AND THE DIGITAL
000026:                                                                                                  #  AUTOPILOT ARE BOTH ON:
000027:                                                                                                  #           A) THE TRIM GIMBAL CONTROL LAW WAS ON DURING THE PREVIOUS Q,R-AXIS TIME5 INTERRUPT (OR THE DAPIDLER
000028:                                                                                                  #              INITIALIZATION WAS SET FOR TRIM GIMBAL CONTROL AND THIS IS THE FIRST PASS), OR
000029:                                                                                                  #           B) THE Q,R-AXES RCS AUTOPILOT DETERMINED THAT THE VEHICLE WAS ENTERING (OR HAD JUST ENTERED) A COAST
000030:                                                                                                  #              ZONE WITH A SMALL OFFSET ANGULAR ACCELERATION.
000031:
000032:                                                                                                  #  GTS IS THE ENTRY TO THE GIMBAL TRIM SYSTEM FOR CONTROLLING ATTITUDE ERRORS AND RATES AS WELL AS ACCELERATIONS.
000033:
000034: 21,3027           37770        GTS                CAF      NEGONE                                #  MAKE THE NEXT PASS THROUGH THE DAP BE
000035: 21,3030           55630                           TS       COTROLER                              #    THROUGH RCS CONTROL,
000036: 21,3031           34742                           CAF      FOUR                                  #    AND ENSURE THAT IT IS NOT A SKIP.
000037: 21,3032           55534                           TS       SKIPU
000038: 21,3033           55535                           TS       SKIPV
000039:
000040: 21,3034           34743                           CAF      TWO
000041: 21,3035           55632                           TS       INGTS                                 #  SET INDICATOR OF GTS CONTROL POSITIVE.
000042: 21,3036           55631                           TS       QGIMTIMR                              #  SET TIMERS TO 200 MSEC TO AVOID BOTH
000043: 21,3037           55633                           TS       RGIMTIMR                              #  RUNAWAY AND INTERFERENCE BY NULLING.
000044:
000045:                                                                                                  #  THE DRIVE SETTING ALGORITHM
000046:
000047:                                                                                                  #  DEL = SGN(OMEGA + ALPHA*ABS(ALPHA)/(2*K))
000048:
000049:                                                                                                  #                                              2               1/2                  2       3/2
000050:                                                                                                  #  NEGUSUM = ERROR*K + ALPHA*(DEL*OMEGA + ALPHA /(3*K)) + DEL*K   (DEL*OMEGA + ALPHA /(2*K))
000051:
000052:                                                                                                  #  DRIVE = -SGN(NEGUSUM)
000053:
000054: 21,3040           30021                           CA       SR                                    #  SAVE THE SR.  SHIFT IT LEFT TO CORRECT
000055: 21,3041           60000                           AD       A                                     #  FOR THE RIGHT SHIFT DUE TO EDITING.
000056: 21,3042           55505                           TS       SAVESR
000057:
000058: 21,3043           34743        GTSGO+DN           CAF      TWO                                   #  SET INDEXER FOR R-AXIS CALCULATIONS.
000059: 21,3044           13046                           TCF      GOQTRIMG   +1
000060:
000061: 21,3045           34746        GOQTRIMG           CAF      ZERO                                  #  SET INDEXER FOR Q-AXIS CALCULATIONS
000062: 21,3046           55747                           TS       QRCNTR
000063:
000064: 21,3047           51747                           INDEX    QRCNTR                                #  AOS SCALED AT PI/2
000065: 21,3050           31536                           CA       AOSQ
000066: 21,3051           00006                           EXTEND
000067: 21,3052           74743                           MP       BIT2                                  #  RESCALE AOS TO PI/4
000068:


000070: 21,3053           00006                           EXTEND
000071: 21,3054           13060                           BZF      GTSQAXIS   -3                         #  USE FULL SCALE FOR LARGER AOS ESTIMATES.
000072:
000073: 21,3055           50000                           INDEX    A
000074: 21,3056           44725                           CS       LIMITS                                #  LIMITS +1 CONTAINS NEGMAX.
000075: 21,3057           56001                           XCH      L                                     #  LIMITS -1 CONTAINS POSMAX.
000076:
000077: 21,3060           11747                           CCS      QRCNTR                                #  PICK UP RATE FOR THIS AXIS.  RATE CELLS
000078: 21,3061           50000                           INDEX    A                                     #  USE ADJACENT, NOT SEPARATED.  AT PI/4
000079: 21,3062           31436                           CA       EDOTQ
000080: 21,3063           53743        GTSQAXIS           DXCH     WCENTRAL
000081:
000082: 21,3064           51747                           INDEX    QRCNTR                                #  COLLECT K FOR THIS AXIS
000083: 21,3065           31504                           CA       KQ
000084: 21,3066           55740                           TS       KCENTRAL
000085:
000086: 21,3067           00006                           EXTEND                                         #  CONTROL AUTHORITY  ZERO.  AVOID DRIVING
000087: 21,3070           13526                           BZF      POSDRIVE   +1                         #  ENGINE BELL TO THE STOPS.
000088:
000089: 21,3071           51747                           INDEX    QRCNTR                                #  QDIFF, RDIFF ARE STORED IN D.P.
000090: 21,3072           31450                           CAE      QDIFF
000091:
000092: 21,3073           00006        ALGORTHM           EXTEND                                         #  Q(R)DIFF IS THETA (ERROR) SCALED AT PI.
000093: 21,3074           71740                           MP       KCENTRAL                              #  FORM K*ERROR AT PI(2)/2(8), IN D.P.
000094: 21,3075           23736                           LXCH     K2THETA
000095: 21,3076           00006                           EXTEND
000096: 21,3077           74740                           MP       BIT5                                  #  RESCALE TO 4*PI(2)
000097: 21,3100           53737                           DXCH     K2THETA
000098: 21,3101           00006                           EXTEND
000099: 21,3102           74740                           MP       BIT5                                  #  FIRST TERM OF NEGUSUM IN K2THETA.
000100: 21,3103           27737                           ADS      K2THETA    +1                         #  NO CARRY NEEDED    D.P. AT 4*PI(2)
000101:
000102: 21,3104           41743                           CS       ACENTRAL                              #  FORM ALPHA(2)/(2*K) AT 16*PI, IN D.P.,
000103: 21,3105           00006                           EXTEND                                         #  LIMITING QUOTIENT TO AVOID OVERFLOW.
000104: 21,3106           74727                           MP       BIT14                                 #  -ALPHA/2 IN A, SCALED AT PI/4
000105: 21,3107           00006                           EXTEND
000106: 21,3110           71743                           MP       ACENTRAL                              #  -ALPHA(2)/2 IN A,L, SCALED AT PI(2)/16)
000107: 21,3111           61740                           AD       KCENTRAL
000108: 21,3112           00006                           EXTEND
000109: 21,3113           63130                           BZMF     HUGEQUOT                              #  K-ALPHA(2)/2 SHOULD BE PNZ FO DIVISION
000110:
000111: 21,3114           00006                           EXTEND
000112: 21,3115           40001                           DCS      A                                     #  ALPHA(2)/2 - K
000113: 21,3116           61740                           AD       KCENTRAL
000114: 21,3117           00006                           EXTEND
000115: 21,3120           11740                           DV       KCENTRAL                              #  HIGH ORDER OF QUOTIENT.
000116: 21,3121           57745                           XCH      A2CNTRAL
000117: 21,3122           30001                           CA       L                                     #  SHIFT UP THE REMAINDER.
000118: 21,3123           22007                           LXCH     7                                     #  ZERO LOW-ORDER DIVIDEND.
000119: 21,3124           00006                           EXTEND
000120:


000122: 21,3125           11740                           DV       KCENTRAL
000123: 21,3126           57746                           XCH      A2CNTRAL   +1                         #  QUOTIENT STORED AT 16*PI, D.P.
000124: 21,3127           13133                           TCF      HAVEQUOT
000125:
000126: 21,3130           34724        HUGEQUOT           CA       POSMAX
000127: 21,3131           54001                           TS       L
000128: 21,3132           53746                           DXCH     A2CNTRAL                              #  LIMITED QUOTIENT STORED AT 16*PI, D.P.
000129:
000130: 21,3133           31742        HAVEQUOT           CA       WCENTRAL
000131: 21,3134           00006                           EXTEND
000132: 21,3135           74734                           MP       BIT9                                  #  RESCALE OMEGA AT 16*PI IN D.P.
000133: 21,3136           53742                           DXCH     K2CNTRAL                              #  LOWER WORD OVERLAYS OMEGA IN WCENTRAL
000134:
000135: 21,3137           00006                           EXTEND
000136: 21,3140           31742                           DCA      K2CNTRAL
000137: 21,3141           53751                           DXCH     FUNCTION
000138:
000139: 21,3142           31743                           CA       ACENTRAL                              #  GET ALPHA*ABS(ALPHA)/(2*K)
000140: 21,3143           00006                           EXTEND
000141: 21,3144           63150                           BZMF     +4
000142:
000143: 21,3145           00006                           EXTEND
000144: 21,3146           31746                           DCA      A2CNTRAL
000145: 21,3147           13152                           TCF      +3
000146:
000147: 21,3150           00006                           EXTEND
000148: 21,3151           41746                           DCS      A2CNTRAL
000149:
000150: 21,3152           21751                           DAS      FUNCTION                              #  OMEGA + ALPHA*ABS(ALPHA)/(2*K) AT 16*PI
000151:
000152: 21,3153           11750                           CCS      FUNCTION                              #  DEL = +1 FOR FUNCT1 GREATER THAN ZERO.
000153: 21,3154           13160                           TCF      POSFNCT1                              #  OTHERWISE DEL = -1
000154: 21,3155           13157                           TCF      +2
000155: 21,3156           13162                           TCF      NEGFNCT1
000156:
000157: 21,3157           11751                           CCS      FUNCTION   +1                         #  USE LOW ORDER WORD SINCE HIGH IS ZERO
000158: 21,3160           34744        POSFNCT1           CAF      BIT1
000159: 21,3161           13163                           TCF      +2
000160: 21,3162           44744        NEGFNCT1           CS       BIT1
000161: 21,3163           55744                           TS       DEL
000162:
000163: 21,3164           11744                           CCS      DEL                                   #  REPLACE OMEGA BY DEL*OMEGA
000164: 21,3165           13177                           TCF      FUNCT2                                #  POSITIVE DEL VALUE.  PROCEED.
000165: 21,3166           13170                           TCF      DEFUNCT
000166: 21,3167           13174                           TCF      NEGFNCT2
000167:
000168: 21,3170           55741        DEFUNCT            TS       K2CNTRAL
000169: 21,3171           55742                           TS       K2CNTRAL   +1
000170: 21,3172           13177                           TCF      FUNCT2
000171:


000173: 21,3173           65252        NEG1/3             DEC      -.33333
000174:
000175: 21,3174           00006        NEGFNCT2           EXTEND
000176: 21,3175           41742                           DCS      K2CNTRAL
000177: 21,3176           53742                           DXCH     K2CNTRAL
000178:
000179: 21,3177           00006        FUNCT2             EXTEND
000180: 21,3200           31746                           DCA      A2CNTRAL
000181: 21,3201           21742                           DAS      K2CNTRAL                              #  DEL*OMEGA + ALPHA(2)/(2*K) AT 16*PI, D.P.
000182:
000183: 21,3202           31745        FUNCT3             CA       A2CNTRAL
000184: 21,3203           00006                           EXTEND
000185: 21,3204           73173                           MP       NEG1/3
000186: 21,3205           53746                           DXCH     A2CNTRAL
000187: 21,3206           30001                           CA       L
000188: 21,3207           00006                           EXTEND
000189: 21,3210           73173                           MP       NEG1/3
000190: 21,3211           27746                           ADS      A2CNTRAL   +1
000191: 21,3212           54001                           TS       L
000192: 21,3213           13215                           TCF      +2                                    #  A2CNTRAL NOW CONTAINS  -ALPHA(2)/(6*K),
000193: 21,3214           27745                           ADS      A2CNTRAL                              #  SCALED AT 16*PI, IN D.P.
000194:
000195: 21,3215           00006                           EXTEND
000196: 21,3216           31742                           DCA      K2CNTRAL                              #  DEL*OMEGA + ALPHA(2)/(3*K) IN A2CNTRAL,
000197: 21,3217           21746                           DAS      A2CNTRAL                              #  SCALED AT 16*PI, D.P.
000198:
000199: 21,3220           31745                           CA       A2CNTRAL
000200: 21,3221           00006                           EXTEND
000201: 21,3222           71743                           MP       ACENTRAL
000202: 21,3223           21737                           DAS      K2THETA
000203: 21,3224           31746                           CA       A2CNTRAL   +1
000204: 21,3225           00006                           EXTEND
000205: 21,3226           71743                           MP       ACENTRAL                              #  ACENTRAL MAY NOW BE OVERLAID.
000206: 21,3227           27737                           ADS      K2THETA    +1
000207: 21,3230           54001                           TS       L
000208: 21,3231           13233                           TCF      +2                                    #  TWO TERMS OF NEGUSUM ACCUMULATED, SO FAR
000209: 21,3232           27736                           ADS      K2THETA                               #  SCALED AT 4*PI(2), IN D.P.
000210:
000211: 21,3233           31741        GETROOT            CA       K2CNTRAL                              #  K*(DEL*OMEGA + ALPHA(2)/(2*K)) IS THE
000212: 21,3234           00006                           EXTEND                                         #  TERM FOR WHICH A SQUARE ROOT IS NEEDED.
000213: 21,3235           71740                           MP       KCENTRAL                              #  K AT PI/2(8)
000214: 21,3236           53751                           DXCH     FUNCTION
000215: 21,3237           31742                           CA       K2CNTRAL   +1
000216: 21,3240           00006                           EXTEND
000217: 21,3241           71740                           MP       KCENTRAL
000218: 21,3242           27751                           ADS      FUNCTION   +1
000219: 21,3243           54001                           TS       L
000220: 21,3244           13246                           TCF      +2
000221: 21,3245           27750                           ADS      FUNCTION                              #  DESIRED TERM IN FUNCTION, AT PI(2)/16


000223: 21,3246           11744                           CCS      DEL
000224: 21,3247           13454                           TCF      RSTOFGTS
000225: 21,3250           13516                           TCF      NEGUSUM
000226: 21,3251           13253                           TCF      NEGATE
000227: 21,3252           13516                           TCF      NEGUSUM
000228:
000229: 21,3253           00006        NEGATE             EXTEND
000230: 21,3254           41742                           DCS      K2CNTRAL
000231: 21,3255           53742                           DXCH     K2CNTRAL
000232: 21,3256           13454                           TCF      RSTOFGTS
000233:
000234: 16,3736                                           BANK     16
000235: 16,3736  E6,1501                                  EBANK=   NEGUQ
000236: 16,2000                                           SETLOC   DAPS1
000237: 16,2000                                           BANK
000238:
000239:                                                                                                  #  THE WRCHN12 SUBROUTINE SETS BITS 9,10,11,12 OF CHANNEL 12 ON THE BASIS OF THE CONTENTS OF NEGUQ,NEGUR WHICH ARE
000240:                                                                                                  #  THE NEGATIVES OF THE DESIRED ACCELERATION CHANGES.  ACDT+C12 SETS Q(R)ACCDOT TO REFLECT TEH NEW DRIVES.
000241:
000242:                                                                                                  #  WARNING:  ACDT+C12 AND WHCHN12 MUST BE CALLED WITH INTERRUPT INHIBITED.
000243:
000244: 16,3736           07400        BGIM               OCTAL    07400
000245: 16,3737     0066               CHNL12             EQUALS   ITEMP6
000246: 16,3737           41501        ACDT+C12           CS       NEGUQ
000247: 16,3740           00006                           EXTEND                                         #  GIMBAL DRIVE REQUESTS.
000248: 16,3741           71507                           MP       ACCDOTQ
000249: 16,3742           23510                           LXCH     QACCDOT
000250: 16,3743           41503                           CS       NEGUR
000251: 16,3744           00006                           EXTEND
000252: 16,3745           71511                           MP       ACCDOTR
000253: 16,3746           23512                           LXCH     RACCDOT
000254:
000255: 16,3747           11501                           CCS      NEGUQ
000256: 16,3750           34733                           CAF      BIT10
000257: 16,3751           13753                           TCF      +2
000258: 16,3752           34734                           CAF      BIT9
000259: 16,3753           54066                           TS       CHNL12
000260:
000261: 16,3754           11503                           CCS      NEGUR
000262: 16,3755           34731                           CAF      BIT12
000263: 16,3756           13760                           TCF      +2
000264: 16,3757           34732                           CAF      BIT11
000265: 16,3760           26066                           ADS      CHNL12                                #  (STORED RESULT NOT USED AT PRESENT)
000266:
000267: 16,3761           43736                           CS       BGIM
000268: 16,3762           00006                           EXTEND
000269: 16,3763           02012                           RAND     CHAN12
000270: 16,3764           60066                           AD       CHNL12
000271: 16,3765           00006                           EXTEND
000272: 16,3766           01012                           WRITE    CHAN12
000273:


000275: 16,3767           44740                           CS       CALLGMBL                              #  TURN OFF REQUEST FOR ACDT+C12 EXECUTION.
000276: 16,3770           71774                           MASK     RCSFLAGS
000277: 16,3771           55774                           TS       RCSFLAGS
000278:
000279: 16,3772           00002                           TC       Q                                     #  RETURN TO CALLER.
000280:
000281: 21,3257                                           BANK     21
000282: 21,3257  E6,1450                                  EBANK=   QDIFF
000283: 21,2000                                           SETLOC   DAPS4
000284: 21,2000                                           BANK
000285:


000287:                                                                                                  #  SUBROUTINE TIMEGMBL:  MOD 0,  OCTOBER 1967, CRAIG WORK
000288:
000289:                                                                                                  #  TIMEGMBL COMPUTES THE DRIVE TIME NEEDED FOR THE TRIM GIMBAL TO POSITION THE DESCENT ENGINE NOZZLE SO AS TO NULL
000290:                                                                                                  #  THE OFFSET ANGULAR ACCELERATION ABOUT THE Q (OR R) AXIS.  INSTEAD OF USING AOSQ(R), TIMEBMBL USES .4*AOSQ(R),
000291:                                                                                                  #  SCALED AT PI/8.                         FOR EACH AXIS, THE DRIVE TIME IS COMPUTED AS ABS(ALPHA/ACCDOT).  A ZERO
000292:                                                                                                  #  ALPHA OR ACCDOT OR A ZERO QUOTIENT TURNS OFF THE GIMBAL DRIVE IMMEDIATELY.  OTHERWISE, THE GIMBAL IS TURNED ON
000293:                                                                                                  #  DRIVING IN THE CORRECT DIRECTION. THE Q(R)GIMTIMR IS SET TO TERMINATE THE DRIVE AND Q(R)ACCDOT
000294:                                                                                                  #  IS STORED TO REFLECT THE NEW ACCELERATION DERIVATIVE.  NEGUQ(R) WILL CONTAIN +1,+0,-1 FOR A Q(R)ACCDOT VALUE
000295:                                                                                                  #  WHICH IS NEGATIVE, ZERO, OR POSITIVE.
000296:
000297:                                                                                                  #  INPUTS:  AOSQ,AOSR, SCALED AT P1/2, AND ACCDOTQ, ACCDOTR AT PI/2(7).    PI/2(7).
000298:
000299:                                                                                                  #  OUTPUTS:   NEW GIMBAL DRIVE BITS IN CHANNEL 12,NEGUQ,NEGUR,QACCDOT AND RACCDOT, THE LAST SCALED AT PI/2(7).
000300:                                                                                                  #             Q(R)GIMTIMR WILL BE SET TO TIME AND TERMINATE GIMBAL DRIVE(S)
000301:
000302:                                                                                                  #  DEBRIS:  A,L,Q, ITEMPS 2,3,6, RUPTREG2 AND ACDT+C12 DEBRIS.
000303:
000304:                                                                                                  #  EXITS:  VIA TC Q.
000305:
000306:                                                                                                  #  ALARMS, ABORTS, :  NONE.
000307:
000308:                                                                                                  #  SUBROUTINES:  ACDT+C12, IBNKCALL
000309:
000310:                                                                                                  #  WARNING:  THIS SUBROUTINE WRITES INTO CHANNEL 12 AND USES THE ITEMPS.  THEREFORE IT MAY ONLY BE CALLED WITH
000311:                                                                                                  #  INTERRUPT INHIBITED.
000312:
000313:                                                                                                  #  ERASABLE STORAGE CONFIGURATION (NEEDED BY THE INDEXING METHODS):
000314:
000315:                                                                                                  #                                          NEGUQ    ERASE    +2            NEGATIVE OF Q-AXIS GIMBAL DRIVE
000316:                                                                                                  #                                          (SPWORD) EQUALS  NEGUQ +1       ANY S.P. ERASABLE NUMBER, NOW THRSTCMD
000317:                                                                                                  #                                          NEGUR    EQUALS  NEGUQ +2       NEGATIVE OF R-AXIS GIMBAL DRIVE
000318:
000319:                                                                                                  #                                          ACCDOTQ  ERASE    +2            Q-JERK TERM SCALED AT PI/2(7) RAD/SEC(3)
000320:                                                                                                  #                                          (SPWORD) EQUALS  ACCDOTQ +1     ANY S.P. ERASABLE NUMBER  NOW QACCDOT
000321:                                                                                                  #                                          ACCDOTR  EQUALS  ACCDOTQ +2     R-JERK TERM SCALED AT PI/2(7) RAD/SEC(3)
000322:                                                                                                  #                                                                          ACCDOTQ,ACCDOTR ARE MAGNITUDES.
000323:                                                                                                  #                                          AOSQ     ERASE   +4             Q-AXIS ACC.,D.P. AT PI/2 R/SEC(2)
000324:                                                                                                  #                                          AOSR     EQUALS  AOSQ +2        R-AXIS ACCELERATION SCALED AT PI/2 R/S2
000325:
000326: 21,3257     0066               QRNDXER            EQUALS   ITEMP6
000327: 21,3257           23146        OCT23146           OCTAL    23146                                 #  DECIMAL .6
000328: 21,3260     0063               NZACCDOT           EQUALS   ITEMP3
000329:
000330: 21,3260           34744        TIMEGMBL           CAF      ONE                                   #  INITIALZE ALLOWGTS.
000331: 21,3261           55502                           TS       ALLOWGTS
000332:
000333: 21,3262           34743                           CAF      TWO                                   #  SET UP LOOP FOR R AXIS.
000334: 21,3263           22002                           LXCH     Q                                     #  SAVE RETURN ADDRESS.
000335: 21,3264           22071                           LXCH     RUPTREG2
000336:


000338: 21,3265           13267                           TCF      +2
000339: 21,3266           34746        TIMQGMBL           CAF      ZERO                                  #  NOW DO THE Q-AXIS
000340: 21,3267           54066                           TS       QRNDXER
000341: 21,3270           50066                           INDEX    QRNDXER
000342: 21,3271           31507                           CA       ACCDOTQ                               #  ACCDOT IS PRESUMED TO BE AT PI/2(7).
000343: 21,3272           00006                           EXTEND
000344: 21,3273           63343                           BZMF     TGOFFNOW                              #  IS ACCDOT LESS THAN OR EQUAL TO 0?
000345: 21,3274           54063                           TS       NZACCDOT                              #  NO.  STORE NON-ZERO, POSITIVE ACCDOT.
000346:
000347: 21,3275           50066        ALPHATRY           INDEX    QRNDXER
000348: 21,3276           41536                           CS       AOSQ
000349: 21,3277           00006                           EXTEND
000350: 21,3300           13343                           BZF      TGOFFNOW                              #  IS ALPHA ZERO?
000351:
000352: 21,3301           54002                           TS       Q                                     #  SAVE A COPY OF -AOS.
000353: 21,3302           00006                           EXTEND                                         #  NO.  RESCALE FOR TIMEGMBL USE.
000354: 21,3303           73257                           MP       OCT23146                              #  OCTAL 23146 IS DECIMAL .6
000355: 21,3304           60002                           AD       Q                                     #  -1.6*AOS AT PI/2 = -.4*AOS AT PI/8
000356: 21,3305           54001                           TS       L                                     #  WAS THERE OVERFLOW?
000357: 21,3306           13313                           TCF      SETNEGU                               #  NO.  COMPUTE DRIVE TIME.
000358:
000359: 21,3307           40000                           CS       A                                     #  RECOVER  -SGN(AOS) IN THE A REGISTER.
000360: 21,3310           50066                           INDEX    QRNDXER                               #  YES.  START DRIVE WITHOUT WAITLIST.
000361: 21,3311           57501                           XCH      NEGUQ
000362: 21,3312           13347                           TCF      NOTALLOW                              #  KNOCK DOWN THE ALLOWGTS FLAG.
000363:
000364: 21,3313           00006        SETNEGU            EXTEND
000365: 21,3314           63321                           BZMF     POSALPH
000366:
000367: 21,3315           40000                           COM
000368: 21,3316           54062                           TS       ITEMP2                                #  STORE  -ABS(.4*AOS) SCALED AT PI/8.
000369: 21,3317           44744                           CS       BIT1
000370: 21,3320           13323                           TCF      POSALPH    +2
000371: 21,3321           54062        POSALPH            TS       ITEMP2                                #  STORE  -ABS(.4*AOS) SCALED AT PI/8.
000372: 21,3322           34744                           CA       BIT1
000373: 21,3323           50066                 +2        INDEX    QRNDXER                               #  SGN(AOS) INTO NEGU
000374: 21,3324           55501                           TS       NEGUQ                                 #  STORE SGN(ALPHA) AS NEGU
000375:
000376: 21,3325           30063                           CA       NZACCDOT
000377: 21,3326           00006                           EXTEND
000378: 21,3327           74731                           MP       BIT12                                 #  2*ACCDOT, SCALED AT PI/8.
000379: 21,3330           60062                           AD       ITEMP2                                #  -ABS(ALPHA) + 2*ACCDOT, AT PI/8.
000380: 21,3331           00006                           EXTEND
000381: 21,3332           63347                           BZMF     NOTALLOW                              #  IS DRIVE TIME MORE THAN TWO SECONDS?
000382: 21,3333           40062                           CS       ITEMP2                                #  NO.  COMPUTE DRIVE TIME.
000383: 21,3334           00006                           EXTEND                                         #  ABS(ALPHA) AT PI/8.
000384: 21,3335           73370                           MP       OCT00240                              #  DECIMAL 10/1024
000385: 21,3336           00006                           EXTEND                                         #  QUOTIENT IS DRIVE TIME AT WAITLIST.
000386: 21,3337           10063                           DV       NZACCDOT                              #  ABS(ALPHA)/ACCDOT AT 2(14)/100
000387:


000389: 21,3340           00006                           EXTEND
000390: 21,3341           13343                           BZF      TGOFFNOW                              #  DRIVE TIME MUST BE GREATER THAN ZERO.
000391:
000392: 21,3342           13355                           TCF      DRIVEON
000393:
000394: 21,3343           34746        TGOFFNOW           CAF      ZERO                                  #  TURN OFF GIMBAL NOW.
000395: 21,3344           50066                           INDEX    QRNDXER
000396: 21,3345           55501                           TS       NEGUQ
000397:
000398: 21,3346           13357                           TCF      DONEYET
000399:
000400: 21,3347           36010        NOTALLOW           CAF      OCT31
000401: 21,3350           50066                           INDEX    QRNDXER
000402: 21,3351           55631                           TS       QGIMTIMR
000403: 21,3352           34746                           CAF      ZERO                                  #  DRIVE TIME IS MORE THAN 2 SECONDS, SO
000404: 21,3353           55502                           TS       ALLOWGTS                              #  DO NOT PERMIT FURTHER GTS ATTITUDE-RATE
000405:                                                                                                  #  CONTROL UNTIL AOSTASK APPROVES.
000406: 21,3354           13357                           TCF      DONEYET                               #  NO WAITLIST CALL IS MADE.
000407:
000408: 21,3355           50066        DRIVEON            INDEX    QRNDXER
000409: 21,3356           55631                           TS       QGIMTIMR                              #  CHOOSE Q OR R AXIS.
000410:
000411: 21,3357           10066        DONEYET            CCS      QRNDXER
000412: 21,3360           13266                           TCF      TIMQGMBL
000413:
000414: 21,3361           52073                           DXCH     RUPTREG3                              #  PROTECT IBNKCALL ERASABLES.  ACDT+C12
000415: 21,3362           52063                           DXCH     ITEMP2                                #  LEAVES ITEMPS2,3 ALONE.
000416:
000417: 21,3363           04665                           TC       IBNKCALL                              #  TURN OFF CHANNEL BITS, SET Q(R)ACCDOTS.
000418: 21,3364           35737                           CADR     ACDT+C12
000419:
000420: 21,3365           52063                           DXCH     ITEMP2                                #  RESTORE ERASABLES FOR IBNKCALL.
000421: 21,3366           52073                           DXCH     RUPTREG3
000422:
000423: 21,3367           00071                           TC       RUPTREG2                              #  RETURN TO CALLER.
000424:
000425: 21,3370           00240        OCT00240           OCTAL    00240                                 #  DECIMAL 10/1024
000426:


000428:                                                                                                  #  THE FOLLOWING SECTION IS A CONTINUATION OF THE TRIM GIMBAL CONTROL FROM THE LAST GTS ENTRY. THE QUANTITY NEGUSUM
000429:                                                                                                  #  IS COMPUTED FOR EACH AXIS (Q,R), .707*DEL*FUNCTION(3/2) + K2THETA = NEGUSUM.  NEW DRIVES ARE ENTERED TO CH 12.
000430:
000431:                                                                                                  #  THE SUBROUTINE GTSQRT ACCEPTS A DOUBLE PRECISION VALUE IN FUNCTION, FUNCTION +1 AND RETURNS A SINGLE-PRECISION
000432:                                                                                                  #  SQUARE ROOT OF THE FOURTEEN MOST SIGNIFICANT BITS OF THE ARGUMENT.  ALSO, THE CELL SHFTFLAG CONTAINS A BINARY
000433:                                                                                                  #  EXPONENT S, SUCH THAT THE SQUARE ROOT (RETURNED IN THE A REGISTER) MUST BE SHIFTED RIGHT (MULTIPLIED BY 2 TO THE
000434:                                                                                                  #  POWER (-S)) IN ORDER TO BE THE TRUE SQUARE ROOT OF THE FOURTEEN MOST SIGNIFICANT BITS OF FUNCTION, FUNCTION +1.
000435:                                                                                                  #  SQUARE ROOT ERROR IS NOT MORE THAN 2 IN THE 14TH SIGNIFICANT BIT.  CELLS CLOBBERED ARE A,L,SHFTFLAG,ININDEX,
000436:                                                                                                  #  HALFARG,SCRATCH,SR,FUNCTION, FUNCTION +1.  GTSQRT IS CALLED BY TC GTSQRT AND RETURNS VIA TC Q OR TC FUNCTION +1.
000437:                                                                                                  #  ZERO OR NEGATIVE ARGUMENTS YIELD ZERO FOR SQUARE ROOTS.
000438:
000439: 21,3371           11750        GTSQRT             CCS      FUNCTION
000440: 21,3372           13410                           TCF      GOODARG                               #  FUNCTION IS POSITIVE.  TAKE SQUARE ROOT.
000441: 21,3373           13375                           TCF      +2                                    #  HIGH ORDER WORD IS ZERO.  TRY THE LOWER.
000442: 21,3374           13401                           TCF      ZEROOT                                #  NEGATIVE.  USE ZERO FOR 1/2 POWER.
000443:
000444: 21,3375           31751                           CA       FUNCTION   +1
000445: 21,3376           00006                           EXTEND
000446: 21,3377           63401                           BZMF     ZEROOT
000447:
000448: 21,3400           13404                           TCF      ZEROHIGH                              #  PROCEED.
000449: 21,3401           34746        ZEROOT             CA       ZERO
000450: 21,3402           55740                           TS       SHFTFLAG
000451: 21,3403           00002                           TC       Q
000452:
000453: 21,3404           57750        ZEROHIGH           XCH      FUNCTION                              #  14 MOST SIGNIFICANT BITS ARE IN THE
000454: 21,3405           57751                           XCH      FUNCTION   +1                         #  LOWER WORD.  EXCHANGE THEM.
000455: 21,3406           34750                           CA       SEVEN
000456: 21,3407           13411                           TCF      GOODARG    +1
000457:
000458: 21,3410           34746        GOODARG            CA       ZERO
000459: 21,3411           55740                           TS       SHFTFLAG
000460: 21,3412           35745                           CA       TWELVE                                #  INITIALIZE THE SCALING LOOP.
000461: 21,3413           55743                           TS       ININDEX
000462: 21,3414           13423                           TCF      SCALLOOP
000463:
000464: 21,3415           31750        SCALSTRT           CA       FUNCTION
000465: 21,3416           13437                           TCF      SCALDONE
000466:
000467: 21,3417           37767        MULBUSH            CA       NEG2                                  #  IF ARG IS NOT LESS THAN 1/4, INDEX IS
000468: 21,3420           27743                           ADS      ININDEX                               #  ZERO, INDICATING NO SHIFT NEEDED.
000469: 21,3421           00006                           EXTEND                                         #  BRANCH IF ARG IS NOT LESS THAN 1/4.
000470: 21,3422           63415                           BZMF     SCALSTRT                              #  OTHERWISE COMPARE ARG WITH A REFERENCE
000471:                                                                                                  #  WHICH IS 4 TIMES LARGER THAN THE LAST.
000472: 21,3423           41750        SCALLOOP           CS       FUNCTION
000473: 21,3424           51743                           INDEX    ININDEX
000474: 21,3425           64726                           AD       BIT15                                 #  REFERENCE MAGNITUDE LESS OR EQUAL TO 1/4
000475: 21,3426           00006                           EXTEND
000476: 21,3427           63417                           BZMF     MULBUSH                               #  IF ARG IS NOT LESS THAN REFERENCE, GO
000477:                                                                                                  #  AROUND THE MULBERRY BUSH ONCE MORE.
000478:


000480: 21,3430           51743                           INDEX    ININDEX
000481: 21,3431           34726                           CA       BIT15                                 #  THIS IS THE SCALE MAGNITUDE
000482: 21,3432           57746                           XCH      HALFARG                               #  2**(-ININDEX) IS THE SHIFT DIVISOR.
000483: 21,3433           00006                           EXTEND                                         #  RESCALE ARGUMENT.
000484: 21,3434           31751                           DCA      FUNCTION
000485: 21,3435           00006                           EXTEND
000486: 21,3436           11746                           DV       HALFARG
000487:                                                                                                  #  ININDEX AND SHFTFLAG PRESERVE INFO FOR
000488:
000489:                                                                                                  #  RESCALING AFTER ROOT PROCESS.
000490: 21,3437           00006        SCALDONE           EXTEND
000491: 21,3440           23751                           QXCH     FUNCTION   +1                         #  SAVE Q FOR RETURN
000492: 21,3441           00006                           EXTEND
000493: 21,3442           74727                           MP       BIT14
000494: 21,3443           55746                           TS       HALFARG
000495: 21,3444           74730                           MASK     BIT13
000496: 21,3445           10000                           CCS      A
000497: 21,3446           33564                           CA       OCT11276
000498: 21,3447           63562                           AD       ROOTHALF                              #  INITIAL GUESS IS ROOT 1/2 OR POSMAX
000499:
000500: 21,3450           03566                           TC       ROOTCYCL
000501: 21,3451           03566                           TC       ROOTCYCL
000502: 21,3452           03566                           TC       ROOTCYCL
000503:
000504: 21,3453           01751                           TC       FUNCTION   +1
000505:
000506:                                                                                                  #  ***************************************************************************************************************
000507:
000508:
000509: 21,3454           03371        RSTOFGTS           TC       GTSQRT
000510: 21,3455           57741        PRODUCT            XCH      K2CNTRAL
000511: 21,3456           00006                           EXTEND
000512: 21,3457           71741                           MP       K2CNTRAL
000513: 21,3460           53742                           DXCH     K2CNTRAL
000514: 21,3461           00006                           EXTEND                                         #              THE PRODUCT OF
000515: 21,3462           70001                           MP       L                                     #   1/2                   2       1/2
000516: 21,3463           27742                           ADS      K2CNTRAL   +1                         #  K   *(DEL*OMEGA + ALPHA /(2*K))
000517: 21,3464           54001                           TS       L                                     #                   AND
000518: 21,3465           13467                           TCF      +2                                    #                         2
000519: 21,3466           27741                           ADS      K2CNTRAL                              #   DEL*(DEL*OMEGA + ALPHA /(2*K)) NOW IN
000520:                                                                                                  #  K2CNTRAL
000521:
000522: 21,3467           31743        DOSHIFT            CA       ININDEX
000523: 21,3470           00006                           EXTEND                                         #  MULTIPLY IN THE FACTOR 2(-S), RETURNED
000524: 21,3471           74727                           MP       BIT14                                 #  BY THE GTSQRT SUBROUTINE
000525: 21,3472           27740                           ADS      SHFTFLAG
000526: 21,3473           00006                           EXTEND
000527: 21,3474           13513                           BZF      ADDITIN
000528: 21,3475           51740                           INDEX    SHFTFLAG
000529: 21,3476           34726                           CA       BIT15
000530:


000532: 21,3477           57741                           XCH      K2CNTRAL
000533: 21,3500           00006                           EXTEND
000534: 21,3501           71741                           MP       K2CNTRAL
000535: 21,3502           21737                           DAS      K2THETA
000536: 21,3503           57741                           XCH      K2CNTRAL
000537: 21,3504           00006                           EXTEND
000538: 21,3505           71742                           MP       K2CNTRAL   +1
000539: 21,3506           27737                           ADS      K2THETA    +1
000540: 21,3507           54001                           TS       L
000541: 21,3510           13512                           TCF      +2
000542: 21,3511           27736                           ADS      K2THETA
000543:
000544: 21,3512           13516                           TCF      NEGUSUM
000545:
000546: 21,3513           00006        ADDITIN            EXTEND
000547: 21,3514           31742                           DCA      K2CNTRAL
000548: 21,3515           21737                           DAS      K2THETA                               #  NOW ADD IN THE K2THETA TERM.
000549: 21,3516           11736        NEGUSUM            CCS      K2THETA                               #  TEST SIGN OF HIGH ORDER PART.
000550: 21,3517           13523                           TCF      NEGDRIVE
000551: 21,3520           13522                           TCF      +2
000552: 21,3521           13525                           TCF      POSDRIVE
000553:
000554: 21,3522           11737                           CCS      K2THETA    +1                         #  SIGN TEST FOR LOW ORDER PART.
000555: 21,3523           34744        NEGDRIVE           CA       BIT1
000556: 21,3524           13526                           TCF      +2                                    #  STOP GIMBAL DRIVE FOR A ZERO NEGUSUM.
000557: 21,3525           44744        POSDRIVE           CS       BIT1
000558: 21,3526           54001                           TS       L                                     #  SAVE FOR DRIVE REVERSAL TEST.
000559: 21,3527           51747                           INDEX    QRCNTR
000560: 21,3530           57501                           XCH      NEGUQ
000561:
000562: 21,3531           00006                           EXTEND
000563: 21,3532           70001                           MP       L                                     #  MULTIPLY OLD NEGU AND NEW NEGU.
000564: 21,3533           10001                           CCS      L
000565: 21,3534           13551                           TCF      LOUPE                                 #  NON-ZERO GIMBAL DRIVE BEING CONTINUED.
000566:
000567: 21,3535           13546                           TCF      ZEROLOUP                              #  NO REVERSAL PROBLEM HERE.
000568:
000569: 21,3536           13540                           TCF      REVERSAL                              #  NON-ZERO GIMBAL DRIVE BEING REVERSED.
000570: 21,3537           13546                           TCF      ZEROLOUP                              #  NO REVERSAL PROBLEM HERE.
000571:
000572: 21,3540           51747        REVERSAL           INDEX    QRCNTR                                #  A ZERO-DRIVE PAUSE IS NEEDED HERE.  ZERO
000573: 21,3541           55510                           TS       QACCDOT                               #  IS IN A REGISTER FROM CCS ON (-1).
000574: 21,3542           51747                           INDEX    QRCNTR
000575: 21,3543           43563                           CS       GMBLBITA
000576: 21,3544           00006                           EXTEND
000577: 21,3545           03012                           WAND     CHAN12
000578:
000579: 21,3546           41774        ZEROLOUP           CS       RCSFLAGS                              #  SET UP REQUEST FOR ACDT+C12 CALL.
000580: 21,3547           74740                           MASK     CALLGMBL
000581: 21,3550           27774                           ADS      RCSFLAGS
000582:


000584: 21,3551           11747        LOUPE              CCS      QRCNTR                                #  HAVE BOTH AXES BEEN PROCESSED?
000585: 21,3552           13045                           TCF      GOQTRIMG                              #  NO.  DO Q AXIS NEXT.
000586:
000587: 21,3553           31505                           CA       SAVESR                                #  RESTORE THE SR
000588: 21,3554           54021                           TS       SR
000589:
000590: 21,3555           00006        GOCLOSE            EXTEND                                         #  TERMINATE THE JASK.
000591: 21,3556           33561                           DCA      CLOSEADR
000592: 21,3557           52006                           DTCB
000593:
000594: 21,3560  E6,1536                                  EBANK=   AOSQ
000595: 21,3560           03270 36106  CLOSEADR           2CADR    CLOSEOUT                              #  TERMINATE THE JASK.
000596:
000597: 21,3562     5745               TWELVE             EQUALS   OCT14
000598: 21,3562           26501        ROOTHALF           OCTAL    26501                                 #  SQUARE ROOT OF 1/2
000599: 21,3563           01400        GMBLBITA           OCTAL    01400                                 #  INDEXED WRT GMBLBITB   DO NOT MOVE*******
000600: 21,3564           11276        OCT11276           OCTAL    11276                                 #  POSMAX - ROOTHALF
000601: 21,3565           06000        GMBLBITB           OCTAL    06000                                 #  INDEXED WRT GMBLBITA   DO NOT MOVE*******
000602:
000603:                                                                                                  #  SUBROUTINE ROOTCYCL:  BY CRAIG WORK,3 APRIL 68
000604:                                                                                                  #  ROOTCYCL IS A SUBROUTINE WHICH EXECUTES ONE NEWTON SQUARE ROOT ALGORITHM ITERATION.  THE INITIAL GUESS AT THE
000605:                                                                                                  #  SQUARE ROOT IS PRESUMED TO BE IN THE A REGISTER AND ONE-HALF THE SQUARE IS TAKEN FROM HALFARG.  THE NEW APPROXI-
000606:                                                                                                  #  MATION TO THE SQUARE ROOT IS RETURNED IN THE A REGISTER.  DEBRIS:   A,L,SR,SCRATCH.  ROOTCYCL IS CALLED FROM
000607:                                                                                                  #  LOCATION (LOC) BY A TC ROOTCYCL, AND RETURNS (TC Q) TO LOC +1.
000608:
000609:                                                                                                  #  WARNING:  IF THE INITIAL GUESS IS NOT GREATER THAN THE SQUARE, DIVIDE OR ADD OVERFLOW IS A REAL POSSIBILITY.
000610:
000611: 21,3566           55745        ROOTCYCL           TS       SCRATCH                               #  STORE X
000612: 21,3567           54021                           TS       SR                                    #  X/2 NOW IN SR
000613: 21,3570           31746                           CA       HALFARG                               #  ARG/2 IN THE A REG
000614: 21,3571           22007                           ZL                                             #  PREPARE FOR DIVISION
000615: 21,3572           00006                           EXTEND
000616: 21,3573           11745                           DV       SCRATCH                               #  (ARG/X)/2
000617: 21,3574           60021                           AD       SR                                    #  (X + ARG/X)/2 IN THE A REG
000618: 21,3575           00002                           TC       Q

End of include-file TRIM_GIMBAL_CONTROL_SYSTEM.agc.  Parent file is MAIN.agc


