
Source Code


000002:                                                                                                  ## Copyright:   Public domain.
000003:                                                                                                  ## Filename:    UPDATE_PROGRAM.agc
000004:                                                                                                  ## Purpose:     A section of Luminary revision 210.
000005:                                                                                                  ##              It is part of the source code for the Lunar Module's (LM)
000006:                                                                                                  ##              Apollo Guidance Computer (AGC) for Apollo 15-17.
000007:                                                                                                  ##              This file is intended to be a faithful transcription, except
000008:                                                                                                  ##              that the code format has been changed to conform to the
000009:                                                                                                  ##              requirements of the yaYUL assembler rather than the
000010:                                                                                                  ##              original YUL assembler.
000011:                                                                                                  ## Reference:   pp. 1383-1393
000012:                                                                                                  ## Assembler:   yaYUL
000013:                                                                                                  ## Contact:     Ron Burkey <info@sandroid.org>.
000014:                                                                                                  ## Website:     www.ibiblio.org/apollo/index.html
000015:                                                                                                  ## Mod history: 2016-11-17 JL   Created from Luminary131 version.
000016:                                                                                                  ##              2016-12-06 RRB  Updated for Luminary210.
000017:                                                                                                  ##              2016-12-07 HG   Fix P00 -> POO (appears only in comments)
000018:                                                                                                  ##                         Change POO -> P00 in some comments
000019:                                                                                                  ##              2016-12-11 HG   Add missing operation  AD BIT1
000020:                                                                                                  ##              2016-12-26 RSB  Comment-text proofed using ProoferComments
000021:                                                                                                  ##                              and corrected errors found.
000022:                                                                                                  ##              2017-01-28 RSB  Comment-text fixes identified for Luminary 69.
000023:                                                                                                  ##              2017-02-09 RSB  Comment-text fixes identified for Artemis 72.
000024:                                                                                                  ##              2017-06-17 MAS  Globally removed all SBANK= workarounds.
000025:                                                                                                  ##              2021-05-30 ABS  DELTAOK -> DELTATOK
000026:


000028:                                                                                                  #  PROGRAM NAME:         P27
000029:                                                                                                  #  WRITTEN BY:           KILROY/ DE WOLF
000030:
000031:                                                                                                  #  MOD NO:               6
000032:                                                                                                  #  MOD BY:               KILROY
000033:                                                                                                  #  DATE:                 01DEC67
000034:
000035:                                                                                                  #  LOG SECTION:          UPDATE PROGRAM.
000036:
000037:                                                                                                  #  FUNCT. DESCR:         P27 (THE UPDATE PROGRAM) PROCESSES COMMANDS AND DATA
000038:                                                                                                  #                                INSERTIONS REQUESTED BY THE GROUND VIA UPLINK.
000039:                                                                                                  #                                THE P27 PROGRAM WILL ACCEPT UPDATES
000040:                                                                                                  #                                ONLY DURING P00 FOR THE LM, AND ONLY DURING P00,
000041:                                                                                                  #                        P02, AND FRESH START FOR THE CSM
000042:
000043:                                                                                                  #  CALLING SEQ:          PROGRAM IS INITIATED BY UPLINK ENTRY OF VERBS 70, 71, 72 AND 73.
000044:
000045:                                                                                                  #  SUBROUTINES:          TESTXACT, NEWMODEX, NEWMODEX +3, GOXDSPF, BANKCALL, FINDVAC, INTPRET, INTSTALL, TPAGREE,
000046:                                                                                                  #                        INTWAKEU, ENDEXT, POSTJUMP, FALTON, NEWPHASE, PHASCHNG
000047:
000048:                                                                                                  #  NORMAL EXIT:          TC ENDEXT
000049:
000050:                                                                                                  #  ALARM/ABORT:          TC FALTON FOLLOWED BY TC ENDEXT
000051:
000052:                                                                                                  #  RESTARTS:             P27 IS RESTART PROTECTED IN TWO WAYS ...
000053:                                                                                                  #                        1.      PRIOR TO VERIFLAG INVERSION (WHICH IS CAUSED BY THE GROUND/ASTRONAUT'S VERIFICATION OF UPDATE
000054:                                                                                                  #                                DATA BY SENDING A V33E WHEN V21N02 IS FLASHING)---
000055:                                                                                                  #                                NO PROTECTION EXCEPT PRE-P27 MODE IS RESTORED, COAST + ALIGN DOWNLIST IS SELECTED AND UPLINK
000056:                                                                                                  #                                ACTIVITY LIGHT IS TURNED OFF.  (JUST AS IF A V34E WAS SENT DURING P27 DATA LOADS).
000057:                                                                                                  #                                V70,V71,V72 OR V73 WILL HAVE TO BE COMPLETELY RESENT BY USER.
000058:                                                                                                  #                        2.      AFTER VERIFLAG INVERSION (WHEN UPDATE OF THE SPECIFIED ERASABLES IS BEING PERFORMED)---
000059:                                                                                                  #                                PROTECTED AGAINST RESTARTS.
000060:
000061:                                                                                                  #  DEBRIS:               UPBUFF  (20D)   TEMP STORAGE FOR ADDRESSES AND CONTENTS.
000062:                                                                                                  #                        UPVERB  (1)     VERB NUMBER MINUS 70D (E.G. FOR V72, UPVERB = 72D - 70D = 2)
000063:                                                                                                  #                        UPOLDMOD(1)     FOR MAJOR MODE INTERRUPTED BY P27.
000064:                                                                                                  #                        COMPNUMB(1)     TOTAL NUMBER OF COMPONENTS TO BE TRANSMITTED.
000065:                                                                                                  #                        UPCOUNT (1)     ACTUAL NUMBER OF COMPONENTS RECEIVED.
000066:                                                                                                  #                        UPTEMP  (1)     SCRATCH, BUT USUALLY CONTAINS COMPONENT NUMBER TO BE CHANGED DURING VERIFY CYCLE
000067:
000068:                                                                                                  #  INPUT:
000069:
000070:                                                                                                  #        ENTRY:                  DESCRIPTION
000071:                                                                                                  #        V70EXXXXXEXXXXXE        (LIFTOFF TIME INCREMENT) DOUBLE PRECISION OCTAL TIME INCREMENT, XXXXX XXXXX,
000072:                                                                                                  #                                IS ADDED TO TEPHEM, SUBTRACTED FROM AGC CLOCK(TIME2,TIME1), SUBTRACTED FROM CSM STATE
000073:                                                                                                  #                                VECTOR TIME(TETCSM) AND SUBTRACTED FROM LEM STATE VECTOR TIME(TETLEM).
000074:                                                                                                  #                                THE DP OCTAL TIME INCREMENT IS SCALED AT 2(28).


000076:                                                                                                  #         V71EIIEAAAAE           (CONTIGUOUS BLOCK UPDATE) II-2 OCTAL COMPONENTS, XXXXX,
000077:                                                                                                  #         XXXXXE                 ARE LOADED INTO ERASABLE STARTING AT ECADR, AAAA.
000078:                                                                                                  #        XXXXXE                  IT IS .GE. 3 .AND. .LE. 20D.,
000079:                                                                                                  #                                AND (AAAA + II -3) DOES NOT PRODUCE AN ADDRESS IN THE
000080:                                                                                                  #        9 NEXT BANK
000081:                                                                                                  #         .                      SCALING IS SAME AS INTERNAL REGISTERS.
000082:                                                                                                  #        V72EIIE                 (SCATTER UPDATE) (II-1)/2 OCTAL COMPONENTS, XXXXX, ARE
000083:                                                                                                  #        AAAAEXXXXXE             LOADED INTO ERASABLE LOCATIONS, AAAA.
000084:                                                                                                  #        AAAAEXXXXXE             II IS .GE. 3 .AND. .LE. 19D, AND MUST BE ODD.
000085:                                                                                                  #         .                      SCALING IS SAME AS INTERNAL REGISTERS.
000086:
000087:                                                                                                  #        V73EXXXXXEXXXXXE        (OCTAL CLOCK INCREMENT) DOUBLE PRECISION OCTAL TIME
000088:                                                                                                  #                                INCREMENT XXXXX XXXXX, IS ADDED TO THE AGC CLOCK, IN
000089:                                                                                                  #                                CENTISECONDS SCALED AT (2)28.
000090:                                                                                                  #                                THIS LOAD IS THE OCTAL EQUIVALENT OF V55.
000091:
000092:                                                                                                  #  OUTPUT:               IN ADDITION TO THE ABOVE REGISTER LOADS, ALL UPDATES
000093:                                                                                                  #                        COMPLEMENT BIT3 OF FLAGWORD7.
000094:
000095:                                                                                                  #  ADDITIONAL NOTES:     VERB 71, JUST DEFINED ABOVE WILL BE USED TO PERFORM BUT NOT LIMITED TO THE FOLLOWING UPDATES --
000096:                                                                                                  #                        1.  CSM/LM STATE VECTOR UPDATE
000097:                                                                                                  #                        2.  REFSMMAT UPDATE
000098:
000099:                                                                                                  #        THE FOLLOWING COMMENTS DELINEATE EACH SPECIAL UPDATE----
000100:
000101:                                                                                                  #  1.  CSM/LM STATE VECTOR UPDATE (ALL DATA ENTRIES IN OCTAL)
000102:                                                                                                  #  ENTRIES:      DATA DEFINITION:                                SCALE FACTORS:
000103:                                                                                                  #  V71E          CONTIGUOUS BLOCK UPDATE VERB
000104:                                                                                                  #     21E        NUMBER OF COMPONENTS FOR STATE VECTOR UPDATE
000105:                                                                                                  #   AAAAE        ECADR OF 'UPSVFLAG'
000106:                                                                                                  #  XXXXXE        STATE VECTOR IDENTIFIER: 00001 FOR CSM, 77776 FOR LEM - EARTH SPHERE OF INFLUENCE SCALING
000107:                                                                                                  #                                         00002 FOR CSM, 77775 FOR LEM - LUNAR SPHERE OF INFLUENCE SCALING
000108:                                                                                                  #  XXXXXEXXXXXE  X POSITION
000109:                                                                                                  #  XXXXXEXXXXXE  Y POSITION
000110:                                                                                                  #  XXXXXEXXXXXE  Z POSITION
000111:                                                                                                  #  XXXXXEXXXXXE  X VELOCITY
000112:                                                                                                  #  XXXXXEXXXXXE  Y VELOCITY
000113:                                                                                                  #  XXXXXEXXXXXE  Z VELOCITY
000114:                                                                                                  #  XXXXXEXXXXXE  TIME FROM AGC CLOCK ZERO
000115:                                                                                                  #  V33E          VERB 33 TO SIGNAL THAT THE STATE VECTOR IS READY TO BE STORED.
000116:
000117:                                                                                                  #  2.  REFSMMAT (ALL DATA ENTRIES IN OCTAL)
000118:                                                                                                  #  ENTRIES:              DATA DEFINITIONS:                               SCALE FACTORS:


000120:                                                                                                  #  V71E          CONTIGUOUS BLOCK UPDATE VERB
000121:                                                                                                  #     24E        NUMBER OF COMPONENTS FOR REFSMMAT UPDATE
000122:                                                                                                  #  AAAAE         ECADR OF 'REFSMMAT'
000123:                                                                                                  #  XXXXXEXXXXXE  ROW 1 COLUMN 1                                  2(-1)
000124:                                                                                                  #  XXXXXEXXXXXE  ROW 1 COLUMN 2                                  2(-1)
000125:                                                                                                  #  XXXXXEXXXXXE  ROW 1 COLUMN 3                                  2(-1)
000126:                                                                                                  #  XXXXXEXXXXXE  ROW 2 COLUMN 1                                  2(-1)
000127:                                                                                                  #  XXXXXEXXXXXE  ROW 2 COLUMN 2                                  2(-1)
000128:                                                                                                  #  XXXXXEXXXXXE  ROW 2 COLUMN 3                                  2(-1)
000129:                                                                                                  #  XXXXXEXXXXXE  ROW 3 COLUMN 1                                  2(-1)
000130:                                                                                                  #  XXXXXEXXXXXE  ROW 3 COLUMN 2                                  2(-1)
000131:                                                                                                  #  XXXXXEXXXXXE  ROW 3 COLUMN 3                                  2(-1)
000132:                                                                                                  #  V33E          VERB 33 TO SIGNAL THAT REFSMMAT IS READY TO BE STORED.
000133:
000134: 07,3767                                           BANK     07
000135: 43,2000                                           SETLOC   EXTVERBS
000136: 43,2000                                           BANK
000137:
000138: 43,3727  E3,1706                                  EBANK=   TEPHEM
000139:
000140: 43,3727                                           COUNT*   $$/P27
000141: 43,3727           34746        V70UPDAT           CAF      UP70                                  #  COMES HERE ON V70E
000142: 43,3730           13736                           TCF      V73UPDAT   +1
000143:
000144: 43,3731           34744        V71UPDAT           CAF      UP71                                  #  COMES HERE ON V71E
000145: 43,3732           13736                           TCF      V73UPDAT   +1
000146:
000147: 43,3733           34743        V72UPDAT           CAF      UP72                                  #  COMES HERE ON V72E
000148: 43,3734           13736                           TCF      V73UPDAT   +1
000149:
000150: 43,3735           36266        V73UPDAT           CAF      UP73                                  #  COMES HERE ON V73E
000151:
000152: 43,3736           55165                 +1        TS       UPVERBSV                              #  SAVE UPVERB UNTIL IT'S OK TO ENTER P27
000153:
000154: 43,3737           02076                           TC       TESTXACT                              #  GRAB DISPLAY IF AVAILABLE, OTHERWISE
000155:                                                                                                  #  TURN *OPERATOR ERROR* ON AND TERMINATEJOB
000156:
000157: 43,3740           04626                           TC       POSTJUMP                              #  LEAVE EXTENDED VERB BANK AND
000158: 43,3741           11372                           CADR     UPPART2                               #  GO TO UPDATE PROGRAM (P27) BANK.
000159:
000160: 43,3742     4746               UP70               EQUALS   ZERO
000161: 43,3742     4744               UP71               EQUALS   ONE
000162: 43,3742     4743               UP72               EQUALS   TWO
000163: 43,3742     6266               UP73               EQUALS   THREE


000165: 04,3372                                           BANK     04
000166: 04,2000                                           SETLOC   UPDATE2
000167: 04,2000                                           BANK
000168:
000169: 04,3372                                           COUNT*   $$/P27
000170:
000171: 04,3372                        UPPART2            EQUALS                                         #  UPDATE PROGRAM - PART 2
000172:
000173: 04,3372           31010                           CA       MODREG                                #  IS UPDATE ALLOWED AT THIS TIME?
000174: 04,3373           00006                           EXTEND                                         #  IS MODREG +0 (POOH) OR -0 (FRESH START)?
000175: 04,3374           13376                           BZF      UPDATOK
000176:
000177: 04,3375           03764        UPERROR            TC       UPERROUT   +2                         #  TURN ON OPERATOR ERROR LIGHT AND EXIT
000178:
000179: 04,3376           55170        UPDATOK            TS       UPOLDMOD
000180:
000181: 04,3377           31165                           CAE      UPVERBSV                              #  SET UPVERB TO TELL P27 WHICH EXTENDED
000182: 04,3400           55171                           TS       UPVERB                                #   VERB CALLED IT
000183:
000184: 04,3401           34744                           CAF      ONE
000185: 04,3402           55172                           TS       UPCOUNT
000186:
000187: 04,3403           05355                           TC       PHASCHNG                              #  SET RESTART GROUP 6 TO RESTORE OLD MODE
000188: 04,3404           07026                           OCT      07026                                 #  AND DOWNLIST AND EXIT IF RESTART OCCURS.
000189: 04,3405           30000                           OCT      30000                                 #  PRIORITY SAME AS CHRPRIO
000190: 04,3406     1173                                  EBANK=   UPBUFF
000191: 04,3406           03714 10102                     2CADR    UPOUT      +1
000192:
000193: 04,3410           34744                           CAF      ONE
000194: 04,3411           54333                           TS       DNLSTCOD                              #  DOWNLIST
000195:
000196: 04,3412           05313                           TC       NEWMODEX                              #  SET MAJOR MODE = 27
000197: 04,3413           00033                           DEC      27         B-14
000198:
000199: 04,3414           51171                           INDEX    UPVERB                                #  BRANCH DEPENDING ON WHETHER THE UPDATE
000200: 04,3415           13416                           TCF      +1                                    #  VERB REQUIRES A FIXED OR VARIABLE NUMBER
000201: 04,3416           13421                           TCF      +3                                    #  V70 FIXED.               (OF COMPONENTS.
000202: 04,3417           13424                           TCF      OHWELL1                               #  V71 VARIABLE - GO GET NO. OF COMPONENTS
000203: 04,3420           13424                           TCF      OHWELL1                               #  V72 VARIABLE - GO GET NO. OF COMPONENTS
000204: 04,3421           34743                           CA       TWO                                   #  V73 (AND V70) FIXED
000205: 04,3422           55167                           TS       COMPNUMB                              #  SET NUMBER OF COMPONENTS TO 2.
000206: 04,3423           13447                           TCF      OHWELL2                               #  GO GET THE TWO UPDATE COMPONENTS
000207:
000208: 04,3424           33517        OHWELL1            CAF      ADUPBUFF                              #  * REQUEST USER TO SEND NUMBER  *
000209: 04,3425           54156                           TS       MPAC       +2                         #  * OF COMPONENTS PARAMETER(II). *
000210: 04,3426           33520                 +2        CAF      UPLOADNV                              #  (CK4V32 RETURNS HERE IF V32 ENCOUNTERED)
000211: 04,3427           04607                           TC       BANKCALL                              #  DISPLAY A FLASHING V21N01
000212: 04,3430           20323                           CADR     GOXDSPF                               #  TO REQUEST II.
000213: 04,3431           13714                           TCF      UPOUT4                                #  V34 TERMINATE UPDATE (P27) RETURN


000215: 04,3432           13426                           TCF      OHWELL1    +2
000216: 04,3433           03510                           TC       CK4V32                                #  DATA OR V32 RETURN
000217: 04,3434           44743                           CS       BIT2
000218: 04,3435           61173                           AD       UPBUFF                                #  IS II (NUMBER OF COMPONENTS PARAMETER)
000219: 04,3436           00006                           EXTEND                                         #  .GE. 3 AND .LE. 20D.
000220: 04,3437           63426                           BZMF     OHWELL1    +2
000221: 04,3440           41173                           CS       UPBUFF
000222: 04,3441           64353                           AD       UP21
000223: 04,3442           00006                           EXTEND
000224: 04,3443           63426                           BZMF     OHWELL1    +2
000225: 04,3444           31173                           CAE      UPBUFF
000226: 04,3445           55167                           TS       COMPNUMB                              #  SAVE II IN COMPNUMB
000227:
000228:                                                                                                  #  UPBUFF LOADING SEQUENCE
000229:
000230: 04,3446           25172                           INCR     UPCOUNT                               #  INCREMENT COUNT OF COMPONENTS RECEIVED.
000231: 04,3447           33664        OHWELL2            CAF      ADUPBFM1                              #  CALCULATE LOCATION(ECADR) IN UPBUFF
000232: 04,3450           61172                           AD       UPCOUNT                               #  WHERE NEXT COMPONENT SHOULD BE STORED.
000233: 04,3451           54156                 +2        TS       MPAC       +2                         #  PLACE ECADR INTO R3.
000234: 04,3452           33520                 +3        CAF      UPLOADNV                              #  (CK4V32 RETURNS HERE IF V32 ENCOUNTERED)
000235: 04,3453           04607                           TC       BANKCALL                              #  DISPLAY A FLASHING V21N01
000236: 04,3454           20323                           CADR     GOXDSPF                               #  TO REQUEST DATA.
000237: 04,3455           13714                           TCF      UPOUT4                                #  V34 TERMINATE UPDATE (P27) RETURN.
000238: 04,3456           13452                           TCF      OHWELL2    +3                         #  V33 PROCEED RETURN
000239: 04,3457           03510                           TC       CK4V32                                #  DATA OR V32 RETURN
000240: 04,3460           41172                           CS       UPCOUNT                               #  HAVE WE FINISHED RECEIVING ALL
000241: 04,3461           61167                           AD       COMPNUMB                              #  THE DATA WE EXPECTED.
000242: 04,3462           00006                           EXTEND
000243: 04,3463           63465                           BZMF     UPVERIFY                              #  YES- GO TO VERIFICATION SEQUENCE
000244: 04,3464           13446                           TCF      OHWELL2    -1                         #  NO- REQUEST ADDITIONAL DATA.
000245:
000246:                                                                                                  #  VERIFY SEQUENCE
000247:
000248: 04,3465           33516        UPVERIFY           CAF      ADUPTEMP                              #  PLACE ECADR WHERE COMPONENT NO. INDEX
000249: 04,3466           54156                           TS       MPAC       +2                         #  IS TO BE STORED INTO R3.
000250: 04,3467           33521                           CAF      UPVRFYNV                              #  (CK4V32 RETURNS HERE IF V32 ENCOUNTERED)
000251: 04,3470           04607                           TC       BANKCALL                              #  DISPLAY A FLASHING V21N02 TO REQUEST
000252: 04,3471           20323                           CADR     GOXDSPF                               #  DATA CORRECTION OR VERIFICATION.
000253: 04,3472           13714                           TCF      UPOUT4                                #  V34 TERMINATE UPDATE(P27) RETURN
000254: 04,3473           13522                           TCF      UPSTORE                               #  V33 DATA SENT IS GOOD.  GO STORE IT.
000255: 04,3474           03510                           TC       CK4V32                                #  COMPONENT NO. INDEX OR V32 RETURN
000256: 04,3475           31166                           CA       UPTEMP                                #  DOES THE COMPONENT NO. INDEX JUST SENT
000257: 04,3476           00006                           EXTEND                                         #  SPECIFY A LEGAL COMPONENT NUMBER?
000258: 04,3477           63465                           BZMF     UPVERIFY                              #  NO, IT IS NOT POSITIVE NONZERO
000259: 04,3500           41166                           CS       UPTEMP
000260: 04,3501           61167                           AD       COMPNUMB
000261: 04,3502           64744                           AD       BIT1
000262: 04,3503           00006                           EXTEND


000264: 04,3504           63465                           BZMF     UPVERIFY                              #  NO
000265: 04,3505           33664                           CAF      ADUPBFM1                              #  YES- BASED ON THE COMPONENT NO. INDEX
000266: 04,3506           61166                           AD       UPTEMP                                #  CALCULATE THE ECADR OF LOCATION IN
000267: 04,3507           13451                           TCF      OHWELL2    +2                         #  UPBUFF WHICH USER WANTS TO CHANGE.
000268:
000269: 04,3510  04,3714               UPOUT4             EQUALS   UPOUT      +1                         #  COMES HERE ON V34 TO TERMINATE UPDATE
000270:
000271:                                                                                                  #  CHECK FOR VERB 32 SEQUENCE
000272:
000273: 04,3510           40154        CK4V32             CS       MPAC                                  #  ON DATA RETURN FROM 'GOXDSPF'
000274: 04,3511           74737                           MASK     BIT6                                  #  ON DATA RETURN FROM "GOXDSP"& THE CON-
000275: 04,3512           10000                           CCS      A                                     #  TENTS OF MPAC = VERB.  SO TEST FOR V32.
000276: 04,3513           00002                           TC       Q                                     #  IT'S NOT A V32, IT'S DATA.  PROCEED.
000277: 04,3514           50002                           INDEX    Q
000278: 04,3515           77771                           TC       0          -6                         #  V32 ENCOUNTERED - GO BACK AND GET DATA
000279:
000280: 04,3516           01166        ADUPTEMP           ADRES    UPTEMP                                #  ADDRESS OF TEMP STORAGE FOR CORRECTIONS
000281: 04,3517           01173        ADUPBUFF           ADRES    UPBUFF                                #  ADDRESS OF UPDATE DATA STORAGE BUFFER
000282: 04,3520           05201        UPLOADNV           VN       2101                                  #  VERB 21 NOUN 01
000283: 04,3521           05202        UPVRFYNV           VN       2102                                  #  VERB 21 NOUN 02
000284: 04,3522     4353               UP21               =        MD1                                   #  DEC 21 = MAX NO OF COMPONENTS +1
000285: 04,3522     4747               UPDTPHAS           EQUALS   FIVE
000286:
000287:                                                                                                  #  PRE-STORE AND FAN TO APPROPRIATE BRANCH SEQUENCE
000288:
000289: 04,3522                        UPSTORE            EQUALS                                         #  GROUND HAS VERIFIED UPDATE.  STORE DATA.
000290:
000291: 04,3522           00004                           INHINT
000292:
000293: 04,3523           30103                           CAE      FLAGWRD7                              #  INVERT VERIFLAG(BIT 3 OF FLAGWRD7) TO
000294: 04,3524           56001                           XCH      L                                     #  INDICATE TO THE GROUND(VIA DOWNLINK)
000295: 04,3525           34742                           CAF      VERIFBIT                              #  THAT THE V33 (WHICH THE GROUND SENT TO
000296: 04,3526           00006                           EXTEND                                         #  VERIFY THE UPDATE) HAS BEEN SUCCESSFULLY
000297: 04,3527           06001                           RXOR     LCHAN                                 #  RECEIVED BY THE UPDATE PROGRAM
000298: 04,3530           54103                           TS       FLAGWRD7
000299:
000300: 04,3531           05355                           TC       PHASCHNG                              #  SET RESTART GROUP 6 TO REDO THE UPDATE
000301: 04,3532           04026                           OCT      04026                                 #  DATA STORE IF A RESTART OCCURS.
000302: 04,3533           00004                           INHINT                                         #  (BECAUSE PHASCHNG DID A RELINT)
000303:
000304: 04,3534           44743                           CS       TWO                                   #  GO TO UPFNDVAC IF INSTALL IS REQUIRED,
000305: 04,3535           61171                           AD       UPVERB                                #  THAT IS, IF IT'S A V70 - V72.
000306: 04,3536           00006                           EXTEND                                         #  GO TO UPEND73 IF IT'S A V73.
000307: 04,3537           63546                           BZMF     UPFNDVAC
000308:
000309:                                                                                                  #  VERB 73 BRANCH
000310:
000311: 04,3540           00006        UPEND73            EXTEND                                         #  V73-PERFORM DP OCTAL AGC CLOCK INCREMENT
000312: 04,3541           31174                           DCA      UPBUFF


000314: 04,3542           53204                           DXCH     UPBUFF     +8D
000315: 04,3543           03571                           TC       TIMEDIDL
000316: 04,3544           04355                           TC       FALTON                                #  ERROR- TURN ON *OPERATOR ERROR* LIGHT
000317: 04,3545           03714                           TC       UPOUT      +1                         #  GO TO COMMON UPDATE PROGRAM EXIT
000318:
000319: 04,3546           34346        UPFNDVAC           CAF      CHRPRIO                               #  (USE EXTENDED VERB PRIORITY)
000320: 04,3547           05076                           TC       FINDVAC                               #  GET VAC AREA FOR 'CALL INTSTALL'
000321: 04,3550  E3,1706                                  EBANK=   TEPHEM
000322: 04,3550           03553 10103                     2CADR    UPJOB                                 #  (NOTE:  THIS WILL ALSO SET EBANK FOR
000323:
000324: 04,3552           05146                           TC       ENDOFJOB                              #  'TEPHEM' UPDATE BY V70)
000325:
000326: 04,3553           06060        UPJOB              TC       INTPRET                               #  THIS COULD BE A STATE VECTOR UPDATE--SO
000327: 04,3554           77624                           CALL                                           #  WAIT(PUT JOB TO SLEEP) IF ORBIT INT(OI)
000328: 04,3555           27447                                    INTSTALL                              #  IS IN PROGRESS--OR--GRAB OI AND RETURN
000329:                                                                                                  #  TO UPWAKE IF OI IS NOT IN PROGRESS.
000330:
000331: 04,3556           77776        UPWAKE             EXIT
000332:
000333: 04,3557           05355                           TC       PHASCHNG                              #  RESTART PROTECT (GROUP 6)
000334: 04,3560           04026                           OCT      04026
000335:
000336: 04,3561           05506                           TC       UPFLAG                                #  SET INTEGRATION RESTART BIT
000337: 04,3562           00236                           ADRES    REINTFLG
000338: 04,3563           00004                           INHINT
000339: 04,3564                        UPPART3            EQUALS
000340:
000341: 04,3564           51171                           INDEX    UPVERB                                #  BRANCH TO THE APPROPRIATE UPDATE VERB
000342: 04,3565           13566                           TCF      +1                                    #  ROUTINE TO ACTUALLY PERFORM THE UPDATE
000343: 04,3566           13725                           TCF      UPEND70                               #  V70
000344: 04,3567           13634                           TCF      UPEND71                               #  V71
000345: 04,3570           13666                           TCF      UPEND72                               #  V72
000346:
000347:                                                                                                  #  ROUTINE TO INCREMENT CLOCK(TIME2,TIME1) WITH CONTENTS OF DP WORD AT UPBUFF.
000348:
000349: 04,3571           00006        TIMEDIDL           EXTEND
000350: 04,3572           23166                           QXCH     UPTEMP                                #  SAVE Q FOR RETURN
000351: 04,3573           34746                           CAF      ZERO                                  #  ZERO AND SAVE TIME2,TIME1
000352: 04,3574           22007                           ZL
000353: 04,3575           52025                           DXCH     TIME2
000354: 04,3576           53216                           DXCH     UPBUFF     +18D                       #  STORE IN CASE OF OVERFLOW
000355:
000356: 04,3577           34747                           CAF      UPDTPHAS                              #  DO
000357: 04,3600           54001                           TS       L                                     #  A
000358: 04,3601           40000                           COM                                            #  QUICK
000359: 04,3602           52764                           DXCH     -PHASE6                               #  PHASCHNG
000360:
000361: 04,3603           00004        TIMEDIDR           INHINT


000363: 04,3604           34746                           CAF      ZERO
000364: 04,3605           22007                           ZL                                             #  PICK UP INCREMENTER(AND ZERO
000365: 04,3606           54156                           TS       MPAC       +2                         #  IT IN CASE OF RESTARTS) AND
000366: 04,3607           53204                           DXCH     UPBUFF     +8D                        #  STORE IT
000367: 04,3610           52155                           DXCH     MPAC                                  #  INTO MPAC FOR TPAGREE.
000368:
000369: 04,3611           00006                           EXTEND
000370: 04,3612           31216                           DCA      UPBUFF     +18D
000371: 04,3613           20155                           DAS      MPAC                                  #  FORM SUM IN MPAC
000372: 04,3614           00006                           EXTEND
000373: 04,3615           13624                           BZF      DELTATOK                              #  TEST FOR OVERFLOW
000374: 04,3616           34746                           CAF      ZERO
000375: 04,3617           53216                           DXCH     UPBUFF     +18D                       #  OVERFLOW, RESTORE OLD VALUE OF CLOCK
000376: 04,3620           20025                           DAS      TIME2                                 #  AND TURN ON OPERATOR ERROR
000377:
000378: 04,3621           05355                           TC       PHASCHNG                              #  RESTART PROTECT(GROUP 6)
000379: 04,3622           04026                           OCT      04026
000380:
000381: 04,3623           01166                           TC       UPTEMP                                #  GO TO ERROR EXIT
000382:
000383: 04,3624           07300        DELTATOK           TC       TPAGREE                               #  FORCE SIGN AGREEMENT
000384: 04,3625           52155                           DXCH     MPAC
000385: 04,3626           20025                           DAS      TIME2                                 #  INCREMENT TIME2,TIME1
000386:
000387: 04,3627           05355                           TC       PHASCHNG                              #  RESTART PROTECT(GROUP 6)
000388: 04,3630           04026                           OCT      04026
000389:
000390: 04,3631           00004                           INHINT
000391: 04,3632           51166                           INDEX    UPTEMP                                #  (CODED THIS WAY FOR RESTART PROTECTION)
000392: 04,3633           00001                           TC       1                                     #  NORMAL RETURN
000393:
000394:                                                                                                  #  VERB 71 BRANCH
000395:
000396: 04,3634           31174        UPEND71            CAE      UPBUFF     +1                         #  SET EBANK
000397: 04,3635           54003                           TS       EBANK                                 #        AND
000398: 04,3636           74350                           MASK     LOW8                                  #  CALCULATE
000399: 04,3637           55166                           TS       UPTEMP                                #  S-REG VALUE OF RECEIVING AREA
000400:
000401: 04,3640           67766                           AD       NEG3                                  #  IN THE PROCESS OF
000402: 04,3641           61167                           AD       COMPNUMB                              #  PERFORMING
000403: 04,3642           00006                           EXTEND                                         #  THIS UPDATE
000404: 04,3643           13651                           BZF      STORLP71                              #  WILL WE
000405: 04,3644           74734                           MASK     BIT9                                  #  OVERFLOW
000406: 04,3645           10000                           CCS      A                                     #  INTO THE NEXT EBANK....
000407: 04,3646           13762                           TCF      UPERROUT                              #  YES
000408:
000409: 04,3647           37766                           CA       NEG3                                  #  NO- CALCULATE NUMBER OF
000410: 04,3650           61167                           AD       COMPNUMB                              #  WORDS TO BE STORED MINUS ONE
000411: 04,3651           54154        STORLP71           TS       MPAC                                  #  SAVE NO. OF WORDS REMAINING MINUS ONE
000412: 04,3652           50000                           INDEX    A                                     #  TAKE NEXT UPDATE WORD FROM
000413: 04,3653           31175                           CA       UPBUFF     +2                         #  UPBUFF AND


000415: 04,3654           54001                           TS       L                                     #  SAVE IT IN L
000416: 04,3655           30154                           CA       MPAC                                  #  CALCULATE NEXT
000417: 04,3656           61166                           AD       UPTEMP                                #  RECEIVING ADDRESS
000418: 04,3657           50000                           INDEX    A
000419: 04,3660  E3,1400                                  EBANK=   1400
000420: 04,3660           23400                           LXCH     1400                                  #  UPDATE THE REGISTER BY CONTENTS OF L
000421: 04,3661  E3,1706                                  EBANK=   TEPHEM
000422: 04,3661           10154                           CCS      MPAC                                  #  ARE THERE ANY WORDS LEFT TO BE STORED
000423: 04,3662           13651                           TCF      STORLP71                              #  YES
000424: 04,3663           13713                           TCF      UPOUT                                 #  NO- THEN EXIT UPDATE PROGRAM
000425: 04,3664           01172        ADUPBFM1           ADRES    UPBUFF     -1                         #  SAME AS ADUPBUFF BUT LESS 1 (DON'T MOVE)
000426: 04,3665           13713                           TCF      UPOUT                                 #  NO- EXIT UPDATE(HERE WHEN COMPNUMB = 3)
000427:
000428:                                                                                                  #  VERB 72 BRANCH
000429:
000430: 04,3666           34744        UPEND72            CAF      BIT1                                  #  HAVE AN ODD NO. OF COMPONENTS
000431: 04,3667           71167                           MASK     COMPNUMB                              #  BEEN SENT FOR A V72 UPDATE...
000432: 04,3670           10000                           CCS      A
000433: 04,3671           13673                           TCF      +2                                    #  YES
000434: 04,3672           13762                           TCF      UPERROUT                              #  ERROR- SHOULD BE ODD NO. OF COMPONENTS
000435: 04,3673           44743                           CS       BIT2
000436: 04,3674           61167                           AD       COMPNUMB
000437: 04,3675           54154        LDLOOP72           TS       MPAC                                  #  NOW PERFORM THE UPDATE
000438: 04,3676           50000                           INDEX    A
000439: 04,3677           31174                           CAE      UPBUFF     +1                         #  PICK UP NEXT UPDATE WORD
000440: 04,3700           22000                           LXCH     A
000441: 04,3701           10154                           CCS      MPAC                                  #  SET POINTER TO ECADR(MUST BE CCS)
000442: 04,3702           54154                           TS       MPAC
000443: 04,3703           50000                           INDEX    A
000444: 04,3704           31174                           CAE      UPBUFF     +1                         #  PICK UP NEXT ECADR OF REG TO BE UPDATED
000445: 04,3705           54003                           TS       EBANK                                 #  SET EBANK
000446: 04,3706           74350                           MASK     LOW8                                  #  ISOLATE RELATIVE ADDRESS
000447: 04,3707           50000                           INDEX    A
000448: 04,3710  E3,1400                                  EBANK=   1400
000449: 04,3710           23400                           LXCH     1400                                  #  UPDATE THE REGISTER BY CONTENTS OF L
000450: 04,3711  E3,1706                                  EBANK=   TEPHEM
000451: 04,3711           10154                           CCS      MPAC                                  #  ARE WE THROUGH THE V72 UPDATE...
000452: 04,3712           13675                           TCF      LDLOOP72                              #  NO
000453:
000454:                                                                                                  #  NORMAL FINISH OF P27
000455:
000456: 04,3713                        UPOUT              EQUALS
000457: 04,3713           03172                           TC       INTWAKEU                              #  RELEASE GRAB OF ORBITAL INTEGRATION
000458: 04,3714           31170                 +1        CAE      UPOLDMOD                              #  RESTORE PRIOR P27 MODE
000459: 04,3715           05316                           TC       NEWMODEX   +3
000460: 04,3716           34746                           CAF      ZERO
000461: 04,3717           54333                           TS       DNLSTCOD
000462: 04,3720           03767                           TC       UPACTOFF                              #  TURN OFF 'UPLINK ACTIVITY' LIGHT


000464: 04,3721           00006                           EXTEND                                         #  KILL GROUP 6.
000465: 04,3722           34746                           DCA      NEG0
000466: 04,3723           52764                           DXCH     -PHASE6
000467:
000468: 04,3724           05474                           TC       ENDEXT                                #  EXTENDED VERB EXIT
000469:
000470:                                                                                                  #  VERB 70 BRANCH
000471:
000472: 04,3725           00006        UPEND70            EXTEND                                         #  V70 DOES THE FOLLOWING WITH DP DELTA
000473: 04,3726           41174                           DCS      UPBUFF                                #  TIME IN UPBUFF
000474: 04,3727           53204                           DXCH     UPBUFF     +8D
000475: 04,3730           03571                           TC       TIMEDIDL                              #  DECREMENT AGC CLOCK
000476:
000477: 04,3731           03762                           TC       UPERROUT                              #  ERROR WHILE DECREMENTING CLOCK -- EXIT
000478:
000479: 04,3732  E3,1706                                  EBANK=   TEPHEM
000480: 04,3732           00006                           EXTEND
000481: 04,3733           41174                           DCS      UPBUFF                                #  COPY DECREMENTERS FOR
000482: 04,3734           53206                           DXCH     UPBUFF     +10D                       #  RESTART PROTECTION
000483: 04,3735           00006                           EXTEND
000484: 04,3736           41174                           DCS      UPBUFF
000485: 04,3737           53210                           DXCH     UPBUFF     +12D
000486:
000487: 04,3740           05355                           TC       PHASCHNG                              #  RESTART PROTECT(GROUP 6)
000488: 04,3741           04026                           OCT      04026
000489:
000490: 04,3742           34746                           CAF      ZERO
000491: 04,3743           22007                           ZL
000492: 04,3744           53206                           DXCH     UPBUFF     +10D                       #  DECREMENT CSM STATE VECTOR TIME
000493: 04,3745           21571                           DAS      TETCSM
000494:
000495: 04,3746           34746                           CAF      ZERO
000496: 04,3747           22007                           ZL
000497: 04,3750           53210                           DXCH     UPBUFF     +12D                       #  DECREMENT LEM STATE VECTOR TIME
000498: 04,3751           21643                           DAS      TETLEM
000499:
000500: 04,3752           34746                           CAF      ZERO
000501: 04,3753           22007                           ZL
000502: 04,3754           53174                           DXCH     UPBUFF
000503: 04,3755           21710                           DAS      TEPHEM     +1                         #  INCREMENT TP TEPHEM
000504: 04,3756           27706                           ADS      TEPHEM
000505:
000506: 04,3757           05355                           TC       PHASCHNG                              #  RESTART PROTECT(GROUP 6)
000507: 04,3760           04026                           OCT      04026
000508:
000509: 04,3761     1173                                  EBANK=   UPBUFF
000510:
000511: 04,3761           03713                           TC       UPOUT                                 #  GO TO STANDARD UPDATE PROGRAM EXIT
000512:


000514:                                                                                                  #  ERROR SEQUENCE
000515:
000516: 04,3762           04355        UPERROUT           TC       FALTON                                #  TURN ON *OPERATOR ERROR* LIGHT
000517: 04,3763           13713                           TCF      UPOUT                                 #  GO TO COMMON UPDATE PROGRAM EXIT
000518:
000519: 04,3764           04355                 +2        TC       FALTON                                #  TURN ON 'OPERATOR ERROR' LIGHT
000520: 04,3765           03767                           TC       UPACTOFF                              #  TURN OFF 'UPLINK ACTIVITY' LIGHT
000521: 04,3766           05474                           TC       ENDEXT                                #  EXTENDED VERB EXIT
000522:                                                                                                  #  (THE PURPOSE OF UPERROUT +2 EXIT IS
000523:                                                                                                  #  TO PROVIDE AN ERROR EXIT WHICH DOES NOT
000524:                                                                                                  #  RESET ANY RESTART GROUPS)
000525:
000526:                                                                                                  #  :UPACTOFF: IS A ROUTINE TO TURN OFF UPLINK ACTIVITY LIGHT ON ALL EXITS FROM UPDATE PROGRAM(P27).
000527:
000528: 04,3767           44742        UPACTOFF           CS       BIT3
000529: 04,3770           00006                           EXTEND                                         #  TURN OFF UPLINK ACTIVITY LIGHT
000530: 04,3771           03011                           WAND     DSALMOUT                              #  (BIT 3 OF CHANNEL 11)
000531: 04,3772           00002                           TC       Q
000532:

End of include-file UPDATE_PROGRAM.agc.  Parent file is MAIN.agc


