
Source Code


000002:                                                                                                  ## Copyright:   Public domain.
000003:                                                                                                  ## Filename:    WAITLIST.agc
000004:                                                                                                  ## Purpose:     A section of Luminary revision 210.
000005:                                                                                                  ##              It is part of the source code for the Lunar Module's (LM)
000006:                                                                                                  ##              Apollo Guidance Computer (AGC) for Apollo 15-17.
000007:                                                                                                  ##              This file is intended to be a faithful transcription, except
000008:                                                                                                  ##              that the code format has been changed to conform to the
000009:                                                                                                  ##              requirements of the yaYUL assembler rather than the
000010:                                                                                                  ##              original YUL assembler.
000011:                                                                                                  ## Reference:   pp. 1115-1130
000012:                                                                                                  ## Assembler:   yaYUL
000013:                                                                                                  ## Contact:     Ron Burkey <info@sandroid.org>.
000014:                                                                                                  ## Website:     www.ibiblio.org/apollo/index.html
000015:                                                                                                  ## Mod history: 2016-11-17 JL   Created from Luminary131 version.
000016:                                                                                                  ##              2016-11-18 MAS  Transcribed. Mostly just comment corrections.
000017:                                                                                                  ##              2016-12-07 HG   Fix P00 -> POO
000018:                                                                                                  ##              2016-12-26 RSB  Comment-text proofed using ProoferComments
000019:                                                                                                  ##                              and corrected errors found.
000020:


000022:                                                                                                  #  PROGRAM DESCRIPTION                                                                     DATE - 10 OCTOBER 1966
000023:                                                                                                  #  MOD NO - 2                                                                              LOG SECTION - WAITLIST
000024:                                                                                                  #  MOD BY - MILLER   (DTMAX INCREASED TO 162.5 SEC)                                        ASSEMBLY SUNBURST REV 5
000025:                                                                                                  #  MOD 3 BY KERNAN  (INHINT INSERTED AT WAITLIST)  2/28/68 SKIPPER REV 4
000026:
000027:                                                                                                  #  MOD 4BY KERNAN (TWIDDLE IN 54)  3/28/68 SKIPPER REV 13.
000028:
000029:                                                                                                  #  FUNCTIONAL DESCRIPTION-
000030:                                                                                                  #          PART OF A SECTION OF PROGRAMS,-WAITLIST, TASKOVER, T3RUPT, USED  TO CALL A PROGRAM, (CALLED A TASK),
000031:                                                                                                  #     WHICH IS TO BEGIN IN C(A) CENTISECONDS.  WAITLIST UPDATES TIME3, LST1 AND LST2. THE MEANING OF THESE LISTS
000032:                                                                                                  #     FOLLOW.
000033:
000034:                                                                                                  #                  C(TIME3)  = 16384 -(T1-T) CENTISECONDS, (T=PRESENT TIME, T1-TIME FOR TASK1)
000035:
000036:
000037:                                                                                                  #                               C(LST1)    = -(T2-T1)+1
000038:                                                                                                  #                               C(LST1 +1) = -(T3-T2)+1
000039:                                                                                                  #                               C(LST1 +2) = -(T4-T3)+1
000040:                                                                                                  #                                          .
000041:                                                                                                  #                                          .
000042:                                                                                                  #                               C(LST1 +6) = -(T8-T7)+1
000043:                                                                                                  #                               C(LST1 +7) = -(T9-T8)+1
000044:
000045:                                                                                                  #                               C(LST2)    = 2CADR OF TASK1
000046:                                                                                                  #                               C(LST2 +2) = 2CADR OF TASK2
000047:                                                                                                  #                                          .
000048:                                                                                                  #                                          .
000049:                                                                                                  #                               C(LST2 +14)= 2CADR OF TASK8
000050:                                                                                                  #                               C(LST2 +16)= 2CADR OF TASK9
000051:
000052:                                                                                                  #  WARNINGS-
000053:                                                                                                  #  --------
000054:                                                                                                  #               1) 1 <= C(A) <= 16250D (1 CENTISECOND TO 162.5 SEC)
000055:                                                                                                  #               2) 9 TASKS MAXIMUM
000056:                                                                                                  #               3) TASKS CALLED UNDER INTERRUPT INHIBITED
000057:                                                                                                  #               4) TASKS END BY TC TASKOVER
000058:
000059:                                                                                                  #  CALLING SEQUENCE-
000060:
000061:                                                                                                  #               L-1    CA     DELTAT   (TIME IN CENTISECONDS TO TASK START)
000062:                                                                                                  #               L      TC     WAITLIST
000063:                                                                                                  #               L+1    2CADR  DESIRED TASK
000064:                                                                                                  #               L+2    (MINOR OF 2CADR)
000065:                                                                                                  #               L+3    RELINT          (RETURNS HERE)
000066:
000067:                                                                                                  #  TWIDDLE -
000068:                                                                                                  #  -------
000069:                                                                                                  #               TWIDDLE IS FOR USE WHEN THE TASK BEING SET UP IS IN THE SAME EBANK AND FBANK AS THE USER.   IN
000070:                                                                                                  #               SUCH CASES, IT IMPROVES UPON WAITLIST BY ELIMINATING THE NEED FOR THE BBCON HALF OF THE 2CADR,


000072:                                                                                                  #               SAVING A WORD.   TWIDDLE IS LIKE WAITLIST IN EVERY RESPECT EXCEPT CALLING SEQUENCE, TO WIT-
000073:
000074:                                                                                                  #               L-1    CA     DELTAT
000075:                                                                                                  #               L      TC     TWIDDLE
000076:                                                                                                  #               L+1    ADRES  DESIRED TASK
000077:                                                                                                  #               L+2    RELINT               (RETURNS HERE)
000078:
000079:                                                                                                  #  NORMAL EXIT MODES-
000080:
000081:                                                                                                  #               AT L+3 OF CALLING SEQUENCE
000082:
000083:                                                                                                  #  ALARM OR ABORT EXIT MODES-
000084:
000085:                                                                                                  #               TC     ABORT
000086:                                                                                                  #               OCT    1203   (WAITLIST OVERFLOW - TOO MANY TASKS)
000087:
000088:                                                                                                  #  ERASABLE INITIALIZATION REQUIRED-
000089:
000090:                                                                                                  #               ACCOMPLISHED BY FRESH START,--LST2,..., LST2 +16 =ENDTASK
000091:                                                                                                  #                                             LST1,..., LST1 +7  =NEG1/2
000092:
000093:                                                                                                  #  OUTPUT--
000094:
000095:                                                                                                  #               LST1 AND LST2 UPDATED WTIH NEW TASK AND ASSOCIATED TIME.
000096:
000097:                                                                                                  #  DEBRIS-
000098:
000099:                                                                                                  #               CENTRALS- A,Q,L
000100:                                                                                                  #               OTHER   - WAITEXIT, WAITADR, WAITTEMP, WAITBANK
000101:                                                                                                  #  DETAILED ANALYSIS OF TIMING-
000102:
000103:                                                                                                  #          CONTROL WILL NOT BE RETURNED TO THE SPECIFIED ADDRESS (2CADR)   IN EXACTLY DELTA T CENTISECONDS.
000104:                                                                                                  #     THE APPROXIMATE TIME MAY BE CALCULATED AS FOLLOWS
000105:
000106:                                                                                                  #               LET T0 = THE TIME OF THE TC WAITLIST
000107:                                                                                                  #               LET TS = T0 +147U + COUNTER INCREMENTS (SET UP TIME)
000108:                                                                                                  #               LET X  = TS -(100TS)/100  (VARIANCE FROM COUNTERS)
000109:                                                                                                  #               LET Y  = LENGTH OF TIME OF INHIBIT INTERRUPT AFTER T3RUPT
000110:                                                                                                  #               LET Z  = LENGTH OF TIME TO PROCESS TASKS WHICH ARE DUE THIS T3RUPT BUT DISPATCHED EARLIER.
000111:                                                                                                  #     (Z=0, USUALLY)
000112:                                                                                                  #               LET DELTD = THE ACTUAL TIME TAKEN TO GIVE CONTROL TO 2CADR
000113:                                                                                                  #            THEN   DELTD = TS+DELTA T -X +Y +Z +1.05MS* +COUNTERS*
000114:                                                                                                  #     *-THE TIME TAKEN BY WAITLIST ITSELF AND THE COUNTER TICKING DURING THIS WAITLIST TIME.
000115:
000116:
000117:                                                                                                  #          IN SHORT, THE ACTUAL TIME TO RETURN CONTROL TO A 2CADR IS AUGMENTED BY THE TIME TO SET UP THE TASK:S
000118:                                                                                                  #     INTERRUPT, ALL COUNTERS TICKING, THE T3RUPT PROCESSING TIME, THE WAITLIST PROCESSING TIME AND THE POSSIBILITY
000119:                                                                                                  #     OF OTHER TASKS INHIBITING THE INTERRUPT.
000120:
000121:
000122:    5175                                           BLOCK    02


000124:    5175  E3,1400                                  EBANK=   LST1                                  #  TASK  LISTS IN SWITCHED E BANK.
000125:
000126:    5175                                           COUNT*   $$/WAIT
000127:    5175           00004        TWIDDLE            INHINT
000128:    5176           54001                           TS       L                                     #  SAVE DELAY TIME IN L
000129:    5177           34724                           CA       POSMAX
000130:    5200           26002                           ADS      Q                                     #  CREATING OVERFLOW AND Q-1 IN Q
000131:    5201           30006                           CA       BBANK
000132:    5202           00006                           EXTEND
000133:    5203           04007                           ROR      SUPERBNK
000134:    5204           56001                           XCH      L
000135:
000136:    5205           00004        WAITLIST           INHINT
000137:    5206           56002                           XCH      Q                                     #  SAVE DELTA T IN Q AND RETURN IN
000138:    5207           54061                           TS       WAITEXIT                              #  WAITEXIT.
000139:    5210           00006                           EXTEND
000140:    5211           50061                           INDEX    WAITEXIT                              #  IF TWIDDLING, THE TS SKIPS TO HERE
000141:    5212           30001                           DCA      0                                     #  PICK UP 2CADR OF TASK.
000142:    5213           54063                 -1        TS       WAITADR                               #  BBCON WILL REMAIN IN L
000143:    5214           35222        DLY2               CAF      WAITBB                                #  ENTRY FROM FIXDELAY AND VARDELAY.
000144:    5215           56006                           XCH      BBANK
000145:    5216           13234                           TCF      WAIT2
000146:
000147:                                                                                                  #           RETURN TO CALLER AFTER TASK INSERTION:
000148:
000149:    5217           52062        LVWTLIST           DXCH     WAITEXIT
000150:    5220           64743                           AD       TWO
000151:    5221           52006                           DTCB
000152:
000153:    5222  E3,1400                                  EBANK=   LST1
000154:    5222           02063        WAITBB             BBCON    WAIT2
000155:
000156:                                                                                                  #           RETURN TO CALLER +2 AFTER WAITING DT SPECIFIED AT CALLER +1.
000157:
000158:    5223           50002        FIXDELAY           INDEX    Q                                     #  BOTH ROUTINES MUST BE CALLED UNDER
000159:    5224           30000                           CAF      0                                     #  WAITLIST CONTROL AND TERMINATE THE TASK
000160:    5225           24002                           INCR     Q                                     #  IN WHICH THEY WERE CALLED.
000161:
000162:                                                                                                  #           RETURN TO CALLER +1 AFTER WAITING THE DT AS ARRIVING IN A.
000163:
000164:    5226           56002        VARDELAY           XCH      Q                                     #  DT TO Q. TASK ADRES TO WAITADR.
000165:    5227           54063                           TS       WAITADR
000166:    5230           30006                           CA       BBANK                                 #  BBANK IS SAVED DURING DELAY.
000167:    5231           00006                           EXTEND
000168:    5232           04007                           ROR      SUPERBNK                              #  ADD SBANK TO BBCON.
000169:    5233           54001                           TS       L
000170:    5234           35237                           CAF      DELAYEX
000171:    5235           54061                           TS       WAITEXIT                              #  GO TO TASKOVER AFTER TASK ENTRY.
000172:    5236           15214                           TCF      DLY2
000173:


000175:    5237           15261        DELAYEX            TCF      TASKOVER   -2                         #  RETURNS TO TASKOVER
000176:


000178:                                                                                                  #  ENDTASK MUST BE ENTERED IN FIXED-FIXED SO IT IS DISTINGUISHABLE BY ITS ADRES ALONE.
000179:
000180:    5240  E3,1400                                  EBANK=   LST1
000181:    5240           72535 73714  ENDTASK            -2CADR   SVCT3
000182:
000183:    5242           10076        SVCT3              CCS      FLAGWRD2                              #  DRIFT FLAG
000184:    5243           15263                           TCF      TASKOVER
000185:    5244           15263                           TCF      TASKOVER
000186:    5245           15246                           TCF      +1
000187:
000188:    5246           11301        CKIMUSE            CCS      IMUCADR                               #  DON'T DO NBDONLY IF SOMEONE ELSE IS IN
000189:    5247           15260                           TCF      SVCT3X                                #  IMUSTALL.
000190:    5250           15253                           TCF      +3
000191:    5251           15260                           TCF      SVCT3X
000192:    5252           15260                           TCF      SVCT3X
000193:
000194:    5253           37744                 +3        CAF      PRIO35                                #  COMPENSATE FOR NBD COEFFICIENTS ONLY.
000195:    5254           05063                           TC       NOVAC                                 #      ENABLE EVERY 81.93 SECONDS
000196:    5255  E3,1460                                  EBANK=   NBDX
000197:    5255           03625 14063                     2CADR    NBDONLY
000198:
000199:    5257           15263                           TCF      TASKOVER
000200:
000201:    5260           05223        SVCT3X             TC       FIXDELAY                              #  DELAY MAX OF 2 TIMES FOR IMUZERO.
000202:    5261           00764                           DEC      500        B-14
000203:    5262           05242                           TC       SVCT3                                 #  CHECK DRIFT FLAG AGAIN.
000204:


000206:                                                                                                  #           BEGIN TASK INSERTION.
000207:
000208: 01,3234                                           BANK     01
000209: 01,3234                                           COUNT*   $$/WAIT
000210: 01,3234           54062        WAIT2              TS       WAITBANK                              #  BBANK OF CALLING PROGRAM.
000211: 01,3235           30002                           CA       Q
000212: 01,3236           00006                           EXTEND
000213: 01,3237           63525                           BZMF     WAITPOOH
000214:
000215: 01,3240           40026                           CS       TIME3
000216: 01,3241           64735                           AD       BIT8                                  #  BIT 8 = OCT 200
000217: 01,3242           10000                           CCS      A                                     #  TEST 200 - C(TIME3).  IF POSITIVE,
000218:                                                                                                  #  IT MEANS THAT TIME3 OVERFLOW HAS OCCURRED PRIOR TO CS  TIME3 AND THAT
000219:                                                                                                  #  C(TIME3) = T - T1, INSTEAD OF 1.0 - (T1 - T).  THE FOLLOWING FOUR
000220:                                                                                                  #  ORDERS SET C(A) = TD - T1 + 1 IN EITHER CASE.
000221:
000222: 01,3243           66130                           AD       OCT40001                              #  OVERFLOW HAS OCCURRED.  SET C(A) =
000223: 01,3244           40000                           CS       A                                     #  T - T1 + 1.0 - 201
000224:
000225:                                                                                                  #  NORMAL CASE (C(A) NNZ) YIELDS SAME C(A):  -( -(1.0-(T1-T)) + 200) - 1
000226:
000227: 01,3245           63373                           AD       OCT40201
000228: 01,3246           60002                           AD       Q                                     #  RESULT = TD - T1 + 1.
000229:
000230: 01,3247           10000                           CCS      A                                     #  TEST TD - T1 + 1
000231:
000232: 01,3250           61400                           AD       LST1                                  #  IF TD - T1 POS, GO TO WTLST5 WITH
000233: 01,3251           13313                           TCF      WTLST5                                #  C(A) = (TD - T1) + C(LST1) = TD-T2+1
000234:
000235: 01,3252           13253                           NOOP
000236: 01,3253           40002                           CS       Q
000237:
000238:                                                                                                  #  NOTE THAT THIS PROGRAM SECTION IS NEVER ENTERED WHEN T-T1 G/E -1,
000239:                                                                                                  #  SINCE TD-T1+1 = (TD-T) + (T-T1+1), AND DELTA T = TD-T G/E +1 .  (G/E
000240:                                                                                                  #  SYMBOL MEANS GREATER THAN OR EQUAL TO).  THUS THERE NEED BE NO CON-
000241:                                                                                                  #  CERN OVER A PREVIOUS OR IMMINENT OVERFLOW OF TIME3 HERE.
000242:
000243: 01,3254           64727                           AD       POS1/2                                #  WHEN TD IS NEXT, FORM QUANTITY
000244: 01,3255           64727                           AD       POS1/2                                #    1.0 - DELTA T = 1.0 - (TD - T)
000245: 01,3256           56026                           XCH      TIME3
000246: 01,3257           64726                           AD       NEGMAX
000247: 01,3260           60002                           AD       Q                                     #  1.0 - DELTAT T NOW COMPLETE.
000248: 01,3261           00006                           EXTEND                                         #  ZERO INDEX Q.
000249: 01,3262           22007                           QXCH     7                                     #  (ZQ)
000250:


000252: 01,3263           57400        WTLST4             XCH      LST1
000253: 01,3264           57401                           XCH      LST1       +1
000254: 01,3265           57402                           XCH      LST1       +2
000255: 01,3266           57403                           XCH      LST1       +3
000256: 01,3267           57404                           XCH      LST1       +4
000257: 01,3270           57405                           XCH      LST1       +5
000258: 01,3271           57406                           XCH      LST1       +6
000259: 01,3272           57407                           XCH      LST1       +7
000260:
000261: 01,3273           30063                           CA       WAITADR                               #  (MINOR PART OF TASK CADR HAS BEEN IN L.)
000262: 01,3274           50002                           INDEX    Q
000263: 01,3275           13276                           TCF      +1
000264:
000265: 01,3276           53411                           DXCH     LST2
000266: 01,3277           53413                           DXCH     LST2       +2
000267: 01,3300           53415                           DXCH     LST2       +4
000268: 01,3301           53417                           DXCH     LST2       +6
000269: 01,3302           53421                           DXCH     LST2       +8D
000270: 01,3303           53423                           DXCH     LST2       +10D                       #  AT END, CHECK THAT C(LST2+10) IS STD
000271: 01,3304           53425                           DXCH     LST2       +12D
000272: 01,3305           53427                           DXCH     LST2       +14D
000273: 01,3306           53431                           DXCH     LST2       +16D
000274: 01,3307           65240                           AD       ENDTASK                               #    END ITEM, AS CHECK FOR EXCEEDING
000275:                                                                                                  #    THE LENGTH OF THE LIST.
000276: 01,3310           00006                           EXTEND                                         #  DUMMY TASK ADRES SHOULD BE IN FIXED-
000277: 01,3311           15217                           BZF      LVWTLIST                              #  FIXED SO ITS ADRES ALONE DISTINGUISHES
000278: 01,3312           13366                           TCF      WTABORT                               #  IT.
000279:


000281: 01,3313           10000        WTLST5             CCS      A                                     #  TEST  TD - T2 + 1
000282: 01,3314           61401                           AD       LST1       +1
000283: 01,3315           13321                           TCF      +4
000284: 01,3316           64744                           AD       ONE
000285: 01,3317           03377                           TC       WTLST2
000286: 01,3320           00001                           OCT      1
000287:
000288: 01,3321           10000                 +4        CCS      A                                     #  TEST  TD - T3 + 1
000289: 01,3322           61402                           AD       LST1       +2
000290: 01,3323           13327                           TCF      +4
000291: 01,3324           64744                           AD       ONE
000292: 01,3325           03377                           TC       WTLST2
000293: 01,3326           00002                           OCT      2
000294:
000295: 01,3327           10000                 +4        CCS      A                                     #  TEST  TD - T4 + 1
000296: 01,3330           61403                           AD       LST1       +3
000297: 01,3331           13335                           TCF      +4
000298: 01,3332           64744                           AD       ONE
000299: 01,3333           03377                           TC       WTLST2
000300: 01,3334           00003                           OCT      3
000301:
000302: 01,3335           10000                 +4        CCS      A                                     #  TEST  TD - T5 + 1
000303: 01,3336           61404                           AD       LST1       +4
000304: 01,3337           13343                           TCF      +4
000305: 01,3340           64744                           AD       ONE
000306: 01,3341           03377                           TC       WTLST2
000307: 01,3342           00004                           OCT      4
000308:
000309: 01,3343           10000                 +4        CCS      A                                     #  TEST  TD - T6 + 1
000310: 01,3344           61405                           AD       LST1       +5
000311: 01,3345           13351                           TCF      +4
000312: 01,3346           64744                           AD       ONE
000313: 01,3347           03377                           TC       WTLST2
000314: 01,3350           00005                           OCT      5
000315:
000316: 01,3351           10000                 +4        CCS      A                                     #  TEST  TD - T7 + 1
000317: 01,3352           61406                           AD       LST1       +6
000318: 01,3353           13357                           TCF      +4
000319: 01,3354           64744                           AD       ONE
000320: 01,3355           03377                           TC       WTLST2
000321: 01,3356           00006                           OCT      6
000322:


000324: 01,3357           10000                 +4        CCS      A
000325: 01,3360           61407                           AD       LST1       +7
000326: 01,3361           13365                           TCF      +4
000327: 01,3362           64744                           AD       ONE
000328: 01,3363           03377                           TC       WTLST2
000329: 01,3364           00007                           OCT      7
000330:
000331: 01,3365           10000                 +4        CCS      A
000332: 01,3366           03374        WTABORT            TC       FILLED
000333: 01,3367           13370                           NOOP                                           #  CAN'T GET HERE
000334: 01,3370           64744                           AD       ONE
000335: 01,3371           03377                           TC       WTLST2
000336: 01,3372           00010                           OCT      10
000337:
000338: 01,3373           40201        OCT40201           OCT      40201
000339:


000341: 01,3374           52062        FILLED             DXCH     WAITEXIT
000342: 01,3375           05712                           TC       BAILOUT1                              #  NO ROOM IN THE INN
000343: 01,3376           31203                           OCT      31203
000344:


000346:                                                                                                  #  THE ENTRY TO WTLST2 JUST PRECEDING OCT  N  IS FOR T  LE TD LE T   -1.
000347:                                                                                                  #                                                     N           N+1
000348:
000349:                                                                                                  #  (LE MEANS LESS THAN OR EQUAL TO).  AT ENTRY, C(A) = -(TD - T   + 1)
000350:                                                                                                  #                                                              N+1
000351:
000352:                                                                                                  #  THE LST1 ENTRY -(T   - T +1) IS TO BE REPLACED BY -(TD - T + 1), AND
000353:                                                                                                  #                    N+1   N                                 N
000354:
000355:                                                                                                  #  THE ENTRY -(T   - TD + 1) IS TO BE INSERTED IMMEDIATELY FOLLOWING.
000356:                                                                                                  #               N+1
000357:
000358: 01,3377           54064        WTLST2             TS       WAITTEMP                              #      C(A) = -(TD - T   + 1)
000359: 01,3400           50002                           INDEX    Q
000360: 01,3401           30000                           CAF      0
000361: 01,3402           54002                           TS       Q                                     #  INDEX VALUE INTO Q.
000362:
000363: 01,3403           34744                           CAF      ONE
000364: 01,3404           60064                           AD       WAITTEMP
000365: 01,3405           50002                           INDEX    Q                                     #  C(A) = -(TD - T ) + 1.
000366: 01,3406           27377                           ADS      LST1       -1                         #                 N
000367:
000368: 01,3407           40064                           CS       WAITTEMP
000369: 01,3410           50002                           INDEX    Q
000370: 01,3411           13263                           TCF      WTLST4
000371:
000372:                                                                                                  #  C(TIME3) = 1.0 - (T1 - T)
000373:
000374:                                                                                                  #  C(LST1  ) = - (T2 - T1) + 1
000375:                                                                                                  #  C(LST1+1) = - (T3 - T2) + 1
000376:                                                                                                  #  C(LST1+2) = - (T4 - T3) + 1
000377:                                                                                                  #  C(LST1+3) = - (T5 - T4) + 1
000378:                                                                                                  #  C(LST1+4) = - (T6 - T5) + 1
000379:
000380:                                                                                                  #  C(LST2   ) = 2CADR  TASK1
000381:                                                                                                  #  C(LST2+2 ) = 2CADR  TASK2
000382:                                                                                                  #  C(LST2+4 ) = 2CADR  TASK3
000383:                                                                                                  #  C(LST2+6 ) = 2CADR  TASK4
000384:                                                                                                  #  C(LST2+8 ) = 2CADR  TASK5
000385:                                                                                                  #  C(LST2+10) = 2CADR  TASK6
000386:


000388:                                                                                                  #           ENTERS HERE ON T3 RUPT TO DISPATCH WAITLISTED TASK.
000389:
000390: 01,3412           00006        T3RUPT             EXTEND
000391: 01,3413           04007                           ROR      SUPERBNK                              #  READ CURRENT SUPERBANK VALUE AND
000392: 01,3414           54016                           TS       BANKRUPT                              #  SAVE WITH E AND F BANK VALUES.
000393: 01,3415           00006                           EXTEND
000394: 01,3416           22012                           QXCH     QRUPT
000395:
000396: 01,3417           34725        T3RUPT2            CAF      NEG1/2                                #  DISPATCH WAITLIST TASK.
000397: 01,3420           57407                           XCH      LST1       +7
000398: 01,3421           57406                           XCH      LST1       +6
000399: 01,3422           57405                           XCH      LST1       +5
000400: 01,3423           57404                           XCH      LST1       +4                         #  1.  MOVE UP LST1 CONTENTS, ENTERING
000401: 01,3424           57403                           XCH      LST1       +3                         #      A VALUE OF 1/2 +1 AT THE BOTTOM
000402: 01,3425           57402                           XCH      LST1       +2                         #      FOR T6-T5, CORRESPONDING TO THE
000403: 01,3426           57401                           XCH      LST1       +1                         #      INTERVAL 81.91 SEC FOR ENDTASK.
000404: 01,3427           57400                           XCH      LST1
000405: 01,3430           64724                           AD       POSMAX                                #  2. SET T3 = 1.0 - T2 -T USING LIST 1.
000406: 01,3431           26026                           ADS      TIME3                                 #  SO T3 WONT TICK DURING UPDATE.
000407: 01,3432           54332                           TS       RUPTAGN
000408: 01,3433           44746                           CS       ZERO
000409: 01,3434           54332                           TS       RUPTAGN                               #  SETS RUPTAGN TO +1 ON OVERFLOW.
000410:
000411: 01,3435           00006                           EXTEND                                         #  DISPATCH TASK.
000412: 01,3436           45241                           DCS      ENDTASK
000413: 01,3437           53431                           DXCH     LST2       +16D
000414: 01,3440           53427                           DXCH     LST2       +14D
000415: 01,3441           53425                           DXCH     LST2       +12D
000416: 01,3442           53423                           DXCH     LST2       +10D
000417: 01,3443           53421                           DXCH     LST2       +8D
000418: 01,3444           53417                           DXCH     LST2       +6
000419: 01,3445           53415                           DXCH     LST2       +4
000420: 01,3446           53413                           DXCH     LST2       +2
000421: 01,3447           53411                           DXCH     LST2
000422:
000423: 01,3450           56001                           XCH      L
000424: 01,3451           00006                           EXTEND
000425: 01,3452           01007                           WRITE    SUPERBNK                              #  SET SUPERBANK FROM BBCON OF 2CADR
000426: 01,3453           56001                           XCH      L                                     #  RESTORE TO L FOR DXCH Z.
000427: 01,3454           52006                           DTCB
000428:


000430:                                                                                                  #           RETURN, AFTER EXECUTION OF T3 OVERFLOW TASK:
000431:
000432:    5263                                           BLOCK    02
000433:    5263                                           COUNT*   $$/WAIT
000434:    5263           10332        TASKOVER           CCS      RUPTAGN                               #  IF +1 RETURN TO T3RUPT, IF -0 RESUME.
000435:    5264           35222                           CAF      WAITBB
000436:    5265           54006                           TS       BBANK
000437:    5266           13417                           TCF      T3RUPT2                               #  DISPATCH NEXT TASK IF IT WAS DUE.
000438:
000439:    5267           30016                           CA       BANKRUPT
000440:    5270           00006                           EXTEND
000441:    5271           01007                           WRITE    SUPERBNK                              #  RESTORE SUPERBANK BEFORE RESUME IS DONE
000442:
000443:    5272           00006        RESUME             EXTEND
000444:    5273           22012                           QXCH     QRUPT
000445:    5274           30016        NOQRSM             CA       BANKRUPT
000446:    5275           56006                           XCH      BBANK
000447:    5276           52011        NOQBRSM            DXCH     ARUPT
000448:    5277           00003                           RELINT
000449:    5300           50017                           RESUME
000450:


000452:                                                                                                  #  LONGCALL
000453:
000454:                                                                                                  #  PROGRAM DESCRIPTION                                  DATE- 17 MARCH 1967
000455:                                                                                                  #  PROGRAM WRITTEN BY W.H. VANDEVER                    LOG SECTION WAITLIST
000456:                                                                                                  #  MOD BY- R. MELANSON TO ADD DOCUMENTATION       ASSEMBLY SUNDISK REV. 100
000457:
000458:                                                                                                  #  FUNCTIONAL DESCRIPTION-
000459:                                                                                                  #  LONGCALL IS CALLED WITH THE DELTA TIME ARRIVING IN A,L SCALED AS TIME2,TIME1 WITH THE 2CADR OF THE TASK
000460:                                                                                                  #  IMMEDIATELY FOLLOWING THE TC LONGCALL.  FOR EXAMPLE, IT MIGHT BE DONE AS FOLLOWS WHERE TIMELOC IS THE NAME OF
000461:                                                                                                  #  A DP REGISTER CONTAINING A DELTA TIME AND WHERE TASKTODO IS THE NAME OF THE LOCATION AT WHICH LONGCALL IS TO
000462:                                                                                                  #  START
000463:
000464:                                                                                                  #  CALLING SEQUENCE-
000465:                                                                                                  #                                                   EXTEND
000466:                                                                                                  #                                                   DCA    TIMELOC
000467:                                                                                                  #                                                   TC     LONGCALL
000468:                                                                                                  #                                                   2CADR  TASKTODO
000469:
000470:                                                                                                  #  NORMAL EXIT MODE-
000471:                                                                                                  #     1). TC    WAITLIST
000472:                                                                                                  #     2). DTCB  (TC L+3 OF CALLING ROUTINE 1ST PASS THRU LONGCYCL)
000473:                                                                                                  #     3). DTCB  (TO TASKOVER ON SUBSEQUENT PASSES THRU LONGCYCL)
000474:
000475:                                                                                                  #  ALARM OR ABORT EXIT MODE-
000476:                                                                                                  #     NONE
000477:
000478:                                                                                                  #  OUTPUT-
000479:                                                                                                  #     LONGTIME AND LONGTIME+1 = DELTA TIME
000480:                                                                                                  #     LONGEXIT AND LONGEXIT+1 = RETURN 2CADR
000481:                                                                                                  #     LONGCADR AND LONGCADR+1 = TASK 2CADR
000482:                                                                                                  #     A = SINGLE PRECISION TIME FOR WAITLIST
000483:
000484:                                                                                                  #  ERASABLE INITIALIZATION-
000485:                                                                                                  #     A = MOST SIGNIFICANT PART OF DELTA TIME
000486:                                                                                                  #     L = LEAST SIGNIFICANT PART OF DELTA TIME
000487:                                                                                                  #     Q = ADDRESS OF 2CADR TASK VALUE
000488:
000489:                                                                                                  #  DEBRIS-
000490:                                                                                                  #     A,Q,L
000491:                                                                                                  #     LONGCADR AND LONGCADR+1
000492:                                                                                                  #     LONGEXIT AND LONGEXIT+1
000493:                                                                                                  #     LONGTIME AND LONGTIME+1
000494:
000495:                                                                                                  #  *** THE FOLLOWING IS TO BE IN FIXED-FIXED AND UNSWITCHED ERRASIBLE ***
000496:
000497:    5301                                           BLOCK    02
000498:    5301  E3,1400                                  EBANK=   LST1
000499:    5301           53153        LONGCALL           DXCH     LONGTIME                              #  OBTAIN THE DELTA TIME
000500:
000501:    5302           00006                           EXTEND                                         #  OBTAIN THE 2CADR


000503:    5303           50002                           NDX      Q
000504:    5304           30001                           DCA      0
000505:    5305           53147                           DXCH     LONGCADR
000506:
000507:    5306           00006                           EXTEND                                         #  NOW GO TO THE APPROPRIATE SWITCHED BANK
000508:    5307           35312                           DCA      LGCL2CDR                              #  FOR THE REST OF LONGCALL
000509:    5310           52006                           DTCB
000510:
000511:    5311  E3,1400                                  EBANK=   LST1
000512:    5311           03455 02063  LGCL2CDR           2CADR    LNGCALL2
000513:
000514:                                                                                                  #  *** THE FOLLOWING MAY BE IN A SWITCHED BANK, INCLUDING ITS ERASABLE ***
000515:
000516: 01,3455                                           BANK     01
000517: 01,3455                                           COUNT*   $$/WAIT
000518: 01,3455           23435        LNGCALL2           LXCH     LONGEXIT   +1                         #  SAVE THE CORRECT BB FOR RETURN
000519: 01,3456           34743                           CA       TWO                                   #  OBTAIN THE RETURN ADDRESS
000520: 01,3457           26002                           ADS      Q
000521: 01,3460           55434                           TS       LONGEXIT
000522:
000523: 01,3461           31152                           CA       LONGTIME                              #  CHECK FOR LEGITIMATE DELTA-TIME
000524: 01,3462           10000                           CCS      A
000525: 01,3463           13471                           TCF      LONGCYCL                              #  HI-ORDER OK --> ALL IS OK.
000526: 01,3464           13466                           TCF      +2                                    #  HI-ORDER ZERO --> CHECK LO-ORDER.
000527: 01,3465           13523                           TCF      LONGPOOH                              #  HI-ORDER NEG. --> NEG. DT
000528: 01,3466           31153                 +2        CA       LONGTIME   +1                         #  CHECK LO-ORDER FOR ZERO OR NEGATIVE.
000529: 01,3467           00006                           EXTEND
000530: 01,3470           63523                           BZMF     LONGPOOH                              #  BAD DELTA-TIME.  ABORT
000531:
000532:                                                                                                  #           *** WAITLIST TASK LONGCYCL ***
000533: 01,3471           00006        LONGCYCL           EXTEND                                         #  CAN WE SUCCESFULLY TAKE ABOUT 1.25
000534: 01,3472           43503                           DCS      DPBIT14                               #  MINUTES OFF OF LONGTIME
000535: 01,3473           21153                           DAS      LONGTIME
000536:
000537: 01,3474           11153                           CCS      LONGTIME   +1                         #  THE REASONIBG BEHIND THIS PART IS
000538: 01,3475           13513                           TCF      MUCHTIME                              #  INVOLVED, TAKING INTO ACCOUNT THAT THE
000539:                                                                                                  #  WORDS MAY NOT BE SIGNED CORRECTED (DP
000540:                                                                                                  #  BASIC INSTRUCTIONS
000541:                                                                                                  #  DO NOT SIGN CORRECT) AND THAT WE SUBTRAC
000542:                                                                                                  #  TED BIT14 (1 OVER HALF THE POS. VALUE
000543:                                                                                                  #  REPRESENTIBLE IN SINGLE WORD)
000544: 01,3476           13477                           NOOP                                           #  CAN:T GET HERE    **********
000545: 01,3477           13500                           TCF      +1
000546: 01,3500           11152                           CCS      LONGTIME
000547: 01,3501           13513                           TCF      MUCHTIME
000548: 01,3502           00000        DPBIT14            OCT      00000
000549: 01,3503           20000                           OCT      20000
000550:                                                                                                  #  LONGCALL
000551:


000553: 01,3504           34727        LASTTIME           CA       BIT14                                 #  GET BACK THE CORRECT DELTA TFOR WAITLIST
000554: 01,3505           27153                           ADS      LONGTIME   +1
000555: 01,3506           05175                           TC       TWIDDLE
000556: 01,3507  E3,1400                                  EBANK=   LST1
000557: 01,3507           03520                           ADRES    GETCADR
000558: 01,3510           33522        LONGRTRN           CA       TSKOVCDR                              #  SET IT UP SO THAT ONLY THE FIRST EXIT IS
000559: 01,3511           53435                           DXCH     LONGEXIT                              #  TO THE CALLER OF LONGCALL
000560: 01,3512           52006                           DTCB                                           #  THE REST ARE TO TASKOVER
000561:
000562: 01,3513           34727        MUCHTIME           CA       BIT14                                 #  WE HAVE OVER OUR ABOUT 1.25 MINUTES
000563: 01,3514           05205                           TC       WAITLIST                              #  SO SET UP FOR ANOTHER CYCLE THROUGH HERE
000564: 01,3515  E3,1400                                  EBANK=   LST1
000565: 01,3515           03471 02063                     2CADR    LONGCYCL
000566:
000567:
000568: 01,3517           13510                           TCF      LONGRTRN                              #  NOW EXIT PROPERLY
000569:
000570:                                                                                                  #           *** WAITLIST TASK GETCADR ***
000571: 01,3520           53147        GETCADR            DXCH     LONGCADR                              #  GET THE LONGCALL THAT WE WISHED TO START
000572: 01,3521           15167                           TCF      SUPDXCHZ                              #  AND TRANSFER CONTROL
000573: 01,3522           05263        TSKOVCDR           GENADR   TASKOVER
000574: 01,3523           53435        LONGPOOH           DXCH     LONGEXIT
000575: 01,3524           13526                           TCF      +2
000576: 01,3525           52062        WAITPOOH           DXCH     WAITEXIT
000577: 01,3526           05722                 +2        TC       POODOO1
000578: 01,3527           21204                           OCT      21204

End of include-file WAITLIST.agc.  Parent file is MAIN.agc


