
Source Code


000002:                                                                                                  ## Copyright:   Public domain.
000003:                                                                                                  ## Filename:    WAITLIST.agc
000004:                                                                                                  ## Purpose:     A section of Luminary revision 210.
000005:                                                                                                  ##              It is part of the source code for the Lunar Module's (LM)
000006:                                                                                                  ##              Apollo Guidance Computer (AGC) for Apollo 15-17.
000007:                                                                                                  ##              This file is intended to be a faithful transcription, except
000008:                                                                                                  ##              that the code format has been changed to conform to the
000009:                                                                                                  ##              requirements of the yaYUL assembler rather than the
000010:                                                                                                  ##              original YUL assembler.
000011:                                                                                                  ## Reference:   pp. 1115-1130
000012:                                                                                                  ## Assembler:   yaYUL
000013:                                                                                                  ## Contact:     Ron Burkey <info@sandroid.org>.
000014:                                                                                                  ## Website:     www.ibiblio.org/apollo/index.html
000015:                                                                                                  ## Mod history: 2016-11-17 JL   Created from Luminary131 version.
000016:                                                                                                  ##              2016-11-18 MAS  Transcribed. Mostly just comment corrections.
000017:                                                                                                  ##              2016-12-07 HG   Fix P00 -> POO
000018:                                                                                                  ##              2016-12-26 RSB  Comment-text proofed using ProoferComments
000019:                                                                                                  ##                              and corrected errors found.
000020:                                                                                                  ##              2017-01-28 RSB  WTIH -> WITH.
000021:                                                                                                  ##              2017-03-14 RSB  Comment-text fixes noted in proofing Luminary 116.
000022:                                                                                                  ##              2017-03-16 RSB  Comment-text fixes identified in 5-way
000023:                                                                                                  ##                              side-by-side diff of Luminary 69/99/116/131/210.
000024:


000026:                                                                                                  #  PROGRAM DESCRIPTION                                                                     DATE - 10 OCTOBER 1966
000027:                                                                                                  #  MOD NO - 2                                                                              LOG SECTION - WAITLIST
000028:                                                                                                  #  MOD BY - MILLER   (DTMAX INCREASED TO 162.5 SEC)                                        ASSEMBLY SUNBURST REV 5
000029:                                                                                                  #  MOD 3 BY KERNAN  (INHINT INSERTED AT WAITLIST)  2/28/68 SKIPPER REV 4
000030:
000031:                                                                                                  #  MOD 4BY KERNAN (TWIDDLE IN 54)  3/28/68 SKIPPER REV 13.
000032:
000033:                                                                                                  #  FUNCTIONAL DESCRIPTION-
000034:                                                                                                  #          PART OF A SECTION OF PROGRAMS,-WAITLIST, TASKOVER, T3RUPT, USED  TO CALL A PROGRAM, (CALLED A TASK),
000035:                                                                                                  #     WHICH IS TO BEGIN IN C(A) CENTISECONDS.  WAITLIST UPDATES TIME3, LST1 AND LST2. THE MEANING OF THESE LISTS
000036:                                                                                                  #     FOLLOW.
000037:
000038:                                                                                                  #                  C(TIME3)  = 16384 -(T1-T) CENTISECONDS, (T=PRESENT TIME, T1-TIME FOR TASK1)
000039:
000040:
000041:                                                                                                  #                               C(LST1)    = -(T2-T1)+1
000042:                                                                                                  #                               C(LST1 +1) = -(T3-T2)+1
000043:                                                                                                  #                               C(LST1 +2) = -(T4-T3)+1
000044:                                                                                                  #                                          .
000045:                                                                                                  #                                          .
000046:                                                                                                  #                               C(LST1 +6) = -(T8-T7)+1
000047:                                                                                                  #                               C(LST1 +7) = -(T9-T8)+1
000048:
000049:                                                                                                  #                               C(LST2)    = 2CADR OF TASK1
000050:                                                                                                  #                               C(LST2 +2) = 2CADR OF TASK2
000051:                                                                                                  #                                          .
000052:                                                                                                  #                                          .
000053:                                                                                                  #                               C(LST2 +14)= 2CADR OF TASK8
000054:                                                                                                  #                               C(LST2 +16)= 2CADR OF TASK9
000055:
000056:                                                                                                  #  WARNINGS-
000057:                                                                                                  #  --------
000058:                                                                                                  #               1) 1 <= C(A) <= 16250D (1 CENTISECOND TO 162.5 SEC)
000059:                                                                                                  #               2) 9 TASKS MAXIMUM
000060:                                                                                                  #               3) TASKS CALLED UNDER INTERRUPT INHIBITED
000061:                                                                                                  #               4) TASKS END BY TC TASKOVER
000062:
000063:                                                                                                  #  CALLING SEQUENCE-
000064:
000065:                                                                                                  #               L-1    CA     DELTAT   (TIME IN CENTISECONDS TO TASK START)
000066:                                                                                                  #               L      TC     WAITLIST
000067:                                                                                                  #               L+1    2CADR  DESIRED TASK
000068:                                                                                                  #               L+2    (MINOR OF 2CADR)
000069:                                                                                                  #               L+3    RELINT          (RETURNS HERE)
000070:
000071:                                                                                                  #  TWIDDLE -
000072:                                                                                                  #  -------
000073:                                                                                                  #               TWIDDLE IS FOR USE WHEN THE TASK BEING SET UP IS IN THE SAME EBANK AND FBANK AS THE USER.   IN
000074:                                                                                                  #               SUCH CASES, IT IMPROVES UPON WAITLIST BY ELIMINATING THE NEED FOR THE BBCON HALF OF THE 2CADR,


000076:                                                                                                  #               SAVING A WORD.   TWIDDLE IS LIKE WAITLIST IN EVERY RESPECT EXCEPT CALLING SEQUENCE, TO WIT-
000077:
000078:                                                                                                  #               L-1    CA     DELTAT
000079:                                                                                                  #               L      TC     TWIDDLE
000080:                                                                                                  #               L+1    ADRES  DESIRED TASK
000081:                                                                                                  #               L+2    RELINT               (RETURNS HERE)
000082:
000083:                                                                                                  #  NORMAL EXIT MODES-
000084:
000085:                                                                                                  #               AT L+3 OF CALLING SEQUENCE
000086:
000087:                                                                                                  #  ALARM OR ABORT EXIT MODES-
000088:
000089:                                                                                                  #               TC     ABORT
000090:                                                                                                  #               OCT    1203   (WAITLIST OVERFLOW - TOO MANY TASKS)
000091:
000092:                                                                                                  #  ERASABLE INITIALIZATION REQUIRED-
000093:
000094:                                                                                                  #               ACCOMPLISHED BY FRESH START,--LST2,..., LST2 +16 =ENDTASK
000095:                                                                                                  #                                             LST1,..., LST1 +7  =NEG1/2
000096:
000097:                                                                                                  #  OUTPUT--
000098:
000099:                                                                                                  #               LST1 AND LST2 UPDATED WITH NEW TASK AND ASSOCIATED TIME.
000100:
000101:                                                                                                  #  DEBRIS-
000102:
000103:                                                                                                  #               CENTRALS- A,Q,L
000104:                                                                                                  #               OTHER   - WAITEXIT, WAITADR, WAITTEMP, WAITBANK
000105:                                                                                                  #  DETAILED ANALYSIS OF TIMING-
000106:
000107:                                                                                                  #          CONTROL WILL NOT BE RETURNED TO THE SPECIFIED ADDRESS (2CADR)   IN EXACTLY DELTA T CENTISECONDS.
000108:                                                                                                  #     THE APPROXIMATE TIME MAY BE CALCULATED AS FOLLOWS
000109:
000110:                                                                                                  #               LET TO = THE TIME OF THE TC WAITLIST
000111:                                                                                                  #               LET TS = TO +147U + COUNTER INCREMENTS (SET UP TIME)
000112:                                                                                                  #               LET X  = TS -(100TS)/100  (VARIANCE FROM COUNTERS)
000113:                                                                                                  #               LET Y  = LENGTH OF TIME OF INHIBIT INTERRUPT AFTER T3RUPT
000114:                                                                                                  #               LET Z  = LENGTH OF TIME TO PROCESS TASKS WHICH ARE DUE THIS T3RUPT BUT DISPATCHED EARLIER.
000115:                                                                                                  #     (Z=0, USUALLY)
000116:                                                                                                  #               LET DELTD = THE ACTUAL TIME TAKEN TO GIVE CONTROL TO 2CADR
000117:                                                                                                  #            THEN   DELTD = TS+DELTA T -X +Y +Z +1.05MS* +COUNTERS*
000118:                                                                                                  #     *-THE TIME TAKEN BY WAITLIST ITSELF AND THE COUNTER TICKING DURING THIS WAITLIST TIME.
000119:
000120:
000121:                                                                                                  #          IN SHORT, THE ACTUAL TIME TO RETURN CONTROL TO A 2CADR IS AUGMENTED BY THE TIME TO SET UP THE TASK:S
000122:                                                                                                  #     INTERRUPT, ALL COUNTERS TICKING, THE T3RUPT PROCESSING TIME, THE WAITLIST PROCESSING TIME AND THE POSSIBILITY
000123:                                                                                                  #     OF OTHER TASKS INHIBITING THE INTERRUPT.
000124:
000125:
000126:    5175                                           BLOCK    02


000128:    5175  E3,1400                                  EBANK=   LST1                                  #  TASK  LISTS IN SWITCHED E BANK.
000129:
000130:    5175                                           COUNT*   $$/WAIT
000131:    5175           00004        TWIDDLE            INHINT
000132:    5176           54001                           TS       L                                     #  SAVE DELAY TIME IN L
000133:    5177           34724                           CA       POSMAX
000134:    5200           26002                           ADS      Q                                     #  CREATING OVERFLOW AND Q-1 IN Q
000135:    5201           30006                           CA       BBANK
000136:    5202           00006                           EXTEND
000137:    5203           04007                           ROR      SUPERBNK
000138:    5204           56001                           XCH      L
000139:
000140:    5205           00004        WAITLIST           INHINT
000141:    5206           56002                           XCH      Q                                     #  SAVE DELTA T IN Q AND RETURN IN
000142:    5207           54061                           TS       WAITEXIT                              #  WAITEXIT.
000143:    5210           00006                           EXTEND
000144:    5211           50061                           INDEX    WAITEXIT                              #  IF TWIDDLING, THE TS SKIPS TO HERE
000145:    5212           30001                           DCA      0                                     #  PICK UP 2CADR OF TASK.
000146:    5213           54063                 -1        TS       WAITADR                               #  BBCON WILL REMAIN IN L
000147:    5214           35222        DLY2               CAF      WAITBB                                #  ENTRY FROM FIXDELAY AND VARDELAY.
000148:    5215           56006                           XCH      BBANK
000149:    5216           13234                           TCF      WAIT2
000150:
000151:                                                                                                  #           RETURN TO CALLER AFTER TASK INSERTION:
000152:
000153:    5217           52062        LVWTLIST           DXCH     WAITEXIT
000154:    5220           64743                           AD       TWO
000155:    5221           52006                           DTCB
000156:
000157:    5222  E3,1400                                  EBANK=   LST1
000158:    5222           02063        WAITBB             BBCON    WAIT2
000159:
000160:                                                                                                  #           RETURN TO CALLER +2 AFTER WAITING DT SPECIFIED AT CALLER +1.
000161:
000162:    5223           50002        FIXDELAY           INDEX    Q                                     #  BOTH ROUTINES MUST BE CALLED UNDER
000163:    5224           30000                           CAF      0                                     #  WAITLIST CONTROL AND TERMINATE THE TASK
000164:    5225           24002                           INCR     Q                                     #  IN WHICH THEY WERE CALLED.
000165:
000166:                                                                                                  #           RETURN TO CALLER +1 AFTER WAITING THE DT AS ARRIVING IN A.
000167:
000168:    5226           56002        VARDELAY           XCH      Q                                     #  DT TO Q. TASK ADRES TO WAITADR.
000169:    5227           54063                           TS       WAITADR
000170:    5230           30006                           CA       BBANK                                 #  BBANK IS SAVED DURING DELAY.
000171:    5231           00006                           EXTEND
000172:    5232           04007                           ROR      SUPERBNK                              #  ADD SBANK TO BBCON.
000173:    5233           54001                           TS       L
000174:    5234           35237                           CAF      DELAYEX
000175:    5235           54061                           TS       WAITEXIT                              #  GO TO TASKOVER AFTER TASK ENTRY.
000176:    5236           15214                           TCF      DLY2
000177:


000179:    5237           15261        DELAYEX            TCF      TASKOVER   -2                         #  RETURNS TO TASKOVER
000180:


000182:                                                                                                  #  ENDTASK MUST BE ENTERED IN FIXED-FIXED SO IT IS DISTINGUISHABLE BY ITS ADRES ALONE.
000183:
000184:    5240  E3,1400                                  EBANK=   LST1
000185:    5240           72535 73714  ENDTASK            -2CADR   SVCT3
000186:
000187:    5242           10076        SVCT3              CCS      FLAGWRD2                              #  DRIFT FLAG
000188:    5243           15263                           TCF      TASKOVER
000189:    5244           15263                           TCF      TASKOVER
000190:    5245           15246                           TCF      +1
000191:
000192:    5246           11301        CKIMUSE            CCS      IMUCADR                               #  DON'T DO NBDONLY IF SOMEONE ELSE IS IN
000193:    5247           15260                           TCF      SVCT3X                                #  IMUSTALL.
000194:    5250           15253                           TCF      +3
000195:    5251           15260                           TCF      SVCT3X
000196:    5252           15260                           TCF      SVCT3X
000197:
000198:    5253           37744                 +3        CAF      PRIO35                                #  COMPENSATE FOR NBD COEFFICIENTS ONLY.
000199:    5254           05063                           TC       NOVAC                                 #      ENABLE EVERY 81.93 SECONDS
000200:    5255  E3,1460                                  EBANK=   NBDX
000201:    5255           03625 14063                     2CADR    NBDONLY
000202:
000203:    5257           15263                           TCF      TASKOVER
000204:
000205:    5260           05223        SVCT3X             TC       FIXDELAY                              #  DELAY MAX OF 2 TIMES FOR IMUZERO.
000206:    5261           00764                           DEC      500        B-14
000207:    5262           05242                           TC       SVCT3                                 #  CHECK DRIFT FLAG AGAIN.
000208:


000210:                                                                                                  #           BEGIN TASK INSERTION.
000211:
000212: 01,3234                                           BANK     01
000213: 01,3234                                           COUNT*   $$/WAIT
000214: 01,3234           54062        WAIT2              TS       WAITBANK                              #  BBANK OF CALLING PROGRAM.
000215: 01,3235           30002                           CA       Q
000216: 01,3236           00006                           EXTEND
000217: 01,3237           63525                           BZMF     WAITPOOH
000218:
000219: 01,3240           40026                           CS       TIME3
000220: 01,3241           64735                           AD       BIT8                                  #  BIT 8 = OCT 200
000221: 01,3242           10000                           CCS      A                                     #  TEST 200 - C(TIME3).  IF POSITIVE,
000222:                                                                                                  #  IT MEANS THAT TIME3 OVERFLOW HAS OCCURRED PRIOR TO CS  TIME3 AND THAT
000223:                                                                                                  #  C(TIME3) = T - T1, INSTEAD OF 1.0 - (T1 - T).  THE FOLLOWING FOUR
000224:                                                                                                  #  ORDERS SET C(A) = TD - T1 + 1 IN EITHER CASE.
000225:
000226: 01,3243           66130                           AD       OCT40001                              #  OVERFLOW HAS OCCURRED.  SET C(A) =
000227: 01,3244           40000                           CS       A                                     #  T - T1 + 1.0 - 201
000228:
000229:                                                                                                  #  NORMAL CASE (C(A) NNZ) YIELDS SAME C(A):  -( -(1.0-(T1-T)) + 200) - 1
000230:
000231: 01,3245           63373                           AD       OCT40201
000232: 01,3246           60002                           AD       Q                                     #  RESULT = TD - T1 + 1.
000233:
000234: 01,3247           10000                           CCS      A                                     #  TEST TD - T1 + 1
000235:
000236: 01,3250           61400                           AD       LST1                                  #  IF TD - T1 POS, GO TO WTLST5 WITH
000237: 01,3251           13313                           TCF      WTLST5                                #  C(A) = (TD - T1) + C(LST1) = TD-T2+1
000238:
000239: 01,3252           13253                           NOOP
000240: 01,3253           40002                           CS       Q
000241:
000242:                                                                                                  #  NOTE THAT THIS PROGRAM SECTION IS NEVER ENTERED WHEN T-T1 G/E -1,
000243:                                                                                                  #  SINCE TD-T1+1 = (TD-T) + (T-T1+1), AND DELTA T = TD-T G/E +1 .  (G/E
000244:                                                                                                  #  SYMBOL MEANS GREATER THAN OR EQUAL TO).  THUS THERE NEED BE NO CON-
000245:                                                                                                  #  CERN OVER A PREVIOUS OR IMMINENT OVERFLOW OF TIME3 HERE.
000246:
000247: 01,3254           64727                           AD       POS1/2                                #  WHEN TD IS NEXT, FORM QUANTITY
000248: 01,3255           64727                           AD       POS1/2                                #    1.0 - DELTA T = 1.0 - (TD - T)
000249: 01,3256           56026                           XCH      TIME3
000250: 01,3257           64726                           AD       NEGMAX
000251: 01,3260           60002                           AD       Q                                     #  1.0 - DELTAT T NOW COMPLETE.
000252: 01,3261           00006                           EXTEND                                         #  ZERO INDEX Q.
000253: 01,3262           22007                           QXCH     7                                     #  (ZQ)
000254:


000256: 01,3263           57400        WTLST4             XCH      LST1
000257: 01,3264           57401                           XCH      LST1       +1
000258: 01,3265           57402                           XCH      LST1       +2
000259: 01,3266           57403                           XCH      LST1       +3
000260: 01,3267           57404                           XCH      LST1       +4
000261: 01,3270           57405                           XCH      LST1       +5
000262: 01,3271           57406                           XCH      LST1       +6
000263: 01,3272           57407                           XCH      LST1       +7
000264:
000265: 01,3273           30063                           CA       WAITADR                               #  (MINOR PART OF TASK CADR HAS BEEN IN L.)
000266: 01,3274           50002                           INDEX    Q
000267: 01,3275           13276                           TCF      +1
000268:
000269: 01,3276           53411                           DXCH     LST2
000270: 01,3277           53413                           DXCH     LST2       +2
000271: 01,3300           53415                           DXCH     LST2       +4
000272: 01,3301           53417                           DXCH     LST2       +6
000273: 01,3302           53421                           DXCH     LST2       +8D
000274: 01,3303           53423                           DXCH     LST2       +10D                       #  AT END, CHECK THAT C(LST2+10) IS STD
000275: 01,3304           53425                           DXCH     LST2       +12D
000276: 01,3305           53427                           DXCH     LST2       +14D
000277: 01,3306           53431                           DXCH     LST2       +16D
000278: 01,3307           65240                           AD       ENDTASK                               #    END ITEM, AS CHECK FOR EXCEEDING
000279:                                                                                                  #    THE LENGTH OF THE LIST.
000280: 01,3310           00006                           EXTEND                                         #  DUMMY TASK ADRES SHOULD BE IN FIXED-
000281: 01,3311           15217                           BZF      LVWTLIST                              #  FIXED SO ITS ADRES ALONE DISTINGUISHES
000282: 01,3312           13366                           TCF      WTABORT                               #  IT.
000283:


000285: 01,3313           10000        WTLST5             CCS      A                                     #  TEST  TD - T2 + 1
000286: 01,3314           61401                           AD       LST1       +1
000287: 01,3315           13321                           TCF      +4
000288: 01,3316           64744                           AD       ONE
000289: 01,3317           03377                           TC       WTLST2
000290: 01,3320           00001                           OCT      1
000291:
000292: 01,3321           10000                 +4        CCS      A                                     #  TEST  TD - T3 + 1
000293: 01,3322           61402                           AD       LST1       +2
000294: 01,3323           13327                           TCF      +4
000295: 01,3324           64744                           AD       ONE
000296: 01,3325           03377                           TC       WTLST2
000297: 01,3326           00002                           OCT      2
000298:
000299: 01,3327           10000                 +4        CCS      A                                     #  TEST  TD - T4 + 1
000300: 01,3330           61403                           AD       LST1       +3
000301: 01,3331           13335                           TCF      +4
000302: 01,3332           64744                           AD       ONE
000303: 01,3333           03377                           TC       WTLST2
000304: 01,3334           00003                           OCT      3
000305:
000306: 01,3335           10000                 +4        CCS      A                                     #  TEST  TD - T5 + 1
000307: 01,3336           61404                           AD       LST1       +4
000308: 01,3337           13343                           TCF      +4
000309: 01,3340           64744                           AD       ONE
000310: 01,3341           03377                           TC       WTLST2
000311: 01,3342           00004                           OCT      4
000312:
000313: 01,3343           10000                 +4        CCS      A                                     #  TEST  TD - T6 + 1
000314: 01,3344           61405                           AD       LST1       +5
000315: 01,3345           13351                           TCF      +4
000316: 01,3346           64744                           AD       ONE
000317: 01,3347           03377                           TC       WTLST2
000318: 01,3350           00005                           OCT      5
000319:
000320: 01,3351           10000                 +4        CCS      A                                     #  TEST  TD - T7 + 1
000321: 01,3352           61406                           AD       LST1       +6
000322: 01,3353           13357                           TCF      +4
000323: 01,3354           64744                           AD       ONE
000324: 01,3355           03377                           TC       WTLST2
000325: 01,3356           00006                           OCT      6
000326:


000328: 01,3357           10000                 +4        CCS      A
000329: 01,3360           61407                           AD       LST1       +7
000330: 01,3361           13365                           TCF      +4
000331: 01,3362           64744                           AD       ONE
000332: 01,3363           03377                           TC       WTLST2
000333: 01,3364           00007                           OCT      7
000334:
000335: 01,3365           10000                 +4        CCS      A
000336: 01,3366           03374        WTABORT            TC       FILLED
000337: 01,3367           13370                           NOOP                                           #  CAN'T GET HERE
000338: 01,3370           64744                           AD       ONE
000339: 01,3371           03377                           TC       WTLST2
000340: 01,3372           00010                           OCT      10
000341:
000342: 01,3373           40201        OCT40201           OCT      40201
000343:


000345: 01,3374           52062        FILLED             DXCH     WAITEXIT
000346: 01,3375           05712                           TC       BAILOUT1                              #  NO ROOM IN THE INN
000347: 01,3376           31203                           OCT      31203
000348:


000350:                                                                                                  #  THE ENTRY TO WTLST2 JUST PRECEDING OCT  N  IS FOR T  LE TD LE T   -1.
000351:                                                                                                  #                                                     N           N+1
000352:
000353:                                                                                                  #  (LE MEANS LESS THAN OR EQUAL TO).  AT ENTRY, C(A) = -(TD - T   + 1)
000354:                                                                                                  #                                                              N+1
000355:
000356:                                                                                                  #  THE LST1 ENTRY -(T   - T +1) IS TO BE REPLACED BY -(TD - T + 1), AND
000357:                                                                                                  #                    N+1   N                                 N
000358:
000359:                                                                                                  #  THE ENTRY -(T   - TD + 1) IS TO BE INSERTED IMMEDIATELY FOLLOWING.
000360:                                                                                                  #               N+1
000361:
000362: 01,3377           54064        WTLST2             TS       WAITTEMP                              #      C(A) = -(TD - T   + 1)
000363: 01,3400           50002                           INDEX    Q
000364: 01,3401           30000                           CAF      0
000365: 01,3402           54002                           TS       Q                                     #  INDEX VALUE INTO Q.
000366:
000367: 01,3403           34744                           CAF      ONE
000368: 01,3404           60064                           AD       WAITTEMP
000369: 01,3405           50002                           INDEX    Q                                     #  C(A) = -(TD - T ) + 1.
000370: 01,3406           27377                           ADS      LST1       -1                         #                 N
000371:
000372: 01,3407           40064                           CS       WAITTEMP
000373: 01,3410           50002                           INDEX    Q
000374: 01,3411           13263                           TCF      WTLST4
000375:
000376:                                                                                                  #  C(TIME3) = 1.0 - (T1 - T)
000377:
000378:                                                                                                  #  C(LST1  ) = - (T2 - T1) + 1
000379:                                                                                                  #  C(LST1+1) = - (T3 - T2) + 1
000380:                                                                                                  #  C(LST1+2) = - (T4 - T3) + 1
000381:                                                                                                  #  C(LST1+3) = - (T5 - T4) + 1
000382:                                                                                                  #  C(LST1+4) = - (T6 - T5) + 1
000383:
000384:                                                                                                  #  C(LST2   ) = 2CADR  TASK1
000385:                                                                                                  #  C(LST2+2 ) = 2CADR  TASK2
000386:                                                                                                  #  C(LST2+4 ) = 2CADR  TASK3
000387:                                                                                                  #  C(LST2+6 ) = 2CADR  TASK4
000388:                                                                                                  #  C(LST2+8 ) = 2CADR  TASK5
000389:                                                                                                  #  C(LST2+10) = 2CADR  TASK6
000390:


000392:                                                                                                  #           ENTERS HERE ON T3 RUPT TO DISPATCH WAITLISTED TASK.
000393:
000394: 01,3412           00006        T3RUPT             EXTEND
000395: 01,3413           04007                           ROR      SUPERBNK                              #  READ CURRENT SUPERBANK VALUE AND
000396: 01,3414           54016                           TS       BANKRUPT                              #  SAVE WITH E AND F BANK VALUES.
000397: 01,3415           00006                           EXTEND
000398: 01,3416           22012                           QXCH     QRUPT
000399:
000400: 01,3417           34725        T3RUPT2            CAF      NEG1/2                                #  DISPATCH WAITLIST TASK.
000401: 01,3420           57407                           XCH      LST1       +7
000402: 01,3421           57406                           XCH      LST1       +6
000403: 01,3422           57405                           XCH      LST1       +5
000404: 01,3423           57404                           XCH      LST1       +4                         #  1.  MOVE UP LST1 CONTENTS, ENTERING
000405: 01,3424           57403                           XCH      LST1       +3                         #      A VALUE OF 1/2 +1 AT THE BOTTOM
000406: 01,3425           57402                           XCH      LST1       +2                         #      FOR T6-T5, CORRESPONDING TO THE
000407: 01,3426           57401                           XCH      LST1       +1                         #      INTERVAL 81.91 SEC FOR ENDTASK.
000408: 01,3427           57400                           XCH      LST1
000409: 01,3430           64724                           AD       POSMAX                                #  2. SET T3 = 1.0 - T2 -T USING LIST 1.
000410: 01,3431           26026                           ADS      TIME3                                 #  SO T3 WONT TICK DURING UPDATE.
000411: 01,3432           54332                           TS       RUPTAGN
000412: 01,3433           44746                           CS       ZERO
000413: 01,3434           54332                           TS       RUPTAGN                               #  SETS RUPTAGN TO +1 ON OVERFLOW.
000414:
000415: 01,3435           00006                           EXTEND                                         #  DISPATCH TASK.
000416: 01,3436           45241                           DCS      ENDTASK
000417: 01,3437           53431                           DXCH     LST2       +16D
000418: 01,3440           53427                           DXCH     LST2       +14D
000419: 01,3441           53425                           DXCH     LST2       +12D
000420: 01,3442           53423                           DXCH     LST2       +10D
000421: 01,3443           53421                           DXCH     LST2       +8D
000422: 01,3444           53417                           DXCH     LST2       +6
000423: 01,3445           53415                           DXCH     LST2       +4
000424: 01,3446           53413                           DXCH     LST2       +2
000425: 01,3447           53411                           DXCH     LST2
000426:
000427: 01,3450           56001                           XCH      L
000428: 01,3451           00006                           EXTEND
000429: 01,3452           01007                           WRITE    SUPERBNK                              #  SET SUPERBANK FROM BBCON OF 2CADR
000430: 01,3453           56001                           XCH      L                                     #  RESTORE TO L FOR DXCH Z.
000431: 01,3454           52006                           DTCB
000432:


000434:                                                                                                  #           RETURN, AFTER EXECUTION OF T3 OVERFLOW TASK:
000435:
000436:    5263                                           BLOCK    02
000437:    5263                                           COUNT*   $$/WAIT
000438:    5263           10332        TASKOVER           CCS      RUPTAGN                               #  IF +1 RETURN TO T3RUPT, IF -0 RESUME.
000439:    5264           35222                           CAF      WAITBB
000440:    5265           54006                           TS       BBANK
000441:    5266           13417                           TCF      T3RUPT2                               #  DISPATCH NEXT TASK IF IT WAS DUE.
000442:
000443:    5267           30016                           CA       BANKRUPT
000444:    5270           00006                           EXTEND
000445:    5271           01007                           WRITE    SUPERBNK                              #  RESTORE SUPERBANK BEFORE RESUME IS DONE
000446:
000447:    5272           00006        RESUME             EXTEND
000448:    5273           22012                           QXCH     QRUPT
000449:    5274           30016        NOQRSM             CA       BANKRUPT
000450:    5275           56006                           XCH      BBANK
000451:    5276           52011        NOQBRSM            DXCH     ARUPT
000452:    5277           00003                           RELINT
000453:    5300           50017                           RESUME
000454:


000456:                                                                                                  #  LONGCALL
000457:
000458:                                                                                                  #  PROGRAM DESCRIPTION                                  DATE- 17 MARCH 1967
000459:                                                                                                  #  PROGRAM WRITTEN BY W.H. VANDEVER                    LOG SECTION WAITLIST
000460:                                                                                                  #  MOD BY- R. MELANSON TO ADD DOCUMENTATION       ASSEMBLY SUNDISK REV. 100
000461:
000462:                                                                                                  #  FUNCTIONAL DESCRIPTION-
000463:                                                                                                  #  LONGCALL IS CALLED WITH THE DELTA TIME ARRIVING IN A,L SCALED AS TIME2,TIME1 WITH THE 2CADR OF THE TASK
000464:                                                                                                  #  IMMEDIATELY FOLLOWING THE TC LONGCALL.  FOR EXAMPLE, IT MIGHT BE DONE AS FOLLOWS WHERE TIMELOC IS THE NAME OF
000465:                                                                                                  #  A DP REGISTER CONTAINING A DELTA TIME AND WHERE TASKTODO IS THE NAME OF THE LOCATION AT WHICH LONGCALL IS TO
000466:                                                                                                  #  START
000467:
000468:                                                                                                  #  CALLING SEQUENCE-
000469:                                                                                                  #                                                   EXTEND
000470:                                                                                                  #                                                   DCA    TIMELOC
000471:                                                                                                  #                                                   TC     LONGCALL
000472:                                                                                                  #                                                   2CADR  TASKTODO
000473:
000474:                                                                                                  #  NORMAL EXIT MODE-
000475:                                                                                                  #     1). TC    WAITLIST
000476:                                                                                                  #     2). DTCB  (TO L+3 OF CALLING ROUTINE 1ST PASS THRU LONGCYCL)
000477:                                                                                                  #     3). DTCB  (TO TASKOVER ON SUBSEQUENT PASSES THRU LONGCYCL)
000478:
000479:                                                                                                  #  ALARM OR ABORT EXIT MODE-
000480:                                                                                                  #     NONE
000481:
000482:                                                                                                  #  OUTPUT-
000483:                                                                                                  #     LONGTIME AND LONGTIME+1 = DELTA TIME
000484:                                                                                                  #     LONGEXIT AND LONGEXIT+1 = RETURN 2CADR
000485:                                                                                                  #     LONGCADR AND LONGCADR+1 = TASK 2CADR
000486:                                                                                                  #     A = SINGLE PRECISION TIME FOR WAITLIST
000487:
000488:                                                                                                  #  ERASABLE INITIALIZATION-
000489:                                                                                                  #     A = MOST SIGNIFICANT PART OF DELTA TIME
000490:                                                                                                  #     L = LEAST SIGNIFICANT PART OF DELTA TIME
000491:                                                                                                  #     Q = ADDRESS OF 2CADR TASK VALUE
000492:
000493:                                                                                                  #  DEBRIS-
000494:                                                                                                  #     A,Q,L
000495:                                                                                                  #     LONGCADR AND LONGCADR+1
000496:                                                                                                  #     LONGEXIT AND LONGEXIT+1
000497:                                                                                                  #     LONGTIME AND LONGTIME+1
000498:
000499:                                                                                                  #  *** THE FOLLOWING IS TO BE IN FIXED-FIXED AND UNSWITCHED ERRASIBLE ***
000500:
000501:    5301                                           BLOCK    02
000502:    5301  E3,1400                                  EBANK=   LST1
000503:    5301           53153        LONGCALL           DXCH     LONGTIME                              #  OBTAIN THE DELTA TIME
000504:
000505:    5302           00006                           EXTEND                                         #  OBTAIN THE 2CADR


000507:    5303           50002                           NDX      Q
000508:    5304           30001                           DCA      0
000509:    5305           53147                           DXCH     LONGCADR
000510:
000511:    5306           00006                           EXTEND                                         #  NOW GO TO THE APPROPRIATE SWITCHED BANK
000512:    5307           35312                           DCA      LGCL2CDR                              #  FOR THE REST OF LONGCALL
000513:    5310           52006                           DTCB
000514:
000515:    5311  E3,1400                                  EBANK=   LST1
000516:    5311           03455 02063  LGCL2CDR           2CADR    LNGCALL2
000517:
000518:                                                                                                  #  *** THE FOLLOWING MAY BE IN A SWITCHED BANK, INCLUDING ITS ERASABLE ***
000519:
000520: 01,3455                                           BANK     01
000521: 01,3455                                           COUNT*   $$/WAIT
000522: 01,3455           23435        LNGCALL2           LXCH     LONGEXIT   +1                         #  SAVE THE CORRECT BB FOR RETURN
000523: 01,3456           34743                           CA       TWO                                   #  OBTAIN THE RETURN ADDRESS
000524: 01,3457           26002                           ADS      Q
000525: 01,3460           55434                           TS       LONGEXIT
000526:
000527: 01,3461           31152                           CA       LONGTIME                              #  CHECK FOR LEGITIMATE DELTA-TIME
000528: 01,3462           10000                           CCS      A
000529: 01,3463           13471                           TCF      LONGCYCL                              #  HI-ORDER OK --> ALL IS OK.
000530: 01,3464           13466                           TCF      +2                                    #  HI-ORDER ZERO --> CHECK LO-ORDER.
000531: 01,3465           13523                           TCF      LONGPOOH                              #  HI-ORDER NEG. --> NEG. DT
000532: 01,3466           31153                 +2        CA       LONGTIME   +1                         #  CHECK LO-ORDER FOR ZERO OR NEGATIVE.
000533: 01,3467           00006                           EXTEND
000534: 01,3470           63523                           BZMF     LONGPOOH                              #  BAD DELTA-TIME.  ABORT
000535:
000536:                                                                                                  #           *** WAITLIST TASK LONGCYCL ***
000537: 01,3471           00006        LONGCYCL           EXTEND                                         #  CAN WE SUCCESFULLY TAKE ABOUT 1.25
000538: 01,3472           43503                           DCS      DPBIT14                               #  MINUTES OFF OF LONGTIME
000539: 01,3473           21153                           DAS      LONGTIME
000540:
000541: 01,3474           11153                           CCS      LONGTIME   +1                         #  THE REASONIBG BEHIND THIS PART IS
000542: 01,3475           13513                           TCF      MUCHTIME                              #  INVOLVED, TAKING INTO ACCOUNT THAT THE
000543:                                                                                                  #  WORDS MAY NOT BE SIGNED CORRECTED (DP
000544:                                                                                                  #  BASIC INSTRUCTIONS
000545:                                                                                                  #  DO NOT SIGN CORRECT) AND THAT WE SUBTRAC
000546:                                                                                                  #  TED BIT14 (1 OVER HALF THE POS. VALUE
000547:                                                                                                  #  REPRESENTIBLE IN SINGLE WORD)
000548: 01,3476           13477                           NOOP                                           #  CAN:T GET HERE    **********
000549: 01,3477           13500                           TCF      +1
000550: 01,3500           11152                           CCS      LONGTIME
000551: 01,3501           13513                           TCF      MUCHTIME
000552: 01,3502           00000        DPBIT14            OCT      00000
000553: 01,3503           20000                           OCT      20000
000554:                                                                                                  #  LONGCALL
000555:


000557: 01,3504           34727        LASTTIME           CA       BIT14                                 #  GET BACK THE CORRECT DELTA TFOR WAITLIST
000558: 01,3505           27153                           ADS      LONGTIME   +1
000559: 01,3506           05175                           TC       TWIDDLE
000560: 01,3507  E3,1400                                  EBANK=   LST1
000561: 01,3507           03520                           ADRES    GETCADR
000562: 01,3510           33522        LONGRTRN           CA       TSKOVCDR                              #  SET IT UP SO THAT ONLY THE FIRST EXIT IS
000563: 01,3511           53435                           DXCH     LONGEXIT                              #  TO THE CALLER OF LONGCALL
000564: 01,3512           52006                           DTCB                                           #  THE REST ARE TO TASKOVER
000565:
000566: 01,3513           34727        MUCHTIME           CA       BIT14                                 #  WE HAVE OVER OUR ABOUT 1.25 MINUTES
000567: 01,3514           05205                           TC       WAITLIST                              #  SO SET UP FOR ANOTHER CYCLE THROUGH HERE
000568: 01,3515  E3,1400                                  EBANK=   LST1
000569: 01,3515           03471 02063                     2CADR    LONGCYCL
000570:
000571:
000572: 01,3517           13510                           TCF      LONGRTRN                              #  NOW EXIT PROPERLY
000573:
000574:                                                                                                  #           *** WAITLIST TASK GETCADR ***
000575: 01,3520           53147        GETCADR            DXCH     LONGCADR                              #  GET THE LONGCALL THAT WE WISHED TO START
000576: 01,3521           15167                           TCF      SUPDXCHZ                              #  AND TRANSFER CONTROL
000577: 01,3522           05263        TSKOVCDR           GENADR   TASKOVER
000578: 01,3523           53435        LONGPOOH           DXCH     LONGEXIT
000579: 01,3524           13526                           TCF      +2
000580: 01,3525           52062        WAITPOOH           DXCH     WAITEXIT
000581: 01,3526           05722                 +2        TC       POODOO1
000582: 01,3527           21204                           OCT      21204

End of include-file WAITLIST.agc.  Parent file is MAIN.agc


