
Source Code


000002:                                                                                                  ## Copyright:   Public domain.
000003:                                                                                                  ## Filename:    INTERPRETIVE_CONSTANTS.agc
000004:                                                                                                  ## Purpose:     A section of Luminary revision 173.
000005:                                                                                                  ##              It is part of the reconstructed source code for the second
000006:                                                                                                  ##              (unflown) release of the flight software for the Lunar
000007:                                                                                                  ##              Module's (LM) Apollo Guidance Computer (AGC) for Apollo 14.
000008:                                                                                                  ##              The code has been recreated from a reconstructed copy of
000009:                                                                                                  ##              Luminary 178, as well as Luminary memo 167 (revision 1).
000010:                                                                                                  ##              It has been adapted such that the resulting bugger words
000011:                                                                                                  ##              exactly match those specified for Luminary 173 in NASA
000012:                                                                                                  ##              drawing 2021152N, which gives relatively high confidence
000013:                                                                                                  ##              that the reconstruction is correct.
000014:                                                                                                  ## Reference:   pp. 1091-1092
000015:                                                                                                  ## Assembler:   yaYUL
000016:                                                                                                  ## Contact:     Ron Burkey <info@sandroid.org>.
000017:                                                                                                  ## Website:     www.ibiblio.org/apollo/index.html
000018:                                                                                                  ## Mod history: 2019-09-18 MAS  Created from Luminary 178.
000019:                                                                                                  ##              2021-05-30 ABS  DFC-6 -> DEC-6, DFC-12 -> DEC-12
000020:


000022: 23,2000                                           SETLOC   INTPRET1
000023: 23,2000                                           BANK
000024:
000025: 23,2507                                           COUNT*   $$/ICONS
000026: 23,2507           10000 00000  DP1/4TH            2DEC     .25
000027:
000028: 23,2511           00000 00000  UNITZ              2DEC     0          B-28
000029:
000030: 23,2513           00000 00000  UNITY              2DEC     0          B-28
000031:
000032: 23,2515           20000 00000  UNITX              2DEC     .5
000033:
000034: 23,2517           00000 00000  ZEROVECS           2DEC     0          B-28
000035:
000036: 23,2521           00000 00000                     2DEC     0          B-28
000037:
000038: 23,2523           00000 00000                     2DEC     0          B-28
000039:
000040: 23,2525  23,2515               DPHALF             =        UNITX
000041: 23,2525           37777        DPPOSMAX           OCT      37777
000042: 23,2526           37777                           OCT      37777
000043:


000045:                                                                                                  #  INTERPRETIVE CONSTANTS IN THE OTHER HALF-MEMORY
000046:
000047: 12,2000                                           SETLOC   INTPRET2
000048: 12,2000                                           BANK
000049:
000050: 12,2000                                           COUNT*   $$/ICONS
000051: 12,2000           00000 00000  ZUNIT              2DEC     0          B-28
000052:
000053: 12,2002           00000 00000  YUNIT              2DEC     0          B-28
000054:
000055: 12,2004           20000 00000  XUNIT              2DEC     .5
000056:
000057: 12,2006           00000 00000  ZEROVEC            2DEC     0          B-28
000058:
000059: 12,2010           00000 00000                     2DEC     0          B-28
000060:
000061: 12,2012           00000 00000                     2DEC     0          B-28
000062:
000063: 12,2014           77777                           OCT      77777                                 #  -0,-6,-12 MUST REMAIN IN THIS ORDER
000064: 12,2015           77771        DEC-6              DEC      -6         B-14
000065: 12,2016           77763        DEC-12             DEC      -12        B-14
000066: 12,2017           37777 37777  LODPMAX            2OCT     3777737777                            #  THESE TWO CONSTANTS MUST REMAIN
000067:
000068: 12,2021           37777 37777  LODPMAX1           2OCT     3777737777                            #  ADJACENT AND THE SAME FOR INTEGRATION
000069:
000070: 12,2023  12,2006               ZERODP             =        ZEROVEC
000071: 12,2023  12,2004               HALFDP             =        XUNIT

End of include-file INTERPRETIVE_CONSTANTS.agc.  Parent file is MAIN.agc


