
Source Code


000002:                                                                                                  ## Copyright:   Public domain.
000003:                                                                                                  ## Filename:    KEYRUPT,_UPRUPT.agc
000004:                                                                                                  ## Purpose:     A section of Luminary revision 173.
000005:                                                                                                  ##              It is part of the reconstructed source code for the second
000006:                                                                                                  ##              (unflown) release of the flight software for the Lunar
000007:                                                                                                  ##              Module's (LM) Apollo Guidance Computer (AGC) for Apollo 14.
000008:                                                                                                  ##              The code has been recreated from a reconstructed copy of
000009:                                                                                                  ##              Luminary 178, as well as Luminary memo 167 (revision 1).
000010:                                                                                                  ##              It has been adapted such that the resulting bugger words
000011:                                                                                                  ##              exactly match those specified for Luminary 173 in NASA
000012:                                                                                                  ##              drawing 2021152N, which gives relatively high confidence
000013:                                                                                                  ##              that the reconstruction is correct.
000014:                                                                                                  ## Reference:   pp. 1327-1329
000015:                                                                                                  ## Assembler:   yaYUL
000016:                                                                                                  ## Contact:     Ron Burkey <info@sandroid.org>.
000017:                                                                                                  ## Website:     www.ibiblio.org/apollo/index.html
000018:                                                                                                  ## Mod history: 2019-09-18 MAS  Created from Luminary 178.
000019:


000021: 14,3775                                           BANK     14
000022: 04,2000                                           SETLOC   KEYRUPT
000023: 04,2000                                           BANK
000024: 04,3261                                           COUNT*   $$/KEYUP
000025:
000026: 04,3261           54016        KEYRUPT1           TS       BANKRUPT
000027: 04,3262           56002                           XCH      Q
000028: 04,3263           54012                           TS       QRUPT
000029: 04,3264           04400                           TC       LODSAMPT                              #  TIME IS SNATCHED IN RUPT FOR NOUN 65.
000030: 04,3265           34346                           CAF      LOW5
000031: 04,3266           00006                           EXTEND
000032: 04,3267           02015                           RAND     MNKEYIN                               #  CHECK IF KEYS 5M-1M ON
000033: 04,3270           54073        KEYCOM             TS       RUPTREG4
000034: 04,3271           40101                           CS       FLAGWRD5
000035: 04,3272           74735                           MASK     DSKYFBIT
000036: 04,3273           26101                           ADS      FLAGWRD5
000037:
000038: 04,3274           34355        ACCEPTUP           CAF      CHRPRIO                               #  (NOTE: RUPTREG4 = KEYTEMP1)
000039: 04,3275           05072                           TC       NOVAC
000040: 04,3276     0776                                  EBANK=   DSPCOUNT
000041: 04,3276           02077 60101                     2CADR    CHARIN
000042:
000043: 04,3300           30073                           CA       RUPTREG4
000044: 04,3301           50064                           INDEX    LOCCTR
000045: 04,3302           54154                           TS       MPAC                                  #  LEAVE 5 BIT KEY CDE IN MPAC FOR CHARIN
000046: 04,3303           05301                           TC       RESUME
000047:


000049:                                                                                                  #  UPRUPT PROGRAM
000050:
000051: 04,3304           54016        UPRUPT             TS       BANKRUPT
000052: 04,3305           56002                           XCH      Q
000053: 04,3306           54012                           TS       QRUPT
000054: 04,3307           04400                           TC       LODSAMPT                              #  TIME IS SNATCHED IN RUPT FOR NOUN 65.
000055: 04,3310           34755                           CAF      ZERO
000056: 04,3311           56045                           XCH      INLINK
000057: 04,3312           54073                           TS       KEYTEMP1
000058: 04,3313           30077                           CA       FLAGWRD3                              #  AFTER EARTH LAUNCH?
000059: 04,3314           74741                           MASK     NOP07BIT
000060: 04,3315           10000                           CCS      A
000061: 04,3316           13322                           TCF      UPRPT1                                #  YES
000062: 04,3317           30073                           CA       KEYTEMP1                              #  NO: SUM UPLINK DATA
000063: 04,3320           27245                           ADS      UPSUM
000064: 04,3321           25246                           INCR     UPSUM      +1
000065: 04,3322           34751        UPRPT1             CAF      BIT3                                  #  TURN ON UPACT LIGHT
000066: 04,3323           00006                           EXTEND                                         #  (BIT 3 OF CHANNEL 11)
000067: 04,3324           05011                           WOR      DSALMOUT
000068: 04,3325           34346                           CAF      LOW5                                  #  TEST FOR TRIPLE CHAR REDUNDANCY
000069: 04,3326           70073                           MASK     KEYTEMP1                              #  LOW5 OF WORD
000070: 04,3327           56073                           XCH      KEYTEMP1                              #  LOW5 INTO KEYTEMP1
000071: 04,3330           00006                           EXTEND
000072: 04,3331           74742                           MP       BIT10                                 #  SHIFT RIGHT 5
000073: 04,3332           54332                           TS       KEYTEMP2
000074: 04,3333           74346                           MASK     LOW5                                  #  MID 5
000075: 04,3334           63370                           AD       HI10
000076: 04,3335           03365                           TC       UPTEST
000077: 04,3336           34742                           CAF      BIT10
000078: 04,3337           00006                           EXTEND
000079: 04,3340           70332                           MP       KEYTEMP2                              #  SHIFT RIGHT 5
000080: 04,3341           74346                           MASK     LOW5                                  #  HIGH 5
000081: 04,3342           40000                           COM
000082: 04,3343           03365                           TC       UPTEST
000083:
000084: 04,3344           43373        UPOK               CS       ELRCODE                               #  CODE IS GOOD. IF CODE = 'ERROR RESET',
000085: 04,3345           60073                           AD       KEYTEMP1                              #  CLEAR UPLOCKFL(SET BIT4 OF FLAGWRD7 = 0)
000086: 04,3346           00006                           EXTEND                                         #  IF CODE DOES NOT = 'ERROR RESET', ACCEPT
000087: 04,3347           13355                           BZF      CLUPLOCK                              #  CODE ONLY IF UPLOCKFL IS CLEAR (=0).
000088:
000089: 04,3350           34750                           CAF      UPLOCBIT                              #  TEST UPLOCKFL FOR 0 OR 1
000090: 04,3351           70103                           MASK     FLAGWRD7
000091: 04,3352           10000                           CCS      A
000092: 04,3353           05301                           TC       RESUME                                #  UPLOCKFL = 1
000093: 04,3354           03274                           TC       ACCEPTUP                              #  UPLOCKFL = 0
000094:
000095: 04,3355           44750        CLUPLOCK           CS       UPLOCBIT                              #  CLEAR UPLOCKFL (I.E.,SET BIT 4 OF )
000096: 04,3356           70103                           MASK     FLAGWRD7                              #  FLAGWRD7 = 0)
000097: 04,3357           54103                           TS       FLAGWRD7
000098: 04,3360           03274                           TC       ACCEPTUP


000100:                                                                                                  #  CODE IS BAD
000101: 04,3361           40103        TMFAIL2            CS       FLAGWRD7                              #  LOCK OUT FURTHER UPLINK ACTIVITY
000102: 04,3362           74750                           MASK     UPLOCBIT                              #  (BY SETTING UPLOCKFL = 1) UNTIL
000103: 04,3363           26103                           ADS      FLAGWRD7                              #  'ERROR RESET' IS SENT VIA UPLINK.
000104: 04,3364           05301                           TC       RESUME
000105: 04,3365           60073        UPTEST             AD       KEYTEMP1
000106: 04,3366           10000                           CCS      A
000107: 04,3367           03361                           TC       TMFAIL2
000108: 04,3370           77740        HI10               OCT      77740
000109: 04,3371           03361                           TC       TMFAIL2
000110: 04,3372           00002                           TC       Q
000111:
000112: 04,3373           00022        ELRCODE            OCT      22
000113:
000114:                                                                                                  #  'UPLINK ACTIVITY LIGHT' IS TURNED OFF BY .....
000115:                                                                                                  #           1.     VBRELDSP
000116:                                                                                                  #           2.     ERROR RESET
000117:                                                                                                  #           3.     UPDATE PROGRAM(P27) ENTERED BY V70,V71,V72,AND V73.
000118:
000119:
000120:                                                                                                  #                                    -
000121:                                                                                                  #  THE RECEPTION OF A BAD CODE(I.E  CCC FAILURE) LOCKS OUT FURTHER UPLINK ACTIVITY BY SETTING BIT4 OF FLAGWRD7 = 1.
000122:                                                                                                  #  THIS INDICATION WILL BE TRANSFERRED TO THE GROUND BY THE DOWNLINK WHICH DOWNLINKS ALL FLAGWORDS.
000123:                                                                                                  #  WHEN UPLINK ACTIVITY IS LOCKED OUT ,IT CAN BE ALLOWED WHEN THE GROUND UPLINKS AND 'ERROR RESET' CODE.
000124:                                                                                                  #  (IT IS RECOMMENDED THAT THE 'ERROR LIGHT RESET' CODE IS PRECEEDED BY 16 BITS THE FIRST OF WHICH IS 1 FOLLOWED
000125:                                                                                                  #  BY 15 ZEROES. THIS WILL ELIMINATE EXTRANEOUS BITS FROM INLINK WHICH MAY HAVE BEEN LEFT OVER FROM THE ORIGINAL
000126:                                                                                                  #  FAILURE)
000127:                                                                                                  #  UPLINK ACTIVITY IS ALSO ALLOWED(UNLOCKED) DURING FRESH START WHEN FRESH START SETS BIT4 OF FLAGWRD7 = 0.

End of include-file KEYRUPT,_UPRUPT.agc.  Parent file is MAIN.agc


