
Source Code


000002:                                                                                                  ## Copyright:   Public domain.
000003:                                                                                                  ## Filename:    LANDING_ANALOG_DISPLAYS.agc
000004:                                                                                                  ## Purpose:     A section of Luminary revision 173.
000005:                                                                                                  ##              It is part of the reconstructed source code for the second
000006:                                                                                                  ##              (unflown) release of the flight software for the Lunar
000007:                                                                                                  ##              Module's (LM) Apollo Guidance Computer (AGC) for Apollo 14.
000008:                                                                                                  ##              The code has been recreated from a reconstructed copy of
000009:                                                                                                  ##              Luminary 178, as well as Luminary memo 167 (revision 1).
000010:                                                                                                  ##              It has been adapted such that the resulting bugger words
000011:                                                                                                  ##              exactly match those specified for Luminary 173 in NASA
000012:                                                                                                  ##              drawing 2021152N, which gives relatively high confidence
000013:                                                                                                  ##              that the reconstruction is correct.
000014:                                                                                                  ## Reference:   pp. 890-898
000015:                                                                                                  ## Assembler:   yaYUL
000016:                                                                                                  ## Contact:     Ron Burkey <info@sandroid.org>.
000017:                                                                                                  ## Website:     www.ibiblio.org/apollo/index.html
000018:                                                                                                  ## Mod history: 2019-09-18 MAS  Created from Luminary 178.
000019:                                                                                                  ##              2019-09-21 MAS  Re-based on Luminary 131. Implemented ACB L-11
000020:                                                                                                  ##                              by moving three checks as shown in the
000021:                                                                                                  ##                              Luminary 173 flowcharts.
000022:                                                                                                  ##              2021-05-30 ABS  LADFWDV -> LATFWDV
000023:


000025: 21,2130                                           BANK     21
000026: 21,2000                                           SETLOC   R10
000027: 21,2000                                           BANK
000028:
000029: 21,2130  E7,1536                                  EBANK=   UNIT/R/
000030: 21,2130                                           COUNT*   $$/R10
000031:
000032: 21,2130           23714        LANDISP            LXCH     PIPCTR1                               #  UPDATE TBASE2 AND PIPCTR SIMULTANEOUSLY.
000033: 21,2131           40025                           CS       TIME1
000034: 21,2132           53055                           DXCH     TBASE2
000035:
000036: 21,2133           40103                           CS       FLAGWRD7                              #  IS LANDING ANALOG DISPLAYS FLAG SET?
000037: 21,2134           74741                           MASK     SWANDBIT
000038: 21,2135           10000                           CCS      A
000039: 21,2136           13035                           TCF      DISPRSET                              #  NO.
000040: 21,2137           31300                           CA       IMODES33                              #  BIT 7 = 0 (DO ALTRATE), =1 (DO ALT.)
000041: 21,2140           74745                           MASK     BIT7
000042: 21,2141           10000                           CCS      A
000043: 21,2142           12214                           TCF      ALTOUT
000044: 21,2143           02300        ALTROUT            TC       DISINDAT                              #  CHECK MODE SELECT SWITCH AND DIDFLG.
000045: 21,2144           41300                           CS       IMODES33
000046: 21,2145           74745                           MASK     BIT7
000047: 21,2146           27300                           ADS      IMODES33                              #  ALTERNATE ALTITUDE RATE WITH ALTITUDE.
000048: 21,2147           34752                           CAF      BIT2                                  #  RATE COMMAND IS EXECUTED BEFORE RANGE.
000049: 21,2150           00006                           EXTEND
000050: 21,2151           05014                           WOR      CHAN14                                #  ALTRATE (BIT2 = 1), ALTITUDE (BIT2 = 0).
000051: 21,2152           31743        ARCOMP             CA       RUNIT                                 #  COMPUTE ALTRATE = RUNIT.VVECT M/CS *2(-6).
000052: 21,2153           00006                           EXTEND
000053: 21,2154           71706                           MP       VVECT                                 #  MULTIPLY X-COMPONENTS.
000054: 21,2155           56070                           XCH      RUPTREG1                              #  SAVE SINGLE PRECISION RESULT M/CS*2(-6).
000055: 21,2156           31744                           CA       RUNIT      +1                         #  MULTIPLY Y-COMPONENTS.
000056: 21,2157           00006                           EXTEND
000057: 21,2160           71707                           MP       VVECT      +1
000058: 21,2161           26070                           ADS      RUPTREG1                              #  ACCUMULATE PARTIAL PRODUCTS.
000059: 21,2162           31745                           CA       RUNIT      +2                         #  MULTIPLY Z-COMPONENTS.
000060: 21,2163           00006                           EXTEND
000061: 21,2164           71710                           MP       VVECT      +2
000062: 21,2165           26070                           ADS      RUPTREG1                              #  ALTITUDE RATE IN M/CS *2(-6).
000063: 21,2166           32000                           CA       ARCONV                                #  CONVERT ALTRATE TO BIT UNITS (.5FPS/BIT)
000064: 21,2167           00006                           EXTEND
000065: 21,2170           70070                           MP       RUPTREG1
000066: 21,2171           20001                           DDOUBL
000067: 21,2172           20001                           DDOUBL
000068: 21,2173           56070                           XCH      RUPTREG1                              #  ALTITUDE RATE IN BIT UNITS*2(-14).
000069: 21,2174           31716                           CA       DALTRATE                              #  ALTITUDE RATE COMPENSATION FACTOR.
000070: 21,2175           00006                           EXTEND
000071: 21,2176           71715                           MP       DT
000072: 21,2177           60070                           AD       RUPTREG1
000073: 21,2200           55711                           TS       ALTRATE                               #  ALTITUDE RATE IN BIT UNITS*2(-14).
000074: 21,2201           41711                           CS       ALTRATE


000076: 21,2202           00006                           EXTEND                                         #  CHECK POLARITY OF ALTITUDE RATE.
000077: 21,2203           62205                           BZMF     +2
000078: 21,2204           12207                           TCF      DATAOUT                               #  NEGATIVE - SEND POS. PULSES TO ALTM REG.
000079: 21,2205           31711                           CA       ALTRATE                               #  POSITIVE OR ZERO - SET SIGN BIT = 1 AND
000080: 21,2206           64735                           AD       BIT15                                 #  SEND TO ALTM REGISTER.  *DO NOT SEND +0*
000081: 21,2207           54060        DATAOUT            TS       ALTM                                  #  ACTIVATE THE LANDING ANALOG DISPLAYS - -
000082: 21,2210           34751                           CAF      BIT3
000083: 21,2211           00006                           EXTEND
000084: 21,2212           05014                           WOR      CHAN14                                #  BIT3 DRIVES THE ALT/ALTRATE METER.
000085: 21,2213           15272                           TCF      TASKOVER                              #  EXIT
000086:
000087: 21,2214           02300        ALTOUT             TC       DISINDAT                              #  CHECK MODE SELECT SWITCH AND DIDFLG.
000088: 21,2215           44745                           CS       BIT7
000089: 21,2216           71300                           MASK     IMODES33
000090: 21,2217           55300                           TS       IMODES33                              #  ALTERNATE ALTITUDE RATE WITH ALTITUDE.
000091: 21,2220           44752                           CS       BIT2
000092: 21,2221           00006                           EXTEND
000093: 21,2222           03014                           WAND     CHAN14
000094: 21,2223           11741                           CCS      ALTBITS                               #  = -1 IF OLD ALT. DATA TO BE EXTRAPOLATED.
000095: 21,2224           12230                           TCF      +4
000096: 21,2225           12230                           TCF      +3
000097: 21,2226           12246                           TCF      OLDDATA
000098: 21,2227           55741                           TS       ALTBITS                               #  SET ALTBITS FROM -0 TO +0.
000099: 21,2230           44753                           CS       ONE
000100: 21,2231           53742                           DXCH     ALTBITS                               #  SET ALTBITS = -1 FOR SWITCH USE NEXT PASS.
000101: 21,2232           53713                           DXCH     ALTSAVE
000102: 21,2233           34742                           CA       BIT10                                 #  NEW ALTITUDE EXTRAPOLATION WITH ALTRATE.
000103: 21,2234           56002                           XCH      Q
000104: 21,2235           22007                           LXCH     7                                     #  ZL
000105: 21,2236           31715                           CA       DT
000106: 21,2237           00006                           EXTEND
000107: 21,2240           10002                           DV       Q                                     #  RESCALE DT*2(-14) TO *2(-9) TIME IN CS.
000108: 21,2241           00006                           EXTEND
000109: 21,2242           72002                           MP       ARTOA2                                #  .0021322 *2(+8)
000110: 21,2243           12247                           TCF      OLDDATA    +1                         #  RATE APPLIES FOR DT CS.
000111:
000112: 21,2244           53713        ZDATA2             DXCH     ALTSAVE
000113: 21,2245           12267                           TCF      NEWDATA
000114: 21,2246           32001        OLDDATA            CA       ARTOA                                 #  RATE APPLIES FOR .5 SEC. (4X/SEC. CYCLE)
000115: 21,2247           00006                           EXTEND
000116: 21,2250           71711                           MP       ALTRATE                               #  EXTRAPOLATE WITH ALTITUDE RATE.
000117: 21,2251           20001                           DDOUBL
000118: 21,2252           61713                           AD       ALTSAVE    +1
000119: 21,2253           55713                           TS       ALTSAVE    +1
000120: 21,2254           34755                           CAF      ZERO
000121: 21,2255           27712                           ADS      ALTSAVE
000122: 21,2256           34733                           CAF      POSMAX                                #  FORCE SIGN AGREEMENT ASSUMING A
000123: 21,2257           64753                           AD       ONE                                   #  NON-NEGATIVE ALTSAVE.
000124: 21,2260           61713                           AD       ALTSAVE    +1                         #  IF ALTSAVE IS NEGATIVE, ZERO ALTSAVE
000125: 21,2261           55713                           TS       ALTSAVE    +1                         #  AND ALTSAVE +1 AT ZERODATA.


000127: 21,2262           34755                           CAF      ZERO
000128: 21,2263           64733                           AD       POSMAX
000129: 21,2264           61712                           AD       ALTSAVE
000130: 21,2265           55712                           TS       ALTSAVE                               #  POSSIBLY SKIP TO NEWDATA.
000131: 21,2266           13032                           TCF      ZERODATA
000132: 21,2267           11713        NEWDATA            CCS      ALTSAVE    +1
000133: 21,2270           12274                           TCF      +4
000134: 21,2271           12274                           TCF      +3
000135: 21,2272           34755                           CAF      ZERO                                  #  SET NEGATIVE ALTSAVE +1 TO +0.
000136: 21,2273           55713                           TS       ALTSAVE    +1
000137: 21,2274           11712                           CCS      ALTSAVE                               #  PROVIDE A 15 BIT UNSIGNED OUTPUT.
000138: 21,2275           34735                           CAF      BIT15                                 #  THE HI-ORDER PART IS +1 OR +0.
000139: 21,2276           61713                           AD       ALTSAVE    +1
000140: 21,2277           12207                           TCF      DATAOUT                               #  DISPATCH UNSIGNED BITS TO ALTM REG.
000141: 21,2300           00006        DISINDAT           EXTEND
000142: 21,2301           23714                           QXCH     LADQSAVE                              #  SAVE RETURN TO ALTROUT +1 OR ALTOUT +1
000143: 21,2302           40075                           CS       FLAGWRD1                              #  YES.  CHECK STATUS OF DIDFLAG.
000144: 21,2303           74736                           MASK     DIDFLBIT
000145: 21,2304           00006                           EXTEND
000146: 21,2305           12343                           BZF      SPEEDRUN                              #  SET.  PERFORM DATA DISPLAY SEQUENCE.
000147: 21,2306           40075                           CS       FLAGWRD1                              #  RESET.  PERFORM INITIALIZATION FUNCTIONS.
000148: 21,2307           74736                           MASK     DIDFLBIT
000149: 21,2310           26075                           ADS      FLAGWRD1                              #  SET DIDFLAG.
000150: 21,2311           44745                           CS       BIT7
000151: 21,2312           71300                           MASK     IMODES33                              #  TO DISPLAY ALTRATE FIRST AND ALT. SECOND
000152: 21,2313           55300                           TS       IMODES33
000153: 21,2314           40074                           CS       FLAGWRD0                              #  ARE WE IN DESCENT TRAJECTORY?
000154: 21,2315           74752                           MASK     R10FLBIT
000155: 21,2316           00006                           EXTEND
000156: 21,2317           15272                           BZF      TASKOVER                              #  NO
000157: 21,2320           34744                           CAF      BIT8                                  #  YES.
000158: 21,2321           00006                           EXTEND
000159: 21,2322           05012                           WOR      CHAN12                                #  SET DISPLAY INERTIAL DATA OUTBIT.
000160: 21,2323           34755                           CAF      ZERO
000161: 21,2324           55702                           TS       TRAKLATV                              #  LATERAL VELOCITY MONITOR FLAG
000162: 21,2325           55703                           TS       TRAKFWDV                              #  FORWARD VELOCITY MONITOR FLAG
000163: 21,2326           55676                           TS       LATVMETR                              #  LATVEL MONITOR METER
000164: 21,2327           55677                           TS       FORVMETR                              #  FORVEL MONITOR METER
000165: 21,2330           34750                           CAF      BIT4
000166: 21,2331           05204                           TC       TWIDDLE
000167: 21,2332           02334                           ADRES    INTLZE
000168: 21,2333           15272                           TCF      TASKOVER
000169: 21,2334           34752        INTLZE             CAF      BIT2
000170: 21,2335           00006                           EXTEND
000171: 21,2336           05012                           WOR      CHAN12                                #  ENABLE RR ERROR COUNTER.


000173: 21,2337           41300                           CS       IMODES33
000174: 21,2340           74744                           MASK     BIT8
000175: 21,2341           27300                           ADS      IMODES33                              #  SET INERTIAL DATA FLAG.
000176: 21,2342           15272                           TCF      TASKOVER
000177:
000178: 21,2343           41234        SPEEDRUN           CS       PIPTIME    +1                         #  UPDATE THE VELOCITY VECTOR
000179: 21,2344           60025                           AD       TIME1                                 #  COMPUTE T - TN
000180: 21,2345           64736                           AD       HALF                                  #  CORRECT FOR POSSIBLE OVERFLOW OF TIME1.
000181: 21,2346           64736                           AD       HALF
000182: 21,2347           57715                           XCH      DT                                    #  SAVE FOR LATER USE
000183: 21,2350           34777                           CA       1SEC
000184: 21,2351           54065                           TS       ITEMP5                                #  INITIALIZE FOR DIVISION LATER
000185: 21,2352           00006                           EXTEND
000186: 21,2353           31236                           DCA      GDT/2                                 #  COMPUTE THE X-COMPONENT OF VELOCITY.
000187: 21,2354           20001                           DDOUBL
000188: 21,2355           20001                           DDOUBL
000189: 21,2356           00006                           EXTEND
000190: 21,2357           71715                           MP       DT
000191: 21,2360           00006                           EXTEND
000192: 21,2361           10065                           DV       ITEMP5
000193: 21,2362           57706                           XCH      VVECT                                 #  VVECT = G(T-TN) M/CS *2(-5)
000194: 21,2363           00006                           EXTEND
000195: 21,2364           31527                           DCA      V                                     #  M/CS *2(-7)
000196: 21,2365           20001                           DDOUBL                                         #  RESCALE TO 2(-5)
000197: 21,2366           20001                           DDOUBL
000198: 21,2367           27706                           ADS      VVECT                                 #  VVECT = VN + G(T-TN) M/CS *2(-5)
000199: 21,2370           30037                           CA       PIPAX                                 #  DELV CM/SEC *2(-14)
000200: 21,2371           61157                           AD       PIPATMPX                              #  IN CASE PIPAX HAS BEEN ZEROED
000201: 21,2372           00006                           EXTEND
000202: 21,2373           72004                           MP       KPIP1(5)                              #  DELV M/CS *2(-5)
000203: 21,2374           27706                           ADS      VVECT                                 #  VVECT = VN + DELV + GN(T-TN) M/CS *2(-5)
000204: 21,2375           00006                           EXTEND
000205: 21,2376           31240                           DCA      GDT/2      +2                         #  COMPUTE THE Y-COMPONENT OF VELOCITY.
000206: 21,2377           20001                           DDOUBL
000207: 21,2400           20001                           DDOUBL
000208: 21,2401           00006                           EXTEND
000209: 21,2402           71715                           MP       DT
000210: 21,2403           00006                           EXTEND
000211: 21,2404           10065                           DV       ITEMP5
000212: 21,2405           57707                           XCH      VVECT      +1
000213: 21,2406           00006                           EXTEND
000214: 21,2407           31531                           DCA      V          +2
000215: 21,2410           20001                           DDOUBL
000216: 21,2411           20001                           DDOUBL
000217: 21,2412           27707                           ADS      VVECT      +1
000218: 21,2413           30040                           CA       PIPAY
000219: 21,2414           61160                           AD       PIPATMPY
000220: 21,2415           00006                           EXTEND
000221: 21,2416           72004                           MP       KPIP1(5)
000222: 21,2417           27707                           ADS      VVECT      +1


000224: 21,2420           00006                           EXTEND
000225: 21,2421           31242                           DCA      GDT/2      +4                         #  COMPUTE THE Z-COMPONENT OF VELOCITY.
000226: 21,2422           20001                           DDOUBL
000227: 21,2423           20001                           DDOUBL
000228: 21,2424           00006                           EXTEND
000229: 21,2425           71715                           MP       DT
000230: 21,2426           00006                           EXTEND
000231: 21,2427           10065                           DV       ITEMP5
000232: 21,2430           57710                           XCH      VVECT      +2
000233: 21,2431           00006                           EXTEND
000234: 21,2432           31533                           DCA      V          +4
000235: 21,2433           20001                           DDOUBL
000236: 21,2434           20001                           DDOUBL
000237: 21,2435           27710                           ADS      VVECT      +2
000238: 21,2436           30041                           CA       PIPAZ
000239: 21,2437           61161                           AD       PIPATMPZ
000240: 21,2440           00006                           EXTEND
000241: 21,2441           72004                           MP       KPIP1(5)
000242: 21,2442           27710                           ADS      VVECT      +2
000243:
000244: 21,2443           34751                           CAF      BIT3                                  #  PAUSE 40 MS TO LET OTHER RUPTS IN.
000245: 21,2444           05235                           TC       VARDELAY
000246:
000247: 21,2445           31733                           CA       DELVS                                 #  HI X OF VELOCITY CORRECTION TERM.
000248: 21,2446           61706                           AD       VVECT                                 #  HI X OF UPDATED VELOCITY VECTOR.
000249: 21,2447           54061                           TS       ITEMP1                                #  = VX - DVX M/CS *2(-5).
000250: 21,2450           31735                           CA       DELVS      +2                         #     Y
000251: 21,2451           61707                           AD       VVECT      +1                         #     Y
000252: 21,2452           54062                           TS       ITEMP2                                #  = VY - DVY M/CS *2(-5).
000253: 21,2453           31737                           CA       DELVS      +4                         #     Z
000254: 21,2454           61710                           AD       VVECT      +2                         #     Z
000255: 21,2455           54063                           TS       ITEMP3                                #  = VZ - DVZ M/CS *2(-5).
000256: 21,2456           30061                           CA       ITEMP1                                #  COMPUTE VHY, VELOCITY DIRECTED ALONG THE
000257: 21,2457           00006                           EXTEND                                         #  Y-COORDINATE.
000258: 21,2460           71717                           MP       UHYP                                  #  HI X OF CROSS-RANGE HALF-UNIT VECTOR.
000259: 21,2461           56070                           XCH      RUPTREG1
000260: 21,2462           30062                           CA       ITEMP2


000262: 21,2463           00006                           EXTEND
000263: 21,2464           71721                           MP       UHYP       +2                         #  Y
000264: 21,2465           26070                           ADS      RUPTREG1                              #  ACCUMULATE PARTIAL PRODUCTS.
000265: 21,2466           30063                           CA       ITEMP3
000266: 21,2467           00006                           EXTEND
000267: 21,2470           71723                           MP       UHYP       +4                         #  Z
000268: 21,2471           26070                           ADS      RUPTREG1
000269: 21,2472           30070                           CA       RUPTREG1
000270: 21,2473           60000                           DOUBLE
000271: 21,2474           57704                           XCH      VHY                                   #  VHY=VMP.UHYP M/CS*2(-5).
000272: 21,2475           30061                           CA       ITEMP1                                #  NOW COMPUTE VHZ, VELOCITY DIRECTED ALONG
000273: 21,2476           00006                           EXTEND                                         #  THE Z-COORDINATE.
000274: 21,2477           71725                           MP       UHZP                                  #  HI X OF DOWN-RANGE HALF-UNIT VECTOR.
000275: 21,2500           56070                           XCH      RUPTREG1
000276: 21,2501           30062                           CA       ITEMP2
000277: 21,2502           00006                           EXTEND
000278: 21,2503           71727                           MP       UHZP       +2                         #  Y
000279: 21,2504           26070                           ADS      RUPTREG1                              #  ACCUMULATE PARTIAL PRODUCTS.
000280: 21,2505           30063                           CA       ITEMP3
000281: 21,2506           00006                           EXTEND
000282: 21,2507           71731                           MP       UHZP       +4                         #  Z
000283: 21,2510           26070                           ADS      RUPTREG1
000284: 21,2511           30070                           CA       RUPTREG1
000285: 21,2512           60000                           DOUBLE
000286: 21,2513           57705                           XCH      VHZ                                   #  VHZ = VMP.UHZP M/CS*2(-5).
000287: 21,2514           35015        GET22/32           CAF      EBANK6                                #  GET SIN(AOG),COS(AOG) FROM GPMATRIX.
000288: 21,2515           54003                           TS       EBANK
000289: 21,2516  E6,1417                                  EBANK=   M22
000290: 21,2516           31417                           CA       M22
000291: 21,2517           54063                           TS       ITEMP3
000292: 21,2520           31420                           CA       M32
000293: 21,2521           54064                           TS       ITEMP4
000294: 21,2522           35016                           CAF      EBANK7
000295: 21,2523           54003                           TS       EBANK
000296: 21,2524  E7,1536                                  EBANK=   UNIT/R/
000297: 21,2524           30064        LATFWDV            CA       ITEMP4                                #  COMPUTE LATERAL AND FORWARD VELOCITIES.
000298: 21,2525           00006                           EXTEND
000299: 21,2526           71704                           MP       VHY
000300: 21,2527           56070                           XCH      RUPTREG1
000301: 21,2530           30063                           CA       ITEMP3
000302: 21,2531           00006                           EXTEND
000303: 21,2532           71705                           MP       VHZ
000304: 21,2533           26070                           ADS      RUPTREG1                              #  = VHY(COS)AOG+VHZ(SIN)AOG M/CS *2(-5)
000305: 21,2534           32003                           CA       VELCONV                               #  CONVERT LATERAL VELOCITY TO BIT UNITS.
000306: 21,2535           00006                           EXTEND
000307: 21,2536           70070                           MP       RUPTREG1
000308: 21,2537           20001                           DDOUBL
000309: 21,2540           57700                           XCH      LATVEL                                #  LATERAL VELOCITY IN BIT UNITS *2(-14).
000310: 21,2541           30064                           CA       ITEMP4                                #  COMPUTE FORWARD VELOCITY.
000311: 21,2542           00006                           EXTEND


000313: 21,2543           71705                           MP       VHZ
000314: 21,2544           56070                           XCH      RUPTREG1
000315: 21,2545           30063                           CA       ITEMP3
000316: 21,2546           00006                           EXTEND
000317: 21,2547           71704                           MP       VHY
000318: 21,2550           40000                           CS       A
000319: 21,2551           26070                           ADS      RUPTREG1                              #  =VHZ(COS)AOG-VHY(SIN)AOG M/CS *2(-5).
000320: 21,2552           32003                           CA       VELCONV                               #  CONVERT FORWARD VELOCITY TO BIT UNITS.
000321: 21,2553           00006                           EXTEND
000322: 21,2554           70070                           MP       RUPTREG1
000323: 21,2555           20001                           DDOUBL
000324: 21,2556           57701                           XCH      FORVEL                                #  FORWARD VELOCITY IN BIT UNITS *2(-14).
000325:
000326: 21,2557           34746                           CAF      BIT6
000327: 21,2560           00006                           EXTEND                                         #  WISHETH THE ASTRONAUT THE ANALOG
000328: 21,2561           02030                           RAND     CHAN30                                #  DISPLAYS?  I.E.,
000329: 21,2562           10000                           CCS      A                                     #  IS THE MODE SELECT SWITCH IN PGNCS?
000330: 21,2563           13035                           TCF      DISPRSET                              #  NO.  ASTRONAUT REQUESTS NO INERTIAL DATA
000331:
000332: 21,2564           40074                           CS       FLAGWRD0                              #  ARE WE IN DESCENT TRAJECTORY?
000333: 21,2565           74752                           MASK     R10FLBIT
000334: 21,2566           10000                           CCS      A
000335: 21,2567           12571                           TCF      +2                                    #  YES.
000336: 21,2570           01714                           TC       LADQSAVE                              #  NO.
000337:
000338: 21,2571           42005                           CS       MAXVBITS                              #  ACC.=-199.9989 FT./SEC.
000339: 21,2572           54066                           TS       ITEMP6                                #  -547 BIT UNITS (OCTAL) AT 0.5571 FPS/BIT
000340:
000341: 21,2573           34753                           CAF      ONE                                   #  LOOP TWICE.
000342: 21,2574           54065        VMONITOR           TS       ITEMP5                                #  FORWARD AND LATERAL VELOCITY LANDING
000343: 21,2575           50065                           INDEX    ITEMP5                                #        ANALOG DISPLAYS MONITOR.
000344: 21,2576           11700                           CCS      LATVEL
000345: 21,2577           12603                           TCF      +4
000346: 21,2600           12704                           TCF      LVLIMITS
000347: 21,2601           12611                           TCF      +8D
000348: 21,2602           12704                           TCF      LVLIMITS
000349: 21,2603           50065                           INDEX    ITEMP5
000350: 21,2604           41700                           CS       LATVEL
000351: 21,2605           62005                           AD       MAXVBITS                              #  +199.9989 FT./SEC.
000352: 21,2606           00006                           EXTEND
000353: 21,2607           62617                           BZMF     CHKLASTY
000354: 21,2610           12704                           TCF      LVLIMITS
000355: 21,2611           50065                           INDEX    ITEMP5
000356: 21,2612           31700                           CA       LATVEL
000357: 21,2613           62005                           AD       MAXVBITS
000358: 21,2614           00006                           EXTEND
000359: 21,2615           62617                           BZMF     +2
000360: 21,2616           12704                           TCF      LVLIMITS
000361: 21,2617           50065        CHKLASTY           INDEX    ITEMP5
000362: 21,2620           11676                           CCS      LATVMETR
000363: 21,2621           12625                           TCF      +4
000364: 21,2622           12636                           TCF      LASTOK
000365: 21,2623           12632                           TCF      +7
000366: 21,2624           12636                           TCF      LASTOK
000367: 21,2625           50065                           INDEX    ITEMP5
000368: 21,2626           31700                           CA       LATVEL
000369: 21,2627           00006                           EXTEND
000370: 21,2630           62655                           BZMF     LASTPOSY   +5
000371: 21,2631           12636                           TCF      +5
000372: 21,2632           50065                           INDEX    ITEMP5
000373: 21,2633           41700                           CS       LATVEL
000374: 21,2634           00006                           EXTEND


000376: 21,2635           62672                           BZMF     LASTNEGY   +4
000377: 21,2636           50065        LASTOK             INDEX    ITEMP5
000378: 21,2637           11702                           CCS      TRAKLATV
000379: 21,2640           12650                           TCF      LASTPOSY
000380: 21,2641           12643                           TCF      +2
000381: 21,2642           12666                           TCF      LASTNEGY
000382: 21,2643           50065                           INDEX    ITEMP5
000383: 21,2644           31700                           CA       LATVEL
000384: 21,2645           00006                           EXTEND
000385: 21,2646           62674                           BZMF     NEGVMAXY
000386: 21,2647           12657                           TCF      POSVMAXY
000387: 21,2650           50065        LASTPOSY           INDEX    ITEMP5
000388: 21,2651           31700                           CA       LATVEL
000389: 21,2652           00006                           EXTEND
000390: 21,2653           62655                           BZMF     +2
000391: 21,2654           12657                           TCF      POSVMAXY
000392: 21,2655           42005                           CS       MAXVBITS
000393: 21,2656           13000                           TCF      ZEROLSTY
000394: 21,2657           50065        POSVMAXY           INDEX    ITEMP5
000395: 21,2660           41676                           CS       LATVMETR
000396: 21,2661           62005                           AD       MAXVBITS
000397: 21,2662           50065                           INDEX    ITEMP5
000398: 21,2663           56072                           XCH      RUPTREG3
000399: 21,2664           34753                           CAF      ONE
000400: 21,2665           13003                           TCF      ZEROLSTY   +3
000401: 21,2666           50065        LASTNEGY           INDEX    ITEMP5
000402: 21,2667           31700                           CA       LATVEL
000403: 21,2670           00006                           EXTEND
000404: 21,2671           62674                           BZMF     NEGVMAXY
000405: 21,2672           32005                           CA       MAXVBITS
000406: 21,2673           13000                           TCF      ZEROLSTY
000407: 21,2674           50065        NEGVMAXY           INDEX    ITEMP5
000408: 21,2675           31676                           CA       LATVMETR
000409: 21,2676           62005                           AD       MAXVBITS
000410: 21,2677           40000                           COM
000411: 21,2700           50065                           INDEX    ITEMP5
000412: 21,2701           56072                           XCH      RUPTREG3
000413: 21,2702           44753                           CS       ONE
000414: 21,2703           13003                           TCF      ZEROLSTY   +3
000415: 21,2704           50065        LVLIMITS           INDEX    ITEMP5
000416: 21,2705           11702                           CCS      TRAKLATV
000417: 21,2706           12735                           TCF      LATVPOS
000418: 21,2707           12711                           TCF      +2
000419: 21,2710           12742                           TCF      LATVNEG
000420: 21,2711           50065                           INDEX    ITEMP5
000421: 21,2712           41676                           CS       LATVMETR
000422: 21,2713           00006                           EXTEND
000423: 21,2714           62716                           BZMF     +2
000424: 21,2715           12751                           TCF      NEGLMLV
000425: 21,2716           50065                           INDEX    ITEMP5


000427: 21,2717           41700                           CS       LATVEL
000428: 21,2720           00006                           EXTEND
000429: 21,2721           62774                           BZMF     LVMINLM
000430: 21,2722           60066                           AD       ITEMP6
000431: 21,2723           50065                           INDEX    ITEMP5
000432: 21,2724           61676                           AD       LATVMETR
000433: 21,2725           00006                           EXTEND
000434: 21,2726           62774                           BZMF     LVMINLM
000435: 21,2727           50065                           INDEX    ITEMP5
000436: 21,2730           61700                           AD       LATVEL
000437: 21,2731           00006                           EXTEND
000438: 21,2732           50065                           INDEX    ITEMP5
000439: 21,2733           61676                           SU       LATVMETR
000440: 21,2734           13000                           TCF      ZEROLSTY
000441: 21,2735           50065        LATVPOS            INDEX    ITEMP5
000442: 21,2736           41700                           CS       LATVEL
000443: 21,2737           00006                           EXTEND
000444: 21,2740           62774                           BZMF     LVMINLM
000445: 21,2741           12746                           TCF      +5
000446: 21,2742           50065        LATVNEG            INDEX    ITEMP5
000447: 21,2743           31700                           CA       LATVEL
000448: 21,2744           00006                           EXTEND
000449: 21,2745           62774                           BZMF     LVMINLM
000450: 21,2746           50065                           INDEX    ITEMP5
000451: 21,2747           41676                           CS       LATVMETR
000452: 21,2750           13000                           TCF      ZEROLSTY
000453: 21,2751           50065        NEGLMLV            INDEX    ITEMP5
000454: 21,2752           31700                           CA       LATVEL
000455: 21,2753           00006                           EXTEND
000456: 21,2754           62774                           BZMF     LVMINLM
000457: 21,2755           32005                           CA       MAXVBITS
000458: 21,2756           50065                           INDEX    ITEMP5
000459: 21,2757           61676                           AD       LATVMETR
000460: 21,2760           40000                           COM
000461: 21,2761           50065                           INDEX    ITEMP5
000462: 21,2762           61700                           AD       LATVEL
000463: 21,2763           00006                           EXTEND
000464: 21,2764           62774                           BZMF     LVMINLM
000465: 21,2765           00006                           EXTEND
000466: 21,2766           50065                           INDEX    ITEMP5
000467: 21,2767           61700                           SU       LATVEL
000468: 21,2770           50065                           INDEX    ITEMP5
000469: 21,2771           61676                           AD       LATVMETR
000470: 21,2772           40000                           COM
000471: 21,2773           13000                           TCF      ZEROLSTY
000472: 21,2774           50065        LVMINLM            INDEX    ITEMP5
000473: 21,2775           41676                           CS       LATVMETR
000474: 21,2776           50065                           INDEX    ITEMP5
000475: 21,2777           61700                           AD       LATVEL
000476: 21,3000           50065        ZEROLSTY           INDEX    ITEMP5


000478: 21,3001           56072                           XCH      RUPTREG3
000479: 21,3002           34755                           CAF      ZERO
000480: 21,3003           50065                           INDEX    ITEMP5
000481: 21,3004           55702                           TS       TRAKLATV
000482: 21,3005           50065                           INDEX    ITEMP5
000483: 21,3006           30072                           CA       RUPTREG3
000484: 21,3007           64754                           AD       NEG0                                  #  AVOIDS +0 DINC HARDWARE MALFUNCTION
000485: 21,3010           50065                           INDEX    ITEMP5
000486: 21,3011           54053                           TS       CDUTCMD
000487: 21,3012           50065                           INDEX    ITEMP5
000488: 21,3013           30072                           CA       RUPTREG3
000489: 21,3014           50065                           INDEX    ITEMP5
000490: 21,3015           27676                           ADS      LATVMETR
000491: 21,3016           10065                           CCS      ITEMP5                                #  FIRST MONITOR FORWARD THEN LATERAL VEL.
000492: 21,3017           12574                           TCF      VMONITOR
000493:
000494: 21,3020           34752                           CAF      BIT2                                  #  CHECK TO SEE IF RR ERROR COUNTERS
000495: 21,3021           00006                           EXTEND                                         #  ARE ENABLED.
000496: 21,3022           02012                           RAND     CHAN12
000497: 21,3023           10000                           CCS      A                                     #  IF NOT.
000498: 21,3024           13026                           TCF      +2
000499: 21,3025           13035                           TCF      DISPRSET                              #  RE-INITIALIZE LANDING ANALOG DISPLAYS
000500:
000501: 21,3026           35020                           CAF      BITSET                                #  DRIVE THE X-POINTER DISPLAY.
000502: 21,3027           00006                           EXTEND
000503: 21,3030           05014                           WOR      CHAN14
000504: 21,3031           01714                           TC       LADQSAVE                              #  GO TO ALTROUT +1 OR TO ALTOUT +1
000505: 21,3032           34755        ZERODATA           CAF      ZERO                                  #  ZERO ALTSAVE AND ALTSAVE +1 - - -
000506: 21,3033           54001                           TS       L                                     #        NO NEGATIVE ALTITUDES ALLOWED.
000507: 21,3034           12244                           TCF      ZDATA2
000508:
000509:                                                                                                  #  ************************************************************************
000510:
000511: 21,3035           40074        DISPRSET           CS       FLAGWRD0                              #  ARE WE IN DESCENT TRAJECTORY?
000512: 21,3036           74752                           MASK     R10FLBIT
000513: 21,3037           00006                           EXTEND
000514: 21,3040           13051                           BZF      ABORTON                               #  NO.
000515: 21,3041           34744                           CAF      BIT8                                  #  YES.
000516: 21,3042           71300                           MASK     IMODES33                              #  CHECK IF INERTIAL DATA JUST DISPLAYED.
000517: 21,3043           10000                           CCS      A
000518: 21,3044           34752                           CAF      BIT2                                  #  YES. DISABLE RR ERROR COUNTER
000519: 21,3045           64744                           AD       BIT8                                  #  NO.  REMOVE DISPLAY INERTIAL DATA
000520: 21,3046           40000                           COM
000521: 21,3047           00006                           EXTEND
000522: 21,3050           03012                           WAND     CHAN12
000523: 21,3051           43060        ABORTON            CS       BITS8/7                               #  RESET INERTIAL DATA, INTERLEAVE FLAGS.
000524: 21,3052           71300                           MASK     IMODES33
000525: 21,3053           55300                           TS       IMODES33
000526: 21,3054           44736                           CS       DIDFLBIT
000527: 21,3055           70075                           MASK     FLAGWRD1
000528: 21,3056           54075                           TS       FLAGWRD1                              #  RESET DIDFLAG.
000529: 21,3057           15272                           TCF      TASKOVER
000530:
000531:                                                                                                  #  ************************************************************************
000532:
000533: 21,3060           00300        BITS8/7            OCT      00300                                 #  INERTIAL DATA AND INTERLEAVE FLAGS.
000534: 21,3061     5020               BITSET             =        PRIO6
000535:
000536:                                                                                                  #  ************************************************************************
000537:


000540:

End of include-file LANDING_ANALOG_DISPLAYS.agc.  Parent file is MAIN.agc


