
Source Code


000002:                                                                                                  ## Copyright:   Public domain.
000003:                                                                                                  ## Filename:    LUNAR_LANDING_GUIDANCE_EQUATIONS.agc
000004:                                                                                                  ## Purpose:     A section of Luminary revision 173.
000005:                                                                                                  ##              It is part of the reconstructed source code for the second
000006:                                                                                                  ##              (unflown) release of the flight software for the Lunar
000007:                                                                                                  ##              Module's (LM) Apollo Guidance Computer (AGC) for Apollo 14.
000008:                                                                                                  ##              The code has been recreated from a reconstructed copy of
000009:                                                                                                  ##              Luminary 178, as well as Luminary memo 167 (revision 1).
000010:                                                                                                  ##              It has been adapted such that the resulting bugger words
000011:                                                                                                  ##              exactly match those specified for Luminary 173 in NASA
000012:                                                                                                  ##              drawing 2021152N, which gives relatively high confidence
000013:                                                                                                  ##              that the reconstruction is correct.
000014:                                                                                                  ## Reference:   pp. 784-821
000015:                                                                                                  ## Assembler:   yaYUL
000016:                                                                                                  ## Contact:     Ron Burkey <info@sandroid.org>.
000017:                                                                                                  ## Website:     www.ibiblio.org/apollo/index.html
000018:                                                                                                  ## Mod history: 2019-09-18 MAS  Created from Luminary 178.
000019:                                                                                                  ##              2019-09-21 MAS  Added calculation of VBIAS back to STRTP66A.
000020:                                                                                                  ##                              Moved the setting of RODFLAG into interpretive
000021:                                                                                                  ##                              alongside VBIAS calculation. Also added back
000022:                                                                                                  ##                              the definition of BIASFACT.
000023:


000025: 31,2366  E7,1621                                  EBANK=   E2DPS
000026:
000027: 31,2366                                           COUNT*   $$/F2DPS
000028:
000029:                                                                                                  #  ****************************************************************************************************************
000030:                                                                                                  #  LUNAR LANDING FLIGHT SEQUENCE TABLES
000031:                                                                                                  #  ****************************************************************************************************************
000032:
000033:                                                                                                  #  FLIGHT SEQUENCE TABLES ARE ARRANGED BY FUNCTION.   THEY ARE REFERENCED USING AS AN INDEX THE REGISTER WCHPHASE:
000034:
000035:                                                                                                  #                                                      WCHPHASE  =  -1  --->  IGNALG
000036:                                                                                                  #                                                      WCHPHASE  =   0  --->  BRAKQUAD
000037:                                                                                                  #                                                      WCHPHASE  =   1  --->  APPRQUAD
000038:                                                                                                  #                                                      WCHPHASE  =   2  --->  VERTICAL
000039:
000040:                                                                                                  #  ***************************************************************************************************************
000041:
000042:                                                                                                  #  ROUTINES FOR STARTING NEW GUIDANCE PHASES:
000043:
000044: 31,2366           12577                           TCF      TTFINCR                               #  IGNALG
000045: 31,2367           12577        NEWPHASE           TCF      TTFINCR                               #  BRAKQUAD
000046: 31,2370           12560                           TCF      STARTP64                              #  APPRQUAD
000047: 31,2371           12452                           TCF      STARTP66                              #  VERTICAL
000048:
000049:
000050:                                                                                                  #  PRE-GUIDANCE COMPUTATIONS:
000051:
000052: 31,2372           12757                           TCF      CALCRGVG                              #  IGNALG
000053: 31,2373           12767        PREGUIDE           TCF      RGVGCALC                              #  BRAKQUAD
000054: 31,2374           12660                           TCF      REDESIG                               #  APPRQUAD
000055:
000056:
000057:                                                                                                  #  GUIDANCE EQUATIONS:
000058:
000059: 31,2375           13032                           TCF      TTF/8CL                               #  IGNALG
000060: 31,2376           13032        WHATGUID           TCF      TTF/8CL                               #  BRAKQUAD
000061: 31,2377           13032                           TCF      TTF/8CL                               #  APPRQUAD
000062:
000063:
000064:                                                                                                  #  POST GUIDANCE EQUATION COMPUTATIONS:
000065:
000066: 31,2400           13235                           TCF      CGCALC                                #  IGNALG
000067: 31,2401           13222        AFTRGUID           TCF      EXTLOGIC                              #  BRAKQUAD
000068: 31,2402           13222                           TCF      EXTLOGIC                              #  APPRQUAD
000069:


000071:                                                                                                  #  WINDOW VECTOR COMPUTATIONS:
000072:
000073: 31,2403           13305                           TCF      EXGSUB                                #  IGNALG
000074: 31,2404           13326        WHATEXIT           TCF      EXBRAK                                #  BRAKQUAD
000075: 31,2405           13334                           TCF      EXNORM                                #  APPRQUAD
000076:
000077:
000078:                                                                                                  #  DISPLAY ROUTINES:
000079:
000080: 31,2406           13445        WHATDISP           TCF      P63DISPS                              #  BRAKQUAD
000081: 31,2407           13451                           TCF      P64DISPS                              #  APPRQUAD
000082: 31,2410           13502                           TCF      VERTDISP                              #  VERTICAL
000083:
000084:
000085:                                                                                                  #  ALARM ROUTINE FOR TTF COMPUTATION:
000086:
000087: 31,2411           13731                           TCF      1406POO                               #  IGNALG
000088: 31,2412           13733        WHATALM            TCF      1406ALM                               #  BRAKQUAD
000089: 31,2413           13733                           TCF      1406ALM                               #  APPRQUAD
000090:
000091:
000092:                                                                                                  #  INDICES FOR REFERENCING TARGET PARAMETERS:
000093:
000094: 31,2414           00000                           OCT      0                                     #  IGNALG
000095: 31,2415           00000        TARGTDEX           OCT      0                                     #  BRAKQUAD
000096: 31,2416           00002                           OCT      2                                     #  APPRQUAD
000097:


000099:
000100:                                                                                                  #  ****************************************************************************************************************
000101:                                                                                                  #  ENTRY POINTS:  ?GUIDSUB FOR THE IGNITION ALGORITHM, LUNLAND FOR SERVOUT
000102:                                                                                                  #  ****************************************************************************************************************
000103:
000104:                                                                                                  #  IGNITION ALGORITHM ENTRY:  DELIVERS N PASSES OF QUADRATIC QUIDANCE
000105:
000106: 31,2417           77776        ?GUIDSUB           EXIT
000107: 31,2420           34752                           CAF      TWO                                   #  N = 3
000108: 31,2421           55647                           TS       NGUIDSUB
000109: 31,2422           12542                           TCF      GUILDRET   +2
000110:
000111: 31,2423           55647        GUIDSUB            TS       NGUIDSUB                              #  ON SUCEEDING PASSES SKIP TTFINCR
000112: 31,2424           12757                           TCF      CALCRGVG
000113:
000114:                                                                                                  #  NORMAL ENTRY:  CONTROL COMES HERE FROM SERVOUT
000115:
000116: 31,2425           05364        LUNLAND            TC       PHASCHNG
000117: 31,2426           00035                           OCT      00035                                 #  GROUP 5:  RETAIN ONLY PIPA TASK
000118: 31,2427           30101                           CA       FLAGWRD5                              #  HAS THROTTLE-UP COME YET?
000119: 31,2430           74744                           MASK     ZOOMBIT
000120: 31,2431           00006                           EXTEND
000121: 31,2432           13437                           BZF      DISPEXIT   +3                         #  NO:   DO DISPLAYS ONLY
000122:
000123: 31,2433           05364                           TC       PHASCHNG                              #  YES:  DO GUIDANCE
000124: 31,2434           05023                           OCT      05023
000125: 31,2435           20000                           OCT      20000
000126:


000128:                                                                                                  #  ****************************************************************************************************************
000129:                                                                                                  #  GUILDENSTERN:  AUTO-MODES MONITOR (R13)
000130:                                                                                                  #  ****************************************************************************************************************
000131:
000132: 31,2436                                           COUNT*   $$/R13
000133:
000134:                                                                                                  #  THE PHILOSOPHY OF GUILDENSTERN:  ON EVERY APPEARANCE OF THE ATTITUDE-HOLD DISCRETE CHECK TO SEE IF THE ROD SWITCH
000135:                                                                                                  #  HAS BEEN CLICKED.  IF SO, SELECT P66.  IF THE DAP IS IN AUTO AND THE                                     PRESENT
000136:                                                                                                  #  9PROGRAM IN PROGRESS IS P66, CHECK FOR A
000137:                                                                                                  #  RESTART. IF ONE HAS OCCURED RE-INITIALIZE P66 AND CONTINUE OTHERWISE YOUCONTINUE WITH PRESENT DATA IN P66.TO
000138:                                                                                                  #  SELECT P66 THE ATTITUDE-HOLD DISCRETE MUST BE PRESENT AND THE ROD SWITCH MUST HAVE BEEN CLICKED. OTHERWISE THE
000139:                                                                                                  #  AUTOMATIC LANDING WILL CONTINUE.
000140:
000141: 31,2436           41010        GUILDEN            CS       MODREG                                #  ARE WE IN P66?  (EVEN THO WE ARE IN AUTO
000142: 31,2437           62454                           AD       DEC66                                 #  DAP)
000143: 31,2440           00006                           EXTEND
000144: 31,2441           12533                           BZF      RESTART?                              #  YES:  GO SE IF THERE HAS BEEN A RESTART
000145:
000146: 31,2442           34737                           CAF      BIT13                                 #  NO:  IS UN-ATTITUDE-HOLD DISCRETE HERE?
000147: 31,2443           00006                           EXTEND
000148: 31,2444           02031                           RAND     CHAN31
000149: 31,2445           10000                           CCS      A
000150: 31,2446           12540                           TCF      GUILDRET                              #  YES:  ALL'S WELL, OR AT LEAST AUTOMATIC
000151:
000152: 31,2447           31746                           CA       RODCOUNT                              #  NO:  HAS ROD SWITCH BEEN CLICKED
000153: 31,2450           00006                           EXTEND
000154: 31,2451           12540                           BZF      GUILDRET                              #  NO:  CONTINUE WITH THE AUTOMATIC LANDING
000155:
000156: 31,2452           03751        STARTP66           TC       FASTCHNG                              #  YES
000157: 31,2453           05322                           TC       NEWMODEX
000158: 31,2454           00102        DEC66              DEC      66         B-14
000159:
000160: 31,2455           00006                           EXTEND
000161: 31,2456           31474                           DCA      HDOTDISP                              #  SET DESIRED ALTITUDE RATE = CURRENT
000162: 31,2457           53645                           DXCH     VDGVERT                               #        ALTITUDE RATE.
000163:
000164: 31,2460           05515                           TC       UPFLAG                                #  SET FLAG TO CONTINUE P66 HORIZONTAL
000165: 31,2461           00016                           ADRES    P66PROFL                              #     UNTIL 'PROCEED' AFTER TOUCHDOWN
000166:
000167: 31,2462           41354                           CS       TOOFEW                                #  INITIALIZE CNTTHROT TO -TOOFEW
000168: 31,2463           55623                           TS       CNTTHROT
000169:
000170: 31,2464           06042        STRTP66A           TC       INTPRET
000171: 31,2465           47375                           VLOAD    VXV                                   #  COMPUTE HORIZONTAL VELOCITY COMMAND
000172: 31,2466           02325                                    WM                                    #  MOON'S ANGULAR RATE IN 2(-17)RAD/CS
000173: 31,2467           03521                                    R                                     #  LM POSITION IN 2(24)M
000174: 31,2470           03434                           STORE    VHZC
000175: 31,2471           41535                           SLOAD    PUSH                                  #  COMPUTE PIPA BIAS VECTOR FOR USE BY
000176: 31,2472           01457                                    PBIASZ                                #    P66ROD AND LANDING ANALOG DISPLAYS
000177: 31,2473           41535                           SLOAD    PUSH
000178: 31,2474           01455                                    PBIASY
000179: 31,2475           55535                           SLOAD    VDEF
000180: 31,2476           01453                                    PBIASX
000181: 31,2477           43161                           VXSC     SET
000182: 31,2500           25432                                    BIASFACT
000183: 31,2501           00463                                    RODFLAG
000184: 31,2502           26616                           STOVL    VBIAS                                 #  ONE SECOND'S BIAS IN UNITS OF 2(7) M/CS
000185: 31,2503           01254                                    TEMX
000186: 31,2504           77676                           VCOMP
000187: 31,2505           27764                           STOVL    OLDPIPAX
000188: 31,2506           06520                                    ZEROVECS
000189: 31,2507           17767                           STODL    DELVROD
000190:


000192: 31,2510           02535                                    RODSCALE
000193: 31,2511           17757                           STODL    RODSCAL1
000194:
000195: 31,2512           01234                                    PIPTIME
000196: 31,2513           03760                           STORE    LASTTPIP
000197:
000198: 31,2514           77776                           EXIT
000199:
000200: 31,2515           04616                           TC       BANKCALL                              #  REFER CURRENT PIPAX READING TO THE CM:
000201: 31,2516           65414                           FCADR    DEIMUBOB                              #     ALAS, OMEGAQ AT PIPTIME NOT AVAILABLE
000202:
000203: 31,2517           34755                           CAF      ZERO
000204: 31,2520           55620                           TS       FCOLD
000205: 31,2521           55610                           TS       FWEIGHT
000206: 31,2522           55611                           TS       FWEIGHT    +1
000207:
000208: 31,2523           34752                           CAF      TWO                                   #  WCHPHOLD=2 --> VERTICAL  PHASE
000209: 31,2524           55621                           TS       WCHPHOLD
000210:
000211: 31,2525           55346                           TS       WCHPHASE
000212:
000213: 31,2526           05527                           TC       DOWNFLAG                              #  PERMIT X-AXIS OVERRIDE
000214: 31,2527           00311                           ADRES    XOVINFLG                              #  SHOULD DO INTERPRETIVELY TO SAVE A WORD
000215:
000216: 31,2530           05515                           TC       UPFLAG                                #  TERMINATE TERRAIN MODEL
000217: 31,2531           00023                           ADRES    NOTERFLG                              #  SHOULD DO INTERPRETIVELY TO SAVE A WORD
000218:
000219: 31,2532           13517                           TCF      P66
000220:
000221: 31,2533           30075        RESTART?           CA       FLAGWRD1                              #  HAS THERE BEEN A RESTART?
000222: 31,2534           74740                           MASK     RODFLBIT
000223: 31,2535           00006                           EXTEND
000224: 31,2536           12464                           BZF      STRTP66A                              #  Y
000225:                                                                                                  #  N
000226: 31,2537           13517                           TCF      P66
000227:


000229:                                                                                                  #  ****************************************************************************************************************
000230:                                                                                                  #  INITIALIZATION FOR THIS PASS
000231:                                                                                                  #  ****************************************************************************************************************
000232:
000233: 31,2540                                           COUNT*   $$/F2DPS
000234:
000235: 31,2540           34755        GUILDRET           CAF      ZERO
000236: 31,2541           55746                           TS       RODCOUNT
000237:
000238: 31,2542           00006                           EXTEND
000239: 31,2543           31625                           DCA      TPIP
000240: 31,2544           53574                           DXCH     TPIPOLD
000241:
000242: 31,2545           03751                           TC       FASTCHNG
000243:
000244: 31,2546           00006                           EXTEND
000245: 31,2547           31561                           DCA      PIPTIME1
000246: 31,2550           53625                           DXCH     TPIP
000247:
000248: 31,2551           00006                           EXTEND
000249: 31,2552           31643                           DCA      TTF/8
000250: 31,2553           53553                           DXCH     TTF/8TMP
000251:
000252: 31,2554           11623                           CCS      FLPASS0
000253: 31,2555           12577                           TCF      TTFINCR
000254:
000255: 31,2556           51346        BRSPOT1            INDEX    WCHPHASE
000256: 31,2557           12367                           TCF      NEWPHASE
000257:
000258:                                                                                                  #  ****************************************************************************************************************
000259:                                                                                                  #  ROUTINES TO START NEW PHASES
000260:                                                                                                  #  ****************************************************************************************************************
000261:
000262: 31,2560           05322        STARTP64           TC       NEWMODEX
000263: 31,2561           00100                           DEC      64         B-14
000264: 31,2562           31425                           CA       DELTTFAP                              #  AUGMENT TTF/8
000265: 31,2563           27552                           ADS      TTF/8TMP
000266: 31,2564           00004                           INHINT
000267: 31,2565           06022                           TC       C13STALL
000268: 31,2566           34740                           CA       BIT12                                 #  ENABLE RUPT10
000269: 31,2567           00006                           EXTEND
000270: 31,2570           05013                           WOR      CHAN13
000271: 31,2571           33761                           CAF      P64DB
000272: 31,2572           55343                           TS       DB
000273: 31,2573           05527                           TC       DOWNFLAG                              #  INITIALIZE REDESIGNATION FLAG
000274: 31,2574           00143                           ADRES    REDFLAG
000275:
000276: 31,2575           31756                           CA       LRWH1                                 #  PUT P64 LR WEIGHTING FUNCTION INTO
000277: 31,2576           55421                           TS       LRWH                                  #  LRWH SO LR UPDATES ARE DONE PROPERLY
000278:                                                                                                  #                (CONTINUE TO TTFINCR)
000279:
000280:                                                                                                  #  ****************************************************************************************************************
000281:                                                                                                  #  INCREMENT TTF/8, UPDATE LAND FOR LUNAR ROTATION, DO OTHER USEFUL THINGS
000282:                                                                                                  #  ****************************************************************************************************************
000283:


000285:
000286:                                                                                                  #           TTFINCR COMPUTATIONS ARE AS FOLLOWS:-
000287:
000288:                                                                                                  #                     TTF/8 UPDATED FOR TIME SINCE LAST PASS:
000289:
000290:                                                                                                  #                                TTF/8 = TTF/8 + (TPIP - TPIPOLD)/8
000291:
000292:                                                                                                  #                     LANDING SITE VECTOR UPDATED FOR LUNAR ROTATION:
000293:
000294:                                                                                                  #                                -                  -      -                      -
000295:                                                                                                  #                                LAND = /LAND/ UNIT(LAND - LAND(TPIP - TPIPOLD) * WM)
000296:
000297:                                                                                                  #                     SLANT RANGE TO LANDING SITE, FOR DISPLAY:
000298:
000299:                                                                                                  #                                                 -      -
000300:                                                                                                  #                                RANGEDSP = ABVAL(LAND - R)
000301:
000302: 31,2577           06042        TTFINCR            TC       INTPRET
000303: 31,2600           45345                           DLOAD    DSU
000304: 31,2601           03625                                    TPIP
000305: 31,2602           03574                                    TPIPOLD
000306: 31,2603           41461                           SLR      PUSH                                  #  SHIFT SCALES DELTA TIME TO 2(17) CSECS
000307: 31,2604           21214                                    11D
000308: 31,2605           47361                           VXSC     VXV
000309: 31,2606           03635                                    LAND
000310: 31,2607           02325                                    WM
000311: 31,2610           47045                           BVSU     RTB
000312: 31,2611           03635                                    LAND
000313: 31,2612           21727                                    NORMUNIT
000314: 31,2613           76561                           VXSC     VSL1
000315: 31,2614           02333                                    /LAND/
000316: 31,2615           17545                           STODL    LANDTEMP
000317: 31,2616           77776                           EXIT
000318:
000319: 31,2617           52155                           DXCH     MPAC
000320: 31,2620           21553                           DAS      TTF/8TMP                              #  NOW HAVE INCREMENTED TTF/8 IN TTF/8TMP
000321:
000322: 31,2621           03751                           TC       FASTCHNG
000323:
000324: 31,2622           00006                           EXTEND
000325: 31,2623           31553                           DCA      TTF/8TMP
000326: 31,2624           53643                           DXCH     TTF/8
000327:
000328: 31,2625           03702                           TC       TDISPSET
000329:
000330: 31,2626           37721                           CAF      PRIO31                                #  TEMPORARILY OVER-PRIO CHARIN
000331: 31,2627           05146                           TC       PRIOCHNG
000332:
000333: 31,2630           06042                           TC       INTPRET
000334: 31,2631           53375                           VLOAD    VAD                                   #  ADD IN CORRECTION FROM NOUN 69
000335: 31,2632           03545                                    LANDTEMP
000336:


000338: 31,2633           02632                                    DLAND
000339: 31,2634           03635                           STORE    LAND
000340: 31,2635           77646                           ABVAL                                          #  RECOMPUTE /LAND/
000341: 31,2636           02333                           STORE    /LAND/
000342: 31,2637           77776                           EXIT
000343:
000344: 31,2640           03751                           TC       FASTCHNG                              #  SINCE REDESIG MAY CHANGE LANDTEMP
000345:
000346: 31,2641           35014                           CAF      EBANK5
000347: 31,2642  E5,1631                                  EBANK=   DLAND
000348: 31,2642           54003                           TS       EBANK
000349: 31,2643           34755                           CAF      ZERO                                  #  ZERO N 69 REGISTERS
000350: 31,2644           55631                           TS       DLAND
000351: 31,2645           55632                           TS       DLAND      +1
000352: 31,2646           55633                           TS       DLAND      +2
000353: 31,2647           55634                           TS       DLAND      +3
000354: 31,2650           55635                           TS       DLAND      +4
000355: 31,2651           55636                           TS       DLAND      +5
000356: 31,2652           35016                           CAF      EBANK7
000357: 31,2653  E7,1666                                  EBANK=   TREDES
000358: 31,2653           54003                           TS       EBANK
000359:
000360: 31,2654           34736                           CAF      PRIO20
000361: 31,2655           05146                           TC       PRIOCHNG
000362:
000363: 31,2656           51346        BRSPOT2            INDEX    WCHPHASE
000364: 31,2657           12373                           TCF      PREGUIDE
000365:
000366:                                                                                                  #  ****************************************************************************************************************
000367:                                                                                                  #  LANDING SITE PERTURBATION EQUATIONS
000368:                                                                                                  #  ****************************************************************************************************************
000369:
000370: 31,2660           30102        REDESIG            CA       FLAGWRD6                              #  IS REDFLAG SET?
000371: 31,2661           74746                           MASK     REDFLBIT
000372: 31,2662           00006                           EXTEND
000373: 31,2663           12767                           BZF      RGVGCALC                              #  NO:   SKIP REDESIGNATION LOGIC
000374:
000375: 31,2664           31666                           CA       TREDES                                #  YES:  HAS TREDES REACHED ZERO?
000376: 31,2665           00006                           EXTEND
000377: 31,2666           12767                           BZF      RGVGCALC                              #  YES:  SKIP REDESIGNATION LOGIC
000378:
000379: 31,2667           00004                           INHINT
000380: 31,2670           31645                           CA       ELINCR1
000381: 31,2671           55554                           TS       ELINCR
000382: 31,2672           31644                           CA       AZINCR1
000383: 31,2673           55556                           TS       AZINCR
000384: 31,2674           03751                           TC       FASTCHNG
000385:
000386: 31,2675           34755                           CA       ZERO
000387: 31,2676           55645                           TS       ELINCR1
000388:


000390: 31,2677           55644                           TS       AZINCR1
000391: 31,2700           55555                           TS       ELINCR     +1
000392: 31,2701           55557                           TS       AZINCR     +1
000393:
000394: 31,2702           30120                           CA       FIXLOC                                #  SET PD TO 0
000395: 31,2703           54166                           TS       PUSHLOC
000396:
000397: 31,2704           06042                           TC       INTPRET
000398: 31,2705           52375                           VLOAD    VSU
000399: 31,2706           03635                                    LAND
000400: 31,2707           03521                                    R                                     #                  -      -
000401: 31,2710           41434                           RTB      PUSH                                  #  PUSH DOWN UNIT (LAND - R)
000402: 31,2711           21727                                    NORMUNIT
000403: 31,2712           76435                           VXV      VSL1
000404: 31,2713           02154                                    YNBPIP                                #                     -          -      -
000405: 31,2714           65361                           VXSC     PDDL                                  #  PUSH DOWN - ELINCR(YNB * UNIT(LAND - R))
000406: 31,2715           03555                                    ELINCR
000407: 31,2716           03557                                    AZINCR
000408: 31,2717           52361                           VXSC     VSU
000409: 31,2720           02154                                    YNBPIP
000410: 31,2721           41455                           VAD      PUSH                                  #  RESULTING VECTOR IS 1/2 REAL SIZE
000411:
000412: 31,2722           45345                           DLOAD    DSU                                   #  MAKE SURE REDESIGNATION IS NOT
000413: 31,2723           00001                                    0                                     #    TOO CLOSE TO THE HORIZON
000414: 31,2724           05660                                    DEPRCRIT
000415: 31,2725           71240                           BMN      DLOAD
000416: 31,2726           62731                                    REDES1
000417: 31,2727           05660                                    DEPRCRIT
000418: 31,2730           00001                           STORE    0
000419: 31,2731           45345        REDES1             DLOAD    DSU
000420: 31,2732           03635                                    LAND
000421: 31,2733           03521                                    R
000422: 31,2734           74271                           DDV      VXSC
000423: 31,2735           00001                                    0
000424: 31,2736           53455                           VAD      UNIT
000425: 31,2737           03521                                    R
000426: 31,2740           76561                           VXSC     VSL1
000427: 31,2741           02333                                    /LAND/
000428: 31,2742           03545                           STORE    LANDTEMP
000429: 31,2743           77776                           EXIT                                           #  LOOKANGL WILL BE COMPUTED AT RGVGCALC
000430:
000431: 31,2744           03751                           TC       FASTCHNG
000432:
000433: 31,2745           00006                           EXTEND
000434: 31,2746           31545                           DCA      LANDTEMP
000435: 31,2747           53635                           DXCH     LAND
000436: 31,2750           00006                           EXTEND
000437: 31,2751           31547                           DCA      LANDTEMP   +2
000438: 31,2752           53637                           DXCH     LAND       +2
000439: 31,2753           00006                           EXTEND
000440:


000442: 31,2754           31551                           DCA      LANDTEMP   +4
000443: 31,2755           53641                           DXCH     LAND       +4
000444:
000445: 31,2756           12767                           TCF      RGVGCALC
000446:
000447:                                                                                                  #  ****************************************************************************************************************
000448:                                                                                                  #  COMPUTE STATE IN GUIDANCE COORDINATES
000449:                                                                                                  #  ****************************************************************************************************************
000450:
000451:                                                                                                  #             RGVGCALC COMPUTATIONS ARE AS FOLLOWS:-
000452:
000453:                                                                                                  #                      VELOCITY RELATIVE TO THE SURFACE:
000454:
000455:                                                                                                  #                                  -         -   -   -
000456:                                                                                                  #                                  ANGTERM = V + R * WM
000457:
000458:                                                                                                  #                      STATE IN GUIDANCE COORDINATES:
000459:
000460:                                                                                                  #                                  -     *   -   -
000461:                                                                                                  #                                  RGU = CG (R - LAND)
000462:
000463:                                                                                                  #                                  -     *   -   -    -
000464:                                                                                                  #                                  VGU = CG (V - WM * R)
000465:
000466:                                                                                                  #                      DEPRESSION ANGLE FOR DISPLAY:
000467:
000468:                                                                                                  #                                                         -   -     -
000469:                                                                                                  #                                  LOOKANGL = ARCSIN(UNIT(R - LAND).XMBPIP)
000470:
000471: 31,2757           06042        CALCRGVG           TC       INTPRET                               #  IN IGNALG, COMPUTE V FROM INTEGRATION
000472: 31,2760           64375                           VLOAD    MXV                                   #    OUTPUT AND TRIM CORRECTION TERM
000473: 31,2761           00025                                    VATT1                                 #    COMPUTED LAST PASS AND LEFT IN UNFC/2
000474: 31,2762           01732                                    REFSMMAT
000475: 31,2763           53362                           VSR1     VAD
000476: 31,2764           03253                                    UNFC/2
000477: 31,2765           03527                           STORE    V
000478: 31,2766           77776                           EXIT
000479:
000480: 31,2767           06042        RGVGCALC           TC       INTPRET                               #  ENTER HERE TO RECOMPUTE RG AND VG
000481: 31,2770           47375                           VLOAD    VXV
000482: 31,2771           03521                                    R
000483: 31,2772           02325                                    WM
000484: 31,2773           70455                           VAD      VSR2                                  #  RESCALE TO UNITS OF 2(9) M/CS
000485: 31,2774           03527                                    V
000486: 31,2775           02231                           STORE    ANGTERM
000487: 31,2776           77721                           MXV
000488: 31,2777           02572                                    CG                                    #  NO SHIFT SINCE ANGTERM IS DOUBLE SIZED
000489: 31,3000           27627                           STOVL    VGU
000490: 31,3001           03521                                    R                                     #            -   -
000491: 31,3002           41451                           VSU      PUSH                                  #  PUSH DOWN R - LAND
000492:


000494: 31,3003           03635                                    LAND
000495: 31,3004           76521                           MXV      VSL1
000496: 31,3005           02572                                    CG
000497: 31,3006           02624                           STORE    RGU
000498: 31,3007           77646                           ABVAL
000499: 31,3010           26614                           STOVL    RANGEDSP                              #  SM Z-AXIS RANGE FOR DISPLAY IN N68
000500: 31,3011           50234                           RTB      DOT                                   #  NOW IN MPAC IS SINE(LOOKANGL)/4
000501: 31,3012           21727                                    NORMUNIT
000502: 31,3013           02146                                    XNBPIP
000503: 31,3014           77776                           EXIT
000504:
000505: 31,3015           30120                           CA       FIXLOC                                #  RESET PUSH DOWN POINTER
000506: 31,3016           54166                           TS       PUSHLOC
000507:
000508: 31,3017           30154                           CA       MPAC                                  #  COMPUTE LOOKANGL ITSELF
000509: 31,3020           60000                           DOUBLE
000510: 31,3021           04616                           TC       BANKCALL
000511: 31,3022           61655                           CADR     SPARCSIN   -1
000512: 31,3023           63765                           AD       1/2DEG
000513: 31,3024           61353                           AD       ELBIAS                                #  BIAS LPD ANGLE FOR WINDOW BENDING
000514: 31,3025           00006                           EXTEND
000515: 31,3026           73764                           MP       180DEGS
000516: 31,3027           55667                           TS       LOOKANGL                              #  LOOKANGL FOR DISPLAY DURING P64
000517:
000518: 31,3030           51346        BRSPOT3            INDEX    WCHPHASE
000519: 31,3031           12376                           TCF      WHATGUID
000520:
000521:                                                                                                  #  ****************************************************************************************************************
000522:                                                                                                  #  TTF/8 COMPUTATION
000523:                                                                                                  #  ****************************************************************************************************************
000524:
000525: 31,3032           03675        TTF/8CL            TC       INTPRETX
000526: 31,3033           77743                           DLOAD*
000527: 31,3034           02443                                    JDG2TTF,1
000528: 31,3035           23571                           STODL*   TABLTTF    +6                         #  A(3) = 8 JDG  TO TABLTTF
000529: 31,3036           02437                                    ADG2TTF,1                             #              2
000530: 31,3037           17567                           STODL    TABLTTF    +4                         #  A(2) = 6 ADG  TO TABLTTF
000531: 31,3040           03633                                    VGU        +4                         #              2
000532: 31,3041           42605                           DMP      DAD*
000533: 31,3042           05656                                    3/4DP
000534: 31,3043           02433                                    VDG2TTF,1
000535: 31,3044           23565                           STODL*   TABLTTF    +2                         #  A(1) = (6 VGU  + 18 VDG )/8 TO TABLTTF
000536: 31,3045           02407                                    RDG        +4,1                       #               2         2
000537: 31,3046           41225                           DSU      DMP
000538: 31,3047           02630                                    RGU        +4
000539: 31,3050           05654                                    3/8DP
000540: 31,3051           03563                           STORE    TABLTTF                               #  A(0) = -24 (RGU  - RDG )/64 TO TABLTTF
000541: 31,3052           77776                           EXIT                                           #                 2      2
000542:


000544:
000545: 31,3053           34744                           CA       BIT8
000546: 31,3054           55572                           TS       TABLTTF    +10                        #  FRACTIONAL PRECISION FOR TTF TO TABLE
000547:
000548: 31,3055           00006                           EXTEND
000549: 31,3056           31643                           DCA      TTF/8
000550: 31,3057           52155                           DXCH     MPAC                                  #  LOADS TTF/8 (INITIAL GUESS) INTO MPAC
000551: 31,3060           34752                           CAF      TWO                                   #  DEGREE - ONE
000552: 31,3061           54001                           TS       L
000553: 31,3062           33757                           CAF      TABLTTFL
000554: 31,3063           03545                           TC       ROOTPSRS                              #  YIELDS TTF/8 IN MPAC
000555: 31,3064           51346                           INDEX    WCHPHASE
000556: 31,3065           12412                           TCF      WHATALM
000557:
000558: 31,3066           00006                           EXTEND                                         #  GOOD RETURN
000559: 31,3067           30155                           DCA      MPAC                                  #  FETCH TTF/8 KEEPING IT IN MPAC
000560: 31,3070           53643                           DXCH     TTF/8                                 #  CORRECTED TTF/8
000561:
000562: 31,3071           03702                           TC       TDISPSET
000563:
000564:                                                                                                  #                (CONTINUE TO QUADGUID)
000565:
000566:                                                                                                  #  ****************************************************************************************************************
000567:                                                                                                  #  MAIN GUIDANCE EQUATION
000568:                                                                                                  #  ****************************************************************************************************************
000569:
000570:                                                                                                  #                       AS PUBLISHED:-
000571:
000572:                                                                                                  #                                                -     -        -     -
000573:                                                                                                  #                                  -     -     6(VDG + VG)   12(RDG - RG)
000574:                                                                                                  #                                  ACG = ADG + ----------- + ------------
000575:                                                                                                  #                                                  TTF        (TTF)(TTF)
000576:
000577:                                                                                                  #                       AS HERE PROGRAMMED:-
000578:
000579:                                                                                                  #                                              -     -
000580:                                                                                                  #                                       3 (1/4(RDG - RG)   -     - )
000581:                                                                                                  #                                       - (------------- + VDG + VG)
000582:                                                                                                  #                                 -     4 (    TTF/8               )   -
000583:                                                                                                  #                                 ACG = ---------------------------- + ADG
000584:                                                                                                  #                                                  TTF/8
000585:
000586: 31,3072           41642        QUADGUID           CS       TTF/8
000587: 31,3073           61426                           AD       LEADTIME                              #  LEADTIME IS A NEGATIVE NUMBER
000588: 31,3074           64733                           AD       POSMAX                                #  SAFEGUARD THE COMPUTATIONS THAT FOLLOW
000589: 31,3075           54001                           TS       L                                     #    BY FORCING -TTF+LEADTIME > OR = ZERO
000590: 31,3076           40001                           CS       L
000591: 31,3077           60001                           AD       L
000592: 31,3100           22007                           ZL
000593: 31,3101           00006                           EXTEND
000594:


000596: 31,3102           11642                           DV       TTF/8
000597: 31,3103           54130                           TS       BUF                                   #  - RATIO OF LAG-DIMINISHED TTF TO TTF
000598: 31,3104           00006                           EXTEND
000599: 31,3105           70000                           SQUARE
000600: 31,3106           54131                           TS       BUF        +1
000601: 31,3107           60130                           AD       BUF
000602: 31,3110           56131                           XCH      BUF        +1                         #  RATIO SQUARED - RATIO
000603: 31,3111           60131                           AD       BUF        +1
000604: 31,3112           54154                           TS       MPAC                                  #  COEFFICIENT FOR VGU TERM
000605: 31,3113           60131                           AD       BUF        +1
000606: 31,3114           50120                           INDEX    FIXLOC
000607: 31,3115           54032                           TS       26D                                   #  COEFFICIENT FOR RDG-RGU TERM
000608: 31,3116           60131                           AD       BUF        +1
000609: 31,3117           50120                           INDEX    FIXLOC
000610: 31,3120           54034                           TS       28D                                   #  COEFFICIENT FOR VDG TERM
000611: 31,3121           60130                           AD       BUF
000612: 31,3122           64733                           AD       POSMAX
000613: 31,3123           60131                           AD       BUF        +1
000614: 31,3124           60131                           AD       BUF        +1
000615: 31,3125           50120                           INDEX    FIXLOC
000616: 31,3126           54036                           TS       30D                                   #  COEFFICIENT FOR ADG TERM
000617:
000618: 31,3127           34755                           CAF      ZERO
000619: 31,3130           54163                           TS       MODE
000620:
000621: 31,3131           03675                           TC       INTPRETX
000622: 31,3132           65361                           VXSC     PDDL
000623: 31,3133           03627                                    VGU
000624: 31,3134           00035                                    28D
000625: 31,3135           47157                           VXSC*    RTB
000626: 31,3136           02413                                    VDG,1
000627: 31,3137           63671                                    ZEROMID
000628: 31,3140           47113                           PDVL*    RTB
000629: 31,3141           02403                                    RDG,1
000630: 31,3142           63671                                    ZEROMID
000631: 31,3143           70251                           VSU      V/SC
000632: 31,3144           02624                                    RGU
000633: 31,3145           03643                                    TTF/8
000634: 31,3146           74342                           VSR2     VXSC
000635: 31,3147           00033                                    26D
000636: 31,3150           53255                           VAD      VAD
000637: 31,3151           74341                           V/SC     VXSC
000638: 31,3152           03643                                    TTF/8
000639: 31,3153           05656                                    3/4DP
000640: 31,3154           73725                           PDDL     VXSC*
000641: 31,3155           00037                                    30D
000642: 31,3156           02423                                    ADG,1
000643: 31,3157           53234                           RTB      VAD
000644: 31,3160           63671                                    ZEROMID
000645:


000647: 31,3161           76505        AFCCALC1           VXM      VSL1                                  #  VERTGUID COMES HERE
000648: 31,3162           02572                                    CG
000649: 31,3163           70315                           PDVL     V/SC
000650: 31,3164           01236                                    GDT/2
000651: 31,3165           05652                                    GSCALE
000652: 31,3166           45445                           BVSU     STADR
000653: 31,3167           74524                           STORE    UNFC/2                                #  UNFC/2 NEED NOT BE UNITIZED
000654: 31,3170           77646                           ABVAL
000655: 31,3171           17464        AFCCALC2           STODL    /AFC/                                 #  MAGNITUDE OF AFC FOR THROTTLE
000656: 31,3172           03253                                    UNFC/2                                #  VERTICAL COMPONENT
000657: 31,3173           65316                           DSQ      PDDL
000658: 31,3174           03255                                    UNFC/2     +2                         #  OUT-OF-PLANE
000659: 31,3175           65316                           DSQ      PDDL
000660: 31,3176           05650                                    HIGHESTF
000661: 31,3177           63471                           DDV      DSQ
000662: 31,3200           01244                                    MASS                                  #                         2    2     2
000663: 31,3201           45225                           DSU      DSU                                   #  AMAXHORIZ = SQRT(ATOTAL - A  -  A  )
000664: 31,3202           71244                           BPL      DLOAD                                 #                             1     0
000665: 31,3203           63205                                    AFCCALC3
000666: 31,3204           06520                                    ZEROVECS
000667: 31,3205           43366        AFCCALC3           SQRT     DAD
000668: 31,3206           03257                                    UNFC/2     +4
000669: 31,3207           44244                           BPL      BDSU
000670: 31,3210           63213                                    AFCCLEND
000671: 31,3211           03257                                    UNFC/2     +4
000672: 31,3212           03257                           STORE    UNFC/2     +4
000673: 31,3213           77776        AFCCLEND           EXIT
000674: 31,3214           03751                           TC       FASTCHNG
000675:
000676: 31,3215           31346                           CA       WCHPHASE                              #  PREPARE FOR PHASE SWITCHING LOGIC
000677: 31,3216           55621                           TS       WCHPHOLD
000678: 31,3217           25623                           INCR     FLPASS0                               #  INCREMENT PASS COUNTER
000679:
000680: 31,3220           51346        BRSPOT4            INDEX    WCHPHASE
000681: 31,3221           12401                           TCF      AFTRGUID
000682:
000683:                                                                                                  #  ****************************************************************************************************************
000684:                                                                                                  #  NEW PHASE NOW?
000685:                                                                                                  #  ****************************************************************************************************************
000686:
000687: 31,3222           51346        EXTLOGIC           INDEX    WCHPHASE                              #  IS TTF NEARER ZERO THAN CRITERION?
000688: 31,3223           31423                           CA       TENDBRAK
000689: 31,3224           61642                           AD       TTF/8
000690: 31,3225           00006                           EXTEND
000691: 31,3226           63235                           BZMF     CGCALC                                #  NO
000692:
000693: 31,3227           03751                           TC       FASTCHNG                              #  YES:  INCREMENT WCHPHASE, ZERO FLPASS0
000694:
000695: 31,3230           31621                           CA       WCHPHOLD
000696: 31,3231           64753                           AD       ONE
000697:


000699: 31,3232           55346                           TS       WCHPHASE
000700: 31,3233           34755                           CAF      ZERO
000701: 31,3234           55623                           TS       FLPASS0
000702:
000703:                                                                                                  #                (CONTINUE TO CGCALC)
000704:
000705:                                                                                                  #  ***************************************************************************************************************
000706:                                                                                                  #  ERECT GUIDANCE-STABLE MEMBER TRANSFORMATION MATRIX
000707:                                                                                                  #  ***************************************************************************************************************
000708:
000709: 31,3235           35014        CGCALC             CAF      EBANK5
000710: 31,3236           54003                           TS       EBANK
000711: 31,3237  E5,1453                                  EBANK=   TCGIBRAK
000712: 31,3237           00006                           EXTEND
000713: 31,3240           51346                           INDEX    WCHPHASE
000714: 31,3241           52415                           INDEX    TARGTDEX
000715: 31,3242           31453                           DCA      TCGFBRAK
000716: 31,3243           24006                           INCR     BBANK
000717: 31,3244           24006                           INCR     BBANK
000718: 31,3245  E7,1642                                  EBANK=   TTF/8
000719: 31,3245           61642                           AD       TTF/8
000720: 31,3246           56001                           XCH      L
000721: 31,3247           61642                           AD       TTF/8
000722: 31,3250           10000                           CCS      A
000723: 31,3251           10001                           CCS      L
000724: 31,3252           13303                           TCF      EXITSPOT
000725: 31,3253           13303                           TCF      EXITSPOT
000726: 31,3254           13255                           NOOP
000727:
000728: 31,3255           03675                           TC       INTPRETX
000729: 31,3256           53575                           VLOAD    UNIT
000730: 31,3257           03635                                    LAND
000731: 31,3260           16572                           STODL    CG
000732: 31,3261           03643                                    TTF/8
000733: 31,3262           74203                           DMP*     VXSC
000734: 31,3263           02447                                    GAINBRAK,1                            #  NUMERO MYSTERIOSO
000735: 31,3264           02231                                    ANGTERM
000736: 31,3265           77655                           VAD
000737: 31,3266           03635                                    LAND
000738: 31,3267           47051                           VSU      RTB
000739: 31,3270           03521                                    R
000740: 31,3271           21727                                    NORMUNIT
000741: 31,3272           47035                           VXV      RTB
000742: 31,3273           03635                                    LAND
000743: 31,3274           21727                                    NORMUNIT
000744: 31,3275           26600                           STOVL    CG         +6                         #  SECOND ROW
000745: 31,3276           02572                                    CG
000746: 31,3277           76435                           VXV      VSL1
000747: 31,3300           02600                                    CG         +6
000748: 31,3301           02606                           STORE    CG         +14
000749: 31,3302           77776                           EXIT
000750:
000751: 31,3303           51621        EXITSPOT           INDEX    WCHPHOLD
000752: 31,3304           12404                           TCF      WHATEXIT
000753:
000754:                                                                                                  #  ****************************************************************************************************************
000755:


000757:                                                                                                  #  ROUTINES FOR EXITING FROM LANDING GUIDANCE
000758:                                                                                                  #  ****************************************************************************************************************
000759:
000760:                                                                                                  #  1.        EXGSUB IS THE RETURN WHEN GUIDSUB IS CALLED BY THE IGNITION ALGORITHM.
000761:
000762:                                                                                                  #  2.        EXBRAK IN THE EXIT USED DURING THE BRAKING PHASE.  IN THIS CASE UNIT(R) IS THE WINDOW POINTING VECTOR.
000763:
000764:                                                                                                  #  3.        EXNORM IS THE EXIT USED AT OTHER TIMES DURING THE BURN.
000765:
000766:                                                                                                  #           (EXOVFLOW IS A SUBROUTINE OF EXBRAK AND EXNORM CALLED WHEN OVERFLOW OCCURRED ANYWHERE IN GUIDANCE.)
000767:
000768: 31,3305           06042        EXGSUB             TC       INTPRET                               #  COMPUTE TRIM VELOCITY CORRECTION TERM
000769: 31,3306           47175                           VLOAD    RTB
000770: 31,3307           03253                                    UNFC/2
000771: 31,3310           21727                                    NORMUNIT
000772: 31,3311           74361                           VXSC     VXSC
000773: 31,3312           03423                                    ZOOMTIME
000774: 31,3313           22001                                    TRIMACCL
000775: 31,3314           03253                           STORE    UNFC/2
000776: 31,3315           77776                           EXIT
000777:
000778: 31,3316           11647                           CCS      NGUIDSUB
000779: 31,3317           12423                           TCF      GUIDSUB
000780: 31,3320           11646                           CCS      NIGNLOOP
000781: 31,3321           13324                           TCF      +3
000782: 31,3322           05600                           TC       ALARM
000783: 31,3323           01412                           OCT      01412
000784:
000785: 31,3324           04635                 +3        TC       POSTJUMP
000786: 31,3325           64672                           CADR     DDUMCALC
000787:
000788: 31,3326           06042        EXBRAK             TC       INTPRET
000789: 31,3327           77775                           VLOAD
000790: 31,3330           03537                                    UNIT/R/
000791: 31,3331           03261                           STORE    UNWC/2
000792: 31,3332           77776                           EXIT
000793: 31,3333           13410                           TCF      STEER?
000794:
000795: 31,3334           06042        EXNORM             TC       INTPRET
000796: 31,3335           52375                           VLOAD    VSU
000797: 31,3336           03635                                    LAND
000798: 31,3337           03521                                    R
000799: 31,3340           77634                           RTB
000800: 31,3341           21727                                    NORMUNIT
000801: 31,3342           03261                           STORE    UNWC/2                                #  UNIT(LAND - R) IS TENTATIVE CHOICE
000802: 31,3343           50235                           VXV      DOT
000803: 31,3344           02146                                    XNBPIP
000804: 31,3345           02600                                    CG         +6
000805: 31,3346           77776                           EXIT                                           #  WITH PROJ IN MPAC 1/8 REAL SIZE
000806:


000808:
000809: 31,3347           40154                           CS       MPAC                                  #  GET COEFFICIENT FOR CG +14
000810: 31,3350           63766                           AD       PROJMAX
000811: 31,3351           64733                           AD       POSMAX
000812: 31,3352           54130                           TS       BUF
000813: 31,3353           40130                           CS       BUF
000814: 31,3354           26130                           ADS      BUF                                   #  RESULT IS 0 IF PROJMAX - PROJ NEGATIVE
000815:
000816: 31,3355           43767                           CS       PROJMIN                               #  GET COEFFICIENT FOR UNIT(LAND - R)
000817: 31,3356           60154                           AD       MPAC
000818: 31,3357           64733                           AD       POSMAX
000819: 31,3360           54131                           TS       BUF        +1
000820: 31,3361           40131                           CS       BUF        +1
000821: 31,3362           26131                           ADS      BUF        +1                         #  RESULT IS 0 IF PROJ - PROJMIN NEGATIVE
000822:
000823: 31,3363           34751                           CAF      FOUR
000824: 31,3364           76245        UNWCLOOP           MASK     SIX
000825: 31,3365           54002                           TS       Q
000826: 31,3366           35014                           CA       EBANK5
000827: 31,3367           54003                           TS       EBANK
000828: 31,3370  E5,1571                                  EBANK=   CG
000829: 31,3370           30130                           CA       BUF
000830: 31,3371           00006                           EXTEND
000831: 31,3372           50002                           INDEX    Q
000832: 31,3373           71605                           MP       CG         +14
000833: 31,3374           24006                           INCR     BBANK
000834: 31,3375  E6,1660                                  EBANK=   UNWC/2
000835: 31,3375           50002                           INDEX    Q
000836: 31,3376           53661                           DXCH     UNWC/2
000837: 31,3377           00006                           EXTEND
000838: 31,3400           70131                           MP       BUF        +1
000839: 31,3401           50002                           INDEX    Q
000840: 31,3402           21661                           DAS      UNWC/2
000841: 31,3403           10002                           CCS      Q
000842: 31,3404           13364                           TCF      UNWCLOOP
000843:
000844: 31,3405           31773                           CA       AZBIAS                                #  SET OUTER GIMBAL
000845: 31,3406           55677                           TS       OGABIAS                               #    ANGLE BIAS FOR WINDOW BENDING
000846:
000847: 31,3407           24006                           INCR     BBANK
000848: 31,3410  E7,1612                                  EBANK=   PIF
000849:
000850: 31,3410           30121        STEER?             CA       OVFIND                                #  OVERFLOW?
000851: 31,3411           00006                           EXTEND
000852: 31,3412           13415                           BZF      STEERSW?                              #  N: CHECK STEERSW
000853:
000854: 31,3413           03736                           TC       OVFDESC                               #  Y: REMEDIAL ACTION AND
000855: 31,3414           13434                           TCF      DISPEXIT                              #     SKIP ISSUANCE OF CMDS. NO STEERSW CHK
000856:
000857: 31,3415           40076        STEERSW?           CS       FLAGWRD2                              #  IS STEERSW UP?
000858: 31,3416           74741                           MASK     STEERBIT
000859:


000861: 31,3417           00006                           EXTEND
000862: 31,3420           13426                           BZF      THRTCALL                              #  Y: ISSUE GUIDANCE CMDS
000863:
000864: 31,3421           00004        RATESTOP           INHINT                                         #  N: REMEDIAL ACTION
000865: 31,3422           04674                           TC       IBNKCALL                              #     AND
000866: 31,3423           40166                           FCADR    STOPRATE                              #     SKIP ISSUANCE OF CMDS
000867: 31,3424           00003                           RELINT
000868: 31,3425           13434                           TCF      DISPEXIT
000869:
000870: 31,3426  31,3426               GDUMP1             =        THRTCALL
000871: 31,3426           02144        THRTCALL           TC       THROTTLE
000872: 31,3427           03751                           TC       FASTCHNG
000873: 31,3430           06042                           TC       INTPRET
000874: 31,3431           77624                           CALL
000875: 31,3432           61072                                    FINDCDUW   -2
000876: 31,3433           77776                           EXIT
000877:
000878:                                                                                                  #                (CONTINUE TO DISPEXIT)
000879:
000880:                                                                                                  #  ****************************************************************************************************************
000881:                                                                                                  #  GUIDANCE LOOP DISPLAYS
000882:                                                                                                  #  ****************************************************************************************************************
000883:
000884: 31,3434           00006        DISPEXIT           EXTEND                                         #  KILL GROUP 3:   DISPLAYS WILL BE
000885: 31,3435           34755                           DCA      NEG0                                  #    RESTORED BY NEXT GUIDANCE CYCLE
000886: 31,3436           52756                           DXCH     -PHASE3
000887:
000888: 31,3437  31,3437               ENDLLJOB           =        DISPEXIT   +3
000889:
000890: 31,3437  31,3437               DISPEX66           =        DISPEXIT   +3
000891: 31,3437           40104                 +3        CS       FLAGWRD8                              #  IF FLUNDISP IS SET, NO DISPLAY THIS PASS
000892: 31,3440           74742                           MASK     FLUNDBIT
000893: 31,3441           00006                           EXTEND
000894: 31,3442           15155                           BZF      ENDOFJOB
000895:
000896: 31,3443           51621                           INDEX    WCHPHOLD
000897: 31,3444           12406                           TCF      WHATDISP
000898:
000899: 31,3445           05165        P63DISPS           TC       VACRLEAS
000900: 31,3446           33770                           CAF      V06N63
000901: 31,3447           04616        DISPCOMN           TC       BANKCALL
000902: 31,3450           20466                           CADR     REGODSP
000903:
000904: 31,3451           31666        P64DISPS           CA       TREDES                                #  HAS TREDES REACHED ZERO?
000905: 31,3452           00006                           EXTEND
000906: 31,3453           13475                           BZF      RED-OVER                              #  YES:  CLEAR REDESIGNATION FLAG
000907:
000908: 31,3454           40102                           CS       FLAGWRD6                              #  NO:   IS REDFLAG SET?
000909: 31,3455           74746                           MASK     REDFLBIT
000910: 31,3456           00006                           EXTEND
000911: 31,3457           13477                           BZF      REDES-OK                              #  YES:  DO STATIC DISPLAY
000912:
000913: 31,3460           05165                           TC       VACRLEAS
000914: 31,3461           33771                           CAF      V06N64                                #  OTHERWISE USE FLASHING DISPLAY
000915: 31,3462           04616                           TC       BANKCALL
000916: 31,3463           20460                           CADR     REFLASH
000917: 31,3464           16001                           TCF      GOTOPOOH                              #  TERMINATE
000918: 31,3465           13467                           TCF      P64CEED                               #  PROCEED     PERMIT REDESIGNATIONS
000919: 31,3466           13451                           TCF      P64DISPS                              #  RECYCLE
000920:
000921: 31,3467           34755        P64CEED            CAF      ZERO
000922: 31,3470           55645                           TS       ELINCR1
000923: 31,3471           55644                           TS       AZINCR1
000924:
000925: 31,3472           05515                           TC       UPFLAG                                #  ENABLE REDESIGNATION LOGIC
000926: 31,3473           00143                           ADRES    REDFLAG
000927:
000928: 31,3474           15155                           TCF      ENDOFJOB
000929:
000930: 31,3475           05527        RED-OVER           TC       DOWNFLAG
000931: 31,3476           00143                           ADRES    REDFLAG
000932: 31,3477           05165        REDES-OK           TC       VACRLEAS
000933: 31,3500           33771                           CAF      V06N64
000934: 31,3501           13447                           TCF      DISPCOMN
000935:
000936:
000937: 31,3502           05165        VERTDISP           TC       VACRLEAS
000938: 31,3503           33772                           CAF      V06N60
000939: 31,3504           04616                           TC       BANKCALL
000940: 31,3505           20460                           CADR     REFLASH
000941:


000943: 31,3506           16001                           TCF      GOTOPOOH                              #  TERMINATE
000944: 31,3507           13511                           TCF      STOPFIRE                              #  PROCEED
000945: 31,3510           13511                           TCF      STOPFIRE                              #  V32E
000946:
000947: 31,3511           05527        STOPFIRE           TC       DOWNFLAG
000948: 31,3512           00016                           ADRES    P66PROFL                              #  FLAG TO STOP P66 HORIZONTAL
000949: 31,3513           15155                           TCF      ENDOFJOB
000950:
000951: 31,3514           02147        THROT66            TC       THROTTLE   +3
000952: 31,3515           25623                           INCR     CNTTHROT                              #  COUNT ONE THROTTLE COMPLETION
000953:
000954: 31,3516           13437                           TCF      DISPEX66
000955:


000957:                                                                                                  #  ****************************************************************************************************************
000958:                                                                                                  #  GUIDANCE FOR P66
000959:                                                                                                  #  ****************************************************************************************************************
000960:
000961:                                                                                                  #           THE P66 HORIZONTAL (HZ) EQUATION IS:
000962:
000963:                                                                                                  #                  UNFC/2X = GHZ
000964:
000965:                                                                                                  #                  UNFC/2Y = (LIMIT AHZLIM)(-QHZ UNFC/2Y   -(VY-VHZCY)/TAUHZ)
000966:                                                                                                  #                                                       I-1
000967:
000968:                                                                                                  #                  UNFC/2Z = (LIMIT AHZLIM)(-QHZ UNFC/2Z   -(VZ-VHZCZ)/TAUHZ)
000969:                                                                                                  #                                                       I-1
000970:
000971:                                                                                                  #           WHERE  GHZ IS LUNAR GRAVITY
000972:                                                                                                  #                  QHZ AND 1/TAUHZ ARE GAIN CONSTANTS
000973:                                                                                                  #                  VHZCY AND VHZCZ ARE THE Y AND Z COMPONENTS OF COMMANDED
000974:                                                                                                  #                     VELOCITY, PLATFORM COORDINATES. THESE ARE INITIALIZED
000975:                                                                                                  #                     TO MOONRATE
000976:                                                                                                  #                  (LIMIT AHZLIM) INDICATES THE CONTENT OF THE SUBSEQUENT
000977:                                                                                                  #                     PARENTHESES IS MAGNITUDE LIMITED TO AHZLIM
000978:
000979: 31,3517           05364        P66                TC       PHASCHNG                              #  TERMINATE GROUP 3
000980: 31,3520           00003                           OCT      00003
000981:
000982: 31,3521           06042                           TC       INTPRET
000983: 31,3522           45234                           RTB      DSU                                   #  IS THERE TIME FOR P66?
000984: 31,3523           21574                                    LOADTIME
000985: 31,3524           01234                                    PIPTIME
000986: 31,3525           51021                           BDSU     BPL
000987: 31,3526           02500                                    2LATE466
000988: 31,3527           65067                                    P66HZ                                 #  Y: DOIT
000989: 31,3530           77414                           CLEAR    EXIT                                  #  N: OMIT
000990: 31,3531           00663                                    RODFLAG
000991:
000992: 31,3532           41354                           CS       TOOFEW                                #  INITIALIZE CNTTHROT TO TOOFEW AND LOAD
000993: 31,3533           57623                           XCH      CNTTHROT                              #  ACCUMULATOR WITH ITS PREVIOUS CONTENTS
000994: 31,3534           00006                           EXTEND                                         #  TOO FEW THROTTLINGS SINCE LAST OMISSION?
000995: 31,3535           63537                           BZMF     OMITWALM
000996:
000997: 31,3536           13437                           TCF      DISPEX66                              #  N: PERMIT OMISSION SANS ALARM
000998:
000999: 31,3537           00004        OMITWALM           INHINT
001000: 31,3540           04616                           TC       BANKCALL
001001: 31,3541           40166                           CADR     STOPRATE
001002: 31,3542           05600                           TC       ALARM                                 #  Y: PERMIT OMISSION WITH ALARM
001003: 31,3543           01466                           OCT      01466
001004:
001005: 31,3544           13437                           TCF      DISPEX66
001006:


001008:                                                                                                  #  ****************************************************************************************************************
001009:                                                                                                  #  GUIDANCE FOR P66
001010:                                                                                                  #  ****************************************************************************************************************
001011:
001012: 32,2000                                           SETLOC   P66LOC
001013: 32,2000                                           BANK
001014: 32,3067                                           COUNT*   $$/F2DPS
001015:
001016: 32,3067           74375        P66HZ              VLOAD    VXSC
001017: 32,3070           03253                                    UNFC/2                                #  P63, P64, & P66 UNITS 2(-4)M/CS/CS
001018: 32,3071           02476                                    QHZ
001019: 32,3072           52315                           PDVL     VSU
001020: 32,3073           03434                                    VHZC                                  #  IN 2(7)M/CS
001021: 32,3074           03527                                    V                                     #  IN 2(7)M/CS
001022: 32,3075           52341                           V/SC     VSU                                   #  YIELDS UNLIM HZ ACCEL CMD, 2(-4)M/CS/CS
001023: 32,3076           02475                                    TAUHZ                                 #  IN 2(1))CS
001024: 32,3077           77776                           EXIT
001025:
001026: 32,3100           35031                           CA       PRIO21                                #  ASSURE THIS SERVICER JOB ENDS
001027: 32,3101           05146                           TC       PRIOCHNG                              #  BEFORE NEXT SERVICER JOB BEGINS
001028:
001029: 32,3102           33425                           CA       GHZ
001030: 32,3103           54154                           TS       MPAC                                  #  X COMPONENT = G
001031:
001032: 32,3104           35014                           CA       EBANK5
001033: 32,3105           54003                           TS       EBANK
001034: 32,3106  E5,1774                                  EBANK=   END-E5
001035:
001036: 32,3106           22157                           LXCH     MPAC       +3
001037: 32,3107           31476                           CA       AHZLIM
001038: 32,3110           04616                           TC       BANKCALL
001039: 32,3111           61712                           FCADR    LIMITSUB
001040: 32,3112           54157                           TS       MPAC       +3                         #  Y COMPONENT LIMITED TO AHZLIM
001041:
001042: 32,3113           22161                           LXCH     MPAC       +5
001043: 32,3114           31476                           CA       AHZLIM
001044: 32,3115           04616                           TC       BANKCALL
001045: 32,3116           61712                           FCADR    LIMITSUB
001046: 32,3117           54161                           TS       MPAC       +5                         #  Z COMPONENT LIMITED TO AHZLIM
001047:
001048: 32,3120           35016                           CA       EBANK7
001049: 32,3121           54003                           TS       EBANK
001050: 32,3122  E7,1777                                  EBANK=   END-E7
001051:
001052: 32,3122           30121                           CA       OVFIND                                #  OVERFLOW?
001053: 32,3123           00006                           EXTEND
001054: 32,3124           13130                           BZF      ENGARM?                               #  N: KEEP CHECKING
001055: 32,3125           04616                           TC       BANKCALL                              #  Y: TAKE REMEDIAL ACTION
001056: 32,3126           63736                           FCADR    OVFDESC                               #     AND
001057: 32,3127           13157                           TCF      P66VERT                               #     SKIP ISSUANCE OF HZ CMDS
001058:


001060: 32,3130           34751        ENGARM?            CA       BIT3                                  #  IS ENGINE ARM SWITCH STILL ON?
001061: 32,3131           00006                           EXTEND
001062: 32,3132           02030                           RAND     CHAN30
001063: 32,3133           00006                           EXTEND
001064: 32,3134           13141                           BZF      CDUWHZ                                #  Y: ISSUE HZ CMDS
001065:
001066: 32,3135           30074                           CA       FLAGWRD0                              #  N: HAVE WE PROCEEDED AFTER TOUCHDOWN?
001067: 32,3136           74753                           MASK     P66PROBT
001068: 32,3137           00006                           EXTEND
001069: 32,3140           13147                           BZF      ASTROPRO                              #  Y: PREVENT RCS FIRINGS
001070: 32,3141           06042        CDUWHZ             TC       INTPRET                               #  N: ISSUE HZ CMDS
001071: 32,3142           03253                           STORE    UNFC/2                                #  MUST STORE FOR SUCCEEDING PASS
001072: 32,3143           77624                           CALL
001073: 32,3144           61074                                    FINDCDUW
001074: 32,3145           77776                           EXIT
001075:
001076: 32,3146           13157                           TCF      P66VERT
001077:
001078: 32,3147           33424        ASTROPRO           CA       IDLADR                                #  Y: PREVENT RCS JET FIRINGS
001079: 32,3150           55263                           TS       T5ADR                                 #     AND
001080: 32,3151           13157                           TCF      P66VERT                               #     SKIP HZ CMDS, BUT CONTINUE DISPLAYS
001081:
001082:                                                                                                  #  ***************************************************************************************************************
001083:                                                                                                  #  P66 VERTICAL CHANNEL
001084:                                                                                                  #  ***************************************************************************************************************
001085:
001086: 32,3152           37713        RODTASK            CA       PRIO22                                #  BUMPS ALL OF SERVICER JOB EXCEPT RODCOMP
001087: 32,3153           05105                           TC       FINDVAC
001088: 32,3154  E7,1515                                  EBANK=   DVCNTR
001089: 32,3154           03162 64067                     2CADR    RODCOMP
001090: 32,3156           15272                           TCF      TASKOVER
001091:
001092: 32,3157           34777        P66VERT            CA       1SEC
001093: 32,3160           05204                           TC       TWIDDLE
001094: 32,3161           03152                           ADRES    RODTASK
001095:
001096: 32,3162           37714        RODCOMP            CA       PRIO23                                #  LET ONLY ONE JOB THRU RODCOMP AT A TIME
001097: 32,3163           05146                           TC       PRIOCHNG
001098:
001099: 32,3164           00004                           INHINT
001100:
001101: 32,3165           34755                           CAF      ZERO
001102: 32,3166           57746                           XCH      RODCOUNT
001103: 32,3167           00006                           EXTEND
001104: 32,3170           71756                           MP       RODSCAL1
001105: 32,3171           21645                           DAS      VDGVERT                               #  UPDATE DESTRED ALTITUDE RATE.
001106:
001107: 32,3172           34747                           CAF      BIT5                                  #  ARE WE IN AUTO THROTTLE?
001108: 32,3173           00006                           EXTEND
001109: 32,3174           02030                           RAND     CHAN30
001110: 32,3175           00006                           EXTEND
001111: 32,3176           13202                           BZF      RODCOMPA                              #  Y: CONTINUE ROD
001112:
001113: 32,3177           00006                           EXTEND                                         #  N: RESET VDGVERT TO CURRENT HDOT
001114: 32,3200           31474                           DCA      HDOTDISP
001115: 32,3201           53645                           DXCH     VDGVERT
001116:
001117:                                                                                                  #  READ THE PIPAS FOR P66
001118:
001119: 32,3202           00006        RODCOMPA           EXTEND
001120: 32,3203           30040                           DCA      PIPAX
001121: 32,3204           53764                           DXCH     OLDPIPAX                              #  CURRENT PIPA READINGS INTO OLDPIPAX,Y,Z
001122: 32,3205           52071                           DXCH     RUPTREG1                              #  SAVE PRIOR READINGS IN RUPTREG1,2,3
001123: 32,3206           30041                           CA       PIPAZ
001124: 32,3207           57765                           XCH      OLDPIPAZ
001125: 32,3210           56072                           XCH      RUPTREG3
001126:
001127: 32,3211           00006                           EXTEND                                         #  SNAPSHOT TIME OF PIPA READING.
001128: 32,3212           30025                           DCA      TIME2
001129: 32,3213           53762                           DXCH     THISTPIP
001130:
001131: 32,3214           03414                           TC       DEIMUBOB                              #  REFER CURRENT PIPAX READING TO THE CM
001132:
001133:                                                                                                  #  COMPUTE DELV SINCE PIPTIME. RETURN FROM DEIMUBOB WITH CORRECTED OLDPIPAX IN A
001134:                                                                                                  #  CURRENT P66 PIPA
001135: 32,3215           61157                           AD       PIPATMPX                              #  + PIPA BY PIPASR IF B4 COPYCYCL, 0 AFTER
001136: 32,3216           54154                           TS       MPAC                                  #  = DELV SINCE VALIDITY OF V, 2(14)CM/SEC
001137: 32,3217           31764                           CA       OLDPIPAY
001138: 32,3220           61160                           AD       PIPATMPY
001139: 32,3221           54157                           TS       MPAC       +3
001140: 32,3222           31765                           CA       OLDPIPAZ
001141: 32,3223           61161                           AD       PIPATMPZ
001142: 32,3224           54161                           TS       MPAC       +5
001143:
001144:                                                                                                  #  COMPUTE DELV SINCE THE LAST P66 PASS
001145:
001146: 32,3225           41763                           CS       OLDPIPAX                              #  - CURRENT P66 PIPA
001147: 32,3226           61253                           AD       TEMX                                  #  - PIPA BY PIPASR IF INTERVENING, ELSE 0
001148: 32,3227           60070                           AD       RUPTREG1                              #  + PIPA BY P66 ON THE LAST P66 PASS
001149: 32,3230           55766                           TS       DELVROD                               #  = -DELV SINCE LAST P66 PASS, 2(14)CM/SEC
001150: 32,3231           41764                           CS       OLDPIPAY
001151: 32,3232           61254                           AD       TEMY
001152: 32,3233           60071                           AD       RUPTREG2
001153:


001155: 32,3234           55770                           TS       DELVROD    +2
001156: 32,3235           41765                           CS       OLDPIPAZ
001157: 32,3236           61255                           AD       TEMZ
001158: 32,3237           60072                           AD       RUPTREG3
001159: 32,3240           55772                           TS       DELVROD    +4
001160:
001161: 32,3241           34755                           CAF      ZERO
001162: 32,3242           54155                           TS       MPAC       +1                         #  ZERO LO-ORDER MPAC COMPONENTS
001163: 32,3243           54160                           TS       MPAC       +4
001164: 32,3244           54162                           TS       MPAC       +6
001165: 32,3245           55253                           TS       TEMX                                  #  ZERO TEMX, TEMY, AND TEMZ SO WE WILL
001166: 32,3246           55254                           TS       TEMY                                  #        KNOW WHEN READACCS CHANGES THEM.
001167: 32,3247           55255                           TS       TEMZ
001168: 32,3250           44753                           CS       ONE
001169: 32,3251           54163                           TS       MODE
001170:
001171: 32,3252           06042                           TC       INTPRET
001172: 32,3253           65361        ITRPNT1            VXSC     PDDL                                  #  SCALE MPAC TO M/CS *2(-7) AND PUSH   (6)
001173: 32,3254           26074                                    KPIP1
001174: 32,3255           03762                                    THISTPIP
001175: 32,3256           77625                           DSU
001176: 32,3257           01234                                    PIPTIME
001177: 32,3260           00037                           STORE    30D                                   #  30-31D CONTAINS TIME IN CS SINCE PIPTIME
001178: 32,3261           63271                           DDV      PDVL                                  #                                       (8)
001179: 32,3262           27020                                    4SEC(28)
001180: 32,3263           01236                                    GDT/2
001181: 32,3264           74251                           VSU      VXSC                                  #                                       (6)
001182: 32,3265           02616                                    VBIAS
001183: 32,3266           53352                           VSL2     VAD
001184: 32,3267           03527                                    V
001185: 32,3270           45455                           VAD      STADR                                 #                                       (0)
001186: 32,3271           53746                           STOVL    24D                                   #  STORE UPDATED VELOCITY IN 24-29D
001187: 32,3272           03521                                    R
001188: 32,3273           77656                           UNIT
001189: 32,3274           00017                           STORE    14D
001190: 32,3275           72441                           DOT      SL1
001191: 32,3276           00031                                    24D
001192: 32,3277           17474                           STODL    HDOTDISP                              #  UPDATE ALTITUDE RATE FOR NOUN 60
001193: 32,3300           00037                                    30D
001194: 32,3301           41261                           SL       DMP
001195: 32,3302           20214                                    11D
001196: 32,3303           03474                                    HDOTDISP
001197: 32,3304           45215                           DAD      DSU
001198: 32,3305           00045                                    36D
001199: 32,3306           02333                                    /LAND/
001200: 32,3307           17775                           STODL    HCALC1                                #  UPDATE ALTITUDE FOR NOUN 60


001202: 32,3310           03474                                    HDOTDISP
001203: 32,3311           56221                           BDSU     DDV
001204: 32,3312           03645                                    VDGVERT
001205: 32,3313           02536                                    TAUROD
001206: 32,3314           51515                           PDVL     ABVAL                                 #                                       (2)
001207: 32,3315           01236                                    GDT/2
001208: 32,3316           60471                           DDV      SR2
001209: 32,3317           05652                                    GSCALE
001210: 32,3320           00025                           STORE    20D
001211: 32,3321           43234                           RTB      DAD                                   #                                       (0)
001212: 32,3322           47613                                    QTPROLOG                              #  QUICTRIG PRESERVES MPAC
001213: 32,3323           45115                           PDVL     CALL                                  #                                       (2)
001214: 32,3324           06516                                    UNITX                                 #  X AXIS IN NB COORDS
001215: 32,3325           47700                                    *NBSM*                                #  TRANSFORMS TO SM COORDS
001216: 32,3326           77641                           DOT
001217: 32,3327           00017                                    14D
001218: 32,3330           00027                           STORE    22D
001219: 32,3331           45465                           BDDV     STADR                                 #                                       (0)
001220: 32,3332           50313                           STOVL    /AFC/
001221: 32,3333           03767                                    DELVROD
001222: 32,3334           53361                           VXSC     VAD
001223: 32,3335           26074                                    KPIP1
001224: 32,3336           02616                                    VBIAS
001225: 32,3337           65246                           ABVAL    PDDL                                  #                                       (2)
001226: 32,3340           03762                                    THISTPIP
001227: 32,3341           65225                           DSU      PDDL                                  #                                       (4)
001228: 32,3342           03760                                    LASTTPIP
001229: 32,3343           03762                                    THISTPIP
001230: 32,3344           17760                           STODL    LASTTPIP                              #                                        (2)
001231: 32,3345           55271                           DDV      BDDV                                  #                                        (0)
001232: 32,3346           25430                                    SHFTFACT
001233: 32,3347           41325                           PDDL     DMP                                   #                                        (2)
001234: 32,3350           03611                                    FWEIGHT
001235: 32,3351           25427                                    BIT1H
001236: 32,3352           56271                           DDV      DDV
001237: 32,3353           01244                                    MASS
001238: 32,3354           22006                                    SCALEFAC
001239: 32,3355           65215                           DAD      PDDL                                  #                                        (4)
001240: 32,3356           00001                                    0D
001241: 32,3357           00025                                    20D
001242: 32,3360           45271                           DDV      DSU                                   #                                        (2)
001243: 32,3361           00027                                    22D
001244:


001246: 32,3362           43205                           DMP      DAD
001247: 32,3363           02540                                    LAG/TAU
001248: 32,3364           03464                                    /AFC/
001249: 32,3365           56325                           PDDL     DDV                                   #                                        (4)
001250: 32,3366           02544                                    MAXFORCE
001251: 32,3367           01244                                    MASS
001252: 32,3370           56325                           PDDL     DDV                                   #                                        (6)
001253: 32,3371           02542                                    MINFORCE
001254: 32,3372           01244                                    MASS
001255: 32,3373           44206                           PUSH     BDSU                                  #                                        (8)
001256: 32,3374           00003                                    2D
001257: 32,3375           71240                           BMN      DLOAD                                 #                                        (6)
001258: 32,3376           65404                                    AFCSPOT
001259: 32,3377           41545                           DLOAD    PUSH                                  #                                        (6)
001260: 32,3400           51021                           BDSU     BPL
001261: 32,3401           00003                                    2D
001262: 32,3402           65404                                    AFCSPOT
001263: 32,3403           77745                           DLOAD                                          #                                        (4)
001264: 32,3404           77745        AFCSPOT            DLOAD                                          #                             (2),(4),OR (6)
001265: 32,3405           77601                           SETPD                                          #                                        (2)
001266: 32,3406           00003                                    2D
001267: 32,3407           17464                           STODL    /AFC/                                 #                                        (0)
001268: 32,3410           77776        ITRPNT2            EXIT
001269: 32,3411           52155                           DXCH     MPAC                                  #  MPAC = MEASURED ACCELERATION.
001270: 32,3412           04635                           TC       POSTJUMP
001271: 32,3413           63514                           FCADR    THROT66
001272:
001273:                                                                                                  #  THE FOLLOWING SUBROUTINE REFERS THE X PIPA READING TO THE CENTER OF MASS
001274:                                                                                                  #  BY SUBTRACTING THOSE PIPA COUNTS PRODUCED BY VERTICAL IMU MOTION
001275:                                                                                                  #  RELATIVE TO THE CENTER OF MASS.  THE SPACECRAFT X AXIS IS ASSUMED
001276:                                                                                                  #  APPROXIMATELY VERTICAL.  THE EQUATION IS:
001277:
001278:                                                                                                  #           OLDPIPAX = OLDPIPAX - OMEGAQ RIMUZ
001279:
001280:                                                                                                  #  WHERE OLDPIPAX IS THE CURRENT P66 PIPA READING, OMEGAQ IS THE ATTITUDE
001281:                                                                                                  #  RATE ABOUT THE Q (Y) AXIS, AND RIMUZ IS THE Z COORDINATE OF THE IMU.
001282:
001283: 32,3414           35015        DEIMUBOB           CA       EBANK6
001284: 32,3415           54003                           TS       EBANK
001285: 32,3416  E6,1774                                  EBANK=   END-E6
001286: 32,3416           41422                           CS       OMEGAQ                                #  PITCH RATE IN UNITS 45 DEG/SEC
001287: 32,3417           24006                           INCR     BBANK
001288: 32,3420  E7,1777                                  EBANK=   END-E7
001289: 32,3420           00006                           EXTEND
001290: 32,3421           73433                           MP       RIMUZ                                 #  IMU Z IN UNITS (180/PI 45) 2(14) CM
001291: 32,3422           27763                           ADS      OLDPIPAX                              #  CURRENT P66 PIPA X IN UNITS 2(14) CM/SEC
001292: 32,3423           00002                           TC       Q
001293:


001295:                                                                                                  #  CONSTANTS FOR P66
001296:
001297: 32,3424           02024        IDLADR             GENADR   DAPIDLER
001298: 32,3425           00053        GHZ                DEC      1.62292    E-4        B+4             #  GRAVITY IN 2(-4)M/CS/CS
001299:
001300: 32,3426           00001        BIT1H              OCT      00001                                 #  MUST PRECEDE A ZERO
001301: 32,3427           00000 04000  SHFTFACT           2DEC     1          B-17                       #  SCALES P66 PERIOD TO 2(1))CS
001302: 32,3431           00000 05075  BIASFACT           2DEC     655.36     B-26
001303: 32,3433           00143        RIMUZ              DEC      99.486     B-14                       #  1.2667 M IN UNITS (180/PI 45) 2(14) CM
001304:


001306:                                                                                                  #  ****************************************************************************************************************
001307:                                                                                                  #  REDESIGNATOR TRAP
001308:                                                                                                  #  ****************************************************************************************************************
001309:
001310:                                                                                                  #  END INSERT
001311: 11,2302                                           BANK     11
001312: 11,2000                                           SETLOC   F2DPS*11
001313: 11,2000                                           BANK
001314:
001315: 11,2302                                           COUNT*   $$/F2DPS
001316:
001317: 11,2302           56016        PITFALL            XCH      BANKRUPT
001318: 11,2303           00006                           EXTEND
001319: 11,2304           22012                           QXCH     QRUPT
001320:
001321: 11,2305           05332                           TC       CHECKMM                               #  IF NOT IN P64, NO REASON TO CONTINUE
001322: 11,2306           00100                           DEC      64         B-14
001323: 11,2307           15301                           TCF      RESUME
001324:
001325: 11,2310           00006                           EXTEND
001326: 11,2311           00031                           READ     CHAN31
001327: 11,2312           40000                           COM
001328: 11,2313           72401                           MASK     ALL4BITS
001329: 11,2314           55647                           TS       ELVIRA
001330: 11,2315           34752                           CAF      TWO
001331: 11,2316           55646                           TS       ZERLINA
001332: 11,2317           34756                           CAF      FIVE
001333: 11,2320           05204                           TC       TWIDDLE
001334: 11,2321           02326                           ADRES    REDESMON
001335: 11,2322           15301                           TCF      RESUME
001336:
001337:
001338:                                                                                                  #  REDESIGNATION MONITOR (INITIATED BY PITFALL)
001339:
001340:
001341: 11,2323           55646        PREMON1            TS       ZERLINA
001342: 11,2324           34757        PREMON2            CAF      SEVEN
001343: 11,2325           05235                           TC       VARDELAY
001344: 11,2326           00006        REDESMON           EXTEND
001345: 11,2327           00031                           READ     31
001346: 11,2330           40000                           COM
001347: 11,2331           72401                           MASK     ALL4BITS
001348: 11,2332           57647                           XCH      ELVIRA
001349: 11,2333           54001                           TS       L
001350: 11,2334           11647                           CCS      ELVIRA                                #  DO ANY BITS APPEAR THIS PASS?
001351: 11,2335           12324                           TCF      PREMON2                               #    Y: CONTINUE MONITOR
001352:
001353: 11,2336           10001                           CCS      L                                     #    N: ANY LAST PASS?
001354: 11,2337           12347                           TCF      COUNT'EM                              #       Y: COUNT 'EM, RESET RUPT, TERMINATE
001355: 11,2340           11646                           CCS      ZERLINA                               #       N: HAS ZERLINA REACHED ZERO YET?
001356:


001358: 11,2341           12323                           TCF      PREMON1                               #       N: DIMINISH ZERLINA, CONTINUE
001359: 11,2342           06022        RESETRPT           TC       C13STALL                              #       Y: RESET RUPT, TERMINATE
001360: 11,2343           34740                           CAF      BIT12
001361: 11,2344           00006                           EXTEND
001362: 11,2345           05013                           WOR      CHAN13
001363: 11,2346           15272                           TCF      TASKOVER
001364:
001365: 11,2347           34737        COUNT'EM           CAF      BIT13                                 #  ARE WE IN ATTITUDE-HOLD?
001366: 11,2350           00006                           EXTEND
001367: 11,2351           02031                           RAND     CHAN31
001368: 11,2352           00006                           EXTEND
001369: 11,2353           12342                           BZF      RESETRPT                              #  YES: SKIP REDESIGNATION LOGIC.
001370:
001371: 11,2354           30001                           CA       L                                     #  NO
001372: 11,2355           74746                           MASK     -AZBIT
001373: 11,2356           10000                           CCS      A
001374: 11,2357           42402        -AZ                CS       AZEACH
001375: 11,2360           27644                           ADS      AZINCR1
001376: 11,2361           30001                           CA       L
001377: 11,2362           74747                           MASK     +AZBIT
001378: 11,2363           10000                           CCS      A
001379: 11,2364           32402        +AZ                CA       AZEACH
001380: 11,2365           27644                           ADS      AZINCR1
001381: 11,2366           30001                           CA       L
001382: 11,2367           74753                           MASK     -ELBIT
001383: 11,2370           10000                           CCS      A
001384: 11,2371           42403        -EL                CS       ELEACH
001385: 11,2372           27645                           ADS      ELINCR1
001386: 11,2373           30001                           CA       L
001387: 11,2374           74752                           MASK     +ELBIT
001388: 11,2375           10000                           CCS      A
001389: 11,2376           32403        +EL                CA       ELEACH
001390: 11,2377           27645                           ADS      ELINCR1
001391: 11,2400           12342                           TCF      RESETRPT
001392:
001393:                                                                                                  #  THESE EQUIVALENCIES ARE BASED ON GSOP CHAPTER 4, REVISION 16 OF P64LM
001394:
001395: 11,2401     4752               +ELBIT             =        BIT2                                  #  -PITCH
001396:
001397:
001398: 11,2401     4753               -ELBIT             =        BIT1                                  #  +PITCH
001399:
001400:
001401: 11,2401     4747               +AZBIT             =        BIT5
001402:
001403:
001404: 11,2401     4746               -AZBIT             =        BIT6
001405:


001407:
001408: 11,2401           00063        ALL4BITS           OCT      00063
001409:
001410:
001411: 11,2402           01074        AZEACH             DEC      .03491                                #  2 DEGREES
001412:
001413:
001414: 11,2403           00217        ELEACH             DEC      .00873                                #  1/2 DEGREE
001415:
001416:                                                                                                  #  ****************************************************************************************************************
001417:                                                                                                  #  R.O.D. TRAP
001418:                                                                                                  #  ************************************************************************
001419:
001420: 23,2000                                           SETLOC   RODTRAP
001421: 23,2000                                           BANK
001422: 23,2451                                           COUNT*   $$/F2DPS                              #  ****************************************
001423:
001424: 23,2451           74745        DESCBITS           MASK     BIT7                                  #  COME HERE FROM MARKRUPT CODING WITH BIT
001425: 23,2452           10000                           CCS      A                                     #    7 OR 6 OF CHANNEL 16 IN A: BIT 7 MEANS
001426: 23,2453           44752                           CS       TWO                                   #    - RATE INCREMENT, BIT 6 + INCREMENT
001427: 23,2454           64753                           AD       ONE
001428: 23,2455           27746                           ADS      RODCOUNT
001429: 23,2456           15301                           TCF      RESUME                                #  TRAP IS RESET WHEN SWITCH IS RELEASED
001430:
001431:
001432: 31,3545                                           BANK     31
001433: 31,2000                                           SETLOC   F2DPS*31
001434: 31,2000                                           BANK
001435:
001436: 31,3545                                           COUNT*   $$/F2DPS
001437:
001438:                                                                                                  #  ****************************************************************************************************************
001439:                                                                                                  #  DOUBLE PRECISION ROOT FINDER SUBROUTINE (BY ALLAN KLUMPP)
001440:                                                                                                  #  ****************************************************************************************************************
001441:
001442:                                                                                                  #                                                          N        N-1
001443:                                                                                                  #           ROOTPSRS FINDS ONE ROOT OF THE POWER SERIES A X  + A   X    + ... + A X + A
001444:                                                                                                  #                                                        N      N-1              1     0
001445:
001446:                                                                                                  #  USING NEWTON'S METHOD STARTING WITH AN INITIAL GUESS FOR THE ROOT.  THE ENTERING DATA MUST BE AS FOLLOWS:
001447:
001448:                                                                                                  #                                          A        SP     LOC-3            ADRES FOR REFERENCING PWR COF TABL
001449:                                                                                                  #                                          L        SP     N-1              N IS THE DEGREE OF THE POWER SERIES
001450:                                                                                                  #                                          MPAC     DP     X                INITIAL GUESS FOR ROOT
001451:
001452:                                                                                                  #                                          LOC-2N   DP     A(0)
001453:                                                                                                  #                                                   ...
001454:                                                                                                  #                                          LOC      DP     A(N)
001455:                                                                                                  #                                          LOC+2    SP     PRECROOT         PREC RQD OF ROOT (AS FRACT OF 1ST GUESS)
001456:
001457:                                                                                                  #  THE DP RESULT IS LEFT IN MPAC UPON EXIT, AND A SP COUNT OF THE ITERATIONS TO CONVERGENCE IS LEFT IN MPAC+2.
001458:                                                                                                  #  RETURN IS NORMALLY TO LOC(TC ROOTPSRS)+3.   IF ROOTPSRS FAILS TO CONVERGE IN 8 PASSES, RETURN IS TO LOC+1 AND
001459:                                                                                                  #  OUTPUTS ARE NOT TO BE TRUSTED.
001460:
001461:                                                                                                  #           PRECAUTION: ROOTPSRS MAKES NO CHECKS FOR OVERFLOW OR FOR IMPROPER USAGE. IMPROPER USAGE COULD
001462:                                                                                                  #  PRECLUDE CONVERGENCE OR REQUIRE EXCESSIVE ITERATIONS. AS A SPECIFIC EXAMPLE, ROOTPSRS FORMS A DERIVATIVE
001463:                                                                                                  #  COEFFICIENT TABLE BY MULTIPLYING EACH A(I) BY I, WHERE I RANGES FROM 1 TO N. IF AN ELEMENT OF THE DERIVATIVE
001464:                                                                                                  #  COEFFICIENT TABLE = 1 OR > 1 IN MAGNITUDE, ONLY THE EXCESS IS RETAINED. ROOTPSRS MAY CONVERGE ON THE CORRECT
001465:                                                                                                  #  ROOT NONETHELESS, BUT IT MAY TAKE AN EXCESSIVE NUMBER OF ITERATIONS. THEREFORE THE USER SHOULD RECOGNIZE:
001466:
001467:                                                                                                  #  1. USER'S RESPONSIBILITY TO ASSURE THAT I X A(I) < 1 IN MAGNITUDE FOR ALL I.
001468:
001469:                                                                                                  #  2. USER'S RESPONSIBILITY TO ASSURE OVERFLOW WILL NOT OCCUR IN EVALUATING EITHER THE RESIDUAL OR THE DERIVATIVE
001470:                                                                                                  #     POWER SERIES.   THIS OVERFLOW WOULD BE PRODUCED BY SUBROUTINE POWRSERS, CALLED BY ROOTPSRS, AND MIGHT NOT
001471:                                                                                                  #     PRECLUDE EVENTUAL CONVERGENCE.
001472:


001474:                                                                                                  #  3. AT PRESENT, ERASABLE LOCATIONS ARE RESERVED ONLY FOR N UP TO 5.  AN N IN EXCESS OF 5 WILL PRODUCE CHAOS.
001475:                                                                                                  #     ALL ERASABLES USED BY ROOTPSRS ARE UNSWITCHED LOCATED IN THE REGION FROM MPAC-33 OCT TO MPAC+7.
001476:
001477:                                                                                                  #  4. THE ITERATION COUNT RETURNED IN MPAC+2 MAY BE USED TO DETECT ABNORMAL PERFORMANCE.
001478:
001479:                                                                                                  #  STORE ENTERING DATA, INITLIZE ERASABLES
001480:
001481: 31,3545           00006        ROOTPSRS           EXTEND
001482: 31,3546           22132                           QXCH     RETROOT                               #  RETURN ADRES
001483: 31,3547           54117                           TS       PWRPTR                                #  PWR TABL POINTER
001484: 31,3550           52160                           DXCH     MPAC       +3                         #  PWR TABL ADRES, N-1
001485: 31,3551           33670                           CA       DERTABLL
001486: 31,3552           54141                           TS       DERPTR                                #  DER TABL POINTER
001487: 31,3553           54161                           TS       MPAC       +5                         #  DER TABL ADRES
001488: 31,3554           10160                           CCS      MPAC       +4                         #  NO POWER SERIES OF DEGREE 1 OR LESS
001489: 31,3555           54162                           TS       MPAC       +6                         #  N-2
001490: 31,3556           34755                           CA       ZERO                                  #  MODE USED AS ITERATION COUNTER. MODE
001491: 31,3557           54163                           TS       MODE                                  #  MUST BE POS SO ABS WON'T COMP MPAC+3 ETC
001492:
001493:                                                                                                  #  COMPUTE CRITERION TO STOP ITERATING
001494:
001495: 31,3560           00006                           EXTEND
001496: 31,3561           30155                           DCA      MPAC                                  #  FETCH ROOT GUESS, KEEPING IT IN MPAC
001497: 31,3562           52127                           DXCH     ROOTPS                                #  AND IN ROOTPS
001498: 31,3563           50157                           INDEX    MPAC       +3                         #  PWR TABL ADRES
001499: 31,3564           30005                           CA       5                                     #  PRECROOT TO A
001500: 31,3565           07312                           TC       SHORTMP                               #  YIELDS DP PRODUCT IN MPAC
001501: 31,3566           04713                           TC       USPRCADR
001502: 31,3567           01226                           CADR     ABS                                   #  YIELDS ABVAL OF CRITERION ON DX IN MPAC
001503: 31,3570           52155                           DXCH     MPAC
001504: 31,3571           52125                           DXCH     DXCRIT                                #  CRITERION
001505:
001506:                                                                                                  #  SET UP DER COF TABL
001507:
001508: 31,3572           00006                           EXTEND
001509: 31,3573           50117                           INDEX    PWRPTR
001510: 31,3574           30004                           DCA      3
001511: 31,3575           52155                           DXCH     MPAC                                  #  A(N) TO MPAC
001512:
001513: 31,3576           30160                           CA       MPAC       +4                         #  N-1 TO A
001514:
001515: 31,3577           54140        DERCLOOP           TS       PWRCNT                                #  LOOP COUNTER
001516: 31,3600           64753                           AD       ONE
001517: 31,3601           07321                           TC       DMPNSUB                               #  YIELDS DERCOF = I X A(I) IN MPAC
001518: 31,3602           00006                           EXTEND
001519: 31,3603           50117                           INDEX    PWRPTR
001520: 31,3604           30002                           DCA      1
001521: 31,3605           52155                           DXCH     MPAC                                  #  A(I-1) TO MPAC, FETCHING DERCOF
001522: 31,3606           50141                           INDEX    DERPTR
001523: 31,3607           52004                           DXCH     3                                     #  DERCOF TO DER TABL
001524:


001526: 31,3610           44752                           CS       TWO
001527: 31,3611           26117                           ADS      PWRPTR                                #  DECREMENT PWR POINTER
001528: 31,3612           44752                           CS       TWO
001529: 31,3613           26141                           ADS      DERPTR                                #  DECREMENT DER POINTER
001530: 31,3614           10140                           CCS      PWRCNT
001531: 31,3615           13577                           TCF      DERCLOOP
001532:
001533:                                                                                                  #  CONVERGE ON ROOT
001534:
001535: 31,3616           00006        ROOTLOOP           EXTEND
001536: 31,3617           30127                           DCA      ROOTPS                                #  FETCH CURRENT ROOT
001537: 31,3620           52155                           DXCH     MPAC                                  #  LEAVE IN MPAC
001538: 31,3621           00006                           EXTEND
001539: 31,3622           30162                           DCA      MPAC       +5                         #  LOAD A, L WITH DER TABL ADRES, N-2
001540: 31,3623           07220                           TC       POWRSERS                              #  YIELDS DERIVATIVE IN MPAC
001541:
001542: 31,3624           00006                           EXTEND
001543: 31,3625           30127                           DCA      ROOTPS
001544: 31,3626           52155                           DXCH     MPAC                                  #  CURRENT ROOT TO MPAC, FETCHING DERIVTIVE
001545: 31,3627           52131                           DXCH     BUF                                   #  LEAVE DERIVATIVE IN BUF AS DIVISOR
001546: 31,3630           00006                           EXTEND
001547: 31,3631           30160                           DCA      MPAC       +3                         #  LOAD A, L WITH PWR TABL ADRES, N-1
001548: 31,3632           07220                           TC       POWRSERS                              #  YIELDS RESIDUAL IN MPAC
001549:
001550: 31,3633           04713                           TC       USPRCADR
001551: 31,3634           00353                           CADR     DDV/BDDV                              #  YIELDS -DX IN MPAC
001552:
001553: 31,3635           00006                           EXTEND
001554: 31,3636           40155                           DCS      MPAC                                  #  FETCH DX, LEAVING -DX IN MPAC
001555: 31,3637           20127                           DAS      ROOTPS                                #  CORRECTED ROOT NOW IN ROOTPS
001556:
001557: 31,3640           04713                           TC       USPRCADR
001558: 31,3641           01226                           CADR     ABS                                   #  YIELDS ABS(DX) IN MPAC
001559: 31,3642           00006                           EXTEND
001560: 31,3643           40125                           DCS      DXCRIT
001561: 31,3644           20155                           DAS      MPAC                                  #  ABS(DX)-ABS(DXCRIT) IN MPAC
001562:
001563: 31,3645           30163                           CA       MODE
001564: 31,3646           74750                           MASK     BIT4                                  #  KLUMPP SAYS GIVE UP AFTER EIGHT PASSES
001565: 31,3647           10000                           CCS      A
001566: 31,3650           00132        BADROOT            TC       RETROOT
001567:
001568: 31,3651           24163                           INCR     MODE                                  #  INCREMENT ITERATION COUNTER
001569: 31,3652           10154                           CCS      MPAC                                  #  TEST HI ORDER DX
001570: 31,3653           13616                           TCF      ROOTLOOP
001571: 31,3654           13656                           TCF      TESTLODX
001572: 31,3655           13662                           TCF      ROOTSTOR
001573: 31,3656           10155        TESTLODX           CCS      MPAC       +1                         #  TEST LO ORDER DX
001574: 31,3657           13616                           TCF      ROOTLOOP
001575: 31,3660           13662                           TCF      ROOTSTOR
001576:


001578: 31,3661           13662                           TCF      ROOTSTOR
001579: 31,3662           52127        ROOTSTOR           DXCH     ROOTPS
001580: 31,3663           52155                           DXCH     MPAC
001581: 31,3664           30163                           CA       MODE
001582: 31,3665           54156                           TS       MPAC       +2                         #  STORE SP ITERATION COUNT IN MPAC+2
001583: 31,3666           50132                           INDEX    RETROOT
001584: 31,3667           10002                           TCF      2
001585:
001586: 31,3670           00147        DERTABLL           ADRES    DERCOFN    -3
001587:
001588:
001589:                                                                                                  #  ****************************************************************************************************************
001590:                                                                                                  #  TRASHY LITTLE SUBROUTINES
001591:                                                                                                  #  ****************************************************************************************************************
001592:
001593: 31,3671           34755        ZEROMID            CAF      ZERO                                  #  ROUTINE TO ZERO THE MIDDLE COMPONENT
001594: 31,3672           54157                           TS       MPAC       +3                         #    OF A VECTOR IN MPAC.   "TCF DANZIG"
001595: 31,3673           54160                           TS       MPAC       +4                         #    COULD BE A "TC Q" AT THE EXPENSE OF
001596: 31,3674           16064                           TCF      DANZIG                                #    A TINY AMOUNT OF TIME.
001597:
001598:
001599: 31,3675           51346        INTPRETX           INDEX    WCHPHASE                              #  SET X1 ON THE WAY TO THE INTERPRETER
001600: 31,3676           42415                           CS       TARGTDEX
001601: 31,3677           50120                           INDEX    FIXLOC
001602: 31,3700           54046                           TS       X1
001603: 31,3701           16042                           TCF      INTPRET
001604:
001605: 31,3702           31642        TDISPSET           CA       TTF/8
001606: 31,3703           00006                           EXTEND
001607: 31,3704           74750                           MP       TSCALINV
001608: 31,3705           53476                           DXCH     TTFDISP
001609:
001610: 31,3706           35014                           CA       EBANK5                                #  TREDES BECOMES ZERO TWO PASSES
001611: 31,3707           54003                           TS       EBANK                                 #    BEFORE TCGFAPPR IS REACHED
001612: 31,3710  E5,1454                                  EBANK=   TCGFAPPR
001613: 31,3710           31454                           CA       TCGFAPPR
001614: 31,3711           24006                           INCR     BBANK
001615: 31,3712           24006                           INCR     BBANK
001616: 31,3713  E7,1642                                  EBANK=   TTF/8
001617: 31,3713           61642                           AD       TTF/8
001618: 31,3714           00006                           EXTEND
001619: 31,3715           73763                           MP       TREDESCL
001620: 31,3716           63760                           AD       -DEC103
001621: 31,3717           64735                           AD       NEGMAX
001622: 31,3720           54001                           TS       L
001623: 31,3721           40001                           CS       L
001624: 31,3722           60001                           AD       L
001625: 31,3723           63762                           AD       +DEC99
001626: 31,3724           64733                           AD       POSMAX
001627:


001629: 31,3725           55666                           TS       TREDES
001630: 31,3726           41666                           CS       TREDES
001631: 31,3727           27666                           ADS      TREDES
001632: 31,3730           00002                           TC       Q
001633:
001634:
001635: 31,3731           05653        1406POO            TC       POODOO
001636: 31,3732           21406                           OCT      21406
001637: 31,3733           05600        1406ALM            TC       ALARM
001638: 31,3734           01406                           OCT      01406
001639: 31,3735           13421                           TCF      RATESTOP
001640:
001641:                                                                                                  #  DESCENT OVERFLOW SUBROUTINE
001642: 31,3736           00006        OVFDESC            EXTEND
001643: 31,3737           23456                           QXCH     OVFRET
001644:
001645: 31,3740           05600                           TC       ALARM
001646: 31,3741           01410                           OCT      01410
001647:
001648: 31,3742           00004                           INHINT                                         #  MUST USE INHINT, IBNKCALL, RELINT
001649: 31,3743           04674                           TC       IBNKCALL                              #  BECAUSE DAP COULD INTERRUPT STOPRATE AND
001650: 31,3744           40166                           FCADR    STOPRATE                              #  BECAUSE WE COME FROM P66HZ VIA BANKCALL
001651: 31,3745           00003                           RELINT
001652:
001653: 31,3746           34755                           CA       ZERO
001654: 31,3747           54121                           TS       OVFIND
001655:
001656: 31,3750           01456                           TC       OVFRET
001657:


001659:
001660:                                                                                                  #  ****************************************************************************************************************
001661:                                                                                                  #  SPECIALIZED "PHASCHNG" SUBROUTINE
001662:                                                                                                  #  ****************************************************************************************************************
001663:
001664: 31,3751  E3,1440                                  EBANK=   PHSNAME2
001665: 31,3751           35007        FASTCHNG           CA       EBANK3                                #  SPECIALIZED 'PHASCHNG' ROUTINE
001666: 31,3752           56003                           XCH      EBANK
001667: 31,3753           52002                           DXCH     L
001668: 31,3754           55442                           TS       PHSNAME3
001669: 31,3755           22003                           LXCH     EBANK
001670: 31,3756  E7,1621                                  EBANK=   E2DPS
001671: 31,3756           00000                           TC       A
001672:
001673:                                                                                                  #  ****************************************************************************************************************
001674:                                                                                                  #  PARAMETER TABLE INDIRECT ADDRESSES
001675:                                                                                                  #  ****************************************************************************************************************
001676:
001677: 31,3757  E5,1402               RDG                =        RBRFGX
001678: 31,3757  E5,1412               VDG                =        VBRFGX
001679: 31,3757  E5,1422               ADG                =        ABRFGX
001680: 31,3757  E5,1432               VDG2TTF            =        VBRFG*
001681: 31,3757  E5,1436               ADG2TTF            =        ABRFG*
001682: 31,3757  E5,1442               JDG2TTF            =        JBRFG*
001683:
001684:                                                                                                  #  ****************************************************************************************************************
001685:                                                                                                  #  LUNAR LANDING CONSTANTS
001686:                                                                                                  #  ***************************************************************************************************************
001687:
001688: 31,3757           01565        TABLTTFL           ADRES    TABLTTF    +3                         #  ADDRESS FOR REFERENCING TTF TABLE
001689:
001690:
001691: 31,3760     4740               TTFSCALE           =        BIT12
001692:
001693:
001694: 31,3760     4750               TSCALINV           =        BIT4
001695:
001696:
001697: 31,3760           77630        -DEC103            DEC      -103       B-14
001698:
001699:
001700: 31,3761           00155        P64DB              OCT      00155                                 #  0.3 DEGREES SCALED AT CDU SCALING
001701:
001702:
001703: 31,3762           00143        +DEC99             DEC      +99        B-14
001704:
001705:
001706: 31,3763           75340        TREDESCL           DEC      -.08
001707:


001709: 31,3764           00264        180DEGS            DEC      +180       B-14
001710:
001711:
001712: 31,3765           00056        1/2DEG             DEC      +.00278
001713:
001714:
001715: 31,3766           01542        PROJMAX            DEC      .42262     B-3                        #  SIN(25')/8 TO COMPARE WITH PROJ
001716:
001717:
001718: 31,3767           01022        PROJMIN            DEC      .25882     B-3                        #  SIN(15')/8 TO COMPARE WITH PROJ
001719:
001720:
001721: 31,3770           01477        V06N63             VN       0663                                  #  P63
001722:
001723: 31,3771           01500        V06N64             VN       0664                                  #  P64
001724:
001725: 31,3772           01474        V06N60             VN       0660                                  #  P65, P66, P67
001726:
001727:
001728: 22,3647                                           BANK     22
001729: 22,2000                                           SETLOC   LANDCNST
001730: 22,2000                                           BANK
001731: 22,3647                                           COUNT*   $$/F2DPS
001732:
001733: 22,3647           00021 14161  HIGHESTF           2DEC     4.34546769 B-12
001734: 22,3651           01440 00000  GSCALE             2DEC     100        B-11
001735: 22,3653           14000 00000  3/8DP              2DEC     .375
001736: 22,3655           30000 00000  3/4DP              2DEC     .750
001737: 22,3657           77534 45074  DEPRCRIT           2DEC     -.02       B-1
001738:                                                                                                  #  ****************************************************************************************************************
001739:                                                                                                  #  ****************************************************************************************************************

End of include-file LUNAR_LANDING_GUIDANCE_EQUATIONS.agc.  Parent file is MAIN.agc


