
Source Code


000002:                                                                                                  ## Copyright:   Public domain.
000003:                                                                                                  ## Filename:    P12.agc
000004:                                                                                                  ## Purpose:     A section of Luminary revision 173.
000005:                                                                                                  ##              It is part of the reconstructed source code for the second
000006:                                                                                                  ##              (unflown) release of the flight software for the Lunar
000007:                                                                                                  ##              Module's (LM) Apollo Guidance Computer (AGC) for Apollo 14.
000008:                                                                                                  ##              The code has been recreated from a reconstructed copy of
000009:                                                                                                  ##              Luminary 178, as well as Luminary memo 167 (revision 1).
000010:                                                                                                  ##              It has been adapted such that the resulting bugger words
000011:                                                                                                  ##              exactly match those specified for Luminary 173 in NASA
000012:                                                                                                  ##              drawing 2021152N, which gives relatively high confidence
000013:                                                                                                  ##              that the reconstruction is correct.
000014:                                                                                                  ## Reference:   pp. 829-833
000015:                                                                                                  ## Assembler:   yaYUL
000016:                                                                                                  ## Contact:     Ron Burkey <info@sandroid.org>.
000017:                                                                                                  ## Website:     www.ibiblio.org/apollo/index.html
000018:                                                                                                  ## Mod history: 2019-09-18 MAS  Created from Luminary 178.
000019:                                                                                                  ##              2019-09-21 MAS  Added back initialization of ZAXIS1.
000020:


000022: 24,3642                                           BANK     24
000023: 30,2000                                           SETLOC   P12
000024: 30,2000                                           BANK
000025:
000026: 30,2061  E7,1515                                  EBANK=   DVCNTR
000027: 30,2061                                           COUNT*   $$/P12
000028:
000029: 30,2061           05364        P12LM              TC       PHASCHNG
000030: 30,2062           04024                           OCT      04024
000031:
000032: 30,2063           04616                           TC       BANKCALL
000033: 30,2064           11241                           CADR     R02BOTH                               #  CHECK THE STATUS OF THE IMU.
000034:
000035: 30,2065           36000                           CAF      THRESH2                               #  INITIALIZE DVMON
000036: 30,2066           55250                           TS       DVTHRUSH
000037: 30,2067           34751                           CAF      FOUR
000038: 30,2070           55515                           TS       DVCNTR
000039:
000040: 30,2071           33014                           CAF      V06N33A
000041: 30,2072           04616                           TC       BANKCALL                              #  FLASH TIG
000042: 30,2073           20477                           CADR     GOFLASH
000043: 30,2074           16001                           TCF      GOTOPOOH
000044: 30,2075           12077                           TCF      +2                                    #  PROCEED
000045: 30,2076           12071                           TCF      -5                                    #  ENTER
000046:
000047: 30,2077           05364                           TC       PHASCHNG
000048: 30,2100           04024                           OCT      04024
000049:
000050: 30,2101           06042                           TC       INTPRET
000051: 30,2102           43014                           SET      SET
000052: 30,2103           03067                                    MUNFLAG
000053: 30,2104           06464                                    ACC4-2FL
000054: 30,2105           43014                           SET      CLEAR
000055: 30,2106           00075                                    R10FLAG
000056: 30,2107           00270                                    RNDVZFLG
000057: 30,2110           43014                           SET      SET
000058: 30,2111           04464                                    FLPI
000059: 30,2112           04461                                    FLVR
000060: 30,2113           77624                           CALL
000061: 30,2114           71346                                    GUIDINIT
000062: 30,2115           77624                           CALL
000063: 30,2116           60246                                    P12INIT
000064: 30,2117           77745        P12LMB             DLOAD
000065: 30,2120           25641                                    (TGO)A                                #  SET TGO TO AN INITIAL NOMINAL VALUE.
000066: 30,2121           17517                           STODL    TGO
000067: 30,2122           03442                                    TIG
000068: 30,2123           34041                           STCALL   TDEC1
000069: 30,2124           27056                                    LEMPREC                               #  ROTATE THE STATE VECTORS TO THE
000070: 30,2125           64375                           VLOAD    MXV                                   #  IGNITION TIME.


000072: 30,2126           00007                                    VATT
000073: 30,2127           01732                                    REFSMMAT
000074: 30,2130           77772                           VSL1
000075: 30,2131           27601                           STOVL    V1S                                   #  COMPUTE V1S = VEL(TIG)*2(-7)M/CS.
000076: 30,2132           00001                                    RATT
000077: 30,2133           52521                           MXV      VSL6
000078: 30,2134           01732                                    REFSMMAT
000079: 30,2135           37521                           STCALL   R                                     #  COMPUTE R = POS(TIG)*2(-24) M.
000080: 30,2136           67000                                    MUNGRAV                               #  COMPUTE GDT1/2(TIG)*2(-7)M/CS.
000081: 30,2137           53575                           VLOAD    UNIT
000082: 30,2140           03521                                    R
000083: 30,2141           37537                           STCALL   UNIT/R/                               #  COMPUTE UNIT/R/ FOR YCOMP.
000084: 30,2142           57311                                    YCOMP
000085: 30,2143           57461                           SR       DCOMP
000086: 30,2144           20606                                    5D
000087: 30,2145           17643                           STODL    XRANGE                                #  INITIALIZE XRANGE FOR NOUN 76.
000088: 30,2146           31372                                    VINJNOM
000089: 30,2147           16277                           STODL    ZDOTD
000090: 30,2150           31374                                    RDOTDNOM
000091: 30,2151           02273                           STORE    RDOTD
000092: 30,2152           77776                           EXIT
000093:
000094: 30,2153           05364                           TC       PHASCHNG
000095: 30,2154           04024                           OCT      04024
000096:
000097: 30,2155           33013        NEWLOAD            CAF      V06N76                                #  FLASH CROSS-RANGE AND APOLUNE VALUES.
000098: 30,2156           04616                           TC       BANKCALL
000099: 30,2157           20477                           CADR     GOFLASH
000100: 30,2160           16001                           TCF      GOTOPOOH
000101: 30,2161           12163                           TCF      +2                                    #  PROCEED
000102: 30,2162           12155                           TCF      NEWLOAD                               #  ENTER NEW DATA.
000103:
000104: 30,2163           32311                           CAF      P12ADRES
000105: 30,2164           55455                           TS       WHICH
000106:
000107: 30,2165           05364                           TC       PHASCHNG
000108: 30,2166           04024                           OCT      04024
000109:
000110: 30,2167           06042                           TC       INTPRET
000111: 30,2170           54345                           DLOAD    SL
000112: 30,2171           03643                                    XRANGE
000113: 30,2172           20206                                    5D
000114: 30,2173           77615                           DAD
000115: 30,2174           02335                                    Y
000116: 30,2175           27633                           STOVL    YCO
000117: 30,2176           03537                                    UNIT/R/
000118: 30,2177           53361                           VXSC     VAD
000119: 30,2200           31370                                    49FPS
000120: 30,2201           03601                                    V1S
000121: 30,2202           03527                           STORE    V                                     #  V(TIPOVER) = V(IGN) + 57FPS (UNIT/R/)


000123: 30,2203           72441                           DOT      SL1
000124: 30,2204           03537                                    UNIT/R/
000125: 30,2205           27474                           STOVL    RDOT                                  #  RDOT * 2(-7)
000126: 30,2206           03537                                    UNIT/R/
000127: 30,2207           53435                           VXV      UNIT
000128: 30,2210           03720                                    QAXIS
000129: 30,2211           37726                           STCALL   ZAXIS1
000130: 30,2212           60312                                    ASCENT
000131: 30,2213           77745        P12RET             DLOAD
000132: 30,2214           02361                                    ATP                                   #  ATP(2)*2(18)
000133: 30,2215           65316                           DSQ      PDDL
000134: 30,2216           02355                                    ATY                                   #  ATY(2)*2(18)
000135: 30,2217           43316                           DSQ      DAD
000136: 30,2220           75454                           BZE      SQRT
000137: 30,2221           60225                                    YAWDUN
000138: 30,2222           55352                           SL1      BDDV
000139: 30,2223           02355                                    ATY
000140: 30,2224           77736                           ARCSIN
000141: 30,2225           26363        YAWDUN             STOVL    YAW
000142: 30,2226           03253                                    UNFC/2
000143: 30,2227           50256                           UNIT     DOT
000144: 30,2230           03537                                    UNIT/R/
000145: 30,2231           65552                           SL1      ARCCOS
000146: 30,2232           77676                           DCOMP
000147: 30,2233           02365                           STORE    PITCH
000148: 30,2234           77776                           EXIT
000149: 30,2235           05364                           TC       PHASCHNG
000150: 30,2236           04024                           OCT      04024
000151:
000152: 30,2237           00004                           INHINT
000153: 30,2240           04674                           TC       IBNKCALL
000154: 30,2241           40143                           CADR     PFLITEDB
000155: 30,2242           05527                           TC       DOWNFLAG
000156: 30,2243           00213                           ADRES    FLPI
000157:
000158: 30,2244           04635                           TC       POSTJUMP
000159: 30,2245           74130                           CADR     BURNBABY
000160:
000161: 30,2246           77745        P12INIT            DLOAD                                          #  INITIALIZE ENGINE DATA. USED FOR P12 AND
000162: 30,2247           16013                                    (1/DV)A                               #  P71.
000163: 30,2250           03641                           STORE    1/DV3
000164: 30,2251           03637                           STORE    1/DV2
000165: 30,2252           17635                           STODL    1/DV1
000166: 30,2253           16017                                    (AT)A
000167: 30,2254           16263                           STODL    AT
000168: 30,2255           16021                                    (TBUP)A
000169: 30,2256           16271                           STODL    TBUP
000170: 30,2257           34013                                    ATDECAY
000171: 30,2260           54276                           DCOMP    SL
000172: 30,2261           20214                                    11D
000173: 30,2262           02267                           STORE    TTO
000174: 30,2263           57535                           SLOAD    DCOMP
000175: 30,2264           26001                                    APSVEX
000176: 30,2265           77702                           SR2


000178: 30,2266           02265                           STORE    VE
000179: 30,2267           43414                           BOFF     RVQ
000180: 30,2270           04747                                    FLAP
000181: 30,2271           60272                                    COMMINIT
000182: 30,2272           43345        COMMINIT           DLOAD    DAD                                   #  INITIALIZE TARGET DATA. USED BY P12, P70
000183: 30,2273           25637                                    HINJECT                               #  AND P71 IF IT DOES NOT FOLLOW P70.
000184: 30,2274           02333                                    /LAND/
000185: 30,2275           17631                           STODL    RCO
000186: 30,2276           06520                                    HI6ZEROS
000187: 30,2277           03654                           STORE    TXO
000188: 30,2300           03633                           STORE    YCO
000189: 30,2301           26275                           STOVL    YDOTD
000190: 30,2302           01563                                    VRECTCSM
000191: 30,2303           64235                           VXV      MXV
000192: 30,2304           01555                                    RRECTCSM
000193: 30,2305           01732                                    REFSMMAT
000194: 30,2306           77656                           UNIT
000195: 30,2307           03720                           STORE    QAXIS
000196: 30,2310           77616                           RVQ
000197:
000198: 30,2311           02024        P12ADRES           REMADR   P12TABLE
000199:
000200: 34,2000                                           SETLOC   ASENT8
000201: 34,2000                                           BANK
000202: 34,3346                                           COUNT*   $$/P12
000203:
000204: 34,3346           40220        GUIDINIT           STQ      SETPD
000205: 34,3347           01163                                    TEMPR60
000206: 34,3350           00001                                    0D
000207: 34,3351           41575                           VLOAD    PUSH
000208: 34,3352           06512                                    UNITZ
000209: 34,3353           41434                           RTB      PUSH
000210: 34,3354           21574                                    LOADTIME
000211: 34,3355           77624                           CALL
000212: 34,3356           55720                                    RP-TO-R
000213: 34,3357           74321                           MXV      VXSC
000214: 34,3360           01732                                    REFSMMAT
000215: 34,3361           16027                                    MOONRATE
000216: 34,3362           26325                           STOVL    WM
000217: 34,3363           02021                                    RLS
000218: 34,3364           52446                           ABVAL    SL3
000219: 34,3365           36333                           STCALL   /LAND/
000220: 34,3366           01163                                    TEMPR60
000221:
000222: 34,3367           00046 07374  49FPS              2DEC     .149352    B-6                        #  EXPECTED RDOT AT TIPOVER
000223:
000224: 34,3371           04145 15527  VINJNOM            2DEC     16.7924    B-7                        #  5509.5 FPS(APO=30NM WITH RDOT=19.5FPS)
000225:
000226: 34,3373           00007 23346  RDOTDNOM           2DEC     .059436    B-7                        #  19.5 FPS
000227:


End of include-file P12.agc.  Parent file is MAIN.agc


