
Source Code


000002:                                                                                                  ## Copyright:   Public domain.
000003:                                                                                                  ## Filename:    R31.agc
000004:                                                                                                  ## Purpose:     A section of Luminary revision 173.
000005:                                                                                                  ##              It is part of the reconstructed source code for the second
000006:                                                                                                  ##              (unflown) release of the flight software for the Lunar
000007:                                                                                                  ##              Module's (LM) Apollo Guidance Computer (AGC) for Apollo 14.
000008:                                                                                                  ##              The code has been recreated from a reconstructed copy of
000009:                                                                                                  ##              Luminary 178, as well as Luminary memo 167 (revision 1).
000010:                                                                                                  ##              It has been adapted such that the resulting bugger words
000011:                                                                                                  ##              exactly match those specified for Luminary 173 in NASA
000012:                                                                                                  ##              drawing 2021152N, which gives relatively high confidence
000013:                                                                                                  ##              that the reconstruction is correct.
000014:                                                                                                  ## Reference:   pp. 698-702
000015:                                                                                                  ## Assembler:   yaYUL
000016:                                                                                                  ## Contact:     Ron Burkey <info@sandroid.org>.
000017:                                                                                                  ## Website:     www.ibiblio.org/apollo/index.html
000018:                                                                                                  ## Mod history: 2019-09-18 MAS  Created from Luminary 178.
000019:


000021: 40,3746                                           BANK     40
000022: 40,2000                                           SETLOC   R31LOC
000023: 40,2000                                           BANK
000024:
000025: 40,3746                                           COUNT*   $$/R31
000026:
000027: 40,3746           35015        R31CALL            CAF      PRIO3
000028: 40,3747           05105                           TC       FINDVAC
000029: 40,3750  E7,1470                                  EBANK=   SUBEXIT
000030: 40,3750           03113 76067                     2CADR    V83CALL
000031:
000032: 40,3752           05232        DSPDELAY           TC       FIXDELAY
000033: 40,3753           00144                           DEC      100        B-14
000034: 40,3754           31043                           CA       EXTVBACT
000035: 40,3755           74740                           MASK     BIT12
000036: 40,3756           00006                           EXTEND
000037: 40,3757           13752                           BZF      DSPDELAY
000038:
000039: 40,3760           35017                           CAF      PRIO5
000040: 40,3761           05072                           TC       NOVAC
000041: 40,3762  E7,1611                                  EBANK=   TSTRT
000042: 40,3762           03766 60107                     2CADR    DISPN5X
000043:
000044: 40,3764           15272                           TCF      TASKOVER
000045:
000046: 40,3765           04066        V16N54             VN       1654
000047: 40,3766           33765        DISPN5X            CAF      V16N54
000048: 40,3767           04616                           TC       BANKCALL
000049: 40,3770           20334                           CADR     GOMARKF
000050: 40,3771           05574                           TC       B5OFF
000051: 40,3772           05574                           TC       B5OFF
000052: 40,3773           13766                           TCF      DISPN5X
000053:
000054: 37,3113                                           BANK     37
000055: 37,2000                                           SETLOC   R31
000056: 37,2000                                           BANK
000057:
000058: 37,3113           40103        V83CALL            CS       FLAGWRD7                              #  TEST AVERAGE G FLAG
000059: 37,3114           74747                           MASK     AVEGFBIT
000060: 37,3115           00006                           EXTEND
000061: 37,3116           13371                           BZF      MUNG?                                 #  ON - TEST MUNFLAG
000062:
000063: 37,3117           40104                           CS       FLAGWRD8
000064: 37,3120           74744                           MASK     SURFFBIT
000065: 37,3121           00006                           EXTEND
000066: 37,3122           13375                           BZF      ONEBASE                               #  ON SURFACE - BYPASS LEMPREC
000067:
000068: 37,3123           06042                           TC       INTPRET                               #  EXTRAPOLATE BOTH STATE VECTORS
000069: 37,3124           77634                           RTB


000071: 37,3125           21574                                    LOADTIME
000072: 37,3126           34041                           STCALL   TDEC1
000073: 37,3127           27056                                    LEMPREC                               #  PRECISION BASE VECTOR FOR LM
000074: 37,3130           77775                           VLOAD
000075: 37,3131           00017                                    RATT1
000076: 37,3132           26170                           STOVL    BASETHP
000077: 37,3133           00025                                    VATT1
000078: 37,3134           16105                           STODL    BASETHV
000079: 37,3135           00015                                    TAT
000080: 37,3136           02114        DOCMBASE           STORE    BASETIME                              #  PRECISION BASE VECTOR FOR CM
000081: 37,3137           34041                           STCALL   TDEC1
000082: 37,3140           27042                                    CSMPREC
000083: 37,3141           77775                           VLOAD
000084: 37,3142           00017                                    RATT1
000085: 37,3143           26140                           STOVL    BASEOTP
000086: 37,3144           00025                                    VATT1
000087: 37,3145           02120                           STORE    BASEOTV
000088: 37,3146           77776                           EXIT
000089:
000090: 37,3147           40103        REV83              CS       FLAGWRD7
000091: 37,3150           74747                           MASK     AVEGFBIT
000092: 37,3151           00006                           EXTEND
000093: 37,3152           13320                           BZF      GETRVN                                #  IF AVEGFLAG SET, USE RN,VN
000094:
000095: 37,3153           40104                           CS       FLAGWRD8
000096: 37,3154           74744                           MASK     SURFFBIT
000097: 37,3155           00006                           EXTEND
000098: 37,3156           13362                           BZF      R31SURF                               #  IF ON SURFACE,USE LEMAREC
000099:
000100: 37,3157           06042                           TC       INTPRET                               #  DO CONIC EXTRAPOLATION FOR BOTH VEHICLES
000101: 37,3160           77634                           RTB
000102: 37,3161           21574                                    LOADTIME
000103: 37,3162           34041                           STCALL   TDEC1
000104: 37,3163           27410                                    INTSTALL
000105: 37,3164           43175                           VLOAD    CLEAR
000106: 37,3165           02170                                    BASETHP
000107: 37,3166           00263                                    MOONFLAG
000108: 37,3167           25535                           STOVL    RCV
000109: 37,3170           02105                                    BASETHV
000110: 37,3171           15543                           STODL    VCV
000111: 37,3172           02114                                    BASETIME
000112: 37,3173           43014                           BOF      SET                                   #  GET APPROPRIATE MOONFLAG SETTING
000113: 37,3174           04344                                    MOONTHIS
000114: 37,3175           77177                                    +2
000115: 37,3176           00063                                    MOONFLAG
000116: 37,3177           77614                           SET
000117: 37,3200           01473                                    INTYPFLG                              #  CONIC EXTRAP.
000118: 37,3201           35517                           STCALL   TET
000119: 37,3202           27106                                    INTEGRVS                              #  INTEGRATION --- AT LAST---
000120: 37,3203           77775        OTHCONIC           VLOAD


000122: 37,3204           00001                                    RATT
000123: 37,3205           26207                           STOVL    RONE
000124: 37,3206           00007                                    VATT
000125: 37,3207           36215                           STCALL   VONE                                  #  GET SET FOR CONIC EXTRAP.,OTHER.
000126: 37,3210           27410                                    INTSTALL
000127: 37,3211           71214                           SET      DLOAD
000128: 37,3212           01473                                    INTYPFLG
000129: 37,3213           00015                                    TAT
000130: 37,3214           00041        OTHINT             STORE    TDEC1
000131: 37,3215           43175                           VLOAD    CLEAR
000132: 37,3216           02140                                    BASEOTP
000133: 37,3217           00263                                    MOONFLAG
000134: 37,3220           25535                           STOVL    RCV
000135: 37,3221           02120                                    BASEOTV
000136: 37,3222           15543                           STODL    VCV
000137: 37,3223           02114                                    BASETIME
000138: 37,3224           43014                           BOF      SET
000139: 37,3225           04344                                    MOONTHIS
000140: 37,3226           77230                                    +2
000141: 37,3227           00063                                    MOONFLAG
000142: 37,3230           35517                           STCALL   TET
000143: 37,3231           27106                                    INTEGRVS
000144: 37,3232           52375        COMPDISP           VLOAD    VSU
000145: 37,3233           00001                                    RATT
000146: 37,3234           02207                                    RONE
000147: 37,3235           65234                           RTB      PDDL
000148: 37,3236           21725                                    NORMUNX1                              #  UNIT(RANGE) TO PD 0-5
000149: 37,3237           00045                                    36D
000150: 37,3240           77657                           SL*                                            #  RESCALE AFTER NORMUNIT
000151: 37,3241           20201                                    0,1
000152: 37,3242           26201                           STOVL    RANGE                                 #  SCALED 2(29)M
000153: 37,3243           00007                                    VATT
000154: 37,3244           50251                           VSU      DOT                                   #  (VCM- VLM).UNIT(LOS), PD=0
000155: 37,3245           02215                                    VONE
000156: 37,3246           77752                           SL1                                            #  SCALED 2(7)M/CS
000157: 37,3247           26203                           STOVL    RRATE
000158: 37,3250           02207                                    RONE
000159: 37,3251           63256                           UNIT     PDVL                                  #  UNIT(R) TO PD 0-5
000160: 37,3252           06512                                    UNITZ
000161: 37,3253           77624                           CALL
000162: 37,3254           47666                                    CDU*NBSM
000163: 37,3255           41505                           VXM      PUSH                                  #  UNIT (Z)/4 TO PD 6-11
000164: 37,3256           01732                                    REFSMMAT
000165: 37,3257           72431                           VPROJ    VSL2                                  #  UNIT(P)=UNIT(UZ -(UZ)PROJ(UR))
000166: 37,3260           00001                                    0D
000167: 37,3261           53445                           BVSU     UNIT
000168: 37,3262           00007                                    6D
000169: 37,3263           47315                           PDVL     VXV                                   #  UNIT(P) TO PD 12-17
000170: 37,3264           00001                                    0D                                    #  UNIT(RL)
000171: 37,3265           02215                                    VONE


000173: 37,3266           50235                           VXV      DOT                                   #  (UR * VL)*UR . U(P)
000174: 37,3267           00001                                    0D
000175: 37,3270           00015                                    12D
000176: 37,3271           77715                           PDVL                                           #  SIGN TO 12-13 , LOAD U(P)
000177: 37,3272           75241                           DOT      SIGN
000178: 37,3273           00007                                    6D
000179: 37,3274           00015                                    12D
000180: 37,3275           65512                           SL2      ACOS                                  #  ARCCOS(UP.UZ(SIGN))
000181: 37,3276           26205                           STOVL    RTHETA
000182: 37,3277           00001                                    0D
000183: 37,3300           51041                           DOT      BPL                                   #  IF UR.UZ NEG,
000184: 37,3301           00007                                    6D                                    #    RTHETA = 1 - RTHETA
000185: 37,3302           77307                                    +5
000186: 37,3303           45345                           DLOAD    DSU
000187: 37,3304           06526                                    DPPOSMAX
000188: 37,3305           02205                                    RTHETA
000189: 37,3306           02205                           STORE    RTHETA
000190: 37,3307           77776                           EXIT
000191:
000192: 37,3310           34747                           CA       BIT5
000193: 37,3311           71043                           MASK     EXTVBACT
000194: 37,3312           00006                           EXTEND                                         #  IF ANSWERED,
000195: 37,3313           15503                           BZF      ENDEXT                                #         TERMINATE
000196:
000197: 37,3314           41043                           CS       EXTVBACT
000198: 37,3315           74740                           MASK     BIT12
000199: 37,3316           27043                           ADS      EXTVBACT                              #  SET BIT 12
000200: 37,3317           13147                           TCF      REV83                                 #  AND START AGAIN.
000201:
000202: 37,3320           37713        GETRVN             CA       PRIO22                                #  INHIBIT SERVICER
000203: 37,3321           05146                           TC       PRIOCHNG
000204: 37,3322           06042                           TC       INTPRET
000205: 37,3323           40375                           VLOAD    SETPD
000206: 37,3324           01220                                    RN                                    #  LM STATE VECTOR IN RN,VN
000207: 37,3325           00001                                    0
000208: 37,3326           26207                           STOVL    RONE
000209: 37,3327           01226                                    VN
000210: 37,3330           26215                           STOVL    VONE                                  #  LOAD R(CSM),V(CSM) IN CASE MUNFLAG SET
000211: 37,3331           01724                                    V(CSM)                                #  (TO INSURE TIME COMPATABILITY)
000212: 37,3332           65315                           PDVL     PDDL
000213: 37,3333           01716                                    R(CSM)
000214: 37,3334           01234                                    PIPTIME
000215: 37,3335           77776                           EXIT
000216: 37,3336           35015                           CA       PRIO3
000217: 37,3337           05146                           TC       PRIOCHNG
000218: 37,3340           06042                           TC       INTPRET
000219: 37,3341           77214                           BOFF     VLOAD
000220: 37,3342           03347                                    MUNFLAG
000221: 37,3343           77355                                    GETRVN2                               #  IF MUNFLAG RESET, DO CM DELTA PRECISION


000223: 37,3344           60505                           VXM      VSR4                                  #  CHANGE TO REFERENCE SYSTEM AND RESCALE
000224: 37,3345           01732                                    REFSMMAT
000225: 37,3346           77715                           PDVL                                           #  R TO PD 0-5
000226: 37,3347           76505                           VXM      VSL1
000227: 37,3350           01732                                    REFSMMAT
000228: 37,3351           40206                           PUSH     SETPD                                 #  V TO PD 5-11
000229: 37,3352           00001                                    0
000230: 37,3353           77650                           GOTO
000231: 37,3354           77232                                    COMPDISP
000232:
000233: 37,3355           77624        GETRVN2            CALL
000234: 37,3356           27410                                    INTSTALL
000235: 37,3357           52014                           CLEAR    GOTO
000236: 37,3360           01673                                    INTYPFLG                              #  PREC EXTRAP FOR OTHER
000237: 37,3361           77214                                    OTHINT
000238: 37,3362           06042        R31SURF            TC       INTPRET
000239: 37,3363           77634                           RTB                                            #  LM IS ON SURFACE, SO PRECISION
000240: 37,3364           21574                                    LOADTIME                              #  INTEGRATION USES PLANETARY INERTIAL
000241: 37,3365           34041                           STCALL   TDEC1                                 #  ORIENTATION SUBROUTINE
000242: 37,3366           27056                                    LEMPREC
000243: 37,3367           77650                           GOTO                                           #  DO CSM CONIC
000244: 37,3370           77203                                    OTHCONIC
000245: 37,3371           40102        MUNG?              CS       FLAGWRD6
000246: 37,3372           74744                           MASK     MUNFLBIT
000247: 37,3373           00006                           EXTEND
000248: 37,3374           13320                           BZF      GETRVN                                #  IF MUNFLAG SET, CSM BASE NOT NEEDED
000249:
000250: 37,3375           06042        ONEBASE            TC       INTPRET                               #  GET CSM BASE VECTOR
000251: 37,3376           52034                           RTB      GOTO
000252: 37,3377           21574                                    LOADTIME
000253: 37,3400           77136                                    DOCMBASE

End of include-file R31.agc.  Parent file is MAIN.agc


