
Source Code


000002:                                                                                                  ## Copyright:   Public domain.
000003:                                                                                                  ## Filename:    R60,R62.agc
000004:                                                                                                  ## Purpose:     A section of Luminary revision 173.
000005:                                                                                                  ##              It is part of the reconstructed source code for the second
000006:                                                                                                  ##              (unflown) release of the flight software for the Lunar
000007:                                                                                                  ##              Module's (LM) Apollo Guidance Computer (AGC) for Apollo 14.
000008:                                                                                                  ##              The code has been recreated from a reconstructed copy of
000009:                                                                                                  ##              Luminary 178, as well as Luminary memo 167 (revision 1).
000010:                                                                                                  ##              It has been adapted such that the resulting bugger words
000011:                                                                                                  ##              exactly match those specified for Luminary 173 in NASA
000012:                                                                                                  ##              drawing 2021152N, which gives relatively high confidence
000013:                                                                                                  ##              that the reconstruction is correct.
000014:                                                                                                  ## Reference:   pp. 480-493
000015:                                                                                                  ## Assembler:   yaYUL
000016:                                                                                                  ## Contact:     Ron Burkey <info@sandroid.org>.
000017:                                                                                                  ## Website:     www.ibiblio.org/apollo/index.html
000018:                                                                                                  ## Mod history: 2019-09-18 MAS  Created from Luminary 178.
000019:


000021:                                                                                                  #  MOD NO: 0                        DATE: 1 MAY 1968
000022:
000023:                                                                                                  #  MOD BY: DIGITAL DEVEL GROUP      LOG SECTION R60,R62
000024:
000025:                                                                                                  #  FUNCTIONAL DESCRIPTION:
000026:
000027:                                                                                                  #  CALLED AS A GENERAL SUBROUTINE TO MANEUVER THE LM TO A SPECIFIED
000028:                                                                                                  #  ATTITUDE.
000029:
000030:                                                                                                  #  1. IF THE 3-AXIS FLAG IS NOT SET THE FINAL CDU ANGLES ARE
000031:                                                                                                  #  CALCULATED (VECPOINT).
000032:
000033:                                                                                                  #  2. THE FDAI BALL ANGLES (NOUN 18) ARE CALCULATED (BALLANGS).
000034:
000035:                                                                                                  #  3. REQUEST FLASHING DISPLAY V50 N18 PLEASE PERFORM AUTO MANEUVER.
000036:
000037:                                                                                                  #  4. IF PRIORITY DISPLAY FLAG IS SET DO A PHASECHANGE. THEN AWAIT
000038:                                                                                                  #  ASTRONAUT RESPONSE.
000039:
000040:                                                                                                  #  5. DISPLAY RESPONSE RETURNS:
000041:
000042:                                                                                                  #      A. ENTER - RESET 3-AXIS FLAG AND RETURN TO CLIENT.
000043:
000044:                                                                                                  #      B. TERMINATE - IF IN P00 GO TO STEP 5A. OTHERWISE CHECK IF R61 IS
000045:                                                                                                  #         THE CALLING PROGRAM. IF IN R61 AN EXIT IS MADE TO GOTOV56. IF
000046:                                                                                                  #         NOT IN R61 AN EXIT IS DONE VIA GOTOP00H.
000047:
000048:                                                                                                  #      C. PROCEED - CONTINUE WITH PROGRAM AT STEP 6.
000049:
000050:                                                                                                  #  6. IF THE 3-AXISFLAG IS NOT SET, THE FINAL CDU ANGLES ARE CALCULATED
000051:                                                                                                  #     (VECPOINT).
000052:
000053:                                                                                                  #  7. THE FDAI BALL ANGLES (NOUN 18) ARE CALCULATED (BALLANGS).
000054:
000055:                                                                                                  #  8. IF THE G+N SWITCH IS NOT SET GO BACK TO STEP 3.
000056:
000057:                                                                                                  #  9. IF THE AUTO SWITCH IS NOT SET GO BACK TO STEP 3.
000058:
000059:                                                                                                  #  10. NONFLASHING DISPLAY V06N18 (FDAI ANGLES).
000060:
000061:                                                                                                  #  11. DO A PHASECHANGE.
000062:
000063:                                                                                                  #  12. DO A MANEUVER CALCULATION AND ICDU DRIVE ROUTINE TO ACHIEVE FINAL
000064:
000065:                                                                                                  #      GIMBAL ANGLES (GOMANUR).
000066:                                                                                                  #  13. AT END OF MANEUVER GO TO STEP 3.
000067:
000068:                                                                                                  #           IF SATISFACTORY MANEUVER STEP 5A EXITS R60.
000069:                                                                                                  #           FOR FURTHER ADJUSTMENT OF THE VEHICLE ATTITUDE ABOUT THE
000070:                                                                                                  #           DESIRED VECTOR, THE ROUTINE MAY BE PERFORMED AGAIN STARTING AT


000072:                                                                                                  #           STEP 5C.
000073:
000074:                                                                                                  #  CALLING SEQUENCE:  TC BANKCALL
000075:                                                                                                  #                     CADR R60LEM
000076:
000077:                                                                                                  #  ERASABLE INITIALIZATION REQUIRED : SCAXIS, POINTVSM (FOR VECPOINT)
000078:                                                                                                  #                                     3AXISFLG.
000079:
000080:                                                                                                  #  SUBROUTINES CALLED: VECPOINT, BALLANGS, GOPERF2R, LINUS, GODSPER,
000081:                                                                                                  #                     GOMANUR, DOWNFLAG, PHASCHNG, UPFLAG
000082:
000083:                                                                                                  #  NORMAL EXIT MODES: CAE TEMPR60   (CALLERS RETURN ADDRESS)
000084:                                                                                                  #                     TC  BANKJUMP
000085:
000086:                                                                                                  #  ALARMS: NONE
000087:
000088:                                                                                                  #  OUTPUT: NONE
000089:
000090:                                                                                                  #  DEBRIS: CPHI, CTHETA, CPSI, 3AXISFLG, TBASE2
000091:
000092:
000093: 34,2000                                           BANK     34
000094: 26,2000                                           SETLOC   MANUVER
000095: 26,2000                                           BANK
000096:
000097: 26,2125     1163                                  EBANK=   TEMPR60
000098:
000099: 26,2125                                           COUNT*   $$/R06
000100: 26,2125           04645        R60LEM             TC       MAKECADR
000101: 26,2126           55163                           TS       TEMPR60
000102:
000103: 26,2127           34746        REDOMANN           CAF      3AXISBIT
000104: 26,2130           70101                           MASK     FLAGWRD5                              #  IS 3-AXIS FLAG SET
000105: 26,2131           10000                           CCS      A
000106: 26,2132           12140                           TCF      TOBALL                                #  YES
000107: 26,2133           06042                           TC       INTPRET
000108: 26,2134           77624                           CALL
000109: 26,2135           56040                                    VECPOINT                              #  TO COMPUTE FINAL ANGLES
000110: 26,2136           00322                           STORE    CPHI                                  #  STORE FINAL ANGLES - CPHI,CTHETA,CPSI
000111: 26,2137           77776                           EXIT
000112:
000113: 26,2140           05515        TOBALL             TC       UPFLAG                                #  INSURE THAT TOTAL ATTITUDE ERRORS ARE
000114: 26,2141           00013                           ADRES    NEEDLFLG                              #  DISPLAYED ON FDAI ERROR NEEDLES
000115: 26,2142           05527                           TC       DOWNFLAG
000116: 26,2143           00000                           ADRES    NEED2FLG
000117: 26,2144           04616                           TC       BANKCALL
000118: 26,2145           54274                           CADR     BALLANGS                              #  TO CONVERT ANGLES TO FDAI
000119: 26,2146           32262        TOBALLA            CAF      V06N18
000120: 26,2147           04616                           TC       BANKCALL


000122: 26,2150           20711                           CADR     GOPERF2R                              #  DISPLAY PLEASE PERFORM AUTO MANEUVER
000123: 26,2151           02250                           TC       R61TEST
000124: 26,2152           02156                           TC       REDOMANC                              #  PROCEED
000125: 26,2153           02203                           TC       ENDMANU1                              #  ENTER I.E. FINISHED WITH R60
000126: 26,2154           02207                           TC       CHKLINUS                              #  TO CHECK FOR PRIORITY DISPLAYS
000127: 26,2155           05155                           TC       ENDOFJOB
000128:
000129: 26,2156           34746        REDOMANC           CAF      3AXISBIT
000130: 26,2157           70101                           MASK     FLAGWRD5                              #  IS 3-AXIS FLAG SET
000131: 26,2160           10000                           CCS      A
000132: 26,2161           12167                           TCF      TOBALLC                               #  YES
000133: 26,2162           06042                           TC       INTPRET
000134: 26,2163           77624                           CALL
000135: 26,2164           56040                                    VECPOINT                              #  TO COMPUTE FINAL ANGLES
000136: 26,2165           00322                           STORE    CPHI                                  #  STORE ANGLES
000137: 26,2166           77776                           EXIT
000138:
000139: 26,2167           04616        TOBALLC            TC       BANKCALL
000140: 26,2170           54274                           CADR     BALLANGS                              #  TO CONVERT ANGLES TO FDAI
000141: 26,2171           02263                           TC       G+N,AUTO                              #  CHECK AUTO MODE
000142: 26,2172           10000                           CCS      A
000143: 26,2173           12146                           TCF      TOBALLA                               #  NOT AUTO, GO REREQUEST AUTO MANEUVER.
000144:
000145: 26,2174           32262        AUTOMANV           CAF      V06N18                                #  STATIC DISPLAY DURING AUTO MANEUVER
000146: 26,2175           04616                           TC       BANKCALL                              #                                       -
000147: 26,2176           20452                           CADR     GODSPR                                #                                       -
000148: 26,2177           02207                           TC       CHKLINUS                              #  TO CHECK FOR PRIORITY DISPLAYS
000149:
000150: 26,2200           04616        STARTMNV           TC       BANKCALL                              #  PERFORM MANEUVER VIA KALCMANU
000151: 26,2201           17754                           CADR     GOMANUR
000152:
000153: 26,2202           12146        ENDMANUV           TCF      TOBALLA                               #  FINISHED MANEUVER.
000154: 26,2203           05527        ENDMANU1           TC       DOWNFLAG                              #  RESET 3-AXIS FLAG
000155: 26,2204           00124                           ADRES    3AXISFLG
000156: 26,2205           31163                           CAE      TEMPR60                               #                                       -
000157: 26,2206           04640                           TC       BANKJUMP                              #                                       -
000158:
000159: 26,2207           40100        CHKLINUS           CS       FLAGWRD4
000160: 26,2210           74740                           MASK     PDSPFBIT                              #  IS PRIORITY DISPLAY FLAG SET?
000161: 26,2211           10000                           CCS      A                                     #                                       -
000162: 26,2212           00002                           TC       Q                                     #  NO - EXIT
000163: 26,2213           30002                           CA       Q
000164: 26,2214           54156                           TS       MPAC       +2                         #  SAVE RETURN
000165: 26,2215           46250                           CS       THREE                                 #  OBTAIN LOCATION FOR RESTART
000166: 26,2216           60133                           AD       BUF2                                  #  HOLDS Q OF LAST DISPLAY
000167: 26,2217           55054                           TS       TBASE2
000168:
000169: 26,2220           05364                           TC       PHASCHNG
000170: 26,2221           00132                           OCT      00132
000171:


000173: 26,2222           34745                           CAF      BIT7
000174: 26,2223           05475                           TC       LINUS                                 #  GO SET BITS FOR PRIORITY DISPLAY     -
000175: 26,2224           00156                           TC       MPAC       +2
000176:
000177: 26,2225           37717        RELINUS            CAF      PRIO26                                #  RESTORE ORIGINAL PRIORITY
000178: 26,2226           05146                           TC       PRIOCHNG
000179:
000180: 26,2227           34747                           CAF      TRACKBIT                              #  DON'T CONTINUE R60 UNLESS TRACKFLAG ON.
000181: 26,2230           70075                           MASK     FLAGWRD1
000182: 26,2231           10000                           CCS      A
000183: 26,2232           12245                           TCF      RER60
000184:
000185: 26,2233           34745                           CAF      RNDVZBIT                              #  IS IT P20?
000186: 26,2234           70074                           MASK     FLAGWRD0
000187: 26,2235           10000                           CCS      A
000188: 26,2236           02242                           TC       +4                                    #  YES
000189: 26,2237           05364                           TC       PHASCHNG                              #  NO, MUST BE P25, SET 2.11 SPOT
000190: 26,2240           40112                           OCT      40112
000191:
000192: 26,2241           05155                           TC       ENDOFJOB
000193:
000194: 26,2242           05364                           TC       PHASCHNG                              #  SET 2.7 SPOT FOR P20
000195: 26,2243           40072                           OCT      40072
000196:
000197: 26,2244           05155                           TC       ENDOFJOB
000198:
000199: 26,2245           05515        RER60              TC       UPFLAG                                #  SET PRIO DISPLAY FLAG AFTER RESTART
000200: 26,2246           00077                           ADRES    PDSPFLAG
000201:
000202: 26,2247           01054                           TC       TBASE2
000203:
000204: 26,2250           31010        R61TEST            CA       MODREG                                #  IF WE ARE IN P00 IT MUST BE V49 OR V89
000205: 26,2251           00006                           EXTEND
000206: 26,2252           12203                           BZF      ENDMANU1                              #  THUS WE GO TO ENDEXT VIA USER
000207:
000208: 26,2253           30100                           CA       FLAGWRD4                              #  ARE WE IN R61  (P20 OR P25)
000209: 26,2254           74740                           MASK     PDSPFBIT
000210: 26,2255           00006                           EXTEND
000211: 26,2256           16001                           BZF      GOTOPOOH                              #  NO
000212: 26,2257           06025                           TC       GOTOV56                               #  YES
000213:
000214: 26,2260           20100        BIT14+7            OCT      20100                                 #                                       -
000215: 26,2261           00203        OCT203             OCT      203
000216: 26,2262           01422        V06N18             VN       0618
000217:                                                                                                  #           SUBROUTINE TO CHECK FOR G+N CONTROL, AUTO STABILIZATION
000218:
000219:                                                                                                  #           RETURNS WITH C(A) = +  IF NOT SET FOR G+N, AUTO
000220:                                                                                                  #           RETURNS WITH C(A) = +0 IF SWITCHES ARE SET
000221:
000222: 26,2263           00006        G+N,AUTO           EXTEND


000224: 26,2264           00030                           READ     CHAN30
000225: 26,2265           74742                           MASK     BIT10
000226: 26,2266           10000                           CCS      A
000227: 26,2267           00002                           TC       Q                                     #  NOT IN G+N  C(A) = +
000228: 26,2270           00006        ISITAUTO           EXTEND                                         #  CHECK FOR AUTO MODE
000229: 26,2271           00031                           READ     CHAN31
000230: 26,2272           74736                           MASK     BIT14
000231: 26,2273           00002                           TC       Q                                     #  (+) = NOT IN AUTO, (+0) = AOK
000232:


000234:                                                                                                  #  PROGRAM DESCRIPTION BALLANGS
000235:                                                                                                  #  MOD NO.         LOG SECTION  R60,R62
000236:
000237:                                                                                                  #  WRITTEN BY RAMA M.AIYAWAR
000238:                                                                                                  #  FUNCTIONAL DESCRIPTION
000239:
000240:                                                                                                  #  COMPUTES LM FDAI BALL DISPLAY ANGLES
000241:                                                                                                  #  CALLING SEQUENCE
000242:
000243:                                                                                                  #           TC     BALLANGS
000244:                                                                                                  #  NORMAL EXIT MODE
000245:
000246:                                                                                                  #           TC     BALLEXIT        (SAVED Q)
000247:
000248:                                                                                                  #  ALARM OR EXIT MODE  NIL
000249:                                                                                                  #  SUBROUTINES CALLED
000250:                                                                                                  #           CD*TR*G
000251:                                                                                                  #           ARCTAN
000252:
000253:                                                                                                  #  INPUT
000254:
000255:                                                                                                  #  CPHI,CTHETA,CPSI  ARE  THE ANGLES CORRESPONDING TO AOG,AIG,AMG. THEY ARE
000256:                                                                                                  #  SP,2S COMPLIMENT SCALED TO HALF REVOLUTION.
000257:                                                                                                  #  OUTPUT
000258:
000259:                                                                                                  #  FDAIX,FDAIY,FDAIZ ARE THE REQUIRED BALL ANGLES SCALED TO HALF REVOLUTION
000260:                                                                                                  #  SP,2S COMPLIMENT.
000261:                                                                                                  #  THESE ANGLES WILL BE DISPLAYED AS DEGREES AND HUNDREDTHS, IN THE ORDER ROLL, PITCH, YAW, USING NOUNS 18 & 19.
000262:
000263:                                                                                                  #  ERASABLE INITIALIZATION REQUIRED
000264:
000265:                                                                                                  #  CPHI,CTHETA,CPSI EACH A SP REGISTER
000266:                                                                                                  #  DEBRIS
000267:
000268:                                                                                                  #  A,L,Q,MPAC,SINCDU,COSCDU,PUSHLIST,BALLEXIT
000269:
000270:
000271:                                                                                                  #  NOMENCLATURE:  CPHI, CTHETA, & CPSI REPRESENT THE OUTER, INNER, & MIDDLE GIMBAL ANGLES, RESPECTIVELY; OR
000272:                                                                                                  #  EQUIVALENTLY, CDUX, CDUY, & CDUZ.
000273:
000274:                                                                                                  #  NOTE:  ARCTAN CHECKS FOR OVERFLOW AND SHOULD BE ABLE TO HANDLE ANY SINGULARITIES.
000275:
000276: 26,2000                                           SETLOC   BAWLANGS
000277: 26,2000                                           BANK
000278:
000279: 26,2274                                           COUNT*   $$/BALL
000280: 26,2274           04645        BALLANGS           TC       MAKECADR
000281: 26,2275           55337                           TS       BALLEXIT
000282: 26,2276           30321                           CA       CPHI


000284: 26,2277           54771                           TS       CDUSPOT    +4
000285: 26,2300           30322                           CA       CTHETA
000286: 26,2301           54765                           TS       CDUSPOT
000287: 26,2302           30323                           CA       CPSI
000288: 26,2303           54767                           TS       CDUSPOT    +2
000289:
000290: 26,2304           06042                           TC       INTPRET
000291: 26,2305           45001                           SETPD    CALL
000292: 26,2306           00001                                    0D
000293: 26,2307           47541                                    CD*TR*G
000294:
000295: 26,2310           41345                           DLOAD    DMP
000296: 26,2311           00742                                    SINCDUX                               #  SIN (OGA)
000297: 26,2312           00746                                    COSCDUZ                               #  COS (MGA)
000298:
000299: 26,2313           57552                           SL1      DCOMP                                 #  SCALE
000300: 26,2314           65336                           ARCSIN   PDDL                                  #  YAW = ARCSIN(-SXCZ) INTO 0 PD
000301: 26,2315           00740                                    SINCDUZ
000302: 26,2316           14023                           STODL    SINTH                                 #  (SINTH = 18D IN PD)
000303: 26,2317           00746                                    COSCDUZ
000304: 26,2320           72405                           DMP      SL1                                   #  RESCALE
000305: 26,2321           00750                                    COSCDUX
000306: 26,2322           34021                           STCALL   COSTH                                 #  (COSTH = 16D IN PD)
000307: 26,2323           26506                                    ARCTAN
000308: 26,2324           41325                           PDDL     DMP                                   #  ROLL = ARCTAN(SZ/CZCX) INTO 2 PD
000309: 26,2325           00740                                    SINCDUZ
000310: 26,2326           00742                                    SINCDUX
000311: 26,2327           41512                           SL2      PUSH                                  #  SXSZ INTO 4 PD
000312: 26,2330           65205                           DMP      PDDL                                  #  SXSZCY INTO 4 PD
000313: 26,2331           00744                                    COSCDUY
000314: 26,2332           65205                           DMP      PDDL                                  #  SXSZSY INTO 6 PD
000315: 26,2333           00736                                    SINCDUY
000316: 26,2334           00750                                    COSCDUX
000317: 26,2335           72405                           DMP      SL1                                   #  CXCY
000318: 26,2336           00744                                    COSCDUY
000319: 26,2337           45425                           DSU      STADR                                 #  PULL UP FROM 6 PD
000320: 26,2340           63756                           STODL    COSTH                                 #  COSTH = CXCY - SXSZSY
000321: 26,2341           00736                                    SINCDUY
000322: 26,2342           72405                           DMP      SL1
000323: 26,2343           00750                                    COSCDUX                               #  CXSY
000324: 26,2344           45415                           DAD      STADR                                 #  PULL UP FROM 4 PD
000325: 26,2345           43754                           STCALL   SINTH                                 #  SINTH = CXSY + SXSZCY
000326: 26,2346           26506                                    ARCTAN                                #  RETURNS WITH D(MPAC) = PITCH
000327: 26,2347           55525                           PDDL     VDEF                                  #  PITCH INTO 2 PD, ROLL INTO MPAC FROM 2PD
000328: 26,2350           77634                           RTB                                            #  VDEF MAKES V(MPAC) = ROLL, PITCH, YAW
000329: 26,2351           21621                                    V1STO2S
000330: 26,2352           02345                           STORE    FDAIX                                 #  MODE IS TP
000331: 26,2353           77776                           EXIT
000332:
000333: 26,2354           31337        ENDBALL            CA       BALLEXIT


000335: 26,2355           04640                           TC       BANKJUMP
000336:


000338:                                                                                                  #  PROGRAM DESCRIPTION - VECPOINT
000339:
000340:
000341:                                                                                                  #           THIS INTERPRETIVE SUBROUTINE MAY BE USED TO POINT A SPACECRAFT AXIS IN A DESIRED DIRECTION.  THE AXIS
000342:                                                                                                  #  TO BE POINTED MUST APPEAR AS A HALF UNIT DOUBLE PRECISION VECTOR IN SUCCESSIVE LOCATIONS OF ERASABLE MEMORY
000343:                                                                                                  #  BEGINNING WITH THE LOCATION CALLED SCAXIS.  THE COMPONENTS OF THIS VECTOR ARE GIVEN IN SPACECRAFT COORDINATES.
000344:                                                                                                  #  THE DIRECTION IN WHICH THIS AXIS IS TO BE POINTED MUST APPEAR AS A HALF UNIT DOUBLE PRECISION VECTOR IN
000345:                                                                                                  #  SUCCESSIVE LOCATIONS OF ERASABLE MEMORY BEGINNING WITH THE ADDRESS CALLED POINTVSM.  THE COMPONENTS OF THIS
000346:                                                                                                  #  VECTOR ARE GIVEN IN STABLE MEMBER COORDINATES.  WITH THIS INFORMATION VECPOINT COMPUTES A SET OF THREE GIMBAL
000347:                                                                                                  #  ANGLES (2S COMPLEMENT) CORESPONDING TO THE CROSS-PRODUCT ROTATION BETWE EN SCAXIS AND POINTVSM AND STORES THEM
000348:                                                                                                  #  IN T(MPAC) BEFORE RETURNING TO THE CALLER.
000349:                                                                                                  #           THIS ROTATION, HOWEVER, MAY BRING THE S/C INTO GIMBAL LOCK.  WHEN POINTING A VECTOR IN THE Y-Z PLANE,
000350:                                                                                                  #  THE TRANSPONDER AXIS, OR THE AOT FOR THE LEM, THE PROGRAM WILL CORRECT THIS PROBLEM BY ROTATING THE CROSS-
000351:                                                                                                  #  PRODUCT ATTITUDE ABOUT POINTVSM BY A FIXED AMOUNT SUFFICIENT TO ROTATE THE DESIRED S/C ATTITUDE OUT OF GIMBAL
000352:                                                                                                  #  LOCK.  IF THE AXIS TO BE POINTED IS MORE THAN 40.6 DEGREES BUT LESS THAN 60.5 DEG FROM THE +X (OR-X) AXIS,
000353:                                                                                                  #  THE ADDITIONAL ROTATION TO AVOID GIMAL LOCK IS 35 DEGREES.  IF THE AXIS IS MORE THAN 60.5 DEGEES FROM +X (OR -X)
000354:                                                                                                  #  THE ADDITIONAL ROTATION IS 35 DEGREES.  THE GIMBAL ANGLES CORRESPONDING TO THIS ATTITUDE ARE THEN COMPUTED AND
000355:                                                                                                  #  STORED AS 2S COMPLIMENT ANGLES IN T(MPAC) BEFORE RETURNING TO THE CALLER.
000356:                                                                                                  #           WHEN POINTING THE X-AXIS, OR THE THRUST VECTOR, OR ANY VECTOR WITHIN 40.6 DEG OF THE X-AXIS, VECPOINT
000357:                                                                                                  #  CANNOT CORRECT FOR A CROSS-PRODUCT ROTATION INTO GIMBAL LOCK.  IN THIS CASE A PLATFORM REALIGNMENT WOULD BE
000358:                                                                                                  #  REQUIRED TO POINT THE VECTOR IN THE DESIRED DIRECTION.  AT PRESENT NO INDICATION IS GIVEN FOR THIS SITUATION
000359:                                                                                                  #  EXCEPT THAT THE FINAL MIDDLE GIMBAL ANGLE IN MPAC +2 IS GREATER THAN 59 DEGREES.
000360:
000361:                                                                                                  #           CALLING SEQUENCE -
000362:                                                                                                  #               1) LOAD SCAXIS, POINTVSM
000363:                                                                                                  #               2) CALL
000364:                                                                                                  #                       VECPOINT
000365:
000366:                                                                                                  #           RETURNS WITH
000367:
000368:                                                                                                  #               1) DESIRED OUTER  GIMBAL ANGLE IN MPAC
000369:                                                                                                  #               2) DESIRED INNER  GIMBAL ANGLE IN MPAC +1
000370:                                                                                                  #               3) DESIRED MIDDLE GIMBAL ANGLE IN MPAC +2
000371:
000372:
000373:                                                                                                  #           ERASABLES USED -
000374:
000375:                                                                                                  #               1) SCAXIS           6
000376:                                                                                                  #               2) POINTVSM         6
000377:                                                                                                  #               3) MIS             18
000378:                                                                                                  #               4) DEL             18
000379:                                                                                                  #               5) COF              6
000380:                                                                                                  #               6) VECQTEMP         1
000381:                                                                                                  #               7) ALL OF VAC AREA 43
000382:
000383:                                                                                                  #                        TOTAL     99
000384:
000385: 27,2000                                           SETLOC   VECPT
000386: 27,2000                                           BANK


000388: 27,2032                                           COUNT*   $$/VECPT
000389:
000390: 27,2032  E6,1675                                  EBANK=   BCDU
000391:
000392: 27,2032           40020        VECPNT1            STQ      BOV                                   #  THIS ENTRY USES DESIRED CDUS
000393: 27,2033           03324                                    VECQTEMP                              #  NOT PRESENT-ENTER WITH CDUD'S IN MPAC
000394: 27,2034           56035                                    VECPNT2
000395: 27,2035           52164        VECPNT2            AXC,2    GOTO
000396: 27,2036           03245                                    MIS
000397: 27,2037           56046                                    STORANG
000398: 27,2040           40020        VECPOINT           STQ      BOV                                   #  SAVE RETURN ADDRESS
000399: 27,2041           03324                                    VECQTEMP
000400: 27,2042           56043                                    VECLEAR                               #  AND CLEAR OVFIND
000401: 27,2043           47164        VECLEAR            AXC,2    RTB
000402: 27,2044           03245                                    MIS                                   #  READ THE PRESENT CDU ANGLES AND
000403: 27,2045           44403                                    READCDUK                              #  STORE THEM IN PD25, 26, 27
000404: 27,2046           34032        STORANG            STCALL   25D
000405: 27,2047           44410                                    CDUTODCM                              #  S/C AXES TO STABLE MEMBER AXES (MIS)
000406: 27,2050           61375                           VLOAD    VXM
000407: 27,2051           03773                                    POINTVSM                              #  RESOLVE THE POINTING DIRECTION VF INTO
000408: 27,2052           03246                                    MIS                                   #  INITIAL S/C AXES ( VF = POINTVSM)
000409: 27,2053           77656                           UNIT
000410: 27,2054           00035                           STORE    28D
000411:                                                                                                  #  PD 28 29 30 31 32 33
000412: 27,2055           53435                           VXV      UNIT                                  #  TAKE THE CROSS PRODUCT VF X VI
000413: 27,2056           03765                                    SCAXIS                                #  WHERE VI = SCAXIS
000414: 27,2057           57400                           BOV      VCOMP
000415: 27,2060           56170                                    PICKAXIS
000416: 27,2061           17270                           STODL    COF                                   #  CHECK MAGNITUDE
000417: 27,2062           00045                                    36D                                   #  OF CROSS PRODUCT
000418: 27,2063           50025                           DSU      BMN                                   #  VECTOR, IF LESS
000419: 27,2064           14417                                    DPB-14                                #  THAN B-14 ASSUME
000420: 27,2065           56170                                    PICKAXIS                              #  UNIT OPERATION
000421: 27,2066           50375                           VLOAD    DOT                                   #           INVALID.
000422: 27,2067           03765                                    SCAXIS
000423: 27,2070           00035                                    28D
000424: 27,2071           65552                           SL1      ARCCOS
000425: 27,2072           77624        COMPMATX           CALL                                           #  NOW COMPUTE THE TRANSFORMATION FROM
000426: 27,2073           44527                                    DELCOMP                               #  FINAL S/C AXES TO INITIAL S/C AXES  MFI
000427: 27,2074           75160                           AXC,1    AXC,2
000428: 27,2075           03245                                    MIS                                   #  COMPUTE THE TRANSFORMATION FROM FINAL
000429: 27,2076           02230                                    KEL                                   #  S/C AXES TO STABLE MEMBER AXES
000430: 27,2077           77624                           CALL                                           #  MFS = MIS MFI
000431: 27,2100           44312                                    MXM3                                  #  (IN PD LIST)
000432:
000433: 27,2101           51545                           DLOAD    ABS
000434: 27,2102           00007                                    6                                     #  MFS6 = SIN(CPSI)                    $2
000435: 27,2103           50025                           DSU      BMN
000436: 27,2104           14404                                    SINGIMLC                              #  = SIN(59 DEGS)                      $2
000437: 27,2105           56160                                    FINDGIMB                              #  /CPSI/ LESS THAN 59 DEGS


000439:                                                                                                  #  I.E. DESIRED ATTITUDE NOT IN GIMBAL LOCK
000440:
000441: 27,2106           51545                           DLOAD    ABS                                   #  CHECK TO SEE IF WE ARE POINTING
000442: 27,2107           03765                                    SCAXIS                                #  THE THRUST AXIS
000443: 27,2110           51025                           DSU      BPL
000444: 27,2111           14406                                    SINVEC1                               #  SIN 49.4 DEGS                        $2
000445: 27,2112           56160                                    FINDGIMB                              #  IF SO, WE ARE TRYING TO POINT IT INTO
000446: 27,2113           77775                           VLOAD                                          #  GIMBAL LOCK, ABORT COULD GO HERE
000447: 27,2114           77626                           STADR
000448: 27,2115           50515                           STOVL    MIS        +12D
000449: 27,2116           77626                           STADR                                          #  STORE MFS (IN PD LIST) IN MIS
000450: 27,2117           50523                           STOVL    MIS        +6
000451: 27,2120           77626                           STADR
000452: 27,2121           50531                           STOVL    MIS
000453: 27,2122           03254                                    MIS        +6                         #  INNER GIMBAL AXIS IN FINAL S/C AXES
000454: 27,2123           57444                           BPL      VCOMP                                 #  LOCATE THE IG AXIS DIRECTION CLOSEST TO
000455: 27,2124           56125                                    IGSAMEX                               #  FINAL X S/C AXIS
000456:
000457: 27,2125           50035        IGSAMEX            VXV      BMN                                   #  FIND THE SHORTEST WAY OF ROTATING THE
000458: 27,2126           03765                                    SCAXIS                                #  S/C OUT OF GIMBAL LOCK BY A ROTATION
000459: 27,2127           56134                                    U=SCAXIS                              #  ABOUT +- SCAXIS, I.E. IF  (IG (SGN MFS3)
000460:                                                                                                  #  X SCAXIS . XF) LESS THAN 0, U = SCAXIS
000461:                                                                                                  #  OTHERWISE U = -SCAXIS
000462:
000463: 27,2130           57575                           VLOAD    VCOMP
000464: 27,2131           03765                                    SCAXIS
000465: 27,2132           37270                           STCALL   COF                                   #  ROTATE ABOUT -SCAXIS
000466: 27,2133           56137                                    CHEKAXIS
000467: 27,2134           77775        U=SCAXIS           VLOAD
000468: 27,2135           03765                                    SCAXIS
000469: 27,2136           03270                           STORE    COF                                   #  ROTATE ABOUT + SCAXIS
000470: 27,2137           51545        CHEKAXIS           DLOAD    ABS
000471: 27,2140           03765                                    SCAXIS                                #  SEE IF WE ARE POINTING THE AOT
000472: 27,2141           51025                           DSU      BPL
000473: 27,2142           14410                                    SINVEC2                               #  SIN 29.5 DEGS                        $2
000474: 27,2143           56147                                    PICKANG1                              #  IF SO, ROTATE 50 DEGS ABOUT +- SCAXIS
000475: 27,2144           52145                           DLOAD    GOTO                                  #  IF NOT, MUST BE POINTING THE TRANSPONDER
000476: 27,2145           14414                                    VECANG2                               #  OR SOME VECTOR IN THE Y, OR Z PLANE
000477: 27,2146           56151                                    COMPMFSN                              #  IN THIS CASE ROTATE 35 DEGS TO GET OUT
000478:                                                                                                  #  OF GIMBAL LOCK (VECANG2  $360)
000479: 27,2147           77745        PICKANG1           DLOAD
000480: 27,2150           14412                                    VECANG1                               #  = 50 DEGS                          $ 360
000481: 27,2151           77624        COMPMFSN           CALL
000482: 27,2152           44527                                    DELCOMP                               #  COMPUTE THE ROTATION ABOUT SCAXIS TO
000483: 27,2153           75160                           AXC,1    AXC,2                                 #  BRING MFS OUT OF GIMBAL LOCK
000484: 27,2154           03245                                    MIS
000485: 27,2155           02230                                    KEL
000486: 27,2156           77624                           CALL                                           #  COMPUTE THE NEW TRANSFORMATION FROM
000487: 27,2157           44312                                    MXM3                                  #  DESIRED S/C AXES TO STABLE MEMBER AXES
000488:                                                                                                  #  WHICH WILL ALIGN VI WITH VF AND AVOID


000490:                                                                                                  #  GIMBAL LOCK
000491: 27,2160           45160        FINDGIMB           AXC,1    CALL
000492: 27,2161           00000                                    0                                     #  EXTRACT THE COMMANDED CDU ANGLES FROM
000493: 27,2162           44654                                    DCMTOCDU                              #  THIS MATRIX
000494: 27,2163           40234                           RTB      SETPD
000495: 27,2164           21621                                    V1STO2S                               #  CONVERT TO 2:S COMPLEMENT
000496: 27,2165           00001                                    0
000497: 27,2166           77650                           GOTO
000498: 27,2167           03324                                    VECQTEMP                              #  RETURN TO CALLER
000499:
000500: 27,2170           50375        PICKAXIS           VLOAD    DOT                                   #  IF VF X VI = 0,  FIND VF . VI
000501: 27,2171           00035                                    28D
000502: 27,2172           03765                                    SCAXIS
000503: 27,2173           72240                           BMN      TLOAD
000504: 27,2174           54356                                    ROT180
000505: 27,2175           00032                                    25D
000506: 27,2176           77650                           GOTO                                           #  IF VF = VI, CDU DESIRED = PRESENT CDU
000507: 27,2177           03324                                    VECQTEMP                              #  PRESENT CDU ANGLES
000508:
000509: 35,2000                                           BANK     35
000510: 26,2000                                           SETLOC   MANUVER1
000511: 26,2000                                           BANK
000512: 26,2356           47375        ROT180             VLOAD    VXV                                   #  IF VF, VI ANTIPARALLEL, 108 DEG ROTATION
000513: 26,2357           03254                                    MIS        +6                         #  IS REQUIRED. Y STABLE MEMBER AXIS IN
000514: 26,2360           06516                                    HIDPHALF                              #  INITIAL S/C AXES.
000515: 26,2361           47256                           UNIT     VXV                                   #  FIND Y(SM) X X(I)
000516: 26,2362           03765                                    SCAXIS                                #  FIND UNIT(VI X UNIT(Y(SM) X X(I)))
000517: 26,2363           40056                           UNIT     BOV                                   #  I.E. PICK A VECTOR IN THE PLANE OF X(I),
000518: 26,2364           54400                                    PICKX                                 #  Y(SM) PERPENDICULAR TO VI
000519: 26,2365           17270                           STODL    COF
000520: 26,2366           00045                                    36D                                   #  CHECK MAGNITUDE
000521: 26,2367           50025                           DSU      BMN                                   #  OF THIS VECTOR.
000522: 26,2370           14417                                    DPB-14                                #  IF LESS THAN B-14,
000523: 26,2371           54400                                    PICKX                                 #  PICK X-AXIS.
000524: 26,2372           77775                           VLOAD
000525: 26,2373           03270                                    COF
000526: 26,2374           17270        XROT               STODL    COF
000527: 26,2375           06516                                    HIDPHALF
000528: 26,2376           77650                           GOTO
000529: 26,2377           56072                                    COMPMATX
000530: 26,2400           52175        PICKX              VLOAD    GOTO                                  #  PICK THE XAXIS IN THIS CASE
000531: 26,2401           06516                                    HIDPHALF
000532: 26,2402           54374                                    XROT
000533: 26,2403           15555 35172  SINGIMLC           2DEC     .4285836003                            #  =SIN(59)                $2
000534:
000535: 26,2405           14113 36326  SINVEC1            2DEC     .3796356537                            #  =SIN(49.4)              $2
000536:
000537: 26,2407           07701 35703  SINVEC2            2DEC     .2462117800                            #  =SIN(29.5)              $2
000538:
000539: 26,2411           04343 21616  VECANG1            2DEC     .1388888889                            #  = 50 DEGREES                       $360
000540:


000542: 26,2413           03070 34344  VECANG2            2DEC     .09722222222                            #  = 35 DEGREES                       $360
000543:
000544: 26,2415           00000        1BITDP             OCT      0                                     #  KEEP THIS BEFORE DPB(-14)     *********
000545: 26,2416           00001        DPB-14             OCT      00001
000546: 26,2417           00000                           OCT      00000
000547:


000549:                                                                                                  #  ROUTINE FOR INITIATING AUTOMATIC MANEUVER VIA KEYBOARD (V49)
000550:
000551:
000552: 34,2000                                           BANK     34
000553: 23,2000                                           SETLOC   R62
000554: 23,2000                                           BANK
000555: 23,2103  E6,1675                                  EBANK=   BCDU
000556:
000557: 23,2103                                           COUNT*   $$/R62
000558:
000559: 23,2103  23,2103               R62DISP            EQUALS   R62FLASH
000560:
000561: 23,2103           35010        R62FLASH           CAF      V06N22                                #  FLASH V06N22 AND
000562: 23,2104           04616                           TC       BANKCALL                              #  ICDU ANGLES
000563: 23,2105           20477                           CADR     GOFLASH
000564: 23,2106           15503                           TCF      ENDEXT                                #  TERMINATE
000565: 23,2107           12111                           TCF      GOMOVE                                #  PROCEED
000566: 23,2110           12103                           TCF      R62FLASH                              #  ENTER
000567:
000568:                                                                                                  #  ASTRONAUT MAY LOAD NEW ICDUS AT THIS
000569:                                                                                                  #  POINT
000570: 23,2111           05515        GOMOVE             TC       UPFLAG                                #  SET FOR 3-AXIS MANEUVER
000571: 23,2112           00124                           ADRES    3AXISFLG
000572:
000573: 23,2113           04616                           TC       BANKCALL
000574: 23,2114           54125                           CADR     R60LEM
000575: 23,2115           15503                           TCF      ENDEXT                                #  END R62
000576:

End of include-file R60,R62.agc.  Parent file is MAIN.agc


