
Source Code


000002:                                                                                                  ## Copyright:   Public domain.
000003:                                                                                                  ## Filename:    RADAR_LEADIN_ROUTINES.agc
000004:                                                                                                  ## Purpose:     A section of Luminary revision 173.
000005:                                                                                                  ##              It is part of the reconstructed source code for the second
000006:                                                                                                  ##              (unflown) release of the flight software for the Lunar
000007:                                                                                                  ##              Module's (LM) Apollo Guidance Computer (AGC) for Apollo 14.
000008:                                                                                                  ##              The code has been recreated from a reconstructed copy of
000009:                                                                                                  ##              Luminary 178, as well as Luminary memo 167 (revision 1).
000010:                                                                                                  ##              It has been adapted such that the resulting bugger words
000011:                                                                                                  ##              exactly match those specified for Luminary 173 in NASA
000012:                                                                                                  ##              drawing 2021152N, which gives relatively high confidence
000013:                                                                                                  ##              that the reconstruction is correct.
000014:                                                                                                  ## Reference:   pp. 498-499
000015:                                                                                                  ## Assembler:   yaYUL
000016:                                                                                                  ## Contact:     Ron Burkey <info@sandroid.org>.
000017:                                                                                                  ## Website:     www.ibiblio.org/apollo/index.html
000018:                                                                                                  ## Mod history: 2019-09-18 MAS  Created from Luminary 178.
000019:


000021: 15,2050                                           BANK     15
000022: 15,2000                                           SETLOC   RRLEADIN
000023: 15,2000                                           BANK
000024:
000025: 15,2050  E4,1600                                  EBANK=   RSTACK
000026:
000027:                                                                                                  #  RADAR SAMPLING LOOP.
000028:
000029: 15,2050                                           COUNT*   $$/RLEAD
000030: 15,2050           11777        RADSAMP            CCS      RSAMPDT                               #  TIMES NORMAL ONCE-PER-SECOND SAMPLING.
000031: 15,2051           12053                           TCF      +2
000032: 15,2052           15272                           TCF      TASKOVER                              #  +0 INSERTED MANUALLY TERMINATES TEST.
000033:
000034: 15,2053           05204                           TC       TWIDDLE
000035: 15,2054           32050                           CADR     RADSAMP
000036: 15,2055           37716                           CAF      PRIO25
000037: 15,2056           05072                           TC       NOVAC
000038: 15,2057  E4,1600                                  EBANK=   RSTACK
000039: 15,2057           02003 52064                     2CADR    DORSAMP
000040:
000041: 15,2061           34736                           CAF      BIT14                                 #  FOR CYCLIC SAMPLING, RTSTDEX=
000042: 15,2062           00006                           EXTEND                                         #  RTSTLOC/2 + RTSTBASE
000043: 15,2063           71776                           MP       RTSTLOC
000044: 15,2064           61775                           AD       RTSTBASE                              #  0 FOR RR, 2 FOR LR.
000045: 15,2065           55773                           TS       RTSTDEX
000046: 15,2066           15272                           TCF      TASKOVER
000047:
000048: 25,2003                                           BANK     25
000049: 25,2000                                           SETLOC   DRSAMP
000050: 25,2000                                           BANK
000051:
000052: 25,2003  E4,1600                                  EBANK=   RSTACK
000053:                                                                                                  #  DO THE ACTUAL RADAR SAMPLE.
000054:
000055: 25,2003           02040        DORSAMP            TC       VARADAR                               #  SELECTS VARIABLE RADAR CHANNEL.
000056: 25,2004           04616                           TC       BANKCALL
000057: 25,2005           17720                           CADR     RADSTALL
000058:
000059: 25,2006           25575                           INCR     RFAILCNT                              #  ADVANCE FAIL COUNTER BUT ACCEPT BAD DATA
000060:
000061: 25,2007           00004        DORSAMP2           INHINT
000062: 25,2010           30101                           CA       FLAGWRD5                              #  DON'T UPDATE RSTACK IF IN R77.
000063: 25,2011           74741                           MASK     R77FLBIT
000064: 25,2012           10000                           CCS      A
000065: 25,2013           12030                           TCF      R77IN
000066:
000067: 25,2014           53101                           DXCH     SAMPLSUM
000068: 25,2015           51776                           INDEX    RTSTLOC
000069: 25,2016           53601                           DXCH     RSTACK
000070:


000072: 25,2017           30110                           CA       RADMODES
000073: 25,2020           00006                           EXTEND
000074: 25,2021           06033                           RXOR     CHAN33
000075: 25,2022           74746                           MASK     BIT6
000076: 25,2023           00006                           EXTEND
000077: 25,2024           12030                           BZF      R77IN
000078:
000079: 25,2025           05600                           TC       ALARM
000080: 25,2026           00522                           OCT      522
000081: 25,2027           25575                           INCR     RFAILCNT
000082:
000083: 25,2030           41776        R77IN              CS       RTSTLOC                               #  CYCLE RTSTLOC
000084: 25,2031           61774                           AD       RTSTMAX
000085: 25,2032           00006                           EXTEND
000086: 25,2033           12036                           BZF      +3
000087: 25,2034           31776                           CA       RTSTLOC
000088: 25,2035           64752                           AD       TWO                                   #  STORAGE IS DP
000089: 25,2036           55776                           TS       RTSTLOC
000090: 25,2037           15155                           TCF      ENDOFJOB                              #  CONTINUOUS SAMPLING AND 2N TRIES - GONE.
000091:
000092:                                                                                                  #  VARIABLE RADAR DATA CALLER FOR ONE MEASUREMENT ONLY.
000093:
000094: 25,2040           34753        VARADAR            CAF      ONE                                   #  WILL BE SENT TO RADAR ROUTINE IN A BY
000095: 25,2041           54133                           TS       BUF2                                  #  SWCALL.
000096: 25,2042           51773                           INDEX    RTSTDEX
000097: 25,2043           32045                           CAF      RDRLOCS
000098: 25,2044           14622                           TCF      SWCALL                                #  NOT TOUCHING Q.
000099:
000100: 25,2045           53074        RDRLOCS            CADR     RRRANGE                               #  = 0
000101: 25,2046           53072                           CADR     RRRDOT                                #  = 1
000102: 25,2047           53070                           CADR     LRVELX                                #  = 2
000103: 25,2050           53066                           CADR     LRVELY                                #  = 3
000104: 25,2051           53064                           CADR     LRVELZ                                #  = 4
000105: 25,2052           53062                           CADR     LRALT                                 #  = 5

End of include-file RADAR_LEADIN_ROUTINES.agc.  Parent file is MAIN.agc


