
Source Code


000002:                                                                                                  ## Copyright:   Public domain.
000003:                                                                                                  ## Filename:    SPS_BACK-UP_RCS_CONTROL.agc
000004:                                                                                                  ## Purpose:     A section of Luminary revision 173.
000005:                                                                                                  ##              It is part of the reconstructed source code for the second
000006:                                                                                                  ##              (unflown) release of the flight software for the Lunar
000007:                                                                                                  ##              Module's (LM) Apollo Guidance Computer (AGC) for Apollo 14.
000008:                                                                                                  ##              The code has been recreated from a reconstructed copy of
000009:                                                                                                  ##              Luminary 178, as well as Luminary memo 167 (revision 1).
000010:                                                                                                  ##              It has been adapted such that the resulting bugger words
000011:                                                                                                  ##              exactly match those specified for Luminary 173 in NASA
000012:                                                                                                  ##              drawing 2021152N, which gives relatively high confidence
000013:                                                                                                  ##              that the reconstruction is correct.
000014:                                                                                                  ## Reference:   pp. 1495-1498
000015:                                                                                                  ## Assembler:   yaYUL
000016:                                                                                                  ## Contact:     Ron Burkey <info@sandroid.org>.
000017:                                                                                                  ## Website:     www.ibiblio.org/apollo/index.html
000018:                                                                                                  ## Mod history: 2019-09-18 MAS  Created from Luminary 178.
000019:


000021:                                                                                                  #  PROGRAM NAME:  SPSRCS
000022:
000023:                                                                                                  #  AUTHOR:  EDGAR M. OSHIKA (AC ELECTRONICS)
000024:
000025:                                                                                                  #  MODIFIED:  TO RETURN TO ALL AXES VIA Q BY P.S.WEISSMAN, OCT 7, 1968
000026:
000027:                                                                                                  #  MODIFIED TO IMPROVE BENDING STABILITY BY G.KALAN,FEB.14,1969
000028:                                                                                                  #  FUNCTIONAL DESCRIPTION:
000029:
000030:                                                                                                  #  THIS PROGRAM CONTROLS THE FIRING OF ALL RCS JETS IN THE DOCKED CONFIGURATION ACCORDING TO THE FOLLOWING PHASE
000031:                                                                                                  #  PLANE LOGIC.
000032:
000033:                                                                                                  #  1. JET SENSE TEST (SPSRCS)
000034:
000035:                                                                                                  #  IF JETS ARE FIRING NEGATIVELY,SET OLDSENSE NEGATIVE AND CONTINUE
000036:                                                                                                  #  IF JETS ARE FIRING POSITIVELY,SET OLDSENSE POSITIVE AND CONTINUE
000037:                                                                                                  #  IF JETS ARE NOT FIRING,SET OLDSENSE TO ZERO AND GO TO OUTER RATE LIMIT  TEST
000038:
000039:                                                                                                  #  2. RATE DEAD BAND TEST
000040:
000041:                                                                                                  #  IF JETS ARE FIRING NEGATIVELY AND RATE IS GREATER THAN TARGET RATE,LEAVE
000042:                                                                                                  #  JETS ON AND GO TO INHIBITION LOGIC. OTHERWISE,CONTINUE.
000043:                                                                                                  #  IF JETS ARE FIRING POSITIVELY AND RATE IS   LESS  THAN TARGET RATE,LEAVE
000044:                                                                                                  #  JETS ON AND GO TO INHIBITION LOGIC. OTHERWISE,CONTINUE.
000045:
000046:                                                                                                  #  3. OUTER RATE LIMIT TEST (SPSSTART)
000047:
000048:                                                                                                  #  IF MAGNITUDE OF EDOT IS GREATER THAN 1.73 DEG/SEC SET JET FIRING TIME
000049:                                                                                                  #   TO REDUCE RATE AND GO TO INHIBITION LOGIC. OTHERWISE,CONTINUE.
000050:
000051:                                                                                                  #  4. COAST ZONE TEST
000052:
000053:                                                                                                  #  IF STATE (E,EDOT) IS BELOW LINE  E + 4 X EDOT > -1.4 DEG  AND EDOT IS LESS THAN 1.30 DEG/SEC SET JET TIME POSI-
000054:                                                                                                  #  TIVE AND CONTINUE. OTHERWISE,SET JET FIRING TIME TO ZERO AND CONTINUE.
000055:                                                                                                  #  IF STATE IS ABOVE LINE  E + 4X EDOT > +1.4 DEG AND EDOT IS GREATER THAN -1.30 DEG/SEC, SET JET TIME NEGATIVE
000056:                                                                                                  #  AND CONTINUE. OTHERWISE,SET JET FIRING TIME TO ZERO AND CONTINUE.
000057:
000058:                                                                                                  #  5. INHIBITION LOGIC
000059:
000060:                                                                                                  #  IF OLDSENSE IS NON-ZERO:
000061:                                                                                                  #        A) RETURN IF JET TIME HAS SAME SIGN AS OLDSENSE
000062:                                                                                                  #        B) SET INHIBITION COUNTER*AND RETURN IF JET TIME IS ZERO
000063:                                                                                                  #        C) SET INHIBITION COUNTER,*SET JET TIME TO ZERO AND RETURN IF SIGN
000064:                                                                                                  #           OF JET TIME IS OPPOSITE TO THAT OF OLDSENSE
000065:
000066:                                                                                                  #  IF OLDSENSE IS ZERO:
000067:                                                                                                  #        A) RETURN IF INHIBITION COUNTER IS NOT POSITIVE
000068:                                                                                                  #        B) SET JET TIME TO ZERO AND RETURN IF INHIBITION COUNTER IS POSITIVE
000069:                                                                                                  #  *NOTE: INHIBITION COUNTERS CAN BE SET TO 4 OR 10 FOR THE P,AND UV AXES,
000070:                                                                                                  #  RESPECTIVELY,IN SPSRCS. THEY ARE DECREMENTED BY ONE AT THE BEGINNING OF


000072:                                                                                                  #  EACH DAP PASS.
000073:
000074:                                                                                                  #  THE MINIMUM PULSE WIDTH OF THIS CONTROLLER IS DETERMINED BY THE REPETITION  RATE AT WHICH THIS ROUTINE IS CALLED
000075:                                                                                                  #  AND IS NOMINALLY 100 MS FOR ALL AXES IN DRIFTING FLIGHT.   DURING POWERED FLIGHT THE MINIMUM IS 100 MS FOR THE
000076:                                                                                                  #  P AXIS AND 200 MS FOR THE CONTROL OF THE U AND V AXES.
000077:
000078:                                                                                                  #  CALLING SEQUENCE:
000079:
000080:                                                                                                  #           INHINT
000081:                                                                                                  #                      TC     IBNKCALL
000082:                                                                                                  #                      CADR   SPSRCS
000083:
000084:
000085:                                                                                                  #  EXIT:
000086:                                                                                                  #           TC     Q
000087:                                                                                                  #  ALARM/ABORT MODE:    NONE
000088:
000089:                                                                                                  #  SUBROUTINES CALLED:    NONE
000090:
000091:                                                                                                  #  INPUT:      E,EDOT
000092:                                                                                                  #              TJP, TJV, TJU                   TJ MUST NOT BE NEGATIVE ZERO
000093:
000094:                                                                                                  #  OUTPUT:     TJP, TJV, TJU
000095:
000096:
000097: 21,3640                                           BANK     21
000098: 21,2000                                           SETLOC   DAPS4
000099: 21,2000                                           BANK
000100:
000101: 21,3640                                           COUNT*   $$/DAPBU
000102:
000103: 21,3640  E6,1525                                  EBANK=   TJU
000104: 21,3640           00632        RATELIM2           OCT      00632                                 #  1.125 DEG/SEC
000105: 21,3641           34736        POSTHRST           CA       HALF
000106:
000107: 21,3642           51505                           NDX      AXISCTR
000108: 21,3643           55525                           TS       TJU
000109: 21,3644           11744                           CCS      OLDSENSE
000110: 21,3645           13665                           TCF      POSCHECK                              #  JETS FIRING POSITIVELY
000111: 21,3646           13670                           TCF      CTRCHECK                              #  JETS OFF. CHECK INHIBITION CTR
000112: 21,3647           51505        NEGCHECK           INDEX    AXISCTR                               #  JETS FIRING NEGATIVELY
000113: 21,3650           41525                           CS       TJU
000114: 21,3651           10000                           CCS      A
000115: 21,3652           00002                           TC       Q                                     #  RETURN
000116: 21,3653           13655                           TCF      +2
000117: 21,3654           13655                           TCF      +1                                    #  JETS COMMANDED OFF.SET CTR AND RETURN
000118: 21,3655           51505        SETCTR             INDEX    AXISCTR                               #  JET FIRING REVERSAL COMMANDED. SET CTR,
000119: 21,3656           33677                           CA       UTIME                                 #  SET JET TIME TO ZERO,AND RETURN


000121: 21,3657           51505                           INDEX    AXISCTR
000122: 21,3660           55767                           TS       UJETCTR
000123: 21,3661           34755        ZAPTJ              CA       ZERO
000124: 21,3662           51505                           INDEX    AXISCTR
000125: 21,3663           55525                           TS       TJU
000126: 21,3664           00002                           TC       Q
000127: 21,3665           51505        POSCHECK           INDEX    AXISCTR
000128: 21,3666           31525                           CA       TJU
000129: 21,3667           13651                           TCF      NEGCHECK   +2
000130: 21,3670           51505        CTRCHECK           INDEX    AXISCTR                               #  CHECK JET INHIBITION COUNTER
000131: 21,3671           11767                           CCS      UJETCTR
000132: 21,3672           13674                           TCF      +2
000133: 21,3673           00002                           TC       Q                                     #  CTR IS NOT POSITIVE. RETURN
000134: 21,3674           13661                           TCF      ZAPTJ                                 #  CTR IS POSITIVE.INHIBIT FIRINGS
000135: 21,3675           00002                           TC       Q                                     #  CTR IS NOT POSITIVE.RETURN
000136: 21,3676           00004                           OCT      00004
000137: 21,3677           00012        UTIME              OCT      00012
000138: 21,3700           00012                           OCT      00012
000139: 21,3701  E6,1744               OLDSENSE           EQUALS   DAPTREG1
000140: 21,3701           44753        NEGFIRE            CS       ONE                                   #  JETS FIRING NEGATIVELY
000141: 21,3702           55744                           TS       OLDSENSE
000142: 21,3703           31427                           CA       EDOT
000143: 21,3704           13710                           TCF      +4
000144: 21,3705           34753        PLUSFIRE           CA       ONE
000145: 21,3706           55744                           TS       OLDSENSE
000146: 21,3707           41427                           CS       EDOT                                  #  RATE DEAD BAND TEST
000147: 21,3710           22000                           LXCH     A
000148: 21,3711           40111                           CS       DAPBOOLS                              #  IF DRIFTBIT = 1, USE ZERO TARGET RATE
000149: 21,3712           74744                           MASK     DRIFTBIT                              #  IF DRIFTBIT = 0, USE 0.10 RATE TARGET
000150: 21,3713           10000                           CCS      A
000151: 21,3714           34767                           CA       RATEDB1
000152: 21,3715           60001                           AD       L
000153: 21,3716           00006                           EXTEND
000154: 21,3717           63727                           BZMF     SPSSTART
000155: 21,3720           13644                           TCF      POSTHRST   +3
000156:
000157: 21,3721           51505        SPSRCS             INDEX    AXISCTR                               #  JET SENSE TEST
000158: 21,3722           11525                           CCS      TJU
000159: 21,3723           13705                           TCF      PLUSFIRE                              #  JETS FIRING POSITIVELY
000160: 21,3724           13726                           TCF      +2
000161: 21,3725           13701                           TCF      NEGFIRE                               #  JETS FIRING NEGATIVELY
000162: 21,3726           55744                           TS       OLDSENSE                              #  JETS OFF
000163: 21,3727           31427        SPSSTART           CA       EDOT                                  #  OUTER RATE LIMIT TEST
000164: 21,3730           00006                           EXTEND
000165: 21,3731           74766                           MP       RATELIM1
000166: 21,3732           10000                           CCS      A
000167: 21,3733           13752                           TCF      NEGTHRST                              #  OUTER RATE LIMIT EXCEEDED
000168: 21,3734           13736                           TCF      +2
000169: 21,3735           13641                           TCF      POSTHRST                              #  OUTER RATE LIMIT EXCEEDED
000170: 21,3736           31427                           CA       EDOT                                  #  COAST ZONE TEST
000171: 21,3737           61751                           AD       E


000173: 21,3740           00006                           EXTEND
000174: 21,3741           71411                           MP       DKDB                                  #  PAD LOADED DEADBAND. FRESHSTART: 1.4 DEG
000175: 21,3742           00006                           EXTEND
000176: 21,3743           13760                           BZF      TJZERO
000177:
000178: 21,3744           00006                           EXTEND
000179: 21,3745           63754                           BZMF     +7
000180: 21,3746           31427                           CA       EDOT
000181: 21,3747           63640                           AD       RATELIM2
000182: 21,3750           00006                           EXTEND
000183: 21,3751           63760                           BZMF     TJZERO
000184: 21,3752           44736        NEGTHRST           CS       HALF
000185: 21,3753           13642                           TCF      POSTHRST   +1
000186: 21,3754           43640                 +7        CS       RATELIM2
000187: 21,3755           61427                           AD       EDOT
000188: 21,3756           00006                           EXTEND
000189: 21,3757           63641                           BZMF     POSTHRST
000190: 21,3760           34755        TJZERO             CA       ZERO
000191: 21,3761           13642                           TCF      POSTHRST   +1
000192:
000193:
000194: 21,3762     4766               RATELIM1           =        CALLCODE                              #  = 00032, CORRESPONDING TO 1.73 DEG/SEC
000195: 21,3762     4767               RATEDB1            =        TBUILDFX                              #   = 00045, CORRESPONDS TO 0.101 DEG/SEC

End of include-file SPS_BACK-UP_RCS_CONTROL.agc.  Parent file is MAIN.agc


