
Source Code


000002:                                                                                                  ## Copyright:   Public domain.
000003:                                                                                                  ## Filename:    TAGS_FOR_RELATIVE_SETLOC_AND_BLANK_BANK_CARDS.agc
000004:                                                                                                  ## Purpose:     A section of Luminary revision 173.
000005:                                                                                                  ##              It is part of the reconstructed source code for the second
000006:                                                                                                  ##              (unflown) release of the flight software for the Lunar
000007:                                                                                                  ##              Module's (LM) Apollo Guidance Computer (AGC) for Apollo 14.
000008:                                                                                                  ##              The code has been recreated from a reconstructed copy of
000009:                                                                                                  ##              Luminary 178, as well as Luminary memo 167 (revision 1).
000010:                                                                                                  ##              It has been adapted such that the resulting bugger words
000011:                                                                                                  ##              exactly match those specified for Luminary 173 in NASA
000012:                                                                                                  ##              drawing 2021152N, which gives relatively high confidence
000013:                                                                                                  ##              that the reconstruction is correct.
000014:                                                                                                  ## Reference:   pp. 28-37
000015:                                                                                                  ## Assembler:   yaYUL
000016:                                                                                                  ## Contact:     Ron Burkey <info@sandroid.org>.
000017:                                                                                                  ## Website:     www.ibiblio.org/apollo/index.html
000018:                                                                                                  ## Mod history: 2019-09-18 MAS  Created from Luminary 178.
000019:


000021: ???????                                           COUNT    BANKSUM
000022:                                                                                                  #           MODULE 1 CONTAINS BANKS 0 THROUGH 5
000023:
000024:    4000                                           BLOCK    02
000025:    4000                        RADARFF            EQUALS
000026:    4000                        FFTAG1             EQUALS
000027:    4000                        FFTAG2             EQUALS
000028:    4000                        FFTAG3             EQUALS
000029:    4000                        FFTAG4             EQUALS
000030:    4000                        FFTAG7             EQUALS
000031:    4000                        FFTAG8             EQUALS
000032:    4000                        FFTAG9             EQUALS
000033:    4000                        FFTAG10            EQUALS
000034:    4000                        FFTAG11            EQUALS
000035:    4000                        FFTAG12            EQUALS
000036:    4000                        FFTAG13            EQUALS
000037:    4000                                           BNKSUM   02
000038:
000039:
000040:    6000                                           BLOCK    03
000041:    6000                        FFTAG5             EQUALS
000042:    6000                        FFTAG6             EQUALS
000043:    6000                                           BNKSUM   03
000044:
000045:
000046: 00,2000                                           BANK     00
000047: 00,2000                        DLAYJOB            EQUALS
000048: 00,2000                                           BNKSUM   00
000049:
000050:
000051: 01,2000                                           BANK     01
000052: 01,2000                        RESTART            EQUALS
000053: 01,2000                        LOADDAP1           EQUALS
000054: 01,2000                                           BNKSUM   01
000055:
000056:
000057: 04,2000                                           BANK     04
000058: 04,2000                        ORBITAL3           EQUALS
000059: 04,2000                        R02                EQUALS
000060: 04,2000                        VERB37             EQUALS
000061: 04,2000                        PINBALL4           EQUALS
000062: 04,2000                        CONICS1            EQUALS
000063: 04,2000                        KEYRUPT            EQUALS
000064: 04,2000                        R36LM              EQUALS
000065: 04,2000                        UPDATE2            EQUALS
000066: 04,2000                        E/PROG             EQUALS


000068: 04,2000                        AOTMARK2           EQUALS
000069: 04,2000                                           BNKSUM   04
000070:
000071:
000072: 05,2000                                           BANK     05
000073: 05,2000                        FRANDRES           EQUALS
000074: 05,2000                        DOWNTELM           EQUALS
000075: 05,2000                        ABORTS1            EQUALS
000076: 05,2000                        EPHEM1             EQUALS
000077: 05,2000                        ASENT3             EQUALS
000078: 05,2000                                           BNKSUM   05
000079:
000080:
000081:                                                                                                  #           MODULE 2 CONTAINS BANKS 6 THROUGH 13
000082:
000083: 06,2000                                           BANK     06
000084: 06,2000                        IMUCOMP            EQUALS
000085: 06,2000                        T4RUP              EQUALS
000086: 06,2000                        RCSMONT            EQUALS
000087: 06,2000                        MIDDGIM            EQUALS
000088: 06,2000                        EARTHLOC           EQUALS
000089: 06,2000                                           BNKSUM   06
000090:
000091:
000092: 07,2000                                           BANK     07
000093: 07,2000                        AOTMARK1           EQUALS
000094: 07,2000                        MODESW             EQUALS
000095: 07,2000                        ASENT2             EQUALS
000096: 07,2000                                           BNKSUM   07
000097:
000098:
000099: 10,2000                                           BANK     10
000100: 10,2000                        RTBCODES           EQUALS
000101: 10,2000                        DISPLAYS           EQUALS
000102: 10,2000                        PHASETAB           EQUALS
000103: 10,2000                        FLESHLOC           EQUALS
000104: 10,2000                        SLCTMU             EQUALS
000105: 10,2000                                           BNKSUM   10
000106:
000107:
000108: 11,2000                                           BANK     11
000109: 11,2000                        ORBITAL            EQUALS
000110: 11,2000                        F2DPS*11           EQUALS
000111: 11,2000                        INTVEL             EQUALS
000112: 11,2000                                           BNKSUM   11
000113:
000114:


000116: 12,2000                                           BANK     12
000117: 12,2000                        CONICS             EQUALS
000118: 12,2000                        ORBITAL1           EQUALS
000119: 12,2000                        INTPRET2           EQUALS
000120: 12,2000                                           BNKSUM   12
000121:
000122:
000123: 13,2000                                           BANK     13
000124: 13,2000                        LATLONG            EQUALS
000125: 13,2000                        INTINIT            EQUALS
000126: 13,2000                        LEMGEOM            EQUALS
000127: 13,2000                        P76LOC             EQUALS
000128: 13,2000                        ORBITAL2           EQUALS
000129: 13,2000                        ABTFLGS            EQUALS
000130: 13,2000                                           BNKSUM   13
000131:
000132:


000134:                                                                                                  #           MODULE 3 CONTAINS BANKS 14 THROUGH 21
000135:
000136: 14,2000                                           BANK     14
000137: 14,2000                        P50S1              EQUALS
000138: 14,2000                        STARTAB            EQUALS
000139: 14,2000                        ASENT4             EQUALS
000140: 14,2000                                           BNKSUM   14
000141:
000142:
000143: 15,2000                                           BANK     15
000144: 15,2000                        P50S               EQUALS
000145: 15,2000                        EPHEM              EQUALS
000146: 15,2000                        RRLEADIN           EQUALS
000147: 15,2000                                           BNKSUM   15
000148:
000149:
000150: 16,2000                                           BANK     16
000151: 16,2000                        DAPS1              EQUALS
000152: 16,2000                                           BNKSUM   16
000153:
000154:
000155: 17,2000                                           BANK     17
000156: 17,2000                        DAPS2              EQUALS
000157: 17,2000                        C13BANK            EQUALS
000158: 17,2000                                           BNKSUM   17
000159:
000160:
000161: 20,2000                                           BANK     20
000162: 20,2000                        DAPS3              EQUALS
000163: 20,2000                        LOADDAP            EQUALS
000164: 20,2000                                           BNKSUM   20
000165:
000166:
000167: 21,2000                                           BANK     21
000168: 21,2000                        DAPS4              EQUALS
000169: 21,2000                        R10                EQUALS
000170: 21,2000                        R11                EQUALS
000171: 21,2000                                           BNKSUM   21
000172:
000173:


000175:                                                                                                  #           MODULE 4 CONTAINS BANKS 22 THROUGH 27
000176:
000177: 22,2000                                           BANK     22
000178: 22,2000                        KALCMON1           EQUALS
000179: 22,2000                        KALCMON2           EQUALS
000180: 22,2000                        R30LOC             EQUALS
000181: 22,2000                        RENDEZ             EQUALS
000182: 22,2000                        SERV2              EQUALS
000183: 22,2000                        LANDCNST           EQUALS
000184: 22,2000                                           BNKSUM   22
000185:
000186:
000187: 23,2000                                           BANK     23
000188: 23,2000                        POWFLITE           EQUALS
000189: 23,2000                        POWFLIT1           EQUALS
000190: 23,2000                        INFLIGHT           EQUALS
000191: 23,2000                        APOPERI            EQUALS
000192: 23,2000                        R61                EQUALS
000193: 23,2000                        R62                EQUALS
000194: 23,2000                        INTPRET1           EQUALS
000195: 23,2000                        MEASINC            EQUALS
000196: 23,2000                        MEASINC1           EQUALS
000197: 23,2000                        EXTVB1             EQUALS
000198: 23,2000                        P12A               EQUALS
000199: 23,2000                        NORMLIZ            EQUALS
000200: 23,2000                        ASENT7             EQUALS
000201: 23,2000                        RODTRAP            EQUALS
000202: 23,2000                                           BNKSUM   23
000203:
000204:
000205: 24,2000                                           BANK     24
000206: 24,2000                        PLANTIN            EQUALS
000207: 24,2000                        P20S               EQUALS
000208: 24,2000                        S40BNK             EQUALS
000209: 24,2000                                           BNKSUM   24
000210:
000211:
000212: 25,2000                                           BANK     25
000213: 25,2000                        P20S1              EQUALS
000214: 25,2000                        P20S2              EQUALS
000215: 25,2000                        RADARUPT           EQUALS
000216: 25,2000                        DRSAMP             EQUALS
000217: 25,2000                        PLANTIN3           EQUALS
000218: 25,2000                                           BNKSUM   25
000219:
000220:


000222: 26,2000                                           BANK     26
000223: 26,2000                        P20S3              EQUALS
000224: 26,2000                        BAWLANGS           EQUALS
000225: 26,2000                        MANUVER            EQUALS
000226: 26,2000                        MANUVER1           EQUALS
000227: 26,2000                        PLANTIN1           EQUALS
000228: 26,2000                        PLANTIN2           EQUALS
000229: 26,2000                                           BNKSUM   26
000230:
000231:
000232: 27,2000                                           BANK     27
000233: 27,2000                        TOF-FF             EQUALS
000234: 27,2000                        TOF-FF1            EQUALS
000235: 27,2000                        P40S1              EQUALS
000236: 27,2000                        VECPT              EQUALS
000237: 27,2000                        ASENT1             EQUALS
000238: 27,2000                        SERV3              EQUALS
000239: 27,2000                                           BNKSUM   27
000240:
000241:


000243:                                                                                                  #           MODULE 5 CONTAINS BANKS 30 THROUGH 35
000244:
000245: 30,2000                                           BANK     30
000246: 30,2000                        LOWSUPER           EQUALS
000247: 30,2000                        P12                EQUALS
000248: 30,2000                        ASENT              EQUALS
000249: 30,2000                        FCDUW              EQUALS
000250: 30,2000                        FLOGSUB            EQUALS
000251: 30,2000                        VB67A              EQUALS
000252: 30,2000                        ASENT5             EQUALS
000253: 30,2000                                           BNKSUM   30
000254:
000255:
000256: 31,2000                                           BANK     31
000257: 31,2000                        FTHROT             EQUALS
000258: 31,2000                        F2DPS*31           EQUALS
000259: 31,2000                        VB67               EQUALS
000260: 31,2000                                           BNKSUM   31
000261:
000262:
000263: 32,2000                                           BANK     32
000264: 32,2000                        P20S4              EQUALS
000265: 32,2000                        F2DPS*32           EQUALS
000266: 32,2000                        ABORTS             EQUALS
000267: 32,2000                        LRS22              EQUALS
000268: 32,2000                        P66LOC             EQUALS
000269: 32,2000                        R47                EQUALS
000270: 32,2000                        SERV               EQUALS
000271: 32,2000                        P40S4              EQUALS
000272: 32,2000                                           BNKSUM   32
000273:
000274:
000275: 33,2000                                           BANK     33
000276: 33,2000                        SERVICES           EQUALS
000277: 33,2000                        R29/SERV           EQUALS
000278: 33,2000                        ASENT6             EQUALS
000279: 33,2000                                           BNKSUM   33
000280:
000281:
000282: 34,2000                                           BANK     34
000283: 34,2000                        ASENT8             EQUALS
000284: 34,2000                        P30S1              EQUALS
000285: 34,2000                        CSI/CDH1           EQUALS
000286: 34,2000                        ASCFILT            EQUALS
000287: 34,2000                        R12STUFF           EQUALS
000288: 34,2000                        SERV4              EQUALS
000289: 34,2000                        F2DPS*34           EQUALS
000290: 34,2000                                           BNKSUM   34
000291:
000292:


000294: 35,2000                                           BANK     35
000295: 35,2000                        CSI/CDH            EQUALS
000296: 35,2000                        P30S               EQUALS
000297: 35,2000                        P40S3              EQUALS
000298: 35,2000                        P40S2              EQUALS
000299: 35,2000                                           BNKSUM   35
000300:
000301:


000303:                                                                                                  #           MODULE 6 CONTAINS BANKS 36 THROUGH 43
000304:
000305: 36,2000                                           BANK     36
000306: 36,2000                        P40S               EQUALS
000307: 36,2000                                           BNKSUM   36
000308:
000309:
000310: 37,2000                                           BANK     37
000311: 37,2000                        P05P06             EQUALS
000312: 37,2000                        IMU2               EQUALS
000313: 37,2000                        IMU4               EQUALS
000314: 37,2000                        R31                EQUALS
000315: 37,2000                        IMUSUPER           EQUALS
000316: 37,2000                        SERV1              EQUALS
000317: 37,2000                                           BNKSUM   37
000318:
000319:
000320: 40,2000                                           BANK     40
000321: 40,2000                        PINBALL1           EQUALS
000322: 40,2000                        SELFSUPR           EQUALS
000323: 40,2000                        PINSUPER           EQUALS
000324: 40,2000                        R31LOC             EQUALS
000325: 40,2000                                           BNKSUM   40
000326:
000327:
000328: 41,2000                                           BANK     41
000329: 41,2000                        PINBALL2           EQUALS
000330: 41,2000                                           BNKSUM   41
000331:
000332:
000333: 42,2000                                           BANK     42
000334: 42,2000                        SBAND              EQUALS
000335: 42,2000                        PINBALL3           EQUALS
000336: 42,2000                                           BNKSUM   42
000337:
000338:
000339: 43,2000                                           BANK     43
000340: 43,2000                        EXTVERBS           EQUALS
000341: 43,2000                        SELFCHEC           EQUALS
000342:
000343: 43,2000                                           BNKSUM   43
000344:
000345:


000347: 43,2000  23,2517               HI6ZEROS           EQUALS   ZEROVECS                              #  ZERO VECTOR ALWAYS IN HIGH MEMORY
000348: 43,2000  12,2006               LO6ZEROS           EQUALS   ZEROVEC                               #  ZERO VECTOR ALWAYS IN LOW MEMORY
000349: 43,2000  23,2515               HIDPHALF           EQUALS   UNITX
000350: 43,2000  12,2004               LODPHALF           EQUALS   XUNIT
000351: 43,2000  23,2507               HIDP1/4            EQUALS   DP1/4TH
000352: 43,2000  04,3010               LODP1/4            EQUALS   D1/4                                  #  2DEC .25
000353: 43,2000  23,2515               HIUNITX            EQUALS   UNITX
000354: 43,2000  23,2513               HIUNITY            EQUALS   UNITY
000355: 43,2000  23,2511               HIUNITZ            EQUALS   UNITZ
000356: 43,2000  12,2004               LOUNITX            EQUALS   XUNIT                                 #  2DEC .5
000357: 43,2000  12,2002               LOUNITY            EQUALS   YUNIT                                 #  2DEC 0
000358: 43,2000  12,2000               LOUNITZ            EQUALS   ZUNIT                                 #  2DEC 0
000359:
000360:
000361:
000362: 43,2000  22,3541               DELRSPL            EQUALS   SPLRET                                #  COL PGM, ALSO CALLED BY R30 IN LUMINARY
000363:                                                                                                  #  ROPE-SPECIFIC ASSIGNS OBVIATING NEED TO CHECK COMPUTER FLAG IN         DETERMINING INTEGRATION AREA ENTRIES.
000364:
000365: 43,2000  13,2733               ATOPTHIS           EQUALS   ATOPLEM
000366: 43,2000  13,2660               ATOPOTH            EQUALS   ATOPCSM
000367: 43,2000  13,3042               OTHPREC            EQUALS   CSMPREC
000368: 43,2000  0000174               MOONTHIS           EQUALS   LMOONFLG
000369: 43,2000  0000173               MOONOTH            EQUALS   CMOONFLG
000370: 43,2000  13,2746               MOVATHIS           EQUALS   MOVEALEM
000371: 43,2000  12,2017               RMM                =        LODPMAX
000372: 43,2000  12,2021               RME                =        LODPMAX1
000373: 43,2000  13,3056               THISPREC           EQUALS   LEMPREC
000374: 43,2000  23,2511               THISAXIS           =        UNITZ
000375: 43,2000  23,2511               NB1NB2             EQUALS   THISAXIS                              #  FOR R31
000376: 43,2000     5011               ERASID             EQUALS   BITS2-10                              #  DOWNLINK ERASABLE DUMP ID
000377: 43,2000     4752               DELAYNUM           EQUALS   TWO

End of include-file TAGS_FOR_RELATIVE_SETLOC_AND_BLANK_BANK_CARDS.agc.  Parent file is MAIN.agc


