
Source Code


000002:                                                                                                  ## Copyright:   Public domain.
000003:                                                                                                  ## Filename:    ALARM_AND_ABORT.agc
000004:                                                                                                  ## Purpose:     Part of the reconstructed source code for LMY99 Rev 0,
000005:                                                                                                  ##              otherwise known as Luminary Rev 99, the second release
000006:                                                                                                  ##              of the Apollo Guidance Computer (AGC) software for Apollo 11.
000007:                                                                                                  ##              It differs from LMY99 Rev 1 (the flown version) only in the
000008:                                                                                                  ##              placement of a single label. The corrections shown here have
000009:                                                                                                  ##              been verified to have the same bank checksums as AGC developer
000010:                                                                                                  ##              Allan Klumpp's copy of Luminary Rev 99, and so are believed
000011:                                                                                                  ##              to be accurate. This file is intended to be a faithful
000012:                                                                                                  ##              recreation, except that the code format has been changed to
000013:                                                                                                  ##              conform to the requirements of the yaYUL assembler rather than
000014:                                                                                                  ##              the original YUL assembler.
000015:                                                                                                  ##
000016:                                                                                                  ## Assembler:   yaYUL
000017:                                                                                                  ## Contact:     Ron Burkey <info@sandroid.org>.
000018:                                                                                                  ## Website:     www.ibiblio.org/apollo.
000019:                                                                                                  ## Pages:       1381-1385
000020:                                                                                                  ## Mod history: 2009-05-10 SN   (Sergio Navarro).  Started adapting
000021:                                                                                                  ##                              from the Luminary131/ file of the same
000022:                                                                                                  ##                              name, using Luminary099 page images.
000023:                                                                                                  ##              2009-06-05 RSB  Fixed a type.
000024:                                                                                                  ##              2011-01-06 JL   Fixed pseudo-label indentation.
000025:                                                                                                  ##              2016-12-13 RSB  GOTOP00H -> GOTOPOOH
000026:                                                                                                  ##              2016-12-18 RSB  Proofed text comments with octopus/ProoferComments
000027:                                                                                                  ##                              and corrected the errors found.
000028:                                                                                                  ##              2017-08-01 MAS  Created from LMY99 Rev 1.
000029:
000030:                                                                                                  ## This source code has been transcribed or otherwise adapted from
000031:                                                                                                  ## digitized images of a hardcopy from the MIT Museum.  The digitization
000032:                                                                                                  ## was performed by Paul Fjeld, and arranged for by Deborah Douglas of
000033:                                                                                                  ## the Museum.  Many thanks to both.  The images (with suitable reduction
000034:                                                                                                  ## in storage size and consequent reduction in image quality as well) are
000035:                                                                                                  ## available online at www.ibiblio.org/apollo.  If for some reason you
000036:                                                                                                  ## find that the images are illegible, contact me at info@sandroid.org
000037:                                                                                                  ## about getting access to the (much) higher-quality images which Paul
000038:                                                                                                  ## actually created.
000039:                                                                                                  ##
000040:                                                                                                  ## The code has been modified to match LMY99 Revision 0, otherwise
000041:                                                                                                  ## known as Luminary Revision 99, the Apollo 11 software release preceeding
000042:                                                                                                  ## the listing from which it was transcribed. It has been verified to
000043:                                                                                                  ## contain the same bank checksums as AGC developer Allan Klumpp's listing
000044:                                                                                                  ## of Luminary Revision 99 (for which we do not have scans).
000045:                                                                                                  ##
000046:                                                                                                  ## Notations on Allan Klumpp's listing read, in part:
000047:                                                                                                  ##
000048:                                                                                                  ##      ASSEMBLE REVISION 099 OF AGC PROGRAM LUMINARY BY NASA 2021112-51
000049:


000051:                                                                                                  #  THE FOLLOWING SUBROUTINE MAY BE CALLED TO DISPLAY A NON-ABORTIVE ALARM CONDITION.  IT MAY BE CALLED
000052:                                                                                                  #  EITHER IN INTERRUPT OR UNDER EXECUTIVE CONTROL.
000053:
000054:                                                                                                  #  CALLING SEQUENCE IS AS FOLLOWS:
000055:                                                                                                  #                TC      ALARM
000056:                                                                                                  #                OCT     AAANN           ALARM NO. NN IN GENERAL AREA AAA.
000057:                                                                                                  #                                        (RETURNS HERE)
000058:
000059:    5567                                           BLOCK    02
000060:    4000                                           SETLOC   FFTAG7
000061:    4000                                           BANK
000062:
000063:    5567     0375                                  EBANK=   FAILREG
000064:
000065:    5567                                           COUNT*   $$/ALARM
000066:
000067:                                                                                                  #  ALARM TURNS ON THE PROGRAM ALARM LIGHT, BUT DOES NOT DISPLAY.
000068:
000069:    5567           00004        ALARM              INHINT
000070:
000071:    5570           30002                           CA       Q
000072:    5571           55363        ALARM2             TS       ALMCADR
000073:    5572           50002                           INDEX    Q
000074:    5573           30000                           CA       0
000075:    5574           54001        BORTENT            TS       L
000076:
000077:    5575           30006        PRIOENT            CA       BBANK
000078:    5576           00006                 +1        EXTEND
000079:    5577           04007                           ROR      SUPERBNK                              #  ADD SUPER BITS.
000080:    5600           55364                           TS       ALMCADR    +1
000081:
000082:    5601           30002        LARMENT            CA       Q                                     #  STORE RETURN FOR ALARM
000083:    5602           54061                           TS       ITEMP1
000084:
000085:    5603           10375        CHKFAIL1           CCS      FAILREG                               #  IS ANYTHING IN FAILREG
000086:    5604           15607                           TCF      CHKFAIL2                              #  YES TRY NEXT REG
000087:    5605           22375                           LXCH     FAILREG
000088:    5606           15621                           TCF      PROGLARM                              #  TURN ALARM LIGHT ON FOR FIRST ALARM
000089:
000090:    5607           10376        CHKFAIL2           CCS      FAILREG    +1
000091:    5610           15613                           TCF      FAIL3
000092:    5611           22376                           LXCH     FAILREG    +1
000093:    5612           15624                           TCF      MULTEXIT
000094:
000095:    5613           30377        FAIL3              CA       FAILREG    +2
000096:    5614           74733                           MASK     POSMAX
000097:    5615           10000                           CCS      A
000098:    5616           15630                           TCF      MULTFAIL
000099:    5617           22377                           LXCH     FAILREG    +2
000100:    5620           15624                           TCF      MULTEXIT
000101:


000103:
000104:    5621           41036        PROGLARM           CS       DSPTAB     +11D
000105:    5622           75642                           MASK     OCT40400
000106:    5623           27036                           ADS      DSPTAB     +11D
000107:
000108:
000109:    5624           56061        MULTEXIT           XCH      ITEMP1                                #  OBTAIN RETURN ADDRESS IN A
000110:    5625           00003                           RELINT
000111:    5626           50000                           INDEX    A
000112:    5627           00001                           TC       1
000113:
000114:    5630           30001        MULTFAIL           CA       L
000115:    5631           64735                           AD       BIT15
000116:    5632           54377                           TS       FAILREG    +2
000117:
000118:    5633           15624                           TCF      MULTEXIT
000119:
000120:                                                                                                  #  PRIOLARM DISPLAYS V05N09 VIA PRIODSPR WITH 3 RETURNS TO THE USER FROM THE ASTRONAUT AT CALL LOC +1,+2,+3 AND
000121:                                                                                                  #  AN IMMEDIATE RETURN TO THE USER AT CALL LOC +4.  EXAMPLE FOLLOWS,
000122:                                                                                                  #                CAF     OCTXX           ALARM CODE
000123:                                                                                                  #                TC      BANKCALL
000124:                                                                                                  #                CADR    PRIOLARM
000125:                                                                                                  #                ...     ...
000126:                                                                                                  #                ...     ...
000127:                                                                                                  #                ...     ...             ASTRONAUT RETURN
000128:                                                                                                  #                TC      PHASCHNG        IMMEDIATE RETURN TO USER.  RESTART
000129:                                                                                                  #                OCT     X.1             PHASE CHANGE FOR PRIO DISPLAY
000130:
000131: 10,3562                                           BANK     10
000132: 10,2000                                           SETLOC   DISPLAYS
000133: 10,2000                                           BANK
000134:
000135: 10,3562                                           COUNT*   $$/DSPLA
000136: 10,3562           00004        PRIOLARM           INHINT                                         #  * * * KEEP IN DISPLAY ROUTINES BANK
000137: 10,3563           54001                           TS       L                                     #  SAVE ALARM CODE
000138:
000139: 10,3564           30133                           CA       BUF2                                  #  2 CADR OF PRIOLARM USER
000140: 10,3565           55363                           TS       ALMCADR
000141: 10,3566           30134                           CA       BUF2       +1
000142: 10,3567           05576                           TC       PRIOENT    +1                         #  * LEAVE L ALONE
000143: 10,3570           77467        -2SEC              DEC      -200       B-14                       #  *** DONT MOVE
000144: 10,3571           35006                           CAF      V05N09
000145: 10,3572           12504                           TCF      PRIODSPR
000146:
000147:    5634                                           BLOCK    02
000148:    4000                                           SETLOC   FFTAG7
000149:    4000                                           BANK
000150:
000151:    5634                                           COUNT*   $$/ALARM
000152:    5634           00004        BAILOUT            INHINT
000153:    5635           30002                           CA       Q


000155:    5636           55363                           TS       ALMCADR
000156:
000157:    5637           50002                           INDEX    Q
000158:    5640           30000                           CAF      0
000159:    5641           05574                           TC       BORTENT
000160:    5642           40400        OCT40400           OCT      40400
000161:
000162:    5643           00004                           INHINT
000163:    5644           34752        WHIMPER            CA       TWO
000164:    5645           60005                           AD       Z
000165:    5646           54017                           TS       BRUPT
000166:    5647           50017                           RESUME
000167:    5650           04635                           TC       POSTJUMP                              #  RESUME SENDS CONTROL HERE
000168:    5651           12765                           CADR     ENEMA
000169:    5652           00004        POODOO             INHINT
000170:    5653           30002                           CA       Q
000171:    5654           55363        ABORT2             TS       ALMCADR
000172:    5655           50002                           INDEX    Q
000173:    5656           30000                           CAF      0
000174:    5657           05574                           TC       BORTENT
000175:    5660           77770        OCT77770           OCT      77770                                 #  DON'T MOVE
000176:
000177:    5661           34765                           CAF      OCT35                                 #  4.35SPOT FOR GOPOODOO
000178:    5662           54001                           TS       L
000179:    5663           40000                           COM
000180:    5664           52761                           DXCH     -PHASE4
000181:    5665           00004        GOPOODOO           INHINT
000182:    5666           04616                           TC       BANKCALL                              #  RESET STATEFLG, REINTFLG, AND NODOFLAG.
000183:    5667           27755                           CADR     FLAGS
000184:    5670           30103                           CA       FLAGWRD7                              #  IS SERVICER CURRENTLY IN OPERATION?
000185:    5671           74746                           MASK     V37FLBIT
000186:    5672           10000                           CCS      A
000187:    5673           15701                           TCF      STRTIDLE
000188:    5674           04616                           TC       BANKCALL                              #  TERMINATE GRPS 1, 3, 5, AND 6
000189:    5675           12652                           CADR     V37KLEAN
000190:    5676           04616                           TC       BANKCALL                              #  TERMINATE GRPS 2, 4, 1, 3, 5, AND 6
000191:    5677           12643                           CADR     MR.KLEAN                              #        (I.E., GRP 4 LAST)
000192:    5700           15644                           TCF      WHIMPER
000193:    5701           35743        STRTIDLE           CAF      BBSERVDL
000194:    5702           04727                           TC       SUPERSW
000195:    5703           04616                           TC       BANKCALL                              #  PUT SERVICER INTO ITS "GROUND" STATE
000196:    5704           57321                           CADR     SERVIDLE                              #  AND PROCEED TO GOTOPOOH.
000197:    5705           00004        CCSHOLE            INHINT
000198:    5706           30002                           CA       Q
000199:    5707           05654                           TC       ABORT2
000200:    5710           01103        OCT21103           OCT      1103
000201:    5711           00004        CURTAINS           INHINT
000202:    5712           30002                           CA       Q
000203:    5713           05571                           TC       ALARM2
000204:    5714           00217        OCT217             OCT      00217


000206:    5715           01363                           TC       ALMCADR                               #  RETURN TO USER
000207:
000208:    5716           00004        BAILOUT1           INHINT
000209:    5717           53364                           DXCH     ALMCADR
000210:    5720           35742                           CAF      ADR40400
000211:    5721           54061        BOTHABRT           TS       ITEMP1
000212:    5722           50002                           INDEX    Q
000213:    5723           30000                           CAF      0
000214:    5724           54001                           TS       L
000215:    5725           15603                           TCF      CHKFAIL1
000216:    5726           00004        POODOO1            INHINT
000217:    5727           53364                           DXCH     ALMCADR
000218:    5730           35741                           CAF      ADR77770
000219:    5731           15721                           TCF      BOTHABRT
000220:
000221:    5732           00004        ALARM1             INHINT
000222:    5733           53364                           DXCH     ALMCADR
000223:    5734           00004        ALMNCADR           INHINT
000224:    5735           50002                           INDEX    Q
000225:    5736           30000                           CA       0
000226:    5737           54001                           TS       L
000227:    5740           15601                           TCF      LARMENT
000228:
000229:    5741           15660        ADR77770           TCF      OCT77770
000230:    5742           15642        ADR40400           TCF      OCT40400
000231:    5743     5155               DOALARM            EQUALS   ENDOFJOB
000232:    5743  E7,1515                                  EBANK=   DVCNTR
000233:    5743           56067        BBSERVDL           BBCON    SERVIDLE
000234:
000235:                                                                                                  #  CALLING SEQUENCE FOR VARALARM
000236:                                                                                                  #                CAF     (ALARM)
000237:                                                                                                  #                TC      VARALARM
000238:
000239:                                                                                                  #  VARALARM TURNS ON PROGRAM ALARM LIGHT BUT DOES NOT DISPLAY
000240:
000241:    5744           00004        VARALARM           INHINT
000242:
000243:    5745           54001                           TS       L                                     #  SAVE USERS ALARM CODE
000244:
000245:    5746           30002                           CA       Q                                     #  SAVE USERS Q
000246:    5747           55363                           TS       ALMCADR
000247:
000248:    5750           05575                           TC       PRIOENT
000249:    5751           00014        OCT14              OCT      14                                    #  DONT MOVE
000250:
000251:    5752           01363                           TC       ALMCADR                               #  RETURN TO USER
000252:
000253:    5753     5644               ABORT              EQUALS   WHIMPER
000254: 13,3755                                           BANK     13
000255: 13,2000                                           SETLOC   ABTFLGS
000256: 13,2000                                           BANK


000258: 13,3755                                           COUNT*   $$/ALARM
000259:
000260: 13,3755           44747        FLAGS              CS       STATEBIT
000261: 13,3756           70077                           MASK     FLAGWRD3
000262: 13,3757           54077                           TS       FLAGWRD3
000263: 13,3760           44745                           CS       REINTBIT
000264: 13,3761           70106                           MASK     FLGWRD10
000265: 13,3762           54106                           TS       FLGWRD10
000266: 13,3763           44753                           CS       NODOBIT
000267: 13,3764           70076                           MASK     FLAGWRD2
000268: 13,3765           54076                           TS       FLAGWRD2
000269: 13,3766           00002                           TC       Q
000270:

End of include-file ALARM_AND_ABORT.agc.  Parent file is MAIN.agc


