
Source Code


000002:                                                                                                  ## Copyright:   Public domain.
000003:                                                                                                  ## Filename:    DAP_INTERFACE_SUBROUTINES.agc
000004:                                                                                                  ## Purpose:     Part of the reconstructed source code for LMY99 Rev 0,
000005:                                                                                                  ##              otherwise known as Luminary Rev 99, the second release
000006:                                                                                                  ##              of the Apollo Guidance Computer (AGC) software for Apollo 11.
000007:                                                                                                  ##              It differs from LMY99 Rev 1 (the flown version) only in the
000008:                                                                                                  ##              placement of a single label. The corrections shown here have
000009:                                                                                                  ##              been verified to have the same bank checksums as AGC developer
000010:                                                                                                  ##              Allan Klumpp's copy of Luminary Rev 99, and so are believed
000011:                                                                                                  ##              to be accurate. This file is intended to be a faithful
000012:                                                                                                  ##              recreation, except that the code format has been changed to
000013:                                                                                                  ##              conform to the requirements of the yaYUL assembler rather than
000014:                                                                                                  ##              the original YUL assembler.
000015:                                                                                                  ##
000016:                                                                                                  ## Assembler:   yaYUL
000017:                                                                                                  ## Contact:     Ron Burkey <info@sandroid.org>.
000018:                                                                                                  ## Website:     www.ibiblio.org/apollo.
000019:                                                                                                  ## Pages:       1406-1409
000020:                                                                                                  ## Mod history: 2009-05-10 SN   (Sergio Navarro).  Started adapting
000021:                                                                                                  ##                              from the Luminary131/ file of the same
000022:                                                                                                  ##                              name, using Luminary099 page images.
000023:                                                                                                  ##              2011-01-06 JL   Fixed pseudo-label indentation.
000024:                                                                                                  ##              2016-12-18 RSB  Proofed text comments with octopus/ProoferComments
000025:                                                                                                  ##                              and corrected the errors found.
000026:                                                                                                  ##              2017-03-10 RSB  Comment-text fixes noted in proofing Luminary 116.
000027:                                                                                                  ##              2017-08-01 MAS  Created from LMY99 Rev 1.
000028:
000029:                                                                                                  ## This source code has been transcribed or otherwise adapted from
000030:                                                                                                  ## digitized images of a hardcopy from the MIT Museum.  The digitization
000031:                                                                                                  ## was performed by Paul Fjeld, and arranged for by Deborah Douglas of
000032:                                                                                                  ## the Museum.  Many thanks to both.  The images (with suitable reduction
000033:                                                                                                  ## in storage size and consequent reduction in image quality as well) are
000034:                                                                                                  ## available online at www.ibiblio.org/apollo.  If for some reason you
000035:                                                                                                  ## find that the images are illegible, contact me at info@sandroid.org
000036:                                                                                                  ## about getting access to the (much) higher-quality images which Paul
000037:                                                                                                  ## actually created.
000038:                                                                                                  ##
000039:                                                                                                  ## The code has been modified to match LMY99 Revision 0, otherwise
000040:                                                                                                  ## known as Luminary Revision 99, the Apollo 11 software release preceeding
000041:                                                                                                  ## the listing from which it was transcribed. It has been verified to
000042:                                                                                                  ## contain the same bank checksums as AGC developer Allan Klumpp's listing
000043:                                                                                                  ## of Luminary Revision 99 (for which we do not have scans).
000044:                                                                                                  ##
000045:                                                                                                  ## Notations on Allan Klumpp's listing read, in part:
000046:                                                                                                  ##
000047:                                                                                                  ##      ASSEMBLE REVISION 099 OF AGC PROGRAM LUMINARY BY NASA 2021112-51
000048:


000050: 20,2123                                           BANK     20
000051: 20,2000                                           SETLOC   DAPS3
000052: 20,2000                                           BANK
000053:
000054: 20,2123  E6,1635                                  EBANK=   CDUXD
000055: 20,2123                                           COUNT*   $$/DAPIF
000056:
000057:                                                                                                  #  MOD 0         DATE    11/15/66        BY GEORGE W. CHERRY
000058:                                                                                                  #  MOD 1                  1/23/67        MODIFICATION BY PETER ADLER
000059:
000060:                                                                                                  #  FUNCTIONAL DESCRIPTION
000061:                                                                                                  #        HEREIN ARE A COLLECTION OF SUBROUTINES WHICH ALLOW MISSION CONTROL PROGRAMS TO CONTROL THE MODE
000062:                                                                                                  #        AND INTERFACE WITH THE DAP.
000063:
000064:                                                                                                  #  CALLING SEQUENCES
000065:                                                                                                  #        IN INTERRUPT OR WITH INTERRUPT INHIBITED
000066:                                                                                                  #                TC      IBNKCALL
000067:                                                                                                  #                FCADR   ROUTINE
000068:                                                                                                  #        IN A JOB WITHOUT INTERRUPT INHIBITED
000069:                                                                                                  #                INHINT
000070:                                                                                                  #                TC      IBNKCALL
000071:                                                                                                  #                FCADR   ROUTINE
000072:                                                                                                  #                RELINT
000073:
000074:                                                                                                  #  OUTPUT
000075:                                                                                                  #        SEE INDIVIDUAL ROUTINES BELOW
000076:
000077:                                                                                                  #  DEBRIS
000078:                                                                                                  #        A, L, AND SOMETIMES MDUETEMP                    ODE     NOT IN PULSES MODE
000079:


000081:                                                                                                  #  SUBROUTINE NAMES:
000082:                                                                                                  #        SETMAXDB, SETMINDB, RESTORDB, PFLITEDB
000083:                                                                                                  #  MODIFIED:     30 JANUARY 1968 BY P S WEISSMAN TO CREATE RESTORDB.
000084:                                                                                                  #  MODIFIED:     1 MARCH 1968 BY P S WEISSMAN TO SAVE EBANK AND CREATE PFLITEDB
000085:
000086:                                                                                                  #  FUNCTIONAL DESCRIPTION:
000087:                                                                                                  #        SETMAXDB - SET DEADBAND TO 5.0 DEGREES
000088:                                                                                                  #        SETMINDB - SET DEADBAND TO 0.3 DEGREE
000089:                                                                                                  #        RESTORDB - SET DEADBAND TO MAX OR MIN ACCORDING TO SETTING OF DBSELECT BIT OF DAPBOOLS
000090:                                                                                                  #        PFLITEDB - SET DEADBAND TO 1.0 DEGREE AND ZERO THE COMMANDED ATTITUDE CHANGE AND COMMANDED RATE
000091:
000092:                                                                                                  #        ALL ENTRIES SET UP A NOVAC JOB TO DO 1/ACCS SO THAT THE TJETLAW SWITCH CURVES ARE POSITIONED TO
000093:                                                                                                  #        REFLECT THE NEW DEADBAND.  IT SHOULD BE NOTED THAT THE DEADBAND REFERS TO THE ATTITUDE IN THE P-, U-, AND V-AXES.
000094:
000095:                                                                                                  #  SUBROUTINE CALLED:    NOVAC
000096:
000097:                                                                                                  #  CALLING SEQUENCE:     SAME AS ABOVE
000098:                                                                                                  #                        OR      TC RESTORDB +1    FROM ALLCOAST
000099:
000100:                                                                                                  #  DEBRIS:               A, L, Q, RUPTREG1, (ITEMPS IN NOVAC)
000101:
000102: 20,2123           30111        RESTORDB           CAE      DAPBOOLS                              #  DETERMINE CREW-SELECTED DEADBAND.
000103: 20,2124           74750                           MASK     DBSELECT
000104: 20,2125           00006                           EXTEND
000105: 20,2126           12140                           BZF      SETMINDB
000106:
000107: 20,2127           32151        SETMAXDB           CAF      WIDEDB                                #  SET 5 DEGREE DEADBAND.
000108: 20,2130           55346                 +1        TS       DB
000109:
000110: 20,2131           00006                           EXTEND                                         #  SET UP JOB TO RE-POSITION SWITCH CURVES.
000111: 20,2132           22070                           QXCH     RUPTREG1
000112: 20,2133           37715        CALLACCS           CAF      PRIO27
000113: 20,2134           05072                           TC       NOVAC
000114: 20,2135  E6,1537                                  EBANK=   AOSQ
000115: 20,2135           02454 40106                     2CADR    1/ACCJOB
000116:
000117: 20,2137           00070                           TC       RUPTREG1                              #  RETURN TO CALLER.
000118:
000119: 20,2140           32150        SETMINDB           CAF      NARROWDB                              #  SET 0.3 DEGREE DEADBAND.
000120: 20,2141           12130                           TCF      SETMAXDB   +1
000121:
000122: 20,2142           00006        PFLITEDB           EXTEND                                         #  THE RETURN FROM CALLACCS IS TO RUPTREG1.
000123: 20,2143           22070                           QXCH     RUPTREG1
000124: 20,2144           02153                           TC       ZATTEROR                              #  ZERO THE ERRORS AND COMMANDED RATES.
000125: 20,2145           32152                           CAF      POWERDB                               #  SET DB TO 1.0 DEG.
000126: 20,2146           55346                           TS       DB
000127: 20,2147           12133                           TCF      CALLACCS                              #  SET UP 1/ACCS AND RETURN TO CALLER.
000128: 20,2150           00155        NARROWDB           OCTAL    00155                                 #  0.3 DEGREE SCALED AT 45.


000130: 20,2151           03434        WIDEDB             OCTAL    03434                                 #  5.0 DEGREES SCALED AT 45.
000131: 20,2152           00554        POWERDB            DEC      .02222                                #  1.0 DEGREE SCALED AT 45.
000132:
000133: 20,2153           35015        ZATTEROR           CAF      EBANK6
000134: 20,2154           56003                           XCH      EBANK
000135: 20,2155           54001                           TS       L                                     #  SAVE CALLERS EBANK IN L.
000136: 20,2156           30032                           CAE      CDUX
000137: 20,2157           55635                           TS       CDUXD
000138: 20,2160           30033                           CAE      CDUY
000139: 20,2161           55636                           TS       CDUYD
000140: 20,2162           30034                           CAE      CDUZ
000141: 20,2163           55637                           TS       CDUZD
000142: 20,2164           12170                           TCF      STOPRATE   +3
000143:
000144: 20,2165           35015        STOPRATE           CAF      EBANK6
000145: 20,2166           56003                           XCH      EBANK
000146: 20,2167           54001                           TS       L                                     #  SAVE CALLERS EBANK IN L.
000147: 20,2170           34755                 +3        CAF      ZERO
000148: 20,2171           55643                           TS       OMEGAPD
000149: 20,2172           55644                           TS       OMEGAQD
000150: 20,2173           55645                           TS       OMEGARD
000151: 20,2174           55640                           TS       DELCDUX
000152: 20,2175           55641                           TS       DELCDUY
000153: 20,2176           55642                           TS       DELCDUZ
000154: 20,2177           55277                           TS       DELPEROR
000155: 20,2200           55300                           TS       DELQEROR
000156: 20,2201           55301                           TS       DELREROR
000157: 20,2202           22003                           LXCH     EBANK                                 #  RESTORE CALLERS EBANK.
000158: 20,2203           00002                           TC       Q
000159:
000160:                                                                                                  #  SUBROUTINE NAME:      ALLCOAST
000161:                                                                                                  #  WILL BE CALLED BY FRESH STARTS AND ENGINE OFF ROUTINES.               .
000162:
000163:                                                                                                  #  CALLING SEQUENCE:     (SAME AS ABOVE)
000164:
000165:                                                                                                  #  EXIT:                 RETURN TO Q.
000166:
000167:                                                                                                  #  SUBROUTINES CALLED:   STOPRATE, RESTORDB, NOVAC
000168:
000169:                                                                                                  #  ZERO:                 (FOR ALL AXES) AOS, ALPHA, AOSTERM, OMEGAD, DELCDU, DELEROR
000170:
000171:                                                                                                  #  OUTPUT:               DRIFTBIT/DAPBOOLS, DB, JOB TO DO 1/ACCS
000172:
000173:                                                                                                  #  DEBRIS:               A, L, Q, RUPTREG1, RUPTREG2, (ITEMPS IN NOVAC)
000174:
000175: 20,2204           00006        ALLCOAST           EXTEND                                         #  SAVE Q FOR RETURN
000176: 20,2205           22071                           QXCH     RUPTREG2


000178: 20,2206           02165                           TC       STOPRATE                              #  CLEAR RATE INTERFACE.  RETURN WITH A=0
000179: 20,2207           22003                           LXCH     EBANK                                 #  AND L=EBANK6.  SAVE CALLERS EBANK.
000180: 20,2210           55537                           TS       AOSQ
000181: 20,2211           55540                           TS       AOSQ       +1
000182: 20,2212           55541                           TS       AOSR
000183: 20,2213           55542                           TS       AOSR       +1
000184: 20,2214           55424                           TS       ALPHAQ                                #  FOR DOWNLIST.
000185: 20,2215           55425                           TS       ALPHAR
000186: 20,2216           55545                           TS       AOSQTERM
000187: 20,2217           55546                           TS       AOSRTERM
000188: 20,2220           22003                           LXCH     EBANK                                 #  RESTORE EBANK (EBANK6 NO LONGER NEEDED)
000189:
000190: 20,2221           40111                           CS       DAPBOOLS                              #  SET UP DRIFTBIT
000191: 20,2222           74744                           MASK     DRIFTBIT
000192: 20,2223           26111                           ADS      DAPBOOLS
000193: 20,2224           02124                           TC       RESTORDB   +1                         #  RESTORE DEADBANK TO CREW-SELECTED VALUE.
000194:
000195: 20,2225           00071                           TC       RUPTREG2                              #  RETURN.
000196:

End of include-file DAP_INTERFACE_SUBROUTINES.agc.  Parent file is MAIN.agc


