
Source Code


000002:                                                                                                  ## Copyright:   Public domain.
000003:                                                                                                  ## Filename:    DOWNLINK_LISTS.agc
000004:                                                                                                  ## Purpose:     Part of the reconstructed source code for LMY99 Rev 0,
000005:                                                                                                  ##              otherwise known as Luminary Rev 99, the second release
000006:                                                                                                  ##              of the Apollo Guidance Computer (AGC) software for Apollo 11.
000007:                                                                                                  ##              It differs from LMY99 Rev 1 (the flown version) only in the
000008:                                                                                                  ##              placement of a single label. The corrections shown here have
000009:                                                                                                  ##              been verified to have the same bank checksums as AGC developer
000010:                                                                                                  ##              Allan Klumpp's copy of Luminary Rev 99, and so are believed
000011:                                                                                                  ##              to be accurate. This file is intended to be a faithful
000012:                                                                                                  ##              recreation, except that the code format has been changed to
000013:                                                                                                  ##              conform to the requirements of the yaYUL assembler rather than
000014:                                                                                                  ##              the original YUL assembler.
000015:                                                                                                  ##
000016:                                                                                                  ## Assembler:   yaYUL
000017:                                                                                                  ## Contact:     Hartmuth Gutsche <hgutsche@xplornet.com>.
000018:                                                                                                  ## Website:     www.ibiblio.org/apollo.
000019:                                                                                                  ## Pages:       193-205
000020:                                                                                                  ## Mod history: 2009-05-19 HG   Transcribed from page images.
000021:                                                                                                  ##              2016-12-13 RSB  Proofed text comments with octopus/ProoferComments
000022:                                                                                                  ##                              and corrected the errors found.
000023:                                                                                                  ##              2017-01-26 RSB  Back-ported comment-text fixes found while
000024:                                                                                                  ##                              proofing corresponding Luminary 69 file.
000025:                                                                                                  ##              2017-03-05 RSB  A few comment-text fixes found while proofing
000026:                                                                                                  ##                              Luminary 116.
000027:                                                                                                  ##              2017-03-15 RSB  Comment-text fixes identified in 5-way
000028:                                                                                                  ##                              side-by-side diff of Luminary 69/99/116/131/210.
000029:                                                                                                  ##              2017-08-01 MAS  Created from LMY99 Rev 1.
000030:
000031:                                                                                                  ## This source code has been transcribed or otherwise adapted from
000032:                                                                                                  ## digitized images of a hardcopy from the MIT Museum.  The digitization
000033:                                                                                                  ## was performed by Paul Fjeld, and arranged for by Deborah Douglas of
000034:                                                                                                  ## the Museum.  Many thanks to both.  The images (with suitable reduction
000035:                                                                                                  ## in storage size and consequent reduction in image quality as well) are
000036:                                                                                                  ## available online at www.ibiblio.org/apollo.  If for some reason you
000037:                                                                                                  ## find that the images are illegible, contact me at info@sandroid.org
000038:                                                                                                  ## about getting access to the (much) higher-quality images which Paul
000039:                                                                                                  ## actually created.
000040:                                                                                                  ##
000041:                                                                                                  ## The code has been modified to match LMY99 Revision 0, otherwise
000042:                                                                                                  ## known as Luminary Revision 99, the Apollo 11 software release preceeding
000043:                                                                                                  ## the listing from which it was transcribed. It has been verified to
000044:                                                                                                  ## contain the same bank checksums as AGC developer Allan Klumpp's listing
000045:                                                                                                  ## of Luminary Revision 99 (for which we do not have scans).
000046:                                                                                                  ##
000047:                                                                                                  ## Notations on Allan Klumpp's listing read, in part:
000048:                                                                                                  ##
000049:                                                                                                  ##      ASSEMBLE REVISION 099 OF AGC PROGRAM LUMINARY BY NASA 2021112-51
000050:


000052: 22,2004                                           BANK     22
000053: 05,2000                                           SETLOC   DOWNTELM
000054: 05,2000                                           BANK
000055:
000056: 05,2065     0340                                  EBANK=   DNTMBUFF
000057:
000058:                                                                                                  #  SPECIAL DOWNLINK OP CODES
000059:                                                                                                  #        OP CODE         ADDRESS(EXAMPLE)        SENDS..                 BIT 15          BITS 14-12      BITS 11
000060:                                                                                                  #                                                                                                             -0
000061:                                                                                                  #        ------          ----------              ----------              ------          ----------      -------
000062:                                                                                                  #                                                                                                             --
000063:                                                                                                  #        1DNADR          TIME2                   (2 AGC WDS)             0               0               ECADR
000064:                                                                                                  #        2DNADR          TEPHEM                  (4 AGC WDS)             0               1               ECADR
000065:                                                                                                  #        3DNADR          VGBODY                  (6 AGC WDS)             0               2               ECADR
000066:                                                                                                  #        4DNADR          STATE                   (8 AGC WDS)             0               3               ECADR
000067:                                                                                                  #        5DNADR          UPBUFF                  (10 AGC WDS)            0               4               ECADR
000068:                                                                                                  #        6DNADR          DSPTAB                  (12 AGC WDS)            0               5               ECADR
000069:                                                                                                  #        DNCHAN          30                      CHANNELS                0               7               CHANNEL
000070:                                                                                                  #                                                                                                        ADDRESS
000071:                                                                                                  #        DNPTR           NEXTLIST                POINTS TO NEXT          0               6               ADRES
000072:                                                                                                  #                                                LIST.
000073:
000074:                                                                                                  #  DOWNLIST FORMAT DEFINITIONS AND RULES-
000075:                                                                                                  #  1. END OF A LIST = -XDNADR (X = 1 TO 6), -DNPTR, OR -DNCHAN.
000076:                                                                                                  #  2. SNAPSHOT SUBLIST = LIST WHICH STARTS WITH A -1DNADR.
000077:                                                                                                  #  3. SNAPSHOT SUBLIST CAN ONLY CONTAIN 1DNADRS.
000078:                                                                                                  #  4. TIME2 1DNADR MUST BE LOCATED IN THE CONTROL LIST OF A DOWNLIST.
000079:                                                                                                  #  5. ERASABLE DOWN TELEMETRY WORDS SHOULD BE GROUPED IN SEQUENTIAL
000080:                                                                                                  #     LOCATIONS AS MUCH AS POSSIBLE TO SAVE STORAGE USED BY DOWNLINK LISTS.
000081:
000082: 05,2065                                           COUNT*   $$/DLIST
000083: 05,2065                        ERASZERO           EQUALS   7
000084: 05,2065  0000007               UNKNOWN            EQUALS   ERASZERO
000085: 05,2065  0000007               SPARE              EQUALS   ERASZERO                              #  USE SPARE TO INDICATE AVAILABLE SPACE
000086: 05,2065           77340        LOWIDCOD           OCT      77340                                 #  LOW ID CODE
000087:
000088: 05,2066  05,2172               NOMDNLST           EQUALS   LMCSTADL                              #  FRESH START AND POST P27 DOWNLIST
000089:
000090: 05,2066  05,2407               AGSLIST            EQUALS   LMAGSIDL
000091:
000092: 05,2066  05,2407               UPDNLIST           EQUALS   LMAGSIDL                              #  UPDATE PROGRAM (P27) DOWNLIST
000093:


000095:                                                                                                  #  LM ORBITAL MANEUVERS LIST
000096:
000097:                                                                                                  #  ----------------- CONTROL LIST --------------------------
000098:
000099: 05,2066                        LMORBMDL           EQUALS                                         #  SEND ID BY SPECIAL CODING
000100: 05,2066           32127                           DNPTR    LMORBM01                              #  COLLECT SNAPSHOT
000101: 05,2067           24340                           6DNADR   DNTMBUFF                              #  SEND SNAPSHOT
000102: 05,2070           03451                           1DNADR   DELLT4                                #  DELLT4,+1
000103: 05,2071           13443                           3DNADR   RTARG                                 #  RTARG,+1...+5
000104: 05,2072           02256                           1DNADR   ELEV                                  #  ELEV,+1
000105: 05,2073           01344                           1DNADR   TEVENT                                #  TEVENT,+1
000106: 05,2074           25733                           6DNADR   REFSMMAT                              #  REFSMMAT +0...+11D
000107: 05,2075           03633                           1DNADR   TCSI                                  #  TCSI,+1
000108: 05,2076           12266                           3DNADR   DELVEET1                              #  DELVEET1 +0...+5
000109: 05,2077           13700                           3DNADR   VGTIG                                 #  VGTIG +0...+5
000110: 05,2100           01340                           1DNADR   DNLRVELZ                              #  DNLRVELZ,DNLRALT
000111: 05,2101           03630                           1DNADR   TPASS4                                #  TPASS4,+1
000112: 05,2102           32136                           DNPTR    LMORBM02                              #  COMMON DATA
000113: 05,2103           00024                           1DNADR   TIME2                                 #  TIME2/1
000114: 05,2104           32145                           DNPTR    LMORBM03                              #  COLLECT SNAPSHOT
000115: 05,2105           24340                           6DNADR   DNTMBUFF                              #  SEND SNAPSHOT
000116: 05,2106           32154                           DNPTR    LMORBM04                              #  COMMON DATA
000117: 05,2107           07115                           2DNADR   POSTORKU                              #  POSTORKU,NEGTORKU,POSTORKV,NEGTORKV
000118: 05,2110           00007                           1DNADR   SPARE
000119: 05,2111           01776                           1DNADR   TCDH                                  #  TCDH,+1
000120: 05,2112           12274                           3DNADR   DELVEET2                              #  DELVEET2 +0...+5
000121: 05,2113           03635                           1DNADR   TTPI                                  #  TTPI,+1
000122: 05,2114           12365                           3DNADR   DELVEET3                              #  DELVEET3 +0...+5
000123: 05,2115           01333                           1DNADR   DNRRANGE                              #  DNRRANGE,DNRRDOT
000124: 05,2116           05336                           2DNADR   DNLRVELX                              #  DNLRVELX,DNLRVELY,DNLRVELZ,DNLRALT
000125: 05,2117           03577                           1DNADR   DIFFALT                               #  DIFFALT,+1
000126: 05,2120           01331                           1DNADR   LEMMASS                               #  LEMMASS,CSMMASS
000127: 05,2121           01302                           1DNADR   IMODES30                              #  IMODES30,IMODES33
000128: 05,2122           03441                           1DNADR   TIG                                   #  TIG,+1
000129: 05,2123           32157                           DNPTR    LMORBM05                              #  COMMON DATA
000130: 05,2124           32170                           DNPTR    LMORBM06                              #  COMMON DATA
000131: 05,2125           00007                           1DNADR   SPARE                                 #  FORMERLY PIF
000132: 05,2126           74261                           -1DNADR  TGO                                   #  TGO,+1
000133:
000134:                                                                                                  #  -----------------  SUB-LISTS  ----------------------------
000135:
000136: 05,2127           76056        LMORBM01           -1DNADR  R-OTHER    +2                         #  R-OTHER +2,+3         SNAPSHOT
000137: 05,2130           01723                           1DNADR   R-OTHER    +4                         #  R-OTHER +4,+5
000138: 05,2131           01725                           1DNADR   V-OTHER                               #  V-OTHER,+1
000139: 05,2132           01727                           1DNADR   V-OTHER    +2                         #  V-OTHER +2,+3
000140: 05,2133           01731                           1DNADR   V-OTHER    +4                         #  V-OTHER +4,+5
000141: 05,2134           01570                           1DNADR   T-OTHER                               #  T-OTHER,+1
000142: 05,2135           76060                           -1DNADR  R-OTHER                               #  R-OTHER +0,+1
000143:
000144: 05,2136           04320        LMORBM02           2DNADR   REDOCTR                               #  REDOCTR,THETAD,+1,+2  COMMON DATA


000146: 05,2137           01432                           1DNADR   RSBBQ                                 #  RSBBQ,+1
000147: 05,2140           07021                           2DNADR   OMEGAP                                #  OMEGAP,OMEGAQ,OMEGAR,GARBAGE
000148: 05,2141           07235                           2DNADR   CDUXD                                 #  CDUXD,CDUYD,CDUZD,GARBAGE
000149: 05,2142           04032                           2DNADR   CDUX                                  #  CDUX,CDUY,CDUZ,CDUT
000150: 05,2143           24074                           6DNADR   STATE                                 #  STATE +0...+11D (FLAGWORDS)
000151: 05,2144           52754                           -6DNADR  DSPTAB                                #  DSPTAB TABLES
000152:
000153: 05,2145           76555        LMORBM03           -1DNADR  RN         +2                         #  RN +2,+3              SNAPSHOT
000154: 05,2146           01224                           1DNADR   RN         +4                         #  RN +4,+5
000155: 05,2147           01226                           1DNADR   VN                                    #  VN,+1
000156: 05,2150           01230                           1DNADR   VN         +2                         #  VN +2,+3
000157: 05,2151           01232                           1DNADR   VN         +4                         #  VN +4,+5
000158: 05,2152           01234                           1DNADR   PIPTIME                               #  PIPTIME,+1
000159: 05,2153           76557                           -1DNADR  RN                                    #  RN,+1
000160:
000161: 05,2154           07243        LMORBM04           2DNADR   OMEGAPD                               #  OMEGAPD,OMEGAQD,OMEGARD,GARBAGE
000162: 05,2155           10372                           3DNADR   CADRFLSH                              #  CADRFLSH,+1,+2,FAILREG,+1,+2
000163: 05,2156           77667                           -1DNADR  RADMODES                              #  RADMODES,DAPBOOLS     COMMON DATA
000164:
000165: 05,2157           07021        LMORBM05           2DNADR   OMEGAP                                #  OMEGAP,OMEGAQ,OMEGAR,GARBAGE
000166: 05,2160           07235                           2DNADR   CDUXD                                 #  CDUXD,CDUXD,CDUZD,GARBAGE
000167: 05,2161           04032                           2DNADR   CDUX                                  #  CDUX,CDUY,CDUZ,CDUT
000168: 05,2162           03024                           1DNADR   ALPHAQ                                #  ALPHAQ,ALPHAR         COMMON DATA
000169: 05,2163           03113                           1DNADR   POSTORKP                              #  POSTORKP,NEGTORKP
000170: 05,2164           34011                           DNCHAN   11                                    #  CHANNELS 11,12
000171: 05,2165           34013                           DNCHAN   13                                    #  CHANNELS 13,14
000172: 05,2166           34030                           DNCHAN   30                                    #  CHANNELS 30,31
000173: 05,2167           43745                           -DNCHAN  32                                    #  CHANNELS 32,33
000174:
000175: 05,2170           03560        LMORBM06           1DNADR   PIPTIME1                              #  PIPTIME,+1            COMMON DATA
000176: 05,2171           67453                           -3DNADR  DELV                                  #  DELV +0...+5
000177:
000178:                                                                                                  #  ---------------------------------------------------------
000179:


000181:                                                                                                  #  LM COAST AND ALIGNMENT DOWNLIST
000182:
000183:                                                                                                  #  -----------------  CONTROL LIST  --------------------------
000184:
000185: 05,2172                        LMCSTADL           EQUALS                                         #  SEND ID BY SPECIAL CODING
000186: 05,2172           32127                           DNPTR    LMCSTA01                              #  COLLECT SNAPSHOT
000187: 05,2173           24340                           6DNADR   DNTMBUFF                              #  SEND SNAPSHOT
000188: 05,2174           02020                           1DNADR   AGSK                                  #  AGSK,+1
000189: 05,2175           02774                           1DNADR   TALIGN                                #  TALIGN,+1
000190: 05,2176           07115                           2DNADR   POSTORKU                              #  POSTORKU,NEGTORKU,POSTORKV,NEGTORKV
000191: 05,2177           01333                           1DNADR   DNRRANGE                              #  DNRRANGE,DNRRDOT
000192: 05,2200           01344                           1DNADR   TEVENT                                #  TEVENT,+1
000193: 05,2201           25733                           6DNADR   REFSMMAT                              #  REFSMMAT +0...+11D
000194: 05,2202           00735                           1DNADR   AOTCODE                               #  AOTCODE,GARBAGE
000195: 05,2203           12022                           3DNADR   RLS                                   #  RLS +0...+5
000196: 05,2204           05336                           2DNADR   DNLRVELX                              #  DNLRVELX,DNLRVELY,DNLRVELZ,DNLRALT
000197: 05,2205           32224                           DNPTR    LMCSTA06                              #  COMMON DATA
000198: 05,2206           32136                           DNPTR    LMCSTA02                              #  COMMON DATA
000199: 05,2207           00024                           1DNADR   TIME2                                 #  TIME2/1
000200: 05,2210           32145                           DNPTR    LMCSTA03                              #  COLLECT SNAPSHOT
000201: 05,2211           24340                           6DNADR   DNTMBUFF                              #  SEND SNAPSHOT
000202: 05,2212           32154                           DNPTR    LMCSTA04                              #  COMMON DATA
000203: 05,2213           32226                           DNPTR    LMCSTA07                              #  COMMON DATA
000204: 05,2214           05336                           2DNADR   DNLRVELX                              #  DNLRVELX,DNLRVELY,DNLRVELZ,DNLRALT
000205: 05,2215           04036                           2DNADR   CDUS                                  #  CDUS,PIPAX,PIPAY,PIPAZ
000206: 05,2216           00112                           1DNADR   LASTYCMD                              #  LASTYCMD,LASTXCMD
000207: 05,2217           01331                           1DNADR   LEMMASS                               #  LEMMASS,CSMMASS
000208: 05,2220           01302                           1DNADR   IMODES30                              #  IMODES30,IMODES33
000209: 05,2221           03441                           1DNADR   TIG                                   #  TIG,+1
000210: 05,2222           32157                           DNPTR    LMCSTA05                              #  COMMON DATA
000211: 05,2223           52754                           -6DNADR  DSPTAB                                #  DSPTAB +0...+11D TABLE
000212:
000213:                                                                                                  #  -----------------  SUB-LISTS   ----------------------------
000214:
000215: 05,2224  05,2127               LMCSTA01           EQUALS   LMORBM01                              #  COMMON DOWNLIST DATA
000216: 05,2224  05,2136               LMCSTA02           EQUALS   LMORBM02                              #  COMMON DOWNLIST DATA
000217: 05,2224  05,2145               LMCSTA03           EQUALS   LMORBM03                              #  COMMON DOWNLIST DATA
000218: 05,2224  05,2154               LMCSTA04           EQUALS   LMORBM04                              #  COMMON DOWNLIST DATA
000219: 05,2224  05,2157               LMCSTA05           EQUALS   LMORBM05                              #  COMMON DOWNLIST DATA
000220:
000221: 05,2224           05700        LMCSTA06           2DNADR   X789                                  #  X789 +0...+3          COMMON DATA
000222: 05,2225           77665                           -1DNADR  LASTYCMD                              #  LASTYCMD,LASTXCMD
000223: 05,2226           12737        LMCSTA07           3DNADR   OGC                                   #  OGC,+1,IGC,+1,MGC,+1  COMMON DATA
000224: 05,2227           02755                           1DNADR   BESTI                                 #  BESTI,BESTJ
000225: 05,2230           12760                           3DNADR   STARSAV1                              #  STARSAV1 +0...+5
000226: 05,2231           65011                           -3DNADR  STARSAV2                              #  STARSAV2 +0...+5


000228:                                                                                                  #  -----------------------------------------------------------
000229:


000231:                                                                                                  #  LM RENDEZVOUS AND PRE-THRUST DOWNLIST
000232:
000233:                                                                                                  #  -----------------  CONTROL LIST   --------------------------
000234:
000235: 05,2232                        LMRENDDL           EQUALS                                         #  SEND ID BY SPECIAL CODING
000236: 05,2232           32127                           DNPTR    LMREND01                              #  COLLECT SNAPSHOT
000237: 05,2233           24340                           6DNADR   DNTMBUFF                              #  SEND SNAPSHOT
000238: 05,2234           32276                           DNPTR    LMREND07                              #  COLLECT SNAPSHOT
000239: 05,2235           14340                           4DNADR   DNTMBUFF                              #  SEND SNAPSHOT
000240: 05,2236           03451                           1DNADR   DELLT4                                #  DELLT4,+1
000241: 05,2237           13443                           3DNADR   RTARG                                 #  RTARG +0...+5
000242: 05,2240           13433                           3DNADR   DELVSLV                               #  DELVSLV +0...+5
000243: 05,2241           03633                           1DNADR   TCSI                                  #  TCSI,+1
000244: 05,2242           12266                           3DNADR   DELVEET1                              #  DELVEET +0-..+5
000245: 05,2243           00007                           1DNADR   SPARE
000246: 05,2244           03630                           1DNADR   TPASS4                                #  TPASS4,+1
000247: 05,2245           32224                           DNPTR    LMREND06                              #  COMMON DATA
000248: 05,2246           32136                           DNPTR    LMREND02                              #  COMMON DATA
000249: 05,2247           00024                           1DNADR   TIME2                                 #  TIME2/1
000250: 05,2250           32145                           DNPTR    LMREND03                              #  COLLECT SNAPSHOT
000251: 05,2251           24340                           6DNADR   DNTMBUFF                              #  SEND SNAPSHOT
000252: 05,2252           32154                           DNPTR    LMREND04                              #  COMMON DATA
000253: 05,2253           07115                           2DNADR   POSTORKU                              #  POSTORKU,NEGTORKU,POSTORKV,NEGTORKV
000254: 05,2254           00007                           1DNADR   SPARE
000255: 05,2255           01776                           1DNADR   TCDH                                  #  TCDH,+1
000256: 05,2256           12274                           3DNADR   DELVEET2                              #  DELVEET2 +0...+5
000257: 05,2257           03635                           1DNADR   TTPI                                  #  TTPI,+1
000258: 05,2260           12365                           3DNADR   DELVEET3                              #  DELVEET3 +0...+5
000259: 05,2261           02256                           1DNADR   ELEV                                  #  ELEV,+1
000260: 05,2262           04036                           2DNADR   CDUS                                  #  CDUS,PIPAX,PIPAY,PIPAZ
000261: 05,2263           00112                           1DNADR   LASTYCMD                              #  LASTYCMD,LASTXCMD
000262: 05,2264           01331                           1DNADR   LEMMASS                               #  LEMMASS,CSMMASS
000263: 05,2265           01302                           1DNADR   IMODES30                              #  IMODES30,IMODES33
000264: 05,2266           03441                           1DNADR   TIG                                   #  TIG,+1
000265: 05,2267           32157                           DNPTR    LMREND05                              #  COMMON DATA
000266: 05,2270           02302                           1DNADR   DELTAR                                #  DELTAR,+1
000267: 05,2271           03620                           1DNADR   CENTANG                               #  CENTANG,+1
000268: 05,2272           03466                           1DNADR   NN                                    #  NN,+1
000269: 05,2273           03577                           1DNADR   DIFFALT                               #  DIFFALT,+1
000270: 05,2274           02347                           1DNADR   DELVTPF                               #  DELVTPF,+1
000271: 05,2275           77770                           -1DNADR  SPARE
000272:
000273:                                                                                                  #  -----------------  SUB-LISTS   ----------------------------
000274:
000275: 05,2276  05,2127               LMREND01           EQUALS   LMORBM01                              #  COMMON DOWNLIST DATA
000276: 05,2276  05,2136               LMREND02           EQUALS   LMORBM02                              #  COMMON DOWNLIST DATA
000277: 05,2276  05,2145               LMREND03           EQUALS   LMORBM03                              #  COMMON DOWNLIST DATA


000279: 05,2276  05,2154               LMREND04           EQUALS   LMORBM04                              #  COMMON DOWNLIST DATA
000280: 05,2276  05,2157               LMREND05           EQUALS   LMORBM05                              #  COMMON DOWNLIST DATA
000281: 05,2276  05,2224               LMREND06           EQUALS   LMCSTA06                              #  COMMON DOWNLIST DATA
000282:
000283: 05,2276           74320        LMREND07           -1DNADR  AIG                                   #  AIG,AMG               SNAPSHOT
000284: 05,2277           03461                           1DNADR   AOG                                   #  AOG,TRKMKCNT
000285: 05,2300           03752                           1DNADR   TANGNB                                #  TANGNB,+1
000286: 05,2301           03754                           1DNADR   MKTIME                                #  MKTIME,+1
000287: 05,2302           74017                           -1DNADR  RANGRDOT                              #  DNRRANGE,DNRRDOT
000288:
000289:                                                                                                  #  ---------------------------------------------------------
000290:


000292:                                                                                                  #  LM DESCENT AND ASCENT DOWNLIST
000293:
000294:                                                                                                  #  -----------------  CONTROL LIST   --------------------------
000295:
000296: 05,2303                        LMDSASDL           EQUALS                                         #  SEND ID BY SPECIAL CODING
000297: 05,2303           32341                           DNPTR    LMDSAS07                              #  COLLECT SNAPSHOT
000298: 05,2304           32355                           DNPTR    LMDSAS08                              #  SEND SNAPSHOT
000299: 05,2305           01344                           1DNADR   TEVENT                                #  TEVENT,+1
000300: 05,2306           13253                           3DNADR   UNFC/2                                #  UNFC/2 +0...+5
000301: 05,2307           13645                           3DNADR   VGVECT                                #  VGVECT +0...+5
000302: 05,2310           03642                           1DNADR   TTF/8                                 #  TTF/8,+1
000303: 05,2311           03664                           1DNADR   DELTAH                                #  DELTAH,+1
000304: 05,2312           12022                           3DNADR   RLS                                   #  RLS +0...+5
000305: 05,2313           00007                           1DNADR   SPARE
000306: 05,2314           32224                           DNPTR    LMDSAS09                              #  COMMON DATA
000307: 05,2315           32136                           DNPTR    LMDSAS02                              #  COMMON DATA
000308: 05,2316           00024                           1DNADR   TIME2                                 #  TIME2/1
000309: 05,2317           32145                           DNPTR    LMDSAS03                              #  COLLECT SNAPSHOT
000310: 05,2320           24340                           6DNADR   DNTMBUFF                              #  SEND SNAPSHOT
000311: 05,2321           32154                           DNPTR    LMDSAS04                              #  COMMON DATA
000312: 05,2322           07115                           2DNADR   POSTORKU                              #  POSTORKU,NEGTORKU,POSTORKV,NEGTORKV
000313: 05,2323           12636                           3DNADR   RGU                                   #  RGU +0...+5
000314: 05,2324           13626                           3DNADR   VGU                                   #  VGU +0...+5
000315: 05,2325           13634                           3DNADR   LAND                                  #  LAND +0...+5
000316: 05,2326           02262                           1DNADR   AT                                    #  AT,+1
000317: 05,2327           02400                           1DNADR   TLAND                                 #  TLAND,+1
000318: 05,2330           03615                           1DNADR   FC                                    #  FC,GARBAGE
000319: 05,2331           00112                           1DNADR   LASTYCMD                              #  LASTYCMD,LASTXCMD
000320: 05,2332           01331                           1DNADR   LEMMASS                               #  LEMMASS,CSMMASS
000321: 05,2333           01302                           1DNADR   IMODES30                              #  IMODES30,IMODES33
000322: 05,2334           03441                           1DNADR   TIG                                   #  TIG,+1
000323: 05,2335           32157                           DNPTR    LMDSAS05                              #  COMMON DATA
000324: 05,2336           32170                           DNPTR    LMDSAS06                              #  COMMON DATA
000325: 05,2337           03614                           1DNADR   PSEUDO55                              #  PSEUDO55,GARBAGE
000326: 05,2340           74324                           -1DNADR  TTOGO                                 #  TTOGO,+1
000327:
000328:                                                                                                  #  -----------------  SUB-LISTS   ----------------------------
000329:
000330: 05,2341  05,2136               LMDSAS02           EQUALS   LMORBM02                              #  COMMON DOWNLIST DATA
000331: 05,2341  05,2145               LMDSAS03           EQUALS   LMORBM03                              #  COMMON DOWNLIST DATA
000332: 05,2341  05,2154               LMDSAS04           EQUALS   LMORBM04                              #  COMMON DOWNLIST DATA
000333: 05,2341  05,2157               LMDSAS05           EQUALS   LMORBM05                              #  COMMON DOWNLIST DATA
000334: 05,2341  05,2170               LMDSAS06           EQUALS   LMORBM06                              #  COMMON DOWNLIST DATA
000335:
000336: 05,2341           75441        LMDSAS07           -1DNADR  LRZCDUDL                              #  LRZCDUDL,GARBAGE              SNAPSHOT
000337: 05,2342           03651                           1DNADR   VSELECT                               #  VSELECT,GARBAGE
000338: 05,2343           02337                           1DNADR   LRVTIMDL                              #  LRVTIMDL,+1


000340: 05,2344           03652                           1DNADR   VMEAS                                 #  VMEAS,+1
000341: 05,2345           03754                           1DNADR   MKTIME                                #  MKTIME,+1
000342: 05,2346           03654                           1DNADR   HMEAS                                 #  HMEAS,+1
000343: 05,2347           03756                           1DNADR   RM                                    #  RM,+1
000344: 05,2350           03457                           1DNADR   AIG                                   #  AIG,AMG
000345: 05,2351           03461                           1DNADR   AOG                                   #  AOG,TRKMKCNT
000346: 05,2352           03752                           1DNADR   TANGNB                                #  TANGNB,+1
000347: 05,2353           03754                           1DNADR   MKTIME                                #  MKTIME,+1
000348: 05,2354           75443                           -1DNADR  LRXCDUDL                              #  LRXCDUDL,LRYCDUDL
000349:
000350: 05,2355           24340        LMDSAS08           6DNADR   DNTMBUFF                              #  SEND SNAPSHOT
000351: 05,2356           57423                           -5DNADR  DNTMBUFF   +12D
000352:
000353: 05,2357  05,2224               LMDSAS09           EQUALS   LMCSTA06                              #  COMMON DOWNLIST DATA
000354:
000355:                                                                                                  #  ---------------------------------------------------------
000356:


000358:                                                                                                  #  LM LUNAR SURFACE ALIGN DOWNLIST
000359:
000360:                                                                                                  #  -----------------  CONTROL LIST  --------------------------
000361:
000362: 05,2357                        LMLSALDL           EQUALS                                         #  SEND ID BY SPECIAL CODING
000363: 05,2357           32127                           DNPTR    LMLSAL01                              #  COLLECT SNAPSHOT
000364: 05,2360           24340                           6DNADR   DNTMBUFF                              #  SEND SNAPSHOT
000365: 05,2361           32276                           DNPTR    LMLSAL07                              #  COLLECT SNAPSHOT
000366: 05,2362           14340                           4DNADR   DNTMBUFF                              #  SEND SHAPSHOT
000367: 05,2363           02774                           1DNADR   TALIGN                                #  TALIGN,+1
000368: 05,2364           25733                           6DNADR   REFSMMAT                              #  REFSMMAT +0...+11D
000369: 05,2365           26236                           6DNADR   YNBSAV                                #  YNBSAV +0...+5,ZNBSAV +0...+5
000370: 05,2366           32224                           DNPTR    LMLSAL08                              #  COMMON DATA
000371: 05,2367           32136                           DNPTR    LMLSAL02                              #  COMMON DATA
000372: 05,2370           00024                           1DNADR   TIME2                                 #  TIME/1
000373: 05,2371           32145                           DNPTR    LMLSAL03                              #  COLLECT SNAPSHOT
000374: 05,2372           24340                           6DNADR   DNTMBUFF                              #  SEND SHAPSHOT
000375: 05,2373           32154                           DNPTR    LMLSAL04                              #  COMMON DATA
000376: 05,2374           32226                           DNPTR    LMLSAL09                              #  COMMON DATA
000377: 05,2375           12230                           3DNADR   GSAV                                  #  GSAV +0...+5
000378: 05,2376           02020                           1DNADR   AGSK                                  #  AGSK,+1
000379: 05,2377           00112                           1DNADR   LASTYCMD                              #  LASTYCMD,LASTXCMD
000380: 05,2400           01331                           1DNADR   LEMMASS                               #  LEMMASS,CSMMASS
000381: 05,2401           01302                           1DNADR   IMODES30                              #  IMODES30,IMODES33
000382: 05,2402           03441                           1DNADR   TIG                                   #  TIG,+1
000383: 05,2403           32157                           DNPTR    LMLSAL05                              #  COMMON DATA
000384: 05,2404           32170                           DNPTR    LMLSAL06                              #  COMMON DATA
000385: 05,2405           00007                           1DNADR   SPARE
000386: 05,2406           77770                           -1DNADR  SPARE
000387:
000388:                                                                                                  #  -----------------  SUB-LISTS   ----------------------------
000389:
000390: 05,2407  05,2127               LMLSAL01           EQUALS   LMORBM01                              #  COMMON DOWNLIST DATA
000391: 05,2407  05,2136               LMLSAL02           EQUALS   LMORBM02                              #  COMMON DOWNLIST DATA
000392: 05,2407  05,2145               LMLSAL03           EQUALS   LMORBM03                              #  COMMON DOWNLIST DATA
000393: 05,2407  05,2154               LMLSAL04           EQUALS   LMORBM04                              #  COMMON DOWNLIST DATA
000394: 05,2407  05,2157               LMLSAL05           EQUALS   LMORBM05                              #  COMMON DOWNLIST DATA
000395: 05,2407  05,2170               LMLSAL06           EQUALS   LMORBM06                              #  COMMON DOWNLIST DATA
000396: 05,2407  05,2276               LMLSAL07           EQUALS   LMREND07                              #  COMMON DOWNLIST DATA
000397: 05,2407  05,2224               LMLSAL08           EQUALS   LMCSTA06                              #  COMMON DOWNLIST DATA
000398: 05,2407  05,2226               LMLSAL09           EQUALS   LMCSTA07                              #  COMMON DOWNLIST DATA
000399:


000401:                                                                                                  #  ---------------------------------------------------------
000402:


000404:                                                                                                  #  LM AGS INITIALIZATION AND UPDATE DOWNLIST
000405:
000406:                                                                                                  #  -----------------  CONTROL LIST  --------------------------
000407:
000408: 05,2407                        LMAGSIDL           EQUALS                                         #  SEND IO BY SPECIAL CODING
000409: 05,2407           12200                           3DNADR   AGSBUFF    +0                         #  AGSBUFF +0...+5
000410: 05,2410           02214                           1DNADR   AGSBUFF    +12D                       #  AGSBUFF +12D,GARBAGE
000411: 05,2411           12201                           3DNADR   AGSBUFF    +1                         #  AGSBUFF +1...+6
000412: 05,2412           02215                           1DNADR   AGSBUFF    +13D                       #  AGSBUFF +13D, GARBAGE
000413: 05,2413           12206                           3DNADR   AGSBUFF    +6                         #  AGSBUFF +6...+11
000414: 05,2414           02214                           1DNADR   AGSBUFF    +12D                       #  AGSBUFF +12,GARBAGE
000415: 05,2415           12207                           3DNADR   AGSBUFF    +7                         #  AGSBUFF +7...+12D
000416: 05,2416           02215                           1DNADR   AGSBUFF    +13D                       #  AGSBUFF +13D,GARBAGE
000417: 05,2417           25170                           6DNADR   COMPNUMB                              #  COMPNUMB,UPOLDMOD,UPVERB,UPCOUNT,
000418:                                                                                                  #  UPBUFF +0...+7
000419: 05,2420           25204                           6DNADR   UPBUFF     +8D                        #  UPBUFF +8D...+19D
000420: 05,2421           32136                           DNPTR    LMAGSI02                              #  COMMON DATA
000421: 05,2422           00024                           1DNADR   TIME2                                 #  TIME2/1
000422: 05,2423           32145                           DNPTR    LMAGSI03                              #  COLLECT SNAPSHOT
000423: 05,2424           24340                           6DNADR   DNTMBUFF                              #  SEND SNAPSHOT
000424: 05,2425           32154                           DNPTR    LMAGSI04                              #  COMMON DATA
000425: 05,2426           07115                           2DNADR   POSTORKU                              #  POSTORKU,NEGTORKU,POSTORKV,NEGTORKV
000426: 05,2427           00007                           1DNADR   SPARE
000427: 05,2430           00007                           1DNADR   SPARE
000428: 05,2431           02020                           1DNADR   AGSK                                  #  AGSK,+1
000429: 05,2432           25174                           6DNADR   UPBUFF                                #  UPBUFF +0...+11D
000430: 05,2433           15210                           4DNADR   UPBUFF     +12D                       #  UPBUFF +12D...+19D
000431: 05,2434           01331                           1DNADR   LEMMASS                               #  LEMMASS,CSMMASS
000432: 05,2435           01302                           1DNADR   IMODES30                              #  IMODES30,IMODES33
000433: 05,2436           00007                           1DNADR   SPARE
000434: 05,2437           32157                           DNPTR    LMAGSI05                              #  COMMON DATA
000435: 05,2440           52754                           -6DNADR  DSPTAB                                #  DSPTAB +0...+11D
000436:
000437:                                                                                                  #  -----------------  SUB-LISTS   ----------------------------
000438:
000439: 05,2441  05,2136               LMAGSI02           EQUALS   LMORBM02                              #  COMMON DOWNLIST DATA
000440: 05,2441  05,2145               LMAGSI03           EQUALS   LMORBM03                              #  COMMON DOWNLIST DATA
000441: 05,2441  05,2154               LMAGSI04           EQUALS   LMORBM04                              #  COMMON DOWNLIST DATA
000442: 05,2441  05,2157               LMAGSI05           EQUALS   LMORBM05                              #  COMMON DOWNLIST DATA
000443:
000444:                                                                                                  #  ---------------------------------------------------------
000445:
000446: 05,2441           02172        DNTABLE            GENADR   LMCSTADL                              #  LM COAST AND ALIGN DOWNLIST
000447: 05,2442           02407                           GENADR   LMAGSIDL                              #  LM AGS INITIALIZATION/UPDATE DOWNLIST
000448: 05,2443           02232                           GENADR   LMRENDDL                              #  LM RENDEZVOUS AND PRE-THRUST DOWNLIST
000449: 05,2444           02066                           GENADR   LMORBMDL                              #  LM ORBITAL MANEUVERS DOWNLIST
000450: 05,2445           02303                           GENADR   LMDSASDL                              #  LM DESCENT AND ASCENT DOWNLIST


000452: 05,2446           02357                           GENADR   LMLSALDL                              #  LM LUNAR SURFACE ALIGN DOWNLIST
000453:
000454:                                                                                                  #  ---------------------------------------------------------------
000455:
000456:

End of include-file DOWNLINK_LISTS.agc.  Parent file is MAIN.agc


