
Source Code


000002:                                                                                                  ## Copyright:   Public domain.
000003:                                                                                                  ## Filename:    FLAGWORD_ASSIGNMENTS.agc
000004:                                                                                                  ## Purpose:     Part of the reconstructed source code for LMY99 Rev 0,
000005:                                                                                                  ##              otherwise known as Luminary Rev 99, the second release
000006:                                                                                                  ##              of the Apollo Guidance Computer (AGC) software for Apollo 11.
000007:                                                                                                  ##              It differs from LMY99 Rev 1 (the flown version) only in the
000008:                                                                                                  ##              placement of a single label. The corrections shown here have
000009:                                                                                                  ##              been verified to have the same bank checksums as AGC developer
000010:                                                                                                  ##              Allan Klumpp's copy of Luminary Rev 99, and so are believed
000011:                                                                                                  ##              to be accurate. This file is intended to be a faithful
000012:                                                                                                  ##              recreation, except that the code format has been changed to
000013:                                                                                                  ##              conform to the requirements of the yaYUL assembler rather than
000014:                                                                                                  ##              the original YUL assembler.
000015:                                                                                                  ##
000016:                                                                                                  ## Assembler:   yaYUL
000017:                                                                                                  ## Contact:     Onno Hommes <ohommes@cmu.edu>.
000018:                                                                                                  ## Website:     www.ibiblio.org/apollo.
000019:                                                                                                  ## Pages:       0061-0089
000020:                                                                                                  ## Mod history: 2009-05-15 OH   Transcribed from page images.
000021:                                                                                                  ##              2009-05-17 RSB  Extended to (blank) p. 89.
000022:                                                                                                  ##              2010-12-31 JL   Fixed page number comment.
000023:                                                                                                  ##              2016-12-13 RSB  Proofed text comments with octopus/ProoferComments
000024:                                                                                                  ##                              and corrected the errors found.
000025:                                                                                                  ##              2017-03-02 RSB  Comment-text fixes identified whilst
000026:                                                                                                  ##                              proofing Luminary 116.
000027:                                                                                                  ##              2017-03-15 RSB  Comment-text fixes identified in 5-way
000028:                                                                                                  ##                              side-by-side diff of Luminary 69/99/116/131/210.
000029:                                                                                                  ##              2017-08-01 MAS  Created from LMY99 Rev 1.
000030:
000031:                                                                                                  ## This source code has been transcribed or otherwise adapted from
000032:                                                                                                  ## digitized images of a hardcopy from the MIT Museum.  The digitization
000033:                                                                                                  ## was performed by Paul Fjeld, and arranged for by Deborah Douglas of
000034:                                                                                                  ## the Museum.  Many thanks to both.  The images (with suitable reduction
000035:                                                                                                  ## in storage size and consequent reduction in image quality as well) are
000036:                                                                                                  ## available online at www.ibiblio.org/apollo.  If for some reason you
000037:                                                                                                  ## find that the images are illegible, contact me at info@sandroid.org
000038:                                                                                                  ## about getting access to the (much) higher-quality images which Paul
000039:                                                                                                  ## actually created.
000040:                                                                                                  ##
000041:                                                                                                  ## The code has been modified to match LMY99 Revision 0, otherwise
000042:                                                                                                  ## known as Luminary Revision 99, the Apollo 11 software release preceeding
000043:                                                                                                  ## the listing from which it was transcribed. It has been verified to
000044:                                                                                                  ## contain the same bank checksums as AGC developer Allan Klumpp's listing
000045:                                                                                                  ## of Luminary Revision 99 (for which we do not have scans).
000046:                                                                                                  ##
000047:                                                                                                  ## Notations on Allan Klumpp's listing read, in part:
000048:                                                                                                  ##
000049:                                                                                                  ##      ASSEMBLE REVISION 099 OF AGC PROGRAM LUMINARY BY NASA 2021112-51
000050:


000052:                                                                                                  #  FLAGWORDS 0-11        ARE DOWNLINKED AND CAN BE SET AND CLEARED BY UP-FLAG AND DOWN-FLAG INSTRUCTIONS IN THE
000053:                                                                                                  #                        INTERPRETER.  THESE WERE PREVIOUSLY LISTED UNDER "INTERPRETIVE SWITCH BIT ASSIGNMENTS" IN
000054:                                                                                                  #                        THE ERASABLE LOG SECTION.  FLAGWORDS 12 & 13 WERE PREVIOUSLY RADMODES AND DAPBOOLS AND
000055:                                                                                                  #                        ARE STILL DOWNLINKED UNDER THOSE NAMES.
000056:
000057:                                                                                                  #                ALPHABETICAL LIST OF FLAGWORDS
000058:
000059:
000060:                                                                                                  #  FLAGWORD      DEC. NUMBER     BIT AND FLAG            BIT NAME
000061:
000062:                                                                                                  #  ACCOKFLG      207             BIT  3 FLAG 13          ACCSOKAY
000063:                                                                                                  #  ACC4-2FL      199             BIT 11 FLAG 13          ACC4OR2X
000064:                                                                                                  #  ACMODFLG      032             BIT 13 FLAG  2          ACMODBIT
000065:                                                                                                  #  ALTSCALE      186             BIT  9 FLAG 12          ALTSCBIT
000066:                                                                                                  #  ANTENFLG      183             BIT 12 FLAG 12          ANTENBIT
000067:                                                                                                  #  AORBSFLG      205             BIT  5 FLAG 13          AORBSYST
000068:                                                                                                  #  AORBTFLG      200             BIT 10 FLAG 13          AORBTRAN
000069:                                                                                                  #  APSESW        130             BIT  5 FLAG  8          APSESBIT
000070:                                                                                                  #  APSFLAG       152             BIT 13 FLAG 10          APSFLBIT
000071:                                                                                                  #  ASTNFLAG      108             BIT 12 FLAG  7          ASTNBIT
000072:                                                                                                  #  ATTFLAG       104             BIT  1 FLAG  6          ATTFLBIT
000073:                                                                                                  #  AUTOMODE      193             BIT  2 FLAG 12          AUTOMBIT
000074:                                                                                                  #  AUTR1FLG      209             BIT  1 FLAG 13          AUTRATE1
000075:                                                                                                  #  AUTR2FLG      208             BIT  2 FLAG 13          AUTRATE2
000076:                                                                                                  #  AUXFLAG       103             BIT  2 FLAG  6          AUXFLBIT
000077:                                                                                                  #  AVEGFLAG      115             BIT  5 FLAG  7          AVEGFBIT
000078:                                                                                                  #  AVEMIDSW      149             BIT  1 FLAG  9          AVEMDBIT
000079:                                                                                                  #  AVFLAG        040             BIT  5 FLAG  2          AVFLBIT
000080:                                                                                                  #  CALCMAN2      043             BIT  2 FLAG  2          CALC2BIT
000081:                                                                                                  #  CALCMAN3      042             BIT  3 FLAG  2          CALC3BIT
000082:                                                                                                  #  CDESFLAG      180             BIT 15 FLAG 12          CDESBIT
000083:                                                                                                  #  CMOONFLG      123             BIT 12 FLAG  8          CMOONBIT
000084:                                                                                                  #  COGAFLAG      131             BIT  4 FLAG  8          COGAFBIT
000085:                                                                                                  #  CSMDKFLG      197             BIT 13 FLAG 13          CSMDOCKD
000086:                                                                                                  #  CULTFLAG      053             BIT  7 FLAG  3          CULTBIT
000087:                                                                                                  #  DAPBOOLS                      FLGWRD13
000088:                                                                                                  #  DBSELFLG      206             BIT  4 FLAG 13          DBSELECT
000089:                                                                                                  #  DESIGFLG      185             BIT 10 FLAG 12          DESIGBIT
000090:                                                                                                  #  DIDFLAG       016             BIT 14 FLAG             DIDFLBIT
000091:                                                                                                  #  DIMOFLAG      059             BIT  1 FLAG  3          DIMOBIT
000092:                                                                                                  #  DMENFLG       081             BIT  9 FLAG  5          DMENFBIT
000093:                                                                                                  #  DRIFTDFL      202             BIT  8 FLAG 13          DRIFTBIT
000094:                                                                                                  #  DRIFTFLG      030             BIT 15 FLAG  2          DRFTBIT
000095:                                                                                                  #  DSKYFLAG      075             BIT 15 FLAG  5          DSKYFBIT


000097:                                                                                                  #  D6OR9FLG      058             BIT  2 FLAG  3          D6OR9BIT
000098:                                                                                                  #  ENGONFLG      083             BIT  7 FLAG  5          ENGONBIT
000099:                                                                                                  #  ERADFLAG      017             BIT 13 FLAG  1          ERADFBIT
000100:                                                                                                  #  ETPIFLAG      038             BIT  7 FLAG  2          ETPIBIT         EQUIVALENT FLAG NAME: OPTNSW
000101:                                                                                                  #  FINALFLG      039             BIT  6 FLAG  2          FINALBIT
000102:                                                                                                  #  FLAGWRD0      (000-014)       (STATE +0)
000103:                                                                                                  #  FLAGWRD1      (015-029)       (STATE +1)
000104:                                                                                                  #  FLAGWRD2      (030-044)       (STATE +2)
000105:                                                                                                  #  FLAGWRD3      (045-059)       (STATE +3)
000106:                                                                                                  #  FLAGWRD4      (060-074)       (STATE +4)
000107:                                                                                                  #  FLAGWRD5      (075-089)       (STATE +5)
000108:                                                                                                  #  FLAGWRD6      (090-104)       (STATE +6)
000109:                                                                                                  #  FLAGWRD7      (105-119)       (STATE +7)
000110:                                                                                                  #  FLAGWRD8      (120-134)       (STATE +8D)
000111:                                                                                                  #  FLAGWRD9      (135-149)       (STATE +9D)
000112:                                                                                                  #  FLAP          142             BIT  8 FLAG  9          FLAPBIT
000113:                                                                                                  #  FLGWRD10      (150-164)       (STATE +10D)
000114:                                                                                                  #  FLGWRD11      (165-179)       (STATE +11D)
000115:                                                                                                  #  FLGWRD12      (180-194)       (STATE +12D)
000116:                                                                                                  #  FLGWRD13      (195-209)       (STATE +13D)
000117:                                                                                                  #  FLPC          138             BIT 12 FLAG  9          FLPCBIT
000118:                                                                                                  #  FLPI          139             BIT 11 FLAG  9          FLPIBIT
000119:                                                                                                  #  FLRCS         149             BIT 10 FLAG  9          FLRCSBIT
000120:                                                                                                  #  FLUNDISP      125             BIT 10 FLAG  8          FLUNDBIT
000121:                                                                                                  #  FLVR          136             BIT 14 FLAG  9          FLVRBIT
000122:                                                                                                  #  FREEFLAG      012             BIT  3 FLAG  0          FREEFBIT
000123:                                                                                                  #  FSPASFLG      005             BIT 10 FLAG  0          FSPASBIT
000124:                                                                                                  #  GLOKFAIL      046             BIT 14 FLAG  3          GLOKFBIT
000125:                                                                                                  #  GMBDRVSW      095             BIT 10 FLAG  6          GMBDRBIT
000126:                                                                                                  #  GUESSW        028             BIT  2 FLAG  1          GUESSBIT
000127:                                                                                                  #  HFLSHFLG      179             BIT  1 FLAG 11          HFLSHBIT
000128:                                                                                                  #  IDLEFLAG      113             BIT  7 FLAG  7          IDLEFBIT
000129:                                                                                                  #  IGNFLAG       107             BIT 13 FLAG  7          IGNFLBIT
000130:                                                                                                  #  IMPULSW       036             BIT  9 FLAG  2          IMPULBIT
000131:                                                                                                  #  IMUSE         007             BIT  8 FLAG  0          IMUSEBIT
000132:                                                                                                  #  INFINFLG      128             BIT  7 FLAG  8          INFINBIT
000133:                                                                                                  #  INITALGN      133             BIT  2 FLAG  8          INITABIT
000134:                                                                                                  #  INTFLAG       151             BIT 14 FLAG 10          INTFLBIT
000135:                                                                                                  #  INTYPFLG      056             BIT  4 FLAG  3          INTYPBIT
000136:                                                                                                  #  ITSWICH       105             BIT 15 FLAG  7          ITSWBIT
000137:                                                                                                  #  JSWITCH       001             BIT 14 FLAG  0          JSWCHBIT
000138:                                                                                                  #  LETABORT      141             BIT  9 FLAG  9          LETABBIT
000139:                                                                                                  #  LMOONFLG      124             BIT 11 FLAG  8          LMOONBIT
000140:                                                                                                  #  LOKONSW       010             BIT  5 FLAG  0          LOKONBIT
000141:                                                                                                  #  LOSCMFLG      033             BIT 12 FLAG  2          LOSCMBIT
000142:                                                                                                  #  LRALTFLG      190             BIT  5 FLAG 12          LRALTBIT
000143:                                                                                                  #  LRBYPASS      165             BIT 15 FLAG 11          LRBYBIT
000144:                                                                                                  #  LRINH         172             BIT  8 FLAG 11          LRINHBIT
000145:                                                                                                  #  LRPOSFLG      189             BIT  6 FLAG 12          LRPOSBIT
000146:                                                                                                  #  LRVELFLG      187             BIT  8 FLAG 12          LRVELBIT


000148:                                                                                                  #  LUNAFLAG      048             BIT 12 FLAG  3          LUNABIT
000149:                                                                                                  #  MANUFLAG      106             BIT 14 FLAG  7          MANUFBIT
000150:                                                                                                  #  MGLVFLAG      088             BIT  2 FLAG  5          MGLVFBIT
000151:                                                                                                  #  MIDAVFLG      148             BIT  2 FLAG  9          MIDAVBIT
000152:                                                                                                  #  MIDFLAG       002             BIT 13 FLAG  0          MIDFLBIT
000153:                                                                                                  #  MID1FLAG      147             BIT  3 FLAG  9          MID1BIT
000154:                                                                                                  #  MKOVFLAG      072             BIT  3 FLAG  4          MKOVBIT
000155:                                                                                                  #  MOONFLAG      003             BIT 12 FLAG  0          MOONBIT
000156:                                                                                                  #  MRKIDFLG      060             BIT 15 FLAG  4          MRKIDBIT
000157:                                                                                                  #  MRKNVFLG      066             BIT  9 FLAG  4          MRKNVBIT
000158:                                                                                                  #  MRUPTFLG      070             BIT  5 FLAG  4          MRUPTBIT
000159:                                                                                                  #  MUNFLAG       097             BIT  8 FLAG  6          MUNFLBIT
000160:                                                                                                  #  MWAITFLG      064             BIT 11 FLAG  4          MWAITBIT
000161:                                                                                                  #  NEEDLFLG      011             BIT  4 FLAG  0          NEEDLBIT
000162:                                                                                                  #  NEWIFLG       122             BIT 13 FLAG  8          NEWIBIT
000163:                                                                                                  #  NJETSFLG      015             BIT 15 FLAG             NJETSBIT
000164:                                                                                                  #  NODOFLAG      044             BIT  1 FLAG  2          NODOBIT
000165:                                                                                                  #  NOLRREAD      170             BIT 10 FLAG 11          NOLRRBIT
000166:                                                                                                  #  NORMSW        110             BIT 10 FLAG  7          NORMSBIT
000167:                                                                                                  #  NORRMON       086             BIT  4 FLAG  5          NORRMBIT
000168:                                                                                                  #  NOR29FLG      049             BIT 11 FLAG  3          NR29FBIT
000169:                                                                                                  #  NOTHROTL      078             BIT 12 FLAG  5          NOTHRBIT
000170:                                                                                                  #  NOUPFLAG      024             BIT  6 FLAG  1          NOUPFBIT
000171:                                                                                                  #  NRMNVFLG      067             BIT  8 FLAG  4          NRMNVBIT
000172:                                                                                                  #  NRMIDFLG      062             BIT 13 FLAG  4          NRMIDBIT
000173:                                                                                                  #  NRUPTFLG      071             BIT  4 FLAG  4          NRUPTBIT
000174:                                                                                                  #  NTARGFLG      102             BIT  3 FLAG  6          NTARGBIT
000175:                                                                                                  #  NWAITFLG      065             BIT 10 FLAG  4          NWAITBIT
000176:                                                                                                  #  OLDESFLG      014             BIT  1 FLAG  0          OLDESBIT
000177:                                                                                                  #  OPTNSW        038             BIT  7 FLAG  2          OPTNBIT         EQUIVALENT FLAG NAME: ETPIFLAG
000178:                                                                                                  #  ORBWFLAG      054             BIT  6 FLAG  3          ORBWFBIT
000179:                                                                                                  #  ORDERSW       129             BIT  6 FLAG  8          ORDERBIT
000180:                                                                                                  #  OURRCFLG      198             BIT 12 FLAG 13          OURRCBIT
000181:                                                                                                  #  PDSPFLAG      063             BIT 12 FLAG  4          PDSPFBIT
000182:                                                                                                  #  PFRATFLG      041             BIT  4 FLAG  2          PFRATBIT
000183:                                                                                                  #  PINBRFLG      069             BIT  6 FLAG  4          PINBRBIT
000184:                                                                                                  #  PRECIFLG      052             BIT  8 FLAG  3          PRECIBIT
000185:                                                                                                  #  PRIODFLG      061             BIT 14 FLAG  1          PRIODBIT
000186:                                                                                                  #  PRONVFLG      068             BIT  7 FLAG  4          PRONVBIT
000187:                                                                                                  #  PSTHIGAT      169             BIT 11 FLAG 11          PSTHIBIT
000188:                                                                                                  #  PULSEFLG      195             BIT 15 FLAG 13          PULSES
000189:                                                                                                  #  P21FLAG       004             BIT 11 FLAG  0          P21FLBIT
000190:                                                                                                  #  P25FLAG       006             BIT  9 FLAG  0          P25FLBIT
000191:                                                                                                  #  P39/79SW      126             BIT  9 FLAG  8          P39SWBIT
000192:                                                                                                  #  QUITFLAG      145             BIT 5 FLAG 9            QUITBIT
000193:                                                                                                  #  RADMODES                      FLGWRD12
000194:                                                                                                  #  RASFLAG                       FLGWRD10
000195:                                                                                                  #  RCDUFAIL      188             BIT  7 FLAG 12          RCDUFBIT
000196:                                                                                                  #  RCDU0FLG      182             BIT 13 FLAG 12          RCDU0BIT
000197:                                                                                                  #  READLR        174             BIT  6 FLAG 11          READLBIT


000199:                                                                                                  #  READRFLG      051             BIT  9 FLAG  3          READRBIT        EQUIVALENT FLAG NAME:  R04FLAG
000200:                                                                                                  #  READVEL       175             BIT  5 FLAG 11          READVBIT
000201:                                                                                                  #  REDFLAG       099             BIT  6 FLAG  6          REDFLBIT
000202:                                                                                                  #  REFSMFLG      047             BIT 13 FLAG  3          REFSMBIT
000203:                                                                                                  #  REINTFLG      158             BIT  7 FLAG 10          REINTBIT
000204:                                                                                                  #  REMODFLG      181             BIT 14 FLAG 12          REMODBIT
000205:                                                                                                  #  RENDWFLG      089             BIT  1 FLAG  5          RENDWBIT
000206:                                                                                                  #  REPOSMON      184             BIT 11 FLAG 12          REPOSBIT
000207:                                                                                                  #  RHCSCFLG      203             BIT  7 FLAG 13          RHCSCALE
000208:                                                                                                  #  RNDVZFLG      008             BIT  7 FLAG  0          RNDVZBIT
000209:                                                                                                  #  RNGEDATA      176             BIT  4 FLAG 11          RNGEDBIT
000210:                                                                                                  #  RNGSCFLG      080             BIT 10 FLAG  5          RNGSCBIT
000211:                                                                                                  #  RODFLAG       018             BIT 12 FLAG  1          RODFLBIT
000212:                                                                                                  #  ROTFLAG       144             BIT  6 FLAG  9          ROTFLBIT
000213:                                                                                                  #  RPQFLAG       120             BIT 15 FLAG  8          RPQFLBIT
000214:                                                                                                  #  RRDATAFL      191             BIT  4 FLAG 12          RRDATABT
000215:                                                                                                  #  RRNBSW        009             BIT  6 FLAG  0          RRNBBIT
000216:                                                                                                  #  RRRSFLAG      192             BIT  3 FLAG 12          RRRSBIT
000217:                                                                                                  #  RVSW          111             BIT  9 FLAG  7          RVSWBIT
000218:                                                                                                  #  R04FLAG       051             BIT  9 FLAG  3          R04FLBIT        EQUIVALENT FLAG NAME:  READRFLG
000219:                                                                                                  #  R10FLAG       013             BIT  2 FLAG  0          R10FLBIT
000220:                                                                                                  #  R61FLAG       020             BIT 10 FLAG  1          R61FLBIT
000221:                                                                                                  #  R77FLAG       079             BIT 11 FLAG  5          R77FLBIT
000222:                                                                                                  #  SCALBAD       177             BIT  3 FLAG 11          SCABBIT
000223:                                                                                                  #  SLOPESW       027             BIT  3 FLAG  1          SLOPEBIT
000224:                                                                                                  #  SNUFFER       077             BIT 13 FLAG  5          SNUFFBIT
000225:                                                                                                  #  SOLNSW        087             BIT  3 FLAG  5          SOLNSBIT
000226:                                                                                                  #  SRCHOPTN      031             BIT 14 FLAG  2          SRCHOBIT
000227:                                                                                                  #  STATEFLG      055             BIT  5 FLAG  3          STATEBIT
000228:                                                                                                  #  STEERSW       034             BIT 11 FLAG  2          STEERBIT
000229:                                                                                                  #  SURFFLAG      127             BIT  8 FLAG  8          SURFFBIT
000230:                                                                                                  #  SWANDISP      109             BIT 11 FLAG  7          SWANDBIT
000231:                                                                                                  #  S32.1F1       090             BIT 15 FLAG  6          S32BIT1
000232:                                                                                                  #  S32.1F2       092             BIT 14 FLAG  6          S32BIT2
000233:                                                                                                  #  S32.1F3A      092             BIT 13 FLAG  6          S32BIT3A
000234:                                                                                                  #  S32.1S3B      093             BIT 12 FLAG  6          S32BIT3B
000235:                                                                                                  #  TFFSW         119             BIT  1 FLAG  7          TFFSWBIT
000236:                                                                                                  #  TRACKFLG      025             BIT  5 FLAG  1          TRACKBIT
000237:                                                                                                  #  TURNONFL      194             BIT  1 FLAG 12          TURNONBT
000238:                                                                                                  #  ULLAGFLG      204             BIT  6 FLAG 13          ULLAGER
000239:                                                                                                  #  UPDATFLG      023             BIT  7 FLAG  1          UPDATBIT
000240:                                                                                                  #  UPLOCKFL      116             BIT  4 FLAG 7           UPLOCBIT
000241:                                                                                                  #  USEQRFLG      196             BIT 14 FLAG 13          USEQRJTS
000242:                                                                                                  #  VEHUPFLG      022             BIT  8 FLAG  1          VEHUPBIT
000243:                                                                                                  #  VELDATA       173             BIT  7 FLAG 11          VELDABIT
000244:                                                                                                  #  VERIFLAG      117             BIT  3 FLAG  7          VERIFBIT
000245:                                                                                                  #  VFLAG         050             BIT 10 FLAG  3          VFLAGBIT
000246:                                                                                                  #  VFLSHFLG      178             BIT  2 FLAG 11          VFLSHBIT
000247:                                                                                                  #  VINTFLAG      057             BIT  3 FLAG  3          VINTFBIT
000248:                                                                                                  #  VXINH         168             BIT 12 FLAG 11          VXINHBIT


000250:                                                                                                  #  V37FLAG       114             BIT  6 FLAG  7          V37FLBIT
000251:                                                                                                  #  V67FLAG       112             BIT  8 FLAG  7          V67FLBIT
000252:                                                                                                  #  V82EMFLG      118             BIT  2 FLAG  7          V82EMBIT
000253:                                                                                                  #  XDELVFLG      037             BIT  8 FLAG  2          XDELVBIT
000254:                                                                                                  #  XDSPFLAG      074             BIT  1 FLAG  4          XDSPBIT
000255:                                                                                                  #  XORFLG        171             BIT  9 FLAG 11          XORFLBIT
000256:                                                                                                  #  XOVINFLG      201             BIT  9 FLAG 13          XOVINHIB
000257:                                                                                                  #  3AXISFLG      084             BIT  6 FLAG  5          3AXISBIT
000258:                                                                                                  #  360SW         134             BIT  1 FLAG  8          360SWBIT
000259:
000260:                                                                                                  #  ASSIGNMENT AND DESCRIPTION OF FLAGWORDS
000261:
000262: 26,2022     0074               FLAGWRD0           =        STATE      +0                         #  (000-014)
000263:
000264:                                                                                                  #        (SET)                   (RESET)
000265:
000266:                                                                                                  #  BIT 15 FLAG 0 (S)
000267:                                                                                                  #                =       000D
000268:                                                                                                  #                =       BIT15
000269:
000270:                                                                                                  #  BIT 14 FLAG 0 (S)
000271: 26,2022                        JSWITCH            =        001D                                  #        INTEGRATION OF W        INTEGRATION OF STATE
000272: 26,2022     4736               JSWCHBIT           =        BIT14                                 #        MATRIX                  VECTOR
000273:
000274:                                                                                                  #  BIT 13 FLAG 0 (S)
000275: 26,2022                        MIDFLAG            =        002D                                  #        INTEGRATION WITH        INTEGRATION WITHOUT
000276:                                                                                                  #        SECONDARY BODY AND      SOLAR PERTURBATIONS
000277: 26,2022     4737               MIDFLBIT           =        BIT13                                 #        SOLAR PERTURBATIONS
000278:
000279:                                                                                                  #  BIT 12 FLAG 0 (L)
000280: 26,2022                        MOONFLAG           =        003D                                  #        MOON IS SPHERE OF       EARTH IS SPHERE OF
000281: 26,2022     4740               MOONBIT            =        BIT12                                 #        INFLUENCE               INFLUENCE
000282:
000283:                                                                                                  #  BIT 11 FLAG 0
000284: 26,2022                        P21FLAG            =        004D                                  #        USE BASE VECTORS        1ST PASS -- CALC-
000285: 26,2022     4741               P21FLBIT           =        BIT11                                 #        ALREADY CALCULATED      ULATE BASE VECTORS
000286:
000287:                                                                                                  #  BIT 10 FLAG 0
000288: 26,2022                        FSPASFLG           =        005D                                  #        FIRST PASS THROUGH      NOT FIRST PASS THRU
000289: 26,2022     4742               FSPASBIT           =        BIT10                                 #        REPOSITION ROUTINE      REPOSITION ROUTINE
000290:


000292:                                                                                                  #  BIT 9 FLAG 0  (S)
000293: 26,2022                        P25FLAG            =        006D                                  #        P25 OPERATING           P25 NOT OPERATING
000294: 26,2022     4743               P25FLBIT           =        BIT9
000295:
000296:                                                                                                  #  BIT 8 FLAG 0  (S)
000297: 26,2022                        IMUSE              =        007D                                  #        IMU IN USE              IMU NOT IN USE
000298: 26,2022     4744               IMUSEBIT           =        BIT8
000299:
000300:                                                                                                  #  BIT 7 FLAG 0  (S)
000301: 26,2022                        RNDVZFLG           =        008D                                  #        P20 RUNNING (RADAR      P20 NOT RUNNING
000302: 26,2022     4745               RNDVZBIT           =        BIT7                                  #        IN USE)
000303:
000304:                                                                                                  #  BIT 6 FLAG 0  (S)
000305: 26,2022                        RRNBSW             =        009D                                  #        RADAR TARGET IN         RADAR TARGET IN
000306: 26,2022     4746               RRNBBIT            =        BIT6                                  #        NB COORDINATES          SM COORDINATES
000307:
000308:                                                                                                  #  BIT 5 FLAG 0  (S)
000309: 26,2022                        LOKONSW            =        010D                                  #        RADAR LOCK-ON           RADAR LOCK-ON NOT
000310: 26,2022     4747               LOKONBIT           =        BIT5                                  #        DESIRED                 DESIRED
000311:
000312:                                                                                                  #  BIT 4 FLAG 0  (S)
000313: 26,2022                        NEEDLFLG           =        011D                                  #        TOTAL ATTITUDE          A/P FOLLOWING
000314: 26,2022     4750               NEEDLBIT           =        BIT4                                  #        ERROR DISPLAYED         ERROR DISPLAYED
000315:
000316:                                                                                                  #  BIT 3 FLAG 0
000317: 26,2022                        FREEFLAG           =        012D                                  #  (USED BY P51-53 TEMP IN MANY DIFFERENT
000318:                                                                                                  #  ROUTINES & BY LUNAR + SOLAR EPHEMERIDES)
000319: 26,2022     4751               FREEFBIT           =        BIT3
000320:
000321:                                                                                                  #  BIT 2 FLAG 0
000322: 26,2022                        R10FLAG            =        013D                                  #        R10 OUTPUTS DATA TO     BESIDES OUTPUT WHEN
000323: 26,2022     4752               R10FLBIT           =        BIT2                                  #        ALTITUDE & ALTITUDE     SET, R10 ALSO OUTPUT
000324:                                                                                                  #        RATE METERS ONLY        TO FORWARD & LATERAL
000325:                                                                                                  #                                VELOCITY CROSSPOINTR
000326:
000327:                                                                                                  #  BIT 1 FLAG 0  (L)
000328: 26,2022                        OLDESFLG           =        014D                                  #        R29 GYRO CMD LOOP       R29 GYRO CMD LOOP
000329: 26,2022     4753               OLDESBIT           =        BIT1                                  #        REQUESTED               NOT REQUESTED
000330:
000331:
000332: 26,2022     0075               FLAGWRD1           =        STATE      +1                         #  (015-029)
000333:


000335:                                                                                                  #        (SET)                   (RESET)
000336:
000337:                                                                                                  #  BIT 15 FLAG 1 (S)
000338: 26,2022                        NJETSFLG           =        015D                                  #        TWO JET RCS BURN        FOUR JET RCS BURN
000339: 26,2022     4735               NJETSBIT           =        BIT15
000340:
000341:                                                                                                  #  BIT 14 FLAG 1 (L)
000342: 26,2022                        DIDFLAG            =        016D                                  #        INERTIAL DATA IS        PERFORM DATA DISPLAY
000343: 26,2022     4736               DIDFLBIT           =        BIT14                                 #        AVAILABLE               INITIALIZATION FUNCS
000344:
000345:                                                                                                  #  BIT 13 FLAG 1 (S)
000346: 26,2022                        ERADFLAG           =        017D                                  #        COMPUTE REARTH          USE CONSTANT REARTH
000347: 26,2022     4737               ERADFBIT           =        BIT13                                 #        FISCHER ELLIPSOID       PAD RADIUS
000348:
000349:                                                                                                  #  BIT 12 FLAG 1
000350: 26,2022                        RODFLAG            =        018D                                  #        IF IN P66, NORMAL       IF IN P66, RE-INIT-
000351: 26,2022     4740               RODFLBIT           =        BIT12                                 #        OPERATION CONTINUES.    IALIZATION IS PER-
000352:                                                                                                  #        RESTART CLEARS FLAG     FORMED AND FLAG IS
000353:
000354:                                                                                                  #  BIT 11 FLAG 1
000355:                                                                                                  #                =       019D
000356:                                                                                                  #                =       BIT11
000357:
000358:                                                                                                  #  BIT 10 FLAG 1 (L)
000359: 26,2022                        R61FLAG            =        020D                                  #        RUN R61 LEM             RUN R65 LEM
000360: 26,2022     4742               R61FLBIT           =        BIT10
000361:
000362:                                                                                                  #  BIT 9 FLAG 1
000363:                                                                                                  #                =       021D
000364:                                                                                                  #                =       BIT9
000365:
000366:                                                                                                  #  BIT 8 FLAG 1  (S)
000367: 26,2022                        VEHUPFLG           =        022D                                  #        CSM STATE VECTOR        LEM STATE VECTOR
000368: 26,2022     4744               VEHUPBIT           =        BIT8                                  #        BEING UPDATED           BEING UPDATED
000369:
000370:                                                                                                  #  BIT 7 FLAG 1  (S)
000371: 26,2022                        UPDATFLG           =        023D                                  #        UPDATING BY MARKS       UPDATING BY MARKS
000372: 26,2022     4745               UPDATBIT           =        BIT7                                  #        ALLOWED                 NOT ALLOWED
000373:
000374:                                                                                                  #  BIT 6 FLAG 1  (S)
000375: 26,2022                        NOUPFLAG           =        024D                                  #        NEITHER CSM             EITHER STATE
000376:                                                                                                  #        NOR LM STATE VECTOR     VECTOR MAY BE
000377: 26,2022     4746               NOUPFBIT           =        BIT6                                  #        MAY BE UPDATED          UPDATED
000378:


000380:                                                                                                  #  BIT 5 FLAG 1  (S)
000381: 26,2022                        TRACKFLG           =        025D                                  #        TRACKING ALLOWED        TRACKING NOT ALLOWED
000382: 26,2022     4747               TRACKBIT           =        BIT5
000383:
000384:                                                                                                  #  BIT 4 FLAG 1
000385:                                                                                                  #                =       026D
000386:                                                                                                  #                =       BIT4
000387:
000388:                                                                                                  #  BIT 3 FLAG 1  (S)
000389: 26,2022                        SLOPESW            =        027D                                  #        ITERATE WITH BIAS       ITERATE WITH REGULAR
000390:                                                                                                  #        METHOD IN ITERATOR      FALSI METHOD IN
000391: 26,2022     4751               SLOPEBIT           =        BIT3                                  #                                ITERATOR
000392:
000393:                                                                                                  #  BIT 2 FLAG 1  (S)
000394: 26,2022                        GUESSW             =        028D                                  #        NO STARTING VALUE       STARTING VALUE FOR
000395: 26,2022     4752               GUESSBIT           =        BIT2                                  #        FOR ITERATION           ITERATION EXISTS
000396:
000397:                                                                                                  #  BIT 1 FLAG 1
000398:                                                                                                  #                =       029D
000399:
000400: 26,2022     0076               FLAGWRD2           =        STATE      +2                         #  (030-044)
000401:
000402:                                                                                                  #        (SET)                   (RESET)
000403:
000404:                                                                                                  #  BIT 15 FLAG 2 (S)
000405: 26,2022                        DRIFTFLG           =        030D                                  #        T3RUPT CALLS GYRO       T3RUPT DOES NO GYRO
000406: 26,2022     4735               DRFTBIT            =        BIT15                                 #        COMPENSATION            COMPENSATION
000407:
000408:                                                                                                  #  BIT 14 FLAG 2 (S)
000409: 26,2022                        SRCHOPTN           =        031D                                  #        RADAR IN AUTOMATIC      RADAR NOT IN AUTO-
000410: 26,2022     4736               SRCHOBIT           =        BIT14                                 #        SEARCH OPTION (R24)     MATIC SEARCH OPTION
000411:
000412:                                                                                                  #  BIT 13 FLAG 2 (S)
000413: 26,2022                        ACMODFLG           =        032D                                  #        MANUAL ACQUISITION      AUTO ACQUISITION
000414: 26,2022     4737               ACMODBIT           =        BIT13                                 #        BY RENDESVOUS RADAR     BY RENDESVOUS RADAR
000415:
000416:                                                                                                  #  BIT 12 FLAG 2 (S)
000417: 26,2022                        LOSCMFLG           =        033D                                  #        LINE OF SIGHT BEING     LINE OF SIGHT NOT
000418:                                                                                                  #        COMPUTED (R21)          BEING COMPUTED
000419: 26,2022     4740               LOSCMBIT           =        BIT12
000420:


000422:                                                                                                  #        IN R29 (L): RR GYRO     IN R29 (L): RR GYRO
000423:                                                                                                  #        CMD LOOP RUNNING        CMD LOOP OFF
000424:
000425:                                                                                                  #  BIT 11 FLAG 2 (S)
000426: 26,2022                        STEERSW            =        034D                                  #        SUFFICIENT THRUST       INSUFFICIENT THRUST
000427: 26,2022     4741               STEERBIT           =        BIT11                                 #        IS PRESENT              IS PRESENT
000428:
000429:                                                                                                  #  BIT 10 FLAG 2 (S)
000430:
000431:                                                                                                  #  BIT 9 FLAG 2 (S)
000432: 26,2022                        IMPULSW            =        036D                                  #        MINIMUM IMPULSE         STEERING BURN (NO
000433:                                                                                                  #        BURN (CUTOFF TIME       CUTOFF TIME YET
000434: 26,2022     4743               IMPULBIT           =        BIT9                                  #        SPECIFIED)              AVAILABLE)
000435:
000436:                                                                                                  #  BIT 8 FLAG 2 (S)
000437: 26,2022                        XDELVFLG           =        037D                                  #        EXTERNAL DELTAV VG      LAMBERT (AIMPOINT)
000438: 26,2022     4744               XDELVBIT           =        BIT8                                  #        COMPUTATION             VG COMPUTATION
000439:
000440:                                                                                                  #  BIT 7 FLAG 2 (S)
000441: 26,2022                        ETPIFLAG           =        038D                                  #        ELEVATION ANGLE         TPI TIME SUPPLIED
000442:                                                                                                  #        SUPPLIED FOR            FOR P34,74 TO COMPUT
000443: 26,2022     4745               ETPIBIT            =        BIT7                                  #        P34,74                  ELEVATION
000444:
000445:                                                                                                  #  BIT 7 FLAG 2 (L)
000446: 26,2022  0000046               OPTNSW             =        ETPIFLAG                              #        SOI PHASE OF P38/78     SOR PHASE OF P38/78
000447: 26,2022     4745               OPTNBIT            =        BIT7
000448:
000449:                                                                                                  #  BIT 6 FLAG 2 (S)
000450: 26,2022                        FINALFLG           =        039D                                  #        LAST PASS THROUGH       INTERIM PASS THROUGH
000451:                                                                                                  #        RENDEZVOUS PROGRAM      RENDEZVOUS PROGRAM
000452: 26,2022     4746               FINALBIT           =        BIT6                                  #        COMPUTATIONS            COMPUTATIONS
000453:
000454:                                                                                                  #  BIT 5 FLAG 2 (S)
000455: 26,2022                        AVFLAG             =        040D                                  #        LEM IS ACTIVE           CSM IS ACTIVE
000456: 26,2022     4747               AVFLBIT            =        BIT5                                  #        VEHICLE                 VEHICLE
000457:
000458:                                                                                                  #  BIT 4 FLAG 2 (S)
000459: 26,2022                        PFRATFLG           =        041D                                  #        PREFERRED ATTITUDE      PREFERRED ATTITUDE
000460: 26,2022     4750               PFRATBIT           =        BIT4                                  #        COMPUTED                NOT COMPUTED
000461:
000462:                                                                                                  #  BIT 3 FLAG 2 (S)
000463:


000465: 26,2022                        CALCMAN3           =        042D                                  #        NO FINAL ROLL           FINAL ROLL IS
000466: 26,2022     4751               CALC3BIT           =        BIT3                                  #                                NECESSARY
000467:
000468:                                                                                                  #  BIT 2 FLAG 2 (S)
000469: 26,2022                        CALCMAN2           =        043D                                  #        PERFORM MANEUVER        BYPASS STARTING
000470: 26,2022     4752               CALC2BIT           =        BIT2                                  #        STARTING PROCEDURE      PROCEDURE
000471:
000472:                                                                                                  #  BIT 1 FLAG 2 (S)
000473: 26,2022                        NODOFLAG           =        044D                                  #        V37 NOT PERMITTED       V37 PERMITTED
000474: 26,2022     4753               NODOBIT            =        BIT1
000475:
000476: 26,2022     0077               FLAGWRD3           =        STATE      +3                         #  (045-059)
000477:
000478:                                                                                                  #        (SET)                   (RESET)
000479:
000480:                                                                                                  #  BIT 15 FLAG 3
000481:                                                                                                  #                =       045D
000482:
000483:                                                                                                  #  BIT 14 FLAG 3 (S)
000484: 26,2022                        GLOKFAIL           =        046D                                  #        GIMBAL LOCK HAS         NOT IN GIMBAL LOCK
000485: 26,2022     4736               GLOKFBIT           =        BIT14                                 #        OCCURRED
000486:
000487:                                                                                                  #  BIT 13 FLAG 3 *** PROTECTED FROM FRESH START ***
000488: 26,2022                        REFSMFLG           =        047D                                  #        REFSMMAT GOOD           REFSMMAT NO GOOD
000489: 26,2022     4737               REFSMBIT           =        BIT13
000490:
000491:                                                                                                  #  BIT 12 FLAG 3 (S)
000492: 26,2022                        LUNAFLAG           =        048D                                  #        LUNAR LAT-LONG          EARTH LAT-LONG
000493: 26,2022     4740               LUNABIT            =        BIT12
000494:
000495:                                                                                                  #  BIT 11 FLAG 3 (L)
000496: 26,2022                        NOR29FLG           =        049D                                  #        R29 NOT ALLOWED         R29 ALOWED (RR DES-
000497: 26,2022     4741               NR29FBIT           =        BIT11                                 #                                IGNATE, POWERED FLT)
000498:
000499:                                                                                                  #  BIT 10 FLAG 3 (S)
000500: 26,2022                        VFLAG              =        050D                                  #        LESS THAN TWO STARS     TWO STARS IN FIELD
000501: 26,2022     4742               VFLAGBIT           =        BIT10                                 #        IN FIELD OF VIEW        OF VIEW
000502:
000503:                                                                                                  #  BIT 9 FLAG 3  (S)
000504: 26,2022                        R04FLAG            =        051D                                  #        ALARM 521               ALARM 521 ALLOWED
000505:                                                                                                  #        SUPPRESSED


000507: 26,2022     4743               R04FLBIT           =        BIT9
000508:
000509:                                                                                                  #  BIT 9 FLAG 3  (L)
000510: 26,2022  0000063               READRFLG           =        R04FLAG                               #        READING RR DATA         NOT READING RR DATA
000511: 26,2022     4743               READRBIT           =        BIT9                                  #        PURSUANT TO R29         PURSUANT TO R29
000512:
000513:                                                                                                  #  BIT 8 FLAG 3  (S)
000514: 26,2022                        PRECIFLG           =        052D                                  #        NORMAL INTEGRATION      ENGAGES 4-TIME STEP
000515:                                                                                                  #        IN POO                  (POO) LOGIC IN INTE-
000516: 26,2022     4744               PRECIBIT           =        BIT8                                  #                                GRATION
000517:
000518:                                                                                                  #  BIT 7 FLAG 3  (S)
000519: 26,2022                        CULTFLAG           =        053D                                  #        STAR OCCULTED           STAR NOT OCCULTED
000520: 26,2022     4745               CULTBIT            =        BIT7
000521:
000522:                                                                                                  #  BIT 6 FLAG 3  (S)
000523: 26,2022                        ORBWFLAG           =        054D                                  #        W MATRIX VALID FOR      W MATRIX INVALID FOR
000524: 26,2022     4746               ORBWFBIT           =        BIT6                                  #        ORBITAL NAVIGATION      ORBITAL NAVIGATION
000525:
000526:                                                                                                  #  BIT 5 FLAG 3  (S)
000527: 26,2022                        STATEFLG           =        055D                                  #        PERMANENT STATE         PERMANENT STATE
000528: 26,2022     4747               STATEBIT           =        BIT5                                  #        VECTOR UPDATED          VECTOR NOT UPDATED
000529:
000530:                                                                                                  #  BIT 4 FLAG 3  (S)
000531: 26,2022                        INTYPFLG           =        056D                                  #        CONIC INTEGRATION       ENCKE INTEGRATION
000532: 26,2022     4750               INTYPBIT           =        BIT4
000533:
000534:                                                                                                  #  BIT 3 FLAG 3  (S)
000535: 26,2022                        VINTFLAG           =        057D                                  #        CSM STATE VECTOR        LEM STATE VECTOR
000536: 26,2022     4751               VINTFBIT           =        BIT3                                  #        BEING INTEGRATED        BEING INTEGRATED
000537:
000538:                                                                                                  #  BIT 2 FLAG 3 (S)
000539: 26,2022                        D6OR9FLG           =        058D                                  #        DIMENSION OF W IS 9     DIMENSION OF W IS 6
000540: 26,2022     4752               D6OR9BIT           =        BIT2                                  #        FOR INTEGRATION         FOR INTEGRATION
000541:
000542:                                                                                                  #  BIT 1 FLAG 3  (S)
000543: 26,2022                        DIM0FLAG           =        059D                                  #        W MATRIX IS TO BE       W MATRIX IS NOT TO
000544: 26,2022     4753               DIM0BIT            =        BIT1                                  #        USED                    BE USED
000545:
000546: 26,2022     0100               FLAGWRD4           =        STATE      +4                         #  (060-074)
000547:


000549:                                                                                                  #        (SET)                   (RESET)
000550:
000551:                                                                                                  #  BIT 15 FLAG 4 (S)
000552: 26,2022                        MRKIDFLG           =        060D                                  #        MARK DISPLAY IN         NO MARK DISPLAY IN
000553: 26,2022     4735               MRKIDBIT           =        BIT15                                 #        ENDIDLE                 ENDIDLE
000554:
000555:                                                                                                  #  BIT 14 FLAG 4 (S)
000556: 26,2022                        PRIODFLG           =        061D                                  #        PRIORITY DISPLAY IN     NO PRIORITY DISPLAY
000557: 26,2022     4736               PRIODBIT           =        BIT14                                 #        ENDIDLE                 IN ENDIDLE
000558:
000559:                                                                                                  #  BIT 13 FLAG 4 (S)
000560: 26,2022                        NRMIDFLG           =        062D                                  #        NORMAL DISPLAY IN       NO NORMAL DISPLAY
000561: 26,2022     4737               NRMIDBIT           =        BIT13                                 #        ENDIDLE                 IN ENDIDLE
000562:
000563:                                                                                                  #  BIT 12 FLAG 4 (S)
000564: 26,2022                        PDSPFLAG           =        063D                                  #        P20 SETS SO AS TO       LEAVE AS NORMAL DISP
000565:                                                                                                  #        TURN A NORMAL DIS-
000566: 26,2022     4740               PDSPFBIT           =        BIT12                                 #        PLAY INTO A PRIORITY
000567:                                                                                                  #        DISPLAY IN R60
000568:
000569:                                                                                                  #  BIT 11 FLAG 4 (S)
000570: 26,2022                        MWAITFLG           =        064D                                  #        HIGHER PRIORITY         NO HIGHER PRIORITY
000571:                                                                                                  #        DISPLAY OPERATING       DISPLAY OPERATING
000572: 26,2022     4741               MWAITBIT           =        BIT11                                 #        WHEN MARK DISPLAY       WHEN MARK DISPLAY
000573:                                                                                                  #        INITIATED               INITIATED
000574:
000575:                                                                                                  #  BIT 10 FLAG 4 (S)
000576: 26,2022                        NWAITFLG           =        065D                                  #        HIGHER PRIORITY         NO HIGHER PRIORITY
000577:                                                                                                  #        DISPLAY OPERATING       DISPLAY OPERATING
000578: 26,2022     4742               NWAITBIT           =        BIT10                                 #        WHEN NORMAL             WHEN NORMAL DISPLAY
000579:                                                                                                  #        DISPLAY INITIATED       INITIATED
000580:
000581:                                                                                                  #  BIT 9 FLAG 4  (S)
000582: 26,2022                        MRKNVFLG           =        066D                                  #        ASTRONAUT USING         ASTRONAUT NOT USING
000583:                                                                                                  #        KEYBOARD WHEN MARK      KEYBOARD WHEN MARK
000584: 26,2022     4743               MRKNVBIT           =        BIT9                                  #        DISPLAY INITIATED       DISPLAY INITIATED
000585:
000586:                                                                                                  #  BIT 8 FLAG 4  (S)
000587: 26,2022                        NRMNVFLG           =        067D                                  #        ASTRONAUT USING         ASTRONAUT NOT USING
000588:                                                                                                  #        KEYBOARD WHEN           KEYBOARD WHEN
000589: 26,2022     4744               NRMNVBIT           =        BIT8                                  #        NORMAL DISPLAY          NORMAL DISPLAY
000590:                                                                                                  #        INITIATED               INITIATED
000591:
000592:                                                                                                  #  BIT 7 FLAG 4  (S)
000593: 26,2022                        PRONVFLG           =        068D                                  #        ASTRONAUT USING         ASTRONAUT NOT USING
000594:


000596:                                                                                                  #        KEYBOARD WHEN           KEYBOARD WHEN
000597: 26,2022     4745               PRONVBIT           =        BIT7                                  #        PRIORITY DISPLAY        PRIORITY DISPLAY
000598:                                                                                                  #        INITIATED               INITIATED
000599:
000600:                                                                                                  #  BIT 6 FLAG 4  (S)
000601: 26,2022                        PINBRFLG           =        069D                                  #        ASTRONAUT HAS           ASTRONAUT HAS NOT
000602:                                                                                                  #        INTERFERED WITH         INTERFERED WITH
000603: 26,2022     4746               PINBRBIT           =        BIT6                                  #        EXISTING DISPLAY        EXISTING DISPLAY
000604:
000605:                                                                                                  #  BIT 5 FLAG 4  (S)
000606: 26,2022                        MRUPTFLG           =        070D                                  #        MARK DISPLAY            MARK DISPLAY NOT
000607:                                                                                                  #        INTERRUPTED BY          INTERRUPTED BY
000608: 26,2022     4747               MRUPTBIT           =        BIT5                                  #        PRIORITY DISPLAY        PRIORITY DISPLAY
000609:
000610:                                                                                                  #  BIT 4 FLAG 4  (S)
000611: 26,2022                        NRUPTFLG           =        071D                                  #        NORMAL DISPLAY          NORMAL DISPLAY NOT
000612:                                                                                                  #        INTERRUPTED BY          INTERRUPTED BY
000613: 26,2022     4750               NRUPTBIT           =        BIT4                                  #        PRIORITY OR MARK        PRIORITY OR MARK
000614:                                                                                                  #        DISPLAY                 DISPLAY
000615:
000616:                                                                                                  #  BIT 3 FLAG 4  (S)
000617: 26,2022                        MKOVFLAG           =        072D                                  #        MARK DISPLAY OVER       NO MARK DISPLAY OVER
000618: 26,2022     4751               MKOVBIT            =        BIT3                                  #        NORMAL                  NORMAL
000619:
000620:                                                                                                  #  BIT 2 FLAG 4
000621:                                                                                                  #                =       073D
000622:
000623:
000624:                                                                                                  #  BIT 1 FLAG 4  (S)
000625: 26,2022                        XDSPFLAG           =        074D                                  #        MARK DISPLAY NOT        NO SPECIAL MARK
000626: 26,2022     4753               XDSPBIT            =        BIT1                                  #        TO BE INTERRUPTED       INFORMATION
000627:
000628: 26,2022     0101               FLAGWRD5           =        STATE      +5                         #  (075-089)
000629:
000630:                                                                                                  #        (SET)                   (RESET)
000631:
000632:                                                                                                  #  BIT 15 FLAG 5 (S)
000633: 26,2022                        DSKYFLAG           =        075D                                  #        DISPLAYS SENT TO        NO DISPLAYS TO DSKY
000634: 26,2022     4735               DSKYFBIT           =        BIT15                                 #        DSKY
000635:
000636:                                                                                                  #  BIT 14 FLAG 5
000637:                                                                                                  #                =       076D
000638:                                                                                                  #                =       BIT14
000639:


000641:                                                                                                  #  BIT 13 FLAG 5 (S,L)
000642: 26,2022                        SNUFFER            =        077D                                  #        U,V JETS DISABLED       U,V JETS ENABLED
000643:                                                                                                  #        DURING DPS              DURING DPS
000644: 26,2022     4737               SNUFFBIT           =        BIT13                                 #        BURNS (V65)             BURNS (V75)
000645:
000646:                                                                                                  #  BIT 12 FLAG 5 (S)
000647: 26,2022                        NOTHROTL           =        078D                                  #        INHIBIT FULL            PERMIT FULL THROTTLE
000648: 26,2022     4740               NOTHRBIT           =        BIT12                                 #        THROTTLE
000649:
000650:                                                                                                  #  BIT 11 FLAG 5 (S,L)
000651: 26,2022                        R77FLAG            =        079D                                  #        R77 IS ON,              R77 IS NOT ON.
000652:                                                                                                  #        SUPPRESS ALL RADAR
000653:                                                                                                  #        ALARMS AND TRACKER
000654: 26,2022     4741               R77FLBIT           =        BIT11                                 #        FAILS
000655:
000656:                                                                                                  #  BIT 10 FLAG 5 (S)
000657: 26,2022                        RNGSCFLG           =        080D                                  #        SCALE CHANGE HAS        NO SCALE CHANGE HAS
000658:                                                                                                  #        OCCURRED DURING         OCCURRED DURING
000659: 26,2022     4742               RNGSCBIT           =        BIT10                                 #        RR READING              RR READING
000660:
000661:                                                                                                  #  BIT 9 FLAG 5  (S)
000662: 26,2022                        DMENFLG            =        081D                                  #        DIMENSION OF W IS 9     DIMENSION OF W IS 6
000663: 26,2022     4743               DMENFBIT           =        BIT9                                  #        FOR INCORPORATION       FOR INCORPORATION
000664:
000665:                                                                                                  #  BIT 8 FLAG 5  (S)
000666:                                                                                                  #                =       082D
000667:                                                                                                  #                =       BIT8
000668:
000669:                                                                                                  #  BIT 7 FLAG 5  (S)
000670: 26,2022                        ENGONFLG           =        083D                                  #        ENGINE TURNED ON        ENGINE TURNED OFF
000671: 26,2022     4745               ENGONBIT           =        BIT7                                  #
000672:
000673:                                                                                                  #  BIT 6 FLAG 5  (S)
000674: 26,2022                        3AXISFLG           =        084D                                  #        MANEUVER SPECIFIED      MANEUVER SPECIFIED
000675:                                                                                                  #        BY THREE AXES           BY ONE AXIS; R60
000676: 26,2022     4746               3AXISBIT           =        BIT6                                  #                                CALLS VECPOINT.
000677:
000678:                                                                                                  #  BIT 5 FLAG 5
000679:                                                                                                  #                =       085D
000680:
000681:                                                                                                  #  BIT 4 FLAG 5  (S)
000682:


000684: 26,2022                        NORRMON            =        086D                                  #        BYPASS RR GIMBAL        PERFORM
000685: 26,2022     4750               NORRMBIT           =        BIT4                                  #        MONITOR                 RR GIMBAL MONITOR
000686:
000687:                                                                                                  #  BIT 3 FLAG 5  (S)
000688: 26,2022                        SOLNSW             =        087D                                  #        LAMBERT DOES NOT        LAMBERT CONVERGES OR
000689:                                                                                                  #        CONVERGE, OR TIME-RAD   TIME-RADIUS NON
000690: 26,2022     4751               SOLNSBIT           =        BIT3                                  #        NEARLY CIRCULAR         CIRCULAR
000691:
000692:                                                                                                  #  BIT 2 FLAG 5  (S)
000693: 26,2022                        MGLVFLAG           =        088D                                  #        LOCAL VERTICAL          MIDDLE GIMBAL ANGLE
000694:                                                                                                  #        COORDINATES             COMPUTED
000695: 26,2022     4752               MGLVFBIT           =        BIT2                                  #        COMPUTED
000696:
000697:                                                                                                  #  BIT 1 FLAG 5  (S)
000698: 26,2022                        RENDWFLG           =        089D                                  #        W MATRIX VALID          W MATRIX INVALID
000699:                                                                                                  #        FOR RENDEZVOUS          FOR RENDEZVOUS
000700: 26,2022     4753               RENDWBIT           =        BIT1                                  #        NAVIGATION              NAVIGATION
000701:
000702:
000703: 26,2022     0102               FLAGWRD6           =        STATE      +6                         #  (090-104)
000704:
000705:                                                                                                  #        (SET)                   (RESET)
000706:
000707:                                                                                                  #  BIT 15 FLAG 6 (S)
000708: 26,2022                        S32.1F1            =        090D                                  #        DELTA V AT CSI TIME     DVT1 LESS THEN MAX
000709: 26,2022     4735               S32BIT1            =        BIT15                                 #        ONE EXCEEDS MAX
000710:
000711:                                                                                                  #  BIT 14 FLAG 6 (S)
000712: 26,2022                        S32.1F2            =        091D                                  #        FIRST PASS OF           REITERATION OF
000713: 26,2022     4736               S32BIT2            =        BIT14                                 #        NEWTON ITERATION        NEWTON
000714:
000715:                                                                                                  #  BIT 13 FLAG 6 (S)
000716: 26,2022                        S32.1F3A           =        092D                                  #  BIT 13 AND BIT 12 FUNCTION AS AN ORDERED
000717: 26,2022     4737               S32BIT3A           =        BIT13                                 #  PAIR (13,12) INDICATING THE POSSIBLE OC-
000718:                                                                                                  #  CURRANCE OF 2NEWTON ITERATIONS FOR S32.1
000719:                                                                                                  #  IN THE PROGRAM IN THE FOLLOWING ORDER:
000720:                                                                                                  #  BIT 12 FLAG 6                                   (0,1) (I.E. BIT 13 RESET, BIT 12 SET)
000721: 26,2022                        S32.1F3B           =        093D                                  #       = FIRST NEWTON ITERATION BEING DONE
000722: 26,2022     4740               S32BIT3B           =        BIT12                                 #  (0,0)= FIRST PASS OF SECOND NEWT.ITERAT.
000723:                                                                                                  #  (1,1)= 50 FT/SEC STAGE OF SEC. NEWT.ITER
000724:                                                                                                  #  (1,0)= REMAINDER OF SECOND NEWTON ITERA.
000725:                                                                                                  #  BIT 11 FLAG 6 (S)
000726:


000728:                                                                                                  #  BIT 10 FLAG 6 (S)
000729: 26,2022                        GMBDRVSW           =        095D                                  #        TRIMGIMB OVER           TRIMGIMB NOT OVER
000730: 26,2022     4742               GMBDRBIT           =        BIT10                                 #
000731:
000732:                                                                                                  #  BIT 9 FLAG 6
000733:                                                                                                  #                =       096D
000734:                                                                                                  #                =       BIT9
000735:
000736:                                                                                                  #  BIT 8 FLAG 6  (S)
000737: 26,2022                        MUNFLAG            =        097D                                  #        SERVICER CALLS          SERVICER CALLS
000738: 26,2022     4744               MUNFLBIT           =        BIT8                                  #        MUNRVG                  CALCRVG
000739:
000740:                                                                                                  #  BIT 7 FLAG 6  (L)
000741:
000742:
000743:                                                                                                  #  BIT 6 FLAG 6  (L)
000744: 26,2022                        REDFLAG            =        099D                                  #        LANDING SITE            LANDING SITE
000745:                                                                                                  #        REDESIGNATION           REDESIGNATION NOT
000746: 26,2022     4746               REDFLBIT           =        BIT6                                  #        PERMITTED               PERMITTED
000747:
000748:                                                                                                  #  BIT 5 FLAG 6
000749:                                                                                                  #                =       100D
000750:
000751:                                                                                                  #  BIT 4 FLAG 6
000752:                                                                                                  #                =       101D
000753:
000754:                                                                                                  #  BIT 3 FLAG 6  (S)
000755: 26,2022                        NTARGFLG           =        102D                                  #        ASTRONAUT DID           ASTRONAUT DID NOT
000756:                                                                                                  #        OVERWRITE DELTA         OVERWRITE DELTA
000757: 26,2022     4751               NTARGBIT           =        BIT3                                  #        VELOCITY AT TPI         VELOCITY
000758:                                                                                                  #        OR TPM (P34,35)
000759:
000760:                                                                                                  #  BIT 2 FLAG 6
000761: 26,2022                        AUXFLAG            =        103D                                  #        PROVIDING IDLEFLAG      SERVICER WILL SKIP
000762: 26,2022     4752               AUXFLBIT           =        BIT2                                  #        IS NOT SET, SERV-       DVMON ON ITS NEXT
000763:                                                                                                  #        ICER WILL EXERCISE      PASS EVEN IF THE
000764:                                                                                                  #        DVMON ON ITS NEXT       IDLEFLAG IS NOT SET.
000765:                                                                                                  #        PASS.                   IT WILL THEN SET
000766:                                                                                                  #                                AUXFLAG.
000767:
000768:                                                                                                  #  BIT 1 FLAG 6  (L)
000769: 26,2022                        ATTFLAG            =        104D                                  #        LEM ATTITUDE EXISTS     NO LEM ATTITUDE
000770:                                                                                                  #        IN MOON-FIXED           AVAILABLE IN MOON-
000771:


000773: 26,2022     4753               ATTFLBIT           =        BIT1                                  #        COORDINATES             FIXED COORDINATES
000774:
000775: 26,2022     0103               FLAGWRD7           =        STATE      +7                         #  (105-119)
000776:
000777:                                                                                                  #        (SET)                   (RESET)
000778:
000779:                                                                                                  #  BIT 15 FLAG 7 (S)
000780: 26,2022                        ITSWICH            =        105D                                  #        R34;TPI TIME TO BE      TPI HAS BEEN
000781: 26,2022     4735               ITSWBIT            =        BIT15                                 #        COMPUTED                COMPUTED
000782:
000783:                                                                                                  #  BIT 14 FLAG 7 (S)
000784: 26,2022                        MANUFLAG           =        106D                                  #        ATTITUDE MANEUVER       NO ATTITUDE MANEUVER
000785:                                                                                                  #        GOING DURING RR         DURING RR SEARCH
000786: 26,2022     4736               MANUFBIT           =        BIT14                                 #        SEARCH
000787:
000788:                                                                                                  #  BIT 13 FLAG 7 (S)
000789: 26,2022                        IGNFLAG            =        107D                                  #        TIG HAS ARRIVED         TIG HAS NOT ARRIVED
000790: 26,2022     4737               IGNFLBIT           =        BIT13                                 #
000791:
000792:                                                                                                  #  BIT 12 FLAG 7 (S)
000793: 26,2022                        ASTNFLAG           =        108D                                  #        ASTRONAUT HAS           ASTRONAUT HAS NOT
000794: 26,2022     4740               ASTNBIT            =        BIT12                                 #        OKAYED IGNITION         OKAYED IGNITION
000795:
000796:                                                                                                  #  BIT 11 FLAG 7 (L)
000797: 26,2022                        SWANDISP           =        109D                                  #        LANDING ANALOG          LANDING ANALOG
000798: 26,2022     4741               SWANDBIT           =        BIT11                                 #        DISPLAYS ENABLED        DISPLAYS SUPPRESSED
000799:
000800:                                                                                                  #  BIT 10 FLAG 7 (S)
000801: 26,2022                        NORMSW             =        110D                                  #        UNIT NORMAL INPUT       LAMBERT COMPUTES ITS
000802: 26,2022     4742               NORMSBIT           =        BIT10                                 #        TO LAMBERT              OWN UNIT NORMAL
000803:
000804:                                                                                                  #  BIT 9 FLAG 7  (S)
000805: 26,2022                        RVSW               =        111D                                  #        DO NOT COMPUTE          COMPUTE FINAL STATE
000806:                                                                                                  #        FINAL STATE VECTOR      VECTOR IN TIME-THETA
000807: 26,2022     4743               RVSWBIT            =        BIT9                                  #        IN TIME-THETA
000808:
000809:                                                                                                  #  BIT 8 FLAG 7  (S)
000810: 26,2022                        V67FLAG            =        112D                                  #        ASTRONAUT OVERWRITE     ASTRONAUT DOES NOT
000811:                                                                                                  #        W-MATRIX INITIAL        OVERWRITE W-MATRIX
000812: 26,2022     4744               V67FLBIT           =        BIT8                                  #        VALUES                  INITIAL VALUES
000813:


000815:                                                                                                  #  BIT 7 FLAG 7  (S)
000816: 26,2022                        IDLEFLAG           =        113D                                  #        NO DV MONITOR           CONNECT DV MONITOR
000817: 26,2022     4745               IDLEFBIT           =        BIT7                                  #
000818:
000819:                                                                                                  #  BIT 6 FLAG 7  (S)
000820: 26,2022                        V37FLAG            =        114D                                  #        AVERAGEG (SERVICER)     AVERAGEG (SERVICER)
000821: 26,2022     4746               V37FLBIT           =        BIT6                                  #        RUNNING                 OFF
000822:
000823:                                                                                                  #  BIT 5 FLAG 7  (S)
000824: 26,2022                        AVEGFLAG           =        115D                                  #        AVERAGEG (SERVICER)     AVERAGEG (SERVICER)
000825: 26,2022     4747               AVEGFBIT           =        BIT5                                  #        DESIRED                 NOT DESIRED
000826:
000827:                                                                                                  #  BIT 4 FLAG 7  (S)
000828: 26,2022                        UPLOCKFL           =        116D                                  #        K-KBAR-K FAIL           NO K-KBAR-K FAIL
000829: 26,2022     4750               UPLOCBIT           =        BIT4                                  #
000830:
000831:                                                                                                  #  BIT 3 FLAG 7  (S)
000832: 26,2022                        VERIFLAG           =        117D                                  #  CHANGED WHEN V33E OCCURS AT END OF P27
000833: 26,2022     4751               VERIFBIT           =        BIT3                                  #
000834:
000835:                                                                                                  #  BIT 2 FLAG 7  (L,C)
000836: 26,2022                        V82EMFLG           =        118D                                  #        MOON VICINITY           EARTH VICINITY
000837: 26,2022     4752               V82EMBIT           =        BIT2                                  #
000838:
000839:                                                                                                  #  BIT 1 FLAG 7  (S)
000840: 26,2022                        TFFSW              =        119D                                  #        CALCULATE TPERIGEE      CALCULATE TFF
000841: 26,2022     4753               TFFSWBIT           =        BIT1                                  #
000842:
000843:
000844: 26,2022     0104               FLAGWRD8           =        STATE      +8D                        #  (120-134)
000845:
000846:                                                                                                  #        (SET)                   (RESET)
000847:
000848:                                                                                                  #  BIT 15 FLAG 8 (S)
000849: 26,2022                        RPQFLAG            =        120D                                  #        RPQ NOT COMPUTED        RPQ COMPUTED
000850:                                                                                                  #        (RPQ = VECTOR BE-
000851: 26,2022     4735               RPQFLBIT           =        BIT15                                 #        TWEEN SECONDARY BODY
000852:                                                                                                  #        AND PRIMARY BODY
000853:
000854:                                                                                                  #  BIT 14 FLAG 8
000855:                                                                                                  #                =       121D
000856:                                                                                                  #                =       BIT14
000857:


000859:                                                                                                  #  BIT 13 FLAG 8 (S)
000860: 26,2022                        NEWIFLG            =        122D                                  #        FIRST PASS THROUGH      SUCCEEDING ITERATION
000861: 26,2022     4737               NEWIBIT            =        BIT13                                 #        INTEGRATION             OF INTEGRATION
000862:
000863:                                                                                                  #  BIT 12 FLAG 8 *** PROTECTED FROM FRESH START ***
000864: 26,2022                        CMOONFLG           =        123D                                  #        PERMANENT CSM STATE     PERMANENT CSM STATE
000865: 26,2022     4740               CMOONBIT           =        BIT12                                 #        IN LUNAR SPHERE         IN EARTH SPHERE
000866:
000867:                                                                                                  #  BIT 11 FLAG 8 *** PROTECTED FROM FRESH START ***
000868: 26,2022                        LMOONFLG           =        124D                                  #        PERMANENT LM STATE      PERMANENT LM STATE
000869: 26,2022     4741               LMOONBIT           =        BIT11                                 #        IN LUNAR SPHERE         IN EARTH SPHERE
000870:
000871:                                                                                                  #  BIT 10 FLAG 8 (L)
000872: 26,2022                        FLUNDISP           =        125D                                  #        CURRENT GUIDANCE        CURRENT GUIDANCE
000873: 26,2022     4742               FLUNDBIT           =        BIT10                                 #        DISPLAYS INHIBITED      DISPLAYS PERMITTED
000874:
000875:                                                                                                  #  BIT 9 FLAG 8  (L)
000876: 26,2022                        P39/79SW           =        126D                                  #        P39/79 OPERATING        P38/P78 OPERATING
000877: 26,2022     4743               P39SWBIT           =        BIT9                                  #
000878:
000879:                                                                                                  #  BIT 8 FLAG 8  *** PROTECTED FROM FRESH START ***
000880: 26,2022                        SURFFLAG           =        127D                                  #        LM ON LUNAR SURFACE     LM NOT ON LUNAR
000881: 26,2022     4744               SURFFBIT           =        BIT8                                  #                                SURFACE
000882:
000883:                                                                                                  #  BIT 7 FLAG 8  (S)
000884: 26,2022                        INFINFLG           =        128D                                  #        NO CONIC SOLUTION       CONIC SOLUTION
000885:                                                                                                  #        (CLOSURE THROUGH        EXISTS
000886: 26,2022     4745               INFINBIT           =        BIT7                                  #        INFINITY REQUIRED)
000887:
000888:                                                                                                  #  BIT 6 FLAG 8  (S)
000889: 26,2022                        ORDERSW            =        129D                                  #        ITERATOR USES 2ND       ITERATOR USES 1ST
000890: 26,2022     4746               ORDERBIT           =        BIT6                                  #        ORDER MINIMUM MODE      ORDER STANDARD MODE
000891:
000892:                                                                                                  #  BIT 5 FLAG 8  (S)
000893: 26,2022                        APSESW             =        130D                                  #        RDESIRED OUTSIDE        RDESIRED INSIDE
000894:                                                                                                  #        PERICENTER-APOCENTER    PERICENTER-APOCENTER
000895: 26,2022     4747               APSESBIT           =        BIT5                                  #        RANGE IN TIME-RADI      RANGE IN TIME-RADIUS
000896:
000897:                                                                                                  #  BIT 4 FLAG 8  (S)
000898: 26,2022                        COGAFLAG           =        131D                                  #        NO CONIC SOLUTION -     CONIC SOLUTION
000899:                                                                                                  #        TOO CLOSE TO RECTI-     EXISTS(COGA DOES NOT
000900:


000902: 26,2022     4750               COGAFBIT           =        BIT4                                  #        LINEAR (COGA OVRFLWS)   OVERFLOW)
000903:
000904:                                                                                                  #  BIT 3 FLAG 8
000905:                                                                                                  #                =       132D
000906:
000907:                                                                                                  #  BIT 2 FLAG 8  (L)
000908: 26,2022                        INITALGN           =        133D                                  #        INITIAL PASS THRU       SECOND PASS THRU P57
000909: 26,2022     4752               INITABIT           =        BIT2                                  #        P57                     (CHECK RESET-MILLARD)
000910:
000911:                                                                                                  #  BIT 1 FLAG 8  (S)
000912: 26,2022                        360SW              =        134D                                  #        TRANSFER ANGLE NEAR     TRANSFER ANGLE NOT
000913: 26,2022     4753               360SWBIT           =        BIT1                                  #        360 DEGREES             NEAR 360 DEGREES
000914:
000915:
000916: 26,2022     0105               FLAGWRD9           =        STATE      +9D                        #  (135-149)
000917:
000918:                                                                                                  #        (SET)                   (RESET)
000919:
000920:                                                                                                  #  BIT 15 FLAG 9
000921:                                                                                                  #                =       135D
000922:                                                                                                  #                =       BIT15
000923:
000924:                                                                                                  #  BIT 14 FLAG 9 (L)
000925: 26,2022                        FLVR               =        136D                                  #        VERTICAL RISE           NON-VERTICAL RISE
000926: 26,2022     4736               FLVRBIT            =        BIT14                                 #        (ASCENT GUIDANCE)
000927:
000928:                                                                                                  #  BIT 13 FLAG 9
000929:                                                                                                  #                =       137D
000930:
000931:                                                                                                  #  BIT 12 FLAG 9 (L)
000932: 26,2022                        FLPC               =        138D                                  #        NO POSITION CONTROL     POSITION CONTROL
000933: 26,2022     4740               FLPCBIT            =        BIT12                                 #        (ASCENT GUIDANCE)
000934:
000935:                                                                                                  #  BIT 11 FLAG 9 (L)
000936: 26,2022                        FLPI               =        139D                                  #        PRE-IGNITION PHASE      REGULAR GUIDANCE
000937: 26,2022     4741               FLPIBIT            =        BIT11                                 #        (ASCENT GUIDANCE)
000938:
000939:                                                                                                  #  BIT 10 FLAG 9 (L)
000940: 26,2022                        FLRCS              =        140D                                  #        RCS INJECTION MODE      MAIN ENGINE MODE
000941: 26,2022     4742               FLRCSBIT           =        BIT10                                 #        (ASCENT GUIDANCE)
000942:
000943:                                                                                                  #  BIT 9 FLAG 9  (L)
000944:


000946: 26,2022                        LETABORT           =        141D                                  #        ABORT PROGRAMS          ABORT PROGRAMS
000947: 26,2022     4743               LETABBIT           =        BIT9                                  #        ARE ENABLED             ARE NOT ENABLED
000948:
000949:                                                                                                  #  BIT 8 FLAG 9  (L)
000950: 26,2022                        FLAP               =        142D                                  #        APS CONTINUED ABORT     APS ABORT IS NOT A
000951:                                                                                                  #        AFTER DPS STAGING       CONTINUATION
000952: 26,2022     4744               FLAPBIT            =        BIT8                                  #        (ASCENT GUIDANCE)
000953:
000954:                                                                                                  #  BIT 7 FLAG 9  (L)
000955:                                                                                                  #                =       143D
000956:
000957:
000958:                                                                                                  #  BIT 6 FLAG 9  (L)
000959: 26,2022                        ROTFLAG            =        144D                                  #        P70 AND P71 WILL        P70 AND P71 WILL NOT
000960: 26,2022     4746               ROTFLBIT           =        BIT6                                  #        FORCE VEHICLE           FORCE VEHICLE
000961:                                                                                                  #        ROTATION IN THE         ROTATION IN THE
000962:                                                                                                  #        PREFERRED DIRECTION.    PREFERRED DIRECTION
000963:
000964:                                                                                                  #  BIT 5 FLAG 9  (S)
000965: 26,2022                        QUITFLAG           =        145D                                  #        DISCONTINUE INTEGR.     CONTINUE INTEGRATION
000966: 26,2022     4747               QUITBIT            =        BIT5                                  #
000967:
000968:                                                                                                  #  BIT 4 FLAG 9
000969:                                                                                                  #                =       146D
000970:                                                                                                  #                =       BIT4
000971:
000972:                                                                                                  #  BIT 3 FLAG 9  (L)
000973: 26,2022                        MID1FLAG           =        147D                                  #        INTEGRATE TO TDEC       INTEGRATE TO THE
000974: 26,2022     4751               MID1FBIT           =        BIT3                                  #                                THEN-PRESENT TIME
000975:
000976:                                                                                                  #  BIT 2 FLAG 9  (L)
000977: 26,2022                        MIDAVFLG           =        148D                                  #        INTEGRATION ENTERED     INTEGRATION WAS
000978:                                                                                                  #        FROM ONE OF MIDTOAV     NOT ENTERED VIA
000979: 26,2022     4752               MIDAVBIT           =        BIT2                                  #        PORTALS                 MIDTOAV
000980:
000981:                                                                                                  #  BIT 1 FLAG 9  (S)
000982: 26,2022                        AVEMIDSW           =        149D                                  #        AVETOMID CALLING        NO AVETOMID W INTEGR
000983:                                                                                                  #        FOR W.MATRIX INTEGR     ALLOW SET UP RM,VN.
000984: 26,2022     4753               AVEMDBIT           =        BIT1                                  #        DONT WRITE OVER RN,     PIPTIME
000985:                                                                                                  #        VN,PIPTIME
000986:
000987:
000988: 26,2022     0106               RASFLAG            EQUALS   FLGWRD10                              #  WAS ONLY AN INSTALL-ERASTALL FLAG
000989:


000991: 26,2022     0106               FLGWRD10           =        STATE      +10D                       #  (150-164)
000992:
000993:                                                                                                  #        (SET)                   (RESET)
000994:
000995:                                                                                                  #  BIT 15 FLAG 10
000996:                                                                                                  #                =       150D
000997:
000998:                                                                                                  #  BIT 14 FLAG 10 (L,C)
000999: 26,2022                        INTFLAG            =        151D                                  #        INTEGRATION IN          INTEGRATION NOT IN
001000: 26,2022     4736               INTFLBIT           =        BIT14                                 #        PROGRESS                PROGRESS
001001:
001002:                                                                                                  #  BIT 13 FLAG 10 (S,L)
001003: 26,2022                        APSFLAG            =        152D                                  #        ASCENT STAGE            DESCENT STAGE
001004: 26,2022     4737               APSFLBIT           =        BIT13                                 #         *** PROTECTED FROM FRESH START ***
001005:
001006:                                                                                                  #  BIT 12 FLAG 10
001007:                                                                                                  #                =       153D
001008:
001009:                                                                                                  #  BIT 11 FLAG 10
001010:                                                                                                  #                =       154D
001011:
001012:                                                                                                  #  BIT 10 FLAG 10
001013:                                                                                                  #                =       155D
001014:
001015:                                                                                                  #  BIT 9 FLAG 10
001016:                                                                                                  #                =       156D
001017:
001018:                                                                                                  #  BIT 8 FLAG 10
001019:                                                                                                  #                =       157D
001020:
001021:                                                                                                  #  BIT 7 FLAG 10 (L,C)
001022: 26,2022                        REINTFLG           =        158D                                  #        INTEGRATION ROUTINE     INTEGRATION ROUTINE
001023: 26,2022     4745               REINTBIT           =        BIT7                                  #        TO BE RESTARTED         NOT TO BE RESTARTED
001024:
001025:                                                                                                  #  BIT 6 FLAG 10
001026:                                                                                                  #                =       159D
001027:
001028:                                                                                                  #  BIT 5 FLAG 10
001029:                                                                                                  #                =       160D
001030:


001032:                                                                                                  #  BIT 4 FLAG 10
001033:                                                                                                  #                =       161D
001034:
001035:                                                                                                  #  BIT 3 FLAG 10
001036:                                                                                                  #                =       162D
001037:
001038:                                                                                                  #  BIT 2 FLAG 10
001039:                                                                                                  #                =       163D
001040:
001041:                                                                                                  #  BIT 1 FLAG 10
001042:                                                                                                  #                =       164D
001043:
001044:
001045:
001046: 26,2022     0107               FLGWRD11           =        STATE      +11D                       #  (165-179)
001047:
001048:                                                                                                  #        (SET)                   (RESET)
001049:
001050:                                                                                                  #  BIT 15 FLAG 11 (L)(R12)
001051: 26,2022                        LRBYPASS           =        165D                                  #        BYPASS ALL LANDING      DO NOT BYPASS LR
001052: 26,2022     4735               LRBYBIT            =        BIT15                                 #        RADAR UPDATES           UPDATES
001053:
001054:                                                                                                  #  BIT 14 FLAG 11
001055:                                                                                                  #                =       166D
001056:                                                                                                  #                =       BIT14
001057:
001058:                                                                                                  #                =       BIT 13 FLAG 11
001059:                                                                                                  #                =       167D
001060:                                                                                                  #                =       BIT13
001061:
001062:                                                                                                  #  BIT 12 FLAG 11 (L)(R12)
001063: 26,2022                        VXINH              =        168D                                  #        IF Z VELOCITY DATA      UPDATE X AXIS
001064:                                                                                                  #        UNREASONABLE,           VELOCITY
001065: 26,2022     4740               VXINHBIT           =        BIT12                                 #        BYPASS X VELOCITY
001066:                                                                                                  #        UPDATE ON NEXT PASS
001067:
001068:                                                                                                  #  BIT 11 FLAG 11 (L)(R12)
001069: 26,2022                        PSTHIGAT           =        169D                                  #        PAST HIGATE             PREHIGATE
001070: 26,2022     4741               PSTHIBIT           =        BIT11                                 #
001071:
001072:                                                                                                  #  BIT 10 FLAG 11 (L)(R12)
001073:


001075: 26,2022                        NOLRREAD           =        170D                                  #        LANDING RADAR           LR NOT REPOSITIONING
001076:                                                                                                  #        REPOSITIONING;
001077: 26,2022     4742               NOLRRBIT           =        BIT10                                 #        BYPASS UPDATE
001078:
001079:                                                                                                  #  BIT 9 FLAG 11 (L)(R12)
001080: 26,2022                        XORFLG             =        171D                                  #        BELOW LIMIT             ABOVE LIMIT DO
001081:                                                                                                  #        INHIBIT X AXIS          NOT INHIBIT
001082: 26,2022     4743               XORFLBIT           =        BIT9                                  #        OVERRIDE
001083:
001084:                                                                                                  #  BIT 8 FLAG 11
001085: 26,2022                        LRINH              =        172D                                  #        LANDING RADAR UP-       LR UPDATES INHIBITED
001086: 26,2022     4744               LRINHBIT           =        BIT8                                  #        DATES PERMITTED         BY ASTRONAUT
001087:                                                                                                  #        BY ASTRONAUT
001088:
001089:                                                                                                  #  BIT 7 FLAG 11 (L)(R12)
001090: 26,2022                        VELDATA            =        173D                                  #        LR VELOCITY             LR VELOCITY MEASURE
001091: 26,2022     4745               VELDABIT           =        BIT7                                  #        MEASUREMENT MADE        NOT MADE
001092:
001093:                                                                                                  #  BIT 6 FLAG 11 (L)(R12)
001094: 26,2022                        READLR             =        174D                                  #        OK TO READ LR           DO NOT READ LR RANGE
001095: 26,2022     4746               READLBIT           =        BIT6                                  #        RANGE DATA              DATA
001096:
001097:                                                                                                  #  BIT 5 FLAG 11 (L)(R12)
001098: 26,2022                        READVEL            =        175D                                  #        OK TO READ LR           DO NOT READ LR
001099: 26,2022     4747               READVBIT           =        BIT5                                  #        VELOCITY DATA           VELOCITY DATA
001100:
001101:                                                                                                  #  BIT 4 FLAG 11 (L)(R12)
001102: 26,2022                        RNGEDATA           =        176D                                  #        LR ALTITUDE             LR ALTITUDE MEASURE
001103: 26,2022     4750               RNGEDBIT           =        BIT4                                  #        MEASUREMENT MADE        NOT MADE
001104:
001105:                                                                                                  #  BIT 3 FLAG 11
001106: 26,2022                        SCALBAD            =        177D                                  #        LR LOW SCALE DIS-       LR SCALE DISCRETE
001107: 26,2022     4751               SCABBIT            =        BIT3                                  #        CRETE NOT PRESENT       APPEARS OK
001108:                                                                                                  #        WHEN IT SHOULD BE
001109:
001110:                                                                                                  #  BIT 2 FLAG 11 (L)(R12)
001111: 26,2022                        VFLSHFLG           =        178D                                  #        LR VELOCITY FAIL        LR VEL FAIL LAMP
001112:                                                                                                  #        LAMP SHOULD BE          SHOULDN'T FLASH
001113: 26,2022     4752               VFLSHBIT           =        BIT2                                  #        FLASHING
001114:
001115:                                                                                                  #  BIT 1 FLAG 11 (L)(R12)


001117: 26,2022                        HFLSHFLG           =        179D                                  #        LR ALTITUDE FAIL        LR ALTITUDE FAIL
001118: 26,2022     4753               HFLSHBIT           =        BIT1                                  #        LAMP SHOULD BE          LAMP SHOULD NOT BE
001119:                                                                                                  #        FLASHING                FLASHING
001120:
001121: 26,2022     0110               RADMODES           EQUALS   FLGWRD12                              #  RADAR FLAG WORD
001122:
001123: 26,2022     0110               FLGWRD12           =        STATE      +12D                       #  (180-194)             WAS RADMODES
001124:
001125:                                                                                                  #        (SET)                   (RESET)
001126:
001127:                                                                                                  #  BIT 15 FLAG 12
001128: 26,2022                        CDESFLAG           =        180D                                  #        CONTINUOUS DESIG-       LGC CHECKS FOR LOCK-
001129: 26,2022     4735               CDESBIT            =        BIT15                                 #        NATE. LGC COMMANDS      ON WHEN ANTENNA
001130:                                                                                                  #        RR REGARDLESS OF        BEING DESIGNATED
001131:                                                                                                  #        LOCK-ON
001132:
001133:                                                                                                  #  BIT 14 FLAG 12
001134: 26,2022                        REMODFLG           =        181D                                  #        CHANGE IN ANTENNA       NO REMODE REQUESTED
001135: 26,2022     4736               REMODBIT           =        BIT14                                 #        MODE BEEN REQUESTED     OR OCCURRING
001136:                                                                                                  #        I.E., REMODE
001137:
001138:                                                                                                  #  BIT 13 FLAG 12
001139: 26,2022                        RCDU0FLG           =        182D                                  #        RR CDU'S BEING          RR CDU'S NOT BEING
001140: 26,2022     4737               RCDU0BIT           =        BIT13                                 #        ZEROED                  ZEROED
001141:
001142:                                                                                                  #  BIT 12 FLAG 12
001143: 26,2022                        ANTENFLG           =        183D                                  #        RR ANTENNA MODE IS      RR ANTENNA IN MODE 1
001144: 26,2022     4740               ANTENBIT           =        BIT12                                 #        MODE 2
001145:
001146:                                                                                                  #  BIT 11 FLAG 12
001147: 26,2022                        REPOSMON           =        184D                                  #        REPOSITION MONITOR.     NO REPOSITION TAKING
001148: 26,2022     4741               REPOSBIT           =        BIT11                                 #        RR REPOSITION IS        PLACE
001149:                                                                                                  #        TAKING PLACE
001150:
001151:                                                                                                  #  BIT 10 FLAG 12
001152: 26,2022                        DESIGFLG           =        185D                                  #        RR DESIGNATE            RR DESIGNATE NOT
001153: 26,2022     4742               DESIGBIT           =        BIT10                                 #        REQUESTED OR IN         REQUESTED OR IN
001154:                                                                                                  #        PROGRESS                PROGRESS
001155:
001156:                                                                                                  #  BIT 9 FLAG 12
001157: 26,2022                        ALTSCALE           =        186D                                  #        LR ALTITUDE READING     LR ALTITUDE READING
001158: 26,2022     4743               ALTSCBIT           =        BIT9                                  #        IS ON HIGH SCALE        IS ON LOW SCALE
001159:


001161:                                                                                                  #  BIT 8 FLAG 12
001162: 26,2022                        LRVELFLG           =        187D                                  #        LR VELOCITY DATA        NO LR VELOCITY DATA
001163: 26,2022     4744               LRVELBIT           =        BIT8                                  #        FAIL                    FAIL
001164:
001165:                                                                                                  #  BIT 7 FLAG 12
001166: 26,2022                        RCDUFAIL           =        188D                                  #        RR CDU FAIL HAS         RR CDU FAIL OCCURRED
001167: 26,2022     4745               RCDUFBIT           =        BIT7                                  #        NOT OCCURRED
001168:
001169:                                                                                                  #  BIT 6 FLAG 12
001170: 26,2022                        LRPOSFLG           =        189D                                  #        LANDING RADAR           LR POSITION 1
001171: 26,2022     4746               LRPOSBIT           =        BIT6                                  #        POSITION 2
001172:
001173:                                                                                                  #  BIT 5 FLAG 12
001174: 26,2022                        LRALTFLG           =        190D                                  #        LR ALTITUDE DATA        NO LR ALTITUDE DATA
001175: 26,2022     4747               LRALTBIT           =        BIT5                                  #        FAIL.  COULD NOT BE     FAIL
001176:                                                                                                  #        READ SUCCESSFULLY.
001177:
001178:                                                                                                  #  BIT 4 FLAG 12
001179: 26,2022                        RRDATAFL           =        191D                                  #        RR DATA FAIL.           NO RR DATA FAIL.
001180: 26,2022     4750               RRDATABT           =        BIT4                                  #        DATA COULD NOT BE
001181:                                                                                                  #        READ SUCCESSFULLY
001182:
001183:                                                                                                  #  BIT 3 FLAG 12
001184: 26,2022                        RRRSFLAG           =        192D                                  #        RR RANGE READING        RR RANGE READING ON
001185: 26,2022     4751               RRRSBIT            =        BIT3                                  #        ON THE HIGH SCALE       THE LOW SCALE
001186:
001187:                                                                                                  #  BIT 2 FLAG 12
001188: 26,2022                        AUTOMODE           =        193D                                  #        RR NOT IN AUTO MODE.    RR IN AUTO MODE
001189: 26,2022     4752               AUTOMBIT           =        BIT2                                  #        AUTO MODE DISCRETE
001190:                                                                                                  #        IS NOT PRESENT
001191:
001192:                                                                                                  #  BIT 1 FLAG 12
001193: 26,2022                        TURNONFL           =        194D                                  #        RR TURN-ON SEQUENCE     NO RR TURN-ON
001194: 26,2022     4753               TURNONBT           =        BIT1                                  #        IN PROGRESS.  (ZERO     SEQUENCE IN PROGRESS
001195:                                                                                                  #        CDU'S, FIX ANTENNA
001196:                                                                                                  #        MODE)
001197:
001198: 26,2022     0111               DAPBOOLS           EQUALS   FLGWRD13                              #  DIGITAL AUTOPILOT FLAGWORD
001199:


001201: 26,2022     0111               FLGWRD13           =        STATE      +13D                       #  (195-209)     WAS DAPBOOLS
001202:
001203:                                                                                                  #        (SET)                   (RESET)
001204:
001205:                                                                                                  #  BIT 15 FLAG 13
001206: 26,2022                        PULSEFLG           =        195D                                  #        MINIMUM IMPULSE         NOT IN MINIMUM
001207: 26,2022     4735               PULSES             =        BIT15                                 #        COMMAND MODE IN         IMPULSE COMMAND MODE
001208:                                                                                                  #        "ATT HOLD" (V76)        (V77)
001209:
001210:                                                                                                  #  BIT 14 FLAG 13
001211: 26,2022                        USEQRFLG           =        196D                                  #        GIMBAL UNUSABLE.        TRIM GIMBAL MAY BE
001212: 26,2022     4736               USEQRJTS           =        BIT14                                 #        USE JETS ONLY.          USED.
001213:
001214:                                                                                                  #  BIT 13 FLAG 13
001215: 26,2022                        CSMDKFLG           =        197D                                  #        CSM DOCKED.  USE        CSM NOT DOCKED TO LM
001216: 26,2022     4737               CSMDOCKD           =        BIT13                                 #        BACKUP DAP
001217:
001218:                                                                                                  #  BIT 12 FLAG 13
001219: 26,2022                        OURRCFLG           =        198D                                  #        CURRENT DAP PASS        CURRENT DAP PASS IS
001220: 26,2022     4740               OURRCBIT           =        BIT12                                 #        IS RATE COMMAND         NOT RATE COMMAND
001221:
001222:                                                                                                  #  BIT 11 FLAG 13
001223: 26,2022                        ACC4-2FL           =        199D                                  #        4 JET X-AXIS TRANS-     2 JET X-AXIS TRANS-
001224: 26,2022     4741               ACC4OR2X           =        BIT11                                 #        LATION REQUESTED        LATION REQUESTED
001225:
001226:                                                                                                  #  BIT 10 FLAG 13
001227: 26,2022                        AORBTFLG           =        200D                                  #        B SYSTEM FOR X-         A SYSTEM FOR X-
001228: 26,2022     4742               AORBTRAN           =        BIT10                                 #        TRANSLATION             TRANSLATION PREFER'D
001229:
001230:                                                                                                  #  BIT 9 FLAG 13
001231: 26,2022                        XOVINFLG           =        201D                                  #        X-AXIS OVERRIDE         X-AXIS OVERRIDE OKAY
001232: 26,2022     4743               XOVINHIB           =        BIT9                                  #        LOCKED OUT
001233:
001234:                                                                                                  #  BIT 8 FLAG 13
001235: 26,2022                        DRIFTDFL           =        202D                                  #        ASSUME 0 OFFSET         USE OFFSET ACCELERA-
001236: 26,2022     4744               DRIFTBIT           =        BIT8                                  #        DRIFTING FLIGHT.        TION ESTIMATE
001237:
001238:                                                                                                  #  BIT 7 FLAG 13
001239: 26,2022                        RHCSCFLG           =        203D                                  #        NORMAL RHC SCALING      FINE RHC SCALING
001240: 26,2022     4745               RHCSCALE           =        BIT7                                  #        REQUESTED               REQUESTED
001241:


001243:                                                                                                  #  BIT 6 FLAG 13
001244: 26,2022                        ULLAGFLG           =        204D                                  #        ULLAGE REQUEST BY       NO INTERNAL ULLAGE
001245: 26,2022     4746               ULLAGER            =        BIT6                                  #        MISSION PROGRAM         REQUEST
001246:
001247:                                                                                                  #  BIT 5 FLAG 13
001248: 26,2022                        AORBSFLG           =        205D                                  #        P-AXIS COUPLES 7.15     P-AXIS COUPLES 4.12
001249: 26,2022     4747               AORBSYST           =        BIT5                                  #        AND 8,16 PREFERRED      AND 3,11 PREFERRED
001250:
001251:                                                                                                  #  BIT 4 FLAG 13
001252: 26,2022                        DBSELFLG           =        206D                                  #        MAX DB SELECTED         MIN DB SELECTED BY
001253: 26,2022     4750               DBSELECT           =        BIT4                                  #        BY CREW (5 DEG)         CREW (0.3 DEG)
001254:
001255:                                                                                                  #  BIT 3 FLAG 13
001256: 26,2022                        ACCOKFLG           =        207D                                  #        CONTROL AUTHORITY       RESTART OR FRESH ST.
001257: 26,2022     4751               ACCSOKAY           =        BIT3                                  #        VALUES FROM 1/ACCS      SINCE LAST 1/ACCS;
001258:                                                                                                  #        USABLE                  OUTPUTS SUSPECT.
001259:
001260:                                                                                                  #  BIT 2 FLAG 13
001261: 26,2022                        AUTR2FLG           =        208D                                  #  THESE FLAGS ARE USED TOGETHER TO INDICAT
001262: 26,2022     4752               AUTRATE2           =        BIT2                                  #  ASTRONAUT-CHOSEN KALCMANU MANEUVER RATES
001263:                                                                                                  #  (0,0)=(BIT2,BIT1)=    0.2 DEG/SEC
001264:                                                                                                  #  (0,1)=                0.5 DEG/SEC
001265:                                                                                                  #  BIT 1 FLAG 13
001266: 26,2022                        AUTR1FLG           =        209D                                  #  (1,0)=                2.0 DEG/SEC
001267: 26,2022     4753               AUTRATE1           =        BIT1                                  #  (1,1)=               10.0 DEG/SEC
001268:


001271:

End of include-file FLAGWORD_ASSIGNMENTS.agc.  Parent file is MAIN.agc


