
Source Code


000002:                                                                                                  ## Copyright:   Public domain.
000003:                                                                                                  ## Filename:    FLAGWORD_ASSIGNMENTS.agc
000004:                                                                                                  ## Purpose:     Part of the reconstructed source code for LMY99 Rev 0,
000005:                                                                                                  ##              otherwise known as Luminary Rev 99, the third release
000006:                                                                                                  ##              of the Apollo Guidance Computer (AGC) software for Apollo 11.
000007:                                                                                                  ##              It differs from LMY99 Rev 1 (the flown version) only in the
000008:                                                                                                  ##              placement of a single label. The corrections shown here have
000009:                                                                                                  ##              been verified to have the same bank checksums as AGC developer
000010:                                                                                                  ##              Allan Klumpp's copy of Luminary Rev 99, and so are believed
000011:                                                                                                  ##              to be accurate. This file is intended to be a faithful
000012:                                                                                                  ##              recreation, except that the code format has been changed to
000013:                                                                                                  ##              conform to the requirements of the yaYUL assembler rather than
000014:                                                                                                  ##              the original YUL assembler.
000015:                                                                                                  ##
000016:                                                                                                  ## Assembler:   yaYUL
000017:                                                                                                  ## Contact:     Onno Hommes <ohommes@cmu.edu>.
000018:                                                                                                  ## Website:     www.ibiblio.org/apollo.
000019:                                                                                                  ## Pages:       0061-0089
000020:                                                                                                  ## Mod history: 2009-05-15 OH   Transcribed from page images.
000021:                                                                                                  ##              2009-05-17 RSB  Extended to (blank) p. 89.
000022:                                                                                                  ##              2010-12-31 JL   Fixed page number comment.
000023:                                                                                                  ##              2016-12-13 RSB  Proofed text comments with octopus/ProoferComments
000024:                                                                                                  ##                              and corrected the errors found.
000025:                                                                                                  ##              2017-03-02 RSB  Comment-text fixes identified whilst
000026:                                                                                                  ##                              proofing Luminary 116.
000027:                                                                                                  ##              2017-03-15 RSB  Comment-text fixes identified in 5-way
000028:                                                                                                  ##                              side-by-side diff of Luminary 69/99/116/131/210.
000029:                                                                                                  ##              2017-08-01 MAS  Created from LMY99 Rev 1.
000030:                                                                                                  ##              2017-08-14 MAS  Fixed a typo found while transcribing Zerlina 56.
000031:
000032:                                                                                                  ## This source code has been transcribed or otherwise adapted from
000033:                                                                                                  ## digitized images of a hardcopy from the MIT Museum.  The digitization
000034:                                                                                                  ## was performed by Paul Fjeld, and arranged for by Deborah Douglas of
000035:                                                                                                  ## the Museum.  Many thanks to both.  The images (with suitable reduction
000036:                                                                                                  ## in storage size and consequent reduction in image quality as well) are
000037:                                                                                                  ## available online at www.ibiblio.org/apollo.  If for some reason you
000038:                                                                                                  ## find that the images are illegible, contact me at info@sandroid.org
000039:                                                                                                  ## about getting access to the (much) higher-quality images which Paul
000040:                                                                                                  ## actually created.
000041:                                                                                                  ##
000042:                                                                                                  ## The code has been modified to match LMY99 Revision 0, otherwise
000043:                                                                                                  ## known as Luminary Revision 99, the Apollo 11 software release preceeding
000044:                                                                                                  ## the listing from which it was transcribed. It has been verified to
000045:                                                                                                  ## contain the same bank checksums as AGC developer Allan Klumpp's listing
000046:                                                                                                  ## of Luminary Revision 99 (for which we do not have scans).
000047:                                                                                                  ##
000048:                                                                                                  ## Notations on Allan Klumpp's listing read, in part:
000049:                                                                                                  ##
000050:                                                                                                  ##      ASSEMBLE REVISION 099 OF AGC PROGRAM LUMINARY BY NASA 2021112-51
000051:


000053:                                                                                                  #  FLAGWORDS 0-11        ARE DOWNLINKED AND CAN BE SET AND CLEARED BY UP-FLAG AND DOWN-FLAG INSTRUCTIONS IN THE
000054:                                                                                                  #                        INTERPRETER.  THESE WERE PREVIOUSLY LISTED UNDER "INTERPRETIVE SWITCH BIT ASSIGNMENTS" IN
000055:                                                                                                  #                        THE ERASABLE LOG SECTION.  FLAGWORDS 12 & 13 WERE PREVIOUSLY RADMODES AND DAPBOOLS AND
000056:                                                                                                  #                        ARE STILL DOWNLINKED UNDER THOSE NAMES.
000057:
000058:                                                                                                  #                ALPHABETICAL LIST OF FLAGWORDS
000059:
000060:
000061:                                                                                                  #  FLAGWORD      DEC. NUMBER     BIT AND FLAG            BIT NAME
000062:
000063:                                                                                                  #  ACCOKFLG      207             BIT  3 FLAG 13          ACCSOKAY
000064:                                                                                                  #  ACC4-2FL      199             BIT 11 FLAG 13          ACC4OR2X
000065:                                                                                                  #  ACMODFLG      032             BIT 13 FLAG  2          ACMODBIT
000066:                                                                                                  #  ALTSCALE      186             BIT  9 FLAG 12          ALTSCBIT
000067:                                                                                                  #  ANTENFLG      183             BIT 12 FLAG 12          ANTENBIT
000068:                                                                                                  #  AORBSFLG      205             BIT  5 FLAG 13          AORBSYST
000069:                                                                                                  #  AORBTFLG      200             BIT 10 FLAG 13          AORBTRAN
000070:                                                                                                  #  APSESW        130             BIT  5 FLAG  8          APSESBIT
000071:                                                                                                  #  APSFLAG       152             BIT 13 FLAG 10          APSFLBIT
000072:                                                                                                  #  ASTNFLAG      108             BIT 12 FLAG  7          ASTNBIT
000073:                                                                                                  #  ATTFLAG       104             BIT  1 FLAG  6          ATTFLBIT
000074:                                                                                                  #  AUTOMODE      193             BIT  2 FLAG 12          AUTOMBIT
000075:                                                                                                  #  AUTR1FLG      209             BIT  1 FLAG 13          AUTRATE1
000076:                                                                                                  #  AUTR2FLG      208             BIT  2 FLAG 13          AUTRATE2
000077:                                                                                                  #  AUXFLAG       103             BIT  2 FLAG  6          AUXFLBIT
000078:                                                                                                  #  AVEGFLAG      115             BIT  5 FLAG  7          AVEGFBIT
000079:                                                                                                  #  AVEMIDSW      149             BIT  1 FLAG  9          AVEMDBIT
000080:                                                                                                  #  AVFLAG        040             BIT  5 FLAG  2          AVFLBIT
000081:                                                                                                  #  CALCMAN2      043             BIT  2 FLAG  2          CALC2BIT
000082:                                                                                                  #  CALCMAN3      042             BIT  3 FLAG  2          CALC3BIT
000083:                                                                                                  #  CDESFLAG      180             BIT 15 FLAG 12          CDESBIT
000084:                                                                                                  #  CMOONFLG      123             BIT 12 FLAG  8          CMOONBIT
000085:                                                                                                  #  COGAFLAG      131             BIT  4 FLAG  8          COGAFBIT
000086:                                                                                                  #  CSMDKFLG      197             BIT 13 FLAG 13          CSMDOCKD
000087:                                                                                                  #  CULTFLAG      053             BIT  7 FLAG  3          CULTBIT
000088:                                                                                                  #  DAPBOOLS                      FLGWRD13
000089:                                                                                                  #  DBSELFLG      206             BIT  4 FLAG 13          DBSELECT
000090:                                                                                                  #  DESIGFLG      185             BIT 10 FLAG 12          DESIGBIT
000091:                                                                                                  #  DIDFLAG       016             BIT 14 FLAG             DIDFLBIT
000092:                                                                                                  #  DIMOFLAG      059             BIT  1 FLAG  3          DIMOBIT
000093:                                                                                                  #  DMENFLG       081             BIT  9 FLAG  5          DMENFBIT
000094:                                                                                                  #  DRIFTDFL      202             BIT  8 FLAG 13          DRIFTBIT
000095:                                                                                                  #  DRIFTFLG      030             BIT 15 FLAG  2          DRFTBIT
000096:                                                                                                  #  DSKYFLAG      075             BIT 15 FLAG  5          DSKYFBIT


000098:                                                                                                  #  D6OR9FLG      058             BIT  2 FLAG  3          D6OR9BIT
000099:                                                                                                  #  ENGONFLG      083             BIT  7 FLAG  5          ENGONBIT
000100:                                                                                                  #  ERADFLAG      017             BIT 13 FLAG  1          ERADFBIT
000101:                                                                                                  #  ETPIFLAG      038             BIT  7 FLAG  2          ETPIBIT         EQUIVALENT FLAG NAME: OPTNSW
000102:                                                                                                  #  FINALFLG      039             BIT  6 FLAG  2          FINALBIT
000103:                                                                                                  #  FLAGWRD0      (000-014)       (STATE +0)
000104:                                                                                                  #  FLAGWRD1      (015-029)       (STATE +1)
000105:                                                                                                  #  FLAGWRD2      (030-044)       (STATE +2)
000106:                                                                                                  #  FLAGWRD3      (045-059)       (STATE +3)
000107:                                                                                                  #  FLAGWRD4      (060-074)       (STATE +4)
000108:                                                                                                  #  FLAGWRD5      (075-089)       (STATE +5)
000109:                                                                                                  #  FLAGWRD6      (090-104)       (STATE +6)
000110:                                                                                                  #  FLAGWRD7      (105-119)       (STATE +7)
000111:                                                                                                  #  FLAGWRD8      (120-134)       (STATE +8D)
000112:                                                                                                  #  FLAGWRD9      (135-149)       (STATE +9D)
000113:                                                                                                  #  FLAP          142             BIT  8 FLAG  9          FLAPBIT
000114:                                                                                                  #  FLGWRD10      (150-164)       (STATE +10D)
000115:                                                                                                  #  FLGWRD11      (165-179)       (STATE +11D)
000116:                                                                                                  #  FLGWRD12      (180-194)       (STATE +12D)
000117:                                                                                                  #  FLGWRD13      (195-209)       (STATE +13D)
000118:                                                                                                  #  FLPC          138             BIT 12 FLAG  9          FLPCBIT
000119:                                                                                                  #  FLPI          139             BIT 11 FLAG  9          FLPIBIT
000120:                                                                                                  #  FLRCS         149             BIT 10 FLAG  9          FLRCSBIT
000121:                                                                                                  #  FLUNDISP      125             BIT 10 FLAG  8          FLUNDBIT
000122:                                                                                                  #  FLVR          136             BIT 14 FLAG  9          FLVRBIT
000123:                                                                                                  #  FREEFLAG      012             BIT  3 FLAG  0          FREEFBIT
000124:                                                                                                  #  FSPASFLG      005             BIT 10 FLAG  0          FSPASBIT
000125:                                                                                                  #  GLOKFAIL      046             BIT 14 FLAG  3          GLOKFBIT
000126:                                                                                                  #  GMBDRVSW      095             BIT 10 FLAG  6          GMBDRBIT
000127:                                                                                                  #  GUESSW        028             BIT  2 FLAG  1          GUESSBIT
000128:                                                                                                  #  HFLSHFLG      179             BIT  1 FLAG 11          HFLSHBIT
000129:                                                                                                  #  IDLEFLAG      113             BIT  7 FLAG  7          IDLEFBIT
000130:                                                                                                  #  IGNFLAG       107             BIT 13 FLAG  7          IGNFLBIT
000131:                                                                                                  #  IMPULSW       036             BIT  9 FLAG  2          IMPULBIT
000132:                                                                                                  #  IMUSE         007             BIT  8 FLAG  0          IMUSEBIT
000133:                                                                                                  #  INFINFLG      128             BIT  7 FLAG  8          INFINBIT
000134:                                                                                                  #  INITALGN      133             BIT  2 FLAG  8          INITABIT
000135:                                                                                                  #  INTFLAG       151             BIT 14 FLAG 10          INTFLBIT
000136:                                                                                                  #  INTYPFLG      056             BIT  4 FLAG  3          INTYPBIT
000137:                                                                                                  #  ITSWICH       105             BIT 15 FLAG  7          ITSWBIT
000138:                                                                                                  #  JSWITCH       001             BIT 14 FLAG  0          JSWCHBIT
000139:                                                                                                  #  LETABORT      141             BIT  9 FLAG  9          LETABBIT
000140:                                                                                                  #  LMOONFLG      124             BIT 11 FLAG  8          LMOONBIT
000141:                                                                                                  #  LOKONSW       010             BIT  5 FLAG  0          LOKONBIT
000142:                                                                                                  #  LOSCMFLG      033             BIT 12 FLAG  2          LOSCMBIT
000143:                                                                                                  #  LRALTFLG      190             BIT  5 FLAG 12          LRALTBIT
000144:                                                                                                  #  LRBYPASS      165             BIT 15 FLAG 11          LRBYBIT
000145:                                                                                                  #  LRINH         172             BIT  8 FLAG 11          LRINHBIT
000146:                                                                                                  #  LRPOSFLG      189             BIT  6 FLAG 12          LRPOSBIT
000147:                                                                                                  #  LRVELFLG      187             BIT  8 FLAG 12          LRVELBIT


000149:                                                                                                  #  LUNAFLAG      048             BIT 12 FLAG  3          LUNABIT
000150:                                                                                                  #  MANUFLAG      106             BIT 14 FLAG  7          MANUFBIT
000151:                                                                                                  #  MGLVFLAG      088             BIT  2 FLAG  5          MGLVFBIT
000152:                                                                                                  #  MIDAVFLG      148             BIT  2 FLAG  9          MIDAVBIT
000153:                                                                                                  #  MIDFLAG       002             BIT 13 FLAG  0          MIDFLBIT
000154:                                                                                                  #  MID1FLAG      147             BIT  3 FLAG  9          MID1BIT
000155:                                                                                                  #  MKOVFLAG      072             BIT  3 FLAG  4          MKOVBIT
000156:                                                                                                  #  MOONFLAG      003             BIT 12 FLAG  0          MOONBIT
000157:                                                                                                  #  MRKIDFLG      060             BIT 15 FLAG  4          MRKIDBIT
000158:                                                                                                  #  MRKNVFLG      066             BIT  9 FLAG  4          MRKNVBIT
000159:                                                                                                  #  MRUPTFLG      070             BIT  5 FLAG  4          MRUPTBIT
000160:                                                                                                  #  MUNFLAG       097             BIT  8 FLAG  6          MUNFLBIT
000161:                                                                                                  #  MWAITFLG      064             BIT 11 FLAG  4          MWAITBIT
000162:                                                                                                  #  NEEDLFLG      011             BIT  4 FLAG  0          NEEDLBIT
000163:                                                                                                  #  NEWIFLG       122             BIT 13 FLAG  8          NEWIBIT
000164:                                                                                                  #  NJETSFLG      015             BIT 15 FLAG             NJETSBIT
000165:                                                                                                  #  NODOFLAG      044             BIT  1 FLAG  2          NODOBIT
000166:                                                                                                  #  NOLRREAD      170             BIT 10 FLAG 11          NOLRRBIT
000167:                                                                                                  #  NORMSW        110             BIT 10 FLAG  7          NORMSBIT
000168:                                                                                                  #  NORRMON       086             BIT  4 FLAG  5          NORRMBIT
000169:                                                                                                  #  NOR29FLG      049             BIT 11 FLAG  3          NR29FBIT
000170:                                                                                                  #  NOTHROTL      078             BIT 12 FLAG  5          NOTHRBIT
000171:                                                                                                  #  NOUPFLAG      024             BIT  6 FLAG  1          NOUPFBIT
000172:                                                                                                  #  NRMNVFLG      067             BIT  8 FLAG  4          NRMNVBIT
000173:                                                                                                  #  NRMIDFLG      062             BIT 13 FLAG  4          NRMIDBIT
000174:                                                                                                  #  NRUPTFLG      071             BIT  4 FLAG  4          NRUPTBIT
000175:                                                                                                  #  NTARGFLG      102             BIT  3 FLAG  6          NTARGBIT
000176:                                                                                                  #  NWAITFLG      065             BIT 10 FLAG  4          NWAITBIT
000177:                                                                                                  #  OLDESFLG      014             BIT  1 FLAG  0          OLDESBIT
000178:                                                                                                  #  OPTNSW        038             BIT  7 FLAG  2          OPTNBIT         EQUIVALENT FLAG NAME: ETPIFLAG
000179:                                                                                                  #  ORBWFLAG      054             BIT  6 FLAG  3          ORBWFBIT
000180:                                                                                                  #  ORDERSW       129             BIT  6 FLAG  8          ORDERBIT
000181:                                                                                                  #  OURRCFLG      198             BIT 12 FLAG 13          OURRCBIT
000182:                                                                                                  #  PDSPFLAG      063             BIT 12 FLAG  4          PDSPFBIT
000183:                                                                                                  #  PFRATFLG      041             BIT  4 FLAG  2          PFRATBIT
000184:                                                                                                  #  PINBRFLG      069             BIT  6 FLAG  4          PINBRBIT
000185:                                                                                                  #  PRECIFLG      052             BIT  8 FLAG  3          PRECIBIT
000186:                                                                                                  #  PRIODFLG      061             BIT 14 FLAG  1          PRIODBIT
000187:                                                                                                  #  PRONVFLG      068             BIT  7 FLAG  4          PRONVBIT
000188:                                                                                                  #  PSTHIGAT      169             BIT 11 FLAG 11          PSTHIBIT
000189:                                                                                                  #  PULSEFLG      195             BIT 15 FLAG 13          PULSES
000190:                                                                                                  #  P21FLAG       004             BIT 11 FLAG  0          P21FLBIT
000191:                                                                                                  #  P25FLAG       006             BIT  9 FLAG  0          P25FLBIT
000192:                                                                                                  #  P39/79SW      126             BIT  9 FLAG  8          P39SWBIT
000193:                                                                                                  #  QUITFLAG      145             BIT 5 FLAG 9            QUITBIT
000194:                                                                                                  #  RADMODES                      FLGWRD12
000195:                                                                                                  #  RASFLAG                       FLGWRD10
000196:                                                                                                  #  RCDUFAIL      188             BIT  7 FLAG 12          RCDUFBIT
000197:                                                                                                  #  RCDU0FLG      182             BIT 13 FLAG 12          RCDU0BIT
000198:                                                                                                  #  READLR        174             BIT  6 FLAG 11          READLBIT


000200:                                                                                                  #  READRFLG      051             BIT  9 FLAG  3          READRBIT        EQUIVALENT FLAG NAME:  R04FLAG
000201:                                                                                                  #  READVEL       175             BIT  5 FLAG 11          READVBIT
000202:                                                                                                  #  REDFLAG       099             BIT  6 FLAG  6          REDFLBIT
000203:                                                                                                  #  REFSMFLG      047             BIT 13 FLAG  3          REFSMBIT
000204:                                                                                                  #  REINTFLG      158             BIT  7 FLAG 10          REINTBIT
000205:                                                                                                  #  REMODFLG      181             BIT 14 FLAG 12          REMODBIT
000206:                                                                                                  #  RENDWFLG      089             BIT  1 FLAG  5          RENDWBIT
000207:                                                                                                  #  REPOSMON      184             BIT 11 FLAG 12          REPOSBIT
000208:                                                                                                  #  RHCSCFLG      203             BIT  7 FLAG 13          RHCSCALE
000209:                                                                                                  #  RNDVZFLG      008             BIT  7 FLAG  0          RNDVZBIT
000210:                                                                                                  #  RNGEDATA      176             BIT  4 FLAG 11          RNGEDBIT
000211:                                                                                                  #  RNGSCFLG      080             BIT 10 FLAG  5          RNGSCBIT
000212:                                                                                                  #  RODFLAG       018             BIT 12 FLAG  1          RODFLBIT
000213:                                                                                                  #  ROTFLAG       144             BIT  6 FLAG  9          ROTFLBIT
000214:                                                                                                  #  RPQFLAG       120             BIT 15 FLAG  8          RPQFLBIT
000215:                                                                                                  #  RRDATAFL      191             BIT  4 FLAG 12          RRDATABT
000216:                                                                                                  #  RRNBSW        009             BIT  6 FLAG  0          RRNBBIT
000217:                                                                                                  #  RRRSFLAG      192             BIT  3 FLAG 12          RRRSBIT
000218:                                                                                                  #  RVSW          111             BIT  9 FLAG  7          RVSWBIT
000219:                                                                                                  #  R04FLAG       051             BIT  9 FLAG  3          R04FLBIT        EQUIVALENT FLAG NAME:  READRFLG
000220:                                                                                                  #  R10FLAG       013             BIT  2 FLAG  0          R10FLBIT
000221:                                                                                                  #  R61FLAG       020             BIT 10 FLAG  1          R61FLBIT
000222:                                                                                                  #  R77FLAG       079             BIT 11 FLAG  5          R77FLBIT
000223:                                                                                                  #  SCALBAD       177             BIT  3 FLAG 11          SCABBIT
000224:                                                                                                  #  SLOPESW       027             BIT  3 FLAG  1          SLOPEBIT
000225:                                                                                                  #  SNUFFER       077             BIT 13 FLAG  5          SNUFFBIT
000226:                                                                                                  #  SOLNSW        087             BIT  3 FLAG  5          SOLNSBIT
000227:                                                                                                  #  SRCHOPTN      031             BIT 14 FLAG  2          SRCHOBIT
000228:                                                                                                  #  STATEFLG      055             BIT  5 FLAG  3          STATEBIT
000229:                                                                                                  #  STEERSW       034             BIT 11 FLAG  2          STEERBIT
000230:                                                                                                  #  SURFFLAG      127             BIT  8 FLAG  8          SURFFBIT
000231:                                                                                                  #  SWANDISP      109             BIT 11 FLAG  7          SWANDBIT
000232:                                                                                                  #  S32.1F1       090             BIT 15 FLAG  6          S32BIT1
000233:                                                                                                  #  S32.1F2       092             BIT 14 FLAG  6          S32BIT2
000234:                                                                                                  #  S32.1F3A      092             BIT 13 FLAG  6          S32BIT3A
000235:                                                                                                  #  S32.1S3B      093             BIT 12 FLAG  6          S32BIT3B
000236:                                                                                                  #  TFFSW         119             BIT  1 FLAG  7          TFFSWBIT
000237:                                                                                                  #  TRACKFLG      025             BIT  5 FLAG  1          TRACKBIT
000238:                                                                                                  #  TURNONFL      194             BIT  1 FLAG 12          TURNONBT
000239:                                                                                                  #  ULLAGFLG      204             BIT  6 FLAG 13          ULLAGER
000240:                                                                                                  #  UPDATFLG      023             BIT  7 FLAG  1          UPDATBIT
000241:                                                                                                  #  UPLOCKFL      116             BIT  4 FLAG 7           UPLOCBIT
000242:                                                                                                  #  USEQRFLG      196             BIT 14 FLAG 13          USEQRJTS
000243:                                                                                                  #  VEHUPFLG      022             BIT  8 FLAG  1          VEHUPBIT
000244:                                                                                                  #  VELDATA       173             BIT  7 FLAG 11          VELDABIT
000245:                                                                                                  #  VERIFLAG      117             BIT  3 FLAG  7          VERIFBIT
000246:                                                                                                  #  VFLAG         050             BIT 10 FLAG  3          VFLAGBIT
000247:                                                                                                  #  VFLSHFLG      178             BIT  2 FLAG 11          VFLSHBIT
000248:                                                                                                  #  VINTFLAG      057             BIT  3 FLAG  3          VINTFBIT
000249:                                                                                                  #  VXINH         168             BIT 12 FLAG 11          VXINHBIT


000251:                                                                                                  #  V37FLAG       114             BIT  6 FLAG  7          V37FLBIT
000252:                                                                                                  #  V67FLAG       112             BIT  8 FLAG  7          V67FLBIT
000253:                                                                                                  #  V82EMFLG      118             BIT  2 FLAG  7          V82EMBIT
000254:                                                                                                  #  XDELVFLG      037             BIT  8 FLAG  2          XDELVBIT
000255:                                                                                                  #  XDSPFLAG      074             BIT  1 FLAG  4          XDSPBIT
000256:                                                                                                  #  XORFLG        171             BIT  9 FLAG 11          XORFLBIT
000257:                                                                                                  #  XOVINFLG      201             BIT  9 FLAG 13          XOVINHIB
000258:                                                                                                  #  3AXISFLG      084             BIT  6 FLAG  5          3AXISBIT
000259:                                                                                                  #  360SW         134             BIT  1 FLAG  8          360SWBIT
000260:
000261:                                                                                                  #  ASSIGNMENT AND DESCRIPTION OF FLAGWORDS
000262:
000263: 26,2022     0074               FLAGWRD0           =        STATE      +0                         #  (000-014)
000264:
000265:                                                                                                  #        (SET)                   (RESET)
000266:
000267:                                                                                                  #  BIT 15 FLAG 0 (S)
000268:                                                                                                  #                =       000D
000269:                                                                                                  #                =       BIT15
000270:
000271:                                                                                                  #  BIT 14 FLAG 0 (S)
000272: 26,2022                        JSWITCH            =        001D                                  #        INTEGRATION OF W        INTEGRATION OF STATE
000273: 26,2022     4736               JSWCHBIT           =        BIT14                                 #        MATRIX                  VECTOR
000274:
000275:                                                                                                  #  BIT 13 FLAG 0 (S)
000276: 26,2022                        MIDFLAG            =        002D                                  #        INTEGRATION WITH        INTEGRATION WITHOUT
000277:                                                                                                  #        SECONDARY BODY AND      SOLAR PERTURBATIONS
000278: 26,2022     4737               MIDFLBIT           =        BIT13                                 #        SOLAR PERTURBATIONS
000279:
000280:                                                                                                  #  BIT 12 FLAG 0 (L)
000281: 26,2022                        MOONFLAG           =        003D                                  #        MOON IS SPHERE OF       EARTH IS SPHERE OF
000282: 26,2022     4740               MOONBIT            =        BIT12                                 #        INFLUENCE               INFLUENCE
000283:
000284:                                                                                                  #  BIT 11 FLAG 0
000285: 26,2022                        P21FLAG            =        004D                                  #        USE BASE VECTORS        1ST PASS -- CALC-
000286: 26,2022     4741               P21FLBIT           =        BIT11                                 #        ALREADY CALCULATED      ULATE BASE VECTORS
000287:
000288:                                                                                                  #  BIT 10 FLAG 0
000289: 26,2022                        FSPASFLG           =        005D                                  #        FIRST PASS THROUGH      NOT FIRST PASS THRU
000290: 26,2022     4742               FSPASBIT           =        BIT10                                 #        REPOSITION ROUTINE      REPOSITION ROUTINE
000291:


000293:                                                                                                  #  BIT 9 FLAG 0  (S)
000294: 26,2022                        P25FLAG            =        006D                                  #        P25 OPERATING           P25 NOT OPERATING
000295: 26,2022     4743               P25FLBIT           =        BIT9
000296:
000297:                                                                                                  #  BIT 8 FLAG 0  (S)
000298: 26,2022                        IMUSE              =        007D                                  #        IMU IN USE              IMU NOT IN USE
000299: 26,2022     4744               IMUSEBIT           =        BIT8
000300:
000301:                                                                                                  #  BIT 7 FLAG 0  (S)
000302: 26,2022                        RNDVZFLG           =        008D                                  #        P20 RUNNING (RADAR      P20 NOT RUNNING
000303: 26,2022     4745               RNDVZBIT           =        BIT7                                  #        IN USE)
000304:
000305:                                                                                                  #  BIT 6 FLAG 0  (S)
000306: 26,2022                        RRNBSW             =        009D                                  #        RADAR TARGET IN         RADAR TARGET IN
000307: 26,2022     4746               RRNBBIT            =        BIT6                                  #        NB COORDINATES          SM COORDINATES
000308:
000309:                                                                                                  #  BIT 5 FLAG 0  (S)
000310: 26,2022                        LOKONSW            =        010D                                  #        RADAR LOCK-ON           RADAR LOCK-ON NOT
000311: 26,2022     4747               LOKONBIT           =        BIT5                                  #        DESIRED                 DESIRED
000312:
000313:                                                                                                  #  BIT 4 FLAG 0  (S)
000314: 26,2022                        NEEDLFLG           =        011D                                  #        TOTAL ATTITUDE          A/P FOLLOWING
000315: 26,2022     4750               NEEDLBIT           =        BIT4                                  #        ERROR DISPLAYED         ERROR DISPLAYED
000316:
000317:                                                                                                  #  BIT 3 FLAG 0
000318: 26,2022                        FREEFLAG           =        012D                                  #  (USED BY P51-53 TEMP IN MANY DIFFERENT
000319:                                                                                                  #  ROUTINES & BY LUNAR + SOLAR EPHEMERIDES)
000320: 26,2022     4751               FREEFBIT           =        BIT3
000321:
000322:                                                                                                  #  BIT 2 FLAG 0
000323: 26,2022                        R10FLAG            =        013D                                  #        R10 OUTPUTS DATA TO     BESIDES OUTPUT WHEN
000324: 26,2022     4752               R10FLBIT           =        BIT2                                  #        ALTITUDE & ALTITUDE     SET, R10 ALSO OUTPUT
000325:                                                                                                  #        RATE METERS ONLY        TO FORWARD & LATERAL
000326:                                                                                                  #                                VELOCITY CROSSPOINTR
000327:
000328:                                                                                                  #  BIT 1 FLAG 0  (L)
000329: 26,2022                        OLDESFLG           =        014D                                  #        R29 GYRO CMD LOOP       R29 GYRO CMD LOOP
000330: 26,2022     4753               OLDESBIT           =        BIT1                                  #        REQUESTED               NOT REQUESTED
000331:
000332:
000333: 26,2022     0075               FLAGWRD1           =        STATE      +1                         #  (015-029)
000334:


000336:                                                                                                  #        (SET)                   (RESET)
000337:
000338:                                                                                                  #  BIT 15 FLAG 1 (S)
000339: 26,2022                        NJETSFLG           =        015D                                  #        TWO JET RCS BURN        FOUR JET RCS BURN
000340: 26,2022     4735               NJETSBIT           =        BIT15
000341:
000342:                                                                                                  #  BIT 14 FLAG 1 (L)
000343: 26,2022                        DIDFLAG            =        016D                                  #        INERTIAL DATA IS        PERFORM DATA DISPLAY
000344: 26,2022     4736               DIDFLBIT           =        BIT14                                 #        AVAILABLE               INITIALIZATION FUNCS
000345:
000346:                                                                                                  #  BIT 13 FLAG 1 (S)
000347: 26,2022                        ERADFLAG           =        017D                                  #        COMPUTE REARTH          USE CONSTANT REARTH
000348: 26,2022     4737               ERADFBIT           =        BIT13                                 #        FISCHER ELLIPSOID       PAD RADIUS
000349:
000350:                                                                                                  #  BIT 12 FLAG 1
000351: 26,2022                        RODFLAG            =        018D                                  #        IF IN P66, NORMAL       IF IN P66, RE-INIT-
000352: 26,2022     4740               RODFLBIT           =        BIT12                                 #        OPERATION CONTINUES.    IALIZATION IS PER-
000353:                                                                                                  #        RESTART CLEARS FLAG     FORMED AND FLAG IS
000354:
000355:                                                                                                  #  BIT 11 FLAG 1
000356:                                                                                                  #                =       019D
000357:                                                                                                  #                =       BIT11
000358:
000359:                                                                                                  #  BIT 10 FLAG 1 (L)
000360: 26,2022                        R61FLAG            =        020D                                  #        RUN R61 LEM             RUN R65 LEM
000361: 26,2022     4742               R61FLBIT           =        BIT10
000362:
000363:                                                                                                  #  BIT 9 FLAG 1
000364:                                                                                                  #                =       021D
000365:                                                                                                  #                =       BIT9
000366:
000367:                                                                                                  #  BIT 8 FLAG 1  (S)
000368: 26,2022                        VEHUPFLG           =        022D                                  #        CSM STATE VECTOR        LEM STATE VECTOR
000369: 26,2022     4744               VEHUPBIT           =        BIT8                                  #        BEING UPDATED           BEING UPDATED
000370:
000371:                                                                                                  #  BIT 7 FLAG 1  (S)
000372: 26,2022                        UPDATFLG           =        023D                                  #        UPDATING BY MARKS       UPDATING BY MARKS
000373: 26,2022     4745               UPDATBIT           =        BIT7                                  #        ALLOWED                 NOT ALLOWED
000374:
000375:                                                                                                  #  BIT 6 FLAG 1  (S)
000376: 26,2022                        NOUPFLAG           =        024D                                  #        NEITHER CSM             EITHER STATE
000377:                                                                                                  #        NOR LM STATE VECTOR     VECTOR MAY BE
000378: 26,2022     4746               NOUPFBIT           =        BIT6                                  #        MAY BE UPDATED          UPDATED
000379:


000381:                                                                                                  #  BIT 5 FLAG 1  (S)
000382: 26,2022                        TRACKFLG           =        025D                                  #        TRACKING ALLOWED        TRACKING NOT ALLOWED
000383: 26,2022     4747               TRACKBIT           =        BIT5
000384:
000385:                                                                                                  #  BIT 4 FLAG 1
000386:                                                                                                  #                =       026D
000387:                                                                                                  #                =       BIT4
000388:
000389:                                                                                                  #  BIT 3 FLAG 1  (S)
000390: 26,2022                        SLOPESW            =        027D                                  #        ITERATE WITH BIAS       ITERATE WITH REGULAR
000391:                                                                                                  #        METHOD IN ITERATOR      FALSI METHOD IN
000392: 26,2022     4751               SLOPEBIT           =        BIT3                                  #                                ITERATOR
000393:
000394:                                                                                                  #  BIT 2 FLAG 1  (S)
000395: 26,2022                        GUESSW             =        028D                                  #        NO STARTING VALUE       STARTING VALUE FOR
000396: 26,2022     4752               GUESSBIT           =        BIT2                                  #        FOR ITERATION           ITERATION EXISTS
000397:
000398:                                                                                                  #  BIT 1 FLAG 1
000399:                                                                                                  #                =       029D
000400:
000401: 26,2022     0076               FLAGWRD2           =        STATE      +2                         #  (030-044)
000402:
000403:                                                                                                  #        (SET)                   (RESET)
000404:
000405:                                                                                                  #  BIT 15 FLAG 2 (S)
000406: 26,2022                        DRIFTFLG           =        030D                                  #        T3RUPT CALLS GYRO       T3RUPT DOES NO GYRO
000407: 26,2022     4735               DRFTBIT            =        BIT15                                 #        COMPENSATION            COMPENSATION
000408:
000409:                                                                                                  #  BIT 14 FLAG 2 (S)
000410: 26,2022                        SRCHOPTN           =        031D                                  #        RADAR IN AUTOMATIC      RADAR NOT IN AUTO-
000411: 26,2022     4736               SRCHOBIT           =        BIT14                                 #        SEARCH OPTION (R24)     MATIC SEARCH OPTION
000412:
000413:                                                                                                  #  BIT 13 FLAG 2 (S)
000414: 26,2022                        ACMODFLG           =        032D                                  #        MANUAL ACQUISITION      AUTO ACQUISITION
000415: 26,2022     4737               ACMODBIT           =        BIT13                                 #        BY RENDESVOUS RADAR     BY RENDESVOUS RADAR
000416:
000417:                                                                                                  #  BIT 12 FLAG 2 (S)
000418: 26,2022                        LOSCMFLG           =        033D                                  #        LINE OF SIGHT BEING     LINE OF SIGHT NOT
000419:                                                                                                  #        COMPUTED (R21)          BEING COMPUTED
000420: 26,2022     4740               LOSCMBIT           =        BIT12
000421:


000423:                                                                                                  #        IN R29 (L): RR GYRO     IN R29 (L): RR GYRO
000424:                                                                                                  #        CMD LOOP RUNNING        CMD LOOP OFF
000425:
000426:                                                                                                  #  BIT 11 FLAG 2 (S)
000427: 26,2022                        STEERSW            =        034D                                  #        SUFFICIENT THRUST       INSUFFICIENT THRUST
000428: 26,2022     4741               STEERBIT           =        BIT11                                 #        IS PRESENT              IS PRESENT
000429:
000430:                                                                                                  #  BIT 10 FLAG 2 (S)
000431:
000432:                                                                                                  #  BIT 9 FLAG 2 (S)
000433: 26,2022                        IMPULSW            =        036D                                  #        MINIMUM IMPULSE         STEERING BURN (NO
000434:                                                                                                  #        BURN (CUTOFF TIME       CUTOFF TIME YET
000435: 26,2022     4743               IMPULBIT           =        BIT9                                  #        SPECIFIED)              AVAILABLE)
000436:
000437:                                                                                                  #  BIT 8 FLAG 2 (S)
000438: 26,2022                        XDELVFLG           =        037D                                  #        EXTERNAL DELTAV VG      LAMBERT (AIMPOINT)
000439: 26,2022     4744               XDELVBIT           =        BIT8                                  #        COMPUTATION             VG COMPUTATION
000440:
000441:                                                                                                  #  BIT 7 FLAG 2 (S)
000442: 26,2022                        ETPIFLAG           =        038D                                  #        ELEVATION ANGLE         TPI TIME SUPPLIED
000443:                                                                                                  #        SUPPLIED FOR            FOR P34,74 TO COMPUT
000444: 26,2022     4745               ETPIBIT            =        BIT7                                  #        P34,74                  ELEVATION
000445:
000446:                                                                                                  #  BIT 7 FLAG 2 (L)
000447: 26,2022  0000046               OPTNSW             =        ETPIFLAG                              #        SOI PHASE OF P38/78     SOR PHASE OF P38/78
000448: 26,2022     4745               OPTNBIT            =        BIT7
000449:
000450:                                                                                                  #  BIT 6 FLAG 2 (S)
000451: 26,2022                        FINALFLG           =        039D                                  #        LAST PASS THROUGH       INTERIM PASS THROUGH
000452:                                                                                                  #        RENDEZVOUS PROGRAM      RENDEZVOUS PROGRAM
000453: 26,2022     4746               FINALBIT           =        BIT6                                  #        COMPUTATIONS            COMPUTATIONS
000454:
000455:                                                                                                  #  BIT 5 FLAG 2 (S)
000456: 26,2022                        AVFLAG             =        040D                                  #        LEM IS ACTIVE           CSM IS ACTIVE
000457: 26,2022     4747               AVFLBIT            =        BIT5                                  #        VEHICLE                 VEHICLE
000458:
000459:                                                                                                  #  BIT 4 FLAG 2 (S)
000460: 26,2022                        PFRATFLG           =        041D                                  #        PREFERRED ATTITUDE      PREFERRED ATTITUDE
000461: 26,2022     4750               PFRATBIT           =        BIT4                                  #        COMPUTED                NOT COMPUTED
000462:
000463:                                                                                                  #  BIT 3 FLAG 2 (S)
000464:


000466: 26,2022                        CALCMAN3           =        042D                                  #        NO FINAL ROLL           FINAL ROLL IS
000467: 26,2022     4751               CALC3BIT           =        BIT3                                  #                                NECESSARY
000468:
000469:                                                                                                  #  BIT 2 FLAG 2 (S)
000470: 26,2022                        CALCMAN2           =        043D                                  #        PERFORM MANEUVER        BYPASS STARTING
000471: 26,2022     4752               CALC2BIT           =        BIT2                                  #        STARTING PROCEDURE      PROCEDURE
000472:
000473:                                                                                                  #  BIT 1 FLAG 2 (S)
000474: 26,2022                        NODOFLAG           =        044D                                  #        V37 NOT PERMITTED       V37 PERMITTED
000475: 26,2022     4753               NODOBIT            =        BIT1
000476:
000477: 26,2022     0077               FLAGWRD3           =        STATE      +3                         #  (045-059)
000478:
000479:                                                                                                  #        (SET)                   (RESET)
000480:
000481:                                                                                                  #  BIT 15 FLAG 3
000482:                                                                                                  #                =       045D
000483:
000484:                                                                                                  #  BIT 14 FLAG 3 (S)
000485: 26,2022                        GLOKFAIL           =        046D                                  #        GIMBAL LOCK HAS         NOT IN GIMBAL LOCK
000486: 26,2022     4736               GLOKFBIT           =        BIT14                                 #        OCCURRED
000487:
000488:                                                                                                  #  BIT 13 FLAG 3 *** PROTECTED FROM FRESH START ***
000489: 26,2022                        REFSMFLG           =        047D                                  #        REFSMMAT GOOD           REFSMMAT NO GOOD
000490: 26,2022     4737               REFSMBIT           =        BIT13
000491:
000492:                                                                                                  #  BIT 12 FLAG 3 (S)
000493: 26,2022                        LUNAFLAG           =        048D                                  #        LUNAR LAT-LONG          EARTH LAT-LONG
000494: 26,2022     4740               LUNABIT            =        BIT12
000495:
000496:                                                                                                  #  BIT 11 FLAG 3 (L)
000497: 26,2022                        NOR29FLG           =        049D                                  #        R29 NOT ALLOWED         R29 ALOWED (RR DES-
000498: 26,2022     4741               NR29FBIT           =        BIT11                                 #                                IGNATE, POWERED FLT)
000499:
000500:                                                                                                  #  BIT 10 FLAG 3 (S)
000501: 26,2022                        VFLAG              =        050D                                  #        LESS THAN TWO STARS     TWO STARS IN FIELD
000502: 26,2022     4742               VFLAGBIT           =        BIT10                                 #        IN FIELD OF VIEW        OF VIEW
000503:
000504:                                                                                                  #  BIT 9 FLAG 3  (S)
000505: 26,2022                        R04FLAG            =        051D                                  #        ALARM 521               ALARM 521 ALLOWED
000506:                                                                                                  #        SUPPRESSED


000508: 26,2022     4743               R04FLBIT           =        BIT9
000509:
000510:                                                                                                  #  BIT 9 FLAG 3  (L)
000511: 26,2022  0000063               READRFLG           =        R04FLAG                               #        READING RR DATA         NOT READING RR DATA
000512: 26,2022     4743               READRBIT           =        BIT9                                  #        PURSUANT TO R29         PURSUANT TO R29
000513:
000514:                                                                                                  #  BIT 8 FLAG 3  (S)
000515: 26,2022                        PRECIFLG           =        052D                                  #        NORMAL INTEGRATION      ENGAGES 4-TIME STEP
000516:                                                                                                  #        IN POO                  (POO) LOGIC IN INTE-
000517: 26,2022     4744               PRECIBIT           =        BIT8                                  #                                GRATION
000518:
000519:                                                                                                  #  BIT 7 FLAG 3  (S)
000520: 26,2022                        CULTFLAG           =        053D                                  #        STAR OCCULTED           STAR NOT OCCULTED
000521: 26,2022     4745               CULTBIT            =        BIT7
000522:
000523:                                                                                                  #  BIT 6 FLAG 3  (S)
000524: 26,2022                        ORBWFLAG           =        054D                                  #        W MATRIX VALID FOR      W MATRIX INVALID FOR
000525: 26,2022     4746               ORBWFBIT           =        BIT6                                  #        ORBITAL NAVIGATION      ORBITAL NAVIGATION
000526:
000527:                                                                                                  #  BIT 5 FLAG 3  (S)
000528: 26,2022                        STATEFLG           =        055D                                  #        PERMANENT STATE         PERMANENT STATE
000529: 26,2022     4747               STATEBIT           =        BIT5                                  #        VECTOR UPDATED          VECTOR NOT UPDATED
000530:
000531:                                                                                                  #  BIT 4 FLAG 3  (S)
000532: 26,2022                        INTYPFLG           =        056D                                  #        CONIC INTEGRATION       ENCKE INTEGRATION
000533: 26,2022     4750               INTYPBIT           =        BIT4
000534:
000535:                                                                                                  #  BIT 3 FLAG 3  (S)
000536: 26,2022                        VINTFLAG           =        057D                                  #        CSM STATE VECTOR        LEM STATE VECTOR
000537: 26,2022     4751               VINTFBIT           =        BIT3                                  #        BEING INTEGRATED        BEING INTEGRATED
000538:
000539:                                                                                                  #  BIT 2 FLAG 3 (S)
000540: 26,2022                        D6OR9FLG           =        058D                                  #        DIMENSION OF W IS 9     DIMENSION OF W IS 6
000541: 26,2022     4752               D6OR9BIT           =        BIT2                                  #        FOR INTEGRATION         FOR INTEGRATION
000542:
000543:                                                                                                  #  BIT 1 FLAG 3  (S)
000544: 26,2022                        DIM0FLAG           =        059D                                  #        W MATRIX IS TO BE       W MATRIX IS NOT TO
000545: 26,2022     4753               DIM0BIT            =        BIT1                                  #        USED                    BE USED
000546:
000547: 26,2022     0100               FLAGWRD4           =        STATE      +4                         #  (060-074)
000548:


000550:                                                                                                  #        (SET)                   (RESET)
000551:
000552:                                                                                                  #  BIT 15 FLAG 4 (S)
000553: 26,2022                        MRKIDFLG           =        060D                                  #        MARK DISPLAY IN         NO MARK DISPLAY IN
000554: 26,2022     4735               MRKIDBIT           =        BIT15                                 #        ENDIDLE                 ENDIDLE
000555:
000556:                                                                                                  #  BIT 14 FLAG 4 (S)
000557: 26,2022                        PRIODFLG           =        061D                                  #        PRIORITY DISPLAY IN     NO PRIORITY DISPLAY
000558: 26,2022     4736               PRIODBIT           =        BIT14                                 #        ENDIDLE                 IN ENDIDLE
000559:
000560:                                                                                                  #  BIT 13 FLAG 4 (S)
000561: 26,2022                        NRMIDFLG           =        062D                                  #        NORMAL DISPLAY IN       NO NORMAL DISPLAY
000562: 26,2022     4737               NRMIDBIT           =        BIT13                                 #        ENDIDLE                 IN ENDIDLE
000563:
000564:                                                                                                  #  BIT 12 FLAG 4 (S)
000565: 26,2022                        PDSPFLAG           =        063D                                  #        P20 SETS SO AS TO       LEAVE AS NORMAL DISP
000566:                                                                                                  #        TURN A NORMAL DIS-
000567: 26,2022     4740               PDSPFBIT           =        BIT12                                 #        PLAY INTO A PRIORITY
000568:                                                                                                  #        DISPLAY IN R60
000569:
000570:                                                                                                  #  BIT 11 FLAG 4 (S)
000571: 26,2022                        MWAITFLG           =        064D                                  #        HIGHER PRIORITY         NO HIGHER PRIORITY
000572:                                                                                                  #        DISPLAY OPERATING       DISPLAY OPERATING
000573: 26,2022     4741               MWAITBIT           =        BIT11                                 #        WHEN MARK DISPLAY       WHEN MARK DISPLAY
000574:                                                                                                  #        INITIATED               INITIATED
000575:
000576:                                                                                                  #  BIT 10 FLAG 4 (S)
000577: 26,2022                        NWAITFLG           =        065D                                  #        HIGHER PRIORITY         NO HIGHER PRIORITY
000578:                                                                                                  #        DISPLAY OPERATING       DISPLAY OPERATING
000579: 26,2022     4742               NWAITBIT           =        BIT10                                 #        WHEN NORMAL             WHEN NORMAL DISPLAY
000580:                                                                                                  #        DISPLAY INITIATED       INITIATED
000581:
000582:                                                                                                  #  BIT 9 FLAG 4  (S)
000583: 26,2022                        MRKNVFLG           =        066D                                  #        ASTRONAUT USING         ASTRONAUT NOT USING
000584:                                                                                                  #        KEYBOARD WHEN MARK      KEYBOARD WHEN MARK
000585: 26,2022     4743               MRKNVBIT           =        BIT9                                  #        DISPLAY INITIATED       DISPLAY INITIATED
000586:
000587:                                                                                                  #  BIT 8 FLAG 4  (S)
000588: 26,2022                        NRMNVFLG           =        067D                                  #        ASTRONAUT USING         ASTRONAUT NOT USING
000589:                                                                                                  #        KEYBOARD WHEN           KEYBOARD WHEN
000590: 26,2022     4744               NRMNVBIT           =        BIT8                                  #        NORMAL DISPLAY          NORMAL DISPLAY
000591:                                                                                                  #        INITIATED               INITIATED
000592:
000593:                                                                                                  #  BIT 7 FLAG 4  (S)
000594: 26,2022                        PRONVFLG           =        068D                                  #        ASTRONAUT USING         ASTRONAUT NOT USING
000595:


000597:                                                                                                  #        KEYBOARD WHEN           KEYBOARD WHEN
000598: 26,2022     4745               PRONVBIT           =        BIT7                                  #        PRIORITY DISPLAY        PRIORITY DISPLAY
000599:                                                                                                  #        INITIATED               INITIATED
000600:
000601:                                                                                                  #  BIT 6 FLAG 4  (S)
000602: 26,2022                        PINBRFLG           =        069D                                  #        ASTRONAUT HAS           ASTRONAUT HAS NOT
000603:                                                                                                  #        INTERFERED WITH         INTERFERED WITH
000604: 26,2022     4746               PINBRBIT           =        BIT6                                  #        EXISTING DISPLAY        EXISTING DISPLAY
000605:
000606:                                                                                                  #  BIT 5 FLAG 4  (S)
000607: 26,2022                        MRUPTFLG           =        070D                                  #        MARK DISPLAY            MARK DISPLAY NOT
000608:                                                                                                  #        INTERRUPTED BY          INTERRUPTED BY
000609: 26,2022     4747               MRUPTBIT           =        BIT5                                  #        PRIORITY DISPLAY        PRIORITY DISPLAY
000610:
000611:                                                                                                  #  BIT 4 FLAG 4  (S)
000612: 26,2022                        NRUPTFLG           =        071D                                  #        NORMAL DISPLAY          NORMAL DISPLAY NOT
000613:                                                                                                  #        INTERRUPTED BY          INTERRUPTED BY
000614: 26,2022     4750               NRUPTBIT           =        BIT4                                  #        PRIORITY OR MARK        PRIORITY OR MARK
000615:                                                                                                  #        DISPLAY                 DISPLAY
000616:
000617:                                                                                                  #  BIT 3 FLAG 4  (S)
000618: 26,2022                        MKOVFLAG           =        072D                                  #        MARK DISPLAY OVER       NO MARK DISPLAY OVER
000619: 26,2022     4751               MKOVBIT            =        BIT3                                  #        NORMAL                  NORMAL
000620:
000621:                                                                                                  #  BIT 2 FLAG 4
000622:                                                                                                  #                =       073D
000623:
000624:
000625:                                                                                                  #  BIT 1 FLAG 4  (S)
000626: 26,2022                        XDSPFLAG           =        074D                                  #        MARK DISPLAY NOT        NO SPECIAL MARK
000627: 26,2022     4753               XDSPBIT            =        BIT1                                  #        TO BE INTERRUPTED       INFORMATION
000628:
000629: 26,2022     0101               FLAGWRD5           =        STATE      +5                         #  (075-089)
000630:
000631:                                                                                                  #        (SET)                   (RESET)
000632:
000633:                                                                                                  #  BIT 15 FLAG 5 (S)
000634: 26,2022                        DSKYFLAG           =        075D                                  #        DISPLAYS SENT TO        NO DISPLAYS TO DSKY
000635: 26,2022     4735               DSKYFBIT           =        BIT15                                 #        DSKY
000636:
000637:                                                                                                  #  BIT 14 FLAG 5
000638:                                                                                                  #                =       076D
000639:                                                                                                  #                =       BIT14
000640:


000642:                                                                                                  #  BIT 13 FLAG 5 (S,L)
000643: 26,2022                        SNUFFER            =        077D                                  #        U,V JETS DISABLED       U,V JETS ENABLED
000644:                                                                                                  #        DURING DPS              DURING DPS
000645: 26,2022     4737               SNUFFBIT           =        BIT13                                 #        BURNS (V65)             BURNS (V75)
000646:
000647:                                                                                                  #  BIT 12 FLAG 5 (S)
000648: 26,2022                        NOTHROTL           =        078D                                  #        INHIBIT FULL            PERMIT FULL THROTTLE
000649: 26,2022     4740               NOTHRBIT           =        BIT12                                 #        THROTTLE
000650:
000651:                                                                                                  #  BIT 11 FLAG 5 (S,L)
000652: 26,2022                        R77FLAG            =        079D                                  #        R77 IS ON,              R77 IS NOT ON.
000653:                                                                                                  #        SUPPRESS ALL RADAR
000654:                                                                                                  #        ALARMS AND TRACKER
000655: 26,2022     4741               R77FLBIT           =        BIT11                                 #        FAILS
000656:
000657:                                                                                                  #  BIT 10 FLAG 5 (S)
000658: 26,2022                        RNGSCFLG           =        080D                                  #        SCALE CHANGE HAS        NO SCALE CHANGE HAS
000659:                                                                                                  #        OCCURRED DURING         OCCURRED DURING
000660: 26,2022     4742               RNGSCBIT           =        BIT10                                 #        RR READING              RR READING
000661:
000662:                                                                                                  #  BIT 9 FLAG 5  (S)
000663: 26,2022                        DMENFLG            =        081D                                  #        DIMENSION OF W IS 9     DIMENSION OF W IS 6
000664: 26,2022     4743               DMENFBIT           =        BIT9                                  #        FOR INCORPORATION       FOR INCORPORATION
000665:
000666:                                                                                                  #  BIT 8 FLAG 5  (S)
000667:                                                                                                  #                =       082D
000668:                                                                                                  #                =       BIT8
000669:
000670:                                                                                                  #  BIT 7 FLAG 5  (S)
000671: 26,2022                        ENGONFLG           =        083D                                  #        ENGINE TURNED ON        ENGINE TURNED OFF
000672: 26,2022     4745               ENGONBIT           =        BIT7                                  #
000673:
000674:                                                                                                  #  BIT 6 FLAG 5  (S)
000675: 26,2022                        3AXISFLG           =        084D                                  #        MANEUVER SPECIFIED      MANEUVER SPECIFIED
000676:                                                                                                  #        BY THREE AXES           BY ONE AXIS; R60
000677: 26,2022     4746               3AXISBIT           =        BIT6                                  #                                CALLS VECPOINT.
000678:
000679:                                                                                                  #  BIT 5 FLAG 5
000680:                                                                                                  #                =       085D
000681:
000682:                                                                                                  #  BIT 4 FLAG 5  (S)
000683:


000685: 26,2022                        NORRMON            =        086D                                  #        BYPASS RR GIMBAL        PERFORM
000686: 26,2022     4750               NORRMBIT           =        BIT4                                  #        MONITOR                 RR GIMBAL MONITOR
000687:
000688:                                                                                                  #  BIT 3 FLAG 5  (S)
000689: 26,2022                        SOLNSW             =        087D                                  #        LAMBERT DOES NOT        LAMBERT CONVERGES OR
000690:                                                                                                  #        CONVERGE, OR TIME-RAD   TIME-RADIUS NON
000691: 26,2022     4751               SOLNSBIT           =        BIT3                                  #        NEARLY CIRCULAR         CIRCULAR
000692:
000693:                                                                                                  #  BIT 2 FLAG 5  (S)
000694: 26,2022                        MGLVFLAG           =        088D                                  #        LOCAL VERTICAL          MIDDLE GIMBAL ANGLE
000695:                                                                                                  #        COORDINATES             COMPUTED
000696: 26,2022     4752               MGLVFBIT           =        BIT2                                  #        COMPUTED
000697:
000698:                                                                                                  #  BIT 1 FLAG 5  (S)
000699: 26,2022                        RENDWFLG           =        089D                                  #        W MATRIX VALID          W MATRIX INVALID
000700:                                                                                                  #        FOR RENDEZVOUS          FOR RENDEZVOUS
000701: 26,2022     4753               RENDWBIT           =        BIT1                                  #        NAVIGATION              NAVIGATION
000702:
000703:
000704: 26,2022     0102               FLAGWRD6           =        STATE      +6                         #  (090-104)
000705:
000706:                                                                                                  #        (SET)                   (RESET)
000707:
000708:                                                                                                  #  BIT 15 FLAG 6 (S)
000709: 26,2022                        S32.1F1            =        090D                                  #        DELTA V AT CSI TIME     DVT1 LESS THEN MAX
000710: 26,2022     4735               S32BIT1            =        BIT15                                 #        ONE EXCEEDS MAX
000711:
000712:                                                                                                  #  BIT 14 FLAG 6 (S)
000713: 26,2022                        S32.1F2            =        091D                                  #        FIRST PASS OF           REITERATION OF
000714: 26,2022     4736               S32BIT2            =        BIT14                                 #        NEWTON ITERATION        NEWTON
000715:
000716:                                                                                                  #  BIT 13 FLAG 6 (S)
000717: 26,2022                        S32.1F3A           =        092D                                  #  BIT 13 AND BIT 12 FUNCTION AS AN ORDERED
000718: 26,2022     4737               S32BIT3A           =        BIT13                                 #  PAIR (13,12) INDICATING THE POSSIBLE OC-
000719:                                                                                                  #  CURRANCE OF 2NEWTON ITERATIONS FOR S32.1
000720:                                                                                                  #  IN THE PROGRAM IN THE FOLLOWING ORDER:
000721:                                                                                                  #  BIT 12 FLAG 6                                   (0,1) (I.E. BIT 13 RESET, BIT 12 SET)
000722: 26,2022                        S32.1F3B           =        093D                                  #       = FIRST NEWTON ITERATION BEING DONE
000723: 26,2022     4740               S32BIT3B           =        BIT12                                 #  (0,0)= FIRST PASS OF SECOND NEWT.ITERAT.
000724:                                                                                                  #  (1,1)= 50 FT/SEC STAGE OF SEC. NEWT.ITER
000725:                                                                                                  #  (1,0)= REMAINDER OF SECOND NEWTON ITERA.
000726:                                                                                                  #  BIT 11 FLAG 6 (S)
000727:


000729:                                                                                                  #  BIT 10 FLAG 6 (S)
000730: 26,2022                        GMBDRVSW           =        095D                                  #        TRIMGIMB OVER           TRIMGIMB NOT OVER
000731: 26,2022     4742               GMBDRBIT           =        BIT10                                 #
000732:
000733:                                                                                                  #  BIT 9 FLAG 6
000734:                                                                                                  #                =       096D
000735:                                                                                                  #                =       BIT9
000736:
000737:                                                                                                  #  BIT 8 FLAG 6  (S)
000738: 26,2022                        MUNFLAG            =        097D                                  #        SERVICER CALLS          SERVICER CALLS
000739: 26,2022     4744               MUNFLBIT           =        BIT8                                  #        MUNRVG                  CALCRVG
000740:
000741:                                                                                                  #  BIT 7 FLAG 6  (L)
000742:
000743:
000744:                                                                                                  #  BIT 6 FLAG 6  (L)
000745: 26,2022                        REDFLAG            =        099D                                  #        LANDING SITE            LANDING SITE
000746:                                                                                                  #        REDESIGNATION           REDESIGNATION NOT
000747: 26,2022     4746               REDFLBIT           =        BIT6                                  #        PERMITTED               PERMITTED
000748:
000749:                                                                                                  #  BIT 5 FLAG 6
000750:                                                                                                  #                =       100D
000751:
000752:                                                                                                  #  BIT 4 FLAG 6
000753:                                                                                                  #                =       101D
000754:
000755:                                                                                                  #  BIT 3 FLAG 6  (S)
000756: 26,2022                        NTARGFLG           =        102D                                  #        ASTRONAUT DID           ASTRONAUT DID NOT
000757:                                                                                                  #        OVERWRITE DELTA         OVERWRITE DELTA
000758: 26,2022     4751               NTARGBIT           =        BIT3                                  #        VELOCITY AT TPI         VELOCITY
000759:                                                                                                  #        OR TPM (P34,35)
000760:
000761:                                                                                                  #  BIT 2 FLAG 6
000762: 26,2022                        AUXFLAG            =        103D                                  #        PROVIDING IDLEFLAG      SERVICER WILL SKIP
000763: 26,2022     4752               AUXFLBIT           =        BIT2                                  #        IS NOT SET, SERV-       DVMON ON ITS NEXT
000764:                                                                                                  #        ICER WILL EXERCISE      PASS EVEN IF THE
000765:                                                                                                  #        DVMON ON ITS NEXT       IDLEFLAG IS NOT SET.
000766:                                                                                                  #        PASS.                   IT WILL THEN SET
000767:                                                                                                  #                                AUXFLAG.
000768:
000769:                                                                                                  #  BIT 1 FLAG 6  (L)
000770: 26,2022                        ATTFLAG            =        104D                                  #        LEM ATTITUDE EXISTS     NO LEM ATTITUDE
000771:                                                                                                  #        IN MOON-FIXED           AVAILABLE IN MOON-
000772:


000774: 26,2022     4753               ATTFLBIT           =        BIT1                                  #        COORDINATES             FIXED COORDINATES
000775:
000776: 26,2022     0103               FLAGWRD7           =        STATE      +7                         #  (105-119)
000777:
000778:                                                                                                  #        (SET)                   (RESET)
000779:
000780:                                                                                                  #  BIT 15 FLAG 7 (S)
000781: 26,2022                        ITSWICH            =        105D                                  #        P34;TPI TIME TO BE      TPI HAS BEEN
000782: 26,2022     4735               ITSWBIT            =        BIT15                                 #        COMPUTED                COMPUTED
000783:
000784:                                                                                                  #  BIT 14 FLAG 7 (S)
000785: 26,2022                        MANUFLAG           =        106D                                  #        ATTITUDE MANEUVER       NO ATTITUDE MANEUVER
000786:                                                                                                  #        GOING DURING RR         DURING RR SEARCH
000787: 26,2022     4736               MANUFBIT           =        BIT14                                 #        SEARCH
000788:
000789:                                                                                                  #  BIT 13 FLAG 7 (S)
000790: 26,2022                        IGNFLAG            =        107D                                  #        TIG HAS ARRIVED         TIG HAS NOT ARRIVED
000791: 26,2022     4737               IGNFLBIT           =        BIT13                                 #
000792:
000793:                                                                                                  #  BIT 12 FLAG 7 (S)
000794: 26,2022                        ASTNFLAG           =        108D                                  #        ASTRONAUT HAS           ASTRONAUT HAS NOT
000795: 26,2022     4740               ASTNBIT            =        BIT12                                 #        OKAYED IGNITION         OKAYED IGNITION
000796:
000797:                                                                                                  #  BIT 11 FLAG 7 (L)
000798: 26,2022                        SWANDISP           =        109D                                  #        LANDING ANALOG          LANDING ANALOG
000799: 26,2022     4741               SWANDBIT           =        BIT11                                 #        DISPLAYS ENABLED        DISPLAYS SUPPRESSED
000800:
000801:                                                                                                  #  BIT 10 FLAG 7 (S)
000802: 26,2022                        NORMSW             =        110D                                  #        UNIT NORMAL INPUT       LAMBERT COMPUTES ITS
000803: 26,2022     4742               NORMSBIT           =        BIT10                                 #        TO LAMBERT              OWN UNIT NORMAL
000804:
000805:                                                                                                  #  BIT 9 FLAG 7  (S)
000806: 26,2022                        RVSW               =        111D                                  #        DO NOT COMPUTE          COMPUTE FINAL STATE
000807:                                                                                                  #        FINAL STATE VECTOR      VECTOR IN TIME-THETA
000808: 26,2022     4743               RVSWBIT            =        BIT9                                  #        IN TIME-THETA
000809:
000810:                                                                                                  #  BIT 8 FLAG 7  (S)
000811: 26,2022                        V67FLAG            =        112D                                  #        ASTRONAUT OVERWRITE     ASTRONAUT DOES NOT
000812:                                                                                                  #        W-MATRIX INITIAL        OVERWRITE W-MATRIX
000813: 26,2022     4744               V67FLBIT           =        BIT8                                  #        VALUES                  INITIAL VALUES
000814:


000816:                                                                                                  #  BIT 7 FLAG 7  (S)
000817: 26,2022                        IDLEFLAG           =        113D                                  #        NO DV MONITOR           CONNECT DV MONITOR
000818: 26,2022     4745               IDLEFBIT           =        BIT7                                  #
000819:
000820:                                                                                                  #  BIT 6 FLAG 7  (S)
000821: 26,2022                        V37FLAG            =        114D                                  #        AVERAGEG (SERVICER)     AVERAGEG (SERVICER)
000822: 26,2022     4746               V37FLBIT           =        BIT6                                  #        RUNNING                 OFF
000823:
000824:                                                                                                  #  BIT 5 FLAG 7  (S)
000825: 26,2022                        AVEGFLAG           =        115D                                  #        AVERAGEG (SERVICER)     AVERAGEG (SERVICER)
000826: 26,2022     4747               AVEGFBIT           =        BIT5                                  #        DESIRED                 NOT DESIRED
000827:
000828:                                                                                                  #  BIT 4 FLAG 7  (S)
000829: 26,2022                        UPLOCKFL           =        116D                                  #        K-KBAR-K FAIL           NO K-KBAR-K FAIL
000830: 26,2022     4750               UPLOCBIT           =        BIT4                                  #
000831:
000832:                                                                                                  #  BIT 3 FLAG 7  (S)
000833: 26,2022                        VERIFLAG           =        117D                                  #  CHANGED WHEN V33E OCCURS AT END OF P27
000834: 26,2022     4751               VERIFBIT           =        BIT3                                  #
000835:
000836:                                                                                                  #  BIT 2 FLAG 7  (L,C)
000837: 26,2022                        V82EMFLG           =        118D                                  #        MOON VICINITY           EARTH VICINITY
000838: 26,2022     4752               V82EMBIT           =        BIT2                                  #
000839:
000840:                                                                                                  #  BIT 1 FLAG 7  (S)
000841: 26,2022                        TFFSW              =        119D                                  #        CALCULATE TPERIGEE      CALCULATE TFF
000842: 26,2022     4753               TFFSWBIT           =        BIT1                                  #
000843:
000844:
000845: 26,2022     0104               FLAGWRD8           =        STATE      +8D                        #  (120-134)
000846:
000847:                                                                                                  #        (SET)                   (RESET)
000848:
000849:                                                                                                  #  BIT 15 FLAG 8 (S)
000850: 26,2022                        RPQFLAG            =        120D                                  #        RPQ NOT COMPUTED        RPQ COMPUTED
000851:                                                                                                  #        (RPQ = VECTOR BE-
000852: 26,2022     4735               RPQFLBIT           =        BIT15                                 #        TWEEN SECONDARY BODY
000853:                                                                                                  #        AND PRIMARY BODY
000854:
000855:                                                                                                  #  BIT 14 FLAG 8
000856:                                                                                                  #                =       121D
000857:                                                                                                  #                =       BIT14
000858:


000860:                                                                                                  #  BIT 13 FLAG 8 (S)
000861: 26,2022                        NEWIFLG            =        122D                                  #        FIRST PASS THROUGH      SUCCEEDING ITERATION
000862: 26,2022     4737               NEWIBIT            =        BIT13                                 #        INTEGRATION             OF INTEGRATION
000863:
000864:                                                                                                  #  BIT 12 FLAG 8 *** PROTECTED FROM FRESH START ***
000865: 26,2022                        CMOONFLG           =        123D                                  #        PERMANENT CSM STATE     PERMANENT CSM STATE
000866: 26,2022     4740               CMOONBIT           =        BIT12                                 #        IN LUNAR SPHERE         IN EARTH SPHERE
000867:
000868:                                                                                                  #  BIT 11 FLAG 8 *** PROTECTED FROM FRESH START ***
000869: 26,2022                        LMOONFLG           =        124D                                  #        PERMANENT LM STATE      PERMANENT LM STATE
000870: 26,2022     4741               LMOONBIT           =        BIT11                                 #        IN LUNAR SPHERE         IN EARTH SPHERE
000871:
000872:                                                                                                  #  BIT 10 FLAG 8 (L)
000873: 26,2022                        FLUNDISP           =        125D                                  #        CURRENT GUIDANCE        CURRENT GUIDANCE
000874: 26,2022     4742               FLUNDBIT           =        BIT10                                 #        DISPLAYS INHIBITED      DISPLAYS PERMITTED
000875:
000876:                                                                                                  #  BIT 9 FLAG 8  (L)
000877: 26,2022                        P39/79SW           =        126D                                  #        P39/79 OPERATING        P38/P78 OPERATING
000878: 26,2022     4743               P39SWBIT           =        BIT9                                  #
000879:
000880:                                                                                                  #  BIT 8 FLAG 8  *** PROTECTED FROM FRESH START ***
000881: 26,2022                        SURFFLAG           =        127D                                  #        LM ON LUNAR SURFACE     LM NOT ON LUNAR
000882: 26,2022     4744               SURFFBIT           =        BIT8                                  #                                SURFACE
000883:
000884:                                                                                                  #  BIT 7 FLAG 8  (S)
000885: 26,2022                        INFINFLG           =        128D                                  #        NO CONIC SOLUTION       CONIC SOLUTION
000886:                                                                                                  #        (CLOSURE THROUGH        EXISTS
000887: 26,2022     4745               INFINBIT           =        BIT7                                  #        INFINITY REQUIRED)
000888:
000889:                                                                                                  #  BIT 6 FLAG 8  (S)
000890: 26,2022                        ORDERSW            =        129D                                  #        ITERATOR USES 2ND       ITERATOR USES 1ST
000891: 26,2022     4746               ORDERBIT           =        BIT6                                  #        ORDER MINIMUM MODE      ORDER STANDARD MODE
000892:
000893:                                                                                                  #  BIT 5 FLAG 8  (S)
000894: 26,2022                        APSESW             =        130D                                  #        RDESIRED OUTSIDE        RDESIRED INSIDE
000895:                                                                                                  #        PERICENTER-APOCENTER    PERICENTER-APOCENTER
000896: 26,2022     4747               APSESBIT           =        BIT5                                  #        RANGE IN TIME-RADI      RANGE IN TIME-RADIUS
000897:
000898:                                                                                                  #  BIT 4 FLAG 8  (S)
000899: 26,2022                        COGAFLAG           =        131D                                  #        NO CONIC SOLUTION -     CONIC SOLUTION
000900:                                                                                                  #        TOO CLOSE TO RECTI-     EXISTS(COGA DOES NOT
000901:


000903: 26,2022     4750               COGAFBIT           =        BIT4                                  #        LINEAR (COGA OVRFLWS)   OVERFLOW)
000904:
000905:                                                                                                  #  BIT 3 FLAG 8
000906:                                                                                                  #                =       132D
000907:
000908:                                                                                                  #  BIT 2 FLAG 8  (L)
000909: 26,2022                        INITALGN           =        133D                                  #        INITIAL PASS THRU       SECOND PASS THRU P57
000910: 26,2022     4752               INITABIT           =        BIT2                                  #        P57                     (CHECK RESET-MILLARD)
000911:
000912:                                                                                                  #  BIT 1 FLAG 8  (S)
000913: 26,2022                        360SW              =        134D                                  #        TRANSFER ANGLE NEAR     TRANSFER ANGLE NOT
000914: 26,2022     4753               360SWBIT           =        BIT1                                  #        360 DEGREES             NEAR 360 DEGREES
000915:
000916:
000917: 26,2022     0105               FLAGWRD9           =        STATE      +9D                        #  (135-149)
000918:
000919:                                                                                                  #        (SET)                   (RESET)
000920:
000921:                                                                                                  #  BIT 15 FLAG 9
000922:                                                                                                  #                =       135D
000923:                                                                                                  #                =       BIT15
000924:
000925:                                                                                                  #  BIT 14 FLAG 9 (L)
000926: 26,2022                        FLVR               =        136D                                  #        VERTICAL RISE           NON-VERTICAL RISE
000927: 26,2022     4736               FLVRBIT            =        BIT14                                 #        (ASCENT GUIDANCE)
000928:
000929:                                                                                                  #  BIT 13 FLAG 9
000930:                                                                                                  #                =       137D
000931:
000932:                                                                                                  #  BIT 12 FLAG 9 (L)
000933: 26,2022                        FLPC               =        138D                                  #        NO POSITION CONTROL     POSITION CONTROL
000934: 26,2022     4740               FLPCBIT            =        BIT12                                 #        (ASCENT GUIDANCE)
000935:
000936:                                                                                                  #  BIT 11 FLAG 9 (L)
000937: 26,2022                        FLPI               =        139D                                  #        PRE-IGNITION PHASE      REGULAR GUIDANCE
000938: 26,2022     4741               FLPIBIT            =        BIT11                                 #        (ASCENT GUIDANCE)
000939:
000940:                                                                                                  #  BIT 10 FLAG 9 (L)
000941: 26,2022                        FLRCS              =        140D                                  #        RCS INJECTION MODE      MAIN ENGINE MODE
000942: 26,2022     4742               FLRCSBIT           =        BIT10                                 #        (ASCENT GUIDANCE)
000943:
000944:                                                                                                  #  BIT 9 FLAG 9  (L)
000945:


000947: 26,2022                        LETABORT           =        141D                                  #        ABORT PROGRAMS          ABORT PROGRAMS
000948: 26,2022     4743               LETABBIT           =        BIT9                                  #        ARE ENABLED             ARE NOT ENABLED
000949:
000950:                                                                                                  #  BIT 8 FLAG 9  (L)
000951: 26,2022                        FLAP               =        142D                                  #        APS CONTINUED ABORT     APS ABORT IS NOT A
000952:                                                                                                  #        AFTER DPS STAGING       CONTINUATION
000953: 26,2022     4744               FLAPBIT            =        BIT8                                  #        (ASCENT GUIDANCE)
000954:
000955:                                                                                                  #  BIT 7 FLAG 9  (L)
000956:                                                                                                  #                =       143D
000957:
000958:
000959:                                                                                                  #  BIT 6 FLAG 9  (L)
000960: 26,2022                        ROTFLAG            =        144D                                  #        P70 AND P71 WILL        P70 AND P71 WILL NOT
000961: 26,2022     4746               ROTFLBIT           =        BIT6                                  #        FORCE VEHICLE           FORCE VEHICLE
000962:                                                                                                  #        ROTATION IN THE         ROTATION IN THE
000963:                                                                                                  #        PREFERRED DIRECTION.    PREFERRED DIRECTION
000964:
000965:                                                                                                  #  BIT 5 FLAG 9  (S)
000966: 26,2022                        QUITFLAG           =        145D                                  #        DISCONTINUE INTEGR.     CONTINUE INTEGRATION
000967: 26,2022     4747               QUITBIT            =        BIT5                                  #
000968:
000969:                                                                                                  #  BIT 4 FLAG 9
000970:                                                                                                  #                =       146D
000971:                                                                                                  #                =       BIT4
000972:
000973:                                                                                                  #  BIT 3 FLAG 9  (L)
000974: 26,2022                        MID1FLAG           =        147D                                  #        INTEGRATE TO TDEC       INTEGRATE TO THE
000975: 26,2022     4751               MID1FBIT           =        BIT3                                  #                                THEN-PRESENT TIME
000976:
000977:                                                                                                  #  BIT 2 FLAG 9  (L)
000978: 26,2022                        MIDAVFLG           =        148D                                  #        INTEGRATION ENTERED     INTEGRATION WAS
000979:                                                                                                  #        FROM ONE OF MIDTOAV     NOT ENTERED VIA
000980: 26,2022     4752               MIDAVBIT           =        BIT2                                  #        PORTALS                 MIDTOAV
000981:
000982:                                                                                                  #  BIT 1 FLAG 9  (S)
000983: 26,2022                        AVEMIDSW           =        149D                                  #        AVETOMID CALLING        NO AVETOMID W INTEGR
000984:                                                                                                  #        FOR W.MATRIX INTEGR     ALLOW SET UP RM,VN.
000985: 26,2022     4753               AVEMDBIT           =        BIT1                                  #        DONT WRITE OVER RN,     PIPTIME
000986:                                                                                                  #        VN,PIPTIME
000987:
000988:
000989: 26,2022     0106               RASFLAG            EQUALS   FLGWRD10                              #  WAS ONLY AN INSTALL-ERASTALL FLAG
000990:


000992: 26,2022     0106               FLGWRD10           =        STATE      +10D                       #  (150-164)
000993:
000994:                                                                                                  #        (SET)                   (RESET)
000995:
000996:                                                                                                  #  BIT 15 FLAG 10
000997:                                                                                                  #                =       150D
000998:
000999:                                                                                                  #  BIT 14 FLAG 10 (L,C)
001000: 26,2022                        INTFLAG            =        151D                                  #        INTEGRATION IN          INTEGRATION NOT IN
001001: 26,2022     4736               INTFLBIT           =        BIT14                                 #        PROGRESS                PROGRESS
001002:
001003:                                                                                                  #  BIT 13 FLAG 10 (S,L)
001004: 26,2022                        APSFLAG            =        152D                                  #        ASCENT STAGE            DESCENT STAGE
001005: 26,2022     4737               APSFLBIT           =        BIT13                                 #         *** PROTECTED FROM FRESH START ***
001006:
001007:                                                                                                  #  BIT 12 FLAG 10
001008:                                                                                                  #                =       153D
001009:
001010:                                                                                                  #  BIT 11 FLAG 10
001011:                                                                                                  #                =       154D
001012:
001013:                                                                                                  #  BIT 10 FLAG 10
001014:                                                                                                  #                =       155D
001015:
001016:                                                                                                  #  BIT 9 FLAG 10
001017:                                                                                                  #                =       156D
001018:
001019:                                                                                                  #  BIT 8 FLAG 10
001020:                                                                                                  #                =       157D
001021:
001022:                                                                                                  #  BIT 7 FLAG 10 (L,C)
001023: 26,2022                        REINTFLG           =        158D                                  #        INTEGRATION ROUTINE     INTEGRATION ROUTINE
001024: 26,2022     4745               REINTBIT           =        BIT7                                  #        TO BE RESTARTED         NOT TO BE RESTARTED
001025:
001026:                                                                                                  #  BIT 6 FLAG 10
001027:                                                                                                  #                =       159D
001028:
001029:                                                                                                  #  BIT 5 FLAG 10
001030:                                                                                                  #                =       160D
001031:


001033:                                                                                                  #  BIT 4 FLAG 10
001034:                                                                                                  #                =       161D
001035:
001036:                                                                                                  #  BIT 3 FLAG 10
001037:                                                                                                  #                =       162D
001038:
001039:                                                                                                  #  BIT 2 FLAG 10
001040:                                                                                                  #                =       163D
001041:
001042:                                                                                                  #  BIT 1 FLAG 10
001043:                                                                                                  #                =       164D
001044:
001045:
001046:
001047: 26,2022     0107               FLGWRD11           =        STATE      +11D                       #  (165-179)
001048:
001049:                                                                                                  #        (SET)                   (RESET)
001050:
001051:                                                                                                  #  BIT 15 FLAG 11 (L)(R12)
001052: 26,2022                        LRBYPASS           =        165D                                  #        BYPASS ALL LANDING      DO NOT BYPASS LR
001053: 26,2022     4735               LRBYBIT            =        BIT15                                 #        RADAR UPDATES           UPDATES
001054:
001055:                                                                                                  #  BIT 14 FLAG 11
001056:                                                                                                  #                =       166D
001057:                                                                                                  #                =       BIT14
001058:
001059:                                                                                                  #                =       BIT 13 FLAG 11
001060:                                                                                                  #                =       167D
001061:                                                                                                  #                =       BIT13
001062:
001063:                                                                                                  #  BIT 12 FLAG 11 (L)(R12)
001064: 26,2022                        VXINH              =        168D                                  #        IF Z VELOCITY DATA      UPDATE X AXIS
001065:                                                                                                  #        UNREASONABLE,           VELOCITY
001066: 26,2022     4740               VXINHBIT           =        BIT12                                 #        BYPASS X VELOCITY
001067:                                                                                                  #        UPDATE ON NEXT PASS
001068:
001069:                                                                                                  #  BIT 11 FLAG 11 (L)(R12)
001070: 26,2022                        PSTHIGAT           =        169D                                  #        PAST HIGATE             PREHIGATE
001071: 26,2022     4741               PSTHIBIT           =        BIT11                                 #
001072:
001073:                                                                                                  #  BIT 10 FLAG 11 (L)(R12)
001074:


001076: 26,2022                        NOLRREAD           =        170D                                  #        LANDING RADAR           LR NOT REPOSITIONING
001077:                                                                                                  #        REPOSITIONING;
001078: 26,2022     4742               NOLRRBIT           =        BIT10                                 #        BYPASS UPDATE
001079:
001080:                                                                                                  #  BIT 9 FLAG 11 (L)(R12)
001081: 26,2022                        XORFLG             =        171D                                  #        BELOW LIMIT             ABOVE LIMIT DO
001082:                                                                                                  #        INHIBIT X AXIS          NOT INHIBIT
001083: 26,2022     4743               XORFLBIT           =        BIT9                                  #        OVERRIDE
001084:
001085:                                                                                                  #  BIT 8 FLAG 11
001086: 26,2022                        LRINH              =        172D                                  #        LANDING RADAR UP-       LR UPDATES INHIBITED
001087: 26,2022     4744               LRINHBIT           =        BIT8                                  #        DATES PERMITTED         BY ASTRONAUT
001088:                                                                                                  #        BY ASTRONAUT
001089:
001090:                                                                                                  #  BIT 7 FLAG 11 (L)(R12)
001091: 26,2022                        VELDATA            =        173D                                  #        LR VELOCITY             LR VELOCITY MEASURE
001092: 26,2022     4745               VELDABIT           =        BIT7                                  #        MEASUREMENT MADE        NOT MADE
001093:
001094:                                                                                                  #  BIT 6 FLAG 11 (L)(R12)
001095: 26,2022                        READLR             =        174D                                  #        OK TO READ LR           DO NOT READ LR RANGE
001096: 26,2022     4746               READLBIT           =        BIT6                                  #        RANGE DATA              DATA
001097:
001098:                                                                                                  #  BIT 5 FLAG 11 (L)(R12)
001099: 26,2022                        READVEL            =        175D                                  #        OK TO READ LR           DO NOT READ LR
001100: 26,2022     4747               READVBIT           =        BIT5                                  #        VELOCITY DATA           VELOCITY DATA
001101:
001102:                                                                                                  #  BIT 4 FLAG 11 (L)(R12)
001103: 26,2022                        RNGEDATA           =        176D                                  #        LR ALTITUDE             LR ALTITUDE MEASURE
001104: 26,2022     4750               RNGEDBIT           =        BIT4                                  #        MEASUREMENT MADE        NOT MADE
001105:
001106:                                                                                                  #  BIT 3 FLAG 11
001107: 26,2022                        SCALBAD            =        177D                                  #        LR LOW SCALE DIS-       LR SCALE DISCRETE
001108: 26,2022     4751               SCABBIT            =        BIT3                                  #        CRETE NOT PRESENT       APPEARS OK
001109:                                                                                                  #        WHEN IT SHOULD BE
001110:
001111:                                                                                                  #  BIT 2 FLAG 11 (L)(R12)
001112: 26,2022                        VFLSHFLG           =        178D                                  #        LR VELOCITY FAIL        LR VEL FAIL LAMP
001113:                                                                                                  #        LAMP SHOULD BE          SHOULDN'T FLASH
001114: 26,2022     4752               VFLSHBIT           =        BIT2                                  #        FLASHING
001115:
001116:                                                                                                  #  BIT 1 FLAG 11 (L)(R12)


001118: 26,2022                        HFLSHFLG           =        179D                                  #        LR ALTITUDE FAIL        LR ALTITUDE FAIL
001119: 26,2022     4753               HFLSHBIT           =        BIT1                                  #        LAMP SHOULD BE          LAMP SHOULD NOT BE
001120:                                                                                                  #        FLASHING                FLASHING
001121:
001122: 26,2022     0110               RADMODES           EQUALS   FLGWRD12                              #  RADAR FLAG WORD
001123:
001124: 26,2022     0110               FLGWRD12           =        STATE      +12D                       #  (180-194)             WAS RADMODES
001125:
001126:                                                                                                  #        (SET)                   (RESET)
001127:
001128:                                                                                                  #  BIT 15 FLAG 12
001129: 26,2022                        CDESFLAG           =        180D                                  #        CONTINUOUS DESIG-       LGC CHECKS FOR LOCK-
001130: 26,2022     4735               CDESBIT            =        BIT15                                 #        NATE. LGC COMMANDS      ON WHEN ANTENNA
001131:                                                                                                  #        RR REGARDLESS OF        BEING DESIGNATED
001132:                                                                                                  #        LOCK-ON
001133:
001134:                                                                                                  #  BIT 14 FLAG 12
001135: 26,2022                        REMODFLG           =        181D                                  #        CHANGE IN ANTENNA       NO REMODE REQUESTED
001136: 26,2022     4736               REMODBIT           =        BIT14                                 #        MODE BEEN REQUESTED     OR OCCURRING
001137:                                                                                                  #        I.E., REMODE
001138:
001139:                                                                                                  #  BIT 13 FLAG 12
001140: 26,2022                        RCDU0FLG           =        182D                                  #        RR CDU'S BEING          RR CDU'S NOT BEING
001141: 26,2022     4737               RCDU0BIT           =        BIT13                                 #        ZEROED                  ZEROED
001142:
001143:                                                                                                  #  BIT 12 FLAG 12
001144: 26,2022                        ANTENFLG           =        183D                                  #        RR ANTENNA MODE IS      RR ANTENNA IN MODE 1
001145: 26,2022     4740               ANTENBIT           =        BIT12                                 #        MODE 2
001146:
001147:                                                                                                  #  BIT 11 FLAG 12
001148: 26,2022                        REPOSMON           =        184D                                  #        REPOSITION MONITOR.     NO REPOSITION TAKING
001149: 26,2022     4741               REPOSBIT           =        BIT11                                 #        RR REPOSITION IS        PLACE
001150:                                                                                                  #        TAKING PLACE
001151:
001152:                                                                                                  #  BIT 10 FLAG 12
001153: 26,2022                        DESIGFLG           =        185D                                  #        RR DESIGNATE            RR DESIGNATE NOT
001154: 26,2022     4742               DESIGBIT           =        BIT10                                 #        REQUESTED OR IN         REQUESTED OR IN
001155:                                                                                                  #        PROGRESS                PROGRESS
001156:
001157:                                                                                                  #  BIT 9 FLAG 12
001158: 26,2022                        ALTSCALE           =        186D                                  #        LR ALTITUDE READING     LR ALTITUDE READING
001159: 26,2022     4743               ALTSCBIT           =        BIT9                                  #        IS ON HIGH SCALE        IS ON LOW SCALE
001160:


001162:                                                                                                  #  BIT 8 FLAG 12
001163: 26,2022                        LRVELFLG           =        187D                                  #        LR VELOCITY DATA        NO LR VELOCITY DATA
001164: 26,2022     4744               LRVELBIT           =        BIT8                                  #        FAIL                    FAIL
001165:
001166:                                                                                                  #  BIT 7 FLAG 12
001167: 26,2022                        RCDUFAIL           =        188D                                  #        RR CDU FAIL HAS         RR CDU FAIL OCCURRED
001168: 26,2022     4745               RCDUFBIT           =        BIT7                                  #        NOT OCCURRED
001169:
001170:                                                                                                  #  BIT 6 FLAG 12
001171: 26,2022                        LRPOSFLG           =        189D                                  #        LANDING RADAR           LR POSITION 1
001172: 26,2022     4746               LRPOSBIT           =        BIT6                                  #        POSITION 2
001173:
001174:                                                                                                  #  BIT 5 FLAG 12
001175: 26,2022                        LRALTFLG           =        190D                                  #        LR ALTITUDE DATA        NO LR ALTITUDE DATA
001176: 26,2022     4747               LRALTBIT           =        BIT5                                  #        FAIL.  COULD NOT BE     FAIL
001177:                                                                                                  #        READ SUCCESSFULLY.
001178:
001179:                                                                                                  #  BIT 4 FLAG 12
001180: 26,2022                        RRDATAFL           =        191D                                  #        RR DATA FAIL.           NO RR DATA FAIL.
001181: 26,2022     4750               RRDATABT           =        BIT4                                  #        DATA COULD NOT BE
001182:                                                                                                  #        READ SUCCESSFULLY
001183:
001184:                                                                                                  #  BIT 3 FLAG 12
001185: 26,2022                        RRRSFLAG           =        192D                                  #        RR RANGE READING        RR RANGE READING ON
001186: 26,2022     4751               RRRSBIT            =        BIT3                                  #        ON THE HIGH SCALE       THE LOW SCALE
001187:
001188:                                                                                                  #  BIT 2 FLAG 12
001189: 26,2022                        AUTOMODE           =        193D                                  #        RR NOT IN AUTO MODE.    RR IN AUTO MODE
001190: 26,2022     4752               AUTOMBIT           =        BIT2                                  #        AUTO MODE DISCRETE
001191:                                                                                                  #        IS NOT PRESENT
001192:
001193:                                                                                                  #  BIT 1 FLAG 12
001194: 26,2022                        TURNONFL           =        194D                                  #        RR TURN-ON SEQUENCE     NO RR TURN-ON
001195: 26,2022     4753               TURNONBT           =        BIT1                                  #        IN PROGRESS.  (ZERO     SEQUENCE IN PROGRESS
001196:                                                                                                  #        CDU'S, FIX ANTENNA
001197:                                                                                                  #        MODE)
001198:
001199: 26,2022     0111               DAPBOOLS           EQUALS   FLGWRD13                              #  DIGITAL AUTOPILOT FLAGWORD
001200:


001202: 26,2022     0111               FLGWRD13           =        STATE      +13D                       #  (195-209)     WAS DAPBOOLS
001203:
001204:                                                                                                  #        (SET)                   (RESET)
001205:
001206:                                                                                                  #  BIT 15 FLAG 13
001207: 26,2022                        PULSEFLG           =        195D                                  #        MINIMUM IMPULSE         NOT IN MINIMUM
001208: 26,2022     4735               PULSES             =        BIT15                                 #        COMMAND MODE IN         IMPULSE COMMAND MODE
001209:                                                                                                  #        "ATT HOLD" (V76)        (V77)
001210:
001211:                                                                                                  #  BIT 14 FLAG 13
001212: 26,2022                        USEQRFLG           =        196D                                  #        GIMBAL UNUSABLE.        TRIM GIMBAL MAY BE
001213: 26,2022     4736               USEQRJTS           =        BIT14                                 #        USE JETS ONLY.          USED.
001214:
001215:                                                                                                  #  BIT 13 FLAG 13
001216: 26,2022                        CSMDKFLG           =        197D                                  #        CSM DOCKED.  USE        CSM NOT DOCKED TO LM
001217: 26,2022     4737               CSMDOCKD           =        BIT13                                 #        BACKUP DAP
001218:
001219:                                                                                                  #  BIT 12 FLAG 13
001220: 26,2022                        OURRCFLG           =        198D                                  #        CURRENT DAP PASS        CURRENT DAP PASS IS
001221: 26,2022     4740               OURRCBIT           =        BIT12                                 #        IS RATE COMMAND         NOT RATE COMMAND
001222:
001223:                                                                                                  #  BIT 11 FLAG 13
001224: 26,2022                        ACC4-2FL           =        199D                                  #        4 JET X-AXIS TRANS-     2 JET X-AXIS TRANS-
001225: 26,2022     4741               ACC4OR2X           =        BIT11                                 #        LATION REQUESTED        LATION REQUESTED
001226:
001227:                                                                                                  #  BIT 10 FLAG 13
001228: 26,2022                        AORBTFLG           =        200D                                  #        B SYSTEM FOR X-         A SYSTEM FOR X-
001229: 26,2022     4742               AORBTRAN           =        BIT10                                 #        TRANSLATION             TRANSLATION PREFER'D
001230:
001231:                                                                                                  #  BIT 9 FLAG 13
001232: 26,2022                        XOVINFLG           =        201D                                  #        X-AXIS OVERRIDE         X-AXIS OVERRIDE OKAY
001233: 26,2022     4743               XOVINHIB           =        BIT9                                  #        LOCKED OUT
001234:
001235:                                                                                                  #  BIT 8 FLAG 13
001236: 26,2022                        DRIFTDFL           =        202D                                  #        ASSUME 0 OFFSET         USE OFFSET ACCELERA-
001237: 26,2022     4744               DRIFTBIT           =        BIT8                                  #        DRIFTING FLIGHT.        TION ESTIMATE
001238:
001239:                                                                                                  #  BIT 7 FLAG 13
001240: 26,2022                        RHCSCFLG           =        203D                                  #        NORMAL RHC SCALING      FINE RHC SCALING
001241: 26,2022     4745               RHCSCALE           =        BIT7                                  #        REQUESTED               REQUESTED
001242:


001244:                                                                                                  #  BIT 6 FLAG 13
001245: 26,2022                        ULLAGFLG           =        204D                                  #        ULLAGE REQUEST BY       NO INTERNAL ULLAGE
001246: 26,2022     4746               ULLAGER            =        BIT6                                  #        MISSION PROGRAM         REQUEST
001247:
001248:                                                                                                  #  BIT 5 FLAG 13
001249: 26,2022                        AORBSFLG           =        205D                                  #        P-AXIS COUPLES 7.15     P-AXIS COUPLES 4.12
001250: 26,2022     4747               AORBSYST           =        BIT5                                  #        AND 8,16 PREFERRED      AND 3,11 PREFERRED
001251:
001252:                                                                                                  #  BIT 4 FLAG 13
001253: 26,2022                        DBSELFLG           =        206D                                  #        MAX DB SELECTED         MIN DB SELECTED BY
001254: 26,2022     4750               DBSELECT           =        BIT4                                  #        BY CREW (5 DEG)         CREW (0.3 DEG)
001255:
001256:                                                                                                  #  BIT 3 FLAG 13
001257: 26,2022                        ACCOKFLG           =        207D                                  #        CONTROL AUTHORITY       RESTART OR FRESH ST.
001258: 26,2022     4751               ACCSOKAY           =        BIT3                                  #        VALUES FROM 1/ACCS      SINCE LAST 1/ACCS;
001259:                                                                                                  #        USABLE                  OUTPUTS SUSPECT.
001260:
001261:                                                                                                  #  BIT 2 FLAG 13
001262: 26,2022                        AUTR2FLG           =        208D                                  #  THESE FLAGS ARE USED TOGETHER TO INDICAT
001263: 26,2022     4752               AUTRATE2           =        BIT2                                  #  ASTRONAUT-CHOSEN KALCMANU MANEUVER RATES
001264:                                                                                                  #  (0,0)=(BIT2,BIT1)=    0.2 DEG/SEC
001265:                                                                                                  #  (0,1)=                0.5 DEG/SEC
001266:                                                                                                  #  BIT 1 FLAG 13
001267: 26,2022                        AUTR1FLG           =        209D                                  #  (1,0)=                2.0 DEG/SEC
001268: 26,2022     4753               AUTRATE1           =        BIT1                                  #  (1,1)=               10.0 DEG/SEC
001269:


001272:

End of include-file FLAGWORD_ASSIGNMENTS.agc.  Parent file is MAIN.agc


