
Source Code


000002:                                                                                                  ## Copyright:   Public domain.
000003:                                                                                                  ## Filename:    FRESH_START_AND_RESTART.agc
000004:                                                                                                  ## Purpose:     Part of the reconstructed source code for LMY99 Rev 0,
000005:                                                                                                  ##              otherwise known as Luminary Rev 99, the second release
000006:                                                                                                  ##              of the Apollo Guidance Computer (AGC) software for Apollo 11.
000007:                                                                                                  ##              It differs from LMY99 Rev 1 (the flown version) only in the
000008:                                                                                                  ##              placement of a single label. The corrections shown here have
000009:                                                                                                  ##              been verified to have the same bank checksums as AGC developer
000010:                                                                                                  ##              Allan Klumpp's copy of Luminary Rev 99, and so are believed
000011:                                                                                                  ##              to be accurate. This file is intended to be a faithful
000012:                                                                                                  ##              recreation, except that the code format has been changed to
000013:                                                                                                  ##              conform to the requirements of the yaYUL assembler rather than
000014:                                                                                                  ##              the original YUL assembler.
000015:                                                                                                  ##
000016:                                                                                                  ## Assembler:   yaYUL
000017:                                                                                                  ## Contact:     Hartmuth Gutsche <hgutsche@xplornet.com>.
000018:                                                                                                  ## Website:     www.ibiblio.org/apollo.
000019:                                                                                                  ## Pages:       211-237
000020:                                                                                                  ## Mod history: 2009-05-19 HG   Transcribed from page images.
000021:                                                                                                  ##              2010-12-31 JL   Fixed page number comments.
000022:                                                                                                  ##              2011-01-06 JL   Fixed pseudo-label indentation.
000023:                                                                                                  ##              2011-01-06 JL   Added missing comment characters.
000024:                                                                                                  ##              2016-12-13 RSB  Proofed text comments with octopus/ProoferComments
000025:                                                                                                  ##                              and corrected the errors found.
000026:                                                                                                  ##              2016-12-13 RSB  GOTOP00H -> GOTOPOOH
000027:                                                                                                  ##              2017-03-13 RSB  Comment-text fixes noted in proofing Luminary 116.
000028:                                                                                                  ##              2017-08-01 MAS  Created from LMY99 Rev 1, and modified to make
000029:                                                                                                  ##                              equivalent to LMY99 Rev 0 / Luminary Rev 99.
000030:                                                                                                  ##              2017-08-15 RSB  Comment-text fixes identified in proofing vs AP11ROPE.
000031:                                                                                                  ##              2017-08-19 MAS  Fixed a label error found transcribing Zerlina 56.
000032:                                                                                                  ##              2021-05-30 ABS  00 -> OO in various symbol names.
000033:                                                                                                  ##                              CANTROD -> CANTROO
000034:
000035:                                                                                                  ## This source code has been transcribed or otherwise adapted from
000036:                                                                                                  ## digitized images of a hardcopy from the MIT Museum.  The digitization
000037:                                                                                                  ## was performed by Paul Fjeld, and arranged for by Deborah Douglas of
000038:                                                                                                  ## the Museum.  Many thanks to both.  The images (with suitable reduction
000039:                                                                                                  ## in storage size and consequent reduction in image quality as well) are
000040:                                                                                                  ## available online at www.ibiblio.org/apollo.  If for some reason you
000041:                                                                                                  ## find that the images are illegible, contact me at info@sandroid.org
000042:                                                                                                  ## about getting access to the (much) higher-quality images which Paul
000043:                                                                                                  ## actually created.
000044:                                                                                                  ##
000045:                                                                                                  ## The code has been modified to match LMY99 Revision 0, otherwise
000046:                                                                                                  ## known as Luminary Revision 99, the Apollo 11 software release preceeding
000047:                                                                                                  ## the listing from which it was transcribed. It has been verified to
000048:                                                                                                  ## contain the same bank checksums as AGC developer Allan Klumpp's listing
000049:                                                                                                  ## of Luminary Revision 99 (for which we do not have scans).
000050:                                                                                                  ##
000051:                                                                                                  ## Notations on Allan Klumpp's listing read, in part:
000052:                                                                                                  ##
000053:                                                                                                  ##      ASSEMBLE REVISION 099 OF AGC PROGRAM LUMINARY BY NASA 2021112-51
000054:


000056: 10,2000                                           BANK     10
000057: 05,2000                                           SETLOC   FRANDRES
000058: 05,2000                                           BANK
000059:
000060: 05,2447  E3,1400                                  EBANK=   LST1
000061:
000062: 05,2447                                           COUNT*   $$/START                              #  FRESH AND RESTART
000063: 05,2447           00004        SLAP1              INHINT                                         #  FRESH START.  COMES HERE FROM PINBALL.
000064: 05,2450           03107                           TC       STARTSUB                              #  SUBROUTINE DOES MOST OF THE WORK.
000065:
000066: 05,2451           12456        STARTSW            TCF      SKIPSIM                               #  PATCH....TCF STARTSIM...FOR SIMULATION
000067: 05,2452           34736        STARTSIM           CAF      BIT14
000068: 05,2453           05105                           TC       FINDVAC
000069: 05,2454           77777        SIM2CADR           OCT      77777                                 #  PATCH 2CADR (AND EBANK DESIGNATION) OF
000070: 05,2455           77777                           OCT      77777                                 #  SIMULATION START ADDRESS.
000071:
000072: 05,2456           31036        SKIPSIM            CA       DSPTAB     +11D                       #  TURN OFF ALL DSPTAB +11D LAMPS
000073: 05,2457           74771                           MASK     BITS4&6                               #  EXCEPT THE GIMBAL LOCK & NO ATT ONLY ON
000074: 05,2460           64735                           AD       BIT15                                 #  REQUESTED FRESH START.
000075: 05,2461           55036                           TS       DSPTAB     +11D
000076:
000077: 05,2462           34740                           CA       BIT12                                 #  INITIALIZE DOWNLINK ERASABLE MEMORY
000078: 05,2463           54333                           TS       DUMPCNT                               #  DUMP FOR ONE PASS.
000079:
000080: 05,2464           34755                           CA       ZERO
000081: 05,2465           55365                           TS       ERCOUNT
000082: 05,2466           54375                           TS       FAILREG
000083: 05,2467           54376                           TS       FAILREG    +1
000084: 05,2470           54377                           TS       FAILREG    +2
000085: 05,2471           54320                           TS       REDOCTR
000086:
000087: 05,2472           44644                           CS       PRIO12
000088: 05,2473           55313                           TS       DSRUPTSW
000089:
000090: 05,2474           34736        DOFSTART           CAF      BIT14                                 #  INSURE ENGINE IS OFF.
000091: 05,2475           00006                           EXTEND
000092: 05,2476           01011                           WRITE    DSALMOUT
000093: 05,2477           44755                           CS       ZERO
000094: 05,2500           54055                           TS       THRUST
000095:
000096: 05,2501           34751        DOFSTRT1           CAF      FOUR
000097: 05,2502           55273                           TS       RCSFLAGS                              #  INITIALIZE ATTITUDE ERROR DISPLAYS.
000098: 05,2503           34355                           CA       PRIO30
000099: 05,2504           54366                           TS       RESTREG                               #  SUPER BANK PRIORITY FOR DISPLAYS.
000100:
000101: 05,2505           34755                           CA       ZERO
000102: 05,2506           55246                           TS       ABDELV                                #  DAP INITIALIZATION
000103: 05,2507           54371                           TS       NVSAVE
000104: 05,2510           55072                           TS       EBANKTEM


000106: 05,2511           55262                           TS       CH5MASK
000107: 05,2512           55263                           TS       CH6MASK
000108: 05,2513           55276                           TS       PVALVEST                              #  FOR RCS FAILURE MONITOR
000109: 05,2514           55360                           TS       ERESTORE                              #  ***** MUST NOT BE REMOVED FROM DOFSTART
000110: 05,2515           55362                           TS       SMODE                                 #  ***** MUST NOT BE REMOVED FROM DOFSTART
000111: 05,2516           54332                           TS       DNLSTCOD                              #  SELECT POO DOWNLIST
000112: 05,2517           55324                           TS       AGSWORD                               #  ALLOW AGS INITIALIZATION
000113: 05,2520           55501                           TS       UPSVFLAG                              #  ZERO UPDATE STATE VECTOR REQUEST FLAGWRD
000114: 05,2521           00006                           EXTEND
000115: 05,2522           01005                           WRITE    CHAN5                                 #  TURN OFF RCS JETS.
000116: 05,2523           00006                           EXTEND
000117: 05,2524           01006                           WRITE    CHAN6                                 #  TURN OFF RCS JETS.
000118: 05,2525           00006                           EXTEND
000119: 05,2526           01012                           WRITE    CHAN12
000120: 05,2527           00006                           EXTEND
000121: 05,2530           01013                           WRITE    CHAN13
000122: 05,2531           00006                           EXTEND
000123: 05,2532           01014                           WRITE    CHAN14
000124: 05,2533           41036                           CS       DSPTAB     +11D
000125: 05,2534           74771                           MASK     BITS4&6
000126: 05,2535           10000                           CCS      A
000127: 05,2536           02542                           TC       +4
000128: 05,2537           34771                           CA       BITS4&6
000129: 05,2540           00006                           EXTEND                                         #  THE IMU WAS IN COARSE ALIGN IN GIMBAL
000130: 05,2541           05012                           WOR      CHAN12                                #  LOCK, SO PUT IT BACK INTO COARSE ALIGN.
000131: 05,2542           02643                 +4        TC       MR.KLEAN
000132:
000133: 05,2543           44755                           CS       ZERO
000134: 05,2544           55011                           TS       MODREG
000135:
000136: 05,2545           33362                           CAF      IM30INIF                              #  FRESH START IMU INITIALIZATION.
000137: 05,2546           55302                           TS       IMODES30
000138:
000139: 05,2547           33067                           CAF      MAXDB
000140: 05,2550           55346                           TS       DB
000141: 05,2551           34751                           CAF      FOUR
000142: 05,2552           55325                           TS       RATEINDX                              #  INITIALIZE KALCMANU RATE
000143: 05,2553           33063                           CA       BOOLSTRT
000144: 05,2554           54111                           TS       DAPBOOLS
000145: 05,2555           35015                           CAF      EBANK6
000146: 05,2556           54003                           TS       EBANK
000147: 05,2557  E6,1400                                  EBANK=   HIASCENT
000148:
000149: 05,2557           33060                           CA       STIKSTRT
000150: 05,2560           55444                           TS       STIKSENS
000151: 05,2561           33061                           CA       RATESTRT
000152: 05,2562           55476                           TS       -RATEDB
000153: 05,2563           32000                           CAF      FULLAPS                               #  INITIALIZE MAXIMUM ASCENT MASS FOR USE
000154: 05,2564           55400                           TS       HIASCENT                              #    BY 1/ACCS UNTIL THE PAD LOAD IS DONE.
000155: 05,2565           33064                           CA       77001OCT                              #      LOAD DAP FILTER GAINS PAD LOAD


000157: 05,2566           55403                           TS       DKTRAP                                #        TO BEST PRESENT ESTIMATE OF GOODIES
000158: 05,2567           55406                           TS       LMTRAP                                #  .14 DEG
000159: 05,2570           33065                           CA       60DEC
000160: 05,2571           55405                           TS       DKKAOSN
000161: 05,2572           55410                           TS       LMKAOSN                               #  6 SEC GAIN FOR ALPHA
000162: 05,2573           34755                           CA       ZERO
000163: 05,2574           55407                           TS       LMOMEGAN                              #  UNITY GAIN
000164: 05,2575           34363                           CA       TEN
000165: 05,2576           55404                           TS       DKOMEGAN                              #  1 SEC GAIN FOR OMEGA
000166: 05,2577           34744                           CAF      BIT8                                  #  SET DOCKED DB TO 1.4 DEG.  MAY OVERWRITE
000167: 05,2600           55411                           TS       DKDB                                  #        WITH PAD LOAD.
000168: 05,2601           35026                           CAF      IM33INIT
000169: 05,2602           64746                           AD       BIT6                                  #  KEEP BOTH DAP AND ERROR-NEEDLES DISPLAY
000170: 05,2603           55303                           TS       IMODES33                              #        OFF UNTIL ICDU ZERO IS FINISHED.
000171:
000172: 05,2604           00006                           EXTEND                                         #  INITIALIZE SWITCHES ONLY ON FRESH START.
000173: 05,2605           33367                           DCA      SWINIT
000174: 05,2606           52075                           DXCH     STATE
000175: 05,2607           33370                           CA       SWINIT     +2
000176: 05,2610           54076                           TS       STATE      +2
000177: 05,2611           34737                           CA       REFSMBIT                              #  DO NOT ALTER REFSMFLG ON FRESH START.
000178: 05,2612           70077                           MASK     STATE      +3
000179: 05,2613           63371                           AD       SWINIT     +3
000180: 05,2614           54077                           TS       STATE      +3
000181: 05,2615           00006                           EXTEND
000182: 05,2616           33373                           DCA      SWINIT     +4
000183: 05,2617           52101                           DXCH     STATE      +4
000184: 05,2620           00006                           EXTEND
000185: 05,2621           33375                           DCA      SWINIT     +6
000186: 05,2622           52103                           DXCH     STATE      +6
000187: 05,2623           34744                           CA       SURFFBIT                              #  DO NOT ALTER  SURFFLAG ON FRESH START.
000188: 05,2624           64740                           AD       CMOONBIT                              #                CMOONFLG
000189: 05,2625           64741                           AD       LMOONBIT                              #                LMOONFLG
000190: 05,2626           70104                           MASK     STATE      +8D
000191: 05,2627           63376                           AD       SWINIT     +8D
000192: 05,2630           54104                           TS       STATE      +8D
000193: 05,2631           33377                           CA       SWINIT     +9D
000194: 05,2632           54105                           TS       STATE      +9D
000195: 05,2633           34737                           CA       APSFLBIT                              #  DO NOT ALTER APSFLAG ON FRESH START.
000196: 05,2634           70106                           MASK     STATE      +10D
000197: 05,2635           63400                           AD       SWINIT     +10D
000198: 05,2636           54106                           TS       STATE      +10D
000199: 05,2637           33401                           CAF      SWINIT     +11D
000200: 05,2640           54107                           TS       STATE      +11D
000201:
000202: 05,2641           04635        ENDRSTRT           TC       POSTJUMP                              #  NOW IN ANOTHER BANK.
000203: 05,2642           03210                           CADR     DUMMYJOB   +2                         #  PICKS UP AT RELINT.   (DONT ZERO NEWJOB)
000204:
000205: 05,2643           00004        MR.KLEAN           INHINT


000207: 05,2644           00006                           EXTEND
000208: 05,2645           34755                           DCA      NEG0
000209: 05,2646           52755                           DXCH     -PHASE2
000210: 05,2647           00006        POOKLEAN           EXTEND
000211: 05,2650           34755                           DCA      NEG0
000212: 05,2651           52761                           DXCH     -PHASE4
000213: 05,2652           00006        V37KLEAN           EXTEND
000214: 05,2653           34755                           DCA      NEG0
000215: 05,2654           52753                           DXCH     -PHASE1
000216: 05,2655           00006                           EXTEND
000217: 05,2656           34755                           DCA      NEG0
000218: 05,2657           52757                           DXCH     -PHASE3
000219: 05,2660           00006                           EXTEND
000220: 05,2661           34755                           DCA      NEG0
000221: 05,2662           52763                           DXCH     -PHASE5
000222: 05,2663           00006                           EXTEND
000223: 05,2664           34755                           DCA      NEG0
000224: 05,2665           52765                           DXCH     -PHASE6
000225: 05,2666           00002                           TC       Q
000226:


000228:                                                                                                  #  COMES HERE FROM LOCATION 4000, GOJAM. RESTART ANY PROGRAMS WHICH MAY HAVE BEEN RUNNING AT THE TIME
000229:
000230: 05,2667  E3,1400                                  EBANK=   LST1
000231: 05,2667           24320        GOPROG             INCR     REDOCTR                               #  ADVANCE RESTART COUNTER.
000232:
000233: 05,2670           22002                           LXCH     Q
000234: 05,2671           00006                           EXTEND
000235: 05,2672           04007                           ROR      SUPERBNK
000236: 05,2673           53433                           DXCH     RSBBQ
000237: 05,2674           31036                           CA       DSPTAB     +11D
000238: 05,2675           74750                           MASK     BIT4
000239: 05,2676           00006                           EXTEND
000240: 05,2677           12703                           BZF      +4
000241: 05,2700           64746                           AD       BIT6                                  #  SET ERROR COUNTER ENABLE
000242: 05,2701           00006                           EXTEND
000243: 05,2702           05012                           WOR      CHAN12                                #  ISS WAS IN COARS ALIGN SO GO BACK TO
000244: 05,2703           03070        BUTTONS            TC       LIGHTSET
000245:
000246:                                                                                                  #  ERASCHK TEMPORARILY STORES THE CONTENTS OF TWO ERASABLE LOCATIONS, X
000247:                                                                                                  #  AND X+1 INTO SKEEP5 AND SKEEP6.  IT ALSO STORES X INTO SKEEP7 AND
000248:                                                                                                  #  ERESTORE.  IF ERASCHK IS INTERRUPTED BY A RESTART, C(ERESTORE) SHOULD
000249:                                                                                                  #  EQUAL C(SKEEP7), AND BE A + NUMBER LESS THAN 2000 OCT.  OTHERWISE
000250:                                                                                                  #  C(ERESTORE) SHOULD EQUAL +0.
000251:
000252: 05,2704           34350                           CAF      HI5
000253: 05,2705           71360                           MASK     ERESTORE
000254: 05,2706           00006                           EXTEND
000255: 05,2707           12711                           BZF      +2                                    #  IF ERESTORE NOT = +0 OR +N LESS THAN 2K,
000256: 05,2710           13105                           TCF      NONAVKEY   +3                         #  DO FRESH START - E MEMORY MIGHT BE BAD
000257: 05,2711           41360                           CS       ERESTORE
000258: 05,2712           00006                           EXTEND
000259: 05,2713           12730                           BZF      DORSTART                              #  = +0 CONTINUE WITH RESTART.
000260: 05,2714           61377                           AD       SKEEP7
000261: 05,2715           00006                           EXTEND
000262: 05,2716           12720                           BZF      +2                                    #  = SKEEP7, RESTORE E MEMORY.
000263: 05,2717           13105                           TCF      NONAVKEY   +3                         #  DO FRESH START - E MEMORY MIGHT BE BAD
000264: 05,2720           31374                           CA       SKEEP4
000265: 05,2721           54003                           TS       EBANK                                 #  EBANK OF E MEMORY THAT WAS UNDER TEST.
000266: 05,2722           00006                           EXTEND                                         #  (NOT DXCH SINCE THIS MIGHT HAPPEN AGAIN)
000267: 05,2723           31376                           DCA      SKEEP5
000268: 05,2724           51377                           INDEX    SKEEP7
000269: 05,2725           52001                           DXCH     0000                                  #  E MEMORY RESTORED.
000270: 05,2726           34755                           CA       ZERO
000271: 05,2727           55360                           TS       ERESTORE
000272: 05,2730           03107        DORSTART           TC       STARTSUB                              #  DO INITIALIZATION AFTER ERASE RESTORE.
000273:
000274: 05,2731           44736        SETINFL            CS       INTFLBIT
000275: 05,2732           70106                           MASK     FLGWRD10
000276: 05,2733           54106                           TS       FLGWRD10


000278: 05,2734           33364                           CA       9,6,4                                 #  LEAVE PROG ALARM, GIMBAL LOCK, NO ATT
000279: 05,2735           71036                           MASK     DSPTAB     +11D                       #  LAMPS INTACT ON HARDWARE RESTART
000280: 05,2736           64735                           AD       BIT15
000281: 05,2737           57036                           XCH      DSPTAB     +11D
000282: 05,2740           33350                           CAF      IFAILINH                              #  LEAVE IMU FAILURE INHIBITS INTACT ON
000283: 05,2741           71302                           MASK     IMODES30                              #  HARDWARE RESTART. RESET ALL FAILURE
000284: 05,2742           63363                           AD       IM30INIR                              #  CODES.
000285: 05,2743           55302                           TS       IMODES30
000286:
000287: 05,2744           31324                           CA       AGSWORD                               #  BE SURE OF CORRECT DOWNLIST
000288: 05,2745           54332                           TS       DNLSTCOD
000289:
000290: 05,2746           34750                           CA       BIT4                                  #  TURN ON THROTTLE COUNTER
000291: 05,2747           00006                           EXTEND
000292: 05,2750           05014                           WOR      CHAN14                                #  TURN ON THRUST DRIVE
000293: 05,2751           40101                           CS       FLAGWRD5
000294: 05,2752           74745                           MASK     ENGONBIT
000295: 05,2753           10000                           CCS      A
000296: 05,2754           12761                           TCF      +5
000297: 05,2755           34737                           CAF      BIT13
000298: 05,2756           00006                           EXTEND
000299: 05,2757           05011                           WOR      DSALMOUT                              #  TURN ENGINE ON
000300: 05,2760           12775                           TCF      GOPROG3
000301: 05,2761           34736                 +5        CAF      BIT14
000302: 05,2762           00006                           EXTEND
000303: 05,2763           05011                           WOR      DSALMOUT                              #  TURN ENGINE OFF.
000304: 05,2764           12775                           TCF      GOPROG3
000305:
000306: 05,2765           00004        ENEMA              INHINT
000307: 05,2766           03124                           TC       STARTSB1
000308: 05,2767           12771                           TCF      GOPROG2A
000309: 05,2770           03146        GOPROG2            TC       STARTSB2
000310: 05,2771           03070        GOPROG2A           TC       LIGHTSET
000311: 05,2772           43066                           CS       RSFLGBTS                              #  CLEAR BITS 7 AND 14.
000312: 05,2773           70106                           MASK     FLGWRD10
000313: 05,2774           54106                           TS       FLGWRD10
000314:
000315: 05,2775           34756        GOPROG3            CAF      NUMGRPS                               #  VERIFY PHASE TABLE AGREEMENTS
000316: 05,2776           54161        PCLOOP             TS       MPAC       +5
000317: 05,2777           60000                           DOUBLE
000318: 05,3000           00006                           EXTEND
000319: 05,3001           50000                           INDEX    A
000320: 05,3002           30753                           DCA      -PHASE1                               #  COMPLEMENT INTO A, DIRECT INTO L.
000321: 05,3003           00006                           EXTEND
000322: 05,3004           06001                           RXOR     LCHAN                                 #  RESULT MUST BE -0 FOR AGREEMENT.
000323: 05,3005           10000                           CCS      A
000324: 05,3006           13054                           TCF      PTBAD                                 #  RESTART FAILURE.
000325: 05,3007           13054                           TCF      PTBAD
000326: 05,3010           13054                           TCF      PTBAD


000328: 05,3011           10161                           CCS      MPAC       +5                         #  PROCESS ALL RESTART GROUPS.
000329: 05,3012           12776                           TCF      PCLOOP
000330:
000331: 05,3013           54162                           TS       MPAC       +6                         #  SET TO +0.
000332: 05,3014           05315                           TC       MMDSPLAY                              #  DISPLAY MAJOR MODE
000333:
000334: 05,3015           00004                           INHINT                                         #  RELINT DONE IN MMDSPLAY
000335:
000336: 05,3016           44736                           CS       DIDFLBIT                              #  CLEAR DIDFLAG IN ORDER TO FORCE R10 TO
000337: 05,3017           70075                           MASK     FLAGWRD1                              #  RE-INITIALIZE ITSELF IF IT HAD BEEN
000338: 05,3020           54075                           TS       FLAGWRD1                              #  OPERATING AT THE TIME OF THE RESTART.
000339:
000340: 05,3021           44740                           CS       RODFLBIT                              #  CLEAR RODFLAG.  IF P66 IS IN OPERATION
000341: 05,3022           70075                           MASK     FLAGWRD1                              #        IT WILL RE-INITIALIZE ITSELF AND
000342: 05,3023           54075                           TS       FLAGWRD1                              #        CONTINUE.
000343:
000344: 05,3024           44741                           CS       P21FLBIT                              #  CLEAR P21 FLAG SO THAT P21 WILL COMPUTE
000345: 05,3025           70074                           MASK     FLAGWRD0                              #  NEW BASE STATE VECTORS.
000346: 05,3026           54074                           TS       FLAGWRD0
000347:
000348: 05,3027           34756                           CAF      NUMGRPS                               #  SEE IF ANY GROUPS RUNNING.
000349: 05,3030           54161        NXTRST             TS       MPAC       +5
000350: 05,3031           60000                           DOUBLE
000351: 05,3032           50000                           INDEX    A
000352: 05,3033           10753                           CCS      PHASE1
000353: 05,3034           13036                           TCF      PACTIVE                               #  PNZ - GROUP ACTIVE.
000354: 05,3035           13043                           TCF      PINACT                                #  +0 - GROUP NOT RUNNING.
000355:
000356: 05,3036           54154        PACTIVE            TS       MPAC
000357: 05,3037           24154                           INCR     MPAC                                  #  ABS OF PHASE.
000358: 05,3040           24162                           INCR     MPAC       +6                         #  INDICATE GROUP DEMANDS PRESENT.
000359: 05,3041           33062                           CA       RACTCADR
000360: 05,3042           04622                           TC       SWCALL                                #  MUST RETURN TO SWRETURN.
000361:
000362: 05,3043           10161        PINACT             CCS      MPAC       +5                         #  PROCESS ALL RESTART GROUPS.
000363: 05,3044           13030                           TCF      NXTRST
000364:
000365: 05,3045           10162                           CCS      MPAC       +6                         #  NO, CHECK PHASE ACTIVITY FLAG
000366: 05,3046           12641                           TCF      ENDRSTRT                              #  PHASE ACTIVE
000367: 05,3047           34735                           CAF      BIT15                                 #  IS MODE -0
000368: 05,3050           71011                           MASK     MODREG
000369: 05,3051           00006                           EXTEND
000370: 05,3052           16001                           BZF      GOTOPOOH                              #  NO
000371: 05,3053           12641                           TCF      ENDRSTRT                              #  YES
000372: 05,3054           05567        PTBAD              TC       ALARM                                 #  SET ALARM TO SHOW PHASE TABLE FAILURE.
000373: 05,3055           01107                           OCT      1107
000374:
000375: 05,3056           12501                           TCF      DOFSTRT1
000376:                                                                                                  # ******** ****** ******


000378:                                                                                                  #  DO NOT USE GOPROG2 OR ENEMA WITHOUT CONSULTING POOH PEOPLE
000379:
000380: 05,3057     4737               OCT10000           =        BIT13
000381: 05,3057     4355               OCT30000           =        PRIO30
000382: 05,3057           07777        OCT7777            OCT      7777
000383: 05,3060           32321        STIKSTRT           DEC      0.825268                              #  20 D/S MAXIMUM COMMANDED RATE
000384: 05,3061           77445        RATESTRT           DEC      -218       B-14
000385: 05,3062           03526        RACTCADR           CADR     RESTARTS
000386: 05,3063           21312        BOOLSTRT           OCT      21312
000387: 05,3064           77001        77001OCT           OCT      77001                                 #  .14 DEG SCALED AT 4.5 DEG
000388: 05,3065           00074        60DEC              DEC      60         B-14
000389: 05,3066           20100        RSFLGBTS           OCT      20100
000390: 05,3067           03434        MAXDB              OCTAL    03434                                 #  5 DEG ATTITUDE DEADBAND, SCALED AT 45.
000391:
000392: 05,3070           34747        LIGHTSET           CAF      BIT5                                  #  CHECK FOR MARK REJECT AND ERROR RESET
000393: 05,3071           00006                           EXTEND
000394: 05,3072           02016                           RAND     NAVKEYIN
000395: 05,3073           00006                           EXTEND
000396: 05,3074           13102                           BZF      NONAVKEY                              #  NO MARK REJECT
000397: 05,3075           00006                           EXTEND
000398: 05,3076           00015                           READ     MNKEYIN                               #  CHECK IF KEYS 2M AND 5M ON
000399: 05,3077           63361                           AD       -ELR                                  #  MAIN DSKY KEYCODE (BITS 1-5)
000400: 05,3100           00006                           EXTEND
000401: 05,3101           13103                           BZF      +2
000402:
000403: 05,3102           00002        NONAVKEY           TC       Q
000404:
000405: 05,3103           03107                           TC       STARTSUB
000406: 05,3104           12474                           TCF      DOFSTART
000407: 05,3105           03107                 +3        TC       STARTSUB
000408: 05,3106           12501                           TCF      DOFSTRT1                              #  DO FRESH START BUT DON'T TOUCH ENGINE
000409:


000411:                                                                                                  #  INITIALIZATION COMMON TO BOTH FRESH START AND RESTART.
000412:
000413: 05,3107  E6,1537                                  EBANK=   AOSQ
000414: 05,3107           33351        STARTSUB           CAF      LDNPHAS1                              #  SET POINTER SO NEXT 20MS DOWNRUPT WILL
000415: 05,3110           54335                           TS       DNTMGOTO                              #  CAUSE THE CURRENT DOWNLIST TO BE
000416:                                                                                                  #  INTERRUPTED AND START SENDING FROM THE
000417:                                                                                                  #  BEGINNING OF THE CURRENT DOWNLIST.
000418: 05,3111           34746                           CAF      BIT6
000419: 05,3112           00006                           EXTEND
000420: 05,3113           02033                           RAND     CHAN33
000421: 05,3114           63365                           AD       RMODINIT
000422: 05,3115           54110                           TS       RADMODES
000423:


000426: 05,3116           34733                           CAF      POSMAX
000427: 05,3117           54026                           TS       TIME3
000428: 05,3120           67746                           AD       MINUS2
000429: 05,3121           54027                           TS       TIME4
000430: 05,3122           67747                           AD       NEGONE
000431: 05,3123           54030                           TS       TIME5
000432:
000433: 05,3124           35015        STARTSB1           CAF      EBANK6
000434: 05,3125           54003                           TS       EBANK
000435:
000436: 05,3126           44737                           CS       BIT13                                 #  CAUSE DAPIDLER TO CALL 1/ACCS
000437: 05,3127           71273                           MASK     RCSFLAGS
000438: 05,3130           55273                           TS       RCSFLAGS                              #  ZERO BIT 13
000439: 05,3131           34733                           CAF      POSMAX                                #  DISABLE TIME6 CLOCK.  JUST IN CASE A T6
000440: 05,3132           55466                           TS       T6NEXT                                #        RUPT IS ALREADY IN THE PRIORITY CHAIN,
000441: 05,3133           00006                           EXTEND                                         #        ENSURE THAT IT'S INPUTS WILL RENDER IT
000442: 05,3134           03013                           WAND     CHAN13                                #        INEFFECTUAL.
000443: 05,3135           34755                           CAF      ZERO
000444: 05,3136           55465                           TS       NXT6ADR
000445: 05,3137           55472                           TS       NEXTP
000446:
000447: 05,3140           44751                           CS       ACCSOKAY
000448: 05,3141           70111                           MASK     DAPBOOLS
000449: 05,3142           54111                           TS       DAPBOOLS
000450:
000451: 05,3143           00006                           EXTEND                                         #  SET T5RUPT FOR DAPIDLER PROGRAM.
000452: 05,3144           33347                           DCA      IDLEADR
000453: 05,3145           53275                           DXCH     T5ADR
000454:
000455: 05,3146           33360        STARTSB2           CAF      OCT30001                              #  DURING SOFTWARE RESTART, DO NOT DISTURB
000456: 05,3147           00006                           EXTEND                                         #  ENGINE ON, OFF AND ISS WARNING.
000457: 05,3150           03011                           WAND     DSALMOUT
000458:
000459: 05,3151           44743                           CS       READRBIT                              #  CLEAR READRFLG FOR R29.
000460: 05,3152           70077                           MASK     FLAGWRD3
000461: 05,3153           54077                           TS       FLAGWRD3


000463:
000464: 05,3154           40077                           CS       FLAGWRD3                              #  DURING SOFTWARE RESTART, CLEAR TURNON,
000465: 05,3155           74741                           MASK     NR29FBIT                              #  REPOSITION, CDU ZERO AND REMODE BITS
000466: 05,3156           00006                           EXTEND                                         #  IN RADMODES, SINCE TASKS ASSOCIATED
000467: 05,3157           13161                           BZF      +2                                    #  WITH THESE BITS HAVE BEEN KILLED
000468: 05,3160           34742                           CAF      BIT10                                 #  ALSO IF R29 HAD BEEN REQUESTED,
000469: 05,3161           63354                           AD       OCT32001                              #  (NOR29FLG = 0) CLEAR BIT 10 RADMODES
000470: 05,3162           40000                           COM                                            #  TO MAKE R29 FORGET IT HAD STARTED
000471: 05,3163           70110                           MASK     RADMODES                              #  DESIGNATING
000472: 05,3164           54110                           TS       RADMODES
000473: 05,3165           33356                           CAF      OCT27470                              #  DURING SOFTWARE RESTART, DO NOT DISTURB
000474: 05,3166           00006                           EXTEND                                         #  IMU FLAGS.  (COURSE ALIGN ENABLE, ZERO
000475: 05,3167           03012                           WAND     CHAN12                                #  IMU CDUS, ENABLE IMU COUNTER) AND GIMBAL
000476:                                                                                                  #  TRIM DRIVES.  LEAVE RR LOCKON ENABLE
000477:                                                                                                  #  ALONE.
000478:
000479: 05,3170           44750                           CS       NORRMBIT                              #  ENABLE R25.
000480: 05,3171           70101                           MASK     FLAGWRD5
000481: 05,3172           54101                           TS       FLAGWRD5
000482:
000483: 05,3173           44741                           CS       R77FLBIT                              #  CLEAR R77FLAG
000484: 05,3174           70101                           MASK     FLAGWRD5
000485: 05,3175           54101                           TS       FLAGWRD5
000486: 05,3176           33357                           CAF      OCT74160                              #  DURING SOFTWARE RESTART, DO NOT DUSTURB
000487: 05,3177           00006                           EXTEND                                         #  TELEMETRY FLAGS, RESET TRAP FLAGS, AND
000488: 05,3200           03013                           WAND     CHAN13                                #  ENABLE T6RUPT FLAG.
000489:
000490: 05,3201           34740                           CAF      BIT12                                 #  REENABLE RUPT10 (RUPT QUICKLY
000491: 05,3202           00006                           EXTEND                                         #        RESUMES EXCEPT DURING P64)
000492: 05,3203           05013                           WOR      CHAN13
000493:
000494: 05,3204           34746                           CAF      BIT6                                  #  DURING SOFTWARE RESTART, DO NOT DISTURB
000495: 05,3205           00006                           EXTEND                                         #  GYRO ENABLE FLAG.
000496: 05,3206           03014                           WAND     CHAN14
000497:
000498: 05,3207  E3,1400                                  EBANK=   LST1
000499: 05,3207           35007                           CAF      STARTEB
000500: 05,3210           54003                           TS       EBANK                                 #  SET FOR E3
000501:
000502: 05,3211           34734                           CAF      NEG1/2                                #  INITIALIZE WAITLIST DELTA-TS.
000503: 05,3212           55407                           TS       LST1       +7
000504: 05,3213           55406                           TS       LST1       +6
000505: 05,3214           55405                           TS       LST1       +5
000506: 05,3215           55404                           TS       LST1       +4
000507: 05,3216           55403                           TS       LST1       +3
000508: 05,3217           55402                           TS       LST1       +2
000509: 05,3220           55401                           TS       LST1       +1
000510: 05,3221           55400                           TS       LST1
000511:
000512: 05,3222           45236                           CS       ENDTASK
000513: 05,3223           55410                           TS       LST2


000515: 05,3224           55412                           TS       LST2       +2
000516: 05,3225           55414                           TS       LST2       +4
000517: 05,3226           55416                           TS       LST2       +6
000518: 05,3227           55420                           TS       LST2       +8D
000519: 05,3230           55422                           TS       LST2       +10D
000520: 05,3231           55424                           TS       LST2       +12D
000521: 05,3232           55426                           TS       LST2       +14D
000522: 05,3233           55430                           TS       LST2       +16D
000523: 05,3234           45237                           CS       ENDTASK    +1
000524: 05,3235           55411                           TS       LST2       +1
000525: 05,3236           55413                           TS       LST2       +3
000526: 05,3237           55415                           TS       LST2       +5
000527: 05,3240           55417                           TS       LST2       +7
000528: 05,3241           55421                           TS       LST2       +9D
000529: 05,3242           55423                           TS       LST2       +11D
000530: 05,3243           55425                           TS       LST2       +13D
000531: 05,3244           55427                           TS       LST2       +15D
000532: 05,3245           55431                           TS       LST2       +17D
000533:
000534: 05,3246           44755                           CS       ZERO                                  #  MAKE ALL EXECUTIVE REGISTER SETS
000535: 05,3247           54167                           TS       PRIORITY                              #  AVAILABLE.
000536: 05,3250           54203                           TS       PRIORITY   +12D
000537: 05,3251           54217                           TS       PRIORITY   +24D
000538: 05,3252           54233                           TS       PRIORITY   +36D
000539: 05,3253           54247                           TS       PRIORITY   +48D
000540: 05,3254           54263                           TS       PRIORITY   +60D
000541: 05,3255           54277                           TS       PRIORITY   +72D
000542: 05,3256           54313                           TS       PRIORITY   +84D
000543:
000544: 05,3257           55313                           TS       DSRUPTSW
000545: 05,3260           54067                           TS       NEWJOB                                #  SHOWS NO ACTIVE JOBS.
000546:
000547: 05,3261           33353                           CAF      VAC1ADRC                              #  MAKE ALL VAC AREAS AVAILABLE.
000548: 05,3262           54400                           TS       VAC1USE
000549: 05,3263           63355                           AD       LTHVACA
000550: 05,3264           54454                           TS       VAC2USE
000551: 05,3265           63355                           AD       LTHVACA
000552: 05,3266           54530                           TS       VAC3USE
000553: 05,3267           63355                           AD       LTHVACA
000554: 05,3270           54604                           TS       VAC4USE
000555: 05,3271           63355                           AD       LTHVACA
000556: 05,3272           54660                           TS       VAC5USE
000557:
000558: 05,3273           34363                           CAF      TEN
000559: 05,3274           54154        DSPOFF             TS       MPAC                                  #  R1, R2, R3).
000560: 05,3275           44740                           CS       BIT12
000561: 05,3276           50154                           INDEX    MPAC
000562: 05,3277           55023                           TS       DSPTAB
000563: 05,3300           10154                           CCS      MPAC
000564: 05,3301           13274                           TCF      DSPOFF
000565:


000567: 05,3302           55326                           TS       DELAYLOC
000568: 05,3303           55327                           TS       DELAYLOC   +1
000569: 05,3304           55330                           TS       DELAYLOC   +2
000570: 05,3305           55074                           TS       R1SAVE
000571: 05,3306           54045                           TS       INLINK
000572: 05,3307           54776                           TS       DSPCNT
000573: 05,3310           55042                           TS       CADRSTOR
000574: 05,3311           55013                           TS       REQRET
000575: 05,3312           55015                           TS       CLPASS
000576: 05,3313           55012                           TS       DSPLOCK
000577: 05,3314           55020                           TS       MONSAVE                               #  KILL MONITOR
000578: 05,3315           55021                           TS       MONSAVE1
000579: 05,3316           55001                           TS       VERBREG
000580: 05,3317           55002                           TS       NOUNREG
000581: 05,3320           55043                           TS       DSPLIST
000582: 05,3321           55312                           TS       MARKSTAT
000583: 05,3322           55044                           TS       EXTVBACT                              #  MAKE EXTENDED VERBS AVAILABLE
000584: 05,3323           55304                           TS       IMUCADR
000585: 05,3324           55305                           TS       OPTCADR
000586: 05,3325           55306                           TS       RADCADR
000587: 05,3326           55307                           TS       ATTCADR
000588: 05,3327           55314                           TS       LGYRO
000589: 05,3330           54100                           TS       FLAGWRD4                              #  KILL INTERFACE DISPLAYS
000590: 05,3331           34760                           CAF      NOUTCON
000591: 05,3332           55016                           TS       NOUT
000592:
000593: 05,3333           44753                           CS       ONE
000594: 05,3334           55100                           TS       SAMPLIM
000595: 05,3335           34746                           CAF      BIT6
000596: 05,3336           71303                           MASK     IMODES33                              #  LEAVE BIT 6 UNCHANGED
000597: 05,3337           65026                           AD       IM33INIT                              #  NO PIP OR TM FAILS.  BIT6=0 IN THIS WORD.
000598: 05,3340           55303                           TS       IMODES33
000599:
000600: 05,3341           33352                           CAF      LESCHK                                #  SELF CHECK GO-TO REGISTER.
000601: 05,3342           55361                           TS       SELFRET
000602:
000603: 05,3343           44360                           CS       VD1
000604: 05,3344           54777                           TS       DSPCOUNT
000605:
000606: 05,3345           00002                           TC       Q
000607: 05,3346  E6,1537                                  EBANK=   AOSQ
000608: 05,3346           02024 34066  IDLEADR            2CADR    DAPIDLER
000609:
000610: 05,3350           00435        IFAILINH           OCT      435
000611: 05,3351           03515        LDNPHAS1           GENADR   DNPHASE1
000612: 05,3352           03336        LESCHK             GENADR   SELFCHK
000613: 05,3353           00400        VAC1ADRC           ADRES    VAC1USE
000614: 05,3354           32001        OCT32001           OCT      32001
000615: 05,3355           00054        LTHVACA            DEC      44         B-14
000616:


000618: 05,3356           27470        OCT27470           OCT      27470
000619: 05,3357           74160        OCT74160           OCT      74160
000620: 05,3360           30001        OCT30001           OCT      30001
000621: 05,3361     5007               STARTEB            EQUALS   EBANK3
000622: 05,3361     4756               NUMGRPS            EQUALS   FIVE
000623: 05,3361           77755        -ELR               OCT      -22                                   #  -ERROR LIGHT RESET KEY CODE.
000624: 05,3362           37411        IM30INIF           OCT      37411                                 #  INHIBITS IMU FAIL FOR 5 SEC AND PIP ISSW
000625: 05,3363           37000        IM30INIR           OCT      37000
000626: 05,3364     5026               IM33INIT           =        PRIO16                                #  NO PIP OR TM FAIL SIGNALS.
000627: 05,3364           00450        9,6,4              OCT      450
000628: 05,3365           00102        RMODINIT           OCT      00102
000629: 05,3366           00000        SWINIT             OCT      0
000630: 05,3367           00000                           OCT      0
000631: 05,3370           00000                           OCT      0
000632: 05,3371           02000                           OCT      02000                                 #  BIT 11 = NOR29FLG
000633: 05,3372           00000                           OCT      0
000634: 05,3373           00000                           OCT      0
000635: 05,3374           00000                           OCT      0
000636: 05,3375           00100                           OCT      00100
000637:
000638: 05,3376           00000                           OCT      0
000639: 05,3377           00000                           OCT      0
000640: 05,3400           00000                           OCT      0
000641: 05,3401           40000                           OCT      40000                                 #  BIT 15 = LRBYPASS.
000642:


000644:                                                                                                  #  PROGRAM NAME          GOTOPOOH                ASSEMBLY SUNDANCE
000645:                                                                                                  #  LOG SECTION           FRESH START AND RESTART
000646:
000647:                                                                                                  #  FUNCTIONAL DESCRIPTION
000648:
000649:                                                                                                  #        FLASH V 37 ON DSKY %MM CHANGE REQUEST "
000650:
000651:                                                                                                  #  INPUT/OUTPUT INFORMATION
000652:
000653:                                                                                                  #        A. CALLING SEQUENCE                     TC GOTOPOOH
000654:                                                                                                  #        B. ERASABLE INITIALIZATION              NONE
000655:                                                                                                  #        C. OUTPUT FLASH V 37 ON DSKY
000656:                                                                                                  #        D. DEBRIS                               L
000657:
000658:                                                                                                  #  PROGRAM ANALYSIS
000659:
000660:                                                                                                  #        A. SUBROUTINES CALLED                   PRIODSPR, LINUS
000661:                                                                                                  #        B. NORMAL EXIT                          TCF ENDOFJOB
000662:                                                                                                  #        C. ALARM AND ABORT EXITS                NONE
000663:
000664:    6001                                           BLOCK    03
000665:    6000                                           SETLOC   FFTAG5
000666:    6000                                           BANK
000667:
000668:    6001                                           COUNT*   $$/P00
000669:    6001           34764        GOTOPOOH           CAF      OCT33                                 #  4.33 SPOT FOR GOPOOFIX
000670:    6002           54001                           TS       L
000671:    6003           40000                           COM
000672:    6004           52761                           DXCH     -PHASE4
000673:
000674:    6005           04635                           TC       POSTJUMP
000675:    6006           10024                           CADR     GOPOOFIX
000676:    6007           00024        OCT24              MM       20         B-14
000677:    6010           00031        OCT31              MM       25         B-14
000678:
000679: 20,2004                                           BANK     20
000680: 04,2000                                           SETLOC   VERB37
000681: 04,2000                                           BANK
000682:
000683: 04,2024                                           COUNT*   $$/P00                                #  VERB 37 AND P00 IN BANK 4.
000684: 04,2024           05516        GOPOOFIX           TC       DOWNFLAG                              #  ALLOW X-AXIS OVERRIDE
000685: 04,2025           00311                           ADRES    XOVINFLG
000686:
000687: 04,2026           05516                           TC       DOWNFLAG                              #  INSURE THAT ULLAGE IS OFF
000688: 04,2027           00314                           ADRES    ULLAGFLG


000690: 04,2030           05476                           TC       CLEARMRK   +2                         #  RELEASE MARK DISPLAY SYSTEM.
000691: 04,2031           32037                           CAF      V37N99
000692: 04,2032           04616                           TC       BANKCALL
000693: 04,2033           20476                           CADR     GOFLASH
000694: 04,2034           12031                           TCF      -3
000695: 04,2035           12031                           TCF      -4
000696: 04,2036           12031                           TCF      -5
000697:
000698: 04,2037           11343        V37N99             VN       3799
000699:


000701:                                                                                                  #  PROGRAM NAME          V37                     ASSEMBLY SUNDANCE
000702:
000703:                                                                                                  #  LOG SECTION           FRESH START AND RESTART
000704:
000705:                                                                                                  #  FUNCTIONAL DESCRIPTION
000706:
000707:                                                                                                  #        1. CHECK IF NEW PROGRAM ALLOWED.  IF BIT 1 OF FLAGWRD2 (NODOFLAG) IS SET, AN ALARM 1520 IS CALLED.
000708:                                                                                                  #        2. CHECK FOR VALIDITY OF PROGRAM SELECTED.  IF AN INVALID PROGRAM IS SELECTED, THE OPERATOR ERROR LIGHT IS
000709:                                                                                                  #           SET AND CURRENT ACTIVITY, IF ANY, CONTINUES.
000710:                                                                                                  #        3. SERVICER IS TERMINATED IF IT HAS BEEN RUNNING.
000711:                                                                                                  #        4. INSTALL IS EXECUTED TO AVOID INTERRUPTING INTEGRATION.
000712:                                                                                                  #        5. THE ENGINE IS TURNED OFF AND THE DAP IS INITIALIZED FOR COAST.
000713:                                                                                                  #        6. TRACK AND UPDATE FLAGS ARE SET TO ZERO.
000714:                                                                                                  #        7. DISPLAY SYSTEM IS RELEASED.
000715:                                                                                                  #        8. THE FOLLOWING ARE PERFORMED FOR EACH OF THE THREE CASES.
000716:                                                                                                  #                A. PROGRAM SELECTED IS P00.
000717:                                                                                                  #                        1. RENDEZVOUS AND P25 FLAGS ARE RESET.  (KILL P20 AND P25)
000718:                                                                                                  #                        2. STATINT1 IS SCHEDULED BY SETTING RESTART GROUP 2.
000719:                                                                                                  #                        3. MAJOR MODE 00 IS STORED IN THE MODE REGISTER (MODREG).
000720:                                                                                                  #                        4. SUPERBANK 3 IS SELECTED.
000721:                                                                                                  #                        5. NODOFLAG IS RESET.
000722:                                                                                                  #                        6. ALL RESTART GROUPS EXCEPT GROUP2 ARE CLEARED. CONTROL IS TRANSFERRED TO RESTART PROGRAM (GOPROG2)
000723:                                                                                                  #                           WHICH CAUSES ALL CURRENT ACTIVITY TO BE DISCONTINUED AND A 9 MINUTE INTEGRATION CYCLE TO BE
000724:                                                                                                  #                           INITIATED.
000725:                                                                                                  #                B. PROGRAM SELECTED IS P20 OR P25.
000726:                                                                                                  #                        1. IF THE CURRENT MAJOR MODE IS THE SAME AS THE SELECTED NEWPROGRAM, THE PROGRAM IS RE-INITIALIZED
000727:                                                                                                  #                           VIA V37XEQ, ALL RESTART GROUPS, EXCEPT GROUP 4 ARE CLEARED.
000728:                                                                                                  #                        2. IF THE CURRENT MAJOR MODE IS NOT EQUAL TO THE NEW REQUEST, A CHECK IS MADE TO SEE IF THE REQUEST-
000729:                                                                                                  #                           ED MAJOR MODE HAS BEEN RUNNING IN THE BACKGROUND,
000730:                                                                                                  #                           AND IF IT HAS, NO NEW PROGRAM IS SCHEDULED, THE EXISTING
000731:                                                                                                  #                           P20 OR P25 IS RESTARTED TO CONTINUE, AND ITS MM IS SET.
000732:                                                                                                  #                        3. CONTROL IS TRANSFERRED TO GOPROG2.
000733:                                                                                                  #                C. PROGRAM SELECTED IS NEITHER P00, P20, NOR P25
000734:                                                                                                  #                        1. V37XEQ IS SCHEDULED (AS A JOB) BY SETTING RESTART GROUP 4
000735:                                                                                                  #                        2. ALL CURRENT ACTIVITY EXCEPT RENDEZVOUS AND TRACKING IS DISCONTINUED BY CLEARING ALL RESTART
000736:                                                                                                  #                           GROUPS.  IF THE RENDEZVOUS OR THE P25 FLAG IS ON, GROUP 2 IS NOT CLEARED, ALLOWING THESE PROGRAMS
000737:                                                                                                  #                           TO CONTINUE.
000738:
000739:                                                                                                  #  INPUT/OUTPUT INFORMATION
000740:
000741:                                                                                                  #        A. CALLING SEQUENCE
000742:                                                                                                  #                CONTROL IS DIRECTED TO V37 BY THE VERBFAN ROUTINE.
000743:                                                                                                  #                VERBFAN GOES TO C(VERBTAB+C(VERBREG)). VERB 37 = MMCHANG.
000744:                                                                                                  #                MMCHANG EXECUTES A   TC POSTJUMP, CADR V37.
000745:
000746:                                                                                                  #        B. ERASABLE INITIALIZATION              NONE
000747:
000748:                                                                                                  #        C. OUTPUT


000750:                                                                                                  #                MAJOR MODE CHANGE
000751:
000752:                                                                                                  #        D. DEBRIS
000753:                                                                                                  #                MMNUMBER, MPAC +1, MINDEX, BASETEMP +C(MINDEX), FLAGWRD0, FLAGWRD1, FLAGWRD2, MODREG, GOLOC -1,
000754:                                                                                                  #                GOLOC, GOLOC +1, GOLOC +2, BASETEMP, -PHASE2, PHASE2, -PHASE4
000755:
000756:                                                                                                  #  PROGRAM ANALYSIS
000757:
000758:                                                                                                  #        A. SUBROUTINES CALLED
000759:                                                                                                  #                ALARM, RELDSP, PINBRNCH, INTSTALL, ENGINOF2, ALLCOAST, V37KLEAN, GOPROG2, FALTON, FINDVAC, SUPERSW,
000760:                                                                                                  #                DSPMM
000761:
000762:                                                                                                  #        B. NORMAL EXIT                          TC ENDOFJOB
000763:
000764:                                                                                                  #        C. ALARMS                               1520 (MAJOR MODE CHANGE NOT PERMITTED)
000765:
000766: 04,2040           54775        V37                TS       MMNUMBER                              #  SAVE MAJOR MODE
000767: 04,2041           34355                           CAF      PRIO30                                #  RESTART AT PINBALL PRIORITY
000768: 04,2042           54366                           TS       RESTREG
000769:
000770: 04,2043           31302                           CA       IMODES30                              #  IS IMU BEINB INITIALIZED
000771: 04,2044           74746                           MASK     BIT6
000772: 04,2045           10000                           CCS      A
000773: 04,2046           12065                           TCF      CANTROO
000774:
000775: 04,2047           40775                           CS       MMNUMBER                              #  IS P70 REQUESTED?
000776: 04,2050           62400                           AD       DEC70
000777: 04,2051           00006                           EXTEND
000778: 04,2052           12373                           BZF      SETUP70                               #  YES
000779: 04,2053           64753                           AD       ONE                                   #  IS P71 REQUESTED?
000780: 04,2054           00006                           EXTEND
000781: 04,2055           12372                           BZF      SETUP71                               #  YES
000782:
000783: 04,2056           30775                           CA       MMNUMBER                              #  IS NEW REQUEST POO
000784: 04,2057           00006                           EXTEND
000785: 04,2060           12107                           BZF      ISSERVON                              #  YES, CHECK SERVICER STATUS
000786:
000787: 04,2061           40076                           CS       FLAGWRD2                              #  NO, IS NODO V37 FLAG SET
000788: 04,2062           74753                           MASK     NODOBIT
000789: 04,2063           10000                           CCS      A
000790: 04,2064           12072                           TCF      CHECKTAB                              #  NO
000791: 04,2065           05567        CANTROO            TC       ALARM
000792: 04,2066           01520                           OCT      1520
000793:
000794: 04,2067           04457        V37BAD             TC       RELDSP                                #  RELEASES DISPLAY FROM ASTRONAUT
000795:
000796: 04,2070           04635                           TC       POSTJUMP                              #  BRING BACK LAST NORMAL DISPLAY IF THERE
000797: 04,2071           21050                           CADR     PINBRNCH                              #  WAS ONE.  OTHERWISE DO AN EOJ.
000798:
000799: 04,2072           32477        CHECKTAB           CA       NOV37MM                               #  INDEX FOR MM TABLES.
000800:


000802: 04,2073           54155        AGAINMM            TS       MPAC       +1
000803: 04,2074           50155                           NDX      MPAC       +1
000804: 04,2075           32441                           CA       PREMM1                                #  OBTAIN WHICH MM THIS IS FOR
000805: 04,2076           76074                           MASK     LOW7
000806: 04,2077           40000                           COM
000807: 04,2100           60775                           AD       MMNUMBER
000808: 04,2101           10000                           CCS      A
000809: 04,2102           10155                           CCS      MPAC       +1                         #  IF GR, SEE IF ANY MORE IN LIST
000810: 04,2103           12073                           TCF      AGAINMM                               #  YES, GET NEXT ONE
000811: 04,2104           12322                           TCF      V37NONO                               #  LAST TIME OR PASSED MM
000812:
000813: 04,2105           30155                           CA       MPAC       +1
000814: 04,2106           54774                           TS       MINDEX                                #  SAVE INDEX FOR LATER
000815:
000816: 04,2107           40103        ISSERVON           CS       FLAGWRD7                              #  V37 FLAG SET - I.E. IS SERVICER GOING
000817: 04,2110           74746                           MASK     V37FLBIT
000818: 04,2111           10000                           CCS      A
000819: 04,2112           12134                           TCF      CANV37                                #  NO
000820:
000821: 04,2113           05516                           TC       DOWNFLAG                              #  YES, TURN OFF THE AVERAGE FLAG AND
000822: 04,2114           00163                           ADRES    AVEGFLAG                              #  WAIT FOR SERVICER TO RETURN TO CANV37.
000823:
000824: 04,2115           32366                           CAF      V37RETAD
000825: 04,2116           55260                           TS       OUTROUTE
000826:
000827: 04,2117           15155                           TCF      ENDOFJOB
000828:
000829: 04,2120           40074        V37RET             CS       FLAGWRD0                              #  IS P20 OR P22 RUNNING?
000830: 04,2121           74745                           MASK     RNDVZBIT
000831: 04,2122           10000                           CCS      A
000832: 04,2123           12125                           TCF      +2                                    #  NO. CHECK FOR P25.
000833: 04,2124           12132                           TCF      2.7SPT                                #  YES. DO 2.7SPOT
000834: 04,2125           40074                           CS       FLAGWRD0                              #  IS P25 RUNNING?
000835: 04,2126           74743                           MASK     P25FLBIT
000836: 04,2127           10000                           CCS      A
000837: 04,2130           32367        2.0SPT             CA       OCT37667
000838: 04,2131           64747        2.11SPT            AD       BIT5
000839: 04,2132           62370        2.7SPT             AD       OCT40072
000840: 04,2133           05357                           TC       PHSCHNGA
000841:
000842: 04,2134           34755        CANV37             CAF      ZERO
000843: 04,2135           00006                           EXTEND
000844: 04,2136           01007                           WRITE    SUPERBNK
000845:
000846: 04,2137           32365                           CAF      ROOAD
000847: 04,2140           54374                           TS       TEMPFLSH
000848:
000849: 04,2141           05353                           TC       PHASCHNG
000850: 04,2142           00014                           OCT      14
000851:


000853:
000854: 04,2143           06037        ROO                TC       INTPRET
000855:
000856: 04,2144           77624                           CALL                                           #  WAIT FOR INTEGRATION TO FINISH
000857: 04,2145           27414                                    INTSTALL
000858: 04,2146           77776        DUMMYAD            EXIT
000859:
000860: 04,2147           05516                           TC       DOWNFLAG
000861: 04,2150           00124                           ADRES    3AXISFLG                              #  RESET 3-AXIS FLAG
000862:
000863: 04,2151           34735                           CAF      LRBYBIT                               #  CLEAN UP THE R12 FLAGWORD.
000864: 04,2152           54107                           TS       FLGWRD11
000865:
000866: 04,2153           05516                           TC       DOWNFLAG                              #  INSURE THAT THE R04FLAG IS CLEAR.
000867: 04,2154           00063                           ADRES    R04FLAG
000868:
000869: 04,2155           05516                           TC       DOWNFLAG                              #  INSURE MUNFLAG IS CLEAR.
000870: 04,2156           00141                           ADRES    MUNFLAG
000871:
000872: 04,2157           05516                           TC       DOWNFLAG                              #  ALLOW X-AXIS OVERRIDE.
000873: 04,2160           00311                           ADRES    XOVINFLG
000874: 04,2161           10775                           CCS      MMNUMBER                              #  IS THIS A POOH REQUEST
000875: 04,2162           12310                           TCF      NOUVEAU                               #  NO, PICK UP NEW PROGRAM
000876:
000877: 04,2163           04457        POOH               TC       RELDSP                                #  RELEASE DISPLAY SYSTEM
000878:
000879: 04,2164           35017                           CAF      PRIO5                                 #  SET VARIABLE RESTART PRIORITY FOR
000880: 04,2165           55056                           TS       PHSPRDT2                              #  P00 INTEGRATION.
000881:
000882: 04,2166           06011                           TC       CLRADMOD                              #  CLRADMOD DOES AN INHINT.
000883:
000884: 04,2167           44753                           CS       NODOBIT                               #  TURN OFF NODOFLAG.
000885: 04,2170           70076                           MASK     FLAGWRD2
000886: 04,2171           54076                           TS       FLAGWRD2
000887:
000888: 04,2172           34756                           CA       FIVE                                  #  SET RESTART FOR STATEINT1
000889: 04,2173           54001                           TS       L
000890: 04,2174           40000                           COM
000891: 04,2175           52755                           DXCH     -PHASE2
000892:
000893: 04,2176           42371                           CS       OCT700                                #  TURN OFF P20, P25, IMU IN USE FLAG
000894: 04,2177           70074                           MASK     FLAGWRD0
000895: 04,2200           54074                           TS       FLAGWRD0                              #                         RENDFLG
000896:
000897: 04,2201           34755                           CAF      DNLADP00
000898:
000899: 04,2202           54332        SEUDOPOO           TS       DNLSTCOD                              #  SET UP APPROPRIATE DOWNLIST CODE
000900: 04,2203           55324                           TS       AGSWORD                               #    (CURRENT LIST WILL BE COMPLETED BEFORE
000901:                                                                                                  #      NEW ONE IS STARTED)
000902: 04,2204           04674                           TC       IBNKCALL
000903: 04,2205           75555                           CADR     ENGINOF1
000904:


000906: 04,2206           04674                           TC       IBNKCALL                              #  INSURE ALLCOAST.
000907: 04,2207           40204                           CADR     ALLCOAST                              #  DOES A RESTORDB.
000908:
000909: 04,2210           44775                           CS       OCT120                                #  TURN OFF TRACK, UPDATE FLAGS
000910: 04,2211           55072                           TS       EBANKTEM
000911: 04,2212           70075                           MASK     FLAGWRD1
000912: 04,2213           54075                           TS       FLAGWRD1
000913:
000914: 04,2214           04674                           TC       IBNKCALL                              #  KILL GROUPS 1,3,5,6
000915: 04,2215           12652                           CADR     V37KLEAN
000916:
000917: 04,2216           10775                           CCS      MMNUMBER                              #  IS IT POOH
000918: 04,2217           12226                           TCF      RENDVOO                               #  NO
000919: 04,2220           04674        GOMOD              TC       IBNKCALL                              #  REDUNDANT EXCEPT FOR GROUP 4
000920: 04,2221           12647                           CADR     POOKLEAN
000921:
000922: 04,2222           30775                           CA       MMNUMBER
000923: 04,2223           55011                           TS       MODREG
000924:
000925: 04,2224           04635        GOGOPROG           TC       POSTJUMP
000926: 04,2225           12770                           CADR     GOPROG2
000927:
000928: 04,2226           41011        RENDVOO            CS       MODREG                                #  IS CURRENT PROGRAM 22
000929: 04,2227           62326                           AD       OCT26
000930: 04,2230           00006                           EXTEND
000931: 04,2231           12250                           BZF      RESET22                               #  YES - CLEAR RENDEZVOUS FLAG
000932:
000933: 04,2232           40775                           CS       MMNUMBER                              #  IS NEW PROGRAM P22
000934: 04,2233           62326                           AD       OCT26
000935: 04,2234           00006                           EXTEND
000936: 04,2235           12250                           BZF      RESET22
000937:
000938: 04,2236           67746                           AD       NEG2                                  #  IS NEW PROGRAM = P20 OR P25
000939: 04,2237           00006                           EXTEND
000940: 04,2240           12262                           BZF      RENDNOO                               #  YES
000941: 04,2241           64756                           AD       FIVE                                  #  25
000942: 04,2242           00006                           EXTEND
000943: 04,2243           12262                           BZF      RENDNOO                               #  YES
000944:
000945: 04,2244           32324                           CA       OCT500                                #  NO, IS EITHER P20 OR P25 RUNNING
000946: 04,2245           70074                           MASK     FLAGWRD0
000947: 04,2246           10000                           CCS      A
000948: 04,2247           12257                           TCF      POOFIZZ                               #  YES, LEAVE GROUP 2 TO PICK UP P20 OR P25
000949:
000950: 04,2250           42371        RESET22            CS       OCT700                                #  CLEAR RENDEZVOUS, P25
000951: 04,2251           70074                           MASK     FLAGWRD0                              #  AND IMU IN USE FLAGS
000952: 04,2252           54074                           TS       FLAGWRD0
000953: 04,2253           06011                           TC       CLRADMOD


000955:
000956: 04,2254           00006        KILL2              EXTEND                                         #  NO, KILL 2
000957: 04,2255           34755                           DCA      NEG0
000958: 04,2256           52755                           DXCH     -PHASE2
000959:
000960: 04,2257           32364        POOFIZZ            CAF      V37QCAD                               #  RESTART POINT FOR V37XEQ
000961: 04,2260           54374                           TS       TEMPFLSH
000962:
000963: 04,2261           12224                           TCF      GOGOPROG
000964:
000965: 04,2262           41011        RENDNOO            CS       MODREG
000966: 04,2263           66007                           AD       OCT24
000967: 04,2264           00006                           EXTEND
000968: 04,2265           12254                           BZF      KILL2                                 #  P20 OR P25 ON TOP OF P20 OR P25 -
000969:
000970: 04,2266           64756                           AD       FIVE
000971: 04,2267           00006                           EXTEND
000972: 04,2270           12254                           BZF      KILL2
000973:
000974: 04,2271           32324                           CA       OCT500
000975: 04,2272           70074                           MASK     FLAGWRD0
000976: 04,2273           60775                           AD       MMNUMBER
000977: 04,2274           40000                           COM
000978: 04,2275           62327                           AD       P20REG                                #  IS IT 20 AND IS RENDEZVOUS FLAG ON
000979: 04,2276           00006                           EXTEND
000980: 04,2277           12304                           BZF      STATQUO                               #  YES
000981: 04,2300           62325                           AD       OCT305                                #  IS IT 25 AND IS P25 BIT ON
000982: 04,2301           00006                           EXTEND
000983: 04,2302           12304                           BZF      STATQUO                               #  YES, LEAVE AS IS
000984: 04,2303           12254                           TCF      KILL2
000985:
000986: 04,2304           40075        STATQUO            CS       FLAGWRD1                              #  SET TRACKFLAG
000987: 04,2305           74775                           MASK     OCT120                                #        UPDATE FLAG
000988: 04,2306           26075                           ADS      FLAGWRD1
000989:
000990: 04,2307           12220                           TCF      GOMOD
000991:
000992: 04,2310           32324        NOUVEAU            CAF      OCT500                                #  IS P20 OR P25 FLAG SET
000993: 04,2311           70074                           MASK     FLAGWRD0
000994: 04,2312           10000                           CCS      A
000995: 04,2313           12316                           TCF      +3                                    #  YES
000996: 04,2314           05516                           TC       DOWNFLAG                              #  NO, RESET IMUINUSE FLAG
000997: 04,2315           00007                           ADRES    IMUSE
000998:
000999: 04,2316           50774                           INDEX    MINDEX
001000: 04,2317           32500                           CAF      DNLADMM1                              #  OBTAIN APPROPRIATE DOWNLIST ADDRESS
001001:
001002: 04,2320           00004                           INHINT
001003: 04,2321           12202                           TCF      SEUDOPOO
001004:
001005: 04,2322           04364        V37NONO            TC       FALTON                                #  COME HERE IF MM REQUESTED DOESNT EXIST


001007: 04,2323           12067                           TCF      V37BAD
001008:
001009: 04,2324     4750               OCT00010           EQUALS   BIT4
001010: 04,2324           00500        OCT500             OCT      500                                   #  BITS 7 AND 9
001011: 04,2325           00305        OCT305             OCT      305
001012: 04,2326           00026        OCT26              OCT      26
001013: 04,2327           00124        P20REG             OCT      124
001014:
001015: 04,2330           00004        V37XEQ             INHINT
001016: 04,2331           50774                           INDEX    MINDEX
001017: 04,2332           32441                           CAF      PREMM1                                #  OBTAIN PRIO, EBANK, AND MM
001018: 04,2333           55060                           TS       MMTEMP
001019: 04,2334           54020                           TS       CYR                                   #  SHIFT RIGHT TO BITS 14-10
001020:
001021: 04,2335           30020                           CA       CYR
001022: 04,2336           77725                           MASK     PRIO37
001023: 04,2337           55062                           TS       PHSPRDT4                              #  PRESET GROUP 4 RESTART PRIORITY
001024: 04,2340           54063                           TS       NEWPRIO                               #  STORE PRIO FOR SPVAC
001025:
001026: 04,2341           31060                           CA       MMTEMP                                #  OBTAIN EBANK - BITS 8, 9, 10 OF MMTEMP.
001027: 04,2342           00006                           EXTEND
001028: 04,2343           74744                           MP       BIT8
001029: 04,2344           74757                           MASK     LOW3
001030: 04,2345           54001                           TS       L
001031:
001032: 04,2346           50774                           INDEX    MINDEX
001033: 04,2347           32403                           CAF      FCADRMM1
001034: 04,2350           55061                           TS       BASETEMP                              #  MAKE BBCON BY ADDING HI5 OF FCADR
001035: 04,2351           74350                           MASK     HI5
001036: 04,2352           26001                           ADS      L
001037:
001038: 04,2353           31061                           CA       BASETEMP                              #  OBTAIN GENADR PORTION OF 2CADR.
001039: 04,2354           75012                           MASK     LOW10
001040: 04,2355           64741                           AD       BIT11
001041:
001042: 04,2356           05116                           TC       SPVAC
001043:
001044: 04,2357           31060        V37XEQC            CA       MMTEMP                                #  UPON RETURN FROM FINDVAC PLACE THE
001045: 04,2360           76074                           MASK     LOW7                                  #  NEW MM IN MODREG (THE LOW 7 BITS OF
001046: 04,2361           05314                           TC       NEWMODEA                              #  PHSPRDT1)
001047:
001048: 04,2362           04457                           TC       RELDSP                                #  RELEASE DISPLAY
001049: 04,2363           05155                           TC       ENDOFJOB                              #  AND EXIT
001050:
001051: 04,2364     5660               NEG7               EQUALS   OCT77770
001052:
001053: 04,2364     1060               MMTEMP             EQUALS   PHSPRDT3
001054: 04,2364     1061               BASETEMP           EQUALS   TBASE4
001055: 04,2364           10333        V37QCAD            CADR     V37XEQ     +3
001056: 04,2365           10146        ROOAD              CADR     DUMMYAD
001057:


001059: 04,2366           10120        V37RETAD           CADR     V37RET
001060: 04,2367           37667        OCT37667           OCT      37667
001061: 04,2370           40072        OCT40072           OCT      40072
001062: 04,2371           00700        OCT700             OCT      700
001063:
001064: 04,2372           36245        SETUP71            CAF      THREE
001065: 04,2373           54002        SETUP70            TS       Q
001066: 04,2374           00006                           EXTEND
001067: 04,2375           32402                           DCA      P70CADR
001068: 04,2376           60002                           AD       Q
001069: 04,2377           52006                           DTCB
001070:
001071: 04,2400           00106        DEC70              DEC      70         B-14
001072: 04,2401  E7,1520                                  EBANK=   R
001073: 04,2401           02072 42067  P70CADR            2CADR    P70
001074:
001075:                                                                                                  #  FOR VERB 37 TWO TABLES ARE MAINTAINED.  EACH TABLE HAS AN ENTRY FOR EACH
001076:                                                                                                  #  MAJOR MODE THAT CAN BE STARTED FROM THE KEYBOARD.  THE ENTRIES ARE PUT
001077:                                                                                                  #  INTO THE TABLE WITH THE ENTRY FOR THE HIGHEST MAJOR MODE COMING FIRST,
001078:                                                                                                  #  TO THE LOWEST MAJOR MODE WHICH IS THE LAST ENTRY IN EACH TABLE.
001079:
001080:                                                                                                  #  THE FCADRMM TABLE CONTAINS THE FCADR OF THE STARTING JOB OF
001081:                                                                                                  #  THE MAJOR MODE.  FOR EXAMPLE,
001082:
001083:                                                                                                  #        FCADRMM1        FCADR   P79             START OF P 79
001084:                                                                                                  #                        FCADR   PROG18          START OF P 18
001085:                                                                                                  #                        FCADR   P01             START OF P 01
001086:
001087:                                                                                                  #  NOTE,         THE FIRST ENTRY MUST BE LABLED FCADRMM1.
001088:                                                                                                  #  ----
001089:
001090: 04,2403           71526        FCADRMM1           FCADR    P79
001091: 04,2404           71274                           FCADR    P78
001092: 04,2405           26207                           FCADR    P76
001093: 04,2406           72731                           FCADR    P75
001094: 04,2407           72547                           FCADR    P74
001095: 04,2410           72220                           FCADR    P73
001096: 04,2411           72031                           FCADR    P72
001097: 04,2412           62144                           FCADR    LANDJUNK
001098: 04,2413           64776                           FCADR    P63LM
001099: 04,2414           33314                           FCADR    P57
001100: 04,2415           32050                           FCADR    PROG52
001101: 04,2416           31427                           FCADR    P51
001102: 04,2417           75436                           FCADR    P47LM
001103: 04,2420           75410                           FCADR    P42LM
001104: 04,2421           75272                           FCADR    P41LM
001105: 04,2422           75147                           FCADR    P40LM
001106: 04,2423           71521                           FCADR    P39
001107: 04,2424           71271                           FCADR    P38


001109: 04,2425           72725                           FCADR    P35
001110: 04,2426           72545                           FCADR    P34
001111: 04,2427           72216                           FCADR    P33
001112: 04,2430           72027                           FCADR    P32
001113: 04,2431           72450                           FCADR    P31
001114: 04,2432           72000                           FCADR    P30
001115: 04,2433           50404                           FCADR    PROG25
001116: 04,2434           50000                           FCADR    PROG22
001117: 04,2435           51505                           FCADR    PROG21
001118: 04,2436           50000                           FCADR    PROG20
001119: 04,2437           60061                           FCADR    P12LM
001120: 04,2440           77655                           FCADR    P06
001121:
001122:                                                                                                  #  THE PREMM TABLE CONTAINS THE E-BANK, MAJOR MODE, AND PRIORITY
001123:                                                                                                  #  INFORMATION, IT IS IN THE FOLLOWING FORM,
001124:
001125:                                                                                                  #        PPP PPE EEM MMM MMM
001126:
001127:                                                                                                  #        WHERE THE       7 M BITS CONTAIN THE MAJOR MODE NUMBER
001128:                                                                                                  #                        3 E BITS CONTAIN THE E-BANK NUMBER
001129:                                                                                                  #                        5 P BITS CONTAIN THE PRIORITY AT WHICH THE JOB IS
001130:                                                                                                  #                            TO BE STARTED
001131:
001132:                                                                                                  #        FOR EXAMPLE,
001133:
001134:                                                                                                  #                PREMM1          OCT     67213           PRIORITY        33
001135:                                                                                                  #                                                        E-BANK  5
001136:                                                                                                  #                                                        MAJOR MODE      11
001137:                                                                                                  #                                OCT     25437           PRIORITY        12
001138:                                                                                                  #                                                        E-BANK  6
001139:                                                                                                  #                                                        MAJOR MODE      31
001140:
001141:                                                                                                  #  NOTE,         THE FIRST ENTRY MUST BE LABELED PREMM1
001142:
001143: 04,2441           27717        PREMM1             OCT      27717                                 #  MM 79         EBANK 7         PRIO 13
001144: 04,2442           27716                           OCT      27716                                 #  MM 78         EBANK 7         PRIO 13
001145: 04,2443           27714                           OCT      27714                                 #  MM 76         EBANK 7         PRIO 13
001146: 04,2444           27713                           OCT      27713                                 #  MM 75         EBANK 7         PRIO 13
001147: 04,2445           27712                           OCT      27712                                 #  MM 74         EBANK 7         PRIO 13
001148: 04,2446           27711                           OCT      27711                                 #  MM 73         EBANK 7         PRIO 13
001149: 04,2447           27710                           OCT      27710                                 #  MM 72         EBANK 7         PRIO 13
001150: 04,2450           27704                           OCT      27704                                 #  MM 68         EBANK 7         PRIO 13
001151: 04,2451           27677                           OCT      27677                                 #  MM 63         EBANK 7         PRIO 13
001152: 04,2452           27271                           OCT      27271                                 #  MM 57         EBANK 5         PRIO 13
001153: 04,2453           27264                           OCT      27264                                 #  MM 52         EBANK 5         PRIO 13
001154: 04,2454           27263                           OCT      27263                                 #  MM 51         EBANK 5         PRIO 13
001155: 04,2455           27657                           OCT      27657                                 #  MM 47         EBANK 7         PRIO 13
001156: 04,2456           27652                           OCT      27652                                 #  MM 42         EBANK 7         PRIO 13
001157: 04,2457           27651                           OCT      27651                                 #  MM 41         EBANK 7         PRIO 13
001158: 04,2460           27650                           OCT      27650                                 #  MM 40         EBANK 7         PRIO 13
001159: 04,2461           27647                           OCT      27647                                 #  MM 39         EBANK 7         PRIO 13
001160: 04,2462           27646                           OCT      27646                                 #  MM 38         EBANK 7         PRIO 13


001162: 04,2463           27643                           OCT      27643                                 #  MM 35         EBANK 7         PRIO 13
001163: 04,2464           27642                           OCT      27642                                 #  MM 34         EBANK 7         PRIO 13
001164: 04,2465           27641                           OCT      27641                                 #  MM 33         EBANK 7         PRIO 13
001165: 04,2466           27640                           OCT      27640                                 #  MM 32         EBANK 7         PRIO 13
001166: 04,2467           27637                           OCT      27637                                 #  MM 31         EBANK 7         PRIO 13
001167: 04,2470           27636                           OCT      27636                                 #  MM 30         EBANK 7         PRIO 13
001168: 04,2471           27631                           OCT      27631                                 #  MM 25         EBANK 7         PRIO 13
001169: 04,2472           27626                           OCT      27626                                 #  MM 22         EBANK 7         PRIO 13
001170: 04,2473           27625                           OCT      27625                                 #  MM 21         EBANK 7         PRIO 13
001171: 04,2474           27624                           OCT      27624                                 #  MM 20         EBANK 7         PRIO 13
001172: 04,2475           27614                           OCT      27614                                 #  MM 12         EBANK 7         PRIO 13
001173: 04,2476           27006                           OCT      27006                                 #  MM 06         EBANK 4         PRIO 13
001174:
001175:                                                                                                  #  NOTE,         THE FOLLOWING CONSTANT IS THE NUMBER OF ENTRIES IN EACH OF
001176:                                                                                                  #  ----          THE ABOVE LISTS-1(IE, THE NUMBER OF MAJOR MODES (EXCEPT P00)
001177:                                                                                                  #                THAT CAN BE CALLED FROM THE KEYBOARD MINUS ONE)
001178:
001179: 04,2477           00035        NOV37MM            DEC      29         B-14                       #  MM'S -1
001180:
001181: 04,2500           00002        DNLADMM1           ADRES    RENDEZVU                              #  P79
001182: 04,2501           00002                           ADRES    RENDEZVU                              #  P78
001183: 04,2502           00002                           ADRES    RENDEZVU
001184: 04,2503           00002                           ADRES    RENDEZVU                              #  P75
001185: 04,2504           00002                           ADRES    RENDEZVU                              #  P74
001186: 04,2505           00002                           ADRES    RENDEZVU                              #  P73
001187: 04,2506           00002                           ADRES    RENDEZVU                              #  P72
001188: 04,2507           00004                           ADRES    DESASCNT                              #  P68
001189: 04,2510           00004                           ADRES    DESASCNT                              #  P63
001190: 04,2511           00005                           ADRES    LUNRSALN                              #  P57
001191: 04,2512           00000                           ADRES    COSTALIN                              #  P52
001192: 04,2513           00000                           ADRES    COSTALIN                              #  P51
001193: 04,2514           00003                           ADRES    ORBMANUV                              #  P47
001194: 04,2515           00003                           ADRES    ORBMANUV                              #  P42
001195: 04,2516           00003                           ADRES    ORBMANUV                              #  P41
001196: 04,2517           00003                           ADRES    ORBMANUV                              #  P40
001197: 04,2520           00002                           ADRES    RENDEZVU                              #  P39
001198: 04,2521           00002                           ADRES    RENDEZVU                              #  P38
001199: 04,2522           00002                           ADRES    RENDEZVU                              #  P35
001200: 04,2523           00002                           ADRES    RENDEZVU                              #  P34
001201: 04,2524           00002                           ADRES    RENDEZVU                              #  P33
001202: 04,2525           00002                           ADRES    RENDEZVU                              #  P32
001203: 04,2526           00002                           ADRES    RENDEZVU                              #  P31LM
001204: 04,2527           00002                           ADRES    RENDEZVU                              #  P30
001205: 04,2530           00002                           ADRES    RENDEZVU                              #  P25
001206: 04,2531           00005                           ADRES    LUNRSALN                              #  P22
001207: 04,2532           00002                           ADRES    RENDEZVU                              #  P21
001208: 04,2533           00002                           ADRES    RENDEZVU                              #  P20
001209: 04,2534           00004                           ADRES    DESASCNT                              #  P12
001210: 04,2535           00000                           ADRES    COSTALIN                              #  P06
001211: 04,2536     4755               DNLADP00           =        ZERO
001212: 04,2536                        COSTALIN           =        0


001214: 04,2536                        AGSUPDAT           =        1
001215: 04,2536                        RENDEZVU           =        2
001216: 04,2536                        ORBMANUV           =        3
001217: 04,2536                        DESASCNT           =        4
001218: 04,2536                        LUNRSALN           =        5
001219:
001220: 13,2026                                           BANK     13
001221: 13,2000                                           SETLOC   INTINIT
001222: 13,2000                                           BANK
001223:
001224: 13,2026                                           COUNT*   $$/INTIN
001225:
001226: 13,2026  E3,1554                                  EBANK=   RRECTCSM
001227:
001228:                                                                                                  #  THIS ROUTINE DOES THE POO INTEGRATION
001229:
001230: 13,2026           43014        STATEUP            SET      BOF                                   #  EXTRAPOLATE CM STATE VECTOR
001231: 13,2027           01474                                    VINTFLAG
001232: 13,2030           04347                                    SURFFLAG                              #  ALSO 6X6 W-MATRIX IF LM ON LUNAR
001233: 13,2031           26036                                    DOINT                                 #        SURFACE AND W-MATRIX VALID
001234: 13,2032           43014                           BOF      SET                                   #        FOR RENDEZVOUS NAVIGATION.
001235: 13,2033           02756                                    RENDWFLG
001236: 13,2034           26036                                    DOINT
001237: 13,2035           01476                                    DIM0FLAG
001238: 13,2036           45014        DOINT              CLEAR    CALL
001239: 13,2037           01667                                    PRECIFLG                              #  ENGAGES 4-TIME STEP LOGIC IN INTEGRATION
001240: 13,2040           27134                                    INTEGRV                               #  WHEN MODREG = 0
001241:
001242: 13,2041           71214                           BON      DLOAD
001243: 13,2042           04307                                    SURFFLAG
001244: 13,2043           26063                                    NO-INT
001245: 13,2044           01571                                    TETCSM
001246: 13,2045           34041                           STCALL   TDEC1
001247: 13,2046           27414                                    INTSTALL
001248: 13,2047           45014                           CLEAR    CALL                                  #  EXTRAPOLATE LM STATE VECTOR
001249: 13,2050           01674                                    VINTFLAG
001250: 13,2051           26644                                    SETIFLGS
001251: 13,2052           77614                           BOF                                            #  ALSO 9X9 W-MATRIX IF W IS VALID
001252: 13,2053           02756                                    RENDWFLG
001253: 13,2054           26060                                    DOINT2
001254: 13,2055           43014                           SET      SET
001255: 13,2056           01476                                    DIM0FLAG
001256: 13,2057           01475                                    D6OR9FLG
001257: 13,2060           45014        DOINT2             SET      CALL
001258: 13,2061           01467                                    PRECIFLG                              #  DISENGAGE 4 TIME STEP LOGIC IN INTEG.
001259: 13,2062           27134                                    INTEGRV
001260: 13,2063           77614        NO-INT             CLRGO
001261: 13,2064           01236                                    NODOFLAG
001262: 13,2065           26632                                    ENDINT


001264:                                                                                                  #  THISVINT IS CALLED BY MIDTOAV1 AND 2
001265:
001266: 13,2066           43414        THISVINT           CLEAR    RVQ
001267: 13,2067           01674                                    VINTFLAG
001268:
001269:

End of include-file FRESH_START_AND_RESTART.agc.  Parent file is MAIN.agc


