
Source Code


000002:                                                                                                  ## Copyright:   Public domain.
000003:                                                                                                  ## Filename:    GIMBAL_LOCK_AVOIDANCE.agc
000004:                                                                                                  ## Purpose:     Part of the reconstructed source code for LMY99 Rev 0,
000005:                                                                                                  ##              otherwise known as Luminary Rev 99, the second release
000006:                                                                                                  ##              of the Apollo Guidance Computer (AGC) software for Apollo 11.
000007:                                                                                                  ##              It differs from LMY99 Rev 1 (the flown version) only in the
000008:                                                                                                  ##              placement of a single label. The corrections shown here have
000009:                                                                                                  ##              been verified to have the same bank checksums as AGC developer
000010:                                                                                                  ##              Allan Klumpp's copy of Luminary Rev 99, and so are believed
000011:                                                                                                  ##              to be accurate. This file is intended to be a faithful
000012:                                                                                                  ##              recreation, except that the code format has been changed to
000013:                                                                                                  ##              conform to the requirements of the yaYUL assembler rather than
000014:                                                                                                  ##              the original YUL assembler.
000015:                                                                                                  ##
000016:                                                                                                  ## Assembler:   yaYUL
000017:                                                                                                  ## Contact:     Ron Burkey <info@sandroid.org>.
000018:                                                                                                  ## Website:     www.ibiblio.org/apollo.
000019:                                                                                                  ## Pages:       364
000020:                                                                                                  ## Mod history: 2009-05-17 RSB  Adapted from the corresponding
000021:                                                                                                  ##                              Luminary131 file, using page
000022:                                                                                                  ##                              images from Luminary 1A.
000023:                                                                                                  ##              2010-12-31 JL   Fixed page number comment.
000024:                                                                                                  ##              2016-12-14 RSB  Proofed text comments with octopus/ProoferComments
000025:                                                                                                  ##                              but no errors found.
000026:                                                                                                  ##              2017-08-01 MAS  Created from LMY99 Rev 1.
000027:                                                                                                  ##              2017-08-22 RSB  Fixed comment-text typo identified in ZERLINA 56.
000028:
000029:                                                                                                  ## This source code has been transcribed or otherwise adapted from
000030:                                                                                                  ## digitized images of a hardcopy from the MIT Museum.  The digitization
000031:                                                                                                  ## was performed by Paul Fjeld, and arranged for by Deborah Douglas of
000032:                                                                                                  ## the Museum.  Many thanks to both.  The images (with suitable reduction
000033:                                                                                                  ## in storage size and consequent reduction in image quality as well) are
000034:                                                                                                  ## available online at www.ibiblio.org/apollo.  If for some reason you
000035:                                                                                                  ## find that the images are illegible, contact me at info@sandroid.org
000036:                                                                                                  ## about getting access to the (much) higher-quality images which Paul
000037:                                                                                                  ## actually created.
000038:                                                                                                  ##
000039:                                                                                                  ## The code has been modified to match LMY99 Revision 0, otherwise
000040:                                                                                                  ## known as Luminary Revision 99, the Apollo 11 software release preceeding
000041:                                                                                                  ## the listing from which it was transcribed. It has been verified to
000042:                                                                                                  ## contain the same bank checksums as AGC developer Allan Klumpp's listing
000043:                                                                                                  ## of Luminary Revision 99 (for which we do not have scans).
000044:                                                                                                  ##
000045:                                                                                                  ## Notations on Allan Klumpp's listing read, in part:
000046:                                                                                                  ##
000047:                                                                                                  ##      ASSEMBLE REVISION 099 OF AGC PROGRAM LUMINARY BY NASA 2021112-51
000048:


000050: 15,2050                                           BANK     15
000051:
000052: 22,2000                                           SETLOC   KALCMON1
000053: 22,2000                                           BANK
000054:
000055:                                                                                                  #  DETECTING GIMBAL LOCK
000056: 22,2744  22,2744               LOCSKIRT           EQUALS   NOGIMLOC
000057:
000058: 22,2744           77614        NOGIMLOC           SET
000059: 22,2745           01074                                    CALCMAN3
000060: 22,2746           70740        WCALC              LXC,1    DLOAD*
000061: 22,2747           01325                                    RATEINDX                              #  CHOOSE THE DESIRED MANEUVER RATE
000062: 22,2750           04772                                    ARATE,1                               #  FROM A LIST OF FOUR
000063: 22,2751           45002                           SR4      CALL                                  #  COMPUTE THE INCREMENTAL ROTATION MATRIX
000064: 22,2752           44527                                    DELCOMP                               #  DEL CORRESPONDING TO A 1 SEC ROTATION
000065:                                                                                                  #  ABOUT COF
000066: 22,2753           74343                           DLOAD*   VXSC
000067: 22,2754           04772                                    ARATE,1
000068: 22,2755           03271                                    COF
000069: 22,2756           17326                           STODL    BRATE                                 #  COMPONENT MANEUVER RATES 45 DEG/SEC
000070: 22,2757           03336                                    AM
000071: 22,2760           55605                           DMP      DDV*
000072: 22,2761           05002                                    ANGLTIME
000073: 22,2762           04772                                    ARATE,1
000074: 22,2763           77661                           SR
000075: 22,2764           20606                                    5
000076: 22,2765           03334                           STORE    TM                                    #  MANEUVER EXECUTION TIME SCALED AS T2
000077: 22,2766           77614                           SETGO
000078: 22,2767           01035                                    CALCMAN2                              #  0(OFF) = CONTINUE MANEUVER
000079: 22,2770           45010                                    NEWANGL    +1                         #  1(ON) = START MANEUVER
000080:
000081:                                                                                                  #  THE FOUR SELECTABLE FREE FALL MANEUVER RATES SELECTED BY
000082:                                                                                                  #  LOADING RATEINDX WITH 0, 2, 4, 6, RESPECTIVELY
000083:
000084: 22,2771           00221 24255  ARATE              2DEC     .0088888888                            #  = 0.2 DEG/SEC         $ 22.5 DEG/SEC
000085:
000086: 22,2773           00554 02660                     2DEC     .0222222222                            #  = 0.5 DEG/SEC         $ 22.5 DEG/SEC
000087:
000088: 22,2775           02660 13301                     2DEC     .0888888888                            #  = 2.0 DEG/SEC         $ 22.5 DEG/SEC
000089:
000090: 22,2777           16161 30707                     2DEC     .4444444444                            #  = 10.0 DEG/SEC        $ 22.5 DEG/SEC
000091:
000092: 22,3001           00003 04000  ANGLTIME           2DEC     .0001907349                            #  = 100B-19 FUDGE FACTOR TO CONVERT
000093:                                                                                                  #  MANEUVER ANGLE TO MANEUVER TIME
000094:
000095:

End of include-file GIMBAL_LOCK_AVOIDANCE.agc.  Parent file is MAIN.agc


