
Source Code


000002:                                                                                                  ## Copyright:   Public domain.
000003:                                                                                                  ## Filename:    INTERPRETER.agc
000004:                                                                                                  ## Purpose:     Part of the reconstructed source code for LMY99 Rev 0,
000005:                                                                                                  ##              otherwise known as Luminary Rev 99, the second release
000006:                                                                                                  ##              of the Apollo Guidance Computer (AGC) software for Apollo 11.
000007:                                                                                                  ##              It differs from LMY99 Rev 1 (the flown version) only in the
000008:                                                                                                  ##              placement of a single label. The corrections shown here have
000009:                                                                                                  ##              been verified to have the same bank checksums as AGC developer
000010:                                                                                                  ##              Allan Klumpp's copy of Luminary Rev 99, and so are believed
000011:                                                                                                  ##              to be accurate. This file is intended to be a faithful
000012:                                                                                                  ##              recreation, except that the code format has been changed to
000013:                                                                                                  ##              conform to the requirements of the yaYUL assembler rather than
000014:                                                                                                  ##              the original YUL assembler.
000015:                                                                                                  ##
000016:                                                                                                  ## Assembler:   yaYUL
000017:                                                                                                  ## Contact:     Ron Burkey <info@sandroid.org>.
000018:                                                                                                  ## Website:     www.ibiblio.org/apollo.
000019:                                                                                                  ## Pages:       1002-1094
000020:                                                                                                  ## Mod history: 2009-05-25 RSB  Adapted from the corresponding
000021:                                                                                                  ##                              Luminary131 file, using page
000022:                                                                                                  ##                              images from Luminary 1A.
000023:                                                                                                  ##              2011-01-06 JL   Fixed pseudo-label indentation.
000024:                                                                                                  ##              2011-05-08 JL   Removed workarounds.
000025:                                                                                                  ##              2016-12-17 RSB  Proofed text comments with octopus/ProoferComments
000026:                                                                                                  ##                              and corrected the errors found.
000027:                                                                                                  ##              2017-01-28 RSB  Back-ported some comment-text fixes made in Luminary 69.
000028:                                                                                                  ##              2017-02-05 RSB  Back-ported comment corrections
000029:                                                                                                  ##                              identified while proofing Artemis 072.
000030:                                                                                                  ##              2017-03-13 RSB  Comment-text fixes noted in proofing Luminary 116.
000031:                                                                                                  ##              2017-03-15 RSB  Comment-text fixes identified in 5-way
000032:                                                                                                  ##                              side-by-side diff of Luminary 69/99/116/131/210.
000033:                                                                                                  ##              2017-08-01 MAS  Created from LMY99 Rev 1.
000034:                                                                                                  ##              2021-05-30 ABS  Added IRT0 location symbol to match LMY99 Rev 1.
000035:                                                                                                  ##                              B5TOBB -> B5TOB8
000036:
000037:                                                                                                  ## This source code has been transcribed or otherwise adapted from
000038:                                                                                                  ## digitized images of a hardcopy from the MIT Museum.  The digitization
000039:                                                                                                  ## was performed by Paul Fjeld, and arranged for by Deborah Douglas of
000040:                                                                                                  ## the Museum.  Many thanks to both.  The images (with suitable reduction
000041:                                                                                                  ## in storage size and consequent reduction in image quality as well) are
000042:                                                                                                  ## available online at www.ibiblio.org/apollo.  If for some reason you
000043:                                                                                                  ## find that the images are illegible, contact me at info@sandroid.org
000044:                                                                                                  ## about getting access to the (much) higher-quality images which Paul
000045:                                                                                                  ## actually created.
000046:                                                                                                  ##
000047:                                                                                                  ## The code has been modified to match LMY99 Revision 0, otherwise
000048:                                                                                                  ## known as Luminary Revision 99, the Apollo 11 software release preceeding
000049:                                                                                                  ## the listing from which it was transcribed. It has been verified to
000050:                                                                                                  ## contain the same bank checksums as AGC developer Allan Klumpp's listing
000051:                                                                                                  ## of Luminary Revision 99 (for which we do not have scans).
000052:                                                                                                  ##
000053:                                                                                                  ## Notations on Allan Klumpp's listing read, in part:
000054:                                                                                                  ##
000055:                                                                                                  ##      ASSEMBLE REVISION 099 OF AGC PROGRAM LUMINARY BY NASA 2021112-51
000056:


000058:                                                                                                  #  SECTION 1   DISPATCHER
000059:
000060:                                                                                                  #  ENTRY TO THE INTERPRETER.  INTPRET SETS LOC TO THE FIRST INSTRUCTION, BANKSET TO THE BBANK OF THE
000061:                                                                                                  #  OBJECT INTERPRETIVE PROGRAM, AND INTBIT15 TO THE BIT15 CONTENTS OF FBANK.  INTERPRETIVE PROGRAMS MAY BE IN
000062:                                                                                                  #  VIRTUALLY ALL BANKS PRESENT UNDER ANY SUPER-BANK SETTING, WITH THE RESTRICTION THAT PROGRAMS IN HIGH BANKS
000063:                                                                                                  #  (BIT15 OF FBANK = 1) DO NOT REFER TO LOWBANKS, AND VICE-VERSA.  THE INTERPRETER DOES NOT SWITCH SUPERBANKS.
000064:                                                                                                  #  E-BANK SWITCHING OCCURS WHENEVER GENERAL ERASABLE (100-3777) IS ADDRESSED.
000065:
000066:    6037                                           BLOCK    03
000067:
000068:    6037                                           COUNT*   $$/INTER
000069:    6037           00003        INTPRET            RELINT
000070:    6040           00006                           EXTEND                                         #  SET LOC TO THE WORD FOLLOWING THE TC.
000071:    6041           22164                           QXCH     LOC
000072:
000073:    6042           30006                 +2        CA       BBANK                                 #  INTERPRETIVE BRANCHES FINISH HERE.
000074:    6043           54165                           TS       BANKSET
000075:    6044           74735                           MASK     BIT15                                 #  GET 15TH BIT FOR INDEXABLE ADDRESSES.
000076:    6045           54115                           TS       INTBIT15
000077:
000078:    6046           54023                           TS       EDOP                                  #  MAKE SURE NO INSTRUCTIONS LEFT OVER
000079:
000080:    6047           16070                           TCF      NEWOPS                                #  PICK UP OP CODE PAIR AND BEGIN.
000081:
000082:    6050           22006        INTRSM             LXCH     BBANK                                 #  RESUME SUSPENDED INTERPRETIVE JOB
000083:    6051           16042                           TCF      INTPRET    +3
000084:
000085:                                                                                                  #  DLOAD LOADS MPAC, MPAC +1, LEAVING ZERO IN MPAC +2.
000086:
000087:    6052           00006        DLOAD              EXTEND
000088:    6053           50116                           INDEX    ADDRWD
000089:    6054           30001                           DCA      0                                     #  LOAD DP C(C(ADDRWD)) INTO MPAC,MPAX +1
000090:    6055           52155        SLOAD2             DXCH     MPAC
000091:    6056           34755                           CAF      ZERO                                  #  ZERO MPAC +2
000092:


000094:                                                                                                  #  AT THE END OF MOST INSTRUCTIONS, CONTROL IS GIVEN TO DANZIG TO DISPATCH THE NEXT OPERATION.
000095:
000096:    6057           54156                           TS       MPAC       +2                         #  AND DECLARE DP MODE
000097:
000098:    6060           54163        NEWMODE            TS       MODE                                  #  PROLOGUE FOR MODE-CHANGING INSTRUCTIONS.
000099:
000100:    6061           30165        DANZIG             CA       BANKSET                               #  SET BBANK BEFORE TESTING NEWJOB SO THAT
000101:    6062           54006                           TS       BBANK                                 #  IT MAY BE SAVED DIRECTLY BY CHANJOB.
000102:
000103:    6063           10023        NOIBNKSW           CCS      EDOP                                  #  SEE IF AN ORDER CODE IS LEFT OVER FROM
000104:    6064           16077                           TCF      OPJUMP                                #  THE LAST PAIR RETRIEVED.  IF SO, EXECUTE.
000105:                                                                                                  #  EDOP IS SET TO ZERO ON ITS RE-EDITING.
000106:
000107:    6065           10067                           CCS      NEWJOB                                #  SEE IF A JOB OF HIGHER PRIORITY IS
000108:    6066           15126                           TCF      CHANG2                                #  PRESENT, AND IF SO, CHANGE JOBS.
000109:
000110:    6067           24164                           INCR     LOC                                   #  ADVANCE THE LOCATION COUNTER.
000111:
000112:                                                                                                  #  ITRACE (1) REFERS TO "NEWOPS".
000113:    6070           50164        NEWOPS             INDEX    LOC                                   #  ENTRY TO BEGIN BY PICKING OP CODE PAIR.
000114:    6071           30000                           CA       0                                     #  MAY BE AN OPCODE PAIR OR A STORE CODE.
000115:    6072           10000                           CCS      A                                     #  TEST SIGN AND GET DABS(A).
000116:    6073           16362                           TCF      DOSTORE                               #  PROCESS STORE CODE.
000117:
000118:    6074           00177        LOW7               OCT      177
000119:
000120:    6075           54023                           TS       EDOP                                  #  OP CODE PAIR.  LEAVE THE OTHER IN EDOP
000121:    6076           76074                           MASK     LOW7                                  #  WHERE CCS EDOP WILL HONOR IT NEXT.
000122:
000123:    6077           54020        OPJUMP             TS       CYR                                   #  LOWWD ENTERS HERE IF A RIGHT-HAND OP
000124:    6100           10020                           CCS      CYR                                   #  CODE IS TO BE PROCESSED.  TEST PREFICES.
000125:    6101           16247                           TCF      OPJUMP2                               #  TEST SECOND PREFIX BIT.
000126:
000127:    6102           16743                           TCF      EXIT                                  #  +0 OP CODE IS EXIT.
000128:


000130:                                                                                                  #  PROCESS ADDRESSES WHICH MAY BE DIRECT, INDEXED, OR REFERENCE THE PUSHDOWN LIST.
000131:
000132:    6103           74753        ADDRESS            MASK     BIT1                                  #  SEE IF ADDRESS IS INDEXED.  CYR CONTAINED
000133:    6104           10000                           CCS      A                                     #  400XX, SO BIT 1 IS NOW AS IT WAS IN CYR.
000134:    6105           16146                           TCF      INDEX                                 #  FORM INDEXED ADDRESS.
000135:
000136:    6106           50164        DIRADRES           INDEX    LOC                                   #  LOOK AHEAD TO NEXT WORD TO SEE IF
000137:    6107           40001        OCT40001           CS       1                                     #  ADDRESS IS GIVEN.
000138:    6110           10000                           CCS      A
000139:    6111           16215                           TCF      PUSHUP                                #  IF NOT.
000140:
000141:    6112           77773        NEG4               DEC      -4         B-14
000142:
000143:    6113           24164                           INCR     LOC                                   #  IF SO, TO SHOW WE PICKED UP A WORD.
000144:    6114           54116                           TS       ADDRWD
000145:


000147:                                                                                                  #  FINAL DIGESTION OF DIRECT ADDRESSES OF OP CODES WITH 01 PREFIX IS DONE HERE.   IN EACH CASE, THE
000148:                                                                                                  #  REQUIRED 12-BIT SUB-ADDRESS IS LEFT IN ADDRWD, WITH ANY REQUIRED E OR F BANK SWITCHING DONE.  ADDRESSES LESS
000149:                                                                                                  #  THAN 45D ARE TAKEN TO BE RELATIVE TO THE WORK AREA.  THE OP CODE IS NOW IN BITS 1-5 OF CYR WITH BIT 14 = 1.
000150:
000151:    6115           66251                           AD       -ENDVAC                               #  SEE IF ADDRESS RELATIVE TO WORK AREA.
000152:    6116           10000                           CCS      A
000153:    6117           67743                           AD       -ENDERAS                              #  IF NOT, SEE IF IN GENERAL ERASABLE.
000154:    6120           16125                           TCF      IERASTST
000155:
000156:    6121           30120        NETZERO            CA       FIXLOC                                #  IF SO, LEAVE THE MODIFIED ADDRESS IN
000157:    6122           26116                           ADS      ADDRWD                                #  ADDRWD AND DISPATCH.
000158:    6123           50020        ITR15              INDEX    CYR                                   #  THIS INDEX MAKES THE NEXT INSTRUCTION
000159:    6124           76273                           7        INDJUMP    -1                         #  TCF INDJUMP + OP, EDITING CYR.
000160:
000161:    6125           00006        IERASTST           EXTEND
000162:    6126           66136                           BZMF     GEADDR                                #  GO PROCESS GENERAL-ERASABLE ADDRESS.
000163:
000164:    6127           75012                           MASK     LOW10                                 #  FIXED BANK ADDRESS. RESTORE AND ADD B15.
000165:    6130           65012                           AD       LOW10                                 #  SWITCH BANKS AND LEAVE SUBADDRESS IN
000166:    6131           56116                           XCH      ADDRWD                                #  ADDRWD FOR OPERAND RETRIEVAL. (THIS
000167:    6132           60115                           AD       INTBIT15                              #  METHOD PRECLUDES USE OF THE LAST
000168:    6133           54004                           TS       FBANK                                 #  LOCATION IN EACH FBANK.)
000169:    6134           50020        ITR12              INDEX    CYR
000170:    6135           76273                           7        INDJUMP    -1
000171:
000172:    6136           74357        GEADDR             MASK     LOW8
000173:    6137           65007                           AD       OCT1400
000174:    6140           56116                           XCH      ADDRWD
000175:    6141           54003                           TS       EBANK
000176:    6142           50020        ITR10              INDEX    CYR
000177:    6143           76273                           7        INDJUMP    -1
000178:


000180:                                                                                                  #  THE FOLLOWING ROUTINE PROCESSES INTERPRETIVE INDEXED ADDRESSES.  AN INTERPRETER INDEX REGISTER MAY
000181:                                                                                                  #  CONTAIN THE ADDRESS OF ANY ERASABLE REGISTER (0-42 BEING RELATIVE TO THE VAC AREA) OR ANY INTERPRETIVE PROGRAM
000182:                                                                                                  #  BANK, OR ANY INTEGER IN THAT RANGE.
000183:
000184:    6144           37733        DODLOAD*           CAF      DLOAD*                                #  STODL* COMES HERE TO PROCESS LOAD ADR.
000185:    6145           54020                           TS       CYR                                   #  (STOVL* ENTERS HERE).
000186:
000187:    6146           30120        INDEX              CA       FIXLOC                                #  SET UP INDEX LOCATION.
000188:    6147           54130                           TS       INDEXLOC
000189:    6150           24164                           INCR     LOC                                   #  (ADDRESS ALWAYS GIVEN).
000190:    6151           50164                           INDEX    LOC
000191:    6152           40000                           CS       0
000192:    6153           10000                           CCS      A                                     #  INDEX 2 IF ADDRESS STORED COMPLEMENTED.
000193:    6154           24130                           INCR     INDEXLOC
000194:    6155           16156                           NOOP
000195:
000196:    6156           54116                           TS       ADDRWD                                #  14 BIT ADDRESS TO ADDRWD.
000197:    6157           77742                           MASK     HIGH4                                 #  IF ADDRESS GREATER THAN 2K, ADD INTBIT15
000198:    6160           00006                           EXTEND
000199:    6161           16164                           BZF      INDEX2
000200:    6162           30115                           CA       INTBIT15
000201:    6163           26116                           ADS      ADDRWD
000202:
000203:    6164           50130        INDEX2             INDEX    INDEXLOC
000204:    6165           40046                           CS       X1
000205:    6166           26116                           ADS      ADDRWD                                #  DO AUGMENT, IGNORING AND CORRECTING OVF.
000206:
000207:    6167           77744                           MASK     HIGH9                                 #  SEE IF ADDRESS IS IN WORK AREA.
000208:    6170           00006                           EXTEND
000209:    6171           16204                           BZF      INDWORK
000210:    6172           77742                           MASK     HIGH4                                 #  SEE IF IN FIXED BANK.
000211:    6173           00006                           EXTEND
000212:    6174           16206                           BZF      INDERASE
000213:
000214:    6175           30116                           CA       ADDRWD                                #  IN FIXED - SWITCH BANKS AND CREATE
000215:    6176           54004                           TS       FBANK                                 #  SUB-ADDRESS.
000216:    6177           75012                           MASK     LOW10
000217:    6200           64741                           AD       2K
000218:    6201           54116                           TS       ADDRWD
000219:    6202           50020        ITR11              INDEX    CYR
000220:    6203           36273                           3        INDJUMP    -1
000221:
000222:    6204           30120        INDWORK            CA       FIXLOC                                #  MAKE ADDRWD RELATIVE TO WORK AREA.
000223:    6205           16212                           TCF      ITR13      -1
000224:
000225:    6206           35007        INDERASE           CA       OCT1400
000226:    6207           56116                           XCH      ADDRWD
000227:    6210           54003                           TS       EBANK
000228:    6211           74357                           MASK     LOW8
000229:    6212           26116                 -1        ADS      ADDRWD


000231:    6213           50020        ITR13              INDEX    CYR
000232:    6214           36273                           3        INDJUMP    -1
000233:


000235:                                                                                                  #  PUSH-UP ROUTINES.  WHEN NO OPERAND ADDRESS IS GIVEN, THE APPROPRIATE OPERAND IS TAKEN FROM THE PUSH-DOWN
000236:                                                                                                  #  LIST.  IN MOST CASES THE MODE OF THE RESULT (VECTOR OR SCALAR) OF THE LAST ARITHMETIC OPERATION PERFORMED
000237:                                                                                                  #  IS THE SAME AS THE TYPE OF OPERAND DESIRED (ALL ADD/SUBTRACT ETC.).  EXCEPTIONS TO THIS GENERAL RULE ARE LISTED
000238:                                                                                                  #  BELOW (NOTE THAT IN EVERY CASE THE MODE REGISTER IS LEFT INTACT):
000239:
000240:                                                                                                  #        1.      VXSC AND V/SC WANT THE OPPOSITE TYPE OF OPERAND, E.G., IF THE LAST OPERATION YIELDED A VECTOR
000241:                                                                                                  #                RESULT, VXSC WANTS A SCALAR.
000242:
000243:                                                                                                  #        2.      THE LOAD CODES SHOULD LOAD THE ACCUMULATOR INDEPENDENT OF THE RESULT OF THE LAST OPERATION.  THIS
000244:                                                                                                  #                INCLUDES VLOAD, DLOAD, TLOAD, PDDL, AND PDVL (NO PUSHUP WITH SLOAD).
000245:
000246:                                                                                                  #        3.      SOME ARITHMETIC OPERATIONS REQUIRE A STANDARD TYPE OF OPERAND REGARDLESS OF THE PREVIOUS OPERATION.
000247:                                                                                                  #                THIS INCLUDES SIGN WANTING DP AND TAD REQUIRING TP.
000248:
000249:    6215           34360        PUSHUP             CAF      OCT23                                 #  IF THE LOW 5 BITS OF CYR ARE LESS THAN
000250:    6216           70020                           MASK     CYR                                   #  20, THIS OP REQUIRES SPECIAL ATTENTION.
000251:    6217           66222                           AD       -OCT10                                #  (NO -0).
000252:    6220           10000                           CCS      A
000253:    6221           16233                           TCF      REGUP                                 #  FOR ALL CODES GREATER THAN OCT 7.
000254:
000255:    6222           77767        -OCT10             OCT      -10
000256:
000257:    6223           66112                           AD       NEG4                                  #  WE NOW HAVE 7 - OP CODE (MOD4).  SEE IF
000258:    6224           10000                           CCS      A                                     #  THE OP CODE (MOD4) IS THREE (REVERSE).
000259:    6225           50000                           INDEX    A                                     #  NO - THE MODE IS DEFINITE.  PICK UP THE
000260:    6226           46244                           CS       NO.WDS
000261:    6227           16235                           TCF      REGUP      +2
000262:
000263:    6230           50163                           INDEX    MODE                                  #  FOR VXSC AND V/SC WE WANT THE REQUIRED
000264:    6231           46242                           CS       REVCNT                                #  PUSHLOC DECREMENT WITHOUT CHANGING THE
000265:    6232           16235                           TCF      REGUP      +2                         #  MODE AT THIS TIME.
000266:
000267:    6233           50163        REGUP              INDEX    MODE                                  #  MOST ALL OP CODES PUSHUP HERE.
000268:    6234           46244                           CS       NO.WDS
000269:    6235           26166                 +2        ADS      PUSHLOC
000270:    6236           54116                           TS       ADDRWD
000271:    6237           50020        ITR14              INDEX    CYR
000272:    6240           76273                           7        INDJUMP    -1                         #  (THE INDEX MAKES THIS A TCF.)
000273:
000274:    6241           00002                           OCT      2                                     #  REVERSE PUSHUP DECREMENT. VECTOR TAKES 2
000275:    6242           00006        REVCNT             OCT      6                                     #  WORDS, SCALAR TAKES 6.
000276:    6243           00006                           OCT      6
000277:    6244           00002        NO.WDS             OCT      2                                     #  CONVENTIONAL DECREMENT IS 6 WORDS VECTOR
000278:    6245           00003        OCTAL3             OCT      3                                     #  2 IN DP, AND 3 IN TP.
000279:    6246           00006                           OCT      6
000280:


000282:                                                                                                  #  TEST THE SECOND PREFIX BIT TO SEE IF THIS IS A MISCELLANEOUS OR A UNARY/SHORT SHIFT OPERATION.
000283:
000284:    6247           10020        OPJUMP2            CCS      CYR                                   #  TEST SECOND PREFIX BIT.
000285:    6250           16263                           TCF      OPJUMP3                               #  TEST THIRD BIT TO SEE IF UNARY OR SHIFT.
000286:
000287:    6251           77722        -ENDVAC            DEC      -45        B-14
000288:
000289:                                                                                                  #  THE FOLLOWING ROUTINE PROCESSES ADDRESSES OF SUFFIX CLASS 10.  THEY ARE BASICALLY WORK AREA ADDRESSES
000290:                                                                                                  #  IN THE RANGE 0-52, ERASABLE ECADR CONSTANTS FROM 100-3777, AND FCADRS ABOVE THAT.  ALL 15 BITS ARE AVAILABLE
000291:                                                                                                  #  IN CONTRAST TO SUFFIX 1, IN WHICH ONLY THE LOW ORDER 14 ARE AVAILABLE.
000292:
000293:    6252           24164        15BITADR           INCR     LOC                                   #  (ENTRY HERE FROM STCALL).
000294:    6253           50164                           INDEX    LOC                                   #  PICK UP ADDRESS WORD.
000295:    6254           30000                           CA       0
000296:    6255           54117                           TS       POLISH                                #  WE MAY NEED A SUBADDRESS LATER.
000297:
000298:    6256           35013                           CAF      LOW7+2K                               #  THESE INSTRUCTIONS ARE IN BANK 1.
000299:    6257           54004                           TS       FBANK
000300:    6260           70020                           MASK     CYR
000301:    6261           50000        ITR7               INDEX    A
000302:    6262           16334                           TCF      MISCJUMP
000303:


000305:                                                                                                  #  COMPLETE THE DISPATCHING OF UNARY AND SHORT SHIFT OPERATIONS.
000306:
000307:    6263           54004        OPJUMP3            TS       FBANK                                 #  CALL IN BANK 0 (BITS 11-15 OF A ARE 0.)
000308:                                                                                                  #  ITRACE (6) REFERS TO "OPJUMP3".
000309:    6264           10020                           CCS      CYR                                   #  TEST THIRD PREFIX BIT.
000310:    6265           50000                           INDEX    A                                     #  THE DECREMENTED UNARY CODE IS IN BITS
000311:    6266           12000                           TCF      UNAJUMP                               #  1-4 OF A (ZERO, EXIT, HAS BEEN DETECTED)
000312:
000313:    6267           10163                           CCS      MODE                                  #  ITS A SHORT SHIFT CODE.  SEE IF PRESENT
000314:    6270           12017                           TCF      SHORTT                                #  SCALAR OR VECTOR.
000315:    6271           12017                           TCF      SHORTT
000316:    6272           12121                           TCF      SHORTV                                #  CALLS THE APPROPRIATE ROUTINE.
000317:
000318:    6273     4350               FBANKMSK           EQUALS   BANKMASK
000319:    6273           00122        LVBUF              ADRES    VBUF
000320:


000322:                                                                                                  #  THE FOLLOWING IS THE JUMP TABLE FOR OP CODES WHICH MAY HAVE INDEXABLE ADDRESSES OR MAY PUSH UP.
000323:
000324:    6274           16505        INDJUMP            TCF      VLOAD                                 #  00 - LOAD MPAC WITH A VECTOR.
000325:    6275           17071                           TCF      TAD                                   #  01 - TRIPLE PRECISION ADD TO MPAC.
000326:    6276           17655                           TCF      SIGN                                  #  02 - COMPLEMENT MPAC (V OR SC) IF X NEG.
000327:    6277           17401                           TCF      VXSC                                  #  03 - VECTOR TIMES SCALAR.
000328:    6300           16703                           TCF      CGOTO                                 #  04 - COMPUTED GO TO.
000329:    6301           16470                           TCF      TLOAD                                 #  05 - LOAD MPAC WITH TRIPLE PRECISION.
000330:    6302           16052                           TCF      DLOAD                                 #  06 - LOAD MPAC WITH A DP SCALAR.
000331:    6303           17624                           TCF      V/SC                                  #  07 - VECTOR DIVIDED BY SCALAR.
000332:
000333:    6304           16501                           TCF      SLOAD                                 #  10 - LOAD MPACIN SINGLE PRECISION.
000334:    6305           16620                           TCF      SSP                                   #  11 - SET SINGLE PRECISION INTO X.
000335:    6306           16523                           TCF      PDDL                                  #  12 - PUSH DOWN MPAC AND RE-LOAD IN DP.
000336:    6307           17334                           TCF      MXV                                   #  13 - MATRIX POST-MULTIPLIED BY VECTOR.
000337:    6310           16557                           TCF      PDVL                                  #  14 - PUSH DOWN AND VECTOR LOAD.
000338:    6311           16626                           TCF      CCALL                                 #  15 - COMPUTED CALL.
000339:    6312           17337                           TCF      VXM                                   #  16 - MATRIX PRE-MULTIPLIED BY VECTOR.
000340:    6313           17616                           TCF      TSLC                                  #  17 - NORMALIZE MPAC (SCALAR ONLY).
000341:
000342:    6314           17574                           TCF      DMPR                                  #  20 - DP MULTIPLY AND ROUND.
000343:    6315           17577                           TCF      DDV                                   #  21 - DP DIVIDE BY.
000344:    6316           17603                           TCF      BDDV                                  #  22 - DP DIVIDE INTO.
000345:    6317           17621                           TCF      GSHIFT                                #  23 - GENERAL SHIFT INSTRUCTION.
000346:    6320           16751                           TCF      VAD                                   #  24 - VECTOR ADD.
000347:    6321           16747                           TCF      VSU                                   #  25 - VECTOR SUBTRACT.
000348:    6322           17036                           TCF      BVSU                                  #  26 - VECTOR SUBTRACT FROM.
000349:    6323           17331                           TCF      DOT                                   #  27 - VECTOR DOT PRODUCT.
000350:
000351:    6324           17460                           TCF      VXV                                   #  30 - VECTOR CROSS PRODUCT.
000352:    6325           17425                           TCF      VPROJ                                 #  31 - VECTOR PROJECTION.
000353:    6326           17005                           TCF      DSU                                   #  32 - DP SUBTRACT.
000354:    6327           17062                           TCF      BDSU                                  #  33 - DP SUBTRACT FROM.
000355:    6330           16775                           TCF      DAD                                   #  34 - DP ADD.
000356:    6331           16331                           TCF      +0                                    #  35 - AVAILABLE
000357:    6332           17572                           TCF      DMP1                                  #  36 - DP MULTIPLY.
000358:    6333           17613                           TCF      SETPD                                 #  37 - SET PUSH DOWN POINTER (DIRECT ONLY)
000359:
000360:                                                                                                  #  CODES 10 AND 14 MUST NOT PUSH UP. CODE 04 MAY BE USED FOR VECTOR DECLARE BEFORE PUSHUP IF DESIRED.
000361:


000363:                                                                                                  #  THE FOLLOWING JUMP TABLE APPLIES TO INDEX, BRANCH, AND MISCELLANEOUS INSTRUCTIONS.
000364:
000365:    6334           12344        MISCJUMP           TCF      AXT                                   #  00 - ADDRESS TO INDEX TRUE.
000366:    6335           12351                           TCF      AXC                                   #  01 - ADDRESS TO INDEX COMPLEMENTED.
000367:    6336           12354                           TCF      LXA                                   #  02 - LOAD INDEX FROM ERASABLE.
000368:    6337           12360                           TCF      LXC                                   #  03 - LOAD INDEX FROM COMPLEMENT OF ERAS.
000369:    6340           12364                           TCF      SXA                                   #  04 - STORE INDEX IN ERASABLE.
000370:    6341           12372                           TCF      XCHX                                  #  05 - EXCHANGE INDEX WITH ERASABLE.
000371:    6342           12406                           TCF      INCR                                  #  06 - INCREMENT INDEX REGISTER.
000372:    6343           12415                           TCF      TIX                                   #  07 - TRANSFER ON INDEX.
000373:
000374:    6344           12400                           TCF      XAD                                   #  10 - INDEX REGISTER ADD FROM ERASABLE.
000375:    6345           12411                           TCF      XSU                                   #  11 - INDEX SUBTRACT FROM ERASABLE.
000376:    6346           12467                           TCF      BZE/GOTO                              #  12 - BRANCH ZERO AND GOTO.
000377:    6347           12474                           TCF      BPL/BMN                               #  13 - BRANCH PLUS AND BRANCH MINUS.
000378:    6350           12447                           TCF      RTB/BHIZ                              #  14 - RETURN TO BASIC AND BRANCH HI ZERO.
000379:    6351           12507                           TCF      CALL/ITA                              #  15 - CALL AND STORE QPRET.
000380:    6352           12516                           TCF      SW/                                   #  16 - SWITCH INSTRUCTIONS AND AVAILABLE.
000381:    6353           12457                           TCF      BOV(B)                                #  17 - BRANCH ON OVERFLOW TO BASIC OR INT.
000382:


000384:                                                                                                  #  THE FOLLOWING JUMP TABLE APPIES TO UNARY INSTRUCTIONS.
000385:
000386:    6354                                           COUNT*   $$/INTER
000387: 00,2000                                           BANK     0                                     #  00 - EXIT - DETECTED EARLIER.
000388: 00,2000           13207        UNAJUMP            TCF      SQRT                                  #  01 - SQUARE ROOT.
000389: 00,2001           13530                           TCF      SINE                                  #  02 - SIN.
000390: 00,2002           13517                           TCF      COSINE                                #  03 - COS.
000391: 00,2003           13610                           TCF      ARCSIN                                #  04 - ARC SIN.
000392: 00,2004           13612                           TCF      ARCCOS                                #  05 - ARC COS.
000393: 00,2005           13174                           TCF      DSQ                                   #  06 - DP SQUARE.
000394: 00,2006           12116                           TCF      ROUND                                 #  07 - ROUND TO DP.
000395:
000396: 00,2007           17670                           TCF      COMP                                  #  10 - COMPLEMENT VECTOR OR SCALAR.
000397: 00,2010           13232                           TCF      VDEF                                  #  11 - VECTOR DEFINE.
000398: 00,2011           13023                           TCF      UNIT                                  #  12 - UNIT VECTOR.
000399: 00,2012           13176                           TCF      ABVALABS                              #  13 - LENGTH OF VECTOR OR MAG OF SCALAR.
000400: 00,2013           13245                           TCF      VSQ                                   #  14 - SQUARE OF LENGTH OF VECTOR.
000401: 00,2014           16354                           TCF      STADR                                 #  15 - PUSH UP ON STORE CODE.
000402: 00,2015           13274                           TCF      RVQ                                   #  16 - RETURN VIA QPRET.
000403: 00,2016           13247                           TCF      PUSH                                  #  17 - PUSH MPAC DOWN.
000404:


000406:                                                                                                  #  SECTION 2     LOAD AND STORE PACKAGE.
000407:
000408:                                                                                                  #  A SET OF EIGHT STORE CODES IS PROVIDED AS THE PRIMARY METHOD OF STORING THE MULTI-PURPOSE
000409:                                                                                                  #  ACCUMULATOR (MPAC).  IF IN THE DANZIG SECTION LOC REFERS TO AN ALGEBRAICALLY POSITIVE WORD, IT IS TAKEN AS A
000410:                                                                                                  #  STORE CODE WITH A CORRESPONDING ERASABLE ADDRESS.  MOST OF THESE CODES ARE TWO ADDRESS, SPECIFYING THAT THE WORD
000411:                                                                                                  #  FOLLOWING THE STORE CODE IS TO BE USED AS AN ADDRESS FROM WHICH TO RE-LOAD MPAC.  FOUR OPTIONS ARE AVAILABLE:
000412:
000413:                                                                                                  #        1. STORE        STORE MPAC.  THE E ADDRESS MAY BE INDEXED.
000414:                                                                                                  #        2. STODL        STORE MPAC AND RE-LOAD IT IN DP WITH THE NEXT ADDRESS (THE LOAD MAY BE INDEXED).
000415:                                                                                                  #        3. STOVL        STORE MPAC AND RE-LOAD A VECTOR (AS ABOVE).
000416:                                                                                                  #        4. STCALL       STORE AND DO A CALL (BOTH ADDRESSES MUST BE DIRECT HERE).
000417:
000418:                                                                                                  #  STODL AND STOVL WILL TAKE FROM THE PUSH-DOWN LIST IF NO LOAD ADDRESS IS GIVEN.
000419:
000420:    6354                                           BLOCK    3
000421:
000422:    6354                                           COUNT*   $$/INTER
000423:    6354           30165        STADR              CA       BANKSET                               #  THE STADR CODE (PUSHUP UP ON STORE
000424:    6355           54004                           TS       FBANK                                 #  ADDRESS) ENTERS HERE.
000425:    6356           24164                           INCR     LOC
000426:    6357           50164        ITR1               INDEX    LOC                                   #  THE STORECODE WAS STORED COMPLEMENTED TO
000427:    6360           40000                           CS       0                                     #  MAKE IT LOOK LIKE AN OPCODE PAIR.
000428:    6361           67747                           AD       NEGONE                                #  (YUL CANT REMOVE 1 BECAUSE OF EARLY CCS)
000429:
000430:    6362           54116        DOSTORE            TS       ADDRWD
000431:    6363           74356                           MASK     LOW11                                 #  ENTRY FROM DISPATCHER.  SAVE THE ERASABLE
000432:    6364           56116                           XCH      ADDRWD                                #  ADDRESS AND JUMP ON THE STORE CODE NO.
000433:    6365           77722                           MASK     B12T14
000434:    6366           00006                           EXTEND
000435:    6367           74747                           MP       BIT5                                  #  EACH TRANSFER VECTOR ENTRY IS TWO WORDS.
000436:    6370           50000        ITR0               INDEX    A
000437:    6371           16372                           TCF      STORJUMP
000438:


000440:                                                                                                  #  STORE CODE JUMP TABLE.  CALLS THE APPROPRIATE STORING ROUTINE AND EXITS TO DANZIG OR TO ADDRESS WITH
000441:                                                                                                  #  A SUPPLIED OPERATION CODE.
000442:
000443:                                                                                                  #  STORE STORE,1 AND STORE,2 RETURN TO DANZIG, THUS RESETTING THE EBANK TO ITS STATE AT INTPRET.
000444:
000445:    6372           06422        STORJUMP           TC       STORE                                 #  STORE.
000446:    6373           16061                           TCF      DANZIG                                #  PICK UP NEW OP CODE(S).
000447:    6374           06414                           TC       STORE,1
000448:    6375           16061                           TCF      DANZIG
000449:    6376           06417                           TC       STORE,2
000450:    6377           16061                           TCF      DANZIG
000451:
000452:    6400           06422                           TC       STORE                                 #  STODL.
000453:    6401           16460                           TCF      DODLOAD
000454:
000455:    6402           06422                           TC       STORE                                 #  STODL WITH INDEXED LOAD ADDRESS.
000456:    6403           16144                           TCF      DODLOAD*
000457:
000458:    6404           06422                           TC       STORE                                 #  STOVL.
000459:    6405           16463                           TCF      DOVLOAD
000460:
000461:    6406           06422                           TC       STORE                                 #  STOVL WITH INDEXED LOAD ADDRESS.
000462:    6407           16466                           TCF      DOVLOAD*
000463:    6410           06422                           TC       STORE                                 #  STOTC.
000464:    6411           34766                           CAF      CALLCODE
000465:    6412           54020                           TS       CYR
000466:    6413           16252                           TCF      15BITADR                              #  GET A 15 BIT ADDRESS.
000467:


000469:                                                                                                  #  STORE CODE ADDRESS PROCESSOR.
000470:
000471:    6414           50120        STORE,1            INDEX    FIXLOC
000472:    6415           40046                           CS       X1
000473:    6416           16421                           TCF      PRESTORE
000474:
000475:    6417           50120        STORE,2            INDEX    FIXLOC
000476:    6420           40047                           CS       X2
000477:    6421           26116        PRESTORE           ADS      ADDRWD                                #  RESULTANT ADDRESS IS IN ERASABLE.
000478:
000479:    6422           40116        STORE              CS       ADDRWD
000480:    6423           64772                           AD       DEC45
000481:    6424           10000                           CCS      A                                     #  DOES THE ADDRESS POINT TO THE WORK AREA?
000482:    6425           30120                           CA       FIXLOC                                #  YES.
000483:    6426           16433                           TCF      AHEAD5
000484:    6427           35007                           CA       OCT1400                               #  NO.  SET EBANK & MAKE UP SUBADDRESS.
000485:    6430           56116                           XCH      ADDRWD
000486:    6431           54003                           TS       EBANK
000487:    6432           74357                           MASK     LOW8
000488:    6433           26116        AHEAD5             ADS      ADDRWD
000489:


000491:                                                                                                  #  STORING ROUTINES.  STORE DP, TP, OR VECTOR AS INDICATED BY MODE.
000492:
000493:    6434           00006        STARTSTO           EXTEND                                         #  MPAC,+1 MUST BE STORED IN ANY EVENT.
000494:                                                                                                  #  ITRACE (5) REFERS TO "STARTSTO".
000495:    6435           30155                           DCA      MPAC
000496:    6436           50116                           INDEX    ADDRWD
000497:    6437           52001                           DXCH     0
000498:
000499:    6440           10163                           CCS      MODE
000500:    6441           16454                           TCF      TSTORE
000501:    6442           00002                           TC       Q
000502:
000503:    6443           00006        VSTORE             EXTEND
000504:    6444           30160                           DCA      MPAC       +3
000505:    6445           50116                           INDEX    ADDRWD
000506:    6446           52003                           DXCH     2
000507:
000508:    6447           00006                           EXTEND
000509:    6450           30162                           DCA      MPAC       +5
000510:    6451           50116                           INDEX    ADDRWD
000511:    6452           52005                           DXCH     4
000512:    6453           00002                           TC       Q
000513:
000514:    6454           30156        TSTORE             CA       MPAC       +2
000515:    6455           50116                           INDEX    ADDRWD
000516:    6456           54002                           TS       2
000517:    6457           00002                           TC       Q
000518:


000520:                                                                                                  #  ROUTINES TO BEGIN PROCESSING OF THE SECOND ADDRESS ASSOCIATED WITH ALL STORE-TYPE CODES EXCEPT STORE
000521:                                                                                                  #  ITSELF.
000522:
000523:    6460           37732        DODLOAD            CAF      DLOADCOD
000524:    6461           54020                           TS       CYR
000525:    6462           16106                           TCF      DIRADRES                              #  GO GET A DIRECT ADDRESS.
000526:
000527:    6463           34735        DOVLOAD            CAF      VLOADCOD
000528:    6464           54020                           TS       CYR
000529:    6465           16106                           TCF      DIRADRES
000530:
000531:    6466           36107        DOVLOAD*           CAF      VLOAD*
000532:    6467           16145                           TCF      DODLOAD*   +1                         #  PROLOGUE TO INDEX ROUTINE.
000533:


000535:                                                                                                  #  THE FOLLOWING LOAD INSTRUCTIONS ARE PROVIDED FOR LOADING THE MULTI-PURPOSE ACCUMULATOR MPAC.
000536:
000537:    6470           50116        TLOAD              INDEX    ADDRWD
000538:    6471           30002                           CA       2                                     #  LOAD A TRIPLE PRECISION ARGUMENT INTO
000539:    6472           54156                           TS       MPAC       +2                         #  THE FIRST THREE MPAC REGISTERS, WITH THE
000540:    6473           00006                           EXTEND                                         #  CONTENTS OF THE OTHER FOUR IRRELEVANT.
000541:    6474           50116                           INDEX    ADDRWD
000542:    6475           30001                           DCA      0
000543:    6476           52155                           DXCH     MPAC
000544:    6477           34753        TMODE              CAF      ONE
000545:    6500           16060                           TCF      NEWMODE                               #  DECLARE TRIPLE PRECISION MODE.
000546:
000547:    6501           22007        SLOAD              ZL                                             #  LOAD A SINGLE PRECISION NUMBER INTO
000548:    6502           50116                           INDEX    ADDRWD                                #  MPAC, SETTING MPAC+1,2 TO ZERO.  THE
000549:    6503           30000                           CA       0                                     #  CONTENTS OF THE REMAINING MPAC REGISTERS
000550:    6504           16055                           TCF      SLOAD2                                #  ARE IRRELEVANT.
000551:
000552:    6505           00006        VLOAD              EXTEND                                         #  LOAD A DOUBLE PRECISION VECTOR INTO
000553:    6506           50116                           INDEX    ADDRWD                                #  MPAC,+1, MPAC+3,4, AND MPAC+5,6.  THE
000554:    6507           30001                           DCA      0                                     #  CONTENTS OF MPAC +2 ARE IRRELEVANT.
000555:    6510           52155                           DXCH     MPAC
000556:
000557:    6511           00006        ENDVLOAD           EXTEND                                         #  PDVL COMES HERE TO FINISH UP FOR DP, TP.
000558:    6512           50116                           INDEX    ADDRWD
000559:    6513           30003                           DCA      2
000560:    6514           52160                           DXCH     MPAC       +3
000561:
000562:    6515           00006                 +4        EXTEND                                         #  TPDVL FINISHES HERE.
000563:    6516           50116                           INDEX    ADDRWD
000564:    6517           30005                           DCA      4
000565:    6520           52162                           DXCH     MPAC       +5
000566:
000567:    6521           44753        VMODE              CS       ONE                                   #  DECLARE VECTOR MODE.
000568:    6522           16060                           TCF      NEWMODE
000569:


000571:                                                                                                  #  THE FOLLOWING INSTRUCTIONS ARE PROVIDED FOR STORING OPERANDS IN THE PUSHDOWN LIST:
000572:                                                                                                  #        1.      PUSH            PUSHDOWN AND NO LOAD.
000573:                                                                                                  #        2.      PDDL            PUSHDOWN AND DOUBLE PRECISION LOAD.
000574:                                                                                                  #        3.      PDVL            PUSHDOWN AND VECTOR LOAD.
000575:
000576:    6523           00006        PDDL               EXTEND
000577:    6524           50116                           INDEX    ADDRWD                                #  LOAD MPAC,+1, PUSHING THE FORMER
000578:    6525           30001                           DCA      0                                     #  CONTENTS DOWN.
000579:    6526           52155                           DXCH     MPAC
000580:    6527           50166                           INDEX    PUSHLOC
000581:    6530           52001                           DXCH     0
000582:
000583:    6531           50163                           INDEX    MODE                                  #  ADVANCE THE PUSHDOWN POINTER APPRO-
000584:    6532           36244                           CAF      NO.WDS                                #  PRIATELY.
000585:    6533           26166                           ADS      PUSHLOC
000586:
000587:    6534           10163                           CCS      MODE
000588:    6535           16552                           TCF      ENDTPUSH
000589:    6536           16550                           TCF      ENDDPUSH
000590:
000591:    6537           54163                           TS       MODE                                  #  NOW DP.
000592:    6540           54156        ENDVPUSH           TS       MPAC       +2
000593:    6541           52160                           DXCH     MPAC       +3                         #  PUSH DOWN THE REST OF THE VECTOR HERE.
000594:    6542           50166                           INDEX    PUSHLOC
000595:    6543           51775                           DXCH     0          -4
000596:
000597:    6544           52162                           DXCH     MPAC       +5
000598:    6545           50166                           INDEX    PUSHLOC
000599:    6546           51777                           DXCH     0          -2
000600:
000601:    6547           16061                           TCF      DANZIG
000602:
000603:    6550           54156        ENDDPUSH           TS       MPAC       +2                         #  SET MPAC +2 TO ZERO AND EXIT ON DP.
000604:    6551           16061                           TCF      DANZIG
000605:
000606:    6552           54163        ENDTPUSH           TS       MODE
000607:    6553           56156                           XCH      MPAC       +2                         #  ON TRIPLE, SET MPAC +2 TO ZERO, PUSHING
000608:    6554           50166                 +2        INDEX    PUSHLOC                               #  DOWN THE OLD CONTENTS
000609:    6555           53777                           TS       0          -1
000610:    6556           16061                           TCF      DANZIG
000611:


000613:                                                                                                  #  PDVL - PUSHDOWN AND VECTOR LOAD.
000614:
000615:    6557           00006        PDVL               EXTEND                                         #  RELOAD MPAC AND PUSH DOWN ITS CONTENTS.
000616:    6560           50116                           INDEX    ADDRWD
000617:    6561           30001                           DCA      0
000618:    6562           52155                           DXCH     MPAC
000619:    6563           50166                           INDEX    PUSHLOC
000620:    6564           52001                           DXCH     0
000621:
000622:    6565           50163                           INDEX    MODE                                  #  ADVANCE THE PUSHDOWN POINTER.
000623:    6566           36244                           CAF      NO.WDS
000624:    6567           26166                           ADS      PUSHLOC
000625:
000626:    6570           10163                           CCS      MODE                                  #  TEST PAST MODE.
000627:    6571           16610                           TCF      TPDVL
000628:    6572           16511                           TCF      ENDVLOAD                              #  JUST LOAD LAST FOUR REGISTERS ON DP.
000629:
000630:    6573           00006        VPDVL              EXTEND                                         #  PUSHDOWN AND RE-LOAD LAST TWO COMPONENTS
000631:    6574           50116                           INDEX    ADDRWD
000632:    6575           30003                           DCA      2
000633:    6576           52160                           DXCH     MPAC       +3
000634:    6577           50166                           INDEX    PUSHLOC
000635:    6600           51775                           DXCH     0          -4
000636:
000637:    6601           00006                           EXTEND
000638:    6602           50116                           INDEX    ADDRWD
000639:    6603           30005                           DCA      4
000640:    6604           52162                           DXCH     MPAC       +5
000641:    6605           50166                           INDEX    PUSHLOC
000642:    6606           51777                           DXCH     0          -2
000643:
000644:    6607           16061                           TCF      DANZIG
000645:
000646:    6610           00006        TPDVL              EXTEND                                         #  ON TP, WE MUST LOAD THE Y COMPONENT
000647:    6611           50116                           INDEX    ADDRWD                                #  BEFORE STORING MPAC +2 IN CASE THIS IS A
000648:    6612           30003                           DCA      2                                     #  PUSHUP.
000649:    6613           52160                           DXCH     MPAC       +3
000650:
000651:    6614           30156                           CA       MPAC       +2
000652:    6615           50166                           INDEX    PUSHLOC                               #  IN DP.
000653:    6616           53777                           TS       0          -1
000654:    6617           16515                           TCF      ENDVLOAD   +4
000655:
000656:                                                                                                  #  SSP (STORE SINGLE PRECISION) IS EXECUTED HERE.
000657:
000658:    6620           24164        SSP                INCR     LOC                                   #  PICK UP THE WORD FOLLOWING THE GIVEN
000659:    6621           50164                           INDEX    LOC                                   #  ADDRESS AND STORE IT AT X.
000660:    6622           30000                           CA       0
000661:    6623           50116        STORE1             INDEX    ADDRWD                                #  SOME INDEX AND MISCELLANEOUS OPS END
000662:    6624           54000                           TS       0                                     #  HERE.


000664:    6625           16061                           TCF      DANZIG
000665:


000667:                                                                                                  #  SEQUENCE CHANGING AND SUBROUTINE CALLING OPTIONS.
000668:
000669:                                                                                                  #  THE FOLLOWING OPERATIONS ARE AVAILABLE FOR SEQUENCING CHANGING, BRANCHING, AND CALLING SUBROUTINES:
000670:                                                                                                  #        1.      GOTO            GO TO.
000671:                                                                                                  #        2.      CALL            CALL SUBROUTINE SETTING QPRET.
000672:                                                                                                  #        3.      CGOTO           COMPUTED GO TO.
000673:                                                                                                  #        4.      CCALL           COMPUTED CALL.
000674:                                                                                                  #        7.      BPL             BRANCH IF MPAC POSITIVE OR ZERO.
000675:                                                                                                  #        8.      BZE             BRANCH IF MPAC ZERO.
000676:                                                                                                  #        9.      BMN             BRANCH IF MPAC NEGATIVE NON-ZERO.
000677:
000678:    6626           24164        CCALL              INCR     LOC                                   #  MAINTAIN LOC FOR QPRET COMPUTATION.
000679:    6627           50164                           INDEX    LOC
000680:    6630           30000                           CAF      0                                     #  GET BASE ADDRESS OF CADR LIST.
000681:    6631           50116                           INDEX    ADDRWD
000682:    6632           60000                           AD       0                                     #  ADD INCREMENT.
000683:    6633           54004                           TS       FBANK                                 #  SELECT DESIRED CADR.
000684:    6634           75012                           MASK     LOW10
000685:    6635           50000                           INDEX    A
000686:    6636           32000                           CAF      10000
000687:    6637           54117                           TS       POLISH
000688:
000689:    6640           30165        CALL               CA       BANKSET                               #  FOR ANY OF THE CALL OPTIONS, MAKE UP THE
000690:    6641           74350                           MASK     BANKMASK                              #  ADDRESS OF THE NEXT OP-CODE PAIR/STORE
000691:    6642           64350                           AD       BANKMASK                              #  CODE AND LEAVE IT IN QPRET.  NOTE THAT
000692:    6643           60164                           AD       LOC                                   #  BANKMASK = -(2000 - 1).
000693:    6644           50120                           INDEX    FIXLOC
000694:    6645           54052                           TS       QPRET
000695:
000696:    6646           30117        GOTO               CA       POLISH                                #  BASIC BRANCHING SEQUENCE.
000697:    6647           77742                 +1        MASK     HIGH4
000698:    6650           00006                           EXTEND
000699:    6651           16662                           BZF      GOTOERS                               #  SEE IF ADDRESS POINTS TO FIXED OR ERAS.
000700:    6652           30165                 +4        CA       BANKSET                               #  SET EBANK PART OF BBANK.  NEXT, SET UP
000701:    6653           54006                           TS       BBANK                                 #  FBANK.  THE COMBINATION IS PICKED UP &
000702:    6654           30117                           CA       POLISH                                #  PUT INTO BANKSET AT INTPRET +2.
000703:    6655           54004                           TS       FBANK
000704:    6656           75012                           MASK     LOW10
000705:    6657           64741                           AD       2K
000706:    6660           54164                           TS       LOC
000707:    6661           16042                           TCF      INTPRET    +3
000708:
000709:    6662  E3,1400                                  EBANK=   1400                                  #  SO YUL DOESN'T CUSS THE "CA 1400" BELOW.
000710:
000711:    6662           30117        GOTOERS            CA       POLISH                                #  THE GIVEN ADDRESS IS IN ERASABLE - SEE
000712:    6663           66251                           AD       -ENDVAC                               #  IF RELATIVE TO THE WORK AREA.
000713:    6664           10000                           CCS      A
000714:    6665           30117                           CA       POLISH                                #  GENERAL ERASABLE.
000715:    6666           16675                           TCF      GOTOGE
000716:


000718:    6667           30120                           CA       FIXLOC                                #  WORK AREA.
000719:    6670           60117                           AD       POLISH
000720:    6671           50000                           INDEX    A                                     #  USE THE GIVEN ADDRESS AS THE ADDRESS OF
000721:    6672           30000                           CA       0                                     #  THE BRANCH ADDRESS.
000722:    6673           54117                           TS       POLISH
000723:    6674           16647                           TCF      GOTO       +1                         #  ALLOWS ARBITRARY INDIRECTNESS LEVELS.
000724:
000725:    6675           54003        GOTOGE             TS       EBANK
000726:    6676           74357                           MASK     LOW8
000727:    6677           50000                           INDEX    A                                     #  USE THE GIVEN ADDRESS AS THE ADDRESS OF
000728:    6700           31400                           CA       1400                                  #  THE BRANCH ADDRESS.
000729:    6701           54117                           TS       POLISH
000730:    6702           16647                           TCF      GOTO       +1
000731:
000732:    6703           50164        CGOTO              INDEX    LOC                                   #  COMPUTED GO TO.  PICK UP ADDRESS OF CADR
000733:    6704           30001                           CA       1                                     #  LIST.
000734:    6705           50116                           INDEX    ADDRWD                                #  ADD MODIFIER.
000735:    6706           60000                           AD       0
000736:    6707           54004                           TS       FBANK                                 #  SELECT GOTO ADDRESS.
000737:    6710           75012                           MASK     LOW10
000738:    6711           50000                           INDEX    A
000739:    6712           32000                           CA       10000
000740:    6713           54117                           TS       POLISH
000741:    6714           16647                           TCF      GOTO       +1                         #  WITH ADDRESS IN A.
000742:
000743:    6715           30165        SWBRANCH           CA       BANKSET                               #  SWITCH INSTRUCTIONS WHICH ELECT TO
000744:    6716           54004                           TS       FBANK                                 #  BRANCH COME HERE TO DO SO.
000745:    6717           50164                           INDEX    LOC
000746:    6720           30001                           CA       1
000747:    6721           54117                           TS       POLISH
000748:    6722           16647                           TCF      GOTO       +1
000749:


000751:                                                                                                  #  TRIPLE PRECISION BRANCHING ROUTINE.  IF CALLING TC IS AT L, RETURN IS AS FOLLOWS:
000752:                                                                                                  #        L+1     IF MPAC IS GREATER THAN ZERO.
000753:                                                                                                  #        L+2     IF MPAC IS EQUAL TO +0 OR -0.
000754:                                                                                                  #        L+3     IF MPAC IS LESS THAN ZERO.
000755:
000756:    6723           10154        BRANCH             CCS      MPAC
000757:    6724           00002                           TC       Q
000758:    6725           16727                           TCF      +2                                    #  ON ZERO.
000759:    6726           16741                           TCF      NEG
000760:
000761:    6727           10155                           CCS      MPAC       +1
000762:    6730           00002                           TC       Q
000763:    6731           16733                           TCF      +2
000764:    6732           16741                           TCF      NEG
000765:
000766:    6733           10156                           CCS      MPAC       +2
000767:    6734           00002                           TC       Q
000768:    6735           16737                           TCF      +2
000769:    6736           16741                           TCF      NEG
000770:
000771:    6737           50002        Q+1                INDEX    Q
000772:    6740           00001                           TC       1
000773:
000774:    6741           50002        NEG                INDEX    Q                                     #  IF FIRST NON-ZERO REGISTER WAS NEGATIVE.
000775:    6742           00002                           TC       2
000776:
000777:    6743     6741               Q+2                =        NEG
000778:
000779:                                                                                                  #  ITRACE (3) REFERS TO "EXIT".
000780:
000781:    6743           30165        EXIT               CA       BANKSET                               #  RESTORE USER'S BANK SETTING, AND LEAVE
000782:    6744           54006                           TS       BBANK                                 #  INTERPRETIVE MODE.
000783:    6745           50164                           INDEX    LOC
000784:    6746           00001                           TC       1
000785:


000787:                                                                                                  #  SECTION 3 - ADD/SUBTRACT PACKAGE.
000788:
000789:                                                                                                  #           THE FOLLOWING OPERATIONS ARE PROVIDED FOR ADDING TO AND SUBTRACTING FROM THE MULTI-PURPOSE ACCUMULATOR
000790:                                                                                                  #  MPAC:
000791:
000792:                                                                                                  #        1.      DAD     DOUBLE PRECISION ADD.
000793:                                                                                                  #        2.      DSU     DOUBLE PRECISION SUBTRACT.
000794:                                                                                                  #        3.      BDSU    DOUBLE PRECISION SUBTRACT FROM.
000795:                                                                                                  #        4.      TAD     TRIPLE PRECISION ADD.
000796:                                                                                                  #        5.      VAD     VECTOR ADD.
000797:                                                                                                  #        6.      VSU     VECTOR SUBTRACT.
000798:                                                                                                  #        7.      BVSU    VECTOR SUBTRACT FROM.
000799:                                                                                                  #  THE INTERPRETIVE OVERFLOW INDICATOR OVFIND IS SET NON-ZERO IF OVERFLOW OCCURS IN ANY OF THE ABOVE.
000800:
000801:    6747           34735        VSU                CAF      BIT15                                 #  CHANGES 0 TO DCS.
000802:    6750           16752                           TCF      +2
000803:
000804:    6751           34355        VAD                CAF      PRIO30                                #  CHANGES 0 TO DCA.
000805:    6752           26116                           ADS      ADDRWD
000806:    6753           00006                           EXTEND
000807:    6754           50116                           INDEX    ADDRWD
000808:    6755           00003                           READ     HISCALAR                              #  DCA 2 OR DCS 2
000809:    6756           20160                           DAS      MPAC       +3
000810:    6757           00006                           EXTEND                                         #  CHECK OVERFLOW.
000811:    6760           16762                           BZF      +2
000812:    6761           07014                           TC       OVERFLWY
000813:
000814:    6762           00006                           EXTEND
000815:    6763           50116                           INDEX    ADDRWD
000816:    6764           00005                           READ     CHAN5                                 #  DCA 4 OR DCS 4
000817:    6765           20162                           DAS      MPAC       +5
000818:    6766           00006                           EXTEND
000819:    6767           16771                           BZF      +2
000820:    6770           07011                           TC       OVERFLWZ
000821:
000822:    6771           00006                           EXTEND
000823:    6772           50116                           INDEX    ADDRWD
000824:    6773           00001                           READ     LCHAN                                 #  DCA 0 OR DCS 0
000825:    6774           17000                           TCF      ENDVXV
000826:
000827:    6775           00006        DAD                EXTEND
000828:    6776           50116                           INDEX    ADDRWD
000829:    6777           30001                           DCA      0
000830:    7000           20155        ENDVXV             DAS      MPAC                                  #  VXV FINISHES HERE.
000831:    7001           00006                           EXTEND
000832:    7002           16061                           BZF      DANZIG
000833:


000835:    7003           07017        SETOVF             TC       OVERFLOW
000836:    7004           16061                           TCF      DANZIG
000837:


000839:    7005           00006        DSU                EXTEND
000840:    7006           50116                           INDEX    ADDRWD
000841:    7007           40001                           DCS      0
000842:    7010           17000                           TCF      ENDVXV
000843:
000844:    7011           54001        OVERFLWZ           TS       L                                     #  ENTRY FOR THIRD COMPONENT.
000845:    7012           34756                           CAF      FIVE
000846:    7013           17016                           TCF      +3
000847:
000848:    7014           54001        OVERFLWY           TS       L                                     #  ENTRY FOR SECOND COMPONENT.
000849:    7015           36245                           CAF      THREE
000850:    7016           56001                           XCH      L
000851:
000852:    7017           50000        OVERFLOW           INDEX    A                                     #  ENTRY FOR 1ST COMP OR DP (L=0).
000853:    7020           44734                           CS       LIMITS                                #  PICK UP POSMAX OR NEGMAX.
000854:    7021           54130                           TS       BUF
000855:    7022           00006                           EXTEND
000856:    7023           24000                           AUG      A                                     #  FORCE OVERFLOW.
000857:    7024           50001                           INDEX    L
000858:    7025           26155                           ADS      MPAC       +1
000859:    7026           54007                           TS       7
000860:    7027           34755                           CAF      ZERO
000861:    7030           60130                           AD       BUF
000862:    7031           50001                           INDEX    L
000863:    7032           26154                           ADS      MPAC
000864:    7033           54007                           TS       7
000865:    7034           00002                           TC       Q                                     #  NO OVERFLOW EXIT.
000866:    7035           17152                           TCF      SETOVF2                               #  SET OVFIND AND EXIT.
000867:
000868:    7036           00006        BVSU               EXTEND
000869:    7037           50116                           INDEX    ADDRWD
000870:    7040           30003                           DCA      2
000871:    7041           52160                           DXCH     MPAC       +3
000872:    7042           00006                           EXTEND
000873:    7043           40001                           DCOM
000874:    7044           20160                           DAS      MPAC       +3
000875:    7045           00006                           EXTEND
000876:    7046           17050                           BZF      +2
000877:    7047           07014                           TC       OVERFLWY
000878:
000879:    7050           00006                           EXTEND
000880:    7051           50116                           INDEX    ADDRWD
000881:    7052           30005                           DCA      4
000882:    7053           52162                           DXCH     MPAC       +5
000883:    7054           00006                           EXTEND
000884:    7055           40001                           DCOM
000885:    7056           20162                           DAS      MPAC       +5
000886:    7057           00006                           EXTEND
000887:    7060           17062                           BZF      +2
000888:    7061           07011                           TC       OVERFLWZ
000889:


000891:    7062           00006        BDSU               EXTEND
000892:    7063           50116                           INDEX    ADDRWD
000893:    7064           30001                           DCA      0
000894:    7065           52155                           DXCH     MPAC
000895:    7066           00006                           EXTEND
000896:    7067           40001                           DCOM
000897:    7070           17000                           TCF      ENDVXV
000898:


000900:                                                                                                  #  TRIPLE PRECISION ADD ROUTINE.
000901:
000902:    7071           00006        TAD                EXTEND
000903:    7072           50116                           INDEX    ADDRWD
000904:    7073           30002                           DCA      1                                     #  ADD MINOR PARTS FIRST.
000905:    7074           20156                           DAS      MPAC       +1
000906:    7075           50116                           INDEX    ADDRWD
000907:    7076           60000                           AD       0
000908:    7077           60154                           AD       MPAC
000909:    7100           54154                           TS       MPAC
000910:    7101           16061                           TCF      DANZIG
000911:
000912:    7102           17003                           TCF      SETOVF                                #  SET OVFIND IF SUCH OCCURS.
000913:


000915:                                                                                                  #  ARITHMETIC SUBROUTINES REQUIRED IN FIXED-FIXED.
000916:                                                                                                  #        1.  DMPSUB      DOUBLE PRECISION MULTIPLY. MULTIPLY THE CONTENTS OF MPAC,+1 BY THE DP WORD WHOSE ADDRESS
000917:                                                                                                  #                        IS IN ADDRWD AND LEAVE A TRIPLE PRECISION RESULT IN MPAC.
000918:                                                                                                  #        2.  ROUNDSUB    ROUND THE TRIPLE PRECISON CONTENTS OF MPAC TO DOUBLE PRECISION.
000919:                                                                                                  #        3.  DOTSUB      TAKE THE DOT PRODUCT OF THE VECTOR IN MPAC AND THE VECTOR WHOSE ADDRESS IS IN ADDRWD
000920:                                                                                                  #                        AND LEAVE THE TRIPLE PRECISION RESULT IN MPAC.
000921:                                                                                                  #        4.  POLY        USING THE CONTENTS OF MPAC AS A DP ARGUMENT, EVALUATE THE POLYNOMIAL WHOSE DEGREE AND
000922:                                                                                                  #                        COEFFICIENTS IMMEDIATELY FOLLOW THE TC POLY INSTRUCTION (SEE ROUTINE FOR DETAILS.)
000923:
000924:    7103           50002        DMP                INDEX    Q                                     #  BASIC SUBROUTINE FOR USE BY PINBALL, ETC
000925:    7104           30000                           CAF      0                                     #  ADRES OF ARGUMENT FOLLOWS  TC DMP .
000926:    7105           24002                           INCR     Q
000927:    7106           54116                 -1        TS       ADDRWD                                #  (PROLOGUE FOR SETTING ADDRWD.)
000928:
000929:    7107           50116        DMPSUB             INDEX    ADDRWD                                #  GET MINOR PART OF OPERAND AT C(ADDRWD).
000930:    7110           30001                           CA       1
000931:    7111           54156                           TS       MPAC       +2                         #  THIS WORKS FOR SQUARING MPAC AS WELL.
000932:    7112           34755                           CAF      ZERO                                  #  SET MPAC +1 TO ZERO SO WE CAN ACCUMULATE
000933:    7113           56155                           XCH      MPAC       +1                         #  THE PARTIAL PRODUCTS WITH DAS
000934:    7114           54135                           TS       MPTEMP                                #  INSTRUCTIONS.
000935:    7115           00006                           EXTEND
000936:    7116           70156                           MP       MPAC       +2                         #  MINOR OF MPAC X MINOR OF C(ADDRWD).
000937:
000938:    7117           56156                           XCH      MPAC       +2                         #  DISCARD MINOR PART OF ABOVE RESULT AND
000939:    7120           00006                           EXTEND                                         #  FORM MAJOR OF MPAC X MINOR OF C(ADDRWD).
000940:    7121           70154                           MP       MPAC
000941:    7122           20156                           DAS      MPAC       +1                         #  GUARANTEED NO OVERFLOW.
000942:
000943:    7123           50116                           INDEX    ADDRWD                                #  GET MAJOR PART OF ARGUMENT AT C(ADDRWD).
000944:    7124           30000                           CA       0
000945:    7125           56135                           XCH      MPTEMP                                #  SAVE AND BRING OUT MINOR OF MPAC.
000946:    7126           00006        DMPSUB2            EXTEND
000947:    7127           70135                           MP       MPTEMP                                #  MAJOR OF C(ADDRWD) X MINOR OF MPAC.
000948:    7130           20156                           DAS      MPAC       +1                         #  ACCUMULATE, SETTING A TO NET OVERFLOW.
000949:
000950:    7131           56154                           XCH      MPAC                                  #  SETTING MPAC TO 0 OR +-1.
000951:    7132           00006                           EXTEND
000952:    7133           70135                           MP       MPTEMP                                #  MAJOR OF MPAC X MAJOR OF C(ADDRWD).
000953:    7134           20155                           DAS      MPAC                                  #  GUARANTEED NO OVERFLOW.
000954:    7135           00002                           TC       Q                                     #  49 MCT = .573 MS. INCLUDING RETURN.
000955:


000957:                                                                                                  #  ROUND MPAC TO DOUBLE PRECISION, SETTING OVFIND ON THE RARE EVENT OF OVERFLOW.
000958:
000959:    7136           34755        ROUNDSUB           CAF      ZERO                                  #  SET MPAC +2 = 0 FOR SCALARS AND CHANGE
000960:    7137           54163                 +1        TS       MODE                                  #  MODE TO DP.
000961:
000962:    7140           56156        VROUND             XCH      MPAC       +2                         #  BUT WE NEEDNT TAKE THE TIME FOR VECTORS.
000963:    7141           60000                           DOUBLE
000964:    7142           54001                           TS       L
000965:    7143           00002                           TC       Q
000966:
000967:    7144           60155                           AD       MPAC       +1                         #  ADD ROUNDING BIT IF MPAC +2 WAS GREATER
000968:    7145           54155                           TS       MPAC       +1                         #  THAN .5 IN MAGNITUDE.
000969:    7146           00002                           TC       Q
000970:
000971:    7147           60154                           AD       MPAC                                  #  PROPAGATE INTERFLOW.
000972:    7150           54154                           TS       MPAC
000973:    7151           00002                           TC       Q
000974:
000975:    7152           54121        SETOVF2            TS       OVFIND                                #  (RARE).
000976:    7153           00002                           TC       Q
000977:


000979:                                                                                                  #  THE DOT PRODUCT SUBROUTINE USUALLY FORMS THE DOT PRODUCT OF THE VECTOR IN MPAC WITH A STANDARD SIX
000980:                                                                                                  #  REGISTER VECTOR WHOSE ADDRESS IS IN ADDRWD.  IN THIS CASE C(DOTINC) ARE SET TO 2.   VXM, HOWEVER, SETS C(DOTINC) TO
000981:                                                                                                  #  6 SO THAT DOTSUB DOTS MPAC WITH A COLUMN VECTOR OF THE MATRIX IN QUESTION IN THIS CASE.
000982:
000983:    7154           34752        PREDOT             CAF      TWO                                   #  PROLOGUE TO SET DOTINC TO 2.
000984:    7155           54136                           TS       DOTINC
000985:
000986:    7156           00006        DOTSUB             EXTEND
000987:    7157           22137                           QXCH     DOTRET                                #  SAVE RETURN.
000988:    7160           07107                           TC       DMPSUB                                #  DOT X COMPONENTS.
000989:    7161           52160                           DXCH     MPAC       +3                         #  POSITION Y COMPONENT OF MPAC FOR
000990:    7162           52155                           DXCH     MPAC                                  #  MULTIPLICATION WHILE SAVING RESULT IN
000991:    7163           52131                           DXCH     BUF                                   #  THREE WORD BUFFER, BUF.
000992:    7164           30156                           CA       MPAC       +2
000993:    7165           54132                           TS       BUF        +2
000994:
000995:    7166           30136                           CA       DOTINC                                #  ADVANCE ADDRWD TO Y COMPONENT OF
000996:    7167           26116                           ADS      ADDRWD                                #  OTHER ARGUMENT.
000997:    7170           07107                           TC       DMPSUB
000998:    7171           52156                           DXCH     MPAC       +1                         #  ACCUMULATE PARTIAL PRODUCTS.
000999:    7172           20132                           DAS      BUF        +1
001000:    7173           60154                           AD       MPAC
001001:    7174           60130                           AD       BUF
001002:    7175           54130                           TS       BUF
001003:    7176           17200                           TCF      +2
001004:    7177           54121                           TS       OVFIND                                #  IF OVERFLOW OCCURS.
001005:
001006:    7200           52162                           DXCH     MPAC       +5                         #  MULTIPLY Z COMPONENTS.
001007:    7201           52155                           DXCH     MPAC
001008:    7202           30136                           CA       DOTINC
001009:    7203           26116                           ADS      ADDRWD
001010:    7204           07107                           TC       DMPSUB
001011:    7205           52132        ENDDOT             DXCH     BUF        +1                         #  LEAVE FINAL ACCUMULATION IN MPAC.
001012:    7206           20156                           DAS      MPAC       +1
001013:    7207           60154                           AD       MPAC
001014:    7210           60130                           AD       BUF
001015:    7211           54154                           TS       MPAC
001016:    7212           00137                           TC       DOTRET
001017:
001018:    7213           07017                           TC       OVERFLOW                              #  ON OVERFLOW HERE.
001019:    7214           00137                           TC       DOTRET
001020:


001022:                                                                                                  #  DOUBLE PRECISION POLYNOMIAL EVALUATOR
001023:                                                                                                  #                                  N        N-1
001024:                                                                                                  #        THIS ROUTINE EVALUATES A X  + A   X    + ... + A  X + A  LEAVING THE DP RESULT IN MPAC ON EXIT.
001025:                                                                                                  #                                N      N-1              1      0
001026:
001027:                                                                                                  #  THE ROUTINE HAS TWO ENTRIES
001028:
001029:                                                                                                  #        1.      ENTRY THRU POWRSERS.  THE COEFFICIENTS MAY BE EITHER IN FIXED OR ERASABLE, THE CALL IS BY
001030:                                                                                                  #                TC POWRSERS, AND THE RETURN IS TO LOC(TC POWRSERS)+1.  THE ENTERING DATA MUST BE AS FOLLOWS
001031:
001032:                                                                                                  #                        A               SP      LOC-3           ADDRESS FOR REFERENCING COEF TABLE
001033:                                                                                                  #                        L               SP      N-1             N IS THE DEGREE OF THE POWER SERIES
001034:                                                                                                  #                        MPAC            DP      X               ARGUMENT
001035:                                                                                                  #                        LOC-2N          DP      A(0)
001036:                                                                                                  #                                        ...
001037:                                                                                                  #                        LOC             DP      A(N)
001038:
001039:                                                                                                  #        2.      ENTRY THRU POLY.  THE CALL TO POLY AND THE ENTERING DATA MUST BE AS FOLLOWS
001040:
001041:                                                                                                  #                        MPAC            DP      X               ARGUMENT
001042:                                                                                                  #                        LOC             TC      POLY
001043:                                                                                                  #                        LOC+1           SP      N-1
001044:                                                                                                  #                        LOC+2           DP      A(0)
001045:                                                                                                  #                                        ...
001046:                                                                                                  #                        LOC+2N+2        DP      A(N)            RETURN IS TO LOC+2N+4
001047:
001048:    7215           00006        POWRSERS           EXTEND
001049:    7216           22141                           QXCH     POLYRET                               #  RETURN ADDRESS
001050:    7217           54117                           TS       POLISH                                #  POWER SERIES ADDRESS
001051:    7220           22140                           LXCH     POLYCNT                               #  N-1 TO COUNTER
001052:    7221           17232                           TCF      POLYCOM                               #  SKIP SET UP BY POLY
001053:
001054:    7222           50002        POLY               INDEX    Q
001055:    7223           30000                           CAF      0
001056:    7224           54140                           TS       POLYCNT                               #  N-1 TO COUNTER
001057:    7225           60000                           DOUBLE
001058:    7226           60002                           AD       Q
001059:    7227           54117                           TS       POLISH                                #  L(A(N))-3 TO POLISH
001060:    7230           64756                           AD       FIVE
001061:    7231           54141                           TS       POLYRET                               #  STORE RETURN ADDRESS
001062:
001063:    7232           36273        POLYCOM            CAF      LVBUF                                 #  INCOMING X WILL BE MOVED TO VBUF, SO
001064:    7233           54116                           TS       ADDRWD                                #  SET ADDRWD SO DMPSUB WILL MPY BY VBUF.
001065:
001066:    7234           00006                           EXTEND
001067:    7235           50117                           INDEX    POLISH
001068:    7236           30004                           DCA      3
001069:


001071:    7237           52155                           DXCH     MPAC                                  #  LOAD A(N) INTO MPAC,
001072:    7240           52123                           DXCH     VBUF                                  #  SAVING X IN VBUF
001073:    7241           17245                           TCF      POLY2
001074:
001075:    7242           54140        POLYLOOP           TS       POLYCNT                               #  SAVE DECREMENTED LOOP COUNTER
001076:    7243           44752                           CS       TWO
001077:    7244           26117                           ADS      POLISH                                #  REGRESS COEFFICIENT POINTER
001078:
001079:    7245           07107        POLY2              TC       DMPSUB                                #  MULTIPLY BY X
001080:    7246           00006                           EXTEND
001081:    7247           50117                           INDEX    POLISH
001082:    7250           30002                           DCA      1                                     #  ADD IN NEXT COEFFICIENT
001083:    7251           20155                           DAS      MPAC                                  #  USERS RESPONSIBILITY TO ASSURE NO OVFLOW
001084:
001085:    7252           10140                           CCS      POLYCNT
001086:    7253           17242                           TCF      POLYLOOP
001087:    7254           00141                           TC       POLYRET                               #  RETURN CALLER
001088:


001090:                                                                                                  #  MISCELLANEOUS MULTI-PRECISION ROUTINES REQUIRED IN FIXED-FIXED BUT NOT USED BY THE INTERPRETER.
001091:
001092:    7255           34755        DPAGREE            CAF      ZERO                                  #  DOUBLE PRECISION ENTRY -
001093:    7256           54156                           TS       MPAC       +2                         #  ZERO LOW-ORDER WORD
001094:
001095:    7257           22002        TPAGREE            LXCH     Q                                     #  FORCE SIGN AGREEMENT AMONG THE TRIPLE
001096:    7260           06723                           TC       BRANCH                                #  PRECISION CONTENTS OF MPAC.  RETURNING
001097:    7261           17265                           TCF      ARG+                                  #  WITH SIGNUM OF THE INPUT IN A.
001098:    7262           17305                           TCF      ARGZERO
001099:
001100:    7263           44733                           CS       POSMAX                                #  IF NEGATIVE.
001101:    7264           17266                           TCF      +2
001102:
001103:    7265           34733        ARG+               CAF      POSMAX
001104:    7266           54002                           TS       Q
001105:    7267           00006                           EXTEND
001106:    7270           24000                           AUG      A                                     #  FORMS +-1.0.
001107:    7271           60156                           AD       MPAC       +2
001108:    7272           54156                           TS       MPAC       +2
001109:    7273           34755                           CAF      ZERO
001110:    7274           60002                           AD       Q
001111:    7275           60155                           AD       MPAC       +1
001112:    7276           54155                           TS       MPAC       +1
001113:    7277           34755                           CAF      ZERO
001114:    7300           60002                           AD       Q                                     #  Q STILL HAS POSMAX OR NEGMAX IN IT.
001115:    7301           60154                           AD       MPAC
001116:    7302           54154        ARGZERO2           TS       MPAC                                  #  ALWAYS SKIPPING UNLESS ARGZERO.
001117:    7303           54155                           TS       MPAC       +1
001118:    7304           00001                           TC       L                                     #  RETURN VIA L.
001119:
001120:    7305           54156        ARGZERO            TS       MPAC       +2                         #  SET ALL THREE MPAC REGISTERS TO ZERO.
001121:    7306           17302                           TCF      ARGZERO2
001122:
001123:                                                                                                  #  SHORTMP MULTIPLIES THE TP CONTENTS OF MPAC BY THE SINGLE PRECISION NUMBER ARRIVING IN A.
001124:
001125:    7307           54135        SHORTMP            TS       MPTEMP
001126:    7310           00006                           EXTEND
001127:    7311           70156                           MP       MPAC       +2
001128:    7312           54156                           TS       MPAC       +2
001129:    7313           34755        SHORTMP2           CAF      ZERO                                  #  SO SUBSEQUENT DAS WILL WORK.
001130:    7314           56155                           XCH      MPAC       +1
001131:    7315           17126                           TCF      DMPSUB2
001132:


001134:                                                                                                  #  DMPNSUB MULTIPLIES THE DP FRACTION ARRIVING IN MPAC BY THE SP
001135:                                                                                                  #  INTEGER ARRIVING IN A.  THE DP PRODUCT DEPARTS BOTH IN MPAC AND IN
001136:                                                                                                  #  A AND L.  NOTE THAT DMPNSUB NORMALLY INCREASES THE MAGNITUDE OF THE
001137:                                                                                                  #  CONTENTS OF MPAC.  THE CUSTOMER MUST INSURE THAT B(A) X B(MPAC,MPAC+1)
001138:                                                                                                  #  AND B(A) X B(MPAC) ARE LESS THAN 1 IN MAGNITUDE, WHERE B, AS IS OBVIOUS,
001139:                                                                                                  #  INDICATES THE ARRIVING CONTENTS.
001140:
001141:    7316           54135        DMPNSUB            TS       DMPNTEMP
001142:    7317           00006                           EXTEND
001143:    7320           70155                           MP       MPAC       +1
001144:    7321           52155                           DXCH     MPAC                                  #  LOW PRODUCT TO MPAC, HIGH FACTOR TO A
001145:    7322           00006                           EXTEND
001146:    7323           70135                           MP       DMPNTEMP
001147:    7324           30001                           CA       L
001148:    7325           26154                           ADS      MPAC                                  #  COMPLETING THE PRODUCT IN MPAC
001149:    7326           00006                           EXTEND
001150:    7327           30155                           DCA      MPAC                                  #  BRINGING THE PRODUCT INTO A AND L
001151:    7330           00002                           TC       Q
001152:


001154:                                                                                                  #  MISCELLANEOUS VECTOR OPERATIONS.  INCLUDED HERE ARE THE FOLLOWING:
001155:                                                                                                  #        1.      DOT     DP VECTOR DOT PRODUCT.
001156:                                                                                                  #        2.      VXV     DP VECTOR CROSS PRODUCT.
001157:                                                                                                  #        3.      VXSC    DP VECTOR TIMES SCALAR.
001158:                                                                                                  #        4.      V/SC    DP VECTOR DIVIDED BY SCALAR.
001159:                                                                                                  #        5.      VPROJ   DP VECTOR PROJECTION.  ( (MPAC.X)MPAC ).
001160:                                                                                                  #        6.      VXM     DP VECTOR POST-MULTIPLIED BY MATRIX.
001161:                                                                                                  #        7.      MXV     DP VECTOR PRE-MULTIPLIED BY MATRIX.
001162:
001163:    7331           07154        DOT                TC       PREDOT                                #  DO THE DOT PRODUCT AND EXIT, CHANGING
001164:    7332           34755        DMODE              CAF      ZERO                                  #  THE MODE TO DP SCALAR.
001165:    7333           16060                           TCF      NEWMODE
001166:
001167:    7334           34752        MXV                CAF      TWO                                   #  SET UP MATINC AND DOTINC FOR ROW
001168:    7335           54140                           TS       MATINC                                #  VECTORS.
001169:    7336           17342                           TCF      VXM/MXV                               #  GO TO COMMON PORTION.
001170:
001171:    7337           44363        VXM                CS       TEN                                   #  SET MATINC AND DOTINC TO REFER TO MATRIX
001172:    7340           54140                           TS       MATINC                                #  AS THREE COLUMN VECTORS.
001173:    7341           36242                           CAF      SIX
001174:


001176:                                                                                                  #  COMMON PORTION OF MXV AND VXM.
001177:
001178:    7342           54136        VXM/MXV            TS       DOTINC
001179:                                                                                                  #  ITRACE (2) REFERS TO "VXM/MXV".
001180:    7343           07532                           TC       MPACVBUF                              #  SAVE VECTOR IN MPAC FOR FURTHER USE.
001181:
001182:    7344           07156                           TC       DOTSUB                                #  GO DOT TO GET X COMPONENT OF ANSWER.
001183:    7345           00006                           EXTEND
001184:    7346           30123                           DCA      VBUF                                  #  MOVE MPAC VECTOR BACK INTO MPAC, SAVING
001185:    7347           52155                           DXCH     MPAC                                  #  NEW X COMPONENT IN BUF2.
001186:    7350           52134                           DXCH     BUF2
001187:    7351           00006                           EXTEND
001188:    7352           30125                           DCA      VBUF       +2
001189:    7353           52160                           DXCH     MPAC       +3
001190:    7354           00006                           EXTEND
001191:    7355           30127                           DCA      VBUF       +4
001192:    7356           52162                           DXCH     MPAC       +5
001193:    7357           30140                           CA       MATINC                                #  INITIALIZE ADDRWD FOR NEXT DOT PRODUCT.
001194:    7360           26116                           ADS      ADDRWD                                #  FORMS BASE ADDRESS OF NEXT COLUMN(ROW).
001195:
001196:    7361           07156                           TC       DOTSUB
001197:    7362           52123                           DXCH     VBUF                                  #  MOVE GIVEN VECTOR BACK TO MPAC, SAVING Y
001198:    7363           52155                           DXCH     MPAC                                  #  COMPONENT OF ANSWER IN VBUF +2.
001199:    7364           52125                           DXCH     VBUF       +2
001200:    7365           52160                           DXCH     MPAC       +3
001201:    7366           52127                           DXCH     VBUF       +4
001202:    7367           52162                           DXCH     MPAC       +5
001203:    7370           30140                           CA       MATINC                                #  FORM ADDRESS OF LAST COLUMN OR ROW.
001204:    7371           26116                           ADS      ADDRWD
001205:
001206:    7372           07156                           TC       DOTSUB
001207:    7373           52134                           DXCH     BUF2                                  #  ANSWER NOW COMPLETE. PUT COMPONENTS INTO
001208:    7374           52155                           DXCH     MPAC                                  #  PROPER MPAC REGISTERS.
001209:    7375           52162                           DXCH     MPAC       +5
001210:    7376           52125                           DXCH     VBUF       +2
001211:    7377           52160                           DXCH     MPAC       +3
001212:    7400           16061                           TCF      DANZIG                                #  EXIT.
001213:


001215:                                                                                                  #  VXSC - VECTOR TIMES SCALAR.
001216:
001217:    7401           10163        VXSC               CCS      MODE                                  #  TEST PRESENT MODE.
001218:    7402           17430                           TCF      DVXSC                                 #  SEPARATE ROUTINE WHEN SCALAR IS IN MPAC.
001219:    7403           17430                           TCF      DVXSC
001220:
001221:    7404           07107        VVXSC              TC       DMPSUB                                #  COMPUTE X COMPONENT
001222:    7405           07140                           TC       VROUND                                #  AND ROUND IT.
001223:    7406           52160                           DXCH     MPAC       +3                         #  PUT Y COMPONENT INTO MPAC SAVING MPAC IN
001224:    7407           52155                           DXCH     MPAC                                  #  MPAC +3.
001225:    7410           52160                           DXCH     MPAC       +3
001226:
001227:    7411           07107                           TC       DMPSUB                                #  DO SAME FOR Y AND Z COMPONENTS.
001228:    7412           07140                           TC       VROUND
001229:    7413           52162                           DXCH     MPAC       +5
001230:    7414           52155                           DXCH     MPAC
001231:    7415           52162                           DXCH     MPAC       +5
001232:
001233:    7416           07107                           TC       DMPSUB
001234:    7417           07140                           TC       VROUND
001235:    7420           52155        VROTATEX           DXCH     MPAC                                  #  EXIT USED TO RESTORE MPAC AFTER THIS
001236:    7421           52162                           DXCH     MPAC       +5                         #  TYPE OF ROTATION.  CALLED BY VECTOR SHIFT
001237:    7422           52160                           DXCH     MPAC       +3                         #  RIGHT, V/SC, ETC.
001238:    7423           52155                           DXCH     MPAC
001239:    7424           16061                           TCF      DANZIG
001240:


001242:                                                                                                  #  DP VECTOR PROJECTION ROUTINE.
001243:
001244:    7425           07154        VPROJ              TC       PREDOT                                #  (MPAC.X)MPAC IS COMPUTED AND LEFT IN
001245:    7426           44751                           CS       FOUR                                  #  MPAC.  DO DOT AND FALL INTO DVXSC.
001246:    7427           26116                           ADS      ADDRWD
001247:
001248:                                                                                                  #  VXSC WHEN SCALAR ARRIVES IN MPAC AND VECTOR IS AT X.
001249:
001250:    7430           00006        DVXSC              EXTEND                                         #  SAVE SCALAR IN MPAC +3 AND GET X
001251:    7431           30155                           DCA      MPAC                                  #  COMPONENT OF ANSWER.
001252:    7432           52160                           DXCH     MPAC       +3
001253:    7433           07107                           TC       DMPSUB
001254:    7434           07140                           TC       VROUND
001255:
001256:    7435           34752                           CAF      TWO                                   #  ADVANCE ADDRWD TO Y COMPONENT OF X.
001257:    7436           26116                           ADS      ADDRWD
001258:    7437           00006                           EXTEND
001259:    7440           30160                           DCA      MPAC       +3                         #  PUT SCALAR BACK INTO MPAC AND SAVE
001260:    7441           52155                           DXCH     MPAC                                  #  X RESULT IN MPAC +5.
001261:    7442           52162                           DXCH     MPAC       +5
001262:    7443           07107                           TC       DMPSUB
001263:    7444           07140                           TC       VROUND
001264:
001265:    7445           34752                           CAF      TWO
001266:    7446           26116                           ADS      ADDRWD                                #  TO Z COMPONENT.
001267:    7447           52160                           DXCH     MPAC       +3                         #  BRING SCALAR BACK, PUTTING Y RESULT IN
001268:    7450           52155                           DXCH     MPAC                                  #  THE PROPER PLACE.
001269:    7451           52160                           DXCH     MPAC       +3
001270:    7452           07107                           TC       DMPSUB
001271:    7453           07140                           TC       VROUND
001272:
001273:    7454           52155                           DXCH     MPAC                                  #  PUT Z COMPONENT IN PROPER PLACE, ALSO
001274:    7455           52162                           DXCH     MPAC       +5                         #  POSITIONING X.
001275:    7456           52155                           DXCH     MPAC
001276:
001277:    7457           16521                           TCF      VMODE                                 #  MODE HAS CHANGED TO VECTOR.
001278:


001280:                                                                                                  #           THE VECTOR CROSS PRODUCT ROUTINE CALCULATES (X M -X M ,X M -X M ,X M -X M ) WHERE M IS THE VECTOR IN
001281:                                                                                                  #                                                         3 2  2 3  1 3  3 1  2 1  1 2
001282:                                                                                                  #  MPAC AND X THE VECTOR AT THE GIVEN ADDRESS.
001283:
001284:    7460           00006        VXV                EXTEND
001285:    7461           30162                           DCA      MPAC       +5                         #  FORM UP M3X1, LEAVING M1 IN VBUF.
001286:    7462           52155                           DXCH     MPAC
001287:    7463           52123                           DXCH     VBUF
001288:    7464           07107                           TC       DMPSUB                                #  BY X1.
001289:
001290:    7465           00006                           EXTEND
001291:    7466           40160                           DCS      MPAC       +3                         #  CALCULATE -X1M2, SAVING X1M3 IN VBUF +2.
001292:    7467           52155                           DXCH     MPAC
001293:    7470           52125                           DXCH     VBUF       +2
001294:    7471           07107                           TC       DMPSUB
001295:
001296:    7472           34752                           CAF      TWO                                   #  ADVANCE ADDRWD TO X2.
001297:    7473           26116                           ADS      ADDRWD
001298:    7474           00006                           EXTEND
001299:    7475           40162                           DCS      MPAC       +5                         #  PREPARE TO GET -X2M3, SAVING -X1M2 IN
001300:    7476           52155                           DXCH     MPAC                                  #  MPAC +5.
001301:    7477           52162                           DXCH     MPAC       +5
001302:    7500           07107                           TC       DMPSUB
001303:
001304:    7501           00006                           EXTEND
001305:    7502           30123                           DCA      VBUF                                  #  GET X2M1, SAVING -X2M3 IN VBUF +4.
001306:    7503           52155                           DXCH     MPAC
001307:    7504           52127                           DXCH     VBUF       +4
001308:    7505           07107                           TC       DMPSUB
001309:
001310:    7506           34752                           CAF      TWO                                   #  ADVANCE ADDRWD TO X3.
001311:    7507           26116                           ADS      ADDRWD
001312:    7510           00006                           EXTEND
001313:    7511           40123                           DCS      VBUF                                  #  GET -X3M1, ADDING X2M1 TO MPAC +5 TO
001314:    7512           52155                           DXCH     MPAC                                  #  COMPLETE THE Z COMPONENT OF THE ANSWER.
001315:    7513           20162                           DAS      MPAC       +5
001316:
001317:    7514           00006                           EXTEND
001318:    7515           17517                           BZF      +2
001319:    7516           07011                           TC       OVERFLWZ
001320:
001321:    7517           07107                           TC       DMPSUB
001322:    7520           52125                           DXCH     VBUF       +2                         #  MOVE X1M3 TO MPAC +3 SETTING UP FOR X3M2
001323:    7521           52160                           DXCH     MPAC       +3                         #  AND ADD -X3M1 TO MPAC +3 TO COMPLETE THE
001324:    7522           52155                           DXCH     MPAC                                  #  Y COMPONENT OF THE RESULT.
001325:    7523           20160                           DAS      MPAC       +3
001326:
001327:    7524           00006                           EXTEND
001328:    7525           17527                           BZF      +2


001330:    7526           07014                           TC       OVERFLWY
001331:
001332:    7527           07107                           TC       DMPSUB
001333:    7530           52127                           DXCH     VBUF       +4                         #  GO ADD -X2M3 TO X3M2 TO COMPLETE THE X
001334:    7531           17000                           TCF      ENDVXV                                #  COMPONENT (TAIL END OF DAD).
001335:
001336:                                                                                                  #  THE MPACVBUF SUBROUTINE SAVES THE VECTOR IN MPAC IN VBUF WITHOUT CLOBBERING MPAC.
001337:
001338:    7532           00006        MPACVBUF           EXTEND                                         #  CALLED BY MXV, VXM, AND UNIT.
001339:    7533           30155                           DCA      MPAC
001340:    7534           52123                           DXCH     VBUF
001341:    7535           00006                           EXTEND
001342:    7536           30160                           DCA      MPAC       +3
001343:    7537           52125                           DXCH     VBUF       +2
001344:    7540           00006                           EXTEND
001345:    7541           30162                           DCA      MPAC       +5
001346:    7542           52127                           DXCH     VBUF       +4
001347:    7543           00002                           TC       Q                                     #  RETURN TO CALLER.
001348:
001349:                                                                                                  #  DOUBLE PRECISION SIGN AGREE ROUTINE.  ARRIVE WITH INPUT IN A+L.  OUTPUT IS IN A + L.
001350:
001351:    7544           10000        ALSIGNAG           CCS      A                                     #  TEST UPPER PART.
001352:    7545           17551                           TCF      UPPOS                                 #  IT IS POSITIVE
001353:    7546           00002                           TC       Q                                     #  ZERO
001354:    7547           17561                           TCF      UPNEG                                 #  NEGATIVE
001355:    7550           00002                           TC       Q                                     #  ZERO
001356:
001357:    7551           56001        UPPOS              XCH      L                                     #  SAVE DECREMENTED UPPER PART.
001358:    7552           64736                           AD       HALF
001359:    7553           64736                           AD       HALF
001360:    7554           54000                           TS       A                                     #  SKIPS ON OVERFLOW
001361:    7555           17557                           TCF      +2
001362:    7556           24001                           INCR     L                                     #  RESTORE UPPER TO ROIGINAL VALUE
001363:    7557           56001                           XCH      L                                     #  SWAP A + L BACK.
001364:    7560           00002                           TC       Q
001365:
001366:    7561           56001        UPNEG              XCH      L                                     #  SAVE COMPLEMENTED + DECREMENTED UPPER PT
001367:    7562           64735                           AD       NEGMAX
001368:    7563           67747                           AD       NEGONE
001369:    7564           54000                           TS       A
001370:    7565           17567                           TCF      +2                                    #  DONT INCREMENT IF NO OVERFLOW.
001371:    7566           24001                           INCR     L
001372:    7567           56001                           XCH      L
001373:    7570           40000                           COM                                            #  MAKE NEGATIVE AGAIN.
001374:    7571           00002                           TC       Q
001375:


001377:                                                                                                  #  INTERPRETIVE INSTRUCTIONS WHOSE EXECUTION CONSISTS OF PRINCIPALLY CALLING SUBROUTINES.
001378:
001379:    7572           07107        DMP1               TC       DMPSUB                                #  DMP INSTRUCTION.
001380:    7573           16061                           TCF      DANZIG
001381:
001382:    7574           07107        DMPR               TC       DMPSUB
001383:    7575           07137                           TC       ROUNDSUB   +1                         #  (C(A) = +0).
001384:    7576           16061                           TCF      DANZIG
001385:
001386:    7577           00006        DDV                EXTEND
001387:    7600           50116                           INDEX    ADDRWD                                #  MOVE DIVIDEND INTO BUF.
001388:    7601           30001                           DCA      0
001389:    7602           17607                           TCF      BDDV       +4
001390:
001391:    7603           00006        BDDV               EXTEND                                         #  MOVE DIVISOR INTO MPAC SAVING MPAC, THE
001392:    7604           50116                           INDEX    ADDRWD                                #  DIVIDEND, IN BUF.
001393:    7605           30001                           DCA      0
001394:    7606           52155                           DXCH     MPAC
001395:    7607           52131                 +4        DXCH     BUF
001396:    7610           34755                           CAF      ZERO                                  #  DIVIDE ROUTINES IN BANK 0.
001397:    7611           54004                           TS       FBANK
001398:    7612           12353                           TCF      DDV/BDDV
001399:
001400:    7613           30116        SETPD              CA       ADDRWD                                #  MUST SET TO WORK AREA, OR EBANK TROUBLE.
001401:    7614           54166                           TS       PUSHLOC
001402:    7615           16063                           TCF      NOIBNKSW                              #  NO FBANK SWITCH REQUIRED.
001403:
001404:    7616           34755        TSLC               CAF      ZERO                                  #  SHIFTING ROUTINES LOCATED IN BANK 00.
001405:    7617           54004                           TS       FBANK
001406:    7620           12172                           TCF      TSLC2
001407:
001408:    7621           36074        GSHIFT             CAF      LOW7                                  #  USED AS MASK AT GENSHIFT. THIS PROCESSES
001409:    7622           54004                           TS       FBANK                                 #  ANY SHIFT INSTRUCTION (EXCEPT TSLC) WITH
001410:    7623           12214                           TCF      GENSHIFT                              #  AN ADDRESS (ROUTINES IN BANK 0).
001411:


001413:                                                                                                  #  THE FOLLOWING IS THE PROLOGUE TO V/SC.  IF THE PRESENT MODE IS VECTOR, IT SAVES THE SCALAR AT X IN BUF
001414:                                                                                                  #  AND CALLS THE V/SC ROUTINE IN BANK 0.  IF THE PRESENT MODE IS SCALAR, IT MOVES THE VECTOR AT X INTO MPAC, SAVING
001415:                                                                                                  #  THE SCALAR IN MPAC IN BUF BEFORE CALLING THE V/SC ROUTINE IN BANK 0.
001416:
001417:    7624           10163        V/SC               CCS      MODE
001418:    7625           17636                           TCF      DV/SC                                 #  MOVE VECTOR INTO MPAC.
001419:    7626           17636                           TCF      DV/SC
001420:
001421:    7627           00006        VV/SC              EXTEND
001422:    7630           50116                           INDEX    ADDRWD
001423:    7631           30001                           DCA      0
001424:    7632           52131        V/SC1              DXCH     BUF                                   #  IN BOTH CASES, VECTOR IS NOW IN MPAC AND
001425:    7633           34755                           CAF      ZERO                                  #  SCALAR IN BUF.
001426:    7634           54004                           TS       FBANK
001427:    7635           12654                           TCF      V/SC2
001428:
001429:    7636           00006        DV/SC              EXTEND
001430:    7637           50116                           INDEX    ADDRWD
001431:    7640           30003                           DCA      2
001432:    7641           52160                           DXCH     MPAC       +3
001433:    7642           00006                           EXTEND
001434:    7643           50116                           INDEX    ADDRWD
001435:    7644           30005                           DCA      4
001436:    7645           52162                           DXCH     MPAC       +5
001437:
001438:    7646           44753                           CS       ONE                                   #  CHANGE MODE TO VECTOR.
001439:    7647           54163                           TS       MODE
001440:
001441:    7650           00006                           EXTEND
001442:    7651           50116                           INDEX    ADDRWD
001443:    7652           30001                           DCA      0
001444:    7653           52155                           DXCH     MPAC
001445:    7654           17632                           TCF      V/SC1                                 #  FINISH PROLOGUE AT COMMON SECTION.
001446:


001448:                                                                                                  #  SIGN AND COMPLEMENT INSTRUCTIONS.
001449:
001450:    7655           50116        SIGN               INDEX    ADDRWD                                #  CALL COMP INSTRUCTION IF WORD AT X IS
001451:    7656           10000                           CCS      0                                     #  NEGATIVE NON-ZERO.
001452:    7657           16061                           TCF      DANZIG
001453:    7660           17662                           TCF      +2
001454:    7661           17670                           TCF      COMP                                  #  DO THE COMPLEMENT.
001455:
001456:    7662           50116                           INDEX    ADDRWD
001457:    7663           10001        CCSL               CCS      1
001458:    7664           16061                           TCF      DANZIG
001459:    7665           16061                           TCF      DANZIG
001460:    7666           17670                           TCF      COMP
001461:    7667           16061                           TCF      DANZIG
001462:    7670           00006        COMP               EXTEND                                         #  COMPLEMENT DP MPAC IN EVERY CASE.
001463:    7671           40155                           DCS      MPAC
001464:    7672           52155                           DXCH     MPAC
001465:
001466:    7673           10163                           CCS      MODE                                  #  EITHER COMPLEMENT MPAC +3 OR THE REST OF
001467:    7674           17705                           TCF      DCOMP                                 #  THE VECTOR ACCUMULATOR.
001468:    7675           17705                           TCF      DCOMP
001469:
001470:    7676           00006                           EXTEND                                         #  VECTOR COMPLEMENT.
001471:    7677           40160                           DCS      MPAC       +3
001472:    7700           52160                           DXCH     MPAC       +3
001473:    7701           00006                           EXTEND
001474:    7702           40162                           DCS      MPAC       +5
001475:    7703           52162                           DXCH     MPAC       +5
001476:    7704           16061                           TCF      DANZIG
001477:
001478:    7705           40156        DCOMP              CS       MPAC       +2
001479:    7706           54156                           TS       MPAC       +2
001480:    7707           16061                           TCF      DANZIG
001481:


001483:                                                                                                  #  THE FOLLOWING SHORT SHIFT CODES REQUIRE NO ADDRESS WORD:
001484:                                                                                                  #        1.      SR1 TO SR4      SCALAR SHIFT RIGHT.
001485:                                                                                                  #        2.      SR1R TO SR4R    SCALAR SHIFT RIGHT AND ROUND.
001486:                                                                                                  #        3.      SL1 TO SL4      SCALAR SHIFT LEFT.
001487:                                                                                                  #        4.      SL1R TO SL4R    SCALAR SHIFT LEFT AND ROUND.
001488:                                                                                                  #        5.      VSR1 TO VSR8    VECTOR SHIFT RIGHT (ALWAYS ROUNDS).
001489:                                                                                                  #        6.      VSL1 TO VSL8    VECTOR SHIFT LEFT (NEVER ROUNDS).
001490:                                                                                                  #  THE FOLLOWING CODES REQUIRE AN ADDRESS WHICH MAY BE INDEXED:*
001491:                                                                                                  #        1.      SR              SCALAR SHIFT RIGHT.
001492:                                                                                                  #        2.      SRR             SCALAR SHIFT RIGHT AND ROUND.
001493:                                                                                                  #        3.      SL              SCALAR SHIFT LEFT.
001494:                                                                                                  #        4.      SLR             SCALAR SHIFT LEFT AND ROUND.
001495:                                                                                                  #        5.      VSR             VECTOR SHIFT RIGHT.
001496:                                                                                                  #        6.      VSL             VECTOR SHIFT LEFT.
001497:                                                                                                  #  * IF THE ADDRESS IS INDEXED, AND THE INDEX MODIFICATION RESULTS IN A NEGATIVE SHIFT COUNT, A SHIFT OF THE
001498:                                                                                                  #  ABSOLUTE VALUE OF THE COUNT IS DONE IN THE OPPOSITE DIRECTION.
001499:
001500: 00,2017                                           BANK     00
001501:
001502: 00,2017                                           COUNT*   $$/INTER
001503: 00,2017           36242        SHORTT             CAF      SIX                                   #  SCALAR SHORT SHIFTS COME HERE.  THE SHIFT
001504: 00,2020           70020                           MASK     CYR                                   #  COUNT-1 IS NOW IN BITS 2-3 OF CYR.  THE
001505: 00,2021           54021                           TS       SR                                    #  ROUNDING BIT IS IN BIT1 AT THIS POINT.
001506:
001507: 00,2022           10020                           CCS      CYR                                   #  SEE IF RIGHT OR LEFT SHIFT DESIRED.
001508: 00,2023           12101                           TCF      TSSL                                  #  SHIFT LEFT.
001509:
001510: 00,2024           00024        SRDDV              DEC      20         B-14                       #  MPTEMP SETTING FOR SR BEFORE DDV.
001511:
001512: 00,2025           50021        TSSR               INDEX    SR                                    #  GET SHIFTING BIT.
001513: 00,2026           34736                           CAF      BIT14
001514: 00,2027           54135                           TS       MPTEMP
001515:
001516: 00,2030           10020                           CCS      CYR                                   #  SEE IF A ROUND IS DESIRED.
001517: 00,2031           02050        RIGHTR             TC       MPACSRND                              #  YES - SHIFT RIGHT AND ROUND.
001518: 00,2032           16060                           TCF      NEWMODE                               #  SET MODE TO DP (C(A) = 0).
001519: 00,2033           30135        MPACSHR            CA       MPTEMP                                #  DO A TRIPLE PRECISION SHIFT RIGHT.
001520: 00,2034           00006                           EXTEND
001521: 00,2035           70156                           MP       MPAC       +2
001522: 00,2036           54156                 +3        TS       MPAC       +2                         #  (EXIT FROM SQRT AND ABVAL).
001523: 00,2037           30135                           CA       MPTEMP
001524: 00,2040           00006                           EXTEND
001525: 00,2041           70154                           MP       MPAC                                  #  SHIFT MAJOR PART INTO A,L AND PLACE IN


001527: 00,2042           52155                           DXCH     MPAC                                  #  MPAC,+1.
001528: 00,2043           30135                           CA       MPTEMP
001529: 00,2044           00006                           EXTEND
001530: 00,2045           70001                           MP       L                                     #  ORIGINAL C(MPAC +1).
001531: 00,2046           20156                           DAS      MPAC       +1                         #  GUARANTEED NO OVERFLOW.
001532: 00,2047           16061                           TCF      DANZIG
001533:
001534:                                                                                                  #  MPAC SHIFT RIGHT AND ROUND SUBROUTINES.
001535:
001536: 00,2050           30156        MPACSRND           CA       MPAC       +2                         #  WE HAVE TO DO ALL THREE MULTIPLIES SINCE
001537: 00,2051           00006                           EXTEND                                         #  MPAC +1 AND MPAC +2 MIGHT HAVE SIGN
001538: 00,2052           70135                           MP       MPTEMP                                #  DISAGREEMENT WITH A SHIFT RIGHT OF 1.
001539: 00,2053           56155                           XCH      MPAC       +1
001540: 00,2054           00006                           EXTEND
001541: 00,2055           70135                           MP       MPTEMP
001542: 00,2056           56155                           XCH      MPAC       +1                         #  TRIAL MINOR PART.
001543: 00,2057           60001                           AD       L
001544:
001545: 00,2060           60000        VSHR2              DOUBLE                                         #  (FINISH VECTOR COMPONENT SHIFT RIGHT
001546: 00,2061           54156                           TS       MPAC       +2                         #  AND ROUND.
001547: 00,2062           12064                           TCF      +2
001548: 00,2063           26155                           ADS      MPAC       +1                         #  GUARANTEED NO OVERFLOW.
001549:
001550: 00,2064           34755                           CAF      ZERO
001551: 00,2065           54156                           TS       MPAC       +2
001552: 00,2066           56154                           XCH      MPAC                                  #  SETTING TO ZERO SO FOLLOWING DAS WORKS.
001553: 00,2067           00006                           EXTEND
001554: 00,2070           70135                           MP       MPTEMP
001555: 00,2071           20155                           DAS      MPAC                                  #  AGAIN NO OVERFLOW.
001556: 00,2072           00002                           TC       Q
001557:
001558: 00,2073           30135        VSHRRND            CA       MPTEMP                                #  ENTRY TO SHIFT RIGHT AND ROUND MPAC WHEN
001559: 00,2074           00006                           EXTEND                                         #  MPAC CONTAINS A VECTOR COMPONENT.
001560: 00,2075           70155                           MP       MPAC       +1
001561: 00,2076           54155                           TS       MPAC       +1
001562: 00,2077           56001                           XCH      L
001563: 00,2100           12060                           TCF      VSHR2                                 #  GO ADD ONE IF NECESSARY AND FINISH.
001564:


001566:                                                                                                  #  ROUTINE FOR SHORT SCALAR SHIFT LEFT (AND MAYBE ROUND).
001567:
001568: 00,2101           30021        TSSL               CA       SR                                    #  GET SHIFT COUNT FOR SR.
001569: 00,2102           54135                 +1        TS       MPTEMP
001570:
001571: 00,2103           00006                 +2        EXTEND                                         #  ENTRY HERE FROM SL FOR SCALARS.
001572: 00,2104           30156                           DCA      MPAC       +1                         #  SHIFTING LEFT ONE PLACE AT A TIME IS
001573: 00,2105           20156                           DAS      MPAC       +1                         #  FASTER THAN DOING THE WHOLE SHIFT WITH
001574: 00,2106           60154                           AD       MPAC                                  #  MULTIPLIES ASSUMING THAT FREQUENCY OF
001575: 00,2107           60154                           AD       MPAC                                  #  SHIFT COUNTS GOES DOWN RAPIDLY AS A
001576: 00,2110           54154                           TS       MPAC                                  #  FUNCTION OF THEIR MAGNITUDE.
001577: 00,2111           12113                           TCF      +2
001578: 00,2112           54121                           TS       OVFIND                                #  OVERFLOW.  (LEAVES OVERFLOW-CORRECTED
001579:                                                                                                  #  RESULT ANYWAY).
001580: 00,2113           10135                           CCS      MPTEMP                                #  LOOP ON DECREMENTED SHIFT COUNT.
001581: 00,2114           12102                           TCF      TSSL       +1
001582:
001583: 00,2115           10020                           CCS      CYR                                   #  SEE IF ROUND WANTED.
001584: 00,2116           07136        ROUND              TC       ROUNDSUB                              #  YES - ROUND AND EXIT.
001585: 00,2117           16061                           TCF      DANZIG                                #  SL LEAVES A ZERO IN CYR FOR NO ROUND.
001586: 00,2120           16061                           TCF      DANZIG                                #  NO - EXIT IMMEDIATL
001587:


001589:                                                                                                  #  VECTOR SHIFTING ROUTINES.
001590:
001591: 00,2121           34757        SHORTV             CAF      LOW3                                  #  SAVE 3 BIT SHIFT COUNT - 1 WITHOUT
001592: 00,2122           70020                           MASK     CYR                                   #  EDITING CYR.
001593: 00,2123           54135                           TS       MPTEMP
001594: 00,2124           10020                           CCS      CYR                                   #  SEE IF LEFT OR RIGHT SHIFT.
001595: 00,2125           12145                           TCF      VSSL                                  #  VECTOR SHIFT LEFT.
001596: 00,2126           00176        OCT176             OCT      176                                   #  USED IN PROCESSED SHIFTS WITH - COUNT.
001597:
001598: 00,2127           50135        VSSR               INDEX    MPTEMP                                #  (ENTRY FROM SR).  PICK UP SHIFTING BIT.
001599: 00,2130           34736                           CAF      BIT14                                 #  MPTEMP CONTAINS THE SHIFT COUNT - 1.
001600: 00,2131           54135                           TS       MPTEMP
001601: 00,2132           02073                           TC       VSHRRND                               #  SHIFT X COMPONENT.
001602:
001603: 00,2133           52155                           DXCH     MPAC                                  #  SWAP X AND Y COMPONENTS.
001604: 00,2134           52160                           DXCH     MPAC       +3
001605: 00,2135           52155                           DXCH     MPAC
001606: 00,2136           02073                           TC       VSHRRND                               #  SHIFT Y COMPONENT.
001607:
001608: 00,2137           52155                           DXCH     MPAC                                  #  SWAP Y AND Z COMPONENTS.
001609: 00,2140           52162                           DXCH     MPAC       +5
001610: 00,2141           52155                           DXCH     MPAC
001611: 00,2142           02073                           TC       VSHRRND                               #  SHIFT Z COMPONENT.
001612:
001613: 00,2143           17420                           TCF      VROTATEX                              #  RESTORE COMPONENTS TO PROPER PLACES.
001614:


001616:                                                                                                  #  VECTOR SHIFT LEFT - DONE ONE PLACE AT A TIME.
001617:
001618: 00,2144           54135                 -1        TS       MPTEMP                                #  SHIFTING LOOP.
001619:
001620: 00,2145           00006        VSSL               EXTEND
001621: 00,2146           30155                           DCA      MPAC
001622: 00,2147           20155                           DAS      MPAC
001623: 00,2150           00006                           EXTEND
001624: 00,2151           12153                           BZF      +2
001625: 00,2152           07017                           TC       OVERFLOW
001626:
001627: 00,2153           00006                           EXTEND
001628: 00,2154           30160                           DCA      MPAC       +3
001629: 00,2155           20160                           DAS      MPAC       +3
001630: 00,2156           00006                           EXTEND
001631: 00,2157           12161                           BZF      +2
001632: 00,2160           07014                           TC       OVERFLWY
001633:
001634: 00,2161           00006                           EXTEND
001635: 00,2162           30162                           DCA      MPAC       +5
001636: 00,2163           20162                           DAS      MPAC       +5
001637: 00,2164           00006                           EXTEND
001638: 00,2165           12167                           BZF      +2
001639: 00,2166           07011                           TC       OVERFLWZ
001640:
001641: 00,2167           10135                           CCS      MPTEMP                                #  LOOP ON DECREMENTED SHIFT COUNTER.
001642: 00,2170           12144                           TCF      VSSL       -1
001643: 00,2171           16061                           TCF      DANZIG                                #  EXIT.
001644:


001646:                                                                                                  #  TSLC - TRIPLE SHIFT LEFT AND COUNT.  SHIFTS MPAC LEFT UNTIL GREATER THAN .5 IN MAGNITUDE, LEAVING
001647:                                                                                                  #  THE COMPLEMENT OF THE NUMBER OF SHIFTS REQUIRED IN X.
001648:
001649: 00,2172           54135        TSLC2              TS       MPTEMP                                #  START BY ZEROING SHIFT COUNT (IN A NOW).
001650: 00,2173           06723                           TC       BRANCH                                #  EXIT WITH NO SHIFTING IF ARGUMENT ZERO.
001651: 00,2174           12176                           TCF      +2
001652: 00,2175           12212                           TCF      ENDTSLC                               #  STORES ZERO SHIFT COUNT IN THIS CASE.
001653:
001654: 00,2176           07257                           TC       TPAGREE                               #  MAY CAUSE UPSHIFT OF ONE EXTRA PLACE.
001655:
001656: 00,2177           30154                           CA       MPAC                                  #  BEGIN NORMALIZATION LOOP.
001657: 00,2200           12207                           TCF      TSLCTEST
001658:
001659: 00,2201           24135        TSLCLOOP           INCR     MPTEMP                                #  INCREMENT SHIFT COUNTER.
001660: 00,2202           00006                           EXTEND
001661: 00,2203           30156                           DCA      MPAC       +1
001662: 00,2204           20156                           DAS      MPAC       +1
001663: 00,2205           60154                           AD       MPAC
001664: 00,2206           26154                           ADS      MPAC
001665: 00,2207           60000        TSLCTEST           DOUBLE                                         #  SEE IF (ANOTHER) SHIFT IS REQUIRED.
001666: 00,2210           54000                           OVSK
001667: 00,2211           12201                           TCF      TSLCLOOP                              #  YES - INCREMENT COUNT AND SHIFT AGAIN.
001668:
001669: 00,2212           40135        ENDTSLC            CS       MPTEMP
001670: 00,2213           16623                           TCF      STORE1                                #  STORE SHIFT COUNT AND RETURN TO DANZIG.
001671:


001673:                                                                                                  #  THE FOLLOWING ROUTINES PROCESSES THE GENERAL SHIFT INSTRUCTIONS SR, SRR, SL, AND SLR.
001674:                                                                                                  #  THE GIVEN ADDRESS IS DECODED AS FOLLOWS:
001675:                                                                                                  #        BITS 1-7        SHIFT COUNT (SUBADDRESS) LESS THAN 125 DECIMAL.
001676:                                                                                                  #        BIT 8           PSEUDO SIGN BIT (DETECTS CHANGE IN SIGN IN INDEXED SHIFTS).
001677:                                                                                                  #        BIT 9           0 FOR LEFT SHIFT, AND 1 FOR RIGHT SHIFT.
001678:                                                                                                  #        BIT 10          1 FOR TERMINAL ROUND ON SCALAR SHIFTS, 0 OTHERWISE.
001679:                                                                                                  #        BITS 11-13      0.
001680:                                                                                                  #        BIT 14          1.
001681:                                                                                                  #        BIT 15          0.
001682:                                                                                                  #  THE ABOVE ENCODING IS DONE BY THE YUL SYSTEM.
001683:
001684: 00,2214           70116        GENSHIFT           MASK     ADDRWD                                #  GET SHIFT COUNT, TESTING FOR ZERO.
001685: 00,2215           10000                           CCS      A                                     #  (ARRIVES WITH C(A) = LOW7).
001686: 00,2216           12224                           TCF      GENSHFT2                              #  IF NON-ZERO, PROCEED WITH DECREMENTED CT
001687:
001688: 00,2217           34742                           CAF      BIT10                                 #  ZERO SHIFT COUNT.  NO SHIFTS NEEDED BUT
001689: 00,2220           70116                           MASK     ADDRWD                                #  WE MIGHT HAVE TO ROUND MPAC ON SLR AND
001690: 00,2221           10000                           CCS      A                                     #  SRR (SCALAR ONLY).
001691: 00,2222           07136                           TC       ROUNDSUB
001692: 00,2223           16061                           TCF      DANZIG
001693:
001694: 00,2224           54135        GENSHFT2           TS       MPTEMP                                #  DECREMENTED SHIFT COUNT TO MPTEMP.
001695: 00,2225           34744                           CAF      BIT8                                  #  TEST MEANING OF LOW SEVEN BIT COUNT IN
001696: 00,2226           00006                           EXTEND                                         #  MPTEMP NOW.
001697: 00,2227           70116                           MP       ADDRWD
001698: 00,2230           76245                           MASK     LOW2                                  #  JUMPS ON SHIFT DIRECTION (BIT8) AND
001699: 00,2231           50000                           INDEX    A
001700: 00,2232           12233                           TCF      +1                                    #  ORIGINAL SHIFT DIRECTION (BIT 9).
001701: 00,2233           12332                           TCF      RIGHT-                                #  NEGATIVE SHIFT COUNT FOR SL OR SLR.
001702: 00,2234           12342                           TCF      LEFT                                  #  SL OR SLR.
001703: 00,2235           12336                           TCF      LEFT-                                 #  NEGATIVE SHIFT COUNT WITH SR OR SRR.
001704:


001706:                                                                                                  #  GENERAL SHIFT RIGHT.
001707:
001708: 00,2236           10163        RIGHT              CCS      MODE                                  #  SEE IF VECTOR OR SCALAR.
001709: 00,2237           12277                           TCF      GENSCR
001710: 00,2240           12277                           TCF      GENSCR
001711:
001712: 00,2241           30135                           CA       MPTEMP                                #  SEE IF SHIFT COUNT LESS THAN 14D.
001713: 00,2242           63733        VRIGHT2            AD       NEG12
001714: 00,2243           00006                           EXTEND
001715: 00,2244           62127                           BZMF     VSSR                                  #  IF SO, BRANCH AND SHIFT IMMEDIATELY.
001716:
001717: 00,2245           67747                           AD       NEGONE                                #  IF NOT, REDUCE MPTEMP BY A TOTAL OF 14,
001718: 00,2246           54135                           TS       MPTEMP                                #  AND DO A SHIFT RIGHT AND ROUND BY 14.
001719: 00,2247           34755                           CAF      ZERO                                  #  THE ROUND AT THIS STAGE MAY INTRODUCE A
001720: 00,2250           54001                           TS       L                                     #  ONE BIT ERROR IN A SHIFT RIGHT 15D.
001721: 00,2251           56154                           XCH      MPAC
001722: 00,2252           56155                           XCH      MPAC       +1
001723: 00,2253           02272                           TC       SETROUND                              #  X COMPONENT NOW SHIFTED, SO MAKE UP THE
001724: 00,2254           20155                           DAS      MPAC                                  #  ROUNDING QUANTITY (0 IN A AND 0 OR +-1
001725:                                                                                                  #  IN L).
001726: 00,2255           56157                           XCH      MPAC       +3                         #  REPEAT THE ABOVE PROCESS FOR Y AND Z.
001727: 00,2256           56160                           XCH      MPAC       +4
001728: 00,2257           02272                           TC       SETROUND
001729: 00,2260           20160                           DAS      MPAC       +3                         #  NO OVERFLOW ON THESE ADDS.
001730:
001731: 00,2261           56161                           XCH      MPAC       +5
001732: 00,2262           56162                           XCH      MPAC       +6
001733: 00,2263           02272                           TC       SETROUND
001734: 00,2264           20162                           DAS      MPAC       +5
001735:
001736: 00,2265           10135                           CCS      MPTEMP                                #  SEE IF DONE, DOING FINAL DECREMENT.
001737: 00,2266           54135                           TS       MPTEMP
001738: 00,2267           12242                           TCF      VRIGHT2
001739: 00,2270           04604        BIASLO             DEC      .2974      B-1                        #  SQRT CONSTANT
001740:
001741: 00,2271           16061                           TCF      DANZIG
001742:
001743: 00,2272           60000        SETROUND           DOUBLE                                         #  MAKES UP ROUNDING QUANTITY FROM ARRIVING
001744: 00,2273           54156                           TS       MPAC       +2                         #  C(A).  L IS ZERO INITIALLY.
001745: 00,2274           34755                           CAF      ZERO
001746: 00,2275           56001                           XCH      L
001747: 00,2276           00002                           TC       Q                                     #  RETURN AND DO THE DAS, RESETTING L TO 0.
001748:


001750:                                                                                                  #  PROCESS SR AND SRR FOR SCALARS.
001751:
001752: 00,2277           30135        GENSCR             CA       MPTEMP                                #  SEE IF THE ORIGINAL SHIFT COUNT WAS LESS
001753: 00,2300           63733                 +1        AD       NEG12                                 #  THAN 14D.
001754: 00,2301           00006                           EXTEND
001755: 00,2302           62322                           BZMF     DOSSHFT                               #  DO THE SHIFT IMMEDIATELY IF SO.
001756:
001757: 00,2303           67747                 +4        AD       NEGONE                                #  IF NOT, DECREMENT SHIFT COUNT BY 14D AND
001758: 00,2304           54135                           TS       MPTEMP                                #  SHIFT MPAC RIGHT 14 PLACES.
001759: 00,2305           34755                           CAF      ZERO
001760: 00,2306           56154                           XCH      MPAC
001761: 00,2307           56155                           XCH      MPAC       +1
001762: 00,2310           54156                           TS       MPAC       +2
001763: 00,2311           10135                           CCS      MPTEMP                                #  SEE IF FINISHED, DO FINAL DECREMENT.
001764: 00,2312           54135                           TS       MPTEMP
001765: 00,2313           02300                           TC       GENSCR     +1
001766: 00,2314           22650        SLOPEHI            DEC      .5884                                 #  SQRT CONSTANT.
001767: 00,2315           34742                           CAF      BIT10                                 #  FINISHED WITH SHIFT.  SEE IF ROUND
001768: 00,2316           70116                           MASK     ADDRWD                                #  WANTED.
001769: 00,2317           10000                           CCS      A
001770: 00,2320           07136                           TC       ROUNDSUB
001771: 00,2321           16061                           TCF      DANZIG                                #  DO SO AND/OR EXIT.
001772:
001773: 00,2322           50135        DOSSHFT            INDEX    MPTEMP                                #  PICK UP SHIFTING BIT.
001774: 00,2323           34736                           CAF      BIT14
001775: 00,2324           54135                           TS       MPTEMP
001776: 00,2325           34742                           CAF      BIT10                                 #  SEE IF TERMINAL ROUND DESIRED.
001777: 00,2326           70116                           MASK     ADDRWD
001778: 00,2327           10000                           CCS      A
001779: 00,2330           12031                           TCF      RIGHTR                                #  YES.
001780: 00,2331           12033                           TCF      MPACSHR                               #  JUST SHIFT RIGHT.
001781:


001783:                                                                                                  #  PROCESS THE RIGHT- (SL(R) WITH A NEGATIVE COUNT), LEFT-, AND LEFT OPTIONS.
001784:
001785: 00,2332           40135        RIGHT-             CS       MPTEMP                                #  GET ABSOLUTE VALUE - 1 OF SHIFT COUNT
001786: 00,2333           62126                           AD       OCT176                                #  UNDERSTANDING THAT BIT8 (PSEUDO-SIGN)
001787: 00,2334           54135                           TS       MPTEMP                                #  WAS 1 INITIALLY.
001788: 00,2335           12236                           TCF      RIGHT                                 #  DO NORMAL SHIFT RIGHT.
001789:
001790: 00,2336           42126        LEFT-              CS       OCT176                                #  SAME PROLOGUE TO LEFT FOR INDEXED RIGHT
001791: 00,2337           60135                           AD       MPTEMP                                #  SHIFTS WHOSE NET SHIFT COUNT IS NEGATIVE
001792: 00,2340           40000                           COM
001793: 00,2341           54135                           TS       MPTEMP
001794:
001795: 00,2342           10163        LEFT               CCS      MODE                                  #  SINCE LEFT SHIFTING IS SONE ONE PLACE AT
001796: 00,2343           12346                           TCF      GENSCL                                #  A TIME, NO COMPARISON WITH 14 NEED BE
001797: 00,2344           12346                           TCF      GENSCL                                #  DONE.  FOR SCALARS, SEE IF TERMINAL ROUND
001798: 00,2345           12145                           TCF      VSSL                                  #  DESIRED.  FOR VECTORS, SHIFT IMMEDIATELY.
001799:
001800: 00,2346           40116        GENSCL             CS       ADDRWD                                #  PUT ROUNDING BIT (BIT 10 OF ADDRWD) INTO
001801: 00,2347           00006                           EXTEND                                         #  BIT 15 OF CYR WHERE THE ROUNDING BIT OF
001802: 00,2350           74746                           MP       BIT6                                  #  A SHORT SHIFT LEFT WOULD BE
001803: 00,2351           54020                           TS       CYR
001804: 00,2352           12103                           TCF      TSSL       +2                         #  DO THE SHIFT.
001805:


001807:                                                                                                  #  SCALAR DIVISION INSTRUCTIONS, DDV AND BDDV, ARE EXECUTED HERE.  AT THIS POINT, THE DIVIDEND IS IN MPAC
001808:                                                                                                  #  AND THE DIVISOR IN BUF.
001809:
001810: 00,2353           44753        DDV/BDDV           CS       ONE                                   #  INITIALIZATION.
001811: 00,2354           54136                           TS       DVSIGN                                #  +-1 FOR POSITIVE QUOTIENT - -0 FOR NEG.
001812: 00,2355           54137                           TS       DVNORMCT                              #  DIVIDEND NORMALIZATION COUNT.
001813: 00,2356           54140                           TS       MAXDVSW                               #  NEAR-ONE DIVIDE FLAG.
001814:
001815: 00,2357           10130                           CCS      BUF                                   #  FORCE BUF POSITIVE WITH THE MAJOR PART
001816: 00,2360           12516                           TCF      BUFPOS                                #  NON-ZERO.
001817: 00,2361           12363                           TCF      +2
001818: 00,2362           12531                           TCF      BUFNEG
001819:
001820: 00,2363           54156        BUFZERO            TS       MPAC       +2                         #  ZERO THIS.
001821: 00,2364           07257                           TC       TPAGREE                               #  FORCE SIGN AGREEMENT BEFORE OVERFLOW
001822:
001823: 00,2365           10154                           CCS      MPAC                                  #  TEST TO SEE IF MPAC NON-ZERO.  (TOO BIG)
001824: 00,2366           12414                           TCF      OVF+                                  #  MAJOR PART OF DIVIDEND IS POSITIVE NON-0
001825: 00,2367           12371                           TCF      +2
001826: 00,2370           12413                           TCF      OVF+       -1                         #  MAJOR PART OF DIVIDEND IS NEG. NON-ZERO
001827:
001828: 00,2371           56131                           XCH      BUF        +1                         #  SHIFT DIVIDEND AND DIVISOR LEFT 14.
001829: 00,2372           56130                           XCH      BUF
001830: 00,2373           56155                           XCH      MPAC       +1
001831: 00,2374           56154                           XCH      MPAC
001832: 00,2375           10130                           CCS      BUF                                   #  TRY AGAIN ON FORMER MINOR PART.
001833: 00,2376           12422                           TCF      BUF+
001834: 00,2377           12401                           TCF      +2                                    #  OVERFLOW ON ZERO DIVISOR.
001835: 00,2400           12416                           TCF      BUF-
001836:
001837: 00,2401           40154                           CS       MPAC                                  #  SIGN OF MPAC DETERMINES SIGN OF RESULT.
001838: 00,2402           00006        SGNDVOVF           EXTEND
001839: 00,2403           62405                           BZMF     +2
001840: 00,2404           24136                           INCR     DVSIGN                                #  NEGMAX IN MPAC PERHAPS.
001841: 00,2405           34733        DVOVF              CAF      POSMAX                                #  ON DIVISION OVERFLOW OF ANY SORT, SET
001842: 00,2406           54154                           TS       MPAC                                  #  SET DP MPAC TO +-POSMAX.
001843: 00,2407           02630                           TC       FINALDV    +3
001844: 00,2410           34753                           CAF      ONE                                   #  SET OVERFLOW INDICATOR AND EXIT.
001845: 00,2411           54121                           TS       OVFIND
001846: 00,2412           06061                           TC       DANZIG
001847:
001848: 00,2413           24136                 -1        INCR     DVSIGN
001849: 00,2414           40131        OVF+               CS       BUF        +1                         #  LOAD LOWER ORDER PART OF DIVISOR.
001850: 00,2415           12402                           TCF      SGNDVOVF                              #  GET SIGN OF RESULT.
001851:
001852: 00,2416           00006        BUF-               EXTEND                                         #  IF BUF IS NEGATIVE, COMPLEMENT IT AND
001853: 00,2417           40131                           DCS      BUF                                   #  MAINTAIN DVSIGN FOR FINAL QUOTIENT SIGN.
001854: 00,2420           52131                           DXCH     BUF
001855: 00,2421           24136                           INCR     DVSIGN                                #  NOW -0.
001856:


001858: 00,2422           10154        BUF+               CCS      MPAC                                  #  FORCE MPAC POSITIVE, CHECKING FOR ZERO
001859: 00,2423           12437                           TCF      MPAC+                                 #  DIVIDEND IN THE PROCESS.
001860: 00,2424           12426                           TCF      +2
001861: 00,2425           12433                           TCF      MPAC-
001862: 00,2426           10155                           CCS      MPAC       +1
001863: 00,2427           12437                           TCF      MPAC+
001864: 00,2430           16061                           TCF      DANZIG                                #  EXIT IMMEDIATELY ON ZERO DIVIDEND.
001865: 00,2431           12433                           TCF      MPAC-
001866: 00,2432           16061                           TCF      DANZIG
001867:
001868: 00,2433           00006        MPAC-              EXTEND                                         #  FORCE MPAC POSITIVE AS BUF IN BUF-.
001869: 00,2434           40155                           DCS      MPAC
001870: 00,2435           52155                           DXCH     MPAC
001871: 00,2436           24136                           INCR     DVSIGN                                #  NOW +1 OR -0.
001872:


001874: 00,2437           40154        MPAC+              CS       MPAC                                  #  CHECK FOR DIVISION OVERFLOW.  IF THE
001875: 00,2440           67747                           AD       NEGONE                                #  MAJOR PART OF THE DIVIDEND IS LESS THAN
001876: 00,2441           60130                           AD       BUF                                   #  THE MAJOR PART OF THE DIVISOR BY AT
001877: 00,2442           10000                           CCS      A                                     #  LEAST TWO, WE CAN PROCEED IMMEDIATELY
001878: 00,2443           12505                           TCF      DVNORM                                #  WITHOUT NORMALIZATION PRODUCING A DVMAX.
001879: 00,2444           60001        -1/2+2             OCT      60001                                 #  USED IN SQRTSUB.
001880:
001881: 00,2445           12446                           TCF      +1                                    #  IF THE ABOVE DOES NOT HOLD, FORCE SIGN
001882: 00,2446           34736                           CAF      HALF                                  #  AGREEMENT IN NUMERATOR AND DENOMINATOR
001883: 00,2447           60000                           DOUBLE                                         #  TO FACILITATE OVERFLOW AND NEAR-ONE
001884: 00,2450           60155                           AD       MPAC       +1                         #  CHECKING.
001885: 00,2451           54155                           TS       MPAC       +1
001886: 00,2452           34755                           CAF      ZERO
001887: 00,2453           64733                           AD       POSMAX
001888: 00,2454           26154                           ADS      MPAC
001889:
001890: 00,2455           34736                           CAF      HALF                                  #  SAME FOR BUF.
001891: 00,2456           60000                           DOUBLE
001892: 00,2457           60131                           AD       BUF        +1
001893: 00,2460           54131                           TS       BUF        +1
001894: 00,2461           34755                           CAF      ZERO
001895: 00,2462           64733                           AD       POSMAX
001896: 00,2463           26130                           ADS      BUF
001897:
001898: 00,2464           40154                           CS       MPAC                                  #  CHECK MAGNITUDE OF SIGN-CORRECTED
001899: 00,2465           60130                           AD       BUF                                   #  OPERANDS.
001900: 00,2466           10000                           CCS      A
001901: 00,2467           12505                           TCF      DVNORM                                #  DIVIDE OK - WILL NOT BECOME MAXDV CASE.
001902: 00,2470           00133        LBUF2              ADRES    BUF2
001903: 00,2471           12405                           TCF      DVOVF                                 #  DIVISOR NOT LESS THAN DIVIDEND - OVF.
001904:
001905: 00,2472           54140                           TS       MAXDVSW                               #  IF THE MAJOR PARTS OF THE DIVIDEND AND
001906: 00,2473           40155                           CS       MPAC       +1                         #  DIVISOR ARE EQUAL, A SPECIAL APPROXIMA-
001907: 00,2474           60131                           AD       BUF        +1                         #  TION IS USED (PROVIDED THE DIVISION IS
001908: 00,2475           00006                           EXTEND                                         #  POSSIBLE, OF COURSE).
001909: 00,2476           62405                           BZMF     DVOVF
001910: 00,2477           12505                           TCF      DVNORM                                #  IF NO OVERFLOW.
001911:


001913: 00,2500           00006        BUFNORM            EXTEND                                         #  ADD -1 TO AUGMENT SHIFT COUNT AND SHIFT
001914: 00,2501           24137                           AUG      DVNORMCT                              #  LEFT ONE PLACE.
001915: 00,2502           00006                           EXTEND
001916: 00,2503           30131                           DCA      BUF
001917: 00,2504           20131                           DAS      BUF
001918:
001919: 00,2505           30130        DVNORM             CA       BUF                                   #  SEE IF DIVISOR NORMALIZED YET.
001920: 00,2506           60000                           DOUBLE
001921: 00,2507           54000                           OVSK
001922: 00,2510           12500                           TCF      BUFNORM                               #  NO - SHIFT LEFT ONE AND TRY AGAIN.
001923:
001924: 00,2511           52155                           DXCH     MPAC                                  #  CALL DIVIDEND NORMALIZATION SEQUENCE
001925: 00,2512           50137                           INDEX    DVNORMCT                              #  PRIOR TO DOING THE DIVIDE.
001926: 00,2513           02565                           TC       MAXTEST
001927:
001928: 00,2514           54156                           TS       MPAC       +2                         #  RETURNS WITH DIVISION DONE AND C(A) = 0.
001929: 00,2515           16061                           TCF      DANZIG
001930:
001931: 00,2516           10000        BUFPOS             CCS      A
001932: 00,2517           12422                           TCF      BUF+                                  #  TO BUF+ IF BUF IS GREATER THAN +1.
001933:
001934: 00,2520           40131                           CS       BUF        +1                         #  IF BUF IS +1, FORCING SIGN AGREEMENT
001935: 00,2521           00006                           EXTEND                                         #  MAY CAUSE BUF TO BECOME ZERO.
001936: 00,2522           62422                           BZMF     BUF+                                  #  BRANCH IF SIGNS AGREE.
001937:
001938: 00,2523           34736                           CA       HALF                                  #  SIGNS DISAGREE.  FORCE AGREEMENT.
001939: 00,2524           60000                 +6        DOUBLE
001940: 00,2525           26131                           ADS      BUF        +1
001941: 00,2526           34755                           CA       ZERO
001942: 00,2527           54130                           TS       BUF
001943: 00,2530           12363                           TCF      BUFZERO
001944:
001945: 00,2531           10000        BUFNEG             CCS      A
001946: 00,2532           12416                           TCF      BUF-                                  #  TO BUF- IF BUF IS LESS THAN -1.
001947:
001948: 00,2533           30131                           CA       BUF        +1                         #  IF BUF IS -1, FORCING SIGN AGREEMENT
001949: 00,2534           00006                           EXTEND                                         #  MAY CAUSE BUF TO BECOME ZERO.
001950: 00,2535           62416                           BZMF     BUF-                                  #  BRANCH IF SIGNS AGREE.
001951:
001952: 00,2536           44736                           CS       HALF                                  #  SIGNS DISAGREE.  FORCE AGREEMENT.
001953: 00,2537           12524                           TCF      BUFPOS     +6
001954:


001956:                                                                                                  #  THE FOLLOWING ARE PROLOGUES TO SHIFT THE DIVIDEND ARRIVING IN A AND L BEFORE THE DIVIDE.
001957:
001958: 00,2540           22021                 -21D      LXCH     SR                                    #  SPECIAL PROLOGUE FOR UNIT WHEN THE
001959: 00,2541           00006                           EXTEND                                         #  LENGTH OF THE ARGUMENT WAS NOT LESS THAN
001960: 00,2542           74736                           MP       HALF                                  #  .5.  IN THIS CASE, EACH COMPONENT MUST BE
001961: 00,2543           56001                           XCH      L                                     #  SHIFTED RIGHT ONE TO PRODUCE A HALF-UNIT
001962: 00,2544           60021                           AD       SR                                    #  VECTOR.
001963: 00,2545           56001                           XCH      L
001964: 00,2546           12571                           TCF      GENDDV     +1                         #  WITH DP DIVIDEND IN A,L.
001965:
001966: 00,2547           20001                           DDOUBL                                         #  PROLOGUE WHICH NORMALIZES THE DIVIDEND
001967: 00,2550           20001                           DDOUBL                                         #  WHEN IT IS KNOWN THAT NO DIVISION
001968: 00,2551           20001                           DDOUBL                                         #  OVERFLOW WILL OCCUR.
001969: 00,2552           20001                           DDOUBL
001970: 00,2553           20001                           DDOUBL
001971: 00,2554           20001                           DDOUBL
001972: 00,2555           20001                           DDOUBL
001973: 00,2556           20001                           DDOUBL
001974: 00,2557           20001                           DDOUBL
001975: 00,2560           20001                           DDOUBL
001976: 00,2561           20001                           DDOUBL
001977: 00,2562           20001                           DDOUBL
001978: 00,2563           20001                           DDOUBL
001979: 00,2564           52155                           DXCH     MPAC
001980:
001981: 00,2565           10140        MAXTEST            CCS      MAXDVSW                               #  0 IF MAJORS MIGHT BE =, -1 OTHERWISE.
001982: 00,2566           06552        BIASHI             DEC      .4192      B-1                        #  SQRT CONSTANTS
001983:
001984: 00,2567           12642                           TCF      MAXDV                                 #  CHECK TO SEE IF THEY ARE NOW EQUAL.
001985:


001987:                                                                                                  #  THE FOLLOWING IS A GENERAL PURPOSE DOUBLE PRECISION DIVISION ROUTINE.  IT DIVIDES MPAC BY BUF AND LEAVES
001988:                                                                                                  #  THE RESULT IN MPAC.  THE FOLLOWING CONDITIONS MUST BE SATISFIED:
001989:
001990:                                                                                                  #        1.      THE DIVISOR (BUF) MUST BE POSITIVE AND NOT LESS THAN .5.
001991:
001992:                                                                                                  #        2.      THE DIVIDEND (MPAC) MUST BE POSITIVE WITH THE MAJOR PART OF MPAC STRICTLY LESS THAN THAT OF BUF
001993:                                                                                                  #                (A SPECIAL APPROXIMATION, MAXDV, IS USED WHEN THE MAJOR PARTS ARE EQUAL).
001994:
001995:                                                                                                  #  UNDERSTANDING THAT A/B = Q + S(R/B) WHERE S = 2(-14) AND Q AND R ARE QUOTIENT AND REMAINDER, RESPEC-
001996:                                                                                                  #  TIVELY, THE FOLLOWING APPROXIMATION IS OBTAINED BY MULTIPLYING ABOVE AND BELOW BY C - SD AND NEGLECTING TERMS OF
001997:                                                                                                  #  ORDER S-SQUARED (POSSIBLY INTRODUCING ERROR INTO THE LOW TWO BITS OF THE RESULT).  SIGN AGREEMENT IS UNNECESSARY.
001998:
001999:                                                                                                  #        A + SB .      (R - QD)                                             A + SB
002000:                                                                                                  #        ------ = Q + S(------) WHERE Q AND R ARE QUOTIENT AND REMAINDER OF ------ RESPECTIVELY.
002001:                                                                                                  #        C + SD        (  C   )                                                C
002002:
002003: 00,2570           52155        GENDDV             DXCH     MPAC                                  #  WE NEED A AND B ONLY FOR FIRST DV.
002004: 00,2571           00006                 +1        EXTEND                                         #  (SPECIAL UNIT PROLOGUE ENTERS HERE).
002005: 00,2572           10130                           DV       BUF                                   #  A NOW CONTAINS Q AND L, R.
002006: 00,2573           52155                           DXCH     MPAC
002007:
002008: 00,2574           40154                           CS       MPAC                                  #  FORM DIVIDEND FOR MINOR PART OF RESULT.
002009: 00,2575           00006                           EXTEND
002010: 00,2576           70131                           MP       BUF        +1
002011: 00,2577           60155                           AD       MPAC       +1                         #  OVERFLOW AT THIS POINT IS POSITIVE SINCE
002012: 00,2600           54000                           OVSK                                           #  R IS POSITIVE IN EVERY CASE.
002013: 00,2601           12606                           TCF      +5
002014:
002015: 00,2602           00006                           EXTEND                                         #  OVERFLOW CAN BE REMOVED BY SUBTRACTING C
002016: 00,2603           60130                           SU       BUF                                   #  (BUF) ONCE SINCE R IS ALWAYS LESS THAN C
002017: 00,2604           24154                           INCR     MPAC                                  #  IN THIS CASE.  INCR COMPENSATES SUBTRACT.
002018: 00,2605           12610                           TCF      +DOWN                                 #  (SINCE C(A) IS STILL POSITIVE).
002019:
002020: 00,2606           00006                 +5        EXTEND                                         #  C(A) CAN BE MADE LESS THAN C IN MAGNI-
002021: 00,2607           62620                           BZMF     -UP                                   #  TUDE BY DIMINISHING IT BY C (SINCE C IS
002022:                                                                                                  #  NOT LESS THAN .5) UNLESS C(A) = 0.
002023:


002025: 00,2610           00006        +DOWN              EXTEND
002026: 00,2611           60130                           SU       BUF                                   #  IF POSITIVE, REDUCE ONLY IF NECESSARY
002027: 00,2612           00006                           EXTEND                                         #  SINCE THE COMPENSATING INCR MIGHT CAUSE
002028: 00,2613           12616                           BZF      +3                                    #  OVERFLOW.
002029: 00,2614           00006                           EXTEND                                         #  DONT SUBTRACT UNLESS RESULT IS POSITIVE
002030: 00,2615           62624                           BZMF     ENDMAXDV                              #  OR ZERO.
002031:
002032: 00,2616           24154                 +3        INCR     MPAC                                  #  KEEP SUBTRACT HERE AND COMPENSATE.
002033: 00,2617           12625                           TCF      FINALDV
002034:
002035: 00,2620           00006        -UP                EXTEND                                         #  IF ZERO, SET MINOR PART OF RESULT TO
002036: 00,2621           12630                           BZF      FINALDV    +3                         #  ZERO.
002037:
002038: 00,2622           00006                           EXTEND                                         #  IF NEGATIVE, ADD C TO A, SUBTRACTING ONE
002039: 00,2623           26154                           DIM      MPAC                                  #  TO COMPENSATE.  DIM IS OK HERE SINCE THE
002040: 00,2624           60130        ENDMAXDV           AD       BUF                                   #  MAJOR PART NEVER GOES NEGATIVE.
002041:


002043: 00,2625           22007        FINALDV            ZL                                             #  DO DV TO OBTAIN MINOR PART OF RESULT.
002044: 00,2626           00006                           EXTEND
002045: 00,2627           10130                           DV       BUF
002046: 00,2630           54155                 +3        TS       MPAC       +1
002047:
002048: 00,2631           10136                           CCS      DVSIGN                                #  LEAVE RESULT POSITIVE UNLESS C(DVSIGN)=
002049: 00,2632           00002                           TC       Q                                     #  -0.
002050: 00,2633           00002                           TC       Q
002051: 00,2634           00002                           TC       Q
002052:
002053: 00,2635           00006                           EXTEND
002054: 00,2636           40155                           DCS      MPAC
002055: 00,2637           52155                           DXCH     MPAC
002056: 00,2640           34755                           CAF      ZERO                                  #  SO WE ALWAYS RETURN WITH C(A) = 0.
002057: 00,2641           00002                           TC       Q
002058:


002060:                                                                                                  #  IF THE MAJOR PARTS OF THE DIVISOR AND DIVIDEND ARE EQUAL, BUT THE MINOR PARTS ARE SUCH THAT THE
002061:                                                                                                  #  DIVIDEND IS STRICTLY LESS THAN THE DIVISOR IN MAGNITUDE, THE FOLLOWING APPROXIMATION IS USED.  THE ASSUMPTIONS
002062:                                                                                                  #  ARE THE SAME AS THE GENERAL ROUTINE WITH THE ADDITION THAT SIGN AGREEMENT IS NECESSARY (B, C, & D POSITIVE).
002063:
002064:                                                                                                  #        C + SB .          (C + B - D)
002065:                                                                                                  #        ------ = 37777 + S(---------)
002066:                                                                                                  #        C + SD            (    C    )
002067:
002068:                                                                                                  #  THE DIVISION MAY BE PERFORMED IMMEDIATELY SINCE B IS STRICTLY LESS THAN D AND C IS NOT LESS THAN .5.
002069:
002070: 00,2642           40154        MAXDV              CS       MPAC                                  #  SEE IF MAXDV CASE STILL HOLDS AFTER
002071: 00,2643           60130                           AD       BUF                                   #  NORMALIZATION.
002072: 00,2644           00006                           EXTEND
002073: 00,2645           12647                           BZF      +2
002074: 00,2646           12570                           TCF      GENDDV                                #  MPAC NOW LESS THAN BUF - DIVIDE AS USUAL
002075:
002076: 00,2647           34733                 +2        CAF      POSMAX                                #  SET MAJOR PART OF RESULT.
002077: 00,2650           54154                           TS       MPAC
002078:
002079: 00,2651           40131                           CS       BUF        +1                         #  FORM DIVIDEND OF MINOR PART OF RESULT.
002080: 00,2652           60155                           AD       MPAC       +1
002081: 00,2653           12624                           TCF      ENDMAXDV                              #  GO ADD C AND DO DIVIDE, ATTACHING SIGN
002082:                                                                                                  #  BEFORE EXITING.
002083:


002085:                                                                                                  #  VECTOR DIVIDED BY SCALAR, V/SC, IS EXECUTED HERE.  THE VECTOR IS NOW IN MPAC WITH SCALAR IN BUF.
002086:
002087: 00,2654           44753        V/SC2              CS       ONE                                   #  INITIALIZE DIVIDEND NORMALIZATION COUNT
002088: 00,2655           54137                           TS       DVNORMCT                              #  AND DIVISION SIGN REGISTER.
002089: 00,2656           54127                           TS       VBUF       +5
002090:
002091: 00,2657           03010                           TC       VECAGREE                              #  FORCE SIGN AGREEMENT IN VECTOR
002092:
002093: 00,2660           52131                           DXCH     BUF
002094: 00,2661           07544                           TC       ALSIGNAG                              #  SIGN AGREE BUF
002095: 00,2662           52131                           DXCH     BUF
002096: 00,2663           10130                           CCS      BUF                                   #  FORCE DIVISOR POSITIVE WITH MAJOR PART
002097: 00,2664           12721                           TCF      /BUF+                                 #  NON-ZERO (IF POSSIBLE).
002098: 00,2665           12667                           TCF      +2
002099: 00,2666           12715                           TCF      /BUF-
002100:
002101: 00,2667           56131                           XCH      BUF        +1                         #  SHIFT VECTOR AND SCALAR LEFT 14.
002102: 00,2670           56130                           XCH      BUF
002103: 00,2671           56155                           XCH      MPAC       +1
002104: 00,2672           56154                           XCH      MPAC
002105: 00,2673           00006                           EXTEND                                         #  CHECK FOR OVERFLOW IN EACH CASE.
002106: 00,2674           12676                           BZF      +2
002107: 00,2675           12405                           TCF      DVOVF
002108:
002109: 00,2676           56160                           XCH      MPAC       +4
002110: 00,2677           56157                           XCH      MPAC       +3
002111: 00,2700           00006                           EXTEND
002112: 00,2701           12703                           BZF      +2
002113: 00,2702           12405                           TCF      DVOVF
002114:
002115: 00,2703           56162                           XCH      MPAC       +6
002116: 00,2704           56161                           XCH      MPAC       +5
002117: 00,2705           00006                           EXTEND
002118: 00,2706           12710                           BZF      +2
002119: 00,2707           12405                           TCF      DVOVF
002120:
002121: 00,2710           10130                           CCS      BUF
002122: 00,2711           12721                           TCF      /BUF+
002123: 00,2712           12405                           TCF      DVOVF                                 #  ZERO DIVISOR - OVERFLOW.
002124: 00,2713           12715                           TCF      /BUF-
002125: 00,2714           12405                           TCF      DVOVF
002126:
002127: 00,2715           00006        /BUF-              EXTEND                                         #  ON NEGATIVE, COMPLEMENT BUF AND MAINTAIN
002128: 00,2716           40131                           DCS      BUF                                   #  DVSIGN IN VBUF +5.
002129: 00,2717           52131                           DXCH     BUF
002130: 00,2720           24127                           INCR     VBUF       +5
002131:


002133: 00,2721           00006        /BUF+              EXTEND
002134: 00,2722           30131                           DCA      BUF                                   #  LEAVE ABS(ORIG DIVISOR) IN BUF2
002135: 00,2723           52134                           DXCH     BUF2                                  #  FOR OVERFLOW TESTING
002136: 00,2724           12732                           TCF      /NORM                                 #  NORMALIZE DIVISOR IN BUF.
002137:
002138: 00,2725           00006        /NORM2             EXTEND                                         #  IF LESS THAN .5, AUGMENT DVNORMCT AND
002139: 00,2726           24137                           AUG      DVNORMCT                              #  DOUBLE DIVISOR.
002140: 00,2727           00006                           EXTEND
002141: 00,2730           30131                           DCA      BUF
002142: 00,2731           20131                           DAS      BUF
002143:
002144: 00,2732           30130        /NORM              CA       BUF                                   #  SEE IF DIVISOR NORMALIZED.
002145: 00,2733           60000                           DOUBLE
002146: 00,2734           54000                           OVSK
002147: 00,2735           12725                           TCF      /NORM2                                #  DOUBLE AND TRY AGAIN IF NOT.
002148:
002149: 00,2736           02750                           TC       V/SCDV                                #  DO X COMPONENT DIVIDE.
002150: 00,2737           52160                           DXCH     MPAC       +3                         #  SUPPLY ARGUMENTS IN USUAL SEQUENCE.
002151: 00,2740           52155                           DXCH     MPAC
002152: 00,2741           52160                           DXCH     MPAC       +3
002153:
002154: 00,2742           02750                           TC       V/SCDV                                #  Y COMPONENT.
002155: 00,2743           52162                           DXCH     MPAC       +5
002156: 00,2744           52155                           DXCH     MPAC
002157: 00,2745           52162                           DXCH     MPAC       +5
002158:
002159: 00,2746           02750                           TC       V/SCDV                                #  Z COMPONENT.
002160: 00,2747           17420                           TCF      VROTATEX                              #  GO RE-ARRANGE COMPONENTS BEFORE EXIT.
002161:


002163:                                                                                                  #  SUBROUTINE USED BY V/SC TO DIVIDE VECTOR COMPONENT IN MPAC,+1 BY THE SCALAR GIVEN IN BUF.
002164:
002165: 00,2750           30127        V/SCDV             CA       VBUF       +5                         #  REFLECTS SIGN OF SCALAR.
002166: 00,2751           54136                           TS       DVSIGN
002167:
002168: 00,2752           10154                           CCS      MPAC                                  #  FORCE MPAC POSITIVE, EXITING ON ZERO.
002169: 00,2753           12767                           TCF      /MPAC+
002170: 00,2754           12756                           TCF      +2
002171: 00,2755           12763                           TCF      /MPAC-
002172:
002173: 00,2756           10155                           CCS      MPAC       +1
002174: 00,2757           12767                           TCF      /MPAC+
002175: 00,2760           00002                           TC       Q
002176: 00,2761           12763                           TCF      /MPAC-
002177: 00,2762           00002                           TC       Q
002178:
002179: 00,2763           00006        /MPAC-             EXTEND                                         #  USUAL COMPLEMENTING AND SETTING OF SIGN.
002180: 00,2764           40155                           DCS      MPAC
002181: 00,2765           52155                           DXCH     MPAC
002182: 00,2766           24136                           INCR     DVSIGN
002183:
002184: 00,2767           44753        /MPAC+             CS       ONE                                   #  INITIALIZE NEAR-ONE SWITCH.
002185: 00,2770           54140                           TS       MAXDVSW
002186:
002187: 00,2771           40154                           CS       MPAC                                  #  CHECK POSSIBLE OVERFLOW.
002188: 00,2772           60133                           AD       BUF2                                  #  UNNORMALIZED INPUT DIVISOR.
002189: 00,2773           10000                           CCS      A
002190: 00,2774           13004                           TCF      DDVCALL                               #  NOT NEAR-ONE
002191: 00,2775           12777                           TCF      +2                                    #  +0 IS JUST POSSIBLE
002192: 00,2776           12405                           TCF      DVOVF                                 #  NO HOPE
002193: 00,2777           54140                           TS       MAXDVSW                               #  SIGNAL POSSIBLE NEAR-ONE CASE
002194: 00,3000           40155                           CS       MPAC       +1                         #  SEE IF DIVISION CAN BE DONE
002195: 00,3001           60134                           AD       BUF2       +1
002196: 00,3002           00006                           EXTEND
002197: 00,3003           62405                           BZMF     DVOVF
002198:
002199: 00,3004           52155        DDVCALL            DXCH     MPAC                                  #  CALL PRE-DIVIDE NORMALIZATION.
002200: 00,3005           50137                           INDEX    DVNORMCT
002201: 00,3006           12565                           TCF      MAXTEST
002202:


002204: 00,3007           32506        SLOPELO            DEC      .8324
002205:
002206: 00,3010           56002        VECAGREE           XCH      Q                                     #  SAVE Q IN A
002207: 00,3011           52155                           DXCH     MPAC
002208: 00,3012           07544                           TC       ALSIGNAG                              #  SIGNAGREE MPAC
002209: 00,3013           52155                           DXCH     MPAC
002210: 00,3014           52160                           DXCH     MPAC       +3
002211: 00,3015           07544                           TC       ALSIGNAG                              #  SIGN AGREE MPAC +3
002212: 00,3016           52160                           DXCH     MPAC       +3
002213: 00,3017           52162                           DXCH     MPAC       +5
002214: 00,3020           07544                           TC       ALSIGNAG                              #  SIGNAGREE MPAC +5
002215: 00,3021           52162                           DXCH     MPAC       +5
002216: 00,3022           00000                           TC       A
002217:


002219:                                                                                                  #  THE FOLLOWING ROUTINE EXECUTES THE UNIT INSTRUCTION, WHICH TAKES THE UNIT OF THE VECTOR IN MPAC.
002220:
002221: 00,3023           03010        UNIT               TC       VECAGREE                              #  FORCE SIGN AGREEMENT IN VECTOR
002222: 00,3024           07532                           TC       MPACVBUF                              #  SAVE ARGUMENT IN VBUF
002223: 00,3025           34755                           CAF      ZERO                                  #  MUST SENSE OVERFLOW IN FOLLOWING DOT.
002224: 00,3026           56121                           XCH      OVFIND
002225: 00,3027           54141                           TS       TEM1
002226: 00,3030           03317                           TC       VSQSUB                                #  DOT MPAC WITH ITSELF.
002227: 00,3031           30141                           CA       TEM1
002228: 00,3032           56121                           XCH      OVFIND
002229: 00,3033           00006                           EXTEND
002230: 00,3034           13036                           BZF      +2
002231: 00,3035           12405                           TCF      DVOVF
002232: 00,3036           00006                           EXTEND
002233: 00,3037           30155                           DCA      MPAC                                  #  LEAVE THE SQUARE OF THE LENGTH OF THE
002234: 00,3040           50120                           INDEX    FIXLOC                                #  ARGUMENT IN LVSQUARE.
002235: 00,3041           52043                           DXCH     LVSQUARE
002236:
002237: 00,3042           03343                           TC       SQRTSUB                               #  GO TAKE THE NORMALIZED SQUARE ROOT.
002238:
002239: 00,3043           10154                           CCS      MPAC                                  #  CHECK FOR UNIT OVERFLOW.
002240: 00,3044           13051                           TCF      +5                                    #  MPAC IS NOT LESS THAN .5 UNLESS
002241: 00,3045           54001                           TS       L
002242: 00,3046           50120                           INDEX    FIXLOC
002243: 00,3047           52045                           DXCH     LV
002244: 00,3050           12405                           TCF      DVOVF                                 #  INPUT TO SQRTSUB WAS 0.
002245:
002246: 00,3051           44317                           CS       FOURTEEN                              #  SEE IF THE INPUT WAS SO SMALL THE THE
002247: 00,3052           60135                           AD       MPTEMP                                #  FIRST TWO REGISTERS OF THE SQUARE WERE 0
002248: 00,3053           10000                           CCS      A
002249: 00,3054           40000                           COM                                            #  IF SO, SAVE THE NEGATIVE OF THE SHIFT
002250: 00,3055           13133                           TCF      SMALL                                 #  COUNT -15D.
002251:
002252: 00,3056           13065                           TCF      LARGE                                 #  (THIS IS USUALLY THE CASE.)
002253:
002254: 00,3057           44761                           CS       THIRTEEN                              #  IF THE SHIFT COUNT WAS EXACTLY 14, SET
002255: 00,3060           54135                           TS       MPTEMP                                #  THE PRE-DIVIDE NORM COUNT TO -13D.
002256:
002257: 00,3061           30154                           CA       MPAC                                  #  SHIFT THE LENGTH RIGHT 14 BEFORE STORING
002258: 00,3062           54001        SMALL2             TS       L                                     #  (SMALL EXITS TO THIS POINT).
002259: 00,3063           34755                           CAF      ZERO
002260: 00,3064           13112                           TCF      LARGE2                                #  GO TO STORE LENGTH AND PROCEED.
002261:
002262: 00,3065           10135        LARGE              CCS      MPTEMP                                #  MOST ALL CASES COME HERE.
002263: 00,3066           13074                           TCF      LARGE3                                #  SEE IF NO NORMALIZATION WAS REQUIRED BY
002264:
002265: 00,3067           42024                           CS       SRDDV                                 #  SQRT, AND IF SO, SET UP FOR A SHIFT
002266: 00,3070           54135                           TS       MPTEMP                                #  RIGHT 1 BEFORE DIVIDING TO PRODUCE
002267: 00,3071           00006                           EXTEND                                         #  THE DESIRED HALF UNIT VECTOR.
002268: 00,3072           30155                           DCA      MPAC


002270: 00,3073           13112                           TCF      LARGE2
002271:


002273: 00,3074           40000        LARGE3             COM                                            #  LEAVE NEGATIVE OF SHIFT COUNT-1 FOR
002274: 00,3075           54135                           TS       MPTEMP                                #  PREDIVIDE LEFT SHIFT.
002275:
002276: 00,3076           40000                           COM                                            #  PICK UP REQUIRED SHIFTING BIT TO UNNORM-
002277: 00,3077           50000                           INDEX    A                                     #  ALIZE THE SQRT RESULT.
002278: 00,3100           34736                           CAF      BIT14
002279: 00,3101           54130                           TS       BUF
002280: 00,3102           00006                           EXTEND
002281: 00,3103           70155                           MP       MPAC       +1
002282: 00,3104           56130                           XCH      BUF
002283: 00,3105           00006                           EXTEND                                         #  (UNNORMALIZE THE SQRT FOR LV).
002284: 00,3106           70154                           MP       MPAC
002285: 00,3107           56001                           XCH      L
002286: 00,3110           60130                           AD       BUF
002287: 00,3111           56001                           XCH      L
002288:
002289: 00,3112           50120        LARGE2             INDEX    FIXLOC
002290: 00,3113           52045                           DXCH     LV                                    #  LENGTH NOW STORED IN WORK AREA.
002291:
002292: 00,3114           44753                           CS       ONE
002293: 00,3115           54140                           TS       MAXDVSW                               #  NO MAXDV CASES IN UNIT.
002294:
002295: 00,3116           52123                           DXCH     VBUF                                  #  PREPARE X COMPONENT FOR DIVIDE, SETTING
002296: 00,3117           52155                           DXCH     MPAC                                  #  LENGTH OF VECTOR AS DIVISOR IN BUF.
002297: 00,3120           52131                           DXCH     BUF
002298: 00,3121           03151                           TC       UNITDV
002299:
002300: 00,3122           52125                           DXCH     VBUF       +2                         #  DO Y AND Z IN USUAL FASHION SO WE CAN
002301: 00,3123           52155                           DXCH     MPAC                                  #  EXIT THROUGH VROTATEX.
002302: 00,3124           52160                           DXCH     MPAC       +3
002303: 00,3125           03151                           TC       UNITDV
002304:
002305: 00,3126           52127                           DXCH     VBUF       +4
002306: 00,3127           52155                           DXCH     MPAC
002307: 00,3130           52162                           DXCH     MPAC       +5
002308: 00,3131           03151                           TC       UNITDV
002309: 00,3132           17420                           TCF      VROTATEX                              #  AND EXIT.
002310:


002312:                                                                                                  #  IF THE LENGTH OF THE ARGUMENT VECTOR WAS LESS THAN 2(-28), EACH COMPONENT MUST BE SHIFTED LEFT AT LEAST
002313:                                                                                                  #  14 PLACES BEFORE THE DIVIDE. NOTE THAT IN THIS CASE, THE MAJOR PART OF EACH COMPONENT IS ZERO.
002314:
002315: 00,3133           54135        SMALL              TS       MPTEMP                                #  NEGATIVE OF PRE-DIVIDE SHIFT COUNT.
002316:
002317: 00,3134           34755                           CAF      ZERO                                  #  SHIFT EACH COMPONENT LEFT 14.
002318: 00,3135           56123                           XCH      VBUF       +1
002319: 00,3136           56122                           XCH      VBUF
002320: 00,3137           56125                           XCH      VBUF       +3
002321: 00,3140           56124                           XCH      VBUF       +2
002322: 00,3141           56127                           XCH      VBUF       +5
002323: 00,3142           56126                           XCH      VBUF       +4
002324:
002325: 00,3143           40135                           CS       MPTEMP
002326: 00,3144           50000                           INDEX    A
002327: 00,3145           34736                           CAF      BIT14
002328: 00,3146           00006                           EXTEND
002329: 00,3147           70154                           MP       MPAC
002330: 00,3150           13062                           TCF      SMALL2
002331:
002332: 00,3151     4761               THIRTEEN           =        OCT15
002333: 00,3151     4317               FOURTEEN           =        OCT16
002334: 00,3151     4317               OCT16              =        R1D1
002335:


002337:                                                                                                  #  THE FOLLOWING ROUTINE SETS UP THE CALL TO THE DIVIDE ROUTINES.
002338:
002339: 00,3151           10154        UNITDV             CCS      MPAC                                  #  FORCE MPAC POSITIVE IF POSSIBLE, SETTING
002340: 00,3152           13170                           TCF      UMPAC+                                #  DVSIGN ACCORDING TO THE SIGN OF MPAC
002341: 00,3153           13155                           TCF      +2                                    #  SINCE THE DIVISOR IS ALWAYS POSITIVE
002342: 00,3154           13162                           TCF      UMPAC-                                #  HERE.
002343:
002344: 00,3155           10155                           CCS      MPAC       +1
002345: 00,3156           13170                           TCF      UMPAC+
002346: 00,3157           00002                           TC       Q                                     #  EXIT IMMEDIATELY ON ZERO.
002347: 00,3160           13162                           TCF      UMPAC-
002348: 00,3161           00002                           TC       Q
002349:
002350: 00,3162           44755        UMPAC-             CS       ZERO                                  #  IF NEGATIVE, SET -0 IN DVSIGN FOR FINAL
002351: 00,3163           54136                           TS       DVSIGN                                #  COMPLEMENT.
002352: 00,3164           00006                           EXTEND
002353: 00,3165           40155                           DCS      MPAC                                  #  PICK UP ABSOLUTE VALUE OF ARG AND JUMP.
002354: 00,3166           50135                           INDEX    MPTEMP
002355: 00,3167           12564                           TCF      MAXTEST    -1
002356:
002357: 00,3170           54136        UMPAC+             TS       DVSIGN                                #  SET DVSIGN FOR POSITIVE QUOTIENT.
002358: 00,3171           52155                           DXCH     MPAC
002359: 00,3172           50135                           INDEX    MPTEMP
002360: 00,3173           12564                           TCF      MAXTEST    -1
002361:


002363:                                                                                                  #  MISCELLANEOUS UNARY OPERATIONS.
002364:
002365: 00,3174           03300        DSQ                TC       DSQSUB                                #  SQUARE THE DP CONTENTS OF MPAC.
002366: 00,3175           16061                           TCF      DANZIG
002367:
002368: 00,3176           10163        ABVALABS           CCS      MODE                                  #  ABVAL OR ABS INSTRUCTION.
002369: 00,3177           13226                           TCF      ABS                                   #  DO ABS ON SCALAR.
002370: 00,3200           13226                           TCF      ABS
002371:
002372: 00,3201           03317        ABVAL              TC       VSQSUB                                #  DOT MPAC WITH ITSELF.
002373: 00,3202           22163                           LXCH     MODE                                  #  MODE IS NOW DP (L ZERO AFTER DAS).
002374:
002375: 00,3203           00006                           EXTEND                                         #  STORE SQUARE OF LENGTH IN WORK AREA.
002376: 00,3204           30155                           DCA      MPAC
002377: 00,3205           50120                           INDEX    FIXLOC
002378: 00,3206           52043                           DXCH     LVSQUARE
002379:


002381:                                                                                                  #  PROGRAM DESCRIPTION - SUBROUTINE SQRT
002382:
002383:                                                                                                  #  FUNCTIONAL DESCRIPTION - DOUBLE PRECISION SQUARE ROOT ROUTINE
002384:                                                                                                  #        THIS PROGRAM TAKES THE SQUARE ROOT OF THE 27 OR 28 MOST SIGNIFICANT BITS IN THE TRIPLE PRECISION SET OF
002385:                                                                                                  #        NUMBERS - MPAC, MPAC+1, AND MPAC+2.  THE ROOT IS RETURNED DOUBLE PRECISION IN MPAC AND MPAC+1.
002386:
002387:                                                                                                  #  WARNING - THIS SUBROUTINE USES A TRIPLE PRECISION INPUT.  THE PROGRAMMER MUST ASSURE THE CONTENTS OF MPAC+2
002388:                                                                                                  #        ESPECIALLY IF THE CONTENTS OF MPAC IS SMALL OR ZERO.  FOR DETAILS SEE STG MEMO NO.949.
002389:
002390:                                                                                                  #  CALLING SEQUENCE - IN INTERPRETIVE MODE I.E., FOLLOWING TC  INTPRET,SQRT   NO ADDRESS IS ALLOWED
002391:                                                                                                  #        INPUT SCALING  THE BINARY POINT IS ASSUMED TO THE RIGHT OF BIT 15.  THE ANSWER IS RETURNED WITH THE SAME SCALING
002392:
002393:                                                                                                  #  SUBROUTINES - GENSCR, MPACSHR, SQRTSUB, ABORT
002394:
002395:                                                                                                  #  ABORT EXIT MODE - ABORTS ON NEGATIVE INPUT -1.2X10E-4 (77775 OCTAL) OR LESS.
002396:                                                                                                  #        DISPLAYS ERROR CODE 1302
002397:                                                                                                  #                TC      ABORT
002398:                                                                                                  #                OCT     1302
002399:
002400:                                                                                                  #  DEBRIS - LOCATIONS BUF, MPTEMP, ADDRWD ARE USED
002401:
002402: 00,3207           03343        SQRT               TC       SQRTSUB                               #  TAKE THE SQUARE ROOT OF MPAC.
002403: 00,3210           10135                           CCS      MPTEMP                                #  RETURNED NORMALIZED SQUARE ROOT.  SEE IF
002404: 00,3211           13213                           TCF      +2                                    #  ANY UN-NORMALIZATION REQUIRED AND EXIT
002405: 00,3212           16061                           TCF      DANZIG                                #  IF NOT.
002406:
002407: 00,3213           63733                           AD       NEG12                                 #  A RIGHT SHIFT OF MORE THAN 13 COULD BE
002408: 00,3214           00006                           EXTEND                                         #  REQUIRED IF INPUT WAS ZERO IN MPAC,+1.
002409: 00,3215           63221                           BZMF     SQRTSHFT                              #  GOES HERE IN MOST CASES.
002410: 00,3216           22007                           ZL                                             #  IF A LONG SHIFT IS REQUIRED, GO TO
002411: 00,3217           22116                           LXCH     ADDRWD                                #  GENERAL RIGHT SHIFT ROUTINES.
002412: 00,3220           12303                           TCF      GENSCR     +4                         #  ADDRWD WAS ZERO TO PREVENT ROUND.
002413:
002414: 00,3221           50135        SQRTSHFT           INDEX    MPTEMP                                #  SELECT SHIFTING BIT AND EXIT THROUGH
002415: 00,3222           34735                           CAF      BIT15                                 #  SHIFT ROUTINES.
002416: 00,3223           54135                           TS       MPTEMP
002417: 00,3224           34755                           CAF      ZERO                                  #  TO ZERO MPAC +2 IN THE PROCESS.
002418: 00,3225           12036                           TCF      MPACSHR    +3
002419:
002420: 00,3226           06723        ABS                TC       BRANCH                                #  TEST SIGN OF MPAC AND COMPLEMENT IF
002421: 00,3227           16061                           TCF      DANZIG
002422: 00,3230           16061                           TCF      DANZIG
002423: 00,3231           17670                           TCF      COMP
002424:


002426: 00,3232           44751        VDEF               CS       FOUR                                  #  VECTOR DEFINE - ESSENTIALLY TREATS
002427: 00,3233           26166                           ADS      PUSHLOC                               #  SCALAR IN MPAC AS X COMPONENT, PUSHES UP
002428: 00,3234           00006                           EXTEND                                         #  FOR Y AND THEN AGAIN FOR Z.
002429: 00,3235           50000                           INDEX    A
002430: 00,3236           30003                           DCA      2
002431: 00,3237           52160                           DXCH     MPAC       +3
002432: 00,3240           00006                           EXTEND
002433: 00,3241           50166                           INDEX    PUSHLOC
002434: 00,3242           30001                           DCA      0
002435: 00,3243           52162                           DXCH     MPAC       +5
002436: 00,3244           16521                           TCF      VMODE                                 #  MODE IS NON VECTOR.
002437:
002438: 00,3245           03317        VSQ                TC       VSQSUB                                #  DOT MPAC WITH ITSELF.
002439: 00,3246           17332                           TCF      DMODE                                 #  MODE IS NOW DP.
002440:
002441: 00,3247           00006        PUSH               EXTEND                                         #  PUSH DOWN MPAC LEAVING IT LOADED.
002442: 00,3250           30155                           DCA      MPAC
002443: 00,3251           50166                           INDEX    PUSHLOC                               #  PUSH DOWN FIRST TWO REGISTERS IN EACH
002444: 00,3252           52001                           DXCH     0
002445:
002446: 00,3253           50163                           INDEX    MODE                                  #  INCREMENT PUSHDOWN POINTER.
002447: 00,3254           36244                           CAF      NO.WDS
002448: 00,3255           26166                           ADS      PUSHLOC
002449:
002450: 00,3256           10163                           CCS      MODE
002451: 00,3257           13272                           TCF      TPUSH                                 #  PUSH DOWN MPAC +2.
002452: 00,3260           16061                           TCF      DANZIG                                #  DONE FOR DP.
002453:
002454: 00,3261           00006                           EXTEND                                         #  ON VECTOR, PUSH DOWN Y AND Z COMPONENTS.
002455: 00,3262           30160                           DCA      MPAC       +3
002456: 00,3263           50166                           INDEX    PUSHLOC
002457: 00,3264           51775                           DXCH     0          -4
002458: 00,3265           00006                           EXTEND
002459: 00,3266           30162                           DCA      MPAC       +5
002460: 00,3267           50166                           INDEX    PUSHLOC
002461: 00,3270           51777                           DXCH     0          -2
002462: 00,3271           16061                           TCF      DANZIG
002463:
002464: 00,3272           30156        TPUSH              CA       MPAC       +2
002465: 00,3273           16554                           TCF      ENDTPUSH   +2
002466:
002467: 00,3274           50120        RVQ                INDEX    FIXLOC                                #  RVQ - RETURN IVA QPRET.
002468: 00,3275           30052                           CA       QPRET
002469: 00,3276           54117                           TS       POLISH
002470: 00,3277           16652                           TCF      GOTO       +4                         #  (ASSUME QPRET POINTS TO FIXED ONLY.)
002471:


002473:                                                                                                  #  THE FOLLOWING SUBROUTINES ARE USED IN SQUARING MPAC, IN BOTH THE SCALAR AND VECTOR SENSE.  THEY ARE
002474:                                                                                                  #  SPECIAL CASES OF DMPSUB AND DOTSUB, PUT IN TO SAVE SOME TIME.
002475:
002476: 00,3300           30155        DSQSUB             CA       MPAC       +1                         #  SQUARES THE SCALAR CONTENTS OF MPAC.
002477: 00,3301           00006                           EXTEND
002478: 00,3302           70000                           SQUARE
002479: 00,3303           54156                           TS       MPAC       +2
002480: 00,3304           34755                           CAF      ZERO                                  #  FORM 2(CROSS TERM).
002481: 00,3305           56155                           XCH      MPAC       +1
002482: 00,3306           00006                           EXTEND
002483: 00,3307           70154                           MP       MPAC
002484: 00,3310           20001                           DDOUBL                                         #  AND MAYBE OVERFLOW.
002485: 00,3311           20156                           DAS      MPAC       +1                         #  AND SET A TO NET OVERFLOW.
002486: 00,3312           56154                           XCH      MPAC
002487: 00,3313           00006                           EXTEND
002488: 00,3314           70000                           SQUARE
002489: 00,3315           20155                           DAS      MPAC
002490: 00,3316           00002                           TC       Q
002491:
002492: 00,3317           00006        VSQSUB             EXTEND                                         #  DOTS THE VECTOR IN MPAC WITH ITSELF.
002493: 00,3320           22137                           QXCH     DOTRET
002494: 00,3321           03300                           TC       DSQSUB                                #  SQUARE THE X COMPONENT.
002495: 00,3322           52160                           DXCH     MPAC       +3
002496: 00,3323           52155                           DXCH     MPAC
002497: 00,3324           52131                           DXCH     BUF                                   #  SO WE CAN END IN DOTSUB.
002498: 00,3325           30156                           CA       MPAC       +2
002499: 00,3326           54132                           TS       BUF        +2
002500:
002501: 00,3327           03300                           TC       DSQSUB                                #  SQUARE Y COMPONENT.
002502: 00,3330           52156                           DXCH     MPAC       +1
002503: 00,3331           20132                           DAS      BUF        +1
002504: 00,3332           60154                           AD       MPAC
002505: 00,3333           60130                           AD       BUF
002506: 00,3334           54130                           TS       BUF
002507: 00,3335           13337                           TCF      +2
002508: 00,3336           54121                           TS       OVFIND                                #  IF OVERFLOW.
002509:
002510: 00,3337           52162                           DXCH     MPAC       +5
002511: 00,3340           52155                           DXCH     MPAC
002512: 00,3341           03300                           TC       DSQSUB                                #  SQUARE Z COMPONENT.
002513: 00,3342           17205                           TCF      ENDDOT                                #  END AS IN DOTSUB.
002514:


002516:                                                                                                  #  DOUBLE PRECISION SQUARE ROOT ROUTINE.  TAKE THE SQUARE ROOT OF THE TRIPLE PRECISION (MPAC +2 USED ONLY
002517:                                                                                                  #  IN NORMALIZATION) CONTENTS OF MPAC AND LEAVE THE NORMALIZED RESULT IN MPAC (C(MPAC) GREATER THAN OR EQUAL TO
002518:                                                                                                  #  .5).  THE RIGHT SHIFT COUNT (TO UNNORMALIZE) IS LEFT IN MPTEMP.
002519:
002520: 00,3343           34755        SQRTSUB            CAF      ZERO                                  #  START BY ZEROING RIGHT SHIFT COUNT.
002521: 00,3344           54135                           TS       MPTEMP
002522:
002523: 00,3345           10154                           CCS      MPAC                                  #  CHECK FOR POSITIVE ARGUMENT, SHIFTING
002524: 00,3346           13405                           TCF      SMPAC+                                #  FIRST SIGNIFICANT MPAC REGISTER INTO
002525: 00,3347           13351                           TCF      +2                                    #  MPAC ITSELF.
002526: 00,3350           13373                           TCF      SQRTNEG                               #  SEE IF MAG OF ARGUMENT LESS THAN 10(-4).
002527:
002528: 00,3351           56156                           XCH      MPAC       +2                         #  MPAC IS ZERO - SHIFT LEFT 14.
002529: 00,3352           56155                           XCH      MPAC       +1
002530: 00,3353           54154                           TS       MPAC
002531: 00,3354           34757                           CAF      SEVEN                                 #  AUGMENT RIGHT SHIFT COUNTER.
002532: 00,3355           54135                           TS       MPTEMP
002533:
002534: 00,3356           10154                           CCS      MPAC                                  #  SEE IF MPAC NOW PNZ.
002535: 00,3357           13405                           TCF      SMPAC+
002536: 00,3360           13362                           TCF      +2
002537: 00,3361           13376                           TCF      ZEROANS                               #  NEGATIVE BUT LESS THAN 10(-4) IN MAG.
002538:
002539: 00,3362           56155                           XCH      MPAC       +1                         #  ZERO - SHIFT LEFT 14 AGAIN.
002540: 00,3363           54154                           TS       MPAC
002541: 00,3364           34757                           CAF      SEVEN                                 #  AUGMENT RIGHT SHIFT COUNTER.
002542: 00,3365           26135                           ADS      MPTEMP
002543:
002544: 00,3366           10154                           CCS      MPAC
002545: 00,3367           13405                           TCF      SMPAC+
002546: 00,3370           00002                           TC       Q                                     #  SQRT(0) = 0.
002547: 00,3371           13376                           TCF      ZEROANS
002548: 00,3372           13453                           TCF      FIXROOT                               #  DO NOT LEAVE SQRTSUB WITH -0 IN MPAC.
002549:
002550: 00,3373           10000        SQRTNEG            CCS      A                                     #  ARGUMENT IS NEGATIVE, BUT SEE IF SIGN-
002551: 00,3374           13402                           TCF      SQRTABRT                              #  CORRECTED ARGUMENT IS LESS THAN 10(-4)
002552:
002553: 00,3375           10155                           CCS      MPAC       +1                         #  IN MAGNITUDE.  IF SO, CALL ANSWER ZERO.
002554: 00,3376           34755        ZEROANS            CAF      ZERO                                  #  FORCE ANSWER TO ZERO HERE.
002555: 00,3377           13453                           TCF      FIXROOT
002556: 00,3400           13402                           TCF      SQRTABRT
002557: 00,3401           13453                           TCF      FIXROOT
002558:
002559: 00,3402           52165        SQRTABRT           DXCH     LOC
002560: 00,3403           05726                           TC       POODOO1
002561: 00,3404           01302                           OCT      1302
002562:


002564: 00,3405           62444        SMPAC+             AD       -1/2+2                                #  SEE IF ARGUMENT GREATER THAN OR EQUAL TO
002565: 00,3406           00006                           EXTEND                                         #  .5.
002566: 00,3407           63456                           BZMF     SRTEST                                #  IF SO, SEE IF LESS THAN .25.
002567:
002568: 00,3410           52155                           DXCH     MPAC                                  #  WE WILL TAKE THE SQUARE ROOT OF MPAC/2.
002569: 00,3411           22021                           LXCH     SR                                    #  SHIFT RIGHT 1 AND GO TO THE SQRT ROUTINE
002570: 00,3412           00006                           EXTEND
002571: 00,3413           74736                           MP       HALF
002572: 00,3414           52155                           DXCH     MPAC
002573: 00,3415           56021                           XCH      SR
002574: 00,3416           26155                           ADS      MPAC       +1                         #  GUARANTEED NO OVERFLOW.
002575:
002576: 00,3417           32314        ARGHI              CAF      SLOPEHI                               #  ARGUMENT BETWEEN .25 AND .5. GET A
002577: 00,3420           00006                           EXTEND                                         #  LINEAR APPROXIMATION FOR THIS RANGE.
002578: 00,3421           70154                           MP       MPAC
002579: 00,3422           62566                           AD       BIASHI                                #  X0/2 = (MPAC/2)(SLOPEHI) + BIASHI/2.
002580:
002581: 00,3423           54130                 +4        TS       BUF                                   #  X0/2 (ARGLO ENTERS HERE).
002582: 00,3424           30154                           CA       MPAC                                  #  SINGLE-PRECISION THROUGHOUT.
002583: 00,3425           22007                           ZL
002584: 00,3426           00006                           EXTEND
002585: 00,3427           10130                           DV       BUF                                   #  (MPAC/2)/(X0/2)
002586: 00,3430           00006                           EXTEND
002587: 00,3431           74736                           MP       HALF
002588: 00,3432           26130                           ADS      BUF                                   #  X1 = X0/2 + .5(MPAC/2)/(X0/2).
002589:
002590: 00,3433           00006                           EXTEND
002591: 00,3434           74736                           MP       HALF                                  #  FORM UP X1/2.
002592: 00,3435           52155                           DXCH     MPAC                                  #  SAVE AND BRING OUT ARGUMENT.
002593: 00,3436           00006                           EXTEND                                         #  TAKE DP QUOTIENT WITH X1.
002594: 00,3437           10130                           DV       BUF
002595: 00,3440           54131                           TS       BUF        +1                         #  SAVE MAJOR PART OF QUOTIENT.
002596: 00,3441           34755                           CAF      ZERO                                  #  FORM MINOR PART OF QUOTIENT USING
002597: 00,3442           56001                           XCH      L                                     #  (REMAINDER,0).
002598: 00,3443           00006                           EXTEND
002599: 00,3444           10130                           DV       BUF
002600: 00,3445           54001                           TS       L                                     #  IN PREPARATION FOR DAS.
002601: 00,3446           30131                           CA       BUF        +1
002602: 00,3447           20155                           DAS      MPAC                                  #  X2 = X1/2 + (MPAC/2)X1
002603:
002604: 00,3450           00006                           EXTEND                                         #  OVERFLOWS IF ARG. NEAR POSMAX.
002605: 00,3451           13455                           BZF      TCQBNK00
002606: 00,3452           34733                           CAF      POSMAX
002607: 00,3453           54154        FIXROOT            TS       MPAC
002608: 00,3454           54155                           TS       MPAC       +1
002609: 00,3455           00002        TCQBNK00           TC       Q                                     #  RETURN TO CALLER TO UNNORMALIZE, ETC.
002610:


002612: 00,3456           64737        SRTEST             AD       QUARTER                               #  ARGUMENT WAS LESS THAN .5, SEE IF LESS
002613: 00,3457           00006                           EXTEND                                         #  THAN .25.
002614: 00,3460           63502                           BZMF     SQRTNORM                              #  IF SO, BEGIN NORMALIZATION.
002615:
002616: 00,3461           52155                           DXCH     MPAC                                  #  IF BETWEEN .5 AND .25, SHIFT RIGHT 1 AND
002617: 00,3462           22021                           LXCH     SR                                    #  START AT ARGLO.
002618: 00,3463           00006                           EXTEND
002619: 00,3464           74736                           MP       HALF
002620: 00,3465           52155                           DXCH     MPAC
002621: 00,3466           56021                           XCH      SR
002622: 00,3467           26155                           ADS      MPAC       +1                         #  NO OVERFLOW.
002623:
002624: 00,3470           33007        ARGLO              CAF      SLOPELO                               #  (NORMALIZED) ARGUMENT BETWEEN .125 AND
002625: 00,3471           00006                           EXTEND                                         #  .25
002626: 00,3472           70154                           MP       MPAC
002627: 00,3473           62270                           AD       BIASLO
002628: 00,3474           13423                           TCF      ARGHI      +4                         #  BEGIN SQUARE ROOT.
002629:
002630: 00,3475           00006        SQRTNM2            EXTEND                                         #  SHIFT LEFT 2 AND INCREMENT RIGHT SHIFT
002631: 00,3476           30156                           DCA      MPAC       +1                         #  COUNT (FOR TERMINAL UNNORMALIZATION).
002632: 00,3477           20156                           DAS      MPAC       +1
002633: 00,3500           60154                           AD       MPAC
002634: 00,3501           26154                           ADS      MPAC                                  #  (NO OVERFLOW).
002635:
002636: 00,3502           24135        SQRTNORM           INCR     MPTEMP                                #  FIRST TIME THROUGH, JUST SHIFT LEFT 1
002637: 00,3503           00006                           EXTEND                                         #  (PUTS IN EFFECTIVE RIGHT SHIFT SINCE
002638: 00,3504           30156                           DCA      MPAC       +1                         #  WE WANT MPAC/2).
002639: 00,3505           20156                           DAS      MPAC       +1
002640: 00,3506           60154                           AD       MPAC
002641: 00,3507           26154                           ADS      MPAC                                  #  (AGAIN NO OVERFLOW).
002642: 00,3510           60000                           DOUBLE
002643: 00,3511           54022                           TS       CYL
002644:
002645: 00,3512           10022        NORMTEST           CCS      CYL                                   #  SEE IF ARGUMENT NOW NORMALIZED AT
002646: 00,3513           10022                           CCS      CYL                                   #  GREATER THAN .125.
002647: 00,3514           13475                           TCF      SQRTNM2                               #  NO - SHIFT LEFT 2 MORE AND TRY AGAIN.
002648: 00,3515           13417                           TCF      ARGHI                                 #  YES - NOW BETWEEN .5 AND .25.
002649: 00,3516           13470                           TCF      ARGLO                                 #  ARGUMENT NOW BETWEEN .25 AND .125.
002650:


002652:                                                                                                  #  TRIGONOMETRIC FUNCTION PACKAGE.
002653:                                                                                                  #        THE FOLLOWING TRIGONOMETRIC FUNCTIONS ARE AVAILABLE AS INTERPRETIVE OPERATIONS:
002654:                                                                                                  #        1.      SIN             COMPUTES (1/2)SINE(2 PI MPAC).
002655:                                                                                                  #        2.      COS             COMPUTES (1/2)COSINE(2 PI MPAC).
002656:                                                                                                  #        3.      ASIN            COMPUTES (1/2PI)ARCSINE(2 MPAC).
002657:                                                                                                  #        4.      ACOS            COMPUTES (1/2PI)ARCCOSINE(2 MPAC).
002658:
002659:                                                                                                  #  SIN-ASIN AND COS-ACOS ARE MUTUALLY INVERSE, IE SIN(ASIN(X)) = X.
002660:
002661: 00,3517           06723        COSINE             TC       BRANCH                                #  FINDS COSINE USING THE IDENTITY
002662: 00,3520           13523                           TCF      +3                                    #  COS(X) = SIN(PI/2 - ABS(X)).
002663: 00,3521           13526                           TCF      PRESINE
002664: 00,3522           13526                           TCF      PRESINE
002665:
002666: 00,3523           00006                 +3        EXTEND
002667: 00,3524           40155                           DCS      MPAC
002668: 00,3525           52155                           DXCH     MPAC
002669:
002670: 00,3526           34737        PRESINE            CAF      QUARTER                               #  PI/2 SCALED.
002671: 00,3527           26154                           ADS      MPAC
002672:
002673: 00,3530           52155        SINE               DXCH     MPAC                                  #  DOUBLE ARGUMENT.
002674: 00,3531           20001                           DDOUBL
002675: 00,3532           54000                           OVSK                                           #  SEE IF OVERFLOW PRESENT.
002676: 00,3533           13536                           TCF      +3                                    #  IF NOT, ARGUMENT OK AS IS.
002677:
002678: 00,3534           00006                           EXTEND                                         #  IF SO, WE LOST (OR GAINED) PI, SO
002679: 00,3535           40001                           DCOM                                           #  COMPLEMENT MPAC USING THE IDENTITY
002680:                                                                                                  #  SIN(X-(+)PI) = SIN(-X).
002681: 00,3536           52155                 +3        DXCH     MPAC
002682: 00,3537           30154                           CA       MPAC                                  #  SEE IF ARGUMENT GREATER THAN .5 IN
002683: 00,3540           60000                           DOUBLE                                         #  MAGNITUDE.  IF SO, REDUCE IT TO LESS THAN
002684: 00,3541           54001                           TS       L                                     #  .5 (+-PI/2 SCALED) AS FOLLOWS:
002685: 00,3542           13553                           TCF      SN1
002686:
002687: 00,3543           50000                           INDEX    A                                     #  IF POSITIVE, FORM PI - X, IF NEGATIVE
002688: 00,3544           34735                           CAF      NEG1/2     +1                         #  USE -PI -X.
002689: 00,3545           60000                           DOUBLE
002690: 00,3546           00006                           EXTEND
002691: 00,3547           60154                           SU       MPAC                                  #  GUARANTEED NO OVERFLOW.
002692: 00,3550           54154                           TS       MPAC
002693: 00,3551           40155                           CS       MPAC       +1
002694: 00,3552           54155                           TS       MPAC       +1
002695:


002697: 00,3553           00006        SN1                EXTEND                                         #  SET UP TO EVALUATE HASTINGS POLYNOMIAL
002698: 00,3554           30155                           DCA      MPAC
002699: 00,3555           52134                           DXCH     BUF2
002700: 00,3556           03300                           TC       DSQSUB                                #  SQUARE MPAC.
002701:
002702: 00,3557           07222                           TC       POLY                                  #  EVALUATE FOURTH ORDER POLYNOMIAL.
002703: 00,3560           00003                           DEC      3          B-14
002704: 00,3561           14441 37325                     2DEC     +.3926990796
002705:
002706: 00,3563           53250 60764                     2DEC     -.6459637111
002707:
002708: 00,3565           12146 21276                     2DEC     +.318758717
002709:
002710: 00,3567           75466 71471                     2DEC     -.074780249
002711:
002712: 00,3571           00236 32757                     2DEC     +.009694988
002713:
002714: 00,3573           32470                           CAF      LBUF2                                 #  MULTIPLY BY ARGUMENT AND SHIFT LEFT 2.
002715: 00,3574           07106                           TC       DMPSUB     -1
002716:
002717: 00,3575           00006                           EXTEND
002718: 00,3576           30156                           DCA      MPAC       +1
002719: 00,3577           20156                           DAS      MPAC       +1
002720: 00,3600           60154                           AD       MPAC
002721: 00,3601           26154                           ADS      MPAC                                  #  NEITHER SHIFT OVERFLOWS.
002722: 00,3602           00006                           EXTEND
002723: 00,3603           30156                           DCA      MPAC       +1
002724: 00,3604           20156                           DAS      MPAC       +1
002725: 00,3605           60154                           AD       MPAC
002726: 00,3606           26154                           ADS      MPAC
002727: 00,3607           16061                           TCF      DANZIG
002728:


002730:                                                                                                  #  ARCSIN/ARCCOS ROUTINE.
002731:
002732: 00,3610           33631        ARCSIN             CAF      LASINEX                               #  COMPUTE ARCSIN BY USING THE IDENTITY
002733: 00,3611           13613                           TCF      +2                                    #  ARCSIN(X) = PI/2 - ARCCOS(X).
002734:
002735: 00,3612           33713        ARCCOS             CAF      LDANZIG                               #  (EXITS IMMEDIATELY).
002736: 00,3613           54136                           TS       ESCAPE
002737: 00,3614           06723                           TC       BRANCH                                #  TEST SIGN OF INPUT.
002738: 00,3615           13625                           TCF      ACOSST                                #  START IMMEDIATELY IF POSITIVE.
002739: 00,3616           13731                           TCF      ACOSZERO                              #  ARCCOS(0) = PI/2 = .25.
002740: 00,3617           00006                           EXTEND                                         #  IF NEGATIVE, USE THE IDENTITY
002741: 00,3620           40155                           DCS      MPAC                                  #  ARCCOS(X) = PI - ARCCOS(-X), FORCING
002742: 00,3621           52155                           DXCH     MPAC                                  #  ARGUMENT POSITIVE.
002743: 00,3622           33734                           CAF      TCSUBTR                               #  SET EXIT TO DO ABOVE BEFORE
002744: 00,3623           56136                           XCH      ESCAPE                                #  ARCSIN/ARCCOS CONSIDERATIONS.
002745: 00,3624           54137                           TS       ESCAPE2
002746:
002747: 00,3625           44736        ACOSST             CS       HALF                                  #  TEST MAGNITUDE OF INPUT.
002748: 00,3626           60154                           AD       MPAC
002749: 00,3627           10000                           CCS      A
002750: 00,3630           13721                           TCF      ACOSOVF                               #  THIS IS PROBABLY AN OVERFLOW CASE.
002751:
002752: 00,3631           13707        LASINEX            TCF      ASINEX
002753:
002754: 00,3632           13642                           TCF      ACOSST2                               #  NO OVERFLOW - PROCEED.
002755:
002756: 00,3633           10155                           CCS      MPAC       +1                         #  IF MAJOR PART IS .5, CALL ANSWER 0
002757: 00,3634           34755                           CAF      ZERO                                  #  UNLESS MINOR PART NEGATIVE.
002758: 00,3635           13637                           TCF      ACOS=0
002759:
002760: 00,3636           13642                           TCF      ACOSST2
002761:
002762: 00,3637           54155        ACOS=0             TS       MPAC       +1
002763: 00,3640           54154                           TS       MPAC
002764: 00,3641           00136                           TC       ESCAPE
002765:
002766: 00,3642           00006        ACOSST2            EXTEND                                         #  NOW THAT ARGUMENT IS IN PROPER RANGE,
002767: 00,3643           40155                           DCS      MPAC                                  #  BEGIN COMPUTATION.  USE HASTINGS
002768: 00,3644           64736                           AD       HALF                                  #  APPROXIMATION ARCCOS(X) = SQRT(1-X)P(X)
002769: 00,3645           52155                           DXCH     MPAC                                  #  IN A SCALED VERSION WHERE P(X) IS A
002770: 00,3646           52134                           DXCH     BUF2                                  #  SEVENTH ORDER POLYNOMIAL.
002771:
002772: 00,3647           03343                           TC       SQRTSUB                               #  RETURNS WITH NORMALIZED SQUARE ROOT.
002773:
002774: 00,3650           10135                           CCS      MPTEMP                                #  SEE IF UN-NORMALIZATION REQUIRED.
002775: 00,3651           13714                           TCF      ACOSSHR                               #  IF SO.
002776:


002778: 00,3652           52155        ACOS3              DXCH     MPAC                                  #  SET UP FOR POLYNOMIAL EVALUATION.
002779: 00,3653           52134                           DXCH     BUF2
002780: 00,3654           52155                           DXCH     MPAC
002781:
002782: 00,3655           07222                           TC       POLY
002783: 00,3656           00006                           DEC      6          B-14
002784: 00,3657           13240 23630                     2DEC     +.353553385                            #  COEFFICIENTS ARE C 2(+I)/PISQRT(2) WHERE
002785:
002786: 00,3661           74721 47775                     2DEC*    -.0483017006 B+1*                       #  I
002787:
002788: 00,3663           02440 20237                     2DEC*    +.0200273085 B+2*                       #  WHERE C STANDS FOR ORIGINAL COEFFS.
002789:
002790: 00,3665           75067 70742                     2DEC*    -.0112931863 B+3*
002791:
002792: 00,3667           03436 26756                     2DEC*    +.00695311612 B+4*
002793:
002794: 00,3671           74037 57640                     2DEC*    -.00384617957 B+5*
002795:
002796: 00,3673           03046 07143                     2DEC*    +.001501297736 B+6*
002797:
002798: 00,3675           76654 42244                     2DEC*    -.000284160334 B+7*
002799:
002800:
002801: 00,3677           32470                           CAF      LBUF2                                 #  DO FINAL MULTIPLY AND GO TO ANY
002802: 00,3700           07106                           TC       DMPSUB     -1                         #  EPILOGUE SEQUENCES.
002803: 00,3701           00136                           TC       ESCAPE
002804:
002805: 00,3702           00006        SUBTR              EXTEND                                         #  EPILOGUE FOR NEGATIVE INPUTS TO ARCCOS.
002806: 00,3703           40155                           DCS      MPAC
002807: 00,3704           64736                           AD       HALF                                  #  FORMS PI - ARCCOS(-X) = ARCCOS(X).
002808: 00,3705           52155                           DXCH     MPAC
002809: 00,3706           00137                           TC       ESCAPE2                               #  GO TO POSSIBLE ARCSIN EPILOGUE.
002810:
002811: 00,3707           00006        ASINEX             EXTEND
002812: 00,3710           40155                           DCS      MPAC                                  #  ARCSIN EPILOGUE - GET ARCSIN(X)
002813: 00,3711           64737                           AD       QUARTER                               #  = PI/2 - ARCCOS(X).
002814: 00,3712           52155                           DXCH     MPAC
002815: 00,3713           16061        LDANZIG            TCF      DANZIG
002816:


002818: 00,3714           50000        ACOSSHR            INDEX    A                                     #  THE SHIFT RIGHT IS LESS THAN 14 SINCE
002819: 00,3715           34736                           CAF      BIT14                                 #  THE INPUT WAS NON-ZERO DP.
002820: 00,3716           54135                           TS       MPTEMP
002821: 00,3717           02073                           TC       VSHRRND                               #  DP SHIFT RIGHT AND ROUND.
002822: 00,3720           13652                           TCF      ACOS3                                 #  PROCEED.
002823:
002824: 00,3721           00006        ACOSOVF            EXTEND                                         #  IF MAJOR PART WAS ONLY 1 MORE THAN .5,
002825: 00,3722           13637                           BZF      ACOS=0                                #  CALL ANSWER ZERO.
002826:
002827: 00,3723           00006        ACOSABRT           EXTEND                                         #  IF OVERFLOW, CALL ANSWER ZERO BUT
002828: 00,3724           30165                           DCA      LOC                                   #  SOUND AN ALARM.
002829: 00,3725           05732                           TC       ALARM1
002830: 00,3726           01301                           OCT      1301
002831:
002832: 00,3727           34755                           CAF      ZERO
002833: 00,3730           13637                           TCF      ACOS=0
002834:
002835: 00,3731           34737        ACOSZERO           CAF      QUARTER                               #  ACOS(0) = PI/2.
002836: 00,3732           13640                           TCF      ACOS=0     +1                         #  SET MPAC AND EXIT VIA ESCAPE.
002837:
002838: 00,3733           77763        NEG12              DEC      -12        B-14
002839: 00,3734           13702        TCSUBTR            TCF      SUBTR
002840:


002842:                                                                                                  #  THE FOLLOWING INSTRUCTIONS ARE AVAILABLE FOR SETTING, MODIFYING, AND BRANCHING ON INDEX REGISTERS:
002843:                                                                                                  #        1.      AXT     ADDRESS TO INDEX TRUE.
002844:                                                                                                  #        1.      AXC     ADDRESS TO INDEX COMPLEMENTED.
002845:                                                                                                  #        3.      LXA     LOAD INDEX FROM ERASABLE.
002846:                                                                                                  #        4.      LXC     LOAD INDEX COMPLEMENTED FROM ERASABLE.
002847:                                                                                                  #        5.      SXA     STORE INDEX IN ERASABLE.
002848:                                                                                                  #        6.      XCHX    EXCHANGE INDEX REIGSTER WITH ERASABLE.
002849:
002850:                                                                                                  #        7.      INCR    INCREMENT INDEX REGISTER.
002851:                                                                                                  #        8.      XAD     ERASABLE ADD TO INDEX REGISTER.
002852:                                                                                                  #        9.      XSU     ERASABLE SUBTRACT FROM INDEX REGISTER.
002853:                                                                                                  #        10.     TIX     BRANCH ON INDEX REGISTER AND DECREMENT.
002854:
002855: 01,2344                                           BANK     01
002856:
002857: 01,2344                                           COUNT*   $$/INTER
002858: 01,2344           02441        AXT                TC       TAGSUB                                #  SELECT APPROPRIATE INDEX REGISTER.
002859: 01,2345           30117                           CA       POLISH
002860: 01,2346           50130        XSTORE             INDEX    INDEXLOC                              #  CONTAINS C(FIXLOC) OR C(FIXLOC)+1.
002861: 01,2347           54046                           TS       X1
002862: 01,2350           16061                           TCF      DANZIG
002863:
002864: 01,2351           02441        AXC                TC       TAGSUB
002865: 01,2352           40117                           CS       POLISH
002866: 01,2353           02346                           TC       XSTORE
002867:
002868: 01,2354           02427        LXA                TC       15ADRERS                              #  LOAD INDEX REGISTER FROM ERASABLE.
002869: 01,2355           50117                           INDEX    POLISH
002870: 01,2356           30000                           CA       0
002871: 01,2357           12346                           TCF      XSTORE
002872:
002873: 01,2360           02427        LXC                TC       15ADRERS                              #  LOAD NDX REG FROM ERASABLE COMPLEMENTED.
002874: 01,2361           50117                           INDEX    POLISH
002875: 01,2362           40000                           CS       0
002876: 01,2363           12346                           TCF      XSTORE
002877:
002878: 01,2364           02427        SXA                TC       15ADRERS                              #  STORE INDEX REGISTER IN ERASABLE.
002879: 01,2365           50130                           INDEX    INDEXLOC
002880: 01,2366           30046                           CA       X1
002881: 01,2367           50117        MSTORE1            INDEX    POLISH
002882: 01,2370           54000                           TS       0
002883: 01,2371           16061                           TCF      DANZIG
002884:


002886: 01,2372           02427        XCHX               TC       15ADRERS                              #  EXCHANGE INDEX REGISTER WITH ERASABLE.
002887: 01,2373           50117                           INDEX    POLISH
002888: 01,2374           30000                           CA       0
002889: 01,2375           50130                           INDEX    INDEXLOC
002890: 01,2376           56046                           XCH      X1
002891: 01,2377           12367                           TCF      MSTORE1
002892:
002893: 01,2400           02427        XAD                TC       15ADRERS                              #  ADD ERASABLE TO INDEX REGISTER.
002894: 01,2401           50117                           INDEX    POLISH
002895: 01,2402           30000                           CA       0
002896: 01,2403           50130        XAD2               INDEX    INDEXLOC
002897: 01,2404           26046                           ADS      X1                                    #  IGNORING OVERFLOWS.
002898: 01,2405           16061                           TCF      DANZIG
002899:
002900: 01,2406           02441        INCR               TC       TAGSUB                                #  INCREMENT INDEX REGISTER.
002901: 01,2407           30117                           CA       POLISH
002902: 01,2410           12403                           TCF      XAD2
002903:
002904: 01,2411           02427        XSU                TC       15ADRERS                              #  SUBTRACT ERASABLE FROM INDEX REGISTER.
002905: 01,2412           50117                           INDEX    POLISH
002906: 01,2413           40000                           CS       0
002907: 01,2414           12403                           TCF      XAD2
002908:
002909: 01,2415           02441        TIX                TC       TAGSUB                                #  BRANCH AND DECREMENT ON INDEX.
002910: 01,2416           50130                           INDEX    INDEXLOC
002911: 01,2417           40050                           CS       S1
002912: 01,2420           50130                           INDEX    INDEXLOC
002913: 01,2421           60046                           AD       X1
002914: 01,2422           00006                           EXTEND                                         #  NO OPERATION IF DECREMENTED INDEX IS
002915: 01,2423           66061                           BZMF     DANZIG                                #  NEGATIVE OR ZERO.
002916:
002917: 01,2424           50130        DOTIXBR            INDEX    INDEXLOC
002918: 01,2425           56046                           XCH      X1                                    #  IGNORING OVERFLOWS.
002919:
002920: 01,2426           16646                           TCF      GOTO                                  #  DO THE BRANCH USING THE CADR IN POLISH.
002921:


002923:                                                                                                  #  SUBROUTINE TO CONVERT AN ERASABLE ADDRESS (11 BITS) TO AN EBANK SETTING AND SUBADDRESS.
002924:
002925: 01,2427           40117        15ADRERS           CS       POLISH
002926: 01,2430           64772                           AD       DEC45
002927: 01,2431           10000                           CCS      A                                     #  DOES THE ADDRESS POINT TO THE WORK AREA?
002928: 01,2432           30120                           CA       FIXLOC                                #  YES.  ADD FIXLOC.  EBANK OK AS IS.
002929: 01,2433           12440                           TCF      +5
002930:
002931: 01,2434           35007                           CA       OCT1400                               #  NO. SET EBANK & MAKE UP SUBADDRESS.
002932: 01,2435           56117                           XCH      POLISH
002933: 01,2436           54003                           TS       EBANK
002934: 01,2437           74357                           MASK     LOW8
002935: 01,2440           26117                 +5        ADS      POLISH                                #  FALL INTO TAGSUB, AND RETURN VIA Q.
002936:
002937:                                                                                                  #  SUBROUTINE WHICH SETS THE ADDRESS OF THE SPECIFIED INDEX IN INDEXLOC.  (ACTUALLY, THE ADDRESS -38D.)
002938:
002939: 01,2441           30120        TAGSUB             CA       FIXLOC
002940: 01,2442           54130                           TS       INDEXLOC
002941:
002942: 01,2443           10020                           CCS      CYR                                   #  BIT 15 SPECIFIES INDEX.
002943: 01,2444           24130                           INCR     INDEXLOC                              #  0 MEANS USE X2.
002944: 01,2445           00002                           TC       Q
002945: 01,2446           00002                           TC       Q                                     #  1 FOR X1.
002946:


002948:                                                                                                  #  MISCELLANEOUS OPERATION CODES WITH DIRECT ADDRESSES.  INCLUDED HERE ARE:
002949:                                                                                                  #        1.      ITA     STORE QPRET (RETURN ADDRESS) IN ERASABLE.
002950:                                                                                                  #        2.      CALL    CALL A SUBROUTINE, LEAVING RETURN IN QPRET.
002951:                                                                                                  #        3.      RTB     RETURN TO BASIC LANGUAGE AT THE GIVEN ADDRESS.
002952:                                                                                                  #        4.      BHIZ    BRANCH IF THE HIGH ORDER OF MPAC IS ZERO (SINGLE PRECISION).
002953:                                                                                                  #        5.      BOV     BRANCH ON OVERFLOW.
002954:                                                                                                  #        6.      GOTO    SIMPLE SEQUENCE CHANGE.
002955:
002956: 01,2447           10020        RTB/BHIZ           CCS      CYR
002957: 01,2450           30117        RTB                CA       POLISH
002958: 01,2451           04621                           TC       SWCALL     -1                         #  SO A "TC Q" FROM ROUTINE LEADS TO DANZIG
002959:
002960: 01,2452           10154        BHIZ               CCS      MPAC
002961: 01,2453           16061                           TCF      DANZIG
002962: 01,2454           16646                           TCF      GOTO
002963: 01,2455           16061                           TCF      DANZIG
002964: 01,2456           16646                           TCF      GOTO
002965:
002966: 01,2457           10121        BOV(B)             CCS      OVFIND                                #  BRANCH ON OVERFLOW TO BASIC OR INTERP.
002967: 01,2460           12462                           TCF      +2
002968: 01,2461           16061                           TCF      DANZIG
002969: 01,2462           54121                           TS       OVFIND
002970: 01,2463           10020                           CCS      CYR
002971: 01,2464           12450                           TCF      RTB                                   #  IF BASIC.
002972: 01,2465           00360        B5TOB8             OCT      360
002973: 01,2466           16646                           TCF      GOTO
002974:


002976: 01,2467           10020        BZE/GOTO           CCS      CYR                                   #  SEE WHICH OP-CODE IS DESIRED.
002977: 01,2470           06723                           TC       BRANCH                                #  DO BZE.
002978: 01,2471           16061                           TCF      DANZIG
002979: 01,2472           16646                           TCF      GOTO                                  #  DO GOTO.
002980: 01,2473           16061                           TCF      DANZIG
002981:
002982: 01,2474           10020        BPL/BMN            CCS      CYR
002983: 01,2475           12503                           TCF      BPL
002984: 01,2476           12000        5B10               DEC      5          B+10                       #  SHIFTS OP CODE IN SWITCH INSTRUCTION ADR
002985:
002986: 01,2477           06723                           TC       BRANCH                                #  DO BMN.
002987: 01,2500           16061                           TCF      DANZIG
002988: 01,2501           16061                           TCF      DANZIG
002989: 01,2502           16646                           TCF      GOTO                                  #  ONLY IF NNZ.
002990:
002991: 01,2503           06723        BPL                TC       BRANCH
002992: 01,2504           16646                           TCF      GOTO                                  #  IF POSITIVE OR ZERO.
002993: 01,2505           16646                           TCF      GOTO
002994: 01,2506           16061                           TCF      DANZIG
002995:
002996: 01,2507           10020        CALL/ITA           CCS      CYR
002997: 01,2510           16640                           TCF      CALL
002998:
002999: 01,2511           05705                           TC       CCSHOLE
003000: 01,2512           02427                           TC       15ADRERS                              #  STORE QPRET.  (TAGSUB AFTER 15ADRERS IS
003001: 01,2513           50120                           INDEX    FIXLOC                                #  SLOW IN THIS CASE, BUT SAVES STORAGE.)
003002: 01,2514           30052                           CA       QPRET
003003: 01,2515           12367                           TCF      MSTORE1
003004:


003006:                                                                                                  #  THE FOLLOWING OPERATIONS ARE AVAILABLE FOR ALTERING AND TESTING INTERPRETIVE SWITCHES:
003007:
003008:                                                                                                  #        00      BONSET          SET A SWITCH AND DO A GOTO IF IT WAS ON.
003009:                                                                                                  #        01      SETGO           SET A SWITCH AND DO A GOTO.
003010:                                                                                                  #        02      BOFSET          SET A SWITCH AND DOA GOTO IF IT WAS OFF
003011:                                                                                                  #        03      SET             SET A SWITCH.
003012:
003013:                                                                                                  #        04      BONINV          INVERT A SWITCH AND BRANCH IF IT WAS ON.
003014:                                                                                                  #        05      INVGO           INVERT A SWITCH AND DO A GOTO.
003015:                                                                                                  #        06      BOFINV          INVERT A SWITCH AND BRANCH IF IT WAS OFF
003016:                                                                                                  #        07      INVERT          INVERT A SWITCH.
003017:
003018:                                                                                                  #        10      BONCLR          CLEAR A SWITCH AND BRANCH IF IT WAS ON.
003019:                                                                                                  #        11      CLRGO           CLEAR A SWITCH AND DO A GOTO.
003020:                                                                                                  #        12      BOFCLR          CLEAR A SWITCH AND BRANCH IF IT WAS OFF.
003021:                                                                                                  #        13      CLEAR           CLEAR A SWITCH.
003022:
003023:                                                                                                  #        14      BON             BRANCH IF A SWITCH WAS ON.
003024:                                                                                                  #        16      BOFF            BRANCH IF A SWITCH WAS OFF.
003025:
003026:                                                                                                  #  THE ADDRESS SUPPLIED WITH THE SWITCH INSTRUCTION IS INTERPRETED AS FOLLOWS:
003027:
003028:                                                                                                  #        BITS 1-4        SWITCH BIT NUMBER (1-15).
003029:                                                                                                  #        BITS 5-8        SWITCH OPERATION NUMBER.
003030:                                                                                                  #        BITS 9-         SWITCH WORD NUMBER (UP TO 64 SWITCH WORDS).
003031:
003032:                                                                                                  #  THE ADDRESS ITSELF IS MADE UP BY THE YUL SYSTEM ASSEMBLER.  THE BRANCH INSTRUCTIONS REQUIRE TWO
003033:                                                                                                  #  ADDRESSES, THE SECOND TAKEN AS THE DIRECT (OR INDIRECT IF IN ERASABLE) ADDRESS OF THE BRANCH.
003034:
003035: 01,2516           34762        SWITCHES           CAF      LOW4                                  #  LEAVE THE SWITCH BIT IN SWBIT.
003036: 01,2517           70117                           MASK     POLISH
003037: 01,2520           50000                           INDEX    A
003038: 01,2521           34735                           CAF      BIT15                                 #  (NUMBER FROM LEFT TO RIGHT.)
003039: 01,2522           54131                           TS       SWBIT
003040:
003041: 01,2523           34745                           CAF      BIT7                                  #  LEAVE THE SWITCH NUMBER IN SWWORD.
003042: 01,2524           00006                           EXTEND
003043: 01,2525           70117                           MP       POLISH
003044: 01,2526           54130                           TS       SWWORD
003045:
003046: 01,2527           00004                           INHINT                                         #  DURING SWITCH CHANGE SO RUPT CAN USE TOO
003047: 01,2530           50000                           INDEX    A                                     #  LEAVE THE SWITCH WORD ITSELF IN L.
003048: 01,2531           30074                           CA       STATE
003049: 01,2532           54002                           TS       Q                                     #  Q WILL BE USED AS A CHANNEL.


003051: 01,2533           34741                           CAF      BIT11
003052: 01,2534           00006                           EXTEND                                         #  DISPATCH SWITCH BIT OPERATION AS IN BITS
003053: 01,2535           70117                           MP       POLISH                                #  7-8 OF POLISH.
003054: 01,2536           72576                           MASK     B3TOB4                                #  GETS 4X2-BIT CODE.
003055: 01,2537           50000                           INDEX    A
003056: 01,2540           12541                           TCF      +1
003057:
003058: 01,2541           30131                 +1        CA       SWBIT                                 #  00 - SET SWITCH IN QUESTION.
003059: 01,2542           00006                           EXTEND
003060: 01,2543           04002                           ROR      QCHAN
003061: 01,2544           12553                           TCF      SWSTORE
003062:
003063: 01,2545           30131                 +5        CA       SWBIT                                 #  01 - INVERT SWITCH.
003064: 01,2546           00006                           EXTEND
003065: 01,2547           06002                           RXOR     QCHAN
003066: 01,2550           12553                           TCF      SWSTORE
003067:
003068: 01,2551           40131                 +9D       CS       SWBIT                                 #  10 - CLEAR.
003069: 01,2552           70002                           MASK     Q
003070: 01,2553           50130        SWSTORE            INDEX    SWWORD
003071: 01,2554           54074                           TS       STATE                                 #  NEW SWITCH WORD.
003072:


003074: 01,2555           00003                 +13D      RELINT                                         #  11 - NOOP.
003075: 01,2556           34737                           CAF      BIT13
003076: 01,2557           00006                           EXTEND                                         #  DISPATCH SEQUCE CHANGING OR BRANCHING
003077: 01,2560           70117                           MP       POLISH                                #  CODE.
003078: 01,2561           72576                           MASK     B3TOB4
003079: 01,2562           50000                           INDEX    A
003080: 01,2563           12564                           TCF      +1                                    #  ORIGINALLY STORED IN BITS 5-6.
003081:
003082: 01,2564           40002                 +1        CS       Q                                     #  00 - BRANCH IF ON.
003083: 01,2565           70131        TEST               MASK     SWBIT
003084: 01,2566           10000                           CCS      A
003085: 01,2567           12577                           TCF      SWSKIP
003086:
003087: 01,2570           16715                 +5        TCF      SWBRANCH                              #  01 - GO TO.
003088:
003089: 01,2571           12577                           TCF      SWSKIP                                #  HERE ONLY ON BIT 15.
003090:
003091: 01,2572           05705                           TC       CCSHOLE
003092: 01,2573           05705                           TC       CCSHOLE
003093:
003094: 01,2574           30002                 +9D       CA       Q                                     #  10 - BRANCH IF OFF.
003095: 01,2575           12565                           TCF      TEST
003096:
003097: 01,2576           00014        B3TOB4             OCT      0014
003098: 01,2577           24164        SWSKIP             INCR     LOC
003099:
003100: 01,2600  01,2516               SW/                EQUALS   SWITCHES
003101:
003102: 01,2600           16061                 +13D      TCF      DANZIG                                #  11 - NOOP.
003103:

End of include-file INTERPRETER.agc.  Parent file is MAIN.agc


