
Source Code


000002:                                                                                                  ## Copyright:   Public domain.
000003:                                                                                                  ## Filename:    INTERPRETIVE_CONSTANTS.agc
000004:                                                                                                  ## Purpose:     Part of the reconstructed source code for LMY99 Rev 0,
000005:                                                                                                  ##              otherwise known as Luminary Rev 99, the second release
000006:                                                                                                  ##              of the Apollo Guidance Computer (AGC) software for Apollo 11.
000007:                                                                                                  ##              It differs from LMY99 Rev 1 (the flown version) only in the
000008:                                                                                                  ##              placement of a single label. The corrections shown here have
000009:                                                                                                  ##              been verified to have the same bank checksums as AGC developer
000010:                                                                                                  ##              Allan Klumpp's copy of Luminary Rev 99, and so are believed
000011:                                                                                                  ##              to be accurate. This file is intended to be a faithful
000012:                                                                                                  ##              recreation, except that the code format has been changed to
000013:                                                                                                  ##              conform to the requirements of the yaYUL assembler rather than
000014:                                                                                                  ##              the original YUL assembler.
000015:                                                                                                  ##
000016:                                                                                                  ## Assembler:   yaYUL
000017:                                                                                                  ## Contact:     Ron Burkey <info@sandroid.org>.
000018:                                                                                                  ## Website:     www.ibiblio.org/apollo.
000019:                                                                                                  ## Pages:       1100-1101
000020:                                                                                                  ## Mod history: 2009-05-25 RSB  Adapted from the corresponding
000021:                                                                                                  ##                              Luminary131 file, using page
000022:                                                                                                  ##                              images from Luminary 1A.
000023:                                                                                                  ##              2016-12-17 RSB  Proofed text comments with octopus/ProoferComments
000024:                                                                                                  ##                              but no errors found.
000025:                                                                                                  ##              2017-08-01 MAS  Created from LMY99 Rev 1.
000026:
000027:                                                                                                  ## This source code has been transcribed or otherwise adapted from
000028:                                                                                                  ## digitized images of a hardcopy from the MIT Museum.  The digitization
000029:                                                                                                  ## was performed by Paul Fjeld, and arranged for by Deborah Douglas of
000030:                                                                                                  ## the Museum.  Many thanks to both.  The images (with suitable reduction
000031:                                                                                                  ## in storage size and consequent reduction in image quality as well) are
000032:                                                                                                  ## available online at www.ibiblio.org/apollo.  If for some reason you
000033:                                                                                                  ## find that the images are illegible, contact me at info@sandroid.org
000034:                                                                                                  ## about getting access to the (much) higher-quality images which Paul
000035:                                                                                                  ## actually created.
000036:                                                                                                  ##
000037:                                                                                                  ## The code has been modified to match LMY99 Revision 0, otherwise
000038:                                                                                                  ## known as Luminary Revision 99, the Apollo 11 software release preceeding
000039:                                                                                                  ## the listing from which it was transcribed. It has been verified to
000040:                                                                                                  ## contain the same bank checksums as AGC developer Allan Klumpp's listing
000041:                                                                                                  ## of Luminary Revision 99 (for which we do not have scans).
000042:                                                                                                  ##
000043:                                                                                                  ## Notations on Allan Klumpp's listing read, in part:
000044:                                                                                                  ##
000045:                                                                                                  ##      ASSEMBLE REVISION 099 OF AGC PROGRAM LUMINARY BY NASA 2021112-51
000046:


000048: 23,2000                                           SETLOC   INTPRET1
000049: 23,2000                                           BANK
000050:
000051: 23,2511                                           COUNT*   $$/ICONS
000052: 23,2511           10000 00000  DP1/4TH            2DEC     .25
000053:
000054: 23,2513           00000 00000  UNITZ              2DEC     0          B-28
000055:
000056: 23,2515           00000 00000  UNITY              2DEC     0          B-28
000057:
000058: 23,2517           20000 00000  UNITX              2DEC     .5
000059:
000060: 23,2521           00000 00000  ZEROVECS           2DEC     0          B-28
000061:
000062: 23,2523           00000 00000                     2DEC     0          B-28
000063:
000064: 23,2525           00000 00000                     2DEC     0          B-28
000065:
000066: 23,2527  23,2517               DPHALF             =        UNITX
000067: 23,2527           37777        DPPOSMAX           OCT      37777
000068: 23,2530           37777                           OCT      37777
000069:


000071:                                                                                                  #  INTERPRETIVE CONSTANTS IN THE OTHER HALF-MEMORY
000072:
000073: 12,2000                                           SETLOC   INTPRET2
000074: 12,2000                                           BANK
000075:
000076: 12,2000                                           COUNT*   $$/ICONS
000077: 12,2000           00000 00000  ZUNIT              2DEC     0          B-28
000078:
000079: 12,2002           00000 00000  YUNIT              2DEC     0          B-28
000080:
000081: 12,2004           20000 00000  XUNIT              2DEC     .5
000082:
000083: 12,2006           00000 00000  ZEROVEC            2DEC     0          B-28
000084:
000085: 12,2010           00000 00000                     2DEC     0          B-28
000086:
000087: 12,2012           00000 00000                     2DEC     0          B-28
000088:
000089: 12,2014           77777                           OCT      77777                                 #  -0, -6, -12 MUST REMAIN IN THIS ORDER
000090: 12,2015           77771        DFC-6              DEC      -6         B-14
000091: 12,2016           77763        DFC-12             DEC      -12        B-14
000092: 12,2017           37777 37777  LODPMAX            2OCT     3777737777                            #  THESE TWO CONSTANTS MUST REMAIN
000093:
000094: 12,2021           37777 37777  LODPMAX1           2OCT     3777737777                            #  ADJACENT AND THE SAME FOR INTEGRATION
000095:
000096: 12,2023  12,2006               ZERODP             =        ZEROVEC
000097: 12,2023  12,2004               HALFDP             =        XUNIT
000098:
000099:

End of include-file INTERPRETIVE_CONSTANTS.agc.  Parent file is MAIN.agc


