
Source Code


000002:                                                                                                  ## Copyright:   Public domain.
000003:                                                                                                  ## Filename:    INTERPRETIVE_CONSTANTS.agc
000004:                                                                                                  ## Purpose:     Part of the reconstructed source code for LMY99 Rev 0,
000005:                                                                                                  ##              otherwise known as Luminary Rev 99, the third release
000006:                                                                                                  ##              of the Apollo Guidance Computer (AGC) software for Apollo 11.
000007:                                                                                                  ##              It differs from LMY99 Rev 1 (the flown version) only in the
000008:                                                                                                  ##              placement of a single label. The corrections shown here have
000009:                                                                                                  ##              been verified to have the same bank checksums as AGC developer
000010:                                                                                                  ##              Allan Klumpp's copy of Luminary Rev 99, and so are believed
000011:                                                                                                  ##              to be accurate. This file is intended to be a faithful
000012:                                                                                                  ##              recreation, except that the code format has been changed to
000013:                                                                                                  ##              conform to the requirements of the yaYUL assembler rather than
000014:                                                                                                  ##              the original YUL assembler.
000015:                                                                                                  ##
000016:                                                                                                  ## Assembler:   yaYUL
000017:                                                                                                  ## Contact:     Ron Burkey <info@sandroid.org>.
000018:                                                                                                  ## Website:     www.ibiblio.org/apollo.
000019:                                                                                                  ## Pages:       1100-1101
000020:                                                                                                  ## Mod history: 2009-05-25 RSB  Adapted from the corresponding
000021:                                                                                                  ##                              Luminary131 file, using page
000022:                                                                                                  ##                              images from Luminary 1A.
000023:                                                                                                  ##              2016-12-17 RSB  Proofed text comments with octopus/ProoferComments
000024:                                                                                                  ##                              but no errors found.
000025:                                                                                                  ##              2017-08-01 MAS  Created from LMY99 Rev 1.
000026:                                                                                                  ##              2021-05-30 ABS  DFC-6 -> DEC-6, DFC-12 -> DEC-12
000027:
000028:                                                                                                  ## This source code has been transcribed or otherwise adapted from
000029:                                                                                                  ## digitized images of a hardcopy from the MIT Museum.  The digitization
000030:                                                                                                  ## was performed by Paul Fjeld, and arranged for by Deborah Douglas of
000031:                                                                                                  ## the Museum.  Many thanks to both.  The images (with suitable reduction
000032:                                                                                                  ## in storage size and consequent reduction in image quality as well) are
000033:                                                                                                  ## available online at www.ibiblio.org/apollo.  If for some reason you
000034:                                                                                                  ## find that the images are illegible, contact me at info@sandroid.org
000035:                                                                                                  ## about getting access to the (much) higher-quality images which Paul
000036:                                                                                                  ## actually created.
000037:                                                                                                  ##
000038:                                                                                                  ## The code has been modified to match LMY99 Revision 0, otherwise
000039:                                                                                                  ## known as Luminary Revision 99, the Apollo 11 software release preceeding
000040:                                                                                                  ## the listing from which it was transcribed. It has been verified to
000041:                                                                                                  ## contain the same bank checksums as AGC developer Allan Klumpp's listing
000042:                                                                                                  ## of Luminary Revision 99 (for which we do not have scans).
000043:                                                                                                  ##
000044:                                                                                                  ## Notations on Allan Klumpp's listing read, in part:
000045:                                                                                                  ##
000046:                                                                                                  ##      ASSEMBLE REVISION 099 OF AGC PROGRAM LUMINARY BY NASA 2021112-51
000047:


000049: 23,2000                                           SETLOC   INTPRET1
000050: 23,2000                                           BANK
000051:
000052: 23,2511                                           COUNT*   $$/ICONS
000053: 23,2511           10000 00000  DP1/4TH            2DEC     .25
000054:
000055: 23,2513           00000 00000  UNITZ              2DEC     0          B-28
000056:
000057: 23,2515           00000 00000  UNITY              2DEC     0          B-28
000058:
000059: 23,2517           20000 00000  UNITX              2DEC     .5
000060:
000061: 23,2521           00000 00000  ZEROVECS           2DEC     0          B-28
000062:
000063: 23,2523           00000 00000                     2DEC     0          B-28
000064:
000065: 23,2525           00000 00000                     2DEC     0          B-28
000066:
000067: 23,2527  23,2517               DPHALF             =        UNITX
000068: 23,2527           37777        DPPOSMAX           OCT      37777
000069: 23,2530           37777                           OCT      37777
000070:


000072:                                                                                                  #  INTERPRETIVE CONSTANTS IN THE OTHER HALF-MEMORY
000073:
000074: 12,2000                                           SETLOC   INTPRET2
000075: 12,2000                                           BANK
000076:
000077: 12,2000                                           COUNT*   $$/ICONS
000078: 12,2000           00000 00000  ZUNIT              2DEC     0          B-28
000079:
000080: 12,2002           00000 00000  YUNIT              2DEC     0          B-28
000081:
000082: 12,2004           20000 00000  XUNIT              2DEC     .5
000083:
000084: 12,2006           00000 00000  ZEROVEC            2DEC     0          B-28
000085:
000086: 12,2010           00000 00000                     2DEC     0          B-28
000087:
000088: 12,2012           00000 00000                     2DEC     0          B-28
000089:
000090: 12,2014           77777                           OCT      77777                                 #  -0, -6, -12 MUST REMAIN IN THIS ORDER
000091: 12,2015           77771        DEC-6              DEC      -6         B-14
000092: 12,2016           77763        DEC-12             DEC      -12        B-14
000093: 12,2017           37777 37777  LODPMAX            2OCT     3777737777                            #  THESE TWO CONSTANTS MUST REMAIN
000094:
000095: 12,2021           37777 37777  LODPMAX1           2OCT     3777737777                            #  ADJACENT AND THE SAME FOR INTEGRATION
000096:
000097: 12,2023  12,2006               ZERODP             =        ZEROVEC
000098: 12,2023  12,2004               HALFDP             =        XUNIT
000099:
000100:

End of include-file INTERPRETIVE_CONSTANTS.agc.  Parent file is MAIN.agc


