
Source Code


000002:                                                                                                  ## Copyright:   Public domain.
000003:                                                                                                  ## Filename:    INTER-BANK_COMMUNICATION.agc
000004:                                                                                                  ## Purpose:     Part of the reconstructed source code for LMY99 Rev 0,
000005:                                                                                                  ##              otherwise known as Luminary Rev 99, the second release
000006:                                                                                                  ##              of the Apollo Guidance Computer (AGC) software for Apollo 11.
000007:                                                                                                  ##              It differs from LMY99 Rev 1 (the flown version) only in the
000008:                                                                                                  ##              placement of a single label. The corrections shown here have
000009:                                                                                                  ##              been verified to have the same bank checksums as AGC developer
000010:                                                                                                  ##              Allan Klumpp's copy of Luminary Rev 99, and so are believed
000011:                                                                                                  ##              to be accurate. This file is intended to be a faithful
000012:                                                                                                  ##              recreation, except that the code format has been changed to
000013:                                                                                                  ##              conform to the requirements of the yaYUL assembler rather than
000014:                                                                                                  ##              the original YUL assembler.
000015:                                                                                                  ##
000016:                                                                                                  ## Assembler:   yaYUL
000017:                                                                                                  ## Contact:     Ron Burkey <info@sandroid.org>.
000018:                                                                                                  ## Website:     www.ibiblio.org/apollo.
000019:                                                                                                  ## Pages:       998-1001
000020:                                                                                                  ## Mod history: 2009-05-24 RSB  Adapted from the corresponding
000021:                                                                                                  ##                              Luminary131 file, using page
000022:                                                                                                  ##                              images from Luminary 1A.
000023:                                                                                                  ##              2011-05-08 JL   Removed workaround.
000024:                                                                                                  ##              2016-12-17 RSB  Proofed text comments with octopus/ProoferComments
000025:                                                                                                  ##                              and corrected the errors found.
000026:                                                                                                  ##              2017-03-13 RSB  Comment-text fixes noted in proofing Luminary 116.
000027:                                                                                                  ##              2017-03-17 RSB  Comment-text fixes identified in diff'ing
000028:                                                                                                  ##                              Luminary 99 vs Comanche 55.
000029:                                                                                                  ##              2017-08-01 MAS  Created from LMY99 Rev 1.
000030:
000031:                                                                                                  ## This source code has been transcribed or otherwise adapted from
000032:                                                                                                  ## digitized images of a hardcopy from the MIT Museum.  The digitization
000033:                                                                                                  ## was performed by Paul Fjeld, and arranged for by Deborah Douglas of
000034:                                                                                                  ## the Museum.  Many thanks to both.  The images (with suitable reduction
000035:                                                                                                  ## in storage size and consequent reduction in image quality as well) are
000036:                                                                                                  ## available online at www.ibiblio.org/apollo.  If for some reason you
000037:                                                                                                  ## find that the images are illegible, contact me at info@sandroid.org
000038:                                                                                                  ## about getting access to the (much) higher-quality images which Paul
000039:                                                                                                  ## actually created.
000040:                                                                                                  ##
000041:                                                                                                  ## The code has been modified to match LMY99 Revision 0, otherwise
000042:                                                                                                  ## known as Luminary Revision 99, the Apollo 11 software release preceeding
000043:                                                                                                  ## the listing from which it was transcribed. It has been verified to
000044:                                                                                                  ## contain the same bank checksums as AGC developer Allan Klumpp's listing
000045:                                                                                                  ## of Luminary Revision 99 (for which we do not have scans).
000046:                                                                                                  ##
000047:                                                                                                  ## Notations on Allan Klumpp's listing read, in part:
000048:                                                                                                  ##
000049:                                                                                                  ##      ASSEMBLE REVISION 099 OF AGC PROGRAM LUMINARY BY NASA 2021112-51
000050:


000052:                                                                                                  #  THE FOLLOWING ROUTINE CAN BE USED TO CALL A SUBROUTINE IN ANOTHER BANK. IN THE BANKCALL VERSION, THE
000053:                                                                                                  #  CADR OF THE SUBROUTINE IMMEDIATELY FOLLOWS THE TC BANKCALL INSTRUCTION, WITH C(A) AND C(L) PRESERVED.
000054:
000055:    4616                                           BLOCK    02
000056:    4616                                           COUNT*   $$/BANK
000057:    4616           52134        BANKCALL           DXCH     BUF2                                  #  SAVE INCOMING A,L.
000058:    4617           50002                           INDEX    Q                                     #  PICK UP CADR.
000059:    4620           30000                           CA       0
000060:    4621           24002                           INCR     Q                                     #  SO WE RETURN TO THE LOC. AFTER THE CADR.
000061:
000062:                                                                                                  #  SWCALL IS  IDENTICAL TO BANKCALL, EXCEPT THAT THE CADR ARRIVES IN A.
000063:
000064:    4622           54001        SWCALL             TS       L
000065:    4623           22004                           LXCH     FBANK                                 #  SWITCH BANKS, SAVING RETURN.
000066:    4624           75012                           MASK     LOW10                                 #  GET SUB-ADDRESS OF CADR.
000067:    4625           56002                           XCH      Q                                     #  A,L NOW CONTAINS DP RETURN.
000068:    4626           52134                           DXCH     BUF2                                  #  RESTORING INPUTS IF THIS IS A BANKCALL.
000069:    4627           50002                           INDEX    Q
000070:    4630           02000                           TC       10000                                 #  SETTING Q TO SWRETURN.
000071:
000072:    4631           56134        SWRETURN           XCH      BUF2       +1                         #  COMES HERE TO RETURN TO CALLER. C(A,L)
000073:    4632           56004                           XCH      FBANK                                 #  ARE PRESERVED FOR RETURN.
000074:    4633           56134                           XCH      BUF2       +1
000075:    4634           00133                           TC       BUF2
000076:
000077:                                                                                                  #  THE FOLLOWING ROUTINE CAN BE USED AS A UNILATERAL JUMP WITH C(A,L) PRESERVED AND THE CADR IMMEDIATELY
000078:                                                                                                  #  FOLLOWING THE TC POSTJUMP INSTRUCTION.
000079:
000080:    4635           56002        POSTJUMP           XCH      Q                                     #  SAVE INCOMING C(A).
000081:    4636           50000                           INDEX    A                                     #  GET CADR.
000082:    4637           30000                           CA       0
000083:
000084:                                                                                                  #  BANKJUMP IS THE SAME AS POSTJUMP, EXCEPT THAT THE CADR ARRIVES IN A.
000085:
000086:    4640           54004        BANKJUMP           TS       FBANK
000087:    4641           75012                           MASK     LOW10
000088:    4642           56002                           XCH      Q                                     #  RESTORING INPUT C(A) IF THIS WAS A
000089:    4643           50002        Q+10000            INDEX    Q                                     #  POSTJUMP.
000090:    4644           12000        PRIO12             TCF      10000                                 #  PRIO12 = TCF  10000 = 12000
000091:


000093:                                                                                                  #  THE FOLLOWING ROUTINE GETS THE RETURN CADR SAVED BY SWCALL OR BANKCALL AND LEAVES IT IN A.
000094:
000095:    4645           35012        MAKECADR           CAF      LOW10
000096:    4646           70133                           MASK     BUF2
000097:    4647           60134                           AD       BUF2       +1
000098:    4650           00002                           TC       Q
000099:
000100:    4651           54135        SUPDACAL           TS       MPTEMP
000101:    4652           56004                           XCH      FBANK                                 #  SET FBANK FOR DATA.
000102:    4653           00006                           EXTEND
000103:    4654           04007                           ROR      SUPERBNK                              #  SAVE FBANK IN BITS 15-11, AND
000104:    4655           56135                           XCH      MPTEMP                                #  SUPERBANK IN BITS 7-5.
000105:    4656           75012                           MASK     LOW10
000106:    4657           56001                           XCH      L                                     #  SAVE REL. ADR. IN BANK, FETCH SUPERBITS.
000107:    4660           00004                           INHINT                                         #  BECAUSE RUPT DOES NOT SAVE SUPERBANK.
000108:    4661           00006                           EXTEND
000109:    4662           01007                           WRITE    SUPERBNK                              #  SET SUPERBANK FOR DATA.
000110:    4663           50001                           INDEX    L
000111:    4664           32000                           CA       10000                                 #  PINBALL (FIX MEM DISP) PREVENTS DCA HERE
000112:    4665           56135                           XCH      MPTEMP                                #  SAVE 1ST WD, FETCH OLD FBANK AND SBANK.
000113:    4666           00006                           EXTEND
000114:    4667           01007                           WRITE    SUPERBNK                              #  RESTORE SUPERBANK.
000115:    4670           00003                           RELINT
000116:    4671           54004                           TS       FBANK                                 #  RESTORE FBANK.
000117:    4672           30135                           CA       MPTEMP                                #  RECOVER FIRST WORD OF DATA.
000118:    4673           00002                           RETURN                                         #  24 WDS. DATACALL 516 MU, SUPDACAL 432 MU
000119:


000121:                                                                                                  #  THE FOLLOWING ROUTINES ARE IDENTICAL TO BANKCALL AND SWCALL EXCEPT THAT THEY ARE USED IN INTERRUPT.
000122:
000123:    4674           52073        IBNKCALL           DXCH     RUPTREG3                              #  USES RUPTREG3,4 FOR DP RETURN ADDRESS.
000124:    4675           50002                           INDEX    Q
000125:    4676           30000                           CAF      0
000126:    4677           24002                           INCR     Q
000127:
000128:    4700           54001        ISWCALLL           TS       L
000129:    4701           22004                           LXCH     FBANK
000130:    4702           75012                           MASK     LOW10
000131:    4703           56002                           XCH      Q
000132:    4704           52073                           DXCH     RUPTREG3
000133:    4705           50002                           INDEX    Q
000134:    4706           02000                           TC       10000
000135:
000136:    4707           56073        ISWRETRN           XCH      RUPTREG4
000137:    4710           56004                           XCH      FBANK
000138:    4711           56073                           XCH      RUPTREG4
000139:    4712           00072                           TC       RUPTREG3
000140:
000141:                                                                                                  #  2. USPRCADR ACCESSES INTERPRETIVE CODING IN OTHER THAN THE USER'S FBANK.  THE CALLING SEQUENCE IS AS FOLLOWS:
000142:                                                                                                  #        L       TC      USPRCADR
000143:                                                                                                  #        L+1     CADR    INTPRETX        INTPRETX IS THE INTERPRETIVE CODING
000144:                                                                                                  #                                        RETURN IS TO L+2
000145:
000146:    4713           54164        USPRCADR           TS       LOC                                   #  SAVE A
000147:    4714           34744                           CA       BIT8
000148:    4715           54023                           TS       EDOP                                  #  EXIT INSTRUCTION TO EDOP
000149:    4716           30006                           CA       BBANK
000150:    4717           54165                           TS       BANKSET                               #  USER'S BBANK TO BANKSET
000151:    4720           50002                           INDEX    Q
000152:    4721           30000                           CA       0
000153:    4722           54004                           TS       FBANK                                 #  INTERPRETIVE BANK TO FBANK
000154:    4723           75012                           MASK     LOW10                                 #  YIELDS INTERPRETIVE RELATIVE ADDRESS
000155:    4724           56002                           XCH      Q                                     #  INTERPRETIVE ADDRESS TO Q, FETCHING L+1
000156:    4725           56164                           XCH      LOC                                   #  L+1 TO LOC, RETRIEVING ORIGINAL A
000157:    4726           14643                           TCF      Q+10000
000158:


000160:                                                                                                  #  THERE ARE FOUR POSSIBLE SETTINGS FOR CHANNEL 07.  (CHANNEL 07 CONTAINS THE SUPERBANK SETTING.)
000161:
000162:                                                                                                  #                                        PSEUDO-FIXED      OCTAL PSEUDO
000163:                                                                                                  #  SUPERBANK     SETTING S-REG. VALUE    BANK NUMBERS      ADDRESSES
000164:                                                                                                  #  ----------    ------- ------------     ------------      ------------
000165:                                                                                                  #  SUPERBANK 3     0XX    2000 - 3777       30 - 37       70000 - 107777         (WHERE XX CAN BE ANYTHING AND
000166:                                                                                                  #                                                                                WILL USUALLY BE SEEN AS 11)
000167:                                                                                                  #  SUPERBANK 4     100    2000 - 3777       40 - 47      110000 - 127777         (AS FAR AS IT CAN BE SEEN,
000168:                                                                                                  #                                                                                ONLY BANKS 40-43 WILL EVER BE
000169:                                                                                                  #                                                                                AND ARE PRESENTLY AVAILABLE)
000170:                                                                                                  #  SUPERBANK 5     101    2000 - 3777       50 - 57      130000 - 147777         (PRESENTLY NOT AVAILABLE TO
000171:                                                                                                  #                                                                                THE USER)
000172:                                                                                                  #  SUPERBANK 6     110    2000 - 3777       60 - 67      150000 - 167777         (PRESENTLY NOT AVAILABLE TO
000173:                                                                                                  #                                                                                THE USER)
000174:                                                                                                  #  *** THIS ROUTINE MAY BE CALLED BY ANY PROGRAM LOCATED IN BANKS 00 - 27.  I.E., NO PROGRAM LIVING IN ANY
000175:                                                                                                  #  SUPERBANK SHOULD USE SUPERSW. ***
000176:
000177:                                                                                                  #  SUPERSW MAY BE CALLED IN THIS FASHION:
000178:                                                                                                  #        CAF     ABBCON          WHERE  --  ABBCON   BBCON  SOMETHIN --
000179:                                                                                                  #        TCR     SUPERSW         (THE SUPERBNK BITS ARE IN THE BBCON)
000180:                                                                                                  #        ...       ...
000181:                                                                                                  #         .         .
000182:                                                                                                  #         .         .
000183:                                                                                                  #  OR IN THIS FASHION:
000184:                                                                                                  #        CAF     SUPERSET        WHERE SUPERSET IS ONE OF THE FOUR AVAILABLE
000185:                                                                                                  #        TCR     SUPERSW         SUPERBANK BIT CONSTANTS:
000186:                                                                                                  #        ...       ...                                   SUPER011 OCTAL  60
000187:                                                                                                  #         .         .                                    SUPER100 OCTAL 100
000188:                                                                                                  #         .         .                                    SUPER101 OCTAL 120
000189:                                                                                                  #                                                        SUPER110 OCTAL 140
000190:
000191:    4727           00006        SUPERSW            EXTEND
000192:    4730           01007                           WRITE    SUPERBNK                              #  WRITE BITS 7-6-5 OF THE ACCUMULATOR INTO
000193:                                                                                                  #  CHANNEL 07
000194:    4731           00002                           TC       Q                                     #  TC TO INSTRUCTION FOLLOWING
000195:                                                                                                  #        TC SUPERSW
000196:

End of include-file INTER-BANK_COMMUNICATION.agc.  Parent file is MAIN.agc


