
Source Code


000002:                                                                                                  ## Copyright:   Public domain.
000003:                                                                                                  ## Filename:    INTERRUPT_LEAD_INS.agc
000004:                                                                                                  ## Purpose:     Part of the reconstructed source code for LMY99 Rev 0,
000005:                                                                                                  ##              otherwise known as Luminary Rev 99, the second release
000006:                                                                                                  ##              of the Apollo Guidance Computer (AGC) software for Apollo 11.
000007:                                                                                                  ##              It differs from LMY99 Rev 1 (the flown version) only in the
000008:                                                                                                  ##              placement of a single label. The corrections shown here have
000009:                                                                                                  ##              been verified to have the same bank checksums as AGC developer
000010:                                                                                                  ##              Allan Klumpp's copy of Luminary Rev 99, and so are believed
000011:                                                                                                  ##              to be accurate. This file is intended to be a faithful
000012:                                                                                                  ##              recreation, except that the code format has been changed to
000013:                                                                                                  ##              conform to the requirements of the yaYUL assembler rather than
000014:                                                                                                  ##              the original YUL assembler.
000015:                                                                                                  ##
000016:                                                                                                  ## Assembler:   yaYUL
000017:                                                                                                  ## Contact:     Onno Hommes <ohommes@cmu.edu>.
000018:                                                                                                  ## Website:     www.ibiblio.org/apollo.
000019:                                                                                                  ## Pages:       0153-0154
000020:                                                                                                  ## Mod history: 2009-05-14 OH   Transcribed from page images.
000021:                                                                                                  ##              2016-12-13 RSB  Proofed text comments with octopus/ProoferComments
000022:                                                                                                  ##                              and corrected the errors found.
000023:                                                                                                  ##              2017-08-01 MAS  Created from LMY99 Rev 1.
000024:
000025:                                                                                                  ## This source code has been transcribed or otherwise adapted from
000026:                                                                                                  ## digitized images of a hardcopy from the MIT Museum.  The digitization
000027:                                                                                                  ## was performed by Paul Fjeld, and arranged for by Deborah Douglas of
000028:                                                                                                  ## the Museum.  Many thanks to both.  The images (with suitable reduction
000029:                                                                                                  ## in storage size and consequent reduction in image quality as well) are
000030:                                                                                                  ## available online at www.ibiblio.org/apollo.  If for some reason you
000031:                                                                                                  ## find that the images are illegible, contact me at info@sandroid.org
000032:                                                                                                  ## about getting access to the (much) higher-quality images which Paul
000033:                                                                                                  ## actually created.
000034:                                                                                                  ##
000035:                                                                                                  ## The code has been modified to match LMY99 Revision 0, otherwise
000036:                                                                                                  ## known as Luminary Revision 99, the Apollo 11 software release preceeding
000037:                                                                                                  ## the listing from which it was transcribed. It has been verified to
000038:                                                                                                  ## contain the same bank checksums as AGC developer Allan Klumpp's listing
000039:                                                                                                  ## of Luminary Revision 99 (for which we do not have scans).
000040:                                                                                                  ##
000041:                                                                                                  ## Notations on Allan Klumpp's listing read, in part:
000042:                                                                                                  ##
000043:                                                                                                  ##      ASSEMBLE REVISION 099 OF AGC PROGRAM LUMINARY BY NASA 2021112-51
000044:


000046:    4000                                           SETLOC   4000
000047:
000048:    4000                                           COUNT*   $$/RUPTS                              #  FIX-FIX LEAD INS
000049:    4000           00004                           INHINT                                         #  GO
000050:    4001           34054                           CAF      GOBB
000051:    4002           56006                           XCH      BBANK
000052:    4003           12667                           TCF      GOPROG
000053:
000054:    4004           52011                           DXCH     ARUPT                                 #  T6RUPT
000055:    4005           00006                           EXTEND
000056:    4006           34056                           DCA      T6ADR
000057:    4007           52006                           DTCB
000058:
000059:    4010           52011                           DXCH     ARUPT                                 #  T5RUPT - AUTOPILOT
000060:    4011           00006                           EXTEND
000061:    4012           31275                           DCA      T5ADR
000062:    4013           52006                           DTCB
000063:
000064:    4014           52011                           DXCH     ARUPT                                 #  T3RUPT
000065:    4015           34057                           CAF      T3RPTBB
000066:    4016           56006                           XCH      BBANK
000067:    4017           13407                           TCF      T3RUPT
000068:
000069:    4020           52011                           DXCH     ARUPT                                 #  T4RUPT
000070:    4021           34064                           CAF      T4RPTBB
000071:    4022           56006                           XCH      BBANK
000072:    4023           12000                           TCF      T4RUPT
000073:
000074:    4024           52011                           DXCH     ARUPT                                 #  KEYRUPT1
000075:    4025           34060                           CAF      KEYRPTBB
000076:    4026           56006                           XCH      BBANK
000077:    4027           13274                           TCF      KEYRUPT1
000078:
000079:    4030           52011                           DXCH     ARUPT                                 #  KEYRUPT2
000080:    4031           34061                           CAF      MKRUPTBB
000081:    4032           56006                           XCH      BBANK
000082:    4033           12332                           TCF      MARKRUPT
000083:
000084:    4034           52011                           DXCH     ARUPT                                 #  UPRUPT
000085:    4035           34060                           CAF      UPRPTBB
000086:    4036           56006                           XCH      BBANK
000087:    4037           13317                           TCF      UPRUPT
000088:
000089:    4040           52011                           DXCH     ARUPT                                 #  DOWNRUPT
000090:    4041           34062                           CAF      DWNRPTBB
000091:    4042           56006                           XCH      BBANK
000092:    4043           13506                           TCF      DODOWNTM
000093:
000094:    4044           52011                           DXCH     ARUPT                                 #  RADAR RUPT
000095:    4045           34063                           CAF      RDRPTBB


000097:    4046           56006                           XCH      BBANK
000098:    4047           13150                           TCF      RADAREAD
000099:
000100:    4050           52011                           DXCH     ARUPT                                 #  RUPT10 IS USED ONLY BY LANDING GUIDANCE
000101:    4051           34065                           CA       RUPT10BB
000102:    4052           56006                           XCH      BBANK
000103:    4053           12275                           TCF      PITFALL
000104:
000105:
000106:    4054  E3,1400                                  EBANK=   LST1                                  #  RESTART USES E0, E3
000107:    4054           12103        GOBB               BBCON    GOPROG
000108:
000109:    4055  E6,1464                                  EBANK=   PERROR
000110:    4055           02065 36106  T6ADR              2CADR    DOT6RUPT
000111:
000112:    4057  E3,1400                                  EBANK=   LST1
000113:    4057           02103        T3RPTBB            BBCON    T3RUPT
000114:
000115:    4060     0073                                  EBANK=   KEYTEMP1
000116:    4060           10100        KEYRPTBB           BBCON    KEYRUPT1
000117:
000118:    4061  E7,1404                                  EBANK=   AOTAZ
000119:    4061           16107        MKRUPTBB           BBCON    MARKRUPT
000120:
000121:    4062     4060               UPRPTBB            =        KEYRPTBB
000122:
000123:    4062     0340                                  EBANK=   DNTMBUFF
000124:    4062           12100        DWNRPTBB           BBCON    DODOWNTM
000125:
000126:    4063     0110                                  EBANK=   RADMODES
000127:    4063           52100        RDRPTBB            BBCON    RADAREAD
000128:
000129:    4064  E6,1414                                  EBANK=   M11
000130:    4064           14106        T4RPTBB            BBCON    T4RUPT
000131:
000132:    4065     1265                                  EBANK=   ELVIRA
000133:    4065           22102        RUPT10BB           BBCON    PITFALL
000134:

End of include-file INTERRUPT_LEAD_INS.agc.  Parent file is MAIN.agc


