
Source Code


000002:                                                                                                  ## Copyright:   Public domain.
000003:                                                                                                  ## Filename:    INTER-BANK_COMMUNICATION.agc
000004:                                                                                                  ## Purpose:     Part of the reconstructed source code for LMY99 Rev 0,
000005:                                                                                                  ##              otherwise known as Luminary Rev 99, the second release
000006:                                                                                                  ##              of the Apollo Guidance Computer (AGC) software for Apollo 11.
000007:                                                                                                  ##              It differs from LMY99 Rev 1 (the flown version) only in the
000008:                                                                                                  ##              placement of a single label. The corrections shown here have
000009:                                                                                                  ##              been verified to have the same bank checksums as AGC developer
000010:                                                                                                  ##              Allan Klumpp's copy of Luminary Rev 99, and so are believed
000011:                                                                                                  ##              to be accurate. This file is intended to be a faithful
000012:                                                                                                  ##              recreation, except that the code format has been changed to
000013:                                                                                                  ##              conform to the requirements of the yaYUL assembler rather than
000014:                                                                                                  ##              the original YUL assembler.
000015:                                                                                                  ##
000016:                                                                                                  ## Assembler:   yaYUL
000017:                                                                                                  ## Contact:     Ron Burkey <info@sandroid.org>.
000018:                                                                                                  ## Website:     www.ibiblio.org/apollo.
000019:                                                                                                  ## Pages:       998-1001
000020:                                                                                                  ## Mod history: 2009-05-24 RSB  Adapted from the corresponding
000021:                                                                                                  ##                              Luminary131 file, using page
000022:                                                                                                  ##                              images from Luminary 1A.
000023:                                                                                                  ##              2011-05-08 JL   Removed workaround.
000024:                                                                                                  ##              2016-12-17 RSB  Proofed text comments with octopus/ProoferComments
000025:                                                                                                  ##                              and corrected the errors found.
000026:                                                                                                  ##              2017-03-13 RSB  Comment-text fixes noted in proofing Luminary 116.
000027:                                                                                                  ##              2017-03-17 RSB  Comment-text fixes identified in diff'ing
000028:                                                                                                  ##                              Luminary 99 vs Comanche 55.
000029:                                                                                                  ##              2017-08-01 MAS  Created from LMY99 Rev 1.
000030:                                                                                                  ##              2021-05-30 ABS  ISWCALLL -> ISWCALL
000031:
000032:                                                                                                  ## This source code has been transcribed or otherwise adapted from
000033:                                                                                                  ## digitized images of a hardcopy from the MIT Museum.  The digitization
000034:                                                                                                  ## was performed by Paul Fjeld, and arranged for by Deborah Douglas of
000035:                                                                                                  ## the Museum.  Many thanks to both.  The images (with suitable reduction
000036:                                                                                                  ## in storage size and consequent reduction in image quality as well) are
000037:                                                                                                  ## available online at www.ibiblio.org/apollo.  If for some reason you
000038:                                                                                                  ## find that the images are illegible, contact me at info@sandroid.org
000039:                                                                                                  ## about getting access to the (much) higher-quality images which Paul
000040:                                                                                                  ## actually created.
000041:                                                                                                  ##
000042:                                                                                                  ## The code has been modified to match LMY99 Revision 0, otherwise
000043:                                                                                                  ## known as Luminary Revision 99, the Apollo 11 software release preceeding
000044:                                                                                                  ## the listing from which it was transcribed. It has been verified to
000045:                                                                                                  ## contain the same bank checksums as AGC developer Allan Klumpp's listing
000046:                                                                                                  ## of Luminary Revision 99 (for which we do not have scans).
000047:                                                                                                  ##
000048:                                                                                                  ## Notations on Allan Klumpp's listing read, in part:
000049:                                                                                                  ##
000050:                                                                                                  ##      ASSEMBLE REVISION 099 OF AGC PROGRAM LUMINARY BY NASA 2021112-51
000051:


000053:                                                                                                  #  THE FOLLOWING ROUTINE CAN BE USED TO CALL A SUBROUTINE IN ANOTHER BANK. IN THE BANKCALL VERSION, THE
000054:                                                                                                  #  CADR OF THE SUBROUTINE IMMEDIATELY FOLLOWS THE TC BANKCALL INSTRUCTION, WITH C(A) AND C(L) PRESERVED.
000055:
000056:    4616                                           BLOCK    02
000057:    4616                                           COUNT*   $$/BANK
000058:    4616           52134        BANKCALL           DXCH     BUF2                                  #  SAVE INCOMING A,L.
000059:    4617           50002                           INDEX    Q                                     #  PICK UP CADR.
000060:    4620           30000                           CA       0
000061:    4621           24002                           INCR     Q                                     #  SO WE RETURN TO THE LOC. AFTER THE CADR.
000062:
000063:                                                                                                  #  SWCALL IS  IDENTICAL TO BANKCALL, EXCEPT THAT THE CADR ARRIVES IN A.
000064:
000065:    4622           54001        SWCALL             TS       L
000066:    4623           22004                           LXCH     FBANK                                 #  SWITCH BANKS, SAVING RETURN.
000067:    4624           75012                           MASK     LOW10                                 #  GET SUB-ADDRESS OF CADR.
000068:    4625           56002                           XCH      Q                                     #  A,L NOW CONTAINS DP RETURN.
000069:    4626           52134                           DXCH     BUF2                                  #  RESTORING INPUTS IF THIS IS A BANKCALL.
000070:    4627           50002                           INDEX    Q
000071:    4630           02000                           TC       10000                                 #  SETTING Q TO SWRETURN.
000072:
000073:    4631           56134        SWRETURN           XCH      BUF2       +1                         #  COMES HERE TO RETURN TO CALLER. C(A,L)
000074:    4632           56004                           XCH      FBANK                                 #  ARE PRESERVED FOR RETURN.
000075:    4633           56134                           XCH      BUF2       +1
000076:    4634           00133                           TC       BUF2
000077:
000078:                                                                                                  #  THE FOLLOWING ROUTINE CAN BE USED AS A UNILATERAL JUMP WITH C(A,L) PRESERVED AND THE CADR IMMEDIATELY
000079:                                                                                                  #  FOLLOWING THE TC POSTJUMP INSTRUCTION.
000080:
000081:    4635           56002        POSTJUMP           XCH      Q                                     #  SAVE INCOMING C(A).
000082:    4636           50000                           INDEX    A                                     #  GET CADR.
000083:    4637           30000                           CA       0
000084:
000085:                                                                                                  #  BANKJUMP IS THE SAME AS POSTJUMP, EXCEPT THAT THE CADR ARRIVES IN A.
000086:
000087:    4640           54004        BANKJUMP           TS       FBANK
000088:    4641           75012                           MASK     LOW10
000089:    4642           56002                           XCH      Q                                     #  RESTORING INPUT C(A) IF THIS WAS A
000090:    4643           50002        Q+10000            INDEX    Q                                     #  POSTJUMP.
000091:    4644           12000        PRIO12             TCF      10000                                 #  PRIO12 = TCF  10000 = 12000
000092:


000094:                                                                                                  #  THE FOLLOWING ROUTINE GETS THE RETURN CADR SAVED BY SWCALL OR BANKCALL AND LEAVES IT IN A.
000095:
000096:    4645           35012        MAKECADR           CAF      LOW10
000097:    4646           70133                           MASK     BUF2
000098:    4647           60134                           AD       BUF2       +1
000099:    4650           00002                           TC       Q
000100:
000101:    4651           54135        SUPDACAL           TS       MPTEMP
000102:    4652           56004                           XCH      FBANK                                 #  SET FBANK FOR DATA.
000103:    4653           00006                           EXTEND
000104:    4654           04007                           ROR      SUPERBNK                              #  SAVE FBANK IN BITS 15-11, AND
000105:    4655           56135                           XCH      MPTEMP                                #  SUPERBANK IN BITS 7-5.
000106:    4656           75012                           MASK     LOW10
000107:    4657           56001                           XCH      L                                     #  SAVE REL. ADR. IN BANK, FETCH SUPERBITS.
000108:    4660           00004                           INHINT                                         #  BECAUSE RUPT DOES NOT SAVE SUPERBANK.
000109:    4661           00006                           EXTEND
000110:    4662           01007                           WRITE    SUPERBNK                              #  SET SUPERBANK FOR DATA.
000111:    4663           50001                           INDEX    L
000112:    4664           32000                           CA       10000                                 #  PINBALL (FIX MEM DISP) PREVENTS DCA HERE
000113:    4665           56135                           XCH      MPTEMP                                #  SAVE 1ST WD, FETCH OLD FBANK AND SBANK.
000114:    4666           00006                           EXTEND
000115:    4667           01007                           WRITE    SUPERBNK                              #  RESTORE SUPERBANK.
000116:    4670           00003                           RELINT
000117:    4671           54004                           TS       FBANK                                 #  RESTORE FBANK.
000118:    4672           30135                           CA       MPTEMP                                #  RECOVER FIRST WORD OF DATA.
000119:    4673           00002                           RETURN                                         #  24 WDS. DATACALL 516 MU, SUPDACAL 432 MU
000120:


000122:                                                                                                  #  THE FOLLOWING ROUTINES ARE IDENTICAL TO BANKCALL AND SWCALL EXCEPT THAT THEY ARE USED IN INTERRUPT.
000123:
000124:    4674           52073        IBNKCALL           DXCH     RUPTREG3                              #  USES RUPTREG3,4 FOR DP RETURN ADDRESS.
000125:    4675           50002                           INDEX    Q
000126:    4676           30000                           CAF      0
000127:    4677           24002                           INCR     Q
000128:
000129:    4700           54001        ISWCALL            TS       L
000130:    4701           22004                           LXCH     FBANK
000131:    4702           75012                           MASK     LOW10
000132:    4703           56002                           XCH      Q
000133:    4704           52073                           DXCH     RUPTREG3
000134:    4705           50002                           INDEX    Q
000135:    4706           02000                           TC       10000
000136:
000137:    4707           56073        ISWRETRN           XCH      RUPTREG4
000138:    4710           56004                           XCH      FBANK
000139:    4711           56073                           XCH      RUPTREG4
000140:    4712           00072                           TC       RUPTREG3
000141:
000142:                                                                                                  #  2. USPRCADR ACCESSES INTERPRETIVE CODING IN OTHER THAN THE USER'S FBANK.  THE CALLING SEQUENCE IS AS FOLLOWS:
000143:                                                                                                  #        L       TC      USPRCADR
000144:                                                                                                  #        L+1     CADR    INTPRETX        INTPRETX IS THE INTERPRETIVE CODING
000145:                                                                                                  #                                        RETURN IS TO L+2
000146:
000147:    4713           54164        USPRCADR           TS       LOC                                   #  SAVE A
000148:    4714           34744                           CA       BIT8
000149:    4715           54023                           TS       EDOP                                  #  EXIT INSTRUCTION TO EDOP
000150:    4716           30006                           CA       BBANK
000151:    4717           54165                           TS       BANKSET                               #  USER'S BBANK TO BANKSET
000152:    4720           50002                           INDEX    Q
000153:    4721           30000                           CA       0
000154:    4722           54004                           TS       FBANK                                 #  INTERPRETIVE BANK TO FBANK
000155:    4723           75012                           MASK     LOW10                                 #  YIELDS INTERPRETIVE RELATIVE ADDRESS
000156:    4724           56002                           XCH      Q                                     #  INTERPRETIVE ADDRESS TO Q, FETCHING L+1
000157:    4725           56164                           XCH      LOC                                   #  L+1 TO LOC, RETRIEVING ORIGINAL A
000158:    4726           14643                           TCF      Q+10000
000159:


000161:                                                                                                  #  THERE ARE FOUR POSSIBLE SETTINGS FOR CHANNEL 07.  (CHANNEL 07 CONTAINS THE SUPERBANK SETTING.)
000162:
000163:                                                                                                  #                                        PSEUDO-FIXED      OCTAL PSEUDO
000164:                                                                                                  #  SUPERBANK     SETTING S-REG. VALUE    BANK NUMBERS      ADDRESSES
000165:                                                                                                  #  ----------    ------- ------------     ------------      ------------
000166:                                                                                                  #  SUPERBANK 3     0XX    2000 - 3777       30 - 37       70000 - 107777         (WHERE XX CAN BE ANYTHING AND
000167:                                                                                                  #                                                                                WILL USUALLY BE SEEN AS 11)
000168:                                                                                                  #  SUPERBANK 4     100    2000 - 3777       40 - 47      110000 - 127777         (AS FAR AS IT CAN BE SEEN,
000169:                                                                                                  #                                                                                ONLY BANKS 40-43 WILL EVER BE
000170:                                                                                                  #                                                                                AND ARE PRESENTLY AVAILABLE)
000171:                                                                                                  #  SUPERBANK 5     101    2000 - 3777       50 - 57      130000 - 147777         (PRESENTLY NOT AVAILABLE TO
000172:                                                                                                  #                                                                                THE USER)
000173:                                                                                                  #  SUPERBANK 6     110    2000 - 3777       60 - 67      150000 - 167777         (PRESENTLY NOT AVAILABLE TO
000174:                                                                                                  #                                                                                THE USER)
000175:                                                                                                  #  *** THIS ROUTINE MAY BE CALLED BY ANY PROGRAM LOCATED IN BANKS 00 - 27.  I.E., NO PROGRAM LIVING IN ANY
000176:                                                                                                  #  SUPERBANK SHOULD USE SUPERSW. ***
000177:
000178:                                                                                                  #  SUPERSW MAY BE CALLED IN THIS FASHION:
000179:                                                                                                  #        CAF     ABBCON          WHERE  --  ABBCON   BBCON  SOMETHIN --
000180:                                                                                                  #        TCR     SUPERSW         (THE SUPERBNK BITS ARE IN THE BBCON)
000181:                                                                                                  #        ...       ...
000182:                                                                                                  #         .         .
000183:                                                                                                  #         .         .
000184:                                                                                                  #  OR IN THIS FASHION:
000185:                                                                                                  #        CAF     SUPERSET        WHERE SUPERSET IS ONE OF THE FOUR AVAILABLE
000186:                                                                                                  #        TCR     SUPERSW         SUPERBANK BIT CONSTANTS:
000187:                                                                                                  #        ...       ...                                   SUPER011 OCTAL  60
000188:                                                                                                  #         .         .                                    SUPER100 OCTAL 100
000189:                                                                                                  #         .         .                                    SUPER101 OCTAL 120
000190:                                                                                                  #                                                        SUPER110 OCTAL 140
000191:
000192:    4727           00006        SUPERSW            EXTEND
000193:    4730           01007                           WRITE    SUPERBNK                              #  WRITE BITS 7-6-5 OF THE ACCUMULATOR INTO
000194:                                                                                                  #  CHANNEL 07
000195:    4731           00002                           TC       Q                                     #  TC TO INSTRUCTION FOLLOWING
000196:                                                                                                  #        TC SUPERSW
000197:

End of include-file INTER-BANK_COMMUNICATION.agc.  Parent file is MAIN.agc


