
Source Code


000002:                                                                                                  ## Copyright:   Public domain.
000003:                                                                                                  ## Filename:    KALCMANU_STEERING.agc
000004:                                                                                                  ## Purpose:     Part of the reconstructed source code for LMY99 Rev 0,
000005:                                                                                                  ##              otherwise known as Luminary Rev 99, the third release
000006:                                                                                                  ##              of the Apollo Guidance Computer (AGC) software for Apollo 11.
000007:                                                                                                  ##              It differs from LMY99 Rev 1 (the flown version) only in the
000008:                                                                                                  ##              placement of a single label. The corrections shown here have
000009:                                                                                                  ##              been verified to have the same bank checksums as AGC developer
000010:                                                                                                  ##              Allan Klumpp's copy of Luminary Rev 99, and so are believed
000011:                                                                                                  ##              to be accurate. This file is intended to be a faithful
000012:                                                                                                  ##              recreation, except that the code format has been changed to
000013:                                                                                                  ##              conform to the requirements of the yaYUL assembler rather than
000014:                                                                                                  ##              the original YUL assembler.
000015:                                                                                                  ##
000016:                                                                                                  ## Assembler:   yaYUL
000017:                                                                                                  ## Contact:     Ron Burkey <info@sandroid.org>.
000018:                                                                                                  ## Website:     www.ibiblio.org/apollo.
000019:                                                                                                  ## Pages:       365-369
000020:                                                                                                  ## Mod history: 2009-05-17 RSB  Adapted from the corresponding
000021:                                                                                                  ##                              Luminary131 file, using page
000022:                                                                                                  ##                              images from Luminary 1A.
000023:                                                                                                  ##              2011-01-06 JL   Added missing comment characters.
000024:                                                                                                  ##              2016-12-14 RSB  Proofed text comments with octopus/ProoferComments
000025:                                                                                                  ##                              and corrected the errors found.
000026:                                                                                                  ##              2017-03-07 RSB  Removed yaYUL workaround that no longer
000027:                                                                                                  ##                              seems to be needed.
000028:                                                                                                  ##              2017-03-17 RSB  Comment-text fixes identified in diff'ing
000029:                                                                                                  ##                              Luminary 99 vs Comanche 55.
000030:                                                                                                  ##              2017-08-01 MAS  Created from LMY99 Rev 1.
000031:
000032:                                                                                                  ## This source code has been transcribed or otherwise adapted from
000033:                                                                                                  ## digitized images of a hardcopy from the MIT Museum.  The digitization
000034:                                                                                                  ## was performed by Paul Fjeld, and arranged for by Deborah Douglas of
000035:                                                                                                  ## the Museum.  Many thanks to both.  The images (with suitable reduction
000036:                                                                                                  ## in storage size and consequent reduction in image quality as well) are
000037:                                                                                                  ## available online at www.ibiblio.org/apollo.  If for some reason you
000038:                                                                                                  ## find that the images are illegible, contact me at info@sandroid.org
000039:                                                                                                  ## about getting access to the (much) higher-quality images which Paul
000040:                                                                                                  ## actually created.
000041:                                                                                                  ##
000042:                                                                                                  ## The code has been modified to match LMY99 Revision 0, otherwise
000043:                                                                                                  ## known as Luminary Revision 99, the Apollo 11 software release preceeding
000044:                                                                                                  ## the listing from which it was transcribed. It has been verified to
000045:                                                                                                  ## contain the same bank checksums as AGC developer Allan Klumpp's listing
000046:                                                                                                  ## of Luminary Revision 99 (for which we do not have scans).
000047:                                                                                                  ##
000048:                                                                                                  ## Notations on Allan Klumpp's listing read, in part:
000049:                                                                                                  ##
000050:                                                                                                  ##      ASSEMBLE REVISION 099 OF AGC PROGRAM LUMINARY BY NASA 2021112-51
000051:


000053:                                                                                                  #  GENERATION OF STEERING COMMANDS FOR DIGITAL AUTOPILOT FREE FALL MANEUVERS
000054:
000055:                                                                                                  #  NEW COMMANDS WILL BE GENERATED EVERY ONE SECOND DURING THE MANEUVER
000056:
000057: 22,3003  E6,1707                                  EBANK=   TTEMP
000058:
000059: 22,3003           04616        NEWDELHI           TC       BANKCALL                              #  CHECK FOR AUTO STABILIZATION
000060: 22,3004           54262                           CADR     ISITAUTO                              #  ONLY
000061: 22,3005           10000                           CCS      A
000062: 22,3006           12730                           TCF      NOGO       -2
000063: 22,3007           06037        NEWANGL            TC       INTPRET
000064: 22,3010           75160                           AXC,1    AXC,2
000065: 22,3011           03246                                    MIS                                   #  COMPUTE THE NEW MATRIX FROM S/C TO
000066: 22,3012           02230                                    KEL                                   #  STABLE MEMBER AXES
000067: 22,3013           77624                           CALL
000068: 22,3014           44312                                    MXM3
000069: 22,3015           45575                           VLOAD    STADR
000070: 22,3016           50514                           STOVL    MIS        +12D                       #  CALCULATE NEW DESIRED CDU ANGLES
000071: 22,3017           77626                           STADR
000072: 22,3020           50522                           STOVL    MIS        +6D
000073: 22,3021           77626                           STADR
000074: 22,3022           74530                           STORE    MIS
000075: 22,3023           45160                           AXC,1    CALL
000076: 22,3024           03246                                    MIS
000077: 22,3025           44654                                    DCMTOCDU                              #  PICK UP THE NEW CDU ANGLES FROM MATRIX
000078: 22,3026           77634                           RTB
000079: 22,3027           21620                                    V1STO2S
000080: 22,3030           03304                           STORE    NCDU                                  #  NEW CDU ANGLES
000081: 22,3031           77414                           BONCLR   EXIT
000082: 22,3032           01215                                    CALCMAN2
000083: 22,3033           45122                                    MANUSTAT                              #  TO START MANEUVER
000084: 22,3034           34752                           CAF      TWO                                   #        +0 OTHERWISE
000085: 22,3035           55272        INCRDCDU           TS       SPNDX
000086: 22,3036           51272                           INDEX    SPNDX
000087: 22,3037           31676                           CA       BCDU                                  #  INITIAL CDU ANGLES
000088: 22,3040           00006                           EXTEND                                         #  OR PREVIOUS DESIRED CDU ANGLES
000089: 22,3041           51272                           INDEX    SPNDX
000090: 22,3042           21703                           MSU      NCDU
000091: 22,3043           00006                           EXTEND
000092: 22,2000                                           SETLOC   KALCMON1
000093: 22,2000                                           BANK
000094:
000095: 22,3044           73121                           MP       DT/TAU
000096: 22,3045           10000                           CCS      A                                     #  CONVERT TO 2S COMPLEMENT
000097: 22,3046           64753                           AD       ONE
000098: 22,3047           13051                           TCF      +2
000099: 22,3050           40000                           COM
000100: 22,3051           51272                           INDEX    SPNDX
000101: 22,3052           55640                           TS       DELDCDU                               #  ANGLE INCREMENTS TO BE ADDED TO
000102: 22,3053           51272                           INDEX    SPNDX                                 #  CDUXD, CDUYD, CDUZD EVERY TENTH SECOND


000104: 22,3054           31703                           CA       NCDU                                  #  BY LEM DAP
000105: 22,3055           51272                           INDEX    SPNDX
000106: 22,3056           57676                           XCH      BCDU
000107: 22,3057           51272                           INDEX    SPNDX
000108: 22,3060           55635                           TS       CDUXD
000109: 22,3061           11272                           CCS      SPNDX
000110: 22,3062           13035                           TCF      INCRDCDU                              #  LOOP FOR THREE AXES
000111:
000112: 22,3063           00003                           RELINT
000113:
000114:                                                                                                  #  COMPARE PRESENT TIME WITH TIME TO TERMINATE MANEUVER
000115:
000116: 22,3064           03075        TMANUCHK           TC       TIMECHK
000117: 22,3065           13170                           TCF      CONTMANU
000118: 22,3066           34753                           CAF      ONE
000119: 22,3067           00004        MANUSTAL           INHINT                                         #  END MAJOR PART OF MANEUVER WITHIN 1 SEC
000120: 22,3070           05203                           TC       WAITLIST                              #  UNDER WAITLIST CALL TO MANUSTOP
000121: 22,3071  E6,1707                                  EBANK=   TTEMP
000122: 22,3071           03213 44066                     2CADR    MANUSTOP
000123:
000124: 22,3073           00003                           RELINT
000125: 22,3074           15155                           TCF      ENDOFJOB
000126:
000127: 22,3075           00006        TIMECHK            EXTEND
000128: 22,3076           40025                           DCS      TIME2
000129: 22,3077           53710                           DXCH     TTEMP
000130: 22,3100           00006                           EXTEND
000131: 22,3101           31734                           DCA      TM
000132: 22,3102           21710                           DAS      TTEMP
000133: 22,3103           11707                           CCS      TTEMP
000134: 22,3104           00002                           TC       Q
000135: 22,3105           13107                           TCF      +2
000136: 22,3106           13117                           TCF      2NDRETRN
000137: 22,3107           11710                           CCS      TTEMP      +1
000138: 22,3110           00002                           TC       Q
000139: 22,3111           13113                           TCF      MANUOFF
000140: 22,3112           40000                           COM
000141: 22,3113           63166        MANUOFF            AD       ONESEK     +1
000142: 22,3114           00006                           EXTEND
000143: 22,3115           63117                           BZMF     2NDRETRN
000144: 22,3116           24002                           INCR     Q
000145: 22,3117           24002        2NDRETRN           INCR     Q
000146: 22,3120           00002                           TC       Q
000147:
000148: 22,3121           03146        DT/TAU             DEC      .1
000149:
000150: 22,3122           77776        MANUSTAT           EXIT                                           #  INITIALIZATION ROUTINE
000151: 22,3123           00006                           EXTEND                                         #  FOR AUTOMATIC MANEUVERS
000152: 22,3124           30025                           DCA      TIME2


000154: 22,3125           21734                           DAS      TM                                    #  TM+T0         MANEUVER COMPLETION TIME
000155: 22,3126           00006                           EXTEND
000156: 22,3127           43166                           DCS      ONESEK
000157: 22,3130           21734                           DAS      TM                                    #  (TM+T0)-1
000158: 22,3131           00004                           INHINT
000159: 22,3132           34752                           CAF      TWO
000160: 22,3133           55701        RATEBIAS           TS       KSPNDX
000161: 22,3134           60000                           DOUBLE
000162: 22,3135           55702                           TS       KDPNDX
000163: 22,3136           50000                           INDEX    A
000164: 22,3137           31725                           CA       BRATE
000165: 22,3140           51701                           INDEX    KSPNDX                                #  STORE MANEUVER RATE IN
000166: 22,3141           55643                           TS       OMEGAPD                               #  OMEGAPD, OMEGAQD, OMEGARD
000167: 22,3142           00006                           EXTEND
000168: 22,3143           63145                           BZMF     +2                                    #  COMPUTE ATTITUDE ERROR
000169: 22,3144           40000                           COM                                            #  OFFSET = (WX)ABS(WX)/2AJX
000170: 22,3145           00006                           EXTEND                                         #  WHERE AJX= 2-JET ACCELERATION
000171: 22,3146           73167                           MP       BIASCALE                              #  = -1/16
000172: 22,3147           00006                           EXTEND
000173: 22,3150           51702                           INDEX    KDPNDX
000174: 22,3151           71725                           MP       BRATE
000175: 22,3152           00006                           EXTEND
000176: 22,3153           51701                           INDEX    KSPNDX
000177: 22,3154           11530                           DV       1JACC                                 #  = AJX         $ 90 DEG/SEC-SEC
000178: 22,3155           51701                           INDEX    KSPNDX
000179: 22,3156           55277                           TS       DELPEROR                              #                $ 180 DEG
000180: 22,3157           11701                           CCS      KSPNDX
000181: 22,3160           13133                           TCF      RATEBIAS
000182:
000183: 22,3161           30025                           CA       TIME1
000184: 22,3162           63166                           AD       ONESEK     +1
000185: 22,3163           57706                           XCH      NEXTIME
000186: 22,3164           13034                           TCF      INCRDCDU   -1
000187:
000188: 22,3165           00000        ONESEK             DEC      0          B-14
000189: 22,3166           00144                           DEC      100        B-14
000190:
000191: 22,3167           75777        BIASCALE           OCT      75777                                 #  = -1/16
000192:
000193: 22,3170           40025        CONTMANU           CS       TIME1                                 #  RESET FOR NEXT DCDU UPDATE
000194: 22,3171           61706                           AD       NEXTIME
000195: 22,3172           10000                           CCS      A
000196: 22,3173           64753                           AD       ONE
000197: 22,3174           13177                           TCF      MANUCALL
000198: 22,3175           64735                           AD       NEGMAX
000199: 22,3176           40000                           COM
000200: 22,3177           00004        MANUCALL           INHINT                                         #  CALL FOR NEXT UPDATE VIA WAITLIST
000201: 22,3200           05203                           TC       WAITLIST
000202: 22,3201  E6,1707                                  EBANK=   TTEMP
000203: 22,3201           03206 44066                     2CADR    UPDTCALL


000205: 22,3203           33166                           CAF      ONESEK     +1                         #  INCREMENT TIME FOR NEXT UPDATE
000206: 22,3204           27706                           ADS      NEXTIME
000207: 22,3205           15155                           TCF      ENDOFJOB
000208:
000209: 22,3206           37714        UPDTCALL           CAF      PRIO26                                #  SATELLITE PROGRAM TO CALL FOR UPDATE
000210: 22,3207           05105                           TC       FINDVAC                               #  OF STEERING COMMANDS
000211: 22,3210  E6,1707                                  EBANK=   TTEMP
000212: 22,3210           03003 44066                     2CADR    NEWDELHI
000213:
000214: 22,3212           05261                           TC       TASKOVER
000215:


000217:                                                                                                  #  ROUTINE FOR TERMINATING AUTOMATIC MANEUVERS
000218:
000219: 22,3213           34755        MANUSTOP           CAF      ZERO                                  #  ZERO MANEUVER RATES
000220: 22,3214           55642                           TS       DELDCDU2
000221: 22,3215           55645                           TS       OMEGARD
000222: 22,3216           55301                           TS       DELREROR
000223: 22,3217           55641                           TS       DELDCDU1
000224: 22,3220           55644                           TS       OMEGAQD
000225: 22,3221           55300                           TS       DELQEROR
000226: 22,3222           30323                           CA       CPSI                                  #  SET DESIRED GIMBAL ANGLES TO
000227: 22,3223           55637                           TS       CDUZD                                 #  DESIRED FINAL GIMBAL ANGLES
000228: 22,3224           30322                           CA       CTHETA
000229: 22,3225           55636                           TS       CDUYD
000230: 22,3226           30321        ENDROLL            CA       CPHI                                  #  NO FINAL YAW
000231: 22,3227           55635                           TS       CDUXD
000232: 22,3230           34755                           CAF      ZERO
000233: 22,3231           55643                           TS       OMEGAPD                               #  I.E. MANEUVER DID NOT GO THRU
000234: 22,3232           55640                           TS       DELDCDU                               #  GIMBAL LOCK ORIGINALLY
000235: 22,3233           55277                           TS       DELPEROR
000236: 22,3234           31311        GOODMANU           CA       ATTPRIO                               #  RESTORE USERS PRIO
000237: 22,3235           54063                           TS       NEWPRIO
000238:
000239: 22,3236           34755                           CA       ZERO                                  #  ZERO ATTCADR
000240: 22,3237           53310                           DXCH     ATTCADR
000241:
000242: 22,3240           05116                           TC       SPVAC                                 #  RETURN TO USER
000243:
000244: 22,3241           05261                           TC       TASKOVER
000245:
000246:

End of include-file KALCMANU_STEERING.agc.  Parent file is MAIN.agc


