
Source Code


000002:                                                                                                  ## Copyright:   Public domain.
000003:                                                                                                  ## Filename:    KALMAN_FILTER.agc
000004:                                                                                                  ## Purpose:     Part of the reconstructed source code for LMY99 Rev 0,
000005:                                                                                                  ##              otherwise known as Luminary Rev 99, the second release
000006:                                                                                                  ##              of the Apollo Guidance Computer (AGC) software for Apollo 11.
000007:                                                                                                  ##              It differs from LMY99 Rev 1 (the flown version) only in the
000008:                                                                                                  ##              placement of a single label. The corrections shown here have
000009:                                                                                                  ##              been verified to have the same bank checksums as AGC developer
000010:                                                                                                  ##              Allan Klumpp's copy of Luminary Rev 99, and so are believed
000011:                                                                                                  ##              to be accurate. This file is intended to be a faithful
000012:                                                                                                  ##              recreation, except that the code format has been changed to
000013:                                                                                                  ##              conform to the requirements of the yaYUL assembler rather than
000014:                                                                                                  ##              the original YUL assembler.
000015:                                                                                                  ##
000016:                                                                                                  ## Assembler:   yaYUL
000017:                                                                                                  ## Contact:     Ron Burkey <info@sandroid.org>.
000018:                                                                                                  ## Website:     www.ibiblio.org/apollo.
000019:                                                                                                  ## Pages:       1470-1471
000020:                                                                                                  ## Mod history: 2009-05-27 RSB  Adapted from the corresponding
000021:                                                                                                  ##                              Luminary131 file, using page
000022:                                                                                                  ##                              images from Luminary 1A.
000023:                                                                                                  ##              2016-12-18 RSB  Proofed text comments with octopus/ProoferComments
000024:                                                                                                  ##                              but no errors found.
000025:                                                                                                  ##              2017-08-01 MAS  Created from LMY99 Rev 1.
000026:
000027:                                                                                                  ## This source code has been transcribed or otherwise adapted from
000028:                                                                                                  ## digitized images of a hardcopy from the MIT Museum.  The digitization
000029:                                                                                                  ## was performed by Paul Fjeld, and arranged for by Deborah Douglas of
000030:                                                                                                  ## the Museum.  Many thanks to both.  The images (with suitable reduction
000031:                                                                                                  ## in storage size and consequent reduction in image quality as well) are
000032:                                                                                                  ## available online at www.ibiblio.org/apollo.  If for some reason you
000033:                                                                                                  ## find that the images are illegible, contact me at info@sandroid.org
000034:                                                                                                  ## about getting access to the (much) higher-quality images which Paul
000035:                                                                                                  ## actually created.
000036:                                                                                                  ##
000037:                                                                                                  ## The code has been modified to match LMY99 Revision 0, otherwise
000038:                                                                                                  ## known as Luminary Revision 99, the Apollo 11 software release preceeding
000039:                                                                                                  ## the listing from which it was transcribed. It has been verified to
000040:                                                                                                  ## contain the same bank checksums as AGC developer Allan Klumpp's listing
000041:                                                                                                  ## of Luminary Revision 99 (for which we do not have scans).
000042:                                                                                                  ##
000043:                                                                                                  ## Notations on Allan Klumpp's listing read, in part:
000044:                                                                                                  ##
000045:                                                                                                  ##      ASSEMBLE REVISION 099 OF AGC PROGRAM LUMINARY BY NASA 2021112-51
000046:


000048: 17,3744  E6,1522                                  EBANK=   NO.UJETS
000049: 16,3641                                           BANK     16
000050: 16,2000                                           SETLOC   DAPS1
000051: 16,2000                                           BANK
000052:
000053: 16,3641                                           COUNT*   $$/DAP
000054:
000055: 16,3641           34752        RATELOOP           CA       TWO
000056: 16,3642           55744                           TS       DAPTEMP6
000057: 16,3643           60000                           DOUBLE
000058: 16,3644           54002                           TS       Q
000059: 16,3645           51744                           INDEX    DAPTEMP6
000060: 16,3646           11524                           CCS      TJP
000061: 16,3647           13651                           TCF      +2
000062: 16,3650           13670                           TCF      LOOPRATE
000063: 16,3651           63731                           AD       -100MST6
000064: 16,3652           00006                           EXTEND
000065: 16,3653           63707                           BZMF     SMALLTJU
000066: 16,3654           51744                           INDEX    DAPTEMP6
000067: 16,3655           11524                           CCS      TJP
000068: 16,3656           33731                           CA       -100MST6
000069: 16,3657           13661                           TCF      +2
000070: 16,3660           43731                           CS       -100MST6
000071: 16,3661           51744                           INDEX    DAPTEMP6
000072: 16,3662           27524                           ADS      TJP
000073: 16,3663           51744                           INDEX    DAPTEMP6
000074: 16,3664           11524                           CCS      TJP
000075: 16,3665           43615                           CS       -100MS                                #  0.1 AT 1
000076: 16,3666           13670                           TCF      +2
000077: 16,3667           33615                           CA       -100MS
000078: 16,3670           00006        LOOPRATE           EXTEND
000079: 16,3671           51744                           INDEX    DAPTEMP6
000080: 16,3672           71521                           MP       NO.PJETS
000081: 16,3673           30001                           CA       L
000082: 16,3674           51744                           INDEX    DAPTEMP6
000083: 16,3675           55737                           TS       DAPTEMP1                              #  SIGNED TORQUE AT 1 JET-SEC FOR FILTER
000084: 16,3676           00006                           EXTEND
000085: 16,3677           74742                           MP       BIT10                                 #  RESCALE TO 32; ONE BIT ABOUT 2 JET-MSEC
000086: 16,3700           00006                           EXTEND
000087: 16,3701           63732                           BZMF     NEGTORK
000088: 16,3702           50002        STORTORK           INDEX    Q                                     #  INCREMENT DOWNLIST REGISTER.
000089: 16,3703           27513                           ADS      DOWNTORK                              #        NOTE:  NOT INITIALIZED; OVERFLOWS.
000090:
000091: 16,3704           11744                           CCS      DAPTEMP6
000092: 16,3705           13642                           TCF      RATELOOP   +1
000093: 16,3706           13716                           TCF      ROTORQUE
000094: 16,3707           34755        SMALLTJU           CA       ZERO
000095: 16,3710           51744                           INDEX    DAPTEMP6
000096: 16,3711           57524                           XCH      TJP
000097: 16,3712           00006                           EXTEND


000099: 16,3713           74760                           MP       ELEVEN                                #  10.24 PLUS
000100: 16,3714           30001                           CA       L
000101: 16,3715           13670                           TCF      LOOPRATE
000102: 16,3716           31740        ROTORQUE           CA       DAPTEMP2
000103: 16,3717           61741                           AD       DAPTEMP3
000104: 16,3720           00006                           EXTEND
000105: 16,3721           71532                           MP       1JACCR
000106: 16,3722           55747                           TS       JETRATER
000107: 16,3723           41741                           CS       DAPTEMP3
000108: 16,3724           61740                           AD       DAPTEMP2
000109: 16,3725           00006                           EXTEND
000110: 16,3726           71531                           MP       1JACCQ
000111: 16,3727           55746                           TS       JETRATEQ
000112: 16,3730           12316                           TCF      BACKP
000113: 16,3731           77537        -100MST6           DEC      -160       B-14
000114:
000115: 16,3732           40000        NEGTORK            COM
000116: 16,3733           24002                           INCR     Q
000117: 16,3734           13702                           TCF      STORTORK
000118:
000119:

End of include-file KALMAN_FILTER.agc.  Parent file is MAIN.agc


