
Source Code


000002:                                                                                                  ## Copyright:   Public domain.
000003:                                                                                                  ## Filename:    KEYRUPT,_UPRUPT.agc
000004:                                                                                                  ## Purpose:     Part of the reconstructed source code for LMY99 Rev 0,
000005:                                                                                                  ##              otherwise known as Luminary Rev 99, the second release
000006:                                                                                                  ##              of the Apollo Guidance Computer (AGC) software for Apollo 11.
000007:                                                                                                  ##              It differs from LMY99 Rev 1 (the flown version) only in the
000008:                                                                                                  ##              placement of a single label. The corrections shown here have
000009:                                                                                                  ##              been verified to have the same bank checksums as AGC developer
000010:                                                                                                  ##              Allan Klumpp's copy of Luminary Rev 99, and so are believed
000011:                                                                                                  ##              to be accurate. This file is intended to be a faithful
000012:                                                                                                  ##              recreation, except that the code format has been changed to
000013:                                                                                                  ##              conform to the requirements of the yaYUL assembler rather than
000014:                                                                                                  ##              the original YUL assembler.
000015:                                                                                                  ##
000016:                                                                                                  ## Assembler:   yaYUL
000017:                                                                                                  ## Contact:     Ron Burkey <info@sandroid.org>.
000018:                                                                                                  ## Website:     www.ibiblio.org/apollo.
000019:                                                                                                  ## Pages:       1338-1340
000020:                                                                                                  ## Mod history: 2009-05-27 RSB  Adapted from the corresponding
000021:                                                                                                  ##                              Luminary131 file, using page
000022:                                                                                                  ##                              images from Luminary 1A.
000023:                                                                                                  ##              2016-12-18 RSB  Proofed text comments with octopus/ProoferComments
000024:                                                                                                  ##                              and corrected the errors found.
000025:                                                                                                  ##              2017-08-01 MAS  Created from LMY99 Rev 1.
000026:
000027:                                                                                                  ## This source code has been transcribed or otherwise adapted from
000028:                                                                                                  ## digitized images of a hardcopy from the MIT Museum.  The digitization
000029:                                                                                                  ## was performed by Paul Fjeld, and arranged for by Deborah Douglas of
000030:                                                                                                  ## the Museum.  Many thanks to both.  The images (with suitable reduction
000031:                                                                                                  ## in storage size and consequent reduction in image quality as well) are
000032:                                                                                                  ## available online at www.ibiblio.org/apollo.  If for some reason you
000033:                                                                                                  ## find that the images are illegible, contact me at info@sandroid.org
000034:                                                                                                  ## about getting access to the (much) higher-quality images which Paul
000035:                                                                                                  ## actually created.
000036:                                                                                                  ##
000037:                                                                                                  ## The code has been modified to match LMY99 Revision 0, otherwise
000038:                                                                                                  ## known as Luminary Revision 99, the Apollo 11 software release preceeding
000039:                                                                                                  ## the listing from which it was transcribed. It has been verified to
000040:                                                                                                  ## contain the same bank checksums as AGC developer Allan Klumpp's listing
000041:                                                                                                  ## of Luminary Revision 99 (for which we do not have scans).
000042:                                                                                                  ##
000043:                                                                                                  ## Notations on Allan Klumpp's listing read, in part:
000044:                                                                                                  ##
000045:                                                                                                  ##      ASSEMBLE REVISION 099 OF AGC PROGRAM LUMINARY BY NASA 2021112-51
000046:


000048: 14,3774                                           BANK     14
000049: 04,2000                                           SETLOC   KEYRUPT
000050: 04,2000                                           BANK
000051: 04,3274                                           COUNT*   $$/KEYUP
000052:
000053: 04,3274           54016        KEYRUPT1           TS       BANKRUPT
000054: 04,3275           56002                           XCH      Q
000055: 04,3276           54012                           TS       QRUPT
000056: 04,3277           04400                           TC       LODSAMPT                              #  TIME IS SNATCHED IN RUPT FOR NOUN 65.
000057: 04,3300           34346                           CAF      LOW5
000058: 04,3301           00006                           EXTEND
000059: 04,3302           02015                           RAND     MNKEYIN                               #  CHECK IF KEYS 5M-1M ON
000060: 04,3303           54073        KEYCOM             TS       RUPTREG4
000061: 04,3304           40101                           CS       FLAGWRD5
000062: 04,3305           74735                           MASK     DSKYFBIT
000063: 04,3306           26101                           ADS      FLAGWRD5
000064:
000065: 04,3307           34355        ACCEPTUP           CAF      CHRPRIO                               #  (NOTE: RUPTREG4 = KEYTEMP1)
000066: 04,3310           05072                           TC       NOVAC
000067: 04,3311     0777                                  EBANK=   DSPCOUNT
000068: 04,3311           02077 60101                     2CADR    CHARIN
000069:
000070: 04,3313           30073                           CA       RUPTREG4
000071: 04,3314           50064                           INDEX    LOCCTR
000072: 04,3315           54154                           TS       MPAC                                  #  LEAVE 5 BIT KEY CDE IN MPAC FOR CHARIN
000073: 04,3316           05270                           TC       RESUME
000074:


000076:                                                                                                  #  UPRUPT PROGRAM
000077:
000078: 04,3317           54016        UPRUPT             TS       BANKRUPT
000079: 04,3320           56002                           XCH      Q
000080: 04,3321           54012                           TS       QRUPT
000081: 04,3322           04400                           TC       LODSAMPT                              #  TIME IS SNATCHED IN RUPT FOR NOUN 65.
000082: 04,3323           34755                           CAF      ZERO
000083: 04,3324           56045                           XCH      INLINK
000084: 04,3325           54073                           TS       KEYTEMP1
000085: 04,3326           34751                           CAF      BIT3                                  #  TURN ON UPACT LIGHT
000086: 04,3327           00006                           EXTEND                                         #  (BIT 3 OF CHANNEL 11)
000087: 04,3330           05011                           WOR      DSALMOUT
000088: 04,3331           34346        UPRPT1             CAF      LOW5                                  #  TEST FOR TRIPLE CHAR REDUNDANCY
000089: 04,3332           70073                           MASK     KEYTEMP1                              #  LOW5 OF WORD
000090: 04,3333           56073                           XCH      KEYTEMP1                              #  LOW5 INTO KEYTEMP1
000091: 04,3334           00006                           EXTEND
000092: 04,3335           74742                           MP       BIT10                                 #  SHIFT RIGHT 5
000093: 04,3336           54734                           TS       KEYTEMP2
000094: 04,3337           74346                           MASK     LOW5                                  #  MID 5
000095: 04,3340           63374                           AD       HI10
000096: 04,3341           03371                           TC       UPTEST
000097: 04,3342           34742                           CAF      BIT10
000098: 04,3343           00006                           EXTEND
000099: 04,3344           70734                           MP       KEYTEMP2                              #  SHIFT RIGHT 5
000100: 04,3345           74346                           MASK     LOW5                                  #  HIGH 5
000101: 04,3346           40000                           COM
000102: 04,3347           03371                           TC       UPTEST
000103:
000104: 04,3350           43377        UPCK               CS       ELRCODE                               #  CODE IS GOOD.  IF CODE = 'ERROR RESET',
000105: 04,3351           60073                           AD       KEYTEMP1                              #  CLEAR UPLOCKFL (SET BIT4 OF FLAGWRD7 = 0)
000106: 04,3352           00006                           EXTEND                                         #  IF CODE DOES NOT = 'ERROR RESET', ACCEPT
000107: 04,3353           13361                           BZF      CLUPLOCK                              #  CODE ONLY IF UPLOCKFL IS CLEAR (=0).
000108:
000109: 04,3354           34750                           CAF      UPLOCBIT                              #  TEST UPLOCKFL FOR 0 OR 1
000110: 04,3355           70103                           MASK     FLAGWRD7
000111: 04,3356           10000                           CCS      A
000112: 04,3357           05270                           TC       RESUME                                #  UPLOCKFL = 1
000113: 04,3360           03307                           TC       ACCEPTUP                              #  UPLOCKFL = 0
000114:
000115: 04,3361           44750        CLUPLOCK           CS       UPLOCBIT                              #  CLEAR UPLOCKFL (I.E., SET BIT 4 OF )
000116: 04,3362           70103                           MASK     FLAGWRD7                              #  FLAGWRD7 = 0)
000117: 04,3363           54103                           TS       FLAGWRD7
000118: 04,3364           03307                           TC       ACCEPTUP
000119:
000120:                                                                                                  #  CODE IS BAD
000121: 04,3365           40103        TMFAIL2            CS       FLAGWRD7                              #  LOCK OUT FURTHER UPLINK ACTIVITY
000122: 04,3366           74750                           MASK     UPLOCBIT                              #  (BY SETTING UPLOCKFL = 1) UNTIL
000123: 04,3367           26103                           ADS      FLAGWRD7                              #  'ERROR RESET' IS SENT VIA UPLINK.
000124: 04,3370           05270                           TC       RESUME
000125: 04,3371           60073        UPTEST             AD       KEYTEMP1


000127: 04,3372           10000                           CCS      A
000128: 04,3373           03365                           TC       TMFAIL2
000129: 04,3374           77740        HI10               OCT      77740
000130: 04,3375           03365                           TC       TMFAIL2
000131: 04,3376           00002                           TC       Q
000132:
000133: 04,3377           00022        ELRCODE            OCT      22
000134:
000135:                                                                                                  #  'UPLINK ACTIVITY LIGHT' IS TURNED OFF BY .....
000136:                                                                                                  #        1.      VBRELDSP
000137:                                                                                                  #        2.      ERROR RESET
000138:                                                                                                  #        3.      UPDATE PROGRAM (P27) ENTERED BY V70,V71,V72, AND V73.
000139:                                                                                                  #                                     -
000140:                                                                                                  #  THE RECEPTION OF A BAD CODE (I.E  CCC FAILURE) LOCKS OUT FURTHER UPLINK ACTIVITY BY SETTING BIT4 OF FLAGWRD7 = 1.
000141:                                                                                                  #  THIS INDICATION WILL BE TRANSFERRED TO THE GROUND BY THE DOWNLINK WHICH DOWNLINKS ALL FLAGWORDS.
000142:                                                                                                  #  WHEN UPLINK ACTIVITY IS LOCKED OUT, IT CAN BE ALLOWED WHEN THE GROUND UPLINKS AND 'ERROR RESET' CODE.
000143:                                                                                                  #  (IT IS RECOMMENDED THAT THE 'ERROR LIGHT RESET' CODE IS PRECEEDED BY 16 BITS THE FIRST OF WHICH IS 1 FOLLOWED
000144:                                                                                                  #  BY 15 ZEROES.  THIS WILL ELIMINATE EXTRANEOUS BITS FROM INLINK WHICH MAY HAVE BEEN LEFT OVER FROM THE ORIGINAL
000145:                                                                                                  #  FAILURE)
000146:
000147:                                                                                                  #  UPLINK ACTIVITY IS ALSO ALLOWED (UNLOCKED) DURING FRESH START WHEN FRESH START SETS BIT4 OF FLAGWRD7 = 0.
000148:
000149: 04,3400           44753                           CS       XDSPBIT
000150:

End of include-file KEYRUPT,_UPRUPT.agc.  Parent file is MAIN.agc


