
Source Code


000002:                                                                                                  ## Copyright:   Public domain.
000003:                                                                                                  ## Filename:    LAMBERT_AIMPOINT_GUIDANCE.agc
000004:                                                                                                  ## Purpose:     Part of the reconstructed source code for LMY99 Rev 0,
000005:                                                                                                  ##              otherwise known as Luminary Rev 99, the second release
000006:                                                                                                  ##              of the Apollo Guidance Computer (AGC) software for Apollo 11.
000007:                                                                                                  ##              It differs from LMY99 Rev 1 (the flown version) only in the
000008:                                                                                                  ##              placement of a single label. The corrections shown here have
000009:                                                                                                  ##              been verified to have the same bank checksums as AGC developer
000010:                                                                                                  ##              Allan Klumpp's copy of Luminary Rev 99, and so are believed
000011:                                                                                                  ##              to be accurate. This file is intended to be a faithful
000012:                                                                                                  ##              recreation, except that the code format has been changed to
000013:                                                                                                  ##              conform to the requirements of the yaYUL assembler rather than
000014:                                                                                                  ##              the original YUL assembler.
000015:                                                                                                  ##
000016:                                                                                                  ## Assembler:   yaYUL
000017:                                                                                                  ## Contact:     Ron Burkey <info@sandroid.org>.
000018:                                                                                                  ## Website:     www.ibiblio.org/apollo.
000019:                                                                                                  ## Pages:       651-653
000020:                                                                                                  ## Mod history: 2009-05-18 RSB  Transcribed from Luminary 099
000021:                                                                                                  ##                              page images.
000022:                                                                                                  ##              2009-06-05 RSB  Corrected 4 typos.
000023:                                                                                                  ##              2009-06-07 RSB  Fixed a typo.
000024:                                                                                                  ##              2016-12-14 RSB  VNP00H -> VNPOOH.
000025:                                                                                                  ##              2016-12-14 RSB  Proofed text comments with octopus/ProoferComments
000026:                                                                                                  ##                              and corrected the errors found.
000027:                                                                                                  ##              2017-08-01 MAS  Created from LMY99 Rev 1.
000028:
000029:                                                                                                  ## This source code has been transcribed or otherwise adapted from
000030:                                                                                                  ## digitized images of a hardcopy from the MIT Museum.  The digitization
000031:                                                                                                  ## was performed by Paul Fjeld, and arranged for by Deborah Douglas of
000032:                                                                                                  ## the Museum.  Many thanks to both.  The images (with suitable reduction
000033:                                                                                                  ## in storage size and consequent reduction in image quality as well) are
000034:                                                                                                  ## available online at www.ibiblio.org/apollo.  If for some reason you
000035:                                                                                                  ## find that the images are illegible, contact me at info@sandroid.org
000036:                                                                                                  ## about getting access to the (much) higher-quality images which Paul
000037:                                                                                                  ## actually created.
000038:                                                                                                  ##
000039:                                                                                                  ## The code has been modified to match LMY99 Revision 0, otherwise
000040:                                                                                                  ## known as Luminary Revision 99, the Apollo 11 software release preceeding
000041:                                                                                                  ## the listing from which it was transcribed. It has been verified to
000042:                                                                                                  ## contain the same bank checksums as AGC developer Allan Klumpp's listing
000043:                                                                                                  ## of Luminary Revision 99 (for which we do not have scans).
000044:                                                                                                  ##
000045:                                                                                                  ## Notations on Allan Klumpp's listing read, in part:
000046:                                                                                                  ##
000047:                                                                                                  ##      ASSEMBLE REVISION 099 OF AGC PROGRAM LUMINARY BY NASA 2021112-51
000048:


000050:
000051:                                                                                                  #  GENERAL LAMBERT AIMPOINT GUIDANCE **
000052:                                                                                                  #  WRITTEN BY RAMA M AIYAWAR
000053:
000054:                                                                                                  #  PROGRAM P-31 DESCRIPTION **
000055:
000056:                                                                                                  #  1.    TO ACCEPT TARGETING PARAMETERS OBTAINED FROM A SOURCE EXTERNAL
000057:                                                                                                  #        TO THE LEM AND COMPUTE THERE FROM THE REQUIRED-VELOCITY AND
000058:                                                                                                  #        OTHER INITIAL CONDITIONS REQUIRED BY LM FOR DESIRED MANEUVER.
000059:                                                                                                  #        THE TARGETING PARAMETERS ARE TIG (TIME OF IGNITION), TARGET
000060:                                                                                                  #        VECTOR (RTARG), AND THE TIME FROM TIG UNTIL THE TARGET IS
000061:                                                                                                  #        REACHED (DELLT4), DESIRED TIME OF FLIGHT FROM RINIT TO RTARG..
000062:
000063:                                                                                                  #  ASSUMPTIONS **
000064:
000065:                                                                                                  #  1.    THE TARGET PARAMETERS MAY HAVE BEEN LOADED PRIOR TO THE
000066:                                                                                                  #        EXECUTION OF THIS PROGRAM.
000067:                                                                                                  #  2.    THIS PROGRAM IS APPLICABLE IN EITHER EARTH OR LUNAR ORBIT.
000068:                                                                                                  #  3.    THIS PROGRAM IS DESIGNED FOR ONE-MAN OPERATION, AND SHOULD
000069:                                                                                                  #        BE SELECTED BY THE ASTRONAUT BY DSKY ENTRY V37 E31.
000070:
000071:                                                                                                  #  SUBROUTINES USED **
000072:                                                                                                  #
000073:                                                                                                  #  MANUPARM, TTG/N35, R02BOTH, MIDGIM, DISPMGA, FLAGDOWN, BANKCALL,
000074:                                                                                                  #  GOTOPOOH, ENDOFJOB, PHASCHNG, GOFLASHR, GOFLASH.
000075:
000076:                                                                                                  #  MANUPARM      CALCULATES APOGEE, PERIGEE ALTITUDES AND DELTAV DESIRED
000077:                                                                                                  #                FOR THE MANEUVER.
000078:
000079:                                                                                                  #  TTG/N35       CLOCKTASK - UPDATES CLOCK.
000080:
000081:                                                                                                  #  MIDGIM        CALCULATES MIDDLE GIMBAL ANGLE FOR DISPLAY.
000082:
000083:                                                                                                  #  R02BOTH       IMU - STATUS CHECK ROUTINE.
000084:
000085:                                                                                                  #  DISPLAYS USED IN P-31LM **
000086:
000087:                                                                                                  #  V06N33        DISPLAY SOTRED TIG (IN HRS. MINS. SECS)
000088:                                                                                                  #  V06N42        DISPLAY APOGEE, PERIGEE, DELTAV.
000089:                                                                                                  #  V16N35        DISPLAY TIME FROM TIG.
000090:                                                                                                  #  V06N45        TIME FROM IGNITION AND MIDDLE GIMBAL ANGLE.
000091:
000092:                                                                                                  #  ERASABLE INITIALIZATION REQUIRED **
000093:
000094:                                                                                                  #  TIG           TIME OF IGNITION                DP      (B+28) CS.
000095:
000096:                                                                                                  #  DELLT4        DESIRED TIME OF FLIGHT          DP      (B+28) CS
000097:                                                                                                  #                FROM RINIT TO RTARG.
000098:
000099:                                                                                                  #  RTARG         RADIUS VECTOR OF TARGET POSITION VECTOR
000100:                                                                                                  #                RADIUS VECTOR SCALED TO (B+29)METERS IF EARTH ORBIT


000102:                                                                                                  #                RADIUS VECTOR SCALED TO (B+27)METERS IF MOON ORBIT
000103:
000104:                                                                                                  #  OUTPUT **
000105:
000106:                                                                                                  #  HAPO          APOGEE ALTITUDE
000107:                                                                                                  #  HPER          PERIGEE ALTITUDE
000108:                                                                                                  #  VGDISP        MAG. OF DELTAV FOR DISPLAY, SCALING     B+7 M/CS EARTH
000109:                                                                                                  #                MAG. OF DELTAV FOR DISPLAY, SCALING     B+5 M/CS MOON
000110:                                                                                                  #  MIDGIM        MIDDLE GIMBAL ANGLE
000111:                                                                                                  #  XDELVFLG      RESETS XDELVFLG FOR LAMBERT VG COMPUTATIONS
000112:
000113:                                                                                                  #  ALARMS OR ABORTS      NONE **
000114:
000115:                                                                                                  #  RESTARTS ARE VIA GROUP 4 **
000116:
000117: 35,2000                                           SETLOC   GLM
000118: 35,2000                                           BANK
000119:
000120: 35,2450  E7,1470                                  EBANK=   SUBEXIT
000121:
000122: 35,2450                                           COUNT*   $$/P31
000123: 35,2450           02361        P31                TC       P20FLGON
000124: 35,2451           32025                           CAF      V06N33                                #  TIG
000125: 35,2452           03712                           TC       VNPOOH
000126: 35,2453           06037                           TC       INTPRET
000127: 35,2454           71214                           CLEAR    DLOAD
000128: 35,2455           00670                                    UPDATFLG
000129: 35,2456           03442                                    TIG
000130: 35,2457           34041                           STCALL   TDEC1                                 #  INTEGRATE STATE VECTORS TO TIG
000131: 35,2460           27057                                    LEMPREC
000132: 35,2461           40375                           VLOAD    SETPD
000133: 35,2462           00001                                    RATT
000134: 35,2463           00001                                    0D
000135: 35,2464           03642                           STORE    RTIG
000136: 35,2465           26323                           STOVL    RINIT
000137: 35,2466           00007                                    VATT
000138: 35,2467           03650                           STORE    VTIG
000139: 35,2470           16331                           STODL    VINIT
000140: 35,2471           32420                                    P30ZERO
000141: 35,2472           65206                           PUSH     PDDL                                  #  E4 AND NUMIT = 0
000142: 35,2473           03452                                    DELLT4
000143: 35,2474           66015                           DAD      SXA,1
000144: 35,2475           03442                                    TIG
000145: 35,2476           02776                                    RTX1
000146: 35,2477           03631                           STORE    TPASS4
000147: 35,2500           45134                           SXA,2    CALL
000148: 35,2501           02777                                    RTX2
000149: 35,2502           22000                                    INITVEL
000150: 35,2503           41575                           VLOAD    PUSH


000152: 35,2504           02366                                    DELVEET3
000153: 35,2505           03656                           STORE    DELVSIN
000154: 35,2506           43046                           ABVAL    CLEAR
000155: 35,2507           01267                                    XDELVFLG
000156: 35,2510           37664                           STCALL   VGDISP
000157: 35,2511           15733                                    GET.LVC
000158: 35,2512           63375                           VLOAD    PDVL
000159: 35,2513           03642                                    RTIG
000160: 35,2514           02337                                    VIPRIME
000161: 35,2515           77624                           CALL
000162: 35,2516           46316                                    PERIAPO1
000163: 35,2517           77624                           CALL
000164: 35,2520           46426                                    SHIFTR1
000165: 35,2521           77624                           CALL                                           #  LIMIT DISPLAY TO 9999.9 N. MI.
000166: 35,2522           45636                                    MAXCHK
000167: 35,2523           16321                           STODL    HPER
000168: 35,2524           00005                                    4D
000169: 35,2525           77624                           CALL
000170: 35,2526           46426                                    SHIFTR1
000171: 35,2527           77624                           CALL                                           #  LIMIT DISPLAY TO 9999.9 N. MI.
000172: 35,2530           45636                                    MAXCHK
000173: 35,2531           02317                           STORE    HAPO
000174: 35,2532           77776                           EXIT
000175: 35,2533           33727                           CAF      V06N81                                #  DELVLVC
000176: 35,2534           03712                           TC       VNPOOH
000177: 35,2535           32026                           CAF      V06N42                                #  HAPO, HPER, VGDISP
000178: 35,2536           03712                           TC       VNPOOH
000179: 35,2537           06037                           TC       INTPRET
000180: 35,2540           45014        REVN1645           SET      CALL                                  #  TRKMKCNT, TTOGO, +MGA
000181: 35,2541           01071                                    FINALFLG
000182: 35,2542           73606                                    VN1645
000183: 35,2543           77650                           GOTO
000184: 35,2544           72540                                    REVN1645
000185:

End of include-file LAMBERT_AIMPOINT_GUIDANCE.agc.  Parent file is MAIN.agc


