
Source Code


000002:                                                                                                  ## Copyright:   Public domain.
000003:                                                                                                  ## Filename:    LATITUDE_LONGITUDE_SUBROUTINES.agc
000004:                                                                                                  ## Purpose:     Part of the reconstructed source code for LMY99 Rev 0,
000005:                                                                                                  ##              otherwise known as Luminary Rev 99, the second release
000006:                                                                                                  ##              of the Apollo Guidance Computer (AGC) software for Apollo 11.
000007:                                                                                                  ##              It differs from LMY99 Rev 1 (the flown version) only in the
000008:                                                                                                  ##              placement of a single label. The corrections shown here have
000009:                                                                                                  ##              been verified to have the same bank checksums as AGC developer
000010:                                                                                                  ##              Allan Klumpp's copy of Luminary Rev 99, and so are believed
000011:                                                                                                  ##              to be accurate. This file is intended to be a faithful
000012:                                                                                                  ##              recreation, except that the code format has been changed to
000013:                                                                                                  ##              conform to the requirements of the yaYUL assembler rather than
000014:                                                                                                  ##              the original YUL assembler.
000015:                                                                                                  ##
000016:                                                                                                  ## Assembler:   yaYUL
000017:                                                                                                  ## Contact:     Jim Lawton <jim DOT lawton AT gmail DOT com>
000018:                                                                                                  ## Website:     www.ibiblio.org/apollo.
000019:                                                                                                  ## Pages:       1133-1139
000020:                                                                                                  ## Mod history: 2009-05-28 JL   Updated from page images.
000021:                                                                                                  ##              2011-01-06 JL   Fixed interpretive indentation.
000022:                                                                                                  ##              2016-12-17 RSB  Proofed text comments with octopus/ProoferComments
000023:                                                                                                  ##                              and corrected the errors found.
000024:                                                                                                  ##              2017-03-15 RSB  Comment-text fixes identified in 5-way
000025:                                                                                                  ##                              side-by-side diff of Luminary 69/99/116/131/210.
000026:                                                                                                  ##              2017-08-01 MAS  Created from LMY99 Rev 1.
000027:
000028:                                                                                                  ## This source code has been transcribed or otherwise adapted from
000029:                                                                                                  ## digitized images of a hardcopy from the MIT Museum.  The digitization
000030:                                                                                                  ## was performed by Paul Fjeld, and arranged for by Deborah Douglas of
000031:                                                                                                  ## the Museum.  Many thanks to both.  The images (with suitable reduction
000032:                                                                                                  ## in storage size and consequent reduction in image quality as well) are
000033:                                                                                                  ## available online at www.ibiblio.org/apollo.  If for some reason you
000034:                                                                                                  ## find that the images are illegible, contact me at info@sandroid.org
000035:                                                                                                  ## about getting access to the (much) higher-quality images which Paul
000036:                                                                                                  ## actually created.
000037:                                                                                                  ##
000038:                                                                                                  ## The code has been modified to match LMY99 Revision 0, otherwise
000039:                                                                                                  ## known as Luminary Revision 99, the Apollo 11 software release preceeding
000040:                                                                                                  ## the listing from which it was transcribed. It has been verified to
000041:                                                                                                  ## contain the same bank checksums as AGC developer Allan Klumpp's listing
000042:                                                                                                  ## of Luminary Revision 99 (for which we do not have scans).
000043:                                                                                                  ##
000044:                                                                                                  ## Notations on Allan Klumpp's listing read, in part:
000045:                                                                                                  ##
000046:                                                                                                  ##      ASSEMBLE REVISION 099 OF AGC PROGRAM LUMINARY BY NASA 2021112-51
000047:


000049:                                                                                                  #  SUBROUTINE TO CONVERT RAD VECTOR AT GIVEN TIME TO LAT,LONG AND ALT
000050:
000051:                                                                                                  #  CALLING SEQUENCE
000052:                                                                                                  #        L-1     CALL
000053:                                                                                                  #        L               LAT-LONG
000054:
000055:                                                                                                  #  SUBROUTINES USED
000056:                                                                                                  #        R-TO-RP, ARCTAN, SETGAMMA, SETRE
000057:
000058:                                                                                                  #  ERASABLE INIT. REQ.
000059:                                                                                                  #        AXO, -AYO, AZO, TEPHEM (SET AT LAUNCH TIME)
000060:                                                                                                  #        ALPHAV = POSITION VECTOR METERS B-29
000061:                                                                                                  #        MPAC -- TIME (CSECS B-28)
000062:                                                                                                  #        ERADFLAG =1, TO COMPUTE EARTH RADIUS, =0 FOR FIXED EARTH RADIUS
000063:                                                                                                  #        LUNAFLAG=0 FOR EARTH, 1 FOR MOON
000064:
000065:                                                                                                  #  OUTPUT
000066:                                                                                                  #        LATITUDE IN LAT         (REVS. B-0)
000067:                                                                                                  #        LONGITUDE IN LONG       (REVS. B-0)
000068:                                                                                                  #        ALTITUDE IN ALT         METERS B-29
000069:
000070: 30,3775                                           BANK     30
000071: 13,2000                                           SETLOC   LATLONG
000072: 13,2000                                           BANK
000073:
000074: 13,2351                                           COUNT*   $$/LT-LG
000075: 13,2351  E4,1431                                  EBANK=   ALPHAV
000076: 13,2351           40220        LAT-LONG           STQ      SETPD
000077: 13,2352           03674                                    INCORPEX
000078: 13,2353           00001                                    0D
000079: 13,2354           24007                           STOVL    6D                                    #  SAVE TIME IN 6-7D FOR R-TO-RP
000080: 13,2355           02032                                    ALPHAV
000081: 13,2356           51406                           PUSH     ABVAL                                 #  0-5D= R FOR R-TO-RP
000082: 13,2357           16070                           STODL    ALPHAM                                #  ABS. VALUE OF R FOR ALT FORMULA BELOW
000083: 13,2360           24007                                    ZEROVEC                               #  SET MPAC=0 FOR EARTH, NON-ZERO FOR MOON
000084: 13,2361           71414                           BOFF     COS                                   #  USE COS(0) TO GET NON-ZERO IN MPAC
000085: 13,2362           01743                                    LUNAFLAG                              #  0=EARTH, 1=MOON
000086: 13,2363           26364                                    CALLRTRP
000087: 13,2364           77624        CALLRTRP           CALL
000088: 13,2365           51670                                    R-TO-RP                               #  RP VECTOR CONVERTED FROM R B-29
000089: 13,2366           77656                           UNIT                                           #  UNIT RP B-1
000090: 13,2367           36032                           STCALL   ALPHAV                                #  U2= 1/2 SINL FOR SETRE SUBR BELOW
000091: 13,2370           26550                                    SETGAMMA                              #        SET GAMMA=B2/A2 FOR EARTH, =1 FOR MOON
000092: 13,2371           77624                           CALL                                           #        SCALED B-1
000093: 13,2372           26560                                    SETRE                                 #  CALC RE METERS B-29
000094: 13,2373           63545                           DLOAD    DSQ
000095: 13,2374           02032                                    ALPHAV
000096: 13,2375           63525                           PDDL     DSQ
000097: 13,2376           02034                                    ALPHAV     +2
000098: 13,2377           75415                           DAD      SQRT


000100: 13,2400           76405                           DMP      SL1R
000101: 13,2401           00011                                    GAMRP
000102: 13,2402           14021                           STODL    COSTH                                 #  COS(LAT) B-1
000103: 13,2403           02036                                    ALPHAV     +4
000104: 13,2404           34023                           STCALL   SINTH                                 #  SIN(LAT) B-1
000105: 13,2405           26510                                    ARCTAN
000106: 13,2406           15121                           STODL    LAT                                   #  LAT B0
000107: 13,2407           02032                                    ALPHAV
000108: 13,2410           14021                           STODL    COSTH                                 #  COS(LONG) B-1
000109: 13,2411           02034                                    ALPHAV     +2
000110: 13,2412           34023                           STCALL   SINTH                                 #  SIN(LONG) B-1
000111: 13,2413           26510                                    ARCTAN
000112: 13,2414           15123                           STODL    LONG                                  #  LONG. REVS B-0 IN RANGE -1/2 TO 1/2
000113: 13,2415           02070                                    ALPHAM
000114: 13,2416           77625                           DSU                                            #  ALT= R-RE METERS B-29
000115: 13,2417           03673                                    ERADM
000116: 13,2420           35125                           STCALL   ALT                                   #  EXIT WITH ALT METERS B-29
000117: 13,2421           03674                                    INCORPEX


000119:                                                                                                  #  SUBROUTINE TO CONVERT LAT,LONG,ALT AT GIVEN TIME TO RADIUS VECTOR
000120:
000121:                                                                                                  #  CALLING SEQUENCE
000122:                                                                                                  #        L-1     CALL
000123:                                                                                                  #        L               LALOTORV
000124:
000125:                                                                                                  #  SUBROUTINES USED
000126:                                                                                                  #        SETGAMMA, SETRE, RP-TO-R
000127:
000128:                                                                                                  #  ERASABLE INIT. REQ.
000129:                                                                                                  #        AXO, AYO, AZO, TEPHEM SET AT LAUNCH TIME
000130:                                                                                                  #        LAT -- LATITUDE         (REVS B0)
000131:                                                                                                  #        LONG -- LONGITUDE       (REVS B0)
000132:                                                                                                  #        ALT -- ALTITUDE         (METERS) B-29
000133:                                                                                                  #        MPAC -- TIME            (CSECS B-28)
000134:                                                                                                  #        ERADFLAG =1 TO COMPUTE EARTH RADIUS, =0 FOR FIXED EARTH RADIUS
000135:                                                                                                  #        LUNAFLAG=0 FOR EARTH, 1 FOR MOON
000136:
000137:                                                                                                  #  OUTPUT
000138:                                                                                                  #        R-VECTOR IN ALPHAV      (METERS B-29)
000139:
000140: 13,2422           40220        LALOTORV           STQ      SETPD                                 #  LAT,LONG,ALT TO R VECTOR
000141: 13,2423           03674                                    INCORPEX
000142: 13,2424           00001                                    0D
000143: 13,2425           34007                           STCALL   6D                                    #  6-7D= TIME FOR RP-TO-R
000144: 13,2426           26550                                    SETGAMMA                              #  GAMMA=B2/A2 FOR EARTH, 1 FOR MOON B-1
000145: 13,2427           73545                           DLOAD    SIN                                   #                COS(LONG)COS(LAT) IN MPAC
000146: 13,2430           01121                                    LAT                                   #      UNIT RP = SIN(LONG)COS(LAT)    2-3D
000147: 13,2431           65275                           DMPR     PDDL                                  #  PD 2          GAMMA*SIN(LAT)       0-1D
000148: 13,2432           00011                                    GAMRP
000149: 13,2433           01121                                    LAT                                   #         0-1D = GAMMA*SIN(LAT) B-2
000150: 13,2434           65346                           COS      PDDL                                  #  PD4    2-3D = COS(LAT) B-1 TEMPORARILY
000151: 13,2435           01123                                    LONG
000152: 13,2436           57356                           SIN      DMPR                                  #  PD 2
000153: 13,2437           71525                           PDDL     COS                                   #  PD 4   2-3D = SIN(LONG)COS(LAT) B-2
000154: 13,2440           01121                                    LAT
000155: 13,2441           71525                           PDDL     COS                                   #  PD 6   4-5D = COS(LAT) B-1 TEMPORARILY
000156: 13,2442           01123                                    LONG
000157: 13,2443           55475                           DMPR     VDEF                                  #  PD 4   MPAC = COS(LONG)COS(LAT) B-2
000158: 13,2444           41456                           UNIT     PUSH                                  #  0-5D= UNIT RP FOR RP-TO-R SUBR.
000159: 13,2445           36032                           STCALL   ALPHAV                                #  ALPHAV +4= SINL FOR SETRE SUBR.
000160: 13,2446           26560                                    SETRE                                 #  RE METERS B-29
000161: 13,2447           43145                           DLOAD    BOFF                                  #  SET MPAC=0 FOR EARTH, NON-ZERO FOR MOON
000162: 13,2450           24007                                    ZEROVEC
000163: 13,2451           01743                                    LUNAFLAG
000164: 13,2452           26454                                    CALLRPRT
000165: 13,2453           77746                           COS                                            #  USE COS(0) TO GET NON-ZERO IN MPAC
000166: 13,2454           77624        CALLRPRT           CALL
000167: 13,2455           55716                                    RP-TO-R                               #  EXIT WITH UNIT R VECTOR IN MPAC
000168: 13,2456           16032                           STODL    ALPHAV
000169: 13,2457           03673                                    ERADM


000171: 13,2460           74215                           DAD      VXSC                                  #  (RE + ALT)(UNIT R) METERS B-30
000172: 13,2461           01125                                    ALT
000173: 13,2462           02032                                    ALPHAV
000174: 13,2463           77772                           VSL1                                           #  R METERS B-29
000175: 13,2464           36032                           STCALL   ALPHAV                                #  EXIT WITH R IN METERS B-29
000176: 13,2465           03674                                    INCORPEX
000177:
000178:                                                                                                  #  SUBROUTINE TO COMPUTE EARTH RADIUS
000179:
000180:                                                                                                  #  INPUT
000181:                                                                                                  #        1/2 SIN LAT IN ALPHAV +4
000182:
000183:                                                                                                  #  OUTPUT
000184:                                                                                                  #        EARTH RADIUS IN ERADM AND MPAC (METERS B-29)
000185:
000186: 13,2466           63545        GETERAD            DLOAD    DSQ
000187: 13,2467           02036                                    ALPHAV     +4                         #  SIN**2(L)
000188: 13,2470           44352                           SL1      BDSU
000189: 13,2471           24005                                    DP1/2                                 #  COS**2(L)
000190: 13,2472           44275                           DMPR     BDSU
000191: 13,2473           26507                                    EE
000192: 13,2474           24005                                    DP1/2
000193: 13,2475           75465                           BDDV     SQRT
000194: 13,2476           26503                                    B2XSC
000195: 13,2477           77622                           SR4R
000196: 13,2500           03673                           STORE    ERADM
000197: 13,2501           77616                           RVQ
000198:
000199:                                                                                                  #  THE FOLLOWING CONSTANTS WERE COMPUTED WITH A=6378166, B=6356784 METERS
000200:                                                                                                  #  B2XSC = B**2 SCALED B-51
000201:                                                                                                  #  B2/A2 = B**2/A**2 SCALED B-1
000202:                                                                                                  #  EE = (1-B**2/A**2) SCALED B-0
000203:
000204: 13,2502           00446 00305  B2XSC              2DEC     .0179450689                            #  B**2 SCALED B-51
000205: 13,2504  12,2004               DP1/2              =        XUNIT
000206: 13,2504           17711 05254  B2/A2              2DEC     .9933064884 B-1                        #  GAMMA= B**2/A**2 B-1
000207: 13,2506           00155 25250  EE                 2DEC     6.6935116  E-3                        #  (1-B**2/A**2) B-0
000208:


000210:                                                                                                  #  ARCTAN SUBROUTINE
000211:
000212:                                                                                                  #  CALLING SEQUENCE
000213:                                                                                                  #        SIN THETA IN SINTH B-1
000214:                                                                                                  #        COS THETA IN COSTH B-1
000215:                                                                                                  #        CALL ARCTAN
000216:
000217:                                                                                                  #  OUTPUT
000218:                                                                                                  #        ARCTAN THETA IN MPAC AND THETA B-0 IN RANGE -1/2 TO +1/2
000219:
000220: 13,2510           77600        ARCTAN             BOV
000221: 13,2511           26512                                    CLROVFLW
000222: 13,2512           63545        CLROVFLW           DLOAD    DSQ
000223: 13,2513           00023                                    SINTH
000224: 13,2514           63525                           PDDL     DSQ
000225: 13,2515           00021                                    COSTH
000226: 13,2516           77615                           DAD
000227: 13,2517           75454                           BZE      SQRT
000228: 13,2520           26536                                    ARCTANXX                              #  ATAN=0/0  SET THETA=0
000229: 13,2521           40065                           BDDV     BOV
000230: 13,2522           00023                                    SINTH
000231: 13,2523           26543                                    ATAN=90
000232: 13,2524           67542                           SR1      ASIN
000233: 13,2525           00025                           STORE    THETA
000234: 13,2526           50125                           PDDL     BMN
000235: 13,2527           00021                                    COSTH
000236: 13,2530           26532                                    NEGCOS
000237: 13,2531           43545                           DLOAD    RVQ
000238: 13,2532           57545        NEGCOS             DLOAD    DCOMP
000239: 13,2533           43244                           BPL      DAD
000240: 13,2534           26540                                    NEGOUT
000241: 13,2535           24005                                    DP1/2
000242: 13,2536           00025        ARCTANXX           STORE    THETA
000243: 13,2537           77616                           RVQ
000244:
000245: 13,2540           52025        NEGOUT             DSU      GOTO
000246: 13,2541           24005                                    DP1/2
000247: 13,2542           26536                                    ARCTANXX
000248: 13,2543           75345        ATAN=90            DLOAD    SIGN
000249: 13,2544           11037                                    LODP1/4
000250: 13,2545           00023                                    SINTH
000251: 13,2546           00025                           STORE    THETA
000252: 13,2547           77616                           RVQ
000253:
000254: 13,2550  12,2006               2DZERO             =        DPZERO
000255:


000257:                                                                                                  #  ..... SETGAMMA SUBROUTINE .....
000258:                                                                                                  #  SUBROUTINE TO SET GAMMA FOR THE LAT-LONG AND LALOTORV SUBROUTINES
000259:
000260:                                                                                                  #  GAMMA = B**2/A**2 FOR EARTH (B-1)
000261:                                                                                                  #  GAMMA = 1 FOR MOON (B-1)
000262:
000263:                                                                                                  #  CALLING SEQUENCE
000264:                                                                                                  #        L       CALL
000265:                                                                                                  #        L+1             SETGAMMA
000266:
000267:                                                                                                  #  INPUT
000268:                                                                                                  #        LUNAFLAG=0 FOR EARTH, =1 FOR MOON
000269:
000270:                                                                                                  #  OUTPUT
000271:                                                                                                  #        GAMMA IN GAMRP (B-1)
000272:
000273: 13,2550           43145        SETGAMMA           DLOAD    BOFF                                  #  BRANCH FOR EARTH
000274: 13,2551           26505                                    B2/A2                                 #  EARTH GAMMA
000275: 13,2552           01743                                    LUNAFLAG
000276: 13,2553           26556                                    SETGMEX
000277: 13,2554           77735                           SLOAD
000278: 13,2555           24005                                    1B1                                   #  MOON GAMMA
000279: 13,2556           00011        SETGMEX            STORE    GAMRP
000280: 13,2557           77616                           RVQ
000281: 13,2560                        GAMRP              =        8D
000282:


000284:                                                                                                  #  ..... SETRE SUBROUTINE .....
000285:                                                                                                  #  SUBROUTINE TO SET RE (EARTH OR MOON RADIUS)
000286:
000287:                                                                                                  #        RE = RM FOR MOON
000288:                                                                                                  #        RE = RREF FOR FIXED EARTH RADIUS OR COMPUTED RF FOR FISCHER ELLIPSOID
000289:
000290:                                                                                                  #  CALLING SEQUENCE
000291:                                                                                                  #        L       CALL
000292:                                                                                                  #        L+1             SETRE
000293:
000294:                                                                                                  #  SUBROUTINES USED
000295:                                                                                                  #        GETERAD
000296:
000297:                                                                                                  #  INPUT
000298:                                                                                                  #        ERADFLAG = 0 FOR FIXED RE, 1 FOR COMPUTED RE
000299:                                                                                                  #        ALPHAV +4 = 1/2 SINL IF GETERAD IS CALLED
000300:                                                                                                  #        LUNAFLAG = 0 FOR EARTH, =1 FOR MOON
000301:
000302:                                                                                                  #  OUTPUT
000303:                                                                                                  #        ERADM = 504RM FOR MOON (METERS B-29)
000304:                                                                                                  #        ERADM = ERAD OR COMPUTED RF FOR EARTH (METERS B-29)
000305:
000306: 13,2560           71220        SETRE              STQ      DLOAD
000307: 13,2561           00051                                    SETREX
000308: 13,2562           10003                                    504RM
000309: 13,2563           71214                           BON      DLOAD                                 #  BRANCH FOR MOON
000310: 13,2564           01703                                    LUNAFLAG
000311: 13,2565           26575                                    TSTRLSRM
000312: 13,2566           10001                                    ERAD
000313: 13,2567           45014                           BOFF     CALL                                  #  ERADFLAG=0 FOR FIXED RE, 1 FOR COMPUTED
000314: 13,2570           00742                                    ERADFLAG
000315: 13,2571           26573                                    SETRXX
000316: 13,2572           26466                                    GETERAD
000317: 13,2573           37673        SETRXX             STCALL   ERADM                                 #  EXIT WITH RE OR RM METERS B-29
000318: 13,2574           00051                                    SETREX
000319: 13,2575           77214        TSTRLSRM           BON      VLOAD                                 #  ERADFLAG=0, SET R0=RLS
000320: 13,2576           00702                                    ERADFLAG                              #          =1      R0=RM
000321: 13,2577           26573                                    SETRXX
000322: 13,2600           02023                                    RLS
000323: 13,2601           64446                           ABVAL    SR2R                                  #  SCALE FROM B-27 TO B-29
000324: 13,2602           77650                           GOTO
000325: 13,2603           26573                                    SETRXX
000326: 13,2604  0000051               SETREX             =        S2
000327:
000328:

End of include-file LATITUDE_LONGITUDE_SUBROUTINES.agc.  Parent file is MAIN.agc


