
Source Code


000002:                                                                                                  ## Copyright:   Public domain.
000003:                                                                                                  ## Filename:    LEM_GEOMETRY.agc
000004:                                                                                                  ## Purpose:     Part of the reconstructed source code for LMY99 Rev 0,
000005:                                                                                                  ##              otherwise known as Luminary Rev 99, the second release
000006:                                                                                                  ##              of the Apollo Guidance Computer (AGC) software for Apollo 11.
000007:                                                                                                  ##              It differs from LMY99 Rev 1 (the flown version) only in the
000008:                                                                                                  ##              placement of a single label. The corrections shown here have
000009:                                                                                                  ##              been verified to have the same bank checksums as AGC developer
000010:                                                                                                  ##              Allan Klumpp's copy of Luminary Rev 99, and so are believed
000011:                                                                                                  ##              to be accurate. This file is intended to be a faithful
000012:                                                                                                  ##              recreation, except that the code format has been changed to
000013:                                                                                                  ##              conform to the requirements of the yaYUL assembler rather than
000014:                                                                                                  ##              the original YUL assembler.
000015:                                                                                                  ##
000016:                                                                                                  ## Assembler:   yaYUL
000017:                                                                                                  ## Contact:     Ron Burkey <info@sandroid.org>.
000018:                                                                                                  ## Website:     www.ibiblio.org/apollo.
000019:                                                                                                  ## Pages:       320-325
000020:                                                                                                  ## Mod history: 2009-05-16 RSB  Adapted from the corresponding
000021:                                                                                                  ##                              Luminary131 file, using page
000022:                                                                                                  ##                              images from Luminary 1A.
000023:                                                                                                  ##              2016-12-13 RSB  Proofed text comments with octopus/ProoferComments
000024:                                                                                                  ##                              and corrected the errors found.
000025:                                                                                                  ##              2017-03-07 RSB  Fixed comment-text error noticed while proofing
000026:                                                                                                  ##                              Luminary 116.
000027:                                                                                                  ##              2017-08-01 MAS  Created from LMY99 Rev 1.
000028:
000029:                                                                                                  ## This source code has been transcribed or otherwise adapted from
000030:                                                                                                  ## digitized images of a hardcopy from the MIT Museum.  The digitization
000031:                                                                                                  ## was performed by Paul Fjeld, and arranged for by Deborah Douglas of
000032:                                                                                                  ## the Museum.  Many thanks to both.  The images (with suitable reduction
000033:                                                                                                  ## in storage size and consequent reduction in image quality as well) are
000034:                                                                                                  ## available online at www.ibiblio.org/apollo.  If for some reason you
000035:                                                                                                  ## find that the images are illegible, contact me at info@sandroid.org
000036:                                                                                                  ## about getting access to the (much) higher-quality images which Paul
000037:                                                                                                  ## actually created.
000038:                                                                                                  ##
000039:                                                                                                  ## The code has been modified to match LMY99 Revision 0, otherwise
000040:                                                                                                  ## known as Luminary Revision 99, the Apollo 11 software release preceeding
000041:                                                                                                  ## the listing from which it was transcribed. It has been verified to
000042:                                                                                                  ## contain the same bank checksums as AGC developer Allan Klumpp's listing
000043:                                                                                                  ## of Luminary Revision 99 (for which we do not have scans).
000044:                                                                                                  ##
000045:                                                                                                  ## Notations on Allan Klumpp's listing read, in part:
000046:                                                                                                  ##
000047:                                                                                                  ##      ASSEMBLE REVISION 099 OF AGC PROGRAM LUMINARY BY NASA 2021112-51
000048:


000050: 23,2041                                           BANK     23
000051: 13,2000                                           SETLOC   LEMGEOM
000052: 13,2000                                           BANK
000053:
000054: 13,2070  30,2000                                  SBANK=   LOWSUPER
000055: 13,2070  E5,1642                                  EBANK=   XSM
000056:
000057:                                                                                                  #  THESE TWO ROUTINES COMPUTE THE ACTUAL STATE VECTOR FOR LM,CSM BY ADDING
000058:                                                                                                  #  THE CONIC R,V AND THE DEVIATIONS R,V.  THE STATE VECTORS ARE CONVERTED TO
000059:                                                                                                  #  METERS B-29 AND METERS/CSEC B-7 AND STORED APPROPRIATELY IN RN,VN OR
000060:                                                                                                  #  R-OTHER,V-OTHER FOR DOWNLINK.  THE ROUTINES NAMES ARE SWITCHED IN THE
000061:                                                                                                  #  OTHER VEHICLES COMPUTER.
000062:
000063:                                                                                                  #  INPUT
000064:                                                                                                  #        STATE VECTOR IN TEMPORARY STORAGE AREA
000065:                                                                                                  #        IF STATE VECTOR IS SCALED POS B27 AND VEL B5
000066:                                                                                                  #                SET X2 TO +2
000067:                                                                                                  #        IF STATE VECTOR IS SCALED POS B29 AND VEL B7
000068:                                                                                                  #                SET X2 TO 0
000069:
000070:                                                                                                  #  OUTPUT
000071:                                                                                                  #        R(T) IN RN, V(T) IN VN, T IN PIPTIME
000072:                                                                                                  #  OR
000073:                                                                                                  #        R(T) IN R-OTHER, V(T) IN V-OTHER        (T IS DEFINED BY T-OTHER)
000074:
000075: 13,2070                                           COUNT*   $$/GEOM
000076: 13,2070           43414        SVDWN2             BOF      RVQ                                   #  SW=1=AVETOMID DOING W-MATRIX INTEG.
000077: 13,2071           04756                                    AVEMIDSW
000078: 13,2072           26073                                    +1
000079: 13,2073           53775                           VLOAD    VSL*
000080: 13,2074           01521                                    TDELTAV
000081: 13,2075           57605                                    0          -7,2
000082: 13,2076           53655                           VAD      VSL*
000083: 13,2077           01535                                    RCV
000084: 13,2100           57576                                    0,2
000085: 13,2101           25221                           STOVL    RN
000086: 13,2102           01527                                    TNUV
000087: 13,2103           53257                           VSL*     VAD
000088: 13,2104           57602                                    0          -4,2
000089: 13,2105           01543                                    VCV
000090: 13,2106           77657                           VSL*
000091: 13,2107           57576                                    0,2
000092: 13,2110           15227                           STODL    VN
000093: 13,2111           01517                                    TET
000094: 13,2112           01235                           STORE    PIPTIME
000095: 13,2113           77616                           RVQ


000097: 13,2114           53775        SVDWN1             VLOAD    VSL*
000098: 13,2115           01521                                    TDELTAV
000099: 13,2116           57605                                    0          -7,2
000100: 13,2117           53655                           VAD      VSL*
000101: 13,2120           01535                                    RCV
000102: 13,2121           57576                                    0,2
000103: 13,2122           25720                           STOVL    R-OTHER
000104: 13,2123           01527                                    TNUV
000105: 13,2124           53257                           VSL*     VAD
000106: 13,2125           57602                                    0          -4,2
000107: 13,2126           01543                                    VCV
000108: 13,2127           77657                           VSL*
000109: 13,2130           57576                                    0,2
000110: 13,2131           01726                           STORE    V-OTHER
000111: 13,2132           77616                           RVQ
000112:


000114:                                                                                                  #  THE FOLLOWING ROUTINE TAKES A HALF UNIT TARGET VECTOR REFERRED TO NAV BASE COORDINATES AND FINDS BOTH
000115:                                                                                                  #  GIMBAL ORIENTATIONS AT WHICH THE RR MIGHT SIGHT THE TARGET.  THE GIMBAL ANGLES CORRESPONDING TO THE PRESENT MODE
000116:                                                                                                  #  ARE LEFT IN MODEA AND THOSE WHICH WOULD BE USED AFTER A REMODE IN MODEB.  THIS ROUTINE ASSUMES MODE 1 IS TRUNNION
000117:                                                                                                  #  ANGLE LESS THAN 90 DEGS IN ABS VALUE WITH ARBITRARY SHAFT, WITH A CORRESPONDING DEFINITION FOR MODE 2.  MODE
000118:                                                                                                  #  SELECTION AND LIMIT CHECKING ARE DONE ELSEWHERE.
000119:
000120:                                                                                                  #  THE MODE 1 CONFIGURATION IS CALCULATED FROM THE VECTOR AND THEN MODE 2 IS FOUND USING THE RELATIONS
000121:
000122:                                                                                                  #        S(2) = 180 + S(1)
000123:                                                                                                  #        T(2) = 180 - T(1)
000124:
000125:                                                                                                  #  THE VECTOR ARRIVES IN MPAC WHERE TRG*SMNG OR *SMNB* WILL HAVE LEFT IT.
000126:
000127: 13,2133           00041        RRANGLES           STORE    32D
000128: 13,2134           57545                           DLOAD    DCOMP                                 #  SINCE WE WILL FIND THE MODE 1 SHAFT
000129: 13,2135           00043                                    34D                                   #  ANGLE LATER, WE CAN FIND THE MODE 1
000130: 13,2136           67401                           SETPD    ASIN                                  #  TRUNNION BY SIMPLY TAKING THE ARCSIN OF
000131: 13,2137           00001                                    0                                     #  THE Y COMPONENT, THE ASIN GIVING AN
000132: 13,2140           44206                           PUSH     BDSU                                  #  ANSWER WHOSE ABS VAL IS LESS THAN 90 DEG
000133: 13,2141           24005                                    LODPHALF
000134: 13,2142           14005                           STODL    4                                     #  MODE 2 TRUNNION TO 4.
000135:
000136: 13,2143           24007                                    LO6ZEROS
000137: 13,2144           24043                           STOVL    34D                                   #  UNIT THE PROJECTION OF THE VECTOR
000138: 13,2145           00041                                    32D                                   #        IN THE X-Z PLANE
000139: 13,2146           41056                           UNIT     BOVB                                  #  IF OVERFLOW, TARGET VECTOR IS ALONG Y
000140: 13,2147           52421                                    LUNDESCH                              #  CALL FOR MANEUVER UNLESS ON LUNAR SURF
000141: 13,2150           14041                           STODL    32D                                   #  PROJECTION VECTOR.
000142: 13,2151           00041                                    32D
000143: 13,2152           44142                           SR1      STQ
000144: 13,2153           00051                                    S2
000145: 13,2154           14023                           STODL    SINTH                                 #  USE ARCTRIG SINCE SHAFT COULD BE ARB.
000146: 13,2155           00045                                    36D
000147: 13,2156           77742                           SR1
000148: 13,2157           34021                           STCALL   COSTH
000149: 13,2160           47320                                    ARCTRIG


000151: 13,2161           43206                           PUSH     DAD                                   #  MODE 1 SHAFT TO 2.
000152: 13,2162           24005                                    LODPHALF
000153: 13,2163           24007                           STOVL    6
000154: 13,2164           00005                                    4
000155: 13,2165           77634                           RTB                                            #  FIND MODE 2 CDU ANGLES.
000156: 13,2166           21635                                    2V1STO2S
000157: 13,2167           25112                           STOVL    MODEB
000158: 13,2170           00001                                    0
000159: 13,2171           77634                           RTB                                            #  MODE 1 ANGLES TO MODE A.
000160: 13,2172           21635                                    2V1STO2S
000161: 13,2173           01110                           STORE    MODEA
000162: 13,2174           77776                           EXIT
000163:
000164: 13,2175           40110                           CS       RADMODES                              #  SWAP MODEA AND MODEB IF RR IN MODE 2.
000165: 13,2176           74740                           MASK     ANTENBIT
000166: 13,2177           10000                           CCS      A
000167: 13,2200           12204                           TCF      +4
000168:
000169: 13,2201           53110                           DXCH     MODEA
000170: 13,2202           53112                           DXCH     MODEB
000171: 13,2203           53110                           DXCH     MODEA
000172:
000173: 13,2204           06037                           TC       INTPRET
000174: 13,2205           77650                           GOTO
000175: 13,2206           00051                                    S2


000177:                                                                                                  #  GIVEN RR TRUNNION AND SHAFT (T,S) IN TANGNB,+1, FIND THE ASSOCIATED
000178:                                                                                                  #  LINE OF SIGHT IN NAV BASE AXES.  THE HALF UNIT VECTOR, .5(SIN(S)COS(T),
000179:                                                                                                  #  -SIN(T),COS(S)COS(T)) IS LEFT IN MPAC AND 32D.
000180:
000181: 23,2000                                           SETLOC   INFLIGHT
000182: 23,2000                                           BANK
000183:
000184: 23,2041                                           COUNT*   $$/GEOM
000185:
000186: 23,2041           47135        RRNB               SLOAD    RTB
000187: 23,2042           03753                                    TANGNB
000188: 23,2043           21576                                    CDULOGIC
000189: 23,2044           41401                           SETPD    PUSH                                  #  TRUNNION ANGLE TO 0
000190: 23,2045           00001                                    0
000191: 23,2046           57556                           SIN      DCOMP
000192: 23,2047           14043                           STODL    34D                                   #  Y COMPONENT
000193:
000194: 23,2050           41546                           COS      PUSH                                  #  .5 COS(T) TO 0
000195: 23,2051           47135                           SLOAD    RTB
000196: 23,2052           03754                                    TANGNB     +1
000197: 23,2053           21576                                    CDULOGIC
000198: 23,2054           71406        RRNB1              PUSH     COS                                   #  SHAFT ANGLE TO 2
000199: 23,2055           72405                           DMP      SL1
000200: 23,2056           00001                                    0
000201: 23,2057           14045                           STODL    36D                                   #  Z COMPONENT
000202:
000203: 23,2060           41356                           SIN      DMP
000204: 23,2061           77752                           SL1
000205: 23,2062           24041                           STOVL    32D
000206: 23,2063           00041                                    32D
000207: 23,2064           77616                           RVQ
000208:
000209:                                                                                                  #  THIS ENTRY TO RRNB REQUIRES THE TRUNNION AND SHAFT ANGLES IN MPAC AND MPAC +1 RESPECTIVELY
000210:
000211: 23,2065           14025        RRNBMPAC           STODL    20D                                   #  SAVE SHAFT CDU IN 21.
000212: 23,2066           00155                                    MPAC                                  #  SET MODE TO DP.  (THE PRECEEDING STORE
000213:                                                                                                  #  MAY BE DP, TP OR VECTOR.)
000214: 23,2067           40234                           RTB      SETPD
000215: 23,2070           21576                                    CDULOGIC
000216: 23,2071           00001                                    0
000217: 23,2072           73406                           PUSH     SIN                                   #  TRUNNION ANGLE TO 0
000218: 23,2073           77676                           DCOMP
000219: 23,2074           14043                           STODL    34D                                   #  Y COMPONENT
000220: 23,2075           41546                           COS      PUSH                                  #  .5COS(T) TO 0
000221: 23,2076           47135                           SLOAD    RTB                                   #  PICK UP CDU'S.
000222: 23,2077           00026                                    21D
000223: 23,2100           21576                                    CDULOGIC
000224: 23,2101           77650                           GOTO
000225: 23,2102           46054                                    RRNB1


000228:
000229:

End of include-file LEM_GEOMETRY.agc.  Parent file is MAIN.agc


