
Source Code


000002:                                                                                                  ## Copyright:   Public domain.
000003:                                                                                                  ## Filename:    LUNAR_AND_SOLAR_EPHEMERIDES_SUBROUTINES.agc
000004:                                                                                                  ## Purpose:     Part of the reconstructed source code for LMY99 Rev 0,
000005:                                                                                                  ##              otherwise known as Luminary Rev 99, the third release
000006:                                                                                                  ##              of the Apollo Guidance Computer (AGC) software for Apollo 11.
000007:                                                                                                  ##              It differs from LMY99 Rev 1 (the flown version) only in the
000008:                                                                                                  ##              placement of a single label. The corrections shown here have
000009:                                                                                                  ##              been verified to have the same bank checksums as AGC developer
000010:                                                                                                  ##              Allan Klumpp's copy of Luminary Rev 99, and so are believed
000011:                                                                                                  ##              to be accurate. This file is intended to be a faithful
000012:                                                                                                  ##              recreation, except that the code format has been changed to
000013:                                                                                                  ##              conform to the requirements of the yaYUL assembler rather than
000014:                                                                                                  ##              the original YUL assembler.
000015:                                                                                                  ##
000016:                                                                                                  ## Assembler:   yaYUL
000017:                                                                                                  ## Contact:     Hartmuth Gutsche <hgutsche@xplornet.com>.
000018:                                                                                                  ## Website:     www.ibiblio.org/apollo.
000019:                                                                                                  ## Pages:       984-987
000020:                                                                                                  ## Mod history: 2009-05-24 HG   Transcribed from page images.
000021:                                                                                                  ##              2016-12-17 RSB  Proofed text comments with octopus/ProoferComments
000022:                                                                                                  ##                              and corrected the errors found.
000023:                                                                                                  ##              2017-03-13 RSB  Comment-text fixes noted in proofing Luminary 116.
000024:                                                                                                  ##              2017-08-01 MAS  Created from LMY99 Rev 1.
000025:                                                                                                  ##              2017-08-26 MAS  Fixed comment-text errors found while transcribing Zerlina 56.
000026:
000027:                                                                                                  ## This source code has been transcribed or otherwise adapted from
000028:                                                                                                  ## digitized images of a hardcopy from the MIT Museum.  The digitization
000029:                                                                                                  ## was performed by Paul Fjeld, and arranged for by Deborah Douglas of
000030:                                                                                                  ## the Museum.  Many thanks to both.  The images (with suitable reduction
000031:                                                                                                  ## in storage size and consequent reduction in image quality as well) are
000032:                                                                                                  ## available online at www.ibiblio.org/apollo.  If for some reason you
000033:                                                                                                  ## find that the images are illegible, contact me at info@sandroid.org
000034:                                                                                                  ## about getting access to the (much) higher-quality images which Paul
000035:                                                                                                  ## actually created.
000036:                                                                                                  ##
000037:                                                                                                  ## The code has been modified to match LMY99 Revision 0, otherwise
000038:                                                                                                  ## known as Luminary Revision 99, the Apollo 11 software release preceeding
000039:                                                                                                  ## the listing from which it was transcribed. It has been verified to
000040:                                                                                                  ## contain the same bank checksums as AGC developer Allan Klumpp's listing
000041:                                                                                                  ## of Luminary Revision 99 (for which we do not have scans).
000042:                                                                                                  ##
000043:                                                                                                  ## Notations on Allan Klumpp's listing read, in part:
000044:                                                                                                  ##
000045:                                                                                                  ##      ASSEMBLE REVISION 099 OF AGC PROGRAM LUMINARY BY NASA 2021112-51
000046:


000048:                                                                                                  #  NAME - LSPOS - LOCATE SUN AND MOON                    DATE - 25 OCT 67
000049:                                                                                                  #  MOD NO. 1
000050:                                                                                                  #  MOD BY NEVILLE                                        ASSEMBLY SUNDANCE
000051:
000052:                                                                                                  #  FUNCTIONAL DESCRIPTION
000053:
000054:                                                                                                  #         COMPUTES UNIT POSITION VECTOR OF THE SUN AND MOON IN THE BASIC REFERENCE SYSTEM. THE SUN VECTOR S IS
000055:                                                                                                  #  LOCATED VIA TWO ANGLES. THE FIRST ANGLE(OBLIQUITY) IS THE ANGLE BETWEEN THE EARTH EQUATOR AND THE ECLIPTIC. THE
000056:                                                                                                  #  SECOND ANGLE IS THE LONGITUDE OF THE SUN MEASURED IN THE ECLIPTIC.
000057:                                                                                                  #  THE POSITION VECTOR OF THE SUN IS
000058:                                                                                                  #        -
000059:                                                                                                  #        S = (COS(LOS), COS(OBL)*SIN(LOS), SIN(OBL)*SIN(LOS)), WHERE
000060:
000061:                                                                                                  #        LOS = LOS +LOS *T-(C *SIN(2PI*T)/365.24 +C *COS(2PI*T)/365.24)
000062:                                                                                                  #                 0    R     0                     1
000063:                                                                                                  #        LOS  (RAD) IS THE LONGITUDE OF THE SUN FOR MIDNIGHT JUNE 30TH OF THE PARTICULAR YEAR.
000064:                                                                                                  #           0
000065:                                                                                                  #        LOS  (RAD/DAY) IS THE MEAN RATE FOR THE PARTICULAR YEAR.
000066:                                                                                                  #           R
000067:
000068:                                                                                                  #  LOS  AND LOS  ARE STORED AS LOSC AND LOSR IN RATESP.
000069:                                                                                                  #     0        R
000070:                                                                                                  #  COS(OBL) AND SIN(OBL) ARE STORED IN THE MATRIX KONMAT.
000071:
000072:                                                                                                  #  T, TIME MEASURED IN DAYS (24 HOURS), IS STORED IN TIMEP.
000073:
000074:                                                                                                  #  C  AND C  ARE FUDGE FACTORS TO MINIMIZE THE DEVIATION.  THEY ARE STORED AS ONE CONSTANT (CMOD), SINCE
000075:                                                                                                  #   0      1                               2  2 1/2
000076:                                                                                                  #  C *SIN(X)+C *COS(X) CAN BE WRITTEN AS (C +C )   *SIN(X+PHI), WHERE PHI=ARCTAN(C /C ).
000077:                                                                                                  #   0         1                            0  1                                   1  0
000078:
000079:                                                                                                  #  THE MOON IS LOCATED VIA FOUR ANGLES. THE FIRST IS THE OBLIQUITY. THE SECOND IS THE MEAN LONGITUDE OF THE MOON,
000080:                                                                                                  #  MEASURED IN THE ECLIPTIC FROM THE MEAN EQUINOX TO THE MEAN ASCENDING NODE OF THE LUNAR ORBIT, AND THEN ALONG THE
000081:                                                                                                  #  ORBIT.  THE THIRD ANGLE IS THE ANGLE BETWEEN THE ECLIPTIC AND THE LUNAR ORBIT.  THE FOURTH ANGLE IS THE LONGITUDE
000082:                                                                                                  #  OF THE NODE OF THE MOON, MEASURED IN THE LUNAR ORBIT.  LET THESE ANGLES BE OBL,LOM,IM, AND LON RESPECTIVELY.
000083:
000084:                                                                                                  #  THE SIMPLIFIED POSITION VECTOR OF THE MOON IS
000085:                                                                                                  #        -
000086:                                                                                                  #        M=(COS(LOM), COS(OBL)*SIN(LOM)-SIN(OBL)*SIN(IM)*SIN(LOM-LON), SIN(OBL)*SIN(LOM)+COS(OBL)*SIN(IM)*SIN(LOM-LON))
000087:
000088:                                                                                                  #  WHERE
000089:                                                                                                  #        LOM=LOM +LOM *T-(A *SIN 2PI*T/27.5545+A *COS(2PI*T/27.5545)+B *SIN 2PI*T/32+B *COS(2PI*T/32)), AND
000090:                                                                                                  #               0    R     0                    1                     0               1
000091:                                                                                                  #        LON=LON +LON
000092:                                                                                                  #               0    R
000093:                                                                                                  #  A , A , B  AND B  ARE STORED AS AMOD AND BMOD (SEE DESCRIPTION OF CMOD, ABOVE).  COS(OBL), SIN(OBL)*SIN(IM),
000094:                                                                                                  #   0   1   0      1
000095:                                                                                                  #  SIN(OBL), AND COS(OBL)*SIN(IM) ARE STORED IN KONMAT AS K1, K2, K3 AND K4, RESPECTIVELY.  LOM , LOM , LON , LON
000096:                                                                                                  #  ARE STORED AS LOMO, LOMR, LONO, AND LONR IN RATESP.                                         0     R     0     R
000097:                                                                                                  #  THE THREE PHIS ARE STORED AS AARG, BARG, AND CARG(SUN).  ALL CONSTANTS ARE UPDATED BY YEAR.
000098:
000099:                                                                                                  #  CALLING SEQUENCE


000101:                                                                                                  #        CALL LSPOS.  RETURN IS VIA CPRET.
000102:
000103:                                                                                                  #  ALARMS OR ABORTS
000104:                                                                                                  #        NONE
000105:
000106:                                                                                                  #  ERASABLE INITIALIZATION REQUIRED
000107:                                                                                                  #        TEPHEM - TIME FROM MIDNIGHT 1 JULY PRECEDING THE LAUNCH TO THE TIME OF THE LAUNCH (WHEN THE AGC CLOCK WENT
000108:                                                                                                  #        TO ZERO).  TEPHEM IS TP WITH UNITS OF CENTI-SECONDS.
000109:
000110:                                                                                                  #        TIME2 AND TIME1 ARE IN MPAC AND MPAC +1 WHEN PROGRAM IS CALLED.
000111:
000112:                                                                                                  #  OUTPUT
000113:                                                                                                  #        UNIT POSITIONAL VECTOR OF SUN IN VSUN.  (SCALED B-1)
000114:                                                                                                  #        UNIT POSITIONAL VECTOR OF MOON IN VMOON.  (SCALED B-1)
000115:
000116:                                                                                                  #  SUBROUTINES USED
000117:                                                                                                  #        NONE
000118:
000119:                                                                                                  #  DEBRIS
000120:                                                                                                  #        CURRENT CORE SET, WORK AREA AND FREEFLAG
000121:
000122: 04,3027                                           BANK     04
000123: 15,2000                                           SETLOC   EPHEM
000124: 15,2000                                           BANK
000125:
000126: 15,3664  E5,1714                                  EBANK=   VSUN
000127: 15,3664                                           COUNT*   $$/EPHEM
000128: 15,3664  15,3664               LUNPOS             EQUALS   LSPOS
000129:
000130: 15,3664           54201        LSPOS              SETPD    SR
000131: 15,3665           00001                                    0
000132: 15,3666           20617                                    14D                                   #  TP
000133: 15,3667           56371                           TAD      DDV


000135: 15,3670           01707                                    TEPHEM                                #  TIME OF LAUNCH
000136: 15,3671           12024                                    CSTODAY                               #  24 HOURS-8640000 CENTI-SECS/DAY B-33


000138: 15,3672           00031                           STORE    TIMEP                                 #  T IN DAYS


000140: 15,3673           77170                           AXT,1    AXT,2
000141: 15,3674           00000                                    0
000142: 15,3675           00000                                    0
000143: 15,3676           77614                           CLEAR
000144: 15,3677           00274                                    FREEFLAG                              #  SWITCH BIT
000145: 15,3700           77745        POSITA             DLOAD
000146: 15,3701           12004                                    KONMAT     +2                         #  ZEROS
000147: 15,3702           00027                           STORE    GTMP
000148: 15,3703           40745        POSITB             DLOAD    DMP*
000149: 15,3704           00031                                    TIMEP                                 #  T
000150: 15,3705           12050                                    VAL67      +4,1                       #  1/27 OR 1/32 OR 1/365


000152: 15,3706           42661                           SL       DAD*
000153: 15,3707           20211                                    8D
000154: 15,3710           12046                                    VAL67      +2,1                       #  AARG
000155: 15,3711           40756                           SIN      DMP*                                  #  SIN(T/27+PHI) OR T/32 OR T/365
000156: 15,3712           12044                                    VAL67,1                               #  (A0**2+A1**2)**1/2 SIN(X+PHIA)
000157: 15,3713           62015                           DAD      INCR,1                                #  PLUS
000158: 15,3714           00027                                    GTMP                                  #  (B0**2+B1**2)**1/2 SIN(X+PHIB)
000159: 15,3715           77771                           DEC      -6         B-14
000160: 15,3716           00027                           STORE    GTMP                                  #  OR (C0**2+C1**2)**1/2 SIN(X+PHIC)
000161: 15,3717           77614                           BOFSET
000162: 15,3720           00054                                    FREEFLAG
000163: 15,3721           33703                                    POSITB
000164: 15,3722           40745        POSITD             DLOAD    DMP*
000165: 15,3723           00031                                    TIMEP                                 #  T
000166: 15,3724           65747                                    RATESP,2                              #  LOMR,LOSR,LONR
000167: 15,3725           42661                           SL       DAD*
000168: 15,3726           20206                                    5D
000169: 15,3727           65741                                    RATESP     +6,2                       #  LOMO,LOSO,LONO
000170: 15,3730           77625                           DSU
000171: 15,3731           00027                                    GTMP
000172: 15,3732           10021                           STORE    STMP,2                                #  LOM,LOS,LON
000173: 15,3733           63135                           SLOAD    INCR,2
000174: 15,3734           00050                                    X2
000175: 15,3735           77775                           DEC      -2         B-14
000176: 15,3736           53015                           DAD      BZE
000177: 15,3737           12026                                    RCB-13                                #  PLUS 2
000178: 15,3740           33770                                    POSITE                                #  2ND
000179: 15,3741           77644                           BPL
000180: 15,3742           33700                                    POSITA                                #  1ST
000181: 15,3743           45345        POSITF             DLOAD    DSU                                   #  3RD
000182: 15,3744           00021                                    STMP                                  #  LOM
000183: 15,3745           00025                                    STMP       +4                         #  LON
000184: 15,3746           65356                           SIN      PDDL                                  #  SIN(LOM-LON)
000185: 15,3747           00021                                    STMP
000186: 15,3750           65356                           SIN      PDDL                                  #  SIN LOM
000187: 15,3751           00021                                    STMP
000188: 15,3752           55546                           COS      VDEF                                  #  COS LOM
000189: 15,3753           53521                           MXV      UNIT
000190: 15,3754           12002                                    KONMAT                                #  K1,K2,K3,K4,
000191: 15,3755           02723                           STORE    VMOON
000192: 15,3756           65345                           DLOAD    PDDL
000193: 15,3757           12004                                    KONMAT     +2                         #  ZERO
000194: 15,3760           00023                                    STMP       +2
000195: 15,3761           65356                           SIN      PDDL                                  #  SIN LOS
000196: 15,3762           00023                                    STMP       +2
000197: 15,3763           55546                           COS      VDEF                                  #  COS LOS
000198: 15,3764           53521                           MXV      UNIT
000199: 15,3765           12002                                    KONMAT
000200: 15,3766           02715                           STORE    VSUN
000201: 15,3767           77616                           RVQ


000203: 15,3770           77745        POSITE             DLOAD
000204: 15,3771           12004                                    KONMAT     +2                         #  ZEROS
000205: 15,3772           00027                           STORE    GTMP
000206: 15,3773           77650                           GOTO
000207: 15,3774           33722                                    POSITD
000208: 15,3775           77616        LUNVEL             RVQ                                            #         TO FOOL INTEGRATION
000209: 05,2000                                           SETLOC   EPHEM1
000210: 05,2000                                           BANK
000211:
000212: 05,3506                                           COUNT*   $$/EPHEM
000213: 05,3506                        STMP               EQUALS   16D
000214: 05,3506                        GTMP               EQUALS   22D
000215: 05,3506                        TIMEP              EQUALS   24D
000216:

End of include-file LUNAR_AND_SOLAR_EPHEMERIDES_SUBROUTINES.agc.  Parent file is MAIN.agc


