
Source Code


000002:                                                                                                  ## Copyright:   Public domain.
000003:                                                                                                  ## Filename:    P30,P37.agc
000004:                                                                                                  ## Purpose:     Part of the reconstructed source code for LMY99 Rev 0,
000005:                                                                                                  ##              otherwise known as Luminary Rev 99, the second release
000006:                                                                                                  ##              of the Apollo Guidance Computer (AGC) software for Apollo 11.
000007:                                                                                                  ##              It differs from LMY99 Rev 1 (the flown version) only in the
000008:                                                                                                  ##              placement of a single label. The corrections shown here have
000009:                                                                                                  ##              been verified to have the same bank checksums as AGC developer
000010:                                                                                                  ##              Allan Klumpp's copy of Luminary Rev 99, and so are believed
000011:                                                                                                  ##              to be accurate. This file is intended to be a faithful
000012:                                                                                                  ##              recreation, except that the code format has been changed to
000013:                                                                                                  ##              conform to the requirements of the yaYUL assembler rather than
000014:                                                                                                  ##              the original YUL assembler.
000015:                                                                                                  ##
000016:                                                                                                  ## Assembler:   yaYUL
000017:                                                                                                  ## Contact:     Ron Burkey <info@sandroid.org>.
000018:                                                                                                  ## Website:     www.ibiblio.org/apollo.
000019:                                                                                                  ## Pages:       614-617
000020:                                                                                                  ## Mod history: 2009-05-17 RSB  Adapted from the corresponding
000021:                                                                                                  ##                              Luminary131 file, using page
000022:                                                                                                  ##                              images from Luminary 1A.
000023:                                                                                                  ##              2009-06-05 RSB  Removed 4 lines of code that shouldn't
000024:                                                                                                  ##                              have survived from Luminary 131.
000025:                                                                                                  ##              2016-12-13 RSB  GOTOP00H -> GOTOPOOH
000026:                                                                                                  ##              2016-12-14 RSB  VNP00H -> VNPOOH.
000027:                                                                                                  ##              2016-12-14 RSB  Proofed text comments with octopus/ProoferComments
000028:                                                                                                  ##                              and corrected the errors found.
000029:                                                                                                  ##              2017-08-01 MAS  Created from LMY99 Rev 1.
000030:
000031:                                                                                                  ## This source code has been transcribed or otherwise adapted from
000032:                                                                                                  ## digitized images of a hardcopy from the MIT Museum.  The digitization
000033:                                                                                                  ## was performed by Paul Fjeld, and arranged for by Deborah Douglas of
000034:                                                                                                  ## the Museum.  Many thanks to both.  The images (with suitable reduction
000035:                                                                                                  ## in storage size and consequent reduction in image quality as well) are
000036:                                                                                                  ## available online at www.ibiblio.org/apollo.  If for some reason you
000037:                                                                                                  ## find that the images are illegible, contact me at info@sandroid.org
000038:                                                                                                  ## about getting access to the (much) higher-quality images which Paul
000039:                                                                                                  ## actually created.
000040:                                                                                                  ##
000041:                                                                                                  ## The code has been modified to match LMY99 Revision 0, otherwise
000042:                                                                                                  ## known as Luminary Revision 99, the Apollo 11 software release preceeding
000043:                                                                                                  ## the listing from which it was transcribed. It has been verified to
000044:                                                                                                  ## contain the same bank checksums as AGC developer Allan Klumpp's listing
000045:                                                                                                  ## of Luminary Revision 99 (for which we do not have scans).
000046:                                                                                                  ##
000047:                                                                                                  ## Notations on Allan Klumpp's listing read, in part:
000048:                                                                                                  ##
000049:                                                                                                  ##      ASSEMBLE REVISION 099 OF AGC PROGRAM LUMINARY BY NASA 2021112-51
000050:


000052:                                                                                                  #  PROGRAM DESCRIPTION P30       DATE 3-6-67
000053:
000054:                                                                                                  #  MOD.1 BY RAMA AIYAWAR
000055:
000056:                                                                                                  #  FUNCTIONAL DESCRIPTION
000057:                                                                                                  #        ACCEPT ASTRONAUT INPUTS OF TIG,DELV(LV)
000058:                                                                                                  #        CALL IMU STATUS CHECK ROUTINE (R02)
000059:                                                                                                  #        DISPLAY TIME TO GO, APOGEE, PERIGEE, DELV(MAG), MGA AT IGN
000060:                                                                                                  #        REQUEST BURN PROGRAM
000061:
000062:                                                                                                  #  CALLING SEQUENCE VIA JOB FROM V37
000063:
000064:                                                                                                  #  EXIT VIA V37 CALL OR TO GOTOPOOH (V34E)
000065:
000066:                                                                                                  #  SUBROUTINE CALLS -    FLAGUP, PHASCHNG, BANKCALL, ENDOFJOB, GOFLASH, GOFLASHR
000067:                                                                                                  #                        GOPERF3R, INTPRET, BLANKET, GOTOPOOH, R02BOTH, S30.1,
000068:                                                                                                  #                        TTG/N35, MIDGIM, DISPMGA
000069:
000070:                                                                                                  #  ERASABLE INITIALIZATION - STATE VECTOR
000071:
000072:                                                                                                  #  OUTPUT -      RINIT, VINIT, +MGA, VTIG, RTIG, DELVSIN, DELVSAB, DELVSLV, HAPO,
000073:                                                                                                  #                HPER, TTOGO
000074:
000075:                                                                                                  #  DEBRIS - A, L, MPAC, PUSHLIST
000076:
000077: 32,2776                                           BANK     32
000078: 35,2000                                           SETLOC   P30S
000079: 35,2000                                           BANK
000080: 35,2000  E4,1652                                  EBANK=   +MGA
000081: 35,2000                                           COUNT*   $$/P30
000082: 35,2000           05504        P30                TC       UPFLAG                                #  SET UPDATE FLAG
000083: 35,2001           00027                           ADRES    UPDATFLG
000084: 35,2002           05504                           TC       UPFLAG                                #  SET TRACK FLAG
000085: 35,2003           00031                           ADRES    TRACKFLG
000086:
000087: 35,2004           32025        P30N33             CAF      V06N33                                #  T OF IGN
000088: 35,2005           03712                           TC       VNPOOH                                #  RETURNS ON PROCEED, POOH ON TERMINATE
000089:
000090: 35,2006           33727                           CAF      V06N81                                #  DISPLAY DELTA V (LV)
000091: 35,2007           03712                           TC       VNPOOH                                #        REDISPLAY ON RECYCLE
000092:
000093: 35,2010           05516                           TC       DOWNFLAG                              #  RESET UPDATE FLAG
000094: 35,2011           00027                           ADRES    UPDATFLG
000095: 35,2012           06037                           TC       INTPRET
000096: 35,2013           77624                           CALL
000097: 35,2014           70000                                    S30.1
000098: 35,2015           77414                           SET      EXIT
000099: 35,2016           00470                                    UPDATFLG
000100: 35,2017           32026        PARAM30            CAF      V06N42                                #  DISPLAY APOGEE,PERIGEE,DELTA V
000101: 35,2020           03712                           TC       VNPOOH


000103:
000104: 35,2021           06037                           TC       INTPRET
000105: 35,2022           77614                           SETGO
000106: 35,2023           01027                                    XDELVFLG                              #  FOR P40'S: EXTERNAL DELTA-V GUIDANCE.
000107: 35,2024           72540                                    REVN1645                              #  TRKMKCNT, TGO, +MGA  DISPLAY
000108:
000109: 35,2025           01441        V06N33             VN       0633
000110: 35,2026           01452        V06N42             VN       0642
000111:


000113:                                                                                                  #  PROGRAM DESCRIPTION S30.1     DATE 9NOV66
000114:                                                                                                  #  MOD NO 1                      LOG SECTION P30,P37
000115:                                                                                                  #  MOD BY RAMA AIYAWAR **
000116:
000117:                                                                                                  #  FUNCTIONAL DESCRIPTION
000118:                                                                                                  #        BASED ON STORED TARGET PARAMETERS (R OF IGNITION (RTIG), V OF
000119:                                                                                                  #        IGNITION (VTIG), TIME OF IGNITION (TIG)), COMPUTE PERIGEE ALTITUDE
000120:                                                                                                  #        APOGEE ALTITUDE AND DELTAV REQUIRED (DELVSIN).
000121:
000122:                                                                                                  #  CALLING SEQUENCE
000123:                                                                                                  #        L       CALL
000124:                                                                                                  #        L+1             S30.1
000125:
000126:                                                                                                  #  NORMAL EXIT MODE
000127:                                                                                                  #        AT L+2 OR CALLING SEQUENCE (GOTO L+2)
000128:
000129:                                                                                                  #  SUBROUTINES CALLED
000130:                                                                                                  #        LEMPREC
000131:                                                                                                  #        PERIAPO
000132:
000133:                                                                                                  #  ALARM OR ABORT EXIT MODES
000134:                                                                                                  #        NONE
000135:
000136:                                                                                                  #  ERASABLE INITIALIZATION REQUIRED
000137:                                                                                                  #        TIG             TIME OF IGNITION        DP B28CS
000138:                                                                                                  #        DELVSLV         SPECIFIED DELTA-V IN LOCAL VERT.
000139:                                                                                                  #                        COORDS. OF ACTIVE VEHICLE AT
000140:                                                                                                  #                        TIME OF IGNITION        VECTOR B+7 METERS/CS
000141:
000142:                                                                                                  #  OUTPUT
000143:                                                                                                  #        RTIG            POSITION AT TIG         VECTOR B+29 METERS
000144:                                                                                                  #        VTIG            VELOCITY AT TIG         VECTOR B+29 METERS/CS
000145:                                                                                                  #        PDL 4D          APOGEE ALTITUDE         DP B+29 M, B+27 METERS.
000146:                                                                                                  #        HAPO            APOGEE ALTITUDE         DP B+29 METERS
000147:                                                                                                  #        PDL 8D          PERIGEE ALTITUDE        DP B+29 M, B+27 METERS.
000148:                                                                                                  #        HPER            PERIGEE ALTITUDE        DP B+29 METERS
000149:                                                                                                  #        DELVSIN         SPECIFIED DELTA-V IN INERTIAL
000150:                                                                                                  #                        COORD. OF ACTIVE VEHICLE AT
000151:                                                                                                  #                        TIME OF IGNITION        VECTOR B+7 METERS/CS
000152:                                                                                                  #        DELVSAB         MAG. OF DELVSIN         VECTOR B+7 METERS/CS
000153:
000154:                                                                                                  #  DEBRIS        QTEMP   TEMP.ERASABLE
000155:                                                                                                  #                QPRET, MPAC
000156:                                                                                                  #                PUSHLIST
000157:
000158: 34,2000                                           SETLOC   P30S1
000159: 34,2000                                           BANK
000160:
000161: 34,2000                                           COUNT*   $$/S30S
000162:
000163: 34,2000           71220        S30.1              STQ      DLOAD
000164: 34,2001           03632                                    QTEMP
000165: 34,2002           03442                                    TIG                                   #  TIME IGNITION SCALED AT 2(+28)CS
000166: 34,2003           34041                           STCALL   TDEC1
000167: 34,2004           27057                                    LEMPREC                               #  ENCKE ROUTINE FOR LEM
000168:
000169: 34,2005           67175                           VLOAD    SXA,2


000171: 34,2006           00001                                    RATT
000172: 34,2007           02777                                    RTX2
000173: 34,2010           03642                           STORE    RTIG                                  #  RADIUS VECTOR AT IGNITION TIME
000174: 34,2011           57456                           UNIT     VCOMP
000175: 34,2012           27656                           STOVL    DELVSIN                               #  ZRF/LV IN DELVSIN SCALED AT 2
000176: 34,2013           00007                                    VATT                                  #  VELOCITY VECTOR AT TIG, SCALED 2(7) M/CS
000177: 34,2014           03650                           STORE    VTIG
000178: 34,2015           53435                           VXV      UNIT
000179: 34,2016           03642                                    RTIG
000180: 34,2017           66001                           SETPD    SXA,1
000181: 34,2020           00001                                    0
000182: 34,2021           02776                                    RTX1
000183: 34,2022           47206                           PUSH     VXV                                   #  YRF/LV PDL 0 SCALED AT 2
000184: 34,2023           03656                                    DELVSIN
000185: 34,2024           63372                           VSL1     PDVL
000186: 34,2025           63315                           PDVL     PDVL                                  #  YRF/LV PDL 6 SCALED AT 2
000187: 34,2026           03656                                    DELVSIN                               #  ZRF/LV PDL 12D SCALED AT 2
000188: 34,2027           03434                                    DELVSLV
000189: 34,2030           76505                           VXM      VSL1
000190: 34,2031           00001                                    0
000191: 34,2032           03656                           STORE    DELVSIN                               #  DELTAV IN INERT. COOR. SCALED TO B+7M/CS
000192: 34,2033           77646                           ABVAL
000193: 34,2034           27664                           STOVL    DELVSAB                               #  DELTA V MAG.
000194: 34,2035           03642                                    RTIG                                  #  (FOR PERIAPO)
000195: 34,2036           53315                           PDVL     VAD                                   #  VREQUIRED = VTIG + DELVSIN (FOR PERIAPO)
000196: 34,2037           03650                                    VTIG
000197: 34,2040           03656                                    DELVSIN
000198: 34,2041           77624                           CALL
000199: 34,2042           46316                                    PERIAPO1
000200: 34,2043           77624                           CALL
000201: 34,2044           46426                                    SHIFTR1                               #  RESCALE IF NEEDED
000202: 34,2045           77624                           CALL                                           #  LIMIT DISPLAY TO 9999.9 N. MI.
000203: 34,2046           45636                                    MAXCHK
000204: 34,2047           16321                           STODL    HPER                                  #  PERIGEE ALT 2(29) METERS, FOR DISPLAY
000205: 34,2050           00005                                    4D
000206: 34,2051           77624                           CALL
000207: 34,2052           46426                                    SHIFTR1                               #  RESCALE IF NEEDED
000208: 34,2053           77624                           CALL                                           #  LIMIT DISPLAY TO 9999.9 N. MI.
000209: 34,2054           45636                                    MAXCHK
000210: 34,2055           36317                           STCALL   HAPO                                  #  APOGEE ALT 2(29) METERS, FOR DISPLAY
000211: 34,2056           03632                                    QTEMP
000212:
000213:

End of include-file P30,P37.agc.  Parent file is MAIN.agc


