
Source Code


000002:                                                                                                  ## Copyright:   Public domain.
000003:                                                                                                  ## Filename:    P34-P35,_P74-P75.agc
000004:                                                                                                  ## Purpose:     Part of the reconstructed source code for LMY99 Rev 0,
000005:                                                                                                  ##              otherwise known as Luminary Rev 99, the second release
000006:                                                                                                  ##              of the Apollo Guidance Computer (AGC) software for Apollo 11.
000007:                                                                                                  ##              It differs from LMY99 Rev 1 (the flown version) only in the
000008:                                                                                                  ##              placement of a single label. The corrections shown here have
000009:                                                                                                  ##              been verified to have the same bank checksums as AGC developer
000010:                                                                                                  ##              Allan Klumpp's copy of Luminary Rev 99, and so are believed
000011:                                                                                                  ##              to be accurate. This file is intended to be a faithful
000012:                                                                                                  ##              recreation, except that the code format has been changed to
000013:                                                                                                  ##              conform to the requirements of the yaYUL assembler rather than
000014:                                                                                                  ##              the original YUL assembler.
000015:                                                                                                  ##
000016:                                                                                                  ## Assembler:   yaYUL
000017:                                                                                                  ## Contact:     Ron Burkey <info@sandroid.org>.
000018:                                                                                                  ## Website:     www.ibiblio.org/apollo.
000019:                                                                                                  ## Pages:       658-702
000020:                                                                                                  ## Mod history: 2009-05-19 RSB  Adapted from the corresponding
000021:                                                                                                  ##                              Luminary131 file, using page
000022:                                                                                                  ##                              images from Luminary 1A.
000023:                                                                                                  ##              2009-06-05 RSB  Corrected a typo.
000024:                                                                                                  ##              2011-01-06 JL   Fixed pseudo-label indentation.
000025:                                                                                                  ##              2011-01-06 JL   Added missing comment characters.
000026:                                                                                                  ##              2011-05-07 JL   Removed workaround.
000027:                                                                                                  ##              2016-12-13 RSB  GOTOP00H -> GOTOPOOH
000028:                                                                                                  ##              2016-12-14 RSB  VNP00H -> VNPOOH.
000029:                                                                                                  ##              2016-12-14 RSB  Proofed text comments with octopus/ProoferComments
000030:                                                                                                  ##                              and corrected the errors found.
000031:                                                                                                  ##              2017-01-28 RSB  Back-ported some comment fixes I noticed while
000032:                                                                                                  ##                              proofing Luminary 69.
000033:                                                                                                  ##              2017-03-09 RSB  Comment-text fixes noted in proofing Luminary 116.
000034:                                                                                                  ##              2017-03-16 RSB  Comment-text fixes identified in 5-way
000035:                                                                                                  ##                              side-by-side diff of Luminary 69/99/116/131/210.
000036:                                                                                                  ##              2017-08-01 MAS  Created from LMY99 Rev 1.
000037:
000038:                                                                                                  ## This source code has been transcribed or otherwise adapted from
000039:                                                                                                  ## digitized images of a hardcopy from the MIT Museum.  The digitization
000040:                                                                                                  ## was performed by Paul Fjeld, and arranged for by Deborah Douglas of
000041:                                                                                                  ## the Museum.  Many thanks to both.  The images (with suitable reduction
000042:                                                                                                  ## in storage size and consequent reduction in image quality as well) are
000043:                                                                                                  ## available online at www.ibiblio.org/apollo.  If for some reason you
000044:                                                                                                  ## find that the images are illegible, contact me at info@sandroid.org
000045:                                                                                                  ## about getting access to the (much) higher-quality images which Paul
000046:                                                                                                  ## actually created.
000047:                                                                                                  ##
000048:                                                                                                  ## The code has been modified to match LMY99 Revision 0, otherwise
000049:                                                                                                  ## known as Luminary Revision 99, the Apollo 11 software release preceeding
000050:                                                                                                  ## the listing from which it was transcribed. It has been verified to
000051:                                                                                                  ## contain the same bank checksums as AGC developer Allan Klumpp's listing
000052:                                                                                                  ## of Luminary Revision 99 (for which we do not have scans).
000053:                                                                                                  ##
000054:                                                                                                  ## Notations on Allan Klumpp's listing read, in part:
000055:                                                                                                  ##
000056:                                                                                                  ##      ASSEMBLE REVISION 099 OF AGC PROGRAM LUMINARY BY NASA 2021112-51
000057:


000059:                                                                                                  #  TRANSFER PHASE INITIATION (TPI) PROGRAMS (P34 AND P74)
000060:
000061:                                                                                                  #  MOD NO -1                     LOG SECTION - P32-P35, P72-P75
000062:                                                                                                  #  MOD BY WHITE.P                DATE  1JUNE67
000063:
000064:                                                                                                  #  PURPOSE
000065:
000066:                                                                                                  #        (1)     TO CALCULATE THE REQUIRED DELTA V AND OTHER INITIAL CONDITIONS
000067:                                                                                                  #                REQUIRED BY THE ACTIVE VEHICLE FOR EXECUTION OF THE TRANSFER
000068:                                                                                                  #                PHASE INITIATION (TPI) MANEUVER, GIVEN -
000069:
000070:                                                                                                  #                (A)     TIME OF IGNITION TIG (TPI) OR THE ELEVATION ANGLE (E) OF
000071:                                                                                                  #                        THE ACTIVE/PASSIVE VEHICLE LOS AT TIG (TPI).
000072:
000073:                                                                                                  #                (B)     CENTRAL ANGLE OF TRANSFER (CENTANG) FROM TIG (TPI) TO
000074:                                                                                                  #                        INTERCEPT TIME (TIG (TPF)).
000075:
000076:                                                                                                  #        (2)     TO CALCULATE TIG (TPI) GIVEN E OR E GIVEN TIG (TPI).
000077:
000078:                                                                                                  #        (3)     TO CALCULATE THESE PARAMETERS BASED UPON MANEUVER DATA
000079:                                                                                                  #                APPROVED AND KEYED INTO THE DSKY BY THE ASTRONAUT.
000080:
000081:                                                                                                  #        (4)     TO DISPLAY TO THE ASTRONAUT AND THE GROUND CERTAIN DEPENDENT
000082:                                                                                                  #                VARIABLES ASSOCIATED WITH THE MANEUVER FOR APPROVAL BY THE
000083:                                                                                                  #                ASTRONAUT/GROUND.
000084:
000085:                                                                                                  #        (5)     TO STORE THE TPI TARGET PARAMETERS FOR USE BY THE DESIRED
000086:                                                                                                  #                THRUSTING PROGRAM.
000087:
000088:                                                                                                  #  ASSUMPTIONS
000089:
000090:                                                                                                  #        (1)     LM ONLY - THIS PROGRAM IS BASED UPON PREVIOUS COMPLETION OF
000091:                                                                                                  #                THE CONSTANT DELTA ALTITUDE (CDH) PROGRAM (P33/P73).
000092:                                                                                                  #                THEREFORE -
000093:
000094:                                                                                                  #                (A)     AT A SELECTED TPI TIME (NOW IN STORAGE) THE LINE OF SIGHT
000095:                                                                                                  #                        BETWEEN THE ACTIVE AND PASSIVE VEHICLES WAS SELECTED TO BE
000096:                                                                                                  #                        A PRESCRIBED ANGLE (E) (NOW IN STORAGE) FROM THE
000097:                                                                                                  #                        HORIZONTAL PLANE DEFINED BY THE ACTIVE VEHICLE POSITION.
000098:
000099:                                                                                                  #                (B)     THE TIME BETWEEN CDH IGNITION AND TPI IGNITION WAS
000100:                                                                                                  #                        COMPUTED TO BE GREATER THAN 10 MINUTES.
000101:
000102:                                                                                                  #                (C)     THE VARIATION OF THE ALTITUDE DIFFERENCE BETWEEN THE
000103:                                                                                                  #                        ORBITS WAS MINIMIZED.
000104:
000105:                                                                                                  #                (D)     THE PERICENTER ALTITUDES OF ORBITS FOLLOWING CSI AND
000106:                                                                                                  #                        CDH WERE COMPUTED TO BE GREATER THAN 35,000 FT FOR LUNAR


000108:                                                                                                  #                        ORBIT OR 85 NM FOR EARTH ORBIT.
000109:
000110:                                                                                                  #                (E)     THE CSI AND CDH MANEUVERS WERE ASSUMED TO BE PARALLEL TO
000111:                                                                                                  #                        THE PLANE OF THE PASSIVE VEHICLE ORBIT.  HOWEVER, CREW
000112:                                                                                                  #                        MODIFICATION OF DELTA V (LV) COMPONENTS MAY HAVE RESULTED
000113:                                                                                                  #                        IN AN OUT-OF-PLANE MANEUVER.
000114:
000115:                                                                                                  #        (2)     STATE VECTOR UPDATED BY P27 ARE DISALLOWED DURING AUTOMATIC
000116:                                                                                                  #                STATE VECTOR UPDATING INITIATED BY P20 (SEE ASSUMPTION (4)).
000117:
000118:                                                                                                  #        (3)     THIS PROGRAM MUST BE DONE OVER A TRACKING STATION FOR REAL
000119:                                                                                                  #                TIME GROUND PARTICIPATION IN DATA INPUT AND OUTPUT.  COMPUTED
000120:                                                                                                  #                VARIABLES MAY BE STORED FOR LATER VERIFICATION BY THE GROUND.
000121:                                                                                                  #                THESE STORAGE CAPABILITIES ARE LIMITED ONLY TO THE PARAMETERS
000122:                                                                                                  #                FOR ONE THRUSTING MANEUVER AT A TIME EXCEPT FOR CONCENTRIC
000123:                                                                                                  #                FLIGHT PLAN MANEUVER SEQUENCES.
000124:
000125:                                                                                                  #        (4)     THE RENDEZVOUS RADAR MAY OR MAY NOT BE USED TO UPDATE THE LM
000126:                                                                                                  #                OR CSM STATE VECTORS FOR THIS PROGRAM.  IF RADAR USE IS
000127:                                                                                                  #                DESIRED THE RADAR WAS TURNED ON AND LOCKED ON THE CSM BY
000128:                                                                                                  #                PREVIOUS SELECTION OF P20.  RADAR SIGHTING MARKS WILL BE MADE
000129:                                                                                                  #                AUTOMATICALLY APPROXIMATELY ONCE A MINUTE WHEN ENABLED BY THE
000130:                                                                                                  #                TRACK AND UPDATE FLAGS (SEE P20).  THE RENDEZVOUS TRACKING
000131:                                                                                                  #                MARK COUNTER IS ZEROED BY THE SELECTION OF P20 AND AFTER EACH
000132:                                                                                                  #                THRUSTING MANEUVER.
000133:
000134:                                                                                                  #        (5)     THE ISS NEED NOT BE ON TO COMPLETE THIS PROGRAM.
000135:
000136:                                                                                                  #        (6)     THE OPERATION OF THE PROGRAM UTILIZES THE FOLLOWING FLAGS -
000137:
000138:                                                                                                  #                        ACTIVE VEHICLE FLAG - DESIGNATES THE VEHICLE WHICH IS
000139:                                                                                                  #                        DOING RENDEZVOUS THRUSTING MANEUVERS TO THE PROGRAM WHICH
000140:                                                                                                  #                        CALCULATES THE MANEUVER PARAMETERS.  SET AT THE START OF
000141:                                                                                                  #                        EACH RENDEZVOUS PRE-THRUSTING PROGRAM.
000142:
000143:                                                                                                  #                        FINAL FLAG - SELECTS FINAL PROGRAM DISPLAYS AFTER CREW HAS
000144:                                                                                                  #                        SELECTED THE FINAL MANEUVER COMPUTATION CYCLE.
000145:
000146:                                                                                                  #                        EXTERNAL DELTA V FLAG - DESIGNATES THE TYPE OF STEERING
000147:                                                                                                  #                        REQUIRED FOR EXECUTION OF THIS MANEUVER BY THE THRUSTING
000148:                                                                                                  #                        PROGRAM SELECTED AFTER COMPLETION OF THIS PROGRAM.
000149:
000150:                                                                                                  #        (7)     ONCE THE PARAMETWRS REQUIRED FOR COMPUTION OF THE MANEUVER
000151:                                                                                                  #                HAVE BEEN COMPLETELY SPECIFIED, THE VALUE OF THE ACTIVE
000152:                                                                                                  #                VEHICLE CENTRAL ANGLE OF TRANSFER IS COMPUTED AND STORED.
000153:                                                                                                  #                THIS NUMBER WILL BE AVAILABLE FOR DISPLAY TO THE ASTRONAUT
000154:                                                                                                  #                THROUGH THE USE OF V06N52.
000155:
000156:                                                                                                  #                THE ASTRONAUT WILL CALL THIS DISPLAY TO VERIFY THAT THE
000157:                                                                                                  #                CENTRAL ANGLE OF TRANSFER OF THE ACTIVE VEHICLE IS NOT WITHIN


000159:                                                                                                  #                170 TO 190 DEGREES.  IF THE ANGLE IS WITHIN THIS ZONE THE
000160:                                                                                                  #                ASTRONAUT SHOULD REASSESS THE INPUT TARGETING PARAMETERS BASED
000161:                                                                                                  #                UPON DELTA V AND EXPECTED MANEUVER TIME.
000162:
000163:                                                                                                  #        (8)     THIS PROGRAM IS SELECTED BY THE ASTRONAUT BY DSKY ENTRY -
000164:
000165:                                                                                                  #                        P34 IF THIS VEHICLE IS ACTIVE VEHICLE.
000166:
000167:                                                                                                  #                        P74 IF THIS VEHICLE IS PASSIVE VEHICLE.
000168:
000169:                                                                                                  #  INPUT
000170:
000171:                                                                                                  #        (1)     TTPI    TIME OF THE TPI MANEUVER
000172:                                                                                                  #        (2)     ELEV    DESIRED LOS ANGLE AT TPI
000173:                                                                                                  #        (3)     CENTANG ORBITAL CENTRAL ANGLE OF THE PASSIVE VEHICLE DURING
000174:                                                                                                  #                        TRANSFER FROM TPI TO TIME OF INTERCEPT
000175:
000176:                                                                                                  #  OUTPUT
000177:
000178:                                                                                                  #        (1)     TRKMKCNT        NUMBER OF MARKS
000179:                                                                                                  #        (2)     TTOGO           TIME TO GO
000180:                                                                                                  #        (3)     +MGA            MIDDLE GIMBAL ANGLE
000181:                                                                                                  #        (4)     TTPI            COMPUTED TIME OF TPI MANEUVER
000182:                                                                                                  #                 OR
000183:                                                                                                  #                ELEV            COMPUTED LOS ANGLE AT TPI
000184:                                                                                                  #        (5)     POSTTPI         PERIGEE ALTITUDE AFTER THE TPI MANEUVER
000185:                                                                                                  #        (6)     DELVTPI         MAGNITUDE OF DELTA V AT TPI
000186:                                                                                                  #        (7)     DELVTPF         MAGNITUDE OF DELTA V AT INTERCEPT
000187:                                                                                                  #        (8)     DVLOS           DELTA VELOCITY AT TPI - LINE OF SIGHT
000188:                                                                                                  #        (9)     DELVLVC         DELTA VELOCITY AT TPI - LOCAL VERTICAL COORDINATES
000189:
000190:                                                                                                  #  DOWNLINK
000191:
000192:                                                                                                  #        (1)     TTPI            TIME OF THE TPI MANEUVER
000193:                                                                                                  #        (2)     TIG             TIME OF THE TPI MANEUVER
000194:                                                                                                  #        (3)     ELEV            DESIRED LOS ANGLE AT TPI
000195:                                                                                                  #        (4)     CENTANG         ORBITAL CENTRAL ANGLE OF THE PASSIVE VEHICLE DURING
000196:                                                                                                  #                                TRANSFER FROM TPI TO TIME OF INTERCEPT
000197:                                                                                                  #        (5)     DELVEET3        DELTA VELOCITY AT TPI - REFERENCE COORDINATES
000198:                                                                                                  #        (6)     TPASS4          TIME OF INTERCEPT
000199:
000200:                                                                                                  #  COMMUNICATION TO THRUSTING PROGRAMS
000201:
000202:                                                                                                  #        (1)     TIG             TIME OF THE TPI MANEUVER
000203:                                                                                                  #        (2)     RTARG           OFFSET TARGET POSITION
000204:                                                                                                  #        (3)     TPASS4          TIME OF INTERCEPT
000205:                                                                                                  #        (4)     XDELVFLG        RESET TO INDICATE LAMBERT (AIMPOINT) VG COMPUTATION
000206:
000207:                                                                                                  #  SUBROUTINES USED
000208:
000209:                                                                                                  #        AVFLAGA


000211:                                                                                                  #        AVFLAGP
000212:                                                                                                  #        VNPOOH
000213:                                                                                                  #        DISPLAYE
000214:                                                                                                  #        SELECTMU
000215:                                                                                                  #        PRECSET
000216:                                                                                                  #        S33/34.1
000217:                                                                                                  #        ALARM
000218:                                                                                                  #        BANKCALL
000219:                                                                                                  #        GOFLASH
000220:                                                                                                  #        GOTOPOOH
000221:                                                                                                  #        TIMETHET
000222:                                                                                                  #        S34/35.2
000223:                                                                                                  #        PERIAPO1
000224:                                                                                                  #        SHIFTR1
000225:                                                                                                  #        S34/35.5
000226:                                                                                                  #        VN1645
000227:
000228: 35,2000                                           SETLOC   CSI/CDH
000229: 35,2000                                           BANK
000230: 35,2545  E7,1470                                  EBANK=   SUBEXIT
000231: 35,2545                                           COUNT*   $$/P3474
000232: 35,2545           02347        P34                TC       AVFLAGA
000233: 35,2546           02550                           TC       P34/P74A
000234: 35,2547           02354        P74                TC       AVFLAGP
000235: 35,2550           02361        P34/P74A           TC       P20FLGON                              #  SET UPDATFLG, TRACKFLG
000236: 35,2551           33723                           CAF      V06N37                                #  TTPI
000237: 35,2552           03712                           TC       VNPOOH
000238: 35,2553           00006                           EXTEND
000239: 35,2554           33746                           DCA      130DEG
000240: 35,2555           53621                           DXCH     CENTANG
000241: 35,2556           32417                           CAF      P30ZERO
000242: 35,2557           55466                           TS       NN
000243: 35,2560           03674                           TC       DISPLAYE                              #  ELEV AND CENTANG
000244: 35,2561           06037                           TC       INTPRET
000245: 35,2562           71214                           CLEAR    DLOAD
000246: 35,2563           01270                                    ETPIFLAG
000247: 35,2564           03636                                    TTPI
000248: 35,2565           17442                           STODL    TIG
000249: 35,2566           02257                                    ELEV
000250: 35,2567           43054                           BZE      SET
000251: 35,2570           72572                                    P34/P74B
000252: 35,2571           01070                                    ETPIFLAG
000253: 35,2572           77624        P34/P74B           CALL
000254: 35,2573           20000                                    SELECTMU
000255: 35,2574                        DELELO             EQUALS   26D
000256: 35,2574           43145        P34/P74C           DLOAD    SET
000257: 35,2575           06522                                    ZEROVECS
000258: 35,2576           03460                                    ITSWICH
000259: 35,2577           43014                           BON      CLEAR
000260: 35,2600           01310                                    ETPIFLAG


000262: 35,2601           72603                                    SWCHSET
000263: 35,2602           03660                                    ITSWICH
000264: 35,2603           02317        SWCHSET            STORE    NOMTPI
000265: 35,2604           43345        INTLOOP            DLOAD    DAD
000266: 35,2605           03636                                    TTPI
000267: 35,2606           02317                                    NOMTPI
000268: 35,2607           34041                           STCALL   TDEC1
000269: 35,2610           46360                                    PRECSET
000270: 35,2611           77624                           CALL
000271: 35,2612           72764                                    S33/34.1
000272: 35,2613           77454                           BZE      EXIT
000273: 35,2614           72625                                    SWCHCLR
000274: 35,2615           05567                           TC       ALARM
000275: 35,2616           00611                           OCT      611
000276: 35,2617           35006                           CAF      V05N09
000277: 35,2620           04616                           TC       BANKCALL
000278: 35,2621           20476                           CADR     GOFLASH
000279: 35,2622           06001                           TC       GOTOPOOH
000280: 35,2623           02550                           TC       P34/P74A                              #  PROCEED
000281: 35,2624           02615                           TC       -7                                    #  V32
000282:
000283: 35,2625           43014        SWCHCLR            BONCLR   BON
000284: 35,2626           03600                                    ITSWICH
000285: 35,2627           72604                                    INTLOOP
000286: 35,2630           01310                                    ETPIFLAG
000287: 35,2631           72635                                    P34/P74D                              #  DISPLAY TTPI
000288: 35,2632           77776                           EXIT
000289: 35,2633           03674                           TC       DISPLAYE                              #  DISPLAY ELEV AND CENTANG
000290: 35,2634           02640                           TC       P34/P74E
000291: 35,2635           77776        P34/P74D           EXIT
000292: 35,2636           33723                           CAF      V06N37                                #  TTPI
000293: 35,2637           03712                           TC       VNPOOH
000294: 35,2640           06037        P34/P74E           TC       INTPRET
000295: 35,2641           71201                           SETPD    DLOAD
000296: 35,2642           00001                                    0D
000297: 35,2643           02777                                    RTX1
000298: 35,2644           14047                           STODL    X1
000299: 35,2645           03621                                    CENTANG
000300: 35,2646           71406                           PUSH     COS
000301: 35,2647           16732                           STODL    CSTH
000302: 35,2650           77756                           SIN
000303: 35,2651           26730                           STOVL    SNTH
000304: 35,2652           03552                                    RPASS3
000305: 35,2653           77657                           VSR*
000306: 35,2654           57176                                    0,2
000307: 35,2655           26655                           STOVL    RVEC
000308: 35,2656           03560                                    VPASS3
000309: 35,2657           43057                           VSR*     SET
000310: 35,2660           57176                                    0,2
000311: 35,2661           03466                                    RVSW


000313: 35,2662           36744                           STCALL   VVEC
000314: 35,2663           24732                                    TIMETHET
000315: 35,2664           77745                           DLOAD
000316: 35,2665           03636                                    TTPI
000317: 35,2666           03610                           STORE    INTIME                                #  FOR INITVEL
000318: 35,2667           77615                           DAD
000319: 35,2670           00037                                    T                                     #  RENDEZVOUS TIME
000320: 35,2671           37631                           STCALL   TPASS4                                #  FOR INITVEL
000321: 35,2672           73306                                    S34/35.2
000322: 35,2673           51575                           VLOAD    ABVAL
000323: 35,2674           02366                                    DELVEET3
000324: 35,2675           27576                           STOVL    DELVTPI
000325: 35,2676           03506                                    VPASS4
000326: 35,2677           51451                           VSU      ABVAL
000327: 35,2700           03566                                    VTPRIME
000328: 35,2701           26350                           STOVL    DELVTPF
000329: 35,2702           03536                                    RACT3
000330: 35,2703           45115                           PDVL     CALL
000331: 35,2704           02337                                    VIPRIME
000332: 35,2705           46316                                    PERIAPO1
000333: 35,2706           77624                           CALL
000334: 35,2707           46426                                    SHIFTR1
000335: 35,2710           17606                           STODL    POSTTPI
000336: 35,2711           03636                                    TTPI
000337: 35,2712           03442                           STORE    TIG
000338: 35,2713           77776                           EXIT
000339: 35,2714           33725                           CAF      V06N58
000340: 35,2715           03712                           TC       VNPOOH
000341: 35,2716           06037                           TC       INTPRET
000342: 35,2717           77624                           CALL
000343: 35,2720           73522                                    S34/35.5
000344: 35,2721           77624                           CALL
000345: 35,2722           73606                                    VN1645
000346: 35,2723           77650                           GOTO
000347: 35,2724           72574                                    P34/P74C


000349:                                                                                                  #  RENDEZVOUS MID-COURSE MANEUVER PROGRAMS (P35 AND P75)
000350:
000351:                                                                                                  #  MOD NO -1                     LOG SECTION - P32-P35, P72-P75
000352:                                                                                                  #  MOD BY WHITE.P                DATE  1JUNE67
000353:
000354:                                                                                                  #  PURPOSE
000355:
000356:                                                                                                  #        (1)     TO CALCULATE THE REQUIRED DELTA V AND OTHER INITIAL CONDITIONS
000357:                                                                                                  #                REQUIRED BY THE ACTIVE VEHICLE FOR EXECUTION OF THE NEXT
000358:                                                                                                  #                MIDCOURSE CORRECTION OF THE TRANSFER PHASE OF AN ACTIVE
000359:                                                                                                  #                VEHICLE RENDEZVOUS.
000360:
000361:                                                                                                  #        (2)     TO DISPLAY TO THE ASTRONAUT AND THE GROUND CERTAIN DEPENDENT
000362:                                                                                                  #                VARIABLES ASSOCIATED WITH THE MANEUVER FOR APPROVAL BY THE
000363:                                                                                                  #                ASTRONAUT/GROUND.
000364:
000365:                                                                                                  #        (3)     TO STORE THE TPM TARGET PARAMETERS FOR USE BY THE DESIRED
000366:                                                                                                  #                THRUSTING PROGRAM.
000367:
000368:                                                                                                  #  ASSUMPTIONS
000369:
000370:                                                                                                  #        (1)     THE ISS NEED NOT BE ON TO COMPLETE THIS PROGRAM.
000371:
000372:                                                                                                  #        (2)     STATE VECTOR UPDATES BY P27 ARE DISALLOWED DURING AUTOMATIC
000373:                                                                                                  #                STATE VECTOR UPDATING INITIATED BY P20 (SEE ASSUMPTION (3)).
000374:
000375:                                                                                                  #        (3)     THE RENDEZVOUS RADAR IS ON AND IS LOCKED ON THE CSM.  THIS WAS
000376:                                                                                                  #                DONE DURING PREVIOUS SELECTION OF P20.  RADAR SIGHTING MARKS
000377:                                                                                                  #                WILL BE MADE AUTOMATICALLY APPROXIMATELY ONCE A MINUTE WHEN
000378:                                                                                                  #                ENABLED BY THE TRACK AND UPDATE FLAGS (SEE P20).  THE
000379:                                                                                                  #                RENDEZVOUS TRACKING MARK COUNTER IS ZEROED BY THE SELECTION OF
000380:                                                                                                  #                P20 AND AFTER EACH THRUSTING MANEUVER.
000381:
000382:                                                                                                  #        (4)     THE OPERATION OF THE PROGRAM UTILIZES THE FOLLOWING FLAGS -
000383:
000384:                                                                                                  #                        ACTIVE VEHICLE FLAG - DESIGNATES THE VEHICLE WHICH IS
000385:                                                                                                  #                        DOING RENDEZVOUS THRUSTING MANEUVERS TO THE PROGRAM WHICH
000386:                                                                                                  #                        CALCULATES THE MANEUVER PARAMETERS.  SET AT THE START OF
000387:                                                                                                  #                        EACH RENDEZVOUS PRE-THRUSTING PROGRAM.
000388:
000389:                                                                                                  #                        FINAL FLAG - SELECTS FINAL PROGRAM DISPLAYS AFTER CREW HAS
000390:                                                                                                  #                        SELECTED THE FINAL MANEUVER COMPUTATION CYCLE.
000391:
000392:                                                                                                  #                        EXTERNAL DELTA V FLAG - DESIGNATES THE TYPE OF STEERING
000393:                                                                                                  #                        REQUIRED FOR EXECUTION OF THIS MANEUVER BY THE THRUSTING
000394:                                                                                                  #                        PROGRAM SELECTED AFTER COMPLETION OF THIS PROGRAM.
000395:
000396:                                                                                                  #        (5)     THE TIME OF INTERCEPT (T(INT)) WAS DEFINED BY PREVIOUS
000397:                                                                                                  #                COMPLETION OF THE TRANSFER PHASE INITIATION (TPI) PROGRAM
000398:                                                                                                  #                (P34/P74) AND IS PRESENTLY AVAILABLE IN STORAGE.
000399:


000401:                                                                                                  #        (6)     ONCE THE PARAMETERS REQUIRED FOR COMPUTION OF THE MANEUVER
000402:                                                                                                  #                HAVE BEEN COMPLETELY SPECIFIED, THE VALUE OF THE ACTIVE
000403:                                                                                                  #                VEHICLE CENTRAL ANGLE OF TRANSFER IS COMPUTED AND STORED.
000404:                                                                                                  #                THIS NUMBER WILL BE AVAILABLE FOR DISPLAY TO THE ASTRONAUT
000405:                                                                                                  #                THROUGH THE USE OF V06N52.
000406:
000407:                                                                                                  #                THE ASTRONAUT WILL CALL THIS DISPLAY TO VERIFY THAT THE
000408:                                                                                                  #                CENTRAL ANGLE OF TRANSFER OF THE ACTIVE VEHICLE IS NOT WITHIN
000409:                                                                                                  #                170 TO 190 DEGREES.  IF THE ANGLE IS WITHIN THIS ZONE THE
000410:                                                                                                  #                ASTRONAUT SHOULD REASSESS THE INPUT TARGETING PARAMETERS BASED
000411:                                                                                                  #                UPON DELTA V AND EXPECTED MANEUVER TIME.
000412:
000413:                                                                                                  #        (7)     THIS PROGRAM IS SELECTED BY THE ASTRONAUT BY DSKY ENTRY -
000414:
000415:                                                                                                  #                        P35 IF THIS VEHICLE IS ACTIVE VEHICLE.
000416:
000417:                                                                                                  #                        P75 IF THIS VEHICLE IS PASSIVE VEHICLE.
000418:
000419:                                                                                                  #  INPUT
000420:
000421:                                                                                                  #        (1)     TPASS4          TIME OF INTERCEPT - SAVED FROM P34/P74
000422:
000423:                                                                                                  #  OUTPUT
000424:
000425:                                                                                                  #        (1)     TRKMKCNT        NUMBER OF MARKS
000426:                                                                                                  #        (2)     TTOGO           TIME TO GO
000427:                                                                                                  #        (3)     +MGA            MIDDLE GIMBAL ANGLE
000428:                                                                                                  #        (4)     DVLOS           DELTA VELOCITY AT MID - LINE OF SIGHT
000429:                                                                                                  #        (5)     DELVLVC         DELTA VELOCITY AT MID - LOCAL VERTICAL COORDINATES
000430:
000431:                                                                                                  #  DOWNLINK
000432:
000433:                                                                                                  #        (1)     TIG             TIME OF THE TPM MANEUVER
000434:                                                                                                  #        (2)     DELVEET3        DELTA VELOCITY AT TPM - REFERENCE COORDINATES
000435:                                                                                                  #        (3)     TPASS4          TIME OF INTERCEPT
000436:
000437:                                                                                                  #  COMMUNICATION TO THRUSTING PROGRAMS
000438:
000439:                                                                                                  #        (1)     TIG             TIME OF THE TPM MANEUVER
000440:                                                                                                  #        (2)     RTARG           OFFSET TARGET POSITION
000441:                                                                                                  #        (3)     TPASS4          TIME OF INTERCEPT
000442:                                                                                                  #        (4)     XDELVFLG        RESET TO INDICATE LAMBERT (AIMPOINT) VG COMPUTATION
000443:
000444:                                                                                                  #  SUBROUTINES USED
000445:
000446:                                                                                                  #        AVFLAGA
000447:                                                                                                  #        AVFLAGP
000448:                                                                                                  #        LOADTIME
000449:                                                                                                  #        SELECTMU
000450:                                                                                                  #        PRECSET
000451:                                                                                                  #        S34/35.1
000452:                                                                                                  #        S34/35.2


000454:                                                                                                  #        S34/35.5
000455:                                                                                                  #        VN1645
000456:
000457: 35,2725                                           COUNT*   $$/P3575
000458: 35,2725  E7,1575                                  EBANK=   KT
000459:
000460: 35,2725           02347        P35                TC       AVFLAGA
000461: 35,2726           00006                           EXTEND
000462: 35,2727           31401                           DCA      ATIGINC
000463: 35,2730           02734                           TC       P35/P75A
000464: 35,2731           02354        P75                TC       AVFLAGP
000465: 35,2732           00006                           EXTEND
000466: 35,2733           31403                           DCA      PTIGINC
000467: 35,2734           53576        P35/P75A           DXCH     KT
000468: 35,2735           02361                           TC       P20FLGON                              #  SET UPDATFLG, TRACKFLG
000469: 35,2736           06037                           TC       INTPRET
000470: 35,2737           77624                           CALL
000471: 35,2740           20000                                    SELECTMU
000472: 35,2741           77634        P35/P75B           RTB
000473: 35,2742           21573                                    LOADTIME
000474: 35,2743           03612                           STORE    TSTRT
000475: 35,2744           77615                           DAD
000476: 35,2745           03576                                    KT
000477: 35,2746           03442                           STORE    TIG
000478: 35,2747           03610                           STORE    INTIME                                #  FOR INITVEL
000479: 35,2750           34041                           STCALL   TDEC1
000480: 35,2751           46360                                    PRECSET                               #  ADVANCE BOTH VEHICLES
000481: 35,2752           77624                           CALL
000482: 35,2753           73274                                    S34/35.1                              #  GET NORM AND LOS FOR TRANSFORM
000483: 35,2754           77624                           CALL
000484: 35,2755           73306                                    S34/35.2                              #  GET DELTA V(LV)
000485: 35,2756           77624                           CALL
000486: 35,2757           73522                                    S34/35.5
000487: 35,2760           77624                           CALL
000488: 35,2761           73606                                    VN1645
000489: 35,2762           77650                           GOTO
000490: 35,2763           72741                                    P35/P75B


000492:                                                                                                  #  ..... S33/34.1 .....
000493:
000494: 35,2764           66220        S33/34.1           STQ      SSP
000495: 35,2765           03463                                    NORMEX
000496: 35,2766           03614                                    TITER
000497: 35,2767           40000                           OCT      40000
000498: 35,2770           40345                           DLOAD    SETPD
000499: 35,2771           33734                                    MAX250
000500: 35,2772           00001                                    0D
000501: 35,2773           27574                           STOVL    SECMAX
000502: 35,2774           03536                                    RACT3
000503: 35,2775           27500                           STOVL    RAPREC
000504: 35,2776           03544                                    VACT3
000505: 35,2777           27506                           STOVL    VAPREC
000506: 35,3000           03552                                    RPASS3
000507: 35,3001           27522                           STOVL    RPPREC
000508: 35,3002           03560                                    VPASS3
000509: 35,3003           03530                           STORE    VPPREC
000510: 35,3004           77624        ELCALC             CALL
000511: 35,3005           73274                                    S34/35.1                              #  NORMAL AND LOS
000512: 35,3006           63235                           VXV      PDVL
000513: 35,3007           03536                                    RACT3                                 #  (RA*VA)*RA 0D
000514: 35,3010           53515                           PDVL     UNIT                                  #  ULOS AT 6D
000515: 35,3011           03536                                    RACT3
000516: 35,3012           46315                           PDVL     VPROJ                                 #  XCHNJ AND UP
000517: 35,3013           51352                           VSL2     BVSU
000518: 35,3014           02311                                    ULOS
000519: 35,3015           63256                           UNIT     PDVL                                  #  UP AT 0D
000520: 35,3016           63241                           DOT      PDVL                                  #  UP.UN*RA AT 0D
000521: 35,3017           00001                                    0D                                    #  UP IN MPAC
000522: 35,3020           75241                           DOT      SIGN
000523: 35,3021           02311                                    ULOS
000524: 35,3022           65552                           SL1      ACOS
000525: 35,3023           50315                           PDVL     DOT                                   #  EA AT 0D
000526: 35,3024           02311                                    ULOS
000527: 35,3025           03536                                    RACT3
000528: 35,3026           71244                           BPL      DLOAD
000529: 35,3027           73032                                    TESTY
000530: 35,3030           06530                                    DPPOSMAX
000531: 35,3031           41425                           DSU      PUSH
000532: 35,3032           71214        TESTY              BOFF     DLOAD
000533: 35,3033           03740                                    ITSWICH
000534: 35,3034           73261                                    ELEX
000535: 35,3035           03576                                    DELEL
000536: 35,3036           14033                           STODL    DELELO
000537: 35,3037           77625                           DSU
000538: 35,3040           02257                                    ELEV
000539: 35,3041           03576                           STORE    DELEL
000540: 35,3042           45246                           ABS      DSU
000541: 35,3043           33740                                    ELEPS


000543: 35,3044           77640                           BMN
000544: 35,3045           73271                                    TIMEX                                 #  COMMERCIALS EVERYWHERE
000545: 35,3046           70535        FIGTIME            SLOAD    SR1
000546: 35,3047           03614                                    TITER
000547: 35,3050           72030                           BHIZ     LXA,1
000548: 35,3051           03463                                    NORMEX                                #  TOO MANY ITERATIONS
000549: 35,3052           00154                                    MPAC
000550: 35,3053           77330                           SXA,1    VLOAD
000551: 35,3054           03613                                    TITER
000552: 35,3055           03552                                    RPASS3
000553: 35,3056           65256                           UNIT     PDDL
000554: 35,3057           00045                                    36D
000555: 35,3060           53515                           PDVL     UNIT
000556: 35,3061           03536                                    RACT3
000557: 35,3062           77725                           PDDL
000558: 35,3063           41525                           PDDL     PUSH
000559: 35,3064           00045                                    36D
000560: 35,3065           77621                           BDSU
000561: 35,3066           00015                                    12D
000562: 35,3067           14037                           STODL    30D                                   #  RP - RA MAGNITUDES
000563: 35,3070           06520                                    DPHALF
000564: 35,3071           41425                           DSU      PUSH
000565: 35,3072           02257                                    ELEV
000566: 35,3073           50165                           SIGN     BMN
000567: 35,3074           00037                                    30D
000568: 35,3075           03463                                    NORMEX
000569: 35,3076           71545                           DLOAD    COS
000570: 35,3077           56205                           DMP      DDV
000571: 35,3100           00017                                    14D
000572: 35,3101           00015                                    12D
000573: 35,3102           77676                           DCOMP                                          #  SINCE COS(180-A)=-COS A
000574: 35,3103           00035                           STORE    28D
000575: 35,3104           44246                           ABS      BDSU
000576: 35,3105           06520                                    DPHALF
000577: 35,3106           77240                           BMN      VLOAD
000578: 35,3107           03463                                    NORMEX
000579: 35,3110           02261                                    UNRM
000580: 35,3111           53435                           VXV      UNIT
000581: 35,3112           00007                                    6D                                    #  UN*RA
000582: 35,3113           41241                           DOT      DMP
000583: 35,3114           03544                                    VACT3
000584: 35,3115           00015                                    12D
000585: 35,3116           47315                           PDVL     VXV
000586: 35,3117           00001                                    0D
000587: 35,3120           03560                                    VPASS3
000588: 35,3121           53435                           VXV      UNIT
000589: 35,3122           00001                                    0D                                    #  (RP*VP)*RP
000590: 35,3123           41241                           DOT      DMP
000591: 35,3124           03560                                    VPASS3
000592: 35,3125           00017                                    14D


000594: 35,3126           77621                           BDSU
000595: 35,3127           63301                           NORM     PDVL                                  #  NORMALIZED WA - WP 12D
000596: 35,3130           00047                                    X1
000597: 35,3131           00007                                    6D
000598: 35,3132           50235                           VXV      DOT
000599: 35,3133           00001                                    0D
000600: 35,3134           02261                                    UNRM                                  #  RA*RP.UN 14D
000601: 35,3135           50315                           PDVL     DOT
000602: 35,3136           00001                                    0D
000603: 35,3137           00007                                    6D
000604: 35,3140           65552                           SL1      ACOS
000605: 35,3141           77765                           SIGN
000606: 35,3142           43225                           DSU      DAD                                   #  ALPHA PI
000607: 35,3143           06520                                    DPHALF
000608: 35,3144           02257                                    ELEV
000609: 35,3145           65525                           PDDL     ACOS
000610: 35,3146           00035                                    28D
000611: 35,3147           75221                           BDSU     SIGN
000612: 35,3150           06520                                    DPHALF
000613: 35,3151           00037                                    30D                                   #  CONTAINS RP-RA
000614: 35,3152           77615                           DAD
000615: 35,3153           56205                           DMP      DDV
000616: 35,3154           33732                                    TWOPI
000617: 35,3155           77605                           DMP
000618: 35,3156           41257                           SL*      DMP
000619: 35,3157           20176                                    0          -3,1
000620: 35,3160           51406                           PUSH     ABS
000621: 35,3161           50025                           DSU      BMN
000622: 35,3162           03574                                    SECMAX
000623: 35,3163           73167                                    OKMAX
000624: 35,3164           75345                           DLOAD    SIGN                                  #  REPLACE TIME WITH MAX TIME SIGNED
000625: 35,3165           03574                                    SECMAX
000626: 35,3166           77606                           PUSH
000627: 35,3167           51135        OKMAX              SLOAD    BPL                                   #  TEST FIRST ITERATION
000628: 35,3170           03614                                    TITER
000629: 35,3171           73177                                    REPETE
000630: 35,3172           71331                           SSP      DLOAD
000631: 35,3173           03614                                    TITER
000632: 35,3174           37777                           OCT      37777
000633: 35,3175           77650                           GOTO
000634: 35,3176           73235                                    STORDELT
000635: 35,3177           41345        REPETE             DLOAD    DMP
000636: 35,3200           03576                                    DELEL
000637: 35,3201           00033                                    DELELO
000638: 35,3202           71244                           BPL      DLOAD
000639: 35,3203           73213                                    NEXTES
000640: 35,3204           03574                                    SECMAX
000641: 35,3205           77605                           DMP
000642: 35,3206           33736                                    THIRD
000643: 35,3207           17574                           STODL    SECMAX


000645: 35,3210           70446                           ABS      SR1                                   #  CROSSED OVER SOLUTION
000646: 35,3211           52076                           DCOMP    GOTO                                  #  DT=(-SIGN(DTO)//DT//)/2
000647: 35,3212           73223                                    RESIGN
000648: 35,3213           51545        NEXTES             DLOAD    ABS
000649: 35,3214           03576                                    DELEL
000650: 35,3215           51525                           PDDL     ABS
000651: 35,3216           00033                                    DELELO
000652: 35,3217           77625                           DSU
000653: 35,3220           71240                           BMN      DLOAD
000654: 35,3221           73226                                    REVERS                                #  WRONG DIRECTION
000655: 35,3222           77646                           ABS
000656: 35,3223           52165        RESIGN             SIGN     GOTO
000657: 35,3224           03606                                    DELTEEO
000658: 35,3225           73235                                    STORDELT
000659: 35,3226           57545        REVERS             DLOAD    DCOMP
000660: 35,3227           03606                                    DELTEEO
000661: 35,3230           70406                           PUSH     SR1
000662: 35,3231           03606                           STORE    DELTEEO
000663: 35,3232           77615                           DAD
000664: 35,3233           77650                           GOTO
000665: 35,3234           73236                                    ADTIME
000666: 35,3235           03606        STORDELT           STORE    DELTEEO
000667: 35,3236           77615        ADTIME             DAD
000668: 35,3237           02317                                    NOMTPI                                #  SUM OF DELTA T:S
000669: 35,3240           02317                           STORE    NOMTPI
000670: 35,3241           63375                           VLOAD    PDVL
000671: 35,3242           03506                                    VAPREC
000672: 35,3243           03500                                    RAPREC
000673: 35,3244           77624                           CALL
000674: 35,3245           73462                                    GOINT
000675: 35,3246           77624                           CALL
000676: 35,3247           46402                                    ACTIVE                                #  STORE NEW RACT3 VACT3
000677: 35,3250           63375                           VLOAD    PDVL
000678: 35,3251           03530                                    VPPREC
000679: 35,3252           03522                                    RPPREC
000680: 35,3253           77624                           CALL
000681: 35,3254           73462                                    GOINT
000682: 35,3255           77624                           CALL
000683: 35,3256           46412                                    PASSIVE                               #  STORE NEW RPASS3 VPASS3
000684: 35,3257           77650                           GOTO
000685: 35,3260           73004                                    ELCALC
000686: 35,3261           43345        ELEX               DLOAD    DAD
000687: 35,3262           03636                                    TTPI
000688: 35,3263           02317                                    NOMTPI
000689: 35,3264           17636                           STODL    TTPI
000690: 35,3265           77614                           BON
000691: 35,3266           01310                                    ETPIFLAG
000692: 35,3267           73271                                    TIMEX
000693: 35,3270           02257                           STORE    ELEV
000694: 35,3271           52145        TIMEX              DLOAD    GOTO


000696: 35,3272           06522                                    ZEROVECS
000697: 35,3273           03463                                    NORMEX
000698:


000700:                                                                                                  #  ..... S34/35.1 .....
000701:
000702:                                                                                                  #  COMPUTE UNIT NORMAL AND LINE OF SIGHT VECTORS GIVEN THE ACTIVE AND
000703:                                                                                                  #  PASSIVE POS AND VEL AT TIME T3
000704:
000705: 35,3274           52375        S34/35.1           VLOAD    VSU
000706: 35,3275           03552                                    RPASS3
000707: 35,3276           03536                                    RACT3
000708: 35,3277           41456                           UNIT     PUSH
000709: 35,3300           26311                           STOVL    ULOS
000710: 35,3301           03536                                    RACT3
000711: 35,3302           53435                           VXV      UNIT
000712: 35,3303           03544                                    VACT3
000713: 35,3304           02261                           STORE    UNRM
000714: 35,3305           77616                           RVQ
000715:


000717:                                                                                                  #  ..... S34/35.2 .....
000718:
000719:                                                                                                  #  ADVANCE PASSIVE VEH TO RENDEZVOUS TIME AND GET REQ VEL FROM LAMBERT
000720:
000721: 35,3306           77220        S34/35.2           STQ      VLOAD
000722: 35,3307           03470                                    SUBEXIT
000723: 35,3310           03560                                    VPASS3
000724: 35,3311           65315                           PDVL     PDDL
000725: 35,3312           03552                                    RPASS3
000726: 35,3313           03610                                    INTIME
000727: 35,3314           65325                           PDDL     PDDL
000728: 35,3315           03631                                    TPASS4
000729: 35,3316           33732                                    TWOPI                                 #  CONIC
000730: 35,3317           46125                           PDDL     BHIZ
000731: 35,3320           03467                                    NN
000732: 35,3321           73325                                    S3435.23
000733: 35,3322           77745                           DLOAD
000734: 35,3323           41545                           DLOAD    PUSH
000735: 35,3324           06522                                    ZEROVECS                              #  PRECISION
000736: 35,3325           77624        S3435.23           CALL
000737: 35,3326           73466                                    INTINT                                #  GET TARGET VECTOR
000738: 35,3327           27444        S3435.25           STOVL    RTARG
000739: 35,3330           00007                                    VATT
000740: 35,3331           27506                           STOVL    VPASS4
000741: 35,3332           03444                                    RTARG
000742:                                                                                                  #  COMPUTE PHI = PI + (ACOS(UNIT RA.UNIT RP) - PI)SIGN(RA*RP.U)
000743: 35,3333           63256                           UNIT     PDVL                                  #  UNIT RP
000744: 35,3334           03536                                    RACT3
000745: 35,3335           41456                           UNIT     PUSH                                  #  UNIT RA
000746: 35,3336           50235                           VXV      DOT
000747: 35,3337           00001                                    0D
000748: 35,3340           02261                                    UNRM                                  #  RA*RP.U
000749: 35,3341           77715                           PDVL
000750: 35,3342           72441                           DOT      SL1                                   #  UNIT RA.UNIT RP
000751: 35,3343           00001                                    0D
000752: 35,3344           75326                           ACOS     SIGN
000753: 35,3345           43244                           BPL      DAD
000754: 35,3346           73350                                    NOPIE
000755: 35,3347           06530                                    DPPOSMAX                              #  REASONABLE TWO PI
000756: 35,3350           15756        NOPIE              STODL    ACTCENT
000757: 35,3351           03631                                    TPASS4
000758: 35,3352           77625                           DSU
000759: 35,3353           03610                                    INTIME
000760: 35,3354           03452                           STORE    DELLT4
000761: 35,3355           40335                           SLOAD    SETPD
000762: 35,3356           03467                                    NN                                    #  NUMBER OF OFFSETS
000763: 35,3357           00001                                    0D
000764: 35,3360           63325                           PDDL     PDVL
000765: 35,3361           33744                                    EPSFOUR
000766: 35,3362           03536                                    RACT3
000767: 35,3363           26323                           STOVL    RINIT


000769: 35,3364           03544                                    VACT3
000770: 35,3365           36331                           STCALL   VINIT
000771: 35,3366           22000                                    INITVEL
000772: 35,3367           77624                           CALL
000773: 35,3370           73447                                    LOMAT
000774: 35,3371           64375                           VLOAD    MXV
000775: 35,3372           02366                                    DELVEET3
000776: 35,3373           00001                                    0D
000777: 35,3374           77772                           VSL1
000778: 35,3375           37434                           STCALL   DELVLVC
000779: 35,3376           03470                                    SUBEXIT
000780:


000782:                                                                                                  #  ..... S34/35.3 .....
000783:
000784: 35,3377           45020        S34/35.3           STQ      CALL
000785: 35,3400           03463                                    NORMEX
000786: 35,3401           73447                                    LOMAT                                 #  GET MATRIX IN PUSH LIST
000787: 35,3402           61375                           VLOAD    VXM
000788: 35,3403           03434                                    DELVLVC                               #  NEW DEL V TPI
000789: 35,3404           00001                                    0D
000790: 35,3405           77772                           VSL1
000791: 35,3406           02366                           STORE    DELVEET3                              #  SAVE FOR TRANSFORM
000792: 35,3407           63255                           VAD      PDVL
000793: 35,3410           03544                                    VACT3                                 #  NEW V REQ
000794: 35,3411           03536                                    RACT3
000795: 35,3412           65325                           PDDL     PDDL
000796: 35,3413           03442                                    TIG
000797: 35,3414           03631                                    TPASS4
000798: 35,3415           41525                           PDDL     PUSH
000799: 35,3416           06530                                    DPPOSMAX
000800: 35,3417           77624                           CALL                                           #  INTEG. FOR NEW TARGET VEC
000801: 35,3420           73466                                    INTINT
000802: 35,3421           77775                           VLOAD
000803: 35,3422           00001                                    RATT
000804: 35,3423           03444                           STORE    RTARG
000805: 35,3424           41575        NOVRWRT            VLOAD    PUSH
000806: 35,3425           02311                                    ULOS
000807: 35,3426           57435                           VXV      VCOMP
000808: 35,3427           02261                                    UNRM
000809: 35,3430           41456                           UNIT     PUSH
000810: 35,3431           76435                           VXV      VSL1
000811: 35,3432           02311                                    ULOS
000812: 35,3433           77715                           PDVL
000813: 35,3434           64315                           PDVL     MXV
000814: 35,3435           02366                                    DELVEET3
000815: 35,3436           00001                                    0D
000816: 35,3437           77772                           VSL1
000817: 35,3440           36303                           STCALL   DVLOS
000818: 35,3441           03463                                    NORMEX
000819:


000821:                                                                                                  #  ..... S34/35.4 .....
000822:
000823: 35,3442           40220        S34/35.4           STQ      SETPD                                 #  NO ASTRONAUT OVERWRITE
000824: 35,3443           03463                                    NORMEX
000825: 35,3444           00001                                    0D
000826: 35,3445           77650                           GOTO
000827: 35,3446           73424                                    NOVRWRT
000828:


000830:                                                                                                  #  ..... LOMAT .....
000831:
000832: 35,3447           57575        LOMAT              VLOAD    VCOMP
000833: 35,3450           02261                                    UNRM
000834: 35,3451           24007                           STOVL    6D                                    #  Y
000835: 35,3452           03536                                    RACT3
000836: 35,3453           57456                           UNIT     VCOMP
000837: 35,3454           00015                           STORE    12D
000838: 35,3455           76435                           VXV      VSL1
000839: 35,3456           02261                                    UNRM                                  #  Z*-Y
000840: 35,3457           00001                           STORE    0D
000841: 35,3460           43401                           SETPD    RVQ
000842: 35,3461           00023                                    18D
000843: 35,3462           65325        GOINT              PDDL     PDDL                                  #  DO
000844: 35,3463           06522                                    ZEROVECS                              #        NOT
000845: 35,3464           02317                                    NOMTPI
000846: 35,3465           41406                           PUSH     PUSH                                  #                ORDER OR INSERT BEFORE INTINT
000847: 35,3466           45020        INTINT             STQ      CALL
000848: 35,3467           03465                                    RTRN
000849: 35,3470           27414                                    INTSTALL
000850: 35,3471           71214                           CLEAR    DLOAD
000851: 35,3472           01673                                    INTYPFLG
000852: 35,3473           43054                           BZE      SET
000853: 35,3474           73476                                    +2
000854: 35,3475           01473                                    INTYPFLG
000855: 35,3476           45545                           DLOAD    STADR
000856: 35,3477           63736                           STODL    TDEC1
000857: 35,3500           73014                           SET      LXA,2
000858: 35,3501           00063                                    MOONFLAG
000859: 35,3502           02777                                    RTX2
000860: 35,3503           43014                           BON      CLEAR
000861: 35,3504           04303                                    CMOONFLG
000862: 35,3505           73507                                    ALLSET
000863: 35,3506           00263                                    MOONFLAG
000864: 35,3507           25517        ALLSET             STOVL    TET
000865: 35,3510           77657                           VSR*
000866: 35,3511           57176                                    0,2
000867: 35,3512           25535                           STOVL    RCV
000868: 35,3513           77657                           VSR*
000869: 35,3514           57176                                    0,2
000870: 35,3515           35543                           STCALL   VCV
000871: 35,3516           27107                                    INTEGRVS
000872: 35,3517           52175                           VLOAD    GOTO
000873: 35,3520           00001                                    RATT
000874: 35,3521           03465                                    RTRN
000875:


000877:                                                                                                  #  ..... S34/35.5 .....
000878:                                                                                                  #  SUBROUTINES USED
000879:                                                                                                  #        BANKCALL
000880:                                                                                                  #        GOFLASH
000881:                                                                                                  #        GOTOPOOH
000882:                                                                                                  #        S34/35.3
000883:                                                                                                  #        S34/35.4
000884:                                                                                                  #        VNPOOH
000885:
000886: 35,3522           43020        S34/35.5           STQ      BON
000887: 35,3523           03470                                    SUBEXIT
000888: 35,3524           01311                                    FINALFLG
000889: 35,3525           73531                                    FLAGON
000890: 35,3526           52014                           SET      GOTO
000891: 35,3527           00470                                    UPDATFLG
000892: 35,3530           73576                                    FLAGOFF
000893: 35,3531           77214        FLAGON             CLEAR    VLOAD
000894: 35,3532           03274                                    NTARGFLG
000895: 35,3533           03434                                    DELVLVC
000896: 35,3534           01237                           STORE    GDT/2
000897: 35,3535           77776                           EXIT
000898: 35,3536           33727                 +5        CAF      V06N81
000899: 35,3537           04616                           TC       BANKCALL
000900: 35,3540           20476                           CADR     GOFLASH
000901: 35,3541           06001                           TC       GOTOPOOH
000902: 35,3542           03544                           TC       +2                                    #  PRO
000903: 35,3543           03536                           TC       FLAGON     +5                         #  LOAD
000904: 35,3544           35016                 +2        CA       EBANK7
000905: 35,3545           54003                           TS       EBANK                                 #  TO BE SURE
000906:
000907: 35,3546           22007                           ZL
000908: 35,3547           34756                           CA       FIVE
000909: 35,3550           54002        NTARGCHK           TS       Q
000910: 35,3551           50002                           INDEX    Q
000911: 35,3552           41433                           CS       DELVLVC
000912: 35,3553           50002                           INDEX    Q
000913: 35,3554           61236                           AD       GDT/2
000914: 35,3555           26001                           ADS      L
000915: 35,3556           10002                           CCS      Q
000916: 35,3557           13550                           TCF      NTARGCHK
000917: 35,3560           22000                           LXCH     A
000918: 35,3561           00006                           EXTEND
000919: 35,3562           13565                           BZF      +3
000920: 35,3563           05504                           TC       UPFLAG
000921: 35,3564           00146                           ADRES    NTARGFLG
000922:
000923: 35,3565           06037                           TC       INTPRET
000924: 35,3566           45014                           BOFF     CALL
000925: 35,3567           03354                                    NTARGFLG


000927: 35,3570           73572                                    NOCHG
000928: 35,3571           73377                                    S34/35.3
000929: 35,3572           77214        NOCHG              CLEAR    VLOAD
000930: 35,3573           01267                                    XDELVFLG
000931: 35,3574           02366                                    DELVEET3
000932: 35,3575           03656                           STORE    DELVSIN
000933: 35,3576           77624        FLAGOFF            CALL
000934: 35,3577           73442                                    S34/35.4
000935: 35,3600           77776                           EXIT
000936: 35,3601           33726                           CAF      V06N59
000937: 35,3602           03712                           TC       VNPOOH
000938: 35,3603           06037                           TC       INTPRET
000939: 35,3604           77650                           GOTO
000940: 35,3605           03470                                    SUBEXIT
000941:


000943:                                                                                                  #  ..... VN1645 .....
000944:
000945:                                                                                                  #  SUBROUTINES USED
000946:                                                                                                  #        P3XORP7X
000947:                                                                                                  #        GET+MGA
000948:                                                                                                  #        BANKCALL
000949:                                                                                                  #        DELAYJOB
000950:                                                                                                  #        COMPTGO
000951:                                                                                                  #        GOFLASHR
000952:                                                                                                  #        GOTOPOOH
000953:                                                                                                  #        FLAGUP
000954:
000955: 35,3606           71220        VN1645             STQ      DLOAD
000956: 35,3607           03470                                    SUBEXIT
000957: 35,3610           33742                                    DP-.01
000958: 35,3611           02253                           STORE    +MGA                                  #  MGA = -.01
000959: 35,3612           71214                           BOFF     DLOAD
000960: 35,3613           01351                                    FINALFLG
000961: 35,3614           73634                                    GET45
000962: 35,3615           33742                                    DP-.01
000963: 35,3616           77615                           DAD
000964: 35,3617           33742                                    DP-.01
000965: 35,3620           02253                           STORE    +MGA                                  #  MGA = -.02
000966: 35,3621           77414                           BOFF     EXIT
000967: 35,3622           01742                                    REFSMFLG
000968: 35,3623           73634                                    GET45
000969: 35,3624           03704                           TC       P3XORP7X
000970: 35,3625           03627                           TC       +2                                    #  P3X
000971: 35,3626           03635                           TC       GET45      +1                         #  P7X
000972: 35,3627           06037                           TC       INTPRET
000973: 35,3630           41575                           VLOAD    PUSH
000974: 35,3631           03656                                    DELVSIN
000975: 35,3632           77624                           CALL                                           #  COMPUTE MGA
000976: 35,3633           15717                                    GET+MGA
000977: 35,3634           77776        GET45              EXIT
000978: 35,3635           02432                           TC       COMPTGO                               #  INITIATE TASK TO UPDATE TTOGO
000979: 35,3636           31470                           CA       SUBEXIT
000980: 35,3637           55464                           TS       QSAVED
000981: 35,3640           34777                           CAF      1SEC
000982: 35,3641           04616                           TC       BANKCALL
000983: 35,3642           01735                           CADR     DELAYJOB
000984: 35,3643           33730                           CAF      V16N45                                #  TRKMKCNT, TTOGO, +MGA
000985: 35,3644           04616                           TC       BANKCALL
000986: 35,3645           20476                           CADR     GOFLASH
000987: 35,3646           03651                           TC       KILCLOCK                              #  TERMINATE
000988: 35,3647           03654                           TC       N45PROC                               #  PROCEED
000989: 35,3650           03664                           TC       CLUPDATE                              #  RECYCLE - RETURN FOR INITIAL COMPUTATION
000990: 35,3651           30005        KILCLOCK           CA       Z
000991: 35,3652           55163                           TS       DISPDEX


000993: 35,3653           06001                           TC       GOTOPOOH
000994: 35,3654           40076        N45PROC            CS       FLAGWRD2
000995: 35,3655           74746                           MASK     BIT6
000996: 35,3656           00006                           EXTEND
000997: 35,3657           13651                           BZF      KILCLOCK                              #  FINALFLG IS SET - FLASH V37 - AWAIT NEW PGM
000998: 35,3660           05353                           TC       PHASCHNG
000999: 35,3661           04024                           OCT      04024
001000: 35,3662           05504                           TC       UPFLAG                                #  SET
001001: 35,3663           00047                           ADRES    FINALFLG                              #  FINALFLG
001002: 35,3664           30005        CLUPDATE           CA       Z
001003: 35,3665           55163                           TS       DISPDEX
001004: 35,3666           05353                           TC       PHASCHNG
001005: 35,3667           04024                           OCT      04024
001006: 35,3670           06037                           TC       INTPRET
001007: 35,3671           52014                           CLEAR    GOTO
001008: 35,3672           00670                                    UPDATFLG
001009: 35,3673           03464                                    QSAVED
001010:


001012:                                                                                                  #  ..... DISPLAYE .....
001013:
001014:                                                                                                  #  SUBROUTINES USED
001015:                                                                                                  #        BANKCALL
001016:                                                                                                  #        GOFLASHR
001017:                                                                                                  #        GOTOPOOH
001018:                                                                                                  #        BLANKET
001019:                                                                                                  #        ENDOFJOB
001020:
001021: 35,3674           00006        DISPLAYE           EXTEND
001022: 35,3675           23463                           QXCH     NORMEX
001023: 35,3676           33724                           CAF      V06N55
001024: 35,3677           04616                           TCR      BANKCALL
001025: 35,3700           20476                           CADR     GOFLASH
001026: 35,3701           16001                           TCF      GOTOPOOH
001027: 35,3702           01463                           TC       NORMEX
001028: 35,3703           13676                           TCF      -5
001029:


001031:                                                                                                  #  ..... P3XORP7X .....
001032:
001033: 35,3704           37744        P3XORP7X           CAF      HIGH9
001034: 35,3705           71011                           MASK     MODREG
001035: 35,3706           00006                           EXTEND
001036: 35,3707           13711                           BZF      +2
001037: 35,3710           24002                           INCR     Q
001038: 35,3711           00002                           RETURN
001039:
001040:                                                                                                  #  ..... VNPOOH .....
001041:
001042:                                                                                                  #  SUBROUTINES USED
001043:                                                                                                  #        BANKCALL
001044:                                                                                                  #        GOFLASH
001045:                                                                                                  #        GOTOPOOH
001046:
001047: 35,3712           00006        VNPOOH             EXTEND
001048: 35,3713           23465                           QXCH     RTRN
001049: 35,3714           55615                           TS       VERBNOUN
001050: 35,3715           31615                           CA       VERBNOUN
001051: 35,3716           04616                           TCR      BANKCALL
001052: 35,3717           20476                           CADR     GOFLASH
001053: 35,3720           16001                           TCF      GOTOPOOH
001054: 35,3721           01465                           TC       RTRN
001055: 35,3722           13715                           TCF      -5
001056:


001058:                                                                                                  #  ..... CONSTANTS .....
001059:
001060: 35,3723           01445        V06N37             VN       0637
001061: 35,3724           01467        V06N55             VN       0655
001062: 35,3725           01472        V06N58             VN       0658
001063: 35,3726           01473        V06N59             VN       0659
001064: 35,3727           01521        V06N81             VN       0681
001065: 35,3730           04055        V16N45             VN       1645
001066: 35,3731           14441 37325  TWOPI              2DEC     6.283185307 B-4
001067:
001068: 35,3733           00001 20650  MAX250             2DEC     25         E3
001069:
001070: 35,3735           12525 12525  THIRD              2DEC     .333333333
001071:
001072: 35,3737           00004 21505  ELEPS              2DEC     .27777777  E-3
001073:
001074: 35,3741           77777        DP-.01             OCT      77777                                 #  CONSTANTS
001075: 35,3742           61337                           OCT      61337                                 #  ADJACENT      -.01 FOR MGA DSP
001076: 35,3743           01252 25253  EPSFOUR            2DEC     .0416666666
001077:
001078: 35,3745           13434 16162  130DEG             2DEC     .3611111111
001079:


001081:                                                                                                  #  ..... INITVEL .....
001082:
001083:                                                                                                  #  MOD NO -1                     LOG SECTION - P34-P35, P74-P75
001084:                                                                                                  #  MOD BY WHITE.P                DATE  21NOV67
001085:
001086:                                                                                                  #  FUNCTIONAL DESCRIPTION
001087:
001088:                                                                                                  #        THIS SUBROUTINE COMPUTES THE REQUIRED INITIAL VELOCITY VECTOR FOR
001089:                                                                                                  #        A TRAJECTORY OF SPECIFIED TRANSFER TIME BETWEEN SPECIFIED INITIAL
001090:                                                                                                  #        AND TARGET POSITIONS.  THE TRAJECTORY MAY BE EITHER CONIC OR
001091:                                                                                                  #        PRECISION DEPENDING ON AN INPUT PARAMETER (NAMELY, NUMBER OF
001092:                                                                                                  #        OFFSETS).  IN ADDITION, IN THE PRECISION TRAJECTORY CASE, THE
001093:                                                                                                  #        SUBROUTINE ALSO COMPUTES AN OFFSET TARGET VECTOR, TO BE USED
001094:                                                                                                  #        DURING PURE-CONIC CROSS-PRODUCT STEERING.  THE OFFSET TARGET
001095:                                                                                                  #        VECTOR IS THE TERMINAL POSITION VECTOR OF A CONIC TRAJECTORY WHICH
001096:                                                                                                  #        HAS THE SAME INITIAL STATE AS A PRECISION TRAJECTORY WHOSE
001097:                                                                                                  #        TERMINAL POSITION VECTOR IS THE SPECIFIED TARGET VECTOR.
001098:
001099:                                                                                                  #        IN ORDER TO AVOID THE INHERENT SINGULARITIES IN THE 180 DEGREE
001100:                                                                                                  #        TRANSFER CASE WHEN THE (TRUE OR OFFSET) TARGET VECTOR MAY BE
001101:                                                                                                  #        SLIGHTLY OUT OF THE ORBITAL PLANE, THIS SUBROUTINE ROTATES THIS
001102:                                                                                                  #        VECTOR INTO A PLANE DEFINED BY THE INPUT INITIAL POSITION VECTOR
001103:                                                                                                  #        AND ANOTHER INPUT VECTOR (USUALLY THE INITIAL VELOCITY VECTOR),
001104:                                                                                                  #        WHENEVER THE INPUT TARGET VECTOR LIES INSIDE A CONE WHOSE VERTEX
001105:                                                                                                  #        IS THE ORIGIN OF COORDINATES, WHOSE AXIS IS THE 180 DEGREE
001106:                                                                                                  #        TRANSFER DIRECTION, AND WHOSE CONE ANGLE IS SPECIFIED BY THE USER.
001107:
001108:                                                                                                  #        THE LAMBERT SUBROUTINE IS UTILIZED FOR THE CONIC COMPUTATIONS AND
001109:                                                                                                  #        THE COASTING INTEGRATION SUBROUTINE IS UTILIZED FOR THE PRECISION
001110:                                                                                                  #        TRAJECTORY COMPUTATIONS.
001111:
001112:                                                                                                  #  CALLING SEQUENCE
001113:
001114:                                                                                                  #        L       CALL
001115:                                                                                                  #        L+1             INITVEL
001116:                                                                                                  #        L+2     (RETURN - ALWAYS)
001117:
001118:                                                                                                  #  INPUT
001119:
001120:                                                                                                  #        (1)     RINIT           INITIAL POSITION RADIUS VECTOR
001121:                                                                                                  #        (2)     VINIT           INITIAL POSITION VELOCITY VECTOR
001122:                                                                                                  #        (3)     RTARG           TARGET POSITION RADIUS VECTOR
001123:                                                                                                  #        (4)     DELLT4          DESIRED TIME OF FLIGHT FROM RINIT TO RTARG
001124:                                                                                                  #        (5)     INTIME          TIME OF RINIT
001125:                                                                                                  #        (6)     0D              NUMBER OF ITERATIONS OF LAMBERT/INTEGRVS
001126:                                                                                                  #        (7)     2D              ANGLE TO 180 DEGREES WHEN ROTATION STARTS
001127:                                                                                                  #        (8)     RTX1            -2 FOR EARTH, -10D FOR LUNAR
001128:                                                                                                  #        (9)     RTX2            COORDINATE SYSTEM ORIGIN - 0 FOR EARTH, 2 FOR LUNAR
001129:                                                                                                  #        PUSHLOC SET AT 4D
001130:


001132:                                                                                                  #  OUTPUT
001133:
001134:                                                                                                  #        (1)     RTARG           OFFSET TARGET POSITION VECTOR
001135:                                                                                                  #        (2)     VIPRIME         MANEUVER VELOCITY REQUIRED
001136:                                                                                                  #        (3)     VTPRIME         VELOCITY AT TARGET AFTER MANEUVER
001137:                                                                                                  #        (4)     DELVEET3        DELTA VELOCITY REQUIRED FOR MANEUVER
001138:
001139:                                                                                                  #  SUBROUTINES USED
001140:
001141:                                                                                                  #        LAMBERT
001142:                                                                                                  #        INTSTALL
001143:                                                                                                  #        INTEGRVS
001144:
001145: 11,2000                                           SETLOC   INTVEL
001146: 11,2000                                           BANK
001147:
001148: 11,2000                                           COUNT*   $$/INITV
001149: 11,2000           77614        INITVEL            SET                                            #  COGA GUESS NOT AVAILABLE
001150: 11,2001           00475                                    GUESSW
001151: 11,2002           44175        HAVEGUES           VLOAD    STQ
001152: 11,2003           03444                                    RTARG
001153: 11,2004           03463                                    NORMEX
001154: 11,2005           03472                           STORE    RTARG1
001155: 11,2006           77646                           ABVAL
001156: 11,2007           03723                           STORE    RTMAG
001157: 11,2010           46135                           SLOAD    BHIZ
001158: 11,2011           03000                                    RTX2
001159: 11,2012           22026                                    INITVEL1
001160: 11,2013           72575                           VLOAD    VSL2
001161: 11,2014           02323                                    RINIT                                 #  B29
001162: 11,2015           26323                           STOVL    RINIT                                 #  B27
001163: 11,2016           02331                                    VINIT                                 #  B7
001164: 11,2017           77752                           VSL2
001165: 11,2020           26331                           STOVL    VINIT                                 #  B5
001166: 11,2021           03472                                    RTARG1
001167: 11,2022           77752                           VSL2
001168: 11,2023           03472                           STORE    RTARG1
001169: 11,2024           77646                           ABVAL
001170: 11,2025           03723                           STORE    RTMAG
001171:
001172:                                                                                                  #  INITIALIZATION
001173:
001174: 11,2026           71331        INITVEL1           SSP      DLOAD                                 #  SET ITCTR TO -1,LOAD MPAC WITH E4 (PL 2D)
001175: 11,2027           03617                                    ITCTR
001176: 11,2030           77776                                    0          -1
001177: 11,2031           70546                           COSINE   SR1                                   #  CALCULATE COSINE (E4) (+2)
001178: 11,2032           17667                           STODL    COZY4                                 #  SET COZY4 TO COSINE (E4)          (PL 0D)
001179: 11,2033           67154                           LXA,2    SXA,2
001180: 11,2034           00154                                    MPAC
001181: 11,2035           02701                                    VTARGTAG                              #  SET VTARGTAG TO 0D (SP)
001182: 11,2036           77775                           VLOAD


001184: 11,2037           02323                                    RINIT
001185: 11,2040           26655                           STOVL    R1VEC                                 #  R1VEC EQ RINIT
001186: 11,2041           03472                                    RTARG1
001187: 11,2042           16663                           STODL    R2VEC                                 #  R2VEC EQ RTARG
001188: 11,2043           03452                                    DELLT4
001189: 11,2044           02671                           STORE    TDESIRED                              #  TDESIRED EQ DELLT4
001190: 11,2045           77201                           SETPD    VLOAD
001191: 11,2046           00001                                    0D                                    #  INITIALIZE PL TO 0D
001192: 11,2047           02323                                    RINIT                                 #  MPAC EQ RINIT (+29)
001193: 11,2050           41456                           UNIT     PUSH                                  #  UNIT(RI) (+1)                     (PL 6D)
001194: 11,2051           53435                           VXV      UNIT
001195: 11,2052           02331                                    VINIT                                 #  MPAC EQ UNIT(RI) X VI (+8)
001196: 11,2053           26674                           STOVL    UN
001197: 11,2054           03472                                    RTARG1
001198: 11,2055           50256                           UNIT     DOT                                   #  TEMP=URT.URI (+2)                 (PL 0D)
001199: 11,2056           43015                           DAD      CLEAR
001200: 11,2057           03667                                    COZY4
001201: 11,2060           03665                                    NORMSW
001202: 11,2061           03667                           STORE    COZY4
001203: 11,2062           43044        INITVEL2           BPL      SET
001204: 11,2063           22105                                    INITVEL3                              #  UN CALCULATED IN LAMBERT
001205: 11,2064           03465                                    NORMSW
001206:
001207:                                                                                                  #  ROTATE RC INTO YC PLANE - SET UNIT NORMAL TO YC
001208:
001209: 11,2065           41575                           VLOAD    PUSH                                  #                                    (PL 6D)
001210: 11,2066           02663                                    R2VEC                                 #  RC TO 6D (+29)
001211: 11,2067           63246                           ABVAL    PDVL                                  #  RC TO MPAC, ABVAL(RC) (+29) TO OD (PL 2D)
001212: 11,2070           46206                           PUSH     VPROJ                                 #                                    (PL 8D)
001213: 11,2071           02674                                    UN
001214: 11,2072           51352                           VSL2     BVSU
001215: 11,2073           74256                           UNIT     VXSC                                  #                                    (PL 0D)
001216: 11,2074           77772                           VSL1
001217: 11,2075           02663                           STORE    R2VEC
001218: 11,2076           67351                           TLOAD    SLOAD
001219: 11,2077           24007                                    ZEROVEC
001220: 11,2100           03617                                    ITCTR
001221: 11,2101           77244                           BPL      VLOAD
001222: 11,2102           22105                                    INITVEL3
001223: 11,2103           02663                                    R2VEC
001224: 11,2104           03472                           STORE    RTARG1
001225: 11,2105           63345        INITVEL3           DLOAD    PDVL                                  #                                    (PL 2D)
001226: 11,2106           26007                                    MUEARTH                               #  POSITIVE VALUE
001227: 11,2107           02663                                    R2VEC
001228: 11,2110           63256                           UNIT     PDVL                                  #  2D = UNIT(R2VEC)                  (PL 8D)
001229: 11,2111           02655                                    R1VEC
001230: 11,2112           41456                           UNIT     PUSH                                  #  8D = UNIT(R1VEC)                 (PL 14D)
001231: 11,2113           57435                           VXV      VCOMP                                 #  -N = UNIT(R2VEC) X UNIT(R1VEC)
001232: 11,2114           00003                                    2D
001233: 11,2115           77606                           PUSH                                           #                                   (PL 20D)
001234: 11,2116           71350                           LXA,1    DLOAD


001236: 11,2117           02776                                    RTX1
001237: 11,2120           00023                                    18D
001238: 11,2121           62040                           BMN      INCR,1
001239: 11,2122           22124                                    +2
001240: 11,2123           77767                           DEC      -8         B-14
001241: 11,2124           67310                           INCR,1   SLOAD
001242: 11,2125           00012                                    10D
001243: 11,2126           00047                                    X1
001244: 11,2127           77230                           BHIZ     VLOAD                                 #                                   (PL 14D)
001245: 11,2130           22132                                    +2
001246: 11,2131           41476                           VCOMP    PUSH                                  #                                   (PL 20D)
001247: 11,2132           77775                           VLOAD                                          #                                   (PL 14D)
001248: 11,2133           50235                           VXV      DOT                                   #                                    (PL 2D)
001249: 11,2134           71244                           BPL      DLOAD                                 #                                    (PL 0D)
001250: 11,2135           22137                                    INITVEL4
001251: 11,2136           41476                           DCOMP    PUSH                                  #                                    (PL 2D)
001252: 11,2137           67154        INITVEL4           LXA,2    SXA,2
001253: 11,2140           00000                                    0D
001254: 11,2141           02672                                    GEOMSGN
001255:
001256:                                                                                                  #  SET INPUTS UP FOR LAMBERT
001257:
001258: 11,2142           45150                           LXA,1    CALL
001259: 11,2143           02776                                    RTX1
001260:
001261:                                                                                                  #   OPERATE THE LAMBERT CONIC ROUTINE (COASTFLT SUBROUTINE)
001262:
001263: 11,2144           23765                                    SETITCTR                              #  GO TO END OF BANK TO SET ITERCTR BEFORE
001264:                                                                                                  #  CALLING LAMBERT (FOR REMANUFACTURE ONLY)
001265:
001266:                                                                                                  #  ARRIVED AT SOLUTION IS GOOD ENOUGH ACCORDING TO SLIGHTLY WIDER BOUNDS.
001267:
001268: 11,2145           77214                           CLEAR    VLOAD
001269: 11,2146           00675                                    GUESSW
001270: 11,2147           02744                                    VVEC
001271:
001272:                                                                                                  #  STORE CALCULATED INITIAL VELOCITY REQUIRED IN VIPRIME
001273:
001274: 11,2150           16337                           STODL    VIPRIME                               #  INITIAL VELOCITY REQUIRED (+7)
001275:
001276:                                                                                                  #  IF NUMIT IS ZERO, CONTINUE AT INITVELB, OTHERWISE
001277:                                                                                                  #  SET UP INPUTS FOR ENCKE INTEGRATION (INTEGRVS).
001278:
001279: 11,2151           02702                                    VTARGTAG
001280: 11,2152           45030                           BHIZ     CALL
001281: 11,2153           22230                                    INITVEL7
001282: 11,2154           27414                                    INTSTALL
001283: 11,2155           43135                           SLOAD    CLEAR
001284: 11,2156           03000                                    RTX2
001285: 11,2157           00263                                    MOONFLAG
001286: 11,2160           43030                           BHIZ     SET
001287: 11,2161           22163                                    INITVEL5


001289: 11,2162           00063                                    MOONFLAG
001290: 11,2163           77775        INITVEL5           VLOAD
001291: 11,2164           02323                                    RINIT
001292: 11,2165           02655                           STORE    R1VEC
001293: 11,2166           25535                           STOVL    RCV
001294: 11,2167           02337                                    VIPRIME
001295: 11,2170           15543                           STODL    VCV
001296: 11,2171           03610                                    INTIME
001297: 11,2172           01517                           STORE    TET
001298: 11,2173           43015                           DAD      CLEAR
001299: 11,2174           03452                                    DELLT4
001300: 11,2175           01673                                    INTYPFLG
001301: 11,2176           34041                           STCALL   TDEC1
001302: 11,2177           27107                                    INTEGRVS
001303: 11,2200           77775                           VLOAD
001304: 11,2201           00025                                    VATT1
001305: 11,2202           02703                           STORE    VTARGET
001306:
001307:                                                                                                  #  IF ITERATION COUNTER (ITCTR) EQ NO. ITERATIONS (NUMIT), CONTINUE AT
001308:                                                                                                  #  INITVELC, OTHERWISE REITERATE LAMBERT AND ENCKE
001309:
001310: 11,2203           63154                           LXA,2    INCR,2
001311: 11,2204           03616                                    ITCTR
001312: 11,2205           00001                                    1D                                    #  INCREMENT ITCTR
001313: 11,2206           55134                           SXA,2    XSU,2
001314: 11,2207           03616                                    ITCTR
001315: 11,2210           02701                                    VTARGTAG
001316: 11,2211           46135                           SLOAD    BHIZ                                  #  IF SP(MPAC) EQ 0, CONTINUE AT INITVELC
001317: 11,2212           00050                                    X2
001318: 11,2213           22225                                    INITVEL6
001319:
001320:                                                                                                  #  OFFSET CONIC TARGET VECTOR
001321:
001322: 11,2214           52375                           VLOAD    VSU
001323: 11,2215           03472                                    RTARG1
001324: 11,2216           00017                                    RATT1
001325: 11,2217           77655                           VAD
001326: 11,2220           02663                                    R2VEC
001327: 11,2221           16663                           STODL    R2VEC
001328: 11,2222           03667                                    COZY4
001329: 11,2223           77650                           GOTO
001330: 11,2224           22062                                    INITVEL2                              #  CONTINUE ITERATING AT INITVEL2
001331:
001332:                                                                                                  #  COMPUTE THE DELTA VELOCITY
001333:
001334: 11,2225           77775        INITVEL6           VLOAD
001335: 11,2226           02663                                    R2VEC
001336: 11,2227           03472                           STORE    RTARG1
001337: 11,2230           52375        INITVEL7           VLOAD    VSU
001338: 11,2231           02337                                    VIPRIME
001339: 11,2232           02331                                    VINIT
001340: 11,2233           26366                           STOVL    DELVEET3                              #  DELVEET3 = VIPRIME-VINIT (+7)


001342: 11,2234           02703                                    VTARGET
001343: 11,2235           03566                           STORE    VTPRIME
001344: 11,2236           46135                           SLOAD    BHIZ
001345: 11,2237           03000                                    RTX2
001346: 11,2240           22255                                    INITVELX
001347: 11,2241           70575                           VLOAD    VSR2
001348: 11,2242           03566                                    VTPRIME
001349: 11,2243           27566                           STOVL    VTPRIME
001350: 11,2244           02337                                    VIPRIME
001351: 11,2245           77742                           VSR2
001352: 11,2246           26337                           STOVL    VIPRIME
001353: 11,2247           03472                                    RTARG1
001354: 11,2250           77742                           VSR2
001355: 11,2251           27472                           STOVL    RTARG1
001356: 11,2252           02366                                    DELVEET3
001357: 11,2253           77742                           VSR2
001358: 11,2254           02366                           STORE    DELVEET3
001359: 11,2255           70750        INITVELX           LXA,1    DLOAD*
001360: 11,2256           02776                                    RTX1
001361: 11,2257           10003                                    MUTABLE    -2,1
001362: 11,2260           41206                           PUSH     DMP
001363: 11,2261           02742                                    R1A
001364: 11,2262           56342                           SR1      DDV
001365: 11,2263           00041                                    R1
001366: 11,2264           17721                           STODL    MU/A
001367: 11,2265           77661                           SR
001368: 11,2266           20607                                    6
001369: 11,2267           03717                           STORE    MUASTEER
001370: 11,2270           77201                           SETPD    VLOAD
001371: 11,2271           00001                                    0D
001372: 11,2272           03472                                    RTARG1
001373: 11,2273           37444                           STCALL   RTARG
001374: 11,2274           03463                                    NORMEX
001375:
001376:                                                                                                  #  ..... END OF INITVEL ROUTINE .....
001377:


001379:                                                                                                  #  ..... MIDGIM .....
001380:
001381:                                                                                                  #  MOD NO. 0, BY WILLMAN, SUBROUTINE RENDGUID, LOG P34-P35, P74-P75
001382:                                                                                                  #  REVISION 03, 17 FEB 67
001383:
001384:                                                                                                  #  IF THE ACTIVE VEHICLE IS DOING THE COMPUTATION, MIDGIM COMPUTES
001385:                                                                                                  #  THE POSITIVE MIDDLE GIMBAL ANGLE OF THE ACTIVE VEHICLE TO THE INPUT
001386:                                                                                                  #  DELTA VELOCITY VECTOR (0D IN PUSH LIST), OTHERWISE
001387:                                                                                                  #  MIDGIM CONVERTS THE INPUT DELTA VELOCITY VECTOR FROM INERTIAL COORDIN-
001388:                                                                                                  #  ATES TO LOCAL VERTICAL COORDINATES OF THE ACTIVE VEHICLE.
001389:
001390:                                                                                                  #  .. INPUTS ..
001391:
001392:                                                                                                  #        NAME    MEANING                                         UNITS/SCALING/MODE
001393:
001394:                                                                                                  #        AVFLAG  INT FLAG - 0 IS CSM ACTIVE, 1 IS LEM ACTIVE                     BIT
001395:                                                                                                  #        RINIT   ACTIVE VEHICLE RADIUS VECTOR                    METERS/CSEC (+7) VT
001396:                                                                                                  #        VINIT   ACTIVE VEHICLE VELOCITY VECTOR                  METERS/CSEC (+7) VT
001397:                                                                                                  #        0D(PL)  ACTIVE VEHICLE DELTA VELOCITY VECTOR            METERS/CSEC (+7) VT
001398:
001399:                                                                                                  #  .. OUTPUTS ..
001400:
001401:                                                                                                  #     NAME       MEANING                                         UNITS/SCALING/MODE
001402:
001403:                                                                                                  #     +MGA       + MIDDLE GIMBAL ANGLE                           REVOLUTIONS (+0) DP
001404:                                                                                                  #     DELVLVC    DELTA VELOCITY VECTOR IN LV COORD.              METERS/CSEC (+7) VT
001405:                                                                                                  #     MGLVFLAG   INT FLAG - 0 IS +MGA COMPUTED, 1 IS DELVLVC COMP.       -       BIT
001406:
001407:                                                                                                  #  .. CALLING SEQUENCE ..
001408:
001409:                                                                                                  #        L       CALL
001410:                                                                                                  #        L+1             MIDGIM
001411:                                                                                                  #        L+2     (RETURN - ALWAYS)
001412:
001413:                                                                                                  #  .. NO SUBROUTINES CALLED ..
001414:
001415:                                                                                                  #  .. DEBRIS - ERASEABLE TEMPORARY USAGE
001416:
001417:                                                                                                  #        A,Q,L, PUSH LIST, MPAC.
001418:
001419:                                                                                                  #  .. ALARMS - NONE ..
001420:


001422:                                                                                                  #  MIDDLE GIMBAL ANGLE COMPUTATION.
001423:
001424: 06,2000                                           SETLOC   MIDDGIM
001425: 06,2000                                           BANK
001426:
001427: 06,3715                                           COUNT*   $$/MIDG
001428:
001429: 06,3715           20000 00000  HALFREV            2DEC     1          B-1
001430:
001431: 06,3717           53575        GET+MGA            VLOAD    UNIT                                  #  (PL 0D) V (+7) TO MPAC, UNITIZE UV (+1)
001432: 06,3720           77656                           UNIT
001433: 06,3721           72441                           DOT      SL1                                   #  DOT UV WITH Y(STABLE MEMBER) AND RESCALE
001434: 06,3722           01742                                    REFSMMAT   +6                         #  FROM +2 TO +1 FOR ASIN ROUTINE
001435: 06,3723           51136                           ARCSIN   BPL
001436: 06,3724           15730                                    SETMGA
001437: 06,3725           43215                           DAD      DAD                                   #  CONVERT -MGA TO +MGA BY
001438: 06,3726           15716                                    HALFREV                               #  ADDING ONE REVOLUTION
001439: 06,3727           15716                                    HALFREV
001440: 06,3730           02253        SETMGA             STORE    +MGA
001441: 06,3731           43414                           CLR      RVQ                                   #  CLEAR MGLVFLAG TO INDICATE +MGA CALC
001442: 06,3732           02675                                    MGLVFLAG                              #  AND EXIT
001443: 06,3733           53575        GET.LVC            VLOAD    UNIT                                  #  (PL 6D) R (+29) IN MPAC, UNITIZE UR
001444: 06,3734           02323                                    RINIT
001445: 06,3735           77676                           VCOMP                                          #  U(-R)
001446: 06,3736           00023                           STORE    18D                                   #  U(-R) TO 18D
001447: 06,3737           53435                           VXV      UNIT                                  #  U(-R)*V EQ V*U(R), U(V*R)
001448: 06,3740           02331                                    VINIT
001449: 06,3741           00015                           STORE    12D                                   #  U(V*R) TO 12D
001450: 06,3742           53435                           VXV      UNIT                                  #  U(V*R)*U(-R), U((V*R)*(-R))
001451: 06,3743           00023                                    18D
001452: 06,3744           24007                           STOVL    6D                                    #  TRANSFORMATION MATRIX IS IN 6D (+1)
001453: 06,3745           00001                                    0D                                    #  DELTA V (+7) IN 0D
001454: 06,3746           76521                           MXV      VSL1                                  #  CONVERT FROM INER COOR TO LV COOR (+8)
001455: 06,3747           00007                                    6D                                    #  AND SCALE +7 IN MPAC
001456: 06,3750           03434                           STORE    DELVLVC                               #  STORE IN DELVLVC (+7)
001457: 06,3751           43414                           SET      RVQ                                   #  SET MGLVFLAG TO INDICATE LVC CALC
001458: 06,3752           02475                                    MGLVFLAG                              #  AND EXIT
001459:
001460:                                                                                                  #  ..... END OF MIDGIM ROUTINE .....
001461:


001463: 10,2000                                           BANK     10
001464: 10,2000                                           SETLOC   SLCTMU
001465: 10,2000                                           BANK
001466: 10,2000                                           COUNT*   $$/MIDG
001467:
001468: 10,2000           77160        SELECTMU           AXC,1    AXT,2
001469: 10,2001           00002                                    2D
001470: 10,2002           00000                                    0D
001471: 10,2003           77614                           BOFF
001472: 10,2004           04343                                    CMOONFLG
001473: 10,2005           20011                                    SETMUER
001474: 10,2006           77160                           AXC,1    AXT,2
001475: 10,2007           00012                                    10D
001476: 10,2010           00002                                    2D
001477: 10,2011           66143        SETMUER            DLOAD*   SXA,1
001478: 10,2012           10011                                    MUTABLE    +4,1
001479: 10,2013           02776                                    RTX1
001480: 10,2014           22317                           STODL*   RTSR1/MU
001481: 10,2015           10003                                    MUTABLE    -2,1
001482: 10,2016           54214                           BOFF     SR
001483: 10,2017           04343                                    CMOONFLG
001484: 10,2020           20022                                    RTRNMU
001485: 10,2021           20607                                    6D
001486: 10,2022           02321        RTRNMU             STORE    RTMU
001487: 10,2023           43134                           SXA,2    CLEAR
001488: 10,2024           02777                                    RTX2
001489: 10,2025           01271                                    FINALFLG
001490: 10,2026           77650                           GOTO
001491: 10,2027           73606                                    VN1645
001492:


001494:                                                                                                  #  ..... PERIAPO .....
001495:
001496:                                                                                                  #  MOD NO -1                     LOG SECTION - P34-P35, P74-P75
001497:                                                                                                  #  MOD BY WHITE.P                DATE 18JAN68
001498:
001499:                                                                                                  #  FUNCTIONAL DESCRIPTION
001500:
001501:                                                                                                  #        THIS SUBROUTINE COMPUTES THE TWO BODY APOCENTER AND PERICENTER
001502:                                                                                                  #        ALTITUDES GIVEN THE POSITION AND VELOCITY VECTORS FOR A POINT ON
001503:                                                                                                  #        THE TRAJECTORY AND THE PRIMARY BODY.
001504:
001505:                                                                                                  #        SETRAD IS CALLED TO DETERMINE THE RADIUS OF THE PRIMARY BODY.
001506:
001507:                                                                                                  #        APSIDES IS CALLED TO SOLVE FOR THE TWO BODY RADII OF APOCENTER AND
001508:                                                                                                  #        PERICENTER AND THE ECCENTRICITY OF THE TRAJECTORY.
001509:
001510:                                                                                                  #  CALLING SEQUENCE
001511:
001512:                                                                                                  #        L       CALL
001513:                                                                                                  #        L+1             PERIAPO
001514:                                                                                                  #        L+2     (RETURN - ALWAYS)
001515:
001516:                                                                                                  #  INPUT
001517:
001518:                                                                                                  #        (1)     RVEC    POSITION VECTOR IN METERS
001519:                                                                                                  #                        SCALE FACTOR - EARTH +29, MOON +27
001520:                                                                                                  #        (2)     VVEC    VELOCITY VECTOR IN METERS/CENTISECOND
001521:                                                                                                  #                        SCALE FACTOR - EARTH +7, MOON +5
001522:                                                                                                  #        (3)     X1      PRIMARY BODY INDICATOR
001523:                                                                                                  #                        EARTH -2, MOON -10
001524:
001525:                                                                                                  #  OUTPUT
001526:
001527:                                                                                                  #        (1)     2D      APOCENTER RADIUS IN METERS
001528:                                                                                                  #                        SCALE FACTOR - EARTH +29, MOON +27
001529:                                                                                                  #        (2)     4D      APOCENTER ALTITUDE IN METERS
001530:                                                                                                  #                        SCALE FACTOR - EARTH +29, MOON P27
001531:                                                                                                  #        (3)     6D      PERICENTER RADIUS IN METERS
001532:                                                                                                  #                        SCALE FACTOR - EARTH +29, MOON +27
001533:                                                                                                  #        (4)     8D      PERICENTER ALTITUDE IN METERS
001534:                                                                                                  #                        SCALE FACTOR - EARTH +29, MOON +27
001535:                                                                                                  #        (5)     ECC     ECCENTRICITY OF CONIC TRAJECTORY
001536:                                                                                                  #                        SCALE FACTOR - +3
001537:                                                                                                  #        (6)     XXXALT  RADIUS OF THE PRIMARY BODY IN METERS
001538:                                                                                                  #                        SCALE FACTOR - EARTH +29, MOON +27
001539:                                                                                                  #        (7)     PUSHLOC EQUALS 10D
001540:
001541:                                                                                                  #  SUBROUTINES USED
001542:
001543:                                                                                                  #        SETRAD


001545:                                                                                                  #        APSIDES
001546:
001547: 23,2000                                           SETLOC   APOPERI
001548: 23,2000                                           BANK
001549:
001550: 23,2314                                           COUNT*   $$/PERAP
001551:
001552: 23,2314           00302 17755  RPAD               2DEC     6373338    B-29                       #  STANDARD RADIUS OF PAD 37-B.
001553:                                                                                                  #  = 20 909 901.57 FT
001554:
001555: 23,2316           53754        PERIAPO1           LXA,2    VSR*
001556: 23,2317           02777                                    RTX2
001557: 23,2320           57176                                    0,2
001558: 23,2321           26744                           STOVL    VVEC
001559: 23,2322           53750                           LXA,1    VSR*
001560: 23,2323           02776                                    RTX1
001561: 23,2324           57176                                    0,2
001562: 23,2325           02655                           STORE    RVEC
001563: 23,2326           45020        PERIAPO            STQ      CALL
001564: 23,2327           03463                                    NORMEX
001565: 23,2330           46344                                    SETRAD
001566: 23,2331           37671                           STCALL   XXXALT
001567: 23,2332           25674                                    APSIDES
001568: 23,2333           41401                           SETPD    PUSH                                  #  2D = APOCENTER RADIUS         B29 OR B27
001569: 23,2334           00003                                    2D
001570: 23,2335           65225                           DSU      PDDL                                  #  4D = APOGEE ALTITUDE          B29 OR B27
001571: 23,2336           03671                                    XXXALT
001572: 23,2337           00001                                    0D
001573: 23,2340           45206                           PUSH     DSU                                   #  6D = PERICENTER RADIUS        B29 OR B27
001574: 23,2341           03671                                    XXXALT
001575: 23,2342           52006                           PUSH     GOTO                                  #  8D = PERIGEE ALTITUDE         B29 OR B27
001576: 23,2343           03463                                    NORMEX
001577:


001579:                                                                                                  #  SETRAD
001580:
001581: 23,2344           41545        SETRAD             DLOAD    PUSH
001582: 23,2345           06315                                    RPAD
001583: 23,2346           63130                           SXA,1    INCR,2
001584: 23,2347           00047                                    X2
001585: 23,2350           00002                                    2D
001586: 23,2351           46135                           SLOAD    BHIZ
001587: 23,2352           00050                                    X2
001588: 23,2353           46357                                    SETRADX
001589: 23,2354           51575                           VLOAD    ABVAL
001590: 23,2355           02023                                    RLS
001591: 23,2356           77725                           PDDL
001592: 23,2357           43545        SETRADX            DLOAD    RVQ
001593:


001595:                                                                                                  #  PRECSET
001596:
001597: 23,2360           77620        PRECSET            STQ
001598: 23,2361           03463                                    NORMEX
001599: 23,2362           37574                           STCALL   TDEC2
001600: 23,2363           27057                                    LEMPREC
001601: 23,2364           77624                           CALL
001602: 23,2365           46376                                    LEMSTORE
001603: 23,2366           77745                           DLOAD
001604: 23,2367           03574                                    TDEC2
001605: 23,2370           34041                           STCALL   TDEC1
001606: 23,2371           27043                                    CSMPREC
001607: 23,2372           77624                           CALL
001608: 23,2373           46406                                    CSMSTORE
001609: 23,2374           77650                           GOTO
001610: 23,2375           03463                                    NORMEX
001611: 23,2376           43175        LEMSTORE           VLOAD    BOFF
001612: 23,2377           00001                                    RATT
001613: 23,2400           01352                                    AVFLAG
001614: 23,2401           46412                                    PASSIVE
001615: 23,2402           27536        ACTIVE             STOVL    RACT3
001616: 23,2403           00007                                    VATT
001617: 23,2404           03544                           STORE    VACT3
001618: 23,2405           77616                           RVQ
001619: 23,2406           43175        CSMSTORE           VLOAD    BOFF
001620: 23,2407           00001                                    RATT
001621: 23,2410           01352                                    AVFLAG
001622: 23,2411           46402                                    ACTIVE
001623: 23,2412           27552        PASSIVE            STOVL    RPASS3
001624: 23,2413           00007                                    VATT
001625: 23,2414           03560                           STORE    VPASS3
001626: 23,2415           77616                           RVQ
001627:


001629:                                                                                                  #  VECSHIFT
001630:
001631: 23,2416           53754        VECSHIFT           LXA,2    VSR*
001632: 23,2417           02777                                    RTX2
001633: 23,2420           57176                                    0,2
001634: 23,2421           63350                           LXA,1    PDVL
001635: 23,2422           02776                                    RTX1
001636: 23,2423           63257                           VSR*     PDVL
001637: 23,2424           57176                                    0,2
001638: 23,2425           77616                           RVQ
001639:


001641:                                                                                                  #  SHIFTR1
001642:
001643: 23,2426           53754        SHIFTR1            LXA,2    SL*
001644: 23,2427           02777                                    RTX2
001645: 23,2430           57576                                    0,2
001646: 23,2431           77616                           RVQ
001647:


001649:                                                                                                  #  PROGRAM DESCRIPTION
001650:                                                                                                  #  SUBROUTINE NAME       R36     OUT-OF-PLANE RENDEZVOUS ROUTINE
001651:                                                                                                  #  MOD NO. 0             DATE    22 DECEMBER 67
001652:                                                                                                  #  MOD BY N.M.NEVILLE    LOG SECTION EXTENDED VERBS
001653:                                                                                                  #  FUNCTIONAL DESCRIPTION
001654:
001655:                                                                                                  #  TO DISPLAY AT ASTRONAUT REQUEST LGC CALCULATED RENDEZVOUS
001656:                                                                                                  #  OUT-OF-PLANE PARAMETERS (Y, YDOT, PSI).  (REQUESTED BY DSKY).
001657:
001658:                                                                                                  #  CALLING SEQUENCE
001659:
001660:                                                                                                  #        ASTRONAUT REQUEST THROUGH DSKY V 90 E
001661:
001662:                                                                                                  #  SUBROUTINES CALLED
001663:
001664:                                                                                                  #        EXDSPRET
001665:                                                                                                  #        GOMARKF
001666:                                                                                                  #        CSMPREC
001667:                                                                                                  #        LEMPREC
001668:                                                                                                  #        SGNAGREE
001669:                                                                                                  #        LOADTIME
001670:
001671:                                                                                                  #  NORMAL EXIT MODES
001672:
001673:                                                                                                  #        ASTRONAUT REQUEST THROUGH DSKY TO TERMINATE PROGRAM V 34 E
001674:
001675:                                                                                                  #  ALARM OR ABORT EXIT MODES
001676:
001677:                                                                                                  #        NONE
001678:
001679:                                                                                                  #  OUTPUT
001680:
001681:                                                                                                  #        DECIMAL DISPLAY OF TIME, Y, YDOT AND PSI
001682:
001683:                                                                                                  #        DISPLAYED VALUES Y, YDOT, AND PSI, ARE STORED IN ERASABLE
001684:                                                                                                  #        REGISTERS RANGE, RRATE AND RTHETA RESPECTIVELY.
001685:
001686:                                                                                                  #  ERASABLE INITIALIZATION REQUIRED
001687:
001688:                                                                                                  #        CSM AND LEM STATE VECTORS
001689:
001690:                                                                                                  #  DEBRIS
001691:
001692:                                                                                                  #        CENTRALS A,Q,L
001693:                                                                                                  #        OTHER THOSE USED BY THE ABOVE LISTED SUBROUTINES
001694:
001695: 20,2115                                           BANK     20
001696: 04,2000                                           SETLOC   R36LM
001697: 04,2000                                           BANK


001699: 04,2656  E4,1606                                  EBANK=   RPASS36
001700:
001701: 04,2656                                           COUNT*   $$/R36
001702:
001703: 04,2656           22007        R36                ZL
001704: 04,2657           34755                           CAF      ZERO                                  #  SET TIME OF EVENT TO ZERO FOR FIRST
001705: 04,2660           53052                           DXCH     DSPTEMX                               #  DISPLAY
001706: 04,2661           33011                           CAF      V06N16N
001707: 04,2662           04616                           TC       BANKCALL
001708: 04,2663           20334                           CADR     GOMARKF
001709: 04,2664           15472                           TCF      ENDEXT                                #  TERMINATE
001710: 04,2665           12667                           TCF      +2                                    #  PROCEED
001711: 04,2666           12661                           TCF      -5                                    #  RECYCLE FOR ASTRONAUT INPUT TIME
001712: 04,2667           53052                           DXCH     DSPTEMX
001713: 04,2670           00006                           EXTEND
001714: 04,2671           13000                           BZF      LREGCHK                               #  A-REG ZERO GOTO CHECK L-REG FOR ZERO
001715: 04,2672           52155        ASTROTIM           DXCH     MPAC                                  #  A-REG NON-ZERO, TIME = ASTRO INPUT TIME
001716: 04,2673           06037                           TC       INTPRET
001717: 04,2674           77634                           RTB
001718: 04,2675           21716                                    DPMODE
001719: 04,2676           34041        R36INT             STCALL   TDEC1
001720: 04,2677           27043                                    OTHPREC
001721: 04,2700           63375                           VLOAD    PDVL
001722: 04,2701           00007                                    VATT
001723: 04,2702           00001                                    RATT                                  #  -
001724: 04,2703           02207                           STORE    RPASS36                               #  R
001725: 04,2704           63256                           UNIT     PDVL                                  #   P
001726: 04,2705           53435                           VXV      UNIT
001727: 04,2706           77626                           STADR                                          #  -
001728: 04,2707           61562                           STODL    UNP36                                 #  U
001729: 04,2710           00015                                    TAT
001730: 04,2711           34041                           STCALL   TDEC1
001731: 04,2712           27057                                    THISPREC
001732: 04,2713           63375                           VLOAD    PDVL                                  #                  -
001733: 04,2714           00007                                    VATT                                  #  VELOCITY VECTOR V             00D
001734: 04,2715           00001                                    RATT                                  #                   A
001735: 04,2716           77725                           PDDL
001736: 04,2717           00015                                    TAT                                   #  SAVE TIME IN LOCATION 30D FOR REDISPLAY
001737: 04,2720           24037                           STOVL    30D                                   #                  -
001738: 04,2721           41406                           PUSH     PUSH                                  #  POSITION VECTOR R  IN 06D AND 12D
001739: 04,2722           63245                           BVSU     PDVL                                  #                   A   -   -
001740: 04,2723           02207                                    RPASS36                               #  LINE OF SIGHT VECTOR R - R    12D
001741: 04,2724           72441                           DOT      SL1                                   #                        P   A
001742: 04,2725           02215                                    UNP36                                 #      -   -
001743: 04,2726           26201                           STOVL    RANGE                                 #  Y = U . R
001744: 04,2727           00001                                    00D                                   #           A
001745: 04,2730           72441                           DOT      SL1
001746: 04,2731           02215                                    UNP36                                 #  .   -   -
001747: 04,2732           26203                           STOVL    RRATE                                 #  Y = U . V
001748: 04,2733           00007                                    06D                                   #  -        A  -


001750: 04,2734           41456                           UNIT     PUSH                                  #  U  = UNIT ( R  )              18D
001751: 04,2735           47235                           VXV      VXV                                   #   RA          A
001752: 04,2736           00001                                    00D                                   #   -    -     -     -
001753: 04,2737           00023                                    18D                                   #  (U  X V ) X U   = U
001754: 04,2740           53552                           VSL2     UNIT                                  #    RA   A     RA    A
001755: 04,2741           77656                           UNIT
001756: 04,2742           24001                           STOVL    00D                                   #  UNIT HORIZONTAL IN FORWARD DIR. 00D
001757: 04,2743           00023                                    18D
001758: 04,2744           74241                           DOT      VXSC                                  #  -
001759: 04,2745           00015                                    12D                                   #  U
001760: 04,2746           77752                           VSL2                                           #   L
001761: 04,2747           53445                           BVSU     UNIT
001762: 04,2750           77656                           UNIT
001763: 04,2751           50206                           PUSH     DOT                                   #  LOS PROJECTED INTO HORIZONTAL  12D
001764: 04,2752           00001                                    00D                                   #  PLANE
001765: 04,2753           65552                           SL1      ARCCOS                                #               -   -
001766: 04,2754           26205                           STOVL    RTHETA                                #  PSI = ARCCOS(U . U )
001767: 04,2755           50235                           VXV      DOT                                   #                A   L
001768: 04,2756           00001                                    00D
001769: 04,2757           71244                           BPL      DLOAD
001770: 04,2760           10765                                    R36TAG2
001771: 04,2761           24020                                    LODPMAX
001772: 04,2762           77625                           DSU
001773: 04,2763           02205                                    RTHETA
001774: 04,2764           02205                           STORE    RTHETA
001775: 04,2765           47145        R36TAG2            DLOAD    RTB
001776: 04,2766           00037                                    30D
001777: 04,2767           21612                                    SGNAGREE
001778: 04,2770           01052                           STORE    DSPTEMX
001779: 04,2771           77776                           EXIT
001780: 04,2772           33012                           CAF      V06N90N                               #  DISPLAY Y, YDOT, AND PSI
001781: 04,2773           04616                           TC       BANKCALL
001782: 04,2774           20334                           CADR     GOMARKF
001783: 04,2775           15472                           TCF      ENDEXT                                #  TERMINATE
001784: 04,2776           15472                           TCF      ENDEXT                                #  PROCEED, END OF PROGRAM
001785: 04,2777           12661                           TCF      R36        +3                         #  REDISPLAY OUTPUT
001786: 04,3000           56001        LREGCHK            XCH      L
001787: 04,3001           00006                           EXTEND
001788: 04,3002           13005                           BZF      ENTTIM2                               #  L-REG ZERO, SET TIME = PRESENT TIME
001789: 04,3003           56001                           XCH      L                                     #  L-REG NON ZERO, TIME = ASTRO INPUT TIME
001790: 04,3004           12672                           TCF      ASTROTIM
001791: 04,3005           06037        ENTTIM2            TC       INTPRET
001792: 04,3006           52034                           RTB      GOTO
001793: 04,3007           21573                                    LOADTIME
001794: 04,3010           10676                                    R36INT
001795: 04,3011           01420        V06N16N            VN       00616
001796: 04,3012           01532        V06N90N            VN       00690

End of include-file P34-P35,_P74-P75.agc.  Parent file is MAIN.agc


