
Source Code


000002:                                                                                                  ## Copyright:   Public domain.
000003:                                                                                                  ## Filename:    P76.agc
000004:                                                                                                  ## Purpose:     Part of the reconstructed source code for LMY99 Rev 0,
000005:                                                                                                  ##              otherwise known as Luminary Rev 99, the second release
000006:                                                                                                  ##              of the Apollo Guidance Computer (AGC) software for Apollo 11.
000007:                                                                                                  ##              It differs from LMY99 Rev 1 (the flown version) only in the
000008:                                                                                                  ##              placement of a single label. The corrections shown here have
000009:                                                                                                  ##              been verified to have the same bank checksums as AGC developer
000010:                                                                                                  ##              Allan Klumpp's copy of Luminary Rev 99, and so are believed
000011:                                                                                                  ##              to be accurate. This file is intended to be a faithful
000012:                                                                                                  ##              recreation, except that the code format has been changed to
000013:                                                                                                  ##              conform to the requirements of the yaYUL assembler rather than
000014:                                                                                                  ##              the original YUL assembler.
000015:                                                                                                  ##
000016:                                                                                                  ## Assembler:   yaYUL
000017:                                                                                                  ## Contact:     Ron Burkey <info@sandroid.org>.
000018:                                                                                                  ## Website:     www.ibiblio.org/apollo.
000019:                                                                                                  ## Pages:       709-711
000020:                                                                                                  ## Mod history: 2009-05-19 RSB  Adapted from the corresponding
000021:                                                                                                  ##                              Luminary131 file, using page
000022:                                                                                                  ##                              images from Luminary 1A.
000023:                                                                                                  ##              2016-12-13 RSB  GOTOP00H -> GOTOPOOH
000024:                                                                                                  ##              2016-12-14 RSB  Proofed text comments with octopus/ProoferComments
000025:                                                                                                  ##                              and corrected the errors found.
000026:                                                                                                  ##              2017-08-01 MAS  Created from LMY99 Rev 1.
000027:
000028:                                                                                                  ## This source code has been transcribed or otherwise adapted from
000029:                                                                                                  ## digitized images of a hardcopy from the MIT Museum.  The digitization
000030:                                                                                                  ## was performed by Paul Fjeld, and arranged for by Deborah Douglas of
000031:                                                                                                  ## the Museum.  Many thanks to both.  The images (with suitable reduction
000032:                                                                                                  ## in storage size and consequent reduction in image quality as well) are
000033:                                                                                                  ## available online at www.ibiblio.org/apollo.  If for some reason you
000034:                                                                                                  ## find that the images are illegible, contact me at info@sandroid.org
000035:                                                                                                  ## about getting access to the (much) higher-quality images which Paul
000036:                                                                                                  ## actually created.
000037:                                                                                                  ##
000038:                                                                                                  ## The code has been modified to match LMY99 Revision 0, otherwise
000039:                                                                                                  ## known as Luminary Revision 99, the Apollo 11 software release preceeding
000040:                                                                                                  ## the listing from which it was transcribed. It has been verified to
000041:                                                                                                  ## contain the same bank checksums as AGC developer Allan Klumpp's listing
000042:                                                                                                  ## of Luminary Revision 99 (for which we do not have scans).
000043:                                                                                                  ##
000044:                                                                                                  ## Notations on Allan Klumpp's listing read, in part:
000045:                                                                                                  ##
000046:                                                                                                  ##      ASSEMBLE REVISION 099 OF AGC PROGRAM LUMINARY BY NASA 2021112-51
000047:


000049:                                                                                                  #  1)    PROGRAM NAME - TARGET DELTA V PROGRAM (P76).
000050:                                                                                                  #  2)    FUNCTIONAL DESCRIPTION - UPON ENTRY BY ASTRONAUT ACTION, P76 FLASHES DSKY REQUESTS TO THE ASTRONAUT
000051:                                                                                                  #        TO PROVIDE VIA DSKY (1) THE DELTA V TO BE APPLIED TO THE OTHER VEHICLE STATE VECTOR AND (2) THE
000052:                                                                                                  #        TIME (TIG) AT WHICH THE OTHER VEHICLE VELOCITY WAS CHANGED BY EXECUTION OF A THRUSTING MANEUVER. THE
000053:                                                                                                  #        OTHER VEHICLE STATE VECTOR IS INTEGRATED TO TIG AND UPDATED BY THE ADDITION OF DELTA V (DELTA V HAVING
000054:                                                                                                  #        BEEN TRANSFORMED FROM LV TO REF COSYS).  USING INTEGRVS, THE PROGRAM THEN INTEGRATES THE OTHER
000055:                                                                                                  #        VEHICLE STATE VECTOR TO THE STATE VECTOR OF THIS VEHICLE, THUS INSURING THAT THE W-MATRIX AND BOTH VEHICLE
000056:                                                                                                  #        STATES CORRESPOND TO THE SAME TIME.
000057:                                                                                                  #  3)    ERASABLE INITIALIZATION REQUIRED - NONE.
000058:                                                                                                  #  4)    CALLING SEQUENCES AND EXIT MODES - CALLED BY ASTRONAUT REQUEST THRU DSKY V 37 E 76E.
000059:                                                                                                  #        EXITS BY TCF ENDOFJOB.
000060:                                                                                                  #  5)    OUTPUT - OTHER VEHICLE STATE VECTOR INTEGRATED TO TIG AND INCREMENTED BY DELTA V IN REF COSYS.
000061:                                                                                                  #        THE PUSHLIST CONTAINS THE MATRIX BY WHICH THE INPUT DELTA V MUST BE POST-MULTIPLIED TO CONVERT FROM LV
000062:                                                                                                  #        TO REF COSYS.
000063:                                                                                                  #  6)    DEBRIS - OTHER VEHICLE STATE VECTOR.
000064:                                                                                                  #  7)    SUBROUTINES CALLED - BANKCALL, GOXDSPF, CSMPREC (OR LEMPREC), ATOPCSM (OR ATOPLEM), INTSTALL, INTWAKE, PHASCHNG
000065:                                                                                                  #        INTPRET, INTEGRVS, AND MINIRECT.
000066:                                                                                                  #  8)    FLAG USE - MOONFLAG, CMOONFLAG, INTYPFLG, RASFLAG, AND MARKCTR.
000067:
000068: 30,2061                                           BANK     30
000069: 13,2000                                           SETLOC   P76LOC
000070: 13,2000                                           BANK
000071:
000072: 13,2207                                           COUNT*   $$/P76
000073:
000074: 13,2207  E7,1441                                  EBANK=   TIG
000075:
000076: 13,2207           05504        P76                TC       UPFLAG
000077: 13,2210           00031                           ADRES    TRACKFLG
000078:
000079: 13,2211           06037                           TC       INTPRET
000080: 13,2212           77775                           VLOAD
000081: 13,2213           03434                                    DELVLVC
000082: 13,2214           02223                           STORE    DELVOV
000083: 13,2215           77776                           EXIT
000084:
000085: 13,2216           32336                           CAF      V06N84                                #  FLASH LAST DELTA V,
000086: 13,2217           04616                           TC       BANKCALL                              #  AND WAIT FOR KEYBOARD ACTION.
000087: 13,2220           20476                           CADR     GOFLASH
000088: 13,2221           12333                           TCF      ENDP76
000089: 13,2222           02224                           TC       +2                                    #  PROCEED
000090: 13,2223           02216                           TC       -5                                    #  STORE DATA AND REPEAT FLASHING
000091: 13,2224           32337                           CAF      V06N84     +1                         #  FLASH VERB 06 NOUN 33, DISPLAY LAST TIG,
000092: 13,2225           04616                           TC       BANKCALL                              #  AND WAIT FOR KEYBOARD ACTION.
000093: 13,2226           20476                           CADR     GOFLASH
000094: 13,2227           12333                           TCF      ENDP76
000095: 13,2230           02232                           TC       +2
000096: 13,2231           02224                           TC       -5
000097: 13,2232           06037                           TC       INTPRET                               #  RETURN TO INTERPRETIVE CODE


000099: 13,2233           77745                           DLOAD                                          #  SET D(MPAC)=TIG IN CSEC B28
000100: 13,2234           03442                                    TIG
000101: 13,2235           34041                           STCALL   TDEC1                                 #  SET TDEC1=TIG FOR ORBITAL INTEGRATION
000102: 13,2236           27043                                    OTHPREC
000103: 13,2237           53575        COMPMAT            VLOAD    UNIT
000104: 13,2240           00001                                    RATT
000105: 13,2241           77676                           VCOMP                                          #  U(-R)
000106: 13,2242           00031                           STORE    24D                                   #  U(-R) TO 24D
000107: 13,2243           53435                           VXV      UNIT                                  #  U(-R) X V = U(V X R)
000108: 13,2244           00007                                    VATT
000109: 13,2245           00023                           STORE    18D
000110: 13,2246           53435                           VXV      UNIT                                  #  U(V X R) X U(-R) = U((R X V) X R)
000111: 13,2247           00031                                    24D
000112: 13,2250           24015                           STOVL    12D
000113: 13,2251           02223                                    DELVOV
000114: 13,2252           76505                           VXM      VSL1                                  #  V(MPAC)=DELTA V IN REFCOSYS
000115: 13,2253           00015                                    12D
000116: 13,2254           77655                           VAD
000117: 13,2255           00007                                    VATT
000118: 13,2256           00007                           STORE    6                                     #  V(PD6)=VATT + DELTA V
000119: 13,2257           77624                           CALL                                           #  PREVENT WOULD-BE USER OF ORBITAL
000120: 13,2260           27414                                    INTSTALL                              #  INTEG FROM INTERFERING WITH UPDATING
000121: 13,2261           77624                           CALL
000122: 13,2262           26340                                    P76SUB1
000123: 13,2263           53775                           VLOAD    VSR*
000124: 13,2264           00007                                    6
000125: 13,2265           57176                                    0,2
000126: 13,2266           25543                           STOVL    VCV
000127: 13,2267           00001                                    RATT
000128: 13,2270           77657                           VSR*
000129: 13,2271           57176                                    0,2
000130: 13,2272           15535                           STODL    RCV
000131: 13,2273           03442                                    TIG
000132: 13,2274           01517                           STORE    TET
000133: 13,2275           71214                           CLEAR    DLOAD
000134: 13,2276           01673                                    INTYPFLG
000135: 13,2277           01643                                    TETTHIS
000136: 13,2300           34041        INTOTHIS           STCALL   TDEC1
000137: 13,2301           27107                                    INTEGRVS
000138: 13,2302           77624                           CALL
000139: 13,2303           27414                                    INTSTALL
000140: 13,2304           77775                           VLOAD
000141: 13,2305           00017                                    RATT1
000142: 13,2306           01503                           STORE    RRECT
000143: 13,2307           15535                           STODL    RCV
000144: 13,2310           00015                                    TAT
000145: 13,2311           25517                           STOVL    TET
000146: 13,2312           00025                                    VATT1
000147: 13,2313           77624                           CALL
000148: 13,2314           23455                                    MINIRECT


000150: 13,2315           77776                           EXIT
000151: 13,2316           05353                           TC       PHASCHNG
000152: 13,2317           04024                           OCT      04024
000153:
000154: 13,2320           05504                           TC       UPFLAG
000155: 13,2321           00236                           ADRES    REINTFLG
000156:
000157: 13,2322           06037                           TC       INTPRET
000158: 13,2323           77624                           CALL
000159: 13,2324           26661                                    ATOPOTH
000160: 13,2325           77531                           SSP      EXIT
000161: 13,2326           00053                                    QPRET
000162: 13,2327           26332                                    OUT
000163: 13,2330           04616                           TC       BANKCALL                              #  PERMIT USE OF ORBITAL INTEGRATION
000164: 13,2331           27445                           CADR     INTWAKE1
000165: 13,2332           77776        OUT                EXIT
000166: 13,2333           34755        ENDP76             CAF      ZERO
000167: 13,2334           55462                           TS       MARKCTR                               #  CLEAR RR TRACKING MARK COUNTER
000168: 13,2335           16001                           TCF      GOTOPOOH
000169:
000170: 13,2336           01524        V06N84             NV       0684
000171: 13,2337           01441                           NV       0633
000172: 13,2340           43174        P76SUB1            AXT,2    SET
000173: 13,2341           00002                                    2
000174: 13,2342           00063                                    MOONFLAG                              #  SET MEANS MOON IS SPHERE OF INFLUENCE.
000175: 13,2343           77014                           BON      AXT,2
000176: 13,2344           04303                                    CMOONFLG                              #  SET MEANS PERM CM STATE IN LUNAR SPHERE.
000177: 13,2345           00052                                    QPRET
000178: 13,2346           00000                                    0
000179: 13,2347           43414                           CLEAR    RVQ
000180: 13,2350           00263                                    MOONFLAG
000181:
000182:
000183:

End of include-file P76.agc.  Parent file is MAIN.agc


