
Source Code


000002:                                                                                                  ## Copyright:   Public domain.
000003:                                                                                                  ## Filename:    PHASE_TABLE_MAINTENANCE.agc
000004:                                                                                                  ## Purpose:     Part of the reconstructed source code for LMY99 Rev 0,
000005:                                                                                                  ##              otherwise known as Luminary Rev 99, the second release
000006:                                                                                                  ##              of the Apollo Guidance Computer (AGC) software for Apollo 11.
000007:                                                                                                  ##              It differs from LMY99 Rev 1 (the flown version) only in the
000008:                                                                                                  ##              placement of a single label. The corrections shown here have
000009:                                                                                                  ##              been verified to have the same bank checksums as AGC developer
000010:                                                                                                  ##              Allan Klumpp's copy of Luminary Rev 99, and so are believed
000011:                                                                                                  ##              to be accurate. This file is intended to be a faithful
000012:                                                                                                  ##              recreation, except that the code format has been changed to
000013:                                                                                                  ##              conform to the requirements of the yaYUL assembler rather than
000014:                                                                                                  ##              the original YUL assembler.
000015:                                                                                                  ##
000016:                                                                                                  ## Assembler:   yaYUL
000017:                                                                                                  ## Contact:     Onno Hommes <ohommes@cmu.edu>.
000018:                                                                                                  ## Website:     www.ibiblio.org/apollo.
000019:                                                                                                  ## Pages:       1294-1302
000020:                                                                                                  ## Mod history: 2009-05-26 OH   Transcribed from page images.
000021:                                                                                                  ##              2009-06-05 RSB  A few lines at the bottom of page image
000022:                                                                                                  ##                              1294 were truncated.  I've fixed the page
000023:                                                                                                  ##                              image and added those missing lines here.
000024:                                                                                                  ##              2011-05-07 JL   Flagged SBANK= workaround for future
000025:                                                                                                  ##                              removal.
000026:                                                                                                  ##              2016-12-17 RSB  Proofed text comments with octopus/ProoferComments
000027:                                                                                                  ##                              and corrected the errors found.
000028:                                                                                                  ##              2017-01-28 RSB  Back-ported a comment-text fix from Luminary 69.
000029:                                                                                                  ##              2017-03-14 RSB  Comment-text fixes noted in proofing Luminary 116.
000030:                                                                                                  ##              2017-03-16 RSB  Comment-text fixes identified in 5-way
000031:                                                                                                  ##                              side-by-side diff of Luminary 69/99/116/131/210.
000032:                                                                                                  ##              2017-06-17 MAS  Globally removed all SBANK= workarounds.
000033:                                                                                                  ##              2017-08-01 MAS  Created from LMY99 Rev 1.
000034:
000035:                                                                                                  ## This source code has been transcribed or otherwise adapted from
000036:                                                                                                  ## digitized images of a hardcopy from the MIT Museum.  The digitization
000037:                                                                                                  ## was performed by Paul Fjeld, and arranged for by Deborah Douglas of
000038:                                                                                                  ## the Museum.  Many thanks to both.  The images (with suitable reduction
000039:                                                                                                  ## in storage size and consequent reduction in image quality as well) are
000040:                                                                                                  ## available online at www.ibiblio.org/apollo.  If for some reason you
000041:                                                                                                  ## find that the images are illegible, contact me at info@sandroid.org
000042:                                                                                                  ## about getting access to the (much) higher-quality images which Paul
000043:                                                                                                  ## actually created.
000044:                                                                                                  ##
000045:                                                                                                  ## The code has been modified to match LMY99 Revision 0, otherwise
000046:                                                                                                  ## known as Luminary Revision 99, the Apollo 11 software release preceeding
000047:                                                                                                  ## the listing from which it was transcribed. It has been verified to
000048:                                                                                                  ## contain the same bank checksums as AGC developer Allan Klumpp's listing
000049:                                                                                                  ## of Luminary Revision 99 (for which we do not have scans).
000050:                                                                                                  ##
000051:                                                                                                  ## Notations on Allan Klumpp's listing read, in part:
000052:                                                                                                  ##
000053:                                                                                                  ##      ASSEMBLE REVISION 099 OF AGC PROGRAM LUMINARY BY NASA 2021112-51
000054:


000056:                                                                                                  #  SUBROUTINE TO UPDATE THE PROGRAM NUMBER DISPLAY ON THE DSKY.
000057:
000058: 43,3724                                           COUNT*   $$/PHASE
000059:    5311                                           BLOCK    02
000060:    4000                                           SETLOC   FFTAG1
000061:    4000                                           BANK
000062:
000063:    5311           50002        NEWMODEX           INDEX    Q                                     #  UPDATE MODREG.  ENTRY FOR MODE IN FIXED.
000064:    5312           30000                           CAF      0
000065:    5313           24002                           INCR     Q
000066:
000067:    5314           55011        NEWMODEA           TS       MODREG                                #  ENTRY FOR MODE IN A.
000068:    5315           35320        MMDSPLAY           CAF      +3                                    #  DISPLAY MAJOR MODE.
000069:    5316           22006        PREBJUMP           LXCH     BBANK                                 #  PUTS BBANK IN L
000070:    5317           14640                           TCF      BANKJUMP                              #  PUTS Q INTO A
000071:    5320           20213                           CADR     SETUPDSP
000072:
000073:                                                                                                  #  RETURN TO CALLER +3 IF MODE = THAT AT CALLER +1.  OTHERWISE RETURN TO CALLER +2.
000074:
000075:    5321           50002        CHECKMM            INDEX    Q
000076:    5322           40000                           CS       0
000077:    5323           61011                           AD       MODREG
000078:    5324           00006                           EXTEND
000079:    5325           16741                           BZF      Q+2
000080:    5326           16737                           TCF      Q+1                                   #  NO MATCH
000081:
000082:    5327     6742               TCQ                =        Q+2        +1
000083:
000084: 14,3774                                           BANK     14
000085: 10,2000                                           SETLOC   PHASETAB
000086: 10,2000                                           BANK
000087:
000088: 10,2213                                           COUNT*   $$/PHASE
000089: 10,2213           00004        SETUPDSP           INHINT
000090: 10,2214           52071                           DXCH     RUPTREG1                              #  SAVE CALLER-S RETURN 2CADR
000091: 10,2215           34355                           CAF      PRIO30                                #        EITHER A TASK OR JOB CAN COME TO
000092: 10,2216           05072                           TC       NOVAC                                 #        NEWMODE X
000093: 10,2217     1011                                  EBANK=   MODREG
000094: 10,2217           03534 60102                     2CADR    DSPMMJOB
000095:
000096: 10,2221           52071                           DXCH     RUPTREG1
000097: 10,2222           00003                           RELINT
000098: 10,2223           52006                           DXCH     Z                                     #  RETURN
000099:
000100: 10,2224  40,3534               DSPMMJOB           EQUALS   DSPMMJB
000101:
000102:    5327                                           BLOCK    02
000103:    4000                                           SETLOC   FFTAG1
000104:    4000                                           BANK
000105:


000107:                                                                                                  #  PHASCHNG IS THE MAIN WAY OF MAKING PHASE CHANGES FOR RESTARTS.  THERE ARE THREE FORMS OF PHASCHNG, KNOWN AS TYPE
000108:                                                                                                  #  A, TYPE B, AND TYPE C.  THEY ARE ALL CALLED AS FOLLOWS, WHERE OCT XXXXX CONTAINS THE PHASE INFORMATION,
000109:                                                                                                  #                TC      PHASCHNG
000110:                                                                                                  #                OCT     XXXXX
000111:                                                                                                  #  TYPE A IS CONCERNED WITH FIXED PHASE CHANGES, THAT IS, PHASE INFORMATION THAT IS STORED PERMANENTLY.  THESE
000112:                                                                                                  #  OPTIONS ARE, WHERE G STANDS FOR A GROUP AND .X FOR THE PHASE,
000113:                                                                                                  #        G.0             INACTIVE, WILL NOT PERMIT A GROUP G RESTART
000114:                                                                                                  #        G.1             WILL CAUSE THE LAST DISPLAY TO BE REACTIVATED, USED MAINLY IN MANNED FLIGHTS
000115:                                                                                                  #        G.EVEN          A DOUBLE TABLE RESTART, CAN CAUSE ANY COMBINATION OF TWO JOBS, TASKS, AND/OR
000116:                                                                                                  #                        LONGCALL TO BE RESTARTED.
000117:                                                                                                  #        G.ODD NOT .1    A SINGLE TABLE RESTART, CAN CAUSE EITHER A JOB, TASK, OR LONGCALL RESTART
000118:
000119:                                                                                                  #  THIS INFORMATION IS PUT INTO THE OCTAL WORD AFTER TC PHASCHNG AS FOLLOWS
000120:                                                                                                  #        TL0 00P PPP PPP GGG                                               ,
000121:                                                                                                  #  WHERE EACH LETTER OR NUMBER STANDS FOR A BIT.  THE G:S STAND FOR THE GROUP, OCTAL 1-7, THE P:S FOR THE PHASE,
000122:                                                                                                  #  OCTAL 0 - 127.  0:S MUST BE 0.  IF ONE WISHES TO HAVE THE TBASE OF GROUP G TO BE SET AT THIS TIME,
000123:                                                                                                  #  T IS SET TO 1, OTHERWISE IT IS SET TO 0.  SIMIARLY IF ONE WISHES TO SET LONGBASE, THEN L IS SET TO 1, OTHERWISE
000124:                                                                                                  #  IT IS SET TO 0.  SOME EXAMPLES,
000125:                                                                                                  #                TC      PHASCHNG        THIS WILL CAUSE GROUP 3 TO BE SET TO 0,
000126:                                                                                                  #                OCT     00003           MAKING GROUP 3 INACTIVE
000127:
000128:                                                                                                  #                TC      PHASCHNG        IF A RESTART OCCURS THIS WOULD CAUSE
000129:                                                                                                  #                OCT     00012           GROUP 2 TO RESTART THE LAST DISPLAY
000130:
000131:                                                                                                  #                TC      PHASCHNG        THIS SETS THE TBASE OF GROUP 4 AND IN
000132:                                                                                                  #                OCT     40064           CASE OF A RESTART WOULD START UP THE TWO
000133:                                                                                                  #                                        THINGS LOCATED IN THE DOUBLE 4.6 RESTART
000134:                                                                                                  #                                        LOCATION
000135:
000136:                                                                                                  #                TC      PHASCHNG        THIS SETS LONGBASE AND UPON A RESTART
000137:                                                                                                  #                OCT     20135           CAUSES 5.13 TO BE RESTARTED (SINCE
000138:                                                                                                  #                                        LONGBASE WAS SET THIS SINGLE ENTRY
000139:                                                                                                  #                                        SHOULD BE A LONGCALL)
000140:
000141:                                                                                                  #                TC      PHASCHNG        SINCE BOTH TBASE4 AND LONGBASE ARE SET,
000142:                                                                                                  #                OCT     60124           4.12 SHOULD CONTAIN BOTH A TASK AND A
000143:                                                                                                  #                                        LONGCALL TO BE RESTARTED
000144:
000145:                                                                                                  #  TYPE C PHASCHNG CONTAINS THE VARIABLE TYPE OF PHASCHNG INFORMATION.  INSTEAD OF THE INFORMATION BEING IN A
000146:                                                                                                  #  PERMANENT FORM, ONE STORES THE DESIRED RESTART INFORMATION IN A VARIABKE LOCATION.  THE BITS ARE AS FOLLOWS,
000147:                                                                                                  #        TL0 1AD XXX CJW GGG
000148:                                                                                                  #  WHERE EACH LETTER OR NUMBER STANDS FOR A BIT.  THE G:S STAND FOR THE GROUP, OCTAL 1 - 7.  IF THE RESTART IS TO
000149:                                                                                                  #  BE BY WAITLIST, W IS SET TO 1, IF IT IS A JOB, J IS SET TO 1, IF IT IS A LONGCALL, C IS SET TO 1.  ONLY ONE OF
000150:                                                                                                  #  THESE THREE BITS MAY BE SET.  X:S ARE IGNORED  1 MUST BE 1, AND 0 MUST BE 0.  AGAIN T STANDS FOR THE TBASE,


000152:                                                                                                  #  AND L FOR LONGBASE.  THE BITS A AND D ARE CONCERNED WITH THE VARIABLE INFORMATION.  IF D IS SET TO 1, A PRIORITY
000153:                                                                                                  #  OR DELTA TIME WILL BE READ FROM THE NEXT LOCATION AFTER THE OCTAL INFORMATION, IF THIS IS TO BE INDIRECT, THAT
000154:                                                                                                  #  IS, THE NAME OF A LOCATION COMT+INING THE INFORMATION (DELTA TIME ONLY), THEN THIS IS GIVEN AS THE -GENADR OF
000155:                                                                                                  #  THAT LOCATION WHICH CONTAINS THE DELTA TIME.  IF THE OLD PRIORITY OR DELTA TIME IS TO BE USED, THAT WHICH IS
000156:                                                                                                  #  ALREADY IN THE VARIABLE STORAGE, THEN D IS SET TO 0.  NEXT THE A BIT IS USED.  IF IT IS SET TO 0, THE ADDRESS
000157:                                                                                                  #  THAT WOULD BE RESTARTED DURING A RESTART IS THE NEXT LOCATION AFTER THE PHASE INFORMATION, THAT IS, EITHER
000158:                                                                                                  #  (TC PHASCHNG) +2 OR +3, DEPENDING ON WHETHER D HAD BEEN SET OR NOT.  IF A IS SET TO 1, THEN THE ADDRESS THAT
000159:                                                                                                  #  WOULD BE RESTARTED IS THE 2CADR THAT IS READ FROM THE NEXT TWO LOCATIONS.  EXAMPLES,
000160:                                                                                                  #        AD      TC      PHASCHNG        THIS WOULD CAUSE LOCATION AD +3 TO BE
000161:                                                                                                  #        AD+1    OCT     05023           RESTARTED BY GROUP THREE WITH A PRIORITY
000162:                                                                                                  #        AD+2    OCT     23000           OF 23.  NOTE UPON RETURNING IT WOULD
000163:                                                                                                  #        AD+3                            ALSO GO TO AD+3
000164:
000165:                                                                                                  #        AD      TC      PHASCHNG        GROUP 1 WOULD CAUSE CAUSE CALLCALL TO
000166:                                                                                                  #        AD+1    OCT     27441           BE STARTED AS A LONGCALL FROM THE TIME
000167:                                                                                                  #        AD+2    -GENADR DELTIME         STORED IN LONGBASE (LONGBASE WAS SET) BY
000168:                                                                                                  #        AD+3    2CADR   CALLCALL        A DELTA TIME STORED IN DELTIME.  THE
000169:                                                                                                  #        AD+4                            BBCON OF THE 2CADR SHOULD CONTAIN THE E
000170:                                                                                                  #        AD+5                            BANK OF DELTIME.  PHASCHNG RETURNS TO
000171:                                                                                                  #                                        LOCATION AD+5
000172:
000173:                                                                                                  #  NOTE THAT IF A VARIABLE PRIORITY IS GIVEN FOR A JOB, THE JOB WILL BE RESTARTED AS A NOVAC IF THE PRIORITY IS
000174:                                                                                                  #  NEGATIVE, AS A FINDVAC IF THE PRIORITY IS POSITIVE.
000175:
000176:                                                                                                  #  TYPE B PHASCHNG IS A COMBINATION OF VARIABLE AND FIXED PHASE CHANGES.  IT WILL START UP A JOB AS INDICATED
000177:                                                                                                  #  BELOW AND ALSO START UP ONE FIXED RESTART, THAT IS EITHER AN G.1 OR A G.ODD OR THE FIRST ENTRY OF G.EVEN
000178:                                                                                                  #  DOUBLE ENTRY.  THE BIT INFORMATION IS AS FOLLOWS,
000179:                                                                                                  #        TL1 DAP PPP PPP GGG
000180:                                                                                                  #  WHERE EACH LETTER OR NUMBER STANDS FOR A BIT.  THE G:S STAND FOR THE GROUP, OCTAL 1 - 7. THE P:S FOR THE FIXED
000181:                                                                                                  #  PHASE INFORMATION, OCTAL 0 - 127.  1 MUST BE 1.  AND AGAIN T STANDS FOR THE TBASE AND L FOR LONGBASE.  D THIS
000182:                                                                                                  #  TIME STANDS ONLY FOR PRIORITY SINCE THIS WILL BE CONSIDERED A JOB, AND IT MUST BE GIVEN DIRECTLY IF GIVEN.
000183:                                                                                                  #  AGAIN A STANDS FOR THE ADDRESS OF THE LOCATION TO BE RESTARTED, 1 IF THE 2CADR IS GIVEN, OR 0 IF IT IS TO BE
000184:                                                                                                  #  THE NEXT LOCATION.  (THE RETURN LOCATION OF PHASCHNG) EXAMPLES,
000185:                                                                                                  #        AD      TC      PHASCHNG        TBASE IS SET AND A RESTART CAUSE GROUP 3
000186:                                                                                                  #        AD+1    OCT     56043           TO START THE JOB AJOBAJOB WITH PRIORITY
000187:                                                                                                  #        AD+2    OCT     31000           31 AND THE FIRST ENTRY OF 3.4SPOT (WE CAN
000188:                                                                                                  #        AD+3    2CADR   AJOBAJOB        ASSUME IT IS A TASK SINCE WE SET TBASE3)
000189:                                                                                                  #        AD+4                            UPON RETURN FROM PHASCHNG CONTROL WOULD
000190:                                                                                                  #        AD+5                            GO TO AD+5
000191:
000192:                                                                                                  #        AD      TC      PHASCHNG        UPON A RESTART THE LAST DISPLAY WOULD BE
000193:                                                                                                  #        AD+1    OCT     10015           RESTARTED AND A JOB WITH THE PREVIOUSLY
000194:                                                                                                  #        AD+2                            STORED PRIORITY WOULD BE BEGUN AT AD+2
000195:                                                                                                  #                                        BY MEANS OF GROUP 5


000197:                                                                                                  #  THE NOVAC-FINDVAC CHOICE FOR JOBS HOLDS HERE ALSO - NEGATIVE PRIORITY CAUSES A NOVAC CALL, POSITIVE A FINDVAC.
000198:
000199:                                                                                                  #  SUMMARY OF BITS
000200:                                                                                                  #        TYPE A          TL0 00P PPP PPP GGG
000201:                                                                                                  #        TYPE B          TL1 DAP PPP PPP GGG
000202:                                                                                                  #        TYPE C          TL0 1AD XXX CJW GGG
000203:


000205:                                                                                                  #  2PHSCHNG IS USED WHEN ONE WISHES TO START UP A GROUP OR CHANGE A GROUP WHILE UNDER THE CONTROL OF A DIFFERENT
000206:                                                                                                  #  GROUP.  FOR EXAMPLE, CHANGE THE PHASE OF GROUP 3 WHILE THE PORTION OF THE PROGRAM IS UNDER GROUP 5.  ALL 2PHSCHNG
000207:                                                                                                  #  CALLS ARE MADE IN THE FOLLOWING MANNER,
000208:                                                                                                  #                TC      2PHSCHNG
000209:                                                                                                  #                OCT     XXXXX
000210:                                                                                                  #                OCT     YYYYY
000211:                                                                                                  #  WHERE OCT XXXXX MUST BE OF TYPE A AND OCT YYYYY MAY BE OF EITHER TYPE A OR TYPE B OR TYPE C.  THERE IS ONE
000212:                                                                                                  #  DIFFERENCE --- NOTE- IF LONGBASE IS TO BE SET THIS INFORMATION IS GIVEN IN THE OCT YYYYY INFORMATION, IT WILL
000213:                                                                                                  #  BE DISREGARDED IF GIVEN WITH THE OCT XXXXX INFORMATION.  A COUPLE OF EXAMPLES MAY HELP,
000214:                                                                                                  #        AD      TC      2PHSCHNG        SET TBASE3 AND IF A RESTART OCCURS START
000215:                                                                                                  #        AD+1    OCT     40083           THE TWO ENTRIES IN 3.8 TABLE LOCATION
000216:                                                                                                  #        AD+2    OCT     05025           THIS IS OF TYPE C, SET THE JOB TO BE
000217:                                                                                                  #        AD+3    OCT     18000           TO BE LOCATION AD+4, WITH A PRIORITY 18,
000218:                                                                                                  #        AD+4                            FOR GROUP 5 PHASE INFORMATION
000219:
000220:    5327                                           COUNT*   $$/PHASE
000221:    5327           00004        2PHSCHNG           INHINT                                         #  THE ENTRY FOR A DOUBLE PHASE CHANGE
000222:    5330           50002                           NDX      Q
000223:    5331           30000                           CA       0
000224:    5332           24002                           INCR     Q
000225:    5333           54072                           TS       TEMPP2
000226:
000227:    5334           74757                           MASK     OCT7
000228:    5335           60000                           DOUBLE
000229:    5336           54071                           TS       TEMPG2
000230:
000231:    5337           30072                           CA       TEMPP2
000232:    5340           75030                           MASK     OCT17770                              #  NEED ONLY 1770, BUT WHY GET A NEW CONST.
000233:    5341           00006                           EXTEND
000234:    5342           74740                           MP       BIT12
000235:    5343           56072                           XCH      TEMPP2
000236:
000237:    5344           74735                           MASK     BIT15
000238:    5345           54066                           TS       TEMPSW2                               #  INDICATES WHETHER TO SET TBASE OR NOT
000239:
000240:    5346           50002                           INDEX    Q
000241:    5347           30000                           CA       0
000242:    5350           24002                           INCR     Q
000243:    5351           54065                           TS       TEMPSW
000244:
000245:    5352           15363                           TCF      PHASJUMP
000246:
000247:    5353           00004        PHASCHNG           INHINT                                         #  NORMAL PHASCHNG ENTRY POINT.
000248:    5354           50002                           INDEX    Q
000249:    5355           30000                           CA       0
000250:    5356           24002                           INCR     Q
000251:    5357           00004        PHSCHNGA           INHINT                                         #  FIRST OCTAL PARAMETER IN A.


000253:    5360           54065                           TS       TEMPSW
000254:    5361           34753                           CA       ONE
000255:    5362           54066                           TS       TEMPSW2
000256:    5363           00006        PHASJUMP           EXTEND
000257:    5364           35367                           DCA      ADRPCHN2                              #  OFF TO SWITCHED BANK
000258:    5365           52006                           DTCB
000259:
000260:    5366  E3,1400                                  EBANK=   LST1
000261:    5366           02224 20103  ADRPCHN2           2CADR    PHSCHNG2
000262:
000263:    5370           22073        ONEORTWO           LXCH     TEMPBBCN
000264:    5371           22006                           LXCH     BBANK
000265:    5372           22073                           LXCH     TEMPBBCN
000266:
000267:    5373           75024                           MASK     OCT14000                              #  SEE WHAT KIND OF PHASE CHANGE IT IS
000268:    5374           10000                           CCS      A
000269:    5375           17750                           TCF      CHECKB                                #  IT IS OF TYPE :B:
000270:
000271:    5376           30062                           CA       TEMPP
000272:    5377           74745                           MASK     BIT7
000273:    5400           10000                           CCS      A                                     #  SHALL WE USE THE OLD PRIORITY
000274:    5401           15423                           TCF      GETPRIO                               #  NO GET A NEW PRIORITY (OR DELTA T)
000275:
000276:    5402           50061        OLDPRIO            NDX      TEMPG                                 #  USE THE OLD PRIORITY (OR DELTA T)
000277:    5403           31052                           CA       PHSPRDT1   -2
000278:    5404           54070                           TS       TEMPPR
000279:
000280:    5405           30062        CON1               CA       TEMPP                                 #  SEE IF A 2CADR IS GIVEN
000281:    5406           74744                           MASK     BIT8
000282:    5407           10000                           CCS      A
000283:    5410           15427                           TCF      GETNEWNM
000284:
000285:    5411           30002                           CA       Q
000286:    5412           54063                           TS       TEMPNM
000287:    5413           30006                           CA       BB
000288:    5414           00006                           EXTEND                                         #  PICK UP USERS SUPERBANK
000289:    5415           04007                           ROR      SUPERBNK
000290:    5416           54064                           TS       TEMPBB
000291:
000292:    5417           35422        TOCON2             CA       CON2ADR                               #  BACK TO SWITCHED BANK
000293:    5420           22073                           LXCH     TEMPBBCN
000294:    5421           52006                           DTCB
000295:
000296:    5422           02312        CON2ADR            GENADR   CON2
000297:
000298:    5423           50002        GETPRIO            NDX      Q                                     #  DON:T CARE IF DIRECT OR INDIRECT
000299:    5424           30000                           CA       0                                     #  LEAVE THAT DECISION TO RESTARTS
000300:    5425           24002                           INCR     Q                                     #  OBTAIN RETURN ADDRESS


000302:    5426           15404                           TCF      CON1       -1
000303:
000304:    5427           00006        GETNEWNM           EXTEND
000305:    5430           50002                           INDEX    Q
000306:    5431           30001                           DCA      0
000307:    5432           52064                           DXCH     TEMPNM
000308:    5433           34752                           CA       TWO
000309:    5434           26002                           ADS      Q                                     #  OBTAIN RETURN ADDRESS
000310:
000311:    5435           15417                           TCF      TOCON2
000312:
000313:    5436     5024               OCT14000           EQUALS   PRIO14
000314:    5436     0061               TEMPG              EQUALS   ITEMP1
000315:    5436     0062               TEMPP              EQUALS   ITEMP2
000316:    5436     0063               TEMPNM             EQUALS   ITEMP3
000317:    5436     0064               TEMPBB             EQUALS   ITEMP4
000318:    5436     0065               TEMPSW             EQUALS   ITEMP5
000319:    5436     0066               TEMPSW2            EQUALS   ITEMP6
000320:    5436     0070               TEMPPR             EQUALS   RUPTREG1
000321:    5436     0071               TEMPG2             EQUALS   RUPTREG2
000322:    5436     0072               TEMPP2             EQUALS   RUPTREG3
000323:
000324:    5436     0073               TEMPBBCN           EQUALS   RUPTREG4
000325:    5436  0000006               BB                 EQUALS   BBANK
000326:
000327: 14,3774                                           BANK     14
000328: 10,2000                                           SETLOC   PHASETAB
000329: 10,2000                                           BANK
000330:
000331: 10,2224  E3,1436                                  EBANK=   PHSNAME1
000332: 10,2224                                           COUNT*   $$/PHASE
000333: 10,2224           22073        PHSCHNG2           LXCH     TEMPBBCN
000334: 10,2225           30065                           CA       TEMPSW
000335: 10,2226           74757                           MASK     OCT7
000336: 10,2227           60000                           DOUBLE
000337: 10,2230           54061                           TS       TEMPG
000338:
000339: 10,2231           30065                           CA       TEMPSW
000340: 10,2232           75030                           MASK     OCT17770
000341: 10,2233           00006                           EXTEND
000342: 10,2234           74740                           MP       BIT12
000343: 10,2235           54062                           TS       TEMPP
000344:
000345: 10,2236           30065                           CA       TEMPSW
000346: 10,2237           74101                           MASK     OCT60000
000347: 10,2240           56065                           XCH      TEMPSW
000348: 10,2241           75024                           MASK     OCT14000
000349: 10,2242           10000                           CCS      A


000351: 10,2243           15370                           TCF      ONEORTWO
000352:
000353: 10,2244           30062                           CA       TEMPP                                 #  START STORING THE PHASE INFORMATION
000354: 10,2245           50061                           NDX      TEMPG
000355: 10,2246           54751                           TS       PHASE1     -2
000356:
000357: 10,2247           10066        BELOW1             CCS      TEMPSW2                               #  IS IT A PHASCHNG OR A 2PHSCHNG
000358: 10,2250           12264                           TCF      BELOW2                                #  IT:S A PHASCHNG
000359:
000360: 10,2251           12252                           TCF      +1                                    #  IT:S A 2PHSCHNG
000361: 10,2252           40072                           CS       TEMPP2
000362: 10,2253           22072                           LXCH     TEMPP2
000363: 10,2254           50071                           NDX      TEMPG2
000364: 10,2255           52751                           DXCH     -PHASE1    -2
000365:
000366: 10,2256           10066                           CCS      TEMPSW2
000367: 10,2257           12260                           NOOP                                           #  CAN:T GET HERE
000368: 10,2260           12264                           TCF      BELOW2
000369:
000370: 10,2261           40025                           CS       TIME1
000371: 10,2262           50071                           NDX      TEMPG2
000372: 10,2263           55051                           TS       TBASE1     -2
000373:
000374: 10,2264           10065        BELOW2             CCS      TEMPSW                                #  SEE IF WE SHOULD SET TBASE OR LONGBASE
000375: 10,2265           12300                           TCF      BELOW3                                #  SET LONGBASE ONLY
000376: 10,2266           12303                           TCF      BELOW4                                #  SET NEITHER
000377:
000378: 10,2267           40025                           CS       TIME1                                 #  SET TBASE TO BEGIN WITH
000379: 10,2270           50061                           NDX      TEMPG
000380: 10,2271           55051                           TS       TBASE1     -2
000381:
000382: 10,2272           30065                           CA       TEMPSW                                #  SHALL WE NOW SET LONGBASE
000383: 10,2273           62276                           AD       BIT14COM
000384: 10,2274           10000                           CCS      A
000385: 10,2275           12276                           NOOP                                           #  ***** CANT GET HERE *****
000386: 10,2276           17777        BIT14COM           OCT      17777                                 #  ***** CANT GET HERE *****
000387: 10,2277           12303                           TCF      BELOW4                                #  NO WE NEED ONLY SET TBASE
000388:
000389: 10,2300           00006        BELOW3             EXTEND                                         #  SET LONGBASE
000390: 10,2301           30025                           DCA      TIME2
000391: 10,2302           53152                           DXCH     LONGBASE
000392:
000393: 10,2303           40062        BELOW4             CS       TEMPP                                 #  AND STORE THE FINAL PART OF THE PHASE
000394: 10,2304           50061                           NDX      TEMPG
000395: 10,2305           54750                           TS       -PHASE1    -2
000396:
000397: 10,2306           30002                           CA       Q
000398: 10,2307           22073                           LXCH     TEMPBBCN
000399: 10,2310           00003                           RELINT
000400: 10,2311           52006                           DTCB


000402: 10,2312           22073        CON2               LXCH     TEMPBBCN
000403:
000404: 10,2313           30062                           CA       TEMPP
000405: 10,2314           50061                           NDX      TEMPG
000406: 10,2315           54751                           TS       PHASE1     -2
000407:
000408: 10,2316           30070                           CA       TEMPPR
000409: 10,2317           50061                           NDX      TEMPG
000410: 10,2320           55052                           TS       PHSPRDT1   -2
000411:
000412: 10,2321           00006                           EXTEND
000413: 10,2322           30064                           DCA      TEMPNM
000414: 10,2323           50061                           NDX      TEMPG
000415: 10,2324           53435                           DXCH     PHSNAME1   -2
000416:
000417: 10,2325           12247                           TCF      BELOW1
000418:
000419:    7750                                           BLOCK    03
000420:    6000                                           SETLOC   FFTAG6
000421:    6000                                           BANK
000422:
000423:    7750                                           COUNT*   $$/PHASE
000424:    7750           74740        CHECKB             MASK     BIT12                                 #  SINCE THIS IS OF TYPE B, THIS BIT SHOULD
000425:    7751           10000                           CCS      A                                     #  BE HERE IF WE ARE TO GET A NEW PRIORITY
000426:    7752           15423                           TCF      GETPRIO                               #  IT IS, SO GET NEW PRIORITY
000427:
000428:    7753           15402                           TCF      OLDPRIO                               #  IT ISN:T, USE THE OLD PRIORITY
000429:
000430:

End of include-file PHASE_TABLE_MAINTENANCE.agc.  Parent file is MAIN.agc


