
Source Code


000002:                                                                                                  ## Copyright:   Public domain.
000003:                                                                                                  ## Filename:    POWERED_FLIGHT_SUBROUTINES.agc
000004:                                                                                                  ## Purpose:     Part of the reconstructed source code for LMY99 Rev 0,
000005:                                                                                                  ##              otherwise known as Luminary Rev 99, the second release
000006:                                                                                                  ##              of the Apollo Guidance Computer (AGC) software for Apollo 11.
000007:                                                                                                  ##              It differs from LMY99 Rev 1 (the flown version) only in the
000008:                                                                                                  ##              placement of a single label. The corrections shown here have
000009:                                                                                                  ##              been verified to have the same bank checksums as AGC developer
000010:                                                                                                  ##              Allan Klumpp's copy of Luminary Rev 99, and so are believed
000011:                                                                                                  ##              to be accurate. This file is intended to be a faithful
000012:                                                                                                  ##              recreation, except that the code format has been changed to
000013:                                                                                                  ##              conform to the requirements of the yaYUL assembler rather than
000014:                                                                                                  ##              the original YUL assembler.
000015:                                                                                                  ##
000016:                                                                                                  ## Assembler:   yaYUL
000017:                                                                                                  ## Contact:     Ron Burkey <info@sandroid.org>.
000018:                                                                                                  ## Website:     www.ibiblio.org/apollo.
000019:                                                                                                  ## Pages:       1259-1267
000020:                                                                                                  ## Mod history: 2009-05-26 RSB  Adapted from the corresponding
000021:                                                                                                  ##                              Luminary131 file, using page
000022:                                                                                                  ##                              images from Luminary 1A.
000023:                                                                                                  ##              2011-01-06 JL   Fixed pseudo-label indentation.
000024:                                                                                                  ##              2016-12-17 RSB  Proofed text comments with octopus/ProoferComments
000025:                                                                                                  ##                              and corrected the errors found.
000026:                                                                                                  ##              2017-03-16 RSB  Comment-text fixes identified in 5-way
000027:                                                                                                  ##                              side-by-side diff of Luminary 69/99/116/131/210.
000028:                                                                                                  ##              2017-03-17 RSB  Comment-text fixes identified in diff'ing
000029:                                                                                                  ##                              Luminary 99 vs Comanche 55.
000030:                                                                                                  ##              2017-08-01 MAS  Created from LMY99 Rev 1.
000031:
000032:                                                                                                  ## This source code has been transcribed or otherwise adapted from
000033:                                                                                                  ## digitized images of a hardcopy from the MIT Museum.  The digitization
000034:                                                                                                  ## was performed by Paul Fjeld, and arranged for by Deborah Douglas of
000035:                                                                                                  ## the Museum.  Many thanks to both.  The images (with suitable reduction
000036:                                                                                                  ## in storage size and consequent reduction in image quality as well) are
000037:                                                                                                  ## available online at www.ibiblio.org/apollo.  If for some reason you
000038:                                                                                                  ## find that the images are illegible, contact me at info@sandroid.org
000039:                                                                                                  ## about getting access to the (much) higher-quality images which Paul
000040:                                                                                                  ## actually created.
000041:                                                                                                  ##
000042:                                                                                                  ## The code has been modified to match LMY99 Revision 0, otherwise
000043:                                                                                                  ## known as Luminary Revision 99, the Apollo 11 software release preceeding
000044:                                                                                                  ## the listing from which it was transcribed. It has been verified to
000045:                                                                                                  ## contain the same bank checksums as AGC developer Allan Klumpp's listing
000046:                                                                                                  ## of Luminary Revision 99 (for which we do not have scans).
000047:                                                                                                  ##
000048:                                                                                                  ## Notations on Allan Klumpp's listing read, in part:
000049:                                                                                                  ##
000050:                                                                                                  ##      ASSEMBLE REVISION 099 OF AGC PROGRAM LUMINARY BY NASA 2021112-51
000051:


000053: 14,3774                                           BANK     14                                    #  SAME FBANK AS THE FINDCDUD SUB-PROGRAM
000054: 23,2000                                           SETLOC   POWFLITE
000055: 23,2000                                           BANK
000056:
000057: 23,3537     0142                                  EBANK=   DEXDEX
000058: 23,3537                                           COUNT*   $$/POWFL
000059:
000060:                                                                                                  #  CDUTRIG, CDUTRIG1, CDUTRIG2, AND CD*TR*GS ALL COMPUTE THE SINES AND
000061:                                                                                                  #  COSINES OF THREE 2'S COMPLEMENT ANGLES AND PLACE THE RESULT, DOUBLE
000062:                                                                                                  #  PRECISION, IN THE SAME ORDER AS THE INPUTS, AT SINCDU AND COSCDU.  AN
000063:                                                                                                  #  ADDITIONAL OUTPUT IS THE 1'S COMPLEMENT ANGLES AT CDUSPOT.  THESE
000064:                                                                                                  #  ROUTINES GO OUT OF THEIR WAY TO LEAVE THE MPAC AREA AS THEY FIND IT,
000065:                                                                                                  #  EXCEPT FOR THE GENERALLY UNIMPORTANT MPAC +2.  THEY DIFFER ONLY IN
000066:                                                                                                  #  WHERE THEY GET THE ANGLES, AND IN METHOD OF CALLING.
000067:
000068:                                                                                                  #  CDUTRIG (AND CDUTRIG1, WHICH CAN BE CALLED IN BASIC) COMPUTE THE
000069:                                                                                                  #  SINES AND COSINES FROM THE CURRENT CONTENTS OF THE CDU REGISTERS.
000070:                                                                                                  #  THE CONTENTS OF CDUTEMP, ETC., ARE NOT TOUCHED SO THAT THEY MAY
000071:                                                                                                  #  CONTINUE TO FORM A CONSISTENT SET WITH THE LATEST PIPA READINGS.
000072:
000073:                                                                                                  #  CDUTRIG1 IS LIKE CDUTRIG EXCEPT THAT IT CAN BE CALLED IN BASIC.
000074:
000075:                                                                                                  #  CD*TR*GS FINDS CDU VALUES IN CDUSPOT RATHER THAN IN CDUTEMP.  THIS
000076:                                                                                                  #  ALLOWS USERS TO MAKE TRANSFORMATIONS USING ARBITRARY ANGLES, OR REAL
000077:                                                                                                  #  ANGLES IN AN ORDER OTHER THAN X Y Z.  A CALL TO THIS ROUTINE IS
000078:                                                                                                  #  NECESSARY IN PREPARATION FOR A CALL TO AX*SR*T IN EITHER OF ITS TWO
000079:                                                                                                  #  MODES (SMNB OR NBSM).  SINCE AX*SR*T EXPECTS TO FIND THE SINES AND
000080:                                                                                                  #  COSINES IN THE ORDER Y Z X THE ANGLES MUST HAVE BEEN PLACED IN CDUSPOT
000081:                                                                                                  #  IN THIS ORDER.  CD*TR*GS NEED NOT BE REPEATED WHEN AX*SR*T IS CALLED
000082:                                                                                                  #  MORE THAN ONCE, PROVIDED THE ANGLES HAVE NOT CHANGED.  NOTE THAT SINCE
000083:                                                                                                  #  IT CLOBBERS BUF2 (IN THE SINE AND COSINE ROUTINES) CD*TR*GS CANNOT BE
000084:                                                                                                  #  CALLED USING BANKCALL.  SORRY.
000085:
000086:                                                                                                  #  CD*TR*G IS LIKE CD*TR*GS EXCEPT THAT IT CAN BE CALLED IN
000087:                                                                                                  #  INTERPRETIVE.
000088:
000089: 23,3537           77776        CDUTRIG            EXIT
000090: 23,3540           03547                           TC       CDUTRIGS
000091: 23,3541           06037                           TC       INTPRET
000092: 23,3542           77616                           RVQ
000093:
000094: 23,3543           77776        CD*TR*G            EXIT
000095: 23,3544           03555                           TC       CD*TR*GS
000096: 23,3545           06037                           TC       INTPRET
000097: 23,3546           77616                           RVQ
000098:
000099: 23,3547           30032        CDUTRIGS           CA       CDUX
000100: 23,3550           54772                           TS       CDUSPOT    +4
000101: 23,3551           30033                           CA       CDUY
000102: 23,3552           54766                           TS       CDUSPOT


000104: 23,3553           30034                           CA       CDUZ
000105: 23,3554           54770                           TS       CDUSPOT    +2
000106:
000107: 23,3555           00006        CD*TR*GS           EXTEND
000108: 23,3556           22142                           QXCH     TEM2
000109: 23,3557           34751                           CAF      FOUR
000110: 23,3560           76242        TR*GL**P           MASK     SIX                                   #  MAKE IT EVEN AND SMALLER
000111: 23,3561           54143                           TS       TEM3
000112: 23,3562           50143                           INDEX    TEM3
000113: 23,3563           30766                           CA       CDUSPOT
000114: 23,3564           52155                           DXCH     MPAC                                  #  STORING 2'S COMP ANGLE, LOADING MPAC
000115: 23,3565           52127                           DXCH     VBUF       +4                         #  STORING MPAC FOR LATER RESTORATION
000116: 23,3566           04713                           TC       USPRCADR
000117: 23,3567           21576                           CADR     CDULOGIC
000118: 23,3570           00006                           EXTEND
000119: 23,3571           30155                           DCA      MPAC
000120: 23,3572           50143                           INDEX    TEM3
000121: 23,3573           52767                           DXCH     CDUSPOT                               #  STORING 1'S COMPLEMENT ANGLE
000122: 23,3574           04713                           TC       USPRCADR
000123: 23,3575           01517                           CADR     COSINE
000124: 23,3576           52155                           DXCH     MPAC
000125: 23,3577           50143                           INDEX    TEM3
000126: 23,3600           52745                           DXCH     COSCDU                                #  STORING COSINE
000127: 23,3601           00006                           EXTEND
000128: 23,3602           50143                           INDEX    TEM3
000129: 23,3603           30767                           DCA      CDUSPOT                               #  LOADING 1'S COMPLEMENT ANGLE
000130: 23,3604           04713                           TC       USPRCADR
000131: 23,3605           01531                           CADR     SINE       +1                         #  SINE +1 EXPECTS ARGUMENT IN A AND L
000132: 23,3606           52127                           DXCH     VBUF       +4                         #  BRINGING UP PRIOR MPAC TO BE RESTORED
000133: 23,3607           52155                           DXCH     MPAC
000134: 23,3610           50143                           INDEX    TEM3
000135: 23,3611           52737                           DXCH     SINCDU
000136: 23,3612           10143                           CCS      TEM3
000137: 23,3613           13560                           TCF      TR*GL**P
000138: 23,3614           00142                           TC       TEM2


000140:                                                                                                  #  ****************************************************************************************************************
000141:                                                                                                  #  QUICTRIG, INTENDED FOR GUIDANCE CYCLE USE WHERE TIME IS CRITICAL, IS A MUCH FASTER VERSION OF CD*TR*GS.
000142:                                                                                                  #  QUICTRIG COMPUTES AND STORES THE SINES AND COSINES OF THE 2'S COMPLEMENT ANGLES AT CDUSPOT, CDUSPOT +2,
000143:                                                                                                  #  AND CDUSPOT +4.  UNLIKE CD*TR*GS, QUICTRIG DOES NOT LEAVE THE 1'S COMPLEMENT VERSIONS OF THE ANGLES IN
000144:                                                                                                  #  CDUSPOT.  QUICTRIG'S EXECUTION TIME IS 4.1 MS;  THIS IS 10 TIMES AS FAST AS CD*TR*GS.  QUICTRIG MAY BE
000145:                                                                                                  #  CALLED FROM INTERPRETIVE AS AN RTB OP-CODE, OR FROM BASIC VIA BANKCALL OR IBNKCALL.
000146:
000147: 23,3615           00004        QUICTRIG           INHINT                                         #  INHINT SINCE DAP USES THE SAME TEMPS
000148: 23,3616           00006                           EXTEND
000149: 23,3617           22061                           QXCH     ITEMP1
000150: 23,3620           34751                           CAF      FOUR
000151: 23,3621           76242                 +4        MASK     SIX
000152: 23,3622           54062                           TS       ITEMP2
000153: 23,3623           50062                           INDEX    ITEMP2
000154: 23,3624           30766                           CA       CDUSPOT
000155: 23,3625           05033                           TC       SPSIN
000156: 23,3626           00006                           EXTEND
000157: 23,3627           74736                           MP       BIT14                                 #  SCALE DOWN TO MATCH INTERPRETER OUTPUTS
000158: 23,3630           50062                           INDEX    ITEMP2
000159: 23,3631           52737                           DXCH     SINCDU
000160: 23,3632           50062                           INDEX    ITEMP2
000161: 23,3633           30766                           CA       CDUSPOT
000162: 23,3634           05032                           TC       SPCOS
000163: 23,3635           00006                           EXTEND
000164: 23,3636           74736                           MP       BIT14
000165: 23,3637           50062                           INDEX    ITEMP2
000166: 23,3640           52745                           DXCH     COSCDU
000167: 23,3641           10062                           CCS      ITEMP2
000168: 23,3642           13621                           TCF      QUICTRIG   +4
000169: 23,3643           30061                           CA       ITEMP1
000170: 23,3644           00003                           RELINT
000171: 23,3645           00000                           TC       A
000172:


000174:                                                                                                  #  ****************************************************************************************************************
000175:                                                                                                  #  THESE INTERFACE ROUTINES MAKE IT POSSIBLE TO CALL AX*SR*T, ETC., IN
000176:                                                                                                  #  INTERPRETIVE.  LATER, WHERE POSSIBLE, THEY WILL BE ELIMINATED.
000177:
000178:                                                                                                  #  THESE INTERFACE ROUTINES ARE PERMANENT.  ALL RESTORE USER'S EBANK
000179:                                                                                                  #  SETTING. ALL ARE STRICT INTERPRETIVE SUBROUTINES, CALLED USING "CALL",
000180:                                                                                                  #  RETURNING VIA QPRET.  ALL EXPECT AND RETURN THE VECTOR TO BE TRANSFOR-
000181:                                                                                                  #  MED INTERPRETER-STYLE IN MPAC; COMPONENTS AT MPAC, MPAC +3, AND MPAC +5.
000182:
000183:                                                                                                  #  TRG*SMNB AND TRG*NBSM BOTH EXPECT TO SEE THE 2'S COMPLEMENT ANGLES
000184:                                                                                                  #  AT CDUSPOT (ORDER Y Z X, AT CDUSPOT, CDUSPOT +2, AND CDUSPOT +4; ODD
000185:                                                                                                  #  LOCATIONS NEED NOT BE ZEROED).  TRG*NBSM DOES THE NB TO SM TRANSFOR-
000186:                                                                                                  #  MATION;  TRG*SMNB, VICE VERSA.
000187:
000188:                                                                                                  #  CDU*NBSM DOES ITS TRANSFORMATION USING THE PRESENT CONTENTS OF
000189:                                                                                                  #  THE CDU COUNTERS.  OTHERWISE IT IS LIKE TRG*NBSM.
000190:
000191:                                                                                                  #  CDU*SMNB IS THE COMPLEMENT OF CDU*NBSM.
000192:
000193: 23,3646           77776        CDU*SMNB           EXIT
000194: 23,3647           03547                           TC       CDUTRIGS
000195: 23,3650           13653                           TCF      C*MM*N1
000196:
000197: 23,3651           77776        TRG*SMNB           EXIT
000198: 23,3652           03555                           TC       CD*TR*GS
000199: 23,3653           07532        C*MM*N1            TC       MPACVBUF                              #  AX*SR*T EXPECTS VECTOR IN VBUF
000200: 23,3654           46245                           CS       THREE                                 #  SIGNAL FOR SM TO NB TRANSFORMATION
000201: 23,3655           03675        C*MM*N2            TC       AX*SR*T
000202: 23,3656           06037                           TC       INTPRET
000203: 23,3657           43575                           VLOAD    RVQ
000204: 23,3660           00123                                    VBUF
000205:
000206: 23,3661           77776        CDU*NBSM           EXIT
000207: 23,3662           03547                           TC       CDUTRIGS
000208: 23,3663           13666                           TCF      C*MM*N3
000209:
000210: 23,3664           77776        TRG*NBSM           EXIT
000211: 23,3665           03555                           TC       CD*TR*GS
000212: 23,3666           07532        C*MM*N3            TC       MPACVBUF                              #  FOR AX*SR*T
000213: 23,3667           36245                           CA       THREE                                 #  SIGNAL FOR NB TO SM TRANSFORMATION
000214: 23,3670           13655                           TCF      C*MM*N2
000215:
000216:                                                                                                  #  *NBSM* AND *SMNB* EXPECT TO SEE THE SINES AND COSINES (AT SINCDU
000217:                                                                                                  #  AND COSCDU) RATHER THAN THE ANGLES THEMSELVES.  OTHERWISE THEY ARE
000218:                                                                                                  #  LIKE TRG*NBSM AND TRG*SMNB.
000219:
000220:                                                                                                  #  NOTE THAT JUST AS CD*TR*GS NEED BE CALLED ONLY ONCE FOR EACH SERIES
000221:                                                                                                  #  OF TRANSFORMATIONS USING THE SAME ANGLES, SO TOO ONLY ONE OF TRG*NBSM


000223:                                                                                                  #  AND TRG*SMNB NEED BE CALLED FOR EACH SERIES.  FOR SUBSEQUENT TRANSFOR-
000224:                                                                                                  #  MATIONS USE *NBSM* AND *SMNB*.
000225:
000226: 23,3671           77776        *SMNB*             EXIT
000227: 23,3672           13653                           TCF      C*MM*N1
000228:
000229: 23,3673           77776        *NBSM*             EXIT
000230: 23,3674           13666                           TCF      C*MM*N3
000231:
000232:                                                                                                  #  AX*SR*T COMBINES THE OLD SMNB AND NBSM.  FOR THE NB TO SM
000233:                                                                                                  #  TRANSFORMATION, ENTER WITH +3 IN A.  FOR SM TO NB, ENTER WITH -3.
000234:                                                                                                  #  THE VECTOR TO BE TRANSFORMED ARRIVES, AND IS RETURNED, IN VBUF.
000235:                                                                                                  #  AX*SR*T EXPECTS TO FIND THE SINES AND COSINES OF THE ANGLES OF ROTATION
000236:                                                                                                  #  AT SINCDU AND COSCDU, IN THE ORDER Y Z X.  A CALL TO CD*TR*GS, WITH
000237:                                                                                                  #  THE 2'S COMPLEMENT ANGLES (ORDER Y Z X) AT CDUSPOT, WILL TAKE CARE OF
000238:                                                                                                  #  THIS.  HERE IS A SAMPLE CALLING SEQUENCE:-
000239:                                                                                                  #                TC      CDUTRIGS
000240:                                                                                                  #                CS      THREE           ("CA THREE" FOR NBSM)
000241:                                                                                                  #                TC      AX*SR*T
000242:                                                                                                  #  THE CALL TO CD*TR*GS NEED NOT BE REPEATED, WHEN AX*SR*T IS CALLED MORE
000243:                                                                                                  #  THAN ONCE, UNLESS THE ANGLES HAVE CHANGED.
000244:
000245:                                                                                                  #  AX*SR*T IS GUARANTEED SAFE ONLY FOR VECTORS OF MAGNITUDE LESS THAN
000246:                                                                                                  #  UNITY.  A LOOK AT THE CASE IN WHICH A VECTOR OF GREATER MAGNITUDE
000247:                                                                                                  #  HAPPENS TO LIE ALONG AN AXIS OF THE SYSTEM TO WHICH IT IS TO BE TRANS-
000248:                                                                                                  #  FORMED CONVINCES ONE THAT THIS IS A RESTRICTION WHICH MUST BE ACCEPTED.
000249:
000250: 23,3675           54142        AX*SR*T            TS       DEXDEX                                #  WHERE IT BECOMES THE INDEX OF INDEXES
000251: 23,3676           00006                           EXTEND
000252: 23,3677           22145                           QXCH     RTNSAVER
000253:
000254: 23,3700           10142        R*TL**P            CCS      DEXDEX                                #                +3 --> 0        -3 --> 2
000255: 23,3701           40142                           CS       DEXDEX                                #  THUS:         +2 --> 1        -2 --> 1
000256: 23,3702           66245                           AD       THREE                                 #                +1 --> 2        -1 --> 0
000257: 23,3703           00006                           EXTEND
000258: 23,3704           50000                           INDEX    A
000259: 23,3705           33764                           DCA      INDEXI
000260: 23,3706           52144                           DXCH     DEXI
000261:
000262: 23,3707           34753                           CA       ONE
000263: 23,3710           54130                           TS       BUF
000264: 23,3711           00006                           EXTEND
000265: 23,3712           50143                           INDEX    DEX1
000266: 23,3713           40123                           DCS      VBUF
000267: 23,3714           13716                           TCF      LOOP1                                 #  REALLY BE A SUBTRACT, AND VICE VERSA
000268:
000269: 23,3715           52131        LOOP2              DXCH     BUF                                   #  LOADING VECTOR COMPONENT, STORING INDEX


000271: 23,3716           52155        LOOP1              DXCH     MPAC
000272: 23,3717           33762                           CA       SINSLOC
000273: 23,3720           60143                           AD       DEX1
000274: 23,3721           54116                           TS       ADDRWD
000275:
000276: 23,3722           07107                           TC       DMPSUB                                #  MULTIPLY BY SIN(CDUANGLE)
000277: 23,3723           10142                           CCS      DEXDEX
000278: 23,3724           52155                           DXCH     MPAC                                  #  NBSM CASE
000279: 23,3725           13730                           TCF      +3
000280: 23,3726           00006                           EXTEND                                         #  SMNB CASE
000281: 23,3727           40155                           DCS      MPAC
000282: 23,3730           52160                           DXCH     TERM1TMP
000283:
000284: 23,3731           36242                           CA       SIX                                   #  SINCDU AND COSCDU (EACH 6 WORDS) MUST
000285: 23,3732           26116                           ADS      ADDRWD                                #        BE CONSECUTIVE AND IN THAT ORDER
000286:
000287: 23,3733           00006                           EXTEND
000288: 23,3734           50130                           INDEX    BUF
000289: 23,3735           50143                           INDEX    DEX1
000290: 23,3736           30123                           DCA      VBUF
000291: 23,3737           52155                           DXCH     MPAC
000292: 23,3740           07107                           TC       DMPSUB                                #  MULTIPLY BY COS(CDUANGLE)
000293: 23,3741           52155                           DXCH     MPAC
000294: 23,3742           20160                           DAS      TERM1TMP
000295: 23,3743           52160                           DXCH     TERM1TMP
000296: 23,3744           20001                           DDOUBL
000297: 23,3745           50130                           INDEX    BUF
000298: 23,3746           50143                           INDEX    DEX1
000299: 23,3747           52123                           DXCH     VBUF
000300: 23,3750           52131                           DXCH     BUF                                   #  LOADING INDEX, STORING VECTOR COMPONENT
000301:
000302: 23,3751           10000                           CCS      A                                     #  'CAUSE THAT'S WHERE THE INDEX NOW IS
000303: 23,3752           13715                           TCF      LOOP2
000304:
000305: 23,3753           00006                           EXTEND
000306: 23,3754           26142                           DIM      DEXDEX                                #  DECREMENT MAGNITUDE PRESERVING SIGN
000307:
000308: 23,3755           10142        TSTPOINT           CCS      DEXDEX                                #  ONLY THE BRANCHING FUNCTION IS USED
000309: 23,3756           13700                           TCF      R*TL**P
000310: 23,3757           00145                           TC       RTNSAVER
000311: 23,3760           13700                           TCF      R*TL**P
000312: 23,3761           00145                           TC       RTNSAVER
000313:
000314: 23,3762           00736        SINSLOC            ADRES    SINCDU                                #  FOR USE IN SETTING ADDRWD
000315:
000316: 23,3763           00004        INDEXI             DEC      4          B-14                       #  **********   DON'T   **********
000317: 23,3764           00002                           DEC      2          B-14                       #  **********   TOUCH   **********
000318: 23,3765           00000                           DEC      0          B-14                       #  **********   THESE   **********


000320: 23,3766           00004                           DEC      4          B-14                       #  ********** CONSTANTS **********
000321:
000322:                                                                                                  #  ****************************************************************************************************************
000323:
000324: 10,2030                                           BANK     10
000325: 10,2000                                           SETLOC   FLESHLOC
000326: 10,2000                                           BANK
000327: 10,2030                                           COUNT*   $$/POWFL
000328:
000329:                                                                                                  #  ROUTINE FLESHPOT COMPUTES THE BODY-STABLE MEMBER TRANSFORMATION MATRIX (COMMONLY CALLED XNB) AND STORES
000330:                                                                                                  #  IT IN THE LOCATIONS SPECIFIED BY THE ECADR ENTERING IN A.
000331:
000332: 10,2030           77776        CALCSMSC           EXIT
000333: 10,2031           04616                           TC       BANKCALL
000334: 10,2032           20036                           CADR     FLESHPOT   -1
000335: 10,2033           06037                           TC       INTPRET
000336: 10,2034           77616                           RVQ
000337:
000338: 10,2035           02664        XNBECADR           ECADR    XNB
000339:
000340: 10,2036           32035                 -1        CAF      XNBECADR
000341:
000342: 10,2037           54142        FLESHPOT           TS       TEM2
000343: 10,2040           56003                           XCH      EBANK
000344: 10,2041           56142                           XCH      TEM2
000345: 10,2042           74357                           MASK     LOW8
000346: 10,2043           65007                           AD       OCT1400
000347: 10,2044           54141                           TS       TEM1
000348:
000349: 10,2045           00006                           EXTEND
000350: 10,2046           30745                           DCA      COSCDUY
000351: 10,2047           52155                           DXCH     MPAC
000352: 10,2050           07103                           TC       DMP
000353: 10,2051           00746                           ADRES    COSCDUZ
000354: 10,2052           52155                           DXCH     MPAC
000355: 10,2053           20001                           DDOUBL
000356: 10,2054           50141                           INDEX    TEM1
000357: 10,2055           52001                           DXCH     0                                     #  = COSY COSZ
000358:
000359: 10,2056           00006                           EXTEND
000360: 10,2057           30741                           DCA      SINCDUZ
000361: 10,2060           50141                           INDEX    TEM1
000362: 10,2061           52003                           DXCH     2                                     #  = SINZ
000363:
000364: 10,2062           00006                           EXTEND
000365: 10,2063           40737                           DCS      SINCDUY
000366: 10,2064           52155                           DXCH     MPAC
000367: 10,2065           07107                           TC       DMPSUB                                #  ADDRWD SET TO COSCDUZ


000369: 10,2066           52155                           DXCH     MPAC
000370: 10,2067           20001                           DDOUBL
000371: 10,2070           50141                           INDEX    TEM1
000372: 10,2071           52005                           DXCH     4                                     #  = - SINY COSZ
000373:
000374: 10,2072           00006                           EXTEND
000375: 10,2073           40743                           DCS      SINCDUX
000376: 10,2074           52155                           DXCH     MPAC
000377: 10,2075           07107                           TC       DMPSUB                                #  ADDRWD SET TO COSCDUZ STILL
000378: 10,2076           52155                           DXCH     MPAC
000379: 10,2077           20001                           DDOUBL
000380: 10,2100           52160                           DXCH     MPAC       +3
000381:
000382: 10,2101           00006                           EXTEND
000383: 10,2102           40743                           DCS      SINCDUX
000384: 10,2103           52155                           DXCH     MPAC
000385: 10,2104           07103                           TC       DMP
000386: 10,2105           00740                           ADRES    SINCDUZ
000387: 10,2106           00006                           EXTEND
000388: 10,2107           40155                           DCS      MPAC
000389: 10,2110           52162                           DXCH     MPAC       +5
000390: 10,2111           07103                           TC       DMP
000391: 10,2112           00736                           ADRES    SINCDUY
000392: 10,2113           52155                           DXCH     MPAC
000393: 10,2114           20001                           DDOUBL
000394: 10,2115           20001                           DDOUBL
000395: 10,2116           52162                           DXCH     MPAC       +5
000396:
000397: 10,2117           52155                           DXCH     MPAC
000398: 10,2120           07103                           TC       DMP
000399: 10,2121           00744                           ADRES    COSCDUY
000400: 10,2122           52155                           DXCH     MPAC
000401: 10,2123           20001                           DDOUBL
000402: 10,2124           20001                           DDOUBL
000403: 10,2125           52131                           DXCH     BUF
000404:
000405: 10,2126           00006                           EXTEND
000406: 10,2127           30745                           DCA      COSCDUY
000407: 10,2130           52155                           DXCH     MPAC
000408: 10,2131           07103                           TC       DMP
000409: 10,2132           00750                           ADRES    COSCDUX
000410: 10,2133           52155                           DXCH     MPAC
000411: 10,2134           20001                           DDOUBL
000412: 10,2135           20162                           DAS      MPAC       +5
000413:
000414: 10,2136           00006                           EXTEND
000415: 10,2137           30737                           DCA      SINCDUY
000416: 10,2140           52155                           DXCH     MPAC
000417: 10,2141           07107                           TC       DMPSUB                                #  ADDRWD SET TO COSCDUX
000418: 10,2142           52155                           DXCH     MPAC
000419:


000421: 10,2143           20001                           DDOUBL
000422: 10,2144           20131                           DAS      BUF
000423:
000424: 10,2145           52131                           DXCH     BUF
000425: 10,2146           52155                           DXCH     MPAC
000426:
000427: 10,2147           00006                           EXTEND
000428: 10,2150           30155                           DCA      MPAC
000429: 10,2151           50141                           INDEX    TEM1
000430: 10,2152           52015                           DXCH     14                                    #  = SINY COSX + SINX SINZ COSY
000431:
000432: 10,2153           00006                           EXTEND
000433: 10,2154           30160                           DCA      MPAC       +3
000434: 10,2155           50141                           INDEX    TEM1
000435: 10,2156           52017                           DXCH     16                                    #  = - SINX COSZ
000436:
000437: 10,2157           00006                           EXTEND
000438: 10,2160           30162                           DCA      MPAC       +5
000439: 10,2161           50141                           INDEX    TEM1
000440: 10,2162           52021                           DXCH     20                                    #  = COSX COSY - SINX SINY SINZ
000441:
000442: 10,2163           30141                           CA       TEM1
000443: 10,2164           54116                           TS       ADDRWD
000444: 10,2165           00006                           EXTEND
000445: 10,2166           30006                           DCA      Z
000446: 10,2167           64751                           AD       FOUR
000447: 10,2170           52165                           DXCH     LOC
000448: 10,2171           34744                           CAF      BIT8
000449: 10,2172           54023                           TS       EDOP
000450: 10,2173           17460                           TCF      VXV
000451: 10,2174           52155                           DXCH     MPAC
000452: 10,2175           20001                           DDOUBL
000453: 10,2176           50141                           INDEX    TEM1
000454: 10,2177           52007                           DXCH     6
000455:
000456: 10,2200           52160                           DXCH     MPAC       +3
000457: 10,2201           20001                           DDOUBL
000458: 10,2202           50141                           INDEX    TEM1
000459: 10,2203           52011                           DXCH     10
000460:
000461: 10,2204           52162                           DXCH     MPAC       +5
000462: 10,2205           20001                           DDOUBL
000463: 10,2206           50141                           INDEX    TEM1
000464: 10,2207           52013                           DXCH     12
000465:
000466: 10,2210           30142                           CA       TEM2
000467: 10,2211           54003                           TS       EBANK
000468: 10,2212           14631                           TCF      SWRETURN
000469:

End of include-file POWERED_FLIGHT_SUBROUTINES.agc.  Parent file is MAIN.agc


