
Source Code


000002:                                                                                                  ## Copyright:   Public domain.
000003:                                                                                                  ## Filename:    R31.agc
000004:                                                                                                  ## Purpose:     Part of the reconstructed source code for LMY99 Rev 0,
000005:                                                                                                  ##              otherwise known as Luminary Rev 99, the third release
000006:                                                                                                  ##              of the Apollo Guidance Computer (AGC) software for Apollo 11.
000007:                                                                                                  ##              It differs from LMY99 Rev 1 (the flown version) only in the
000008:                                                                                                  ##              placement of a single label. The corrections shown here have
000009:                                                                                                  ##              been verified to have the same bank checksums as AGC developer
000010:                                                                                                  ##              Allan Klumpp's copy of Luminary Rev 99, and so are believed
000011:                                                                                                  ##              to be accurate. This file is intended to be a faithful
000012:                                                                                                  ##              recreation, except that the code format has been changed to
000013:                                                                                                  ##              conform to the requirements of the yaYUL assembler rather than
000014:                                                                                                  ##              the original YUL assembler.
000015:                                                                                                  ##
000016:                                                                                                  ## Assembler:   yaYUL
000017:                                                                                                  ## Contact:     Ron Burkey <info@sandroid.org>.
000018:                                                                                                  ## Website:     www.ibiblio.org/apollo.
000019:                                                                                                  ## Pages:       703-708
000020:                                                                                                  ## Mod history: 2009-05-19 RSB  Adapted from the corresponding
000021:                                                                                                  ##                              Luminary131 file, using page
000022:                                                                                                  ##                              images from Luminary 1A.
000023:                                                                                                  ##              2016-12-14 RSB  Proofed text comments with octopus/ProoferComments
000024:                                                                                                  ##                              and corrected the errors found.
000025:                                                                                                  ##              2017-03-09 RSB  Comment-text fixes noted in proofing Luminary 116.
000026:                                                                                                  ##              2017-08-01 MAS  Created from LMY99 Rev 1.
000027:
000028:                                                                                                  ## This source code has been transcribed or otherwise adapted from
000029:                                                                                                  ## digitized images of a hardcopy from the MIT Museum.  The digitization
000030:                                                                                                  ## was performed by Paul Fjeld, and arranged for by Deborah Douglas of
000031:                                                                                                  ## the Museum.  Many thanks to both.  The images (with suitable reduction
000032:                                                                                                  ## in storage size and consequent reduction in image quality as well) are
000033:                                                                                                  ## available online at www.ibiblio.org/apollo.  If for some reason you
000034:                                                                                                  ## find that the images are illegible, contact me at info@sandroid.org
000035:                                                                                                  ## about getting access to the (much) higher-quality images which Paul
000036:                                                                                                  ## actually created.
000037:                                                                                                  ##
000038:                                                                                                  ## The code has been modified to match LMY99 Revision 0, otherwise
000039:                                                                                                  ## known as Luminary Revision 99, the Apollo 11 software release preceeding
000040:                                                                                                  ## the listing from which it was transcribed. It has been verified to
000041:                                                                                                  ## contain the same bank checksums as AGC developer Allan Klumpp's listing
000042:                                                                                                  ## of Luminary Revision 99 (for which we do not have scans).
000043:                                                                                                  ##
000044:                                                                                                  ## Notations on Allan Klumpp's listing read, in part:
000045:                                                                                                  ##
000046:                                                                                                  ##      ASSEMBLE REVISION 099 OF AGC PROGRAM LUMINARY BY NASA 2021112-51
000047:


000049: 40,3674                                           BANK     40
000050: 40,2000                                           SETLOC   R31LOC
000051: 40,2000                                           BANK
000052:
000053: 40,3674                                           COUNT*   $$/R31
000054:
000055: 40,3674           35015        R31CALL            CAF      PRIO3
000056: 40,3675           05105                           TC       FINDVAC
000057: 40,3676  E7,1470                                  EBANK=   SUBEXIT
000058: 40,3676           03121 76067                     2CADR    V83CALL
000059:
000060: 40,3700           05221        DSPDELAY           TC       FIXDELAY
000061: 40,3701           00144                           DEC      100        B-14
000062: 40,3702           31044                           CA       EXTVBACT
000063: 40,3703           74740                           MASK     BIT12
000064: 40,3704           00006                           EXTEND
000065: 40,3705           13700                           BZF      DSPDELAY
000066:
000067: 40,3706           35017                           CAF      PRIO5
000068: 40,3707           05072                           TC       NOVAC
000069: 40,3710  E7,1611                                  EBANK=   TSTRT
000070: 40,3710           03113 76067                     2CADR    DISPN5X
000071:
000072: 40,3712           15261                           TCF      TASKOVER
000073:
000074: 37,3113                                           BANK     37
000075: 37,2000                                           SETLOC   R31
000076: 37,2000                                           BANK
000077: 37,3113                                           COUNT*   $$/R31
000078:
000079: 37,3113           33407        DISPN5X            CAF      V16N54
000080: 37,3114           04616                           TC       BANKCALL
000081: 37,3115           20334                           CADR     GOMARKF
000082: 37,3116           05563                           TC       B5OFF
000083: 37,3117           05563                           TC       B5OFF
000084: 37,3120           13113                           TCF      DISPN5X
000085:
000086: 37,3121           40103        V83CALL            CS       FLAGWRD7                              #  TEST AVERAGE G FLAG
000087: 37,3122           74747                           MASK     AVEGFBIT
000088: 37,3123           00006                           EXTEND
000089: 37,3124           13377                           BZF      MUNG?                                 #  ON - TEST MUNFLAG
000090:
000091: 37,3125           40104                           CS       FLAGWRD8
000092: 37,3126           74744                           MASK     SURFFBIT
000093: 37,3127           00006                           EXTEND
000094: 37,3130           13403                           BZF      ONEBASE                               #  ON SURFACE - BYPASS LEMPREC
000095:
000096: 37,3131           06037                           TC       INTPRET                               #  EXTRAPOLATE BOTH STATE VECTORS
000097: 37,3132           77634                           RTB


000099: 37,3133           21573                                    LOADTIME
000100: 37,3134           34041                           STCALL   TDEC1
000101: 37,3135           27057                                    LEMPREC                               #  PRECISION BASE VECTOR FOR LM
000102: 37,3136           77775                           VLOAD
000103: 37,3137           00017                                    RATT1
000104: 37,3140           26170                           STOVL    BASETHP
000105: 37,3141           00025                                    VATT1
000106: 37,3142           16105                           STODL    BASETHV
000107: 37,3143           00015                                    TAT
000108: 37,3144           02114        DOCMBASE           STORE    BASETIME                              #  PRECISION BASE VECTOR FOR CM
000109: 37,3145           34041                           STCALL   TDEC1
000110: 37,3146           27043                                    CSMPREC
000111: 37,3147           77775                           VLOAD
000112: 37,3150           00017                                    RATT1
000113: 37,3151           26140                           STOVL    BASEOTP
000114: 37,3152           00025                                    VATT1
000115: 37,3153           02120                           STORE    BASEOTV
000116: 37,3154           77776                           EXIT
000117:
000118: 37,3155           40103        REV83              CS       FLAGWRD7
000119: 37,3156           74747                           MASK     AVEGFBIT
000120: 37,3157           00006                           EXTEND
000121: 37,3160           13326                           BZF      GETRVN                                #  IF AVEGFLAG SET, USE RN,VN
000122:
000123: 37,3161           40104                           CS       FLAGWRD8
000124: 37,3162           74744                           MASK     SURFFBIT
000125: 37,3163           00006                           EXTEND
000126: 37,3164           13370                           BZF      R31SURF                               #  IF ON SURFACE, USE LEMAREC
000127:
000128: 37,3165           06037                           TC       INTPRET                               #  DO CONIC EXTRAPOLATION FOR BOTH VEHICLES
000129: 37,3166           77634                           RTB
000130: 37,3167           21573                                    LOADTIME
000131: 37,3170           34041                           STCALL   TDEC1
000132: 37,3171           27414                                    INTSTALL
000133: 37,3172           43175                           VLOAD    CLEAR
000134: 37,3173           02170                                    BASETHP
000135: 37,3174           00263                                    MOONFLAG
000136: 37,3175           25535                           STOVL    RCV
000137: 37,3176           02105                                    BASETHV
000138: 37,3177           15543                           STODL    VCV
000139: 37,3200           02114                                    BASETIME
000140: 37,3201           43014                           BOF      SET                                   #  GET APPROPRIATE MOONFLAG SETTING
000141: 37,3202           04344                                    MOONTHIS
000142: 37,3203           77205                                    +2
000143: 37,3204           00063                                    MOONFLAG
000144: 37,3205           77614                           SET
000145: 37,3206           01473                                    INTYPFLG                              #  CONIC EXTRAP.
000146: 37,3207           35517                           STCALL   TET
000147: 37,3210           27107                                    INTEGRVS                              #  INTEGRATION --- AT LAST ---
000148: 37,3211           77775        OTHCONIC           VLOAD


000150: 37,3212           00001                                    RATT
000151: 37,3213           26207                           STOVL    RONE
000152: 37,3214           00007                                    VATT
000153: 37,3215           36215                           STCALL   VONE                                  #  GET SET FOR CONIC EXTRAP., OTHER.
000154: 37,3216           27414                                    INTSTALL
000155: 37,3217           71214                           SET      DLOAD
000156: 37,3220           01473                                    INTYPFLG
000157: 37,3221           00015                                    TAT
000158: 37,3222           00041        OTHINT             STORE    TDEC1
000159: 37,3223           43175                           VLOAD    CLEAR
000160: 37,3224           02140                                    BASEOTP
000161: 37,3225           00263                                    MOONFLAG
000162: 37,3226           25535                           STOVL    RCV
000163: 37,3227           02120                                    BASEOTV
000164: 37,3230           15543                           STODL    VCV
000165: 37,3231           02114                                    BASETIME
000166: 37,3232           43014                           BOF      SET
000167: 37,3233           04344                                    MOONTHIS
000168: 37,3234           77236                                    +2
000169: 37,3235           00063                                    MOONFLAG
000170: 37,3236           35517                           STCALL   TET
000171: 37,3237           27107                                    INTEGRVS
000172: 37,3240           52375        COMPDISP           VLOAD    VSU
000173: 37,3241           00001                                    RATT
000174: 37,3242           02207                                    RONE
000175: 37,3243           65234                           RTB      PDDL
000176: 37,3244           21724                                    NORMUNX1                              #  UNIT(RANGE) TO PD 0-5
000177: 37,3245           00045                                    36D
000178: 37,3246           77657                           SL*                                            #  RESCALE AFTER NORMUNIT
000179: 37,3247           20201                                    0,1
000180: 37,3250           26201                           STOVL    RANGE                                 #  SCALED 2(29)M
000181: 37,3251           00007                                    VATT
000182: 37,3252           50251                           VSU      DOT                                   #  (VCM-VLM).UNIT(LOS), PD=0
000183: 37,3253           02215                                    VONE
000184: 37,3254           77752                           SL1                                            #  SCALED 2(7)M/CS
000185: 37,3255           26203                           STOVL    RRATE
000186: 37,3256           02207                                    RONE
000187: 37,3257           63256                           UNIT     PDVL                                  #  UNIT(R) TO PD 0-5
000188: 37,3260           06514                                    UNITZ
000189: 37,3261           77624                           CALL
000190: 37,3262           47661                                    CDU*NBSM
000191: 37,3263           41505                           VXM      PUSH                                  #  UNIT(Z)/4 TO PD 6-11
000192: 37,3264           01734                                    REFSMMAT
000193: 37,3265           72431                           VPROJ    VSL2                                  #  UNIT(P)=UNIT(UZ-(UZ)PROJ(UR))
000194: 37,3266           00001                                    0D
000195: 37,3267           53445                           BVSU     UNIT
000196: 37,3270           00007                                    6D
000197: 37,3271           47315                           PDVL     VXV                                   #  UNIT(P) TO PD 12-17
000198: 37,3272           00001                                    0D                                    #  UNIT(RL)
000199: 37,3273           02215                                    VONE


000201: 37,3274           50235                           VXV      DOT                                   #  (UR * VL) * UR . U(P)
000202: 37,3275           00001                                    0D
000203: 37,3276           00015                                    12D
000204: 37,3277           77715                           PDVL                                           #  SIGN TO 12-13, LOAD U(P)
000205: 37,3300           75241                           DOT      SIGN
000206: 37,3301           00007                                    6D
000207: 37,3302           00015                                    12D
000208: 37,3303           65512                           SL2      ACOS                                  #  ARCCOS(UP.UZ(SIGN))
000209: 37,3304           26205                           STOVL    RTHETA
000210: 37,3305           00001                                    0D
000211: 37,3306           51041                           DOT      BPL                                   #  IF UR.UZ NEG,
000212: 37,3307           00007                                    6D                                    #        RTHETA = 1 - RTHETA
000213: 37,3310           77315                                    +5
000214: 37,3311           45345                           DLOAD    DSU
000215: 37,3312           06530                                    DPPOSMAX
000216: 37,3313           02205                                    RTHETA
000217: 37,3314           02205                           STORE    RTHETA
000218: 37,3315           77776                           EXIT
000219:
000220: 37,3316           34747                           CA       BIT5
000221: 37,3317           71044                           MASK     EXTVBACT
000222: 37,3320           00006                           EXTEND                                         #  IF ANSWERED,
000223: 37,3321           15472                           BZF      ENDEXT                                #        TERMINATE
000224:
000225: 37,3322           41044                           CS       EXTVBACT
000226: 37,3323           74740                           MASK     BIT12
000227: 37,3324           27044                           ADS      EXTVBACT                              #  SET BIT 12
000228: 37,3325           13155                           TCF      REV83                                 #  AND START AGAIN.
000229:
000230: 37,3326           37710        GETRVN             CA       PRIO22                                #  INHIBIT SERVICER
000231: 37,3327           05146                           TC       PRIOCHNG
000232: 37,3330           06037                           TC       INTPRET
000233: 37,3331           40375                           VLOAD    SETPD
000234: 37,3332           01221                                    RN                                    #  LM STATE VECTOR IN RN,VN
000235: 37,3333           00001                                    0
000236: 37,3334           26207                           STOVL    RONE
000237: 37,3335           01227                                    VN
000238: 37,3336           26215                           STOVL    VONE                                  #  LOAD R(CSM),V(CSM) IN CASE MUNFLAG SET
000239: 37,3337           01726                                    V(CSM)                                #  (TO INSURE TIME COMPATABILITY)
000240: 37,3340           65315                           PDVL     PDDL
000241: 37,3341           01720                                    R(CSM)
000242: 37,3342           01235                                    PIPTIME
000243: 37,3343           77776                           EXIT
000244: 37,3344           35015                           CA       PRIO3
000245: 37,3345           05146                           TC       PRIOCHNG
000246: 37,3346           06037                           TC       INTPRET
000247: 37,3347           77214                           BOFF     VLOAD
000248: 37,3350           03347                                    MUNFLAG
000249: 37,3351           77363                                    GETRVN2                               #  IF MUNFLAG RESET, DO CM DELTA PRECISION


000251: 37,3352           60505                           VXM      VSR4                                  #  CHANGE TO REFERENCE SYSTEM AND RESCALE
000252: 37,3353           01734                                    REFSMMAT
000253: 37,3354           77715                           PDVL                                           #  R TO PD 0-5
000254: 37,3355           76505                           VXM      VSL1
000255: 37,3356           01734                                    REFSMMAT
000256: 37,3357           40206                           PUSH     SETPD                                 #  V TO PD 5-11
000257: 37,3360           00001                                    0
000258: 37,3361           77650                           GOTO
000259: 37,3362           77240                                    COMPDISP
000260:
000261: 37,3363           77624        GETRVN2            CALL
000262: 37,3364           27414                                    INTSTALL
000263: 37,3365           52014                           CLEAR    GOTO
000264: 37,3366           01673                                    INTYPFLG                              #  PREC EXTRAP FOR OTHER
000265: 37,3367           77222                                    OTHINT
000266: 37,3370           06037        R31SURF            TC       INTPRET
000267: 37,3371           77634                           RTB                                            #  LM IS ON SURFACE, SO PRECISION
000268: 37,3372           21573                                    LOADTIME                              #  INTEGRATION USES PLANETARY INERTIAL
000269: 37,3373           34041                           STCALL   TDEC1                                 #  ORIENTATION SUBROUTINE
000270: 37,3374           27057                                    LEMPREC
000271: 37,3375           77650                           GOTO                                           #  DO CSM CONIC
000272: 37,3376           77211                                    OTHCONIC
000273: 37,3377           40102        MUNG?              CS       FLAGWRD6
000274: 37,3400           74744                           MASK     MUNFLBIT
000275: 37,3401           00006                           EXTEND
000276: 37,3402           13326                           BZF      GETRVN                                #  IF MUNFLAG SET, CSM BASE NOT NEEDED
000277:
000278: 37,3403           06037        ONEBASE            TC       INTPRET                               #  GET CSM BASE VECTOR
000279: 37,3404           52034                           RTB      GOTO
000280: 37,3405           21573                                    LOADTIME
000281: 37,3406           77144                                    DOCMBASE
000282:
000283: 37,3407           04066        V16N54             VN       1654
000284:


000287:

End of include-file R31.agc.  Parent file is MAIN.agc


